{
	"contracts/MultilevelNftStaking.sol": {
		"MultilevelNftStaking": {
			"abi": [
				{
					"inputs": [
						{
							"internalType": "uint256",
							"name": "_lockPeriod",
							"type": "uint256"
						},
						{
							"internalType": "uint256",
							"name": "_wave",
							"type": "uint256"
						}
					],
					"stateMutability": "nonpayable",
					"type": "constructor"
				},
				{
					"anonymous": false,
					"inputs": [
						{
							"indexed": false,
							"internalType": "address",
							"name": "collection",
							"type": "address"
						},
						{
							"indexed": false,
							"internalType": "address",
							"name": "rewardToken",
							"type": "address"
						},
						{
							"indexed": false,
							"internalType": "uint256",
							"name": "rewardPerWave",
							"type": "uint256"
						}
					],
					"name": "AddStaking",
					"type": "event"
				},
				{
					"anonymous": false,
					"inputs": [
						{
							"indexed": false,
							"internalType": "uint256",
							"name": "lockPeriod",
							"type": "uint256"
						}
					],
					"name": "LockPeriodUpdated",
					"type": "event"
				},
				{
					"anonymous": false,
					"inputs": [
						{
							"indexed": true,
							"internalType": "address",
							"name": "owner",
							"type": "address"
						},
						{
							"indexed": false,
							"internalType": "uint256[]",
							"name": "tokenIds",
							"type": "uint256[]"
						}
					],
					"name": "NFTLocked",
					"type": "event"
				},
				{
					"anonymous": false,
					"inputs": [
						{
							"indexed": true,
							"internalType": "address",
							"name": "owner",
							"type": "address"
						},
						{
							"indexed": false,
							"internalType": "uint256[]",
							"name": "tokenIds",
							"type": "uint256[]"
						}
					],
					"name": "NFTUnLocked",
					"type": "event"
				},
				{
					"anonymous": false,
					"inputs": [
						{
							"indexed": true,
							"internalType": "address",
							"name": "previousOwner",
							"type": "address"
						},
						{
							"indexed": true,
							"internalType": "address",
							"name": "newOwner",
							"type": "address"
						}
					],
					"name": "OwnershipTransferred",
					"type": "event"
				},
				{
					"anonymous": false,
					"inputs": [
						{
							"indexed": true,
							"internalType": "address",
							"name": "owner",
							"type": "address"
						},
						{
							"indexed": false,
							"internalType": "uint256[]",
							"name": "tokenIds",
							"type": "uint256[]"
						},
						{
							"indexed": false,
							"internalType": "uint256",
							"name": "rewards",
							"type": "uint256"
						}
					],
					"name": "RewardsClaimed",
					"type": "event"
				},
				{
					"inputs": [],
					"name": "WAVE",
					"outputs": [
						{
							"internalType": "uint256",
							"name": "",
							"type": "uint256"
						}
					],
					"stateMutability": "view",
					"type": "function"
				},
				{
					"inputs": [
						{
							"internalType": "address[]",
							"name": "_stakeNFT",
							"type": "address[]"
						},
						{
							"internalType": "address[]",
							"name": "_rewardsToken",
							"type": "address[]"
						},
						{
							"internalType": "uint256[]",
							"name": "_rewardPerWave",
							"type": "uint256[]"
						}
					],
					"name": "addStakingNfts",
					"outputs": [],
					"stateMutability": "nonpayable",
					"type": "function"
				},
				{
					"inputs": [
						{
							"internalType": "uint256[]",
							"name": "_tokenIds",
							"type": "uint256[]"
						},
						{
							"internalType": "contract IERC721",
							"name": "nftAddress",
							"type": "address"
						}
					],
					"name": "claimRewards",
					"outputs": [],
					"stateMutability": "nonpayable",
					"type": "function"
				},
				{
					"inputs": [
						{
							"internalType": "uint256",
							"name": "_tokenId",
							"type": "uint256"
						},
						{
							"internalType": "contract IERC721",
							"name": "nftAddress",
							"type": "address"
						}
					],
					"name": "claimedRewards",
					"outputs": [
						{
							"internalType": "uint256",
							"name": "",
							"type": "uint256"
						}
					],
					"stateMutability": "view",
					"type": "function"
				},
				{
					"inputs": [
						{
							"internalType": "contract IERC721",
							"name": "",
							"type": "address"
						},
						{
							"internalType": "uint256",
							"name": "",
							"type": "uint256"
						}
					],
					"name": "lockInfo",
					"outputs": [
						{
							"internalType": "address",
							"name": "owner",
							"type": "address"
						},
						{
							"internalType": "uint256",
							"name": "lockedTime",
							"type": "uint256"
						},
						{
							"internalType": "uint256",
							"name": "claimedRewards",
							"type": "uint256"
						},
						{
							"internalType": "bool",
							"name": "isUnlocked",
							"type": "bool"
						},
						{
							"internalType": "contract IERC721",
							"name": "contractAddress",
							"type": "address"
						}
					],
					"stateMutability": "view",
					"type": "function"
				},
				{
					"inputs": [
						{
							"internalType": "uint256[]",
							"name": "_tokenIds",
							"type": "uint256[]"
						},
						{
							"internalType": "contract IERC721",
							"name": "nftAddress",
							"type": "address"
						}
					],
					"name": "lockNFT",
					"outputs": [],
					"stateMutability": "nonpayable",
					"type": "function"
				},
				{
					"inputs": [],
					"name": "lockPeriod",
					"outputs": [
						{
							"internalType": "uint256",
							"name": "",
							"type": "uint256"
						}
					],
					"stateMutability": "view",
					"type": "function"
				},
				{
					"inputs": [
						{
							"internalType": "contract IERC721",
							"name": "",
							"type": "address"
						}
					],
					"name": "nftInfo",
					"outputs": [
						{
							"internalType": "contract IRewardsToken",
							"name": "rewardsToken",
							"type": "address"
						},
						{
							"internalType": "uint256",
							"name": "rewardsPerWave",
							"type": "uint256"
						},
						{
							"internalType": "uint256",
							"name": "rewardPercentage",
							"type": "uint256"
						}
					],
					"stateMutability": "view",
					"type": "function"
				},
				{
					"inputs": [],
					"name": "owner",
					"outputs": [
						{
							"internalType": "address",
							"name": "",
							"type": "address"
						}
					],
					"stateMutability": "view",
					"type": "function"
				},
				{
					"inputs": [],
					"name": "renounceOwnership",
					"outputs": [],
					"stateMutability": "nonpayable",
					"type": "function"
				},
				{
					"inputs": [
						{
							"internalType": "uint256",
							"name": "_lockPeriod",
							"type": "uint256"
						}
					],
					"name": "setLockPeriod",
					"outputs": [],
					"stateMutability": "nonpayable",
					"type": "function"
				},
				{
					"inputs": [
						{
							"internalType": "address",
							"name": "newOwner",
							"type": "address"
						}
					],
					"name": "transferOwnership",
					"outputs": [],
					"stateMutability": "nonpayable",
					"type": "function"
				},
				{
					"inputs": [
						{
							"internalType": "uint256[]",
							"name": "_tokenIds",
							"type": "uint256[]"
						},
						{
							"internalType": "contract IERC721",
							"name": "nftAddress",
							"type": "address"
						}
					],
					"name": "unlockNFT",
					"outputs": [],
					"stateMutability": "nonpayable",
					"type": "function"
				}
			],
			"devdoc": {
				"kind": "dev",
				"methods": {
					"addStakingNfts(address[],address[],uint256[])": {
						"details": "add the address NFT staking addresses and their corresponders",
						"params": {
							"_stakeNFT": ", _rewardsToken, _rewardPerWave, _rewardPercentage"
						}
					},
					"claimRewards(uint256[],address)": {
						"details": "claim rewards",
						"params": {
							"_tokenIds": "token ids to unlock"
						}
					},
					"claimedRewards(uint256,address)": {
						"details": "get total claimed rewards for token id",
						"params": {
							"_tokenId": "token id to get claimed Rewards amount"
						}
					},
					"lockNFT(uint256[],address)": {
						"details": "lock NFT into the contract",
						"params": {
							"_tokenIds": "token ids to stake"
						}
					},
					"owner()": {
						"details": "Returns the address of the current owner."
					},
					"renounceOwnership()": {
						"details": "Leaves the contract without owner. It will not be possible to call `onlyOwner` functions anymore. Can only be called by the current owner. NOTE: Renouncing ownership will leave the contract without an owner, thereby removing any functionality that is only available to the owner."
					},
					"setLockPeriod(uint256)": {
						"details": "update lock period",
						"params": {
							"_lockPeriod": "lock period to set"
						}
					},
					"transferOwnership(address)": {
						"details": "Transfers ownership of the contract to a new account (`newOwner`). Can only be called by the current owner."
					},
					"unlockNFT(uint256[],address)": {
						"details": "unlock NFT from the contract",
						"params": {
							"_tokenIds": "token ids to unlock"
						}
					}
				},
				"version": 1
			},
			"evm": {
				"assembly": "    /* \"contracts/MultilevelNftStaking.sol\":412:7947  contract MultilevelNftStaking is Ownable, ReentrancyGuard {... */\n  mstore(0x40, 0x80)\n    /* \"contracts/MultilevelNftStaking.sol\":1677:1881  constructor(... */\n  callvalue\n  dup1\n  iszero\n  tag_1\n  jumpi\n  0x00\n  dup1\n  revert\ntag_1:\n  pop\n  mload(0x40)\n  sub(codesize, bytecodeSize)\n  dup1\n  bytecodeSize\n  dup4\n  codecopy\n  dup2\n  dup2\n  add\n  0x40\n  mstore\n  dup2\n  add\n  swap1\n  tag_2\n  swap2\n  swap1\n  tag_3\n  jump\t// in\ntag_2:\n    /* \"@openzeppelin/contracts/access/Ownable.sol\":936:968  _transferOwnership(_msgSender()) */\n  tag_8\n    /* \"@openzeppelin/contracts/access/Ownable.sol\":955:967  _msgSender() */\n  tag_9\n    /* \"@openzeppelin/contracts/access/Ownable.sol\":955:965  _msgSender */\n  shl(0x20, tag_10)\n    /* \"@openzeppelin/contracts/access/Ownable.sol\":955:967  _msgSender() */\n  0x20\n  shr\n  jump\t// in\ntag_9:\n    /* \"@openzeppelin/contracts/access/Ownable.sol\":936:954  _transferOwnership */\n  shl(0x20, tag_11)\n    /* \"@openzeppelin/contracts/access/Ownable.sol\":936:968  _transferOwnership(_msgSender()) */\n  0x20\n  shr\n  jump\t// in\ntag_8:\n    /* \"@openzeppelin/contracts/security/ReentrancyGuard.sol\":1701:1702  1 */\n  0x01\n    /* \"@openzeppelin/contracts/security/ReentrancyGuard.sol\":1806:1813  _status */\n  dup1\n    /* \"@openzeppelin/contracts/security/ReentrancyGuard.sol\":1806:1828  _status = _NOT_ENTERED */\n  dup2\n  swap1\n  sstore\n  pop\n    /* \"contracts/MultilevelNftStaking.sol\":1788:1789  0 */\n  0x00\n    /* \"contracts/MultilevelNftStaking.sol\":1774:1785  _lockPeriod */\n  dup3\n    /* \"contracts/MultilevelNftStaking.sol\":1774:1789  _lockPeriod > 0 */\n  gt\n    /* \"contracts/MultilevelNftStaking.sol\":1766:1813  require(_lockPeriod > 0, \"Invalid lock period\") */\n  tag_14\n  jumpi\n  mload(0x40)\n  0x08c379a000000000000000000000000000000000000000000000000000000000\n  dup2\n  mstore\n  0x04\n  add\n  tag_15\n  swap1\n  tag_16\n  jump\t// in\ntag_15:\n  mload(0x40)\n  dup1\n  swap2\n  sub\n  swap1\n  revert\ntag_14:\n    /* \"contracts/MultilevelNftStaking.sol\":1839:1850  _lockPeriod */\n  dup2\n    /* \"contracts/MultilevelNftStaking.sol\":1826:1836  lockPeriod */\n  0x02\n    /* \"contracts/MultilevelNftStaking.sol\":1826:1850  lockPeriod = _lockPeriod */\n  dup2\n  swap1\n  sstore\n  pop\n    /* \"contracts/MultilevelNftStaking.sol\":1868:1873  _wave */\n  dup1\n    /* \"contracts/MultilevelNftStaking.sol\":1861:1865  WAVE */\n  0x05\n    /* \"contracts/MultilevelNftStaking.sol\":1861:1873  WAVE = _wave */\n  dup2\n  swap1\n  sstore\n  pop\n    /* \"contracts/MultilevelNftStaking.sol\":1677:1881  constructor(... */\n  pop\n  pop\n    /* \"contracts/MultilevelNftStaking.sol\":412:7947  contract MultilevelNftStaking is Ownable, ReentrancyGuard {... */\n  jump(tag_17)\n    /* \"@openzeppelin/contracts/utils/Context.sol\":640:736  function _msgSender() internal view virtual returns (address) {... */\ntag_10:\n    /* \"@openzeppelin/contracts/utils/Context.sol\":693:700  address */\n  0x00\n    /* \"@openzeppelin/contracts/utils/Context.sol\":719:729  msg.sender */\n  caller\n    /* \"@openzeppelin/contracts/utils/Context.sol\":712:729  return msg.sender */\n  swap1\n  pop\n    /* \"@openzeppelin/contracts/utils/Context.sol\":640:736  function _msgSender() internal view virtual returns (address) {... */\n  swap1\n  jump\t// out\n    /* \"@openzeppelin/contracts/access/Ownable.sol\":2433:2620  function _transferOwnership(address newOwner) internal virtual {... */\ntag_11:\n    /* \"@openzeppelin/contracts/access/Ownable.sol\":2506:2522  address oldOwner */\n  0x00\n    /* \"@openzeppelin/contracts/access/Ownable.sol\":2525:2531  _owner */\n  dup1\n  0x00\n  swap1\n  sload\n  swap1\n  0x0100\n  exp\n  swap1\n  div\n  0xffffffffffffffffffffffffffffffffffffffff\n  and\n    /* \"@openzeppelin/contracts/access/Ownable.sol\":2506:2531  address oldOwner = _owner */\n  swap1\n  pop\n    /* \"@openzeppelin/contracts/access/Ownable.sol\":2550:2558  newOwner */\n  dup2\n    /* \"@openzeppelin/contracts/access/Ownable.sol\":2541:2547  _owner */\n  0x00\n  dup1\n    /* \"@openzeppelin/contracts/access/Ownable.sol\":2541:2558  _owner = newOwner */\n  0x0100\n  exp\n  dup2\n  sload\n  dup2\n  0xffffffffffffffffffffffffffffffffffffffff\n  mul\n  not\n  and\n  swap1\n  dup4\n  0xffffffffffffffffffffffffffffffffffffffff\n  and\n  mul\n  or\n  swap1\n  sstore\n  pop\n    /* \"@openzeppelin/contracts/access/Ownable.sol\":2604:2612  newOwner */\n  dup2\n    /* \"@openzeppelin/contracts/access/Ownable.sol\":2573:2613  OwnershipTransferred(oldOwner, newOwner) */\n  0xffffffffffffffffffffffffffffffffffffffff\n  and\n    /* \"@openzeppelin/contracts/access/Ownable.sol\":2594:2602  oldOwner */\n  dup2\n    /* \"@openzeppelin/contracts/access/Ownable.sol\":2573:2613  OwnershipTransferred(oldOwner, newOwner) */\n  0xffffffffffffffffffffffffffffffffffffffff\n  and\n  0x8be0079c531659141344cd1fd0a4f28419497f9722a3daafe3b4186f6b6457e0\n  mload(0x40)\n  mload(0x40)\n  dup1\n  swap2\n  sub\n  swap1\n  log3\n    /* \"@openzeppelin/contracts/access/Ownable.sol\":2496:2620  {... */\n  pop\n    /* \"@openzeppelin/contracts/access/Ownable.sol\":2433:2620  function _transferOwnership(address newOwner) internal virtual {... */\n  pop\n  jump\t// out\n    /* \"#utility.yul\":88:205   */\ntag_21:\n    /* \"#utility.yul\":197:198   */\n  0x00\n    /* \"#utility.yul\":194:195   */\n  dup1\n    /* \"#utility.yul\":187:199   */\n  revert\n    /* \"#utility.yul\":334:411   */\ntag_23:\n    /* \"#utility.yul\":371:378   */\n  0x00\n    /* \"#utility.yul\":400:405   */\n  dup2\n    /* \"#utility.yul\":389:405   */\n  swap1\n  pop\n    /* \"#utility.yul\":334:411   */\n  swap2\n  swap1\n  pop\n  jump\t// out\n    /* \"#utility.yul\":417:539   */\ntag_24:\n    /* \"#utility.yul\":490:514   */\n  tag_35\n    /* \"#utility.yul\":508:513   */\n  dup2\n    /* \"#utility.yul\":490:514   */\n  tag_23\n  jump\t// in\ntag_35:\n    /* \"#utility.yul\":483:488   */\n  dup2\n    /* \"#utility.yul\":480:515   */\n  eq\n    /* \"#utility.yul\":470:533   */\n  tag_36\n  jumpi\n    /* \"#utility.yul\":529:530   */\n  0x00\n    /* \"#utility.yul\":526:527   */\n  dup1\n    /* \"#utility.yul\":519:531   */\n  revert\n    /* \"#utility.yul\":470:533   */\ntag_36:\n    /* \"#utility.yul\":417:539   */\n  pop\n  jump\t// out\n    /* \"#utility.yul\":545:688   */\ntag_25:\n    /* \"#utility.yul\":602:607   */\n  0x00\n    /* \"#utility.yul\":633:639   */\n  dup2\n    /* \"#utility.yul\":627:640   */\n  mload\n    /* \"#utility.yul\":618:640   */\n  swap1\n  pop\n    /* \"#utility.yul\":649:682   */\n  tag_38\n    /* \"#utility.yul\":676:681   */\n  dup2\n    /* \"#utility.yul\":649:682   */\n  tag_24\n  jump\t// in\ntag_38:\n    /* \"#utility.yul\":545:688   */\n  swap3\n  swap2\n  pop\n  pop\n  jump\t// out\n    /* \"#utility.yul\":694:1201   */\ntag_3:\n    /* \"#utility.yul\":773:779   */\n  0x00\n    /* \"#utility.yul\":781:787   */\n  dup1\n    /* \"#utility.yul\":830:832   */\n  0x40\n    /* \"#utility.yul\":818:827   */\n  dup4\n    /* \"#utility.yul\":809:816   */\n  dup6\n    /* \"#utility.yul\":805:828   */\n  sub\n    /* \"#utility.yul\":801:833   */\n  slt\n    /* \"#utility.yul\":798:917   */\n  iszero\n  tag_40\n  jumpi\n    /* \"#utility.yul\":836:915   */\n  tag_41\n  tag_21\n  jump\t// in\ntag_41:\n    /* \"#utility.yul\":798:917   */\ntag_40:\n    /* \"#utility.yul\":956:957   */\n  0x00\n    /* \"#utility.yul\":981:1045   */\n  tag_42\n    /* \"#utility.yul\":1037:1044   */\n  dup6\n    /* \"#utility.yul\":1028:1034   */\n  dup3\n    /* \"#utility.yul\":1017:1026   */\n  dup7\n    /* \"#utility.yul\":1013:1035   */\n  add\n    /* \"#utility.yul\":981:1045   */\n  tag_25\n  jump\t// in\ntag_42:\n    /* \"#utility.yul\":971:1045   */\n  swap3\n  pop\n    /* \"#utility.yul\":927:1055   */\n  pop\n    /* \"#utility.yul\":1094:1096   */\n  0x20\n    /* \"#utility.yul\":1120:1184   */\n  tag_43\n    /* \"#utility.yul\":1176:1183   */\n  dup6\n    /* \"#utility.yul\":1167:1173   */\n  dup3\n    /* \"#utility.yul\":1156:1165   */\n  dup7\n    /* \"#utility.yul\":1152:1174   */\n  add\n    /* \"#utility.yul\":1120:1184   */\n  tag_25\n  jump\t// in\ntag_43:\n    /* \"#utility.yul\":1110:1184   */\n  swap2\n  pop\n    /* \"#utility.yul\":1065:1194   */\n  pop\n    /* \"#utility.yul\":694:1201   */\n  swap3\n  pop\n  swap3\n  swap1\n  pop\n  jump\t// out\n    /* \"#utility.yul\":1207:1376   */\ntag_26:\n    /* \"#utility.yul\":1291:1302   */\n  0x00\n    /* \"#utility.yul\":1325:1331   */\n  dup3\n    /* \"#utility.yul\":1320:1323   */\n  dup3\n    /* \"#utility.yul\":1313:1332   */\n  mstore\n    /* \"#utility.yul\":1365:1369   */\n  0x20\n    /* \"#utility.yul\":1360:1363   */\n  dup3\n    /* \"#utility.yul\":1356:1370   */\n  add\n    /* \"#utility.yul\":1341:1370   */\n  swap1\n  pop\n    /* \"#utility.yul\":1207:1376   */\n  swap3\n  swap2\n  pop\n  pop\n  jump\t// out\n    /* \"#utility.yul\":1382:1551   */\ntag_27:\n    /* \"#utility.yul\":1522:1543   */\n  0x496e76616c6964206c6f636b20706572696f6400000000000000000000000000\n    /* \"#utility.yul\":1518:1519   */\n  0x00\n    /* \"#utility.yul\":1510:1516   */\n  dup3\n    /* \"#utility.yul\":1506:1520   */\n  add\n    /* \"#utility.yul\":1499:1544   */\n  mstore\n    /* \"#utility.yul\":1382:1551   */\n  pop\n  jump\t// out\n    /* \"#utility.yul\":1557:1923   */\ntag_28:\n    /* \"#utility.yul\":1699:1702   */\n  0x00\n    /* \"#utility.yul\":1720:1787   */\n  tag_47\n    /* \"#utility.yul\":1784:1786   */\n  0x13\n    /* \"#utility.yul\":1779:1782   */\n  dup4\n    /* \"#utility.yul\":1720:1787   */\n  tag_26\n  jump\t// in\ntag_47:\n    /* \"#utility.yul\":1713:1787   */\n  swap2\n  pop\n    /* \"#utility.yul\":1796:1889   */\n  tag_48\n    /* \"#utility.yul\":1885:1888   */\n  dup3\n    /* \"#utility.yul\":1796:1889   */\n  tag_27\n  jump\t// in\ntag_48:\n    /* \"#utility.yul\":1914:1916   */\n  0x20\n    /* \"#utility.yul\":1909:1912   */\n  dup3\n    /* \"#utility.yul\":1905:1917   */\n  add\n    /* \"#utility.yul\":1898:1917   */\n  swap1\n  pop\n    /* \"#utility.yul\":1557:1923   */\n  swap2\n  swap1\n  pop\n  jump\t// out\n    /* \"#utility.yul\":1929:2348   */\ntag_16:\n    /* \"#utility.yul\":2095:2099   */\n  0x00\n    /* \"#utility.yul\":2133:2135   */\n  0x20\n    /* \"#utility.yul\":2122:2131   */\n  dup3\n    /* \"#utility.yul\":2118:2136   */\n  add\n    /* \"#utility.yul\":2110:2136   */\n  swap1\n  pop\n    /* \"#utility.yul\":2182:2191   */\n  dup2\n    /* \"#utility.yul\":2176:2180   */\n  dup2\n    /* \"#utility.yul\":2172:2192   */\n  sub\n    /* \"#utility.yul\":2168:2169   */\n  0x00\n    /* \"#utility.yul\":2157:2166   */\n  dup4\n    /* \"#utility.yul\":2153:2170   */\n  add\n    /* \"#utility.yul\":2146:2193   */\n  mstore\n    /* \"#utility.yul\":2210:2341   */\n  tag_50\n    /* \"#utility.yul\":2336:2340   */\n  dup2\n    /* \"#utility.yul\":2210:2341   */\n  tag_28\n  jump\t// in\ntag_50:\n    /* \"#utility.yul\":2202:2341   */\n  swap1\n  pop\n    /* \"#utility.yul\":1929:2348   */\n  swap2\n  swap1\n  pop\n  jump\t// out\n    /* \"contracts/MultilevelNftStaking.sol\":412:7947  contract MultilevelNftStaking is Ownable, ReentrancyGuard {... */\ntag_17:\n  dataSize(sub_0)\n  dup1\n  dataOffset(sub_0)\n  0x00\n  codecopy\n  0x00\n  return\nstop\n\nsub_0: assembly {\n        /* \"contracts/MultilevelNftStaking.sol\":412:7947  contract MultilevelNftStaking is Ownable, ReentrancyGuard {... */\n      mstore(0x40, 0x80)\n      callvalue\n      dup1\n      iszero\n      tag_1\n      jumpi\n      0x00\n      dup1\n      revert\n    tag_1:\n      pop\n      jumpi(tag_2, lt(calldatasize, 0x04))\n      shr(0xe0, calldataload(0x00))\n      dup1\n      0x8da5cb5b\n      gt\n      tag_16\n      jumpi\n      dup1\n      0xb33068c4\n      gt\n      tag_17\n      jumpi\n      dup1\n      0xb33068c4\n      eq\n      tag_12\n      jumpi\n      dup1\n      0xc69d1923\n      eq\n      tag_13\n      jumpi\n      dup1\n      0xe9545b92\n      eq\n      tag_14\n      jumpi\n      dup1\n      0xf2fde38b\n      eq\n      tag_15\n      jumpi\n      jump(tag_2)\n    tag_17:\n      dup1\n      0x8da5cb5b\n      eq\n      tag_9\n      jumpi\n      dup1\n      0x9f3625f0\n      eq\n      tag_10\n      jumpi\n      dup1\n      0xb2520a7c\n      eq\n      tag_11\n      jumpi\n      jump(tag_2)\n    tag_16:\n      dup1\n      0x0520537f\n      eq\n      tag_3\n      jumpi\n      dup1\n      0x1902732e\n      eq\n      tag_4\n      jumpi\n      dup1\n      0x22b73e08\n      eq\n      tag_5\n      jumpi\n      dup1\n      0x3fd8b02f\n      eq\n      tag_6\n      jumpi\n      dup1\n      0x715018a6\n      eq\n      tag_7\n      jumpi\n      dup1\n      0x779972da\n      eq\n      tag_8\n      jumpi\n    tag_2:\n      0x00\n      dup1\n      revert\n        /* \"contracts/MultilevelNftStaking.sol\":6206:7369  function claimRewards(uint256[] calldata _tokenIds,IERC721 nftAddress) external notContract {... */\n    tag_3:\n      tag_18\n      0x04\n      dup1\n      calldatasize\n      sub\n      dup2\n      add\n      swap1\n      tag_19\n      swap2\n      swap1\n      tag_20\n      jump\t// in\n    tag_19:\n      tag_21\n      jump\t// in\n    tag_18:\n      stop\n        /* \"contracts/MultilevelNftStaking.sol\":4001:4757  function lockNFT(uint256[] calldata  _tokenIds, IERC721 nftAddress ) external notContract nonReentrant {... */\n    tag_4:\n      tag_22\n      0x04\n      dup1\n      calldatasize\n      sub\n      dup2\n      add\n      swap1\n      tag_23\n      swap2\n      swap1\n      tag_20\n      jump\t// in\n    tag_23:\n      tag_24\n      jump\t// in\n    tag_22:\n      stop\n        /* \"contracts/MultilevelNftStaking.sol\":2304:3192  function addStakingNfts(... */\n    tag_5:\n      tag_25\n      0x04\n      dup1\n      calldatasize\n      sub\n      dup2\n      add\n      swap1\n      tag_26\n      swap2\n      swap1\n      tag_27\n      jump\t// in\n    tag_26:\n      tag_28\n      jump\t// in\n    tag_25:\n      stop\n        /* \"contracts/MultilevelNftStaking.sol\":511:536  uint256 public lockPeriod */\n    tag_6:\n      tag_29\n      tag_30\n      jump\t// in\n    tag_29:\n      mload(0x40)\n      tag_31\n      swap2\n      swap1\n      tag_32\n      jump\t// in\n    tag_31:\n      mload(0x40)\n      dup1\n      swap2\n      sub\n      swap1\n      return\n        /* \"@openzeppelin/contracts/access/Ownable.sol\":1831:1932  function renounceOwnership() public virtual onlyOwner {... */\n    tag_7:\n      tag_33\n      tag_34\n      jump\t// in\n    tag_33:\n      stop\n        /* \"contracts/MultilevelNftStaking.sol\":3305:3518  function setLockPeriod(uint256 _lockPeriod) external onlyOwner {... */\n    tag_8:\n      tag_35\n      0x04\n      dup1\n      calldatasize\n      sub\n      dup2\n      add\n      swap1\n      tag_36\n      swap2\n      swap1\n      tag_37\n      jump\t// in\n    tag_36:\n      tag_38\n      jump\t// in\n    tag_35:\n      stop\n        /* \"@openzeppelin/contracts/access/Ownable.sol\":1201:1286  function owner() public view virtual returns (address) {... */\n    tag_9:\n      tag_39\n      tag_40\n      jump\t// in\n    tag_39:\n      mload(0x40)\n      tag_41\n      swap2\n      swap1\n      tag_42\n      jump\t// in\n    tag_41:\n      mload(0x40)\n      dup1\n      swap2\n      sub\n      swap1\n      return\n        /* \"contracts/MultilevelNftStaking.sol\":4870:6108  function unlockNFT(uint256[] calldata _tokenIds, IERC721 nftAddress) external notContract nonReentrant {... */\n    tag_10:\n      tag_43\n      0x04\n      dup1\n      calldatasize\n      sub\n      dup2\n      add\n      swap1\n      tag_44\n      swap2\n      swap1\n      tag_20\n      jump\t// in\n    tag_44:\n      tag_45\n      jump\t// in\n    tag_43:\n      stop\n        /* \"contracts/MultilevelNftStaking.sol\":779:843  mapping(IERC721 => mapping(uint256 => LockInfo)) public lockInfo */\n    tag_11:\n      tag_46\n      0x04\n      dup1\n      calldatasize\n      sub\n      dup2\n      add\n      swap1\n      tag_47\n      swap2\n      swap1\n      tag_48\n      jump\t// in\n    tag_47:\n      tag_49\n      jump\t// in\n    tag_46:\n      mload(0x40)\n      tag_50\n      swap6\n      swap5\n      swap4\n      swap3\n      swap2\n      swap1\n      tag_51\n      jump\t// in\n    tag_50:\n      mload(0x40)\n      dup1\n      swap2\n      sub\n      swap1\n      return\n        /* \"contracts/MultilevelNftStaking.sol\":3686:3860  function claimedRewards(uint256 _tokenId, IERC721 nftAddress) external view returns (uint256) {... */\n    tag_12:\n      tag_52\n      0x04\n      dup1\n      calldatasize\n      sub\n      dup2\n      add\n      swap1\n      tag_53\n      swap2\n      swap1\n      tag_54\n      jump\t// in\n    tag_53:\n      tag_55\n      jump\t// in\n    tag_52:\n      mload(0x40)\n      tag_56\n      swap2\n      swap1\n      tag_32\n      jump\t// in\n    tag_56:\n      mload(0x40)\n      dup1\n      swap2\n      sub\n      swap1\n      return\n        /* \"contracts/MultilevelNftStaking.sol\":1108:1127  uint256 public WAVE */\n    tag_13:\n      tag_57\n      tag_58\n      jump\t// in\n    tag_57:\n      mload(0x40)\n      tag_59\n      swap2\n      swap1\n      tag_32\n      jump\t// in\n    tag_59:\n      mload(0x40)\n      dup1\n      swap2\n      sub\n      swap1\n      return\n        /* \"contracts/MultilevelNftStaking.sol\":1025:1072  mapping(IERC721 => stakeNftInfo) public nftInfo */\n    tag_14:\n      tag_60\n      0x04\n      dup1\n      calldatasize\n      sub\n      dup2\n      add\n      swap1\n      tag_61\n      swap2\n      swap1\n      tag_62\n      jump\t// in\n    tag_61:\n      tag_63\n      jump\t// in\n    tag_60:\n      mload(0x40)\n      tag_64\n      swap4\n      swap3\n      swap2\n      swap1\n      tag_65\n      jump\t// in\n    tag_64:\n      mload(0x40)\n      dup1\n      swap2\n      sub\n      swap1\n      return\n        /* \"@openzeppelin/contracts/access/Ownable.sol\":2081:2279  function transferOwnership(address newOwner) public virtual onlyOwner {... */\n    tag_15:\n      tag_66\n      0x04\n      dup1\n      calldatasize\n      sub\n      dup2\n      add\n      swap1\n      tag_67\n      swap2\n      swap1\n      tag_68\n      jump\t// in\n    tag_67:\n      tag_69\n      jump\t// in\n    tag_66:\n      stop\n        /* \"contracts/MultilevelNftStaking.sol\":6206:7369  function claimRewards(uint256[] calldata _tokenIds,IERC721 nftAddress) external notContract {... */\n    tag_21:\n        /* \"contracts/MultilevelNftStaking.sol\":1954:1986  address(msg.sender).isContract() */\n      tag_71\n        /* \"contracts/MultilevelNftStaking.sol\":1962:1972  msg.sender */\n      caller\n        /* \"contracts/MultilevelNftStaking.sol\":1954:1984  address(msg.sender).isContract */\n      0xffffffffffffffffffffffffffffffffffffffff\n      and\n      tag_72\n        /* \"contracts/MultilevelNftStaking.sol\":1954:1986  address(msg.sender).isContract() */\n      jump\t// in\n    tag_71:\n        /* \"contracts/MultilevelNftStaking.sol\":1953:1986  !address(msg.sender).isContract() */\n      iszero\n        /* \"contracts/MultilevelNftStaking.sol\":1945:2011  require(!address(msg.sender).isContract(), \"Contract not allowed\") */\n      tag_73\n      jumpi\n      mload(0x40)\n      0x08c379a000000000000000000000000000000000000000000000000000000000\n      dup2\n      mstore\n      0x04\n      add\n      tag_74\n      swap1\n      tag_75\n      jump\t// in\n    tag_74:\n      mload(0x40)\n      dup1\n      swap2\n      sub\n      swap1\n      revert\n    tag_73:\n        /* \"contracts/MultilevelNftStaking.sol\":2044:2053  tx.origin */\n      origin\n        /* \"contracts/MultilevelNftStaking.sol\":2030:2053  msg.sender == tx.origin */\n      0xffffffffffffffffffffffffffffffffffffffff\n      and\n        /* \"contracts/MultilevelNftStaking.sol\":2030:2040  msg.sender */\n      caller\n        /* \"contracts/MultilevelNftStaking.sol\":2030:2053  msg.sender == tx.origin */\n      0xffffffffffffffffffffffffffffffffffffffff\n      and\n      eq\n        /* \"contracts/MultilevelNftStaking.sol\":2022:2084  require(msg.sender == tx.origin, \"Proxy contract not allowed\") */\n      tag_76\n      jumpi\n      mload(0x40)\n      0x08c379a000000000000000000000000000000000000000000000000000000000\n      dup2\n      mstore\n      0x04\n      add\n      tag_77\n      swap1\n      tag_78\n      jump\t// in\n    tag_77:\n      mload(0x40)\n      dup1\n      swap2\n      sub\n      swap1\n      revert\n    tag_76:\n        /* \"contracts/MultilevelNftStaking.sol\":6367:6409  0x0000000000000000000000000000000000000000 */\n      0x00\n        /* \"contracts/MultilevelNftStaking.sol\":6317:6410  nftInfo[nftAddress].rewardsToken != IRewardsToken(0x0000000000000000000000000000000000000000) */\n      0xffffffffffffffffffffffffffffffffffffffff\n      and\n        /* \"contracts/MultilevelNftStaking.sol\":6317:6324  nftInfo */\n      0x04\n        /* \"contracts/MultilevelNftStaking.sol\":6317:6336  nftInfo[nftAddress] */\n      0x00\n        /* \"contracts/MultilevelNftStaking.sol\":6325:6335  nftAddress */\n      dup4\n        /* \"contracts/MultilevelNftStaking.sol\":6317:6336  nftInfo[nftAddress] */\n      0xffffffffffffffffffffffffffffffffffffffff\n      and\n      0xffffffffffffffffffffffffffffffffffffffff\n      and\n      dup2\n      mstore\n      0x20\n      add\n      swap1\n      dup2\n      mstore\n      0x20\n      add\n      0x00\n      keccak256\n        /* \"contracts/MultilevelNftStaking.sol\":6317:6349  nftInfo[nftAddress].rewardsToken */\n      0x00\n      add\n      0x00\n      swap1\n      sload\n      swap1\n      0x0100\n      exp\n      swap1\n      div\n      0xffffffffffffffffffffffffffffffffffffffff\n      and\n        /* \"contracts/MultilevelNftStaking.sol\":6317:6410  nftInfo[nftAddress].rewardsToken != IRewardsToken(0x0000000000000000000000000000000000000000) */\n      0xffffffffffffffffffffffffffffffffffffffff\n      and\n      sub\n        /* \"contracts/MultilevelNftStaking.sol\":6309:6461  require(nftInfo[nftAddress].rewardsToken != IRewardsToken(0x0000000000000000000000000000000000000000), \"Staking: Register collection by addStakingNfts\") */\n      tag_80\n      jumpi\n      mload(0x40)\n      0x08c379a000000000000000000000000000000000000000000000000000000000\n      dup2\n      mstore\n      0x04\n      add\n      tag_81\n      swap1\n      tag_82\n      jump\t// in\n    tag_81:\n      mload(0x40)\n      dup1\n      swap2\n      sub\n      swap1\n      revert\n    tag_80:\n        /* \"contracts/MultilevelNftStaking.sol\":6499:6500  0 */\n      0x00\n        /* \"contracts/MultilevelNftStaking.sol\":6480:6489  _tokenIds */\n      dup4\n      dup4\n        /* \"contracts/MultilevelNftStaking.sol\":6480:6496  _tokenIds.length */\n      swap1\n      pop\n        /* \"contracts/MultilevelNftStaking.sol\":6480:6500  _tokenIds.length > 0 */\n      gt\n        /* \"contracts/MultilevelNftStaking.sol\":6472:6514  require(_tokenIds.length > 0, \"No tokens\") */\n      tag_83\n      jumpi\n      mload(0x40)\n      0x08c379a000000000000000000000000000000000000000000000000000000000\n      dup2\n      mstore\n      0x04\n      add\n      tag_84\n      swap1\n      tag_85\n      jump\t// in\n    tag_84:\n      mload(0x40)\n      dup1\n      swap2\n      sub\n      swap1\n      revert\n    tag_83:\n        /* \"contracts/MultilevelNftStaking.sol\":6527:6547  uint256 totalRewards */\n      0x00\n        /* \"contracts/MultilevelNftStaking.sol\":6563:6572  uint256 i */\n      dup1\n        /* \"contracts/MultilevelNftStaking.sol\":6575:6576  0 */\n      0x00\n        /* \"contracts/MultilevelNftStaking.sol\":6563:6576  uint256 i = 0 */\n      swap1\n      pop\n        /* \"contracts/MultilevelNftStaking.sol\":6558:7293  for (uint256 i = 0; i < _tokenIds.length; i++) {... */\n    tag_86:\n        /* \"contracts/MultilevelNftStaking.sol\":6582:6591  _tokenIds */\n      dup5\n      dup5\n        /* \"contracts/MultilevelNftStaking.sol\":6582:6598  _tokenIds.length */\n      swap1\n      pop\n        /* \"contracts/MultilevelNftStaking.sol\":6578:6579  i */\n      dup2\n        /* \"contracts/MultilevelNftStaking.sol\":6578:6598  i < _tokenIds.length */\n      lt\n        /* \"contracts/MultilevelNftStaking.sol\":6558:7293  for (uint256 i = 0; i < _tokenIds.length; i++) {... */\n      iszero\n      tag_87\n      jumpi\n        /* \"contracts/MultilevelNftStaking.sol\":6620:6640  LockInfo memory info */\n      0x00\n        /* \"contracts/MultilevelNftStaking.sol\":6643:6651  lockInfo */\n      0x03\n        /* \"contracts/MultilevelNftStaking.sol\":6643:6672  lockInfo[IERC721(nftAddress)] */\n      0x00\n        /* \"contracts/MultilevelNftStaking.sol\":6660:6670  nftAddress */\n      dup6\n        /* \"contracts/MultilevelNftStaking.sol\":6643:6672  lockInfo[IERC721(nftAddress)] */\n      0xffffffffffffffffffffffffffffffffffffffff\n      and\n      0xffffffffffffffffffffffffffffffffffffffff\n      and\n      dup2\n      mstore\n      0x20\n      add\n      swap1\n      dup2\n      mstore\n      0x20\n      add\n      0x00\n      keccak256\n        /* \"contracts/MultilevelNftStaking.sol\":6643:6686  lockInfo[IERC721(nftAddress)][_tokenIds[i]] */\n      0x00\n        /* \"contracts/MultilevelNftStaking.sol\":6673:6682  _tokenIds */\n      dup8\n      dup8\n        /* \"contracts/MultilevelNftStaking.sol\":6683:6684  i */\n      dup6\n        /* \"contracts/MultilevelNftStaking.sol\":6673:6685  _tokenIds[i] */\n      dup2\n      dup2\n      lt\n      tag_89\n      jumpi\n      tag_90\n      tag_91\n      jump\t// in\n    tag_90:\n    tag_89:\n      swap1\n      pop\n      0x20\n      mul\n      add\n      calldataload\n        /* \"contracts/MultilevelNftStaking.sol\":6643:6686  lockInfo[IERC721(nftAddress)][_tokenIds[i]] */\n      dup2\n      mstore\n      0x20\n      add\n      swap1\n      dup2\n      mstore\n      0x20\n      add\n      0x00\n      keccak256\n        /* \"contracts/MultilevelNftStaking.sol\":6620:6686  LockInfo memory info = lockInfo[IERC721(nftAddress)][_tokenIds[i]] */\n      mload(0x40)\n      dup1\n      0xa0\n      add\n      0x40\n      mstore\n      swap1\n      dup2\n      0x00\n      dup3\n      add\n      0x00\n      swap1\n      sload\n      swap1\n      0x0100\n      exp\n      swap1\n      div\n      0xffffffffffffffffffffffffffffffffffffffff\n      and\n      0xffffffffffffffffffffffffffffffffffffffff\n      and\n      0xffffffffffffffffffffffffffffffffffffffff\n      and\n      dup2\n      mstore\n      0x20\n      add\n      0x01\n      dup3\n      add\n      sload\n      dup2\n      mstore\n      0x20\n      add\n      0x02\n      dup3\n      add\n      sload\n      dup2\n      mstore\n      0x20\n      add\n      0x03\n      dup3\n      add\n      0x00\n      swap1\n      sload\n      swap1\n      0x0100\n      exp\n      swap1\n      div\n      0xff\n      and\n      iszero\n      iszero\n      iszero\n      iszero\n      dup2\n      mstore\n      0x20\n      add\n      0x03\n      dup3\n      add\n      0x01\n      swap1\n      sload\n      swap1\n      0x0100\n      exp\n      swap1\n      div\n      0xffffffffffffffffffffffffffffffffffffffff\n      and\n      0xffffffffffffffffffffffffffffffffffffffff\n      and\n      0xffffffffffffffffffffffffffffffffffffffff\n      and\n      dup2\n      mstore\n      pop\n      pop\n      swap1\n      pop\n        /* \"contracts/MultilevelNftStaking.sol\":6723:6733  msg.sender */\n      caller\n        /* \"contracts/MultilevelNftStaking.sol\":6709:6733  info.owner == msg.sender */\n      0xffffffffffffffffffffffffffffffffffffffff\n      and\n        /* \"contracts/MultilevelNftStaking.sol\":6709:6713  info */\n      dup2\n        /* \"contracts/MultilevelNftStaking.sol\":6709:6719  info.owner */\n      0x00\n      add\n      mload\n        /* \"contracts/MultilevelNftStaking.sol\":6709:6733  info.owner == msg.sender */\n      0xffffffffffffffffffffffffffffffffffffffff\n      and\n      eq\n        /* \"contracts/MultilevelNftStaking.sol\":6701:6755  require(info.owner == msg.sender, \"Not a token owner\") */\n      tag_92\n      jumpi\n      mload(0x40)\n      0x08c379a000000000000000000000000000000000000000000000000000000000\n      dup2\n      mstore\n      0x04\n      add\n      tag_93\n      swap1\n      tag_94\n      jump\t// in\n    tag_93:\n      mload(0x40)\n      dup1\n      swap2\n      sub\n      swap1\n      revert\n    tag_92:\n        /* \"contracts/MultilevelNftStaking.sol\":6809:6824  block.timestamp */\n      timestamp\n        /* \"contracts/MultilevelNftStaking.sol\":6796:6806  lockPeriod */\n      sload(0x02)\n        /* \"contracts/MultilevelNftStaking.sol\":6778:6782  info */\n      dup3\n        /* \"contracts/MultilevelNftStaking.sol\":6778:6793  info.lockedTime */\n      0x20\n      add\n      mload\n        /* \"contracts/MultilevelNftStaking.sol\":6778:6806  info.lockedTime + lockPeriod */\n      tag_95\n      swap2\n      swap1\n      tag_96\n      jump\t// in\n    tag_95:\n        /* \"contracts/MultilevelNftStaking.sol\":6778:6824  info.lockedTime + lockPeriod < block.timestamp */\n      lt\n        /* \"contracts/MultilevelNftStaking.sol\":6770:6850  require(info.lockedTime + lockPeriod < block.timestamp, \"Not able to claim yet\") */\n      tag_97\n      jumpi\n      mload(0x40)\n      0x08c379a000000000000000000000000000000000000000000000000000000000\n      dup2\n      mstore\n      0x04\n      add\n      tag_98\n      swap1\n      tag_99\n      jump\t// in\n    tag_98:\n      mload(0x40)\n      dup1\n      swap2\n      sub\n      swap1\n      revert\n    tag_97:\n        /* \"contracts/MultilevelNftStaking.sol\":6874:6878  info */\n      dup1\n        /* \"contracts/MultilevelNftStaking.sol\":6874:6889  info.isUnlocked */\n      0x60\n      add\n      mload\n        /* \"contracts/MultilevelNftStaking.sol\":6873:6889  !info.isUnlocked */\n      iszero\n        /* \"contracts/MultilevelNftStaking.sol\":6865:6910  require(!info.isUnlocked, \"Already unlocked\") */\n      tag_100\n      jumpi\n      mload(0x40)\n      0x08c379a000000000000000000000000000000000000000000000000000000000\n      dup2\n      mstore\n      0x04\n      add\n      tag_101\n      swap1\n      tag_102\n      jump\t// in\n    tag_101:\n      mload(0x40)\n      dup1\n      swap2\n      sub\n      swap1\n      revert\n    tag_100:\n        /* \"contracts/MultilevelNftStaking.sol\":6927:6946  uint256 totalAmount */\n      0x00\n        /* \"contracts/MultilevelNftStaking.sol\":6949:6988  _rewardAmount(_tokenIds[i], nftAddress) */\n      tag_103\n        /* \"contracts/MultilevelNftStaking.sol\":6963:6972  _tokenIds */\n      dup8\n      dup8\n        /* \"contracts/MultilevelNftStaking.sol\":6973:6974  i */\n      dup6\n        /* \"contracts/MultilevelNftStaking.sol\":6963:6975  _tokenIds[i] */\n      dup2\n      dup2\n      lt\n      tag_104\n      jumpi\n      tag_105\n      tag_91\n      jump\t// in\n    tag_105:\n    tag_104:\n      swap1\n      pop\n      0x20\n      mul\n      add\n      calldataload\n        /* \"contracts/MultilevelNftStaking.sol\":6977:6987  nftAddress */\n      dup7\n        /* \"contracts/MultilevelNftStaking.sol\":6949:6962  _rewardAmount */\n      tag_106\n        /* \"contracts/MultilevelNftStaking.sol\":6949:6988  _rewardAmount(_tokenIds[i], nftAddress) */\n      jump\t// in\n    tag_103:\n        /* \"contracts/MultilevelNftStaking.sol\":6927:6988  uint256 totalAmount = _rewardAmount(_tokenIds[i], nftAddress) */\n      swap1\n      pop\n        /* \"contracts/MultilevelNftStaking.sol\":7003:7027  uint256 unclaminedAmount */\n      0x00\n        /* \"contracts/MultilevelNftStaking.sol\":7044:7048  info */\n      dup3\n        /* \"contracts/MultilevelNftStaking.sol\":7044:7063  info.claimedRewards */\n      0x40\n      add\n      mload\n        /* \"contracts/MultilevelNftStaking.sol\":7030:7041  totalAmount */\n      dup3\n        /* \"contracts/MultilevelNftStaking.sol\":7030:7063  totalAmount - info.claimedRewards */\n      tag_107\n      swap2\n      swap1\n      tag_108\n      jump\t// in\n    tag_107:\n        /* \"contracts/MultilevelNftStaking.sol\":7003:7063  uint256 unclaminedAmount = totalAmount - info.claimedRewards */\n      swap1\n      pop\n        /* \"contracts/MultilevelNftStaking.sol\":7078:7085  nftInfo */\n      0x04\n        /* \"contracts/MultilevelNftStaking.sol\":7078:7097  nftInfo[nftAddress] */\n      0x00\n        /* \"contracts/MultilevelNftStaking.sol\":7086:7096  nftAddress */\n      dup8\n        /* \"contracts/MultilevelNftStaking.sol\":7078:7097  nftInfo[nftAddress] */\n      0xffffffffffffffffffffffffffffffffffffffff\n      and\n      0xffffffffffffffffffffffffffffffffffffffff\n      and\n      dup2\n      mstore\n      0x20\n      add\n      swap1\n      dup2\n      mstore\n      0x20\n      add\n      0x00\n      keccak256\n        /* \"contracts/MultilevelNftStaking.sol\":7078:7110  nftInfo[nftAddress].rewardsToken */\n      0x00\n      add\n      0x00\n      swap1\n      sload\n      swap1\n      0x0100\n      exp\n      swap1\n      div\n      0xffffffffffffffffffffffffffffffffffffffff\n      and\n        /* \"contracts/MultilevelNftStaking.sol\":7078:7115  nftInfo[nftAddress].rewardsToken.mint */\n      0xffffffffffffffffffffffffffffffffffffffff\n      and\n      0x40c10f19\n        /* \"contracts/MultilevelNftStaking.sol\":7116:7126  msg.sender */\n      caller\n        /* \"contracts/MultilevelNftStaking.sol\":7128:7144  unclaminedAmount */\n      dup4\n        /* \"contracts/MultilevelNftStaking.sol\":7078:7145  nftInfo[nftAddress].rewardsToken.mint(msg.sender, unclaminedAmount) */\n      mload(0x40)\n      dup4\n      0xffffffff\n      and\n      0xe0\n      shl\n      dup2\n      mstore\n      0x04\n      add\n      tag_109\n      swap3\n      swap2\n      swap1\n      tag_110\n      jump\t// in\n    tag_109:\n      0x00\n      mload(0x40)\n      dup1\n      dup4\n      sub\n      dup2\n      0x00\n      dup8\n      dup1\n      extcodesize\n      iszero\n      dup1\n      iszero\n      tag_111\n      jumpi\n      0x00\n      dup1\n      revert\n    tag_111:\n      pop\n      gas\n      call\n      iszero\n      dup1\n      iszero\n      tag_113\n      jumpi\n      returndatasize\n      0x00\n      dup1\n      returndatacopy\n      revert(0x00, returndatasize)\n    tag_113:\n      pop\n      pop\n      pop\n      pop\n        /* \"contracts/MultilevelNftStaking.sol\":7176:7192  unclaminedAmount */\n      dup1\n        /* \"contracts/MultilevelNftStaking.sol\":7160:7192  totalRewards += unclaminedAmount */\n      dup6\n      tag_114\n      swap2\n      swap1\n      tag_96\n      jump\t// in\n    tag_114:\n      swap5\n      pop\n        /* \"contracts/MultilevelNftStaking.sol\":7270:7281  totalAmount */\n      dup2\n        /* \"contracts/MultilevelNftStaking.sol\":7209:7217  lockInfo */\n      0x03\n        /* \"contracts/MultilevelNftStaking.sol\":7209:7238  lockInfo[IERC721(nftAddress)] */\n      0x00\n        /* \"contracts/MultilevelNftStaking.sol\":7226:7236  nftAddress */\n      dup9\n        /* \"contracts/MultilevelNftStaking.sol\":7209:7238  lockInfo[IERC721(nftAddress)] */\n      0xffffffffffffffffffffffffffffffffffffffff\n      and\n      0xffffffffffffffffffffffffffffffffffffffff\n      and\n      dup2\n      mstore\n      0x20\n      add\n      swap1\n      dup2\n      mstore\n      0x20\n      add\n      0x00\n      keccak256\n        /* \"contracts/MultilevelNftStaking.sol\":7209:7252  lockInfo[IERC721(nftAddress)][_tokenIds[i]] */\n      0x00\n        /* \"contracts/MultilevelNftStaking.sol\":7239:7248  _tokenIds */\n      dup11\n      dup11\n        /* \"contracts/MultilevelNftStaking.sol\":7249:7250  i */\n      dup9\n        /* \"contracts/MultilevelNftStaking.sol\":7239:7251  _tokenIds[i] */\n      dup2\n      dup2\n      lt\n      tag_115\n      jumpi\n      tag_116\n      tag_91\n      jump\t// in\n    tag_116:\n    tag_115:\n      swap1\n      pop\n      0x20\n      mul\n      add\n      calldataload\n        /* \"contracts/MultilevelNftStaking.sol\":7209:7252  lockInfo[IERC721(nftAddress)][_tokenIds[i]] */\n      dup2\n      mstore\n      0x20\n      add\n      swap1\n      dup2\n      mstore\n      0x20\n      add\n      0x00\n      keccak256\n        /* \"contracts/MultilevelNftStaking.sol\":7209:7267  lockInfo[IERC721(nftAddress)][_tokenIds[i]].claimedRewards */\n      0x02\n      add\n        /* \"contracts/MultilevelNftStaking.sol\":7209:7281  lockInfo[IERC721(nftAddress)][_tokenIds[i]].claimedRewards = totalAmount */\n      dup2\n      swap1\n      sstore\n      pop\n        /* \"contracts/MultilevelNftStaking.sol\":6605:7293  {... */\n      pop\n      pop\n      pop\n        /* \"contracts/MultilevelNftStaking.sol\":6600:6603  i++ */\n      dup1\n      dup1\n      tag_117\n      swap1\n      tag_118\n      jump\t// in\n    tag_117:\n      swap2\n      pop\n      pop\n        /* \"contracts/MultilevelNftStaking.sol\":6558:7293  for (uint256 i = 0; i < _tokenIds.length; i++) {... */\n      jump(tag_86)\n    tag_87:\n      pop\n        /* \"contracts/MultilevelNftStaking.sol\":7325:7335  msg.sender */\n      caller\n        /* \"contracts/MultilevelNftStaking.sol\":7310:7361  RewardsClaimed(msg.sender, _tokenIds, totalRewards) */\n      0xffffffffffffffffffffffffffffffffffffffff\n      and\n      0x37826be3c26dbad83731f4b985f22fa9ef86b6d1974cd77208332b7f1f283c0c\n        /* \"contracts/MultilevelNftStaking.sol\":7337:7346  _tokenIds */\n      dup6\n      dup6\n        /* \"contracts/MultilevelNftStaking.sol\":7348:7360  totalRewards */\n      dup5\n        /* \"contracts/MultilevelNftStaking.sol\":7310:7361  RewardsClaimed(msg.sender, _tokenIds, totalRewards) */\n      mload(0x40)\n      tag_119\n      swap4\n      swap3\n      swap2\n      swap1\n      tag_120\n      jump\t// in\n    tag_119:\n      mload(0x40)\n      dup1\n      swap2\n      sub\n      swap1\n      log2\n        /* \"contracts/MultilevelNftStaking.sol\":6298:7369  {... */\n      pop\n        /* \"contracts/MultilevelNftStaking.sol\":6206:7369  function claimRewards(uint256[] calldata _tokenIds,IERC721 nftAddress) external notContract {... */\n      pop\n      pop\n      pop\n      jump\t// out\n        /* \"contracts/MultilevelNftStaking.sol\":4001:4757  function lockNFT(uint256[] calldata  _tokenIds, IERC721 nftAddress ) external notContract nonReentrant {... */\n    tag_24:\n        /* \"contracts/MultilevelNftStaking.sol\":1954:1986  address(msg.sender).isContract() */\n      tag_122\n        /* \"contracts/MultilevelNftStaking.sol\":1962:1972  msg.sender */\n      caller\n        /* \"contracts/MultilevelNftStaking.sol\":1954:1984  address(msg.sender).isContract */\n      0xffffffffffffffffffffffffffffffffffffffff\n      and\n      tag_72\n        /* \"contracts/MultilevelNftStaking.sol\":1954:1986  address(msg.sender).isContract() */\n      jump\t// in\n    tag_122:\n        /* \"contracts/MultilevelNftStaking.sol\":1953:1986  !address(msg.sender).isContract() */\n      iszero\n        /* \"contracts/MultilevelNftStaking.sol\":1945:2011  require(!address(msg.sender).isContract(), \"Contract not allowed\") */\n      tag_123\n      jumpi\n      mload(0x40)\n      0x08c379a000000000000000000000000000000000000000000000000000000000\n      dup2\n      mstore\n      0x04\n      add\n      tag_124\n      swap1\n      tag_75\n      jump\t// in\n    tag_124:\n      mload(0x40)\n      dup1\n      swap2\n      sub\n      swap1\n      revert\n    tag_123:\n        /* \"contracts/MultilevelNftStaking.sol\":2044:2053  tx.origin */\n      origin\n        /* \"contracts/MultilevelNftStaking.sol\":2030:2053  msg.sender == tx.origin */\n      0xffffffffffffffffffffffffffffffffffffffff\n      and\n        /* \"contracts/MultilevelNftStaking.sol\":2030:2040  msg.sender */\n      caller\n        /* \"contracts/MultilevelNftStaking.sol\":2030:2053  msg.sender == tx.origin */\n      0xffffffffffffffffffffffffffffffffffffffff\n      and\n      eq\n        /* \"contracts/MultilevelNftStaking.sol\":2022:2084  require(msg.sender == tx.origin, \"Proxy contract not allowed\") */\n      tag_125\n      jumpi\n      mload(0x40)\n      0x08c379a000000000000000000000000000000000000000000000000000000000\n      dup2\n      mstore\n      0x04\n      add\n      tag_126\n      swap1\n      tag_78\n      jump\t// in\n    tag_126:\n      mload(0x40)\n      dup1\n      swap2\n      sub\n      swap1\n      revert\n    tag_125:\n        /* \"@openzeppelin/contracts/security/ReentrancyGuard.sol\":1744:1745  2 */\n      0x02\n        /* \"@openzeppelin/contracts/security/ReentrancyGuard.sol\":2325:2332  _status */\n      sload(0x01)\n        /* \"@openzeppelin/contracts/security/ReentrancyGuard.sol\":2325:2344  _status != _ENTERED */\n      sub\n        /* \"@openzeppelin/contracts/security/ReentrancyGuard.sol\":2317:2380  require(_status != _ENTERED, \"ReentrancyGuard: reentrant call\") */\n      tag_128\n      jumpi\n      mload(0x40)\n      0x08c379a000000000000000000000000000000000000000000000000000000000\n      dup2\n      mstore\n      0x04\n      add\n      tag_129\n      swap1\n      tag_130\n      jump\t// in\n    tag_129:\n      mload(0x40)\n      dup1\n      swap2\n      sub\n      swap1\n      revert\n    tag_128:\n        /* \"@openzeppelin/contracts/security/ReentrancyGuard.sol\":1744:1745  2 */\n      0x02\n        /* \"@openzeppelin/contracts/security/ReentrancyGuard.sol\":2455:2462  _status */\n      0x01\n        /* \"@openzeppelin/contracts/security/ReentrancyGuard.sol\":2455:2473  _status = _ENTERED */\n      dup2\n      swap1\n      sstore\n      pop\n        /* \"contracts/MultilevelNftStaking.sol\":4175:4217  0x0000000000000000000000000000000000000000 */\n      0x00\n        /* \"contracts/MultilevelNftStaking.sol\":4125:4218  nftInfo[nftAddress].rewardsToken != IRewardsToken(0x0000000000000000000000000000000000000000) */\n      0xffffffffffffffffffffffffffffffffffffffff\n      and\n        /* \"contracts/MultilevelNftStaking.sol\":4125:4132  nftInfo */\n      0x04\n        /* \"contracts/MultilevelNftStaking.sol\":4125:4144  nftInfo[nftAddress] */\n      0x00\n        /* \"contracts/MultilevelNftStaking.sol\":4133:4143  nftAddress */\n      dup4\n        /* \"contracts/MultilevelNftStaking.sol\":4125:4144  nftInfo[nftAddress] */\n      0xffffffffffffffffffffffffffffffffffffffff\n      and\n      0xffffffffffffffffffffffffffffffffffffffff\n      and\n      dup2\n      mstore\n      0x20\n      add\n      swap1\n      dup2\n      mstore\n      0x20\n      add\n      0x00\n      keccak256\n        /* \"contracts/MultilevelNftStaking.sol\":4125:4157  nftInfo[nftAddress].rewardsToken */\n      0x00\n      add\n      0x00\n      swap1\n      sload\n      swap1\n      0x0100\n      exp\n      swap1\n      div\n      0xffffffffffffffffffffffffffffffffffffffff\n      and\n        /* \"contracts/MultilevelNftStaking.sol\":4125:4218  nftInfo[nftAddress].rewardsToken != IRewardsToken(0x0000000000000000000000000000000000000000) */\n      0xffffffffffffffffffffffffffffffffffffffff\n      and\n      sub\n        /* \"contracts/MultilevelNftStaking.sol\":4117:4269  require(nftInfo[nftAddress].rewardsToken != IRewardsToken(0x0000000000000000000000000000000000000000), \"Staking: Register collection by addStakingNfts\") */\n      tag_132\n      jumpi\n      mload(0x40)\n      0x08c379a000000000000000000000000000000000000000000000000000000000\n      dup2\n      mstore\n      0x04\n      add\n      tag_133\n      swap1\n      tag_82\n      jump\t// in\n    tag_133:\n      mload(0x40)\n      dup1\n      swap2\n      sub\n      swap1\n      revert\n    tag_132:\n        /* \"contracts/MultilevelNftStaking.sol\":4307:4308  0 */\n      0x00\n        /* \"contracts/MultilevelNftStaking.sol\":4288:4297  _tokenIds */\n      dup4\n      dup4\n        /* \"contracts/MultilevelNftStaking.sol\":4288:4304  _tokenIds.length */\n      swap1\n      pop\n        /* \"contracts/MultilevelNftStaking.sol\":4288:4308  _tokenIds.length > 0 */\n      gt\n        /* \"contracts/MultilevelNftStaking.sol\":4280:4322  require(_tokenIds.length > 0, \"No tokens\") */\n      tag_134\n      jumpi\n      mload(0x40)\n      0x08c379a000000000000000000000000000000000000000000000000000000000\n      dup2\n      mstore\n      0x04\n      add\n      tag_135\n      swap1\n      tag_85\n      jump\t// in\n    tag_135:\n      mload(0x40)\n      dup1\n      swap2\n      sub\n      swap1\n      revert\n    tag_134:\n        /* \"contracts/MultilevelNftStaking.sol\":4340:4349  uint256 i */\n      0x00\n        /* \"contracts/MultilevelNftStaking.sol\":4335:4700  for (uint256 i = 0; i < _tokenIds.length; i++) {... */\n    tag_136:\n        /* \"contracts/MultilevelNftStaking.sol\":4359:4368  _tokenIds */\n      dup4\n      dup4\n        /* \"contracts/MultilevelNftStaking.sol\":4359:4375  _tokenIds.length */\n      swap1\n      pop\n        /* \"contracts/MultilevelNftStaking.sol\":4355:4356  i */\n      dup2\n        /* \"contracts/MultilevelNftStaking.sol\":4355:4375  i < _tokenIds.length */\n      lt\n        /* \"contracts/MultilevelNftStaking.sol\":4335:4700  for (uint256 i = 0; i < _tokenIds.length; i++) {... */\n      iszero\n      tag_137\n      jumpi\n        /* \"contracts/MultilevelNftStaking.sol\":4441:4451  msg.sender */\n      caller\n        /* \"contracts/MultilevelNftStaking.sol\":4405:4451  nftAddress.ownerOf(_tokenIds[i]) == msg.sender */\n      0xffffffffffffffffffffffffffffffffffffffff\n      and\n        /* \"contracts/MultilevelNftStaking.sol\":4405:4415  nftAddress */\n      dup3\n        /* \"contracts/MultilevelNftStaking.sol\":4405:4423  nftAddress.ownerOf */\n      0xffffffffffffffffffffffffffffffffffffffff\n      and\n      0x6352211e\n        /* \"contracts/MultilevelNftStaking.sol\":4424:4433  _tokenIds */\n      dup7\n      dup7\n        /* \"contracts/MultilevelNftStaking.sol\":4434:4435  i */\n      dup6\n        /* \"contracts/MultilevelNftStaking.sol\":4424:4436  _tokenIds[i] */\n      dup2\n      dup2\n      lt\n      tag_139\n      jumpi\n      tag_140\n      tag_91\n      jump\t// in\n    tag_140:\n    tag_139:\n      swap1\n      pop\n      0x20\n      mul\n      add\n      calldataload\n        /* \"contracts/MultilevelNftStaking.sol\":4405:4437  nftAddress.ownerOf(_tokenIds[i]) */\n      mload(0x40)\n      dup3\n      0xffffffff\n      and\n      0xe0\n      shl\n      dup2\n      mstore\n      0x04\n      add\n      tag_141\n      swap2\n      swap1\n      tag_32\n      jump\t// in\n    tag_141:\n      0x20\n      mload(0x40)\n      dup1\n      dup4\n      sub\n      dup2\n      dup7\n      gas\n      staticcall\n      iszero\n      dup1\n      iszero\n      tag_143\n      jumpi\n      returndatasize\n      0x00\n      dup1\n      returndatacopy\n      revert(0x00, returndatasize)\n    tag_143:\n      pop\n      pop\n      pop\n      pop\n      mload(0x40)\n      returndatasize\n      not(0x1f)\n      0x1f\n      dup3\n      add\n      and\n      dup3\n      add\n      dup1\n      0x40\n      mstore\n      pop\n      dup2\n      add\n      swap1\n      tag_144\n      swap2\n      swap1\n      tag_145\n      jump\t// in\n    tag_144:\n        /* \"contracts/MultilevelNftStaking.sol\":4405:4451  nftAddress.ownerOf(_tokenIds[i]) == msg.sender */\n      0xffffffffffffffffffffffffffffffffffffffff\n      and\n      eq\n        /* \"contracts/MultilevelNftStaking.sol\":4397:4481  require(nftAddress.ownerOf(_tokenIds[i]) == msg.sender, \"You don't hold this token\") */\n      tag_146\n      jumpi\n      mload(0x40)\n      0x08c379a000000000000000000000000000000000000000000000000000000000\n      dup2\n      mstore\n      0x04\n      add\n      tag_147\n      swap1\n      tag_148\n      jump\t// in\n    tag_147:\n      mload(0x40)\n      dup1\n      swap2\n      sub\n      swap1\n      revert\n    tag_146:\n        /* \"contracts/MultilevelNftStaking.sol\":4496:4506  nftAddress */\n      dup2\n        /* \"contracts/MultilevelNftStaking.sol\":4496:4519  nftAddress.transferFrom */\n      0xffffffffffffffffffffffffffffffffffffffff\n      and\n      0x23b872dd\n        /* \"contracts/MultilevelNftStaking.sol\":4520:4530  msg.sender */\n      caller\n        /* \"contracts/MultilevelNftStaking.sol\":4540:4544  this */\n      address\n        /* \"contracts/MultilevelNftStaking.sol\":4547:4556  _tokenIds */\n      dup8\n      dup8\n        /* \"contracts/MultilevelNftStaking.sol\":4557:4558  i */\n      dup7\n        /* \"contracts/MultilevelNftStaking.sol\":4547:4559  _tokenIds[i] */\n      dup2\n      dup2\n      lt\n      tag_149\n      jumpi\n      tag_150\n      tag_91\n      jump\t// in\n    tag_150:\n    tag_149:\n      swap1\n      pop\n      0x20\n      mul\n      add\n      calldataload\n        /* \"contracts/MultilevelNftStaking.sol\":4496:4560  nftAddress.transferFrom(msg.sender, address(this), _tokenIds[i]) */\n      mload(0x40)\n      dup5\n      0xffffffff\n      and\n      0xe0\n      shl\n      dup2\n      mstore\n      0x04\n      add\n      tag_151\n      swap4\n      swap3\n      swap2\n      swap1\n      tag_152\n      jump\t// in\n    tag_151:\n      0x00\n      mload(0x40)\n      dup1\n      dup4\n      sub\n      dup2\n      0x00\n      dup8\n      dup1\n      extcodesize\n      iszero\n      dup1\n      iszero\n      tag_153\n      jumpi\n      0x00\n      dup1\n      revert\n    tag_153:\n      pop\n      gas\n      call\n      iszero\n      dup1\n      iszero\n      tag_155\n      jumpi\n      returndatasize\n      0x00\n      dup1\n      returndatacopy\n      revert(0x00, returndatasize)\n    tag_155:\n      pop\n      pop\n      pop\n      pop\n        /* \"contracts/MultilevelNftStaking.sol\":4621:4688  LockInfo(msg.sender, block.timestamp, 0, false,IERC721(nftAddress)) */\n      mload(0x40)\n      dup1\n      0xa0\n      add\n      0x40\n      mstore\n      dup1\n        /* \"contracts/MultilevelNftStaking.sol\":4630:4640  msg.sender */\n      caller\n        /* \"contracts/MultilevelNftStaking.sol\":4621:4688  LockInfo(msg.sender, block.timestamp, 0, false,IERC721(nftAddress)) */\n      0xffffffffffffffffffffffffffffffffffffffff\n      and\n      dup2\n      mstore\n      0x20\n      add\n        /* \"contracts/MultilevelNftStaking.sol\":4642:4657  block.timestamp */\n      timestamp\n        /* \"contracts/MultilevelNftStaking.sol\":4621:4688  LockInfo(msg.sender, block.timestamp, 0, false,IERC721(nftAddress)) */\n      dup2\n      mstore\n      0x20\n      add\n        /* \"contracts/MultilevelNftStaking.sol\":4659:4660  0 */\n      0x00\n        /* \"contracts/MultilevelNftStaking.sol\":4621:4688  LockInfo(msg.sender, block.timestamp, 0, false,IERC721(nftAddress)) */\n      dup2\n      mstore\n      0x20\n      add\n        /* \"contracts/MultilevelNftStaking.sol\":4662:4667  false */\n      0x00\n        /* \"contracts/MultilevelNftStaking.sol\":4621:4688  LockInfo(msg.sender, block.timestamp, 0, false,IERC721(nftAddress)) */\n      iszero\n      iszero\n      dup2\n      mstore\n      0x20\n      add\n        /* \"contracts/MultilevelNftStaking.sol\":4676:4686  nftAddress */\n      dup4\n        /* \"contracts/MultilevelNftStaking.sol\":4621:4688  LockInfo(msg.sender, block.timestamp, 0, false,IERC721(nftAddress)) */\n      0xffffffffffffffffffffffffffffffffffffffff\n      and\n      dup2\n      mstore\n      pop\n        /* \"contracts/MultilevelNftStaking.sol\":4575:4583  lockInfo */\n      0x03\n        /* \"contracts/MultilevelNftStaking.sol\":4575:4604  lockInfo[IERC721(nftAddress)] */\n      0x00\n        /* \"contracts/MultilevelNftStaking.sol\":4592:4602  nftAddress */\n      dup5\n        /* \"contracts/MultilevelNftStaking.sol\":4575:4604  lockInfo[IERC721(nftAddress)] */\n      0xffffffffffffffffffffffffffffffffffffffff\n      and\n      0xffffffffffffffffffffffffffffffffffffffff\n      and\n      dup2\n      mstore\n      0x20\n      add\n      swap1\n      dup2\n      mstore\n      0x20\n      add\n      0x00\n      keccak256\n        /* \"contracts/MultilevelNftStaking.sol\":4575:4618  lockInfo[IERC721(nftAddress)][_tokenIds[i]] */\n      0x00\n        /* \"contracts/MultilevelNftStaking.sol\":4605:4614  _tokenIds */\n      dup7\n      dup7\n        /* \"contracts/MultilevelNftStaking.sol\":4615:4616  i */\n      dup6\n        /* \"contracts/MultilevelNftStaking.sol\":4605:4617  _tokenIds[i] */\n      dup2\n      dup2\n      lt\n      tag_156\n      jumpi\n      tag_157\n      tag_91\n      jump\t// in\n    tag_157:\n    tag_156:\n      swap1\n      pop\n      0x20\n      mul\n      add\n      calldataload\n        /* \"contracts/MultilevelNftStaking.sol\":4575:4618  lockInfo[IERC721(nftAddress)][_tokenIds[i]] */\n      dup2\n      mstore\n      0x20\n      add\n      swap1\n      dup2\n      mstore\n      0x20\n      add\n      0x00\n      keccak256\n        /* \"contracts/MultilevelNftStaking.sol\":4575:4688  lockInfo[IERC721(nftAddress)][_tokenIds[i]] = LockInfo(msg.sender, block.timestamp, 0, false,IERC721(nftAddress)) */\n      0x00\n      dup3\n      add\n      mload\n      dup2\n      0x00\n      add\n      exp(0x0100, 0x00)\n      dup2\n      sload\n      dup2\n      0xffffffffffffffffffffffffffffffffffffffff\n      mul\n      not\n      and\n      swap1\n      dup4\n      0xffffffffffffffffffffffffffffffffffffffff\n      and\n      mul\n      or\n      swap1\n      sstore\n      pop\n      0x20\n      dup3\n      add\n      mload\n      dup2\n      0x01\n      add\n      sstore\n      0x40\n      dup3\n      add\n      mload\n      dup2\n      0x02\n      add\n      sstore\n      0x60\n      dup3\n      add\n      mload\n      dup2\n      0x03\n      add\n      exp(0x0100, 0x00)\n      dup2\n      sload\n      dup2\n      0xff\n      mul\n      not\n      and\n      swap1\n      dup4\n      iszero\n      iszero\n      mul\n      or\n      swap1\n      sstore\n      pop\n      0x80\n      dup3\n      add\n      mload\n      dup2\n      0x03\n      add\n      exp(0x0100, 0x01)\n      dup2\n      sload\n      dup2\n      0xffffffffffffffffffffffffffffffffffffffff\n      mul\n      not\n      and\n      swap1\n      dup4\n      0xffffffffffffffffffffffffffffffffffffffff\n      and\n      mul\n      or\n      swap1\n      sstore\n      pop\n      swap1\n      pop\n      pop\n        /* \"contracts/MultilevelNftStaking.sol\":4377:4380  i++ */\n      dup1\n      dup1\n      tag_158\n      swap1\n      tag_118\n      jump\t// in\n    tag_158:\n      swap2\n      pop\n      pop\n        /* \"contracts/MultilevelNftStaking.sol\":4335:4700  for (uint256 i = 0; i < _tokenIds.length; i++) {... */\n      jump(tag_136)\n    tag_137:\n      pop\n        /* \"contracts/MultilevelNftStaking.sol\":4727:4737  msg.sender */\n      caller\n        /* \"contracts/MultilevelNftStaking.sol\":4717:4749  NFTLocked(msg.sender, _tokenIds) */\n      0xffffffffffffffffffffffffffffffffffffffff\n      and\n      0x458be0227bccc9e803dec79bd16767eeaf9925d2ce708eeed7ae1f3621f968f9\n        /* \"contracts/MultilevelNftStaking.sol\":4739:4748  _tokenIds */\n      dup5\n      dup5\n        /* \"contracts/MultilevelNftStaking.sol\":4717:4749  NFTLocked(msg.sender, _tokenIds) */\n      mload(0x40)\n      tag_159\n      swap3\n      swap2\n      swap1\n      tag_160\n      jump\t// in\n    tag_159:\n      mload(0x40)\n      dup1\n      swap2\n      sub\n      swap1\n      log2\n        /* \"@openzeppelin/contracts/security/ReentrancyGuard.sol\":1701:1702  1 */\n      0x01\n        /* \"@openzeppelin/contracts/security/ReentrancyGuard.sol\":2628:2635  _status */\n      dup1\n        /* \"@openzeppelin/contracts/security/ReentrancyGuard.sol\":2628:2650  _status = _NOT_ENTERED */\n      dup2\n      swap1\n      sstore\n      pop\n        /* \"contracts/MultilevelNftStaking.sol\":4001:4757  function lockNFT(uint256[] calldata  _tokenIds, IERC721 nftAddress ) external notContract nonReentrant {... */\n      pop\n      pop\n      pop\n      jump\t// out\n        /* \"contracts/MultilevelNftStaking.sol\":2304:3192  function addStakingNfts(... */\n    tag_28:\n        /* \"@openzeppelin/contracts/access/Ownable.sol\":1094:1107  _checkOwner() */\n      tag_162\n        /* \"@openzeppelin/contracts/access/Ownable.sol\":1094:1105  _checkOwner */\n      tag_163\n        /* \"@openzeppelin/contracts/access/Ownable.sol\":1094:1107  _checkOwner() */\n      jump\t// in\n    tag_162:\n        /* \"contracts/MultilevelNftStaking.sol\":2542:2548  uint i */\n      0x00\n        /* \"contracts/MultilevelNftStaking.sol\":2537:3185  for (uint i = 0; i < _stakeNFT.length; i++) {... */\n    tag_165:\n        /* \"contracts/MultilevelNftStaking.sol\":2558:2567  _stakeNFT */\n      dup4\n        /* \"contracts/MultilevelNftStaking.sol\":2558:2574  _stakeNFT.length */\n      mload\n        /* \"contracts/MultilevelNftStaking.sol\":2554:2555  i */\n      dup2\n        /* \"contracts/MultilevelNftStaking.sol\":2554:2574  i < _stakeNFT.length */\n      lt\n        /* \"contracts/MultilevelNftStaking.sol\":2537:3185  for (uint i = 0; i < _stakeNFT.length; i++) {... */\n      iszero\n      tag_166\n      jumpi\n        /* \"contracts/MultilevelNftStaking.sol\":2628:2629  0 */\n      0x00\n        /* \"contracts/MultilevelNftStaking.sol\":2604:2630  _stakeNFT[i] != address(0) */\n      0xffffffffffffffffffffffffffffffffffffffff\n      and\n        /* \"contracts/MultilevelNftStaking.sol\":2604:2613  _stakeNFT */\n      dup5\n        /* \"contracts/MultilevelNftStaking.sol\":2614:2615  i */\n      dup3\n        /* \"contracts/MultilevelNftStaking.sol\":2604:2616  _stakeNFT[i] */\n      dup2\n      mload\n      dup2\n      lt\n      tag_168\n      jumpi\n      tag_169\n      tag_91\n      jump\t// in\n    tag_169:\n    tag_168:\n      0x20\n      mul\n      0x20\n      add\n      add\n      mload\n        /* \"contracts/MultilevelNftStaking.sol\":2604:2630  _stakeNFT[i] != address(0) */\n      0xffffffffffffffffffffffffffffffffffffffff\n      and\n      sub\n        /* \"contracts/MultilevelNftStaking.sol\":2596:2654  require(_stakeNFT[i] != address(0), \"Invalid Stake Token\") */\n      tag_170\n      jumpi\n      mload(0x40)\n      0x08c379a000000000000000000000000000000000000000000000000000000000\n      dup2\n      mstore\n      0x04\n      add\n      tag_171\n      swap1\n      tag_172\n      jump\t// in\n    tag_171:\n      mload(0x40)\n      dup1\n      swap2\n      sub\n      swap1\n      revert\n    tag_170:\n        /* \"contracts/MultilevelNftStaking.sol\":2705:2706  0 */\n      0x00\n        /* \"contracts/MultilevelNftStaking.sol\":2677:2707  _rewardsToken[i] != address(0) */\n      0xffffffffffffffffffffffffffffffffffffffff\n      and\n        /* \"contracts/MultilevelNftStaking.sol\":2677:2690  _rewardsToken */\n      dup4\n        /* \"contracts/MultilevelNftStaking.sol\":2691:2692  i */\n      dup3\n        /* \"contracts/MultilevelNftStaking.sol\":2677:2693  _rewardsToken[i] */\n      dup2\n      mload\n      dup2\n      lt\n      tag_173\n      jumpi\n      tag_174\n      tag_91\n      jump\t// in\n    tag_174:\n    tag_173:\n      0x20\n      mul\n      0x20\n      add\n      add\n      mload\n        /* \"contracts/MultilevelNftStaking.sol\":2677:2707  _rewardsToken[i] != address(0) */\n      0xffffffffffffffffffffffffffffffffffffffff\n      and\n      sub\n        /* \"contracts/MultilevelNftStaking.sol\":2669:2732  require(_rewardsToken[i] != address(0), \"Invalid Reward Token\") */\n      tag_175\n      jumpi\n      mload(0x40)\n      0x08c379a000000000000000000000000000000000000000000000000000000000\n      dup2\n      mstore\n      0x04\n      add\n      tag_176\n      swap1\n      tag_177\n      jump\t// in\n    tag_176:\n      mload(0x40)\n      dup1\n      swap2\n      sub\n      swap1\n      revert\n    tag_175:\n        /* \"contracts/MultilevelNftStaking.sol\":2763:2772  _stakeNFT */\n      dup4\n        /* \"contracts/MultilevelNftStaking.sol\":2773:2774  i */\n      dup2\n        /* \"contracts/MultilevelNftStaking.sol\":2763:2775  _stakeNFT[i] */\n      dup2\n      mload\n      dup2\n      lt\n      tag_178\n      jumpi\n      tag_179\n      tag_91\n      jump\t// in\n    tag_179:\n    tag_178:\n      0x20\n      mul\n      0x20\n      add\n      add\n      mload\n        /* \"contracts/MultilevelNftStaking.sol\":2755:2794  IERC721(_stakeNFT[i]).supportsInterface */\n      0xffffffffffffffffffffffffffffffffffffffff\n      and\n      0x01ffc9a7\n        /* \"contracts/MultilevelNftStaking.sol\":2795:2805  0x80ac58cd */\n      0x80ac58cd\n        /* \"contracts/MultilevelNftStaking.sol\":2755:2806  IERC721(_stakeNFT[i]).supportsInterface(0x80ac58cd) */\n      mload(0x40)\n      dup3\n      0xffffffff\n      and\n      0xe0\n      shl\n      dup2\n      mstore\n      0x04\n      add\n      tag_180\n      swap2\n      swap1\n      tag_181\n      jump\t// in\n    tag_180:\n      0x20\n      mload(0x40)\n      dup1\n      dup4\n      sub\n      dup2\n      dup7\n      gas\n      staticcall\n      iszero\n      dup1\n      iszero\n      tag_183\n      jumpi\n      returndatasize\n      0x00\n      dup1\n      returndatacopy\n      revert(0x00, returndatasize)\n    tag_183:\n      pop\n      pop\n      pop\n      pop\n      mload(0x40)\n      returndatasize\n      not(0x1f)\n      0x1f\n      dup3\n      add\n      and\n      dup3\n      add\n      dup1\n      0x40\n      mstore\n      pop\n      dup2\n      add\n      swap1\n      tag_184\n      swap2\n      swap1\n      tag_185\n      jump\t// in\n    tag_184:\n        /* \"contracts/MultilevelNftStaking.sol\":2747:2821  require(IERC721(_stakeNFT[i]).supportsInterface(0x80ac58cd), \"Non-erc721\") */\n      tag_186\n      jumpi\n      mload(0x40)\n      0x08c379a000000000000000000000000000000000000000000000000000000000\n      dup2\n      mstore\n      0x04\n      add\n      tag_187\n      swap1\n      tag_188\n      jump\t// in\n    tag_187:\n      mload(0x40)\n      dup1\n      swap2\n      sub\n      swap1\n      revert\n    tag_186:\n        /* \"contracts/MultilevelNftStaking.sol\":2898:2911  _rewardsToken */\n      dup3\n        /* \"contracts/MultilevelNftStaking.sol\":2912:2913  i */\n      dup2\n        /* \"contracts/MultilevelNftStaking.sol\":2898:2914  _rewardsToken[i] */\n      dup2\n      mload\n      dup2\n      lt\n      tag_189\n      jumpi\n      tag_190\n      tag_91\n      jump\t// in\n    tag_190:\n    tag_189:\n      0x20\n      mul\n      0x20\n      add\n      add\n      mload\n        /* \"contracts/MultilevelNftStaking.sol\":2838:2845  nftInfo */\n      0x04\n        /* \"contracts/MultilevelNftStaking.sol\":2838:2868  nftInfo[IERC721(_stakeNFT[i])] */\n      0x00\n        /* \"contracts/MultilevelNftStaking.sol\":2854:2863  _stakeNFT */\n      dup7\n        /* \"contracts/MultilevelNftStaking.sol\":2864:2865  i */\n      dup5\n        /* \"contracts/MultilevelNftStaking.sol\":2854:2866  _stakeNFT[i] */\n      dup2\n      mload\n      dup2\n      lt\n      tag_191\n      jumpi\n      tag_192\n      tag_91\n      jump\t// in\n    tag_192:\n    tag_191:\n      0x20\n      mul\n      0x20\n      add\n      add\n      mload\n        /* \"contracts/MultilevelNftStaking.sol\":2838:2868  nftInfo[IERC721(_stakeNFT[i])] */\n      0xffffffffffffffffffffffffffffffffffffffff\n      and\n      0xffffffffffffffffffffffffffffffffffffffff\n      and\n      dup2\n      mstore\n      0x20\n      add\n      swap1\n      dup2\n      mstore\n      0x20\n      add\n      0x00\n      keccak256\n        /* \"contracts/MultilevelNftStaking.sol\":2838:2881  nftInfo[IERC721(_stakeNFT[i])].rewardsToken */\n      0x00\n      add\n      0x00\n        /* \"contracts/MultilevelNftStaking.sol\":2838:2915  nftInfo[IERC721(_stakeNFT[i])].rewardsToken = IRewardsToken(_rewardsToken[i]) */\n      0x0100\n      exp\n      dup2\n      sload\n      dup2\n      0xffffffffffffffffffffffffffffffffffffffff\n      mul\n      not\n      and\n      swap1\n      dup4\n      0xffffffffffffffffffffffffffffffffffffffff\n      and\n      mul\n      or\n      swap1\n      sstore\n      pop\n        /* \"contracts/MultilevelNftStaking.sol\":2978:2992  _rewardPerWave */\n      dup2\n        /* \"contracts/MultilevelNftStaking.sol\":2993:2994  i */\n      dup2\n        /* \"contracts/MultilevelNftStaking.sol\":2978:2995  _rewardPerWave[i] */\n      dup2\n      mload\n      dup2\n      lt\n      tag_193\n      jumpi\n      tag_194\n      tag_91\n      jump\t// in\n    tag_194:\n    tag_193:\n      0x20\n      mul\n      0x20\n      add\n      add\n      mload\n        /* \"contracts/MultilevelNftStaking.sol\":2930:2937  nftInfo */\n      0x04\n        /* \"contracts/MultilevelNftStaking.sol\":2930:2960  nftInfo[IERC721(_stakeNFT[i])] */\n      0x00\n        /* \"contracts/MultilevelNftStaking.sol\":2946:2955  _stakeNFT */\n      dup7\n        /* \"contracts/MultilevelNftStaking.sol\":2956:2957  i */\n      dup5\n        /* \"contracts/MultilevelNftStaking.sol\":2946:2958  _stakeNFT[i] */\n      dup2\n      mload\n      dup2\n      lt\n      tag_195\n      jumpi\n      tag_196\n      tag_91\n      jump\t// in\n    tag_196:\n    tag_195:\n      0x20\n      mul\n      0x20\n      add\n      add\n      mload\n        /* \"contracts/MultilevelNftStaking.sol\":2930:2960  nftInfo[IERC721(_stakeNFT[i])] */\n      0xffffffffffffffffffffffffffffffffffffffff\n      and\n      0xffffffffffffffffffffffffffffffffffffffff\n      and\n      dup2\n      mstore\n      0x20\n      add\n      swap1\n      dup2\n      mstore\n      0x20\n      add\n      0x00\n      keccak256\n        /* \"contracts/MultilevelNftStaking.sol\":2930:2975  nftInfo[IERC721(_stakeNFT[i])].rewardsPerWave */\n      0x01\n      add\n        /* \"contracts/MultilevelNftStaking.sol\":2930:2995  nftInfo[IERC721(_stakeNFT[i])].rewardsPerWave = _rewardPerWave[i] */\n      dup2\n      swap1\n      sstore\n      pop\n        /* \"contracts/MultilevelNftStaking.sol\":3117:3177  AddStaking(_stakeNFT[i],_rewardsToken[i], _rewardPerWave[i]) */\n      0x2c1c0be88c4eafc46738f696e4995cb7054319395514b7318cee2831ca4aa896\n        /* \"contracts/MultilevelNftStaking.sol\":3128:3137  _stakeNFT */\n      dup5\n        /* \"contracts/MultilevelNftStaking.sol\":3138:3139  i */\n      dup3\n        /* \"contracts/MultilevelNftStaking.sol\":3128:3140  _stakeNFT[i] */\n      dup2\n      mload\n      dup2\n      lt\n      tag_197\n      jumpi\n      tag_198\n      tag_91\n      jump\t// in\n    tag_198:\n    tag_197:\n      0x20\n      mul\n      0x20\n      add\n      add\n      mload\n        /* \"contracts/MultilevelNftStaking.sol\":3141:3154  _rewardsToken */\n      dup5\n        /* \"contracts/MultilevelNftStaking.sol\":3155:3156  i */\n      dup4\n        /* \"contracts/MultilevelNftStaking.sol\":3141:3157  _rewardsToken[i] */\n      dup2\n      mload\n      dup2\n      lt\n      tag_199\n      jumpi\n      tag_200\n      tag_91\n      jump\t// in\n    tag_200:\n    tag_199:\n      0x20\n      mul\n      0x20\n      add\n      add\n      mload\n        /* \"contracts/MultilevelNftStaking.sol\":3159:3173  _rewardPerWave */\n      dup5\n        /* \"contracts/MultilevelNftStaking.sol\":3174:3175  i */\n      dup5\n        /* \"contracts/MultilevelNftStaking.sol\":3159:3176  _rewardPerWave[i] */\n      dup2\n      mload\n      dup2\n      lt\n      tag_201\n      jumpi\n      tag_202\n      tag_91\n      jump\t// in\n    tag_202:\n    tag_201:\n      0x20\n      mul\n      0x20\n      add\n      add\n      mload\n        /* \"contracts/MultilevelNftStaking.sol\":3117:3177  AddStaking(_stakeNFT[i],_rewardsToken[i], _rewardPerWave[i]) */\n      mload(0x40)\n      tag_203\n      swap4\n      swap3\n      swap2\n      swap1\n      tag_152\n      jump\t// in\n    tag_203:\n      mload(0x40)\n      dup1\n      swap2\n      sub\n      swap1\n      log1\n        /* \"contracts/MultilevelNftStaking.sol\":2576:2579  i++ */\n      dup1\n      dup1\n      tag_204\n      swap1\n      tag_118\n      jump\t// in\n    tag_204:\n      swap2\n      pop\n      pop\n        /* \"contracts/MultilevelNftStaking.sol\":2537:3185  for (uint i = 0; i < _stakeNFT.length; i++) {... */\n      jump(tag_165)\n    tag_166:\n      pop\n        /* \"contracts/MultilevelNftStaking.sol\":2304:3192  function addStakingNfts(... */\n      pop\n      pop\n      pop\n      jump\t// out\n        /* \"contracts/MultilevelNftStaking.sol\":511:536  uint256 public lockPeriod */\n    tag_30:\n      sload(0x02)\n      dup2\n      jump\t// out\n        /* \"@openzeppelin/contracts/access/Ownable.sol\":1831:1932  function renounceOwnership() public virtual onlyOwner {... */\n    tag_34:\n        /* \"@openzeppelin/contracts/access/Ownable.sol\":1094:1107  _checkOwner() */\n      tag_206\n        /* \"@openzeppelin/contracts/access/Ownable.sol\":1094:1105  _checkOwner */\n      tag_163\n        /* \"@openzeppelin/contracts/access/Ownable.sol\":1094:1107  _checkOwner() */\n      jump\t// in\n    tag_206:\n        /* \"@openzeppelin/contracts/access/Ownable.sol\":1895:1925  _transferOwnership(address(0)) */\n      tag_208\n        /* \"@openzeppelin/contracts/access/Ownable.sol\":1922:1923  0 */\n      0x00\n        /* \"@openzeppelin/contracts/access/Ownable.sol\":1895:1913  _transferOwnership */\n      tag_209\n        /* \"@openzeppelin/contracts/access/Ownable.sol\":1895:1925  _transferOwnership(address(0)) */\n      jump\t// in\n    tag_208:\n        /* \"@openzeppelin/contracts/access/Ownable.sol\":1831:1932  function renounceOwnership() public virtual onlyOwner {... */\n      jump\t// out\n        /* \"contracts/MultilevelNftStaking.sol\":3305:3518  function setLockPeriod(uint256 _lockPeriod) external onlyOwner {... */\n    tag_38:\n        /* \"@openzeppelin/contracts/access/Ownable.sol\":1094:1107  _checkOwner() */\n      tag_211\n        /* \"@openzeppelin/contracts/access/Ownable.sol\":1094:1105  _checkOwner */\n      tag_163\n        /* \"@openzeppelin/contracts/access/Ownable.sol\":1094:1107  _checkOwner() */\n      jump\t// in\n    tag_211:\n        /* \"contracts/MultilevelNftStaking.sol\":3401:3402  0 */\n      0x00\n        /* \"contracts/MultilevelNftStaking.sol\":3387:3398  _lockPeriod */\n      dup2\n        /* \"contracts/MultilevelNftStaking.sol\":3387:3402  _lockPeriod > 0 */\n      gt\n        /* \"contracts/MultilevelNftStaking.sol\":3379:3427  require(_lockPeriod > 0, \"Invalid lock period.\") */\n      tag_213\n      jumpi\n      mload(0x40)\n      0x08c379a000000000000000000000000000000000000000000000000000000000\n      dup2\n      mstore\n      0x04\n      add\n      tag_214\n      swap1\n      tag_215\n      jump\t// in\n    tag_214:\n      mload(0x40)\n      dup1\n      swap2\n      sub\n      swap1\n      revert\n    tag_213:\n        /* \"contracts/MultilevelNftStaking.sol\":3451:3462  _lockPeriod */\n      dup1\n        /* \"contracts/MultilevelNftStaking.sol\":3438:3448  lockPeriod */\n      0x02\n        /* \"contracts/MultilevelNftStaking.sol\":3438:3462  lockPeriod = _lockPeriod */\n      dup2\n      swap1\n      sstore\n      pop\n        /* \"contracts/MultilevelNftStaking.sol\":3480:3510  LockPeriodUpdated(_lockPeriod) */\n      0x8249ec545e68f6f1e1230133ca48c704d831a7f8e635ded80f3dd9e99b09bb2f\n        /* \"contracts/MultilevelNftStaking.sol\":3498:3509  _lockPeriod */\n      dup2\n        /* \"contracts/MultilevelNftStaking.sol\":3480:3510  LockPeriodUpdated(_lockPeriod) */\n      mload(0x40)\n      tag_216\n      swap2\n      swap1\n      tag_32\n      jump\t// in\n    tag_216:\n      mload(0x40)\n      dup1\n      swap2\n      sub\n      swap1\n      log1\n        /* \"contracts/MultilevelNftStaking.sol\":3305:3518  function setLockPeriod(uint256 _lockPeriod) external onlyOwner {... */\n      pop\n      jump\t// out\n        /* \"@openzeppelin/contracts/access/Ownable.sol\":1201:1286  function owner() public view virtual returns (address) {... */\n    tag_40:\n        /* \"@openzeppelin/contracts/access/Ownable.sol\":1247:1254  address */\n      0x00\n        /* \"@openzeppelin/contracts/access/Ownable.sol\":1273:1279  _owner */\n      dup1\n      0x00\n      swap1\n      sload\n      swap1\n      0x0100\n      exp\n      swap1\n      div\n      0xffffffffffffffffffffffffffffffffffffffff\n      and\n        /* \"@openzeppelin/contracts/access/Ownable.sol\":1266:1279  return _owner */\n      swap1\n      pop\n        /* \"@openzeppelin/contracts/access/Ownable.sol\":1201:1286  function owner() public view virtual returns (address) {... */\n      swap1\n      jump\t// out\n        /* \"contracts/MultilevelNftStaking.sol\":4870:6108  function unlockNFT(uint256[] calldata _tokenIds, IERC721 nftAddress) external notContract nonReentrant {... */\n    tag_45:\n        /* \"contracts/MultilevelNftStaking.sol\":1954:1986  address(msg.sender).isContract() */\n      tag_219\n        /* \"contracts/MultilevelNftStaking.sol\":1962:1972  msg.sender */\n      caller\n        /* \"contracts/MultilevelNftStaking.sol\":1954:1984  address(msg.sender).isContract */\n      0xffffffffffffffffffffffffffffffffffffffff\n      and\n      tag_72\n        /* \"contracts/MultilevelNftStaking.sol\":1954:1986  address(msg.sender).isContract() */\n      jump\t// in\n    tag_219:\n        /* \"contracts/MultilevelNftStaking.sol\":1953:1986  !address(msg.sender).isContract() */\n      iszero\n        /* \"contracts/MultilevelNftStaking.sol\":1945:2011  require(!address(msg.sender).isContract(), \"Contract not allowed\") */\n      tag_220\n      jumpi\n      mload(0x40)\n      0x08c379a000000000000000000000000000000000000000000000000000000000\n      dup2\n      mstore\n      0x04\n      add\n      tag_221\n      swap1\n      tag_75\n      jump\t// in\n    tag_221:\n      mload(0x40)\n      dup1\n      swap2\n      sub\n      swap1\n      revert\n    tag_220:\n        /* \"contracts/MultilevelNftStaking.sol\":2044:2053  tx.origin */\n      origin\n        /* \"contracts/MultilevelNftStaking.sol\":2030:2053  msg.sender == tx.origin */\n      0xffffffffffffffffffffffffffffffffffffffff\n      and\n        /* \"contracts/MultilevelNftStaking.sol\":2030:2040  msg.sender */\n      caller\n        /* \"contracts/MultilevelNftStaking.sol\":2030:2053  msg.sender == tx.origin */\n      0xffffffffffffffffffffffffffffffffffffffff\n      and\n      eq\n        /* \"contracts/MultilevelNftStaking.sol\":2022:2084  require(msg.sender == tx.origin, \"Proxy contract not allowed\") */\n      tag_222\n      jumpi\n      mload(0x40)\n      0x08c379a000000000000000000000000000000000000000000000000000000000\n      dup2\n      mstore\n      0x04\n      add\n      tag_223\n      swap1\n      tag_78\n      jump\t// in\n    tag_223:\n      mload(0x40)\n      dup1\n      swap2\n      sub\n      swap1\n      revert\n    tag_222:\n        /* \"@openzeppelin/contracts/security/ReentrancyGuard.sol\":1744:1745  2 */\n      0x02\n        /* \"@openzeppelin/contracts/security/ReentrancyGuard.sol\":2325:2332  _status */\n      sload(0x01)\n        /* \"@openzeppelin/contracts/security/ReentrancyGuard.sol\":2325:2344  _status != _ENTERED */\n      sub\n        /* \"@openzeppelin/contracts/security/ReentrancyGuard.sol\":2317:2380  require(_status != _ENTERED, \"ReentrancyGuard: reentrant call\") */\n      tag_225\n      jumpi\n      mload(0x40)\n      0x08c379a000000000000000000000000000000000000000000000000000000000\n      dup2\n      mstore\n      0x04\n      add\n      tag_226\n      swap1\n      tag_130\n      jump\t// in\n    tag_226:\n      mload(0x40)\n      dup1\n      swap2\n      sub\n      swap1\n      revert\n    tag_225:\n        /* \"@openzeppelin/contracts/security/ReentrancyGuard.sol\":1744:1745  2 */\n      0x02\n        /* \"@openzeppelin/contracts/security/ReentrancyGuard.sol\":2455:2462  _status */\n      0x01\n        /* \"@openzeppelin/contracts/security/ReentrancyGuard.sol\":2455:2473  _status = _ENTERED */\n      dup2\n      swap1\n      sstore\n      pop\n        /* \"contracts/MultilevelNftStaking.sol\":5042:5084  0x0000000000000000000000000000000000000000 */\n      0x00\n        /* \"contracts/MultilevelNftStaking.sol\":4992:5085  nftInfo[nftAddress].rewardsToken != IRewardsToken(0x0000000000000000000000000000000000000000) */\n      0xffffffffffffffffffffffffffffffffffffffff\n      and\n        /* \"contracts/MultilevelNftStaking.sol\":4992:4999  nftInfo */\n      0x04\n        /* \"contracts/MultilevelNftStaking.sol\":4992:5011  nftInfo[nftAddress] */\n      0x00\n        /* \"contracts/MultilevelNftStaking.sol\":5000:5010  nftAddress */\n      dup4\n        /* \"contracts/MultilevelNftStaking.sol\":4992:5011  nftInfo[nftAddress] */\n      0xffffffffffffffffffffffffffffffffffffffff\n      and\n      0xffffffffffffffffffffffffffffffffffffffff\n      and\n      dup2\n      mstore\n      0x20\n      add\n      swap1\n      dup2\n      mstore\n      0x20\n      add\n      0x00\n      keccak256\n        /* \"contracts/MultilevelNftStaking.sol\":4992:5024  nftInfo[nftAddress].rewardsToken */\n      0x00\n      add\n      0x00\n      swap1\n      sload\n      swap1\n      0x0100\n      exp\n      swap1\n      div\n      0xffffffffffffffffffffffffffffffffffffffff\n      and\n        /* \"contracts/MultilevelNftStaking.sol\":4992:5085  nftInfo[nftAddress].rewardsToken != IRewardsToken(0x0000000000000000000000000000000000000000) */\n      0xffffffffffffffffffffffffffffffffffffffff\n      and\n      sub\n        /* \"contracts/MultilevelNftStaking.sol\":4984:5136  require(nftInfo[nftAddress].rewardsToken != IRewardsToken(0x0000000000000000000000000000000000000000), \"Staking: Register collection by addStakingNfts\") */\n      tag_228\n      jumpi\n      mload(0x40)\n      0x08c379a000000000000000000000000000000000000000000000000000000000\n      dup2\n      mstore\n      0x04\n      add\n      tag_229\n      swap1\n      tag_82\n      jump\t// in\n    tag_229:\n      mload(0x40)\n      dup1\n      swap2\n      sub\n      swap1\n      revert\n    tag_228:\n        /* \"contracts/MultilevelNftStaking.sol\":5174:5175  0 */\n      0x00\n        /* \"contracts/MultilevelNftStaking.sol\":5155:5164  _tokenIds */\n      dup4\n      dup4\n        /* \"contracts/MultilevelNftStaking.sol\":5155:5171  _tokenIds.length */\n      swap1\n      pop\n        /* \"contracts/MultilevelNftStaking.sol\":5155:5175  _tokenIds.length > 0 */\n      gt\n        /* \"contracts/MultilevelNftStaking.sol\":5147:5189  require(_tokenIds.length > 0, \"No tokens\") */\n      tag_230\n      jumpi\n      mload(0x40)\n      0x08c379a000000000000000000000000000000000000000000000000000000000\n      dup2\n      mstore\n      0x04\n      add\n      tag_231\n      swap1\n      tag_85\n      jump\t// in\n    tag_231:\n      mload(0x40)\n      dup1\n      swap2\n      sub\n      swap1\n      revert\n    tag_230:\n        /* \"contracts/MultilevelNftStaking.sol\":5207:5216  uint256 i */\n      0x00\n        /* \"contracts/MultilevelNftStaking.sol\":5202:6049  for (uint256 i = 0; i < _tokenIds.length; i++) {... */\n    tag_232:\n        /* \"contracts/MultilevelNftStaking.sol\":5226:5235  _tokenIds */\n      dup4\n      dup4\n        /* \"contracts/MultilevelNftStaking.sol\":5226:5242  _tokenIds.length */\n      swap1\n      pop\n        /* \"contracts/MultilevelNftStaking.sol\":5222:5223  i */\n      dup2\n        /* \"contracts/MultilevelNftStaking.sol\":5222:5242  i < _tokenIds.length */\n      lt\n        /* \"contracts/MultilevelNftStaking.sol\":5202:6049  for (uint256 i = 0; i < _tokenIds.length; i++) {... */\n      iszero\n      tag_233\n      jumpi\n        /* \"contracts/MultilevelNftStaking.sol\":5264:5284  LockInfo memory info */\n      0x00\n        /* \"contracts/MultilevelNftStaking.sol\":5287:5295  lockInfo */\n      0x03\n        /* \"contracts/MultilevelNftStaking.sol\":5287:5316  lockInfo[IERC721(nftAddress)] */\n      0x00\n        /* \"contracts/MultilevelNftStaking.sol\":5304:5314  nftAddress */\n      dup5\n        /* \"contracts/MultilevelNftStaking.sol\":5287:5316  lockInfo[IERC721(nftAddress)] */\n      0xffffffffffffffffffffffffffffffffffffffff\n      and\n      0xffffffffffffffffffffffffffffffffffffffff\n      and\n      dup2\n      mstore\n      0x20\n      add\n      swap1\n      dup2\n      mstore\n      0x20\n      add\n      0x00\n      keccak256\n        /* \"contracts/MultilevelNftStaking.sol\":5287:5330  lockInfo[IERC721(nftAddress)][_tokenIds[i]] */\n      0x00\n        /* \"contracts/MultilevelNftStaking.sol\":5317:5326  _tokenIds */\n      dup7\n      dup7\n        /* \"contracts/MultilevelNftStaking.sol\":5327:5328  i */\n      dup6\n        /* \"contracts/MultilevelNftStaking.sol\":5317:5329  _tokenIds[i] */\n      dup2\n      dup2\n      lt\n      tag_235\n      jumpi\n      tag_236\n      tag_91\n      jump\t// in\n    tag_236:\n    tag_235:\n      swap1\n      pop\n      0x20\n      mul\n      add\n      calldataload\n        /* \"contracts/MultilevelNftStaking.sol\":5287:5330  lockInfo[IERC721(nftAddress)][_tokenIds[i]] */\n      dup2\n      mstore\n      0x20\n      add\n      swap1\n      dup2\n      mstore\n      0x20\n      add\n      0x00\n      keccak256\n        /* \"contracts/MultilevelNftStaking.sol\":5264:5330  LockInfo memory info = lockInfo[IERC721(nftAddress)][_tokenIds[i]] */\n      mload(0x40)\n      dup1\n      0xa0\n      add\n      0x40\n      mstore\n      swap1\n      dup2\n      0x00\n      dup3\n      add\n      0x00\n      swap1\n      sload\n      swap1\n      0x0100\n      exp\n      swap1\n      div\n      0xffffffffffffffffffffffffffffffffffffffff\n      and\n      0xffffffffffffffffffffffffffffffffffffffff\n      and\n      0xffffffffffffffffffffffffffffffffffffffff\n      and\n      dup2\n      mstore\n      0x20\n      add\n      0x01\n      dup3\n      add\n      sload\n      dup2\n      mstore\n      0x20\n      add\n      0x02\n      dup3\n      add\n      sload\n      dup2\n      mstore\n      0x20\n      add\n      0x03\n      dup3\n      add\n      0x00\n      swap1\n      sload\n      swap1\n      0x0100\n      exp\n      swap1\n      div\n      0xff\n      and\n      iszero\n      iszero\n      iszero\n      iszero\n      dup2\n      mstore\n      0x20\n      add\n      0x03\n      dup3\n      add\n      0x01\n      swap1\n      sload\n      swap1\n      0x0100\n      exp\n      swap1\n      div\n      0xffffffffffffffffffffffffffffffffffffffff\n      and\n      0xffffffffffffffffffffffffffffffffffffffff\n      and\n      0xffffffffffffffffffffffffffffffffffffffff\n      and\n      dup2\n      mstore\n      pop\n      pop\n      swap1\n      pop\n        /* \"contracts/MultilevelNftStaking.sol\":5367:5377  msg.sender */\n      caller\n        /* \"contracts/MultilevelNftStaking.sol\":5353:5377  info.owner == msg.sender */\n      0xffffffffffffffffffffffffffffffffffffffff\n      and\n        /* \"contracts/MultilevelNftStaking.sol\":5353:5357  info */\n      dup2\n        /* \"contracts/MultilevelNftStaking.sol\":5353:5363  info.owner */\n      0x00\n      add\n      mload\n        /* \"contracts/MultilevelNftStaking.sol\":5353:5377  info.owner == msg.sender */\n      0xffffffffffffffffffffffffffffffffffffffff\n      and\n      eq\n        /* \"contracts/MultilevelNftStaking.sol\":5345:5399  require(info.owner == msg.sender, \"Not a token owner\") */\n      tag_237\n      jumpi\n      mload(0x40)\n      0x08c379a000000000000000000000000000000000000000000000000000000000\n      dup2\n      mstore\n      0x04\n      add\n      tag_238\n      swap1\n      tag_94\n      jump\t// in\n    tag_238:\n      mload(0x40)\n      dup1\n      swap2\n      sub\n      swap1\n      revert\n    tag_237:\n        /* \"contracts/MultilevelNftStaking.sol\":5453:5468  block.timestamp */\n      timestamp\n        /* \"contracts/MultilevelNftStaking.sol\":5440:5450  lockPeriod */\n      sload(0x02)\n        /* \"contracts/MultilevelNftStaking.sol\":5422:5426  info */\n      dup3\n        /* \"contracts/MultilevelNftStaking.sol\":5422:5437  info.lockedTime */\n      0x20\n      add\n      mload\n        /* \"contracts/MultilevelNftStaking.sol\":5422:5450  info.lockedTime + lockPeriod */\n      tag_239\n      swap2\n      swap1\n      tag_96\n      jump\t// in\n    tag_239:\n        /* \"contracts/MultilevelNftStaking.sol\":5422:5468  info.lockedTime + lockPeriod < block.timestamp */\n      lt\n        /* \"contracts/MultilevelNftStaking.sol\":5414:5495  require(info.lockedTime + lockPeriod < block.timestamp, \"Not able to unlock yet\") */\n      tag_240\n      jumpi\n      mload(0x40)\n      0x08c379a000000000000000000000000000000000000000000000000000000000\n      dup2\n      mstore\n      0x04\n      add\n      tag_241\n      swap1\n      tag_242\n      jump\t// in\n    tag_241:\n      mload(0x40)\n      dup1\n      swap2\n      sub\n      swap1\n      revert\n    tag_240:\n        /* \"contracts/MultilevelNftStaking.sol\":5519:5523  info */\n      dup1\n        /* \"contracts/MultilevelNftStaking.sol\":5519:5534  info.isUnlocked */\n      0x60\n      add\n      mload\n        /* \"contracts/MultilevelNftStaking.sol\":5518:5534  !info.isUnlocked */\n      iszero\n        /* \"contracts/MultilevelNftStaking.sol\":5510:5555  require(!info.isUnlocked, \"Already unlocked\") */\n      tag_243\n      jumpi\n      mload(0x40)\n      0x08c379a000000000000000000000000000000000000000000000000000000000\n      dup2\n      mstore\n      0x04\n      add\n      tag_244\n      swap1\n      tag_102\n      jump\t// in\n    tag_244:\n      mload(0x40)\n      dup1\n      swap2\n      sub\n      swap1\n      revert\n    tag_243:\n        /* \"contracts/MultilevelNftStaking.sol\":5572:5582  nftAddress */\n      dup3\n        /* \"contracts/MultilevelNftStaking.sol\":5572:5595  nftAddress.transferFrom */\n      0xffffffffffffffffffffffffffffffffffffffff\n      and\n      0x23b872dd\n        /* \"contracts/MultilevelNftStaking.sol\":5604:5608  this */\n      address\n        /* \"contracts/MultilevelNftStaking.sol\":5611:5621  msg.sender */\n      caller\n        /* \"contracts/MultilevelNftStaking.sol\":5623:5632  _tokenIds */\n      dup9\n      dup9\n        /* \"contracts/MultilevelNftStaking.sol\":5633:5634  i */\n      dup8\n        /* \"contracts/MultilevelNftStaking.sol\":5623:5635  _tokenIds[i] */\n      dup2\n      dup2\n      lt\n      tag_245\n      jumpi\n      tag_246\n      tag_91\n      jump\t// in\n    tag_246:\n    tag_245:\n      swap1\n      pop\n      0x20\n      mul\n      add\n      calldataload\n        /* \"contracts/MultilevelNftStaking.sol\":5572:5636  nftAddress.transferFrom(address(this), msg.sender, _tokenIds[i]) */\n      mload(0x40)\n      dup5\n      0xffffffff\n      and\n      0xe0\n      shl\n      dup2\n      mstore\n      0x04\n      add\n      tag_247\n      swap4\n      swap3\n      swap2\n      swap1\n      tag_152\n      jump\t// in\n    tag_247:\n      0x00\n      mload(0x40)\n      dup1\n      dup4\n      sub\n      dup2\n      0x00\n      dup8\n      dup1\n      extcodesize\n      iszero\n      dup1\n      iszero\n      tag_248\n      jumpi\n      0x00\n      dup1\n      revert\n    tag_248:\n      pop\n      gas\n      call\n      iszero\n      dup1\n      iszero\n      tag_250\n      jumpi\n      returndatasize\n      0x00\n      dup1\n      returndatacopy\n      revert(0x00, returndatasize)\n    tag_250:\n      pop\n      pop\n      pop\n      pop\n        /* \"contracts/MultilevelNftStaking.sol\":5653:5672  uint256 totalAmount */\n      0x00\n        /* \"contracts/MultilevelNftStaking.sol\":5675:5714  _rewardAmount(_tokenIds[i], nftAddress) */\n      tag_251\n        /* \"contracts/MultilevelNftStaking.sol\":5689:5698  _tokenIds */\n      dup7\n      dup7\n        /* \"contracts/MultilevelNftStaking.sol\":5699:5700  i */\n      dup6\n        /* \"contracts/MultilevelNftStaking.sol\":5689:5701  _tokenIds[i] */\n      dup2\n      dup2\n      lt\n      tag_252\n      jumpi\n      tag_253\n      tag_91\n      jump\t// in\n    tag_253:\n    tag_252:\n      swap1\n      pop\n      0x20\n      mul\n      add\n      calldataload\n        /* \"contracts/MultilevelNftStaking.sol\":5703:5713  nftAddress */\n      dup6\n        /* \"contracts/MultilevelNftStaking.sol\":5675:5688  _rewardAmount */\n      tag_106\n        /* \"contracts/MultilevelNftStaking.sol\":5675:5714  _rewardAmount(_tokenIds[i], nftAddress) */\n      jump\t// in\n    tag_251:\n        /* \"contracts/MultilevelNftStaking.sol\":5653:5714  uint256 totalAmount = _rewardAmount(_tokenIds[i], nftAddress) */\n      swap1\n      pop\n        /* \"contracts/MultilevelNftStaking.sol\":5729:5753  uint256 unclaminedAmount */\n      0x00\n        /* \"contracts/MultilevelNftStaking.sol\":5770:5774  info */\n      dup3\n        /* \"contracts/MultilevelNftStaking.sol\":5770:5789  info.claimedRewards */\n      0x40\n      add\n      mload\n        /* \"contracts/MultilevelNftStaking.sol\":5756:5767  totalAmount */\n      dup3\n        /* \"contracts/MultilevelNftStaking.sol\":5756:5789  totalAmount - info.claimedRewards */\n      tag_254\n      swap2\n      swap1\n      tag_108\n      jump\t// in\n    tag_254:\n        /* \"contracts/MultilevelNftStaking.sol\":5729:5789  uint256 unclaminedAmount = totalAmount - info.claimedRewards */\n      swap1\n      pop\n        /* \"contracts/MultilevelNftStaking.sol\":5805:5812  nftInfo */\n      0x04\n        /* \"contracts/MultilevelNftStaking.sol\":5805:5824  nftInfo[nftAddress] */\n      0x00\n        /* \"contracts/MultilevelNftStaking.sol\":5813:5823  nftAddress */\n      dup7\n        /* \"contracts/MultilevelNftStaking.sol\":5805:5824  nftInfo[nftAddress] */\n      0xffffffffffffffffffffffffffffffffffffffff\n      and\n      0xffffffffffffffffffffffffffffffffffffffff\n      and\n      dup2\n      mstore\n      0x20\n      add\n      swap1\n      dup2\n      mstore\n      0x20\n      add\n      0x00\n      keccak256\n        /* \"contracts/MultilevelNftStaking.sol\":5805:5837  nftInfo[nftAddress].rewardsToken */\n      0x00\n      add\n      0x00\n      swap1\n      sload\n      swap1\n      0x0100\n      exp\n      swap1\n      div\n      0xffffffffffffffffffffffffffffffffffffffff\n      and\n        /* \"contracts/MultilevelNftStaking.sol\":5805:5842  nftInfo[nftAddress].rewardsToken.mint */\n      0xffffffffffffffffffffffffffffffffffffffff\n      and\n      0x40c10f19\n        /* \"contracts/MultilevelNftStaking.sol\":5843:5853  msg.sender */\n      caller\n        /* \"contracts/MultilevelNftStaking.sol\":5855:5871  unclaminedAmount */\n      dup4\n        /* \"contracts/MultilevelNftStaking.sol\":5805:5872  nftInfo[nftAddress].rewardsToken.mint(msg.sender, unclaminedAmount) */\n      mload(0x40)\n      dup4\n      0xffffffff\n      and\n      0xe0\n      shl\n      dup2\n      mstore\n      0x04\n      add\n      tag_255\n      swap3\n      swap2\n      swap1\n      tag_110\n      jump\t// in\n    tag_255:\n      0x00\n      mload(0x40)\n      dup1\n      dup4\n      sub\n      dup2\n      0x00\n      dup8\n      dup1\n      extcodesize\n      iszero\n      dup1\n      iszero\n      tag_256\n      jumpi\n      0x00\n      dup1\n      revert\n    tag_256:\n      pop\n      gas\n      call\n      iszero\n      dup1\n      iszero\n      tag_258\n      jumpi\n      returndatasize\n      0x00\n      dup1\n      returndatacopy\n      revert(0x00, returndatasize)\n    tag_258:\n      pop\n      pop\n      pop\n      pop\n        /* \"contracts/MultilevelNftStaking.sol\":5950:5961  totalAmount */\n      dup2\n        /* \"contracts/MultilevelNftStaking.sol\":5889:5897  lockInfo */\n      0x03\n        /* \"contracts/MultilevelNftStaking.sol\":5889:5918  lockInfo[IERC721(nftAddress)] */\n      0x00\n        /* \"contracts/MultilevelNftStaking.sol\":5906:5916  nftAddress */\n      dup8\n        /* \"contracts/MultilevelNftStaking.sol\":5889:5918  lockInfo[IERC721(nftAddress)] */\n      0xffffffffffffffffffffffffffffffffffffffff\n      and\n      0xffffffffffffffffffffffffffffffffffffffff\n      and\n      dup2\n      mstore\n      0x20\n      add\n      swap1\n      dup2\n      mstore\n      0x20\n      add\n      0x00\n      keccak256\n        /* \"contracts/MultilevelNftStaking.sol\":5889:5932  lockInfo[IERC721(nftAddress)][_tokenIds[i]] */\n      0x00\n        /* \"contracts/MultilevelNftStaking.sol\":5919:5928  _tokenIds */\n      dup10\n      dup10\n        /* \"contracts/MultilevelNftStaking.sol\":5929:5930  i */\n      dup9\n        /* \"contracts/MultilevelNftStaking.sol\":5919:5931  _tokenIds[i] */\n      dup2\n      dup2\n      lt\n      tag_259\n      jumpi\n      tag_260\n      tag_91\n      jump\t// in\n    tag_260:\n    tag_259:\n      swap1\n      pop\n      0x20\n      mul\n      add\n      calldataload\n        /* \"contracts/MultilevelNftStaking.sol\":5889:5932  lockInfo[IERC721(nftAddress)][_tokenIds[i]] */\n      dup2\n      mstore\n      0x20\n      add\n      swap1\n      dup2\n      mstore\n      0x20\n      add\n      0x00\n      keccak256\n        /* \"contracts/MultilevelNftStaking.sol\":5889:5947  lockInfo[IERC721(nftAddress)][_tokenIds[i]].claimedRewards */\n      0x02\n      add\n        /* \"contracts/MultilevelNftStaking.sol\":5889:5961  lockInfo[IERC721(nftAddress)][_tokenIds[i]].claimedRewards = totalAmount */\n      dup2\n      swap1\n      sstore\n      pop\n        /* \"contracts/MultilevelNftStaking.sol\":6033:6037  true */\n      0x01\n        /* \"contracts/MultilevelNftStaking.sol\":5976:5984  lockInfo */\n      0x03\n        /* \"contracts/MultilevelNftStaking.sol\":5976:6005  lockInfo[IERC721(nftAddress)] */\n      0x00\n        /* \"contracts/MultilevelNftStaking.sol\":5993:6003  nftAddress */\n      dup8\n        /* \"contracts/MultilevelNftStaking.sol\":5976:6005  lockInfo[IERC721(nftAddress)] */\n      0xffffffffffffffffffffffffffffffffffffffff\n      and\n      0xffffffffffffffffffffffffffffffffffffffff\n      and\n      dup2\n      mstore\n      0x20\n      add\n      swap1\n      dup2\n      mstore\n      0x20\n      add\n      0x00\n      keccak256\n        /* \"contracts/MultilevelNftStaking.sol\":5976:6019  lockInfo[IERC721(nftAddress)][_tokenIds[i]] */\n      0x00\n        /* \"contracts/MultilevelNftStaking.sol\":6006:6015  _tokenIds */\n      dup10\n      dup10\n        /* \"contracts/MultilevelNftStaking.sol\":6016:6017  i */\n      dup9\n        /* \"contracts/MultilevelNftStaking.sol\":6006:6018  _tokenIds[i] */\n      dup2\n      dup2\n      lt\n      tag_261\n      jumpi\n      tag_262\n      tag_91\n      jump\t// in\n    tag_262:\n    tag_261:\n      swap1\n      pop\n      0x20\n      mul\n      add\n      calldataload\n        /* \"contracts/MultilevelNftStaking.sol\":5976:6019  lockInfo[IERC721(nftAddress)][_tokenIds[i]] */\n      dup2\n      mstore\n      0x20\n      add\n      swap1\n      dup2\n      mstore\n      0x20\n      add\n      0x00\n      keccak256\n        /* \"contracts/MultilevelNftStaking.sol\":5976:6030  lockInfo[IERC721(nftAddress)][_tokenIds[i]].isUnlocked */\n      0x03\n      add\n      0x00\n        /* \"contracts/MultilevelNftStaking.sol\":5976:6037  lockInfo[IERC721(nftAddress)][_tokenIds[i]].isUnlocked = true */\n      0x0100\n      exp\n      dup2\n      sload\n      dup2\n      0xff\n      mul\n      not\n      and\n      swap1\n      dup4\n      iszero\n      iszero\n      mul\n      or\n      swap1\n      sstore\n      pop\n        /* \"contracts/MultilevelNftStaking.sol\":5249:6049  {... */\n      pop\n      pop\n      pop\n        /* \"contracts/MultilevelNftStaking.sol\":5244:5247  i++ */\n      dup1\n      dup1\n      tag_263\n      swap1\n      tag_118\n      jump\t// in\n    tag_263:\n      swap2\n      pop\n      pop\n        /* \"contracts/MultilevelNftStaking.sol\":5202:6049  for (uint256 i = 0; i < _tokenIds.length; i++) {... */\n      jump(tag_232)\n    tag_233:\n      pop\n        /* \"contracts/MultilevelNftStaking.sol\":6078:6088  msg.sender */\n      caller\n        /* \"contracts/MultilevelNftStaking.sol\":6066:6100  NFTUnLocked(msg.sender, _tokenIds) */\n      0xffffffffffffffffffffffffffffffffffffffff\n      and\n      0x5cb48022479b9ac3bfb10a27965dc010acffc9fc1bc9a52f0b18975b944b54ca\n        /* \"contracts/MultilevelNftStaking.sol\":6090:6099  _tokenIds */\n      dup5\n      dup5\n        /* \"contracts/MultilevelNftStaking.sol\":6066:6100  NFTUnLocked(msg.sender, _tokenIds) */\n      mload(0x40)\n      tag_264\n      swap3\n      swap2\n      swap1\n      tag_160\n      jump\t// in\n    tag_264:\n      mload(0x40)\n      dup1\n      swap2\n      sub\n      swap1\n      log2\n        /* \"@openzeppelin/contracts/security/ReentrancyGuard.sol\":1701:1702  1 */\n      0x01\n        /* \"@openzeppelin/contracts/security/ReentrancyGuard.sol\":2628:2635  _status */\n      dup1\n        /* \"@openzeppelin/contracts/security/ReentrancyGuard.sol\":2628:2650  _status = _NOT_ENTERED */\n      dup2\n      swap1\n      sstore\n      pop\n        /* \"contracts/MultilevelNftStaking.sol\":4870:6108  function unlockNFT(uint256[] calldata _tokenIds, IERC721 nftAddress) external notContract nonReentrant {... */\n      pop\n      pop\n      pop\n      jump\t// out\n        /* \"contracts/MultilevelNftStaking.sol\":779:843  mapping(IERC721 => mapping(uint256 => LockInfo)) public lockInfo */\n    tag_49:\n      mstore(0x20, 0x03)\n      dup2\n      0x00\n      mstore\n      mstore(0x20, keccak256(0x00, 0x40))\n      dup1\n      0x00\n      mstore\n      keccak256(0x00, 0x40)\n      0x00\n      swap2\n      pop\n      swap2\n      pop\n      pop\n      dup1\n      0x00\n      add\n      0x00\n      swap1\n      sload\n      swap1\n      0x0100\n      exp\n      swap1\n      div\n      0xffffffffffffffffffffffffffffffffffffffff\n      and\n      swap1\n      dup1\n      0x01\n      add\n      sload\n      swap1\n      dup1\n      0x02\n      add\n      sload\n      swap1\n      dup1\n      0x03\n      add\n      0x00\n      swap1\n      sload\n      swap1\n      0x0100\n      exp\n      swap1\n      div\n      0xff\n      and\n      swap1\n      dup1\n      0x03\n      add\n      0x01\n      swap1\n      sload\n      swap1\n      0x0100\n      exp\n      swap1\n      div\n      0xffffffffffffffffffffffffffffffffffffffff\n      and\n      swap1\n      pop\n      dup6\n      jump\t// out\n        /* \"contracts/MultilevelNftStaking.sol\":3686:3860  function claimedRewards(uint256 _tokenId, IERC721 nftAddress) external view returns (uint256) {... */\n    tag_55:\n        /* \"contracts/MultilevelNftStaking.sol\":3771:3778  uint256 */\n      0x00\n        /* \"contracts/MultilevelNftStaking.sol\":3798:3806  lockInfo */\n      0x03\n        /* \"contracts/MultilevelNftStaking.sol\":3798:3827  lockInfo[IERC721(nftAddress)] */\n      0x00\n        /* \"contracts/MultilevelNftStaking.sol\":3815:3825  nftAddress */\n      dup4\n        /* \"contracts/MultilevelNftStaking.sol\":3798:3827  lockInfo[IERC721(nftAddress)] */\n      0xffffffffffffffffffffffffffffffffffffffff\n      and\n      0xffffffffffffffffffffffffffffffffffffffff\n      and\n      dup2\n      mstore\n      0x20\n      add\n      swap1\n      dup2\n      mstore\n      0x20\n      add\n      0x00\n      keccak256\n        /* \"contracts/MultilevelNftStaking.sol\":3798:3837  lockInfo[IERC721(nftAddress)][_tokenId] */\n      0x00\n        /* \"contracts/MultilevelNftStaking.sol\":3828:3836  _tokenId */\n      dup5\n        /* \"contracts/MultilevelNftStaking.sol\":3798:3837  lockInfo[IERC721(nftAddress)][_tokenId] */\n      dup2\n      mstore\n      0x20\n      add\n      swap1\n      dup2\n      mstore\n      0x20\n      add\n      0x00\n      keccak256\n        /* \"contracts/MultilevelNftStaking.sol\":3798:3852  lockInfo[IERC721(nftAddress)][_tokenId].claimedRewards */\n      0x02\n      add\n      sload\n        /* \"contracts/MultilevelNftStaking.sol\":3791:3852  return lockInfo[IERC721(nftAddress)][_tokenId].claimedRewards */\n      swap1\n      pop\n        /* \"contracts/MultilevelNftStaking.sol\":3686:3860  function claimedRewards(uint256 _tokenId, IERC721 nftAddress) external view returns (uint256) {... */\n      swap3\n      swap2\n      pop\n      pop\n      jump\t// out\n        /* \"contracts/MultilevelNftStaking.sol\":1108:1127  uint256 public WAVE */\n    tag_58:\n      sload(0x05)\n      dup2\n      jump\t// out\n        /* \"contracts/MultilevelNftStaking.sol\":1025:1072  mapping(IERC721 => stakeNftInfo) public nftInfo */\n    tag_63:\n      mstore(0x20, 0x04)\n      dup1\n      0x00\n      mstore\n      keccak256(0x00, 0x40)\n      0x00\n      swap2\n      pop\n      swap1\n      pop\n      dup1\n      0x00\n      add\n      0x00\n      swap1\n      sload\n      swap1\n      0x0100\n      exp\n      swap1\n      div\n      0xffffffffffffffffffffffffffffffffffffffff\n      and\n      swap1\n      dup1\n      0x01\n      add\n      sload\n      swap1\n      dup1\n      0x02\n      add\n      sload\n      swap1\n      pop\n      dup4\n      jump\t// out\n        /* \"@openzeppelin/contracts/access/Ownable.sol\":2081:2279  function transferOwnership(address newOwner) public virtual onlyOwner {... */\n    tag_69:\n        /* \"@openzeppelin/contracts/access/Ownable.sol\":1094:1107  _checkOwner() */\n      tag_267\n        /* \"@openzeppelin/contracts/access/Ownable.sol\":1094:1105  _checkOwner */\n      tag_163\n        /* \"@openzeppelin/contracts/access/Ownable.sol\":1094:1107  _checkOwner() */\n      jump\t// in\n    tag_267:\n        /* \"@openzeppelin/contracts/access/Ownable.sol\":2189:2190  0 */\n      0x00\n        /* \"@openzeppelin/contracts/access/Ownable.sol\":2169:2191  newOwner != address(0) */\n      0xffffffffffffffffffffffffffffffffffffffff\n      and\n        /* \"@openzeppelin/contracts/access/Ownable.sol\":2169:2177  newOwner */\n      dup2\n        /* \"@openzeppelin/contracts/access/Ownable.sol\":2169:2191  newOwner != address(0) */\n      0xffffffffffffffffffffffffffffffffffffffff\n      and\n      sub\n        /* \"@openzeppelin/contracts/access/Ownable.sol\":2161:2234  require(newOwner != address(0), \"Ownable: new owner is the zero address\") */\n      tag_269\n      jumpi\n      mload(0x40)\n      0x08c379a000000000000000000000000000000000000000000000000000000000\n      dup2\n      mstore\n      0x04\n      add\n      tag_270\n      swap1\n      tag_271\n      jump\t// in\n    tag_270:\n      mload(0x40)\n      dup1\n      swap2\n      sub\n      swap1\n      revert\n    tag_269:\n        /* \"@openzeppelin/contracts/access/Ownable.sol\":2244:2272  _transferOwnership(newOwner) */\n      tag_272\n        /* \"@openzeppelin/contracts/access/Ownable.sol\":2263:2271  newOwner */\n      dup2\n        /* \"@openzeppelin/contracts/access/Ownable.sol\":2244:2262  _transferOwnership */\n      tag_209\n        /* \"@openzeppelin/contracts/access/Ownable.sol\":2244:2272  _transferOwnership(newOwner) */\n      jump\t// in\n    tag_272:\n        /* \"@openzeppelin/contracts/access/Ownable.sol\":2081:2279  function transferOwnership(address newOwner) public virtual onlyOwner {... */\n      pop\n      jump\t// out\n        /* \"@openzeppelin/contracts/utils/Address.sol\":1175:1495  function isContract(address account) internal view returns (bool) {... */\n    tag_72:\n        /* \"@openzeppelin/contracts/utils/Address.sol\":1235:1239  bool */\n      0x00\n        /* \"@openzeppelin/contracts/utils/Address.sol\":1487:1488  0 */\n      dup1\n        /* \"@openzeppelin/contracts/utils/Address.sol\":1465:1472  account */\n      dup3\n        /* \"@openzeppelin/contracts/utils/Address.sol\":1465:1484  account.code.length */\n      0xffffffffffffffffffffffffffffffffffffffff\n      and\n      extcodesize\n        /* \"@openzeppelin/contracts/utils/Address.sol\":1465:1488  account.code.length > 0 */\n      gt\n        /* \"@openzeppelin/contracts/utils/Address.sol\":1458:1488  return account.code.length > 0 */\n      swap1\n      pop\n        /* \"@openzeppelin/contracts/utils/Address.sol\":1175:1495  function isContract(address account) internal view returns (bool) {... */\n      swap2\n      swap1\n      pop\n      jump\t// out\n        /* \"contracts/MultilevelNftStaking.sol\":7432:7944  function _rewardAmount(uint256 _tokenId, IERC721 nftAddress) internal view returns (uint256) {... */\n    tag_106:\n        /* \"contracts/MultilevelNftStaking.sol\":7516:7523  uint256 */\n      0x00\n        /* \"contracts/MultilevelNftStaking.sol\":7536:7556  LockInfo memory info */\n      dup1\n        /* \"contracts/MultilevelNftStaking.sol\":7559:7567  lockInfo */\n      0x03\n        /* \"contracts/MultilevelNftStaking.sol\":7559:7588  lockInfo[IERC721(nftAddress)] */\n      0x00\n        /* \"contracts/MultilevelNftStaking.sol\":7576:7586  nftAddress */\n      dup5\n        /* \"contracts/MultilevelNftStaking.sol\":7559:7588  lockInfo[IERC721(nftAddress)] */\n      0xffffffffffffffffffffffffffffffffffffffff\n      and\n      0xffffffffffffffffffffffffffffffffffffffff\n      and\n      dup2\n      mstore\n      0x20\n      add\n      swap1\n      dup2\n      mstore\n      0x20\n      add\n      0x00\n      keccak256\n        /* \"contracts/MultilevelNftStaking.sol\":7559:7598  lockInfo[IERC721(nftAddress)][_tokenId] */\n      0x00\n        /* \"contracts/MultilevelNftStaking.sol\":7589:7597  _tokenId */\n      dup6\n        /* \"contracts/MultilevelNftStaking.sol\":7559:7598  lockInfo[IERC721(nftAddress)][_tokenId] */\n      dup2\n      mstore\n      0x20\n      add\n      swap1\n      dup2\n      mstore\n      0x20\n      add\n      0x00\n      keccak256\n        /* \"contracts/MultilevelNftStaking.sol\":7536:7598  LockInfo memory info = lockInfo[IERC721(nftAddress)][_tokenId] */\n      mload(0x40)\n      dup1\n      0xa0\n      add\n      0x40\n      mstore\n      swap1\n      dup2\n      0x00\n      dup3\n      add\n      0x00\n      swap1\n      sload\n      swap1\n      0x0100\n      exp\n      swap1\n      div\n      0xffffffffffffffffffffffffffffffffffffffff\n      and\n      0xffffffffffffffffffffffffffffffffffffffff\n      and\n      0xffffffffffffffffffffffffffffffffffffffff\n      and\n      dup2\n      mstore\n      0x20\n      add\n      0x01\n      dup3\n      add\n      sload\n      dup2\n      mstore\n      0x20\n      add\n      0x02\n      dup3\n      add\n      sload\n      dup2\n      mstore\n      0x20\n      add\n      0x03\n      dup3\n      add\n      0x00\n      swap1\n      sload\n      swap1\n      0x0100\n      exp\n      swap1\n      div\n      0xff\n      and\n      iszero\n      iszero\n      iszero\n      iszero\n      dup2\n      mstore\n      0x20\n      add\n      0x03\n      dup3\n      add\n      0x01\n      swap1\n      sload\n      swap1\n      0x0100\n      exp\n      swap1\n      div\n      0xffffffffffffffffffffffffffffffffffffffff\n      and\n      0xffffffffffffffffffffffffffffffffffffffff\n      and\n      0xffffffffffffffffffffffffffffffffffffffff\n      and\n      dup2\n      mstore\n      pop\n      pop\n      swap1\n      pop\n        /* \"contracts/MultilevelNftStaking.sol\":7609:7632  uint256 stakingDuration */\n      0x00\n        /* \"contracts/MultilevelNftStaking.sol\":7653:7657  info */\n      dup2\n        /* \"contracts/MultilevelNftStaking.sol\":7653:7668  info.lockedTime */\n      0x20\n      add\n      mload\n        /* \"contracts/MultilevelNftStaking.sol\":7635:7650  block.timestamp */\n      timestamp\n        /* \"contracts/MultilevelNftStaking.sol\":7635:7668  block.timestamp - info.lockedTime */\n      tag_275\n      swap2\n      swap1\n      tag_108\n      jump\t// in\n    tag_275:\n        /* \"contracts/MultilevelNftStaking.sol\":7609:7668  uint256 stakingDuration = block.timestamp - info.lockedTime */\n      swap1\n      pop\n        /* \"contracts/MultilevelNftStaking.sol\":7679:7698  uint256 totalAmount */\n      0x00\n        /* \"contracts/MultilevelNftStaking.sol\":7733:7743  lockPeriod */\n      sload(0x02)\n        /* \"contracts/MultilevelNftStaking.sol\":7715:7730  stakingDuration */\n      dup3\n        /* \"contracts/MultilevelNftStaking.sol\":7715:7743  stakingDuration < lockPeriod */\n      lt\n        /* \"contracts/MultilevelNftStaking.sol\":7711:7937  if (stakingDuration < lockPeriod) {... */\n      iszero\n      tag_276\n      jumpi\n        /* \"contracts/MultilevelNftStaking.sol\":7767:7768  0 */\n      0x00\n        /* \"contracts/MultilevelNftStaking.sol\":7760:7768  return 0 */\n      swap4\n      pop\n      pop\n      pop\n      pop\n      jump(tag_274)\n        /* \"contracts/MultilevelNftStaking.sol\":7711:7937  if (stakingDuration < lockPeriod) {... */\n    tag_276:\n        /* \"contracts/MultilevelNftStaking.sol\":7888:7892  WAVE */\n      sload(0x05)\n        /* \"contracts/MultilevelNftStaking.sol\":7873:7883  lockPeriod */\n      sload(0x02)\n        /* \"contracts/MultilevelNftStaking.sol\":7855:7870  stakingDuration */\n      dup4\n        /* \"contracts/MultilevelNftStaking.sol\":7855:7883  stakingDuration - lockPeriod */\n      tag_278\n      swap2\n      swap1\n      tag_108\n      jump\t// in\n    tag_278:\n        /* \"contracts/MultilevelNftStaking.sol\":7817:7824  nftInfo */\n      0x04\n        /* \"contracts/MultilevelNftStaking.sol\":7817:7836  nftInfo[nftAddress] */\n      0x00\n        /* \"contracts/MultilevelNftStaking.sol\":7825:7835  nftAddress */\n      dup9\n        /* \"contracts/MultilevelNftStaking.sol\":7817:7836  nftInfo[nftAddress] */\n      0xffffffffffffffffffffffffffffffffffffffff\n      and\n      0xffffffffffffffffffffffffffffffffffffffff\n      and\n      dup2\n      mstore\n      0x20\n      add\n      swap1\n      dup2\n      mstore\n      0x20\n      add\n      0x00\n      keccak256\n        /* \"contracts/MultilevelNftStaking.sol\":7817:7851  nftInfo[nftAddress].rewardsPerWave */\n      0x01\n      add\n      sload\n        /* \"contracts/MultilevelNftStaking.sol\":7817:7884  nftInfo[nftAddress].rewardsPerWave * (stakingDuration - lockPeriod) */\n      tag_279\n      swap2\n      swap1\n      tag_280\n      jump\t// in\n    tag_279:\n        /* \"contracts/MultilevelNftStaking.sol\":7815:7892  ( nftInfo[nftAddress].rewardsPerWave * (stakingDuration - lockPeriod)) / WAVE */\n      tag_281\n      swap2\n      swap1\n      tag_282\n      jump\t// in\n    tag_281:\n        /* \"contracts/MultilevelNftStaking.sol\":7801:7892  totalAmount = ( nftInfo[nftAddress].rewardsPerWave * (stakingDuration - lockPeriod)) / WAVE */\n      swap1\n      pop\n        /* \"contracts/MultilevelNftStaking.sol\":7914:7925  totalAmount */\n      dup1\n        /* \"contracts/MultilevelNftStaking.sol\":7907:7925  return totalAmount */\n      swap4\n      pop\n      pop\n      pop\n      pop\n        /* \"contracts/MultilevelNftStaking.sol\":7432:7944  function _rewardAmount(uint256 _tokenId, IERC721 nftAddress) internal view returns (uint256) {... */\n    tag_274:\n      swap3\n      swap2\n      pop\n      pop\n      jump\t// out\n        /* \"@openzeppelin/contracts/access/Ownable.sol\":1359:1489  function _checkOwner() internal view virtual {... */\n    tag_163:\n        /* \"@openzeppelin/contracts/access/Ownable.sol\":1433:1445  _msgSender() */\n      tag_284\n        /* \"@openzeppelin/contracts/access/Ownable.sol\":1433:1443  _msgSender */\n      tag_285\n        /* \"@openzeppelin/contracts/access/Ownable.sol\":1433:1445  _msgSender() */\n      jump\t// in\n    tag_284:\n        /* \"@openzeppelin/contracts/access/Ownable.sol\":1422:1445  owner() == _msgSender() */\n      0xffffffffffffffffffffffffffffffffffffffff\n      and\n        /* \"@openzeppelin/contracts/access/Ownable.sol\":1422:1429  owner() */\n      tag_286\n        /* \"@openzeppelin/contracts/access/Ownable.sol\":1422:1427  owner */\n      tag_40\n        /* \"@openzeppelin/contracts/access/Ownable.sol\":1422:1429  owner() */\n      jump\t// in\n    tag_286:\n        /* \"@openzeppelin/contracts/access/Ownable.sol\":1422:1445  owner() == _msgSender() */\n      0xffffffffffffffffffffffffffffffffffffffff\n      and\n      eq\n        /* \"@openzeppelin/contracts/access/Ownable.sol\":1414:1482  require(owner() == _msgSender(), \"Ownable: caller is not the owner\") */\n      tag_287\n      jumpi\n      mload(0x40)\n      0x08c379a000000000000000000000000000000000000000000000000000000000\n      dup2\n      mstore\n      0x04\n      add\n      tag_288\n      swap1\n      tag_289\n      jump\t// in\n    tag_288:\n      mload(0x40)\n      dup1\n      swap2\n      sub\n      swap1\n      revert\n    tag_287:\n        /* \"@openzeppelin/contracts/access/Ownable.sol\":1359:1489  function _checkOwner() internal view virtual {... */\n      jump\t// out\n        /* \"@openzeppelin/contracts/access/Ownable.sol\":2433:2620  function _transferOwnership(address newOwner) internal virtual {... */\n    tag_209:\n        /* \"@openzeppelin/contracts/access/Ownable.sol\":2506:2522  address oldOwner */\n      0x00\n        /* \"@openzeppelin/contracts/access/Ownable.sol\":2525:2531  _owner */\n      dup1\n      0x00\n      swap1\n      sload\n      swap1\n      0x0100\n      exp\n      swap1\n      div\n      0xffffffffffffffffffffffffffffffffffffffff\n      and\n        /* \"@openzeppelin/contracts/access/Ownable.sol\":2506:2531  address oldOwner = _owner */\n      swap1\n      pop\n        /* \"@openzeppelin/contracts/access/Ownable.sol\":2550:2558  newOwner */\n      dup2\n        /* \"@openzeppelin/contracts/access/Ownable.sol\":2541:2547  _owner */\n      0x00\n      dup1\n        /* \"@openzeppelin/contracts/access/Ownable.sol\":2541:2558  _owner = newOwner */\n      0x0100\n      exp\n      dup2\n      sload\n      dup2\n      0xffffffffffffffffffffffffffffffffffffffff\n      mul\n      not\n      and\n      swap1\n      dup4\n      0xffffffffffffffffffffffffffffffffffffffff\n      and\n      mul\n      or\n      swap1\n      sstore\n      pop\n        /* \"@openzeppelin/contracts/access/Ownable.sol\":2604:2612  newOwner */\n      dup2\n        /* \"@openzeppelin/contracts/access/Ownable.sol\":2573:2613  OwnershipTransferred(oldOwner, newOwner) */\n      0xffffffffffffffffffffffffffffffffffffffff\n      and\n        /* \"@openzeppelin/contracts/access/Ownable.sol\":2594:2602  oldOwner */\n      dup2\n        /* \"@openzeppelin/contracts/access/Ownable.sol\":2573:2613  OwnershipTransferred(oldOwner, newOwner) */\n      0xffffffffffffffffffffffffffffffffffffffff\n      and\n      0x8be0079c531659141344cd1fd0a4f28419497f9722a3daafe3b4186f6b6457e0\n      mload(0x40)\n      mload(0x40)\n      dup1\n      swap2\n      sub\n      swap1\n      log3\n        /* \"@openzeppelin/contracts/access/Ownable.sol\":2496:2620  {... */\n      pop\n        /* \"@openzeppelin/contracts/access/Ownable.sol\":2433:2620  function _transferOwnership(address newOwner) internal virtual {... */\n      pop\n      jump\t// out\n        /* \"@openzeppelin/contracts/utils/Context.sol\":640:736  function _msgSender() internal view virtual returns (address) {... */\n    tag_285:\n        /* \"@openzeppelin/contracts/utils/Context.sol\":693:700  address */\n      0x00\n        /* \"@openzeppelin/contracts/utils/Context.sol\":719:729  msg.sender */\n      caller\n        /* \"@openzeppelin/contracts/utils/Context.sol\":712:729  return msg.sender */\n      swap1\n      pop\n        /* \"@openzeppelin/contracts/utils/Context.sol\":640:736  function _msgSender() internal view virtual returns (address) {... */\n      swap1\n      jump\t// out\n        /* \"#utility.yul\":7:82   */\n    tag_292:\n        /* \"#utility.yul\":40:46   */\n      0x00\n        /* \"#utility.yul\":73:75   */\n      0x40\n        /* \"#utility.yul\":67:76   */\n      mload\n        /* \"#utility.yul\":57:76   */\n      swap1\n      pop\n        /* \"#utility.yul\":7:82   */\n      swap1\n      jump\t// out\n        /* \"#utility.yul\":88:205   */\n    tag_293:\n        /* \"#utility.yul\":197:198   */\n      0x00\n        /* \"#utility.yul\":194:195   */\n      dup1\n        /* \"#utility.yul\":187:199   */\n      revert\n        /* \"#utility.yul\":211:328   */\n    tag_294:\n        /* \"#utility.yul\":320:321   */\n      0x00\n        /* \"#utility.yul\":317:318   */\n      dup1\n        /* \"#utility.yul\":310:322   */\n      revert\n        /* \"#utility.yul\":334:451   */\n    tag_295:\n        /* \"#utility.yul\":443:444   */\n      0x00\n        /* \"#utility.yul\":440:441   */\n      dup1\n        /* \"#utility.yul\":433:445   */\n      revert\n        /* \"#utility.yul\":457:574   */\n    tag_296:\n        /* \"#utility.yul\":566:567   */\n      0x00\n        /* \"#utility.yul\":563:564   */\n      dup1\n        /* \"#utility.yul\":556:568   */\n      revert\n        /* \"#utility.yul\":580:697   */\n    tag_297:\n        /* \"#utility.yul\":689:690   */\n      0x00\n        /* \"#utility.yul\":686:687   */\n      dup1\n        /* \"#utility.yul\":679:691   */\n      revert\n        /* \"#utility.yul\":720:1288   */\n    tag_298:\n        /* \"#utility.yul\":793:801   */\n      0x00\n        /* \"#utility.yul\":803:809   */\n      dup1\n        /* \"#utility.yul\":853:856   */\n      dup4\n        /* \"#utility.yul\":846:850   */\n      0x1f\n        /* \"#utility.yul\":838:844   */\n      dup5\n        /* \"#utility.yul\":834:851   */\n      add\n        /* \"#utility.yul\":830:857   */\n      slt\n        /* \"#utility.yul\":820:942   */\n      tag_385\n      jumpi\n        /* \"#utility.yul\":861:940   */\n      tag_386\n      tag_295\n      jump\t// in\n    tag_386:\n        /* \"#utility.yul\":820:942   */\n    tag_385:\n        /* \"#utility.yul\":974:980   */\n      dup3\n        /* \"#utility.yul\":961:981   */\n      calldataload\n        /* \"#utility.yul\":951:981   */\n      swap1\n      pop\n        /* \"#utility.yul\":1004:1022   */\n      0xffffffffffffffff\n        /* \"#utility.yul\":996:1002   */\n      dup2\n        /* \"#utility.yul\":993:1023   */\n      gt\n        /* \"#utility.yul\":990:1107   */\n      iszero\n      tag_387\n      jumpi\n        /* \"#utility.yul\":1026:1105   */\n      tag_388\n      tag_296\n      jump\t// in\n    tag_388:\n        /* \"#utility.yul\":990:1107   */\n    tag_387:\n        /* \"#utility.yul\":1140:1144   */\n      0x20\n        /* \"#utility.yul\":1132:1138   */\n      dup4\n        /* \"#utility.yul\":1128:1145   */\n      add\n        /* \"#utility.yul\":1116:1145   */\n      swap2\n      pop\n        /* \"#utility.yul\":1194:1197   */\n      dup4\n        /* \"#utility.yul\":1186:1190   */\n      0x20\n        /* \"#utility.yul\":1178:1184   */\n      dup3\n        /* \"#utility.yul\":1174:1191   */\n      mul\n        /* \"#utility.yul\":1164:1172   */\n      dup4\n        /* \"#utility.yul\":1160:1192   */\n      add\n        /* \"#utility.yul\":1157:1198   */\n      gt\n        /* \"#utility.yul\":1154:1282   */\n      iszero\n      tag_389\n      jumpi\n        /* \"#utility.yul\":1201:1280   */\n      tag_390\n      tag_297\n      jump\t// in\n    tag_390:\n        /* \"#utility.yul\":1154:1282   */\n    tag_389:\n        /* \"#utility.yul\":720:1288   */\n      swap3\n      pop\n      swap3\n      swap1\n      pop\n      jump\t// out\n        /* \"#utility.yul\":1294:1420   */\n    tag_299:\n        /* \"#utility.yul\":1331:1338   */\n      0x00\n        /* \"#utility.yul\":1371:1413   */\n      0xffffffffffffffffffffffffffffffffffffffff\n        /* \"#utility.yul\":1364:1369   */\n      dup3\n        /* \"#utility.yul\":1360:1414   */\n      and\n        /* \"#utility.yul\":1349:1414   */\n      swap1\n      pop\n        /* \"#utility.yul\":1294:1420   */\n      swap2\n      swap1\n      pop\n      jump\t// out\n        /* \"#utility.yul\":1426:1522   */\n    tag_300:\n        /* \"#utility.yul\":1463:1470   */\n      0x00\n        /* \"#utility.yul\":1492:1516   */\n      tag_393\n        /* \"#utility.yul\":1510:1515   */\n      dup3\n        /* \"#utility.yul\":1492:1516   */\n      tag_299\n      jump\t// in\n    tag_393:\n        /* \"#utility.yul\":1481:1516   */\n      swap1\n      pop\n        /* \"#utility.yul\":1426:1522   */\n      swap2\n      swap1\n      pop\n      jump\t// out\n        /* \"#utility.yul\":1528:1639   */\n    tag_301:\n        /* \"#utility.yul\":1580:1587   */\n      0x00\n        /* \"#utility.yul\":1609:1633   */\n      tag_395\n        /* \"#utility.yul\":1627:1632   */\n      dup3\n        /* \"#utility.yul\":1609:1633   */\n      tag_300\n      jump\t// in\n    tag_395:\n        /* \"#utility.yul\":1598:1633   */\n      swap1\n      pop\n        /* \"#utility.yul\":1528:1639   */\n      swap2\n      swap1\n      pop\n      jump\t// out\n        /* \"#utility.yul\":1645:1797   */\n    tag_302:\n        /* \"#utility.yul\":1733:1772   */\n      tag_397\n        /* \"#utility.yul\":1766:1771   */\n      dup2\n        /* \"#utility.yul\":1733:1772   */\n      tag_301\n      jump\t// in\n    tag_397:\n        /* \"#utility.yul\":1726:1731   */\n      dup2\n        /* \"#utility.yul\":1723:1773   */\n      eq\n        /* \"#utility.yul\":1713:1791   */\n      tag_398\n      jumpi\n        /* \"#utility.yul\":1787:1788   */\n      0x00\n        /* \"#utility.yul\":1784:1785   */\n      dup1\n        /* \"#utility.yul\":1777:1789   */\n      revert\n        /* \"#utility.yul\":1713:1791   */\n    tag_398:\n        /* \"#utility.yul\":1645:1797   */\n      pop\n      jump\t// out\n        /* \"#utility.yul\":1803:1972   */\n    tag_303:\n        /* \"#utility.yul\":1864:1869   */\n      0x00\n        /* \"#utility.yul\":1902:1908   */\n      dup2\n        /* \"#utility.yul\":1889:1909   */\n      calldataload\n        /* \"#utility.yul\":1880:1909   */\n      swap1\n      pop\n        /* \"#utility.yul\":1918:1966   */\n      tag_400\n        /* \"#utility.yul\":1960:1965   */\n      dup2\n        /* \"#utility.yul\":1918:1966   */\n      tag_302\n      jump\t// in\n    tag_400:\n        /* \"#utility.yul\":1803:1972   */\n      swap3\n      swap2\n      pop\n      pop\n      jump\t// out\n        /* \"#utility.yul\":1978:2712   */\n    tag_20:\n        /* \"#utility.yul\":2088:2094   */\n      0x00\n        /* \"#utility.yul\":2096:2102   */\n      dup1\n        /* \"#utility.yul\":2104:2110   */\n      0x00\n        /* \"#utility.yul\":2153:2155   */\n      0x40\n        /* \"#utility.yul\":2141:2150   */\n      dup5\n        /* \"#utility.yul\":2132:2139   */\n      dup7\n        /* \"#utility.yul\":2128:2151   */\n      sub\n        /* \"#utility.yul\":2124:2156   */\n      slt\n        /* \"#utility.yul\":2121:2240   */\n      iszero\n      tag_402\n      jumpi\n        /* \"#utility.yul\":2159:2238   */\n      tag_403\n      tag_293\n      jump\t// in\n    tag_403:\n        /* \"#utility.yul\":2121:2240   */\n    tag_402:\n        /* \"#utility.yul\":2307:2308   */\n      0x00\n        /* \"#utility.yul\":2296:2305   */\n      dup5\n        /* \"#utility.yul\":2292:2309   */\n      add\n        /* \"#utility.yul\":2279:2310   */\n      calldataload\n        /* \"#utility.yul\":2337:2355   */\n      0xffffffffffffffff\n        /* \"#utility.yul\":2329:2335   */\n      dup2\n        /* \"#utility.yul\":2326:2356   */\n      gt\n        /* \"#utility.yul\":2323:2440   */\n      iszero\n      tag_404\n      jumpi\n        /* \"#utility.yul\":2359:2438   */\n      tag_405\n      tag_294\n      jump\t// in\n    tag_405:\n        /* \"#utility.yul\":2323:2440   */\n    tag_404:\n        /* \"#utility.yul\":2472:2552   */\n      tag_406\n        /* \"#utility.yul\":2544:2551   */\n      dup7\n        /* \"#utility.yul\":2535:2541   */\n      dup3\n        /* \"#utility.yul\":2524:2533   */\n      dup8\n        /* \"#utility.yul\":2520:2542   */\n      add\n        /* \"#utility.yul\":2472:2552   */\n      tag_298\n      jump\t// in\n    tag_406:\n        /* \"#utility.yul\":2454:2552   */\n      swap4\n      pop\n      swap4\n      pop\n        /* \"#utility.yul\":2250:2562   */\n      pop\n        /* \"#utility.yul\":2601:2603   */\n      0x20\n        /* \"#utility.yul\":2627:2695   */\n      tag_407\n        /* \"#utility.yul\":2687:2694   */\n      dup7\n        /* \"#utility.yul\":2678:2684   */\n      dup3\n        /* \"#utility.yul\":2667:2676   */\n      dup8\n        /* \"#utility.yul\":2663:2685   */\n      add\n        /* \"#utility.yul\":2627:2695   */\n      tag_303\n      jump\t// in\n    tag_407:\n        /* \"#utility.yul\":2617:2695   */\n      swap2\n      pop\n        /* \"#utility.yul\":2572:2705   */\n      pop\n        /* \"#utility.yul\":1978:2712   */\n      swap3\n      pop\n      swap3\n      pop\n      swap3\n      jump\t// out\n        /* \"#utility.yul\":2718:2820   */\n    tag_304:\n        /* \"#utility.yul\":2759:2765   */\n      0x00\n        /* \"#utility.yul\":2810:2812   */\n      0x1f\n        /* \"#utility.yul\":2806:2813   */\n      not\n        /* \"#utility.yul\":2801:2803   */\n      0x1f\n        /* \"#utility.yul\":2794:2799   */\n      dup4\n        /* \"#utility.yul\":2790:2804   */\n      add\n        /* \"#utility.yul\":2786:2814   */\n      and\n        /* \"#utility.yul\":2776:2814   */\n      swap1\n      pop\n        /* \"#utility.yul\":2718:2820   */\n      swap2\n      swap1\n      pop\n      jump\t// out\n        /* \"#utility.yul\":2826:3006   */\n    tag_305:\n        /* \"#utility.yul\":2874:2951   */\n      0x4e487b7100000000000000000000000000000000000000000000000000000000\n        /* \"#utility.yul\":2871:2872   */\n      0x00\n        /* \"#utility.yul\":2864:2952   */\n      mstore\n        /* \"#utility.yul\":2971:2975   */\n      0x41\n        /* \"#utility.yul\":2968:2969   */\n      0x04\n        /* \"#utility.yul\":2961:2976   */\n      mstore\n        /* \"#utility.yul\":2995:2999   */\n      0x24\n        /* \"#utility.yul\":2992:2993   */\n      0x00\n        /* \"#utility.yul\":2985:3000   */\n      revert\n        /* \"#utility.yul\":3012:3293   */\n    tag_306:\n        /* \"#utility.yul\":3095:3122   */\n      tag_411\n        /* \"#utility.yul\":3117:3121   */\n      dup3\n        /* \"#utility.yul\":3095:3122   */\n      tag_304\n      jump\t// in\n    tag_411:\n        /* \"#utility.yul\":3087:3093   */\n      dup2\n        /* \"#utility.yul\":3083:3123   */\n      add\n        /* \"#utility.yul\":3225:3231   */\n      dup2\n        /* \"#utility.yul\":3213:3223   */\n      dup2\n        /* \"#utility.yul\":3210:3232   */\n      lt\n        /* \"#utility.yul\":3189:3207   */\n      0xffffffffffffffff\n        /* \"#utility.yul\":3177:3187   */\n      dup3\n        /* \"#utility.yul\":3174:3208   */\n      gt\n        /* \"#utility.yul\":3171:3233   */\n      or\n        /* \"#utility.yul\":3168:3256   */\n      iszero\n      tag_412\n      jumpi\n        /* \"#utility.yul\":3236:3254   */\n      tag_413\n      tag_305\n      jump\t// in\n    tag_413:\n        /* \"#utility.yul\":3168:3256   */\n    tag_412:\n        /* \"#utility.yul\":3276:3286   */\n      dup1\n        /* \"#utility.yul\":3272:3274   */\n      0x40\n        /* \"#utility.yul\":3265:3287   */\n      mstore\n        /* \"#utility.yul\":3055:3293   */\n      pop\n        /* \"#utility.yul\":3012:3293   */\n      pop\n      pop\n      jump\t// out\n        /* \"#utility.yul\":3299:3428   */\n    tag_307:\n        /* \"#utility.yul\":3333:3339   */\n      0x00\n        /* \"#utility.yul\":3360:3380   */\n      tag_415\n      tag_292\n      jump\t// in\n    tag_415:\n        /* \"#utility.yul\":3350:3380   */\n      swap1\n      pop\n        /* \"#utility.yul\":3389:3422   */\n      tag_416\n        /* \"#utility.yul\":3417:3421   */\n      dup3\n        /* \"#utility.yul\":3409:3415   */\n      dup3\n        /* \"#utility.yul\":3389:3422   */\n      tag_306\n      jump\t// in\n    tag_416:\n        /* \"#utility.yul\":3299:3428   */\n      swap2\n      swap1\n      pop\n      jump\t// out\n        /* \"#utility.yul\":3434:3745   */\n    tag_308:\n        /* \"#utility.yul\":3511:3515   */\n      0x00\n        /* \"#utility.yul\":3601:3619   */\n      0xffffffffffffffff\n        /* \"#utility.yul\":3593:3599   */\n      dup3\n        /* \"#utility.yul\":3590:3620   */\n      gt\n        /* \"#utility.yul\":3587:3643   */\n      iszero\n      tag_418\n      jumpi\n        /* \"#utility.yul\":3623:3641   */\n      tag_419\n      tag_305\n      jump\t// in\n    tag_419:\n        /* \"#utility.yul\":3587:3643   */\n    tag_418:\n        /* \"#utility.yul\":3673:3677   */\n      0x20\n        /* \"#utility.yul\":3665:3671   */\n      dup3\n        /* \"#utility.yul\":3661:3678   */\n      mul\n        /* \"#utility.yul\":3653:3678   */\n      swap1\n      pop\n        /* \"#utility.yul\":3733:3737   */\n      0x20\n        /* \"#utility.yul\":3727:3731   */\n      dup2\n        /* \"#utility.yul\":3723:3738   */\n      add\n        /* \"#utility.yul\":3715:3738   */\n      swap1\n      pop\n        /* \"#utility.yul\":3434:3745   */\n      swap2\n      swap1\n      pop\n      jump\t// out\n        /* \"#utility.yul\":3751:3873   */\n    tag_309:\n        /* \"#utility.yul\":3824:3848   */\n      tag_421\n        /* \"#utility.yul\":3842:3847   */\n      dup2\n        /* \"#utility.yul\":3824:3848   */\n      tag_300\n      jump\t// in\n    tag_421:\n        /* \"#utility.yul\":3817:3822   */\n      dup2\n        /* \"#utility.yul\":3814:3849   */\n      eq\n        /* \"#utility.yul\":3804:3867   */\n      tag_422\n      jumpi\n        /* \"#utility.yul\":3863:3864   */\n      0x00\n        /* \"#utility.yul\":3860:3861   */\n      dup1\n        /* \"#utility.yul\":3853:3865   */\n      revert\n        /* \"#utility.yul\":3804:3867   */\n    tag_422:\n        /* \"#utility.yul\":3751:3873   */\n      pop\n      jump\t// out\n        /* \"#utility.yul\":3879:4018   */\n    tag_310:\n        /* \"#utility.yul\":3925:3930   */\n      0x00\n        /* \"#utility.yul\":3963:3969   */\n      dup2\n        /* \"#utility.yul\":3950:3970   */\n      calldataload\n        /* \"#utility.yul\":3941:3970   */\n      swap1\n      pop\n        /* \"#utility.yul\":3979:4012   */\n      tag_424\n        /* \"#utility.yul\":4006:4011   */\n      dup2\n        /* \"#utility.yul\":3979:4012   */\n      tag_309\n      jump\t// in\n    tag_424:\n        /* \"#utility.yul\":3879:4018   */\n      swap3\n      swap2\n      pop\n      pop\n      jump\t// out\n        /* \"#utility.yul\":4041:4751   */\n    tag_311:\n        /* \"#utility.yul\":4137:4142   */\n      0x00\n        /* \"#utility.yul\":4162:4243   */\n      tag_426\n        /* \"#utility.yul\":4178:4242   */\n      tag_427\n        /* \"#utility.yul\":4235:4241   */\n      dup5\n        /* \"#utility.yul\":4178:4242   */\n      tag_308\n      jump\t// in\n    tag_427:\n        /* \"#utility.yul\":4162:4243   */\n      tag_307\n      jump\t// in\n    tag_426:\n        /* \"#utility.yul\":4153:4243   */\n      swap1\n      pop\n        /* \"#utility.yul\":4263:4268   */\n      dup1\n        /* \"#utility.yul\":4292:4298   */\n      dup4\n        /* \"#utility.yul\":4285:4290   */\n      dup3\n        /* \"#utility.yul\":4278:4299   */\n      mstore\n        /* \"#utility.yul\":4326:4330   */\n      0x20\n        /* \"#utility.yul\":4319:4324   */\n      dup3\n        /* \"#utility.yul\":4315:4331   */\n      add\n        /* \"#utility.yul\":4308:4331   */\n      swap1\n      pop\n        /* \"#utility.yul\":4379:4383   */\n      0x20\n        /* \"#utility.yul\":4371:4377   */\n      dup5\n        /* \"#utility.yul\":4367:4384   */\n      mul\n        /* \"#utility.yul\":4359:4365   */\n      dup4\n        /* \"#utility.yul\":4355:4385   */\n      add\n        /* \"#utility.yul\":4408:4411   */\n      dup6\n        /* \"#utility.yul\":4400:4406   */\n      dup2\n        /* \"#utility.yul\":4397:4412   */\n      gt\n        /* \"#utility.yul\":4394:4516   */\n      iszero\n      tag_428\n      jumpi\n        /* \"#utility.yul\":4427:4506   */\n      tag_429\n      tag_297\n      jump\t// in\n    tag_429:\n        /* \"#utility.yul\":4394:4516   */\n    tag_428:\n        /* \"#utility.yul\":4542:4548   */\n      dup4\n        /* \"#utility.yul\":4525:4745   */\n    tag_430:\n        /* \"#utility.yul\":4559:4565   */\n      dup2\n        /* \"#utility.yul\":4554:4557   */\n      dup2\n        /* \"#utility.yul\":4551:4566   */\n      lt\n        /* \"#utility.yul\":4525:4745   */\n      iszero\n      tag_432\n      jumpi\n        /* \"#utility.yul\":4634:4637   */\n      dup1\n        /* \"#utility.yul\":4663:4700   */\n      tag_433\n        /* \"#utility.yul\":4696:4699   */\n      dup9\n        /* \"#utility.yul\":4684:4694   */\n      dup3\n        /* \"#utility.yul\":4663:4700   */\n      tag_310\n      jump\t// in\n    tag_433:\n        /* \"#utility.yul\":4658:4661   */\n      dup5\n        /* \"#utility.yul\":4651:4701   */\n      mstore\n        /* \"#utility.yul\":4730:4734   */\n      0x20\n        /* \"#utility.yul\":4725:4728   */\n      dup5\n        /* \"#utility.yul\":4721:4735   */\n      add\n        /* \"#utility.yul\":4714:4735   */\n      swap4\n      pop\n        /* \"#utility.yul\":4601:4745   */\n      pop\n        /* \"#utility.yul\":4585:4589   */\n      0x20\n        /* \"#utility.yul\":4580:4583   */\n      dup2\n        /* \"#utility.yul\":4576:4590   */\n      add\n        /* \"#utility.yul\":4569:4590   */\n      swap1\n      pop\n        /* \"#utility.yul\":4525:4745   */\n      jump(tag_430)\n    tag_432:\n        /* \"#utility.yul\":4529:4550   */\n      pop\n        /* \"#utility.yul\":4143:4751   */\n      pop\n      pop\n        /* \"#utility.yul\":4041:4751   */\n      swap4\n      swap3\n      pop\n      pop\n      pop\n      jump\t// out\n        /* \"#utility.yul\":4774:5144   */\n    tag_312:\n        /* \"#utility.yul\":4845:4850   */\n      0x00\n        /* \"#utility.yul\":4894:4897   */\n      dup3\n        /* \"#utility.yul\":4887:4891   */\n      0x1f\n        /* \"#utility.yul\":4879:4885   */\n      dup4\n        /* \"#utility.yul\":4875:4892   */\n      add\n        /* \"#utility.yul\":4871:4898   */\n      slt\n        /* \"#utility.yul\":4861:4983   */\n      tag_435\n      jumpi\n        /* \"#utility.yul\":4902:4981   */\n      tag_436\n      tag_295\n      jump\t// in\n    tag_436:\n        /* \"#utility.yul\":4861:4983   */\n    tag_435:\n        /* \"#utility.yul\":5019:5025   */\n      dup2\n        /* \"#utility.yul\":5006:5026   */\n      calldataload\n        /* \"#utility.yul\":5044:5138   */\n      tag_437\n        /* \"#utility.yul\":5134:5137   */\n      dup5\n        /* \"#utility.yul\":5126:5132   */\n      dup3\n        /* \"#utility.yul\":5119:5123   */\n      0x20\n        /* \"#utility.yul\":5111:5117   */\n      dup7\n        /* \"#utility.yul\":5107:5124   */\n      add\n        /* \"#utility.yul\":5044:5138   */\n      tag_311\n      jump\t// in\n    tag_437:\n        /* \"#utility.yul\":5035:5138   */\n      swap2\n      pop\n        /* \"#utility.yul\":4851:5144   */\n      pop\n        /* \"#utility.yul\":4774:5144   */\n      swap3\n      swap2\n      pop\n      pop\n      jump\t// out\n        /* \"#utility.yul\":5150:5461   */\n    tag_313:\n        /* \"#utility.yul\":5227:5231   */\n      0x00\n        /* \"#utility.yul\":5317:5335   */\n      0xffffffffffffffff\n        /* \"#utility.yul\":5309:5315   */\n      dup3\n        /* \"#utility.yul\":5306:5336   */\n      gt\n        /* \"#utility.yul\":5303:5359   */\n      iszero\n      tag_439\n      jumpi\n        /* \"#utility.yul\":5339:5357   */\n      tag_440\n      tag_305\n      jump\t// in\n    tag_440:\n        /* \"#utility.yul\":5303:5359   */\n    tag_439:\n        /* \"#utility.yul\":5389:5393   */\n      0x20\n        /* \"#utility.yul\":5381:5387   */\n      dup3\n        /* \"#utility.yul\":5377:5394   */\n      mul\n        /* \"#utility.yul\":5369:5394   */\n      swap1\n      pop\n        /* \"#utility.yul\":5449:5453   */\n      0x20\n        /* \"#utility.yul\":5443:5447   */\n      dup2\n        /* \"#utility.yul\":5439:5454   */\n      add\n        /* \"#utility.yul\":5431:5454   */\n      swap1\n      pop\n        /* \"#utility.yul\":5150:5461   */\n      swap2\n      swap1\n      pop\n      jump\t// out\n        /* \"#utility.yul\":5467:5544   */\n    tag_314:\n        /* \"#utility.yul\":5504:5511   */\n      0x00\n        /* \"#utility.yul\":5533:5538   */\n      dup2\n        /* \"#utility.yul\":5522:5538   */\n      swap1\n      pop\n        /* \"#utility.yul\":5467:5544   */\n      swap2\n      swap1\n      pop\n      jump\t// out\n        /* \"#utility.yul\":5550:5672   */\n    tag_315:\n        /* \"#utility.yul\":5623:5647   */\n      tag_443\n        /* \"#utility.yul\":5641:5646   */\n      dup2\n        /* \"#utility.yul\":5623:5647   */\n      tag_314\n      jump\t// in\n    tag_443:\n        /* \"#utility.yul\":5616:5621   */\n      dup2\n        /* \"#utility.yul\":5613:5648   */\n      eq\n        /* \"#utility.yul\":5603:5666   */\n      tag_444\n      jumpi\n        /* \"#utility.yul\":5662:5663   */\n      0x00\n        /* \"#utility.yul\":5659:5660   */\n      dup1\n        /* \"#utility.yul\":5652:5664   */\n      revert\n        /* \"#utility.yul\":5603:5666   */\n    tag_444:\n        /* \"#utility.yul\":5550:5672   */\n      pop\n      jump\t// out\n        /* \"#utility.yul\":5678:5817   */\n    tag_316:\n        /* \"#utility.yul\":5724:5729   */\n      0x00\n        /* \"#utility.yul\":5762:5768   */\n      dup2\n        /* \"#utility.yul\":5749:5769   */\n      calldataload\n        /* \"#utility.yul\":5740:5769   */\n      swap1\n      pop\n        /* \"#utility.yul\":5778:5811   */\n      tag_446\n        /* \"#utility.yul\":5805:5810   */\n      dup2\n        /* \"#utility.yul\":5778:5811   */\n      tag_315\n      jump\t// in\n    tag_446:\n        /* \"#utility.yul\":5678:5817   */\n      swap3\n      swap2\n      pop\n      pop\n      jump\t// out\n        /* \"#utility.yul\":5840:6550   */\n    tag_317:\n        /* \"#utility.yul\":5936:5941   */\n      0x00\n        /* \"#utility.yul\":5961:6042   */\n      tag_448\n        /* \"#utility.yul\":5977:6041   */\n      tag_449\n        /* \"#utility.yul\":6034:6040   */\n      dup5\n        /* \"#utility.yul\":5977:6041   */\n      tag_313\n      jump\t// in\n    tag_449:\n        /* \"#utility.yul\":5961:6042   */\n      tag_307\n      jump\t// in\n    tag_448:\n        /* \"#utility.yul\":5952:6042   */\n      swap1\n      pop\n        /* \"#utility.yul\":6062:6067   */\n      dup1\n        /* \"#utility.yul\":6091:6097   */\n      dup4\n        /* \"#utility.yul\":6084:6089   */\n      dup3\n        /* \"#utility.yul\":6077:6098   */\n      mstore\n        /* \"#utility.yul\":6125:6129   */\n      0x20\n        /* \"#utility.yul\":6118:6123   */\n      dup3\n        /* \"#utility.yul\":6114:6130   */\n      add\n        /* \"#utility.yul\":6107:6130   */\n      swap1\n      pop\n        /* \"#utility.yul\":6178:6182   */\n      0x20\n        /* \"#utility.yul\":6170:6176   */\n      dup5\n        /* \"#utility.yul\":6166:6183   */\n      mul\n        /* \"#utility.yul\":6158:6164   */\n      dup4\n        /* \"#utility.yul\":6154:6184   */\n      add\n        /* \"#utility.yul\":6207:6210   */\n      dup6\n        /* \"#utility.yul\":6199:6205   */\n      dup2\n        /* \"#utility.yul\":6196:6211   */\n      gt\n        /* \"#utility.yul\":6193:6315   */\n      iszero\n      tag_450\n      jumpi\n        /* \"#utility.yul\":6226:6305   */\n      tag_451\n      tag_297\n      jump\t// in\n    tag_451:\n        /* \"#utility.yul\":6193:6315   */\n    tag_450:\n        /* \"#utility.yul\":6341:6347   */\n      dup4\n        /* \"#utility.yul\":6324:6544   */\n    tag_452:\n        /* \"#utility.yul\":6358:6364   */\n      dup2\n        /* \"#utility.yul\":6353:6356   */\n      dup2\n        /* \"#utility.yul\":6350:6365   */\n      lt\n        /* \"#utility.yul\":6324:6544   */\n      iszero\n      tag_454\n      jumpi\n        /* \"#utility.yul\":6433:6436   */\n      dup1\n        /* \"#utility.yul\":6462:6499   */\n      tag_455\n        /* \"#utility.yul\":6495:6498   */\n      dup9\n        /* \"#utility.yul\":6483:6493   */\n      dup3\n        /* \"#utility.yul\":6462:6499   */\n      tag_316\n      jump\t// in\n    tag_455:\n        /* \"#utility.yul\":6457:6460   */\n      dup5\n        /* \"#utility.yul\":6450:6500   */\n      mstore\n        /* \"#utility.yul\":6529:6533   */\n      0x20\n        /* \"#utility.yul\":6524:6527   */\n      dup5\n        /* \"#utility.yul\":6520:6534   */\n      add\n        /* \"#utility.yul\":6513:6534   */\n      swap4\n      pop\n        /* \"#utility.yul\":6400:6544   */\n      pop\n        /* \"#utility.yul\":6384:6388   */\n      0x20\n        /* \"#utility.yul\":6379:6382   */\n      dup2\n        /* \"#utility.yul\":6375:6389   */\n      add\n        /* \"#utility.yul\":6368:6389   */\n      swap1\n      pop\n        /* \"#utility.yul\":6324:6544   */\n      jump(tag_452)\n    tag_454:\n        /* \"#utility.yul\":6328:6349   */\n      pop\n        /* \"#utility.yul\":5942:6550   */\n      pop\n      pop\n        /* \"#utility.yul\":5840:6550   */\n      swap4\n      swap3\n      pop\n      pop\n      pop\n      jump\t// out\n        /* \"#utility.yul\":6573:6943   */\n    tag_318:\n        /* \"#utility.yul\":6644:6649   */\n      0x00\n        /* \"#utility.yul\":6693:6696   */\n      dup3\n        /* \"#utility.yul\":6686:6690   */\n      0x1f\n        /* \"#utility.yul\":6678:6684   */\n      dup4\n        /* \"#utility.yul\":6674:6691   */\n      add\n        /* \"#utility.yul\":6670:6697   */\n      slt\n        /* \"#utility.yul\":6660:6782   */\n      tag_457\n      jumpi\n        /* \"#utility.yul\":6701:6780   */\n      tag_458\n      tag_295\n      jump\t// in\n    tag_458:\n        /* \"#utility.yul\":6660:6782   */\n    tag_457:\n        /* \"#utility.yul\":6818:6824   */\n      dup2\n        /* \"#utility.yul\":6805:6825   */\n      calldataload\n        /* \"#utility.yul\":6843:6937   */\n      tag_459\n        /* \"#utility.yul\":6933:6936   */\n      dup5\n        /* \"#utility.yul\":6925:6931   */\n      dup3\n        /* \"#utility.yul\":6918:6922   */\n      0x20\n        /* \"#utility.yul\":6910:6916   */\n      dup7\n        /* \"#utility.yul\":6906:6923   */\n      add\n        /* \"#utility.yul\":6843:6937   */\n      tag_317\n      jump\t// in\n    tag_459:\n        /* \"#utility.yul\":6834:6937   */\n      swap2\n      pop\n        /* \"#utility.yul\":6650:6943   */\n      pop\n        /* \"#utility.yul\":6573:6943   */\n      swap3\n      swap2\n      pop\n      pop\n      jump\t// out\n        /* \"#utility.yul\":6949:8198   */\n    tag_27:\n        /* \"#utility.yul\":7101:7107   */\n      0x00\n        /* \"#utility.yul\":7109:7115   */\n      dup1\n        /* \"#utility.yul\":7117:7123   */\n      0x00\n        /* \"#utility.yul\":7166:7168   */\n      0x60\n        /* \"#utility.yul\":7154:7163   */\n      dup5\n        /* \"#utility.yul\":7145:7152   */\n      dup7\n        /* \"#utility.yul\":7141:7164   */\n      sub\n        /* \"#utility.yul\":7137:7169   */\n      slt\n        /* \"#utility.yul\":7134:7253   */\n      iszero\n      tag_461\n      jumpi\n        /* \"#utility.yul\":7172:7251   */\n      tag_462\n      tag_293\n      jump\t// in\n    tag_462:\n        /* \"#utility.yul\":7134:7253   */\n    tag_461:\n        /* \"#utility.yul\":7320:7321   */\n      0x00\n        /* \"#utility.yul\":7309:7318   */\n      dup5\n        /* \"#utility.yul\":7305:7322   */\n      add\n        /* \"#utility.yul\":7292:7323   */\n      calldataload\n        /* \"#utility.yul\":7350:7368   */\n      0xffffffffffffffff\n        /* \"#utility.yul\":7342:7348   */\n      dup2\n        /* \"#utility.yul\":7339:7369   */\n      gt\n        /* \"#utility.yul\":7336:7453   */\n      iszero\n      tag_463\n      jumpi\n        /* \"#utility.yul\":7372:7451   */\n      tag_464\n      tag_294\n      jump\t// in\n    tag_464:\n        /* \"#utility.yul\":7336:7453   */\n    tag_463:\n        /* \"#utility.yul\":7477:7555   */\n      tag_465\n        /* \"#utility.yul\":7547:7554   */\n      dup7\n        /* \"#utility.yul\":7538:7544   */\n      dup3\n        /* \"#utility.yul\":7527:7536   */\n      dup8\n        /* \"#utility.yul\":7523:7545   */\n      add\n        /* \"#utility.yul\":7477:7555   */\n      tag_312\n      jump\t// in\n    tag_465:\n        /* \"#utility.yul\":7467:7555   */\n      swap4\n      pop\n        /* \"#utility.yul\":7263:7565   */\n      pop\n        /* \"#utility.yul\":7632:7634   */\n      0x20\n        /* \"#utility.yul\":7621:7630   */\n      dup5\n        /* \"#utility.yul\":7617:7635   */\n      add\n        /* \"#utility.yul\":7604:7636   */\n      calldataload\n        /* \"#utility.yul\":7663:7681   */\n      0xffffffffffffffff\n        /* \"#utility.yul\":7655:7661   */\n      dup2\n        /* \"#utility.yul\":7652:7682   */\n      gt\n        /* \"#utility.yul\":7649:7766   */\n      iszero\n      tag_466\n      jumpi\n        /* \"#utility.yul\":7685:7764   */\n      tag_467\n      tag_294\n      jump\t// in\n    tag_467:\n        /* \"#utility.yul\":7649:7766   */\n    tag_466:\n        /* \"#utility.yul\":7790:7868   */\n      tag_468\n        /* \"#utility.yul\":7860:7867   */\n      dup7\n        /* \"#utility.yul\":7851:7857   */\n      dup3\n        /* \"#utility.yul\":7840:7849   */\n      dup8\n        /* \"#utility.yul\":7836:7858   */\n      add\n        /* \"#utility.yul\":7790:7868   */\n      tag_312\n      jump\t// in\n    tag_468:\n        /* \"#utility.yul\":7780:7868   */\n      swap3\n      pop\n        /* \"#utility.yul\":7575:7878   */\n      pop\n        /* \"#utility.yul\":7945:7947   */\n      0x40\n        /* \"#utility.yul\":7934:7943   */\n      dup5\n        /* \"#utility.yul\":7930:7948   */\n      add\n        /* \"#utility.yul\":7917:7949   */\n      calldataload\n        /* \"#utility.yul\":7976:7994   */\n      0xffffffffffffffff\n        /* \"#utility.yul\":7968:7974   */\n      dup2\n        /* \"#utility.yul\":7965:7995   */\n      gt\n        /* \"#utility.yul\":7962:8079   */\n      iszero\n      tag_469\n      jumpi\n        /* \"#utility.yul\":7998:8077   */\n      tag_470\n      tag_294\n      jump\t// in\n    tag_470:\n        /* \"#utility.yul\":7962:8079   */\n    tag_469:\n        /* \"#utility.yul\":8103:8181   */\n      tag_471\n        /* \"#utility.yul\":8173:8180   */\n      dup7\n        /* \"#utility.yul\":8164:8170   */\n      dup3\n        /* \"#utility.yul\":8153:8162   */\n      dup8\n        /* \"#utility.yul\":8149:8171   */\n      add\n        /* \"#utility.yul\":8103:8181   */\n      tag_318\n      jump\t// in\n    tag_471:\n        /* \"#utility.yul\":8093:8181   */\n      swap2\n      pop\n        /* \"#utility.yul\":7888:8191   */\n      pop\n        /* \"#utility.yul\":6949:8198   */\n      swap3\n      pop\n      swap3\n      pop\n      swap3\n      jump\t// out\n        /* \"#utility.yul\":8204:8322   */\n    tag_319:\n        /* \"#utility.yul\":8291:8315   */\n      tag_473\n        /* \"#utility.yul\":8309:8314   */\n      dup2\n        /* \"#utility.yul\":8291:8315   */\n      tag_314\n      jump\t// in\n    tag_473:\n        /* \"#utility.yul\":8286:8289   */\n      dup3\n        /* \"#utility.yul\":8279:8316   */\n      mstore\n        /* \"#utility.yul\":8204:8322   */\n      pop\n      pop\n      jump\t// out\n        /* \"#utility.yul\":8328:8550   */\n    tag_32:\n        /* \"#utility.yul\":8421:8425   */\n      0x00\n        /* \"#utility.yul\":8459:8461   */\n      0x20\n        /* \"#utility.yul\":8448:8457   */\n      dup3\n        /* \"#utility.yul\":8444:8462   */\n      add\n        /* \"#utility.yul\":8436:8462   */\n      swap1\n      pop\n        /* \"#utility.yul\":8472:8543   */\n      tag_475\n        /* \"#utility.yul\":8540:8541   */\n      0x00\n        /* \"#utility.yul\":8529:8538   */\n      dup4\n        /* \"#utility.yul\":8525:8542   */\n      add\n        /* \"#utility.yul\":8516:8522   */\n      dup5\n        /* \"#utility.yul\":8472:8543   */\n      tag_319\n      jump\t// in\n    tag_475:\n        /* \"#utility.yul\":8328:8550   */\n      swap3\n      swap2\n      pop\n      pop\n      jump\t// out\n        /* \"#utility.yul\":8556:8885   */\n    tag_37:\n        /* \"#utility.yul\":8615:8621   */\n      0x00\n        /* \"#utility.yul\":8664:8666   */\n      0x20\n        /* \"#utility.yul\":8652:8661   */\n      dup3\n        /* \"#utility.yul\":8643:8650   */\n      dup5\n        /* \"#utility.yul\":8639:8662   */\n      sub\n        /* \"#utility.yul\":8635:8667   */\n      slt\n        /* \"#utility.yul\":8632:8751   */\n      iszero\n      tag_477\n      jumpi\n        /* \"#utility.yul\":8670:8749   */\n      tag_478\n      tag_293\n      jump\t// in\n    tag_478:\n        /* \"#utility.yul\":8632:8751   */\n    tag_477:\n        /* \"#utility.yul\":8790:8791   */\n      0x00\n        /* \"#utility.yul\":8815:8868   */\n      tag_479\n        /* \"#utility.yul\":8860:8867   */\n      dup5\n        /* \"#utility.yul\":8851:8857   */\n      dup3\n        /* \"#utility.yul\":8840:8849   */\n      dup6\n        /* \"#utility.yul\":8836:8858   */\n      add\n        /* \"#utility.yul\":8815:8868   */\n      tag_316\n      jump\t// in\n    tag_479:\n        /* \"#utility.yul\":8805:8868   */\n      swap2\n      pop\n        /* \"#utility.yul\":8761:8878   */\n      pop\n        /* \"#utility.yul\":8556:8885   */\n      swap3\n      swap2\n      pop\n      pop\n      jump\t// out\n        /* \"#utility.yul\":8891:9009   */\n    tag_320:\n        /* \"#utility.yul\":8978:9002   */\n      tag_481\n        /* \"#utility.yul\":8996:9001   */\n      dup2\n        /* \"#utility.yul\":8978:9002   */\n      tag_300\n      jump\t// in\n    tag_481:\n        /* \"#utility.yul\":8973:8976   */\n      dup3\n        /* \"#utility.yul\":8966:9003   */\n      mstore\n        /* \"#utility.yul\":8891:9009   */\n      pop\n      pop\n      jump\t// out\n        /* \"#utility.yul\":9015:9237   */\n    tag_42:\n        /* \"#utility.yul\":9108:9112   */\n      0x00\n        /* \"#utility.yul\":9146:9148   */\n      0x20\n        /* \"#utility.yul\":9135:9144   */\n      dup3\n        /* \"#utility.yul\":9131:9149   */\n      add\n        /* \"#utility.yul\":9123:9149   */\n      swap1\n      pop\n        /* \"#utility.yul\":9159:9230   */\n      tag_483\n        /* \"#utility.yul\":9227:9228   */\n      0x00\n        /* \"#utility.yul\":9216:9225   */\n      dup4\n        /* \"#utility.yul\":9212:9229   */\n      add\n        /* \"#utility.yul\":9203:9209   */\n      dup5\n        /* \"#utility.yul\":9159:9230   */\n      tag_320\n      jump\t// in\n    tag_483:\n        /* \"#utility.yul\":9015:9237   */\n      swap3\n      swap2\n      pop\n      pop\n      jump\t// out\n        /* \"#utility.yul\":9243:9747   */\n    tag_48:\n        /* \"#utility.yul\":9326:9332   */\n      0x00\n        /* \"#utility.yul\":9334:9340   */\n      dup1\n        /* \"#utility.yul\":9383:9385   */\n      0x40\n        /* \"#utility.yul\":9371:9380   */\n      dup4\n        /* \"#utility.yul\":9362:9369   */\n      dup6\n        /* \"#utility.yul\":9358:9381   */\n      sub\n        /* \"#utility.yul\":9354:9386   */\n      slt\n        /* \"#utility.yul\":9351:9470   */\n      iszero\n      tag_485\n      jumpi\n        /* \"#utility.yul\":9389:9468   */\n      tag_486\n      tag_293\n      jump\t// in\n    tag_486:\n        /* \"#utility.yul\":9351:9470   */\n    tag_485:\n        /* \"#utility.yul\":9509:9510   */\n      0x00\n        /* \"#utility.yul\":9534:9602   */\n      tag_487\n        /* \"#utility.yul\":9594:9601   */\n      dup6\n        /* \"#utility.yul\":9585:9591   */\n      dup3\n        /* \"#utility.yul\":9574:9583   */\n      dup7\n        /* \"#utility.yul\":9570:9592   */\n      add\n        /* \"#utility.yul\":9534:9602   */\n      tag_303\n      jump\t// in\n    tag_487:\n        /* \"#utility.yul\":9524:9602   */\n      swap3\n      pop\n        /* \"#utility.yul\":9480:9612   */\n      pop\n        /* \"#utility.yul\":9651:9653   */\n      0x20\n        /* \"#utility.yul\":9677:9730   */\n      tag_488\n        /* \"#utility.yul\":9722:9729   */\n      dup6\n        /* \"#utility.yul\":9713:9719   */\n      dup3\n        /* \"#utility.yul\":9702:9711   */\n      dup7\n        /* \"#utility.yul\":9698:9720   */\n      add\n        /* \"#utility.yul\":9677:9730   */\n      tag_316\n      jump\t// in\n    tag_488:\n        /* \"#utility.yul\":9667:9730   */\n      swap2\n      pop\n        /* \"#utility.yul\":9622:9740   */\n      pop\n        /* \"#utility.yul\":9243:9747   */\n      swap3\n      pop\n      swap3\n      swap1\n      pop\n      jump\t// out\n        /* \"#utility.yul\":9753:9843   */\n    tag_321:\n        /* \"#utility.yul\":9787:9794   */\n      0x00\n        /* \"#utility.yul\":9830:9835   */\n      dup2\n        /* \"#utility.yul\":9823:9836   */\n      iszero\n        /* \"#utility.yul\":9816:9837   */\n      iszero\n        /* \"#utility.yul\":9805:9837   */\n      swap1\n      pop\n        /* \"#utility.yul\":9753:9843   */\n      swap2\n      swap1\n      pop\n      jump\t// out\n        /* \"#utility.yul\":9849:9958   */\n    tag_322:\n        /* \"#utility.yul\":9930:9951   */\n      tag_491\n        /* \"#utility.yul\":9945:9950   */\n      dup2\n        /* \"#utility.yul\":9930:9951   */\n      tag_321\n      jump\t// in\n    tag_491:\n        /* \"#utility.yul\":9925:9928   */\n      dup3\n        /* \"#utility.yul\":9918:9952   */\n      mstore\n        /* \"#utility.yul\":9849:9958   */\n      pop\n      pop\n      jump\t// out\n        /* \"#utility.yul\":9964:10024   */\n    tag_323:\n        /* \"#utility.yul\":9992:9995   */\n      0x00\n        /* \"#utility.yul\":10013:10018   */\n      dup2\n        /* \"#utility.yul\":10006:10018   */\n      swap1\n      pop\n        /* \"#utility.yul\":9964:10024   */\n      swap2\n      swap1\n      pop\n      jump\t// out\n        /* \"#utility.yul\":10030:10172   */\n    tag_324:\n        /* \"#utility.yul\":10080:10089   */\n      0x00\n        /* \"#utility.yul\":10113:10166   */\n      tag_494\n        /* \"#utility.yul\":10131:10165   */\n      tag_495\n        /* \"#utility.yul\":10140:10164   */\n      tag_496\n        /* \"#utility.yul\":10158:10163   */\n      dup5\n        /* \"#utility.yul\":10140:10164   */\n      tag_299\n      jump\t// in\n    tag_496:\n        /* \"#utility.yul\":10131:10165   */\n      tag_323\n      jump\t// in\n    tag_495:\n        /* \"#utility.yul\":10113:10166   */\n      tag_299\n      jump\t// in\n    tag_494:\n        /* \"#utility.yul\":10100:10166   */\n      swap1\n      pop\n        /* \"#utility.yul\":10030:10172   */\n      swap2\n      swap1\n      pop\n      jump\t// out\n        /* \"#utility.yul\":10178:10304   */\n    tag_325:\n        /* \"#utility.yul\":10228:10237   */\n      0x00\n        /* \"#utility.yul\":10261:10298   */\n      tag_498\n        /* \"#utility.yul\":10292:10297   */\n      dup3\n        /* \"#utility.yul\":10261:10298   */\n      tag_324\n      jump\t// in\n    tag_498:\n        /* \"#utility.yul\":10248:10298   */\n      swap1\n      pop\n        /* \"#utility.yul\":10178:10304   */\n      swap2\n      swap1\n      pop\n      jump\t// out\n        /* \"#utility.yul\":10310:10451   */\n    tag_326:\n        /* \"#utility.yul\":10375:10384   */\n      0x00\n        /* \"#utility.yul\":10408:10445   */\n      tag_500\n        /* \"#utility.yul\":10439:10444   */\n      dup3\n        /* \"#utility.yul\":10408:10445   */\n      tag_325\n      jump\t// in\n    tag_500:\n        /* \"#utility.yul\":10395:10445   */\n      swap1\n      pop\n        /* \"#utility.yul\":10310:10451   */\n      swap2\n      swap1\n      pop\n      jump\t// out\n        /* \"#utility.yul\":10457:10618   */\n    tag_327:\n        /* \"#utility.yul\":10559:10611   */\n      tag_502\n        /* \"#utility.yul\":10605:10610   */\n      dup2\n        /* \"#utility.yul\":10559:10611   */\n      tag_326\n      jump\t// in\n    tag_502:\n        /* \"#utility.yul\":10554:10557   */\n      dup3\n        /* \"#utility.yul\":10547:10612   */\n      mstore\n        /* \"#utility.yul\":10457:10618   */\n      pop\n      pop\n      jump\t// out\n        /* \"#utility.yul\":10624:11306   */\n    tag_51:\n        /* \"#utility.yul\":10838:10842   */\n      0x00\n        /* \"#utility.yul\":10876:10879   */\n      0xa0\n        /* \"#utility.yul\":10865:10874   */\n      dup3\n        /* \"#utility.yul\":10861:10880   */\n      add\n        /* \"#utility.yul\":10853:10880   */\n      swap1\n      pop\n        /* \"#utility.yul\":10890:10961   */\n      tag_504\n        /* \"#utility.yul\":10958:10959   */\n      0x00\n        /* \"#utility.yul\":10947:10956   */\n      dup4\n        /* \"#utility.yul\":10943:10960   */\n      add\n        /* \"#utility.yul\":10934:10940   */\n      dup9\n        /* \"#utility.yul\":10890:10961   */\n      tag_320\n      jump\t// in\n    tag_504:\n        /* \"#utility.yul\":10971:11043   */\n      tag_505\n        /* \"#utility.yul\":11039:11041   */\n      0x20\n        /* \"#utility.yul\":11028:11037   */\n      dup4\n        /* \"#utility.yul\":11024:11042   */\n      add\n        /* \"#utility.yul\":11015:11021   */\n      dup8\n        /* \"#utility.yul\":10971:11043   */\n      tag_319\n      jump\t// in\n    tag_505:\n        /* \"#utility.yul\":11053:11125   */\n      tag_506\n        /* \"#utility.yul\":11121:11123   */\n      0x40\n        /* \"#utility.yul\":11110:11119   */\n      dup4\n        /* \"#utility.yul\":11106:11124   */\n      add\n        /* \"#utility.yul\":11097:11103   */\n      dup7\n        /* \"#utility.yul\":11053:11125   */\n      tag_319\n      jump\t// in\n    tag_506:\n        /* \"#utility.yul\":11135:11201   */\n      tag_507\n        /* \"#utility.yul\":11197:11199   */\n      0x60\n        /* \"#utility.yul\":11186:11195   */\n      dup4\n        /* \"#utility.yul\":11182:11200   */\n      add\n        /* \"#utility.yul\":11173:11179   */\n      dup6\n        /* \"#utility.yul\":11135:11201   */\n      tag_322\n      jump\t// in\n    tag_507:\n        /* \"#utility.yul\":11211:11299   */\n      tag_508\n        /* \"#utility.yul\":11294:11297   */\n      0x80\n        /* \"#utility.yul\":11283:11292   */\n      dup4\n        /* \"#utility.yul\":11279:11298   */\n      add\n        /* \"#utility.yul\":11270:11276   */\n      dup5\n        /* \"#utility.yul\":11211:11299   */\n      tag_327\n      jump\t// in\n    tag_508:\n        /* \"#utility.yul\":10624:11306   */\n      swap7\n      swap6\n      pop\n      pop\n      pop\n      pop\n      pop\n      pop\n      jump\t// out\n        /* \"#utility.yul\":11312:11816   */\n    tag_54:\n        /* \"#utility.yul\":11395:11401   */\n      0x00\n        /* \"#utility.yul\":11403:11409   */\n      dup1\n        /* \"#utility.yul\":11452:11454   */\n      0x40\n        /* \"#utility.yul\":11440:11449   */\n      dup4\n        /* \"#utility.yul\":11431:11438   */\n      dup6\n        /* \"#utility.yul\":11427:11450   */\n      sub\n        /* \"#utility.yul\":11423:11455   */\n      slt\n        /* \"#utility.yul\":11420:11539   */\n      iszero\n      tag_510\n      jumpi\n        /* \"#utility.yul\":11458:11537   */\n      tag_511\n      tag_293\n      jump\t// in\n    tag_511:\n        /* \"#utility.yul\":11420:11539   */\n    tag_510:\n        /* \"#utility.yul\":11578:11579   */\n      0x00\n        /* \"#utility.yul\":11603:11656   */\n      tag_512\n        /* \"#utility.yul\":11648:11655   */\n      dup6\n        /* \"#utility.yul\":11639:11645   */\n      dup3\n        /* \"#utility.yul\":11628:11637   */\n      dup7\n        /* \"#utility.yul\":11624:11646   */\n      add\n        /* \"#utility.yul\":11603:11656   */\n      tag_316\n      jump\t// in\n    tag_512:\n        /* \"#utility.yul\":11593:11656   */\n      swap3\n      pop\n        /* \"#utility.yul\":11549:11666   */\n      pop\n        /* \"#utility.yul\":11705:11707   */\n      0x20\n        /* \"#utility.yul\":11731:11799   */\n      tag_513\n        /* \"#utility.yul\":11791:11798   */\n      dup6\n        /* \"#utility.yul\":11782:11788   */\n      dup3\n        /* \"#utility.yul\":11771:11780   */\n      dup7\n        /* \"#utility.yul\":11767:11789   */\n      add\n        /* \"#utility.yul\":11731:11799   */\n      tag_303\n      jump\t// in\n    tag_513:\n        /* \"#utility.yul\":11721:11799   */\n      swap2\n      pop\n        /* \"#utility.yul\":11676:11809   */\n      pop\n        /* \"#utility.yul\":11312:11816   */\n      swap3\n      pop\n      swap3\n      swap1\n      pop\n      jump\t// out\n        /* \"#utility.yul\":11822:12181   */\n    tag_62:\n        /* \"#utility.yul\":11896:11902   */\n      0x00\n        /* \"#utility.yul\":11945:11947   */\n      0x20\n        /* \"#utility.yul\":11933:11942   */\n      dup3\n        /* \"#utility.yul\":11924:11931   */\n      dup5\n        /* \"#utility.yul\":11920:11943   */\n      sub\n        /* \"#utility.yul\":11916:11948   */\n      slt\n        /* \"#utility.yul\":11913:12032   */\n      iszero\n      tag_515\n      jumpi\n        /* \"#utility.yul\":11951:12030   */\n      tag_516\n      tag_293\n      jump\t// in\n    tag_516:\n        /* \"#utility.yul\":11913:12032   */\n    tag_515:\n        /* \"#utility.yul\":12071:12072   */\n      0x00\n        /* \"#utility.yul\":12096:12164   */\n      tag_517\n        /* \"#utility.yul\":12156:12163   */\n      dup5\n        /* \"#utility.yul\":12147:12153   */\n      dup3\n        /* \"#utility.yul\":12136:12145   */\n      dup6\n        /* \"#utility.yul\":12132:12154   */\n      add\n        /* \"#utility.yul\":12096:12164   */\n      tag_303\n      jump\t// in\n    tag_517:\n        /* \"#utility.yul\":12086:12164   */\n      swap2\n      pop\n        /* \"#utility.yul\":12042:12174   */\n      pop\n        /* \"#utility.yul\":11822:12181   */\n      swap3\n      swap2\n      pop\n      pop\n      jump\t// out\n        /* \"#utility.yul\":12187:12335   */\n    tag_328:\n        /* \"#utility.yul\":12259:12268   */\n      0x00\n        /* \"#utility.yul\":12292:12329   */\n      tag_519\n        /* \"#utility.yul\":12323:12328   */\n      dup3\n        /* \"#utility.yul\":12292:12329   */\n      tag_325\n      jump\t// in\n    tag_519:\n        /* \"#utility.yul\":12279:12329   */\n      swap1\n      pop\n        /* \"#utility.yul\":12187:12335   */\n      swap2\n      swap1\n      pop\n      jump\t// out\n        /* \"#utility.yul\":12341:12516   */\n    tag_329:\n        /* \"#utility.yul\":12450:12509   */\n      tag_521\n        /* \"#utility.yul\":12503:12508   */\n      dup2\n        /* \"#utility.yul\":12450:12509   */\n      tag_328\n      jump\t// in\n    tag_521:\n        /* \"#utility.yul\":12445:12448   */\n      dup3\n        /* \"#utility.yul\":12438:12510   */\n      mstore\n        /* \"#utility.yul\":12341:12516   */\n      pop\n      pop\n      jump\t// out\n        /* \"#utility.yul\":12522:13008   */\n    tag_65:\n        /* \"#utility.yul\":12693:12697   */\n      0x00\n        /* \"#utility.yul\":12731:12733   */\n      0x60\n        /* \"#utility.yul\":12720:12729   */\n      dup3\n        /* \"#utility.yul\":12716:12734   */\n      add\n        /* \"#utility.yul\":12708:12734   */\n      swap1\n      pop\n        /* \"#utility.yul\":12744:12837   */\n      tag_523\n        /* \"#utility.yul\":12834:12835   */\n      0x00\n        /* \"#utility.yul\":12823:12832   */\n      dup4\n        /* \"#utility.yul\":12819:12836   */\n      add\n        /* \"#utility.yul\":12810:12816   */\n      dup7\n        /* \"#utility.yul\":12744:12837   */\n      tag_329\n      jump\t// in\n    tag_523:\n        /* \"#utility.yul\":12847:12919   */\n      tag_524\n        /* \"#utility.yul\":12915:12917   */\n      0x20\n        /* \"#utility.yul\":12904:12913   */\n      dup4\n        /* \"#utility.yul\":12900:12918   */\n      add\n        /* \"#utility.yul\":12891:12897   */\n      dup6\n        /* \"#utility.yul\":12847:12919   */\n      tag_319\n      jump\t// in\n    tag_524:\n        /* \"#utility.yul\":12929:13001   */\n      tag_525\n        /* \"#utility.yul\":12997:12999   */\n      0x40\n        /* \"#utility.yul\":12986:12995   */\n      dup4\n        /* \"#utility.yul\":12982:13000   */\n      add\n        /* \"#utility.yul\":12973:12979   */\n      dup5\n        /* \"#utility.yul\":12929:13001   */\n      tag_319\n      jump\t// in\n    tag_525:\n        /* \"#utility.yul\":12522:13008   */\n      swap5\n      swap4\n      pop\n      pop\n      pop\n      pop\n      jump\t// out\n        /* \"#utility.yul\":13014:13343   */\n    tag_68:\n        /* \"#utility.yul\":13073:13079   */\n      0x00\n        /* \"#utility.yul\":13122:13124   */\n      0x20\n        /* \"#utility.yul\":13110:13119   */\n      dup3\n        /* \"#utility.yul\":13101:13108   */\n      dup5\n        /* \"#utility.yul\":13097:13120   */\n      sub\n        /* \"#utility.yul\":13093:13125   */\n      slt\n        /* \"#utility.yul\":13090:13209   */\n      iszero\n      tag_527\n      jumpi\n        /* \"#utility.yul\":13128:13207   */\n      tag_528\n      tag_293\n      jump\t// in\n    tag_528:\n        /* \"#utility.yul\":13090:13209   */\n    tag_527:\n        /* \"#utility.yul\":13248:13249   */\n      0x00\n        /* \"#utility.yul\":13273:13326   */\n      tag_529\n        /* \"#utility.yul\":13318:13325   */\n      dup5\n        /* \"#utility.yul\":13309:13315   */\n      dup3\n        /* \"#utility.yul\":13298:13307   */\n      dup6\n        /* \"#utility.yul\":13294:13316   */\n      add\n        /* \"#utility.yul\":13273:13326   */\n      tag_310\n      jump\t// in\n    tag_529:\n        /* \"#utility.yul\":13263:13326   */\n      swap2\n      pop\n        /* \"#utility.yul\":13219:13336   */\n      pop\n        /* \"#utility.yul\":13014:13343   */\n      swap3\n      swap2\n      pop\n      pop\n      jump\t// out\n        /* \"#utility.yul\":13349:13518   */\n    tag_330:\n        /* \"#utility.yul\":13433:13444   */\n      0x00\n        /* \"#utility.yul\":13467:13473   */\n      dup3\n        /* \"#utility.yul\":13462:13465   */\n      dup3\n        /* \"#utility.yul\":13455:13474   */\n      mstore\n        /* \"#utility.yul\":13507:13511   */\n      0x20\n        /* \"#utility.yul\":13502:13505   */\n      dup3\n        /* \"#utility.yul\":13498:13512   */\n      add\n        /* \"#utility.yul\":13483:13512   */\n      swap1\n      pop\n        /* \"#utility.yul\":13349:13518   */\n      swap3\n      swap2\n      pop\n      pop\n      jump\t// out\n        /* \"#utility.yul\":13524:13694   */\n    tag_331:\n        /* \"#utility.yul\":13664:13686   */\n      0x436f6e7472616374206e6f7420616c6c6f776564000000000000000000000000\n        /* \"#utility.yul\":13660:13661   */\n      0x00\n        /* \"#utility.yul\":13652:13658   */\n      dup3\n        /* \"#utility.yul\":13648:13662   */\n      add\n        /* \"#utility.yul\":13641:13687   */\n      mstore\n        /* \"#utility.yul\":13524:13694   */\n      pop\n      jump\t// out\n        /* \"#utility.yul\":13700:14066   */\n    tag_332:\n        /* \"#utility.yul\":13842:13845   */\n      0x00\n        /* \"#utility.yul\":13863:13930   */\n      tag_533\n        /* \"#utility.yul\":13927:13929   */\n      0x14\n        /* \"#utility.yul\":13922:13925   */\n      dup4\n        /* \"#utility.yul\":13863:13930   */\n      tag_330\n      jump\t// in\n    tag_533:\n        /* \"#utility.yul\":13856:13930   */\n      swap2\n      pop\n        /* \"#utility.yul\":13939:14032   */\n      tag_534\n        /* \"#utility.yul\":14028:14031   */\n      dup3\n        /* \"#utility.yul\":13939:14032   */\n      tag_331\n      jump\t// in\n    tag_534:\n        /* \"#utility.yul\":14057:14059   */\n      0x20\n        /* \"#utility.yul\":14052:14055   */\n      dup3\n        /* \"#utility.yul\":14048:14060   */\n      add\n        /* \"#utility.yul\":14041:14060   */\n      swap1\n      pop\n        /* \"#utility.yul\":13700:14066   */\n      swap2\n      swap1\n      pop\n      jump\t// out\n        /* \"#utility.yul\":14072:14491   */\n    tag_75:\n        /* \"#utility.yul\":14238:14242   */\n      0x00\n        /* \"#utility.yul\":14276:14278   */\n      0x20\n        /* \"#utility.yul\":14265:14274   */\n      dup3\n        /* \"#utility.yul\":14261:14279   */\n      add\n        /* \"#utility.yul\":14253:14279   */\n      swap1\n      pop\n        /* \"#utility.yul\":14325:14334   */\n      dup2\n        /* \"#utility.yul\":14319:14323   */\n      dup2\n        /* \"#utility.yul\":14315:14335   */\n      sub\n        /* \"#utility.yul\":14311:14312   */\n      0x00\n        /* \"#utility.yul\":14300:14309   */\n      dup4\n        /* \"#utility.yul\":14296:14313   */\n      add\n        /* \"#utility.yul\":14289:14336   */\n      mstore\n        /* \"#utility.yul\":14353:14484   */\n      tag_536\n        /* \"#utility.yul\":14479:14483   */\n      dup2\n        /* \"#utility.yul\":14353:14484   */\n      tag_332\n      jump\t// in\n    tag_536:\n        /* \"#utility.yul\":14345:14484   */\n      swap1\n      pop\n        /* \"#utility.yul\":14072:14491   */\n      swap2\n      swap1\n      pop\n      jump\t// out\n        /* \"#utility.yul\":14497:14673   */\n    tag_333:\n        /* \"#utility.yul\":14637:14665   */\n      0x50726f787920636f6e7472616374206e6f7420616c6c6f776564000000000000\n        /* \"#utility.yul\":14633:14634   */\n      0x00\n        /* \"#utility.yul\":14625:14631   */\n      dup3\n        /* \"#utility.yul\":14621:14635   */\n      add\n        /* \"#utility.yul\":14614:14666   */\n      mstore\n        /* \"#utility.yul\":14497:14673   */\n      pop\n      jump\t// out\n        /* \"#utility.yul\":14679:15045   */\n    tag_334:\n        /* \"#utility.yul\":14821:14824   */\n      0x00\n        /* \"#utility.yul\":14842:14909   */\n      tag_539\n        /* \"#utility.yul\":14906:14908   */\n      0x1a\n        /* \"#utility.yul\":14901:14904   */\n      dup4\n        /* \"#utility.yul\":14842:14909   */\n      tag_330\n      jump\t// in\n    tag_539:\n        /* \"#utility.yul\":14835:14909   */\n      swap2\n      pop\n        /* \"#utility.yul\":14918:15011   */\n      tag_540\n        /* \"#utility.yul\":15007:15010   */\n      dup3\n        /* \"#utility.yul\":14918:15011   */\n      tag_333\n      jump\t// in\n    tag_540:\n        /* \"#utility.yul\":15036:15038   */\n      0x20\n        /* \"#utility.yul\":15031:15034   */\n      dup3\n        /* \"#utility.yul\":15027:15039   */\n      add\n        /* \"#utility.yul\":15020:15039   */\n      swap1\n      pop\n        /* \"#utility.yul\":14679:15045   */\n      swap2\n      swap1\n      pop\n      jump\t// out\n        /* \"#utility.yul\":15051:15470   */\n    tag_78:\n        /* \"#utility.yul\":15217:15221   */\n      0x00\n        /* \"#utility.yul\":15255:15257   */\n      0x20\n        /* \"#utility.yul\":15244:15253   */\n      dup3\n        /* \"#utility.yul\":15240:15258   */\n      add\n        /* \"#utility.yul\":15232:15258   */\n      swap1\n      pop\n        /* \"#utility.yul\":15304:15313   */\n      dup2\n        /* \"#utility.yul\":15298:15302   */\n      dup2\n        /* \"#utility.yul\":15294:15314   */\n      sub\n        /* \"#utility.yul\":15290:15291   */\n      0x00\n        /* \"#utility.yul\":15279:15288   */\n      dup4\n        /* \"#utility.yul\":15275:15292   */\n      add\n        /* \"#utility.yul\":15268:15315   */\n      mstore\n        /* \"#utility.yul\":15332:15463   */\n      tag_542\n        /* \"#utility.yul\":15458:15462   */\n      dup2\n        /* \"#utility.yul\":15332:15463   */\n      tag_334\n      jump\t// in\n    tag_542:\n        /* \"#utility.yul\":15324:15463   */\n      swap1\n      pop\n        /* \"#utility.yul\":15051:15470   */\n      swap2\n      swap1\n      pop\n      jump\t// out\n        /* \"#utility.yul\":15476:15709   */\n    tag_335:\n        /* \"#utility.yul\":15616:15650   */\n      0x5374616b696e673a20526567697374657220636f6c6c656374696f6e20627920\n        /* \"#utility.yul\":15612:15613   */\n      0x00\n        /* \"#utility.yul\":15604:15610   */\n      dup3\n        /* \"#utility.yul\":15600:15614   */\n      add\n        /* \"#utility.yul\":15593:15651   */\n      mstore\n        /* \"#utility.yul\":15685:15701   */\n      0x6164645374616b696e674e667473000000000000000000000000000000000000\n        /* \"#utility.yul\":15680:15682   */\n      0x20\n        /* \"#utility.yul\":15672:15678   */\n      dup3\n        /* \"#utility.yul\":15668:15683   */\n      add\n        /* \"#utility.yul\":15661:15702   */\n      mstore\n        /* \"#utility.yul\":15476:15709   */\n      pop\n      jump\t// out\n        /* \"#utility.yul\":15715:16081   */\n    tag_336:\n        /* \"#utility.yul\":15857:15860   */\n      0x00\n        /* \"#utility.yul\":15878:15945   */\n      tag_545\n        /* \"#utility.yul\":15942:15944   */\n      0x2e\n        /* \"#utility.yul\":15937:15940   */\n      dup4\n        /* \"#utility.yul\":15878:15945   */\n      tag_330\n      jump\t// in\n    tag_545:\n        /* \"#utility.yul\":15871:15945   */\n      swap2\n      pop\n        /* \"#utility.yul\":15954:16047   */\n      tag_546\n        /* \"#utility.yul\":16043:16046   */\n      dup3\n        /* \"#utility.yul\":15954:16047   */\n      tag_335\n      jump\t// in\n    tag_546:\n        /* \"#utility.yul\":16072:16074   */\n      0x40\n        /* \"#utility.yul\":16067:16070   */\n      dup3\n        /* \"#utility.yul\":16063:16075   */\n      add\n        /* \"#utility.yul\":16056:16075   */\n      swap1\n      pop\n        /* \"#utility.yul\":15715:16081   */\n      swap2\n      swap1\n      pop\n      jump\t// out\n        /* \"#utility.yul\":16087:16506   */\n    tag_82:\n        /* \"#utility.yul\":16253:16257   */\n      0x00\n        /* \"#utility.yul\":16291:16293   */\n      0x20\n        /* \"#utility.yul\":16280:16289   */\n      dup3\n        /* \"#utility.yul\":16276:16294   */\n      add\n        /* \"#utility.yul\":16268:16294   */\n      swap1\n      pop\n        /* \"#utility.yul\":16340:16349   */\n      dup2\n        /* \"#utility.yul\":16334:16338   */\n      dup2\n        /* \"#utility.yul\":16330:16350   */\n      sub\n        /* \"#utility.yul\":16326:16327   */\n      0x00\n        /* \"#utility.yul\":16315:16324   */\n      dup4\n        /* \"#utility.yul\":16311:16328   */\n      add\n        /* \"#utility.yul\":16304:16351   */\n      mstore\n        /* \"#utility.yul\":16368:16499   */\n      tag_548\n        /* \"#utility.yul\":16494:16498   */\n      dup2\n        /* \"#utility.yul\":16368:16499   */\n      tag_336\n      jump\t// in\n    tag_548:\n        /* \"#utility.yul\":16360:16499   */\n      swap1\n      pop\n        /* \"#utility.yul\":16087:16506   */\n      swap2\n      swap1\n      pop\n      jump\t// out\n        /* \"#utility.yul\":16512:16671   */\n    tag_337:\n        /* \"#utility.yul\":16652:16663   */\n      0x4e6f20746f6b656e730000000000000000000000000000000000000000000000\n        /* \"#utility.yul\":16648:16649   */\n      0x00\n        /* \"#utility.yul\":16640:16646   */\n      dup3\n        /* \"#utility.yul\":16636:16650   */\n      add\n        /* \"#utility.yul\":16629:16664   */\n      mstore\n        /* \"#utility.yul\":16512:16671   */\n      pop\n      jump\t// out\n        /* \"#utility.yul\":16677:17042   */\n    tag_338:\n        /* \"#utility.yul\":16819:16822   */\n      0x00\n        /* \"#utility.yul\":16840:16906   */\n      tag_551\n        /* \"#utility.yul\":16904:16905   */\n      0x09\n        /* \"#utility.yul\":16899:16902   */\n      dup4\n        /* \"#utility.yul\":16840:16906   */\n      tag_330\n      jump\t// in\n    tag_551:\n        /* \"#utility.yul\":16833:16906   */\n      swap2\n      pop\n        /* \"#utility.yul\":16915:17008   */\n      tag_552\n        /* \"#utility.yul\":17004:17007   */\n      dup3\n        /* \"#utility.yul\":16915:17008   */\n      tag_337\n      jump\t// in\n    tag_552:\n        /* \"#utility.yul\":17033:17035   */\n      0x20\n        /* \"#utility.yul\":17028:17031   */\n      dup3\n        /* \"#utility.yul\":17024:17036   */\n      add\n        /* \"#utility.yul\":17017:17036   */\n      swap1\n      pop\n        /* \"#utility.yul\":16677:17042   */\n      swap2\n      swap1\n      pop\n      jump\t// out\n        /* \"#utility.yul\":17048:17467   */\n    tag_85:\n        /* \"#utility.yul\":17214:17218   */\n      0x00\n        /* \"#utility.yul\":17252:17254   */\n      0x20\n        /* \"#utility.yul\":17241:17250   */\n      dup3\n        /* \"#utility.yul\":17237:17255   */\n      add\n        /* \"#utility.yul\":17229:17255   */\n      swap1\n      pop\n        /* \"#utility.yul\":17301:17310   */\n      dup2\n        /* \"#utility.yul\":17295:17299   */\n      dup2\n        /* \"#utility.yul\":17291:17311   */\n      sub\n        /* \"#utility.yul\":17287:17288   */\n      0x00\n        /* \"#utility.yul\":17276:17285   */\n      dup4\n        /* \"#utility.yul\":17272:17289   */\n      add\n        /* \"#utility.yul\":17265:17312   */\n      mstore\n        /* \"#utility.yul\":17329:17460   */\n      tag_554\n        /* \"#utility.yul\":17455:17459   */\n      dup2\n        /* \"#utility.yul\":17329:17460   */\n      tag_338\n      jump\t// in\n    tag_554:\n        /* \"#utility.yul\":17321:17460   */\n      swap1\n      pop\n        /* \"#utility.yul\":17048:17467   */\n      swap2\n      swap1\n      pop\n      jump\t// out\n        /* \"#utility.yul\":17473:17653   */\n    tag_91:\n        /* \"#utility.yul\":17521:17598   */\n      0x4e487b7100000000000000000000000000000000000000000000000000000000\n        /* \"#utility.yul\":17518:17519   */\n      0x00\n        /* \"#utility.yul\":17511:17599   */\n      mstore\n        /* \"#utility.yul\":17618:17622   */\n      0x32\n        /* \"#utility.yul\":17615:17616   */\n      0x04\n        /* \"#utility.yul\":17608:17623   */\n      mstore\n        /* \"#utility.yul\":17642:17646   */\n      0x24\n        /* \"#utility.yul\":17639:17640   */\n      0x00\n        /* \"#utility.yul\":17632:17647   */\n      revert\n        /* \"#utility.yul\":17659:17826   */\n    tag_339:\n        /* \"#utility.yul\":17799:17818   */\n      0x4e6f74206120746f6b656e206f776e6572000000000000000000000000000000\n        /* \"#utility.yul\":17795:17796   */\n      0x00\n        /* \"#utility.yul\":17787:17793   */\n      dup3\n        /* \"#utility.yul\":17783:17797   */\n      add\n        /* \"#utility.yul\":17776:17819   */\n      mstore\n        /* \"#utility.yul\":17659:17826   */\n      pop\n      jump\t// out\n        /* \"#utility.yul\":17832:18198   */\n    tag_340:\n        /* \"#utility.yul\":17974:17977   */\n      0x00\n        /* \"#utility.yul\":17995:18062   */\n      tag_558\n        /* \"#utility.yul\":18059:18061   */\n      0x11\n        /* \"#utility.yul\":18054:18057   */\n      dup4\n        /* \"#utility.yul\":17995:18062   */\n      tag_330\n      jump\t// in\n    tag_558:\n        /* \"#utility.yul\":17988:18062   */\n      swap2\n      pop\n        /* \"#utility.yul\":18071:18164   */\n      tag_559\n        /* \"#utility.yul\":18160:18163   */\n      dup3\n        /* \"#utility.yul\":18071:18164   */\n      tag_339\n      jump\t// in\n    tag_559:\n        /* \"#utility.yul\":18189:18191   */\n      0x20\n        /* \"#utility.yul\":18184:18187   */\n      dup3\n        /* \"#utility.yul\":18180:18192   */\n      add\n        /* \"#utility.yul\":18173:18192   */\n      swap1\n      pop\n        /* \"#utility.yul\":17832:18198   */\n      swap2\n      swap1\n      pop\n      jump\t// out\n        /* \"#utility.yul\":18204:18623   */\n    tag_94:\n        /* \"#utility.yul\":18370:18374   */\n      0x00\n        /* \"#utility.yul\":18408:18410   */\n      0x20\n        /* \"#utility.yul\":18397:18406   */\n      dup3\n        /* \"#utility.yul\":18393:18411   */\n      add\n        /* \"#utility.yul\":18385:18411   */\n      swap1\n      pop\n        /* \"#utility.yul\":18457:18466   */\n      dup2\n        /* \"#utility.yul\":18451:18455   */\n      dup2\n        /* \"#utility.yul\":18447:18467   */\n      sub\n        /* \"#utility.yul\":18443:18444   */\n      0x00\n        /* \"#utility.yul\":18432:18441   */\n      dup4\n        /* \"#utility.yul\":18428:18445   */\n      add\n        /* \"#utility.yul\":18421:18468   */\n      mstore\n        /* \"#utility.yul\":18485:18616   */\n      tag_561\n        /* \"#utility.yul\":18611:18615   */\n      dup2\n        /* \"#utility.yul\":18485:18616   */\n      tag_340\n      jump\t// in\n    tag_561:\n        /* \"#utility.yul\":18477:18616   */\n      swap1\n      pop\n        /* \"#utility.yul\":18204:18623   */\n      swap2\n      swap1\n      pop\n      jump\t// out\n        /* \"#utility.yul\":18629:18809   */\n    tag_341:\n        /* \"#utility.yul\":18677:18754   */\n      0x4e487b7100000000000000000000000000000000000000000000000000000000\n        /* \"#utility.yul\":18674:18675   */\n      0x00\n        /* \"#utility.yul\":18667:18755   */\n      mstore\n        /* \"#utility.yul\":18774:18778   */\n      0x11\n        /* \"#utility.yul\":18771:18772   */\n      0x04\n        /* \"#utility.yul\":18764:18779   */\n      mstore\n        /* \"#utility.yul\":18798:18802   */\n      0x24\n        /* \"#utility.yul\":18795:18796   */\n      0x00\n        /* \"#utility.yul\":18788:18803   */\n      revert\n        /* \"#utility.yul\":18815:19006   */\n    tag_96:\n        /* \"#utility.yul\":18855:18858   */\n      0x00\n        /* \"#utility.yul\":18874:18894   */\n      tag_564\n        /* \"#utility.yul\":18892:18893   */\n      dup3\n        /* \"#utility.yul\":18874:18894   */\n      tag_314\n      jump\t// in\n    tag_564:\n        /* \"#utility.yul\":18869:18894   */\n      swap2\n      pop\n        /* \"#utility.yul\":18908:18928   */\n      tag_565\n        /* \"#utility.yul\":18926:18927   */\n      dup4\n        /* \"#utility.yul\":18908:18928   */\n      tag_314\n      jump\t// in\n    tag_565:\n        /* \"#utility.yul\":18903:18928   */\n      swap3\n      pop\n        /* \"#utility.yul\":18951:18952   */\n      dup3\n        /* \"#utility.yul\":18948:18949   */\n      dup3\n        /* \"#utility.yul\":18944:18953   */\n      add\n        /* \"#utility.yul\":18937:18953   */\n      swap1\n      pop\n        /* \"#utility.yul\":18972:18975   */\n      dup1\n        /* \"#utility.yul\":18969:18970   */\n      dup3\n        /* \"#utility.yul\":18966:18976   */\n      gt\n        /* \"#utility.yul\":18963:18999   */\n      iszero\n      tag_566\n      jumpi\n        /* \"#utility.yul\":18979:18997   */\n      tag_567\n      tag_341\n      jump\t// in\n    tag_567:\n        /* \"#utility.yul\":18963:18999   */\n    tag_566:\n        /* \"#utility.yul\":18815:19006   */\n      swap3\n      swap2\n      pop\n      pop\n      jump\t// out\n        /* \"#utility.yul\":19012:19183   */\n    tag_342:\n        /* \"#utility.yul\":19152:19175   */\n      0x4e6f742061626c6520746f20636c61696d207965740000000000000000000000\n        /* \"#utility.yul\":19148:19149   */\n      0x00\n        /* \"#utility.yul\":19140:19146   */\n      dup3\n        /* \"#utility.yul\":19136:19150   */\n      add\n        /* \"#utility.yul\":19129:19176   */\n      mstore\n        /* \"#utility.yul\":19012:19183   */\n      pop\n      jump\t// out\n        /* \"#utility.yul\":19189:19555   */\n    tag_343:\n        /* \"#utility.yul\":19331:19334   */\n      0x00\n        /* \"#utility.yul\":19352:19419   */\n      tag_570\n        /* \"#utility.yul\":19416:19418   */\n      0x15\n        /* \"#utility.yul\":19411:19414   */\n      dup4\n        /* \"#utility.yul\":19352:19419   */\n      tag_330\n      jump\t// in\n    tag_570:\n        /* \"#utility.yul\":19345:19419   */\n      swap2\n      pop\n        /* \"#utility.yul\":19428:19521   */\n      tag_571\n        /* \"#utility.yul\":19517:19520   */\n      dup3\n        /* \"#utility.yul\":19428:19521   */\n      tag_342\n      jump\t// in\n    tag_571:\n        /* \"#utility.yul\":19546:19548   */\n      0x20\n        /* \"#utility.yul\":19541:19544   */\n      dup3\n        /* \"#utility.yul\":19537:19549   */\n      add\n        /* \"#utility.yul\":19530:19549   */\n      swap1\n      pop\n        /* \"#utility.yul\":19189:19555   */\n      swap2\n      swap1\n      pop\n      jump\t// out\n        /* \"#utility.yul\":19561:19980   */\n    tag_99:\n        /* \"#utility.yul\":19727:19731   */\n      0x00\n        /* \"#utility.yul\":19765:19767   */\n      0x20\n        /* \"#utility.yul\":19754:19763   */\n      dup3\n        /* \"#utility.yul\":19750:19768   */\n      add\n        /* \"#utility.yul\":19742:19768   */\n      swap1\n      pop\n        /* \"#utility.yul\":19814:19823   */\n      dup2\n        /* \"#utility.yul\":19808:19812   */\n      dup2\n        /* \"#utility.yul\":19804:19824   */\n      sub\n        /* \"#utility.yul\":19800:19801   */\n      0x00\n        /* \"#utility.yul\":19789:19798   */\n      dup4\n        /* \"#utility.yul\":19785:19802   */\n      add\n        /* \"#utility.yul\":19778:19825   */\n      mstore\n        /* \"#utility.yul\":19842:19973   */\n      tag_573\n        /* \"#utility.yul\":19968:19972   */\n      dup2\n        /* \"#utility.yul\":19842:19973   */\n      tag_343\n      jump\t// in\n    tag_573:\n        /* \"#utility.yul\":19834:19973   */\n      swap1\n      pop\n        /* \"#utility.yul\":19561:19980   */\n      swap2\n      swap1\n      pop\n      jump\t// out\n        /* \"#utility.yul\":19986:20152   */\n    tag_344:\n        /* \"#utility.yul\":20126:20144   */\n      0x416c726561647920756e6c6f636b656400000000000000000000000000000000\n        /* \"#utility.yul\":20122:20123   */\n      0x00\n        /* \"#utility.yul\":20114:20120   */\n      dup3\n        /* \"#utility.yul\":20110:20124   */\n      add\n        /* \"#utility.yul\":20103:20145   */\n      mstore\n        /* \"#utility.yul\":19986:20152   */\n      pop\n      jump\t// out\n        /* \"#utility.yul\":20158:20524   */\n    tag_345:\n        /* \"#utility.yul\":20300:20303   */\n      0x00\n        /* \"#utility.yul\":20321:20388   */\n      tag_576\n        /* \"#utility.yul\":20385:20387   */\n      0x10\n        /* \"#utility.yul\":20380:20383   */\n      dup4\n        /* \"#utility.yul\":20321:20388   */\n      tag_330\n      jump\t// in\n    tag_576:\n        /* \"#utility.yul\":20314:20388   */\n      swap2\n      pop\n        /* \"#utility.yul\":20397:20490   */\n      tag_577\n        /* \"#utility.yul\":20486:20489   */\n      dup3\n        /* \"#utility.yul\":20397:20490   */\n      tag_344\n      jump\t// in\n    tag_577:\n        /* \"#utility.yul\":20515:20517   */\n      0x20\n        /* \"#utility.yul\":20510:20513   */\n      dup3\n        /* \"#utility.yul\":20506:20518   */\n      add\n        /* \"#utility.yul\":20499:20518   */\n      swap1\n      pop\n        /* \"#utility.yul\":20158:20524   */\n      swap2\n      swap1\n      pop\n      jump\t// out\n        /* \"#utility.yul\":20530:20949   */\n    tag_102:\n        /* \"#utility.yul\":20696:20700   */\n      0x00\n        /* \"#utility.yul\":20734:20736   */\n      0x20\n        /* \"#utility.yul\":20723:20732   */\n      dup3\n        /* \"#utility.yul\":20719:20737   */\n      add\n        /* \"#utility.yul\":20711:20737   */\n      swap1\n      pop\n        /* \"#utility.yul\":20783:20792   */\n      dup2\n        /* \"#utility.yul\":20777:20781   */\n      dup2\n        /* \"#utility.yul\":20773:20793   */\n      sub\n        /* \"#utility.yul\":20769:20770   */\n      0x00\n        /* \"#utility.yul\":20758:20767   */\n      dup4\n        /* \"#utility.yul\":20754:20771   */\n      add\n        /* \"#utility.yul\":20747:20794   */\n      mstore\n        /* \"#utility.yul\":20811:20942   */\n      tag_579\n        /* \"#utility.yul\":20937:20941   */\n      dup2\n        /* \"#utility.yul\":20811:20942   */\n      tag_345\n      jump\t// in\n    tag_579:\n        /* \"#utility.yul\":20803:20942   */\n      swap1\n      pop\n        /* \"#utility.yul\":20530:20949   */\n      swap2\n      swap1\n      pop\n      jump\t// out\n        /* \"#utility.yul\":20955:21149   */\n    tag_108:\n        /* \"#utility.yul\":20995:20999   */\n      0x00\n        /* \"#utility.yul\":21015:21035   */\n      tag_581\n        /* \"#utility.yul\":21033:21034   */\n      dup3\n        /* \"#utility.yul\":21015:21035   */\n      tag_314\n      jump\t// in\n    tag_581:\n        /* \"#utility.yul\":21010:21035   */\n      swap2\n      pop\n        /* \"#utility.yul\":21049:21069   */\n      tag_582\n        /* \"#utility.yul\":21067:21068   */\n      dup4\n        /* \"#utility.yul\":21049:21069   */\n      tag_314\n      jump\t// in\n    tag_582:\n        /* \"#utility.yul\":21044:21069   */\n      swap3\n      pop\n        /* \"#utility.yul\":21093:21094   */\n      dup3\n        /* \"#utility.yul\":21090:21091   */\n      dup3\n        /* \"#utility.yul\":21086:21095   */\n      sub\n        /* \"#utility.yul\":21078:21095   */\n      swap1\n      pop\n        /* \"#utility.yul\":21117:21118   */\n      dup2\n        /* \"#utility.yul\":21111:21115   */\n      dup2\n        /* \"#utility.yul\":21108:21119   */\n      gt\n        /* \"#utility.yul\":21105:21142   */\n      iszero\n      tag_583\n      jumpi\n        /* \"#utility.yul\":21122:21140   */\n      tag_584\n      tag_341\n      jump\t// in\n    tag_584:\n        /* \"#utility.yul\":21105:21142   */\n    tag_583:\n        /* \"#utility.yul\":20955:21149   */\n      swap3\n      swap2\n      pop\n      pop\n      jump\t// out\n        /* \"#utility.yul\":21155:21487   */\n    tag_110:\n        /* \"#utility.yul\":21276:21280   */\n      0x00\n        /* \"#utility.yul\":21314:21316   */\n      0x40\n        /* \"#utility.yul\":21303:21312   */\n      dup3\n        /* \"#utility.yul\":21299:21317   */\n      add\n        /* \"#utility.yul\":21291:21317   */\n      swap1\n      pop\n        /* \"#utility.yul\":21327:21398   */\n      tag_586\n        /* \"#utility.yul\":21395:21396   */\n      0x00\n        /* \"#utility.yul\":21384:21393   */\n      dup4\n        /* \"#utility.yul\":21380:21397   */\n      add\n        /* \"#utility.yul\":21371:21377   */\n      dup6\n        /* \"#utility.yul\":21327:21398   */\n      tag_320\n      jump\t// in\n    tag_586:\n        /* \"#utility.yul\":21408:21480   */\n      tag_587\n        /* \"#utility.yul\":21476:21478   */\n      0x20\n        /* \"#utility.yul\":21465:21474   */\n      dup4\n        /* \"#utility.yul\":21461:21479   */\n      add\n        /* \"#utility.yul\":21452:21458   */\n      dup5\n        /* \"#utility.yul\":21408:21480   */\n      tag_319\n      jump\t// in\n    tag_587:\n        /* \"#utility.yul\":21155:21487   */\n      swap4\n      swap3\n      pop\n      pop\n      pop\n      jump\t// out\n        /* \"#utility.yul\":21493:21726   */\n    tag_118:\n        /* \"#utility.yul\":21532:21535   */\n      0x00\n        /* \"#utility.yul\":21555:21579   */\n      tag_589\n        /* \"#utility.yul\":21573:21578   */\n      dup3\n        /* \"#utility.yul\":21555:21579   */\n      tag_314\n      jump\t// in\n    tag_589:\n        /* \"#utility.yul\":21546:21579   */\n      swap2\n      pop\n        /* \"#utility.yul\":21601:21667   */\n      0xffffffffffffffffffffffffffffffffffffffffffffffffffffffffffffffff\n        /* \"#utility.yul\":21594:21599   */\n      dup3\n        /* \"#utility.yul\":21591:21668   */\n      sub\n        /* \"#utility.yul\":21588:21691   */\n      tag_590\n      jumpi\n        /* \"#utility.yul\":21671:21689   */\n      tag_591\n      tag_341\n      jump\t// in\n    tag_591:\n        /* \"#utility.yul\":21588:21691   */\n    tag_590:\n        /* \"#utility.yul\":21718:21719   */\n      0x01\n        /* \"#utility.yul\":21711:21716   */\n      dup3\n        /* \"#utility.yul\":21707:21720   */\n      add\n        /* \"#utility.yul\":21700:21720   */\n      swap1\n      pop\n        /* \"#utility.yul\":21493:21726   */\n      swap2\n      swap1\n      pop\n      jump\t// out\n        /* \"#utility.yul\":21732:21916   */\n    tag_346:\n        /* \"#utility.yul\":21831:21842   */\n      0x00\n        /* \"#utility.yul\":21865:21871   */\n      dup3\n        /* \"#utility.yul\":21860:21863   */\n      dup3\n        /* \"#utility.yul\":21853:21872   */\n      mstore\n        /* \"#utility.yul\":21905:21909   */\n      0x20\n        /* \"#utility.yul\":21900:21903   */\n      dup3\n        /* \"#utility.yul\":21896:21910   */\n      add\n        /* \"#utility.yul\":21881:21910   */\n      swap1\n      pop\n        /* \"#utility.yul\":21732:21916   */\n      swap3\n      swap2\n      pop\n      pop\n      jump\t// out\n        /* \"#utility.yul\":21922:22039   */\n    tag_347:\n        /* \"#utility.yul\":22031:22032   */\n      0x00\n        /* \"#utility.yul\":22028:22029   */\n      dup1\n        /* \"#utility.yul\":22021:22033   */\n      revert\n        /* \"#utility.yul\":22045:22143   */\n    tag_348:\n        /* \"#utility.yul\":22129:22135   */\n      dup3\n        /* \"#utility.yul\":22124:22127   */\n      dup2\n        /* \"#utility.yul\":22119:22122   */\n      dup4\n        /* \"#utility.yul\":22106:22136   */\n      calldatacopy\n        /* \"#utility.yul\":22045:22143   */\n      pop\n      pop\n      pop\n      jump\t// out\n        /* \"#utility.yul\":22179:22716   */\n    tag_349:\n        /* \"#utility.yul\":22307:22310   */\n      0x00\n        /* \"#utility.yul\":22328:22414   */\n      tag_596\n        /* \"#utility.yul\":22407:22413   */\n      dup4\n        /* \"#utility.yul\":22402:22405   */\n      dup6\n        /* \"#utility.yul\":22328:22414   */\n      tag_346\n      jump\t// in\n    tag_596:\n        /* \"#utility.yul\":22321:22414   */\n      swap4\n      pop\n        /* \"#utility.yul\":22438:22504   */\n      0x07ffffffffffffffffffffffffffffffffffffffffffffffffffffffffffffff\n        /* \"#utility.yul\":22430:22436   */\n      dup4\n        /* \"#utility.yul\":22427:22505   */\n      gt\n        /* \"#utility.yul\":22424:22589   */\n      iszero\n      tag_597\n      jumpi\n        /* \"#utility.yul\":22508:22587   */\n      tag_598\n      tag_347\n      jump\t// in\n    tag_598:\n        /* \"#utility.yul\":22424:22589   */\n    tag_597:\n        /* \"#utility.yul\":22620:22624   */\n      0x20\n        /* \"#utility.yul\":22612:22618   */\n      dup4\n        /* \"#utility.yul\":22608:22625   */\n      mul\n        /* \"#utility.yul\":22598:22625   */\n      swap3\n      pop\n        /* \"#utility.yul\":22635:22678   */\n      tag_599\n        /* \"#utility.yul\":22671:22677   */\n      dup4\n        /* \"#utility.yul\":22666:22669   */\n      dup6\n        /* \"#utility.yul\":22659:22664   */\n      dup5\n        /* \"#utility.yul\":22635:22678   */\n      tag_348\n      jump\t// in\n    tag_599:\n        /* \"#utility.yul\":22703:22709   */\n      dup3\n        /* \"#utility.yul\":22698:22701   */\n      dup5\n        /* \"#utility.yul\":22694:22710   */\n      add\n        /* \"#utility.yul\":22687:22710   */\n      swap1\n      pop\n        /* \"#utility.yul\":22179:22716   */\n      swap4\n      swap3\n      pop\n      pop\n      pop\n      jump\t// out\n        /* \"#utility.yul\":22722:23225   */\n    tag_120:\n        /* \"#utility.yul\":22903:22907   */\n      0x00\n        /* \"#utility.yul\":22941:22943   */\n      0x40\n        /* \"#utility.yul\":22930:22939   */\n      dup3\n        /* \"#utility.yul\":22926:22944   */\n      add\n        /* \"#utility.yul\":22918:22944   */\n      swap1\n      pop\n        /* \"#utility.yul\":22990:22999   */\n      dup2\n        /* \"#utility.yul\":22984:22988   */\n      dup2\n        /* \"#utility.yul\":22980:23000   */\n      sub\n        /* \"#utility.yul\":22976:22977   */\n      0x00\n        /* \"#utility.yul\":22965:22974   */\n      dup4\n        /* \"#utility.yul\":22961:22978   */\n      add\n        /* \"#utility.yul\":22954:23001   */\n      mstore\n        /* \"#utility.yul\":23018:23136   */\n      tag_601\n        /* \"#utility.yul\":23131:23135   */\n      dup2\n        /* \"#utility.yul\":23122:23128   */\n      dup6\n        /* \"#utility.yul\":23114:23120   */\n      dup8\n        /* \"#utility.yul\":23018:23136   */\n      tag_349\n      jump\t// in\n    tag_601:\n        /* \"#utility.yul\":23010:23136   */\n      swap1\n      pop\n        /* \"#utility.yul\":23146:23218   */\n      tag_602\n        /* \"#utility.yul\":23214:23216   */\n      0x20\n        /* \"#utility.yul\":23203:23212   */\n      dup4\n        /* \"#utility.yul\":23199:23217   */\n      add\n        /* \"#utility.yul\":23190:23196   */\n      dup5\n        /* \"#utility.yul\":23146:23218   */\n      tag_319\n      jump\t// in\n    tag_602:\n        /* \"#utility.yul\":22722:23225   */\n      swap5\n      swap4\n      pop\n      pop\n      pop\n      pop\n      jump\t// out\n        /* \"#utility.yul\":23231:23412   */\n    tag_350:\n        /* \"#utility.yul\":23371:23404   */\n      0x5265656e7472616e637947756172643a207265656e7472616e742063616c6c00\n        /* \"#utility.yul\":23367:23368   */\n      0x00\n        /* \"#utility.yul\":23359:23365   */\n      dup3\n        /* \"#utility.yul\":23355:23369   */\n      add\n        /* \"#utility.yul\":23348:23405   */\n      mstore\n        /* \"#utility.yul\":23231:23412   */\n      pop\n      jump\t// out\n        /* \"#utility.yul\":23418:23784   */\n    tag_351:\n        /* \"#utility.yul\":23560:23563   */\n      0x00\n        /* \"#utility.yul\":23581:23648   */\n      tag_605\n        /* \"#utility.yul\":23645:23647   */\n      0x1f\n        /* \"#utility.yul\":23640:23643   */\n      dup4\n        /* \"#utility.yul\":23581:23648   */\n      tag_330\n      jump\t// in\n    tag_605:\n        /* \"#utility.yul\":23574:23648   */\n      swap2\n      pop\n        /* \"#utility.yul\":23657:23750   */\n      tag_606\n        /* \"#utility.yul\":23746:23749   */\n      dup3\n        /* \"#utility.yul\":23657:23750   */\n      tag_350\n      jump\t// in\n    tag_606:\n        /* \"#utility.yul\":23775:23777   */\n      0x20\n        /* \"#utility.yul\":23770:23773   */\n      dup3\n        /* \"#utility.yul\":23766:23778   */\n      add\n        /* \"#utility.yul\":23759:23778   */\n      swap1\n      pop\n        /* \"#utility.yul\":23418:23784   */\n      swap2\n      swap1\n      pop\n      jump\t// out\n        /* \"#utility.yul\":23790:24209   */\n    tag_130:\n        /* \"#utility.yul\":23956:23960   */\n      0x00\n        /* \"#utility.yul\":23994:23996   */\n      0x20\n        /* \"#utility.yul\":23983:23992   */\n      dup3\n        /* \"#utility.yul\":23979:23997   */\n      add\n        /* \"#utility.yul\":23971:23997   */\n      swap1\n      pop\n        /* \"#utility.yul\":24043:24052   */\n      dup2\n        /* \"#utility.yul\":24037:24041   */\n      dup2\n        /* \"#utility.yul\":24033:24053   */\n      sub\n        /* \"#utility.yul\":24029:24030   */\n      0x00\n        /* \"#utility.yul\":24018:24027   */\n      dup4\n        /* \"#utility.yul\":24014:24031   */\n      add\n        /* \"#utility.yul\":24007:24054   */\n      mstore\n        /* \"#utility.yul\":24071:24202   */\n      tag_608\n        /* \"#utility.yul\":24197:24201   */\n      dup2\n        /* \"#utility.yul\":24071:24202   */\n      tag_351\n      jump\t// in\n    tag_608:\n        /* \"#utility.yul\":24063:24202   */\n      swap1\n      pop\n        /* \"#utility.yul\":23790:24209   */\n      swap2\n      swap1\n      pop\n      jump\t// out\n        /* \"#utility.yul\":24215:24358   */\n    tag_352:\n        /* \"#utility.yul\":24272:24277   */\n      0x00\n        /* \"#utility.yul\":24303:24309   */\n      dup2\n        /* \"#utility.yul\":24297:24310   */\n      mload\n        /* \"#utility.yul\":24288:24310   */\n      swap1\n      pop\n        /* \"#utility.yul\":24319:24352   */\n      tag_610\n        /* \"#utility.yul\":24346:24351   */\n      dup2\n        /* \"#utility.yul\":24319:24352   */\n      tag_309\n      jump\t// in\n    tag_610:\n        /* \"#utility.yul\":24215:24358   */\n      swap3\n      swap2\n      pop\n      pop\n      jump\t// out\n        /* \"#utility.yul\":24364:24715   */\n    tag_145:\n        /* \"#utility.yul\":24434:24440   */\n      0x00\n        /* \"#utility.yul\":24483:24485   */\n      0x20\n        /* \"#utility.yul\":24471:24480   */\n      dup3\n        /* \"#utility.yul\":24462:24469   */\n      dup5\n        /* \"#utility.yul\":24458:24481   */\n      sub\n        /* \"#utility.yul\":24454:24486   */\n      slt\n        /* \"#utility.yul\":24451:24570   */\n      iszero\n      tag_612\n      jumpi\n        /* \"#utility.yul\":24489:24568   */\n      tag_613\n      tag_293\n      jump\t// in\n    tag_613:\n        /* \"#utility.yul\":24451:24570   */\n    tag_612:\n        /* \"#utility.yul\":24609:24610   */\n      0x00\n        /* \"#utility.yul\":24634:24698   */\n      tag_614\n        /* \"#utility.yul\":24690:24697   */\n      dup5\n        /* \"#utility.yul\":24681:24687   */\n      dup3\n        /* \"#utility.yul\":24670:24679   */\n      dup6\n        /* \"#utility.yul\":24666:24688   */\n      add\n        /* \"#utility.yul\":24634:24698   */\n      tag_352\n      jump\t// in\n    tag_614:\n        /* \"#utility.yul\":24624:24698   */\n      swap2\n      pop\n        /* \"#utility.yul\":24580:24708   */\n      pop\n        /* \"#utility.yul\":24364:24715   */\n      swap3\n      swap2\n      pop\n      pop\n      jump\t// out\n        /* \"#utility.yul\":24721:24896   */\n    tag_353:\n        /* \"#utility.yul\":24861:24888   */\n      0x596f7520646f6e277420686f6c64207468697320746f6b656e00000000000000\n        /* \"#utility.yul\":24857:24858   */\n      0x00\n        /* \"#utility.yul\":24849:24855   */\n      dup3\n        /* \"#utility.yul\":24845:24859   */\n      add\n        /* \"#utility.yul\":24838:24889   */\n      mstore\n        /* \"#utility.yul\":24721:24896   */\n      pop\n      jump\t// out\n        /* \"#utility.yul\":24902:25268   */\n    tag_354:\n        /* \"#utility.yul\":25044:25047   */\n      0x00\n        /* \"#utility.yul\":25065:25132   */\n      tag_617\n        /* \"#utility.yul\":25129:25131   */\n      0x19\n        /* \"#utility.yul\":25124:25127   */\n      dup4\n        /* \"#utility.yul\":25065:25132   */\n      tag_330\n      jump\t// in\n    tag_617:\n        /* \"#utility.yul\":25058:25132   */\n      swap2\n      pop\n        /* \"#utility.yul\":25141:25234   */\n      tag_618\n        /* \"#utility.yul\":25230:25233   */\n      dup3\n        /* \"#utility.yul\":25141:25234   */\n      tag_353\n      jump\t// in\n    tag_618:\n        /* \"#utility.yul\":25259:25261   */\n      0x20\n        /* \"#utility.yul\":25254:25257   */\n      dup3\n        /* \"#utility.yul\":25250:25262   */\n      add\n        /* \"#utility.yul\":25243:25262   */\n      swap1\n      pop\n        /* \"#utility.yul\":24902:25268   */\n      swap2\n      swap1\n      pop\n      jump\t// out\n        /* \"#utility.yul\":25274:25693   */\n    tag_148:\n        /* \"#utility.yul\":25440:25444   */\n      0x00\n        /* \"#utility.yul\":25478:25480   */\n      0x20\n        /* \"#utility.yul\":25467:25476   */\n      dup3\n        /* \"#utility.yul\":25463:25481   */\n      add\n        /* \"#utility.yul\":25455:25481   */\n      swap1\n      pop\n        /* \"#utility.yul\":25527:25536   */\n      dup2\n        /* \"#utility.yul\":25521:25525   */\n      dup2\n        /* \"#utility.yul\":25517:25537   */\n      sub\n        /* \"#utility.yul\":25513:25514   */\n      0x00\n        /* \"#utility.yul\":25502:25511   */\n      dup4\n        /* \"#utility.yul\":25498:25515   */\n      add\n        /* \"#utility.yul\":25491:25538   */\n      mstore\n        /* \"#utility.yul\":25555:25686   */\n      tag_620\n        /* \"#utility.yul\":25681:25685   */\n      dup2\n        /* \"#utility.yul\":25555:25686   */\n      tag_354\n      jump\t// in\n    tag_620:\n        /* \"#utility.yul\":25547:25686   */\n      swap1\n      pop\n        /* \"#utility.yul\":25274:25693   */\n      swap2\n      swap1\n      pop\n      jump\t// out\n        /* \"#utility.yul\":25699:26141   */\n    tag_152:\n        /* \"#utility.yul\":25848:25852   */\n      0x00\n        /* \"#utility.yul\":25886:25888   */\n      0x60\n        /* \"#utility.yul\":25875:25884   */\n      dup3\n        /* \"#utility.yul\":25871:25889   */\n      add\n        /* \"#utility.yul\":25863:25889   */\n      swap1\n      pop\n        /* \"#utility.yul\":25899:25970   */\n      tag_622\n        /* \"#utility.yul\":25967:25968   */\n      0x00\n        /* \"#utility.yul\":25956:25965   */\n      dup4\n        /* \"#utility.yul\":25952:25969   */\n      add\n        /* \"#utility.yul\":25943:25949   */\n      dup7\n        /* \"#utility.yul\":25899:25970   */\n      tag_320\n      jump\t// in\n    tag_622:\n        /* \"#utility.yul\":25980:26052   */\n      tag_623\n        /* \"#utility.yul\":26048:26050   */\n      0x20\n        /* \"#utility.yul\":26037:26046   */\n      dup4\n        /* \"#utility.yul\":26033:26051   */\n      add\n        /* \"#utility.yul\":26024:26030   */\n      dup6\n        /* \"#utility.yul\":25980:26052   */\n      tag_320\n      jump\t// in\n    tag_623:\n        /* \"#utility.yul\":26062:26134   */\n      tag_624\n        /* \"#utility.yul\":26130:26132   */\n      0x40\n        /* \"#utility.yul\":26119:26128   */\n      dup4\n        /* \"#utility.yul\":26115:26133   */\n      add\n        /* \"#utility.yul\":26106:26112   */\n      dup5\n        /* \"#utility.yul\":26062:26134   */\n      tag_319\n      jump\t// in\n    tag_624:\n        /* \"#utility.yul\":25699:26141   */\n      swap5\n      swap4\n      pop\n      pop\n      pop\n      pop\n      jump\t// out\n        /* \"#utility.yul\":26147:26540   */\n    tag_160:\n        /* \"#utility.yul\":26300:26304   */\n      0x00\n        /* \"#utility.yul\":26338:26340   */\n      0x20\n        /* \"#utility.yul\":26327:26336   */\n      dup3\n        /* \"#utility.yul\":26323:26341   */\n      add\n        /* \"#utility.yul\":26315:26341   */\n      swap1\n      pop\n        /* \"#utility.yul\":26387:26396   */\n      dup2\n        /* \"#utility.yul\":26381:26385   */\n      dup2\n        /* \"#utility.yul\":26377:26397   */\n      sub\n        /* \"#utility.yul\":26373:26374   */\n      0x00\n        /* \"#utility.yul\":26362:26371   */\n      dup4\n        /* \"#utility.yul\":26358:26375   */\n      add\n        /* \"#utility.yul\":26351:26398   */\n      mstore\n        /* \"#utility.yul\":26415:26533   */\n      tag_626\n        /* \"#utility.yul\":26528:26532   */\n      dup2\n        /* \"#utility.yul\":26519:26525   */\n      dup5\n        /* \"#utility.yul\":26511:26517   */\n      dup7\n        /* \"#utility.yul\":26415:26533   */\n      tag_349\n      jump\t// in\n    tag_626:\n        /* \"#utility.yul\":26407:26533   */\n      swap1\n      pop\n        /* \"#utility.yul\":26147:26540   */\n      swap4\n      swap3\n      pop\n      pop\n      pop\n      jump\t// out\n        /* \"#utility.yul\":26546:26715   */\n    tag_355:\n        /* \"#utility.yul\":26686:26707   */\n      0x496e76616c6964205374616b6520546f6b656e00000000000000000000000000\n        /* \"#utility.yul\":26682:26683   */\n      0x00\n        /* \"#utility.yul\":26674:26680   */\n      dup3\n        /* \"#utility.yul\":26670:26684   */\n      add\n        /* \"#utility.yul\":26663:26708   */\n      mstore\n        /* \"#utility.yul\":26546:26715   */\n      pop\n      jump\t// out\n        /* \"#utility.yul\":26721:27087   */\n    tag_356:\n        /* \"#utility.yul\":26863:26866   */\n      0x00\n        /* \"#utility.yul\":26884:26951   */\n      tag_629\n        /* \"#utility.yul\":26948:26950   */\n      0x13\n        /* \"#utility.yul\":26943:26946   */\n      dup4\n        /* \"#utility.yul\":26884:26951   */\n      tag_330\n      jump\t// in\n    tag_629:\n        /* \"#utility.yul\":26877:26951   */\n      swap2\n      pop\n        /* \"#utility.yul\":26960:27053   */\n      tag_630\n        /* \"#utility.yul\":27049:27052   */\n      dup3\n        /* \"#utility.yul\":26960:27053   */\n      tag_355\n      jump\t// in\n    tag_630:\n        /* \"#utility.yul\":27078:27080   */\n      0x20\n        /* \"#utility.yul\":27073:27076   */\n      dup3\n        /* \"#utility.yul\":27069:27081   */\n      add\n        /* \"#utility.yul\":27062:27081   */\n      swap1\n      pop\n        /* \"#utility.yul\":26721:27087   */\n      swap2\n      swap1\n      pop\n      jump\t// out\n        /* \"#utility.yul\":27093:27512   */\n    tag_172:\n        /* \"#utility.yul\":27259:27263   */\n      0x00\n        /* \"#utility.yul\":27297:27299   */\n      0x20\n        /* \"#utility.yul\":27286:27295   */\n      dup3\n        /* \"#utility.yul\":27282:27300   */\n      add\n        /* \"#utility.yul\":27274:27300   */\n      swap1\n      pop\n        /* \"#utility.yul\":27346:27355   */\n      dup2\n        /* \"#utility.yul\":27340:27344   */\n      dup2\n        /* \"#utility.yul\":27336:27356   */\n      sub\n        /* \"#utility.yul\":27332:27333   */\n      0x00\n        /* \"#utility.yul\":27321:27330   */\n      dup4\n        /* \"#utility.yul\":27317:27334   */\n      add\n        /* \"#utility.yul\":27310:27357   */\n      mstore\n        /* \"#utility.yul\":27374:27505   */\n      tag_632\n        /* \"#utility.yul\":27500:27504   */\n      dup2\n        /* \"#utility.yul\":27374:27505   */\n      tag_356\n      jump\t// in\n    tag_632:\n        /* \"#utility.yul\":27366:27505   */\n      swap1\n      pop\n        /* \"#utility.yul\":27093:27512   */\n      swap2\n      swap1\n      pop\n      jump\t// out\n        /* \"#utility.yul\":27518:27688   */\n    tag_357:\n        /* \"#utility.yul\":27658:27680   */\n      0x496e76616c69642052657761726420546f6b656e000000000000000000000000\n        /* \"#utility.yul\":27654:27655   */\n      0x00\n        /* \"#utility.yul\":27646:27652   */\n      dup3\n        /* \"#utility.yul\":27642:27656   */\n      add\n        /* \"#utility.yul\":27635:27681   */\n      mstore\n        /* \"#utility.yul\":27518:27688   */\n      pop\n      jump\t// out\n        /* \"#utility.yul\":27694:28060   */\n    tag_358:\n        /* \"#utility.yul\":27836:27839   */\n      0x00\n        /* \"#utility.yul\":27857:27924   */\n      tag_635\n        /* \"#utility.yul\":27921:27923   */\n      0x14\n        /* \"#utility.yul\":27916:27919   */\n      dup4\n        /* \"#utility.yul\":27857:27924   */\n      tag_330\n      jump\t// in\n    tag_635:\n        /* \"#utility.yul\":27850:27924   */\n      swap2\n      pop\n        /* \"#utility.yul\":27933:28026   */\n      tag_636\n        /* \"#utility.yul\":28022:28025   */\n      dup3\n        /* \"#utility.yul\":27933:28026   */\n      tag_357\n      jump\t// in\n    tag_636:\n        /* \"#utility.yul\":28051:28053   */\n      0x20\n        /* \"#utility.yul\":28046:28049   */\n      dup3\n        /* \"#utility.yul\":28042:28054   */\n      add\n        /* \"#utility.yul\":28035:28054   */\n      swap1\n      pop\n        /* \"#utility.yul\":27694:28060   */\n      swap2\n      swap1\n      pop\n      jump\t// out\n        /* \"#utility.yul\":28066:28485   */\n    tag_177:\n        /* \"#utility.yul\":28232:28236   */\n      0x00\n        /* \"#utility.yul\":28270:28272   */\n      0x20\n        /* \"#utility.yul\":28259:28268   */\n      dup3\n        /* \"#utility.yul\":28255:28273   */\n      add\n        /* \"#utility.yul\":28247:28273   */\n      swap1\n      pop\n        /* \"#utility.yul\":28319:28328   */\n      dup2\n        /* \"#utility.yul\":28313:28317   */\n      dup2\n        /* \"#utility.yul\":28309:28329   */\n      sub\n        /* \"#utility.yul\":28305:28306   */\n      0x00\n        /* \"#utility.yul\":28294:28303   */\n      dup4\n        /* \"#utility.yul\":28290:28307   */\n      add\n        /* \"#utility.yul\":28283:28330   */\n      mstore\n        /* \"#utility.yul\":28347:28478   */\n      tag_638\n        /* \"#utility.yul\":28473:28477   */\n      dup2\n        /* \"#utility.yul\":28347:28478   */\n      tag_358\n      jump\t// in\n    tag_638:\n        /* \"#utility.yul\":28339:28478   */\n      swap1\n      pop\n        /* \"#utility.yul\":28066:28485   */\n      swap2\n      swap1\n      pop\n      jump\t// out\n        /* \"#utility.yul\":28491:28585   */\n    tag_359:\n        /* \"#utility.yul\":28545:28552   */\n      0x00\n        /* \"#utility.yul\":28574:28579   */\n      dup2\n        /* \"#utility.yul\":28563:28579   */\n      swap1\n      pop\n        /* \"#utility.yul\":28491:28585   */\n      swap2\n      swap1\n      pop\n      jump\t// out\n        /* \"#utility.yul\":28591:28740   */\n    tag_360:\n        /* \"#utility.yul\":28627:28634   */\n      0x00\n        /* \"#utility.yul\":28667:28733   */\n      0xffffffff00000000000000000000000000000000000000000000000000000000\n        /* \"#utility.yul\":28660:28665   */\n      dup3\n        /* \"#utility.yul\":28656:28734   */\n      and\n        /* \"#utility.yul\":28645:28734   */\n      swap1\n      pop\n        /* \"#utility.yul\":28591:28740   */\n      swap2\n      swap1\n      pop\n      jump\t// out\n        /* \"#utility.yul\":28746:28842   */\n    tag_361:\n        /* \"#utility.yul\":28780:28788   */\n      0x00\n        /* \"#utility.yul\":28829:28834   */\n      dup2\n        /* \"#utility.yul\":28824:28827   */\n      0xe0\n        /* \"#utility.yul\":28820:28835   */\n      shl\n        /* \"#utility.yul\":28799:28835   */\n      swap1\n      pop\n        /* \"#utility.yul\":28746:28842   */\n      swap2\n      swap1\n      pop\n      jump\t// out\n        /* \"#utility.yul\":28848:29028   */\n    tag_362:\n        /* \"#utility.yul\":28914:28923   */\n      0x00\n        /* \"#utility.yul\":28947:29022   */\n      tag_643\n        /* \"#utility.yul\":28964:29021   */\n      tag_644\n        /* \"#utility.yul\":28979:29020   */\n      tag_645\n        /* \"#utility.yul\":29014:29019   */\n      dup5\n        /* \"#utility.yul\":28979:29020   */\n      tag_359\n      jump\t// in\n    tag_645:\n        /* \"#utility.yul\":28964:29021   */\n      tag_361\n      jump\t// in\n    tag_644:\n        /* \"#utility.yul\":28947:29022   */\n      tag_360\n      jump\t// in\n    tag_643:\n        /* \"#utility.yul\":28934:29022   */\n      swap1\n      pop\n        /* \"#utility.yul\":28848:29028   */\n      swap2\n      swap1\n      pop\n      jump\t// out\n        /* \"#utility.yul\":29034:29197   */\n    tag_363:\n        /* \"#utility.yul\":29137:29190   */\n      tag_647\n        /* \"#utility.yul\":29184:29189   */\n      dup2\n        /* \"#utility.yul\":29137:29190   */\n      tag_362\n      jump\t// in\n    tag_647:\n        /* \"#utility.yul\":29132:29135   */\n      dup3\n        /* \"#utility.yul\":29125:29191   */\n      mstore\n        /* \"#utility.yul\":29034:29197   */\n      pop\n      pop\n      jump\t// out\n        /* \"#utility.yul\":29203:29457   */\n    tag_181:\n        /* \"#utility.yul\":29312:29316   */\n      0x00\n        /* \"#utility.yul\":29350:29352   */\n      0x20\n        /* \"#utility.yul\":29339:29348   */\n      dup3\n        /* \"#utility.yul\":29335:29353   */\n      add\n        /* \"#utility.yul\":29327:29353   */\n      swap1\n      pop\n        /* \"#utility.yul\":29363:29450   */\n      tag_649\n        /* \"#utility.yul\":29447:29448   */\n      0x00\n        /* \"#utility.yul\":29436:29445   */\n      dup4\n        /* \"#utility.yul\":29432:29449   */\n      add\n        /* \"#utility.yul\":29423:29429   */\n      dup5\n        /* \"#utility.yul\":29363:29450   */\n      tag_363\n      jump\t// in\n    tag_649:\n        /* \"#utility.yul\":29203:29457   */\n      swap3\n      swap2\n      pop\n      pop\n      jump\t// out\n        /* \"#utility.yul\":29463:29579   */\n    tag_364:\n        /* \"#utility.yul\":29533:29554   */\n      tag_651\n        /* \"#utility.yul\":29548:29553   */\n      dup2\n        /* \"#utility.yul\":29533:29554   */\n      tag_321\n      jump\t// in\n    tag_651:\n        /* \"#utility.yul\":29526:29531   */\n      dup2\n        /* \"#utility.yul\":29523:29555   */\n      eq\n        /* \"#utility.yul\":29513:29573   */\n      tag_652\n      jumpi\n        /* \"#utility.yul\":29569:29570   */\n      0x00\n        /* \"#utility.yul\":29566:29567   */\n      dup1\n        /* \"#utility.yul\":29559:29571   */\n      revert\n        /* \"#utility.yul\":29513:29573   */\n    tag_652:\n        /* \"#utility.yul\":29463:29579   */\n      pop\n      jump\t// out\n        /* \"#utility.yul\":29585:29722   */\n    tag_365:\n        /* \"#utility.yul\":29639:29644   */\n      0x00\n        /* \"#utility.yul\":29670:29676   */\n      dup2\n        /* \"#utility.yul\":29664:29677   */\n      mload\n        /* \"#utility.yul\":29655:29677   */\n      swap1\n      pop\n        /* \"#utility.yul\":29686:29716   */\n      tag_654\n        /* \"#utility.yul\":29710:29715   */\n      dup2\n        /* \"#utility.yul\":29686:29716   */\n      tag_364\n      jump\t// in\n    tag_654:\n        /* \"#utility.yul\":29585:29722   */\n      swap3\n      swap2\n      pop\n      pop\n      jump\t// out\n        /* \"#utility.yul\":29728:30073   */\n    tag_185:\n        /* \"#utility.yul\":29795:29801   */\n      0x00\n        /* \"#utility.yul\":29844:29846   */\n      0x20\n        /* \"#utility.yul\":29832:29841   */\n      dup3\n        /* \"#utility.yul\":29823:29830   */\n      dup5\n        /* \"#utility.yul\":29819:29842   */\n      sub\n        /* \"#utility.yul\":29815:29847   */\n      slt\n        /* \"#utility.yul\":29812:29931   */\n      iszero\n      tag_656\n      jumpi\n        /* \"#utility.yul\":29850:29929   */\n      tag_657\n      tag_293\n      jump\t// in\n    tag_657:\n        /* \"#utility.yul\":29812:29931   */\n    tag_656:\n        /* \"#utility.yul\":29970:29971   */\n      0x00\n        /* \"#utility.yul\":29995:30056   */\n      tag_658\n        /* \"#utility.yul\":30048:30055   */\n      dup5\n        /* \"#utility.yul\":30039:30045   */\n      dup3\n        /* \"#utility.yul\":30028:30037   */\n      dup6\n        /* \"#utility.yul\":30024:30046   */\n      add\n        /* \"#utility.yul\":29995:30056   */\n      tag_365\n      jump\t// in\n    tag_658:\n        /* \"#utility.yul\":29985:30056   */\n      swap2\n      pop\n        /* \"#utility.yul\":29941:30066   */\n      pop\n        /* \"#utility.yul\":29728:30073   */\n      swap3\n      swap2\n      pop\n      pop\n      jump\t// out\n        /* \"#utility.yul\":30079:30239   */\n    tag_366:\n        /* \"#utility.yul\":30219:30231   */\n      0x4e6f6e2d65726337323100000000000000000000000000000000000000000000\n        /* \"#utility.yul\":30215:30216   */\n      0x00\n        /* \"#utility.yul\":30207:30213   */\n      dup3\n        /* \"#utility.yul\":30203:30217   */\n      add\n        /* \"#utility.yul\":30196:30232   */\n      mstore\n        /* \"#utility.yul\":30079:30239   */\n      pop\n      jump\t// out\n        /* \"#utility.yul\":30245:30611   */\n    tag_367:\n        /* \"#utility.yul\":30387:30390   */\n      0x00\n        /* \"#utility.yul\":30408:30475   */\n      tag_661\n        /* \"#utility.yul\":30472:30474   */\n      0x0a\n        /* \"#utility.yul\":30467:30470   */\n      dup4\n        /* \"#utility.yul\":30408:30475   */\n      tag_330\n      jump\t// in\n    tag_661:\n        /* \"#utility.yul\":30401:30475   */\n      swap2\n      pop\n        /* \"#utility.yul\":30484:30577   */\n      tag_662\n        /* \"#utility.yul\":30573:30576   */\n      dup3\n        /* \"#utility.yul\":30484:30577   */\n      tag_366\n      jump\t// in\n    tag_662:\n        /* \"#utility.yul\":30602:30604   */\n      0x20\n        /* \"#utility.yul\":30597:30600   */\n      dup3\n        /* \"#utility.yul\":30593:30605   */\n      add\n        /* \"#utility.yul\":30586:30605   */\n      swap1\n      pop\n        /* \"#utility.yul\":30245:30611   */\n      swap2\n      swap1\n      pop\n      jump\t// out\n        /* \"#utility.yul\":30617:31036   */\n    tag_188:\n        /* \"#utility.yul\":30783:30787   */\n      0x00\n        /* \"#utility.yul\":30821:30823   */\n      0x20\n        /* \"#utility.yul\":30810:30819   */\n      dup3\n        /* \"#utility.yul\":30806:30824   */\n      add\n        /* \"#utility.yul\":30798:30824   */\n      swap1\n      pop\n        /* \"#utility.yul\":30870:30879   */\n      dup2\n        /* \"#utility.yul\":30864:30868   */\n      dup2\n        /* \"#utility.yul\":30860:30880   */\n      sub\n        /* \"#utility.yul\":30856:30857   */\n      0x00\n        /* \"#utility.yul\":30845:30854   */\n      dup4\n        /* \"#utility.yul\":30841:30858   */\n      add\n        /* \"#utility.yul\":30834:30881   */\n      mstore\n        /* \"#utility.yul\":30898:31029   */\n      tag_664\n        /* \"#utility.yul\":31024:31028   */\n      dup2\n        /* \"#utility.yul\":30898:31029   */\n      tag_367\n      jump\t// in\n    tag_664:\n        /* \"#utility.yul\":30890:31029   */\n      swap1\n      pop\n        /* \"#utility.yul\":30617:31036   */\n      swap2\n      swap1\n      pop\n      jump\t// out\n        /* \"#utility.yul\":31042:31212   */\n    tag_368:\n        /* \"#utility.yul\":31182:31204   */\n      0x496e76616c6964206c6f636b20706572696f642e000000000000000000000000\n        /* \"#utility.yul\":31178:31179   */\n      0x00\n        /* \"#utility.yul\":31170:31176   */\n      dup3\n        /* \"#utility.yul\":31166:31180   */\n      add\n        /* \"#utility.yul\":31159:31205   */\n      mstore\n        /* \"#utility.yul\":31042:31212   */\n      pop\n      jump\t// out\n        /* \"#utility.yul\":31218:31584   */\n    tag_369:\n        /* \"#utility.yul\":31360:31363   */\n      0x00\n        /* \"#utility.yul\":31381:31448   */\n      tag_667\n        /* \"#utility.yul\":31445:31447   */\n      0x14\n        /* \"#utility.yul\":31440:31443   */\n      dup4\n        /* \"#utility.yul\":31381:31448   */\n      tag_330\n      jump\t// in\n    tag_667:\n        /* \"#utility.yul\":31374:31448   */\n      swap2\n      pop\n        /* \"#utility.yul\":31457:31550   */\n      tag_668\n        /* \"#utility.yul\":31546:31549   */\n      dup3\n        /* \"#utility.yul\":31457:31550   */\n      tag_368\n      jump\t// in\n    tag_668:\n        /* \"#utility.yul\":31575:31577   */\n      0x20\n        /* \"#utility.yul\":31570:31573   */\n      dup3\n        /* \"#utility.yul\":31566:31578   */\n      add\n        /* \"#utility.yul\":31559:31578   */\n      swap1\n      pop\n        /* \"#utility.yul\":31218:31584   */\n      swap2\n      swap1\n      pop\n      jump\t// out\n        /* \"#utility.yul\":31590:32009   */\n    tag_215:\n        /* \"#utility.yul\":31756:31760   */\n      0x00\n        /* \"#utility.yul\":31794:31796   */\n      0x20\n        /* \"#utility.yul\":31783:31792   */\n      dup3\n        /* \"#utility.yul\":31779:31797   */\n      add\n        /* \"#utility.yul\":31771:31797   */\n      swap1\n      pop\n        /* \"#utility.yul\":31843:31852   */\n      dup2\n        /* \"#utility.yul\":31837:31841   */\n      dup2\n        /* \"#utility.yul\":31833:31853   */\n      sub\n        /* \"#utility.yul\":31829:31830   */\n      0x00\n        /* \"#utility.yul\":31818:31827   */\n      dup4\n        /* \"#utility.yul\":31814:31831   */\n      add\n        /* \"#utility.yul\":31807:31854   */\n      mstore\n        /* \"#utility.yul\":31871:32002   */\n      tag_670\n        /* \"#utility.yul\":31997:32001   */\n      dup2\n        /* \"#utility.yul\":31871:32002   */\n      tag_369\n      jump\t// in\n    tag_670:\n        /* \"#utility.yul\":31863:32002   */\n      swap1\n      pop\n        /* \"#utility.yul\":31590:32009   */\n      swap2\n      swap1\n      pop\n      jump\t// out\n        /* \"#utility.yul\":32015:32187   */\n    tag_370:\n        /* \"#utility.yul\":32155:32179   */\n      0x4e6f742061626c6520746f20756e6c6f636b2079657400000000000000000000\n        /* \"#utility.yul\":32151:32152   */\n      0x00\n        /* \"#utility.yul\":32143:32149   */\n      dup3\n        /* \"#utility.yul\":32139:32153   */\n      add\n        /* \"#utility.yul\":32132:32180   */\n      mstore\n        /* \"#utility.yul\":32015:32187   */\n      pop\n      jump\t// out\n        /* \"#utility.yul\":32193:32559   */\n    tag_371:\n        /* \"#utility.yul\":32335:32338   */\n      0x00\n        /* \"#utility.yul\":32356:32423   */\n      tag_673\n        /* \"#utility.yul\":32420:32422   */\n      0x16\n        /* \"#utility.yul\":32415:32418   */\n      dup4\n        /* \"#utility.yul\":32356:32423   */\n      tag_330\n      jump\t// in\n    tag_673:\n        /* \"#utility.yul\":32349:32423   */\n      swap2\n      pop\n        /* \"#utility.yul\":32432:32525   */\n      tag_674\n        /* \"#utility.yul\":32521:32524   */\n      dup3\n        /* \"#utility.yul\":32432:32525   */\n      tag_370\n      jump\t// in\n    tag_674:\n        /* \"#utility.yul\":32550:32552   */\n      0x20\n        /* \"#utility.yul\":32545:32548   */\n      dup3\n        /* \"#utility.yul\":32541:32553   */\n      add\n        /* \"#utility.yul\":32534:32553   */\n      swap1\n      pop\n        /* \"#utility.yul\":32193:32559   */\n      swap2\n      swap1\n      pop\n      jump\t// out\n        /* \"#utility.yul\":32565:32984   */\n    tag_242:\n        /* \"#utility.yul\":32731:32735   */\n      0x00\n        /* \"#utility.yul\":32769:32771   */\n      0x20\n        /* \"#utility.yul\":32758:32767   */\n      dup3\n        /* \"#utility.yul\":32754:32772   */\n      add\n        /* \"#utility.yul\":32746:32772   */\n      swap1\n      pop\n        /* \"#utility.yul\":32818:32827   */\n      dup2\n        /* \"#utility.yul\":32812:32816   */\n      dup2\n        /* \"#utility.yul\":32808:32828   */\n      sub\n        /* \"#utility.yul\":32804:32805   */\n      0x00\n        /* \"#utility.yul\":32793:32802   */\n      dup4\n        /* \"#utility.yul\":32789:32806   */\n      add\n        /* \"#utility.yul\":32782:32829   */\n      mstore\n        /* \"#utility.yul\":32846:32977   */\n      tag_676\n        /* \"#utility.yul\":32972:32976   */\n      dup2\n        /* \"#utility.yul\":32846:32977   */\n      tag_371\n      jump\t// in\n    tag_676:\n        /* \"#utility.yul\":32838:32977   */\n      swap1\n      pop\n        /* \"#utility.yul\":32565:32984   */\n      swap2\n      swap1\n      pop\n      jump\t// out\n        /* \"#utility.yul\":32990:33215   */\n    tag_372:\n        /* \"#utility.yul\":33130:33164   */\n      0x4f776e61626c653a206e6577206f776e657220697320746865207a65726f2061\n        /* \"#utility.yul\":33126:33127   */\n      0x00\n        /* \"#utility.yul\":33118:33124   */\n      dup3\n        /* \"#utility.yul\":33114:33128   */\n      add\n        /* \"#utility.yul\":33107:33165   */\n      mstore\n        /* \"#utility.yul\":33199:33207   */\n      0x6464726573730000000000000000000000000000000000000000000000000000\n        /* \"#utility.yul\":33194:33196   */\n      0x20\n        /* \"#utility.yul\":33186:33192   */\n      dup3\n        /* \"#utility.yul\":33182:33197   */\n      add\n        /* \"#utility.yul\":33175:33208   */\n      mstore\n        /* \"#utility.yul\":32990:33215   */\n      pop\n      jump\t// out\n        /* \"#utility.yul\":33221:33587   */\n    tag_373:\n        /* \"#utility.yul\":33363:33366   */\n      0x00\n        /* \"#utility.yul\":33384:33451   */\n      tag_679\n        /* \"#utility.yul\":33448:33450   */\n      0x26\n        /* \"#utility.yul\":33443:33446   */\n      dup4\n        /* \"#utility.yul\":33384:33451   */\n      tag_330\n      jump\t// in\n    tag_679:\n        /* \"#utility.yul\":33377:33451   */\n      swap2\n      pop\n        /* \"#utility.yul\":33460:33553   */\n      tag_680\n        /* \"#utility.yul\":33549:33552   */\n      dup3\n        /* \"#utility.yul\":33460:33553   */\n      tag_372\n      jump\t// in\n    tag_680:\n        /* \"#utility.yul\":33578:33580   */\n      0x40\n        /* \"#utility.yul\":33573:33576   */\n      dup3\n        /* \"#utility.yul\":33569:33581   */\n      add\n        /* \"#utility.yul\":33562:33581   */\n      swap1\n      pop\n        /* \"#utility.yul\":33221:33587   */\n      swap2\n      swap1\n      pop\n      jump\t// out\n        /* \"#utility.yul\":33593:34012   */\n    tag_271:\n        /* \"#utility.yul\":33759:33763   */\n      0x00\n        /* \"#utility.yul\":33797:33799   */\n      0x20\n        /* \"#utility.yul\":33786:33795   */\n      dup3\n        /* \"#utility.yul\":33782:33800   */\n      add\n        /* \"#utility.yul\":33774:33800   */\n      swap1\n      pop\n        /* \"#utility.yul\":33846:33855   */\n      dup2\n        /* \"#utility.yul\":33840:33844   */\n      dup2\n        /* \"#utility.yul\":33836:33856   */\n      sub\n        /* \"#utility.yul\":33832:33833   */\n      0x00\n        /* \"#utility.yul\":33821:33830   */\n      dup4\n        /* \"#utility.yul\":33817:33834   */\n      add\n        /* \"#utility.yul\":33810:33857   */\n      mstore\n        /* \"#utility.yul\":33874:34005   */\n      tag_682\n        /* \"#utility.yul\":34000:34004   */\n      dup2\n        /* \"#utility.yul\":33874:34005   */\n      tag_373\n      jump\t// in\n    tag_682:\n        /* \"#utility.yul\":33866:34005   */\n      swap1\n      pop\n        /* \"#utility.yul\":33593:34012   */\n      swap2\n      swap1\n      pop\n      jump\t// out\n        /* \"#utility.yul\":34018:34366   */\n    tag_280:\n        /* \"#utility.yul\":34058:34065   */\n      0x00\n        /* \"#utility.yul\":34081:34101   */\n      tag_684\n        /* \"#utility.yul\":34099:34100   */\n      dup3\n        /* \"#utility.yul\":34081:34101   */\n      tag_314\n      jump\t// in\n    tag_684:\n        /* \"#utility.yul\":34076:34101   */\n      swap2\n      pop\n        /* \"#utility.yul\":34115:34135   */\n      tag_685\n        /* \"#utility.yul\":34133:34134   */\n      dup4\n        /* \"#utility.yul\":34115:34135   */\n      tag_314\n      jump\t// in\n    tag_685:\n        /* \"#utility.yul\":34110:34135   */\n      swap3\n      pop\n        /* \"#utility.yul\":34303:34304   */\n      dup2\n        /* \"#utility.yul\":34235:34301   */\n      0xffffffffffffffffffffffffffffffffffffffffffffffffffffffffffffffff\n        /* \"#utility.yul\":34231:34305   */\n      div\n        /* \"#utility.yul\":34228:34229   */\n      dup4\n        /* \"#utility.yul\":34225:34306   */\n      gt\n        /* \"#utility.yul\":34220:34221   */\n      dup3\n        /* \"#utility.yul\":34213:34222   */\n      iszero\n        /* \"#utility.yul\":34206:34223   */\n      iszero\n        /* \"#utility.yul\":34202:34307   */\n      and\n        /* \"#utility.yul\":34199:34330   */\n      iszero\n      tag_686\n      jumpi\n        /* \"#utility.yul\":34310:34328   */\n      tag_687\n      tag_341\n      jump\t// in\n    tag_687:\n        /* \"#utility.yul\":34199:34330   */\n    tag_686:\n        /* \"#utility.yul\":34358:34359   */\n      dup3\n        /* \"#utility.yul\":34355:34356   */\n      dup3\n        /* \"#utility.yul\":34351:34360   */\n      mul\n        /* \"#utility.yul\":34340:34360   */\n      swap1\n      pop\n        /* \"#utility.yul\":34018:34366   */\n      swap3\n      swap2\n      pop\n      pop\n      jump\t// out\n        /* \"#utility.yul\":34372:34552   */\n    tag_374:\n        /* \"#utility.yul\":34420:34497   */\n      0x4e487b7100000000000000000000000000000000000000000000000000000000\n        /* \"#utility.yul\":34417:34418   */\n      0x00\n        /* \"#utility.yul\":34410:34498   */\n      mstore\n        /* \"#utility.yul\":34517:34521   */\n      0x12\n        /* \"#utility.yul\":34514:34515   */\n      0x04\n        /* \"#utility.yul\":34507:34522   */\n      mstore\n        /* \"#utility.yul\":34541:34545   */\n      0x24\n        /* \"#utility.yul\":34538:34539   */\n      0x00\n        /* \"#utility.yul\":34531:34546   */\n      revert\n        /* \"#utility.yul\":34558:34743   */\n    tag_282:\n        /* \"#utility.yul\":34598:34599   */\n      0x00\n        /* \"#utility.yul\":34615:34635   */\n      tag_690\n        /* \"#utility.yul\":34633:34634   */\n      dup3\n        /* \"#utility.yul\":34615:34635   */\n      tag_314\n      jump\t// in\n    tag_690:\n        /* \"#utility.yul\":34610:34635   */\n      swap2\n      pop\n        /* \"#utility.yul\":34649:34669   */\n      tag_691\n        /* \"#utility.yul\":34667:34668   */\n      dup4\n        /* \"#utility.yul\":34649:34669   */\n      tag_314\n      jump\t// in\n    tag_691:\n        /* \"#utility.yul\":34644:34669   */\n      swap3\n      pop\n        /* \"#utility.yul\":34688:34689   */\n      dup3\n        /* \"#utility.yul\":34678:34713   */\n      tag_692\n      jumpi\n        /* \"#utility.yul\":34693:34711   */\n      tag_693\n      tag_374\n      jump\t// in\n    tag_693:\n        /* \"#utility.yul\":34678:34713   */\n    tag_692:\n        /* \"#utility.yul\":34735:34736   */\n      dup3\n        /* \"#utility.yul\":34732:34733   */\n      dup3\n        /* \"#utility.yul\":34728:34737   */\n      div\n        /* \"#utility.yul\":34723:34737   */\n      swap1\n      pop\n        /* \"#utility.yul\":34558:34743   */\n      swap3\n      swap2\n      pop\n      pop\n      jump\t// out\n        /* \"#utility.yul\":34749:34931   */\n    tag_375:\n        /* \"#utility.yul\":34889:34923   */\n      0x4f776e61626c653a2063616c6c6572206973206e6f7420746865206f776e6572\n        /* \"#utility.yul\":34885:34886   */\n      0x00\n        /* \"#utility.yul\":34877:34883   */\n      dup3\n        /* \"#utility.yul\":34873:34887   */\n      add\n        /* \"#utility.yul\":34866:34924   */\n      mstore\n        /* \"#utility.yul\":34749:34931   */\n      pop\n      jump\t// out\n        /* \"#utility.yul\":34937:35303   */\n    tag_376:\n        /* \"#utility.yul\":35079:35082   */\n      0x00\n        /* \"#utility.yul\":35100:35167   */\n      tag_696\n        /* \"#utility.yul\":35164:35166   */\n      0x20\n        /* \"#utility.yul\":35159:35162   */\n      dup4\n        /* \"#utility.yul\":35100:35167   */\n      tag_330\n      jump\t// in\n    tag_696:\n        /* \"#utility.yul\":35093:35167   */\n      swap2\n      pop\n        /* \"#utility.yul\":35176:35269   */\n      tag_697\n        /* \"#utility.yul\":35265:35268   */\n      dup3\n        /* \"#utility.yul\":35176:35269   */\n      tag_375\n      jump\t// in\n    tag_697:\n        /* \"#utility.yul\":35294:35296   */\n      0x20\n        /* \"#utility.yul\":35289:35292   */\n      dup3\n        /* \"#utility.yul\":35285:35297   */\n      add\n        /* \"#utility.yul\":35278:35297   */\n      swap1\n      pop\n        /* \"#utility.yul\":34937:35303   */\n      swap2\n      swap1\n      pop\n      jump\t// out\n        /* \"#utility.yul\":35309:35728   */\n    tag_289:\n        /* \"#utility.yul\":35475:35479   */\n      0x00\n        /* \"#utility.yul\":35513:35515   */\n      0x20\n        /* \"#utility.yul\":35502:35511   */\n      dup3\n        /* \"#utility.yul\":35498:35516   */\n      add\n        /* \"#utility.yul\":35490:35516   */\n      swap1\n      pop\n        /* \"#utility.yul\":35562:35571   */\n      dup2\n        /* \"#utility.yul\":35556:35560   */\n      dup2\n        /* \"#utility.yul\":35552:35572   */\n      sub\n        /* \"#utility.yul\":35548:35549   */\n      0x00\n        /* \"#utility.yul\":35537:35546   */\n      dup4\n        /* \"#utility.yul\":35533:35550   */\n      add\n        /* \"#utility.yul\":35526:35573   */\n      mstore\n        /* \"#utility.yul\":35590:35721   */\n      tag_699\n        /* \"#utility.yul\":35716:35720   */\n      dup2\n        /* \"#utility.yul\":35590:35721   */\n      tag_376\n      jump\t// in\n    tag_699:\n        /* \"#utility.yul\":35582:35721   */\n      swap1\n      pop\n        /* \"#utility.yul\":35309:35728   */\n      swap2\n      swap1\n      pop\n      jump\t// out\n\n    auxdata: 0xa264697066735822122032ad11fc0c6143620b81d530672cbe404d5dfec6032a58ee3676e5973cf54e7064736f6c63430008100033\n}\n",
				"bytecode": {
					"linkReferences": {},
					"object": "60806040523480156200001157600080fd5b50604051620034b9380380620034b98339818101604052810190620000379190620001c6565b620000576200004b620000ba60201b60201c565b620000c260201b60201c565b6001808190555060008211620000a4576040517f08c379a00000000000000000000000000000000000000000000000000000000081526004016200009b906200026e565b60405180910390fd5b8160028190555080600581905550505062000290565b600033905090565b60008060009054906101000a900473ffffffffffffffffffffffffffffffffffffffff169050816000806101000a81548173ffffffffffffffffffffffffffffffffffffffff021916908373ffffffffffffffffffffffffffffffffffffffff1602179055508173ffffffffffffffffffffffffffffffffffffffff168173ffffffffffffffffffffffffffffffffffffffff167f8be0079c531659141344cd1fd0a4f28419497f9722a3daafe3b4186f6b6457e060405160405180910390a35050565b600080fd5b6000819050919050565b620001a0816200018b565b8114620001ac57600080fd5b50565b600081519050620001c08162000195565b92915050565b60008060408385031215620001e057620001df62000186565b5b6000620001f085828601620001af565b92505060206200020385828601620001af565b9150509250929050565b600082825260208201905092915050565b7f496e76616c6964206c6f636b20706572696f6400000000000000000000000000600082015250565b6000620002566013836200020d565b915062000263826200021e565b602082019050919050565b60006020820190508181036000830152620002898162000247565b9050919050565b61321980620002a06000396000f3fe608060405234801561001057600080fd5b50600436106100cf5760003560e01c80638da5cb5b1161008c578063b33068c411610066578063b33068c4146101da578063c69d19231461020a578063e9545b9214610228578063f2fde38b1461025a576100cf565b80638da5cb5b1461016c5780639f3625f01461018a578063b2520a7c146101a6576100cf565b80630520537f146100d45780631902732e146100f057806322b73e081461010c5780633fd8b02f14610128578063715018a614610146578063779972da14610150575b600080fd5b6100ee60048036038101906100e991906120a8565b610276565b005b61010a600480360381019061010591906120a8565b6108c2565b005b6101266004803603810190610121919061237c565b610e7e565b005b61013061124d565b60405161013d9190612432565b60405180910390f35b61014e611253565b005b61016a6004803603810190610165919061244d565b611267565b005b6101746112f3565b6040516101819190612489565b60405180910390f35b6101a4600480360381019061019f91906120a8565b61131c565b005b6101c060048036038101906101bb91906124a4565b611ab3565b6040516101d195949392919061255e565b60405180910390f35b6101f460048036038101906101ef91906125b1565b611b43565b6040516102019190612432565b60405180910390f35b610212611ba1565b60405161021f9190612432565b60405180910390f35b610242600480360381019061023d91906125f1565b611ba7565b6040516102519392919061263f565b60405180910390f35b610274600480360381019061026f9190612676565b611bf1565b005b6102953373ffffffffffffffffffffffffffffffffffffffff16611c74565b156102d5576040517f08c379a00000000000000000000000000000000000000000000000000000000081526004016102cc90612700565b60405180910390fd5b3273ffffffffffffffffffffffffffffffffffffffff163373ffffffffffffffffffffffffffffffffffffffff1614610343576040517f08c379a000000000000000000000000000000000000000000000000000000000815260040161033a9061276c565b60405180910390fd5b600073ffffffffffffffffffffffffffffffffffffffff16600460008373ffffffffffffffffffffffffffffffffffffffff1673ffffffffffffffffffffffffffffffffffffffff16815260200190815260200160002060000160009054906101000a900473ffffffffffffffffffffffffffffffffffffffff1673ffffffffffffffffffffffffffffffffffffffff1603610414576040517f08c379a000000000000000000000000000000000000000000000000000000000815260040161040b906127fe565b60405180910390fd5b6000838390501161045a576040517f08c379a00000000000000000000000000000000000000000000000000000000081526004016104519061286a565b60405180910390fd5b600080600090505b84849050811015610869576000600360008573ffffffffffffffffffffffffffffffffffffffff1673ffffffffffffffffffffffffffffffffffffffff16815260200190815260200160002060008787858181106104c3576104c261288a565b5b9050602002013581526020019081526020016000206040518060a00160405290816000820160009054906101000a900473ffffffffffffffffffffffffffffffffffffffff1673ffffffffffffffffffffffffffffffffffffffff1673ffffffffffffffffffffffffffffffffffffffff16815260200160018201548152602001600282015481526020016003820160009054906101000a900460ff161515151581526020016003820160019054906101000a900473ffffffffffffffffffffffffffffffffffffffff1673ffffffffffffffffffffffffffffffffffffffff1673ffffffffffffffffffffffffffffffffffffffff168152505090503373ffffffffffffffffffffffffffffffffffffffff16816000015173ffffffffffffffffffffffffffffffffffffffff1614610632576040517f08c379a000000000000000000000000000000000000000000000000000000000815260040161062990612905565b60405180910390fd5b4260025482602001516106459190612954565b10610685576040517f08c379a000000000000000000000000000000000000000000000000000000000815260040161067c906129d4565b60405180910390fd5b8060600151156106ca576040517f08c379a00000000000000000000000000000000000000000000000000000000081526004016106c190612a40565b60405180910390fd5b60006106ef8787858181106106e2576106e161288a565b5b9050602002013586611c97565b905060008260400151826107039190612a60565b9050600460008773ffffffffffffffffffffffffffffffffffffffff1673ffffffffffffffffffffffffffffffffffffffff16815260200190815260200160002060000160009054906101000a900473ffffffffffffffffffffffffffffffffffffffff1673ffffffffffffffffffffffffffffffffffffffff166340c10f1933836040518363ffffffff1660e01b81526004016107a2929190612a94565b600060405180830381600087803b1580156107bc57600080fd5b505af11580156107d0573d6000803e3d6000fd5b5050505080856107e09190612954565b945081600360008873ffffffffffffffffffffffffffffffffffffffff1673ffffffffffffffffffffffffffffffffffffffff16815260200190815260200160002060008a8a888181106108375761083661288a565b5b90506020020135815260200190815260200160002060020181905550505050808061086190612abd565b915050610462565b503373ffffffffffffffffffffffffffffffffffffffff167f37826be3c26dbad83731f4b985f22fa9ef86b6d1974cd77208332b7f1f283c0c8585846040516108b493929190612b80565b60405180910390a250505050565b6108e13373ffffffffffffffffffffffffffffffffffffffff16611c74565b15610921576040517f08c379a000000000000000000000000000000000000000000000000000000000815260040161091890612700565b60405180910390fd5b3273ffffffffffffffffffffffffffffffffffffffff163373ffffffffffffffffffffffffffffffffffffffff161461098f576040517f08c379a00000000000000000000000000000000000000000000000000000000081526004016109869061276c565b60405180910390fd5b6002600154036109d4576040517f08c379a00000000000000000000000000000000000000000000000000000000081526004016109cb90612bfe565b60405180910390fd5b6002600181905550600073ffffffffffffffffffffffffffffffffffffffff16600460008373ffffffffffffffffffffffffffffffffffffffff1673ffffffffffffffffffffffffffffffffffffffff16815260200190815260200160002060000160009054906101000a900473ffffffffffffffffffffffffffffffffffffffff1673ffffffffffffffffffffffffffffffffffffffff1603610aad576040517f08c379a0000000000000000000000000000000000000000000000000000000008152600401610aa4906127fe565b60405180910390fd5b60008383905011610af3576040517f08c379a0000000000000000000000000000000000000000000000000000000008152600401610aea9061286a565b60405180910390fd5b60005b83839050811015610e21573373ffffffffffffffffffffffffffffffffffffffff168273ffffffffffffffffffffffffffffffffffffffff16636352211e868685818110610b4757610b4661288a565b5b905060200201356040518263ffffffff1660e01b8152600401610b6a9190612432565b602060405180830381865afa158015610b87573d6000803e3d6000fd5b505050506040513d601f19601f82011682018060405250810190610bab9190612c33565b73ffffffffffffffffffffffffffffffffffffffff1614610c01576040517f08c379a0000000000000000000000000000000000000000000000000000000008152600401610bf890612cac565b60405180910390fd5b8173ffffffffffffffffffffffffffffffffffffffff166323b872dd3330878786818110610c3257610c3161288a565b5b905060200201356040518463ffffffff1660e01b8152600401610c5793929190612ccc565b600060405180830381600087803b158015610c7157600080fd5b505af1158015610c85573d6000803e3d6000fd5b505050506040518060a001604052803373ffffffffffffffffffffffffffffffffffffffff168152602001428152602001600081526020016000151581526020018373ffffffffffffffffffffffffffffffffffffffff16815250600360008473ffffffffffffffffffffffffffffffffffffffff1673ffffffffffffffffffffffffffffffffffffffff1681526020019081526020016000206000868685818110610d3457610d3361288a565b5b90506020020135815260200190815260200160002060008201518160000160006101000a81548173ffffffffffffffffffffffffffffffffffffffff021916908373ffffffffffffffffffffffffffffffffffffffff160217905550602082015181600101556040820151816002015560608201518160030160006101000a81548160ff02191690831515021790555060808201518160030160016101000a81548173ffffffffffffffffffffffffffffffffffffffff021916908373ffffffffffffffffffffffffffffffffffffffff1602179055509050508080610e1990612abd565b915050610af6565b503373ffffffffffffffffffffffffffffffffffffffff167f458be0227bccc9e803dec79bd16767eeaf9925d2ce708eeed7ae1f3621f968f98484604051610e6a929190612d03565b60405180910390a260018081905550505050565b610e86611e75565b60005b835181101561124757600073ffffffffffffffffffffffffffffffffffffffff16848281518110610ebd57610ebc61288a565b5b602002602001015173ffffffffffffffffffffffffffffffffffffffff1603610f1b576040517f08c379a0000000000000000000000000000000000000000000000000000000008152600401610f1290612d73565b60405180910390fd5b600073ffffffffffffffffffffffffffffffffffffffff16838281518110610f4657610f4561288a565b5b602002602001015173ffffffffffffffffffffffffffffffffffffffff1603610fa4576040517f08c379a0000000000000000000000000000000000000000000000000000000008152600401610f9b90612ddf565b60405180910390fd5b838181518110610fb757610fb661288a565b5b602002602001015173ffffffffffffffffffffffffffffffffffffffff166301ffc9a76380ac58cd6040518263ffffffff1660e01b8152600401610ffb9190612e73565b602060405180830381865afa158015611018573d6000803e3d6000fd5b505050506040513d601f19601f8201168201806040525081019061103c9190612eba565b61107b576040517f08c379a000000000000000000000000000000000000000000000000000000000815260040161107290612f33565b60405180910390fd5b82818151811061108e5761108d61288a565b5b6020026020010151600460008684815181106110ad576110ac61288a565b5b602002602001015173ffffffffffffffffffffffffffffffffffffffff1673ffffffffffffffffffffffffffffffffffffffff16815260200190815260200160002060000160006101000a81548173ffffffffffffffffffffffffffffffffffffffff021916908373ffffffffffffffffffffffffffffffffffffffff1602179055508181815181106111435761114261288a565b5b6020026020010151600460008684815181106111625761116161288a565b5b602002602001015173ffffffffffffffffffffffffffffffffffffffff1673ffffffffffffffffffffffffffffffffffffffff168152602001908152602001600020600101819055507f2c1c0be88c4eafc46738f696e4995cb7054319395514b7318cee2831ca4aa8968482815181106111df576111de61288a565b5b60200260200101518483815181106111fa576111f961288a565b5b60200260200101518484815181106112155761121461288a565b5b602002602001015160405161122c93929190612ccc565b60405180910390a1808061123f90612abd565b915050610e89565b50505050565b60025481565b61125b611e75565b6112656000611ef3565b565b61126f611e75565b600081116112b2576040517f08c379a00000000000000000000000000000000000000000000000000000000081526004016112a990612f9f565b60405180910390fd5b806002819055507f8249ec545e68f6f1e1230133ca48c704d831a7f8e635ded80f3dd9e99b09bb2f816040516112e89190612432565b60405180910390a150565b60008060009054906101000a900473ffffffffffffffffffffffffffffffffffffffff16905090565b61133b3373ffffffffffffffffffffffffffffffffffffffff16611c74565b1561137b576040517f08c379a000000000000000000000000000000000000000000000000000000000815260040161137290612700565b60405180910390fd5b3273ffffffffffffffffffffffffffffffffffffffff163373ffffffffffffffffffffffffffffffffffffffff16146113e9576040517f08c379a00000000000000000000000000000000000000000000000000000000081526004016113e09061276c565b60405180910390fd5b60026001540361142e576040517f08c379a000000000000000000000000000000000000000000000000000000000815260040161142590612bfe565b60405180910390fd5b6002600181905550600073ffffffffffffffffffffffffffffffffffffffff16600460008373ffffffffffffffffffffffffffffffffffffffff1673ffffffffffffffffffffffffffffffffffffffff16815260200190815260200160002060000160009054906101000a900473ffffffffffffffffffffffffffffffffffffffff1673ffffffffffffffffffffffffffffffffffffffff1603611507576040517f08c379a00000000000000000000000000000000000000000000000000000000081526004016114fe906127fe565b60405180910390fd5b6000838390501161154d576040517f08c379a00000000000000000000000000000000000000000000000000000000081526004016115449061286a565b60405180910390fd5b60005b83839050811015611a56576000600360008473ffffffffffffffffffffffffffffffffffffffff1673ffffffffffffffffffffffffffffffffffffffff16815260200190815260200160002060008686858181106115b1576115b061288a565b5b9050602002013581526020019081526020016000206040518060a00160405290816000820160009054906101000a900473ffffffffffffffffffffffffffffffffffffffff1673ffffffffffffffffffffffffffffffffffffffff1673ffffffffffffffffffffffffffffffffffffffff16815260200160018201548152602001600282015481526020016003820160009054906101000a900460ff161515151581526020016003820160019054906101000a900473ffffffffffffffffffffffffffffffffffffffff1673ffffffffffffffffffffffffffffffffffffffff1673ffffffffffffffffffffffffffffffffffffffff168152505090503373ffffffffffffffffffffffffffffffffffffffff16816000015173ffffffffffffffffffffffffffffffffffffffff1614611720576040517f08c379a000000000000000000000000000000000000000000000000000000000815260040161171790612905565b60405180910390fd5b4260025482602001516117339190612954565b10611773576040517f08c379a000000000000000000000000000000000000000000000000000000000815260040161176a9061300b565b60405180910390fd5b8060600151156117b8576040517f08c379a00000000000000000000000000000000000000000000000000000000081526004016117af90612a40565b60405180910390fd5b8273ffffffffffffffffffffffffffffffffffffffff166323b872dd30338888878181106117e9576117e861288a565b5b905060200201356040518463ffffffff1660e01b815260040161180e93929190612ccc565b600060405180830381600087803b15801561182857600080fd5b505af115801561183c573d6000803e3d6000fd5b5050505060006118658686858181106118585761185761288a565b5b9050602002013585611c97565b905060008260400151826118799190612a60565b9050600460008673ffffffffffffffffffffffffffffffffffffffff1673ffffffffffffffffffffffffffffffffffffffff16815260200190815260200160002060000160009054906101000a900473ffffffffffffffffffffffffffffffffffffffff1673ffffffffffffffffffffffffffffffffffffffff166340c10f1933836040518363ffffffff1660e01b8152600401611918929190612a94565b600060405180830381600087803b15801561193257600080fd5b505af1158015611946573d6000803e3d6000fd5b5050505081600360008773ffffffffffffffffffffffffffffffffffffffff1673ffffffffffffffffffffffffffffffffffffffff168152602001908152602001600020600089898881811061199f5761199e61288a565b5b905060200201358152602001908152602001600020600201819055506001600360008773ffffffffffffffffffffffffffffffffffffffff1673ffffffffffffffffffffffffffffffffffffffff1681526020019081526020016000206000898988818110611a1157611a1061288a565b5b90506020020135815260200190815260200160002060030160006101000a81548160ff0219169083151502179055505050508080611a4e90612abd565b915050611550565b503373ffffffffffffffffffffffffffffffffffffffff167f5cb48022479b9ac3bfb10a27965dc010acffc9fc1bc9a52f0b18975b944b54ca8484604051611a9f929190612d03565b60405180910390a260018081905550505050565b6003602052816000526040600020602052806000526040600020600091509150508060000160009054906101000a900473ffffffffffffffffffffffffffffffffffffffff16908060010154908060020154908060030160009054906101000a900460ff16908060030160019054906101000a900473ffffffffffffffffffffffffffffffffffffffff16905085565b6000600360008373ffffffffffffffffffffffffffffffffffffffff1673ffffffffffffffffffffffffffffffffffffffff168152602001908152602001600020600084815260200190815260200160002060020154905092915050565b60055481565b60046020528060005260406000206000915090508060000160009054906101000a900473ffffffffffffffffffffffffffffffffffffffff16908060010154908060020154905083565b611bf9611e75565b600073ffffffffffffffffffffffffffffffffffffffff168173ffffffffffffffffffffffffffffffffffffffff1603611c68576040517f08c379a0000000000000000000000000000000000000000000000000000000008152600401611c5f9061309d565b60405180910390fd5b611c7181611ef3565b50565b6000808273ffffffffffffffffffffffffffffffffffffffff163b119050919050565b600080600360008473ffffffffffffffffffffffffffffffffffffffff1673ffffffffffffffffffffffffffffffffffffffff16815260200190815260200160002060008581526020019081526020016000206040518060a00160405290816000820160009054906101000a900473ffffffffffffffffffffffffffffffffffffffff1673ffffffffffffffffffffffffffffffffffffffff1673ffffffffffffffffffffffffffffffffffffffff16815260200160018201548152602001600282015481526020016003820160009054906101000a900460ff161515151581526020016003820160019054906101000a900473ffffffffffffffffffffffffffffffffffffffff1673ffffffffffffffffffffffffffffffffffffffff1673ffffffffffffffffffffffffffffffffffffffff168152505090506000816020015142611de49190612a60565b90506000600254821015611dfe5760009350505050611e6f565b60055460025483611e0f9190612a60565b600460008873ffffffffffffffffffffffffffffffffffffffff1673ffffffffffffffffffffffffffffffffffffffff16815260200190815260200160002060010154611e5c91906130bd565b611e669190613146565b90508093505050505b92915050565b611e7d611fb7565b73ffffffffffffffffffffffffffffffffffffffff16611e9b6112f3565b73ffffffffffffffffffffffffffffffffffffffff1614611ef1576040517f08c379a0000000000000000000000000000000000000000000000000000000008152600401611ee8906131c3565b60405180910390fd5b565b60008060009054906101000a900473ffffffffffffffffffffffffffffffffffffffff169050816000806101000a81548173ffffffffffffffffffffffffffffffffffffffff021916908373ffffffffffffffffffffffffffffffffffffffff1602179055508173ffffffffffffffffffffffffffffffffffffffff168173ffffffffffffffffffffffffffffffffffffffff167f8be0079c531659141344cd1fd0a4f28419497f9722a3daafe3b4186f6b6457e060405160405180910390a35050565b600033905090565b6000604051905090565b600080fd5b600080fd5b600080fd5b600080fd5b600080fd5b60008083601f840112611ff857611ff7611fd3565b5b8235905067ffffffffffffffff81111561201557612014611fd8565b5b60208301915083602082028301111561203157612030611fdd565b5b9250929050565b600073ffffffffffffffffffffffffffffffffffffffff82169050919050565b600061206382612038565b9050919050565b600061207582612058565b9050919050565b6120858161206a565b811461209057600080fd5b50565b6000813590506120a28161207c565b92915050565b6000806000604084860312156120c1576120c0611fc9565b5b600084013567ffffffffffffffff8111156120df576120de611fce565b5b6120eb86828701611fe2565b935093505060206120fe86828701612093565b9150509250925092565b6000601f19601f8301169050919050565b7f4e487b7100000000000000000000000000000000000000000000000000000000600052604160045260246000fd5b61215182612108565b810181811067ffffffffffffffff821117156121705761216f612119565b5b80604052505050565b6000612183611fbf565b905061218f8282612148565b919050565b600067ffffffffffffffff8211156121af576121ae612119565b5b602082029050602081019050919050565b6121c981612058565b81146121d457600080fd5b50565b6000813590506121e6816121c0565b92915050565b60006121ff6121fa84612194565b612179565b9050808382526020820190506020840283018581111561222257612221611fdd565b5b835b8181101561224b578061223788826121d7565b845260208401935050602081019050612224565b5050509392505050565b600082601f83011261226a57612269611fd3565b5b813561227a8482602086016121ec565b91505092915050565b600067ffffffffffffffff82111561229e5761229d612119565b5b602082029050602081019050919050565b6000819050919050565b6122c2816122af565b81146122cd57600080fd5b50565b6000813590506122df816122b9565b92915050565b60006122f86122f384612283565b612179565b9050808382526020820190506020840283018581111561231b5761231a611fdd565b5b835b81811015612344578061233088826122d0565b84526020840193505060208101905061231d565b5050509392505050565b600082601f83011261236357612362611fd3565b5b81356123738482602086016122e5565b91505092915050565b60008060006060848603121561239557612394611fc9565b5b600084013567ffffffffffffffff8111156123b3576123b2611fce565b5b6123bf86828701612255565b935050602084013567ffffffffffffffff8111156123e0576123df611fce565b5b6123ec86828701612255565b925050604084013567ffffffffffffffff81111561240d5761240c611fce565b5b6124198682870161234e565b9150509250925092565b61242c816122af565b82525050565b60006020820190506124476000830184612423565b92915050565b60006020828403121561246357612462611fc9565b5b6000612471848285016122d0565b91505092915050565b61248381612058565b82525050565b600060208201905061249e600083018461247a565b92915050565b600080604083850312156124bb576124ba611fc9565b5b60006124c985828601612093565b92505060206124da858286016122d0565b9150509250929050565b60008115159050919050565b6124f9816124e4565b82525050565b6000819050919050565b600061252461251f61251a84612038565b6124ff565b612038565b9050919050565b600061253682612509565b9050919050565b60006125488261252b565b9050919050565b6125588161253d565b82525050565b600060a082019050612573600083018861247a565b6125806020830187612423565b61258d6040830186612423565b61259a60608301856124f0565b6125a7608083018461254f565b9695505050505050565b600080604083850312156125c8576125c7611fc9565b5b60006125d6858286016122d0565b92505060206125e785828601612093565b9150509250929050565b60006020828403121561260757612606611fc9565b5b600061261584828501612093565b91505092915050565b60006126298261252b565b9050919050565b6126398161261e565b82525050565b60006060820190506126546000830186612630565b6126616020830185612423565b61266e6040830184612423565b949350505050565b60006020828403121561268c5761268b611fc9565b5b600061269a848285016121d7565b91505092915050565b600082825260208201905092915050565b7f436f6e7472616374206e6f7420616c6c6f776564000000000000000000000000600082015250565b60006126ea6014836126a3565b91506126f5826126b4565b602082019050919050565b60006020820190508181036000830152612719816126dd565b9050919050565b7f50726f787920636f6e7472616374206e6f7420616c6c6f776564000000000000600082015250565b6000612756601a836126a3565b915061276182612720565b602082019050919050565b6000602082019050818103600083015261278581612749565b9050919050565b7f5374616b696e673a20526567697374657220636f6c6c656374696f6e2062792060008201527f6164645374616b696e674e667473000000000000000000000000000000000000602082015250565b60006127e8602e836126a3565b91506127f38261278c565b604082019050919050565b60006020820190508181036000830152612817816127db565b9050919050565b7f4e6f20746f6b656e730000000000000000000000000000000000000000000000600082015250565b60006128546009836126a3565b915061285f8261281e565b602082019050919050565b6000602082019050818103600083015261288381612847565b9050919050565b7f4e487b7100000000000000000000000000000000000000000000000000000000600052603260045260246000fd5b7f4e6f74206120746f6b656e206f776e6572000000000000000000000000000000600082015250565b60006128ef6011836126a3565b91506128fa826128b9565b602082019050919050565b6000602082019050818103600083015261291e816128e2565b9050919050565b7f4e487b7100000000000000000000000000000000000000000000000000000000600052601160045260246000fd5b600061295f826122af565b915061296a836122af565b925082820190508082111561298257612981612925565b5b92915050565b7f4e6f742061626c6520746f20636c61696d207965740000000000000000000000600082015250565b60006129be6015836126a3565b91506129c982612988565b602082019050919050565b600060208201905081810360008301526129ed816129b1565b9050919050565b7f416c726561647920756e6c6f636b656400000000000000000000000000000000600082015250565b6000612a2a6010836126a3565b9150612a35826129f4565b602082019050919050565b60006020820190508181036000830152612a5981612a1d565b9050919050565b6000612a6b826122af565b9150612a76836122af565b9250828203905081811115612a8e57612a8d612925565b5b92915050565b6000604082019050612aa9600083018561247a565b612ab66020830184612423565b9392505050565b6000612ac8826122af565b91507fffffffffffffffffffffffffffffffffffffffffffffffffffffffffffffffff8203612afa57612af9612925565b5b600182019050919050565b600082825260208201905092915050565b600080fd5b82818337505050565b6000612b308385612b05565b93507f07ffffffffffffffffffffffffffffffffffffffffffffffffffffffffffffff831115612b6357612b62612b16565b5b602083029250612b74838584612b1b565b82840190509392505050565b60006040820190508181036000830152612b9b818587612b24565b9050612baa6020830184612423565b949350505050565b7f5265656e7472616e637947756172643a207265656e7472616e742063616c6c00600082015250565b6000612be8601f836126a3565b9150612bf382612bb2565b602082019050919050565b60006020820190508181036000830152612c1781612bdb565b9050919050565b600081519050612c2d816121c0565b92915050565b600060208284031215612c4957612c48611fc9565b5b6000612c5784828501612c1e565b91505092915050565b7f596f7520646f6e277420686f6c64207468697320746f6b656e00000000000000600082015250565b6000612c966019836126a3565b9150612ca182612c60565b602082019050919050565b60006020820190508181036000830152612cc581612c89565b9050919050565b6000606082019050612ce1600083018661247a565b612cee602083018561247a565b612cfb6040830184612423565b949350505050565b60006020820190508181036000830152612d1e818486612b24565b90509392505050565b7f496e76616c6964205374616b6520546f6b656e00000000000000000000000000600082015250565b6000612d5d6013836126a3565b9150612d6882612d27565b602082019050919050565b60006020820190508181036000830152612d8c81612d50565b9050919050565b7f496e76616c69642052657761726420546f6b656e000000000000000000000000600082015250565b6000612dc96014836126a3565b9150612dd482612d93565b602082019050919050565b60006020820190508181036000830152612df881612dbc565b9050919050565b6000819050919050565b60007fffffffff0000000000000000000000000000000000000000000000000000000082169050919050565b60008160e01b9050919050565b6000612e5d612e58612e5384612dff565b612e35565b612e09565b9050919050565b612e6d81612e42565b82525050565b6000602082019050612e886000830184612e64565b92915050565b612e97816124e4565b8114612ea257600080fd5b50565b600081519050612eb481612e8e565b92915050565b600060208284031215612ed057612ecf611fc9565b5b6000612ede84828501612ea5565b91505092915050565b7f4e6f6e2d65726337323100000000000000000000000000000000000000000000600082015250565b6000612f1d600a836126a3565b9150612f2882612ee7565b602082019050919050565b60006020820190508181036000830152612f4c81612f10565b9050919050565b7f496e76616c6964206c6f636b20706572696f642e000000000000000000000000600082015250565b6000612f896014836126a3565b9150612f9482612f53565b602082019050919050565b60006020820190508181036000830152612fb881612f7c565b9050919050565b7f4e6f742061626c6520746f20756e6c6f636b2079657400000000000000000000600082015250565b6000612ff56016836126a3565b915061300082612fbf565b602082019050919050565b6000602082019050818103600083015261302481612fe8565b9050919050565b7f4f776e61626c653a206e6577206f776e657220697320746865207a65726f206160008201527f6464726573730000000000000000000000000000000000000000000000000000602082015250565b60006130876026836126a3565b91506130928261302b565b604082019050919050565b600060208201905081810360008301526130b68161307a565b9050919050565b60006130c8826122af565b91506130d3836122af565b9250817fffffffffffffffffffffffffffffffffffffffffffffffffffffffffffffffff048311821515161561310c5761310b612925565b5b828202905092915050565b7f4e487b7100000000000000000000000000000000000000000000000000000000600052601260045260246000fd5b6000613151826122af565b915061315c836122af565b92508261316c5761316b613117565b5b828204905092915050565b7f4f776e61626c653a2063616c6c6572206973206e6f7420746865206f776e6572600082015250565b60006131ad6020836126a3565b91506131b882613177565b602082019050919050565b600060208201905081810360008301526131dc816131a0565b905091905056fea264697066735822122032ad11fc0c6143620b81d530672cbe404d5dfec6032a58ee3676e5973cf54e7064736f6c63430008100033",
					"opcodes": "PUSH1 0x80 PUSH1 0x40 MSTORE CALLVALUE DUP1 ISZERO PUSH3 0x11 JUMPI PUSH1 0x0 DUP1 REVERT JUMPDEST POP PUSH1 0x40 MLOAD PUSH3 0x34B9 CODESIZE SUB DUP1 PUSH3 0x34B9 DUP4 CODECOPY DUP2 DUP2 ADD PUSH1 0x40 MSTORE DUP2 ADD SWAP1 PUSH3 0x37 SWAP2 SWAP1 PUSH3 0x1C6 JUMP JUMPDEST PUSH3 0x57 PUSH3 0x4B PUSH3 0xBA PUSH1 0x20 SHL PUSH1 0x20 SHR JUMP JUMPDEST PUSH3 0xC2 PUSH1 0x20 SHL PUSH1 0x20 SHR JUMP JUMPDEST PUSH1 0x1 DUP1 DUP2 SWAP1 SSTORE POP PUSH1 0x0 DUP3 GT PUSH3 0xA4 JUMPI PUSH1 0x40 MLOAD PUSH32 0x8C379A000000000000000000000000000000000000000000000000000000000 DUP2 MSTORE PUSH1 0x4 ADD PUSH3 0x9B SWAP1 PUSH3 0x26E JUMP JUMPDEST PUSH1 0x40 MLOAD DUP1 SWAP2 SUB SWAP1 REVERT JUMPDEST DUP2 PUSH1 0x2 DUP2 SWAP1 SSTORE POP DUP1 PUSH1 0x5 DUP2 SWAP1 SSTORE POP POP POP PUSH3 0x290 JUMP JUMPDEST PUSH1 0x0 CALLER SWAP1 POP SWAP1 JUMP JUMPDEST PUSH1 0x0 DUP1 PUSH1 0x0 SWAP1 SLOAD SWAP1 PUSH2 0x100 EXP SWAP1 DIV PUSH20 0xFFFFFFFFFFFFFFFFFFFFFFFFFFFFFFFFFFFFFFFF AND SWAP1 POP DUP2 PUSH1 0x0 DUP1 PUSH2 0x100 EXP DUP2 SLOAD DUP2 PUSH20 0xFFFFFFFFFFFFFFFFFFFFFFFFFFFFFFFFFFFFFFFF MUL NOT AND SWAP1 DUP4 PUSH20 0xFFFFFFFFFFFFFFFFFFFFFFFFFFFFFFFFFFFFFFFF AND MUL OR SWAP1 SSTORE POP DUP2 PUSH20 0xFFFFFFFFFFFFFFFFFFFFFFFFFFFFFFFFFFFFFFFF AND DUP2 PUSH20 0xFFFFFFFFFFFFFFFFFFFFFFFFFFFFFFFFFFFFFFFF AND PUSH32 0x8BE0079C531659141344CD1FD0A4F28419497F9722A3DAAFE3B4186F6B6457E0 PUSH1 0x40 MLOAD PUSH1 0x40 MLOAD DUP1 SWAP2 SUB SWAP1 LOG3 POP POP JUMP JUMPDEST PUSH1 0x0 DUP1 REVERT JUMPDEST PUSH1 0x0 DUP2 SWAP1 POP SWAP2 SWAP1 POP JUMP JUMPDEST PUSH3 0x1A0 DUP2 PUSH3 0x18B JUMP JUMPDEST DUP2 EQ PUSH3 0x1AC JUMPI PUSH1 0x0 DUP1 REVERT JUMPDEST POP JUMP JUMPDEST PUSH1 0x0 DUP2 MLOAD SWAP1 POP PUSH3 0x1C0 DUP2 PUSH3 0x195 JUMP JUMPDEST SWAP3 SWAP2 POP POP JUMP JUMPDEST PUSH1 0x0 DUP1 PUSH1 0x40 DUP4 DUP6 SUB SLT ISZERO PUSH3 0x1E0 JUMPI PUSH3 0x1DF PUSH3 0x186 JUMP JUMPDEST JUMPDEST PUSH1 0x0 PUSH3 0x1F0 DUP6 DUP3 DUP7 ADD PUSH3 0x1AF JUMP JUMPDEST SWAP3 POP POP PUSH1 0x20 PUSH3 0x203 DUP6 DUP3 DUP7 ADD PUSH3 0x1AF JUMP JUMPDEST SWAP2 POP POP SWAP3 POP SWAP3 SWAP1 POP JUMP JUMPDEST PUSH1 0x0 DUP3 DUP3 MSTORE PUSH1 0x20 DUP3 ADD SWAP1 POP SWAP3 SWAP2 POP POP JUMP JUMPDEST PUSH32 0x496E76616C6964206C6F636B20706572696F6400000000000000000000000000 PUSH1 0x0 DUP3 ADD MSTORE POP JUMP JUMPDEST PUSH1 0x0 PUSH3 0x256 PUSH1 0x13 DUP4 PUSH3 0x20D JUMP JUMPDEST SWAP2 POP PUSH3 0x263 DUP3 PUSH3 0x21E JUMP JUMPDEST PUSH1 0x20 DUP3 ADD SWAP1 POP SWAP2 SWAP1 POP JUMP JUMPDEST PUSH1 0x0 PUSH1 0x20 DUP3 ADD SWAP1 POP DUP2 DUP2 SUB PUSH1 0x0 DUP4 ADD MSTORE PUSH3 0x289 DUP2 PUSH3 0x247 JUMP JUMPDEST SWAP1 POP SWAP2 SWAP1 POP JUMP JUMPDEST PUSH2 0x3219 DUP1 PUSH3 0x2A0 PUSH1 0x0 CODECOPY PUSH1 0x0 RETURN INVALID PUSH1 0x80 PUSH1 0x40 MSTORE CALLVALUE DUP1 ISZERO PUSH2 0x10 JUMPI PUSH1 0x0 DUP1 REVERT JUMPDEST POP PUSH1 0x4 CALLDATASIZE LT PUSH2 0xCF JUMPI PUSH1 0x0 CALLDATALOAD PUSH1 0xE0 SHR DUP1 PUSH4 0x8DA5CB5B GT PUSH2 0x8C JUMPI DUP1 PUSH4 0xB33068C4 GT PUSH2 0x66 JUMPI DUP1 PUSH4 0xB33068C4 EQ PUSH2 0x1DA JUMPI DUP1 PUSH4 0xC69D1923 EQ PUSH2 0x20A JUMPI DUP1 PUSH4 0xE9545B92 EQ PUSH2 0x228 JUMPI DUP1 PUSH4 0xF2FDE38B EQ PUSH2 0x25A JUMPI PUSH2 0xCF JUMP JUMPDEST DUP1 PUSH4 0x8DA5CB5B EQ PUSH2 0x16C JUMPI DUP1 PUSH4 0x9F3625F0 EQ PUSH2 0x18A JUMPI DUP1 PUSH4 0xB2520A7C EQ PUSH2 0x1A6 JUMPI PUSH2 0xCF JUMP JUMPDEST DUP1 PUSH4 0x520537F EQ PUSH2 0xD4 JUMPI DUP1 PUSH4 0x1902732E EQ PUSH2 0xF0 JUMPI DUP1 PUSH4 0x22B73E08 EQ PUSH2 0x10C JUMPI DUP1 PUSH4 0x3FD8B02F EQ PUSH2 0x128 JUMPI DUP1 PUSH4 0x715018A6 EQ PUSH2 0x146 JUMPI DUP1 PUSH4 0x779972DA EQ PUSH2 0x150 JUMPI JUMPDEST PUSH1 0x0 DUP1 REVERT JUMPDEST PUSH2 0xEE PUSH1 0x4 DUP1 CALLDATASIZE SUB DUP2 ADD SWAP1 PUSH2 0xE9 SWAP2 SWAP1 PUSH2 0x20A8 JUMP JUMPDEST PUSH2 0x276 JUMP JUMPDEST STOP JUMPDEST PUSH2 0x10A PUSH1 0x4 DUP1 CALLDATASIZE SUB DUP2 ADD SWAP1 PUSH2 0x105 SWAP2 SWAP1 PUSH2 0x20A8 JUMP JUMPDEST PUSH2 0x8C2 JUMP JUMPDEST STOP JUMPDEST PUSH2 0x126 PUSH1 0x4 DUP1 CALLDATASIZE SUB DUP2 ADD SWAP1 PUSH2 0x121 SWAP2 SWAP1 PUSH2 0x237C JUMP JUMPDEST PUSH2 0xE7E JUMP JUMPDEST STOP JUMPDEST PUSH2 0x130 PUSH2 0x124D JUMP JUMPDEST PUSH1 0x40 MLOAD PUSH2 0x13D SWAP2 SWAP1 PUSH2 0x2432 JUMP JUMPDEST PUSH1 0x40 MLOAD DUP1 SWAP2 SUB SWAP1 RETURN JUMPDEST PUSH2 0x14E PUSH2 0x1253 JUMP JUMPDEST STOP JUMPDEST PUSH2 0x16A PUSH1 0x4 DUP1 CALLDATASIZE SUB DUP2 ADD SWAP1 PUSH2 0x165 SWAP2 SWAP1 PUSH2 0x244D JUMP JUMPDEST PUSH2 0x1267 JUMP JUMPDEST STOP JUMPDEST PUSH2 0x174 PUSH2 0x12F3 JUMP JUMPDEST PUSH1 0x40 MLOAD PUSH2 0x181 SWAP2 SWAP1 PUSH2 0x2489 JUMP JUMPDEST PUSH1 0x40 MLOAD DUP1 SWAP2 SUB SWAP1 RETURN JUMPDEST PUSH2 0x1A4 PUSH1 0x4 DUP1 CALLDATASIZE SUB DUP2 ADD SWAP1 PUSH2 0x19F SWAP2 SWAP1 PUSH2 0x20A8 JUMP JUMPDEST PUSH2 0x131C JUMP JUMPDEST STOP JUMPDEST PUSH2 0x1C0 PUSH1 0x4 DUP1 CALLDATASIZE SUB DUP2 ADD SWAP1 PUSH2 0x1BB SWAP2 SWAP1 PUSH2 0x24A4 JUMP JUMPDEST PUSH2 0x1AB3 JUMP JUMPDEST PUSH1 0x40 MLOAD PUSH2 0x1D1 SWAP6 SWAP5 SWAP4 SWAP3 SWAP2 SWAP1 PUSH2 0x255E JUMP JUMPDEST PUSH1 0x40 MLOAD DUP1 SWAP2 SUB SWAP1 RETURN JUMPDEST PUSH2 0x1F4 PUSH1 0x4 DUP1 CALLDATASIZE SUB DUP2 ADD SWAP1 PUSH2 0x1EF SWAP2 SWAP1 PUSH2 0x25B1 JUMP JUMPDEST PUSH2 0x1B43 JUMP JUMPDEST PUSH1 0x40 MLOAD PUSH2 0x201 SWAP2 SWAP1 PUSH2 0x2432 JUMP JUMPDEST PUSH1 0x40 MLOAD DUP1 SWAP2 SUB SWAP1 RETURN JUMPDEST PUSH2 0x212 PUSH2 0x1BA1 JUMP JUMPDEST PUSH1 0x40 MLOAD PUSH2 0x21F SWAP2 SWAP1 PUSH2 0x2432 JUMP JUMPDEST PUSH1 0x40 MLOAD DUP1 SWAP2 SUB SWAP1 RETURN JUMPDEST PUSH2 0x242 PUSH1 0x4 DUP1 CALLDATASIZE SUB DUP2 ADD SWAP1 PUSH2 0x23D SWAP2 SWAP1 PUSH2 0x25F1 JUMP JUMPDEST PUSH2 0x1BA7 JUMP JUMPDEST PUSH1 0x40 MLOAD PUSH2 0x251 SWAP4 SWAP3 SWAP2 SWAP1 PUSH2 0x263F JUMP JUMPDEST PUSH1 0x40 MLOAD DUP1 SWAP2 SUB SWAP1 RETURN JUMPDEST PUSH2 0x274 PUSH1 0x4 DUP1 CALLDATASIZE SUB DUP2 ADD SWAP1 PUSH2 0x26F SWAP2 SWAP1 PUSH2 0x2676 JUMP JUMPDEST PUSH2 0x1BF1 JUMP JUMPDEST STOP JUMPDEST PUSH2 0x295 CALLER PUSH20 0xFFFFFFFFFFFFFFFFFFFFFFFFFFFFFFFFFFFFFFFF AND PUSH2 0x1C74 JUMP JUMPDEST ISZERO PUSH2 0x2D5 JUMPI PUSH1 0x40 MLOAD PUSH32 0x8C379A000000000000000000000000000000000000000000000000000000000 DUP2 MSTORE PUSH1 0x4 ADD PUSH2 0x2CC SWAP1 PUSH2 0x2700 JUMP JUMPDEST PUSH1 0x40 MLOAD DUP1 SWAP2 SUB SWAP1 REVERT JUMPDEST ORIGIN PUSH20 0xFFFFFFFFFFFFFFFFFFFFFFFFFFFFFFFFFFFFFFFF AND CALLER PUSH20 0xFFFFFFFFFFFFFFFFFFFFFFFFFFFFFFFFFFFFFFFF AND EQ PUSH2 0x343 JUMPI PUSH1 0x40 MLOAD PUSH32 0x8C379A000000000000000000000000000000000000000000000000000000000 DUP2 MSTORE PUSH1 0x4 ADD PUSH2 0x33A SWAP1 PUSH2 0x276C JUMP JUMPDEST PUSH1 0x40 MLOAD DUP1 SWAP2 SUB SWAP1 REVERT JUMPDEST PUSH1 0x0 PUSH20 0xFFFFFFFFFFFFFFFFFFFFFFFFFFFFFFFFFFFFFFFF AND PUSH1 0x4 PUSH1 0x0 DUP4 PUSH20 0xFFFFFFFFFFFFFFFFFFFFFFFFFFFFFFFFFFFFFFFF AND PUSH20 0xFFFFFFFFFFFFFFFFFFFFFFFFFFFFFFFFFFFFFFFF AND DUP2 MSTORE PUSH1 0x20 ADD SWAP1 DUP2 MSTORE PUSH1 0x20 ADD PUSH1 0x0 KECCAK256 PUSH1 0x0 ADD PUSH1 0x0 SWAP1 SLOAD SWAP1 PUSH2 0x100 EXP SWAP1 DIV PUSH20 0xFFFFFFFFFFFFFFFFFFFFFFFFFFFFFFFFFFFFFFFF AND PUSH20 0xFFFFFFFFFFFFFFFFFFFFFFFFFFFFFFFFFFFFFFFF AND SUB PUSH2 0x414 JUMPI PUSH1 0x40 MLOAD PUSH32 0x8C379A000000000000000000000000000000000000000000000000000000000 DUP2 MSTORE PUSH1 0x4 ADD PUSH2 0x40B SWAP1 PUSH2 0x27FE JUMP JUMPDEST PUSH1 0x40 MLOAD DUP1 SWAP2 SUB SWAP1 REVERT JUMPDEST PUSH1 0x0 DUP4 DUP4 SWAP1 POP GT PUSH2 0x45A JUMPI PUSH1 0x40 MLOAD PUSH32 0x8C379A000000000000000000000000000000000000000000000000000000000 DUP2 MSTORE PUSH1 0x4 ADD PUSH2 0x451 SWAP1 PUSH2 0x286A JUMP JUMPDEST PUSH1 0x40 MLOAD DUP1 SWAP2 SUB SWAP1 REVERT JUMPDEST PUSH1 0x0 DUP1 PUSH1 0x0 SWAP1 POP JUMPDEST DUP5 DUP5 SWAP1 POP DUP2 LT ISZERO PUSH2 0x869 JUMPI PUSH1 0x0 PUSH1 0x3 PUSH1 0x0 DUP6 PUSH20 0xFFFFFFFFFFFFFFFFFFFFFFFFFFFFFFFFFFFFFFFF AND PUSH20 0xFFFFFFFFFFFFFFFFFFFFFFFFFFFFFFFFFFFFFFFF AND DUP2 MSTORE PUSH1 0x20 ADD SWAP1 DUP2 MSTORE PUSH1 0x20 ADD PUSH1 0x0 KECCAK256 PUSH1 0x0 DUP8 DUP8 DUP6 DUP2 DUP2 LT PUSH2 0x4C3 JUMPI PUSH2 0x4C2 PUSH2 0x288A JUMP JUMPDEST JUMPDEST SWAP1 POP PUSH1 0x20 MUL ADD CALLDATALOAD DUP2 MSTORE PUSH1 0x20 ADD SWAP1 DUP2 MSTORE PUSH1 0x20 ADD PUSH1 0x0 KECCAK256 PUSH1 0x40 MLOAD DUP1 PUSH1 0xA0 ADD PUSH1 0x40 MSTORE SWAP1 DUP2 PUSH1 0x0 DUP3 ADD PUSH1 0x0 SWAP1 SLOAD SWAP1 PUSH2 0x100 EXP SWAP1 DIV PUSH20 0xFFFFFFFFFFFFFFFFFFFFFFFFFFFFFFFFFFFFFFFF AND PUSH20 0xFFFFFFFFFFFFFFFFFFFFFFFFFFFFFFFFFFFFFFFF AND PUSH20 0xFFFFFFFFFFFFFFFFFFFFFFFFFFFFFFFFFFFFFFFF AND DUP2 MSTORE PUSH1 0x20 ADD PUSH1 0x1 DUP3 ADD SLOAD DUP2 MSTORE PUSH1 0x20 ADD PUSH1 0x2 DUP3 ADD SLOAD DUP2 MSTORE PUSH1 0x20 ADD PUSH1 0x3 DUP3 ADD PUSH1 0x0 SWAP1 SLOAD SWAP1 PUSH2 0x100 EXP SWAP1 DIV PUSH1 0xFF AND ISZERO ISZERO ISZERO ISZERO DUP2 MSTORE PUSH1 0x20 ADD PUSH1 0x3 DUP3 ADD PUSH1 0x1 SWAP1 SLOAD SWAP1 PUSH2 0x100 EXP SWAP1 DIV PUSH20 0xFFFFFFFFFFFFFFFFFFFFFFFFFFFFFFFFFFFFFFFF AND PUSH20 0xFFFFFFFFFFFFFFFFFFFFFFFFFFFFFFFFFFFFFFFF AND PUSH20 0xFFFFFFFFFFFFFFFFFFFFFFFFFFFFFFFFFFFFFFFF AND DUP2 MSTORE POP POP SWAP1 POP CALLER PUSH20 0xFFFFFFFFFFFFFFFFFFFFFFFFFFFFFFFFFFFFFFFF AND DUP2 PUSH1 0x0 ADD MLOAD PUSH20 0xFFFFFFFFFFFFFFFFFFFFFFFFFFFFFFFFFFFFFFFF AND EQ PUSH2 0x632 JUMPI PUSH1 0x40 MLOAD PUSH32 0x8C379A000000000000000000000000000000000000000000000000000000000 DUP2 MSTORE PUSH1 0x4 ADD PUSH2 0x629 SWAP1 PUSH2 0x2905 JUMP JUMPDEST PUSH1 0x40 MLOAD DUP1 SWAP2 SUB SWAP1 REVERT JUMPDEST TIMESTAMP PUSH1 0x2 SLOAD DUP3 PUSH1 0x20 ADD MLOAD PUSH2 0x645 SWAP2 SWAP1 PUSH2 0x2954 JUMP JUMPDEST LT PUSH2 0x685 JUMPI PUSH1 0x40 MLOAD PUSH32 0x8C379A000000000000000000000000000000000000000000000000000000000 DUP2 MSTORE PUSH1 0x4 ADD PUSH2 0x67C SWAP1 PUSH2 0x29D4 JUMP JUMPDEST PUSH1 0x40 MLOAD DUP1 SWAP2 SUB SWAP1 REVERT JUMPDEST DUP1 PUSH1 0x60 ADD MLOAD ISZERO PUSH2 0x6CA JUMPI PUSH1 0x40 MLOAD PUSH32 0x8C379A000000000000000000000000000000000000000000000000000000000 DUP2 MSTORE PUSH1 0x4 ADD PUSH2 0x6C1 SWAP1 PUSH2 0x2A40 JUMP JUMPDEST PUSH1 0x40 MLOAD DUP1 SWAP2 SUB SWAP1 REVERT JUMPDEST PUSH1 0x0 PUSH2 0x6EF DUP8 DUP8 DUP6 DUP2 DUP2 LT PUSH2 0x6E2 JUMPI PUSH2 0x6E1 PUSH2 0x288A JUMP JUMPDEST JUMPDEST SWAP1 POP PUSH1 0x20 MUL ADD CALLDATALOAD DUP7 PUSH2 0x1C97 JUMP JUMPDEST SWAP1 POP PUSH1 0x0 DUP3 PUSH1 0x40 ADD MLOAD DUP3 PUSH2 0x703 SWAP2 SWAP1 PUSH2 0x2A60 JUMP JUMPDEST SWAP1 POP PUSH1 0x4 PUSH1 0x0 DUP8 PUSH20 0xFFFFFFFFFFFFFFFFFFFFFFFFFFFFFFFFFFFFFFFF AND PUSH20 0xFFFFFFFFFFFFFFFFFFFFFFFFFFFFFFFFFFFFFFFF AND DUP2 MSTORE PUSH1 0x20 ADD SWAP1 DUP2 MSTORE PUSH1 0x20 ADD PUSH1 0x0 KECCAK256 PUSH1 0x0 ADD PUSH1 0x0 SWAP1 SLOAD SWAP1 PUSH2 0x100 EXP SWAP1 DIV PUSH20 0xFFFFFFFFFFFFFFFFFFFFFFFFFFFFFFFFFFFFFFFF AND PUSH20 0xFFFFFFFFFFFFFFFFFFFFFFFFFFFFFFFFFFFFFFFF AND PUSH4 0x40C10F19 CALLER DUP4 PUSH1 0x40 MLOAD DUP4 PUSH4 0xFFFFFFFF AND PUSH1 0xE0 SHL DUP2 MSTORE PUSH1 0x4 ADD PUSH2 0x7A2 SWAP3 SWAP2 SWAP1 PUSH2 0x2A94 JUMP JUMPDEST PUSH1 0x0 PUSH1 0x40 MLOAD DUP1 DUP4 SUB DUP2 PUSH1 0x0 DUP8 DUP1 EXTCODESIZE ISZERO DUP1 ISZERO PUSH2 0x7BC JUMPI PUSH1 0x0 DUP1 REVERT JUMPDEST POP GAS CALL ISZERO DUP1 ISZERO PUSH2 0x7D0 JUMPI RETURNDATASIZE PUSH1 0x0 DUP1 RETURNDATACOPY RETURNDATASIZE PUSH1 0x0 REVERT JUMPDEST POP POP POP POP DUP1 DUP6 PUSH2 0x7E0 SWAP2 SWAP1 PUSH2 0x2954 JUMP JUMPDEST SWAP5 POP DUP2 PUSH1 0x3 PUSH1 0x0 DUP9 PUSH20 0xFFFFFFFFFFFFFFFFFFFFFFFFFFFFFFFFFFFFFFFF AND PUSH20 0xFFFFFFFFFFFFFFFFFFFFFFFFFFFFFFFFFFFFFFFF AND DUP2 MSTORE PUSH1 0x20 ADD SWAP1 DUP2 MSTORE PUSH1 0x20 ADD PUSH1 0x0 KECCAK256 PUSH1 0x0 DUP11 DUP11 DUP9 DUP2 DUP2 LT PUSH2 0x837 JUMPI PUSH2 0x836 PUSH2 0x288A JUMP JUMPDEST JUMPDEST SWAP1 POP PUSH1 0x20 MUL ADD CALLDATALOAD DUP2 MSTORE PUSH1 0x20 ADD SWAP1 DUP2 MSTORE PUSH1 0x20 ADD PUSH1 0x0 KECCAK256 PUSH1 0x2 ADD DUP2 SWAP1 SSTORE POP POP POP POP DUP1 DUP1 PUSH2 0x861 SWAP1 PUSH2 0x2ABD JUMP JUMPDEST SWAP2 POP POP PUSH2 0x462 JUMP JUMPDEST POP CALLER PUSH20 0xFFFFFFFFFFFFFFFFFFFFFFFFFFFFFFFFFFFFFFFF AND PUSH32 0x37826BE3C26DBAD83731F4B985F22FA9EF86B6D1974CD77208332B7F1F283C0C DUP6 DUP6 DUP5 PUSH1 0x40 MLOAD PUSH2 0x8B4 SWAP4 SWAP3 SWAP2 SWAP1 PUSH2 0x2B80 JUMP JUMPDEST PUSH1 0x40 MLOAD DUP1 SWAP2 SUB SWAP1 LOG2 POP POP POP POP JUMP JUMPDEST PUSH2 0x8E1 CALLER PUSH20 0xFFFFFFFFFFFFFFFFFFFFFFFFFFFFFFFFFFFFFFFF AND PUSH2 0x1C74 JUMP JUMPDEST ISZERO PUSH2 0x921 JUMPI PUSH1 0x40 MLOAD PUSH32 0x8C379A000000000000000000000000000000000000000000000000000000000 DUP2 MSTORE PUSH1 0x4 ADD PUSH2 0x918 SWAP1 PUSH2 0x2700 JUMP JUMPDEST PUSH1 0x40 MLOAD DUP1 SWAP2 SUB SWAP1 REVERT JUMPDEST ORIGIN PUSH20 0xFFFFFFFFFFFFFFFFFFFFFFFFFFFFFFFFFFFFFFFF AND CALLER PUSH20 0xFFFFFFFFFFFFFFFFFFFFFFFFFFFFFFFFFFFFFFFF AND EQ PUSH2 0x98F JUMPI PUSH1 0x40 MLOAD PUSH32 0x8C379A000000000000000000000000000000000000000000000000000000000 DUP2 MSTORE PUSH1 0x4 ADD PUSH2 0x986 SWAP1 PUSH2 0x276C JUMP JUMPDEST PUSH1 0x40 MLOAD DUP1 SWAP2 SUB SWAP1 REVERT JUMPDEST PUSH1 0x2 PUSH1 0x1 SLOAD SUB PUSH2 0x9D4 JUMPI PUSH1 0x40 MLOAD PUSH32 0x8C379A000000000000000000000000000000000000000000000000000000000 DUP2 MSTORE PUSH1 0x4 ADD PUSH2 0x9CB SWAP1 PUSH2 0x2BFE JUMP JUMPDEST PUSH1 0x40 MLOAD DUP1 SWAP2 SUB SWAP1 REVERT JUMPDEST PUSH1 0x2 PUSH1 0x1 DUP2 SWAP1 SSTORE POP PUSH1 0x0 PUSH20 0xFFFFFFFFFFFFFFFFFFFFFFFFFFFFFFFFFFFFFFFF AND PUSH1 0x4 PUSH1 0x0 DUP4 PUSH20 0xFFFFFFFFFFFFFFFFFFFFFFFFFFFFFFFFFFFFFFFF AND PUSH20 0xFFFFFFFFFFFFFFFFFFFFFFFFFFFFFFFFFFFFFFFF AND DUP2 MSTORE PUSH1 0x20 ADD SWAP1 DUP2 MSTORE PUSH1 0x20 ADD PUSH1 0x0 KECCAK256 PUSH1 0x0 ADD PUSH1 0x0 SWAP1 SLOAD SWAP1 PUSH2 0x100 EXP SWAP1 DIV PUSH20 0xFFFFFFFFFFFFFFFFFFFFFFFFFFFFFFFFFFFFFFFF AND PUSH20 0xFFFFFFFFFFFFFFFFFFFFFFFFFFFFFFFFFFFFFFFF AND SUB PUSH2 0xAAD JUMPI PUSH1 0x40 MLOAD PUSH32 0x8C379A000000000000000000000000000000000000000000000000000000000 DUP2 MSTORE PUSH1 0x4 ADD PUSH2 0xAA4 SWAP1 PUSH2 0x27FE JUMP JUMPDEST PUSH1 0x40 MLOAD DUP1 SWAP2 SUB SWAP1 REVERT JUMPDEST PUSH1 0x0 DUP4 DUP4 SWAP1 POP GT PUSH2 0xAF3 JUMPI PUSH1 0x40 MLOAD PUSH32 0x8C379A000000000000000000000000000000000000000000000000000000000 DUP2 MSTORE PUSH1 0x4 ADD PUSH2 0xAEA SWAP1 PUSH2 0x286A JUMP JUMPDEST PUSH1 0x40 MLOAD DUP1 SWAP2 SUB SWAP1 REVERT JUMPDEST PUSH1 0x0 JUMPDEST DUP4 DUP4 SWAP1 POP DUP2 LT ISZERO PUSH2 0xE21 JUMPI CALLER PUSH20 0xFFFFFFFFFFFFFFFFFFFFFFFFFFFFFFFFFFFFFFFF AND DUP3 PUSH20 0xFFFFFFFFFFFFFFFFFFFFFFFFFFFFFFFFFFFFFFFF AND PUSH4 0x6352211E DUP7 DUP7 DUP6 DUP2 DUP2 LT PUSH2 0xB47 JUMPI PUSH2 0xB46 PUSH2 0x288A JUMP JUMPDEST JUMPDEST SWAP1 POP PUSH1 0x20 MUL ADD CALLDATALOAD PUSH1 0x40 MLOAD DUP3 PUSH4 0xFFFFFFFF AND PUSH1 0xE0 SHL DUP2 MSTORE PUSH1 0x4 ADD PUSH2 0xB6A SWAP2 SWAP1 PUSH2 0x2432 JUMP JUMPDEST PUSH1 0x20 PUSH1 0x40 MLOAD DUP1 DUP4 SUB DUP2 DUP7 GAS STATICCALL ISZERO DUP1 ISZERO PUSH2 0xB87 JUMPI RETURNDATASIZE PUSH1 0x0 DUP1 RETURNDATACOPY RETURNDATASIZE PUSH1 0x0 REVERT JUMPDEST POP POP POP POP PUSH1 0x40 MLOAD RETURNDATASIZE PUSH1 0x1F NOT PUSH1 0x1F DUP3 ADD AND DUP3 ADD DUP1 PUSH1 0x40 MSTORE POP DUP2 ADD SWAP1 PUSH2 0xBAB SWAP2 SWAP1 PUSH2 0x2C33 JUMP JUMPDEST PUSH20 0xFFFFFFFFFFFFFFFFFFFFFFFFFFFFFFFFFFFFFFFF AND EQ PUSH2 0xC01 JUMPI PUSH1 0x40 MLOAD PUSH32 0x8C379A000000000000000000000000000000000000000000000000000000000 DUP2 MSTORE PUSH1 0x4 ADD PUSH2 0xBF8 SWAP1 PUSH2 0x2CAC JUMP JUMPDEST PUSH1 0x40 MLOAD DUP1 SWAP2 SUB SWAP1 REVERT JUMPDEST DUP2 PUSH20 0xFFFFFFFFFFFFFFFFFFFFFFFFFFFFFFFFFFFFFFFF AND PUSH4 0x23B872DD CALLER ADDRESS DUP8 DUP8 DUP7 DUP2 DUP2 LT PUSH2 0xC32 JUMPI PUSH2 0xC31 PUSH2 0x288A JUMP JUMPDEST JUMPDEST SWAP1 POP PUSH1 0x20 MUL ADD CALLDATALOAD PUSH1 0x40 MLOAD DUP5 PUSH4 0xFFFFFFFF AND PUSH1 0xE0 SHL DUP2 MSTORE PUSH1 0x4 ADD PUSH2 0xC57 SWAP4 SWAP3 SWAP2 SWAP1 PUSH2 0x2CCC JUMP JUMPDEST PUSH1 0x0 PUSH1 0x40 MLOAD DUP1 DUP4 SUB DUP2 PUSH1 0x0 DUP8 DUP1 EXTCODESIZE ISZERO DUP1 ISZERO PUSH2 0xC71 JUMPI PUSH1 0x0 DUP1 REVERT JUMPDEST POP GAS CALL ISZERO DUP1 ISZERO PUSH2 0xC85 JUMPI RETURNDATASIZE PUSH1 0x0 DUP1 RETURNDATACOPY RETURNDATASIZE PUSH1 0x0 REVERT JUMPDEST POP POP POP POP PUSH1 0x40 MLOAD DUP1 PUSH1 0xA0 ADD PUSH1 0x40 MSTORE DUP1 CALLER PUSH20 0xFFFFFFFFFFFFFFFFFFFFFFFFFFFFFFFFFFFFFFFF AND DUP2 MSTORE PUSH1 0x20 ADD TIMESTAMP DUP2 MSTORE PUSH1 0x20 ADD PUSH1 0x0 DUP2 MSTORE PUSH1 0x20 ADD PUSH1 0x0 ISZERO ISZERO DUP2 MSTORE PUSH1 0x20 ADD DUP4 PUSH20 0xFFFFFFFFFFFFFFFFFFFFFFFFFFFFFFFFFFFFFFFF AND DUP2 MSTORE POP PUSH1 0x3 PUSH1 0x0 DUP5 PUSH20 0xFFFFFFFFFFFFFFFFFFFFFFFFFFFFFFFFFFFFFFFF AND PUSH20 0xFFFFFFFFFFFFFFFFFFFFFFFFFFFFFFFFFFFFFFFF AND DUP2 MSTORE PUSH1 0x20 ADD SWAP1 DUP2 MSTORE PUSH1 0x20 ADD PUSH1 0x0 KECCAK256 PUSH1 0x0 DUP7 DUP7 DUP6 DUP2 DUP2 LT PUSH2 0xD34 JUMPI PUSH2 0xD33 PUSH2 0x288A JUMP JUMPDEST JUMPDEST SWAP1 POP PUSH1 0x20 MUL ADD CALLDATALOAD DUP2 MSTORE PUSH1 0x20 ADD SWAP1 DUP2 MSTORE PUSH1 0x20 ADD PUSH1 0x0 KECCAK256 PUSH1 0x0 DUP3 ADD MLOAD DUP2 PUSH1 0x0 ADD PUSH1 0x0 PUSH2 0x100 EXP DUP2 SLOAD DUP2 PUSH20 0xFFFFFFFFFFFFFFFFFFFFFFFFFFFFFFFFFFFFFFFF MUL NOT AND SWAP1 DUP4 PUSH20 0xFFFFFFFFFFFFFFFFFFFFFFFFFFFFFFFFFFFFFFFF AND MUL OR SWAP1 SSTORE POP PUSH1 0x20 DUP3 ADD MLOAD DUP2 PUSH1 0x1 ADD SSTORE PUSH1 0x40 DUP3 ADD MLOAD DUP2 PUSH1 0x2 ADD SSTORE PUSH1 0x60 DUP3 ADD MLOAD DUP2 PUSH1 0x3 ADD PUSH1 0x0 PUSH2 0x100 EXP DUP2 SLOAD DUP2 PUSH1 0xFF MUL NOT AND SWAP1 DUP4 ISZERO ISZERO MUL OR SWAP1 SSTORE POP PUSH1 0x80 DUP3 ADD MLOAD DUP2 PUSH1 0x3 ADD PUSH1 0x1 PUSH2 0x100 EXP DUP2 SLOAD DUP2 PUSH20 0xFFFFFFFFFFFFFFFFFFFFFFFFFFFFFFFFFFFFFFFF MUL NOT AND SWAP1 DUP4 PUSH20 0xFFFFFFFFFFFFFFFFFFFFFFFFFFFFFFFFFFFFFFFF AND MUL OR SWAP1 SSTORE POP SWAP1 POP POP DUP1 DUP1 PUSH2 0xE19 SWAP1 PUSH2 0x2ABD JUMP JUMPDEST SWAP2 POP POP PUSH2 0xAF6 JUMP JUMPDEST POP CALLER PUSH20 0xFFFFFFFFFFFFFFFFFFFFFFFFFFFFFFFFFFFFFFFF AND PUSH32 0x458BE0227BCCC9E803DEC79BD16767EEAF9925D2CE708EEED7AE1F3621F968F9 DUP5 DUP5 PUSH1 0x40 MLOAD PUSH2 0xE6A SWAP3 SWAP2 SWAP1 PUSH2 0x2D03 JUMP JUMPDEST PUSH1 0x40 MLOAD DUP1 SWAP2 SUB SWAP1 LOG2 PUSH1 0x1 DUP1 DUP2 SWAP1 SSTORE POP POP POP POP JUMP JUMPDEST PUSH2 0xE86 PUSH2 0x1E75 JUMP JUMPDEST PUSH1 0x0 JUMPDEST DUP4 MLOAD DUP2 LT ISZERO PUSH2 0x1247 JUMPI PUSH1 0x0 PUSH20 0xFFFFFFFFFFFFFFFFFFFFFFFFFFFFFFFFFFFFFFFF AND DUP5 DUP3 DUP2 MLOAD DUP2 LT PUSH2 0xEBD JUMPI PUSH2 0xEBC PUSH2 0x288A JUMP JUMPDEST JUMPDEST PUSH1 0x20 MUL PUSH1 0x20 ADD ADD MLOAD PUSH20 0xFFFFFFFFFFFFFFFFFFFFFFFFFFFFFFFFFFFFFFFF AND SUB PUSH2 0xF1B JUMPI PUSH1 0x40 MLOAD PUSH32 0x8C379A000000000000000000000000000000000000000000000000000000000 DUP2 MSTORE PUSH1 0x4 ADD PUSH2 0xF12 SWAP1 PUSH2 0x2D73 JUMP JUMPDEST PUSH1 0x40 MLOAD DUP1 SWAP2 SUB SWAP1 REVERT JUMPDEST PUSH1 0x0 PUSH20 0xFFFFFFFFFFFFFFFFFFFFFFFFFFFFFFFFFFFFFFFF AND DUP4 DUP3 DUP2 MLOAD DUP2 LT PUSH2 0xF46 JUMPI PUSH2 0xF45 PUSH2 0x288A JUMP JUMPDEST JUMPDEST PUSH1 0x20 MUL PUSH1 0x20 ADD ADD MLOAD PUSH20 0xFFFFFFFFFFFFFFFFFFFFFFFFFFFFFFFFFFFFFFFF AND SUB PUSH2 0xFA4 JUMPI PUSH1 0x40 MLOAD PUSH32 0x8C379A000000000000000000000000000000000000000000000000000000000 DUP2 MSTORE PUSH1 0x4 ADD PUSH2 0xF9B SWAP1 PUSH2 0x2DDF JUMP JUMPDEST PUSH1 0x40 MLOAD DUP1 SWAP2 SUB SWAP1 REVERT JUMPDEST DUP4 DUP2 DUP2 MLOAD DUP2 LT PUSH2 0xFB7 JUMPI PUSH2 0xFB6 PUSH2 0x288A JUMP JUMPDEST JUMPDEST PUSH1 0x20 MUL PUSH1 0x20 ADD ADD MLOAD PUSH20 0xFFFFFFFFFFFFFFFFFFFFFFFFFFFFFFFFFFFFFFFF AND PUSH4 0x1FFC9A7 PUSH4 0x80AC58CD PUSH1 0x40 MLOAD DUP3 PUSH4 0xFFFFFFFF AND PUSH1 0xE0 SHL DUP2 MSTORE PUSH1 0x4 ADD PUSH2 0xFFB SWAP2 SWAP1 PUSH2 0x2E73 JUMP JUMPDEST PUSH1 0x20 PUSH1 0x40 MLOAD DUP1 DUP4 SUB DUP2 DUP7 GAS STATICCALL ISZERO DUP1 ISZERO PUSH2 0x1018 JUMPI RETURNDATASIZE PUSH1 0x0 DUP1 RETURNDATACOPY RETURNDATASIZE PUSH1 0x0 REVERT JUMPDEST POP POP POP POP PUSH1 0x40 MLOAD RETURNDATASIZE PUSH1 0x1F NOT PUSH1 0x1F DUP3 ADD AND DUP3 ADD DUP1 PUSH1 0x40 MSTORE POP DUP2 ADD SWAP1 PUSH2 0x103C SWAP2 SWAP1 PUSH2 0x2EBA JUMP JUMPDEST PUSH2 0x107B JUMPI PUSH1 0x40 MLOAD PUSH32 0x8C379A000000000000000000000000000000000000000000000000000000000 DUP2 MSTORE PUSH1 0x4 ADD PUSH2 0x1072 SWAP1 PUSH2 0x2F33 JUMP JUMPDEST PUSH1 0x40 MLOAD DUP1 SWAP2 SUB SWAP1 REVERT JUMPDEST DUP3 DUP2 DUP2 MLOAD DUP2 LT PUSH2 0x108E JUMPI PUSH2 0x108D PUSH2 0x288A JUMP JUMPDEST JUMPDEST PUSH1 0x20 MUL PUSH1 0x20 ADD ADD MLOAD PUSH1 0x4 PUSH1 0x0 DUP7 DUP5 DUP2 MLOAD DUP2 LT PUSH2 0x10AD JUMPI PUSH2 0x10AC PUSH2 0x288A JUMP JUMPDEST JUMPDEST PUSH1 0x20 MUL PUSH1 0x20 ADD ADD MLOAD PUSH20 0xFFFFFFFFFFFFFFFFFFFFFFFFFFFFFFFFFFFFFFFF AND PUSH20 0xFFFFFFFFFFFFFFFFFFFFFFFFFFFFFFFFFFFFFFFF AND DUP2 MSTORE PUSH1 0x20 ADD SWAP1 DUP2 MSTORE PUSH1 0x20 ADD PUSH1 0x0 KECCAK256 PUSH1 0x0 ADD PUSH1 0x0 PUSH2 0x100 EXP DUP2 SLOAD DUP2 PUSH20 0xFFFFFFFFFFFFFFFFFFFFFFFFFFFFFFFFFFFFFFFF MUL NOT AND SWAP1 DUP4 PUSH20 0xFFFFFFFFFFFFFFFFFFFFFFFFFFFFFFFFFFFFFFFF AND MUL OR SWAP1 SSTORE POP DUP2 DUP2 DUP2 MLOAD DUP2 LT PUSH2 0x1143 JUMPI PUSH2 0x1142 PUSH2 0x288A JUMP JUMPDEST JUMPDEST PUSH1 0x20 MUL PUSH1 0x20 ADD ADD MLOAD PUSH1 0x4 PUSH1 0x0 DUP7 DUP5 DUP2 MLOAD DUP2 LT PUSH2 0x1162 JUMPI PUSH2 0x1161 PUSH2 0x288A JUMP JUMPDEST JUMPDEST PUSH1 0x20 MUL PUSH1 0x20 ADD ADD MLOAD PUSH20 0xFFFFFFFFFFFFFFFFFFFFFFFFFFFFFFFFFFFFFFFF AND PUSH20 0xFFFFFFFFFFFFFFFFFFFFFFFFFFFFFFFFFFFFFFFF AND DUP2 MSTORE PUSH1 0x20 ADD SWAP1 DUP2 MSTORE PUSH1 0x20 ADD PUSH1 0x0 KECCAK256 PUSH1 0x1 ADD DUP2 SWAP1 SSTORE POP PUSH32 0x2C1C0BE88C4EAFC46738F696E4995CB7054319395514B7318CEE2831CA4AA896 DUP5 DUP3 DUP2 MLOAD DUP2 LT PUSH2 0x11DF JUMPI PUSH2 0x11DE PUSH2 0x288A JUMP JUMPDEST JUMPDEST PUSH1 0x20 MUL PUSH1 0x20 ADD ADD MLOAD DUP5 DUP4 DUP2 MLOAD DUP2 LT PUSH2 0x11FA JUMPI PUSH2 0x11F9 PUSH2 0x288A JUMP JUMPDEST JUMPDEST PUSH1 0x20 MUL PUSH1 0x20 ADD ADD MLOAD DUP5 DUP5 DUP2 MLOAD DUP2 LT PUSH2 0x1215 JUMPI PUSH2 0x1214 PUSH2 0x288A JUMP JUMPDEST JUMPDEST PUSH1 0x20 MUL PUSH1 0x20 ADD ADD MLOAD PUSH1 0x40 MLOAD PUSH2 0x122C SWAP4 SWAP3 SWAP2 SWAP1 PUSH2 0x2CCC JUMP JUMPDEST PUSH1 0x40 MLOAD DUP1 SWAP2 SUB SWAP1 LOG1 DUP1 DUP1 PUSH2 0x123F SWAP1 PUSH2 0x2ABD JUMP JUMPDEST SWAP2 POP POP PUSH2 0xE89 JUMP JUMPDEST POP POP POP POP JUMP JUMPDEST PUSH1 0x2 SLOAD DUP2 JUMP JUMPDEST PUSH2 0x125B PUSH2 0x1E75 JUMP JUMPDEST PUSH2 0x1265 PUSH1 0x0 PUSH2 0x1EF3 JUMP JUMPDEST JUMP JUMPDEST PUSH2 0x126F PUSH2 0x1E75 JUMP JUMPDEST PUSH1 0x0 DUP2 GT PUSH2 0x12B2 JUMPI PUSH1 0x40 MLOAD PUSH32 0x8C379A000000000000000000000000000000000000000000000000000000000 DUP2 MSTORE PUSH1 0x4 ADD PUSH2 0x12A9 SWAP1 PUSH2 0x2F9F JUMP JUMPDEST PUSH1 0x40 MLOAD DUP1 SWAP2 SUB SWAP1 REVERT JUMPDEST DUP1 PUSH1 0x2 DUP2 SWAP1 SSTORE POP PUSH32 0x8249EC545E68F6F1E1230133CA48C704D831A7F8E635DED80F3DD9E99B09BB2F DUP2 PUSH1 0x40 MLOAD PUSH2 0x12E8 SWAP2 SWAP1 PUSH2 0x2432 JUMP JUMPDEST PUSH1 0x40 MLOAD DUP1 SWAP2 SUB SWAP1 LOG1 POP JUMP JUMPDEST PUSH1 0x0 DUP1 PUSH1 0x0 SWAP1 SLOAD SWAP1 PUSH2 0x100 EXP SWAP1 DIV PUSH20 0xFFFFFFFFFFFFFFFFFFFFFFFFFFFFFFFFFFFFFFFF AND SWAP1 POP SWAP1 JUMP JUMPDEST PUSH2 0x133B CALLER PUSH20 0xFFFFFFFFFFFFFFFFFFFFFFFFFFFFFFFFFFFFFFFF AND PUSH2 0x1C74 JUMP JUMPDEST ISZERO PUSH2 0x137B JUMPI PUSH1 0x40 MLOAD PUSH32 0x8C379A000000000000000000000000000000000000000000000000000000000 DUP2 MSTORE PUSH1 0x4 ADD PUSH2 0x1372 SWAP1 PUSH2 0x2700 JUMP JUMPDEST PUSH1 0x40 MLOAD DUP1 SWAP2 SUB SWAP1 REVERT JUMPDEST ORIGIN PUSH20 0xFFFFFFFFFFFFFFFFFFFFFFFFFFFFFFFFFFFFFFFF AND CALLER PUSH20 0xFFFFFFFFFFFFFFFFFFFFFFFFFFFFFFFFFFFFFFFF AND EQ PUSH2 0x13E9 JUMPI PUSH1 0x40 MLOAD PUSH32 0x8C379A000000000000000000000000000000000000000000000000000000000 DUP2 MSTORE PUSH1 0x4 ADD PUSH2 0x13E0 SWAP1 PUSH2 0x276C JUMP JUMPDEST PUSH1 0x40 MLOAD DUP1 SWAP2 SUB SWAP1 REVERT JUMPDEST PUSH1 0x2 PUSH1 0x1 SLOAD SUB PUSH2 0x142E JUMPI PUSH1 0x40 MLOAD PUSH32 0x8C379A000000000000000000000000000000000000000000000000000000000 DUP2 MSTORE PUSH1 0x4 ADD PUSH2 0x1425 SWAP1 PUSH2 0x2BFE JUMP JUMPDEST PUSH1 0x40 MLOAD DUP1 SWAP2 SUB SWAP1 REVERT JUMPDEST PUSH1 0x2 PUSH1 0x1 DUP2 SWAP1 SSTORE POP PUSH1 0x0 PUSH20 0xFFFFFFFFFFFFFFFFFFFFFFFFFFFFFFFFFFFFFFFF AND PUSH1 0x4 PUSH1 0x0 DUP4 PUSH20 0xFFFFFFFFFFFFFFFFFFFFFFFFFFFFFFFFFFFFFFFF AND PUSH20 0xFFFFFFFFFFFFFFFFFFFFFFFFFFFFFFFFFFFFFFFF AND DUP2 MSTORE PUSH1 0x20 ADD SWAP1 DUP2 MSTORE PUSH1 0x20 ADD PUSH1 0x0 KECCAK256 PUSH1 0x0 ADD PUSH1 0x0 SWAP1 SLOAD SWAP1 PUSH2 0x100 EXP SWAP1 DIV PUSH20 0xFFFFFFFFFFFFFFFFFFFFFFFFFFFFFFFFFFFFFFFF AND PUSH20 0xFFFFFFFFFFFFFFFFFFFFFFFFFFFFFFFFFFFFFFFF AND SUB PUSH2 0x1507 JUMPI PUSH1 0x40 MLOAD PUSH32 0x8C379A000000000000000000000000000000000000000000000000000000000 DUP2 MSTORE PUSH1 0x4 ADD PUSH2 0x14FE SWAP1 PUSH2 0x27FE JUMP JUMPDEST PUSH1 0x40 MLOAD DUP1 SWAP2 SUB SWAP1 REVERT JUMPDEST PUSH1 0x0 DUP4 DUP4 SWAP1 POP GT PUSH2 0x154D JUMPI PUSH1 0x40 MLOAD PUSH32 0x8C379A000000000000000000000000000000000000000000000000000000000 DUP2 MSTORE PUSH1 0x4 ADD PUSH2 0x1544 SWAP1 PUSH2 0x286A JUMP JUMPDEST PUSH1 0x40 MLOAD DUP1 SWAP2 SUB SWAP1 REVERT JUMPDEST PUSH1 0x0 JUMPDEST DUP4 DUP4 SWAP1 POP DUP2 LT ISZERO PUSH2 0x1A56 JUMPI PUSH1 0x0 PUSH1 0x3 PUSH1 0x0 DUP5 PUSH20 0xFFFFFFFFFFFFFFFFFFFFFFFFFFFFFFFFFFFFFFFF AND PUSH20 0xFFFFFFFFFFFFFFFFFFFFFFFFFFFFFFFFFFFFFFFF AND DUP2 MSTORE PUSH1 0x20 ADD SWAP1 DUP2 MSTORE PUSH1 0x20 ADD PUSH1 0x0 KECCAK256 PUSH1 0x0 DUP7 DUP7 DUP6 DUP2 DUP2 LT PUSH2 0x15B1 JUMPI PUSH2 0x15B0 PUSH2 0x288A JUMP JUMPDEST JUMPDEST SWAP1 POP PUSH1 0x20 MUL ADD CALLDATALOAD DUP2 MSTORE PUSH1 0x20 ADD SWAP1 DUP2 MSTORE PUSH1 0x20 ADD PUSH1 0x0 KECCAK256 PUSH1 0x40 MLOAD DUP1 PUSH1 0xA0 ADD PUSH1 0x40 MSTORE SWAP1 DUP2 PUSH1 0x0 DUP3 ADD PUSH1 0x0 SWAP1 SLOAD SWAP1 PUSH2 0x100 EXP SWAP1 DIV PUSH20 0xFFFFFFFFFFFFFFFFFFFFFFFFFFFFFFFFFFFFFFFF AND PUSH20 0xFFFFFFFFFFFFFFFFFFFFFFFFFFFFFFFFFFFFFFFF AND PUSH20 0xFFFFFFFFFFFFFFFFFFFFFFFFFFFFFFFFFFFFFFFF AND DUP2 MSTORE PUSH1 0x20 ADD PUSH1 0x1 DUP3 ADD SLOAD DUP2 MSTORE PUSH1 0x20 ADD PUSH1 0x2 DUP3 ADD SLOAD DUP2 MSTORE PUSH1 0x20 ADD PUSH1 0x3 DUP3 ADD PUSH1 0x0 SWAP1 SLOAD SWAP1 PUSH2 0x100 EXP SWAP1 DIV PUSH1 0xFF AND ISZERO ISZERO ISZERO ISZERO DUP2 MSTORE PUSH1 0x20 ADD PUSH1 0x3 DUP3 ADD PUSH1 0x1 SWAP1 SLOAD SWAP1 PUSH2 0x100 EXP SWAP1 DIV PUSH20 0xFFFFFFFFFFFFFFFFFFFFFFFFFFFFFFFFFFFFFFFF AND PUSH20 0xFFFFFFFFFFFFFFFFFFFFFFFFFFFFFFFFFFFFFFFF AND PUSH20 0xFFFFFFFFFFFFFFFFFFFFFFFFFFFFFFFFFFFFFFFF AND DUP2 MSTORE POP POP SWAP1 POP CALLER PUSH20 0xFFFFFFFFFFFFFFFFFFFFFFFFFFFFFFFFFFFFFFFF AND DUP2 PUSH1 0x0 ADD MLOAD PUSH20 0xFFFFFFFFFFFFFFFFFFFFFFFFFFFFFFFFFFFFFFFF AND EQ PUSH2 0x1720 JUMPI PUSH1 0x40 MLOAD PUSH32 0x8C379A000000000000000000000000000000000000000000000000000000000 DUP2 MSTORE PUSH1 0x4 ADD PUSH2 0x1717 SWAP1 PUSH2 0x2905 JUMP JUMPDEST PUSH1 0x40 MLOAD DUP1 SWAP2 SUB SWAP1 REVERT JUMPDEST TIMESTAMP PUSH1 0x2 SLOAD DUP3 PUSH1 0x20 ADD MLOAD PUSH2 0x1733 SWAP2 SWAP1 PUSH2 0x2954 JUMP JUMPDEST LT PUSH2 0x1773 JUMPI PUSH1 0x40 MLOAD PUSH32 0x8C379A000000000000000000000000000000000000000000000000000000000 DUP2 MSTORE PUSH1 0x4 ADD PUSH2 0x176A SWAP1 PUSH2 0x300B JUMP JUMPDEST PUSH1 0x40 MLOAD DUP1 SWAP2 SUB SWAP1 REVERT JUMPDEST DUP1 PUSH1 0x60 ADD MLOAD ISZERO PUSH2 0x17B8 JUMPI PUSH1 0x40 MLOAD PUSH32 0x8C379A000000000000000000000000000000000000000000000000000000000 DUP2 MSTORE PUSH1 0x4 ADD PUSH2 0x17AF SWAP1 PUSH2 0x2A40 JUMP JUMPDEST PUSH1 0x40 MLOAD DUP1 SWAP2 SUB SWAP1 REVERT JUMPDEST DUP3 PUSH20 0xFFFFFFFFFFFFFFFFFFFFFFFFFFFFFFFFFFFFFFFF AND PUSH4 0x23B872DD ADDRESS CALLER DUP9 DUP9 DUP8 DUP2 DUP2 LT PUSH2 0x17E9 JUMPI PUSH2 0x17E8 PUSH2 0x288A JUMP JUMPDEST JUMPDEST SWAP1 POP PUSH1 0x20 MUL ADD CALLDATALOAD PUSH1 0x40 MLOAD DUP5 PUSH4 0xFFFFFFFF AND PUSH1 0xE0 SHL DUP2 MSTORE PUSH1 0x4 ADD PUSH2 0x180E SWAP4 SWAP3 SWAP2 SWAP1 PUSH2 0x2CCC JUMP JUMPDEST PUSH1 0x0 PUSH1 0x40 MLOAD DUP1 DUP4 SUB DUP2 PUSH1 0x0 DUP8 DUP1 EXTCODESIZE ISZERO DUP1 ISZERO PUSH2 0x1828 JUMPI PUSH1 0x0 DUP1 REVERT JUMPDEST POP GAS CALL ISZERO DUP1 ISZERO PUSH2 0x183C JUMPI RETURNDATASIZE PUSH1 0x0 DUP1 RETURNDATACOPY RETURNDATASIZE PUSH1 0x0 REVERT JUMPDEST POP POP POP POP PUSH1 0x0 PUSH2 0x1865 DUP7 DUP7 DUP6 DUP2 DUP2 LT PUSH2 0x1858 JUMPI PUSH2 0x1857 PUSH2 0x288A JUMP JUMPDEST JUMPDEST SWAP1 POP PUSH1 0x20 MUL ADD CALLDATALOAD DUP6 PUSH2 0x1C97 JUMP JUMPDEST SWAP1 POP PUSH1 0x0 DUP3 PUSH1 0x40 ADD MLOAD DUP3 PUSH2 0x1879 SWAP2 SWAP1 PUSH2 0x2A60 JUMP JUMPDEST SWAP1 POP PUSH1 0x4 PUSH1 0x0 DUP7 PUSH20 0xFFFFFFFFFFFFFFFFFFFFFFFFFFFFFFFFFFFFFFFF AND PUSH20 0xFFFFFFFFFFFFFFFFFFFFFFFFFFFFFFFFFFFFFFFF AND DUP2 MSTORE PUSH1 0x20 ADD SWAP1 DUP2 MSTORE PUSH1 0x20 ADD PUSH1 0x0 KECCAK256 PUSH1 0x0 ADD PUSH1 0x0 SWAP1 SLOAD SWAP1 PUSH2 0x100 EXP SWAP1 DIV PUSH20 0xFFFFFFFFFFFFFFFFFFFFFFFFFFFFFFFFFFFFFFFF AND PUSH20 0xFFFFFFFFFFFFFFFFFFFFFFFFFFFFFFFFFFFFFFFF AND PUSH4 0x40C10F19 CALLER DUP4 PUSH1 0x40 MLOAD DUP4 PUSH4 0xFFFFFFFF AND PUSH1 0xE0 SHL DUP2 MSTORE PUSH1 0x4 ADD PUSH2 0x1918 SWAP3 SWAP2 SWAP1 PUSH2 0x2A94 JUMP JUMPDEST PUSH1 0x0 PUSH1 0x40 MLOAD DUP1 DUP4 SUB DUP2 PUSH1 0x0 DUP8 DUP1 EXTCODESIZE ISZERO DUP1 ISZERO PUSH2 0x1932 JUMPI PUSH1 0x0 DUP1 REVERT JUMPDEST POP GAS CALL ISZERO DUP1 ISZERO PUSH2 0x1946 JUMPI RETURNDATASIZE PUSH1 0x0 DUP1 RETURNDATACOPY RETURNDATASIZE PUSH1 0x0 REVERT JUMPDEST POP POP POP POP DUP2 PUSH1 0x3 PUSH1 0x0 DUP8 PUSH20 0xFFFFFFFFFFFFFFFFFFFFFFFFFFFFFFFFFFFFFFFF AND PUSH20 0xFFFFFFFFFFFFFFFFFFFFFFFFFFFFFFFFFFFFFFFF AND DUP2 MSTORE PUSH1 0x20 ADD SWAP1 DUP2 MSTORE PUSH1 0x20 ADD PUSH1 0x0 KECCAK256 PUSH1 0x0 DUP10 DUP10 DUP9 DUP2 DUP2 LT PUSH2 0x199F JUMPI PUSH2 0x199E PUSH2 0x288A JUMP JUMPDEST JUMPDEST SWAP1 POP PUSH1 0x20 MUL ADD CALLDATALOAD DUP2 MSTORE PUSH1 0x20 ADD SWAP1 DUP2 MSTORE PUSH1 0x20 ADD PUSH1 0x0 KECCAK256 PUSH1 0x2 ADD DUP2 SWAP1 SSTORE POP PUSH1 0x1 PUSH1 0x3 PUSH1 0x0 DUP8 PUSH20 0xFFFFFFFFFFFFFFFFFFFFFFFFFFFFFFFFFFFFFFFF AND PUSH20 0xFFFFFFFFFFFFFFFFFFFFFFFFFFFFFFFFFFFFFFFF AND DUP2 MSTORE PUSH1 0x20 ADD SWAP1 DUP2 MSTORE PUSH1 0x20 ADD PUSH1 0x0 KECCAK256 PUSH1 0x0 DUP10 DUP10 DUP9 DUP2 DUP2 LT PUSH2 0x1A11 JUMPI PUSH2 0x1A10 PUSH2 0x288A JUMP JUMPDEST JUMPDEST SWAP1 POP PUSH1 0x20 MUL ADD CALLDATALOAD DUP2 MSTORE PUSH1 0x20 ADD SWAP1 DUP2 MSTORE PUSH1 0x20 ADD PUSH1 0x0 KECCAK256 PUSH1 0x3 ADD PUSH1 0x0 PUSH2 0x100 EXP DUP2 SLOAD DUP2 PUSH1 0xFF MUL NOT AND SWAP1 DUP4 ISZERO ISZERO MUL OR SWAP1 SSTORE POP POP POP POP DUP1 DUP1 PUSH2 0x1A4E SWAP1 PUSH2 0x2ABD JUMP JUMPDEST SWAP2 POP POP PUSH2 0x1550 JUMP JUMPDEST POP CALLER PUSH20 0xFFFFFFFFFFFFFFFFFFFFFFFFFFFFFFFFFFFFFFFF AND PUSH32 0x5CB48022479B9AC3BFB10A27965DC010ACFFC9FC1BC9A52F0B18975B944B54CA DUP5 DUP5 PUSH1 0x40 MLOAD PUSH2 0x1A9F SWAP3 SWAP2 SWAP1 PUSH2 0x2D03 JUMP JUMPDEST PUSH1 0x40 MLOAD DUP1 SWAP2 SUB SWAP1 LOG2 PUSH1 0x1 DUP1 DUP2 SWAP1 SSTORE POP POP POP POP JUMP JUMPDEST PUSH1 0x3 PUSH1 0x20 MSTORE DUP2 PUSH1 0x0 MSTORE PUSH1 0x40 PUSH1 0x0 KECCAK256 PUSH1 0x20 MSTORE DUP1 PUSH1 0x0 MSTORE PUSH1 0x40 PUSH1 0x0 KECCAK256 PUSH1 0x0 SWAP2 POP SWAP2 POP POP DUP1 PUSH1 0x0 ADD PUSH1 0x0 SWAP1 SLOAD SWAP1 PUSH2 0x100 EXP SWAP1 DIV PUSH20 0xFFFFFFFFFFFFFFFFFFFFFFFFFFFFFFFFFFFFFFFF AND SWAP1 DUP1 PUSH1 0x1 ADD SLOAD SWAP1 DUP1 PUSH1 0x2 ADD SLOAD SWAP1 DUP1 PUSH1 0x3 ADD PUSH1 0x0 SWAP1 SLOAD SWAP1 PUSH2 0x100 EXP SWAP1 DIV PUSH1 0xFF AND SWAP1 DUP1 PUSH1 0x3 ADD PUSH1 0x1 SWAP1 SLOAD SWAP1 PUSH2 0x100 EXP SWAP1 DIV PUSH20 0xFFFFFFFFFFFFFFFFFFFFFFFFFFFFFFFFFFFFFFFF AND SWAP1 POP DUP6 JUMP JUMPDEST PUSH1 0x0 PUSH1 0x3 PUSH1 0x0 DUP4 PUSH20 0xFFFFFFFFFFFFFFFFFFFFFFFFFFFFFFFFFFFFFFFF AND PUSH20 0xFFFFFFFFFFFFFFFFFFFFFFFFFFFFFFFFFFFFFFFF AND DUP2 MSTORE PUSH1 0x20 ADD SWAP1 DUP2 MSTORE PUSH1 0x20 ADD PUSH1 0x0 KECCAK256 PUSH1 0x0 DUP5 DUP2 MSTORE PUSH1 0x20 ADD SWAP1 DUP2 MSTORE PUSH1 0x20 ADD PUSH1 0x0 KECCAK256 PUSH1 0x2 ADD SLOAD SWAP1 POP SWAP3 SWAP2 POP POP JUMP JUMPDEST PUSH1 0x5 SLOAD DUP2 JUMP JUMPDEST PUSH1 0x4 PUSH1 0x20 MSTORE DUP1 PUSH1 0x0 MSTORE PUSH1 0x40 PUSH1 0x0 KECCAK256 PUSH1 0x0 SWAP2 POP SWAP1 POP DUP1 PUSH1 0x0 ADD PUSH1 0x0 SWAP1 SLOAD SWAP1 PUSH2 0x100 EXP SWAP1 DIV PUSH20 0xFFFFFFFFFFFFFFFFFFFFFFFFFFFFFFFFFFFFFFFF AND SWAP1 DUP1 PUSH1 0x1 ADD SLOAD SWAP1 DUP1 PUSH1 0x2 ADD SLOAD SWAP1 POP DUP4 JUMP JUMPDEST PUSH2 0x1BF9 PUSH2 0x1E75 JUMP JUMPDEST PUSH1 0x0 PUSH20 0xFFFFFFFFFFFFFFFFFFFFFFFFFFFFFFFFFFFFFFFF AND DUP2 PUSH20 0xFFFFFFFFFFFFFFFFFFFFFFFFFFFFFFFFFFFFFFFF AND SUB PUSH2 0x1C68 JUMPI PUSH1 0x40 MLOAD PUSH32 0x8C379A000000000000000000000000000000000000000000000000000000000 DUP2 MSTORE PUSH1 0x4 ADD PUSH2 0x1C5F SWAP1 PUSH2 0x309D JUMP JUMPDEST PUSH1 0x40 MLOAD DUP1 SWAP2 SUB SWAP1 REVERT JUMPDEST PUSH2 0x1C71 DUP2 PUSH2 0x1EF3 JUMP JUMPDEST POP JUMP JUMPDEST PUSH1 0x0 DUP1 DUP3 PUSH20 0xFFFFFFFFFFFFFFFFFFFFFFFFFFFFFFFFFFFFFFFF AND EXTCODESIZE GT SWAP1 POP SWAP2 SWAP1 POP JUMP JUMPDEST PUSH1 0x0 DUP1 PUSH1 0x3 PUSH1 0x0 DUP5 PUSH20 0xFFFFFFFFFFFFFFFFFFFFFFFFFFFFFFFFFFFFFFFF AND PUSH20 0xFFFFFFFFFFFFFFFFFFFFFFFFFFFFFFFFFFFFFFFF AND DUP2 MSTORE PUSH1 0x20 ADD SWAP1 DUP2 MSTORE PUSH1 0x20 ADD PUSH1 0x0 KECCAK256 PUSH1 0x0 DUP6 DUP2 MSTORE PUSH1 0x20 ADD SWAP1 DUP2 MSTORE PUSH1 0x20 ADD PUSH1 0x0 KECCAK256 PUSH1 0x40 MLOAD DUP1 PUSH1 0xA0 ADD PUSH1 0x40 MSTORE SWAP1 DUP2 PUSH1 0x0 DUP3 ADD PUSH1 0x0 SWAP1 SLOAD SWAP1 PUSH2 0x100 EXP SWAP1 DIV PUSH20 0xFFFFFFFFFFFFFFFFFFFFFFFFFFFFFFFFFFFFFFFF AND PUSH20 0xFFFFFFFFFFFFFFFFFFFFFFFFFFFFFFFFFFFFFFFF AND PUSH20 0xFFFFFFFFFFFFFFFFFFFFFFFFFFFFFFFFFFFFFFFF AND DUP2 MSTORE PUSH1 0x20 ADD PUSH1 0x1 DUP3 ADD SLOAD DUP2 MSTORE PUSH1 0x20 ADD PUSH1 0x2 DUP3 ADD SLOAD DUP2 MSTORE PUSH1 0x20 ADD PUSH1 0x3 DUP3 ADD PUSH1 0x0 SWAP1 SLOAD SWAP1 PUSH2 0x100 EXP SWAP1 DIV PUSH1 0xFF AND ISZERO ISZERO ISZERO ISZERO DUP2 MSTORE PUSH1 0x20 ADD PUSH1 0x3 DUP3 ADD PUSH1 0x1 SWAP1 SLOAD SWAP1 PUSH2 0x100 EXP SWAP1 DIV PUSH20 0xFFFFFFFFFFFFFFFFFFFFFFFFFFFFFFFFFFFFFFFF AND PUSH20 0xFFFFFFFFFFFFFFFFFFFFFFFFFFFFFFFFFFFFFFFF AND PUSH20 0xFFFFFFFFFFFFFFFFFFFFFFFFFFFFFFFFFFFFFFFF AND DUP2 MSTORE POP POP SWAP1 POP PUSH1 0x0 DUP2 PUSH1 0x20 ADD MLOAD TIMESTAMP PUSH2 0x1DE4 SWAP2 SWAP1 PUSH2 0x2A60 JUMP JUMPDEST SWAP1 POP PUSH1 0x0 PUSH1 0x2 SLOAD DUP3 LT ISZERO PUSH2 0x1DFE JUMPI PUSH1 0x0 SWAP4 POP POP POP POP PUSH2 0x1E6F JUMP JUMPDEST PUSH1 0x5 SLOAD PUSH1 0x2 SLOAD DUP4 PUSH2 0x1E0F SWAP2 SWAP1 PUSH2 0x2A60 JUMP JUMPDEST PUSH1 0x4 PUSH1 0x0 DUP9 PUSH20 0xFFFFFFFFFFFFFFFFFFFFFFFFFFFFFFFFFFFFFFFF AND PUSH20 0xFFFFFFFFFFFFFFFFFFFFFFFFFFFFFFFFFFFFFFFF AND DUP2 MSTORE PUSH1 0x20 ADD SWAP1 DUP2 MSTORE PUSH1 0x20 ADD PUSH1 0x0 KECCAK256 PUSH1 0x1 ADD SLOAD PUSH2 0x1E5C SWAP2 SWAP1 PUSH2 0x30BD JUMP JUMPDEST PUSH2 0x1E66 SWAP2 SWAP1 PUSH2 0x3146 JUMP JUMPDEST SWAP1 POP DUP1 SWAP4 POP POP POP POP JUMPDEST SWAP3 SWAP2 POP POP JUMP JUMPDEST PUSH2 0x1E7D PUSH2 0x1FB7 JUMP JUMPDEST PUSH20 0xFFFFFFFFFFFFFFFFFFFFFFFFFFFFFFFFFFFFFFFF AND PUSH2 0x1E9B PUSH2 0x12F3 JUMP JUMPDEST PUSH20 0xFFFFFFFFFFFFFFFFFFFFFFFFFFFFFFFFFFFFFFFF AND EQ PUSH2 0x1EF1 JUMPI PUSH1 0x40 MLOAD PUSH32 0x8C379A000000000000000000000000000000000000000000000000000000000 DUP2 MSTORE PUSH1 0x4 ADD PUSH2 0x1EE8 SWAP1 PUSH2 0x31C3 JUMP JUMPDEST PUSH1 0x40 MLOAD DUP1 SWAP2 SUB SWAP1 REVERT JUMPDEST JUMP JUMPDEST PUSH1 0x0 DUP1 PUSH1 0x0 SWAP1 SLOAD SWAP1 PUSH2 0x100 EXP SWAP1 DIV PUSH20 0xFFFFFFFFFFFFFFFFFFFFFFFFFFFFFFFFFFFFFFFF AND SWAP1 POP DUP2 PUSH1 0x0 DUP1 PUSH2 0x100 EXP DUP2 SLOAD DUP2 PUSH20 0xFFFFFFFFFFFFFFFFFFFFFFFFFFFFFFFFFFFFFFFF MUL NOT AND SWAP1 DUP4 PUSH20 0xFFFFFFFFFFFFFFFFFFFFFFFFFFFFFFFFFFFFFFFF AND MUL OR SWAP1 SSTORE POP DUP2 PUSH20 0xFFFFFFFFFFFFFFFFFFFFFFFFFFFFFFFFFFFFFFFF AND DUP2 PUSH20 0xFFFFFFFFFFFFFFFFFFFFFFFFFFFFFFFFFFFFFFFF AND PUSH32 0x8BE0079C531659141344CD1FD0A4F28419497F9722A3DAAFE3B4186F6B6457E0 PUSH1 0x40 MLOAD PUSH1 0x40 MLOAD DUP1 SWAP2 SUB SWAP1 LOG3 POP POP JUMP JUMPDEST PUSH1 0x0 CALLER SWAP1 POP SWAP1 JUMP JUMPDEST PUSH1 0x0 PUSH1 0x40 MLOAD SWAP1 POP SWAP1 JUMP JUMPDEST PUSH1 0x0 DUP1 REVERT JUMPDEST PUSH1 0x0 DUP1 REVERT JUMPDEST PUSH1 0x0 DUP1 REVERT JUMPDEST PUSH1 0x0 DUP1 REVERT JUMPDEST PUSH1 0x0 DUP1 REVERT JUMPDEST PUSH1 0x0 DUP1 DUP4 PUSH1 0x1F DUP5 ADD SLT PUSH2 0x1FF8 JUMPI PUSH2 0x1FF7 PUSH2 0x1FD3 JUMP JUMPDEST JUMPDEST DUP3 CALLDATALOAD SWAP1 POP PUSH8 0xFFFFFFFFFFFFFFFF DUP2 GT ISZERO PUSH2 0x2015 JUMPI PUSH2 0x2014 PUSH2 0x1FD8 JUMP JUMPDEST JUMPDEST PUSH1 0x20 DUP4 ADD SWAP2 POP DUP4 PUSH1 0x20 DUP3 MUL DUP4 ADD GT ISZERO PUSH2 0x2031 JUMPI PUSH2 0x2030 PUSH2 0x1FDD JUMP JUMPDEST JUMPDEST SWAP3 POP SWAP3 SWAP1 POP JUMP JUMPDEST PUSH1 0x0 PUSH20 0xFFFFFFFFFFFFFFFFFFFFFFFFFFFFFFFFFFFFFFFF DUP3 AND SWAP1 POP SWAP2 SWAP1 POP JUMP JUMPDEST PUSH1 0x0 PUSH2 0x2063 DUP3 PUSH2 0x2038 JUMP JUMPDEST SWAP1 POP SWAP2 SWAP1 POP JUMP JUMPDEST PUSH1 0x0 PUSH2 0x2075 DUP3 PUSH2 0x2058 JUMP JUMPDEST SWAP1 POP SWAP2 SWAP1 POP JUMP JUMPDEST PUSH2 0x2085 DUP2 PUSH2 0x206A JUMP JUMPDEST DUP2 EQ PUSH2 0x2090 JUMPI PUSH1 0x0 DUP1 REVERT JUMPDEST POP JUMP JUMPDEST PUSH1 0x0 DUP2 CALLDATALOAD SWAP1 POP PUSH2 0x20A2 DUP2 PUSH2 0x207C JUMP JUMPDEST SWAP3 SWAP2 POP POP JUMP JUMPDEST PUSH1 0x0 DUP1 PUSH1 0x0 PUSH1 0x40 DUP5 DUP7 SUB SLT ISZERO PUSH2 0x20C1 JUMPI PUSH2 0x20C0 PUSH2 0x1FC9 JUMP JUMPDEST JUMPDEST PUSH1 0x0 DUP5 ADD CALLDATALOAD PUSH8 0xFFFFFFFFFFFFFFFF DUP2 GT ISZERO PUSH2 0x20DF JUMPI PUSH2 0x20DE PUSH2 0x1FCE JUMP JUMPDEST JUMPDEST PUSH2 0x20EB DUP7 DUP3 DUP8 ADD PUSH2 0x1FE2 JUMP JUMPDEST SWAP4 POP SWAP4 POP POP PUSH1 0x20 PUSH2 0x20FE DUP7 DUP3 DUP8 ADD PUSH2 0x2093 JUMP JUMPDEST SWAP2 POP POP SWAP3 POP SWAP3 POP SWAP3 JUMP JUMPDEST PUSH1 0x0 PUSH1 0x1F NOT PUSH1 0x1F DUP4 ADD AND SWAP1 POP SWAP2 SWAP1 POP JUMP JUMPDEST PUSH32 0x4E487B7100000000000000000000000000000000000000000000000000000000 PUSH1 0x0 MSTORE PUSH1 0x41 PUSH1 0x4 MSTORE PUSH1 0x24 PUSH1 0x0 REVERT JUMPDEST PUSH2 0x2151 DUP3 PUSH2 0x2108 JUMP JUMPDEST DUP2 ADD DUP2 DUP2 LT PUSH8 0xFFFFFFFFFFFFFFFF DUP3 GT OR ISZERO PUSH2 0x2170 JUMPI PUSH2 0x216F PUSH2 0x2119 JUMP JUMPDEST JUMPDEST DUP1 PUSH1 0x40 MSTORE POP POP POP JUMP JUMPDEST PUSH1 0x0 PUSH2 0x2183 PUSH2 0x1FBF JUMP JUMPDEST SWAP1 POP PUSH2 0x218F DUP3 DUP3 PUSH2 0x2148 JUMP JUMPDEST SWAP2 SWAP1 POP JUMP JUMPDEST PUSH1 0x0 PUSH8 0xFFFFFFFFFFFFFFFF DUP3 GT ISZERO PUSH2 0x21AF JUMPI PUSH2 0x21AE PUSH2 0x2119 JUMP JUMPDEST JUMPDEST PUSH1 0x20 DUP3 MUL SWAP1 POP PUSH1 0x20 DUP2 ADD SWAP1 POP SWAP2 SWAP1 POP JUMP JUMPDEST PUSH2 0x21C9 DUP2 PUSH2 0x2058 JUMP JUMPDEST DUP2 EQ PUSH2 0x21D4 JUMPI PUSH1 0x0 DUP1 REVERT JUMPDEST POP JUMP JUMPDEST PUSH1 0x0 DUP2 CALLDATALOAD SWAP1 POP PUSH2 0x21E6 DUP2 PUSH2 0x21C0 JUMP JUMPDEST SWAP3 SWAP2 POP POP JUMP JUMPDEST PUSH1 0x0 PUSH2 0x21FF PUSH2 0x21FA DUP5 PUSH2 0x2194 JUMP JUMPDEST PUSH2 0x2179 JUMP JUMPDEST SWAP1 POP DUP1 DUP4 DUP3 MSTORE PUSH1 0x20 DUP3 ADD SWAP1 POP PUSH1 0x20 DUP5 MUL DUP4 ADD DUP6 DUP2 GT ISZERO PUSH2 0x2222 JUMPI PUSH2 0x2221 PUSH2 0x1FDD JUMP JUMPDEST JUMPDEST DUP4 JUMPDEST DUP2 DUP2 LT ISZERO PUSH2 0x224B JUMPI DUP1 PUSH2 0x2237 DUP9 DUP3 PUSH2 0x21D7 JUMP JUMPDEST DUP5 MSTORE PUSH1 0x20 DUP5 ADD SWAP4 POP POP PUSH1 0x20 DUP2 ADD SWAP1 POP PUSH2 0x2224 JUMP JUMPDEST POP POP POP SWAP4 SWAP3 POP POP POP JUMP JUMPDEST PUSH1 0x0 DUP3 PUSH1 0x1F DUP4 ADD SLT PUSH2 0x226A JUMPI PUSH2 0x2269 PUSH2 0x1FD3 JUMP JUMPDEST JUMPDEST DUP2 CALLDATALOAD PUSH2 0x227A DUP5 DUP3 PUSH1 0x20 DUP7 ADD PUSH2 0x21EC JUMP JUMPDEST SWAP2 POP POP SWAP3 SWAP2 POP POP JUMP JUMPDEST PUSH1 0x0 PUSH8 0xFFFFFFFFFFFFFFFF DUP3 GT ISZERO PUSH2 0x229E JUMPI PUSH2 0x229D PUSH2 0x2119 JUMP JUMPDEST JUMPDEST PUSH1 0x20 DUP3 MUL SWAP1 POP PUSH1 0x20 DUP2 ADD SWAP1 POP SWAP2 SWAP1 POP JUMP JUMPDEST PUSH1 0x0 DUP2 SWAP1 POP SWAP2 SWAP1 POP JUMP JUMPDEST PUSH2 0x22C2 DUP2 PUSH2 0x22AF JUMP JUMPDEST DUP2 EQ PUSH2 0x22CD JUMPI PUSH1 0x0 DUP1 REVERT JUMPDEST POP JUMP JUMPDEST PUSH1 0x0 DUP2 CALLDATALOAD SWAP1 POP PUSH2 0x22DF DUP2 PUSH2 0x22B9 JUMP JUMPDEST SWAP3 SWAP2 POP POP JUMP JUMPDEST PUSH1 0x0 PUSH2 0x22F8 PUSH2 0x22F3 DUP5 PUSH2 0x2283 JUMP JUMPDEST PUSH2 0x2179 JUMP JUMPDEST SWAP1 POP DUP1 DUP4 DUP3 MSTORE PUSH1 0x20 DUP3 ADD SWAP1 POP PUSH1 0x20 DUP5 MUL DUP4 ADD DUP6 DUP2 GT ISZERO PUSH2 0x231B JUMPI PUSH2 0x231A PUSH2 0x1FDD JUMP JUMPDEST JUMPDEST DUP4 JUMPDEST DUP2 DUP2 LT ISZERO PUSH2 0x2344 JUMPI DUP1 PUSH2 0x2330 DUP9 DUP3 PUSH2 0x22D0 JUMP JUMPDEST DUP5 MSTORE PUSH1 0x20 DUP5 ADD SWAP4 POP POP PUSH1 0x20 DUP2 ADD SWAP1 POP PUSH2 0x231D JUMP JUMPDEST POP POP POP SWAP4 SWAP3 POP POP POP JUMP JUMPDEST PUSH1 0x0 DUP3 PUSH1 0x1F DUP4 ADD SLT PUSH2 0x2363 JUMPI PUSH2 0x2362 PUSH2 0x1FD3 JUMP JUMPDEST JUMPDEST DUP2 CALLDATALOAD PUSH2 0x2373 DUP5 DUP3 PUSH1 0x20 DUP7 ADD PUSH2 0x22E5 JUMP JUMPDEST SWAP2 POP POP SWAP3 SWAP2 POP POP JUMP JUMPDEST PUSH1 0x0 DUP1 PUSH1 0x0 PUSH1 0x60 DUP5 DUP7 SUB SLT ISZERO PUSH2 0x2395 JUMPI PUSH2 0x2394 PUSH2 0x1FC9 JUMP JUMPDEST JUMPDEST PUSH1 0x0 DUP5 ADD CALLDATALOAD PUSH8 0xFFFFFFFFFFFFFFFF DUP2 GT ISZERO PUSH2 0x23B3 JUMPI PUSH2 0x23B2 PUSH2 0x1FCE JUMP JUMPDEST JUMPDEST PUSH2 0x23BF DUP7 DUP3 DUP8 ADD PUSH2 0x2255 JUMP JUMPDEST SWAP4 POP POP PUSH1 0x20 DUP5 ADD CALLDATALOAD PUSH8 0xFFFFFFFFFFFFFFFF DUP2 GT ISZERO PUSH2 0x23E0 JUMPI PUSH2 0x23DF PUSH2 0x1FCE JUMP JUMPDEST JUMPDEST PUSH2 0x23EC DUP7 DUP3 DUP8 ADD PUSH2 0x2255 JUMP JUMPDEST SWAP3 POP POP PUSH1 0x40 DUP5 ADD CALLDATALOAD PUSH8 0xFFFFFFFFFFFFFFFF DUP2 GT ISZERO PUSH2 0x240D JUMPI PUSH2 0x240C PUSH2 0x1FCE JUMP JUMPDEST JUMPDEST PUSH2 0x2419 DUP7 DUP3 DUP8 ADD PUSH2 0x234E JUMP JUMPDEST SWAP2 POP POP SWAP3 POP SWAP3 POP SWAP3 JUMP JUMPDEST PUSH2 0x242C DUP2 PUSH2 0x22AF JUMP JUMPDEST DUP3 MSTORE POP POP JUMP JUMPDEST PUSH1 0x0 PUSH1 0x20 DUP3 ADD SWAP1 POP PUSH2 0x2447 PUSH1 0x0 DUP4 ADD DUP5 PUSH2 0x2423 JUMP JUMPDEST SWAP3 SWAP2 POP POP JUMP JUMPDEST PUSH1 0x0 PUSH1 0x20 DUP3 DUP5 SUB SLT ISZERO PUSH2 0x2463 JUMPI PUSH2 0x2462 PUSH2 0x1FC9 JUMP JUMPDEST JUMPDEST PUSH1 0x0 PUSH2 0x2471 DUP5 DUP3 DUP6 ADD PUSH2 0x22D0 JUMP JUMPDEST SWAP2 POP POP SWAP3 SWAP2 POP POP JUMP JUMPDEST PUSH2 0x2483 DUP2 PUSH2 0x2058 JUMP JUMPDEST DUP3 MSTORE POP POP JUMP JUMPDEST PUSH1 0x0 PUSH1 0x20 DUP3 ADD SWAP1 POP PUSH2 0x249E PUSH1 0x0 DUP4 ADD DUP5 PUSH2 0x247A JUMP JUMPDEST SWAP3 SWAP2 POP POP JUMP JUMPDEST PUSH1 0x0 DUP1 PUSH1 0x40 DUP4 DUP6 SUB SLT ISZERO PUSH2 0x24BB JUMPI PUSH2 0x24BA PUSH2 0x1FC9 JUMP JUMPDEST JUMPDEST PUSH1 0x0 PUSH2 0x24C9 DUP6 DUP3 DUP7 ADD PUSH2 0x2093 JUMP JUMPDEST SWAP3 POP POP PUSH1 0x20 PUSH2 0x24DA DUP6 DUP3 DUP7 ADD PUSH2 0x22D0 JUMP JUMPDEST SWAP2 POP POP SWAP3 POP SWAP3 SWAP1 POP JUMP JUMPDEST PUSH1 0x0 DUP2 ISZERO ISZERO SWAP1 POP SWAP2 SWAP1 POP JUMP JUMPDEST PUSH2 0x24F9 DUP2 PUSH2 0x24E4 JUMP JUMPDEST DUP3 MSTORE POP POP JUMP JUMPDEST PUSH1 0x0 DUP2 SWAP1 POP SWAP2 SWAP1 POP JUMP JUMPDEST PUSH1 0x0 PUSH2 0x2524 PUSH2 0x251F PUSH2 0x251A DUP5 PUSH2 0x2038 JUMP JUMPDEST PUSH2 0x24FF JUMP JUMPDEST PUSH2 0x2038 JUMP JUMPDEST SWAP1 POP SWAP2 SWAP1 POP JUMP JUMPDEST PUSH1 0x0 PUSH2 0x2536 DUP3 PUSH2 0x2509 JUMP JUMPDEST SWAP1 POP SWAP2 SWAP1 POP JUMP JUMPDEST PUSH1 0x0 PUSH2 0x2548 DUP3 PUSH2 0x252B JUMP JUMPDEST SWAP1 POP SWAP2 SWAP1 POP JUMP JUMPDEST PUSH2 0x2558 DUP2 PUSH2 0x253D JUMP JUMPDEST DUP3 MSTORE POP POP JUMP JUMPDEST PUSH1 0x0 PUSH1 0xA0 DUP3 ADD SWAP1 POP PUSH2 0x2573 PUSH1 0x0 DUP4 ADD DUP9 PUSH2 0x247A JUMP JUMPDEST PUSH2 0x2580 PUSH1 0x20 DUP4 ADD DUP8 PUSH2 0x2423 JUMP JUMPDEST PUSH2 0x258D PUSH1 0x40 DUP4 ADD DUP7 PUSH2 0x2423 JUMP JUMPDEST PUSH2 0x259A PUSH1 0x60 DUP4 ADD DUP6 PUSH2 0x24F0 JUMP JUMPDEST PUSH2 0x25A7 PUSH1 0x80 DUP4 ADD DUP5 PUSH2 0x254F JUMP JUMPDEST SWAP7 SWAP6 POP POP POP POP POP POP JUMP JUMPDEST PUSH1 0x0 DUP1 PUSH1 0x40 DUP4 DUP6 SUB SLT ISZERO PUSH2 0x25C8 JUMPI PUSH2 0x25C7 PUSH2 0x1FC9 JUMP JUMPDEST JUMPDEST PUSH1 0x0 PUSH2 0x25D6 DUP6 DUP3 DUP7 ADD PUSH2 0x22D0 JUMP JUMPDEST SWAP3 POP POP PUSH1 0x20 PUSH2 0x25E7 DUP6 DUP3 DUP7 ADD PUSH2 0x2093 JUMP JUMPDEST SWAP2 POP POP SWAP3 POP SWAP3 SWAP1 POP JUMP JUMPDEST PUSH1 0x0 PUSH1 0x20 DUP3 DUP5 SUB SLT ISZERO PUSH2 0x2607 JUMPI PUSH2 0x2606 PUSH2 0x1FC9 JUMP JUMPDEST JUMPDEST PUSH1 0x0 PUSH2 0x2615 DUP5 DUP3 DUP6 ADD PUSH2 0x2093 JUMP JUMPDEST SWAP2 POP POP SWAP3 SWAP2 POP POP JUMP JUMPDEST PUSH1 0x0 PUSH2 0x2629 DUP3 PUSH2 0x252B JUMP JUMPDEST SWAP1 POP SWAP2 SWAP1 POP JUMP JUMPDEST PUSH2 0x2639 DUP2 PUSH2 0x261E JUMP JUMPDEST DUP3 MSTORE POP POP JUMP JUMPDEST PUSH1 0x0 PUSH1 0x60 DUP3 ADD SWAP1 POP PUSH2 0x2654 PUSH1 0x0 DUP4 ADD DUP7 PUSH2 0x2630 JUMP JUMPDEST PUSH2 0x2661 PUSH1 0x20 DUP4 ADD DUP6 PUSH2 0x2423 JUMP JUMPDEST PUSH2 0x266E PUSH1 0x40 DUP4 ADD DUP5 PUSH2 0x2423 JUMP JUMPDEST SWAP5 SWAP4 POP POP POP POP JUMP JUMPDEST PUSH1 0x0 PUSH1 0x20 DUP3 DUP5 SUB SLT ISZERO PUSH2 0x268C JUMPI PUSH2 0x268B PUSH2 0x1FC9 JUMP JUMPDEST JUMPDEST PUSH1 0x0 PUSH2 0x269A DUP5 DUP3 DUP6 ADD PUSH2 0x21D7 JUMP JUMPDEST SWAP2 POP POP SWAP3 SWAP2 POP POP JUMP JUMPDEST PUSH1 0x0 DUP3 DUP3 MSTORE PUSH1 0x20 DUP3 ADD SWAP1 POP SWAP3 SWAP2 POP POP JUMP JUMPDEST PUSH32 0x436F6E7472616374206E6F7420616C6C6F776564000000000000000000000000 PUSH1 0x0 DUP3 ADD MSTORE POP JUMP JUMPDEST PUSH1 0x0 PUSH2 0x26EA PUSH1 0x14 DUP4 PUSH2 0x26A3 JUMP JUMPDEST SWAP2 POP PUSH2 0x26F5 DUP3 PUSH2 0x26B4 JUMP JUMPDEST PUSH1 0x20 DUP3 ADD SWAP1 POP SWAP2 SWAP1 POP JUMP JUMPDEST PUSH1 0x0 PUSH1 0x20 DUP3 ADD SWAP1 POP DUP2 DUP2 SUB PUSH1 0x0 DUP4 ADD MSTORE PUSH2 0x2719 DUP2 PUSH2 0x26DD JUMP JUMPDEST SWAP1 POP SWAP2 SWAP1 POP JUMP JUMPDEST PUSH32 0x50726F787920636F6E7472616374206E6F7420616C6C6F776564000000000000 PUSH1 0x0 DUP3 ADD MSTORE POP JUMP JUMPDEST PUSH1 0x0 PUSH2 0x2756 PUSH1 0x1A DUP4 PUSH2 0x26A3 JUMP JUMPDEST SWAP2 POP PUSH2 0x2761 DUP3 PUSH2 0x2720 JUMP JUMPDEST PUSH1 0x20 DUP3 ADD SWAP1 POP SWAP2 SWAP1 POP JUMP JUMPDEST PUSH1 0x0 PUSH1 0x20 DUP3 ADD SWAP1 POP DUP2 DUP2 SUB PUSH1 0x0 DUP4 ADD MSTORE PUSH2 0x2785 DUP2 PUSH2 0x2749 JUMP JUMPDEST SWAP1 POP SWAP2 SWAP1 POP JUMP JUMPDEST PUSH32 0x5374616B696E673A20526567697374657220636F6C6C656374696F6E20627920 PUSH1 0x0 DUP3 ADD MSTORE PUSH32 0x6164645374616B696E674E667473000000000000000000000000000000000000 PUSH1 0x20 DUP3 ADD MSTORE POP JUMP JUMPDEST PUSH1 0x0 PUSH2 0x27E8 PUSH1 0x2E DUP4 PUSH2 0x26A3 JUMP JUMPDEST SWAP2 POP PUSH2 0x27F3 DUP3 PUSH2 0x278C JUMP JUMPDEST PUSH1 0x40 DUP3 ADD SWAP1 POP SWAP2 SWAP1 POP JUMP JUMPDEST PUSH1 0x0 PUSH1 0x20 DUP3 ADD SWAP1 POP DUP2 DUP2 SUB PUSH1 0x0 DUP4 ADD MSTORE PUSH2 0x2817 DUP2 PUSH2 0x27DB JUMP JUMPDEST SWAP1 POP SWAP2 SWAP1 POP JUMP JUMPDEST PUSH32 0x4E6F20746F6B656E730000000000000000000000000000000000000000000000 PUSH1 0x0 DUP3 ADD MSTORE POP JUMP JUMPDEST PUSH1 0x0 PUSH2 0x2854 PUSH1 0x9 DUP4 PUSH2 0x26A3 JUMP JUMPDEST SWAP2 POP PUSH2 0x285F DUP3 PUSH2 0x281E JUMP JUMPDEST PUSH1 0x20 DUP3 ADD SWAP1 POP SWAP2 SWAP1 POP JUMP JUMPDEST PUSH1 0x0 PUSH1 0x20 DUP3 ADD SWAP1 POP DUP2 DUP2 SUB PUSH1 0x0 DUP4 ADD MSTORE PUSH2 0x2883 DUP2 PUSH2 0x2847 JUMP JUMPDEST SWAP1 POP SWAP2 SWAP1 POP JUMP JUMPDEST PUSH32 0x4E487B7100000000000000000000000000000000000000000000000000000000 PUSH1 0x0 MSTORE PUSH1 0x32 PUSH1 0x4 MSTORE PUSH1 0x24 PUSH1 0x0 REVERT JUMPDEST PUSH32 0x4E6F74206120746F6B656E206F776E6572000000000000000000000000000000 PUSH1 0x0 DUP3 ADD MSTORE POP JUMP JUMPDEST PUSH1 0x0 PUSH2 0x28EF PUSH1 0x11 DUP4 PUSH2 0x26A3 JUMP JUMPDEST SWAP2 POP PUSH2 0x28FA DUP3 PUSH2 0x28B9 JUMP JUMPDEST PUSH1 0x20 DUP3 ADD SWAP1 POP SWAP2 SWAP1 POP JUMP JUMPDEST PUSH1 0x0 PUSH1 0x20 DUP3 ADD SWAP1 POP DUP2 DUP2 SUB PUSH1 0x0 DUP4 ADD MSTORE PUSH2 0x291E DUP2 PUSH2 0x28E2 JUMP JUMPDEST SWAP1 POP SWAP2 SWAP1 POP JUMP JUMPDEST PUSH32 0x4E487B7100000000000000000000000000000000000000000000000000000000 PUSH1 0x0 MSTORE PUSH1 0x11 PUSH1 0x4 MSTORE PUSH1 0x24 PUSH1 0x0 REVERT JUMPDEST PUSH1 0x0 PUSH2 0x295F DUP3 PUSH2 0x22AF JUMP JUMPDEST SWAP2 POP PUSH2 0x296A DUP4 PUSH2 0x22AF JUMP JUMPDEST SWAP3 POP DUP3 DUP3 ADD SWAP1 POP DUP1 DUP3 GT ISZERO PUSH2 0x2982 JUMPI PUSH2 0x2981 PUSH2 0x2925 JUMP JUMPDEST JUMPDEST SWAP3 SWAP2 POP POP JUMP JUMPDEST PUSH32 0x4E6F742061626C6520746F20636C61696D207965740000000000000000000000 PUSH1 0x0 DUP3 ADD MSTORE POP JUMP JUMPDEST PUSH1 0x0 PUSH2 0x29BE PUSH1 0x15 DUP4 PUSH2 0x26A3 JUMP JUMPDEST SWAP2 POP PUSH2 0x29C9 DUP3 PUSH2 0x2988 JUMP JUMPDEST PUSH1 0x20 DUP3 ADD SWAP1 POP SWAP2 SWAP1 POP JUMP JUMPDEST PUSH1 0x0 PUSH1 0x20 DUP3 ADD SWAP1 POP DUP2 DUP2 SUB PUSH1 0x0 DUP4 ADD MSTORE PUSH2 0x29ED DUP2 PUSH2 0x29B1 JUMP JUMPDEST SWAP1 POP SWAP2 SWAP1 POP JUMP JUMPDEST PUSH32 0x416C726561647920756E6C6F636B656400000000000000000000000000000000 PUSH1 0x0 DUP3 ADD MSTORE POP JUMP JUMPDEST PUSH1 0x0 PUSH2 0x2A2A PUSH1 0x10 DUP4 PUSH2 0x26A3 JUMP JUMPDEST SWAP2 POP PUSH2 0x2A35 DUP3 PUSH2 0x29F4 JUMP JUMPDEST PUSH1 0x20 DUP3 ADD SWAP1 POP SWAP2 SWAP1 POP JUMP JUMPDEST PUSH1 0x0 PUSH1 0x20 DUP3 ADD SWAP1 POP DUP2 DUP2 SUB PUSH1 0x0 DUP4 ADD MSTORE PUSH2 0x2A59 DUP2 PUSH2 0x2A1D JUMP JUMPDEST SWAP1 POP SWAP2 SWAP1 POP JUMP JUMPDEST PUSH1 0x0 PUSH2 0x2A6B DUP3 PUSH2 0x22AF JUMP JUMPDEST SWAP2 POP PUSH2 0x2A76 DUP4 PUSH2 0x22AF JUMP JUMPDEST SWAP3 POP DUP3 DUP3 SUB SWAP1 POP DUP2 DUP2 GT ISZERO PUSH2 0x2A8E JUMPI PUSH2 0x2A8D PUSH2 0x2925 JUMP JUMPDEST JUMPDEST SWAP3 SWAP2 POP POP JUMP JUMPDEST PUSH1 0x0 PUSH1 0x40 DUP3 ADD SWAP1 POP PUSH2 0x2AA9 PUSH1 0x0 DUP4 ADD DUP6 PUSH2 0x247A JUMP JUMPDEST PUSH2 0x2AB6 PUSH1 0x20 DUP4 ADD DUP5 PUSH2 0x2423 JUMP JUMPDEST SWAP4 SWAP3 POP POP POP JUMP JUMPDEST PUSH1 0x0 PUSH2 0x2AC8 DUP3 PUSH2 0x22AF JUMP JUMPDEST SWAP2 POP PUSH32 0xFFFFFFFFFFFFFFFFFFFFFFFFFFFFFFFFFFFFFFFFFFFFFFFFFFFFFFFFFFFFFFFF DUP3 SUB PUSH2 0x2AFA JUMPI PUSH2 0x2AF9 PUSH2 0x2925 JUMP JUMPDEST JUMPDEST PUSH1 0x1 DUP3 ADD SWAP1 POP SWAP2 SWAP1 POP JUMP JUMPDEST PUSH1 0x0 DUP3 DUP3 MSTORE PUSH1 0x20 DUP3 ADD SWAP1 POP SWAP3 SWAP2 POP POP JUMP JUMPDEST PUSH1 0x0 DUP1 REVERT JUMPDEST DUP3 DUP2 DUP4 CALLDATACOPY POP POP POP JUMP JUMPDEST PUSH1 0x0 PUSH2 0x2B30 DUP4 DUP6 PUSH2 0x2B05 JUMP JUMPDEST SWAP4 POP PUSH32 0x7FFFFFFFFFFFFFFFFFFFFFFFFFFFFFFFFFFFFFFFFFFFFFFFFFFFFFFFFFFFFFF DUP4 GT ISZERO PUSH2 0x2B63 JUMPI PUSH2 0x2B62 PUSH2 0x2B16 JUMP JUMPDEST JUMPDEST PUSH1 0x20 DUP4 MUL SWAP3 POP PUSH2 0x2B74 DUP4 DUP6 DUP5 PUSH2 0x2B1B JUMP JUMPDEST DUP3 DUP5 ADD SWAP1 POP SWAP4 SWAP3 POP POP POP JUMP JUMPDEST PUSH1 0x0 PUSH1 0x40 DUP3 ADD SWAP1 POP DUP2 DUP2 SUB PUSH1 0x0 DUP4 ADD MSTORE PUSH2 0x2B9B DUP2 DUP6 DUP8 PUSH2 0x2B24 JUMP JUMPDEST SWAP1 POP PUSH2 0x2BAA PUSH1 0x20 DUP4 ADD DUP5 PUSH2 0x2423 JUMP JUMPDEST SWAP5 SWAP4 POP POP POP POP JUMP JUMPDEST PUSH32 0x5265656E7472616E637947756172643A207265656E7472616E742063616C6C00 PUSH1 0x0 DUP3 ADD MSTORE POP JUMP JUMPDEST PUSH1 0x0 PUSH2 0x2BE8 PUSH1 0x1F DUP4 PUSH2 0x26A3 JUMP JUMPDEST SWAP2 POP PUSH2 0x2BF3 DUP3 PUSH2 0x2BB2 JUMP JUMPDEST PUSH1 0x20 DUP3 ADD SWAP1 POP SWAP2 SWAP1 POP JUMP JUMPDEST PUSH1 0x0 PUSH1 0x20 DUP3 ADD SWAP1 POP DUP2 DUP2 SUB PUSH1 0x0 DUP4 ADD MSTORE PUSH2 0x2C17 DUP2 PUSH2 0x2BDB JUMP JUMPDEST SWAP1 POP SWAP2 SWAP1 POP JUMP JUMPDEST PUSH1 0x0 DUP2 MLOAD SWAP1 POP PUSH2 0x2C2D DUP2 PUSH2 0x21C0 JUMP JUMPDEST SWAP3 SWAP2 POP POP JUMP JUMPDEST PUSH1 0x0 PUSH1 0x20 DUP3 DUP5 SUB SLT ISZERO PUSH2 0x2C49 JUMPI PUSH2 0x2C48 PUSH2 0x1FC9 JUMP JUMPDEST JUMPDEST PUSH1 0x0 PUSH2 0x2C57 DUP5 DUP3 DUP6 ADD PUSH2 0x2C1E JUMP JUMPDEST SWAP2 POP POP SWAP3 SWAP2 POP POP JUMP JUMPDEST PUSH32 0x596F7520646F6E277420686F6C64207468697320746F6B656E00000000000000 PUSH1 0x0 DUP3 ADD MSTORE POP JUMP JUMPDEST PUSH1 0x0 PUSH2 0x2C96 PUSH1 0x19 DUP4 PUSH2 0x26A3 JUMP JUMPDEST SWAP2 POP PUSH2 0x2CA1 DUP3 PUSH2 0x2C60 JUMP JUMPDEST PUSH1 0x20 DUP3 ADD SWAP1 POP SWAP2 SWAP1 POP JUMP JUMPDEST PUSH1 0x0 PUSH1 0x20 DUP3 ADD SWAP1 POP DUP2 DUP2 SUB PUSH1 0x0 DUP4 ADD MSTORE PUSH2 0x2CC5 DUP2 PUSH2 0x2C89 JUMP JUMPDEST SWAP1 POP SWAP2 SWAP1 POP JUMP JUMPDEST PUSH1 0x0 PUSH1 0x60 DUP3 ADD SWAP1 POP PUSH2 0x2CE1 PUSH1 0x0 DUP4 ADD DUP7 PUSH2 0x247A JUMP JUMPDEST PUSH2 0x2CEE PUSH1 0x20 DUP4 ADD DUP6 PUSH2 0x247A JUMP JUMPDEST PUSH2 0x2CFB PUSH1 0x40 DUP4 ADD DUP5 PUSH2 0x2423 JUMP JUMPDEST SWAP5 SWAP4 POP POP POP POP JUMP JUMPDEST PUSH1 0x0 PUSH1 0x20 DUP3 ADD SWAP1 POP DUP2 DUP2 SUB PUSH1 0x0 DUP4 ADD MSTORE PUSH2 0x2D1E DUP2 DUP5 DUP7 PUSH2 0x2B24 JUMP JUMPDEST SWAP1 POP SWAP4 SWAP3 POP POP POP JUMP JUMPDEST PUSH32 0x496E76616C6964205374616B6520546F6B656E00000000000000000000000000 PUSH1 0x0 DUP3 ADD MSTORE POP JUMP JUMPDEST PUSH1 0x0 PUSH2 0x2D5D PUSH1 0x13 DUP4 PUSH2 0x26A3 JUMP JUMPDEST SWAP2 POP PUSH2 0x2D68 DUP3 PUSH2 0x2D27 JUMP JUMPDEST PUSH1 0x20 DUP3 ADD SWAP1 POP SWAP2 SWAP1 POP JUMP JUMPDEST PUSH1 0x0 PUSH1 0x20 DUP3 ADD SWAP1 POP DUP2 DUP2 SUB PUSH1 0x0 DUP4 ADD MSTORE PUSH2 0x2D8C DUP2 PUSH2 0x2D50 JUMP JUMPDEST SWAP1 POP SWAP2 SWAP1 POP JUMP JUMPDEST PUSH32 0x496E76616C69642052657761726420546F6B656E000000000000000000000000 PUSH1 0x0 DUP3 ADD MSTORE POP JUMP JUMPDEST PUSH1 0x0 PUSH2 0x2DC9 PUSH1 0x14 DUP4 PUSH2 0x26A3 JUMP JUMPDEST SWAP2 POP PUSH2 0x2DD4 DUP3 PUSH2 0x2D93 JUMP JUMPDEST PUSH1 0x20 DUP3 ADD SWAP1 POP SWAP2 SWAP1 POP JUMP JUMPDEST PUSH1 0x0 PUSH1 0x20 DUP3 ADD SWAP1 POP DUP2 DUP2 SUB PUSH1 0x0 DUP4 ADD MSTORE PUSH2 0x2DF8 DUP2 PUSH2 0x2DBC JUMP JUMPDEST SWAP1 POP SWAP2 SWAP1 POP JUMP JUMPDEST PUSH1 0x0 DUP2 SWAP1 POP SWAP2 SWAP1 POP JUMP JUMPDEST PUSH1 0x0 PUSH32 0xFFFFFFFF00000000000000000000000000000000000000000000000000000000 DUP3 AND SWAP1 POP SWAP2 SWAP1 POP JUMP JUMPDEST PUSH1 0x0 DUP2 PUSH1 0xE0 SHL SWAP1 POP SWAP2 SWAP1 POP JUMP JUMPDEST PUSH1 0x0 PUSH2 0x2E5D PUSH2 0x2E58 PUSH2 0x2E53 DUP5 PUSH2 0x2DFF JUMP JUMPDEST PUSH2 0x2E35 JUMP JUMPDEST PUSH2 0x2E09 JUMP JUMPDEST SWAP1 POP SWAP2 SWAP1 POP JUMP JUMPDEST PUSH2 0x2E6D DUP2 PUSH2 0x2E42 JUMP JUMPDEST DUP3 MSTORE POP POP JUMP JUMPDEST PUSH1 0x0 PUSH1 0x20 DUP3 ADD SWAP1 POP PUSH2 0x2E88 PUSH1 0x0 DUP4 ADD DUP5 PUSH2 0x2E64 JUMP JUMPDEST SWAP3 SWAP2 POP POP JUMP JUMPDEST PUSH2 0x2E97 DUP2 PUSH2 0x24E4 JUMP JUMPDEST DUP2 EQ PUSH2 0x2EA2 JUMPI PUSH1 0x0 DUP1 REVERT JUMPDEST POP JUMP JUMPDEST PUSH1 0x0 DUP2 MLOAD SWAP1 POP PUSH2 0x2EB4 DUP2 PUSH2 0x2E8E JUMP JUMPDEST SWAP3 SWAP2 POP POP JUMP JUMPDEST PUSH1 0x0 PUSH1 0x20 DUP3 DUP5 SUB SLT ISZERO PUSH2 0x2ED0 JUMPI PUSH2 0x2ECF PUSH2 0x1FC9 JUMP JUMPDEST JUMPDEST PUSH1 0x0 PUSH2 0x2EDE DUP5 DUP3 DUP6 ADD PUSH2 0x2EA5 JUMP JUMPDEST SWAP2 POP POP SWAP3 SWAP2 POP POP JUMP JUMPDEST PUSH32 0x4E6F6E2D65726337323100000000000000000000000000000000000000000000 PUSH1 0x0 DUP3 ADD MSTORE POP JUMP JUMPDEST PUSH1 0x0 PUSH2 0x2F1D PUSH1 0xA DUP4 PUSH2 0x26A3 JUMP JUMPDEST SWAP2 POP PUSH2 0x2F28 DUP3 PUSH2 0x2EE7 JUMP JUMPDEST PUSH1 0x20 DUP3 ADD SWAP1 POP SWAP2 SWAP1 POP JUMP JUMPDEST PUSH1 0x0 PUSH1 0x20 DUP3 ADD SWAP1 POP DUP2 DUP2 SUB PUSH1 0x0 DUP4 ADD MSTORE PUSH2 0x2F4C DUP2 PUSH2 0x2F10 JUMP JUMPDEST SWAP1 POP SWAP2 SWAP1 POP JUMP JUMPDEST PUSH32 0x496E76616C6964206C6F636B20706572696F642E000000000000000000000000 PUSH1 0x0 DUP3 ADD MSTORE POP JUMP JUMPDEST PUSH1 0x0 PUSH2 0x2F89 PUSH1 0x14 DUP4 PUSH2 0x26A3 JUMP JUMPDEST SWAP2 POP PUSH2 0x2F94 DUP3 PUSH2 0x2F53 JUMP JUMPDEST PUSH1 0x20 DUP3 ADD SWAP1 POP SWAP2 SWAP1 POP JUMP JUMPDEST PUSH1 0x0 PUSH1 0x20 DUP3 ADD SWAP1 POP DUP2 DUP2 SUB PUSH1 0x0 DUP4 ADD MSTORE PUSH2 0x2FB8 DUP2 PUSH2 0x2F7C JUMP JUMPDEST SWAP1 POP SWAP2 SWAP1 POP JUMP JUMPDEST PUSH32 0x4E6F742061626C6520746F20756E6C6F636B2079657400000000000000000000 PUSH1 0x0 DUP3 ADD MSTORE POP JUMP JUMPDEST PUSH1 0x0 PUSH2 0x2FF5 PUSH1 0x16 DUP4 PUSH2 0x26A3 JUMP JUMPDEST SWAP2 POP PUSH2 0x3000 DUP3 PUSH2 0x2FBF JUMP JUMPDEST PUSH1 0x20 DUP3 ADD SWAP1 POP SWAP2 SWAP1 POP JUMP JUMPDEST PUSH1 0x0 PUSH1 0x20 DUP3 ADD SWAP1 POP DUP2 DUP2 SUB PUSH1 0x0 DUP4 ADD MSTORE PUSH2 0x3024 DUP2 PUSH2 0x2FE8 JUMP JUMPDEST SWAP1 POP SWAP2 SWAP1 POP JUMP JUMPDEST PUSH32 0x4F776E61626C653A206E6577206F776E657220697320746865207A65726F2061 PUSH1 0x0 DUP3 ADD MSTORE PUSH32 0x6464726573730000000000000000000000000000000000000000000000000000 PUSH1 0x20 DUP3 ADD MSTORE POP JUMP JUMPDEST PUSH1 0x0 PUSH2 0x3087 PUSH1 0x26 DUP4 PUSH2 0x26A3 JUMP JUMPDEST SWAP2 POP PUSH2 0x3092 DUP3 PUSH2 0x302B JUMP JUMPDEST PUSH1 0x40 DUP3 ADD SWAP1 POP SWAP2 SWAP1 POP JUMP JUMPDEST PUSH1 0x0 PUSH1 0x20 DUP3 ADD SWAP1 POP DUP2 DUP2 SUB PUSH1 0x0 DUP4 ADD MSTORE PUSH2 0x30B6 DUP2 PUSH2 0x307A JUMP JUMPDEST SWAP1 POP SWAP2 SWAP1 POP JUMP JUMPDEST PUSH1 0x0 PUSH2 0x30C8 DUP3 PUSH2 0x22AF JUMP JUMPDEST SWAP2 POP PUSH2 0x30D3 DUP4 PUSH2 0x22AF JUMP JUMPDEST SWAP3 POP DUP2 PUSH32 0xFFFFFFFFFFFFFFFFFFFFFFFFFFFFFFFFFFFFFFFFFFFFFFFFFFFFFFFFFFFFFFFF DIV DUP4 GT DUP3 ISZERO ISZERO AND ISZERO PUSH2 0x310C JUMPI PUSH2 0x310B PUSH2 0x2925 JUMP JUMPDEST JUMPDEST DUP3 DUP3 MUL SWAP1 POP SWAP3 SWAP2 POP POP JUMP JUMPDEST PUSH32 0x4E487B7100000000000000000000000000000000000000000000000000000000 PUSH1 0x0 MSTORE PUSH1 0x12 PUSH1 0x4 MSTORE PUSH1 0x24 PUSH1 0x0 REVERT JUMPDEST PUSH1 0x0 PUSH2 0x3151 DUP3 PUSH2 0x22AF JUMP JUMPDEST SWAP2 POP PUSH2 0x315C DUP4 PUSH2 0x22AF JUMP JUMPDEST SWAP3 POP DUP3 PUSH2 0x316C JUMPI PUSH2 0x316B PUSH2 0x3117 JUMP JUMPDEST JUMPDEST DUP3 DUP3 DIV SWAP1 POP SWAP3 SWAP2 POP POP JUMP JUMPDEST PUSH32 0x4F776E61626C653A2063616C6C6572206973206E6F7420746865206F776E6572 PUSH1 0x0 DUP3 ADD MSTORE POP JUMP JUMPDEST PUSH1 0x0 PUSH2 0x31AD PUSH1 0x20 DUP4 PUSH2 0x26A3 JUMP JUMPDEST SWAP2 POP PUSH2 0x31B8 DUP3 PUSH2 0x3177 JUMP JUMPDEST PUSH1 0x20 DUP3 ADD SWAP1 POP SWAP2 SWAP1 POP JUMP JUMPDEST PUSH1 0x0 PUSH1 0x20 DUP3 ADD SWAP1 POP DUP2 DUP2 SUB PUSH1 0x0 DUP4 ADD MSTORE PUSH2 0x31DC DUP2 PUSH2 0x31A0 JUMP JUMPDEST SWAP1 POP SWAP2 SWAP1 POP JUMP INVALID LOG2 PUSH5 0x6970667358 0x22 SLT KECCAK256 ORIGIN 0xAD GT 0xFC 0xC PUSH2 0x4362 SIGNEXTEND DUP2 0xD5 ADDRESS PUSH8 0x2CBE404D5DFEC603 0x2A PC 0xEE CALLDATASIZE PUSH23 0xE5973CF54E7064736F6C63430008100033000000000000 "
				},
				"gasEstimates": {
					"creation": {
						"codeDepositCost": "2565000",
						"executionCost": "infinite",
						"totalCost": "infinite"
					},
					"external": {
						"WAVE()": "2473",
						"addStakingNfts(address[],address[],uint256[])": "infinite",
						"claimRewards(uint256[],address)": "infinite",
						"claimedRewards(uint256,address)": "infinite",
						"lockInfo(address,uint256)": "infinite",
						"lockNFT(uint256[],address)": "infinite",
						"lockPeriod()": "2496",
						"nftInfo(address)": "infinite",
						"owner()": "2545",
						"renounceOwnership()": "30487",
						"setLockPeriod(uint256)": "infinite",
						"transferOwnership(address)": "30832",
						"unlockNFT(uint256[],address)": "infinite"
					},
					"internal": {
						"_rewardAmount(uint256,contract IERC721)": "infinite"
					}
				},
				"methodIdentifiers": {
					"WAVE()": "c69d1923",
					"addStakingNfts(address[],address[],uint256[])": "22b73e08",
					"claimRewards(uint256[],address)": "0520537f",
					"claimedRewards(uint256,address)": "b33068c4",
					"lockInfo(address,uint256)": "b2520a7c",
					"lockNFT(uint256[],address)": "1902732e",
					"lockPeriod()": "3fd8b02f",
					"nftInfo(address)": "e9545b92",
					"owner()": "8da5cb5b",
					"renounceOwnership()": "715018a6",
					"setLockPeriod(uint256)": "779972da",
					"transferOwnership(address)": "f2fde38b",
					"unlockNFT(uint256[],address)": "9f3625f0"
				}
			},
			"storageLayout": {
				"storage": [
					{
						"astId": 7,
						"contract": "contracts/MultilevelNftStaking.sol:MultilevelNftStaking",
						"label": "_owner",
						"offset": 0,
						"slot": "0",
						"type": "t_address"
					},
					{
						"astId": 123,
						"contract": "contracts/MultilevelNftStaking.sol:MultilevelNftStaking",
						"label": "_status",
						"offset": 0,
						"slot": "1",
						"type": "t_uint256"
					},
					{
						"astId": 614,
						"contract": "contracts/MultilevelNftStaking.sol:MultilevelNftStaking",
						"label": "lockPeriod",
						"offset": 0,
						"slot": "2",
						"type": "t_uint256"
					},
					{
						"astId": 634,
						"contract": "contracts/MultilevelNftStaking.sol:MultilevelNftStaking",
						"label": "lockInfo",
						"offset": 0,
						"slot": "3",
						"type": "t_mapping(t_contract(IERC721)268,t_mapping(t_uint256,t_struct(LockInfo)626_storage))"
					},
					{
						"astId": 648,
						"contract": "contracts/MultilevelNftStaking.sol:MultilevelNftStaking",
						"label": "nftInfo",
						"offset": 0,
						"slot": "4",
						"type": "t_mapping(t_contract(IERC721)268,t_struct(stakeNftInfo)642_storage)"
					},
					{
						"astId": 651,
						"contract": "contracts/MultilevelNftStaking.sol:MultilevelNftStaking",
						"label": "WAVE",
						"offset": 0,
						"slot": "5",
						"type": "t_uint256"
					}
				],
				"types": {
					"t_address": {
						"encoding": "inplace",
						"label": "address",
						"numberOfBytes": "20"
					},
					"t_bool": {
						"encoding": "inplace",
						"label": "bool",
						"numberOfBytes": "1"
					},
					"t_contract(IERC721)268": {
						"encoding": "inplace",
						"label": "contract IERC721",
						"numberOfBytes": "20"
					},
					"t_contract(IRewardsToken)1357": {
						"encoding": "inplace",
						"label": "contract IRewardsToken",
						"numberOfBytes": "20"
					},
					"t_mapping(t_contract(IERC721)268,t_mapping(t_uint256,t_struct(LockInfo)626_storage))": {
						"encoding": "mapping",
						"key": "t_contract(IERC721)268",
						"label": "mapping(contract IERC721 => mapping(uint256 => struct MultilevelNftStaking.LockInfo))",
						"numberOfBytes": "32",
						"value": "t_mapping(t_uint256,t_struct(LockInfo)626_storage)"
					},
					"t_mapping(t_contract(IERC721)268,t_struct(stakeNftInfo)642_storage)": {
						"encoding": "mapping",
						"key": "t_contract(IERC721)268",
						"label": "mapping(contract IERC721 => struct MultilevelNftStaking.stakeNftInfo)",
						"numberOfBytes": "32",
						"value": "t_struct(stakeNftInfo)642_storage"
					},
					"t_mapping(t_uint256,t_struct(LockInfo)626_storage)": {
						"encoding": "mapping",
						"key": "t_uint256",
						"label": "mapping(uint256 => struct MultilevelNftStaking.LockInfo)",
						"numberOfBytes": "32",
						"value": "t_struct(LockInfo)626_storage"
					},
					"t_struct(LockInfo)626_storage": {
						"encoding": "inplace",
						"label": "struct MultilevelNftStaking.LockInfo",
						"members": [
							{
								"astId": 616,
								"contract": "contracts/MultilevelNftStaking.sol:MultilevelNftStaking",
								"label": "owner",
								"offset": 0,
								"slot": "0",
								"type": "t_address"
							},
							{
								"astId": 618,
								"contract": "contracts/MultilevelNftStaking.sol:MultilevelNftStaking",
								"label": "lockedTime",
								"offset": 0,
								"slot": "1",
								"type": "t_uint256"
							},
							{
								"astId": 620,
								"contract": "contracts/MultilevelNftStaking.sol:MultilevelNftStaking",
								"label": "claimedRewards",
								"offset": 0,
								"slot": "2",
								"type": "t_uint256"
							},
							{
								"astId": 622,
								"contract": "contracts/MultilevelNftStaking.sol:MultilevelNftStaking",
								"label": "isUnlocked",
								"offset": 0,
								"slot": "3",
								"type": "t_bool"
							},
							{
								"astId": 625,
								"contract": "contracts/MultilevelNftStaking.sol:MultilevelNftStaking",
								"label": "contractAddress",
								"offset": 1,
								"slot": "3",
								"type": "t_contract(IERC721)268"
							}
						],
						"numberOfBytes": "128"
					},
					"t_struct(stakeNftInfo)642_storage": {
						"encoding": "inplace",
						"label": "struct MultilevelNftStaking.stakeNftInfo",
						"members": [
							{
								"astId": 637,
								"contract": "contracts/MultilevelNftStaking.sol:MultilevelNftStaking",
								"label": "rewardsToken",
								"offset": 0,
								"slot": "0",
								"type": "t_contract(IRewardsToken)1357"
							},
							{
								"astId": 639,
								"contract": "contracts/MultilevelNftStaking.sol:MultilevelNftStaking",
								"label": "rewardsPerWave",
								"offset": 0,
								"slot": "1",
								"type": "t_uint256"
							},
							{
								"astId": 641,
								"contract": "contracts/MultilevelNftStaking.sol:MultilevelNftStaking",
								"label": "rewardPercentage",
								"offset": 0,
								"slot": "2",
								"type": "t_uint256"
							}
						],
						"numberOfBytes": "96"
					},
					"t_uint256": {
						"encoding": "inplace",
						"label": "uint256",
						"numberOfBytes": "32"
					}
				}
			},
			"userdoc": {
				"kind": "user",
				"methods": {
					"WAVE()": {
						"notice": "CONSTANTS "
					},
					"setLockPeriod(uint256)": {
						"notice": "SETTERS "
					}
				},
				"version": 1
			}
		}
	}
}