{
	"contracts/Staking.sol": {
		"NFTStaking1": {
			"abi": [
				{
					"inputs": [
						{
							"internalType": "uint256",
							"name": "_lockPeriod",
							"type": "uint256"
						},
						{
							"internalType": "uint256",
							"name": "_wave",
							"type": "uint256"
						}
					],
					"stateMutability": "nonpayable",
					"type": "constructor"
				},
				{
					"anonymous": false,
					"inputs": [
						{
							"indexed": false,
							"internalType": "address",
							"name": "collection",
							"type": "address"
						},
						{
							"indexed": false,
							"internalType": "address",
							"name": "rewardToken",
							"type": "address"
						},
						{
							"indexed": false,
							"internalType": "uint256",
							"name": "rewardPerWave",
							"type": "uint256"
						},
						{
							"indexed": false,
							"internalType": "uint256",
							"name": "_rewardPercentage",
							"type": "uint256"
						}
					],
					"name": "AddStaking",
					"type": "event"
				},
				{
					"anonymous": false,
					"inputs": [
						{
							"indexed": false,
							"internalType": "uint256",
							"name": "lockPeriod",
							"type": "uint256"
						}
					],
					"name": "LockPeriodUpdated",
					"type": "event"
				},
				{
					"anonymous": false,
					"inputs": [
						{
							"indexed": true,
							"internalType": "address",
							"name": "owner",
							"type": "address"
						},
						{
							"indexed": false,
							"internalType": "uint256[]",
							"name": "tokenIds",
							"type": "uint256[]"
						}
					],
					"name": "NFTLocked",
					"type": "event"
				},
				{
					"anonymous": false,
					"inputs": [
						{
							"indexed": true,
							"internalType": "address",
							"name": "owner",
							"type": "address"
						},
						{
							"indexed": false,
							"internalType": "uint256[]",
							"name": "tokenIds",
							"type": "uint256[]"
						}
					],
					"name": "NFTUnLocked",
					"type": "event"
				},
				{
					"anonymous": false,
					"inputs": [
						{
							"indexed": true,
							"internalType": "address",
							"name": "previousOwner",
							"type": "address"
						},
						{
							"indexed": true,
							"internalType": "address",
							"name": "newOwner",
							"type": "address"
						}
					],
					"name": "OwnershipTransferred",
					"type": "event"
				},
				{
					"anonymous": false,
					"inputs": [
						{
							"indexed": true,
							"internalType": "address",
							"name": "owner",
							"type": "address"
						},
						{
							"indexed": false,
							"internalType": "uint256[]",
							"name": "tokenIds",
							"type": "uint256[]"
						},
						{
							"indexed": false,
							"internalType": "uint256",
							"name": "rewards",
							"type": "uint256"
						}
					],
					"name": "RewardsClaimed",
					"type": "event"
				},
				{
					"inputs": [],
					"name": "WAVE",
					"outputs": [
						{
							"internalType": "uint256",
							"name": "",
							"type": "uint256"
						}
					],
					"stateMutability": "view",
					"type": "function"
				},
				{
					"inputs": [
						{
							"internalType": "address[]",
							"name": "_stakeNFT",
							"type": "address[]"
						},
						{
							"internalType": "address[]",
							"name": "_rewardsToken",
							"type": "address[]"
						},
						{
							"internalType": "uint256[]",
							"name": "_rewardPerWave",
							"type": "uint256[]"
						},
						{
							"internalType": "uint256[]",
							"name": "_rewardPercentage",
							"type": "uint256[]"
						}
					],
					"name": "addStakingNfts",
					"outputs": [],
					"stateMutability": "nonpayable",
					"type": "function"
				},
				{
					"inputs": [
						{
							"internalType": "uint256[]",
							"name": "_tokenIds",
							"type": "uint256[]"
						},
						{
							"internalType": "contract IERC721",
							"name": "nftAddress",
							"type": "address"
						}
					],
					"name": "claimRewards",
					"outputs": [],
					"stateMutability": "nonpayable",
					"type": "function"
				},
				{
					"inputs": [
						{
							"internalType": "uint256",
							"name": "_tokenId",
							"type": "uint256"
						},
						{
							"internalType": "contract IERC721",
							"name": "nftAddress",
							"type": "address"
						}
					],
					"name": "claimedRewards",
					"outputs": [
						{
							"internalType": "uint256",
							"name": "",
							"type": "uint256"
						}
					],
					"stateMutability": "view",
					"type": "function"
				},
				{
					"inputs": [
						{
							"internalType": "contract IERC721",
							"name": "",
							"type": "address"
						},
						{
							"internalType": "uint256",
							"name": "",
							"type": "uint256"
						}
					],
					"name": "lockInfo",
					"outputs": [
						{
							"internalType": "address",
							"name": "owner",
							"type": "address"
						},
						{
							"internalType": "uint256",
							"name": "lockedTime",
							"type": "uint256"
						},
						{
							"internalType": "uint256",
							"name": "claimedRewards",
							"type": "uint256"
						},
						{
							"internalType": "bool",
							"name": "isUnlocked",
							"type": "bool"
						},
						{
							"internalType": "contract IERC721",
							"name": "contractAddress",
							"type": "address"
						}
					],
					"stateMutability": "view",
					"type": "function"
				},
				{
					"inputs": [
						{
							"internalType": "uint256[]",
							"name": "_tokenIds",
							"type": "uint256[]"
						},
						{
							"internalType": "contract IERC721",
							"name": "nftAddress",
							"type": "address"
						}
					],
					"name": "lockNFT",
					"outputs": [],
					"stateMutability": "nonpayable",
					"type": "function"
				},
				{
					"inputs": [],
					"name": "lockPeriod",
					"outputs": [
						{
							"internalType": "uint256",
							"name": "",
							"type": "uint256"
						}
					],
					"stateMutability": "view",
					"type": "function"
				},
				{
					"inputs": [
						{
							"internalType": "contract IERC721",
							"name": "",
							"type": "address"
						}
					],
					"name": "nftInfo",
					"outputs": [
						{
							"internalType": "contract IRewardsToken",
							"name": "rewardsToken",
							"type": "address"
						},
						{
							"internalType": "uint256",
							"name": "rewardsPerWave",
							"type": "uint256"
						},
						{
							"internalType": "uint256",
							"name": "rewardPercentage",
							"type": "uint256"
						}
					],
					"stateMutability": "view",
					"type": "function"
				},
				{
					"inputs": [],
					"name": "owner",
					"outputs": [
						{
							"internalType": "address",
							"name": "",
							"type": "address"
						}
					],
					"stateMutability": "view",
					"type": "function"
				},
				{
					"inputs": [],
					"name": "renounceOwnership",
					"outputs": [],
					"stateMutability": "nonpayable",
					"type": "function"
				},
				{
					"inputs": [
						{
							"internalType": "uint256",
							"name": "_lockPeriod",
							"type": "uint256"
						}
					],
					"name": "setLockPeriod",
					"outputs": [],
					"stateMutability": "nonpayable",
					"type": "function"
				},
				{
					"inputs": [
						{
							"internalType": "address",
							"name": "newOwner",
							"type": "address"
						}
					],
					"name": "transferOwnership",
					"outputs": [],
					"stateMutability": "nonpayable",
					"type": "function"
				},
				{
					"inputs": [
						{
							"internalType": "uint256[]",
							"name": "_tokenIds",
							"type": "uint256[]"
						},
						{
							"internalType": "contract IERC721",
							"name": "nftAddress",
							"type": "address"
						}
					],
					"name": "unlockNFT",
					"outputs": [],
					"stateMutability": "nonpayable",
					"type": "function"
				}
			],
			"devdoc": {
				"kind": "dev",
				"methods": {
					"addStakingNfts(address[],address[],uint256[],uint256[])": {
						"details": "add the address NFT staking addresses and their corresponders",
						"params": {
							"_stakeNFT": ", _rewardsToken, _rewardPerWave, _rewardPercentage"
						}
					},
					"claimRewards(uint256[],address)": {
						"details": "claim rewards",
						"params": {
							"_tokenIds": "token ids to unlock"
						}
					},
					"claimedRewards(uint256,address)": {
						"details": "get total claimed rewards for token id",
						"params": {
							"_tokenId": "token id to get claimed Rewards amount"
						}
					},
					"lockNFT(uint256[],address)": {
						"details": "lock NFT into the contract",
						"params": {
							"_tokenIds": "token ids to stake"
						}
					},
					"owner()": {
						"details": "Returns the address of the current owner."
					},
					"renounceOwnership()": {
						"details": "Leaves the contract without owner. It will not be possible to call `onlyOwner` functions anymore. Can only be called by the current owner. NOTE: Renouncing ownership will leave the contract without an owner, thereby removing any functionality that is only available to the owner."
					},
					"setLockPeriod(uint256)": {
						"details": "update lock period",
						"params": {
							"_lockPeriod": "lock period to set"
						}
					},
					"transferOwnership(address)": {
						"details": "Transfers ownership of the contract to a new account (`newOwner`). Can only be called by the current owner."
					},
					"unlockNFT(uint256[],address)": {
						"details": "unlock NFT from the contract",
						"params": {
							"_tokenIds": "token ids to unlock"
						}
					}
				},
				"version": 1
			},
			"evm": {
				"assembly": "    /* \"contracts/Staking.sol\":412:7992  contract NFTStaking1 is Ownable, ReentrancyGuard {... */\n  mstore(0x40, 0x80)\n    /* \"contracts/Staking.sol\":1695:1899  constructor(... */\n  callvalue\n  dup1\n  iszero\n  tag_1\n  jumpi\n  0x00\n  dup1\n  revert\ntag_1:\n  pop\n  mload(0x40)\n  sub(codesize, bytecodeSize)\n  dup1\n  bytecodeSize\n  dup4\n  codecopy\n  dup2\n  dup2\n  add\n  0x40\n  mstore\n  dup2\n  add\n  swap1\n  tag_2\n  swap2\n  swap1\n  tag_3\n  jump\t// in\ntag_2:\n    /* \"@openzeppelin/contracts/access/Ownable.sol\":936:968  _transferOwnership(_msgSender()) */\n  tag_8\n    /* \"@openzeppelin/contracts/access/Ownable.sol\":955:967  _msgSender() */\n  tag_9\n    /* \"@openzeppelin/contracts/access/Ownable.sol\":955:965  _msgSender */\n  shl(0x20, tag_10)\n    /* \"@openzeppelin/contracts/access/Ownable.sol\":955:967  _msgSender() */\n  0x20\n  shr\n  jump\t// in\ntag_9:\n    /* \"@openzeppelin/contracts/access/Ownable.sol\":936:954  _transferOwnership */\n  shl(0x20, tag_11)\n    /* \"@openzeppelin/contracts/access/Ownable.sol\":936:968  _transferOwnership(_msgSender()) */\n  0x20\n  shr\n  jump\t// in\ntag_8:\n    /* \"@openzeppelin/contracts/security/ReentrancyGuard.sol\":1701:1702  1 */\n  0x01\n    /* \"@openzeppelin/contracts/security/ReentrancyGuard.sol\":1806:1813  _status */\n  dup1\n    /* \"@openzeppelin/contracts/security/ReentrancyGuard.sol\":1806:1828  _status = _NOT_ENTERED */\n  dup2\n  swap1\n  sstore\n  pop\n    /* \"contracts/Staking.sol\":1806:1807  0 */\n  0x00\n    /* \"contracts/Staking.sol\":1792:1803  _lockPeriod */\n  dup3\n    /* \"contracts/Staking.sol\":1792:1807  _lockPeriod > 0 */\n  gt\n    /* \"contracts/Staking.sol\":1784:1831  require(_lockPeriod > 0, \"Invalid lock period\") */\n  tag_14\n  jumpi\n  mload(0x40)\n  0x08c379a000000000000000000000000000000000000000000000000000000000\n  dup2\n  mstore\n  0x04\n  add\n  tag_15\n  swap1\n  tag_16\n  jump\t// in\ntag_15:\n  mload(0x40)\n  dup1\n  swap2\n  sub\n  swap1\n  revert\ntag_14:\n    /* \"contracts/Staking.sol\":1857:1868  _lockPeriod */\n  dup2\n    /* \"contracts/Staking.sol\":1844:1854  lockPeriod */\n  0x02\n    /* \"contracts/Staking.sol\":1844:1868  lockPeriod = _lockPeriod */\n  dup2\n  swap1\n  sstore\n  pop\n    /* \"contracts/Staking.sol\":1886:1891  _wave */\n  dup1\n    /* \"contracts/Staking.sol\":1879:1883  WAVE */\n  0x05\n    /* \"contracts/Staking.sol\":1879:1891  WAVE = _wave */\n  dup2\n  swap1\n  sstore\n  pop\n    /* \"contracts/Staking.sol\":1695:1899  constructor(... */\n  pop\n  pop\n    /* \"contracts/Staking.sol\":412:7992  contract NFTStaking1 is Ownable, ReentrancyGuard {... */\n  jump(tag_17)\n    /* \"@openzeppelin/contracts/utils/Context.sol\":640:736  function _msgSender() internal view virtual returns (address) {... */\ntag_10:\n    /* \"@openzeppelin/contracts/utils/Context.sol\":693:700  address */\n  0x00\n    /* \"@openzeppelin/contracts/utils/Context.sol\":719:729  msg.sender */\n  caller\n    /* \"@openzeppelin/contracts/utils/Context.sol\":712:729  return msg.sender */\n  swap1\n  pop\n    /* \"@openzeppelin/contracts/utils/Context.sol\":640:736  function _msgSender() internal view virtual returns (address) {... */\n  swap1\n  jump\t// out\n    /* \"@openzeppelin/contracts/access/Ownable.sol\":2433:2620  function _transferOwnership(address newOwner) internal virtual {... */\ntag_11:\n    /* \"@openzeppelin/contracts/access/Ownable.sol\":2506:2522  address oldOwner */\n  0x00\n    /* \"@openzeppelin/contracts/access/Ownable.sol\":2525:2531  _owner */\n  dup1\n  0x00\n  swap1\n  sload\n  swap1\n  0x0100\n  exp\n  swap1\n  div\n  0xffffffffffffffffffffffffffffffffffffffff\n  and\n    /* \"@openzeppelin/contracts/access/Ownable.sol\":2506:2531  address oldOwner = _owner */\n  swap1\n  pop\n    /* \"@openzeppelin/contracts/access/Ownable.sol\":2550:2558  newOwner */\n  dup2\n    /* \"@openzeppelin/contracts/access/Ownable.sol\":2541:2547  _owner */\n  0x00\n  dup1\n    /* \"@openzeppelin/contracts/access/Ownable.sol\":2541:2558  _owner = newOwner */\n  0x0100\n  exp\n  dup2\n  sload\n  dup2\n  0xffffffffffffffffffffffffffffffffffffffff\n  mul\n  not\n  and\n  swap1\n  dup4\n  0xffffffffffffffffffffffffffffffffffffffff\n  and\n  mul\n  or\n  swap1\n  sstore\n  pop\n    /* \"@openzeppelin/contracts/access/Ownable.sol\":2604:2612  newOwner */\n  dup2\n    /* \"@openzeppelin/contracts/access/Ownable.sol\":2573:2613  OwnershipTransferred(oldOwner, newOwner) */\n  0xffffffffffffffffffffffffffffffffffffffff\n  and\n    /* \"@openzeppelin/contracts/access/Ownable.sol\":2594:2602  oldOwner */\n  dup2\n    /* \"@openzeppelin/contracts/access/Ownable.sol\":2573:2613  OwnershipTransferred(oldOwner, newOwner) */\n  0xffffffffffffffffffffffffffffffffffffffff\n  and\n  0x8be0079c531659141344cd1fd0a4f28419497f9722a3daafe3b4186f6b6457e0\n  mload(0x40)\n  mload(0x40)\n  dup1\n  swap2\n  sub\n  swap1\n  log3\n    /* \"@openzeppelin/contracts/access/Ownable.sol\":2496:2620  {... */\n  pop\n    /* \"@openzeppelin/contracts/access/Ownable.sol\":2433:2620  function _transferOwnership(address newOwner) internal virtual {... */\n  pop\n  jump\t// out\n    /* \"#utility.yul\":88:205   */\ntag_21:\n    /* \"#utility.yul\":197:198   */\n  0x00\n    /* \"#utility.yul\":194:195   */\n  dup1\n    /* \"#utility.yul\":187:199   */\n  revert\n    /* \"#utility.yul\":334:411   */\ntag_23:\n    /* \"#utility.yul\":371:378   */\n  0x00\n    /* \"#utility.yul\":400:405   */\n  dup2\n    /* \"#utility.yul\":389:405   */\n  swap1\n  pop\n    /* \"#utility.yul\":334:411   */\n  swap2\n  swap1\n  pop\n  jump\t// out\n    /* \"#utility.yul\":417:539   */\ntag_24:\n    /* \"#utility.yul\":490:514   */\n  tag_35\n    /* \"#utility.yul\":508:513   */\n  dup2\n    /* \"#utility.yul\":490:514   */\n  tag_23\n  jump\t// in\ntag_35:\n    /* \"#utility.yul\":483:488   */\n  dup2\n    /* \"#utility.yul\":480:515   */\n  eq\n    /* \"#utility.yul\":470:533   */\n  tag_36\n  jumpi\n    /* \"#utility.yul\":529:530   */\n  0x00\n    /* \"#utility.yul\":526:527   */\n  dup1\n    /* \"#utility.yul\":519:531   */\n  revert\n    /* \"#utility.yul\":470:533   */\ntag_36:\n    /* \"#utility.yul\":417:539   */\n  pop\n  jump\t// out\n    /* \"#utility.yul\":545:688   */\ntag_25:\n    /* \"#utility.yul\":602:607   */\n  0x00\n    /* \"#utility.yul\":633:639   */\n  dup2\n    /* \"#utility.yul\":627:640   */\n  mload\n    /* \"#utility.yul\":618:640   */\n  swap1\n  pop\n    /* \"#utility.yul\":649:682   */\n  tag_38\n    /* \"#utility.yul\":676:681   */\n  dup2\n    /* \"#utility.yul\":649:682   */\n  tag_24\n  jump\t// in\ntag_38:\n    /* \"#utility.yul\":545:688   */\n  swap3\n  swap2\n  pop\n  pop\n  jump\t// out\n    /* \"#utility.yul\":694:1201   */\ntag_3:\n    /* \"#utility.yul\":773:779   */\n  0x00\n    /* \"#utility.yul\":781:787   */\n  dup1\n    /* \"#utility.yul\":830:832   */\n  0x40\n    /* \"#utility.yul\":818:827   */\n  dup4\n    /* \"#utility.yul\":809:816   */\n  dup6\n    /* \"#utility.yul\":805:828   */\n  sub\n    /* \"#utility.yul\":801:833   */\n  slt\n    /* \"#utility.yul\":798:917   */\n  iszero\n  tag_40\n  jumpi\n    /* \"#utility.yul\":836:915   */\n  tag_41\n  tag_21\n  jump\t// in\ntag_41:\n    /* \"#utility.yul\":798:917   */\ntag_40:\n    /* \"#utility.yul\":956:957   */\n  0x00\n    /* \"#utility.yul\":981:1045   */\n  tag_42\n    /* \"#utility.yul\":1037:1044   */\n  dup6\n    /* \"#utility.yul\":1028:1034   */\n  dup3\n    /* \"#utility.yul\":1017:1026   */\n  dup7\n    /* \"#utility.yul\":1013:1035   */\n  add\n    /* \"#utility.yul\":981:1045   */\n  tag_25\n  jump\t// in\ntag_42:\n    /* \"#utility.yul\":971:1045   */\n  swap3\n  pop\n    /* \"#utility.yul\":927:1055   */\n  pop\n    /* \"#utility.yul\":1094:1096   */\n  0x20\n    /* \"#utility.yul\":1120:1184   */\n  tag_43\n    /* \"#utility.yul\":1176:1183   */\n  dup6\n    /* \"#utility.yul\":1167:1173   */\n  dup3\n    /* \"#utility.yul\":1156:1165   */\n  dup7\n    /* \"#utility.yul\":1152:1174   */\n  add\n    /* \"#utility.yul\":1120:1184   */\n  tag_25\n  jump\t// in\ntag_43:\n    /* \"#utility.yul\":1110:1184   */\n  swap2\n  pop\n    /* \"#utility.yul\":1065:1194   */\n  pop\n    /* \"#utility.yul\":694:1201   */\n  swap3\n  pop\n  swap3\n  swap1\n  pop\n  jump\t// out\n    /* \"#utility.yul\":1207:1376   */\ntag_26:\n    /* \"#utility.yul\":1291:1302   */\n  0x00\n    /* \"#utility.yul\":1325:1331   */\n  dup3\n    /* \"#utility.yul\":1320:1323   */\n  dup3\n    /* \"#utility.yul\":1313:1332   */\n  mstore\n    /* \"#utility.yul\":1365:1369   */\n  0x20\n    /* \"#utility.yul\":1360:1363   */\n  dup3\n    /* \"#utility.yul\":1356:1370   */\n  add\n    /* \"#utility.yul\":1341:1370   */\n  swap1\n  pop\n    /* \"#utility.yul\":1207:1376   */\n  swap3\n  swap2\n  pop\n  pop\n  jump\t// out\n    /* \"#utility.yul\":1382:1551   */\ntag_27:\n    /* \"#utility.yul\":1522:1543   */\n  0x496e76616c6964206c6f636b20706572696f6400000000000000000000000000\n    /* \"#utility.yul\":1518:1519   */\n  0x00\n    /* \"#utility.yul\":1510:1516   */\n  dup3\n    /* \"#utility.yul\":1506:1520   */\n  add\n    /* \"#utility.yul\":1499:1544   */\n  mstore\n    /* \"#utility.yul\":1382:1551   */\n  pop\n  jump\t// out\n    /* \"#utility.yul\":1557:1923   */\ntag_28:\n    /* \"#utility.yul\":1699:1702   */\n  0x00\n    /* \"#utility.yul\":1720:1787   */\n  tag_47\n    /* \"#utility.yul\":1784:1786   */\n  0x13\n    /* \"#utility.yul\":1779:1782   */\n  dup4\n    /* \"#utility.yul\":1720:1787   */\n  tag_26\n  jump\t// in\ntag_47:\n    /* \"#utility.yul\":1713:1787   */\n  swap2\n  pop\n    /* \"#utility.yul\":1796:1889   */\n  tag_48\n    /* \"#utility.yul\":1885:1888   */\n  dup3\n    /* \"#utility.yul\":1796:1889   */\n  tag_27\n  jump\t// in\ntag_48:\n    /* \"#utility.yul\":1914:1916   */\n  0x20\n    /* \"#utility.yul\":1909:1912   */\n  dup3\n    /* \"#utility.yul\":1905:1917   */\n  add\n    /* \"#utility.yul\":1898:1917   */\n  swap1\n  pop\n    /* \"#utility.yul\":1557:1923   */\n  swap2\n  swap1\n  pop\n  jump\t// out\n    /* \"#utility.yul\":1929:2348   */\ntag_16:\n    /* \"#utility.yul\":2095:2099   */\n  0x00\n    /* \"#utility.yul\":2133:2135   */\n  0x20\n    /* \"#utility.yul\":2122:2131   */\n  dup3\n    /* \"#utility.yul\":2118:2136   */\n  add\n    /* \"#utility.yul\":2110:2136   */\n  swap1\n  pop\n    /* \"#utility.yul\":2182:2191   */\n  dup2\n    /* \"#utility.yul\":2176:2180   */\n  dup2\n    /* \"#utility.yul\":2172:2192   */\n  sub\n    /* \"#utility.yul\":2168:2169   */\n  0x00\n    /* \"#utility.yul\":2157:2166   */\n  dup4\n    /* \"#utility.yul\":2153:2170   */\n  add\n    /* \"#utility.yul\":2146:2193   */\n  mstore\n    /* \"#utility.yul\":2210:2341   */\n  tag_50\n    /* \"#utility.yul\":2336:2340   */\n  dup2\n    /* \"#utility.yul\":2210:2341   */\n  tag_28\n  jump\t// in\ntag_50:\n    /* \"#utility.yul\":2202:2341   */\n  swap1\n  pop\n    /* \"#utility.yul\":1929:2348   */\n  swap2\n  swap1\n  pop\n  jump\t// out\n    /* \"contracts/Staking.sol\":412:7992  contract NFTStaking1 is Ownable, ReentrancyGuard {... */\ntag_17:\n  dataSize(sub_0)\n  dup1\n  dataOffset(sub_0)\n  0x00\n  codecopy\n  0x00\n  return\nstop\n\nsub_0: assembly {\n        /* \"contracts/Staking.sol\":412:7992  contract NFTStaking1 is Ownable, ReentrancyGuard {... */\n      mstore(0x40, 0x80)\n      callvalue\n      dup1\n      iszero\n      tag_1\n      jumpi\n      0x00\n      dup1\n      revert\n    tag_1:\n      pop\n      jumpi(tag_2, lt(calldatasize, 0x04))\n      shr(0xe0, calldataload(0x00))\n      dup1\n      0x9f3625f0\n      gt\n      tag_16\n      jumpi\n      dup1\n      0xc69d1923\n      gt\n      tag_17\n      jumpi\n      dup1\n      0xc69d1923\n      eq\n      tag_12\n      jumpi\n      dup1\n      0xe9545b92\n      eq\n      tag_13\n      jumpi\n      dup1\n      0xeee00ed0\n      eq\n      tag_14\n      jumpi\n      dup1\n      0xf2fde38b\n      eq\n      tag_15\n      jumpi\n      jump(tag_2)\n    tag_17:\n      dup1\n      0x9f3625f0\n      eq\n      tag_9\n      jumpi\n      dup1\n      0xb2520a7c\n      eq\n      tag_10\n      jumpi\n      dup1\n      0xb33068c4\n      eq\n      tag_11\n      jumpi\n      jump(tag_2)\n    tag_16:\n      dup1\n      0x0520537f\n      eq\n      tag_3\n      jumpi\n      dup1\n      0x1902732e\n      eq\n      tag_4\n      jumpi\n      dup1\n      0x3fd8b02f\n      eq\n      tag_5\n      jumpi\n      dup1\n      0x715018a6\n      eq\n      tag_6\n      jumpi\n      dup1\n      0x779972da\n      eq\n      tag_7\n      jumpi\n      dup1\n      0x8da5cb5b\n      eq\n      tag_8\n      jumpi\n    tag_2:\n      0x00\n      dup1\n      revert\n        /* \"contracts/Staking.sol\":6251:7414  function claimRewards(uint256[] calldata _tokenIds,IERC721 nftAddress) external notContract {... */\n    tag_3:\n      tag_18\n      0x04\n      dup1\n      calldatasize\n      sub\n      dup2\n      add\n      swap1\n      tag_19\n      swap2\n      swap1\n      tag_20\n      jump\t// in\n    tag_19:\n      tag_21\n      jump\t// in\n    tag_18:\n      stop\n        /* \"contracts/Staking.sol\":4046:4802  function lockNFT(uint256[] calldata  _tokenIds, IERC721 nftAddress ) external notContract nonReentrant {... */\n    tag_4:\n      tag_22\n      0x04\n      dup1\n      calldatasize\n      sub\n      dup2\n      add\n      swap1\n      tag_23\n      swap2\n      swap1\n      tag_20\n      jump\t// in\n    tag_23:\n      tag_24\n      jump\t// in\n    tag_22:\n      stop\n        /* \"contracts/Staking.sol\":502:527  uint256 public lockPeriod */\n    tag_5:\n      tag_25\n      tag_26\n      jump\t// in\n    tag_25:\n      mload(0x40)\n      tag_27\n      swap2\n      swap1\n      tag_28\n      jump\t// in\n    tag_27:\n      mload(0x40)\n      dup1\n      swap2\n      sub\n      swap1\n      return\n        /* \"@openzeppelin/contracts/access/Ownable.sol\":1831:1932  function renounceOwnership() public virtual onlyOwner {... */\n    tag_6:\n      tag_29\n      tag_30\n      jump\t// in\n    tag_29:\n      stop\n        /* \"contracts/Staking.sol\":3350:3563  function setLockPeriod(uint256 _lockPeriod) external onlyOwner {... */\n    tag_7:\n      tag_31\n      0x04\n      dup1\n      calldatasize\n      sub\n      dup2\n      add\n      swap1\n      tag_32\n      swap2\n      swap1\n      tag_33\n      jump\t// in\n    tag_32:\n      tag_34\n      jump\t// in\n    tag_31:\n      stop\n        /* \"@openzeppelin/contracts/access/Ownable.sol\":1201:1286  function owner() public view virtual returns (address) {... */\n    tag_8:\n      tag_35\n      tag_36\n      jump\t// in\n    tag_35:\n      mload(0x40)\n      tag_37\n      swap2\n      swap1\n      tag_38\n      jump\t// in\n    tag_37:\n      mload(0x40)\n      dup1\n      swap2\n      sub\n      swap1\n      return\n        /* \"contracts/Staking.sol\":4915:6153  function unlockNFT(uint256[] calldata _tokenIds, IERC721 nftAddress) external notContract nonReentrant {... */\n    tag_9:\n      tag_39\n      0x04\n      dup1\n      calldatasize\n      sub\n      dup2\n      add\n      swap1\n      tag_40\n      swap2\n      swap1\n      tag_20\n      jump\t// in\n    tag_40:\n      tag_41\n      jump\t// in\n    tag_39:\n      stop\n        /* \"contracts/Staking.sol\":770:834  mapping(IERC721 => mapping(uint256 => LockInfo)) public lockInfo */\n    tag_10:\n      tag_42\n      0x04\n      dup1\n      calldatasize\n      sub\n      dup2\n      add\n      swap1\n      tag_43\n      swap2\n      swap1\n      tag_44\n      jump\t// in\n    tag_43:\n      tag_45\n      jump\t// in\n    tag_42:\n      mload(0x40)\n      tag_46\n      swap6\n      swap5\n      swap4\n      swap3\n      swap2\n      swap1\n      tag_47\n      jump\t// in\n    tag_46:\n      mload(0x40)\n      dup1\n      swap2\n      sub\n      swap1\n      return\n        /* \"contracts/Staking.sol\":3731:3905  function claimedRewards(uint256 _tokenId, IERC721 nftAddress) external view returns (uint256) {... */\n    tag_11:\n      tag_48\n      0x04\n      dup1\n      calldatasize\n      sub\n      dup2\n      add\n      swap1\n      tag_49\n      swap2\n      swap1\n      tag_50\n      jump\t// in\n    tag_49:\n      tag_51\n      jump\t// in\n    tag_48:\n      mload(0x40)\n      tag_52\n      swap2\n      swap1\n      tag_28\n      jump\t// in\n    tag_52:\n      mload(0x40)\n      dup1\n      swap2\n      sub\n      swap1\n      return\n        /* \"contracts/Staking.sol\":1099:1118  uint256 public WAVE */\n    tag_12:\n      tag_53\n      tag_54\n      jump\t// in\n    tag_53:\n      mload(0x40)\n      tag_55\n      swap2\n      swap1\n      tag_28\n      jump\t// in\n    tag_55:\n      mload(0x40)\n      dup1\n      swap2\n      sub\n      swap1\n      return\n        /* \"contracts/Staking.sol\":1016:1063  mapping(IERC721 => stakeNftInfo) public nftInfo */\n    tag_13:\n      tag_56\n      0x04\n      dup1\n      calldatasize\n      sub\n      dup2\n      add\n      swap1\n      tag_57\n      swap2\n      swap1\n      tag_58\n      jump\t// in\n    tag_57:\n      tag_59\n      jump\t// in\n    tag_56:\n      mload(0x40)\n      tag_60\n      swap4\n      swap3\n      swap2\n      swap1\n      tag_61\n      jump\t// in\n    tag_60:\n      mload(0x40)\n      dup1\n      swap2\n      sub\n      swap1\n      return\n        /* \"contracts/Staking.sol\":2322:3226  function addStakingNfts(... */\n    tag_14:\n      tag_62\n      0x04\n      dup1\n      calldatasize\n      sub\n      dup2\n      add\n      swap1\n      tag_63\n      swap2\n      swap1\n      tag_64\n      jump\t// in\n    tag_63:\n      tag_65\n      jump\t// in\n    tag_62:\n      stop\n        /* \"@openzeppelin/contracts/access/Ownable.sol\":2081:2279  function transferOwnership(address newOwner) public virtual onlyOwner {... */\n    tag_15:\n      tag_66\n      0x04\n      dup1\n      calldatasize\n      sub\n      dup2\n      add\n      swap1\n      tag_67\n      swap2\n      swap1\n      tag_68\n      jump\t// in\n    tag_67:\n      tag_69\n      jump\t// in\n    tag_66:\n      stop\n        /* \"contracts/Staking.sol\":6251:7414  function claimRewards(uint256[] calldata _tokenIds,IERC721 nftAddress) external notContract {... */\n    tag_21:\n        /* \"contracts/Staking.sol\":1972:2004  address(msg.sender).isContract() */\n      tag_71\n        /* \"contracts/Staking.sol\":1980:1990  msg.sender */\n      caller\n        /* \"contracts/Staking.sol\":1972:2002  address(msg.sender).isContract */\n      0xffffffffffffffffffffffffffffffffffffffff\n      and\n      tag_72\n        /* \"contracts/Staking.sol\":1972:2004  address(msg.sender).isContract() */\n      jump\t// in\n    tag_71:\n        /* \"contracts/Staking.sol\":1971:2004  !address(msg.sender).isContract() */\n      iszero\n        /* \"contracts/Staking.sol\":1963:2029  require(!address(msg.sender).isContract(), \"Contract not allowed\") */\n      tag_73\n      jumpi\n      mload(0x40)\n      0x08c379a000000000000000000000000000000000000000000000000000000000\n      dup2\n      mstore\n      0x04\n      add\n      tag_74\n      swap1\n      tag_75\n      jump\t// in\n    tag_74:\n      mload(0x40)\n      dup1\n      swap2\n      sub\n      swap1\n      revert\n    tag_73:\n        /* \"contracts/Staking.sol\":2062:2071  tx.origin */\n      origin\n        /* \"contracts/Staking.sol\":2048:2071  msg.sender == tx.origin */\n      0xffffffffffffffffffffffffffffffffffffffff\n      and\n        /* \"contracts/Staking.sol\":2048:2058  msg.sender */\n      caller\n        /* \"contracts/Staking.sol\":2048:2071  msg.sender == tx.origin */\n      0xffffffffffffffffffffffffffffffffffffffff\n      and\n      eq\n        /* \"contracts/Staking.sol\":2040:2102  require(msg.sender == tx.origin, \"Proxy contract not allowed\") */\n      tag_76\n      jumpi\n      mload(0x40)\n      0x08c379a000000000000000000000000000000000000000000000000000000000\n      dup2\n      mstore\n      0x04\n      add\n      tag_77\n      swap1\n      tag_78\n      jump\t// in\n    tag_77:\n      mload(0x40)\n      dup1\n      swap2\n      sub\n      swap1\n      revert\n    tag_76:\n        /* \"contracts/Staking.sol\":6412:6454  0x0000000000000000000000000000000000000000 */\n      0x00\n        /* \"contracts/Staking.sol\":6362:6455  nftInfo[nftAddress].rewardsToken != IRewardsToken(0x0000000000000000000000000000000000000000) */\n      0xffffffffffffffffffffffffffffffffffffffff\n      and\n        /* \"contracts/Staking.sol\":6362:6369  nftInfo */\n      0x04\n        /* \"contracts/Staking.sol\":6362:6381  nftInfo[nftAddress] */\n      0x00\n        /* \"contracts/Staking.sol\":6370:6380  nftAddress */\n      dup4\n        /* \"contracts/Staking.sol\":6362:6381  nftInfo[nftAddress] */\n      0xffffffffffffffffffffffffffffffffffffffff\n      and\n      0xffffffffffffffffffffffffffffffffffffffff\n      and\n      dup2\n      mstore\n      0x20\n      add\n      swap1\n      dup2\n      mstore\n      0x20\n      add\n      0x00\n      keccak256\n        /* \"contracts/Staking.sol\":6362:6394  nftInfo[nftAddress].rewardsToken */\n      0x00\n      add\n      0x00\n      swap1\n      sload\n      swap1\n      0x0100\n      exp\n      swap1\n      div\n      0xffffffffffffffffffffffffffffffffffffffff\n      and\n        /* \"contracts/Staking.sol\":6362:6455  nftInfo[nftAddress].rewardsToken != IRewardsToken(0x0000000000000000000000000000000000000000) */\n      0xffffffffffffffffffffffffffffffffffffffff\n      and\n      sub\n        /* \"contracts/Staking.sol\":6354:6506  require(nftInfo[nftAddress].rewardsToken != IRewardsToken(0x0000000000000000000000000000000000000000), \"Staking: Register collection by addStakingNfts\") */\n      tag_80\n      jumpi\n      mload(0x40)\n      0x08c379a000000000000000000000000000000000000000000000000000000000\n      dup2\n      mstore\n      0x04\n      add\n      tag_81\n      swap1\n      tag_82\n      jump\t// in\n    tag_81:\n      mload(0x40)\n      dup1\n      swap2\n      sub\n      swap1\n      revert\n    tag_80:\n        /* \"contracts/Staking.sol\":6544:6545  0 */\n      0x00\n        /* \"contracts/Staking.sol\":6525:6534  _tokenIds */\n      dup4\n      dup4\n        /* \"contracts/Staking.sol\":6525:6541  _tokenIds.length */\n      swap1\n      pop\n        /* \"contracts/Staking.sol\":6525:6545  _tokenIds.length > 0 */\n      gt\n        /* \"contracts/Staking.sol\":6517:6559  require(_tokenIds.length > 0, \"No tokens\") */\n      tag_83\n      jumpi\n      mload(0x40)\n      0x08c379a000000000000000000000000000000000000000000000000000000000\n      dup2\n      mstore\n      0x04\n      add\n      tag_84\n      swap1\n      tag_85\n      jump\t// in\n    tag_84:\n      mload(0x40)\n      dup1\n      swap2\n      sub\n      swap1\n      revert\n    tag_83:\n        /* \"contracts/Staking.sol\":6572:6592  uint256 totalRewards */\n      0x00\n        /* \"contracts/Staking.sol\":6608:6617  uint256 i */\n      dup1\n        /* \"contracts/Staking.sol\":6620:6621  0 */\n      0x00\n        /* \"contracts/Staking.sol\":6608:6621  uint256 i = 0 */\n      swap1\n      pop\n        /* \"contracts/Staking.sol\":6603:7338  for (uint256 i = 0; i < _tokenIds.length; i++) {... */\n    tag_86:\n        /* \"contracts/Staking.sol\":6627:6636  _tokenIds */\n      dup5\n      dup5\n        /* \"contracts/Staking.sol\":6627:6643  _tokenIds.length */\n      swap1\n      pop\n        /* \"contracts/Staking.sol\":6623:6624  i */\n      dup2\n        /* \"contracts/Staking.sol\":6623:6643  i < _tokenIds.length */\n      lt\n        /* \"contracts/Staking.sol\":6603:7338  for (uint256 i = 0; i < _tokenIds.length; i++) {... */\n      iszero\n      tag_87\n      jumpi\n        /* \"contracts/Staking.sol\":6665:6685  LockInfo memory info */\n      0x00\n        /* \"contracts/Staking.sol\":6688:6696  lockInfo */\n      0x03\n        /* \"contracts/Staking.sol\":6688:6717  lockInfo[IERC721(nftAddress)] */\n      0x00\n        /* \"contracts/Staking.sol\":6705:6715  nftAddress */\n      dup6\n        /* \"contracts/Staking.sol\":6688:6717  lockInfo[IERC721(nftAddress)] */\n      0xffffffffffffffffffffffffffffffffffffffff\n      and\n      0xffffffffffffffffffffffffffffffffffffffff\n      and\n      dup2\n      mstore\n      0x20\n      add\n      swap1\n      dup2\n      mstore\n      0x20\n      add\n      0x00\n      keccak256\n        /* \"contracts/Staking.sol\":6688:6731  lockInfo[IERC721(nftAddress)][_tokenIds[i]] */\n      0x00\n        /* \"contracts/Staking.sol\":6718:6727  _tokenIds */\n      dup8\n      dup8\n        /* \"contracts/Staking.sol\":6728:6729  i */\n      dup6\n        /* \"contracts/Staking.sol\":6718:6730  _tokenIds[i] */\n      dup2\n      dup2\n      lt\n      tag_89\n      jumpi\n      tag_90\n      tag_91\n      jump\t// in\n    tag_90:\n    tag_89:\n      swap1\n      pop\n      0x20\n      mul\n      add\n      calldataload\n        /* \"contracts/Staking.sol\":6688:6731  lockInfo[IERC721(nftAddress)][_tokenIds[i]] */\n      dup2\n      mstore\n      0x20\n      add\n      swap1\n      dup2\n      mstore\n      0x20\n      add\n      0x00\n      keccak256\n        /* \"contracts/Staking.sol\":6665:6731  LockInfo memory info = lockInfo[IERC721(nftAddress)][_tokenIds[i]] */\n      mload(0x40)\n      dup1\n      0xa0\n      add\n      0x40\n      mstore\n      swap1\n      dup2\n      0x00\n      dup3\n      add\n      0x00\n      swap1\n      sload\n      swap1\n      0x0100\n      exp\n      swap1\n      div\n      0xffffffffffffffffffffffffffffffffffffffff\n      and\n      0xffffffffffffffffffffffffffffffffffffffff\n      and\n      0xffffffffffffffffffffffffffffffffffffffff\n      and\n      dup2\n      mstore\n      0x20\n      add\n      0x01\n      dup3\n      add\n      sload\n      dup2\n      mstore\n      0x20\n      add\n      0x02\n      dup3\n      add\n      sload\n      dup2\n      mstore\n      0x20\n      add\n      0x03\n      dup3\n      add\n      0x00\n      swap1\n      sload\n      swap1\n      0x0100\n      exp\n      swap1\n      div\n      0xff\n      and\n      iszero\n      iszero\n      iszero\n      iszero\n      dup2\n      mstore\n      0x20\n      add\n      0x03\n      dup3\n      add\n      0x01\n      swap1\n      sload\n      swap1\n      0x0100\n      exp\n      swap1\n      div\n      0xffffffffffffffffffffffffffffffffffffffff\n      and\n      0xffffffffffffffffffffffffffffffffffffffff\n      and\n      0xffffffffffffffffffffffffffffffffffffffff\n      and\n      dup2\n      mstore\n      pop\n      pop\n      swap1\n      pop\n        /* \"contracts/Staking.sol\":6768:6778  msg.sender */\n      caller\n        /* \"contracts/Staking.sol\":6754:6778  info.owner == msg.sender */\n      0xffffffffffffffffffffffffffffffffffffffff\n      and\n        /* \"contracts/Staking.sol\":6754:6758  info */\n      dup2\n        /* \"contracts/Staking.sol\":6754:6764  info.owner */\n      0x00\n      add\n      mload\n        /* \"contracts/Staking.sol\":6754:6778  info.owner == msg.sender */\n      0xffffffffffffffffffffffffffffffffffffffff\n      and\n      eq\n        /* \"contracts/Staking.sol\":6746:6800  require(info.owner == msg.sender, \"Not a token owner\") */\n      tag_92\n      jumpi\n      mload(0x40)\n      0x08c379a000000000000000000000000000000000000000000000000000000000\n      dup2\n      mstore\n      0x04\n      add\n      tag_93\n      swap1\n      tag_94\n      jump\t// in\n    tag_93:\n      mload(0x40)\n      dup1\n      swap2\n      sub\n      swap1\n      revert\n    tag_92:\n        /* \"contracts/Staking.sol\":6854:6869  block.timestamp */\n      timestamp\n        /* \"contracts/Staking.sol\":6841:6851  lockPeriod */\n      sload(0x02)\n        /* \"contracts/Staking.sol\":6823:6827  info */\n      dup3\n        /* \"contracts/Staking.sol\":6823:6838  info.lockedTime */\n      0x20\n      add\n      mload\n        /* \"contracts/Staking.sol\":6823:6851  info.lockedTime + lockPeriod */\n      tag_95\n      swap2\n      swap1\n      tag_96\n      jump\t// in\n    tag_95:\n        /* \"contracts/Staking.sol\":6823:6869  info.lockedTime + lockPeriod < block.timestamp */\n      lt\n        /* \"contracts/Staking.sol\":6815:6895  require(info.lockedTime + lockPeriod < block.timestamp, \"Not able to claim yet\") */\n      tag_97\n      jumpi\n      mload(0x40)\n      0x08c379a000000000000000000000000000000000000000000000000000000000\n      dup2\n      mstore\n      0x04\n      add\n      tag_98\n      swap1\n      tag_99\n      jump\t// in\n    tag_98:\n      mload(0x40)\n      dup1\n      swap2\n      sub\n      swap1\n      revert\n    tag_97:\n        /* \"contracts/Staking.sol\":6919:6923  info */\n      dup1\n        /* \"contracts/Staking.sol\":6919:6934  info.isUnlocked */\n      0x60\n      add\n      mload\n        /* \"contracts/Staking.sol\":6918:6934  !info.isUnlocked */\n      iszero\n        /* \"contracts/Staking.sol\":6910:6955  require(!info.isUnlocked, \"Already unlocked\") */\n      tag_100\n      jumpi\n      mload(0x40)\n      0x08c379a000000000000000000000000000000000000000000000000000000000\n      dup2\n      mstore\n      0x04\n      add\n      tag_101\n      swap1\n      tag_102\n      jump\t// in\n    tag_101:\n      mload(0x40)\n      dup1\n      swap2\n      sub\n      swap1\n      revert\n    tag_100:\n        /* \"contracts/Staking.sol\":6972:6991  uint256 totalAmount */\n      0x00\n        /* \"contracts/Staking.sol\":6994:7033  _rewardAmount(_tokenIds[i], nftAddress) */\n      tag_103\n        /* \"contracts/Staking.sol\":7008:7017  _tokenIds */\n      dup8\n      dup8\n        /* \"contracts/Staking.sol\":7018:7019  i */\n      dup6\n        /* \"contracts/Staking.sol\":7008:7020  _tokenIds[i] */\n      dup2\n      dup2\n      lt\n      tag_104\n      jumpi\n      tag_105\n      tag_91\n      jump\t// in\n    tag_105:\n    tag_104:\n      swap1\n      pop\n      0x20\n      mul\n      add\n      calldataload\n        /* \"contracts/Staking.sol\":7022:7032  nftAddress */\n      dup7\n        /* \"contracts/Staking.sol\":6994:7007  _rewardAmount */\n      tag_106\n        /* \"contracts/Staking.sol\":6994:7033  _rewardAmount(_tokenIds[i], nftAddress) */\n      jump\t// in\n    tag_103:\n        /* \"contracts/Staking.sol\":6972:7033  uint256 totalAmount = _rewardAmount(_tokenIds[i], nftAddress) */\n      swap1\n      pop\n        /* \"contracts/Staking.sol\":7048:7072  uint256 unclaminedAmount */\n      0x00\n        /* \"contracts/Staking.sol\":7089:7093  info */\n      dup3\n        /* \"contracts/Staking.sol\":7089:7108  info.claimedRewards */\n      0x40\n      add\n      mload\n        /* \"contracts/Staking.sol\":7075:7086  totalAmount */\n      dup3\n        /* \"contracts/Staking.sol\":7075:7108  totalAmount - info.claimedRewards */\n      tag_107\n      swap2\n      swap1\n      tag_108\n      jump\t// in\n    tag_107:\n        /* \"contracts/Staking.sol\":7048:7108  uint256 unclaminedAmount = totalAmount - info.claimedRewards */\n      swap1\n      pop\n        /* \"contracts/Staking.sol\":7123:7130  nftInfo */\n      0x04\n        /* \"contracts/Staking.sol\":7123:7142  nftInfo[nftAddress] */\n      0x00\n        /* \"contracts/Staking.sol\":7131:7141  nftAddress */\n      dup8\n        /* \"contracts/Staking.sol\":7123:7142  nftInfo[nftAddress] */\n      0xffffffffffffffffffffffffffffffffffffffff\n      and\n      0xffffffffffffffffffffffffffffffffffffffff\n      and\n      dup2\n      mstore\n      0x20\n      add\n      swap1\n      dup2\n      mstore\n      0x20\n      add\n      0x00\n      keccak256\n        /* \"contracts/Staking.sol\":7123:7155  nftInfo[nftAddress].rewardsToken */\n      0x00\n      add\n      0x00\n      swap1\n      sload\n      swap1\n      0x0100\n      exp\n      swap1\n      div\n      0xffffffffffffffffffffffffffffffffffffffff\n      and\n        /* \"contracts/Staking.sol\":7123:7160  nftInfo[nftAddress].rewardsToken.mint */\n      0xffffffffffffffffffffffffffffffffffffffff\n      and\n      0x40c10f19\n        /* \"contracts/Staking.sol\":7161:7171  msg.sender */\n      caller\n        /* \"contracts/Staking.sol\":7173:7189  unclaminedAmount */\n      dup4\n        /* \"contracts/Staking.sol\":7123:7190  nftInfo[nftAddress].rewardsToken.mint(msg.sender, unclaminedAmount) */\n      mload(0x40)\n      dup4\n      0xffffffff\n      and\n      0xe0\n      shl\n      dup2\n      mstore\n      0x04\n      add\n      tag_109\n      swap3\n      swap2\n      swap1\n      tag_110\n      jump\t// in\n    tag_109:\n      0x00\n      mload(0x40)\n      dup1\n      dup4\n      sub\n      dup2\n      0x00\n      dup8\n      dup1\n      extcodesize\n      iszero\n      dup1\n      iszero\n      tag_111\n      jumpi\n      0x00\n      dup1\n      revert\n    tag_111:\n      pop\n      gas\n      call\n      iszero\n      dup1\n      iszero\n      tag_113\n      jumpi\n      returndatasize\n      0x00\n      dup1\n      returndatacopy\n      revert(0x00, returndatasize)\n    tag_113:\n      pop\n      pop\n      pop\n      pop\n        /* \"contracts/Staking.sol\":7221:7237  unclaminedAmount */\n      dup1\n        /* \"contracts/Staking.sol\":7205:7237  totalRewards += unclaminedAmount */\n      dup6\n      tag_114\n      swap2\n      swap1\n      tag_96\n      jump\t// in\n    tag_114:\n      swap5\n      pop\n        /* \"contracts/Staking.sol\":7315:7326  totalAmount */\n      dup2\n        /* \"contracts/Staking.sol\":7254:7262  lockInfo */\n      0x03\n        /* \"contracts/Staking.sol\":7254:7283  lockInfo[IERC721(nftAddress)] */\n      0x00\n        /* \"contracts/Staking.sol\":7271:7281  nftAddress */\n      dup9\n        /* \"contracts/Staking.sol\":7254:7283  lockInfo[IERC721(nftAddress)] */\n      0xffffffffffffffffffffffffffffffffffffffff\n      and\n      0xffffffffffffffffffffffffffffffffffffffff\n      and\n      dup2\n      mstore\n      0x20\n      add\n      swap1\n      dup2\n      mstore\n      0x20\n      add\n      0x00\n      keccak256\n        /* \"contracts/Staking.sol\":7254:7297  lockInfo[IERC721(nftAddress)][_tokenIds[i]] */\n      0x00\n        /* \"contracts/Staking.sol\":7284:7293  _tokenIds */\n      dup11\n      dup11\n        /* \"contracts/Staking.sol\":7294:7295  i */\n      dup9\n        /* \"contracts/Staking.sol\":7284:7296  _tokenIds[i] */\n      dup2\n      dup2\n      lt\n      tag_115\n      jumpi\n      tag_116\n      tag_91\n      jump\t// in\n    tag_116:\n    tag_115:\n      swap1\n      pop\n      0x20\n      mul\n      add\n      calldataload\n        /* \"contracts/Staking.sol\":7254:7297  lockInfo[IERC721(nftAddress)][_tokenIds[i]] */\n      dup2\n      mstore\n      0x20\n      add\n      swap1\n      dup2\n      mstore\n      0x20\n      add\n      0x00\n      keccak256\n        /* \"contracts/Staking.sol\":7254:7312  lockInfo[IERC721(nftAddress)][_tokenIds[i]].claimedRewards */\n      0x02\n      add\n        /* \"contracts/Staking.sol\":7254:7326  lockInfo[IERC721(nftAddress)][_tokenIds[i]].claimedRewards = totalAmount */\n      dup2\n      swap1\n      sstore\n      pop\n        /* \"contracts/Staking.sol\":6650:7338  {... */\n      pop\n      pop\n      pop\n        /* \"contracts/Staking.sol\":6645:6648  i++ */\n      dup1\n      dup1\n      tag_117\n      swap1\n      tag_118\n      jump\t// in\n    tag_117:\n      swap2\n      pop\n      pop\n        /* \"contracts/Staking.sol\":6603:7338  for (uint256 i = 0; i < _tokenIds.length; i++) {... */\n      jump(tag_86)\n    tag_87:\n      pop\n        /* \"contracts/Staking.sol\":7370:7380  msg.sender */\n      caller\n        /* \"contracts/Staking.sol\":7355:7406  RewardsClaimed(msg.sender, _tokenIds, totalRewards) */\n      0xffffffffffffffffffffffffffffffffffffffff\n      and\n      0x37826be3c26dbad83731f4b985f22fa9ef86b6d1974cd77208332b7f1f283c0c\n        /* \"contracts/Staking.sol\":7382:7391  _tokenIds */\n      dup6\n      dup6\n        /* \"contracts/Staking.sol\":7393:7405  totalRewards */\n      dup5\n        /* \"contracts/Staking.sol\":7355:7406  RewardsClaimed(msg.sender, _tokenIds, totalRewards) */\n      mload(0x40)\n      tag_119\n      swap4\n      swap3\n      swap2\n      swap1\n      tag_120\n      jump\t// in\n    tag_119:\n      mload(0x40)\n      dup1\n      swap2\n      sub\n      swap1\n      log2\n        /* \"contracts/Staking.sol\":6343:7414  {... */\n      pop\n        /* \"contracts/Staking.sol\":6251:7414  function claimRewards(uint256[] calldata _tokenIds,IERC721 nftAddress) external notContract {... */\n      pop\n      pop\n      pop\n      jump\t// out\n        /* \"contracts/Staking.sol\":4046:4802  function lockNFT(uint256[] calldata  _tokenIds, IERC721 nftAddress ) external notContract nonReentrant {... */\n    tag_24:\n        /* \"contracts/Staking.sol\":1972:2004  address(msg.sender).isContract() */\n      tag_122\n        /* \"contracts/Staking.sol\":1980:1990  msg.sender */\n      caller\n        /* \"contracts/Staking.sol\":1972:2002  address(msg.sender).isContract */\n      0xffffffffffffffffffffffffffffffffffffffff\n      and\n      tag_72\n        /* \"contracts/Staking.sol\":1972:2004  address(msg.sender).isContract() */\n      jump\t// in\n    tag_122:\n        /* \"contracts/Staking.sol\":1971:2004  !address(msg.sender).isContract() */\n      iszero\n        /* \"contracts/Staking.sol\":1963:2029  require(!address(msg.sender).isContract(), \"Contract not allowed\") */\n      tag_123\n      jumpi\n      mload(0x40)\n      0x08c379a000000000000000000000000000000000000000000000000000000000\n      dup2\n      mstore\n      0x04\n      add\n      tag_124\n      swap1\n      tag_75\n      jump\t// in\n    tag_124:\n      mload(0x40)\n      dup1\n      swap2\n      sub\n      swap1\n      revert\n    tag_123:\n        /* \"contracts/Staking.sol\":2062:2071  tx.origin */\n      origin\n        /* \"contracts/Staking.sol\":2048:2071  msg.sender == tx.origin */\n      0xffffffffffffffffffffffffffffffffffffffff\n      and\n        /* \"contracts/Staking.sol\":2048:2058  msg.sender */\n      caller\n        /* \"contracts/Staking.sol\":2048:2071  msg.sender == tx.origin */\n      0xffffffffffffffffffffffffffffffffffffffff\n      and\n      eq\n        /* \"contracts/Staking.sol\":2040:2102  require(msg.sender == tx.origin, \"Proxy contract not allowed\") */\n      tag_125\n      jumpi\n      mload(0x40)\n      0x08c379a000000000000000000000000000000000000000000000000000000000\n      dup2\n      mstore\n      0x04\n      add\n      tag_126\n      swap1\n      tag_78\n      jump\t// in\n    tag_126:\n      mload(0x40)\n      dup1\n      swap2\n      sub\n      swap1\n      revert\n    tag_125:\n        /* \"@openzeppelin/contracts/security/ReentrancyGuard.sol\":1744:1745  2 */\n      0x02\n        /* \"@openzeppelin/contracts/security/ReentrancyGuard.sol\":2325:2332  _status */\n      sload(0x01)\n        /* \"@openzeppelin/contracts/security/ReentrancyGuard.sol\":2325:2344  _status != _ENTERED */\n      sub\n        /* \"@openzeppelin/contracts/security/ReentrancyGuard.sol\":2317:2380  require(_status != _ENTERED, \"ReentrancyGuard: reentrant call\") */\n      tag_128\n      jumpi\n      mload(0x40)\n      0x08c379a000000000000000000000000000000000000000000000000000000000\n      dup2\n      mstore\n      0x04\n      add\n      tag_129\n      swap1\n      tag_130\n      jump\t// in\n    tag_129:\n      mload(0x40)\n      dup1\n      swap2\n      sub\n      swap1\n      revert\n    tag_128:\n        /* \"@openzeppelin/contracts/security/ReentrancyGuard.sol\":1744:1745  2 */\n      0x02\n        /* \"@openzeppelin/contracts/security/ReentrancyGuard.sol\":2455:2462  _status */\n      0x01\n        /* \"@openzeppelin/contracts/security/ReentrancyGuard.sol\":2455:2473  _status = _ENTERED */\n      dup2\n      swap1\n      sstore\n      pop\n        /* \"contracts/Staking.sol\":4220:4262  0x0000000000000000000000000000000000000000 */\n      0x00\n        /* \"contracts/Staking.sol\":4170:4263  nftInfo[nftAddress].rewardsToken != IRewardsToken(0x0000000000000000000000000000000000000000) */\n      0xffffffffffffffffffffffffffffffffffffffff\n      and\n        /* \"contracts/Staking.sol\":4170:4177  nftInfo */\n      0x04\n        /* \"contracts/Staking.sol\":4170:4189  nftInfo[nftAddress] */\n      0x00\n        /* \"contracts/Staking.sol\":4178:4188  nftAddress */\n      dup4\n        /* \"contracts/Staking.sol\":4170:4189  nftInfo[nftAddress] */\n      0xffffffffffffffffffffffffffffffffffffffff\n      and\n      0xffffffffffffffffffffffffffffffffffffffff\n      and\n      dup2\n      mstore\n      0x20\n      add\n      swap1\n      dup2\n      mstore\n      0x20\n      add\n      0x00\n      keccak256\n        /* \"contracts/Staking.sol\":4170:4202  nftInfo[nftAddress].rewardsToken */\n      0x00\n      add\n      0x00\n      swap1\n      sload\n      swap1\n      0x0100\n      exp\n      swap1\n      div\n      0xffffffffffffffffffffffffffffffffffffffff\n      and\n        /* \"contracts/Staking.sol\":4170:4263  nftInfo[nftAddress].rewardsToken != IRewardsToken(0x0000000000000000000000000000000000000000) */\n      0xffffffffffffffffffffffffffffffffffffffff\n      and\n      sub\n        /* \"contracts/Staking.sol\":4162:4314  require(nftInfo[nftAddress].rewardsToken != IRewardsToken(0x0000000000000000000000000000000000000000), \"Staking: Register collection by addStakingNfts\") */\n      tag_132\n      jumpi\n      mload(0x40)\n      0x08c379a000000000000000000000000000000000000000000000000000000000\n      dup2\n      mstore\n      0x04\n      add\n      tag_133\n      swap1\n      tag_82\n      jump\t// in\n    tag_133:\n      mload(0x40)\n      dup1\n      swap2\n      sub\n      swap1\n      revert\n    tag_132:\n        /* \"contracts/Staking.sol\":4352:4353  0 */\n      0x00\n        /* \"contracts/Staking.sol\":4333:4342  _tokenIds */\n      dup4\n      dup4\n        /* \"contracts/Staking.sol\":4333:4349  _tokenIds.length */\n      swap1\n      pop\n        /* \"contracts/Staking.sol\":4333:4353  _tokenIds.length > 0 */\n      gt\n        /* \"contracts/Staking.sol\":4325:4367  require(_tokenIds.length > 0, \"No tokens\") */\n      tag_134\n      jumpi\n      mload(0x40)\n      0x08c379a000000000000000000000000000000000000000000000000000000000\n      dup2\n      mstore\n      0x04\n      add\n      tag_135\n      swap1\n      tag_85\n      jump\t// in\n    tag_135:\n      mload(0x40)\n      dup1\n      swap2\n      sub\n      swap1\n      revert\n    tag_134:\n        /* \"contracts/Staking.sol\":4385:4394  uint256 i */\n      0x00\n        /* \"contracts/Staking.sol\":4380:4745  for (uint256 i = 0; i < _tokenIds.length; i++) {... */\n    tag_136:\n        /* \"contracts/Staking.sol\":4404:4413  _tokenIds */\n      dup4\n      dup4\n        /* \"contracts/Staking.sol\":4404:4420  _tokenIds.length */\n      swap1\n      pop\n        /* \"contracts/Staking.sol\":4400:4401  i */\n      dup2\n        /* \"contracts/Staking.sol\":4400:4420  i < _tokenIds.length */\n      lt\n        /* \"contracts/Staking.sol\":4380:4745  for (uint256 i = 0; i < _tokenIds.length; i++) {... */\n      iszero\n      tag_137\n      jumpi\n        /* \"contracts/Staking.sol\":4486:4496  msg.sender */\n      caller\n        /* \"contracts/Staking.sol\":4450:4496  nftAddress.ownerOf(_tokenIds[i]) == msg.sender */\n      0xffffffffffffffffffffffffffffffffffffffff\n      and\n        /* \"contracts/Staking.sol\":4450:4460  nftAddress */\n      dup3\n        /* \"contracts/Staking.sol\":4450:4468  nftAddress.ownerOf */\n      0xffffffffffffffffffffffffffffffffffffffff\n      and\n      0x6352211e\n        /* \"contracts/Staking.sol\":4469:4478  _tokenIds */\n      dup7\n      dup7\n        /* \"contracts/Staking.sol\":4479:4480  i */\n      dup6\n        /* \"contracts/Staking.sol\":4469:4481  _tokenIds[i] */\n      dup2\n      dup2\n      lt\n      tag_139\n      jumpi\n      tag_140\n      tag_91\n      jump\t// in\n    tag_140:\n    tag_139:\n      swap1\n      pop\n      0x20\n      mul\n      add\n      calldataload\n        /* \"contracts/Staking.sol\":4450:4482  nftAddress.ownerOf(_tokenIds[i]) */\n      mload(0x40)\n      dup3\n      0xffffffff\n      and\n      0xe0\n      shl\n      dup2\n      mstore\n      0x04\n      add\n      tag_141\n      swap2\n      swap1\n      tag_28\n      jump\t// in\n    tag_141:\n      0x20\n      mload(0x40)\n      dup1\n      dup4\n      sub\n      dup2\n      dup7\n      gas\n      staticcall\n      iszero\n      dup1\n      iszero\n      tag_143\n      jumpi\n      returndatasize\n      0x00\n      dup1\n      returndatacopy\n      revert(0x00, returndatasize)\n    tag_143:\n      pop\n      pop\n      pop\n      pop\n      mload(0x40)\n      returndatasize\n      not(0x1f)\n      0x1f\n      dup3\n      add\n      and\n      dup3\n      add\n      dup1\n      0x40\n      mstore\n      pop\n      dup2\n      add\n      swap1\n      tag_144\n      swap2\n      swap1\n      tag_145\n      jump\t// in\n    tag_144:\n        /* \"contracts/Staking.sol\":4450:4496  nftAddress.ownerOf(_tokenIds[i]) == msg.sender */\n      0xffffffffffffffffffffffffffffffffffffffff\n      and\n      eq\n        /* \"contracts/Staking.sol\":4442:4526  require(nftAddress.ownerOf(_tokenIds[i]) == msg.sender, \"You don't hold this token\") */\n      tag_146\n      jumpi\n      mload(0x40)\n      0x08c379a000000000000000000000000000000000000000000000000000000000\n      dup2\n      mstore\n      0x04\n      add\n      tag_147\n      swap1\n      tag_148\n      jump\t// in\n    tag_147:\n      mload(0x40)\n      dup1\n      swap2\n      sub\n      swap1\n      revert\n    tag_146:\n        /* \"contracts/Staking.sol\":4541:4551  nftAddress */\n      dup2\n        /* \"contracts/Staking.sol\":4541:4564  nftAddress.transferFrom */\n      0xffffffffffffffffffffffffffffffffffffffff\n      and\n      0x23b872dd\n        /* \"contracts/Staking.sol\":4565:4575  msg.sender */\n      caller\n        /* \"contracts/Staking.sol\":4585:4589  this */\n      address\n        /* \"contracts/Staking.sol\":4592:4601  _tokenIds */\n      dup8\n      dup8\n        /* \"contracts/Staking.sol\":4602:4603  i */\n      dup7\n        /* \"contracts/Staking.sol\":4592:4604  _tokenIds[i] */\n      dup2\n      dup2\n      lt\n      tag_149\n      jumpi\n      tag_150\n      tag_91\n      jump\t// in\n    tag_150:\n    tag_149:\n      swap1\n      pop\n      0x20\n      mul\n      add\n      calldataload\n        /* \"contracts/Staking.sol\":4541:4605  nftAddress.transferFrom(msg.sender, address(this), _tokenIds[i]) */\n      mload(0x40)\n      dup5\n      0xffffffff\n      and\n      0xe0\n      shl\n      dup2\n      mstore\n      0x04\n      add\n      tag_151\n      swap4\n      swap3\n      swap2\n      swap1\n      tag_152\n      jump\t// in\n    tag_151:\n      0x00\n      mload(0x40)\n      dup1\n      dup4\n      sub\n      dup2\n      0x00\n      dup8\n      dup1\n      extcodesize\n      iszero\n      dup1\n      iszero\n      tag_153\n      jumpi\n      0x00\n      dup1\n      revert\n    tag_153:\n      pop\n      gas\n      call\n      iszero\n      dup1\n      iszero\n      tag_155\n      jumpi\n      returndatasize\n      0x00\n      dup1\n      returndatacopy\n      revert(0x00, returndatasize)\n    tag_155:\n      pop\n      pop\n      pop\n      pop\n        /* \"contracts/Staking.sol\":4666:4733  LockInfo(msg.sender, block.timestamp, 0, false,IERC721(nftAddress)) */\n      mload(0x40)\n      dup1\n      0xa0\n      add\n      0x40\n      mstore\n      dup1\n        /* \"contracts/Staking.sol\":4675:4685  msg.sender */\n      caller\n        /* \"contracts/Staking.sol\":4666:4733  LockInfo(msg.sender, block.timestamp, 0, false,IERC721(nftAddress)) */\n      0xffffffffffffffffffffffffffffffffffffffff\n      and\n      dup2\n      mstore\n      0x20\n      add\n        /* \"contracts/Staking.sol\":4687:4702  block.timestamp */\n      timestamp\n        /* \"contracts/Staking.sol\":4666:4733  LockInfo(msg.sender, block.timestamp, 0, false,IERC721(nftAddress)) */\n      dup2\n      mstore\n      0x20\n      add\n        /* \"contracts/Staking.sol\":4704:4705  0 */\n      0x00\n        /* \"contracts/Staking.sol\":4666:4733  LockInfo(msg.sender, block.timestamp, 0, false,IERC721(nftAddress)) */\n      dup2\n      mstore\n      0x20\n      add\n        /* \"contracts/Staking.sol\":4707:4712  false */\n      0x00\n        /* \"contracts/Staking.sol\":4666:4733  LockInfo(msg.sender, block.timestamp, 0, false,IERC721(nftAddress)) */\n      iszero\n      iszero\n      dup2\n      mstore\n      0x20\n      add\n        /* \"contracts/Staking.sol\":4721:4731  nftAddress */\n      dup4\n        /* \"contracts/Staking.sol\":4666:4733  LockInfo(msg.sender, block.timestamp, 0, false,IERC721(nftAddress)) */\n      0xffffffffffffffffffffffffffffffffffffffff\n      and\n      dup2\n      mstore\n      pop\n        /* \"contracts/Staking.sol\":4620:4628  lockInfo */\n      0x03\n        /* \"contracts/Staking.sol\":4620:4649  lockInfo[IERC721(nftAddress)] */\n      0x00\n        /* \"contracts/Staking.sol\":4637:4647  nftAddress */\n      dup5\n        /* \"contracts/Staking.sol\":4620:4649  lockInfo[IERC721(nftAddress)] */\n      0xffffffffffffffffffffffffffffffffffffffff\n      and\n      0xffffffffffffffffffffffffffffffffffffffff\n      and\n      dup2\n      mstore\n      0x20\n      add\n      swap1\n      dup2\n      mstore\n      0x20\n      add\n      0x00\n      keccak256\n        /* \"contracts/Staking.sol\":4620:4663  lockInfo[IERC721(nftAddress)][_tokenIds[i]] */\n      0x00\n        /* \"contracts/Staking.sol\":4650:4659  _tokenIds */\n      dup7\n      dup7\n        /* \"contracts/Staking.sol\":4660:4661  i */\n      dup6\n        /* \"contracts/Staking.sol\":4650:4662  _tokenIds[i] */\n      dup2\n      dup2\n      lt\n      tag_156\n      jumpi\n      tag_157\n      tag_91\n      jump\t// in\n    tag_157:\n    tag_156:\n      swap1\n      pop\n      0x20\n      mul\n      add\n      calldataload\n        /* \"contracts/Staking.sol\":4620:4663  lockInfo[IERC721(nftAddress)][_tokenIds[i]] */\n      dup2\n      mstore\n      0x20\n      add\n      swap1\n      dup2\n      mstore\n      0x20\n      add\n      0x00\n      keccak256\n        /* \"contracts/Staking.sol\":4620:4733  lockInfo[IERC721(nftAddress)][_tokenIds[i]] = LockInfo(msg.sender, block.timestamp, 0, false,IERC721(nftAddress)) */\n      0x00\n      dup3\n      add\n      mload\n      dup2\n      0x00\n      add\n      exp(0x0100, 0x00)\n      dup2\n      sload\n      dup2\n      0xffffffffffffffffffffffffffffffffffffffff\n      mul\n      not\n      and\n      swap1\n      dup4\n      0xffffffffffffffffffffffffffffffffffffffff\n      and\n      mul\n      or\n      swap1\n      sstore\n      pop\n      0x20\n      dup3\n      add\n      mload\n      dup2\n      0x01\n      add\n      sstore\n      0x40\n      dup3\n      add\n      mload\n      dup2\n      0x02\n      add\n      sstore\n      0x60\n      dup3\n      add\n      mload\n      dup2\n      0x03\n      add\n      exp(0x0100, 0x00)\n      dup2\n      sload\n      dup2\n      0xff\n      mul\n      not\n      and\n      swap1\n      dup4\n      iszero\n      iszero\n      mul\n      or\n      swap1\n      sstore\n      pop\n      0x80\n      dup3\n      add\n      mload\n      dup2\n      0x03\n      add\n      exp(0x0100, 0x01)\n      dup2\n      sload\n      dup2\n      0xffffffffffffffffffffffffffffffffffffffff\n      mul\n      not\n      and\n      swap1\n      dup4\n      0xffffffffffffffffffffffffffffffffffffffff\n      and\n      mul\n      or\n      swap1\n      sstore\n      pop\n      swap1\n      pop\n      pop\n        /* \"contracts/Staking.sol\":4422:4425  i++ */\n      dup1\n      dup1\n      tag_158\n      swap1\n      tag_118\n      jump\t// in\n    tag_158:\n      swap2\n      pop\n      pop\n        /* \"contracts/Staking.sol\":4380:4745  for (uint256 i = 0; i < _tokenIds.length; i++) {... */\n      jump(tag_136)\n    tag_137:\n      pop\n        /* \"contracts/Staking.sol\":4772:4782  msg.sender */\n      caller\n        /* \"contracts/Staking.sol\":4762:4794  NFTLocked(msg.sender, _tokenIds) */\n      0xffffffffffffffffffffffffffffffffffffffff\n      and\n      0x458be0227bccc9e803dec79bd16767eeaf9925d2ce708eeed7ae1f3621f968f9\n        /* \"contracts/Staking.sol\":4784:4793  _tokenIds */\n      dup5\n      dup5\n        /* \"contracts/Staking.sol\":4762:4794  NFTLocked(msg.sender, _tokenIds) */\n      mload(0x40)\n      tag_159\n      swap3\n      swap2\n      swap1\n      tag_160\n      jump\t// in\n    tag_159:\n      mload(0x40)\n      dup1\n      swap2\n      sub\n      swap1\n      log2\n        /* \"@openzeppelin/contracts/security/ReentrancyGuard.sol\":1701:1702  1 */\n      0x01\n        /* \"@openzeppelin/contracts/security/ReentrancyGuard.sol\":2628:2635  _status */\n      dup1\n        /* \"@openzeppelin/contracts/security/ReentrancyGuard.sol\":2628:2650  _status = _NOT_ENTERED */\n      dup2\n      swap1\n      sstore\n      pop\n        /* \"contracts/Staking.sol\":4046:4802  function lockNFT(uint256[] calldata  _tokenIds, IERC721 nftAddress ) external notContract nonReentrant {... */\n      pop\n      pop\n      pop\n      jump\t// out\n        /* \"contracts/Staking.sol\":502:527  uint256 public lockPeriod */\n    tag_26:\n      sload(0x02)\n      dup2\n      jump\t// out\n        /* \"@openzeppelin/contracts/access/Ownable.sol\":1831:1932  function renounceOwnership() public virtual onlyOwner {... */\n    tag_30:\n        /* \"@openzeppelin/contracts/access/Ownable.sol\":1094:1107  _checkOwner() */\n      tag_162\n        /* \"@openzeppelin/contracts/access/Ownable.sol\":1094:1105  _checkOwner */\n      tag_163\n        /* \"@openzeppelin/contracts/access/Ownable.sol\":1094:1107  _checkOwner() */\n      jump\t// in\n    tag_162:\n        /* \"@openzeppelin/contracts/access/Ownable.sol\":1895:1925  _transferOwnership(address(0)) */\n      tag_165\n        /* \"@openzeppelin/contracts/access/Ownable.sol\":1922:1923  0 */\n      0x00\n        /* \"@openzeppelin/contracts/access/Ownable.sol\":1895:1913  _transferOwnership */\n      tag_166\n        /* \"@openzeppelin/contracts/access/Ownable.sol\":1895:1925  _transferOwnership(address(0)) */\n      jump\t// in\n    tag_165:\n        /* \"@openzeppelin/contracts/access/Ownable.sol\":1831:1932  function renounceOwnership() public virtual onlyOwner {... */\n      jump\t// out\n        /* \"contracts/Staking.sol\":3350:3563  function setLockPeriod(uint256 _lockPeriod) external onlyOwner {... */\n    tag_34:\n        /* \"@openzeppelin/contracts/access/Ownable.sol\":1094:1107  _checkOwner() */\n      tag_168\n        /* \"@openzeppelin/contracts/access/Ownable.sol\":1094:1105  _checkOwner */\n      tag_163\n        /* \"@openzeppelin/contracts/access/Ownable.sol\":1094:1107  _checkOwner() */\n      jump\t// in\n    tag_168:\n        /* \"contracts/Staking.sol\":3446:3447  0 */\n      0x00\n        /* \"contracts/Staking.sol\":3432:3443  _lockPeriod */\n      dup2\n        /* \"contracts/Staking.sol\":3432:3447  _lockPeriod > 0 */\n      gt\n        /* \"contracts/Staking.sol\":3424:3472  require(_lockPeriod > 0, \"Invalid lock period.\") */\n      tag_170\n      jumpi\n      mload(0x40)\n      0x08c379a000000000000000000000000000000000000000000000000000000000\n      dup2\n      mstore\n      0x04\n      add\n      tag_171\n      swap1\n      tag_172\n      jump\t// in\n    tag_171:\n      mload(0x40)\n      dup1\n      swap2\n      sub\n      swap1\n      revert\n    tag_170:\n        /* \"contracts/Staking.sol\":3496:3507  _lockPeriod */\n      dup1\n        /* \"contracts/Staking.sol\":3483:3493  lockPeriod */\n      0x02\n        /* \"contracts/Staking.sol\":3483:3507  lockPeriod = _lockPeriod */\n      dup2\n      swap1\n      sstore\n      pop\n        /* \"contracts/Staking.sol\":3525:3555  LockPeriodUpdated(_lockPeriod) */\n      0x8249ec545e68f6f1e1230133ca48c704d831a7f8e635ded80f3dd9e99b09bb2f\n        /* \"contracts/Staking.sol\":3543:3554  _lockPeriod */\n      dup2\n        /* \"contracts/Staking.sol\":3525:3555  LockPeriodUpdated(_lockPeriod) */\n      mload(0x40)\n      tag_173\n      swap2\n      swap1\n      tag_28\n      jump\t// in\n    tag_173:\n      mload(0x40)\n      dup1\n      swap2\n      sub\n      swap1\n      log1\n        /* \"contracts/Staking.sol\":3350:3563  function setLockPeriod(uint256 _lockPeriod) external onlyOwner {... */\n      pop\n      jump\t// out\n        /* \"@openzeppelin/contracts/access/Ownable.sol\":1201:1286  function owner() public view virtual returns (address) {... */\n    tag_36:\n        /* \"@openzeppelin/contracts/access/Ownable.sol\":1247:1254  address */\n      0x00\n        /* \"@openzeppelin/contracts/access/Ownable.sol\":1273:1279  _owner */\n      dup1\n      0x00\n      swap1\n      sload\n      swap1\n      0x0100\n      exp\n      swap1\n      div\n      0xffffffffffffffffffffffffffffffffffffffff\n      and\n        /* \"@openzeppelin/contracts/access/Ownable.sol\":1266:1279  return _owner */\n      swap1\n      pop\n        /* \"@openzeppelin/contracts/access/Ownable.sol\":1201:1286  function owner() public view virtual returns (address) {... */\n      swap1\n      jump\t// out\n        /* \"contracts/Staking.sol\":4915:6153  function unlockNFT(uint256[] calldata _tokenIds, IERC721 nftAddress) external notContract nonReentrant {... */\n    tag_41:\n        /* \"contracts/Staking.sol\":1972:2004  address(msg.sender).isContract() */\n      tag_176\n        /* \"contracts/Staking.sol\":1980:1990  msg.sender */\n      caller\n        /* \"contracts/Staking.sol\":1972:2002  address(msg.sender).isContract */\n      0xffffffffffffffffffffffffffffffffffffffff\n      and\n      tag_72\n        /* \"contracts/Staking.sol\":1972:2004  address(msg.sender).isContract() */\n      jump\t// in\n    tag_176:\n        /* \"contracts/Staking.sol\":1971:2004  !address(msg.sender).isContract() */\n      iszero\n        /* \"contracts/Staking.sol\":1963:2029  require(!address(msg.sender).isContract(), \"Contract not allowed\") */\n      tag_177\n      jumpi\n      mload(0x40)\n      0x08c379a000000000000000000000000000000000000000000000000000000000\n      dup2\n      mstore\n      0x04\n      add\n      tag_178\n      swap1\n      tag_75\n      jump\t// in\n    tag_178:\n      mload(0x40)\n      dup1\n      swap2\n      sub\n      swap1\n      revert\n    tag_177:\n        /* \"contracts/Staking.sol\":2062:2071  tx.origin */\n      origin\n        /* \"contracts/Staking.sol\":2048:2071  msg.sender == tx.origin */\n      0xffffffffffffffffffffffffffffffffffffffff\n      and\n        /* \"contracts/Staking.sol\":2048:2058  msg.sender */\n      caller\n        /* \"contracts/Staking.sol\":2048:2071  msg.sender == tx.origin */\n      0xffffffffffffffffffffffffffffffffffffffff\n      and\n      eq\n        /* \"contracts/Staking.sol\":2040:2102  require(msg.sender == tx.origin, \"Proxy contract not allowed\") */\n      tag_179\n      jumpi\n      mload(0x40)\n      0x08c379a000000000000000000000000000000000000000000000000000000000\n      dup2\n      mstore\n      0x04\n      add\n      tag_180\n      swap1\n      tag_78\n      jump\t// in\n    tag_180:\n      mload(0x40)\n      dup1\n      swap2\n      sub\n      swap1\n      revert\n    tag_179:\n        /* \"@openzeppelin/contracts/security/ReentrancyGuard.sol\":1744:1745  2 */\n      0x02\n        /* \"@openzeppelin/contracts/security/ReentrancyGuard.sol\":2325:2332  _status */\n      sload(0x01)\n        /* \"@openzeppelin/contracts/security/ReentrancyGuard.sol\":2325:2344  _status != _ENTERED */\n      sub\n        /* \"@openzeppelin/contracts/security/ReentrancyGuard.sol\":2317:2380  require(_status != _ENTERED, \"ReentrancyGuard: reentrant call\") */\n      tag_182\n      jumpi\n      mload(0x40)\n      0x08c379a000000000000000000000000000000000000000000000000000000000\n      dup2\n      mstore\n      0x04\n      add\n      tag_183\n      swap1\n      tag_130\n      jump\t// in\n    tag_183:\n      mload(0x40)\n      dup1\n      swap2\n      sub\n      swap1\n      revert\n    tag_182:\n        /* \"@openzeppelin/contracts/security/ReentrancyGuard.sol\":1744:1745  2 */\n      0x02\n        /* \"@openzeppelin/contracts/security/ReentrancyGuard.sol\":2455:2462  _status */\n      0x01\n        /* \"@openzeppelin/contracts/security/ReentrancyGuard.sol\":2455:2473  _status = _ENTERED */\n      dup2\n      swap1\n      sstore\n      pop\n        /* \"contracts/Staking.sol\":5087:5129  0x0000000000000000000000000000000000000000 */\n      0x00\n        /* \"contracts/Staking.sol\":5037:5130  nftInfo[nftAddress].rewardsToken != IRewardsToken(0x0000000000000000000000000000000000000000) */\n      0xffffffffffffffffffffffffffffffffffffffff\n      and\n        /* \"contracts/Staking.sol\":5037:5044  nftInfo */\n      0x04\n        /* \"contracts/Staking.sol\":5037:5056  nftInfo[nftAddress] */\n      0x00\n        /* \"contracts/Staking.sol\":5045:5055  nftAddress */\n      dup4\n        /* \"contracts/Staking.sol\":5037:5056  nftInfo[nftAddress] */\n      0xffffffffffffffffffffffffffffffffffffffff\n      and\n      0xffffffffffffffffffffffffffffffffffffffff\n      and\n      dup2\n      mstore\n      0x20\n      add\n      swap1\n      dup2\n      mstore\n      0x20\n      add\n      0x00\n      keccak256\n        /* \"contracts/Staking.sol\":5037:5069  nftInfo[nftAddress].rewardsToken */\n      0x00\n      add\n      0x00\n      swap1\n      sload\n      swap1\n      0x0100\n      exp\n      swap1\n      div\n      0xffffffffffffffffffffffffffffffffffffffff\n      and\n        /* \"contracts/Staking.sol\":5037:5130  nftInfo[nftAddress].rewardsToken != IRewardsToken(0x0000000000000000000000000000000000000000) */\n      0xffffffffffffffffffffffffffffffffffffffff\n      and\n      sub\n        /* \"contracts/Staking.sol\":5029:5181  require(nftInfo[nftAddress].rewardsToken != IRewardsToken(0x0000000000000000000000000000000000000000), \"Staking: Register collection by addStakingNfts\") */\n      tag_185\n      jumpi\n      mload(0x40)\n      0x08c379a000000000000000000000000000000000000000000000000000000000\n      dup2\n      mstore\n      0x04\n      add\n      tag_186\n      swap1\n      tag_82\n      jump\t// in\n    tag_186:\n      mload(0x40)\n      dup1\n      swap2\n      sub\n      swap1\n      revert\n    tag_185:\n        /* \"contracts/Staking.sol\":5219:5220  0 */\n      0x00\n        /* \"contracts/Staking.sol\":5200:5209  _tokenIds */\n      dup4\n      dup4\n        /* \"contracts/Staking.sol\":5200:5216  _tokenIds.length */\n      swap1\n      pop\n        /* \"contracts/Staking.sol\":5200:5220  _tokenIds.length > 0 */\n      gt\n        /* \"contracts/Staking.sol\":5192:5234  require(_tokenIds.length > 0, \"No tokens\") */\n      tag_187\n      jumpi\n      mload(0x40)\n      0x08c379a000000000000000000000000000000000000000000000000000000000\n      dup2\n      mstore\n      0x04\n      add\n      tag_188\n      swap1\n      tag_85\n      jump\t// in\n    tag_188:\n      mload(0x40)\n      dup1\n      swap2\n      sub\n      swap1\n      revert\n    tag_187:\n        /* \"contracts/Staking.sol\":5252:5261  uint256 i */\n      0x00\n        /* \"contracts/Staking.sol\":5247:6094  for (uint256 i = 0; i < _tokenIds.length; i++) {... */\n    tag_189:\n        /* \"contracts/Staking.sol\":5271:5280  _tokenIds */\n      dup4\n      dup4\n        /* \"contracts/Staking.sol\":5271:5287  _tokenIds.length */\n      swap1\n      pop\n        /* \"contracts/Staking.sol\":5267:5268  i */\n      dup2\n        /* \"contracts/Staking.sol\":5267:5287  i < _tokenIds.length */\n      lt\n        /* \"contracts/Staking.sol\":5247:6094  for (uint256 i = 0; i < _tokenIds.length; i++) {... */\n      iszero\n      tag_190\n      jumpi\n        /* \"contracts/Staking.sol\":5309:5329  LockInfo memory info */\n      0x00\n        /* \"contracts/Staking.sol\":5332:5340  lockInfo */\n      0x03\n        /* \"contracts/Staking.sol\":5332:5361  lockInfo[IERC721(nftAddress)] */\n      0x00\n        /* \"contracts/Staking.sol\":5349:5359  nftAddress */\n      dup5\n        /* \"contracts/Staking.sol\":5332:5361  lockInfo[IERC721(nftAddress)] */\n      0xffffffffffffffffffffffffffffffffffffffff\n      and\n      0xffffffffffffffffffffffffffffffffffffffff\n      and\n      dup2\n      mstore\n      0x20\n      add\n      swap1\n      dup2\n      mstore\n      0x20\n      add\n      0x00\n      keccak256\n        /* \"contracts/Staking.sol\":5332:5375  lockInfo[IERC721(nftAddress)][_tokenIds[i]] */\n      0x00\n        /* \"contracts/Staking.sol\":5362:5371  _tokenIds */\n      dup7\n      dup7\n        /* \"contracts/Staking.sol\":5372:5373  i */\n      dup6\n        /* \"contracts/Staking.sol\":5362:5374  _tokenIds[i] */\n      dup2\n      dup2\n      lt\n      tag_192\n      jumpi\n      tag_193\n      tag_91\n      jump\t// in\n    tag_193:\n    tag_192:\n      swap1\n      pop\n      0x20\n      mul\n      add\n      calldataload\n        /* \"contracts/Staking.sol\":5332:5375  lockInfo[IERC721(nftAddress)][_tokenIds[i]] */\n      dup2\n      mstore\n      0x20\n      add\n      swap1\n      dup2\n      mstore\n      0x20\n      add\n      0x00\n      keccak256\n        /* \"contracts/Staking.sol\":5309:5375  LockInfo memory info = lockInfo[IERC721(nftAddress)][_tokenIds[i]] */\n      mload(0x40)\n      dup1\n      0xa0\n      add\n      0x40\n      mstore\n      swap1\n      dup2\n      0x00\n      dup3\n      add\n      0x00\n      swap1\n      sload\n      swap1\n      0x0100\n      exp\n      swap1\n      div\n      0xffffffffffffffffffffffffffffffffffffffff\n      and\n      0xffffffffffffffffffffffffffffffffffffffff\n      and\n      0xffffffffffffffffffffffffffffffffffffffff\n      and\n      dup2\n      mstore\n      0x20\n      add\n      0x01\n      dup3\n      add\n      sload\n      dup2\n      mstore\n      0x20\n      add\n      0x02\n      dup3\n      add\n      sload\n      dup2\n      mstore\n      0x20\n      add\n      0x03\n      dup3\n      add\n      0x00\n      swap1\n      sload\n      swap1\n      0x0100\n      exp\n      swap1\n      div\n      0xff\n      and\n      iszero\n      iszero\n      iszero\n      iszero\n      dup2\n      mstore\n      0x20\n      add\n      0x03\n      dup3\n      add\n      0x01\n      swap1\n      sload\n      swap1\n      0x0100\n      exp\n      swap1\n      div\n      0xffffffffffffffffffffffffffffffffffffffff\n      and\n      0xffffffffffffffffffffffffffffffffffffffff\n      and\n      0xffffffffffffffffffffffffffffffffffffffff\n      and\n      dup2\n      mstore\n      pop\n      pop\n      swap1\n      pop\n        /* \"contracts/Staking.sol\":5412:5422  msg.sender */\n      caller\n        /* \"contracts/Staking.sol\":5398:5422  info.owner == msg.sender */\n      0xffffffffffffffffffffffffffffffffffffffff\n      and\n        /* \"contracts/Staking.sol\":5398:5402  info */\n      dup2\n        /* \"contracts/Staking.sol\":5398:5408  info.owner */\n      0x00\n      add\n      mload\n        /* \"contracts/Staking.sol\":5398:5422  info.owner == msg.sender */\n      0xffffffffffffffffffffffffffffffffffffffff\n      and\n      eq\n        /* \"contracts/Staking.sol\":5390:5444  require(info.owner == msg.sender, \"Not a token owner\") */\n      tag_194\n      jumpi\n      mload(0x40)\n      0x08c379a000000000000000000000000000000000000000000000000000000000\n      dup2\n      mstore\n      0x04\n      add\n      tag_195\n      swap1\n      tag_94\n      jump\t// in\n    tag_195:\n      mload(0x40)\n      dup1\n      swap2\n      sub\n      swap1\n      revert\n    tag_194:\n        /* \"contracts/Staking.sol\":5498:5513  block.timestamp */\n      timestamp\n        /* \"contracts/Staking.sol\":5485:5495  lockPeriod */\n      sload(0x02)\n        /* \"contracts/Staking.sol\":5467:5471  info */\n      dup3\n        /* \"contracts/Staking.sol\":5467:5482  info.lockedTime */\n      0x20\n      add\n      mload\n        /* \"contracts/Staking.sol\":5467:5495  info.lockedTime + lockPeriod */\n      tag_196\n      swap2\n      swap1\n      tag_96\n      jump\t// in\n    tag_196:\n        /* \"contracts/Staking.sol\":5467:5513  info.lockedTime + lockPeriod < block.timestamp */\n      lt\n        /* \"contracts/Staking.sol\":5459:5540  require(info.lockedTime + lockPeriod < block.timestamp, \"Not able to unlock yet\") */\n      tag_197\n      jumpi\n      mload(0x40)\n      0x08c379a000000000000000000000000000000000000000000000000000000000\n      dup2\n      mstore\n      0x04\n      add\n      tag_198\n      swap1\n      tag_199\n      jump\t// in\n    tag_198:\n      mload(0x40)\n      dup1\n      swap2\n      sub\n      swap1\n      revert\n    tag_197:\n        /* \"contracts/Staking.sol\":5564:5568  info */\n      dup1\n        /* \"contracts/Staking.sol\":5564:5579  info.isUnlocked */\n      0x60\n      add\n      mload\n        /* \"contracts/Staking.sol\":5563:5579  !info.isUnlocked */\n      iszero\n        /* \"contracts/Staking.sol\":5555:5600  require(!info.isUnlocked, \"Already unlocked\") */\n      tag_200\n      jumpi\n      mload(0x40)\n      0x08c379a000000000000000000000000000000000000000000000000000000000\n      dup2\n      mstore\n      0x04\n      add\n      tag_201\n      swap1\n      tag_102\n      jump\t// in\n    tag_201:\n      mload(0x40)\n      dup1\n      swap2\n      sub\n      swap1\n      revert\n    tag_200:\n        /* \"contracts/Staking.sol\":5617:5627  nftAddress */\n      dup3\n        /* \"contracts/Staking.sol\":5617:5640  nftAddress.transferFrom */\n      0xffffffffffffffffffffffffffffffffffffffff\n      and\n      0x23b872dd\n        /* \"contracts/Staking.sol\":5649:5653  this */\n      address\n        /* \"contracts/Staking.sol\":5656:5666  msg.sender */\n      caller\n        /* \"contracts/Staking.sol\":5668:5677  _tokenIds */\n      dup9\n      dup9\n        /* \"contracts/Staking.sol\":5678:5679  i */\n      dup8\n        /* \"contracts/Staking.sol\":5668:5680  _tokenIds[i] */\n      dup2\n      dup2\n      lt\n      tag_202\n      jumpi\n      tag_203\n      tag_91\n      jump\t// in\n    tag_203:\n    tag_202:\n      swap1\n      pop\n      0x20\n      mul\n      add\n      calldataload\n        /* \"contracts/Staking.sol\":5617:5681  nftAddress.transferFrom(address(this), msg.sender, _tokenIds[i]) */\n      mload(0x40)\n      dup5\n      0xffffffff\n      and\n      0xe0\n      shl\n      dup2\n      mstore\n      0x04\n      add\n      tag_204\n      swap4\n      swap3\n      swap2\n      swap1\n      tag_152\n      jump\t// in\n    tag_204:\n      0x00\n      mload(0x40)\n      dup1\n      dup4\n      sub\n      dup2\n      0x00\n      dup8\n      dup1\n      extcodesize\n      iszero\n      dup1\n      iszero\n      tag_205\n      jumpi\n      0x00\n      dup1\n      revert\n    tag_205:\n      pop\n      gas\n      call\n      iszero\n      dup1\n      iszero\n      tag_207\n      jumpi\n      returndatasize\n      0x00\n      dup1\n      returndatacopy\n      revert(0x00, returndatasize)\n    tag_207:\n      pop\n      pop\n      pop\n      pop\n        /* \"contracts/Staking.sol\":5698:5717  uint256 totalAmount */\n      0x00\n        /* \"contracts/Staking.sol\":5720:5759  _rewardAmount(_tokenIds[i], nftAddress) */\n      tag_208\n        /* \"contracts/Staking.sol\":5734:5743  _tokenIds */\n      dup7\n      dup7\n        /* \"contracts/Staking.sol\":5744:5745  i */\n      dup6\n        /* \"contracts/Staking.sol\":5734:5746  _tokenIds[i] */\n      dup2\n      dup2\n      lt\n      tag_209\n      jumpi\n      tag_210\n      tag_91\n      jump\t// in\n    tag_210:\n    tag_209:\n      swap1\n      pop\n      0x20\n      mul\n      add\n      calldataload\n        /* \"contracts/Staking.sol\":5748:5758  nftAddress */\n      dup6\n        /* \"contracts/Staking.sol\":5720:5733  _rewardAmount */\n      tag_106\n        /* \"contracts/Staking.sol\":5720:5759  _rewardAmount(_tokenIds[i], nftAddress) */\n      jump\t// in\n    tag_208:\n        /* \"contracts/Staking.sol\":5698:5759  uint256 totalAmount = _rewardAmount(_tokenIds[i], nftAddress) */\n      swap1\n      pop\n        /* \"contracts/Staking.sol\":5774:5798  uint256 unclaminedAmount */\n      0x00\n        /* \"contracts/Staking.sol\":5815:5819  info */\n      dup3\n        /* \"contracts/Staking.sol\":5815:5834  info.claimedRewards */\n      0x40\n      add\n      mload\n        /* \"contracts/Staking.sol\":5801:5812  totalAmount */\n      dup3\n        /* \"contracts/Staking.sol\":5801:5834  totalAmount - info.claimedRewards */\n      tag_211\n      swap2\n      swap1\n      tag_108\n      jump\t// in\n    tag_211:\n        /* \"contracts/Staking.sol\":5774:5834  uint256 unclaminedAmount = totalAmount - info.claimedRewards */\n      swap1\n      pop\n        /* \"contracts/Staking.sol\":5850:5857  nftInfo */\n      0x04\n        /* \"contracts/Staking.sol\":5850:5869  nftInfo[nftAddress] */\n      0x00\n        /* \"contracts/Staking.sol\":5858:5868  nftAddress */\n      dup7\n        /* \"contracts/Staking.sol\":5850:5869  nftInfo[nftAddress] */\n      0xffffffffffffffffffffffffffffffffffffffff\n      and\n      0xffffffffffffffffffffffffffffffffffffffff\n      and\n      dup2\n      mstore\n      0x20\n      add\n      swap1\n      dup2\n      mstore\n      0x20\n      add\n      0x00\n      keccak256\n        /* \"contracts/Staking.sol\":5850:5882  nftInfo[nftAddress].rewardsToken */\n      0x00\n      add\n      0x00\n      swap1\n      sload\n      swap1\n      0x0100\n      exp\n      swap1\n      div\n      0xffffffffffffffffffffffffffffffffffffffff\n      and\n        /* \"contracts/Staking.sol\":5850:5887  nftInfo[nftAddress].rewardsToken.mint */\n      0xffffffffffffffffffffffffffffffffffffffff\n      and\n      0x40c10f19\n        /* \"contracts/Staking.sol\":5888:5898  msg.sender */\n      caller\n        /* \"contracts/Staking.sol\":5900:5916  unclaminedAmount */\n      dup4\n        /* \"contracts/Staking.sol\":5850:5917  nftInfo[nftAddress].rewardsToken.mint(msg.sender, unclaminedAmount) */\n      mload(0x40)\n      dup4\n      0xffffffff\n      and\n      0xe0\n      shl\n      dup2\n      mstore\n      0x04\n      add\n      tag_212\n      swap3\n      swap2\n      swap1\n      tag_110\n      jump\t// in\n    tag_212:\n      0x00\n      mload(0x40)\n      dup1\n      dup4\n      sub\n      dup2\n      0x00\n      dup8\n      dup1\n      extcodesize\n      iszero\n      dup1\n      iszero\n      tag_213\n      jumpi\n      0x00\n      dup1\n      revert\n    tag_213:\n      pop\n      gas\n      call\n      iszero\n      dup1\n      iszero\n      tag_215\n      jumpi\n      returndatasize\n      0x00\n      dup1\n      returndatacopy\n      revert(0x00, returndatasize)\n    tag_215:\n      pop\n      pop\n      pop\n      pop\n        /* \"contracts/Staking.sol\":5995:6006  totalAmount */\n      dup2\n        /* \"contracts/Staking.sol\":5934:5942  lockInfo */\n      0x03\n        /* \"contracts/Staking.sol\":5934:5963  lockInfo[IERC721(nftAddress)] */\n      0x00\n        /* \"contracts/Staking.sol\":5951:5961  nftAddress */\n      dup8\n        /* \"contracts/Staking.sol\":5934:5963  lockInfo[IERC721(nftAddress)] */\n      0xffffffffffffffffffffffffffffffffffffffff\n      and\n      0xffffffffffffffffffffffffffffffffffffffff\n      and\n      dup2\n      mstore\n      0x20\n      add\n      swap1\n      dup2\n      mstore\n      0x20\n      add\n      0x00\n      keccak256\n        /* \"contracts/Staking.sol\":5934:5977  lockInfo[IERC721(nftAddress)][_tokenIds[i]] */\n      0x00\n        /* \"contracts/Staking.sol\":5964:5973  _tokenIds */\n      dup10\n      dup10\n        /* \"contracts/Staking.sol\":5974:5975  i */\n      dup9\n        /* \"contracts/Staking.sol\":5964:5976  _tokenIds[i] */\n      dup2\n      dup2\n      lt\n      tag_216\n      jumpi\n      tag_217\n      tag_91\n      jump\t// in\n    tag_217:\n    tag_216:\n      swap1\n      pop\n      0x20\n      mul\n      add\n      calldataload\n        /* \"contracts/Staking.sol\":5934:5977  lockInfo[IERC721(nftAddress)][_tokenIds[i]] */\n      dup2\n      mstore\n      0x20\n      add\n      swap1\n      dup2\n      mstore\n      0x20\n      add\n      0x00\n      keccak256\n        /* \"contracts/Staking.sol\":5934:5992  lockInfo[IERC721(nftAddress)][_tokenIds[i]].claimedRewards */\n      0x02\n      add\n        /* \"contracts/Staking.sol\":5934:6006  lockInfo[IERC721(nftAddress)][_tokenIds[i]].claimedRewards = totalAmount */\n      dup2\n      swap1\n      sstore\n      pop\n        /* \"contracts/Staking.sol\":6078:6082  true */\n      0x01\n        /* \"contracts/Staking.sol\":6021:6029  lockInfo */\n      0x03\n        /* \"contracts/Staking.sol\":6021:6050  lockInfo[IERC721(nftAddress)] */\n      0x00\n        /* \"contracts/Staking.sol\":6038:6048  nftAddress */\n      dup8\n        /* \"contracts/Staking.sol\":6021:6050  lockInfo[IERC721(nftAddress)] */\n      0xffffffffffffffffffffffffffffffffffffffff\n      and\n      0xffffffffffffffffffffffffffffffffffffffff\n      and\n      dup2\n      mstore\n      0x20\n      add\n      swap1\n      dup2\n      mstore\n      0x20\n      add\n      0x00\n      keccak256\n        /* \"contracts/Staking.sol\":6021:6064  lockInfo[IERC721(nftAddress)][_tokenIds[i]] */\n      0x00\n        /* \"contracts/Staking.sol\":6051:6060  _tokenIds */\n      dup10\n      dup10\n        /* \"contracts/Staking.sol\":6061:6062  i */\n      dup9\n        /* \"contracts/Staking.sol\":6051:6063  _tokenIds[i] */\n      dup2\n      dup2\n      lt\n      tag_218\n      jumpi\n      tag_219\n      tag_91\n      jump\t// in\n    tag_219:\n    tag_218:\n      swap1\n      pop\n      0x20\n      mul\n      add\n      calldataload\n        /* \"contracts/Staking.sol\":6021:6064  lockInfo[IERC721(nftAddress)][_tokenIds[i]] */\n      dup2\n      mstore\n      0x20\n      add\n      swap1\n      dup2\n      mstore\n      0x20\n      add\n      0x00\n      keccak256\n        /* \"contracts/Staking.sol\":6021:6075  lockInfo[IERC721(nftAddress)][_tokenIds[i]].isUnlocked */\n      0x03\n      add\n      0x00\n        /* \"contracts/Staking.sol\":6021:6082  lockInfo[IERC721(nftAddress)][_tokenIds[i]].isUnlocked = true */\n      0x0100\n      exp\n      dup2\n      sload\n      dup2\n      0xff\n      mul\n      not\n      and\n      swap1\n      dup4\n      iszero\n      iszero\n      mul\n      or\n      swap1\n      sstore\n      pop\n        /* \"contracts/Staking.sol\":5294:6094  {... */\n      pop\n      pop\n      pop\n        /* \"contracts/Staking.sol\":5289:5292  i++ */\n      dup1\n      dup1\n      tag_220\n      swap1\n      tag_118\n      jump\t// in\n    tag_220:\n      swap2\n      pop\n      pop\n        /* \"contracts/Staking.sol\":5247:6094  for (uint256 i = 0; i < _tokenIds.length; i++) {... */\n      jump(tag_189)\n    tag_190:\n      pop\n        /* \"contracts/Staking.sol\":6123:6133  msg.sender */\n      caller\n        /* \"contracts/Staking.sol\":6111:6145  NFTUnLocked(msg.sender, _tokenIds) */\n      0xffffffffffffffffffffffffffffffffffffffff\n      and\n      0x5cb48022479b9ac3bfb10a27965dc010acffc9fc1bc9a52f0b18975b944b54ca\n        /* \"contracts/Staking.sol\":6135:6144  _tokenIds */\n      dup5\n      dup5\n        /* \"contracts/Staking.sol\":6111:6145  NFTUnLocked(msg.sender, _tokenIds) */\n      mload(0x40)\n      tag_221\n      swap3\n      swap2\n      swap1\n      tag_160\n      jump\t// in\n    tag_221:\n      mload(0x40)\n      dup1\n      swap2\n      sub\n      swap1\n      log2\n        /* \"@openzeppelin/contracts/security/ReentrancyGuard.sol\":1701:1702  1 */\n      0x01\n        /* \"@openzeppelin/contracts/security/ReentrancyGuard.sol\":2628:2635  _status */\n      dup1\n        /* \"@openzeppelin/contracts/security/ReentrancyGuard.sol\":2628:2650  _status = _NOT_ENTERED */\n      dup2\n      swap1\n      sstore\n      pop\n        /* \"contracts/Staking.sol\":4915:6153  function unlockNFT(uint256[] calldata _tokenIds, IERC721 nftAddress) external notContract nonReentrant {... */\n      pop\n      pop\n      pop\n      jump\t// out\n        /* \"contracts/Staking.sol\":770:834  mapping(IERC721 => mapping(uint256 => LockInfo)) public lockInfo */\n    tag_45:\n      mstore(0x20, 0x03)\n      dup2\n      0x00\n      mstore\n      mstore(0x20, keccak256(0x00, 0x40))\n      dup1\n      0x00\n      mstore\n      keccak256(0x00, 0x40)\n      0x00\n      swap2\n      pop\n      swap2\n      pop\n      pop\n      dup1\n      0x00\n      add\n      0x00\n      swap1\n      sload\n      swap1\n      0x0100\n      exp\n      swap1\n      div\n      0xffffffffffffffffffffffffffffffffffffffff\n      and\n      swap1\n      dup1\n      0x01\n      add\n      sload\n      swap1\n      dup1\n      0x02\n      add\n      sload\n      swap1\n      dup1\n      0x03\n      add\n      0x00\n      swap1\n      sload\n      swap1\n      0x0100\n      exp\n      swap1\n      div\n      0xff\n      and\n      swap1\n      dup1\n      0x03\n      add\n      0x01\n      swap1\n      sload\n      swap1\n      0x0100\n      exp\n      swap1\n      div\n      0xffffffffffffffffffffffffffffffffffffffff\n      and\n      swap1\n      pop\n      dup6\n      jump\t// out\n        /* \"contracts/Staking.sol\":3731:3905  function claimedRewards(uint256 _tokenId, IERC721 nftAddress) external view returns (uint256) {... */\n    tag_51:\n        /* \"contracts/Staking.sol\":3816:3823  uint256 */\n      0x00\n        /* \"contracts/Staking.sol\":3843:3851  lockInfo */\n      0x03\n        /* \"contracts/Staking.sol\":3843:3872  lockInfo[IERC721(nftAddress)] */\n      0x00\n        /* \"contracts/Staking.sol\":3860:3870  nftAddress */\n      dup4\n        /* \"contracts/Staking.sol\":3843:3872  lockInfo[IERC721(nftAddress)] */\n      0xffffffffffffffffffffffffffffffffffffffff\n      and\n      0xffffffffffffffffffffffffffffffffffffffff\n      and\n      dup2\n      mstore\n      0x20\n      add\n      swap1\n      dup2\n      mstore\n      0x20\n      add\n      0x00\n      keccak256\n        /* \"contracts/Staking.sol\":3843:3882  lockInfo[IERC721(nftAddress)][_tokenId] */\n      0x00\n        /* \"contracts/Staking.sol\":3873:3881  _tokenId */\n      dup5\n        /* \"contracts/Staking.sol\":3843:3882  lockInfo[IERC721(nftAddress)][_tokenId] */\n      dup2\n      mstore\n      0x20\n      add\n      swap1\n      dup2\n      mstore\n      0x20\n      add\n      0x00\n      keccak256\n        /* \"contracts/Staking.sol\":3843:3897  lockInfo[IERC721(nftAddress)][_tokenId].claimedRewards */\n      0x02\n      add\n      sload\n        /* \"contracts/Staking.sol\":3836:3897  return lockInfo[IERC721(nftAddress)][_tokenId].claimedRewards */\n      swap1\n      pop\n        /* \"contracts/Staking.sol\":3731:3905  function claimedRewards(uint256 _tokenId, IERC721 nftAddress) external view returns (uint256) {... */\n      swap3\n      swap2\n      pop\n      pop\n      jump\t// out\n        /* \"contracts/Staking.sol\":1099:1118  uint256 public WAVE */\n    tag_54:\n      sload(0x05)\n      dup2\n      jump\t// out\n        /* \"contracts/Staking.sol\":1016:1063  mapping(IERC721 => stakeNftInfo) public nftInfo */\n    tag_59:\n      mstore(0x20, 0x04)\n      dup1\n      0x00\n      mstore\n      keccak256(0x00, 0x40)\n      0x00\n      swap2\n      pop\n      swap1\n      pop\n      dup1\n      0x00\n      add\n      0x00\n      swap1\n      sload\n      swap1\n      0x0100\n      exp\n      swap1\n      div\n      0xffffffffffffffffffffffffffffffffffffffff\n      and\n      swap1\n      dup1\n      0x01\n      add\n      sload\n      swap1\n      dup1\n      0x02\n      add\n      sload\n      swap1\n      pop\n      dup4\n      jump\t// out\n        /* \"contracts/Staking.sol\":2322:3226  function addStakingNfts(... */\n    tag_65:\n        /* \"@openzeppelin/contracts/access/Ownable.sol\":1094:1107  _checkOwner() */\n      tag_224\n        /* \"@openzeppelin/contracts/access/Ownable.sol\":1094:1105  _checkOwner */\n      tag_163\n        /* \"@openzeppelin/contracts/access/Ownable.sol\":1094:1107  _checkOwner() */\n      jump\t// in\n    tag_224:\n        /* \"contracts/Staking.sol\":2558:2564  uint i */\n      0x00\n        /* \"contracts/Staking.sol\":2553:3219  for (uint i = 0; i < _stakeNFT.length; i++) {... */\n    tag_226:\n        /* \"contracts/Staking.sol\":2574:2583  _stakeNFT */\n      dup5\n        /* \"contracts/Staking.sol\":2574:2590  _stakeNFT.length */\n      mload\n        /* \"contracts/Staking.sol\":2570:2571  i */\n      dup2\n        /* \"contracts/Staking.sol\":2570:2590  i < _stakeNFT.length */\n      lt\n        /* \"contracts/Staking.sol\":2553:3219  for (uint i = 0; i < _stakeNFT.length; i++) {... */\n      iszero\n      tag_227\n      jumpi\n        /* \"contracts/Staking.sol\":2644:2645  0 */\n      0x00\n        /* \"contracts/Staking.sol\":2620:2646  _stakeNFT[i] != address(0) */\n      0xffffffffffffffffffffffffffffffffffffffff\n      and\n        /* \"contracts/Staking.sol\":2620:2629  _stakeNFT */\n      dup6\n        /* \"contracts/Staking.sol\":2630:2631  i */\n      dup3\n        /* \"contracts/Staking.sol\":2620:2632  _stakeNFT[i] */\n      dup2\n      mload\n      dup2\n      lt\n      tag_229\n      jumpi\n      tag_230\n      tag_91\n      jump\t// in\n    tag_230:\n    tag_229:\n      0x20\n      mul\n      0x20\n      add\n      add\n      mload\n        /* \"contracts/Staking.sol\":2620:2646  _stakeNFT[i] != address(0) */\n      0xffffffffffffffffffffffffffffffffffffffff\n      and\n      sub\n        /* \"contracts/Staking.sol\":2612:2670  require(_stakeNFT[i] != address(0), \"Invalid Stake Token\") */\n      tag_231\n      jumpi\n      mload(0x40)\n      0x08c379a000000000000000000000000000000000000000000000000000000000\n      dup2\n      mstore\n      0x04\n      add\n      tag_232\n      swap1\n      tag_233\n      jump\t// in\n    tag_232:\n      mload(0x40)\n      dup1\n      swap2\n      sub\n      swap1\n      revert\n    tag_231:\n        /* \"contracts/Staking.sol\":2721:2722  0 */\n      0x00\n        /* \"contracts/Staking.sol\":2693:2723  _rewardsToken[i] != address(0) */\n      0xffffffffffffffffffffffffffffffffffffffff\n      and\n        /* \"contracts/Staking.sol\":2693:2706  _rewardsToken */\n      dup5\n        /* \"contracts/Staking.sol\":2707:2708  i */\n      dup3\n        /* \"contracts/Staking.sol\":2693:2709  _rewardsToken[i] */\n      dup2\n      mload\n      dup2\n      lt\n      tag_234\n      jumpi\n      tag_235\n      tag_91\n      jump\t// in\n    tag_235:\n    tag_234:\n      0x20\n      mul\n      0x20\n      add\n      add\n      mload\n        /* \"contracts/Staking.sol\":2693:2723  _rewardsToken[i] != address(0) */\n      0xffffffffffffffffffffffffffffffffffffffff\n      and\n      sub\n        /* \"contracts/Staking.sol\":2685:2748  require(_rewardsToken[i] != address(0), \"Invalid Reward Token\") */\n      tag_236\n      jumpi\n      mload(0x40)\n      0x08c379a000000000000000000000000000000000000000000000000000000000\n      dup2\n      mstore\n      0x04\n      add\n      tag_237\n      swap1\n      tag_238\n      jump\t// in\n    tag_237:\n      mload(0x40)\n      dup1\n      swap2\n      sub\n      swap1\n      revert\n    tag_236:\n        /* \"contracts/Staking.sol\":2779:2788  _stakeNFT */\n      dup5\n        /* \"contracts/Staking.sol\":2789:2790  i */\n      dup2\n        /* \"contracts/Staking.sol\":2779:2791  _stakeNFT[i] */\n      dup2\n      mload\n      dup2\n      lt\n      tag_239\n      jumpi\n      tag_240\n      tag_91\n      jump\t// in\n    tag_240:\n    tag_239:\n      0x20\n      mul\n      0x20\n      add\n      add\n      mload\n        /* \"contracts/Staking.sol\":2771:2810  IERC721(_stakeNFT[i]).supportsInterface */\n      0xffffffffffffffffffffffffffffffffffffffff\n      and\n      0x01ffc9a7\n        /* \"contracts/Staking.sol\":2811:2821  0x80ac58cd */\n      0x80ac58cd\n        /* \"contracts/Staking.sol\":2771:2822  IERC721(_stakeNFT[i]).supportsInterface(0x80ac58cd) */\n      mload(0x40)\n      dup3\n      0xffffffff\n      and\n      0xe0\n      shl\n      dup2\n      mstore\n      0x04\n      add\n      tag_241\n      swap2\n      swap1\n      tag_242\n      jump\t// in\n    tag_241:\n      0x20\n      mload(0x40)\n      dup1\n      dup4\n      sub\n      dup2\n      dup7\n      gas\n      staticcall\n      iszero\n      dup1\n      iszero\n      tag_244\n      jumpi\n      returndatasize\n      0x00\n      dup1\n      returndatacopy\n      revert(0x00, returndatasize)\n    tag_244:\n      pop\n      pop\n      pop\n      pop\n      mload(0x40)\n      returndatasize\n      not(0x1f)\n      0x1f\n      dup3\n      add\n      and\n      dup3\n      add\n      dup1\n      0x40\n      mstore\n      pop\n      dup2\n      add\n      swap1\n      tag_245\n      swap2\n      swap1\n      tag_246\n      jump\t// in\n    tag_245:\n        /* \"contracts/Staking.sol\":2763:2837  require(IERC721(_stakeNFT[i]).supportsInterface(0x80ac58cd), \"Non-erc721\") */\n      tag_247\n      jumpi\n      mload(0x40)\n      0x08c379a000000000000000000000000000000000000000000000000000000000\n      dup2\n      mstore\n      0x04\n      add\n      tag_248\n      swap1\n      tag_249\n      jump\t// in\n    tag_248:\n      mload(0x40)\n      dup1\n      swap2\n      sub\n      swap1\n      revert\n    tag_247:\n        /* \"contracts/Staking.sol\":2914:2927  _rewardsToken */\n      dup4\n        /* \"contracts/Staking.sol\":2928:2929  i */\n      dup2\n        /* \"contracts/Staking.sol\":2914:2930  _rewardsToken[i] */\n      dup2\n      mload\n      dup2\n      lt\n      tag_250\n      jumpi\n      tag_251\n      tag_91\n      jump\t// in\n    tag_251:\n    tag_250:\n      0x20\n      mul\n      0x20\n      add\n      add\n      mload\n        /* \"contracts/Staking.sol\":2854:2861  nftInfo */\n      0x04\n        /* \"contracts/Staking.sol\":2854:2884  nftInfo[IERC721(_stakeNFT[i])] */\n      0x00\n        /* \"contracts/Staking.sol\":2870:2879  _stakeNFT */\n      dup8\n        /* \"contracts/Staking.sol\":2880:2881  i */\n      dup5\n        /* \"contracts/Staking.sol\":2870:2882  _stakeNFT[i] */\n      dup2\n      mload\n      dup2\n      lt\n      tag_252\n      jumpi\n      tag_253\n      tag_91\n      jump\t// in\n    tag_253:\n    tag_252:\n      0x20\n      mul\n      0x20\n      add\n      add\n      mload\n        /* \"contracts/Staking.sol\":2854:2884  nftInfo[IERC721(_stakeNFT[i])] */\n      0xffffffffffffffffffffffffffffffffffffffff\n      and\n      0xffffffffffffffffffffffffffffffffffffffff\n      and\n      dup2\n      mstore\n      0x20\n      add\n      swap1\n      dup2\n      mstore\n      0x20\n      add\n      0x00\n      keccak256\n        /* \"contracts/Staking.sol\":2854:2897  nftInfo[IERC721(_stakeNFT[i])].rewardsToken */\n      0x00\n      add\n      0x00\n        /* \"contracts/Staking.sol\":2854:2931  nftInfo[IERC721(_stakeNFT[i])].rewardsToken = IRewardsToken(_rewardsToken[i]) */\n      0x0100\n      exp\n      dup2\n      sload\n      dup2\n      0xffffffffffffffffffffffffffffffffffffffff\n      mul\n      not\n      and\n      swap1\n      dup4\n      0xffffffffffffffffffffffffffffffffffffffff\n      and\n      mul\n      or\n      swap1\n      sstore\n      pop\n        /* \"contracts/Staking.sol\":2994:3008  _rewardPerWave */\n      dup3\n        /* \"contracts/Staking.sol\":3009:3010  i */\n      dup2\n        /* \"contracts/Staking.sol\":2994:3011  _rewardPerWave[i] */\n      dup2\n      mload\n      dup2\n      lt\n      tag_254\n      jumpi\n      tag_255\n      tag_91\n      jump\t// in\n    tag_255:\n    tag_254:\n      0x20\n      mul\n      0x20\n      add\n      add\n      mload\n        /* \"contracts/Staking.sol\":2946:2953  nftInfo */\n      0x04\n        /* \"contracts/Staking.sol\":2946:2976  nftInfo[IERC721(_stakeNFT[i])] */\n      0x00\n        /* \"contracts/Staking.sol\":2962:2971  _stakeNFT */\n      dup8\n        /* \"contracts/Staking.sol\":2972:2973  i */\n      dup5\n        /* \"contracts/Staking.sol\":2962:2974  _stakeNFT[i] */\n      dup2\n      mload\n      dup2\n      lt\n      tag_256\n      jumpi\n      tag_257\n      tag_91\n      jump\t// in\n    tag_257:\n    tag_256:\n      0x20\n      mul\n      0x20\n      add\n      add\n      mload\n        /* \"contracts/Staking.sol\":2946:2976  nftInfo[IERC721(_stakeNFT[i])] */\n      0xffffffffffffffffffffffffffffffffffffffff\n      and\n      0xffffffffffffffffffffffffffffffffffffffff\n      and\n      dup2\n      mstore\n      0x20\n      add\n      swap1\n      dup2\n      mstore\n      0x20\n      add\n      0x00\n      keccak256\n        /* \"contracts/Staking.sol\":2946:2991  nftInfo[IERC721(_stakeNFT[i])].rewardsPerWave */\n      0x01\n      add\n        /* \"contracts/Staking.sol\":2946:3011  nftInfo[IERC721(_stakeNFT[i])].rewardsPerWave = _rewardPerWave[i] */\n      dup2\n      swap1\n      sstore\n      pop\n        /* \"contracts/Staking.sol\":3076:3093  _rewardPercentage */\n      dup2\n        /* \"contracts/Staking.sol\":3094:3095  i */\n      dup2\n        /* \"contracts/Staking.sol\":3076:3096  _rewardPercentage[i] */\n      dup2\n      mload\n      dup2\n      lt\n      tag_258\n      jumpi\n      tag_259\n      tag_91\n      jump\t// in\n    tag_259:\n    tag_258:\n      0x20\n      mul\n      0x20\n      add\n      add\n      mload\n        /* \"contracts/Staking.sol\":3026:3033  nftInfo */\n      0x04\n        /* \"contracts/Staking.sol\":3026:3056  nftInfo[IERC721(_stakeNFT[i])] */\n      0x00\n        /* \"contracts/Staking.sol\":3042:3051  _stakeNFT */\n      dup8\n        /* \"contracts/Staking.sol\":3052:3053  i */\n      dup5\n        /* \"contracts/Staking.sol\":3042:3054  _stakeNFT[i] */\n      dup2\n      mload\n      dup2\n      lt\n      tag_260\n      jumpi\n      tag_261\n      tag_91\n      jump\t// in\n    tag_261:\n    tag_260:\n      0x20\n      mul\n      0x20\n      add\n      add\n      mload\n        /* \"contracts/Staking.sol\":3026:3056  nftInfo[IERC721(_stakeNFT[i])] */\n      0xffffffffffffffffffffffffffffffffffffffff\n      and\n      0xffffffffffffffffffffffffffffffffffffffff\n      and\n      dup2\n      mstore\n      0x20\n      add\n      swap1\n      dup2\n      mstore\n      0x20\n      add\n      0x00\n      keccak256\n        /* \"contracts/Staking.sol\":3026:3073  nftInfo[IERC721(_stakeNFT[i])].rewardPercentage */\n      0x02\n      add\n        /* \"contracts/Staking.sol\":3026:3096  nftInfo[IERC721(_stakeNFT[i])].rewardPercentage = _rewardPercentage[i] */\n      dup2\n      swap1\n      sstore\n      pop\n        /* \"contracts/Staking.sol\":3130:3211  AddStaking(_stakeNFT[i],_rewardsToken[i], _rewardPerWave[i],_rewardPercentage[i]) */\n      0x04cac4760c34edbb38aa036d2c4d21b2ab3010607dd83f0cab6fdc121db4a260\n        /* \"contracts/Staking.sol\":3141:3150  _stakeNFT */\n      dup6\n        /* \"contracts/Staking.sol\":3151:3152  i */\n      dup3\n        /* \"contracts/Staking.sol\":3141:3153  _stakeNFT[i] */\n      dup2\n      mload\n      dup2\n      lt\n      tag_262\n      jumpi\n      tag_263\n      tag_91\n      jump\t// in\n    tag_263:\n    tag_262:\n      0x20\n      mul\n      0x20\n      add\n      add\n      mload\n        /* \"contracts/Staking.sol\":3154:3167  _rewardsToken */\n      dup6\n        /* \"contracts/Staking.sol\":3168:3169  i */\n      dup4\n        /* \"contracts/Staking.sol\":3154:3170  _rewardsToken[i] */\n      dup2\n      mload\n      dup2\n      lt\n      tag_264\n      jumpi\n      tag_265\n      tag_91\n      jump\t// in\n    tag_265:\n    tag_264:\n      0x20\n      mul\n      0x20\n      add\n      add\n      mload\n        /* \"contracts/Staking.sol\":3172:3186  _rewardPerWave */\n      dup6\n        /* \"contracts/Staking.sol\":3187:3188  i */\n      dup5\n        /* \"contracts/Staking.sol\":3172:3189  _rewardPerWave[i] */\n      dup2\n      mload\n      dup2\n      lt\n      tag_266\n      jumpi\n      tag_267\n      tag_91\n      jump\t// in\n    tag_267:\n    tag_266:\n      0x20\n      mul\n      0x20\n      add\n      add\n      mload\n        /* \"contracts/Staking.sol\":3190:3207  _rewardPercentage */\n      dup6\n        /* \"contracts/Staking.sol\":3208:3209  i */\n      dup6\n        /* \"contracts/Staking.sol\":3190:3210  _rewardPercentage[i] */\n      dup2\n      mload\n      dup2\n      lt\n      tag_268\n      jumpi\n      tag_269\n      tag_91\n      jump\t// in\n    tag_269:\n    tag_268:\n      0x20\n      mul\n      0x20\n      add\n      add\n      mload\n        /* \"contracts/Staking.sol\":3130:3211  AddStaking(_stakeNFT[i],_rewardsToken[i], _rewardPerWave[i],_rewardPercentage[i]) */\n      mload(0x40)\n      tag_270\n      swap5\n      swap4\n      swap3\n      swap2\n      swap1\n      tag_271\n      jump\t// in\n    tag_270:\n      mload(0x40)\n      dup1\n      swap2\n      sub\n      swap1\n      log1\n        /* \"contracts/Staking.sol\":2592:2595  i++ */\n      dup1\n      dup1\n      tag_272\n      swap1\n      tag_118\n      jump\t// in\n    tag_272:\n      swap2\n      pop\n      pop\n        /* \"contracts/Staking.sol\":2553:3219  for (uint i = 0; i < _stakeNFT.length; i++) {... */\n      jump(tag_226)\n    tag_227:\n      pop\n        /* \"contracts/Staking.sol\":2322:3226  function addStakingNfts(... */\n      pop\n      pop\n      pop\n      pop\n      jump\t// out\n        /* \"@openzeppelin/contracts/access/Ownable.sol\":2081:2279  function transferOwnership(address newOwner) public virtual onlyOwner {... */\n    tag_69:\n        /* \"@openzeppelin/contracts/access/Ownable.sol\":1094:1107  _checkOwner() */\n      tag_274\n        /* \"@openzeppelin/contracts/access/Ownable.sol\":1094:1105  _checkOwner */\n      tag_163\n        /* \"@openzeppelin/contracts/access/Ownable.sol\":1094:1107  _checkOwner() */\n      jump\t// in\n    tag_274:\n        /* \"@openzeppelin/contracts/access/Ownable.sol\":2189:2190  0 */\n      0x00\n        /* \"@openzeppelin/contracts/access/Ownable.sol\":2169:2191  newOwner != address(0) */\n      0xffffffffffffffffffffffffffffffffffffffff\n      and\n        /* \"@openzeppelin/contracts/access/Ownable.sol\":2169:2177  newOwner */\n      dup2\n        /* \"@openzeppelin/contracts/access/Ownable.sol\":2169:2191  newOwner != address(0) */\n      0xffffffffffffffffffffffffffffffffffffffff\n      and\n      sub\n        /* \"@openzeppelin/contracts/access/Ownable.sol\":2161:2234  require(newOwner != address(0), \"Ownable: new owner is the zero address\") */\n      tag_276\n      jumpi\n      mload(0x40)\n      0x08c379a000000000000000000000000000000000000000000000000000000000\n      dup2\n      mstore\n      0x04\n      add\n      tag_277\n      swap1\n      tag_278\n      jump\t// in\n    tag_277:\n      mload(0x40)\n      dup1\n      swap2\n      sub\n      swap1\n      revert\n    tag_276:\n        /* \"@openzeppelin/contracts/access/Ownable.sol\":2244:2272  _transferOwnership(newOwner) */\n      tag_279\n        /* \"@openzeppelin/contracts/access/Ownable.sol\":2263:2271  newOwner */\n      dup2\n        /* \"@openzeppelin/contracts/access/Ownable.sol\":2244:2262  _transferOwnership */\n      tag_166\n        /* \"@openzeppelin/contracts/access/Ownable.sol\":2244:2272  _transferOwnership(newOwner) */\n      jump\t// in\n    tag_279:\n        /* \"@openzeppelin/contracts/access/Ownable.sol\":2081:2279  function transferOwnership(address newOwner) public virtual onlyOwner {... */\n      pop\n      jump\t// out\n        /* \"@openzeppelin/contracts/utils/Address.sol\":1175:1495  function isContract(address account) internal view returns (bool) {... */\n    tag_72:\n        /* \"@openzeppelin/contracts/utils/Address.sol\":1235:1239  bool */\n      0x00\n        /* \"@openzeppelin/contracts/utils/Address.sol\":1487:1488  0 */\n      dup1\n        /* \"@openzeppelin/contracts/utils/Address.sol\":1465:1472  account */\n      dup3\n        /* \"@openzeppelin/contracts/utils/Address.sol\":1465:1484  account.code.length */\n      0xffffffffffffffffffffffffffffffffffffffff\n      and\n      extcodesize\n        /* \"@openzeppelin/contracts/utils/Address.sol\":1465:1488  account.code.length > 0 */\n      gt\n        /* \"@openzeppelin/contracts/utils/Address.sol\":1458:1488  return account.code.length > 0 */\n      swap1\n      pop\n        /* \"@openzeppelin/contracts/utils/Address.sol\":1175:1495  function isContract(address account) internal view returns (bool) {... */\n      swap2\n      swap1\n      pop\n      jump\t// out\n        /* \"contracts/Staking.sol\":7477:7989  function _rewardAmount(uint256 _tokenId, IERC721 nftAddress) internal view returns (uint256) {... */\n    tag_106:\n        /* \"contracts/Staking.sol\":7561:7568  uint256 */\n      0x00\n        /* \"contracts/Staking.sol\":7581:7601  LockInfo memory info */\n      dup1\n        /* \"contracts/Staking.sol\":7604:7612  lockInfo */\n      0x03\n        /* \"contracts/Staking.sol\":7604:7633  lockInfo[IERC721(nftAddress)] */\n      0x00\n        /* \"contracts/Staking.sol\":7621:7631  nftAddress */\n      dup5\n        /* \"contracts/Staking.sol\":7604:7633  lockInfo[IERC721(nftAddress)] */\n      0xffffffffffffffffffffffffffffffffffffffff\n      and\n      0xffffffffffffffffffffffffffffffffffffffff\n      and\n      dup2\n      mstore\n      0x20\n      add\n      swap1\n      dup2\n      mstore\n      0x20\n      add\n      0x00\n      keccak256\n        /* \"contracts/Staking.sol\":7604:7643  lockInfo[IERC721(nftAddress)][_tokenId] */\n      0x00\n        /* \"contracts/Staking.sol\":7634:7642  _tokenId */\n      dup6\n        /* \"contracts/Staking.sol\":7604:7643  lockInfo[IERC721(nftAddress)][_tokenId] */\n      dup2\n      mstore\n      0x20\n      add\n      swap1\n      dup2\n      mstore\n      0x20\n      add\n      0x00\n      keccak256\n        /* \"contracts/Staking.sol\":7581:7643  LockInfo memory info = lockInfo[IERC721(nftAddress)][_tokenId] */\n      mload(0x40)\n      dup1\n      0xa0\n      add\n      0x40\n      mstore\n      swap1\n      dup2\n      0x00\n      dup3\n      add\n      0x00\n      swap1\n      sload\n      swap1\n      0x0100\n      exp\n      swap1\n      div\n      0xffffffffffffffffffffffffffffffffffffffff\n      and\n      0xffffffffffffffffffffffffffffffffffffffff\n      and\n      0xffffffffffffffffffffffffffffffffffffffff\n      and\n      dup2\n      mstore\n      0x20\n      add\n      0x01\n      dup3\n      add\n      sload\n      dup2\n      mstore\n      0x20\n      add\n      0x02\n      dup3\n      add\n      sload\n      dup2\n      mstore\n      0x20\n      add\n      0x03\n      dup3\n      add\n      0x00\n      swap1\n      sload\n      swap1\n      0x0100\n      exp\n      swap1\n      div\n      0xff\n      and\n      iszero\n      iszero\n      iszero\n      iszero\n      dup2\n      mstore\n      0x20\n      add\n      0x03\n      dup3\n      add\n      0x01\n      swap1\n      sload\n      swap1\n      0x0100\n      exp\n      swap1\n      div\n      0xffffffffffffffffffffffffffffffffffffffff\n      and\n      0xffffffffffffffffffffffffffffffffffffffff\n      and\n      0xffffffffffffffffffffffffffffffffffffffff\n      and\n      dup2\n      mstore\n      pop\n      pop\n      swap1\n      pop\n        /* \"contracts/Staking.sol\":7654:7677  uint256 stakingDuration */\n      0x00\n        /* \"contracts/Staking.sol\":7698:7702  info */\n      dup2\n        /* \"contracts/Staking.sol\":7698:7713  info.lockedTime */\n      0x20\n      add\n      mload\n        /* \"contracts/Staking.sol\":7680:7695  block.timestamp */\n      timestamp\n        /* \"contracts/Staking.sol\":7680:7713  block.timestamp - info.lockedTime */\n      tag_282\n      swap2\n      swap1\n      tag_108\n      jump\t// in\n    tag_282:\n        /* \"contracts/Staking.sol\":7654:7713  uint256 stakingDuration = block.timestamp - info.lockedTime */\n      swap1\n      pop\n        /* \"contracts/Staking.sol\":7724:7743  uint256 totalAmount */\n      0x00\n        /* \"contracts/Staking.sol\":7778:7788  lockPeriod */\n      sload(0x02)\n        /* \"contracts/Staking.sol\":7760:7775  stakingDuration */\n      dup3\n        /* \"contracts/Staking.sol\":7760:7788  stakingDuration < lockPeriod */\n      lt\n        /* \"contracts/Staking.sol\":7756:7982  if (stakingDuration < lockPeriod) {... */\n      iszero\n      tag_283\n      jumpi\n        /* \"contracts/Staking.sol\":7812:7813  0 */\n      0x00\n        /* \"contracts/Staking.sol\":7805:7813  return 0 */\n      swap4\n      pop\n      pop\n      pop\n      pop\n      jump(tag_281)\n        /* \"contracts/Staking.sol\":7756:7982  if (stakingDuration < lockPeriod) {... */\n    tag_283:\n        /* \"contracts/Staking.sol\":7933:7937  WAVE */\n      sload(0x05)\n        /* \"contracts/Staking.sol\":7918:7928  lockPeriod */\n      sload(0x02)\n        /* \"contracts/Staking.sol\":7900:7915  stakingDuration */\n      dup4\n        /* \"contracts/Staking.sol\":7900:7928  stakingDuration - lockPeriod */\n      tag_285\n      swap2\n      swap1\n      tag_108\n      jump\t// in\n    tag_285:\n        /* \"contracts/Staking.sol\":7862:7869  nftInfo */\n      0x04\n        /* \"contracts/Staking.sol\":7862:7881  nftInfo[nftAddress] */\n      0x00\n        /* \"contracts/Staking.sol\":7870:7880  nftAddress */\n      dup9\n        /* \"contracts/Staking.sol\":7862:7881  nftInfo[nftAddress] */\n      0xffffffffffffffffffffffffffffffffffffffff\n      and\n      0xffffffffffffffffffffffffffffffffffffffff\n      and\n      dup2\n      mstore\n      0x20\n      add\n      swap1\n      dup2\n      mstore\n      0x20\n      add\n      0x00\n      keccak256\n        /* \"contracts/Staking.sol\":7862:7896  nftInfo[nftAddress].rewardsPerWave */\n      0x01\n      add\n      sload\n        /* \"contracts/Staking.sol\":7862:7929  nftInfo[nftAddress].rewardsPerWave * (stakingDuration - lockPeriod) */\n      tag_286\n      swap2\n      swap1\n      tag_287\n      jump\t// in\n    tag_286:\n        /* \"contracts/Staking.sol\":7860:7937  ( nftInfo[nftAddress].rewardsPerWave * (stakingDuration - lockPeriod)) / WAVE */\n      tag_288\n      swap2\n      swap1\n      tag_289\n      jump\t// in\n    tag_288:\n        /* \"contracts/Staking.sol\":7846:7937  totalAmount = ( nftInfo[nftAddress].rewardsPerWave * (stakingDuration - lockPeriod)) / WAVE */\n      swap1\n      pop\n        /* \"contracts/Staking.sol\":7959:7970  totalAmount */\n      dup1\n        /* \"contracts/Staking.sol\":7952:7970  return totalAmount */\n      swap4\n      pop\n      pop\n      pop\n      pop\n        /* \"contracts/Staking.sol\":7477:7989  function _rewardAmount(uint256 _tokenId, IERC721 nftAddress) internal view returns (uint256) {... */\n    tag_281:\n      swap3\n      swap2\n      pop\n      pop\n      jump\t// out\n        /* \"@openzeppelin/contracts/access/Ownable.sol\":1359:1489  function _checkOwner() internal view virtual {... */\n    tag_163:\n        /* \"@openzeppelin/contracts/access/Ownable.sol\":1433:1445  _msgSender() */\n      tag_291\n        /* \"@openzeppelin/contracts/access/Ownable.sol\":1433:1443  _msgSender */\n      tag_292\n        /* \"@openzeppelin/contracts/access/Ownable.sol\":1433:1445  _msgSender() */\n      jump\t// in\n    tag_291:\n        /* \"@openzeppelin/contracts/access/Ownable.sol\":1422:1445  owner() == _msgSender() */\n      0xffffffffffffffffffffffffffffffffffffffff\n      and\n        /* \"@openzeppelin/contracts/access/Ownable.sol\":1422:1429  owner() */\n      tag_293\n        /* \"@openzeppelin/contracts/access/Ownable.sol\":1422:1427  owner */\n      tag_36\n        /* \"@openzeppelin/contracts/access/Ownable.sol\":1422:1429  owner() */\n      jump\t// in\n    tag_293:\n        /* \"@openzeppelin/contracts/access/Ownable.sol\":1422:1445  owner() == _msgSender() */\n      0xffffffffffffffffffffffffffffffffffffffff\n      and\n      eq\n        /* \"@openzeppelin/contracts/access/Ownable.sol\":1414:1482  require(owner() == _msgSender(), \"Ownable: caller is not the owner\") */\n      tag_294\n      jumpi\n      mload(0x40)\n      0x08c379a000000000000000000000000000000000000000000000000000000000\n      dup2\n      mstore\n      0x04\n      add\n      tag_295\n      swap1\n      tag_296\n      jump\t// in\n    tag_295:\n      mload(0x40)\n      dup1\n      swap2\n      sub\n      swap1\n      revert\n    tag_294:\n        /* \"@openzeppelin/contracts/access/Ownable.sol\":1359:1489  function _checkOwner() internal view virtual {... */\n      jump\t// out\n        /* \"@openzeppelin/contracts/access/Ownable.sol\":2433:2620  function _transferOwnership(address newOwner) internal virtual {... */\n    tag_166:\n        /* \"@openzeppelin/contracts/access/Ownable.sol\":2506:2522  address oldOwner */\n      0x00\n        /* \"@openzeppelin/contracts/access/Ownable.sol\":2525:2531  _owner */\n      dup1\n      0x00\n      swap1\n      sload\n      swap1\n      0x0100\n      exp\n      swap1\n      div\n      0xffffffffffffffffffffffffffffffffffffffff\n      and\n        /* \"@openzeppelin/contracts/access/Ownable.sol\":2506:2531  address oldOwner = _owner */\n      swap1\n      pop\n        /* \"@openzeppelin/contracts/access/Ownable.sol\":2550:2558  newOwner */\n      dup2\n        /* \"@openzeppelin/contracts/access/Ownable.sol\":2541:2547  _owner */\n      0x00\n      dup1\n        /* \"@openzeppelin/contracts/access/Ownable.sol\":2541:2558  _owner = newOwner */\n      0x0100\n      exp\n      dup2\n      sload\n      dup2\n      0xffffffffffffffffffffffffffffffffffffffff\n      mul\n      not\n      and\n      swap1\n      dup4\n      0xffffffffffffffffffffffffffffffffffffffff\n      and\n      mul\n      or\n      swap1\n      sstore\n      pop\n        /* \"@openzeppelin/contracts/access/Ownable.sol\":2604:2612  newOwner */\n      dup2\n        /* \"@openzeppelin/contracts/access/Ownable.sol\":2573:2613  OwnershipTransferred(oldOwner, newOwner) */\n      0xffffffffffffffffffffffffffffffffffffffff\n      and\n        /* \"@openzeppelin/contracts/access/Ownable.sol\":2594:2602  oldOwner */\n      dup2\n        /* \"@openzeppelin/contracts/access/Ownable.sol\":2573:2613  OwnershipTransferred(oldOwner, newOwner) */\n      0xffffffffffffffffffffffffffffffffffffffff\n      and\n      0x8be0079c531659141344cd1fd0a4f28419497f9722a3daafe3b4186f6b6457e0\n      mload(0x40)\n      mload(0x40)\n      dup1\n      swap2\n      sub\n      swap1\n      log3\n        /* \"@openzeppelin/contracts/access/Ownable.sol\":2496:2620  {... */\n      pop\n        /* \"@openzeppelin/contracts/access/Ownable.sol\":2433:2620  function _transferOwnership(address newOwner) internal virtual {... */\n      pop\n      jump\t// out\n        /* \"@openzeppelin/contracts/utils/Context.sol\":640:736  function _msgSender() internal view virtual returns (address) {... */\n    tag_292:\n        /* \"@openzeppelin/contracts/utils/Context.sol\":693:700  address */\n      0x00\n        /* \"@openzeppelin/contracts/utils/Context.sol\":719:729  msg.sender */\n      caller\n        /* \"@openzeppelin/contracts/utils/Context.sol\":712:729  return msg.sender */\n      swap1\n      pop\n        /* \"@openzeppelin/contracts/utils/Context.sol\":640:736  function _msgSender() internal view virtual returns (address) {... */\n      swap1\n      jump\t// out\n        /* \"#utility.yul\":7:82   */\n    tag_299:\n        /* \"#utility.yul\":40:46   */\n      0x00\n        /* \"#utility.yul\":73:75   */\n      0x40\n        /* \"#utility.yul\":67:76   */\n      mload\n        /* \"#utility.yul\":57:76   */\n      swap1\n      pop\n        /* \"#utility.yul\":7:82   */\n      swap1\n      jump\t// out\n        /* \"#utility.yul\":88:205   */\n    tag_300:\n        /* \"#utility.yul\":197:198   */\n      0x00\n        /* \"#utility.yul\":194:195   */\n      dup1\n        /* \"#utility.yul\":187:199   */\n      revert\n        /* \"#utility.yul\":211:328   */\n    tag_301:\n        /* \"#utility.yul\":320:321   */\n      0x00\n        /* \"#utility.yul\":317:318   */\n      dup1\n        /* \"#utility.yul\":310:322   */\n      revert\n        /* \"#utility.yul\":334:451   */\n    tag_302:\n        /* \"#utility.yul\":443:444   */\n      0x00\n        /* \"#utility.yul\":440:441   */\n      dup1\n        /* \"#utility.yul\":433:445   */\n      revert\n        /* \"#utility.yul\":457:574   */\n    tag_303:\n        /* \"#utility.yul\":566:567   */\n      0x00\n        /* \"#utility.yul\":563:564   */\n      dup1\n        /* \"#utility.yul\":556:568   */\n      revert\n        /* \"#utility.yul\":580:697   */\n    tag_304:\n        /* \"#utility.yul\":689:690   */\n      0x00\n        /* \"#utility.yul\":686:687   */\n      dup1\n        /* \"#utility.yul\":679:691   */\n      revert\n        /* \"#utility.yul\":720:1288   */\n    tag_305:\n        /* \"#utility.yul\":793:801   */\n      0x00\n        /* \"#utility.yul\":803:809   */\n      dup1\n        /* \"#utility.yul\":853:856   */\n      dup4\n        /* \"#utility.yul\":846:850   */\n      0x1f\n        /* \"#utility.yul\":838:844   */\n      dup5\n        /* \"#utility.yul\":834:851   */\n      add\n        /* \"#utility.yul\":830:857   */\n      slt\n        /* \"#utility.yul\":820:942   */\n      tag_392\n      jumpi\n        /* \"#utility.yul\":861:940   */\n      tag_393\n      tag_302\n      jump\t// in\n    tag_393:\n        /* \"#utility.yul\":820:942   */\n    tag_392:\n        /* \"#utility.yul\":974:980   */\n      dup3\n        /* \"#utility.yul\":961:981   */\n      calldataload\n        /* \"#utility.yul\":951:981   */\n      swap1\n      pop\n        /* \"#utility.yul\":1004:1022   */\n      0xffffffffffffffff\n        /* \"#utility.yul\":996:1002   */\n      dup2\n        /* \"#utility.yul\":993:1023   */\n      gt\n        /* \"#utility.yul\":990:1107   */\n      iszero\n      tag_394\n      jumpi\n        /* \"#utility.yul\":1026:1105   */\n      tag_395\n      tag_303\n      jump\t// in\n    tag_395:\n        /* \"#utility.yul\":990:1107   */\n    tag_394:\n        /* \"#utility.yul\":1140:1144   */\n      0x20\n        /* \"#utility.yul\":1132:1138   */\n      dup4\n        /* \"#utility.yul\":1128:1145   */\n      add\n        /* \"#utility.yul\":1116:1145   */\n      swap2\n      pop\n        /* \"#utility.yul\":1194:1197   */\n      dup4\n        /* \"#utility.yul\":1186:1190   */\n      0x20\n        /* \"#utility.yul\":1178:1184   */\n      dup3\n        /* \"#utility.yul\":1174:1191   */\n      mul\n        /* \"#utility.yul\":1164:1172   */\n      dup4\n        /* \"#utility.yul\":1160:1192   */\n      add\n        /* \"#utility.yul\":1157:1198   */\n      gt\n        /* \"#utility.yul\":1154:1282   */\n      iszero\n      tag_396\n      jumpi\n        /* \"#utility.yul\":1201:1280   */\n      tag_397\n      tag_304\n      jump\t// in\n    tag_397:\n        /* \"#utility.yul\":1154:1282   */\n    tag_396:\n        /* \"#utility.yul\":720:1288   */\n      swap3\n      pop\n      swap3\n      swap1\n      pop\n      jump\t// out\n        /* \"#utility.yul\":1294:1420   */\n    tag_306:\n        /* \"#utility.yul\":1331:1338   */\n      0x00\n        /* \"#utility.yul\":1371:1413   */\n      0xffffffffffffffffffffffffffffffffffffffff\n        /* \"#utility.yul\":1364:1369   */\n      dup3\n        /* \"#utility.yul\":1360:1414   */\n      and\n        /* \"#utility.yul\":1349:1414   */\n      swap1\n      pop\n        /* \"#utility.yul\":1294:1420   */\n      swap2\n      swap1\n      pop\n      jump\t// out\n        /* \"#utility.yul\":1426:1522   */\n    tag_307:\n        /* \"#utility.yul\":1463:1470   */\n      0x00\n        /* \"#utility.yul\":1492:1516   */\n      tag_400\n        /* \"#utility.yul\":1510:1515   */\n      dup3\n        /* \"#utility.yul\":1492:1516   */\n      tag_306\n      jump\t// in\n    tag_400:\n        /* \"#utility.yul\":1481:1516   */\n      swap1\n      pop\n        /* \"#utility.yul\":1426:1522   */\n      swap2\n      swap1\n      pop\n      jump\t// out\n        /* \"#utility.yul\":1528:1639   */\n    tag_308:\n        /* \"#utility.yul\":1580:1587   */\n      0x00\n        /* \"#utility.yul\":1609:1633   */\n      tag_402\n        /* \"#utility.yul\":1627:1632   */\n      dup3\n        /* \"#utility.yul\":1609:1633   */\n      tag_307\n      jump\t// in\n    tag_402:\n        /* \"#utility.yul\":1598:1633   */\n      swap1\n      pop\n        /* \"#utility.yul\":1528:1639   */\n      swap2\n      swap1\n      pop\n      jump\t// out\n        /* \"#utility.yul\":1645:1797   */\n    tag_309:\n        /* \"#utility.yul\":1733:1772   */\n      tag_404\n        /* \"#utility.yul\":1766:1771   */\n      dup2\n        /* \"#utility.yul\":1733:1772   */\n      tag_308\n      jump\t// in\n    tag_404:\n        /* \"#utility.yul\":1726:1731   */\n      dup2\n        /* \"#utility.yul\":1723:1773   */\n      eq\n        /* \"#utility.yul\":1713:1791   */\n      tag_405\n      jumpi\n        /* \"#utility.yul\":1787:1788   */\n      0x00\n        /* \"#utility.yul\":1784:1785   */\n      dup1\n        /* \"#utility.yul\":1777:1789   */\n      revert\n        /* \"#utility.yul\":1713:1791   */\n    tag_405:\n        /* \"#utility.yul\":1645:1797   */\n      pop\n      jump\t// out\n        /* \"#utility.yul\":1803:1972   */\n    tag_310:\n        /* \"#utility.yul\":1864:1869   */\n      0x00\n        /* \"#utility.yul\":1902:1908   */\n      dup2\n        /* \"#utility.yul\":1889:1909   */\n      calldataload\n        /* \"#utility.yul\":1880:1909   */\n      swap1\n      pop\n        /* \"#utility.yul\":1918:1966   */\n      tag_407\n        /* \"#utility.yul\":1960:1965   */\n      dup2\n        /* \"#utility.yul\":1918:1966   */\n      tag_309\n      jump\t// in\n    tag_407:\n        /* \"#utility.yul\":1803:1972   */\n      swap3\n      swap2\n      pop\n      pop\n      jump\t// out\n        /* \"#utility.yul\":1978:2712   */\n    tag_20:\n        /* \"#utility.yul\":2088:2094   */\n      0x00\n        /* \"#utility.yul\":2096:2102   */\n      dup1\n        /* \"#utility.yul\":2104:2110   */\n      0x00\n        /* \"#utility.yul\":2153:2155   */\n      0x40\n        /* \"#utility.yul\":2141:2150   */\n      dup5\n        /* \"#utility.yul\":2132:2139   */\n      dup7\n        /* \"#utility.yul\":2128:2151   */\n      sub\n        /* \"#utility.yul\":2124:2156   */\n      slt\n        /* \"#utility.yul\":2121:2240   */\n      iszero\n      tag_409\n      jumpi\n        /* \"#utility.yul\":2159:2238   */\n      tag_410\n      tag_300\n      jump\t// in\n    tag_410:\n        /* \"#utility.yul\":2121:2240   */\n    tag_409:\n        /* \"#utility.yul\":2307:2308   */\n      0x00\n        /* \"#utility.yul\":2296:2305   */\n      dup5\n        /* \"#utility.yul\":2292:2309   */\n      add\n        /* \"#utility.yul\":2279:2310   */\n      calldataload\n        /* \"#utility.yul\":2337:2355   */\n      0xffffffffffffffff\n        /* \"#utility.yul\":2329:2335   */\n      dup2\n        /* \"#utility.yul\":2326:2356   */\n      gt\n        /* \"#utility.yul\":2323:2440   */\n      iszero\n      tag_411\n      jumpi\n        /* \"#utility.yul\":2359:2438   */\n      tag_412\n      tag_301\n      jump\t// in\n    tag_412:\n        /* \"#utility.yul\":2323:2440   */\n    tag_411:\n        /* \"#utility.yul\":2472:2552   */\n      tag_413\n        /* \"#utility.yul\":2544:2551   */\n      dup7\n        /* \"#utility.yul\":2535:2541   */\n      dup3\n        /* \"#utility.yul\":2524:2533   */\n      dup8\n        /* \"#utility.yul\":2520:2542   */\n      add\n        /* \"#utility.yul\":2472:2552   */\n      tag_305\n      jump\t// in\n    tag_413:\n        /* \"#utility.yul\":2454:2552   */\n      swap4\n      pop\n      swap4\n      pop\n        /* \"#utility.yul\":2250:2562   */\n      pop\n        /* \"#utility.yul\":2601:2603   */\n      0x20\n        /* \"#utility.yul\":2627:2695   */\n      tag_414\n        /* \"#utility.yul\":2687:2694   */\n      dup7\n        /* \"#utility.yul\":2678:2684   */\n      dup3\n        /* \"#utility.yul\":2667:2676   */\n      dup8\n        /* \"#utility.yul\":2663:2685   */\n      add\n        /* \"#utility.yul\":2627:2695   */\n      tag_310\n      jump\t// in\n    tag_414:\n        /* \"#utility.yul\":2617:2695   */\n      swap2\n      pop\n        /* \"#utility.yul\":2572:2705   */\n      pop\n        /* \"#utility.yul\":1978:2712   */\n      swap3\n      pop\n      swap3\n      pop\n      swap3\n      jump\t// out\n        /* \"#utility.yul\":2718:2795   */\n    tag_311:\n        /* \"#utility.yul\":2755:2762   */\n      0x00\n        /* \"#utility.yul\":2784:2789   */\n      dup2\n        /* \"#utility.yul\":2773:2789   */\n      swap1\n      pop\n        /* \"#utility.yul\":2718:2795   */\n      swap2\n      swap1\n      pop\n      jump\t// out\n        /* \"#utility.yul\":2801:2919   */\n    tag_312:\n        /* \"#utility.yul\":2888:2912   */\n      tag_417\n        /* \"#utility.yul\":2906:2911   */\n      dup2\n        /* \"#utility.yul\":2888:2912   */\n      tag_311\n      jump\t// in\n    tag_417:\n        /* \"#utility.yul\":2883:2886   */\n      dup3\n        /* \"#utility.yul\":2876:2913   */\n      mstore\n        /* \"#utility.yul\":2801:2919   */\n      pop\n      pop\n      jump\t// out\n        /* \"#utility.yul\":2925:3147   */\n    tag_28:\n        /* \"#utility.yul\":3018:3022   */\n      0x00\n        /* \"#utility.yul\":3056:3058   */\n      0x20\n        /* \"#utility.yul\":3045:3054   */\n      dup3\n        /* \"#utility.yul\":3041:3059   */\n      add\n        /* \"#utility.yul\":3033:3059   */\n      swap1\n      pop\n        /* \"#utility.yul\":3069:3140   */\n      tag_419\n        /* \"#utility.yul\":3137:3138   */\n      0x00\n        /* \"#utility.yul\":3126:3135   */\n      dup4\n        /* \"#utility.yul\":3122:3139   */\n      add\n        /* \"#utility.yul\":3113:3119   */\n      dup5\n        /* \"#utility.yul\":3069:3140   */\n      tag_312\n      jump\t// in\n    tag_419:\n        /* \"#utility.yul\":2925:3147   */\n      swap3\n      swap2\n      pop\n      pop\n      jump\t// out\n        /* \"#utility.yul\":3153:3275   */\n    tag_313:\n        /* \"#utility.yul\":3226:3250   */\n      tag_421\n        /* \"#utility.yul\":3244:3249   */\n      dup2\n        /* \"#utility.yul\":3226:3250   */\n      tag_311\n      jump\t// in\n    tag_421:\n        /* \"#utility.yul\":3219:3224   */\n      dup2\n        /* \"#utility.yul\":3216:3251   */\n      eq\n        /* \"#utility.yul\":3206:3269   */\n      tag_422\n      jumpi\n        /* \"#utility.yul\":3265:3266   */\n      0x00\n        /* \"#utility.yul\":3262:3263   */\n      dup1\n        /* \"#utility.yul\":3255:3267   */\n      revert\n        /* \"#utility.yul\":3206:3269   */\n    tag_422:\n        /* \"#utility.yul\":3153:3275   */\n      pop\n      jump\t// out\n        /* \"#utility.yul\":3281:3420   */\n    tag_314:\n        /* \"#utility.yul\":3327:3332   */\n      0x00\n        /* \"#utility.yul\":3365:3371   */\n      dup2\n        /* \"#utility.yul\":3352:3372   */\n      calldataload\n        /* \"#utility.yul\":3343:3372   */\n      swap1\n      pop\n        /* \"#utility.yul\":3381:3414   */\n      tag_424\n        /* \"#utility.yul\":3408:3413   */\n      dup2\n        /* \"#utility.yul\":3381:3414   */\n      tag_313\n      jump\t// in\n    tag_424:\n        /* \"#utility.yul\":3281:3420   */\n      swap3\n      swap2\n      pop\n      pop\n      jump\t// out\n        /* \"#utility.yul\":3426:3755   */\n    tag_33:\n        /* \"#utility.yul\":3485:3491   */\n      0x00\n        /* \"#utility.yul\":3534:3536   */\n      0x20\n        /* \"#utility.yul\":3522:3531   */\n      dup3\n        /* \"#utility.yul\":3513:3520   */\n      dup5\n        /* \"#utility.yul\":3509:3532   */\n      sub\n        /* \"#utility.yul\":3505:3537   */\n      slt\n        /* \"#utility.yul\":3502:3621   */\n      iszero\n      tag_426\n      jumpi\n        /* \"#utility.yul\":3540:3619   */\n      tag_427\n      tag_300\n      jump\t// in\n    tag_427:\n        /* \"#utility.yul\":3502:3621   */\n    tag_426:\n        /* \"#utility.yul\":3660:3661   */\n      0x00\n        /* \"#utility.yul\":3685:3738   */\n      tag_428\n        /* \"#utility.yul\":3730:3737   */\n      dup5\n        /* \"#utility.yul\":3721:3727   */\n      dup3\n        /* \"#utility.yul\":3710:3719   */\n      dup6\n        /* \"#utility.yul\":3706:3728   */\n      add\n        /* \"#utility.yul\":3685:3738   */\n      tag_314\n      jump\t// in\n    tag_428:\n        /* \"#utility.yul\":3675:3738   */\n      swap2\n      pop\n        /* \"#utility.yul\":3631:3748   */\n      pop\n        /* \"#utility.yul\":3426:3755   */\n      swap3\n      swap2\n      pop\n      pop\n      jump\t// out\n        /* \"#utility.yul\":3761:3879   */\n    tag_315:\n        /* \"#utility.yul\":3848:3872   */\n      tag_430\n        /* \"#utility.yul\":3866:3871   */\n      dup2\n        /* \"#utility.yul\":3848:3872   */\n      tag_307\n      jump\t// in\n    tag_430:\n        /* \"#utility.yul\":3843:3846   */\n      dup3\n        /* \"#utility.yul\":3836:3873   */\n      mstore\n        /* \"#utility.yul\":3761:3879   */\n      pop\n      pop\n      jump\t// out\n        /* \"#utility.yul\":3885:4107   */\n    tag_38:\n        /* \"#utility.yul\":3978:3982   */\n      0x00\n        /* \"#utility.yul\":4016:4018   */\n      0x20\n        /* \"#utility.yul\":4005:4014   */\n      dup3\n        /* \"#utility.yul\":4001:4019   */\n      add\n        /* \"#utility.yul\":3993:4019   */\n      swap1\n      pop\n        /* \"#utility.yul\":4029:4100   */\n      tag_432\n        /* \"#utility.yul\":4097:4098   */\n      0x00\n        /* \"#utility.yul\":4086:4095   */\n      dup4\n        /* \"#utility.yul\":4082:4099   */\n      add\n        /* \"#utility.yul\":4073:4079   */\n      dup5\n        /* \"#utility.yul\":4029:4100   */\n      tag_315\n      jump\t// in\n    tag_432:\n        /* \"#utility.yul\":3885:4107   */\n      swap3\n      swap2\n      pop\n      pop\n      jump\t// out\n        /* \"#utility.yul\":4113:4617   */\n    tag_44:\n        /* \"#utility.yul\":4196:4202   */\n      0x00\n        /* \"#utility.yul\":4204:4210   */\n      dup1\n        /* \"#utility.yul\":4253:4255   */\n      0x40\n        /* \"#utility.yul\":4241:4250   */\n      dup4\n        /* \"#utility.yul\":4232:4239   */\n      dup6\n        /* \"#utility.yul\":4228:4251   */\n      sub\n        /* \"#utility.yul\":4224:4256   */\n      slt\n        /* \"#utility.yul\":4221:4340   */\n      iszero\n      tag_434\n      jumpi\n        /* \"#utility.yul\":4259:4338   */\n      tag_435\n      tag_300\n      jump\t// in\n    tag_435:\n        /* \"#utility.yul\":4221:4340   */\n    tag_434:\n        /* \"#utility.yul\":4379:4380   */\n      0x00\n        /* \"#utility.yul\":4404:4472   */\n      tag_436\n        /* \"#utility.yul\":4464:4471   */\n      dup6\n        /* \"#utility.yul\":4455:4461   */\n      dup3\n        /* \"#utility.yul\":4444:4453   */\n      dup7\n        /* \"#utility.yul\":4440:4462   */\n      add\n        /* \"#utility.yul\":4404:4472   */\n      tag_310\n      jump\t// in\n    tag_436:\n        /* \"#utility.yul\":4394:4472   */\n      swap3\n      pop\n        /* \"#utility.yul\":4350:4482   */\n      pop\n        /* \"#utility.yul\":4521:4523   */\n      0x20\n        /* \"#utility.yul\":4547:4600   */\n      tag_437\n        /* \"#utility.yul\":4592:4599   */\n      dup6\n        /* \"#utility.yul\":4583:4589   */\n      dup3\n        /* \"#utility.yul\":4572:4581   */\n      dup7\n        /* \"#utility.yul\":4568:4590   */\n      add\n        /* \"#utility.yul\":4547:4600   */\n      tag_314\n      jump\t// in\n    tag_437:\n        /* \"#utility.yul\":4537:4600   */\n      swap2\n      pop\n        /* \"#utility.yul\":4492:4610   */\n      pop\n        /* \"#utility.yul\":4113:4617   */\n      swap3\n      pop\n      swap3\n      swap1\n      pop\n      jump\t// out\n        /* \"#utility.yul\":4623:4713   */\n    tag_316:\n        /* \"#utility.yul\":4657:4664   */\n      0x00\n        /* \"#utility.yul\":4700:4705   */\n      dup2\n        /* \"#utility.yul\":4693:4706   */\n      iszero\n        /* \"#utility.yul\":4686:4707   */\n      iszero\n        /* \"#utility.yul\":4675:4707   */\n      swap1\n      pop\n        /* \"#utility.yul\":4623:4713   */\n      swap2\n      swap1\n      pop\n      jump\t// out\n        /* \"#utility.yul\":4719:4828   */\n    tag_317:\n        /* \"#utility.yul\":4800:4821   */\n      tag_440\n        /* \"#utility.yul\":4815:4820   */\n      dup2\n        /* \"#utility.yul\":4800:4821   */\n      tag_316\n      jump\t// in\n    tag_440:\n        /* \"#utility.yul\":4795:4798   */\n      dup3\n        /* \"#utility.yul\":4788:4822   */\n      mstore\n        /* \"#utility.yul\":4719:4828   */\n      pop\n      pop\n      jump\t// out\n        /* \"#utility.yul\":4834:4894   */\n    tag_318:\n        /* \"#utility.yul\":4862:4865   */\n      0x00\n        /* \"#utility.yul\":4883:4888   */\n      dup2\n        /* \"#utility.yul\":4876:4888   */\n      swap1\n      pop\n        /* \"#utility.yul\":4834:4894   */\n      swap2\n      swap1\n      pop\n      jump\t// out\n        /* \"#utility.yul\":4900:5042   */\n    tag_319:\n        /* \"#utility.yul\":4950:4959   */\n      0x00\n        /* \"#utility.yul\":4983:5036   */\n      tag_443\n        /* \"#utility.yul\":5001:5035   */\n      tag_444\n        /* \"#utility.yul\":5010:5034   */\n      tag_445\n        /* \"#utility.yul\":5028:5033   */\n      dup5\n        /* \"#utility.yul\":5010:5034   */\n      tag_306\n      jump\t// in\n    tag_445:\n        /* \"#utility.yul\":5001:5035   */\n      tag_318\n      jump\t// in\n    tag_444:\n        /* \"#utility.yul\":4983:5036   */\n      tag_306\n      jump\t// in\n    tag_443:\n        /* \"#utility.yul\":4970:5036   */\n      swap1\n      pop\n        /* \"#utility.yul\":4900:5042   */\n      swap2\n      swap1\n      pop\n      jump\t// out\n        /* \"#utility.yul\":5048:5174   */\n    tag_320:\n        /* \"#utility.yul\":5098:5107   */\n      0x00\n        /* \"#utility.yul\":5131:5168   */\n      tag_447\n        /* \"#utility.yul\":5162:5167   */\n      dup3\n        /* \"#utility.yul\":5131:5168   */\n      tag_319\n      jump\t// in\n    tag_447:\n        /* \"#utility.yul\":5118:5168   */\n      swap1\n      pop\n        /* \"#utility.yul\":5048:5174   */\n      swap2\n      swap1\n      pop\n      jump\t// out\n        /* \"#utility.yul\":5180:5321   */\n    tag_321:\n        /* \"#utility.yul\":5245:5254   */\n      0x00\n        /* \"#utility.yul\":5278:5315   */\n      tag_449\n        /* \"#utility.yul\":5309:5314   */\n      dup3\n        /* \"#utility.yul\":5278:5315   */\n      tag_320\n      jump\t// in\n    tag_449:\n        /* \"#utility.yul\":5265:5315   */\n      swap1\n      pop\n        /* \"#utility.yul\":5180:5321   */\n      swap2\n      swap1\n      pop\n      jump\t// out\n        /* \"#utility.yul\":5327:5488   */\n    tag_322:\n        /* \"#utility.yul\":5429:5481   */\n      tag_451\n        /* \"#utility.yul\":5475:5480   */\n      dup2\n        /* \"#utility.yul\":5429:5481   */\n      tag_321\n      jump\t// in\n    tag_451:\n        /* \"#utility.yul\":5424:5427   */\n      dup3\n        /* \"#utility.yul\":5417:5482   */\n      mstore\n        /* \"#utility.yul\":5327:5488   */\n      pop\n      pop\n      jump\t// out\n        /* \"#utility.yul\":5494:6176   */\n    tag_47:\n        /* \"#utility.yul\":5708:5712   */\n      0x00\n        /* \"#utility.yul\":5746:5749   */\n      0xa0\n        /* \"#utility.yul\":5735:5744   */\n      dup3\n        /* \"#utility.yul\":5731:5750   */\n      add\n        /* \"#utility.yul\":5723:5750   */\n      swap1\n      pop\n        /* \"#utility.yul\":5760:5831   */\n      tag_453\n        /* \"#utility.yul\":5828:5829   */\n      0x00\n        /* \"#utility.yul\":5817:5826   */\n      dup4\n        /* \"#utility.yul\":5813:5830   */\n      add\n        /* \"#utility.yul\":5804:5810   */\n      dup9\n        /* \"#utility.yul\":5760:5831   */\n      tag_315\n      jump\t// in\n    tag_453:\n        /* \"#utility.yul\":5841:5913   */\n      tag_454\n        /* \"#utility.yul\":5909:5911   */\n      0x20\n        /* \"#utility.yul\":5898:5907   */\n      dup4\n        /* \"#utility.yul\":5894:5912   */\n      add\n        /* \"#utility.yul\":5885:5891   */\n      dup8\n        /* \"#utility.yul\":5841:5913   */\n      tag_312\n      jump\t// in\n    tag_454:\n        /* \"#utility.yul\":5923:5995   */\n      tag_455\n        /* \"#utility.yul\":5991:5993   */\n      0x40\n        /* \"#utility.yul\":5980:5989   */\n      dup4\n        /* \"#utility.yul\":5976:5994   */\n      add\n        /* \"#utility.yul\":5967:5973   */\n      dup7\n        /* \"#utility.yul\":5923:5995   */\n      tag_312\n      jump\t// in\n    tag_455:\n        /* \"#utility.yul\":6005:6071   */\n      tag_456\n        /* \"#utility.yul\":6067:6069   */\n      0x60\n        /* \"#utility.yul\":6056:6065   */\n      dup4\n        /* \"#utility.yul\":6052:6070   */\n      add\n        /* \"#utility.yul\":6043:6049   */\n      dup6\n        /* \"#utility.yul\":6005:6071   */\n      tag_317\n      jump\t// in\n    tag_456:\n        /* \"#utility.yul\":6081:6169   */\n      tag_457\n        /* \"#utility.yul\":6164:6167   */\n      0x80\n        /* \"#utility.yul\":6153:6162   */\n      dup4\n        /* \"#utility.yul\":6149:6168   */\n      add\n        /* \"#utility.yul\":6140:6146   */\n      dup5\n        /* \"#utility.yul\":6081:6169   */\n      tag_322\n      jump\t// in\n    tag_457:\n        /* \"#utility.yul\":5494:6176   */\n      swap7\n      swap6\n      pop\n      pop\n      pop\n      pop\n      pop\n      pop\n      jump\t// out\n        /* \"#utility.yul\":6182:6686   */\n    tag_50:\n        /* \"#utility.yul\":6265:6271   */\n      0x00\n        /* \"#utility.yul\":6273:6279   */\n      dup1\n        /* \"#utility.yul\":6322:6324   */\n      0x40\n        /* \"#utility.yul\":6310:6319   */\n      dup4\n        /* \"#utility.yul\":6301:6308   */\n      dup6\n        /* \"#utility.yul\":6297:6320   */\n      sub\n        /* \"#utility.yul\":6293:6325   */\n      slt\n        /* \"#utility.yul\":6290:6409   */\n      iszero\n      tag_459\n      jumpi\n        /* \"#utility.yul\":6328:6407   */\n      tag_460\n      tag_300\n      jump\t// in\n    tag_460:\n        /* \"#utility.yul\":6290:6409   */\n    tag_459:\n        /* \"#utility.yul\":6448:6449   */\n      0x00\n        /* \"#utility.yul\":6473:6526   */\n      tag_461\n        /* \"#utility.yul\":6518:6525   */\n      dup6\n        /* \"#utility.yul\":6509:6515   */\n      dup3\n        /* \"#utility.yul\":6498:6507   */\n      dup7\n        /* \"#utility.yul\":6494:6516   */\n      add\n        /* \"#utility.yul\":6473:6526   */\n      tag_314\n      jump\t// in\n    tag_461:\n        /* \"#utility.yul\":6463:6526   */\n      swap3\n      pop\n        /* \"#utility.yul\":6419:6536   */\n      pop\n        /* \"#utility.yul\":6575:6577   */\n      0x20\n        /* \"#utility.yul\":6601:6669   */\n      tag_462\n        /* \"#utility.yul\":6661:6668   */\n      dup6\n        /* \"#utility.yul\":6652:6658   */\n      dup3\n        /* \"#utility.yul\":6641:6650   */\n      dup7\n        /* \"#utility.yul\":6637:6659   */\n      add\n        /* \"#utility.yul\":6601:6669   */\n      tag_310\n      jump\t// in\n    tag_462:\n        /* \"#utility.yul\":6591:6669   */\n      swap2\n      pop\n        /* \"#utility.yul\":6546:6679   */\n      pop\n        /* \"#utility.yul\":6182:6686   */\n      swap3\n      pop\n      swap3\n      swap1\n      pop\n      jump\t// out\n        /* \"#utility.yul\":6692:7051   */\n    tag_58:\n        /* \"#utility.yul\":6766:6772   */\n      0x00\n        /* \"#utility.yul\":6815:6817   */\n      0x20\n        /* \"#utility.yul\":6803:6812   */\n      dup3\n        /* \"#utility.yul\":6794:6801   */\n      dup5\n        /* \"#utility.yul\":6790:6813   */\n      sub\n        /* \"#utility.yul\":6786:6818   */\n      slt\n        /* \"#utility.yul\":6783:6902   */\n      iszero\n      tag_464\n      jumpi\n        /* \"#utility.yul\":6821:6900   */\n      tag_465\n      tag_300\n      jump\t// in\n    tag_465:\n        /* \"#utility.yul\":6783:6902   */\n    tag_464:\n        /* \"#utility.yul\":6941:6942   */\n      0x00\n        /* \"#utility.yul\":6966:7034   */\n      tag_466\n        /* \"#utility.yul\":7026:7033   */\n      dup5\n        /* \"#utility.yul\":7017:7023   */\n      dup3\n        /* \"#utility.yul\":7006:7015   */\n      dup6\n        /* \"#utility.yul\":7002:7024   */\n      add\n        /* \"#utility.yul\":6966:7034   */\n      tag_310\n      jump\t// in\n    tag_466:\n        /* \"#utility.yul\":6956:7034   */\n      swap2\n      pop\n        /* \"#utility.yul\":6912:7044   */\n      pop\n        /* \"#utility.yul\":6692:7051   */\n      swap3\n      swap2\n      pop\n      pop\n      jump\t// out\n        /* \"#utility.yul\":7057:7205   */\n    tag_323:\n        /* \"#utility.yul\":7129:7138   */\n      0x00\n        /* \"#utility.yul\":7162:7199   */\n      tag_468\n        /* \"#utility.yul\":7193:7198   */\n      dup3\n        /* \"#utility.yul\":7162:7199   */\n      tag_320\n      jump\t// in\n    tag_468:\n        /* \"#utility.yul\":7149:7199   */\n      swap1\n      pop\n        /* \"#utility.yul\":7057:7205   */\n      swap2\n      swap1\n      pop\n      jump\t// out\n        /* \"#utility.yul\":7211:7386   */\n    tag_324:\n        /* \"#utility.yul\":7320:7379   */\n      tag_470\n        /* \"#utility.yul\":7373:7378   */\n      dup2\n        /* \"#utility.yul\":7320:7379   */\n      tag_323\n      jump\t// in\n    tag_470:\n        /* \"#utility.yul\":7315:7318   */\n      dup3\n        /* \"#utility.yul\":7308:7380   */\n      mstore\n        /* \"#utility.yul\":7211:7386   */\n      pop\n      pop\n      jump\t// out\n        /* \"#utility.yul\":7392:7878   */\n    tag_61:\n        /* \"#utility.yul\":7563:7567   */\n      0x00\n        /* \"#utility.yul\":7601:7603   */\n      0x60\n        /* \"#utility.yul\":7590:7599   */\n      dup3\n        /* \"#utility.yul\":7586:7604   */\n      add\n        /* \"#utility.yul\":7578:7604   */\n      swap1\n      pop\n        /* \"#utility.yul\":7614:7707   */\n      tag_472\n        /* \"#utility.yul\":7704:7705   */\n      0x00\n        /* \"#utility.yul\":7693:7702   */\n      dup4\n        /* \"#utility.yul\":7689:7706   */\n      add\n        /* \"#utility.yul\":7680:7686   */\n      dup7\n        /* \"#utility.yul\":7614:7707   */\n      tag_324\n      jump\t// in\n    tag_472:\n        /* \"#utility.yul\":7717:7789   */\n      tag_473\n        /* \"#utility.yul\":7785:7787   */\n      0x20\n        /* \"#utility.yul\":7774:7783   */\n      dup4\n        /* \"#utility.yul\":7770:7788   */\n      add\n        /* \"#utility.yul\":7761:7767   */\n      dup6\n        /* \"#utility.yul\":7717:7789   */\n      tag_312\n      jump\t// in\n    tag_473:\n        /* \"#utility.yul\":7799:7871   */\n      tag_474\n        /* \"#utility.yul\":7867:7869   */\n      0x40\n        /* \"#utility.yul\":7856:7865   */\n      dup4\n        /* \"#utility.yul\":7852:7870   */\n      add\n        /* \"#utility.yul\":7843:7849   */\n      dup5\n        /* \"#utility.yul\":7799:7871   */\n      tag_312\n      jump\t// in\n    tag_474:\n        /* \"#utility.yul\":7392:7878   */\n      swap5\n      swap4\n      pop\n      pop\n      pop\n      pop\n      jump\t// out\n        /* \"#utility.yul\":7884:7986   */\n    tag_325:\n        /* \"#utility.yul\":7925:7931   */\n      0x00\n        /* \"#utility.yul\":7976:7978   */\n      0x1f\n        /* \"#utility.yul\":7972:7979   */\n      not\n        /* \"#utility.yul\":7967:7969   */\n      0x1f\n        /* \"#utility.yul\":7960:7965   */\n      dup4\n        /* \"#utility.yul\":7956:7970   */\n      add\n        /* \"#utility.yul\":7952:7980   */\n      and\n        /* \"#utility.yul\":7942:7980   */\n      swap1\n      pop\n        /* \"#utility.yul\":7884:7986   */\n      swap2\n      swap1\n      pop\n      jump\t// out\n        /* \"#utility.yul\":7992:8172   */\n    tag_326:\n        /* \"#utility.yul\":8040:8117   */\n      0x4e487b7100000000000000000000000000000000000000000000000000000000\n        /* \"#utility.yul\":8037:8038   */\n      0x00\n        /* \"#utility.yul\":8030:8118   */\n      mstore\n        /* \"#utility.yul\":8137:8141   */\n      0x41\n        /* \"#utility.yul\":8134:8135   */\n      0x04\n        /* \"#utility.yul\":8127:8142   */\n      mstore\n        /* \"#utility.yul\":8161:8165   */\n      0x24\n        /* \"#utility.yul\":8158:8159   */\n      0x00\n        /* \"#utility.yul\":8151:8166   */\n      revert\n        /* \"#utility.yul\":8178:8459   */\n    tag_327:\n        /* \"#utility.yul\":8261:8288   */\n      tag_478\n        /* \"#utility.yul\":8283:8287   */\n      dup3\n        /* \"#utility.yul\":8261:8288   */\n      tag_325\n      jump\t// in\n    tag_478:\n        /* \"#utility.yul\":8253:8259   */\n      dup2\n        /* \"#utility.yul\":8249:8289   */\n      add\n        /* \"#utility.yul\":8391:8397   */\n      dup2\n        /* \"#utility.yul\":8379:8389   */\n      dup2\n        /* \"#utility.yul\":8376:8398   */\n      lt\n        /* \"#utility.yul\":8355:8373   */\n      0xffffffffffffffff\n        /* \"#utility.yul\":8343:8353   */\n      dup3\n        /* \"#utility.yul\":8340:8374   */\n      gt\n        /* \"#utility.yul\":8337:8399   */\n      or\n        /* \"#utility.yul\":8334:8422   */\n      iszero\n      tag_479\n      jumpi\n        /* \"#utility.yul\":8402:8420   */\n      tag_480\n      tag_326\n      jump\t// in\n    tag_480:\n        /* \"#utility.yul\":8334:8422   */\n    tag_479:\n        /* \"#utility.yul\":8442:8452   */\n      dup1\n        /* \"#utility.yul\":8438:8440   */\n      0x40\n        /* \"#utility.yul\":8431:8453   */\n      mstore\n        /* \"#utility.yul\":8221:8459   */\n      pop\n        /* \"#utility.yul\":8178:8459   */\n      pop\n      pop\n      jump\t// out\n        /* \"#utility.yul\":8465:8594   */\n    tag_328:\n        /* \"#utility.yul\":8499:8505   */\n      0x00\n        /* \"#utility.yul\":8526:8546   */\n      tag_482\n      tag_299\n      jump\t// in\n    tag_482:\n        /* \"#utility.yul\":8516:8546   */\n      swap1\n      pop\n        /* \"#utility.yul\":8555:8588   */\n      tag_483\n        /* \"#utility.yul\":8583:8587   */\n      dup3\n        /* \"#utility.yul\":8575:8581   */\n      dup3\n        /* \"#utility.yul\":8555:8588   */\n      tag_327\n      jump\t// in\n    tag_483:\n        /* \"#utility.yul\":8465:8594   */\n      swap2\n      swap1\n      pop\n      jump\t// out\n        /* \"#utility.yul\":8600:8911   */\n    tag_329:\n        /* \"#utility.yul\":8677:8681   */\n      0x00\n        /* \"#utility.yul\":8767:8785   */\n      0xffffffffffffffff\n        /* \"#utility.yul\":8759:8765   */\n      dup3\n        /* \"#utility.yul\":8756:8786   */\n      gt\n        /* \"#utility.yul\":8753:8809   */\n      iszero\n      tag_485\n      jumpi\n        /* \"#utility.yul\":8789:8807   */\n      tag_486\n      tag_326\n      jump\t// in\n    tag_486:\n        /* \"#utility.yul\":8753:8809   */\n    tag_485:\n        /* \"#utility.yul\":8839:8843   */\n      0x20\n        /* \"#utility.yul\":8831:8837   */\n      dup3\n        /* \"#utility.yul\":8827:8844   */\n      mul\n        /* \"#utility.yul\":8819:8844   */\n      swap1\n      pop\n        /* \"#utility.yul\":8899:8903   */\n      0x20\n        /* \"#utility.yul\":8893:8897   */\n      dup2\n        /* \"#utility.yul\":8889:8904   */\n      add\n        /* \"#utility.yul\":8881:8904   */\n      swap1\n      pop\n        /* \"#utility.yul\":8600:8911   */\n      swap2\n      swap1\n      pop\n      jump\t// out\n        /* \"#utility.yul\":8917:9039   */\n    tag_330:\n        /* \"#utility.yul\":8990:9014   */\n      tag_488\n        /* \"#utility.yul\":9008:9013   */\n      dup2\n        /* \"#utility.yul\":8990:9014   */\n      tag_307\n      jump\t// in\n    tag_488:\n        /* \"#utility.yul\":8983:8988   */\n      dup2\n        /* \"#utility.yul\":8980:9015   */\n      eq\n        /* \"#utility.yul\":8970:9033   */\n      tag_489\n      jumpi\n        /* \"#utility.yul\":9029:9030   */\n      0x00\n        /* \"#utility.yul\":9026:9027   */\n      dup1\n        /* \"#utility.yul\":9019:9031   */\n      revert\n        /* \"#utility.yul\":8970:9033   */\n    tag_489:\n        /* \"#utility.yul\":8917:9039   */\n      pop\n      jump\t// out\n        /* \"#utility.yul\":9045:9184   */\n    tag_331:\n        /* \"#utility.yul\":9091:9096   */\n      0x00\n        /* \"#utility.yul\":9129:9135   */\n      dup2\n        /* \"#utility.yul\":9116:9136   */\n      calldataload\n        /* \"#utility.yul\":9107:9136   */\n      swap1\n      pop\n        /* \"#utility.yul\":9145:9178   */\n      tag_491\n        /* \"#utility.yul\":9172:9177   */\n      dup2\n        /* \"#utility.yul\":9145:9178   */\n      tag_330\n      jump\t// in\n    tag_491:\n        /* \"#utility.yul\":9045:9184   */\n      swap3\n      swap2\n      pop\n      pop\n      jump\t// out\n        /* \"#utility.yul\":9207:9917   */\n    tag_332:\n        /* \"#utility.yul\":9303:9308   */\n      0x00\n        /* \"#utility.yul\":9328:9409   */\n      tag_493\n        /* \"#utility.yul\":9344:9408   */\n      tag_494\n        /* \"#utility.yul\":9401:9407   */\n      dup5\n        /* \"#utility.yul\":9344:9408   */\n      tag_329\n      jump\t// in\n    tag_494:\n        /* \"#utility.yul\":9328:9409   */\n      tag_328\n      jump\t// in\n    tag_493:\n        /* \"#utility.yul\":9319:9409   */\n      swap1\n      pop\n        /* \"#utility.yul\":9429:9434   */\n      dup1\n        /* \"#utility.yul\":9458:9464   */\n      dup4\n        /* \"#utility.yul\":9451:9456   */\n      dup3\n        /* \"#utility.yul\":9444:9465   */\n      mstore\n        /* \"#utility.yul\":9492:9496   */\n      0x20\n        /* \"#utility.yul\":9485:9490   */\n      dup3\n        /* \"#utility.yul\":9481:9497   */\n      add\n        /* \"#utility.yul\":9474:9497   */\n      swap1\n      pop\n        /* \"#utility.yul\":9545:9549   */\n      0x20\n        /* \"#utility.yul\":9537:9543   */\n      dup5\n        /* \"#utility.yul\":9533:9550   */\n      mul\n        /* \"#utility.yul\":9525:9531   */\n      dup4\n        /* \"#utility.yul\":9521:9551   */\n      add\n        /* \"#utility.yul\":9574:9577   */\n      dup6\n        /* \"#utility.yul\":9566:9572   */\n      dup2\n        /* \"#utility.yul\":9563:9578   */\n      gt\n        /* \"#utility.yul\":9560:9682   */\n      iszero\n      tag_495\n      jumpi\n        /* \"#utility.yul\":9593:9672   */\n      tag_496\n      tag_304\n      jump\t// in\n    tag_496:\n        /* \"#utility.yul\":9560:9682   */\n    tag_495:\n        /* \"#utility.yul\":9708:9714   */\n      dup4\n        /* \"#utility.yul\":9691:9911   */\n    tag_497:\n        /* \"#utility.yul\":9725:9731   */\n      dup2\n        /* \"#utility.yul\":9720:9723   */\n      dup2\n        /* \"#utility.yul\":9717:9732   */\n      lt\n        /* \"#utility.yul\":9691:9911   */\n      iszero\n      tag_499\n      jumpi\n        /* \"#utility.yul\":9800:9803   */\n      dup1\n        /* \"#utility.yul\":9829:9866   */\n      tag_500\n        /* \"#utility.yul\":9862:9865   */\n      dup9\n        /* \"#utility.yul\":9850:9860   */\n      dup3\n        /* \"#utility.yul\":9829:9866   */\n      tag_331\n      jump\t// in\n    tag_500:\n        /* \"#utility.yul\":9824:9827   */\n      dup5\n        /* \"#utility.yul\":9817:9867   */\n      mstore\n        /* \"#utility.yul\":9896:9900   */\n      0x20\n        /* \"#utility.yul\":9891:9894   */\n      dup5\n        /* \"#utility.yul\":9887:9901   */\n      add\n        /* \"#utility.yul\":9880:9901   */\n      swap4\n      pop\n        /* \"#utility.yul\":9767:9911   */\n      pop\n        /* \"#utility.yul\":9751:9755   */\n      0x20\n        /* \"#utility.yul\":9746:9749   */\n      dup2\n        /* \"#utility.yul\":9742:9756   */\n      add\n        /* \"#utility.yul\":9735:9756   */\n      swap1\n      pop\n        /* \"#utility.yul\":9691:9911   */\n      jump(tag_497)\n    tag_499:\n        /* \"#utility.yul\":9695:9716   */\n      pop\n        /* \"#utility.yul\":9309:9917   */\n      pop\n      pop\n        /* \"#utility.yul\":9207:9917   */\n      swap4\n      swap3\n      pop\n      pop\n      pop\n      jump\t// out\n        /* \"#utility.yul\":9940:10310   */\n    tag_333:\n        /* \"#utility.yul\":10011:10016   */\n      0x00\n        /* \"#utility.yul\":10060:10063   */\n      dup3\n        /* \"#utility.yul\":10053:10057   */\n      0x1f\n        /* \"#utility.yul\":10045:10051   */\n      dup4\n        /* \"#utility.yul\":10041:10058   */\n      add\n        /* \"#utility.yul\":10037:10064   */\n      slt\n        /* \"#utility.yul\":10027:10149   */\n      tag_502\n      jumpi\n        /* \"#utility.yul\":10068:10147   */\n      tag_503\n      tag_302\n      jump\t// in\n    tag_503:\n        /* \"#utility.yul\":10027:10149   */\n    tag_502:\n        /* \"#utility.yul\":10185:10191   */\n      dup2\n        /* \"#utility.yul\":10172:10192   */\n      calldataload\n        /* \"#utility.yul\":10210:10304   */\n      tag_504\n        /* \"#utility.yul\":10300:10303   */\n      dup5\n        /* \"#utility.yul\":10292:10298   */\n      dup3\n        /* \"#utility.yul\":10285:10289   */\n      0x20\n        /* \"#utility.yul\":10277:10283   */\n      dup7\n        /* \"#utility.yul\":10273:10290   */\n      add\n        /* \"#utility.yul\":10210:10304   */\n      tag_332\n      jump\t// in\n    tag_504:\n        /* \"#utility.yul\":10201:10304   */\n      swap2\n      pop\n        /* \"#utility.yul\":10017:10310   */\n      pop\n        /* \"#utility.yul\":9940:10310   */\n      swap3\n      swap2\n      pop\n      pop\n      jump\t// out\n        /* \"#utility.yul\":10316:10627   */\n    tag_334:\n        /* \"#utility.yul\":10393:10397   */\n      0x00\n        /* \"#utility.yul\":10483:10501   */\n      0xffffffffffffffff\n        /* \"#utility.yul\":10475:10481   */\n      dup3\n        /* \"#utility.yul\":10472:10502   */\n      gt\n        /* \"#utility.yul\":10469:10525   */\n      iszero\n      tag_506\n      jumpi\n        /* \"#utility.yul\":10505:10523   */\n      tag_507\n      tag_326\n      jump\t// in\n    tag_507:\n        /* \"#utility.yul\":10469:10525   */\n    tag_506:\n        /* \"#utility.yul\":10555:10559   */\n      0x20\n        /* \"#utility.yul\":10547:10553   */\n      dup3\n        /* \"#utility.yul\":10543:10560   */\n      mul\n        /* \"#utility.yul\":10535:10560   */\n      swap1\n      pop\n        /* \"#utility.yul\":10615:10619   */\n      0x20\n        /* \"#utility.yul\":10609:10613   */\n      dup2\n        /* \"#utility.yul\":10605:10620   */\n      add\n        /* \"#utility.yul\":10597:10620   */\n      swap1\n      pop\n        /* \"#utility.yul\":10316:10627   */\n      swap2\n      swap1\n      pop\n      jump\t// out\n        /* \"#utility.yul\":10650:11360   */\n    tag_335:\n        /* \"#utility.yul\":10746:10751   */\n      0x00\n        /* \"#utility.yul\":10771:10852   */\n      tag_509\n        /* \"#utility.yul\":10787:10851   */\n      tag_510\n        /* \"#utility.yul\":10844:10850   */\n      dup5\n        /* \"#utility.yul\":10787:10851   */\n      tag_334\n      jump\t// in\n    tag_510:\n        /* \"#utility.yul\":10771:10852   */\n      tag_328\n      jump\t// in\n    tag_509:\n        /* \"#utility.yul\":10762:10852   */\n      swap1\n      pop\n        /* \"#utility.yul\":10872:10877   */\n      dup1\n        /* \"#utility.yul\":10901:10907   */\n      dup4\n        /* \"#utility.yul\":10894:10899   */\n      dup3\n        /* \"#utility.yul\":10887:10908   */\n      mstore\n        /* \"#utility.yul\":10935:10939   */\n      0x20\n        /* \"#utility.yul\":10928:10933   */\n      dup3\n        /* \"#utility.yul\":10924:10940   */\n      add\n        /* \"#utility.yul\":10917:10940   */\n      swap1\n      pop\n        /* \"#utility.yul\":10988:10992   */\n      0x20\n        /* \"#utility.yul\":10980:10986   */\n      dup5\n        /* \"#utility.yul\":10976:10993   */\n      mul\n        /* \"#utility.yul\":10968:10974   */\n      dup4\n        /* \"#utility.yul\":10964:10994   */\n      add\n        /* \"#utility.yul\":11017:11020   */\n      dup6\n        /* \"#utility.yul\":11009:11015   */\n      dup2\n        /* \"#utility.yul\":11006:11021   */\n      gt\n        /* \"#utility.yul\":11003:11125   */\n      iszero\n      tag_511\n      jumpi\n        /* \"#utility.yul\":11036:11115   */\n      tag_512\n      tag_304\n      jump\t// in\n    tag_512:\n        /* \"#utility.yul\":11003:11125   */\n    tag_511:\n        /* \"#utility.yul\":11151:11157   */\n      dup4\n        /* \"#utility.yul\":11134:11354   */\n    tag_513:\n        /* \"#utility.yul\":11168:11174   */\n      dup2\n        /* \"#utility.yul\":11163:11166   */\n      dup2\n        /* \"#utility.yul\":11160:11175   */\n      lt\n        /* \"#utility.yul\":11134:11354   */\n      iszero\n      tag_515\n      jumpi\n        /* \"#utility.yul\":11243:11246   */\n      dup1\n        /* \"#utility.yul\":11272:11309   */\n      tag_516\n        /* \"#utility.yul\":11305:11308   */\n      dup9\n        /* \"#utility.yul\":11293:11303   */\n      dup3\n        /* \"#utility.yul\":11272:11309   */\n      tag_314\n      jump\t// in\n    tag_516:\n        /* \"#utility.yul\":11267:11270   */\n      dup5\n        /* \"#utility.yul\":11260:11310   */\n      mstore\n        /* \"#utility.yul\":11339:11343   */\n      0x20\n        /* \"#utility.yul\":11334:11337   */\n      dup5\n        /* \"#utility.yul\":11330:11344   */\n      add\n        /* \"#utility.yul\":11323:11344   */\n      swap4\n      pop\n        /* \"#utility.yul\":11210:11354   */\n      pop\n        /* \"#utility.yul\":11194:11198   */\n      0x20\n        /* \"#utility.yul\":11189:11192   */\n      dup2\n        /* \"#utility.yul\":11185:11199   */\n      add\n        /* \"#utility.yul\":11178:11199   */\n      swap1\n      pop\n        /* \"#utility.yul\":11134:11354   */\n      jump(tag_513)\n    tag_515:\n        /* \"#utility.yul\":11138:11159   */\n      pop\n        /* \"#utility.yul\":10752:11360   */\n      pop\n      pop\n        /* \"#utility.yul\":10650:11360   */\n      swap4\n      swap3\n      pop\n      pop\n      pop\n      jump\t// out\n        /* \"#utility.yul\":11383:11753   */\n    tag_336:\n        /* \"#utility.yul\":11454:11459   */\n      0x00\n        /* \"#utility.yul\":11503:11506   */\n      dup3\n        /* \"#utility.yul\":11496:11500   */\n      0x1f\n        /* \"#utility.yul\":11488:11494   */\n      dup4\n        /* \"#utility.yul\":11484:11501   */\n      add\n        /* \"#utility.yul\":11480:11507   */\n      slt\n        /* \"#utility.yul\":11470:11592   */\n      tag_518\n      jumpi\n        /* \"#utility.yul\":11511:11590   */\n      tag_519\n      tag_302\n      jump\t// in\n    tag_519:\n        /* \"#utility.yul\":11470:11592   */\n    tag_518:\n        /* \"#utility.yul\":11628:11634   */\n      dup2\n        /* \"#utility.yul\":11615:11635   */\n      calldataload\n        /* \"#utility.yul\":11653:11747   */\n      tag_520\n        /* \"#utility.yul\":11743:11746   */\n      dup5\n        /* \"#utility.yul\":11735:11741   */\n      dup3\n        /* \"#utility.yul\":11728:11732   */\n      0x20\n        /* \"#utility.yul\":11720:11726   */\n      dup7\n        /* \"#utility.yul\":11716:11733   */\n      add\n        /* \"#utility.yul\":11653:11747   */\n      tag_335\n      jump\t// in\n    tag_520:\n        /* \"#utility.yul\":11644:11747   */\n      swap2\n      pop\n        /* \"#utility.yul\":11460:11753   */\n      pop\n        /* \"#utility.yul\":11383:11753   */\n      swap3\n      swap2\n      pop\n      pop\n      jump\t// out\n        /* \"#utility.yul\":11759:13364   */\n    tag_64:\n        /* \"#utility.yul\":11945:11951   */\n      0x00\n        /* \"#utility.yul\":11953:11959   */\n      dup1\n        /* \"#utility.yul\":11961:11967   */\n      0x00\n        /* \"#utility.yul\":11969:11975   */\n      dup1\n        /* \"#utility.yul\":12018:12021   */\n      0x80\n        /* \"#utility.yul\":12006:12015   */\n      dup6\n        /* \"#utility.yul\":11997:12004   */\n      dup8\n        /* \"#utility.yul\":11993:12016   */\n      sub\n        /* \"#utility.yul\":11989:12022   */\n      slt\n        /* \"#utility.yul\":11986:12106   */\n      iszero\n      tag_522\n      jumpi\n        /* \"#utility.yul\":12025:12104   */\n      tag_523\n      tag_300\n      jump\t// in\n    tag_523:\n        /* \"#utility.yul\":11986:12106   */\n    tag_522:\n        /* \"#utility.yul\":12173:12174   */\n      0x00\n        /* \"#utility.yul\":12162:12171   */\n      dup6\n        /* \"#utility.yul\":12158:12175   */\n      add\n        /* \"#utility.yul\":12145:12176   */\n      calldataload\n        /* \"#utility.yul\":12203:12221   */\n      0xffffffffffffffff\n        /* \"#utility.yul\":12195:12201   */\n      dup2\n        /* \"#utility.yul\":12192:12222   */\n      gt\n        /* \"#utility.yul\":12189:12306   */\n      iszero\n      tag_524\n      jumpi\n        /* \"#utility.yul\":12225:12304   */\n      tag_525\n      tag_301\n      jump\t// in\n    tag_525:\n        /* \"#utility.yul\":12189:12306   */\n    tag_524:\n        /* \"#utility.yul\":12330:12408   */\n      tag_526\n        /* \"#utility.yul\":12400:12407   */\n      dup8\n        /* \"#utility.yul\":12391:12397   */\n      dup3\n        /* \"#utility.yul\":12380:12389   */\n      dup9\n        /* \"#utility.yul\":12376:12398   */\n      add\n        /* \"#utility.yul\":12330:12408   */\n      tag_333\n      jump\t// in\n    tag_526:\n        /* \"#utility.yul\":12320:12408   */\n      swap5\n      pop\n        /* \"#utility.yul\":12116:12418   */\n      pop\n        /* \"#utility.yul\":12485:12487   */\n      0x20\n        /* \"#utility.yul\":12474:12483   */\n      dup6\n        /* \"#utility.yul\":12470:12488   */\n      add\n        /* \"#utility.yul\":12457:12489   */\n      calldataload\n        /* \"#utility.yul\":12516:12534   */\n      0xffffffffffffffff\n        /* \"#utility.yul\":12508:12514   */\n      dup2\n        /* \"#utility.yul\":12505:12535   */\n      gt\n        /* \"#utility.yul\":12502:12619   */\n      iszero\n      tag_527\n      jumpi\n        /* \"#utility.yul\":12538:12617   */\n      tag_528\n      tag_301\n      jump\t// in\n    tag_528:\n        /* \"#utility.yul\":12502:12619   */\n    tag_527:\n        /* \"#utility.yul\":12643:12721   */\n      tag_529\n        /* \"#utility.yul\":12713:12720   */\n      dup8\n        /* \"#utility.yul\":12704:12710   */\n      dup3\n        /* \"#utility.yul\":12693:12702   */\n      dup9\n        /* \"#utility.yul\":12689:12711   */\n      add\n        /* \"#utility.yul\":12643:12721   */\n      tag_333\n      jump\t// in\n    tag_529:\n        /* \"#utility.yul\":12633:12721   */\n      swap4\n      pop\n        /* \"#utility.yul\":12428:12731   */\n      pop\n        /* \"#utility.yul\":12798:12800   */\n      0x40\n        /* \"#utility.yul\":12787:12796   */\n      dup6\n        /* \"#utility.yul\":12783:12801   */\n      add\n        /* \"#utility.yul\":12770:12802   */\n      calldataload\n        /* \"#utility.yul\":12829:12847   */\n      0xffffffffffffffff\n        /* \"#utility.yul\":12821:12827   */\n      dup2\n        /* \"#utility.yul\":12818:12848   */\n      gt\n        /* \"#utility.yul\":12815:12932   */\n      iszero\n      tag_530\n      jumpi\n        /* \"#utility.yul\":12851:12930   */\n      tag_531\n      tag_301\n      jump\t// in\n    tag_531:\n        /* \"#utility.yul\":12815:12932   */\n    tag_530:\n        /* \"#utility.yul\":12956:13034   */\n      tag_532\n        /* \"#utility.yul\":13026:13033   */\n      dup8\n        /* \"#utility.yul\":13017:13023   */\n      dup3\n        /* \"#utility.yul\":13006:13015   */\n      dup9\n        /* \"#utility.yul\":13002:13024   */\n      add\n        /* \"#utility.yul\":12956:13034   */\n      tag_336\n      jump\t// in\n    tag_532:\n        /* \"#utility.yul\":12946:13034   */\n      swap3\n      pop\n        /* \"#utility.yul\":12741:13044   */\n      pop\n        /* \"#utility.yul\":13111:13113   */\n      0x60\n        /* \"#utility.yul\":13100:13109   */\n      dup6\n        /* \"#utility.yul\":13096:13114   */\n      add\n        /* \"#utility.yul\":13083:13115   */\n      calldataload\n        /* \"#utility.yul\":13142:13160   */\n      0xffffffffffffffff\n        /* \"#utility.yul\":13134:13140   */\n      dup2\n        /* \"#utility.yul\":13131:13161   */\n      gt\n        /* \"#utility.yul\":13128:13245   */\n      iszero\n      tag_533\n      jumpi\n        /* \"#utility.yul\":13164:13243   */\n      tag_534\n      tag_301\n      jump\t// in\n    tag_534:\n        /* \"#utility.yul\":13128:13245   */\n    tag_533:\n        /* \"#utility.yul\":13269:13347   */\n      tag_535\n        /* \"#utility.yul\":13339:13346   */\n      dup8\n        /* \"#utility.yul\":13330:13336   */\n      dup3\n        /* \"#utility.yul\":13319:13328   */\n      dup9\n        /* \"#utility.yul\":13315:13337   */\n      add\n        /* \"#utility.yul\":13269:13347   */\n      tag_336\n      jump\t// in\n    tag_535:\n        /* \"#utility.yul\":13259:13347   */\n      swap2\n      pop\n        /* \"#utility.yul\":13054:13357   */\n      pop\n        /* \"#utility.yul\":11759:13364   */\n      swap3\n      swap6\n      swap2\n      swap5\n      pop\n      swap3\n      pop\n      jump\t// out\n        /* \"#utility.yul\":13370:13699   */\n    tag_68:\n        /* \"#utility.yul\":13429:13435   */\n      0x00\n        /* \"#utility.yul\":13478:13480   */\n      0x20\n        /* \"#utility.yul\":13466:13475   */\n      dup3\n        /* \"#utility.yul\":13457:13464   */\n      dup5\n        /* \"#utility.yul\":13453:13476   */\n      sub\n        /* \"#utility.yul\":13449:13481   */\n      slt\n        /* \"#utility.yul\":13446:13565   */\n      iszero\n      tag_537\n      jumpi\n        /* \"#utility.yul\":13484:13563   */\n      tag_538\n      tag_300\n      jump\t// in\n    tag_538:\n        /* \"#utility.yul\":13446:13565   */\n    tag_537:\n        /* \"#utility.yul\":13604:13605   */\n      0x00\n        /* \"#utility.yul\":13629:13682   */\n      tag_539\n        /* \"#utility.yul\":13674:13681   */\n      dup5\n        /* \"#utility.yul\":13665:13671   */\n      dup3\n        /* \"#utility.yul\":13654:13663   */\n      dup6\n        /* \"#utility.yul\":13650:13672   */\n      add\n        /* \"#utility.yul\":13629:13682   */\n      tag_331\n      jump\t// in\n    tag_539:\n        /* \"#utility.yul\":13619:13682   */\n      swap2\n      pop\n        /* \"#utility.yul\":13575:13692   */\n      pop\n        /* \"#utility.yul\":13370:13699   */\n      swap3\n      swap2\n      pop\n      pop\n      jump\t// out\n        /* \"#utility.yul\":13705:13874   */\n    tag_337:\n        /* \"#utility.yul\":13789:13800   */\n      0x00\n        /* \"#utility.yul\":13823:13829   */\n      dup3\n        /* \"#utility.yul\":13818:13821   */\n      dup3\n        /* \"#utility.yul\":13811:13830   */\n      mstore\n        /* \"#utility.yul\":13863:13867   */\n      0x20\n        /* \"#utility.yul\":13858:13861   */\n      dup3\n        /* \"#utility.yul\":13854:13868   */\n      add\n        /* \"#utility.yul\":13839:13868   */\n      swap1\n      pop\n        /* \"#utility.yul\":13705:13874   */\n      swap3\n      swap2\n      pop\n      pop\n      jump\t// out\n        /* \"#utility.yul\":13880:14050   */\n    tag_338:\n        /* \"#utility.yul\":14020:14042   */\n      0x436f6e7472616374206e6f7420616c6c6f776564000000000000000000000000\n        /* \"#utility.yul\":14016:14017   */\n      0x00\n        /* \"#utility.yul\":14008:14014   */\n      dup3\n        /* \"#utility.yul\":14004:14018   */\n      add\n        /* \"#utility.yul\":13997:14043   */\n      mstore\n        /* \"#utility.yul\":13880:14050   */\n      pop\n      jump\t// out\n        /* \"#utility.yul\":14056:14422   */\n    tag_339:\n        /* \"#utility.yul\":14198:14201   */\n      0x00\n        /* \"#utility.yul\":14219:14286   */\n      tag_543\n        /* \"#utility.yul\":14283:14285   */\n      0x14\n        /* \"#utility.yul\":14278:14281   */\n      dup4\n        /* \"#utility.yul\":14219:14286   */\n      tag_337\n      jump\t// in\n    tag_543:\n        /* \"#utility.yul\":14212:14286   */\n      swap2\n      pop\n        /* \"#utility.yul\":14295:14388   */\n      tag_544\n        /* \"#utility.yul\":14384:14387   */\n      dup3\n        /* \"#utility.yul\":14295:14388   */\n      tag_338\n      jump\t// in\n    tag_544:\n        /* \"#utility.yul\":14413:14415   */\n      0x20\n        /* \"#utility.yul\":14408:14411   */\n      dup3\n        /* \"#utility.yul\":14404:14416   */\n      add\n        /* \"#utility.yul\":14397:14416   */\n      swap1\n      pop\n        /* \"#utility.yul\":14056:14422   */\n      swap2\n      swap1\n      pop\n      jump\t// out\n        /* \"#utility.yul\":14428:14847   */\n    tag_75:\n        /* \"#utility.yul\":14594:14598   */\n      0x00\n        /* \"#utility.yul\":14632:14634   */\n      0x20\n        /* \"#utility.yul\":14621:14630   */\n      dup3\n        /* \"#utility.yul\":14617:14635   */\n      add\n        /* \"#utility.yul\":14609:14635   */\n      swap1\n      pop\n        /* \"#utility.yul\":14681:14690   */\n      dup2\n        /* \"#utility.yul\":14675:14679   */\n      dup2\n        /* \"#utility.yul\":14671:14691   */\n      sub\n        /* \"#utility.yul\":14667:14668   */\n      0x00\n        /* \"#utility.yul\":14656:14665   */\n      dup4\n        /* \"#utility.yul\":14652:14669   */\n      add\n        /* \"#utility.yul\":14645:14692   */\n      mstore\n        /* \"#utility.yul\":14709:14840   */\n      tag_546\n        /* \"#utility.yul\":14835:14839   */\n      dup2\n        /* \"#utility.yul\":14709:14840   */\n      tag_339\n      jump\t// in\n    tag_546:\n        /* \"#utility.yul\":14701:14840   */\n      swap1\n      pop\n        /* \"#utility.yul\":14428:14847   */\n      swap2\n      swap1\n      pop\n      jump\t// out\n        /* \"#utility.yul\":14853:15029   */\n    tag_340:\n        /* \"#utility.yul\":14993:15021   */\n      0x50726f787920636f6e7472616374206e6f7420616c6c6f776564000000000000\n        /* \"#utility.yul\":14989:14990   */\n      0x00\n        /* \"#utility.yul\":14981:14987   */\n      dup3\n        /* \"#utility.yul\":14977:14991   */\n      add\n        /* \"#utility.yul\":14970:15022   */\n      mstore\n        /* \"#utility.yul\":14853:15029   */\n      pop\n      jump\t// out\n        /* \"#utility.yul\":15035:15401   */\n    tag_341:\n        /* \"#utility.yul\":15177:15180   */\n      0x00\n        /* \"#utility.yul\":15198:15265   */\n      tag_549\n        /* \"#utility.yul\":15262:15264   */\n      0x1a\n        /* \"#utility.yul\":15257:15260   */\n      dup4\n        /* \"#utility.yul\":15198:15265   */\n      tag_337\n      jump\t// in\n    tag_549:\n        /* \"#utility.yul\":15191:15265   */\n      swap2\n      pop\n        /* \"#utility.yul\":15274:15367   */\n      tag_550\n        /* \"#utility.yul\":15363:15366   */\n      dup3\n        /* \"#utility.yul\":15274:15367   */\n      tag_340\n      jump\t// in\n    tag_550:\n        /* \"#utility.yul\":15392:15394   */\n      0x20\n        /* \"#utility.yul\":15387:15390   */\n      dup3\n        /* \"#utility.yul\":15383:15395   */\n      add\n        /* \"#utility.yul\":15376:15395   */\n      swap1\n      pop\n        /* \"#utility.yul\":15035:15401   */\n      swap2\n      swap1\n      pop\n      jump\t// out\n        /* \"#utility.yul\":15407:15826   */\n    tag_78:\n        /* \"#utility.yul\":15573:15577   */\n      0x00\n        /* \"#utility.yul\":15611:15613   */\n      0x20\n        /* \"#utility.yul\":15600:15609   */\n      dup3\n        /* \"#utility.yul\":15596:15614   */\n      add\n        /* \"#utility.yul\":15588:15614   */\n      swap1\n      pop\n        /* \"#utility.yul\":15660:15669   */\n      dup2\n        /* \"#utility.yul\":15654:15658   */\n      dup2\n        /* \"#utility.yul\":15650:15670   */\n      sub\n        /* \"#utility.yul\":15646:15647   */\n      0x00\n        /* \"#utility.yul\":15635:15644   */\n      dup4\n        /* \"#utility.yul\":15631:15648   */\n      add\n        /* \"#utility.yul\":15624:15671   */\n      mstore\n        /* \"#utility.yul\":15688:15819   */\n      tag_552\n        /* \"#utility.yul\":15814:15818   */\n      dup2\n        /* \"#utility.yul\":15688:15819   */\n      tag_341\n      jump\t// in\n    tag_552:\n        /* \"#utility.yul\":15680:15819   */\n      swap1\n      pop\n        /* \"#utility.yul\":15407:15826   */\n      swap2\n      swap1\n      pop\n      jump\t// out\n        /* \"#utility.yul\":15832:16065   */\n    tag_342:\n        /* \"#utility.yul\":15972:16006   */\n      0x5374616b696e673a20526567697374657220636f6c6c656374696f6e20627920\n        /* \"#utility.yul\":15968:15969   */\n      0x00\n        /* \"#utility.yul\":15960:15966   */\n      dup3\n        /* \"#utility.yul\":15956:15970   */\n      add\n        /* \"#utility.yul\":15949:16007   */\n      mstore\n        /* \"#utility.yul\":16041:16057   */\n      0x6164645374616b696e674e667473000000000000000000000000000000000000\n        /* \"#utility.yul\":16036:16038   */\n      0x20\n        /* \"#utility.yul\":16028:16034   */\n      dup3\n        /* \"#utility.yul\":16024:16039   */\n      add\n        /* \"#utility.yul\":16017:16058   */\n      mstore\n        /* \"#utility.yul\":15832:16065   */\n      pop\n      jump\t// out\n        /* \"#utility.yul\":16071:16437   */\n    tag_343:\n        /* \"#utility.yul\":16213:16216   */\n      0x00\n        /* \"#utility.yul\":16234:16301   */\n      tag_555\n        /* \"#utility.yul\":16298:16300   */\n      0x2e\n        /* \"#utility.yul\":16293:16296   */\n      dup4\n        /* \"#utility.yul\":16234:16301   */\n      tag_337\n      jump\t// in\n    tag_555:\n        /* \"#utility.yul\":16227:16301   */\n      swap2\n      pop\n        /* \"#utility.yul\":16310:16403   */\n      tag_556\n        /* \"#utility.yul\":16399:16402   */\n      dup3\n        /* \"#utility.yul\":16310:16403   */\n      tag_342\n      jump\t// in\n    tag_556:\n        /* \"#utility.yul\":16428:16430   */\n      0x40\n        /* \"#utility.yul\":16423:16426   */\n      dup3\n        /* \"#utility.yul\":16419:16431   */\n      add\n        /* \"#utility.yul\":16412:16431   */\n      swap1\n      pop\n        /* \"#utility.yul\":16071:16437   */\n      swap2\n      swap1\n      pop\n      jump\t// out\n        /* \"#utility.yul\":16443:16862   */\n    tag_82:\n        /* \"#utility.yul\":16609:16613   */\n      0x00\n        /* \"#utility.yul\":16647:16649   */\n      0x20\n        /* \"#utility.yul\":16636:16645   */\n      dup3\n        /* \"#utility.yul\":16632:16650   */\n      add\n        /* \"#utility.yul\":16624:16650   */\n      swap1\n      pop\n        /* \"#utility.yul\":16696:16705   */\n      dup2\n        /* \"#utility.yul\":16690:16694   */\n      dup2\n        /* \"#utility.yul\":16686:16706   */\n      sub\n        /* \"#utility.yul\":16682:16683   */\n      0x00\n        /* \"#utility.yul\":16671:16680   */\n      dup4\n        /* \"#utility.yul\":16667:16684   */\n      add\n        /* \"#utility.yul\":16660:16707   */\n      mstore\n        /* \"#utility.yul\":16724:16855   */\n      tag_558\n        /* \"#utility.yul\":16850:16854   */\n      dup2\n        /* \"#utility.yul\":16724:16855   */\n      tag_343\n      jump\t// in\n    tag_558:\n        /* \"#utility.yul\":16716:16855   */\n      swap1\n      pop\n        /* \"#utility.yul\":16443:16862   */\n      swap2\n      swap1\n      pop\n      jump\t// out\n        /* \"#utility.yul\":16868:17027   */\n    tag_344:\n        /* \"#utility.yul\":17008:17019   */\n      0x4e6f20746f6b656e730000000000000000000000000000000000000000000000\n        /* \"#utility.yul\":17004:17005   */\n      0x00\n        /* \"#utility.yul\":16996:17002   */\n      dup3\n        /* \"#utility.yul\":16992:17006   */\n      add\n        /* \"#utility.yul\":16985:17020   */\n      mstore\n        /* \"#utility.yul\":16868:17027   */\n      pop\n      jump\t// out\n        /* \"#utility.yul\":17033:17398   */\n    tag_345:\n        /* \"#utility.yul\":17175:17178   */\n      0x00\n        /* \"#utility.yul\":17196:17262   */\n      tag_561\n        /* \"#utility.yul\":17260:17261   */\n      0x09\n        /* \"#utility.yul\":17255:17258   */\n      dup4\n        /* \"#utility.yul\":17196:17262   */\n      tag_337\n      jump\t// in\n    tag_561:\n        /* \"#utility.yul\":17189:17262   */\n      swap2\n      pop\n        /* \"#utility.yul\":17271:17364   */\n      tag_562\n        /* \"#utility.yul\":17360:17363   */\n      dup3\n        /* \"#utility.yul\":17271:17364   */\n      tag_344\n      jump\t// in\n    tag_562:\n        /* \"#utility.yul\":17389:17391   */\n      0x20\n        /* \"#utility.yul\":17384:17387   */\n      dup3\n        /* \"#utility.yul\":17380:17392   */\n      add\n        /* \"#utility.yul\":17373:17392   */\n      swap1\n      pop\n        /* \"#utility.yul\":17033:17398   */\n      swap2\n      swap1\n      pop\n      jump\t// out\n        /* \"#utility.yul\":17404:17823   */\n    tag_85:\n        /* \"#utility.yul\":17570:17574   */\n      0x00\n        /* \"#utility.yul\":17608:17610   */\n      0x20\n        /* \"#utility.yul\":17597:17606   */\n      dup3\n        /* \"#utility.yul\":17593:17611   */\n      add\n        /* \"#utility.yul\":17585:17611   */\n      swap1\n      pop\n        /* \"#utility.yul\":17657:17666   */\n      dup2\n        /* \"#utility.yul\":17651:17655   */\n      dup2\n        /* \"#utility.yul\":17647:17667   */\n      sub\n        /* \"#utility.yul\":17643:17644   */\n      0x00\n        /* \"#utility.yul\":17632:17641   */\n      dup4\n        /* \"#utility.yul\":17628:17645   */\n      add\n        /* \"#utility.yul\":17621:17668   */\n      mstore\n        /* \"#utility.yul\":17685:17816   */\n      tag_564\n        /* \"#utility.yul\":17811:17815   */\n      dup2\n        /* \"#utility.yul\":17685:17816   */\n      tag_345\n      jump\t// in\n    tag_564:\n        /* \"#utility.yul\":17677:17816   */\n      swap1\n      pop\n        /* \"#utility.yul\":17404:17823   */\n      swap2\n      swap1\n      pop\n      jump\t// out\n        /* \"#utility.yul\":17829:18009   */\n    tag_91:\n        /* \"#utility.yul\":17877:17954   */\n      0x4e487b7100000000000000000000000000000000000000000000000000000000\n        /* \"#utility.yul\":17874:17875   */\n      0x00\n        /* \"#utility.yul\":17867:17955   */\n      mstore\n        /* \"#utility.yul\":17974:17978   */\n      0x32\n        /* \"#utility.yul\":17971:17972   */\n      0x04\n        /* \"#utility.yul\":17964:17979   */\n      mstore\n        /* \"#utility.yul\":17998:18002   */\n      0x24\n        /* \"#utility.yul\":17995:17996   */\n      0x00\n        /* \"#utility.yul\":17988:18003   */\n      revert\n        /* \"#utility.yul\":18015:18182   */\n    tag_346:\n        /* \"#utility.yul\":18155:18174   */\n      0x4e6f74206120746f6b656e206f776e6572000000000000000000000000000000\n        /* \"#utility.yul\":18151:18152   */\n      0x00\n        /* \"#utility.yul\":18143:18149   */\n      dup3\n        /* \"#utility.yul\":18139:18153   */\n      add\n        /* \"#utility.yul\":18132:18175   */\n      mstore\n        /* \"#utility.yul\":18015:18182   */\n      pop\n      jump\t// out\n        /* \"#utility.yul\":18188:18554   */\n    tag_347:\n        /* \"#utility.yul\":18330:18333   */\n      0x00\n        /* \"#utility.yul\":18351:18418   */\n      tag_568\n        /* \"#utility.yul\":18415:18417   */\n      0x11\n        /* \"#utility.yul\":18410:18413   */\n      dup4\n        /* \"#utility.yul\":18351:18418   */\n      tag_337\n      jump\t// in\n    tag_568:\n        /* \"#utility.yul\":18344:18418   */\n      swap2\n      pop\n        /* \"#utility.yul\":18427:18520   */\n      tag_569\n        /* \"#utility.yul\":18516:18519   */\n      dup3\n        /* \"#utility.yul\":18427:18520   */\n      tag_346\n      jump\t// in\n    tag_569:\n        /* \"#utility.yul\":18545:18547   */\n      0x20\n        /* \"#utility.yul\":18540:18543   */\n      dup3\n        /* \"#utility.yul\":18536:18548   */\n      add\n        /* \"#utility.yul\":18529:18548   */\n      swap1\n      pop\n        /* \"#utility.yul\":18188:18554   */\n      swap2\n      swap1\n      pop\n      jump\t// out\n        /* \"#utility.yul\":18560:18979   */\n    tag_94:\n        /* \"#utility.yul\":18726:18730   */\n      0x00\n        /* \"#utility.yul\":18764:18766   */\n      0x20\n        /* \"#utility.yul\":18753:18762   */\n      dup3\n        /* \"#utility.yul\":18749:18767   */\n      add\n        /* \"#utility.yul\":18741:18767   */\n      swap1\n      pop\n        /* \"#utility.yul\":18813:18822   */\n      dup2\n        /* \"#utility.yul\":18807:18811   */\n      dup2\n        /* \"#utility.yul\":18803:18823   */\n      sub\n        /* \"#utility.yul\":18799:18800   */\n      0x00\n        /* \"#utility.yul\":18788:18797   */\n      dup4\n        /* \"#utility.yul\":18784:18801   */\n      add\n        /* \"#utility.yul\":18777:18824   */\n      mstore\n        /* \"#utility.yul\":18841:18972   */\n      tag_571\n        /* \"#utility.yul\":18967:18971   */\n      dup2\n        /* \"#utility.yul\":18841:18972   */\n      tag_347\n      jump\t// in\n    tag_571:\n        /* \"#utility.yul\":18833:18972   */\n      swap1\n      pop\n        /* \"#utility.yul\":18560:18979   */\n      swap2\n      swap1\n      pop\n      jump\t// out\n        /* \"#utility.yul\":18985:19165   */\n    tag_348:\n        /* \"#utility.yul\":19033:19110   */\n      0x4e487b7100000000000000000000000000000000000000000000000000000000\n        /* \"#utility.yul\":19030:19031   */\n      0x00\n        /* \"#utility.yul\":19023:19111   */\n      mstore\n        /* \"#utility.yul\":19130:19134   */\n      0x11\n        /* \"#utility.yul\":19127:19128   */\n      0x04\n        /* \"#utility.yul\":19120:19135   */\n      mstore\n        /* \"#utility.yul\":19154:19158   */\n      0x24\n        /* \"#utility.yul\":19151:19152   */\n      0x00\n        /* \"#utility.yul\":19144:19159   */\n      revert\n        /* \"#utility.yul\":19171:19362   */\n    tag_96:\n        /* \"#utility.yul\":19211:19214   */\n      0x00\n        /* \"#utility.yul\":19230:19250   */\n      tag_574\n        /* \"#utility.yul\":19248:19249   */\n      dup3\n        /* \"#utility.yul\":19230:19250   */\n      tag_311\n      jump\t// in\n    tag_574:\n        /* \"#utility.yul\":19225:19250   */\n      swap2\n      pop\n        /* \"#utility.yul\":19264:19284   */\n      tag_575\n        /* \"#utility.yul\":19282:19283   */\n      dup4\n        /* \"#utility.yul\":19264:19284   */\n      tag_311\n      jump\t// in\n    tag_575:\n        /* \"#utility.yul\":19259:19284   */\n      swap3\n      pop\n        /* \"#utility.yul\":19307:19308   */\n      dup3\n        /* \"#utility.yul\":19304:19305   */\n      dup3\n        /* \"#utility.yul\":19300:19309   */\n      add\n        /* \"#utility.yul\":19293:19309   */\n      swap1\n      pop\n        /* \"#utility.yul\":19328:19331   */\n      dup1\n        /* \"#utility.yul\":19325:19326   */\n      dup3\n        /* \"#utility.yul\":19322:19332   */\n      gt\n        /* \"#utility.yul\":19319:19355   */\n      iszero\n      tag_576\n      jumpi\n        /* \"#utility.yul\":19335:19353   */\n      tag_577\n      tag_348\n      jump\t// in\n    tag_577:\n        /* \"#utility.yul\":19319:19355   */\n    tag_576:\n        /* \"#utility.yul\":19171:19362   */\n      swap3\n      swap2\n      pop\n      pop\n      jump\t// out\n        /* \"#utility.yul\":19368:19539   */\n    tag_349:\n        /* \"#utility.yul\":19508:19531   */\n      0x4e6f742061626c6520746f20636c61696d207965740000000000000000000000\n        /* \"#utility.yul\":19504:19505   */\n      0x00\n        /* \"#utility.yul\":19496:19502   */\n      dup3\n        /* \"#utility.yul\":19492:19506   */\n      add\n        /* \"#utility.yul\":19485:19532   */\n      mstore\n        /* \"#utility.yul\":19368:19539   */\n      pop\n      jump\t// out\n        /* \"#utility.yul\":19545:19911   */\n    tag_350:\n        /* \"#utility.yul\":19687:19690   */\n      0x00\n        /* \"#utility.yul\":19708:19775   */\n      tag_580\n        /* \"#utility.yul\":19772:19774   */\n      0x15\n        /* \"#utility.yul\":19767:19770   */\n      dup4\n        /* \"#utility.yul\":19708:19775   */\n      tag_337\n      jump\t// in\n    tag_580:\n        /* \"#utility.yul\":19701:19775   */\n      swap2\n      pop\n        /* \"#utility.yul\":19784:19877   */\n      tag_581\n        /* \"#utility.yul\":19873:19876   */\n      dup3\n        /* \"#utility.yul\":19784:19877   */\n      tag_349\n      jump\t// in\n    tag_581:\n        /* \"#utility.yul\":19902:19904   */\n      0x20\n        /* \"#utility.yul\":19897:19900   */\n      dup3\n        /* \"#utility.yul\":19893:19905   */\n      add\n        /* \"#utility.yul\":19886:19905   */\n      swap1\n      pop\n        /* \"#utility.yul\":19545:19911   */\n      swap2\n      swap1\n      pop\n      jump\t// out\n        /* \"#utility.yul\":19917:20336   */\n    tag_99:\n        /* \"#utility.yul\":20083:20087   */\n      0x00\n        /* \"#utility.yul\":20121:20123   */\n      0x20\n        /* \"#utility.yul\":20110:20119   */\n      dup3\n        /* \"#utility.yul\":20106:20124   */\n      add\n        /* \"#utility.yul\":20098:20124   */\n      swap1\n      pop\n        /* \"#utility.yul\":20170:20179   */\n      dup2\n        /* \"#utility.yul\":20164:20168   */\n      dup2\n        /* \"#utility.yul\":20160:20180   */\n      sub\n        /* \"#utility.yul\":20156:20157   */\n      0x00\n        /* \"#utility.yul\":20145:20154   */\n      dup4\n        /* \"#utility.yul\":20141:20158   */\n      add\n        /* \"#utility.yul\":20134:20181   */\n      mstore\n        /* \"#utility.yul\":20198:20329   */\n      tag_583\n        /* \"#utility.yul\":20324:20328   */\n      dup2\n        /* \"#utility.yul\":20198:20329   */\n      tag_350\n      jump\t// in\n    tag_583:\n        /* \"#utility.yul\":20190:20329   */\n      swap1\n      pop\n        /* \"#utility.yul\":19917:20336   */\n      swap2\n      swap1\n      pop\n      jump\t// out\n        /* \"#utility.yul\":20342:20508   */\n    tag_351:\n        /* \"#utility.yul\":20482:20500   */\n      0x416c726561647920756e6c6f636b656400000000000000000000000000000000\n        /* \"#utility.yul\":20478:20479   */\n      0x00\n        /* \"#utility.yul\":20470:20476   */\n      dup3\n        /* \"#utility.yul\":20466:20480   */\n      add\n        /* \"#utility.yul\":20459:20501   */\n      mstore\n        /* \"#utility.yul\":20342:20508   */\n      pop\n      jump\t// out\n        /* \"#utility.yul\":20514:20880   */\n    tag_352:\n        /* \"#utility.yul\":20656:20659   */\n      0x00\n        /* \"#utility.yul\":20677:20744   */\n      tag_586\n        /* \"#utility.yul\":20741:20743   */\n      0x10\n        /* \"#utility.yul\":20736:20739   */\n      dup4\n        /* \"#utility.yul\":20677:20744   */\n      tag_337\n      jump\t// in\n    tag_586:\n        /* \"#utility.yul\":20670:20744   */\n      swap2\n      pop\n        /* \"#utility.yul\":20753:20846   */\n      tag_587\n        /* \"#utility.yul\":20842:20845   */\n      dup3\n        /* \"#utility.yul\":20753:20846   */\n      tag_351\n      jump\t// in\n    tag_587:\n        /* \"#utility.yul\":20871:20873   */\n      0x20\n        /* \"#utility.yul\":20866:20869   */\n      dup3\n        /* \"#utility.yul\":20862:20874   */\n      add\n        /* \"#utility.yul\":20855:20874   */\n      swap1\n      pop\n        /* \"#utility.yul\":20514:20880   */\n      swap2\n      swap1\n      pop\n      jump\t// out\n        /* \"#utility.yul\":20886:21305   */\n    tag_102:\n        /* \"#utility.yul\":21052:21056   */\n      0x00\n        /* \"#utility.yul\":21090:21092   */\n      0x20\n        /* \"#utility.yul\":21079:21088   */\n      dup3\n        /* \"#utility.yul\":21075:21093   */\n      add\n        /* \"#utility.yul\":21067:21093   */\n      swap1\n      pop\n        /* \"#utility.yul\":21139:21148   */\n      dup2\n        /* \"#utility.yul\":21133:21137   */\n      dup2\n        /* \"#utility.yul\":21129:21149   */\n      sub\n        /* \"#utility.yul\":21125:21126   */\n      0x00\n        /* \"#utility.yul\":21114:21123   */\n      dup4\n        /* \"#utility.yul\":21110:21127   */\n      add\n        /* \"#utility.yul\":21103:21150   */\n      mstore\n        /* \"#utility.yul\":21167:21298   */\n      tag_589\n        /* \"#utility.yul\":21293:21297   */\n      dup2\n        /* \"#utility.yul\":21167:21298   */\n      tag_352\n      jump\t// in\n    tag_589:\n        /* \"#utility.yul\":21159:21298   */\n      swap1\n      pop\n        /* \"#utility.yul\":20886:21305   */\n      swap2\n      swap1\n      pop\n      jump\t// out\n        /* \"#utility.yul\":21311:21505   */\n    tag_108:\n        /* \"#utility.yul\":21351:21355   */\n      0x00\n        /* \"#utility.yul\":21371:21391   */\n      tag_591\n        /* \"#utility.yul\":21389:21390   */\n      dup3\n        /* \"#utility.yul\":21371:21391   */\n      tag_311\n      jump\t// in\n    tag_591:\n        /* \"#utility.yul\":21366:21391   */\n      swap2\n      pop\n        /* \"#utility.yul\":21405:21425   */\n      tag_592\n        /* \"#utility.yul\":21423:21424   */\n      dup4\n        /* \"#utility.yul\":21405:21425   */\n      tag_311\n      jump\t// in\n    tag_592:\n        /* \"#utility.yul\":21400:21425   */\n      swap3\n      pop\n        /* \"#utility.yul\":21449:21450   */\n      dup3\n        /* \"#utility.yul\":21446:21447   */\n      dup3\n        /* \"#utility.yul\":21442:21451   */\n      sub\n        /* \"#utility.yul\":21434:21451   */\n      swap1\n      pop\n        /* \"#utility.yul\":21473:21474   */\n      dup2\n        /* \"#utility.yul\":21467:21471   */\n      dup2\n        /* \"#utility.yul\":21464:21475   */\n      gt\n        /* \"#utility.yul\":21461:21498   */\n      iszero\n      tag_593\n      jumpi\n        /* \"#utility.yul\":21478:21496   */\n      tag_594\n      tag_348\n      jump\t// in\n    tag_594:\n        /* \"#utility.yul\":21461:21498   */\n    tag_593:\n        /* \"#utility.yul\":21311:21505   */\n      swap3\n      swap2\n      pop\n      pop\n      jump\t// out\n        /* \"#utility.yul\":21511:21843   */\n    tag_110:\n        /* \"#utility.yul\":21632:21636   */\n      0x00\n        /* \"#utility.yul\":21670:21672   */\n      0x40\n        /* \"#utility.yul\":21659:21668   */\n      dup3\n        /* \"#utility.yul\":21655:21673   */\n      add\n        /* \"#utility.yul\":21647:21673   */\n      swap1\n      pop\n        /* \"#utility.yul\":21683:21754   */\n      tag_596\n        /* \"#utility.yul\":21751:21752   */\n      0x00\n        /* \"#utility.yul\":21740:21749   */\n      dup4\n        /* \"#utility.yul\":21736:21753   */\n      add\n        /* \"#utility.yul\":21727:21733   */\n      dup6\n        /* \"#utility.yul\":21683:21754   */\n      tag_315\n      jump\t// in\n    tag_596:\n        /* \"#utility.yul\":21764:21836   */\n      tag_597\n        /* \"#utility.yul\":21832:21834   */\n      0x20\n        /* \"#utility.yul\":21821:21830   */\n      dup4\n        /* \"#utility.yul\":21817:21835   */\n      add\n        /* \"#utility.yul\":21808:21814   */\n      dup5\n        /* \"#utility.yul\":21764:21836   */\n      tag_312\n      jump\t// in\n    tag_597:\n        /* \"#utility.yul\":21511:21843   */\n      swap4\n      swap3\n      pop\n      pop\n      pop\n      jump\t// out\n        /* \"#utility.yul\":21849:22082   */\n    tag_118:\n        /* \"#utility.yul\":21888:21891   */\n      0x00\n        /* \"#utility.yul\":21911:21935   */\n      tag_599\n        /* \"#utility.yul\":21929:21934   */\n      dup3\n        /* \"#utility.yul\":21911:21935   */\n      tag_311\n      jump\t// in\n    tag_599:\n        /* \"#utility.yul\":21902:21935   */\n      swap2\n      pop\n        /* \"#utility.yul\":21957:22023   */\n      0xffffffffffffffffffffffffffffffffffffffffffffffffffffffffffffffff\n        /* \"#utility.yul\":21950:21955   */\n      dup3\n        /* \"#utility.yul\":21947:22024   */\n      sub\n        /* \"#utility.yul\":21944:22047   */\n      tag_600\n      jumpi\n        /* \"#utility.yul\":22027:22045   */\n      tag_601\n      tag_348\n      jump\t// in\n    tag_601:\n        /* \"#utility.yul\":21944:22047   */\n    tag_600:\n        /* \"#utility.yul\":22074:22075   */\n      0x01\n        /* \"#utility.yul\":22067:22072   */\n      dup3\n        /* \"#utility.yul\":22063:22076   */\n      add\n        /* \"#utility.yul\":22056:22076   */\n      swap1\n      pop\n        /* \"#utility.yul\":21849:22082   */\n      swap2\n      swap1\n      pop\n      jump\t// out\n        /* \"#utility.yul\":22088:22272   */\n    tag_353:\n        /* \"#utility.yul\":22187:22198   */\n      0x00\n        /* \"#utility.yul\":22221:22227   */\n      dup3\n        /* \"#utility.yul\":22216:22219   */\n      dup3\n        /* \"#utility.yul\":22209:22228   */\n      mstore\n        /* \"#utility.yul\":22261:22265   */\n      0x20\n        /* \"#utility.yul\":22256:22259   */\n      dup3\n        /* \"#utility.yul\":22252:22266   */\n      add\n        /* \"#utility.yul\":22237:22266   */\n      swap1\n      pop\n        /* \"#utility.yul\":22088:22272   */\n      swap3\n      swap2\n      pop\n      pop\n      jump\t// out\n        /* \"#utility.yul\":22278:22395   */\n    tag_354:\n        /* \"#utility.yul\":22387:22388   */\n      0x00\n        /* \"#utility.yul\":22384:22385   */\n      dup1\n        /* \"#utility.yul\":22377:22389   */\n      revert\n        /* \"#utility.yul\":22401:22499   */\n    tag_355:\n        /* \"#utility.yul\":22485:22491   */\n      dup3\n        /* \"#utility.yul\":22480:22483   */\n      dup2\n        /* \"#utility.yul\":22475:22478   */\n      dup4\n        /* \"#utility.yul\":22462:22492   */\n      calldatacopy\n        /* \"#utility.yul\":22401:22499   */\n      pop\n      pop\n      pop\n      jump\t// out\n        /* \"#utility.yul\":22535:23072   */\n    tag_356:\n        /* \"#utility.yul\":22663:22666   */\n      0x00\n        /* \"#utility.yul\":22684:22770   */\n      tag_606\n        /* \"#utility.yul\":22763:22769   */\n      dup4\n        /* \"#utility.yul\":22758:22761   */\n      dup6\n        /* \"#utility.yul\":22684:22770   */\n      tag_353\n      jump\t// in\n    tag_606:\n        /* \"#utility.yul\":22677:22770   */\n      swap4\n      pop\n        /* \"#utility.yul\":22794:22860   */\n      0x07ffffffffffffffffffffffffffffffffffffffffffffffffffffffffffffff\n        /* \"#utility.yul\":22786:22792   */\n      dup4\n        /* \"#utility.yul\":22783:22861   */\n      gt\n        /* \"#utility.yul\":22780:22945   */\n      iszero\n      tag_607\n      jumpi\n        /* \"#utility.yul\":22864:22943   */\n      tag_608\n      tag_354\n      jump\t// in\n    tag_608:\n        /* \"#utility.yul\":22780:22945   */\n    tag_607:\n        /* \"#utility.yul\":22976:22980   */\n      0x20\n        /* \"#utility.yul\":22968:22974   */\n      dup4\n        /* \"#utility.yul\":22964:22981   */\n      mul\n        /* \"#utility.yul\":22954:22981   */\n      swap3\n      pop\n        /* \"#utility.yul\":22991:23034   */\n      tag_609\n        /* \"#utility.yul\":23027:23033   */\n      dup4\n        /* \"#utility.yul\":23022:23025   */\n      dup6\n        /* \"#utility.yul\":23015:23020   */\n      dup5\n        /* \"#utility.yul\":22991:23034   */\n      tag_355\n      jump\t// in\n    tag_609:\n        /* \"#utility.yul\":23059:23065   */\n      dup3\n        /* \"#utility.yul\":23054:23057   */\n      dup5\n        /* \"#utility.yul\":23050:23066   */\n      add\n        /* \"#utility.yul\":23043:23066   */\n      swap1\n      pop\n        /* \"#utility.yul\":22535:23072   */\n      swap4\n      swap3\n      pop\n      pop\n      pop\n      jump\t// out\n        /* \"#utility.yul\":23078:23581   */\n    tag_120:\n        /* \"#utility.yul\":23259:23263   */\n      0x00\n        /* \"#utility.yul\":23297:23299   */\n      0x40\n        /* \"#utility.yul\":23286:23295   */\n      dup3\n        /* \"#utility.yul\":23282:23300   */\n      add\n        /* \"#utility.yul\":23274:23300   */\n      swap1\n      pop\n        /* \"#utility.yul\":23346:23355   */\n      dup2\n        /* \"#utility.yul\":23340:23344   */\n      dup2\n        /* \"#utility.yul\":23336:23356   */\n      sub\n        /* \"#utility.yul\":23332:23333   */\n      0x00\n        /* \"#utility.yul\":23321:23330   */\n      dup4\n        /* \"#utility.yul\":23317:23334   */\n      add\n        /* \"#utility.yul\":23310:23357   */\n      mstore\n        /* \"#utility.yul\":23374:23492   */\n      tag_611\n        /* \"#utility.yul\":23487:23491   */\n      dup2\n        /* \"#utility.yul\":23478:23484   */\n      dup6\n        /* \"#utility.yul\":23470:23476   */\n      dup8\n        /* \"#utility.yul\":23374:23492   */\n      tag_356\n      jump\t// in\n    tag_611:\n        /* \"#utility.yul\":23366:23492   */\n      swap1\n      pop\n        /* \"#utility.yul\":23502:23574   */\n      tag_612\n        /* \"#utility.yul\":23570:23572   */\n      0x20\n        /* \"#utility.yul\":23559:23568   */\n      dup4\n        /* \"#utility.yul\":23555:23573   */\n      add\n        /* \"#utility.yul\":23546:23552   */\n      dup5\n        /* \"#utility.yul\":23502:23574   */\n      tag_312\n      jump\t// in\n    tag_612:\n        /* \"#utility.yul\":23078:23581   */\n      swap5\n      swap4\n      pop\n      pop\n      pop\n      pop\n      jump\t// out\n        /* \"#utility.yul\":23587:23768   */\n    tag_357:\n        /* \"#utility.yul\":23727:23760   */\n      0x5265656e7472616e637947756172643a207265656e7472616e742063616c6c00\n        /* \"#utility.yul\":23723:23724   */\n      0x00\n        /* \"#utility.yul\":23715:23721   */\n      dup3\n        /* \"#utility.yul\":23711:23725   */\n      add\n        /* \"#utility.yul\":23704:23761   */\n      mstore\n        /* \"#utility.yul\":23587:23768   */\n      pop\n      jump\t// out\n        /* \"#utility.yul\":23774:24140   */\n    tag_358:\n        /* \"#utility.yul\":23916:23919   */\n      0x00\n        /* \"#utility.yul\":23937:24004   */\n      tag_615\n        /* \"#utility.yul\":24001:24003   */\n      0x1f\n        /* \"#utility.yul\":23996:23999   */\n      dup4\n        /* \"#utility.yul\":23937:24004   */\n      tag_337\n      jump\t// in\n    tag_615:\n        /* \"#utility.yul\":23930:24004   */\n      swap2\n      pop\n        /* \"#utility.yul\":24013:24106   */\n      tag_616\n        /* \"#utility.yul\":24102:24105   */\n      dup3\n        /* \"#utility.yul\":24013:24106   */\n      tag_357\n      jump\t// in\n    tag_616:\n        /* \"#utility.yul\":24131:24133   */\n      0x20\n        /* \"#utility.yul\":24126:24129   */\n      dup3\n        /* \"#utility.yul\":24122:24134   */\n      add\n        /* \"#utility.yul\":24115:24134   */\n      swap1\n      pop\n        /* \"#utility.yul\":23774:24140   */\n      swap2\n      swap1\n      pop\n      jump\t// out\n        /* \"#utility.yul\":24146:24565   */\n    tag_130:\n        /* \"#utility.yul\":24312:24316   */\n      0x00\n        /* \"#utility.yul\":24350:24352   */\n      0x20\n        /* \"#utility.yul\":24339:24348   */\n      dup3\n        /* \"#utility.yul\":24335:24353   */\n      add\n        /* \"#utility.yul\":24327:24353   */\n      swap1\n      pop\n        /* \"#utility.yul\":24399:24408   */\n      dup2\n        /* \"#utility.yul\":24393:24397   */\n      dup2\n        /* \"#utility.yul\":24389:24409   */\n      sub\n        /* \"#utility.yul\":24385:24386   */\n      0x00\n        /* \"#utility.yul\":24374:24383   */\n      dup4\n        /* \"#utility.yul\":24370:24387   */\n      add\n        /* \"#utility.yul\":24363:24410   */\n      mstore\n        /* \"#utility.yul\":24427:24558   */\n      tag_618\n        /* \"#utility.yul\":24553:24557   */\n      dup2\n        /* \"#utility.yul\":24427:24558   */\n      tag_358\n      jump\t// in\n    tag_618:\n        /* \"#utility.yul\":24419:24558   */\n      swap1\n      pop\n        /* \"#utility.yul\":24146:24565   */\n      swap2\n      swap1\n      pop\n      jump\t// out\n        /* \"#utility.yul\":24571:24714   */\n    tag_359:\n        /* \"#utility.yul\":24628:24633   */\n      0x00\n        /* \"#utility.yul\":24659:24665   */\n      dup2\n        /* \"#utility.yul\":24653:24666   */\n      mload\n        /* \"#utility.yul\":24644:24666   */\n      swap1\n      pop\n        /* \"#utility.yul\":24675:24708   */\n      tag_620\n        /* \"#utility.yul\":24702:24707   */\n      dup2\n        /* \"#utility.yul\":24675:24708   */\n      tag_330\n      jump\t// in\n    tag_620:\n        /* \"#utility.yul\":24571:24714   */\n      swap3\n      swap2\n      pop\n      pop\n      jump\t// out\n        /* \"#utility.yul\":24720:25071   */\n    tag_145:\n        /* \"#utility.yul\":24790:24796   */\n      0x00\n        /* \"#utility.yul\":24839:24841   */\n      0x20\n        /* \"#utility.yul\":24827:24836   */\n      dup3\n        /* \"#utility.yul\":24818:24825   */\n      dup5\n        /* \"#utility.yul\":24814:24837   */\n      sub\n        /* \"#utility.yul\":24810:24842   */\n      slt\n        /* \"#utility.yul\":24807:24926   */\n      iszero\n      tag_622\n      jumpi\n        /* \"#utility.yul\":24845:24924   */\n      tag_623\n      tag_300\n      jump\t// in\n    tag_623:\n        /* \"#utility.yul\":24807:24926   */\n    tag_622:\n        /* \"#utility.yul\":24965:24966   */\n      0x00\n        /* \"#utility.yul\":24990:25054   */\n      tag_624\n        /* \"#utility.yul\":25046:25053   */\n      dup5\n        /* \"#utility.yul\":25037:25043   */\n      dup3\n        /* \"#utility.yul\":25026:25035   */\n      dup6\n        /* \"#utility.yul\":25022:25044   */\n      add\n        /* \"#utility.yul\":24990:25054   */\n      tag_359\n      jump\t// in\n    tag_624:\n        /* \"#utility.yul\":24980:25054   */\n      swap2\n      pop\n        /* \"#utility.yul\":24936:25064   */\n      pop\n        /* \"#utility.yul\":24720:25071   */\n      swap3\n      swap2\n      pop\n      pop\n      jump\t// out\n        /* \"#utility.yul\":25077:25252   */\n    tag_360:\n        /* \"#utility.yul\":25217:25244   */\n      0x596f7520646f6e277420686f6c64207468697320746f6b656e00000000000000\n        /* \"#utility.yul\":25213:25214   */\n      0x00\n        /* \"#utility.yul\":25205:25211   */\n      dup3\n        /* \"#utility.yul\":25201:25215   */\n      add\n        /* \"#utility.yul\":25194:25245   */\n      mstore\n        /* \"#utility.yul\":25077:25252   */\n      pop\n      jump\t// out\n        /* \"#utility.yul\":25258:25624   */\n    tag_361:\n        /* \"#utility.yul\":25400:25403   */\n      0x00\n        /* \"#utility.yul\":25421:25488   */\n      tag_627\n        /* \"#utility.yul\":25485:25487   */\n      0x19\n        /* \"#utility.yul\":25480:25483   */\n      dup4\n        /* \"#utility.yul\":25421:25488   */\n      tag_337\n      jump\t// in\n    tag_627:\n        /* \"#utility.yul\":25414:25488   */\n      swap2\n      pop\n        /* \"#utility.yul\":25497:25590   */\n      tag_628\n        /* \"#utility.yul\":25586:25589   */\n      dup3\n        /* \"#utility.yul\":25497:25590   */\n      tag_360\n      jump\t// in\n    tag_628:\n        /* \"#utility.yul\":25615:25617   */\n      0x20\n        /* \"#utility.yul\":25610:25613   */\n      dup3\n        /* \"#utility.yul\":25606:25618   */\n      add\n        /* \"#utility.yul\":25599:25618   */\n      swap1\n      pop\n        /* \"#utility.yul\":25258:25624   */\n      swap2\n      swap1\n      pop\n      jump\t// out\n        /* \"#utility.yul\":25630:26049   */\n    tag_148:\n        /* \"#utility.yul\":25796:25800   */\n      0x00\n        /* \"#utility.yul\":25834:25836   */\n      0x20\n        /* \"#utility.yul\":25823:25832   */\n      dup3\n        /* \"#utility.yul\":25819:25837   */\n      add\n        /* \"#utility.yul\":25811:25837   */\n      swap1\n      pop\n        /* \"#utility.yul\":25883:25892   */\n      dup2\n        /* \"#utility.yul\":25877:25881   */\n      dup2\n        /* \"#utility.yul\":25873:25893   */\n      sub\n        /* \"#utility.yul\":25869:25870   */\n      0x00\n        /* \"#utility.yul\":25858:25867   */\n      dup4\n        /* \"#utility.yul\":25854:25871   */\n      add\n        /* \"#utility.yul\":25847:25894   */\n      mstore\n        /* \"#utility.yul\":25911:26042   */\n      tag_630\n        /* \"#utility.yul\":26037:26041   */\n      dup2\n        /* \"#utility.yul\":25911:26042   */\n      tag_361\n      jump\t// in\n    tag_630:\n        /* \"#utility.yul\":25903:26042   */\n      swap1\n      pop\n        /* \"#utility.yul\":25630:26049   */\n      swap2\n      swap1\n      pop\n      jump\t// out\n        /* \"#utility.yul\":26055:26497   */\n    tag_152:\n        /* \"#utility.yul\":26204:26208   */\n      0x00\n        /* \"#utility.yul\":26242:26244   */\n      0x60\n        /* \"#utility.yul\":26231:26240   */\n      dup3\n        /* \"#utility.yul\":26227:26245   */\n      add\n        /* \"#utility.yul\":26219:26245   */\n      swap1\n      pop\n        /* \"#utility.yul\":26255:26326   */\n      tag_632\n        /* \"#utility.yul\":26323:26324   */\n      0x00\n        /* \"#utility.yul\":26312:26321   */\n      dup4\n        /* \"#utility.yul\":26308:26325   */\n      add\n        /* \"#utility.yul\":26299:26305   */\n      dup7\n        /* \"#utility.yul\":26255:26326   */\n      tag_315\n      jump\t// in\n    tag_632:\n        /* \"#utility.yul\":26336:26408   */\n      tag_633\n        /* \"#utility.yul\":26404:26406   */\n      0x20\n        /* \"#utility.yul\":26393:26402   */\n      dup4\n        /* \"#utility.yul\":26389:26407   */\n      add\n        /* \"#utility.yul\":26380:26386   */\n      dup6\n        /* \"#utility.yul\":26336:26408   */\n      tag_315\n      jump\t// in\n    tag_633:\n        /* \"#utility.yul\":26418:26490   */\n      tag_634\n        /* \"#utility.yul\":26486:26488   */\n      0x40\n        /* \"#utility.yul\":26475:26484   */\n      dup4\n        /* \"#utility.yul\":26471:26489   */\n      add\n        /* \"#utility.yul\":26462:26468   */\n      dup5\n        /* \"#utility.yul\":26418:26490   */\n      tag_312\n      jump\t// in\n    tag_634:\n        /* \"#utility.yul\":26055:26497   */\n      swap5\n      swap4\n      pop\n      pop\n      pop\n      pop\n      jump\t// out\n        /* \"#utility.yul\":26503:26896   */\n    tag_160:\n        /* \"#utility.yul\":26656:26660   */\n      0x00\n        /* \"#utility.yul\":26694:26696   */\n      0x20\n        /* \"#utility.yul\":26683:26692   */\n      dup3\n        /* \"#utility.yul\":26679:26697   */\n      add\n        /* \"#utility.yul\":26671:26697   */\n      swap1\n      pop\n        /* \"#utility.yul\":26743:26752   */\n      dup2\n        /* \"#utility.yul\":26737:26741   */\n      dup2\n        /* \"#utility.yul\":26733:26753   */\n      sub\n        /* \"#utility.yul\":26729:26730   */\n      0x00\n        /* \"#utility.yul\":26718:26727   */\n      dup4\n        /* \"#utility.yul\":26714:26731   */\n      add\n        /* \"#utility.yul\":26707:26754   */\n      mstore\n        /* \"#utility.yul\":26771:26889   */\n      tag_636\n        /* \"#utility.yul\":26884:26888   */\n      dup2\n        /* \"#utility.yul\":26875:26881   */\n      dup5\n        /* \"#utility.yul\":26867:26873   */\n      dup7\n        /* \"#utility.yul\":26771:26889   */\n      tag_356\n      jump\t// in\n    tag_636:\n        /* \"#utility.yul\":26763:26889   */\n      swap1\n      pop\n        /* \"#utility.yul\":26503:26896   */\n      swap4\n      swap3\n      pop\n      pop\n      pop\n      jump\t// out\n        /* \"#utility.yul\":26902:27072   */\n    tag_362:\n        /* \"#utility.yul\":27042:27064   */\n      0x496e76616c6964206c6f636b20706572696f642e000000000000000000000000\n        /* \"#utility.yul\":27038:27039   */\n      0x00\n        /* \"#utility.yul\":27030:27036   */\n      dup3\n        /* \"#utility.yul\":27026:27040   */\n      add\n        /* \"#utility.yul\":27019:27065   */\n      mstore\n        /* \"#utility.yul\":26902:27072   */\n      pop\n      jump\t// out\n        /* \"#utility.yul\":27078:27444   */\n    tag_363:\n        /* \"#utility.yul\":27220:27223   */\n      0x00\n        /* \"#utility.yul\":27241:27308   */\n      tag_639\n        /* \"#utility.yul\":27305:27307   */\n      0x14\n        /* \"#utility.yul\":27300:27303   */\n      dup4\n        /* \"#utility.yul\":27241:27308   */\n      tag_337\n      jump\t// in\n    tag_639:\n        /* \"#utility.yul\":27234:27308   */\n      swap2\n      pop\n        /* \"#utility.yul\":27317:27410   */\n      tag_640\n        /* \"#utility.yul\":27406:27409   */\n      dup3\n        /* \"#utility.yul\":27317:27410   */\n      tag_362\n      jump\t// in\n    tag_640:\n        /* \"#utility.yul\":27435:27437   */\n      0x20\n        /* \"#utility.yul\":27430:27433   */\n      dup3\n        /* \"#utility.yul\":27426:27438   */\n      add\n        /* \"#utility.yul\":27419:27438   */\n      swap1\n      pop\n        /* \"#utility.yul\":27078:27444   */\n      swap2\n      swap1\n      pop\n      jump\t// out\n        /* \"#utility.yul\":27450:27869   */\n    tag_172:\n        /* \"#utility.yul\":27616:27620   */\n      0x00\n        /* \"#utility.yul\":27654:27656   */\n      0x20\n        /* \"#utility.yul\":27643:27652   */\n      dup3\n        /* \"#utility.yul\":27639:27657   */\n      add\n        /* \"#utility.yul\":27631:27657   */\n      swap1\n      pop\n        /* \"#utility.yul\":27703:27712   */\n      dup2\n        /* \"#utility.yul\":27697:27701   */\n      dup2\n        /* \"#utility.yul\":27693:27713   */\n      sub\n        /* \"#utility.yul\":27689:27690   */\n      0x00\n        /* \"#utility.yul\":27678:27687   */\n      dup4\n        /* \"#utility.yul\":27674:27691   */\n      add\n        /* \"#utility.yul\":27667:27714   */\n      mstore\n        /* \"#utility.yul\":27731:27862   */\n      tag_642\n        /* \"#utility.yul\":27857:27861   */\n      dup2\n        /* \"#utility.yul\":27731:27862   */\n      tag_363\n      jump\t// in\n    tag_642:\n        /* \"#utility.yul\":27723:27862   */\n      swap1\n      pop\n        /* \"#utility.yul\":27450:27869   */\n      swap2\n      swap1\n      pop\n      jump\t// out\n        /* \"#utility.yul\":27875:28047   */\n    tag_364:\n        /* \"#utility.yul\":28015:28039   */\n      0x4e6f742061626c6520746f20756e6c6f636b2079657400000000000000000000\n        /* \"#utility.yul\":28011:28012   */\n      0x00\n        /* \"#utility.yul\":28003:28009   */\n      dup3\n        /* \"#utility.yul\":27999:28013   */\n      add\n        /* \"#utility.yul\":27992:28040   */\n      mstore\n        /* \"#utility.yul\":27875:28047   */\n      pop\n      jump\t// out\n        /* \"#utility.yul\":28053:28419   */\n    tag_365:\n        /* \"#utility.yul\":28195:28198   */\n      0x00\n        /* \"#utility.yul\":28216:28283   */\n      tag_645\n        /* \"#utility.yul\":28280:28282   */\n      0x16\n        /* \"#utility.yul\":28275:28278   */\n      dup4\n        /* \"#utility.yul\":28216:28283   */\n      tag_337\n      jump\t// in\n    tag_645:\n        /* \"#utility.yul\":28209:28283   */\n      swap2\n      pop\n        /* \"#utility.yul\":28292:28385   */\n      tag_646\n        /* \"#utility.yul\":28381:28384   */\n      dup3\n        /* \"#utility.yul\":28292:28385   */\n      tag_364\n      jump\t// in\n    tag_646:\n        /* \"#utility.yul\":28410:28412   */\n      0x20\n        /* \"#utility.yul\":28405:28408   */\n      dup3\n        /* \"#utility.yul\":28401:28413   */\n      add\n        /* \"#utility.yul\":28394:28413   */\n      swap1\n      pop\n        /* \"#utility.yul\":28053:28419   */\n      swap2\n      swap1\n      pop\n      jump\t// out\n        /* \"#utility.yul\":28425:28844   */\n    tag_199:\n        /* \"#utility.yul\":28591:28595   */\n      0x00\n        /* \"#utility.yul\":28629:28631   */\n      0x20\n        /* \"#utility.yul\":28618:28627   */\n      dup3\n        /* \"#utility.yul\":28614:28632   */\n      add\n        /* \"#utility.yul\":28606:28632   */\n      swap1\n      pop\n        /* \"#utility.yul\":28678:28687   */\n      dup2\n        /* \"#utility.yul\":28672:28676   */\n      dup2\n        /* \"#utility.yul\":28668:28688   */\n      sub\n        /* \"#utility.yul\":28664:28665   */\n      0x00\n        /* \"#utility.yul\":28653:28662   */\n      dup4\n        /* \"#utility.yul\":28649:28666   */\n      add\n        /* \"#utility.yul\":28642:28689   */\n      mstore\n        /* \"#utility.yul\":28706:28837   */\n      tag_648\n        /* \"#utility.yul\":28832:28836   */\n      dup2\n        /* \"#utility.yul\":28706:28837   */\n      tag_365\n      jump\t// in\n    tag_648:\n        /* \"#utility.yul\":28698:28837   */\n      swap1\n      pop\n        /* \"#utility.yul\":28425:28844   */\n      swap2\n      swap1\n      pop\n      jump\t// out\n        /* \"#utility.yul\":28850:29019   */\n    tag_366:\n        /* \"#utility.yul\":28990:29011   */\n      0x496e76616c6964205374616b6520546f6b656e00000000000000000000000000\n        /* \"#utility.yul\":28986:28987   */\n      0x00\n        /* \"#utility.yul\":28978:28984   */\n      dup3\n        /* \"#utility.yul\":28974:28988   */\n      add\n        /* \"#utility.yul\":28967:29012   */\n      mstore\n        /* \"#utility.yul\":28850:29019   */\n      pop\n      jump\t// out\n        /* \"#utility.yul\":29025:29391   */\n    tag_367:\n        /* \"#utility.yul\":29167:29170   */\n      0x00\n        /* \"#utility.yul\":29188:29255   */\n      tag_651\n        /* \"#utility.yul\":29252:29254   */\n      0x13\n        /* \"#utility.yul\":29247:29250   */\n      dup4\n        /* \"#utility.yul\":29188:29255   */\n      tag_337\n      jump\t// in\n    tag_651:\n        /* \"#utility.yul\":29181:29255   */\n      swap2\n      pop\n        /* \"#utility.yul\":29264:29357   */\n      tag_652\n        /* \"#utility.yul\":29353:29356   */\n      dup3\n        /* \"#utility.yul\":29264:29357   */\n      tag_366\n      jump\t// in\n    tag_652:\n        /* \"#utility.yul\":29382:29384   */\n      0x20\n        /* \"#utility.yul\":29377:29380   */\n      dup3\n        /* \"#utility.yul\":29373:29385   */\n      add\n        /* \"#utility.yul\":29366:29385   */\n      swap1\n      pop\n        /* \"#utility.yul\":29025:29391   */\n      swap2\n      swap1\n      pop\n      jump\t// out\n        /* \"#utility.yul\":29397:29816   */\n    tag_233:\n        /* \"#utility.yul\":29563:29567   */\n      0x00\n        /* \"#utility.yul\":29601:29603   */\n      0x20\n        /* \"#utility.yul\":29590:29599   */\n      dup3\n        /* \"#utility.yul\":29586:29604   */\n      add\n        /* \"#utility.yul\":29578:29604   */\n      swap1\n      pop\n        /* \"#utility.yul\":29650:29659   */\n      dup2\n        /* \"#utility.yul\":29644:29648   */\n      dup2\n        /* \"#utility.yul\":29640:29660   */\n      sub\n        /* \"#utility.yul\":29636:29637   */\n      0x00\n        /* \"#utility.yul\":29625:29634   */\n      dup4\n        /* \"#utility.yul\":29621:29638   */\n      add\n        /* \"#utility.yul\":29614:29661   */\n      mstore\n        /* \"#utility.yul\":29678:29809   */\n      tag_654\n        /* \"#utility.yul\":29804:29808   */\n      dup2\n        /* \"#utility.yul\":29678:29809   */\n      tag_367\n      jump\t// in\n    tag_654:\n        /* \"#utility.yul\":29670:29809   */\n      swap1\n      pop\n        /* \"#utility.yul\":29397:29816   */\n      swap2\n      swap1\n      pop\n      jump\t// out\n        /* \"#utility.yul\":29822:29992   */\n    tag_368:\n        /* \"#utility.yul\":29962:29984   */\n      0x496e76616c69642052657761726420546f6b656e000000000000000000000000\n        /* \"#utility.yul\":29958:29959   */\n      0x00\n        /* \"#utility.yul\":29950:29956   */\n      dup3\n        /* \"#utility.yul\":29946:29960   */\n      add\n        /* \"#utility.yul\":29939:29985   */\n      mstore\n        /* \"#utility.yul\":29822:29992   */\n      pop\n      jump\t// out\n        /* \"#utility.yul\":29998:30364   */\n    tag_369:\n        /* \"#utility.yul\":30140:30143   */\n      0x00\n        /* \"#utility.yul\":30161:30228   */\n      tag_657\n        /* \"#utility.yul\":30225:30227   */\n      0x14\n        /* \"#utility.yul\":30220:30223   */\n      dup4\n        /* \"#utility.yul\":30161:30228   */\n      tag_337\n      jump\t// in\n    tag_657:\n        /* \"#utility.yul\":30154:30228   */\n      swap2\n      pop\n        /* \"#utility.yul\":30237:30330   */\n      tag_658\n        /* \"#utility.yul\":30326:30329   */\n      dup3\n        /* \"#utility.yul\":30237:30330   */\n      tag_368\n      jump\t// in\n    tag_658:\n        /* \"#utility.yul\":30355:30357   */\n      0x20\n        /* \"#utility.yul\":30350:30353   */\n      dup3\n        /* \"#utility.yul\":30346:30358   */\n      add\n        /* \"#utility.yul\":30339:30358   */\n      swap1\n      pop\n        /* \"#utility.yul\":29998:30364   */\n      swap2\n      swap1\n      pop\n      jump\t// out\n        /* \"#utility.yul\":30370:30789   */\n    tag_238:\n        /* \"#utility.yul\":30536:30540   */\n      0x00\n        /* \"#utility.yul\":30574:30576   */\n      0x20\n        /* \"#utility.yul\":30563:30572   */\n      dup3\n        /* \"#utility.yul\":30559:30577   */\n      add\n        /* \"#utility.yul\":30551:30577   */\n      swap1\n      pop\n        /* \"#utility.yul\":30623:30632   */\n      dup2\n        /* \"#utility.yul\":30617:30621   */\n      dup2\n        /* \"#utility.yul\":30613:30633   */\n      sub\n        /* \"#utility.yul\":30609:30610   */\n      0x00\n        /* \"#utility.yul\":30598:30607   */\n      dup4\n        /* \"#utility.yul\":30594:30611   */\n      add\n        /* \"#utility.yul\":30587:30634   */\n      mstore\n        /* \"#utility.yul\":30651:30782   */\n      tag_660\n        /* \"#utility.yul\":30777:30781   */\n      dup2\n        /* \"#utility.yul\":30651:30782   */\n      tag_369\n      jump\t// in\n    tag_660:\n        /* \"#utility.yul\":30643:30782   */\n      swap1\n      pop\n        /* \"#utility.yul\":30370:30789   */\n      swap2\n      swap1\n      pop\n      jump\t// out\n        /* \"#utility.yul\":30795:30889   */\n    tag_370:\n        /* \"#utility.yul\":30849:30856   */\n      0x00\n        /* \"#utility.yul\":30878:30883   */\n      dup2\n        /* \"#utility.yul\":30867:30883   */\n      swap1\n      pop\n        /* \"#utility.yul\":30795:30889   */\n      swap2\n      swap1\n      pop\n      jump\t// out\n        /* \"#utility.yul\":30895:31044   */\n    tag_371:\n        /* \"#utility.yul\":30931:30938   */\n      0x00\n        /* \"#utility.yul\":30971:31037   */\n      0xffffffff00000000000000000000000000000000000000000000000000000000\n        /* \"#utility.yul\":30964:30969   */\n      dup3\n        /* \"#utility.yul\":30960:31038   */\n      and\n        /* \"#utility.yul\":30949:31038   */\n      swap1\n      pop\n        /* \"#utility.yul\":30895:31044   */\n      swap2\n      swap1\n      pop\n      jump\t// out\n        /* \"#utility.yul\":31050:31146   */\n    tag_372:\n        /* \"#utility.yul\":31084:31092   */\n      0x00\n        /* \"#utility.yul\":31133:31138   */\n      dup2\n        /* \"#utility.yul\":31128:31131   */\n      0xe0\n        /* \"#utility.yul\":31124:31139   */\n      shl\n        /* \"#utility.yul\":31103:31139   */\n      swap1\n      pop\n        /* \"#utility.yul\":31050:31146   */\n      swap2\n      swap1\n      pop\n      jump\t// out\n        /* \"#utility.yul\":31152:31332   */\n    tag_373:\n        /* \"#utility.yul\":31218:31227   */\n      0x00\n        /* \"#utility.yul\":31251:31326   */\n      tag_665\n        /* \"#utility.yul\":31268:31325   */\n      tag_666\n        /* \"#utility.yul\":31283:31324   */\n      tag_667\n        /* \"#utility.yul\":31318:31323   */\n      dup5\n        /* \"#utility.yul\":31283:31324   */\n      tag_370\n      jump\t// in\n    tag_667:\n        /* \"#utility.yul\":31268:31325   */\n      tag_372\n      jump\t// in\n    tag_666:\n        /* \"#utility.yul\":31251:31326   */\n      tag_371\n      jump\t// in\n    tag_665:\n        /* \"#utility.yul\":31238:31326   */\n      swap1\n      pop\n        /* \"#utility.yul\":31152:31332   */\n      swap2\n      swap1\n      pop\n      jump\t// out\n        /* \"#utility.yul\":31338:31501   */\n    tag_374:\n        /* \"#utility.yul\":31441:31494   */\n      tag_669\n        /* \"#utility.yul\":31488:31493   */\n      dup2\n        /* \"#utility.yul\":31441:31494   */\n      tag_373\n      jump\t// in\n    tag_669:\n        /* \"#utility.yul\":31436:31439   */\n      dup3\n        /* \"#utility.yul\":31429:31495   */\n      mstore\n        /* \"#utility.yul\":31338:31501   */\n      pop\n      pop\n      jump\t// out\n        /* \"#utility.yul\":31507:31761   */\n    tag_242:\n        /* \"#utility.yul\":31616:31620   */\n      0x00\n        /* \"#utility.yul\":31654:31656   */\n      0x20\n        /* \"#utility.yul\":31643:31652   */\n      dup3\n        /* \"#utility.yul\":31639:31657   */\n      add\n        /* \"#utility.yul\":31631:31657   */\n      swap1\n      pop\n        /* \"#utility.yul\":31667:31754   */\n      tag_671\n        /* \"#utility.yul\":31751:31752   */\n      0x00\n        /* \"#utility.yul\":31740:31749   */\n      dup4\n        /* \"#utility.yul\":31736:31753   */\n      add\n        /* \"#utility.yul\":31727:31733   */\n      dup5\n        /* \"#utility.yul\":31667:31754   */\n      tag_374\n      jump\t// in\n    tag_671:\n        /* \"#utility.yul\":31507:31761   */\n      swap3\n      swap2\n      pop\n      pop\n      jump\t// out\n        /* \"#utility.yul\":31767:31883   */\n    tag_375:\n        /* \"#utility.yul\":31837:31858   */\n      tag_673\n        /* \"#utility.yul\":31852:31857   */\n      dup2\n        /* \"#utility.yul\":31837:31858   */\n      tag_316\n      jump\t// in\n    tag_673:\n        /* \"#utility.yul\":31830:31835   */\n      dup2\n        /* \"#utility.yul\":31827:31859   */\n      eq\n        /* \"#utility.yul\":31817:31877   */\n      tag_674\n      jumpi\n        /* \"#utility.yul\":31873:31874   */\n      0x00\n        /* \"#utility.yul\":31870:31871   */\n      dup1\n        /* \"#utility.yul\":31863:31875   */\n      revert\n        /* \"#utility.yul\":31817:31877   */\n    tag_674:\n        /* \"#utility.yul\":31767:31883   */\n      pop\n      jump\t// out\n        /* \"#utility.yul\":31889:32026   */\n    tag_376:\n        /* \"#utility.yul\":31943:31948   */\n      0x00\n        /* \"#utility.yul\":31974:31980   */\n      dup2\n        /* \"#utility.yul\":31968:31981   */\n      mload\n        /* \"#utility.yul\":31959:31981   */\n      swap1\n      pop\n        /* \"#utility.yul\":31990:32020   */\n      tag_676\n        /* \"#utility.yul\":32014:32019   */\n      dup2\n        /* \"#utility.yul\":31990:32020   */\n      tag_375\n      jump\t// in\n    tag_676:\n        /* \"#utility.yul\":31889:32026   */\n      swap3\n      swap2\n      pop\n      pop\n      jump\t// out\n        /* \"#utility.yul\":32032:32377   */\n    tag_246:\n        /* \"#utility.yul\":32099:32105   */\n      0x00\n        /* \"#utility.yul\":32148:32150   */\n      0x20\n        /* \"#utility.yul\":32136:32145   */\n      dup3\n        /* \"#utility.yul\":32127:32134   */\n      dup5\n        /* \"#utility.yul\":32123:32146   */\n      sub\n        /* \"#utility.yul\":32119:32151   */\n      slt\n        /* \"#utility.yul\":32116:32235   */\n      iszero\n      tag_678\n      jumpi\n        /* \"#utility.yul\":32154:32233   */\n      tag_679\n      tag_300\n      jump\t// in\n    tag_679:\n        /* \"#utility.yul\":32116:32235   */\n    tag_678:\n        /* \"#utility.yul\":32274:32275   */\n      0x00\n        /* \"#utility.yul\":32299:32360   */\n      tag_680\n        /* \"#utility.yul\":32352:32359   */\n      dup5\n        /* \"#utility.yul\":32343:32349   */\n      dup3\n        /* \"#utility.yul\":32332:32341   */\n      dup6\n        /* \"#utility.yul\":32328:32350   */\n      add\n        /* \"#utility.yul\":32299:32360   */\n      tag_376\n      jump\t// in\n    tag_680:\n        /* \"#utility.yul\":32289:32360   */\n      swap2\n      pop\n        /* \"#utility.yul\":32245:32370   */\n      pop\n        /* \"#utility.yul\":32032:32377   */\n      swap3\n      swap2\n      pop\n      pop\n      jump\t// out\n        /* \"#utility.yul\":32383:32543   */\n    tag_377:\n        /* \"#utility.yul\":32523:32535   */\n      0x4e6f6e2d65726337323100000000000000000000000000000000000000000000\n        /* \"#utility.yul\":32519:32520   */\n      0x00\n        /* \"#utility.yul\":32511:32517   */\n      dup3\n        /* \"#utility.yul\":32507:32521   */\n      add\n        /* \"#utility.yul\":32500:32536   */\n      mstore\n        /* \"#utility.yul\":32383:32543   */\n      pop\n      jump\t// out\n        /* \"#utility.yul\":32549:32915   */\n    tag_378:\n        /* \"#utility.yul\":32691:32694   */\n      0x00\n        /* \"#utility.yul\":32712:32779   */\n      tag_683\n        /* \"#utility.yul\":32776:32778   */\n      0x0a\n        /* \"#utility.yul\":32771:32774   */\n      dup4\n        /* \"#utility.yul\":32712:32779   */\n      tag_337\n      jump\t// in\n    tag_683:\n        /* \"#utility.yul\":32705:32779   */\n      swap2\n      pop\n        /* \"#utility.yul\":32788:32881   */\n      tag_684\n        /* \"#utility.yul\":32877:32880   */\n      dup3\n        /* \"#utility.yul\":32788:32881   */\n      tag_377\n      jump\t// in\n    tag_684:\n        /* \"#utility.yul\":32906:32908   */\n      0x20\n        /* \"#utility.yul\":32901:32904   */\n      dup3\n        /* \"#utility.yul\":32897:32909   */\n      add\n        /* \"#utility.yul\":32890:32909   */\n      swap1\n      pop\n        /* \"#utility.yul\":32549:32915   */\n      swap2\n      swap1\n      pop\n      jump\t// out\n        /* \"#utility.yul\":32921:33340   */\n    tag_249:\n        /* \"#utility.yul\":33087:33091   */\n      0x00\n        /* \"#utility.yul\":33125:33127   */\n      0x20\n        /* \"#utility.yul\":33114:33123   */\n      dup3\n        /* \"#utility.yul\":33110:33128   */\n      add\n        /* \"#utility.yul\":33102:33128   */\n      swap1\n      pop\n        /* \"#utility.yul\":33174:33183   */\n      dup2\n        /* \"#utility.yul\":33168:33172   */\n      dup2\n        /* \"#utility.yul\":33164:33184   */\n      sub\n        /* \"#utility.yul\":33160:33161   */\n      0x00\n        /* \"#utility.yul\":33149:33158   */\n      dup4\n        /* \"#utility.yul\":33145:33162   */\n      add\n        /* \"#utility.yul\":33138:33185   */\n      mstore\n        /* \"#utility.yul\":33202:33333   */\n      tag_686\n        /* \"#utility.yul\":33328:33332   */\n      dup2\n        /* \"#utility.yul\":33202:33333   */\n      tag_378\n      jump\t// in\n    tag_686:\n        /* \"#utility.yul\":33194:33333   */\n      swap1\n      pop\n        /* \"#utility.yul\":32921:33340   */\n      swap2\n      swap1\n      pop\n      jump\t// out\n        /* \"#utility.yul\":33346:33899   */\n    tag_271:\n        /* \"#utility.yul\":33523:33527   */\n      0x00\n        /* \"#utility.yul\":33561:33564   */\n      0x80\n        /* \"#utility.yul\":33550:33559   */\n      dup3\n        /* \"#utility.yul\":33546:33565   */\n      add\n        /* \"#utility.yul\":33538:33565   */\n      swap1\n      pop\n        /* \"#utility.yul\":33575:33646   */\n      tag_688\n        /* \"#utility.yul\":33643:33644   */\n      0x00\n        /* \"#utility.yul\":33632:33641   */\n      dup4\n        /* \"#utility.yul\":33628:33645   */\n      add\n        /* \"#utility.yul\":33619:33625   */\n      dup8\n        /* \"#utility.yul\":33575:33646   */\n      tag_315\n      jump\t// in\n    tag_688:\n        /* \"#utility.yul\":33656:33728   */\n      tag_689\n        /* \"#utility.yul\":33724:33726   */\n      0x20\n        /* \"#utility.yul\":33713:33722   */\n      dup4\n        /* \"#utility.yul\":33709:33727   */\n      add\n        /* \"#utility.yul\":33700:33706   */\n      dup7\n        /* \"#utility.yul\":33656:33728   */\n      tag_315\n      jump\t// in\n    tag_689:\n        /* \"#utility.yul\":33738:33810   */\n      tag_690\n        /* \"#utility.yul\":33806:33808   */\n      0x40\n        /* \"#utility.yul\":33795:33804   */\n      dup4\n        /* \"#utility.yul\":33791:33809   */\n      add\n        /* \"#utility.yul\":33782:33788   */\n      dup6\n        /* \"#utility.yul\":33738:33810   */\n      tag_312\n      jump\t// in\n    tag_690:\n        /* \"#utility.yul\":33820:33892   */\n      tag_691\n        /* \"#utility.yul\":33888:33890   */\n      0x60\n        /* \"#utility.yul\":33877:33886   */\n      dup4\n        /* \"#utility.yul\":33873:33891   */\n      add\n        /* \"#utility.yul\":33864:33870   */\n      dup5\n        /* \"#utility.yul\":33820:33892   */\n      tag_312\n      jump\t// in\n    tag_691:\n        /* \"#utility.yul\":33346:33899   */\n      swap6\n      swap5\n      pop\n      pop\n      pop\n      pop\n      pop\n      jump\t// out\n        /* \"#utility.yul\":33905:34130   */\n    tag_379:\n        /* \"#utility.yul\":34045:34079   */\n      0x4f776e61626c653a206e6577206f776e657220697320746865207a65726f2061\n        /* \"#utility.yul\":34041:34042   */\n      0x00\n        /* \"#utility.yul\":34033:34039   */\n      dup3\n        /* \"#utility.yul\":34029:34043   */\n      add\n        /* \"#utility.yul\":34022:34080   */\n      mstore\n        /* \"#utility.yul\":34114:34122   */\n      0x6464726573730000000000000000000000000000000000000000000000000000\n        /* \"#utility.yul\":34109:34111   */\n      0x20\n        /* \"#utility.yul\":34101:34107   */\n      dup3\n        /* \"#utility.yul\":34097:34112   */\n      add\n        /* \"#utility.yul\":34090:34123   */\n      mstore\n        /* \"#utility.yul\":33905:34130   */\n      pop\n      jump\t// out\n        /* \"#utility.yul\":34136:34502   */\n    tag_380:\n        /* \"#utility.yul\":34278:34281   */\n      0x00\n        /* \"#utility.yul\":34299:34366   */\n      tag_694\n        /* \"#utility.yul\":34363:34365   */\n      0x26\n        /* \"#utility.yul\":34358:34361   */\n      dup4\n        /* \"#utility.yul\":34299:34366   */\n      tag_337\n      jump\t// in\n    tag_694:\n        /* \"#utility.yul\":34292:34366   */\n      swap2\n      pop\n        /* \"#utility.yul\":34375:34468   */\n      tag_695\n        /* \"#utility.yul\":34464:34467   */\n      dup3\n        /* \"#utility.yul\":34375:34468   */\n      tag_379\n      jump\t// in\n    tag_695:\n        /* \"#utility.yul\":34493:34495   */\n      0x40\n        /* \"#utility.yul\":34488:34491   */\n      dup3\n        /* \"#utility.yul\":34484:34496   */\n      add\n        /* \"#utility.yul\":34477:34496   */\n      swap1\n      pop\n        /* \"#utility.yul\":34136:34502   */\n      swap2\n      swap1\n      pop\n      jump\t// out\n        /* \"#utility.yul\":34508:34927   */\n    tag_278:\n        /* \"#utility.yul\":34674:34678   */\n      0x00\n        /* \"#utility.yul\":34712:34714   */\n      0x20\n        /* \"#utility.yul\":34701:34710   */\n      dup3\n        /* \"#utility.yul\":34697:34715   */\n      add\n        /* \"#utility.yul\":34689:34715   */\n      swap1\n      pop\n        /* \"#utility.yul\":34761:34770   */\n      dup2\n        /* \"#utility.yul\":34755:34759   */\n      dup2\n        /* \"#utility.yul\":34751:34771   */\n      sub\n        /* \"#utility.yul\":34747:34748   */\n      0x00\n        /* \"#utility.yul\":34736:34745   */\n      dup4\n        /* \"#utility.yul\":34732:34749   */\n      add\n        /* \"#utility.yul\":34725:34772   */\n      mstore\n        /* \"#utility.yul\":34789:34920   */\n      tag_697\n        /* \"#utility.yul\":34915:34919   */\n      dup2\n        /* \"#utility.yul\":34789:34920   */\n      tag_380\n      jump\t// in\n    tag_697:\n        /* \"#utility.yul\":34781:34920   */\n      swap1\n      pop\n        /* \"#utility.yul\":34508:34927   */\n      swap2\n      swap1\n      pop\n      jump\t// out\n        /* \"#utility.yul\":34933:35281   */\n    tag_287:\n        /* \"#utility.yul\":34973:34980   */\n      0x00\n        /* \"#utility.yul\":34996:35016   */\n      tag_699\n        /* \"#utility.yul\":35014:35015   */\n      dup3\n        /* \"#utility.yul\":34996:35016   */\n      tag_311\n      jump\t// in\n    tag_699:\n        /* \"#utility.yul\":34991:35016   */\n      swap2\n      pop\n        /* \"#utility.yul\":35030:35050   */\n      tag_700\n        /* \"#utility.yul\":35048:35049   */\n      dup4\n        /* \"#utility.yul\":35030:35050   */\n      tag_311\n      jump\t// in\n    tag_700:\n        /* \"#utility.yul\":35025:35050   */\n      swap3\n      pop\n        /* \"#utility.yul\":35218:35219   */\n      dup2\n        /* \"#utility.yul\":35150:35216   */\n      0xffffffffffffffffffffffffffffffffffffffffffffffffffffffffffffffff\n        /* \"#utility.yul\":35146:35220   */\n      div\n        /* \"#utility.yul\":35143:35144   */\n      dup4\n        /* \"#utility.yul\":35140:35221   */\n      gt\n        /* \"#utility.yul\":35135:35136   */\n      dup3\n        /* \"#utility.yul\":35128:35137   */\n      iszero\n        /* \"#utility.yul\":35121:35138   */\n      iszero\n        /* \"#utility.yul\":35117:35222   */\n      and\n        /* \"#utility.yul\":35114:35245   */\n      iszero\n      tag_701\n      jumpi\n        /* \"#utility.yul\":35225:35243   */\n      tag_702\n      tag_348\n      jump\t// in\n    tag_702:\n        /* \"#utility.yul\":35114:35245   */\n    tag_701:\n        /* \"#utility.yul\":35273:35274   */\n      dup3\n        /* \"#utility.yul\":35270:35271   */\n      dup3\n        /* \"#utility.yul\":35266:35275   */\n      mul\n        /* \"#utility.yul\":35255:35275   */\n      swap1\n      pop\n        /* \"#utility.yul\":34933:35281   */\n      swap3\n      swap2\n      pop\n      pop\n      jump\t// out\n        /* \"#utility.yul\":35287:35467   */\n    tag_381:\n        /* \"#utility.yul\":35335:35412   */\n      0x4e487b7100000000000000000000000000000000000000000000000000000000\n        /* \"#utility.yul\":35332:35333   */\n      0x00\n        /* \"#utility.yul\":35325:35413   */\n      mstore\n        /* \"#utility.yul\":35432:35436   */\n      0x12\n        /* \"#utility.yul\":35429:35430   */\n      0x04\n        /* \"#utility.yul\":35422:35437   */\n      mstore\n        /* \"#utility.yul\":35456:35460   */\n      0x24\n        /* \"#utility.yul\":35453:35454   */\n      0x00\n        /* \"#utility.yul\":35446:35461   */\n      revert\n        /* \"#utility.yul\":35473:35658   */\n    tag_289:\n        /* \"#utility.yul\":35513:35514   */\n      0x00\n        /* \"#utility.yul\":35530:35550   */\n      tag_705\n        /* \"#utility.yul\":35548:35549   */\n      dup3\n        /* \"#utility.yul\":35530:35550   */\n      tag_311\n      jump\t// in\n    tag_705:\n        /* \"#utility.yul\":35525:35550   */\n      swap2\n      pop\n        /* \"#utility.yul\":35564:35584   */\n      tag_706\n        /* \"#utility.yul\":35582:35583   */\n      dup4\n        /* \"#utility.yul\":35564:35584   */\n      tag_311\n      jump\t// in\n    tag_706:\n        /* \"#utility.yul\":35559:35584   */\n      swap3\n      pop\n        /* \"#utility.yul\":35603:35604   */\n      dup3\n        /* \"#utility.yul\":35593:35628   */\n      tag_707\n      jumpi\n        /* \"#utility.yul\":35608:35626   */\n      tag_708\n      tag_381\n      jump\t// in\n    tag_708:\n        /* \"#utility.yul\":35593:35628   */\n    tag_707:\n        /* \"#utility.yul\":35650:35651   */\n      dup3\n        /* \"#utility.yul\":35647:35648   */\n      dup3\n        /* \"#utility.yul\":35643:35652   */\n      div\n        /* \"#utility.yul\":35638:35652   */\n      swap1\n      pop\n        /* \"#utility.yul\":35473:35658   */\n      swap3\n      swap2\n      pop\n      pop\n      jump\t// out\n        /* \"#utility.yul\":35664:35846   */\n    tag_382:\n        /* \"#utility.yul\":35804:35838   */\n      0x4f776e61626c653a2063616c6c6572206973206e6f7420746865206f776e6572\n        /* \"#utility.yul\":35800:35801   */\n      0x00\n        /* \"#utility.yul\":35792:35798   */\n      dup3\n        /* \"#utility.yul\":35788:35802   */\n      add\n        /* \"#utility.yul\":35781:35839   */\n      mstore\n        /* \"#utility.yul\":35664:35846   */\n      pop\n      jump\t// out\n        /* \"#utility.yul\":35852:36218   */\n    tag_383:\n        /* \"#utility.yul\":35994:35997   */\n      0x00\n        /* \"#utility.yul\":36015:36082   */\n      tag_711\n        /* \"#utility.yul\":36079:36081   */\n      0x20\n        /* \"#utility.yul\":36074:36077   */\n      dup4\n        /* \"#utility.yul\":36015:36082   */\n      tag_337\n      jump\t// in\n    tag_711:\n        /* \"#utility.yul\":36008:36082   */\n      swap2\n      pop\n        /* \"#utility.yul\":36091:36184   */\n      tag_712\n        /* \"#utility.yul\":36180:36183   */\n      dup3\n        /* \"#utility.yul\":36091:36184   */\n      tag_382\n      jump\t// in\n    tag_712:\n        /* \"#utility.yul\":36209:36211   */\n      0x20\n        /* \"#utility.yul\":36204:36207   */\n      dup3\n        /* \"#utility.yul\":36200:36212   */\n      add\n        /* \"#utility.yul\":36193:36212   */\n      swap1\n      pop\n        /* \"#utility.yul\":35852:36218   */\n      swap2\n      swap1\n      pop\n      jump\t// out\n        /* \"#utility.yul\":36224:36643   */\n    tag_296:\n        /* \"#utility.yul\":36390:36394   */\n      0x00\n        /* \"#utility.yul\":36428:36430   */\n      0x20\n        /* \"#utility.yul\":36417:36426   */\n      dup3\n        /* \"#utility.yul\":36413:36431   */\n      add\n        /* \"#utility.yul\":36405:36431   */\n      swap1\n      pop\n        /* \"#utility.yul\":36477:36486   */\n      dup2\n        /* \"#utility.yul\":36471:36475   */\n      dup2\n        /* \"#utility.yul\":36467:36487   */\n      sub\n        /* \"#utility.yul\":36463:36464   */\n      0x00\n        /* \"#utility.yul\":36452:36461   */\n      dup4\n        /* \"#utility.yul\":36448:36465   */\n      add\n        /* \"#utility.yul\":36441:36488   */\n      mstore\n        /* \"#utility.yul\":36505:36636   */\n      tag_714\n        /* \"#utility.yul\":36631:36635   */\n      dup2\n        /* \"#utility.yul\":36505:36636   */\n      tag_383\n      jump\t// in\n    tag_714:\n        /* \"#utility.yul\":36497:36636   */\n      swap1\n      pop\n        /* \"#utility.yul\":36224:36643   */\n      swap2\n      swap1\n      pop\n      jump\t// out\n\n    auxdata: 0xa2646970667358221220801933a3ec0a862f53234ad04cd673f3032bbc5465ed893c291b6ce9feb3ea8164736f6c63430008100033\n}\n",
				"bytecode": {
					"linkReferences": {},
					"object": "60806040523480156200001157600080fd5b50604051620035c6380380620035c68339818101604052810190620000379190620001c6565b620000576200004b620000ba60201b60201c565b620000c260201b60201c565b6001808190555060008211620000a4576040517f08c379a00000000000000000000000000000000000000000000000000000000081526004016200009b906200026e565b60405180910390fd5b8160028190555080600581905550505062000290565b600033905090565b60008060009054906101000a900473ffffffffffffffffffffffffffffffffffffffff169050816000806101000a81548173ffffffffffffffffffffffffffffffffffffffff021916908373ffffffffffffffffffffffffffffffffffffffff1602179055508173ffffffffffffffffffffffffffffffffffffffff168173ffffffffffffffffffffffffffffffffffffffff167f8be0079c531659141344cd1fd0a4f28419497f9722a3daafe3b4186f6b6457e060405160405180910390a35050565b600080fd5b6000819050919050565b620001a0816200018b565b8114620001ac57600080fd5b50565b600081519050620001c08162000195565b92915050565b60008060408385031215620001e057620001df62000186565b5b6000620001f085828601620001af565b92505060206200020385828601620001af565b9150509250929050565b600082825260208201905092915050565b7f496e76616c6964206c6f636b20706572696f6400000000000000000000000000600082015250565b6000620002566013836200020d565b915062000263826200021e565b602082019050919050565b60006020820190508181036000830152620002898162000247565b9050919050565b61332680620002a06000396000f3fe608060405234801561001057600080fd5b50600436106100cf5760003560e01c80639f3625f01161008c578063c69d192311610066578063c69d1923146101ee578063e9545b921461020c578063eee00ed01461023e578063f2fde38b1461025a576100cf565b80639f3625f01461016e578063b2520a7c1461018a578063b33068c4146101be576100cf565b80630520537f146100d45780631902732e146100f05780633fd8b02f1461010c578063715018a61461012a578063779972da146101345780638da5cb5b14610150575b600080fd5b6100ee60048036038101906100e99190612140565b610276565b005b61010a60048036038101906101059190612140565b6108c2565b005b610114610e7e565b60405161012191906121b9565b60405180910390f35b610132610e84565b005b61014e60048036038101906101499190612200565b610e98565b005b610158610f24565b604051610165919061223c565b60405180910390f35b61018860048036038101906101839190612140565b610f4d565b005b6101a4600480360381019061019f9190612257565b6116e4565b6040516101b5959493929190612311565b60405180910390f35b6101d860048036038101906101d39190612364565b611774565b6040516101e591906121b9565b60405180910390f35b6101f66117d2565b60405161020391906121b9565b60405180910390f35b610226600480360381019061022191906123a4565b6117d8565b604051610235939291906123f2565b60405180910390f35b61025860048036038101906102539190612667565b611822565b005b610274600480360381019061026f919061273e565b611c89565b005b6102953373ffffffffffffffffffffffffffffffffffffffff16611d0c565b156102d5576040517f08c379a00000000000000000000000000000000000000000000000000000000081526004016102cc906127c8565b60405180910390fd5b3273ffffffffffffffffffffffffffffffffffffffff163373ffffffffffffffffffffffffffffffffffffffff1614610343576040517f08c379a000000000000000000000000000000000000000000000000000000000815260040161033a90612834565b60405180910390fd5b600073ffffffffffffffffffffffffffffffffffffffff16600460008373ffffffffffffffffffffffffffffffffffffffff1673ffffffffffffffffffffffffffffffffffffffff16815260200190815260200160002060000160009054906101000a900473ffffffffffffffffffffffffffffffffffffffff1673ffffffffffffffffffffffffffffffffffffffff1603610414576040517f08c379a000000000000000000000000000000000000000000000000000000000815260040161040b906128c6565b60405180910390fd5b6000838390501161045a576040517f08c379a000000000000000000000000000000000000000000000000000000000815260040161045190612932565b60405180910390fd5b600080600090505b84849050811015610869576000600360008573ffffffffffffffffffffffffffffffffffffffff1673ffffffffffffffffffffffffffffffffffffffff16815260200190815260200160002060008787858181106104c3576104c2612952565b5b9050602002013581526020019081526020016000206040518060a00160405290816000820160009054906101000a900473ffffffffffffffffffffffffffffffffffffffff1673ffffffffffffffffffffffffffffffffffffffff1673ffffffffffffffffffffffffffffffffffffffff16815260200160018201548152602001600282015481526020016003820160009054906101000a900460ff161515151581526020016003820160019054906101000a900473ffffffffffffffffffffffffffffffffffffffff1673ffffffffffffffffffffffffffffffffffffffff1673ffffffffffffffffffffffffffffffffffffffff168152505090503373ffffffffffffffffffffffffffffffffffffffff16816000015173ffffffffffffffffffffffffffffffffffffffff1614610632576040517f08c379a0000000000000000000000000000000000000000000000000000000008152600401610629906129cd565b60405180910390fd5b4260025482602001516106459190612a1c565b10610685576040517f08c379a000000000000000000000000000000000000000000000000000000000815260040161067c90612a9c565b60405180910390fd5b8060600151156106ca576040517f08c379a00000000000000000000000000000000000000000000000000000000081526004016106c190612b08565b60405180910390fd5b60006106ef8787858181106106e2576106e1612952565b5b9050602002013586611d2f565b905060008260400151826107039190612b28565b9050600460008773ffffffffffffffffffffffffffffffffffffffff1673ffffffffffffffffffffffffffffffffffffffff16815260200190815260200160002060000160009054906101000a900473ffffffffffffffffffffffffffffffffffffffff1673ffffffffffffffffffffffffffffffffffffffff166340c10f1933836040518363ffffffff1660e01b81526004016107a2929190612b5c565b600060405180830381600087803b1580156107bc57600080fd5b505af11580156107d0573d6000803e3d6000fd5b5050505080856107e09190612a1c565b945081600360008873ffffffffffffffffffffffffffffffffffffffff1673ffffffffffffffffffffffffffffffffffffffff16815260200190815260200160002060008a8a8881811061083757610836612952565b5b90506020020135815260200190815260200160002060020181905550505050808061086190612b85565b915050610462565b503373ffffffffffffffffffffffffffffffffffffffff167f37826be3c26dbad83731f4b985f22fa9ef86b6d1974cd77208332b7f1f283c0c8585846040516108b493929190612c48565b60405180910390a250505050565b6108e13373ffffffffffffffffffffffffffffffffffffffff16611d0c565b15610921576040517f08c379a0000000000000000000000000000000000000000000000000000000008152600401610918906127c8565b60405180910390fd5b3273ffffffffffffffffffffffffffffffffffffffff163373ffffffffffffffffffffffffffffffffffffffff161461098f576040517f08c379a000000000000000000000000000000000000000000000000000000000815260040161098690612834565b60405180910390fd5b6002600154036109d4576040517f08c379a00000000000000000000000000000000000000000000000000000000081526004016109cb90612cc6565b60405180910390fd5b6002600181905550600073ffffffffffffffffffffffffffffffffffffffff16600460008373ffffffffffffffffffffffffffffffffffffffff1673ffffffffffffffffffffffffffffffffffffffff16815260200190815260200160002060000160009054906101000a900473ffffffffffffffffffffffffffffffffffffffff1673ffffffffffffffffffffffffffffffffffffffff1603610aad576040517f08c379a0000000000000000000000000000000000000000000000000000000008152600401610aa4906128c6565b60405180910390fd5b60008383905011610af3576040517f08c379a0000000000000000000000000000000000000000000000000000000008152600401610aea90612932565b60405180910390fd5b60005b83839050811015610e21573373ffffffffffffffffffffffffffffffffffffffff168273ffffffffffffffffffffffffffffffffffffffff16636352211e868685818110610b4757610b46612952565b5b905060200201356040518263ffffffff1660e01b8152600401610b6a91906121b9565b602060405180830381865afa158015610b87573d6000803e3d6000fd5b505050506040513d601f19601f82011682018060405250810190610bab9190612cfb565b73ffffffffffffffffffffffffffffffffffffffff1614610c01576040517f08c379a0000000000000000000000000000000000000000000000000000000008152600401610bf890612d74565b60405180910390fd5b8173ffffffffffffffffffffffffffffffffffffffff166323b872dd3330878786818110610c3257610c31612952565b5b905060200201356040518463ffffffff1660e01b8152600401610c5793929190612d94565b600060405180830381600087803b158015610c7157600080fd5b505af1158015610c85573d6000803e3d6000fd5b505050506040518060a001604052803373ffffffffffffffffffffffffffffffffffffffff168152602001428152602001600081526020016000151581526020018373ffffffffffffffffffffffffffffffffffffffff16815250600360008473ffffffffffffffffffffffffffffffffffffffff1673ffffffffffffffffffffffffffffffffffffffff1681526020019081526020016000206000868685818110610d3457610d33612952565b5b90506020020135815260200190815260200160002060008201518160000160006101000a81548173ffffffffffffffffffffffffffffffffffffffff021916908373ffffffffffffffffffffffffffffffffffffffff160217905550602082015181600101556040820151816002015560608201518160030160006101000a81548160ff02191690831515021790555060808201518160030160016101000a81548173ffffffffffffffffffffffffffffffffffffffff021916908373ffffffffffffffffffffffffffffffffffffffff1602179055509050508080610e1990612b85565b915050610af6565b503373ffffffffffffffffffffffffffffffffffffffff167f458be0227bccc9e803dec79bd16767eeaf9925d2ce708eeed7ae1f3621f968f98484604051610e6a929190612dcb565b60405180910390a260018081905550505050565b60025481565b610e8c611f0d565b610e966000611f8b565b565b610ea0611f0d565b60008111610ee3576040517f08c379a0000000000000000000000000000000000000000000000000000000008152600401610eda90612e3b565b60405180910390fd5b806002819055507f8249ec545e68f6f1e1230133ca48c704d831a7f8e635ded80f3dd9e99b09bb2f81604051610f1991906121b9565b60405180910390a150565b60008060009054906101000a900473ffffffffffffffffffffffffffffffffffffffff16905090565b610f6c3373ffffffffffffffffffffffffffffffffffffffff16611d0c565b15610fac576040517f08c379a0000000000000000000000000000000000000000000000000000000008152600401610fa3906127c8565b60405180910390fd5b3273ffffffffffffffffffffffffffffffffffffffff163373ffffffffffffffffffffffffffffffffffffffff161461101a576040517f08c379a000000000000000000000000000000000000000000000000000000000815260040161101190612834565b60405180910390fd5b60026001540361105f576040517f08c379a000000000000000000000000000000000000000000000000000000000815260040161105690612cc6565b60405180910390fd5b6002600181905550600073ffffffffffffffffffffffffffffffffffffffff16600460008373ffffffffffffffffffffffffffffffffffffffff1673ffffffffffffffffffffffffffffffffffffffff16815260200190815260200160002060000160009054906101000a900473ffffffffffffffffffffffffffffffffffffffff1673ffffffffffffffffffffffffffffffffffffffff1603611138576040517f08c379a000000000000000000000000000000000000000000000000000000000815260040161112f906128c6565b60405180910390fd5b6000838390501161117e576040517f08c379a000000000000000000000000000000000000000000000000000000000815260040161117590612932565b60405180910390fd5b60005b83839050811015611687576000600360008473ffffffffffffffffffffffffffffffffffffffff1673ffffffffffffffffffffffffffffffffffffffff16815260200190815260200160002060008686858181106111e2576111e1612952565b5b9050602002013581526020019081526020016000206040518060a00160405290816000820160009054906101000a900473ffffffffffffffffffffffffffffffffffffffff1673ffffffffffffffffffffffffffffffffffffffff1673ffffffffffffffffffffffffffffffffffffffff16815260200160018201548152602001600282015481526020016003820160009054906101000a900460ff161515151581526020016003820160019054906101000a900473ffffffffffffffffffffffffffffffffffffffff1673ffffffffffffffffffffffffffffffffffffffff1673ffffffffffffffffffffffffffffffffffffffff168152505090503373ffffffffffffffffffffffffffffffffffffffff16816000015173ffffffffffffffffffffffffffffffffffffffff1614611351576040517f08c379a0000000000000000000000000000000000000000000000000000000008152600401611348906129cd565b60405180910390fd5b4260025482602001516113649190612a1c565b106113a4576040517f08c379a000000000000000000000000000000000000000000000000000000000815260040161139b90612ea7565b60405180910390fd5b8060600151156113e9576040517f08c379a00000000000000000000000000000000000000000000000000000000081526004016113e090612b08565b60405180910390fd5b8273ffffffffffffffffffffffffffffffffffffffff166323b872dd303388888781811061141a57611419612952565b5b905060200201356040518463ffffffff1660e01b815260040161143f93929190612d94565b600060405180830381600087803b15801561145957600080fd5b505af115801561146d573d6000803e3d6000fd5b50505050600061149686868581811061148957611488612952565b5b9050602002013585611d2f565b905060008260400151826114aa9190612b28565b9050600460008673ffffffffffffffffffffffffffffffffffffffff1673ffffffffffffffffffffffffffffffffffffffff16815260200190815260200160002060000160009054906101000a900473ffffffffffffffffffffffffffffffffffffffff1673ffffffffffffffffffffffffffffffffffffffff166340c10f1933836040518363ffffffff1660e01b8152600401611549929190612b5c565b600060405180830381600087803b15801561156357600080fd5b505af1158015611577573d6000803e3d6000fd5b5050505081600360008773ffffffffffffffffffffffffffffffffffffffff1673ffffffffffffffffffffffffffffffffffffffff16815260200190815260200160002060008989888181106115d0576115cf612952565b5b905060200201358152602001908152602001600020600201819055506001600360008773ffffffffffffffffffffffffffffffffffffffff1673ffffffffffffffffffffffffffffffffffffffff168152602001908152602001600020600089898881811061164257611641612952565b5b90506020020135815260200190815260200160002060030160006101000a81548160ff021916908315150217905550505050808061167f90612b85565b915050611181565b503373ffffffffffffffffffffffffffffffffffffffff167f5cb48022479b9ac3bfb10a27965dc010acffc9fc1bc9a52f0b18975b944b54ca84846040516116d0929190612dcb565b60405180910390a260018081905550505050565b6003602052816000526040600020602052806000526040600020600091509150508060000160009054906101000a900473ffffffffffffffffffffffffffffffffffffffff16908060010154908060020154908060030160009054906101000a900460ff16908060030160019054906101000a900473ffffffffffffffffffffffffffffffffffffffff16905085565b6000600360008373ffffffffffffffffffffffffffffffffffffffff1673ffffffffffffffffffffffffffffffffffffffff168152602001908152602001600020600084815260200190815260200160002060020154905092915050565b60055481565b60046020528060005260406000206000915090508060000160009054906101000a900473ffffffffffffffffffffffffffffffffffffffff16908060010154908060020154905083565b61182a611f0d565b60005b8451811015611c8257600073ffffffffffffffffffffffffffffffffffffffff1685828151811061186157611860612952565b5b602002602001015173ffffffffffffffffffffffffffffffffffffffff16036118bf576040517f08c379a00000000000000000000000000000000000000000000000000000000081526004016118b690612f13565b60405180910390fd5b600073ffffffffffffffffffffffffffffffffffffffff168482815181106118ea576118e9612952565b5b602002602001015173ffffffffffffffffffffffffffffffffffffffff1603611948576040517f08c379a000000000000000000000000000000000000000000000000000000000815260040161193f90612f7f565b60405180910390fd5b84818151811061195b5761195a612952565b5b602002602001015173ffffffffffffffffffffffffffffffffffffffff166301ffc9a76380ac58cd6040518263ffffffff1660e01b815260040161199f9190613013565b602060405180830381865afa1580156119bc573d6000803e3d6000fd5b505050506040513d601f19601f820116820180604052508101906119e0919061305a565b611a1f576040517f08c379a0000000000000000000000000000000000000000000000000000000008152600401611a16906130d3565b60405180910390fd5b838181518110611a3257611a31612952565b5b602002602001015160046000878481518110611a5157611a50612952565b5b602002602001015173ffffffffffffffffffffffffffffffffffffffff1673ffffffffffffffffffffffffffffffffffffffff16815260200190815260200160002060000160006101000a81548173ffffffffffffffffffffffffffffffffffffffff021916908373ffffffffffffffffffffffffffffffffffffffff160217905550828181518110611ae757611ae6612952565b5b602002602001015160046000878481518110611b0657611b05612952565b5b602002602001015173ffffffffffffffffffffffffffffffffffffffff1673ffffffffffffffffffffffffffffffffffffffff16815260200190815260200160002060010181905550818181518110611b6257611b61612952565b5b602002602001015160046000878481518110611b8157611b80612952565b5b602002602001015173ffffffffffffffffffffffffffffffffffffffff1673ffffffffffffffffffffffffffffffffffffffff168152602001908152602001600020600201819055507f04cac4760c34edbb38aa036d2c4d21b2ab3010607dd83f0cab6fdc121db4a260858281518110611bfe57611bfd612952565b5b6020026020010151858381518110611c1957611c18612952565b5b6020026020010151858481518110611c3457611c33612952565b5b6020026020010151858581518110611c4f57611c4e612952565b5b6020026020010151604051611c6794939291906130f3565b60405180910390a18080611c7a90612b85565b91505061182d565b5050505050565b611c91611f0d565b600073ffffffffffffffffffffffffffffffffffffffff168173ffffffffffffffffffffffffffffffffffffffff1603611d00576040517f08c379a0000000000000000000000000000000000000000000000000000000008152600401611cf7906131aa565b60405180910390fd5b611d0981611f8b565b50565b6000808273ffffffffffffffffffffffffffffffffffffffff163b119050919050565b600080600360008473ffffffffffffffffffffffffffffffffffffffff1673ffffffffffffffffffffffffffffffffffffffff16815260200190815260200160002060008581526020019081526020016000206040518060a00160405290816000820160009054906101000a900473ffffffffffffffffffffffffffffffffffffffff1673ffffffffffffffffffffffffffffffffffffffff1673ffffffffffffffffffffffffffffffffffffffff16815260200160018201548152602001600282015481526020016003820160009054906101000a900460ff161515151581526020016003820160019054906101000a900473ffffffffffffffffffffffffffffffffffffffff1673ffffffffffffffffffffffffffffffffffffffff1673ffffffffffffffffffffffffffffffffffffffff168152505090506000816020015142611e7c9190612b28565b90506000600254821015611e965760009350505050611f07565b60055460025483611ea79190612b28565b600460008873ffffffffffffffffffffffffffffffffffffffff1673ffffffffffffffffffffffffffffffffffffffff16815260200190815260200160002060010154611ef491906131ca565b611efe9190613253565b90508093505050505b92915050565b611f1561204f565b73ffffffffffffffffffffffffffffffffffffffff16611f33610f24565b73ffffffffffffffffffffffffffffffffffffffff1614611f89576040517f08c379a0000000000000000000000000000000000000000000000000000000008152600401611f80906132d0565b60405180910390fd5b565b60008060009054906101000a900473ffffffffffffffffffffffffffffffffffffffff169050816000806101000a81548173ffffffffffffffffffffffffffffffffffffffff021916908373ffffffffffffffffffffffffffffffffffffffff1602179055508173ffffffffffffffffffffffffffffffffffffffff168173ffffffffffffffffffffffffffffffffffffffff167f8be0079c531659141344cd1fd0a4f28419497f9722a3daafe3b4186f6b6457e060405160405180910390a35050565b600033905090565b6000604051905090565b600080fd5b600080fd5b600080fd5b600080fd5b600080fd5b60008083601f8401126120905761208f61206b565b5b8235905067ffffffffffffffff8111156120ad576120ac612070565b5b6020830191508360208202830111156120c9576120c8612075565b5b9250929050565b600073ffffffffffffffffffffffffffffffffffffffff82169050919050565b60006120fb826120d0565b9050919050565b600061210d826120f0565b9050919050565b61211d81612102565b811461212857600080fd5b50565b60008135905061213a81612114565b92915050565b60008060006040848603121561215957612158612061565b5b600084013567ffffffffffffffff81111561217757612176612066565b5b6121838682870161207a565b935093505060206121968682870161212b565b9150509250925092565b6000819050919050565b6121b3816121a0565b82525050565b60006020820190506121ce60008301846121aa565b92915050565b6121dd816121a0565b81146121e857600080fd5b50565b6000813590506121fa816121d4565b92915050565b60006020828403121561221657612215612061565b5b6000612224848285016121eb565b91505092915050565b612236816120f0565b82525050565b6000602082019050612251600083018461222d565b92915050565b6000806040838503121561226e5761226d612061565b5b600061227c8582860161212b565b925050602061228d858286016121eb565b9150509250929050565b60008115159050919050565b6122ac81612297565b82525050565b6000819050919050565b60006122d76122d26122cd846120d0565b6122b2565b6120d0565b9050919050565b60006122e9826122bc565b9050919050565b60006122fb826122de565b9050919050565b61230b816122f0565b82525050565b600060a082019050612326600083018861222d565b61233360208301876121aa565b61234060408301866121aa565b61234d60608301856122a3565b61235a6080830184612302565b9695505050505050565b6000806040838503121561237b5761237a612061565b5b6000612389858286016121eb565b925050602061239a8582860161212b565b9150509250929050565b6000602082840312156123ba576123b9612061565b5b60006123c88482850161212b565b91505092915050565b60006123dc826122de565b9050919050565b6123ec816123d1565b82525050565b600060608201905061240760008301866123e3565b61241460208301856121aa565b61242160408301846121aa565b949350505050565b6000601f19601f8301169050919050565b7f4e487b7100000000000000000000000000000000000000000000000000000000600052604160045260246000fd5b61247282612429565b810181811067ffffffffffffffff821117156124915761249061243a565b5b80604052505050565b60006124a4612057565b90506124b08282612469565b919050565b600067ffffffffffffffff8211156124d0576124cf61243a565b5b602082029050602081019050919050565b6124ea816120f0565b81146124f557600080fd5b50565b600081359050612507816124e1565b92915050565b600061252061251b846124b5565b61249a565b9050808382526020820190506020840283018581111561254357612542612075565b5b835b8181101561256c578061255888826124f8565b845260208401935050602081019050612545565b5050509392505050565b600082601f83011261258b5761258a61206b565b5b813561259b84826020860161250d565b91505092915050565b600067ffffffffffffffff8211156125bf576125be61243a565b5b602082029050602081019050919050565b60006125e36125de846125a4565b61249a565b9050808382526020820190506020840283018581111561260657612605612075565b5b835b8181101561262f578061261b88826121eb565b845260208401935050602081019050612608565b5050509392505050565b600082601f83011261264e5761264d61206b565b5b813561265e8482602086016125d0565b91505092915050565b6000806000806080858703121561268157612680612061565b5b600085013567ffffffffffffffff81111561269f5761269e612066565b5b6126ab87828801612576565b945050602085013567ffffffffffffffff8111156126cc576126cb612066565b5b6126d887828801612576565b935050604085013567ffffffffffffffff8111156126f9576126f8612066565b5b61270587828801612639565b925050606085013567ffffffffffffffff81111561272657612725612066565b5b61273287828801612639565b91505092959194509250565b60006020828403121561275457612753612061565b5b6000612762848285016124f8565b91505092915050565b600082825260208201905092915050565b7f436f6e7472616374206e6f7420616c6c6f776564000000000000000000000000600082015250565b60006127b260148361276b565b91506127bd8261277c565b602082019050919050565b600060208201905081810360008301526127e1816127a5565b9050919050565b7f50726f787920636f6e7472616374206e6f7420616c6c6f776564000000000000600082015250565b600061281e601a8361276b565b9150612829826127e8565b602082019050919050565b6000602082019050818103600083015261284d81612811565b9050919050565b7f5374616b696e673a20526567697374657220636f6c6c656374696f6e2062792060008201527f6164645374616b696e674e667473000000000000000000000000000000000000602082015250565b60006128b0602e8361276b565b91506128bb82612854565b604082019050919050565b600060208201905081810360008301526128df816128a3565b9050919050565b7f4e6f20746f6b656e730000000000000000000000000000000000000000000000600082015250565b600061291c60098361276b565b9150612927826128e6565b602082019050919050565b6000602082019050818103600083015261294b8161290f565b9050919050565b7f4e487b7100000000000000000000000000000000000000000000000000000000600052603260045260246000fd5b7f4e6f74206120746f6b656e206f776e6572000000000000000000000000000000600082015250565b60006129b760118361276b565b91506129c282612981565b602082019050919050565b600060208201905081810360008301526129e6816129aa565b9050919050565b7f4e487b7100000000000000000000000000000000000000000000000000000000600052601160045260246000fd5b6000612a27826121a0565b9150612a32836121a0565b9250828201905080821115612a4a57612a496129ed565b5b92915050565b7f4e6f742061626c6520746f20636c61696d207965740000000000000000000000600082015250565b6000612a8660158361276b565b9150612a9182612a50565b602082019050919050565b60006020820190508181036000830152612ab581612a79565b9050919050565b7f416c726561647920756e6c6f636b656400000000000000000000000000000000600082015250565b6000612af260108361276b565b9150612afd82612abc565b602082019050919050565b60006020820190508181036000830152612b2181612ae5565b9050919050565b6000612b33826121a0565b9150612b3e836121a0565b9250828203905081811115612b5657612b556129ed565b5b92915050565b6000604082019050612b71600083018561222d565b612b7e60208301846121aa565b9392505050565b6000612b90826121a0565b91507fffffffffffffffffffffffffffffffffffffffffffffffffffffffffffffffff8203612bc257612bc16129ed565b5b600182019050919050565b600082825260208201905092915050565b600080fd5b82818337505050565b6000612bf88385612bcd565b93507f07ffffffffffffffffffffffffffffffffffffffffffffffffffffffffffffff831115612c2b57612c2a612bde565b5b602083029250612c3c838584612be3565b82840190509392505050565b60006040820190508181036000830152612c63818587612bec565b9050612c7260208301846121aa565b949350505050565b7f5265656e7472616e637947756172643a207265656e7472616e742063616c6c00600082015250565b6000612cb0601f8361276b565b9150612cbb82612c7a565b602082019050919050565b60006020820190508181036000830152612cdf81612ca3565b9050919050565b600081519050612cf5816124e1565b92915050565b600060208284031215612d1157612d10612061565b5b6000612d1f84828501612ce6565b91505092915050565b7f596f7520646f6e277420686f6c64207468697320746f6b656e00000000000000600082015250565b6000612d5e60198361276b565b9150612d6982612d28565b602082019050919050565b60006020820190508181036000830152612d8d81612d51565b9050919050565b6000606082019050612da9600083018661222d565b612db6602083018561222d565b612dc360408301846121aa565b949350505050565b60006020820190508181036000830152612de6818486612bec565b90509392505050565b7f496e76616c6964206c6f636b20706572696f642e000000000000000000000000600082015250565b6000612e2560148361276b565b9150612e3082612def565b602082019050919050565b60006020820190508181036000830152612e5481612e18565b9050919050565b7f4e6f742061626c6520746f20756e6c6f636b2079657400000000000000000000600082015250565b6000612e9160168361276b565b9150612e9c82612e5b565b602082019050919050565b60006020820190508181036000830152612ec081612e84565b9050919050565b7f496e76616c6964205374616b6520546f6b656e00000000000000000000000000600082015250565b6000612efd60138361276b565b9150612f0882612ec7565b602082019050919050565b60006020820190508181036000830152612f2c81612ef0565b9050919050565b7f496e76616c69642052657761726420546f6b656e000000000000000000000000600082015250565b6000612f6960148361276b565b9150612f7482612f33565b602082019050919050565b60006020820190508181036000830152612f9881612f5c565b9050919050565b6000819050919050565b60007fffffffff0000000000000000000000000000000000000000000000000000000082169050919050565b60008160e01b9050919050565b6000612ffd612ff8612ff384612f9f565b612fd5565b612fa9565b9050919050565b61300d81612fe2565b82525050565b60006020820190506130286000830184613004565b92915050565b61303781612297565b811461304257600080fd5b50565b6000815190506130548161302e565b92915050565b6000602082840312156130705761306f612061565b5b600061307e84828501613045565b91505092915050565b7f4e6f6e2d65726337323100000000000000000000000000000000000000000000600082015250565b60006130bd600a8361276b565b91506130c882613087565b602082019050919050565b600060208201905081810360008301526130ec816130b0565b9050919050565b6000608082019050613108600083018761222d565b613115602083018661222d565b61312260408301856121aa565b61312f60608301846121aa565b95945050505050565b7f4f776e61626c653a206e6577206f776e657220697320746865207a65726f206160008201527f6464726573730000000000000000000000000000000000000000000000000000602082015250565b600061319460268361276b565b915061319f82613138565b604082019050919050565b600060208201905081810360008301526131c381613187565b9050919050565b60006131d5826121a0565b91506131e0836121a0565b9250817fffffffffffffffffffffffffffffffffffffffffffffffffffffffffffffffff0483118215151615613219576132186129ed565b5b828202905092915050565b7f4e487b7100000000000000000000000000000000000000000000000000000000600052601260045260246000fd5b600061325e826121a0565b9150613269836121a0565b92508261327957613278613224565b5b828204905092915050565b7f4f776e61626c653a2063616c6c6572206973206e6f7420746865206f776e6572600082015250565b60006132ba60208361276b565b91506132c582613284565b602082019050919050565b600060208201905081810360008301526132e9816132ad565b905091905056fea2646970667358221220801933a3ec0a862f53234ad04cd673f3032bbc5465ed893c291b6ce9feb3ea8164736f6c63430008100033",
					"opcodes": "PUSH1 0x80 PUSH1 0x40 MSTORE CALLVALUE DUP1 ISZERO PUSH3 0x11 JUMPI PUSH1 0x0 DUP1 REVERT JUMPDEST POP PUSH1 0x40 MLOAD PUSH3 0x35C6 CODESIZE SUB DUP1 PUSH3 0x35C6 DUP4 CODECOPY DUP2 DUP2 ADD PUSH1 0x40 MSTORE DUP2 ADD SWAP1 PUSH3 0x37 SWAP2 SWAP1 PUSH3 0x1C6 JUMP JUMPDEST PUSH3 0x57 PUSH3 0x4B PUSH3 0xBA PUSH1 0x20 SHL PUSH1 0x20 SHR JUMP JUMPDEST PUSH3 0xC2 PUSH1 0x20 SHL PUSH1 0x20 SHR JUMP JUMPDEST PUSH1 0x1 DUP1 DUP2 SWAP1 SSTORE POP PUSH1 0x0 DUP3 GT PUSH3 0xA4 JUMPI PUSH1 0x40 MLOAD PUSH32 0x8C379A000000000000000000000000000000000000000000000000000000000 DUP2 MSTORE PUSH1 0x4 ADD PUSH3 0x9B SWAP1 PUSH3 0x26E JUMP JUMPDEST PUSH1 0x40 MLOAD DUP1 SWAP2 SUB SWAP1 REVERT JUMPDEST DUP2 PUSH1 0x2 DUP2 SWAP1 SSTORE POP DUP1 PUSH1 0x5 DUP2 SWAP1 SSTORE POP POP POP PUSH3 0x290 JUMP JUMPDEST PUSH1 0x0 CALLER SWAP1 POP SWAP1 JUMP JUMPDEST PUSH1 0x0 DUP1 PUSH1 0x0 SWAP1 SLOAD SWAP1 PUSH2 0x100 EXP SWAP1 DIV PUSH20 0xFFFFFFFFFFFFFFFFFFFFFFFFFFFFFFFFFFFFFFFF AND SWAP1 POP DUP2 PUSH1 0x0 DUP1 PUSH2 0x100 EXP DUP2 SLOAD DUP2 PUSH20 0xFFFFFFFFFFFFFFFFFFFFFFFFFFFFFFFFFFFFFFFF MUL NOT AND SWAP1 DUP4 PUSH20 0xFFFFFFFFFFFFFFFFFFFFFFFFFFFFFFFFFFFFFFFF AND MUL OR SWAP1 SSTORE POP DUP2 PUSH20 0xFFFFFFFFFFFFFFFFFFFFFFFFFFFFFFFFFFFFFFFF AND DUP2 PUSH20 0xFFFFFFFFFFFFFFFFFFFFFFFFFFFFFFFFFFFFFFFF AND PUSH32 0x8BE0079C531659141344CD1FD0A4F28419497F9722A3DAAFE3B4186F6B6457E0 PUSH1 0x40 MLOAD PUSH1 0x40 MLOAD DUP1 SWAP2 SUB SWAP1 LOG3 POP POP JUMP JUMPDEST PUSH1 0x0 DUP1 REVERT JUMPDEST PUSH1 0x0 DUP2 SWAP1 POP SWAP2 SWAP1 POP JUMP JUMPDEST PUSH3 0x1A0 DUP2 PUSH3 0x18B JUMP JUMPDEST DUP2 EQ PUSH3 0x1AC JUMPI PUSH1 0x0 DUP1 REVERT JUMPDEST POP JUMP JUMPDEST PUSH1 0x0 DUP2 MLOAD SWAP1 POP PUSH3 0x1C0 DUP2 PUSH3 0x195 JUMP JUMPDEST SWAP3 SWAP2 POP POP JUMP JUMPDEST PUSH1 0x0 DUP1 PUSH1 0x40 DUP4 DUP6 SUB SLT ISZERO PUSH3 0x1E0 JUMPI PUSH3 0x1DF PUSH3 0x186 JUMP JUMPDEST JUMPDEST PUSH1 0x0 PUSH3 0x1F0 DUP6 DUP3 DUP7 ADD PUSH3 0x1AF JUMP JUMPDEST SWAP3 POP POP PUSH1 0x20 PUSH3 0x203 DUP6 DUP3 DUP7 ADD PUSH3 0x1AF JUMP JUMPDEST SWAP2 POP POP SWAP3 POP SWAP3 SWAP1 POP JUMP JUMPDEST PUSH1 0x0 DUP3 DUP3 MSTORE PUSH1 0x20 DUP3 ADD SWAP1 POP SWAP3 SWAP2 POP POP JUMP JUMPDEST PUSH32 0x496E76616C6964206C6F636B20706572696F6400000000000000000000000000 PUSH1 0x0 DUP3 ADD MSTORE POP JUMP JUMPDEST PUSH1 0x0 PUSH3 0x256 PUSH1 0x13 DUP4 PUSH3 0x20D JUMP JUMPDEST SWAP2 POP PUSH3 0x263 DUP3 PUSH3 0x21E JUMP JUMPDEST PUSH1 0x20 DUP3 ADD SWAP1 POP SWAP2 SWAP1 POP JUMP JUMPDEST PUSH1 0x0 PUSH1 0x20 DUP3 ADD SWAP1 POP DUP2 DUP2 SUB PUSH1 0x0 DUP4 ADD MSTORE PUSH3 0x289 DUP2 PUSH3 0x247 JUMP JUMPDEST SWAP1 POP SWAP2 SWAP1 POP JUMP JUMPDEST PUSH2 0x3326 DUP1 PUSH3 0x2A0 PUSH1 0x0 CODECOPY PUSH1 0x0 RETURN INVALID PUSH1 0x80 PUSH1 0x40 MSTORE CALLVALUE DUP1 ISZERO PUSH2 0x10 JUMPI PUSH1 0x0 DUP1 REVERT JUMPDEST POP PUSH1 0x4 CALLDATASIZE LT PUSH2 0xCF JUMPI PUSH1 0x0 CALLDATALOAD PUSH1 0xE0 SHR DUP1 PUSH4 0x9F3625F0 GT PUSH2 0x8C JUMPI DUP1 PUSH4 0xC69D1923 GT PUSH2 0x66 JUMPI DUP1 PUSH4 0xC69D1923 EQ PUSH2 0x1EE JUMPI DUP1 PUSH4 0xE9545B92 EQ PUSH2 0x20C JUMPI DUP1 PUSH4 0xEEE00ED0 EQ PUSH2 0x23E JUMPI DUP1 PUSH4 0xF2FDE38B EQ PUSH2 0x25A JUMPI PUSH2 0xCF JUMP JUMPDEST DUP1 PUSH4 0x9F3625F0 EQ PUSH2 0x16E JUMPI DUP1 PUSH4 0xB2520A7C EQ PUSH2 0x18A JUMPI DUP1 PUSH4 0xB33068C4 EQ PUSH2 0x1BE JUMPI PUSH2 0xCF JUMP JUMPDEST DUP1 PUSH4 0x520537F EQ PUSH2 0xD4 JUMPI DUP1 PUSH4 0x1902732E EQ PUSH2 0xF0 JUMPI DUP1 PUSH4 0x3FD8B02F EQ PUSH2 0x10C JUMPI DUP1 PUSH4 0x715018A6 EQ PUSH2 0x12A JUMPI DUP1 PUSH4 0x779972DA EQ PUSH2 0x134 JUMPI DUP1 PUSH4 0x8DA5CB5B EQ PUSH2 0x150 JUMPI JUMPDEST PUSH1 0x0 DUP1 REVERT JUMPDEST PUSH2 0xEE PUSH1 0x4 DUP1 CALLDATASIZE SUB DUP2 ADD SWAP1 PUSH2 0xE9 SWAP2 SWAP1 PUSH2 0x2140 JUMP JUMPDEST PUSH2 0x276 JUMP JUMPDEST STOP JUMPDEST PUSH2 0x10A PUSH1 0x4 DUP1 CALLDATASIZE SUB DUP2 ADD SWAP1 PUSH2 0x105 SWAP2 SWAP1 PUSH2 0x2140 JUMP JUMPDEST PUSH2 0x8C2 JUMP JUMPDEST STOP JUMPDEST PUSH2 0x114 PUSH2 0xE7E JUMP JUMPDEST PUSH1 0x40 MLOAD PUSH2 0x121 SWAP2 SWAP1 PUSH2 0x21B9 JUMP JUMPDEST PUSH1 0x40 MLOAD DUP1 SWAP2 SUB SWAP1 RETURN JUMPDEST PUSH2 0x132 PUSH2 0xE84 JUMP JUMPDEST STOP JUMPDEST PUSH2 0x14E PUSH1 0x4 DUP1 CALLDATASIZE SUB DUP2 ADD SWAP1 PUSH2 0x149 SWAP2 SWAP1 PUSH2 0x2200 JUMP JUMPDEST PUSH2 0xE98 JUMP JUMPDEST STOP JUMPDEST PUSH2 0x158 PUSH2 0xF24 JUMP JUMPDEST PUSH1 0x40 MLOAD PUSH2 0x165 SWAP2 SWAP1 PUSH2 0x223C JUMP JUMPDEST PUSH1 0x40 MLOAD DUP1 SWAP2 SUB SWAP1 RETURN JUMPDEST PUSH2 0x188 PUSH1 0x4 DUP1 CALLDATASIZE SUB DUP2 ADD SWAP1 PUSH2 0x183 SWAP2 SWAP1 PUSH2 0x2140 JUMP JUMPDEST PUSH2 0xF4D JUMP JUMPDEST STOP JUMPDEST PUSH2 0x1A4 PUSH1 0x4 DUP1 CALLDATASIZE SUB DUP2 ADD SWAP1 PUSH2 0x19F SWAP2 SWAP1 PUSH2 0x2257 JUMP JUMPDEST PUSH2 0x16E4 JUMP JUMPDEST PUSH1 0x40 MLOAD PUSH2 0x1B5 SWAP6 SWAP5 SWAP4 SWAP3 SWAP2 SWAP1 PUSH2 0x2311 JUMP JUMPDEST PUSH1 0x40 MLOAD DUP1 SWAP2 SUB SWAP1 RETURN JUMPDEST PUSH2 0x1D8 PUSH1 0x4 DUP1 CALLDATASIZE SUB DUP2 ADD SWAP1 PUSH2 0x1D3 SWAP2 SWAP1 PUSH2 0x2364 JUMP JUMPDEST PUSH2 0x1774 JUMP JUMPDEST PUSH1 0x40 MLOAD PUSH2 0x1E5 SWAP2 SWAP1 PUSH2 0x21B9 JUMP JUMPDEST PUSH1 0x40 MLOAD DUP1 SWAP2 SUB SWAP1 RETURN JUMPDEST PUSH2 0x1F6 PUSH2 0x17D2 JUMP JUMPDEST PUSH1 0x40 MLOAD PUSH2 0x203 SWAP2 SWAP1 PUSH2 0x21B9 JUMP JUMPDEST PUSH1 0x40 MLOAD DUP1 SWAP2 SUB SWAP1 RETURN JUMPDEST PUSH2 0x226 PUSH1 0x4 DUP1 CALLDATASIZE SUB DUP2 ADD SWAP1 PUSH2 0x221 SWAP2 SWAP1 PUSH2 0x23A4 JUMP JUMPDEST PUSH2 0x17D8 JUMP JUMPDEST PUSH1 0x40 MLOAD PUSH2 0x235 SWAP4 SWAP3 SWAP2 SWAP1 PUSH2 0x23F2 JUMP JUMPDEST PUSH1 0x40 MLOAD DUP1 SWAP2 SUB SWAP1 RETURN JUMPDEST PUSH2 0x258 PUSH1 0x4 DUP1 CALLDATASIZE SUB DUP2 ADD SWAP1 PUSH2 0x253 SWAP2 SWAP1 PUSH2 0x2667 JUMP JUMPDEST PUSH2 0x1822 JUMP JUMPDEST STOP JUMPDEST PUSH2 0x274 PUSH1 0x4 DUP1 CALLDATASIZE SUB DUP2 ADD SWAP1 PUSH2 0x26F SWAP2 SWAP1 PUSH2 0x273E JUMP JUMPDEST PUSH2 0x1C89 JUMP JUMPDEST STOP JUMPDEST PUSH2 0x295 CALLER PUSH20 0xFFFFFFFFFFFFFFFFFFFFFFFFFFFFFFFFFFFFFFFF AND PUSH2 0x1D0C JUMP JUMPDEST ISZERO PUSH2 0x2D5 JUMPI PUSH1 0x40 MLOAD PUSH32 0x8C379A000000000000000000000000000000000000000000000000000000000 DUP2 MSTORE PUSH1 0x4 ADD PUSH2 0x2CC SWAP1 PUSH2 0x27C8 JUMP JUMPDEST PUSH1 0x40 MLOAD DUP1 SWAP2 SUB SWAP1 REVERT JUMPDEST ORIGIN PUSH20 0xFFFFFFFFFFFFFFFFFFFFFFFFFFFFFFFFFFFFFFFF AND CALLER PUSH20 0xFFFFFFFFFFFFFFFFFFFFFFFFFFFFFFFFFFFFFFFF AND EQ PUSH2 0x343 JUMPI PUSH1 0x40 MLOAD PUSH32 0x8C379A000000000000000000000000000000000000000000000000000000000 DUP2 MSTORE PUSH1 0x4 ADD PUSH2 0x33A SWAP1 PUSH2 0x2834 JUMP JUMPDEST PUSH1 0x40 MLOAD DUP1 SWAP2 SUB SWAP1 REVERT JUMPDEST PUSH1 0x0 PUSH20 0xFFFFFFFFFFFFFFFFFFFFFFFFFFFFFFFFFFFFFFFF AND PUSH1 0x4 PUSH1 0x0 DUP4 PUSH20 0xFFFFFFFFFFFFFFFFFFFFFFFFFFFFFFFFFFFFFFFF AND PUSH20 0xFFFFFFFFFFFFFFFFFFFFFFFFFFFFFFFFFFFFFFFF AND DUP2 MSTORE PUSH1 0x20 ADD SWAP1 DUP2 MSTORE PUSH1 0x20 ADD PUSH1 0x0 KECCAK256 PUSH1 0x0 ADD PUSH1 0x0 SWAP1 SLOAD SWAP1 PUSH2 0x100 EXP SWAP1 DIV PUSH20 0xFFFFFFFFFFFFFFFFFFFFFFFFFFFFFFFFFFFFFFFF AND PUSH20 0xFFFFFFFFFFFFFFFFFFFFFFFFFFFFFFFFFFFFFFFF AND SUB PUSH2 0x414 JUMPI PUSH1 0x40 MLOAD PUSH32 0x8C379A000000000000000000000000000000000000000000000000000000000 DUP2 MSTORE PUSH1 0x4 ADD PUSH2 0x40B SWAP1 PUSH2 0x28C6 JUMP JUMPDEST PUSH1 0x40 MLOAD DUP1 SWAP2 SUB SWAP1 REVERT JUMPDEST PUSH1 0x0 DUP4 DUP4 SWAP1 POP GT PUSH2 0x45A JUMPI PUSH1 0x40 MLOAD PUSH32 0x8C379A000000000000000000000000000000000000000000000000000000000 DUP2 MSTORE PUSH1 0x4 ADD PUSH2 0x451 SWAP1 PUSH2 0x2932 JUMP JUMPDEST PUSH1 0x40 MLOAD DUP1 SWAP2 SUB SWAP1 REVERT JUMPDEST PUSH1 0x0 DUP1 PUSH1 0x0 SWAP1 POP JUMPDEST DUP5 DUP5 SWAP1 POP DUP2 LT ISZERO PUSH2 0x869 JUMPI PUSH1 0x0 PUSH1 0x3 PUSH1 0x0 DUP6 PUSH20 0xFFFFFFFFFFFFFFFFFFFFFFFFFFFFFFFFFFFFFFFF AND PUSH20 0xFFFFFFFFFFFFFFFFFFFFFFFFFFFFFFFFFFFFFFFF AND DUP2 MSTORE PUSH1 0x20 ADD SWAP1 DUP2 MSTORE PUSH1 0x20 ADD PUSH1 0x0 KECCAK256 PUSH1 0x0 DUP8 DUP8 DUP6 DUP2 DUP2 LT PUSH2 0x4C3 JUMPI PUSH2 0x4C2 PUSH2 0x2952 JUMP JUMPDEST JUMPDEST SWAP1 POP PUSH1 0x20 MUL ADD CALLDATALOAD DUP2 MSTORE PUSH1 0x20 ADD SWAP1 DUP2 MSTORE PUSH1 0x20 ADD PUSH1 0x0 KECCAK256 PUSH1 0x40 MLOAD DUP1 PUSH1 0xA0 ADD PUSH1 0x40 MSTORE SWAP1 DUP2 PUSH1 0x0 DUP3 ADD PUSH1 0x0 SWAP1 SLOAD SWAP1 PUSH2 0x100 EXP SWAP1 DIV PUSH20 0xFFFFFFFFFFFFFFFFFFFFFFFFFFFFFFFFFFFFFFFF AND PUSH20 0xFFFFFFFFFFFFFFFFFFFFFFFFFFFFFFFFFFFFFFFF AND PUSH20 0xFFFFFFFFFFFFFFFFFFFFFFFFFFFFFFFFFFFFFFFF AND DUP2 MSTORE PUSH1 0x20 ADD PUSH1 0x1 DUP3 ADD SLOAD DUP2 MSTORE PUSH1 0x20 ADD PUSH1 0x2 DUP3 ADD SLOAD DUP2 MSTORE PUSH1 0x20 ADD PUSH1 0x3 DUP3 ADD PUSH1 0x0 SWAP1 SLOAD SWAP1 PUSH2 0x100 EXP SWAP1 DIV PUSH1 0xFF AND ISZERO ISZERO ISZERO ISZERO DUP2 MSTORE PUSH1 0x20 ADD PUSH1 0x3 DUP3 ADD PUSH1 0x1 SWAP1 SLOAD SWAP1 PUSH2 0x100 EXP SWAP1 DIV PUSH20 0xFFFFFFFFFFFFFFFFFFFFFFFFFFFFFFFFFFFFFFFF AND PUSH20 0xFFFFFFFFFFFFFFFFFFFFFFFFFFFFFFFFFFFFFFFF AND PUSH20 0xFFFFFFFFFFFFFFFFFFFFFFFFFFFFFFFFFFFFFFFF AND DUP2 MSTORE POP POP SWAP1 POP CALLER PUSH20 0xFFFFFFFFFFFFFFFFFFFFFFFFFFFFFFFFFFFFFFFF AND DUP2 PUSH1 0x0 ADD MLOAD PUSH20 0xFFFFFFFFFFFFFFFFFFFFFFFFFFFFFFFFFFFFFFFF AND EQ PUSH2 0x632 JUMPI PUSH1 0x40 MLOAD PUSH32 0x8C379A000000000000000000000000000000000000000000000000000000000 DUP2 MSTORE PUSH1 0x4 ADD PUSH2 0x629 SWAP1 PUSH2 0x29CD JUMP JUMPDEST PUSH1 0x40 MLOAD DUP1 SWAP2 SUB SWAP1 REVERT JUMPDEST TIMESTAMP PUSH1 0x2 SLOAD DUP3 PUSH1 0x20 ADD MLOAD PUSH2 0x645 SWAP2 SWAP1 PUSH2 0x2A1C JUMP JUMPDEST LT PUSH2 0x685 JUMPI PUSH1 0x40 MLOAD PUSH32 0x8C379A000000000000000000000000000000000000000000000000000000000 DUP2 MSTORE PUSH1 0x4 ADD PUSH2 0x67C SWAP1 PUSH2 0x2A9C JUMP JUMPDEST PUSH1 0x40 MLOAD DUP1 SWAP2 SUB SWAP1 REVERT JUMPDEST DUP1 PUSH1 0x60 ADD MLOAD ISZERO PUSH2 0x6CA JUMPI PUSH1 0x40 MLOAD PUSH32 0x8C379A000000000000000000000000000000000000000000000000000000000 DUP2 MSTORE PUSH1 0x4 ADD PUSH2 0x6C1 SWAP1 PUSH2 0x2B08 JUMP JUMPDEST PUSH1 0x40 MLOAD DUP1 SWAP2 SUB SWAP1 REVERT JUMPDEST PUSH1 0x0 PUSH2 0x6EF DUP8 DUP8 DUP6 DUP2 DUP2 LT PUSH2 0x6E2 JUMPI PUSH2 0x6E1 PUSH2 0x2952 JUMP JUMPDEST JUMPDEST SWAP1 POP PUSH1 0x20 MUL ADD CALLDATALOAD DUP7 PUSH2 0x1D2F JUMP JUMPDEST SWAP1 POP PUSH1 0x0 DUP3 PUSH1 0x40 ADD MLOAD DUP3 PUSH2 0x703 SWAP2 SWAP1 PUSH2 0x2B28 JUMP JUMPDEST SWAP1 POP PUSH1 0x4 PUSH1 0x0 DUP8 PUSH20 0xFFFFFFFFFFFFFFFFFFFFFFFFFFFFFFFFFFFFFFFF AND PUSH20 0xFFFFFFFFFFFFFFFFFFFFFFFFFFFFFFFFFFFFFFFF AND DUP2 MSTORE PUSH1 0x20 ADD SWAP1 DUP2 MSTORE PUSH1 0x20 ADD PUSH1 0x0 KECCAK256 PUSH1 0x0 ADD PUSH1 0x0 SWAP1 SLOAD SWAP1 PUSH2 0x100 EXP SWAP1 DIV PUSH20 0xFFFFFFFFFFFFFFFFFFFFFFFFFFFFFFFFFFFFFFFF AND PUSH20 0xFFFFFFFFFFFFFFFFFFFFFFFFFFFFFFFFFFFFFFFF AND PUSH4 0x40C10F19 CALLER DUP4 PUSH1 0x40 MLOAD DUP4 PUSH4 0xFFFFFFFF AND PUSH1 0xE0 SHL DUP2 MSTORE PUSH1 0x4 ADD PUSH2 0x7A2 SWAP3 SWAP2 SWAP1 PUSH2 0x2B5C JUMP JUMPDEST PUSH1 0x0 PUSH1 0x40 MLOAD DUP1 DUP4 SUB DUP2 PUSH1 0x0 DUP8 DUP1 EXTCODESIZE ISZERO DUP1 ISZERO PUSH2 0x7BC JUMPI PUSH1 0x0 DUP1 REVERT JUMPDEST POP GAS CALL ISZERO DUP1 ISZERO PUSH2 0x7D0 JUMPI RETURNDATASIZE PUSH1 0x0 DUP1 RETURNDATACOPY RETURNDATASIZE PUSH1 0x0 REVERT JUMPDEST POP POP POP POP DUP1 DUP6 PUSH2 0x7E0 SWAP2 SWAP1 PUSH2 0x2A1C JUMP JUMPDEST SWAP5 POP DUP2 PUSH1 0x3 PUSH1 0x0 DUP9 PUSH20 0xFFFFFFFFFFFFFFFFFFFFFFFFFFFFFFFFFFFFFFFF AND PUSH20 0xFFFFFFFFFFFFFFFFFFFFFFFFFFFFFFFFFFFFFFFF AND DUP2 MSTORE PUSH1 0x20 ADD SWAP1 DUP2 MSTORE PUSH1 0x20 ADD PUSH1 0x0 KECCAK256 PUSH1 0x0 DUP11 DUP11 DUP9 DUP2 DUP2 LT PUSH2 0x837 JUMPI PUSH2 0x836 PUSH2 0x2952 JUMP JUMPDEST JUMPDEST SWAP1 POP PUSH1 0x20 MUL ADD CALLDATALOAD DUP2 MSTORE PUSH1 0x20 ADD SWAP1 DUP2 MSTORE PUSH1 0x20 ADD PUSH1 0x0 KECCAK256 PUSH1 0x2 ADD DUP2 SWAP1 SSTORE POP POP POP POP DUP1 DUP1 PUSH2 0x861 SWAP1 PUSH2 0x2B85 JUMP JUMPDEST SWAP2 POP POP PUSH2 0x462 JUMP JUMPDEST POP CALLER PUSH20 0xFFFFFFFFFFFFFFFFFFFFFFFFFFFFFFFFFFFFFFFF AND PUSH32 0x37826BE3C26DBAD83731F4B985F22FA9EF86B6D1974CD77208332B7F1F283C0C DUP6 DUP6 DUP5 PUSH1 0x40 MLOAD PUSH2 0x8B4 SWAP4 SWAP3 SWAP2 SWAP1 PUSH2 0x2C48 JUMP JUMPDEST PUSH1 0x40 MLOAD DUP1 SWAP2 SUB SWAP1 LOG2 POP POP POP POP JUMP JUMPDEST PUSH2 0x8E1 CALLER PUSH20 0xFFFFFFFFFFFFFFFFFFFFFFFFFFFFFFFFFFFFFFFF AND PUSH2 0x1D0C JUMP JUMPDEST ISZERO PUSH2 0x921 JUMPI PUSH1 0x40 MLOAD PUSH32 0x8C379A000000000000000000000000000000000000000000000000000000000 DUP2 MSTORE PUSH1 0x4 ADD PUSH2 0x918 SWAP1 PUSH2 0x27C8 JUMP JUMPDEST PUSH1 0x40 MLOAD DUP1 SWAP2 SUB SWAP1 REVERT JUMPDEST ORIGIN PUSH20 0xFFFFFFFFFFFFFFFFFFFFFFFFFFFFFFFFFFFFFFFF AND CALLER PUSH20 0xFFFFFFFFFFFFFFFFFFFFFFFFFFFFFFFFFFFFFFFF AND EQ PUSH2 0x98F JUMPI PUSH1 0x40 MLOAD PUSH32 0x8C379A000000000000000000000000000000000000000000000000000000000 DUP2 MSTORE PUSH1 0x4 ADD PUSH2 0x986 SWAP1 PUSH2 0x2834 JUMP JUMPDEST PUSH1 0x40 MLOAD DUP1 SWAP2 SUB SWAP1 REVERT JUMPDEST PUSH1 0x2 PUSH1 0x1 SLOAD SUB PUSH2 0x9D4 JUMPI PUSH1 0x40 MLOAD PUSH32 0x8C379A000000000000000000000000000000000000000000000000000000000 DUP2 MSTORE PUSH1 0x4 ADD PUSH2 0x9CB SWAP1 PUSH2 0x2CC6 JUMP JUMPDEST PUSH1 0x40 MLOAD DUP1 SWAP2 SUB SWAP1 REVERT JUMPDEST PUSH1 0x2 PUSH1 0x1 DUP2 SWAP1 SSTORE POP PUSH1 0x0 PUSH20 0xFFFFFFFFFFFFFFFFFFFFFFFFFFFFFFFFFFFFFFFF AND PUSH1 0x4 PUSH1 0x0 DUP4 PUSH20 0xFFFFFFFFFFFFFFFFFFFFFFFFFFFFFFFFFFFFFFFF AND PUSH20 0xFFFFFFFFFFFFFFFFFFFFFFFFFFFFFFFFFFFFFFFF AND DUP2 MSTORE PUSH1 0x20 ADD SWAP1 DUP2 MSTORE PUSH1 0x20 ADD PUSH1 0x0 KECCAK256 PUSH1 0x0 ADD PUSH1 0x0 SWAP1 SLOAD SWAP1 PUSH2 0x100 EXP SWAP1 DIV PUSH20 0xFFFFFFFFFFFFFFFFFFFFFFFFFFFFFFFFFFFFFFFF AND PUSH20 0xFFFFFFFFFFFFFFFFFFFFFFFFFFFFFFFFFFFFFFFF AND SUB PUSH2 0xAAD JUMPI PUSH1 0x40 MLOAD PUSH32 0x8C379A000000000000000000000000000000000000000000000000000000000 DUP2 MSTORE PUSH1 0x4 ADD PUSH2 0xAA4 SWAP1 PUSH2 0x28C6 JUMP JUMPDEST PUSH1 0x40 MLOAD DUP1 SWAP2 SUB SWAP1 REVERT JUMPDEST PUSH1 0x0 DUP4 DUP4 SWAP1 POP GT PUSH2 0xAF3 JUMPI PUSH1 0x40 MLOAD PUSH32 0x8C379A000000000000000000000000000000000000000000000000000000000 DUP2 MSTORE PUSH1 0x4 ADD PUSH2 0xAEA SWAP1 PUSH2 0x2932 JUMP JUMPDEST PUSH1 0x40 MLOAD DUP1 SWAP2 SUB SWAP1 REVERT JUMPDEST PUSH1 0x0 JUMPDEST DUP4 DUP4 SWAP1 POP DUP2 LT ISZERO PUSH2 0xE21 JUMPI CALLER PUSH20 0xFFFFFFFFFFFFFFFFFFFFFFFFFFFFFFFFFFFFFFFF AND DUP3 PUSH20 0xFFFFFFFFFFFFFFFFFFFFFFFFFFFFFFFFFFFFFFFF AND PUSH4 0x6352211E DUP7 DUP7 DUP6 DUP2 DUP2 LT PUSH2 0xB47 JUMPI PUSH2 0xB46 PUSH2 0x2952 JUMP JUMPDEST JUMPDEST SWAP1 POP PUSH1 0x20 MUL ADD CALLDATALOAD PUSH1 0x40 MLOAD DUP3 PUSH4 0xFFFFFFFF AND PUSH1 0xE0 SHL DUP2 MSTORE PUSH1 0x4 ADD PUSH2 0xB6A SWAP2 SWAP1 PUSH2 0x21B9 JUMP JUMPDEST PUSH1 0x20 PUSH1 0x40 MLOAD DUP1 DUP4 SUB DUP2 DUP7 GAS STATICCALL ISZERO DUP1 ISZERO PUSH2 0xB87 JUMPI RETURNDATASIZE PUSH1 0x0 DUP1 RETURNDATACOPY RETURNDATASIZE PUSH1 0x0 REVERT JUMPDEST POP POP POP POP PUSH1 0x40 MLOAD RETURNDATASIZE PUSH1 0x1F NOT PUSH1 0x1F DUP3 ADD AND DUP3 ADD DUP1 PUSH1 0x40 MSTORE POP DUP2 ADD SWAP1 PUSH2 0xBAB SWAP2 SWAP1 PUSH2 0x2CFB JUMP JUMPDEST PUSH20 0xFFFFFFFFFFFFFFFFFFFFFFFFFFFFFFFFFFFFFFFF AND EQ PUSH2 0xC01 JUMPI PUSH1 0x40 MLOAD PUSH32 0x8C379A000000000000000000000000000000000000000000000000000000000 DUP2 MSTORE PUSH1 0x4 ADD PUSH2 0xBF8 SWAP1 PUSH2 0x2D74 JUMP JUMPDEST PUSH1 0x40 MLOAD DUP1 SWAP2 SUB SWAP1 REVERT JUMPDEST DUP2 PUSH20 0xFFFFFFFFFFFFFFFFFFFFFFFFFFFFFFFFFFFFFFFF AND PUSH4 0x23B872DD CALLER ADDRESS DUP8 DUP8 DUP7 DUP2 DUP2 LT PUSH2 0xC32 JUMPI PUSH2 0xC31 PUSH2 0x2952 JUMP JUMPDEST JUMPDEST SWAP1 POP PUSH1 0x20 MUL ADD CALLDATALOAD PUSH1 0x40 MLOAD DUP5 PUSH4 0xFFFFFFFF AND PUSH1 0xE0 SHL DUP2 MSTORE PUSH1 0x4 ADD PUSH2 0xC57 SWAP4 SWAP3 SWAP2 SWAP1 PUSH2 0x2D94 JUMP JUMPDEST PUSH1 0x0 PUSH1 0x40 MLOAD DUP1 DUP4 SUB DUP2 PUSH1 0x0 DUP8 DUP1 EXTCODESIZE ISZERO DUP1 ISZERO PUSH2 0xC71 JUMPI PUSH1 0x0 DUP1 REVERT JUMPDEST POP GAS CALL ISZERO DUP1 ISZERO PUSH2 0xC85 JUMPI RETURNDATASIZE PUSH1 0x0 DUP1 RETURNDATACOPY RETURNDATASIZE PUSH1 0x0 REVERT JUMPDEST POP POP POP POP PUSH1 0x40 MLOAD DUP1 PUSH1 0xA0 ADD PUSH1 0x40 MSTORE DUP1 CALLER PUSH20 0xFFFFFFFFFFFFFFFFFFFFFFFFFFFFFFFFFFFFFFFF AND DUP2 MSTORE PUSH1 0x20 ADD TIMESTAMP DUP2 MSTORE PUSH1 0x20 ADD PUSH1 0x0 DUP2 MSTORE PUSH1 0x20 ADD PUSH1 0x0 ISZERO ISZERO DUP2 MSTORE PUSH1 0x20 ADD DUP4 PUSH20 0xFFFFFFFFFFFFFFFFFFFFFFFFFFFFFFFFFFFFFFFF AND DUP2 MSTORE POP PUSH1 0x3 PUSH1 0x0 DUP5 PUSH20 0xFFFFFFFFFFFFFFFFFFFFFFFFFFFFFFFFFFFFFFFF AND PUSH20 0xFFFFFFFFFFFFFFFFFFFFFFFFFFFFFFFFFFFFFFFF AND DUP2 MSTORE PUSH1 0x20 ADD SWAP1 DUP2 MSTORE PUSH1 0x20 ADD PUSH1 0x0 KECCAK256 PUSH1 0x0 DUP7 DUP7 DUP6 DUP2 DUP2 LT PUSH2 0xD34 JUMPI PUSH2 0xD33 PUSH2 0x2952 JUMP JUMPDEST JUMPDEST SWAP1 POP PUSH1 0x20 MUL ADD CALLDATALOAD DUP2 MSTORE PUSH1 0x20 ADD SWAP1 DUP2 MSTORE PUSH1 0x20 ADD PUSH1 0x0 KECCAK256 PUSH1 0x0 DUP3 ADD MLOAD DUP2 PUSH1 0x0 ADD PUSH1 0x0 PUSH2 0x100 EXP DUP2 SLOAD DUP2 PUSH20 0xFFFFFFFFFFFFFFFFFFFFFFFFFFFFFFFFFFFFFFFF MUL NOT AND SWAP1 DUP4 PUSH20 0xFFFFFFFFFFFFFFFFFFFFFFFFFFFFFFFFFFFFFFFF AND MUL OR SWAP1 SSTORE POP PUSH1 0x20 DUP3 ADD MLOAD DUP2 PUSH1 0x1 ADD SSTORE PUSH1 0x40 DUP3 ADD MLOAD DUP2 PUSH1 0x2 ADD SSTORE PUSH1 0x60 DUP3 ADD MLOAD DUP2 PUSH1 0x3 ADD PUSH1 0x0 PUSH2 0x100 EXP DUP2 SLOAD DUP2 PUSH1 0xFF MUL NOT AND SWAP1 DUP4 ISZERO ISZERO MUL OR SWAP1 SSTORE POP PUSH1 0x80 DUP3 ADD MLOAD DUP2 PUSH1 0x3 ADD PUSH1 0x1 PUSH2 0x100 EXP DUP2 SLOAD DUP2 PUSH20 0xFFFFFFFFFFFFFFFFFFFFFFFFFFFFFFFFFFFFFFFF MUL NOT AND SWAP1 DUP4 PUSH20 0xFFFFFFFFFFFFFFFFFFFFFFFFFFFFFFFFFFFFFFFF AND MUL OR SWAP1 SSTORE POP SWAP1 POP POP DUP1 DUP1 PUSH2 0xE19 SWAP1 PUSH2 0x2B85 JUMP JUMPDEST SWAP2 POP POP PUSH2 0xAF6 JUMP JUMPDEST POP CALLER PUSH20 0xFFFFFFFFFFFFFFFFFFFFFFFFFFFFFFFFFFFFFFFF AND PUSH32 0x458BE0227BCCC9E803DEC79BD16767EEAF9925D2CE708EEED7AE1F3621F968F9 DUP5 DUP5 PUSH1 0x40 MLOAD PUSH2 0xE6A SWAP3 SWAP2 SWAP1 PUSH2 0x2DCB JUMP JUMPDEST PUSH1 0x40 MLOAD DUP1 SWAP2 SUB SWAP1 LOG2 PUSH1 0x1 DUP1 DUP2 SWAP1 SSTORE POP POP POP POP JUMP JUMPDEST PUSH1 0x2 SLOAD DUP2 JUMP JUMPDEST PUSH2 0xE8C PUSH2 0x1F0D JUMP JUMPDEST PUSH2 0xE96 PUSH1 0x0 PUSH2 0x1F8B JUMP JUMPDEST JUMP JUMPDEST PUSH2 0xEA0 PUSH2 0x1F0D JUMP JUMPDEST PUSH1 0x0 DUP2 GT PUSH2 0xEE3 JUMPI PUSH1 0x40 MLOAD PUSH32 0x8C379A000000000000000000000000000000000000000000000000000000000 DUP2 MSTORE PUSH1 0x4 ADD PUSH2 0xEDA SWAP1 PUSH2 0x2E3B JUMP JUMPDEST PUSH1 0x40 MLOAD DUP1 SWAP2 SUB SWAP1 REVERT JUMPDEST DUP1 PUSH1 0x2 DUP2 SWAP1 SSTORE POP PUSH32 0x8249EC545E68F6F1E1230133CA48C704D831A7F8E635DED80F3DD9E99B09BB2F DUP2 PUSH1 0x40 MLOAD PUSH2 0xF19 SWAP2 SWAP1 PUSH2 0x21B9 JUMP JUMPDEST PUSH1 0x40 MLOAD DUP1 SWAP2 SUB SWAP1 LOG1 POP JUMP JUMPDEST PUSH1 0x0 DUP1 PUSH1 0x0 SWAP1 SLOAD SWAP1 PUSH2 0x100 EXP SWAP1 DIV PUSH20 0xFFFFFFFFFFFFFFFFFFFFFFFFFFFFFFFFFFFFFFFF AND SWAP1 POP SWAP1 JUMP JUMPDEST PUSH2 0xF6C CALLER PUSH20 0xFFFFFFFFFFFFFFFFFFFFFFFFFFFFFFFFFFFFFFFF AND PUSH2 0x1D0C JUMP JUMPDEST ISZERO PUSH2 0xFAC JUMPI PUSH1 0x40 MLOAD PUSH32 0x8C379A000000000000000000000000000000000000000000000000000000000 DUP2 MSTORE PUSH1 0x4 ADD PUSH2 0xFA3 SWAP1 PUSH2 0x27C8 JUMP JUMPDEST PUSH1 0x40 MLOAD DUP1 SWAP2 SUB SWAP1 REVERT JUMPDEST ORIGIN PUSH20 0xFFFFFFFFFFFFFFFFFFFFFFFFFFFFFFFFFFFFFFFF AND CALLER PUSH20 0xFFFFFFFFFFFFFFFFFFFFFFFFFFFFFFFFFFFFFFFF AND EQ PUSH2 0x101A JUMPI PUSH1 0x40 MLOAD PUSH32 0x8C379A000000000000000000000000000000000000000000000000000000000 DUP2 MSTORE PUSH1 0x4 ADD PUSH2 0x1011 SWAP1 PUSH2 0x2834 JUMP JUMPDEST PUSH1 0x40 MLOAD DUP1 SWAP2 SUB SWAP1 REVERT JUMPDEST PUSH1 0x2 PUSH1 0x1 SLOAD SUB PUSH2 0x105F JUMPI PUSH1 0x40 MLOAD PUSH32 0x8C379A000000000000000000000000000000000000000000000000000000000 DUP2 MSTORE PUSH1 0x4 ADD PUSH2 0x1056 SWAP1 PUSH2 0x2CC6 JUMP JUMPDEST PUSH1 0x40 MLOAD DUP1 SWAP2 SUB SWAP1 REVERT JUMPDEST PUSH1 0x2 PUSH1 0x1 DUP2 SWAP1 SSTORE POP PUSH1 0x0 PUSH20 0xFFFFFFFFFFFFFFFFFFFFFFFFFFFFFFFFFFFFFFFF AND PUSH1 0x4 PUSH1 0x0 DUP4 PUSH20 0xFFFFFFFFFFFFFFFFFFFFFFFFFFFFFFFFFFFFFFFF AND PUSH20 0xFFFFFFFFFFFFFFFFFFFFFFFFFFFFFFFFFFFFFFFF AND DUP2 MSTORE PUSH1 0x20 ADD SWAP1 DUP2 MSTORE PUSH1 0x20 ADD PUSH1 0x0 KECCAK256 PUSH1 0x0 ADD PUSH1 0x0 SWAP1 SLOAD SWAP1 PUSH2 0x100 EXP SWAP1 DIV PUSH20 0xFFFFFFFFFFFFFFFFFFFFFFFFFFFFFFFFFFFFFFFF AND PUSH20 0xFFFFFFFFFFFFFFFFFFFFFFFFFFFFFFFFFFFFFFFF AND SUB PUSH2 0x1138 JUMPI PUSH1 0x40 MLOAD PUSH32 0x8C379A000000000000000000000000000000000000000000000000000000000 DUP2 MSTORE PUSH1 0x4 ADD PUSH2 0x112F SWAP1 PUSH2 0x28C6 JUMP JUMPDEST PUSH1 0x40 MLOAD DUP1 SWAP2 SUB SWAP1 REVERT JUMPDEST PUSH1 0x0 DUP4 DUP4 SWAP1 POP GT PUSH2 0x117E JUMPI PUSH1 0x40 MLOAD PUSH32 0x8C379A000000000000000000000000000000000000000000000000000000000 DUP2 MSTORE PUSH1 0x4 ADD PUSH2 0x1175 SWAP1 PUSH2 0x2932 JUMP JUMPDEST PUSH1 0x40 MLOAD DUP1 SWAP2 SUB SWAP1 REVERT JUMPDEST PUSH1 0x0 JUMPDEST DUP4 DUP4 SWAP1 POP DUP2 LT ISZERO PUSH2 0x1687 JUMPI PUSH1 0x0 PUSH1 0x3 PUSH1 0x0 DUP5 PUSH20 0xFFFFFFFFFFFFFFFFFFFFFFFFFFFFFFFFFFFFFFFF AND PUSH20 0xFFFFFFFFFFFFFFFFFFFFFFFFFFFFFFFFFFFFFFFF AND DUP2 MSTORE PUSH1 0x20 ADD SWAP1 DUP2 MSTORE PUSH1 0x20 ADD PUSH1 0x0 KECCAK256 PUSH1 0x0 DUP7 DUP7 DUP6 DUP2 DUP2 LT PUSH2 0x11E2 JUMPI PUSH2 0x11E1 PUSH2 0x2952 JUMP JUMPDEST JUMPDEST SWAP1 POP PUSH1 0x20 MUL ADD CALLDATALOAD DUP2 MSTORE PUSH1 0x20 ADD SWAP1 DUP2 MSTORE PUSH1 0x20 ADD PUSH1 0x0 KECCAK256 PUSH1 0x40 MLOAD DUP1 PUSH1 0xA0 ADD PUSH1 0x40 MSTORE SWAP1 DUP2 PUSH1 0x0 DUP3 ADD PUSH1 0x0 SWAP1 SLOAD SWAP1 PUSH2 0x100 EXP SWAP1 DIV PUSH20 0xFFFFFFFFFFFFFFFFFFFFFFFFFFFFFFFFFFFFFFFF AND PUSH20 0xFFFFFFFFFFFFFFFFFFFFFFFFFFFFFFFFFFFFFFFF AND PUSH20 0xFFFFFFFFFFFFFFFFFFFFFFFFFFFFFFFFFFFFFFFF AND DUP2 MSTORE PUSH1 0x20 ADD PUSH1 0x1 DUP3 ADD SLOAD DUP2 MSTORE PUSH1 0x20 ADD PUSH1 0x2 DUP3 ADD SLOAD DUP2 MSTORE PUSH1 0x20 ADD PUSH1 0x3 DUP3 ADD PUSH1 0x0 SWAP1 SLOAD SWAP1 PUSH2 0x100 EXP SWAP1 DIV PUSH1 0xFF AND ISZERO ISZERO ISZERO ISZERO DUP2 MSTORE PUSH1 0x20 ADD PUSH1 0x3 DUP3 ADD PUSH1 0x1 SWAP1 SLOAD SWAP1 PUSH2 0x100 EXP SWAP1 DIV PUSH20 0xFFFFFFFFFFFFFFFFFFFFFFFFFFFFFFFFFFFFFFFF AND PUSH20 0xFFFFFFFFFFFFFFFFFFFFFFFFFFFFFFFFFFFFFFFF AND PUSH20 0xFFFFFFFFFFFFFFFFFFFFFFFFFFFFFFFFFFFFFFFF AND DUP2 MSTORE POP POP SWAP1 POP CALLER PUSH20 0xFFFFFFFFFFFFFFFFFFFFFFFFFFFFFFFFFFFFFFFF AND DUP2 PUSH1 0x0 ADD MLOAD PUSH20 0xFFFFFFFFFFFFFFFFFFFFFFFFFFFFFFFFFFFFFFFF AND EQ PUSH2 0x1351 JUMPI PUSH1 0x40 MLOAD PUSH32 0x8C379A000000000000000000000000000000000000000000000000000000000 DUP2 MSTORE PUSH1 0x4 ADD PUSH2 0x1348 SWAP1 PUSH2 0x29CD JUMP JUMPDEST PUSH1 0x40 MLOAD DUP1 SWAP2 SUB SWAP1 REVERT JUMPDEST TIMESTAMP PUSH1 0x2 SLOAD DUP3 PUSH1 0x20 ADD MLOAD PUSH2 0x1364 SWAP2 SWAP1 PUSH2 0x2A1C JUMP JUMPDEST LT PUSH2 0x13A4 JUMPI PUSH1 0x40 MLOAD PUSH32 0x8C379A000000000000000000000000000000000000000000000000000000000 DUP2 MSTORE PUSH1 0x4 ADD PUSH2 0x139B SWAP1 PUSH2 0x2EA7 JUMP JUMPDEST PUSH1 0x40 MLOAD DUP1 SWAP2 SUB SWAP1 REVERT JUMPDEST DUP1 PUSH1 0x60 ADD MLOAD ISZERO PUSH2 0x13E9 JUMPI PUSH1 0x40 MLOAD PUSH32 0x8C379A000000000000000000000000000000000000000000000000000000000 DUP2 MSTORE PUSH1 0x4 ADD PUSH2 0x13E0 SWAP1 PUSH2 0x2B08 JUMP JUMPDEST PUSH1 0x40 MLOAD DUP1 SWAP2 SUB SWAP1 REVERT JUMPDEST DUP3 PUSH20 0xFFFFFFFFFFFFFFFFFFFFFFFFFFFFFFFFFFFFFFFF AND PUSH4 0x23B872DD ADDRESS CALLER DUP9 DUP9 DUP8 DUP2 DUP2 LT PUSH2 0x141A JUMPI PUSH2 0x1419 PUSH2 0x2952 JUMP JUMPDEST JUMPDEST SWAP1 POP PUSH1 0x20 MUL ADD CALLDATALOAD PUSH1 0x40 MLOAD DUP5 PUSH4 0xFFFFFFFF AND PUSH1 0xE0 SHL DUP2 MSTORE PUSH1 0x4 ADD PUSH2 0x143F SWAP4 SWAP3 SWAP2 SWAP1 PUSH2 0x2D94 JUMP JUMPDEST PUSH1 0x0 PUSH1 0x40 MLOAD DUP1 DUP4 SUB DUP2 PUSH1 0x0 DUP8 DUP1 EXTCODESIZE ISZERO DUP1 ISZERO PUSH2 0x1459 JUMPI PUSH1 0x0 DUP1 REVERT JUMPDEST POP GAS CALL ISZERO DUP1 ISZERO PUSH2 0x146D JUMPI RETURNDATASIZE PUSH1 0x0 DUP1 RETURNDATACOPY RETURNDATASIZE PUSH1 0x0 REVERT JUMPDEST POP POP POP POP PUSH1 0x0 PUSH2 0x1496 DUP7 DUP7 DUP6 DUP2 DUP2 LT PUSH2 0x1489 JUMPI PUSH2 0x1488 PUSH2 0x2952 JUMP JUMPDEST JUMPDEST SWAP1 POP PUSH1 0x20 MUL ADD CALLDATALOAD DUP6 PUSH2 0x1D2F JUMP JUMPDEST SWAP1 POP PUSH1 0x0 DUP3 PUSH1 0x40 ADD MLOAD DUP3 PUSH2 0x14AA SWAP2 SWAP1 PUSH2 0x2B28 JUMP JUMPDEST SWAP1 POP PUSH1 0x4 PUSH1 0x0 DUP7 PUSH20 0xFFFFFFFFFFFFFFFFFFFFFFFFFFFFFFFFFFFFFFFF AND PUSH20 0xFFFFFFFFFFFFFFFFFFFFFFFFFFFFFFFFFFFFFFFF AND DUP2 MSTORE PUSH1 0x20 ADD SWAP1 DUP2 MSTORE PUSH1 0x20 ADD PUSH1 0x0 KECCAK256 PUSH1 0x0 ADD PUSH1 0x0 SWAP1 SLOAD SWAP1 PUSH2 0x100 EXP SWAP1 DIV PUSH20 0xFFFFFFFFFFFFFFFFFFFFFFFFFFFFFFFFFFFFFFFF AND PUSH20 0xFFFFFFFFFFFFFFFFFFFFFFFFFFFFFFFFFFFFFFFF AND PUSH4 0x40C10F19 CALLER DUP4 PUSH1 0x40 MLOAD DUP4 PUSH4 0xFFFFFFFF AND PUSH1 0xE0 SHL DUP2 MSTORE PUSH1 0x4 ADD PUSH2 0x1549 SWAP3 SWAP2 SWAP1 PUSH2 0x2B5C JUMP JUMPDEST PUSH1 0x0 PUSH1 0x40 MLOAD DUP1 DUP4 SUB DUP2 PUSH1 0x0 DUP8 DUP1 EXTCODESIZE ISZERO DUP1 ISZERO PUSH2 0x1563 JUMPI PUSH1 0x0 DUP1 REVERT JUMPDEST POP GAS CALL ISZERO DUP1 ISZERO PUSH2 0x1577 JUMPI RETURNDATASIZE PUSH1 0x0 DUP1 RETURNDATACOPY RETURNDATASIZE PUSH1 0x0 REVERT JUMPDEST POP POP POP POP DUP2 PUSH1 0x3 PUSH1 0x0 DUP8 PUSH20 0xFFFFFFFFFFFFFFFFFFFFFFFFFFFFFFFFFFFFFFFF AND PUSH20 0xFFFFFFFFFFFFFFFFFFFFFFFFFFFFFFFFFFFFFFFF AND DUP2 MSTORE PUSH1 0x20 ADD SWAP1 DUP2 MSTORE PUSH1 0x20 ADD PUSH1 0x0 KECCAK256 PUSH1 0x0 DUP10 DUP10 DUP9 DUP2 DUP2 LT PUSH2 0x15D0 JUMPI PUSH2 0x15CF PUSH2 0x2952 JUMP JUMPDEST JUMPDEST SWAP1 POP PUSH1 0x20 MUL ADD CALLDATALOAD DUP2 MSTORE PUSH1 0x20 ADD SWAP1 DUP2 MSTORE PUSH1 0x20 ADD PUSH1 0x0 KECCAK256 PUSH1 0x2 ADD DUP2 SWAP1 SSTORE POP PUSH1 0x1 PUSH1 0x3 PUSH1 0x0 DUP8 PUSH20 0xFFFFFFFFFFFFFFFFFFFFFFFFFFFFFFFFFFFFFFFF AND PUSH20 0xFFFFFFFFFFFFFFFFFFFFFFFFFFFFFFFFFFFFFFFF AND DUP2 MSTORE PUSH1 0x20 ADD SWAP1 DUP2 MSTORE PUSH1 0x20 ADD PUSH1 0x0 KECCAK256 PUSH1 0x0 DUP10 DUP10 DUP9 DUP2 DUP2 LT PUSH2 0x1642 JUMPI PUSH2 0x1641 PUSH2 0x2952 JUMP JUMPDEST JUMPDEST SWAP1 POP PUSH1 0x20 MUL ADD CALLDATALOAD DUP2 MSTORE PUSH1 0x20 ADD SWAP1 DUP2 MSTORE PUSH1 0x20 ADD PUSH1 0x0 KECCAK256 PUSH1 0x3 ADD PUSH1 0x0 PUSH2 0x100 EXP DUP2 SLOAD DUP2 PUSH1 0xFF MUL NOT AND SWAP1 DUP4 ISZERO ISZERO MUL OR SWAP1 SSTORE POP POP POP POP DUP1 DUP1 PUSH2 0x167F SWAP1 PUSH2 0x2B85 JUMP JUMPDEST SWAP2 POP POP PUSH2 0x1181 JUMP JUMPDEST POP CALLER PUSH20 0xFFFFFFFFFFFFFFFFFFFFFFFFFFFFFFFFFFFFFFFF AND PUSH32 0x5CB48022479B9AC3BFB10A27965DC010ACFFC9FC1BC9A52F0B18975B944B54CA DUP5 DUP5 PUSH1 0x40 MLOAD PUSH2 0x16D0 SWAP3 SWAP2 SWAP1 PUSH2 0x2DCB JUMP JUMPDEST PUSH1 0x40 MLOAD DUP1 SWAP2 SUB SWAP1 LOG2 PUSH1 0x1 DUP1 DUP2 SWAP1 SSTORE POP POP POP POP JUMP JUMPDEST PUSH1 0x3 PUSH1 0x20 MSTORE DUP2 PUSH1 0x0 MSTORE PUSH1 0x40 PUSH1 0x0 KECCAK256 PUSH1 0x20 MSTORE DUP1 PUSH1 0x0 MSTORE PUSH1 0x40 PUSH1 0x0 KECCAK256 PUSH1 0x0 SWAP2 POP SWAP2 POP POP DUP1 PUSH1 0x0 ADD PUSH1 0x0 SWAP1 SLOAD SWAP1 PUSH2 0x100 EXP SWAP1 DIV PUSH20 0xFFFFFFFFFFFFFFFFFFFFFFFFFFFFFFFFFFFFFFFF AND SWAP1 DUP1 PUSH1 0x1 ADD SLOAD SWAP1 DUP1 PUSH1 0x2 ADD SLOAD SWAP1 DUP1 PUSH1 0x3 ADD PUSH1 0x0 SWAP1 SLOAD SWAP1 PUSH2 0x100 EXP SWAP1 DIV PUSH1 0xFF AND SWAP1 DUP1 PUSH1 0x3 ADD PUSH1 0x1 SWAP1 SLOAD SWAP1 PUSH2 0x100 EXP SWAP1 DIV PUSH20 0xFFFFFFFFFFFFFFFFFFFFFFFFFFFFFFFFFFFFFFFF AND SWAP1 POP DUP6 JUMP JUMPDEST PUSH1 0x0 PUSH1 0x3 PUSH1 0x0 DUP4 PUSH20 0xFFFFFFFFFFFFFFFFFFFFFFFFFFFFFFFFFFFFFFFF AND PUSH20 0xFFFFFFFFFFFFFFFFFFFFFFFFFFFFFFFFFFFFFFFF AND DUP2 MSTORE PUSH1 0x20 ADD SWAP1 DUP2 MSTORE PUSH1 0x20 ADD PUSH1 0x0 KECCAK256 PUSH1 0x0 DUP5 DUP2 MSTORE PUSH1 0x20 ADD SWAP1 DUP2 MSTORE PUSH1 0x20 ADD PUSH1 0x0 KECCAK256 PUSH1 0x2 ADD SLOAD SWAP1 POP SWAP3 SWAP2 POP POP JUMP JUMPDEST PUSH1 0x5 SLOAD DUP2 JUMP JUMPDEST PUSH1 0x4 PUSH1 0x20 MSTORE DUP1 PUSH1 0x0 MSTORE PUSH1 0x40 PUSH1 0x0 KECCAK256 PUSH1 0x0 SWAP2 POP SWAP1 POP DUP1 PUSH1 0x0 ADD PUSH1 0x0 SWAP1 SLOAD SWAP1 PUSH2 0x100 EXP SWAP1 DIV PUSH20 0xFFFFFFFFFFFFFFFFFFFFFFFFFFFFFFFFFFFFFFFF AND SWAP1 DUP1 PUSH1 0x1 ADD SLOAD SWAP1 DUP1 PUSH1 0x2 ADD SLOAD SWAP1 POP DUP4 JUMP JUMPDEST PUSH2 0x182A PUSH2 0x1F0D JUMP JUMPDEST PUSH1 0x0 JUMPDEST DUP5 MLOAD DUP2 LT ISZERO PUSH2 0x1C82 JUMPI PUSH1 0x0 PUSH20 0xFFFFFFFFFFFFFFFFFFFFFFFFFFFFFFFFFFFFFFFF AND DUP6 DUP3 DUP2 MLOAD DUP2 LT PUSH2 0x1861 JUMPI PUSH2 0x1860 PUSH2 0x2952 JUMP JUMPDEST JUMPDEST PUSH1 0x20 MUL PUSH1 0x20 ADD ADD MLOAD PUSH20 0xFFFFFFFFFFFFFFFFFFFFFFFFFFFFFFFFFFFFFFFF AND SUB PUSH2 0x18BF JUMPI PUSH1 0x40 MLOAD PUSH32 0x8C379A000000000000000000000000000000000000000000000000000000000 DUP2 MSTORE PUSH1 0x4 ADD PUSH2 0x18B6 SWAP1 PUSH2 0x2F13 JUMP JUMPDEST PUSH1 0x40 MLOAD DUP1 SWAP2 SUB SWAP1 REVERT JUMPDEST PUSH1 0x0 PUSH20 0xFFFFFFFFFFFFFFFFFFFFFFFFFFFFFFFFFFFFFFFF AND DUP5 DUP3 DUP2 MLOAD DUP2 LT PUSH2 0x18EA JUMPI PUSH2 0x18E9 PUSH2 0x2952 JUMP JUMPDEST JUMPDEST PUSH1 0x20 MUL PUSH1 0x20 ADD ADD MLOAD PUSH20 0xFFFFFFFFFFFFFFFFFFFFFFFFFFFFFFFFFFFFFFFF AND SUB PUSH2 0x1948 JUMPI PUSH1 0x40 MLOAD PUSH32 0x8C379A000000000000000000000000000000000000000000000000000000000 DUP2 MSTORE PUSH1 0x4 ADD PUSH2 0x193F SWAP1 PUSH2 0x2F7F JUMP JUMPDEST PUSH1 0x40 MLOAD DUP1 SWAP2 SUB SWAP1 REVERT JUMPDEST DUP5 DUP2 DUP2 MLOAD DUP2 LT PUSH2 0x195B JUMPI PUSH2 0x195A PUSH2 0x2952 JUMP JUMPDEST JUMPDEST PUSH1 0x20 MUL PUSH1 0x20 ADD ADD MLOAD PUSH20 0xFFFFFFFFFFFFFFFFFFFFFFFFFFFFFFFFFFFFFFFF AND PUSH4 0x1FFC9A7 PUSH4 0x80AC58CD PUSH1 0x40 MLOAD DUP3 PUSH4 0xFFFFFFFF AND PUSH1 0xE0 SHL DUP2 MSTORE PUSH1 0x4 ADD PUSH2 0x199F SWAP2 SWAP1 PUSH2 0x3013 JUMP JUMPDEST PUSH1 0x20 PUSH1 0x40 MLOAD DUP1 DUP4 SUB DUP2 DUP7 GAS STATICCALL ISZERO DUP1 ISZERO PUSH2 0x19BC JUMPI RETURNDATASIZE PUSH1 0x0 DUP1 RETURNDATACOPY RETURNDATASIZE PUSH1 0x0 REVERT JUMPDEST POP POP POP POP PUSH1 0x40 MLOAD RETURNDATASIZE PUSH1 0x1F NOT PUSH1 0x1F DUP3 ADD AND DUP3 ADD DUP1 PUSH1 0x40 MSTORE POP DUP2 ADD SWAP1 PUSH2 0x19E0 SWAP2 SWAP1 PUSH2 0x305A JUMP JUMPDEST PUSH2 0x1A1F JUMPI PUSH1 0x40 MLOAD PUSH32 0x8C379A000000000000000000000000000000000000000000000000000000000 DUP2 MSTORE PUSH1 0x4 ADD PUSH2 0x1A16 SWAP1 PUSH2 0x30D3 JUMP JUMPDEST PUSH1 0x40 MLOAD DUP1 SWAP2 SUB SWAP1 REVERT JUMPDEST DUP4 DUP2 DUP2 MLOAD DUP2 LT PUSH2 0x1A32 JUMPI PUSH2 0x1A31 PUSH2 0x2952 JUMP JUMPDEST JUMPDEST PUSH1 0x20 MUL PUSH1 0x20 ADD ADD MLOAD PUSH1 0x4 PUSH1 0x0 DUP8 DUP5 DUP2 MLOAD DUP2 LT PUSH2 0x1A51 JUMPI PUSH2 0x1A50 PUSH2 0x2952 JUMP JUMPDEST JUMPDEST PUSH1 0x20 MUL PUSH1 0x20 ADD ADD MLOAD PUSH20 0xFFFFFFFFFFFFFFFFFFFFFFFFFFFFFFFFFFFFFFFF AND PUSH20 0xFFFFFFFFFFFFFFFFFFFFFFFFFFFFFFFFFFFFFFFF AND DUP2 MSTORE PUSH1 0x20 ADD SWAP1 DUP2 MSTORE PUSH1 0x20 ADD PUSH1 0x0 KECCAK256 PUSH1 0x0 ADD PUSH1 0x0 PUSH2 0x100 EXP DUP2 SLOAD DUP2 PUSH20 0xFFFFFFFFFFFFFFFFFFFFFFFFFFFFFFFFFFFFFFFF MUL NOT AND SWAP1 DUP4 PUSH20 0xFFFFFFFFFFFFFFFFFFFFFFFFFFFFFFFFFFFFFFFF AND MUL OR SWAP1 SSTORE POP DUP3 DUP2 DUP2 MLOAD DUP2 LT PUSH2 0x1AE7 JUMPI PUSH2 0x1AE6 PUSH2 0x2952 JUMP JUMPDEST JUMPDEST PUSH1 0x20 MUL PUSH1 0x20 ADD ADD MLOAD PUSH1 0x4 PUSH1 0x0 DUP8 DUP5 DUP2 MLOAD DUP2 LT PUSH2 0x1B06 JUMPI PUSH2 0x1B05 PUSH2 0x2952 JUMP JUMPDEST JUMPDEST PUSH1 0x20 MUL PUSH1 0x20 ADD ADD MLOAD PUSH20 0xFFFFFFFFFFFFFFFFFFFFFFFFFFFFFFFFFFFFFFFF AND PUSH20 0xFFFFFFFFFFFFFFFFFFFFFFFFFFFFFFFFFFFFFFFF AND DUP2 MSTORE PUSH1 0x20 ADD SWAP1 DUP2 MSTORE PUSH1 0x20 ADD PUSH1 0x0 KECCAK256 PUSH1 0x1 ADD DUP2 SWAP1 SSTORE POP DUP2 DUP2 DUP2 MLOAD DUP2 LT PUSH2 0x1B62 JUMPI PUSH2 0x1B61 PUSH2 0x2952 JUMP JUMPDEST JUMPDEST PUSH1 0x20 MUL PUSH1 0x20 ADD ADD MLOAD PUSH1 0x4 PUSH1 0x0 DUP8 DUP5 DUP2 MLOAD DUP2 LT PUSH2 0x1B81 JUMPI PUSH2 0x1B80 PUSH2 0x2952 JUMP JUMPDEST JUMPDEST PUSH1 0x20 MUL PUSH1 0x20 ADD ADD MLOAD PUSH20 0xFFFFFFFFFFFFFFFFFFFFFFFFFFFFFFFFFFFFFFFF AND PUSH20 0xFFFFFFFFFFFFFFFFFFFFFFFFFFFFFFFFFFFFFFFF AND DUP2 MSTORE PUSH1 0x20 ADD SWAP1 DUP2 MSTORE PUSH1 0x20 ADD PUSH1 0x0 KECCAK256 PUSH1 0x2 ADD DUP2 SWAP1 SSTORE POP PUSH32 0x4CAC4760C34EDBB38AA036D2C4D21B2AB3010607DD83F0CAB6FDC121DB4A260 DUP6 DUP3 DUP2 MLOAD DUP2 LT PUSH2 0x1BFE JUMPI PUSH2 0x1BFD PUSH2 0x2952 JUMP JUMPDEST JUMPDEST PUSH1 0x20 MUL PUSH1 0x20 ADD ADD MLOAD DUP6 DUP4 DUP2 MLOAD DUP2 LT PUSH2 0x1C19 JUMPI PUSH2 0x1C18 PUSH2 0x2952 JUMP JUMPDEST JUMPDEST PUSH1 0x20 MUL PUSH1 0x20 ADD ADD MLOAD DUP6 DUP5 DUP2 MLOAD DUP2 LT PUSH2 0x1C34 JUMPI PUSH2 0x1C33 PUSH2 0x2952 JUMP JUMPDEST JUMPDEST PUSH1 0x20 MUL PUSH1 0x20 ADD ADD MLOAD DUP6 DUP6 DUP2 MLOAD DUP2 LT PUSH2 0x1C4F JUMPI PUSH2 0x1C4E PUSH2 0x2952 JUMP JUMPDEST JUMPDEST PUSH1 0x20 MUL PUSH1 0x20 ADD ADD MLOAD PUSH1 0x40 MLOAD PUSH2 0x1C67 SWAP5 SWAP4 SWAP3 SWAP2 SWAP1 PUSH2 0x30F3 JUMP JUMPDEST PUSH1 0x40 MLOAD DUP1 SWAP2 SUB SWAP1 LOG1 DUP1 DUP1 PUSH2 0x1C7A SWAP1 PUSH2 0x2B85 JUMP JUMPDEST SWAP2 POP POP PUSH2 0x182D JUMP JUMPDEST POP POP POP POP POP JUMP JUMPDEST PUSH2 0x1C91 PUSH2 0x1F0D JUMP JUMPDEST PUSH1 0x0 PUSH20 0xFFFFFFFFFFFFFFFFFFFFFFFFFFFFFFFFFFFFFFFF AND DUP2 PUSH20 0xFFFFFFFFFFFFFFFFFFFFFFFFFFFFFFFFFFFFFFFF AND SUB PUSH2 0x1D00 JUMPI PUSH1 0x40 MLOAD PUSH32 0x8C379A000000000000000000000000000000000000000000000000000000000 DUP2 MSTORE PUSH1 0x4 ADD PUSH2 0x1CF7 SWAP1 PUSH2 0x31AA JUMP JUMPDEST PUSH1 0x40 MLOAD DUP1 SWAP2 SUB SWAP1 REVERT JUMPDEST PUSH2 0x1D09 DUP2 PUSH2 0x1F8B JUMP JUMPDEST POP JUMP JUMPDEST PUSH1 0x0 DUP1 DUP3 PUSH20 0xFFFFFFFFFFFFFFFFFFFFFFFFFFFFFFFFFFFFFFFF AND EXTCODESIZE GT SWAP1 POP SWAP2 SWAP1 POP JUMP JUMPDEST PUSH1 0x0 DUP1 PUSH1 0x3 PUSH1 0x0 DUP5 PUSH20 0xFFFFFFFFFFFFFFFFFFFFFFFFFFFFFFFFFFFFFFFF AND PUSH20 0xFFFFFFFFFFFFFFFFFFFFFFFFFFFFFFFFFFFFFFFF AND DUP2 MSTORE PUSH1 0x20 ADD SWAP1 DUP2 MSTORE PUSH1 0x20 ADD PUSH1 0x0 KECCAK256 PUSH1 0x0 DUP6 DUP2 MSTORE PUSH1 0x20 ADD SWAP1 DUP2 MSTORE PUSH1 0x20 ADD PUSH1 0x0 KECCAK256 PUSH1 0x40 MLOAD DUP1 PUSH1 0xA0 ADD PUSH1 0x40 MSTORE SWAP1 DUP2 PUSH1 0x0 DUP3 ADD PUSH1 0x0 SWAP1 SLOAD SWAP1 PUSH2 0x100 EXP SWAP1 DIV PUSH20 0xFFFFFFFFFFFFFFFFFFFFFFFFFFFFFFFFFFFFFFFF AND PUSH20 0xFFFFFFFFFFFFFFFFFFFFFFFFFFFFFFFFFFFFFFFF AND PUSH20 0xFFFFFFFFFFFFFFFFFFFFFFFFFFFFFFFFFFFFFFFF AND DUP2 MSTORE PUSH1 0x20 ADD PUSH1 0x1 DUP3 ADD SLOAD DUP2 MSTORE PUSH1 0x20 ADD PUSH1 0x2 DUP3 ADD SLOAD DUP2 MSTORE PUSH1 0x20 ADD PUSH1 0x3 DUP3 ADD PUSH1 0x0 SWAP1 SLOAD SWAP1 PUSH2 0x100 EXP SWAP1 DIV PUSH1 0xFF AND ISZERO ISZERO ISZERO ISZERO DUP2 MSTORE PUSH1 0x20 ADD PUSH1 0x3 DUP3 ADD PUSH1 0x1 SWAP1 SLOAD SWAP1 PUSH2 0x100 EXP SWAP1 DIV PUSH20 0xFFFFFFFFFFFFFFFFFFFFFFFFFFFFFFFFFFFFFFFF AND PUSH20 0xFFFFFFFFFFFFFFFFFFFFFFFFFFFFFFFFFFFFFFFF AND PUSH20 0xFFFFFFFFFFFFFFFFFFFFFFFFFFFFFFFFFFFFFFFF AND DUP2 MSTORE POP POP SWAP1 POP PUSH1 0x0 DUP2 PUSH1 0x20 ADD MLOAD TIMESTAMP PUSH2 0x1E7C SWAP2 SWAP1 PUSH2 0x2B28 JUMP JUMPDEST SWAP1 POP PUSH1 0x0 PUSH1 0x2 SLOAD DUP3 LT ISZERO PUSH2 0x1E96 JUMPI PUSH1 0x0 SWAP4 POP POP POP POP PUSH2 0x1F07 JUMP JUMPDEST PUSH1 0x5 SLOAD PUSH1 0x2 SLOAD DUP4 PUSH2 0x1EA7 SWAP2 SWAP1 PUSH2 0x2B28 JUMP JUMPDEST PUSH1 0x4 PUSH1 0x0 DUP9 PUSH20 0xFFFFFFFFFFFFFFFFFFFFFFFFFFFFFFFFFFFFFFFF AND PUSH20 0xFFFFFFFFFFFFFFFFFFFFFFFFFFFFFFFFFFFFFFFF AND DUP2 MSTORE PUSH1 0x20 ADD SWAP1 DUP2 MSTORE PUSH1 0x20 ADD PUSH1 0x0 KECCAK256 PUSH1 0x1 ADD SLOAD PUSH2 0x1EF4 SWAP2 SWAP1 PUSH2 0x31CA JUMP JUMPDEST PUSH2 0x1EFE SWAP2 SWAP1 PUSH2 0x3253 JUMP JUMPDEST SWAP1 POP DUP1 SWAP4 POP POP POP POP JUMPDEST SWAP3 SWAP2 POP POP JUMP JUMPDEST PUSH2 0x1F15 PUSH2 0x204F JUMP JUMPDEST PUSH20 0xFFFFFFFFFFFFFFFFFFFFFFFFFFFFFFFFFFFFFFFF AND PUSH2 0x1F33 PUSH2 0xF24 JUMP JUMPDEST PUSH20 0xFFFFFFFFFFFFFFFFFFFFFFFFFFFFFFFFFFFFFFFF AND EQ PUSH2 0x1F89 JUMPI PUSH1 0x40 MLOAD PUSH32 0x8C379A000000000000000000000000000000000000000000000000000000000 DUP2 MSTORE PUSH1 0x4 ADD PUSH2 0x1F80 SWAP1 PUSH2 0x32D0 JUMP JUMPDEST PUSH1 0x40 MLOAD DUP1 SWAP2 SUB SWAP1 REVERT JUMPDEST JUMP JUMPDEST PUSH1 0x0 DUP1 PUSH1 0x0 SWAP1 SLOAD SWAP1 PUSH2 0x100 EXP SWAP1 DIV PUSH20 0xFFFFFFFFFFFFFFFFFFFFFFFFFFFFFFFFFFFFFFFF AND SWAP1 POP DUP2 PUSH1 0x0 DUP1 PUSH2 0x100 EXP DUP2 SLOAD DUP2 PUSH20 0xFFFFFFFFFFFFFFFFFFFFFFFFFFFFFFFFFFFFFFFF MUL NOT AND SWAP1 DUP4 PUSH20 0xFFFFFFFFFFFFFFFFFFFFFFFFFFFFFFFFFFFFFFFF AND MUL OR SWAP1 SSTORE POP DUP2 PUSH20 0xFFFFFFFFFFFFFFFFFFFFFFFFFFFFFFFFFFFFFFFF AND DUP2 PUSH20 0xFFFFFFFFFFFFFFFFFFFFFFFFFFFFFFFFFFFFFFFF AND PUSH32 0x8BE0079C531659141344CD1FD0A4F28419497F9722A3DAAFE3B4186F6B6457E0 PUSH1 0x40 MLOAD PUSH1 0x40 MLOAD DUP1 SWAP2 SUB SWAP1 LOG3 POP POP JUMP JUMPDEST PUSH1 0x0 CALLER SWAP1 POP SWAP1 JUMP JUMPDEST PUSH1 0x0 PUSH1 0x40 MLOAD SWAP1 POP SWAP1 JUMP JUMPDEST PUSH1 0x0 DUP1 REVERT JUMPDEST PUSH1 0x0 DUP1 REVERT JUMPDEST PUSH1 0x0 DUP1 REVERT JUMPDEST PUSH1 0x0 DUP1 REVERT JUMPDEST PUSH1 0x0 DUP1 REVERT JUMPDEST PUSH1 0x0 DUP1 DUP4 PUSH1 0x1F DUP5 ADD SLT PUSH2 0x2090 JUMPI PUSH2 0x208F PUSH2 0x206B JUMP JUMPDEST JUMPDEST DUP3 CALLDATALOAD SWAP1 POP PUSH8 0xFFFFFFFFFFFFFFFF DUP2 GT ISZERO PUSH2 0x20AD JUMPI PUSH2 0x20AC PUSH2 0x2070 JUMP JUMPDEST JUMPDEST PUSH1 0x20 DUP4 ADD SWAP2 POP DUP4 PUSH1 0x20 DUP3 MUL DUP4 ADD GT ISZERO PUSH2 0x20C9 JUMPI PUSH2 0x20C8 PUSH2 0x2075 JUMP JUMPDEST JUMPDEST SWAP3 POP SWAP3 SWAP1 POP JUMP JUMPDEST PUSH1 0x0 PUSH20 0xFFFFFFFFFFFFFFFFFFFFFFFFFFFFFFFFFFFFFFFF DUP3 AND SWAP1 POP SWAP2 SWAP1 POP JUMP JUMPDEST PUSH1 0x0 PUSH2 0x20FB DUP3 PUSH2 0x20D0 JUMP JUMPDEST SWAP1 POP SWAP2 SWAP1 POP JUMP JUMPDEST PUSH1 0x0 PUSH2 0x210D DUP3 PUSH2 0x20F0 JUMP JUMPDEST SWAP1 POP SWAP2 SWAP1 POP JUMP JUMPDEST PUSH2 0x211D DUP2 PUSH2 0x2102 JUMP JUMPDEST DUP2 EQ PUSH2 0x2128 JUMPI PUSH1 0x0 DUP1 REVERT JUMPDEST POP JUMP JUMPDEST PUSH1 0x0 DUP2 CALLDATALOAD SWAP1 POP PUSH2 0x213A DUP2 PUSH2 0x2114 JUMP JUMPDEST SWAP3 SWAP2 POP POP JUMP JUMPDEST PUSH1 0x0 DUP1 PUSH1 0x0 PUSH1 0x40 DUP5 DUP7 SUB SLT ISZERO PUSH2 0x2159 JUMPI PUSH2 0x2158 PUSH2 0x2061 JUMP JUMPDEST JUMPDEST PUSH1 0x0 DUP5 ADD CALLDATALOAD PUSH8 0xFFFFFFFFFFFFFFFF DUP2 GT ISZERO PUSH2 0x2177 JUMPI PUSH2 0x2176 PUSH2 0x2066 JUMP JUMPDEST JUMPDEST PUSH2 0x2183 DUP7 DUP3 DUP8 ADD PUSH2 0x207A JUMP JUMPDEST SWAP4 POP SWAP4 POP POP PUSH1 0x20 PUSH2 0x2196 DUP7 DUP3 DUP8 ADD PUSH2 0x212B JUMP JUMPDEST SWAP2 POP POP SWAP3 POP SWAP3 POP SWAP3 JUMP JUMPDEST PUSH1 0x0 DUP2 SWAP1 POP SWAP2 SWAP1 POP JUMP JUMPDEST PUSH2 0x21B3 DUP2 PUSH2 0x21A0 JUMP JUMPDEST DUP3 MSTORE POP POP JUMP JUMPDEST PUSH1 0x0 PUSH1 0x20 DUP3 ADD SWAP1 POP PUSH2 0x21CE PUSH1 0x0 DUP4 ADD DUP5 PUSH2 0x21AA JUMP JUMPDEST SWAP3 SWAP2 POP POP JUMP JUMPDEST PUSH2 0x21DD DUP2 PUSH2 0x21A0 JUMP JUMPDEST DUP2 EQ PUSH2 0x21E8 JUMPI PUSH1 0x0 DUP1 REVERT JUMPDEST POP JUMP JUMPDEST PUSH1 0x0 DUP2 CALLDATALOAD SWAP1 POP PUSH2 0x21FA DUP2 PUSH2 0x21D4 JUMP JUMPDEST SWAP3 SWAP2 POP POP JUMP JUMPDEST PUSH1 0x0 PUSH1 0x20 DUP3 DUP5 SUB SLT ISZERO PUSH2 0x2216 JUMPI PUSH2 0x2215 PUSH2 0x2061 JUMP JUMPDEST JUMPDEST PUSH1 0x0 PUSH2 0x2224 DUP5 DUP3 DUP6 ADD PUSH2 0x21EB JUMP JUMPDEST SWAP2 POP POP SWAP3 SWAP2 POP POP JUMP JUMPDEST PUSH2 0x2236 DUP2 PUSH2 0x20F0 JUMP JUMPDEST DUP3 MSTORE POP POP JUMP JUMPDEST PUSH1 0x0 PUSH1 0x20 DUP3 ADD SWAP1 POP PUSH2 0x2251 PUSH1 0x0 DUP4 ADD DUP5 PUSH2 0x222D JUMP JUMPDEST SWAP3 SWAP2 POP POP JUMP JUMPDEST PUSH1 0x0 DUP1 PUSH1 0x40 DUP4 DUP6 SUB SLT ISZERO PUSH2 0x226E JUMPI PUSH2 0x226D PUSH2 0x2061 JUMP JUMPDEST JUMPDEST PUSH1 0x0 PUSH2 0x227C DUP6 DUP3 DUP7 ADD PUSH2 0x212B JUMP JUMPDEST SWAP3 POP POP PUSH1 0x20 PUSH2 0x228D DUP6 DUP3 DUP7 ADD PUSH2 0x21EB JUMP JUMPDEST SWAP2 POP POP SWAP3 POP SWAP3 SWAP1 POP JUMP JUMPDEST PUSH1 0x0 DUP2 ISZERO ISZERO SWAP1 POP SWAP2 SWAP1 POP JUMP JUMPDEST PUSH2 0x22AC DUP2 PUSH2 0x2297 JUMP JUMPDEST DUP3 MSTORE POP POP JUMP JUMPDEST PUSH1 0x0 DUP2 SWAP1 POP SWAP2 SWAP1 POP JUMP JUMPDEST PUSH1 0x0 PUSH2 0x22D7 PUSH2 0x22D2 PUSH2 0x22CD DUP5 PUSH2 0x20D0 JUMP JUMPDEST PUSH2 0x22B2 JUMP JUMPDEST PUSH2 0x20D0 JUMP JUMPDEST SWAP1 POP SWAP2 SWAP1 POP JUMP JUMPDEST PUSH1 0x0 PUSH2 0x22E9 DUP3 PUSH2 0x22BC JUMP JUMPDEST SWAP1 POP SWAP2 SWAP1 POP JUMP JUMPDEST PUSH1 0x0 PUSH2 0x22FB DUP3 PUSH2 0x22DE JUMP JUMPDEST SWAP1 POP SWAP2 SWAP1 POP JUMP JUMPDEST PUSH2 0x230B DUP2 PUSH2 0x22F0 JUMP JUMPDEST DUP3 MSTORE POP POP JUMP JUMPDEST PUSH1 0x0 PUSH1 0xA0 DUP3 ADD SWAP1 POP PUSH2 0x2326 PUSH1 0x0 DUP4 ADD DUP9 PUSH2 0x222D JUMP JUMPDEST PUSH2 0x2333 PUSH1 0x20 DUP4 ADD DUP8 PUSH2 0x21AA JUMP JUMPDEST PUSH2 0x2340 PUSH1 0x40 DUP4 ADD DUP7 PUSH2 0x21AA JUMP JUMPDEST PUSH2 0x234D PUSH1 0x60 DUP4 ADD DUP6 PUSH2 0x22A3 JUMP JUMPDEST PUSH2 0x235A PUSH1 0x80 DUP4 ADD DUP5 PUSH2 0x2302 JUMP JUMPDEST SWAP7 SWAP6 POP POP POP POP POP POP JUMP JUMPDEST PUSH1 0x0 DUP1 PUSH1 0x40 DUP4 DUP6 SUB SLT ISZERO PUSH2 0x237B JUMPI PUSH2 0x237A PUSH2 0x2061 JUMP JUMPDEST JUMPDEST PUSH1 0x0 PUSH2 0x2389 DUP6 DUP3 DUP7 ADD PUSH2 0x21EB JUMP JUMPDEST SWAP3 POP POP PUSH1 0x20 PUSH2 0x239A DUP6 DUP3 DUP7 ADD PUSH2 0x212B JUMP JUMPDEST SWAP2 POP POP SWAP3 POP SWAP3 SWAP1 POP JUMP JUMPDEST PUSH1 0x0 PUSH1 0x20 DUP3 DUP5 SUB SLT ISZERO PUSH2 0x23BA JUMPI PUSH2 0x23B9 PUSH2 0x2061 JUMP JUMPDEST JUMPDEST PUSH1 0x0 PUSH2 0x23C8 DUP5 DUP3 DUP6 ADD PUSH2 0x212B JUMP JUMPDEST SWAP2 POP POP SWAP3 SWAP2 POP POP JUMP JUMPDEST PUSH1 0x0 PUSH2 0x23DC DUP3 PUSH2 0x22DE JUMP JUMPDEST SWAP1 POP SWAP2 SWAP1 POP JUMP JUMPDEST PUSH2 0x23EC DUP2 PUSH2 0x23D1 JUMP JUMPDEST DUP3 MSTORE POP POP JUMP JUMPDEST PUSH1 0x0 PUSH1 0x60 DUP3 ADD SWAP1 POP PUSH2 0x2407 PUSH1 0x0 DUP4 ADD DUP7 PUSH2 0x23E3 JUMP JUMPDEST PUSH2 0x2414 PUSH1 0x20 DUP4 ADD DUP6 PUSH2 0x21AA JUMP JUMPDEST PUSH2 0x2421 PUSH1 0x40 DUP4 ADD DUP5 PUSH2 0x21AA JUMP JUMPDEST SWAP5 SWAP4 POP POP POP POP JUMP JUMPDEST PUSH1 0x0 PUSH1 0x1F NOT PUSH1 0x1F DUP4 ADD AND SWAP1 POP SWAP2 SWAP1 POP JUMP JUMPDEST PUSH32 0x4E487B7100000000000000000000000000000000000000000000000000000000 PUSH1 0x0 MSTORE PUSH1 0x41 PUSH1 0x4 MSTORE PUSH1 0x24 PUSH1 0x0 REVERT JUMPDEST PUSH2 0x2472 DUP3 PUSH2 0x2429 JUMP JUMPDEST DUP2 ADD DUP2 DUP2 LT PUSH8 0xFFFFFFFFFFFFFFFF DUP3 GT OR ISZERO PUSH2 0x2491 JUMPI PUSH2 0x2490 PUSH2 0x243A JUMP JUMPDEST JUMPDEST DUP1 PUSH1 0x40 MSTORE POP POP POP JUMP JUMPDEST PUSH1 0x0 PUSH2 0x24A4 PUSH2 0x2057 JUMP JUMPDEST SWAP1 POP PUSH2 0x24B0 DUP3 DUP3 PUSH2 0x2469 JUMP JUMPDEST SWAP2 SWAP1 POP JUMP JUMPDEST PUSH1 0x0 PUSH8 0xFFFFFFFFFFFFFFFF DUP3 GT ISZERO PUSH2 0x24D0 JUMPI PUSH2 0x24CF PUSH2 0x243A JUMP JUMPDEST JUMPDEST PUSH1 0x20 DUP3 MUL SWAP1 POP PUSH1 0x20 DUP2 ADD SWAP1 POP SWAP2 SWAP1 POP JUMP JUMPDEST PUSH2 0x24EA DUP2 PUSH2 0x20F0 JUMP JUMPDEST DUP2 EQ PUSH2 0x24F5 JUMPI PUSH1 0x0 DUP1 REVERT JUMPDEST POP JUMP JUMPDEST PUSH1 0x0 DUP2 CALLDATALOAD SWAP1 POP PUSH2 0x2507 DUP2 PUSH2 0x24E1 JUMP JUMPDEST SWAP3 SWAP2 POP POP JUMP JUMPDEST PUSH1 0x0 PUSH2 0x2520 PUSH2 0x251B DUP5 PUSH2 0x24B5 JUMP JUMPDEST PUSH2 0x249A JUMP JUMPDEST SWAP1 POP DUP1 DUP4 DUP3 MSTORE PUSH1 0x20 DUP3 ADD SWAP1 POP PUSH1 0x20 DUP5 MUL DUP4 ADD DUP6 DUP2 GT ISZERO PUSH2 0x2543 JUMPI PUSH2 0x2542 PUSH2 0x2075 JUMP JUMPDEST JUMPDEST DUP4 JUMPDEST DUP2 DUP2 LT ISZERO PUSH2 0x256C JUMPI DUP1 PUSH2 0x2558 DUP9 DUP3 PUSH2 0x24F8 JUMP JUMPDEST DUP5 MSTORE PUSH1 0x20 DUP5 ADD SWAP4 POP POP PUSH1 0x20 DUP2 ADD SWAP1 POP PUSH2 0x2545 JUMP JUMPDEST POP POP POP SWAP4 SWAP3 POP POP POP JUMP JUMPDEST PUSH1 0x0 DUP3 PUSH1 0x1F DUP4 ADD SLT PUSH2 0x258B JUMPI PUSH2 0x258A PUSH2 0x206B JUMP JUMPDEST JUMPDEST DUP2 CALLDATALOAD PUSH2 0x259B DUP5 DUP3 PUSH1 0x20 DUP7 ADD PUSH2 0x250D JUMP JUMPDEST SWAP2 POP POP SWAP3 SWAP2 POP POP JUMP JUMPDEST PUSH1 0x0 PUSH8 0xFFFFFFFFFFFFFFFF DUP3 GT ISZERO PUSH2 0x25BF JUMPI PUSH2 0x25BE PUSH2 0x243A JUMP JUMPDEST JUMPDEST PUSH1 0x20 DUP3 MUL SWAP1 POP PUSH1 0x20 DUP2 ADD SWAP1 POP SWAP2 SWAP1 POP JUMP JUMPDEST PUSH1 0x0 PUSH2 0x25E3 PUSH2 0x25DE DUP5 PUSH2 0x25A4 JUMP JUMPDEST PUSH2 0x249A JUMP JUMPDEST SWAP1 POP DUP1 DUP4 DUP3 MSTORE PUSH1 0x20 DUP3 ADD SWAP1 POP PUSH1 0x20 DUP5 MUL DUP4 ADD DUP6 DUP2 GT ISZERO PUSH2 0x2606 JUMPI PUSH2 0x2605 PUSH2 0x2075 JUMP JUMPDEST JUMPDEST DUP4 JUMPDEST DUP2 DUP2 LT ISZERO PUSH2 0x262F JUMPI DUP1 PUSH2 0x261B DUP9 DUP3 PUSH2 0x21EB JUMP JUMPDEST DUP5 MSTORE PUSH1 0x20 DUP5 ADD SWAP4 POP POP PUSH1 0x20 DUP2 ADD SWAP1 POP PUSH2 0x2608 JUMP JUMPDEST POP POP POP SWAP4 SWAP3 POP POP POP JUMP JUMPDEST PUSH1 0x0 DUP3 PUSH1 0x1F DUP4 ADD SLT PUSH2 0x264E JUMPI PUSH2 0x264D PUSH2 0x206B JUMP JUMPDEST JUMPDEST DUP2 CALLDATALOAD PUSH2 0x265E DUP5 DUP3 PUSH1 0x20 DUP7 ADD PUSH2 0x25D0 JUMP JUMPDEST SWAP2 POP POP SWAP3 SWAP2 POP POP JUMP JUMPDEST PUSH1 0x0 DUP1 PUSH1 0x0 DUP1 PUSH1 0x80 DUP6 DUP8 SUB SLT ISZERO PUSH2 0x2681 JUMPI PUSH2 0x2680 PUSH2 0x2061 JUMP JUMPDEST JUMPDEST PUSH1 0x0 DUP6 ADD CALLDATALOAD PUSH8 0xFFFFFFFFFFFFFFFF DUP2 GT ISZERO PUSH2 0x269F JUMPI PUSH2 0x269E PUSH2 0x2066 JUMP JUMPDEST JUMPDEST PUSH2 0x26AB DUP8 DUP3 DUP9 ADD PUSH2 0x2576 JUMP JUMPDEST SWAP5 POP POP PUSH1 0x20 DUP6 ADD CALLDATALOAD PUSH8 0xFFFFFFFFFFFFFFFF DUP2 GT ISZERO PUSH2 0x26CC JUMPI PUSH2 0x26CB PUSH2 0x2066 JUMP JUMPDEST JUMPDEST PUSH2 0x26D8 DUP8 DUP3 DUP9 ADD PUSH2 0x2576 JUMP JUMPDEST SWAP4 POP POP PUSH1 0x40 DUP6 ADD CALLDATALOAD PUSH8 0xFFFFFFFFFFFFFFFF DUP2 GT ISZERO PUSH2 0x26F9 JUMPI PUSH2 0x26F8 PUSH2 0x2066 JUMP JUMPDEST JUMPDEST PUSH2 0x2705 DUP8 DUP3 DUP9 ADD PUSH2 0x2639 JUMP JUMPDEST SWAP3 POP POP PUSH1 0x60 DUP6 ADD CALLDATALOAD PUSH8 0xFFFFFFFFFFFFFFFF DUP2 GT ISZERO PUSH2 0x2726 JUMPI PUSH2 0x2725 PUSH2 0x2066 JUMP JUMPDEST JUMPDEST PUSH2 0x2732 DUP8 DUP3 DUP9 ADD PUSH2 0x2639 JUMP JUMPDEST SWAP2 POP POP SWAP3 SWAP6 SWAP2 SWAP5 POP SWAP3 POP JUMP JUMPDEST PUSH1 0x0 PUSH1 0x20 DUP3 DUP5 SUB SLT ISZERO PUSH2 0x2754 JUMPI PUSH2 0x2753 PUSH2 0x2061 JUMP JUMPDEST JUMPDEST PUSH1 0x0 PUSH2 0x2762 DUP5 DUP3 DUP6 ADD PUSH2 0x24F8 JUMP JUMPDEST SWAP2 POP POP SWAP3 SWAP2 POP POP JUMP JUMPDEST PUSH1 0x0 DUP3 DUP3 MSTORE PUSH1 0x20 DUP3 ADD SWAP1 POP SWAP3 SWAP2 POP POP JUMP JUMPDEST PUSH32 0x436F6E7472616374206E6F7420616C6C6F776564000000000000000000000000 PUSH1 0x0 DUP3 ADD MSTORE POP JUMP JUMPDEST PUSH1 0x0 PUSH2 0x27B2 PUSH1 0x14 DUP4 PUSH2 0x276B JUMP JUMPDEST SWAP2 POP PUSH2 0x27BD DUP3 PUSH2 0x277C JUMP JUMPDEST PUSH1 0x20 DUP3 ADD SWAP1 POP SWAP2 SWAP1 POP JUMP JUMPDEST PUSH1 0x0 PUSH1 0x20 DUP3 ADD SWAP1 POP DUP2 DUP2 SUB PUSH1 0x0 DUP4 ADD MSTORE PUSH2 0x27E1 DUP2 PUSH2 0x27A5 JUMP JUMPDEST SWAP1 POP SWAP2 SWAP1 POP JUMP JUMPDEST PUSH32 0x50726F787920636F6E7472616374206E6F7420616C6C6F776564000000000000 PUSH1 0x0 DUP3 ADD MSTORE POP JUMP JUMPDEST PUSH1 0x0 PUSH2 0x281E PUSH1 0x1A DUP4 PUSH2 0x276B JUMP JUMPDEST SWAP2 POP PUSH2 0x2829 DUP3 PUSH2 0x27E8 JUMP JUMPDEST PUSH1 0x20 DUP3 ADD SWAP1 POP SWAP2 SWAP1 POP JUMP JUMPDEST PUSH1 0x0 PUSH1 0x20 DUP3 ADD SWAP1 POP DUP2 DUP2 SUB PUSH1 0x0 DUP4 ADD MSTORE PUSH2 0x284D DUP2 PUSH2 0x2811 JUMP JUMPDEST SWAP1 POP SWAP2 SWAP1 POP JUMP JUMPDEST PUSH32 0x5374616B696E673A20526567697374657220636F6C6C656374696F6E20627920 PUSH1 0x0 DUP3 ADD MSTORE PUSH32 0x6164645374616B696E674E667473000000000000000000000000000000000000 PUSH1 0x20 DUP3 ADD MSTORE POP JUMP JUMPDEST PUSH1 0x0 PUSH2 0x28B0 PUSH1 0x2E DUP4 PUSH2 0x276B JUMP JUMPDEST SWAP2 POP PUSH2 0x28BB DUP3 PUSH2 0x2854 JUMP JUMPDEST PUSH1 0x40 DUP3 ADD SWAP1 POP SWAP2 SWAP1 POP JUMP JUMPDEST PUSH1 0x0 PUSH1 0x20 DUP3 ADD SWAP1 POP DUP2 DUP2 SUB PUSH1 0x0 DUP4 ADD MSTORE PUSH2 0x28DF DUP2 PUSH2 0x28A3 JUMP JUMPDEST SWAP1 POP SWAP2 SWAP1 POP JUMP JUMPDEST PUSH32 0x4E6F20746F6B656E730000000000000000000000000000000000000000000000 PUSH1 0x0 DUP3 ADD MSTORE POP JUMP JUMPDEST PUSH1 0x0 PUSH2 0x291C PUSH1 0x9 DUP4 PUSH2 0x276B JUMP JUMPDEST SWAP2 POP PUSH2 0x2927 DUP3 PUSH2 0x28E6 JUMP JUMPDEST PUSH1 0x20 DUP3 ADD SWAP1 POP SWAP2 SWAP1 POP JUMP JUMPDEST PUSH1 0x0 PUSH1 0x20 DUP3 ADD SWAP1 POP DUP2 DUP2 SUB PUSH1 0x0 DUP4 ADD MSTORE PUSH2 0x294B DUP2 PUSH2 0x290F JUMP JUMPDEST SWAP1 POP SWAP2 SWAP1 POP JUMP JUMPDEST PUSH32 0x4E487B7100000000000000000000000000000000000000000000000000000000 PUSH1 0x0 MSTORE PUSH1 0x32 PUSH1 0x4 MSTORE PUSH1 0x24 PUSH1 0x0 REVERT JUMPDEST PUSH32 0x4E6F74206120746F6B656E206F776E6572000000000000000000000000000000 PUSH1 0x0 DUP3 ADD MSTORE POP JUMP JUMPDEST PUSH1 0x0 PUSH2 0x29B7 PUSH1 0x11 DUP4 PUSH2 0x276B JUMP JUMPDEST SWAP2 POP PUSH2 0x29C2 DUP3 PUSH2 0x2981 JUMP JUMPDEST PUSH1 0x20 DUP3 ADD SWAP1 POP SWAP2 SWAP1 POP JUMP JUMPDEST PUSH1 0x0 PUSH1 0x20 DUP3 ADD SWAP1 POP DUP2 DUP2 SUB PUSH1 0x0 DUP4 ADD MSTORE PUSH2 0x29E6 DUP2 PUSH2 0x29AA JUMP JUMPDEST SWAP1 POP SWAP2 SWAP1 POP JUMP JUMPDEST PUSH32 0x4E487B7100000000000000000000000000000000000000000000000000000000 PUSH1 0x0 MSTORE PUSH1 0x11 PUSH1 0x4 MSTORE PUSH1 0x24 PUSH1 0x0 REVERT JUMPDEST PUSH1 0x0 PUSH2 0x2A27 DUP3 PUSH2 0x21A0 JUMP JUMPDEST SWAP2 POP PUSH2 0x2A32 DUP4 PUSH2 0x21A0 JUMP JUMPDEST SWAP3 POP DUP3 DUP3 ADD SWAP1 POP DUP1 DUP3 GT ISZERO PUSH2 0x2A4A JUMPI PUSH2 0x2A49 PUSH2 0x29ED JUMP JUMPDEST JUMPDEST SWAP3 SWAP2 POP POP JUMP JUMPDEST PUSH32 0x4E6F742061626C6520746F20636C61696D207965740000000000000000000000 PUSH1 0x0 DUP3 ADD MSTORE POP JUMP JUMPDEST PUSH1 0x0 PUSH2 0x2A86 PUSH1 0x15 DUP4 PUSH2 0x276B JUMP JUMPDEST SWAP2 POP PUSH2 0x2A91 DUP3 PUSH2 0x2A50 JUMP JUMPDEST PUSH1 0x20 DUP3 ADD SWAP1 POP SWAP2 SWAP1 POP JUMP JUMPDEST PUSH1 0x0 PUSH1 0x20 DUP3 ADD SWAP1 POP DUP2 DUP2 SUB PUSH1 0x0 DUP4 ADD MSTORE PUSH2 0x2AB5 DUP2 PUSH2 0x2A79 JUMP JUMPDEST SWAP1 POP SWAP2 SWAP1 POP JUMP JUMPDEST PUSH32 0x416C726561647920756E6C6F636B656400000000000000000000000000000000 PUSH1 0x0 DUP3 ADD MSTORE POP JUMP JUMPDEST PUSH1 0x0 PUSH2 0x2AF2 PUSH1 0x10 DUP4 PUSH2 0x276B JUMP JUMPDEST SWAP2 POP PUSH2 0x2AFD DUP3 PUSH2 0x2ABC JUMP JUMPDEST PUSH1 0x20 DUP3 ADD SWAP1 POP SWAP2 SWAP1 POP JUMP JUMPDEST PUSH1 0x0 PUSH1 0x20 DUP3 ADD SWAP1 POP DUP2 DUP2 SUB PUSH1 0x0 DUP4 ADD MSTORE PUSH2 0x2B21 DUP2 PUSH2 0x2AE5 JUMP JUMPDEST SWAP1 POP SWAP2 SWAP1 POP JUMP JUMPDEST PUSH1 0x0 PUSH2 0x2B33 DUP3 PUSH2 0x21A0 JUMP JUMPDEST SWAP2 POP PUSH2 0x2B3E DUP4 PUSH2 0x21A0 JUMP JUMPDEST SWAP3 POP DUP3 DUP3 SUB SWAP1 POP DUP2 DUP2 GT ISZERO PUSH2 0x2B56 JUMPI PUSH2 0x2B55 PUSH2 0x29ED JUMP JUMPDEST JUMPDEST SWAP3 SWAP2 POP POP JUMP JUMPDEST PUSH1 0x0 PUSH1 0x40 DUP3 ADD SWAP1 POP PUSH2 0x2B71 PUSH1 0x0 DUP4 ADD DUP6 PUSH2 0x222D JUMP JUMPDEST PUSH2 0x2B7E PUSH1 0x20 DUP4 ADD DUP5 PUSH2 0x21AA JUMP JUMPDEST SWAP4 SWAP3 POP POP POP JUMP JUMPDEST PUSH1 0x0 PUSH2 0x2B90 DUP3 PUSH2 0x21A0 JUMP JUMPDEST SWAP2 POP PUSH32 0xFFFFFFFFFFFFFFFFFFFFFFFFFFFFFFFFFFFFFFFFFFFFFFFFFFFFFFFFFFFFFFFF DUP3 SUB PUSH2 0x2BC2 JUMPI PUSH2 0x2BC1 PUSH2 0x29ED JUMP JUMPDEST JUMPDEST PUSH1 0x1 DUP3 ADD SWAP1 POP SWAP2 SWAP1 POP JUMP JUMPDEST PUSH1 0x0 DUP3 DUP3 MSTORE PUSH1 0x20 DUP3 ADD SWAP1 POP SWAP3 SWAP2 POP POP JUMP JUMPDEST PUSH1 0x0 DUP1 REVERT JUMPDEST DUP3 DUP2 DUP4 CALLDATACOPY POP POP POP JUMP JUMPDEST PUSH1 0x0 PUSH2 0x2BF8 DUP4 DUP6 PUSH2 0x2BCD JUMP JUMPDEST SWAP4 POP PUSH32 0x7FFFFFFFFFFFFFFFFFFFFFFFFFFFFFFFFFFFFFFFFFFFFFFFFFFFFFFFFFFFFFF DUP4 GT ISZERO PUSH2 0x2C2B JUMPI PUSH2 0x2C2A PUSH2 0x2BDE JUMP JUMPDEST JUMPDEST PUSH1 0x20 DUP4 MUL SWAP3 POP PUSH2 0x2C3C DUP4 DUP6 DUP5 PUSH2 0x2BE3 JUMP JUMPDEST DUP3 DUP5 ADD SWAP1 POP SWAP4 SWAP3 POP POP POP JUMP JUMPDEST PUSH1 0x0 PUSH1 0x40 DUP3 ADD SWAP1 POP DUP2 DUP2 SUB PUSH1 0x0 DUP4 ADD MSTORE PUSH2 0x2C63 DUP2 DUP6 DUP8 PUSH2 0x2BEC JUMP JUMPDEST SWAP1 POP PUSH2 0x2C72 PUSH1 0x20 DUP4 ADD DUP5 PUSH2 0x21AA JUMP JUMPDEST SWAP5 SWAP4 POP POP POP POP JUMP JUMPDEST PUSH32 0x5265656E7472616E637947756172643A207265656E7472616E742063616C6C00 PUSH1 0x0 DUP3 ADD MSTORE POP JUMP JUMPDEST PUSH1 0x0 PUSH2 0x2CB0 PUSH1 0x1F DUP4 PUSH2 0x276B JUMP JUMPDEST SWAP2 POP PUSH2 0x2CBB DUP3 PUSH2 0x2C7A JUMP JUMPDEST PUSH1 0x20 DUP3 ADD SWAP1 POP SWAP2 SWAP1 POP JUMP JUMPDEST PUSH1 0x0 PUSH1 0x20 DUP3 ADD SWAP1 POP DUP2 DUP2 SUB PUSH1 0x0 DUP4 ADD MSTORE PUSH2 0x2CDF DUP2 PUSH2 0x2CA3 JUMP JUMPDEST SWAP1 POP SWAP2 SWAP1 POP JUMP JUMPDEST PUSH1 0x0 DUP2 MLOAD SWAP1 POP PUSH2 0x2CF5 DUP2 PUSH2 0x24E1 JUMP JUMPDEST SWAP3 SWAP2 POP POP JUMP JUMPDEST PUSH1 0x0 PUSH1 0x20 DUP3 DUP5 SUB SLT ISZERO PUSH2 0x2D11 JUMPI PUSH2 0x2D10 PUSH2 0x2061 JUMP JUMPDEST JUMPDEST PUSH1 0x0 PUSH2 0x2D1F DUP5 DUP3 DUP6 ADD PUSH2 0x2CE6 JUMP JUMPDEST SWAP2 POP POP SWAP3 SWAP2 POP POP JUMP JUMPDEST PUSH32 0x596F7520646F6E277420686F6C64207468697320746F6B656E00000000000000 PUSH1 0x0 DUP3 ADD MSTORE POP JUMP JUMPDEST PUSH1 0x0 PUSH2 0x2D5E PUSH1 0x19 DUP4 PUSH2 0x276B JUMP JUMPDEST SWAP2 POP PUSH2 0x2D69 DUP3 PUSH2 0x2D28 JUMP JUMPDEST PUSH1 0x20 DUP3 ADD SWAP1 POP SWAP2 SWAP1 POP JUMP JUMPDEST PUSH1 0x0 PUSH1 0x20 DUP3 ADD SWAP1 POP DUP2 DUP2 SUB PUSH1 0x0 DUP4 ADD MSTORE PUSH2 0x2D8D DUP2 PUSH2 0x2D51 JUMP JUMPDEST SWAP1 POP SWAP2 SWAP1 POP JUMP JUMPDEST PUSH1 0x0 PUSH1 0x60 DUP3 ADD SWAP1 POP PUSH2 0x2DA9 PUSH1 0x0 DUP4 ADD DUP7 PUSH2 0x222D JUMP JUMPDEST PUSH2 0x2DB6 PUSH1 0x20 DUP4 ADD DUP6 PUSH2 0x222D JUMP JUMPDEST PUSH2 0x2DC3 PUSH1 0x40 DUP4 ADD DUP5 PUSH2 0x21AA JUMP JUMPDEST SWAP5 SWAP4 POP POP POP POP JUMP JUMPDEST PUSH1 0x0 PUSH1 0x20 DUP3 ADD SWAP1 POP DUP2 DUP2 SUB PUSH1 0x0 DUP4 ADD MSTORE PUSH2 0x2DE6 DUP2 DUP5 DUP7 PUSH2 0x2BEC JUMP JUMPDEST SWAP1 POP SWAP4 SWAP3 POP POP POP JUMP JUMPDEST PUSH32 0x496E76616C6964206C6F636B20706572696F642E000000000000000000000000 PUSH1 0x0 DUP3 ADD MSTORE POP JUMP JUMPDEST PUSH1 0x0 PUSH2 0x2E25 PUSH1 0x14 DUP4 PUSH2 0x276B JUMP JUMPDEST SWAP2 POP PUSH2 0x2E30 DUP3 PUSH2 0x2DEF JUMP JUMPDEST PUSH1 0x20 DUP3 ADD SWAP1 POP SWAP2 SWAP1 POP JUMP JUMPDEST PUSH1 0x0 PUSH1 0x20 DUP3 ADD SWAP1 POP DUP2 DUP2 SUB PUSH1 0x0 DUP4 ADD MSTORE PUSH2 0x2E54 DUP2 PUSH2 0x2E18 JUMP JUMPDEST SWAP1 POP SWAP2 SWAP1 POP JUMP JUMPDEST PUSH32 0x4E6F742061626C6520746F20756E6C6F636B2079657400000000000000000000 PUSH1 0x0 DUP3 ADD MSTORE POP JUMP JUMPDEST PUSH1 0x0 PUSH2 0x2E91 PUSH1 0x16 DUP4 PUSH2 0x276B JUMP JUMPDEST SWAP2 POP PUSH2 0x2E9C DUP3 PUSH2 0x2E5B JUMP JUMPDEST PUSH1 0x20 DUP3 ADD SWAP1 POP SWAP2 SWAP1 POP JUMP JUMPDEST PUSH1 0x0 PUSH1 0x20 DUP3 ADD SWAP1 POP DUP2 DUP2 SUB PUSH1 0x0 DUP4 ADD MSTORE PUSH2 0x2EC0 DUP2 PUSH2 0x2E84 JUMP JUMPDEST SWAP1 POP SWAP2 SWAP1 POP JUMP JUMPDEST PUSH32 0x496E76616C6964205374616B6520546F6B656E00000000000000000000000000 PUSH1 0x0 DUP3 ADD MSTORE POP JUMP JUMPDEST PUSH1 0x0 PUSH2 0x2EFD PUSH1 0x13 DUP4 PUSH2 0x276B JUMP JUMPDEST SWAP2 POP PUSH2 0x2F08 DUP3 PUSH2 0x2EC7 JUMP JUMPDEST PUSH1 0x20 DUP3 ADD SWAP1 POP SWAP2 SWAP1 POP JUMP JUMPDEST PUSH1 0x0 PUSH1 0x20 DUP3 ADD SWAP1 POP DUP2 DUP2 SUB PUSH1 0x0 DUP4 ADD MSTORE PUSH2 0x2F2C DUP2 PUSH2 0x2EF0 JUMP JUMPDEST SWAP1 POP SWAP2 SWAP1 POP JUMP JUMPDEST PUSH32 0x496E76616C69642052657761726420546F6B656E000000000000000000000000 PUSH1 0x0 DUP3 ADD MSTORE POP JUMP JUMPDEST PUSH1 0x0 PUSH2 0x2F69 PUSH1 0x14 DUP4 PUSH2 0x276B JUMP JUMPDEST SWAP2 POP PUSH2 0x2F74 DUP3 PUSH2 0x2F33 JUMP JUMPDEST PUSH1 0x20 DUP3 ADD SWAP1 POP SWAP2 SWAP1 POP JUMP JUMPDEST PUSH1 0x0 PUSH1 0x20 DUP3 ADD SWAP1 POP DUP2 DUP2 SUB PUSH1 0x0 DUP4 ADD MSTORE PUSH2 0x2F98 DUP2 PUSH2 0x2F5C JUMP JUMPDEST SWAP1 POP SWAP2 SWAP1 POP JUMP JUMPDEST PUSH1 0x0 DUP2 SWAP1 POP SWAP2 SWAP1 POP JUMP JUMPDEST PUSH1 0x0 PUSH32 0xFFFFFFFF00000000000000000000000000000000000000000000000000000000 DUP3 AND SWAP1 POP SWAP2 SWAP1 POP JUMP JUMPDEST PUSH1 0x0 DUP2 PUSH1 0xE0 SHL SWAP1 POP SWAP2 SWAP1 POP JUMP JUMPDEST PUSH1 0x0 PUSH2 0x2FFD PUSH2 0x2FF8 PUSH2 0x2FF3 DUP5 PUSH2 0x2F9F JUMP JUMPDEST PUSH2 0x2FD5 JUMP JUMPDEST PUSH2 0x2FA9 JUMP JUMPDEST SWAP1 POP SWAP2 SWAP1 POP JUMP JUMPDEST PUSH2 0x300D DUP2 PUSH2 0x2FE2 JUMP JUMPDEST DUP3 MSTORE POP POP JUMP JUMPDEST PUSH1 0x0 PUSH1 0x20 DUP3 ADD SWAP1 POP PUSH2 0x3028 PUSH1 0x0 DUP4 ADD DUP5 PUSH2 0x3004 JUMP JUMPDEST SWAP3 SWAP2 POP POP JUMP JUMPDEST PUSH2 0x3037 DUP2 PUSH2 0x2297 JUMP JUMPDEST DUP2 EQ PUSH2 0x3042 JUMPI PUSH1 0x0 DUP1 REVERT JUMPDEST POP JUMP JUMPDEST PUSH1 0x0 DUP2 MLOAD SWAP1 POP PUSH2 0x3054 DUP2 PUSH2 0x302E JUMP JUMPDEST SWAP3 SWAP2 POP POP JUMP JUMPDEST PUSH1 0x0 PUSH1 0x20 DUP3 DUP5 SUB SLT ISZERO PUSH2 0x3070 JUMPI PUSH2 0x306F PUSH2 0x2061 JUMP JUMPDEST JUMPDEST PUSH1 0x0 PUSH2 0x307E DUP5 DUP3 DUP6 ADD PUSH2 0x3045 JUMP JUMPDEST SWAP2 POP POP SWAP3 SWAP2 POP POP JUMP JUMPDEST PUSH32 0x4E6F6E2D65726337323100000000000000000000000000000000000000000000 PUSH1 0x0 DUP3 ADD MSTORE POP JUMP JUMPDEST PUSH1 0x0 PUSH2 0x30BD PUSH1 0xA DUP4 PUSH2 0x276B JUMP JUMPDEST SWAP2 POP PUSH2 0x30C8 DUP3 PUSH2 0x3087 JUMP JUMPDEST PUSH1 0x20 DUP3 ADD SWAP1 POP SWAP2 SWAP1 POP JUMP JUMPDEST PUSH1 0x0 PUSH1 0x20 DUP3 ADD SWAP1 POP DUP2 DUP2 SUB PUSH1 0x0 DUP4 ADD MSTORE PUSH2 0x30EC DUP2 PUSH2 0x30B0 JUMP JUMPDEST SWAP1 POP SWAP2 SWAP1 POP JUMP JUMPDEST PUSH1 0x0 PUSH1 0x80 DUP3 ADD SWAP1 POP PUSH2 0x3108 PUSH1 0x0 DUP4 ADD DUP8 PUSH2 0x222D JUMP JUMPDEST PUSH2 0x3115 PUSH1 0x20 DUP4 ADD DUP7 PUSH2 0x222D JUMP JUMPDEST PUSH2 0x3122 PUSH1 0x40 DUP4 ADD DUP6 PUSH2 0x21AA JUMP JUMPDEST PUSH2 0x312F PUSH1 0x60 DUP4 ADD DUP5 PUSH2 0x21AA JUMP JUMPDEST SWAP6 SWAP5 POP POP POP POP POP JUMP JUMPDEST PUSH32 0x4F776E61626C653A206E6577206F776E657220697320746865207A65726F2061 PUSH1 0x0 DUP3 ADD MSTORE PUSH32 0x6464726573730000000000000000000000000000000000000000000000000000 PUSH1 0x20 DUP3 ADD MSTORE POP JUMP JUMPDEST PUSH1 0x0 PUSH2 0x3194 PUSH1 0x26 DUP4 PUSH2 0x276B JUMP JUMPDEST SWAP2 POP PUSH2 0x319F DUP3 PUSH2 0x3138 JUMP JUMPDEST PUSH1 0x40 DUP3 ADD SWAP1 POP SWAP2 SWAP1 POP JUMP JUMPDEST PUSH1 0x0 PUSH1 0x20 DUP3 ADD SWAP1 POP DUP2 DUP2 SUB PUSH1 0x0 DUP4 ADD MSTORE PUSH2 0x31C3 DUP2 PUSH2 0x3187 JUMP JUMPDEST SWAP1 POP SWAP2 SWAP1 POP JUMP JUMPDEST PUSH1 0x0 PUSH2 0x31D5 DUP3 PUSH2 0x21A0 JUMP JUMPDEST SWAP2 POP PUSH2 0x31E0 DUP4 PUSH2 0x21A0 JUMP JUMPDEST SWAP3 POP DUP2 PUSH32 0xFFFFFFFFFFFFFFFFFFFFFFFFFFFFFFFFFFFFFFFFFFFFFFFFFFFFFFFFFFFFFFFF DIV DUP4 GT DUP3 ISZERO ISZERO AND ISZERO PUSH2 0x3219 JUMPI PUSH2 0x3218 PUSH2 0x29ED JUMP JUMPDEST JUMPDEST DUP3 DUP3 MUL SWAP1 POP SWAP3 SWAP2 POP POP JUMP JUMPDEST PUSH32 0x4E487B7100000000000000000000000000000000000000000000000000000000 PUSH1 0x0 MSTORE PUSH1 0x12 PUSH1 0x4 MSTORE PUSH1 0x24 PUSH1 0x0 REVERT JUMPDEST PUSH1 0x0 PUSH2 0x325E DUP3 PUSH2 0x21A0 JUMP JUMPDEST SWAP2 POP PUSH2 0x3269 DUP4 PUSH2 0x21A0 JUMP JUMPDEST SWAP3 POP DUP3 PUSH2 0x3279 JUMPI PUSH2 0x3278 PUSH2 0x3224 JUMP JUMPDEST JUMPDEST DUP3 DUP3 DIV SWAP1 POP SWAP3 SWAP2 POP POP JUMP JUMPDEST PUSH32 0x4F776E61626C653A2063616C6C6572206973206E6F7420746865206F776E6572 PUSH1 0x0 DUP3 ADD MSTORE POP JUMP JUMPDEST PUSH1 0x0 PUSH2 0x32BA PUSH1 0x20 DUP4 PUSH2 0x276B JUMP JUMPDEST SWAP2 POP PUSH2 0x32C5 DUP3 PUSH2 0x3284 JUMP JUMPDEST PUSH1 0x20 DUP3 ADD SWAP1 POP SWAP2 SWAP1 POP JUMP JUMPDEST PUSH1 0x0 PUSH1 0x20 DUP3 ADD SWAP1 POP DUP2 DUP2 SUB PUSH1 0x0 DUP4 ADD MSTORE PUSH2 0x32E9 DUP2 PUSH2 0x32AD JUMP JUMPDEST SWAP1 POP SWAP2 SWAP1 POP JUMP INVALID LOG2 PUSH5 0x6970667358 0x22 SLT KECCAK256 DUP1 NOT CALLER LOG3 0xEC EXP DUP7 0x2F MSTORE8 0x23 0x4A 0xD0 0x4C 0xD6 PUSH20 0xF3032BBC5465ED893C291B6CE9FEB3EA8164736F PUSH13 0x63430008100033000000000000 "
				},
				"gasEstimates": {
					"creation": {
						"codeDepositCost": "2618800",
						"executionCost": "infinite",
						"totalCost": "infinite"
					},
					"external": {
						"WAVE()": "2451",
						"addStakingNfts(address[],address[],uint256[],uint256[])": "infinite",
						"claimRewards(uint256[],address)": "infinite",
						"claimedRewards(uint256,address)": "infinite",
						"lockInfo(address,uint256)": "infinite",
						"lockNFT(uint256[],address)": "infinite",
						"lockPeriod()": "2474",
						"nftInfo(address)": "infinite",
						"owner()": "2633",
						"renounceOwnership()": "30465",
						"setLockPeriod(uint256)": "infinite",
						"transferOwnership(address)": "30832",
						"unlockNFT(uint256[],address)": "infinite"
					},
					"internal": {
						"_rewardAmount(uint256,contract IERC721)": "infinite"
					}
				},
				"methodIdentifiers": {
					"WAVE()": "c69d1923",
					"addStakingNfts(address[],address[],uint256[],uint256[])": "eee00ed0",
					"claimRewards(uint256[],address)": "0520537f",
					"claimedRewards(uint256,address)": "b33068c4",
					"lockInfo(address,uint256)": "b2520a7c",
					"lockNFT(uint256[],address)": "1902732e",
					"lockPeriod()": "3fd8b02f",
					"nftInfo(address)": "e9545b92",
					"owner()": "8da5cb5b",
					"renounceOwnership()": "715018a6",
					"setLockPeriod(uint256)": "779972da",
					"transferOwnership(address)": "f2fde38b",
					"unlockNFT(uint256[],address)": "9f3625f0"
				}
			},
			"storageLayout": {
				"storage": [
					{
						"astId": 7,
						"contract": "contracts/Staking.sol:NFTStaking1",
						"label": "_owner",
						"offset": 0,
						"slot": "0",
						"type": "t_address"
					},
					{
						"astId": 123,
						"contract": "contracts/Staking.sol:NFTStaking1",
						"label": "_status",
						"offset": 0,
						"slot": "1",
						"type": "t_uint256"
					},
					{
						"astId": 614,
						"contract": "contracts/Staking.sol:NFTStaking1",
						"label": "lockPeriod",
						"offset": 0,
						"slot": "2",
						"type": "t_uint256"
					},
					{
						"astId": 634,
						"contract": "contracts/Staking.sol:NFTStaking1",
						"label": "lockInfo",
						"offset": 0,
						"slot": "3",
						"type": "t_mapping(t_contract(IERC721)268,t_mapping(t_uint256,t_struct(LockInfo)626_storage))"
					},
					{
						"astId": 648,
						"contract": "contracts/Staking.sol:NFTStaking1",
						"label": "nftInfo",
						"offset": 0,
						"slot": "4",
						"type": "t_mapping(t_contract(IERC721)268,t_struct(stakeNftInfo)642_storage)"
					},
					{
						"astId": 651,
						"contract": "contracts/Staking.sol:NFTStaking1",
						"label": "WAVE",
						"offset": 0,
						"slot": "5",
						"type": "t_uint256"
					}
				],
				"types": {
					"t_address": {
						"encoding": "inplace",
						"label": "address",
						"numberOfBytes": "20"
					},
					"t_bool": {
						"encoding": "inplace",
						"label": "bool",
						"numberOfBytes": "1"
					},
					"t_contract(IERC721)268": {
						"encoding": "inplace",
						"label": "contract IERC721",
						"numberOfBytes": "20"
					},
					"t_contract(IRewardsToken)1378": {
						"encoding": "inplace",
						"label": "contract IRewardsToken",
						"numberOfBytes": "20"
					},
					"t_mapping(t_contract(IERC721)268,t_mapping(t_uint256,t_struct(LockInfo)626_storage))": {
						"encoding": "mapping",
						"key": "t_contract(IERC721)268",
						"label": "mapping(contract IERC721 => mapping(uint256 => struct NFTStaking1.LockInfo))",
						"numberOfBytes": "32",
						"value": "t_mapping(t_uint256,t_struct(LockInfo)626_storage)"
					},
					"t_mapping(t_contract(IERC721)268,t_struct(stakeNftInfo)642_storage)": {
						"encoding": "mapping",
						"key": "t_contract(IERC721)268",
						"label": "mapping(contract IERC721 => struct NFTStaking1.stakeNftInfo)",
						"numberOfBytes": "32",
						"value": "t_struct(stakeNftInfo)642_storage"
					},
					"t_mapping(t_uint256,t_struct(LockInfo)626_storage)": {
						"encoding": "mapping",
						"key": "t_uint256",
						"label": "mapping(uint256 => struct NFTStaking1.LockInfo)",
						"numberOfBytes": "32",
						"value": "t_struct(LockInfo)626_storage"
					},
					"t_struct(LockInfo)626_storage": {
						"encoding": "inplace",
						"label": "struct NFTStaking1.LockInfo",
						"members": [
							{
								"astId": 616,
								"contract": "contracts/Staking.sol:NFTStaking1",
								"label": "owner",
								"offset": 0,
								"slot": "0",
								"type": "t_address"
							},
							{
								"astId": 618,
								"contract": "contracts/Staking.sol:NFTStaking1",
								"label": "lockedTime",
								"offset": 0,
								"slot": "1",
								"type": "t_uint256"
							},
							{
								"astId": 620,
								"contract": "contracts/Staking.sol:NFTStaking1",
								"label": "claimedRewards",
								"offset": 0,
								"slot": "2",
								"type": "t_uint256"
							},
							{
								"astId": 622,
								"contract": "contracts/Staking.sol:NFTStaking1",
								"label": "isUnlocked",
								"offset": 0,
								"slot": "3",
								"type": "t_bool"
							},
							{
								"astId": 625,
								"contract": "contracts/Staking.sol:NFTStaking1",
								"label": "contractAddress",
								"offset": 1,
								"slot": "3",
								"type": "t_contract(IERC721)268"
							}
						],
						"numberOfBytes": "128"
					},
					"t_struct(stakeNftInfo)642_storage": {
						"encoding": "inplace",
						"label": "struct NFTStaking1.stakeNftInfo",
						"members": [
							{
								"astId": 637,
								"contract": "contracts/Staking.sol:NFTStaking1",
								"label": "rewardsToken",
								"offset": 0,
								"slot": "0",
								"type": "t_contract(IRewardsToken)1378"
							},
							{
								"astId": 639,
								"contract": "contracts/Staking.sol:NFTStaking1",
								"label": "rewardsPerWave",
								"offset": 0,
								"slot": "1",
								"type": "t_uint256"
							},
							{
								"astId": 641,
								"contract": "contracts/Staking.sol:NFTStaking1",
								"label": "rewardPercentage",
								"offset": 0,
								"slot": "2",
								"type": "t_uint256"
							}
						],
						"numberOfBytes": "96"
					},
					"t_uint256": {
						"encoding": "inplace",
						"label": "uint256",
						"numberOfBytes": "32"
					}
				}
			},
			"userdoc": {
				"kind": "user",
				"methods": {
					"WAVE()": {
						"notice": "CONSTANTS "
					}
				},
				"version": 1
			}
		}
	}
}