{
	"contracts/Staking.sol": {
		"NFTStaking1": {
			"abi": [
				{
					"inputs": [
						{
							"internalType": "uint256",
							"name": "_lockPeriod",
							"type": "uint256"
						},
						{
							"internalType": "uint256",
							"name": "_wave",
							"type": "uint256"
						}
					],
					"stateMutability": "nonpayable",
					"type": "constructor"
				},
				{
					"anonymous": false,
					"inputs": [
						{
							"indexed": false,
							"internalType": "uint256",
							"name": "lockPeriod",
							"type": "uint256"
						}
					],
					"name": "LockPeriodUpdated",
					"type": "event"
				},
				{
					"anonymous": false,
					"inputs": [
						{
							"indexed": true,
							"internalType": "address",
							"name": "owner",
							"type": "address"
						},
						{
							"indexed": false,
							"internalType": "uint256[]",
							"name": "tokenIds",
							"type": "uint256[]"
						}
					],
					"name": "NFTLocked",
					"type": "event"
				},
				{
					"anonymous": false,
					"inputs": [
						{
							"indexed": true,
							"internalType": "address",
							"name": "owner",
							"type": "address"
						},
						{
							"indexed": false,
							"internalType": "uint256[]",
							"name": "tokenIds",
							"type": "uint256[]"
						}
					],
					"name": "NFTUnLocked",
					"type": "event"
				},
				{
					"anonymous": false,
					"inputs": [
						{
							"indexed": true,
							"internalType": "address",
							"name": "previousOwner",
							"type": "address"
						},
						{
							"indexed": true,
							"internalType": "address",
							"name": "newOwner",
							"type": "address"
						}
					],
					"name": "OwnershipTransferred",
					"type": "event"
				},
				{
					"anonymous": false,
					"inputs": [
						{
							"indexed": true,
							"internalType": "address",
							"name": "owner",
							"type": "address"
						},
						{
							"indexed": false,
							"internalType": "uint256[]",
							"name": "tokenIds",
							"type": "uint256[]"
						},
						{
							"indexed": false,
							"internalType": "uint256",
							"name": "rewards",
							"type": "uint256"
						}
					],
					"name": "RewardsClaimed",
					"type": "event"
				},
				{
					"inputs": [],
					"name": "WAVE",
					"outputs": [
						{
							"internalType": "uint256",
							"name": "",
							"type": "uint256"
						}
					],
					"stateMutability": "view",
					"type": "function"
				},
				{
					"inputs": [
						{
							"internalType": "uint256",
							"name": "_lockPeriod",
							"type": "uint256"
						}
					],
					"name": "addStakingNfts",
					"outputs": [],
					"stateMutability": "nonpayable",
					"type": "function"
				},
				{
					"inputs": [
						{
							"internalType": "address[]",
							"name": "_stakeNFT",
							"type": "address[]"
						},
						{
							"internalType": "address[]",
							"name": "_rewardsToken",
							"type": "address[]"
						},
						{
							"internalType": "uint256[]",
							"name": "_rewardPerWave",
							"type": "uint256[]"
						},
						{
							"internalType": "uint256[]",
							"name": "_rewardPercentage",
							"type": "uint256[]"
						}
					],
					"name": "addStakingNfts",
					"outputs": [],
					"stateMutability": "nonpayable",
					"type": "function"
				},
				{
					"inputs": [
						{
							"internalType": "uint256[]",
							"name": "_tokenIds",
							"type": "uint256[]"
						},
						{
							"internalType": "contract IERC721",
							"name": "nftAddress",
							"type": "address"
						}
					],
					"name": "claimRewards",
					"outputs": [],
					"stateMutability": "nonpayable",
					"type": "function"
				},
				{
					"inputs": [
						{
							"internalType": "uint256",
							"name": "_tokenId",
							"type": "uint256"
						},
						{
							"internalType": "contract IERC721",
							"name": "nftAddress",
							"type": "address"
						}
					],
					"name": "claimedRewards",
					"outputs": [
						{
							"internalType": "uint256",
							"name": "",
							"type": "uint256"
						}
					],
					"stateMutability": "view",
					"type": "function"
				},
				{
					"inputs": [
						{
							"internalType": "contract IERC721",
							"name": "",
							"type": "address"
						},
						{
							"internalType": "uint256",
							"name": "",
							"type": "uint256"
						}
					],
					"name": "lockInfo",
					"outputs": [
						{
							"internalType": "address",
							"name": "owner",
							"type": "address"
						},
						{
							"internalType": "uint256",
							"name": "lockedTime",
							"type": "uint256"
						},
						{
							"internalType": "uint256",
							"name": "claimedRewards",
							"type": "uint256"
						},
						{
							"internalType": "bool",
							"name": "isUnlocked",
							"type": "bool"
						},
						{
							"internalType": "contract IERC721",
							"name": "contractAddress",
							"type": "address"
						}
					],
					"stateMutability": "view",
					"type": "function"
				},
				{
					"inputs": [
						{
							"internalType": "uint256[]",
							"name": "_tokenIds",
							"type": "uint256[]"
						},
						{
							"internalType": "contract IERC721",
							"name": "nftAddress",
							"type": "address"
						}
					],
					"name": "lockNFT",
					"outputs": [],
					"stateMutability": "nonpayable",
					"type": "function"
				},
				{
					"inputs": [],
					"name": "lockPeriod",
					"outputs": [
						{
							"internalType": "uint256",
							"name": "",
							"type": "uint256"
						}
					],
					"stateMutability": "view",
					"type": "function"
				},
				{
					"inputs": [
						{
							"internalType": "contract IERC721",
							"name": "",
							"type": "address"
						}
					],
					"name": "nftInfo",
					"outputs": [
						{
							"internalType": "contract IRewardsToken",
							"name": "rewardsToken",
							"type": "address"
						},
						{
							"internalType": "uint256",
							"name": "rewardsPerWave",
							"type": "uint256"
						},
						{
							"internalType": "uint256",
							"name": "rewardPercentage",
							"type": "uint256"
						}
					],
					"stateMutability": "view",
					"type": "function"
				},
				{
					"inputs": [],
					"name": "owner",
					"outputs": [
						{
							"internalType": "address",
							"name": "",
							"type": "address"
						}
					],
					"stateMutability": "view",
					"type": "function"
				},
				{
					"inputs": [],
					"name": "renounceOwnership",
					"outputs": [],
					"stateMutability": "nonpayable",
					"type": "function"
				},
				{
					"inputs": [
						{
							"internalType": "address",
							"name": "newOwner",
							"type": "address"
						}
					],
					"name": "transferOwnership",
					"outputs": [],
					"stateMutability": "nonpayable",
					"type": "function"
				},
				{
					"inputs": [
						{
							"internalType": "uint256[]",
							"name": "_tokenIds",
							"type": "uint256[]"
						},
						{
							"internalType": "contract IERC721",
							"name": "nftAddress",
							"type": "address"
						}
					],
					"name": "unlockNFT",
					"outputs": [],
					"stateMutability": "nonpayable",
					"type": "function"
				}
			],
			"devdoc": {
				"kind": "dev",
				"methods": {
					"addStakingNfts(address[],address[],uint256[],uint256[])": {
						"details": "add the address NFT staking addresses and their corresponders",
						"params": {
							"_stakeNFT": ", _rewardsToken, _rewardPerWave, _rewardPercentage"
						}
					},
					"addStakingNfts(uint256)": {
						"details": "update lock period",
						"params": {
							"_lockPeriod": "lock period to set"
						}
					},
					"claimRewards(uint256[],address)": {
						"details": "claim rewards",
						"params": {
							"_tokenIds": "token ids to unlock"
						}
					},
					"claimedRewards(uint256,address)": {
						"details": "get total claimed rewards for token id",
						"params": {
							"_tokenId": "token id to get claimed Rewards amount"
						}
					},
					"lockNFT(uint256[],address)": {
						"details": "lock NFT into the contract",
						"params": {
							"_tokenIds": "token ids to stake"
						}
					},
					"owner()": {
						"details": "Returns the address of the current owner."
					},
					"renounceOwnership()": {
						"details": "Leaves the contract without owner. It will not be possible to call `onlyOwner` functions anymore. Can only be called by the current owner. NOTE: Renouncing ownership will leave the contract without an owner, thereby removing any functionality that is only available to the owner."
					},
					"transferOwnership(address)": {
						"details": "Transfers ownership of the contract to a new account (`newOwner`). Can only be called by the current owner."
					},
					"unlockNFT(uint256[],address)": {
						"details": "unlock NFT from the contract",
						"params": {
							"_tokenIds": "token ids to unlock"
						}
					}
				},
				"version": 1
			},
			"evm": {
				"assembly": "    /* \"contracts/Staking.sol\":412:7589  contract NFTStaking1 is Ownable, ReentrancyGuard {... */\n  mstore(0x40, 0x80)\n    /* \"contracts/Staking.sol\":1581:1785  constructor(... */\n  callvalue\n  dup1\n  iszero\n  tag_1\n  jumpi\n  0x00\n  dup1\n  revert\ntag_1:\n  pop\n  mload(0x40)\n  sub(codesize, bytecodeSize)\n  dup1\n  bytecodeSize\n  dup4\n  codecopy\n  dup2\n  dup2\n  add\n  0x40\n  mstore\n  dup2\n  add\n  swap1\n  tag_2\n  swap2\n  swap1\n  tag_3\n  jump\t// in\ntag_2:\n    /* \"@openzeppelin/contracts/access/Ownable.sol\":936:968  _transferOwnership(_msgSender()) */\n  tag_8\n    /* \"@openzeppelin/contracts/access/Ownable.sol\":955:967  _msgSender() */\n  tag_9\n    /* \"@openzeppelin/contracts/access/Ownable.sol\":955:965  _msgSender */\n  shl(0x20, tag_10)\n    /* \"@openzeppelin/contracts/access/Ownable.sol\":955:967  _msgSender() */\n  0x20\n  shr\n  jump\t// in\ntag_9:\n    /* \"@openzeppelin/contracts/access/Ownable.sol\":936:954  _transferOwnership */\n  shl(0x20, tag_11)\n    /* \"@openzeppelin/contracts/access/Ownable.sol\":936:968  _transferOwnership(_msgSender()) */\n  0x20\n  shr\n  jump\t// in\ntag_8:\n    /* \"@openzeppelin/contracts/security/ReentrancyGuard.sol\":1701:1702  1 */\n  0x01\n    /* \"@openzeppelin/contracts/security/ReentrancyGuard.sol\":1806:1813  _status */\n  dup1\n    /* \"@openzeppelin/contracts/security/ReentrancyGuard.sol\":1806:1828  _status = _NOT_ENTERED */\n  dup2\n  swap1\n  sstore\n  pop\n    /* \"contracts/Staking.sol\":1692:1693  0 */\n  0x00\n    /* \"contracts/Staking.sol\":1678:1689  _lockPeriod */\n  dup3\n    /* \"contracts/Staking.sol\":1678:1693  _lockPeriod > 0 */\n  gt\n    /* \"contracts/Staking.sol\":1670:1717  require(_lockPeriod > 0, \"Invalid lock period\") */\n  tag_14\n  jumpi\n  mload(0x40)\n  0x08c379a000000000000000000000000000000000000000000000000000000000\n  dup2\n  mstore\n  0x04\n  add\n  tag_15\n  swap1\n  tag_16\n  jump\t// in\ntag_15:\n  mload(0x40)\n  dup1\n  swap2\n  sub\n  swap1\n  revert\ntag_14:\n    /* \"contracts/Staking.sol\":1743:1754  _lockPeriod */\n  dup2\n    /* \"contracts/Staking.sol\":1730:1740  lockPeriod */\n  0x02\n    /* \"contracts/Staking.sol\":1730:1754  lockPeriod = _lockPeriod */\n  dup2\n  swap1\n  sstore\n  pop\n    /* \"contracts/Staking.sol\":1772:1777  _wave */\n  dup1\n    /* \"contracts/Staking.sol\":1765:1769  WAVE */\n  0x05\n    /* \"contracts/Staking.sol\":1765:1777  WAVE = _wave */\n  dup2\n  swap1\n  sstore\n  pop\n    /* \"contracts/Staking.sol\":1581:1785  constructor(... */\n  pop\n  pop\n    /* \"contracts/Staking.sol\":412:7589  contract NFTStaking1 is Ownable, ReentrancyGuard {... */\n  jump(tag_17)\n    /* \"@openzeppelin/contracts/utils/Context.sol\":640:736  function _msgSender() internal view virtual returns (address) {... */\ntag_10:\n    /* \"@openzeppelin/contracts/utils/Context.sol\":693:700  address */\n  0x00\n    /* \"@openzeppelin/contracts/utils/Context.sol\":719:729  msg.sender */\n  caller\n    /* \"@openzeppelin/contracts/utils/Context.sol\":712:729  return msg.sender */\n  swap1\n  pop\n    /* \"@openzeppelin/contracts/utils/Context.sol\":640:736  function _msgSender() internal view virtual returns (address) {... */\n  swap1\n  jump\t// out\n    /* \"@openzeppelin/contracts/access/Ownable.sol\":2433:2620  function _transferOwnership(address newOwner) internal virtual {... */\ntag_11:\n    /* \"@openzeppelin/contracts/access/Ownable.sol\":2506:2522  address oldOwner */\n  0x00\n    /* \"@openzeppelin/contracts/access/Ownable.sol\":2525:2531  _owner */\n  dup1\n  0x00\n  swap1\n  sload\n  swap1\n  0x0100\n  exp\n  swap1\n  div\n  0xffffffffffffffffffffffffffffffffffffffff\n  and\n    /* \"@openzeppelin/contracts/access/Ownable.sol\":2506:2531  address oldOwner = _owner */\n  swap1\n  pop\n    /* \"@openzeppelin/contracts/access/Ownable.sol\":2550:2558  newOwner */\n  dup2\n    /* \"@openzeppelin/contracts/access/Ownable.sol\":2541:2547  _owner */\n  0x00\n  dup1\n    /* \"@openzeppelin/contracts/access/Ownable.sol\":2541:2558  _owner = newOwner */\n  0x0100\n  exp\n  dup2\n  sload\n  dup2\n  0xffffffffffffffffffffffffffffffffffffffff\n  mul\n  not\n  and\n  swap1\n  dup4\n  0xffffffffffffffffffffffffffffffffffffffff\n  and\n  mul\n  or\n  swap1\n  sstore\n  pop\n    /* \"@openzeppelin/contracts/access/Ownable.sol\":2604:2612  newOwner */\n  dup2\n    /* \"@openzeppelin/contracts/access/Ownable.sol\":2573:2613  OwnershipTransferred(oldOwner, newOwner) */\n  0xffffffffffffffffffffffffffffffffffffffff\n  and\n    /* \"@openzeppelin/contracts/access/Ownable.sol\":2594:2602  oldOwner */\n  dup2\n    /* \"@openzeppelin/contracts/access/Ownable.sol\":2573:2613  OwnershipTransferred(oldOwner, newOwner) */\n  0xffffffffffffffffffffffffffffffffffffffff\n  and\n  0x8be0079c531659141344cd1fd0a4f28419497f9722a3daafe3b4186f6b6457e0\n  mload(0x40)\n  mload(0x40)\n  dup1\n  swap2\n  sub\n  swap1\n  log3\n    /* \"@openzeppelin/contracts/access/Ownable.sol\":2496:2620  {... */\n  pop\n    /* \"@openzeppelin/contracts/access/Ownable.sol\":2433:2620  function _transferOwnership(address newOwner) internal virtual {... */\n  pop\n  jump\t// out\n    /* \"#utility.yul\":88:205   */\ntag_21:\n    /* \"#utility.yul\":197:198   */\n  0x00\n    /* \"#utility.yul\":194:195   */\n  dup1\n    /* \"#utility.yul\":187:199   */\n  revert\n    /* \"#utility.yul\":334:411   */\ntag_23:\n    /* \"#utility.yul\":371:378   */\n  0x00\n    /* \"#utility.yul\":400:405   */\n  dup2\n    /* \"#utility.yul\":389:405   */\n  swap1\n  pop\n    /* \"#utility.yul\":334:411   */\n  swap2\n  swap1\n  pop\n  jump\t// out\n    /* \"#utility.yul\":417:539   */\ntag_24:\n    /* \"#utility.yul\":490:514   */\n  tag_35\n    /* \"#utility.yul\":508:513   */\n  dup2\n    /* \"#utility.yul\":490:514   */\n  tag_23\n  jump\t// in\ntag_35:\n    /* \"#utility.yul\":483:488   */\n  dup2\n    /* \"#utility.yul\":480:515   */\n  eq\n    /* \"#utility.yul\":470:533   */\n  tag_36\n  jumpi\n    /* \"#utility.yul\":529:530   */\n  0x00\n    /* \"#utility.yul\":526:527   */\n  dup1\n    /* \"#utility.yul\":519:531   */\n  revert\n    /* \"#utility.yul\":470:533   */\ntag_36:\n    /* \"#utility.yul\":417:539   */\n  pop\n  jump\t// out\n    /* \"#utility.yul\":545:688   */\ntag_25:\n    /* \"#utility.yul\":602:607   */\n  0x00\n    /* \"#utility.yul\":633:639   */\n  dup2\n    /* \"#utility.yul\":627:640   */\n  mload\n    /* \"#utility.yul\":618:640   */\n  swap1\n  pop\n    /* \"#utility.yul\":649:682   */\n  tag_38\n    /* \"#utility.yul\":676:681   */\n  dup2\n    /* \"#utility.yul\":649:682   */\n  tag_24\n  jump\t// in\ntag_38:\n    /* \"#utility.yul\":545:688   */\n  swap3\n  swap2\n  pop\n  pop\n  jump\t// out\n    /* \"#utility.yul\":694:1201   */\ntag_3:\n    /* \"#utility.yul\":773:779   */\n  0x00\n    /* \"#utility.yul\":781:787   */\n  dup1\n    /* \"#utility.yul\":830:832   */\n  0x40\n    /* \"#utility.yul\":818:827   */\n  dup4\n    /* \"#utility.yul\":809:816   */\n  dup6\n    /* \"#utility.yul\":805:828   */\n  sub\n    /* \"#utility.yul\":801:833   */\n  slt\n    /* \"#utility.yul\":798:917   */\n  iszero\n  tag_40\n  jumpi\n    /* \"#utility.yul\":836:915   */\n  tag_41\n  tag_21\n  jump\t// in\ntag_41:\n    /* \"#utility.yul\":798:917   */\ntag_40:\n    /* \"#utility.yul\":956:957   */\n  0x00\n    /* \"#utility.yul\":981:1045   */\n  tag_42\n    /* \"#utility.yul\":1037:1044   */\n  dup6\n    /* \"#utility.yul\":1028:1034   */\n  dup3\n    /* \"#utility.yul\":1017:1026   */\n  dup7\n    /* \"#utility.yul\":1013:1035   */\n  add\n    /* \"#utility.yul\":981:1045   */\n  tag_25\n  jump\t// in\ntag_42:\n    /* \"#utility.yul\":971:1045   */\n  swap3\n  pop\n    /* \"#utility.yul\":927:1055   */\n  pop\n    /* \"#utility.yul\":1094:1096   */\n  0x20\n    /* \"#utility.yul\":1120:1184   */\n  tag_43\n    /* \"#utility.yul\":1176:1183   */\n  dup6\n    /* \"#utility.yul\":1167:1173   */\n  dup3\n    /* \"#utility.yul\":1156:1165   */\n  dup7\n    /* \"#utility.yul\":1152:1174   */\n  add\n    /* \"#utility.yul\":1120:1184   */\n  tag_25\n  jump\t// in\ntag_43:\n    /* \"#utility.yul\":1110:1184   */\n  swap2\n  pop\n    /* \"#utility.yul\":1065:1194   */\n  pop\n    /* \"#utility.yul\":694:1201   */\n  swap3\n  pop\n  swap3\n  swap1\n  pop\n  jump\t// out\n    /* \"#utility.yul\":1207:1376   */\ntag_26:\n    /* \"#utility.yul\":1291:1302   */\n  0x00\n    /* \"#utility.yul\":1325:1331   */\n  dup3\n    /* \"#utility.yul\":1320:1323   */\n  dup3\n    /* \"#utility.yul\":1313:1332   */\n  mstore\n    /* \"#utility.yul\":1365:1369   */\n  0x20\n    /* \"#utility.yul\":1360:1363   */\n  dup3\n    /* \"#utility.yul\":1356:1370   */\n  add\n    /* \"#utility.yul\":1341:1370   */\n  swap1\n  pop\n    /* \"#utility.yul\":1207:1376   */\n  swap3\n  swap2\n  pop\n  pop\n  jump\t// out\n    /* \"#utility.yul\":1382:1551   */\ntag_27:\n    /* \"#utility.yul\":1522:1543   */\n  0x496e76616c6964206c6f636b20706572696f6400000000000000000000000000\n    /* \"#utility.yul\":1518:1519   */\n  0x00\n    /* \"#utility.yul\":1510:1516   */\n  dup3\n    /* \"#utility.yul\":1506:1520   */\n  add\n    /* \"#utility.yul\":1499:1544   */\n  mstore\n    /* \"#utility.yul\":1382:1551   */\n  pop\n  jump\t// out\n    /* \"#utility.yul\":1557:1923   */\ntag_28:\n    /* \"#utility.yul\":1699:1702   */\n  0x00\n    /* \"#utility.yul\":1720:1787   */\n  tag_47\n    /* \"#utility.yul\":1784:1786   */\n  0x13\n    /* \"#utility.yul\":1779:1782   */\n  dup4\n    /* \"#utility.yul\":1720:1787   */\n  tag_26\n  jump\t// in\ntag_47:\n    /* \"#utility.yul\":1713:1787   */\n  swap2\n  pop\n    /* \"#utility.yul\":1796:1889   */\n  tag_48\n    /* \"#utility.yul\":1885:1888   */\n  dup3\n    /* \"#utility.yul\":1796:1889   */\n  tag_27\n  jump\t// in\ntag_48:\n    /* \"#utility.yul\":1914:1916   */\n  0x20\n    /* \"#utility.yul\":1909:1912   */\n  dup3\n    /* \"#utility.yul\":1905:1917   */\n  add\n    /* \"#utility.yul\":1898:1917   */\n  swap1\n  pop\n    /* \"#utility.yul\":1557:1923   */\n  swap2\n  swap1\n  pop\n  jump\t// out\n    /* \"#utility.yul\":1929:2348   */\ntag_16:\n    /* \"#utility.yul\":2095:2099   */\n  0x00\n    /* \"#utility.yul\":2133:2135   */\n  0x20\n    /* \"#utility.yul\":2122:2131   */\n  dup3\n    /* \"#utility.yul\":2118:2136   */\n  add\n    /* \"#utility.yul\":2110:2136   */\n  swap1\n  pop\n    /* \"#utility.yul\":2182:2191   */\n  dup2\n    /* \"#utility.yul\":2176:2180   */\n  dup2\n    /* \"#utility.yul\":2172:2192   */\n  sub\n    /* \"#utility.yul\":2168:2169   */\n  0x00\n    /* \"#utility.yul\":2157:2166   */\n  dup4\n    /* \"#utility.yul\":2153:2170   */\n  add\n    /* \"#utility.yul\":2146:2193   */\n  mstore\n    /* \"#utility.yul\":2210:2341   */\n  tag_50\n    /* \"#utility.yul\":2336:2340   */\n  dup2\n    /* \"#utility.yul\":2210:2341   */\n  tag_28\n  jump\t// in\ntag_50:\n    /* \"#utility.yul\":2202:2341   */\n  swap1\n  pop\n    /* \"#utility.yul\":1929:2348   */\n  swap2\n  swap1\n  pop\n  jump\t// out\n    /* \"contracts/Staking.sol\":412:7589  contract NFTStaking1 is Ownable, ReentrancyGuard {... */\ntag_17:\n  dataSize(sub_0)\n  dup1\n  dataOffset(sub_0)\n  0x00\n  codecopy\n  0x00\n  return\nstop\n\nsub_0: assembly {\n        /* \"contracts/Staking.sol\":412:7589  contract NFTStaking1 is Ownable, ReentrancyGuard {... */\n      mstore(0x40, 0x80)\n      callvalue\n      dup1\n      iszero\n      tag_1\n      jumpi\n      0x00\n      dup1\n      revert\n    tag_1:\n      pop\n      jumpi(tag_2, lt(calldatasize, 0x04))\n      shr(0xe0, calldataload(0x00))\n      dup1\n      0xb2520a7c\n      gt\n      tag_16\n      jumpi\n      dup1\n      0xe9545b92\n      gt\n      tag_17\n      jumpi\n      dup1\n      0xe9545b92\n      eq\n      tag_12\n      jumpi\n      dup1\n      0xea112c1b\n      eq\n      tag_13\n      jumpi\n      dup1\n      0xeee00ed0\n      eq\n      tag_14\n      jumpi\n      dup1\n      0xf2fde38b\n      eq\n      tag_15\n      jumpi\n      jump(tag_2)\n    tag_17:\n      dup1\n      0xb2520a7c\n      eq\n      tag_9\n      jumpi\n      dup1\n      0xb33068c4\n      eq\n      tag_10\n      jumpi\n      dup1\n      0xc69d1923\n      eq\n      tag_11\n      jumpi\n      jump(tag_2)\n    tag_16:\n      dup1\n      0x0520537f\n      eq\n      tag_3\n      jumpi\n      dup1\n      0x1902732e\n      eq\n      tag_4\n      jumpi\n      dup1\n      0x3fd8b02f\n      eq\n      tag_5\n      jumpi\n      dup1\n      0x715018a6\n      eq\n      tag_6\n      jumpi\n      dup1\n      0x8da5cb5b\n      eq\n      tag_7\n      jumpi\n      dup1\n      0x9f3625f0\n      eq\n      tag_8\n      jumpi\n    tag_2:\n      0x00\n      dup1\n      revert\n        /* \"contracts/Staking.sol\":6011:7011  function claimRewards(uint256[] calldata _tokenIds,IERC721 nftAddress) external notContract {... */\n    tag_3:\n      tag_18\n      0x04\n      dup1\n      calldatasize\n      sub\n      dup2\n      add\n      swap1\n      tag_19\n      swap2\n      swap1\n      tag_20\n      jump\t// in\n    tag_19:\n      tag_21\n      jump\t// in\n    tag_18:\n      stop\n        /* \"contracts/Staking.sol\":3806:4562  function lockNFT(uint256[] calldata  _tokenIds, IERC721 nftAddress ) external notContract nonReentrant {... */\n    tag_4:\n      tag_22\n      0x04\n      dup1\n      calldatasize\n      sub\n      dup2\n      add\n      swap1\n      tag_23\n      swap2\n      swap1\n      tag_20\n      jump\t// in\n    tag_23:\n      tag_24\n      jump\t// in\n    tag_22:\n      stop\n        /* \"contracts/Staking.sol\":502:527  uint256 public lockPeriod */\n    tag_5:\n      tag_25\n      tag_26\n      jump\t// in\n    tag_25:\n      mload(0x40)\n      tag_27\n      swap2\n      swap1\n      tag_28\n      jump\t// in\n    tag_27:\n      mload(0x40)\n      dup1\n      swap2\n      sub\n      swap1\n      return\n        /* \"@openzeppelin/contracts/access/Ownable.sol\":1831:1932  function renounceOwnership() public virtual onlyOwner {... */\n    tag_6:\n      tag_29\n      tag_30\n      jump\t// in\n    tag_29:\n      stop\n        /* \"@openzeppelin/contracts/access/Ownable.sol\":1201:1286  function owner() public view virtual returns (address) {... */\n    tag_7:\n      tag_31\n      tag_32\n      jump\t// in\n    tag_31:\n      mload(0x40)\n      tag_33\n      swap2\n      swap1\n      tag_34\n      jump\t// in\n    tag_33:\n      mload(0x40)\n      dup1\n      swap2\n      sub\n      swap1\n      return\n        /* \"contracts/Staking.sol\":4675:5913  function unlockNFT(uint256[] calldata _tokenIds, IERC721 nftAddress) external notContract nonReentrant {... */\n    tag_8:\n      tag_35\n      0x04\n      dup1\n      calldatasize\n      sub\n      dup2\n      add\n      swap1\n      tag_36\n      swap2\n      swap1\n      tag_20\n      jump\t// in\n    tag_36:\n      tag_37\n      jump\t// in\n    tag_35:\n      stop\n        /* \"contracts/Staking.sol\":770:834  mapping(IERC721 => mapping(uint256 => LockInfo)) public lockInfo */\n    tag_9:\n      tag_38\n      0x04\n      dup1\n      calldatasize\n      sub\n      dup2\n      add\n      swap1\n      tag_39\n      swap2\n      swap1\n      tag_40\n      jump\t// in\n    tag_39:\n      tag_41\n      jump\t// in\n    tag_38:\n      mload(0x40)\n      tag_42\n      swap6\n      swap5\n      swap4\n      swap3\n      swap2\n      swap1\n      tag_43\n      jump\t// in\n    tag_42:\n      mload(0x40)\n      dup1\n      swap2\n      sub\n      swap1\n      return\n        /* \"contracts/Staking.sol\":3491:3665  function claimedRewards(uint256 _tokenId, IERC721 nftAddress) external view returns (uint256) {... */\n    tag_10:\n      tag_44\n      0x04\n      dup1\n      calldatasize\n      sub\n      dup2\n      add\n      swap1\n      tag_45\n      swap2\n      swap1\n      tag_46\n      jump\t// in\n    tag_45:\n      tag_47\n      jump\t// in\n    tag_44:\n      mload(0x40)\n      tag_48\n      swap2\n      swap1\n      tag_28\n      jump\t// in\n    tag_48:\n      mload(0x40)\n      dup1\n      swap2\n      sub\n      swap1\n      return\n        /* \"contracts/Staking.sol\":1099:1118  uint256 public WAVE */\n    tag_11:\n      tag_49\n      tag_50\n      jump\t// in\n    tag_49:\n      mload(0x40)\n      tag_51\n      swap2\n      swap1\n      tag_28\n      jump\t// in\n    tag_51:\n      mload(0x40)\n      dup1\n      swap2\n      sub\n      swap1\n      return\n        /* \"contracts/Staking.sol\":1016:1063  mapping(IERC721 => stakeNftInfo) public nftInfo */\n    tag_12:\n      tag_52\n      0x04\n      dup1\n      calldatasize\n      sub\n      dup2\n      add\n      swap1\n      tag_53\n      swap2\n      swap1\n      tag_54\n      jump\t// in\n    tag_53:\n      tag_55\n      jump\t// in\n    tag_52:\n      mload(0x40)\n      tag_56\n      swap4\n      swap3\n      swap2\n      swap1\n      tag_57\n      jump\t// in\n    tag_56:\n      mload(0x40)\n      dup1\n      swap2\n      sub\n      swap1\n      return\n        /* \"contracts/Staking.sol\":3109:3323  function addStakingNfts(uint256 _lockPeriod) external onlyOwner {... */\n    tag_13:\n      tag_58\n      0x04\n      dup1\n      calldatasize\n      sub\n      dup2\n      add\n      swap1\n      tag_59\n      swap2\n      swap1\n      tag_60\n      jump\t// in\n    tag_59:\n      tag_61\n      jump\t// in\n    tag_58:\n      stop\n        /* \"contracts/Staking.sol\":2208:2985  function addStakingNfts(... */\n    tag_14:\n      tag_62\n      0x04\n      dup1\n      calldatasize\n      sub\n      dup2\n      add\n      swap1\n      tag_63\n      swap2\n      swap1\n      tag_64\n      jump\t// in\n    tag_63:\n      tag_65\n      jump\t// in\n    tag_62:\n      stop\n        /* \"@openzeppelin/contracts/access/Ownable.sol\":2081:2279  function transferOwnership(address newOwner) public virtual onlyOwner {... */\n    tag_15:\n      tag_66\n      0x04\n      dup1\n      calldatasize\n      sub\n      dup2\n      add\n      swap1\n      tag_67\n      swap2\n      swap1\n      tag_68\n      jump\t// in\n    tag_67:\n      tag_69\n      jump\t// in\n    tag_66:\n      stop\n        /* \"contracts/Staking.sol\":6011:7011  function claimRewards(uint256[] calldata _tokenIds,IERC721 nftAddress) external notContract {... */\n    tag_21:\n        /* \"contracts/Staking.sol\":1858:1890  address(msg.sender).isContract() */\n      tag_71\n        /* \"contracts/Staking.sol\":1866:1876  msg.sender */\n      caller\n        /* \"contracts/Staking.sol\":1858:1888  address(msg.sender).isContract */\n      0xffffffffffffffffffffffffffffffffffffffff\n      and\n      tag_72\n        /* \"contracts/Staking.sol\":1858:1890  address(msg.sender).isContract() */\n      jump\t// in\n    tag_71:\n        /* \"contracts/Staking.sol\":1857:1890  !address(msg.sender).isContract() */\n      iszero\n        /* \"contracts/Staking.sol\":1849:1915  require(!address(msg.sender).isContract(), \"Contract not allowed\") */\n      tag_73\n      jumpi\n      mload(0x40)\n      0x08c379a000000000000000000000000000000000000000000000000000000000\n      dup2\n      mstore\n      0x04\n      add\n      tag_74\n      swap1\n      tag_75\n      jump\t// in\n    tag_74:\n      mload(0x40)\n      dup1\n      swap2\n      sub\n      swap1\n      revert\n    tag_73:\n        /* \"contracts/Staking.sol\":1948:1957  tx.origin */\n      origin\n        /* \"contracts/Staking.sol\":1934:1957  msg.sender == tx.origin */\n      0xffffffffffffffffffffffffffffffffffffffff\n      and\n        /* \"contracts/Staking.sol\":1934:1944  msg.sender */\n      caller\n        /* \"contracts/Staking.sol\":1934:1957  msg.sender == tx.origin */\n      0xffffffffffffffffffffffffffffffffffffffff\n      and\n      eq\n        /* \"contracts/Staking.sol\":1926:1988  require(msg.sender == tx.origin, \"Proxy contract not allowed\") */\n      tag_76\n      jumpi\n      mload(0x40)\n      0x08c379a000000000000000000000000000000000000000000000000000000000\n      dup2\n      mstore\n      0x04\n      add\n      tag_77\n      swap1\n      tag_78\n      jump\t// in\n    tag_77:\n      mload(0x40)\n      dup1\n      swap2\n      sub\n      swap1\n      revert\n    tag_76:\n        /* \"contracts/Staking.sol\":6141:6142  0 */\n      0x00\n        /* \"contracts/Staking.sol\":6122:6131  _tokenIds */\n      dup4\n      dup4\n        /* \"contracts/Staking.sol\":6122:6138  _tokenIds.length */\n      swap1\n      pop\n        /* \"contracts/Staking.sol\":6122:6142  _tokenIds.length > 0 */\n      gt\n        /* \"contracts/Staking.sol\":6114:6156  require(_tokenIds.length > 0, \"No tokens\") */\n      tag_80\n      jumpi\n      mload(0x40)\n      0x08c379a000000000000000000000000000000000000000000000000000000000\n      dup2\n      mstore\n      0x04\n      add\n      tag_81\n      swap1\n      tag_82\n      jump\t// in\n    tag_81:\n      mload(0x40)\n      dup1\n      swap2\n      sub\n      swap1\n      revert\n    tag_80:\n        /* \"contracts/Staking.sol\":6169:6189  uint256 totalRewards */\n      0x00\n        /* \"contracts/Staking.sol\":6205:6214  uint256 i */\n      dup1\n        /* \"contracts/Staking.sol\":6217:6218  0 */\n      0x00\n        /* \"contracts/Staking.sol\":6205:6218  uint256 i = 0 */\n      swap1\n      pop\n        /* \"contracts/Staking.sol\":6200:6935  for (uint256 i = 0; i < _tokenIds.length; i++) {... */\n    tag_83:\n        /* \"contracts/Staking.sol\":6224:6233  _tokenIds */\n      dup5\n      dup5\n        /* \"contracts/Staking.sol\":6224:6240  _tokenIds.length */\n      swap1\n      pop\n        /* \"contracts/Staking.sol\":6220:6221  i */\n      dup2\n        /* \"contracts/Staking.sol\":6220:6240  i < _tokenIds.length */\n      lt\n        /* \"contracts/Staking.sol\":6200:6935  for (uint256 i = 0; i < _tokenIds.length; i++) {... */\n      iszero\n      tag_84\n      jumpi\n        /* \"contracts/Staking.sol\":6262:6282  LockInfo memory info */\n      0x00\n        /* \"contracts/Staking.sol\":6285:6293  lockInfo */\n      0x03\n        /* \"contracts/Staking.sol\":6285:6314  lockInfo[IERC721(nftAddress)] */\n      0x00\n        /* \"contracts/Staking.sol\":6302:6312  nftAddress */\n      dup6\n        /* \"contracts/Staking.sol\":6285:6314  lockInfo[IERC721(nftAddress)] */\n      0xffffffffffffffffffffffffffffffffffffffff\n      and\n      0xffffffffffffffffffffffffffffffffffffffff\n      and\n      dup2\n      mstore\n      0x20\n      add\n      swap1\n      dup2\n      mstore\n      0x20\n      add\n      0x00\n      keccak256\n        /* \"contracts/Staking.sol\":6285:6328  lockInfo[IERC721(nftAddress)][_tokenIds[i]] */\n      0x00\n        /* \"contracts/Staking.sol\":6315:6324  _tokenIds */\n      dup8\n      dup8\n        /* \"contracts/Staking.sol\":6325:6326  i */\n      dup6\n        /* \"contracts/Staking.sol\":6315:6327  _tokenIds[i] */\n      dup2\n      dup2\n      lt\n      tag_86\n      jumpi\n      tag_87\n      tag_88\n      jump\t// in\n    tag_87:\n    tag_86:\n      swap1\n      pop\n      0x20\n      mul\n      add\n      calldataload\n        /* \"contracts/Staking.sol\":6285:6328  lockInfo[IERC721(nftAddress)][_tokenIds[i]] */\n      dup2\n      mstore\n      0x20\n      add\n      swap1\n      dup2\n      mstore\n      0x20\n      add\n      0x00\n      keccak256\n        /* \"contracts/Staking.sol\":6262:6328  LockInfo memory info = lockInfo[IERC721(nftAddress)][_tokenIds[i]] */\n      mload(0x40)\n      dup1\n      0xa0\n      add\n      0x40\n      mstore\n      swap1\n      dup2\n      0x00\n      dup3\n      add\n      0x00\n      swap1\n      sload\n      swap1\n      0x0100\n      exp\n      swap1\n      div\n      0xffffffffffffffffffffffffffffffffffffffff\n      and\n      0xffffffffffffffffffffffffffffffffffffffff\n      and\n      0xffffffffffffffffffffffffffffffffffffffff\n      and\n      dup2\n      mstore\n      0x20\n      add\n      0x01\n      dup3\n      add\n      sload\n      dup2\n      mstore\n      0x20\n      add\n      0x02\n      dup3\n      add\n      sload\n      dup2\n      mstore\n      0x20\n      add\n      0x03\n      dup3\n      add\n      0x00\n      swap1\n      sload\n      swap1\n      0x0100\n      exp\n      swap1\n      div\n      0xff\n      and\n      iszero\n      iszero\n      iszero\n      iszero\n      dup2\n      mstore\n      0x20\n      add\n      0x03\n      dup3\n      add\n      0x01\n      swap1\n      sload\n      swap1\n      0x0100\n      exp\n      swap1\n      div\n      0xffffffffffffffffffffffffffffffffffffffff\n      and\n      0xffffffffffffffffffffffffffffffffffffffff\n      and\n      0xffffffffffffffffffffffffffffffffffffffff\n      and\n      dup2\n      mstore\n      pop\n      pop\n      swap1\n      pop\n        /* \"contracts/Staking.sol\":6365:6375  msg.sender */\n      caller\n        /* \"contracts/Staking.sol\":6351:6375  info.owner == msg.sender */\n      0xffffffffffffffffffffffffffffffffffffffff\n      and\n        /* \"contracts/Staking.sol\":6351:6355  info */\n      dup2\n        /* \"contracts/Staking.sol\":6351:6361  info.owner */\n      0x00\n      add\n      mload\n        /* \"contracts/Staking.sol\":6351:6375  info.owner == msg.sender */\n      0xffffffffffffffffffffffffffffffffffffffff\n      and\n      eq\n        /* \"contracts/Staking.sol\":6343:6397  require(info.owner == msg.sender, \"Not a token owner\") */\n      tag_89\n      jumpi\n      mload(0x40)\n      0x08c379a000000000000000000000000000000000000000000000000000000000\n      dup2\n      mstore\n      0x04\n      add\n      tag_90\n      swap1\n      tag_91\n      jump\t// in\n    tag_90:\n      mload(0x40)\n      dup1\n      swap2\n      sub\n      swap1\n      revert\n    tag_89:\n        /* \"contracts/Staking.sol\":6451:6466  block.timestamp */\n      timestamp\n        /* \"contracts/Staking.sol\":6438:6448  lockPeriod */\n      sload(0x02)\n        /* \"contracts/Staking.sol\":6420:6424  info */\n      dup3\n        /* \"contracts/Staking.sol\":6420:6435  info.lockedTime */\n      0x20\n      add\n      mload\n        /* \"contracts/Staking.sol\":6420:6448  info.lockedTime + lockPeriod */\n      tag_92\n      swap2\n      swap1\n      tag_93\n      jump\t// in\n    tag_92:\n        /* \"contracts/Staking.sol\":6420:6466  info.lockedTime + lockPeriod < block.timestamp */\n      lt\n        /* \"contracts/Staking.sol\":6412:6492  require(info.lockedTime + lockPeriod < block.timestamp, \"Not able to claim yet\") */\n      tag_94\n      jumpi\n      mload(0x40)\n      0x08c379a000000000000000000000000000000000000000000000000000000000\n      dup2\n      mstore\n      0x04\n      add\n      tag_95\n      swap1\n      tag_96\n      jump\t// in\n    tag_95:\n      mload(0x40)\n      dup1\n      swap2\n      sub\n      swap1\n      revert\n    tag_94:\n        /* \"contracts/Staking.sol\":6516:6520  info */\n      dup1\n        /* \"contracts/Staking.sol\":6516:6531  info.isUnlocked */\n      0x60\n      add\n      mload\n        /* \"contracts/Staking.sol\":6515:6531  !info.isUnlocked */\n      iszero\n        /* \"contracts/Staking.sol\":6507:6552  require(!info.isUnlocked, \"Already unlocked\") */\n      tag_97\n      jumpi\n      mload(0x40)\n      0x08c379a000000000000000000000000000000000000000000000000000000000\n      dup2\n      mstore\n      0x04\n      add\n      tag_98\n      swap1\n      tag_99\n      jump\t// in\n    tag_98:\n      mload(0x40)\n      dup1\n      swap2\n      sub\n      swap1\n      revert\n    tag_97:\n        /* \"contracts/Staking.sol\":6569:6588  uint256 totalAmount */\n      0x00\n        /* \"contracts/Staking.sol\":6591:6630  _rewardAmount(_tokenIds[i], nftAddress) */\n      tag_100\n        /* \"contracts/Staking.sol\":6605:6614  _tokenIds */\n      dup8\n      dup8\n        /* \"contracts/Staking.sol\":6615:6616  i */\n      dup6\n        /* \"contracts/Staking.sol\":6605:6617  _tokenIds[i] */\n      dup2\n      dup2\n      lt\n      tag_101\n      jumpi\n      tag_102\n      tag_88\n      jump\t// in\n    tag_102:\n    tag_101:\n      swap1\n      pop\n      0x20\n      mul\n      add\n      calldataload\n        /* \"contracts/Staking.sol\":6619:6629  nftAddress */\n      dup7\n        /* \"contracts/Staking.sol\":6591:6604  _rewardAmount */\n      tag_103\n        /* \"contracts/Staking.sol\":6591:6630  _rewardAmount(_tokenIds[i], nftAddress) */\n      jump\t// in\n    tag_100:\n        /* \"contracts/Staking.sol\":6569:6630  uint256 totalAmount = _rewardAmount(_tokenIds[i], nftAddress) */\n      swap1\n      pop\n        /* \"contracts/Staking.sol\":6645:6669  uint256 unclaminedAmount */\n      0x00\n        /* \"contracts/Staking.sol\":6686:6690  info */\n      dup3\n        /* \"contracts/Staking.sol\":6686:6705  info.claimedRewards */\n      0x40\n      add\n      mload\n        /* \"contracts/Staking.sol\":6672:6683  totalAmount */\n      dup3\n        /* \"contracts/Staking.sol\":6672:6705  totalAmount - info.claimedRewards */\n      tag_104\n      swap2\n      swap1\n      tag_105\n      jump\t// in\n    tag_104:\n        /* \"contracts/Staking.sol\":6645:6705  uint256 unclaminedAmount = totalAmount - info.claimedRewards */\n      swap1\n      pop\n        /* \"contracts/Staking.sol\":6720:6727  nftInfo */\n      0x04\n        /* \"contracts/Staking.sol\":6720:6739  nftInfo[nftAddress] */\n      0x00\n        /* \"contracts/Staking.sol\":6728:6738  nftAddress */\n      dup8\n        /* \"contracts/Staking.sol\":6720:6739  nftInfo[nftAddress] */\n      0xffffffffffffffffffffffffffffffffffffffff\n      and\n      0xffffffffffffffffffffffffffffffffffffffff\n      and\n      dup2\n      mstore\n      0x20\n      add\n      swap1\n      dup2\n      mstore\n      0x20\n      add\n      0x00\n      keccak256\n        /* \"contracts/Staking.sol\":6720:6752  nftInfo[nftAddress].rewardsToken */\n      0x00\n      add\n      0x00\n      swap1\n      sload\n      swap1\n      0x0100\n      exp\n      swap1\n      div\n      0xffffffffffffffffffffffffffffffffffffffff\n      and\n        /* \"contracts/Staking.sol\":6720:6757  nftInfo[nftAddress].rewardsToken.mint */\n      0xffffffffffffffffffffffffffffffffffffffff\n      and\n      0x40c10f19\n        /* \"contracts/Staking.sol\":6758:6768  msg.sender */\n      caller\n        /* \"contracts/Staking.sol\":6770:6786  unclaminedAmount */\n      dup4\n        /* \"contracts/Staking.sol\":6720:6787  nftInfo[nftAddress].rewardsToken.mint(msg.sender, unclaminedAmount) */\n      mload(0x40)\n      dup4\n      0xffffffff\n      and\n      0xe0\n      shl\n      dup2\n      mstore\n      0x04\n      add\n      tag_106\n      swap3\n      swap2\n      swap1\n      tag_107\n      jump\t// in\n    tag_106:\n      0x00\n      mload(0x40)\n      dup1\n      dup4\n      sub\n      dup2\n      0x00\n      dup8\n      dup1\n      extcodesize\n      iszero\n      dup1\n      iszero\n      tag_108\n      jumpi\n      0x00\n      dup1\n      revert\n    tag_108:\n      pop\n      gas\n      call\n      iszero\n      dup1\n      iszero\n      tag_110\n      jumpi\n      returndatasize\n      0x00\n      dup1\n      returndatacopy\n      revert(0x00, returndatasize)\n    tag_110:\n      pop\n      pop\n      pop\n      pop\n        /* \"contracts/Staking.sol\":6818:6834  unclaminedAmount */\n      dup1\n        /* \"contracts/Staking.sol\":6802:6834  totalRewards += unclaminedAmount */\n      dup6\n      tag_111\n      swap2\n      swap1\n      tag_93\n      jump\t// in\n    tag_111:\n      swap5\n      pop\n        /* \"contracts/Staking.sol\":6912:6923  totalAmount */\n      dup2\n        /* \"contracts/Staking.sol\":6851:6859  lockInfo */\n      0x03\n        /* \"contracts/Staking.sol\":6851:6880  lockInfo[IERC721(nftAddress)] */\n      0x00\n        /* \"contracts/Staking.sol\":6868:6878  nftAddress */\n      dup9\n        /* \"contracts/Staking.sol\":6851:6880  lockInfo[IERC721(nftAddress)] */\n      0xffffffffffffffffffffffffffffffffffffffff\n      and\n      0xffffffffffffffffffffffffffffffffffffffff\n      and\n      dup2\n      mstore\n      0x20\n      add\n      swap1\n      dup2\n      mstore\n      0x20\n      add\n      0x00\n      keccak256\n        /* \"contracts/Staking.sol\":6851:6894  lockInfo[IERC721(nftAddress)][_tokenIds[i]] */\n      0x00\n        /* \"contracts/Staking.sol\":6881:6890  _tokenIds */\n      dup11\n      dup11\n        /* \"contracts/Staking.sol\":6891:6892  i */\n      dup9\n        /* \"contracts/Staking.sol\":6881:6893  _tokenIds[i] */\n      dup2\n      dup2\n      lt\n      tag_112\n      jumpi\n      tag_113\n      tag_88\n      jump\t// in\n    tag_113:\n    tag_112:\n      swap1\n      pop\n      0x20\n      mul\n      add\n      calldataload\n        /* \"contracts/Staking.sol\":6851:6894  lockInfo[IERC721(nftAddress)][_tokenIds[i]] */\n      dup2\n      mstore\n      0x20\n      add\n      swap1\n      dup2\n      mstore\n      0x20\n      add\n      0x00\n      keccak256\n        /* \"contracts/Staking.sol\":6851:6909  lockInfo[IERC721(nftAddress)][_tokenIds[i]].claimedRewards */\n      0x02\n      add\n        /* \"contracts/Staking.sol\":6851:6923  lockInfo[IERC721(nftAddress)][_tokenIds[i]].claimedRewards = totalAmount */\n      dup2\n      swap1\n      sstore\n      pop\n        /* \"contracts/Staking.sol\":6247:6935  {... */\n      pop\n      pop\n      pop\n        /* \"contracts/Staking.sol\":6242:6245  i++ */\n      dup1\n      dup1\n      tag_114\n      swap1\n      tag_115\n      jump\t// in\n    tag_114:\n      swap2\n      pop\n      pop\n        /* \"contracts/Staking.sol\":6200:6935  for (uint256 i = 0; i < _tokenIds.length; i++) {... */\n      jump(tag_83)\n    tag_84:\n      pop\n        /* \"contracts/Staking.sol\":6967:6977  msg.sender */\n      caller\n        /* \"contracts/Staking.sol\":6952:7003  RewardsClaimed(msg.sender, _tokenIds, totalRewards) */\n      0xffffffffffffffffffffffffffffffffffffffff\n      and\n      0x37826be3c26dbad83731f4b985f22fa9ef86b6d1974cd77208332b7f1f283c0c\n        /* \"contracts/Staking.sol\":6979:6988  _tokenIds */\n      dup6\n      dup6\n        /* \"contracts/Staking.sol\":6990:7002  totalRewards */\n      dup5\n        /* \"contracts/Staking.sol\":6952:7003  RewardsClaimed(msg.sender, _tokenIds, totalRewards) */\n      mload(0x40)\n      tag_116\n      swap4\n      swap3\n      swap2\n      swap1\n      tag_117\n      jump\t// in\n    tag_116:\n      mload(0x40)\n      dup1\n      swap2\n      sub\n      swap1\n      log2\n        /* \"contracts/Staking.sol\":6103:7011  {... */\n      pop\n        /* \"contracts/Staking.sol\":6011:7011  function claimRewards(uint256[] calldata _tokenIds,IERC721 nftAddress) external notContract {... */\n      pop\n      pop\n      pop\n      jump\t// out\n        /* \"contracts/Staking.sol\":3806:4562  function lockNFT(uint256[] calldata  _tokenIds, IERC721 nftAddress ) external notContract nonReentrant {... */\n    tag_24:\n        /* \"contracts/Staking.sol\":1858:1890  address(msg.sender).isContract() */\n      tag_119\n        /* \"contracts/Staking.sol\":1866:1876  msg.sender */\n      caller\n        /* \"contracts/Staking.sol\":1858:1888  address(msg.sender).isContract */\n      0xffffffffffffffffffffffffffffffffffffffff\n      and\n      tag_72\n        /* \"contracts/Staking.sol\":1858:1890  address(msg.sender).isContract() */\n      jump\t// in\n    tag_119:\n        /* \"contracts/Staking.sol\":1857:1890  !address(msg.sender).isContract() */\n      iszero\n        /* \"contracts/Staking.sol\":1849:1915  require(!address(msg.sender).isContract(), \"Contract not allowed\") */\n      tag_120\n      jumpi\n      mload(0x40)\n      0x08c379a000000000000000000000000000000000000000000000000000000000\n      dup2\n      mstore\n      0x04\n      add\n      tag_121\n      swap1\n      tag_75\n      jump\t// in\n    tag_121:\n      mload(0x40)\n      dup1\n      swap2\n      sub\n      swap1\n      revert\n    tag_120:\n        /* \"contracts/Staking.sol\":1948:1957  tx.origin */\n      origin\n        /* \"contracts/Staking.sol\":1934:1957  msg.sender == tx.origin */\n      0xffffffffffffffffffffffffffffffffffffffff\n      and\n        /* \"contracts/Staking.sol\":1934:1944  msg.sender */\n      caller\n        /* \"contracts/Staking.sol\":1934:1957  msg.sender == tx.origin */\n      0xffffffffffffffffffffffffffffffffffffffff\n      and\n      eq\n        /* \"contracts/Staking.sol\":1926:1988  require(msg.sender == tx.origin, \"Proxy contract not allowed\") */\n      tag_122\n      jumpi\n      mload(0x40)\n      0x08c379a000000000000000000000000000000000000000000000000000000000\n      dup2\n      mstore\n      0x04\n      add\n      tag_123\n      swap1\n      tag_78\n      jump\t// in\n    tag_123:\n      mload(0x40)\n      dup1\n      swap2\n      sub\n      swap1\n      revert\n    tag_122:\n        /* \"@openzeppelin/contracts/security/ReentrancyGuard.sol\":1744:1745  2 */\n      0x02\n        /* \"@openzeppelin/contracts/security/ReentrancyGuard.sol\":2325:2332  _status */\n      sload(0x01)\n        /* \"@openzeppelin/contracts/security/ReentrancyGuard.sol\":2325:2344  _status != _ENTERED */\n      sub\n        /* \"@openzeppelin/contracts/security/ReentrancyGuard.sol\":2317:2380  require(_status != _ENTERED, \"ReentrancyGuard: reentrant call\") */\n      tag_125\n      jumpi\n      mload(0x40)\n      0x08c379a000000000000000000000000000000000000000000000000000000000\n      dup2\n      mstore\n      0x04\n      add\n      tag_126\n      swap1\n      tag_127\n      jump\t// in\n    tag_126:\n      mload(0x40)\n      dup1\n      swap2\n      sub\n      swap1\n      revert\n    tag_125:\n        /* \"@openzeppelin/contracts/security/ReentrancyGuard.sol\":1744:1745  2 */\n      0x02\n        /* \"@openzeppelin/contracts/security/ReentrancyGuard.sol\":2455:2462  _status */\n      0x01\n        /* \"@openzeppelin/contracts/security/ReentrancyGuard.sol\":2455:2473  _status = _ENTERED */\n      dup2\n      swap1\n      sstore\n      pop\n        /* \"contracts/Staking.sol\":3980:4022  0x0000000000000000000000000000000000000000 */\n      0x00\n        /* \"contracts/Staking.sol\":3930:4023  nftInfo[nftAddress].rewardsToken == IRewardsToken(0x0000000000000000000000000000000000000000) */\n      0xffffffffffffffffffffffffffffffffffffffff\n      and\n        /* \"contracts/Staking.sol\":3930:3937  nftInfo */\n      0x04\n        /* \"contracts/Staking.sol\":3930:3949  nftInfo[nftAddress] */\n      0x00\n        /* \"contracts/Staking.sol\":3938:3948  nftAddress */\n      dup4\n        /* \"contracts/Staking.sol\":3930:3949  nftInfo[nftAddress] */\n      0xffffffffffffffffffffffffffffffffffffffff\n      and\n      0xffffffffffffffffffffffffffffffffffffffff\n      and\n      dup2\n      mstore\n      0x20\n      add\n      swap1\n      dup2\n      mstore\n      0x20\n      add\n      0x00\n      keccak256\n        /* \"contracts/Staking.sol\":3930:3962  nftInfo[nftAddress].rewardsToken */\n      0x00\n      add\n      0x00\n      swap1\n      sload\n      swap1\n      0x0100\n      exp\n      swap1\n      div\n      0xffffffffffffffffffffffffffffffffffffffff\n      and\n        /* \"contracts/Staking.sol\":3930:4023  nftInfo[nftAddress].rewardsToken == IRewardsToken(0x0000000000000000000000000000000000000000) */\n      0xffffffffffffffffffffffffffffffffffffffff\n      and\n      eq\n        /* \"contracts/Staking.sol\":3922:4074  require(nftInfo[nftAddress].rewardsToken == IRewardsToken(0x0000000000000000000000000000000000000000), \"Staking: Register collection by addStakingNfts\") */\n      tag_129\n      jumpi\n      mload(0x40)\n      0x08c379a000000000000000000000000000000000000000000000000000000000\n      dup2\n      mstore\n      0x04\n      add\n      tag_130\n      swap1\n      tag_131\n      jump\t// in\n    tag_130:\n      mload(0x40)\n      dup1\n      swap2\n      sub\n      swap1\n      revert\n    tag_129:\n        /* \"contracts/Staking.sol\":4112:4113  0 */\n      0x00\n        /* \"contracts/Staking.sol\":4093:4102  _tokenIds */\n      dup4\n      dup4\n        /* \"contracts/Staking.sol\":4093:4109  _tokenIds.length */\n      swap1\n      pop\n        /* \"contracts/Staking.sol\":4093:4113  _tokenIds.length > 0 */\n      gt\n        /* \"contracts/Staking.sol\":4085:4127  require(_tokenIds.length > 0, \"No tokens\") */\n      tag_132\n      jumpi\n      mload(0x40)\n      0x08c379a000000000000000000000000000000000000000000000000000000000\n      dup2\n      mstore\n      0x04\n      add\n      tag_133\n      swap1\n      tag_82\n      jump\t// in\n    tag_133:\n      mload(0x40)\n      dup1\n      swap2\n      sub\n      swap1\n      revert\n    tag_132:\n        /* \"contracts/Staking.sol\":4145:4154  uint256 i */\n      0x00\n        /* \"contracts/Staking.sol\":4140:4505  for (uint256 i = 0; i < _tokenIds.length; i++) {... */\n    tag_134:\n        /* \"contracts/Staking.sol\":4164:4173  _tokenIds */\n      dup4\n      dup4\n        /* \"contracts/Staking.sol\":4164:4180  _tokenIds.length */\n      swap1\n      pop\n        /* \"contracts/Staking.sol\":4160:4161  i */\n      dup2\n        /* \"contracts/Staking.sol\":4160:4180  i < _tokenIds.length */\n      lt\n        /* \"contracts/Staking.sol\":4140:4505  for (uint256 i = 0; i < _tokenIds.length; i++) {... */\n      iszero\n      tag_135\n      jumpi\n        /* \"contracts/Staking.sol\":4246:4256  msg.sender */\n      caller\n        /* \"contracts/Staking.sol\":4210:4256  nftAddress.ownerOf(_tokenIds[i]) == msg.sender */\n      0xffffffffffffffffffffffffffffffffffffffff\n      and\n        /* \"contracts/Staking.sol\":4210:4220  nftAddress */\n      dup3\n        /* \"contracts/Staking.sol\":4210:4228  nftAddress.ownerOf */\n      0xffffffffffffffffffffffffffffffffffffffff\n      and\n      0x6352211e\n        /* \"contracts/Staking.sol\":4229:4238  _tokenIds */\n      dup7\n      dup7\n        /* \"contracts/Staking.sol\":4239:4240  i */\n      dup6\n        /* \"contracts/Staking.sol\":4229:4241  _tokenIds[i] */\n      dup2\n      dup2\n      lt\n      tag_137\n      jumpi\n      tag_138\n      tag_88\n      jump\t// in\n    tag_138:\n    tag_137:\n      swap1\n      pop\n      0x20\n      mul\n      add\n      calldataload\n        /* \"contracts/Staking.sol\":4210:4242  nftAddress.ownerOf(_tokenIds[i]) */\n      mload(0x40)\n      dup3\n      0xffffffff\n      and\n      0xe0\n      shl\n      dup2\n      mstore\n      0x04\n      add\n      tag_139\n      swap2\n      swap1\n      tag_28\n      jump\t// in\n    tag_139:\n      0x20\n      mload(0x40)\n      dup1\n      dup4\n      sub\n      dup2\n      dup7\n      gas\n      staticcall\n      iszero\n      dup1\n      iszero\n      tag_141\n      jumpi\n      returndatasize\n      0x00\n      dup1\n      returndatacopy\n      revert(0x00, returndatasize)\n    tag_141:\n      pop\n      pop\n      pop\n      pop\n      mload(0x40)\n      returndatasize\n      not(0x1f)\n      0x1f\n      dup3\n      add\n      and\n      dup3\n      add\n      dup1\n      0x40\n      mstore\n      pop\n      dup2\n      add\n      swap1\n      tag_142\n      swap2\n      swap1\n      tag_143\n      jump\t// in\n    tag_142:\n        /* \"contracts/Staking.sol\":4210:4256  nftAddress.ownerOf(_tokenIds[i]) == msg.sender */\n      0xffffffffffffffffffffffffffffffffffffffff\n      and\n      eq\n        /* \"contracts/Staking.sol\":4202:4286  require(nftAddress.ownerOf(_tokenIds[i]) == msg.sender, \"You don't hold this token\") */\n      tag_144\n      jumpi\n      mload(0x40)\n      0x08c379a000000000000000000000000000000000000000000000000000000000\n      dup2\n      mstore\n      0x04\n      add\n      tag_145\n      swap1\n      tag_146\n      jump\t// in\n    tag_145:\n      mload(0x40)\n      dup1\n      swap2\n      sub\n      swap1\n      revert\n    tag_144:\n        /* \"contracts/Staking.sol\":4301:4311  nftAddress */\n      dup2\n        /* \"contracts/Staking.sol\":4301:4324  nftAddress.transferFrom */\n      0xffffffffffffffffffffffffffffffffffffffff\n      and\n      0x23b872dd\n        /* \"contracts/Staking.sol\":4325:4335  msg.sender */\n      caller\n        /* \"contracts/Staking.sol\":4345:4349  this */\n      address\n        /* \"contracts/Staking.sol\":4352:4361  _tokenIds */\n      dup8\n      dup8\n        /* \"contracts/Staking.sol\":4362:4363  i */\n      dup7\n        /* \"contracts/Staking.sol\":4352:4364  _tokenIds[i] */\n      dup2\n      dup2\n      lt\n      tag_147\n      jumpi\n      tag_148\n      tag_88\n      jump\t// in\n    tag_148:\n    tag_147:\n      swap1\n      pop\n      0x20\n      mul\n      add\n      calldataload\n        /* \"contracts/Staking.sol\":4301:4365  nftAddress.transferFrom(msg.sender, address(this), _tokenIds[i]) */\n      mload(0x40)\n      dup5\n      0xffffffff\n      and\n      0xe0\n      shl\n      dup2\n      mstore\n      0x04\n      add\n      tag_149\n      swap4\n      swap3\n      swap2\n      swap1\n      tag_150\n      jump\t// in\n    tag_149:\n      0x00\n      mload(0x40)\n      dup1\n      dup4\n      sub\n      dup2\n      0x00\n      dup8\n      dup1\n      extcodesize\n      iszero\n      dup1\n      iszero\n      tag_151\n      jumpi\n      0x00\n      dup1\n      revert\n    tag_151:\n      pop\n      gas\n      call\n      iszero\n      dup1\n      iszero\n      tag_153\n      jumpi\n      returndatasize\n      0x00\n      dup1\n      returndatacopy\n      revert(0x00, returndatasize)\n    tag_153:\n      pop\n      pop\n      pop\n      pop\n        /* \"contracts/Staking.sol\":4426:4493  LockInfo(msg.sender, block.timestamp, 0, false,IERC721(nftAddress)) */\n      mload(0x40)\n      dup1\n      0xa0\n      add\n      0x40\n      mstore\n      dup1\n        /* \"contracts/Staking.sol\":4435:4445  msg.sender */\n      caller\n        /* \"contracts/Staking.sol\":4426:4493  LockInfo(msg.sender, block.timestamp, 0, false,IERC721(nftAddress)) */\n      0xffffffffffffffffffffffffffffffffffffffff\n      and\n      dup2\n      mstore\n      0x20\n      add\n        /* \"contracts/Staking.sol\":4447:4462  block.timestamp */\n      timestamp\n        /* \"contracts/Staking.sol\":4426:4493  LockInfo(msg.sender, block.timestamp, 0, false,IERC721(nftAddress)) */\n      dup2\n      mstore\n      0x20\n      add\n        /* \"contracts/Staking.sol\":4464:4465  0 */\n      0x00\n        /* \"contracts/Staking.sol\":4426:4493  LockInfo(msg.sender, block.timestamp, 0, false,IERC721(nftAddress)) */\n      dup2\n      mstore\n      0x20\n      add\n        /* \"contracts/Staking.sol\":4467:4472  false */\n      0x00\n        /* \"contracts/Staking.sol\":4426:4493  LockInfo(msg.sender, block.timestamp, 0, false,IERC721(nftAddress)) */\n      iszero\n      iszero\n      dup2\n      mstore\n      0x20\n      add\n        /* \"contracts/Staking.sol\":4481:4491  nftAddress */\n      dup4\n        /* \"contracts/Staking.sol\":4426:4493  LockInfo(msg.sender, block.timestamp, 0, false,IERC721(nftAddress)) */\n      0xffffffffffffffffffffffffffffffffffffffff\n      and\n      dup2\n      mstore\n      pop\n        /* \"contracts/Staking.sol\":4380:4388  lockInfo */\n      0x03\n        /* \"contracts/Staking.sol\":4380:4409  lockInfo[IERC721(nftAddress)] */\n      0x00\n        /* \"contracts/Staking.sol\":4397:4407  nftAddress */\n      dup5\n        /* \"contracts/Staking.sol\":4380:4409  lockInfo[IERC721(nftAddress)] */\n      0xffffffffffffffffffffffffffffffffffffffff\n      and\n      0xffffffffffffffffffffffffffffffffffffffff\n      and\n      dup2\n      mstore\n      0x20\n      add\n      swap1\n      dup2\n      mstore\n      0x20\n      add\n      0x00\n      keccak256\n        /* \"contracts/Staking.sol\":4380:4423  lockInfo[IERC721(nftAddress)][_tokenIds[i]] */\n      0x00\n        /* \"contracts/Staking.sol\":4410:4419  _tokenIds */\n      dup7\n      dup7\n        /* \"contracts/Staking.sol\":4420:4421  i */\n      dup6\n        /* \"contracts/Staking.sol\":4410:4422  _tokenIds[i] */\n      dup2\n      dup2\n      lt\n      tag_154\n      jumpi\n      tag_155\n      tag_88\n      jump\t// in\n    tag_155:\n    tag_154:\n      swap1\n      pop\n      0x20\n      mul\n      add\n      calldataload\n        /* \"contracts/Staking.sol\":4380:4423  lockInfo[IERC721(nftAddress)][_tokenIds[i]] */\n      dup2\n      mstore\n      0x20\n      add\n      swap1\n      dup2\n      mstore\n      0x20\n      add\n      0x00\n      keccak256\n        /* \"contracts/Staking.sol\":4380:4493  lockInfo[IERC721(nftAddress)][_tokenIds[i]] = LockInfo(msg.sender, block.timestamp, 0, false,IERC721(nftAddress)) */\n      0x00\n      dup3\n      add\n      mload\n      dup2\n      0x00\n      add\n      exp(0x0100, 0x00)\n      dup2\n      sload\n      dup2\n      0xffffffffffffffffffffffffffffffffffffffff\n      mul\n      not\n      and\n      swap1\n      dup4\n      0xffffffffffffffffffffffffffffffffffffffff\n      and\n      mul\n      or\n      swap1\n      sstore\n      pop\n      0x20\n      dup3\n      add\n      mload\n      dup2\n      0x01\n      add\n      sstore\n      0x40\n      dup3\n      add\n      mload\n      dup2\n      0x02\n      add\n      sstore\n      0x60\n      dup3\n      add\n      mload\n      dup2\n      0x03\n      add\n      exp(0x0100, 0x00)\n      dup2\n      sload\n      dup2\n      0xff\n      mul\n      not\n      and\n      swap1\n      dup4\n      iszero\n      iszero\n      mul\n      or\n      swap1\n      sstore\n      pop\n      0x80\n      dup3\n      add\n      mload\n      dup2\n      0x03\n      add\n      exp(0x0100, 0x01)\n      dup2\n      sload\n      dup2\n      0xffffffffffffffffffffffffffffffffffffffff\n      mul\n      not\n      and\n      swap1\n      dup4\n      0xffffffffffffffffffffffffffffffffffffffff\n      and\n      mul\n      or\n      swap1\n      sstore\n      pop\n      swap1\n      pop\n      pop\n        /* \"contracts/Staking.sol\":4182:4185  i++ */\n      dup1\n      dup1\n      tag_156\n      swap1\n      tag_115\n      jump\t// in\n    tag_156:\n      swap2\n      pop\n      pop\n        /* \"contracts/Staking.sol\":4140:4505  for (uint256 i = 0; i < _tokenIds.length; i++) {... */\n      jump(tag_134)\n    tag_135:\n      pop\n        /* \"contracts/Staking.sol\":4532:4542  msg.sender */\n      caller\n        /* \"contracts/Staking.sol\":4522:4554  NFTLocked(msg.sender, _tokenIds) */\n      0xffffffffffffffffffffffffffffffffffffffff\n      and\n      0x458be0227bccc9e803dec79bd16767eeaf9925d2ce708eeed7ae1f3621f968f9\n        /* \"contracts/Staking.sol\":4544:4553  _tokenIds */\n      dup5\n      dup5\n        /* \"contracts/Staking.sol\":4522:4554  NFTLocked(msg.sender, _tokenIds) */\n      mload(0x40)\n      tag_157\n      swap3\n      swap2\n      swap1\n      tag_158\n      jump\t// in\n    tag_157:\n      mload(0x40)\n      dup1\n      swap2\n      sub\n      swap1\n      log2\n        /* \"@openzeppelin/contracts/security/ReentrancyGuard.sol\":1701:1702  1 */\n      0x01\n        /* \"@openzeppelin/contracts/security/ReentrancyGuard.sol\":2628:2635  _status */\n      dup1\n        /* \"@openzeppelin/contracts/security/ReentrancyGuard.sol\":2628:2650  _status = _NOT_ENTERED */\n      dup2\n      swap1\n      sstore\n      pop\n        /* \"contracts/Staking.sol\":3806:4562  function lockNFT(uint256[] calldata  _tokenIds, IERC721 nftAddress ) external notContract nonReentrant {... */\n      pop\n      pop\n      pop\n      jump\t// out\n        /* \"contracts/Staking.sol\":502:527  uint256 public lockPeriod */\n    tag_26:\n      sload(0x02)\n      dup2\n      jump\t// out\n        /* \"@openzeppelin/contracts/access/Ownable.sol\":1831:1932  function renounceOwnership() public virtual onlyOwner {... */\n    tag_30:\n        /* \"@openzeppelin/contracts/access/Ownable.sol\":1094:1107  _checkOwner() */\n      tag_160\n        /* \"@openzeppelin/contracts/access/Ownable.sol\":1094:1105  _checkOwner */\n      tag_161\n        /* \"@openzeppelin/contracts/access/Ownable.sol\":1094:1107  _checkOwner() */\n      jump\t// in\n    tag_160:\n        /* \"@openzeppelin/contracts/access/Ownable.sol\":1895:1925  _transferOwnership(address(0)) */\n      tag_163\n        /* \"@openzeppelin/contracts/access/Ownable.sol\":1922:1923  0 */\n      0x00\n        /* \"@openzeppelin/contracts/access/Ownable.sol\":1895:1913  _transferOwnership */\n      tag_164\n        /* \"@openzeppelin/contracts/access/Ownable.sol\":1895:1925  _transferOwnership(address(0)) */\n      jump\t// in\n    tag_163:\n        /* \"@openzeppelin/contracts/access/Ownable.sol\":1831:1932  function renounceOwnership() public virtual onlyOwner {... */\n      jump\t// out\n        /* \"@openzeppelin/contracts/access/Ownable.sol\":1201:1286  function owner() public view virtual returns (address) {... */\n    tag_32:\n        /* \"@openzeppelin/contracts/access/Ownable.sol\":1247:1254  address */\n      0x00\n        /* \"@openzeppelin/contracts/access/Ownable.sol\":1273:1279  _owner */\n      dup1\n      0x00\n      swap1\n      sload\n      swap1\n      0x0100\n      exp\n      swap1\n      div\n      0xffffffffffffffffffffffffffffffffffffffff\n      and\n        /* \"@openzeppelin/contracts/access/Ownable.sol\":1266:1279  return _owner */\n      swap1\n      pop\n        /* \"@openzeppelin/contracts/access/Ownable.sol\":1201:1286  function owner() public view virtual returns (address) {... */\n      swap1\n      jump\t// out\n        /* \"contracts/Staking.sol\":4675:5913  function unlockNFT(uint256[] calldata _tokenIds, IERC721 nftAddress) external notContract nonReentrant {... */\n    tag_37:\n        /* \"contracts/Staking.sol\":1858:1890  address(msg.sender).isContract() */\n      tag_167\n        /* \"contracts/Staking.sol\":1866:1876  msg.sender */\n      caller\n        /* \"contracts/Staking.sol\":1858:1888  address(msg.sender).isContract */\n      0xffffffffffffffffffffffffffffffffffffffff\n      and\n      tag_72\n        /* \"contracts/Staking.sol\":1858:1890  address(msg.sender).isContract() */\n      jump\t// in\n    tag_167:\n        /* \"contracts/Staking.sol\":1857:1890  !address(msg.sender).isContract() */\n      iszero\n        /* \"contracts/Staking.sol\":1849:1915  require(!address(msg.sender).isContract(), \"Contract not allowed\") */\n      tag_168\n      jumpi\n      mload(0x40)\n      0x08c379a000000000000000000000000000000000000000000000000000000000\n      dup2\n      mstore\n      0x04\n      add\n      tag_169\n      swap1\n      tag_75\n      jump\t// in\n    tag_169:\n      mload(0x40)\n      dup1\n      swap2\n      sub\n      swap1\n      revert\n    tag_168:\n        /* \"contracts/Staking.sol\":1948:1957  tx.origin */\n      origin\n        /* \"contracts/Staking.sol\":1934:1957  msg.sender == tx.origin */\n      0xffffffffffffffffffffffffffffffffffffffff\n      and\n        /* \"contracts/Staking.sol\":1934:1944  msg.sender */\n      caller\n        /* \"contracts/Staking.sol\":1934:1957  msg.sender == tx.origin */\n      0xffffffffffffffffffffffffffffffffffffffff\n      and\n      eq\n        /* \"contracts/Staking.sol\":1926:1988  require(msg.sender == tx.origin, \"Proxy contract not allowed\") */\n      tag_170\n      jumpi\n      mload(0x40)\n      0x08c379a000000000000000000000000000000000000000000000000000000000\n      dup2\n      mstore\n      0x04\n      add\n      tag_171\n      swap1\n      tag_78\n      jump\t// in\n    tag_171:\n      mload(0x40)\n      dup1\n      swap2\n      sub\n      swap1\n      revert\n    tag_170:\n        /* \"@openzeppelin/contracts/security/ReentrancyGuard.sol\":1744:1745  2 */\n      0x02\n        /* \"@openzeppelin/contracts/security/ReentrancyGuard.sol\":2325:2332  _status */\n      sload(0x01)\n        /* \"@openzeppelin/contracts/security/ReentrancyGuard.sol\":2325:2344  _status != _ENTERED */\n      sub\n        /* \"@openzeppelin/contracts/security/ReentrancyGuard.sol\":2317:2380  require(_status != _ENTERED, \"ReentrancyGuard: reentrant call\") */\n      tag_173\n      jumpi\n      mload(0x40)\n      0x08c379a000000000000000000000000000000000000000000000000000000000\n      dup2\n      mstore\n      0x04\n      add\n      tag_174\n      swap1\n      tag_127\n      jump\t// in\n    tag_174:\n      mload(0x40)\n      dup1\n      swap2\n      sub\n      swap1\n      revert\n    tag_173:\n        /* \"@openzeppelin/contracts/security/ReentrancyGuard.sol\":1744:1745  2 */\n      0x02\n        /* \"@openzeppelin/contracts/security/ReentrancyGuard.sol\":2455:2462  _status */\n      0x01\n        /* \"@openzeppelin/contracts/security/ReentrancyGuard.sol\":2455:2473  _status = _ENTERED */\n      dup2\n      swap1\n      sstore\n      pop\n        /* \"contracts/Staking.sol\":4847:4889  0x0000000000000000000000000000000000000000 */\n      0x00\n        /* \"contracts/Staking.sol\":4797:4890  nftInfo[nftAddress].rewardsToken == IRewardsToken(0x0000000000000000000000000000000000000000) */\n      0xffffffffffffffffffffffffffffffffffffffff\n      and\n        /* \"contracts/Staking.sol\":4797:4804  nftInfo */\n      0x04\n        /* \"contracts/Staking.sol\":4797:4816  nftInfo[nftAddress] */\n      0x00\n        /* \"contracts/Staking.sol\":4805:4815  nftAddress */\n      dup4\n        /* \"contracts/Staking.sol\":4797:4816  nftInfo[nftAddress] */\n      0xffffffffffffffffffffffffffffffffffffffff\n      and\n      0xffffffffffffffffffffffffffffffffffffffff\n      and\n      dup2\n      mstore\n      0x20\n      add\n      swap1\n      dup2\n      mstore\n      0x20\n      add\n      0x00\n      keccak256\n        /* \"contracts/Staking.sol\":4797:4829  nftInfo[nftAddress].rewardsToken */\n      0x00\n      add\n      0x00\n      swap1\n      sload\n      swap1\n      0x0100\n      exp\n      swap1\n      div\n      0xffffffffffffffffffffffffffffffffffffffff\n      and\n        /* \"contracts/Staking.sol\":4797:4890  nftInfo[nftAddress].rewardsToken == IRewardsToken(0x0000000000000000000000000000000000000000) */\n      0xffffffffffffffffffffffffffffffffffffffff\n      and\n      eq\n        /* \"contracts/Staking.sol\":4789:4941  require(nftInfo[nftAddress].rewardsToken == IRewardsToken(0x0000000000000000000000000000000000000000), \"Staking: Register collection by addStakingNfts\") */\n      tag_176\n      jumpi\n      mload(0x40)\n      0x08c379a000000000000000000000000000000000000000000000000000000000\n      dup2\n      mstore\n      0x04\n      add\n      tag_177\n      swap1\n      tag_131\n      jump\t// in\n    tag_177:\n      mload(0x40)\n      dup1\n      swap2\n      sub\n      swap1\n      revert\n    tag_176:\n        /* \"contracts/Staking.sol\":4979:4980  0 */\n      0x00\n        /* \"contracts/Staking.sol\":4960:4969  _tokenIds */\n      dup4\n      dup4\n        /* \"contracts/Staking.sol\":4960:4976  _tokenIds.length */\n      swap1\n      pop\n        /* \"contracts/Staking.sol\":4960:4980  _tokenIds.length > 0 */\n      gt\n        /* \"contracts/Staking.sol\":4952:4994  require(_tokenIds.length > 0, \"No tokens\") */\n      tag_178\n      jumpi\n      mload(0x40)\n      0x08c379a000000000000000000000000000000000000000000000000000000000\n      dup2\n      mstore\n      0x04\n      add\n      tag_179\n      swap1\n      tag_82\n      jump\t// in\n    tag_179:\n      mload(0x40)\n      dup1\n      swap2\n      sub\n      swap1\n      revert\n    tag_178:\n        /* \"contracts/Staking.sol\":5012:5021  uint256 i */\n      0x00\n        /* \"contracts/Staking.sol\":5007:5854  for (uint256 i = 0; i < _tokenIds.length; i++) {... */\n    tag_180:\n        /* \"contracts/Staking.sol\":5031:5040  _tokenIds */\n      dup4\n      dup4\n        /* \"contracts/Staking.sol\":5031:5047  _tokenIds.length */\n      swap1\n      pop\n        /* \"contracts/Staking.sol\":5027:5028  i */\n      dup2\n        /* \"contracts/Staking.sol\":5027:5047  i < _tokenIds.length */\n      lt\n        /* \"contracts/Staking.sol\":5007:5854  for (uint256 i = 0; i < _tokenIds.length; i++) {... */\n      iszero\n      tag_181\n      jumpi\n        /* \"contracts/Staking.sol\":5069:5089  LockInfo memory info */\n      0x00\n        /* \"contracts/Staking.sol\":5092:5100  lockInfo */\n      0x03\n        /* \"contracts/Staking.sol\":5092:5121  lockInfo[IERC721(nftAddress)] */\n      0x00\n        /* \"contracts/Staking.sol\":5109:5119  nftAddress */\n      dup5\n        /* \"contracts/Staking.sol\":5092:5121  lockInfo[IERC721(nftAddress)] */\n      0xffffffffffffffffffffffffffffffffffffffff\n      and\n      0xffffffffffffffffffffffffffffffffffffffff\n      and\n      dup2\n      mstore\n      0x20\n      add\n      swap1\n      dup2\n      mstore\n      0x20\n      add\n      0x00\n      keccak256\n        /* \"contracts/Staking.sol\":5092:5135  lockInfo[IERC721(nftAddress)][_tokenIds[i]] */\n      0x00\n        /* \"contracts/Staking.sol\":5122:5131  _tokenIds */\n      dup7\n      dup7\n        /* \"contracts/Staking.sol\":5132:5133  i */\n      dup6\n        /* \"contracts/Staking.sol\":5122:5134  _tokenIds[i] */\n      dup2\n      dup2\n      lt\n      tag_183\n      jumpi\n      tag_184\n      tag_88\n      jump\t// in\n    tag_184:\n    tag_183:\n      swap1\n      pop\n      0x20\n      mul\n      add\n      calldataload\n        /* \"contracts/Staking.sol\":5092:5135  lockInfo[IERC721(nftAddress)][_tokenIds[i]] */\n      dup2\n      mstore\n      0x20\n      add\n      swap1\n      dup2\n      mstore\n      0x20\n      add\n      0x00\n      keccak256\n        /* \"contracts/Staking.sol\":5069:5135  LockInfo memory info = lockInfo[IERC721(nftAddress)][_tokenIds[i]] */\n      mload(0x40)\n      dup1\n      0xa0\n      add\n      0x40\n      mstore\n      swap1\n      dup2\n      0x00\n      dup3\n      add\n      0x00\n      swap1\n      sload\n      swap1\n      0x0100\n      exp\n      swap1\n      div\n      0xffffffffffffffffffffffffffffffffffffffff\n      and\n      0xffffffffffffffffffffffffffffffffffffffff\n      and\n      0xffffffffffffffffffffffffffffffffffffffff\n      and\n      dup2\n      mstore\n      0x20\n      add\n      0x01\n      dup3\n      add\n      sload\n      dup2\n      mstore\n      0x20\n      add\n      0x02\n      dup3\n      add\n      sload\n      dup2\n      mstore\n      0x20\n      add\n      0x03\n      dup3\n      add\n      0x00\n      swap1\n      sload\n      swap1\n      0x0100\n      exp\n      swap1\n      div\n      0xff\n      and\n      iszero\n      iszero\n      iszero\n      iszero\n      dup2\n      mstore\n      0x20\n      add\n      0x03\n      dup3\n      add\n      0x01\n      swap1\n      sload\n      swap1\n      0x0100\n      exp\n      swap1\n      div\n      0xffffffffffffffffffffffffffffffffffffffff\n      and\n      0xffffffffffffffffffffffffffffffffffffffff\n      and\n      0xffffffffffffffffffffffffffffffffffffffff\n      and\n      dup2\n      mstore\n      pop\n      pop\n      swap1\n      pop\n        /* \"contracts/Staking.sol\":5172:5182  msg.sender */\n      caller\n        /* \"contracts/Staking.sol\":5158:5182  info.owner == msg.sender */\n      0xffffffffffffffffffffffffffffffffffffffff\n      and\n        /* \"contracts/Staking.sol\":5158:5162  info */\n      dup2\n        /* \"contracts/Staking.sol\":5158:5168  info.owner */\n      0x00\n      add\n      mload\n        /* \"contracts/Staking.sol\":5158:5182  info.owner == msg.sender */\n      0xffffffffffffffffffffffffffffffffffffffff\n      and\n      eq\n        /* \"contracts/Staking.sol\":5150:5204  require(info.owner == msg.sender, \"Not a token owner\") */\n      tag_185\n      jumpi\n      mload(0x40)\n      0x08c379a000000000000000000000000000000000000000000000000000000000\n      dup2\n      mstore\n      0x04\n      add\n      tag_186\n      swap1\n      tag_91\n      jump\t// in\n    tag_186:\n      mload(0x40)\n      dup1\n      swap2\n      sub\n      swap1\n      revert\n    tag_185:\n        /* \"contracts/Staking.sol\":5258:5273  block.timestamp */\n      timestamp\n        /* \"contracts/Staking.sol\":5245:5255  lockPeriod */\n      sload(0x02)\n        /* \"contracts/Staking.sol\":5227:5231  info */\n      dup3\n        /* \"contracts/Staking.sol\":5227:5242  info.lockedTime */\n      0x20\n      add\n      mload\n        /* \"contracts/Staking.sol\":5227:5255  info.lockedTime + lockPeriod */\n      tag_187\n      swap2\n      swap1\n      tag_93\n      jump\t// in\n    tag_187:\n        /* \"contracts/Staking.sol\":5227:5273  info.lockedTime + lockPeriod < block.timestamp */\n      lt\n        /* \"contracts/Staking.sol\":5219:5300  require(info.lockedTime + lockPeriod < block.timestamp, \"Not able to unlock yet\") */\n      tag_188\n      jumpi\n      mload(0x40)\n      0x08c379a000000000000000000000000000000000000000000000000000000000\n      dup2\n      mstore\n      0x04\n      add\n      tag_189\n      swap1\n      tag_190\n      jump\t// in\n    tag_189:\n      mload(0x40)\n      dup1\n      swap2\n      sub\n      swap1\n      revert\n    tag_188:\n        /* \"contracts/Staking.sol\":5324:5328  info */\n      dup1\n        /* \"contracts/Staking.sol\":5324:5339  info.isUnlocked */\n      0x60\n      add\n      mload\n        /* \"contracts/Staking.sol\":5323:5339  !info.isUnlocked */\n      iszero\n        /* \"contracts/Staking.sol\":5315:5360  require(!info.isUnlocked, \"Already unlocked\") */\n      tag_191\n      jumpi\n      mload(0x40)\n      0x08c379a000000000000000000000000000000000000000000000000000000000\n      dup2\n      mstore\n      0x04\n      add\n      tag_192\n      swap1\n      tag_99\n      jump\t// in\n    tag_192:\n      mload(0x40)\n      dup1\n      swap2\n      sub\n      swap1\n      revert\n    tag_191:\n        /* \"contracts/Staking.sol\":5377:5387  nftAddress */\n      dup3\n        /* \"contracts/Staking.sol\":5377:5400  nftAddress.transferFrom */\n      0xffffffffffffffffffffffffffffffffffffffff\n      and\n      0x23b872dd\n        /* \"contracts/Staking.sol\":5409:5413  this */\n      address\n        /* \"contracts/Staking.sol\":5416:5426  msg.sender */\n      caller\n        /* \"contracts/Staking.sol\":5428:5437  _tokenIds */\n      dup9\n      dup9\n        /* \"contracts/Staking.sol\":5438:5439  i */\n      dup8\n        /* \"contracts/Staking.sol\":5428:5440  _tokenIds[i] */\n      dup2\n      dup2\n      lt\n      tag_193\n      jumpi\n      tag_194\n      tag_88\n      jump\t// in\n    tag_194:\n    tag_193:\n      swap1\n      pop\n      0x20\n      mul\n      add\n      calldataload\n        /* \"contracts/Staking.sol\":5377:5441  nftAddress.transferFrom(address(this), msg.sender, _tokenIds[i]) */\n      mload(0x40)\n      dup5\n      0xffffffff\n      and\n      0xe0\n      shl\n      dup2\n      mstore\n      0x04\n      add\n      tag_195\n      swap4\n      swap3\n      swap2\n      swap1\n      tag_150\n      jump\t// in\n    tag_195:\n      0x00\n      mload(0x40)\n      dup1\n      dup4\n      sub\n      dup2\n      0x00\n      dup8\n      dup1\n      extcodesize\n      iszero\n      dup1\n      iszero\n      tag_196\n      jumpi\n      0x00\n      dup1\n      revert\n    tag_196:\n      pop\n      gas\n      call\n      iszero\n      dup1\n      iszero\n      tag_198\n      jumpi\n      returndatasize\n      0x00\n      dup1\n      returndatacopy\n      revert(0x00, returndatasize)\n    tag_198:\n      pop\n      pop\n      pop\n      pop\n        /* \"contracts/Staking.sol\":5458:5477  uint256 totalAmount */\n      0x00\n        /* \"contracts/Staking.sol\":5480:5519  _rewardAmount(_tokenIds[i], nftAddress) */\n      tag_199\n        /* \"contracts/Staking.sol\":5494:5503  _tokenIds */\n      dup7\n      dup7\n        /* \"contracts/Staking.sol\":5504:5505  i */\n      dup6\n        /* \"contracts/Staking.sol\":5494:5506  _tokenIds[i] */\n      dup2\n      dup2\n      lt\n      tag_200\n      jumpi\n      tag_201\n      tag_88\n      jump\t// in\n    tag_201:\n    tag_200:\n      swap1\n      pop\n      0x20\n      mul\n      add\n      calldataload\n        /* \"contracts/Staking.sol\":5508:5518  nftAddress */\n      dup6\n        /* \"contracts/Staking.sol\":5480:5493  _rewardAmount */\n      tag_103\n        /* \"contracts/Staking.sol\":5480:5519  _rewardAmount(_tokenIds[i], nftAddress) */\n      jump\t// in\n    tag_199:\n        /* \"contracts/Staking.sol\":5458:5519  uint256 totalAmount = _rewardAmount(_tokenIds[i], nftAddress) */\n      swap1\n      pop\n        /* \"contracts/Staking.sol\":5534:5558  uint256 unclaminedAmount */\n      0x00\n        /* \"contracts/Staking.sol\":5575:5579  info */\n      dup3\n        /* \"contracts/Staking.sol\":5575:5594  info.claimedRewards */\n      0x40\n      add\n      mload\n        /* \"contracts/Staking.sol\":5561:5572  totalAmount */\n      dup3\n        /* \"contracts/Staking.sol\":5561:5594  totalAmount - info.claimedRewards */\n      tag_202\n      swap2\n      swap1\n      tag_105\n      jump\t// in\n    tag_202:\n        /* \"contracts/Staking.sol\":5534:5594  uint256 unclaminedAmount = totalAmount - info.claimedRewards */\n      swap1\n      pop\n        /* \"contracts/Staking.sol\":5610:5617  nftInfo */\n      0x04\n        /* \"contracts/Staking.sol\":5610:5629  nftInfo[nftAddress] */\n      0x00\n        /* \"contracts/Staking.sol\":5618:5628  nftAddress */\n      dup7\n        /* \"contracts/Staking.sol\":5610:5629  nftInfo[nftAddress] */\n      0xffffffffffffffffffffffffffffffffffffffff\n      and\n      0xffffffffffffffffffffffffffffffffffffffff\n      and\n      dup2\n      mstore\n      0x20\n      add\n      swap1\n      dup2\n      mstore\n      0x20\n      add\n      0x00\n      keccak256\n        /* \"contracts/Staking.sol\":5610:5642  nftInfo[nftAddress].rewardsToken */\n      0x00\n      add\n      0x00\n      swap1\n      sload\n      swap1\n      0x0100\n      exp\n      swap1\n      div\n      0xffffffffffffffffffffffffffffffffffffffff\n      and\n        /* \"contracts/Staking.sol\":5610:5647  nftInfo[nftAddress].rewardsToken.mint */\n      0xffffffffffffffffffffffffffffffffffffffff\n      and\n      0x40c10f19\n        /* \"contracts/Staking.sol\":5648:5658  msg.sender */\n      caller\n        /* \"contracts/Staking.sol\":5660:5676  unclaminedAmount */\n      dup4\n        /* \"contracts/Staking.sol\":5610:5677  nftInfo[nftAddress].rewardsToken.mint(msg.sender, unclaminedAmount) */\n      mload(0x40)\n      dup4\n      0xffffffff\n      and\n      0xe0\n      shl\n      dup2\n      mstore\n      0x04\n      add\n      tag_203\n      swap3\n      swap2\n      swap1\n      tag_107\n      jump\t// in\n    tag_203:\n      0x00\n      mload(0x40)\n      dup1\n      dup4\n      sub\n      dup2\n      0x00\n      dup8\n      dup1\n      extcodesize\n      iszero\n      dup1\n      iszero\n      tag_204\n      jumpi\n      0x00\n      dup1\n      revert\n    tag_204:\n      pop\n      gas\n      call\n      iszero\n      dup1\n      iszero\n      tag_206\n      jumpi\n      returndatasize\n      0x00\n      dup1\n      returndatacopy\n      revert(0x00, returndatasize)\n    tag_206:\n      pop\n      pop\n      pop\n      pop\n        /* \"contracts/Staking.sol\":5755:5766  totalAmount */\n      dup2\n        /* \"contracts/Staking.sol\":5694:5702  lockInfo */\n      0x03\n        /* \"contracts/Staking.sol\":5694:5723  lockInfo[IERC721(nftAddress)] */\n      0x00\n        /* \"contracts/Staking.sol\":5711:5721  nftAddress */\n      dup8\n        /* \"contracts/Staking.sol\":5694:5723  lockInfo[IERC721(nftAddress)] */\n      0xffffffffffffffffffffffffffffffffffffffff\n      and\n      0xffffffffffffffffffffffffffffffffffffffff\n      and\n      dup2\n      mstore\n      0x20\n      add\n      swap1\n      dup2\n      mstore\n      0x20\n      add\n      0x00\n      keccak256\n        /* \"contracts/Staking.sol\":5694:5737  lockInfo[IERC721(nftAddress)][_tokenIds[i]] */\n      0x00\n        /* \"contracts/Staking.sol\":5724:5733  _tokenIds */\n      dup10\n      dup10\n        /* \"contracts/Staking.sol\":5734:5735  i */\n      dup9\n        /* \"contracts/Staking.sol\":5724:5736  _tokenIds[i] */\n      dup2\n      dup2\n      lt\n      tag_207\n      jumpi\n      tag_208\n      tag_88\n      jump\t// in\n    tag_208:\n    tag_207:\n      swap1\n      pop\n      0x20\n      mul\n      add\n      calldataload\n        /* \"contracts/Staking.sol\":5694:5737  lockInfo[IERC721(nftAddress)][_tokenIds[i]] */\n      dup2\n      mstore\n      0x20\n      add\n      swap1\n      dup2\n      mstore\n      0x20\n      add\n      0x00\n      keccak256\n        /* \"contracts/Staking.sol\":5694:5752  lockInfo[IERC721(nftAddress)][_tokenIds[i]].claimedRewards */\n      0x02\n      add\n        /* \"contracts/Staking.sol\":5694:5766  lockInfo[IERC721(nftAddress)][_tokenIds[i]].claimedRewards = totalAmount */\n      dup2\n      swap1\n      sstore\n      pop\n        /* \"contracts/Staking.sol\":5838:5842  true */\n      0x01\n        /* \"contracts/Staking.sol\":5781:5789  lockInfo */\n      0x03\n        /* \"contracts/Staking.sol\":5781:5810  lockInfo[IERC721(nftAddress)] */\n      0x00\n        /* \"contracts/Staking.sol\":5798:5808  nftAddress */\n      dup8\n        /* \"contracts/Staking.sol\":5781:5810  lockInfo[IERC721(nftAddress)] */\n      0xffffffffffffffffffffffffffffffffffffffff\n      and\n      0xffffffffffffffffffffffffffffffffffffffff\n      and\n      dup2\n      mstore\n      0x20\n      add\n      swap1\n      dup2\n      mstore\n      0x20\n      add\n      0x00\n      keccak256\n        /* \"contracts/Staking.sol\":5781:5824  lockInfo[IERC721(nftAddress)][_tokenIds[i]] */\n      0x00\n        /* \"contracts/Staking.sol\":5811:5820  _tokenIds */\n      dup10\n      dup10\n        /* \"contracts/Staking.sol\":5821:5822  i */\n      dup9\n        /* \"contracts/Staking.sol\":5811:5823  _tokenIds[i] */\n      dup2\n      dup2\n      lt\n      tag_209\n      jumpi\n      tag_210\n      tag_88\n      jump\t// in\n    tag_210:\n    tag_209:\n      swap1\n      pop\n      0x20\n      mul\n      add\n      calldataload\n        /* \"contracts/Staking.sol\":5781:5824  lockInfo[IERC721(nftAddress)][_tokenIds[i]] */\n      dup2\n      mstore\n      0x20\n      add\n      swap1\n      dup2\n      mstore\n      0x20\n      add\n      0x00\n      keccak256\n        /* \"contracts/Staking.sol\":5781:5835  lockInfo[IERC721(nftAddress)][_tokenIds[i]].isUnlocked */\n      0x03\n      add\n      0x00\n        /* \"contracts/Staking.sol\":5781:5842  lockInfo[IERC721(nftAddress)][_tokenIds[i]].isUnlocked = true */\n      0x0100\n      exp\n      dup2\n      sload\n      dup2\n      0xff\n      mul\n      not\n      and\n      swap1\n      dup4\n      iszero\n      iszero\n      mul\n      or\n      swap1\n      sstore\n      pop\n        /* \"contracts/Staking.sol\":5054:5854  {... */\n      pop\n      pop\n      pop\n        /* \"contracts/Staking.sol\":5049:5052  i++ */\n      dup1\n      dup1\n      tag_211\n      swap1\n      tag_115\n      jump\t// in\n    tag_211:\n      swap2\n      pop\n      pop\n        /* \"contracts/Staking.sol\":5007:5854  for (uint256 i = 0; i < _tokenIds.length; i++) {... */\n      jump(tag_180)\n    tag_181:\n      pop\n        /* \"contracts/Staking.sol\":5883:5893  msg.sender */\n      caller\n        /* \"contracts/Staking.sol\":5871:5905  NFTUnLocked(msg.sender, _tokenIds) */\n      0xffffffffffffffffffffffffffffffffffffffff\n      and\n      0x5cb48022479b9ac3bfb10a27965dc010acffc9fc1bc9a52f0b18975b944b54ca\n        /* \"contracts/Staking.sol\":5895:5904  _tokenIds */\n      dup5\n      dup5\n        /* \"contracts/Staking.sol\":5871:5905  NFTUnLocked(msg.sender, _tokenIds) */\n      mload(0x40)\n      tag_212\n      swap3\n      swap2\n      swap1\n      tag_158\n      jump\t// in\n    tag_212:\n      mload(0x40)\n      dup1\n      swap2\n      sub\n      swap1\n      log2\n        /* \"@openzeppelin/contracts/security/ReentrancyGuard.sol\":1701:1702  1 */\n      0x01\n        /* \"@openzeppelin/contracts/security/ReentrancyGuard.sol\":2628:2635  _status */\n      dup1\n        /* \"@openzeppelin/contracts/security/ReentrancyGuard.sol\":2628:2650  _status = _NOT_ENTERED */\n      dup2\n      swap1\n      sstore\n      pop\n        /* \"contracts/Staking.sol\":4675:5913  function unlockNFT(uint256[] calldata _tokenIds, IERC721 nftAddress) external notContract nonReentrant {... */\n      pop\n      pop\n      pop\n      jump\t// out\n        /* \"contracts/Staking.sol\":770:834  mapping(IERC721 => mapping(uint256 => LockInfo)) public lockInfo */\n    tag_41:\n      mstore(0x20, 0x03)\n      dup2\n      0x00\n      mstore\n      mstore(0x20, keccak256(0x00, 0x40))\n      dup1\n      0x00\n      mstore\n      keccak256(0x00, 0x40)\n      0x00\n      swap2\n      pop\n      swap2\n      pop\n      pop\n      dup1\n      0x00\n      add\n      0x00\n      swap1\n      sload\n      swap1\n      0x0100\n      exp\n      swap1\n      div\n      0xffffffffffffffffffffffffffffffffffffffff\n      and\n      swap1\n      dup1\n      0x01\n      add\n      sload\n      swap1\n      dup1\n      0x02\n      add\n      sload\n      swap1\n      dup1\n      0x03\n      add\n      0x00\n      swap1\n      sload\n      swap1\n      0x0100\n      exp\n      swap1\n      div\n      0xff\n      and\n      swap1\n      dup1\n      0x03\n      add\n      0x01\n      swap1\n      sload\n      swap1\n      0x0100\n      exp\n      swap1\n      div\n      0xffffffffffffffffffffffffffffffffffffffff\n      and\n      swap1\n      pop\n      dup6\n      jump\t// out\n        /* \"contracts/Staking.sol\":3491:3665  function claimedRewards(uint256 _tokenId, IERC721 nftAddress) external view returns (uint256) {... */\n    tag_47:\n        /* \"contracts/Staking.sol\":3576:3583  uint256 */\n      0x00\n        /* \"contracts/Staking.sol\":3603:3611  lockInfo */\n      0x03\n        /* \"contracts/Staking.sol\":3603:3632  lockInfo[IERC721(nftAddress)] */\n      0x00\n        /* \"contracts/Staking.sol\":3620:3630  nftAddress */\n      dup4\n        /* \"contracts/Staking.sol\":3603:3632  lockInfo[IERC721(nftAddress)] */\n      0xffffffffffffffffffffffffffffffffffffffff\n      and\n      0xffffffffffffffffffffffffffffffffffffffff\n      and\n      dup2\n      mstore\n      0x20\n      add\n      swap1\n      dup2\n      mstore\n      0x20\n      add\n      0x00\n      keccak256\n        /* \"contracts/Staking.sol\":3603:3642  lockInfo[IERC721(nftAddress)][_tokenId] */\n      0x00\n        /* \"contracts/Staking.sol\":3633:3641  _tokenId */\n      dup5\n        /* \"contracts/Staking.sol\":3603:3642  lockInfo[IERC721(nftAddress)][_tokenId] */\n      dup2\n      mstore\n      0x20\n      add\n      swap1\n      dup2\n      mstore\n      0x20\n      add\n      0x00\n      keccak256\n        /* \"contracts/Staking.sol\":3603:3657  lockInfo[IERC721(nftAddress)][_tokenId].claimedRewards */\n      0x02\n      add\n      sload\n        /* \"contracts/Staking.sol\":3596:3657  return lockInfo[IERC721(nftAddress)][_tokenId].claimedRewards */\n      swap1\n      pop\n        /* \"contracts/Staking.sol\":3491:3665  function claimedRewards(uint256 _tokenId, IERC721 nftAddress) external view returns (uint256) {... */\n      swap3\n      swap2\n      pop\n      pop\n      jump\t// out\n        /* \"contracts/Staking.sol\":1099:1118  uint256 public WAVE */\n    tag_50:\n      sload(0x05)\n      dup2\n      jump\t// out\n        /* \"contracts/Staking.sol\":1016:1063  mapping(IERC721 => stakeNftInfo) public nftInfo */\n    tag_55:\n      mstore(0x20, 0x04)\n      dup1\n      0x00\n      mstore\n      keccak256(0x00, 0x40)\n      0x00\n      swap2\n      pop\n      swap1\n      pop\n      dup1\n      0x00\n      add\n      0x00\n      swap1\n      sload\n      swap1\n      0x0100\n      exp\n      swap1\n      div\n      0xffffffffffffffffffffffffffffffffffffffff\n      and\n      swap1\n      dup1\n      0x01\n      add\n      sload\n      swap1\n      dup1\n      0x02\n      add\n      sload\n      swap1\n      pop\n      dup4\n      jump\t// out\n        /* \"contracts/Staking.sol\":3109:3323  function addStakingNfts(uint256 _lockPeriod) external onlyOwner {... */\n    tag_61:\n        /* \"@openzeppelin/contracts/access/Ownable.sol\":1094:1107  _checkOwner() */\n      tag_215\n        /* \"@openzeppelin/contracts/access/Ownable.sol\":1094:1105  _checkOwner */\n      tag_161\n        /* \"@openzeppelin/contracts/access/Ownable.sol\":1094:1107  _checkOwner() */\n      jump\t// in\n    tag_215:\n        /* \"contracts/Staking.sol\":3206:3207  0 */\n      0x00\n        /* \"contracts/Staking.sol\":3192:3203  _lockPeriod */\n      dup2\n        /* \"contracts/Staking.sol\":3192:3207  _lockPeriod > 0 */\n      gt\n        /* \"contracts/Staking.sol\":3184:3232  require(_lockPeriod > 0, \"Invalid lock period.\") */\n      tag_217\n      jumpi\n      mload(0x40)\n      0x08c379a000000000000000000000000000000000000000000000000000000000\n      dup2\n      mstore\n      0x04\n      add\n      tag_218\n      swap1\n      tag_219\n      jump\t// in\n    tag_218:\n      mload(0x40)\n      dup1\n      swap2\n      sub\n      swap1\n      revert\n    tag_217:\n        /* \"contracts/Staking.sol\":3256:3267  _lockPeriod */\n      dup1\n        /* \"contracts/Staking.sol\":3243:3253  lockPeriod */\n      0x02\n        /* \"contracts/Staking.sol\":3243:3267  lockPeriod = _lockPeriod */\n      dup2\n      swap1\n      sstore\n      pop\n        /* \"contracts/Staking.sol\":3285:3315  LockPeriodUpdated(_lockPeriod) */\n      0x8249ec545e68f6f1e1230133ca48c704d831a7f8e635ded80f3dd9e99b09bb2f\n        /* \"contracts/Staking.sol\":3303:3314  _lockPeriod */\n      dup2\n        /* \"contracts/Staking.sol\":3285:3315  LockPeriodUpdated(_lockPeriod) */\n      mload(0x40)\n      tag_220\n      swap2\n      swap1\n      tag_28\n      jump\t// in\n    tag_220:\n      mload(0x40)\n      dup1\n      swap2\n      sub\n      swap1\n      log1\n        /* \"contracts/Staking.sol\":3109:3323  function addStakingNfts(uint256 _lockPeriod) external onlyOwner {... */\n      pop\n      jump\t// out\n        /* \"contracts/Staking.sol\":2208:2985  function addStakingNfts(... */\n    tag_65:\n        /* \"@openzeppelin/contracts/access/Ownable.sol\":1094:1107  _checkOwner() */\n      tag_222\n        /* \"@openzeppelin/contracts/access/Ownable.sol\":1094:1105  _checkOwner */\n      tag_161\n        /* \"@openzeppelin/contracts/access/Ownable.sol\":1094:1107  _checkOwner() */\n      jump\t// in\n    tag_222:\n        /* \"contracts/Staking.sol\":2672:2678  uint i */\n      0x00\n        /* \"contracts/Staking.sol\":2667:2978  for (uint i = 0; i < _stakeNFT.length; i++) {... */\n    tag_224:\n        /* \"contracts/Staking.sol\":2688:2697  _stakeNFT */\n      dup5\n        /* \"contracts/Staking.sol\":2688:2704  _stakeNFT.length */\n      mload\n        /* \"contracts/Staking.sol\":2684:2685  i */\n      dup2\n        /* \"contracts/Staking.sol\":2684:2704  i < _stakeNFT.length */\n      lt\n        /* \"contracts/Staking.sol\":2667:2978  for (uint i = 0; i < _stakeNFT.length; i++) {... */\n      iszero\n      tag_225\n      jumpi\n        /* \"contracts/Staking.sol\":2788:2801  _rewardsToken */\n      dup4\n        /* \"contracts/Staking.sol\":2802:2803  i */\n      dup2\n        /* \"contracts/Staking.sol\":2788:2804  _rewardsToken[i] */\n      dup2\n      mload\n      dup2\n      lt\n      tag_227\n      jumpi\n      tag_228\n      tag_88\n      jump\t// in\n    tag_228:\n    tag_227:\n      0x20\n      mul\n      0x20\n      add\n      add\n      mload\n        /* \"contracts/Staking.sol\":2728:2735  nftInfo */\n      0x04\n        /* \"contracts/Staking.sol\":2728:2758  nftInfo[IERC721(_stakeNFT[i])] */\n      0x00\n        /* \"contracts/Staking.sol\":2744:2753  _stakeNFT */\n      dup8\n        /* \"contracts/Staking.sol\":2754:2755  i */\n      dup5\n        /* \"contracts/Staking.sol\":2744:2756  _stakeNFT[i] */\n      dup2\n      mload\n      dup2\n      lt\n      tag_229\n      jumpi\n      tag_230\n      tag_88\n      jump\t// in\n    tag_230:\n    tag_229:\n      0x20\n      mul\n      0x20\n      add\n      add\n      mload\n        /* \"contracts/Staking.sol\":2728:2758  nftInfo[IERC721(_stakeNFT[i])] */\n      0xffffffffffffffffffffffffffffffffffffffff\n      and\n      0xffffffffffffffffffffffffffffffffffffffff\n      and\n      dup2\n      mstore\n      0x20\n      add\n      swap1\n      dup2\n      mstore\n      0x20\n      add\n      0x00\n      keccak256\n        /* \"contracts/Staking.sol\":2728:2771  nftInfo[IERC721(_stakeNFT[i])].rewardsToken */\n      0x00\n      add\n      0x00\n        /* \"contracts/Staking.sol\":2728:2805  nftInfo[IERC721(_stakeNFT[i])].rewardsToken = IRewardsToken(_rewardsToken[i]) */\n      0x0100\n      exp\n      dup2\n      sload\n      dup2\n      0xffffffffffffffffffffffffffffffffffffffff\n      mul\n      not\n      and\n      swap1\n      dup4\n      0xffffffffffffffffffffffffffffffffffffffff\n      and\n      mul\n      or\n      swap1\n      sstore\n      pop\n        /* \"contracts/Staking.sol\":2868:2882  _rewardPerWave */\n      dup3\n        /* \"contracts/Staking.sol\":2883:2884  i */\n      dup2\n        /* \"contracts/Staking.sol\":2868:2885  _rewardPerWave[i] */\n      dup2\n      mload\n      dup2\n      lt\n      tag_231\n      jumpi\n      tag_232\n      tag_88\n      jump\t// in\n    tag_232:\n    tag_231:\n      0x20\n      mul\n      0x20\n      add\n      add\n      mload\n        /* \"contracts/Staking.sol\":2820:2827  nftInfo */\n      0x04\n        /* \"contracts/Staking.sol\":2820:2850  nftInfo[IERC721(_stakeNFT[i])] */\n      0x00\n        /* \"contracts/Staking.sol\":2836:2845  _stakeNFT */\n      dup8\n        /* \"contracts/Staking.sol\":2846:2847  i */\n      dup5\n        /* \"contracts/Staking.sol\":2836:2848  _stakeNFT[i] */\n      dup2\n      mload\n      dup2\n      lt\n      tag_233\n      jumpi\n      tag_234\n      tag_88\n      jump\t// in\n    tag_234:\n    tag_233:\n      0x20\n      mul\n      0x20\n      add\n      add\n      mload\n        /* \"contracts/Staking.sol\":2820:2850  nftInfo[IERC721(_stakeNFT[i])] */\n      0xffffffffffffffffffffffffffffffffffffffff\n      and\n      0xffffffffffffffffffffffffffffffffffffffff\n      and\n      dup2\n      mstore\n      0x20\n      add\n      swap1\n      dup2\n      mstore\n      0x20\n      add\n      0x00\n      keccak256\n        /* \"contracts/Staking.sol\":2820:2865  nftInfo[IERC721(_stakeNFT[i])].rewardsPerWave */\n      0x01\n      add\n        /* \"contracts/Staking.sol\":2820:2885  nftInfo[IERC721(_stakeNFT[i])].rewardsPerWave = _rewardPerWave[i] */\n      dup2\n      swap1\n      sstore\n      pop\n        /* \"contracts/Staking.sol\":2950:2967  _rewardPercentage */\n      dup2\n        /* \"contracts/Staking.sol\":2968:2969  i */\n      dup2\n        /* \"contracts/Staking.sol\":2950:2970  _rewardPercentage[i] */\n      dup2\n      mload\n      dup2\n      lt\n      tag_235\n      jumpi\n      tag_236\n      tag_88\n      jump\t// in\n    tag_236:\n    tag_235:\n      0x20\n      mul\n      0x20\n      add\n      add\n      mload\n        /* \"contracts/Staking.sol\":2900:2907  nftInfo */\n      0x04\n        /* \"contracts/Staking.sol\":2900:2930  nftInfo[IERC721(_stakeNFT[i])] */\n      0x00\n        /* \"contracts/Staking.sol\":2916:2925  _stakeNFT */\n      dup8\n        /* \"contracts/Staking.sol\":2926:2927  i */\n      dup5\n        /* \"contracts/Staking.sol\":2916:2928  _stakeNFT[i] */\n      dup2\n      mload\n      dup2\n      lt\n      tag_237\n      jumpi\n      tag_238\n      tag_88\n      jump\t// in\n    tag_238:\n    tag_237:\n      0x20\n      mul\n      0x20\n      add\n      add\n      mload\n        /* \"contracts/Staking.sol\":2900:2930  nftInfo[IERC721(_stakeNFT[i])] */\n      0xffffffffffffffffffffffffffffffffffffffff\n      and\n      0xffffffffffffffffffffffffffffffffffffffff\n      and\n      dup2\n      mstore\n      0x20\n      add\n      swap1\n      dup2\n      mstore\n      0x20\n      add\n      0x00\n      keccak256\n        /* \"contracts/Staking.sol\":2900:2947  nftInfo[IERC721(_stakeNFT[i])].rewardPercentage */\n      0x02\n      add\n        /* \"contracts/Staking.sol\":2900:2970  nftInfo[IERC721(_stakeNFT[i])].rewardPercentage = _rewardPercentage[i] */\n      dup2\n      swap1\n      sstore\n      pop\n        /* \"contracts/Staking.sol\":2706:2709  i++ */\n      dup1\n      dup1\n      tag_239\n      swap1\n      tag_115\n      jump\t// in\n    tag_239:\n      swap2\n      pop\n      pop\n        /* \"contracts/Staking.sol\":2667:2978  for (uint i = 0; i < _stakeNFT.length; i++) {... */\n      jump(tag_224)\n    tag_225:\n      pop\n        /* \"contracts/Staking.sol\":2208:2985  function addStakingNfts(... */\n      pop\n      pop\n      pop\n      pop\n      jump\t// out\n        /* \"@openzeppelin/contracts/access/Ownable.sol\":2081:2279  function transferOwnership(address newOwner) public virtual onlyOwner {... */\n    tag_69:\n        /* \"@openzeppelin/contracts/access/Ownable.sol\":1094:1107  _checkOwner() */\n      tag_241\n        /* \"@openzeppelin/contracts/access/Ownable.sol\":1094:1105  _checkOwner */\n      tag_161\n        /* \"@openzeppelin/contracts/access/Ownable.sol\":1094:1107  _checkOwner() */\n      jump\t// in\n    tag_241:\n        /* \"@openzeppelin/contracts/access/Ownable.sol\":2189:2190  0 */\n      0x00\n        /* \"@openzeppelin/contracts/access/Ownable.sol\":2169:2191  newOwner != address(0) */\n      0xffffffffffffffffffffffffffffffffffffffff\n      and\n        /* \"@openzeppelin/contracts/access/Ownable.sol\":2169:2177  newOwner */\n      dup2\n        /* \"@openzeppelin/contracts/access/Ownable.sol\":2169:2191  newOwner != address(0) */\n      0xffffffffffffffffffffffffffffffffffffffff\n      and\n      sub\n        /* \"@openzeppelin/contracts/access/Ownable.sol\":2161:2234  require(newOwner != address(0), \"Ownable: new owner is the zero address\") */\n      tag_243\n      jumpi\n      mload(0x40)\n      0x08c379a000000000000000000000000000000000000000000000000000000000\n      dup2\n      mstore\n      0x04\n      add\n      tag_244\n      swap1\n      tag_245\n      jump\t// in\n    tag_244:\n      mload(0x40)\n      dup1\n      swap2\n      sub\n      swap1\n      revert\n    tag_243:\n        /* \"@openzeppelin/contracts/access/Ownable.sol\":2244:2272  _transferOwnership(newOwner) */\n      tag_246\n        /* \"@openzeppelin/contracts/access/Ownable.sol\":2263:2271  newOwner */\n      dup2\n        /* \"@openzeppelin/contracts/access/Ownable.sol\":2244:2262  _transferOwnership */\n      tag_164\n        /* \"@openzeppelin/contracts/access/Ownable.sol\":2244:2272  _transferOwnership(newOwner) */\n      jump\t// in\n    tag_246:\n        /* \"@openzeppelin/contracts/access/Ownable.sol\":2081:2279  function transferOwnership(address newOwner) public virtual onlyOwner {... */\n      pop\n      jump\t// out\n        /* \"@openzeppelin/contracts/utils/Address.sol\":1175:1495  function isContract(address account) internal view returns (bool) {... */\n    tag_72:\n        /* \"@openzeppelin/contracts/utils/Address.sol\":1235:1239  bool */\n      0x00\n        /* \"@openzeppelin/contracts/utils/Address.sol\":1487:1488  0 */\n      dup1\n        /* \"@openzeppelin/contracts/utils/Address.sol\":1465:1472  account */\n      dup3\n        /* \"@openzeppelin/contracts/utils/Address.sol\":1465:1484  account.code.length */\n      0xffffffffffffffffffffffffffffffffffffffff\n      and\n      extcodesize\n        /* \"@openzeppelin/contracts/utils/Address.sol\":1465:1488  account.code.length > 0 */\n      gt\n        /* \"@openzeppelin/contracts/utils/Address.sol\":1458:1488  return account.code.length > 0 */\n      swap1\n      pop\n        /* \"@openzeppelin/contracts/utils/Address.sol\":1175:1495  function isContract(address account) internal view returns (bool) {... */\n      swap2\n      swap1\n      pop\n      jump\t// out\n        /* \"contracts/Staking.sol\":7074:7586  function _rewardAmount(uint256 _tokenId, IERC721 nftAddress) internal view returns (uint256) {... */\n    tag_103:\n        /* \"contracts/Staking.sol\":7158:7165  uint256 */\n      0x00\n        /* \"contracts/Staking.sol\":7178:7198  LockInfo memory info */\n      dup1\n        /* \"contracts/Staking.sol\":7201:7209  lockInfo */\n      0x03\n        /* \"contracts/Staking.sol\":7201:7230  lockInfo[IERC721(nftAddress)] */\n      0x00\n        /* \"contracts/Staking.sol\":7218:7228  nftAddress */\n      dup5\n        /* \"contracts/Staking.sol\":7201:7230  lockInfo[IERC721(nftAddress)] */\n      0xffffffffffffffffffffffffffffffffffffffff\n      and\n      0xffffffffffffffffffffffffffffffffffffffff\n      and\n      dup2\n      mstore\n      0x20\n      add\n      swap1\n      dup2\n      mstore\n      0x20\n      add\n      0x00\n      keccak256\n        /* \"contracts/Staking.sol\":7201:7240  lockInfo[IERC721(nftAddress)][_tokenId] */\n      0x00\n        /* \"contracts/Staking.sol\":7231:7239  _tokenId */\n      dup6\n        /* \"contracts/Staking.sol\":7201:7240  lockInfo[IERC721(nftAddress)][_tokenId] */\n      dup2\n      mstore\n      0x20\n      add\n      swap1\n      dup2\n      mstore\n      0x20\n      add\n      0x00\n      keccak256\n        /* \"contracts/Staking.sol\":7178:7240  LockInfo memory info = lockInfo[IERC721(nftAddress)][_tokenId] */\n      mload(0x40)\n      dup1\n      0xa0\n      add\n      0x40\n      mstore\n      swap1\n      dup2\n      0x00\n      dup3\n      add\n      0x00\n      swap1\n      sload\n      swap1\n      0x0100\n      exp\n      swap1\n      div\n      0xffffffffffffffffffffffffffffffffffffffff\n      and\n      0xffffffffffffffffffffffffffffffffffffffff\n      and\n      0xffffffffffffffffffffffffffffffffffffffff\n      and\n      dup2\n      mstore\n      0x20\n      add\n      0x01\n      dup3\n      add\n      sload\n      dup2\n      mstore\n      0x20\n      add\n      0x02\n      dup3\n      add\n      sload\n      dup2\n      mstore\n      0x20\n      add\n      0x03\n      dup3\n      add\n      0x00\n      swap1\n      sload\n      swap1\n      0x0100\n      exp\n      swap1\n      div\n      0xff\n      and\n      iszero\n      iszero\n      iszero\n      iszero\n      dup2\n      mstore\n      0x20\n      add\n      0x03\n      dup3\n      add\n      0x01\n      swap1\n      sload\n      swap1\n      0x0100\n      exp\n      swap1\n      div\n      0xffffffffffffffffffffffffffffffffffffffff\n      and\n      0xffffffffffffffffffffffffffffffffffffffff\n      and\n      0xffffffffffffffffffffffffffffffffffffffff\n      and\n      dup2\n      mstore\n      pop\n      pop\n      swap1\n      pop\n        /* \"contracts/Staking.sol\":7251:7274  uint256 stakingDuration */\n      0x00\n        /* \"contracts/Staking.sol\":7295:7299  info */\n      dup2\n        /* \"contracts/Staking.sol\":7295:7310  info.lockedTime */\n      0x20\n      add\n      mload\n        /* \"contracts/Staking.sol\":7277:7292  block.timestamp */\n      timestamp\n        /* \"contracts/Staking.sol\":7277:7310  block.timestamp - info.lockedTime */\n      tag_249\n      swap2\n      swap1\n      tag_105\n      jump\t// in\n    tag_249:\n        /* \"contracts/Staking.sol\":7251:7310  uint256 stakingDuration = block.timestamp - info.lockedTime */\n      swap1\n      pop\n        /* \"contracts/Staking.sol\":7321:7340  uint256 totalAmount */\n      0x00\n        /* \"contracts/Staking.sol\":7375:7385  lockPeriod */\n      sload(0x02)\n        /* \"contracts/Staking.sol\":7357:7372  stakingDuration */\n      dup3\n        /* \"contracts/Staking.sol\":7357:7385  stakingDuration < lockPeriod */\n      lt\n        /* \"contracts/Staking.sol\":7353:7579  if (stakingDuration < lockPeriod) {... */\n      iszero\n      tag_250\n      jumpi\n        /* \"contracts/Staking.sol\":7409:7410  0 */\n      0x00\n        /* \"contracts/Staking.sol\":7402:7410  return 0 */\n      swap4\n      pop\n      pop\n      pop\n      pop\n      jump(tag_248)\n        /* \"contracts/Staking.sol\":7353:7579  if (stakingDuration < lockPeriod) {... */\n    tag_250:\n        /* \"contracts/Staking.sol\":7530:7534  WAVE */\n      sload(0x05)\n        /* \"contracts/Staking.sol\":7515:7525  lockPeriod */\n      sload(0x02)\n        /* \"contracts/Staking.sol\":7497:7512  stakingDuration */\n      dup4\n        /* \"contracts/Staking.sol\":7497:7525  stakingDuration - lockPeriod */\n      tag_252\n      swap2\n      swap1\n      tag_105\n      jump\t// in\n    tag_252:\n        /* \"contracts/Staking.sol\":7459:7466  nftInfo */\n      0x04\n        /* \"contracts/Staking.sol\":7459:7478  nftInfo[nftAddress] */\n      0x00\n        /* \"contracts/Staking.sol\":7467:7477  nftAddress */\n      dup9\n        /* \"contracts/Staking.sol\":7459:7478  nftInfo[nftAddress] */\n      0xffffffffffffffffffffffffffffffffffffffff\n      and\n      0xffffffffffffffffffffffffffffffffffffffff\n      and\n      dup2\n      mstore\n      0x20\n      add\n      swap1\n      dup2\n      mstore\n      0x20\n      add\n      0x00\n      keccak256\n        /* \"contracts/Staking.sol\":7459:7493  nftInfo[nftAddress].rewardsPerWave */\n      0x01\n      add\n      sload\n        /* \"contracts/Staking.sol\":7459:7526  nftInfo[nftAddress].rewardsPerWave * (stakingDuration - lockPeriod) */\n      tag_253\n      swap2\n      swap1\n      tag_254\n      jump\t// in\n    tag_253:\n        /* \"contracts/Staking.sol\":7457:7534  ( nftInfo[nftAddress].rewardsPerWave * (stakingDuration - lockPeriod)) / WAVE */\n      tag_255\n      swap2\n      swap1\n      tag_256\n      jump\t// in\n    tag_255:\n        /* \"contracts/Staking.sol\":7443:7534  totalAmount = ( nftInfo[nftAddress].rewardsPerWave * (stakingDuration - lockPeriod)) / WAVE */\n      swap1\n      pop\n        /* \"contracts/Staking.sol\":7556:7567  totalAmount */\n      dup1\n        /* \"contracts/Staking.sol\":7549:7567  return totalAmount */\n      swap4\n      pop\n      pop\n      pop\n      pop\n        /* \"contracts/Staking.sol\":7074:7586  function _rewardAmount(uint256 _tokenId, IERC721 nftAddress) internal view returns (uint256) {... */\n    tag_248:\n      swap3\n      swap2\n      pop\n      pop\n      jump\t// out\n        /* \"@openzeppelin/contracts/access/Ownable.sol\":1359:1489  function _checkOwner() internal view virtual {... */\n    tag_161:\n        /* \"@openzeppelin/contracts/access/Ownable.sol\":1433:1445  _msgSender() */\n      tag_258\n        /* \"@openzeppelin/contracts/access/Ownable.sol\":1433:1443  _msgSender */\n      tag_259\n        /* \"@openzeppelin/contracts/access/Ownable.sol\":1433:1445  _msgSender() */\n      jump\t// in\n    tag_258:\n        /* \"@openzeppelin/contracts/access/Ownable.sol\":1422:1445  owner() == _msgSender() */\n      0xffffffffffffffffffffffffffffffffffffffff\n      and\n        /* \"@openzeppelin/contracts/access/Ownable.sol\":1422:1429  owner() */\n      tag_260\n        /* \"@openzeppelin/contracts/access/Ownable.sol\":1422:1427  owner */\n      tag_32\n        /* \"@openzeppelin/contracts/access/Ownable.sol\":1422:1429  owner() */\n      jump\t// in\n    tag_260:\n        /* \"@openzeppelin/contracts/access/Ownable.sol\":1422:1445  owner() == _msgSender() */\n      0xffffffffffffffffffffffffffffffffffffffff\n      and\n      eq\n        /* \"@openzeppelin/contracts/access/Ownable.sol\":1414:1482  require(owner() == _msgSender(), \"Ownable: caller is not the owner\") */\n      tag_261\n      jumpi\n      mload(0x40)\n      0x08c379a000000000000000000000000000000000000000000000000000000000\n      dup2\n      mstore\n      0x04\n      add\n      tag_262\n      swap1\n      tag_263\n      jump\t// in\n    tag_262:\n      mload(0x40)\n      dup1\n      swap2\n      sub\n      swap1\n      revert\n    tag_261:\n        /* \"@openzeppelin/contracts/access/Ownable.sol\":1359:1489  function _checkOwner() internal view virtual {... */\n      jump\t// out\n        /* \"@openzeppelin/contracts/access/Ownable.sol\":2433:2620  function _transferOwnership(address newOwner) internal virtual {... */\n    tag_164:\n        /* \"@openzeppelin/contracts/access/Ownable.sol\":2506:2522  address oldOwner */\n      0x00\n        /* \"@openzeppelin/contracts/access/Ownable.sol\":2525:2531  _owner */\n      dup1\n      0x00\n      swap1\n      sload\n      swap1\n      0x0100\n      exp\n      swap1\n      div\n      0xffffffffffffffffffffffffffffffffffffffff\n      and\n        /* \"@openzeppelin/contracts/access/Ownable.sol\":2506:2531  address oldOwner = _owner */\n      swap1\n      pop\n        /* \"@openzeppelin/contracts/access/Ownable.sol\":2550:2558  newOwner */\n      dup2\n        /* \"@openzeppelin/contracts/access/Ownable.sol\":2541:2547  _owner */\n      0x00\n      dup1\n        /* \"@openzeppelin/contracts/access/Ownable.sol\":2541:2558  _owner = newOwner */\n      0x0100\n      exp\n      dup2\n      sload\n      dup2\n      0xffffffffffffffffffffffffffffffffffffffff\n      mul\n      not\n      and\n      swap1\n      dup4\n      0xffffffffffffffffffffffffffffffffffffffff\n      and\n      mul\n      or\n      swap1\n      sstore\n      pop\n        /* \"@openzeppelin/contracts/access/Ownable.sol\":2604:2612  newOwner */\n      dup2\n        /* \"@openzeppelin/contracts/access/Ownable.sol\":2573:2613  OwnershipTransferred(oldOwner, newOwner) */\n      0xffffffffffffffffffffffffffffffffffffffff\n      and\n        /* \"@openzeppelin/contracts/access/Ownable.sol\":2594:2602  oldOwner */\n      dup2\n        /* \"@openzeppelin/contracts/access/Ownable.sol\":2573:2613  OwnershipTransferred(oldOwner, newOwner) */\n      0xffffffffffffffffffffffffffffffffffffffff\n      and\n      0x8be0079c531659141344cd1fd0a4f28419497f9722a3daafe3b4186f6b6457e0\n      mload(0x40)\n      mload(0x40)\n      dup1\n      swap2\n      sub\n      swap1\n      log3\n        /* \"@openzeppelin/contracts/access/Ownable.sol\":2496:2620  {... */\n      pop\n        /* \"@openzeppelin/contracts/access/Ownable.sol\":2433:2620  function _transferOwnership(address newOwner) internal virtual {... */\n      pop\n      jump\t// out\n        /* \"@openzeppelin/contracts/utils/Context.sol\":640:736  function _msgSender() internal view virtual returns (address) {... */\n    tag_259:\n        /* \"@openzeppelin/contracts/utils/Context.sol\":693:700  address */\n      0x00\n        /* \"@openzeppelin/contracts/utils/Context.sol\":719:729  msg.sender */\n      caller\n        /* \"@openzeppelin/contracts/utils/Context.sol\":712:729  return msg.sender */\n      swap1\n      pop\n        /* \"@openzeppelin/contracts/utils/Context.sol\":640:736  function _msgSender() internal view virtual returns (address) {... */\n      swap1\n      jump\t// out\n        /* \"#utility.yul\":7:82   */\n    tag_266:\n        /* \"#utility.yul\":40:46   */\n      0x00\n        /* \"#utility.yul\":73:75   */\n      0x40\n        /* \"#utility.yul\":67:76   */\n      mload\n        /* \"#utility.yul\":57:76   */\n      swap1\n      pop\n        /* \"#utility.yul\":7:82   */\n      swap1\n      jump\t// out\n        /* \"#utility.yul\":88:205   */\n    tag_267:\n        /* \"#utility.yul\":197:198   */\n      0x00\n        /* \"#utility.yul\":194:195   */\n      dup1\n        /* \"#utility.yul\":187:199   */\n      revert\n        /* \"#utility.yul\":211:328   */\n    tag_268:\n        /* \"#utility.yul\":320:321   */\n      0x00\n        /* \"#utility.yul\":317:318   */\n      dup1\n        /* \"#utility.yul\":310:322   */\n      revert\n        /* \"#utility.yul\":334:451   */\n    tag_269:\n        /* \"#utility.yul\":443:444   */\n      0x00\n        /* \"#utility.yul\":440:441   */\n      dup1\n        /* \"#utility.yul\":433:445   */\n      revert\n        /* \"#utility.yul\":457:574   */\n    tag_270:\n        /* \"#utility.yul\":566:567   */\n      0x00\n        /* \"#utility.yul\":563:564   */\n      dup1\n        /* \"#utility.yul\":556:568   */\n      revert\n        /* \"#utility.yul\":580:697   */\n    tag_271:\n        /* \"#utility.yul\":689:690   */\n      0x00\n        /* \"#utility.yul\":686:687   */\n      dup1\n        /* \"#utility.yul\":679:691   */\n      revert\n        /* \"#utility.yul\":720:1288   */\n    tag_272:\n        /* \"#utility.yul\":793:801   */\n      0x00\n        /* \"#utility.yul\":803:809   */\n      dup1\n        /* \"#utility.yul\":853:856   */\n      dup4\n        /* \"#utility.yul\":846:850   */\n      0x1f\n        /* \"#utility.yul\":838:844   */\n      dup5\n        /* \"#utility.yul\":834:851   */\n      add\n        /* \"#utility.yul\":830:857   */\n      slt\n        /* \"#utility.yul\":820:942   */\n      tag_346\n      jumpi\n        /* \"#utility.yul\":861:940   */\n      tag_347\n      tag_269\n      jump\t// in\n    tag_347:\n        /* \"#utility.yul\":820:942   */\n    tag_346:\n        /* \"#utility.yul\":974:980   */\n      dup3\n        /* \"#utility.yul\":961:981   */\n      calldataload\n        /* \"#utility.yul\":951:981   */\n      swap1\n      pop\n        /* \"#utility.yul\":1004:1022   */\n      0xffffffffffffffff\n        /* \"#utility.yul\":996:1002   */\n      dup2\n        /* \"#utility.yul\":993:1023   */\n      gt\n        /* \"#utility.yul\":990:1107   */\n      iszero\n      tag_348\n      jumpi\n        /* \"#utility.yul\":1026:1105   */\n      tag_349\n      tag_270\n      jump\t// in\n    tag_349:\n        /* \"#utility.yul\":990:1107   */\n    tag_348:\n        /* \"#utility.yul\":1140:1144   */\n      0x20\n        /* \"#utility.yul\":1132:1138   */\n      dup4\n        /* \"#utility.yul\":1128:1145   */\n      add\n        /* \"#utility.yul\":1116:1145   */\n      swap2\n      pop\n        /* \"#utility.yul\":1194:1197   */\n      dup4\n        /* \"#utility.yul\":1186:1190   */\n      0x20\n        /* \"#utility.yul\":1178:1184   */\n      dup3\n        /* \"#utility.yul\":1174:1191   */\n      mul\n        /* \"#utility.yul\":1164:1172   */\n      dup4\n        /* \"#utility.yul\":1160:1192   */\n      add\n        /* \"#utility.yul\":1157:1198   */\n      gt\n        /* \"#utility.yul\":1154:1282   */\n      iszero\n      tag_350\n      jumpi\n        /* \"#utility.yul\":1201:1280   */\n      tag_351\n      tag_271\n      jump\t// in\n    tag_351:\n        /* \"#utility.yul\":1154:1282   */\n    tag_350:\n        /* \"#utility.yul\":720:1288   */\n      swap3\n      pop\n      swap3\n      swap1\n      pop\n      jump\t// out\n        /* \"#utility.yul\":1294:1420   */\n    tag_273:\n        /* \"#utility.yul\":1331:1338   */\n      0x00\n        /* \"#utility.yul\":1371:1413   */\n      0xffffffffffffffffffffffffffffffffffffffff\n        /* \"#utility.yul\":1364:1369   */\n      dup3\n        /* \"#utility.yul\":1360:1414   */\n      and\n        /* \"#utility.yul\":1349:1414   */\n      swap1\n      pop\n        /* \"#utility.yul\":1294:1420   */\n      swap2\n      swap1\n      pop\n      jump\t// out\n        /* \"#utility.yul\":1426:1522   */\n    tag_274:\n        /* \"#utility.yul\":1463:1470   */\n      0x00\n        /* \"#utility.yul\":1492:1516   */\n      tag_354\n        /* \"#utility.yul\":1510:1515   */\n      dup3\n        /* \"#utility.yul\":1492:1516   */\n      tag_273\n      jump\t// in\n    tag_354:\n        /* \"#utility.yul\":1481:1516   */\n      swap1\n      pop\n        /* \"#utility.yul\":1426:1522   */\n      swap2\n      swap1\n      pop\n      jump\t// out\n        /* \"#utility.yul\":1528:1639   */\n    tag_275:\n        /* \"#utility.yul\":1580:1587   */\n      0x00\n        /* \"#utility.yul\":1609:1633   */\n      tag_356\n        /* \"#utility.yul\":1627:1632   */\n      dup3\n        /* \"#utility.yul\":1609:1633   */\n      tag_274\n      jump\t// in\n    tag_356:\n        /* \"#utility.yul\":1598:1633   */\n      swap1\n      pop\n        /* \"#utility.yul\":1528:1639   */\n      swap2\n      swap1\n      pop\n      jump\t// out\n        /* \"#utility.yul\":1645:1797   */\n    tag_276:\n        /* \"#utility.yul\":1733:1772   */\n      tag_358\n        /* \"#utility.yul\":1766:1771   */\n      dup2\n        /* \"#utility.yul\":1733:1772   */\n      tag_275\n      jump\t// in\n    tag_358:\n        /* \"#utility.yul\":1726:1731   */\n      dup2\n        /* \"#utility.yul\":1723:1773   */\n      eq\n        /* \"#utility.yul\":1713:1791   */\n      tag_359\n      jumpi\n        /* \"#utility.yul\":1787:1788   */\n      0x00\n        /* \"#utility.yul\":1784:1785   */\n      dup1\n        /* \"#utility.yul\":1777:1789   */\n      revert\n        /* \"#utility.yul\":1713:1791   */\n    tag_359:\n        /* \"#utility.yul\":1645:1797   */\n      pop\n      jump\t// out\n        /* \"#utility.yul\":1803:1972   */\n    tag_277:\n        /* \"#utility.yul\":1864:1869   */\n      0x00\n        /* \"#utility.yul\":1902:1908   */\n      dup2\n        /* \"#utility.yul\":1889:1909   */\n      calldataload\n        /* \"#utility.yul\":1880:1909   */\n      swap1\n      pop\n        /* \"#utility.yul\":1918:1966   */\n      tag_361\n        /* \"#utility.yul\":1960:1965   */\n      dup2\n        /* \"#utility.yul\":1918:1966   */\n      tag_276\n      jump\t// in\n    tag_361:\n        /* \"#utility.yul\":1803:1972   */\n      swap3\n      swap2\n      pop\n      pop\n      jump\t// out\n        /* \"#utility.yul\":1978:2712   */\n    tag_20:\n        /* \"#utility.yul\":2088:2094   */\n      0x00\n        /* \"#utility.yul\":2096:2102   */\n      dup1\n        /* \"#utility.yul\":2104:2110   */\n      0x00\n        /* \"#utility.yul\":2153:2155   */\n      0x40\n        /* \"#utility.yul\":2141:2150   */\n      dup5\n        /* \"#utility.yul\":2132:2139   */\n      dup7\n        /* \"#utility.yul\":2128:2151   */\n      sub\n        /* \"#utility.yul\":2124:2156   */\n      slt\n        /* \"#utility.yul\":2121:2240   */\n      iszero\n      tag_363\n      jumpi\n        /* \"#utility.yul\":2159:2238   */\n      tag_364\n      tag_267\n      jump\t// in\n    tag_364:\n        /* \"#utility.yul\":2121:2240   */\n    tag_363:\n        /* \"#utility.yul\":2307:2308   */\n      0x00\n        /* \"#utility.yul\":2296:2305   */\n      dup5\n        /* \"#utility.yul\":2292:2309   */\n      add\n        /* \"#utility.yul\":2279:2310   */\n      calldataload\n        /* \"#utility.yul\":2337:2355   */\n      0xffffffffffffffff\n        /* \"#utility.yul\":2329:2335   */\n      dup2\n        /* \"#utility.yul\":2326:2356   */\n      gt\n        /* \"#utility.yul\":2323:2440   */\n      iszero\n      tag_365\n      jumpi\n        /* \"#utility.yul\":2359:2438   */\n      tag_366\n      tag_268\n      jump\t// in\n    tag_366:\n        /* \"#utility.yul\":2323:2440   */\n    tag_365:\n        /* \"#utility.yul\":2472:2552   */\n      tag_367\n        /* \"#utility.yul\":2544:2551   */\n      dup7\n        /* \"#utility.yul\":2535:2541   */\n      dup3\n        /* \"#utility.yul\":2524:2533   */\n      dup8\n        /* \"#utility.yul\":2520:2542   */\n      add\n        /* \"#utility.yul\":2472:2552   */\n      tag_272\n      jump\t// in\n    tag_367:\n        /* \"#utility.yul\":2454:2552   */\n      swap4\n      pop\n      swap4\n      pop\n        /* \"#utility.yul\":2250:2562   */\n      pop\n        /* \"#utility.yul\":2601:2603   */\n      0x20\n        /* \"#utility.yul\":2627:2695   */\n      tag_368\n        /* \"#utility.yul\":2687:2694   */\n      dup7\n        /* \"#utility.yul\":2678:2684   */\n      dup3\n        /* \"#utility.yul\":2667:2676   */\n      dup8\n        /* \"#utility.yul\":2663:2685   */\n      add\n        /* \"#utility.yul\":2627:2695   */\n      tag_277\n      jump\t// in\n    tag_368:\n        /* \"#utility.yul\":2617:2695   */\n      swap2\n      pop\n        /* \"#utility.yul\":2572:2705   */\n      pop\n        /* \"#utility.yul\":1978:2712   */\n      swap3\n      pop\n      swap3\n      pop\n      swap3\n      jump\t// out\n        /* \"#utility.yul\":2718:2795   */\n    tag_278:\n        /* \"#utility.yul\":2755:2762   */\n      0x00\n        /* \"#utility.yul\":2784:2789   */\n      dup2\n        /* \"#utility.yul\":2773:2789   */\n      swap1\n      pop\n        /* \"#utility.yul\":2718:2795   */\n      swap2\n      swap1\n      pop\n      jump\t// out\n        /* \"#utility.yul\":2801:2919   */\n    tag_279:\n        /* \"#utility.yul\":2888:2912   */\n      tag_371\n        /* \"#utility.yul\":2906:2911   */\n      dup2\n        /* \"#utility.yul\":2888:2912   */\n      tag_278\n      jump\t// in\n    tag_371:\n        /* \"#utility.yul\":2883:2886   */\n      dup3\n        /* \"#utility.yul\":2876:2913   */\n      mstore\n        /* \"#utility.yul\":2801:2919   */\n      pop\n      pop\n      jump\t// out\n        /* \"#utility.yul\":2925:3147   */\n    tag_28:\n        /* \"#utility.yul\":3018:3022   */\n      0x00\n        /* \"#utility.yul\":3056:3058   */\n      0x20\n        /* \"#utility.yul\":3045:3054   */\n      dup3\n        /* \"#utility.yul\":3041:3059   */\n      add\n        /* \"#utility.yul\":3033:3059   */\n      swap1\n      pop\n        /* \"#utility.yul\":3069:3140   */\n      tag_373\n        /* \"#utility.yul\":3137:3138   */\n      0x00\n        /* \"#utility.yul\":3126:3135   */\n      dup4\n        /* \"#utility.yul\":3122:3139   */\n      add\n        /* \"#utility.yul\":3113:3119   */\n      dup5\n        /* \"#utility.yul\":3069:3140   */\n      tag_279\n      jump\t// in\n    tag_373:\n        /* \"#utility.yul\":2925:3147   */\n      swap3\n      swap2\n      pop\n      pop\n      jump\t// out\n        /* \"#utility.yul\":3153:3271   */\n    tag_280:\n        /* \"#utility.yul\":3240:3264   */\n      tag_375\n        /* \"#utility.yul\":3258:3263   */\n      dup2\n        /* \"#utility.yul\":3240:3264   */\n      tag_274\n      jump\t// in\n    tag_375:\n        /* \"#utility.yul\":3235:3238   */\n      dup3\n        /* \"#utility.yul\":3228:3265   */\n      mstore\n        /* \"#utility.yul\":3153:3271   */\n      pop\n      pop\n      jump\t// out\n        /* \"#utility.yul\":3277:3499   */\n    tag_34:\n        /* \"#utility.yul\":3370:3374   */\n      0x00\n        /* \"#utility.yul\":3408:3410   */\n      0x20\n        /* \"#utility.yul\":3397:3406   */\n      dup3\n        /* \"#utility.yul\":3393:3411   */\n      add\n        /* \"#utility.yul\":3385:3411   */\n      swap1\n      pop\n        /* \"#utility.yul\":3421:3492   */\n      tag_377\n        /* \"#utility.yul\":3489:3490   */\n      0x00\n        /* \"#utility.yul\":3478:3487   */\n      dup4\n        /* \"#utility.yul\":3474:3491   */\n      add\n        /* \"#utility.yul\":3465:3471   */\n      dup5\n        /* \"#utility.yul\":3421:3492   */\n      tag_280\n      jump\t// in\n    tag_377:\n        /* \"#utility.yul\":3277:3499   */\n      swap3\n      swap2\n      pop\n      pop\n      jump\t// out\n        /* \"#utility.yul\":3505:3627   */\n    tag_281:\n        /* \"#utility.yul\":3578:3602   */\n      tag_379\n        /* \"#utility.yul\":3596:3601   */\n      dup2\n        /* \"#utility.yul\":3578:3602   */\n      tag_278\n      jump\t// in\n    tag_379:\n        /* \"#utility.yul\":3571:3576   */\n      dup2\n        /* \"#utility.yul\":3568:3603   */\n      eq\n        /* \"#utility.yul\":3558:3621   */\n      tag_380\n      jumpi\n        /* \"#utility.yul\":3617:3618   */\n      0x00\n        /* \"#utility.yul\":3614:3615   */\n      dup1\n        /* \"#utility.yul\":3607:3619   */\n      revert\n        /* \"#utility.yul\":3558:3621   */\n    tag_380:\n        /* \"#utility.yul\":3505:3627   */\n      pop\n      jump\t// out\n        /* \"#utility.yul\":3633:3772   */\n    tag_282:\n        /* \"#utility.yul\":3679:3684   */\n      0x00\n        /* \"#utility.yul\":3717:3723   */\n      dup2\n        /* \"#utility.yul\":3704:3724   */\n      calldataload\n        /* \"#utility.yul\":3695:3724   */\n      swap1\n      pop\n        /* \"#utility.yul\":3733:3766   */\n      tag_382\n        /* \"#utility.yul\":3760:3765   */\n      dup2\n        /* \"#utility.yul\":3733:3766   */\n      tag_281\n      jump\t// in\n    tag_382:\n        /* \"#utility.yul\":3633:3772   */\n      swap3\n      swap2\n      pop\n      pop\n      jump\t// out\n        /* \"#utility.yul\":3778:4282   */\n    tag_40:\n        /* \"#utility.yul\":3861:3867   */\n      0x00\n        /* \"#utility.yul\":3869:3875   */\n      dup1\n        /* \"#utility.yul\":3918:3920   */\n      0x40\n        /* \"#utility.yul\":3906:3915   */\n      dup4\n        /* \"#utility.yul\":3897:3904   */\n      dup6\n        /* \"#utility.yul\":3893:3916   */\n      sub\n        /* \"#utility.yul\":3889:3921   */\n      slt\n        /* \"#utility.yul\":3886:4005   */\n      iszero\n      tag_384\n      jumpi\n        /* \"#utility.yul\":3924:4003   */\n      tag_385\n      tag_267\n      jump\t// in\n    tag_385:\n        /* \"#utility.yul\":3886:4005   */\n    tag_384:\n        /* \"#utility.yul\":4044:4045   */\n      0x00\n        /* \"#utility.yul\":4069:4137   */\n      tag_386\n        /* \"#utility.yul\":4129:4136   */\n      dup6\n        /* \"#utility.yul\":4120:4126   */\n      dup3\n        /* \"#utility.yul\":4109:4118   */\n      dup7\n        /* \"#utility.yul\":4105:4127   */\n      add\n        /* \"#utility.yul\":4069:4137   */\n      tag_277\n      jump\t// in\n    tag_386:\n        /* \"#utility.yul\":4059:4137   */\n      swap3\n      pop\n        /* \"#utility.yul\":4015:4147   */\n      pop\n        /* \"#utility.yul\":4186:4188   */\n      0x20\n        /* \"#utility.yul\":4212:4265   */\n      tag_387\n        /* \"#utility.yul\":4257:4264   */\n      dup6\n        /* \"#utility.yul\":4248:4254   */\n      dup3\n        /* \"#utility.yul\":4237:4246   */\n      dup7\n        /* \"#utility.yul\":4233:4255   */\n      add\n        /* \"#utility.yul\":4212:4265   */\n      tag_282\n      jump\t// in\n    tag_387:\n        /* \"#utility.yul\":4202:4265   */\n      swap2\n      pop\n        /* \"#utility.yul\":4157:4275   */\n      pop\n        /* \"#utility.yul\":3778:4282   */\n      swap3\n      pop\n      swap3\n      swap1\n      pop\n      jump\t// out\n        /* \"#utility.yul\":4288:4378   */\n    tag_283:\n        /* \"#utility.yul\":4322:4329   */\n      0x00\n        /* \"#utility.yul\":4365:4370   */\n      dup2\n        /* \"#utility.yul\":4358:4371   */\n      iszero\n        /* \"#utility.yul\":4351:4372   */\n      iszero\n        /* \"#utility.yul\":4340:4372   */\n      swap1\n      pop\n        /* \"#utility.yul\":4288:4378   */\n      swap2\n      swap1\n      pop\n      jump\t// out\n        /* \"#utility.yul\":4384:4493   */\n    tag_284:\n        /* \"#utility.yul\":4465:4486   */\n      tag_390\n        /* \"#utility.yul\":4480:4485   */\n      dup2\n        /* \"#utility.yul\":4465:4486   */\n      tag_283\n      jump\t// in\n    tag_390:\n        /* \"#utility.yul\":4460:4463   */\n      dup3\n        /* \"#utility.yul\":4453:4487   */\n      mstore\n        /* \"#utility.yul\":4384:4493   */\n      pop\n      pop\n      jump\t// out\n        /* \"#utility.yul\":4499:4559   */\n    tag_285:\n        /* \"#utility.yul\":4527:4530   */\n      0x00\n        /* \"#utility.yul\":4548:4553   */\n      dup2\n        /* \"#utility.yul\":4541:4553   */\n      swap1\n      pop\n        /* \"#utility.yul\":4499:4559   */\n      swap2\n      swap1\n      pop\n      jump\t// out\n        /* \"#utility.yul\":4565:4707   */\n    tag_286:\n        /* \"#utility.yul\":4615:4624   */\n      0x00\n        /* \"#utility.yul\":4648:4701   */\n      tag_393\n        /* \"#utility.yul\":4666:4700   */\n      tag_394\n        /* \"#utility.yul\":4675:4699   */\n      tag_395\n        /* \"#utility.yul\":4693:4698   */\n      dup5\n        /* \"#utility.yul\":4675:4699   */\n      tag_273\n      jump\t// in\n    tag_395:\n        /* \"#utility.yul\":4666:4700   */\n      tag_285\n      jump\t// in\n    tag_394:\n        /* \"#utility.yul\":4648:4701   */\n      tag_273\n      jump\t// in\n    tag_393:\n        /* \"#utility.yul\":4635:4701   */\n      swap1\n      pop\n        /* \"#utility.yul\":4565:4707   */\n      swap2\n      swap1\n      pop\n      jump\t// out\n        /* \"#utility.yul\":4713:4839   */\n    tag_287:\n        /* \"#utility.yul\":4763:4772   */\n      0x00\n        /* \"#utility.yul\":4796:4833   */\n      tag_397\n        /* \"#utility.yul\":4827:4832   */\n      dup3\n        /* \"#utility.yul\":4796:4833   */\n      tag_286\n      jump\t// in\n    tag_397:\n        /* \"#utility.yul\":4783:4833   */\n      swap1\n      pop\n        /* \"#utility.yul\":4713:4839   */\n      swap2\n      swap1\n      pop\n      jump\t// out\n        /* \"#utility.yul\":4845:4986   */\n    tag_288:\n        /* \"#utility.yul\":4910:4919   */\n      0x00\n        /* \"#utility.yul\":4943:4980   */\n      tag_399\n        /* \"#utility.yul\":4974:4979   */\n      dup3\n        /* \"#utility.yul\":4943:4980   */\n      tag_287\n      jump\t// in\n    tag_399:\n        /* \"#utility.yul\":4930:4980   */\n      swap1\n      pop\n        /* \"#utility.yul\":4845:4986   */\n      swap2\n      swap1\n      pop\n      jump\t// out\n        /* \"#utility.yul\":4992:5153   */\n    tag_289:\n        /* \"#utility.yul\":5094:5146   */\n      tag_401\n        /* \"#utility.yul\":5140:5145   */\n      dup2\n        /* \"#utility.yul\":5094:5146   */\n      tag_288\n      jump\t// in\n    tag_401:\n        /* \"#utility.yul\":5089:5092   */\n      dup3\n        /* \"#utility.yul\":5082:5147   */\n      mstore\n        /* \"#utility.yul\":4992:5153   */\n      pop\n      pop\n      jump\t// out\n        /* \"#utility.yul\":5159:5841   */\n    tag_43:\n        /* \"#utility.yul\":5373:5377   */\n      0x00\n        /* \"#utility.yul\":5411:5414   */\n      0xa0\n        /* \"#utility.yul\":5400:5409   */\n      dup3\n        /* \"#utility.yul\":5396:5415   */\n      add\n        /* \"#utility.yul\":5388:5415   */\n      swap1\n      pop\n        /* \"#utility.yul\":5425:5496   */\n      tag_403\n        /* \"#utility.yul\":5493:5494   */\n      0x00\n        /* \"#utility.yul\":5482:5491   */\n      dup4\n        /* \"#utility.yul\":5478:5495   */\n      add\n        /* \"#utility.yul\":5469:5475   */\n      dup9\n        /* \"#utility.yul\":5425:5496   */\n      tag_280\n      jump\t// in\n    tag_403:\n        /* \"#utility.yul\":5506:5578   */\n      tag_404\n        /* \"#utility.yul\":5574:5576   */\n      0x20\n        /* \"#utility.yul\":5563:5572   */\n      dup4\n        /* \"#utility.yul\":5559:5577   */\n      add\n        /* \"#utility.yul\":5550:5556   */\n      dup8\n        /* \"#utility.yul\":5506:5578   */\n      tag_279\n      jump\t// in\n    tag_404:\n        /* \"#utility.yul\":5588:5660   */\n      tag_405\n        /* \"#utility.yul\":5656:5658   */\n      0x40\n        /* \"#utility.yul\":5645:5654   */\n      dup4\n        /* \"#utility.yul\":5641:5659   */\n      add\n        /* \"#utility.yul\":5632:5638   */\n      dup7\n        /* \"#utility.yul\":5588:5660   */\n      tag_279\n      jump\t// in\n    tag_405:\n        /* \"#utility.yul\":5670:5736   */\n      tag_406\n        /* \"#utility.yul\":5732:5734   */\n      0x60\n        /* \"#utility.yul\":5721:5730   */\n      dup4\n        /* \"#utility.yul\":5717:5735   */\n      add\n        /* \"#utility.yul\":5708:5714   */\n      dup6\n        /* \"#utility.yul\":5670:5736   */\n      tag_284\n      jump\t// in\n    tag_406:\n        /* \"#utility.yul\":5746:5834   */\n      tag_407\n        /* \"#utility.yul\":5829:5832   */\n      0x80\n        /* \"#utility.yul\":5818:5827   */\n      dup4\n        /* \"#utility.yul\":5814:5833   */\n      add\n        /* \"#utility.yul\":5805:5811   */\n      dup5\n        /* \"#utility.yul\":5746:5834   */\n      tag_289\n      jump\t// in\n    tag_407:\n        /* \"#utility.yul\":5159:5841   */\n      swap7\n      swap6\n      pop\n      pop\n      pop\n      pop\n      pop\n      pop\n      jump\t// out\n        /* \"#utility.yul\":5847:6351   */\n    tag_46:\n        /* \"#utility.yul\":5930:5936   */\n      0x00\n        /* \"#utility.yul\":5938:5944   */\n      dup1\n        /* \"#utility.yul\":5987:5989   */\n      0x40\n        /* \"#utility.yul\":5975:5984   */\n      dup4\n        /* \"#utility.yul\":5966:5973   */\n      dup6\n        /* \"#utility.yul\":5962:5985   */\n      sub\n        /* \"#utility.yul\":5958:5990   */\n      slt\n        /* \"#utility.yul\":5955:6074   */\n      iszero\n      tag_409\n      jumpi\n        /* \"#utility.yul\":5993:6072   */\n      tag_410\n      tag_267\n      jump\t// in\n    tag_410:\n        /* \"#utility.yul\":5955:6074   */\n    tag_409:\n        /* \"#utility.yul\":6113:6114   */\n      0x00\n        /* \"#utility.yul\":6138:6191   */\n      tag_411\n        /* \"#utility.yul\":6183:6190   */\n      dup6\n        /* \"#utility.yul\":6174:6180   */\n      dup3\n        /* \"#utility.yul\":6163:6172   */\n      dup7\n        /* \"#utility.yul\":6159:6181   */\n      add\n        /* \"#utility.yul\":6138:6191   */\n      tag_282\n      jump\t// in\n    tag_411:\n        /* \"#utility.yul\":6128:6191   */\n      swap3\n      pop\n        /* \"#utility.yul\":6084:6201   */\n      pop\n        /* \"#utility.yul\":6240:6242   */\n      0x20\n        /* \"#utility.yul\":6266:6334   */\n      tag_412\n        /* \"#utility.yul\":6326:6333   */\n      dup6\n        /* \"#utility.yul\":6317:6323   */\n      dup3\n        /* \"#utility.yul\":6306:6315   */\n      dup7\n        /* \"#utility.yul\":6302:6324   */\n      add\n        /* \"#utility.yul\":6266:6334   */\n      tag_277\n      jump\t// in\n    tag_412:\n        /* \"#utility.yul\":6256:6334   */\n      swap2\n      pop\n        /* \"#utility.yul\":6211:6344   */\n      pop\n        /* \"#utility.yul\":5847:6351   */\n      swap3\n      pop\n      swap3\n      swap1\n      pop\n      jump\t// out\n        /* \"#utility.yul\":6357:6716   */\n    tag_54:\n        /* \"#utility.yul\":6431:6437   */\n      0x00\n        /* \"#utility.yul\":6480:6482   */\n      0x20\n        /* \"#utility.yul\":6468:6477   */\n      dup3\n        /* \"#utility.yul\":6459:6466   */\n      dup5\n        /* \"#utility.yul\":6455:6478   */\n      sub\n        /* \"#utility.yul\":6451:6483   */\n      slt\n        /* \"#utility.yul\":6448:6567   */\n      iszero\n      tag_414\n      jumpi\n        /* \"#utility.yul\":6486:6565   */\n      tag_415\n      tag_267\n      jump\t// in\n    tag_415:\n        /* \"#utility.yul\":6448:6567   */\n    tag_414:\n        /* \"#utility.yul\":6606:6607   */\n      0x00\n        /* \"#utility.yul\":6631:6699   */\n      tag_416\n        /* \"#utility.yul\":6691:6698   */\n      dup5\n        /* \"#utility.yul\":6682:6688   */\n      dup3\n        /* \"#utility.yul\":6671:6680   */\n      dup6\n        /* \"#utility.yul\":6667:6689   */\n      add\n        /* \"#utility.yul\":6631:6699   */\n      tag_277\n      jump\t// in\n    tag_416:\n        /* \"#utility.yul\":6621:6699   */\n      swap2\n      pop\n        /* \"#utility.yul\":6577:6709   */\n      pop\n        /* \"#utility.yul\":6357:6716   */\n      swap3\n      swap2\n      pop\n      pop\n      jump\t// out\n        /* \"#utility.yul\":6722:6870   */\n    tag_290:\n        /* \"#utility.yul\":6794:6803   */\n      0x00\n        /* \"#utility.yul\":6827:6864   */\n      tag_418\n        /* \"#utility.yul\":6858:6863   */\n      dup3\n        /* \"#utility.yul\":6827:6864   */\n      tag_287\n      jump\t// in\n    tag_418:\n        /* \"#utility.yul\":6814:6864   */\n      swap1\n      pop\n        /* \"#utility.yul\":6722:6870   */\n      swap2\n      swap1\n      pop\n      jump\t// out\n        /* \"#utility.yul\":6876:7051   */\n    tag_291:\n        /* \"#utility.yul\":6985:7044   */\n      tag_420\n        /* \"#utility.yul\":7038:7043   */\n      dup2\n        /* \"#utility.yul\":6985:7044   */\n      tag_290\n      jump\t// in\n    tag_420:\n        /* \"#utility.yul\":6980:6983   */\n      dup3\n        /* \"#utility.yul\":6973:7045   */\n      mstore\n        /* \"#utility.yul\":6876:7051   */\n      pop\n      pop\n      jump\t// out\n        /* \"#utility.yul\":7057:7543   */\n    tag_57:\n        /* \"#utility.yul\":7228:7232   */\n      0x00\n        /* \"#utility.yul\":7266:7268   */\n      0x60\n        /* \"#utility.yul\":7255:7264   */\n      dup3\n        /* \"#utility.yul\":7251:7269   */\n      add\n        /* \"#utility.yul\":7243:7269   */\n      swap1\n      pop\n        /* \"#utility.yul\":7279:7372   */\n      tag_422\n        /* \"#utility.yul\":7369:7370   */\n      0x00\n        /* \"#utility.yul\":7358:7367   */\n      dup4\n        /* \"#utility.yul\":7354:7371   */\n      add\n        /* \"#utility.yul\":7345:7351   */\n      dup7\n        /* \"#utility.yul\":7279:7372   */\n      tag_291\n      jump\t// in\n    tag_422:\n        /* \"#utility.yul\":7382:7454   */\n      tag_423\n        /* \"#utility.yul\":7450:7452   */\n      0x20\n        /* \"#utility.yul\":7439:7448   */\n      dup4\n        /* \"#utility.yul\":7435:7453   */\n      add\n        /* \"#utility.yul\":7426:7432   */\n      dup6\n        /* \"#utility.yul\":7382:7454   */\n      tag_279\n      jump\t// in\n    tag_423:\n        /* \"#utility.yul\":7464:7536   */\n      tag_424\n        /* \"#utility.yul\":7532:7534   */\n      0x40\n        /* \"#utility.yul\":7521:7530   */\n      dup4\n        /* \"#utility.yul\":7517:7535   */\n      add\n        /* \"#utility.yul\":7508:7514   */\n      dup5\n        /* \"#utility.yul\":7464:7536   */\n      tag_279\n      jump\t// in\n    tag_424:\n        /* \"#utility.yul\":7057:7543   */\n      swap5\n      swap4\n      pop\n      pop\n      pop\n      pop\n      jump\t// out\n        /* \"#utility.yul\":7549:7878   */\n    tag_60:\n        /* \"#utility.yul\":7608:7614   */\n      0x00\n        /* \"#utility.yul\":7657:7659   */\n      0x20\n        /* \"#utility.yul\":7645:7654   */\n      dup3\n        /* \"#utility.yul\":7636:7643   */\n      dup5\n        /* \"#utility.yul\":7632:7655   */\n      sub\n        /* \"#utility.yul\":7628:7660   */\n      slt\n        /* \"#utility.yul\":7625:7744   */\n      iszero\n      tag_426\n      jumpi\n        /* \"#utility.yul\":7663:7742   */\n      tag_427\n      tag_267\n      jump\t// in\n    tag_427:\n        /* \"#utility.yul\":7625:7744   */\n    tag_426:\n        /* \"#utility.yul\":7783:7784   */\n      0x00\n        /* \"#utility.yul\":7808:7861   */\n      tag_428\n        /* \"#utility.yul\":7853:7860   */\n      dup5\n        /* \"#utility.yul\":7844:7850   */\n      dup3\n        /* \"#utility.yul\":7833:7842   */\n      dup6\n        /* \"#utility.yul\":7829:7851   */\n      add\n        /* \"#utility.yul\":7808:7861   */\n      tag_282\n      jump\t// in\n    tag_428:\n        /* \"#utility.yul\":7798:7861   */\n      swap2\n      pop\n        /* \"#utility.yul\":7754:7871   */\n      pop\n        /* \"#utility.yul\":7549:7878   */\n      swap3\n      swap2\n      pop\n      pop\n      jump\t// out\n        /* \"#utility.yul\":7884:7986   */\n    tag_292:\n        /* \"#utility.yul\":7925:7931   */\n      0x00\n        /* \"#utility.yul\":7976:7978   */\n      0x1f\n        /* \"#utility.yul\":7972:7979   */\n      not\n        /* \"#utility.yul\":7967:7969   */\n      0x1f\n        /* \"#utility.yul\":7960:7965   */\n      dup4\n        /* \"#utility.yul\":7956:7970   */\n      add\n        /* \"#utility.yul\":7952:7980   */\n      and\n        /* \"#utility.yul\":7942:7980   */\n      swap1\n      pop\n        /* \"#utility.yul\":7884:7986   */\n      swap2\n      swap1\n      pop\n      jump\t// out\n        /* \"#utility.yul\":7992:8172   */\n    tag_293:\n        /* \"#utility.yul\":8040:8117   */\n      0x4e487b7100000000000000000000000000000000000000000000000000000000\n        /* \"#utility.yul\":8037:8038   */\n      0x00\n        /* \"#utility.yul\":8030:8118   */\n      mstore\n        /* \"#utility.yul\":8137:8141   */\n      0x41\n        /* \"#utility.yul\":8134:8135   */\n      0x04\n        /* \"#utility.yul\":8127:8142   */\n      mstore\n        /* \"#utility.yul\":8161:8165   */\n      0x24\n        /* \"#utility.yul\":8158:8159   */\n      0x00\n        /* \"#utility.yul\":8151:8166   */\n      revert\n        /* \"#utility.yul\":8178:8459   */\n    tag_294:\n        /* \"#utility.yul\":8261:8288   */\n      tag_432\n        /* \"#utility.yul\":8283:8287   */\n      dup3\n        /* \"#utility.yul\":8261:8288   */\n      tag_292\n      jump\t// in\n    tag_432:\n        /* \"#utility.yul\":8253:8259   */\n      dup2\n        /* \"#utility.yul\":8249:8289   */\n      add\n        /* \"#utility.yul\":8391:8397   */\n      dup2\n        /* \"#utility.yul\":8379:8389   */\n      dup2\n        /* \"#utility.yul\":8376:8398   */\n      lt\n        /* \"#utility.yul\":8355:8373   */\n      0xffffffffffffffff\n        /* \"#utility.yul\":8343:8353   */\n      dup3\n        /* \"#utility.yul\":8340:8374   */\n      gt\n        /* \"#utility.yul\":8337:8399   */\n      or\n        /* \"#utility.yul\":8334:8422   */\n      iszero\n      tag_433\n      jumpi\n        /* \"#utility.yul\":8402:8420   */\n      tag_434\n      tag_293\n      jump\t// in\n    tag_434:\n        /* \"#utility.yul\":8334:8422   */\n    tag_433:\n        /* \"#utility.yul\":8442:8452   */\n      dup1\n        /* \"#utility.yul\":8438:8440   */\n      0x40\n        /* \"#utility.yul\":8431:8453   */\n      mstore\n        /* \"#utility.yul\":8221:8459   */\n      pop\n        /* \"#utility.yul\":8178:8459   */\n      pop\n      pop\n      jump\t// out\n        /* \"#utility.yul\":8465:8594   */\n    tag_295:\n        /* \"#utility.yul\":8499:8505   */\n      0x00\n        /* \"#utility.yul\":8526:8546   */\n      tag_436\n      tag_266\n      jump\t// in\n    tag_436:\n        /* \"#utility.yul\":8516:8546   */\n      swap1\n      pop\n        /* \"#utility.yul\":8555:8588   */\n      tag_437\n        /* \"#utility.yul\":8583:8587   */\n      dup3\n        /* \"#utility.yul\":8575:8581   */\n      dup3\n        /* \"#utility.yul\":8555:8588   */\n      tag_294\n      jump\t// in\n    tag_437:\n        /* \"#utility.yul\":8465:8594   */\n      swap2\n      swap1\n      pop\n      jump\t// out\n        /* \"#utility.yul\":8600:8911   */\n    tag_296:\n        /* \"#utility.yul\":8677:8681   */\n      0x00\n        /* \"#utility.yul\":8767:8785   */\n      0xffffffffffffffff\n        /* \"#utility.yul\":8759:8765   */\n      dup3\n        /* \"#utility.yul\":8756:8786   */\n      gt\n        /* \"#utility.yul\":8753:8809   */\n      iszero\n      tag_439\n      jumpi\n        /* \"#utility.yul\":8789:8807   */\n      tag_440\n      tag_293\n      jump\t// in\n    tag_440:\n        /* \"#utility.yul\":8753:8809   */\n    tag_439:\n        /* \"#utility.yul\":8839:8843   */\n      0x20\n        /* \"#utility.yul\":8831:8837   */\n      dup3\n        /* \"#utility.yul\":8827:8844   */\n      mul\n        /* \"#utility.yul\":8819:8844   */\n      swap1\n      pop\n        /* \"#utility.yul\":8899:8903   */\n      0x20\n        /* \"#utility.yul\":8893:8897   */\n      dup2\n        /* \"#utility.yul\":8889:8904   */\n      add\n        /* \"#utility.yul\":8881:8904   */\n      swap1\n      pop\n        /* \"#utility.yul\":8600:8911   */\n      swap2\n      swap1\n      pop\n      jump\t// out\n        /* \"#utility.yul\":8917:9039   */\n    tag_297:\n        /* \"#utility.yul\":8990:9014   */\n      tag_442\n        /* \"#utility.yul\":9008:9013   */\n      dup2\n        /* \"#utility.yul\":8990:9014   */\n      tag_274\n      jump\t// in\n    tag_442:\n        /* \"#utility.yul\":8983:8988   */\n      dup2\n        /* \"#utility.yul\":8980:9015   */\n      eq\n        /* \"#utility.yul\":8970:9033   */\n      tag_443\n      jumpi\n        /* \"#utility.yul\":9029:9030   */\n      0x00\n        /* \"#utility.yul\":9026:9027   */\n      dup1\n        /* \"#utility.yul\":9019:9031   */\n      revert\n        /* \"#utility.yul\":8970:9033   */\n    tag_443:\n        /* \"#utility.yul\":8917:9039   */\n      pop\n      jump\t// out\n        /* \"#utility.yul\":9045:9184   */\n    tag_298:\n        /* \"#utility.yul\":9091:9096   */\n      0x00\n        /* \"#utility.yul\":9129:9135   */\n      dup2\n        /* \"#utility.yul\":9116:9136   */\n      calldataload\n        /* \"#utility.yul\":9107:9136   */\n      swap1\n      pop\n        /* \"#utility.yul\":9145:9178   */\n      tag_445\n        /* \"#utility.yul\":9172:9177   */\n      dup2\n        /* \"#utility.yul\":9145:9178   */\n      tag_297\n      jump\t// in\n    tag_445:\n        /* \"#utility.yul\":9045:9184   */\n      swap3\n      swap2\n      pop\n      pop\n      jump\t// out\n        /* \"#utility.yul\":9207:9917   */\n    tag_299:\n        /* \"#utility.yul\":9303:9308   */\n      0x00\n        /* \"#utility.yul\":9328:9409   */\n      tag_447\n        /* \"#utility.yul\":9344:9408   */\n      tag_448\n        /* \"#utility.yul\":9401:9407   */\n      dup5\n        /* \"#utility.yul\":9344:9408   */\n      tag_296\n      jump\t// in\n    tag_448:\n        /* \"#utility.yul\":9328:9409   */\n      tag_295\n      jump\t// in\n    tag_447:\n        /* \"#utility.yul\":9319:9409   */\n      swap1\n      pop\n        /* \"#utility.yul\":9429:9434   */\n      dup1\n        /* \"#utility.yul\":9458:9464   */\n      dup4\n        /* \"#utility.yul\":9451:9456   */\n      dup3\n        /* \"#utility.yul\":9444:9465   */\n      mstore\n        /* \"#utility.yul\":9492:9496   */\n      0x20\n        /* \"#utility.yul\":9485:9490   */\n      dup3\n        /* \"#utility.yul\":9481:9497   */\n      add\n        /* \"#utility.yul\":9474:9497   */\n      swap1\n      pop\n        /* \"#utility.yul\":9545:9549   */\n      0x20\n        /* \"#utility.yul\":9537:9543   */\n      dup5\n        /* \"#utility.yul\":9533:9550   */\n      mul\n        /* \"#utility.yul\":9525:9531   */\n      dup4\n        /* \"#utility.yul\":9521:9551   */\n      add\n        /* \"#utility.yul\":9574:9577   */\n      dup6\n        /* \"#utility.yul\":9566:9572   */\n      dup2\n        /* \"#utility.yul\":9563:9578   */\n      gt\n        /* \"#utility.yul\":9560:9682   */\n      iszero\n      tag_449\n      jumpi\n        /* \"#utility.yul\":9593:9672   */\n      tag_450\n      tag_271\n      jump\t// in\n    tag_450:\n        /* \"#utility.yul\":9560:9682   */\n    tag_449:\n        /* \"#utility.yul\":9708:9714   */\n      dup4\n        /* \"#utility.yul\":9691:9911   */\n    tag_451:\n        /* \"#utility.yul\":9725:9731   */\n      dup2\n        /* \"#utility.yul\":9720:9723   */\n      dup2\n        /* \"#utility.yul\":9717:9732   */\n      lt\n        /* \"#utility.yul\":9691:9911   */\n      iszero\n      tag_453\n      jumpi\n        /* \"#utility.yul\":9800:9803   */\n      dup1\n        /* \"#utility.yul\":9829:9866   */\n      tag_454\n        /* \"#utility.yul\":9862:9865   */\n      dup9\n        /* \"#utility.yul\":9850:9860   */\n      dup3\n        /* \"#utility.yul\":9829:9866   */\n      tag_298\n      jump\t// in\n    tag_454:\n        /* \"#utility.yul\":9824:9827   */\n      dup5\n        /* \"#utility.yul\":9817:9867   */\n      mstore\n        /* \"#utility.yul\":9896:9900   */\n      0x20\n        /* \"#utility.yul\":9891:9894   */\n      dup5\n        /* \"#utility.yul\":9887:9901   */\n      add\n        /* \"#utility.yul\":9880:9901   */\n      swap4\n      pop\n        /* \"#utility.yul\":9767:9911   */\n      pop\n        /* \"#utility.yul\":9751:9755   */\n      0x20\n        /* \"#utility.yul\":9746:9749   */\n      dup2\n        /* \"#utility.yul\":9742:9756   */\n      add\n        /* \"#utility.yul\":9735:9756   */\n      swap1\n      pop\n        /* \"#utility.yul\":9691:9911   */\n      jump(tag_451)\n    tag_453:\n        /* \"#utility.yul\":9695:9716   */\n      pop\n        /* \"#utility.yul\":9309:9917   */\n      pop\n      pop\n        /* \"#utility.yul\":9207:9917   */\n      swap4\n      swap3\n      pop\n      pop\n      pop\n      jump\t// out\n        /* \"#utility.yul\":9940:10310   */\n    tag_300:\n        /* \"#utility.yul\":10011:10016   */\n      0x00\n        /* \"#utility.yul\":10060:10063   */\n      dup3\n        /* \"#utility.yul\":10053:10057   */\n      0x1f\n        /* \"#utility.yul\":10045:10051   */\n      dup4\n        /* \"#utility.yul\":10041:10058   */\n      add\n        /* \"#utility.yul\":10037:10064   */\n      slt\n        /* \"#utility.yul\":10027:10149   */\n      tag_456\n      jumpi\n        /* \"#utility.yul\":10068:10147   */\n      tag_457\n      tag_269\n      jump\t// in\n    tag_457:\n        /* \"#utility.yul\":10027:10149   */\n    tag_456:\n        /* \"#utility.yul\":10185:10191   */\n      dup2\n        /* \"#utility.yul\":10172:10192   */\n      calldataload\n        /* \"#utility.yul\":10210:10304   */\n      tag_458\n        /* \"#utility.yul\":10300:10303   */\n      dup5\n        /* \"#utility.yul\":10292:10298   */\n      dup3\n        /* \"#utility.yul\":10285:10289   */\n      0x20\n        /* \"#utility.yul\":10277:10283   */\n      dup7\n        /* \"#utility.yul\":10273:10290   */\n      add\n        /* \"#utility.yul\":10210:10304   */\n      tag_299\n      jump\t// in\n    tag_458:\n        /* \"#utility.yul\":10201:10304   */\n      swap2\n      pop\n        /* \"#utility.yul\":10017:10310   */\n      pop\n        /* \"#utility.yul\":9940:10310   */\n      swap3\n      swap2\n      pop\n      pop\n      jump\t// out\n        /* \"#utility.yul\":10316:10627   */\n    tag_301:\n        /* \"#utility.yul\":10393:10397   */\n      0x00\n        /* \"#utility.yul\":10483:10501   */\n      0xffffffffffffffff\n        /* \"#utility.yul\":10475:10481   */\n      dup3\n        /* \"#utility.yul\":10472:10502   */\n      gt\n        /* \"#utility.yul\":10469:10525   */\n      iszero\n      tag_460\n      jumpi\n        /* \"#utility.yul\":10505:10523   */\n      tag_461\n      tag_293\n      jump\t// in\n    tag_461:\n        /* \"#utility.yul\":10469:10525   */\n    tag_460:\n        /* \"#utility.yul\":10555:10559   */\n      0x20\n        /* \"#utility.yul\":10547:10553   */\n      dup3\n        /* \"#utility.yul\":10543:10560   */\n      mul\n        /* \"#utility.yul\":10535:10560   */\n      swap1\n      pop\n        /* \"#utility.yul\":10615:10619   */\n      0x20\n        /* \"#utility.yul\":10609:10613   */\n      dup2\n        /* \"#utility.yul\":10605:10620   */\n      add\n        /* \"#utility.yul\":10597:10620   */\n      swap1\n      pop\n        /* \"#utility.yul\":10316:10627   */\n      swap2\n      swap1\n      pop\n      jump\t// out\n        /* \"#utility.yul\":10650:11360   */\n    tag_302:\n        /* \"#utility.yul\":10746:10751   */\n      0x00\n        /* \"#utility.yul\":10771:10852   */\n      tag_463\n        /* \"#utility.yul\":10787:10851   */\n      tag_464\n        /* \"#utility.yul\":10844:10850   */\n      dup5\n        /* \"#utility.yul\":10787:10851   */\n      tag_301\n      jump\t// in\n    tag_464:\n        /* \"#utility.yul\":10771:10852   */\n      tag_295\n      jump\t// in\n    tag_463:\n        /* \"#utility.yul\":10762:10852   */\n      swap1\n      pop\n        /* \"#utility.yul\":10872:10877   */\n      dup1\n        /* \"#utility.yul\":10901:10907   */\n      dup4\n        /* \"#utility.yul\":10894:10899   */\n      dup3\n        /* \"#utility.yul\":10887:10908   */\n      mstore\n        /* \"#utility.yul\":10935:10939   */\n      0x20\n        /* \"#utility.yul\":10928:10933   */\n      dup3\n        /* \"#utility.yul\":10924:10940   */\n      add\n        /* \"#utility.yul\":10917:10940   */\n      swap1\n      pop\n        /* \"#utility.yul\":10988:10992   */\n      0x20\n        /* \"#utility.yul\":10980:10986   */\n      dup5\n        /* \"#utility.yul\":10976:10993   */\n      mul\n        /* \"#utility.yul\":10968:10974   */\n      dup4\n        /* \"#utility.yul\":10964:10994   */\n      add\n        /* \"#utility.yul\":11017:11020   */\n      dup6\n        /* \"#utility.yul\":11009:11015   */\n      dup2\n        /* \"#utility.yul\":11006:11021   */\n      gt\n        /* \"#utility.yul\":11003:11125   */\n      iszero\n      tag_465\n      jumpi\n        /* \"#utility.yul\":11036:11115   */\n      tag_466\n      tag_271\n      jump\t// in\n    tag_466:\n        /* \"#utility.yul\":11003:11125   */\n    tag_465:\n        /* \"#utility.yul\":11151:11157   */\n      dup4\n        /* \"#utility.yul\":11134:11354   */\n    tag_467:\n        /* \"#utility.yul\":11168:11174   */\n      dup2\n        /* \"#utility.yul\":11163:11166   */\n      dup2\n        /* \"#utility.yul\":11160:11175   */\n      lt\n        /* \"#utility.yul\":11134:11354   */\n      iszero\n      tag_469\n      jumpi\n        /* \"#utility.yul\":11243:11246   */\n      dup1\n        /* \"#utility.yul\":11272:11309   */\n      tag_470\n        /* \"#utility.yul\":11305:11308   */\n      dup9\n        /* \"#utility.yul\":11293:11303   */\n      dup3\n        /* \"#utility.yul\":11272:11309   */\n      tag_282\n      jump\t// in\n    tag_470:\n        /* \"#utility.yul\":11267:11270   */\n      dup5\n        /* \"#utility.yul\":11260:11310   */\n      mstore\n        /* \"#utility.yul\":11339:11343   */\n      0x20\n        /* \"#utility.yul\":11334:11337   */\n      dup5\n        /* \"#utility.yul\":11330:11344   */\n      add\n        /* \"#utility.yul\":11323:11344   */\n      swap4\n      pop\n        /* \"#utility.yul\":11210:11354   */\n      pop\n        /* \"#utility.yul\":11194:11198   */\n      0x20\n        /* \"#utility.yul\":11189:11192   */\n      dup2\n        /* \"#utility.yul\":11185:11199   */\n      add\n        /* \"#utility.yul\":11178:11199   */\n      swap1\n      pop\n        /* \"#utility.yul\":11134:11354   */\n      jump(tag_467)\n    tag_469:\n        /* \"#utility.yul\":11138:11159   */\n      pop\n        /* \"#utility.yul\":10752:11360   */\n      pop\n      pop\n        /* \"#utility.yul\":10650:11360   */\n      swap4\n      swap3\n      pop\n      pop\n      pop\n      jump\t// out\n        /* \"#utility.yul\":11383:11753   */\n    tag_303:\n        /* \"#utility.yul\":11454:11459   */\n      0x00\n        /* \"#utility.yul\":11503:11506   */\n      dup3\n        /* \"#utility.yul\":11496:11500   */\n      0x1f\n        /* \"#utility.yul\":11488:11494   */\n      dup4\n        /* \"#utility.yul\":11484:11501   */\n      add\n        /* \"#utility.yul\":11480:11507   */\n      slt\n        /* \"#utility.yul\":11470:11592   */\n      tag_472\n      jumpi\n        /* \"#utility.yul\":11511:11590   */\n      tag_473\n      tag_269\n      jump\t// in\n    tag_473:\n        /* \"#utility.yul\":11470:11592   */\n    tag_472:\n        /* \"#utility.yul\":11628:11634   */\n      dup2\n        /* \"#utility.yul\":11615:11635   */\n      calldataload\n        /* \"#utility.yul\":11653:11747   */\n      tag_474\n        /* \"#utility.yul\":11743:11746   */\n      dup5\n        /* \"#utility.yul\":11735:11741   */\n      dup3\n        /* \"#utility.yul\":11728:11732   */\n      0x20\n        /* \"#utility.yul\":11720:11726   */\n      dup7\n        /* \"#utility.yul\":11716:11733   */\n      add\n        /* \"#utility.yul\":11653:11747   */\n      tag_302\n      jump\t// in\n    tag_474:\n        /* \"#utility.yul\":11644:11747   */\n      swap2\n      pop\n        /* \"#utility.yul\":11460:11753   */\n      pop\n        /* \"#utility.yul\":11383:11753   */\n      swap3\n      swap2\n      pop\n      pop\n      jump\t// out\n        /* \"#utility.yul\":11759:13364   */\n    tag_64:\n        /* \"#utility.yul\":11945:11951   */\n      0x00\n        /* \"#utility.yul\":11953:11959   */\n      dup1\n        /* \"#utility.yul\":11961:11967   */\n      0x00\n        /* \"#utility.yul\":11969:11975   */\n      dup1\n        /* \"#utility.yul\":12018:12021   */\n      0x80\n        /* \"#utility.yul\":12006:12015   */\n      dup6\n        /* \"#utility.yul\":11997:12004   */\n      dup8\n        /* \"#utility.yul\":11993:12016   */\n      sub\n        /* \"#utility.yul\":11989:12022   */\n      slt\n        /* \"#utility.yul\":11986:12106   */\n      iszero\n      tag_476\n      jumpi\n        /* \"#utility.yul\":12025:12104   */\n      tag_477\n      tag_267\n      jump\t// in\n    tag_477:\n        /* \"#utility.yul\":11986:12106   */\n    tag_476:\n        /* \"#utility.yul\":12173:12174   */\n      0x00\n        /* \"#utility.yul\":12162:12171   */\n      dup6\n        /* \"#utility.yul\":12158:12175   */\n      add\n        /* \"#utility.yul\":12145:12176   */\n      calldataload\n        /* \"#utility.yul\":12203:12221   */\n      0xffffffffffffffff\n        /* \"#utility.yul\":12195:12201   */\n      dup2\n        /* \"#utility.yul\":12192:12222   */\n      gt\n        /* \"#utility.yul\":12189:12306   */\n      iszero\n      tag_478\n      jumpi\n        /* \"#utility.yul\":12225:12304   */\n      tag_479\n      tag_268\n      jump\t// in\n    tag_479:\n        /* \"#utility.yul\":12189:12306   */\n    tag_478:\n        /* \"#utility.yul\":12330:12408   */\n      tag_480\n        /* \"#utility.yul\":12400:12407   */\n      dup8\n        /* \"#utility.yul\":12391:12397   */\n      dup3\n        /* \"#utility.yul\":12380:12389   */\n      dup9\n        /* \"#utility.yul\":12376:12398   */\n      add\n        /* \"#utility.yul\":12330:12408   */\n      tag_300\n      jump\t// in\n    tag_480:\n        /* \"#utility.yul\":12320:12408   */\n      swap5\n      pop\n        /* \"#utility.yul\":12116:12418   */\n      pop\n        /* \"#utility.yul\":12485:12487   */\n      0x20\n        /* \"#utility.yul\":12474:12483   */\n      dup6\n        /* \"#utility.yul\":12470:12488   */\n      add\n        /* \"#utility.yul\":12457:12489   */\n      calldataload\n        /* \"#utility.yul\":12516:12534   */\n      0xffffffffffffffff\n        /* \"#utility.yul\":12508:12514   */\n      dup2\n        /* \"#utility.yul\":12505:12535   */\n      gt\n        /* \"#utility.yul\":12502:12619   */\n      iszero\n      tag_481\n      jumpi\n        /* \"#utility.yul\":12538:12617   */\n      tag_482\n      tag_268\n      jump\t// in\n    tag_482:\n        /* \"#utility.yul\":12502:12619   */\n    tag_481:\n        /* \"#utility.yul\":12643:12721   */\n      tag_483\n        /* \"#utility.yul\":12713:12720   */\n      dup8\n        /* \"#utility.yul\":12704:12710   */\n      dup3\n        /* \"#utility.yul\":12693:12702   */\n      dup9\n        /* \"#utility.yul\":12689:12711   */\n      add\n        /* \"#utility.yul\":12643:12721   */\n      tag_300\n      jump\t// in\n    tag_483:\n        /* \"#utility.yul\":12633:12721   */\n      swap4\n      pop\n        /* \"#utility.yul\":12428:12731   */\n      pop\n        /* \"#utility.yul\":12798:12800   */\n      0x40\n        /* \"#utility.yul\":12787:12796   */\n      dup6\n        /* \"#utility.yul\":12783:12801   */\n      add\n        /* \"#utility.yul\":12770:12802   */\n      calldataload\n        /* \"#utility.yul\":12829:12847   */\n      0xffffffffffffffff\n        /* \"#utility.yul\":12821:12827   */\n      dup2\n        /* \"#utility.yul\":12818:12848   */\n      gt\n        /* \"#utility.yul\":12815:12932   */\n      iszero\n      tag_484\n      jumpi\n        /* \"#utility.yul\":12851:12930   */\n      tag_485\n      tag_268\n      jump\t// in\n    tag_485:\n        /* \"#utility.yul\":12815:12932   */\n    tag_484:\n        /* \"#utility.yul\":12956:13034   */\n      tag_486\n        /* \"#utility.yul\":13026:13033   */\n      dup8\n        /* \"#utility.yul\":13017:13023   */\n      dup3\n        /* \"#utility.yul\":13006:13015   */\n      dup9\n        /* \"#utility.yul\":13002:13024   */\n      add\n        /* \"#utility.yul\":12956:13034   */\n      tag_303\n      jump\t// in\n    tag_486:\n        /* \"#utility.yul\":12946:13034   */\n      swap3\n      pop\n        /* \"#utility.yul\":12741:13044   */\n      pop\n        /* \"#utility.yul\":13111:13113   */\n      0x60\n        /* \"#utility.yul\":13100:13109   */\n      dup6\n        /* \"#utility.yul\":13096:13114   */\n      add\n        /* \"#utility.yul\":13083:13115   */\n      calldataload\n        /* \"#utility.yul\":13142:13160   */\n      0xffffffffffffffff\n        /* \"#utility.yul\":13134:13140   */\n      dup2\n        /* \"#utility.yul\":13131:13161   */\n      gt\n        /* \"#utility.yul\":13128:13245   */\n      iszero\n      tag_487\n      jumpi\n        /* \"#utility.yul\":13164:13243   */\n      tag_488\n      tag_268\n      jump\t// in\n    tag_488:\n        /* \"#utility.yul\":13128:13245   */\n    tag_487:\n        /* \"#utility.yul\":13269:13347   */\n      tag_489\n        /* \"#utility.yul\":13339:13346   */\n      dup8\n        /* \"#utility.yul\":13330:13336   */\n      dup3\n        /* \"#utility.yul\":13319:13328   */\n      dup9\n        /* \"#utility.yul\":13315:13337   */\n      add\n        /* \"#utility.yul\":13269:13347   */\n      tag_303\n      jump\t// in\n    tag_489:\n        /* \"#utility.yul\":13259:13347   */\n      swap2\n      pop\n        /* \"#utility.yul\":13054:13357   */\n      pop\n        /* \"#utility.yul\":11759:13364   */\n      swap3\n      swap6\n      swap2\n      swap5\n      pop\n      swap3\n      pop\n      jump\t// out\n        /* \"#utility.yul\":13370:13699   */\n    tag_68:\n        /* \"#utility.yul\":13429:13435   */\n      0x00\n        /* \"#utility.yul\":13478:13480   */\n      0x20\n        /* \"#utility.yul\":13466:13475   */\n      dup3\n        /* \"#utility.yul\":13457:13464   */\n      dup5\n        /* \"#utility.yul\":13453:13476   */\n      sub\n        /* \"#utility.yul\":13449:13481   */\n      slt\n        /* \"#utility.yul\":13446:13565   */\n      iszero\n      tag_491\n      jumpi\n        /* \"#utility.yul\":13484:13563   */\n      tag_492\n      tag_267\n      jump\t// in\n    tag_492:\n        /* \"#utility.yul\":13446:13565   */\n    tag_491:\n        /* \"#utility.yul\":13604:13605   */\n      0x00\n        /* \"#utility.yul\":13629:13682   */\n      tag_493\n        /* \"#utility.yul\":13674:13681   */\n      dup5\n        /* \"#utility.yul\":13665:13671   */\n      dup3\n        /* \"#utility.yul\":13654:13663   */\n      dup6\n        /* \"#utility.yul\":13650:13672   */\n      add\n        /* \"#utility.yul\":13629:13682   */\n      tag_298\n      jump\t// in\n    tag_493:\n        /* \"#utility.yul\":13619:13682   */\n      swap2\n      pop\n        /* \"#utility.yul\":13575:13692   */\n      pop\n        /* \"#utility.yul\":13370:13699   */\n      swap3\n      swap2\n      pop\n      pop\n      jump\t// out\n        /* \"#utility.yul\":13705:13874   */\n    tag_304:\n        /* \"#utility.yul\":13789:13800   */\n      0x00\n        /* \"#utility.yul\":13823:13829   */\n      dup3\n        /* \"#utility.yul\":13818:13821   */\n      dup3\n        /* \"#utility.yul\":13811:13830   */\n      mstore\n        /* \"#utility.yul\":13863:13867   */\n      0x20\n        /* \"#utility.yul\":13858:13861   */\n      dup3\n        /* \"#utility.yul\":13854:13868   */\n      add\n        /* \"#utility.yul\":13839:13868   */\n      swap1\n      pop\n        /* \"#utility.yul\":13705:13874   */\n      swap3\n      swap2\n      pop\n      pop\n      jump\t// out\n        /* \"#utility.yul\":13880:14050   */\n    tag_305:\n        /* \"#utility.yul\":14020:14042   */\n      0x436f6e7472616374206e6f7420616c6c6f776564000000000000000000000000\n        /* \"#utility.yul\":14016:14017   */\n      0x00\n        /* \"#utility.yul\":14008:14014   */\n      dup3\n        /* \"#utility.yul\":14004:14018   */\n      add\n        /* \"#utility.yul\":13997:14043   */\n      mstore\n        /* \"#utility.yul\":13880:14050   */\n      pop\n      jump\t// out\n        /* \"#utility.yul\":14056:14422   */\n    tag_306:\n        /* \"#utility.yul\":14198:14201   */\n      0x00\n        /* \"#utility.yul\":14219:14286   */\n      tag_497\n        /* \"#utility.yul\":14283:14285   */\n      0x14\n        /* \"#utility.yul\":14278:14281   */\n      dup4\n        /* \"#utility.yul\":14219:14286   */\n      tag_304\n      jump\t// in\n    tag_497:\n        /* \"#utility.yul\":14212:14286   */\n      swap2\n      pop\n        /* \"#utility.yul\":14295:14388   */\n      tag_498\n        /* \"#utility.yul\":14384:14387   */\n      dup3\n        /* \"#utility.yul\":14295:14388   */\n      tag_305\n      jump\t// in\n    tag_498:\n        /* \"#utility.yul\":14413:14415   */\n      0x20\n        /* \"#utility.yul\":14408:14411   */\n      dup3\n        /* \"#utility.yul\":14404:14416   */\n      add\n        /* \"#utility.yul\":14397:14416   */\n      swap1\n      pop\n        /* \"#utility.yul\":14056:14422   */\n      swap2\n      swap1\n      pop\n      jump\t// out\n        /* \"#utility.yul\":14428:14847   */\n    tag_75:\n        /* \"#utility.yul\":14594:14598   */\n      0x00\n        /* \"#utility.yul\":14632:14634   */\n      0x20\n        /* \"#utility.yul\":14621:14630   */\n      dup3\n        /* \"#utility.yul\":14617:14635   */\n      add\n        /* \"#utility.yul\":14609:14635   */\n      swap1\n      pop\n        /* \"#utility.yul\":14681:14690   */\n      dup2\n        /* \"#utility.yul\":14675:14679   */\n      dup2\n        /* \"#utility.yul\":14671:14691   */\n      sub\n        /* \"#utility.yul\":14667:14668   */\n      0x00\n        /* \"#utility.yul\":14656:14665   */\n      dup4\n        /* \"#utility.yul\":14652:14669   */\n      add\n        /* \"#utility.yul\":14645:14692   */\n      mstore\n        /* \"#utility.yul\":14709:14840   */\n      tag_500\n        /* \"#utility.yul\":14835:14839   */\n      dup2\n        /* \"#utility.yul\":14709:14840   */\n      tag_306\n      jump\t// in\n    tag_500:\n        /* \"#utility.yul\":14701:14840   */\n      swap1\n      pop\n        /* \"#utility.yul\":14428:14847   */\n      swap2\n      swap1\n      pop\n      jump\t// out\n        /* \"#utility.yul\":14853:15029   */\n    tag_307:\n        /* \"#utility.yul\":14993:15021   */\n      0x50726f787920636f6e7472616374206e6f7420616c6c6f776564000000000000\n        /* \"#utility.yul\":14989:14990   */\n      0x00\n        /* \"#utility.yul\":14981:14987   */\n      dup3\n        /* \"#utility.yul\":14977:14991   */\n      add\n        /* \"#utility.yul\":14970:15022   */\n      mstore\n        /* \"#utility.yul\":14853:15029   */\n      pop\n      jump\t// out\n        /* \"#utility.yul\":15035:15401   */\n    tag_308:\n        /* \"#utility.yul\":15177:15180   */\n      0x00\n        /* \"#utility.yul\":15198:15265   */\n      tag_503\n        /* \"#utility.yul\":15262:15264   */\n      0x1a\n        /* \"#utility.yul\":15257:15260   */\n      dup4\n        /* \"#utility.yul\":15198:15265   */\n      tag_304\n      jump\t// in\n    tag_503:\n        /* \"#utility.yul\":15191:15265   */\n      swap2\n      pop\n        /* \"#utility.yul\":15274:15367   */\n      tag_504\n        /* \"#utility.yul\":15363:15366   */\n      dup3\n        /* \"#utility.yul\":15274:15367   */\n      tag_307\n      jump\t// in\n    tag_504:\n        /* \"#utility.yul\":15392:15394   */\n      0x20\n        /* \"#utility.yul\":15387:15390   */\n      dup3\n        /* \"#utility.yul\":15383:15395   */\n      add\n        /* \"#utility.yul\":15376:15395   */\n      swap1\n      pop\n        /* \"#utility.yul\":15035:15401   */\n      swap2\n      swap1\n      pop\n      jump\t// out\n        /* \"#utility.yul\":15407:15826   */\n    tag_78:\n        /* \"#utility.yul\":15573:15577   */\n      0x00\n        /* \"#utility.yul\":15611:15613   */\n      0x20\n        /* \"#utility.yul\":15600:15609   */\n      dup3\n        /* \"#utility.yul\":15596:15614   */\n      add\n        /* \"#utility.yul\":15588:15614   */\n      swap1\n      pop\n        /* \"#utility.yul\":15660:15669   */\n      dup2\n        /* \"#utility.yul\":15654:15658   */\n      dup2\n        /* \"#utility.yul\":15650:15670   */\n      sub\n        /* \"#utility.yul\":15646:15647   */\n      0x00\n        /* \"#utility.yul\":15635:15644   */\n      dup4\n        /* \"#utility.yul\":15631:15648   */\n      add\n        /* \"#utility.yul\":15624:15671   */\n      mstore\n        /* \"#utility.yul\":15688:15819   */\n      tag_506\n        /* \"#utility.yul\":15814:15818   */\n      dup2\n        /* \"#utility.yul\":15688:15819   */\n      tag_308\n      jump\t// in\n    tag_506:\n        /* \"#utility.yul\":15680:15819   */\n      swap1\n      pop\n        /* \"#utility.yul\":15407:15826   */\n      swap2\n      swap1\n      pop\n      jump\t// out\n        /* \"#utility.yul\":15832:15991   */\n    tag_309:\n        /* \"#utility.yul\":15972:15983   */\n      0x4e6f20746f6b656e730000000000000000000000000000000000000000000000\n        /* \"#utility.yul\":15968:15969   */\n      0x00\n        /* \"#utility.yul\":15960:15966   */\n      dup3\n        /* \"#utility.yul\":15956:15970   */\n      add\n        /* \"#utility.yul\":15949:15984   */\n      mstore\n        /* \"#utility.yul\":15832:15991   */\n      pop\n      jump\t// out\n        /* \"#utility.yul\":15997:16362   */\n    tag_310:\n        /* \"#utility.yul\":16139:16142   */\n      0x00\n        /* \"#utility.yul\":16160:16226   */\n      tag_509\n        /* \"#utility.yul\":16224:16225   */\n      0x09\n        /* \"#utility.yul\":16219:16222   */\n      dup4\n        /* \"#utility.yul\":16160:16226   */\n      tag_304\n      jump\t// in\n    tag_509:\n        /* \"#utility.yul\":16153:16226   */\n      swap2\n      pop\n        /* \"#utility.yul\":16235:16328   */\n      tag_510\n        /* \"#utility.yul\":16324:16327   */\n      dup3\n        /* \"#utility.yul\":16235:16328   */\n      tag_309\n      jump\t// in\n    tag_510:\n        /* \"#utility.yul\":16353:16355   */\n      0x20\n        /* \"#utility.yul\":16348:16351   */\n      dup3\n        /* \"#utility.yul\":16344:16356   */\n      add\n        /* \"#utility.yul\":16337:16356   */\n      swap1\n      pop\n        /* \"#utility.yul\":15997:16362   */\n      swap2\n      swap1\n      pop\n      jump\t// out\n        /* \"#utility.yul\":16368:16787   */\n    tag_82:\n        /* \"#utility.yul\":16534:16538   */\n      0x00\n        /* \"#utility.yul\":16572:16574   */\n      0x20\n        /* \"#utility.yul\":16561:16570   */\n      dup3\n        /* \"#utility.yul\":16557:16575   */\n      add\n        /* \"#utility.yul\":16549:16575   */\n      swap1\n      pop\n        /* \"#utility.yul\":16621:16630   */\n      dup2\n        /* \"#utility.yul\":16615:16619   */\n      dup2\n        /* \"#utility.yul\":16611:16631   */\n      sub\n        /* \"#utility.yul\":16607:16608   */\n      0x00\n        /* \"#utility.yul\":16596:16605   */\n      dup4\n        /* \"#utility.yul\":16592:16609   */\n      add\n        /* \"#utility.yul\":16585:16632   */\n      mstore\n        /* \"#utility.yul\":16649:16780   */\n      tag_512\n        /* \"#utility.yul\":16775:16779   */\n      dup2\n        /* \"#utility.yul\":16649:16780   */\n      tag_310\n      jump\t// in\n    tag_512:\n        /* \"#utility.yul\":16641:16780   */\n      swap1\n      pop\n        /* \"#utility.yul\":16368:16787   */\n      swap2\n      swap1\n      pop\n      jump\t// out\n        /* \"#utility.yul\":16793:16973   */\n    tag_88:\n        /* \"#utility.yul\":16841:16918   */\n      0x4e487b7100000000000000000000000000000000000000000000000000000000\n        /* \"#utility.yul\":16838:16839   */\n      0x00\n        /* \"#utility.yul\":16831:16919   */\n      mstore\n        /* \"#utility.yul\":16938:16942   */\n      0x32\n        /* \"#utility.yul\":16935:16936   */\n      0x04\n        /* \"#utility.yul\":16928:16943   */\n      mstore\n        /* \"#utility.yul\":16962:16966   */\n      0x24\n        /* \"#utility.yul\":16959:16960   */\n      0x00\n        /* \"#utility.yul\":16952:16967   */\n      revert\n        /* \"#utility.yul\":16979:17146   */\n    tag_311:\n        /* \"#utility.yul\":17119:17138   */\n      0x4e6f74206120746f6b656e206f776e6572000000000000000000000000000000\n        /* \"#utility.yul\":17115:17116   */\n      0x00\n        /* \"#utility.yul\":17107:17113   */\n      dup3\n        /* \"#utility.yul\":17103:17117   */\n      add\n        /* \"#utility.yul\":17096:17139   */\n      mstore\n        /* \"#utility.yul\":16979:17146   */\n      pop\n      jump\t// out\n        /* \"#utility.yul\":17152:17518   */\n    tag_312:\n        /* \"#utility.yul\":17294:17297   */\n      0x00\n        /* \"#utility.yul\":17315:17382   */\n      tag_516\n        /* \"#utility.yul\":17379:17381   */\n      0x11\n        /* \"#utility.yul\":17374:17377   */\n      dup4\n        /* \"#utility.yul\":17315:17382   */\n      tag_304\n      jump\t// in\n    tag_516:\n        /* \"#utility.yul\":17308:17382   */\n      swap2\n      pop\n        /* \"#utility.yul\":17391:17484   */\n      tag_517\n        /* \"#utility.yul\":17480:17483   */\n      dup3\n        /* \"#utility.yul\":17391:17484   */\n      tag_311\n      jump\t// in\n    tag_517:\n        /* \"#utility.yul\":17509:17511   */\n      0x20\n        /* \"#utility.yul\":17504:17507   */\n      dup3\n        /* \"#utility.yul\":17500:17512   */\n      add\n        /* \"#utility.yul\":17493:17512   */\n      swap1\n      pop\n        /* \"#utility.yul\":17152:17518   */\n      swap2\n      swap1\n      pop\n      jump\t// out\n        /* \"#utility.yul\":17524:17943   */\n    tag_91:\n        /* \"#utility.yul\":17690:17694   */\n      0x00\n        /* \"#utility.yul\":17728:17730   */\n      0x20\n        /* \"#utility.yul\":17717:17726   */\n      dup3\n        /* \"#utility.yul\":17713:17731   */\n      add\n        /* \"#utility.yul\":17705:17731   */\n      swap1\n      pop\n        /* \"#utility.yul\":17777:17786   */\n      dup2\n        /* \"#utility.yul\":17771:17775   */\n      dup2\n        /* \"#utility.yul\":17767:17787   */\n      sub\n        /* \"#utility.yul\":17763:17764   */\n      0x00\n        /* \"#utility.yul\":17752:17761   */\n      dup4\n        /* \"#utility.yul\":17748:17765   */\n      add\n        /* \"#utility.yul\":17741:17788   */\n      mstore\n        /* \"#utility.yul\":17805:17936   */\n      tag_519\n        /* \"#utility.yul\":17931:17935   */\n      dup2\n        /* \"#utility.yul\":17805:17936   */\n      tag_312\n      jump\t// in\n    tag_519:\n        /* \"#utility.yul\":17797:17936   */\n      swap1\n      pop\n        /* \"#utility.yul\":17524:17943   */\n      swap2\n      swap1\n      pop\n      jump\t// out\n        /* \"#utility.yul\":17949:18129   */\n    tag_313:\n        /* \"#utility.yul\":17997:18074   */\n      0x4e487b7100000000000000000000000000000000000000000000000000000000\n        /* \"#utility.yul\":17994:17995   */\n      0x00\n        /* \"#utility.yul\":17987:18075   */\n      mstore\n        /* \"#utility.yul\":18094:18098   */\n      0x11\n        /* \"#utility.yul\":18091:18092   */\n      0x04\n        /* \"#utility.yul\":18084:18099   */\n      mstore\n        /* \"#utility.yul\":18118:18122   */\n      0x24\n        /* \"#utility.yul\":18115:18116   */\n      0x00\n        /* \"#utility.yul\":18108:18123   */\n      revert\n        /* \"#utility.yul\":18135:18326   */\n    tag_93:\n        /* \"#utility.yul\":18175:18178   */\n      0x00\n        /* \"#utility.yul\":18194:18214   */\n      tag_522\n        /* \"#utility.yul\":18212:18213   */\n      dup3\n        /* \"#utility.yul\":18194:18214   */\n      tag_278\n      jump\t// in\n    tag_522:\n        /* \"#utility.yul\":18189:18214   */\n      swap2\n      pop\n        /* \"#utility.yul\":18228:18248   */\n      tag_523\n        /* \"#utility.yul\":18246:18247   */\n      dup4\n        /* \"#utility.yul\":18228:18248   */\n      tag_278\n      jump\t// in\n    tag_523:\n        /* \"#utility.yul\":18223:18248   */\n      swap3\n      pop\n        /* \"#utility.yul\":18271:18272   */\n      dup3\n        /* \"#utility.yul\":18268:18269   */\n      dup3\n        /* \"#utility.yul\":18264:18273   */\n      add\n        /* \"#utility.yul\":18257:18273   */\n      swap1\n      pop\n        /* \"#utility.yul\":18292:18295   */\n      dup1\n        /* \"#utility.yul\":18289:18290   */\n      dup3\n        /* \"#utility.yul\":18286:18296   */\n      gt\n        /* \"#utility.yul\":18283:18319   */\n      iszero\n      tag_524\n      jumpi\n        /* \"#utility.yul\":18299:18317   */\n      tag_525\n      tag_313\n      jump\t// in\n    tag_525:\n        /* \"#utility.yul\":18283:18319   */\n    tag_524:\n        /* \"#utility.yul\":18135:18326   */\n      swap3\n      swap2\n      pop\n      pop\n      jump\t// out\n        /* \"#utility.yul\":18332:18503   */\n    tag_314:\n        /* \"#utility.yul\":18472:18495   */\n      0x4e6f742061626c6520746f20636c61696d207965740000000000000000000000\n        /* \"#utility.yul\":18468:18469   */\n      0x00\n        /* \"#utility.yul\":18460:18466   */\n      dup3\n        /* \"#utility.yul\":18456:18470   */\n      add\n        /* \"#utility.yul\":18449:18496   */\n      mstore\n        /* \"#utility.yul\":18332:18503   */\n      pop\n      jump\t// out\n        /* \"#utility.yul\":18509:18875   */\n    tag_315:\n        /* \"#utility.yul\":18651:18654   */\n      0x00\n        /* \"#utility.yul\":18672:18739   */\n      tag_528\n        /* \"#utility.yul\":18736:18738   */\n      0x15\n        /* \"#utility.yul\":18731:18734   */\n      dup4\n        /* \"#utility.yul\":18672:18739   */\n      tag_304\n      jump\t// in\n    tag_528:\n        /* \"#utility.yul\":18665:18739   */\n      swap2\n      pop\n        /* \"#utility.yul\":18748:18841   */\n      tag_529\n        /* \"#utility.yul\":18837:18840   */\n      dup3\n        /* \"#utility.yul\":18748:18841   */\n      tag_314\n      jump\t// in\n    tag_529:\n        /* \"#utility.yul\":18866:18868   */\n      0x20\n        /* \"#utility.yul\":18861:18864   */\n      dup3\n        /* \"#utility.yul\":18857:18869   */\n      add\n        /* \"#utility.yul\":18850:18869   */\n      swap1\n      pop\n        /* \"#utility.yul\":18509:18875   */\n      swap2\n      swap1\n      pop\n      jump\t// out\n        /* \"#utility.yul\":18881:19300   */\n    tag_96:\n        /* \"#utility.yul\":19047:19051   */\n      0x00\n        /* \"#utility.yul\":19085:19087   */\n      0x20\n        /* \"#utility.yul\":19074:19083   */\n      dup3\n        /* \"#utility.yul\":19070:19088   */\n      add\n        /* \"#utility.yul\":19062:19088   */\n      swap1\n      pop\n        /* \"#utility.yul\":19134:19143   */\n      dup2\n        /* \"#utility.yul\":19128:19132   */\n      dup2\n        /* \"#utility.yul\":19124:19144   */\n      sub\n        /* \"#utility.yul\":19120:19121   */\n      0x00\n        /* \"#utility.yul\":19109:19118   */\n      dup4\n        /* \"#utility.yul\":19105:19122   */\n      add\n        /* \"#utility.yul\":19098:19145   */\n      mstore\n        /* \"#utility.yul\":19162:19293   */\n      tag_531\n        /* \"#utility.yul\":19288:19292   */\n      dup2\n        /* \"#utility.yul\":19162:19293   */\n      tag_315\n      jump\t// in\n    tag_531:\n        /* \"#utility.yul\":19154:19293   */\n      swap1\n      pop\n        /* \"#utility.yul\":18881:19300   */\n      swap2\n      swap1\n      pop\n      jump\t// out\n        /* \"#utility.yul\":19306:19472   */\n    tag_316:\n        /* \"#utility.yul\":19446:19464   */\n      0x416c726561647920756e6c6f636b656400000000000000000000000000000000\n        /* \"#utility.yul\":19442:19443   */\n      0x00\n        /* \"#utility.yul\":19434:19440   */\n      dup3\n        /* \"#utility.yul\":19430:19444   */\n      add\n        /* \"#utility.yul\":19423:19465   */\n      mstore\n        /* \"#utility.yul\":19306:19472   */\n      pop\n      jump\t// out\n        /* \"#utility.yul\":19478:19844   */\n    tag_317:\n        /* \"#utility.yul\":19620:19623   */\n      0x00\n        /* \"#utility.yul\":19641:19708   */\n      tag_534\n        /* \"#utility.yul\":19705:19707   */\n      0x10\n        /* \"#utility.yul\":19700:19703   */\n      dup4\n        /* \"#utility.yul\":19641:19708   */\n      tag_304\n      jump\t// in\n    tag_534:\n        /* \"#utility.yul\":19634:19708   */\n      swap2\n      pop\n        /* \"#utility.yul\":19717:19810   */\n      tag_535\n        /* \"#utility.yul\":19806:19809   */\n      dup3\n        /* \"#utility.yul\":19717:19810   */\n      tag_316\n      jump\t// in\n    tag_535:\n        /* \"#utility.yul\":19835:19837   */\n      0x20\n        /* \"#utility.yul\":19830:19833   */\n      dup3\n        /* \"#utility.yul\":19826:19838   */\n      add\n        /* \"#utility.yul\":19819:19838   */\n      swap1\n      pop\n        /* \"#utility.yul\":19478:19844   */\n      swap2\n      swap1\n      pop\n      jump\t// out\n        /* \"#utility.yul\":19850:20269   */\n    tag_99:\n        /* \"#utility.yul\":20016:20020   */\n      0x00\n        /* \"#utility.yul\":20054:20056   */\n      0x20\n        /* \"#utility.yul\":20043:20052   */\n      dup3\n        /* \"#utility.yul\":20039:20057   */\n      add\n        /* \"#utility.yul\":20031:20057   */\n      swap1\n      pop\n        /* \"#utility.yul\":20103:20112   */\n      dup2\n        /* \"#utility.yul\":20097:20101   */\n      dup2\n        /* \"#utility.yul\":20093:20113   */\n      sub\n        /* \"#utility.yul\":20089:20090   */\n      0x00\n        /* \"#utility.yul\":20078:20087   */\n      dup4\n        /* \"#utility.yul\":20074:20091   */\n      add\n        /* \"#utility.yul\":20067:20114   */\n      mstore\n        /* \"#utility.yul\":20131:20262   */\n      tag_537\n        /* \"#utility.yul\":20257:20261   */\n      dup2\n        /* \"#utility.yul\":20131:20262   */\n      tag_317\n      jump\t// in\n    tag_537:\n        /* \"#utility.yul\":20123:20262   */\n      swap1\n      pop\n        /* \"#utility.yul\":19850:20269   */\n      swap2\n      swap1\n      pop\n      jump\t// out\n        /* \"#utility.yul\":20275:20469   */\n    tag_105:\n        /* \"#utility.yul\":20315:20319   */\n      0x00\n        /* \"#utility.yul\":20335:20355   */\n      tag_539\n        /* \"#utility.yul\":20353:20354   */\n      dup3\n        /* \"#utility.yul\":20335:20355   */\n      tag_278\n      jump\t// in\n    tag_539:\n        /* \"#utility.yul\":20330:20355   */\n      swap2\n      pop\n        /* \"#utility.yul\":20369:20389   */\n      tag_540\n        /* \"#utility.yul\":20387:20388   */\n      dup4\n        /* \"#utility.yul\":20369:20389   */\n      tag_278\n      jump\t// in\n    tag_540:\n        /* \"#utility.yul\":20364:20389   */\n      swap3\n      pop\n        /* \"#utility.yul\":20413:20414   */\n      dup3\n        /* \"#utility.yul\":20410:20411   */\n      dup3\n        /* \"#utility.yul\":20406:20415   */\n      sub\n        /* \"#utility.yul\":20398:20415   */\n      swap1\n      pop\n        /* \"#utility.yul\":20437:20438   */\n      dup2\n        /* \"#utility.yul\":20431:20435   */\n      dup2\n        /* \"#utility.yul\":20428:20439   */\n      gt\n        /* \"#utility.yul\":20425:20462   */\n      iszero\n      tag_541\n      jumpi\n        /* \"#utility.yul\":20442:20460   */\n      tag_542\n      tag_313\n      jump\t// in\n    tag_542:\n        /* \"#utility.yul\":20425:20462   */\n    tag_541:\n        /* \"#utility.yul\":20275:20469   */\n      swap3\n      swap2\n      pop\n      pop\n      jump\t// out\n        /* \"#utility.yul\":20475:20807   */\n    tag_107:\n        /* \"#utility.yul\":20596:20600   */\n      0x00\n        /* \"#utility.yul\":20634:20636   */\n      0x40\n        /* \"#utility.yul\":20623:20632   */\n      dup3\n        /* \"#utility.yul\":20619:20637   */\n      add\n        /* \"#utility.yul\":20611:20637   */\n      swap1\n      pop\n        /* \"#utility.yul\":20647:20718   */\n      tag_544\n        /* \"#utility.yul\":20715:20716   */\n      0x00\n        /* \"#utility.yul\":20704:20713   */\n      dup4\n        /* \"#utility.yul\":20700:20717   */\n      add\n        /* \"#utility.yul\":20691:20697   */\n      dup6\n        /* \"#utility.yul\":20647:20718   */\n      tag_280\n      jump\t// in\n    tag_544:\n        /* \"#utility.yul\":20728:20800   */\n      tag_545\n        /* \"#utility.yul\":20796:20798   */\n      0x20\n        /* \"#utility.yul\":20785:20794   */\n      dup4\n        /* \"#utility.yul\":20781:20799   */\n      add\n        /* \"#utility.yul\":20772:20778   */\n      dup5\n        /* \"#utility.yul\":20728:20800   */\n      tag_279\n      jump\t// in\n    tag_545:\n        /* \"#utility.yul\":20475:20807   */\n      swap4\n      swap3\n      pop\n      pop\n      pop\n      jump\t// out\n        /* \"#utility.yul\":20813:21046   */\n    tag_115:\n        /* \"#utility.yul\":20852:20855   */\n      0x00\n        /* \"#utility.yul\":20875:20899   */\n      tag_547\n        /* \"#utility.yul\":20893:20898   */\n      dup3\n        /* \"#utility.yul\":20875:20899   */\n      tag_278\n      jump\t// in\n    tag_547:\n        /* \"#utility.yul\":20866:20899   */\n      swap2\n      pop\n        /* \"#utility.yul\":20921:20987   */\n      0xffffffffffffffffffffffffffffffffffffffffffffffffffffffffffffffff\n        /* \"#utility.yul\":20914:20919   */\n      dup3\n        /* \"#utility.yul\":20911:20988   */\n      sub\n        /* \"#utility.yul\":20908:21011   */\n      tag_548\n      jumpi\n        /* \"#utility.yul\":20991:21009   */\n      tag_549\n      tag_313\n      jump\t// in\n    tag_549:\n        /* \"#utility.yul\":20908:21011   */\n    tag_548:\n        /* \"#utility.yul\":21038:21039   */\n      0x01\n        /* \"#utility.yul\":21031:21036   */\n      dup3\n        /* \"#utility.yul\":21027:21040   */\n      add\n        /* \"#utility.yul\":21020:21040   */\n      swap1\n      pop\n        /* \"#utility.yul\":20813:21046   */\n      swap2\n      swap1\n      pop\n      jump\t// out\n        /* \"#utility.yul\":21052:21236   */\n    tag_318:\n        /* \"#utility.yul\":21151:21162   */\n      0x00\n        /* \"#utility.yul\":21185:21191   */\n      dup3\n        /* \"#utility.yul\":21180:21183   */\n      dup3\n        /* \"#utility.yul\":21173:21192   */\n      mstore\n        /* \"#utility.yul\":21225:21229   */\n      0x20\n        /* \"#utility.yul\":21220:21223   */\n      dup3\n        /* \"#utility.yul\":21216:21230   */\n      add\n        /* \"#utility.yul\":21201:21230   */\n      swap1\n      pop\n        /* \"#utility.yul\":21052:21236   */\n      swap3\n      swap2\n      pop\n      pop\n      jump\t// out\n        /* \"#utility.yul\":21242:21359   */\n    tag_319:\n        /* \"#utility.yul\":21351:21352   */\n      0x00\n        /* \"#utility.yul\":21348:21349   */\n      dup1\n        /* \"#utility.yul\":21341:21353   */\n      revert\n        /* \"#utility.yul\":21365:21463   */\n    tag_320:\n        /* \"#utility.yul\":21449:21455   */\n      dup3\n        /* \"#utility.yul\":21444:21447   */\n      dup2\n        /* \"#utility.yul\":21439:21442   */\n      dup4\n        /* \"#utility.yul\":21426:21456   */\n      calldatacopy\n        /* \"#utility.yul\":21365:21463   */\n      pop\n      pop\n      pop\n      jump\t// out\n        /* \"#utility.yul\":21499:22036   */\n    tag_321:\n        /* \"#utility.yul\":21627:21630   */\n      0x00\n        /* \"#utility.yul\":21648:21734   */\n      tag_554\n        /* \"#utility.yul\":21727:21733   */\n      dup4\n        /* \"#utility.yul\":21722:21725   */\n      dup6\n        /* \"#utility.yul\":21648:21734   */\n      tag_318\n      jump\t// in\n    tag_554:\n        /* \"#utility.yul\":21641:21734   */\n      swap4\n      pop\n        /* \"#utility.yul\":21758:21824   */\n      0x07ffffffffffffffffffffffffffffffffffffffffffffffffffffffffffffff\n        /* \"#utility.yul\":21750:21756   */\n      dup4\n        /* \"#utility.yul\":21747:21825   */\n      gt\n        /* \"#utility.yul\":21744:21909   */\n      iszero\n      tag_555\n      jumpi\n        /* \"#utility.yul\":21828:21907   */\n      tag_556\n      tag_319\n      jump\t// in\n    tag_556:\n        /* \"#utility.yul\":21744:21909   */\n    tag_555:\n        /* \"#utility.yul\":21940:21944   */\n      0x20\n        /* \"#utility.yul\":21932:21938   */\n      dup4\n        /* \"#utility.yul\":21928:21945   */\n      mul\n        /* \"#utility.yul\":21918:21945   */\n      swap3\n      pop\n        /* \"#utility.yul\":21955:21998   */\n      tag_557\n        /* \"#utility.yul\":21991:21997   */\n      dup4\n        /* \"#utility.yul\":21986:21989   */\n      dup6\n        /* \"#utility.yul\":21979:21984   */\n      dup5\n        /* \"#utility.yul\":21955:21998   */\n      tag_320\n      jump\t// in\n    tag_557:\n        /* \"#utility.yul\":22023:22029   */\n      dup3\n        /* \"#utility.yul\":22018:22021   */\n      dup5\n        /* \"#utility.yul\":22014:22030   */\n      add\n        /* \"#utility.yul\":22007:22030   */\n      swap1\n      pop\n        /* \"#utility.yul\":21499:22036   */\n      swap4\n      swap3\n      pop\n      pop\n      pop\n      jump\t// out\n        /* \"#utility.yul\":22042:22545   */\n    tag_117:\n        /* \"#utility.yul\":22223:22227   */\n      0x00\n        /* \"#utility.yul\":22261:22263   */\n      0x40\n        /* \"#utility.yul\":22250:22259   */\n      dup3\n        /* \"#utility.yul\":22246:22264   */\n      add\n        /* \"#utility.yul\":22238:22264   */\n      swap1\n      pop\n        /* \"#utility.yul\":22310:22319   */\n      dup2\n        /* \"#utility.yul\":22304:22308   */\n      dup2\n        /* \"#utility.yul\":22300:22320   */\n      sub\n        /* \"#utility.yul\":22296:22297   */\n      0x00\n        /* \"#utility.yul\":22285:22294   */\n      dup4\n        /* \"#utility.yul\":22281:22298   */\n      add\n        /* \"#utility.yul\":22274:22321   */\n      mstore\n        /* \"#utility.yul\":22338:22456   */\n      tag_559\n        /* \"#utility.yul\":22451:22455   */\n      dup2\n        /* \"#utility.yul\":22442:22448   */\n      dup6\n        /* \"#utility.yul\":22434:22440   */\n      dup8\n        /* \"#utility.yul\":22338:22456   */\n      tag_321\n      jump\t// in\n    tag_559:\n        /* \"#utility.yul\":22330:22456   */\n      swap1\n      pop\n        /* \"#utility.yul\":22466:22538   */\n      tag_560\n        /* \"#utility.yul\":22534:22536   */\n      0x20\n        /* \"#utility.yul\":22523:22532   */\n      dup4\n        /* \"#utility.yul\":22519:22537   */\n      add\n        /* \"#utility.yul\":22510:22516   */\n      dup5\n        /* \"#utility.yul\":22466:22538   */\n      tag_279\n      jump\t// in\n    tag_560:\n        /* \"#utility.yul\":22042:22545   */\n      swap5\n      swap4\n      pop\n      pop\n      pop\n      pop\n      jump\t// out\n        /* \"#utility.yul\":22551:22732   */\n    tag_322:\n        /* \"#utility.yul\":22691:22724   */\n      0x5265656e7472616e637947756172643a207265656e7472616e742063616c6c00\n        /* \"#utility.yul\":22687:22688   */\n      0x00\n        /* \"#utility.yul\":22679:22685   */\n      dup3\n        /* \"#utility.yul\":22675:22689   */\n      add\n        /* \"#utility.yul\":22668:22725   */\n      mstore\n        /* \"#utility.yul\":22551:22732   */\n      pop\n      jump\t// out\n        /* \"#utility.yul\":22738:23104   */\n    tag_323:\n        /* \"#utility.yul\":22880:22883   */\n      0x00\n        /* \"#utility.yul\":22901:22968   */\n      tag_563\n        /* \"#utility.yul\":22965:22967   */\n      0x1f\n        /* \"#utility.yul\":22960:22963   */\n      dup4\n        /* \"#utility.yul\":22901:22968   */\n      tag_304\n      jump\t// in\n    tag_563:\n        /* \"#utility.yul\":22894:22968   */\n      swap2\n      pop\n        /* \"#utility.yul\":22977:23070   */\n      tag_564\n        /* \"#utility.yul\":23066:23069   */\n      dup3\n        /* \"#utility.yul\":22977:23070   */\n      tag_322\n      jump\t// in\n    tag_564:\n        /* \"#utility.yul\":23095:23097   */\n      0x20\n        /* \"#utility.yul\":23090:23093   */\n      dup3\n        /* \"#utility.yul\":23086:23098   */\n      add\n        /* \"#utility.yul\":23079:23098   */\n      swap1\n      pop\n        /* \"#utility.yul\":22738:23104   */\n      swap2\n      swap1\n      pop\n      jump\t// out\n        /* \"#utility.yul\":23110:23529   */\n    tag_127:\n        /* \"#utility.yul\":23276:23280   */\n      0x00\n        /* \"#utility.yul\":23314:23316   */\n      0x20\n        /* \"#utility.yul\":23303:23312   */\n      dup3\n        /* \"#utility.yul\":23299:23317   */\n      add\n        /* \"#utility.yul\":23291:23317   */\n      swap1\n      pop\n        /* \"#utility.yul\":23363:23372   */\n      dup2\n        /* \"#utility.yul\":23357:23361   */\n      dup2\n        /* \"#utility.yul\":23353:23373   */\n      sub\n        /* \"#utility.yul\":23349:23350   */\n      0x00\n        /* \"#utility.yul\":23338:23347   */\n      dup4\n        /* \"#utility.yul\":23334:23351   */\n      add\n        /* \"#utility.yul\":23327:23374   */\n      mstore\n        /* \"#utility.yul\":23391:23522   */\n      tag_566\n        /* \"#utility.yul\":23517:23521   */\n      dup2\n        /* \"#utility.yul\":23391:23522   */\n      tag_323\n      jump\t// in\n    tag_566:\n        /* \"#utility.yul\":23383:23522   */\n      swap1\n      pop\n        /* \"#utility.yul\":23110:23529   */\n      swap2\n      swap1\n      pop\n      jump\t// out\n        /* \"#utility.yul\":23535:23768   */\n    tag_324:\n        /* \"#utility.yul\":23675:23709   */\n      0x5374616b696e673a20526567697374657220636f6c6c656374696f6e20627920\n        /* \"#utility.yul\":23671:23672   */\n      0x00\n        /* \"#utility.yul\":23663:23669   */\n      dup3\n        /* \"#utility.yul\":23659:23673   */\n      add\n        /* \"#utility.yul\":23652:23710   */\n      mstore\n        /* \"#utility.yul\":23744:23760   */\n      0x6164645374616b696e674e667473000000000000000000000000000000000000\n        /* \"#utility.yul\":23739:23741   */\n      0x20\n        /* \"#utility.yul\":23731:23737   */\n      dup3\n        /* \"#utility.yul\":23727:23742   */\n      add\n        /* \"#utility.yul\":23720:23761   */\n      mstore\n        /* \"#utility.yul\":23535:23768   */\n      pop\n      jump\t// out\n        /* \"#utility.yul\":23774:24140   */\n    tag_325:\n        /* \"#utility.yul\":23916:23919   */\n      0x00\n        /* \"#utility.yul\":23937:24004   */\n      tag_569\n        /* \"#utility.yul\":24001:24003   */\n      0x2e\n        /* \"#utility.yul\":23996:23999   */\n      dup4\n        /* \"#utility.yul\":23937:24004   */\n      tag_304\n      jump\t// in\n    tag_569:\n        /* \"#utility.yul\":23930:24004   */\n      swap2\n      pop\n        /* \"#utility.yul\":24013:24106   */\n      tag_570\n        /* \"#utility.yul\":24102:24105   */\n      dup3\n        /* \"#utility.yul\":24013:24106   */\n      tag_324\n      jump\t// in\n    tag_570:\n        /* \"#utility.yul\":24131:24133   */\n      0x40\n        /* \"#utility.yul\":24126:24129   */\n      dup3\n        /* \"#utility.yul\":24122:24134   */\n      add\n        /* \"#utility.yul\":24115:24134   */\n      swap1\n      pop\n        /* \"#utility.yul\":23774:24140   */\n      swap2\n      swap1\n      pop\n      jump\t// out\n        /* \"#utility.yul\":24146:24565   */\n    tag_131:\n        /* \"#utility.yul\":24312:24316   */\n      0x00\n        /* \"#utility.yul\":24350:24352   */\n      0x20\n        /* \"#utility.yul\":24339:24348   */\n      dup3\n        /* \"#utility.yul\":24335:24353   */\n      add\n        /* \"#utility.yul\":24327:24353   */\n      swap1\n      pop\n        /* \"#utility.yul\":24399:24408   */\n      dup2\n        /* \"#utility.yul\":24393:24397   */\n      dup2\n        /* \"#utility.yul\":24389:24409   */\n      sub\n        /* \"#utility.yul\":24385:24386   */\n      0x00\n        /* \"#utility.yul\":24374:24383   */\n      dup4\n        /* \"#utility.yul\":24370:24387   */\n      add\n        /* \"#utility.yul\":24363:24410   */\n      mstore\n        /* \"#utility.yul\":24427:24558   */\n      tag_572\n        /* \"#utility.yul\":24553:24557   */\n      dup2\n        /* \"#utility.yul\":24427:24558   */\n      tag_325\n      jump\t// in\n    tag_572:\n        /* \"#utility.yul\":24419:24558   */\n      swap1\n      pop\n        /* \"#utility.yul\":24146:24565   */\n      swap2\n      swap1\n      pop\n      jump\t// out\n        /* \"#utility.yul\":24571:24714   */\n    tag_326:\n        /* \"#utility.yul\":24628:24633   */\n      0x00\n        /* \"#utility.yul\":24659:24665   */\n      dup2\n        /* \"#utility.yul\":24653:24666   */\n      mload\n        /* \"#utility.yul\":24644:24666   */\n      swap1\n      pop\n        /* \"#utility.yul\":24675:24708   */\n      tag_574\n        /* \"#utility.yul\":24702:24707   */\n      dup2\n        /* \"#utility.yul\":24675:24708   */\n      tag_297\n      jump\t// in\n    tag_574:\n        /* \"#utility.yul\":24571:24714   */\n      swap3\n      swap2\n      pop\n      pop\n      jump\t// out\n        /* \"#utility.yul\":24720:25071   */\n    tag_143:\n        /* \"#utility.yul\":24790:24796   */\n      0x00\n        /* \"#utility.yul\":24839:24841   */\n      0x20\n        /* \"#utility.yul\":24827:24836   */\n      dup3\n        /* \"#utility.yul\":24818:24825   */\n      dup5\n        /* \"#utility.yul\":24814:24837   */\n      sub\n        /* \"#utility.yul\":24810:24842   */\n      slt\n        /* \"#utility.yul\":24807:24926   */\n      iszero\n      tag_576\n      jumpi\n        /* \"#utility.yul\":24845:24924   */\n      tag_577\n      tag_267\n      jump\t// in\n    tag_577:\n        /* \"#utility.yul\":24807:24926   */\n    tag_576:\n        /* \"#utility.yul\":24965:24966   */\n      0x00\n        /* \"#utility.yul\":24990:25054   */\n      tag_578\n        /* \"#utility.yul\":25046:25053   */\n      dup5\n        /* \"#utility.yul\":25037:25043   */\n      dup3\n        /* \"#utility.yul\":25026:25035   */\n      dup6\n        /* \"#utility.yul\":25022:25044   */\n      add\n        /* \"#utility.yul\":24990:25054   */\n      tag_326\n      jump\t// in\n    tag_578:\n        /* \"#utility.yul\":24980:25054   */\n      swap2\n      pop\n        /* \"#utility.yul\":24936:25064   */\n      pop\n        /* \"#utility.yul\":24720:25071   */\n      swap3\n      swap2\n      pop\n      pop\n      jump\t// out\n        /* \"#utility.yul\":25077:25252   */\n    tag_327:\n        /* \"#utility.yul\":25217:25244   */\n      0x596f7520646f6e277420686f6c64207468697320746f6b656e00000000000000\n        /* \"#utility.yul\":25213:25214   */\n      0x00\n        /* \"#utility.yul\":25205:25211   */\n      dup3\n        /* \"#utility.yul\":25201:25215   */\n      add\n        /* \"#utility.yul\":25194:25245   */\n      mstore\n        /* \"#utility.yul\":25077:25252   */\n      pop\n      jump\t// out\n        /* \"#utility.yul\":25258:25624   */\n    tag_328:\n        /* \"#utility.yul\":25400:25403   */\n      0x00\n        /* \"#utility.yul\":25421:25488   */\n      tag_581\n        /* \"#utility.yul\":25485:25487   */\n      0x19\n        /* \"#utility.yul\":25480:25483   */\n      dup4\n        /* \"#utility.yul\":25421:25488   */\n      tag_304\n      jump\t// in\n    tag_581:\n        /* \"#utility.yul\":25414:25488   */\n      swap2\n      pop\n        /* \"#utility.yul\":25497:25590   */\n      tag_582\n        /* \"#utility.yul\":25586:25589   */\n      dup3\n        /* \"#utility.yul\":25497:25590   */\n      tag_327\n      jump\t// in\n    tag_582:\n        /* \"#utility.yul\":25615:25617   */\n      0x20\n        /* \"#utility.yul\":25610:25613   */\n      dup3\n        /* \"#utility.yul\":25606:25618   */\n      add\n        /* \"#utility.yul\":25599:25618   */\n      swap1\n      pop\n        /* \"#utility.yul\":25258:25624   */\n      swap2\n      swap1\n      pop\n      jump\t// out\n        /* \"#utility.yul\":25630:26049   */\n    tag_146:\n        /* \"#utility.yul\":25796:25800   */\n      0x00\n        /* \"#utility.yul\":25834:25836   */\n      0x20\n        /* \"#utility.yul\":25823:25832   */\n      dup3\n        /* \"#utility.yul\":25819:25837   */\n      add\n        /* \"#utility.yul\":25811:25837   */\n      swap1\n      pop\n        /* \"#utility.yul\":25883:25892   */\n      dup2\n        /* \"#utility.yul\":25877:25881   */\n      dup2\n        /* \"#utility.yul\":25873:25893   */\n      sub\n        /* \"#utility.yul\":25869:25870   */\n      0x00\n        /* \"#utility.yul\":25858:25867   */\n      dup4\n        /* \"#utility.yul\":25854:25871   */\n      add\n        /* \"#utility.yul\":25847:25894   */\n      mstore\n        /* \"#utility.yul\":25911:26042   */\n      tag_584\n        /* \"#utility.yul\":26037:26041   */\n      dup2\n        /* \"#utility.yul\":25911:26042   */\n      tag_328\n      jump\t// in\n    tag_584:\n        /* \"#utility.yul\":25903:26042   */\n      swap1\n      pop\n        /* \"#utility.yul\":25630:26049   */\n      swap2\n      swap1\n      pop\n      jump\t// out\n        /* \"#utility.yul\":26055:26497   */\n    tag_150:\n        /* \"#utility.yul\":26204:26208   */\n      0x00\n        /* \"#utility.yul\":26242:26244   */\n      0x60\n        /* \"#utility.yul\":26231:26240   */\n      dup3\n        /* \"#utility.yul\":26227:26245   */\n      add\n        /* \"#utility.yul\":26219:26245   */\n      swap1\n      pop\n        /* \"#utility.yul\":26255:26326   */\n      tag_586\n        /* \"#utility.yul\":26323:26324   */\n      0x00\n        /* \"#utility.yul\":26312:26321   */\n      dup4\n        /* \"#utility.yul\":26308:26325   */\n      add\n        /* \"#utility.yul\":26299:26305   */\n      dup7\n        /* \"#utility.yul\":26255:26326   */\n      tag_280\n      jump\t// in\n    tag_586:\n        /* \"#utility.yul\":26336:26408   */\n      tag_587\n        /* \"#utility.yul\":26404:26406   */\n      0x20\n        /* \"#utility.yul\":26393:26402   */\n      dup4\n        /* \"#utility.yul\":26389:26407   */\n      add\n        /* \"#utility.yul\":26380:26386   */\n      dup6\n        /* \"#utility.yul\":26336:26408   */\n      tag_280\n      jump\t// in\n    tag_587:\n        /* \"#utility.yul\":26418:26490   */\n      tag_588\n        /* \"#utility.yul\":26486:26488   */\n      0x40\n        /* \"#utility.yul\":26475:26484   */\n      dup4\n        /* \"#utility.yul\":26471:26489   */\n      add\n        /* \"#utility.yul\":26462:26468   */\n      dup5\n        /* \"#utility.yul\":26418:26490   */\n      tag_279\n      jump\t// in\n    tag_588:\n        /* \"#utility.yul\":26055:26497   */\n      swap5\n      swap4\n      pop\n      pop\n      pop\n      pop\n      jump\t// out\n        /* \"#utility.yul\":26503:26896   */\n    tag_158:\n        /* \"#utility.yul\":26656:26660   */\n      0x00\n        /* \"#utility.yul\":26694:26696   */\n      0x20\n        /* \"#utility.yul\":26683:26692   */\n      dup3\n        /* \"#utility.yul\":26679:26697   */\n      add\n        /* \"#utility.yul\":26671:26697   */\n      swap1\n      pop\n        /* \"#utility.yul\":26743:26752   */\n      dup2\n        /* \"#utility.yul\":26737:26741   */\n      dup2\n        /* \"#utility.yul\":26733:26753   */\n      sub\n        /* \"#utility.yul\":26729:26730   */\n      0x00\n        /* \"#utility.yul\":26718:26727   */\n      dup4\n        /* \"#utility.yul\":26714:26731   */\n      add\n        /* \"#utility.yul\":26707:26754   */\n      mstore\n        /* \"#utility.yul\":26771:26889   */\n      tag_590\n        /* \"#utility.yul\":26884:26888   */\n      dup2\n        /* \"#utility.yul\":26875:26881   */\n      dup5\n        /* \"#utility.yul\":26867:26873   */\n      dup7\n        /* \"#utility.yul\":26771:26889   */\n      tag_321\n      jump\t// in\n    tag_590:\n        /* \"#utility.yul\":26763:26889   */\n      swap1\n      pop\n        /* \"#utility.yul\":26503:26896   */\n      swap4\n      swap3\n      pop\n      pop\n      pop\n      jump\t// out\n        /* \"#utility.yul\":26902:27074   */\n    tag_329:\n        /* \"#utility.yul\":27042:27066   */\n      0x4e6f742061626c6520746f20756e6c6f636b2079657400000000000000000000\n        /* \"#utility.yul\":27038:27039   */\n      0x00\n        /* \"#utility.yul\":27030:27036   */\n      dup3\n        /* \"#utility.yul\":27026:27040   */\n      add\n        /* \"#utility.yul\":27019:27067   */\n      mstore\n        /* \"#utility.yul\":26902:27074   */\n      pop\n      jump\t// out\n        /* \"#utility.yul\":27080:27446   */\n    tag_330:\n        /* \"#utility.yul\":27222:27225   */\n      0x00\n        /* \"#utility.yul\":27243:27310   */\n      tag_593\n        /* \"#utility.yul\":27307:27309   */\n      0x16\n        /* \"#utility.yul\":27302:27305   */\n      dup4\n        /* \"#utility.yul\":27243:27310   */\n      tag_304\n      jump\t// in\n    tag_593:\n        /* \"#utility.yul\":27236:27310   */\n      swap2\n      pop\n        /* \"#utility.yul\":27319:27412   */\n      tag_594\n        /* \"#utility.yul\":27408:27411   */\n      dup3\n        /* \"#utility.yul\":27319:27412   */\n      tag_329\n      jump\t// in\n    tag_594:\n        /* \"#utility.yul\":27437:27439   */\n      0x20\n        /* \"#utility.yul\":27432:27435   */\n      dup3\n        /* \"#utility.yul\":27428:27440   */\n      add\n        /* \"#utility.yul\":27421:27440   */\n      swap1\n      pop\n        /* \"#utility.yul\":27080:27446   */\n      swap2\n      swap1\n      pop\n      jump\t// out\n        /* \"#utility.yul\":27452:27871   */\n    tag_190:\n        /* \"#utility.yul\":27618:27622   */\n      0x00\n        /* \"#utility.yul\":27656:27658   */\n      0x20\n        /* \"#utility.yul\":27645:27654   */\n      dup3\n        /* \"#utility.yul\":27641:27659   */\n      add\n        /* \"#utility.yul\":27633:27659   */\n      swap1\n      pop\n        /* \"#utility.yul\":27705:27714   */\n      dup2\n        /* \"#utility.yul\":27699:27703   */\n      dup2\n        /* \"#utility.yul\":27695:27715   */\n      sub\n        /* \"#utility.yul\":27691:27692   */\n      0x00\n        /* \"#utility.yul\":27680:27689   */\n      dup4\n        /* \"#utility.yul\":27676:27693   */\n      add\n        /* \"#utility.yul\":27669:27716   */\n      mstore\n        /* \"#utility.yul\":27733:27864   */\n      tag_596\n        /* \"#utility.yul\":27859:27863   */\n      dup2\n        /* \"#utility.yul\":27733:27864   */\n      tag_330\n      jump\t// in\n    tag_596:\n        /* \"#utility.yul\":27725:27864   */\n      swap1\n      pop\n        /* \"#utility.yul\":27452:27871   */\n      swap2\n      swap1\n      pop\n      jump\t// out\n        /* \"#utility.yul\":27877:28047   */\n    tag_331:\n        /* \"#utility.yul\":28017:28039   */\n      0x496e76616c6964206c6f636b20706572696f642e000000000000000000000000\n        /* \"#utility.yul\":28013:28014   */\n      0x00\n        /* \"#utility.yul\":28005:28011   */\n      dup3\n        /* \"#utility.yul\":28001:28015   */\n      add\n        /* \"#utility.yul\":27994:28040   */\n      mstore\n        /* \"#utility.yul\":27877:28047   */\n      pop\n      jump\t// out\n        /* \"#utility.yul\":28053:28419   */\n    tag_332:\n        /* \"#utility.yul\":28195:28198   */\n      0x00\n        /* \"#utility.yul\":28216:28283   */\n      tag_599\n        /* \"#utility.yul\":28280:28282   */\n      0x14\n        /* \"#utility.yul\":28275:28278   */\n      dup4\n        /* \"#utility.yul\":28216:28283   */\n      tag_304\n      jump\t// in\n    tag_599:\n        /* \"#utility.yul\":28209:28283   */\n      swap2\n      pop\n        /* \"#utility.yul\":28292:28385   */\n      tag_600\n        /* \"#utility.yul\":28381:28384   */\n      dup3\n        /* \"#utility.yul\":28292:28385   */\n      tag_331\n      jump\t// in\n    tag_600:\n        /* \"#utility.yul\":28410:28412   */\n      0x20\n        /* \"#utility.yul\":28405:28408   */\n      dup3\n        /* \"#utility.yul\":28401:28413   */\n      add\n        /* \"#utility.yul\":28394:28413   */\n      swap1\n      pop\n        /* \"#utility.yul\":28053:28419   */\n      swap2\n      swap1\n      pop\n      jump\t// out\n        /* \"#utility.yul\":28425:28844   */\n    tag_219:\n        /* \"#utility.yul\":28591:28595   */\n      0x00\n        /* \"#utility.yul\":28629:28631   */\n      0x20\n        /* \"#utility.yul\":28618:28627   */\n      dup3\n        /* \"#utility.yul\":28614:28632   */\n      add\n        /* \"#utility.yul\":28606:28632   */\n      swap1\n      pop\n        /* \"#utility.yul\":28678:28687   */\n      dup2\n        /* \"#utility.yul\":28672:28676   */\n      dup2\n        /* \"#utility.yul\":28668:28688   */\n      sub\n        /* \"#utility.yul\":28664:28665   */\n      0x00\n        /* \"#utility.yul\":28653:28662   */\n      dup4\n        /* \"#utility.yul\":28649:28666   */\n      add\n        /* \"#utility.yul\":28642:28689   */\n      mstore\n        /* \"#utility.yul\":28706:28837   */\n      tag_602\n        /* \"#utility.yul\":28832:28836   */\n      dup2\n        /* \"#utility.yul\":28706:28837   */\n      tag_332\n      jump\t// in\n    tag_602:\n        /* \"#utility.yul\":28698:28837   */\n      swap1\n      pop\n        /* \"#utility.yul\":28425:28844   */\n      swap2\n      swap1\n      pop\n      jump\t// out\n        /* \"#utility.yul\":28850:29075   */\n    tag_333:\n        /* \"#utility.yul\":28990:29024   */\n      0x4f776e61626c653a206e6577206f776e657220697320746865207a65726f2061\n        /* \"#utility.yul\":28986:28987   */\n      0x00\n        /* \"#utility.yul\":28978:28984   */\n      dup3\n        /* \"#utility.yul\":28974:28988   */\n      add\n        /* \"#utility.yul\":28967:29025   */\n      mstore\n        /* \"#utility.yul\":29059:29067   */\n      0x6464726573730000000000000000000000000000000000000000000000000000\n        /* \"#utility.yul\":29054:29056   */\n      0x20\n        /* \"#utility.yul\":29046:29052   */\n      dup3\n        /* \"#utility.yul\":29042:29057   */\n      add\n        /* \"#utility.yul\":29035:29068   */\n      mstore\n        /* \"#utility.yul\":28850:29075   */\n      pop\n      jump\t// out\n        /* \"#utility.yul\":29081:29447   */\n    tag_334:\n        /* \"#utility.yul\":29223:29226   */\n      0x00\n        /* \"#utility.yul\":29244:29311   */\n      tag_605\n        /* \"#utility.yul\":29308:29310   */\n      0x26\n        /* \"#utility.yul\":29303:29306   */\n      dup4\n        /* \"#utility.yul\":29244:29311   */\n      tag_304\n      jump\t// in\n    tag_605:\n        /* \"#utility.yul\":29237:29311   */\n      swap2\n      pop\n        /* \"#utility.yul\":29320:29413   */\n      tag_606\n        /* \"#utility.yul\":29409:29412   */\n      dup3\n        /* \"#utility.yul\":29320:29413   */\n      tag_333\n      jump\t// in\n    tag_606:\n        /* \"#utility.yul\":29438:29440   */\n      0x40\n        /* \"#utility.yul\":29433:29436   */\n      dup3\n        /* \"#utility.yul\":29429:29441   */\n      add\n        /* \"#utility.yul\":29422:29441   */\n      swap1\n      pop\n        /* \"#utility.yul\":29081:29447   */\n      swap2\n      swap1\n      pop\n      jump\t// out\n        /* \"#utility.yul\":29453:29872   */\n    tag_245:\n        /* \"#utility.yul\":29619:29623   */\n      0x00\n        /* \"#utility.yul\":29657:29659   */\n      0x20\n        /* \"#utility.yul\":29646:29655   */\n      dup3\n        /* \"#utility.yul\":29642:29660   */\n      add\n        /* \"#utility.yul\":29634:29660   */\n      swap1\n      pop\n        /* \"#utility.yul\":29706:29715   */\n      dup2\n        /* \"#utility.yul\":29700:29704   */\n      dup2\n        /* \"#utility.yul\":29696:29716   */\n      sub\n        /* \"#utility.yul\":29692:29693   */\n      0x00\n        /* \"#utility.yul\":29681:29690   */\n      dup4\n        /* \"#utility.yul\":29677:29694   */\n      add\n        /* \"#utility.yul\":29670:29717   */\n      mstore\n        /* \"#utility.yul\":29734:29865   */\n      tag_608\n        /* \"#utility.yul\":29860:29864   */\n      dup2\n        /* \"#utility.yul\":29734:29865   */\n      tag_334\n      jump\t// in\n    tag_608:\n        /* \"#utility.yul\":29726:29865   */\n      swap1\n      pop\n        /* \"#utility.yul\":29453:29872   */\n      swap2\n      swap1\n      pop\n      jump\t// out\n        /* \"#utility.yul\":29878:30226   */\n    tag_254:\n        /* \"#utility.yul\":29918:29925   */\n      0x00\n        /* \"#utility.yul\":29941:29961   */\n      tag_610\n        /* \"#utility.yul\":29959:29960   */\n      dup3\n        /* \"#utility.yul\":29941:29961   */\n      tag_278\n      jump\t// in\n    tag_610:\n        /* \"#utility.yul\":29936:29961   */\n      swap2\n      pop\n        /* \"#utility.yul\":29975:29995   */\n      tag_611\n        /* \"#utility.yul\":29993:29994   */\n      dup4\n        /* \"#utility.yul\":29975:29995   */\n      tag_278\n      jump\t// in\n    tag_611:\n        /* \"#utility.yul\":29970:29995   */\n      swap3\n      pop\n        /* \"#utility.yul\":30163:30164   */\n      dup2\n        /* \"#utility.yul\":30095:30161   */\n      0xffffffffffffffffffffffffffffffffffffffffffffffffffffffffffffffff\n        /* \"#utility.yul\":30091:30165   */\n      div\n        /* \"#utility.yul\":30088:30089   */\n      dup4\n        /* \"#utility.yul\":30085:30166   */\n      gt\n        /* \"#utility.yul\":30080:30081   */\n      dup3\n        /* \"#utility.yul\":30073:30082   */\n      iszero\n        /* \"#utility.yul\":30066:30083   */\n      iszero\n        /* \"#utility.yul\":30062:30167   */\n      and\n        /* \"#utility.yul\":30059:30190   */\n      iszero\n      tag_612\n      jumpi\n        /* \"#utility.yul\":30170:30188   */\n      tag_613\n      tag_313\n      jump\t// in\n    tag_613:\n        /* \"#utility.yul\":30059:30190   */\n    tag_612:\n        /* \"#utility.yul\":30218:30219   */\n      dup3\n        /* \"#utility.yul\":30215:30216   */\n      dup3\n        /* \"#utility.yul\":30211:30220   */\n      mul\n        /* \"#utility.yul\":30200:30220   */\n      swap1\n      pop\n        /* \"#utility.yul\":29878:30226   */\n      swap3\n      swap2\n      pop\n      pop\n      jump\t// out\n        /* \"#utility.yul\":30232:30412   */\n    tag_335:\n        /* \"#utility.yul\":30280:30357   */\n      0x4e487b7100000000000000000000000000000000000000000000000000000000\n        /* \"#utility.yul\":30277:30278   */\n      0x00\n        /* \"#utility.yul\":30270:30358   */\n      mstore\n        /* \"#utility.yul\":30377:30381   */\n      0x12\n        /* \"#utility.yul\":30374:30375   */\n      0x04\n        /* \"#utility.yul\":30367:30382   */\n      mstore\n        /* \"#utility.yul\":30401:30405   */\n      0x24\n        /* \"#utility.yul\":30398:30399   */\n      0x00\n        /* \"#utility.yul\":30391:30406   */\n      revert\n        /* \"#utility.yul\":30418:30603   */\n    tag_256:\n        /* \"#utility.yul\":30458:30459   */\n      0x00\n        /* \"#utility.yul\":30475:30495   */\n      tag_616\n        /* \"#utility.yul\":30493:30494   */\n      dup3\n        /* \"#utility.yul\":30475:30495   */\n      tag_278\n      jump\t// in\n    tag_616:\n        /* \"#utility.yul\":30470:30495   */\n      swap2\n      pop\n        /* \"#utility.yul\":30509:30529   */\n      tag_617\n        /* \"#utility.yul\":30527:30528   */\n      dup4\n        /* \"#utility.yul\":30509:30529   */\n      tag_278\n      jump\t// in\n    tag_617:\n        /* \"#utility.yul\":30504:30529   */\n      swap3\n      pop\n        /* \"#utility.yul\":30548:30549   */\n      dup3\n        /* \"#utility.yul\":30538:30573   */\n      tag_618\n      jumpi\n        /* \"#utility.yul\":30553:30571   */\n      tag_619\n      tag_335\n      jump\t// in\n    tag_619:\n        /* \"#utility.yul\":30538:30573   */\n    tag_618:\n        /* \"#utility.yul\":30595:30596   */\n      dup3\n        /* \"#utility.yul\":30592:30593   */\n      dup3\n        /* \"#utility.yul\":30588:30597   */\n      div\n        /* \"#utility.yul\":30583:30597   */\n      swap1\n      pop\n        /* \"#utility.yul\":30418:30603   */\n      swap3\n      swap2\n      pop\n      pop\n      jump\t// out\n        /* \"#utility.yul\":30609:30791   */\n    tag_336:\n        /* \"#utility.yul\":30749:30783   */\n      0x4f776e61626c653a2063616c6c6572206973206e6f7420746865206f776e6572\n        /* \"#utility.yul\":30745:30746   */\n      0x00\n        /* \"#utility.yul\":30737:30743   */\n      dup3\n        /* \"#utility.yul\":30733:30747   */\n      add\n        /* \"#utility.yul\":30726:30784   */\n      mstore\n        /* \"#utility.yul\":30609:30791   */\n      pop\n      jump\t// out\n        /* \"#utility.yul\":30797:31163   */\n    tag_337:\n        /* \"#utility.yul\":30939:30942   */\n      0x00\n        /* \"#utility.yul\":30960:31027   */\n      tag_622\n        /* \"#utility.yul\":31024:31026   */\n      0x20\n        /* \"#utility.yul\":31019:31022   */\n      dup4\n        /* \"#utility.yul\":30960:31027   */\n      tag_304\n      jump\t// in\n    tag_622:\n        /* \"#utility.yul\":30953:31027   */\n      swap2\n      pop\n        /* \"#utility.yul\":31036:31129   */\n      tag_623\n        /* \"#utility.yul\":31125:31128   */\n      dup3\n        /* \"#utility.yul\":31036:31129   */\n      tag_336\n      jump\t// in\n    tag_623:\n        /* \"#utility.yul\":31154:31156   */\n      0x20\n        /* \"#utility.yul\":31149:31152   */\n      dup3\n        /* \"#utility.yul\":31145:31157   */\n      add\n        /* \"#utility.yul\":31138:31157   */\n      swap1\n      pop\n        /* \"#utility.yul\":30797:31163   */\n      swap2\n      swap1\n      pop\n      jump\t// out\n        /* \"#utility.yul\":31169:31588   */\n    tag_263:\n        /* \"#utility.yul\":31335:31339   */\n      0x00\n        /* \"#utility.yul\":31373:31375   */\n      0x20\n        /* \"#utility.yul\":31362:31371   */\n      dup3\n        /* \"#utility.yul\":31358:31376   */\n      add\n        /* \"#utility.yul\":31350:31376   */\n      swap1\n      pop\n        /* \"#utility.yul\":31422:31431   */\n      dup2\n        /* \"#utility.yul\":31416:31420   */\n      dup2\n        /* \"#utility.yul\":31412:31432   */\n      sub\n        /* \"#utility.yul\":31408:31409   */\n      0x00\n        /* \"#utility.yul\":31397:31406   */\n      dup4\n        /* \"#utility.yul\":31393:31410   */\n      add\n        /* \"#utility.yul\":31386:31433   */\n      mstore\n        /* \"#utility.yul\":31450:31581   */\n      tag_625\n        /* \"#utility.yul\":31576:31580   */\n      dup2\n        /* \"#utility.yul\":31450:31581   */\n      tag_337\n      jump\t// in\n    tag_625:\n        /* \"#utility.yul\":31442:31581   */\n      swap1\n      pop\n        /* \"#utility.yul\":31169:31588   */\n      swap2\n      swap1\n      pop\n      jump\t// out\n\n    auxdata: 0xa26469706673582212208b217abc2965330c728b473a9f07b5a053b89f756da56ddef060f744e656288464736f6c63430008100033\n}\n",
				"bytecode": {
					"linkReferences": {},
					"object": "60806040523480156200001157600080fd5b5060405162002ff638038062002ff68339818101604052810190620000379190620001c6565b620000576200004b620000ba60201b60201c565b620000c260201b60201c565b6001808190555060008211620000a4576040517f08c379a00000000000000000000000000000000000000000000000000000000081526004016200009b906200026e565b60405180910390fd5b8160028190555080600581905550505062000290565b600033905090565b60008060009054906101000a900473ffffffffffffffffffffffffffffffffffffffff169050816000806101000a81548173ffffffffffffffffffffffffffffffffffffffff021916908373ffffffffffffffffffffffffffffffffffffffff1602179055508173ffffffffffffffffffffffffffffffffffffffff168173ffffffffffffffffffffffffffffffffffffffff167f8be0079c531659141344cd1fd0a4f28419497f9722a3daafe3b4186f6b6457e060405160405180910390a35050565b600080fd5b6000819050919050565b620001a0816200018b565b8114620001ac57600080fd5b50565b600081519050620001c08162000195565b92915050565b60008060408385031215620001e057620001df62000186565b5b6000620001f085828601620001af565b92505060206200020385828601620001af565b9150509250929050565b600082825260208201905092915050565b7f496e76616c6964206c6f636b20706572696f6400000000000000000000000000600082015250565b6000620002566013836200020d565b915062000263826200021e565b602082019050919050565b60006020820190508181036000830152620002898162000247565b9050919050565b612d5680620002a06000396000f3fe608060405234801561001057600080fd5b50600436106100cf5760003560e01c8063b2520a7c1161008c578063e9545b9211610066578063e9545b92146101f0578063ea112c1b14610222578063eee00ed01461023e578063f2fde38b1461025a576100cf565b8063b2520a7c1461016e578063b33068c4146101a2578063c69d1923146101d2576100cf565b80630520537f146100d45780631902732e146100f05780633fd8b02f1461010c578063715018a61461012a5780638da5cb5b146101345780639f3625f014610152575b600080fd5b6100ee60048036038101906100e99190611de1565b610276565b005b61010a60048036038101906101059190611de1565b6107f1565b005b610114610dad565b6040516101219190611e5a565b60405180910390f35b610132610db3565b005b61013c610dc7565b6040516101499190611e84565b60405180910390f35b61016c60048036038101906101679190611de1565b610df0565b005b61018860048036038101906101839190611ecb565b611587565b604051610199959493929190611f85565b60405180910390f35b6101bc60048036038101906101b79190611fd8565b611617565b6040516101c99190611e5a565b60405180910390f35b6101da611675565b6040516101e79190611e5a565b60405180910390f35b61020a60048036038101906102059190612018565b61167b565b60405161021993929190612066565b60405180910390f35b61023c6004803603810190610237919061209d565b6116c5565b005b61025860048036038101906102539190612308565b611751565b005b610274600480360381019061026f91906123df565b61192a565b005b6102953373ffffffffffffffffffffffffffffffffffffffff166119ad565b156102d5576040517f08c379a00000000000000000000000000000000000000000000000000000000081526004016102cc90612469565b60405180910390fd5b3273ffffffffffffffffffffffffffffffffffffffff163373ffffffffffffffffffffffffffffffffffffffff1614610343576040517f08c379a000000000000000000000000000000000000000000000000000000000815260040161033a906124d5565b60405180910390fd5b60008383905011610389576040517f08c379a000000000000000000000000000000000000000000000000000000000815260040161038090612541565b60405180910390fd5b600080600090505b84849050811015610798576000600360008573ffffffffffffffffffffffffffffffffffffffff1673ffffffffffffffffffffffffffffffffffffffff16815260200190815260200160002060008787858181106103f2576103f1612561565b5b9050602002013581526020019081526020016000206040518060a00160405290816000820160009054906101000a900473ffffffffffffffffffffffffffffffffffffffff1673ffffffffffffffffffffffffffffffffffffffff1673ffffffffffffffffffffffffffffffffffffffff16815260200160018201548152602001600282015481526020016003820160009054906101000a900460ff161515151581526020016003820160019054906101000a900473ffffffffffffffffffffffffffffffffffffffff1673ffffffffffffffffffffffffffffffffffffffff1673ffffffffffffffffffffffffffffffffffffffff168152505090503373ffffffffffffffffffffffffffffffffffffffff16816000015173ffffffffffffffffffffffffffffffffffffffff1614610561576040517f08c379a0000000000000000000000000000000000000000000000000000000008152600401610558906125dc565b60405180910390fd5b426002548260200151610574919061262b565b106105b4576040517f08c379a00000000000000000000000000000000000000000000000000000000081526004016105ab906126ab565b60405180910390fd5b8060600151156105f9576040517f08c379a00000000000000000000000000000000000000000000000000000000081526004016105f090612717565b60405180910390fd5b600061061e87878581811061061157610610612561565b5b90506020020135866119d0565b905060008260400151826106329190612737565b9050600460008773ffffffffffffffffffffffffffffffffffffffff1673ffffffffffffffffffffffffffffffffffffffff16815260200190815260200160002060000160009054906101000a900473ffffffffffffffffffffffffffffffffffffffff1673ffffffffffffffffffffffffffffffffffffffff166340c10f1933836040518363ffffffff1660e01b81526004016106d192919061276b565b600060405180830381600087803b1580156106eb57600080fd5b505af11580156106ff573d6000803e3d6000fd5b50505050808561070f919061262b565b945081600360008873ffffffffffffffffffffffffffffffffffffffff1673ffffffffffffffffffffffffffffffffffffffff16815260200190815260200160002060008a8a8881811061076657610765612561565b5b90506020020135815260200190815260200160002060020181905550505050808061079090612794565b915050610391565b503373ffffffffffffffffffffffffffffffffffffffff167f37826be3c26dbad83731f4b985f22fa9ef86b6d1974cd77208332b7f1f283c0c8585846040516107e393929190612857565b60405180910390a250505050565b6108103373ffffffffffffffffffffffffffffffffffffffff166119ad565b15610850576040517f08c379a000000000000000000000000000000000000000000000000000000000815260040161084790612469565b60405180910390fd5b3273ffffffffffffffffffffffffffffffffffffffff163373ffffffffffffffffffffffffffffffffffffffff16146108be576040517f08c379a00000000000000000000000000000000000000000000000000000000081526004016108b5906124d5565b60405180910390fd5b600260015403610903576040517f08c379a00000000000000000000000000000000000000000000000000000000081526004016108fa906128d5565b60405180910390fd5b6002600181905550600073ffffffffffffffffffffffffffffffffffffffff16600460008373ffffffffffffffffffffffffffffffffffffffff1673ffffffffffffffffffffffffffffffffffffffff16815260200190815260200160002060000160009054906101000a900473ffffffffffffffffffffffffffffffffffffffff1673ffffffffffffffffffffffffffffffffffffffff16146109dc576040517f08c379a00000000000000000000000000000000000000000000000000000000081526004016109d390612967565b60405180910390fd5b60008383905011610a22576040517f08c379a0000000000000000000000000000000000000000000000000000000008152600401610a1990612541565b60405180910390fd5b60005b83839050811015610d50573373ffffffffffffffffffffffffffffffffffffffff168273ffffffffffffffffffffffffffffffffffffffff16636352211e868685818110610a7657610a75612561565b5b905060200201356040518263ffffffff1660e01b8152600401610a999190611e5a565b602060405180830381865afa158015610ab6573d6000803e3d6000fd5b505050506040513d601f19601f82011682018060405250810190610ada919061299c565b73ffffffffffffffffffffffffffffffffffffffff1614610b30576040517f08c379a0000000000000000000000000000000000000000000000000000000008152600401610b2790612a15565b60405180910390fd5b8173ffffffffffffffffffffffffffffffffffffffff166323b872dd3330878786818110610b6157610b60612561565b5b905060200201356040518463ffffffff1660e01b8152600401610b8693929190612a35565b600060405180830381600087803b158015610ba057600080fd5b505af1158015610bb4573d6000803e3d6000fd5b505050506040518060a001604052803373ffffffffffffffffffffffffffffffffffffffff168152602001428152602001600081526020016000151581526020018373ffffffffffffffffffffffffffffffffffffffff16815250600360008473ffffffffffffffffffffffffffffffffffffffff1673ffffffffffffffffffffffffffffffffffffffff1681526020019081526020016000206000868685818110610c6357610c62612561565b5b90506020020135815260200190815260200160002060008201518160000160006101000a81548173ffffffffffffffffffffffffffffffffffffffff021916908373ffffffffffffffffffffffffffffffffffffffff160217905550602082015181600101556040820151816002015560608201518160030160006101000a81548160ff02191690831515021790555060808201518160030160016101000a81548173ffffffffffffffffffffffffffffffffffffffff021916908373ffffffffffffffffffffffffffffffffffffffff1602179055509050508080610d4890612794565b915050610a25565b503373ffffffffffffffffffffffffffffffffffffffff167f458be0227bccc9e803dec79bd16767eeaf9925d2ce708eeed7ae1f3621f968f98484604051610d99929190612a6c565b60405180910390a260018081905550505050565b60025481565b610dbb611bae565b610dc56000611c2c565b565b60008060009054906101000a900473ffffffffffffffffffffffffffffffffffffffff16905090565b610e0f3373ffffffffffffffffffffffffffffffffffffffff166119ad565b15610e4f576040517f08c379a0000000000000000000000000000000000000000000000000000000008152600401610e4690612469565b60405180910390fd5b3273ffffffffffffffffffffffffffffffffffffffff163373ffffffffffffffffffffffffffffffffffffffff1614610ebd576040517f08c379a0000000000000000000000000000000000000000000000000000000008152600401610eb4906124d5565b60405180910390fd5b600260015403610f02576040517f08c379a0000000000000000000000000000000000000000000000000000000008152600401610ef9906128d5565b60405180910390fd5b6002600181905550600073ffffffffffffffffffffffffffffffffffffffff16600460008373ffffffffffffffffffffffffffffffffffffffff1673ffffffffffffffffffffffffffffffffffffffff16815260200190815260200160002060000160009054906101000a900473ffffffffffffffffffffffffffffffffffffffff1673ffffffffffffffffffffffffffffffffffffffff1614610fdb576040517f08c379a0000000000000000000000000000000000000000000000000000000008152600401610fd290612967565b60405180910390fd5b60008383905011611021576040517f08c379a000000000000000000000000000000000000000000000000000000000815260040161101890612541565b60405180910390fd5b60005b8383905081101561152a576000600360008473ffffffffffffffffffffffffffffffffffffffff1673ffffffffffffffffffffffffffffffffffffffff168152602001908152602001600020600086868581811061108557611084612561565b5b9050602002013581526020019081526020016000206040518060a00160405290816000820160009054906101000a900473ffffffffffffffffffffffffffffffffffffffff1673ffffffffffffffffffffffffffffffffffffffff1673ffffffffffffffffffffffffffffffffffffffff16815260200160018201548152602001600282015481526020016003820160009054906101000a900460ff161515151581526020016003820160019054906101000a900473ffffffffffffffffffffffffffffffffffffffff1673ffffffffffffffffffffffffffffffffffffffff1673ffffffffffffffffffffffffffffffffffffffff168152505090503373ffffffffffffffffffffffffffffffffffffffff16816000015173ffffffffffffffffffffffffffffffffffffffff16146111f4576040517f08c379a00000000000000000000000000000000000000000000000000000000081526004016111eb906125dc565b60405180910390fd5b426002548260200151611207919061262b565b10611247576040517f08c379a000000000000000000000000000000000000000000000000000000000815260040161123e90612adc565b60405180910390fd5b80606001511561128c576040517f08c379a000000000000000000000000000000000000000000000000000000000815260040161128390612717565b60405180910390fd5b8273ffffffffffffffffffffffffffffffffffffffff166323b872dd30338888878181106112bd576112bc612561565b5b905060200201356040518463ffffffff1660e01b81526004016112e293929190612a35565b600060405180830381600087803b1580156112fc57600080fd5b505af1158015611310573d6000803e3d6000fd5b50505050600061133986868581811061132c5761132b612561565b5b90506020020135856119d0565b9050600082604001518261134d9190612737565b9050600460008673ffffffffffffffffffffffffffffffffffffffff1673ffffffffffffffffffffffffffffffffffffffff16815260200190815260200160002060000160009054906101000a900473ffffffffffffffffffffffffffffffffffffffff1673ffffffffffffffffffffffffffffffffffffffff166340c10f1933836040518363ffffffff1660e01b81526004016113ec92919061276b565b600060405180830381600087803b15801561140657600080fd5b505af115801561141a573d6000803e3d6000fd5b5050505081600360008773ffffffffffffffffffffffffffffffffffffffff1673ffffffffffffffffffffffffffffffffffffffff168152602001908152602001600020600089898881811061147357611472612561565b5b905060200201358152602001908152602001600020600201819055506001600360008773ffffffffffffffffffffffffffffffffffffffff1673ffffffffffffffffffffffffffffffffffffffff16815260200190815260200160002060008989888181106114e5576114e4612561565b5b90506020020135815260200190815260200160002060030160006101000a81548160ff021916908315150217905550505050808061152290612794565b915050611024565b503373ffffffffffffffffffffffffffffffffffffffff167f5cb48022479b9ac3bfb10a27965dc010acffc9fc1bc9a52f0b18975b944b54ca8484604051611573929190612a6c565b60405180910390a260018081905550505050565b6003602052816000526040600020602052806000526040600020600091509150508060000160009054906101000a900473ffffffffffffffffffffffffffffffffffffffff16908060010154908060020154908060030160009054906101000a900460ff16908060030160019054906101000a900473ffffffffffffffffffffffffffffffffffffffff16905085565b6000600360008373ffffffffffffffffffffffffffffffffffffffff1673ffffffffffffffffffffffffffffffffffffffff168152602001908152602001600020600084815260200190815260200160002060020154905092915050565b60055481565b60046020528060005260406000206000915090508060000160009054906101000a900473ffffffffffffffffffffffffffffffffffffffff16908060010154908060020154905083565b6116cd611bae565b60008111611710576040517f08c379a000000000000000000000000000000000000000000000000000000000815260040161170790612b48565b60405180910390fd5b806002819055507f8249ec545e68f6f1e1230133ca48c704d831a7f8e635ded80f3dd9e99b09bb2f816040516117469190611e5a565b60405180910390a150565b611759611bae565b60005b84518110156119235783818151811061177857611777612561565b5b60200260200101516004600087848151811061179757611796612561565b5b602002602001015173ffffffffffffffffffffffffffffffffffffffff1673ffffffffffffffffffffffffffffffffffffffff16815260200190815260200160002060000160006101000a81548173ffffffffffffffffffffffffffffffffffffffff021916908373ffffffffffffffffffffffffffffffffffffffff16021790555082818151811061182d5761182c612561565b5b60200260200101516004600087848151811061184c5761184b612561565b5b602002602001015173ffffffffffffffffffffffffffffffffffffffff1673ffffffffffffffffffffffffffffffffffffffff168152602001908152602001600020600101819055508181815181106118a8576118a7612561565b5b6020026020010151600460008784815181106118c7576118c6612561565b5b602002602001015173ffffffffffffffffffffffffffffffffffffffff1673ffffffffffffffffffffffffffffffffffffffff16815260200190815260200160002060020181905550808061191b90612794565b91505061175c565b5050505050565b611932611bae565b600073ffffffffffffffffffffffffffffffffffffffff168173ffffffffffffffffffffffffffffffffffffffff16036119a1576040517f08c379a000000000000000000000000000000000000000000000000000000000815260040161199890612bda565b60405180910390fd5b6119aa81611c2c565b50565b6000808273ffffffffffffffffffffffffffffffffffffffff163b119050919050565b600080600360008473ffffffffffffffffffffffffffffffffffffffff1673ffffffffffffffffffffffffffffffffffffffff16815260200190815260200160002060008581526020019081526020016000206040518060a00160405290816000820160009054906101000a900473ffffffffffffffffffffffffffffffffffffffff1673ffffffffffffffffffffffffffffffffffffffff1673ffffffffffffffffffffffffffffffffffffffff16815260200160018201548152602001600282015481526020016003820160009054906101000a900460ff161515151581526020016003820160019054906101000a900473ffffffffffffffffffffffffffffffffffffffff1673ffffffffffffffffffffffffffffffffffffffff1673ffffffffffffffffffffffffffffffffffffffff168152505090506000816020015142611b1d9190612737565b90506000600254821015611b375760009350505050611ba8565b60055460025483611b489190612737565b600460008873ffffffffffffffffffffffffffffffffffffffff1673ffffffffffffffffffffffffffffffffffffffff16815260200190815260200160002060010154611b959190612bfa565b611b9f9190612c83565b90508093505050505b92915050565b611bb6611cf0565b73ffffffffffffffffffffffffffffffffffffffff16611bd4610dc7565b73ffffffffffffffffffffffffffffffffffffffff1614611c2a576040517f08c379a0000000000000000000000000000000000000000000000000000000008152600401611c2190612d00565b60405180910390fd5b565b60008060009054906101000a900473ffffffffffffffffffffffffffffffffffffffff169050816000806101000a81548173ffffffffffffffffffffffffffffffffffffffff021916908373ffffffffffffffffffffffffffffffffffffffff1602179055508173ffffffffffffffffffffffffffffffffffffffff168173ffffffffffffffffffffffffffffffffffffffff167f8be0079c531659141344cd1fd0a4f28419497f9722a3daafe3b4186f6b6457e060405160405180910390a35050565b600033905090565b6000604051905090565b600080fd5b600080fd5b600080fd5b600080fd5b600080fd5b60008083601f840112611d3157611d30611d0c565b5b8235905067ffffffffffffffff811115611d4e57611d4d611d11565b5b602083019150836020820283011115611d6a57611d69611d16565b5b9250929050565b600073ffffffffffffffffffffffffffffffffffffffff82169050919050565b6000611d9c82611d71565b9050919050565b6000611dae82611d91565b9050919050565b611dbe81611da3565b8114611dc957600080fd5b50565b600081359050611ddb81611db5565b92915050565b600080600060408486031215611dfa57611df9611d02565b5b600084013567ffffffffffffffff811115611e1857611e17611d07565b5b611e2486828701611d1b565b93509350506020611e3786828701611dcc565b9150509250925092565b6000819050919050565b611e5481611e41565b82525050565b6000602082019050611e6f6000830184611e4b565b92915050565b611e7e81611d91565b82525050565b6000602082019050611e996000830184611e75565b92915050565b611ea881611e41565b8114611eb357600080fd5b50565b600081359050611ec581611e9f565b92915050565b60008060408385031215611ee257611ee1611d02565b5b6000611ef085828601611dcc565b9250506020611f0185828601611eb6565b9150509250929050565b60008115159050919050565b611f2081611f0b565b82525050565b6000819050919050565b6000611f4b611f46611f4184611d71565b611f26565b611d71565b9050919050565b6000611f5d82611f30565b9050919050565b6000611f6f82611f52565b9050919050565b611f7f81611f64565b82525050565b600060a082019050611f9a6000830188611e75565b611fa76020830187611e4b565b611fb46040830186611e4b565b611fc16060830185611f17565b611fce6080830184611f76565b9695505050505050565b60008060408385031215611fef57611fee611d02565b5b6000611ffd85828601611eb6565b925050602061200e85828601611dcc565b9150509250929050565b60006020828403121561202e5761202d611d02565b5b600061203c84828501611dcc565b91505092915050565b600061205082611f52565b9050919050565b61206081612045565b82525050565b600060608201905061207b6000830186612057565b6120886020830185611e4b565b6120956040830184611e4b565b949350505050565b6000602082840312156120b3576120b2611d02565b5b60006120c184828501611eb6565b91505092915050565b6000601f19601f8301169050919050565b7f4e487b7100000000000000000000000000000000000000000000000000000000600052604160045260246000fd5b612113826120ca565b810181811067ffffffffffffffff82111715612132576121316120db565b5b80604052505050565b6000612145611cf8565b9050612151828261210a565b919050565b600067ffffffffffffffff821115612171576121706120db565b5b602082029050602081019050919050565b61218b81611d91565b811461219657600080fd5b50565b6000813590506121a881612182565b92915050565b60006121c16121bc84612156565b61213b565b905080838252602082019050602084028301858111156121e4576121e3611d16565b5b835b8181101561220d57806121f98882612199565b8452602084019350506020810190506121e6565b5050509392505050565b600082601f83011261222c5761222b611d0c565b5b813561223c8482602086016121ae565b91505092915050565b600067ffffffffffffffff8211156122605761225f6120db565b5b602082029050602081019050919050565b600061228461227f84612245565b61213b565b905080838252602082019050602084028301858111156122a7576122a6611d16565b5b835b818110156122d057806122bc8882611eb6565b8452602084019350506020810190506122a9565b5050509392505050565b600082601f8301126122ef576122ee611d0c565b5b81356122ff848260208601612271565b91505092915050565b6000806000806080858703121561232257612321611d02565b5b600085013567ffffffffffffffff8111156123405761233f611d07565b5b61234c87828801612217565b945050602085013567ffffffffffffffff81111561236d5761236c611d07565b5b61237987828801612217565b935050604085013567ffffffffffffffff81111561239a57612399611d07565b5b6123a6878288016122da565b925050606085013567ffffffffffffffff8111156123c7576123c6611d07565b5b6123d3878288016122da565b91505092959194509250565b6000602082840312156123f5576123f4611d02565b5b600061240384828501612199565b91505092915050565b600082825260208201905092915050565b7f436f6e7472616374206e6f7420616c6c6f776564000000000000000000000000600082015250565b600061245360148361240c565b915061245e8261241d565b602082019050919050565b6000602082019050818103600083015261248281612446565b9050919050565b7f50726f787920636f6e7472616374206e6f7420616c6c6f776564000000000000600082015250565b60006124bf601a8361240c565b91506124ca82612489565b602082019050919050565b600060208201905081810360008301526124ee816124b2565b9050919050565b7f4e6f20746f6b656e730000000000000000000000000000000000000000000000600082015250565b600061252b60098361240c565b9150612536826124f5565b602082019050919050565b6000602082019050818103600083015261255a8161251e565b9050919050565b7f4e487b7100000000000000000000000000000000000000000000000000000000600052603260045260246000fd5b7f4e6f74206120746f6b656e206f776e6572000000000000000000000000000000600082015250565b60006125c660118361240c565b91506125d182612590565b602082019050919050565b600060208201905081810360008301526125f5816125b9565b9050919050565b7f4e487b7100000000000000000000000000000000000000000000000000000000600052601160045260246000fd5b600061263682611e41565b915061264183611e41565b9250828201905080821115612659576126586125fc565b5b92915050565b7f4e6f742061626c6520746f20636c61696d207965740000000000000000000000600082015250565b600061269560158361240c565b91506126a08261265f565b602082019050919050565b600060208201905081810360008301526126c481612688565b9050919050565b7f416c726561647920756e6c6f636b656400000000000000000000000000000000600082015250565b600061270160108361240c565b915061270c826126cb565b602082019050919050565b60006020820190508181036000830152612730816126f4565b9050919050565b600061274282611e41565b915061274d83611e41565b9250828203905081811115612765576127646125fc565b5b92915050565b60006040820190506127806000830185611e75565b61278d6020830184611e4b565b9392505050565b600061279f82611e41565b91507fffffffffffffffffffffffffffffffffffffffffffffffffffffffffffffffff82036127d1576127d06125fc565b5b600182019050919050565b600082825260208201905092915050565b600080fd5b82818337505050565b600061280783856127dc565b93507f07ffffffffffffffffffffffffffffffffffffffffffffffffffffffffffffff83111561283a576128396127ed565b5b60208302925061284b8385846127f2565b82840190509392505050565b600060408201905081810360008301526128728185876127fb565b90506128816020830184611e4b565b949350505050565b7f5265656e7472616e637947756172643a207265656e7472616e742063616c6c00600082015250565b60006128bf601f8361240c565b91506128ca82612889565b602082019050919050565b600060208201905081810360008301526128ee816128b2565b9050919050565b7f5374616b696e673a20526567697374657220636f6c6c656374696f6e2062792060008201527f6164645374616b696e674e667473000000000000000000000000000000000000602082015250565b6000612951602e8361240c565b915061295c826128f5565b604082019050919050565b6000602082019050818103600083015261298081612944565b9050919050565b60008151905061299681612182565b92915050565b6000602082840312156129b2576129b1611d02565b5b60006129c084828501612987565b91505092915050565b7f596f7520646f6e277420686f6c64207468697320746f6b656e00000000000000600082015250565b60006129ff60198361240c565b9150612a0a826129c9565b602082019050919050565b60006020820190508181036000830152612a2e816129f2565b9050919050565b6000606082019050612a4a6000830186611e75565b612a576020830185611e75565b612a646040830184611e4b565b949350505050565b60006020820190508181036000830152612a878184866127fb565b90509392505050565b7f4e6f742061626c6520746f20756e6c6f636b2079657400000000000000000000600082015250565b6000612ac660168361240c565b9150612ad182612a90565b602082019050919050565b60006020820190508181036000830152612af581612ab9565b9050919050565b7f496e76616c6964206c6f636b20706572696f642e000000000000000000000000600082015250565b6000612b3260148361240c565b9150612b3d82612afc565b602082019050919050565b60006020820190508181036000830152612b6181612b25565b9050919050565b7f4f776e61626c653a206e6577206f776e657220697320746865207a65726f206160008201527f6464726573730000000000000000000000000000000000000000000000000000602082015250565b6000612bc460268361240c565b9150612bcf82612b68565b604082019050919050565b60006020820190508181036000830152612bf381612bb7565b9050919050565b6000612c0582611e41565b9150612c1083611e41565b9250817fffffffffffffffffffffffffffffffffffffffffffffffffffffffffffffffff0483118215151615612c4957612c486125fc565b5b828202905092915050565b7f4e487b7100000000000000000000000000000000000000000000000000000000600052601260045260246000fd5b6000612c8e82611e41565b9150612c9983611e41565b925082612ca957612ca8612c54565b5b828204905092915050565b7f4f776e61626c653a2063616c6c6572206973206e6f7420746865206f776e6572600082015250565b6000612cea60208361240c565b9150612cf582612cb4565b602082019050919050565b60006020820190508181036000830152612d1981612cdd565b905091905056fea26469706673582212208b217abc2965330c728b473a9f07b5a053b89f756da56ddef060f744e656288464736f6c63430008100033",
					"opcodes": "PUSH1 0x80 PUSH1 0x40 MSTORE CALLVALUE DUP1 ISZERO PUSH3 0x11 JUMPI PUSH1 0x0 DUP1 REVERT JUMPDEST POP PUSH1 0x40 MLOAD PUSH3 0x2FF6 CODESIZE SUB DUP1 PUSH3 0x2FF6 DUP4 CODECOPY DUP2 DUP2 ADD PUSH1 0x40 MSTORE DUP2 ADD SWAP1 PUSH3 0x37 SWAP2 SWAP1 PUSH3 0x1C6 JUMP JUMPDEST PUSH3 0x57 PUSH3 0x4B PUSH3 0xBA PUSH1 0x20 SHL PUSH1 0x20 SHR JUMP JUMPDEST PUSH3 0xC2 PUSH1 0x20 SHL PUSH1 0x20 SHR JUMP JUMPDEST PUSH1 0x1 DUP1 DUP2 SWAP1 SSTORE POP PUSH1 0x0 DUP3 GT PUSH3 0xA4 JUMPI PUSH1 0x40 MLOAD PUSH32 0x8C379A000000000000000000000000000000000000000000000000000000000 DUP2 MSTORE PUSH1 0x4 ADD PUSH3 0x9B SWAP1 PUSH3 0x26E JUMP JUMPDEST PUSH1 0x40 MLOAD DUP1 SWAP2 SUB SWAP1 REVERT JUMPDEST DUP2 PUSH1 0x2 DUP2 SWAP1 SSTORE POP DUP1 PUSH1 0x5 DUP2 SWAP1 SSTORE POP POP POP PUSH3 0x290 JUMP JUMPDEST PUSH1 0x0 CALLER SWAP1 POP SWAP1 JUMP JUMPDEST PUSH1 0x0 DUP1 PUSH1 0x0 SWAP1 SLOAD SWAP1 PUSH2 0x100 EXP SWAP1 DIV PUSH20 0xFFFFFFFFFFFFFFFFFFFFFFFFFFFFFFFFFFFFFFFF AND SWAP1 POP DUP2 PUSH1 0x0 DUP1 PUSH2 0x100 EXP DUP2 SLOAD DUP2 PUSH20 0xFFFFFFFFFFFFFFFFFFFFFFFFFFFFFFFFFFFFFFFF MUL NOT AND SWAP1 DUP4 PUSH20 0xFFFFFFFFFFFFFFFFFFFFFFFFFFFFFFFFFFFFFFFF AND MUL OR SWAP1 SSTORE POP DUP2 PUSH20 0xFFFFFFFFFFFFFFFFFFFFFFFFFFFFFFFFFFFFFFFF AND DUP2 PUSH20 0xFFFFFFFFFFFFFFFFFFFFFFFFFFFFFFFFFFFFFFFF AND PUSH32 0x8BE0079C531659141344CD1FD0A4F28419497F9722A3DAAFE3B4186F6B6457E0 PUSH1 0x40 MLOAD PUSH1 0x40 MLOAD DUP1 SWAP2 SUB SWAP1 LOG3 POP POP JUMP JUMPDEST PUSH1 0x0 DUP1 REVERT JUMPDEST PUSH1 0x0 DUP2 SWAP1 POP SWAP2 SWAP1 POP JUMP JUMPDEST PUSH3 0x1A0 DUP2 PUSH3 0x18B JUMP JUMPDEST DUP2 EQ PUSH3 0x1AC JUMPI PUSH1 0x0 DUP1 REVERT JUMPDEST POP JUMP JUMPDEST PUSH1 0x0 DUP2 MLOAD SWAP1 POP PUSH3 0x1C0 DUP2 PUSH3 0x195 JUMP JUMPDEST SWAP3 SWAP2 POP POP JUMP JUMPDEST PUSH1 0x0 DUP1 PUSH1 0x40 DUP4 DUP6 SUB SLT ISZERO PUSH3 0x1E0 JUMPI PUSH3 0x1DF PUSH3 0x186 JUMP JUMPDEST JUMPDEST PUSH1 0x0 PUSH3 0x1F0 DUP6 DUP3 DUP7 ADD PUSH3 0x1AF JUMP JUMPDEST SWAP3 POP POP PUSH1 0x20 PUSH3 0x203 DUP6 DUP3 DUP7 ADD PUSH3 0x1AF JUMP JUMPDEST SWAP2 POP POP SWAP3 POP SWAP3 SWAP1 POP JUMP JUMPDEST PUSH1 0x0 DUP3 DUP3 MSTORE PUSH1 0x20 DUP3 ADD SWAP1 POP SWAP3 SWAP2 POP POP JUMP JUMPDEST PUSH32 0x496E76616C6964206C6F636B20706572696F6400000000000000000000000000 PUSH1 0x0 DUP3 ADD MSTORE POP JUMP JUMPDEST PUSH1 0x0 PUSH3 0x256 PUSH1 0x13 DUP4 PUSH3 0x20D JUMP JUMPDEST SWAP2 POP PUSH3 0x263 DUP3 PUSH3 0x21E JUMP JUMPDEST PUSH1 0x20 DUP3 ADD SWAP1 POP SWAP2 SWAP1 POP JUMP JUMPDEST PUSH1 0x0 PUSH1 0x20 DUP3 ADD SWAP1 POP DUP2 DUP2 SUB PUSH1 0x0 DUP4 ADD MSTORE PUSH3 0x289 DUP2 PUSH3 0x247 JUMP JUMPDEST SWAP1 POP SWAP2 SWAP1 POP JUMP JUMPDEST PUSH2 0x2D56 DUP1 PUSH3 0x2A0 PUSH1 0x0 CODECOPY PUSH1 0x0 RETURN INVALID PUSH1 0x80 PUSH1 0x40 MSTORE CALLVALUE DUP1 ISZERO PUSH2 0x10 JUMPI PUSH1 0x0 DUP1 REVERT JUMPDEST POP PUSH1 0x4 CALLDATASIZE LT PUSH2 0xCF JUMPI PUSH1 0x0 CALLDATALOAD PUSH1 0xE0 SHR DUP1 PUSH4 0xB2520A7C GT PUSH2 0x8C JUMPI DUP1 PUSH4 0xE9545B92 GT PUSH2 0x66 JUMPI DUP1 PUSH4 0xE9545B92 EQ PUSH2 0x1F0 JUMPI DUP1 PUSH4 0xEA112C1B EQ PUSH2 0x222 JUMPI DUP1 PUSH4 0xEEE00ED0 EQ PUSH2 0x23E JUMPI DUP1 PUSH4 0xF2FDE38B EQ PUSH2 0x25A JUMPI PUSH2 0xCF JUMP JUMPDEST DUP1 PUSH4 0xB2520A7C EQ PUSH2 0x16E JUMPI DUP1 PUSH4 0xB33068C4 EQ PUSH2 0x1A2 JUMPI DUP1 PUSH4 0xC69D1923 EQ PUSH2 0x1D2 JUMPI PUSH2 0xCF JUMP JUMPDEST DUP1 PUSH4 0x520537F EQ PUSH2 0xD4 JUMPI DUP1 PUSH4 0x1902732E EQ PUSH2 0xF0 JUMPI DUP1 PUSH4 0x3FD8B02F EQ PUSH2 0x10C JUMPI DUP1 PUSH4 0x715018A6 EQ PUSH2 0x12A JUMPI DUP1 PUSH4 0x8DA5CB5B EQ PUSH2 0x134 JUMPI DUP1 PUSH4 0x9F3625F0 EQ PUSH2 0x152 JUMPI JUMPDEST PUSH1 0x0 DUP1 REVERT JUMPDEST PUSH2 0xEE PUSH1 0x4 DUP1 CALLDATASIZE SUB DUP2 ADD SWAP1 PUSH2 0xE9 SWAP2 SWAP1 PUSH2 0x1DE1 JUMP JUMPDEST PUSH2 0x276 JUMP JUMPDEST STOP JUMPDEST PUSH2 0x10A PUSH1 0x4 DUP1 CALLDATASIZE SUB DUP2 ADD SWAP1 PUSH2 0x105 SWAP2 SWAP1 PUSH2 0x1DE1 JUMP JUMPDEST PUSH2 0x7F1 JUMP JUMPDEST STOP JUMPDEST PUSH2 0x114 PUSH2 0xDAD JUMP JUMPDEST PUSH1 0x40 MLOAD PUSH2 0x121 SWAP2 SWAP1 PUSH2 0x1E5A JUMP JUMPDEST PUSH1 0x40 MLOAD DUP1 SWAP2 SUB SWAP1 RETURN JUMPDEST PUSH2 0x132 PUSH2 0xDB3 JUMP JUMPDEST STOP JUMPDEST PUSH2 0x13C PUSH2 0xDC7 JUMP JUMPDEST PUSH1 0x40 MLOAD PUSH2 0x149 SWAP2 SWAP1 PUSH2 0x1E84 JUMP JUMPDEST PUSH1 0x40 MLOAD DUP1 SWAP2 SUB SWAP1 RETURN JUMPDEST PUSH2 0x16C PUSH1 0x4 DUP1 CALLDATASIZE SUB DUP2 ADD SWAP1 PUSH2 0x167 SWAP2 SWAP1 PUSH2 0x1DE1 JUMP JUMPDEST PUSH2 0xDF0 JUMP JUMPDEST STOP JUMPDEST PUSH2 0x188 PUSH1 0x4 DUP1 CALLDATASIZE SUB DUP2 ADD SWAP1 PUSH2 0x183 SWAP2 SWAP1 PUSH2 0x1ECB JUMP JUMPDEST PUSH2 0x1587 JUMP JUMPDEST PUSH1 0x40 MLOAD PUSH2 0x199 SWAP6 SWAP5 SWAP4 SWAP3 SWAP2 SWAP1 PUSH2 0x1F85 JUMP JUMPDEST PUSH1 0x40 MLOAD DUP1 SWAP2 SUB SWAP1 RETURN JUMPDEST PUSH2 0x1BC PUSH1 0x4 DUP1 CALLDATASIZE SUB DUP2 ADD SWAP1 PUSH2 0x1B7 SWAP2 SWAP1 PUSH2 0x1FD8 JUMP JUMPDEST PUSH2 0x1617 JUMP JUMPDEST PUSH1 0x40 MLOAD PUSH2 0x1C9 SWAP2 SWAP1 PUSH2 0x1E5A JUMP JUMPDEST PUSH1 0x40 MLOAD DUP1 SWAP2 SUB SWAP1 RETURN JUMPDEST PUSH2 0x1DA PUSH2 0x1675 JUMP JUMPDEST PUSH1 0x40 MLOAD PUSH2 0x1E7 SWAP2 SWAP1 PUSH2 0x1E5A JUMP JUMPDEST PUSH1 0x40 MLOAD DUP1 SWAP2 SUB SWAP1 RETURN JUMPDEST PUSH2 0x20A PUSH1 0x4 DUP1 CALLDATASIZE SUB DUP2 ADD SWAP1 PUSH2 0x205 SWAP2 SWAP1 PUSH2 0x2018 JUMP JUMPDEST PUSH2 0x167B JUMP JUMPDEST PUSH1 0x40 MLOAD PUSH2 0x219 SWAP4 SWAP3 SWAP2 SWAP1 PUSH2 0x2066 JUMP JUMPDEST PUSH1 0x40 MLOAD DUP1 SWAP2 SUB SWAP1 RETURN JUMPDEST PUSH2 0x23C PUSH1 0x4 DUP1 CALLDATASIZE SUB DUP2 ADD SWAP1 PUSH2 0x237 SWAP2 SWAP1 PUSH2 0x209D JUMP JUMPDEST PUSH2 0x16C5 JUMP JUMPDEST STOP JUMPDEST PUSH2 0x258 PUSH1 0x4 DUP1 CALLDATASIZE SUB DUP2 ADD SWAP1 PUSH2 0x253 SWAP2 SWAP1 PUSH2 0x2308 JUMP JUMPDEST PUSH2 0x1751 JUMP JUMPDEST STOP JUMPDEST PUSH2 0x274 PUSH1 0x4 DUP1 CALLDATASIZE SUB DUP2 ADD SWAP1 PUSH2 0x26F SWAP2 SWAP1 PUSH2 0x23DF JUMP JUMPDEST PUSH2 0x192A JUMP JUMPDEST STOP JUMPDEST PUSH2 0x295 CALLER PUSH20 0xFFFFFFFFFFFFFFFFFFFFFFFFFFFFFFFFFFFFFFFF AND PUSH2 0x19AD JUMP JUMPDEST ISZERO PUSH2 0x2D5 JUMPI PUSH1 0x40 MLOAD PUSH32 0x8C379A000000000000000000000000000000000000000000000000000000000 DUP2 MSTORE PUSH1 0x4 ADD PUSH2 0x2CC SWAP1 PUSH2 0x2469 JUMP JUMPDEST PUSH1 0x40 MLOAD DUP1 SWAP2 SUB SWAP1 REVERT JUMPDEST ORIGIN PUSH20 0xFFFFFFFFFFFFFFFFFFFFFFFFFFFFFFFFFFFFFFFF AND CALLER PUSH20 0xFFFFFFFFFFFFFFFFFFFFFFFFFFFFFFFFFFFFFFFF AND EQ PUSH2 0x343 JUMPI PUSH1 0x40 MLOAD PUSH32 0x8C379A000000000000000000000000000000000000000000000000000000000 DUP2 MSTORE PUSH1 0x4 ADD PUSH2 0x33A SWAP1 PUSH2 0x24D5 JUMP JUMPDEST PUSH1 0x40 MLOAD DUP1 SWAP2 SUB SWAP1 REVERT JUMPDEST PUSH1 0x0 DUP4 DUP4 SWAP1 POP GT PUSH2 0x389 JUMPI PUSH1 0x40 MLOAD PUSH32 0x8C379A000000000000000000000000000000000000000000000000000000000 DUP2 MSTORE PUSH1 0x4 ADD PUSH2 0x380 SWAP1 PUSH2 0x2541 JUMP JUMPDEST PUSH1 0x40 MLOAD DUP1 SWAP2 SUB SWAP1 REVERT JUMPDEST PUSH1 0x0 DUP1 PUSH1 0x0 SWAP1 POP JUMPDEST DUP5 DUP5 SWAP1 POP DUP2 LT ISZERO PUSH2 0x798 JUMPI PUSH1 0x0 PUSH1 0x3 PUSH1 0x0 DUP6 PUSH20 0xFFFFFFFFFFFFFFFFFFFFFFFFFFFFFFFFFFFFFFFF AND PUSH20 0xFFFFFFFFFFFFFFFFFFFFFFFFFFFFFFFFFFFFFFFF AND DUP2 MSTORE PUSH1 0x20 ADD SWAP1 DUP2 MSTORE PUSH1 0x20 ADD PUSH1 0x0 KECCAK256 PUSH1 0x0 DUP8 DUP8 DUP6 DUP2 DUP2 LT PUSH2 0x3F2 JUMPI PUSH2 0x3F1 PUSH2 0x2561 JUMP JUMPDEST JUMPDEST SWAP1 POP PUSH1 0x20 MUL ADD CALLDATALOAD DUP2 MSTORE PUSH1 0x20 ADD SWAP1 DUP2 MSTORE PUSH1 0x20 ADD PUSH1 0x0 KECCAK256 PUSH1 0x40 MLOAD DUP1 PUSH1 0xA0 ADD PUSH1 0x40 MSTORE SWAP1 DUP2 PUSH1 0x0 DUP3 ADD PUSH1 0x0 SWAP1 SLOAD SWAP1 PUSH2 0x100 EXP SWAP1 DIV PUSH20 0xFFFFFFFFFFFFFFFFFFFFFFFFFFFFFFFFFFFFFFFF AND PUSH20 0xFFFFFFFFFFFFFFFFFFFFFFFFFFFFFFFFFFFFFFFF AND PUSH20 0xFFFFFFFFFFFFFFFFFFFFFFFFFFFFFFFFFFFFFFFF AND DUP2 MSTORE PUSH1 0x20 ADD PUSH1 0x1 DUP3 ADD SLOAD DUP2 MSTORE PUSH1 0x20 ADD PUSH1 0x2 DUP3 ADD SLOAD DUP2 MSTORE PUSH1 0x20 ADD PUSH1 0x3 DUP3 ADD PUSH1 0x0 SWAP1 SLOAD SWAP1 PUSH2 0x100 EXP SWAP1 DIV PUSH1 0xFF AND ISZERO ISZERO ISZERO ISZERO DUP2 MSTORE PUSH1 0x20 ADD PUSH1 0x3 DUP3 ADD PUSH1 0x1 SWAP1 SLOAD SWAP1 PUSH2 0x100 EXP SWAP1 DIV PUSH20 0xFFFFFFFFFFFFFFFFFFFFFFFFFFFFFFFFFFFFFFFF AND PUSH20 0xFFFFFFFFFFFFFFFFFFFFFFFFFFFFFFFFFFFFFFFF AND PUSH20 0xFFFFFFFFFFFFFFFFFFFFFFFFFFFFFFFFFFFFFFFF AND DUP2 MSTORE POP POP SWAP1 POP CALLER PUSH20 0xFFFFFFFFFFFFFFFFFFFFFFFFFFFFFFFFFFFFFFFF AND DUP2 PUSH1 0x0 ADD MLOAD PUSH20 0xFFFFFFFFFFFFFFFFFFFFFFFFFFFFFFFFFFFFFFFF AND EQ PUSH2 0x561 JUMPI PUSH1 0x40 MLOAD PUSH32 0x8C379A000000000000000000000000000000000000000000000000000000000 DUP2 MSTORE PUSH1 0x4 ADD PUSH2 0x558 SWAP1 PUSH2 0x25DC JUMP JUMPDEST PUSH1 0x40 MLOAD DUP1 SWAP2 SUB SWAP1 REVERT JUMPDEST TIMESTAMP PUSH1 0x2 SLOAD DUP3 PUSH1 0x20 ADD MLOAD PUSH2 0x574 SWAP2 SWAP1 PUSH2 0x262B JUMP JUMPDEST LT PUSH2 0x5B4 JUMPI PUSH1 0x40 MLOAD PUSH32 0x8C379A000000000000000000000000000000000000000000000000000000000 DUP2 MSTORE PUSH1 0x4 ADD PUSH2 0x5AB SWAP1 PUSH2 0x26AB JUMP JUMPDEST PUSH1 0x40 MLOAD DUP1 SWAP2 SUB SWAP1 REVERT JUMPDEST DUP1 PUSH1 0x60 ADD MLOAD ISZERO PUSH2 0x5F9 JUMPI PUSH1 0x40 MLOAD PUSH32 0x8C379A000000000000000000000000000000000000000000000000000000000 DUP2 MSTORE PUSH1 0x4 ADD PUSH2 0x5F0 SWAP1 PUSH2 0x2717 JUMP JUMPDEST PUSH1 0x40 MLOAD DUP1 SWAP2 SUB SWAP1 REVERT JUMPDEST PUSH1 0x0 PUSH2 0x61E DUP8 DUP8 DUP6 DUP2 DUP2 LT PUSH2 0x611 JUMPI PUSH2 0x610 PUSH2 0x2561 JUMP JUMPDEST JUMPDEST SWAP1 POP PUSH1 0x20 MUL ADD CALLDATALOAD DUP7 PUSH2 0x19D0 JUMP JUMPDEST SWAP1 POP PUSH1 0x0 DUP3 PUSH1 0x40 ADD MLOAD DUP3 PUSH2 0x632 SWAP2 SWAP1 PUSH2 0x2737 JUMP JUMPDEST SWAP1 POP PUSH1 0x4 PUSH1 0x0 DUP8 PUSH20 0xFFFFFFFFFFFFFFFFFFFFFFFFFFFFFFFFFFFFFFFF AND PUSH20 0xFFFFFFFFFFFFFFFFFFFFFFFFFFFFFFFFFFFFFFFF AND DUP2 MSTORE PUSH1 0x20 ADD SWAP1 DUP2 MSTORE PUSH1 0x20 ADD PUSH1 0x0 KECCAK256 PUSH1 0x0 ADD PUSH1 0x0 SWAP1 SLOAD SWAP1 PUSH2 0x100 EXP SWAP1 DIV PUSH20 0xFFFFFFFFFFFFFFFFFFFFFFFFFFFFFFFFFFFFFFFF AND PUSH20 0xFFFFFFFFFFFFFFFFFFFFFFFFFFFFFFFFFFFFFFFF AND PUSH4 0x40C10F19 CALLER DUP4 PUSH1 0x40 MLOAD DUP4 PUSH4 0xFFFFFFFF AND PUSH1 0xE0 SHL DUP2 MSTORE PUSH1 0x4 ADD PUSH2 0x6D1 SWAP3 SWAP2 SWAP1 PUSH2 0x276B JUMP JUMPDEST PUSH1 0x0 PUSH1 0x40 MLOAD DUP1 DUP4 SUB DUP2 PUSH1 0x0 DUP8 DUP1 EXTCODESIZE ISZERO DUP1 ISZERO PUSH2 0x6EB JUMPI PUSH1 0x0 DUP1 REVERT JUMPDEST POP GAS CALL ISZERO DUP1 ISZERO PUSH2 0x6FF JUMPI RETURNDATASIZE PUSH1 0x0 DUP1 RETURNDATACOPY RETURNDATASIZE PUSH1 0x0 REVERT JUMPDEST POP POP POP POP DUP1 DUP6 PUSH2 0x70F SWAP2 SWAP1 PUSH2 0x262B JUMP JUMPDEST SWAP5 POP DUP2 PUSH1 0x3 PUSH1 0x0 DUP9 PUSH20 0xFFFFFFFFFFFFFFFFFFFFFFFFFFFFFFFFFFFFFFFF AND PUSH20 0xFFFFFFFFFFFFFFFFFFFFFFFFFFFFFFFFFFFFFFFF AND DUP2 MSTORE PUSH1 0x20 ADD SWAP1 DUP2 MSTORE PUSH1 0x20 ADD PUSH1 0x0 KECCAK256 PUSH1 0x0 DUP11 DUP11 DUP9 DUP2 DUP2 LT PUSH2 0x766 JUMPI PUSH2 0x765 PUSH2 0x2561 JUMP JUMPDEST JUMPDEST SWAP1 POP PUSH1 0x20 MUL ADD CALLDATALOAD DUP2 MSTORE PUSH1 0x20 ADD SWAP1 DUP2 MSTORE PUSH1 0x20 ADD PUSH1 0x0 KECCAK256 PUSH1 0x2 ADD DUP2 SWAP1 SSTORE POP POP POP POP DUP1 DUP1 PUSH2 0x790 SWAP1 PUSH2 0x2794 JUMP JUMPDEST SWAP2 POP POP PUSH2 0x391 JUMP JUMPDEST POP CALLER PUSH20 0xFFFFFFFFFFFFFFFFFFFFFFFFFFFFFFFFFFFFFFFF AND PUSH32 0x37826BE3C26DBAD83731F4B985F22FA9EF86B6D1974CD77208332B7F1F283C0C DUP6 DUP6 DUP5 PUSH1 0x40 MLOAD PUSH2 0x7E3 SWAP4 SWAP3 SWAP2 SWAP1 PUSH2 0x2857 JUMP JUMPDEST PUSH1 0x40 MLOAD DUP1 SWAP2 SUB SWAP1 LOG2 POP POP POP POP JUMP JUMPDEST PUSH2 0x810 CALLER PUSH20 0xFFFFFFFFFFFFFFFFFFFFFFFFFFFFFFFFFFFFFFFF AND PUSH2 0x19AD JUMP JUMPDEST ISZERO PUSH2 0x850 JUMPI PUSH1 0x40 MLOAD PUSH32 0x8C379A000000000000000000000000000000000000000000000000000000000 DUP2 MSTORE PUSH1 0x4 ADD PUSH2 0x847 SWAP1 PUSH2 0x2469 JUMP JUMPDEST PUSH1 0x40 MLOAD DUP1 SWAP2 SUB SWAP1 REVERT JUMPDEST ORIGIN PUSH20 0xFFFFFFFFFFFFFFFFFFFFFFFFFFFFFFFFFFFFFFFF AND CALLER PUSH20 0xFFFFFFFFFFFFFFFFFFFFFFFFFFFFFFFFFFFFFFFF AND EQ PUSH2 0x8BE JUMPI PUSH1 0x40 MLOAD PUSH32 0x8C379A000000000000000000000000000000000000000000000000000000000 DUP2 MSTORE PUSH1 0x4 ADD PUSH2 0x8B5 SWAP1 PUSH2 0x24D5 JUMP JUMPDEST PUSH1 0x40 MLOAD DUP1 SWAP2 SUB SWAP1 REVERT JUMPDEST PUSH1 0x2 PUSH1 0x1 SLOAD SUB PUSH2 0x903 JUMPI PUSH1 0x40 MLOAD PUSH32 0x8C379A000000000000000000000000000000000000000000000000000000000 DUP2 MSTORE PUSH1 0x4 ADD PUSH2 0x8FA SWAP1 PUSH2 0x28D5 JUMP JUMPDEST PUSH1 0x40 MLOAD DUP1 SWAP2 SUB SWAP1 REVERT JUMPDEST PUSH1 0x2 PUSH1 0x1 DUP2 SWAP1 SSTORE POP PUSH1 0x0 PUSH20 0xFFFFFFFFFFFFFFFFFFFFFFFFFFFFFFFFFFFFFFFF AND PUSH1 0x4 PUSH1 0x0 DUP4 PUSH20 0xFFFFFFFFFFFFFFFFFFFFFFFFFFFFFFFFFFFFFFFF AND PUSH20 0xFFFFFFFFFFFFFFFFFFFFFFFFFFFFFFFFFFFFFFFF AND DUP2 MSTORE PUSH1 0x20 ADD SWAP1 DUP2 MSTORE PUSH1 0x20 ADD PUSH1 0x0 KECCAK256 PUSH1 0x0 ADD PUSH1 0x0 SWAP1 SLOAD SWAP1 PUSH2 0x100 EXP SWAP1 DIV PUSH20 0xFFFFFFFFFFFFFFFFFFFFFFFFFFFFFFFFFFFFFFFF AND PUSH20 0xFFFFFFFFFFFFFFFFFFFFFFFFFFFFFFFFFFFFFFFF AND EQ PUSH2 0x9DC JUMPI PUSH1 0x40 MLOAD PUSH32 0x8C379A000000000000000000000000000000000000000000000000000000000 DUP2 MSTORE PUSH1 0x4 ADD PUSH2 0x9D3 SWAP1 PUSH2 0x2967 JUMP JUMPDEST PUSH1 0x40 MLOAD DUP1 SWAP2 SUB SWAP1 REVERT JUMPDEST PUSH1 0x0 DUP4 DUP4 SWAP1 POP GT PUSH2 0xA22 JUMPI PUSH1 0x40 MLOAD PUSH32 0x8C379A000000000000000000000000000000000000000000000000000000000 DUP2 MSTORE PUSH1 0x4 ADD PUSH2 0xA19 SWAP1 PUSH2 0x2541 JUMP JUMPDEST PUSH1 0x40 MLOAD DUP1 SWAP2 SUB SWAP1 REVERT JUMPDEST PUSH1 0x0 JUMPDEST DUP4 DUP4 SWAP1 POP DUP2 LT ISZERO PUSH2 0xD50 JUMPI CALLER PUSH20 0xFFFFFFFFFFFFFFFFFFFFFFFFFFFFFFFFFFFFFFFF AND DUP3 PUSH20 0xFFFFFFFFFFFFFFFFFFFFFFFFFFFFFFFFFFFFFFFF AND PUSH4 0x6352211E DUP7 DUP7 DUP6 DUP2 DUP2 LT PUSH2 0xA76 JUMPI PUSH2 0xA75 PUSH2 0x2561 JUMP JUMPDEST JUMPDEST SWAP1 POP PUSH1 0x20 MUL ADD CALLDATALOAD PUSH1 0x40 MLOAD DUP3 PUSH4 0xFFFFFFFF AND PUSH1 0xE0 SHL DUP2 MSTORE PUSH1 0x4 ADD PUSH2 0xA99 SWAP2 SWAP1 PUSH2 0x1E5A JUMP JUMPDEST PUSH1 0x20 PUSH1 0x40 MLOAD DUP1 DUP4 SUB DUP2 DUP7 GAS STATICCALL ISZERO DUP1 ISZERO PUSH2 0xAB6 JUMPI RETURNDATASIZE PUSH1 0x0 DUP1 RETURNDATACOPY RETURNDATASIZE PUSH1 0x0 REVERT JUMPDEST POP POP POP POP PUSH1 0x40 MLOAD RETURNDATASIZE PUSH1 0x1F NOT PUSH1 0x1F DUP3 ADD AND DUP3 ADD DUP1 PUSH1 0x40 MSTORE POP DUP2 ADD SWAP1 PUSH2 0xADA SWAP2 SWAP1 PUSH2 0x299C JUMP JUMPDEST PUSH20 0xFFFFFFFFFFFFFFFFFFFFFFFFFFFFFFFFFFFFFFFF AND EQ PUSH2 0xB30 JUMPI PUSH1 0x40 MLOAD PUSH32 0x8C379A000000000000000000000000000000000000000000000000000000000 DUP2 MSTORE PUSH1 0x4 ADD PUSH2 0xB27 SWAP1 PUSH2 0x2A15 JUMP JUMPDEST PUSH1 0x40 MLOAD DUP1 SWAP2 SUB SWAP1 REVERT JUMPDEST DUP2 PUSH20 0xFFFFFFFFFFFFFFFFFFFFFFFFFFFFFFFFFFFFFFFF AND PUSH4 0x23B872DD CALLER ADDRESS DUP8 DUP8 DUP7 DUP2 DUP2 LT PUSH2 0xB61 JUMPI PUSH2 0xB60 PUSH2 0x2561 JUMP JUMPDEST JUMPDEST SWAP1 POP PUSH1 0x20 MUL ADD CALLDATALOAD PUSH1 0x40 MLOAD DUP5 PUSH4 0xFFFFFFFF AND PUSH1 0xE0 SHL DUP2 MSTORE PUSH1 0x4 ADD PUSH2 0xB86 SWAP4 SWAP3 SWAP2 SWAP1 PUSH2 0x2A35 JUMP JUMPDEST PUSH1 0x0 PUSH1 0x40 MLOAD DUP1 DUP4 SUB DUP2 PUSH1 0x0 DUP8 DUP1 EXTCODESIZE ISZERO DUP1 ISZERO PUSH2 0xBA0 JUMPI PUSH1 0x0 DUP1 REVERT JUMPDEST POP GAS CALL ISZERO DUP1 ISZERO PUSH2 0xBB4 JUMPI RETURNDATASIZE PUSH1 0x0 DUP1 RETURNDATACOPY RETURNDATASIZE PUSH1 0x0 REVERT JUMPDEST POP POP POP POP PUSH1 0x40 MLOAD DUP1 PUSH1 0xA0 ADD PUSH1 0x40 MSTORE DUP1 CALLER PUSH20 0xFFFFFFFFFFFFFFFFFFFFFFFFFFFFFFFFFFFFFFFF AND DUP2 MSTORE PUSH1 0x20 ADD TIMESTAMP DUP2 MSTORE PUSH1 0x20 ADD PUSH1 0x0 DUP2 MSTORE PUSH1 0x20 ADD PUSH1 0x0 ISZERO ISZERO DUP2 MSTORE PUSH1 0x20 ADD DUP4 PUSH20 0xFFFFFFFFFFFFFFFFFFFFFFFFFFFFFFFFFFFFFFFF AND DUP2 MSTORE POP PUSH1 0x3 PUSH1 0x0 DUP5 PUSH20 0xFFFFFFFFFFFFFFFFFFFFFFFFFFFFFFFFFFFFFFFF AND PUSH20 0xFFFFFFFFFFFFFFFFFFFFFFFFFFFFFFFFFFFFFFFF AND DUP2 MSTORE PUSH1 0x20 ADD SWAP1 DUP2 MSTORE PUSH1 0x20 ADD PUSH1 0x0 KECCAK256 PUSH1 0x0 DUP7 DUP7 DUP6 DUP2 DUP2 LT PUSH2 0xC63 JUMPI PUSH2 0xC62 PUSH2 0x2561 JUMP JUMPDEST JUMPDEST SWAP1 POP PUSH1 0x20 MUL ADD CALLDATALOAD DUP2 MSTORE PUSH1 0x20 ADD SWAP1 DUP2 MSTORE PUSH1 0x20 ADD PUSH1 0x0 KECCAK256 PUSH1 0x0 DUP3 ADD MLOAD DUP2 PUSH1 0x0 ADD PUSH1 0x0 PUSH2 0x100 EXP DUP2 SLOAD DUP2 PUSH20 0xFFFFFFFFFFFFFFFFFFFFFFFFFFFFFFFFFFFFFFFF MUL NOT AND SWAP1 DUP4 PUSH20 0xFFFFFFFFFFFFFFFFFFFFFFFFFFFFFFFFFFFFFFFF AND MUL OR SWAP1 SSTORE POP PUSH1 0x20 DUP3 ADD MLOAD DUP2 PUSH1 0x1 ADD SSTORE PUSH1 0x40 DUP3 ADD MLOAD DUP2 PUSH1 0x2 ADD SSTORE PUSH1 0x60 DUP3 ADD MLOAD DUP2 PUSH1 0x3 ADD PUSH1 0x0 PUSH2 0x100 EXP DUP2 SLOAD DUP2 PUSH1 0xFF MUL NOT AND SWAP1 DUP4 ISZERO ISZERO MUL OR SWAP1 SSTORE POP PUSH1 0x80 DUP3 ADD MLOAD DUP2 PUSH1 0x3 ADD PUSH1 0x1 PUSH2 0x100 EXP DUP2 SLOAD DUP2 PUSH20 0xFFFFFFFFFFFFFFFFFFFFFFFFFFFFFFFFFFFFFFFF MUL NOT AND SWAP1 DUP4 PUSH20 0xFFFFFFFFFFFFFFFFFFFFFFFFFFFFFFFFFFFFFFFF AND MUL OR SWAP1 SSTORE POP SWAP1 POP POP DUP1 DUP1 PUSH2 0xD48 SWAP1 PUSH2 0x2794 JUMP JUMPDEST SWAP2 POP POP PUSH2 0xA25 JUMP JUMPDEST POP CALLER PUSH20 0xFFFFFFFFFFFFFFFFFFFFFFFFFFFFFFFFFFFFFFFF AND PUSH32 0x458BE0227BCCC9E803DEC79BD16767EEAF9925D2CE708EEED7AE1F3621F968F9 DUP5 DUP5 PUSH1 0x40 MLOAD PUSH2 0xD99 SWAP3 SWAP2 SWAP1 PUSH2 0x2A6C JUMP JUMPDEST PUSH1 0x40 MLOAD DUP1 SWAP2 SUB SWAP1 LOG2 PUSH1 0x1 DUP1 DUP2 SWAP1 SSTORE POP POP POP POP JUMP JUMPDEST PUSH1 0x2 SLOAD DUP2 JUMP JUMPDEST PUSH2 0xDBB PUSH2 0x1BAE JUMP JUMPDEST PUSH2 0xDC5 PUSH1 0x0 PUSH2 0x1C2C JUMP JUMPDEST JUMP JUMPDEST PUSH1 0x0 DUP1 PUSH1 0x0 SWAP1 SLOAD SWAP1 PUSH2 0x100 EXP SWAP1 DIV PUSH20 0xFFFFFFFFFFFFFFFFFFFFFFFFFFFFFFFFFFFFFFFF AND SWAP1 POP SWAP1 JUMP JUMPDEST PUSH2 0xE0F CALLER PUSH20 0xFFFFFFFFFFFFFFFFFFFFFFFFFFFFFFFFFFFFFFFF AND PUSH2 0x19AD JUMP JUMPDEST ISZERO PUSH2 0xE4F JUMPI PUSH1 0x40 MLOAD PUSH32 0x8C379A000000000000000000000000000000000000000000000000000000000 DUP2 MSTORE PUSH1 0x4 ADD PUSH2 0xE46 SWAP1 PUSH2 0x2469 JUMP JUMPDEST PUSH1 0x40 MLOAD DUP1 SWAP2 SUB SWAP1 REVERT JUMPDEST ORIGIN PUSH20 0xFFFFFFFFFFFFFFFFFFFFFFFFFFFFFFFFFFFFFFFF AND CALLER PUSH20 0xFFFFFFFFFFFFFFFFFFFFFFFFFFFFFFFFFFFFFFFF AND EQ PUSH2 0xEBD JUMPI PUSH1 0x40 MLOAD PUSH32 0x8C379A000000000000000000000000000000000000000000000000000000000 DUP2 MSTORE PUSH1 0x4 ADD PUSH2 0xEB4 SWAP1 PUSH2 0x24D5 JUMP JUMPDEST PUSH1 0x40 MLOAD DUP1 SWAP2 SUB SWAP1 REVERT JUMPDEST PUSH1 0x2 PUSH1 0x1 SLOAD SUB PUSH2 0xF02 JUMPI PUSH1 0x40 MLOAD PUSH32 0x8C379A000000000000000000000000000000000000000000000000000000000 DUP2 MSTORE PUSH1 0x4 ADD PUSH2 0xEF9 SWAP1 PUSH2 0x28D5 JUMP JUMPDEST PUSH1 0x40 MLOAD DUP1 SWAP2 SUB SWAP1 REVERT JUMPDEST PUSH1 0x2 PUSH1 0x1 DUP2 SWAP1 SSTORE POP PUSH1 0x0 PUSH20 0xFFFFFFFFFFFFFFFFFFFFFFFFFFFFFFFFFFFFFFFF AND PUSH1 0x4 PUSH1 0x0 DUP4 PUSH20 0xFFFFFFFFFFFFFFFFFFFFFFFFFFFFFFFFFFFFFFFF AND PUSH20 0xFFFFFFFFFFFFFFFFFFFFFFFFFFFFFFFFFFFFFFFF AND DUP2 MSTORE PUSH1 0x20 ADD SWAP1 DUP2 MSTORE PUSH1 0x20 ADD PUSH1 0x0 KECCAK256 PUSH1 0x0 ADD PUSH1 0x0 SWAP1 SLOAD SWAP1 PUSH2 0x100 EXP SWAP1 DIV PUSH20 0xFFFFFFFFFFFFFFFFFFFFFFFFFFFFFFFFFFFFFFFF AND PUSH20 0xFFFFFFFFFFFFFFFFFFFFFFFFFFFFFFFFFFFFFFFF AND EQ PUSH2 0xFDB JUMPI PUSH1 0x40 MLOAD PUSH32 0x8C379A000000000000000000000000000000000000000000000000000000000 DUP2 MSTORE PUSH1 0x4 ADD PUSH2 0xFD2 SWAP1 PUSH2 0x2967 JUMP JUMPDEST PUSH1 0x40 MLOAD DUP1 SWAP2 SUB SWAP1 REVERT JUMPDEST PUSH1 0x0 DUP4 DUP4 SWAP1 POP GT PUSH2 0x1021 JUMPI PUSH1 0x40 MLOAD PUSH32 0x8C379A000000000000000000000000000000000000000000000000000000000 DUP2 MSTORE PUSH1 0x4 ADD PUSH2 0x1018 SWAP1 PUSH2 0x2541 JUMP JUMPDEST PUSH1 0x40 MLOAD DUP1 SWAP2 SUB SWAP1 REVERT JUMPDEST PUSH1 0x0 JUMPDEST DUP4 DUP4 SWAP1 POP DUP2 LT ISZERO PUSH2 0x152A JUMPI PUSH1 0x0 PUSH1 0x3 PUSH1 0x0 DUP5 PUSH20 0xFFFFFFFFFFFFFFFFFFFFFFFFFFFFFFFFFFFFFFFF AND PUSH20 0xFFFFFFFFFFFFFFFFFFFFFFFFFFFFFFFFFFFFFFFF AND DUP2 MSTORE PUSH1 0x20 ADD SWAP1 DUP2 MSTORE PUSH1 0x20 ADD PUSH1 0x0 KECCAK256 PUSH1 0x0 DUP7 DUP7 DUP6 DUP2 DUP2 LT PUSH2 0x1085 JUMPI PUSH2 0x1084 PUSH2 0x2561 JUMP JUMPDEST JUMPDEST SWAP1 POP PUSH1 0x20 MUL ADD CALLDATALOAD DUP2 MSTORE PUSH1 0x20 ADD SWAP1 DUP2 MSTORE PUSH1 0x20 ADD PUSH1 0x0 KECCAK256 PUSH1 0x40 MLOAD DUP1 PUSH1 0xA0 ADD PUSH1 0x40 MSTORE SWAP1 DUP2 PUSH1 0x0 DUP3 ADD PUSH1 0x0 SWAP1 SLOAD SWAP1 PUSH2 0x100 EXP SWAP1 DIV PUSH20 0xFFFFFFFFFFFFFFFFFFFFFFFFFFFFFFFFFFFFFFFF AND PUSH20 0xFFFFFFFFFFFFFFFFFFFFFFFFFFFFFFFFFFFFFFFF AND PUSH20 0xFFFFFFFFFFFFFFFFFFFFFFFFFFFFFFFFFFFFFFFF AND DUP2 MSTORE PUSH1 0x20 ADD PUSH1 0x1 DUP3 ADD SLOAD DUP2 MSTORE PUSH1 0x20 ADD PUSH1 0x2 DUP3 ADD SLOAD DUP2 MSTORE PUSH1 0x20 ADD PUSH1 0x3 DUP3 ADD PUSH1 0x0 SWAP1 SLOAD SWAP1 PUSH2 0x100 EXP SWAP1 DIV PUSH1 0xFF AND ISZERO ISZERO ISZERO ISZERO DUP2 MSTORE PUSH1 0x20 ADD PUSH1 0x3 DUP3 ADD PUSH1 0x1 SWAP1 SLOAD SWAP1 PUSH2 0x100 EXP SWAP1 DIV PUSH20 0xFFFFFFFFFFFFFFFFFFFFFFFFFFFFFFFFFFFFFFFF AND PUSH20 0xFFFFFFFFFFFFFFFFFFFFFFFFFFFFFFFFFFFFFFFF AND PUSH20 0xFFFFFFFFFFFFFFFFFFFFFFFFFFFFFFFFFFFFFFFF AND DUP2 MSTORE POP POP SWAP1 POP CALLER PUSH20 0xFFFFFFFFFFFFFFFFFFFFFFFFFFFFFFFFFFFFFFFF AND DUP2 PUSH1 0x0 ADD MLOAD PUSH20 0xFFFFFFFFFFFFFFFFFFFFFFFFFFFFFFFFFFFFFFFF AND EQ PUSH2 0x11F4 JUMPI PUSH1 0x40 MLOAD PUSH32 0x8C379A000000000000000000000000000000000000000000000000000000000 DUP2 MSTORE PUSH1 0x4 ADD PUSH2 0x11EB SWAP1 PUSH2 0x25DC JUMP JUMPDEST PUSH1 0x40 MLOAD DUP1 SWAP2 SUB SWAP1 REVERT JUMPDEST TIMESTAMP PUSH1 0x2 SLOAD DUP3 PUSH1 0x20 ADD MLOAD PUSH2 0x1207 SWAP2 SWAP1 PUSH2 0x262B JUMP JUMPDEST LT PUSH2 0x1247 JUMPI PUSH1 0x40 MLOAD PUSH32 0x8C379A000000000000000000000000000000000000000000000000000000000 DUP2 MSTORE PUSH1 0x4 ADD PUSH2 0x123E SWAP1 PUSH2 0x2ADC JUMP JUMPDEST PUSH1 0x40 MLOAD DUP1 SWAP2 SUB SWAP1 REVERT JUMPDEST DUP1 PUSH1 0x60 ADD MLOAD ISZERO PUSH2 0x128C JUMPI PUSH1 0x40 MLOAD PUSH32 0x8C379A000000000000000000000000000000000000000000000000000000000 DUP2 MSTORE PUSH1 0x4 ADD PUSH2 0x1283 SWAP1 PUSH2 0x2717 JUMP JUMPDEST PUSH1 0x40 MLOAD DUP1 SWAP2 SUB SWAP1 REVERT JUMPDEST DUP3 PUSH20 0xFFFFFFFFFFFFFFFFFFFFFFFFFFFFFFFFFFFFFFFF AND PUSH4 0x23B872DD ADDRESS CALLER DUP9 DUP9 DUP8 DUP2 DUP2 LT PUSH2 0x12BD JUMPI PUSH2 0x12BC PUSH2 0x2561 JUMP JUMPDEST JUMPDEST SWAP1 POP PUSH1 0x20 MUL ADD CALLDATALOAD PUSH1 0x40 MLOAD DUP5 PUSH4 0xFFFFFFFF AND PUSH1 0xE0 SHL DUP2 MSTORE PUSH1 0x4 ADD PUSH2 0x12E2 SWAP4 SWAP3 SWAP2 SWAP1 PUSH2 0x2A35 JUMP JUMPDEST PUSH1 0x0 PUSH1 0x40 MLOAD DUP1 DUP4 SUB DUP2 PUSH1 0x0 DUP8 DUP1 EXTCODESIZE ISZERO DUP1 ISZERO PUSH2 0x12FC JUMPI PUSH1 0x0 DUP1 REVERT JUMPDEST POP GAS CALL ISZERO DUP1 ISZERO PUSH2 0x1310 JUMPI RETURNDATASIZE PUSH1 0x0 DUP1 RETURNDATACOPY RETURNDATASIZE PUSH1 0x0 REVERT JUMPDEST POP POP POP POP PUSH1 0x0 PUSH2 0x1339 DUP7 DUP7 DUP6 DUP2 DUP2 LT PUSH2 0x132C JUMPI PUSH2 0x132B PUSH2 0x2561 JUMP JUMPDEST JUMPDEST SWAP1 POP PUSH1 0x20 MUL ADD CALLDATALOAD DUP6 PUSH2 0x19D0 JUMP JUMPDEST SWAP1 POP PUSH1 0x0 DUP3 PUSH1 0x40 ADD MLOAD DUP3 PUSH2 0x134D SWAP2 SWAP1 PUSH2 0x2737 JUMP JUMPDEST SWAP1 POP PUSH1 0x4 PUSH1 0x0 DUP7 PUSH20 0xFFFFFFFFFFFFFFFFFFFFFFFFFFFFFFFFFFFFFFFF AND PUSH20 0xFFFFFFFFFFFFFFFFFFFFFFFFFFFFFFFFFFFFFFFF AND DUP2 MSTORE PUSH1 0x20 ADD SWAP1 DUP2 MSTORE PUSH1 0x20 ADD PUSH1 0x0 KECCAK256 PUSH1 0x0 ADD PUSH1 0x0 SWAP1 SLOAD SWAP1 PUSH2 0x100 EXP SWAP1 DIV PUSH20 0xFFFFFFFFFFFFFFFFFFFFFFFFFFFFFFFFFFFFFFFF AND PUSH20 0xFFFFFFFFFFFFFFFFFFFFFFFFFFFFFFFFFFFFFFFF AND PUSH4 0x40C10F19 CALLER DUP4 PUSH1 0x40 MLOAD DUP4 PUSH4 0xFFFFFFFF AND PUSH1 0xE0 SHL DUP2 MSTORE PUSH1 0x4 ADD PUSH2 0x13EC SWAP3 SWAP2 SWAP1 PUSH2 0x276B JUMP JUMPDEST PUSH1 0x0 PUSH1 0x40 MLOAD DUP1 DUP4 SUB DUP2 PUSH1 0x0 DUP8 DUP1 EXTCODESIZE ISZERO DUP1 ISZERO PUSH2 0x1406 JUMPI PUSH1 0x0 DUP1 REVERT JUMPDEST POP GAS CALL ISZERO DUP1 ISZERO PUSH2 0x141A JUMPI RETURNDATASIZE PUSH1 0x0 DUP1 RETURNDATACOPY RETURNDATASIZE PUSH1 0x0 REVERT JUMPDEST POP POP POP POP DUP2 PUSH1 0x3 PUSH1 0x0 DUP8 PUSH20 0xFFFFFFFFFFFFFFFFFFFFFFFFFFFFFFFFFFFFFFFF AND PUSH20 0xFFFFFFFFFFFFFFFFFFFFFFFFFFFFFFFFFFFFFFFF AND DUP2 MSTORE PUSH1 0x20 ADD SWAP1 DUP2 MSTORE PUSH1 0x20 ADD PUSH1 0x0 KECCAK256 PUSH1 0x0 DUP10 DUP10 DUP9 DUP2 DUP2 LT PUSH2 0x1473 JUMPI PUSH2 0x1472 PUSH2 0x2561 JUMP JUMPDEST JUMPDEST SWAP1 POP PUSH1 0x20 MUL ADD CALLDATALOAD DUP2 MSTORE PUSH1 0x20 ADD SWAP1 DUP2 MSTORE PUSH1 0x20 ADD PUSH1 0x0 KECCAK256 PUSH1 0x2 ADD DUP2 SWAP1 SSTORE POP PUSH1 0x1 PUSH1 0x3 PUSH1 0x0 DUP8 PUSH20 0xFFFFFFFFFFFFFFFFFFFFFFFFFFFFFFFFFFFFFFFF AND PUSH20 0xFFFFFFFFFFFFFFFFFFFFFFFFFFFFFFFFFFFFFFFF AND DUP2 MSTORE PUSH1 0x20 ADD SWAP1 DUP2 MSTORE PUSH1 0x20 ADD PUSH1 0x0 KECCAK256 PUSH1 0x0 DUP10 DUP10 DUP9 DUP2 DUP2 LT PUSH2 0x14E5 JUMPI PUSH2 0x14E4 PUSH2 0x2561 JUMP JUMPDEST JUMPDEST SWAP1 POP PUSH1 0x20 MUL ADD CALLDATALOAD DUP2 MSTORE PUSH1 0x20 ADD SWAP1 DUP2 MSTORE PUSH1 0x20 ADD PUSH1 0x0 KECCAK256 PUSH1 0x3 ADD PUSH1 0x0 PUSH2 0x100 EXP DUP2 SLOAD DUP2 PUSH1 0xFF MUL NOT AND SWAP1 DUP4 ISZERO ISZERO MUL OR SWAP1 SSTORE POP POP POP POP DUP1 DUP1 PUSH2 0x1522 SWAP1 PUSH2 0x2794 JUMP JUMPDEST SWAP2 POP POP PUSH2 0x1024 JUMP JUMPDEST POP CALLER PUSH20 0xFFFFFFFFFFFFFFFFFFFFFFFFFFFFFFFFFFFFFFFF AND PUSH32 0x5CB48022479B9AC3BFB10A27965DC010ACFFC9FC1BC9A52F0B18975B944B54CA DUP5 DUP5 PUSH1 0x40 MLOAD PUSH2 0x1573 SWAP3 SWAP2 SWAP1 PUSH2 0x2A6C JUMP JUMPDEST PUSH1 0x40 MLOAD DUP1 SWAP2 SUB SWAP1 LOG2 PUSH1 0x1 DUP1 DUP2 SWAP1 SSTORE POP POP POP POP JUMP JUMPDEST PUSH1 0x3 PUSH1 0x20 MSTORE DUP2 PUSH1 0x0 MSTORE PUSH1 0x40 PUSH1 0x0 KECCAK256 PUSH1 0x20 MSTORE DUP1 PUSH1 0x0 MSTORE PUSH1 0x40 PUSH1 0x0 KECCAK256 PUSH1 0x0 SWAP2 POP SWAP2 POP POP DUP1 PUSH1 0x0 ADD PUSH1 0x0 SWAP1 SLOAD SWAP1 PUSH2 0x100 EXP SWAP1 DIV PUSH20 0xFFFFFFFFFFFFFFFFFFFFFFFFFFFFFFFFFFFFFFFF AND SWAP1 DUP1 PUSH1 0x1 ADD SLOAD SWAP1 DUP1 PUSH1 0x2 ADD SLOAD SWAP1 DUP1 PUSH1 0x3 ADD PUSH1 0x0 SWAP1 SLOAD SWAP1 PUSH2 0x100 EXP SWAP1 DIV PUSH1 0xFF AND SWAP1 DUP1 PUSH1 0x3 ADD PUSH1 0x1 SWAP1 SLOAD SWAP1 PUSH2 0x100 EXP SWAP1 DIV PUSH20 0xFFFFFFFFFFFFFFFFFFFFFFFFFFFFFFFFFFFFFFFF AND SWAP1 POP DUP6 JUMP JUMPDEST PUSH1 0x0 PUSH1 0x3 PUSH1 0x0 DUP4 PUSH20 0xFFFFFFFFFFFFFFFFFFFFFFFFFFFFFFFFFFFFFFFF AND PUSH20 0xFFFFFFFFFFFFFFFFFFFFFFFFFFFFFFFFFFFFFFFF AND DUP2 MSTORE PUSH1 0x20 ADD SWAP1 DUP2 MSTORE PUSH1 0x20 ADD PUSH1 0x0 KECCAK256 PUSH1 0x0 DUP5 DUP2 MSTORE PUSH1 0x20 ADD SWAP1 DUP2 MSTORE PUSH1 0x20 ADD PUSH1 0x0 KECCAK256 PUSH1 0x2 ADD SLOAD SWAP1 POP SWAP3 SWAP2 POP POP JUMP JUMPDEST PUSH1 0x5 SLOAD DUP2 JUMP JUMPDEST PUSH1 0x4 PUSH1 0x20 MSTORE DUP1 PUSH1 0x0 MSTORE PUSH1 0x40 PUSH1 0x0 KECCAK256 PUSH1 0x0 SWAP2 POP SWAP1 POP DUP1 PUSH1 0x0 ADD PUSH1 0x0 SWAP1 SLOAD SWAP1 PUSH2 0x100 EXP SWAP1 DIV PUSH20 0xFFFFFFFFFFFFFFFFFFFFFFFFFFFFFFFFFFFFFFFF AND SWAP1 DUP1 PUSH1 0x1 ADD SLOAD SWAP1 DUP1 PUSH1 0x2 ADD SLOAD SWAP1 POP DUP4 JUMP JUMPDEST PUSH2 0x16CD PUSH2 0x1BAE JUMP JUMPDEST PUSH1 0x0 DUP2 GT PUSH2 0x1710 JUMPI PUSH1 0x40 MLOAD PUSH32 0x8C379A000000000000000000000000000000000000000000000000000000000 DUP2 MSTORE PUSH1 0x4 ADD PUSH2 0x1707 SWAP1 PUSH2 0x2B48 JUMP JUMPDEST PUSH1 0x40 MLOAD DUP1 SWAP2 SUB SWAP1 REVERT JUMPDEST DUP1 PUSH1 0x2 DUP2 SWAP1 SSTORE POP PUSH32 0x8249EC545E68F6F1E1230133CA48C704D831A7F8E635DED80F3DD9E99B09BB2F DUP2 PUSH1 0x40 MLOAD PUSH2 0x1746 SWAP2 SWAP1 PUSH2 0x1E5A JUMP JUMPDEST PUSH1 0x40 MLOAD DUP1 SWAP2 SUB SWAP1 LOG1 POP JUMP JUMPDEST PUSH2 0x1759 PUSH2 0x1BAE JUMP JUMPDEST PUSH1 0x0 JUMPDEST DUP5 MLOAD DUP2 LT ISZERO PUSH2 0x1923 JUMPI DUP4 DUP2 DUP2 MLOAD DUP2 LT PUSH2 0x1778 JUMPI PUSH2 0x1777 PUSH2 0x2561 JUMP JUMPDEST JUMPDEST PUSH1 0x20 MUL PUSH1 0x20 ADD ADD MLOAD PUSH1 0x4 PUSH1 0x0 DUP8 DUP5 DUP2 MLOAD DUP2 LT PUSH2 0x1797 JUMPI PUSH2 0x1796 PUSH2 0x2561 JUMP JUMPDEST JUMPDEST PUSH1 0x20 MUL PUSH1 0x20 ADD ADD MLOAD PUSH20 0xFFFFFFFFFFFFFFFFFFFFFFFFFFFFFFFFFFFFFFFF AND PUSH20 0xFFFFFFFFFFFFFFFFFFFFFFFFFFFFFFFFFFFFFFFF AND DUP2 MSTORE PUSH1 0x20 ADD SWAP1 DUP2 MSTORE PUSH1 0x20 ADD PUSH1 0x0 KECCAK256 PUSH1 0x0 ADD PUSH1 0x0 PUSH2 0x100 EXP DUP2 SLOAD DUP2 PUSH20 0xFFFFFFFFFFFFFFFFFFFFFFFFFFFFFFFFFFFFFFFF MUL NOT AND SWAP1 DUP4 PUSH20 0xFFFFFFFFFFFFFFFFFFFFFFFFFFFFFFFFFFFFFFFF AND MUL OR SWAP1 SSTORE POP DUP3 DUP2 DUP2 MLOAD DUP2 LT PUSH2 0x182D JUMPI PUSH2 0x182C PUSH2 0x2561 JUMP JUMPDEST JUMPDEST PUSH1 0x20 MUL PUSH1 0x20 ADD ADD MLOAD PUSH1 0x4 PUSH1 0x0 DUP8 DUP5 DUP2 MLOAD DUP2 LT PUSH2 0x184C JUMPI PUSH2 0x184B PUSH2 0x2561 JUMP JUMPDEST JUMPDEST PUSH1 0x20 MUL PUSH1 0x20 ADD ADD MLOAD PUSH20 0xFFFFFFFFFFFFFFFFFFFFFFFFFFFFFFFFFFFFFFFF AND PUSH20 0xFFFFFFFFFFFFFFFFFFFFFFFFFFFFFFFFFFFFFFFF AND DUP2 MSTORE PUSH1 0x20 ADD SWAP1 DUP2 MSTORE PUSH1 0x20 ADD PUSH1 0x0 KECCAK256 PUSH1 0x1 ADD DUP2 SWAP1 SSTORE POP DUP2 DUP2 DUP2 MLOAD DUP2 LT PUSH2 0x18A8 JUMPI PUSH2 0x18A7 PUSH2 0x2561 JUMP JUMPDEST JUMPDEST PUSH1 0x20 MUL PUSH1 0x20 ADD ADD MLOAD PUSH1 0x4 PUSH1 0x0 DUP8 DUP5 DUP2 MLOAD DUP2 LT PUSH2 0x18C7 JUMPI PUSH2 0x18C6 PUSH2 0x2561 JUMP JUMPDEST JUMPDEST PUSH1 0x20 MUL PUSH1 0x20 ADD ADD MLOAD PUSH20 0xFFFFFFFFFFFFFFFFFFFFFFFFFFFFFFFFFFFFFFFF AND PUSH20 0xFFFFFFFFFFFFFFFFFFFFFFFFFFFFFFFFFFFFFFFF AND DUP2 MSTORE PUSH1 0x20 ADD SWAP1 DUP2 MSTORE PUSH1 0x20 ADD PUSH1 0x0 KECCAK256 PUSH1 0x2 ADD DUP2 SWAP1 SSTORE POP DUP1 DUP1 PUSH2 0x191B SWAP1 PUSH2 0x2794 JUMP JUMPDEST SWAP2 POP POP PUSH2 0x175C JUMP JUMPDEST POP POP POP POP POP JUMP JUMPDEST PUSH2 0x1932 PUSH2 0x1BAE JUMP JUMPDEST PUSH1 0x0 PUSH20 0xFFFFFFFFFFFFFFFFFFFFFFFFFFFFFFFFFFFFFFFF AND DUP2 PUSH20 0xFFFFFFFFFFFFFFFFFFFFFFFFFFFFFFFFFFFFFFFF AND SUB PUSH2 0x19A1 JUMPI PUSH1 0x40 MLOAD PUSH32 0x8C379A000000000000000000000000000000000000000000000000000000000 DUP2 MSTORE PUSH1 0x4 ADD PUSH2 0x1998 SWAP1 PUSH2 0x2BDA JUMP JUMPDEST PUSH1 0x40 MLOAD DUP1 SWAP2 SUB SWAP1 REVERT JUMPDEST PUSH2 0x19AA DUP2 PUSH2 0x1C2C JUMP JUMPDEST POP JUMP JUMPDEST PUSH1 0x0 DUP1 DUP3 PUSH20 0xFFFFFFFFFFFFFFFFFFFFFFFFFFFFFFFFFFFFFFFF AND EXTCODESIZE GT SWAP1 POP SWAP2 SWAP1 POP JUMP JUMPDEST PUSH1 0x0 DUP1 PUSH1 0x3 PUSH1 0x0 DUP5 PUSH20 0xFFFFFFFFFFFFFFFFFFFFFFFFFFFFFFFFFFFFFFFF AND PUSH20 0xFFFFFFFFFFFFFFFFFFFFFFFFFFFFFFFFFFFFFFFF AND DUP2 MSTORE PUSH1 0x20 ADD SWAP1 DUP2 MSTORE PUSH1 0x20 ADD PUSH1 0x0 KECCAK256 PUSH1 0x0 DUP6 DUP2 MSTORE PUSH1 0x20 ADD SWAP1 DUP2 MSTORE PUSH1 0x20 ADD PUSH1 0x0 KECCAK256 PUSH1 0x40 MLOAD DUP1 PUSH1 0xA0 ADD PUSH1 0x40 MSTORE SWAP1 DUP2 PUSH1 0x0 DUP3 ADD PUSH1 0x0 SWAP1 SLOAD SWAP1 PUSH2 0x100 EXP SWAP1 DIV PUSH20 0xFFFFFFFFFFFFFFFFFFFFFFFFFFFFFFFFFFFFFFFF AND PUSH20 0xFFFFFFFFFFFFFFFFFFFFFFFFFFFFFFFFFFFFFFFF AND PUSH20 0xFFFFFFFFFFFFFFFFFFFFFFFFFFFFFFFFFFFFFFFF AND DUP2 MSTORE PUSH1 0x20 ADD PUSH1 0x1 DUP3 ADD SLOAD DUP2 MSTORE PUSH1 0x20 ADD PUSH1 0x2 DUP3 ADD SLOAD DUP2 MSTORE PUSH1 0x20 ADD PUSH1 0x3 DUP3 ADD PUSH1 0x0 SWAP1 SLOAD SWAP1 PUSH2 0x100 EXP SWAP1 DIV PUSH1 0xFF AND ISZERO ISZERO ISZERO ISZERO DUP2 MSTORE PUSH1 0x20 ADD PUSH1 0x3 DUP3 ADD PUSH1 0x1 SWAP1 SLOAD SWAP1 PUSH2 0x100 EXP SWAP1 DIV PUSH20 0xFFFFFFFFFFFFFFFFFFFFFFFFFFFFFFFFFFFFFFFF AND PUSH20 0xFFFFFFFFFFFFFFFFFFFFFFFFFFFFFFFFFFFFFFFF AND PUSH20 0xFFFFFFFFFFFFFFFFFFFFFFFFFFFFFFFFFFFFFFFF AND DUP2 MSTORE POP POP SWAP1 POP PUSH1 0x0 DUP2 PUSH1 0x20 ADD MLOAD TIMESTAMP PUSH2 0x1B1D SWAP2 SWAP1 PUSH2 0x2737 JUMP JUMPDEST SWAP1 POP PUSH1 0x0 PUSH1 0x2 SLOAD DUP3 LT ISZERO PUSH2 0x1B37 JUMPI PUSH1 0x0 SWAP4 POP POP POP POP PUSH2 0x1BA8 JUMP JUMPDEST PUSH1 0x5 SLOAD PUSH1 0x2 SLOAD DUP4 PUSH2 0x1B48 SWAP2 SWAP1 PUSH2 0x2737 JUMP JUMPDEST PUSH1 0x4 PUSH1 0x0 DUP9 PUSH20 0xFFFFFFFFFFFFFFFFFFFFFFFFFFFFFFFFFFFFFFFF AND PUSH20 0xFFFFFFFFFFFFFFFFFFFFFFFFFFFFFFFFFFFFFFFF AND DUP2 MSTORE PUSH1 0x20 ADD SWAP1 DUP2 MSTORE PUSH1 0x20 ADD PUSH1 0x0 KECCAK256 PUSH1 0x1 ADD SLOAD PUSH2 0x1B95 SWAP2 SWAP1 PUSH2 0x2BFA JUMP JUMPDEST PUSH2 0x1B9F SWAP2 SWAP1 PUSH2 0x2C83 JUMP JUMPDEST SWAP1 POP DUP1 SWAP4 POP POP POP POP JUMPDEST SWAP3 SWAP2 POP POP JUMP JUMPDEST PUSH2 0x1BB6 PUSH2 0x1CF0 JUMP JUMPDEST PUSH20 0xFFFFFFFFFFFFFFFFFFFFFFFFFFFFFFFFFFFFFFFF AND PUSH2 0x1BD4 PUSH2 0xDC7 JUMP JUMPDEST PUSH20 0xFFFFFFFFFFFFFFFFFFFFFFFFFFFFFFFFFFFFFFFF AND EQ PUSH2 0x1C2A JUMPI PUSH1 0x40 MLOAD PUSH32 0x8C379A000000000000000000000000000000000000000000000000000000000 DUP2 MSTORE PUSH1 0x4 ADD PUSH2 0x1C21 SWAP1 PUSH2 0x2D00 JUMP JUMPDEST PUSH1 0x40 MLOAD DUP1 SWAP2 SUB SWAP1 REVERT JUMPDEST JUMP JUMPDEST PUSH1 0x0 DUP1 PUSH1 0x0 SWAP1 SLOAD SWAP1 PUSH2 0x100 EXP SWAP1 DIV PUSH20 0xFFFFFFFFFFFFFFFFFFFFFFFFFFFFFFFFFFFFFFFF AND SWAP1 POP DUP2 PUSH1 0x0 DUP1 PUSH2 0x100 EXP DUP2 SLOAD DUP2 PUSH20 0xFFFFFFFFFFFFFFFFFFFFFFFFFFFFFFFFFFFFFFFF MUL NOT AND SWAP1 DUP4 PUSH20 0xFFFFFFFFFFFFFFFFFFFFFFFFFFFFFFFFFFFFFFFF AND MUL OR SWAP1 SSTORE POP DUP2 PUSH20 0xFFFFFFFFFFFFFFFFFFFFFFFFFFFFFFFFFFFFFFFF AND DUP2 PUSH20 0xFFFFFFFFFFFFFFFFFFFFFFFFFFFFFFFFFFFFFFFF AND PUSH32 0x8BE0079C531659141344CD1FD0A4F28419497F9722A3DAAFE3B4186F6B6457E0 PUSH1 0x40 MLOAD PUSH1 0x40 MLOAD DUP1 SWAP2 SUB SWAP1 LOG3 POP POP JUMP JUMPDEST PUSH1 0x0 CALLER SWAP1 POP SWAP1 JUMP JUMPDEST PUSH1 0x0 PUSH1 0x40 MLOAD SWAP1 POP SWAP1 JUMP JUMPDEST PUSH1 0x0 DUP1 REVERT JUMPDEST PUSH1 0x0 DUP1 REVERT JUMPDEST PUSH1 0x0 DUP1 REVERT JUMPDEST PUSH1 0x0 DUP1 REVERT JUMPDEST PUSH1 0x0 DUP1 REVERT JUMPDEST PUSH1 0x0 DUP1 DUP4 PUSH1 0x1F DUP5 ADD SLT PUSH2 0x1D31 JUMPI PUSH2 0x1D30 PUSH2 0x1D0C JUMP JUMPDEST JUMPDEST DUP3 CALLDATALOAD SWAP1 POP PUSH8 0xFFFFFFFFFFFFFFFF DUP2 GT ISZERO PUSH2 0x1D4E JUMPI PUSH2 0x1D4D PUSH2 0x1D11 JUMP JUMPDEST JUMPDEST PUSH1 0x20 DUP4 ADD SWAP2 POP DUP4 PUSH1 0x20 DUP3 MUL DUP4 ADD GT ISZERO PUSH2 0x1D6A JUMPI PUSH2 0x1D69 PUSH2 0x1D16 JUMP JUMPDEST JUMPDEST SWAP3 POP SWAP3 SWAP1 POP JUMP JUMPDEST PUSH1 0x0 PUSH20 0xFFFFFFFFFFFFFFFFFFFFFFFFFFFFFFFFFFFFFFFF DUP3 AND SWAP1 POP SWAP2 SWAP1 POP JUMP JUMPDEST PUSH1 0x0 PUSH2 0x1D9C DUP3 PUSH2 0x1D71 JUMP JUMPDEST SWAP1 POP SWAP2 SWAP1 POP JUMP JUMPDEST PUSH1 0x0 PUSH2 0x1DAE DUP3 PUSH2 0x1D91 JUMP JUMPDEST SWAP1 POP SWAP2 SWAP1 POP JUMP JUMPDEST PUSH2 0x1DBE DUP2 PUSH2 0x1DA3 JUMP JUMPDEST DUP2 EQ PUSH2 0x1DC9 JUMPI PUSH1 0x0 DUP1 REVERT JUMPDEST POP JUMP JUMPDEST PUSH1 0x0 DUP2 CALLDATALOAD SWAP1 POP PUSH2 0x1DDB DUP2 PUSH2 0x1DB5 JUMP JUMPDEST SWAP3 SWAP2 POP POP JUMP JUMPDEST PUSH1 0x0 DUP1 PUSH1 0x0 PUSH1 0x40 DUP5 DUP7 SUB SLT ISZERO PUSH2 0x1DFA JUMPI PUSH2 0x1DF9 PUSH2 0x1D02 JUMP JUMPDEST JUMPDEST PUSH1 0x0 DUP5 ADD CALLDATALOAD PUSH8 0xFFFFFFFFFFFFFFFF DUP2 GT ISZERO PUSH2 0x1E18 JUMPI PUSH2 0x1E17 PUSH2 0x1D07 JUMP JUMPDEST JUMPDEST PUSH2 0x1E24 DUP7 DUP3 DUP8 ADD PUSH2 0x1D1B JUMP JUMPDEST SWAP4 POP SWAP4 POP POP PUSH1 0x20 PUSH2 0x1E37 DUP7 DUP3 DUP8 ADD PUSH2 0x1DCC JUMP JUMPDEST SWAP2 POP POP SWAP3 POP SWAP3 POP SWAP3 JUMP JUMPDEST PUSH1 0x0 DUP2 SWAP1 POP SWAP2 SWAP1 POP JUMP JUMPDEST PUSH2 0x1E54 DUP2 PUSH2 0x1E41 JUMP JUMPDEST DUP3 MSTORE POP POP JUMP JUMPDEST PUSH1 0x0 PUSH1 0x20 DUP3 ADD SWAP1 POP PUSH2 0x1E6F PUSH1 0x0 DUP4 ADD DUP5 PUSH2 0x1E4B JUMP JUMPDEST SWAP3 SWAP2 POP POP JUMP JUMPDEST PUSH2 0x1E7E DUP2 PUSH2 0x1D91 JUMP JUMPDEST DUP3 MSTORE POP POP JUMP JUMPDEST PUSH1 0x0 PUSH1 0x20 DUP3 ADD SWAP1 POP PUSH2 0x1E99 PUSH1 0x0 DUP4 ADD DUP5 PUSH2 0x1E75 JUMP JUMPDEST SWAP3 SWAP2 POP POP JUMP JUMPDEST PUSH2 0x1EA8 DUP2 PUSH2 0x1E41 JUMP JUMPDEST DUP2 EQ PUSH2 0x1EB3 JUMPI PUSH1 0x0 DUP1 REVERT JUMPDEST POP JUMP JUMPDEST PUSH1 0x0 DUP2 CALLDATALOAD SWAP1 POP PUSH2 0x1EC5 DUP2 PUSH2 0x1E9F JUMP JUMPDEST SWAP3 SWAP2 POP POP JUMP JUMPDEST PUSH1 0x0 DUP1 PUSH1 0x40 DUP4 DUP6 SUB SLT ISZERO PUSH2 0x1EE2 JUMPI PUSH2 0x1EE1 PUSH2 0x1D02 JUMP JUMPDEST JUMPDEST PUSH1 0x0 PUSH2 0x1EF0 DUP6 DUP3 DUP7 ADD PUSH2 0x1DCC JUMP JUMPDEST SWAP3 POP POP PUSH1 0x20 PUSH2 0x1F01 DUP6 DUP3 DUP7 ADD PUSH2 0x1EB6 JUMP JUMPDEST SWAP2 POP POP SWAP3 POP SWAP3 SWAP1 POP JUMP JUMPDEST PUSH1 0x0 DUP2 ISZERO ISZERO SWAP1 POP SWAP2 SWAP1 POP JUMP JUMPDEST PUSH2 0x1F20 DUP2 PUSH2 0x1F0B JUMP JUMPDEST DUP3 MSTORE POP POP JUMP JUMPDEST PUSH1 0x0 DUP2 SWAP1 POP SWAP2 SWAP1 POP JUMP JUMPDEST PUSH1 0x0 PUSH2 0x1F4B PUSH2 0x1F46 PUSH2 0x1F41 DUP5 PUSH2 0x1D71 JUMP JUMPDEST PUSH2 0x1F26 JUMP JUMPDEST PUSH2 0x1D71 JUMP JUMPDEST SWAP1 POP SWAP2 SWAP1 POP JUMP JUMPDEST PUSH1 0x0 PUSH2 0x1F5D DUP3 PUSH2 0x1F30 JUMP JUMPDEST SWAP1 POP SWAP2 SWAP1 POP JUMP JUMPDEST PUSH1 0x0 PUSH2 0x1F6F DUP3 PUSH2 0x1F52 JUMP JUMPDEST SWAP1 POP SWAP2 SWAP1 POP JUMP JUMPDEST PUSH2 0x1F7F DUP2 PUSH2 0x1F64 JUMP JUMPDEST DUP3 MSTORE POP POP JUMP JUMPDEST PUSH1 0x0 PUSH1 0xA0 DUP3 ADD SWAP1 POP PUSH2 0x1F9A PUSH1 0x0 DUP4 ADD DUP9 PUSH2 0x1E75 JUMP JUMPDEST PUSH2 0x1FA7 PUSH1 0x20 DUP4 ADD DUP8 PUSH2 0x1E4B JUMP JUMPDEST PUSH2 0x1FB4 PUSH1 0x40 DUP4 ADD DUP7 PUSH2 0x1E4B JUMP JUMPDEST PUSH2 0x1FC1 PUSH1 0x60 DUP4 ADD DUP6 PUSH2 0x1F17 JUMP JUMPDEST PUSH2 0x1FCE PUSH1 0x80 DUP4 ADD DUP5 PUSH2 0x1F76 JUMP JUMPDEST SWAP7 SWAP6 POP POP POP POP POP POP JUMP JUMPDEST PUSH1 0x0 DUP1 PUSH1 0x40 DUP4 DUP6 SUB SLT ISZERO PUSH2 0x1FEF JUMPI PUSH2 0x1FEE PUSH2 0x1D02 JUMP JUMPDEST JUMPDEST PUSH1 0x0 PUSH2 0x1FFD DUP6 DUP3 DUP7 ADD PUSH2 0x1EB6 JUMP JUMPDEST SWAP3 POP POP PUSH1 0x20 PUSH2 0x200E DUP6 DUP3 DUP7 ADD PUSH2 0x1DCC JUMP JUMPDEST SWAP2 POP POP SWAP3 POP SWAP3 SWAP1 POP JUMP JUMPDEST PUSH1 0x0 PUSH1 0x20 DUP3 DUP5 SUB SLT ISZERO PUSH2 0x202E JUMPI PUSH2 0x202D PUSH2 0x1D02 JUMP JUMPDEST JUMPDEST PUSH1 0x0 PUSH2 0x203C DUP5 DUP3 DUP6 ADD PUSH2 0x1DCC JUMP JUMPDEST SWAP2 POP POP SWAP3 SWAP2 POP POP JUMP JUMPDEST PUSH1 0x0 PUSH2 0x2050 DUP3 PUSH2 0x1F52 JUMP JUMPDEST SWAP1 POP SWAP2 SWAP1 POP JUMP JUMPDEST PUSH2 0x2060 DUP2 PUSH2 0x2045 JUMP JUMPDEST DUP3 MSTORE POP POP JUMP JUMPDEST PUSH1 0x0 PUSH1 0x60 DUP3 ADD SWAP1 POP PUSH2 0x207B PUSH1 0x0 DUP4 ADD DUP7 PUSH2 0x2057 JUMP JUMPDEST PUSH2 0x2088 PUSH1 0x20 DUP4 ADD DUP6 PUSH2 0x1E4B JUMP JUMPDEST PUSH2 0x2095 PUSH1 0x40 DUP4 ADD DUP5 PUSH2 0x1E4B JUMP JUMPDEST SWAP5 SWAP4 POP POP POP POP JUMP JUMPDEST PUSH1 0x0 PUSH1 0x20 DUP3 DUP5 SUB SLT ISZERO PUSH2 0x20B3 JUMPI PUSH2 0x20B2 PUSH2 0x1D02 JUMP JUMPDEST JUMPDEST PUSH1 0x0 PUSH2 0x20C1 DUP5 DUP3 DUP6 ADD PUSH2 0x1EB6 JUMP JUMPDEST SWAP2 POP POP SWAP3 SWAP2 POP POP JUMP JUMPDEST PUSH1 0x0 PUSH1 0x1F NOT PUSH1 0x1F DUP4 ADD AND SWAP1 POP SWAP2 SWAP1 POP JUMP JUMPDEST PUSH32 0x4E487B7100000000000000000000000000000000000000000000000000000000 PUSH1 0x0 MSTORE PUSH1 0x41 PUSH1 0x4 MSTORE PUSH1 0x24 PUSH1 0x0 REVERT JUMPDEST PUSH2 0x2113 DUP3 PUSH2 0x20CA JUMP JUMPDEST DUP2 ADD DUP2 DUP2 LT PUSH8 0xFFFFFFFFFFFFFFFF DUP3 GT OR ISZERO PUSH2 0x2132 JUMPI PUSH2 0x2131 PUSH2 0x20DB JUMP JUMPDEST JUMPDEST DUP1 PUSH1 0x40 MSTORE POP POP POP JUMP JUMPDEST PUSH1 0x0 PUSH2 0x2145 PUSH2 0x1CF8 JUMP JUMPDEST SWAP1 POP PUSH2 0x2151 DUP3 DUP3 PUSH2 0x210A JUMP JUMPDEST SWAP2 SWAP1 POP JUMP JUMPDEST PUSH1 0x0 PUSH8 0xFFFFFFFFFFFFFFFF DUP3 GT ISZERO PUSH2 0x2171 JUMPI PUSH2 0x2170 PUSH2 0x20DB JUMP JUMPDEST JUMPDEST PUSH1 0x20 DUP3 MUL SWAP1 POP PUSH1 0x20 DUP2 ADD SWAP1 POP SWAP2 SWAP1 POP JUMP JUMPDEST PUSH2 0x218B DUP2 PUSH2 0x1D91 JUMP JUMPDEST DUP2 EQ PUSH2 0x2196 JUMPI PUSH1 0x0 DUP1 REVERT JUMPDEST POP JUMP JUMPDEST PUSH1 0x0 DUP2 CALLDATALOAD SWAP1 POP PUSH2 0x21A8 DUP2 PUSH2 0x2182 JUMP JUMPDEST SWAP3 SWAP2 POP POP JUMP JUMPDEST PUSH1 0x0 PUSH2 0x21C1 PUSH2 0x21BC DUP5 PUSH2 0x2156 JUMP JUMPDEST PUSH2 0x213B JUMP JUMPDEST SWAP1 POP DUP1 DUP4 DUP3 MSTORE PUSH1 0x20 DUP3 ADD SWAP1 POP PUSH1 0x20 DUP5 MUL DUP4 ADD DUP6 DUP2 GT ISZERO PUSH2 0x21E4 JUMPI PUSH2 0x21E3 PUSH2 0x1D16 JUMP JUMPDEST JUMPDEST DUP4 JUMPDEST DUP2 DUP2 LT ISZERO PUSH2 0x220D JUMPI DUP1 PUSH2 0x21F9 DUP9 DUP3 PUSH2 0x2199 JUMP JUMPDEST DUP5 MSTORE PUSH1 0x20 DUP5 ADD SWAP4 POP POP PUSH1 0x20 DUP2 ADD SWAP1 POP PUSH2 0x21E6 JUMP JUMPDEST POP POP POP SWAP4 SWAP3 POP POP POP JUMP JUMPDEST PUSH1 0x0 DUP3 PUSH1 0x1F DUP4 ADD SLT PUSH2 0x222C JUMPI PUSH2 0x222B PUSH2 0x1D0C JUMP JUMPDEST JUMPDEST DUP2 CALLDATALOAD PUSH2 0x223C DUP5 DUP3 PUSH1 0x20 DUP7 ADD PUSH2 0x21AE JUMP JUMPDEST SWAP2 POP POP SWAP3 SWAP2 POP POP JUMP JUMPDEST PUSH1 0x0 PUSH8 0xFFFFFFFFFFFFFFFF DUP3 GT ISZERO PUSH2 0x2260 JUMPI PUSH2 0x225F PUSH2 0x20DB JUMP JUMPDEST JUMPDEST PUSH1 0x20 DUP3 MUL SWAP1 POP PUSH1 0x20 DUP2 ADD SWAP1 POP SWAP2 SWAP1 POP JUMP JUMPDEST PUSH1 0x0 PUSH2 0x2284 PUSH2 0x227F DUP5 PUSH2 0x2245 JUMP JUMPDEST PUSH2 0x213B JUMP JUMPDEST SWAP1 POP DUP1 DUP4 DUP3 MSTORE PUSH1 0x20 DUP3 ADD SWAP1 POP PUSH1 0x20 DUP5 MUL DUP4 ADD DUP6 DUP2 GT ISZERO PUSH2 0x22A7 JUMPI PUSH2 0x22A6 PUSH2 0x1D16 JUMP JUMPDEST JUMPDEST DUP4 JUMPDEST DUP2 DUP2 LT ISZERO PUSH2 0x22D0 JUMPI DUP1 PUSH2 0x22BC DUP9 DUP3 PUSH2 0x1EB6 JUMP JUMPDEST DUP5 MSTORE PUSH1 0x20 DUP5 ADD SWAP4 POP POP PUSH1 0x20 DUP2 ADD SWAP1 POP PUSH2 0x22A9 JUMP JUMPDEST POP POP POP SWAP4 SWAP3 POP POP POP JUMP JUMPDEST PUSH1 0x0 DUP3 PUSH1 0x1F DUP4 ADD SLT PUSH2 0x22EF JUMPI PUSH2 0x22EE PUSH2 0x1D0C JUMP JUMPDEST JUMPDEST DUP2 CALLDATALOAD PUSH2 0x22FF DUP5 DUP3 PUSH1 0x20 DUP7 ADD PUSH2 0x2271 JUMP JUMPDEST SWAP2 POP POP SWAP3 SWAP2 POP POP JUMP JUMPDEST PUSH1 0x0 DUP1 PUSH1 0x0 DUP1 PUSH1 0x80 DUP6 DUP8 SUB SLT ISZERO PUSH2 0x2322 JUMPI PUSH2 0x2321 PUSH2 0x1D02 JUMP JUMPDEST JUMPDEST PUSH1 0x0 DUP6 ADD CALLDATALOAD PUSH8 0xFFFFFFFFFFFFFFFF DUP2 GT ISZERO PUSH2 0x2340 JUMPI PUSH2 0x233F PUSH2 0x1D07 JUMP JUMPDEST JUMPDEST PUSH2 0x234C DUP8 DUP3 DUP9 ADD PUSH2 0x2217 JUMP JUMPDEST SWAP5 POP POP PUSH1 0x20 DUP6 ADD CALLDATALOAD PUSH8 0xFFFFFFFFFFFFFFFF DUP2 GT ISZERO PUSH2 0x236D JUMPI PUSH2 0x236C PUSH2 0x1D07 JUMP JUMPDEST JUMPDEST PUSH2 0x2379 DUP8 DUP3 DUP9 ADD PUSH2 0x2217 JUMP JUMPDEST SWAP4 POP POP PUSH1 0x40 DUP6 ADD CALLDATALOAD PUSH8 0xFFFFFFFFFFFFFFFF DUP2 GT ISZERO PUSH2 0x239A JUMPI PUSH2 0x2399 PUSH2 0x1D07 JUMP JUMPDEST JUMPDEST PUSH2 0x23A6 DUP8 DUP3 DUP9 ADD PUSH2 0x22DA JUMP JUMPDEST SWAP3 POP POP PUSH1 0x60 DUP6 ADD CALLDATALOAD PUSH8 0xFFFFFFFFFFFFFFFF DUP2 GT ISZERO PUSH2 0x23C7 JUMPI PUSH2 0x23C6 PUSH2 0x1D07 JUMP JUMPDEST JUMPDEST PUSH2 0x23D3 DUP8 DUP3 DUP9 ADD PUSH2 0x22DA JUMP JUMPDEST SWAP2 POP POP SWAP3 SWAP6 SWAP2 SWAP5 POP SWAP3 POP JUMP JUMPDEST PUSH1 0x0 PUSH1 0x20 DUP3 DUP5 SUB SLT ISZERO PUSH2 0x23F5 JUMPI PUSH2 0x23F4 PUSH2 0x1D02 JUMP JUMPDEST JUMPDEST PUSH1 0x0 PUSH2 0x2403 DUP5 DUP3 DUP6 ADD PUSH2 0x2199 JUMP JUMPDEST SWAP2 POP POP SWAP3 SWAP2 POP POP JUMP JUMPDEST PUSH1 0x0 DUP3 DUP3 MSTORE PUSH1 0x20 DUP3 ADD SWAP1 POP SWAP3 SWAP2 POP POP JUMP JUMPDEST PUSH32 0x436F6E7472616374206E6F7420616C6C6F776564000000000000000000000000 PUSH1 0x0 DUP3 ADD MSTORE POP JUMP JUMPDEST PUSH1 0x0 PUSH2 0x2453 PUSH1 0x14 DUP4 PUSH2 0x240C JUMP JUMPDEST SWAP2 POP PUSH2 0x245E DUP3 PUSH2 0x241D JUMP JUMPDEST PUSH1 0x20 DUP3 ADD SWAP1 POP SWAP2 SWAP1 POP JUMP JUMPDEST PUSH1 0x0 PUSH1 0x20 DUP3 ADD SWAP1 POP DUP2 DUP2 SUB PUSH1 0x0 DUP4 ADD MSTORE PUSH2 0x2482 DUP2 PUSH2 0x2446 JUMP JUMPDEST SWAP1 POP SWAP2 SWAP1 POP JUMP JUMPDEST PUSH32 0x50726F787920636F6E7472616374206E6F7420616C6C6F776564000000000000 PUSH1 0x0 DUP3 ADD MSTORE POP JUMP JUMPDEST PUSH1 0x0 PUSH2 0x24BF PUSH1 0x1A DUP4 PUSH2 0x240C JUMP JUMPDEST SWAP2 POP PUSH2 0x24CA DUP3 PUSH2 0x2489 JUMP JUMPDEST PUSH1 0x20 DUP3 ADD SWAP1 POP SWAP2 SWAP1 POP JUMP JUMPDEST PUSH1 0x0 PUSH1 0x20 DUP3 ADD SWAP1 POP DUP2 DUP2 SUB PUSH1 0x0 DUP4 ADD MSTORE PUSH2 0x24EE DUP2 PUSH2 0x24B2 JUMP JUMPDEST SWAP1 POP SWAP2 SWAP1 POP JUMP JUMPDEST PUSH32 0x4E6F20746F6B656E730000000000000000000000000000000000000000000000 PUSH1 0x0 DUP3 ADD MSTORE POP JUMP JUMPDEST PUSH1 0x0 PUSH2 0x252B PUSH1 0x9 DUP4 PUSH2 0x240C JUMP JUMPDEST SWAP2 POP PUSH2 0x2536 DUP3 PUSH2 0x24F5 JUMP JUMPDEST PUSH1 0x20 DUP3 ADD SWAP1 POP SWAP2 SWAP1 POP JUMP JUMPDEST PUSH1 0x0 PUSH1 0x20 DUP3 ADD SWAP1 POP DUP2 DUP2 SUB PUSH1 0x0 DUP4 ADD MSTORE PUSH2 0x255A DUP2 PUSH2 0x251E JUMP JUMPDEST SWAP1 POP SWAP2 SWAP1 POP JUMP JUMPDEST PUSH32 0x4E487B7100000000000000000000000000000000000000000000000000000000 PUSH1 0x0 MSTORE PUSH1 0x32 PUSH1 0x4 MSTORE PUSH1 0x24 PUSH1 0x0 REVERT JUMPDEST PUSH32 0x4E6F74206120746F6B656E206F776E6572000000000000000000000000000000 PUSH1 0x0 DUP3 ADD MSTORE POP JUMP JUMPDEST PUSH1 0x0 PUSH2 0x25C6 PUSH1 0x11 DUP4 PUSH2 0x240C JUMP JUMPDEST SWAP2 POP PUSH2 0x25D1 DUP3 PUSH2 0x2590 JUMP JUMPDEST PUSH1 0x20 DUP3 ADD SWAP1 POP SWAP2 SWAP1 POP JUMP JUMPDEST PUSH1 0x0 PUSH1 0x20 DUP3 ADD SWAP1 POP DUP2 DUP2 SUB PUSH1 0x0 DUP4 ADD MSTORE PUSH2 0x25F5 DUP2 PUSH2 0x25B9 JUMP JUMPDEST SWAP1 POP SWAP2 SWAP1 POP JUMP JUMPDEST PUSH32 0x4E487B7100000000000000000000000000000000000000000000000000000000 PUSH1 0x0 MSTORE PUSH1 0x11 PUSH1 0x4 MSTORE PUSH1 0x24 PUSH1 0x0 REVERT JUMPDEST PUSH1 0x0 PUSH2 0x2636 DUP3 PUSH2 0x1E41 JUMP JUMPDEST SWAP2 POP PUSH2 0x2641 DUP4 PUSH2 0x1E41 JUMP JUMPDEST SWAP3 POP DUP3 DUP3 ADD SWAP1 POP DUP1 DUP3 GT ISZERO PUSH2 0x2659 JUMPI PUSH2 0x2658 PUSH2 0x25FC JUMP JUMPDEST JUMPDEST SWAP3 SWAP2 POP POP JUMP JUMPDEST PUSH32 0x4E6F742061626C6520746F20636C61696D207965740000000000000000000000 PUSH1 0x0 DUP3 ADD MSTORE POP JUMP JUMPDEST PUSH1 0x0 PUSH2 0x2695 PUSH1 0x15 DUP4 PUSH2 0x240C JUMP JUMPDEST SWAP2 POP PUSH2 0x26A0 DUP3 PUSH2 0x265F JUMP JUMPDEST PUSH1 0x20 DUP3 ADD SWAP1 POP SWAP2 SWAP1 POP JUMP JUMPDEST PUSH1 0x0 PUSH1 0x20 DUP3 ADD SWAP1 POP DUP2 DUP2 SUB PUSH1 0x0 DUP4 ADD MSTORE PUSH2 0x26C4 DUP2 PUSH2 0x2688 JUMP JUMPDEST SWAP1 POP SWAP2 SWAP1 POP JUMP JUMPDEST PUSH32 0x416C726561647920756E6C6F636B656400000000000000000000000000000000 PUSH1 0x0 DUP3 ADD MSTORE POP JUMP JUMPDEST PUSH1 0x0 PUSH2 0x2701 PUSH1 0x10 DUP4 PUSH2 0x240C JUMP JUMPDEST SWAP2 POP PUSH2 0x270C DUP3 PUSH2 0x26CB JUMP JUMPDEST PUSH1 0x20 DUP3 ADD SWAP1 POP SWAP2 SWAP1 POP JUMP JUMPDEST PUSH1 0x0 PUSH1 0x20 DUP3 ADD SWAP1 POP DUP2 DUP2 SUB PUSH1 0x0 DUP4 ADD MSTORE PUSH2 0x2730 DUP2 PUSH2 0x26F4 JUMP JUMPDEST SWAP1 POP SWAP2 SWAP1 POP JUMP JUMPDEST PUSH1 0x0 PUSH2 0x2742 DUP3 PUSH2 0x1E41 JUMP JUMPDEST SWAP2 POP PUSH2 0x274D DUP4 PUSH2 0x1E41 JUMP JUMPDEST SWAP3 POP DUP3 DUP3 SUB SWAP1 POP DUP2 DUP2 GT ISZERO PUSH2 0x2765 JUMPI PUSH2 0x2764 PUSH2 0x25FC JUMP JUMPDEST JUMPDEST SWAP3 SWAP2 POP POP JUMP JUMPDEST PUSH1 0x0 PUSH1 0x40 DUP3 ADD SWAP1 POP PUSH2 0x2780 PUSH1 0x0 DUP4 ADD DUP6 PUSH2 0x1E75 JUMP JUMPDEST PUSH2 0x278D PUSH1 0x20 DUP4 ADD DUP5 PUSH2 0x1E4B JUMP JUMPDEST SWAP4 SWAP3 POP POP POP JUMP JUMPDEST PUSH1 0x0 PUSH2 0x279F DUP3 PUSH2 0x1E41 JUMP JUMPDEST SWAP2 POP PUSH32 0xFFFFFFFFFFFFFFFFFFFFFFFFFFFFFFFFFFFFFFFFFFFFFFFFFFFFFFFFFFFFFFFF DUP3 SUB PUSH2 0x27D1 JUMPI PUSH2 0x27D0 PUSH2 0x25FC JUMP JUMPDEST JUMPDEST PUSH1 0x1 DUP3 ADD SWAP1 POP SWAP2 SWAP1 POP JUMP JUMPDEST PUSH1 0x0 DUP3 DUP3 MSTORE PUSH1 0x20 DUP3 ADD SWAP1 POP SWAP3 SWAP2 POP POP JUMP JUMPDEST PUSH1 0x0 DUP1 REVERT JUMPDEST DUP3 DUP2 DUP4 CALLDATACOPY POP POP POP JUMP JUMPDEST PUSH1 0x0 PUSH2 0x2807 DUP4 DUP6 PUSH2 0x27DC JUMP JUMPDEST SWAP4 POP PUSH32 0x7FFFFFFFFFFFFFFFFFFFFFFFFFFFFFFFFFFFFFFFFFFFFFFFFFFFFFFFFFFFFFF DUP4 GT ISZERO PUSH2 0x283A JUMPI PUSH2 0x2839 PUSH2 0x27ED JUMP JUMPDEST JUMPDEST PUSH1 0x20 DUP4 MUL SWAP3 POP PUSH2 0x284B DUP4 DUP6 DUP5 PUSH2 0x27F2 JUMP JUMPDEST DUP3 DUP5 ADD SWAP1 POP SWAP4 SWAP3 POP POP POP JUMP JUMPDEST PUSH1 0x0 PUSH1 0x40 DUP3 ADD SWAP1 POP DUP2 DUP2 SUB PUSH1 0x0 DUP4 ADD MSTORE PUSH2 0x2872 DUP2 DUP6 DUP8 PUSH2 0x27FB JUMP JUMPDEST SWAP1 POP PUSH2 0x2881 PUSH1 0x20 DUP4 ADD DUP5 PUSH2 0x1E4B JUMP JUMPDEST SWAP5 SWAP4 POP POP POP POP JUMP JUMPDEST PUSH32 0x5265656E7472616E637947756172643A207265656E7472616E742063616C6C00 PUSH1 0x0 DUP3 ADD MSTORE POP JUMP JUMPDEST PUSH1 0x0 PUSH2 0x28BF PUSH1 0x1F DUP4 PUSH2 0x240C JUMP JUMPDEST SWAP2 POP PUSH2 0x28CA DUP3 PUSH2 0x2889 JUMP JUMPDEST PUSH1 0x20 DUP3 ADD SWAP1 POP SWAP2 SWAP1 POP JUMP JUMPDEST PUSH1 0x0 PUSH1 0x20 DUP3 ADD SWAP1 POP DUP2 DUP2 SUB PUSH1 0x0 DUP4 ADD MSTORE PUSH2 0x28EE DUP2 PUSH2 0x28B2 JUMP JUMPDEST SWAP1 POP SWAP2 SWAP1 POP JUMP JUMPDEST PUSH32 0x5374616B696E673A20526567697374657220636F6C6C656374696F6E20627920 PUSH1 0x0 DUP3 ADD MSTORE PUSH32 0x6164645374616B696E674E667473000000000000000000000000000000000000 PUSH1 0x20 DUP3 ADD MSTORE POP JUMP JUMPDEST PUSH1 0x0 PUSH2 0x2951 PUSH1 0x2E DUP4 PUSH2 0x240C JUMP JUMPDEST SWAP2 POP PUSH2 0x295C DUP3 PUSH2 0x28F5 JUMP JUMPDEST PUSH1 0x40 DUP3 ADD SWAP1 POP SWAP2 SWAP1 POP JUMP JUMPDEST PUSH1 0x0 PUSH1 0x20 DUP3 ADD SWAP1 POP DUP2 DUP2 SUB PUSH1 0x0 DUP4 ADD MSTORE PUSH2 0x2980 DUP2 PUSH2 0x2944 JUMP JUMPDEST SWAP1 POP SWAP2 SWAP1 POP JUMP JUMPDEST PUSH1 0x0 DUP2 MLOAD SWAP1 POP PUSH2 0x2996 DUP2 PUSH2 0x2182 JUMP JUMPDEST SWAP3 SWAP2 POP POP JUMP JUMPDEST PUSH1 0x0 PUSH1 0x20 DUP3 DUP5 SUB SLT ISZERO PUSH2 0x29B2 JUMPI PUSH2 0x29B1 PUSH2 0x1D02 JUMP JUMPDEST JUMPDEST PUSH1 0x0 PUSH2 0x29C0 DUP5 DUP3 DUP6 ADD PUSH2 0x2987 JUMP JUMPDEST SWAP2 POP POP SWAP3 SWAP2 POP POP JUMP JUMPDEST PUSH32 0x596F7520646F6E277420686F6C64207468697320746F6B656E00000000000000 PUSH1 0x0 DUP3 ADD MSTORE POP JUMP JUMPDEST PUSH1 0x0 PUSH2 0x29FF PUSH1 0x19 DUP4 PUSH2 0x240C JUMP JUMPDEST SWAP2 POP PUSH2 0x2A0A DUP3 PUSH2 0x29C9 JUMP JUMPDEST PUSH1 0x20 DUP3 ADD SWAP1 POP SWAP2 SWAP1 POP JUMP JUMPDEST PUSH1 0x0 PUSH1 0x20 DUP3 ADD SWAP1 POP DUP2 DUP2 SUB PUSH1 0x0 DUP4 ADD MSTORE PUSH2 0x2A2E DUP2 PUSH2 0x29F2 JUMP JUMPDEST SWAP1 POP SWAP2 SWAP1 POP JUMP JUMPDEST PUSH1 0x0 PUSH1 0x60 DUP3 ADD SWAP1 POP PUSH2 0x2A4A PUSH1 0x0 DUP4 ADD DUP7 PUSH2 0x1E75 JUMP JUMPDEST PUSH2 0x2A57 PUSH1 0x20 DUP4 ADD DUP6 PUSH2 0x1E75 JUMP JUMPDEST PUSH2 0x2A64 PUSH1 0x40 DUP4 ADD DUP5 PUSH2 0x1E4B JUMP JUMPDEST SWAP5 SWAP4 POP POP POP POP JUMP JUMPDEST PUSH1 0x0 PUSH1 0x20 DUP3 ADD SWAP1 POP DUP2 DUP2 SUB PUSH1 0x0 DUP4 ADD MSTORE PUSH2 0x2A87 DUP2 DUP5 DUP7 PUSH2 0x27FB JUMP JUMPDEST SWAP1 POP SWAP4 SWAP3 POP POP POP JUMP JUMPDEST PUSH32 0x4E6F742061626C6520746F20756E6C6F636B2079657400000000000000000000 PUSH1 0x0 DUP3 ADD MSTORE POP JUMP JUMPDEST PUSH1 0x0 PUSH2 0x2AC6 PUSH1 0x16 DUP4 PUSH2 0x240C JUMP JUMPDEST SWAP2 POP PUSH2 0x2AD1 DUP3 PUSH2 0x2A90 JUMP JUMPDEST PUSH1 0x20 DUP3 ADD SWAP1 POP SWAP2 SWAP1 POP JUMP JUMPDEST PUSH1 0x0 PUSH1 0x20 DUP3 ADD SWAP1 POP DUP2 DUP2 SUB PUSH1 0x0 DUP4 ADD MSTORE PUSH2 0x2AF5 DUP2 PUSH2 0x2AB9 JUMP JUMPDEST SWAP1 POP SWAP2 SWAP1 POP JUMP JUMPDEST PUSH32 0x496E76616C6964206C6F636B20706572696F642E000000000000000000000000 PUSH1 0x0 DUP3 ADD MSTORE POP JUMP JUMPDEST PUSH1 0x0 PUSH2 0x2B32 PUSH1 0x14 DUP4 PUSH2 0x240C JUMP JUMPDEST SWAP2 POP PUSH2 0x2B3D DUP3 PUSH2 0x2AFC JUMP JUMPDEST PUSH1 0x20 DUP3 ADD SWAP1 POP SWAP2 SWAP1 POP JUMP JUMPDEST PUSH1 0x0 PUSH1 0x20 DUP3 ADD SWAP1 POP DUP2 DUP2 SUB PUSH1 0x0 DUP4 ADD MSTORE PUSH2 0x2B61 DUP2 PUSH2 0x2B25 JUMP JUMPDEST SWAP1 POP SWAP2 SWAP1 POP JUMP JUMPDEST PUSH32 0x4F776E61626C653A206E6577206F776E657220697320746865207A65726F2061 PUSH1 0x0 DUP3 ADD MSTORE PUSH32 0x6464726573730000000000000000000000000000000000000000000000000000 PUSH1 0x20 DUP3 ADD MSTORE POP JUMP JUMPDEST PUSH1 0x0 PUSH2 0x2BC4 PUSH1 0x26 DUP4 PUSH2 0x240C JUMP JUMPDEST SWAP2 POP PUSH2 0x2BCF DUP3 PUSH2 0x2B68 JUMP JUMPDEST PUSH1 0x40 DUP3 ADD SWAP1 POP SWAP2 SWAP1 POP JUMP JUMPDEST PUSH1 0x0 PUSH1 0x20 DUP3 ADD SWAP1 POP DUP2 DUP2 SUB PUSH1 0x0 DUP4 ADD MSTORE PUSH2 0x2BF3 DUP2 PUSH2 0x2BB7 JUMP JUMPDEST SWAP1 POP SWAP2 SWAP1 POP JUMP JUMPDEST PUSH1 0x0 PUSH2 0x2C05 DUP3 PUSH2 0x1E41 JUMP JUMPDEST SWAP2 POP PUSH2 0x2C10 DUP4 PUSH2 0x1E41 JUMP JUMPDEST SWAP3 POP DUP2 PUSH32 0xFFFFFFFFFFFFFFFFFFFFFFFFFFFFFFFFFFFFFFFFFFFFFFFFFFFFFFFFFFFFFFFF DIV DUP4 GT DUP3 ISZERO ISZERO AND ISZERO PUSH2 0x2C49 JUMPI PUSH2 0x2C48 PUSH2 0x25FC JUMP JUMPDEST JUMPDEST DUP3 DUP3 MUL SWAP1 POP SWAP3 SWAP2 POP POP JUMP JUMPDEST PUSH32 0x4E487B7100000000000000000000000000000000000000000000000000000000 PUSH1 0x0 MSTORE PUSH1 0x12 PUSH1 0x4 MSTORE PUSH1 0x24 PUSH1 0x0 REVERT JUMPDEST PUSH1 0x0 PUSH2 0x2C8E DUP3 PUSH2 0x1E41 JUMP JUMPDEST SWAP2 POP PUSH2 0x2C99 DUP4 PUSH2 0x1E41 JUMP JUMPDEST SWAP3 POP DUP3 PUSH2 0x2CA9 JUMPI PUSH2 0x2CA8 PUSH2 0x2C54 JUMP JUMPDEST JUMPDEST DUP3 DUP3 DIV SWAP1 POP SWAP3 SWAP2 POP POP JUMP JUMPDEST PUSH32 0x4F776E61626C653A2063616C6C6572206973206E6F7420746865206F776E6572 PUSH1 0x0 DUP3 ADD MSTORE POP JUMP JUMPDEST PUSH1 0x0 PUSH2 0x2CEA PUSH1 0x20 DUP4 PUSH2 0x240C JUMP JUMPDEST SWAP2 POP PUSH2 0x2CF5 DUP3 PUSH2 0x2CB4 JUMP JUMPDEST PUSH1 0x20 DUP3 ADD SWAP1 POP SWAP2 SWAP1 POP JUMP JUMPDEST PUSH1 0x0 PUSH1 0x20 DUP3 ADD SWAP1 POP DUP2 DUP2 SUB PUSH1 0x0 DUP4 ADD MSTORE PUSH2 0x2D19 DUP2 PUSH2 0x2CDD JUMP JUMPDEST SWAP1 POP SWAP2 SWAP1 POP JUMP INVALID LOG2 PUSH5 0x6970667358 0x22 SLT KECCAK256 DUP12 0x21 PUSH27 0xBC2965330C728B473A9F07B5A053B89F756DA56DDEF060F744E656 0x28 DUP5 PUSH5 0x736F6C6343 STOP ADDMOD LT STOP CALLER "
				},
				"gasEstimates": {
					"creation": {
						"codeDepositCost": "2321200",
						"executionCost": "infinite",
						"totalCost": "infinite"
					},
					"external": {
						"WAVE()": "2496",
						"addStakingNfts(address[],address[],uint256[],uint256[])": "infinite",
						"addStakingNfts(uint256)": "infinite",
						"claimRewards(uint256[],address)": "infinite",
						"claimedRewards(uint256,address)": "infinite",
						"lockInfo(address,uint256)": "infinite",
						"lockNFT(uint256[],address)": "infinite",
						"lockPeriod()": "2474",
						"nftInfo(address)": "infinite",
						"owner()": "2611",
						"renounceOwnership()": "30465",
						"transferOwnership(address)": "30832",
						"unlockNFT(uint256[],address)": "infinite"
					},
					"internal": {
						"_rewardAmount(uint256,contract IERC721)": "infinite"
					}
				},
				"methodIdentifiers": {
					"WAVE()": "c69d1923",
					"addStakingNfts(address[],address[],uint256[],uint256[])": "eee00ed0",
					"addStakingNfts(uint256)": "ea112c1b",
					"claimRewards(uint256[],address)": "0520537f",
					"claimedRewards(uint256,address)": "b33068c4",
					"lockInfo(address,uint256)": "b2520a7c",
					"lockNFT(uint256[],address)": "1902732e",
					"lockPeriod()": "3fd8b02f",
					"nftInfo(address)": "e9545b92",
					"owner()": "8da5cb5b",
					"renounceOwnership()": "715018a6",
					"transferOwnership(address)": "f2fde38b",
					"unlockNFT(uint256[],address)": "9f3625f0"
				}
			},
			"storageLayout": {
				"storage": [
					{
						"astId": 7,
						"contract": "contracts/Staking.sol:NFTStaking1",
						"label": "_owner",
						"offset": 0,
						"slot": "0",
						"type": "t_address"
					},
					{
						"astId": 123,
						"contract": "contracts/Staking.sol:NFTStaking1",
						"label": "_status",
						"offset": 0,
						"slot": "1",
						"type": "t_uint256"
					},
					{
						"astId": 614,
						"contract": "contracts/Staking.sol:NFTStaking1",
						"label": "lockPeriod",
						"offset": 0,
						"slot": "2",
						"type": "t_uint256"
					},
					{
						"astId": 634,
						"contract": "contracts/Staking.sol:NFTStaking1",
						"label": "lockInfo",
						"offset": 0,
						"slot": "3",
						"type": "t_mapping(t_contract(IERC721)268,t_mapping(t_uint256,t_struct(LockInfo)626_storage))"
					},
					{
						"astId": 648,
						"contract": "contracts/Staking.sol:NFTStaking1",
						"label": "nftInfo",
						"offset": 0,
						"slot": "4",
						"type": "t_mapping(t_contract(IERC721)268,t_struct(stakeNftInfo)642_storage)"
					},
					{
						"astId": 651,
						"contract": "contracts/Staking.sol:NFTStaking1",
						"label": "WAVE",
						"offset": 0,
						"slot": "5",
						"type": "t_uint256"
					}
				],
				"types": {
					"t_address": {
						"encoding": "inplace",
						"label": "address",
						"numberOfBytes": "20"
					},
					"t_bool": {
						"encoding": "inplace",
						"label": "bool",
						"numberOfBytes": "1"
					},
					"t_contract(IERC721)268": {
						"encoding": "inplace",
						"label": "contract IERC721",
						"numberOfBytes": "20"
					},
					"t_contract(IRewardsToken)1305": {
						"encoding": "inplace",
						"label": "contract IRewardsToken",
						"numberOfBytes": "20"
					},
					"t_mapping(t_contract(IERC721)268,t_mapping(t_uint256,t_struct(LockInfo)626_storage))": {
						"encoding": "mapping",
						"key": "t_contract(IERC721)268",
						"label": "mapping(contract IERC721 => mapping(uint256 => struct NFTStaking1.LockInfo))",
						"numberOfBytes": "32",
						"value": "t_mapping(t_uint256,t_struct(LockInfo)626_storage)"
					},
					"t_mapping(t_contract(IERC721)268,t_struct(stakeNftInfo)642_storage)": {
						"encoding": "mapping",
						"key": "t_contract(IERC721)268",
						"label": "mapping(contract IERC721 => struct NFTStaking1.stakeNftInfo)",
						"numberOfBytes": "32",
						"value": "t_struct(stakeNftInfo)642_storage"
					},
					"t_mapping(t_uint256,t_struct(LockInfo)626_storage)": {
						"encoding": "mapping",
						"key": "t_uint256",
						"label": "mapping(uint256 => struct NFTStaking1.LockInfo)",
						"numberOfBytes": "32",
						"value": "t_struct(LockInfo)626_storage"
					},
					"t_struct(LockInfo)626_storage": {
						"encoding": "inplace",
						"label": "struct NFTStaking1.LockInfo",
						"members": [
							{
								"astId": 616,
								"contract": "contracts/Staking.sol:NFTStaking1",
								"label": "owner",
								"offset": 0,
								"slot": "0",
								"type": "t_address"
							},
							{
								"astId": 618,
								"contract": "contracts/Staking.sol:NFTStaking1",
								"label": "lockedTime",
								"offset": 0,
								"slot": "1",
								"type": "t_uint256"
							},
							{
								"astId": 620,
								"contract": "contracts/Staking.sol:NFTStaking1",
								"label": "claimedRewards",
								"offset": 0,
								"slot": "2",
								"type": "t_uint256"
							},
							{
								"astId": 622,
								"contract": "contracts/Staking.sol:NFTStaking1",
								"label": "isUnlocked",
								"offset": 0,
								"slot": "3",
								"type": "t_bool"
							},
							{
								"astId": 625,
								"contract": "contracts/Staking.sol:NFTStaking1",
								"label": "contractAddress",
								"offset": 1,
								"slot": "3",
								"type": "t_contract(IERC721)268"
							}
						],
						"numberOfBytes": "128"
					},
					"t_struct(stakeNftInfo)642_storage": {
						"encoding": "inplace",
						"label": "struct NFTStaking1.stakeNftInfo",
						"members": [
							{
								"astId": 637,
								"contract": "contracts/Staking.sol:NFTStaking1",
								"label": "rewardsToken",
								"offset": 0,
								"slot": "0",
								"type": "t_contract(IRewardsToken)1305"
							},
							{
								"astId": 639,
								"contract": "contracts/Staking.sol:NFTStaking1",
								"label": "rewardsPerWave",
								"offset": 0,
								"slot": "1",
								"type": "t_uint256"
							},
							{
								"astId": 641,
								"contract": "contracts/Staking.sol:NFTStaking1",
								"label": "rewardPercentage",
								"offset": 0,
								"slot": "2",
								"type": "t_uint256"
							}
						],
						"numberOfBytes": "96"
					},
					"t_uint256": {
						"encoding": "inplace",
						"label": "uint256",
						"numberOfBytes": "32"
					}
				}
			},
			"userdoc": {
				"kind": "user",
				"methods": {
					"WAVE()": {
						"notice": "CONSTANTS "
					}
				},
				"version": 1
			}
		}
	}
}