{
	"contracts/Staking.sol": {
		"NFTStaking1": {
			"abi": [
				{
					"inputs": [
						{
							"internalType": "uint256",
							"name": "_lockPeriod",
							"type": "uint256"
						},
						{
							"internalType": "uint256",
							"name": "_wave",
							"type": "uint256"
						}
					],
					"stateMutability": "nonpayable",
					"type": "constructor"
				},
				{
					"anonymous": false,
					"inputs": [
						{
							"indexed": false,
							"internalType": "uint256",
							"name": "lockPeriod",
							"type": "uint256"
						}
					],
					"name": "LockPeriodUpdated",
					"type": "event"
				},
				{
					"anonymous": false,
					"inputs": [
						{
							"indexed": true,
							"internalType": "address",
							"name": "owner",
							"type": "address"
						},
						{
							"indexed": false,
							"internalType": "uint256[]",
							"name": "tokenIds",
							"type": "uint256[]"
						}
					],
					"name": "NFTLocked",
					"type": "event"
				},
				{
					"anonymous": false,
					"inputs": [
						{
							"indexed": true,
							"internalType": "address",
							"name": "owner",
							"type": "address"
						},
						{
							"indexed": false,
							"internalType": "uint256[]",
							"name": "tokenIds",
							"type": "uint256[]"
						}
					],
					"name": "NFTUnLocked",
					"type": "event"
				},
				{
					"anonymous": false,
					"inputs": [
						{
							"indexed": true,
							"internalType": "address",
							"name": "previousOwner",
							"type": "address"
						},
						{
							"indexed": true,
							"internalType": "address",
							"name": "newOwner",
							"type": "address"
						}
					],
					"name": "OwnershipTransferred",
					"type": "event"
				},
				{
					"anonymous": false,
					"inputs": [
						{
							"indexed": true,
							"internalType": "address",
							"name": "owner",
							"type": "address"
						},
						{
							"indexed": false,
							"internalType": "uint256[]",
							"name": "tokenIds",
							"type": "uint256[]"
						},
						{
							"indexed": false,
							"internalType": "uint256",
							"name": "rewards",
							"type": "uint256"
						}
					],
					"name": "RewardsClaimed",
					"type": "event"
				},
				{
					"inputs": [],
					"name": "WAVE",
					"outputs": [
						{
							"internalType": "uint256",
							"name": "",
							"type": "uint256"
						}
					],
					"stateMutability": "view",
					"type": "function"
				},
				{
					"inputs": [
						{
							"internalType": "uint256",
							"name": "_lockPeriod",
							"type": "uint256"
						}
					],
					"name": "addStakingNfts",
					"outputs": [],
					"stateMutability": "nonpayable",
					"type": "function"
				},
				{
					"inputs": [
						{
							"internalType": "address[]",
							"name": "_stakeNFT",
							"type": "address[]"
						},
						{
							"internalType": "address[]",
							"name": "_rewardsToken",
							"type": "address[]"
						},
						{
							"internalType": "uint256[]",
							"name": "_rewardPerWave",
							"type": "uint256[]"
						},
						{
							"internalType": "uint256[]",
							"name": "_rewardPercentage",
							"type": "uint256[]"
						}
					],
					"name": "addStakingNfts",
					"outputs": [],
					"stateMutability": "nonpayable",
					"type": "function"
				},
				{
					"inputs": [
						{
							"internalType": "uint256[]",
							"name": "_tokenIds",
							"type": "uint256[]"
						},
						{
							"internalType": "contract IERC721",
							"name": "nftAddress",
							"type": "address"
						}
					],
					"name": "claimRewards",
					"outputs": [],
					"stateMutability": "nonpayable",
					"type": "function"
				},
				{
					"inputs": [
						{
							"internalType": "uint256",
							"name": "_tokenId",
							"type": "uint256"
						},
						{
							"internalType": "contract IERC721",
							"name": "nftAddress",
							"type": "address"
						}
					],
					"name": "claimedRewards",
					"outputs": [
						{
							"internalType": "uint256",
							"name": "",
							"type": "uint256"
						}
					],
					"stateMutability": "view",
					"type": "function"
				},
				{
					"inputs": [
						{
							"internalType": "contract IERC721",
							"name": "",
							"type": "address"
						},
						{
							"internalType": "uint256",
							"name": "",
							"type": "uint256"
						}
					],
					"name": "lockInfo",
					"outputs": [
						{
							"internalType": "address",
							"name": "owner",
							"type": "address"
						},
						{
							"internalType": "uint256",
							"name": "lockedTime",
							"type": "uint256"
						},
						{
							"internalType": "uint256",
							"name": "claimedRewards",
							"type": "uint256"
						},
						{
							"internalType": "bool",
							"name": "isUnlocked",
							"type": "bool"
						},
						{
							"internalType": "contract IERC721",
							"name": "contractAddress",
							"type": "address"
						}
					],
					"stateMutability": "view",
					"type": "function"
				},
				{
					"inputs": [
						{
							"internalType": "uint256[]",
							"name": "_tokenIds",
							"type": "uint256[]"
						},
						{
							"internalType": "contract IERC721",
							"name": "nftAddress",
							"type": "address"
						}
					],
					"name": "lockNFT",
					"outputs": [],
					"stateMutability": "nonpayable",
					"type": "function"
				},
				{
					"inputs": [],
					"name": "lockPeriod",
					"outputs": [
						{
							"internalType": "uint256",
							"name": "",
							"type": "uint256"
						}
					],
					"stateMutability": "view",
					"type": "function"
				},
				{
					"inputs": [
						{
							"internalType": "contract IERC721",
							"name": "",
							"type": "address"
						}
					],
					"name": "nftInfo",
					"outputs": [
						{
							"internalType": "contract IRewardsToken",
							"name": "rewardsToken",
							"type": "address"
						},
						{
							"internalType": "uint256",
							"name": "rewardsPerWave",
							"type": "uint256"
						},
						{
							"internalType": "uint256",
							"name": "rewardPercentage",
							"type": "uint256"
						}
					],
					"stateMutability": "view",
					"type": "function"
				},
				{
					"inputs": [],
					"name": "owner",
					"outputs": [
						{
							"internalType": "address",
							"name": "",
							"type": "address"
						}
					],
					"stateMutability": "view",
					"type": "function"
				},
				{
					"inputs": [],
					"name": "renounceOwnership",
					"outputs": [],
					"stateMutability": "nonpayable",
					"type": "function"
				},
				{
					"inputs": [
						{
							"internalType": "address",
							"name": "newOwner",
							"type": "address"
						}
					],
					"name": "transferOwnership",
					"outputs": [],
					"stateMutability": "nonpayable",
					"type": "function"
				},
				{
					"inputs": [
						{
							"internalType": "uint256[]",
							"name": "_tokenIds",
							"type": "uint256[]"
						},
						{
							"internalType": "contract IERC721",
							"name": "nftAddress",
							"type": "address"
						}
					],
					"name": "unlockNFT",
					"outputs": [],
					"stateMutability": "nonpayable",
					"type": "function"
				}
			],
			"devdoc": {
				"kind": "dev",
				"methods": {
					"addStakingNfts(address[],address[],uint256[],uint256[])": {
						"details": "add the address NFT staking addresses and their corresponders",
						"params": {
							"_stakeNFT": ", _rewardsToken, _rewardPerWave, _rewardPercentage"
						}
					},
					"addStakingNfts(uint256)": {
						"details": "update lock period",
						"params": {
							"_lockPeriod": "lock period to set"
						}
					},
					"claimRewards(uint256[],address)": {
						"details": "claim rewards",
						"params": {
							"_tokenIds": "token ids to unlock"
						}
					},
					"claimedRewards(uint256,address)": {
						"details": "get total claimed rewards for token id",
						"params": {
							"_tokenId": "token id to get claimed Rewards amount"
						}
					},
					"lockNFT(uint256[],address)": {
						"details": "lock NFT into the contract",
						"params": {
							"_tokenIds": "token ids to stake"
						}
					},
					"owner()": {
						"details": "Returns the address of the current owner."
					},
					"renounceOwnership()": {
						"details": "Leaves the contract without owner. It will not be possible to call `onlyOwner` functions anymore. Can only be called by the current owner. NOTE: Renouncing ownership will leave the contract without an owner, thereby removing any functionality that is only available to the owner."
					},
					"transferOwnership(address)": {
						"details": "Transfers ownership of the contract to a new account (`newOwner`). Can only be called by the current owner."
					},
					"unlockNFT(uint256[],address)": {
						"details": "unlock NFT from the contract",
						"params": {
							"_tokenIds": "token ids to unlock"
						}
					}
				},
				"version": 1
			},
			"evm": {
				"assembly": "    /* \"contracts/Staking.sol\":412:7419  contract NFTStaking1 is Ownable, ReentrancyGuard {... */\n  mstore(0x40, 0x80)\n    /* \"contracts/Staking.sol\":1581:1785  constructor(... */\n  callvalue\n  dup1\n  iszero\n  tag_1\n  jumpi\n  0x00\n  dup1\n  revert\ntag_1:\n  pop\n  mload(0x40)\n  sub(codesize, bytecodeSize)\n  dup1\n  bytecodeSize\n  dup4\n  codecopy\n  dup2\n  dup2\n  add\n  0x40\n  mstore\n  dup2\n  add\n  swap1\n  tag_2\n  swap2\n  swap1\n  tag_3\n  jump\t// in\ntag_2:\n    /* \"@openzeppelin/contracts/access/Ownable.sol\":936:968  _transferOwnership(_msgSender()) */\n  tag_8\n    /* \"@openzeppelin/contracts/access/Ownable.sol\":955:967  _msgSender() */\n  tag_9\n    /* \"@openzeppelin/contracts/access/Ownable.sol\":955:965  _msgSender */\n  shl(0x20, tag_10)\n    /* \"@openzeppelin/contracts/access/Ownable.sol\":955:967  _msgSender() */\n  0x20\n  shr\n  jump\t// in\ntag_9:\n    /* \"@openzeppelin/contracts/access/Ownable.sol\":936:954  _transferOwnership */\n  shl(0x20, tag_11)\n    /* \"@openzeppelin/contracts/access/Ownable.sol\":936:968  _transferOwnership(_msgSender()) */\n  0x20\n  shr\n  jump\t// in\ntag_8:\n    /* \"@openzeppelin/contracts/security/ReentrancyGuard.sol\":1701:1702  1 */\n  0x01\n    /* \"@openzeppelin/contracts/security/ReentrancyGuard.sol\":1806:1813  _status */\n  dup1\n    /* \"@openzeppelin/contracts/security/ReentrancyGuard.sol\":1806:1828  _status = _NOT_ENTERED */\n  dup2\n  swap1\n  sstore\n  pop\n    /* \"contracts/Staking.sol\":1692:1693  0 */\n  0x00\n    /* \"contracts/Staking.sol\":1678:1689  _lockPeriod */\n  dup3\n    /* \"contracts/Staking.sol\":1678:1693  _lockPeriod > 0 */\n  gt\n    /* \"contracts/Staking.sol\":1670:1717  require(_lockPeriod > 0, \"Invalid lock period\") */\n  tag_14\n  jumpi\n  mload(0x40)\n  0x08c379a000000000000000000000000000000000000000000000000000000000\n  dup2\n  mstore\n  0x04\n  add\n  tag_15\n  swap1\n  tag_16\n  jump\t// in\ntag_15:\n  mload(0x40)\n  dup1\n  swap2\n  sub\n  swap1\n  revert\ntag_14:\n    /* \"contracts/Staking.sol\":1743:1754  _lockPeriod */\n  dup2\n    /* \"contracts/Staking.sol\":1730:1740  lockPeriod */\n  0x02\n    /* \"contracts/Staking.sol\":1730:1754  lockPeriod = _lockPeriod */\n  dup2\n  swap1\n  sstore\n  pop\n    /* \"contracts/Staking.sol\":1772:1777  _wave */\n  dup1\n    /* \"contracts/Staking.sol\":1765:1769  WAVE */\n  0x05\n    /* \"contracts/Staking.sol\":1765:1777  WAVE = _wave */\n  dup2\n  swap1\n  sstore\n  pop\n    /* \"contracts/Staking.sol\":1581:1785  constructor(... */\n  pop\n  pop\n    /* \"contracts/Staking.sol\":412:7419  contract NFTStaking1 is Ownable, ReentrancyGuard {... */\n  jump(tag_17)\n    /* \"@openzeppelin/contracts/utils/Context.sol\":640:736  function _msgSender() internal view virtual returns (address) {... */\ntag_10:\n    /* \"@openzeppelin/contracts/utils/Context.sol\":693:700  address */\n  0x00\n    /* \"@openzeppelin/contracts/utils/Context.sol\":719:729  msg.sender */\n  caller\n    /* \"@openzeppelin/contracts/utils/Context.sol\":712:729  return msg.sender */\n  swap1\n  pop\n    /* \"@openzeppelin/contracts/utils/Context.sol\":640:736  function _msgSender() internal view virtual returns (address) {... */\n  swap1\n  jump\t// out\n    /* \"@openzeppelin/contracts/access/Ownable.sol\":2433:2620  function _transferOwnership(address newOwner) internal virtual {... */\ntag_11:\n    /* \"@openzeppelin/contracts/access/Ownable.sol\":2506:2522  address oldOwner */\n  0x00\n    /* \"@openzeppelin/contracts/access/Ownable.sol\":2525:2531  _owner */\n  dup1\n  0x00\n  swap1\n  sload\n  swap1\n  0x0100\n  exp\n  swap1\n  div\n  0xffffffffffffffffffffffffffffffffffffffff\n  and\n    /* \"@openzeppelin/contracts/access/Ownable.sol\":2506:2531  address oldOwner = _owner */\n  swap1\n  pop\n    /* \"@openzeppelin/contracts/access/Ownable.sol\":2550:2558  newOwner */\n  dup2\n    /* \"@openzeppelin/contracts/access/Ownable.sol\":2541:2547  _owner */\n  0x00\n  dup1\n    /* \"@openzeppelin/contracts/access/Ownable.sol\":2541:2558  _owner = newOwner */\n  0x0100\n  exp\n  dup2\n  sload\n  dup2\n  0xffffffffffffffffffffffffffffffffffffffff\n  mul\n  not\n  and\n  swap1\n  dup4\n  0xffffffffffffffffffffffffffffffffffffffff\n  and\n  mul\n  or\n  swap1\n  sstore\n  pop\n    /* \"@openzeppelin/contracts/access/Ownable.sol\":2604:2612  newOwner */\n  dup2\n    /* \"@openzeppelin/contracts/access/Ownable.sol\":2573:2613  OwnershipTransferred(oldOwner, newOwner) */\n  0xffffffffffffffffffffffffffffffffffffffff\n  and\n    /* \"@openzeppelin/contracts/access/Ownable.sol\":2594:2602  oldOwner */\n  dup2\n    /* \"@openzeppelin/contracts/access/Ownable.sol\":2573:2613  OwnershipTransferred(oldOwner, newOwner) */\n  0xffffffffffffffffffffffffffffffffffffffff\n  and\n  0x8be0079c531659141344cd1fd0a4f28419497f9722a3daafe3b4186f6b6457e0\n  mload(0x40)\n  mload(0x40)\n  dup1\n  swap2\n  sub\n  swap1\n  log3\n    /* \"@openzeppelin/contracts/access/Ownable.sol\":2496:2620  {... */\n  pop\n    /* \"@openzeppelin/contracts/access/Ownable.sol\":2433:2620  function _transferOwnership(address newOwner) internal virtual {... */\n  pop\n  jump\t// out\n    /* \"#utility.yul\":88:205   */\ntag_21:\n    /* \"#utility.yul\":197:198   */\n  0x00\n    /* \"#utility.yul\":194:195   */\n  dup1\n    /* \"#utility.yul\":187:199   */\n  revert\n    /* \"#utility.yul\":334:411   */\ntag_23:\n    /* \"#utility.yul\":371:378   */\n  0x00\n    /* \"#utility.yul\":400:405   */\n  dup2\n    /* \"#utility.yul\":389:405   */\n  swap1\n  pop\n    /* \"#utility.yul\":334:411   */\n  swap2\n  swap1\n  pop\n  jump\t// out\n    /* \"#utility.yul\":417:539   */\ntag_24:\n    /* \"#utility.yul\":490:514   */\n  tag_35\n    /* \"#utility.yul\":508:513   */\n  dup2\n    /* \"#utility.yul\":490:514   */\n  tag_23\n  jump\t// in\ntag_35:\n    /* \"#utility.yul\":483:488   */\n  dup2\n    /* \"#utility.yul\":480:515   */\n  eq\n    /* \"#utility.yul\":470:533   */\n  tag_36\n  jumpi\n    /* \"#utility.yul\":529:530   */\n  0x00\n    /* \"#utility.yul\":526:527   */\n  dup1\n    /* \"#utility.yul\":519:531   */\n  revert\n    /* \"#utility.yul\":470:533   */\ntag_36:\n    /* \"#utility.yul\":417:539   */\n  pop\n  jump\t// out\n    /* \"#utility.yul\":545:688   */\ntag_25:\n    /* \"#utility.yul\":602:607   */\n  0x00\n    /* \"#utility.yul\":633:639   */\n  dup2\n    /* \"#utility.yul\":627:640   */\n  mload\n    /* \"#utility.yul\":618:640   */\n  swap1\n  pop\n    /* \"#utility.yul\":649:682   */\n  tag_38\n    /* \"#utility.yul\":676:681   */\n  dup2\n    /* \"#utility.yul\":649:682   */\n  tag_24\n  jump\t// in\ntag_38:\n    /* \"#utility.yul\":545:688   */\n  swap3\n  swap2\n  pop\n  pop\n  jump\t// out\n    /* \"#utility.yul\":694:1201   */\ntag_3:\n    /* \"#utility.yul\":773:779   */\n  0x00\n    /* \"#utility.yul\":781:787   */\n  dup1\n    /* \"#utility.yul\":830:832   */\n  0x40\n    /* \"#utility.yul\":818:827   */\n  dup4\n    /* \"#utility.yul\":809:816   */\n  dup6\n    /* \"#utility.yul\":805:828   */\n  sub\n    /* \"#utility.yul\":801:833   */\n  slt\n    /* \"#utility.yul\":798:917   */\n  iszero\n  tag_40\n  jumpi\n    /* \"#utility.yul\":836:915   */\n  tag_41\n  tag_21\n  jump\t// in\ntag_41:\n    /* \"#utility.yul\":798:917   */\ntag_40:\n    /* \"#utility.yul\":956:957   */\n  0x00\n    /* \"#utility.yul\":981:1045   */\n  tag_42\n    /* \"#utility.yul\":1037:1044   */\n  dup6\n    /* \"#utility.yul\":1028:1034   */\n  dup3\n    /* \"#utility.yul\":1017:1026   */\n  dup7\n    /* \"#utility.yul\":1013:1035   */\n  add\n    /* \"#utility.yul\":981:1045   */\n  tag_25\n  jump\t// in\ntag_42:\n    /* \"#utility.yul\":971:1045   */\n  swap3\n  pop\n    /* \"#utility.yul\":927:1055   */\n  pop\n    /* \"#utility.yul\":1094:1096   */\n  0x20\n    /* \"#utility.yul\":1120:1184   */\n  tag_43\n    /* \"#utility.yul\":1176:1183   */\n  dup6\n    /* \"#utility.yul\":1167:1173   */\n  dup3\n    /* \"#utility.yul\":1156:1165   */\n  dup7\n    /* \"#utility.yul\":1152:1174   */\n  add\n    /* \"#utility.yul\":1120:1184   */\n  tag_25\n  jump\t// in\ntag_43:\n    /* \"#utility.yul\":1110:1184   */\n  swap2\n  pop\n    /* \"#utility.yul\":1065:1194   */\n  pop\n    /* \"#utility.yul\":694:1201   */\n  swap3\n  pop\n  swap3\n  swap1\n  pop\n  jump\t// out\n    /* \"#utility.yul\":1207:1376   */\ntag_26:\n    /* \"#utility.yul\":1291:1302   */\n  0x00\n    /* \"#utility.yul\":1325:1331   */\n  dup3\n    /* \"#utility.yul\":1320:1323   */\n  dup3\n    /* \"#utility.yul\":1313:1332   */\n  mstore\n    /* \"#utility.yul\":1365:1369   */\n  0x20\n    /* \"#utility.yul\":1360:1363   */\n  dup3\n    /* \"#utility.yul\":1356:1370   */\n  add\n    /* \"#utility.yul\":1341:1370   */\n  swap1\n  pop\n    /* \"#utility.yul\":1207:1376   */\n  swap3\n  swap2\n  pop\n  pop\n  jump\t// out\n    /* \"#utility.yul\":1382:1551   */\ntag_27:\n    /* \"#utility.yul\":1522:1543   */\n  0x496e76616c6964206c6f636b20706572696f6400000000000000000000000000\n    /* \"#utility.yul\":1518:1519   */\n  0x00\n    /* \"#utility.yul\":1510:1516   */\n  dup3\n    /* \"#utility.yul\":1506:1520   */\n  add\n    /* \"#utility.yul\":1499:1544   */\n  mstore\n    /* \"#utility.yul\":1382:1551   */\n  pop\n  jump\t// out\n    /* \"#utility.yul\":1557:1923   */\ntag_28:\n    /* \"#utility.yul\":1699:1702   */\n  0x00\n    /* \"#utility.yul\":1720:1787   */\n  tag_47\n    /* \"#utility.yul\":1784:1786   */\n  0x13\n    /* \"#utility.yul\":1779:1782   */\n  dup4\n    /* \"#utility.yul\":1720:1787   */\n  tag_26\n  jump\t// in\ntag_47:\n    /* \"#utility.yul\":1713:1787   */\n  swap2\n  pop\n    /* \"#utility.yul\":1796:1889   */\n  tag_48\n    /* \"#utility.yul\":1885:1888   */\n  dup3\n    /* \"#utility.yul\":1796:1889   */\n  tag_27\n  jump\t// in\ntag_48:\n    /* \"#utility.yul\":1914:1916   */\n  0x20\n    /* \"#utility.yul\":1909:1912   */\n  dup3\n    /* \"#utility.yul\":1905:1917   */\n  add\n    /* \"#utility.yul\":1898:1917   */\n  swap1\n  pop\n    /* \"#utility.yul\":1557:1923   */\n  swap2\n  swap1\n  pop\n  jump\t// out\n    /* \"#utility.yul\":1929:2348   */\ntag_16:\n    /* \"#utility.yul\":2095:2099   */\n  0x00\n    /* \"#utility.yul\":2133:2135   */\n  0x20\n    /* \"#utility.yul\":2122:2131   */\n  dup3\n    /* \"#utility.yul\":2118:2136   */\n  add\n    /* \"#utility.yul\":2110:2136   */\n  swap1\n  pop\n    /* \"#utility.yul\":2182:2191   */\n  dup2\n    /* \"#utility.yul\":2176:2180   */\n  dup2\n    /* \"#utility.yul\":2172:2192   */\n  sub\n    /* \"#utility.yul\":2168:2169   */\n  0x00\n    /* \"#utility.yul\":2157:2166   */\n  dup4\n    /* \"#utility.yul\":2153:2170   */\n  add\n    /* \"#utility.yul\":2146:2193   */\n  mstore\n    /* \"#utility.yul\":2210:2341   */\n  tag_50\n    /* \"#utility.yul\":2336:2340   */\n  dup2\n    /* \"#utility.yul\":2210:2341   */\n  tag_28\n  jump\t// in\ntag_50:\n    /* \"#utility.yul\":2202:2341   */\n  swap1\n  pop\n    /* \"#utility.yul\":1929:2348   */\n  swap2\n  swap1\n  pop\n  jump\t// out\n    /* \"contracts/Staking.sol\":412:7419  contract NFTStaking1 is Ownable, ReentrancyGuard {... */\ntag_17:\n  dataSize(sub_0)\n  dup1\n  dataOffset(sub_0)\n  0x00\n  codecopy\n  0x00\n  return\nstop\n\nsub_0: assembly {\n        /* \"contracts/Staking.sol\":412:7419  contract NFTStaking1 is Ownable, ReentrancyGuard {... */\n      mstore(0x40, 0x80)\n      callvalue\n      dup1\n      iszero\n      tag_1\n      jumpi\n      0x00\n      dup1\n      revert\n    tag_1:\n      pop\n      jumpi(tag_2, lt(calldatasize, 0x04))\n      shr(0xe0, calldataload(0x00))\n      dup1\n      0xb2520a7c\n      gt\n      tag_16\n      jumpi\n      dup1\n      0xe9545b92\n      gt\n      tag_17\n      jumpi\n      dup1\n      0xe9545b92\n      eq\n      tag_12\n      jumpi\n      dup1\n      0xea112c1b\n      eq\n      tag_13\n      jumpi\n      dup1\n      0xeee00ed0\n      eq\n      tag_14\n      jumpi\n      dup1\n      0xf2fde38b\n      eq\n      tag_15\n      jumpi\n      jump(tag_2)\n    tag_17:\n      dup1\n      0xb2520a7c\n      eq\n      tag_9\n      jumpi\n      dup1\n      0xb33068c4\n      eq\n      tag_10\n      jumpi\n      dup1\n      0xc69d1923\n      eq\n      tag_11\n      jumpi\n      jump(tag_2)\n    tag_16:\n      dup1\n      0x0520537f\n      eq\n      tag_3\n      jumpi\n      dup1\n      0x1902732e\n      eq\n      tag_4\n      jumpi\n      dup1\n      0x3fd8b02f\n      eq\n      tag_5\n      jumpi\n      dup1\n      0x715018a6\n      eq\n      tag_6\n      jumpi\n      dup1\n      0x8da5cb5b\n      eq\n      tag_7\n      jumpi\n      dup1\n      0x9f3625f0\n      eq\n      tag_8\n      jumpi\n    tag_2:\n      0x00\n      dup1\n      revert\n        /* \"contracts/Staking.sol\":5841:6841  function claimRewards(uint256[] calldata _tokenIds,IERC721 nftAddress) external notContract {... */\n    tag_3:\n      tag_18\n      0x04\n      dup1\n      calldatasize\n      sub\n      dup2\n      add\n      swap1\n      tag_19\n      swap2\n      swap1\n      tag_20\n      jump\t// in\n    tag_19:\n      tag_21\n      jump\t// in\n    tag_18:\n      stop\n        /* \"contracts/Staking.sol\":3806:4555  function lockNFT(uint256[] calldata  _tokenIds, IERC721 nftAddress ) external notContract nonReentrant {... */\n    tag_4:\n      tag_22\n      0x04\n      dup1\n      calldatasize\n      sub\n      dup2\n      add\n      swap1\n      tag_23\n      swap2\n      swap1\n      tag_20\n      jump\t// in\n    tag_23:\n      tag_24\n      jump\t// in\n    tag_22:\n      stop\n        /* \"contracts/Staking.sol\":502:527  uint256 public lockPeriod */\n    tag_5:\n      tag_25\n      tag_26\n      jump\t// in\n    tag_25:\n      mload(0x40)\n      tag_27\n      swap2\n      swap1\n      tag_28\n      jump\t// in\n    tag_27:\n      mload(0x40)\n      dup1\n      swap2\n      sub\n      swap1\n      return\n        /* \"@openzeppelin/contracts/access/Ownable.sol\":1831:1932  function renounceOwnership() public virtual onlyOwner {... */\n    tag_6:\n      tag_29\n      tag_30\n      jump\t// in\n    tag_29:\n      stop\n        /* \"@openzeppelin/contracts/access/Ownable.sol\":1201:1286  function owner() public view virtual returns (address) {... */\n    tag_7:\n      tag_31\n      tag_32\n      jump\t// in\n    tag_31:\n      mload(0x40)\n      tag_33\n      swap2\n      swap1\n      tag_34\n      jump\t// in\n    tag_33:\n      mload(0x40)\n      dup1\n      swap2\n      sub\n      swap1\n      return\n        /* \"contracts/Staking.sol\":4668:5743  function unlockNFT(uint256[] calldata _tokenIds, IERC721 nftAddress) external notContract nonReentrant {... */\n    tag_8:\n      tag_35\n      0x04\n      dup1\n      calldatasize\n      sub\n      dup2\n      add\n      swap1\n      tag_36\n      swap2\n      swap1\n      tag_20\n      jump\t// in\n    tag_36:\n      tag_37\n      jump\t// in\n    tag_35:\n      stop\n        /* \"contracts/Staking.sol\":770:834  mapping(IERC721 => mapping(uint256 => LockInfo)) public lockInfo */\n    tag_9:\n      tag_38\n      0x04\n      dup1\n      calldatasize\n      sub\n      dup2\n      add\n      swap1\n      tag_39\n      swap2\n      swap1\n      tag_40\n      jump\t// in\n    tag_39:\n      tag_41\n      jump\t// in\n    tag_38:\n      mload(0x40)\n      tag_42\n      swap6\n      swap5\n      swap4\n      swap3\n      swap2\n      swap1\n      tag_43\n      jump\t// in\n    tag_42:\n      mload(0x40)\n      dup1\n      swap2\n      sub\n      swap1\n      return\n        /* \"contracts/Staking.sol\":3491:3665  function claimedRewards(uint256 _tokenId, IERC721 nftAddress) external view returns (uint256) {... */\n    tag_10:\n      tag_44\n      0x04\n      dup1\n      calldatasize\n      sub\n      dup2\n      add\n      swap1\n      tag_45\n      swap2\n      swap1\n      tag_46\n      jump\t// in\n    tag_45:\n      tag_47\n      jump\t// in\n    tag_44:\n      mload(0x40)\n      tag_48\n      swap2\n      swap1\n      tag_28\n      jump\t// in\n    tag_48:\n      mload(0x40)\n      dup1\n      swap2\n      sub\n      swap1\n      return\n        /* \"contracts/Staking.sol\":1099:1118  uint256 public WAVE */\n    tag_11:\n      tag_49\n      tag_50\n      jump\t// in\n    tag_49:\n      mload(0x40)\n      tag_51\n      swap2\n      swap1\n      tag_28\n      jump\t// in\n    tag_51:\n      mload(0x40)\n      dup1\n      swap2\n      sub\n      swap1\n      return\n        /* \"contracts/Staking.sol\":1016:1063  mapping(IERC721 => stakeNftInfo) public nftInfo */\n    tag_12:\n      tag_52\n      0x04\n      dup1\n      calldatasize\n      sub\n      dup2\n      add\n      swap1\n      tag_53\n      swap2\n      swap1\n      tag_54\n      jump\t// in\n    tag_53:\n      tag_55\n      jump\t// in\n    tag_52:\n      mload(0x40)\n      tag_56\n      swap4\n      swap3\n      swap2\n      swap1\n      tag_57\n      jump\t// in\n    tag_56:\n      mload(0x40)\n      dup1\n      swap2\n      sub\n      swap1\n      return\n        /* \"contracts/Staking.sol\":3109:3323  function addStakingNfts(uint256 _lockPeriod) external onlyOwner {... */\n    tag_13:\n      tag_58\n      0x04\n      dup1\n      calldatasize\n      sub\n      dup2\n      add\n      swap1\n      tag_59\n      swap2\n      swap1\n      tag_60\n      jump\t// in\n    tag_59:\n      tag_61\n      jump\t// in\n    tag_58:\n      stop\n        /* \"contracts/Staking.sol\":2208:2985  function addStakingNfts(... */\n    tag_14:\n      tag_62\n      0x04\n      dup1\n      calldatasize\n      sub\n      dup2\n      add\n      swap1\n      tag_63\n      swap2\n      swap1\n      tag_64\n      jump\t// in\n    tag_63:\n      tag_65\n      jump\t// in\n    tag_62:\n      stop\n        /* \"@openzeppelin/contracts/access/Ownable.sol\":2081:2279  function transferOwnership(address newOwner) public virtual onlyOwner {... */\n    tag_15:\n      tag_66\n      0x04\n      dup1\n      calldatasize\n      sub\n      dup2\n      add\n      swap1\n      tag_67\n      swap2\n      swap1\n      tag_68\n      jump\t// in\n    tag_67:\n      tag_69\n      jump\t// in\n    tag_66:\n      stop\n        /* \"contracts/Staking.sol\":5841:6841  function claimRewards(uint256[] calldata _tokenIds,IERC721 nftAddress) external notContract {... */\n    tag_21:\n        /* \"contracts/Staking.sol\":1858:1890  address(msg.sender).isContract() */\n      tag_71\n        /* \"contracts/Staking.sol\":1866:1876  msg.sender */\n      caller\n        /* \"contracts/Staking.sol\":1858:1888  address(msg.sender).isContract */\n      0xffffffffffffffffffffffffffffffffffffffff\n      and\n      tag_72\n        /* \"contracts/Staking.sol\":1858:1890  address(msg.sender).isContract() */\n      jump\t// in\n    tag_71:\n        /* \"contracts/Staking.sol\":1857:1890  !address(msg.sender).isContract() */\n      iszero\n        /* \"contracts/Staking.sol\":1849:1915  require(!address(msg.sender).isContract(), \"Contract not allowed\") */\n      tag_73\n      jumpi\n      mload(0x40)\n      0x08c379a000000000000000000000000000000000000000000000000000000000\n      dup2\n      mstore\n      0x04\n      add\n      tag_74\n      swap1\n      tag_75\n      jump\t// in\n    tag_74:\n      mload(0x40)\n      dup1\n      swap2\n      sub\n      swap1\n      revert\n    tag_73:\n        /* \"contracts/Staking.sol\":1948:1957  tx.origin */\n      origin\n        /* \"contracts/Staking.sol\":1934:1957  msg.sender == tx.origin */\n      0xffffffffffffffffffffffffffffffffffffffff\n      and\n        /* \"contracts/Staking.sol\":1934:1944  msg.sender */\n      caller\n        /* \"contracts/Staking.sol\":1934:1957  msg.sender == tx.origin */\n      0xffffffffffffffffffffffffffffffffffffffff\n      and\n      eq\n        /* \"contracts/Staking.sol\":1926:1988  require(msg.sender == tx.origin, \"Proxy contract not allowed\") */\n      tag_76\n      jumpi\n      mload(0x40)\n      0x08c379a000000000000000000000000000000000000000000000000000000000\n      dup2\n      mstore\n      0x04\n      add\n      tag_77\n      swap1\n      tag_78\n      jump\t// in\n    tag_77:\n      mload(0x40)\n      dup1\n      swap2\n      sub\n      swap1\n      revert\n    tag_76:\n        /* \"contracts/Staking.sol\":5971:5972  0 */\n      0x00\n        /* \"contracts/Staking.sol\":5952:5961  _tokenIds */\n      dup4\n      dup4\n        /* \"contracts/Staking.sol\":5952:5968  _tokenIds.length */\n      swap1\n      pop\n        /* \"contracts/Staking.sol\":5952:5972  _tokenIds.length > 0 */\n      gt\n        /* \"contracts/Staking.sol\":5944:5986  require(_tokenIds.length > 0, \"No tokens\") */\n      tag_80\n      jumpi\n      mload(0x40)\n      0x08c379a000000000000000000000000000000000000000000000000000000000\n      dup2\n      mstore\n      0x04\n      add\n      tag_81\n      swap1\n      tag_82\n      jump\t// in\n    tag_81:\n      mload(0x40)\n      dup1\n      swap2\n      sub\n      swap1\n      revert\n    tag_80:\n        /* \"contracts/Staking.sol\":5999:6019  uint256 totalRewards */\n      0x00\n        /* \"contracts/Staking.sol\":6035:6044  uint256 i */\n      dup1\n        /* \"contracts/Staking.sol\":6047:6048  0 */\n      0x00\n        /* \"contracts/Staking.sol\":6035:6048  uint256 i = 0 */\n      swap1\n      pop\n        /* \"contracts/Staking.sol\":6030:6765  for (uint256 i = 0; i < _tokenIds.length; i++) {... */\n    tag_83:\n        /* \"contracts/Staking.sol\":6054:6063  _tokenIds */\n      dup5\n      dup5\n        /* \"contracts/Staking.sol\":6054:6070  _tokenIds.length */\n      swap1\n      pop\n        /* \"contracts/Staking.sol\":6050:6051  i */\n      dup2\n        /* \"contracts/Staking.sol\":6050:6070  i < _tokenIds.length */\n      lt\n        /* \"contracts/Staking.sol\":6030:6765  for (uint256 i = 0; i < _tokenIds.length; i++) {... */\n      iszero\n      tag_84\n      jumpi\n        /* \"contracts/Staking.sol\":6092:6112  LockInfo memory info */\n      0x00\n        /* \"contracts/Staking.sol\":6115:6123  lockInfo */\n      0x03\n        /* \"contracts/Staking.sol\":6115:6144  lockInfo[IERC721(nftAddress)] */\n      0x00\n        /* \"contracts/Staking.sol\":6132:6142  nftAddress */\n      dup6\n        /* \"contracts/Staking.sol\":6115:6144  lockInfo[IERC721(nftAddress)] */\n      0xffffffffffffffffffffffffffffffffffffffff\n      and\n      0xffffffffffffffffffffffffffffffffffffffff\n      and\n      dup2\n      mstore\n      0x20\n      add\n      swap1\n      dup2\n      mstore\n      0x20\n      add\n      0x00\n      keccak256\n        /* \"contracts/Staking.sol\":6115:6158  lockInfo[IERC721(nftAddress)][_tokenIds[i]] */\n      0x00\n        /* \"contracts/Staking.sol\":6145:6154  _tokenIds */\n      dup8\n      dup8\n        /* \"contracts/Staking.sol\":6155:6156  i */\n      dup6\n        /* \"contracts/Staking.sol\":6145:6157  _tokenIds[i] */\n      dup2\n      dup2\n      lt\n      tag_86\n      jumpi\n      tag_87\n      tag_88\n      jump\t// in\n    tag_87:\n    tag_86:\n      swap1\n      pop\n      0x20\n      mul\n      add\n      calldataload\n        /* \"contracts/Staking.sol\":6115:6158  lockInfo[IERC721(nftAddress)][_tokenIds[i]] */\n      dup2\n      mstore\n      0x20\n      add\n      swap1\n      dup2\n      mstore\n      0x20\n      add\n      0x00\n      keccak256\n        /* \"contracts/Staking.sol\":6092:6158  LockInfo memory info = lockInfo[IERC721(nftAddress)][_tokenIds[i]] */\n      mload(0x40)\n      dup1\n      0xa0\n      add\n      0x40\n      mstore\n      swap1\n      dup2\n      0x00\n      dup3\n      add\n      0x00\n      swap1\n      sload\n      swap1\n      0x0100\n      exp\n      swap1\n      div\n      0xffffffffffffffffffffffffffffffffffffffff\n      and\n      0xffffffffffffffffffffffffffffffffffffffff\n      and\n      0xffffffffffffffffffffffffffffffffffffffff\n      and\n      dup2\n      mstore\n      0x20\n      add\n      0x01\n      dup3\n      add\n      sload\n      dup2\n      mstore\n      0x20\n      add\n      0x02\n      dup3\n      add\n      sload\n      dup2\n      mstore\n      0x20\n      add\n      0x03\n      dup3\n      add\n      0x00\n      swap1\n      sload\n      swap1\n      0x0100\n      exp\n      swap1\n      div\n      0xff\n      and\n      iszero\n      iszero\n      iszero\n      iszero\n      dup2\n      mstore\n      0x20\n      add\n      0x03\n      dup3\n      add\n      0x01\n      swap1\n      sload\n      swap1\n      0x0100\n      exp\n      swap1\n      div\n      0xffffffffffffffffffffffffffffffffffffffff\n      and\n      0xffffffffffffffffffffffffffffffffffffffff\n      and\n      0xffffffffffffffffffffffffffffffffffffffff\n      and\n      dup2\n      mstore\n      pop\n      pop\n      swap1\n      pop\n        /* \"contracts/Staking.sol\":6195:6205  msg.sender */\n      caller\n        /* \"contracts/Staking.sol\":6181:6205  info.owner == msg.sender */\n      0xffffffffffffffffffffffffffffffffffffffff\n      and\n        /* \"contracts/Staking.sol\":6181:6185  info */\n      dup2\n        /* \"contracts/Staking.sol\":6181:6191  info.owner */\n      0x00\n      add\n      mload\n        /* \"contracts/Staking.sol\":6181:6205  info.owner == msg.sender */\n      0xffffffffffffffffffffffffffffffffffffffff\n      and\n      eq\n        /* \"contracts/Staking.sol\":6173:6227  require(info.owner == msg.sender, \"Not a token owner\") */\n      tag_89\n      jumpi\n      mload(0x40)\n      0x08c379a000000000000000000000000000000000000000000000000000000000\n      dup2\n      mstore\n      0x04\n      add\n      tag_90\n      swap1\n      tag_91\n      jump\t// in\n    tag_90:\n      mload(0x40)\n      dup1\n      swap2\n      sub\n      swap1\n      revert\n    tag_89:\n        /* \"contracts/Staking.sol\":6281:6296  block.timestamp */\n      timestamp\n        /* \"contracts/Staking.sol\":6268:6278  lockPeriod */\n      sload(0x02)\n        /* \"contracts/Staking.sol\":6250:6254  info */\n      dup3\n        /* \"contracts/Staking.sol\":6250:6265  info.lockedTime */\n      0x20\n      add\n      mload\n        /* \"contracts/Staking.sol\":6250:6278  info.lockedTime + lockPeriod */\n      tag_92\n      swap2\n      swap1\n      tag_93\n      jump\t// in\n    tag_92:\n        /* \"contracts/Staking.sol\":6250:6296  info.lockedTime + lockPeriod < block.timestamp */\n      lt\n        /* \"contracts/Staking.sol\":6242:6322  require(info.lockedTime + lockPeriod < block.timestamp, \"Not able to claim yet\") */\n      tag_94\n      jumpi\n      mload(0x40)\n      0x08c379a000000000000000000000000000000000000000000000000000000000\n      dup2\n      mstore\n      0x04\n      add\n      tag_95\n      swap1\n      tag_96\n      jump\t// in\n    tag_95:\n      mload(0x40)\n      dup1\n      swap2\n      sub\n      swap1\n      revert\n    tag_94:\n        /* \"contracts/Staking.sol\":6346:6350  info */\n      dup1\n        /* \"contracts/Staking.sol\":6346:6361  info.isUnlocked */\n      0x60\n      add\n      mload\n        /* \"contracts/Staking.sol\":6345:6361  !info.isUnlocked */\n      iszero\n        /* \"contracts/Staking.sol\":6337:6382  require(!info.isUnlocked, \"Already unlocked\") */\n      tag_97\n      jumpi\n      mload(0x40)\n      0x08c379a000000000000000000000000000000000000000000000000000000000\n      dup2\n      mstore\n      0x04\n      add\n      tag_98\n      swap1\n      tag_99\n      jump\t// in\n    tag_98:\n      mload(0x40)\n      dup1\n      swap2\n      sub\n      swap1\n      revert\n    tag_97:\n        /* \"contracts/Staking.sol\":6399:6418  uint256 totalAmount */\n      0x00\n        /* \"contracts/Staking.sol\":6421:6460  _rewardAmount(_tokenIds[i], nftAddress) */\n      tag_100\n        /* \"contracts/Staking.sol\":6435:6444  _tokenIds */\n      dup8\n      dup8\n        /* \"contracts/Staking.sol\":6445:6446  i */\n      dup6\n        /* \"contracts/Staking.sol\":6435:6447  _tokenIds[i] */\n      dup2\n      dup2\n      lt\n      tag_101\n      jumpi\n      tag_102\n      tag_88\n      jump\t// in\n    tag_102:\n    tag_101:\n      swap1\n      pop\n      0x20\n      mul\n      add\n      calldataload\n        /* \"contracts/Staking.sol\":6449:6459  nftAddress */\n      dup7\n        /* \"contracts/Staking.sol\":6421:6434  _rewardAmount */\n      tag_103\n        /* \"contracts/Staking.sol\":6421:6460  _rewardAmount(_tokenIds[i], nftAddress) */\n      jump\t// in\n    tag_100:\n        /* \"contracts/Staking.sol\":6399:6460  uint256 totalAmount = _rewardAmount(_tokenIds[i], nftAddress) */\n      swap1\n      pop\n        /* \"contracts/Staking.sol\":6475:6499  uint256 unclaminedAmount */\n      0x00\n        /* \"contracts/Staking.sol\":6516:6520  info */\n      dup3\n        /* \"contracts/Staking.sol\":6516:6535  info.claimedRewards */\n      0x40\n      add\n      mload\n        /* \"contracts/Staking.sol\":6502:6513  totalAmount */\n      dup3\n        /* \"contracts/Staking.sol\":6502:6535  totalAmount - info.claimedRewards */\n      tag_104\n      swap2\n      swap1\n      tag_105\n      jump\t// in\n    tag_104:\n        /* \"contracts/Staking.sol\":6475:6535  uint256 unclaminedAmount = totalAmount - info.claimedRewards */\n      swap1\n      pop\n        /* \"contracts/Staking.sol\":6550:6557  nftInfo */\n      0x04\n        /* \"contracts/Staking.sol\":6550:6569  nftInfo[nftAddress] */\n      0x00\n        /* \"contracts/Staking.sol\":6558:6568  nftAddress */\n      dup8\n        /* \"contracts/Staking.sol\":6550:6569  nftInfo[nftAddress] */\n      0xffffffffffffffffffffffffffffffffffffffff\n      and\n      0xffffffffffffffffffffffffffffffffffffffff\n      and\n      dup2\n      mstore\n      0x20\n      add\n      swap1\n      dup2\n      mstore\n      0x20\n      add\n      0x00\n      keccak256\n        /* \"contracts/Staking.sol\":6550:6582  nftInfo[nftAddress].rewardsToken */\n      0x00\n      add\n      0x00\n      swap1\n      sload\n      swap1\n      0x0100\n      exp\n      swap1\n      div\n      0xffffffffffffffffffffffffffffffffffffffff\n      and\n        /* \"contracts/Staking.sol\":6550:6587  nftInfo[nftAddress].rewardsToken.mint */\n      0xffffffffffffffffffffffffffffffffffffffff\n      and\n      0x40c10f19\n        /* \"contracts/Staking.sol\":6588:6598  msg.sender */\n      caller\n        /* \"contracts/Staking.sol\":6600:6616  unclaminedAmount */\n      dup4\n        /* \"contracts/Staking.sol\":6550:6617  nftInfo[nftAddress].rewardsToken.mint(msg.sender, unclaminedAmount) */\n      mload(0x40)\n      dup4\n      0xffffffff\n      and\n      0xe0\n      shl\n      dup2\n      mstore\n      0x04\n      add\n      tag_106\n      swap3\n      swap2\n      swap1\n      tag_107\n      jump\t// in\n    tag_106:\n      0x00\n      mload(0x40)\n      dup1\n      dup4\n      sub\n      dup2\n      0x00\n      dup8\n      dup1\n      extcodesize\n      iszero\n      dup1\n      iszero\n      tag_108\n      jumpi\n      0x00\n      dup1\n      revert\n    tag_108:\n      pop\n      gas\n      call\n      iszero\n      dup1\n      iszero\n      tag_110\n      jumpi\n      returndatasize\n      0x00\n      dup1\n      returndatacopy\n      revert(0x00, returndatasize)\n    tag_110:\n      pop\n      pop\n      pop\n      pop\n        /* \"contracts/Staking.sol\":6648:6664  unclaminedAmount */\n      dup1\n        /* \"contracts/Staking.sol\":6632:6664  totalRewards += unclaminedAmount */\n      dup6\n      tag_111\n      swap2\n      swap1\n      tag_93\n      jump\t// in\n    tag_111:\n      swap5\n      pop\n        /* \"contracts/Staking.sol\":6742:6753  totalAmount */\n      dup2\n        /* \"contracts/Staking.sol\":6681:6689  lockInfo */\n      0x03\n        /* \"contracts/Staking.sol\":6681:6710  lockInfo[IERC721(nftAddress)] */\n      0x00\n        /* \"contracts/Staking.sol\":6698:6708  nftAddress */\n      dup9\n        /* \"contracts/Staking.sol\":6681:6710  lockInfo[IERC721(nftAddress)] */\n      0xffffffffffffffffffffffffffffffffffffffff\n      and\n      0xffffffffffffffffffffffffffffffffffffffff\n      and\n      dup2\n      mstore\n      0x20\n      add\n      swap1\n      dup2\n      mstore\n      0x20\n      add\n      0x00\n      keccak256\n        /* \"contracts/Staking.sol\":6681:6724  lockInfo[IERC721(nftAddress)][_tokenIds[i]] */\n      0x00\n        /* \"contracts/Staking.sol\":6711:6720  _tokenIds */\n      dup11\n      dup11\n        /* \"contracts/Staking.sol\":6721:6722  i */\n      dup9\n        /* \"contracts/Staking.sol\":6711:6723  _tokenIds[i] */\n      dup2\n      dup2\n      lt\n      tag_112\n      jumpi\n      tag_113\n      tag_88\n      jump\t// in\n    tag_113:\n    tag_112:\n      swap1\n      pop\n      0x20\n      mul\n      add\n      calldataload\n        /* \"contracts/Staking.sol\":6681:6724  lockInfo[IERC721(nftAddress)][_tokenIds[i]] */\n      dup2\n      mstore\n      0x20\n      add\n      swap1\n      dup2\n      mstore\n      0x20\n      add\n      0x00\n      keccak256\n        /* \"contracts/Staking.sol\":6681:6739  lockInfo[IERC721(nftAddress)][_tokenIds[i]].claimedRewards */\n      0x02\n      add\n        /* \"contracts/Staking.sol\":6681:6753  lockInfo[IERC721(nftAddress)][_tokenIds[i]].claimedRewards = totalAmount */\n      dup2\n      swap1\n      sstore\n      pop\n        /* \"contracts/Staking.sol\":6077:6765  {... */\n      pop\n      pop\n      pop\n        /* \"contracts/Staking.sol\":6072:6075  i++ */\n      dup1\n      dup1\n      tag_114\n      swap1\n      tag_115\n      jump\t// in\n    tag_114:\n      swap2\n      pop\n      pop\n        /* \"contracts/Staking.sol\":6030:6765  for (uint256 i = 0; i < _tokenIds.length; i++) {... */\n      jump(tag_83)\n    tag_84:\n      pop\n        /* \"contracts/Staking.sol\":6797:6807  msg.sender */\n      caller\n        /* \"contracts/Staking.sol\":6782:6833  RewardsClaimed(msg.sender, _tokenIds, totalRewards) */\n      0xffffffffffffffffffffffffffffffffffffffff\n      and\n      0x37826be3c26dbad83731f4b985f22fa9ef86b6d1974cd77208332b7f1f283c0c\n        /* \"contracts/Staking.sol\":6809:6818  _tokenIds */\n      dup6\n      dup6\n        /* \"contracts/Staking.sol\":6820:6832  totalRewards */\n      dup5\n        /* \"contracts/Staking.sol\":6782:6833  RewardsClaimed(msg.sender, _tokenIds, totalRewards) */\n      mload(0x40)\n      tag_116\n      swap4\n      swap3\n      swap2\n      swap1\n      tag_117\n      jump\t// in\n    tag_116:\n      mload(0x40)\n      dup1\n      swap2\n      sub\n      swap1\n      log2\n        /* \"contracts/Staking.sol\":5933:6841  {... */\n      pop\n        /* \"contracts/Staking.sol\":5841:6841  function claimRewards(uint256[] calldata _tokenIds,IERC721 nftAddress) external notContract {... */\n      pop\n      pop\n      pop\n      jump\t// out\n        /* \"contracts/Staking.sol\":3806:4555  function lockNFT(uint256[] calldata  _tokenIds, IERC721 nftAddress ) external notContract nonReentrant {... */\n    tag_24:\n        /* \"contracts/Staking.sol\":1858:1890  address(msg.sender).isContract() */\n      tag_119\n        /* \"contracts/Staking.sol\":1866:1876  msg.sender */\n      caller\n        /* \"contracts/Staking.sol\":1858:1888  address(msg.sender).isContract */\n      0xffffffffffffffffffffffffffffffffffffffff\n      and\n      tag_72\n        /* \"contracts/Staking.sol\":1858:1890  address(msg.sender).isContract() */\n      jump\t// in\n    tag_119:\n        /* \"contracts/Staking.sol\":1857:1890  !address(msg.sender).isContract() */\n      iszero\n        /* \"contracts/Staking.sol\":1849:1915  require(!address(msg.sender).isContract(), \"Contract not allowed\") */\n      tag_120\n      jumpi\n      mload(0x40)\n      0x08c379a000000000000000000000000000000000000000000000000000000000\n      dup2\n      mstore\n      0x04\n      add\n      tag_121\n      swap1\n      tag_75\n      jump\t// in\n    tag_121:\n      mload(0x40)\n      dup1\n      swap2\n      sub\n      swap1\n      revert\n    tag_120:\n        /* \"contracts/Staking.sol\":1948:1957  tx.origin */\n      origin\n        /* \"contracts/Staking.sol\":1934:1957  msg.sender == tx.origin */\n      0xffffffffffffffffffffffffffffffffffffffff\n      and\n        /* \"contracts/Staking.sol\":1934:1944  msg.sender */\n      caller\n        /* \"contracts/Staking.sol\":1934:1957  msg.sender == tx.origin */\n      0xffffffffffffffffffffffffffffffffffffffff\n      and\n      eq\n        /* \"contracts/Staking.sol\":1926:1988  require(msg.sender == tx.origin, \"Proxy contract not allowed\") */\n      tag_122\n      jumpi\n      mload(0x40)\n      0x08c379a000000000000000000000000000000000000000000000000000000000\n      dup2\n      mstore\n      0x04\n      add\n      tag_123\n      swap1\n      tag_78\n      jump\t// in\n    tag_123:\n      mload(0x40)\n      dup1\n      swap2\n      sub\n      swap1\n      revert\n    tag_122:\n        /* \"@openzeppelin/contracts/security/ReentrancyGuard.sol\":1744:1745  2 */\n      0x02\n        /* \"@openzeppelin/contracts/security/ReentrancyGuard.sol\":2325:2332  _status */\n      sload(0x01)\n        /* \"@openzeppelin/contracts/security/ReentrancyGuard.sol\":2325:2344  _status != _ENTERED */\n      sub\n        /* \"@openzeppelin/contracts/security/ReentrancyGuard.sol\":2317:2380  require(_status != _ENTERED, \"ReentrancyGuard: reentrant call\") */\n      tag_125\n      jumpi\n      mload(0x40)\n      0x08c379a000000000000000000000000000000000000000000000000000000000\n      dup2\n      mstore\n      0x04\n      add\n      tag_126\n      swap1\n      tag_127\n      jump\t// in\n    tag_126:\n      mload(0x40)\n      dup1\n      swap2\n      sub\n      swap1\n      revert\n    tag_125:\n        /* \"@openzeppelin/contracts/security/ReentrancyGuard.sol\":1744:1745  2 */\n      0x02\n        /* \"@openzeppelin/contracts/security/ReentrancyGuard.sol\":2455:2462  _status */\n      0x01\n        /* \"@openzeppelin/contracts/security/ReentrancyGuard.sol\":2455:2473  _status = _ENTERED */\n      dup2\n      swap1\n      sstore\n      pop\n        /* \"contracts/Staking.sol\":3980:4022  0x0000000000000000000000000000000000000000 */\n      0x00\n        /* \"contracts/Staking.sol\":3930:4023  nftInfo[nftAddress].rewardsToken == IRewardsToken(0x0000000000000000000000000000000000000000) */\n      0xffffffffffffffffffffffffffffffffffffffff\n      and\n        /* \"contracts/Staking.sol\":3930:3937  nftInfo */\n      0x04\n        /* \"contracts/Staking.sol\":3930:3949  nftInfo[nftAddress] */\n      0x00\n        /* \"contracts/Staking.sol\":3938:3948  nftAddress */\n      dup4\n        /* \"contracts/Staking.sol\":3930:3949  nftInfo[nftAddress] */\n      0xffffffffffffffffffffffffffffffffffffffff\n      and\n      0xffffffffffffffffffffffffffffffffffffffff\n      and\n      dup2\n      mstore\n      0x20\n      add\n      swap1\n      dup2\n      mstore\n      0x20\n      add\n      0x00\n      keccak256\n        /* \"contracts/Staking.sol\":3930:3962  nftInfo[nftAddress].rewardsToken */\n      0x00\n      add\n      0x00\n      swap1\n      sload\n      swap1\n      0x0100\n      exp\n      swap1\n      div\n      0xffffffffffffffffffffffffffffffffffffffff\n      and\n        /* \"contracts/Staking.sol\":3930:4023  nftInfo[nftAddress].rewardsToken == IRewardsToken(0x0000000000000000000000000000000000000000) */\n      0xffffffffffffffffffffffffffffffffffffffff\n      and\n      eq\n        /* \"contracts/Staking.sol\":3922:4067  require(nftInfo[nftAddress].rewardsToken == IRewardsToken(0x0000000000000000000000000000000000000000), \"Staking: Register Staking by addStaking\") */\n      tag_129\n      jumpi\n      mload(0x40)\n      0x08c379a000000000000000000000000000000000000000000000000000000000\n      dup2\n      mstore\n      0x04\n      add\n      tag_130\n      swap1\n      tag_131\n      jump\t// in\n    tag_130:\n      mload(0x40)\n      dup1\n      swap2\n      sub\n      swap1\n      revert\n    tag_129:\n        /* \"contracts/Staking.sol\":4105:4106  0 */\n      0x00\n        /* \"contracts/Staking.sol\":4086:4095  _tokenIds */\n      dup4\n      dup4\n        /* \"contracts/Staking.sol\":4086:4102  _tokenIds.length */\n      swap1\n      pop\n        /* \"contracts/Staking.sol\":4086:4106  _tokenIds.length > 0 */\n      gt\n        /* \"contracts/Staking.sol\":4078:4120  require(_tokenIds.length > 0, \"No tokens\") */\n      tag_132\n      jumpi\n      mload(0x40)\n      0x08c379a000000000000000000000000000000000000000000000000000000000\n      dup2\n      mstore\n      0x04\n      add\n      tag_133\n      swap1\n      tag_82\n      jump\t// in\n    tag_133:\n      mload(0x40)\n      dup1\n      swap2\n      sub\n      swap1\n      revert\n    tag_132:\n        /* \"contracts/Staking.sol\":4138:4147  uint256 i */\n      0x00\n        /* \"contracts/Staking.sol\":4133:4498  for (uint256 i = 0; i < _tokenIds.length; i++) {... */\n    tag_134:\n        /* \"contracts/Staking.sol\":4157:4166  _tokenIds */\n      dup4\n      dup4\n        /* \"contracts/Staking.sol\":4157:4173  _tokenIds.length */\n      swap1\n      pop\n        /* \"contracts/Staking.sol\":4153:4154  i */\n      dup2\n        /* \"contracts/Staking.sol\":4153:4173  i < _tokenIds.length */\n      lt\n        /* \"contracts/Staking.sol\":4133:4498  for (uint256 i = 0; i < _tokenIds.length; i++) {... */\n      iszero\n      tag_135\n      jumpi\n        /* \"contracts/Staking.sol\":4239:4249  msg.sender */\n      caller\n        /* \"contracts/Staking.sol\":4203:4249  nftAddress.ownerOf(_tokenIds[i]) == msg.sender */\n      0xffffffffffffffffffffffffffffffffffffffff\n      and\n        /* \"contracts/Staking.sol\":4203:4213  nftAddress */\n      dup3\n        /* \"contracts/Staking.sol\":4203:4221  nftAddress.ownerOf */\n      0xffffffffffffffffffffffffffffffffffffffff\n      and\n      0x6352211e\n        /* \"contracts/Staking.sol\":4222:4231  _tokenIds */\n      dup7\n      dup7\n        /* \"contracts/Staking.sol\":4232:4233  i */\n      dup6\n        /* \"contracts/Staking.sol\":4222:4234  _tokenIds[i] */\n      dup2\n      dup2\n      lt\n      tag_137\n      jumpi\n      tag_138\n      tag_88\n      jump\t// in\n    tag_138:\n    tag_137:\n      swap1\n      pop\n      0x20\n      mul\n      add\n      calldataload\n        /* \"contracts/Staking.sol\":4203:4235  nftAddress.ownerOf(_tokenIds[i]) */\n      mload(0x40)\n      dup3\n      0xffffffff\n      and\n      0xe0\n      shl\n      dup2\n      mstore\n      0x04\n      add\n      tag_139\n      swap2\n      swap1\n      tag_28\n      jump\t// in\n    tag_139:\n      0x20\n      mload(0x40)\n      dup1\n      dup4\n      sub\n      dup2\n      dup7\n      gas\n      staticcall\n      iszero\n      dup1\n      iszero\n      tag_141\n      jumpi\n      returndatasize\n      0x00\n      dup1\n      returndatacopy\n      revert(0x00, returndatasize)\n    tag_141:\n      pop\n      pop\n      pop\n      pop\n      mload(0x40)\n      returndatasize\n      not(0x1f)\n      0x1f\n      dup3\n      add\n      and\n      dup3\n      add\n      dup1\n      0x40\n      mstore\n      pop\n      dup2\n      add\n      swap1\n      tag_142\n      swap2\n      swap1\n      tag_143\n      jump\t// in\n    tag_142:\n        /* \"contracts/Staking.sol\":4203:4249  nftAddress.ownerOf(_tokenIds[i]) == msg.sender */\n      0xffffffffffffffffffffffffffffffffffffffff\n      and\n      eq\n        /* \"contracts/Staking.sol\":4195:4279  require(nftAddress.ownerOf(_tokenIds[i]) == msg.sender, \"You don't hold this token\") */\n      tag_144\n      jumpi\n      mload(0x40)\n      0x08c379a000000000000000000000000000000000000000000000000000000000\n      dup2\n      mstore\n      0x04\n      add\n      tag_145\n      swap1\n      tag_146\n      jump\t// in\n    tag_145:\n      mload(0x40)\n      dup1\n      swap2\n      sub\n      swap1\n      revert\n    tag_144:\n        /* \"contracts/Staking.sol\":4294:4304  nftAddress */\n      dup2\n        /* \"contracts/Staking.sol\":4294:4317  nftAddress.transferFrom */\n      0xffffffffffffffffffffffffffffffffffffffff\n      and\n      0x23b872dd\n        /* \"contracts/Staking.sol\":4318:4328  msg.sender */\n      caller\n        /* \"contracts/Staking.sol\":4338:4342  this */\n      address\n        /* \"contracts/Staking.sol\":4345:4354  _tokenIds */\n      dup8\n      dup8\n        /* \"contracts/Staking.sol\":4355:4356  i */\n      dup7\n        /* \"contracts/Staking.sol\":4345:4357  _tokenIds[i] */\n      dup2\n      dup2\n      lt\n      tag_147\n      jumpi\n      tag_148\n      tag_88\n      jump\t// in\n    tag_148:\n    tag_147:\n      swap1\n      pop\n      0x20\n      mul\n      add\n      calldataload\n        /* \"contracts/Staking.sol\":4294:4358  nftAddress.transferFrom(msg.sender, address(this), _tokenIds[i]) */\n      mload(0x40)\n      dup5\n      0xffffffff\n      and\n      0xe0\n      shl\n      dup2\n      mstore\n      0x04\n      add\n      tag_149\n      swap4\n      swap3\n      swap2\n      swap1\n      tag_150\n      jump\t// in\n    tag_149:\n      0x00\n      mload(0x40)\n      dup1\n      dup4\n      sub\n      dup2\n      0x00\n      dup8\n      dup1\n      extcodesize\n      iszero\n      dup1\n      iszero\n      tag_151\n      jumpi\n      0x00\n      dup1\n      revert\n    tag_151:\n      pop\n      gas\n      call\n      iszero\n      dup1\n      iszero\n      tag_153\n      jumpi\n      returndatasize\n      0x00\n      dup1\n      returndatacopy\n      revert(0x00, returndatasize)\n    tag_153:\n      pop\n      pop\n      pop\n      pop\n        /* \"contracts/Staking.sol\":4419:4486  LockInfo(msg.sender, block.timestamp, 0, false,IERC721(nftAddress)) */\n      mload(0x40)\n      dup1\n      0xa0\n      add\n      0x40\n      mstore\n      dup1\n        /* \"contracts/Staking.sol\":4428:4438  msg.sender */\n      caller\n        /* \"contracts/Staking.sol\":4419:4486  LockInfo(msg.sender, block.timestamp, 0, false,IERC721(nftAddress)) */\n      0xffffffffffffffffffffffffffffffffffffffff\n      and\n      dup2\n      mstore\n      0x20\n      add\n        /* \"contracts/Staking.sol\":4440:4455  block.timestamp */\n      timestamp\n        /* \"contracts/Staking.sol\":4419:4486  LockInfo(msg.sender, block.timestamp, 0, false,IERC721(nftAddress)) */\n      dup2\n      mstore\n      0x20\n      add\n        /* \"contracts/Staking.sol\":4457:4458  0 */\n      0x00\n        /* \"contracts/Staking.sol\":4419:4486  LockInfo(msg.sender, block.timestamp, 0, false,IERC721(nftAddress)) */\n      dup2\n      mstore\n      0x20\n      add\n        /* \"contracts/Staking.sol\":4460:4465  false */\n      0x00\n        /* \"contracts/Staking.sol\":4419:4486  LockInfo(msg.sender, block.timestamp, 0, false,IERC721(nftAddress)) */\n      iszero\n      iszero\n      dup2\n      mstore\n      0x20\n      add\n        /* \"contracts/Staking.sol\":4474:4484  nftAddress */\n      dup4\n        /* \"contracts/Staking.sol\":4419:4486  LockInfo(msg.sender, block.timestamp, 0, false,IERC721(nftAddress)) */\n      0xffffffffffffffffffffffffffffffffffffffff\n      and\n      dup2\n      mstore\n      pop\n        /* \"contracts/Staking.sol\":4373:4381  lockInfo */\n      0x03\n        /* \"contracts/Staking.sol\":4373:4402  lockInfo[IERC721(nftAddress)] */\n      0x00\n        /* \"contracts/Staking.sol\":4390:4400  nftAddress */\n      dup5\n        /* \"contracts/Staking.sol\":4373:4402  lockInfo[IERC721(nftAddress)] */\n      0xffffffffffffffffffffffffffffffffffffffff\n      and\n      0xffffffffffffffffffffffffffffffffffffffff\n      and\n      dup2\n      mstore\n      0x20\n      add\n      swap1\n      dup2\n      mstore\n      0x20\n      add\n      0x00\n      keccak256\n        /* \"contracts/Staking.sol\":4373:4416  lockInfo[IERC721(nftAddress)][_tokenIds[i]] */\n      0x00\n        /* \"contracts/Staking.sol\":4403:4412  _tokenIds */\n      dup7\n      dup7\n        /* \"contracts/Staking.sol\":4413:4414  i */\n      dup6\n        /* \"contracts/Staking.sol\":4403:4415  _tokenIds[i] */\n      dup2\n      dup2\n      lt\n      tag_154\n      jumpi\n      tag_155\n      tag_88\n      jump\t// in\n    tag_155:\n    tag_154:\n      swap1\n      pop\n      0x20\n      mul\n      add\n      calldataload\n        /* \"contracts/Staking.sol\":4373:4416  lockInfo[IERC721(nftAddress)][_tokenIds[i]] */\n      dup2\n      mstore\n      0x20\n      add\n      swap1\n      dup2\n      mstore\n      0x20\n      add\n      0x00\n      keccak256\n        /* \"contracts/Staking.sol\":4373:4486  lockInfo[IERC721(nftAddress)][_tokenIds[i]] = LockInfo(msg.sender, block.timestamp, 0, false,IERC721(nftAddress)) */\n      0x00\n      dup3\n      add\n      mload\n      dup2\n      0x00\n      add\n      exp(0x0100, 0x00)\n      dup2\n      sload\n      dup2\n      0xffffffffffffffffffffffffffffffffffffffff\n      mul\n      not\n      and\n      swap1\n      dup4\n      0xffffffffffffffffffffffffffffffffffffffff\n      and\n      mul\n      or\n      swap1\n      sstore\n      pop\n      0x20\n      dup3\n      add\n      mload\n      dup2\n      0x01\n      add\n      sstore\n      0x40\n      dup3\n      add\n      mload\n      dup2\n      0x02\n      add\n      sstore\n      0x60\n      dup3\n      add\n      mload\n      dup2\n      0x03\n      add\n      exp(0x0100, 0x00)\n      dup2\n      sload\n      dup2\n      0xff\n      mul\n      not\n      and\n      swap1\n      dup4\n      iszero\n      iszero\n      mul\n      or\n      swap1\n      sstore\n      pop\n      0x80\n      dup3\n      add\n      mload\n      dup2\n      0x03\n      add\n      exp(0x0100, 0x01)\n      dup2\n      sload\n      dup2\n      0xffffffffffffffffffffffffffffffffffffffff\n      mul\n      not\n      and\n      swap1\n      dup4\n      0xffffffffffffffffffffffffffffffffffffffff\n      and\n      mul\n      or\n      swap1\n      sstore\n      pop\n      swap1\n      pop\n      pop\n        /* \"contracts/Staking.sol\":4175:4178  i++ */\n      dup1\n      dup1\n      tag_156\n      swap1\n      tag_115\n      jump\t// in\n    tag_156:\n      swap2\n      pop\n      pop\n        /* \"contracts/Staking.sol\":4133:4498  for (uint256 i = 0; i < _tokenIds.length; i++) {... */\n      jump(tag_134)\n    tag_135:\n      pop\n        /* \"contracts/Staking.sol\":4525:4535  msg.sender */\n      caller\n        /* \"contracts/Staking.sol\":4515:4547  NFTLocked(msg.sender, _tokenIds) */\n      0xffffffffffffffffffffffffffffffffffffffff\n      and\n      0x458be0227bccc9e803dec79bd16767eeaf9925d2ce708eeed7ae1f3621f968f9\n        /* \"contracts/Staking.sol\":4537:4546  _tokenIds */\n      dup5\n      dup5\n        /* \"contracts/Staking.sol\":4515:4547  NFTLocked(msg.sender, _tokenIds) */\n      mload(0x40)\n      tag_157\n      swap3\n      swap2\n      swap1\n      tag_158\n      jump\t// in\n    tag_157:\n      mload(0x40)\n      dup1\n      swap2\n      sub\n      swap1\n      log2\n        /* \"@openzeppelin/contracts/security/ReentrancyGuard.sol\":1701:1702  1 */\n      0x01\n        /* \"@openzeppelin/contracts/security/ReentrancyGuard.sol\":2628:2635  _status */\n      dup1\n        /* \"@openzeppelin/contracts/security/ReentrancyGuard.sol\":2628:2650  _status = _NOT_ENTERED */\n      dup2\n      swap1\n      sstore\n      pop\n        /* \"contracts/Staking.sol\":3806:4555  function lockNFT(uint256[] calldata  _tokenIds, IERC721 nftAddress ) external notContract nonReentrant {... */\n      pop\n      pop\n      pop\n      jump\t// out\n        /* \"contracts/Staking.sol\":502:527  uint256 public lockPeriod */\n    tag_26:\n      sload(0x02)\n      dup2\n      jump\t// out\n        /* \"@openzeppelin/contracts/access/Ownable.sol\":1831:1932  function renounceOwnership() public virtual onlyOwner {... */\n    tag_30:\n        /* \"@openzeppelin/contracts/access/Ownable.sol\":1094:1107  _checkOwner() */\n      tag_160\n        /* \"@openzeppelin/contracts/access/Ownable.sol\":1094:1105  _checkOwner */\n      tag_161\n        /* \"@openzeppelin/contracts/access/Ownable.sol\":1094:1107  _checkOwner() */\n      jump\t// in\n    tag_160:\n        /* \"@openzeppelin/contracts/access/Ownable.sol\":1895:1925  _transferOwnership(address(0)) */\n      tag_163\n        /* \"@openzeppelin/contracts/access/Ownable.sol\":1922:1923  0 */\n      0x00\n        /* \"@openzeppelin/contracts/access/Ownable.sol\":1895:1913  _transferOwnership */\n      tag_164\n        /* \"@openzeppelin/contracts/access/Ownable.sol\":1895:1925  _transferOwnership(address(0)) */\n      jump\t// in\n    tag_163:\n        /* \"@openzeppelin/contracts/access/Ownable.sol\":1831:1932  function renounceOwnership() public virtual onlyOwner {... */\n      jump\t// out\n        /* \"@openzeppelin/contracts/access/Ownable.sol\":1201:1286  function owner() public view virtual returns (address) {... */\n    tag_32:\n        /* \"@openzeppelin/contracts/access/Ownable.sol\":1247:1254  address */\n      0x00\n        /* \"@openzeppelin/contracts/access/Ownable.sol\":1273:1279  _owner */\n      dup1\n      0x00\n      swap1\n      sload\n      swap1\n      0x0100\n      exp\n      swap1\n      div\n      0xffffffffffffffffffffffffffffffffffffffff\n      and\n        /* \"@openzeppelin/contracts/access/Ownable.sol\":1266:1279  return _owner */\n      swap1\n      pop\n        /* \"@openzeppelin/contracts/access/Ownable.sol\":1201:1286  function owner() public view virtual returns (address) {... */\n      swap1\n      jump\t// out\n        /* \"contracts/Staking.sol\":4668:5743  function unlockNFT(uint256[] calldata _tokenIds, IERC721 nftAddress) external notContract nonReentrant {... */\n    tag_37:\n        /* \"contracts/Staking.sol\":1858:1890  address(msg.sender).isContract() */\n      tag_167\n        /* \"contracts/Staking.sol\":1866:1876  msg.sender */\n      caller\n        /* \"contracts/Staking.sol\":1858:1888  address(msg.sender).isContract */\n      0xffffffffffffffffffffffffffffffffffffffff\n      and\n      tag_72\n        /* \"contracts/Staking.sol\":1858:1890  address(msg.sender).isContract() */\n      jump\t// in\n    tag_167:\n        /* \"contracts/Staking.sol\":1857:1890  !address(msg.sender).isContract() */\n      iszero\n        /* \"contracts/Staking.sol\":1849:1915  require(!address(msg.sender).isContract(), \"Contract not allowed\") */\n      tag_168\n      jumpi\n      mload(0x40)\n      0x08c379a000000000000000000000000000000000000000000000000000000000\n      dup2\n      mstore\n      0x04\n      add\n      tag_169\n      swap1\n      tag_75\n      jump\t// in\n    tag_169:\n      mload(0x40)\n      dup1\n      swap2\n      sub\n      swap1\n      revert\n    tag_168:\n        /* \"contracts/Staking.sol\":1948:1957  tx.origin */\n      origin\n        /* \"contracts/Staking.sol\":1934:1957  msg.sender == tx.origin */\n      0xffffffffffffffffffffffffffffffffffffffff\n      and\n        /* \"contracts/Staking.sol\":1934:1944  msg.sender */\n      caller\n        /* \"contracts/Staking.sol\":1934:1957  msg.sender == tx.origin */\n      0xffffffffffffffffffffffffffffffffffffffff\n      and\n      eq\n        /* \"contracts/Staking.sol\":1926:1988  require(msg.sender == tx.origin, \"Proxy contract not allowed\") */\n      tag_170\n      jumpi\n      mload(0x40)\n      0x08c379a000000000000000000000000000000000000000000000000000000000\n      dup2\n      mstore\n      0x04\n      add\n      tag_171\n      swap1\n      tag_78\n      jump\t// in\n    tag_171:\n      mload(0x40)\n      dup1\n      swap2\n      sub\n      swap1\n      revert\n    tag_170:\n        /* \"@openzeppelin/contracts/security/ReentrancyGuard.sol\":1744:1745  2 */\n      0x02\n        /* \"@openzeppelin/contracts/security/ReentrancyGuard.sol\":2325:2332  _status */\n      sload(0x01)\n        /* \"@openzeppelin/contracts/security/ReentrancyGuard.sol\":2325:2344  _status != _ENTERED */\n      sub\n        /* \"@openzeppelin/contracts/security/ReentrancyGuard.sol\":2317:2380  require(_status != _ENTERED, \"ReentrancyGuard: reentrant call\") */\n      tag_173\n      jumpi\n      mload(0x40)\n      0x08c379a000000000000000000000000000000000000000000000000000000000\n      dup2\n      mstore\n      0x04\n      add\n      tag_174\n      swap1\n      tag_127\n      jump\t// in\n    tag_174:\n      mload(0x40)\n      dup1\n      swap2\n      sub\n      swap1\n      revert\n    tag_173:\n        /* \"@openzeppelin/contracts/security/ReentrancyGuard.sol\":1744:1745  2 */\n      0x02\n        /* \"@openzeppelin/contracts/security/ReentrancyGuard.sol\":2455:2462  _status */\n      0x01\n        /* \"@openzeppelin/contracts/security/ReentrancyGuard.sol\":2455:2473  _status = _ENTERED */\n      dup2\n      swap1\n      sstore\n      pop\n        /* \"contracts/Staking.sol\":4809:4810  0 */\n      0x00\n        /* \"contracts/Staking.sol\":4790:4799  _tokenIds */\n      dup4\n      dup4\n        /* \"contracts/Staking.sol\":4790:4806  _tokenIds.length */\n      swap1\n      pop\n        /* \"contracts/Staking.sol\":4790:4810  _tokenIds.length > 0 */\n      gt\n        /* \"contracts/Staking.sol\":4782:4824  require(_tokenIds.length > 0, \"No tokens\") */\n      tag_176\n      jumpi\n      mload(0x40)\n      0x08c379a000000000000000000000000000000000000000000000000000000000\n      dup2\n      mstore\n      0x04\n      add\n      tag_177\n      swap1\n      tag_82\n      jump\t// in\n    tag_177:\n      mload(0x40)\n      dup1\n      swap2\n      sub\n      swap1\n      revert\n    tag_176:\n        /* \"contracts/Staking.sol\":4842:4851  uint256 i */\n      0x00\n        /* \"contracts/Staking.sol\":4837:5684  for (uint256 i = 0; i < _tokenIds.length; i++) {... */\n    tag_178:\n        /* \"contracts/Staking.sol\":4861:4870  _tokenIds */\n      dup4\n      dup4\n        /* \"contracts/Staking.sol\":4861:4877  _tokenIds.length */\n      swap1\n      pop\n        /* \"contracts/Staking.sol\":4857:4858  i */\n      dup2\n        /* \"contracts/Staking.sol\":4857:4877  i < _tokenIds.length */\n      lt\n        /* \"contracts/Staking.sol\":4837:5684  for (uint256 i = 0; i < _tokenIds.length; i++) {... */\n      iszero\n      tag_179\n      jumpi\n        /* \"contracts/Staking.sol\":4899:4919  LockInfo memory info */\n      0x00\n        /* \"contracts/Staking.sol\":4922:4930  lockInfo */\n      0x03\n        /* \"contracts/Staking.sol\":4922:4951  lockInfo[IERC721(nftAddress)] */\n      0x00\n        /* \"contracts/Staking.sol\":4939:4949  nftAddress */\n      dup5\n        /* \"contracts/Staking.sol\":4922:4951  lockInfo[IERC721(nftAddress)] */\n      0xffffffffffffffffffffffffffffffffffffffff\n      and\n      0xffffffffffffffffffffffffffffffffffffffff\n      and\n      dup2\n      mstore\n      0x20\n      add\n      swap1\n      dup2\n      mstore\n      0x20\n      add\n      0x00\n      keccak256\n        /* \"contracts/Staking.sol\":4922:4965  lockInfo[IERC721(nftAddress)][_tokenIds[i]] */\n      0x00\n        /* \"contracts/Staking.sol\":4952:4961  _tokenIds */\n      dup7\n      dup7\n        /* \"contracts/Staking.sol\":4962:4963  i */\n      dup6\n        /* \"contracts/Staking.sol\":4952:4964  _tokenIds[i] */\n      dup2\n      dup2\n      lt\n      tag_181\n      jumpi\n      tag_182\n      tag_88\n      jump\t// in\n    tag_182:\n    tag_181:\n      swap1\n      pop\n      0x20\n      mul\n      add\n      calldataload\n        /* \"contracts/Staking.sol\":4922:4965  lockInfo[IERC721(nftAddress)][_tokenIds[i]] */\n      dup2\n      mstore\n      0x20\n      add\n      swap1\n      dup2\n      mstore\n      0x20\n      add\n      0x00\n      keccak256\n        /* \"contracts/Staking.sol\":4899:4965  LockInfo memory info = lockInfo[IERC721(nftAddress)][_tokenIds[i]] */\n      mload(0x40)\n      dup1\n      0xa0\n      add\n      0x40\n      mstore\n      swap1\n      dup2\n      0x00\n      dup3\n      add\n      0x00\n      swap1\n      sload\n      swap1\n      0x0100\n      exp\n      swap1\n      div\n      0xffffffffffffffffffffffffffffffffffffffff\n      and\n      0xffffffffffffffffffffffffffffffffffffffff\n      and\n      0xffffffffffffffffffffffffffffffffffffffff\n      and\n      dup2\n      mstore\n      0x20\n      add\n      0x01\n      dup3\n      add\n      sload\n      dup2\n      mstore\n      0x20\n      add\n      0x02\n      dup3\n      add\n      sload\n      dup2\n      mstore\n      0x20\n      add\n      0x03\n      dup3\n      add\n      0x00\n      swap1\n      sload\n      swap1\n      0x0100\n      exp\n      swap1\n      div\n      0xff\n      and\n      iszero\n      iszero\n      iszero\n      iszero\n      dup2\n      mstore\n      0x20\n      add\n      0x03\n      dup3\n      add\n      0x01\n      swap1\n      sload\n      swap1\n      0x0100\n      exp\n      swap1\n      div\n      0xffffffffffffffffffffffffffffffffffffffff\n      and\n      0xffffffffffffffffffffffffffffffffffffffff\n      and\n      0xffffffffffffffffffffffffffffffffffffffff\n      and\n      dup2\n      mstore\n      pop\n      pop\n      swap1\n      pop\n        /* \"contracts/Staking.sol\":5002:5012  msg.sender */\n      caller\n        /* \"contracts/Staking.sol\":4988:5012  info.owner == msg.sender */\n      0xffffffffffffffffffffffffffffffffffffffff\n      and\n        /* \"contracts/Staking.sol\":4988:4992  info */\n      dup2\n        /* \"contracts/Staking.sol\":4988:4998  info.owner */\n      0x00\n      add\n      mload\n        /* \"contracts/Staking.sol\":4988:5012  info.owner == msg.sender */\n      0xffffffffffffffffffffffffffffffffffffffff\n      and\n      eq\n        /* \"contracts/Staking.sol\":4980:5034  require(info.owner == msg.sender, \"Not a token owner\") */\n      tag_183\n      jumpi\n      mload(0x40)\n      0x08c379a000000000000000000000000000000000000000000000000000000000\n      dup2\n      mstore\n      0x04\n      add\n      tag_184\n      swap1\n      tag_91\n      jump\t// in\n    tag_184:\n      mload(0x40)\n      dup1\n      swap2\n      sub\n      swap1\n      revert\n    tag_183:\n        /* \"contracts/Staking.sol\":5088:5103  block.timestamp */\n      timestamp\n        /* \"contracts/Staking.sol\":5075:5085  lockPeriod */\n      sload(0x02)\n        /* \"contracts/Staking.sol\":5057:5061  info */\n      dup3\n        /* \"contracts/Staking.sol\":5057:5072  info.lockedTime */\n      0x20\n      add\n      mload\n        /* \"contracts/Staking.sol\":5057:5085  info.lockedTime + lockPeriod */\n      tag_185\n      swap2\n      swap1\n      tag_93\n      jump\t// in\n    tag_185:\n        /* \"contracts/Staking.sol\":5057:5103  info.lockedTime + lockPeriod < block.timestamp */\n      lt\n        /* \"contracts/Staking.sol\":5049:5130  require(info.lockedTime + lockPeriod < block.timestamp, \"Not able to unlock yet\") */\n      tag_186\n      jumpi\n      mload(0x40)\n      0x08c379a000000000000000000000000000000000000000000000000000000000\n      dup2\n      mstore\n      0x04\n      add\n      tag_187\n      swap1\n      tag_188\n      jump\t// in\n    tag_187:\n      mload(0x40)\n      dup1\n      swap2\n      sub\n      swap1\n      revert\n    tag_186:\n        /* \"contracts/Staking.sol\":5154:5158  info */\n      dup1\n        /* \"contracts/Staking.sol\":5154:5169  info.isUnlocked */\n      0x60\n      add\n      mload\n        /* \"contracts/Staking.sol\":5153:5169  !info.isUnlocked */\n      iszero\n        /* \"contracts/Staking.sol\":5145:5190  require(!info.isUnlocked, \"Already unlocked\") */\n      tag_189\n      jumpi\n      mload(0x40)\n      0x08c379a000000000000000000000000000000000000000000000000000000000\n      dup2\n      mstore\n      0x04\n      add\n      tag_190\n      swap1\n      tag_99\n      jump\t// in\n    tag_190:\n      mload(0x40)\n      dup1\n      swap2\n      sub\n      swap1\n      revert\n    tag_189:\n        /* \"contracts/Staking.sol\":5207:5217  nftAddress */\n      dup3\n        /* \"contracts/Staking.sol\":5207:5230  nftAddress.transferFrom */\n      0xffffffffffffffffffffffffffffffffffffffff\n      and\n      0x23b872dd\n        /* \"contracts/Staking.sol\":5239:5243  this */\n      address\n        /* \"contracts/Staking.sol\":5246:5256  msg.sender */\n      caller\n        /* \"contracts/Staking.sol\":5258:5267  _tokenIds */\n      dup9\n      dup9\n        /* \"contracts/Staking.sol\":5268:5269  i */\n      dup8\n        /* \"contracts/Staking.sol\":5258:5270  _tokenIds[i] */\n      dup2\n      dup2\n      lt\n      tag_191\n      jumpi\n      tag_192\n      tag_88\n      jump\t// in\n    tag_192:\n    tag_191:\n      swap1\n      pop\n      0x20\n      mul\n      add\n      calldataload\n        /* \"contracts/Staking.sol\":5207:5271  nftAddress.transferFrom(address(this), msg.sender, _tokenIds[i]) */\n      mload(0x40)\n      dup5\n      0xffffffff\n      and\n      0xe0\n      shl\n      dup2\n      mstore\n      0x04\n      add\n      tag_193\n      swap4\n      swap3\n      swap2\n      swap1\n      tag_150\n      jump\t// in\n    tag_193:\n      0x00\n      mload(0x40)\n      dup1\n      dup4\n      sub\n      dup2\n      0x00\n      dup8\n      dup1\n      extcodesize\n      iszero\n      dup1\n      iszero\n      tag_194\n      jumpi\n      0x00\n      dup1\n      revert\n    tag_194:\n      pop\n      gas\n      call\n      iszero\n      dup1\n      iszero\n      tag_196\n      jumpi\n      returndatasize\n      0x00\n      dup1\n      returndatacopy\n      revert(0x00, returndatasize)\n    tag_196:\n      pop\n      pop\n      pop\n      pop\n        /* \"contracts/Staking.sol\":5288:5307  uint256 totalAmount */\n      0x00\n        /* \"contracts/Staking.sol\":5310:5349  _rewardAmount(_tokenIds[i], nftAddress) */\n      tag_197\n        /* \"contracts/Staking.sol\":5324:5333  _tokenIds */\n      dup7\n      dup7\n        /* \"contracts/Staking.sol\":5334:5335  i */\n      dup6\n        /* \"contracts/Staking.sol\":5324:5336  _tokenIds[i] */\n      dup2\n      dup2\n      lt\n      tag_198\n      jumpi\n      tag_199\n      tag_88\n      jump\t// in\n    tag_199:\n    tag_198:\n      swap1\n      pop\n      0x20\n      mul\n      add\n      calldataload\n        /* \"contracts/Staking.sol\":5338:5348  nftAddress */\n      dup6\n        /* \"contracts/Staking.sol\":5310:5323  _rewardAmount */\n      tag_103\n        /* \"contracts/Staking.sol\":5310:5349  _rewardAmount(_tokenIds[i], nftAddress) */\n      jump\t// in\n    tag_197:\n        /* \"contracts/Staking.sol\":5288:5349  uint256 totalAmount = _rewardAmount(_tokenIds[i], nftAddress) */\n      swap1\n      pop\n        /* \"contracts/Staking.sol\":5364:5388  uint256 unclaminedAmount */\n      0x00\n        /* \"contracts/Staking.sol\":5405:5409  info */\n      dup3\n        /* \"contracts/Staking.sol\":5405:5424  info.claimedRewards */\n      0x40\n      add\n      mload\n        /* \"contracts/Staking.sol\":5391:5402  totalAmount */\n      dup3\n        /* \"contracts/Staking.sol\":5391:5424  totalAmount - info.claimedRewards */\n      tag_200\n      swap2\n      swap1\n      tag_105\n      jump\t// in\n    tag_200:\n        /* \"contracts/Staking.sol\":5364:5424  uint256 unclaminedAmount = totalAmount - info.claimedRewards */\n      swap1\n      pop\n        /* \"contracts/Staking.sol\":5440:5447  nftInfo */\n      0x04\n        /* \"contracts/Staking.sol\":5440:5459  nftInfo[nftAddress] */\n      0x00\n        /* \"contracts/Staking.sol\":5448:5458  nftAddress */\n      dup7\n        /* \"contracts/Staking.sol\":5440:5459  nftInfo[nftAddress] */\n      0xffffffffffffffffffffffffffffffffffffffff\n      and\n      0xffffffffffffffffffffffffffffffffffffffff\n      and\n      dup2\n      mstore\n      0x20\n      add\n      swap1\n      dup2\n      mstore\n      0x20\n      add\n      0x00\n      keccak256\n        /* \"contracts/Staking.sol\":5440:5472  nftInfo[nftAddress].rewardsToken */\n      0x00\n      add\n      0x00\n      swap1\n      sload\n      swap1\n      0x0100\n      exp\n      swap1\n      div\n      0xffffffffffffffffffffffffffffffffffffffff\n      and\n        /* \"contracts/Staking.sol\":5440:5477  nftInfo[nftAddress].rewardsToken.mint */\n      0xffffffffffffffffffffffffffffffffffffffff\n      and\n      0x40c10f19\n        /* \"contracts/Staking.sol\":5478:5488  msg.sender */\n      caller\n        /* \"contracts/Staking.sol\":5490:5506  unclaminedAmount */\n      dup4\n        /* \"contracts/Staking.sol\":5440:5507  nftInfo[nftAddress].rewardsToken.mint(msg.sender, unclaminedAmount) */\n      mload(0x40)\n      dup4\n      0xffffffff\n      and\n      0xe0\n      shl\n      dup2\n      mstore\n      0x04\n      add\n      tag_201\n      swap3\n      swap2\n      swap1\n      tag_107\n      jump\t// in\n    tag_201:\n      0x00\n      mload(0x40)\n      dup1\n      dup4\n      sub\n      dup2\n      0x00\n      dup8\n      dup1\n      extcodesize\n      iszero\n      dup1\n      iszero\n      tag_202\n      jumpi\n      0x00\n      dup1\n      revert\n    tag_202:\n      pop\n      gas\n      call\n      iszero\n      dup1\n      iszero\n      tag_204\n      jumpi\n      returndatasize\n      0x00\n      dup1\n      returndatacopy\n      revert(0x00, returndatasize)\n    tag_204:\n      pop\n      pop\n      pop\n      pop\n        /* \"contracts/Staking.sol\":5585:5596  totalAmount */\n      dup2\n        /* \"contracts/Staking.sol\":5524:5532  lockInfo */\n      0x03\n        /* \"contracts/Staking.sol\":5524:5553  lockInfo[IERC721(nftAddress)] */\n      0x00\n        /* \"contracts/Staking.sol\":5541:5551  nftAddress */\n      dup8\n        /* \"contracts/Staking.sol\":5524:5553  lockInfo[IERC721(nftAddress)] */\n      0xffffffffffffffffffffffffffffffffffffffff\n      and\n      0xffffffffffffffffffffffffffffffffffffffff\n      and\n      dup2\n      mstore\n      0x20\n      add\n      swap1\n      dup2\n      mstore\n      0x20\n      add\n      0x00\n      keccak256\n        /* \"contracts/Staking.sol\":5524:5567  lockInfo[IERC721(nftAddress)][_tokenIds[i]] */\n      0x00\n        /* \"contracts/Staking.sol\":5554:5563  _tokenIds */\n      dup10\n      dup10\n        /* \"contracts/Staking.sol\":5564:5565  i */\n      dup9\n        /* \"contracts/Staking.sol\":5554:5566  _tokenIds[i] */\n      dup2\n      dup2\n      lt\n      tag_205\n      jumpi\n      tag_206\n      tag_88\n      jump\t// in\n    tag_206:\n    tag_205:\n      swap1\n      pop\n      0x20\n      mul\n      add\n      calldataload\n        /* \"contracts/Staking.sol\":5524:5567  lockInfo[IERC721(nftAddress)][_tokenIds[i]] */\n      dup2\n      mstore\n      0x20\n      add\n      swap1\n      dup2\n      mstore\n      0x20\n      add\n      0x00\n      keccak256\n        /* \"contracts/Staking.sol\":5524:5582  lockInfo[IERC721(nftAddress)][_tokenIds[i]].claimedRewards */\n      0x02\n      add\n        /* \"contracts/Staking.sol\":5524:5596  lockInfo[IERC721(nftAddress)][_tokenIds[i]].claimedRewards = totalAmount */\n      dup2\n      swap1\n      sstore\n      pop\n        /* \"contracts/Staking.sol\":5668:5672  true */\n      0x01\n        /* \"contracts/Staking.sol\":5611:5619  lockInfo */\n      0x03\n        /* \"contracts/Staking.sol\":5611:5640  lockInfo[IERC721(nftAddress)] */\n      0x00\n        /* \"contracts/Staking.sol\":5628:5638  nftAddress */\n      dup8\n        /* \"contracts/Staking.sol\":5611:5640  lockInfo[IERC721(nftAddress)] */\n      0xffffffffffffffffffffffffffffffffffffffff\n      and\n      0xffffffffffffffffffffffffffffffffffffffff\n      and\n      dup2\n      mstore\n      0x20\n      add\n      swap1\n      dup2\n      mstore\n      0x20\n      add\n      0x00\n      keccak256\n        /* \"contracts/Staking.sol\":5611:5654  lockInfo[IERC721(nftAddress)][_tokenIds[i]] */\n      0x00\n        /* \"contracts/Staking.sol\":5641:5650  _tokenIds */\n      dup10\n      dup10\n        /* \"contracts/Staking.sol\":5651:5652  i */\n      dup9\n        /* \"contracts/Staking.sol\":5641:5653  _tokenIds[i] */\n      dup2\n      dup2\n      lt\n      tag_207\n      jumpi\n      tag_208\n      tag_88\n      jump\t// in\n    tag_208:\n    tag_207:\n      swap1\n      pop\n      0x20\n      mul\n      add\n      calldataload\n        /* \"contracts/Staking.sol\":5611:5654  lockInfo[IERC721(nftAddress)][_tokenIds[i]] */\n      dup2\n      mstore\n      0x20\n      add\n      swap1\n      dup2\n      mstore\n      0x20\n      add\n      0x00\n      keccak256\n        /* \"contracts/Staking.sol\":5611:5665  lockInfo[IERC721(nftAddress)][_tokenIds[i]].isUnlocked */\n      0x03\n      add\n      0x00\n        /* \"contracts/Staking.sol\":5611:5672  lockInfo[IERC721(nftAddress)][_tokenIds[i]].isUnlocked = true */\n      0x0100\n      exp\n      dup2\n      sload\n      dup2\n      0xff\n      mul\n      not\n      and\n      swap1\n      dup4\n      iszero\n      iszero\n      mul\n      or\n      swap1\n      sstore\n      pop\n        /* \"contracts/Staking.sol\":4884:5684  {... */\n      pop\n      pop\n      pop\n        /* \"contracts/Staking.sol\":4879:4882  i++ */\n      dup1\n      dup1\n      tag_209\n      swap1\n      tag_115\n      jump\t// in\n    tag_209:\n      swap2\n      pop\n      pop\n        /* \"contracts/Staking.sol\":4837:5684  for (uint256 i = 0; i < _tokenIds.length; i++) {... */\n      jump(tag_178)\n    tag_179:\n      pop\n        /* \"contracts/Staking.sol\":5713:5723  msg.sender */\n      caller\n        /* \"contracts/Staking.sol\":5701:5735  NFTUnLocked(msg.sender, _tokenIds) */\n      0xffffffffffffffffffffffffffffffffffffffff\n      and\n      0x5cb48022479b9ac3bfb10a27965dc010acffc9fc1bc9a52f0b18975b944b54ca\n        /* \"contracts/Staking.sol\":5725:5734  _tokenIds */\n      dup5\n      dup5\n        /* \"contracts/Staking.sol\":5701:5735  NFTUnLocked(msg.sender, _tokenIds) */\n      mload(0x40)\n      tag_210\n      swap3\n      swap2\n      swap1\n      tag_158\n      jump\t// in\n    tag_210:\n      mload(0x40)\n      dup1\n      swap2\n      sub\n      swap1\n      log2\n        /* \"@openzeppelin/contracts/security/ReentrancyGuard.sol\":1701:1702  1 */\n      0x01\n        /* \"@openzeppelin/contracts/security/ReentrancyGuard.sol\":2628:2635  _status */\n      dup1\n        /* \"@openzeppelin/contracts/security/ReentrancyGuard.sol\":2628:2650  _status = _NOT_ENTERED */\n      dup2\n      swap1\n      sstore\n      pop\n        /* \"contracts/Staking.sol\":4668:5743  function unlockNFT(uint256[] calldata _tokenIds, IERC721 nftAddress) external notContract nonReentrant {... */\n      pop\n      pop\n      pop\n      jump\t// out\n        /* \"contracts/Staking.sol\":770:834  mapping(IERC721 => mapping(uint256 => LockInfo)) public lockInfo */\n    tag_41:\n      mstore(0x20, 0x03)\n      dup2\n      0x00\n      mstore\n      mstore(0x20, keccak256(0x00, 0x40))\n      dup1\n      0x00\n      mstore\n      keccak256(0x00, 0x40)\n      0x00\n      swap2\n      pop\n      swap2\n      pop\n      pop\n      dup1\n      0x00\n      add\n      0x00\n      swap1\n      sload\n      swap1\n      0x0100\n      exp\n      swap1\n      div\n      0xffffffffffffffffffffffffffffffffffffffff\n      and\n      swap1\n      dup1\n      0x01\n      add\n      sload\n      swap1\n      dup1\n      0x02\n      add\n      sload\n      swap1\n      dup1\n      0x03\n      add\n      0x00\n      swap1\n      sload\n      swap1\n      0x0100\n      exp\n      swap1\n      div\n      0xff\n      and\n      swap1\n      dup1\n      0x03\n      add\n      0x01\n      swap1\n      sload\n      swap1\n      0x0100\n      exp\n      swap1\n      div\n      0xffffffffffffffffffffffffffffffffffffffff\n      and\n      swap1\n      pop\n      dup6\n      jump\t// out\n        /* \"contracts/Staking.sol\":3491:3665  function claimedRewards(uint256 _tokenId, IERC721 nftAddress) external view returns (uint256) {... */\n    tag_47:\n        /* \"contracts/Staking.sol\":3576:3583  uint256 */\n      0x00\n        /* \"contracts/Staking.sol\":3603:3611  lockInfo */\n      0x03\n        /* \"contracts/Staking.sol\":3603:3632  lockInfo[IERC721(nftAddress)] */\n      0x00\n        /* \"contracts/Staking.sol\":3620:3630  nftAddress */\n      dup4\n        /* \"contracts/Staking.sol\":3603:3632  lockInfo[IERC721(nftAddress)] */\n      0xffffffffffffffffffffffffffffffffffffffff\n      and\n      0xffffffffffffffffffffffffffffffffffffffff\n      and\n      dup2\n      mstore\n      0x20\n      add\n      swap1\n      dup2\n      mstore\n      0x20\n      add\n      0x00\n      keccak256\n        /* \"contracts/Staking.sol\":3603:3642  lockInfo[IERC721(nftAddress)][_tokenId] */\n      0x00\n        /* \"contracts/Staking.sol\":3633:3641  _tokenId */\n      dup5\n        /* \"contracts/Staking.sol\":3603:3642  lockInfo[IERC721(nftAddress)][_tokenId] */\n      dup2\n      mstore\n      0x20\n      add\n      swap1\n      dup2\n      mstore\n      0x20\n      add\n      0x00\n      keccak256\n        /* \"contracts/Staking.sol\":3603:3657  lockInfo[IERC721(nftAddress)][_tokenId].claimedRewards */\n      0x02\n      add\n      sload\n        /* \"contracts/Staking.sol\":3596:3657  return lockInfo[IERC721(nftAddress)][_tokenId].claimedRewards */\n      swap1\n      pop\n        /* \"contracts/Staking.sol\":3491:3665  function claimedRewards(uint256 _tokenId, IERC721 nftAddress) external view returns (uint256) {... */\n      swap3\n      swap2\n      pop\n      pop\n      jump\t// out\n        /* \"contracts/Staking.sol\":1099:1118  uint256 public WAVE */\n    tag_50:\n      sload(0x05)\n      dup2\n      jump\t// out\n        /* \"contracts/Staking.sol\":1016:1063  mapping(IERC721 => stakeNftInfo) public nftInfo */\n    tag_55:\n      mstore(0x20, 0x04)\n      dup1\n      0x00\n      mstore\n      keccak256(0x00, 0x40)\n      0x00\n      swap2\n      pop\n      swap1\n      pop\n      dup1\n      0x00\n      add\n      0x00\n      swap1\n      sload\n      swap1\n      0x0100\n      exp\n      swap1\n      div\n      0xffffffffffffffffffffffffffffffffffffffff\n      and\n      swap1\n      dup1\n      0x01\n      add\n      sload\n      swap1\n      dup1\n      0x02\n      add\n      sload\n      swap1\n      pop\n      dup4\n      jump\t// out\n        /* \"contracts/Staking.sol\":3109:3323  function addStakingNfts(uint256 _lockPeriod) external onlyOwner {... */\n    tag_61:\n        /* \"@openzeppelin/contracts/access/Ownable.sol\":1094:1107  _checkOwner() */\n      tag_213\n        /* \"@openzeppelin/contracts/access/Ownable.sol\":1094:1105  _checkOwner */\n      tag_161\n        /* \"@openzeppelin/contracts/access/Ownable.sol\":1094:1107  _checkOwner() */\n      jump\t// in\n    tag_213:\n        /* \"contracts/Staking.sol\":3206:3207  0 */\n      0x00\n        /* \"contracts/Staking.sol\":3192:3203  _lockPeriod */\n      dup2\n        /* \"contracts/Staking.sol\":3192:3207  _lockPeriod > 0 */\n      gt\n        /* \"contracts/Staking.sol\":3184:3232  require(_lockPeriod > 0, \"Invalid lock period.\") */\n      tag_215\n      jumpi\n      mload(0x40)\n      0x08c379a000000000000000000000000000000000000000000000000000000000\n      dup2\n      mstore\n      0x04\n      add\n      tag_216\n      swap1\n      tag_217\n      jump\t// in\n    tag_216:\n      mload(0x40)\n      dup1\n      swap2\n      sub\n      swap1\n      revert\n    tag_215:\n        /* \"contracts/Staking.sol\":3256:3267  _lockPeriod */\n      dup1\n        /* \"contracts/Staking.sol\":3243:3253  lockPeriod */\n      0x02\n        /* \"contracts/Staking.sol\":3243:3267  lockPeriod = _lockPeriod */\n      dup2\n      swap1\n      sstore\n      pop\n        /* \"contracts/Staking.sol\":3285:3315  LockPeriodUpdated(_lockPeriod) */\n      0x8249ec545e68f6f1e1230133ca48c704d831a7f8e635ded80f3dd9e99b09bb2f\n        /* \"contracts/Staking.sol\":3303:3314  _lockPeriod */\n      dup2\n        /* \"contracts/Staking.sol\":3285:3315  LockPeriodUpdated(_lockPeriod) */\n      mload(0x40)\n      tag_218\n      swap2\n      swap1\n      tag_28\n      jump\t// in\n    tag_218:\n      mload(0x40)\n      dup1\n      swap2\n      sub\n      swap1\n      log1\n        /* \"contracts/Staking.sol\":3109:3323  function addStakingNfts(uint256 _lockPeriod) external onlyOwner {... */\n      pop\n      jump\t// out\n        /* \"contracts/Staking.sol\":2208:2985  function addStakingNfts(... */\n    tag_65:\n        /* \"@openzeppelin/contracts/access/Ownable.sol\":1094:1107  _checkOwner() */\n      tag_220\n        /* \"@openzeppelin/contracts/access/Ownable.sol\":1094:1105  _checkOwner */\n      tag_161\n        /* \"@openzeppelin/contracts/access/Ownable.sol\":1094:1107  _checkOwner() */\n      jump\t// in\n    tag_220:\n        /* \"contracts/Staking.sol\":2672:2678  uint i */\n      0x00\n        /* \"contracts/Staking.sol\":2667:2978  for (uint i = 0; i < _stakeNFT.length; i++) {... */\n    tag_222:\n        /* \"contracts/Staking.sol\":2688:2697  _stakeNFT */\n      dup5\n        /* \"contracts/Staking.sol\":2688:2704  _stakeNFT.length */\n      mload\n        /* \"contracts/Staking.sol\":2684:2685  i */\n      dup2\n        /* \"contracts/Staking.sol\":2684:2704  i < _stakeNFT.length */\n      lt\n        /* \"contracts/Staking.sol\":2667:2978  for (uint i = 0; i < _stakeNFT.length; i++) {... */\n      iszero\n      tag_223\n      jumpi\n        /* \"contracts/Staking.sol\":2788:2801  _rewardsToken */\n      dup4\n        /* \"contracts/Staking.sol\":2802:2803  i */\n      dup2\n        /* \"contracts/Staking.sol\":2788:2804  _rewardsToken[i] */\n      dup2\n      mload\n      dup2\n      lt\n      tag_225\n      jumpi\n      tag_226\n      tag_88\n      jump\t// in\n    tag_226:\n    tag_225:\n      0x20\n      mul\n      0x20\n      add\n      add\n      mload\n        /* \"contracts/Staking.sol\":2728:2735  nftInfo */\n      0x04\n        /* \"contracts/Staking.sol\":2728:2758  nftInfo[IERC721(_stakeNFT[i])] */\n      0x00\n        /* \"contracts/Staking.sol\":2744:2753  _stakeNFT */\n      dup8\n        /* \"contracts/Staking.sol\":2754:2755  i */\n      dup5\n        /* \"contracts/Staking.sol\":2744:2756  _stakeNFT[i] */\n      dup2\n      mload\n      dup2\n      lt\n      tag_227\n      jumpi\n      tag_228\n      tag_88\n      jump\t// in\n    tag_228:\n    tag_227:\n      0x20\n      mul\n      0x20\n      add\n      add\n      mload\n        /* \"contracts/Staking.sol\":2728:2758  nftInfo[IERC721(_stakeNFT[i])] */\n      0xffffffffffffffffffffffffffffffffffffffff\n      and\n      0xffffffffffffffffffffffffffffffffffffffff\n      and\n      dup2\n      mstore\n      0x20\n      add\n      swap1\n      dup2\n      mstore\n      0x20\n      add\n      0x00\n      keccak256\n        /* \"contracts/Staking.sol\":2728:2771  nftInfo[IERC721(_stakeNFT[i])].rewardsToken */\n      0x00\n      add\n      0x00\n        /* \"contracts/Staking.sol\":2728:2805  nftInfo[IERC721(_stakeNFT[i])].rewardsToken = IRewardsToken(_rewardsToken[i]) */\n      0x0100\n      exp\n      dup2\n      sload\n      dup2\n      0xffffffffffffffffffffffffffffffffffffffff\n      mul\n      not\n      and\n      swap1\n      dup4\n      0xffffffffffffffffffffffffffffffffffffffff\n      and\n      mul\n      or\n      swap1\n      sstore\n      pop\n        /* \"contracts/Staking.sol\":2868:2882  _rewardPerWave */\n      dup3\n        /* \"contracts/Staking.sol\":2883:2884  i */\n      dup2\n        /* \"contracts/Staking.sol\":2868:2885  _rewardPerWave[i] */\n      dup2\n      mload\n      dup2\n      lt\n      tag_229\n      jumpi\n      tag_230\n      tag_88\n      jump\t// in\n    tag_230:\n    tag_229:\n      0x20\n      mul\n      0x20\n      add\n      add\n      mload\n        /* \"contracts/Staking.sol\":2820:2827  nftInfo */\n      0x04\n        /* \"contracts/Staking.sol\":2820:2850  nftInfo[IERC721(_stakeNFT[i])] */\n      0x00\n        /* \"contracts/Staking.sol\":2836:2845  _stakeNFT */\n      dup8\n        /* \"contracts/Staking.sol\":2846:2847  i */\n      dup5\n        /* \"contracts/Staking.sol\":2836:2848  _stakeNFT[i] */\n      dup2\n      mload\n      dup2\n      lt\n      tag_231\n      jumpi\n      tag_232\n      tag_88\n      jump\t// in\n    tag_232:\n    tag_231:\n      0x20\n      mul\n      0x20\n      add\n      add\n      mload\n        /* \"contracts/Staking.sol\":2820:2850  nftInfo[IERC721(_stakeNFT[i])] */\n      0xffffffffffffffffffffffffffffffffffffffff\n      and\n      0xffffffffffffffffffffffffffffffffffffffff\n      and\n      dup2\n      mstore\n      0x20\n      add\n      swap1\n      dup2\n      mstore\n      0x20\n      add\n      0x00\n      keccak256\n        /* \"contracts/Staking.sol\":2820:2865  nftInfo[IERC721(_stakeNFT[i])].rewardsPerWave */\n      0x01\n      add\n        /* \"contracts/Staking.sol\":2820:2885  nftInfo[IERC721(_stakeNFT[i])].rewardsPerWave = _rewardPerWave[i] */\n      dup2\n      swap1\n      sstore\n      pop\n        /* \"contracts/Staking.sol\":2950:2967  _rewardPercentage */\n      dup2\n        /* \"contracts/Staking.sol\":2968:2969  i */\n      dup2\n        /* \"contracts/Staking.sol\":2950:2970  _rewardPercentage[i] */\n      dup2\n      mload\n      dup2\n      lt\n      tag_233\n      jumpi\n      tag_234\n      tag_88\n      jump\t// in\n    tag_234:\n    tag_233:\n      0x20\n      mul\n      0x20\n      add\n      add\n      mload\n        /* \"contracts/Staking.sol\":2900:2907  nftInfo */\n      0x04\n        /* \"contracts/Staking.sol\":2900:2930  nftInfo[IERC721(_stakeNFT[i])] */\n      0x00\n        /* \"contracts/Staking.sol\":2916:2925  _stakeNFT */\n      dup8\n        /* \"contracts/Staking.sol\":2926:2927  i */\n      dup5\n        /* \"contracts/Staking.sol\":2916:2928  _stakeNFT[i] */\n      dup2\n      mload\n      dup2\n      lt\n      tag_235\n      jumpi\n      tag_236\n      tag_88\n      jump\t// in\n    tag_236:\n    tag_235:\n      0x20\n      mul\n      0x20\n      add\n      add\n      mload\n        /* \"contracts/Staking.sol\":2900:2930  nftInfo[IERC721(_stakeNFT[i])] */\n      0xffffffffffffffffffffffffffffffffffffffff\n      and\n      0xffffffffffffffffffffffffffffffffffffffff\n      and\n      dup2\n      mstore\n      0x20\n      add\n      swap1\n      dup2\n      mstore\n      0x20\n      add\n      0x00\n      keccak256\n        /* \"contracts/Staking.sol\":2900:2947  nftInfo[IERC721(_stakeNFT[i])].rewardPercentage */\n      0x02\n      add\n        /* \"contracts/Staking.sol\":2900:2970  nftInfo[IERC721(_stakeNFT[i])].rewardPercentage = _rewardPercentage[i] */\n      dup2\n      swap1\n      sstore\n      pop\n        /* \"contracts/Staking.sol\":2706:2709  i++ */\n      dup1\n      dup1\n      tag_237\n      swap1\n      tag_115\n      jump\t// in\n    tag_237:\n      swap2\n      pop\n      pop\n        /* \"contracts/Staking.sol\":2667:2978  for (uint i = 0; i < _stakeNFT.length; i++) {... */\n      jump(tag_222)\n    tag_223:\n      pop\n        /* \"contracts/Staking.sol\":2208:2985  function addStakingNfts(... */\n      pop\n      pop\n      pop\n      pop\n      jump\t// out\n        /* \"@openzeppelin/contracts/access/Ownable.sol\":2081:2279  function transferOwnership(address newOwner) public virtual onlyOwner {... */\n    tag_69:\n        /* \"@openzeppelin/contracts/access/Ownable.sol\":1094:1107  _checkOwner() */\n      tag_239\n        /* \"@openzeppelin/contracts/access/Ownable.sol\":1094:1105  _checkOwner */\n      tag_161\n        /* \"@openzeppelin/contracts/access/Ownable.sol\":1094:1107  _checkOwner() */\n      jump\t// in\n    tag_239:\n        /* \"@openzeppelin/contracts/access/Ownable.sol\":2189:2190  0 */\n      0x00\n        /* \"@openzeppelin/contracts/access/Ownable.sol\":2169:2191  newOwner != address(0) */\n      0xffffffffffffffffffffffffffffffffffffffff\n      and\n        /* \"@openzeppelin/contracts/access/Ownable.sol\":2169:2177  newOwner */\n      dup2\n        /* \"@openzeppelin/contracts/access/Ownable.sol\":2169:2191  newOwner != address(0) */\n      0xffffffffffffffffffffffffffffffffffffffff\n      and\n      sub\n        /* \"@openzeppelin/contracts/access/Ownable.sol\":2161:2234  require(newOwner != address(0), \"Ownable: new owner is the zero address\") */\n      tag_241\n      jumpi\n      mload(0x40)\n      0x08c379a000000000000000000000000000000000000000000000000000000000\n      dup2\n      mstore\n      0x04\n      add\n      tag_242\n      swap1\n      tag_243\n      jump\t// in\n    tag_242:\n      mload(0x40)\n      dup1\n      swap2\n      sub\n      swap1\n      revert\n    tag_241:\n        /* \"@openzeppelin/contracts/access/Ownable.sol\":2244:2272  _transferOwnership(newOwner) */\n      tag_244\n        /* \"@openzeppelin/contracts/access/Ownable.sol\":2263:2271  newOwner */\n      dup2\n        /* \"@openzeppelin/contracts/access/Ownable.sol\":2244:2262  _transferOwnership */\n      tag_164\n        /* \"@openzeppelin/contracts/access/Ownable.sol\":2244:2272  _transferOwnership(newOwner) */\n      jump\t// in\n    tag_244:\n        /* \"@openzeppelin/contracts/access/Ownable.sol\":2081:2279  function transferOwnership(address newOwner) public virtual onlyOwner {... */\n      pop\n      jump\t// out\n        /* \"@openzeppelin/contracts/utils/Address.sol\":1175:1495  function isContract(address account) internal view returns (bool) {... */\n    tag_72:\n        /* \"@openzeppelin/contracts/utils/Address.sol\":1235:1239  bool */\n      0x00\n        /* \"@openzeppelin/contracts/utils/Address.sol\":1487:1488  0 */\n      dup1\n        /* \"@openzeppelin/contracts/utils/Address.sol\":1465:1472  account */\n      dup3\n        /* \"@openzeppelin/contracts/utils/Address.sol\":1465:1484  account.code.length */\n      0xffffffffffffffffffffffffffffffffffffffff\n      and\n      extcodesize\n        /* \"@openzeppelin/contracts/utils/Address.sol\":1465:1488  account.code.length > 0 */\n      gt\n        /* \"@openzeppelin/contracts/utils/Address.sol\":1458:1488  return account.code.length > 0 */\n      swap1\n      pop\n        /* \"@openzeppelin/contracts/utils/Address.sol\":1175:1495  function isContract(address account) internal view returns (bool) {... */\n      swap2\n      swap1\n      pop\n      jump\t// out\n        /* \"contracts/Staking.sol\":6904:7416  function _rewardAmount(uint256 _tokenId, IERC721 nftAddress) internal view returns (uint256) {... */\n    tag_103:\n        /* \"contracts/Staking.sol\":6988:6995  uint256 */\n      0x00\n        /* \"contracts/Staking.sol\":7008:7028  LockInfo memory info */\n      dup1\n        /* \"contracts/Staking.sol\":7031:7039  lockInfo */\n      0x03\n        /* \"contracts/Staking.sol\":7031:7060  lockInfo[IERC721(nftAddress)] */\n      0x00\n        /* \"contracts/Staking.sol\":7048:7058  nftAddress */\n      dup5\n        /* \"contracts/Staking.sol\":7031:7060  lockInfo[IERC721(nftAddress)] */\n      0xffffffffffffffffffffffffffffffffffffffff\n      and\n      0xffffffffffffffffffffffffffffffffffffffff\n      and\n      dup2\n      mstore\n      0x20\n      add\n      swap1\n      dup2\n      mstore\n      0x20\n      add\n      0x00\n      keccak256\n        /* \"contracts/Staking.sol\":7031:7070  lockInfo[IERC721(nftAddress)][_tokenId] */\n      0x00\n        /* \"contracts/Staking.sol\":7061:7069  _tokenId */\n      dup6\n        /* \"contracts/Staking.sol\":7031:7070  lockInfo[IERC721(nftAddress)][_tokenId] */\n      dup2\n      mstore\n      0x20\n      add\n      swap1\n      dup2\n      mstore\n      0x20\n      add\n      0x00\n      keccak256\n        /* \"contracts/Staking.sol\":7008:7070  LockInfo memory info = lockInfo[IERC721(nftAddress)][_tokenId] */\n      mload(0x40)\n      dup1\n      0xa0\n      add\n      0x40\n      mstore\n      swap1\n      dup2\n      0x00\n      dup3\n      add\n      0x00\n      swap1\n      sload\n      swap1\n      0x0100\n      exp\n      swap1\n      div\n      0xffffffffffffffffffffffffffffffffffffffff\n      and\n      0xffffffffffffffffffffffffffffffffffffffff\n      and\n      0xffffffffffffffffffffffffffffffffffffffff\n      and\n      dup2\n      mstore\n      0x20\n      add\n      0x01\n      dup3\n      add\n      sload\n      dup2\n      mstore\n      0x20\n      add\n      0x02\n      dup3\n      add\n      sload\n      dup2\n      mstore\n      0x20\n      add\n      0x03\n      dup3\n      add\n      0x00\n      swap1\n      sload\n      swap1\n      0x0100\n      exp\n      swap1\n      div\n      0xff\n      and\n      iszero\n      iszero\n      iszero\n      iszero\n      dup2\n      mstore\n      0x20\n      add\n      0x03\n      dup3\n      add\n      0x01\n      swap1\n      sload\n      swap1\n      0x0100\n      exp\n      swap1\n      div\n      0xffffffffffffffffffffffffffffffffffffffff\n      and\n      0xffffffffffffffffffffffffffffffffffffffff\n      and\n      0xffffffffffffffffffffffffffffffffffffffff\n      and\n      dup2\n      mstore\n      pop\n      pop\n      swap1\n      pop\n        /* \"contracts/Staking.sol\":7081:7104  uint256 stakingDuration */\n      0x00\n        /* \"contracts/Staking.sol\":7125:7129  info */\n      dup2\n        /* \"contracts/Staking.sol\":7125:7140  info.lockedTime */\n      0x20\n      add\n      mload\n        /* \"contracts/Staking.sol\":7107:7122  block.timestamp */\n      timestamp\n        /* \"contracts/Staking.sol\":7107:7140  block.timestamp - info.lockedTime */\n      tag_247\n      swap2\n      swap1\n      tag_105\n      jump\t// in\n    tag_247:\n        /* \"contracts/Staking.sol\":7081:7140  uint256 stakingDuration = block.timestamp - info.lockedTime */\n      swap1\n      pop\n        /* \"contracts/Staking.sol\":7151:7170  uint256 totalAmount */\n      0x00\n        /* \"contracts/Staking.sol\":7205:7215  lockPeriod */\n      sload(0x02)\n        /* \"contracts/Staking.sol\":7187:7202  stakingDuration */\n      dup3\n        /* \"contracts/Staking.sol\":7187:7215  stakingDuration < lockPeriod */\n      lt\n        /* \"contracts/Staking.sol\":7183:7409  if (stakingDuration < lockPeriod) {... */\n      iszero\n      tag_248\n      jumpi\n        /* \"contracts/Staking.sol\":7239:7240  0 */\n      0x00\n        /* \"contracts/Staking.sol\":7232:7240  return 0 */\n      swap4\n      pop\n      pop\n      pop\n      pop\n      jump(tag_246)\n        /* \"contracts/Staking.sol\":7183:7409  if (stakingDuration < lockPeriod) {... */\n    tag_248:\n        /* \"contracts/Staking.sol\":7360:7364  WAVE */\n      sload(0x05)\n        /* \"contracts/Staking.sol\":7345:7355  lockPeriod */\n      sload(0x02)\n        /* \"contracts/Staking.sol\":7327:7342  stakingDuration */\n      dup4\n        /* \"contracts/Staking.sol\":7327:7355  stakingDuration - lockPeriod */\n      tag_250\n      swap2\n      swap1\n      tag_105\n      jump\t// in\n    tag_250:\n        /* \"contracts/Staking.sol\":7289:7296  nftInfo */\n      0x04\n        /* \"contracts/Staking.sol\":7289:7308  nftInfo[nftAddress] */\n      0x00\n        /* \"contracts/Staking.sol\":7297:7307  nftAddress */\n      dup9\n        /* \"contracts/Staking.sol\":7289:7308  nftInfo[nftAddress] */\n      0xffffffffffffffffffffffffffffffffffffffff\n      and\n      0xffffffffffffffffffffffffffffffffffffffff\n      and\n      dup2\n      mstore\n      0x20\n      add\n      swap1\n      dup2\n      mstore\n      0x20\n      add\n      0x00\n      keccak256\n        /* \"contracts/Staking.sol\":7289:7323  nftInfo[nftAddress].rewardsPerWave */\n      0x01\n      add\n      sload\n        /* \"contracts/Staking.sol\":7289:7356  nftInfo[nftAddress].rewardsPerWave * (stakingDuration - lockPeriod) */\n      tag_251\n      swap2\n      swap1\n      tag_252\n      jump\t// in\n    tag_251:\n        /* \"contracts/Staking.sol\":7287:7364  ( nftInfo[nftAddress].rewardsPerWave * (stakingDuration - lockPeriod)) / WAVE */\n      tag_253\n      swap2\n      swap1\n      tag_254\n      jump\t// in\n    tag_253:\n        /* \"contracts/Staking.sol\":7273:7364  totalAmount = ( nftInfo[nftAddress].rewardsPerWave * (stakingDuration - lockPeriod)) / WAVE */\n      swap1\n      pop\n        /* \"contracts/Staking.sol\":7386:7397  totalAmount */\n      dup1\n        /* \"contracts/Staking.sol\":7379:7397  return totalAmount */\n      swap4\n      pop\n      pop\n      pop\n      pop\n        /* \"contracts/Staking.sol\":6904:7416  function _rewardAmount(uint256 _tokenId, IERC721 nftAddress) internal view returns (uint256) {... */\n    tag_246:\n      swap3\n      swap2\n      pop\n      pop\n      jump\t// out\n        /* \"@openzeppelin/contracts/access/Ownable.sol\":1359:1489  function _checkOwner() internal view virtual {... */\n    tag_161:\n        /* \"@openzeppelin/contracts/access/Ownable.sol\":1433:1445  _msgSender() */\n      tag_256\n        /* \"@openzeppelin/contracts/access/Ownable.sol\":1433:1443  _msgSender */\n      tag_257\n        /* \"@openzeppelin/contracts/access/Ownable.sol\":1433:1445  _msgSender() */\n      jump\t// in\n    tag_256:\n        /* \"@openzeppelin/contracts/access/Ownable.sol\":1422:1445  owner() == _msgSender() */\n      0xffffffffffffffffffffffffffffffffffffffff\n      and\n        /* \"@openzeppelin/contracts/access/Ownable.sol\":1422:1429  owner() */\n      tag_258\n        /* \"@openzeppelin/contracts/access/Ownable.sol\":1422:1427  owner */\n      tag_32\n        /* \"@openzeppelin/contracts/access/Ownable.sol\":1422:1429  owner() */\n      jump\t// in\n    tag_258:\n        /* \"@openzeppelin/contracts/access/Ownable.sol\":1422:1445  owner() == _msgSender() */\n      0xffffffffffffffffffffffffffffffffffffffff\n      and\n      eq\n        /* \"@openzeppelin/contracts/access/Ownable.sol\":1414:1482  require(owner() == _msgSender(), \"Ownable: caller is not the owner\") */\n      tag_259\n      jumpi\n      mload(0x40)\n      0x08c379a000000000000000000000000000000000000000000000000000000000\n      dup2\n      mstore\n      0x04\n      add\n      tag_260\n      swap1\n      tag_261\n      jump\t// in\n    tag_260:\n      mload(0x40)\n      dup1\n      swap2\n      sub\n      swap1\n      revert\n    tag_259:\n        /* \"@openzeppelin/contracts/access/Ownable.sol\":1359:1489  function _checkOwner() internal view virtual {... */\n      jump\t// out\n        /* \"@openzeppelin/contracts/access/Ownable.sol\":2433:2620  function _transferOwnership(address newOwner) internal virtual {... */\n    tag_164:\n        /* \"@openzeppelin/contracts/access/Ownable.sol\":2506:2522  address oldOwner */\n      0x00\n        /* \"@openzeppelin/contracts/access/Ownable.sol\":2525:2531  _owner */\n      dup1\n      0x00\n      swap1\n      sload\n      swap1\n      0x0100\n      exp\n      swap1\n      div\n      0xffffffffffffffffffffffffffffffffffffffff\n      and\n        /* \"@openzeppelin/contracts/access/Ownable.sol\":2506:2531  address oldOwner = _owner */\n      swap1\n      pop\n        /* \"@openzeppelin/contracts/access/Ownable.sol\":2550:2558  newOwner */\n      dup2\n        /* \"@openzeppelin/contracts/access/Ownable.sol\":2541:2547  _owner */\n      0x00\n      dup1\n        /* \"@openzeppelin/contracts/access/Ownable.sol\":2541:2558  _owner = newOwner */\n      0x0100\n      exp\n      dup2\n      sload\n      dup2\n      0xffffffffffffffffffffffffffffffffffffffff\n      mul\n      not\n      and\n      swap1\n      dup4\n      0xffffffffffffffffffffffffffffffffffffffff\n      and\n      mul\n      or\n      swap1\n      sstore\n      pop\n        /* \"@openzeppelin/contracts/access/Ownable.sol\":2604:2612  newOwner */\n      dup2\n        /* \"@openzeppelin/contracts/access/Ownable.sol\":2573:2613  OwnershipTransferred(oldOwner, newOwner) */\n      0xffffffffffffffffffffffffffffffffffffffff\n      and\n        /* \"@openzeppelin/contracts/access/Ownable.sol\":2594:2602  oldOwner */\n      dup2\n        /* \"@openzeppelin/contracts/access/Ownable.sol\":2573:2613  OwnershipTransferred(oldOwner, newOwner) */\n      0xffffffffffffffffffffffffffffffffffffffff\n      and\n      0x8be0079c531659141344cd1fd0a4f28419497f9722a3daafe3b4186f6b6457e0\n      mload(0x40)\n      mload(0x40)\n      dup1\n      swap2\n      sub\n      swap1\n      log3\n        /* \"@openzeppelin/contracts/access/Ownable.sol\":2496:2620  {... */\n      pop\n        /* \"@openzeppelin/contracts/access/Ownable.sol\":2433:2620  function _transferOwnership(address newOwner) internal virtual {... */\n      pop\n      jump\t// out\n        /* \"@openzeppelin/contracts/utils/Context.sol\":640:736  function _msgSender() internal view virtual returns (address) {... */\n    tag_257:\n        /* \"@openzeppelin/contracts/utils/Context.sol\":693:700  address */\n      0x00\n        /* \"@openzeppelin/contracts/utils/Context.sol\":719:729  msg.sender */\n      caller\n        /* \"@openzeppelin/contracts/utils/Context.sol\":712:729  return msg.sender */\n      swap1\n      pop\n        /* \"@openzeppelin/contracts/utils/Context.sol\":640:736  function _msgSender() internal view virtual returns (address) {... */\n      swap1\n      jump\t// out\n        /* \"#utility.yul\":7:82   */\n    tag_264:\n        /* \"#utility.yul\":40:46   */\n      0x00\n        /* \"#utility.yul\":73:75   */\n      0x40\n        /* \"#utility.yul\":67:76   */\n      mload\n        /* \"#utility.yul\":57:76   */\n      swap1\n      pop\n        /* \"#utility.yul\":7:82   */\n      swap1\n      jump\t// out\n        /* \"#utility.yul\":88:205   */\n    tag_265:\n        /* \"#utility.yul\":197:198   */\n      0x00\n        /* \"#utility.yul\":194:195   */\n      dup1\n        /* \"#utility.yul\":187:199   */\n      revert\n        /* \"#utility.yul\":211:328   */\n    tag_266:\n        /* \"#utility.yul\":320:321   */\n      0x00\n        /* \"#utility.yul\":317:318   */\n      dup1\n        /* \"#utility.yul\":310:322   */\n      revert\n        /* \"#utility.yul\":334:451   */\n    tag_267:\n        /* \"#utility.yul\":443:444   */\n      0x00\n        /* \"#utility.yul\":440:441   */\n      dup1\n        /* \"#utility.yul\":433:445   */\n      revert\n        /* \"#utility.yul\":457:574   */\n    tag_268:\n        /* \"#utility.yul\":566:567   */\n      0x00\n        /* \"#utility.yul\":563:564   */\n      dup1\n        /* \"#utility.yul\":556:568   */\n      revert\n        /* \"#utility.yul\":580:697   */\n    tag_269:\n        /* \"#utility.yul\":689:690   */\n      0x00\n        /* \"#utility.yul\":686:687   */\n      dup1\n        /* \"#utility.yul\":679:691   */\n      revert\n        /* \"#utility.yul\":720:1288   */\n    tag_270:\n        /* \"#utility.yul\":793:801   */\n      0x00\n        /* \"#utility.yul\":803:809   */\n      dup1\n        /* \"#utility.yul\":853:856   */\n      dup4\n        /* \"#utility.yul\":846:850   */\n      0x1f\n        /* \"#utility.yul\":838:844   */\n      dup5\n        /* \"#utility.yul\":834:851   */\n      add\n        /* \"#utility.yul\":830:857   */\n      slt\n        /* \"#utility.yul\":820:942   */\n      tag_344\n      jumpi\n        /* \"#utility.yul\":861:940   */\n      tag_345\n      tag_267\n      jump\t// in\n    tag_345:\n        /* \"#utility.yul\":820:942   */\n    tag_344:\n        /* \"#utility.yul\":974:980   */\n      dup3\n        /* \"#utility.yul\":961:981   */\n      calldataload\n        /* \"#utility.yul\":951:981   */\n      swap1\n      pop\n        /* \"#utility.yul\":1004:1022   */\n      0xffffffffffffffff\n        /* \"#utility.yul\":996:1002   */\n      dup2\n        /* \"#utility.yul\":993:1023   */\n      gt\n        /* \"#utility.yul\":990:1107   */\n      iszero\n      tag_346\n      jumpi\n        /* \"#utility.yul\":1026:1105   */\n      tag_347\n      tag_268\n      jump\t// in\n    tag_347:\n        /* \"#utility.yul\":990:1107   */\n    tag_346:\n        /* \"#utility.yul\":1140:1144   */\n      0x20\n        /* \"#utility.yul\":1132:1138   */\n      dup4\n        /* \"#utility.yul\":1128:1145   */\n      add\n        /* \"#utility.yul\":1116:1145   */\n      swap2\n      pop\n        /* \"#utility.yul\":1194:1197   */\n      dup4\n        /* \"#utility.yul\":1186:1190   */\n      0x20\n        /* \"#utility.yul\":1178:1184   */\n      dup3\n        /* \"#utility.yul\":1174:1191   */\n      mul\n        /* \"#utility.yul\":1164:1172   */\n      dup4\n        /* \"#utility.yul\":1160:1192   */\n      add\n        /* \"#utility.yul\":1157:1198   */\n      gt\n        /* \"#utility.yul\":1154:1282   */\n      iszero\n      tag_348\n      jumpi\n        /* \"#utility.yul\":1201:1280   */\n      tag_349\n      tag_269\n      jump\t// in\n    tag_349:\n        /* \"#utility.yul\":1154:1282   */\n    tag_348:\n        /* \"#utility.yul\":720:1288   */\n      swap3\n      pop\n      swap3\n      swap1\n      pop\n      jump\t// out\n        /* \"#utility.yul\":1294:1420   */\n    tag_271:\n        /* \"#utility.yul\":1331:1338   */\n      0x00\n        /* \"#utility.yul\":1371:1413   */\n      0xffffffffffffffffffffffffffffffffffffffff\n        /* \"#utility.yul\":1364:1369   */\n      dup3\n        /* \"#utility.yul\":1360:1414   */\n      and\n        /* \"#utility.yul\":1349:1414   */\n      swap1\n      pop\n        /* \"#utility.yul\":1294:1420   */\n      swap2\n      swap1\n      pop\n      jump\t// out\n        /* \"#utility.yul\":1426:1522   */\n    tag_272:\n        /* \"#utility.yul\":1463:1470   */\n      0x00\n        /* \"#utility.yul\":1492:1516   */\n      tag_352\n        /* \"#utility.yul\":1510:1515   */\n      dup3\n        /* \"#utility.yul\":1492:1516   */\n      tag_271\n      jump\t// in\n    tag_352:\n        /* \"#utility.yul\":1481:1516   */\n      swap1\n      pop\n        /* \"#utility.yul\":1426:1522   */\n      swap2\n      swap1\n      pop\n      jump\t// out\n        /* \"#utility.yul\":1528:1639   */\n    tag_273:\n        /* \"#utility.yul\":1580:1587   */\n      0x00\n        /* \"#utility.yul\":1609:1633   */\n      tag_354\n        /* \"#utility.yul\":1627:1632   */\n      dup3\n        /* \"#utility.yul\":1609:1633   */\n      tag_272\n      jump\t// in\n    tag_354:\n        /* \"#utility.yul\":1598:1633   */\n      swap1\n      pop\n        /* \"#utility.yul\":1528:1639   */\n      swap2\n      swap1\n      pop\n      jump\t// out\n        /* \"#utility.yul\":1645:1797   */\n    tag_274:\n        /* \"#utility.yul\":1733:1772   */\n      tag_356\n        /* \"#utility.yul\":1766:1771   */\n      dup2\n        /* \"#utility.yul\":1733:1772   */\n      tag_273\n      jump\t// in\n    tag_356:\n        /* \"#utility.yul\":1726:1731   */\n      dup2\n        /* \"#utility.yul\":1723:1773   */\n      eq\n        /* \"#utility.yul\":1713:1791   */\n      tag_357\n      jumpi\n        /* \"#utility.yul\":1787:1788   */\n      0x00\n        /* \"#utility.yul\":1784:1785   */\n      dup1\n        /* \"#utility.yul\":1777:1789   */\n      revert\n        /* \"#utility.yul\":1713:1791   */\n    tag_357:\n        /* \"#utility.yul\":1645:1797   */\n      pop\n      jump\t// out\n        /* \"#utility.yul\":1803:1972   */\n    tag_275:\n        /* \"#utility.yul\":1864:1869   */\n      0x00\n        /* \"#utility.yul\":1902:1908   */\n      dup2\n        /* \"#utility.yul\":1889:1909   */\n      calldataload\n        /* \"#utility.yul\":1880:1909   */\n      swap1\n      pop\n        /* \"#utility.yul\":1918:1966   */\n      tag_359\n        /* \"#utility.yul\":1960:1965   */\n      dup2\n        /* \"#utility.yul\":1918:1966   */\n      tag_274\n      jump\t// in\n    tag_359:\n        /* \"#utility.yul\":1803:1972   */\n      swap3\n      swap2\n      pop\n      pop\n      jump\t// out\n        /* \"#utility.yul\":1978:2712   */\n    tag_20:\n        /* \"#utility.yul\":2088:2094   */\n      0x00\n        /* \"#utility.yul\":2096:2102   */\n      dup1\n        /* \"#utility.yul\":2104:2110   */\n      0x00\n        /* \"#utility.yul\":2153:2155   */\n      0x40\n        /* \"#utility.yul\":2141:2150   */\n      dup5\n        /* \"#utility.yul\":2132:2139   */\n      dup7\n        /* \"#utility.yul\":2128:2151   */\n      sub\n        /* \"#utility.yul\":2124:2156   */\n      slt\n        /* \"#utility.yul\":2121:2240   */\n      iszero\n      tag_361\n      jumpi\n        /* \"#utility.yul\":2159:2238   */\n      tag_362\n      tag_265\n      jump\t// in\n    tag_362:\n        /* \"#utility.yul\":2121:2240   */\n    tag_361:\n        /* \"#utility.yul\":2307:2308   */\n      0x00\n        /* \"#utility.yul\":2296:2305   */\n      dup5\n        /* \"#utility.yul\":2292:2309   */\n      add\n        /* \"#utility.yul\":2279:2310   */\n      calldataload\n        /* \"#utility.yul\":2337:2355   */\n      0xffffffffffffffff\n        /* \"#utility.yul\":2329:2335   */\n      dup2\n        /* \"#utility.yul\":2326:2356   */\n      gt\n        /* \"#utility.yul\":2323:2440   */\n      iszero\n      tag_363\n      jumpi\n        /* \"#utility.yul\":2359:2438   */\n      tag_364\n      tag_266\n      jump\t// in\n    tag_364:\n        /* \"#utility.yul\":2323:2440   */\n    tag_363:\n        /* \"#utility.yul\":2472:2552   */\n      tag_365\n        /* \"#utility.yul\":2544:2551   */\n      dup7\n        /* \"#utility.yul\":2535:2541   */\n      dup3\n        /* \"#utility.yul\":2524:2533   */\n      dup8\n        /* \"#utility.yul\":2520:2542   */\n      add\n        /* \"#utility.yul\":2472:2552   */\n      tag_270\n      jump\t// in\n    tag_365:\n        /* \"#utility.yul\":2454:2552   */\n      swap4\n      pop\n      swap4\n      pop\n        /* \"#utility.yul\":2250:2562   */\n      pop\n        /* \"#utility.yul\":2601:2603   */\n      0x20\n        /* \"#utility.yul\":2627:2695   */\n      tag_366\n        /* \"#utility.yul\":2687:2694   */\n      dup7\n        /* \"#utility.yul\":2678:2684   */\n      dup3\n        /* \"#utility.yul\":2667:2676   */\n      dup8\n        /* \"#utility.yul\":2663:2685   */\n      add\n        /* \"#utility.yul\":2627:2695   */\n      tag_275\n      jump\t// in\n    tag_366:\n        /* \"#utility.yul\":2617:2695   */\n      swap2\n      pop\n        /* \"#utility.yul\":2572:2705   */\n      pop\n        /* \"#utility.yul\":1978:2712   */\n      swap3\n      pop\n      swap3\n      pop\n      swap3\n      jump\t// out\n        /* \"#utility.yul\":2718:2795   */\n    tag_276:\n        /* \"#utility.yul\":2755:2762   */\n      0x00\n        /* \"#utility.yul\":2784:2789   */\n      dup2\n        /* \"#utility.yul\":2773:2789   */\n      swap1\n      pop\n        /* \"#utility.yul\":2718:2795   */\n      swap2\n      swap1\n      pop\n      jump\t// out\n        /* \"#utility.yul\":2801:2919   */\n    tag_277:\n        /* \"#utility.yul\":2888:2912   */\n      tag_369\n        /* \"#utility.yul\":2906:2911   */\n      dup2\n        /* \"#utility.yul\":2888:2912   */\n      tag_276\n      jump\t// in\n    tag_369:\n        /* \"#utility.yul\":2883:2886   */\n      dup3\n        /* \"#utility.yul\":2876:2913   */\n      mstore\n        /* \"#utility.yul\":2801:2919   */\n      pop\n      pop\n      jump\t// out\n        /* \"#utility.yul\":2925:3147   */\n    tag_28:\n        /* \"#utility.yul\":3018:3022   */\n      0x00\n        /* \"#utility.yul\":3056:3058   */\n      0x20\n        /* \"#utility.yul\":3045:3054   */\n      dup3\n        /* \"#utility.yul\":3041:3059   */\n      add\n        /* \"#utility.yul\":3033:3059   */\n      swap1\n      pop\n        /* \"#utility.yul\":3069:3140   */\n      tag_371\n        /* \"#utility.yul\":3137:3138   */\n      0x00\n        /* \"#utility.yul\":3126:3135   */\n      dup4\n        /* \"#utility.yul\":3122:3139   */\n      add\n        /* \"#utility.yul\":3113:3119   */\n      dup5\n        /* \"#utility.yul\":3069:3140   */\n      tag_277\n      jump\t// in\n    tag_371:\n        /* \"#utility.yul\":2925:3147   */\n      swap3\n      swap2\n      pop\n      pop\n      jump\t// out\n        /* \"#utility.yul\":3153:3271   */\n    tag_278:\n        /* \"#utility.yul\":3240:3264   */\n      tag_373\n        /* \"#utility.yul\":3258:3263   */\n      dup2\n        /* \"#utility.yul\":3240:3264   */\n      tag_272\n      jump\t// in\n    tag_373:\n        /* \"#utility.yul\":3235:3238   */\n      dup3\n        /* \"#utility.yul\":3228:3265   */\n      mstore\n        /* \"#utility.yul\":3153:3271   */\n      pop\n      pop\n      jump\t// out\n        /* \"#utility.yul\":3277:3499   */\n    tag_34:\n        /* \"#utility.yul\":3370:3374   */\n      0x00\n        /* \"#utility.yul\":3408:3410   */\n      0x20\n        /* \"#utility.yul\":3397:3406   */\n      dup3\n        /* \"#utility.yul\":3393:3411   */\n      add\n        /* \"#utility.yul\":3385:3411   */\n      swap1\n      pop\n        /* \"#utility.yul\":3421:3492   */\n      tag_375\n        /* \"#utility.yul\":3489:3490   */\n      0x00\n        /* \"#utility.yul\":3478:3487   */\n      dup4\n        /* \"#utility.yul\":3474:3491   */\n      add\n        /* \"#utility.yul\":3465:3471   */\n      dup5\n        /* \"#utility.yul\":3421:3492   */\n      tag_278\n      jump\t// in\n    tag_375:\n        /* \"#utility.yul\":3277:3499   */\n      swap3\n      swap2\n      pop\n      pop\n      jump\t// out\n        /* \"#utility.yul\":3505:3627   */\n    tag_279:\n        /* \"#utility.yul\":3578:3602   */\n      tag_377\n        /* \"#utility.yul\":3596:3601   */\n      dup2\n        /* \"#utility.yul\":3578:3602   */\n      tag_276\n      jump\t// in\n    tag_377:\n        /* \"#utility.yul\":3571:3576   */\n      dup2\n        /* \"#utility.yul\":3568:3603   */\n      eq\n        /* \"#utility.yul\":3558:3621   */\n      tag_378\n      jumpi\n        /* \"#utility.yul\":3617:3618   */\n      0x00\n        /* \"#utility.yul\":3614:3615   */\n      dup1\n        /* \"#utility.yul\":3607:3619   */\n      revert\n        /* \"#utility.yul\":3558:3621   */\n    tag_378:\n        /* \"#utility.yul\":3505:3627   */\n      pop\n      jump\t// out\n        /* \"#utility.yul\":3633:3772   */\n    tag_280:\n        /* \"#utility.yul\":3679:3684   */\n      0x00\n        /* \"#utility.yul\":3717:3723   */\n      dup2\n        /* \"#utility.yul\":3704:3724   */\n      calldataload\n        /* \"#utility.yul\":3695:3724   */\n      swap1\n      pop\n        /* \"#utility.yul\":3733:3766   */\n      tag_380\n        /* \"#utility.yul\":3760:3765   */\n      dup2\n        /* \"#utility.yul\":3733:3766   */\n      tag_279\n      jump\t// in\n    tag_380:\n        /* \"#utility.yul\":3633:3772   */\n      swap3\n      swap2\n      pop\n      pop\n      jump\t// out\n        /* \"#utility.yul\":3778:4282   */\n    tag_40:\n        /* \"#utility.yul\":3861:3867   */\n      0x00\n        /* \"#utility.yul\":3869:3875   */\n      dup1\n        /* \"#utility.yul\":3918:3920   */\n      0x40\n        /* \"#utility.yul\":3906:3915   */\n      dup4\n        /* \"#utility.yul\":3897:3904   */\n      dup6\n        /* \"#utility.yul\":3893:3916   */\n      sub\n        /* \"#utility.yul\":3889:3921   */\n      slt\n        /* \"#utility.yul\":3886:4005   */\n      iszero\n      tag_382\n      jumpi\n        /* \"#utility.yul\":3924:4003   */\n      tag_383\n      tag_265\n      jump\t// in\n    tag_383:\n        /* \"#utility.yul\":3886:4005   */\n    tag_382:\n        /* \"#utility.yul\":4044:4045   */\n      0x00\n        /* \"#utility.yul\":4069:4137   */\n      tag_384\n        /* \"#utility.yul\":4129:4136   */\n      dup6\n        /* \"#utility.yul\":4120:4126   */\n      dup3\n        /* \"#utility.yul\":4109:4118   */\n      dup7\n        /* \"#utility.yul\":4105:4127   */\n      add\n        /* \"#utility.yul\":4069:4137   */\n      tag_275\n      jump\t// in\n    tag_384:\n        /* \"#utility.yul\":4059:4137   */\n      swap3\n      pop\n        /* \"#utility.yul\":4015:4147   */\n      pop\n        /* \"#utility.yul\":4186:4188   */\n      0x20\n        /* \"#utility.yul\":4212:4265   */\n      tag_385\n        /* \"#utility.yul\":4257:4264   */\n      dup6\n        /* \"#utility.yul\":4248:4254   */\n      dup3\n        /* \"#utility.yul\":4237:4246   */\n      dup7\n        /* \"#utility.yul\":4233:4255   */\n      add\n        /* \"#utility.yul\":4212:4265   */\n      tag_280\n      jump\t// in\n    tag_385:\n        /* \"#utility.yul\":4202:4265   */\n      swap2\n      pop\n        /* \"#utility.yul\":4157:4275   */\n      pop\n        /* \"#utility.yul\":3778:4282   */\n      swap3\n      pop\n      swap3\n      swap1\n      pop\n      jump\t// out\n        /* \"#utility.yul\":4288:4378   */\n    tag_281:\n        /* \"#utility.yul\":4322:4329   */\n      0x00\n        /* \"#utility.yul\":4365:4370   */\n      dup2\n        /* \"#utility.yul\":4358:4371   */\n      iszero\n        /* \"#utility.yul\":4351:4372   */\n      iszero\n        /* \"#utility.yul\":4340:4372   */\n      swap1\n      pop\n        /* \"#utility.yul\":4288:4378   */\n      swap2\n      swap1\n      pop\n      jump\t// out\n        /* \"#utility.yul\":4384:4493   */\n    tag_282:\n        /* \"#utility.yul\":4465:4486   */\n      tag_388\n        /* \"#utility.yul\":4480:4485   */\n      dup2\n        /* \"#utility.yul\":4465:4486   */\n      tag_281\n      jump\t// in\n    tag_388:\n        /* \"#utility.yul\":4460:4463   */\n      dup3\n        /* \"#utility.yul\":4453:4487   */\n      mstore\n        /* \"#utility.yul\":4384:4493   */\n      pop\n      pop\n      jump\t// out\n        /* \"#utility.yul\":4499:4559   */\n    tag_283:\n        /* \"#utility.yul\":4527:4530   */\n      0x00\n        /* \"#utility.yul\":4548:4553   */\n      dup2\n        /* \"#utility.yul\":4541:4553   */\n      swap1\n      pop\n        /* \"#utility.yul\":4499:4559   */\n      swap2\n      swap1\n      pop\n      jump\t// out\n        /* \"#utility.yul\":4565:4707   */\n    tag_284:\n        /* \"#utility.yul\":4615:4624   */\n      0x00\n        /* \"#utility.yul\":4648:4701   */\n      tag_391\n        /* \"#utility.yul\":4666:4700   */\n      tag_392\n        /* \"#utility.yul\":4675:4699   */\n      tag_393\n        /* \"#utility.yul\":4693:4698   */\n      dup5\n        /* \"#utility.yul\":4675:4699   */\n      tag_271\n      jump\t// in\n    tag_393:\n        /* \"#utility.yul\":4666:4700   */\n      tag_283\n      jump\t// in\n    tag_392:\n        /* \"#utility.yul\":4648:4701   */\n      tag_271\n      jump\t// in\n    tag_391:\n        /* \"#utility.yul\":4635:4701   */\n      swap1\n      pop\n        /* \"#utility.yul\":4565:4707   */\n      swap2\n      swap1\n      pop\n      jump\t// out\n        /* \"#utility.yul\":4713:4839   */\n    tag_285:\n        /* \"#utility.yul\":4763:4772   */\n      0x00\n        /* \"#utility.yul\":4796:4833   */\n      tag_395\n        /* \"#utility.yul\":4827:4832   */\n      dup3\n        /* \"#utility.yul\":4796:4833   */\n      tag_284\n      jump\t// in\n    tag_395:\n        /* \"#utility.yul\":4783:4833   */\n      swap1\n      pop\n        /* \"#utility.yul\":4713:4839   */\n      swap2\n      swap1\n      pop\n      jump\t// out\n        /* \"#utility.yul\":4845:4986   */\n    tag_286:\n        /* \"#utility.yul\":4910:4919   */\n      0x00\n        /* \"#utility.yul\":4943:4980   */\n      tag_397\n        /* \"#utility.yul\":4974:4979   */\n      dup3\n        /* \"#utility.yul\":4943:4980   */\n      tag_285\n      jump\t// in\n    tag_397:\n        /* \"#utility.yul\":4930:4980   */\n      swap1\n      pop\n        /* \"#utility.yul\":4845:4986   */\n      swap2\n      swap1\n      pop\n      jump\t// out\n        /* \"#utility.yul\":4992:5153   */\n    tag_287:\n        /* \"#utility.yul\":5094:5146   */\n      tag_399\n        /* \"#utility.yul\":5140:5145   */\n      dup2\n        /* \"#utility.yul\":5094:5146   */\n      tag_286\n      jump\t// in\n    tag_399:\n        /* \"#utility.yul\":5089:5092   */\n      dup3\n        /* \"#utility.yul\":5082:5147   */\n      mstore\n        /* \"#utility.yul\":4992:5153   */\n      pop\n      pop\n      jump\t// out\n        /* \"#utility.yul\":5159:5841   */\n    tag_43:\n        /* \"#utility.yul\":5373:5377   */\n      0x00\n        /* \"#utility.yul\":5411:5414   */\n      0xa0\n        /* \"#utility.yul\":5400:5409   */\n      dup3\n        /* \"#utility.yul\":5396:5415   */\n      add\n        /* \"#utility.yul\":5388:5415   */\n      swap1\n      pop\n        /* \"#utility.yul\":5425:5496   */\n      tag_401\n        /* \"#utility.yul\":5493:5494   */\n      0x00\n        /* \"#utility.yul\":5482:5491   */\n      dup4\n        /* \"#utility.yul\":5478:5495   */\n      add\n        /* \"#utility.yul\":5469:5475   */\n      dup9\n        /* \"#utility.yul\":5425:5496   */\n      tag_278\n      jump\t// in\n    tag_401:\n        /* \"#utility.yul\":5506:5578   */\n      tag_402\n        /* \"#utility.yul\":5574:5576   */\n      0x20\n        /* \"#utility.yul\":5563:5572   */\n      dup4\n        /* \"#utility.yul\":5559:5577   */\n      add\n        /* \"#utility.yul\":5550:5556   */\n      dup8\n        /* \"#utility.yul\":5506:5578   */\n      tag_277\n      jump\t// in\n    tag_402:\n        /* \"#utility.yul\":5588:5660   */\n      tag_403\n        /* \"#utility.yul\":5656:5658   */\n      0x40\n        /* \"#utility.yul\":5645:5654   */\n      dup4\n        /* \"#utility.yul\":5641:5659   */\n      add\n        /* \"#utility.yul\":5632:5638   */\n      dup7\n        /* \"#utility.yul\":5588:5660   */\n      tag_277\n      jump\t// in\n    tag_403:\n        /* \"#utility.yul\":5670:5736   */\n      tag_404\n        /* \"#utility.yul\":5732:5734   */\n      0x60\n        /* \"#utility.yul\":5721:5730   */\n      dup4\n        /* \"#utility.yul\":5717:5735   */\n      add\n        /* \"#utility.yul\":5708:5714   */\n      dup6\n        /* \"#utility.yul\":5670:5736   */\n      tag_282\n      jump\t// in\n    tag_404:\n        /* \"#utility.yul\":5746:5834   */\n      tag_405\n        /* \"#utility.yul\":5829:5832   */\n      0x80\n        /* \"#utility.yul\":5818:5827   */\n      dup4\n        /* \"#utility.yul\":5814:5833   */\n      add\n        /* \"#utility.yul\":5805:5811   */\n      dup5\n        /* \"#utility.yul\":5746:5834   */\n      tag_287\n      jump\t// in\n    tag_405:\n        /* \"#utility.yul\":5159:5841   */\n      swap7\n      swap6\n      pop\n      pop\n      pop\n      pop\n      pop\n      pop\n      jump\t// out\n        /* \"#utility.yul\":5847:6351   */\n    tag_46:\n        /* \"#utility.yul\":5930:5936   */\n      0x00\n        /* \"#utility.yul\":5938:5944   */\n      dup1\n        /* \"#utility.yul\":5987:5989   */\n      0x40\n        /* \"#utility.yul\":5975:5984   */\n      dup4\n        /* \"#utility.yul\":5966:5973   */\n      dup6\n        /* \"#utility.yul\":5962:5985   */\n      sub\n        /* \"#utility.yul\":5958:5990   */\n      slt\n        /* \"#utility.yul\":5955:6074   */\n      iszero\n      tag_407\n      jumpi\n        /* \"#utility.yul\":5993:6072   */\n      tag_408\n      tag_265\n      jump\t// in\n    tag_408:\n        /* \"#utility.yul\":5955:6074   */\n    tag_407:\n        /* \"#utility.yul\":6113:6114   */\n      0x00\n        /* \"#utility.yul\":6138:6191   */\n      tag_409\n        /* \"#utility.yul\":6183:6190   */\n      dup6\n        /* \"#utility.yul\":6174:6180   */\n      dup3\n        /* \"#utility.yul\":6163:6172   */\n      dup7\n        /* \"#utility.yul\":6159:6181   */\n      add\n        /* \"#utility.yul\":6138:6191   */\n      tag_280\n      jump\t// in\n    tag_409:\n        /* \"#utility.yul\":6128:6191   */\n      swap3\n      pop\n        /* \"#utility.yul\":6084:6201   */\n      pop\n        /* \"#utility.yul\":6240:6242   */\n      0x20\n        /* \"#utility.yul\":6266:6334   */\n      tag_410\n        /* \"#utility.yul\":6326:6333   */\n      dup6\n        /* \"#utility.yul\":6317:6323   */\n      dup3\n        /* \"#utility.yul\":6306:6315   */\n      dup7\n        /* \"#utility.yul\":6302:6324   */\n      add\n        /* \"#utility.yul\":6266:6334   */\n      tag_275\n      jump\t// in\n    tag_410:\n        /* \"#utility.yul\":6256:6334   */\n      swap2\n      pop\n        /* \"#utility.yul\":6211:6344   */\n      pop\n        /* \"#utility.yul\":5847:6351   */\n      swap3\n      pop\n      swap3\n      swap1\n      pop\n      jump\t// out\n        /* \"#utility.yul\":6357:6716   */\n    tag_54:\n        /* \"#utility.yul\":6431:6437   */\n      0x00\n        /* \"#utility.yul\":6480:6482   */\n      0x20\n        /* \"#utility.yul\":6468:6477   */\n      dup3\n        /* \"#utility.yul\":6459:6466   */\n      dup5\n        /* \"#utility.yul\":6455:6478   */\n      sub\n        /* \"#utility.yul\":6451:6483   */\n      slt\n        /* \"#utility.yul\":6448:6567   */\n      iszero\n      tag_412\n      jumpi\n        /* \"#utility.yul\":6486:6565   */\n      tag_413\n      tag_265\n      jump\t// in\n    tag_413:\n        /* \"#utility.yul\":6448:6567   */\n    tag_412:\n        /* \"#utility.yul\":6606:6607   */\n      0x00\n        /* \"#utility.yul\":6631:6699   */\n      tag_414\n        /* \"#utility.yul\":6691:6698   */\n      dup5\n        /* \"#utility.yul\":6682:6688   */\n      dup3\n        /* \"#utility.yul\":6671:6680   */\n      dup6\n        /* \"#utility.yul\":6667:6689   */\n      add\n        /* \"#utility.yul\":6631:6699   */\n      tag_275\n      jump\t// in\n    tag_414:\n        /* \"#utility.yul\":6621:6699   */\n      swap2\n      pop\n        /* \"#utility.yul\":6577:6709   */\n      pop\n        /* \"#utility.yul\":6357:6716   */\n      swap3\n      swap2\n      pop\n      pop\n      jump\t// out\n        /* \"#utility.yul\":6722:6870   */\n    tag_288:\n        /* \"#utility.yul\":6794:6803   */\n      0x00\n        /* \"#utility.yul\":6827:6864   */\n      tag_416\n        /* \"#utility.yul\":6858:6863   */\n      dup3\n        /* \"#utility.yul\":6827:6864   */\n      tag_285\n      jump\t// in\n    tag_416:\n        /* \"#utility.yul\":6814:6864   */\n      swap1\n      pop\n        /* \"#utility.yul\":6722:6870   */\n      swap2\n      swap1\n      pop\n      jump\t// out\n        /* \"#utility.yul\":6876:7051   */\n    tag_289:\n        /* \"#utility.yul\":6985:7044   */\n      tag_418\n        /* \"#utility.yul\":7038:7043   */\n      dup2\n        /* \"#utility.yul\":6985:7044   */\n      tag_288\n      jump\t// in\n    tag_418:\n        /* \"#utility.yul\":6980:6983   */\n      dup3\n        /* \"#utility.yul\":6973:7045   */\n      mstore\n        /* \"#utility.yul\":6876:7051   */\n      pop\n      pop\n      jump\t// out\n        /* \"#utility.yul\":7057:7543   */\n    tag_57:\n        /* \"#utility.yul\":7228:7232   */\n      0x00\n        /* \"#utility.yul\":7266:7268   */\n      0x60\n        /* \"#utility.yul\":7255:7264   */\n      dup3\n        /* \"#utility.yul\":7251:7269   */\n      add\n        /* \"#utility.yul\":7243:7269   */\n      swap1\n      pop\n        /* \"#utility.yul\":7279:7372   */\n      tag_420\n        /* \"#utility.yul\":7369:7370   */\n      0x00\n        /* \"#utility.yul\":7358:7367   */\n      dup4\n        /* \"#utility.yul\":7354:7371   */\n      add\n        /* \"#utility.yul\":7345:7351   */\n      dup7\n        /* \"#utility.yul\":7279:7372   */\n      tag_289\n      jump\t// in\n    tag_420:\n        /* \"#utility.yul\":7382:7454   */\n      tag_421\n        /* \"#utility.yul\":7450:7452   */\n      0x20\n        /* \"#utility.yul\":7439:7448   */\n      dup4\n        /* \"#utility.yul\":7435:7453   */\n      add\n        /* \"#utility.yul\":7426:7432   */\n      dup6\n        /* \"#utility.yul\":7382:7454   */\n      tag_277\n      jump\t// in\n    tag_421:\n        /* \"#utility.yul\":7464:7536   */\n      tag_422\n        /* \"#utility.yul\":7532:7534   */\n      0x40\n        /* \"#utility.yul\":7521:7530   */\n      dup4\n        /* \"#utility.yul\":7517:7535   */\n      add\n        /* \"#utility.yul\":7508:7514   */\n      dup5\n        /* \"#utility.yul\":7464:7536   */\n      tag_277\n      jump\t// in\n    tag_422:\n        /* \"#utility.yul\":7057:7543   */\n      swap5\n      swap4\n      pop\n      pop\n      pop\n      pop\n      jump\t// out\n        /* \"#utility.yul\":7549:7878   */\n    tag_60:\n        /* \"#utility.yul\":7608:7614   */\n      0x00\n        /* \"#utility.yul\":7657:7659   */\n      0x20\n        /* \"#utility.yul\":7645:7654   */\n      dup3\n        /* \"#utility.yul\":7636:7643   */\n      dup5\n        /* \"#utility.yul\":7632:7655   */\n      sub\n        /* \"#utility.yul\":7628:7660   */\n      slt\n        /* \"#utility.yul\":7625:7744   */\n      iszero\n      tag_424\n      jumpi\n        /* \"#utility.yul\":7663:7742   */\n      tag_425\n      tag_265\n      jump\t// in\n    tag_425:\n        /* \"#utility.yul\":7625:7744   */\n    tag_424:\n        /* \"#utility.yul\":7783:7784   */\n      0x00\n        /* \"#utility.yul\":7808:7861   */\n      tag_426\n        /* \"#utility.yul\":7853:7860   */\n      dup5\n        /* \"#utility.yul\":7844:7850   */\n      dup3\n        /* \"#utility.yul\":7833:7842   */\n      dup6\n        /* \"#utility.yul\":7829:7851   */\n      add\n        /* \"#utility.yul\":7808:7861   */\n      tag_280\n      jump\t// in\n    tag_426:\n        /* \"#utility.yul\":7798:7861   */\n      swap2\n      pop\n        /* \"#utility.yul\":7754:7871   */\n      pop\n        /* \"#utility.yul\":7549:7878   */\n      swap3\n      swap2\n      pop\n      pop\n      jump\t// out\n        /* \"#utility.yul\":7884:7986   */\n    tag_290:\n        /* \"#utility.yul\":7925:7931   */\n      0x00\n        /* \"#utility.yul\":7976:7978   */\n      0x1f\n        /* \"#utility.yul\":7972:7979   */\n      not\n        /* \"#utility.yul\":7967:7969   */\n      0x1f\n        /* \"#utility.yul\":7960:7965   */\n      dup4\n        /* \"#utility.yul\":7956:7970   */\n      add\n        /* \"#utility.yul\":7952:7980   */\n      and\n        /* \"#utility.yul\":7942:7980   */\n      swap1\n      pop\n        /* \"#utility.yul\":7884:7986   */\n      swap2\n      swap1\n      pop\n      jump\t// out\n        /* \"#utility.yul\":7992:8172   */\n    tag_291:\n        /* \"#utility.yul\":8040:8117   */\n      0x4e487b7100000000000000000000000000000000000000000000000000000000\n        /* \"#utility.yul\":8037:8038   */\n      0x00\n        /* \"#utility.yul\":8030:8118   */\n      mstore\n        /* \"#utility.yul\":8137:8141   */\n      0x41\n        /* \"#utility.yul\":8134:8135   */\n      0x04\n        /* \"#utility.yul\":8127:8142   */\n      mstore\n        /* \"#utility.yul\":8161:8165   */\n      0x24\n        /* \"#utility.yul\":8158:8159   */\n      0x00\n        /* \"#utility.yul\":8151:8166   */\n      revert\n        /* \"#utility.yul\":8178:8459   */\n    tag_292:\n        /* \"#utility.yul\":8261:8288   */\n      tag_430\n        /* \"#utility.yul\":8283:8287   */\n      dup3\n        /* \"#utility.yul\":8261:8288   */\n      tag_290\n      jump\t// in\n    tag_430:\n        /* \"#utility.yul\":8253:8259   */\n      dup2\n        /* \"#utility.yul\":8249:8289   */\n      add\n        /* \"#utility.yul\":8391:8397   */\n      dup2\n        /* \"#utility.yul\":8379:8389   */\n      dup2\n        /* \"#utility.yul\":8376:8398   */\n      lt\n        /* \"#utility.yul\":8355:8373   */\n      0xffffffffffffffff\n        /* \"#utility.yul\":8343:8353   */\n      dup3\n        /* \"#utility.yul\":8340:8374   */\n      gt\n        /* \"#utility.yul\":8337:8399   */\n      or\n        /* \"#utility.yul\":8334:8422   */\n      iszero\n      tag_431\n      jumpi\n        /* \"#utility.yul\":8402:8420   */\n      tag_432\n      tag_291\n      jump\t// in\n    tag_432:\n        /* \"#utility.yul\":8334:8422   */\n    tag_431:\n        /* \"#utility.yul\":8442:8452   */\n      dup1\n        /* \"#utility.yul\":8438:8440   */\n      0x40\n        /* \"#utility.yul\":8431:8453   */\n      mstore\n        /* \"#utility.yul\":8221:8459   */\n      pop\n        /* \"#utility.yul\":8178:8459   */\n      pop\n      pop\n      jump\t// out\n        /* \"#utility.yul\":8465:8594   */\n    tag_293:\n        /* \"#utility.yul\":8499:8505   */\n      0x00\n        /* \"#utility.yul\":8526:8546   */\n      tag_434\n      tag_264\n      jump\t// in\n    tag_434:\n        /* \"#utility.yul\":8516:8546   */\n      swap1\n      pop\n        /* \"#utility.yul\":8555:8588   */\n      tag_435\n        /* \"#utility.yul\":8583:8587   */\n      dup3\n        /* \"#utility.yul\":8575:8581   */\n      dup3\n        /* \"#utility.yul\":8555:8588   */\n      tag_292\n      jump\t// in\n    tag_435:\n        /* \"#utility.yul\":8465:8594   */\n      swap2\n      swap1\n      pop\n      jump\t// out\n        /* \"#utility.yul\":8600:8911   */\n    tag_294:\n        /* \"#utility.yul\":8677:8681   */\n      0x00\n        /* \"#utility.yul\":8767:8785   */\n      0xffffffffffffffff\n        /* \"#utility.yul\":8759:8765   */\n      dup3\n        /* \"#utility.yul\":8756:8786   */\n      gt\n        /* \"#utility.yul\":8753:8809   */\n      iszero\n      tag_437\n      jumpi\n        /* \"#utility.yul\":8789:8807   */\n      tag_438\n      tag_291\n      jump\t// in\n    tag_438:\n        /* \"#utility.yul\":8753:8809   */\n    tag_437:\n        /* \"#utility.yul\":8839:8843   */\n      0x20\n        /* \"#utility.yul\":8831:8837   */\n      dup3\n        /* \"#utility.yul\":8827:8844   */\n      mul\n        /* \"#utility.yul\":8819:8844   */\n      swap1\n      pop\n        /* \"#utility.yul\":8899:8903   */\n      0x20\n        /* \"#utility.yul\":8893:8897   */\n      dup2\n        /* \"#utility.yul\":8889:8904   */\n      add\n        /* \"#utility.yul\":8881:8904   */\n      swap1\n      pop\n        /* \"#utility.yul\":8600:8911   */\n      swap2\n      swap1\n      pop\n      jump\t// out\n        /* \"#utility.yul\":8917:9039   */\n    tag_295:\n        /* \"#utility.yul\":8990:9014   */\n      tag_440\n        /* \"#utility.yul\":9008:9013   */\n      dup2\n        /* \"#utility.yul\":8990:9014   */\n      tag_272\n      jump\t// in\n    tag_440:\n        /* \"#utility.yul\":8983:8988   */\n      dup2\n        /* \"#utility.yul\":8980:9015   */\n      eq\n        /* \"#utility.yul\":8970:9033   */\n      tag_441\n      jumpi\n        /* \"#utility.yul\":9029:9030   */\n      0x00\n        /* \"#utility.yul\":9026:9027   */\n      dup1\n        /* \"#utility.yul\":9019:9031   */\n      revert\n        /* \"#utility.yul\":8970:9033   */\n    tag_441:\n        /* \"#utility.yul\":8917:9039   */\n      pop\n      jump\t// out\n        /* \"#utility.yul\":9045:9184   */\n    tag_296:\n        /* \"#utility.yul\":9091:9096   */\n      0x00\n        /* \"#utility.yul\":9129:9135   */\n      dup2\n        /* \"#utility.yul\":9116:9136   */\n      calldataload\n        /* \"#utility.yul\":9107:9136   */\n      swap1\n      pop\n        /* \"#utility.yul\":9145:9178   */\n      tag_443\n        /* \"#utility.yul\":9172:9177   */\n      dup2\n        /* \"#utility.yul\":9145:9178   */\n      tag_295\n      jump\t// in\n    tag_443:\n        /* \"#utility.yul\":9045:9184   */\n      swap3\n      swap2\n      pop\n      pop\n      jump\t// out\n        /* \"#utility.yul\":9207:9917   */\n    tag_297:\n        /* \"#utility.yul\":9303:9308   */\n      0x00\n        /* \"#utility.yul\":9328:9409   */\n      tag_445\n        /* \"#utility.yul\":9344:9408   */\n      tag_446\n        /* \"#utility.yul\":9401:9407   */\n      dup5\n        /* \"#utility.yul\":9344:9408   */\n      tag_294\n      jump\t// in\n    tag_446:\n        /* \"#utility.yul\":9328:9409   */\n      tag_293\n      jump\t// in\n    tag_445:\n        /* \"#utility.yul\":9319:9409   */\n      swap1\n      pop\n        /* \"#utility.yul\":9429:9434   */\n      dup1\n        /* \"#utility.yul\":9458:9464   */\n      dup4\n        /* \"#utility.yul\":9451:9456   */\n      dup3\n        /* \"#utility.yul\":9444:9465   */\n      mstore\n        /* \"#utility.yul\":9492:9496   */\n      0x20\n        /* \"#utility.yul\":9485:9490   */\n      dup3\n        /* \"#utility.yul\":9481:9497   */\n      add\n        /* \"#utility.yul\":9474:9497   */\n      swap1\n      pop\n        /* \"#utility.yul\":9545:9549   */\n      0x20\n        /* \"#utility.yul\":9537:9543   */\n      dup5\n        /* \"#utility.yul\":9533:9550   */\n      mul\n        /* \"#utility.yul\":9525:9531   */\n      dup4\n        /* \"#utility.yul\":9521:9551   */\n      add\n        /* \"#utility.yul\":9574:9577   */\n      dup6\n        /* \"#utility.yul\":9566:9572   */\n      dup2\n        /* \"#utility.yul\":9563:9578   */\n      gt\n        /* \"#utility.yul\":9560:9682   */\n      iszero\n      tag_447\n      jumpi\n        /* \"#utility.yul\":9593:9672   */\n      tag_448\n      tag_269\n      jump\t// in\n    tag_448:\n        /* \"#utility.yul\":9560:9682   */\n    tag_447:\n        /* \"#utility.yul\":9708:9714   */\n      dup4\n        /* \"#utility.yul\":9691:9911   */\n    tag_449:\n        /* \"#utility.yul\":9725:9731   */\n      dup2\n        /* \"#utility.yul\":9720:9723   */\n      dup2\n        /* \"#utility.yul\":9717:9732   */\n      lt\n        /* \"#utility.yul\":9691:9911   */\n      iszero\n      tag_451\n      jumpi\n        /* \"#utility.yul\":9800:9803   */\n      dup1\n        /* \"#utility.yul\":9829:9866   */\n      tag_452\n        /* \"#utility.yul\":9862:9865   */\n      dup9\n        /* \"#utility.yul\":9850:9860   */\n      dup3\n        /* \"#utility.yul\":9829:9866   */\n      tag_296\n      jump\t// in\n    tag_452:\n        /* \"#utility.yul\":9824:9827   */\n      dup5\n        /* \"#utility.yul\":9817:9867   */\n      mstore\n        /* \"#utility.yul\":9896:9900   */\n      0x20\n        /* \"#utility.yul\":9891:9894   */\n      dup5\n        /* \"#utility.yul\":9887:9901   */\n      add\n        /* \"#utility.yul\":9880:9901   */\n      swap4\n      pop\n        /* \"#utility.yul\":9767:9911   */\n      pop\n        /* \"#utility.yul\":9751:9755   */\n      0x20\n        /* \"#utility.yul\":9746:9749   */\n      dup2\n        /* \"#utility.yul\":9742:9756   */\n      add\n        /* \"#utility.yul\":9735:9756   */\n      swap1\n      pop\n        /* \"#utility.yul\":9691:9911   */\n      jump(tag_449)\n    tag_451:\n        /* \"#utility.yul\":9695:9716   */\n      pop\n        /* \"#utility.yul\":9309:9917   */\n      pop\n      pop\n        /* \"#utility.yul\":9207:9917   */\n      swap4\n      swap3\n      pop\n      pop\n      pop\n      jump\t// out\n        /* \"#utility.yul\":9940:10310   */\n    tag_298:\n        /* \"#utility.yul\":10011:10016   */\n      0x00\n        /* \"#utility.yul\":10060:10063   */\n      dup3\n        /* \"#utility.yul\":10053:10057   */\n      0x1f\n        /* \"#utility.yul\":10045:10051   */\n      dup4\n        /* \"#utility.yul\":10041:10058   */\n      add\n        /* \"#utility.yul\":10037:10064   */\n      slt\n        /* \"#utility.yul\":10027:10149   */\n      tag_454\n      jumpi\n        /* \"#utility.yul\":10068:10147   */\n      tag_455\n      tag_267\n      jump\t// in\n    tag_455:\n        /* \"#utility.yul\":10027:10149   */\n    tag_454:\n        /* \"#utility.yul\":10185:10191   */\n      dup2\n        /* \"#utility.yul\":10172:10192   */\n      calldataload\n        /* \"#utility.yul\":10210:10304   */\n      tag_456\n        /* \"#utility.yul\":10300:10303   */\n      dup5\n        /* \"#utility.yul\":10292:10298   */\n      dup3\n        /* \"#utility.yul\":10285:10289   */\n      0x20\n        /* \"#utility.yul\":10277:10283   */\n      dup7\n        /* \"#utility.yul\":10273:10290   */\n      add\n        /* \"#utility.yul\":10210:10304   */\n      tag_297\n      jump\t// in\n    tag_456:\n        /* \"#utility.yul\":10201:10304   */\n      swap2\n      pop\n        /* \"#utility.yul\":10017:10310   */\n      pop\n        /* \"#utility.yul\":9940:10310   */\n      swap3\n      swap2\n      pop\n      pop\n      jump\t// out\n        /* \"#utility.yul\":10316:10627   */\n    tag_299:\n        /* \"#utility.yul\":10393:10397   */\n      0x00\n        /* \"#utility.yul\":10483:10501   */\n      0xffffffffffffffff\n        /* \"#utility.yul\":10475:10481   */\n      dup3\n        /* \"#utility.yul\":10472:10502   */\n      gt\n        /* \"#utility.yul\":10469:10525   */\n      iszero\n      tag_458\n      jumpi\n        /* \"#utility.yul\":10505:10523   */\n      tag_459\n      tag_291\n      jump\t// in\n    tag_459:\n        /* \"#utility.yul\":10469:10525   */\n    tag_458:\n        /* \"#utility.yul\":10555:10559   */\n      0x20\n        /* \"#utility.yul\":10547:10553   */\n      dup3\n        /* \"#utility.yul\":10543:10560   */\n      mul\n        /* \"#utility.yul\":10535:10560   */\n      swap1\n      pop\n        /* \"#utility.yul\":10615:10619   */\n      0x20\n        /* \"#utility.yul\":10609:10613   */\n      dup2\n        /* \"#utility.yul\":10605:10620   */\n      add\n        /* \"#utility.yul\":10597:10620   */\n      swap1\n      pop\n        /* \"#utility.yul\":10316:10627   */\n      swap2\n      swap1\n      pop\n      jump\t// out\n        /* \"#utility.yul\":10650:11360   */\n    tag_300:\n        /* \"#utility.yul\":10746:10751   */\n      0x00\n        /* \"#utility.yul\":10771:10852   */\n      tag_461\n        /* \"#utility.yul\":10787:10851   */\n      tag_462\n        /* \"#utility.yul\":10844:10850   */\n      dup5\n        /* \"#utility.yul\":10787:10851   */\n      tag_299\n      jump\t// in\n    tag_462:\n        /* \"#utility.yul\":10771:10852   */\n      tag_293\n      jump\t// in\n    tag_461:\n        /* \"#utility.yul\":10762:10852   */\n      swap1\n      pop\n        /* \"#utility.yul\":10872:10877   */\n      dup1\n        /* \"#utility.yul\":10901:10907   */\n      dup4\n        /* \"#utility.yul\":10894:10899   */\n      dup3\n        /* \"#utility.yul\":10887:10908   */\n      mstore\n        /* \"#utility.yul\":10935:10939   */\n      0x20\n        /* \"#utility.yul\":10928:10933   */\n      dup3\n        /* \"#utility.yul\":10924:10940   */\n      add\n        /* \"#utility.yul\":10917:10940   */\n      swap1\n      pop\n        /* \"#utility.yul\":10988:10992   */\n      0x20\n        /* \"#utility.yul\":10980:10986   */\n      dup5\n        /* \"#utility.yul\":10976:10993   */\n      mul\n        /* \"#utility.yul\":10968:10974   */\n      dup4\n        /* \"#utility.yul\":10964:10994   */\n      add\n        /* \"#utility.yul\":11017:11020   */\n      dup6\n        /* \"#utility.yul\":11009:11015   */\n      dup2\n        /* \"#utility.yul\":11006:11021   */\n      gt\n        /* \"#utility.yul\":11003:11125   */\n      iszero\n      tag_463\n      jumpi\n        /* \"#utility.yul\":11036:11115   */\n      tag_464\n      tag_269\n      jump\t// in\n    tag_464:\n        /* \"#utility.yul\":11003:11125   */\n    tag_463:\n        /* \"#utility.yul\":11151:11157   */\n      dup4\n        /* \"#utility.yul\":11134:11354   */\n    tag_465:\n        /* \"#utility.yul\":11168:11174   */\n      dup2\n        /* \"#utility.yul\":11163:11166   */\n      dup2\n        /* \"#utility.yul\":11160:11175   */\n      lt\n        /* \"#utility.yul\":11134:11354   */\n      iszero\n      tag_467\n      jumpi\n        /* \"#utility.yul\":11243:11246   */\n      dup1\n        /* \"#utility.yul\":11272:11309   */\n      tag_468\n        /* \"#utility.yul\":11305:11308   */\n      dup9\n        /* \"#utility.yul\":11293:11303   */\n      dup3\n        /* \"#utility.yul\":11272:11309   */\n      tag_280\n      jump\t// in\n    tag_468:\n        /* \"#utility.yul\":11267:11270   */\n      dup5\n        /* \"#utility.yul\":11260:11310   */\n      mstore\n        /* \"#utility.yul\":11339:11343   */\n      0x20\n        /* \"#utility.yul\":11334:11337   */\n      dup5\n        /* \"#utility.yul\":11330:11344   */\n      add\n        /* \"#utility.yul\":11323:11344   */\n      swap4\n      pop\n        /* \"#utility.yul\":11210:11354   */\n      pop\n        /* \"#utility.yul\":11194:11198   */\n      0x20\n        /* \"#utility.yul\":11189:11192   */\n      dup2\n        /* \"#utility.yul\":11185:11199   */\n      add\n        /* \"#utility.yul\":11178:11199   */\n      swap1\n      pop\n        /* \"#utility.yul\":11134:11354   */\n      jump(tag_465)\n    tag_467:\n        /* \"#utility.yul\":11138:11159   */\n      pop\n        /* \"#utility.yul\":10752:11360   */\n      pop\n      pop\n        /* \"#utility.yul\":10650:11360   */\n      swap4\n      swap3\n      pop\n      pop\n      pop\n      jump\t// out\n        /* \"#utility.yul\":11383:11753   */\n    tag_301:\n        /* \"#utility.yul\":11454:11459   */\n      0x00\n        /* \"#utility.yul\":11503:11506   */\n      dup3\n        /* \"#utility.yul\":11496:11500   */\n      0x1f\n        /* \"#utility.yul\":11488:11494   */\n      dup4\n        /* \"#utility.yul\":11484:11501   */\n      add\n        /* \"#utility.yul\":11480:11507   */\n      slt\n        /* \"#utility.yul\":11470:11592   */\n      tag_470\n      jumpi\n        /* \"#utility.yul\":11511:11590   */\n      tag_471\n      tag_267\n      jump\t// in\n    tag_471:\n        /* \"#utility.yul\":11470:11592   */\n    tag_470:\n        /* \"#utility.yul\":11628:11634   */\n      dup2\n        /* \"#utility.yul\":11615:11635   */\n      calldataload\n        /* \"#utility.yul\":11653:11747   */\n      tag_472\n        /* \"#utility.yul\":11743:11746   */\n      dup5\n        /* \"#utility.yul\":11735:11741   */\n      dup3\n        /* \"#utility.yul\":11728:11732   */\n      0x20\n        /* \"#utility.yul\":11720:11726   */\n      dup7\n        /* \"#utility.yul\":11716:11733   */\n      add\n        /* \"#utility.yul\":11653:11747   */\n      tag_300\n      jump\t// in\n    tag_472:\n        /* \"#utility.yul\":11644:11747   */\n      swap2\n      pop\n        /* \"#utility.yul\":11460:11753   */\n      pop\n        /* \"#utility.yul\":11383:11753   */\n      swap3\n      swap2\n      pop\n      pop\n      jump\t// out\n        /* \"#utility.yul\":11759:13364   */\n    tag_64:\n        /* \"#utility.yul\":11945:11951   */\n      0x00\n        /* \"#utility.yul\":11953:11959   */\n      dup1\n        /* \"#utility.yul\":11961:11967   */\n      0x00\n        /* \"#utility.yul\":11969:11975   */\n      dup1\n        /* \"#utility.yul\":12018:12021   */\n      0x80\n        /* \"#utility.yul\":12006:12015   */\n      dup6\n        /* \"#utility.yul\":11997:12004   */\n      dup8\n        /* \"#utility.yul\":11993:12016   */\n      sub\n        /* \"#utility.yul\":11989:12022   */\n      slt\n        /* \"#utility.yul\":11986:12106   */\n      iszero\n      tag_474\n      jumpi\n        /* \"#utility.yul\":12025:12104   */\n      tag_475\n      tag_265\n      jump\t// in\n    tag_475:\n        /* \"#utility.yul\":11986:12106   */\n    tag_474:\n        /* \"#utility.yul\":12173:12174   */\n      0x00\n        /* \"#utility.yul\":12162:12171   */\n      dup6\n        /* \"#utility.yul\":12158:12175   */\n      add\n        /* \"#utility.yul\":12145:12176   */\n      calldataload\n        /* \"#utility.yul\":12203:12221   */\n      0xffffffffffffffff\n        /* \"#utility.yul\":12195:12201   */\n      dup2\n        /* \"#utility.yul\":12192:12222   */\n      gt\n        /* \"#utility.yul\":12189:12306   */\n      iszero\n      tag_476\n      jumpi\n        /* \"#utility.yul\":12225:12304   */\n      tag_477\n      tag_266\n      jump\t// in\n    tag_477:\n        /* \"#utility.yul\":12189:12306   */\n    tag_476:\n        /* \"#utility.yul\":12330:12408   */\n      tag_478\n        /* \"#utility.yul\":12400:12407   */\n      dup8\n        /* \"#utility.yul\":12391:12397   */\n      dup3\n        /* \"#utility.yul\":12380:12389   */\n      dup9\n        /* \"#utility.yul\":12376:12398   */\n      add\n        /* \"#utility.yul\":12330:12408   */\n      tag_298\n      jump\t// in\n    tag_478:\n        /* \"#utility.yul\":12320:12408   */\n      swap5\n      pop\n        /* \"#utility.yul\":12116:12418   */\n      pop\n        /* \"#utility.yul\":12485:12487   */\n      0x20\n        /* \"#utility.yul\":12474:12483   */\n      dup6\n        /* \"#utility.yul\":12470:12488   */\n      add\n        /* \"#utility.yul\":12457:12489   */\n      calldataload\n        /* \"#utility.yul\":12516:12534   */\n      0xffffffffffffffff\n        /* \"#utility.yul\":12508:12514   */\n      dup2\n        /* \"#utility.yul\":12505:12535   */\n      gt\n        /* \"#utility.yul\":12502:12619   */\n      iszero\n      tag_479\n      jumpi\n        /* \"#utility.yul\":12538:12617   */\n      tag_480\n      tag_266\n      jump\t// in\n    tag_480:\n        /* \"#utility.yul\":12502:12619   */\n    tag_479:\n        /* \"#utility.yul\":12643:12721   */\n      tag_481\n        /* \"#utility.yul\":12713:12720   */\n      dup8\n        /* \"#utility.yul\":12704:12710   */\n      dup3\n        /* \"#utility.yul\":12693:12702   */\n      dup9\n        /* \"#utility.yul\":12689:12711   */\n      add\n        /* \"#utility.yul\":12643:12721   */\n      tag_298\n      jump\t// in\n    tag_481:\n        /* \"#utility.yul\":12633:12721   */\n      swap4\n      pop\n        /* \"#utility.yul\":12428:12731   */\n      pop\n        /* \"#utility.yul\":12798:12800   */\n      0x40\n        /* \"#utility.yul\":12787:12796   */\n      dup6\n        /* \"#utility.yul\":12783:12801   */\n      add\n        /* \"#utility.yul\":12770:12802   */\n      calldataload\n        /* \"#utility.yul\":12829:12847   */\n      0xffffffffffffffff\n        /* \"#utility.yul\":12821:12827   */\n      dup2\n        /* \"#utility.yul\":12818:12848   */\n      gt\n        /* \"#utility.yul\":12815:12932   */\n      iszero\n      tag_482\n      jumpi\n        /* \"#utility.yul\":12851:12930   */\n      tag_483\n      tag_266\n      jump\t// in\n    tag_483:\n        /* \"#utility.yul\":12815:12932   */\n    tag_482:\n        /* \"#utility.yul\":12956:13034   */\n      tag_484\n        /* \"#utility.yul\":13026:13033   */\n      dup8\n        /* \"#utility.yul\":13017:13023   */\n      dup3\n        /* \"#utility.yul\":13006:13015   */\n      dup9\n        /* \"#utility.yul\":13002:13024   */\n      add\n        /* \"#utility.yul\":12956:13034   */\n      tag_301\n      jump\t// in\n    tag_484:\n        /* \"#utility.yul\":12946:13034   */\n      swap3\n      pop\n        /* \"#utility.yul\":12741:13044   */\n      pop\n        /* \"#utility.yul\":13111:13113   */\n      0x60\n        /* \"#utility.yul\":13100:13109   */\n      dup6\n        /* \"#utility.yul\":13096:13114   */\n      add\n        /* \"#utility.yul\":13083:13115   */\n      calldataload\n        /* \"#utility.yul\":13142:13160   */\n      0xffffffffffffffff\n        /* \"#utility.yul\":13134:13140   */\n      dup2\n        /* \"#utility.yul\":13131:13161   */\n      gt\n        /* \"#utility.yul\":13128:13245   */\n      iszero\n      tag_485\n      jumpi\n        /* \"#utility.yul\":13164:13243   */\n      tag_486\n      tag_266\n      jump\t// in\n    tag_486:\n        /* \"#utility.yul\":13128:13245   */\n    tag_485:\n        /* \"#utility.yul\":13269:13347   */\n      tag_487\n        /* \"#utility.yul\":13339:13346   */\n      dup8\n        /* \"#utility.yul\":13330:13336   */\n      dup3\n        /* \"#utility.yul\":13319:13328   */\n      dup9\n        /* \"#utility.yul\":13315:13337   */\n      add\n        /* \"#utility.yul\":13269:13347   */\n      tag_301\n      jump\t// in\n    tag_487:\n        /* \"#utility.yul\":13259:13347   */\n      swap2\n      pop\n        /* \"#utility.yul\":13054:13357   */\n      pop\n        /* \"#utility.yul\":11759:13364   */\n      swap3\n      swap6\n      swap2\n      swap5\n      pop\n      swap3\n      pop\n      jump\t// out\n        /* \"#utility.yul\":13370:13699   */\n    tag_68:\n        /* \"#utility.yul\":13429:13435   */\n      0x00\n        /* \"#utility.yul\":13478:13480   */\n      0x20\n        /* \"#utility.yul\":13466:13475   */\n      dup3\n        /* \"#utility.yul\":13457:13464   */\n      dup5\n        /* \"#utility.yul\":13453:13476   */\n      sub\n        /* \"#utility.yul\":13449:13481   */\n      slt\n        /* \"#utility.yul\":13446:13565   */\n      iszero\n      tag_489\n      jumpi\n        /* \"#utility.yul\":13484:13563   */\n      tag_490\n      tag_265\n      jump\t// in\n    tag_490:\n        /* \"#utility.yul\":13446:13565   */\n    tag_489:\n        /* \"#utility.yul\":13604:13605   */\n      0x00\n        /* \"#utility.yul\":13629:13682   */\n      tag_491\n        /* \"#utility.yul\":13674:13681   */\n      dup5\n        /* \"#utility.yul\":13665:13671   */\n      dup3\n        /* \"#utility.yul\":13654:13663   */\n      dup6\n        /* \"#utility.yul\":13650:13672   */\n      add\n        /* \"#utility.yul\":13629:13682   */\n      tag_296\n      jump\t// in\n    tag_491:\n        /* \"#utility.yul\":13619:13682   */\n      swap2\n      pop\n        /* \"#utility.yul\":13575:13692   */\n      pop\n        /* \"#utility.yul\":13370:13699   */\n      swap3\n      swap2\n      pop\n      pop\n      jump\t// out\n        /* \"#utility.yul\":13705:13874   */\n    tag_302:\n        /* \"#utility.yul\":13789:13800   */\n      0x00\n        /* \"#utility.yul\":13823:13829   */\n      dup3\n        /* \"#utility.yul\":13818:13821   */\n      dup3\n        /* \"#utility.yul\":13811:13830   */\n      mstore\n        /* \"#utility.yul\":13863:13867   */\n      0x20\n        /* \"#utility.yul\":13858:13861   */\n      dup3\n        /* \"#utility.yul\":13854:13868   */\n      add\n        /* \"#utility.yul\":13839:13868   */\n      swap1\n      pop\n        /* \"#utility.yul\":13705:13874   */\n      swap3\n      swap2\n      pop\n      pop\n      jump\t// out\n        /* \"#utility.yul\":13880:14050   */\n    tag_303:\n        /* \"#utility.yul\":14020:14042   */\n      0x436f6e7472616374206e6f7420616c6c6f776564000000000000000000000000\n        /* \"#utility.yul\":14016:14017   */\n      0x00\n        /* \"#utility.yul\":14008:14014   */\n      dup3\n        /* \"#utility.yul\":14004:14018   */\n      add\n        /* \"#utility.yul\":13997:14043   */\n      mstore\n        /* \"#utility.yul\":13880:14050   */\n      pop\n      jump\t// out\n        /* \"#utility.yul\":14056:14422   */\n    tag_304:\n        /* \"#utility.yul\":14198:14201   */\n      0x00\n        /* \"#utility.yul\":14219:14286   */\n      tag_495\n        /* \"#utility.yul\":14283:14285   */\n      0x14\n        /* \"#utility.yul\":14278:14281   */\n      dup4\n        /* \"#utility.yul\":14219:14286   */\n      tag_302\n      jump\t// in\n    tag_495:\n        /* \"#utility.yul\":14212:14286   */\n      swap2\n      pop\n        /* \"#utility.yul\":14295:14388   */\n      tag_496\n        /* \"#utility.yul\":14384:14387   */\n      dup3\n        /* \"#utility.yul\":14295:14388   */\n      tag_303\n      jump\t// in\n    tag_496:\n        /* \"#utility.yul\":14413:14415   */\n      0x20\n        /* \"#utility.yul\":14408:14411   */\n      dup3\n        /* \"#utility.yul\":14404:14416   */\n      add\n        /* \"#utility.yul\":14397:14416   */\n      swap1\n      pop\n        /* \"#utility.yul\":14056:14422   */\n      swap2\n      swap1\n      pop\n      jump\t// out\n        /* \"#utility.yul\":14428:14847   */\n    tag_75:\n        /* \"#utility.yul\":14594:14598   */\n      0x00\n        /* \"#utility.yul\":14632:14634   */\n      0x20\n        /* \"#utility.yul\":14621:14630   */\n      dup3\n        /* \"#utility.yul\":14617:14635   */\n      add\n        /* \"#utility.yul\":14609:14635   */\n      swap1\n      pop\n        /* \"#utility.yul\":14681:14690   */\n      dup2\n        /* \"#utility.yul\":14675:14679   */\n      dup2\n        /* \"#utility.yul\":14671:14691   */\n      sub\n        /* \"#utility.yul\":14667:14668   */\n      0x00\n        /* \"#utility.yul\":14656:14665   */\n      dup4\n        /* \"#utility.yul\":14652:14669   */\n      add\n        /* \"#utility.yul\":14645:14692   */\n      mstore\n        /* \"#utility.yul\":14709:14840   */\n      tag_498\n        /* \"#utility.yul\":14835:14839   */\n      dup2\n        /* \"#utility.yul\":14709:14840   */\n      tag_304\n      jump\t// in\n    tag_498:\n        /* \"#utility.yul\":14701:14840   */\n      swap1\n      pop\n        /* \"#utility.yul\":14428:14847   */\n      swap2\n      swap1\n      pop\n      jump\t// out\n        /* \"#utility.yul\":14853:15029   */\n    tag_305:\n        /* \"#utility.yul\":14993:15021   */\n      0x50726f787920636f6e7472616374206e6f7420616c6c6f776564000000000000\n        /* \"#utility.yul\":14989:14990   */\n      0x00\n        /* \"#utility.yul\":14981:14987   */\n      dup3\n        /* \"#utility.yul\":14977:14991   */\n      add\n        /* \"#utility.yul\":14970:15022   */\n      mstore\n        /* \"#utility.yul\":14853:15029   */\n      pop\n      jump\t// out\n        /* \"#utility.yul\":15035:15401   */\n    tag_306:\n        /* \"#utility.yul\":15177:15180   */\n      0x00\n        /* \"#utility.yul\":15198:15265   */\n      tag_501\n        /* \"#utility.yul\":15262:15264   */\n      0x1a\n        /* \"#utility.yul\":15257:15260   */\n      dup4\n        /* \"#utility.yul\":15198:15265   */\n      tag_302\n      jump\t// in\n    tag_501:\n        /* \"#utility.yul\":15191:15265   */\n      swap2\n      pop\n        /* \"#utility.yul\":15274:15367   */\n      tag_502\n        /* \"#utility.yul\":15363:15366   */\n      dup3\n        /* \"#utility.yul\":15274:15367   */\n      tag_305\n      jump\t// in\n    tag_502:\n        /* \"#utility.yul\":15392:15394   */\n      0x20\n        /* \"#utility.yul\":15387:15390   */\n      dup3\n        /* \"#utility.yul\":15383:15395   */\n      add\n        /* \"#utility.yul\":15376:15395   */\n      swap1\n      pop\n        /* \"#utility.yul\":15035:15401   */\n      swap2\n      swap1\n      pop\n      jump\t// out\n        /* \"#utility.yul\":15407:15826   */\n    tag_78:\n        /* \"#utility.yul\":15573:15577   */\n      0x00\n        /* \"#utility.yul\":15611:15613   */\n      0x20\n        /* \"#utility.yul\":15600:15609   */\n      dup3\n        /* \"#utility.yul\":15596:15614   */\n      add\n        /* \"#utility.yul\":15588:15614   */\n      swap1\n      pop\n        /* \"#utility.yul\":15660:15669   */\n      dup2\n        /* \"#utility.yul\":15654:15658   */\n      dup2\n        /* \"#utility.yul\":15650:15670   */\n      sub\n        /* \"#utility.yul\":15646:15647   */\n      0x00\n        /* \"#utility.yul\":15635:15644   */\n      dup4\n        /* \"#utility.yul\":15631:15648   */\n      add\n        /* \"#utility.yul\":15624:15671   */\n      mstore\n        /* \"#utility.yul\":15688:15819   */\n      tag_504\n        /* \"#utility.yul\":15814:15818   */\n      dup2\n        /* \"#utility.yul\":15688:15819   */\n      tag_306\n      jump\t// in\n    tag_504:\n        /* \"#utility.yul\":15680:15819   */\n      swap1\n      pop\n        /* \"#utility.yul\":15407:15826   */\n      swap2\n      swap1\n      pop\n      jump\t// out\n        /* \"#utility.yul\":15832:15991   */\n    tag_307:\n        /* \"#utility.yul\":15972:15983   */\n      0x4e6f20746f6b656e730000000000000000000000000000000000000000000000\n        /* \"#utility.yul\":15968:15969   */\n      0x00\n        /* \"#utility.yul\":15960:15966   */\n      dup3\n        /* \"#utility.yul\":15956:15970   */\n      add\n        /* \"#utility.yul\":15949:15984   */\n      mstore\n        /* \"#utility.yul\":15832:15991   */\n      pop\n      jump\t// out\n        /* \"#utility.yul\":15997:16362   */\n    tag_308:\n        /* \"#utility.yul\":16139:16142   */\n      0x00\n        /* \"#utility.yul\":16160:16226   */\n      tag_507\n        /* \"#utility.yul\":16224:16225   */\n      0x09\n        /* \"#utility.yul\":16219:16222   */\n      dup4\n        /* \"#utility.yul\":16160:16226   */\n      tag_302\n      jump\t// in\n    tag_507:\n        /* \"#utility.yul\":16153:16226   */\n      swap2\n      pop\n        /* \"#utility.yul\":16235:16328   */\n      tag_508\n        /* \"#utility.yul\":16324:16327   */\n      dup3\n        /* \"#utility.yul\":16235:16328   */\n      tag_307\n      jump\t// in\n    tag_508:\n        /* \"#utility.yul\":16353:16355   */\n      0x20\n        /* \"#utility.yul\":16348:16351   */\n      dup3\n        /* \"#utility.yul\":16344:16356   */\n      add\n        /* \"#utility.yul\":16337:16356   */\n      swap1\n      pop\n        /* \"#utility.yul\":15997:16362   */\n      swap2\n      swap1\n      pop\n      jump\t// out\n        /* \"#utility.yul\":16368:16787   */\n    tag_82:\n        /* \"#utility.yul\":16534:16538   */\n      0x00\n        /* \"#utility.yul\":16572:16574   */\n      0x20\n        /* \"#utility.yul\":16561:16570   */\n      dup3\n        /* \"#utility.yul\":16557:16575   */\n      add\n        /* \"#utility.yul\":16549:16575   */\n      swap1\n      pop\n        /* \"#utility.yul\":16621:16630   */\n      dup2\n        /* \"#utility.yul\":16615:16619   */\n      dup2\n        /* \"#utility.yul\":16611:16631   */\n      sub\n        /* \"#utility.yul\":16607:16608   */\n      0x00\n        /* \"#utility.yul\":16596:16605   */\n      dup4\n        /* \"#utility.yul\":16592:16609   */\n      add\n        /* \"#utility.yul\":16585:16632   */\n      mstore\n        /* \"#utility.yul\":16649:16780   */\n      tag_510\n        /* \"#utility.yul\":16775:16779   */\n      dup2\n        /* \"#utility.yul\":16649:16780   */\n      tag_308\n      jump\t// in\n    tag_510:\n        /* \"#utility.yul\":16641:16780   */\n      swap1\n      pop\n        /* \"#utility.yul\":16368:16787   */\n      swap2\n      swap1\n      pop\n      jump\t// out\n        /* \"#utility.yul\":16793:16973   */\n    tag_88:\n        /* \"#utility.yul\":16841:16918   */\n      0x4e487b7100000000000000000000000000000000000000000000000000000000\n        /* \"#utility.yul\":16838:16839   */\n      0x00\n        /* \"#utility.yul\":16831:16919   */\n      mstore\n        /* \"#utility.yul\":16938:16942   */\n      0x32\n        /* \"#utility.yul\":16935:16936   */\n      0x04\n        /* \"#utility.yul\":16928:16943   */\n      mstore\n        /* \"#utility.yul\":16962:16966   */\n      0x24\n        /* \"#utility.yul\":16959:16960   */\n      0x00\n        /* \"#utility.yul\":16952:16967   */\n      revert\n        /* \"#utility.yul\":16979:17146   */\n    tag_309:\n        /* \"#utility.yul\":17119:17138   */\n      0x4e6f74206120746f6b656e206f776e6572000000000000000000000000000000\n        /* \"#utility.yul\":17115:17116   */\n      0x00\n        /* \"#utility.yul\":17107:17113   */\n      dup3\n        /* \"#utility.yul\":17103:17117   */\n      add\n        /* \"#utility.yul\":17096:17139   */\n      mstore\n        /* \"#utility.yul\":16979:17146   */\n      pop\n      jump\t// out\n        /* \"#utility.yul\":17152:17518   */\n    tag_310:\n        /* \"#utility.yul\":17294:17297   */\n      0x00\n        /* \"#utility.yul\":17315:17382   */\n      tag_514\n        /* \"#utility.yul\":17379:17381   */\n      0x11\n        /* \"#utility.yul\":17374:17377   */\n      dup4\n        /* \"#utility.yul\":17315:17382   */\n      tag_302\n      jump\t// in\n    tag_514:\n        /* \"#utility.yul\":17308:17382   */\n      swap2\n      pop\n        /* \"#utility.yul\":17391:17484   */\n      tag_515\n        /* \"#utility.yul\":17480:17483   */\n      dup3\n        /* \"#utility.yul\":17391:17484   */\n      tag_309\n      jump\t// in\n    tag_515:\n        /* \"#utility.yul\":17509:17511   */\n      0x20\n        /* \"#utility.yul\":17504:17507   */\n      dup3\n        /* \"#utility.yul\":17500:17512   */\n      add\n        /* \"#utility.yul\":17493:17512   */\n      swap1\n      pop\n        /* \"#utility.yul\":17152:17518   */\n      swap2\n      swap1\n      pop\n      jump\t// out\n        /* \"#utility.yul\":17524:17943   */\n    tag_91:\n        /* \"#utility.yul\":17690:17694   */\n      0x00\n        /* \"#utility.yul\":17728:17730   */\n      0x20\n        /* \"#utility.yul\":17717:17726   */\n      dup3\n        /* \"#utility.yul\":17713:17731   */\n      add\n        /* \"#utility.yul\":17705:17731   */\n      swap1\n      pop\n        /* \"#utility.yul\":17777:17786   */\n      dup2\n        /* \"#utility.yul\":17771:17775   */\n      dup2\n        /* \"#utility.yul\":17767:17787   */\n      sub\n        /* \"#utility.yul\":17763:17764   */\n      0x00\n        /* \"#utility.yul\":17752:17761   */\n      dup4\n        /* \"#utility.yul\":17748:17765   */\n      add\n        /* \"#utility.yul\":17741:17788   */\n      mstore\n        /* \"#utility.yul\":17805:17936   */\n      tag_517\n        /* \"#utility.yul\":17931:17935   */\n      dup2\n        /* \"#utility.yul\":17805:17936   */\n      tag_310\n      jump\t// in\n    tag_517:\n        /* \"#utility.yul\":17797:17936   */\n      swap1\n      pop\n        /* \"#utility.yul\":17524:17943   */\n      swap2\n      swap1\n      pop\n      jump\t// out\n        /* \"#utility.yul\":17949:18129   */\n    tag_311:\n        /* \"#utility.yul\":17997:18074   */\n      0x4e487b7100000000000000000000000000000000000000000000000000000000\n        /* \"#utility.yul\":17994:17995   */\n      0x00\n        /* \"#utility.yul\":17987:18075   */\n      mstore\n        /* \"#utility.yul\":18094:18098   */\n      0x11\n        /* \"#utility.yul\":18091:18092   */\n      0x04\n        /* \"#utility.yul\":18084:18099   */\n      mstore\n        /* \"#utility.yul\":18118:18122   */\n      0x24\n        /* \"#utility.yul\":18115:18116   */\n      0x00\n        /* \"#utility.yul\":18108:18123   */\n      revert\n        /* \"#utility.yul\":18135:18326   */\n    tag_93:\n        /* \"#utility.yul\":18175:18178   */\n      0x00\n        /* \"#utility.yul\":18194:18214   */\n      tag_520\n        /* \"#utility.yul\":18212:18213   */\n      dup3\n        /* \"#utility.yul\":18194:18214   */\n      tag_276\n      jump\t// in\n    tag_520:\n        /* \"#utility.yul\":18189:18214   */\n      swap2\n      pop\n        /* \"#utility.yul\":18228:18248   */\n      tag_521\n        /* \"#utility.yul\":18246:18247   */\n      dup4\n        /* \"#utility.yul\":18228:18248   */\n      tag_276\n      jump\t// in\n    tag_521:\n        /* \"#utility.yul\":18223:18248   */\n      swap3\n      pop\n        /* \"#utility.yul\":18271:18272   */\n      dup3\n        /* \"#utility.yul\":18268:18269   */\n      dup3\n        /* \"#utility.yul\":18264:18273   */\n      add\n        /* \"#utility.yul\":18257:18273   */\n      swap1\n      pop\n        /* \"#utility.yul\":18292:18295   */\n      dup1\n        /* \"#utility.yul\":18289:18290   */\n      dup3\n        /* \"#utility.yul\":18286:18296   */\n      gt\n        /* \"#utility.yul\":18283:18319   */\n      iszero\n      tag_522\n      jumpi\n        /* \"#utility.yul\":18299:18317   */\n      tag_523\n      tag_311\n      jump\t// in\n    tag_523:\n        /* \"#utility.yul\":18283:18319   */\n    tag_522:\n        /* \"#utility.yul\":18135:18326   */\n      swap3\n      swap2\n      pop\n      pop\n      jump\t// out\n        /* \"#utility.yul\":18332:18503   */\n    tag_312:\n        /* \"#utility.yul\":18472:18495   */\n      0x4e6f742061626c6520746f20636c61696d207965740000000000000000000000\n        /* \"#utility.yul\":18468:18469   */\n      0x00\n        /* \"#utility.yul\":18460:18466   */\n      dup3\n        /* \"#utility.yul\":18456:18470   */\n      add\n        /* \"#utility.yul\":18449:18496   */\n      mstore\n        /* \"#utility.yul\":18332:18503   */\n      pop\n      jump\t// out\n        /* \"#utility.yul\":18509:18875   */\n    tag_313:\n        /* \"#utility.yul\":18651:18654   */\n      0x00\n        /* \"#utility.yul\":18672:18739   */\n      tag_526\n        /* \"#utility.yul\":18736:18738   */\n      0x15\n        /* \"#utility.yul\":18731:18734   */\n      dup4\n        /* \"#utility.yul\":18672:18739   */\n      tag_302\n      jump\t// in\n    tag_526:\n        /* \"#utility.yul\":18665:18739   */\n      swap2\n      pop\n        /* \"#utility.yul\":18748:18841   */\n      tag_527\n        /* \"#utility.yul\":18837:18840   */\n      dup3\n        /* \"#utility.yul\":18748:18841   */\n      tag_312\n      jump\t// in\n    tag_527:\n        /* \"#utility.yul\":18866:18868   */\n      0x20\n        /* \"#utility.yul\":18861:18864   */\n      dup3\n        /* \"#utility.yul\":18857:18869   */\n      add\n        /* \"#utility.yul\":18850:18869   */\n      swap1\n      pop\n        /* \"#utility.yul\":18509:18875   */\n      swap2\n      swap1\n      pop\n      jump\t// out\n        /* \"#utility.yul\":18881:19300   */\n    tag_96:\n        /* \"#utility.yul\":19047:19051   */\n      0x00\n        /* \"#utility.yul\":19085:19087   */\n      0x20\n        /* \"#utility.yul\":19074:19083   */\n      dup3\n        /* \"#utility.yul\":19070:19088   */\n      add\n        /* \"#utility.yul\":19062:19088   */\n      swap1\n      pop\n        /* \"#utility.yul\":19134:19143   */\n      dup2\n        /* \"#utility.yul\":19128:19132   */\n      dup2\n        /* \"#utility.yul\":19124:19144   */\n      sub\n        /* \"#utility.yul\":19120:19121   */\n      0x00\n        /* \"#utility.yul\":19109:19118   */\n      dup4\n        /* \"#utility.yul\":19105:19122   */\n      add\n        /* \"#utility.yul\":19098:19145   */\n      mstore\n        /* \"#utility.yul\":19162:19293   */\n      tag_529\n        /* \"#utility.yul\":19288:19292   */\n      dup2\n        /* \"#utility.yul\":19162:19293   */\n      tag_313\n      jump\t// in\n    tag_529:\n        /* \"#utility.yul\":19154:19293   */\n      swap1\n      pop\n        /* \"#utility.yul\":18881:19300   */\n      swap2\n      swap1\n      pop\n      jump\t// out\n        /* \"#utility.yul\":19306:19472   */\n    tag_314:\n        /* \"#utility.yul\":19446:19464   */\n      0x416c726561647920756e6c6f636b656400000000000000000000000000000000\n        /* \"#utility.yul\":19442:19443   */\n      0x00\n        /* \"#utility.yul\":19434:19440   */\n      dup3\n        /* \"#utility.yul\":19430:19444   */\n      add\n        /* \"#utility.yul\":19423:19465   */\n      mstore\n        /* \"#utility.yul\":19306:19472   */\n      pop\n      jump\t// out\n        /* \"#utility.yul\":19478:19844   */\n    tag_315:\n        /* \"#utility.yul\":19620:19623   */\n      0x00\n        /* \"#utility.yul\":19641:19708   */\n      tag_532\n        /* \"#utility.yul\":19705:19707   */\n      0x10\n        /* \"#utility.yul\":19700:19703   */\n      dup4\n        /* \"#utility.yul\":19641:19708   */\n      tag_302\n      jump\t// in\n    tag_532:\n        /* \"#utility.yul\":19634:19708   */\n      swap2\n      pop\n        /* \"#utility.yul\":19717:19810   */\n      tag_533\n        /* \"#utility.yul\":19806:19809   */\n      dup3\n        /* \"#utility.yul\":19717:19810   */\n      tag_314\n      jump\t// in\n    tag_533:\n        /* \"#utility.yul\":19835:19837   */\n      0x20\n        /* \"#utility.yul\":19830:19833   */\n      dup3\n        /* \"#utility.yul\":19826:19838   */\n      add\n        /* \"#utility.yul\":19819:19838   */\n      swap1\n      pop\n        /* \"#utility.yul\":19478:19844   */\n      swap2\n      swap1\n      pop\n      jump\t// out\n        /* \"#utility.yul\":19850:20269   */\n    tag_99:\n        /* \"#utility.yul\":20016:20020   */\n      0x00\n        /* \"#utility.yul\":20054:20056   */\n      0x20\n        /* \"#utility.yul\":20043:20052   */\n      dup3\n        /* \"#utility.yul\":20039:20057   */\n      add\n        /* \"#utility.yul\":20031:20057   */\n      swap1\n      pop\n        /* \"#utility.yul\":20103:20112   */\n      dup2\n        /* \"#utility.yul\":20097:20101   */\n      dup2\n        /* \"#utility.yul\":20093:20113   */\n      sub\n        /* \"#utility.yul\":20089:20090   */\n      0x00\n        /* \"#utility.yul\":20078:20087   */\n      dup4\n        /* \"#utility.yul\":20074:20091   */\n      add\n        /* \"#utility.yul\":20067:20114   */\n      mstore\n        /* \"#utility.yul\":20131:20262   */\n      tag_535\n        /* \"#utility.yul\":20257:20261   */\n      dup2\n        /* \"#utility.yul\":20131:20262   */\n      tag_315\n      jump\t// in\n    tag_535:\n        /* \"#utility.yul\":20123:20262   */\n      swap1\n      pop\n        /* \"#utility.yul\":19850:20269   */\n      swap2\n      swap1\n      pop\n      jump\t// out\n        /* \"#utility.yul\":20275:20469   */\n    tag_105:\n        /* \"#utility.yul\":20315:20319   */\n      0x00\n        /* \"#utility.yul\":20335:20355   */\n      tag_537\n        /* \"#utility.yul\":20353:20354   */\n      dup3\n        /* \"#utility.yul\":20335:20355   */\n      tag_276\n      jump\t// in\n    tag_537:\n        /* \"#utility.yul\":20330:20355   */\n      swap2\n      pop\n        /* \"#utility.yul\":20369:20389   */\n      tag_538\n        /* \"#utility.yul\":20387:20388   */\n      dup4\n        /* \"#utility.yul\":20369:20389   */\n      tag_276\n      jump\t// in\n    tag_538:\n        /* \"#utility.yul\":20364:20389   */\n      swap3\n      pop\n        /* \"#utility.yul\":20413:20414   */\n      dup3\n        /* \"#utility.yul\":20410:20411   */\n      dup3\n        /* \"#utility.yul\":20406:20415   */\n      sub\n        /* \"#utility.yul\":20398:20415   */\n      swap1\n      pop\n        /* \"#utility.yul\":20437:20438   */\n      dup2\n        /* \"#utility.yul\":20431:20435   */\n      dup2\n        /* \"#utility.yul\":20428:20439   */\n      gt\n        /* \"#utility.yul\":20425:20462   */\n      iszero\n      tag_539\n      jumpi\n        /* \"#utility.yul\":20442:20460   */\n      tag_540\n      tag_311\n      jump\t// in\n    tag_540:\n        /* \"#utility.yul\":20425:20462   */\n    tag_539:\n        /* \"#utility.yul\":20275:20469   */\n      swap3\n      swap2\n      pop\n      pop\n      jump\t// out\n        /* \"#utility.yul\":20475:20807   */\n    tag_107:\n        /* \"#utility.yul\":20596:20600   */\n      0x00\n        /* \"#utility.yul\":20634:20636   */\n      0x40\n        /* \"#utility.yul\":20623:20632   */\n      dup3\n        /* \"#utility.yul\":20619:20637   */\n      add\n        /* \"#utility.yul\":20611:20637   */\n      swap1\n      pop\n        /* \"#utility.yul\":20647:20718   */\n      tag_542\n        /* \"#utility.yul\":20715:20716   */\n      0x00\n        /* \"#utility.yul\":20704:20713   */\n      dup4\n        /* \"#utility.yul\":20700:20717   */\n      add\n        /* \"#utility.yul\":20691:20697   */\n      dup6\n        /* \"#utility.yul\":20647:20718   */\n      tag_278\n      jump\t// in\n    tag_542:\n        /* \"#utility.yul\":20728:20800   */\n      tag_543\n        /* \"#utility.yul\":20796:20798   */\n      0x20\n        /* \"#utility.yul\":20785:20794   */\n      dup4\n        /* \"#utility.yul\":20781:20799   */\n      add\n        /* \"#utility.yul\":20772:20778   */\n      dup5\n        /* \"#utility.yul\":20728:20800   */\n      tag_277\n      jump\t// in\n    tag_543:\n        /* \"#utility.yul\":20475:20807   */\n      swap4\n      swap3\n      pop\n      pop\n      pop\n      jump\t// out\n        /* \"#utility.yul\":20813:21046   */\n    tag_115:\n        /* \"#utility.yul\":20852:20855   */\n      0x00\n        /* \"#utility.yul\":20875:20899   */\n      tag_545\n        /* \"#utility.yul\":20893:20898   */\n      dup3\n        /* \"#utility.yul\":20875:20899   */\n      tag_276\n      jump\t// in\n    tag_545:\n        /* \"#utility.yul\":20866:20899   */\n      swap2\n      pop\n        /* \"#utility.yul\":20921:20987   */\n      0xffffffffffffffffffffffffffffffffffffffffffffffffffffffffffffffff\n        /* \"#utility.yul\":20914:20919   */\n      dup3\n        /* \"#utility.yul\":20911:20988   */\n      sub\n        /* \"#utility.yul\":20908:21011   */\n      tag_546\n      jumpi\n        /* \"#utility.yul\":20991:21009   */\n      tag_547\n      tag_311\n      jump\t// in\n    tag_547:\n        /* \"#utility.yul\":20908:21011   */\n    tag_546:\n        /* \"#utility.yul\":21038:21039   */\n      0x01\n        /* \"#utility.yul\":21031:21036   */\n      dup3\n        /* \"#utility.yul\":21027:21040   */\n      add\n        /* \"#utility.yul\":21020:21040   */\n      swap1\n      pop\n        /* \"#utility.yul\":20813:21046   */\n      swap2\n      swap1\n      pop\n      jump\t// out\n        /* \"#utility.yul\":21052:21236   */\n    tag_316:\n        /* \"#utility.yul\":21151:21162   */\n      0x00\n        /* \"#utility.yul\":21185:21191   */\n      dup3\n        /* \"#utility.yul\":21180:21183   */\n      dup3\n        /* \"#utility.yul\":21173:21192   */\n      mstore\n        /* \"#utility.yul\":21225:21229   */\n      0x20\n        /* \"#utility.yul\":21220:21223   */\n      dup3\n        /* \"#utility.yul\":21216:21230   */\n      add\n        /* \"#utility.yul\":21201:21230   */\n      swap1\n      pop\n        /* \"#utility.yul\":21052:21236   */\n      swap3\n      swap2\n      pop\n      pop\n      jump\t// out\n        /* \"#utility.yul\":21242:21359   */\n    tag_317:\n        /* \"#utility.yul\":21351:21352   */\n      0x00\n        /* \"#utility.yul\":21348:21349   */\n      dup1\n        /* \"#utility.yul\":21341:21353   */\n      revert\n        /* \"#utility.yul\":21365:21463   */\n    tag_318:\n        /* \"#utility.yul\":21449:21455   */\n      dup3\n        /* \"#utility.yul\":21444:21447   */\n      dup2\n        /* \"#utility.yul\":21439:21442   */\n      dup4\n        /* \"#utility.yul\":21426:21456   */\n      calldatacopy\n        /* \"#utility.yul\":21365:21463   */\n      pop\n      pop\n      pop\n      jump\t// out\n        /* \"#utility.yul\":21499:22036   */\n    tag_319:\n        /* \"#utility.yul\":21627:21630   */\n      0x00\n        /* \"#utility.yul\":21648:21734   */\n      tag_552\n        /* \"#utility.yul\":21727:21733   */\n      dup4\n        /* \"#utility.yul\":21722:21725   */\n      dup6\n        /* \"#utility.yul\":21648:21734   */\n      tag_316\n      jump\t// in\n    tag_552:\n        /* \"#utility.yul\":21641:21734   */\n      swap4\n      pop\n        /* \"#utility.yul\":21758:21824   */\n      0x07ffffffffffffffffffffffffffffffffffffffffffffffffffffffffffffff\n        /* \"#utility.yul\":21750:21756   */\n      dup4\n        /* \"#utility.yul\":21747:21825   */\n      gt\n        /* \"#utility.yul\":21744:21909   */\n      iszero\n      tag_553\n      jumpi\n        /* \"#utility.yul\":21828:21907   */\n      tag_554\n      tag_317\n      jump\t// in\n    tag_554:\n        /* \"#utility.yul\":21744:21909   */\n    tag_553:\n        /* \"#utility.yul\":21940:21944   */\n      0x20\n        /* \"#utility.yul\":21932:21938   */\n      dup4\n        /* \"#utility.yul\":21928:21945   */\n      mul\n        /* \"#utility.yul\":21918:21945   */\n      swap3\n      pop\n        /* \"#utility.yul\":21955:21998   */\n      tag_555\n        /* \"#utility.yul\":21991:21997   */\n      dup4\n        /* \"#utility.yul\":21986:21989   */\n      dup6\n        /* \"#utility.yul\":21979:21984   */\n      dup5\n        /* \"#utility.yul\":21955:21998   */\n      tag_318\n      jump\t// in\n    tag_555:\n        /* \"#utility.yul\":22023:22029   */\n      dup3\n        /* \"#utility.yul\":22018:22021   */\n      dup5\n        /* \"#utility.yul\":22014:22030   */\n      add\n        /* \"#utility.yul\":22007:22030   */\n      swap1\n      pop\n        /* \"#utility.yul\":21499:22036   */\n      swap4\n      swap3\n      pop\n      pop\n      pop\n      jump\t// out\n        /* \"#utility.yul\":22042:22545   */\n    tag_117:\n        /* \"#utility.yul\":22223:22227   */\n      0x00\n        /* \"#utility.yul\":22261:22263   */\n      0x40\n        /* \"#utility.yul\":22250:22259   */\n      dup3\n        /* \"#utility.yul\":22246:22264   */\n      add\n        /* \"#utility.yul\":22238:22264   */\n      swap1\n      pop\n        /* \"#utility.yul\":22310:22319   */\n      dup2\n        /* \"#utility.yul\":22304:22308   */\n      dup2\n        /* \"#utility.yul\":22300:22320   */\n      sub\n        /* \"#utility.yul\":22296:22297   */\n      0x00\n        /* \"#utility.yul\":22285:22294   */\n      dup4\n        /* \"#utility.yul\":22281:22298   */\n      add\n        /* \"#utility.yul\":22274:22321   */\n      mstore\n        /* \"#utility.yul\":22338:22456   */\n      tag_557\n        /* \"#utility.yul\":22451:22455   */\n      dup2\n        /* \"#utility.yul\":22442:22448   */\n      dup6\n        /* \"#utility.yul\":22434:22440   */\n      dup8\n        /* \"#utility.yul\":22338:22456   */\n      tag_319\n      jump\t// in\n    tag_557:\n        /* \"#utility.yul\":22330:22456   */\n      swap1\n      pop\n        /* \"#utility.yul\":22466:22538   */\n      tag_558\n        /* \"#utility.yul\":22534:22536   */\n      0x20\n        /* \"#utility.yul\":22523:22532   */\n      dup4\n        /* \"#utility.yul\":22519:22537   */\n      add\n        /* \"#utility.yul\":22510:22516   */\n      dup5\n        /* \"#utility.yul\":22466:22538   */\n      tag_277\n      jump\t// in\n    tag_558:\n        /* \"#utility.yul\":22042:22545   */\n      swap5\n      swap4\n      pop\n      pop\n      pop\n      pop\n      jump\t// out\n        /* \"#utility.yul\":22551:22732   */\n    tag_320:\n        /* \"#utility.yul\":22691:22724   */\n      0x5265656e7472616e637947756172643a207265656e7472616e742063616c6c00\n        /* \"#utility.yul\":22687:22688   */\n      0x00\n        /* \"#utility.yul\":22679:22685   */\n      dup3\n        /* \"#utility.yul\":22675:22689   */\n      add\n        /* \"#utility.yul\":22668:22725   */\n      mstore\n        /* \"#utility.yul\":22551:22732   */\n      pop\n      jump\t// out\n        /* \"#utility.yul\":22738:23104   */\n    tag_321:\n        /* \"#utility.yul\":22880:22883   */\n      0x00\n        /* \"#utility.yul\":22901:22968   */\n      tag_561\n        /* \"#utility.yul\":22965:22967   */\n      0x1f\n        /* \"#utility.yul\":22960:22963   */\n      dup4\n        /* \"#utility.yul\":22901:22968   */\n      tag_302\n      jump\t// in\n    tag_561:\n        /* \"#utility.yul\":22894:22968   */\n      swap2\n      pop\n        /* \"#utility.yul\":22977:23070   */\n      tag_562\n        /* \"#utility.yul\":23066:23069   */\n      dup3\n        /* \"#utility.yul\":22977:23070   */\n      tag_320\n      jump\t// in\n    tag_562:\n        /* \"#utility.yul\":23095:23097   */\n      0x20\n        /* \"#utility.yul\":23090:23093   */\n      dup3\n        /* \"#utility.yul\":23086:23098   */\n      add\n        /* \"#utility.yul\":23079:23098   */\n      swap1\n      pop\n        /* \"#utility.yul\":22738:23104   */\n      swap2\n      swap1\n      pop\n      jump\t// out\n        /* \"#utility.yul\":23110:23529   */\n    tag_127:\n        /* \"#utility.yul\":23276:23280   */\n      0x00\n        /* \"#utility.yul\":23314:23316   */\n      0x20\n        /* \"#utility.yul\":23303:23312   */\n      dup3\n        /* \"#utility.yul\":23299:23317   */\n      add\n        /* \"#utility.yul\":23291:23317   */\n      swap1\n      pop\n        /* \"#utility.yul\":23363:23372   */\n      dup2\n        /* \"#utility.yul\":23357:23361   */\n      dup2\n        /* \"#utility.yul\":23353:23373   */\n      sub\n        /* \"#utility.yul\":23349:23350   */\n      0x00\n        /* \"#utility.yul\":23338:23347   */\n      dup4\n        /* \"#utility.yul\":23334:23351   */\n      add\n        /* \"#utility.yul\":23327:23374   */\n      mstore\n        /* \"#utility.yul\":23391:23522   */\n      tag_564\n        /* \"#utility.yul\":23517:23521   */\n      dup2\n        /* \"#utility.yul\":23391:23522   */\n      tag_321\n      jump\t// in\n    tag_564:\n        /* \"#utility.yul\":23383:23522   */\n      swap1\n      pop\n        /* \"#utility.yul\":23110:23529   */\n      swap2\n      swap1\n      pop\n      jump\t// out\n        /* \"#utility.yul\":23535:23761   */\n    tag_322:\n        /* \"#utility.yul\":23675:23709   */\n      0x5374616b696e673a205265676973746572205374616b696e6720627920616464\n        /* \"#utility.yul\":23671:23672   */\n      0x00\n        /* \"#utility.yul\":23663:23669   */\n      dup3\n        /* \"#utility.yul\":23659:23673   */\n      add\n        /* \"#utility.yul\":23652:23710   */\n      mstore\n        /* \"#utility.yul\":23744:23753   */\n      0x5374616b696e6700000000000000000000000000000000000000000000000000\n        /* \"#utility.yul\":23739:23741   */\n      0x20\n        /* \"#utility.yul\":23731:23737   */\n      dup3\n        /* \"#utility.yul\":23727:23742   */\n      add\n        /* \"#utility.yul\":23720:23754   */\n      mstore\n        /* \"#utility.yul\":23535:23761   */\n      pop\n      jump\t// out\n        /* \"#utility.yul\":23767:24133   */\n    tag_323:\n        /* \"#utility.yul\":23909:23912   */\n      0x00\n        /* \"#utility.yul\":23930:23997   */\n      tag_567\n        /* \"#utility.yul\":23994:23996   */\n      0x27\n        /* \"#utility.yul\":23989:23992   */\n      dup4\n        /* \"#utility.yul\":23930:23997   */\n      tag_302\n      jump\t// in\n    tag_567:\n        /* \"#utility.yul\":23923:23997   */\n      swap2\n      pop\n        /* \"#utility.yul\":24006:24099   */\n      tag_568\n        /* \"#utility.yul\":24095:24098   */\n      dup3\n        /* \"#utility.yul\":24006:24099   */\n      tag_322\n      jump\t// in\n    tag_568:\n        /* \"#utility.yul\":24124:24126   */\n      0x40\n        /* \"#utility.yul\":24119:24122   */\n      dup3\n        /* \"#utility.yul\":24115:24127   */\n      add\n        /* \"#utility.yul\":24108:24127   */\n      swap1\n      pop\n        /* \"#utility.yul\":23767:24133   */\n      swap2\n      swap1\n      pop\n      jump\t// out\n        /* \"#utility.yul\":24139:24558   */\n    tag_131:\n        /* \"#utility.yul\":24305:24309   */\n      0x00\n        /* \"#utility.yul\":24343:24345   */\n      0x20\n        /* \"#utility.yul\":24332:24341   */\n      dup3\n        /* \"#utility.yul\":24328:24346   */\n      add\n        /* \"#utility.yul\":24320:24346   */\n      swap1\n      pop\n        /* \"#utility.yul\":24392:24401   */\n      dup2\n        /* \"#utility.yul\":24386:24390   */\n      dup2\n        /* \"#utility.yul\":24382:24402   */\n      sub\n        /* \"#utility.yul\":24378:24379   */\n      0x00\n        /* \"#utility.yul\":24367:24376   */\n      dup4\n        /* \"#utility.yul\":24363:24380   */\n      add\n        /* \"#utility.yul\":24356:24403   */\n      mstore\n        /* \"#utility.yul\":24420:24551   */\n      tag_570\n        /* \"#utility.yul\":24546:24550   */\n      dup2\n        /* \"#utility.yul\":24420:24551   */\n      tag_323\n      jump\t// in\n    tag_570:\n        /* \"#utility.yul\":24412:24551   */\n      swap1\n      pop\n        /* \"#utility.yul\":24139:24558   */\n      swap2\n      swap1\n      pop\n      jump\t// out\n        /* \"#utility.yul\":24564:24707   */\n    tag_324:\n        /* \"#utility.yul\":24621:24626   */\n      0x00\n        /* \"#utility.yul\":24652:24658   */\n      dup2\n        /* \"#utility.yul\":24646:24659   */\n      mload\n        /* \"#utility.yul\":24637:24659   */\n      swap1\n      pop\n        /* \"#utility.yul\":24668:24701   */\n      tag_572\n        /* \"#utility.yul\":24695:24700   */\n      dup2\n        /* \"#utility.yul\":24668:24701   */\n      tag_295\n      jump\t// in\n    tag_572:\n        /* \"#utility.yul\":24564:24707   */\n      swap3\n      swap2\n      pop\n      pop\n      jump\t// out\n        /* \"#utility.yul\":24713:25064   */\n    tag_143:\n        /* \"#utility.yul\":24783:24789   */\n      0x00\n        /* \"#utility.yul\":24832:24834   */\n      0x20\n        /* \"#utility.yul\":24820:24829   */\n      dup3\n        /* \"#utility.yul\":24811:24818   */\n      dup5\n        /* \"#utility.yul\":24807:24830   */\n      sub\n        /* \"#utility.yul\":24803:24835   */\n      slt\n        /* \"#utility.yul\":24800:24919   */\n      iszero\n      tag_574\n      jumpi\n        /* \"#utility.yul\":24838:24917   */\n      tag_575\n      tag_265\n      jump\t// in\n    tag_575:\n        /* \"#utility.yul\":24800:24919   */\n    tag_574:\n        /* \"#utility.yul\":24958:24959   */\n      0x00\n        /* \"#utility.yul\":24983:25047   */\n      tag_576\n        /* \"#utility.yul\":25039:25046   */\n      dup5\n        /* \"#utility.yul\":25030:25036   */\n      dup3\n        /* \"#utility.yul\":25019:25028   */\n      dup6\n        /* \"#utility.yul\":25015:25037   */\n      add\n        /* \"#utility.yul\":24983:25047   */\n      tag_324\n      jump\t// in\n    tag_576:\n        /* \"#utility.yul\":24973:25047   */\n      swap2\n      pop\n        /* \"#utility.yul\":24929:25057   */\n      pop\n        /* \"#utility.yul\":24713:25064   */\n      swap3\n      swap2\n      pop\n      pop\n      jump\t// out\n        /* \"#utility.yul\":25070:25245   */\n    tag_325:\n        /* \"#utility.yul\":25210:25237   */\n      0x596f7520646f6e277420686f6c64207468697320746f6b656e00000000000000\n        /* \"#utility.yul\":25206:25207   */\n      0x00\n        /* \"#utility.yul\":25198:25204   */\n      dup3\n        /* \"#utility.yul\":25194:25208   */\n      add\n        /* \"#utility.yul\":25187:25238   */\n      mstore\n        /* \"#utility.yul\":25070:25245   */\n      pop\n      jump\t// out\n        /* \"#utility.yul\":25251:25617   */\n    tag_326:\n        /* \"#utility.yul\":25393:25396   */\n      0x00\n        /* \"#utility.yul\":25414:25481   */\n      tag_579\n        /* \"#utility.yul\":25478:25480   */\n      0x19\n        /* \"#utility.yul\":25473:25476   */\n      dup4\n        /* \"#utility.yul\":25414:25481   */\n      tag_302\n      jump\t// in\n    tag_579:\n        /* \"#utility.yul\":25407:25481   */\n      swap2\n      pop\n        /* \"#utility.yul\":25490:25583   */\n      tag_580\n        /* \"#utility.yul\":25579:25582   */\n      dup3\n        /* \"#utility.yul\":25490:25583   */\n      tag_325\n      jump\t// in\n    tag_580:\n        /* \"#utility.yul\":25608:25610   */\n      0x20\n        /* \"#utility.yul\":25603:25606   */\n      dup3\n        /* \"#utility.yul\":25599:25611   */\n      add\n        /* \"#utility.yul\":25592:25611   */\n      swap1\n      pop\n        /* \"#utility.yul\":25251:25617   */\n      swap2\n      swap1\n      pop\n      jump\t// out\n        /* \"#utility.yul\":25623:26042   */\n    tag_146:\n        /* \"#utility.yul\":25789:25793   */\n      0x00\n        /* \"#utility.yul\":25827:25829   */\n      0x20\n        /* \"#utility.yul\":25816:25825   */\n      dup3\n        /* \"#utility.yul\":25812:25830   */\n      add\n        /* \"#utility.yul\":25804:25830   */\n      swap1\n      pop\n        /* \"#utility.yul\":25876:25885   */\n      dup2\n        /* \"#utility.yul\":25870:25874   */\n      dup2\n        /* \"#utility.yul\":25866:25886   */\n      sub\n        /* \"#utility.yul\":25862:25863   */\n      0x00\n        /* \"#utility.yul\":25851:25860   */\n      dup4\n        /* \"#utility.yul\":25847:25864   */\n      add\n        /* \"#utility.yul\":25840:25887   */\n      mstore\n        /* \"#utility.yul\":25904:26035   */\n      tag_582\n        /* \"#utility.yul\":26030:26034   */\n      dup2\n        /* \"#utility.yul\":25904:26035   */\n      tag_326\n      jump\t// in\n    tag_582:\n        /* \"#utility.yul\":25896:26035   */\n      swap1\n      pop\n        /* \"#utility.yul\":25623:26042   */\n      swap2\n      swap1\n      pop\n      jump\t// out\n        /* \"#utility.yul\":26048:26490   */\n    tag_150:\n        /* \"#utility.yul\":26197:26201   */\n      0x00\n        /* \"#utility.yul\":26235:26237   */\n      0x60\n        /* \"#utility.yul\":26224:26233   */\n      dup3\n        /* \"#utility.yul\":26220:26238   */\n      add\n        /* \"#utility.yul\":26212:26238   */\n      swap1\n      pop\n        /* \"#utility.yul\":26248:26319   */\n      tag_584\n        /* \"#utility.yul\":26316:26317   */\n      0x00\n        /* \"#utility.yul\":26305:26314   */\n      dup4\n        /* \"#utility.yul\":26301:26318   */\n      add\n        /* \"#utility.yul\":26292:26298   */\n      dup7\n        /* \"#utility.yul\":26248:26319   */\n      tag_278\n      jump\t// in\n    tag_584:\n        /* \"#utility.yul\":26329:26401   */\n      tag_585\n        /* \"#utility.yul\":26397:26399   */\n      0x20\n        /* \"#utility.yul\":26386:26395   */\n      dup4\n        /* \"#utility.yul\":26382:26400   */\n      add\n        /* \"#utility.yul\":26373:26379   */\n      dup6\n        /* \"#utility.yul\":26329:26401   */\n      tag_278\n      jump\t// in\n    tag_585:\n        /* \"#utility.yul\":26411:26483   */\n      tag_586\n        /* \"#utility.yul\":26479:26481   */\n      0x40\n        /* \"#utility.yul\":26468:26477   */\n      dup4\n        /* \"#utility.yul\":26464:26482   */\n      add\n        /* \"#utility.yul\":26455:26461   */\n      dup5\n        /* \"#utility.yul\":26411:26483   */\n      tag_277\n      jump\t// in\n    tag_586:\n        /* \"#utility.yul\":26048:26490   */\n      swap5\n      swap4\n      pop\n      pop\n      pop\n      pop\n      jump\t// out\n        /* \"#utility.yul\":26496:26889   */\n    tag_158:\n        /* \"#utility.yul\":26649:26653   */\n      0x00\n        /* \"#utility.yul\":26687:26689   */\n      0x20\n        /* \"#utility.yul\":26676:26685   */\n      dup3\n        /* \"#utility.yul\":26672:26690   */\n      add\n        /* \"#utility.yul\":26664:26690   */\n      swap1\n      pop\n        /* \"#utility.yul\":26736:26745   */\n      dup2\n        /* \"#utility.yul\":26730:26734   */\n      dup2\n        /* \"#utility.yul\":26726:26746   */\n      sub\n        /* \"#utility.yul\":26722:26723   */\n      0x00\n        /* \"#utility.yul\":26711:26720   */\n      dup4\n        /* \"#utility.yul\":26707:26724   */\n      add\n        /* \"#utility.yul\":26700:26747   */\n      mstore\n        /* \"#utility.yul\":26764:26882   */\n      tag_588\n        /* \"#utility.yul\":26877:26881   */\n      dup2\n        /* \"#utility.yul\":26868:26874   */\n      dup5\n        /* \"#utility.yul\":26860:26866   */\n      dup7\n        /* \"#utility.yul\":26764:26882   */\n      tag_319\n      jump\t// in\n    tag_588:\n        /* \"#utility.yul\":26756:26882   */\n      swap1\n      pop\n        /* \"#utility.yul\":26496:26889   */\n      swap4\n      swap3\n      pop\n      pop\n      pop\n      jump\t// out\n        /* \"#utility.yul\":26895:27067   */\n    tag_327:\n        /* \"#utility.yul\":27035:27059   */\n      0x4e6f742061626c6520746f20756e6c6f636b2079657400000000000000000000\n        /* \"#utility.yul\":27031:27032   */\n      0x00\n        /* \"#utility.yul\":27023:27029   */\n      dup3\n        /* \"#utility.yul\":27019:27033   */\n      add\n        /* \"#utility.yul\":27012:27060   */\n      mstore\n        /* \"#utility.yul\":26895:27067   */\n      pop\n      jump\t// out\n        /* \"#utility.yul\":27073:27439   */\n    tag_328:\n        /* \"#utility.yul\":27215:27218   */\n      0x00\n        /* \"#utility.yul\":27236:27303   */\n      tag_591\n        /* \"#utility.yul\":27300:27302   */\n      0x16\n        /* \"#utility.yul\":27295:27298   */\n      dup4\n        /* \"#utility.yul\":27236:27303   */\n      tag_302\n      jump\t// in\n    tag_591:\n        /* \"#utility.yul\":27229:27303   */\n      swap2\n      pop\n        /* \"#utility.yul\":27312:27405   */\n      tag_592\n        /* \"#utility.yul\":27401:27404   */\n      dup3\n        /* \"#utility.yul\":27312:27405   */\n      tag_327\n      jump\t// in\n    tag_592:\n        /* \"#utility.yul\":27430:27432   */\n      0x20\n        /* \"#utility.yul\":27425:27428   */\n      dup3\n        /* \"#utility.yul\":27421:27433   */\n      add\n        /* \"#utility.yul\":27414:27433   */\n      swap1\n      pop\n        /* \"#utility.yul\":27073:27439   */\n      swap2\n      swap1\n      pop\n      jump\t// out\n        /* \"#utility.yul\":27445:27864   */\n    tag_188:\n        /* \"#utility.yul\":27611:27615   */\n      0x00\n        /* \"#utility.yul\":27649:27651   */\n      0x20\n        /* \"#utility.yul\":27638:27647   */\n      dup3\n        /* \"#utility.yul\":27634:27652   */\n      add\n        /* \"#utility.yul\":27626:27652   */\n      swap1\n      pop\n        /* \"#utility.yul\":27698:27707   */\n      dup2\n        /* \"#utility.yul\":27692:27696   */\n      dup2\n        /* \"#utility.yul\":27688:27708   */\n      sub\n        /* \"#utility.yul\":27684:27685   */\n      0x00\n        /* \"#utility.yul\":27673:27682   */\n      dup4\n        /* \"#utility.yul\":27669:27686   */\n      add\n        /* \"#utility.yul\":27662:27709   */\n      mstore\n        /* \"#utility.yul\":27726:27857   */\n      tag_594\n        /* \"#utility.yul\":27852:27856   */\n      dup2\n        /* \"#utility.yul\":27726:27857   */\n      tag_328\n      jump\t// in\n    tag_594:\n        /* \"#utility.yul\":27718:27857   */\n      swap1\n      pop\n        /* \"#utility.yul\":27445:27864   */\n      swap2\n      swap1\n      pop\n      jump\t// out\n        /* \"#utility.yul\":27870:28040   */\n    tag_329:\n        /* \"#utility.yul\":28010:28032   */\n      0x496e76616c6964206c6f636b20706572696f642e000000000000000000000000\n        /* \"#utility.yul\":28006:28007   */\n      0x00\n        /* \"#utility.yul\":27998:28004   */\n      dup3\n        /* \"#utility.yul\":27994:28008   */\n      add\n        /* \"#utility.yul\":27987:28033   */\n      mstore\n        /* \"#utility.yul\":27870:28040   */\n      pop\n      jump\t// out\n        /* \"#utility.yul\":28046:28412   */\n    tag_330:\n        /* \"#utility.yul\":28188:28191   */\n      0x00\n        /* \"#utility.yul\":28209:28276   */\n      tag_597\n        /* \"#utility.yul\":28273:28275   */\n      0x14\n        /* \"#utility.yul\":28268:28271   */\n      dup4\n        /* \"#utility.yul\":28209:28276   */\n      tag_302\n      jump\t// in\n    tag_597:\n        /* \"#utility.yul\":28202:28276   */\n      swap2\n      pop\n        /* \"#utility.yul\":28285:28378   */\n      tag_598\n        /* \"#utility.yul\":28374:28377   */\n      dup3\n        /* \"#utility.yul\":28285:28378   */\n      tag_329\n      jump\t// in\n    tag_598:\n        /* \"#utility.yul\":28403:28405   */\n      0x20\n        /* \"#utility.yul\":28398:28401   */\n      dup3\n        /* \"#utility.yul\":28394:28406   */\n      add\n        /* \"#utility.yul\":28387:28406   */\n      swap1\n      pop\n        /* \"#utility.yul\":28046:28412   */\n      swap2\n      swap1\n      pop\n      jump\t// out\n        /* \"#utility.yul\":28418:28837   */\n    tag_217:\n        /* \"#utility.yul\":28584:28588   */\n      0x00\n        /* \"#utility.yul\":28622:28624   */\n      0x20\n        /* \"#utility.yul\":28611:28620   */\n      dup3\n        /* \"#utility.yul\":28607:28625   */\n      add\n        /* \"#utility.yul\":28599:28625   */\n      swap1\n      pop\n        /* \"#utility.yul\":28671:28680   */\n      dup2\n        /* \"#utility.yul\":28665:28669   */\n      dup2\n        /* \"#utility.yul\":28661:28681   */\n      sub\n        /* \"#utility.yul\":28657:28658   */\n      0x00\n        /* \"#utility.yul\":28646:28655   */\n      dup4\n        /* \"#utility.yul\":28642:28659   */\n      add\n        /* \"#utility.yul\":28635:28682   */\n      mstore\n        /* \"#utility.yul\":28699:28830   */\n      tag_600\n        /* \"#utility.yul\":28825:28829   */\n      dup2\n        /* \"#utility.yul\":28699:28830   */\n      tag_330\n      jump\t// in\n    tag_600:\n        /* \"#utility.yul\":28691:28830   */\n      swap1\n      pop\n        /* \"#utility.yul\":28418:28837   */\n      swap2\n      swap1\n      pop\n      jump\t// out\n        /* \"#utility.yul\":28843:29068   */\n    tag_331:\n        /* \"#utility.yul\":28983:29017   */\n      0x4f776e61626c653a206e6577206f776e657220697320746865207a65726f2061\n        /* \"#utility.yul\":28979:28980   */\n      0x00\n        /* \"#utility.yul\":28971:28977   */\n      dup3\n        /* \"#utility.yul\":28967:28981   */\n      add\n        /* \"#utility.yul\":28960:29018   */\n      mstore\n        /* \"#utility.yul\":29052:29060   */\n      0x6464726573730000000000000000000000000000000000000000000000000000\n        /* \"#utility.yul\":29047:29049   */\n      0x20\n        /* \"#utility.yul\":29039:29045   */\n      dup3\n        /* \"#utility.yul\":29035:29050   */\n      add\n        /* \"#utility.yul\":29028:29061   */\n      mstore\n        /* \"#utility.yul\":28843:29068   */\n      pop\n      jump\t// out\n        /* \"#utility.yul\":29074:29440   */\n    tag_332:\n        /* \"#utility.yul\":29216:29219   */\n      0x00\n        /* \"#utility.yul\":29237:29304   */\n      tag_603\n        /* \"#utility.yul\":29301:29303   */\n      0x26\n        /* \"#utility.yul\":29296:29299   */\n      dup4\n        /* \"#utility.yul\":29237:29304   */\n      tag_302\n      jump\t// in\n    tag_603:\n        /* \"#utility.yul\":29230:29304   */\n      swap2\n      pop\n        /* \"#utility.yul\":29313:29406   */\n      tag_604\n        /* \"#utility.yul\":29402:29405   */\n      dup3\n        /* \"#utility.yul\":29313:29406   */\n      tag_331\n      jump\t// in\n    tag_604:\n        /* \"#utility.yul\":29431:29433   */\n      0x40\n        /* \"#utility.yul\":29426:29429   */\n      dup3\n        /* \"#utility.yul\":29422:29434   */\n      add\n        /* \"#utility.yul\":29415:29434   */\n      swap1\n      pop\n        /* \"#utility.yul\":29074:29440   */\n      swap2\n      swap1\n      pop\n      jump\t// out\n        /* \"#utility.yul\":29446:29865   */\n    tag_243:\n        /* \"#utility.yul\":29612:29616   */\n      0x00\n        /* \"#utility.yul\":29650:29652   */\n      0x20\n        /* \"#utility.yul\":29639:29648   */\n      dup3\n        /* \"#utility.yul\":29635:29653   */\n      add\n        /* \"#utility.yul\":29627:29653   */\n      swap1\n      pop\n        /* \"#utility.yul\":29699:29708   */\n      dup2\n        /* \"#utility.yul\":29693:29697   */\n      dup2\n        /* \"#utility.yul\":29689:29709   */\n      sub\n        /* \"#utility.yul\":29685:29686   */\n      0x00\n        /* \"#utility.yul\":29674:29683   */\n      dup4\n        /* \"#utility.yul\":29670:29687   */\n      add\n        /* \"#utility.yul\":29663:29710   */\n      mstore\n        /* \"#utility.yul\":29727:29858   */\n      tag_606\n        /* \"#utility.yul\":29853:29857   */\n      dup2\n        /* \"#utility.yul\":29727:29858   */\n      tag_332\n      jump\t// in\n    tag_606:\n        /* \"#utility.yul\":29719:29858   */\n      swap1\n      pop\n        /* \"#utility.yul\":29446:29865   */\n      swap2\n      swap1\n      pop\n      jump\t// out\n        /* \"#utility.yul\":29871:30219   */\n    tag_252:\n        /* \"#utility.yul\":29911:29918   */\n      0x00\n        /* \"#utility.yul\":29934:29954   */\n      tag_608\n        /* \"#utility.yul\":29952:29953   */\n      dup3\n        /* \"#utility.yul\":29934:29954   */\n      tag_276\n      jump\t// in\n    tag_608:\n        /* \"#utility.yul\":29929:29954   */\n      swap2\n      pop\n        /* \"#utility.yul\":29968:29988   */\n      tag_609\n        /* \"#utility.yul\":29986:29987   */\n      dup4\n        /* \"#utility.yul\":29968:29988   */\n      tag_276\n      jump\t// in\n    tag_609:\n        /* \"#utility.yul\":29963:29988   */\n      swap3\n      pop\n        /* \"#utility.yul\":30156:30157   */\n      dup2\n        /* \"#utility.yul\":30088:30154   */\n      0xffffffffffffffffffffffffffffffffffffffffffffffffffffffffffffffff\n        /* \"#utility.yul\":30084:30158   */\n      div\n        /* \"#utility.yul\":30081:30082   */\n      dup4\n        /* \"#utility.yul\":30078:30159   */\n      gt\n        /* \"#utility.yul\":30073:30074   */\n      dup3\n        /* \"#utility.yul\":30066:30075   */\n      iszero\n        /* \"#utility.yul\":30059:30076   */\n      iszero\n        /* \"#utility.yul\":30055:30160   */\n      and\n        /* \"#utility.yul\":30052:30183   */\n      iszero\n      tag_610\n      jumpi\n        /* \"#utility.yul\":30163:30181   */\n      tag_611\n      tag_311\n      jump\t// in\n    tag_611:\n        /* \"#utility.yul\":30052:30183   */\n    tag_610:\n        /* \"#utility.yul\":30211:30212   */\n      dup3\n        /* \"#utility.yul\":30208:30209   */\n      dup3\n        /* \"#utility.yul\":30204:30213   */\n      mul\n        /* \"#utility.yul\":30193:30213   */\n      swap1\n      pop\n        /* \"#utility.yul\":29871:30219   */\n      swap3\n      swap2\n      pop\n      pop\n      jump\t// out\n        /* \"#utility.yul\":30225:30405   */\n    tag_333:\n        /* \"#utility.yul\":30273:30350   */\n      0x4e487b7100000000000000000000000000000000000000000000000000000000\n        /* \"#utility.yul\":30270:30271   */\n      0x00\n        /* \"#utility.yul\":30263:30351   */\n      mstore\n        /* \"#utility.yul\":30370:30374   */\n      0x12\n        /* \"#utility.yul\":30367:30368   */\n      0x04\n        /* \"#utility.yul\":30360:30375   */\n      mstore\n        /* \"#utility.yul\":30394:30398   */\n      0x24\n        /* \"#utility.yul\":30391:30392   */\n      0x00\n        /* \"#utility.yul\":30384:30399   */\n      revert\n        /* \"#utility.yul\":30411:30596   */\n    tag_254:\n        /* \"#utility.yul\":30451:30452   */\n      0x00\n        /* \"#utility.yul\":30468:30488   */\n      tag_614\n        /* \"#utility.yul\":30486:30487   */\n      dup3\n        /* \"#utility.yul\":30468:30488   */\n      tag_276\n      jump\t// in\n    tag_614:\n        /* \"#utility.yul\":30463:30488   */\n      swap2\n      pop\n        /* \"#utility.yul\":30502:30522   */\n      tag_615\n        /* \"#utility.yul\":30520:30521   */\n      dup4\n        /* \"#utility.yul\":30502:30522   */\n      tag_276\n      jump\t// in\n    tag_615:\n        /* \"#utility.yul\":30497:30522   */\n      swap3\n      pop\n        /* \"#utility.yul\":30541:30542   */\n      dup3\n        /* \"#utility.yul\":30531:30566   */\n      tag_616\n      jumpi\n        /* \"#utility.yul\":30546:30564   */\n      tag_617\n      tag_333\n      jump\t// in\n    tag_617:\n        /* \"#utility.yul\":30531:30566   */\n    tag_616:\n        /* \"#utility.yul\":30588:30589   */\n      dup3\n        /* \"#utility.yul\":30585:30586   */\n      dup3\n        /* \"#utility.yul\":30581:30590   */\n      div\n        /* \"#utility.yul\":30576:30590   */\n      swap1\n      pop\n        /* \"#utility.yul\":30411:30596   */\n      swap3\n      swap2\n      pop\n      pop\n      jump\t// out\n        /* \"#utility.yul\":30602:30784   */\n    tag_334:\n        /* \"#utility.yul\":30742:30776   */\n      0x4f776e61626c653a2063616c6c6572206973206e6f7420746865206f776e6572\n        /* \"#utility.yul\":30738:30739   */\n      0x00\n        /* \"#utility.yul\":30730:30736   */\n      dup3\n        /* \"#utility.yul\":30726:30740   */\n      add\n        /* \"#utility.yul\":30719:30777   */\n      mstore\n        /* \"#utility.yul\":30602:30784   */\n      pop\n      jump\t// out\n        /* \"#utility.yul\":30790:31156   */\n    tag_335:\n        /* \"#utility.yul\":30932:30935   */\n      0x00\n        /* \"#utility.yul\":30953:31020   */\n      tag_620\n        /* \"#utility.yul\":31017:31019   */\n      0x20\n        /* \"#utility.yul\":31012:31015   */\n      dup4\n        /* \"#utility.yul\":30953:31020   */\n      tag_302\n      jump\t// in\n    tag_620:\n        /* \"#utility.yul\":30946:31020   */\n      swap2\n      pop\n        /* \"#utility.yul\":31029:31122   */\n      tag_621\n        /* \"#utility.yul\":31118:31121   */\n      dup3\n        /* \"#utility.yul\":31029:31122   */\n      tag_334\n      jump\t// in\n    tag_621:\n        /* \"#utility.yul\":31147:31149   */\n      0x20\n        /* \"#utility.yul\":31142:31145   */\n      dup3\n        /* \"#utility.yul\":31138:31150   */\n      add\n        /* \"#utility.yul\":31131:31150   */\n      swap1\n      pop\n        /* \"#utility.yul\":30790:31156   */\n      swap2\n      swap1\n      pop\n      jump\t// out\n        /* \"#utility.yul\":31162:31581   */\n    tag_261:\n        /* \"#utility.yul\":31328:31332   */\n      0x00\n        /* \"#utility.yul\":31366:31368   */\n      0x20\n        /* \"#utility.yul\":31355:31364   */\n      dup3\n        /* \"#utility.yul\":31351:31369   */\n      add\n        /* \"#utility.yul\":31343:31369   */\n      swap1\n      pop\n        /* \"#utility.yul\":31415:31424   */\n      dup2\n        /* \"#utility.yul\":31409:31413   */\n      dup2\n        /* \"#utility.yul\":31405:31425   */\n      sub\n        /* \"#utility.yul\":31401:31402   */\n      0x00\n        /* \"#utility.yul\":31390:31399   */\n      dup4\n        /* \"#utility.yul\":31386:31403   */\n      add\n        /* \"#utility.yul\":31379:31426   */\n      mstore\n        /* \"#utility.yul\":31443:31574   */\n      tag_623\n        /* \"#utility.yul\":31569:31573   */\n      dup2\n        /* \"#utility.yul\":31443:31574   */\n      tag_335\n      jump\t// in\n    tag_623:\n        /* \"#utility.yul\":31435:31574   */\n      swap1\n      pop\n        /* \"#utility.yul\":31162:31581   */\n      swap2\n      swap1\n      pop\n      jump\t// out\n\n    auxdata: 0xa264697066735822122080f2b8855dedb90b9b3157d1d8369f8db58b78ced92dc077af9cc4b0bd3856b264736f6c63430008100033\n}\n",
				"bytecode": {
					"linkReferences": {},
					"object": "60806040523480156200001157600080fd5b5060405162002f2538038062002f258339818101604052810190620000379190620001c6565b620000576200004b620000ba60201b60201c565b620000c260201b60201c565b6001808190555060008211620000a4576040517f08c379a00000000000000000000000000000000000000000000000000000000081526004016200009b906200026e565b60405180910390fd5b8160028190555080600581905550505062000290565b600033905090565b60008060009054906101000a900473ffffffffffffffffffffffffffffffffffffffff169050816000806101000a81548173ffffffffffffffffffffffffffffffffffffffff021916908373ffffffffffffffffffffffffffffffffffffffff1602179055508173ffffffffffffffffffffffffffffffffffffffff168173ffffffffffffffffffffffffffffffffffffffff167f8be0079c531659141344cd1fd0a4f28419497f9722a3daafe3b4186f6b6457e060405160405180910390a35050565b600080fd5b6000819050919050565b620001a0816200018b565b8114620001ac57600080fd5b50565b600081519050620001c08162000195565b92915050565b60008060408385031215620001e057620001df62000186565b5b6000620001f085828601620001af565b92505060206200020385828601620001af565b9150509250929050565b600082825260208201905092915050565b7f496e76616c6964206c6f636b20706572696f6400000000000000000000000000600082015250565b6000620002566013836200020d565b915062000263826200021e565b602082019050919050565b60006020820190508181036000830152620002898162000247565b9050919050565b612c8580620002a06000396000f3fe608060405234801561001057600080fd5b50600436106100cf5760003560e01c8063b2520a7c1161008c578063e9545b9211610066578063e9545b92146101f0578063ea112c1b14610222578063eee00ed01461023e578063f2fde38b1461025a576100cf565b8063b2520a7c1461016e578063b33068c4146101a2578063c69d1923146101d2576100cf565b80630520537f146100d45780631902732e146100f05780633fd8b02f1461010c578063715018a61461012a5780638da5cb5b146101345780639f3625f014610152575b600080fd5b6100ee60048036038101906100e99190611d10565b610276565b005b61010a60048036038101906101059190611d10565b6107f1565b005b610114610dad565b6040516101219190611d89565b60405180910390f35b610132610db3565b005b61013c610dc7565b6040516101499190611db3565b60405180910390f35b61016c60048036038101906101679190611d10565b610df0565b005b61018860048036038101906101839190611dfa565b6114b6565b604051610199959493929190611eb4565b60405180910390f35b6101bc60048036038101906101b79190611f07565b611546565b6040516101c99190611d89565b60405180910390f35b6101da6115a4565b6040516101e79190611d89565b60405180910390f35b61020a60048036038101906102059190611f47565b6115aa565b60405161021993929190611f95565b60405180910390f35b61023c60048036038101906102379190611fcc565b6115f4565b005b61025860048036038101906102539190612237565b611680565b005b610274600480360381019061026f919061230e565b611859565b005b6102953373ffffffffffffffffffffffffffffffffffffffff166118dc565b156102d5576040517f08c379a00000000000000000000000000000000000000000000000000000000081526004016102cc90612398565b60405180910390fd5b3273ffffffffffffffffffffffffffffffffffffffff163373ffffffffffffffffffffffffffffffffffffffff1614610343576040517f08c379a000000000000000000000000000000000000000000000000000000000815260040161033a90612404565b60405180910390fd5b60008383905011610389576040517f08c379a000000000000000000000000000000000000000000000000000000000815260040161038090612470565b60405180910390fd5b600080600090505b84849050811015610798576000600360008573ffffffffffffffffffffffffffffffffffffffff1673ffffffffffffffffffffffffffffffffffffffff16815260200190815260200160002060008787858181106103f2576103f1612490565b5b9050602002013581526020019081526020016000206040518060a00160405290816000820160009054906101000a900473ffffffffffffffffffffffffffffffffffffffff1673ffffffffffffffffffffffffffffffffffffffff1673ffffffffffffffffffffffffffffffffffffffff16815260200160018201548152602001600282015481526020016003820160009054906101000a900460ff161515151581526020016003820160019054906101000a900473ffffffffffffffffffffffffffffffffffffffff1673ffffffffffffffffffffffffffffffffffffffff1673ffffffffffffffffffffffffffffffffffffffff168152505090503373ffffffffffffffffffffffffffffffffffffffff16816000015173ffffffffffffffffffffffffffffffffffffffff1614610561576040517f08c379a00000000000000000000000000000000000000000000000000000000081526004016105589061250b565b60405180910390fd5b426002548260200151610574919061255a565b106105b4576040517f08c379a00000000000000000000000000000000000000000000000000000000081526004016105ab906125da565b60405180910390fd5b8060600151156105f9576040517f08c379a00000000000000000000000000000000000000000000000000000000081526004016105f090612646565b60405180910390fd5b600061061e87878581811061061157610610612490565b5b90506020020135866118ff565b905060008260400151826106329190612666565b9050600460008773ffffffffffffffffffffffffffffffffffffffff1673ffffffffffffffffffffffffffffffffffffffff16815260200190815260200160002060000160009054906101000a900473ffffffffffffffffffffffffffffffffffffffff1673ffffffffffffffffffffffffffffffffffffffff166340c10f1933836040518363ffffffff1660e01b81526004016106d192919061269a565b600060405180830381600087803b1580156106eb57600080fd5b505af11580156106ff573d6000803e3d6000fd5b50505050808561070f919061255a565b945081600360008873ffffffffffffffffffffffffffffffffffffffff1673ffffffffffffffffffffffffffffffffffffffff16815260200190815260200160002060008a8a8881811061076657610765612490565b5b905060200201358152602001908152602001600020600201819055505050508080610790906126c3565b915050610391565b503373ffffffffffffffffffffffffffffffffffffffff167f37826be3c26dbad83731f4b985f22fa9ef86b6d1974cd77208332b7f1f283c0c8585846040516107e393929190612786565b60405180910390a250505050565b6108103373ffffffffffffffffffffffffffffffffffffffff166118dc565b15610850576040517f08c379a000000000000000000000000000000000000000000000000000000000815260040161084790612398565b60405180910390fd5b3273ffffffffffffffffffffffffffffffffffffffff163373ffffffffffffffffffffffffffffffffffffffff16146108be576040517f08c379a00000000000000000000000000000000000000000000000000000000081526004016108b590612404565b60405180910390fd5b600260015403610903576040517f08c379a00000000000000000000000000000000000000000000000000000000081526004016108fa90612804565b60405180910390fd5b6002600181905550600073ffffffffffffffffffffffffffffffffffffffff16600460008373ffffffffffffffffffffffffffffffffffffffff1673ffffffffffffffffffffffffffffffffffffffff16815260200190815260200160002060000160009054906101000a900473ffffffffffffffffffffffffffffffffffffffff1673ffffffffffffffffffffffffffffffffffffffff16146109dc576040517f08c379a00000000000000000000000000000000000000000000000000000000081526004016109d390612896565b60405180910390fd5b60008383905011610a22576040517f08c379a0000000000000000000000000000000000000000000000000000000008152600401610a1990612470565b60405180910390fd5b60005b83839050811015610d50573373ffffffffffffffffffffffffffffffffffffffff168273ffffffffffffffffffffffffffffffffffffffff16636352211e868685818110610a7657610a75612490565b5b905060200201356040518263ffffffff1660e01b8152600401610a999190611d89565b602060405180830381865afa158015610ab6573d6000803e3d6000fd5b505050506040513d601f19601f82011682018060405250810190610ada91906128cb565b73ffffffffffffffffffffffffffffffffffffffff1614610b30576040517f08c379a0000000000000000000000000000000000000000000000000000000008152600401610b2790612944565b60405180910390fd5b8173ffffffffffffffffffffffffffffffffffffffff166323b872dd3330878786818110610b6157610b60612490565b5b905060200201356040518463ffffffff1660e01b8152600401610b8693929190612964565b600060405180830381600087803b158015610ba057600080fd5b505af1158015610bb4573d6000803e3d6000fd5b505050506040518060a001604052803373ffffffffffffffffffffffffffffffffffffffff168152602001428152602001600081526020016000151581526020018373ffffffffffffffffffffffffffffffffffffffff16815250600360008473ffffffffffffffffffffffffffffffffffffffff1673ffffffffffffffffffffffffffffffffffffffff1681526020019081526020016000206000868685818110610c6357610c62612490565b5b90506020020135815260200190815260200160002060008201518160000160006101000a81548173ffffffffffffffffffffffffffffffffffffffff021916908373ffffffffffffffffffffffffffffffffffffffff160217905550602082015181600101556040820151816002015560608201518160030160006101000a81548160ff02191690831515021790555060808201518160030160016101000a81548173ffffffffffffffffffffffffffffffffffffffff021916908373ffffffffffffffffffffffffffffffffffffffff1602179055509050508080610d48906126c3565b915050610a25565b503373ffffffffffffffffffffffffffffffffffffffff167f458be0227bccc9e803dec79bd16767eeaf9925d2ce708eeed7ae1f3621f968f98484604051610d9992919061299b565b60405180910390a260018081905550505050565b60025481565b610dbb611add565b610dc56000611b5b565b565b60008060009054906101000a900473ffffffffffffffffffffffffffffffffffffffff16905090565b610e0f3373ffffffffffffffffffffffffffffffffffffffff166118dc565b15610e4f576040517f08c379a0000000000000000000000000000000000000000000000000000000008152600401610e4690612398565b60405180910390fd5b3273ffffffffffffffffffffffffffffffffffffffff163373ffffffffffffffffffffffffffffffffffffffff1614610ebd576040517f08c379a0000000000000000000000000000000000000000000000000000000008152600401610eb490612404565b60405180910390fd5b600260015403610f02576040517f08c379a0000000000000000000000000000000000000000000000000000000008152600401610ef990612804565b60405180910390fd5b600260018190555060008383905011610f50576040517f08c379a0000000000000000000000000000000000000000000000000000000008152600401610f4790612470565b60405180910390fd5b60005b83839050811015611459576000600360008473ffffffffffffffffffffffffffffffffffffffff1673ffffffffffffffffffffffffffffffffffffffff1681526020019081526020016000206000868685818110610fb457610fb3612490565b5b9050602002013581526020019081526020016000206040518060a00160405290816000820160009054906101000a900473ffffffffffffffffffffffffffffffffffffffff1673ffffffffffffffffffffffffffffffffffffffff1673ffffffffffffffffffffffffffffffffffffffff16815260200160018201548152602001600282015481526020016003820160009054906101000a900460ff161515151581526020016003820160019054906101000a900473ffffffffffffffffffffffffffffffffffffffff1673ffffffffffffffffffffffffffffffffffffffff1673ffffffffffffffffffffffffffffffffffffffff168152505090503373ffffffffffffffffffffffffffffffffffffffff16816000015173ffffffffffffffffffffffffffffffffffffffff1614611123576040517f08c379a000000000000000000000000000000000000000000000000000000000815260040161111a9061250b565b60405180910390fd5b426002548260200151611136919061255a565b10611176576040517f08c379a000000000000000000000000000000000000000000000000000000000815260040161116d90612a0b565b60405180910390fd5b8060600151156111bb576040517f08c379a00000000000000000000000000000000000000000000000000000000081526004016111b290612646565b60405180910390fd5b8273ffffffffffffffffffffffffffffffffffffffff166323b872dd30338888878181106111ec576111eb612490565b5b905060200201356040518463ffffffff1660e01b815260040161121193929190612964565b600060405180830381600087803b15801561122b57600080fd5b505af115801561123f573d6000803e3d6000fd5b50505050600061126886868581811061125b5761125a612490565b5b90506020020135856118ff565b9050600082604001518261127c9190612666565b9050600460008673ffffffffffffffffffffffffffffffffffffffff1673ffffffffffffffffffffffffffffffffffffffff16815260200190815260200160002060000160009054906101000a900473ffffffffffffffffffffffffffffffffffffffff1673ffffffffffffffffffffffffffffffffffffffff166340c10f1933836040518363ffffffff1660e01b815260040161131b92919061269a565b600060405180830381600087803b15801561133557600080fd5b505af1158015611349573d6000803e3d6000fd5b5050505081600360008773ffffffffffffffffffffffffffffffffffffffff1673ffffffffffffffffffffffffffffffffffffffff16815260200190815260200160002060008989888181106113a2576113a1612490565b5b905060200201358152602001908152602001600020600201819055506001600360008773ffffffffffffffffffffffffffffffffffffffff1673ffffffffffffffffffffffffffffffffffffffff168152602001908152602001600020600089898881811061141457611413612490565b5b90506020020135815260200190815260200160002060030160006101000a81548160ff0219169083151502179055505050508080611451906126c3565b915050610f53565b503373ffffffffffffffffffffffffffffffffffffffff167f5cb48022479b9ac3bfb10a27965dc010acffc9fc1bc9a52f0b18975b944b54ca84846040516114a292919061299b565b60405180910390a260018081905550505050565b6003602052816000526040600020602052806000526040600020600091509150508060000160009054906101000a900473ffffffffffffffffffffffffffffffffffffffff16908060010154908060020154908060030160009054906101000a900460ff16908060030160019054906101000a900473ffffffffffffffffffffffffffffffffffffffff16905085565b6000600360008373ffffffffffffffffffffffffffffffffffffffff1673ffffffffffffffffffffffffffffffffffffffff168152602001908152602001600020600084815260200190815260200160002060020154905092915050565b60055481565b60046020528060005260406000206000915090508060000160009054906101000a900473ffffffffffffffffffffffffffffffffffffffff16908060010154908060020154905083565b6115fc611add565b6000811161163f576040517f08c379a000000000000000000000000000000000000000000000000000000000815260040161163690612a77565b60405180910390fd5b806002819055507f8249ec545e68f6f1e1230133ca48c704d831a7f8e635ded80f3dd9e99b09bb2f816040516116759190611d89565b60405180910390a150565b611688611add565b60005b8451811015611852578381815181106116a7576116a6612490565b5b6020026020010151600460008784815181106116c6576116c5612490565b5b602002602001015173ffffffffffffffffffffffffffffffffffffffff1673ffffffffffffffffffffffffffffffffffffffff16815260200190815260200160002060000160006101000a81548173ffffffffffffffffffffffffffffffffffffffff021916908373ffffffffffffffffffffffffffffffffffffffff16021790555082818151811061175c5761175b612490565b5b60200260200101516004600087848151811061177b5761177a612490565b5b602002602001015173ffffffffffffffffffffffffffffffffffffffff1673ffffffffffffffffffffffffffffffffffffffff168152602001908152602001600020600101819055508181815181106117d7576117d6612490565b5b6020026020010151600460008784815181106117f6576117f5612490565b5b602002602001015173ffffffffffffffffffffffffffffffffffffffff1673ffffffffffffffffffffffffffffffffffffffff16815260200190815260200160002060020181905550808061184a906126c3565b91505061168b565b5050505050565b611861611add565b600073ffffffffffffffffffffffffffffffffffffffff168173ffffffffffffffffffffffffffffffffffffffff16036118d0576040517f08c379a00000000000000000000000000000000000000000000000000000000081526004016118c790612b09565b60405180910390fd5b6118d981611b5b565b50565b6000808273ffffffffffffffffffffffffffffffffffffffff163b119050919050565b600080600360008473ffffffffffffffffffffffffffffffffffffffff1673ffffffffffffffffffffffffffffffffffffffff16815260200190815260200160002060008581526020019081526020016000206040518060a00160405290816000820160009054906101000a900473ffffffffffffffffffffffffffffffffffffffff1673ffffffffffffffffffffffffffffffffffffffff1673ffffffffffffffffffffffffffffffffffffffff16815260200160018201548152602001600282015481526020016003820160009054906101000a900460ff161515151581526020016003820160019054906101000a900473ffffffffffffffffffffffffffffffffffffffff1673ffffffffffffffffffffffffffffffffffffffff1673ffffffffffffffffffffffffffffffffffffffff168152505090506000816020015142611a4c9190612666565b90506000600254821015611a665760009350505050611ad7565b60055460025483611a779190612666565b600460008873ffffffffffffffffffffffffffffffffffffffff1673ffffffffffffffffffffffffffffffffffffffff16815260200190815260200160002060010154611ac49190612b29565b611ace9190612bb2565b90508093505050505b92915050565b611ae5611c1f565b73ffffffffffffffffffffffffffffffffffffffff16611b03610dc7565b73ffffffffffffffffffffffffffffffffffffffff1614611b59576040517f08c379a0000000000000000000000000000000000000000000000000000000008152600401611b5090612c2f565b60405180910390fd5b565b60008060009054906101000a900473ffffffffffffffffffffffffffffffffffffffff169050816000806101000a81548173ffffffffffffffffffffffffffffffffffffffff021916908373ffffffffffffffffffffffffffffffffffffffff1602179055508173ffffffffffffffffffffffffffffffffffffffff168173ffffffffffffffffffffffffffffffffffffffff167f8be0079c531659141344cd1fd0a4f28419497f9722a3daafe3b4186f6b6457e060405160405180910390a35050565b600033905090565b6000604051905090565b600080fd5b600080fd5b600080fd5b600080fd5b600080fd5b60008083601f840112611c6057611c5f611c3b565b5b8235905067ffffffffffffffff811115611c7d57611c7c611c40565b5b602083019150836020820283011115611c9957611c98611c45565b5b9250929050565b600073ffffffffffffffffffffffffffffffffffffffff82169050919050565b6000611ccb82611ca0565b9050919050565b6000611cdd82611cc0565b9050919050565b611ced81611cd2565b8114611cf857600080fd5b50565b600081359050611d0a81611ce4565b92915050565b600080600060408486031215611d2957611d28611c31565b5b600084013567ffffffffffffffff811115611d4757611d46611c36565b5b611d5386828701611c4a565b93509350506020611d6686828701611cfb565b9150509250925092565b6000819050919050565b611d8381611d70565b82525050565b6000602082019050611d9e6000830184611d7a565b92915050565b611dad81611cc0565b82525050565b6000602082019050611dc86000830184611da4565b92915050565b611dd781611d70565b8114611de257600080fd5b50565b600081359050611df481611dce565b92915050565b60008060408385031215611e1157611e10611c31565b5b6000611e1f85828601611cfb565b9250506020611e3085828601611de5565b9150509250929050565b60008115159050919050565b611e4f81611e3a565b82525050565b6000819050919050565b6000611e7a611e75611e7084611ca0565b611e55565b611ca0565b9050919050565b6000611e8c82611e5f565b9050919050565b6000611e9e82611e81565b9050919050565b611eae81611e93565b82525050565b600060a082019050611ec96000830188611da4565b611ed66020830187611d7a565b611ee36040830186611d7a565b611ef06060830185611e46565b611efd6080830184611ea5565b9695505050505050565b60008060408385031215611f1e57611f1d611c31565b5b6000611f2c85828601611de5565b9250506020611f3d85828601611cfb565b9150509250929050565b600060208284031215611f5d57611f5c611c31565b5b6000611f6b84828501611cfb565b91505092915050565b6000611f7f82611e81565b9050919050565b611f8f81611f74565b82525050565b6000606082019050611faa6000830186611f86565b611fb76020830185611d7a565b611fc46040830184611d7a565b949350505050565b600060208284031215611fe257611fe1611c31565b5b6000611ff084828501611de5565b91505092915050565b6000601f19601f8301169050919050565b7f4e487b7100000000000000000000000000000000000000000000000000000000600052604160045260246000fd5b61204282611ff9565b810181811067ffffffffffffffff821117156120615761206061200a565b5b80604052505050565b6000612074611c27565b90506120808282612039565b919050565b600067ffffffffffffffff8211156120a05761209f61200a565b5b602082029050602081019050919050565b6120ba81611cc0565b81146120c557600080fd5b50565b6000813590506120d7816120b1565b92915050565b60006120f06120eb84612085565b61206a565b9050808382526020820190506020840283018581111561211357612112611c45565b5b835b8181101561213c578061212888826120c8565b845260208401935050602081019050612115565b5050509392505050565b600082601f83011261215b5761215a611c3b565b5b813561216b8482602086016120dd565b91505092915050565b600067ffffffffffffffff82111561218f5761218e61200a565b5b602082029050602081019050919050565b60006121b36121ae84612174565b61206a565b905080838252602082019050602084028301858111156121d6576121d5611c45565b5b835b818110156121ff57806121eb8882611de5565b8452602084019350506020810190506121d8565b5050509392505050565b600082601f83011261221e5761221d611c3b565b5b813561222e8482602086016121a0565b91505092915050565b6000806000806080858703121561225157612250611c31565b5b600085013567ffffffffffffffff81111561226f5761226e611c36565b5b61227b87828801612146565b945050602085013567ffffffffffffffff81111561229c5761229b611c36565b5b6122a887828801612146565b935050604085013567ffffffffffffffff8111156122c9576122c8611c36565b5b6122d587828801612209565b925050606085013567ffffffffffffffff8111156122f6576122f5611c36565b5b61230287828801612209565b91505092959194509250565b60006020828403121561232457612323611c31565b5b6000612332848285016120c8565b91505092915050565b600082825260208201905092915050565b7f436f6e7472616374206e6f7420616c6c6f776564000000000000000000000000600082015250565b600061238260148361233b565b915061238d8261234c565b602082019050919050565b600060208201905081810360008301526123b181612375565b9050919050565b7f50726f787920636f6e7472616374206e6f7420616c6c6f776564000000000000600082015250565b60006123ee601a8361233b565b91506123f9826123b8565b602082019050919050565b6000602082019050818103600083015261241d816123e1565b9050919050565b7f4e6f20746f6b656e730000000000000000000000000000000000000000000000600082015250565b600061245a60098361233b565b915061246582612424565b602082019050919050565b600060208201905081810360008301526124898161244d565b9050919050565b7f4e487b7100000000000000000000000000000000000000000000000000000000600052603260045260246000fd5b7f4e6f74206120746f6b656e206f776e6572000000000000000000000000000000600082015250565b60006124f560118361233b565b9150612500826124bf565b602082019050919050565b60006020820190508181036000830152612524816124e8565b9050919050565b7f4e487b7100000000000000000000000000000000000000000000000000000000600052601160045260246000fd5b600061256582611d70565b915061257083611d70565b92508282019050808211156125885761258761252b565b5b92915050565b7f4e6f742061626c6520746f20636c61696d207965740000000000000000000000600082015250565b60006125c460158361233b565b91506125cf8261258e565b602082019050919050565b600060208201905081810360008301526125f3816125b7565b9050919050565b7f416c726561647920756e6c6f636b656400000000000000000000000000000000600082015250565b600061263060108361233b565b915061263b826125fa565b602082019050919050565b6000602082019050818103600083015261265f81612623565b9050919050565b600061267182611d70565b915061267c83611d70565b92508282039050818111156126945761269361252b565b5b92915050565b60006040820190506126af6000830185611da4565b6126bc6020830184611d7a565b9392505050565b60006126ce82611d70565b91507fffffffffffffffffffffffffffffffffffffffffffffffffffffffffffffffff8203612700576126ff61252b565b5b600182019050919050565b600082825260208201905092915050565b600080fd5b82818337505050565b6000612736838561270b565b93507f07ffffffffffffffffffffffffffffffffffffffffffffffffffffffffffffff8311156127695761276861271c565b5b60208302925061277a838584612721565b82840190509392505050565b600060408201905081810360008301526127a181858761272a565b90506127b06020830184611d7a565b949350505050565b7f5265656e7472616e637947756172643a207265656e7472616e742063616c6c00600082015250565b60006127ee601f8361233b565b91506127f9826127b8565b602082019050919050565b6000602082019050818103600083015261281d816127e1565b9050919050565b7f5374616b696e673a205265676973746572205374616b696e672062792061646460008201527f5374616b696e6700000000000000000000000000000000000000000000000000602082015250565b600061288060278361233b565b915061288b82612824565b604082019050919050565b600060208201905081810360008301526128af81612873565b9050919050565b6000815190506128c5816120b1565b92915050565b6000602082840312156128e1576128e0611c31565b5b60006128ef848285016128b6565b91505092915050565b7f596f7520646f6e277420686f6c64207468697320746f6b656e00000000000000600082015250565b600061292e60198361233b565b9150612939826128f8565b602082019050919050565b6000602082019050818103600083015261295d81612921565b9050919050565b60006060820190506129796000830186611da4565b6129866020830185611da4565b6129936040830184611d7a565b949350505050565b600060208201905081810360008301526129b681848661272a565b90509392505050565b7f4e6f742061626c6520746f20756e6c6f636b2079657400000000000000000000600082015250565b60006129f560168361233b565b9150612a00826129bf565b602082019050919050565b60006020820190508181036000830152612a24816129e8565b9050919050565b7f496e76616c6964206c6f636b20706572696f642e000000000000000000000000600082015250565b6000612a6160148361233b565b9150612a6c82612a2b565b602082019050919050565b60006020820190508181036000830152612a9081612a54565b9050919050565b7f4f776e61626c653a206e6577206f776e657220697320746865207a65726f206160008201527f6464726573730000000000000000000000000000000000000000000000000000602082015250565b6000612af360268361233b565b9150612afe82612a97565b604082019050919050565b60006020820190508181036000830152612b2281612ae6565b9050919050565b6000612b3482611d70565b9150612b3f83611d70565b9250817fffffffffffffffffffffffffffffffffffffffffffffffffffffffffffffffff0483118215151615612b7857612b7761252b565b5b828202905092915050565b7f4e487b7100000000000000000000000000000000000000000000000000000000600052601260045260246000fd5b6000612bbd82611d70565b9150612bc883611d70565b925082612bd857612bd7612b83565b5b828204905092915050565b7f4f776e61626c653a2063616c6c6572206973206e6f7420746865206f776e6572600082015250565b6000612c1960208361233b565b9150612c2482612be3565b602082019050919050565b60006020820190508181036000830152612c4881612c0c565b905091905056fea264697066735822122080f2b8855dedb90b9b3157d1d8369f8db58b78ced92dc077af9cc4b0bd3856b264736f6c63430008100033",
					"opcodes": "PUSH1 0x80 PUSH1 0x40 MSTORE CALLVALUE DUP1 ISZERO PUSH3 0x11 JUMPI PUSH1 0x0 DUP1 REVERT JUMPDEST POP PUSH1 0x40 MLOAD PUSH3 0x2F25 CODESIZE SUB DUP1 PUSH3 0x2F25 DUP4 CODECOPY DUP2 DUP2 ADD PUSH1 0x40 MSTORE DUP2 ADD SWAP1 PUSH3 0x37 SWAP2 SWAP1 PUSH3 0x1C6 JUMP JUMPDEST PUSH3 0x57 PUSH3 0x4B PUSH3 0xBA PUSH1 0x20 SHL PUSH1 0x20 SHR JUMP JUMPDEST PUSH3 0xC2 PUSH1 0x20 SHL PUSH1 0x20 SHR JUMP JUMPDEST PUSH1 0x1 DUP1 DUP2 SWAP1 SSTORE POP PUSH1 0x0 DUP3 GT PUSH3 0xA4 JUMPI PUSH1 0x40 MLOAD PUSH32 0x8C379A000000000000000000000000000000000000000000000000000000000 DUP2 MSTORE PUSH1 0x4 ADD PUSH3 0x9B SWAP1 PUSH3 0x26E JUMP JUMPDEST PUSH1 0x40 MLOAD DUP1 SWAP2 SUB SWAP1 REVERT JUMPDEST DUP2 PUSH1 0x2 DUP2 SWAP1 SSTORE POP DUP1 PUSH1 0x5 DUP2 SWAP1 SSTORE POP POP POP PUSH3 0x290 JUMP JUMPDEST PUSH1 0x0 CALLER SWAP1 POP SWAP1 JUMP JUMPDEST PUSH1 0x0 DUP1 PUSH1 0x0 SWAP1 SLOAD SWAP1 PUSH2 0x100 EXP SWAP1 DIV PUSH20 0xFFFFFFFFFFFFFFFFFFFFFFFFFFFFFFFFFFFFFFFF AND SWAP1 POP DUP2 PUSH1 0x0 DUP1 PUSH2 0x100 EXP DUP2 SLOAD DUP2 PUSH20 0xFFFFFFFFFFFFFFFFFFFFFFFFFFFFFFFFFFFFFFFF MUL NOT AND SWAP1 DUP4 PUSH20 0xFFFFFFFFFFFFFFFFFFFFFFFFFFFFFFFFFFFFFFFF AND MUL OR SWAP1 SSTORE POP DUP2 PUSH20 0xFFFFFFFFFFFFFFFFFFFFFFFFFFFFFFFFFFFFFFFF AND DUP2 PUSH20 0xFFFFFFFFFFFFFFFFFFFFFFFFFFFFFFFFFFFFFFFF AND PUSH32 0x8BE0079C531659141344CD1FD0A4F28419497F9722A3DAAFE3B4186F6B6457E0 PUSH1 0x40 MLOAD PUSH1 0x40 MLOAD DUP1 SWAP2 SUB SWAP1 LOG3 POP POP JUMP JUMPDEST PUSH1 0x0 DUP1 REVERT JUMPDEST PUSH1 0x0 DUP2 SWAP1 POP SWAP2 SWAP1 POP JUMP JUMPDEST PUSH3 0x1A0 DUP2 PUSH3 0x18B JUMP JUMPDEST DUP2 EQ PUSH3 0x1AC JUMPI PUSH1 0x0 DUP1 REVERT JUMPDEST POP JUMP JUMPDEST PUSH1 0x0 DUP2 MLOAD SWAP1 POP PUSH3 0x1C0 DUP2 PUSH3 0x195 JUMP JUMPDEST SWAP3 SWAP2 POP POP JUMP JUMPDEST PUSH1 0x0 DUP1 PUSH1 0x40 DUP4 DUP6 SUB SLT ISZERO PUSH3 0x1E0 JUMPI PUSH3 0x1DF PUSH3 0x186 JUMP JUMPDEST JUMPDEST PUSH1 0x0 PUSH3 0x1F0 DUP6 DUP3 DUP7 ADD PUSH3 0x1AF JUMP JUMPDEST SWAP3 POP POP PUSH1 0x20 PUSH3 0x203 DUP6 DUP3 DUP7 ADD PUSH3 0x1AF JUMP JUMPDEST SWAP2 POP POP SWAP3 POP SWAP3 SWAP1 POP JUMP JUMPDEST PUSH1 0x0 DUP3 DUP3 MSTORE PUSH1 0x20 DUP3 ADD SWAP1 POP SWAP3 SWAP2 POP POP JUMP JUMPDEST PUSH32 0x496E76616C6964206C6F636B20706572696F6400000000000000000000000000 PUSH1 0x0 DUP3 ADD MSTORE POP JUMP JUMPDEST PUSH1 0x0 PUSH3 0x256 PUSH1 0x13 DUP4 PUSH3 0x20D JUMP JUMPDEST SWAP2 POP PUSH3 0x263 DUP3 PUSH3 0x21E JUMP JUMPDEST PUSH1 0x20 DUP3 ADD SWAP1 POP SWAP2 SWAP1 POP JUMP JUMPDEST PUSH1 0x0 PUSH1 0x20 DUP3 ADD SWAP1 POP DUP2 DUP2 SUB PUSH1 0x0 DUP4 ADD MSTORE PUSH3 0x289 DUP2 PUSH3 0x247 JUMP JUMPDEST SWAP1 POP SWAP2 SWAP1 POP JUMP JUMPDEST PUSH2 0x2C85 DUP1 PUSH3 0x2A0 PUSH1 0x0 CODECOPY PUSH1 0x0 RETURN INVALID PUSH1 0x80 PUSH1 0x40 MSTORE CALLVALUE DUP1 ISZERO PUSH2 0x10 JUMPI PUSH1 0x0 DUP1 REVERT JUMPDEST POP PUSH1 0x4 CALLDATASIZE LT PUSH2 0xCF JUMPI PUSH1 0x0 CALLDATALOAD PUSH1 0xE0 SHR DUP1 PUSH4 0xB2520A7C GT PUSH2 0x8C JUMPI DUP1 PUSH4 0xE9545B92 GT PUSH2 0x66 JUMPI DUP1 PUSH4 0xE9545B92 EQ PUSH2 0x1F0 JUMPI DUP1 PUSH4 0xEA112C1B EQ PUSH2 0x222 JUMPI DUP1 PUSH4 0xEEE00ED0 EQ PUSH2 0x23E JUMPI DUP1 PUSH4 0xF2FDE38B EQ PUSH2 0x25A JUMPI PUSH2 0xCF JUMP JUMPDEST DUP1 PUSH4 0xB2520A7C EQ PUSH2 0x16E JUMPI DUP1 PUSH4 0xB33068C4 EQ PUSH2 0x1A2 JUMPI DUP1 PUSH4 0xC69D1923 EQ PUSH2 0x1D2 JUMPI PUSH2 0xCF JUMP JUMPDEST DUP1 PUSH4 0x520537F EQ PUSH2 0xD4 JUMPI DUP1 PUSH4 0x1902732E EQ PUSH2 0xF0 JUMPI DUP1 PUSH4 0x3FD8B02F EQ PUSH2 0x10C JUMPI DUP1 PUSH4 0x715018A6 EQ PUSH2 0x12A JUMPI DUP1 PUSH4 0x8DA5CB5B EQ PUSH2 0x134 JUMPI DUP1 PUSH4 0x9F3625F0 EQ PUSH2 0x152 JUMPI JUMPDEST PUSH1 0x0 DUP1 REVERT JUMPDEST PUSH2 0xEE PUSH1 0x4 DUP1 CALLDATASIZE SUB DUP2 ADD SWAP1 PUSH2 0xE9 SWAP2 SWAP1 PUSH2 0x1D10 JUMP JUMPDEST PUSH2 0x276 JUMP JUMPDEST STOP JUMPDEST PUSH2 0x10A PUSH1 0x4 DUP1 CALLDATASIZE SUB DUP2 ADD SWAP1 PUSH2 0x105 SWAP2 SWAP1 PUSH2 0x1D10 JUMP JUMPDEST PUSH2 0x7F1 JUMP JUMPDEST STOP JUMPDEST PUSH2 0x114 PUSH2 0xDAD JUMP JUMPDEST PUSH1 0x40 MLOAD PUSH2 0x121 SWAP2 SWAP1 PUSH2 0x1D89 JUMP JUMPDEST PUSH1 0x40 MLOAD DUP1 SWAP2 SUB SWAP1 RETURN JUMPDEST PUSH2 0x132 PUSH2 0xDB3 JUMP JUMPDEST STOP JUMPDEST PUSH2 0x13C PUSH2 0xDC7 JUMP JUMPDEST PUSH1 0x40 MLOAD PUSH2 0x149 SWAP2 SWAP1 PUSH2 0x1DB3 JUMP JUMPDEST PUSH1 0x40 MLOAD DUP1 SWAP2 SUB SWAP1 RETURN JUMPDEST PUSH2 0x16C PUSH1 0x4 DUP1 CALLDATASIZE SUB DUP2 ADD SWAP1 PUSH2 0x167 SWAP2 SWAP1 PUSH2 0x1D10 JUMP JUMPDEST PUSH2 0xDF0 JUMP JUMPDEST STOP JUMPDEST PUSH2 0x188 PUSH1 0x4 DUP1 CALLDATASIZE SUB DUP2 ADD SWAP1 PUSH2 0x183 SWAP2 SWAP1 PUSH2 0x1DFA JUMP JUMPDEST PUSH2 0x14B6 JUMP JUMPDEST PUSH1 0x40 MLOAD PUSH2 0x199 SWAP6 SWAP5 SWAP4 SWAP3 SWAP2 SWAP1 PUSH2 0x1EB4 JUMP JUMPDEST PUSH1 0x40 MLOAD DUP1 SWAP2 SUB SWAP1 RETURN JUMPDEST PUSH2 0x1BC PUSH1 0x4 DUP1 CALLDATASIZE SUB DUP2 ADD SWAP1 PUSH2 0x1B7 SWAP2 SWAP1 PUSH2 0x1F07 JUMP JUMPDEST PUSH2 0x1546 JUMP JUMPDEST PUSH1 0x40 MLOAD PUSH2 0x1C9 SWAP2 SWAP1 PUSH2 0x1D89 JUMP JUMPDEST PUSH1 0x40 MLOAD DUP1 SWAP2 SUB SWAP1 RETURN JUMPDEST PUSH2 0x1DA PUSH2 0x15A4 JUMP JUMPDEST PUSH1 0x40 MLOAD PUSH2 0x1E7 SWAP2 SWAP1 PUSH2 0x1D89 JUMP JUMPDEST PUSH1 0x40 MLOAD DUP1 SWAP2 SUB SWAP1 RETURN JUMPDEST PUSH2 0x20A PUSH1 0x4 DUP1 CALLDATASIZE SUB DUP2 ADD SWAP1 PUSH2 0x205 SWAP2 SWAP1 PUSH2 0x1F47 JUMP JUMPDEST PUSH2 0x15AA JUMP JUMPDEST PUSH1 0x40 MLOAD PUSH2 0x219 SWAP4 SWAP3 SWAP2 SWAP1 PUSH2 0x1F95 JUMP JUMPDEST PUSH1 0x40 MLOAD DUP1 SWAP2 SUB SWAP1 RETURN JUMPDEST PUSH2 0x23C PUSH1 0x4 DUP1 CALLDATASIZE SUB DUP2 ADD SWAP1 PUSH2 0x237 SWAP2 SWAP1 PUSH2 0x1FCC JUMP JUMPDEST PUSH2 0x15F4 JUMP JUMPDEST STOP JUMPDEST PUSH2 0x258 PUSH1 0x4 DUP1 CALLDATASIZE SUB DUP2 ADD SWAP1 PUSH2 0x253 SWAP2 SWAP1 PUSH2 0x2237 JUMP JUMPDEST PUSH2 0x1680 JUMP JUMPDEST STOP JUMPDEST PUSH2 0x274 PUSH1 0x4 DUP1 CALLDATASIZE SUB DUP2 ADD SWAP1 PUSH2 0x26F SWAP2 SWAP1 PUSH2 0x230E JUMP JUMPDEST PUSH2 0x1859 JUMP JUMPDEST STOP JUMPDEST PUSH2 0x295 CALLER PUSH20 0xFFFFFFFFFFFFFFFFFFFFFFFFFFFFFFFFFFFFFFFF AND PUSH2 0x18DC JUMP JUMPDEST ISZERO PUSH2 0x2D5 JUMPI PUSH1 0x40 MLOAD PUSH32 0x8C379A000000000000000000000000000000000000000000000000000000000 DUP2 MSTORE PUSH1 0x4 ADD PUSH2 0x2CC SWAP1 PUSH2 0x2398 JUMP JUMPDEST PUSH1 0x40 MLOAD DUP1 SWAP2 SUB SWAP1 REVERT JUMPDEST ORIGIN PUSH20 0xFFFFFFFFFFFFFFFFFFFFFFFFFFFFFFFFFFFFFFFF AND CALLER PUSH20 0xFFFFFFFFFFFFFFFFFFFFFFFFFFFFFFFFFFFFFFFF AND EQ PUSH2 0x343 JUMPI PUSH1 0x40 MLOAD PUSH32 0x8C379A000000000000000000000000000000000000000000000000000000000 DUP2 MSTORE PUSH1 0x4 ADD PUSH2 0x33A SWAP1 PUSH2 0x2404 JUMP JUMPDEST PUSH1 0x40 MLOAD DUP1 SWAP2 SUB SWAP1 REVERT JUMPDEST PUSH1 0x0 DUP4 DUP4 SWAP1 POP GT PUSH2 0x389 JUMPI PUSH1 0x40 MLOAD PUSH32 0x8C379A000000000000000000000000000000000000000000000000000000000 DUP2 MSTORE PUSH1 0x4 ADD PUSH2 0x380 SWAP1 PUSH2 0x2470 JUMP JUMPDEST PUSH1 0x40 MLOAD DUP1 SWAP2 SUB SWAP1 REVERT JUMPDEST PUSH1 0x0 DUP1 PUSH1 0x0 SWAP1 POP JUMPDEST DUP5 DUP5 SWAP1 POP DUP2 LT ISZERO PUSH2 0x798 JUMPI PUSH1 0x0 PUSH1 0x3 PUSH1 0x0 DUP6 PUSH20 0xFFFFFFFFFFFFFFFFFFFFFFFFFFFFFFFFFFFFFFFF AND PUSH20 0xFFFFFFFFFFFFFFFFFFFFFFFFFFFFFFFFFFFFFFFF AND DUP2 MSTORE PUSH1 0x20 ADD SWAP1 DUP2 MSTORE PUSH1 0x20 ADD PUSH1 0x0 KECCAK256 PUSH1 0x0 DUP8 DUP8 DUP6 DUP2 DUP2 LT PUSH2 0x3F2 JUMPI PUSH2 0x3F1 PUSH2 0x2490 JUMP JUMPDEST JUMPDEST SWAP1 POP PUSH1 0x20 MUL ADD CALLDATALOAD DUP2 MSTORE PUSH1 0x20 ADD SWAP1 DUP2 MSTORE PUSH1 0x20 ADD PUSH1 0x0 KECCAK256 PUSH1 0x40 MLOAD DUP1 PUSH1 0xA0 ADD PUSH1 0x40 MSTORE SWAP1 DUP2 PUSH1 0x0 DUP3 ADD PUSH1 0x0 SWAP1 SLOAD SWAP1 PUSH2 0x100 EXP SWAP1 DIV PUSH20 0xFFFFFFFFFFFFFFFFFFFFFFFFFFFFFFFFFFFFFFFF AND PUSH20 0xFFFFFFFFFFFFFFFFFFFFFFFFFFFFFFFFFFFFFFFF AND PUSH20 0xFFFFFFFFFFFFFFFFFFFFFFFFFFFFFFFFFFFFFFFF AND DUP2 MSTORE PUSH1 0x20 ADD PUSH1 0x1 DUP3 ADD SLOAD DUP2 MSTORE PUSH1 0x20 ADD PUSH1 0x2 DUP3 ADD SLOAD DUP2 MSTORE PUSH1 0x20 ADD PUSH1 0x3 DUP3 ADD PUSH1 0x0 SWAP1 SLOAD SWAP1 PUSH2 0x100 EXP SWAP1 DIV PUSH1 0xFF AND ISZERO ISZERO ISZERO ISZERO DUP2 MSTORE PUSH1 0x20 ADD PUSH1 0x3 DUP3 ADD PUSH1 0x1 SWAP1 SLOAD SWAP1 PUSH2 0x100 EXP SWAP1 DIV PUSH20 0xFFFFFFFFFFFFFFFFFFFFFFFFFFFFFFFFFFFFFFFF AND PUSH20 0xFFFFFFFFFFFFFFFFFFFFFFFFFFFFFFFFFFFFFFFF AND PUSH20 0xFFFFFFFFFFFFFFFFFFFFFFFFFFFFFFFFFFFFFFFF AND DUP2 MSTORE POP POP SWAP1 POP CALLER PUSH20 0xFFFFFFFFFFFFFFFFFFFFFFFFFFFFFFFFFFFFFFFF AND DUP2 PUSH1 0x0 ADD MLOAD PUSH20 0xFFFFFFFFFFFFFFFFFFFFFFFFFFFFFFFFFFFFFFFF AND EQ PUSH2 0x561 JUMPI PUSH1 0x40 MLOAD PUSH32 0x8C379A000000000000000000000000000000000000000000000000000000000 DUP2 MSTORE PUSH1 0x4 ADD PUSH2 0x558 SWAP1 PUSH2 0x250B JUMP JUMPDEST PUSH1 0x40 MLOAD DUP1 SWAP2 SUB SWAP1 REVERT JUMPDEST TIMESTAMP PUSH1 0x2 SLOAD DUP3 PUSH1 0x20 ADD MLOAD PUSH2 0x574 SWAP2 SWAP1 PUSH2 0x255A JUMP JUMPDEST LT PUSH2 0x5B4 JUMPI PUSH1 0x40 MLOAD PUSH32 0x8C379A000000000000000000000000000000000000000000000000000000000 DUP2 MSTORE PUSH1 0x4 ADD PUSH2 0x5AB SWAP1 PUSH2 0x25DA JUMP JUMPDEST PUSH1 0x40 MLOAD DUP1 SWAP2 SUB SWAP1 REVERT JUMPDEST DUP1 PUSH1 0x60 ADD MLOAD ISZERO PUSH2 0x5F9 JUMPI PUSH1 0x40 MLOAD PUSH32 0x8C379A000000000000000000000000000000000000000000000000000000000 DUP2 MSTORE PUSH1 0x4 ADD PUSH2 0x5F0 SWAP1 PUSH2 0x2646 JUMP JUMPDEST PUSH1 0x40 MLOAD DUP1 SWAP2 SUB SWAP1 REVERT JUMPDEST PUSH1 0x0 PUSH2 0x61E DUP8 DUP8 DUP6 DUP2 DUP2 LT PUSH2 0x611 JUMPI PUSH2 0x610 PUSH2 0x2490 JUMP JUMPDEST JUMPDEST SWAP1 POP PUSH1 0x20 MUL ADD CALLDATALOAD DUP7 PUSH2 0x18FF JUMP JUMPDEST SWAP1 POP PUSH1 0x0 DUP3 PUSH1 0x40 ADD MLOAD DUP3 PUSH2 0x632 SWAP2 SWAP1 PUSH2 0x2666 JUMP JUMPDEST SWAP1 POP PUSH1 0x4 PUSH1 0x0 DUP8 PUSH20 0xFFFFFFFFFFFFFFFFFFFFFFFFFFFFFFFFFFFFFFFF AND PUSH20 0xFFFFFFFFFFFFFFFFFFFFFFFFFFFFFFFFFFFFFFFF AND DUP2 MSTORE PUSH1 0x20 ADD SWAP1 DUP2 MSTORE PUSH1 0x20 ADD PUSH1 0x0 KECCAK256 PUSH1 0x0 ADD PUSH1 0x0 SWAP1 SLOAD SWAP1 PUSH2 0x100 EXP SWAP1 DIV PUSH20 0xFFFFFFFFFFFFFFFFFFFFFFFFFFFFFFFFFFFFFFFF AND PUSH20 0xFFFFFFFFFFFFFFFFFFFFFFFFFFFFFFFFFFFFFFFF AND PUSH4 0x40C10F19 CALLER DUP4 PUSH1 0x40 MLOAD DUP4 PUSH4 0xFFFFFFFF AND PUSH1 0xE0 SHL DUP2 MSTORE PUSH1 0x4 ADD PUSH2 0x6D1 SWAP3 SWAP2 SWAP1 PUSH2 0x269A JUMP JUMPDEST PUSH1 0x0 PUSH1 0x40 MLOAD DUP1 DUP4 SUB DUP2 PUSH1 0x0 DUP8 DUP1 EXTCODESIZE ISZERO DUP1 ISZERO PUSH2 0x6EB JUMPI PUSH1 0x0 DUP1 REVERT JUMPDEST POP GAS CALL ISZERO DUP1 ISZERO PUSH2 0x6FF JUMPI RETURNDATASIZE PUSH1 0x0 DUP1 RETURNDATACOPY RETURNDATASIZE PUSH1 0x0 REVERT JUMPDEST POP POP POP POP DUP1 DUP6 PUSH2 0x70F SWAP2 SWAP1 PUSH2 0x255A JUMP JUMPDEST SWAP5 POP DUP2 PUSH1 0x3 PUSH1 0x0 DUP9 PUSH20 0xFFFFFFFFFFFFFFFFFFFFFFFFFFFFFFFFFFFFFFFF AND PUSH20 0xFFFFFFFFFFFFFFFFFFFFFFFFFFFFFFFFFFFFFFFF AND DUP2 MSTORE PUSH1 0x20 ADD SWAP1 DUP2 MSTORE PUSH1 0x20 ADD PUSH1 0x0 KECCAK256 PUSH1 0x0 DUP11 DUP11 DUP9 DUP2 DUP2 LT PUSH2 0x766 JUMPI PUSH2 0x765 PUSH2 0x2490 JUMP JUMPDEST JUMPDEST SWAP1 POP PUSH1 0x20 MUL ADD CALLDATALOAD DUP2 MSTORE PUSH1 0x20 ADD SWAP1 DUP2 MSTORE PUSH1 0x20 ADD PUSH1 0x0 KECCAK256 PUSH1 0x2 ADD DUP2 SWAP1 SSTORE POP POP POP POP DUP1 DUP1 PUSH2 0x790 SWAP1 PUSH2 0x26C3 JUMP JUMPDEST SWAP2 POP POP PUSH2 0x391 JUMP JUMPDEST POP CALLER PUSH20 0xFFFFFFFFFFFFFFFFFFFFFFFFFFFFFFFFFFFFFFFF AND PUSH32 0x37826BE3C26DBAD83731F4B985F22FA9EF86B6D1974CD77208332B7F1F283C0C DUP6 DUP6 DUP5 PUSH1 0x40 MLOAD PUSH2 0x7E3 SWAP4 SWAP3 SWAP2 SWAP1 PUSH2 0x2786 JUMP JUMPDEST PUSH1 0x40 MLOAD DUP1 SWAP2 SUB SWAP1 LOG2 POP POP POP POP JUMP JUMPDEST PUSH2 0x810 CALLER PUSH20 0xFFFFFFFFFFFFFFFFFFFFFFFFFFFFFFFFFFFFFFFF AND PUSH2 0x18DC JUMP JUMPDEST ISZERO PUSH2 0x850 JUMPI PUSH1 0x40 MLOAD PUSH32 0x8C379A000000000000000000000000000000000000000000000000000000000 DUP2 MSTORE PUSH1 0x4 ADD PUSH2 0x847 SWAP1 PUSH2 0x2398 JUMP JUMPDEST PUSH1 0x40 MLOAD DUP1 SWAP2 SUB SWAP1 REVERT JUMPDEST ORIGIN PUSH20 0xFFFFFFFFFFFFFFFFFFFFFFFFFFFFFFFFFFFFFFFF AND CALLER PUSH20 0xFFFFFFFFFFFFFFFFFFFFFFFFFFFFFFFFFFFFFFFF AND EQ PUSH2 0x8BE JUMPI PUSH1 0x40 MLOAD PUSH32 0x8C379A000000000000000000000000000000000000000000000000000000000 DUP2 MSTORE PUSH1 0x4 ADD PUSH2 0x8B5 SWAP1 PUSH2 0x2404 JUMP JUMPDEST PUSH1 0x40 MLOAD DUP1 SWAP2 SUB SWAP1 REVERT JUMPDEST PUSH1 0x2 PUSH1 0x1 SLOAD SUB PUSH2 0x903 JUMPI PUSH1 0x40 MLOAD PUSH32 0x8C379A000000000000000000000000000000000000000000000000000000000 DUP2 MSTORE PUSH1 0x4 ADD PUSH2 0x8FA SWAP1 PUSH2 0x2804 JUMP JUMPDEST PUSH1 0x40 MLOAD DUP1 SWAP2 SUB SWAP1 REVERT JUMPDEST PUSH1 0x2 PUSH1 0x1 DUP2 SWAP1 SSTORE POP PUSH1 0x0 PUSH20 0xFFFFFFFFFFFFFFFFFFFFFFFFFFFFFFFFFFFFFFFF AND PUSH1 0x4 PUSH1 0x0 DUP4 PUSH20 0xFFFFFFFFFFFFFFFFFFFFFFFFFFFFFFFFFFFFFFFF AND PUSH20 0xFFFFFFFFFFFFFFFFFFFFFFFFFFFFFFFFFFFFFFFF AND DUP2 MSTORE PUSH1 0x20 ADD SWAP1 DUP2 MSTORE PUSH1 0x20 ADD PUSH1 0x0 KECCAK256 PUSH1 0x0 ADD PUSH1 0x0 SWAP1 SLOAD SWAP1 PUSH2 0x100 EXP SWAP1 DIV PUSH20 0xFFFFFFFFFFFFFFFFFFFFFFFFFFFFFFFFFFFFFFFF AND PUSH20 0xFFFFFFFFFFFFFFFFFFFFFFFFFFFFFFFFFFFFFFFF AND EQ PUSH2 0x9DC JUMPI PUSH1 0x40 MLOAD PUSH32 0x8C379A000000000000000000000000000000000000000000000000000000000 DUP2 MSTORE PUSH1 0x4 ADD PUSH2 0x9D3 SWAP1 PUSH2 0x2896 JUMP JUMPDEST PUSH1 0x40 MLOAD DUP1 SWAP2 SUB SWAP1 REVERT JUMPDEST PUSH1 0x0 DUP4 DUP4 SWAP1 POP GT PUSH2 0xA22 JUMPI PUSH1 0x40 MLOAD PUSH32 0x8C379A000000000000000000000000000000000000000000000000000000000 DUP2 MSTORE PUSH1 0x4 ADD PUSH2 0xA19 SWAP1 PUSH2 0x2470 JUMP JUMPDEST PUSH1 0x40 MLOAD DUP1 SWAP2 SUB SWAP1 REVERT JUMPDEST PUSH1 0x0 JUMPDEST DUP4 DUP4 SWAP1 POP DUP2 LT ISZERO PUSH2 0xD50 JUMPI CALLER PUSH20 0xFFFFFFFFFFFFFFFFFFFFFFFFFFFFFFFFFFFFFFFF AND DUP3 PUSH20 0xFFFFFFFFFFFFFFFFFFFFFFFFFFFFFFFFFFFFFFFF AND PUSH4 0x6352211E DUP7 DUP7 DUP6 DUP2 DUP2 LT PUSH2 0xA76 JUMPI PUSH2 0xA75 PUSH2 0x2490 JUMP JUMPDEST JUMPDEST SWAP1 POP PUSH1 0x20 MUL ADD CALLDATALOAD PUSH1 0x40 MLOAD DUP3 PUSH4 0xFFFFFFFF AND PUSH1 0xE0 SHL DUP2 MSTORE PUSH1 0x4 ADD PUSH2 0xA99 SWAP2 SWAP1 PUSH2 0x1D89 JUMP JUMPDEST PUSH1 0x20 PUSH1 0x40 MLOAD DUP1 DUP4 SUB DUP2 DUP7 GAS STATICCALL ISZERO DUP1 ISZERO PUSH2 0xAB6 JUMPI RETURNDATASIZE PUSH1 0x0 DUP1 RETURNDATACOPY RETURNDATASIZE PUSH1 0x0 REVERT JUMPDEST POP POP POP POP PUSH1 0x40 MLOAD RETURNDATASIZE PUSH1 0x1F NOT PUSH1 0x1F DUP3 ADD AND DUP3 ADD DUP1 PUSH1 0x40 MSTORE POP DUP2 ADD SWAP1 PUSH2 0xADA SWAP2 SWAP1 PUSH2 0x28CB JUMP JUMPDEST PUSH20 0xFFFFFFFFFFFFFFFFFFFFFFFFFFFFFFFFFFFFFFFF AND EQ PUSH2 0xB30 JUMPI PUSH1 0x40 MLOAD PUSH32 0x8C379A000000000000000000000000000000000000000000000000000000000 DUP2 MSTORE PUSH1 0x4 ADD PUSH2 0xB27 SWAP1 PUSH2 0x2944 JUMP JUMPDEST PUSH1 0x40 MLOAD DUP1 SWAP2 SUB SWAP1 REVERT JUMPDEST DUP2 PUSH20 0xFFFFFFFFFFFFFFFFFFFFFFFFFFFFFFFFFFFFFFFF AND PUSH4 0x23B872DD CALLER ADDRESS DUP8 DUP8 DUP7 DUP2 DUP2 LT PUSH2 0xB61 JUMPI PUSH2 0xB60 PUSH2 0x2490 JUMP JUMPDEST JUMPDEST SWAP1 POP PUSH1 0x20 MUL ADD CALLDATALOAD PUSH1 0x40 MLOAD DUP5 PUSH4 0xFFFFFFFF AND PUSH1 0xE0 SHL DUP2 MSTORE PUSH1 0x4 ADD PUSH2 0xB86 SWAP4 SWAP3 SWAP2 SWAP1 PUSH2 0x2964 JUMP JUMPDEST PUSH1 0x0 PUSH1 0x40 MLOAD DUP1 DUP4 SUB DUP2 PUSH1 0x0 DUP8 DUP1 EXTCODESIZE ISZERO DUP1 ISZERO PUSH2 0xBA0 JUMPI PUSH1 0x0 DUP1 REVERT JUMPDEST POP GAS CALL ISZERO DUP1 ISZERO PUSH2 0xBB4 JUMPI RETURNDATASIZE PUSH1 0x0 DUP1 RETURNDATACOPY RETURNDATASIZE PUSH1 0x0 REVERT JUMPDEST POP POP POP POP PUSH1 0x40 MLOAD DUP1 PUSH1 0xA0 ADD PUSH1 0x40 MSTORE DUP1 CALLER PUSH20 0xFFFFFFFFFFFFFFFFFFFFFFFFFFFFFFFFFFFFFFFF AND DUP2 MSTORE PUSH1 0x20 ADD TIMESTAMP DUP2 MSTORE PUSH1 0x20 ADD PUSH1 0x0 DUP2 MSTORE PUSH1 0x20 ADD PUSH1 0x0 ISZERO ISZERO DUP2 MSTORE PUSH1 0x20 ADD DUP4 PUSH20 0xFFFFFFFFFFFFFFFFFFFFFFFFFFFFFFFFFFFFFFFF AND DUP2 MSTORE POP PUSH1 0x3 PUSH1 0x0 DUP5 PUSH20 0xFFFFFFFFFFFFFFFFFFFFFFFFFFFFFFFFFFFFFFFF AND PUSH20 0xFFFFFFFFFFFFFFFFFFFFFFFFFFFFFFFFFFFFFFFF AND DUP2 MSTORE PUSH1 0x20 ADD SWAP1 DUP2 MSTORE PUSH1 0x20 ADD PUSH1 0x0 KECCAK256 PUSH1 0x0 DUP7 DUP7 DUP6 DUP2 DUP2 LT PUSH2 0xC63 JUMPI PUSH2 0xC62 PUSH2 0x2490 JUMP JUMPDEST JUMPDEST SWAP1 POP PUSH1 0x20 MUL ADD CALLDATALOAD DUP2 MSTORE PUSH1 0x20 ADD SWAP1 DUP2 MSTORE PUSH1 0x20 ADD PUSH1 0x0 KECCAK256 PUSH1 0x0 DUP3 ADD MLOAD DUP2 PUSH1 0x0 ADD PUSH1 0x0 PUSH2 0x100 EXP DUP2 SLOAD DUP2 PUSH20 0xFFFFFFFFFFFFFFFFFFFFFFFFFFFFFFFFFFFFFFFF MUL NOT AND SWAP1 DUP4 PUSH20 0xFFFFFFFFFFFFFFFFFFFFFFFFFFFFFFFFFFFFFFFF AND MUL OR SWAP1 SSTORE POP PUSH1 0x20 DUP3 ADD MLOAD DUP2 PUSH1 0x1 ADD SSTORE PUSH1 0x40 DUP3 ADD MLOAD DUP2 PUSH1 0x2 ADD SSTORE PUSH1 0x60 DUP3 ADD MLOAD DUP2 PUSH1 0x3 ADD PUSH1 0x0 PUSH2 0x100 EXP DUP2 SLOAD DUP2 PUSH1 0xFF MUL NOT AND SWAP1 DUP4 ISZERO ISZERO MUL OR SWAP1 SSTORE POP PUSH1 0x80 DUP3 ADD MLOAD DUP2 PUSH1 0x3 ADD PUSH1 0x1 PUSH2 0x100 EXP DUP2 SLOAD DUP2 PUSH20 0xFFFFFFFFFFFFFFFFFFFFFFFFFFFFFFFFFFFFFFFF MUL NOT AND SWAP1 DUP4 PUSH20 0xFFFFFFFFFFFFFFFFFFFFFFFFFFFFFFFFFFFFFFFF AND MUL OR SWAP1 SSTORE POP SWAP1 POP POP DUP1 DUP1 PUSH2 0xD48 SWAP1 PUSH2 0x26C3 JUMP JUMPDEST SWAP2 POP POP PUSH2 0xA25 JUMP JUMPDEST POP CALLER PUSH20 0xFFFFFFFFFFFFFFFFFFFFFFFFFFFFFFFFFFFFFFFF AND PUSH32 0x458BE0227BCCC9E803DEC79BD16767EEAF9925D2CE708EEED7AE1F3621F968F9 DUP5 DUP5 PUSH1 0x40 MLOAD PUSH2 0xD99 SWAP3 SWAP2 SWAP1 PUSH2 0x299B JUMP JUMPDEST PUSH1 0x40 MLOAD DUP1 SWAP2 SUB SWAP1 LOG2 PUSH1 0x1 DUP1 DUP2 SWAP1 SSTORE POP POP POP POP JUMP JUMPDEST PUSH1 0x2 SLOAD DUP2 JUMP JUMPDEST PUSH2 0xDBB PUSH2 0x1ADD JUMP JUMPDEST PUSH2 0xDC5 PUSH1 0x0 PUSH2 0x1B5B JUMP JUMPDEST JUMP JUMPDEST PUSH1 0x0 DUP1 PUSH1 0x0 SWAP1 SLOAD SWAP1 PUSH2 0x100 EXP SWAP1 DIV PUSH20 0xFFFFFFFFFFFFFFFFFFFFFFFFFFFFFFFFFFFFFFFF AND SWAP1 POP SWAP1 JUMP JUMPDEST PUSH2 0xE0F CALLER PUSH20 0xFFFFFFFFFFFFFFFFFFFFFFFFFFFFFFFFFFFFFFFF AND PUSH2 0x18DC JUMP JUMPDEST ISZERO PUSH2 0xE4F JUMPI PUSH1 0x40 MLOAD PUSH32 0x8C379A000000000000000000000000000000000000000000000000000000000 DUP2 MSTORE PUSH1 0x4 ADD PUSH2 0xE46 SWAP1 PUSH2 0x2398 JUMP JUMPDEST PUSH1 0x40 MLOAD DUP1 SWAP2 SUB SWAP1 REVERT JUMPDEST ORIGIN PUSH20 0xFFFFFFFFFFFFFFFFFFFFFFFFFFFFFFFFFFFFFFFF AND CALLER PUSH20 0xFFFFFFFFFFFFFFFFFFFFFFFFFFFFFFFFFFFFFFFF AND EQ PUSH2 0xEBD JUMPI PUSH1 0x40 MLOAD PUSH32 0x8C379A000000000000000000000000000000000000000000000000000000000 DUP2 MSTORE PUSH1 0x4 ADD PUSH2 0xEB4 SWAP1 PUSH2 0x2404 JUMP JUMPDEST PUSH1 0x40 MLOAD DUP1 SWAP2 SUB SWAP1 REVERT JUMPDEST PUSH1 0x2 PUSH1 0x1 SLOAD SUB PUSH2 0xF02 JUMPI PUSH1 0x40 MLOAD PUSH32 0x8C379A000000000000000000000000000000000000000000000000000000000 DUP2 MSTORE PUSH1 0x4 ADD PUSH2 0xEF9 SWAP1 PUSH2 0x2804 JUMP JUMPDEST PUSH1 0x40 MLOAD DUP1 SWAP2 SUB SWAP1 REVERT JUMPDEST PUSH1 0x2 PUSH1 0x1 DUP2 SWAP1 SSTORE POP PUSH1 0x0 DUP4 DUP4 SWAP1 POP GT PUSH2 0xF50 JUMPI PUSH1 0x40 MLOAD PUSH32 0x8C379A000000000000000000000000000000000000000000000000000000000 DUP2 MSTORE PUSH1 0x4 ADD PUSH2 0xF47 SWAP1 PUSH2 0x2470 JUMP JUMPDEST PUSH1 0x40 MLOAD DUP1 SWAP2 SUB SWAP1 REVERT JUMPDEST PUSH1 0x0 JUMPDEST DUP4 DUP4 SWAP1 POP DUP2 LT ISZERO PUSH2 0x1459 JUMPI PUSH1 0x0 PUSH1 0x3 PUSH1 0x0 DUP5 PUSH20 0xFFFFFFFFFFFFFFFFFFFFFFFFFFFFFFFFFFFFFFFF AND PUSH20 0xFFFFFFFFFFFFFFFFFFFFFFFFFFFFFFFFFFFFFFFF AND DUP2 MSTORE PUSH1 0x20 ADD SWAP1 DUP2 MSTORE PUSH1 0x20 ADD PUSH1 0x0 KECCAK256 PUSH1 0x0 DUP7 DUP7 DUP6 DUP2 DUP2 LT PUSH2 0xFB4 JUMPI PUSH2 0xFB3 PUSH2 0x2490 JUMP JUMPDEST JUMPDEST SWAP1 POP PUSH1 0x20 MUL ADD CALLDATALOAD DUP2 MSTORE PUSH1 0x20 ADD SWAP1 DUP2 MSTORE PUSH1 0x20 ADD PUSH1 0x0 KECCAK256 PUSH1 0x40 MLOAD DUP1 PUSH1 0xA0 ADD PUSH1 0x40 MSTORE SWAP1 DUP2 PUSH1 0x0 DUP3 ADD PUSH1 0x0 SWAP1 SLOAD SWAP1 PUSH2 0x100 EXP SWAP1 DIV PUSH20 0xFFFFFFFFFFFFFFFFFFFFFFFFFFFFFFFFFFFFFFFF AND PUSH20 0xFFFFFFFFFFFFFFFFFFFFFFFFFFFFFFFFFFFFFFFF AND PUSH20 0xFFFFFFFFFFFFFFFFFFFFFFFFFFFFFFFFFFFFFFFF AND DUP2 MSTORE PUSH1 0x20 ADD PUSH1 0x1 DUP3 ADD SLOAD DUP2 MSTORE PUSH1 0x20 ADD PUSH1 0x2 DUP3 ADD SLOAD DUP2 MSTORE PUSH1 0x20 ADD PUSH1 0x3 DUP3 ADD PUSH1 0x0 SWAP1 SLOAD SWAP1 PUSH2 0x100 EXP SWAP1 DIV PUSH1 0xFF AND ISZERO ISZERO ISZERO ISZERO DUP2 MSTORE PUSH1 0x20 ADD PUSH1 0x3 DUP3 ADD PUSH1 0x1 SWAP1 SLOAD SWAP1 PUSH2 0x100 EXP SWAP1 DIV PUSH20 0xFFFFFFFFFFFFFFFFFFFFFFFFFFFFFFFFFFFFFFFF AND PUSH20 0xFFFFFFFFFFFFFFFFFFFFFFFFFFFFFFFFFFFFFFFF AND PUSH20 0xFFFFFFFFFFFFFFFFFFFFFFFFFFFFFFFFFFFFFFFF AND DUP2 MSTORE POP POP SWAP1 POP CALLER PUSH20 0xFFFFFFFFFFFFFFFFFFFFFFFFFFFFFFFFFFFFFFFF AND DUP2 PUSH1 0x0 ADD MLOAD PUSH20 0xFFFFFFFFFFFFFFFFFFFFFFFFFFFFFFFFFFFFFFFF AND EQ PUSH2 0x1123 JUMPI PUSH1 0x40 MLOAD PUSH32 0x8C379A000000000000000000000000000000000000000000000000000000000 DUP2 MSTORE PUSH1 0x4 ADD PUSH2 0x111A SWAP1 PUSH2 0x250B JUMP JUMPDEST PUSH1 0x40 MLOAD DUP1 SWAP2 SUB SWAP1 REVERT JUMPDEST TIMESTAMP PUSH1 0x2 SLOAD DUP3 PUSH1 0x20 ADD MLOAD PUSH2 0x1136 SWAP2 SWAP1 PUSH2 0x255A JUMP JUMPDEST LT PUSH2 0x1176 JUMPI PUSH1 0x40 MLOAD PUSH32 0x8C379A000000000000000000000000000000000000000000000000000000000 DUP2 MSTORE PUSH1 0x4 ADD PUSH2 0x116D SWAP1 PUSH2 0x2A0B JUMP JUMPDEST PUSH1 0x40 MLOAD DUP1 SWAP2 SUB SWAP1 REVERT JUMPDEST DUP1 PUSH1 0x60 ADD MLOAD ISZERO PUSH2 0x11BB JUMPI PUSH1 0x40 MLOAD PUSH32 0x8C379A000000000000000000000000000000000000000000000000000000000 DUP2 MSTORE PUSH1 0x4 ADD PUSH2 0x11B2 SWAP1 PUSH2 0x2646 JUMP JUMPDEST PUSH1 0x40 MLOAD DUP1 SWAP2 SUB SWAP1 REVERT JUMPDEST DUP3 PUSH20 0xFFFFFFFFFFFFFFFFFFFFFFFFFFFFFFFFFFFFFFFF AND PUSH4 0x23B872DD ADDRESS CALLER DUP9 DUP9 DUP8 DUP2 DUP2 LT PUSH2 0x11EC JUMPI PUSH2 0x11EB PUSH2 0x2490 JUMP JUMPDEST JUMPDEST SWAP1 POP PUSH1 0x20 MUL ADD CALLDATALOAD PUSH1 0x40 MLOAD DUP5 PUSH4 0xFFFFFFFF AND PUSH1 0xE0 SHL DUP2 MSTORE PUSH1 0x4 ADD PUSH2 0x1211 SWAP4 SWAP3 SWAP2 SWAP1 PUSH2 0x2964 JUMP JUMPDEST PUSH1 0x0 PUSH1 0x40 MLOAD DUP1 DUP4 SUB DUP2 PUSH1 0x0 DUP8 DUP1 EXTCODESIZE ISZERO DUP1 ISZERO PUSH2 0x122B JUMPI PUSH1 0x0 DUP1 REVERT JUMPDEST POP GAS CALL ISZERO DUP1 ISZERO PUSH2 0x123F JUMPI RETURNDATASIZE PUSH1 0x0 DUP1 RETURNDATACOPY RETURNDATASIZE PUSH1 0x0 REVERT JUMPDEST POP POP POP POP PUSH1 0x0 PUSH2 0x1268 DUP7 DUP7 DUP6 DUP2 DUP2 LT PUSH2 0x125B JUMPI PUSH2 0x125A PUSH2 0x2490 JUMP JUMPDEST JUMPDEST SWAP1 POP PUSH1 0x20 MUL ADD CALLDATALOAD DUP6 PUSH2 0x18FF JUMP JUMPDEST SWAP1 POP PUSH1 0x0 DUP3 PUSH1 0x40 ADD MLOAD DUP3 PUSH2 0x127C SWAP2 SWAP1 PUSH2 0x2666 JUMP JUMPDEST SWAP1 POP PUSH1 0x4 PUSH1 0x0 DUP7 PUSH20 0xFFFFFFFFFFFFFFFFFFFFFFFFFFFFFFFFFFFFFFFF AND PUSH20 0xFFFFFFFFFFFFFFFFFFFFFFFFFFFFFFFFFFFFFFFF AND DUP2 MSTORE PUSH1 0x20 ADD SWAP1 DUP2 MSTORE PUSH1 0x20 ADD PUSH1 0x0 KECCAK256 PUSH1 0x0 ADD PUSH1 0x0 SWAP1 SLOAD SWAP1 PUSH2 0x100 EXP SWAP1 DIV PUSH20 0xFFFFFFFFFFFFFFFFFFFFFFFFFFFFFFFFFFFFFFFF AND PUSH20 0xFFFFFFFFFFFFFFFFFFFFFFFFFFFFFFFFFFFFFFFF AND PUSH4 0x40C10F19 CALLER DUP4 PUSH1 0x40 MLOAD DUP4 PUSH4 0xFFFFFFFF AND PUSH1 0xE0 SHL DUP2 MSTORE PUSH1 0x4 ADD PUSH2 0x131B SWAP3 SWAP2 SWAP1 PUSH2 0x269A JUMP JUMPDEST PUSH1 0x0 PUSH1 0x40 MLOAD DUP1 DUP4 SUB DUP2 PUSH1 0x0 DUP8 DUP1 EXTCODESIZE ISZERO DUP1 ISZERO PUSH2 0x1335 JUMPI PUSH1 0x0 DUP1 REVERT JUMPDEST POP GAS CALL ISZERO DUP1 ISZERO PUSH2 0x1349 JUMPI RETURNDATASIZE PUSH1 0x0 DUP1 RETURNDATACOPY RETURNDATASIZE PUSH1 0x0 REVERT JUMPDEST POP POP POP POP DUP2 PUSH1 0x3 PUSH1 0x0 DUP8 PUSH20 0xFFFFFFFFFFFFFFFFFFFFFFFFFFFFFFFFFFFFFFFF AND PUSH20 0xFFFFFFFFFFFFFFFFFFFFFFFFFFFFFFFFFFFFFFFF AND DUP2 MSTORE PUSH1 0x20 ADD SWAP1 DUP2 MSTORE PUSH1 0x20 ADD PUSH1 0x0 KECCAK256 PUSH1 0x0 DUP10 DUP10 DUP9 DUP2 DUP2 LT PUSH2 0x13A2 JUMPI PUSH2 0x13A1 PUSH2 0x2490 JUMP JUMPDEST JUMPDEST SWAP1 POP PUSH1 0x20 MUL ADD CALLDATALOAD DUP2 MSTORE PUSH1 0x20 ADD SWAP1 DUP2 MSTORE PUSH1 0x20 ADD PUSH1 0x0 KECCAK256 PUSH1 0x2 ADD DUP2 SWAP1 SSTORE POP PUSH1 0x1 PUSH1 0x3 PUSH1 0x0 DUP8 PUSH20 0xFFFFFFFFFFFFFFFFFFFFFFFFFFFFFFFFFFFFFFFF AND PUSH20 0xFFFFFFFFFFFFFFFFFFFFFFFFFFFFFFFFFFFFFFFF AND DUP2 MSTORE PUSH1 0x20 ADD SWAP1 DUP2 MSTORE PUSH1 0x20 ADD PUSH1 0x0 KECCAK256 PUSH1 0x0 DUP10 DUP10 DUP9 DUP2 DUP2 LT PUSH2 0x1414 JUMPI PUSH2 0x1413 PUSH2 0x2490 JUMP JUMPDEST JUMPDEST SWAP1 POP PUSH1 0x20 MUL ADD CALLDATALOAD DUP2 MSTORE PUSH1 0x20 ADD SWAP1 DUP2 MSTORE PUSH1 0x20 ADD PUSH1 0x0 KECCAK256 PUSH1 0x3 ADD PUSH1 0x0 PUSH2 0x100 EXP DUP2 SLOAD DUP2 PUSH1 0xFF MUL NOT AND SWAP1 DUP4 ISZERO ISZERO MUL OR SWAP1 SSTORE POP POP POP POP DUP1 DUP1 PUSH2 0x1451 SWAP1 PUSH2 0x26C3 JUMP JUMPDEST SWAP2 POP POP PUSH2 0xF53 JUMP JUMPDEST POP CALLER PUSH20 0xFFFFFFFFFFFFFFFFFFFFFFFFFFFFFFFFFFFFFFFF AND PUSH32 0x5CB48022479B9AC3BFB10A27965DC010ACFFC9FC1BC9A52F0B18975B944B54CA DUP5 DUP5 PUSH1 0x40 MLOAD PUSH2 0x14A2 SWAP3 SWAP2 SWAP1 PUSH2 0x299B JUMP JUMPDEST PUSH1 0x40 MLOAD DUP1 SWAP2 SUB SWAP1 LOG2 PUSH1 0x1 DUP1 DUP2 SWAP1 SSTORE POP POP POP POP JUMP JUMPDEST PUSH1 0x3 PUSH1 0x20 MSTORE DUP2 PUSH1 0x0 MSTORE PUSH1 0x40 PUSH1 0x0 KECCAK256 PUSH1 0x20 MSTORE DUP1 PUSH1 0x0 MSTORE PUSH1 0x40 PUSH1 0x0 KECCAK256 PUSH1 0x0 SWAP2 POP SWAP2 POP POP DUP1 PUSH1 0x0 ADD PUSH1 0x0 SWAP1 SLOAD SWAP1 PUSH2 0x100 EXP SWAP1 DIV PUSH20 0xFFFFFFFFFFFFFFFFFFFFFFFFFFFFFFFFFFFFFFFF AND SWAP1 DUP1 PUSH1 0x1 ADD SLOAD SWAP1 DUP1 PUSH1 0x2 ADD SLOAD SWAP1 DUP1 PUSH1 0x3 ADD PUSH1 0x0 SWAP1 SLOAD SWAP1 PUSH2 0x100 EXP SWAP1 DIV PUSH1 0xFF AND SWAP1 DUP1 PUSH1 0x3 ADD PUSH1 0x1 SWAP1 SLOAD SWAP1 PUSH2 0x100 EXP SWAP1 DIV PUSH20 0xFFFFFFFFFFFFFFFFFFFFFFFFFFFFFFFFFFFFFFFF AND SWAP1 POP DUP6 JUMP JUMPDEST PUSH1 0x0 PUSH1 0x3 PUSH1 0x0 DUP4 PUSH20 0xFFFFFFFFFFFFFFFFFFFFFFFFFFFFFFFFFFFFFFFF AND PUSH20 0xFFFFFFFFFFFFFFFFFFFFFFFFFFFFFFFFFFFFFFFF AND DUP2 MSTORE PUSH1 0x20 ADD SWAP1 DUP2 MSTORE PUSH1 0x20 ADD PUSH1 0x0 KECCAK256 PUSH1 0x0 DUP5 DUP2 MSTORE PUSH1 0x20 ADD SWAP1 DUP2 MSTORE PUSH1 0x20 ADD PUSH1 0x0 KECCAK256 PUSH1 0x2 ADD SLOAD SWAP1 POP SWAP3 SWAP2 POP POP JUMP JUMPDEST PUSH1 0x5 SLOAD DUP2 JUMP JUMPDEST PUSH1 0x4 PUSH1 0x20 MSTORE DUP1 PUSH1 0x0 MSTORE PUSH1 0x40 PUSH1 0x0 KECCAK256 PUSH1 0x0 SWAP2 POP SWAP1 POP DUP1 PUSH1 0x0 ADD PUSH1 0x0 SWAP1 SLOAD SWAP1 PUSH2 0x100 EXP SWAP1 DIV PUSH20 0xFFFFFFFFFFFFFFFFFFFFFFFFFFFFFFFFFFFFFFFF AND SWAP1 DUP1 PUSH1 0x1 ADD SLOAD SWAP1 DUP1 PUSH1 0x2 ADD SLOAD SWAP1 POP DUP4 JUMP JUMPDEST PUSH2 0x15FC PUSH2 0x1ADD JUMP JUMPDEST PUSH1 0x0 DUP2 GT PUSH2 0x163F JUMPI PUSH1 0x40 MLOAD PUSH32 0x8C379A000000000000000000000000000000000000000000000000000000000 DUP2 MSTORE PUSH1 0x4 ADD PUSH2 0x1636 SWAP1 PUSH2 0x2A77 JUMP JUMPDEST PUSH1 0x40 MLOAD DUP1 SWAP2 SUB SWAP1 REVERT JUMPDEST DUP1 PUSH1 0x2 DUP2 SWAP1 SSTORE POP PUSH32 0x8249EC545E68F6F1E1230133CA48C704D831A7F8E635DED80F3DD9E99B09BB2F DUP2 PUSH1 0x40 MLOAD PUSH2 0x1675 SWAP2 SWAP1 PUSH2 0x1D89 JUMP JUMPDEST PUSH1 0x40 MLOAD DUP1 SWAP2 SUB SWAP1 LOG1 POP JUMP JUMPDEST PUSH2 0x1688 PUSH2 0x1ADD JUMP JUMPDEST PUSH1 0x0 JUMPDEST DUP5 MLOAD DUP2 LT ISZERO PUSH2 0x1852 JUMPI DUP4 DUP2 DUP2 MLOAD DUP2 LT PUSH2 0x16A7 JUMPI PUSH2 0x16A6 PUSH2 0x2490 JUMP JUMPDEST JUMPDEST PUSH1 0x20 MUL PUSH1 0x20 ADD ADD MLOAD PUSH1 0x4 PUSH1 0x0 DUP8 DUP5 DUP2 MLOAD DUP2 LT PUSH2 0x16C6 JUMPI PUSH2 0x16C5 PUSH2 0x2490 JUMP JUMPDEST JUMPDEST PUSH1 0x20 MUL PUSH1 0x20 ADD ADD MLOAD PUSH20 0xFFFFFFFFFFFFFFFFFFFFFFFFFFFFFFFFFFFFFFFF AND PUSH20 0xFFFFFFFFFFFFFFFFFFFFFFFFFFFFFFFFFFFFFFFF AND DUP2 MSTORE PUSH1 0x20 ADD SWAP1 DUP2 MSTORE PUSH1 0x20 ADD PUSH1 0x0 KECCAK256 PUSH1 0x0 ADD PUSH1 0x0 PUSH2 0x100 EXP DUP2 SLOAD DUP2 PUSH20 0xFFFFFFFFFFFFFFFFFFFFFFFFFFFFFFFFFFFFFFFF MUL NOT AND SWAP1 DUP4 PUSH20 0xFFFFFFFFFFFFFFFFFFFFFFFFFFFFFFFFFFFFFFFF AND MUL OR SWAP1 SSTORE POP DUP3 DUP2 DUP2 MLOAD DUP2 LT PUSH2 0x175C JUMPI PUSH2 0x175B PUSH2 0x2490 JUMP JUMPDEST JUMPDEST PUSH1 0x20 MUL PUSH1 0x20 ADD ADD MLOAD PUSH1 0x4 PUSH1 0x0 DUP8 DUP5 DUP2 MLOAD DUP2 LT PUSH2 0x177B JUMPI PUSH2 0x177A PUSH2 0x2490 JUMP JUMPDEST JUMPDEST PUSH1 0x20 MUL PUSH1 0x20 ADD ADD MLOAD PUSH20 0xFFFFFFFFFFFFFFFFFFFFFFFFFFFFFFFFFFFFFFFF AND PUSH20 0xFFFFFFFFFFFFFFFFFFFFFFFFFFFFFFFFFFFFFFFF AND DUP2 MSTORE PUSH1 0x20 ADD SWAP1 DUP2 MSTORE PUSH1 0x20 ADD PUSH1 0x0 KECCAK256 PUSH1 0x1 ADD DUP2 SWAP1 SSTORE POP DUP2 DUP2 DUP2 MLOAD DUP2 LT PUSH2 0x17D7 JUMPI PUSH2 0x17D6 PUSH2 0x2490 JUMP JUMPDEST JUMPDEST PUSH1 0x20 MUL PUSH1 0x20 ADD ADD MLOAD PUSH1 0x4 PUSH1 0x0 DUP8 DUP5 DUP2 MLOAD DUP2 LT PUSH2 0x17F6 JUMPI PUSH2 0x17F5 PUSH2 0x2490 JUMP JUMPDEST JUMPDEST PUSH1 0x20 MUL PUSH1 0x20 ADD ADD MLOAD PUSH20 0xFFFFFFFFFFFFFFFFFFFFFFFFFFFFFFFFFFFFFFFF AND PUSH20 0xFFFFFFFFFFFFFFFFFFFFFFFFFFFFFFFFFFFFFFFF AND DUP2 MSTORE PUSH1 0x20 ADD SWAP1 DUP2 MSTORE PUSH1 0x20 ADD PUSH1 0x0 KECCAK256 PUSH1 0x2 ADD DUP2 SWAP1 SSTORE POP DUP1 DUP1 PUSH2 0x184A SWAP1 PUSH2 0x26C3 JUMP JUMPDEST SWAP2 POP POP PUSH2 0x168B JUMP JUMPDEST POP POP POP POP POP JUMP JUMPDEST PUSH2 0x1861 PUSH2 0x1ADD JUMP JUMPDEST PUSH1 0x0 PUSH20 0xFFFFFFFFFFFFFFFFFFFFFFFFFFFFFFFFFFFFFFFF AND DUP2 PUSH20 0xFFFFFFFFFFFFFFFFFFFFFFFFFFFFFFFFFFFFFFFF AND SUB PUSH2 0x18D0 JUMPI PUSH1 0x40 MLOAD PUSH32 0x8C379A000000000000000000000000000000000000000000000000000000000 DUP2 MSTORE PUSH1 0x4 ADD PUSH2 0x18C7 SWAP1 PUSH2 0x2B09 JUMP JUMPDEST PUSH1 0x40 MLOAD DUP1 SWAP2 SUB SWAP1 REVERT JUMPDEST PUSH2 0x18D9 DUP2 PUSH2 0x1B5B JUMP JUMPDEST POP JUMP JUMPDEST PUSH1 0x0 DUP1 DUP3 PUSH20 0xFFFFFFFFFFFFFFFFFFFFFFFFFFFFFFFFFFFFFFFF AND EXTCODESIZE GT SWAP1 POP SWAP2 SWAP1 POP JUMP JUMPDEST PUSH1 0x0 DUP1 PUSH1 0x3 PUSH1 0x0 DUP5 PUSH20 0xFFFFFFFFFFFFFFFFFFFFFFFFFFFFFFFFFFFFFFFF AND PUSH20 0xFFFFFFFFFFFFFFFFFFFFFFFFFFFFFFFFFFFFFFFF AND DUP2 MSTORE PUSH1 0x20 ADD SWAP1 DUP2 MSTORE PUSH1 0x20 ADD PUSH1 0x0 KECCAK256 PUSH1 0x0 DUP6 DUP2 MSTORE PUSH1 0x20 ADD SWAP1 DUP2 MSTORE PUSH1 0x20 ADD PUSH1 0x0 KECCAK256 PUSH1 0x40 MLOAD DUP1 PUSH1 0xA0 ADD PUSH1 0x40 MSTORE SWAP1 DUP2 PUSH1 0x0 DUP3 ADD PUSH1 0x0 SWAP1 SLOAD SWAP1 PUSH2 0x100 EXP SWAP1 DIV PUSH20 0xFFFFFFFFFFFFFFFFFFFFFFFFFFFFFFFFFFFFFFFF AND PUSH20 0xFFFFFFFFFFFFFFFFFFFFFFFFFFFFFFFFFFFFFFFF AND PUSH20 0xFFFFFFFFFFFFFFFFFFFFFFFFFFFFFFFFFFFFFFFF AND DUP2 MSTORE PUSH1 0x20 ADD PUSH1 0x1 DUP3 ADD SLOAD DUP2 MSTORE PUSH1 0x20 ADD PUSH1 0x2 DUP3 ADD SLOAD DUP2 MSTORE PUSH1 0x20 ADD PUSH1 0x3 DUP3 ADD PUSH1 0x0 SWAP1 SLOAD SWAP1 PUSH2 0x100 EXP SWAP1 DIV PUSH1 0xFF AND ISZERO ISZERO ISZERO ISZERO DUP2 MSTORE PUSH1 0x20 ADD PUSH1 0x3 DUP3 ADD PUSH1 0x1 SWAP1 SLOAD SWAP1 PUSH2 0x100 EXP SWAP1 DIV PUSH20 0xFFFFFFFFFFFFFFFFFFFFFFFFFFFFFFFFFFFFFFFF AND PUSH20 0xFFFFFFFFFFFFFFFFFFFFFFFFFFFFFFFFFFFFFFFF AND PUSH20 0xFFFFFFFFFFFFFFFFFFFFFFFFFFFFFFFFFFFFFFFF AND DUP2 MSTORE POP POP SWAP1 POP PUSH1 0x0 DUP2 PUSH1 0x20 ADD MLOAD TIMESTAMP PUSH2 0x1A4C SWAP2 SWAP1 PUSH2 0x2666 JUMP JUMPDEST SWAP1 POP PUSH1 0x0 PUSH1 0x2 SLOAD DUP3 LT ISZERO PUSH2 0x1A66 JUMPI PUSH1 0x0 SWAP4 POP POP POP POP PUSH2 0x1AD7 JUMP JUMPDEST PUSH1 0x5 SLOAD PUSH1 0x2 SLOAD DUP4 PUSH2 0x1A77 SWAP2 SWAP1 PUSH2 0x2666 JUMP JUMPDEST PUSH1 0x4 PUSH1 0x0 DUP9 PUSH20 0xFFFFFFFFFFFFFFFFFFFFFFFFFFFFFFFFFFFFFFFF AND PUSH20 0xFFFFFFFFFFFFFFFFFFFFFFFFFFFFFFFFFFFFFFFF AND DUP2 MSTORE PUSH1 0x20 ADD SWAP1 DUP2 MSTORE PUSH1 0x20 ADD PUSH1 0x0 KECCAK256 PUSH1 0x1 ADD SLOAD PUSH2 0x1AC4 SWAP2 SWAP1 PUSH2 0x2B29 JUMP JUMPDEST PUSH2 0x1ACE SWAP2 SWAP1 PUSH2 0x2BB2 JUMP JUMPDEST SWAP1 POP DUP1 SWAP4 POP POP POP POP JUMPDEST SWAP3 SWAP2 POP POP JUMP JUMPDEST PUSH2 0x1AE5 PUSH2 0x1C1F JUMP JUMPDEST PUSH20 0xFFFFFFFFFFFFFFFFFFFFFFFFFFFFFFFFFFFFFFFF AND PUSH2 0x1B03 PUSH2 0xDC7 JUMP JUMPDEST PUSH20 0xFFFFFFFFFFFFFFFFFFFFFFFFFFFFFFFFFFFFFFFF AND EQ PUSH2 0x1B59 JUMPI PUSH1 0x40 MLOAD PUSH32 0x8C379A000000000000000000000000000000000000000000000000000000000 DUP2 MSTORE PUSH1 0x4 ADD PUSH2 0x1B50 SWAP1 PUSH2 0x2C2F JUMP JUMPDEST PUSH1 0x40 MLOAD DUP1 SWAP2 SUB SWAP1 REVERT JUMPDEST JUMP JUMPDEST PUSH1 0x0 DUP1 PUSH1 0x0 SWAP1 SLOAD SWAP1 PUSH2 0x100 EXP SWAP1 DIV PUSH20 0xFFFFFFFFFFFFFFFFFFFFFFFFFFFFFFFFFFFFFFFF AND SWAP1 POP DUP2 PUSH1 0x0 DUP1 PUSH2 0x100 EXP DUP2 SLOAD DUP2 PUSH20 0xFFFFFFFFFFFFFFFFFFFFFFFFFFFFFFFFFFFFFFFF MUL NOT AND SWAP1 DUP4 PUSH20 0xFFFFFFFFFFFFFFFFFFFFFFFFFFFFFFFFFFFFFFFF AND MUL OR SWAP1 SSTORE POP DUP2 PUSH20 0xFFFFFFFFFFFFFFFFFFFFFFFFFFFFFFFFFFFFFFFF AND DUP2 PUSH20 0xFFFFFFFFFFFFFFFFFFFFFFFFFFFFFFFFFFFFFFFF AND PUSH32 0x8BE0079C531659141344CD1FD0A4F28419497F9722A3DAAFE3B4186F6B6457E0 PUSH1 0x40 MLOAD PUSH1 0x40 MLOAD DUP1 SWAP2 SUB SWAP1 LOG3 POP POP JUMP JUMPDEST PUSH1 0x0 CALLER SWAP1 POP SWAP1 JUMP JUMPDEST PUSH1 0x0 PUSH1 0x40 MLOAD SWAP1 POP SWAP1 JUMP JUMPDEST PUSH1 0x0 DUP1 REVERT JUMPDEST PUSH1 0x0 DUP1 REVERT JUMPDEST PUSH1 0x0 DUP1 REVERT JUMPDEST PUSH1 0x0 DUP1 REVERT JUMPDEST PUSH1 0x0 DUP1 REVERT JUMPDEST PUSH1 0x0 DUP1 DUP4 PUSH1 0x1F DUP5 ADD SLT PUSH2 0x1C60 JUMPI PUSH2 0x1C5F PUSH2 0x1C3B JUMP JUMPDEST JUMPDEST DUP3 CALLDATALOAD SWAP1 POP PUSH8 0xFFFFFFFFFFFFFFFF DUP2 GT ISZERO PUSH2 0x1C7D JUMPI PUSH2 0x1C7C PUSH2 0x1C40 JUMP JUMPDEST JUMPDEST PUSH1 0x20 DUP4 ADD SWAP2 POP DUP4 PUSH1 0x20 DUP3 MUL DUP4 ADD GT ISZERO PUSH2 0x1C99 JUMPI PUSH2 0x1C98 PUSH2 0x1C45 JUMP JUMPDEST JUMPDEST SWAP3 POP SWAP3 SWAP1 POP JUMP JUMPDEST PUSH1 0x0 PUSH20 0xFFFFFFFFFFFFFFFFFFFFFFFFFFFFFFFFFFFFFFFF DUP3 AND SWAP1 POP SWAP2 SWAP1 POP JUMP JUMPDEST PUSH1 0x0 PUSH2 0x1CCB DUP3 PUSH2 0x1CA0 JUMP JUMPDEST SWAP1 POP SWAP2 SWAP1 POP JUMP JUMPDEST PUSH1 0x0 PUSH2 0x1CDD DUP3 PUSH2 0x1CC0 JUMP JUMPDEST SWAP1 POP SWAP2 SWAP1 POP JUMP JUMPDEST PUSH2 0x1CED DUP2 PUSH2 0x1CD2 JUMP JUMPDEST DUP2 EQ PUSH2 0x1CF8 JUMPI PUSH1 0x0 DUP1 REVERT JUMPDEST POP JUMP JUMPDEST PUSH1 0x0 DUP2 CALLDATALOAD SWAP1 POP PUSH2 0x1D0A DUP2 PUSH2 0x1CE4 JUMP JUMPDEST SWAP3 SWAP2 POP POP JUMP JUMPDEST PUSH1 0x0 DUP1 PUSH1 0x0 PUSH1 0x40 DUP5 DUP7 SUB SLT ISZERO PUSH2 0x1D29 JUMPI PUSH2 0x1D28 PUSH2 0x1C31 JUMP JUMPDEST JUMPDEST PUSH1 0x0 DUP5 ADD CALLDATALOAD PUSH8 0xFFFFFFFFFFFFFFFF DUP2 GT ISZERO PUSH2 0x1D47 JUMPI PUSH2 0x1D46 PUSH2 0x1C36 JUMP JUMPDEST JUMPDEST PUSH2 0x1D53 DUP7 DUP3 DUP8 ADD PUSH2 0x1C4A JUMP JUMPDEST SWAP4 POP SWAP4 POP POP PUSH1 0x20 PUSH2 0x1D66 DUP7 DUP3 DUP8 ADD PUSH2 0x1CFB JUMP JUMPDEST SWAP2 POP POP SWAP3 POP SWAP3 POP SWAP3 JUMP JUMPDEST PUSH1 0x0 DUP2 SWAP1 POP SWAP2 SWAP1 POP JUMP JUMPDEST PUSH2 0x1D83 DUP2 PUSH2 0x1D70 JUMP JUMPDEST DUP3 MSTORE POP POP JUMP JUMPDEST PUSH1 0x0 PUSH1 0x20 DUP3 ADD SWAP1 POP PUSH2 0x1D9E PUSH1 0x0 DUP4 ADD DUP5 PUSH2 0x1D7A JUMP JUMPDEST SWAP3 SWAP2 POP POP JUMP JUMPDEST PUSH2 0x1DAD DUP2 PUSH2 0x1CC0 JUMP JUMPDEST DUP3 MSTORE POP POP JUMP JUMPDEST PUSH1 0x0 PUSH1 0x20 DUP3 ADD SWAP1 POP PUSH2 0x1DC8 PUSH1 0x0 DUP4 ADD DUP5 PUSH2 0x1DA4 JUMP JUMPDEST SWAP3 SWAP2 POP POP JUMP JUMPDEST PUSH2 0x1DD7 DUP2 PUSH2 0x1D70 JUMP JUMPDEST DUP2 EQ PUSH2 0x1DE2 JUMPI PUSH1 0x0 DUP1 REVERT JUMPDEST POP JUMP JUMPDEST PUSH1 0x0 DUP2 CALLDATALOAD SWAP1 POP PUSH2 0x1DF4 DUP2 PUSH2 0x1DCE JUMP JUMPDEST SWAP3 SWAP2 POP POP JUMP JUMPDEST PUSH1 0x0 DUP1 PUSH1 0x40 DUP4 DUP6 SUB SLT ISZERO PUSH2 0x1E11 JUMPI PUSH2 0x1E10 PUSH2 0x1C31 JUMP JUMPDEST JUMPDEST PUSH1 0x0 PUSH2 0x1E1F DUP6 DUP3 DUP7 ADD PUSH2 0x1CFB JUMP JUMPDEST SWAP3 POP POP PUSH1 0x20 PUSH2 0x1E30 DUP6 DUP3 DUP7 ADD PUSH2 0x1DE5 JUMP JUMPDEST SWAP2 POP POP SWAP3 POP SWAP3 SWAP1 POP JUMP JUMPDEST PUSH1 0x0 DUP2 ISZERO ISZERO SWAP1 POP SWAP2 SWAP1 POP JUMP JUMPDEST PUSH2 0x1E4F DUP2 PUSH2 0x1E3A JUMP JUMPDEST DUP3 MSTORE POP POP JUMP JUMPDEST PUSH1 0x0 DUP2 SWAP1 POP SWAP2 SWAP1 POP JUMP JUMPDEST PUSH1 0x0 PUSH2 0x1E7A PUSH2 0x1E75 PUSH2 0x1E70 DUP5 PUSH2 0x1CA0 JUMP JUMPDEST PUSH2 0x1E55 JUMP JUMPDEST PUSH2 0x1CA0 JUMP JUMPDEST SWAP1 POP SWAP2 SWAP1 POP JUMP JUMPDEST PUSH1 0x0 PUSH2 0x1E8C DUP3 PUSH2 0x1E5F JUMP JUMPDEST SWAP1 POP SWAP2 SWAP1 POP JUMP JUMPDEST PUSH1 0x0 PUSH2 0x1E9E DUP3 PUSH2 0x1E81 JUMP JUMPDEST SWAP1 POP SWAP2 SWAP1 POP JUMP JUMPDEST PUSH2 0x1EAE DUP2 PUSH2 0x1E93 JUMP JUMPDEST DUP3 MSTORE POP POP JUMP JUMPDEST PUSH1 0x0 PUSH1 0xA0 DUP3 ADD SWAP1 POP PUSH2 0x1EC9 PUSH1 0x0 DUP4 ADD DUP9 PUSH2 0x1DA4 JUMP JUMPDEST PUSH2 0x1ED6 PUSH1 0x20 DUP4 ADD DUP8 PUSH2 0x1D7A JUMP JUMPDEST PUSH2 0x1EE3 PUSH1 0x40 DUP4 ADD DUP7 PUSH2 0x1D7A JUMP JUMPDEST PUSH2 0x1EF0 PUSH1 0x60 DUP4 ADD DUP6 PUSH2 0x1E46 JUMP JUMPDEST PUSH2 0x1EFD PUSH1 0x80 DUP4 ADD DUP5 PUSH2 0x1EA5 JUMP JUMPDEST SWAP7 SWAP6 POP POP POP POP POP POP JUMP JUMPDEST PUSH1 0x0 DUP1 PUSH1 0x40 DUP4 DUP6 SUB SLT ISZERO PUSH2 0x1F1E JUMPI PUSH2 0x1F1D PUSH2 0x1C31 JUMP JUMPDEST JUMPDEST PUSH1 0x0 PUSH2 0x1F2C DUP6 DUP3 DUP7 ADD PUSH2 0x1DE5 JUMP JUMPDEST SWAP3 POP POP PUSH1 0x20 PUSH2 0x1F3D DUP6 DUP3 DUP7 ADD PUSH2 0x1CFB JUMP JUMPDEST SWAP2 POP POP SWAP3 POP SWAP3 SWAP1 POP JUMP JUMPDEST PUSH1 0x0 PUSH1 0x20 DUP3 DUP5 SUB SLT ISZERO PUSH2 0x1F5D JUMPI PUSH2 0x1F5C PUSH2 0x1C31 JUMP JUMPDEST JUMPDEST PUSH1 0x0 PUSH2 0x1F6B DUP5 DUP3 DUP6 ADD PUSH2 0x1CFB JUMP JUMPDEST SWAP2 POP POP SWAP3 SWAP2 POP POP JUMP JUMPDEST PUSH1 0x0 PUSH2 0x1F7F DUP3 PUSH2 0x1E81 JUMP JUMPDEST SWAP1 POP SWAP2 SWAP1 POP JUMP JUMPDEST PUSH2 0x1F8F DUP2 PUSH2 0x1F74 JUMP JUMPDEST DUP3 MSTORE POP POP JUMP JUMPDEST PUSH1 0x0 PUSH1 0x60 DUP3 ADD SWAP1 POP PUSH2 0x1FAA PUSH1 0x0 DUP4 ADD DUP7 PUSH2 0x1F86 JUMP JUMPDEST PUSH2 0x1FB7 PUSH1 0x20 DUP4 ADD DUP6 PUSH2 0x1D7A JUMP JUMPDEST PUSH2 0x1FC4 PUSH1 0x40 DUP4 ADD DUP5 PUSH2 0x1D7A JUMP JUMPDEST SWAP5 SWAP4 POP POP POP POP JUMP JUMPDEST PUSH1 0x0 PUSH1 0x20 DUP3 DUP5 SUB SLT ISZERO PUSH2 0x1FE2 JUMPI PUSH2 0x1FE1 PUSH2 0x1C31 JUMP JUMPDEST JUMPDEST PUSH1 0x0 PUSH2 0x1FF0 DUP5 DUP3 DUP6 ADD PUSH2 0x1DE5 JUMP JUMPDEST SWAP2 POP POP SWAP3 SWAP2 POP POP JUMP JUMPDEST PUSH1 0x0 PUSH1 0x1F NOT PUSH1 0x1F DUP4 ADD AND SWAP1 POP SWAP2 SWAP1 POP JUMP JUMPDEST PUSH32 0x4E487B7100000000000000000000000000000000000000000000000000000000 PUSH1 0x0 MSTORE PUSH1 0x41 PUSH1 0x4 MSTORE PUSH1 0x24 PUSH1 0x0 REVERT JUMPDEST PUSH2 0x2042 DUP3 PUSH2 0x1FF9 JUMP JUMPDEST DUP2 ADD DUP2 DUP2 LT PUSH8 0xFFFFFFFFFFFFFFFF DUP3 GT OR ISZERO PUSH2 0x2061 JUMPI PUSH2 0x2060 PUSH2 0x200A JUMP JUMPDEST JUMPDEST DUP1 PUSH1 0x40 MSTORE POP POP POP JUMP JUMPDEST PUSH1 0x0 PUSH2 0x2074 PUSH2 0x1C27 JUMP JUMPDEST SWAP1 POP PUSH2 0x2080 DUP3 DUP3 PUSH2 0x2039 JUMP JUMPDEST SWAP2 SWAP1 POP JUMP JUMPDEST PUSH1 0x0 PUSH8 0xFFFFFFFFFFFFFFFF DUP3 GT ISZERO PUSH2 0x20A0 JUMPI PUSH2 0x209F PUSH2 0x200A JUMP JUMPDEST JUMPDEST PUSH1 0x20 DUP3 MUL SWAP1 POP PUSH1 0x20 DUP2 ADD SWAP1 POP SWAP2 SWAP1 POP JUMP JUMPDEST PUSH2 0x20BA DUP2 PUSH2 0x1CC0 JUMP JUMPDEST DUP2 EQ PUSH2 0x20C5 JUMPI PUSH1 0x0 DUP1 REVERT JUMPDEST POP JUMP JUMPDEST PUSH1 0x0 DUP2 CALLDATALOAD SWAP1 POP PUSH2 0x20D7 DUP2 PUSH2 0x20B1 JUMP JUMPDEST SWAP3 SWAP2 POP POP JUMP JUMPDEST PUSH1 0x0 PUSH2 0x20F0 PUSH2 0x20EB DUP5 PUSH2 0x2085 JUMP JUMPDEST PUSH2 0x206A JUMP JUMPDEST SWAP1 POP DUP1 DUP4 DUP3 MSTORE PUSH1 0x20 DUP3 ADD SWAP1 POP PUSH1 0x20 DUP5 MUL DUP4 ADD DUP6 DUP2 GT ISZERO PUSH2 0x2113 JUMPI PUSH2 0x2112 PUSH2 0x1C45 JUMP JUMPDEST JUMPDEST DUP4 JUMPDEST DUP2 DUP2 LT ISZERO PUSH2 0x213C JUMPI DUP1 PUSH2 0x2128 DUP9 DUP3 PUSH2 0x20C8 JUMP JUMPDEST DUP5 MSTORE PUSH1 0x20 DUP5 ADD SWAP4 POP POP PUSH1 0x20 DUP2 ADD SWAP1 POP PUSH2 0x2115 JUMP JUMPDEST POP POP POP SWAP4 SWAP3 POP POP POP JUMP JUMPDEST PUSH1 0x0 DUP3 PUSH1 0x1F DUP4 ADD SLT PUSH2 0x215B JUMPI PUSH2 0x215A PUSH2 0x1C3B JUMP JUMPDEST JUMPDEST DUP2 CALLDATALOAD PUSH2 0x216B DUP5 DUP3 PUSH1 0x20 DUP7 ADD PUSH2 0x20DD JUMP JUMPDEST SWAP2 POP POP SWAP3 SWAP2 POP POP JUMP JUMPDEST PUSH1 0x0 PUSH8 0xFFFFFFFFFFFFFFFF DUP3 GT ISZERO PUSH2 0x218F JUMPI PUSH2 0x218E PUSH2 0x200A JUMP JUMPDEST JUMPDEST PUSH1 0x20 DUP3 MUL SWAP1 POP PUSH1 0x20 DUP2 ADD SWAP1 POP SWAP2 SWAP1 POP JUMP JUMPDEST PUSH1 0x0 PUSH2 0x21B3 PUSH2 0x21AE DUP5 PUSH2 0x2174 JUMP JUMPDEST PUSH2 0x206A JUMP JUMPDEST SWAP1 POP DUP1 DUP4 DUP3 MSTORE PUSH1 0x20 DUP3 ADD SWAP1 POP PUSH1 0x20 DUP5 MUL DUP4 ADD DUP6 DUP2 GT ISZERO PUSH2 0x21D6 JUMPI PUSH2 0x21D5 PUSH2 0x1C45 JUMP JUMPDEST JUMPDEST DUP4 JUMPDEST DUP2 DUP2 LT ISZERO PUSH2 0x21FF JUMPI DUP1 PUSH2 0x21EB DUP9 DUP3 PUSH2 0x1DE5 JUMP JUMPDEST DUP5 MSTORE PUSH1 0x20 DUP5 ADD SWAP4 POP POP PUSH1 0x20 DUP2 ADD SWAP1 POP PUSH2 0x21D8 JUMP JUMPDEST POP POP POP SWAP4 SWAP3 POP POP POP JUMP JUMPDEST PUSH1 0x0 DUP3 PUSH1 0x1F DUP4 ADD SLT PUSH2 0x221E JUMPI PUSH2 0x221D PUSH2 0x1C3B JUMP JUMPDEST JUMPDEST DUP2 CALLDATALOAD PUSH2 0x222E DUP5 DUP3 PUSH1 0x20 DUP7 ADD PUSH2 0x21A0 JUMP JUMPDEST SWAP2 POP POP SWAP3 SWAP2 POP POP JUMP JUMPDEST PUSH1 0x0 DUP1 PUSH1 0x0 DUP1 PUSH1 0x80 DUP6 DUP8 SUB SLT ISZERO PUSH2 0x2251 JUMPI PUSH2 0x2250 PUSH2 0x1C31 JUMP JUMPDEST JUMPDEST PUSH1 0x0 DUP6 ADD CALLDATALOAD PUSH8 0xFFFFFFFFFFFFFFFF DUP2 GT ISZERO PUSH2 0x226F JUMPI PUSH2 0x226E PUSH2 0x1C36 JUMP JUMPDEST JUMPDEST PUSH2 0x227B DUP8 DUP3 DUP9 ADD PUSH2 0x2146 JUMP JUMPDEST SWAP5 POP POP PUSH1 0x20 DUP6 ADD CALLDATALOAD PUSH8 0xFFFFFFFFFFFFFFFF DUP2 GT ISZERO PUSH2 0x229C JUMPI PUSH2 0x229B PUSH2 0x1C36 JUMP JUMPDEST JUMPDEST PUSH2 0x22A8 DUP8 DUP3 DUP9 ADD PUSH2 0x2146 JUMP JUMPDEST SWAP4 POP POP PUSH1 0x40 DUP6 ADD CALLDATALOAD PUSH8 0xFFFFFFFFFFFFFFFF DUP2 GT ISZERO PUSH2 0x22C9 JUMPI PUSH2 0x22C8 PUSH2 0x1C36 JUMP JUMPDEST JUMPDEST PUSH2 0x22D5 DUP8 DUP3 DUP9 ADD PUSH2 0x2209 JUMP JUMPDEST SWAP3 POP POP PUSH1 0x60 DUP6 ADD CALLDATALOAD PUSH8 0xFFFFFFFFFFFFFFFF DUP2 GT ISZERO PUSH2 0x22F6 JUMPI PUSH2 0x22F5 PUSH2 0x1C36 JUMP JUMPDEST JUMPDEST PUSH2 0x2302 DUP8 DUP3 DUP9 ADD PUSH2 0x2209 JUMP JUMPDEST SWAP2 POP POP SWAP3 SWAP6 SWAP2 SWAP5 POP SWAP3 POP JUMP JUMPDEST PUSH1 0x0 PUSH1 0x20 DUP3 DUP5 SUB SLT ISZERO PUSH2 0x2324 JUMPI PUSH2 0x2323 PUSH2 0x1C31 JUMP JUMPDEST JUMPDEST PUSH1 0x0 PUSH2 0x2332 DUP5 DUP3 DUP6 ADD PUSH2 0x20C8 JUMP JUMPDEST SWAP2 POP POP SWAP3 SWAP2 POP POP JUMP JUMPDEST PUSH1 0x0 DUP3 DUP3 MSTORE PUSH1 0x20 DUP3 ADD SWAP1 POP SWAP3 SWAP2 POP POP JUMP JUMPDEST PUSH32 0x436F6E7472616374206E6F7420616C6C6F776564000000000000000000000000 PUSH1 0x0 DUP3 ADD MSTORE POP JUMP JUMPDEST PUSH1 0x0 PUSH2 0x2382 PUSH1 0x14 DUP4 PUSH2 0x233B JUMP JUMPDEST SWAP2 POP PUSH2 0x238D DUP3 PUSH2 0x234C JUMP JUMPDEST PUSH1 0x20 DUP3 ADD SWAP1 POP SWAP2 SWAP1 POP JUMP JUMPDEST PUSH1 0x0 PUSH1 0x20 DUP3 ADD SWAP1 POP DUP2 DUP2 SUB PUSH1 0x0 DUP4 ADD MSTORE PUSH2 0x23B1 DUP2 PUSH2 0x2375 JUMP JUMPDEST SWAP1 POP SWAP2 SWAP1 POP JUMP JUMPDEST PUSH32 0x50726F787920636F6E7472616374206E6F7420616C6C6F776564000000000000 PUSH1 0x0 DUP3 ADD MSTORE POP JUMP JUMPDEST PUSH1 0x0 PUSH2 0x23EE PUSH1 0x1A DUP4 PUSH2 0x233B JUMP JUMPDEST SWAP2 POP PUSH2 0x23F9 DUP3 PUSH2 0x23B8 JUMP JUMPDEST PUSH1 0x20 DUP3 ADD SWAP1 POP SWAP2 SWAP1 POP JUMP JUMPDEST PUSH1 0x0 PUSH1 0x20 DUP3 ADD SWAP1 POP DUP2 DUP2 SUB PUSH1 0x0 DUP4 ADD MSTORE PUSH2 0x241D DUP2 PUSH2 0x23E1 JUMP JUMPDEST SWAP1 POP SWAP2 SWAP1 POP JUMP JUMPDEST PUSH32 0x4E6F20746F6B656E730000000000000000000000000000000000000000000000 PUSH1 0x0 DUP3 ADD MSTORE POP JUMP JUMPDEST PUSH1 0x0 PUSH2 0x245A PUSH1 0x9 DUP4 PUSH2 0x233B JUMP JUMPDEST SWAP2 POP PUSH2 0x2465 DUP3 PUSH2 0x2424 JUMP JUMPDEST PUSH1 0x20 DUP3 ADD SWAP1 POP SWAP2 SWAP1 POP JUMP JUMPDEST PUSH1 0x0 PUSH1 0x20 DUP3 ADD SWAP1 POP DUP2 DUP2 SUB PUSH1 0x0 DUP4 ADD MSTORE PUSH2 0x2489 DUP2 PUSH2 0x244D JUMP JUMPDEST SWAP1 POP SWAP2 SWAP1 POP JUMP JUMPDEST PUSH32 0x4E487B7100000000000000000000000000000000000000000000000000000000 PUSH1 0x0 MSTORE PUSH1 0x32 PUSH1 0x4 MSTORE PUSH1 0x24 PUSH1 0x0 REVERT JUMPDEST PUSH32 0x4E6F74206120746F6B656E206F776E6572000000000000000000000000000000 PUSH1 0x0 DUP3 ADD MSTORE POP JUMP JUMPDEST PUSH1 0x0 PUSH2 0x24F5 PUSH1 0x11 DUP4 PUSH2 0x233B JUMP JUMPDEST SWAP2 POP PUSH2 0x2500 DUP3 PUSH2 0x24BF JUMP JUMPDEST PUSH1 0x20 DUP3 ADD SWAP1 POP SWAP2 SWAP1 POP JUMP JUMPDEST PUSH1 0x0 PUSH1 0x20 DUP3 ADD SWAP1 POP DUP2 DUP2 SUB PUSH1 0x0 DUP4 ADD MSTORE PUSH2 0x2524 DUP2 PUSH2 0x24E8 JUMP JUMPDEST SWAP1 POP SWAP2 SWAP1 POP JUMP JUMPDEST PUSH32 0x4E487B7100000000000000000000000000000000000000000000000000000000 PUSH1 0x0 MSTORE PUSH1 0x11 PUSH1 0x4 MSTORE PUSH1 0x24 PUSH1 0x0 REVERT JUMPDEST PUSH1 0x0 PUSH2 0x2565 DUP3 PUSH2 0x1D70 JUMP JUMPDEST SWAP2 POP PUSH2 0x2570 DUP4 PUSH2 0x1D70 JUMP JUMPDEST SWAP3 POP DUP3 DUP3 ADD SWAP1 POP DUP1 DUP3 GT ISZERO PUSH2 0x2588 JUMPI PUSH2 0x2587 PUSH2 0x252B JUMP JUMPDEST JUMPDEST SWAP3 SWAP2 POP POP JUMP JUMPDEST PUSH32 0x4E6F742061626C6520746F20636C61696D207965740000000000000000000000 PUSH1 0x0 DUP3 ADD MSTORE POP JUMP JUMPDEST PUSH1 0x0 PUSH2 0x25C4 PUSH1 0x15 DUP4 PUSH2 0x233B JUMP JUMPDEST SWAP2 POP PUSH2 0x25CF DUP3 PUSH2 0x258E JUMP JUMPDEST PUSH1 0x20 DUP3 ADD SWAP1 POP SWAP2 SWAP1 POP JUMP JUMPDEST PUSH1 0x0 PUSH1 0x20 DUP3 ADD SWAP1 POP DUP2 DUP2 SUB PUSH1 0x0 DUP4 ADD MSTORE PUSH2 0x25F3 DUP2 PUSH2 0x25B7 JUMP JUMPDEST SWAP1 POP SWAP2 SWAP1 POP JUMP JUMPDEST PUSH32 0x416C726561647920756E6C6F636B656400000000000000000000000000000000 PUSH1 0x0 DUP3 ADD MSTORE POP JUMP JUMPDEST PUSH1 0x0 PUSH2 0x2630 PUSH1 0x10 DUP4 PUSH2 0x233B JUMP JUMPDEST SWAP2 POP PUSH2 0x263B DUP3 PUSH2 0x25FA JUMP JUMPDEST PUSH1 0x20 DUP3 ADD SWAP1 POP SWAP2 SWAP1 POP JUMP JUMPDEST PUSH1 0x0 PUSH1 0x20 DUP3 ADD SWAP1 POP DUP2 DUP2 SUB PUSH1 0x0 DUP4 ADD MSTORE PUSH2 0x265F DUP2 PUSH2 0x2623 JUMP JUMPDEST SWAP1 POP SWAP2 SWAP1 POP JUMP JUMPDEST PUSH1 0x0 PUSH2 0x2671 DUP3 PUSH2 0x1D70 JUMP JUMPDEST SWAP2 POP PUSH2 0x267C DUP4 PUSH2 0x1D70 JUMP JUMPDEST SWAP3 POP DUP3 DUP3 SUB SWAP1 POP DUP2 DUP2 GT ISZERO PUSH2 0x2694 JUMPI PUSH2 0x2693 PUSH2 0x252B JUMP JUMPDEST JUMPDEST SWAP3 SWAP2 POP POP JUMP JUMPDEST PUSH1 0x0 PUSH1 0x40 DUP3 ADD SWAP1 POP PUSH2 0x26AF PUSH1 0x0 DUP4 ADD DUP6 PUSH2 0x1DA4 JUMP JUMPDEST PUSH2 0x26BC PUSH1 0x20 DUP4 ADD DUP5 PUSH2 0x1D7A JUMP JUMPDEST SWAP4 SWAP3 POP POP POP JUMP JUMPDEST PUSH1 0x0 PUSH2 0x26CE DUP3 PUSH2 0x1D70 JUMP JUMPDEST SWAP2 POP PUSH32 0xFFFFFFFFFFFFFFFFFFFFFFFFFFFFFFFFFFFFFFFFFFFFFFFFFFFFFFFFFFFFFFFF DUP3 SUB PUSH2 0x2700 JUMPI PUSH2 0x26FF PUSH2 0x252B JUMP JUMPDEST JUMPDEST PUSH1 0x1 DUP3 ADD SWAP1 POP SWAP2 SWAP1 POP JUMP JUMPDEST PUSH1 0x0 DUP3 DUP3 MSTORE PUSH1 0x20 DUP3 ADD SWAP1 POP SWAP3 SWAP2 POP POP JUMP JUMPDEST PUSH1 0x0 DUP1 REVERT JUMPDEST DUP3 DUP2 DUP4 CALLDATACOPY POP POP POP JUMP JUMPDEST PUSH1 0x0 PUSH2 0x2736 DUP4 DUP6 PUSH2 0x270B JUMP JUMPDEST SWAP4 POP PUSH32 0x7FFFFFFFFFFFFFFFFFFFFFFFFFFFFFFFFFFFFFFFFFFFFFFFFFFFFFFFFFFFFFF DUP4 GT ISZERO PUSH2 0x2769 JUMPI PUSH2 0x2768 PUSH2 0x271C JUMP JUMPDEST JUMPDEST PUSH1 0x20 DUP4 MUL SWAP3 POP PUSH2 0x277A DUP4 DUP6 DUP5 PUSH2 0x2721 JUMP JUMPDEST DUP3 DUP5 ADD SWAP1 POP SWAP4 SWAP3 POP POP POP JUMP JUMPDEST PUSH1 0x0 PUSH1 0x40 DUP3 ADD SWAP1 POP DUP2 DUP2 SUB PUSH1 0x0 DUP4 ADD MSTORE PUSH2 0x27A1 DUP2 DUP6 DUP8 PUSH2 0x272A JUMP JUMPDEST SWAP1 POP PUSH2 0x27B0 PUSH1 0x20 DUP4 ADD DUP5 PUSH2 0x1D7A JUMP JUMPDEST SWAP5 SWAP4 POP POP POP POP JUMP JUMPDEST PUSH32 0x5265656E7472616E637947756172643A207265656E7472616E742063616C6C00 PUSH1 0x0 DUP3 ADD MSTORE POP JUMP JUMPDEST PUSH1 0x0 PUSH2 0x27EE PUSH1 0x1F DUP4 PUSH2 0x233B JUMP JUMPDEST SWAP2 POP PUSH2 0x27F9 DUP3 PUSH2 0x27B8 JUMP JUMPDEST PUSH1 0x20 DUP3 ADD SWAP1 POP SWAP2 SWAP1 POP JUMP JUMPDEST PUSH1 0x0 PUSH1 0x20 DUP3 ADD SWAP1 POP DUP2 DUP2 SUB PUSH1 0x0 DUP4 ADD MSTORE PUSH2 0x281D DUP2 PUSH2 0x27E1 JUMP JUMPDEST SWAP1 POP SWAP2 SWAP1 POP JUMP JUMPDEST PUSH32 0x5374616B696E673A205265676973746572205374616B696E6720627920616464 PUSH1 0x0 DUP3 ADD MSTORE PUSH32 0x5374616B696E6700000000000000000000000000000000000000000000000000 PUSH1 0x20 DUP3 ADD MSTORE POP JUMP JUMPDEST PUSH1 0x0 PUSH2 0x2880 PUSH1 0x27 DUP4 PUSH2 0x233B JUMP JUMPDEST SWAP2 POP PUSH2 0x288B DUP3 PUSH2 0x2824 JUMP JUMPDEST PUSH1 0x40 DUP3 ADD SWAP1 POP SWAP2 SWAP1 POP JUMP JUMPDEST PUSH1 0x0 PUSH1 0x20 DUP3 ADD SWAP1 POP DUP2 DUP2 SUB PUSH1 0x0 DUP4 ADD MSTORE PUSH2 0x28AF DUP2 PUSH2 0x2873 JUMP JUMPDEST SWAP1 POP SWAP2 SWAP1 POP JUMP JUMPDEST PUSH1 0x0 DUP2 MLOAD SWAP1 POP PUSH2 0x28C5 DUP2 PUSH2 0x20B1 JUMP JUMPDEST SWAP3 SWAP2 POP POP JUMP JUMPDEST PUSH1 0x0 PUSH1 0x20 DUP3 DUP5 SUB SLT ISZERO PUSH2 0x28E1 JUMPI PUSH2 0x28E0 PUSH2 0x1C31 JUMP JUMPDEST JUMPDEST PUSH1 0x0 PUSH2 0x28EF DUP5 DUP3 DUP6 ADD PUSH2 0x28B6 JUMP JUMPDEST SWAP2 POP POP SWAP3 SWAP2 POP POP JUMP JUMPDEST PUSH32 0x596F7520646F6E277420686F6C64207468697320746F6B656E00000000000000 PUSH1 0x0 DUP3 ADD MSTORE POP JUMP JUMPDEST PUSH1 0x0 PUSH2 0x292E PUSH1 0x19 DUP4 PUSH2 0x233B JUMP JUMPDEST SWAP2 POP PUSH2 0x2939 DUP3 PUSH2 0x28F8 JUMP JUMPDEST PUSH1 0x20 DUP3 ADD SWAP1 POP SWAP2 SWAP1 POP JUMP JUMPDEST PUSH1 0x0 PUSH1 0x20 DUP3 ADD SWAP1 POP DUP2 DUP2 SUB PUSH1 0x0 DUP4 ADD MSTORE PUSH2 0x295D DUP2 PUSH2 0x2921 JUMP JUMPDEST SWAP1 POP SWAP2 SWAP1 POP JUMP JUMPDEST PUSH1 0x0 PUSH1 0x60 DUP3 ADD SWAP1 POP PUSH2 0x2979 PUSH1 0x0 DUP4 ADD DUP7 PUSH2 0x1DA4 JUMP JUMPDEST PUSH2 0x2986 PUSH1 0x20 DUP4 ADD DUP6 PUSH2 0x1DA4 JUMP JUMPDEST PUSH2 0x2993 PUSH1 0x40 DUP4 ADD DUP5 PUSH2 0x1D7A JUMP JUMPDEST SWAP5 SWAP4 POP POP POP POP JUMP JUMPDEST PUSH1 0x0 PUSH1 0x20 DUP3 ADD SWAP1 POP DUP2 DUP2 SUB PUSH1 0x0 DUP4 ADD MSTORE PUSH2 0x29B6 DUP2 DUP5 DUP7 PUSH2 0x272A JUMP JUMPDEST SWAP1 POP SWAP4 SWAP3 POP POP POP JUMP JUMPDEST PUSH32 0x4E6F742061626C6520746F20756E6C6F636B2079657400000000000000000000 PUSH1 0x0 DUP3 ADD MSTORE POP JUMP JUMPDEST PUSH1 0x0 PUSH2 0x29F5 PUSH1 0x16 DUP4 PUSH2 0x233B JUMP JUMPDEST SWAP2 POP PUSH2 0x2A00 DUP3 PUSH2 0x29BF JUMP JUMPDEST PUSH1 0x20 DUP3 ADD SWAP1 POP SWAP2 SWAP1 POP JUMP JUMPDEST PUSH1 0x0 PUSH1 0x20 DUP3 ADD SWAP1 POP DUP2 DUP2 SUB PUSH1 0x0 DUP4 ADD MSTORE PUSH2 0x2A24 DUP2 PUSH2 0x29E8 JUMP JUMPDEST SWAP1 POP SWAP2 SWAP1 POP JUMP JUMPDEST PUSH32 0x496E76616C6964206C6F636B20706572696F642E000000000000000000000000 PUSH1 0x0 DUP3 ADD MSTORE POP JUMP JUMPDEST PUSH1 0x0 PUSH2 0x2A61 PUSH1 0x14 DUP4 PUSH2 0x233B JUMP JUMPDEST SWAP2 POP PUSH2 0x2A6C DUP3 PUSH2 0x2A2B JUMP JUMPDEST PUSH1 0x20 DUP3 ADD SWAP1 POP SWAP2 SWAP1 POP JUMP JUMPDEST PUSH1 0x0 PUSH1 0x20 DUP3 ADD SWAP1 POP DUP2 DUP2 SUB PUSH1 0x0 DUP4 ADD MSTORE PUSH2 0x2A90 DUP2 PUSH2 0x2A54 JUMP JUMPDEST SWAP1 POP SWAP2 SWAP1 POP JUMP JUMPDEST PUSH32 0x4F776E61626C653A206E6577206F776E657220697320746865207A65726F2061 PUSH1 0x0 DUP3 ADD MSTORE PUSH32 0x6464726573730000000000000000000000000000000000000000000000000000 PUSH1 0x20 DUP3 ADD MSTORE POP JUMP JUMPDEST PUSH1 0x0 PUSH2 0x2AF3 PUSH1 0x26 DUP4 PUSH2 0x233B JUMP JUMPDEST SWAP2 POP PUSH2 0x2AFE DUP3 PUSH2 0x2A97 JUMP JUMPDEST PUSH1 0x40 DUP3 ADD SWAP1 POP SWAP2 SWAP1 POP JUMP JUMPDEST PUSH1 0x0 PUSH1 0x20 DUP3 ADD SWAP1 POP DUP2 DUP2 SUB PUSH1 0x0 DUP4 ADD MSTORE PUSH2 0x2B22 DUP2 PUSH2 0x2AE6 JUMP JUMPDEST SWAP1 POP SWAP2 SWAP1 POP JUMP JUMPDEST PUSH1 0x0 PUSH2 0x2B34 DUP3 PUSH2 0x1D70 JUMP JUMPDEST SWAP2 POP PUSH2 0x2B3F DUP4 PUSH2 0x1D70 JUMP JUMPDEST SWAP3 POP DUP2 PUSH32 0xFFFFFFFFFFFFFFFFFFFFFFFFFFFFFFFFFFFFFFFFFFFFFFFFFFFFFFFFFFFFFFFF DIV DUP4 GT DUP3 ISZERO ISZERO AND ISZERO PUSH2 0x2B78 JUMPI PUSH2 0x2B77 PUSH2 0x252B JUMP JUMPDEST JUMPDEST DUP3 DUP3 MUL SWAP1 POP SWAP3 SWAP2 POP POP JUMP JUMPDEST PUSH32 0x4E487B7100000000000000000000000000000000000000000000000000000000 PUSH1 0x0 MSTORE PUSH1 0x12 PUSH1 0x4 MSTORE PUSH1 0x24 PUSH1 0x0 REVERT JUMPDEST PUSH1 0x0 PUSH2 0x2BBD DUP3 PUSH2 0x1D70 JUMP JUMPDEST SWAP2 POP PUSH2 0x2BC8 DUP4 PUSH2 0x1D70 JUMP JUMPDEST SWAP3 POP DUP3 PUSH2 0x2BD8 JUMPI PUSH2 0x2BD7 PUSH2 0x2B83 JUMP JUMPDEST JUMPDEST DUP3 DUP3 DIV SWAP1 POP SWAP3 SWAP2 POP POP JUMP JUMPDEST PUSH32 0x4F776E61626C653A2063616C6C6572206973206E6F7420746865206F776E6572 PUSH1 0x0 DUP3 ADD MSTORE POP JUMP JUMPDEST PUSH1 0x0 PUSH2 0x2C19 PUSH1 0x20 DUP4 PUSH2 0x233B JUMP JUMPDEST SWAP2 POP PUSH2 0x2C24 DUP3 PUSH2 0x2BE3 JUMP JUMPDEST PUSH1 0x20 DUP3 ADD SWAP1 POP SWAP2 SWAP1 POP JUMP JUMPDEST PUSH1 0x0 PUSH1 0x20 DUP3 ADD SWAP1 POP DUP2 DUP2 SUB PUSH1 0x0 DUP4 ADD MSTORE PUSH2 0x2C48 DUP2 PUSH2 0x2C0C JUMP JUMPDEST SWAP1 POP SWAP2 SWAP1 POP JUMP INVALID LOG2 PUSH5 0x6970667358 0x22 SLT KECCAK256 DUP1 CALLCODE 0xB8 DUP6 0x5D 0xED 0xB9 SIGNEXTEND SWAP12 BALANCE JUMPI 0xD1 0xD8 CALLDATASIZE SWAP16 DUP14 0xB5 DUP12 PUSH25 0xCED92DC077AF9CC4B0BD3856B264736F6C6343000810003300 "
				},
				"gasEstimates": {
					"creation": {
						"codeDepositCost": "2279400",
						"executionCost": "infinite",
						"totalCost": "infinite"
					},
					"external": {
						"WAVE()": "2496",
						"addStakingNfts(address[],address[],uint256[],uint256[])": "infinite",
						"addStakingNfts(uint256)": "infinite",
						"claimRewards(uint256[],address)": "infinite",
						"claimedRewards(uint256,address)": "infinite",
						"lockInfo(address,uint256)": "infinite",
						"lockNFT(uint256[],address)": "infinite",
						"lockPeriod()": "2474",
						"nftInfo(address)": "infinite",
						"owner()": "2611",
						"renounceOwnership()": "30465",
						"transferOwnership(address)": "30832",
						"unlockNFT(uint256[],address)": "infinite"
					},
					"internal": {
						"_rewardAmount(uint256,contract IERC721)": "infinite"
					}
				},
				"methodIdentifiers": {
					"WAVE()": "c69d1923",
					"addStakingNfts(address[],address[],uint256[],uint256[])": "eee00ed0",
					"addStakingNfts(uint256)": "ea112c1b",
					"claimRewards(uint256[],address)": "0520537f",
					"claimedRewards(uint256,address)": "b33068c4",
					"lockInfo(address,uint256)": "b2520a7c",
					"lockNFT(uint256[],address)": "1902732e",
					"lockPeriod()": "3fd8b02f",
					"nftInfo(address)": "e9545b92",
					"owner()": "8da5cb5b",
					"renounceOwnership()": "715018a6",
					"transferOwnership(address)": "f2fde38b",
					"unlockNFT(uint256[],address)": "9f3625f0"
				}
			},
			"storageLayout": {
				"storage": [
					{
						"astId": 7,
						"contract": "contracts/Staking.sol:NFTStaking1",
						"label": "_owner",
						"offset": 0,
						"slot": "0",
						"type": "t_address"
					},
					{
						"astId": 123,
						"contract": "contracts/Staking.sol:NFTStaking1",
						"label": "_status",
						"offset": 0,
						"slot": "1",
						"type": "t_uint256"
					},
					{
						"astId": 614,
						"contract": "contracts/Staking.sol:NFTStaking1",
						"label": "lockPeriod",
						"offset": 0,
						"slot": "2",
						"type": "t_uint256"
					},
					{
						"astId": 634,
						"contract": "contracts/Staking.sol:NFTStaking1",
						"label": "lockInfo",
						"offset": 0,
						"slot": "3",
						"type": "t_mapping(t_contract(IERC721)268,t_mapping(t_uint256,t_struct(LockInfo)626_storage))"
					},
					{
						"astId": 648,
						"contract": "contracts/Staking.sol:NFTStaking1",
						"label": "nftInfo",
						"offset": 0,
						"slot": "4",
						"type": "t_mapping(t_contract(IERC721)268,t_struct(stakeNftInfo)642_storage)"
					},
					{
						"astId": 651,
						"contract": "contracts/Staking.sol:NFTStaking1",
						"label": "WAVE",
						"offset": 0,
						"slot": "5",
						"type": "t_uint256"
					}
				],
				"types": {
					"t_address": {
						"encoding": "inplace",
						"label": "address",
						"numberOfBytes": "20"
					},
					"t_bool": {
						"encoding": "inplace",
						"label": "bool",
						"numberOfBytes": "1"
					},
					"t_contract(IERC721)268": {
						"encoding": "inplace",
						"label": "contract IERC721",
						"numberOfBytes": "20"
					},
					"t_contract(IRewardsToken)1293": {
						"encoding": "inplace",
						"label": "contract IRewardsToken",
						"numberOfBytes": "20"
					},
					"t_mapping(t_contract(IERC721)268,t_mapping(t_uint256,t_struct(LockInfo)626_storage))": {
						"encoding": "mapping",
						"key": "t_contract(IERC721)268",
						"label": "mapping(contract IERC721 => mapping(uint256 => struct NFTStaking1.LockInfo))",
						"numberOfBytes": "32",
						"value": "t_mapping(t_uint256,t_struct(LockInfo)626_storage)"
					},
					"t_mapping(t_contract(IERC721)268,t_struct(stakeNftInfo)642_storage)": {
						"encoding": "mapping",
						"key": "t_contract(IERC721)268",
						"label": "mapping(contract IERC721 => struct NFTStaking1.stakeNftInfo)",
						"numberOfBytes": "32",
						"value": "t_struct(stakeNftInfo)642_storage"
					},
					"t_mapping(t_uint256,t_struct(LockInfo)626_storage)": {
						"encoding": "mapping",
						"key": "t_uint256",
						"label": "mapping(uint256 => struct NFTStaking1.LockInfo)",
						"numberOfBytes": "32",
						"value": "t_struct(LockInfo)626_storage"
					},
					"t_struct(LockInfo)626_storage": {
						"encoding": "inplace",
						"label": "struct NFTStaking1.LockInfo",
						"members": [
							{
								"astId": 616,
								"contract": "contracts/Staking.sol:NFTStaking1",
								"label": "owner",
								"offset": 0,
								"slot": "0",
								"type": "t_address"
							},
							{
								"astId": 618,
								"contract": "contracts/Staking.sol:NFTStaking1",
								"label": "lockedTime",
								"offset": 0,
								"slot": "1",
								"type": "t_uint256"
							},
							{
								"astId": 620,
								"contract": "contracts/Staking.sol:NFTStaking1",
								"label": "claimedRewards",
								"offset": 0,
								"slot": "2",
								"type": "t_uint256"
							},
							{
								"astId": 622,
								"contract": "contracts/Staking.sol:NFTStaking1",
								"label": "isUnlocked",
								"offset": 0,
								"slot": "3",
								"type": "t_bool"
							},
							{
								"astId": 625,
								"contract": "contracts/Staking.sol:NFTStaking1",
								"label": "contractAddress",
								"offset": 1,
								"slot": "3",
								"type": "t_contract(IERC721)268"
							}
						],
						"numberOfBytes": "128"
					},
					"t_struct(stakeNftInfo)642_storage": {
						"encoding": "inplace",
						"label": "struct NFTStaking1.stakeNftInfo",
						"members": [
							{
								"astId": 637,
								"contract": "contracts/Staking.sol:NFTStaking1",
								"label": "rewardsToken",
								"offset": 0,
								"slot": "0",
								"type": "t_contract(IRewardsToken)1293"
							},
							{
								"astId": 639,
								"contract": "contracts/Staking.sol:NFTStaking1",
								"label": "rewardsPerWave",
								"offset": 0,
								"slot": "1",
								"type": "t_uint256"
							},
							{
								"astId": 641,
								"contract": "contracts/Staking.sol:NFTStaking1",
								"label": "rewardPercentage",
								"offset": 0,
								"slot": "2",
								"type": "t_uint256"
							}
						],
						"numberOfBytes": "96"
					},
					"t_uint256": {
						"encoding": "inplace",
						"label": "uint256",
						"numberOfBytes": "32"
					}
				}
			},
			"userdoc": {
				"kind": "user",
				"methods": {
					"WAVE()": {
						"notice": "CONSTANTS "
					}
				},
				"version": 1
			}
		}
	}
}