{
	"contracts/Staking.sol": {
		"NFTStaking1": {
			"abi": [
				{
					"inputs": [
						{
							"internalType": "address[]",
							"name": "_stakeNFT",
							"type": "address[]"
						},
						{
							"internalType": "address[]",
							"name": "_rewardsToken",
							"type": "address[]"
						},
						{
							"internalType": "uint256",
							"name": "_lockPeriod",
							"type": "uint256"
						},
						{
							"internalType": "uint256[]",
							"name": "_rewardPerWave",
							"type": "uint256[]"
						},
						{
							"internalType": "uint256[]",
							"name": "_rewardPercentage",
							"type": "uint256[]"
						},
						{
							"internalType": "uint256",
							"name": "_wave",
							"type": "uint256"
						}
					],
					"stateMutability": "nonpayable",
					"type": "constructor"
				},
				{
					"anonymous": false,
					"inputs": [
						{
							"indexed": false,
							"internalType": "uint256",
							"name": "lockPeriod",
							"type": "uint256"
						}
					],
					"name": "LockPeriodUpdated",
					"type": "event"
				},
				{
					"anonymous": false,
					"inputs": [
						{
							"indexed": true,
							"internalType": "address",
							"name": "owner",
							"type": "address"
						},
						{
							"indexed": false,
							"internalType": "uint256[]",
							"name": "tokenIds",
							"type": "uint256[]"
						}
					],
					"name": "NFTLocked",
					"type": "event"
				},
				{
					"anonymous": false,
					"inputs": [
						{
							"indexed": true,
							"internalType": "address",
							"name": "owner",
							"type": "address"
						},
						{
							"indexed": false,
							"internalType": "uint256[]",
							"name": "tokenIds",
							"type": "uint256[]"
						}
					],
					"name": "NFTUnLocked",
					"type": "event"
				},
				{
					"anonymous": false,
					"inputs": [
						{
							"indexed": true,
							"internalType": "address",
							"name": "previousOwner",
							"type": "address"
						},
						{
							"indexed": true,
							"internalType": "address",
							"name": "newOwner",
							"type": "address"
						}
					],
					"name": "OwnershipTransferred",
					"type": "event"
				},
				{
					"anonymous": false,
					"inputs": [
						{
							"indexed": true,
							"internalType": "address",
							"name": "owner",
							"type": "address"
						},
						{
							"indexed": false,
							"internalType": "uint256[]",
							"name": "tokenIds",
							"type": "uint256[]"
						},
						{
							"indexed": false,
							"internalType": "uint256",
							"name": "rewards",
							"type": "uint256"
						}
					],
					"name": "RewardsClaimed",
					"type": "event"
				},
				{
					"inputs": [],
					"name": "WAVE",
					"outputs": [
						{
							"internalType": "uint256",
							"name": "",
							"type": "uint256"
						}
					],
					"stateMutability": "view",
					"type": "function"
				},
				{
					"inputs": [
						{
							"internalType": "uint256[]",
							"name": "_tokenIds",
							"type": "uint256[]"
						}
					],
					"name": "claimRewards",
					"outputs": [],
					"stateMutability": "nonpayable",
					"type": "function"
				},
				{
					"inputs": [
						{
							"internalType": "uint256",
							"name": "_tokenId",
							"type": "uint256"
						}
					],
					"name": "claimedRewards",
					"outputs": [
						{
							"internalType": "uint256",
							"name": "",
							"type": "uint256"
						}
					],
					"stateMutability": "view",
					"type": "function"
				},
				{
					"inputs": [
						{
							"internalType": "uint256[]",
							"name": "_tokenIds",
							"type": "uint256[]"
						},
						{
							"internalType": "contract IERC721",
							"name": "nftAddress",
							"type": "address"
						}
					],
					"name": "lockNFT",
					"outputs": [],
					"stateMutability": "nonpayable",
					"type": "function"
				},
				{
					"inputs": [],
					"name": "lockPeriod",
					"outputs": [
						{
							"internalType": "uint256",
							"name": "",
							"type": "uint256"
						}
					],
					"stateMutability": "view",
					"type": "function"
				},
				{
					"inputs": [],
					"name": "owner",
					"outputs": [
						{
							"internalType": "address",
							"name": "",
							"type": "address"
						}
					],
					"stateMutability": "view",
					"type": "function"
				},
				{
					"inputs": [],
					"name": "renounceOwnership",
					"outputs": [],
					"stateMutability": "nonpayable",
					"type": "function"
				},
				{
					"inputs": [
						{
							"internalType": "uint256",
							"name": "_lockPeriod",
							"type": "uint256"
						}
					],
					"name": "setLockPeriod",
					"outputs": [],
					"stateMutability": "nonpayable",
					"type": "function"
				},
				{
					"inputs": [
						{
							"internalType": "uint256",
							"name": "",
							"type": "uint256"
						}
					],
					"name": "tokenInfo",
					"outputs": [
						{
							"internalType": "address",
							"name": "owner",
							"type": "address"
						}
					],
					"stateMutability": "view",
					"type": "function"
				},
				{
					"inputs": [
						{
							"internalType": "address",
							"name": "newOwner",
							"type": "address"
						}
					],
					"name": "transferOwnership",
					"outputs": [],
					"stateMutability": "nonpayable",
					"type": "function"
				},
				{
					"inputs": [
						{
							"internalType": "uint256[]",
							"name": "_tokenIds",
							"type": "uint256[]"
						}
					],
					"name": "unlockNFT",
					"outputs": [],
					"stateMutability": "nonpayable",
					"type": "function"
				}
			],
			"devdoc": {
				"kind": "dev",
				"methods": {
					"claimRewards(uint256[])": {
						"details": "claim rewards",
						"params": {
							"_tokenIds": "token ids to unlock"
						}
					},
					"claimedRewards(uint256)": {
						"details": "get total claimed rewards for token id",
						"params": {
							"_tokenId": "token id to get claimed Rewards amount"
						}
					},
					"lockNFT(uint256[],address)": {
						"details": "lock NFT into the contract",
						"params": {
							"_tokenIds": "token ids to stake"
						}
					},
					"owner()": {
						"details": "Returns the address of the current owner."
					},
					"renounceOwnership()": {
						"details": "Leaves the contract without owner. It will not be possible to call `onlyOwner` functions anymore. Can only be called by the current owner. NOTE: Renouncing ownership will leave the contract without an owner, thereby removing any functionality that is only available to the owner."
					},
					"setLockPeriod(uint256)": {
						"details": "update lock period",
						"params": {
							"_lockPeriod": "lock period to set"
						}
					},
					"transferOwnership(address)": {
						"details": "Transfers ownership of the contract to a new account (`newOwner`). Can only be called by the current owner."
					},
					"unlockNFT(uint256[])": {
						"details": "unlock NFT from the contract",
						"params": {
							"_tokenIds": "token ids to unlock"
						}
					}
				},
				"version": 1
			},
			"evm": {
				"assembly": "    /* \"contracts/Staking.sol\":412:6721  contract NFTStaking1 is Ownable, ReentrancyGuard {... */\n  mstore(0x40, 0x80)\n    /* \"contracts/Staking.sol\":1644:2566  constructor(... */\n  callvalue\n  dup1\n  iszero\n  tag_1\n  jumpi\n  0x00\n  dup1\n  revert\ntag_1:\n  pop\n  mload(0x40)\n  sub(codesize, bytecodeSize)\n  dup1\n  bytecodeSize\n  dup4\n  codecopy\n  dup2\n  dup2\n  add\n  0x40\n  mstore\n  dup2\n  add\n  swap1\n  tag_2\n  swap2\n  swap1\n  tag_3\n  jump\t// in\ntag_2:\n    /* \"@openzeppelin/contracts/access/Ownable.sol\":936:968  _transferOwnership(_msgSender()) */\n  tag_8\n    /* \"@openzeppelin/contracts/access/Ownable.sol\":955:967  _msgSender() */\n  tag_9\n    /* \"@openzeppelin/contracts/access/Ownable.sol\":955:965  _msgSender */\n  shl(0x20, tag_10)\n    /* \"@openzeppelin/contracts/access/Ownable.sol\":955:967  _msgSender() */\n  0x20\n  shr\n  jump\t// in\ntag_9:\n    /* \"@openzeppelin/contracts/access/Ownable.sol\":936:954  _transferOwnership */\n  shl(0x20, tag_11)\n    /* \"@openzeppelin/contracts/access/Ownable.sol\":936:968  _transferOwnership(_msgSender()) */\n  0x20\n  shr\n  jump\t// in\ntag_8:\n    /* \"@openzeppelin/contracts/security/ReentrancyGuard.sol\":1701:1702  1 */\n  0x01\n    /* \"@openzeppelin/contracts/security/ReentrancyGuard.sol\":1806:1813  _status */\n  dup1\n    /* \"@openzeppelin/contracts/security/ReentrancyGuard.sol\":1806:1828  _status = _NOT_ENTERED */\n  dup2\n  swap1\n  sstore\n  pop\n    /* \"contracts/Staking.sol\":2150:2151  0 */\n  0x00\n    /* \"contracts/Staking.sol\":2136:2147  _lockPeriod */\n  dup5\n    /* \"contracts/Staking.sol\":2136:2151  _lockPeriod > 0 */\n  gt\n    /* \"contracts/Staking.sol\":2128:2175  require(_lockPeriod > 0, \"Invalid lock period\") */\n  tag_14\n  jumpi\n  mload(0x40)\n  0x08c379a000000000000000000000000000000000000000000000000000000000\n  dup2\n  mstore\n  0x04\n  add\n  tag_15\n  swap1\n  tag_16\n  jump\t// in\ntag_15:\n  mload(0x40)\n  dup1\n  swap2\n  sub\n  swap1\n  revert\ntag_14:\n    /* \"contracts/Staking.sol\":2193:2199  uint i */\n  0x00\n    /* \"contracts/Staking.sol\":2188:2499  for (uint i = 0; i < _stakeNFT.length; i++) {... */\ntag_17:\n    /* \"contracts/Staking.sol\":2209:2218  _stakeNFT */\n  dup7\n    /* \"contracts/Staking.sol\":2209:2225  _stakeNFT.length */\n  mload\n    /* \"contracts/Staking.sol\":2205:2206  i */\n  dup2\n    /* \"contracts/Staking.sol\":2205:2225  i < _stakeNFT.length */\n  lt\n    /* \"contracts/Staking.sol\":2188:2499  for (uint i = 0; i < _stakeNFT.length; i++) {... */\n  iszero\n  tag_18\n  jumpi\n    /* \"contracts/Staking.sol\":2309:2322  _rewardsToken */\n  dup6\n    /* \"contracts/Staking.sol\":2323:2324  i */\n  dup2\n    /* \"contracts/Staking.sol\":2309:2325  _rewardsToken[i] */\n  dup2\n  mload\n  dup2\n  lt\n  tag_20\n  jumpi\n  tag_21\n  tag_22\n  jump\t// in\ntag_21:\ntag_20:\n  0x20\n  mul\n  0x20\n  add\n  add\n  mload\n    /* \"contracts/Staking.sol\":2249:2256  nftInfo */\n  0x04\n    /* \"contracts/Staking.sol\":2249:2279  nftInfo[IERC721(_stakeNFT[i])] */\n  0x00\n    /* \"contracts/Staking.sol\":2265:2274  _stakeNFT */\n  dup10\n    /* \"contracts/Staking.sol\":2275:2276  i */\n  dup5\n    /* \"contracts/Staking.sol\":2265:2277  _stakeNFT[i] */\n  dup2\n  mload\n  dup2\n  lt\n  tag_23\n  jumpi\n  tag_24\n  tag_22\n  jump\t// in\ntag_24:\ntag_23:\n  0x20\n  mul\n  0x20\n  add\n  add\n  mload\n    /* \"contracts/Staking.sol\":2249:2279  nftInfo[IERC721(_stakeNFT[i])] */\n  0xffffffffffffffffffffffffffffffffffffffff\n  and\n  0xffffffffffffffffffffffffffffffffffffffff\n  and\n  dup2\n  mstore\n  0x20\n  add\n  swap1\n  dup2\n  mstore\n  0x20\n  add\n  0x00\n  keccak256\n    /* \"contracts/Staking.sol\":2249:2292  nftInfo[IERC721(_stakeNFT[i])].rewardsToken */\n  0x00\n  add\n  0x00\n    /* \"contracts/Staking.sol\":2249:2326  nftInfo[IERC721(_stakeNFT[i])].rewardsToken = IRewardsToken(_rewardsToken[i]) */\n  0x0100\n  exp\n  dup2\n  sload\n  dup2\n  0xffffffffffffffffffffffffffffffffffffffff\n  mul\n  not\n  and\n  swap1\n  dup4\n  0xffffffffffffffffffffffffffffffffffffffff\n  and\n  mul\n  or\n  swap1\n  sstore\n  pop\n    /* \"contracts/Staking.sol\":2389:2403  _rewardPerWave */\n  dup4\n    /* \"contracts/Staking.sol\":2404:2405  i */\n  dup2\n    /* \"contracts/Staking.sol\":2389:2406  _rewardPerWave[i] */\n  dup2\n  mload\n  dup2\n  lt\n  tag_25\n  jumpi\n  tag_26\n  tag_22\n  jump\t// in\ntag_26:\ntag_25:\n  0x20\n  mul\n  0x20\n  add\n  add\n  mload\n    /* \"contracts/Staking.sol\":2341:2348  nftInfo */\n  0x04\n    /* \"contracts/Staking.sol\":2341:2371  nftInfo[IERC721(_stakeNFT[i])] */\n  0x00\n    /* \"contracts/Staking.sol\":2357:2366  _stakeNFT */\n  dup10\n    /* \"contracts/Staking.sol\":2367:2368  i */\n  dup5\n    /* \"contracts/Staking.sol\":2357:2369  _stakeNFT[i] */\n  dup2\n  mload\n  dup2\n  lt\n  tag_27\n  jumpi\n  tag_28\n  tag_22\n  jump\t// in\ntag_28:\ntag_27:\n  0x20\n  mul\n  0x20\n  add\n  add\n  mload\n    /* \"contracts/Staking.sol\":2341:2371  nftInfo[IERC721(_stakeNFT[i])] */\n  0xffffffffffffffffffffffffffffffffffffffff\n  and\n  0xffffffffffffffffffffffffffffffffffffffff\n  and\n  dup2\n  mstore\n  0x20\n  add\n  swap1\n  dup2\n  mstore\n  0x20\n  add\n  0x00\n  keccak256\n    /* \"contracts/Staking.sol\":2341:2386  nftInfo[IERC721(_stakeNFT[i])].rewardsPerWave */\n  0x01\n  add\n    /* \"contracts/Staking.sol\":2341:2406  nftInfo[IERC721(_stakeNFT[i])].rewardsPerWave = _rewardPerWave[i] */\n  dup2\n  swap1\n  sstore\n  pop\n    /* \"contracts/Staking.sol\":2471:2488  _rewardPercentage */\n  dup3\n    /* \"contracts/Staking.sol\":2489:2490  i */\n  dup2\n    /* \"contracts/Staking.sol\":2471:2491  _rewardPercentage[i] */\n  dup2\n  mload\n  dup2\n  lt\n  tag_29\n  jumpi\n  tag_30\n  tag_22\n  jump\t// in\ntag_30:\ntag_29:\n  0x20\n  mul\n  0x20\n  add\n  add\n  mload\n    /* \"contracts/Staking.sol\":2421:2428  nftInfo */\n  0x04\n    /* \"contracts/Staking.sol\":2421:2451  nftInfo[IERC721(_stakeNFT[i])] */\n  0x00\n    /* \"contracts/Staking.sol\":2437:2446  _stakeNFT */\n  dup10\n    /* \"contracts/Staking.sol\":2447:2448  i */\n  dup5\n    /* \"contracts/Staking.sol\":2437:2449  _stakeNFT[i] */\n  dup2\n  mload\n  dup2\n  lt\n  tag_31\n  jumpi\n  tag_32\n  tag_22\n  jump\t// in\ntag_32:\ntag_31:\n  0x20\n  mul\n  0x20\n  add\n  add\n  mload\n    /* \"contracts/Staking.sol\":2421:2451  nftInfo[IERC721(_stakeNFT[i])] */\n  0xffffffffffffffffffffffffffffffffffffffff\n  and\n  0xffffffffffffffffffffffffffffffffffffffff\n  and\n  dup2\n  mstore\n  0x20\n  add\n  swap1\n  dup2\n  mstore\n  0x20\n  add\n  0x00\n  keccak256\n    /* \"contracts/Staking.sol\":2421:2468  nftInfo[IERC721(_stakeNFT[i])].rewardPercentage */\n  0x02\n  add\n    /* \"contracts/Staking.sol\":2421:2491  nftInfo[IERC721(_stakeNFT[i])].rewardPercentage = _rewardPercentage[i] */\n  dup2\n  swap1\n  sstore\n  pop\n    /* \"contracts/Staking.sol\":2227:2230  i++ */\n  dup1\n  dup1\n  tag_33\n  swap1\n  tag_34\n  jump\t// in\ntag_33:\n  swap2\n  pop\n  pop\n    /* \"contracts/Staking.sol\":2188:2499  for (uint i = 0; i < _stakeNFT.length; i++) {... */\n  jump(tag_17)\ntag_18:\n  pop\n    /* \"contracts/Staking.sol\":2524:2535  _lockPeriod */\n  dup4\n    /* \"contracts/Staking.sol\":2511:2521  lockPeriod */\n  0x02\n    /* \"contracts/Staking.sol\":2511:2535  lockPeriod = _lockPeriod */\n  dup2\n  swap1\n  sstore\n  pop\n    /* \"contracts/Staking.sol\":2553:2558  _wave */\n  dup1\n    /* \"contracts/Staking.sol\":2546:2550  WAVE */\n  0x06\n    /* \"contracts/Staking.sol\":2546:2558  WAVE = _wave */\n  dup2\n  swap1\n  sstore\n  pop\n    /* \"contracts/Staking.sol\":1644:2566  constructor(... */\n  pop\n  pop\n  pop\n  pop\n  pop\n  pop\n    /* \"contracts/Staking.sol\":412:6721  contract NFTStaking1 is Ownable, ReentrancyGuard {... */\n  jump(tag_35)\n    /* \"@openzeppelin/contracts/utils/Context.sol\":640:736  function _msgSender() internal view virtual returns (address) {... */\ntag_10:\n    /* \"@openzeppelin/contracts/utils/Context.sol\":693:700  address */\n  0x00\n    /* \"@openzeppelin/contracts/utils/Context.sol\":719:729  msg.sender */\n  caller\n    /* \"@openzeppelin/contracts/utils/Context.sol\":712:729  return msg.sender */\n  swap1\n  pop\n    /* \"@openzeppelin/contracts/utils/Context.sol\":640:736  function _msgSender() internal view virtual returns (address) {... */\n  swap1\n  jump\t// out\n    /* \"@openzeppelin/contracts/access/Ownable.sol\":2433:2620  function _transferOwnership(address newOwner) internal virtual {... */\ntag_11:\n    /* \"@openzeppelin/contracts/access/Ownable.sol\":2506:2522  address oldOwner */\n  0x00\n    /* \"@openzeppelin/contracts/access/Ownable.sol\":2525:2531  _owner */\n  dup1\n  0x00\n  swap1\n  sload\n  swap1\n  0x0100\n  exp\n  swap1\n  div\n  0xffffffffffffffffffffffffffffffffffffffff\n  and\n    /* \"@openzeppelin/contracts/access/Ownable.sol\":2506:2531  address oldOwner = _owner */\n  swap1\n  pop\n    /* \"@openzeppelin/contracts/access/Ownable.sol\":2550:2558  newOwner */\n  dup2\n    /* \"@openzeppelin/contracts/access/Ownable.sol\":2541:2547  _owner */\n  0x00\n  dup1\n    /* \"@openzeppelin/contracts/access/Ownable.sol\":2541:2558  _owner = newOwner */\n  0x0100\n  exp\n  dup2\n  sload\n  dup2\n  0xffffffffffffffffffffffffffffffffffffffff\n  mul\n  not\n  and\n  swap1\n  dup4\n  0xffffffffffffffffffffffffffffffffffffffff\n  and\n  mul\n  or\n  swap1\n  sstore\n  pop\n    /* \"@openzeppelin/contracts/access/Ownable.sol\":2604:2612  newOwner */\n  dup2\n    /* \"@openzeppelin/contracts/access/Ownable.sol\":2573:2613  OwnershipTransferred(oldOwner, newOwner) */\n  0xffffffffffffffffffffffffffffffffffffffff\n  and\n    /* \"@openzeppelin/contracts/access/Ownable.sol\":2594:2602  oldOwner */\n  dup2\n    /* \"@openzeppelin/contracts/access/Ownable.sol\":2573:2613  OwnershipTransferred(oldOwner, newOwner) */\n  0xffffffffffffffffffffffffffffffffffffffff\n  and\n  0x8be0079c531659141344cd1fd0a4f28419497f9722a3daafe3b4186f6b6457e0\n  mload(0x40)\n  mload(0x40)\n  dup1\n  swap2\n  sub\n  swap1\n  log3\n    /* \"@openzeppelin/contracts/access/Ownable.sol\":2496:2620  {... */\n  pop\n    /* \"@openzeppelin/contracts/access/Ownable.sol\":2433:2620  function _transferOwnership(address newOwner) internal virtual {... */\n  pop\n  jump\t// out\n    /* \"#utility.yul\":7:82   */\ntag_38:\n    /* \"#utility.yul\":40:46   */\n  0x00\n    /* \"#utility.yul\":73:75   */\n  0x40\n    /* \"#utility.yul\":67:76   */\n  mload\n    /* \"#utility.yul\":57:76   */\n  swap1\n  pop\n    /* \"#utility.yul\":7:82   */\n  swap1\n  jump\t// out\n    /* \"#utility.yul\":88:205   */\ntag_39:\n    /* \"#utility.yul\":197:198   */\n  0x00\n    /* \"#utility.yul\":194:195   */\n  dup1\n    /* \"#utility.yul\":187:199   */\n  revert\n    /* \"#utility.yul\":211:328   */\ntag_40:\n    /* \"#utility.yul\":320:321   */\n  0x00\n    /* \"#utility.yul\":317:318   */\n  dup1\n    /* \"#utility.yul\":310:322   */\n  revert\n    /* \"#utility.yul\":334:451   */\ntag_41:\n    /* \"#utility.yul\":443:444   */\n  0x00\n    /* \"#utility.yul\":440:441   */\n  dup1\n    /* \"#utility.yul\":433:445   */\n  revert\n    /* \"#utility.yul\":457:559   */\ntag_42:\n    /* \"#utility.yul\":498:504   */\n  0x00\n    /* \"#utility.yul\":549:551   */\n  0x1f\n    /* \"#utility.yul\":545:552   */\n  not\n    /* \"#utility.yul\":540:542   */\n  0x1f\n    /* \"#utility.yul\":533:538   */\n  dup4\n    /* \"#utility.yul\":529:543   */\n  add\n    /* \"#utility.yul\":525:553   */\n  and\n    /* \"#utility.yul\":515:553   */\n  swap1\n  pop\n    /* \"#utility.yul\":457:559   */\n  swap2\n  swap1\n  pop\n  jump\t// out\n    /* \"#utility.yul\":565:745   */\ntag_43:\n    /* \"#utility.yul\":613:690   */\n  0x4e487b7100000000000000000000000000000000000000000000000000000000\n    /* \"#utility.yul\":610:611   */\n  0x00\n    /* \"#utility.yul\":603:691   */\n  mstore\n    /* \"#utility.yul\":710:714   */\n  0x41\n    /* \"#utility.yul\":707:708   */\n  0x04\n    /* \"#utility.yul\":700:715   */\n  mstore\n    /* \"#utility.yul\":734:738   */\n  0x24\n    /* \"#utility.yul\":731:732   */\n  0x00\n    /* \"#utility.yul\":724:739   */\n  revert\n    /* \"#utility.yul\":751:1032   */\ntag_44:\n    /* \"#utility.yul\":834:861   */\n  tag_72\n    /* \"#utility.yul\":856:860   */\n  dup3\n    /* \"#utility.yul\":834:861   */\n  tag_42\n  jump\t// in\ntag_72:\n    /* \"#utility.yul\":826:832   */\n  dup2\n    /* \"#utility.yul\":822:862   */\n  add\n    /* \"#utility.yul\":964:970   */\n  dup2\n    /* \"#utility.yul\":952:962   */\n  dup2\n    /* \"#utility.yul\":949:971   */\n  lt\n    /* \"#utility.yul\":928:946   */\n  0xffffffffffffffff\n    /* \"#utility.yul\":916:926   */\n  dup3\n    /* \"#utility.yul\":913:947   */\n  gt\n    /* \"#utility.yul\":910:972   */\n  or\n    /* \"#utility.yul\":907:995   */\n  iszero\n  tag_73\n  jumpi\n    /* \"#utility.yul\":975:993   */\n  tag_74\n  tag_43\n  jump\t// in\ntag_74:\n    /* \"#utility.yul\":907:995   */\ntag_73:\n    /* \"#utility.yul\":1015:1025   */\n  dup1\n    /* \"#utility.yul\":1011:1013   */\n  0x40\n    /* \"#utility.yul\":1004:1026   */\n  mstore\n    /* \"#utility.yul\":794:1032   */\n  pop\n    /* \"#utility.yul\":751:1032   */\n  pop\n  pop\n  jump\t// out\n    /* \"#utility.yul\":1038:1167   */\ntag_45:\n    /* \"#utility.yul\":1072:1078   */\n  0x00\n    /* \"#utility.yul\":1099:1119   */\n  tag_76\n  tag_38\n  jump\t// in\ntag_76:\n    /* \"#utility.yul\":1089:1119   */\n  swap1\n  pop\n    /* \"#utility.yul\":1128:1161   */\n  tag_77\n    /* \"#utility.yul\":1156:1160   */\n  dup3\n    /* \"#utility.yul\":1148:1154   */\n  dup3\n    /* \"#utility.yul\":1128:1161   */\n  tag_44\n  jump\t// in\ntag_77:\n    /* \"#utility.yul\":1038:1167   */\n  swap2\n  swap1\n  pop\n  jump\t// out\n    /* \"#utility.yul\":1173:1484   */\ntag_46:\n    /* \"#utility.yul\":1250:1254   */\n  0x00\n    /* \"#utility.yul\":1340:1358   */\n  0xffffffffffffffff\n    /* \"#utility.yul\":1332:1338   */\n  dup3\n    /* \"#utility.yul\":1329:1359   */\n  gt\n    /* \"#utility.yul\":1326:1382   */\n  iszero\n  tag_79\n  jumpi\n    /* \"#utility.yul\":1362:1380   */\n  tag_80\n  tag_43\n  jump\t// in\ntag_80:\n    /* \"#utility.yul\":1326:1382   */\ntag_79:\n    /* \"#utility.yul\":1412:1416   */\n  0x20\n    /* \"#utility.yul\":1404:1410   */\n  dup3\n    /* \"#utility.yul\":1400:1417   */\n  mul\n    /* \"#utility.yul\":1392:1417   */\n  swap1\n  pop\n    /* \"#utility.yul\":1472:1476   */\n  0x20\n    /* \"#utility.yul\":1466:1470   */\n  dup2\n    /* \"#utility.yul\":1462:1477   */\n  add\n    /* \"#utility.yul\":1454:1477   */\n  swap1\n  pop\n    /* \"#utility.yul\":1173:1484   */\n  swap2\n  swap1\n  pop\n  jump\t// out\n    /* \"#utility.yul\":1490:1607   */\ntag_47:\n    /* \"#utility.yul\":1599:1600   */\n  0x00\n    /* \"#utility.yul\":1596:1597   */\n  dup1\n    /* \"#utility.yul\":1589:1601   */\n  revert\n    /* \"#utility.yul\":1613:1739   */\ntag_48:\n    /* \"#utility.yul\":1650:1657   */\n  0x00\n    /* \"#utility.yul\":1690:1732   */\n  0xffffffffffffffffffffffffffffffffffffffff\n    /* \"#utility.yul\":1683:1688   */\n  dup3\n    /* \"#utility.yul\":1679:1733   */\n  and\n    /* \"#utility.yul\":1668:1733   */\n  swap1\n  pop\n    /* \"#utility.yul\":1613:1739   */\n  swap2\n  swap1\n  pop\n  jump\t// out\n    /* \"#utility.yul\":1745:1841   */\ntag_49:\n    /* \"#utility.yul\":1782:1789   */\n  0x00\n    /* \"#utility.yul\":1811:1835   */\n  tag_84\n    /* \"#utility.yul\":1829:1834   */\n  dup3\n    /* \"#utility.yul\":1811:1835   */\n  tag_48\n  jump\t// in\ntag_84:\n    /* \"#utility.yul\":1800:1835   */\n  swap1\n  pop\n    /* \"#utility.yul\":1745:1841   */\n  swap2\n  swap1\n  pop\n  jump\t// out\n    /* \"#utility.yul\":1847:1969   */\ntag_50:\n    /* \"#utility.yul\":1920:1944   */\n  tag_86\n    /* \"#utility.yul\":1938:1943   */\n  dup2\n    /* \"#utility.yul\":1920:1944   */\n  tag_49\n  jump\t// in\ntag_86:\n    /* \"#utility.yul\":1913:1918   */\n  dup2\n    /* \"#utility.yul\":1910:1945   */\n  eq\n    /* \"#utility.yul\":1900:1963   */\n  tag_87\n  jumpi\n    /* \"#utility.yul\":1959:1960   */\n  0x00\n    /* \"#utility.yul\":1956:1957   */\n  dup1\n    /* \"#utility.yul\":1949:1961   */\n  revert\n    /* \"#utility.yul\":1900:1963   */\ntag_87:\n    /* \"#utility.yul\":1847:1969   */\n  pop\n  jump\t// out\n    /* \"#utility.yul\":1975:2118   */\ntag_51:\n    /* \"#utility.yul\":2032:2037   */\n  0x00\n    /* \"#utility.yul\":2063:2069   */\n  dup2\n    /* \"#utility.yul\":2057:2070   */\n  mload\n    /* \"#utility.yul\":2048:2070   */\n  swap1\n  pop\n    /* \"#utility.yul\":2079:2112   */\n  tag_89\n    /* \"#utility.yul\":2106:2111   */\n  dup2\n    /* \"#utility.yul\":2079:2112   */\n  tag_50\n  jump\t// in\ntag_89:\n    /* \"#utility.yul\":1975:2118   */\n  swap3\n  swap2\n  pop\n  pop\n  jump\t// out\n    /* \"#utility.yul\":2141:2873   */\ntag_52:\n    /* \"#utility.yul\":2248:2253   */\n  0x00\n    /* \"#utility.yul\":2273:2354   */\n  tag_91\n    /* \"#utility.yul\":2289:2353   */\n  tag_92\n    /* \"#utility.yul\":2346:2352   */\n  dup5\n    /* \"#utility.yul\":2289:2353   */\n  tag_46\n  jump\t// in\ntag_92:\n    /* \"#utility.yul\":2273:2354   */\n  tag_45\n  jump\t// in\ntag_91:\n    /* \"#utility.yul\":2264:2354   */\n  swap1\n  pop\n    /* \"#utility.yul\":2374:2379   */\n  dup1\n    /* \"#utility.yul\":2403:2409   */\n  dup4\n    /* \"#utility.yul\":2396:2401   */\n  dup3\n    /* \"#utility.yul\":2389:2410   */\n  mstore\n    /* \"#utility.yul\":2437:2441   */\n  0x20\n    /* \"#utility.yul\":2430:2435   */\n  dup3\n    /* \"#utility.yul\":2426:2442   */\n  add\n    /* \"#utility.yul\":2419:2442   */\n  swap1\n  pop\n    /* \"#utility.yul\":2490:2494   */\n  0x20\n    /* \"#utility.yul\":2482:2488   */\n  dup5\n    /* \"#utility.yul\":2478:2495   */\n  mul\n    /* \"#utility.yul\":2470:2476   */\n  dup4\n    /* \"#utility.yul\":2466:2496   */\n  add\n    /* \"#utility.yul\":2519:2522   */\n  dup6\n    /* \"#utility.yul\":2511:2517   */\n  dup2\n    /* \"#utility.yul\":2508:2523   */\n  gt\n    /* \"#utility.yul\":2505:2627   */\n  iszero\n  tag_93\n  jumpi\n    /* \"#utility.yul\":2538:2617   */\n  tag_94\n  tag_47\n  jump\t// in\ntag_94:\n    /* \"#utility.yul\":2505:2627   */\ntag_93:\n    /* \"#utility.yul\":2653:2659   */\n  dup4\n    /* \"#utility.yul\":2636:2867   */\ntag_95:\n    /* \"#utility.yul\":2670:2676   */\n  dup2\n    /* \"#utility.yul\":2665:2668   */\n  dup2\n    /* \"#utility.yul\":2662:2677   */\n  lt\n    /* \"#utility.yul\":2636:2867   */\n  iszero\n  tag_97\n  jumpi\n    /* \"#utility.yul\":2745:2748   */\n  dup1\n    /* \"#utility.yul\":2774:2822   */\n  tag_98\n    /* \"#utility.yul\":2818:2821   */\n  dup9\n    /* \"#utility.yul\":2806:2816   */\n  dup3\n    /* \"#utility.yul\":2774:2822   */\n  tag_51\n  jump\t// in\ntag_98:\n    /* \"#utility.yul\":2769:2772   */\n  dup5\n    /* \"#utility.yul\":2762:2823   */\n  mstore\n    /* \"#utility.yul\":2852:2856   */\n  0x20\n    /* \"#utility.yul\":2847:2850   */\n  dup5\n    /* \"#utility.yul\":2843:2857   */\n  add\n    /* \"#utility.yul\":2836:2857   */\n  swap4\n  pop\n    /* \"#utility.yul\":2712:2867   */\n  pop\n    /* \"#utility.yul\":2696:2700   */\n  0x20\n    /* \"#utility.yul\":2691:2694   */\n  dup2\n    /* \"#utility.yul\":2687:2701   */\n  add\n    /* \"#utility.yul\":2680:2701   */\n  swap1\n  pop\n    /* \"#utility.yul\":2636:2867   */\n  jump(tag_95)\ntag_97:\n    /* \"#utility.yul\":2640:2661   */\n  pop\n    /* \"#utility.yul\":2254:2873   */\n  pop\n  pop\n    /* \"#utility.yul\":2141:2873   */\n  swap4\n  swap3\n  pop\n  pop\n  pop\n  jump\t// out\n    /* \"#utility.yul\":2896:3281   */\ntag_53:\n    /* \"#utility.yul\":2978:2983   */\n  0x00\n    /* \"#utility.yul\":3027:3030   */\n  dup3\n    /* \"#utility.yul\":3020:3024   */\n  0x1f\n    /* \"#utility.yul\":3012:3018   */\n  dup4\n    /* \"#utility.yul\":3008:3025   */\n  add\n    /* \"#utility.yul\":3004:3031   */\n  slt\n    /* \"#utility.yul\":2994:3116   */\n  tag_100\n  jumpi\n    /* \"#utility.yul\":3035:3114   */\n  tag_101\n  tag_41\n  jump\t// in\ntag_101:\n    /* \"#utility.yul\":2994:3116   */\ntag_100:\n    /* \"#utility.yul\":3145:3151   */\n  dup2\n    /* \"#utility.yul\":3139:3152   */\n  mload\n    /* \"#utility.yul\":3170:3275   */\n  tag_102\n    /* \"#utility.yul\":3271:3274   */\n  dup5\n    /* \"#utility.yul\":3263:3269   */\n  dup3\n    /* \"#utility.yul\":3256:3260   */\n  0x20\n    /* \"#utility.yul\":3248:3254   */\n  dup7\n    /* \"#utility.yul\":3244:3261   */\n  add\n    /* \"#utility.yul\":3170:3275   */\n  tag_52\n  jump\t// in\ntag_102:\n    /* \"#utility.yul\":3161:3275   */\n  swap2\n  pop\n    /* \"#utility.yul\":2984:3281   */\n  pop\n    /* \"#utility.yul\":2896:3281   */\n  swap3\n  swap2\n  pop\n  pop\n  jump\t// out\n    /* \"#utility.yul\":3287:3364   */\ntag_54:\n    /* \"#utility.yul\":3324:3331   */\n  0x00\n    /* \"#utility.yul\":3353:3358   */\n  dup2\n    /* \"#utility.yul\":3342:3358   */\n  swap1\n  pop\n    /* \"#utility.yul\":3287:3364   */\n  swap2\n  swap1\n  pop\n  jump\t// out\n    /* \"#utility.yul\":3370:3492   */\ntag_55:\n    /* \"#utility.yul\":3443:3467   */\n  tag_105\n    /* \"#utility.yul\":3461:3466   */\n  dup2\n    /* \"#utility.yul\":3443:3467   */\n  tag_54\n  jump\t// in\ntag_105:\n    /* \"#utility.yul\":3436:3441   */\n  dup2\n    /* \"#utility.yul\":3433:3468   */\n  eq\n    /* \"#utility.yul\":3423:3486   */\n  tag_106\n  jumpi\n    /* \"#utility.yul\":3482:3483   */\n  0x00\n    /* \"#utility.yul\":3479:3480   */\n  dup1\n    /* \"#utility.yul\":3472:3484   */\n  revert\n    /* \"#utility.yul\":3423:3486   */\ntag_106:\n    /* \"#utility.yul\":3370:3492   */\n  pop\n  jump\t// out\n    /* \"#utility.yul\":3498:3641   */\ntag_56:\n    /* \"#utility.yul\":3555:3560   */\n  0x00\n    /* \"#utility.yul\":3586:3592   */\n  dup2\n    /* \"#utility.yul\":3580:3593   */\n  mload\n    /* \"#utility.yul\":3571:3593   */\n  swap1\n  pop\n    /* \"#utility.yul\":3602:3635   */\n  tag_108\n    /* \"#utility.yul\":3629:3634   */\n  dup2\n    /* \"#utility.yul\":3602:3635   */\n  tag_55\n  jump\t// in\ntag_108:\n    /* \"#utility.yul\":3498:3641   */\n  swap3\n  swap2\n  pop\n  pop\n  jump\t// out\n    /* \"#utility.yul\":3647:3958   */\ntag_57:\n    /* \"#utility.yul\":3724:3728   */\n  0x00\n    /* \"#utility.yul\":3814:3832   */\n  0xffffffffffffffff\n    /* \"#utility.yul\":3806:3812   */\n  dup3\n    /* \"#utility.yul\":3803:3833   */\n  gt\n    /* \"#utility.yul\":3800:3856   */\n  iszero\n  tag_110\n  jumpi\n    /* \"#utility.yul\":3836:3854   */\n  tag_111\n  tag_43\n  jump\t// in\ntag_111:\n    /* \"#utility.yul\":3800:3856   */\ntag_110:\n    /* \"#utility.yul\":3886:3890   */\n  0x20\n    /* \"#utility.yul\":3878:3884   */\n  dup3\n    /* \"#utility.yul\":3874:3891   */\n  mul\n    /* \"#utility.yul\":3866:3891   */\n  swap1\n  pop\n    /* \"#utility.yul\":3946:3950   */\n  0x20\n    /* \"#utility.yul\":3940:3944   */\n  dup2\n    /* \"#utility.yul\":3936:3951   */\n  add\n    /* \"#utility.yul\":3928:3951   */\n  swap1\n  pop\n    /* \"#utility.yul\":3647:3958   */\n  swap2\n  swap1\n  pop\n  jump\t// out\n    /* \"#utility.yul\":3981:4713   */\ntag_58:\n    /* \"#utility.yul\":4088:4093   */\n  0x00\n    /* \"#utility.yul\":4113:4194   */\n  tag_113\n    /* \"#utility.yul\":4129:4193   */\n  tag_114\n    /* \"#utility.yul\":4186:4192   */\n  dup5\n    /* \"#utility.yul\":4129:4193   */\n  tag_57\n  jump\t// in\ntag_114:\n    /* \"#utility.yul\":4113:4194   */\n  tag_45\n  jump\t// in\ntag_113:\n    /* \"#utility.yul\":4104:4194   */\n  swap1\n  pop\n    /* \"#utility.yul\":4214:4219   */\n  dup1\n    /* \"#utility.yul\":4243:4249   */\n  dup4\n    /* \"#utility.yul\":4236:4241   */\n  dup3\n    /* \"#utility.yul\":4229:4250   */\n  mstore\n    /* \"#utility.yul\":4277:4281   */\n  0x20\n    /* \"#utility.yul\":4270:4275   */\n  dup3\n    /* \"#utility.yul\":4266:4282   */\n  add\n    /* \"#utility.yul\":4259:4282   */\n  swap1\n  pop\n    /* \"#utility.yul\":4330:4334   */\n  0x20\n    /* \"#utility.yul\":4322:4328   */\n  dup5\n    /* \"#utility.yul\":4318:4335   */\n  mul\n    /* \"#utility.yul\":4310:4316   */\n  dup4\n    /* \"#utility.yul\":4306:4336   */\n  add\n    /* \"#utility.yul\":4359:4362   */\n  dup6\n    /* \"#utility.yul\":4351:4357   */\n  dup2\n    /* \"#utility.yul\":4348:4363   */\n  gt\n    /* \"#utility.yul\":4345:4467   */\n  iszero\n  tag_115\n  jumpi\n    /* \"#utility.yul\":4378:4457   */\n  tag_116\n  tag_47\n  jump\t// in\ntag_116:\n    /* \"#utility.yul\":4345:4467   */\ntag_115:\n    /* \"#utility.yul\":4493:4499   */\n  dup4\n    /* \"#utility.yul\":4476:4707   */\ntag_117:\n    /* \"#utility.yul\":4510:4516   */\n  dup2\n    /* \"#utility.yul\":4505:4508   */\n  dup2\n    /* \"#utility.yul\":4502:4517   */\n  lt\n    /* \"#utility.yul\":4476:4707   */\n  iszero\n  tag_119\n  jumpi\n    /* \"#utility.yul\":4585:4588   */\n  dup1\n    /* \"#utility.yul\":4614:4662   */\n  tag_120\n    /* \"#utility.yul\":4658:4661   */\n  dup9\n    /* \"#utility.yul\":4646:4656   */\n  dup3\n    /* \"#utility.yul\":4614:4662   */\n  tag_56\n  jump\t// in\ntag_120:\n    /* \"#utility.yul\":4609:4612   */\n  dup5\n    /* \"#utility.yul\":4602:4663   */\n  mstore\n    /* \"#utility.yul\":4692:4696   */\n  0x20\n    /* \"#utility.yul\":4687:4690   */\n  dup5\n    /* \"#utility.yul\":4683:4697   */\n  add\n    /* \"#utility.yul\":4676:4697   */\n  swap4\n  pop\n    /* \"#utility.yul\":4552:4707   */\n  pop\n    /* \"#utility.yul\":4536:4540   */\n  0x20\n    /* \"#utility.yul\":4531:4534   */\n  dup2\n    /* \"#utility.yul\":4527:4541   */\n  add\n    /* \"#utility.yul\":4520:4541   */\n  swap1\n  pop\n    /* \"#utility.yul\":4476:4707   */\n  jump(tag_117)\ntag_119:\n    /* \"#utility.yul\":4480:4501   */\n  pop\n    /* \"#utility.yul\":4094:4713   */\n  pop\n  pop\n    /* \"#utility.yul\":3981:4713   */\n  swap4\n  swap3\n  pop\n  pop\n  pop\n  jump\t// out\n    /* \"#utility.yul\":4736:5121   */\ntag_59:\n    /* \"#utility.yul\":4818:4823   */\n  0x00\n    /* \"#utility.yul\":4867:4870   */\n  dup3\n    /* \"#utility.yul\":4860:4864   */\n  0x1f\n    /* \"#utility.yul\":4852:4858   */\n  dup4\n    /* \"#utility.yul\":4848:4865   */\n  add\n    /* \"#utility.yul\":4844:4871   */\n  slt\n    /* \"#utility.yul\":4834:4956   */\n  tag_122\n  jumpi\n    /* \"#utility.yul\":4875:4954   */\n  tag_123\n  tag_41\n  jump\t// in\ntag_123:\n    /* \"#utility.yul\":4834:4956   */\ntag_122:\n    /* \"#utility.yul\":4985:4991   */\n  dup2\n    /* \"#utility.yul\":4979:4992   */\n  mload\n    /* \"#utility.yul\":5010:5115   */\n  tag_124\n    /* \"#utility.yul\":5111:5114   */\n  dup5\n    /* \"#utility.yul\":5103:5109   */\n  dup3\n    /* \"#utility.yul\":5096:5100   */\n  0x20\n    /* \"#utility.yul\":5088:5094   */\n  dup7\n    /* \"#utility.yul\":5084:5101   */\n  add\n    /* \"#utility.yul\":5010:5115   */\n  tag_58\n  jump\t// in\ntag_124:\n    /* \"#utility.yul\":5001:5115   */\n  swap2\n  pop\n    /* \"#utility.yul\":4824:5121   */\n  pop\n    /* \"#utility.yul\":4736:5121   */\n  swap3\n  swap2\n  pop\n  pop\n  jump\t// out\n    /* \"#utility.yul\":5127:7073   */\ntag_3:\n    /* \"#utility.yul\":5342:5348   */\n  0x00\n    /* \"#utility.yul\":5350:5356   */\n  dup1\n    /* \"#utility.yul\":5358:5364   */\n  0x00\n    /* \"#utility.yul\":5366:5372   */\n  dup1\n    /* \"#utility.yul\":5374:5380   */\n  0x00\n    /* \"#utility.yul\":5382:5388   */\n  dup1\n    /* \"#utility.yul\":5431:5434   */\n  0xc0\n    /* \"#utility.yul\":5419:5428   */\n  dup8\n    /* \"#utility.yul\":5410:5417   */\n  dup10\n    /* \"#utility.yul\":5406:5429   */\n  sub\n    /* \"#utility.yul\":5402:5435   */\n  slt\n    /* \"#utility.yul\":5399:5519   */\n  iszero\n  tag_126\n  jumpi\n    /* \"#utility.yul\":5438:5517   */\n  tag_127\n  tag_39\n  jump\t// in\ntag_127:\n    /* \"#utility.yul\":5399:5519   */\ntag_126:\n    /* \"#utility.yul\":5579:5580   */\n  0x00\n    /* \"#utility.yul\":5568:5577   */\n  dup8\n    /* \"#utility.yul\":5564:5581   */\n  add\n    /* \"#utility.yul\":5558:5582   */\n  mload\n    /* \"#utility.yul\":5609:5627   */\n  0xffffffffffffffff\n    /* \"#utility.yul\":5601:5607   */\n  dup2\n    /* \"#utility.yul\":5598:5628   */\n  gt\n    /* \"#utility.yul\":5595:5712   */\n  iszero\n  tag_128\n  jumpi\n    /* \"#utility.yul\":5631:5710   */\n  tag_129\n  tag_40\n  jump\t// in\ntag_129:\n    /* \"#utility.yul\":5595:5712   */\ntag_128:\n    /* \"#utility.yul\":5736:5825   */\n  tag_130\n    /* \"#utility.yul\":5817:5824   */\n  dup10\n    /* \"#utility.yul\":5808:5814   */\n  dup3\n    /* \"#utility.yul\":5797:5806   */\n  dup11\n    /* \"#utility.yul\":5793:5815   */\n  add\n    /* \"#utility.yul\":5736:5825   */\n  tag_53\n  jump\t// in\ntag_130:\n    /* \"#utility.yul\":5726:5825   */\n  swap7\n  pop\n    /* \"#utility.yul\":5529:5835   */\n  pop\n    /* \"#utility.yul\":5895:5897   */\n  0x20\n    /* \"#utility.yul\":5884:5893   */\n  dup8\n    /* \"#utility.yul\":5880:5898   */\n  add\n    /* \"#utility.yul\":5874:5899   */\n  mload\n    /* \"#utility.yul\":5926:5944   */\n  0xffffffffffffffff\n    /* \"#utility.yul\":5918:5924   */\n  dup2\n    /* \"#utility.yul\":5915:5945   */\n  gt\n    /* \"#utility.yul\":5912:6029   */\n  iszero\n  tag_131\n  jumpi\n    /* \"#utility.yul\":5948:6027   */\n  tag_132\n  tag_40\n  jump\t// in\ntag_132:\n    /* \"#utility.yul\":5912:6029   */\ntag_131:\n    /* \"#utility.yul\":6053:6142   */\n  tag_133\n    /* \"#utility.yul\":6134:6141   */\n  dup10\n    /* \"#utility.yul\":6125:6131   */\n  dup3\n    /* \"#utility.yul\":6114:6123   */\n  dup11\n    /* \"#utility.yul\":6110:6132   */\n  add\n    /* \"#utility.yul\":6053:6142   */\n  tag_53\n  jump\t// in\ntag_133:\n    /* \"#utility.yul\":6043:6142   */\n  swap6\n  pop\n    /* \"#utility.yul\":5845:6152   */\n  pop\n    /* \"#utility.yul\":6191:6193   */\n  0x40\n    /* \"#utility.yul\":6217:6281   */\n  tag_134\n    /* \"#utility.yul\":6273:6280   */\n  dup10\n    /* \"#utility.yul\":6264:6270   */\n  dup3\n    /* \"#utility.yul\":6253:6262   */\n  dup11\n    /* \"#utility.yul\":6249:6271   */\n  add\n    /* \"#utility.yul\":6217:6281   */\n  tag_56\n  jump\t// in\ntag_134:\n    /* \"#utility.yul\":6207:6281   */\n  swap5\n  pop\n    /* \"#utility.yul\":6162:6291   */\n  pop\n    /* \"#utility.yul\":6351:6353   */\n  0x60\n    /* \"#utility.yul\":6340:6349   */\n  dup8\n    /* \"#utility.yul\":6336:6354   */\n  add\n    /* \"#utility.yul\":6330:6355   */\n  mload\n    /* \"#utility.yul\":6382:6400   */\n  0xffffffffffffffff\n    /* \"#utility.yul\":6374:6380   */\n  dup2\n    /* \"#utility.yul\":6371:6401   */\n  gt\n    /* \"#utility.yul\":6368:6485   */\n  iszero\n  tag_135\n  jumpi\n    /* \"#utility.yul\":6404:6483   */\n  tag_136\n  tag_40\n  jump\t// in\ntag_136:\n    /* \"#utility.yul\":6368:6485   */\ntag_135:\n    /* \"#utility.yul\":6509:6598   */\n  tag_137\n    /* \"#utility.yul\":6590:6597   */\n  dup10\n    /* \"#utility.yul\":6581:6587   */\n  dup3\n    /* \"#utility.yul\":6570:6579   */\n  dup11\n    /* \"#utility.yul\":6566:6588   */\n  add\n    /* \"#utility.yul\":6509:6598   */\n  tag_59\n  jump\t// in\ntag_137:\n    /* \"#utility.yul\":6499:6598   */\n  swap4\n  pop\n    /* \"#utility.yul\":6301:6608   */\n  pop\n    /* \"#utility.yul\":6668:6671   */\n  0x80\n    /* \"#utility.yul\":6657:6666   */\n  dup8\n    /* \"#utility.yul\":6653:6672   */\n  add\n    /* \"#utility.yul\":6647:6673   */\n  mload\n    /* \"#utility.yul\":6700:6718   */\n  0xffffffffffffffff\n    /* \"#utility.yul\":6692:6698   */\n  dup2\n    /* \"#utility.yul\":6689:6719   */\n  gt\n    /* \"#utility.yul\":6686:6803   */\n  iszero\n  tag_138\n  jumpi\n    /* \"#utility.yul\":6722:6801   */\n  tag_139\n  tag_40\n  jump\t// in\ntag_139:\n    /* \"#utility.yul\":6686:6803   */\ntag_138:\n    /* \"#utility.yul\":6827:6916   */\n  tag_140\n    /* \"#utility.yul\":6908:6915   */\n  dup10\n    /* \"#utility.yul\":6899:6905   */\n  dup3\n    /* \"#utility.yul\":6888:6897   */\n  dup11\n    /* \"#utility.yul\":6884:6906   */\n  add\n    /* \"#utility.yul\":6827:6916   */\n  tag_59\n  jump\t// in\ntag_140:\n    /* \"#utility.yul\":6817:6916   */\n  swap3\n  pop\n    /* \"#utility.yul\":6618:6926   */\n  pop\n    /* \"#utility.yul\":6965:6968   */\n  0xa0\n    /* \"#utility.yul\":6992:7056   */\n  tag_141\n    /* \"#utility.yul\":7048:7055   */\n  dup10\n    /* \"#utility.yul\":7039:7045   */\n  dup3\n    /* \"#utility.yul\":7028:7037   */\n  dup11\n    /* \"#utility.yul\":7024:7046   */\n  add\n    /* \"#utility.yul\":6992:7056   */\n  tag_56\n  jump\t// in\ntag_141:\n    /* \"#utility.yul\":6982:7056   */\n  swap2\n  pop\n    /* \"#utility.yul\":6936:7066   */\n  pop\n    /* \"#utility.yul\":5127:7073   */\n  swap3\n  swap6\n  pop\n  swap3\n  swap6\n  pop\n  swap3\n  swap6\n  jump\t// out\n    /* \"#utility.yul\":7079:7248   */\ntag_60:\n    /* \"#utility.yul\":7163:7174   */\n  0x00\n    /* \"#utility.yul\":7197:7203   */\n  dup3\n    /* \"#utility.yul\":7192:7195   */\n  dup3\n    /* \"#utility.yul\":7185:7204   */\n  mstore\n    /* \"#utility.yul\":7237:7241   */\n  0x20\n    /* \"#utility.yul\":7232:7235   */\n  dup3\n    /* \"#utility.yul\":7228:7242   */\n  add\n    /* \"#utility.yul\":7213:7242   */\n  swap1\n  pop\n    /* \"#utility.yul\":7079:7248   */\n  swap3\n  swap2\n  pop\n  pop\n  jump\t// out\n    /* \"#utility.yul\":7254:7423   */\ntag_61:\n    /* \"#utility.yul\":7394:7415   */\n  0x496e76616c6964206c6f636b20706572696f6400000000000000000000000000\n    /* \"#utility.yul\":7390:7391   */\n  0x00\n    /* \"#utility.yul\":7382:7388   */\n  dup3\n    /* \"#utility.yul\":7378:7392   */\n  add\n    /* \"#utility.yul\":7371:7416   */\n  mstore\n    /* \"#utility.yul\":7254:7423   */\n  pop\n  jump\t// out\n    /* \"#utility.yul\":7429:7795   */\ntag_62:\n    /* \"#utility.yul\":7571:7574   */\n  0x00\n    /* \"#utility.yul\":7592:7659   */\n  tag_145\n    /* \"#utility.yul\":7656:7658   */\n  0x13\n    /* \"#utility.yul\":7651:7654   */\n  dup4\n    /* \"#utility.yul\":7592:7659   */\n  tag_60\n  jump\t// in\ntag_145:\n    /* \"#utility.yul\":7585:7659   */\n  swap2\n  pop\n    /* \"#utility.yul\":7668:7761   */\n  tag_146\n    /* \"#utility.yul\":7757:7760   */\n  dup3\n    /* \"#utility.yul\":7668:7761   */\n  tag_61\n  jump\t// in\ntag_146:\n    /* \"#utility.yul\":7786:7788   */\n  0x20\n    /* \"#utility.yul\":7781:7784   */\n  dup3\n    /* \"#utility.yul\":7777:7789   */\n  add\n    /* \"#utility.yul\":7770:7789   */\n  swap1\n  pop\n    /* \"#utility.yul\":7429:7795   */\n  swap2\n  swap1\n  pop\n  jump\t// out\n    /* \"#utility.yul\":7801:8220   */\ntag_16:\n    /* \"#utility.yul\":7967:7971   */\n  0x00\n    /* \"#utility.yul\":8005:8007   */\n  0x20\n    /* \"#utility.yul\":7994:8003   */\n  dup3\n    /* \"#utility.yul\":7990:8008   */\n  add\n    /* \"#utility.yul\":7982:8008   */\n  swap1\n  pop\n    /* \"#utility.yul\":8054:8063   */\n  dup2\n    /* \"#utility.yul\":8048:8052   */\n  dup2\n    /* \"#utility.yul\":8044:8064   */\n  sub\n    /* \"#utility.yul\":8040:8041   */\n  0x00\n    /* \"#utility.yul\":8029:8038   */\n  dup4\n    /* \"#utility.yul\":8025:8042   */\n  add\n    /* \"#utility.yul\":8018:8065   */\n  mstore\n    /* \"#utility.yul\":8082:8213   */\n  tag_148\n    /* \"#utility.yul\":8208:8212   */\n  dup2\n    /* \"#utility.yul\":8082:8213   */\n  tag_62\n  jump\t// in\ntag_148:\n    /* \"#utility.yul\":8074:8213   */\n  swap1\n  pop\n    /* \"#utility.yul\":7801:8220   */\n  swap2\n  swap1\n  pop\n  jump\t// out\n    /* \"#utility.yul\":8226:8406   */\ntag_22:\n    /* \"#utility.yul\":8274:8351   */\n  0x4e487b7100000000000000000000000000000000000000000000000000000000\n    /* \"#utility.yul\":8271:8272   */\n  0x00\n    /* \"#utility.yul\":8264:8352   */\n  mstore\n    /* \"#utility.yul\":8371:8375   */\n  0x32\n    /* \"#utility.yul\":8368:8369   */\n  0x04\n    /* \"#utility.yul\":8361:8376   */\n  mstore\n    /* \"#utility.yul\":8395:8399   */\n  0x24\n    /* \"#utility.yul\":8392:8393   */\n  0x00\n    /* \"#utility.yul\":8385:8400   */\n  revert\n    /* \"#utility.yul\":8412:8592   */\ntag_63:\n    /* \"#utility.yul\":8460:8537   */\n  0x4e487b7100000000000000000000000000000000000000000000000000000000\n    /* \"#utility.yul\":8457:8458   */\n  0x00\n    /* \"#utility.yul\":8450:8538   */\n  mstore\n    /* \"#utility.yul\":8557:8561   */\n  0x11\n    /* \"#utility.yul\":8554:8555   */\n  0x04\n    /* \"#utility.yul\":8547:8562   */\n  mstore\n    /* \"#utility.yul\":8581:8585   */\n  0x24\n    /* \"#utility.yul\":8578:8579   */\n  0x00\n    /* \"#utility.yul\":8571:8586   */\n  revert\n    /* \"#utility.yul\":8598:8831   */\ntag_34:\n    /* \"#utility.yul\":8637:8640   */\n  0x00\n    /* \"#utility.yul\":8660:8684   */\n  tag_152\n    /* \"#utility.yul\":8678:8683   */\n  dup3\n    /* \"#utility.yul\":8660:8684   */\n  tag_54\n  jump\t// in\ntag_152:\n    /* \"#utility.yul\":8651:8684   */\n  swap2\n  pop\n    /* \"#utility.yul\":8706:8772   */\n  0xffffffffffffffffffffffffffffffffffffffffffffffffffffffffffffffff\n    /* \"#utility.yul\":8699:8704   */\n  dup3\n    /* \"#utility.yul\":8696:8773   */\n  sub\n    /* \"#utility.yul\":8693:8796   */\n  tag_153\n  jumpi\n    /* \"#utility.yul\":8776:8794   */\n  tag_154\n  tag_63\n  jump\t// in\ntag_154:\n    /* \"#utility.yul\":8693:8796   */\ntag_153:\n    /* \"#utility.yul\":8823:8824   */\n  0x01\n    /* \"#utility.yul\":8816:8821   */\n  dup3\n    /* \"#utility.yul\":8812:8825   */\n  add\n    /* \"#utility.yul\":8805:8825   */\n  swap1\n  pop\n    /* \"#utility.yul\":8598:8831   */\n  swap2\n  swap1\n  pop\n  jump\t// out\n    /* \"contracts/Staking.sol\":412:6721  contract NFTStaking1 is Ownable, ReentrancyGuard {... */\ntag_35:\n  dataSize(sub_0)\n  dup1\n  dataOffset(sub_0)\n  0x00\n  codecopy\n  0x00\n  return\nstop\n\nsub_0: assembly {\n        /* \"contracts/Staking.sol\":412:6721  contract NFTStaking1 is Ownable, ReentrancyGuard {... */\n      mstore(0x40, 0x80)\n      callvalue\n      dup1\n      iszero\n      tag_1\n      jumpi\n      0x00\n      dup1\n      revert\n    tag_1:\n      pop\n      jumpi(tag_2, lt(calldatasize, 0x04))\n      shr(0xe0, calldataload(0x00))\n      dup1\n      0x779972da\n      gt\n      tag_14\n      jumpi\n      dup1\n      0x779972da\n      eq\n      tag_8\n      jumpi\n      dup1\n      0x849a1e1d\n      eq\n      tag_9\n      jumpi\n      dup1\n      0x8da5cb5b\n      eq\n      tag_10\n      jumpi\n      dup1\n      0xc69d1923\n      eq\n      tag_11\n      jumpi\n      dup1\n      0xcc33c875\n      eq\n      tag_12\n      jumpi\n      dup1\n      0xf2fde38b\n      eq\n      tag_13\n      jumpi\n      jump(tag_2)\n    tag_14:\n      dup1\n      0x1902732e\n      eq\n      tag_3\n      jumpi\n      dup1\n      0x20281a98\n      eq\n      tag_4\n      jumpi\n      dup1\n      0x3fd8b02f\n      eq\n      tag_5\n      jumpi\n      dup1\n      0x5eac6239\n      eq\n      tag_6\n      jumpi\n      dup1\n      0x715018a6\n      eq\n      tag_7\n      jumpi\n    tag_2:\n      0x00\n      dup1\n      revert\n        /* \"contracts/Staking.sol\":3568:4118  function lockNFT(uint256[] calldata _tokenIds, IERC721 nftAddress ) external notContract nonReentrant {... */\n    tag_3:\n      tag_15\n      0x04\n      dup1\n      calldatasize\n      sub\n      dup2\n      add\n      swap1\n      tag_16\n      swap2\n      swap1\n      tag_17\n      jump\t// in\n    tag_16:\n      tag_18\n      jump\t// in\n    tag_15:\n      stop\n        /* \"contracts/Staking.sol\":3294:3427  function claimedRewards(uint256 _tokenId) external view returns (uint256) {... */\n    tag_4:\n      tag_19\n      0x04\n      dup1\n      calldatasize\n      sub\n      dup2\n      add\n      swap1\n      tag_20\n      swap2\n      swap1\n      tag_21\n      jump\t// in\n    tag_20:\n      tag_22\n      jump\t// in\n    tag_19:\n      mload(0x40)\n      tag_23\n      swap2\n      swap1\n      tag_24\n      jump\t// in\n    tag_23:\n      mload(0x40)\n      dup1\n      swap2\n      sub\n      swap1\n      return\n        /* \"contracts/Staking.sol\":502:527  uint256 public lockPeriod */\n    tag_5:\n      tag_25\n      tag_26\n      jump\t// in\n    tag_25:\n      mload(0x40)\n      tag_27\n      swap2\n      swap1\n      tag_24\n      jump\t// in\n    tag_27:\n      mload(0x40)\n      dup1\n      swap2\n      sub\n      swap1\n      return\n        /* \"contracts/Staking.sol\":5292:6202  function claimRewards(uint256[] calldata _tokenIds) external notContract {... */\n    tag_6:\n      tag_28\n      0x04\n      dup1\n      calldatasize\n      sub\n      dup2\n      add\n      swap1\n      tag_29\n      swap2\n      swap1\n      tag_30\n      jump\t// in\n    tag_29:\n      tag_31\n      jump\t// in\n    tag_28:\n      stop\n        /* \"@openzeppelin/contracts/access/Ownable.sol\":1831:1932  function renounceOwnership() public virtual onlyOwner {... */\n    tag_7:\n      tag_32\n      tag_33\n      jump\t// in\n    tag_32:\n      stop\n        /* \"contracts/Staking.sol\":2913:3126  function setLockPeriod(uint256 _lockPeriod) external onlyOwner {... */\n    tag_8:\n      tag_34\n      0x04\n      dup1\n      calldatasize\n      sub\n      dup2\n      add\n      swap1\n      tag_35\n      swap2\n      swap1\n      tag_21\n      jump\t// in\n    tag_35:\n      tag_36\n      jump\t// in\n    tag_34:\n      stop\n        /* \"contracts/Staking.sol\":4231:5194  function unlockNFT(uint256[] calldata _tokenIds) external notContract nonReentrant {... */\n    tag_9:\n      tag_37\n      0x04\n      dup1\n      calldatasize\n      sub\n      dup2\n      add\n      swap1\n      tag_38\n      swap2\n      swap1\n      tag_30\n      jump\t// in\n    tag_38:\n      tag_39\n      jump\t// in\n    tag_37:\n      stop\n        /* \"@openzeppelin/contracts/access/Ownable.sol\":1201:1286  function owner() public view virtual returns (address) {... */\n    tag_10:\n      tag_40\n      tag_41\n      jump\t// in\n    tag_40:\n      mload(0x40)\n      tag_42\n      swap2\n      swap1\n      tag_43\n      jump\t// in\n    tag_42:\n      mload(0x40)\n      dup1\n      swap2\n      sub\n      swap1\n      return\n        /* \"contracts/Staking.sol\":1162:1181  uint256 public WAVE */\n    tag_11:\n      tag_44\n      tag_45\n      jump\t// in\n    tag_44:\n      mload(0x40)\n      tag_46\n      swap2\n      swap1\n      tag_24\n      jump\t// in\n    tag_46:\n      mload(0x40)\n      dup1\n      swap2\n      sub\n      swap1\n      return\n        /* \"contracts/Staking.sol\":1085:1131  mapping(uint256 => TokenInfo) public tokenInfo */\n    tag_12:\n      tag_47\n      0x04\n      dup1\n      calldatasize\n      sub\n      dup2\n      add\n      swap1\n      tag_48\n      swap2\n      swap1\n      tag_21\n      jump\t// in\n    tag_48:\n      tag_49\n      jump\t// in\n    tag_47:\n      mload(0x40)\n      tag_50\n      swap2\n      swap1\n      tag_43\n      jump\t// in\n    tag_50:\n      mload(0x40)\n      dup1\n      swap2\n      sub\n      swap1\n      return\n        /* \"@openzeppelin/contracts/access/Ownable.sol\":2081:2279  function transferOwnership(address newOwner) public virtual onlyOwner {... */\n    tag_13:\n      tag_51\n      0x04\n      dup1\n      calldatasize\n      sub\n      dup2\n      add\n      swap1\n      tag_52\n      swap2\n      swap1\n      tag_53\n      jump\t// in\n    tag_52:\n      tag_54\n      jump\t// in\n    tag_51:\n      stop\n        /* \"contracts/Staking.sol\":3568:4118  function lockNFT(uint256[] calldata _tokenIds, IERC721 nftAddress ) external notContract nonReentrant {... */\n    tag_18:\n        /* \"contracts/Staking.sol\":2639:2671  address(msg.sender).isContract() */\n      tag_56\n        /* \"contracts/Staking.sol\":2647:2657  msg.sender */\n      caller\n        /* \"contracts/Staking.sol\":2639:2669  address(msg.sender).isContract */\n      0xffffffffffffffffffffffffffffffffffffffff\n      and\n      tag_57\n        /* \"contracts/Staking.sol\":2639:2671  address(msg.sender).isContract() */\n      jump\t// in\n    tag_56:\n        /* \"contracts/Staking.sol\":2638:2671  !address(msg.sender).isContract() */\n      iszero\n        /* \"contracts/Staking.sol\":2630:2696  require(!address(msg.sender).isContract(), \"Contract not allowed\") */\n      tag_58\n      jumpi\n      mload(0x40)\n      0x08c379a000000000000000000000000000000000000000000000000000000000\n      dup2\n      mstore\n      0x04\n      add\n      tag_59\n      swap1\n      tag_60\n      jump\t// in\n    tag_59:\n      mload(0x40)\n      dup1\n      swap2\n      sub\n      swap1\n      revert\n    tag_58:\n        /* \"contracts/Staking.sol\":2729:2738  tx.origin */\n      origin\n        /* \"contracts/Staking.sol\":2715:2738  msg.sender == tx.origin */\n      0xffffffffffffffffffffffffffffffffffffffff\n      and\n        /* \"contracts/Staking.sol\":2715:2725  msg.sender */\n      caller\n        /* \"contracts/Staking.sol\":2715:2738  msg.sender == tx.origin */\n      0xffffffffffffffffffffffffffffffffffffffff\n      and\n      eq\n        /* \"contracts/Staking.sol\":2707:2769  require(msg.sender == tx.origin, \"Proxy contract not allowed\") */\n      tag_61\n      jumpi\n      mload(0x40)\n      0x08c379a000000000000000000000000000000000000000000000000000000000\n      dup2\n      mstore\n      0x04\n      add\n      tag_62\n      swap1\n      tag_63\n      jump\t// in\n    tag_62:\n      mload(0x40)\n      dup1\n      swap2\n      sub\n      swap1\n      revert\n    tag_61:\n        /* \"@openzeppelin/contracts/security/ReentrancyGuard.sol\":1744:1745  2 */\n      0x02\n        /* \"@openzeppelin/contracts/security/ReentrancyGuard.sol\":2325:2332  _status */\n      sload(0x01)\n        /* \"@openzeppelin/contracts/security/ReentrancyGuard.sol\":2325:2344  _status != _ENTERED */\n      sub\n        /* \"@openzeppelin/contracts/security/ReentrancyGuard.sol\":2317:2380  require(_status != _ENTERED, \"ReentrancyGuard: reentrant call\") */\n      tag_65\n      jumpi\n      mload(0x40)\n      0x08c379a000000000000000000000000000000000000000000000000000000000\n      dup2\n      mstore\n      0x04\n      add\n      tag_66\n      swap1\n      tag_67\n      jump\t// in\n    tag_66:\n      mload(0x40)\n      dup1\n      swap2\n      sub\n      swap1\n      revert\n    tag_65:\n        /* \"@openzeppelin/contracts/security/ReentrancyGuard.sol\":1744:1745  2 */\n      0x02\n        /* \"@openzeppelin/contracts/security/ReentrancyGuard.sol\":2455:2462  _status */\n      0x01\n        /* \"@openzeppelin/contracts/security/ReentrancyGuard.sol\":2455:2473  _status = _ENTERED */\n      dup2\n      swap1\n      sstore\n      pop\n        /* \"contracts/Staking.sol\":3708:3709  0 */\n      0x00\n        /* \"contracts/Staking.sol\":3689:3698  _tokenIds */\n      dup4\n      dup4\n        /* \"contracts/Staking.sol\":3689:3705  _tokenIds.length */\n      swap1\n      pop\n        /* \"contracts/Staking.sol\":3689:3709  _tokenIds.length > 0 */\n      gt\n        /* \"contracts/Staking.sol\":3681:3723  require(_tokenIds.length > 0, \"No tokens\") */\n      tag_69\n      jumpi\n      mload(0x40)\n      0x08c379a000000000000000000000000000000000000000000000000000000000\n      dup2\n      mstore\n      0x04\n      add\n      tag_70\n      swap1\n      tag_71\n      jump\t// in\n    tag_70:\n      mload(0x40)\n      dup1\n      swap2\n      sub\n      swap1\n      revert\n    tag_69:\n        /* \"contracts/Staking.sol\":3741:3750  uint256 i */\n      0x00\n        /* \"contracts/Staking.sol\":3736:4061  for (uint256 i = 0; i < _tokenIds.length; i++) {... */\n    tag_72:\n        /* \"contracts/Staking.sol\":3760:3769  _tokenIds */\n      dup4\n      dup4\n        /* \"contracts/Staking.sol\":3760:3776  _tokenIds.length */\n      swap1\n      pop\n        /* \"contracts/Staking.sol\":3756:3757  i */\n      dup2\n        /* \"contracts/Staking.sol\":3756:3776  i < _tokenIds.length */\n      lt\n        /* \"contracts/Staking.sol\":3736:4061  for (uint256 i = 0; i < _tokenIds.length; i++) {... */\n      iszero\n      tag_73\n      jumpi\n        /* \"contracts/Staking.sol\":3842:3852  msg.sender */\n      caller\n        /* \"contracts/Staking.sol\":3806:3852  nftAddress.ownerOf(_tokenIds[i]) == msg.sender */\n      0xffffffffffffffffffffffffffffffffffffffff\n      and\n        /* \"contracts/Staking.sol\":3806:3816  nftAddress */\n      dup3\n        /* \"contracts/Staking.sol\":3806:3824  nftAddress.ownerOf */\n      0xffffffffffffffffffffffffffffffffffffffff\n      and\n      0x6352211e\n        /* \"contracts/Staking.sol\":3825:3834  _tokenIds */\n      dup7\n      dup7\n        /* \"contracts/Staking.sol\":3835:3836  i */\n      dup6\n        /* \"contracts/Staking.sol\":3825:3837  _tokenIds[i] */\n      dup2\n      dup2\n      lt\n      tag_75\n      jumpi\n      tag_76\n      tag_77\n      jump\t// in\n    tag_76:\n    tag_75:\n      swap1\n      pop\n      0x20\n      mul\n      add\n      calldataload\n        /* \"contracts/Staking.sol\":3806:3838  nftAddress.ownerOf(_tokenIds[i]) */\n      mload(0x40)\n      dup3\n      0xffffffff\n      and\n      0xe0\n      shl\n      dup2\n      mstore\n      0x04\n      add\n      tag_78\n      swap2\n      swap1\n      tag_24\n      jump\t// in\n    tag_78:\n      0x20\n      mload(0x40)\n      dup1\n      dup4\n      sub\n      dup2\n      dup7\n      gas\n      staticcall\n      iszero\n      dup1\n      iszero\n      tag_80\n      jumpi\n      returndatasize\n      0x00\n      dup1\n      returndatacopy\n      revert(0x00, returndatasize)\n    tag_80:\n      pop\n      pop\n      pop\n      pop\n      mload(0x40)\n      returndatasize\n      not(0x1f)\n      0x1f\n      dup3\n      add\n      and\n      dup3\n      add\n      dup1\n      0x40\n      mstore\n      pop\n      dup2\n      add\n      swap1\n      tag_81\n      swap2\n      swap1\n      tag_82\n      jump\t// in\n    tag_81:\n        /* \"contracts/Staking.sol\":3806:3852  nftAddress.ownerOf(_tokenIds[i]) == msg.sender */\n      0xffffffffffffffffffffffffffffffffffffffff\n      and\n      eq\n        /* \"contracts/Staking.sol\":3798:3882  require(nftAddress.ownerOf(_tokenIds[i]) == msg.sender, \"You don't hold this token\") */\n      tag_83\n      jumpi\n      mload(0x40)\n      0x08c379a000000000000000000000000000000000000000000000000000000000\n      dup2\n      mstore\n      0x04\n      add\n      tag_84\n      swap1\n      tag_85\n      jump\t// in\n    tag_84:\n      mload(0x40)\n      dup1\n      swap2\n      sub\n      swap1\n      revert\n    tag_83:\n        /* \"contracts/Staking.sol\":4002:4049  LockInfo(msg.sender, block.timestamp, 0, false) */\n      mload(0x40)\n      dup1\n      0x80\n      add\n      0x40\n      mstore\n      dup1\n        /* \"contracts/Staking.sol\":4011:4021  msg.sender */\n      caller\n        /* \"contracts/Staking.sol\":4002:4049  LockInfo(msg.sender, block.timestamp, 0, false) */\n      0xffffffffffffffffffffffffffffffffffffffff\n      and\n      dup2\n      mstore\n      0x20\n      add\n        /* \"contracts/Staking.sol\":4023:4038  block.timestamp */\n      timestamp\n        /* \"contracts/Staking.sol\":4002:4049  LockInfo(msg.sender, block.timestamp, 0, false) */\n      dup2\n      mstore\n      0x20\n      add\n        /* \"contracts/Staking.sol\":4040:4041  0 */\n      0x00\n        /* \"contracts/Staking.sol\":4002:4049  LockInfo(msg.sender, block.timestamp, 0, false) */\n      dup2\n      mstore\n      0x20\n      add\n        /* \"contracts/Staking.sol\":4043:4048  false */\n      0x00\n        /* \"contracts/Staking.sol\":4002:4049  LockInfo(msg.sender, block.timestamp, 0, false) */\n      iszero\n      iszero\n      dup2\n      mstore\n      pop\n        /* \"contracts/Staking.sol\":3977:3985  lockInfo */\n      0x03\n        /* \"contracts/Staking.sol\":3977:3999  lockInfo[_tokenIds[i]] */\n      0x00\n        /* \"contracts/Staking.sol\":3986:3995  _tokenIds */\n      dup7\n      dup7\n        /* \"contracts/Staking.sol\":3996:3997  i */\n      dup6\n        /* \"contracts/Staking.sol\":3986:3998  _tokenIds[i] */\n      dup2\n      dup2\n      lt\n      tag_86\n      jumpi\n      tag_87\n      tag_77\n      jump\t// in\n    tag_87:\n    tag_86:\n      swap1\n      pop\n      0x20\n      mul\n      add\n      calldataload\n        /* \"contracts/Staking.sol\":3977:3999  lockInfo[_tokenIds[i]] */\n      dup2\n      mstore\n      0x20\n      add\n      swap1\n      dup2\n      mstore\n      0x20\n      add\n      0x00\n      keccak256\n        /* \"contracts/Staking.sol\":3977:4049  lockInfo[_tokenIds[i]] = LockInfo(msg.sender, block.timestamp, 0, false) */\n      0x00\n      dup3\n      add\n      mload\n      dup2\n      0x00\n      add\n      exp(0x0100, 0x00)\n      dup2\n      sload\n      dup2\n      0xffffffffffffffffffffffffffffffffffffffff\n      mul\n      not\n      and\n      swap1\n      dup4\n      0xffffffffffffffffffffffffffffffffffffffff\n      and\n      mul\n      or\n      swap1\n      sstore\n      pop\n      0x20\n      dup3\n      add\n      mload\n      dup2\n      0x01\n      add\n      sstore\n      0x40\n      dup3\n      add\n      mload\n      dup2\n      0x02\n      add\n      sstore\n      0x60\n      dup3\n      add\n      mload\n      dup2\n      0x03\n      add\n      exp(0x0100, 0x00)\n      dup2\n      sload\n      dup2\n      0xff\n      mul\n      not\n      and\n      swap1\n      dup4\n      iszero\n      iszero\n      mul\n      or\n      swap1\n      sstore\n      pop\n      swap1\n      pop\n      pop\n        /* \"contracts/Staking.sol\":3778:3781  i++ */\n      dup1\n      dup1\n      tag_88\n      swap1\n      tag_89\n      jump\t// in\n    tag_88:\n      swap2\n      pop\n      pop\n        /* \"contracts/Staking.sol\":3736:4061  for (uint256 i = 0; i < _tokenIds.length; i++) {... */\n      jump(tag_72)\n    tag_73:\n      pop\n        /* \"contracts/Staking.sol\":4088:4098  msg.sender */\n      caller\n        /* \"contracts/Staking.sol\":4078:4110  NFTLocked(msg.sender, _tokenIds) */\n      0xffffffffffffffffffffffffffffffffffffffff\n      and\n      0x458be0227bccc9e803dec79bd16767eeaf9925d2ce708eeed7ae1f3621f968f9\n        /* \"contracts/Staking.sol\":4100:4109  _tokenIds */\n      dup5\n      dup5\n        /* \"contracts/Staking.sol\":4078:4110  NFTLocked(msg.sender, _tokenIds) */\n      mload(0x40)\n      tag_90\n      swap3\n      swap2\n      swap1\n      tag_91\n      jump\t// in\n    tag_90:\n      mload(0x40)\n      dup1\n      swap2\n      sub\n      swap1\n      log2\n        /* \"@openzeppelin/contracts/security/ReentrancyGuard.sol\":1701:1702  1 */\n      0x01\n        /* \"@openzeppelin/contracts/security/ReentrancyGuard.sol\":2628:2635  _status */\n      dup1\n        /* \"@openzeppelin/contracts/security/ReentrancyGuard.sol\":2628:2650  _status = _NOT_ENTERED */\n      dup2\n      swap1\n      sstore\n      pop\n        /* \"contracts/Staking.sol\":3568:4118  function lockNFT(uint256[] calldata _tokenIds, IERC721 nftAddress ) external notContract nonReentrant {... */\n      pop\n      pop\n      pop\n      jump\t// out\n        /* \"contracts/Staking.sol\":3294:3427  function claimedRewards(uint256 _tokenId) external view returns (uint256) {... */\n    tag_22:\n        /* \"contracts/Staking.sol\":3359:3366  uint256 */\n      0x00\n        /* \"contracts/Staking.sol\":3386:3394  lockInfo */\n      0x03\n        /* \"contracts/Staking.sol\":3386:3404  lockInfo[_tokenId] */\n      0x00\n        /* \"contracts/Staking.sol\":3395:3403  _tokenId */\n      dup4\n        /* \"contracts/Staking.sol\":3386:3404  lockInfo[_tokenId] */\n      dup2\n      mstore\n      0x20\n      add\n      swap1\n      dup2\n      mstore\n      0x20\n      add\n      0x00\n      keccak256\n        /* \"contracts/Staking.sol\":3386:3419  lockInfo[_tokenId].claimedRewards */\n      0x02\n      add\n      sload\n        /* \"contracts/Staking.sol\":3379:3419  return lockInfo[_tokenId].claimedRewards */\n      swap1\n      pop\n        /* \"contracts/Staking.sol\":3294:3427  function claimedRewards(uint256 _tokenId) external view returns (uint256) {... */\n      swap2\n      swap1\n      pop\n      jump\t// out\n        /* \"contracts/Staking.sol\":502:527  uint256 public lockPeriod */\n    tag_26:\n      sload(0x02)\n      dup2\n      jump\t// out\n        /* \"contracts/Staking.sol\":5292:6202  function claimRewards(uint256[] calldata _tokenIds) external notContract {... */\n    tag_31:\n        /* \"contracts/Staking.sol\":2639:2671  address(msg.sender).isContract() */\n      tag_94\n        /* \"contracts/Staking.sol\":2647:2657  msg.sender */\n      caller\n        /* \"contracts/Staking.sol\":2639:2669  address(msg.sender).isContract */\n      0xffffffffffffffffffffffffffffffffffffffff\n      and\n      tag_57\n        /* \"contracts/Staking.sol\":2639:2671  address(msg.sender).isContract() */\n      jump\t// in\n    tag_94:\n        /* \"contracts/Staking.sol\":2638:2671  !address(msg.sender).isContract() */\n      iszero\n        /* \"contracts/Staking.sol\":2630:2696  require(!address(msg.sender).isContract(), \"Contract not allowed\") */\n      tag_95\n      jumpi\n      mload(0x40)\n      0x08c379a000000000000000000000000000000000000000000000000000000000\n      dup2\n      mstore\n      0x04\n      add\n      tag_96\n      swap1\n      tag_60\n      jump\t// in\n    tag_96:\n      mload(0x40)\n      dup1\n      swap2\n      sub\n      swap1\n      revert\n    tag_95:\n        /* \"contracts/Staking.sol\":2729:2738  tx.origin */\n      origin\n        /* \"contracts/Staking.sol\":2715:2738  msg.sender == tx.origin */\n      0xffffffffffffffffffffffffffffffffffffffff\n      and\n        /* \"contracts/Staking.sol\":2715:2725  msg.sender */\n      caller\n        /* \"contracts/Staking.sol\":2715:2738  msg.sender == tx.origin */\n      0xffffffffffffffffffffffffffffffffffffffff\n      and\n      eq\n        /* \"contracts/Staking.sol\":2707:2769  require(msg.sender == tx.origin, \"Proxy contract not allowed\") */\n      tag_97\n      jumpi\n      mload(0x40)\n      0x08c379a000000000000000000000000000000000000000000000000000000000\n      dup2\n      mstore\n      0x04\n      add\n      tag_98\n      swap1\n      tag_63\n      jump\t// in\n    tag_98:\n      mload(0x40)\n      dup1\n      swap2\n      sub\n      swap1\n      revert\n    tag_97:\n        /* \"contracts/Staking.sol\":5403:5404  0 */\n      0x00\n        /* \"contracts/Staking.sol\":5384:5393  _tokenIds */\n      dup3\n      dup3\n        /* \"contracts/Staking.sol\":5384:5400  _tokenIds.length */\n      swap1\n      pop\n        /* \"contracts/Staking.sol\":5384:5404  _tokenIds.length > 0 */\n      gt\n        /* \"contracts/Staking.sol\":5376:5418  require(_tokenIds.length > 0, \"No tokens\") */\n      tag_100\n      jumpi\n      mload(0x40)\n      0x08c379a000000000000000000000000000000000000000000000000000000000\n      dup2\n      mstore\n      0x04\n      add\n      tag_101\n      swap1\n      tag_71\n      jump\t// in\n    tag_101:\n      mload(0x40)\n      dup1\n      swap2\n      sub\n      swap1\n      revert\n    tag_100:\n        /* \"contracts/Staking.sol\":5431:5451  uint256 totalRewards */\n      0x00\n        /* \"contracts/Staking.sol\":5467:5476  uint256 i */\n      dup1\n        /* \"contracts/Staking.sol\":5479:5480  0 */\n      0x00\n        /* \"contracts/Staking.sol\":5467:5480  uint256 i = 0 */\n      swap1\n      pop\n        /* \"contracts/Staking.sol\":5462:6126  for (uint256 i = 0; i < _tokenIds.length; i++) {... */\n    tag_102:\n        /* \"contracts/Staking.sol\":5486:5495  _tokenIds */\n      dup4\n      dup4\n        /* \"contracts/Staking.sol\":5486:5502  _tokenIds.length */\n      swap1\n      pop\n        /* \"contracts/Staking.sol\":5482:5483  i */\n      dup2\n        /* \"contracts/Staking.sol\":5482:5502  i < _tokenIds.length */\n      lt\n        /* \"contracts/Staking.sol\":5462:6126  for (uint256 i = 0; i < _tokenIds.length; i++) {... */\n      iszero\n      tag_103\n      jumpi\n        /* \"contracts/Staking.sol\":5524:5544  LockInfo memory info */\n      0x00\n        /* \"contracts/Staking.sol\":5547:5555  lockInfo */\n      0x03\n        /* \"contracts/Staking.sol\":5547:5569  lockInfo[_tokenIds[i]] */\n      0x00\n        /* \"contracts/Staking.sol\":5556:5565  _tokenIds */\n      dup7\n      dup7\n        /* \"contracts/Staking.sol\":5566:5567  i */\n      dup6\n        /* \"contracts/Staking.sol\":5556:5568  _tokenIds[i] */\n      dup2\n      dup2\n      lt\n      tag_105\n      jumpi\n      tag_106\n      tag_77\n      jump\t// in\n    tag_106:\n    tag_105:\n      swap1\n      pop\n      0x20\n      mul\n      add\n      calldataload\n        /* \"contracts/Staking.sol\":5547:5569  lockInfo[_tokenIds[i]] */\n      dup2\n      mstore\n      0x20\n      add\n      swap1\n      dup2\n      mstore\n      0x20\n      add\n      0x00\n      keccak256\n        /* \"contracts/Staking.sol\":5524:5569  LockInfo memory info = lockInfo[_tokenIds[i]] */\n      mload(0x40)\n      dup1\n      0x80\n      add\n      0x40\n      mstore\n      swap1\n      dup2\n      0x00\n      dup3\n      add\n      0x00\n      swap1\n      sload\n      swap1\n      0x0100\n      exp\n      swap1\n      div\n      0xffffffffffffffffffffffffffffffffffffffff\n      and\n      0xffffffffffffffffffffffffffffffffffffffff\n      and\n      0xffffffffffffffffffffffffffffffffffffffff\n      and\n      dup2\n      mstore\n      0x20\n      add\n      0x01\n      dup3\n      add\n      sload\n      dup2\n      mstore\n      0x20\n      add\n      0x02\n      dup3\n      add\n      sload\n      dup2\n      mstore\n      0x20\n      add\n      0x03\n      dup3\n      add\n      0x00\n      swap1\n      sload\n      swap1\n      0x0100\n      exp\n      swap1\n      div\n      0xff\n      and\n      iszero\n      iszero\n      iszero\n      iszero\n      dup2\n      mstore\n      pop\n      pop\n      swap1\n      pop\n        /* \"contracts/Staking.sol\":5606:5616  msg.sender */\n      caller\n        /* \"contracts/Staking.sol\":5592:5616  info.owner == msg.sender */\n      0xffffffffffffffffffffffffffffffffffffffff\n      and\n        /* \"contracts/Staking.sol\":5592:5596  info */\n      dup2\n        /* \"contracts/Staking.sol\":5592:5602  info.owner */\n      0x00\n      add\n      mload\n        /* \"contracts/Staking.sol\":5592:5616  info.owner == msg.sender */\n      0xffffffffffffffffffffffffffffffffffffffff\n      and\n      eq\n        /* \"contracts/Staking.sol\":5584:5638  require(info.owner == msg.sender, \"Not a token owner\") */\n      tag_107\n      jumpi\n      mload(0x40)\n      0x08c379a000000000000000000000000000000000000000000000000000000000\n      dup2\n      mstore\n      0x04\n      add\n      tag_108\n      swap1\n      tag_109\n      jump\t// in\n    tag_108:\n      mload(0x40)\n      dup1\n      swap2\n      sub\n      swap1\n      revert\n    tag_107:\n        /* \"contracts/Staking.sol\":5692:5707  block.timestamp */\n      timestamp\n        /* \"contracts/Staking.sol\":5679:5689  lockPeriod */\n      sload(0x02)\n        /* \"contracts/Staking.sol\":5661:5665  info */\n      dup3\n        /* \"contracts/Staking.sol\":5661:5676  info.lockedTime */\n      0x20\n      add\n      mload\n        /* \"contracts/Staking.sol\":5661:5689  info.lockedTime + lockPeriod */\n      tag_110\n      swap2\n      swap1\n      tag_111\n      jump\t// in\n    tag_110:\n        /* \"contracts/Staking.sol\":5661:5707  info.lockedTime + lockPeriod < block.timestamp */\n      lt\n        /* \"contracts/Staking.sol\":5653:5733  require(info.lockedTime + lockPeriod < block.timestamp, \"Not able to claim yet\") */\n      tag_112\n      jumpi\n      mload(0x40)\n      0x08c379a000000000000000000000000000000000000000000000000000000000\n      dup2\n      mstore\n      0x04\n      add\n      tag_113\n      swap1\n      tag_114\n      jump\t// in\n    tag_113:\n      mload(0x40)\n      dup1\n      swap2\n      sub\n      swap1\n      revert\n    tag_112:\n        /* \"contracts/Staking.sol\":5757:5761  info */\n      dup1\n        /* \"contracts/Staking.sol\":5757:5772  info.isUnlocked */\n      0x60\n      add\n      mload\n        /* \"contracts/Staking.sol\":5756:5772  !info.isUnlocked */\n      iszero\n        /* \"contracts/Staking.sol\":5748:5793  require(!info.isUnlocked, \"Already unlocked\") */\n      tag_115\n      jumpi\n      mload(0x40)\n      0x08c379a000000000000000000000000000000000000000000000000000000000\n      dup2\n      mstore\n      0x04\n      add\n      tag_116\n      swap1\n      tag_117\n      jump\t// in\n    tag_116:\n      mload(0x40)\n      dup1\n      swap2\n      sub\n      swap1\n      revert\n    tag_115:\n        /* \"contracts/Staking.sol\":5810:5829  uint256 totalAmount */\n      0x00\n        /* \"contracts/Staking.sol\":5832:5859  _rewardAmount(_tokenIds[i]) */\n      tag_118\n        /* \"contracts/Staking.sol\":5846:5855  _tokenIds */\n      dup7\n      dup7\n        /* \"contracts/Staking.sol\":5856:5857  i */\n      dup6\n        /* \"contracts/Staking.sol\":5846:5858  _tokenIds[i] */\n      dup2\n      dup2\n      lt\n      tag_119\n      jumpi\n      tag_120\n      tag_77\n      jump\t// in\n    tag_120:\n    tag_119:\n      swap1\n      pop\n      0x20\n      mul\n      add\n      calldataload\n        /* \"contracts/Staking.sol\":5832:5845  _rewardAmount */\n      tag_121\n        /* \"contracts/Staking.sol\":5832:5859  _rewardAmount(_tokenIds[i]) */\n      jump\t// in\n    tag_118:\n        /* \"contracts/Staking.sol\":5810:5859  uint256 totalAmount = _rewardAmount(_tokenIds[i]) */\n      swap1\n      pop\n        /* \"contracts/Staking.sol\":5874:5898  uint256 unclaminedAmount */\n      0x00\n        /* \"contracts/Staking.sol\":5915:5919  info */\n      dup3\n        /* \"contracts/Staking.sol\":5915:5934  info.claimedRewards */\n      0x40\n      add\n      mload\n        /* \"contracts/Staking.sol\":5901:5912  totalAmount */\n      dup3\n        /* \"contracts/Staking.sol\":5901:5934  totalAmount - info.claimedRewards */\n      tag_122\n      swap2\n      swap1\n      tag_123\n      jump\t// in\n    tag_122:\n        /* \"contracts/Staking.sol\":5874:5934  uint256 unclaminedAmount = totalAmount - info.claimedRewards */\n      swap1\n      pop\n        /* \"contracts/Staking.sol\":6030:6046  unclaminedAmount */\n      dup1\n        /* \"contracts/Staking.sol\":6014:6046  totalRewards += unclaminedAmount */\n      dup6\n      tag_124\n      swap2\n      swap1\n      tag_111\n      jump\t// in\n    tag_124:\n      swap5\n      pop\n        /* \"contracts/Staking.sol\":6103:6114  totalAmount */\n      dup2\n        /* \"contracts/Staking.sol\":6063:6071  lockInfo */\n      0x03\n        /* \"contracts/Staking.sol\":6063:6085  lockInfo[_tokenIds[i]] */\n      0x00\n        /* \"contracts/Staking.sol\":6072:6081  _tokenIds */\n      dup10\n      dup10\n        /* \"contracts/Staking.sol\":6082:6083  i */\n      dup9\n        /* \"contracts/Staking.sol\":6072:6084  _tokenIds[i] */\n      dup2\n      dup2\n      lt\n      tag_125\n      jumpi\n      tag_126\n      tag_77\n      jump\t// in\n    tag_126:\n    tag_125:\n      swap1\n      pop\n      0x20\n      mul\n      add\n      calldataload\n        /* \"contracts/Staking.sol\":6063:6085  lockInfo[_tokenIds[i]] */\n      dup2\n      mstore\n      0x20\n      add\n      swap1\n      dup2\n      mstore\n      0x20\n      add\n      0x00\n      keccak256\n        /* \"contracts/Staking.sol\":6063:6100  lockInfo[_tokenIds[i]].claimedRewards */\n      0x02\n      add\n        /* \"contracts/Staking.sol\":6063:6114  lockInfo[_tokenIds[i]].claimedRewards = totalAmount */\n      dup2\n      swap1\n      sstore\n      pop\n        /* \"contracts/Staking.sol\":5509:6126  {... */\n      pop\n      pop\n      pop\n        /* \"contracts/Staking.sol\":5504:5507  i++ */\n      dup1\n      dup1\n      tag_127\n      swap1\n      tag_89\n      jump\t// in\n    tag_127:\n      swap2\n      pop\n      pop\n        /* \"contracts/Staking.sol\":5462:6126  for (uint256 i = 0; i < _tokenIds.length; i++) {... */\n      jump(tag_102)\n    tag_103:\n      pop\n        /* \"contracts/Staking.sol\":6158:6168  msg.sender */\n      caller\n        /* \"contracts/Staking.sol\":6143:6194  RewardsClaimed(msg.sender, _tokenIds, totalRewards) */\n      0xffffffffffffffffffffffffffffffffffffffff\n      and\n      0x37826be3c26dbad83731f4b985f22fa9ef86b6d1974cd77208332b7f1f283c0c\n        /* \"contracts/Staking.sol\":6170:6179  _tokenIds */\n      dup5\n      dup5\n        /* \"contracts/Staking.sol\":6181:6193  totalRewards */\n      dup5\n        /* \"contracts/Staking.sol\":6143:6194  RewardsClaimed(msg.sender, _tokenIds, totalRewards) */\n      mload(0x40)\n      tag_128\n      swap4\n      swap3\n      swap2\n      swap1\n      tag_129\n      jump\t// in\n    tag_128:\n      mload(0x40)\n      dup1\n      swap2\n      sub\n      swap1\n      log2\n        /* \"contracts/Staking.sol\":5365:6202  {... */\n      pop\n        /* \"contracts/Staking.sol\":5292:6202  function claimRewards(uint256[] calldata _tokenIds) external notContract {... */\n      pop\n      pop\n      jump\t// out\n        /* \"@openzeppelin/contracts/access/Ownable.sol\":1831:1932  function renounceOwnership() public virtual onlyOwner {... */\n    tag_33:\n        /* \"@openzeppelin/contracts/access/Ownable.sol\":1094:1107  _checkOwner() */\n      tag_131\n        /* \"@openzeppelin/contracts/access/Ownable.sol\":1094:1105  _checkOwner */\n      tag_132\n        /* \"@openzeppelin/contracts/access/Ownable.sol\":1094:1107  _checkOwner() */\n      jump\t// in\n    tag_131:\n        /* \"@openzeppelin/contracts/access/Ownable.sol\":1895:1925  _transferOwnership(address(0)) */\n      tag_134\n        /* \"@openzeppelin/contracts/access/Ownable.sol\":1922:1923  0 */\n      0x00\n        /* \"@openzeppelin/contracts/access/Ownable.sol\":1895:1913  _transferOwnership */\n      tag_135\n        /* \"@openzeppelin/contracts/access/Ownable.sol\":1895:1925  _transferOwnership(address(0)) */\n      jump\t// in\n    tag_134:\n        /* \"@openzeppelin/contracts/access/Ownable.sol\":1831:1932  function renounceOwnership() public virtual onlyOwner {... */\n      jump\t// out\n        /* \"contracts/Staking.sol\":2913:3126  function setLockPeriod(uint256 _lockPeriod) external onlyOwner {... */\n    tag_36:\n        /* \"@openzeppelin/contracts/access/Ownable.sol\":1094:1107  _checkOwner() */\n      tag_137\n        /* \"@openzeppelin/contracts/access/Ownable.sol\":1094:1105  _checkOwner */\n      tag_132\n        /* \"@openzeppelin/contracts/access/Ownable.sol\":1094:1107  _checkOwner() */\n      jump\t// in\n    tag_137:\n        /* \"contracts/Staking.sol\":3009:3010  0 */\n      0x00\n        /* \"contracts/Staking.sol\":2995:3006  _lockPeriod */\n      dup2\n        /* \"contracts/Staking.sol\":2995:3010  _lockPeriod > 0 */\n      gt\n        /* \"contracts/Staking.sol\":2987:3035  require(_lockPeriod > 0, \"Invalid lock period.\") */\n      tag_139\n      jumpi\n      mload(0x40)\n      0x08c379a000000000000000000000000000000000000000000000000000000000\n      dup2\n      mstore\n      0x04\n      add\n      tag_140\n      swap1\n      tag_141\n      jump\t// in\n    tag_140:\n      mload(0x40)\n      dup1\n      swap2\n      sub\n      swap1\n      revert\n    tag_139:\n        /* \"contracts/Staking.sol\":3059:3070  _lockPeriod */\n      dup1\n        /* \"contracts/Staking.sol\":3046:3056  lockPeriod */\n      0x02\n        /* \"contracts/Staking.sol\":3046:3070  lockPeriod = _lockPeriod */\n      dup2\n      swap1\n      sstore\n      pop\n        /* \"contracts/Staking.sol\":3088:3118  LockPeriodUpdated(_lockPeriod) */\n      0x8249ec545e68f6f1e1230133ca48c704d831a7f8e635ded80f3dd9e99b09bb2f\n        /* \"contracts/Staking.sol\":3106:3117  _lockPeriod */\n      dup2\n        /* \"contracts/Staking.sol\":3088:3118  LockPeriodUpdated(_lockPeriod) */\n      mload(0x40)\n      tag_142\n      swap2\n      swap1\n      tag_24\n      jump\t// in\n    tag_142:\n      mload(0x40)\n      dup1\n      swap2\n      sub\n      swap1\n      log1\n        /* \"contracts/Staking.sol\":2913:3126  function setLockPeriod(uint256 _lockPeriod) external onlyOwner {... */\n      pop\n      jump\t// out\n        /* \"contracts/Staking.sol\":4231:5194  function unlockNFT(uint256[] calldata _tokenIds) external notContract nonReentrant {... */\n    tag_39:\n        /* \"contracts/Staking.sol\":2639:2671  address(msg.sender).isContract() */\n      tag_144\n        /* \"contracts/Staking.sol\":2647:2657  msg.sender */\n      caller\n        /* \"contracts/Staking.sol\":2639:2669  address(msg.sender).isContract */\n      0xffffffffffffffffffffffffffffffffffffffff\n      and\n      tag_57\n        /* \"contracts/Staking.sol\":2639:2671  address(msg.sender).isContract() */\n      jump\t// in\n    tag_144:\n        /* \"contracts/Staking.sol\":2638:2671  !address(msg.sender).isContract() */\n      iszero\n        /* \"contracts/Staking.sol\":2630:2696  require(!address(msg.sender).isContract(), \"Contract not allowed\") */\n      tag_145\n      jumpi\n      mload(0x40)\n      0x08c379a000000000000000000000000000000000000000000000000000000000\n      dup2\n      mstore\n      0x04\n      add\n      tag_146\n      swap1\n      tag_60\n      jump\t// in\n    tag_146:\n      mload(0x40)\n      dup1\n      swap2\n      sub\n      swap1\n      revert\n    tag_145:\n        /* \"contracts/Staking.sol\":2729:2738  tx.origin */\n      origin\n        /* \"contracts/Staking.sol\":2715:2738  msg.sender == tx.origin */\n      0xffffffffffffffffffffffffffffffffffffffff\n      and\n        /* \"contracts/Staking.sol\":2715:2725  msg.sender */\n      caller\n        /* \"contracts/Staking.sol\":2715:2738  msg.sender == tx.origin */\n      0xffffffffffffffffffffffffffffffffffffffff\n      and\n      eq\n        /* \"contracts/Staking.sol\":2707:2769  require(msg.sender == tx.origin, \"Proxy contract not allowed\") */\n      tag_147\n      jumpi\n      mload(0x40)\n      0x08c379a000000000000000000000000000000000000000000000000000000000\n      dup2\n      mstore\n      0x04\n      add\n      tag_148\n      swap1\n      tag_63\n      jump\t// in\n    tag_148:\n      mload(0x40)\n      dup1\n      swap2\n      sub\n      swap1\n      revert\n    tag_147:\n        /* \"@openzeppelin/contracts/security/ReentrancyGuard.sol\":1744:1745  2 */\n      0x02\n        /* \"@openzeppelin/contracts/security/ReentrancyGuard.sol\":2325:2332  _status */\n      sload(0x01)\n        /* \"@openzeppelin/contracts/security/ReentrancyGuard.sol\":2325:2344  _status != _ENTERED */\n      sub\n        /* \"@openzeppelin/contracts/security/ReentrancyGuard.sol\":2317:2380  require(_status != _ENTERED, \"ReentrancyGuard: reentrant call\") */\n      tag_150\n      jumpi\n      mload(0x40)\n      0x08c379a000000000000000000000000000000000000000000000000000000000\n      dup2\n      mstore\n      0x04\n      add\n      tag_151\n      swap1\n      tag_67\n      jump\t// in\n    tag_151:\n      mload(0x40)\n      dup1\n      swap2\n      sub\n      swap1\n      revert\n    tag_150:\n        /* \"@openzeppelin/contracts/security/ReentrancyGuard.sol\":1744:1745  2 */\n      0x02\n        /* \"@openzeppelin/contracts/security/ReentrancyGuard.sol\":2455:2462  _status */\n      0x01\n        /* \"@openzeppelin/contracts/security/ReentrancyGuard.sol\":2455:2473  _status = _ENTERED */\n      dup2\n      swap1\n      sstore\n      pop\n        /* \"contracts/Staking.sol\":4352:4353  0 */\n      0x00\n        /* \"contracts/Staking.sol\":4333:4342  _tokenIds */\n      dup3\n      dup3\n        /* \"contracts/Staking.sol\":4333:4349  _tokenIds.length */\n      swap1\n      pop\n        /* \"contracts/Staking.sol\":4333:4353  _tokenIds.length > 0 */\n      gt\n        /* \"contracts/Staking.sol\":4325:4367  require(_tokenIds.length > 0, \"No tokens\") */\n      tag_153\n      jumpi\n      mload(0x40)\n      0x08c379a000000000000000000000000000000000000000000000000000000000\n      dup2\n      mstore\n      0x04\n      add\n      tag_154\n      swap1\n      tag_71\n      jump\t// in\n    tag_154:\n      mload(0x40)\n      dup1\n      swap2\n      sub\n      swap1\n      revert\n    tag_153:\n        /* \"contracts/Staking.sol\":4385:4394  uint256 i */\n      0x00\n        /* \"contracts/Staking.sol\":4380:5135  for (uint256 i = 0; i < _tokenIds.length; i++) {... */\n    tag_155:\n        /* \"contracts/Staking.sol\":4404:4413  _tokenIds */\n      dup3\n      dup3\n        /* \"contracts/Staking.sol\":4404:4420  _tokenIds.length */\n      swap1\n      pop\n        /* \"contracts/Staking.sol\":4400:4401  i */\n      dup2\n        /* \"contracts/Staking.sol\":4400:4420  i < _tokenIds.length */\n      lt\n        /* \"contracts/Staking.sol\":4380:5135  for (uint256 i = 0; i < _tokenIds.length; i++) {... */\n      iszero\n      tag_156\n      jumpi\n        /* \"contracts/Staking.sol\":4442:4462  LockInfo memory info */\n      0x00\n        /* \"contracts/Staking.sol\":4465:4473  lockInfo */\n      0x03\n        /* \"contracts/Staking.sol\":4465:4487  lockInfo[_tokenIds[i]] */\n      0x00\n        /* \"contracts/Staking.sol\":4474:4483  _tokenIds */\n      dup6\n      dup6\n        /* \"contracts/Staking.sol\":4484:4485  i */\n      dup6\n        /* \"contracts/Staking.sol\":4474:4486  _tokenIds[i] */\n      dup2\n      dup2\n      lt\n      tag_158\n      jumpi\n      tag_159\n      tag_77\n      jump\t// in\n    tag_159:\n    tag_158:\n      swap1\n      pop\n      0x20\n      mul\n      add\n      calldataload\n        /* \"contracts/Staking.sol\":4465:4487  lockInfo[_tokenIds[i]] */\n      dup2\n      mstore\n      0x20\n      add\n      swap1\n      dup2\n      mstore\n      0x20\n      add\n      0x00\n      keccak256\n        /* \"contracts/Staking.sol\":4442:4487  LockInfo memory info = lockInfo[_tokenIds[i]] */\n      mload(0x40)\n      dup1\n      0x80\n      add\n      0x40\n      mstore\n      swap1\n      dup2\n      0x00\n      dup3\n      add\n      0x00\n      swap1\n      sload\n      swap1\n      0x0100\n      exp\n      swap1\n      div\n      0xffffffffffffffffffffffffffffffffffffffff\n      and\n      0xffffffffffffffffffffffffffffffffffffffff\n      and\n      0xffffffffffffffffffffffffffffffffffffffff\n      and\n      dup2\n      mstore\n      0x20\n      add\n      0x01\n      dup3\n      add\n      sload\n      dup2\n      mstore\n      0x20\n      add\n      0x02\n      dup3\n      add\n      sload\n      dup2\n      mstore\n      0x20\n      add\n      0x03\n      dup3\n      add\n      0x00\n      swap1\n      sload\n      swap1\n      0x0100\n      exp\n      swap1\n      div\n      0xff\n      and\n      iszero\n      iszero\n      iszero\n      iszero\n      dup2\n      mstore\n      pop\n      pop\n      swap1\n      pop\n        /* \"contracts/Staking.sol\":4524:4534  msg.sender */\n      caller\n        /* \"contracts/Staking.sol\":4510:4534  info.owner == msg.sender */\n      0xffffffffffffffffffffffffffffffffffffffff\n      and\n        /* \"contracts/Staking.sol\":4510:4514  info */\n      dup2\n        /* \"contracts/Staking.sol\":4510:4520  info.owner */\n      0x00\n      add\n      mload\n        /* \"contracts/Staking.sol\":4510:4534  info.owner == msg.sender */\n      0xffffffffffffffffffffffffffffffffffffffff\n      and\n      eq\n        /* \"contracts/Staking.sol\":4502:4556  require(info.owner == msg.sender, \"Not a token owner\") */\n      tag_160\n      jumpi\n      mload(0x40)\n      0x08c379a000000000000000000000000000000000000000000000000000000000\n      dup2\n      mstore\n      0x04\n      add\n      tag_161\n      swap1\n      tag_109\n      jump\t// in\n    tag_161:\n      mload(0x40)\n      dup1\n      swap2\n      sub\n      swap1\n      revert\n    tag_160:\n        /* \"contracts/Staking.sol\":4610:4625  block.timestamp */\n      timestamp\n        /* \"contracts/Staking.sol\":4597:4607  lockPeriod */\n      sload(0x02)\n        /* \"contracts/Staking.sol\":4579:4583  info */\n      dup3\n        /* \"contracts/Staking.sol\":4579:4594  info.lockedTime */\n      0x20\n      add\n      mload\n        /* \"contracts/Staking.sol\":4579:4607  info.lockedTime + lockPeriod */\n      tag_162\n      swap2\n      swap1\n      tag_111\n      jump\t// in\n    tag_162:\n        /* \"contracts/Staking.sol\":4579:4625  info.lockedTime + lockPeriod < block.timestamp */\n      lt\n        /* \"contracts/Staking.sol\":4571:4652  require(info.lockedTime + lockPeriod < block.timestamp, \"Not able to unlock yet\") */\n      tag_163\n      jumpi\n      mload(0x40)\n      0x08c379a000000000000000000000000000000000000000000000000000000000\n      dup2\n      mstore\n      0x04\n      add\n      tag_164\n      swap1\n      tag_165\n      jump\t// in\n    tag_164:\n      mload(0x40)\n      dup1\n      swap2\n      sub\n      swap1\n      revert\n    tag_163:\n        /* \"contracts/Staking.sol\":4676:4680  info */\n      dup1\n        /* \"contracts/Staking.sol\":4676:4691  info.isUnlocked */\n      0x60\n      add\n      mload\n        /* \"contracts/Staking.sol\":4675:4691  !info.isUnlocked */\n      iszero\n        /* \"contracts/Staking.sol\":4667:4712  require(!info.isUnlocked, \"Already unlocked\") */\n      tag_166\n      jumpi\n      mload(0x40)\n      0x08c379a000000000000000000000000000000000000000000000000000000000\n      dup2\n      mstore\n      0x04\n      add\n      tag_167\n      swap1\n      tag_117\n      jump\t// in\n    tag_167:\n      mload(0x40)\n      dup1\n      swap2\n      sub\n      swap1\n      revert\n    tag_166:\n        /* \"contracts/Staking.sol\":4811:4830  uint256 totalAmount */\n      0x00\n        /* \"contracts/Staking.sol\":4833:4860  _rewardAmount(_tokenIds[i]) */\n      tag_168\n        /* \"contracts/Staking.sol\":4847:4856  _tokenIds */\n      dup6\n      dup6\n        /* \"contracts/Staking.sol\":4857:4858  i */\n      dup6\n        /* \"contracts/Staking.sol\":4847:4859  _tokenIds[i] */\n      dup2\n      dup2\n      lt\n      tag_169\n      jumpi\n      tag_170\n      tag_77\n      jump\t// in\n    tag_170:\n    tag_169:\n      swap1\n      pop\n      0x20\n      mul\n      add\n      calldataload\n        /* \"contracts/Staking.sol\":4833:4846  _rewardAmount */\n      tag_121\n        /* \"contracts/Staking.sol\":4833:4860  _rewardAmount(_tokenIds[i]) */\n      jump\t// in\n    tag_168:\n        /* \"contracts/Staking.sol\":4811:4860  uint256 totalAmount = _rewardAmount(_tokenIds[i]) */\n      swap1\n      pop\n        /* \"contracts/Staking.sol\":4875:4899  uint256 unclaminedAmount */\n      0x00\n        /* \"contracts/Staking.sol\":4916:4920  info */\n      dup3\n        /* \"contracts/Staking.sol\":4916:4935  info.claimedRewards */\n      0x40\n      add\n      mload\n        /* \"contracts/Staking.sol\":4902:4913  totalAmount */\n      dup3\n        /* \"contracts/Staking.sol\":4902:4935  totalAmount - info.claimedRewards */\n      tag_171\n      swap2\n      swap1\n      tag_123\n      jump\t// in\n    tag_171:\n        /* \"contracts/Staking.sol\":4875:4935  uint256 unclaminedAmount = totalAmount - info.claimedRewards */\n      swap1\n      pop\n        /* \"contracts/Staking.sol\":5057:5068  totalAmount */\n      dup2\n        /* \"contracts/Staking.sol\":5017:5025  lockInfo */\n      0x03\n        /* \"contracts/Staking.sol\":5017:5039  lockInfo[_tokenIds[i]] */\n      0x00\n        /* \"contracts/Staking.sol\":5026:5035  _tokenIds */\n      dup9\n      dup9\n        /* \"contracts/Staking.sol\":5036:5037  i */\n      dup9\n        /* \"contracts/Staking.sol\":5026:5038  _tokenIds[i] */\n      dup2\n      dup2\n      lt\n      tag_172\n      jumpi\n      tag_173\n      tag_77\n      jump\t// in\n    tag_173:\n    tag_172:\n      swap1\n      pop\n      0x20\n      mul\n      add\n      calldataload\n        /* \"contracts/Staking.sol\":5017:5039  lockInfo[_tokenIds[i]] */\n      dup2\n      mstore\n      0x20\n      add\n      swap1\n      dup2\n      mstore\n      0x20\n      add\n      0x00\n      keccak256\n        /* \"contracts/Staking.sol\":5017:5054  lockInfo[_tokenIds[i]].claimedRewards */\n      0x02\n      add\n        /* \"contracts/Staking.sol\":5017:5068  lockInfo[_tokenIds[i]].claimedRewards = totalAmount */\n      dup2\n      swap1\n      sstore\n      pop\n        /* \"contracts/Staking.sol\":5119:5123  true */\n      0x01\n        /* \"contracts/Staking.sol\":5083:5091  lockInfo */\n      0x03\n        /* \"contracts/Staking.sol\":5083:5105  lockInfo[_tokenIds[i]] */\n      0x00\n        /* \"contracts/Staking.sol\":5092:5101  _tokenIds */\n      dup9\n      dup9\n        /* \"contracts/Staking.sol\":5102:5103  i */\n      dup9\n        /* \"contracts/Staking.sol\":5092:5104  _tokenIds[i] */\n      dup2\n      dup2\n      lt\n      tag_174\n      jumpi\n      tag_175\n      tag_77\n      jump\t// in\n    tag_175:\n    tag_174:\n      swap1\n      pop\n      0x20\n      mul\n      add\n      calldataload\n        /* \"contracts/Staking.sol\":5083:5105  lockInfo[_tokenIds[i]] */\n      dup2\n      mstore\n      0x20\n      add\n      swap1\n      dup2\n      mstore\n      0x20\n      add\n      0x00\n      keccak256\n        /* \"contracts/Staking.sol\":5083:5116  lockInfo[_tokenIds[i]].isUnlocked */\n      0x03\n      add\n      0x00\n        /* \"contracts/Staking.sol\":5083:5123  lockInfo[_tokenIds[i]].isUnlocked = true */\n      0x0100\n      exp\n      dup2\n      sload\n      dup2\n      0xff\n      mul\n      not\n      and\n      swap1\n      dup4\n      iszero\n      iszero\n      mul\n      or\n      swap1\n      sstore\n      pop\n        /* \"contracts/Staking.sol\":4427:5135  {... */\n      pop\n      pop\n      pop\n        /* \"contracts/Staking.sol\":4422:4425  i++ */\n      dup1\n      dup1\n      tag_176\n      swap1\n      tag_89\n      jump\t// in\n    tag_176:\n      swap2\n      pop\n      pop\n        /* \"contracts/Staking.sol\":4380:5135  for (uint256 i = 0; i < _tokenIds.length; i++) {... */\n      jump(tag_155)\n    tag_156:\n      pop\n        /* \"contracts/Staking.sol\":5164:5174  msg.sender */\n      caller\n        /* \"contracts/Staking.sol\":5152:5186  NFTUnLocked(msg.sender, _tokenIds) */\n      0xffffffffffffffffffffffffffffffffffffffff\n      and\n      0x5cb48022479b9ac3bfb10a27965dc010acffc9fc1bc9a52f0b18975b944b54ca\n        /* \"contracts/Staking.sol\":5176:5185  _tokenIds */\n      dup4\n      dup4\n        /* \"contracts/Staking.sol\":5152:5186  NFTUnLocked(msg.sender, _tokenIds) */\n      mload(0x40)\n      tag_177\n      swap3\n      swap2\n      swap1\n      tag_91\n      jump\t// in\n    tag_177:\n      mload(0x40)\n      dup1\n      swap2\n      sub\n      swap1\n      log2\n        /* \"@openzeppelin/contracts/security/ReentrancyGuard.sol\":1701:1702  1 */\n      0x01\n        /* \"@openzeppelin/contracts/security/ReentrancyGuard.sol\":2628:2635  _status */\n      dup1\n        /* \"@openzeppelin/contracts/security/ReentrancyGuard.sol\":2628:2650  _status = _NOT_ENTERED */\n      dup2\n      swap1\n      sstore\n      pop\n        /* \"contracts/Staking.sol\":4231:5194  function unlockNFT(uint256[] calldata _tokenIds) external notContract nonReentrant {... */\n      pop\n      pop\n      jump\t// out\n        /* \"@openzeppelin/contracts/access/Ownable.sol\":1201:1286  function owner() public view virtual returns (address) {... */\n    tag_41:\n        /* \"@openzeppelin/contracts/access/Ownable.sol\":1247:1254  address */\n      0x00\n        /* \"@openzeppelin/contracts/access/Ownable.sol\":1273:1279  _owner */\n      dup1\n      0x00\n      swap1\n      sload\n      swap1\n      0x0100\n      exp\n      swap1\n      div\n      0xffffffffffffffffffffffffffffffffffffffff\n      and\n        /* \"@openzeppelin/contracts/access/Ownable.sol\":1266:1279  return _owner */\n      swap1\n      pop\n        /* \"@openzeppelin/contracts/access/Ownable.sol\":1201:1286  function owner() public view virtual returns (address) {... */\n      swap1\n      jump\t// out\n        /* \"contracts/Staking.sol\":1162:1181  uint256 public WAVE */\n    tag_45:\n      sload(0x06)\n      dup2\n      jump\t// out\n        /* \"contracts/Staking.sol\":1085:1131  mapping(uint256 => TokenInfo) public tokenInfo */\n    tag_49:\n      mstore(0x20, 0x05)\n      dup1\n      0x00\n      mstore\n      keccak256(0x00, 0x40)\n      0x00\n      swap2\n      pop\n      swap1\n      pop\n      dup1\n      0x00\n      add\n      0x00\n      swap1\n      sload\n      swap1\n      0x0100\n      exp\n      swap1\n      div\n      0xffffffffffffffffffffffffffffffffffffffff\n      and\n      swap1\n      pop\n      dup2\n      jump\t// out\n        /* \"@openzeppelin/contracts/access/Ownable.sol\":2081:2279  function transferOwnership(address newOwner) public virtual onlyOwner {... */\n    tag_54:\n        /* \"@openzeppelin/contracts/access/Ownable.sol\":1094:1107  _checkOwner() */\n      tag_180\n        /* \"@openzeppelin/contracts/access/Ownable.sol\":1094:1105  _checkOwner */\n      tag_132\n        /* \"@openzeppelin/contracts/access/Ownable.sol\":1094:1107  _checkOwner() */\n      jump\t// in\n    tag_180:\n        /* \"@openzeppelin/contracts/access/Ownable.sol\":2189:2190  0 */\n      0x00\n        /* \"@openzeppelin/contracts/access/Ownable.sol\":2169:2191  newOwner != address(0) */\n      0xffffffffffffffffffffffffffffffffffffffff\n      and\n        /* \"@openzeppelin/contracts/access/Ownable.sol\":2169:2177  newOwner */\n      dup2\n        /* \"@openzeppelin/contracts/access/Ownable.sol\":2169:2191  newOwner != address(0) */\n      0xffffffffffffffffffffffffffffffffffffffff\n      and\n      sub\n        /* \"@openzeppelin/contracts/access/Ownable.sol\":2161:2234  require(newOwner != address(0), \"Ownable: new owner is the zero address\") */\n      tag_182\n      jumpi\n      mload(0x40)\n      0x08c379a000000000000000000000000000000000000000000000000000000000\n      dup2\n      mstore\n      0x04\n      add\n      tag_183\n      swap1\n      tag_184\n      jump\t// in\n    tag_183:\n      mload(0x40)\n      dup1\n      swap2\n      sub\n      swap1\n      revert\n    tag_182:\n        /* \"@openzeppelin/contracts/access/Ownable.sol\":2244:2272  _transferOwnership(newOwner) */\n      tag_185\n        /* \"@openzeppelin/contracts/access/Ownable.sol\":2263:2271  newOwner */\n      dup2\n        /* \"@openzeppelin/contracts/access/Ownable.sol\":2244:2262  _transferOwnership */\n      tag_135\n        /* \"@openzeppelin/contracts/access/Ownable.sol\":2244:2272  _transferOwnership(newOwner) */\n      jump\t// in\n    tag_185:\n        /* \"@openzeppelin/contracts/access/Ownable.sol\":2081:2279  function transferOwnership(address newOwner) public virtual onlyOwner {... */\n      pop\n      jump\t// out\n        /* \"@openzeppelin/contracts/utils/Address.sol\":1175:1495  function isContract(address account) internal view returns (bool) {... */\n    tag_57:\n        /* \"@openzeppelin/contracts/utils/Address.sol\":1235:1239  bool */\n      0x00\n        /* \"@openzeppelin/contracts/utils/Address.sol\":1487:1488  0 */\n      dup1\n        /* \"@openzeppelin/contracts/utils/Address.sol\":1465:1472  account */\n      dup3\n        /* \"@openzeppelin/contracts/utils/Address.sol\":1465:1484  account.code.length */\n      0xffffffffffffffffffffffffffffffffffffffff\n      and\n      extcodesize\n        /* \"@openzeppelin/contracts/utils/Address.sol\":1465:1488  account.code.length > 0 */\n      gt\n        /* \"@openzeppelin/contracts/utils/Address.sol\":1458:1488  return account.code.length > 0 */\n      swap1\n      pop\n        /* \"@openzeppelin/contracts/utils/Address.sol\":1175:1495  function isContract(address account) internal view returns (bool) {... */\n      swap2\n      swap1\n      pop\n      jump\t// out\n        /* \"contracts/Staking.sol\":6265:6718  function _rewardAmount(uint256 _tokenId) internal view returns (uint256) {... */\n    tag_121:\n        /* \"contracts/Staking.sol\":6329:6336  uint256 */\n      0x00\n        /* \"contracts/Staking.sol\":6349:6369  LockInfo memory info */\n      dup1\n        /* \"contracts/Staking.sol\":6372:6380  lockInfo */\n      0x03\n        /* \"contracts/Staking.sol\":6372:6390  lockInfo[_tokenId] */\n      0x00\n        /* \"contracts/Staking.sol\":6381:6389  _tokenId */\n      dup5\n        /* \"contracts/Staking.sol\":6372:6390  lockInfo[_tokenId] */\n      dup2\n      mstore\n      0x20\n      add\n      swap1\n      dup2\n      mstore\n      0x20\n      add\n      0x00\n      keccak256\n        /* \"contracts/Staking.sol\":6349:6390  LockInfo memory info = lockInfo[_tokenId] */\n      mload(0x40)\n      dup1\n      0x80\n      add\n      0x40\n      mstore\n      swap1\n      dup2\n      0x00\n      dup3\n      add\n      0x00\n      swap1\n      sload\n      swap1\n      0x0100\n      exp\n      swap1\n      div\n      0xffffffffffffffffffffffffffffffffffffffff\n      and\n      0xffffffffffffffffffffffffffffffffffffffff\n      and\n      0xffffffffffffffffffffffffffffffffffffffff\n      and\n      dup2\n      mstore\n      0x20\n      add\n      0x01\n      dup3\n      add\n      sload\n      dup2\n      mstore\n      0x20\n      add\n      0x02\n      dup3\n      add\n      sload\n      dup2\n      mstore\n      0x20\n      add\n      0x03\n      dup3\n      add\n      0x00\n      swap1\n      sload\n      swap1\n      0x0100\n      exp\n      swap1\n      div\n      0xff\n      and\n      iszero\n      iszero\n      iszero\n      iszero\n      dup2\n      mstore\n      pop\n      pop\n      swap1\n      pop\n        /* \"contracts/Staking.sol\":6401:6424  uint256 stakingDuration */\n      0x00\n        /* \"contracts/Staking.sol\":6445:6449  info */\n      dup2\n        /* \"contracts/Staking.sol\":6445:6460  info.lockedTime */\n      0x20\n      add\n      mload\n        /* \"contracts/Staking.sol\":6427:6442  block.timestamp */\n      timestamp\n        /* \"contracts/Staking.sol\":6427:6460  block.timestamp - info.lockedTime */\n      tag_188\n      swap2\n      swap1\n      tag_123\n      jump\t// in\n    tag_188:\n        /* \"contracts/Staking.sol\":6401:6460  uint256 stakingDuration = block.timestamp - info.lockedTime */\n      swap1\n      pop\n        /* \"contracts/Staking.sol\":6471:6490  uint256 totalAmount */\n      0x00\n        /* \"contracts/Staking.sol\":6525:6535  lockPeriod */\n      sload(0x02)\n        /* \"contracts/Staking.sol\":6507:6522  stakingDuration */\n      dup3\n        /* \"contracts/Staking.sol\":6507:6535  stakingDuration < lockPeriod */\n      lt\n        /* \"contracts/Staking.sol\":6503:6711  if (stakingDuration < lockPeriod) {... */\n      iszero\n      tag_189\n      jumpi\n        /* \"contracts/Staking.sol\":6559:6560  0 */\n      0x00\n        /* \"contracts/Staking.sol\":6552:6560  return 0 */\n      swap4\n      pop\n      pop\n      pop\n      pop\n      jump(tag_187)\n        /* \"contracts/Staking.sol\":6503:6711  if (stakingDuration < lockPeriod) {... */\n    tag_189:\n        /* \"contracts/Staking.sol\":6688:6699  totalAmount */\n      dup1\n        /* \"contracts/Staking.sol\":6681:6699  return totalAmount */\n      swap4\n      pop\n      pop\n      pop\n      pop\n        /* \"contracts/Staking.sol\":6265:6718  function _rewardAmount(uint256 _tokenId) internal view returns (uint256) {... */\n    tag_187:\n      swap2\n      swap1\n      pop\n      jump\t// out\n        /* \"@openzeppelin/contracts/access/Ownable.sol\":1359:1489  function _checkOwner() internal view virtual {... */\n    tag_132:\n        /* \"@openzeppelin/contracts/access/Ownable.sol\":1433:1445  _msgSender() */\n      tag_192\n        /* \"@openzeppelin/contracts/access/Ownable.sol\":1433:1443  _msgSender */\n      tag_193\n        /* \"@openzeppelin/contracts/access/Ownable.sol\":1433:1445  _msgSender() */\n      jump\t// in\n    tag_192:\n        /* \"@openzeppelin/contracts/access/Ownable.sol\":1422:1445  owner() == _msgSender() */\n      0xffffffffffffffffffffffffffffffffffffffff\n      and\n        /* \"@openzeppelin/contracts/access/Ownable.sol\":1422:1429  owner() */\n      tag_194\n        /* \"@openzeppelin/contracts/access/Ownable.sol\":1422:1427  owner */\n      tag_41\n        /* \"@openzeppelin/contracts/access/Ownable.sol\":1422:1429  owner() */\n      jump\t// in\n    tag_194:\n        /* \"@openzeppelin/contracts/access/Ownable.sol\":1422:1445  owner() == _msgSender() */\n      0xffffffffffffffffffffffffffffffffffffffff\n      and\n      eq\n        /* \"@openzeppelin/contracts/access/Ownable.sol\":1414:1482  require(owner() == _msgSender(), \"Ownable: caller is not the owner\") */\n      tag_195\n      jumpi\n      mload(0x40)\n      0x08c379a000000000000000000000000000000000000000000000000000000000\n      dup2\n      mstore\n      0x04\n      add\n      tag_196\n      swap1\n      tag_197\n      jump\t// in\n    tag_196:\n      mload(0x40)\n      dup1\n      swap2\n      sub\n      swap1\n      revert\n    tag_195:\n        /* \"@openzeppelin/contracts/access/Ownable.sol\":1359:1489  function _checkOwner() internal view virtual {... */\n      jump\t// out\n        /* \"@openzeppelin/contracts/access/Ownable.sol\":2433:2620  function _transferOwnership(address newOwner) internal virtual {... */\n    tag_135:\n        /* \"@openzeppelin/contracts/access/Ownable.sol\":2506:2522  address oldOwner */\n      0x00\n        /* \"@openzeppelin/contracts/access/Ownable.sol\":2525:2531  _owner */\n      dup1\n      0x00\n      swap1\n      sload\n      swap1\n      0x0100\n      exp\n      swap1\n      div\n      0xffffffffffffffffffffffffffffffffffffffff\n      and\n        /* \"@openzeppelin/contracts/access/Ownable.sol\":2506:2531  address oldOwner = _owner */\n      swap1\n      pop\n        /* \"@openzeppelin/contracts/access/Ownable.sol\":2550:2558  newOwner */\n      dup2\n        /* \"@openzeppelin/contracts/access/Ownable.sol\":2541:2547  _owner */\n      0x00\n      dup1\n        /* \"@openzeppelin/contracts/access/Ownable.sol\":2541:2558  _owner = newOwner */\n      0x0100\n      exp\n      dup2\n      sload\n      dup2\n      0xffffffffffffffffffffffffffffffffffffffff\n      mul\n      not\n      and\n      swap1\n      dup4\n      0xffffffffffffffffffffffffffffffffffffffff\n      and\n      mul\n      or\n      swap1\n      sstore\n      pop\n        /* \"@openzeppelin/contracts/access/Ownable.sol\":2604:2612  newOwner */\n      dup2\n        /* \"@openzeppelin/contracts/access/Ownable.sol\":2573:2613  OwnershipTransferred(oldOwner, newOwner) */\n      0xffffffffffffffffffffffffffffffffffffffff\n      and\n        /* \"@openzeppelin/contracts/access/Ownable.sol\":2594:2602  oldOwner */\n      dup2\n        /* \"@openzeppelin/contracts/access/Ownable.sol\":2573:2613  OwnershipTransferred(oldOwner, newOwner) */\n      0xffffffffffffffffffffffffffffffffffffffff\n      and\n      0x8be0079c531659141344cd1fd0a4f28419497f9722a3daafe3b4186f6b6457e0\n      mload(0x40)\n      mload(0x40)\n      dup1\n      swap2\n      sub\n      swap1\n      log3\n        /* \"@openzeppelin/contracts/access/Ownable.sol\":2496:2620  {... */\n      pop\n        /* \"@openzeppelin/contracts/access/Ownable.sol\":2433:2620  function _transferOwnership(address newOwner) internal virtual {... */\n      pop\n      jump\t// out\n        /* \"@openzeppelin/contracts/utils/Context.sol\":640:736  function _msgSender() internal view virtual returns (address) {... */\n    tag_193:\n        /* \"@openzeppelin/contracts/utils/Context.sol\":693:700  address */\n      0x00\n        /* \"@openzeppelin/contracts/utils/Context.sol\":719:729  msg.sender */\n      caller\n        /* \"@openzeppelin/contracts/utils/Context.sol\":712:729  return msg.sender */\n      swap1\n      pop\n        /* \"@openzeppelin/contracts/utils/Context.sol\":640:736  function _msgSender() internal view virtual returns (address) {... */\n      swap1\n      jump\t// out\n        /* \"#utility.yul\":88:205   */\n    tag_201:\n        /* \"#utility.yul\":197:198   */\n      0x00\n        /* \"#utility.yul\":194:195   */\n      dup1\n        /* \"#utility.yul\":187:199   */\n      revert\n        /* \"#utility.yul\":211:328   */\n    tag_202:\n        /* \"#utility.yul\":320:321   */\n      0x00\n        /* \"#utility.yul\":317:318   */\n      dup1\n        /* \"#utility.yul\":310:322   */\n      revert\n        /* \"#utility.yul\":334:451   */\n    tag_203:\n        /* \"#utility.yul\":443:444   */\n      0x00\n        /* \"#utility.yul\":440:441   */\n      dup1\n        /* \"#utility.yul\":433:445   */\n      revert\n        /* \"#utility.yul\":457:574   */\n    tag_204:\n        /* \"#utility.yul\":566:567   */\n      0x00\n        /* \"#utility.yul\":563:564   */\n      dup1\n        /* \"#utility.yul\":556:568   */\n      revert\n        /* \"#utility.yul\":580:697   */\n    tag_205:\n        /* \"#utility.yul\":689:690   */\n      0x00\n        /* \"#utility.yul\":686:687   */\n      dup1\n        /* \"#utility.yul\":679:691   */\n      revert\n        /* \"#utility.yul\":720:1288   */\n    tag_206:\n        /* \"#utility.yul\":793:801   */\n      0x00\n        /* \"#utility.yul\":803:809   */\n      dup1\n        /* \"#utility.yul\":853:856   */\n      dup4\n        /* \"#utility.yul\":846:850   */\n      0x1f\n        /* \"#utility.yul\":838:844   */\n      dup5\n        /* \"#utility.yul\":834:851   */\n      add\n        /* \"#utility.yul\":830:857   */\n      slt\n        /* \"#utility.yul\":820:942   */\n      tag_258\n      jumpi\n        /* \"#utility.yul\":861:940   */\n      tag_259\n      tag_203\n      jump\t// in\n    tag_259:\n        /* \"#utility.yul\":820:942   */\n    tag_258:\n        /* \"#utility.yul\":974:980   */\n      dup3\n        /* \"#utility.yul\":961:981   */\n      calldataload\n        /* \"#utility.yul\":951:981   */\n      swap1\n      pop\n        /* \"#utility.yul\":1004:1022   */\n      0xffffffffffffffff\n        /* \"#utility.yul\":996:1002   */\n      dup2\n        /* \"#utility.yul\":993:1023   */\n      gt\n        /* \"#utility.yul\":990:1107   */\n      iszero\n      tag_260\n      jumpi\n        /* \"#utility.yul\":1026:1105   */\n      tag_261\n      tag_204\n      jump\t// in\n    tag_261:\n        /* \"#utility.yul\":990:1107   */\n    tag_260:\n        /* \"#utility.yul\":1140:1144   */\n      0x20\n        /* \"#utility.yul\":1132:1138   */\n      dup4\n        /* \"#utility.yul\":1128:1145   */\n      add\n        /* \"#utility.yul\":1116:1145   */\n      swap2\n      pop\n        /* \"#utility.yul\":1194:1197   */\n      dup4\n        /* \"#utility.yul\":1186:1190   */\n      0x20\n        /* \"#utility.yul\":1178:1184   */\n      dup3\n        /* \"#utility.yul\":1174:1191   */\n      mul\n        /* \"#utility.yul\":1164:1172   */\n      dup4\n        /* \"#utility.yul\":1160:1192   */\n      add\n        /* \"#utility.yul\":1157:1198   */\n      gt\n        /* \"#utility.yul\":1154:1282   */\n      iszero\n      tag_262\n      jumpi\n        /* \"#utility.yul\":1201:1280   */\n      tag_263\n      tag_205\n      jump\t// in\n    tag_263:\n        /* \"#utility.yul\":1154:1282   */\n    tag_262:\n        /* \"#utility.yul\":720:1288   */\n      swap3\n      pop\n      swap3\n      swap1\n      pop\n      jump\t// out\n        /* \"#utility.yul\":1294:1420   */\n    tag_207:\n        /* \"#utility.yul\":1331:1338   */\n      0x00\n        /* \"#utility.yul\":1371:1413   */\n      0xffffffffffffffffffffffffffffffffffffffff\n        /* \"#utility.yul\":1364:1369   */\n      dup3\n        /* \"#utility.yul\":1360:1414   */\n      and\n        /* \"#utility.yul\":1349:1414   */\n      swap1\n      pop\n        /* \"#utility.yul\":1294:1420   */\n      swap2\n      swap1\n      pop\n      jump\t// out\n        /* \"#utility.yul\":1426:1522   */\n    tag_208:\n        /* \"#utility.yul\":1463:1470   */\n      0x00\n        /* \"#utility.yul\":1492:1516   */\n      tag_266\n        /* \"#utility.yul\":1510:1515   */\n      dup3\n        /* \"#utility.yul\":1492:1516   */\n      tag_207\n      jump\t// in\n    tag_266:\n        /* \"#utility.yul\":1481:1516   */\n      swap1\n      pop\n        /* \"#utility.yul\":1426:1522   */\n      swap2\n      swap1\n      pop\n      jump\t// out\n        /* \"#utility.yul\":1528:1639   */\n    tag_209:\n        /* \"#utility.yul\":1580:1587   */\n      0x00\n        /* \"#utility.yul\":1609:1633   */\n      tag_268\n        /* \"#utility.yul\":1627:1632   */\n      dup3\n        /* \"#utility.yul\":1609:1633   */\n      tag_208\n      jump\t// in\n    tag_268:\n        /* \"#utility.yul\":1598:1633   */\n      swap1\n      pop\n        /* \"#utility.yul\":1528:1639   */\n      swap2\n      swap1\n      pop\n      jump\t// out\n        /* \"#utility.yul\":1645:1797   */\n    tag_210:\n        /* \"#utility.yul\":1733:1772   */\n      tag_270\n        /* \"#utility.yul\":1766:1771   */\n      dup2\n        /* \"#utility.yul\":1733:1772   */\n      tag_209\n      jump\t// in\n    tag_270:\n        /* \"#utility.yul\":1726:1731   */\n      dup2\n        /* \"#utility.yul\":1723:1773   */\n      eq\n        /* \"#utility.yul\":1713:1791   */\n      tag_271\n      jumpi\n        /* \"#utility.yul\":1787:1788   */\n      0x00\n        /* \"#utility.yul\":1784:1785   */\n      dup1\n        /* \"#utility.yul\":1777:1789   */\n      revert\n        /* \"#utility.yul\":1713:1791   */\n    tag_271:\n        /* \"#utility.yul\":1645:1797   */\n      pop\n      jump\t// out\n        /* \"#utility.yul\":1803:1972   */\n    tag_211:\n        /* \"#utility.yul\":1864:1869   */\n      0x00\n        /* \"#utility.yul\":1902:1908   */\n      dup2\n        /* \"#utility.yul\":1889:1909   */\n      calldataload\n        /* \"#utility.yul\":1880:1909   */\n      swap1\n      pop\n        /* \"#utility.yul\":1918:1966   */\n      tag_273\n        /* \"#utility.yul\":1960:1965   */\n      dup2\n        /* \"#utility.yul\":1918:1966   */\n      tag_210\n      jump\t// in\n    tag_273:\n        /* \"#utility.yul\":1803:1972   */\n      swap3\n      swap2\n      pop\n      pop\n      jump\t// out\n        /* \"#utility.yul\":1978:2712   */\n    tag_17:\n        /* \"#utility.yul\":2088:2094   */\n      0x00\n        /* \"#utility.yul\":2096:2102   */\n      dup1\n        /* \"#utility.yul\":2104:2110   */\n      0x00\n        /* \"#utility.yul\":2153:2155   */\n      0x40\n        /* \"#utility.yul\":2141:2150   */\n      dup5\n        /* \"#utility.yul\":2132:2139   */\n      dup7\n        /* \"#utility.yul\":2128:2151   */\n      sub\n        /* \"#utility.yul\":2124:2156   */\n      slt\n        /* \"#utility.yul\":2121:2240   */\n      iszero\n      tag_275\n      jumpi\n        /* \"#utility.yul\":2159:2238   */\n      tag_276\n      tag_201\n      jump\t// in\n    tag_276:\n        /* \"#utility.yul\":2121:2240   */\n    tag_275:\n        /* \"#utility.yul\":2307:2308   */\n      0x00\n        /* \"#utility.yul\":2296:2305   */\n      dup5\n        /* \"#utility.yul\":2292:2309   */\n      add\n        /* \"#utility.yul\":2279:2310   */\n      calldataload\n        /* \"#utility.yul\":2337:2355   */\n      0xffffffffffffffff\n        /* \"#utility.yul\":2329:2335   */\n      dup2\n        /* \"#utility.yul\":2326:2356   */\n      gt\n        /* \"#utility.yul\":2323:2440   */\n      iszero\n      tag_277\n      jumpi\n        /* \"#utility.yul\":2359:2438   */\n      tag_278\n      tag_202\n      jump\t// in\n    tag_278:\n        /* \"#utility.yul\":2323:2440   */\n    tag_277:\n        /* \"#utility.yul\":2472:2552   */\n      tag_279\n        /* \"#utility.yul\":2544:2551   */\n      dup7\n        /* \"#utility.yul\":2535:2541   */\n      dup3\n        /* \"#utility.yul\":2524:2533   */\n      dup8\n        /* \"#utility.yul\":2520:2542   */\n      add\n        /* \"#utility.yul\":2472:2552   */\n      tag_206\n      jump\t// in\n    tag_279:\n        /* \"#utility.yul\":2454:2552   */\n      swap4\n      pop\n      swap4\n      pop\n        /* \"#utility.yul\":2250:2562   */\n      pop\n        /* \"#utility.yul\":2601:2603   */\n      0x20\n        /* \"#utility.yul\":2627:2695   */\n      tag_280\n        /* \"#utility.yul\":2687:2694   */\n      dup7\n        /* \"#utility.yul\":2678:2684   */\n      dup3\n        /* \"#utility.yul\":2667:2676   */\n      dup8\n        /* \"#utility.yul\":2663:2685   */\n      add\n        /* \"#utility.yul\":2627:2695   */\n      tag_211\n      jump\t// in\n    tag_280:\n        /* \"#utility.yul\":2617:2695   */\n      swap2\n      pop\n        /* \"#utility.yul\":2572:2705   */\n      pop\n        /* \"#utility.yul\":1978:2712   */\n      swap3\n      pop\n      swap3\n      pop\n      swap3\n      jump\t// out\n        /* \"#utility.yul\":2718:2795   */\n    tag_212:\n        /* \"#utility.yul\":2755:2762   */\n      0x00\n        /* \"#utility.yul\":2784:2789   */\n      dup2\n        /* \"#utility.yul\":2773:2789   */\n      swap1\n      pop\n        /* \"#utility.yul\":2718:2795   */\n      swap2\n      swap1\n      pop\n      jump\t// out\n        /* \"#utility.yul\":2801:2923   */\n    tag_213:\n        /* \"#utility.yul\":2874:2898   */\n      tag_283\n        /* \"#utility.yul\":2892:2897   */\n      dup2\n        /* \"#utility.yul\":2874:2898   */\n      tag_212\n      jump\t// in\n    tag_283:\n        /* \"#utility.yul\":2867:2872   */\n      dup2\n        /* \"#utility.yul\":2864:2899   */\n      eq\n        /* \"#utility.yul\":2854:2917   */\n      tag_284\n      jumpi\n        /* \"#utility.yul\":2913:2914   */\n      0x00\n        /* \"#utility.yul\":2910:2911   */\n      dup1\n        /* \"#utility.yul\":2903:2915   */\n      revert\n        /* \"#utility.yul\":2854:2917   */\n    tag_284:\n        /* \"#utility.yul\":2801:2923   */\n      pop\n      jump\t// out\n        /* \"#utility.yul\":2929:3068   */\n    tag_214:\n        /* \"#utility.yul\":2975:2980   */\n      0x00\n        /* \"#utility.yul\":3013:3019   */\n      dup2\n        /* \"#utility.yul\":3000:3020   */\n      calldataload\n        /* \"#utility.yul\":2991:3020   */\n      swap1\n      pop\n        /* \"#utility.yul\":3029:3062   */\n      tag_286\n        /* \"#utility.yul\":3056:3061   */\n      dup2\n        /* \"#utility.yul\":3029:3062   */\n      tag_213\n      jump\t// in\n    tag_286:\n        /* \"#utility.yul\":2929:3068   */\n      swap3\n      swap2\n      pop\n      pop\n      jump\t// out\n        /* \"#utility.yul\":3074:3403   */\n    tag_21:\n        /* \"#utility.yul\":3133:3139   */\n      0x00\n        /* \"#utility.yul\":3182:3184   */\n      0x20\n        /* \"#utility.yul\":3170:3179   */\n      dup3\n        /* \"#utility.yul\":3161:3168   */\n      dup5\n        /* \"#utility.yul\":3157:3180   */\n      sub\n        /* \"#utility.yul\":3153:3185   */\n      slt\n        /* \"#utility.yul\":3150:3269   */\n      iszero\n      tag_288\n      jumpi\n        /* \"#utility.yul\":3188:3267   */\n      tag_289\n      tag_201\n      jump\t// in\n    tag_289:\n        /* \"#utility.yul\":3150:3269   */\n    tag_288:\n        /* \"#utility.yul\":3308:3309   */\n      0x00\n        /* \"#utility.yul\":3333:3386   */\n      tag_290\n        /* \"#utility.yul\":3378:3385   */\n      dup5\n        /* \"#utility.yul\":3369:3375   */\n      dup3\n        /* \"#utility.yul\":3358:3367   */\n      dup6\n        /* \"#utility.yul\":3354:3376   */\n      add\n        /* \"#utility.yul\":3333:3386   */\n      tag_214\n      jump\t// in\n    tag_290:\n        /* \"#utility.yul\":3323:3386   */\n      swap2\n      pop\n        /* \"#utility.yul\":3279:3396   */\n      pop\n        /* \"#utility.yul\":3074:3403   */\n      swap3\n      swap2\n      pop\n      pop\n      jump\t// out\n        /* \"#utility.yul\":3409:3527   */\n    tag_215:\n        /* \"#utility.yul\":3496:3520   */\n      tag_292\n        /* \"#utility.yul\":3514:3519   */\n      dup2\n        /* \"#utility.yul\":3496:3520   */\n      tag_212\n      jump\t// in\n    tag_292:\n        /* \"#utility.yul\":3491:3494   */\n      dup3\n        /* \"#utility.yul\":3484:3521   */\n      mstore\n        /* \"#utility.yul\":3409:3527   */\n      pop\n      pop\n      jump\t// out\n        /* \"#utility.yul\":3533:3755   */\n    tag_24:\n        /* \"#utility.yul\":3626:3630   */\n      0x00\n        /* \"#utility.yul\":3664:3666   */\n      0x20\n        /* \"#utility.yul\":3653:3662   */\n      dup3\n        /* \"#utility.yul\":3649:3667   */\n      add\n        /* \"#utility.yul\":3641:3667   */\n      swap1\n      pop\n        /* \"#utility.yul\":3677:3748   */\n      tag_294\n        /* \"#utility.yul\":3745:3746   */\n      0x00\n        /* \"#utility.yul\":3734:3743   */\n      dup4\n        /* \"#utility.yul\":3730:3747   */\n      add\n        /* \"#utility.yul\":3721:3727   */\n      dup5\n        /* \"#utility.yul\":3677:3748   */\n      tag_215\n      jump\t// in\n    tag_294:\n        /* \"#utility.yul\":3533:3755   */\n      swap3\n      swap2\n      pop\n      pop\n      jump\t// out\n        /* \"#utility.yul\":3761:4320   */\n    tag_30:\n        /* \"#utility.yul\":3847:3853   */\n      0x00\n        /* \"#utility.yul\":3855:3861   */\n      dup1\n        /* \"#utility.yul\":3904:3906   */\n      0x20\n        /* \"#utility.yul\":3892:3901   */\n      dup4\n        /* \"#utility.yul\":3883:3890   */\n      dup6\n        /* \"#utility.yul\":3879:3902   */\n      sub\n        /* \"#utility.yul\":3875:3907   */\n      slt\n        /* \"#utility.yul\":3872:3991   */\n      iszero\n      tag_296\n      jumpi\n        /* \"#utility.yul\":3910:3989   */\n      tag_297\n      tag_201\n      jump\t// in\n    tag_297:\n        /* \"#utility.yul\":3872:3991   */\n    tag_296:\n        /* \"#utility.yul\":4058:4059   */\n      0x00\n        /* \"#utility.yul\":4047:4056   */\n      dup4\n        /* \"#utility.yul\":4043:4060   */\n      add\n        /* \"#utility.yul\":4030:4061   */\n      calldataload\n        /* \"#utility.yul\":4088:4106   */\n      0xffffffffffffffff\n        /* \"#utility.yul\":4080:4086   */\n      dup2\n        /* \"#utility.yul\":4077:4107   */\n      gt\n        /* \"#utility.yul\":4074:4191   */\n      iszero\n      tag_298\n      jumpi\n        /* \"#utility.yul\":4110:4189   */\n      tag_299\n      tag_202\n      jump\t// in\n    tag_299:\n        /* \"#utility.yul\":4074:4191   */\n    tag_298:\n        /* \"#utility.yul\":4223:4303   */\n      tag_300\n        /* \"#utility.yul\":4295:4302   */\n      dup6\n        /* \"#utility.yul\":4286:4292   */\n      dup3\n        /* \"#utility.yul\":4275:4284   */\n      dup7\n        /* \"#utility.yul\":4271:4293   */\n      add\n        /* \"#utility.yul\":4223:4303   */\n      tag_206\n      jump\t// in\n    tag_300:\n        /* \"#utility.yul\":4205:4303   */\n      swap3\n      pop\n      swap3\n      pop\n        /* \"#utility.yul\":4001:4313   */\n      pop\n        /* \"#utility.yul\":3761:4320   */\n      swap3\n      pop\n      swap3\n      swap1\n      pop\n      jump\t// out\n        /* \"#utility.yul\":4326:4444   */\n    tag_216:\n        /* \"#utility.yul\":4413:4437   */\n      tag_302\n        /* \"#utility.yul\":4431:4436   */\n      dup2\n        /* \"#utility.yul\":4413:4437   */\n      tag_208\n      jump\t// in\n    tag_302:\n        /* \"#utility.yul\":4408:4411   */\n      dup3\n        /* \"#utility.yul\":4401:4438   */\n      mstore\n        /* \"#utility.yul\":4326:4444   */\n      pop\n      pop\n      jump\t// out\n        /* \"#utility.yul\":4450:4672   */\n    tag_43:\n        /* \"#utility.yul\":4543:4547   */\n      0x00\n        /* \"#utility.yul\":4581:4583   */\n      0x20\n        /* \"#utility.yul\":4570:4579   */\n      dup3\n        /* \"#utility.yul\":4566:4584   */\n      add\n        /* \"#utility.yul\":4558:4584   */\n      swap1\n      pop\n        /* \"#utility.yul\":4594:4665   */\n      tag_304\n        /* \"#utility.yul\":4662:4663   */\n      0x00\n        /* \"#utility.yul\":4651:4660   */\n      dup4\n        /* \"#utility.yul\":4647:4664   */\n      add\n        /* \"#utility.yul\":4638:4644   */\n      dup5\n        /* \"#utility.yul\":4594:4665   */\n      tag_216\n      jump\t// in\n    tag_304:\n        /* \"#utility.yul\":4450:4672   */\n      swap3\n      swap2\n      pop\n      pop\n      jump\t// out\n        /* \"#utility.yul\":4678:4800   */\n    tag_217:\n        /* \"#utility.yul\":4751:4775   */\n      tag_306\n        /* \"#utility.yul\":4769:4774   */\n      dup2\n        /* \"#utility.yul\":4751:4775   */\n      tag_208\n      jump\t// in\n    tag_306:\n        /* \"#utility.yul\":4744:4749   */\n      dup2\n        /* \"#utility.yul\":4741:4776   */\n      eq\n        /* \"#utility.yul\":4731:4794   */\n      tag_307\n      jumpi\n        /* \"#utility.yul\":4790:4791   */\n      0x00\n        /* \"#utility.yul\":4787:4788   */\n      dup1\n        /* \"#utility.yul\":4780:4792   */\n      revert\n        /* \"#utility.yul\":4731:4794   */\n    tag_307:\n        /* \"#utility.yul\":4678:4800   */\n      pop\n      jump\t// out\n        /* \"#utility.yul\":4806:4945   */\n    tag_218:\n        /* \"#utility.yul\":4852:4857   */\n      0x00\n        /* \"#utility.yul\":4890:4896   */\n      dup2\n        /* \"#utility.yul\":4877:4897   */\n      calldataload\n        /* \"#utility.yul\":4868:4897   */\n      swap1\n      pop\n        /* \"#utility.yul\":4906:4939   */\n      tag_309\n        /* \"#utility.yul\":4933:4938   */\n      dup2\n        /* \"#utility.yul\":4906:4939   */\n      tag_217\n      jump\t// in\n    tag_309:\n        /* \"#utility.yul\":4806:4945   */\n      swap3\n      swap2\n      pop\n      pop\n      jump\t// out\n        /* \"#utility.yul\":4951:5280   */\n    tag_53:\n        /* \"#utility.yul\":5010:5016   */\n      0x00\n        /* \"#utility.yul\":5059:5061   */\n      0x20\n        /* \"#utility.yul\":5047:5056   */\n      dup3\n        /* \"#utility.yul\":5038:5045   */\n      dup5\n        /* \"#utility.yul\":5034:5057   */\n      sub\n        /* \"#utility.yul\":5030:5062   */\n      slt\n        /* \"#utility.yul\":5027:5146   */\n      iszero\n      tag_311\n      jumpi\n        /* \"#utility.yul\":5065:5144   */\n      tag_312\n      tag_201\n      jump\t// in\n    tag_312:\n        /* \"#utility.yul\":5027:5146   */\n    tag_311:\n        /* \"#utility.yul\":5185:5186   */\n      0x00\n        /* \"#utility.yul\":5210:5263   */\n      tag_313\n        /* \"#utility.yul\":5255:5262   */\n      dup5\n        /* \"#utility.yul\":5246:5252   */\n      dup3\n        /* \"#utility.yul\":5235:5244   */\n      dup6\n        /* \"#utility.yul\":5231:5253   */\n      add\n        /* \"#utility.yul\":5210:5263   */\n      tag_218\n      jump\t// in\n    tag_313:\n        /* \"#utility.yul\":5200:5263   */\n      swap2\n      pop\n        /* \"#utility.yul\":5156:5273   */\n      pop\n        /* \"#utility.yul\":4951:5280   */\n      swap3\n      swap2\n      pop\n      pop\n      jump\t// out\n        /* \"#utility.yul\":5286:5455   */\n    tag_219:\n        /* \"#utility.yul\":5370:5381   */\n      0x00\n        /* \"#utility.yul\":5404:5410   */\n      dup3\n        /* \"#utility.yul\":5399:5402   */\n      dup3\n        /* \"#utility.yul\":5392:5411   */\n      mstore\n        /* \"#utility.yul\":5444:5448   */\n      0x20\n        /* \"#utility.yul\":5439:5442   */\n      dup3\n        /* \"#utility.yul\":5435:5449   */\n      add\n        /* \"#utility.yul\":5420:5449   */\n      swap1\n      pop\n        /* \"#utility.yul\":5286:5455   */\n      swap3\n      swap2\n      pop\n      pop\n      jump\t// out\n        /* \"#utility.yul\":5461:5631   */\n    tag_220:\n        /* \"#utility.yul\":5601:5623   */\n      0x436f6e7472616374206e6f7420616c6c6f776564000000000000000000000000\n        /* \"#utility.yul\":5597:5598   */\n      0x00\n        /* \"#utility.yul\":5589:5595   */\n      dup3\n        /* \"#utility.yul\":5585:5599   */\n      add\n        /* \"#utility.yul\":5578:5624   */\n      mstore\n        /* \"#utility.yul\":5461:5631   */\n      pop\n      jump\t// out\n        /* \"#utility.yul\":5637:6003   */\n    tag_221:\n        /* \"#utility.yul\":5779:5782   */\n      0x00\n        /* \"#utility.yul\":5800:5867   */\n      tag_317\n        /* \"#utility.yul\":5864:5866   */\n      0x14\n        /* \"#utility.yul\":5859:5862   */\n      dup4\n        /* \"#utility.yul\":5800:5867   */\n      tag_219\n      jump\t// in\n    tag_317:\n        /* \"#utility.yul\":5793:5867   */\n      swap2\n      pop\n        /* \"#utility.yul\":5876:5969   */\n      tag_318\n        /* \"#utility.yul\":5965:5968   */\n      dup3\n        /* \"#utility.yul\":5876:5969   */\n      tag_220\n      jump\t// in\n    tag_318:\n        /* \"#utility.yul\":5994:5996   */\n      0x20\n        /* \"#utility.yul\":5989:5992   */\n      dup3\n        /* \"#utility.yul\":5985:5997   */\n      add\n        /* \"#utility.yul\":5978:5997   */\n      swap1\n      pop\n        /* \"#utility.yul\":5637:6003   */\n      swap2\n      swap1\n      pop\n      jump\t// out\n        /* \"#utility.yul\":6009:6428   */\n    tag_60:\n        /* \"#utility.yul\":6175:6179   */\n      0x00\n        /* \"#utility.yul\":6213:6215   */\n      0x20\n        /* \"#utility.yul\":6202:6211   */\n      dup3\n        /* \"#utility.yul\":6198:6216   */\n      add\n        /* \"#utility.yul\":6190:6216   */\n      swap1\n      pop\n        /* \"#utility.yul\":6262:6271   */\n      dup2\n        /* \"#utility.yul\":6256:6260   */\n      dup2\n        /* \"#utility.yul\":6252:6272   */\n      sub\n        /* \"#utility.yul\":6248:6249   */\n      0x00\n        /* \"#utility.yul\":6237:6246   */\n      dup4\n        /* \"#utility.yul\":6233:6250   */\n      add\n        /* \"#utility.yul\":6226:6273   */\n      mstore\n        /* \"#utility.yul\":6290:6421   */\n      tag_320\n        /* \"#utility.yul\":6416:6420   */\n      dup2\n        /* \"#utility.yul\":6290:6421   */\n      tag_221\n      jump\t// in\n    tag_320:\n        /* \"#utility.yul\":6282:6421   */\n      swap1\n      pop\n        /* \"#utility.yul\":6009:6428   */\n      swap2\n      swap1\n      pop\n      jump\t// out\n        /* \"#utility.yul\":6434:6610   */\n    tag_222:\n        /* \"#utility.yul\":6574:6602   */\n      0x50726f787920636f6e7472616374206e6f7420616c6c6f776564000000000000\n        /* \"#utility.yul\":6570:6571   */\n      0x00\n        /* \"#utility.yul\":6562:6568   */\n      dup3\n        /* \"#utility.yul\":6558:6572   */\n      add\n        /* \"#utility.yul\":6551:6603   */\n      mstore\n        /* \"#utility.yul\":6434:6610   */\n      pop\n      jump\t// out\n        /* \"#utility.yul\":6616:6982   */\n    tag_223:\n        /* \"#utility.yul\":6758:6761   */\n      0x00\n        /* \"#utility.yul\":6779:6846   */\n      tag_323\n        /* \"#utility.yul\":6843:6845   */\n      0x1a\n        /* \"#utility.yul\":6838:6841   */\n      dup4\n        /* \"#utility.yul\":6779:6846   */\n      tag_219\n      jump\t// in\n    tag_323:\n        /* \"#utility.yul\":6772:6846   */\n      swap2\n      pop\n        /* \"#utility.yul\":6855:6948   */\n      tag_324\n        /* \"#utility.yul\":6944:6947   */\n      dup3\n        /* \"#utility.yul\":6855:6948   */\n      tag_222\n      jump\t// in\n    tag_324:\n        /* \"#utility.yul\":6973:6975   */\n      0x20\n        /* \"#utility.yul\":6968:6971   */\n      dup3\n        /* \"#utility.yul\":6964:6976   */\n      add\n        /* \"#utility.yul\":6957:6976   */\n      swap1\n      pop\n        /* \"#utility.yul\":6616:6982   */\n      swap2\n      swap1\n      pop\n      jump\t// out\n        /* \"#utility.yul\":6988:7407   */\n    tag_63:\n        /* \"#utility.yul\":7154:7158   */\n      0x00\n        /* \"#utility.yul\":7192:7194   */\n      0x20\n        /* \"#utility.yul\":7181:7190   */\n      dup3\n        /* \"#utility.yul\":7177:7195   */\n      add\n        /* \"#utility.yul\":7169:7195   */\n      swap1\n      pop\n        /* \"#utility.yul\":7241:7250   */\n      dup2\n        /* \"#utility.yul\":7235:7239   */\n      dup2\n        /* \"#utility.yul\":7231:7251   */\n      sub\n        /* \"#utility.yul\":7227:7228   */\n      0x00\n        /* \"#utility.yul\":7216:7225   */\n      dup4\n        /* \"#utility.yul\":7212:7229   */\n      add\n        /* \"#utility.yul\":7205:7252   */\n      mstore\n        /* \"#utility.yul\":7269:7400   */\n      tag_326\n        /* \"#utility.yul\":7395:7399   */\n      dup2\n        /* \"#utility.yul\":7269:7400   */\n      tag_223\n      jump\t// in\n    tag_326:\n        /* \"#utility.yul\":7261:7400   */\n      swap1\n      pop\n        /* \"#utility.yul\":6988:7407   */\n      swap2\n      swap1\n      pop\n      jump\t// out\n        /* \"#utility.yul\":7413:7594   */\n    tag_224:\n        /* \"#utility.yul\":7553:7586   */\n      0x5265656e7472616e637947756172643a207265656e7472616e742063616c6c00\n        /* \"#utility.yul\":7549:7550   */\n      0x00\n        /* \"#utility.yul\":7541:7547   */\n      dup3\n        /* \"#utility.yul\":7537:7551   */\n      add\n        /* \"#utility.yul\":7530:7587   */\n      mstore\n        /* \"#utility.yul\":7413:7594   */\n      pop\n      jump\t// out\n        /* \"#utility.yul\":7600:7966   */\n    tag_225:\n        /* \"#utility.yul\":7742:7745   */\n      0x00\n        /* \"#utility.yul\":7763:7830   */\n      tag_329\n        /* \"#utility.yul\":7827:7829   */\n      0x1f\n        /* \"#utility.yul\":7822:7825   */\n      dup4\n        /* \"#utility.yul\":7763:7830   */\n      tag_219\n      jump\t// in\n    tag_329:\n        /* \"#utility.yul\":7756:7830   */\n      swap2\n      pop\n        /* \"#utility.yul\":7839:7932   */\n      tag_330\n        /* \"#utility.yul\":7928:7931   */\n      dup3\n        /* \"#utility.yul\":7839:7932   */\n      tag_224\n      jump\t// in\n    tag_330:\n        /* \"#utility.yul\":7957:7959   */\n      0x20\n        /* \"#utility.yul\":7952:7955   */\n      dup3\n        /* \"#utility.yul\":7948:7960   */\n      add\n        /* \"#utility.yul\":7941:7960   */\n      swap1\n      pop\n        /* \"#utility.yul\":7600:7966   */\n      swap2\n      swap1\n      pop\n      jump\t// out\n        /* \"#utility.yul\":7972:8391   */\n    tag_67:\n        /* \"#utility.yul\":8138:8142   */\n      0x00\n        /* \"#utility.yul\":8176:8178   */\n      0x20\n        /* \"#utility.yul\":8165:8174   */\n      dup3\n        /* \"#utility.yul\":8161:8179   */\n      add\n        /* \"#utility.yul\":8153:8179   */\n      swap1\n      pop\n        /* \"#utility.yul\":8225:8234   */\n      dup2\n        /* \"#utility.yul\":8219:8223   */\n      dup2\n        /* \"#utility.yul\":8215:8235   */\n      sub\n        /* \"#utility.yul\":8211:8212   */\n      0x00\n        /* \"#utility.yul\":8200:8209   */\n      dup4\n        /* \"#utility.yul\":8196:8213   */\n      add\n        /* \"#utility.yul\":8189:8236   */\n      mstore\n        /* \"#utility.yul\":8253:8384   */\n      tag_332\n        /* \"#utility.yul\":8379:8383   */\n      dup2\n        /* \"#utility.yul\":8253:8384   */\n      tag_225\n      jump\t// in\n    tag_332:\n        /* \"#utility.yul\":8245:8384   */\n      swap1\n      pop\n        /* \"#utility.yul\":7972:8391   */\n      swap2\n      swap1\n      pop\n      jump\t// out\n        /* \"#utility.yul\":8397:8556   */\n    tag_226:\n        /* \"#utility.yul\":8537:8548   */\n      0x4e6f20746f6b656e730000000000000000000000000000000000000000000000\n        /* \"#utility.yul\":8533:8534   */\n      0x00\n        /* \"#utility.yul\":8525:8531   */\n      dup3\n        /* \"#utility.yul\":8521:8535   */\n      add\n        /* \"#utility.yul\":8514:8549   */\n      mstore\n        /* \"#utility.yul\":8397:8556   */\n      pop\n      jump\t// out\n        /* \"#utility.yul\":8562:8927   */\n    tag_227:\n        /* \"#utility.yul\":8704:8707   */\n      0x00\n        /* \"#utility.yul\":8725:8791   */\n      tag_335\n        /* \"#utility.yul\":8789:8790   */\n      0x09\n        /* \"#utility.yul\":8784:8787   */\n      dup4\n        /* \"#utility.yul\":8725:8791   */\n      tag_219\n      jump\t// in\n    tag_335:\n        /* \"#utility.yul\":8718:8791   */\n      swap2\n      pop\n        /* \"#utility.yul\":8800:8893   */\n      tag_336\n        /* \"#utility.yul\":8889:8892   */\n      dup3\n        /* \"#utility.yul\":8800:8893   */\n      tag_226\n      jump\t// in\n    tag_336:\n        /* \"#utility.yul\":8918:8920   */\n      0x20\n        /* \"#utility.yul\":8913:8916   */\n      dup3\n        /* \"#utility.yul\":8909:8921   */\n      add\n        /* \"#utility.yul\":8902:8921   */\n      swap1\n      pop\n        /* \"#utility.yul\":8562:8927   */\n      swap2\n      swap1\n      pop\n      jump\t// out\n        /* \"#utility.yul\":8933:9352   */\n    tag_71:\n        /* \"#utility.yul\":9099:9103   */\n      0x00\n        /* \"#utility.yul\":9137:9139   */\n      0x20\n        /* \"#utility.yul\":9126:9135   */\n      dup3\n        /* \"#utility.yul\":9122:9140   */\n      add\n        /* \"#utility.yul\":9114:9140   */\n      swap1\n      pop\n        /* \"#utility.yul\":9186:9195   */\n      dup2\n        /* \"#utility.yul\":9180:9184   */\n      dup2\n        /* \"#utility.yul\":9176:9196   */\n      sub\n        /* \"#utility.yul\":9172:9173   */\n      0x00\n        /* \"#utility.yul\":9161:9170   */\n      dup4\n        /* \"#utility.yul\":9157:9174   */\n      add\n        /* \"#utility.yul\":9150:9197   */\n      mstore\n        /* \"#utility.yul\":9214:9345   */\n      tag_338\n        /* \"#utility.yul\":9340:9344   */\n      dup2\n        /* \"#utility.yul\":9214:9345   */\n      tag_227\n      jump\t// in\n    tag_338:\n        /* \"#utility.yul\":9206:9345   */\n      swap1\n      pop\n        /* \"#utility.yul\":8933:9352   */\n      swap2\n      swap1\n      pop\n      jump\t// out\n        /* \"#utility.yul\":9358:9538   */\n    tag_77:\n        /* \"#utility.yul\":9406:9483   */\n      0x4e487b7100000000000000000000000000000000000000000000000000000000\n        /* \"#utility.yul\":9403:9404   */\n      0x00\n        /* \"#utility.yul\":9396:9484   */\n      mstore\n        /* \"#utility.yul\":9503:9507   */\n      0x32\n        /* \"#utility.yul\":9500:9501   */\n      0x04\n        /* \"#utility.yul\":9493:9508   */\n      mstore\n        /* \"#utility.yul\":9527:9531   */\n      0x24\n        /* \"#utility.yul\":9524:9525   */\n      0x00\n        /* \"#utility.yul\":9517:9532   */\n      revert\n        /* \"#utility.yul\":9544:9687   */\n    tag_228:\n        /* \"#utility.yul\":9601:9606   */\n      0x00\n        /* \"#utility.yul\":9632:9638   */\n      dup2\n        /* \"#utility.yul\":9626:9639   */\n      mload\n        /* \"#utility.yul\":9617:9639   */\n      swap1\n      pop\n        /* \"#utility.yul\":9648:9681   */\n      tag_341\n        /* \"#utility.yul\":9675:9680   */\n      dup2\n        /* \"#utility.yul\":9648:9681   */\n      tag_217\n      jump\t// in\n    tag_341:\n        /* \"#utility.yul\":9544:9687   */\n      swap3\n      swap2\n      pop\n      pop\n      jump\t// out\n        /* \"#utility.yul\":9693:10044   */\n    tag_82:\n        /* \"#utility.yul\":9763:9769   */\n      0x00\n        /* \"#utility.yul\":9812:9814   */\n      0x20\n        /* \"#utility.yul\":9800:9809   */\n      dup3\n        /* \"#utility.yul\":9791:9798   */\n      dup5\n        /* \"#utility.yul\":9787:9810   */\n      sub\n        /* \"#utility.yul\":9783:9815   */\n      slt\n        /* \"#utility.yul\":9780:9899   */\n      iszero\n      tag_343\n      jumpi\n        /* \"#utility.yul\":9818:9897   */\n      tag_344\n      tag_201\n      jump\t// in\n    tag_344:\n        /* \"#utility.yul\":9780:9899   */\n    tag_343:\n        /* \"#utility.yul\":9938:9939   */\n      0x00\n        /* \"#utility.yul\":9963:10027   */\n      tag_345\n        /* \"#utility.yul\":10019:10026   */\n      dup5\n        /* \"#utility.yul\":10010:10016   */\n      dup3\n        /* \"#utility.yul\":9999:10008   */\n      dup6\n        /* \"#utility.yul\":9995:10017   */\n      add\n        /* \"#utility.yul\":9963:10027   */\n      tag_228\n      jump\t// in\n    tag_345:\n        /* \"#utility.yul\":9953:10027   */\n      swap2\n      pop\n        /* \"#utility.yul\":9909:10037   */\n      pop\n        /* \"#utility.yul\":9693:10044   */\n      swap3\n      swap2\n      pop\n      pop\n      jump\t// out\n        /* \"#utility.yul\":10050:10225   */\n    tag_229:\n        /* \"#utility.yul\":10190:10217   */\n      0x596f7520646f6e277420686f6c64207468697320746f6b656e00000000000000\n        /* \"#utility.yul\":10186:10187   */\n      0x00\n        /* \"#utility.yul\":10178:10184   */\n      dup3\n        /* \"#utility.yul\":10174:10188   */\n      add\n        /* \"#utility.yul\":10167:10218   */\n      mstore\n        /* \"#utility.yul\":10050:10225   */\n      pop\n      jump\t// out\n        /* \"#utility.yul\":10231:10597   */\n    tag_230:\n        /* \"#utility.yul\":10373:10376   */\n      0x00\n        /* \"#utility.yul\":10394:10461   */\n      tag_348\n        /* \"#utility.yul\":10458:10460   */\n      0x19\n        /* \"#utility.yul\":10453:10456   */\n      dup4\n        /* \"#utility.yul\":10394:10461   */\n      tag_219\n      jump\t// in\n    tag_348:\n        /* \"#utility.yul\":10387:10461   */\n      swap2\n      pop\n        /* \"#utility.yul\":10470:10563   */\n      tag_349\n        /* \"#utility.yul\":10559:10562   */\n      dup3\n        /* \"#utility.yul\":10470:10563   */\n      tag_229\n      jump\t// in\n    tag_349:\n        /* \"#utility.yul\":10588:10590   */\n      0x20\n        /* \"#utility.yul\":10583:10586   */\n      dup3\n        /* \"#utility.yul\":10579:10591   */\n      add\n        /* \"#utility.yul\":10572:10591   */\n      swap1\n      pop\n        /* \"#utility.yul\":10231:10597   */\n      swap2\n      swap1\n      pop\n      jump\t// out\n        /* \"#utility.yul\":10603:11022   */\n    tag_85:\n        /* \"#utility.yul\":10769:10773   */\n      0x00\n        /* \"#utility.yul\":10807:10809   */\n      0x20\n        /* \"#utility.yul\":10796:10805   */\n      dup3\n        /* \"#utility.yul\":10792:10810   */\n      add\n        /* \"#utility.yul\":10784:10810   */\n      swap1\n      pop\n        /* \"#utility.yul\":10856:10865   */\n      dup2\n        /* \"#utility.yul\":10850:10854   */\n      dup2\n        /* \"#utility.yul\":10846:10866   */\n      sub\n        /* \"#utility.yul\":10842:10843   */\n      0x00\n        /* \"#utility.yul\":10831:10840   */\n      dup4\n        /* \"#utility.yul\":10827:10844   */\n      add\n        /* \"#utility.yul\":10820:10867   */\n      mstore\n        /* \"#utility.yul\":10884:11015   */\n      tag_351\n        /* \"#utility.yul\":11010:11014   */\n      dup2\n        /* \"#utility.yul\":10884:11015   */\n      tag_230\n      jump\t// in\n    tag_351:\n        /* \"#utility.yul\":10876:11015   */\n      swap1\n      pop\n        /* \"#utility.yul\":10603:11022   */\n      swap2\n      swap1\n      pop\n      jump\t// out\n        /* \"#utility.yul\":11028:11208   */\n    tag_231:\n        /* \"#utility.yul\":11076:11153   */\n      0x4e487b7100000000000000000000000000000000000000000000000000000000\n        /* \"#utility.yul\":11073:11074   */\n      0x00\n        /* \"#utility.yul\":11066:11154   */\n      mstore\n        /* \"#utility.yul\":11173:11177   */\n      0x11\n        /* \"#utility.yul\":11170:11171   */\n      0x04\n        /* \"#utility.yul\":11163:11178   */\n      mstore\n        /* \"#utility.yul\":11197:11201   */\n      0x24\n        /* \"#utility.yul\":11194:11195   */\n      0x00\n        /* \"#utility.yul\":11187:11202   */\n      revert\n        /* \"#utility.yul\":11214:11447   */\n    tag_89:\n        /* \"#utility.yul\":11253:11256   */\n      0x00\n        /* \"#utility.yul\":11276:11300   */\n      tag_354\n        /* \"#utility.yul\":11294:11299   */\n      dup3\n        /* \"#utility.yul\":11276:11300   */\n      tag_212\n      jump\t// in\n    tag_354:\n        /* \"#utility.yul\":11267:11300   */\n      swap2\n      pop\n        /* \"#utility.yul\":11322:11388   */\n      0xffffffffffffffffffffffffffffffffffffffffffffffffffffffffffffffff\n        /* \"#utility.yul\":11315:11320   */\n      dup3\n        /* \"#utility.yul\":11312:11389   */\n      sub\n        /* \"#utility.yul\":11309:11412   */\n      tag_355\n      jumpi\n        /* \"#utility.yul\":11392:11410   */\n      tag_356\n      tag_231\n      jump\t// in\n    tag_356:\n        /* \"#utility.yul\":11309:11412   */\n    tag_355:\n        /* \"#utility.yul\":11439:11440   */\n      0x01\n        /* \"#utility.yul\":11432:11437   */\n      dup3\n        /* \"#utility.yul\":11428:11441   */\n      add\n        /* \"#utility.yul\":11421:11441   */\n      swap1\n      pop\n        /* \"#utility.yul\":11214:11447   */\n      swap2\n      swap1\n      pop\n      jump\t// out\n        /* \"#utility.yul\":11453:11637   */\n    tag_232:\n        /* \"#utility.yul\":11552:11563   */\n      0x00\n        /* \"#utility.yul\":11586:11592   */\n      dup3\n        /* \"#utility.yul\":11581:11584   */\n      dup3\n        /* \"#utility.yul\":11574:11593   */\n      mstore\n        /* \"#utility.yul\":11626:11630   */\n      0x20\n        /* \"#utility.yul\":11621:11624   */\n      dup3\n        /* \"#utility.yul\":11617:11631   */\n      add\n        /* \"#utility.yul\":11602:11631   */\n      swap1\n      pop\n        /* \"#utility.yul\":11453:11637   */\n      swap3\n      swap2\n      pop\n      pop\n      jump\t// out\n        /* \"#utility.yul\":11643:11760   */\n    tag_233:\n        /* \"#utility.yul\":11752:11753   */\n      0x00\n        /* \"#utility.yul\":11749:11750   */\n      dup1\n        /* \"#utility.yul\":11742:11754   */\n      revert\n        /* \"#utility.yul\":11766:11864   */\n    tag_234:\n        /* \"#utility.yul\":11850:11856   */\n      dup3\n        /* \"#utility.yul\":11845:11848   */\n      dup2\n        /* \"#utility.yul\":11840:11843   */\n      dup4\n        /* \"#utility.yul\":11827:11857   */\n      calldatacopy\n        /* \"#utility.yul\":11766:11864   */\n      pop\n      pop\n      pop\n      jump\t// out\n        /* \"#utility.yul\":11900:12437   */\n    tag_235:\n        /* \"#utility.yul\":12028:12031   */\n      0x00\n        /* \"#utility.yul\":12049:12135   */\n      tag_361\n        /* \"#utility.yul\":12128:12134   */\n      dup4\n        /* \"#utility.yul\":12123:12126   */\n      dup6\n        /* \"#utility.yul\":12049:12135   */\n      tag_232\n      jump\t// in\n    tag_361:\n        /* \"#utility.yul\":12042:12135   */\n      swap4\n      pop\n        /* \"#utility.yul\":12159:12225   */\n      0x07ffffffffffffffffffffffffffffffffffffffffffffffffffffffffffffff\n        /* \"#utility.yul\":12151:12157   */\n      dup4\n        /* \"#utility.yul\":12148:12226   */\n      gt\n        /* \"#utility.yul\":12145:12310   */\n      iszero\n      tag_362\n      jumpi\n        /* \"#utility.yul\":12229:12308   */\n      tag_363\n      tag_233\n      jump\t// in\n    tag_363:\n        /* \"#utility.yul\":12145:12310   */\n    tag_362:\n        /* \"#utility.yul\":12341:12345   */\n      0x20\n        /* \"#utility.yul\":12333:12339   */\n      dup4\n        /* \"#utility.yul\":12329:12346   */\n      mul\n        /* \"#utility.yul\":12319:12346   */\n      swap3\n      pop\n        /* \"#utility.yul\":12356:12399   */\n      tag_364\n        /* \"#utility.yul\":12392:12398   */\n      dup4\n        /* \"#utility.yul\":12387:12390   */\n      dup6\n        /* \"#utility.yul\":12380:12385   */\n      dup5\n        /* \"#utility.yul\":12356:12399   */\n      tag_234\n      jump\t// in\n    tag_364:\n        /* \"#utility.yul\":12424:12430   */\n      dup3\n        /* \"#utility.yul\":12419:12422   */\n      dup5\n        /* \"#utility.yul\":12415:12431   */\n      add\n        /* \"#utility.yul\":12408:12431   */\n      swap1\n      pop\n        /* \"#utility.yul\":11900:12437   */\n      swap4\n      swap3\n      pop\n      pop\n      pop\n      jump\t// out\n        /* \"#utility.yul\":12443:12836   */\n    tag_91:\n        /* \"#utility.yul\":12596:12600   */\n      0x00\n        /* \"#utility.yul\":12634:12636   */\n      0x20\n        /* \"#utility.yul\":12623:12632   */\n      dup3\n        /* \"#utility.yul\":12619:12637   */\n      add\n        /* \"#utility.yul\":12611:12637   */\n      swap1\n      pop\n        /* \"#utility.yul\":12683:12692   */\n      dup2\n        /* \"#utility.yul\":12677:12681   */\n      dup2\n        /* \"#utility.yul\":12673:12693   */\n      sub\n        /* \"#utility.yul\":12669:12670   */\n      0x00\n        /* \"#utility.yul\":12658:12667   */\n      dup4\n        /* \"#utility.yul\":12654:12671   */\n      add\n        /* \"#utility.yul\":12647:12694   */\n      mstore\n        /* \"#utility.yul\":12711:12829   */\n      tag_366\n        /* \"#utility.yul\":12824:12828   */\n      dup2\n        /* \"#utility.yul\":12815:12821   */\n      dup5\n        /* \"#utility.yul\":12807:12813   */\n      dup7\n        /* \"#utility.yul\":12711:12829   */\n      tag_235\n      jump\t// in\n    tag_366:\n        /* \"#utility.yul\":12703:12829   */\n      swap1\n      pop\n        /* \"#utility.yul\":12443:12836   */\n      swap4\n      swap3\n      pop\n      pop\n      pop\n      jump\t// out\n        /* \"#utility.yul\":12842:13009   */\n    tag_236:\n        /* \"#utility.yul\":12982:13001   */\n      0x4e6f74206120746f6b656e206f776e6572000000000000000000000000000000\n        /* \"#utility.yul\":12978:12979   */\n      0x00\n        /* \"#utility.yul\":12970:12976   */\n      dup3\n        /* \"#utility.yul\":12966:12980   */\n      add\n        /* \"#utility.yul\":12959:13002   */\n      mstore\n        /* \"#utility.yul\":12842:13009   */\n      pop\n      jump\t// out\n        /* \"#utility.yul\":13015:13381   */\n    tag_237:\n        /* \"#utility.yul\":13157:13160   */\n      0x00\n        /* \"#utility.yul\":13178:13245   */\n      tag_369\n        /* \"#utility.yul\":13242:13244   */\n      0x11\n        /* \"#utility.yul\":13237:13240   */\n      dup4\n        /* \"#utility.yul\":13178:13245   */\n      tag_219\n      jump\t// in\n    tag_369:\n        /* \"#utility.yul\":13171:13245   */\n      swap2\n      pop\n        /* \"#utility.yul\":13254:13347   */\n      tag_370\n        /* \"#utility.yul\":13343:13346   */\n      dup3\n        /* \"#utility.yul\":13254:13347   */\n      tag_236\n      jump\t// in\n    tag_370:\n        /* \"#utility.yul\":13372:13374   */\n      0x20\n        /* \"#utility.yul\":13367:13370   */\n      dup3\n        /* \"#utility.yul\":13363:13375   */\n      add\n        /* \"#utility.yul\":13356:13375   */\n      swap1\n      pop\n        /* \"#utility.yul\":13015:13381   */\n      swap2\n      swap1\n      pop\n      jump\t// out\n        /* \"#utility.yul\":13387:13806   */\n    tag_109:\n        /* \"#utility.yul\":13553:13557   */\n      0x00\n        /* \"#utility.yul\":13591:13593   */\n      0x20\n        /* \"#utility.yul\":13580:13589   */\n      dup3\n        /* \"#utility.yul\":13576:13594   */\n      add\n        /* \"#utility.yul\":13568:13594   */\n      swap1\n      pop\n        /* \"#utility.yul\":13640:13649   */\n      dup2\n        /* \"#utility.yul\":13634:13638   */\n      dup2\n        /* \"#utility.yul\":13630:13650   */\n      sub\n        /* \"#utility.yul\":13626:13627   */\n      0x00\n        /* \"#utility.yul\":13615:13624   */\n      dup4\n        /* \"#utility.yul\":13611:13628   */\n      add\n        /* \"#utility.yul\":13604:13651   */\n      mstore\n        /* \"#utility.yul\":13668:13799   */\n      tag_372\n        /* \"#utility.yul\":13794:13798   */\n      dup2\n        /* \"#utility.yul\":13668:13799   */\n      tag_237\n      jump\t// in\n    tag_372:\n        /* \"#utility.yul\":13660:13799   */\n      swap1\n      pop\n        /* \"#utility.yul\":13387:13806   */\n      swap2\n      swap1\n      pop\n      jump\t// out\n        /* \"#utility.yul\":13812:14003   */\n    tag_111:\n        /* \"#utility.yul\":13852:13855   */\n      0x00\n        /* \"#utility.yul\":13871:13891   */\n      tag_374\n        /* \"#utility.yul\":13889:13890   */\n      dup3\n        /* \"#utility.yul\":13871:13891   */\n      tag_212\n      jump\t// in\n    tag_374:\n        /* \"#utility.yul\":13866:13891   */\n      swap2\n      pop\n        /* \"#utility.yul\":13905:13925   */\n      tag_375\n        /* \"#utility.yul\":13923:13924   */\n      dup4\n        /* \"#utility.yul\":13905:13925   */\n      tag_212\n      jump\t// in\n    tag_375:\n        /* \"#utility.yul\":13900:13925   */\n      swap3\n      pop\n        /* \"#utility.yul\":13948:13949   */\n      dup3\n        /* \"#utility.yul\":13945:13946   */\n      dup3\n        /* \"#utility.yul\":13941:13950   */\n      add\n        /* \"#utility.yul\":13934:13950   */\n      swap1\n      pop\n        /* \"#utility.yul\":13969:13972   */\n      dup1\n        /* \"#utility.yul\":13966:13967   */\n      dup3\n        /* \"#utility.yul\":13963:13973   */\n      gt\n        /* \"#utility.yul\":13960:13996   */\n      iszero\n      tag_376\n      jumpi\n        /* \"#utility.yul\":13976:13994   */\n      tag_377\n      tag_231\n      jump\t// in\n    tag_377:\n        /* \"#utility.yul\":13960:13996   */\n    tag_376:\n        /* \"#utility.yul\":13812:14003   */\n      swap3\n      swap2\n      pop\n      pop\n      jump\t// out\n        /* \"#utility.yul\":14009:14180   */\n    tag_238:\n        /* \"#utility.yul\":14149:14172   */\n      0x4e6f742061626c6520746f20636c61696d207965740000000000000000000000\n        /* \"#utility.yul\":14145:14146   */\n      0x00\n        /* \"#utility.yul\":14137:14143   */\n      dup3\n        /* \"#utility.yul\":14133:14147   */\n      add\n        /* \"#utility.yul\":14126:14173   */\n      mstore\n        /* \"#utility.yul\":14009:14180   */\n      pop\n      jump\t// out\n        /* \"#utility.yul\":14186:14552   */\n    tag_239:\n        /* \"#utility.yul\":14328:14331   */\n      0x00\n        /* \"#utility.yul\":14349:14416   */\n      tag_380\n        /* \"#utility.yul\":14413:14415   */\n      0x15\n        /* \"#utility.yul\":14408:14411   */\n      dup4\n        /* \"#utility.yul\":14349:14416   */\n      tag_219\n      jump\t// in\n    tag_380:\n        /* \"#utility.yul\":14342:14416   */\n      swap2\n      pop\n        /* \"#utility.yul\":14425:14518   */\n      tag_381\n        /* \"#utility.yul\":14514:14517   */\n      dup3\n        /* \"#utility.yul\":14425:14518   */\n      tag_238\n      jump\t// in\n    tag_381:\n        /* \"#utility.yul\":14543:14545   */\n      0x20\n        /* \"#utility.yul\":14538:14541   */\n      dup3\n        /* \"#utility.yul\":14534:14546   */\n      add\n        /* \"#utility.yul\":14527:14546   */\n      swap1\n      pop\n        /* \"#utility.yul\":14186:14552   */\n      swap2\n      swap1\n      pop\n      jump\t// out\n        /* \"#utility.yul\":14558:14977   */\n    tag_114:\n        /* \"#utility.yul\":14724:14728   */\n      0x00\n        /* \"#utility.yul\":14762:14764   */\n      0x20\n        /* \"#utility.yul\":14751:14760   */\n      dup3\n        /* \"#utility.yul\":14747:14765   */\n      add\n        /* \"#utility.yul\":14739:14765   */\n      swap1\n      pop\n        /* \"#utility.yul\":14811:14820   */\n      dup2\n        /* \"#utility.yul\":14805:14809   */\n      dup2\n        /* \"#utility.yul\":14801:14821   */\n      sub\n        /* \"#utility.yul\":14797:14798   */\n      0x00\n        /* \"#utility.yul\":14786:14795   */\n      dup4\n        /* \"#utility.yul\":14782:14799   */\n      add\n        /* \"#utility.yul\":14775:14822   */\n      mstore\n        /* \"#utility.yul\":14839:14970   */\n      tag_383\n        /* \"#utility.yul\":14965:14969   */\n      dup2\n        /* \"#utility.yul\":14839:14970   */\n      tag_239\n      jump\t// in\n    tag_383:\n        /* \"#utility.yul\":14831:14970   */\n      swap1\n      pop\n        /* \"#utility.yul\":14558:14977   */\n      swap2\n      swap1\n      pop\n      jump\t// out\n        /* \"#utility.yul\":14983:15149   */\n    tag_240:\n        /* \"#utility.yul\":15123:15141   */\n      0x416c726561647920756e6c6f636b656400000000000000000000000000000000\n        /* \"#utility.yul\":15119:15120   */\n      0x00\n        /* \"#utility.yul\":15111:15117   */\n      dup3\n        /* \"#utility.yul\":15107:15121   */\n      add\n        /* \"#utility.yul\":15100:15142   */\n      mstore\n        /* \"#utility.yul\":14983:15149   */\n      pop\n      jump\t// out\n        /* \"#utility.yul\":15155:15521   */\n    tag_241:\n        /* \"#utility.yul\":15297:15300   */\n      0x00\n        /* \"#utility.yul\":15318:15385   */\n      tag_386\n        /* \"#utility.yul\":15382:15384   */\n      0x10\n        /* \"#utility.yul\":15377:15380   */\n      dup4\n        /* \"#utility.yul\":15318:15385   */\n      tag_219\n      jump\t// in\n    tag_386:\n        /* \"#utility.yul\":15311:15385   */\n      swap2\n      pop\n        /* \"#utility.yul\":15394:15487   */\n      tag_387\n        /* \"#utility.yul\":15483:15486   */\n      dup3\n        /* \"#utility.yul\":15394:15487   */\n      tag_240\n      jump\t// in\n    tag_387:\n        /* \"#utility.yul\":15512:15514   */\n      0x20\n        /* \"#utility.yul\":15507:15510   */\n      dup3\n        /* \"#utility.yul\":15503:15515   */\n      add\n        /* \"#utility.yul\":15496:15515   */\n      swap1\n      pop\n        /* \"#utility.yul\":15155:15521   */\n      swap2\n      swap1\n      pop\n      jump\t// out\n        /* \"#utility.yul\":15527:15946   */\n    tag_117:\n        /* \"#utility.yul\":15693:15697   */\n      0x00\n        /* \"#utility.yul\":15731:15733   */\n      0x20\n        /* \"#utility.yul\":15720:15729   */\n      dup3\n        /* \"#utility.yul\":15716:15734   */\n      add\n        /* \"#utility.yul\":15708:15734   */\n      swap1\n      pop\n        /* \"#utility.yul\":15780:15789   */\n      dup2\n        /* \"#utility.yul\":15774:15778   */\n      dup2\n        /* \"#utility.yul\":15770:15790   */\n      sub\n        /* \"#utility.yul\":15766:15767   */\n      0x00\n        /* \"#utility.yul\":15755:15764   */\n      dup4\n        /* \"#utility.yul\":15751:15768   */\n      add\n        /* \"#utility.yul\":15744:15791   */\n      mstore\n        /* \"#utility.yul\":15808:15939   */\n      tag_389\n        /* \"#utility.yul\":15934:15938   */\n      dup2\n        /* \"#utility.yul\":15808:15939   */\n      tag_241\n      jump\t// in\n    tag_389:\n        /* \"#utility.yul\":15800:15939   */\n      swap1\n      pop\n        /* \"#utility.yul\":15527:15946   */\n      swap2\n      swap1\n      pop\n      jump\t// out\n        /* \"#utility.yul\":15952:16146   */\n    tag_123:\n        /* \"#utility.yul\":15992:15996   */\n      0x00\n        /* \"#utility.yul\":16012:16032   */\n      tag_391\n        /* \"#utility.yul\":16030:16031   */\n      dup3\n        /* \"#utility.yul\":16012:16032   */\n      tag_212\n      jump\t// in\n    tag_391:\n        /* \"#utility.yul\":16007:16032   */\n      swap2\n      pop\n        /* \"#utility.yul\":16046:16066   */\n      tag_392\n        /* \"#utility.yul\":16064:16065   */\n      dup4\n        /* \"#utility.yul\":16046:16066   */\n      tag_212\n      jump\t// in\n    tag_392:\n        /* \"#utility.yul\":16041:16066   */\n      swap3\n      pop\n        /* \"#utility.yul\":16090:16091   */\n      dup3\n        /* \"#utility.yul\":16087:16088   */\n      dup3\n        /* \"#utility.yul\":16083:16092   */\n      sub\n        /* \"#utility.yul\":16075:16092   */\n      swap1\n      pop\n        /* \"#utility.yul\":16114:16115   */\n      dup2\n        /* \"#utility.yul\":16108:16112   */\n      dup2\n        /* \"#utility.yul\":16105:16116   */\n      gt\n        /* \"#utility.yul\":16102:16139   */\n      iszero\n      tag_393\n      jumpi\n        /* \"#utility.yul\":16119:16137   */\n      tag_394\n      tag_231\n      jump\t// in\n    tag_394:\n        /* \"#utility.yul\":16102:16139   */\n    tag_393:\n        /* \"#utility.yul\":15952:16146   */\n      swap3\n      swap2\n      pop\n      pop\n      jump\t// out\n        /* \"#utility.yul\":16152:16655   */\n    tag_129:\n        /* \"#utility.yul\":16333:16337   */\n      0x00\n        /* \"#utility.yul\":16371:16373   */\n      0x40\n        /* \"#utility.yul\":16360:16369   */\n      dup3\n        /* \"#utility.yul\":16356:16374   */\n      add\n        /* \"#utility.yul\":16348:16374   */\n      swap1\n      pop\n        /* \"#utility.yul\":16420:16429   */\n      dup2\n        /* \"#utility.yul\":16414:16418   */\n      dup2\n        /* \"#utility.yul\":16410:16430   */\n      sub\n        /* \"#utility.yul\":16406:16407   */\n      0x00\n        /* \"#utility.yul\":16395:16404   */\n      dup4\n        /* \"#utility.yul\":16391:16408   */\n      add\n        /* \"#utility.yul\":16384:16431   */\n      mstore\n        /* \"#utility.yul\":16448:16566   */\n      tag_396\n        /* \"#utility.yul\":16561:16565   */\n      dup2\n        /* \"#utility.yul\":16552:16558   */\n      dup6\n        /* \"#utility.yul\":16544:16550   */\n      dup8\n        /* \"#utility.yul\":16448:16566   */\n      tag_235\n      jump\t// in\n    tag_396:\n        /* \"#utility.yul\":16440:16566   */\n      swap1\n      pop\n        /* \"#utility.yul\":16576:16648   */\n      tag_397\n        /* \"#utility.yul\":16644:16646   */\n      0x20\n        /* \"#utility.yul\":16633:16642   */\n      dup4\n        /* \"#utility.yul\":16629:16647   */\n      add\n        /* \"#utility.yul\":16620:16626   */\n      dup5\n        /* \"#utility.yul\":16576:16648   */\n      tag_215\n      jump\t// in\n    tag_397:\n        /* \"#utility.yul\":16152:16655   */\n      swap5\n      swap4\n      pop\n      pop\n      pop\n      pop\n      jump\t// out\n        /* \"#utility.yul\":16661:16831   */\n    tag_242:\n        /* \"#utility.yul\":16801:16823   */\n      0x496e76616c6964206c6f636b20706572696f642e000000000000000000000000\n        /* \"#utility.yul\":16797:16798   */\n      0x00\n        /* \"#utility.yul\":16789:16795   */\n      dup3\n        /* \"#utility.yul\":16785:16799   */\n      add\n        /* \"#utility.yul\":16778:16824   */\n      mstore\n        /* \"#utility.yul\":16661:16831   */\n      pop\n      jump\t// out\n        /* \"#utility.yul\":16837:17203   */\n    tag_243:\n        /* \"#utility.yul\":16979:16982   */\n      0x00\n        /* \"#utility.yul\":17000:17067   */\n      tag_400\n        /* \"#utility.yul\":17064:17066   */\n      0x14\n        /* \"#utility.yul\":17059:17062   */\n      dup4\n        /* \"#utility.yul\":17000:17067   */\n      tag_219\n      jump\t// in\n    tag_400:\n        /* \"#utility.yul\":16993:17067   */\n      swap2\n      pop\n        /* \"#utility.yul\":17076:17169   */\n      tag_401\n        /* \"#utility.yul\":17165:17168   */\n      dup3\n        /* \"#utility.yul\":17076:17169   */\n      tag_242\n      jump\t// in\n    tag_401:\n        /* \"#utility.yul\":17194:17196   */\n      0x20\n        /* \"#utility.yul\":17189:17192   */\n      dup3\n        /* \"#utility.yul\":17185:17197   */\n      add\n        /* \"#utility.yul\":17178:17197   */\n      swap1\n      pop\n        /* \"#utility.yul\":16837:17203   */\n      swap2\n      swap1\n      pop\n      jump\t// out\n        /* \"#utility.yul\":17209:17628   */\n    tag_141:\n        /* \"#utility.yul\":17375:17379   */\n      0x00\n        /* \"#utility.yul\":17413:17415   */\n      0x20\n        /* \"#utility.yul\":17402:17411   */\n      dup3\n        /* \"#utility.yul\":17398:17416   */\n      add\n        /* \"#utility.yul\":17390:17416   */\n      swap1\n      pop\n        /* \"#utility.yul\":17462:17471   */\n      dup2\n        /* \"#utility.yul\":17456:17460   */\n      dup2\n        /* \"#utility.yul\":17452:17472   */\n      sub\n        /* \"#utility.yul\":17448:17449   */\n      0x00\n        /* \"#utility.yul\":17437:17446   */\n      dup4\n        /* \"#utility.yul\":17433:17450   */\n      add\n        /* \"#utility.yul\":17426:17473   */\n      mstore\n        /* \"#utility.yul\":17490:17621   */\n      tag_403\n        /* \"#utility.yul\":17616:17620   */\n      dup2\n        /* \"#utility.yul\":17490:17621   */\n      tag_243\n      jump\t// in\n    tag_403:\n        /* \"#utility.yul\":17482:17621   */\n      swap1\n      pop\n        /* \"#utility.yul\":17209:17628   */\n      swap2\n      swap1\n      pop\n      jump\t// out\n        /* \"#utility.yul\":17634:17806   */\n    tag_244:\n        /* \"#utility.yul\":17774:17798   */\n      0x4e6f742061626c6520746f20756e6c6f636b2079657400000000000000000000\n        /* \"#utility.yul\":17770:17771   */\n      0x00\n        /* \"#utility.yul\":17762:17768   */\n      dup3\n        /* \"#utility.yul\":17758:17772   */\n      add\n        /* \"#utility.yul\":17751:17799   */\n      mstore\n        /* \"#utility.yul\":17634:17806   */\n      pop\n      jump\t// out\n        /* \"#utility.yul\":17812:18178   */\n    tag_245:\n        /* \"#utility.yul\":17954:17957   */\n      0x00\n        /* \"#utility.yul\":17975:18042   */\n      tag_406\n        /* \"#utility.yul\":18039:18041   */\n      0x16\n        /* \"#utility.yul\":18034:18037   */\n      dup4\n        /* \"#utility.yul\":17975:18042   */\n      tag_219\n      jump\t// in\n    tag_406:\n        /* \"#utility.yul\":17968:18042   */\n      swap2\n      pop\n        /* \"#utility.yul\":18051:18144   */\n      tag_407\n        /* \"#utility.yul\":18140:18143   */\n      dup3\n        /* \"#utility.yul\":18051:18144   */\n      tag_244\n      jump\t// in\n    tag_407:\n        /* \"#utility.yul\":18169:18171   */\n      0x20\n        /* \"#utility.yul\":18164:18167   */\n      dup3\n        /* \"#utility.yul\":18160:18172   */\n      add\n        /* \"#utility.yul\":18153:18172   */\n      swap1\n      pop\n        /* \"#utility.yul\":17812:18178   */\n      swap2\n      swap1\n      pop\n      jump\t// out\n        /* \"#utility.yul\":18184:18603   */\n    tag_165:\n        /* \"#utility.yul\":18350:18354   */\n      0x00\n        /* \"#utility.yul\":18388:18390   */\n      0x20\n        /* \"#utility.yul\":18377:18386   */\n      dup3\n        /* \"#utility.yul\":18373:18391   */\n      add\n        /* \"#utility.yul\":18365:18391   */\n      swap1\n      pop\n        /* \"#utility.yul\":18437:18446   */\n      dup2\n        /* \"#utility.yul\":18431:18435   */\n      dup2\n        /* \"#utility.yul\":18427:18447   */\n      sub\n        /* \"#utility.yul\":18423:18424   */\n      0x00\n        /* \"#utility.yul\":18412:18421   */\n      dup4\n        /* \"#utility.yul\":18408:18425   */\n      add\n        /* \"#utility.yul\":18401:18448   */\n      mstore\n        /* \"#utility.yul\":18465:18596   */\n      tag_409\n        /* \"#utility.yul\":18591:18595   */\n      dup2\n        /* \"#utility.yul\":18465:18596   */\n      tag_245\n      jump\t// in\n    tag_409:\n        /* \"#utility.yul\":18457:18596   */\n      swap1\n      pop\n        /* \"#utility.yul\":18184:18603   */\n      swap2\n      swap1\n      pop\n      jump\t// out\n        /* \"#utility.yul\":18609:18834   */\n    tag_246:\n        /* \"#utility.yul\":18749:18783   */\n      0x4f776e61626c653a206e6577206f776e657220697320746865207a65726f2061\n        /* \"#utility.yul\":18745:18746   */\n      0x00\n        /* \"#utility.yul\":18737:18743   */\n      dup3\n        /* \"#utility.yul\":18733:18747   */\n      add\n        /* \"#utility.yul\":18726:18784   */\n      mstore\n        /* \"#utility.yul\":18818:18826   */\n      0x6464726573730000000000000000000000000000000000000000000000000000\n        /* \"#utility.yul\":18813:18815   */\n      0x20\n        /* \"#utility.yul\":18805:18811   */\n      dup3\n        /* \"#utility.yul\":18801:18816   */\n      add\n        /* \"#utility.yul\":18794:18827   */\n      mstore\n        /* \"#utility.yul\":18609:18834   */\n      pop\n      jump\t// out\n        /* \"#utility.yul\":18840:19206   */\n    tag_247:\n        /* \"#utility.yul\":18982:18985   */\n      0x00\n        /* \"#utility.yul\":19003:19070   */\n      tag_412\n        /* \"#utility.yul\":19067:19069   */\n      0x26\n        /* \"#utility.yul\":19062:19065   */\n      dup4\n        /* \"#utility.yul\":19003:19070   */\n      tag_219\n      jump\t// in\n    tag_412:\n        /* \"#utility.yul\":18996:19070   */\n      swap2\n      pop\n        /* \"#utility.yul\":19079:19172   */\n      tag_413\n        /* \"#utility.yul\":19168:19171   */\n      dup3\n        /* \"#utility.yul\":19079:19172   */\n      tag_246\n      jump\t// in\n    tag_413:\n        /* \"#utility.yul\":19197:19199   */\n      0x40\n        /* \"#utility.yul\":19192:19195   */\n      dup3\n        /* \"#utility.yul\":19188:19200   */\n      add\n        /* \"#utility.yul\":19181:19200   */\n      swap1\n      pop\n        /* \"#utility.yul\":18840:19206   */\n      swap2\n      swap1\n      pop\n      jump\t// out\n        /* \"#utility.yul\":19212:19631   */\n    tag_184:\n        /* \"#utility.yul\":19378:19382   */\n      0x00\n        /* \"#utility.yul\":19416:19418   */\n      0x20\n        /* \"#utility.yul\":19405:19414   */\n      dup3\n        /* \"#utility.yul\":19401:19419   */\n      add\n        /* \"#utility.yul\":19393:19419   */\n      swap1\n      pop\n        /* \"#utility.yul\":19465:19474   */\n      dup2\n        /* \"#utility.yul\":19459:19463   */\n      dup2\n        /* \"#utility.yul\":19455:19475   */\n      sub\n        /* \"#utility.yul\":19451:19452   */\n      0x00\n        /* \"#utility.yul\":19440:19449   */\n      dup4\n        /* \"#utility.yul\":19436:19453   */\n      add\n        /* \"#utility.yul\":19429:19476   */\n      mstore\n        /* \"#utility.yul\":19493:19624   */\n      tag_415\n        /* \"#utility.yul\":19619:19623   */\n      dup2\n        /* \"#utility.yul\":19493:19624   */\n      tag_247\n      jump\t// in\n    tag_415:\n        /* \"#utility.yul\":19485:19624   */\n      swap1\n      pop\n        /* \"#utility.yul\":19212:19631   */\n      swap2\n      swap1\n      pop\n      jump\t// out\n        /* \"#utility.yul\":19637:19819   */\n    tag_248:\n        /* \"#utility.yul\":19777:19811   */\n      0x4f776e61626c653a2063616c6c6572206973206e6f7420746865206f776e6572\n        /* \"#utility.yul\":19773:19774   */\n      0x00\n        /* \"#utility.yul\":19765:19771   */\n      dup3\n        /* \"#utility.yul\":19761:19775   */\n      add\n        /* \"#utility.yul\":19754:19812   */\n      mstore\n        /* \"#utility.yul\":19637:19819   */\n      pop\n      jump\t// out\n        /* \"#utility.yul\":19825:20191   */\n    tag_249:\n        /* \"#utility.yul\":19967:19970   */\n      0x00\n        /* \"#utility.yul\":19988:20055   */\n      tag_418\n        /* \"#utility.yul\":20052:20054   */\n      0x20\n        /* \"#utility.yul\":20047:20050   */\n      dup4\n        /* \"#utility.yul\":19988:20055   */\n      tag_219\n      jump\t// in\n    tag_418:\n        /* \"#utility.yul\":19981:20055   */\n      swap2\n      pop\n        /* \"#utility.yul\":20064:20157   */\n      tag_419\n        /* \"#utility.yul\":20153:20156   */\n      dup3\n        /* \"#utility.yul\":20064:20157   */\n      tag_248\n      jump\t// in\n    tag_419:\n        /* \"#utility.yul\":20182:20184   */\n      0x20\n        /* \"#utility.yul\":20177:20180   */\n      dup3\n        /* \"#utility.yul\":20173:20185   */\n      add\n        /* \"#utility.yul\":20166:20185   */\n      swap1\n      pop\n        /* \"#utility.yul\":19825:20191   */\n      swap2\n      swap1\n      pop\n      jump\t// out\n        /* \"#utility.yul\":20197:20616   */\n    tag_197:\n        /* \"#utility.yul\":20363:20367   */\n      0x00\n        /* \"#utility.yul\":20401:20403   */\n      0x20\n        /* \"#utility.yul\":20390:20399   */\n      dup3\n        /* \"#utility.yul\":20386:20404   */\n      add\n        /* \"#utility.yul\":20378:20404   */\n      swap1\n      pop\n        /* \"#utility.yul\":20450:20459   */\n      dup2\n        /* \"#utility.yul\":20444:20448   */\n      dup2\n        /* \"#utility.yul\":20440:20460   */\n      sub\n        /* \"#utility.yul\":20436:20437   */\n      0x00\n        /* \"#utility.yul\":20425:20434   */\n      dup4\n        /* \"#utility.yul\":20421:20438   */\n      add\n        /* \"#utility.yul\":20414:20461   */\n      mstore\n        /* \"#utility.yul\":20478:20609   */\n      tag_421\n        /* \"#utility.yul\":20604:20608   */\n      dup2\n        /* \"#utility.yul\":20478:20609   */\n      tag_249\n      jump\t// in\n    tag_421:\n        /* \"#utility.yul\":20470:20609   */\n      swap1\n      pop\n        /* \"#utility.yul\":20197:20616   */\n      swap2\n      swap1\n      pop\n      jump\t// out\n\n    auxdata: 0xa26469706673582212202e8f51b14227efcba6423b0ddec85d7a919e266a5e80e008556e993a5c22810664736f6c63430008100033\n}\n",
				"bytecode": {
					"linkReferences": {},
					"object": "60806040523480156200001157600080fd5b50604051620024f8380380620024f883398181016040528101906200003791906200066a565b620000576200004b6200029f60201b60201c565b620002a760201b60201c565b6001808190555060008411620000a4576040517f08c379a00000000000000000000000000000000000000000000000000000000081526004016200009b90620007e3565b60405180910390fd5b60005b86518110156200028457858181518110620000c757620000c662000805565b5b602002602001015160046000898481518110620000e957620000e862000805565b5b602002602001015173ffffffffffffffffffffffffffffffffffffffff1673ffffffffffffffffffffffffffffffffffffffff16815260200190815260200160002060000160006101000a81548173ffffffffffffffffffffffffffffffffffffffff021916908373ffffffffffffffffffffffffffffffffffffffff16021790555083818151811062000182576200018162000805565b5b602002602001015160046000898481518110620001a457620001a362000805565b5b602002602001015173ffffffffffffffffffffffffffffffffffffffff1673ffffffffffffffffffffffffffffffffffffffff1681526020019081526020016000206001018190555082818151811062000203576200020262000805565b5b60200260200101516004600089848151811062000225576200022462000805565b5b602002602001015173ffffffffffffffffffffffffffffffffffffffff1673ffffffffffffffffffffffffffffffffffffffff1681526020019081526020016000206002018190555080806200027b9062000863565b915050620000a7565b508360028190555080600681905550505050505050620008b0565b600033905090565b60008060009054906101000a900473ffffffffffffffffffffffffffffffffffffffff169050816000806101000a81548173ffffffffffffffffffffffffffffffffffffffff021916908373ffffffffffffffffffffffffffffffffffffffff1602179055508173ffffffffffffffffffffffffffffffffffffffff168173ffffffffffffffffffffffffffffffffffffffff167f8be0079c531659141344cd1fd0a4f28419497f9722a3daafe3b4186f6b6457e060405160405180910390a35050565b6000604051905090565b600080fd5b600080fd5b600080fd5b6000601f19601f8301169050919050565b7f4e487b7100000000000000000000000000000000000000000000000000000000600052604160045260246000fd5b620003cf8262000384565b810181811067ffffffffffffffff82111715620003f157620003f062000395565b5b80604052505050565b6000620004066200036b565b9050620004148282620003c4565b919050565b600067ffffffffffffffff82111562000437576200043662000395565b5b602082029050602081019050919050565b600080fd5b600073ffffffffffffffffffffffffffffffffffffffff82169050919050565b60006200047a826200044d565b9050919050565b6200048c816200046d565b81146200049857600080fd5b50565b600081519050620004ac8162000481565b92915050565b6000620004c9620004c38462000419565b620003fa565b90508083825260208201905060208402830185811115620004ef57620004ee62000448565b5b835b818110156200051c57806200050788826200049b565b845260208401935050602081019050620004f1565b5050509392505050565b600082601f8301126200053e576200053d6200037f565b5b815162000550848260208601620004b2565b91505092915050565b6000819050919050565b6200056e8162000559565b81146200057a57600080fd5b50565b6000815190506200058e8162000563565b92915050565b600067ffffffffffffffff821115620005b257620005b162000395565b5b602082029050602081019050919050565b6000620005da620005d48462000594565b620003fa565b905080838252602082019050602084028301858111156200060057620005ff62000448565b5b835b818110156200062d57806200061888826200057d565b84526020840193505060208101905062000602565b5050509392505050565b600082601f8301126200064f576200064e6200037f565b5b815162000661848260208601620005c3565b91505092915050565b60008060008060008060c087890312156200068a576200068962000375565b5b600087015167ffffffffffffffff811115620006ab57620006aa6200037a565b5b620006b989828a0162000526565b965050602087015167ffffffffffffffff811115620006dd57620006dc6200037a565b5b620006eb89828a0162000526565b9550506040620006fe89828a016200057d565b945050606087015167ffffffffffffffff8111156200072257620007216200037a565b5b6200073089828a0162000637565b935050608087015167ffffffffffffffff8111156200075457620007536200037a565b5b6200076289828a0162000637565b92505060a06200077589828a016200057d565b9150509295509295509295565b600082825260208201905092915050565b7f496e76616c6964206c6f636b20706572696f6400000000000000000000000000600082015250565b6000620007cb60138362000782565b9150620007d88262000793565b602082019050919050565b60006020820190508181036000830152620007fe81620007bc565b9050919050565b7f4e487b7100000000000000000000000000000000000000000000000000000000600052603260045260246000fd5b7f4e487b7100000000000000000000000000000000000000000000000000000000600052601160045260246000fd5b6000620008708262000559565b91507fffffffffffffffffffffffffffffffffffffffffffffffffffffffffffffffff8203620008a557620008a462000834565b5b600182019050919050565b611c3880620008c06000396000f3fe608060405234801561001057600080fd5b50600436106100a95760003560e01c8063779972da11610071578063779972da1461013e578063849a1e1d1461015a5780638da5cb5b14610176578063c69d192314610194578063cc33c875146101b2578063f2fde38b146101e2576100a9565b80631902732e146100ae57806320281a98146100ca5780633fd8b02f146100fa5780635eac623914610118578063715018a614610134575b600080fd5b6100c860048036038101906100c391906112dd565b6101fe565b005b6100e460048036038101906100df9190611373565b6105c1565b6040516100f191906113af565b60405180910390f35b6101026105e1565b60405161010f91906113af565b60405180910390f35b610132600480360381019061012d91906113ca565b6105e7565b005b61013c6109c1565b005b61015860048036038101906101539190611373565b6109d5565b005b610174600480360381019061016f91906113ca565b610a61565b005b61017e610ec1565b60405161018b9190611426565b60405180910390f35b61019c610eea565b6040516101a991906113af565b60405180910390f35b6101cc60048036038101906101c79190611373565b610ef0565b6040516101d99190611426565b60405180910390f35b6101fc60048036038101906101f7919061146d565b610f2e565b005b61021d3373ffffffffffffffffffffffffffffffffffffffff16610fb1565b1561025d576040517f08c379a0000000000000000000000000000000000000000000000000000000008152600401610254906114f7565b60405180910390fd5b3273ffffffffffffffffffffffffffffffffffffffff163373ffffffffffffffffffffffffffffffffffffffff16146102cb576040517f08c379a00000000000000000000000000000000000000000000000000000000081526004016102c290611563565b60405180910390fd5b600260015403610310576040517f08c379a0000000000000000000000000000000000000000000000000000000008152600401610307906115cf565b60405180910390fd5b60026001819055506000838390501161035e576040517f08c379a00000000000000000000000000000000000000000000000000000000081526004016103559061163b565b60405180910390fd5b60005b83839050811015610564573373ffffffffffffffffffffffffffffffffffffffff168273ffffffffffffffffffffffffffffffffffffffff16636352211e8686858181106103b2576103b161165b565b5b905060200201356040518263ffffffff1660e01b81526004016103d591906113af565b602060405180830381865afa1580156103f2573d6000803e3d6000fd5b505050506040513d601f19601f82011682018060405250810190610416919061169f565b73ffffffffffffffffffffffffffffffffffffffff161461046c576040517f08c379a000000000000000000000000000000000000000000000000000000000815260040161046390611718565b60405180910390fd5b60405180608001604052803373ffffffffffffffffffffffffffffffffffffffff1681526020014281526020016000815260200160001515815250600360008686858181106104be576104bd61165b565b5b90506020020135815260200190815260200160002060008201518160000160006101000a81548173ffffffffffffffffffffffffffffffffffffffff021916908373ffffffffffffffffffffffffffffffffffffffff160217905550602082015181600101556040820151816002015560608201518160030160006101000a81548160ff021916908315150217905550905050808061055c90611767565b915050610361565b503373ffffffffffffffffffffffffffffffffffffffff167f458be0227bccc9e803dec79bd16767eeaf9925d2ce708eeed7ae1f3621f968f984846040516105ad92919061182a565b60405180910390a260018081905550505050565b600060036000838152602001908152602001600020600201549050919050565b60025481565b6106063373ffffffffffffffffffffffffffffffffffffffff16610fb1565b15610646576040517f08c379a000000000000000000000000000000000000000000000000000000000815260040161063d906114f7565b60405180910390fd5b3273ffffffffffffffffffffffffffffffffffffffff163373ffffffffffffffffffffffffffffffffffffffff16146106b4576040517f08c379a00000000000000000000000000000000000000000000000000000000081526004016106ab90611563565b60405180910390fd5b600082829050116106fa576040517f08c379a00000000000000000000000000000000000000000000000000000000081526004016106f19061163b565b60405180910390fd5b600080600090505b83839050811015610969576000600360008686858181106107265761072561165b565b5b9050602002013581526020019081526020016000206040518060800160405290816000820160009054906101000a900473ffffffffffffffffffffffffffffffffffffffff1673ffffffffffffffffffffffffffffffffffffffff1673ffffffffffffffffffffffffffffffffffffffff16815260200160018201548152602001600282015481526020016003820160009054906101000a900460ff16151515158152505090503373ffffffffffffffffffffffffffffffffffffffff16816000015173ffffffffffffffffffffffffffffffffffffffff161461083f576040517f08c379a00000000000000000000000000000000000000000000000000000000081526004016108369061189a565b60405180910390fd5b42600254826020015161085291906118ba565b10610892576040517f08c379a00000000000000000000000000000000000000000000000000000000081526004016108899061193a565b60405180910390fd5b8060600151156108d7576040517f08c379a00000000000000000000000000000000000000000000000000000000081526004016108ce906119a6565b60405180910390fd5b60006108fb8686858181106108ef576108ee61165b565b5b90506020020135610fd4565b9050600082604001518261090f91906119c6565b9050808561091d91906118ba565b945081600360008989888181106109375761093661165b565b5b90506020020135815260200190815260200160002060020181905550505050808061096190611767565b915050610702565b503373ffffffffffffffffffffffffffffffffffffffff167f37826be3c26dbad83731f4b985f22fa9ef86b6d1974cd77208332b7f1f283c0c8484846040516109b4939291906119fa565b60405180910390a2505050565b6109c96110b4565b6109d36000611132565b565b6109dd6110b4565b60008111610a20576040517f08c379a0000000000000000000000000000000000000000000000000000000008152600401610a1790611a78565b60405180910390fd5b806002819055507f8249ec545e68f6f1e1230133ca48c704d831a7f8e635ded80f3dd9e99b09bb2f81604051610a5691906113af565b60405180910390a150565b610a803373ffffffffffffffffffffffffffffffffffffffff16610fb1565b15610ac0576040517f08c379a0000000000000000000000000000000000000000000000000000000008152600401610ab7906114f7565b60405180910390fd5b3273ffffffffffffffffffffffffffffffffffffffff163373ffffffffffffffffffffffffffffffffffffffff1614610b2e576040517f08c379a0000000000000000000000000000000000000000000000000000000008152600401610b2590611563565b60405180910390fd5b600260015403610b73576040517f08c379a0000000000000000000000000000000000000000000000000000000008152600401610b6a906115cf565b60405180910390fd5b600260018190555060008282905011610bc1576040517f08c379a0000000000000000000000000000000000000000000000000000000008152600401610bb89061163b565b60405180910390fd5b60005b82829050811015610e6557600060036000858585818110610be857610be761165b565b5b9050602002013581526020019081526020016000206040518060800160405290816000820160009054906101000a900473ffffffffffffffffffffffffffffffffffffffff1673ffffffffffffffffffffffffffffffffffffffff1673ffffffffffffffffffffffffffffffffffffffff16815260200160018201548152602001600282015481526020016003820160009054906101000a900460ff16151515158152505090503373ffffffffffffffffffffffffffffffffffffffff16816000015173ffffffffffffffffffffffffffffffffffffffff1614610d01576040517f08c379a0000000000000000000000000000000000000000000000000000000008152600401610cf89061189a565b60405180910390fd5b426002548260200151610d1491906118ba565b10610d54576040517f08c379a0000000000000000000000000000000000000000000000000000000008152600401610d4b90611ae4565b60405180910390fd5b806060015115610d99576040517f08c379a0000000000000000000000000000000000000000000000000000000008152600401610d90906119a6565b60405180910390fd5b6000610dbd858585818110610db157610db061165b565b5b90506020020135610fd4565b90506000826040015182610dd191906119c6565b90508160036000888888818110610deb57610dea61165b565b5b90506020020135815260200190815260200160002060020181905550600160036000888888818110610e2057610e1f61165b565b5b90506020020135815260200190815260200160002060030160006101000a81548160ff0219169083151502179055505050508080610e5d90611767565b915050610bc4565b503373ffffffffffffffffffffffffffffffffffffffff167f5cb48022479b9ac3bfb10a27965dc010acffc9fc1bc9a52f0b18975b944b54ca8383604051610eae92919061182a565b60405180910390a2600180819055505050565b60008060009054906101000a900473ffffffffffffffffffffffffffffffffffffffff16905090565b60065481565b60056020528060005260406000206000915090508060000160009054906101000a900473ffffffffffffffffffffffffffffffffffffffff16905081565b610f366110b4565b600073ffffffffffffffffffffffffffffffffffffffff168173ffffffffffffffffffffffffffffffffffffffff1603610fa5576040517f08c379a0000000000000000000000000000000000000000000000000000000008152600401610f9c90611b76565b60405180910390fd5b610fae81611132565b50565b6000808273ffffffffffffffffffffffffffffffffffffffff163b119050919050565b600080600360008481526020019081526020016000206040518060800160405290816000820160009054906101000a900473ffffffffffffffffffffffffffffffffffffffff1673ffffffffffffffffffffffffffffffffffffffff1673ffffffffffffffffffffffffffffffffffffffff16815260200160018201548152602001600282015481526020016003820160009054906101000a900460ff1615151515815250509050600081602001514261108e91906119c6565b905060006002548210156110a857600093505050506110af565b8093505050505b919050565b6110bc6111f6565b73ffffffffffffffffffffffffffffffffffffffff166110da610ec1565b73ffffffffffffffffffffffffffffffffffffffff1614611130576040517f08c379a000000000000000000000000000000000000000000000000000000000815260040161112790611be2565b60405180910390fd5b565b60008060009054906101000a900473ffffffffffffffffffffffffffffffffffffffff169050816000806101000a81548173ffffffffffffffffffffffffffffffffffffffff021916908373ffffffffffffffffffffffffffffffffffffffff1602179055508173ffffffffffffffffffffffffffffffffffffffff168173ffffffffffffffffffffffffffffffffffffffff167f8be0079c531659141344cd1fd0a4f28419497f9722a3daafe3b4186f6b6457e060405160405180910390a35050565b600033905090565b600080fd5b600080fd5b600080fd5b600080fd5b600080fd5b60008083601f84011261122d5761122c611208565b5b8235905067ffffffffffffffff81111561124a5761124961120d565b5b60208301915083602082028301111561126657611265611212565b5b9250929050565b600073ffffffffffffffffffffffffffffffffffffffff82169050919050565b60006112988261126d565b9050919050565b60006112aa8261128d565b9050919050565b6112ba8161129f565b81146112c557600080fd5b50565b6000813590506112d7816112b1565b92915050565b6000806000604084860312156112f6576112f56111fe565b5b600084013567ffffffffffffffff81111561131457611313611203565b5b61132086828701611217565b93509350506020611333868287016112c8565b9150509250925092565b6000819050919050565b6113508161133d565b811461135b57600080fd5b50565b60008135905061136d81611347565b92915050565b600060208284031215611389576113886111fe565b5b60006113978482850161135e565b91505092915050565b6113a98161133d565b82525050565b60006020820190506113c460008301846113a0565b92915050565b600080602083850312156113e1576113e06111fe565b5b600083013567ffffffffffffffff8111156113ff576113fe611203565b5b61140b85828601611217565b92509250509250929050565b6114208161128d565b82525050565b600060208201905061143b6000830184611417565b92915050565b61144a8161128d565b811461145557600080fd5b50565b60008135905061146781611441565b92915050565b600060208284031215611483576114826111fe565b5b600061149184828501611458565b91505092915050565b600082825260208201905092915050565b7f436f6e7472616374206e6f7420616c6c6f776564000000000000000000000000600082015250565b60006114e160148361149a565b91506114ec826114ab565b602082019050919050565b60006020820190508181036000830152611510816114d4565b9050919050565b7f50726f787920636f6e7472616374206e6f7420616c6c6f776564000000000000600082015250565b600061154d601a8361149a565b915061155882611517565b602082019050919050565b6000602082019050818103600083015261157c81611540565b9050919050565b7f5265656e7472616e637947756172643a207265656e7472616e742063616c6c00600082015250565b60006115b9601f8361149a565b91506115c482611583565b602082019050919050565b600060208201905081810360008301526115e8816115ac565b9050919050565b7f4e6f20746f6b656e730000000000000000000000000000000000000000000000600082015250565b600061162560098361149a565b9150611630826115ef565b602082019050919050565b6000602082019050818103600083015261165481611618565b9050919050565b7f4e487b7100000000000000000000000000000000000000000000000000000000600052603260045260246000fd5b60008151905061169981611441565b92915050565b6000602082840312156116b5576116b46111fe565b5b60006116c38482850161168a565b91505092915050565b7f596f7520646f6e277420686f6c64207468697320746f6b656e00000000000000600082015250565b600061170260198361149a565b915061170d826116cc565b602082019050919050565b60006020820190508181036000830152611731816116f5565b9050919050565b7f4e487b7100000000000000000000000000000000000000000000000000000000600052601160045260246000fd5b60006117728261133d565b91507fffffffffffffffffffffffffffffffffffffffffffffffffffffffffffffffff82036117a4576117a3611738565b5b600182019050919050565b600082825260208201905092915050565b600080fd5b82818337505050565b60006117da83856117af565b93507f07ffffffffffffffffffffffffffffffffffffffffffffffffffffffffffffff83111561180d5761180c6117c0565b5b60208302925061181e8385846117c5565b82840190509392505050565b600060208201905081810360008301526118458184866117ce565b90509392505050565b7f4e6f74206120746f6b656e206f776e6572000000000000000000000000000000600082015250565b600061188460118361149a565b915061188f8261184e565b602082019050919050565b600060208201905081810360008301526118b381611877565b9050919050565b60006118c58261133d565b91506118d08361133d565b92508282019050808211156118e8576118e7611738565b5b92915050565b7f4e6f742061626c6520746f20636c61696d207965740000000000000000000000600082015250565b600061192460158361149a565b915061192f826118ee565b602082019050919050565b6000602082019050818103600083015261195381611917565b9050919050565b7f416c726561647920756e6c6f636b656400000000000000000000000000000000600082015250565b600061199060108361149a565b915061199b8261195a565b602082019050919050565b600060208201905081810360008301526119bf81611983565b9050919050565b60006119d18261133d565b91506119dc8361133d565b92508282039050818111156119f4576119f3611738565b5b92915050565b60006040820190508181036000830152611a158185876117ce565b9050611a2460208301846113a0565b949350505050565b7f496e76616c6964206c6f636b20706572696f642e000000000000000000000000600082015250565b6000611a6260148361149a565b9150611a6d82611a2c565b602082019050919050565b60006020820190508181036000830152611a9181611a55565b9050919050565b7f4e6f742061626c6520746f20756e6c6f636b2079657400000000000000000000600082015250565b6000611ace60168361149a565b9150611ad982611a98565b602082019050919050565b60006020820190508181036000830152611afd81611ac1565b9050919050565b7f4f776e61626c653a206e6577206f776e657220697320746865207a65726f206160008201527f6464726573730000000000000000000000000000000000000000000000000000602082015250565b6000611b6060268361149a565b9150611b6b82611b04565b604082019050919050565b60006020820190508181036000830152611b8f81611b53565b9050919050565b7f4f776e61626c653a2063616c6c6572206973206e6f7420746865206f776e6572600082015250565b6000611bcc60208361149a565b9150611bd782611b96565b602082019050919050565b60006020820190508181036000830152611bfb81611bbf565b905091905056fea26469706673582212202e8f51b14227efcba6423b0ddec85d7a919e266a5e80e008556e993a5c22810664736f6c63430008100033",
					"opcodes": "PUSH1 0x80 PUSH1 0x40 MSTORE CALLVALUE DUP1 ISZERO PUSH3 0x11 JUMPI PUSH1 0x0 DUP1 REVERT JUMPDEST POP PUSH1 0x40 MLOAD PUSH3 0x24F8 CODESIZE SUB DUP1 PUSH3 0x24F8 DUP4 CODECOPY DUP2 DUP2 ADD PUSH1 0x40 MSTORE DUP2 ADD SWAP1 PUSH3 0x37 SWAP2 SWAP1 PUSH3 0x66A JUMP JUMPDEST PUSH3 0x57 PUSH3 0x4B PUSH3 0x29F PUSH1 0x20 SHL PUSH1 0x20 SHR JUMP JUMPDEST PUSH3 0x2A7 PUSH1 0x20 SHL PUSH1 0x20 SHR JUMP JUMPDEST PUSH1 0x1 DUP1 DUP2 SWAP1 SSTORE POP PUSH1 0x0 DUP5 GT PUSH3 0xA4 JUMPI PUSH1 0x40 MLOAD PUSH32 0x8C379A000000000000000000000000000000000000000000000000000000000 DUP2 MSTORE PUSH1 0x4 ADD PUSH3 0x9B SWAP1 PUSH3 0x7E3 JUMP JUMPDEST PUSH1 0x40 MLOAD DUP1 SWAP2 SUB SWAP1 REVERT JUMPDEST PUSH1 0x0 JUMPDEST DUP7 MLOAD DUP2 LT ISZERO PUSH3 0x284 JUMPI DUP6 DUP2 DUP2 MLOAD DUP2 LT PUSH3 0xC7 JUMPI PUSH3 0xC6 PUSH3 0x805 JUMP JUMPDEST JUMPDEST PUSH1 0x20 MUL PUSH1 0x20 ADD ADD MLOAD PUSH1 0x4 PUSH1 0x0 DUP10 DUP5 DUP2 MLOAD DUP2 LT PUSH3 0xE9 JUMPI PUSH3 0xE8 PUSH3 0x805 JUMP JUMPDEST JUMPDEST PUSH1 0x20 MUL PUSH1 0x20 ADD ADD MLOAD PUSH20 0xFFFFFFFFFFFFFFFFFFFFFFFFFFFFFFFFFFFFFFFF AND PUSH20 0xFFFFFFFFFFFFFFFFFFFFFFFFFFFFFFFFFFFFFFFF AND DUP2 MSTORE PUSH1 0x20 ADD SWAP1 DUP2 MSTORE PUSH1 0x20 ADD PUSH1 0x0 KECCAK256 PUSH1 0x0 ADD PUSH1 0x0 PUSH2 0x100 EXP DUP2 SLOAD DUP2 PUSH20 0xFFFFFFFFFFFFFFFFFFFFFFFFFFFFFFFFFFFFFFFF MUL NOT AND SWAP1 DUP4 PUSH20 0xFFFFFFFFFFFFFFFFFFFFFFFFFFFFFFFFFFFFFFFF AND MUL OR SWAP1 SSTORE POP DUP4 DUP2 DUP2 MLOAD DUP2 LT PUSH3 0x182 JUMPI PUSH3 0x181 PUSH3 0x805 JUMP JUMPDEST JUMPDEST PUSH1 0x20 MUL PUSH1 0x20 ADD ADD MLOAD PUSH1 0x4 PUSH1 0x0 DUP10 DUP5 DUP2 MLOAD DUP2 LT PUSH3 0x1A4 JUMPI PUSH3 0x1A3 PUSH3 0x805 JUMP JUMPDEST JUMPDEST PUSH1 0x20 MUL PUSH1 0x20 ADD ADD MLOAD PUSH20 0xFFFFFFFFFFFFFFFFFFFFFFFFFFFFFFFFFFFFFFFF AND PUSH20 0xFFFFFFFFFFFFFFFFFFFFFFFFFFFFFFFFFFFFFFFF AND DUP2 MSTORE PUSH1 0x20 ADD SWAP1 DUP2 MSTORE PUSH1 0x20 ADD PUSH1 0x0 KECCAK256 PUSH1 0x1 ADD DUP2 SWAP1 SSTORE POP DUP3 DUP2 DUP2 MLOAD DUP2 LT PUSH3 0x203 JUMPI PUSH3 0x202 PUSH3 0x805 JUMP JUMPDEST JUMPDEST PUSH1 0x20 MUL PUSH1 0x20 ADD ADD MLOAD PUSH1 0x4 PUSH1 0x0 DUP10 DUP5 DUP2 MLOAD DUP2 LT PUSH3 0x225 JUMPI PUSH3 0x224 PUSH3 0x805 JUMP JUMPDEST JUMPDEST PUSH1 0x20 MUL PUSH1 0x20 ADD ADD MLOAD PUSH20 0xFFFFFFFFFFFFFFFFFFFFFFFFFFFFFFFFFFFFFFFF AND PUSH20 0xFFFFFFFFFFFFFFFFFFFFFFFFFFFFFFFFFFFFFFFF AND DUP2 MSTORE PUSH1 0x20 ADD SWAP1 DUP2 MSTORE PUSH1 0x20 ADD PUSH1 0x0 KECCAK256 PUSH1 0x2 ADD DUP2 SWAP1 SSTORE POP DUP1 DUP1 PUSH3 0x27B SWAP1 PUSH3 0x863 JUMP JUMPDEST SWAP2 POP POP PUSH3 0xA7 JUMP JUMPDEST POP DUP4 PUSH1 0x2 DUP2 SWAP1 SSTORE POP DUP1 PUSH1 0x6 DUP2 SWAP1 SSTORE POP POP POP POP POP POP POP PUSH3 0x8B0 JUMP JUMPDEST PUSH1 0x0 CALLER SWAP1 POP SWAP1 JUMP JUMPDEST PUSH1 0x0 DUP1 PUSH1 0x0 SWAP1 SLOAD SWAP1 PUSH2 0x100 EXP SWAP1 DIV PUSH20 0xFFFFFFFFFFFFFFFFFFFFFFFFFFFFFFFFFFFFFFFF AND SWAP1 POP DUP2 PUSH1 0x0 DUP1 PUSH2 0x100 EXP DUP2 SLOAD DUP2 PUSH20 0xFFFFFFFFFFFFFFFFFFFFFFFFFFFFFFFFFFFFFFFF MUL NOT AND SWAP1 DUP4 PUSH20 0xFFFFFFFFFFFFFFFFFFFFFFFFFFFFFFFFFFFFFFFF AND MUL OR SWAP1 SSTORE POP DUP2 PUSH20 0xFFFFFFFFFFFFFFFFFFFFFFFFFFFFFFFFFFFFFFFF AND DUP2 PUSH20 0xFFFFFFFFFFFFFFFFFFFFFFFFFFFFFFFFFFFFFFFF AND PUSH32 0x8BE0079C531659141344CD1FD0A4F28419497F9722A3DAAFE3B4186F6B6457E0 PUSH1 0x40 MLOAD PUSH1 0x40 MLOAD DUP1 SWAP2 SUB SWAP1 LOG3 POP POP JUMP JUMPDEST PUSH1 0x0 PUSH1 0x40 MLOAD SWAP1 POP SWAP1 JUMP JUMPDEST PUSH1 0x0 DUP1 REVERT JUMPDEST PUSH1 0x0 DUP1 REVERT JUMPDEST PUSH1 0x0 DUP1 REVERT JUMPDEST PUSH1 0x0 PUSH1 0x1F NOT PUSH1 0x1F DUP4 ADD AND SWAP1 POP SWAP2 SWAP1 POP JUMP JUMPDEST PUSH32 0x4E487B7100000000000000000000000000000000000000000000000000000000 PUSH1 0x0 MSTORE PUSH1 0x41 PUSH1 0x4 MSTORE PUSH1 0x24 PUSH1 0x0 REVERT JUMPDEST PUSH3 0x3CF DUP3 PUSH3 0x384 JUMP JUMPDEST DUP2 ADD DUP2 DUP2 LT PUSH8 0xFFFFFFFFFFFFFFFF DUP3 GT OR ISZERO PUSH3 0x3F1 JUMPI PUSH3 0x3F0 PUSH3 0x395 JUMP JUMPDEST JUMPDEST DUP1 PUSH1 0x40 MSTORE POP POP POP JUMP JUMPDEST PUSH1 0x0 PUSH3 0x406 PUSH3 0x36B JUMP JUMPDEST SWAP1 POP PUSH3 0x414 DUP3 DUP3 PUSH3 0x3C4 JUMP JUMPDEST SWAP2 SWAP1 POP JUMP JUMPDEST PUSH1 0x0 PUSH8 0xFFFFFFFFFFFFFFFF DUP3 GT ISZERO PUSH3 0x437 JUMPI PUSH3 0x436 PUSH3 0x395 JUMP JUMPDEST JUMPDEST PUSH1 0x20 DUP3 MUL SWAP1 POP PUSH1 0x20 DUP2 ADD SWAP1 POP SWAP2 SWAP1 POP JUMP JUMPDEST PUSH1 0x0 DUP1 REVERT JUMPDEST PUSH1 0x0 PUSH20 0xFFFFFFFFFFFFFFFFFFFFFFFFFFFFFFFFFFFFFFFF DUP3 AND SWAP1 POP SWAP2 SWAP1 POP JUMP JUMPDEST PUSH1 0x0 PUSH3 0x47A DUP3 PUSH3 0x44D JUMP JUMPDEST SWAP1 POP SWAP2 SWAP1 POP JUMP JUMPDEST PUSH3 0x48C DUP2 PUSH3 0x46D JUMP JUMPDEST DUP2 EQ PUSH3 0x498 JUMPI PUSH1 0x0 DUP1 REVERT JUMPDEST POP JUMP JUMPDEST PUSH1 0x0 DUP2 MLOAD SWAP1 POP PUSH3 0x4AC DUP2 PUSH3 0x481 JUMP JUMPDEST SWAP3 SWAP2 POP POP JUMP JUMPDEST PUSH1 0x0 PUSH3 0x4C9 PUSH3 0x4C3 DUP5 PUSH3 0x419 JUMP JUMPDEST PUSH3 0x3FA JUMP JUMPDEST SWAP1 POP DUP1 DUP4 DUP3 MSTORE PUSH1 0x20 DUP3 ADD SWAP1 POP PUSH1 0x20 DUP5 MUL DUP4 ADD DUP6 DUP2 GT ISZERO PUSH3 0x4EF JUMPI PUSH3 0x4EE PUSH3 0x448 JUMP JUMPDEST JUMPDEST DUP4 JUMPDEST DUP2 DUP2 LT ISZERO PUSH3 0x51C JUMPI DUP1 PUSH3 0x507 DUP9 DUP3 PUSH3 0x49B JUMP JUMPDEST DUP5 MSTORE PUSH1 0x20 DUP5 ADD SWAP4 POP POP PUSH1 0x20 DUP2 ADD SWAP1 POP PUSH3 0x4F1 JUMP JUMPDEST POP POP POP SWAP4 SWAP3 POP POP POP JUMP JUMPDEST PUSH1 0x0 DUP3 PUSH1 0x1F DUP4 ADD SLT PUSH3 0x53E JUMPI PUSH3 0x53D PUSH3 0x37F JUMP JUMPDEST JUMPDEST DUP2 MLOAD PUSH3 0x550 DUP5 DUP3 PUSH1 0x20 DUP7 ADD PUSH3 0x4B2 JUMP JUMPDEST SWAP2 POP POP SWAP3 SWAP2 POP POP JUMP JUMPDEST PUSH1 0x0 DUP2 SWAP1 POP SWAP2 SWAP1 POP JUMP JUMPDEST PUSH3 0x56E DUP2 PUSH3 0x559 JUMP JUMPDEST DUP2 EQ PUSH3 0x57A JUMPI PUSH1 0x0 DUP1 REVERT JUMPDEST POP JUMP JUMPDEST PUSH1 0x0 DUP2 MLOAD SWAP1 POP PUSH3 0x58E DUP2 PUSH3 0x563 JUMP JUMPDEST SWAP3 SWAP2 POP POP JUMP JUMPDEST PUSH1 0x0 PUSH8 0xFFFFFFFFFFFFFFFF DUP3 GT ISZERO PUSH3 0x5B2 JUMPI PUSH3 0x5B1 PUSH3 0x395 JUMP JUMPDEST JUMPDEST PUSH1 0x20 DUP3 MUL SWAP1 POP PUSH1 0x20 DUP2 ADD SWAP1 POP SWAP2 SWAP1 POP JUMP JUMPDEST PUSH1 0x0 PUSH3 0x5DA PUSH3 0x5D4 DUP5 PUSH3 0x594 JUMP JUMPDEST PUSH3 0x3FA JUMP JUMPDEST SWAP1 POP DUP1 DUP4 DUP3 MSTORE PUSH1 0x20 DUP3 ADD SWAP1 POP PUSH1 0x20 DUP5 MUL DUP4 ADD DUP6 DUP2 GT ISZERO PUSH3 0x600 JUMPI PUSH3 0x5FF PUSH3 0x448 JUMP JUMPDEST JUMPDEST DUP4 JUMPDEST DUP2 DUP2 LT ISZERO PUSH3 0x62D JUMPI DUP1 PUSH3 0x618 DUP9 DUP3 PUSH3 0x57D JUMP JUMPDEST DUP5 MSTORE PUSH1 0x20 DUP5 ADD SWAP4 POP POP PUSH1 0x20 DUP2 ADD SWAP1 POP PUSH3 0x602 JUMP JUMPDEST POP POP POP SWAP4 SWAP3 POP POP POP JUMP JUMPDEST PUSH1 0x0 DUP3 PUSH1 0x1F DUP4 ADD SLT PUSH3 0x64F JUMPI PUSH3 0x64E PUSH3 0x37F JUMP JUMPDEST JUMPDEST DUP2 MLOAD PUSH3 0x661 DUP5 DUP3 PUSH1 0x20 DUP7 ADD PUSH3 0x5C3 JUMP JUMPDEST SWAP2 POP POP SWAP3 SWAP2 POP POP JUMP JUMPDEST PUSH1 0x0 DUP1 PUSH1 0x0 DUP1 PUSH1 0x0 DUP1 PUSH1 0xC0 DUP8 DUP10 SUB SLT ISZERO PUSH3 0x68A JUMPI PUSH3 0x689 PUSH3 0x375 JUMP JUMPDEST JUMPDEST PUSH1 0x0 DUP8 ADD MLOAD PUSH8 0xFFFFFFFFFFFFFFFF DUP2 GT ISZERO PUSH3 0x6AB JUMPI PUSH3 0x6AA PUSH3 0x37A JUMP JUMPDEST JUMPDEST PUSH3 0x6B9 DUP10 DUP3 DUP11 ADD PUSH3 0x526 JUMP JUMPDEST SWAP7 POP POP PUSH1 0x20 DUP8 ADD MLOAD PUSH8 0xFFFFFFFFFFFFFFFF DUP2 GT ISZERO PUSH3 0x6DD JUMPI PUSH3 0x6DC PUSH3 0x37A JUMP JUMPDEST JUMPDEST PUSH3 0x6EB DUP10 DUP3 DUP11 ADD PUSH3 0x526 JUMP JUMPDEST SWAP6 POP POP PUSH1 0x40 PUSH3 0x6FE DUP10 DUP3 DUP11 ADD PUSH3 0x57D JUMP JUMPDEST SWAP5 POP POP PUSH1 0x60 DUP8 ADD MLOAD PUSH8 0xFFFFFFFFFFFFFFFF DUP2 GT ISZERO PUSH3 0x722 JUMPI PUSH3 0x721 PUSH3 0x37A JUMP JUMPDEST JUMPDEST PUSH3 0x730 DUP10 DUP3 DUP11 ADD PUSH3 0x637 JUMP JUMPDEST SWAP4 POP POP PUSH1 0x80 DUP8 ADD MLOAD PUSH8 0xFFFFFFFFFFFFFFFF DUP2 GT ISZERO PUSH3 0x754 JUMPI PUSH3 0x753 PUSH3 0x37A JUMP JUMPDEST JUMPDEST PUSH3 0x762 DUP10 DUP3 DUP11 ADD PUSH3 0x637 JUMP JUMPDEST SWAP3 POP POP PUSH1 0xA0 PUSH3 0x775 DUP10 DUP3 DUP11 ADD PUSH3 0x57D JUMP JUMPDEST SWAP2 POP POP SWAP3 SWAP6 POP SWAP3 SWAP6 POP SWAP3 SWAP6 JUMP JUMPDEST PUSH1 0x0 DUP3 DUP3 MSTORE PUSH1 0x20 DUP3 ADD SWAP1 POP SWAP3 SWAP2 POP POP JUMP JUMPDEST PUSH32 0x496E76616C6964206C6F636B20706572696F6400000000000000000000000000 PUSH1 0x0 DUP3 ADD MSTORE POP JUMP JUMPDEST PUSH1 0x0 PUSH3 0x7CB PUSH1 0x13 DUP4 PUSH3 0x782 JUMP JUMPDEST SWAP2 POP PUSH3 0x7D8 DUP3 PUSH3 0x793 JUMP JUMPDEST PUSH1 0x20 DUP3 ADD SWAP1 POP SWAP2 SWAP1 POP JUMP JUMPDEST PUSH1 0x0 PUSH1 0x20 DUP3 ADD SWAP1 POP DUP2 DUP2 SUB PUSH1 0x0 DUP4 ADD MSTORE PUSH3 0x7FE DUP2 PUSH3 0x7BC JUMP JUMPDEST SWAP1 POP SWAP2 SWAP1 POP JUMP JUMPDEST PUSH32 0x4E487B7100000000000000000000000000000000000000000000000000000000 PUSH1 0x0 MSTORE PUSH1 0x32 PUSH1 0x4 MSTORE PUSH1 0x24 PUSH1 0x0 REVERT JUMPDEST PUSH32 0x4E487B7100000000000000000000000000000000000000000000000000000000 PUSH1 0x0 MSTORE PUSH1 0x11 PUSH1 0x4 MSTORE PUSH1 0x24 PUSH1 0x0 REVERT JUMPDEST PUSH1 0x0 PUSH3 0x870 DUP3 PUSH3 0x559 JUMP JUMPDEST SWAP2 POP PUSH32 0xFFFFFFFFFFFFFFFFFFFFFFFFFFFFFFFFFFFFFFFFFFFFFFFFFFFFFFFFFFFFFFFF DUP3 SUB PUSH3 0x8A5 JUMPI PUSH3 0x8A4 PUSH3 0x834 JUMP JUMPDEST JUMPDEST PUSH1 0x1 DUP3 ADD SWAP1 POP SWAP2 SWAP1 POP JUMP JUMPDEST PUSH2 0x1C38 DUP1 PUSH3 0x8C0 PUSH1 0x0 CODECOPY PUSH1 0x0 RETURN INVALID PUSH1 0x80 PUSH1 0x40 MSTORE CALLVALUE DUP1 ISZERO PUSH2 0x10 JUMPI PUSH1 0x0 DUP1 REVERT JUMPDEST POP PUSH1 0x4 CALLDATASIZE LT PUSH2 0xA9 JUMPI PUSH1 0x0 CALLDATALOAD PUSH1 0xE0 SHR DUP1 PUSH4 0x779972DA GT PUSH2 0x71 JUMPI DUP1 PUSH4 0x779972DA EQ PUSH2 0x13E JUMPI DUP1 PUSH4 0x849A1E1D EQ PUSH2 0x15A JUMPI DUP1 PUSH4 0x8DA5CB5B EQ PUSH2 0x176 JUMPI DUP1 PUSH4 0xC69D1923 EQ PUSH2 0x194 JUMPI DUP1 PUSH4 0xCC33C875 EQ PUSH2 0x1B2 JUMPI DUP1 PUSH4 0xF2FDE38B EQ PUSH2 0x1E2 JUMPI PUSH2 0xA9 JUMP JUMPDEST DUP1 PUSH4 0x1902732E EQ PUSH2 0xAE JUMPI DUP1 PUSH4 0x20281A98 EQ PUSH2 0xCA JUMPI DUP1 PUSH4 0x3FD8B02F EQ PUSH2 0xFA JUMPI DUP1 PUSH4 0x5EAC6239 EQ PUSH2 0x118 JUMPI DUP1 PUSH4 0x715018A6 EQ PUSH2 0x134 JUMPI JUMPDEST PUSH1 0x0 DUP1 REVERT JUMPDEST PUSH2 0xC8 PUSH1 0x4 DUP1 CALLDATASIZE SUB DUP2 ADD SWAP1 PUSH2 0xC3 SWAP2 SWAP1 PUSH2 0x12DD JUMP JUMPDEST PUSH2 0x1FE JUMP JUMPDEST STOP JUMPDEST PUSH2 0xE4 PUSH1 0x4 DUP1 CALLDATASIZE SUB DUP2 ADD SWAP1 PUSH2 0xDF SWAP2 SWAP1 PUSH2 0x1373 JUMP JUMPDEST PUSH2 0x5C1 JUMP JUMPDEST PUSH1 0x40 MLOAD PUSH2 0xF1 SWAP2 SWAP1 PUSH2 0x13AF JUMP JUMPDEST PUSH1 0x40 MLOAD DUP1 SWAP2 SUB SWAP1 RETURN JUMPDEST PUSH2 0x102 PUSH2 0x5E1 JUMP JUMPDEST PUSH1 0x40 MLOAD PUSH2 0x10F SWAP2 SWAP1 PUSH2 0x13AF JUMP JUMPDEST PUSH1 0x40 MLOAD DUP1 SWAP2 SUB SWAP1 RETURN JUMPDEST PUSH2 0x132 PUSH1 0x4 DUP1 CALLDATASIZE SUB DUP2 ADD SWAP1 PUSH2 0x12D SWAP2 SWAP1 PUSH2 0x13CA JUMP JUMPDEST PUSH2 0x5E7 JUMP JUMPDEST STOP JUMPDEST PUSH2 0x13C PUSH2 0x9C1 JUMP JUMPDEST STOP JUMPDEST PUSH2 0x158 PUSH1 0x4 DUP1 CALLDATASIZE SUB DUP2 ADD SWAP1 PUSH2 0x153 SWAP2 SWAP1 PUSH2 0x1373 JUMP JUMPDEST PUSH2 0x9D5 JUMP JUMPDEST STOP JUMPDEST PUSH2 0x174 PUSH1 0x4 DUP1 CALLDATASIZE SUB DUP2 ADD SWAP1 PUSH2 0x16F SWAP2 SWAP1 PUSH2 0x13CA JUMP JUMPDEST PUSH2 0xA61 JUMP JUMPDEST STOP JUMPDEST PUSH2 0x17E PUSH2 0xEC1 JUMP JUMPDEST PUSH1 0x40 MLOAD PUSH2 0x18B SWAP2 SWAP1 PUSH2 0x1426 JUMP JUMPDEST PUSH1 0x40 MLOAD DUP1 SWAP2 SUB SWAP1 RETURN JUMPDEST PUSH2 0x19C PUSH2 0xEEA JUMP JUMPDEST PUSH1 0x40 MLOAD PUSH2 0x1A9 SWAP2 SWAP1 PUSH2 0x13AF JUMP JUMPDEST PUSH1 0x40 MLOAD DUP1 SWAP2 SUB SWAP1 RETURN JUMPDEST PUSH2 0x1CC PUSH1 0x4 DUP1 CALLDATASIZE SUB DUP2 ADD SWAP1 PUSH2 0x1C7 SWAP2 SWAP1 PUSH2 0x1373 JUMP JUMPDEST PUSH2 0xEF0 JUMP JUMPDEST PUSH1 0x40 MLOAD PUSH2 0x1D9 SWAP2 SWAP1 PUSH2 0x1426 JUMP JUMPDEST PUSH1 0x40 MLOAD DUP1 SWAP2 SUB SWAP1 RETURN JUMPDEST PUSH2 0x1FC PUSH1 0x4 DUP1 CALLDATASIZE SUB DUP2 ADD SWAP1 PUSH2 0x1F7 SWAP2 SWAP1 PUSH2 0x146D JUMP JUMPDEST PUSH2 0xF2E JUMP JUMPDEST STOP JUMPDEST PUSH2 0x21D CALLER PUSH20 0xFFFFFFFFFFFFFFFFFFFFFFFFFFFFFFFFFFFFFFFF AND PUSH2 0xFB1 JUMP JUMPDEST ISZERO PUSH2 0x25D JUMPI PUSH1 0x40 MLOAD PUSH32 0x8C379A000000000000000000000000000000000000000000000000000000000 DUP2 MSTORE PUSH1 0x4 ADD PUSH2 0x254 SWAP1 PUSH2 0x14F7 JUMP JUMPDEST PUSH1 0x40 MLOAD DUP1 SWAP2 SUB SWAP1 REVERT JUMPDEST ORIGIN PUSH20 0xFFFFFFFFFFFFFFFFFFFFFFFFFFFFFFFFFFFFFFFF AND CALLER PUSH20 0xFFFFFFFFFFFFFFFFFFFFFFFFFFFFFFFFFFFFFFFF AND EQ PUSH2 0x2CB JUMPI PUSH1 0x40 MLOAD PUSH32 0x8C379A000000000000000000000000000000000000000000000000000000000 DUP2 MSTORE PUSH1 0x4 ADD PUSH2 0x2C2 SWAP1 PUSH2 0x1563 JUMP JUMPDEST PUSH1 0x40 MLOAD DUP1 SWAP2 SUB SWAP1 REVERT JUMPDEST PUSH1 0x2 PUSH1 0x1 SLOAD SUB PUSH2 0x310 JUMPI PUSH1 0x40 MLOAD PUSH32 0x8C379A000000000000000000000000000000000000000000000000000000000 DUP2 MSTORE PUSH1 0x4 ADD PUSH2 0x307 SWAP1 PUSH2 0x15CF JUMP JUMPDEST PUSH1 0x40 MLOAD DUP1 SWAP2 SUB SWAP1 REVERT JUMPDEST PUSH1 0x2 PUSH1 0x1 DUP2 SWAP1 SSTORE POP PUSH1 0x0 DUP4 DUP4 SWAP1 POP GT PUSH2 0x35E JUMPI PUSH1 0x40 MLOAD PUSH32 0x8C379A000000000000000000000000000000000000000000000000000000000 DUP2 MSTORE PUSH1 0x4 ADD PUSH2 0x355 SWAP1 PUSH2 0x163B JUMP JUMPDEST PUSH1 0x40 MLOAD DUP1 SWAP2 SUB SWAP1 REVERT JUMPDEST PUSH1 0x0 JUMPDEST DUP4 DUP4 SWAP1 POP DUP2 LT ISZERO PUSH2 0x564 JUMPI CALLER PUSH20 0xFFFFFFFFFFFFFFFFFFFFFFFFFFFFFFFFFFFFFFFF AND DUP3 PUSH20 0xFFFFFFFFFFFFFFFFFFFFFFFFFFFFFFFFFFFFFFFF AND PUSH4 0x6352211E DUP7 DUP7 DUP6 DUP2 DUP2 LT PUSH2 0x3B2 JUMPI PUSH2 0x3B1 PUSH2 0x165B JUMP JUMPDEST JUMPDEST SWAP1 POP PUSH1 0x20 MUL ADD CALLDATALOAD PUSH1 0x40 MLOAD DUP3 PUSH4 0xFFFFFFFF AND PUSH1 0xE0 SHL DUP2 MSTORE PUSH1 0x4 ADD PUSH2 0x3D5 SWAP2 SWAP1 PUSH2 0x13AF JUMP JUMPDEST PUSH1 0x20 PUSH1 0x40 MLOAD DUP1 DUP4 SUB DUP2 DUP7 GAS STATICCALL ISZERO DUP1 ISZERO PUSH2 0x3F2 JUMPI RETURNDATASIZE PUSH1 0x0 DUP1 RETURNDATACOPY RETURNDATASIZE PUSH1 0x0 REVERT JUMPDEST POP POP POP POP PUSH1 0x40 MLOAD RETURNDATASIZE PUSH1 0x1F NOT PUSH1 0x1F DUP3 ADD AND DUP3 ADD DUP1 PUSH1 0x40 MSTORE POP DUP2 ADD SWAP1 PUSH2 0x416 SWAP2 SWAP1 PUSH2 0x169F JUMP JUMPDEST PUSH20 0xFFFFFFFFFFFFFFFFFFFFFFFFFFFFFFFFFFFFFFFF AND EQ PUSH2 0x46C JUMPI PUSH1 0x40 MLOAD PUSH32 0x8C379A000000000000000000000000000000000000000000000000000000000 DUP2 MSTORE PUSH1 0x4 ADD PUSH2 0x463 SWAP1 PUSH2 0x1718 JUMP JUMPDEST PUSH1 0x40 MLOAD DUP1 SWAP2 SUB SWAP1 REVERT JUMPDEST PUSH1 0x40 MLOAD DUP1 PUSH1 0x80 ADD PUSH1 0x40 MSTORE DUP1 CALLER PUSH20 0xFFFFFFFFFFFFFFFFFFFFFFFFFFFFFFFFFFFFFFFF AND DUP2 MSTORE PUSH1 0x20 ADD TIMESTAMP DUP2 MSTORE PUSH1 0x20 ADD PUSH1 0x0 DUP2 MSTORE PUSH1 0x20 ADD PUSH1 0x0 ISZERO ISZERO DUP2 MSTORE POP PUSH1 0x3 PUSH1 0x0 DUP7 DUP7 DUP6 DUP2 DUP2 LT PUSH2 0x4BE JUMPI PUSH2 0x4BD PUSH2 0x165B JUMP JUMPDEST JUMPDEST SWAP1 POP PUSH1 0x20 MUL ADD CALLDATALOAD DUP2 MSTORE PUSH1 0x20 ADD SWAP1 DUP2 MSTORE PUSH1 0x20 ADD PUSH1 0x0 KECCAK256 PUSH1 0x0 DUP3 ADD MLOAD DUP2 PUSH1 0x0 ADD PUSH1 0x0 PUSH2 0x100 EXP DUP2 SLOAD DUP2 PUSH20 0xFFFFFFFFFFFFFFFFFFFFFFFFFFFFFFFFFFFFFFFF MUL NOT AND SWAP1 DUP4 PUSH20 0xFFFFFFFFFFFFFFFFFFFFFFFFFFFFFFFFFFFFFFFF AND MUL OR SWAP1 SSTORE POP PUSH1 0x20 DUP3 ADD MLOAD DUP2 PUSH1 0x1 ADD SSTORE PUSH1 0x40 DUP3 ADD MLOAD DUP2 PUSH1 0x2 ADD SSTORE PUSH1 0x60 DUP3 ADD MLOAD DUP2 PUSH1 0x3 ADD PUSH1 0x0 PUSH2 0x100 EXP DUP2 SLOAD DUP2 PUSH1 0xFF MUL NOT AND SWAP1 DUP4 ISZERO ISZERO MUL OR SWAP1 SSTORE POP SWAP1 POP POP DUP1 DUP1 PUSH2 0x55C SWAP1 PUSH2 0x1767 JUMP JUMPDEST SWAP2 POP POP PUSH2 0x361 JUMP JUMPDEST POP CALLER PUSH20 0xFFFFFFFFFFFFFFFFFFFFFFFFFFFFFFFFFFFFFFFF AND PUSH32 0x458BE0227BCCC9E803DEC79BD16767EEAF9925D2CE708EEED7AE1F3621F968F9 DUP5 DUP5 PUSH1 0x40 MLOAD PUSH2 0x5AD SWAP3 SWAP2 SWAP1 PUSH2 0x182A JUMP JUMPDEST PUSH1 0x40 MLOAD DUP1 SWAP2 SUB SWAP1 LOG2 PUSH1 0x1 DUP1 DUP2 SWAP1 SSTORE POP POP POP POP JUMP JUMPDEST PUSH1 0x0 PUSH1 0x3 PUSH1 0x0 DUP4 DUP2 MSTORE PUSH1 0x20 ADD SWAP1 DUP2 MSTORE PUSH1 0x20 ADD PUSH1 0x0 KECCAK256 PUSH1 0x2 ADD SLOAD SWAP1 POP SWAP2 SWAP1 POP JUMP JUMPDEST PUSH1 0x2 SLOAD DUP2 JUMP JUMPDEST PUSH2 0x606 CALLER PUSH20 0xFFFFFFFFFFFFFFFFFFFFFFFFFFFFFFFFFFFFFFFF AND PUSH2 0xFB1 JUMP JUMPDEST ISZERO PUSH2 0x646 JUMPI PUSH1 0x40 MLOAD PUSH32 0x8C379A000000000000000000000000000000000000000000000000000000000 DUP2 MSTORE PUSH1 0x4 ADD PUSH2 0x63D SWAP1 PUSH2 0x14F7 JUMP JUMPDEST PUSH1 0x40 MLOAD DUP1 SWAP2 SUB SWAP1 REVERT JUMPDEST ORIGIN PUSH20 0xFFFFFFFFFFFFFFFFFFFFFFFFFFFFFFFFFFFFFFFF AND CALLER PUSH20 0xFFFFFFFFFFFFFFFFFFFFFFFFFFFFFFFFFFFFFFFF AND EQ PUSH2 0x6B4 JUMPI PUSH1 0x40 MLOAD PUSH32 0x8C379A000000000000000000000000000000000000000000000000000000000 DUP2 MSTORE PUSH1 0x4 ADD PUSH2 0x6AB SWAP1 PUSH2 0x1563 JUMP JUMPDEST PUSH1 0x40 MLOAD DUP1 SWAP2 SUB SWAP1 REVERT JUMPDEST PUSH1 0x0 DUP3 DUP3 SWAP1 POP GT PUSH2 0x6FA JUMPI PUSH1 0x40 MLOAD PUSH32 0x8C379A000000000000000000000000000000000000000000000000000000000 DUP2 MSTORE PUSH1 0x4 ADD PUSH2 0x6F1 SWAP1 PUSH2 0x163B JUMP JUMPDEST PUSH1 0x40 MLOAD DUP1 SWAP2 SUB SWAP1 REVERT JUMPDEST PUSH1 0x0 DUP1 PUSH1 0x0 SWAP1 POP JUMPDEST DUP4 DUP4 SWAP1 POP DUP2 LT ISZERO PUSH2 0x969 JUMPI PUSH1 0x0 PUSH1 0x3 PUSH1 0x0 DUP7 DUP7 DUP6 DUP2 DUP2 LT PUSH2 0x726 JUMPI PUSH2 0x725 PUSH2 0x165B JUMP JUMPDEST JUMPDEST SWAP1 POP PUSH1 0x20 MUL ADD CALLDATALOAD DUP2 MSTORE PUSH1 0x20 ADD SWAP1 DUP2 MSTORE PUSH1 0x20 ADD PUSH1 0x0 KECCAK256 PUSH1 0x40 MLOAD DUP1 PUSH1 0x80 ADD PUSH1 0x40 MSTORE SWAP1 DUP2 PUSH1 0x0 DUP3 ADD PUSH1 0x0 SWAP1 SLOAD SWAP1 PUSH2 0x100 EXP SWAP1 DIV PUSH20 0xFFFFFFFFFFFFFFFFFFFFFFFFFFFFFFFFFFFFFFFF AND PUSH20 0xFFFFFFFFFFFFFFFFFFFFFFFFFFFFFFFFFFFFFFFF AND PUSH20 0xFFFFFFFFFFFFFFFFFFFFFFFFFFFFFFFFFFFFFFFF AND DUP2 MSTORE PUSH1 0x20 ADD PUSH1 0x1 DUP3 ADD SLOAD DUP2 MSTORE PUSH1 0x20 ADD PUSH1 0x2 DUP3 ADD SLOAD DUP2 MSTORE PUSH1 0x20 ADD PUSH1 0x3 DUP3 ADD PUSH1 0x0 SWAP1 SLOAD SWAP1 PUSH2 0x100 EXP SWAP1 DIV PUSH1 0xFF AND ISZERO ISZERO ISZERO ISZERO DUP2 MSTORE POP POP SWAP1 POP CALLER PUSH20 0xFFFFFFFFFFFFFFFFFFFFFFFFFFFFFFFFFFFFFFFF AND DUP2 PUSH1 0x0 ADD MLOAD PUSH20 0xFFFFFFFFFFFFFFFFFFFFFFFFFFFFFFFFFFFFFFFF AND EQ PUSH2 0x83F JUMPI PUSH1 0x40 MLOAD PUSH32 0x8C379A000000000000000000000000000000000000000000000000000000000 DUP2 MSTORE PUSH1 0x4 ADD PUSH2 0x836 SWAP1 PUSH2 0x189A JUMP JUMPDEST PUSH1 0x40 MLOAD DUP1 SWAP2 SUB SWAP1 REVERT JUMPDEST TIMESTAMP PUSH1 0x2 SLOAD DUP3 PUSH1 0x20 ADD MLOAD PUSH2 0x852 SWAP2 SWAP1 PUSH2 0x18BA JUMP JUMPDEST LT PUSH2 0x892 JUMPI PUSH1 0x40 MLOAD PUSH32 0x8C379A000000000000000000000000000000000000000000000000000000000 DUP2 MSTORE PUSH1 0x4 ADD PUSH2 0x889 SWAP1 PUSH2 0x193A JUMP JUMPDEST PUSH1 0x40 MLOAD DUP1 SWAP2 SUB SWAP1 REVERT JUMPDEST DUP1 PUSH1 0x60 ADD MLOAD ISZERO PUSH2 0x8D7 JUMPI PUSH1 0x40 MLOAD PUSH32 0x8C379A000000000000000000000000000000000000000000000000000000000 DUP2 MSTORE PUSH1 0x4 ADD PUSH2 0x8CE SWAP1 PUSH2 0x19A6 JUMP JUMPDEST PUSH1 0x40 MLOAD DUP1 SWAP2 SUB SWAP1 REVERT JUMPDEST PUSH1 0x0 PUSH2 0x8FB DUP7 DUP7 DUP6 DUP2 DUP2 LT PUSH2 0x8EF JUMPI PUSH2 0x8EE PUSH2 0x165B JUMP JUMPDEST JUMPDEST SWAP1 POP PUSH1 0x20 MUL ADD CALLDATALOAD PUSH2 0xFD4 JUMP JUMPDEST SWAP1 POP PUSH1 0x0 DUP3 PUSH1 0x40 ADD MLOAD DUP3 PUSH2 0x90F SWAP2 SWAP1 PUSH2 0x19C6 JUMP JUMPDEST SWAP1 POP DUP1 DUP6 PUSH2 0x91D SWAP2 SWAP1 PUSH2 0x18BA JUMP JUMPDEST SWAP5 POP DUP2 PUSH1 0x3 PUSH1 0x0 DUP10 DUP10 DUP9 DUP2 DUP2 LT PUSH2 0x937 JUMPI PUSH2 0x936 PUSH2 0x165B JUMP JUMPDEST JUMPDEST SWAP1 POP PUSH1 0x20 MUL ADD CALLDATALOAD DUP2 MSTORE PUSH1 0x20 ADD SWAP1 DUP2 MSTORE PUSH1 0x20 ADD PUSH1 0x0 KECCAK256 PUSH1 0x2 ADD DUP2 SWAP1 SSTORE POP POP POP POP DUP1 DUP1 PUSH2 0x961 SWAP1 PUSH2 0x1767 JUMP JUMPDEST SWAP2 POP POP PUSH2 0x702 JUMP JUMPDEST POP CALLER PUSH20 0xFFFFFFFFFFFFFFFFFFFFFFFFFFFFFFFFFFFFFFFF AND PUSH32 0x37826BE3C26DBAD83731F4B985F22FA9EF86B6D1974CD77208332B7F1F283C0C DUP5 DUP5 DUP5 PUSH1 0x40 MLOAD PUSH2 0x9B4 SWAP4 SWAP3 SWAP2 SWAP1 PUSH2 0x19FA JUMP JUMPDEST PUSH1 0x40 MLOAD DUP1 SWAP2 SUB SWAP1 LOG2 POP POP POP JUMP JUMPDEST PUSH2 0x9C9 PUSH2 0x10B4 JUMP JUMPDEST PUSH2 0x9D3 PUSH1 0x0 PUSH2 0x1132 JUMP JUMPDEST JUMP JUMPDEST PUSH2 0x9DD PUSH2 0x10B4 JUMP JUMPDEST PUSH1 0x0 DUP2 GT PUSH2 0xA20 JUMPI PUSH1 0x40 MLOAD PUSH32 0x8C379A000000000000000000000000000000000000000000000000000000000 DUP2 MSTORE PUSH1 0x4 ADD PUSH2 0xA17 SWAP1 PUSH2 0x1A78 JUMP JUMPDEST PUSH1 0x40 MLOAD DUP1 SWAP2 SUB SWAP1 REVERT JUMPDEST DUP1 PUSH1 0x2 DUP2 SWAP1 SSTORE POP PUSH32 0x8249EC545E68F6F1E1230133CA48C704D831A7F8E635DED80F3DD9E99B09BB2F DUP2 PUSH1 0x40 MLOAD PUSH2 0xA56 SWAP2 SWAP1 PUSH2 0x13AF JUMP JUMPDEST PUSH1 0x40 MLOAD DUP1 SWAP2 SUB SWAP1 LOG1 POP JUMP JUMPDEST PUSH2 0xA80 CALLER PUSH20 0xFFFFFFFFFFFFFFFFFFFFFFFFFFFFFFFFFFFFFFFF AND PUSH2 0xFB1 JUMP JUMPDEST ISZERO PUSH2 0xAC0 JUMPI PUSH1 0x40 MLOAD PUSH32 0x8C379A000000000000000000000000000000000000000000000000000000000 DUP2 MSTORE PUSH1 0x4 ADD PUSH2 0xAB7 SWAP1 PUSH2 0x14F7 JUMP JUMPDEST PUSH1 0x40 MLOAD DUP1 SWAP2 SUB SWAP1 REVERT JUMPDEST ORIGIN PUSH20 0xFFFFFFFFFFFFFFFFFFFFFFFFFFFFFFFFFFFFFFFF AND CALLER PUSH20 0xFFFFFFFFFFFFFFFFFFFFFFFFFFFFFFFFFFFFFFFF AND EQ PUSH2 0xB2E JUMPI PUSH1 0x40 MLOAD PUSH32 0x8C379A000000000000000000000000000000000000000000000000000000000 DUP2 MSTORE PUSH1 0x4 ADD PUSH2 0xB25 SWAP1 PUSH2 0x1563 JUMP JUMPDEST PUSH1 0x40 MLOAD DUP1 SWAP2 SUB SWAP1 REVERT JUMPDEST PUSH1 0x2 PUSH1 0x1 SLOAD SUB PUSH2 0xB73 JUMPI PUSH1 0x40 MLOAD PUSH32 0x8C379A000000000000000000000000000000000000000000000000000000000 DUP2 MSTORE PUSH1 0x4 ADD PUSH2 0xB6A SWAP1 PUSH2 0x15CF JUMP JUMPDEST PUSH1 0x40 MLOAD DUP1 SWAP2 SUB SWAP1 REVERT JUMPDEST PUSH1 0x2 PUSH1 0x1 DUP2 SWAP1 SSTORE POP PUSH1 0x0 DUP3 DUP3 SWAP1 POP GT PUSH2 0xBC1 JUMPI PUSH1 0x40 MLOAD PUSH32 0x8C379A000000000000000000000000000000000000000000000000000000000 DUP2 MSTORE PUSH1 0x4 ADD PUSH2 0xBB8 SWAP1 PUSH2 0x163B JUMP JUMPDEST PUSH1 0x40 MLOAD DUP1 SWAP2 SUB SWAP1 REVERT JUMPDEST PUSH1 0x0 JUMPDEST DUP3 DUP3 SWAP1 POP DUP2 LT ISZERO PUSH2 0xE65 JUMPI PUSH1 0x0 PUSH1 0x3 PUSH1 0x0 DUP6 DUP6 DUP6 DUP2 DUP2 LT PUSH2 0xBE8 JUMPI PUSH2 0xBE7 PUSH2 0x165B JUMP JUMPDEST JUMPDEST SWAP1 POP PUSH1 0x20 MUL ADD CALLDATALOAD DUP2 MSTORE PUSH1 0x20 ADD SWAP1 DUP2 MSTORE PUSH1 0x20 ADD PUSH1 0x0 KECCAK256 PUSH1 0x40 MLOAD DUP1 PUSH1 0x80 ADD PUSH1 0x40 MSTORE SWAP1 DUP2 PUSH1 0x0 DUP3 ADD PUSH1 0x0 SWAP1 SLOAD SWAP1 PUSH2 0x100 EXP SWAP1 DIV PUSH20 0xFFFFFFFFFFFFFFFFFFFFFFFFFFFFFFFFFFFFFFFF AND PUSH20 0xFFFFFFFFFFFFFFFFFFFFFFFFFFFFFFFFFFFFFFFF AND PUSH20 0xFFFFFFFFFFFFFFFFFFFFFFFFFFFFFFFFFFFFFFFF AND DUP2 MSTORE PUSH1 0x20 ADD PUSH1 0x1 DUP3 ADD SLOAD DUP2 MSTORE PUSH1 0x20 ADD PUSH1 0x2 DUP3 ADD SLOAD DUP2 MSTORE PUSH1 0x20 ADD PUSH1 0x3 DUP3 ADD PUSH1 0x0 SWAP1 SLOAD SWAP1 PUSH2 0x100 EXP SWAP1 DIV PUSH1 0xFF AND ISZERO ISZERO ISZERO ISZERO DUP2 MSTORE POP POP SWAP1 POP CALLER PUSH20 0xFFFFFFFFFFFFFFFFFFFFFFFFFFFFFFFFFFFFFFFF AND DUP2 PUSH1 0x0 ADD MLOAD PUSH20 0xFFFFFFFFFFFFFFFFFFFFFFFFFFFFFFFFFFFFFFFF AND EQ PUSH2 0xD01 JUMPI PUSH1 0x40 MLOAD PUSH32 0x8C379A000000000000000000000000000000000000000000000000000000000 DUP2 MSTORE PUSH1 0x4 ADD PUSH2 0xCF8 SWAP1 PUSH2 0x189A JUMP JUMPDEST PUSH1 0x40 MLOAD DUP1 SWAP2 SUB SWAP1 REVERT JUMPDEST TIMESTAMP PUSH1 0x2 SLOAD DUP3 PUSH1 0x20 ADD MLOAD PUSH2 0xD14 SWAP2 SWAP1 PUSH2 0x18BA JUMP JUMPDEST LT PUSH2 0xD54 JUMPI PUSH1 0x40 MLOAD PUSH32 0x8C379A000000000000000000000000000000000000000000000000000000000 DUP2 MSTORE PUSH1 0x4 ADD PUSH2 0xD4B SWAP1 PUSH2 0x1AE4 JUMP JUMPDEST PUSH1 0x40 MLOAD DUP1 SWAP2 SUB SWAP1 REVERT JUMPDEST DUP1 PUSH1 0x60 ADD MLOAD ISZERO PUSH2 0xD99 JUMPI PUSH1 0x40 MLOAD PUSH32 0x8C379A000000000000000000000000000000000000000000000000000000000 DUP2 MSTORE PUSH1 0x4 ADD PUSH2 0xD90 SWAP1 PUSH2 0x19A6 JUMP JUMPDEST PUSH1 0x40 MLOAD DUP1 SWAP2 SUB SWAP1 REVERT JUMPDEST PUSH1 0x0 PUSH2 0xDBD DUP6 DUP6 DUP6 DUP2 DUP2 LT PUSH2 0xDB1 JUMPI PUSH2 0xDB0 PUSH2 0x165B JUMP JUMPDEST JUMPDEST SWAP1 POP PUSH1 0x20 MUL ADD CALLDATALOAD PUSH2 0xFD4 JUMP JUMPDEST SWAP1 POP PUSH1 0x0 DUP3 PUSH1 0x40 ADD MLOAD DUP3 PUSH2 0xDD1 SWAP2 SWAP1 PUSH2 0x19C6 JUMP JUMPDEST SWAP1 POP DUP2 PUSH1 0x3 PUSH1 0x0 DUP9 DUP9 DUP9 DUP2 DUP2 LT PUSH2 0xDEB JUMPI PUSH2 0xDEA PUSH2 0x165B JUMP JUMPDEST JUMPDEST SWAP1 POP PUSH1 0x20 MUL ADD CALLDATALOAD DUP2 MSTORE PUSH1 0x20 ADD SWAP1 DUP2 MSTORE PUSH1 0x20 ADD PUSH1 0x0 KECCAK256 PUSH1 0x2 ADD DUP2 SWAP1 SSTORE POP PUSH1 0x1 PUSH1 0x3 PUSH1 0x0 DUP9 DUP9 DUP9 DUP2 DUP2 LT PUSH2 0xE20 JUMPI PUSH2 0xE1F PUSH2 0x165B JUMP JUMPDEST JUMPDEST SWAP1 POP PUSH1 0x20 MUL ADD CALLDATALOAD DUP2 MSTORE PUSH1 0x20 ADD SWAP1 DUP2 MSTORE PUSH1 0x20 ADD PUSH1 0x0 KECCAK256 PUSH1 0x3 ADD PUSH1 0x0 PUSH2 0x100 EXP DUP2 SLOAD DUP2 PUSH1 0xFF MUL NOT AND SWAP1 DUP4 ISZERO ISZERO MUL OR SWAP1 SSTORE POP POP POP POP DUP1 DUP1 PUSH2 0xE5D SWAP1 PUSH2 0x1767 JUMP JUMPDEST SWAP2 POP POP PUSH2 0xBC4 JUMP JUMPDEST POP CALLER PUSH20 0xFFFFFFFFFFFFFFFFFFFFFFFFFFFFFFFFFFFFFFFF AND PUSH32 0x5CB48022479B9AC3BFB10A27965DC010ACFFC9FC1BC9A52F0B18975B944B54CA DUP4 DUP4 PUSH1 0x40 MLOAD PUSH2 0xEAE SWAP3 SWAP2 SWAP1 PUSH2 0x182A JUMP JUMPDEST PUSH1 0x40 MLOAD DUP1 SWAP2 SUB SWAP1 LOG2 PUSH1 0x1 DUP1 DUP2 SWAP1 SSTORE POP POP POP JUMP JUMPDEST PUSH1 0x0 DUP1 PUSH1 0x0 SWAP1 SLOAD SWAP1 PUSH2 0x100 EXP SWAP1 DIV PUSH20 0xFFFFFFFFFFFFFFFFFFFFFFFFFFFFFFFFFFFFFFFF AND SWAP1 POP SWAP1 JUMP JUMPDEST PUSH1 0x6 SLOAD DUP2 JUMP JUMPDEST PUSH1 0x5 PUSH1 0x20 MSTORE DUP1 PUSH1 0x0 MSTORE PUSH1 0x40 PUSH1 0x0 KECCAK256 PUSH1 0x0 SWAP2 POP SWAP1 POP DUP1 PUSH1 0x0 ADD PUSH1 0x0 SWAP1 SLOAD SWAP1 PUSH2 0x100 EXP SWAP1 DIV PUSH20 0xFFFFFFFFFFFFFFFFFFFFFFFFFFFFFFFFFFFFFFFF AND SWAP1 POP DUP2 JUMP JUMPDEST PUSH2 0xF36 PUSH2 0x10B4 JUMP JUMPDEST PUSH1 0x0 PUSH20 0xFFFFFFFFFFFFFFFFFFFFFFFFFFFFFFFFFFFFFFFF AND DUP2 PUSH20 0xFFFFFFFFFFFFFFFFFFFFFFFFFFFFFFFFFFFFFFFF AND SUB PUSH2 0xFA5 JUMPI PUSH1 0x40 MLOAD PUSH32 0x8C379A000000000000000000000000000000000000000000000000000000000 DUP2 MSTORE PUSH1 0x4 ADD PUSH2 0xF9C SWAP1 PUSH2 0x1B76 JUMP JUMPDEST PUSH1 0x40 MLOAD DUP1 SWAP2 SUB SWAP1 REVERT JUMPDEST PUSH2 0xFAE DUP2 PUSH2 0x1132 JUMP JUMPDEST POP JUMP JUMPDEST PUSH1 0x0 DUP1 DUP3 PUSH20 0xFFFFFFFFFFFFFFFFFFFFFFFFFFFFFFFFFFFFFFFF AND EXTCODESIZE GT SWAP1 POP SWAP2 SWAP1 POP JUMP JUMPDEST PUSH1 0x0 DUP1 PUSH1 0x3 PUSH1 0x0 DUP5 DUP2 MSTORE PUSH1 0x20 ADD SWAP1 DUP2 MSTORE PUSH1 0x20 ADD PUSH1 0x0 KECCAK256 PUSH1 0x40 MLOAD DUP1 PUSH1 0x80 ADD PUSH1 0x40 MSTORE SWAP1 DUP2 PUSH1 0x0 DUP3 ADD PUSH1 0x0 SWAP1 SLOAD SWAP1 PUSH2 0x100 EXP SWAP1 DIV PUSH20 0xFFFFFFFFFFFFFFFFFFFFFFFFFFFFFFFFFFFFFFFF AND PUSH20 0xFFFFFFFFFFFFFFFFFFFFFFFFFFFFFFFFFFFFFFFF AND PUSH20 0xFFFFFFFFFFFFFFFFFFFFFFFFFFFFFFFFFFFFFFFF AND DUP2 MSTORE PUSH1 0x20 ADD PUSH1 0x1 DUP3 ADD SLOAD DUP2 MSTORE PUSH1 0x20 ADD PUSH1 0x2 DUP3 ADD SLOAD DUP2 MSTORE PUSH1 0x20 ADD PUSH1 0x3 DUP3 ADD PUSH1 0x0 SWAP1 SLOAD SWAP1 PUSH2 0x100 EXP SWAP1 DIV PUSH1 0xFF AND ISZERO ISZERO ISZERO ISZERO DUP2 MSTORE POP POP SWAP1 POP PUSH1 0x0 DUP2 PUSH1 0x20 ADD MLOAD TIMESTAMP PUSH2 0x108E SWAP2 SWAP1 PUSH2 0x19C6 JUMP JUMPDEST SWAP1 POP PUSH1 0x0 PUSH1 0x2 SLOAD DUP3 LT ISZERO PUSH2 0x10A8 JUMPI PUSH1 0x0 SWAP4 POP POP POP POP PUSH2 0x10AF JUMP JUMPDEST DUP1 SWAP4 POP POP POP POP JUMPDEST SWAP2 SWAP1 POP JUMP JUMPDEST PUSH2 0x10BC PUSH2 0x11F6 JUMP JUMPDEST PUSH20 0xFFFFFFFFFFFFFFFFFFFFFFFFFFFFFFFFFFFFFFFF AND PUSH2 0x10DA PUSH2 0xEC1 JUMP JUMPDEST PUSH20 0xFFFFFFFFFFFFFFFFFFFFFFFFFFFFFFFFFFFFFFFF AND EQ PUSH2 0x1130 JUMPI PUSH1 0x40 MLOAD PUSH32 0x8C379A000000000000000000000000000000000000000000000000000000000 DUP2 MSTORE PUSH1 0x4 ADD PUSH2 0x1127 SWAP1 PUSH2 0x1BE2 JUMP JUMPDEST PUSH1 0x40 MLOAD DUP1 SWAP2 SUB SWAP1 REVERT JUMPDEST JUMP JUMPDEST PUSH1 0x0 DUP1 PUSH1 0x0 SWAP1 SLOAD SWAP1 PUSH2 0x100 EXP SWAP1 DIV PUSH20 0xFFFFFFFFFFFFFFFFFFFFFFFFFFFFFFFFFFFFFFFF AND SWAP1 POP DUP2 PUSH1 0x0 DUP1 PUSH2 0x100 EXP DUP2 SLOAD DUP2 PUSH20 0xFFFFFFFFFFFFFFFFFFFFFFFFFFFFFFFFFFFFFFFF MUL NOT AND SWAP1 DUP4 PUSH20 0xFFFFFFFFFFFFFFFFFFFFFFFFFFFFFFFFFFFFFFFF AND MUL OR SWAP1 SSTORE POP DUP2 PUSH20 0xFFFFFFFFFFFFFFFFFFFFFFFFFFFFFFFFFFFFFFFF AND DUP2 PUSH20 0xFFFFFFFFFFFFFFFFFFFFFFFFFFFFFFFFFFFFFFFF AND PUSH32 0x8BE0079C531659141344CD1FD0A4F28419497F9722A3DAAFE3B4186F6B6457E0 PUSH1 0x40 MLOAD PUSH1 0x40 MLOAD DUP1 SWAP2 SUB SWAP1 LOG3 POP POP JUMP JUMPDEST PUSH1 0x0 CALLER SWAP1 POP SWAP1 JUMP JUMPDEST PUSH1 0x0 DUP1 REVERT JUMPDEST PUSH1 0x0 DUP1 REVERT JUMPDEST PUSH1 0x0 DUP1 REVERT JUMPDEST PUSH1 0x0 DUP1 REVERT JUMPDEST PUSH1 0x0 DUP1 REVERT JUMPDEST PUSH1 0x0 DUP1 DUP4 PUSH1 0x1F DUP5 ADD SLT PUSH2 0x122D JUMPI PUSH2 0x122C PUSH2 0x1208 JUMP JUMPDEST JUMPDEST DUP3 CALLDATALOAD SWAP1 POP PUSH8 0xFFFFFFFFFFFFFFFF DUP2 GT ISZERO PUSH2 0x124A JUMPI PUSH2 0x1249 PUSH2 0x120D JUMP JUMPDEST JUMPDEST PUSH1 0x20 DUP4 ADD SWAP2 POP DUP4 PUSH1 0x20 DUP3 MUL DUP4 ADD GT ISZERO PUSH2 0x1266 JUMPI PUSH2 0x1265 PUSH2 0x1212 JUMP JUMPDEST JUMPDEST SWAP3 POP SWAP3 SWAP1 POP JUMP JUMPDEST PUSH1 0x0 PUSH20 0xFFFFFFFFFFFFFFFFFFFFFFFFFFFFFFFFFFFFFFFF DUP3 AND SWAP1 POP SWAP2 SWAP1 POP JUMP JUMPDEST PUSH1 0x0 PUSH2 0x1298 DUP3 PUSH2 0x126D JUMP JUMPDEST SWAP1 POP SWAP2 SWAP1 POP JUMP JUMPDEST PUSH1 0x0 PUSH2 0x12AA DUP3 PUSH2 0x128D JUMP JUMPDEST SWAP1 POP SWAP2 SWAP1 POP JUMP JUMPDEST PUSH2 0x12BA DUP2 PUSH2 0x129F JUMP JUMPDEST DUP2 EQ PUSH2 0x12C5 JUMPI PUSH1 0x0 DUP1 REVERT JUMPDEST POP JUMP JUMPDEST PUSH1 0x0 DUP2 CALLDATALOAD SWAP1 POP PUSH2 0x12D7 DUP2 PUSH2 0x12B1 JUMP JUMPDEST SWAP3 SWAP2 POP POP JUMP JUMPDEST PUSH1 0x0 DUP1 PUSH1 0x0 PUSH1 0x40 DUP5 DUP7 SUB SLT ISZERO PUSH2 0x12F6 JUMPI PUSH2 0x12F5 PUSH2 0x11FE JUMP JUMPDEST JUMPDEST PUSH1 0x0 DUP5 ADD CALLDATALOAD PUSH8 0xFFFFFFFFFFFFFFFF DUP2 GT ISZERO PUSH2 0x1314 JUMPI PUSH2 0x1313 PUSH2 0x1203 JUMP JUMPDEST JUMPDEST PUSH2 0x1320 DUP7 DUP3 DUP8 ADD PUSH2 0x1217 JUMP JUMPDEST SWAP4 POP SWAP4 POP POP PUSH1 0x20 PUSH2 0x1333 DUP7 DUP3 DUP8 ADD PUSH2 0x12C8 JUMP JUMPDEST SWAP2 POP POP SWAP3 POP SWAP3 POP SWAP3 JUMP JUMPDEST PUSH1 0x0 DUP2 SWAP1 POP SWAP2 SWAP1 POP JUMP JUMPDEST PUSH2 0x1350 DUP2 PUSH2 0x133D JUMP JUMPDEST DUP2 EQ PUSH2 0x135B JUMPI PUSH1 0x0 DUP1 REVERT JUMPDEST POP JUMP JUMPDEST PUSH1 0x0 DUP2 CALLDATALOAD SWAP1 POP PUSH2 0x136D DUP2 PUSH2 0x1347 JUMP JUMPDEST SWAP3 SWAP2 POP POP JUMP JUMPDEST PUSH1 0x0 PUSH1 0x20 DUP3 DUP5 SUB SLT ISZERO PUSH2 0x1389 JUMPI PUSH2 0x1388 PUSH2 0x11FE JUMP JUMPDEST JUMPDEST PUSH1 0x0 PUSH2 0x1397 DUP5 DUP3 DUP6 ADD PUSH2 0x135E JUMP JUMPDEST SWAP2 POP POP SWAP3 SWAP2 POP POP JUMP JUMPDEST PUSH2 0x13A9 DUP2 PUSH2 0x133D JUMP JUMPDEST DUP3 MSTORE POP POP JUMP JUMPDEST PUSH1 0x0 PUSH1 0x20 DUP3 ADD SWAP1 POP PUSH2 0x13C4 PUSH1 0x0 DUP4 ADD DUP5 PUSH2 0x13A0 JUMP JUMPDEST SWAP3 SWAP2 POP POP JUMP JUMPDEST PUSH1 0x0 DUP1 PUSH1 0x20 DUP4 DUP6 SUB SLT ISZERO PUSH2 0x13E1 JUMPI PUSH2 0x13E0 PUSH2 0x11FE JUMP JUMPDEST JUMPDEST PUSH1 0x0 DUP4 ADD CALLDATALOAD PUSH8 0xFFFFFFFFFFFFFFFF DUP2 GT ISZERO PUSH2 0x13FF JUMPI PUSH2 0x13FE PUSH2 0x1203 JUMP JUMPDEST JUMPDEST PUSH2 0x140B DUP6 DUP3 DUP7 ADD PUSH2 0x1217 JUMP JUMPDEST SWAP3 POP SWAP3 POP POP SWAP3 POP SWAP3 SWAP1 POP JUMP JUMPDEST PUSH2 0x1420 DUP2 PUSH2 0x128D JUMP JUMPDEST DUP3 MSTORE POP POP JUMP JUMPDEST PUSH1 0x0 PUSH1 0x20 DUP3 ADD SWAP1 POP PUSH2 0x143B PUSH1 0x0 DUP4 ADD DUP5 PUSH2 0x1417 JUMP JUMPDEST SWAP3 SWAP2 POP POP JUMP JUMPDEST PUSH2 0x144A DUP2 PUSH2 0x128D JUMP JUMPDEST DUP2 EQ PUSH2 0x1455 JUMPI PUSH1 0x0 DUP1 REVERT JUMPDEST POP JUMP JUMPDEST PUSH1 0x0 DUP2 CALLDATALOAD SWAP1 POP PUSH2 0x1467 DUP2 PUSH2 0x1441 JUMP JUMPDEST SWAP3 SWAP2 POP POP JUMP JUMPDEST PUSH1 0x0 PUSH1 0x20 DUP3 DUP5 SUB SLT ISZERO PUSH2 0x1483 JUMPI PUSH2 0x1482 PUSH2 0x11FE JUMP JUMPDEST JUMPDEST PUSH1 0x0 PUSH2 0x1491 DUP5 DUP3 DUP6 ADD PUSH2 0x1458 JUMP JUMPDEST SWAP2 POP POP SWAP3 SWAP2 POP POP JUMP JUMPDEST PUSH1 0x0 DUP3 DUP3 MSTORE PUSH1 0x20 DUP3 ADD SWAP1 POP SWAP3 SWAP2 POP POP JUMP JUMPDEST PUSH32 0x436F6E7472616374206E6F7420616C6C6F776564000000000000000000000000 PUSH1 0x0 DUP3 ADD MSTORE POP JUMP JUMPDEST PUSH1 0x0 PUSH2 0x14E1 PUSH1 0x14 DUP4 PUSH2 0x149A JUMP JUMPDEST SWAP2 POP PUSH2 0x14EC DUP3 PUSH2 0x14AB JUMP JUMPDEST PUSH1 0x20 DUP3 ADD SWAP1 POP SWAP2 SWAP1 POP JUMP JUMPDEST PUSH1 0x0 PUSH1 0x20 DUP3 ADD SWAP1 POP DUP2 DUP2 SUB PUSH1 0x0 DUP4 ADD MSTORE PUSH2 0x1510 DUP2 PUSH2 0x14D4 JUMP JUMPDEST SWAP1 POP SWAP2 SWAP1 POP JUMP JUMPDEST PUSH32 0x50726F787920636F6E7472616374206E6F7420616C6C6F776564000000000000 PUSH1 0x0 DUP3 ADD MSTORE POP JUMP JUMPDEST PUSH1 0x0 PUSH2 0x154D PUSH1 0x1A DUP4 PUSH2 0x149A JUMP JUMPDEST SWAP2 POP PUSH2 0x1558 DUP3 PUSH2 0x1517 JUMP JUMPDEST PUSH1 0x20 DUP3 ADD SWAP1 POP SWAP2 SWAP1 POP JUMP JUMPDEST PUSH1 0x0 PUSH1 0x20 DUP3 ADD SWAP1 POP DUP2 DUP2 SUB PUSH1 0x0 DUP4 ADD MSTORE PUSH2 0x157C DUP2 PUSH2 0x1540 JUMP JUMPDEST SWAP1 POP SWAP2 SWAP1 POP JUMP JUMPDEST PUSH32 0x5265656E7472616E637947756172643A207265656E7472616E742063616C6C00 PUSH1 0x0 DUP3 ADD MSTORE POP JUMP JUMPDEST PUSH1 0x0 PUSH2 0x15B9 PUSH1 0x1F DUP4 PUSH2 0x149A JUMP JUMPDEST SWAP2 POP PUSH2 0x15C4 DUP3 PUSH2 0x1583 JUMP JUMPDEST PUSH1 0x20 DUP3 ADD SWAP1 POP SWAP2 SWAP1 POP JUMP JUMPDEST PUSH1 0x0 PUSH1 0x20 DUP3 ADD SWAP1 POP DUP2 DUP2 SUB PUSH1 0x0 DUP4 ADD MSTORE PUSH2 0x15E8 DUP2 PUSH2 0x15AC JUMP JUMPDEST SWAP1 POP SWAP2 SWAP1 POP JUMP JUMPDEST PUSH32 0x4E6F20746F6B656E730000000000000000000000000000000000000000000000 PUSH1 0x0 DUP3 ADD MSTORE POP JUMP JUMPDEST PUSH1 0x0 PUSH2 0x1625 PUSH1 0x9 DUP4 PUSH2 0x149A JUMP JUMPDEST SWAP2 POP PUSH2 0x1630 DUP3 PUSH2 0x15EF JUMP JUMPDEST PUSH1 0x20 DUP3 ADD SWAP1 POP SWAP2 SWAP1 POP JUMP JUMPDEST PUSH1 0x0 PUSH1 0x20 DUP3 ADD SWAP1 POP DUP2 DUP2 SUB PUSH1 0x0 DUP4 ADD MSTORE PUSH2 0x1654 DUP2 PUSH2 0x1618 JUMP JUMPDEST SWAP1 POP SWAP2 SWAP1 POP JUMP JUMPDEST PUSH32 0x4E487B7100000000000000000000000000000000000000000000000000000000 PUSH1 0x0 MSTORE PUSH1 0x32 PUSH1 0x4 MSTORE PUSH1 0x24 PUSH1 0x0 REVERT JUMPDEST PUSH1 0x0 DUP2 MLOAD SWAP1 POP PUSH2 0x1699 DUP2 PUSH2 0x1441 JUMP JUMPDEST SWAP3 SWAP2 POP POP JUMP JUMPDEST PUSH1 0x0 PUSH1 0x20 DUP3 DUP5 SUB SLT ISZERO PUSH2 0x16B5 JUMPI PUSH2 0x16B4 PUSH2 0x11FE JUMP JUMPDEST JUMPDEST PUSH1 0x0 PUSH2 0x16C3 DUP5 DUP3 DUP6 ADD PUSH2 0x168A JUMP JUMPDEST SWAP2 POP POP SWAP3 SWAP2 POP POP JUMP JUMPDEST PUSH32 0x596F7520646F6E277420686F6C64207468697320746F6B656E00000000000000 PUSH1 0x0 DUP3 ADD MSTORE POP JUMP JUMPDEST PUSH1 0x0 PUSH2 0x1702 PUSH1 0x19 DUP4 PUSH2 0x149A JUMP JUMPDEST SWAP2 POP PUSH2 0x170D DUP3 PUSH2 0x16CC JUMP JUMPDEST PUSH1 0x20 DUP3 ADD SWAP1 POP SWAP2 SWAP1 POP JUMP JUMPDEST PUSH1 0x0 PUSH1 0x20 DUP3 ADD SWAP1 POP DUP2 DUP2 SUB PUSH1 0x0 DUP4 ADD MSTORE PUSH2 0x1731 DUP2 PUSH2 0x16F5 JUMP JUMPDEST SWAP1 POP SWAP2 SWAP1 POP JUMP JUMPDEST PUSH32 0x4E487B7100000000000000000000000000000000000000000000000000000000 PUSH1 0x0 MSTORE PUSH1 0x11 PUSH1 0x4 MSTORE PUSH1 0x24 PUSH1 0x0 REVERT JUMPDEST PUSH1 0x0 PUSH2 0x1772 DUP3 PUSH2 0x133D JUMP JUMPDEST SWAP2 POP PUSH32 0xFFFFFFFFFFFFFFFFFFFFFFFFFFFFFFFFFFFFFFFFFFFFFFFFFFFFFFFFFFFFFFFF DUP3 SUB PUSH2 0x17A4 JUMPI PUSH2 0x17A3 PUSH2 0x1738 JUMP JUMPDEST JUMPDEST PUSH1 0x1 DUP3 ADD SWAP1 POP SWAP2 SWAP1 POP JUMP JUMPDEST PUSH1 0x0 DUP3 DUP3 MSTORE PUSH1 0x20 DUP3 ADD SWAP1 POP SWAP3 SWAP2 POP POP JUMP JUMPDEST PUSH1 0x0 DUP1 REVERT JUMPDEST DUP3 DUP2 DUP4 CALLDATACOPY POP POP POP JUMP JUMPDEST PUSH1 0x0 PUSH2 0x17DA DUP4 DUP6 PUSH2 0x17AF JUMP JUMPDEST SWAP4 POP PUSH32 0x7FFFFFFFFFFFFFFFFFFFFFFFFFFFFFFFFFFFFFFFFFFFFFFFFFFFFFFFFFFFFFF DUP4 GT ISZERO PUSH2 0x180D JUMPI PUSH2 0x180C PUSH2 0x17C0 JUMP JUMPDEST JUMPDEST PUSH1 0x20 DUP4 MUL SWAP3 POP PUSH2 0x181E DUP4 DUP6 DUP5 PUSH2 0x17C5 JUMP JUMPDEST DUP3 DUP5 ADD SWAP1 POP SWAP4 SWAP3 POP POP POP JUMP JUMPDEST PUSH1 0x0 PUSH1 0x20 DUP3 ADD SWAP1 POP DUP2 DUP2 SUB PUSH1 0x0 DUP4 ADD MSTORE PUSH2 0x1845 DUP2 DUP5 DUP7 PUSH2 0x17CE JUMP JUMPDEST SWAP1 POP SWAP4 SWAP3 POP POP POP JUMP JUMPDEST PUSH32 0x4E6F74206120746F6B656E206F776E6572000000000000000000000000000000 PUSH1 0x0 DUP3 ADD MSTORE POP JUMP JUMPDEST PUSH1 0x0 PUSH2 0x1884 PUSH1 0x11 DUP4 PUSH2 0x149A JUMP JUMPDEST SWAP2 POP PUSH2 0x188F DUP3 PUSH2 0x184E JUMP JUMPDEST PUSH1 0x20 DUP3 ADD SWAP1 POP SWAP2 SWAP1 POP JUMP JUMPDEST PUSH1 0x0 PUSH1 0x20 DUP3 ADD SWAP1 POP DUP2 DUP2 SUB PUSH1 0x0 DUP4 ADD MSTORE PUSH2 0x18B3 DUP2 PUSH2 0x1877 JUMP JUMPDEST SWAP1 POP SWAP2 SWAP1 POP JUMP JUMPDEST PUSH1 0x0 PUSH2 0x18C5 DUP3 PUSH2 0x133D JUMP JUMPDEST SWAP2 POP PUSH2 0x18D0 DUP4 PUSH2 0x133D JUMP JUMPDEST SWAP3 POP DUP3 DUP3 ADD SWAP1 POP DUP1 DUP3 GT ISZERO PUSH2 0x18E8 JUMPI PUSH2 0x18E7 PUSH2 0x1738 JUMP JUMPDEST JUMPDEST SWAP3 SWAP2 POP POP JUMP JUMPDEST PUSH32 0x4E6F742061626C6520746F20636C61696D207965740000000000000000000000 PUSH1 0x0 DUP3 ADD MSTORE POP JUMP JUMPDEST PUSH1 0x0 PUSH2 0x1924 PUSH1 0x15 DUP4 PUSH2 0x149A JUMP JUMPDEST SWAP2 POP PUSH2 0x192F DUP3 PUSH2 0x18EE JUMP JUMPDEST PUSH1 0x20 DUP3 ADD SWAP1 POP SWAP2 SWAP1 POP JUMP JUMPDEST PUSH1 0x0 PUSH1 0x20 DUP3 ADD SWAP1 POP DUP2 DUP2 SUB PUSH1 0x0 DUP4 ADD MSTORE PUSH2 0x1953 DUP2 PUSH2 0x1917 JUMP JUMPDEST SWAP1 POP SWAP2 SWAP1 POP JUMP JUMPDEST PUSH32 0x416C726561647920756E6C6F636B656400000000000000000000000000000000 PUSH1 0x0 DUP3 ADD MSTORE POP JUMP JUMPDEST PUSH1 0x0 PUSH2 0x1990 PUSH1 0x10 DUP4 PUSH2 0x149A JUMP JUMPDEST SWAP2 POP PUSH2 0x199B DUP3 PUSH2 0x195A JUMP JUMPDEST PUSH1 0x20 DUP3 ADD SWAP1 POP SWAP2 SWAP1 POP JUMP JUMPDEST PUSH1 0x0 PUSH1 0x20 DUP3 ADD SWAP1 POP DUP2 DUP2 SUB PUSH1 0x0 DUP4 ADD MSTORE PUSH2 0x19BF DUP2 PUSH2 0x1983 JUMP JUMPDEST SWAP1 POP SWAP2 SWAP1 POP JUMP JUMPDEST PUSH1 0x0 PUSH2 0x19D1 DUP3 PUSH2 0x133D JUMP JUMPDEST SWAP2 POP PUSH2 0x19DC DUP4 PUSH2 0x133D JUMP JUMPDEST SWAP3 POP DUP3 DUP3 SUB SWAP1 POP DUP2 DUP2 GT ISZERO PUSH2 0x19F4 JUMPI PUSH2 0x19F3 PUSH2 0x1738 JUMP JUMPDEST JUMPDEST SWAP3 SWAP2 POP POP JUMP JUMPDEST PUSH1 0x0 PUSH1 0x40 DUP3 ADD SWAP1 POP DUP2 DUP2 SUB PUSH1 0x0 DUP4 ADD MSTORE PUSH2 0x1A15 DUP2 DUP6 DUP8 PUSH2 0x17CE JUMP JUMPDEST SWAP1 POP PUSH2 0x1A24 PUSH1 0x20 DUP4 ADD DUP5 PUSH2 0x13A0 JUMP JUMPDEST SWAP5 SWAP4 POP POP POP POP JUMP JUMPDEST PUSH32 0x496E76616C6964206C6F636B20706572696F642E000000000000000000000000 PUSH1 0x0 DUP3 ADD MSTORE POP JUMP JUMPDEST PUSH1 0x0 PUSH2 0x1A62 PUSH1 0x14 DUP4 PUSH2 0x149A JUMP JUMPDEST SWAP2 POP PUSH2 0x1A6D DUP3 PUSH2 0x1A2C JUMP JUMPDEST PUSH1 0x20 DUP3 ADD SWAP1 POP SWAP2 SWAP1 POP JUMP JUMPDEST PUSH1 0x0 PUSH1 0x20 DUP3 ADD SWAP1 POP DUP2 DUP2 SUB PUSH1 0x0 DUP4 ADD MSTORE PUSH2 0x1A91 DUP2 PUSH2 0x1A55 JUMP JUMPDEST SWAP1 POP SWAP2 SWAP1 POP JUMP JUMPDEST PUSH32 0x4E6F742061626C6520746F20756E6C6F636B2079657400000000000000000000 PUSH1 0x0 DUP3 ADD MSTORE POP JUMP JUMPDEST PUSH1 0x0 PUSH2 0x1ACE PUSH1 0x16 DUP4 PUSH2 0x149A JUMP JUMPDEST SWAP2 POP PUSH2 0x1AD9 DUP3 PUSH2 0x1A98 JUMP JUMPDEST PUSH1 0x20 DUP3 ADD SWAP1 POP SWAP2 SWAP1 POP JUMP JUMPDEST PUSH1 0x0 PUSH1 0x20 DUP3 ADD SWAP1 POP DUP2 DUP2 SUB PUSH1 0x0 DUP4 ADD MSTORE PUSH2 0x1AFD DUP2 PUSH2 0x1AC1 JUMP JUMPDEST SWAP1 POP SWAP2 SWAP1 POP JUMP JUMPDEST PUSH32 0x4F776E61626C653A206E6577206F776E657220697320746865207A65726F2061 PUSH1 0x0 DUP3 ADD MSTORE PUSH32 0x6464726573730000000000000000000000000000000000000000000000000000 PUSH1 0x20 DUP3 ADD MSTORE POP JUMP JUMPDEST PUSH1 0x0 PUSH2 0x1B60 PUSH1 0x26 DUP4 PUSH2 0x149A JUMP JUMPDEST SWAP2 POP PUSH2 0x1B6B DUP3 PUSH2 0x1B04 JUMP JUMPDEST PUSH1 0x40 DUP3 ADD SWAP1 POP SWAP2 SWAP1 POP JUMP JUMPDEST PUSH1 0x0 PUSH1 0x20 DUP3 ADD SWAP1 POP DUP2 DUP2 SUB PUSH1 0x0 DUP4 ADD MSTORE PUSH2 0x1B8F DUP2 PUSH2 0x1B53 JUMP JUMPDEST SWAP1 POP SWAP2 SWAP1 POP JUMP JUMPDEST PUSH32 0x4F776E61626C653A2063616C6C6572206973206E6F7420746865206F776E6572 PUSH1 0x0 DUP3 ADD MSTORE POP JUMP JUMPDEST PUSH1 0x0 PUSH2 0x1BCC PUSH1 0x20 DUP4 PUSH2 0x149A JUMP JUMPDEST SWAP2 POP PUSH2 0x1BD7 DUP3 PUSH2 0x1B96 JUMP JUMPDEST PUSH1 0x20 DUP3 ADD SWAP1 POP SWAP2 SWAP1 POP JUMP JUMPDEST PUSH1 0x0 PUSH1 0x20 DUP3 ADD SWAP1 POP DUP2 DUP2 SUB PUSH1 0x0 DUP4 ADD MSTORE PUSH2 0x1BFB DUP2 PUSH2 0x1BBF JUMP JUMPDEST SWAP1 POP SWAP2 SWAP1 POP JUMP INVALID LOG2 PUSH5 0x6970667358 0x22 SLT KECCAK256 0x2E DUP16 MLOAD 0xB1 TIMESTAMP 0x27 0xEF 0xCB 0xA6 TIMESTAMP EXTCODESIZE 0xD 0xDE 0xC8 0x5D PUSH27 0x919E266A5E80E008556E993A5C22810664736F6C63430008100033 "
				},
				"gasEstimates": {
					"creation": {
						"codeDepositCost": "1444800",
						"executionCost": "infinite",
						"totalCost": "infinite"
					},
					"external": {
						"WAVE()": "2495",
						"claimRewards(uint256[])": "infinite",
						"claimedRewards(uint256)": "infinite",
						"lockNFT(uint256[],address)": "infinite",
						"lockPeriod()": "2474",
						"owner()": "2566",
						"renounceOwnership()": "30487",
						"setLockPeriod(uint256)": "infinite",
						"tokenInfo(uint256)": "2952",
						"transferOwnership(address)": "30854",
						"unlockNFT(uint256[])": "infinite"
					},
					"internal": {
						"_rewardAmount(uint256)": "infinite"
					}
				},
				"methodIdentifiers": {
					"WAVE()": "c69d1923",
					"claimRewards(uint256[])": "5eac6239",
					"claimedRewards(uint256)": "20281a98",
					"lockNFT(uint256[],address)": "1902732e",
					"lockPeriod()": "3fd8b02f",
					"owner()": "8da5cb5b",
					"renounceOwnership()": "715018a6",
					"setLockPeriod(uint256)": "779972da",
					"tokenInfo(uint256)": "cc33c875",
					"transferOwnership(address)": "f2fde38b",
					"unlockNFT(uint256[])": "849a1e1d"
				}
			},
			"storageLayout": {
				"storage": [
					{
						"astId": 7,
						"contract": "contracts/Staking.sol:NFTStaking1",
						"label": "_owner",
						"offset": 0,
						"slot": "0",
						"type": "t_address"
					},
					{
						"astId": 123,
						"contract": "contracts/Staking.sol:NFTStaking1",
						"label": "_status",
						"offset": 0,
						"slot": "1",
						"type": "t_uint256"
					},
					{
						"astId": 614,
						"contract": "contracts/Staking.sol:NFTStaking1",
						"label": "lockPeriod",
						"offset": 0,
						"slot": "2",
						"type": "t_uint256"
					},
					{
						"astId": 628,
						"contract": "contracts/Staking.sol:NFTStaking1",
						"label": "lockInfo",
						"offset": 0,
						"slot": "3",
						"type": "t_mapping(t_uint256,t_struct(LockInfo)623_storage)"
					},
					{
						"astId": 645,
						"contract": "contracts/Staking.sol:NFTStaking1",
						"label": "nftInfo",
						"offset": 0,
						"slot": "4",
						"type": "t_mapping(t_contract(IERC721)268,t_struct(stakeNftInfo)639_storage)"
					},
					{
						"astId": 650,
						"contract": "contracts/Staking.sol:NFTStaking1",
						"label": "tokenInfo",
						"offset": 0,
						"slot": "5",
						"type": "t_mapping(t_uint256,t_struct(TokenInfo)631_storage)"
					},
					{
						"astId": 653,
						"contract": "contracts/Staking.sol:NFTStaking1",
						"label": "WAVE",
						"offset": 0,
						"slot": "6",
						"type": "t_uint256"
					}
				],
				"types": {
					"t_address": {
						"encoding": "inplace",
						"label": "address",
						"numberOfBytes": "20"
					},
					"t_bool": {
						"encoding": "inplace",
						"label": "bool",
						"numberOfBytes": "1"
					},
					"t_contract(IERC721)268": {
						"encoding": "inplace",
						"label": "contract IERC721",
						"numberOfBytes": "20"
					},
					"t_contract(IRewardsToken)1164": {
						"encoding": "inplace",
						"label": "contract IRewardsToken",
						"numberOfBytes": "20"
					},
					"t_mapping(t_contract(IERC721)268,t_struct(stakeNftInfo)639_storage)": {
						"encoding": "mapping",
						"key": "t_contract(IERC721)268",
						"label": "mapping(contract IERC721 => struct NFTStaking1.stakeNftInfo)",
						"numberOfBytes": "32",
						"value": "t_struct(stakeNftInfo)639_storage"
					},
					"t_mapping(t_uint256,t_struct(LockInfo)623_storage)": {
						"encoding": "mapping",
						"key": "t_uint256",
						"label": "mapping(uint256 => struct NFTStaking1.LockInfo)",
						"numberOfBytes": "32",
						"value": "t_struct(LockInfo)623_storage"
					},
					"t_mapping(t_uint256,t_struct(TokenInfo)631_storage)": {
						"encoding": "mapping",
						"key": "t_uint256",
						"label": "mapping(uint256 => struct NFTStaking1.TokenInfo)",
						"numberOfBytes": "32",
						"value": "t_struct(TokenInfo)631_storage"
					},
					"t_struct(LockInfo)623_storage": {
						"encoding": "inplace",
						"label": "struct NFTStaking1.LockInfo",
						"members": [
							{
								"astId": 616,
								"contract": "contracts/Staking.sol:NFTStaking1",
								"label": "owner",
								"offset": 0,
								"slot": "0",
								"type": "t_address"
							},
							{
								"astId": 618,
								"contract": "contracts/Staking.sol:NFTStaking1",
								"label": "lockedTime",
								"offset": 0,
								"slot": "1",
								"type": "t_uint256"
							},
							{
								"astId": 620,
								"contract": "contracts/Staking.sol:NFTStaking1",
								"label": "claimedRewards",
								"offset": 0,
								"slot": "2",
								"type": "t_uint256"
							},
							{
								"astId": 622,
								"contract": "contracts/Staking.sol:NFTStaking1",
								"label": "isUnlocked",
								"offset": 0,
								"slot": "3",
								"type": "t_bool"
							}
						],
						"numberOfBytes": "128"
					},
					"t_struct(TokenInfo)631_storage": {
						"encoding": "inplace",
						"label": "struct NFTStaking1.TokenInfo",
						"members": [
							{
								"astId": 630,
								"contract": "contracts/Staking.sol:NFTStaking1",
								"label": "owner",
								"offset": 0,
								"slot": "0",
								"type": "t_address"
							}
						],
						"numberOfBytes": "32"
					},
					"t_struct(stakeNftInfo)639_storage": {
						"encoding": "inplace",
						"label": "struct NFTStaking1.stakeNftInfo",
						"members": [
							{
								"astId": 634,
								"contract": "contracts/Staking.sol:NFTStaking1",
								"label": "rewardsToken",
								"offset": 0,
								"slot": "0",
								"type": "t_contract(IRewardsToken)1164"
							},
							{
								"astId": 636,
								"contract": "contracts/Staking.sol:NFTStaking1",
								"label": "rewardsPerWave",
								"offset": 0,
								"slot": "1",
								"type": "t_uint256"
							},
							{
								"astId": 638,
								"contract": "contracts/Staking.sol:NFTStaking1",
								"label": "rewardPercentage",
								"offset": 0,
								"slot": "2",
								"type": "t_uint256"
							}
						],
						"numberOfBytes": "96"
					},
					"t_uint256": {
						"encoding": "inplace",
						"label": "uint256",
						"numberOfBytes": "32"
					}
				}
			},
			"userdoc": {
				"kind": "user",
				"methods": {
					"WAVE()": {
						"notice": "CONSTANTS "
					}
				},
				"version": 1
			}
		}
	}
}