{
	"contracts/Staking.sol": {
		"NFTStaking1": {
			"abi": [
				{
					"inputs": [
						{
							"internalType": "uint256",
							"name": "_lockPeriod",
							"type": "uint256"
						},
						{
							"internalType": "uint256",
							"name": "_wave",
							"type": "uint256"
						}
					],
					"stateMutability": "nonpayable",
					"type": "constructor"
				},
				{
					"anonymous": false,
					"inputs": [
						{
							"indexed": false,
							"internalType": "uint256",
							"name": "lockPeriod",
							"type": "uint256"
						}
					],
					"name": "LockPeriodUpdated",
					"type": "event"
				},
				{
					"anonymous": false,
					"inputs": [
						{
							"indexed": true,
							"internalType": "address",
							"name": "owner",
							"type": "address"
						},
						{
							"indexed": false,
							"internalType": "uint256[]",
							"name": "tokenIds",
							"type": "uint256[]"
						}
					],
					"name": "NFTLocked",
					"type": "event"
				},
				{
					"anonymous": false,
					"inputs": [
						{
							"indexed": true,
							"internalType": "address",
							"name": "owner",
							"type": "address"
						},
						{
							"indexed": false,
							"internalType": "uint256[]",
							"name": "tokenIds",
							"type": "uint256[]"
						}
					],
					"name": "NFTUnLocked",
					"type": "event"
				},
				{
					"anonymous": false,
					"inputs": [
						{
							"indexed": true,
							"internalType": "address",
							"name": "previousOwner",
							"type": "address"
						},
						{
							"indexed": true,
							"internalType": "address",
							"name": "newOwner",
							"type": "address"
						}
					],
					"name": "OwnershipTransferred",
					"type": "event"
				},
				{
					"anonymous": false,
					"inputs": [
						{
							"indexed": true,
							"internalType": "address",
							"name": "owner",
							"type": "address"
						},
						{
							"indexed": false,
							"internalType": "uint256[]",
							"name": "tokenIds",
							"type": "uint256[]"
						},
						{
							"indexed": false,
							"internalType": "uint256",
							"name": "rewards",
							"type": "uint256"
						}
					],
					"name": "RewardsClaimed",
					"type": "event"
				},
				{
					"inputs": [],
					"name": "WAVE",
					"outputs": [
						{
							"internalType": "uint256",
							"name": "",
							"type": "uint256"
						}
					],
					"stateMutability": "view",
					"type": "function"
				},
				{
					"inputs": [
						{
							"internalType": "uint256[]",
							"name": "_tokenIds",
							"type": "uint256[]"
						},
						{
							"internalType": "contract IERC721",
							"name": "nftAddress",
							"type": "address"
						}
					],
					"name": "claimRewards",
					"outputs": [],
					"stateMutability": "nonpayable",
					"type": "function"
				},
				{
					"inputs": [
						{
							"internalType": "uint256",
							"name": "_tokenId",
							"type": "uint256"
						},
						{
							"internalType": "contract IERC721",
							"name": "nftAddress",
							"type": "address"
						}
					],
					"name": "claimedRewards",
					"outputs": [
						{
							"internalType": "uint256",
							"name": "",
							"type": "uint256"
						}
					],
					"stateMutability": "view",
					"type": "function"
				},
				{
					"inputs": [
						{
							"internalType": "contract IERC721",
							"name": "",
							"type": "address"
						},
						{
							"internalType": "uint256",
							"name": "",
							"type": "uint256"
						}
					],
					"name": "lockInfo",
					"outputs": [
						{
							"internalType": "address",
							"name": "owner",
							"type": "address"
						},
						{
							"internalType": "uint256",
							"name": "lockedTime",
							"type": "uint256"
						},
						{
							"internalType": "uint256",
							"name": "claimedRewards",
							"type": "uint256"
						},
						{
							"internalType": "bool",
							"name": "isUnlocked",
							"type": "bool"
						},
						{
							"internalType": "contract IERC721",
							"name": "contractAddress",
							"type": "address"
						}
					],
					"stateMutability": "view",
					"type": "function"
				},
				{
					"inputs": [
						{
							"internalType": "uint256[]",
							"name": "_tokenIds",
							"type": "uint256[]"
						},
						{
							"internalType": "contract IERC721",
							"name": "nftAddress",
							"type": "address"
						}
					],
					"name": "lockNFT",
					"outputs": [],
					"stateMutability": "nonpayable",
					"type": "function"
				},
				{
					"inputs": [],
					"name": "lockPeriod",
					"outputs": [
						{
							"internalType": "uint256",
							"name": "",
							"type": "uint256"
						}
					],
					"stateMutability": "view",
					"type": "function"
				},
				{
					"inputs": [
						{
							"internalType": "contract IERC721",
							"name": "",
							"type": "address"
						}
					],
					"name": "nftInfo",
					"outputs": [
						{
							"internalType": "contract IRewardsToken",
							"name": "rewardsToken",
							"type": "address"
						},
						{
							"internalType": "uint256",
							"name": "rewardsPerWave",
							"type": "uint256"
						},
						{
							"internalType": "uint256",
							"name": "rewardPercentage",
							"type": "uint256"
						}
					],
					"stateMutability": "view",
					"type": "function"
				},
				{
					"inputs": [],
					"name": "owner",
					"outputs": [
						{
							"internalType": "address",
							"name": "",
							"type": "address"
						}
					],
					"stateMutability": "view",
					"type": "function"
				},
				{
					"inputs": [],
					"name": "renounceOwnership",
					"outputs": [],
					"stateMutability": "nonpayable",
					"type": "function"
				},
				{
					"inputs": [
						{
							"internalType": "address[]",
							"name": "_stakeNFT",
							"type": "address[]"
						},
						{
							"internalType": "address[]",
							"name": "_rewardsToken",
							"type": "address[]"
						},
						{
							"internalType": "uint256[]",
							"name": "_rewardPerWave",
							"type": "uint256[]"
						},
						{
							"internalType": "uint256[]",
							"name": "_rewardPercentage",
							"type": "uint256[]"
						}
					],
					"name": "setLockPeriod",
					"outputs": [],
					"stateMutability": "nonpayable",
					"type": "function"
				},
				{
					"inputs": [
						{
							"internalType": "uint256",
							"name": "_lockPeriod",
							"type": "uint256"
						}
					],
					"name": "setLockPeriod",
					"outputs": [],
					"stateMutability": "nonpayable",
					"type": "function"
				},
				{
					"inputs": [
						{
							"internalType": "address",
							"name": "newOwner",
							"type": "address"
						}
					],
					"name": "transferOwnership",
					"outputs": [],
					"stateMutability": "nonpayable",
					"type": "function"
				},
				{
					"inputs": [
						{
							"internalType": "uint256[]",
							"name": "_tokenIds",
							"type": "uint256[]"
						},
						{
							"internalType": "contract IERC721",
							"name": "nftAddress",
							"type": "address"
						}
					],
					"name": "unlockNFT",
					"outputs": [],
					"stateMutability": "nonpayable",
					"type": "function"
				}
			],
			"devdoc": {
				"kind": "dev",
				"methods": {
					"claimRewards(uint256[],address)": {
						"details": "claim rewards",
						"params": {
							"_tokenIds": "token ids to unlock"
						}
					},
					"claimedRewards(uint256,address)": {
						"details": "get total claimed rewards for token id",
						"params": {
							"_tokenId": "token id to get claimed Rewards amount"
						}
					},
					"lockNFT(uint256[],address)": {
						"details": "lock NFT into the contract",
						"params": {
							"_tokenIds": "token ids to stake"
						}
					},
					"owner()": {
						"details": "Returns the address of the current owner."
					},
					"renounceOwnership()": {
						"details": "Leaves the contract without owner. It will not be possible to call `onlyOwner` functions anymore. Can only be called by the current owner. NOTE: Renouncing ownership will leave the contract without an owner, thereby removing any functionality that is only available to the owner."
					},
					"setLockPeriod(address[],address[],uint256[],uint256[])": {
						"details": "add the address NFT staking addresses and their corresponders",
						"params": {
							"_stakeNFT": ", _rewardsToken, _rewardPerWave"
						}
					},
					"setLockPeriod(uint256)": {
						"details": "update lock period",
						"params": {
							"_lockPeriod": "lock period to set"
						}
					},
					"transferOwnership(address)": {
						"details": "Transfers ownership of the contract to a new account (`newOwner`). Can only be called by the current owner."
					},
					"unlockNFT(uint256[],address)": {
						"details": "unlock NFT from the contract",
						"params": {
							"_tokenIds": "token ids to unlock"
						}
					}
				},
				"version": 1
			},
			"evm": {
				"assembly": "    /* \"contracts/Staking.sol\":412:7244  contract NFTStaking1 is Ownable, ReentrancyGuard {... */\n  mstore(0x40, 0x80)\n    /* \"contracts/Staking.sol\":1581:1785  constructor(... */\n  callvalue\n  dup1\n  iszero\n  tag_1\n  jumpi\n  0x00\n  dup1\n  revert\ntag_1:\n  pop\n  mload(0x40)\n  sub(codesize, bytecodeSize)\n  dup1\n  bytecodeSize\n  dup4\n  codecopy\n  dup2\n  dup2\n  add\n  0x40\n  mstore\n  dup2\n  add\n  swap1\n  tag_2\n  swap2\n  swap1\n  tag_3\n  jump\t// in\ntag_2:\n    /* \"@openzeppelin/contracts/access/Ownable.sol\":936:968  _transferOwnership(_msgSender()) */\n  tag_8\n    /* \"@openzeppelin/contracts/access/Ownable.sol\":955:967  _msgSender() */\n  tag_9\n    /* \"@openzeppelin/contracts/access/Ownable.sol\":955:965  _msgSender */\n  shl(0x20, tag_10)\n    /* \"@openzeppelin/contracts/access/Ownable.sol\":955:967  _msgSender() */\n  0x20\n  shr\n  jump\t// in\ntag_9:\n    /* \"@openzeppelin/contracts/access/Ownable.sol\":936:954  _transferOwnership */\n  shl(0x20, tag_11)\n    /* \"@openzeppelin/contracts/access/Ownable.sol\":936:968  _transferOwnership(_msgSender()) */\n  0x20\n  shr\n  jump\t// in\ntag_8:\n    /* \"@openzeppelin/contracts/security/ReentrancyGuard.sol\":1701:1702  1 */\n  0x01\n    /* \"@openzeppelin/contracts/security/ReentrancyGuard.sol\":1806:1813  _status */\n  dup1\n    /* \"@openzeppelin/contracts/security/ReentrancyGuard.sol\":1806:1828  _status = _NOT_ENTERED */\n  dup2\n  swap1\n  sstore\n  pop\n    /* \"contracts/Staking.sol\":1692:1693  0 */\n  0x00\n    /* \"contracts/Staking.sol\":1678:1689  _lockPeriod */\n  dup3\n    /* \"contracts/Staking.sol\":1678:1693  _lockPeriod > 0 */\n  gt\n    /* \"contracts/Staking.sol\":1670:1717  require(_lockPeriod > 0, \"Invalid lock period\") */\n  tag_14\n  jumpi\n  mload(0x40)\n  0x08c379a000000000000000000000000000000000000000000000000000000000\n  dup2\n  mstore\n  0x04\n  add\n  tag_15\n  swap1\n  tag_16\n  jump\t// in\ntag_15:\n  mload(0x40)\n  dup1\n  swap2\n  sub\n  swap1\n  revert\ntag_14:\n    /* \"contracts/Staking.sol\":1743:1754  _lockPeriod */\n  dup2\n    /* \"contracts/Staking.sol\":1730:1740  lockPeriod */\n  0x02\n    /* \"contracts/Staking.sol\":1730:1754  lockPeriod = _lockPeriod */\n  dup2\n  swap1\n  sstore\n  pop\n    /* \"contracts/Staking.sol\":1772:1777  _wave */\n  dup1\n    /* \"contracts/Staking.sol\":1765:1769  WAVE */\n  0x05\n    /* \"contracts/Staking.sol\":1765:1777  WAVE = _wave */\n  dup2\n  swap1\n  sstore\n  pop\n    /* \"contracts/Staking.sol\":1581:1785  constructor(... */\n  pop\n  pop\n    /* \"contracts/Staking.sol\":412:7244  contract NFTStaking1 is Ownable, ReentrancyGuard {... */\n  jump(tag_17)\n    /* \"@openzeppelin/contracts/utils/Context.sol\":640:736  function _msgSender() internal view virtual returns (address) {... */\ntag_10:\n    /* \"@openzeppelin/contracts/utils/Context.sol\":693:700  address */\n  0x00\n    /* \"@openzeppelin/contracts/utils/Context.sol\":719:729  msg.sender */\n  caller\n    /* \"@openzeppelin/contracts/utils/Context.sol\":712:729  return msg.sender */\n  swap1\n  pop\n    /* \"@openzeppelin/contracts/utils/Context.sol\":640:736  function _msgSender() internal view virtual returns (address) {... */\n  swap1\n  jump\t// out\n    /* \"@openzeppelin/contracts/access/Ownable.sol\":2433:2620  function _transferOwnership(address newOwner) internal virtual {... */\ntag_11:\n    /* \"@openzeppelin/contracts/access/Ownable.sol\":2506:2522  address oldOwner */\n  0x00\n    /* \"@openzeppelin/contracts/access/Ownable.sol\":2525:2531  _owner */\n  dup1\n  0x00\n  swap1\n  sload\n  swap1\n  0x0100\n  exp\n  swap1\n  div\n  0xffffffffffffffffffffffffffffffffffffffff\n  and\n    /* \"@openzeppelin/contracts/access/Ownable.sol\":2506:2531  address oldOwner = _owner */\n  swap1\n  pop\n    /* \"@openzeppelin/contracts/access/Ownable.sol\":2550:2558  newOwner */\n  dup2\n    /* \"@openzeppelin/contracts/access/Ownable.sol\":2541:2547  _owner */\n  0x00\n  dup1\n    /* \"@openzeppelin/contracts/access/Ownable.sol\":2541:2558  _owner = newOwner */\n  0x0100\n  exp\n  dup2\n  sload\n  dup2\n  0xffffffffffffffffffffffffffffffffffffffff\n  mul\n  not\n  and\n  swap1\n  dup4\n  0xffffffffffffffffffffffffffffffffffffffff\n  and\n  mul\n  or\n  swap1\n  sstore\n  pop\n    /* \"@openzeppelin/contracts/access/Ownable.sol\":2604:2612  newOwner */\n  dup2\n    /* \"@openzeppelin/contracts/access/Ownable.sol\":2573:2613  OwnershipTransferred(oldOwner, newOwner) */\n  0xffffffffffffffffffffffffffffffffffffffff\n  and\n    /* \"@openzeppelin/contracts/access/Ownable.sol\":2594:2602  oldOwner */\n  dup2\n    /* \"@openzeppelin/contracts/access/Ownable.sol\":2573:2613  OwnershipTransferred(oldOwner, newOwner) */\n  0xffffffffffffffffffffffffffffffffffffffff\n  and\n  0x8be0079c531659141344cd1fd0a4f28419497f9722a3daafe3b4186f6b6457e0\n  mload(0x40)\n  mload(0x40)\n  dup1\n  swap2\n  sub\n  swap1\n  log3\n    /* \"@openzeppelin/contracts/access/Ownable.sol\":2496:2620  {... */\n  pop\n    /* \"@openzeppelin/contracts/access/Ownable.sol\":2433:2620  function _transferOwnership(address newOwner) internal virtual {... */\n  pop\n  jump\t// out\n    /* \"#utility.yul\":88:205   */\ntag_21:\n    /* \"#utility.yul\":197:198   */\n  0x00\n    /* \"#utility.yul\":194:195   */\n  dup1\n    /* \"#utility.yul\":187:199   */\n  revert\n    /* \"#utility.yul\":334:411   */\ntag_23:\n    /* \"#utility.yul\":371:378   */\n  0x00\n    /* \"#utility.yul\":400:405   */\n  dup2\n    /* \"#utility.yul\":389:405   */\n  swap1\n  pop\n    /* \"#utility.yul\":334:411   */\n  swap2\n  swap1\n  pop\n  jump\t// out\n    /* \"#utility.yul\":417:539   */\ntag_24:\n    /* \"#utility.yul\":490:514   */\n  tag_35\n    /* \"#utility.yul\":508:513   */\n  dup2\n    /* \"#utility.yul\":490:514   */\n  tag_23\n  jump\t// in\ntag_35:\n    /* \"#utility.yul\":483:488   */\n  dup2\n    /* \"#utility.yul\":480:515   */\n  eq\n    /* \"#utility.yul\":470:533   */\n  tag_36\n  jumpi\n    /* \"#utility.yul\":529:530   */\n  0x00\n    /* \"#utility.yul\":526:527   */\n  dup1\n    /* \"#utility.yul\":519:531   */\n  revert\n    /* \"#utility.yul\":470:533   */\ntag_36:\n    /* \"#utility.yul\":417:539   */\n  pop\n  jump\t// out\n    /* \"#utility.yul\":545:688   */\ntag_25:\n    /* \"#utility.yul\":602:607   */\n  0x00\n    /* \"#utility.yul\":633:639   */\n  dup2\n    /* \"#utility.yul\":627:640   */\n  mload\n    /* \"#utility.yul\":618:640   */\n  swap1\n  pop\n    /* \"#utility.yul\":649:682   */\n  tag_38\n    /* \"#utility.yul\":676:681   */\n  dup2\n    /* \"#utility.yul\":649:682   */\n  tag_24\n  jump\t// in\ntag_38:\n    /* \"#utility.yul\":545:688   */\n  swap3\n  swap2\n  pop\n  pop\n  jump\t// out\n    /* \"#utility.yul\":694:1201   */\ntag_3:\n    /* \"#utility.yul\":773:779   */\n  0x00\n    /* \"#utility.yul\":781:787   */\n  dup1\n    /* \"#utility.yul\":830:832   */\n  0x40\n    /* \"#utility.yul\":818:827   */\n  dup4\n    /* \"#utility.yul\":809:816   */\n  dup6\n    /* \"#utility.yul\":805:828   */\n  sub\n    /* \"#utility.yul\":801:833   */\n  slt\n    /* \"#utility.yul\":798:917   */\n  iszero\n  tag_40\n  jumpi\n    /* \"#utility.yul\":836:915   */\n  tag_41\n  tag_21\n  jump\t// in\ntag_41:\n    /* \"#utility.yul\":798:917   */\ntag_40:\n    /* \"#utility.yul\":956:957   */\n  0x00\n    /* \"#utility.yul\":981:1045   */\n  tag_42\n    /* \"#utility.yul\":1037:1044   */\n  dup6\n    /* \"#utility.yul\":1028:1034   */\n  dup3\n    /* \"#utility.yul\":1017:1026   */\n  dup7\n    /* \"#utility.yul\":1013:1035   */\n  add\n    /* \"#utility.yul\":981:1045   */\n  tag_25\n  jump\t// in\ntag_42:\n    /* \"#utility.yul\":971:1045   */\n  swap3\n  pop\n    /* \"#utility.yul\":927:1055   */\n  pop\n    /* \"#utility.yul\":1094:1096   */\n  0x20\n    /* \"#utility.yul\":1120:1184   */\n  tag_43\n    /* \"#utility.yul\":1176:1183   */\n  dup6\n    /* \"#utility.yul\":1167:1173   */\n  dup3\n    /* \"#utility.yul\":1156:1165   */\n  dup7\n    /* \"#utility.yul\":1152:1174   */\n  add\n    /* \"#utility.yul\":1120:1184   */\n  tag_25\n  jump\t// in\ntag_43:\n    /* \"#utility.yul\":1110:1184   */\n  swap2\n  pop\n    /* \"#utility.yul\":1065:1194   */\n  pop\n    /* \"#utility.yul\":694:1201   */\n  swap3\n  pop\n  swap3\n  swap1\n  pop\n  jump\t// out\n    /* \"#utility.yul\":1207:1376   */\ntag_26:\n    /* \"#utility.yul\":1291:1302   */\n  0x00\n    /* \"#utility.yul\":1325:1331   */\n  dup3\n    /* \"#utility.yul\":1320:1323   */\n  dup3\n    /* \"#utility.yul\":1313:1332   */\n  mstore\n    /* \"#utility.yul\":1365:1369   */\n  0x20\n    /* \"#utility.yul\":1360:1363   */\n  dup3\n    /* \"#utility.yul\":1356:1370   */\n  add\n    /* \"#utility.yul\":1341:1370   */\n  swap1\n  pop\n    /* \"#utility.yul\":1207:1376   */\n  swap3\n  swap2\n  pop\n  pop\n  jump\t// out\n    /* \"#utility.yul\":1382:1551   */\ntag_27:\n    /* \"#utility.yul\":1522:1543   */\n  0x496e76616c6964206c6f636b20706572696f6400000000000000000000000000\n    /* \"#utility.yul\":1518:1519   */\n  0x00\n    /* \"#utility.yul\":1510:1516   */\n  dup3\n    /* \"#utility.yul\":1506:1520   */\n  add\n    /* \"#utility.yul\":1499:1544   */\n  mstore\n    /* \"#utility.yul\":1382:1551   */\n  pop\n  jump\t// out\n    /* \"#utility.yul\":1557:1923   */\ntag_28:\n    /* \"#utility.yul\":1699:1702   */\n  0x00\n    /* \"#utility.yul\":1720:1787   */\n  tag_47\n    /* \"#utility.yul\":1784:1786   */\n  0x13\n    /* \"#utility.yul\":1779:1782   */\n  dup4\n    /* \"#utility.yul\":1720:1787   */\n  tag_26\n  jump\t// in\ntag_47:\n    /* \"#utility.yul\":1713:1787   */\n  swap2\n  pop\n    /* \"#utility.yul\":1796:1889   */\n  tag_48\n    /* \"#utility.yul\":1885:1888   */\n  dup3\n    /* \"#utility.yul\":1796:1889   */\n  tag_27\n  jump\t// in\ntag_48:\n    /* \"#utility.yul\":1914:1916   */\n  0x20\n    /* \"#utility.yul\":1909:1912   */\n  dup3\n    /* \"#utility.yul\":1905:1917   */\n  add\n    /* \"#utility.yul\":1898:1917   */\n  swap1\n  pop\n    /* \"#utility.yul\":1557:1923   */\n  swap2\n  swap1\n  pop\n  jump\t// out\n    /* \"#utility.yul\":1929:2348   */\ntag_16:\n    /* \"#utility.yul\":2095:2099   */\n  0x00\n    /* \"#utility.yul\":2133:2135   */\n  0x20\n    /* \"#utility.yul\":2122:2131   */\n  dup3\n    /* \"#utility.yul\":2118:2136   */\n  add\n    /* \"#utility.yul\":2110:2136   */\n  swap1\n  pop\n    /* \"#utility.yul\":2182:2191   */\n  dup2\n    /* \"#utility.yul\":2176:2180   */\n  dup2\n    /* \"#utility.yul\":2172:2192   */\n  sub\n    /* \"#utility.yul\":2168:2169   */\n  0x00\n    /* \"#utility.yul\":2157:2166   */\n  dup4\n    /* \"#utility.yul\":2153:2170   */\n  add\n    /* \"#utility.yul\":2146:2193   */\n  mstore\n    /* \"#utility.yul\":2210:2341   */\n  tag_50\n    /* \"#utility.yul\":2336:2340   */\n  dup2\n    /* \"#utility.yul\":2210:2341   */\n  tag_28\n  jump\t// in\ntag_50:\n    /* \"#utility.yul\":2202:2341   */\n  swap1\n  pop\n    /* \"#utility.yul\":1929:2348   */\n  swap2\n  swap1\n  pop\n  jump\t// out\n    /* \"contracts/Staking.sol\":412:7244  contract NFTStaking1 is Ownable, ReentrancyGuard {... */\ntag_17:\n  dataSize(sub_0)\n  dup1\n  dataOffset(sub_0)\n  0x00\n  codecopy\n  0x00\n  return\nstop\n\nsub_0: assembly {\n        /* \"contracts/Staking.sol\":412:7244  contract NFTStaking1 is Ownable, ReentrancyGuard {... */\n      mstore(0x40, 0x80)\n      callvalue\n      dup1\n      iszero\n      tag_1\n      jumpi\n      0x00\n      dup1\n      revert\n    tag_1:\n      pop\n      jumpi(tag_2, lt(calldatasize, 0x04))\n      shr(0xe0, calldataload(0x00))\n      dup1\n      0x8da5cb5b\n      gt\n      tag_16\n      jumpi\n      dup1\n      0xb33068c4\n      gt\n      tag_17\n      jumpi\n      dup1\n      0xb33068c4\n      eq\n      tag_12\n      jumpi\n      dup1\n      0xc69d1923\n      eq\n      tag_13\n      jumpi\n      dup1\n      0xe9545b92\n      eq\n      tag_14\n      jumpi\n      dup1\n      0xf2fde38b\n      eq\n      tag_15\n      jumpi\n      jump(tag_2)\n    tag_17:\n      dup1\n      0x8da5cb5b\n      eq\n      tag_9\n      jumpi\n      dup1\n      0x9f3625f0\n      eq\n      tag_10\n      jumpi\n      dup1\n      0xb2520a7c\n      eq\n      tag_11\n      jumpi\n      jump(tag_2)\n    tag_16:\n      dup1\n      0x0520537f\n      eq\n      tag_3\n      jumpi\n      dup1\n      0x108a9d9e\n      eq\n      tag_4\n      jumpi\n      dup1\n      0x1902732e\n      eq\n      tag_5\n      jumpi\n      dup1\n      0x3fd8b02f\n      eq\n      tag_6\n      jumpi\n      dup1\n      0x715018a6\n      eq\n      tag_7\n      jumpi\n      dup1\n      0x779972da\n      eq\n      tag_8\n      jumpi\n    tag_2:\n      0x00\n      dup1\n      revert\n        /* \"contracts/Staking.sol\":5666:6666  function claimRewards(uint256[] calldata _tokenIds,IERC721 nftAddress) external notContract {... */\n    tag_3:\n      tag_18\n      0x04\n      dup1\n      calldatasize\n      sub\n      dup2\n      add\n      swap1\n      tag_19\n      swap2\n      swap1\n      tag_20\n      jump\t// in\n    tag_19:\n      tag_21\n      jump\t// in\n    tag_18:\n      stop\n        /* \"contracts/Staking.sol\":2193:2969  function setLockPeriod(... */\n    tag_4:\n      tag_22\n      0x04\n      dup1\n      calldatasize\n      sub\n      dup2\n      add\n      swap1\n      tag_23\n      swap2\n      swap1\n      tag_24\n      jump\t// in\n    tag_23:\n      tag_25\n      jump\t// in\n    tag_22:\n      stop\n        /* \"contracts/Staking.sol\":3789:4380  function lockNFT(uint256[] calldata  _tokenIds, IERC721 nftAddress ) external notContract nonReentrant {... */\n    tag_5:\n      tag_26\n      0x04\n      dup1\n      calldatasize\n      sub\n      dup2\n      add\n      swap1\n      tag_27\n      swap2\n      swap1\n      tag_20\n      jump\t// in\n    tag_27:\n      tag_28\n      jump\t// in\n    tag_26:\n      stop\n        /* \"contracts/Staking.sol\":502:527  uint256 public lockPeriod */\n    tag_6:\n      tag_29\n      tag_30\n      jump\t// in\n    tag_29:\n      mload(0x40)\n      tag_31\n      swap2\n      swap1\n      tag_32\n      jump\t// in\n    tag_31:\n      mload(0x40)\n      dup1\n      swap2\n      sub\n      swap1\n      return\n        /* \"@openzeppelin/contracts/access/Ownable.sol\":1831:1932  function renounceOwnership() public virtual onlyOwner {... */\n    tag_7:\n      tag_33\n      tag_34\n      jump\t// in\n    tag_33:\n      stop\n        /* \"contracts/Staking.sol\":3093:3306  function setLockPeriod(uint256 _lockPeriod) external onlyOwner {... */\n    tag_8:\n      tag_35\n      0x04\n      dup1\n      calldatasize\n      sub\n      dup2\n      add\n      swap1\n      tag_36\n      swap2\n      swap1\n      tag_37\n      jump\t// in\n    tag_36:\n      tag_38\n      jump\t// in\n    tag_35:\n      stop\n        /* \"@openzeppelin/contracts/access/Ownable.sol\":1201:1286  function owner() public view virtual returns (address) {... */\n    tag_9:\n      tag_39\n      tag_40\n      jump\t// in\n    tag_39:\n      mload(0x40)\n      tag_41\n      swap2\n      swap1\n      tag_42\n      jump\t// in\n    tag_41:\n      mload(0x40)\n      dup1\n      swap2\n      sub\n      swap1\n      return\n        /* \"contracts/Staking.sol\":4493:5568  function unlockNFT(uint256[] calldata _tokenIds, IERC721 nftAddress) external notContract nonReentrant {... */\n    tag_10:\n      tag_43\n      0x04\n      dup1\n      calldatasize\n      sub\n      dup2\n      add\n      swap1\n      tag_44\n      swap2\n      swap1\n      tag_20\n      jump\t// in\n    tag_44:\n      tag_45\n      jump\t// in\n    tag_43:\n      stop\n        /* \"contracts/Staking.sol\":770:834  mapping(IERC721 => mapping(uint256 => LockInfo)) public lockInfo */\n    tag_11:\n      tag_46\n      0x04\n      dup1\n      calldatasize\n      sub\n      dup2\n      add\n      swap1\n      tag_47\n      swap2\n      swap1\n      tag_48\n      jump\t// in\n    tag_47:\n      tag_49\n      jump\t// in\n    tag_46:\n      mload(0x40)\n      tag_50\n      swap6\n      swap5\n      swap4\n      swap3\n      swap2\n      swap1\n      tag_51\n      jump\t// in\n    tag_50:\n      mload(0x40)\n      dup1\n      swap2\n      sub\n      swap1\n      return\n        /* \"contracts/Staking.sol\":3474:3648  function claimedRewards(uint256 _tokenId, IERC721 nftAddress) external view returns (uint256) {... */\n    tag_12:\n      tag_52\n      0x04\n      dup1\n      calldatasize\n      sub\n      dup2\n      add\n      swap1\n      tag_53\n      swap2\n      swap1\n      tag_54\n      jump\t// in\n    tag_53:\n      tag_55\n      jump\t// in\n    tag_52:\n      mload(0x40)\n      tag_56\n      swap2\n      swap1\n      tag_32\n      jump\t// in\n    tag_56:\n      mload(0x40)\n      dup1\n      swap2\n      sub\n      swap1\n      return\n        /* \"contracts/Staking.sol\":1099:1118  uint256 public WAVE */\n    tag_13:\n      tag_57\n      tag_58\n      jump\t// in\n    tag_57:\n      mload(0x40)\n      tag_59\n      swap2\n      swap1\n      tag_32\n      jump\t// in\n    tag_59:\n      mload(0x40)\n      dup1\n      swap2\n      sub\n      swap1\n      return\n        /* \"contracts/Staking.sol\":1016:1063  mapping(IERC721 => stakeNftInfo) public nftInfo */\n    tag_14:\n      tag_60\n      0x04\n      dup1\n      calldatasize\n      sub\n      dup2\n      add\n      swap1\n      tag_61\n      swap2\n      swap1\n      tag_62\n      jump\t// in\n    tag_61:\n      tag_63\n      jump\t// in\n    tag_60:\n      mload(0x40)\n      tag_64\n      swap4\n      swap3\n      swap2\n      swap1\n      tag_65\n      jump\t// in\n    tag_64:\n      mload(0x40)\n      dup1\n      swap2\n      sub\n      swap1\n      return\n        /* \"@openzeppelin/contracts/access/Ownable.sol\":2081:2279  function transferOwnership(address newOwner) public virtual onlyOwner {... */\n    tag_15:\n      tag_66\n      0x04\n      dup1\n      calldatasize\n      sub\n      dup2\n      add\n      swap1\n      tag_67\n      swap2\n      swap1\n      tag_68\n      jump\t// in\n    tag_67:\n      tag_69\n      jump\t// in\n    tag_66:\n      stop\n        /* \"contracts/Staking.sol\":5666:6666  function claimRewards(uint256[] calldata _tokenIds,IERC721 nftAddress) external notContract {... */\n    tag_21:\n        /* \"contracts/Staking.sol\":1858:1890  address(msg.sender).isContract() */\n      tag_71\n        /* \"contracts/Staking.sol\":1866:1876  msg.sender */\n      caller\n        /* \"contracts/Staking.sol\":1858:1888  address(msg.sender).isContract */\n      0xffffffffffffffffffffffffffffffffffffffff\n      and\n      tag_72\n        /* \"contracts/Staking.sol\":1858:1890  address(msg.sender).isContract() */\n      jump\t// in\n    tag_71:\n        /* \"contracts/Staking.sol\":1857:1890  !address(msg.sender).isContract() */\n      iszero\n        /* \"contracts/Staking.sol\":1849:1915  require(!address(msg.sender).isContract(), \"Contract not allowed\") */\n      tag_73\n      jumpi\n      mload(0x40)\n      0x08c379a000000000000000000000000000000000000000000000000000000000\n      dup2\n      mstore\n      0x04\n      add\n      tag_74\n      swap1\n      tag_75\n      jump\t// in\n    tag_74:\n      mload(0x40)\n      dup1\n      swap2\n      sub\n      swap1\n      revert\n    tag_73:\n        /* \"contracts/Staking.sol\":1948:1957  tx.origin */\n      origin\n        /* \"contracts/Staking.sol\":1934:1957  msg.sender == tx.origin */\n      0xffffffffffffffffffffffffffffffffffffffff\n      and\n        /* \"contracts/Staking.sol\":1934:1944  msg.sender */\n      caller\n        /* \"contracts/Staking.sol\":1934:1957  msg.sender == tx.origin */\n      0xffffffffffffffffffffffffffffffffffffffff\n      and\n      eq\n        /* \"contracts/Staking.sol\":1926:1988  require(msg.sender == tx.origin, \"Proxy contract not allowed\") */\n      tag_76\n      jumpi\n      mload(0x40)\n      0x08c379a000000000000000000000000000000000000000000000000000000000\n      dup2\n      mstore\n      0x04\n      add\n      tag_77\n      swap1\n      tag_78\n      jump\t// in\n    tag_77:\n      mload(0x40)\n      dup1\n      swap2\n      sub\n      swap1\n      revert\n    tag_76:\n        /* \"contracts/Staking.sol\":5796:5797  0 */\n      0x00\n        /* \"contracts/Staking.sol\":5777:5786  _tokenIds */\n      dup4\n      dup4\n        /* \"contracts/Staking.sol\":5777:5793  _tokenIds.length */\n      swap1\n      pop\n        /* \"contracts/Staking.sol\":5777:5797  _tokenIds.length > 0 */\n      gt\n        /* \"contracts/Staking.sol\":5769:5811  require(_tokenIds.length > 0, \"No tokens\") */\n      tag_80\n      jumpi\n      mload(0x40)\n      0x08c379a000000000000000000000000000000000000000000000000000000000\n      dup2\n      mstore\n      0x04\n      add\n      tag_81\n      swap1\n      tag_82\n      jump\t// in\n    tag_81:\n      mload(0x40)\n      dup1\n      swap2\n      sub\n      swap1\n      revert\n    tag_80:\n        /* \"contracts/Staking.sol\":5824:5844  uint256 totalRewards */\n      0x00\n        /* \"contracts/Staking.sol\":5860:5869  uint256 i */\n      dup1\n        /* \"contracts/Staking.sol\":5872:5873  0 */\n      0x00\n        /* \"contracts/Staking.sol\":5860:5873  uint256 i = 0 */\n      swap1\n      pop\n        /* \"contracts/Staking.sol\":5855:6590  for (uint256 i = 0; i < _tokenIds.length; i++) {... */\n    tag_83:\n        /* \"contracts/Staking.sol\":5879:5888  _tokenIds */\n      dup5\n      dup5\n        /* \"contracts/Staking.sol\":5879:5895  _tokenIds.length */\n      swap1\n      pop\n        /* \"contracts/Staking.sol\":5875:5876  i */\n      dup2\n        /* \"contracts/Staking.sol\":5875:5895  i < _tokenIds.length */\n      lt\n        /* \"contracts/Staking.sol\":5855:6590  for (uint256 i = 0; i < _tokenIds.length; i++) {... */\n      iszero\n      tag_84\n      jumpi\n        /* \"contracts/Staking.sol\":5917:5937  LockInfo memory info */\n      0x00\n        /* \"contracts/Staking.sol\":5940:5948  lockInfo */\n      0x03\n        /* \"contracts/Staking.sol\":5940:5969  lockInfo[IERC721(nftAddress)] */\n      0x00\n        /* \"contracts/Staking.sol\":5957:5967  nftAddress */\n      dup6\n        /* \"contracts/Staking.sol\":5940:5969  lockInfo[IERC721(nftAddress)] */\n      0xffffffffffffffffffffffffffffffffffffffff\n      and\n      0xffffffffffffffffffffffffffffffffffffffff\n      and\n      dup2\n      mstore\n      0x20\n      add\n      swap1\n      dup2\n      mstore\n      0x20\n      add\n      0x00\n      keccak256\n        /* \"contracts/Staking.sol\":5940:5983  lockInfo[IERC721(nftAddress)][_tokenIds[i]] */\n      0x00\n        /* \"contracts/Staking.sol\":5970:5979  _tokenIds */\n      dup8\n      dup8\n        /* \"contracts/Staking.sol\":5980:5981  i */\n      dup6\n        /* \"contracts/Staking.sol\":5970:5982  _tokenIds[i] */\n      dup2\n      dup2\n      lt\n      tag_86\n      jumpi\n      tag_87\n      tag_88\n      jump\t// in\n    tag_87:\n    tag_86:\n      swap1\n      pop\n      0x20\n      mul\n      add\n      calldataload\n        /* \"contracts/Staking.sol\":5940:5983  lockInfo[IERC721(nftAddress)][_tokenIds[i]] */\n      dup2\n      mstore\n      0x20\n      add\n      swap1\n      dup2\n      mstore\n      0x20\n      add\n      0x00\n      keccak256\n        /* \"contracts/Staking.sol\":5917:5983  LockInfo memory info = lockInfo[IERC721(nftAddress)][_tokenIds[i]] */\n      mload(0x40)\n      dup1\n      0xa0\n      add\n      0x40\n      mstore\n      swap1\n      dup2\n      0x00\n      dup3\n      add\n      0x00\n      swap1\n      sload\n      swap1\n      0x0100\n      exp\n      swap1\n      div\n      0xffffffffffffffffffffffffffffffffffffffff\n      and\n      0xffffffffffffffffffffffffffffffffffffffff\n      and\n      0xffffffffffffffffffffffffffffffffffffffff\n      and\n      dup2\n      mstore\n      0x20\n      add\n      0x01\n      dup3\n      add\n      sload\n      dup2\n      mstore\n      0x20\n      add\n      0x02\n      dup3\n      add\n      sload\n      dup2\n      mstore\n      0x20\n      add\n      0x03\n      dup3\n      add\n      0x00\n      swap1\n      sload\n      swap1\n      0x0100\n      exp\n      swap1\n      div\n      0xff\n      and\n      iszero\n      iszero\n      iszero\n      iszero\n      dup2\n      mstore\n      0x20\n      add\n      0x03\n      dup3\n      add\n      0x01\n      swap1\n      sload\n      swap1\n      0x0100\n      exp\n      swap1\n      div\n      0xffffffffffffffffffffffffffffffffffffffff\n      and\n      0xffffffffffffffffffffffffffffffffffffffff\n      and\n      0xffffffffffffffffffffffffffffffffffffffff\n      and\n      dup2\n      mstore\n      pop\n      pop\n      swap1\n      pop\n        /* \"contracts/Staking.sol\":6020:6030  msg.sender */\n      caller\n        /* \"contracts/Staking.sol\":6006:6030  info.owner == msg.sender */\n      0xffffffffffffffffffffffffffffffffffffffff\n      and\n        /* \"contracts/Staking.sol\":6006:6010  info */\n      dup2\n        /* \"contracts/Staking.sol\":6006:6016  info.owner */\n      0x00\n      add\n      mload\n        /* \"contracts/Staking.sol\":6006:6030  info.owner == msg.sender */\n      0xffffffffffffffffffffffffffffffffffffffff\n      and\n      eq\n        /* \"contracts/Staking.sol\":5998:6052  require(info.owner == msg.sender, \"Not a token owner\") */\n      tag_89\n      jumpi\n      mload(0x40)\n      0x08c379a000000000000000000000000000000000000000000000000000000000\n      dup2\n      mstore\n      0x04\n      add\n      tag_90\n      swap1\n      tag_91\n      jump\t// in\n    tag_90:\n      mload(0x40)\n      dup1\n      swap2\n      sub\n      swap1\n      revert\n    tag_89:\n        /* \"contracts/Staking.sol\":6106:6121  block.timestamp */\n      timestamp\n        /* \"contracts/Staking.sol\":6093:6103  lockPeriod */\n      sload(0x02)\n        /* \"contracts/Staking.sol\":6075:6079  info */\n      dup3\n        /* \"contracts/Staking.sol\":6075:6090  info.lockedTime */\n      0x20\n      add\n      mload\n        /* \"contracts/Staking.sol\":6075:6103  info.lockedTime + lockPeriod */\n      tag_92\n      swap2\n      swap1\n      tag_93\n      jump\t// in\n    tag_92:\n        /* \"contracts/Staking.sol\":6075:6121  info.lockedTime + lockPeriod < block.timestamp */\n      lt\n        /* \"contracts/Staking.sol\":6067:6147  require(info.lockedTime + lockPeriod < block.timestamp, \"Not able to claim yet\") */\n      tag_94\n      jumpi\n      mload(0x40)\n      0x08c379a000000000000000000000000000000000000000000000000000000000\n      dup2\n      mstore\n      0x04\n      add\n      tag_95\n      swap1\n      tag_96\n      jump\t// in\n    tag_95:\n      mload(0x40)\n      dup1\n      swap2\n      sub\n      swap1\n      revert\n    tag_94:\n        /* \"contracts/Staking.sol\":6171:6175  info */\n      dup1\n        /* \"contracts/Staking.sol\":6171:6186  info.isUnlocked */\n      0x60\n      add\n      mload\n        /* \"contracts/Staking.sol\":6170:6186  !info.isUnlocked */\n      iszero\n        /* \"contracts/Staking.sol\":6162:6207  require(!info.isUnlocked, \"Already unlocked\") */\n      tag_97\n      jumpi\n      mload(0x40)\n      0x08c379a000000000000000000000000000000000000000000000000000000000\n      dup2\n      mstore\n      0x04\n      add\n      tag_98\n      swap1\n      tag_99\n      jump\t// in\n    tag_98:\n      mload(0x40)\n      dup1\n      swap2\n      sub\n      swap1\n      revert\n    tag_97:\n        /* \"contracts/Staking.sol\":6224:6243  uint256 totalAmount */\n      0x00\n        /* \"contracts/Staking.sol\":6246:6285  _rewardAmount(_tokenIds[i], nftAddress) */\n      tag_100\n        /* \"contracts/Staking.sol\":6260:6269  _tokenIds */\n      dup8\n      dup8\n        /* \"contracts/Staking.sol\":6270:6271  i */\n      dup6\n        /* \"contracts/Staking.sol\":6260:6272  _tokenIds[i] */\n      dup2\n      dup2\n      lt\n      tag_101\n      jumpi\n      tag_102\n      tag_88\n      jump\t// in\n    tag_102:\n    tag_101:\n      swap1\n      pop\n      0x20\n      mul\n      add\n      calldataload\n        /* \"contracts/Staking.sol\":6274:6284  nftAddress */\n      dup7\n        /* \"contracts/Staking.sol\":6246:6259  _rewardAmount */\n      tag_103\n        /* \"contracts/Staking.sol\":6246:6285  _rewardAmount(_tokenIds[i], nftAddress) */\n      jump\t// in\n    tag_100:\n        /* \"contracts/Staking.sol\":6224:6285  uint256 totalAmount = _rewardAmount(_tokenIds[i], nftAddress) */\n      swap1\n      pop\n        /* \"contracts/Staking.sol\":6300:6324  uint256 unclaminedAmount */\n      0x00\n        /* \"contracts/Staking.sol\":6341:6345  info */\n      dup3\n        /* \"contracts/Staking.sol\":6341:6360  info.claimedRewards */\n      0x40\n      add\n      mload\n        /* \"contracts/Staking.sol\":6327:6338  totalAmount */\n      dup3\n        /* \"contracts/Staking.sol\":6327:6360  totalAmount - info.claimedRewards */\n      tag_104\n      swap2\n      swap1\n      tag_105\n      jump\t// in\n    tag_104:\n        /* \"contracts/Staking.sol\":6300:6360  uint256 unclaminedAmount = totalAmount - info.claimedRewards */\n      swap1\n      pop\n        /* \"contracts/Staking.sol\":6375:6382  nftInfo */\n      0x04\n        /* \"contracts/Staking.sol\":6375:6394  nftInfo[nftAddress] */\n      0x00\n        /* \"contracts/Staking.sol\":6383:6393  nftAddress */\n      dup8\n        /* \"contracts/Staking.sol\":6375:6394  nftInfo[nftAddress] */\n      0xffffffffffffffffffffffffffffffffffffffff\n      and\n      0xffffffffffffffffffffffffffffffffffffffff\n      and\n      dup2\n      mstore\n      0x20\n      add\n      swap1\n      dup2\n      mstore\n      0x20\n      add\n      0x00\n      keccak256\n        /* \"contracts/Staking.sol\":6375:6407  nftInfo[nftAddress].rewardsToken */\n      0x00\n      add\n      0x00\n      swap1\n      sload\n      swap1\n      0x0100\n      exp\n      swap1\n      div\n      0xffffffffffffffffffffffffffffffffffffffff\n      and\n        /* \"contracts/Staking.sol\":6375:6412  nftInfo[nftAddress].rewardsToken.mint */\n      0xffffffffffffffffffffffffffffffffffffffff\n      and\n      0x40c10f19\n        /* \"contracts/Staking.sol\":6413:6423  msg.sender */\n      caller\n        /* \"contracts/Staking.sol\":6425:6441  unclaminedAmount */\n      dup4\n        /* \"contracts/Staking.sol\":6375:6442  nftInfo[nftAddress].rewardsToken.mint(msg.sender, unclaminedAmount) */\n      mload(0x40)\n      dup4\n      0xffffffff\n      and\n      0xe0\n      shl\n      dup2\n      mstore\n      0x04\n      add\n      tag_106\n      swap3\n      swap2\n      swap1\n      tag_107\n      jump\t// in\n    tag_106:\n      0x00\n      mload(0x40)\n      dup1\n      dup4\n      sub\n      dup2\n      0x00\n      dup8\n      dup1\n      extcodesize\n      iszero\n      dup1\n      iszero\n      tag_108\n      jumpi\n      0x00\n      dup1\n      revert\n    tag_108:\n      pop\n      gas\n      call\n      iszero\n      dup1\n      iszero\n      tag_110\n      jumpi\n      returndatasize\n      0x00\n      dup1\n      returndatacopy\n      revert(0x00, returndatasize)\n    tag_110:\n      pop\n      pop\n      pop\n      pop\n        /* \"contracts/Staking.sol\":6473:6489  unclaminedAmount */\n      dup1\n        /* \"contracts/Staking.sol\":6457:6489  totalRewards += unclaminedAmount */\n      dup6\n      tag_111\n      swap2\n      swap1\n      tag_93\n      jump\t// in\n    tag_111:\n      swap5\n      pop\n        /* \"contracts/Staking.sol\":6567:6578  totalAmount */\n      dup2\n        /* \"contracts/Staking.sol\":6506:6514  lockInfo */\n      0x03\n        /* \"contracts/Staking.sol\":6506:6535  lockInfo[IERC721(nftAddress)] */\n      0x00\n        /* \"contracts/Staking.sol\":6523:6533  nftAddress */\n      dup9\n        /* \"contracts/Staking.sol\":6506:6535  lockInfo[IERC721(nftAddress)] */\n      0xffffffffffffffffffffffffffffffffffffffff\n      and\n      0xffffffffffffffffffffffffffffffffffffffff\n      and\n      dup2\n      mstore\n      0x20\n      add\n      swap1\n      dup2\n      mstore\n      0x20\n      add\n      0x00\n      keccak256\n        /* \"contracts/Staking.sol\":6506:6549  lockInfo[IERC721(nftAddress)][_tokenIds[i]] */\n      0x00\n        /* \"contracts/Staking.sol\":6536:6545  _tokenIds */\n      dup11\n      dup11\n        /* \"contracts/Staking.sol\":6546:6547  i */\n      dup9\n        /* \"contracts/Staking.sol\":6536:6548  _tokenIds[i] */\n      dup2\n      dup2\n      lt\n      tag_112\n      jumpi\n      tag_113\n      tag_88\n      jump\t// in\n    tag_113:\n    tag_112:\n      swap1\n      pop\n      0x20\n      mul\n      add\n      calldataload\n        /* \"contracts/Staking.sol\":6506:6549  lockInfo[IERC721(nftAddress)][_tokenIds[i]] */\n      dup2\n      mstore\n      0x20\n      add\n      swap1\n      dup2\n      mstore\n      0x20\n      add\n      0x00\n      keccak256\n        /* \"contracts/Staking.sol\":6506:6564  lockInfo[IERC721(nftAddress)][_tokenIds[i]].claimedRewards */\n      0x02\n      add\n        /* \"contracts/Staking.sol\":6506:6578  lockInfo[IERC721(nftAddress)][_tokenIds[i]].claimedRewards = totalAmount */\n      dup2\n      swap1\n      sstore\n      pop\n        /* \"contracts/Staking.sol\":5902:6590  {... */\n      pop\n      pop\n      pop\n        /* \"contracts/Staking.sol\":5897:5900  i++ */\n      dup1\n      dup1\n      tag_114\n      swap1\n      tag_115\n      jump\t// in\n    tag_114:\n      swap2\n      pop\n      pop\n        /* \"contracts/Staking.sol\":5855:6590  for (uint256 i = 0; i < _tokenIds.length; i++) {... */\n      jump(tag_83)\n    tag_84:\n      pop\n        /* \"contracts/Staking.sol\":6622:6632  msg.sender */\n      caller\n        /* \"contracts/Staking.sol\":6607:6658  RewardsClaimed(msg.sender, _tokenIds, totalRewards) */\n      0xffffffffffffffffffffffffffffffffffffffff\n      and\n      0x37826be3c26dbad83731f4b985f22fa9ef86b6d1974cd77208332b7f1f283c0c\n        /* \"contracts/Staking.sol\":6634:6643  _tokenIds */\n      dup6\n      dup6\n        /* \"contracts/Staking.sol\":6645:6657  totalRewards */\n      dup5\n        /* \"contracts/Staking.sol\":6607:6658  RewardsClaimed(msg.sender, _tokenIds, totalRewards) */\n      mload(0x40)\n      tag_116\n      swap4\n      swap3\n      swap2\n      swap1\n      tag_117\n      jump\t// in\n    tag_116:\n      mload(0x40)\n      dup1\n      swap2\n      sub\n      swap1\n      log2\n        /* \"contracts/Staking.sol\":5758:6666  {... */\n      pop\n        /* \"contracts/Staking.sol\":5666:6666  function claimRewards(uint256[] calldata _tokenIds,IERC721 nftAddress) external notContract {... */\n      pop\n      pop\n      pop\n      jump\t// out\n        /* \"contracts/Staking.sol\":2193:2969  function setLockPeriod(... */\n    tag_25:\n        /* \"@openzeppelin/contracts/access/Ownable.sol\":1094:1107  _checkOwner() */\n      tag_119\n        /* \"@openzeppelin/contracts/access/Ownable.sol\":1094:1105  _checkOwner */\n      tag_120\n        /* \"@openzeppelin/contracts/access/Ownable.sol\":1094:1107  _checkOwner() */\n      jump\t// in\n    tag_119:\n        /* \"contracts/Staking.sol\":2656:2662  uint i */\n      0x00\n        /* \"contracts/Staking.sol\":2651:2962  for (uint i = 0; i < _stakeNFT.length; i++) {... */\n    tag_122:\n        /* \"contracts/Staking.sol\":2672:2681  _stakeNFT */\n      dup5\n        /* \"contracts/Staking.sol\":2672:2688  _stakeNFT.length */\n      mload\n        /* \"contracts/Staking.sol\":2668:2669  i */\n      dup2\n        /* \"contracts/Staking.sol\":2668:2688  i < _stakeNFT.length */\n      lt\n        /* \"contracts/Staking.sol\":2651:2962  for (uint i = 0; i < _stakeNFT.length; i++) {... */\n      iszero\n      tag_123\n      jumpi\n        /* \"contracts/Staking.sol\":2772:2785  _rewardsToken */\n      dup4\n        /* \"contracts/Staking.sol\":2786:2787  i */\n      dup2\n        /* \"contracts/Staking.sol\":2772:2788  _rewardsToken[i] */\n      dup2\n      mload\n      dup2\n      lt\n      tag_125\n      jumpi\n      tag_126\n      tag_88\n      jump\t// in\n    tag_126:\n    tag_125:\n      0x20\n      mul\n      0x20\n      add\n      add\n      mload\n        /* \"contracts/Staking.sol\":2712:2719  nftInfo */\n      0x04\n        /* \"contracts/Staking.sol\":2712:2742  nftInfo[IERC721(_stakeNFT[i])] */\n      0x00\n        /* \"contracts/Staking.sol\":2728:2737  _stakeNFT */\n      dup8\n        /* \"contracts/Staking.sol\":2738:2739  i */\n      dup5\n        /* \"contracts/Staking.sol\":2728:2740  _stakeNFT[i] */\n      dup2\n      mload\n      dup2\n      lt\n      tag_127\n      jumpi\n      tag_128\n      tag_88\n      jump\t// in\n    tag_128:\n    tag_127:\n      0x20\n      mul\n      0x20\n      add\n      add\n      mload\n        /* \"contracts/Staking.sol\":2712:2742  nftInfo[IERC721(_stakeNFT[i])] */\n      0xffffffffffffffffffffffffffffffffffffffff\n      and\n      0xffffffffffffffffffffffffffffffffffffffff\n      and\n      dup2\n      mstore\n      0x20\n      add\n      swap1\n      dup2\n      mstore\n      0x20\n      add\n      0x00\n      keccak256\n        /* \"contracts/Staking.sol\":2712:2755  nftInfo[IERC721(_stakeNFT[i])].rewardsToken */\n      0x00\n      add\n      0x00\n        /* \"contracts/Staking.sol\":2712:2789  nftInfo[IERC721(_stakeNFT[i])].rewardsToken = IRewardsToken(_rewardsToken[i]) */\n      0x0100\n      exp\n      dup2\n      sload\n      dup2\n      0xffffffffffffffffffffffffffffffffffffffff\n      mul\n      not\n      and\n      swap1\n      dup4\n      0xffffffffffffffffffffffffffffffffffffffff\n      and\n      mul\n      or\n      swap1\n      sstore\n      pop\n        /* \"contracts/Staking.sol\":2852:2866  _rewardPerWave */\n      dup3\n        /* \"contracts/Staking.sol\":2867:2868  i */\n      dup2\n        /* \"contracts/Staking.sol\":2852:2869  _rewardPerWave[i] */\n      dup2\n      mload\n      dup2\n      lt\n      tag_129\n      jumpi\n      tag_130\n      tag_88\n      jump\t// in\n    tag_130:\n    tag_129:\n      0x20\n      mul\n      0x20\n      add\n      add\n      mload\n        /* \"contracts/Staking.sol\":2804:2811  nftInfo */\n      0x04\n        /* \"contracts/Staking.sol\":2804:2834  nftInfo[IERC721(_stakeNFT[i])] */\n      0x00\n        /* \"contracts/Staking.sol\":2820:2829  _stakeNFT */\n      dup8\n        /* \"contracts/Staking.sol\":2830:2831  i */\n      dup5\n        /* \"contracts/Staking.sol\":2820:2832  _stakeNFT[i] */\n      dup2\n      mload\n      dup2\n      lt\n      tag_131\n      jumpi\n      tag_132\n      tag_88\n      jump\t// in\n    tag_132:\n    tag_131:\n      0x20\n      mul\n      0x20\n      add\n      add\n      mload\n        /* \"contracts/Staking.sol\":2804:2834  nftInfo[IERC721(_stakeNFT[i])] */\n      0xffffffffffffffffffffffffffffffffffffffff\n      and\n      0xffffffffffffffffffffffffffffffffffffffff\n      and\n      dup2\n      mstore\n      0x20\n      add\n      swap1\n      dup2\n      mstore\n      0x20\n      add\n      0x00\n      keccak256\n        /* \"contracts/Staking.sol\":2804:2849  nftInfo[IERC721(_stakeNFT[i])].rewardsPerWave */\n      0x01\n      add\n        /* \"contracts/Staking.sol\":2804:2869  nftInfo[IERC721(_stakeNFT[i])].rewardsPerWave = _rewardPerWave[i] */\n      dup2\n      swap1\n      sstore\n      pop\n        /* \"contracts/Staking.sol\":2934:2951  _rewardPercentage */\n      dup2\n        /* \"contracts/Staking.sol\":2952:2953  i */\n      dup2\n        /* \"contracts/Staking.sol\":2934:2954  _rewardPercentage[i] */\n      dup2\n      mload\n      dup2\n      lt\n      tag_133\n      jumpi\n      tag_134\n      tag_88\n      jump\t// in\n    tag_134:\n    tag_133:\n      0x20\n      mul\n      0x20\n      add\n      add\n      mload\n        /* \"contracts/Staking.sol\":2884:2891  nftInfo */\n      0x04\n        /* \"contracts/Staking.sol\":2884:2914  nftInfo[IERC721(_stakeNFT[i])] */\n      0x00\n        /* \"contracts/Staking.sol\":2900:2909  _stakeNFT */\n      dup8\n        /* \"contracts/Staking.sol\":2910:2911  i */\n      dup5\n        /* \"contracts/Staking.sol\":2900:2912  _stakeNFT[i] */\n      dup2\n      mload\n      dup2\n      lt\n      tag_135\n      jumpi\n      tag_136\n      tag_88\n      jump\t// in\n    tag_136:\n    tag_135:\n      0x20\n      mul\n      0x20\n      add\n      add\n      mload\n        /* \"contracts/Staking.sol\":2884:2914  nftInfo[IERC721(_stakeNFT[i])] */\n      0xffffffffffffffffffffffffffffffffffffffff\n      and\n      0xffffffffffffffffffffffffffffffffffffffff\n      and\n      dup2\n      mstore\n      0x20\n      add\n      swap1\n      dup2\n      mstore\n      0x20\n      add\n      0x00\n      keccak256\n        /* \"contracts/Staking.sol\":2884:2931  nftInfo[IERC721(_stakeNFT[i])].rewardPercentage */\n      0x02\n      add\n        /* \"contracts/Staking.sol\":2884:2954  nftInfo[IERC721(_stakeNFT[i])].rewardPercentage = _rewardPercentage[i] */\n      dup2\n      swap1\n      sstore\n      pop\n        /* \"contracts/Staking.sol\":2690:2693  i++ */\n      dup1\n      dup1\n      tag_137\n      swap1\n      tag_115\n      jump\t// in\n    tag_137:\n      swap2\n      pop\n      pop\n        /* \"contracts/Staking.sol\":2651:2962  for (uint i = 0; i < _stakeNFT.length; i++) {... */\n      jump(tag_122)\n    tag_123:\n      pop\n        /* \"contracts/Staking.sol\":2193:2969  function setLockPeriod(... */\n      pop\n      pop\n      pop\n      pop\n      jump\t// out\n        /* \"contracts/Staking.sol\":3789:4380  function lockNFT(uint256[] calldata  _tokenIds, IERC721 nftAddress ) external notContract nonReentrant {... */\n    tag_28:\n        /* \"contracts/Staking.sol\":1858:1890  address(msg.sender).isContract() */\n      tag_139\n        /* \"contracts/Staking.sol\":1866:1876  msg.sender */\n      caller\n        /* \"contracts/Staking.sol\":1858:1888  address(msg.sender).isContract */\n      0xffffffffffffffffffffffffffffffffffffffff\n      and\n      tag_72\n        /* \"contracts/Staking.sol\":1858:1890  address(msg.sender).isContract() */\n      jump\t// in\n    tag_139:\n        /* \"contracts/Staking.sol\":1857:1890  !address(msg.sender).isContract() */\n      iszero\n        /* \"contracts/Staking.sol\":1849:1915  require(!address(msg.sender).isContract(), \"Contract not allowed\") */\n      tag_140\n      jumpi\n      mload(0x40)\n      0x08c379a000000000000000000000000000000000000000000000000000000000\n      dup2\n      mstore\n      0x04\n      add\n      tag_141\n      swap1\n      tag_75\n      jump\t// in\n    tag_141:\n      mload(0x40)\n      dup1\n      swap2\n      sub\n      swap1\n      revert\n    tag_140:\n        /* \"contracts/Staking.sol\":1948:1957  tx.origin */\n      origin\n        /* \"contracts/Staking.sol\":1934:1957  msg.sender == tx.origin */\n      0xffffffffffffffffffffffffffffffffffffffff\n      and\n        /* \"contracts/Staking.sol\":1934:1944  msg.sender */\n      caller\n        /* \"contracts/Staking.sol\":1934:1957  msg.sender == tx.origin */\n      0xffffffffffffffffffffffffffffffffffffffff\n      and\n      eq\n        /* \"contracts/Staking.sol\":1926:1988  require(msg.sender == tx.origin, \"Proxy contract not allowed\") */\n      tag_142\n      jumpi\n      mload(0x40)\n      0x08c379a000000000000000000000000000000000000000000000000000000000\n      dup2\n      mstore\n      0x04\n      add\n      tag_143\n      swap1\n      tag_78\n      jump\t// in\n    tag_143:\n      mload(0x40)\n      dup1\n      swap2\n      sub\n      swap1\n      revert\n    tag_142:\n        /* \"@openzeppelin/contracts/security/ReentrancyGuard.sol\":1744:1745  2 */\n      0x02\n        /* \"@openzeppelin/contracts/security/ReentrancyGuard.sol\":2325:2332  _status */\n      sload(0x01)\n        /* \"@openzeppelin/contracts/security/ReentrancyGuard.sol\":2325:2344  _status != _ENTERED */\n      sub\n        /* \"@openzeppelin/contracts/security/ReentrancyGuard.sol\":2317:2380  require(_status != _ENTERED, \"ReentrancyGuard: reentrant call\") */\n      tag_145\n      jumpi\n      mload(0x40)\n      0x08c379a000000000000000000000000000000000000000000000000000000000\n      dup2\n      mstore\n      0x04\n      add\n      tag_146\n      swap1\n      tag_147\n      jump\t// in\n    tag_146:\n      mload(0x40)\n      dup1\n      swap2\n      sub\n      swap1\n      revert\n    tag_145:\n        /* \"@openzeppelin/contracts/security/ReentrancyGuard.sol\":1744:1745  2 */\n      0x02\n        /* \"@openzeppelin/contracts/security/ReentrancyGuard.sol\":2455:2462  _status */\n      0x01\n        /* \"@openzeppelin/contracts/security/ReentrancyGuard.sol\":2455:2473  _status = _ENTERED */\n      dup2\n      swap1\n      sstore\n      pop\n        /* \"contracts/Staking.sol\":3930:3931  0 */\n      0x00\n        /* \"contracts/Staking.sol\":3911:3920  _tokenIds */\n      dup4\n      dup4\n        /* \"contracts/Staking.sol\":3911:3927  _tokenIds.length */\n      swap1\n      pop\n        /* \"contracts/Staking.sol\":3911:3931  _tokenIds.length > 0 */\n      gt\n        /* \"contracts/Staking.sol\":3903:3945  require(_tokenIds.length > 0, \"No tokens\") */\n      tag_149\n      jumpi\n      mload(0x40)\n      0x08c379a000000000000000000000000000000000000000000000000000000000\n      dup2\n      mstore\n      0x04\n      add\n      tag_150\n      swap1\n      tag_82\n      jump\t// in\n    tag_150:\n      mload(0x40)\n      dup1\n      swap2\n      sub\n      swap1\n      revert\n    tag_149:\n        /* \"contracts/Staking.sol\":3963:3972  uint256 i */\n      0x00\n        /* \"contracts/Staking.sol\":3958:4323  for (uint256 i = 0; i < _tokenIds.length; i++) {... */\n    tag_151:\n        /* \"contracts/Staking.sol\":3982:3991  _tokenIds */\n      dup4\n      dup4\n        /* \"contracts/Staking.sol\":3982:3998  _tokenIds.length */\n      swap1\n      pop\n        /* \"contracts/Staking.sol\":3978:3979  i */\n      dup2\n        /* \"contracts/Staking.sol\":3978:3998  i < _tokenIds.length */\n      lt\n        /* \"contracts/Staking.sol\":3958:4323  for (uint256 i = 0; i < _tokenIds.length; i++) {... */\n      iszero\n      tag_152\n      jumpi\n        /* \"contracts/Staking.sol\":4064:4074  msg.sender */\n      caller\n        /* \"contracts/Staking.sol\":4028:4074  nftAddress.ownerOf(_tokenIds[i]) == msg.sender */\n      0xffffffffffffffffffffffffffffffffffffffff\n      and\n        /* \"contracts/Staking.sol\":4028:4038  nftAddress */\n      dup3\n        /* \"contracts/Staking.sol\":4028:4046  nftAddress.ownerOf */\n      0xffffffffffffffffffffffffffffffffffffffff\n      and\n      0x6352211e\n        /* \"contracts/Staking.sol\":4047:4056  _tokenIds */\n      dup7\n      dup7\n        /* \"contracts/Staking.sol\":4057:4058  i */\n      dup6\n        /* \"contracts/Staking.sol\":4047:4059  _tokenIds[i] */\n      dup2\n      dup2\n      lt\n      tag_154\n      jumpi\n      tag_155\n      tag_88\n      jump\t// in\n    tag_155:\n    tag_154:\n      swap1\n      pop\n      0x20\n      mul\n      add\n      calldataload\n        /* \"contracts/Staking.sol\":4028:4060  nftAddress.ownerOf(_tokenIds[i]) */\n      mload(0x40)\n      dup3\n      0xffffffff\n      and\n      0xe0\n      shl\n      dup2\n      mstore\n      0x04\n      add\n      tag_156\n      swap2\n      swap1\n      tag_32\n      jump\t// in\n    tag_156:\n      0x20\n      mload(0x40)\n      dup1\n      dup4\n      sub\n      dup2\n      dup7\n      gas\n      staticcall\n      iszero\n      dup1\n      iszero\n      tag_158\n      jumpi\n      returndatasize\n      0x00\n      dup1\n      returndatacopy\n      revert(0x00, returndatasize)\n    tag_158:\n      pop\n      pop\n      pop\n      pop\n      mload(0x40)\n      returndatasize\n      not(0x1f)\n      0x1f\n      dup3\n      add\n      and\n      dup3\n      add\n      dup1\n      0x40\n      mstore\n      pop\n      dup2\n      add\n      swap1\n      tag_159\n      swap2\n      swap1\n      tag_160\n      jump\t// in\n    tag_159:\n        /* \"contracts/Staking.sol\":4028:4074  nftAddress.ownerOf(_tokenIds[i]) == msg.sender */\n      0xffffffffffffffffffffffffffffffffffffffff\n      and\n      eq\n        /* \"contracts/Staking.sol\":4020:4104  require(nftAddress.ownerOf(_tokenIds[i]) == msg.sender, \"You don't hold this token\") */\n      tag_161\n      jumpi\n      mload(0x40)\n      0x08c379a000000000000000000000000000000000000000000000000000000000\n      dup2\n      mstore\n      0x04\n      add\n      tag_162\n      swap1\n      tag_163\n      jump\t// in\n    tag_162:\n      mload(0x40)\n      dup1\n      swap2\n      sub\n      swap1\n      revert\n    tag_161:\n        /* \"contracts/Staking.sol\":4119:4129  nftAddress */\n      dup2\n        /* \"contracts/Staking.sol\":4119:4142  nftAddress.transferFrom */\n      0xffffffffffffffffffffffffffffffffffffffff\n      and\n      0x23b872dd\n        /* \"contracts/Staking.sol\":4143:4153  msg.sender */\n      caller\n        /* \"contracts/Staking.sol\":4163:4167  this */\n      address\n        /* \"contracts/Staking.sol\":4170:4179  _tokenIds */\n      dup8\n      dup8\n        /* \"contracts/Staking.sol\":4180:4181  i */\n      dup7\n        /* \"contracts/Staking.sol\":4170:4182  _tokenIds[i] */\n      dup2\n      dup2\n      lt\n      tag_164\n      jumpi\n      tag_165\n      tag_88\n      jump\t// in\n    tag_165:\n    tag_164:\n      swap1\n      pop\n      0x20\n      mul\n      add\n      calldataload\n        /* \"contracts/Staking.sol\":4119:4183  nftAddress.transferFrom(msg.sender, address(this), _tokenIds[i]) */\n      mload(0x40)\n      dup5\n      0xffffffff\n      and\n      0xe0\n      shl\n      dup2\n      mstore\n      0x04\n      add\n      tag_166\n      swap4\n      swap3\n      swap2\n      swap1\n      tag_167\n      jump\t// in\n    tag_166:\n      0x00\n      mload(0x40)\n      dup1\n      dup4\n      sub\n      dup2\n      0x00\n      dup8\n      dup1\n      extcodesize\n      iszero\n      dup1\n      iszero\n      tag_168\n      jumpi\n      0x00\n      dup1\n      revert\n    tag_168:\n      pop\n      gas\n      call\n      iszero\n      dup1\n      iszero\n      tag_170\n      jumpi\n      returndatasize\n      0x00\n      dup1\n      returndatacopy\n      revert(0x00, returndatasize)\n    tag_170:\n      pop\n      pop\n      pop\n      pop\n        /* \"contracts/Staking.sol\":4244:4311  LockInfo(msg.sender, block.timestamp, 0, false,IERC721(nftAddress)) */\n      mload(0x40)\n      dup1\n      0xa0\n      add\n      0x40\n      mstore\n      dup1\n        /* \"contracts/Staking.sol\":4253:4263  msg.sender */\n      caller\n        /* \"contracts/Staking.sol\":4244:4311  LockInfo(msg.sender, block.timestamp, 0, false,IERC721(nftAddress)) */\n      0xffffffffffffffffffffffffffffffffffffffff\n      and\n      dup2\n      mstore\n      0x20\n      add\n        /* \"contracts/Staking.sol\":4265:4280  block.timestamp */\n      timestamp\n        /* \"contracts/Staking.sol\":4244:4311  LockInfo(msg.sender, block.timestamp, 0, false,IERC721(nftAddress)) */\n      dup2\n      mstore\n      0x20\n      add\n        /* \"contracts/Staking.sol\":4282:4283  0 */\n      0x00\n        /* \"contracts/Staking.sol\":4244:4311  LockInfo(msg.sender, block.timestamp, 0, false,IERC721(nftAddress)) */\n      dup2\n      mstore\n      0x20\n      add\n        /* \"contracts/Staking.sol\":4285:4290  false */\n      0x00\n        /* \"contracts/Staking.sol\":4244:4311  LockInfo(msg.sender, block.timestamp, 0, false,IERC721(nftAddress)) */\n      iszero\n      iszero\n      dup2\n      mstore\n      0x20\n      add\n        /* \"contracts/Staking.sol\":4299:4309  nftAddress */\n      dup4\n        /* \"contracts/Staking.sol\":4244:4311  LockInfo(msg.sender, block.timestamp, 0, false,IERC721(nftAddress)) */\n      0xffffffffffffffffffffffffffffffffffffffff\n      and\n      dup2\n      mstore\n      pop\n        /* \"contracts/Staking.sol\":4198:4206  lockInfo */\n      0x03\n        /* \"contracts/Staking.sol\":4198:4227  lockInfo[IERC721(nftAddress)] */\n      0x00\n        /* \"contracts/Staking.sol\":4215:4225  nftAddress */\n      dup5\n        /* \"contracts/Staking.sol\":4198:4227  lockInfo[IERC721(nftAddress)] */\n      0xffffffffffffffffffffffffffffffffffffffff\n      and\n      0xffffffffffffffffffffffffffffffffffffffff\n      and\n      dup2\n      mstore\n      0x20\n      add\n      swap1\n      dup2\n      mstore\n      0x20\n      add\n      0x00\n      keccak256\n        /* \"contracts/Staking.sol\":4198:4241  lockInfo[IERC721(nftAddress)][_tokenIds[i]] */\n      0x00\n        /* \"contracts/Staking.sol\":4228:4237  _tokenIds */\n      dup7\n      dup7\n        /* \"contracts/Staking.sol\":4238:4239  i */\n      dup6\n        /* \"contracts/Staking.sol\":4228:4240  _tokenIds[i] */\n      dup2\n      dup2\n      lt\n      tag_171\n      jumpi\n      tag_172\n      tag_88\n      jump\t// in\n    tag_172:\n    tag_171:\n      swap1\n      pop\n      0x20\n      mul\n      add\n      calldataload\n        /* \"contracts/Staking.sol\":4198:4241  lockInfo[IERC721(nftAddress)][_tokenIds[i]] */\n      dup2\n      mstore\n      0x20\n      add\n      swap1\n      dup2\n      mstore\n      0x20\n      add\n      0x00\n      keccak256\n        /* \"contracts/Staking.sol\":4198:4311  lockInfo[IERC721(nftAddress)][_tokenIds[i]] = LockInfo(msg.sender, block.timestamp, 0, false,IERC721(nftAddress)) */\n      0x00\n      dup3\n      add\n      mload\n      dup2\n      0x00\n      add\n      exp(0x0100, 0x00)\n      dup2\n      sload\n      dup2\n      0xffffffffffffffffffffffffffffffffffffffff\n      mul\n      not\n      and\n      swap1\n      dup4\n      0xffffffffffffffffffffffffffffffffffffffff\n      and\n      mul\n      or\n      swap1\n      sstore\n      pop\n      0x20\n      dup3\n      add\n      mload\n      dup2\n      0x01\n      add\n      sstore\n      0x40\n      dup3\n      add\n      mload\n      dup2\n      0x02\n      add\n      sstore\n      0x60\n      dup3\n      add\n      mload\n      dup2\n      0x03\n      add\n      exp(0x0100, 0x00)\n      dup2\n      sload\n      dup2\n      0xff\n      mul\n      not\n      and\n      swap1\n      dup4\n      iszero\n      iszero\n      mul\n      or\n      swap1\n      sstore\n      pop\n      0x80\n      dup3\n      add\n      mload\n      dup2\n      0x03\n      add\n      exp(0x0100, 0x01)\n      dup2\n      sload\n      dup2\n      0xffffffffffffffffffffffffffffffffffffffff\n      mul\n      not\n      and\n      swap1\n      dup4\n      0xffffffffffffffffffffffffffffffffffffffff\n      and\n      mul\n      or\n      swap1\n      sstore\n      pop\n      swap1\n      pop\n      pop\n        /* \"contracts/Staking.sol\":4000:4003  i++ */\n      dup1\n      dup1\n      tag_173\n      swap1\n      tag_115\n      jump\t// in\n    tag_173:\n      swap2\n      pop\n      pop\n        /* \"contracts/Staking.sol\":3958:4323  for (uint256 i = 0; i < _tokenIds.length; i++) {... */\n      jump(tag_151)\n    tag_152:\n      pop\n        /* \"contracts/Staking.sol\":4350:4360  msg.sender */\n      caller\n        /* \"contracts/Staking.sol\":4340:4372  NFTLocked(msg.sender, _tokenIds) */\n      0xffffffffffffffffffffffffffffffffffffffff\n      and\n      0x458be0227bccc9e803dec79bd16767eeaf9925d2ce708eeed7ae1f3621f968f9\n        /* \"contracts/Staking.sol\":4362:4371  _tokenIds */\n      dup5\n      dup5\n        /* \"contracts/Staking.sol\":4340:4372  NFTLocked(msg.sender, _tokenIds) */\n      mload(0x40)\n      tag_174\n      swap3\n      swap2\n      swap1\n      tag_175\n      jump\t// in\n    tag_174:\n      mload(0x40)\n      dup1\n      swap2\n      sub\n      swap1\n      log2\n        /* \"@openzeppelin/contracts/security/ReentrancyGuard.sol\":1701:1702  1 */\n      0x01\n        /* \"@openzeppelin/contracts/security/ReentrancyGuard.sol\":2628:2635  _status */\n      dup1\n        /* \"@openzeppelin/contracts/security/ReentrancyGuard.sol\":2628:2650  _status = _NOT_ENTERED */\n      dup2\n      swap1\n      sstore\n      pop\n        /* \"contracts/Staking.sol\":3789:4380  function lockNFT(uint256[] calldata  _tokenIds, IERC721 nftAddress ) external notContract nonReentrant {... */\n      pop\n      pop\n      pop\n      jump\t// out\n        /* \"contracts/Staking.sol\":502:527  uint256 public lockPeriod */\n    tag_30:\n      sload(0x02)\n      dup2\n      jump\t// out\n        /* \"@openzeppelin/contracts/access/Ownable.sol\":1831:1932  function renounceOwnership() public virtual onlyOwner {... */\n    tag_34:\n        /* \"@openzeppelin/contracts/access/Ownable.sol\":1094:1107  _checkOwner() */\n      tag_177\n        /* \"@openzeppelin/contracts/access/Ownable.sol\":1094:1105  _checkOwner */\n      tag_120\n        /* \"@openzeppelin/contracts/access/Ownable.sol\":1094:1107  _checkOwner() */\n      jump\t// in\n    tag_177:\n        /* \"@openzeppelin/contracts/access/Ownable.sol\":1895:1925  _transferOwnership(address(0)) */\n      tag_179\n        /* \"@openzeppelin/contracts/access/Ownable.sol\":1922:1923  0 */\n      0x00\n        /* \"@openzeppelin/contracts/access/Ownable.sol\":1895:1913  _transferOwnership */\n      tag_180\n        /* \"@openzeppelin/contracts/access/Ownable.sol\":1895:1925  _transferOwnership(address(0)) */\n      jump\t// in\n    tag_179:\n        /* \"@openzeppelin/contracts/access/Ownable.sol\":1831:1932  function renounceOwnership() public virtual onlyOwner {... */\n      jump\t// out\n        /* \"contracts/Staking.sol\":3093:3306  function setLockPeriod(uint256 _lockPeriod) external onlyOwner {... */\n    tag_38:\n        /* \"@openzeppelin/contracts/access/Ownable.sol\":1094:1107  _checkOwner() */\n      tag_182\n        /* \"@openzeppelin/contracts/access/Ownable.sol\":1094:1105  _checkOwner */\n      tag_120\n        /* \"@openzeppelin/contracts/access/Ownable.sol\":1094:1107  _checkOwner() */\n      jump\t// in\n    tag_182:\n        /* \"contracts/Staking.sol\":3189:3190  0 */\n      0x00\n        /* \"contracts/Staking.sol\":3175:3186  _lockPeriod */\n      dup2\n        /* \"contracts/Staking.sol\":3175:3190  _lockPeriod > 0 */\n      gt\n        /* \"contracts/Staking.sol\":3167:3215  require(_lockPeriod > 0, \"Invalid lock period.\") */\n      tag_184\n      jumpi\n      mload(0x40)\n      0x08c379a000000000000000000000000000000000000000000000000000000000\n      dup2\n      mstore\n      0x04\n      add\n      tag_185\n      swap1\n      tag_186\n      jump\t// in\n    tag_185:\n      mload(0x40)\n      dup1\n      swap2\n      sub\n      swap1\n      revert\n    tag_184:\n        /* \"contracts/Staking.sol\":3239:3250  _lockPeriod */\n      dup1\n        /* \"contracts/Staking.sol\":3226:3236  lockPeriod */\n      0x02\n        /* \"contracts/Staking.sol\":3226:3250  lockPeriod = _lockPeriod */\n      dup2\n      swap1\n      sstore\n      pop\n        /* \"contracts/Staking.sol\":3268:3298  LockPeriodUpdated(_lockPeriod) */\n      0x8249ec545e68f6f1e1230133ca48c704d831a7f8e635ded80f3dd9e99b09bb2f\n        /* \"contracts/Staking.sol\":3286:3297  _lockPeriod */\n      dup2\n        /* \"contracts/Staking.sol\":3268:3298  LockPeriodUpdated(_lockPeriod) */\n      mload(0x40)\n      tag_187\n      swap2\n      swap1\n      tag_32\n      jump\t// in\n    tag_187:\n      mload(0x40)\n      dup1\n      swap2\n      sub\n      swap1\n      log1\n        /* \"contracts/Staking.sol\":3093:3306  function setLockPeriod(uint256 _lockPeriod) external onlyOwner {... */\n      pop\n      jump\t// out\n        /* \"@openzeppelin/contracts/access/Ownable.sol\":1201:1286  function owner() public view virtual returns (address) {... */\n    tag_40:\n        /* \"@openzeppelin/contracts/access/Ownable.sol\":1247:1254  address */\n      0x00\n        /* \"@openzeppelin/contracts/access/Ownable.sol\":1273:1279  _owner */\n      dup1\n      0x00\n      swap1\n      sload\n      swap1\n      0x0100\n      exp\n      swap1\n      div\n      0xffffffffffffffffffffffffffffffffffffffff\n      and\n        /* \"@openzeppelin/contracts/access/Ownable.sol\":1266:1279  return _owner */\n      swap1\n      pop\n        /* \"@openzeppelin/contracts/access/Ownable.sol\":1201:1286  function owner() public view virtual returns (address) {... */\n      swap1\n      jump\t// out\n        /* \"contracts/Staking.sol\":4493:5568  function unlockNFT(uint256[] calldata _tokenIds, IERC721 nftAddress) external notContract nonReentrant {... */\n    tag_45:\n        /* \"contracts/Staking.sol\":1858:1890  address(msg.sender).isContract() */\n      tag_190\n        /* \"contracts/Staking.sol\":1866:1876  msg.sender */\n      caller\n        /* \"contracts/Staking.sol\":1858:1888  address(msg.sender).isContract */\n      0xffffffffffffffffffffffffffffffffffffffff\n      and\n      tag_72\n        /* \"contracts/Staking.sol\":1858:1890  address(msg.sender).isContract() */\n      jump\t// in\n    tag_190:\n        /* \"contracts/Staking.sol\":1857:1890  !address(msg.sender).isContract() */\n      iszero\n        /* \"contracts/Staking.sol\":1849:1915  require(!address(msg.sender).isContract(), \"Contract not allowed\") */\n      tag_191\n      jumpi\n      mload(0x40)\n      0x08c379a000000000000000000000000000000000000000000000000000000000\n      dup2\n      mstore\n      0x04\n      add\n      tag_192\n      swap1\n      tag_75\n      jump\t// in\n    tag_192:\n      mload(0x40)\n      dup1\n      swap2\n      sub\n      swap1\n      revert\n    tag_191:\n        /* \"contracts/Staking.sol\":1948:1957  tx.origin */\n      origin\n        /* \"contracts/Staking.sol\":1934:1957  msg.sender == tx.origin */\n      0xffffffffffffffffffffffffffffffffffffffff\n      and\n        /* \"contracts/Staking.sol\":1934:1944  msg.sender */\n      caller\n        /* \"contracts/Staking.sol\":1934:1957  msg.sender == tx.origin */\n      0xffffffffffffffffffffffffffffffffffffffff\n      and\n      eq\n        /* \"contracts/Staking.sol\":1926:1988  require(msg.sender == tx.origin, \"Proxy contract not allowed\") */\n      tag_193\n      jumpi\n      mload(0x40)\n      0x08c379a000000000000000000000000000000000000000000000000000000000\n      dup2\n      mstore\n      0x04\n      add\n      tag_194\n      swap1\n      tag_78\n      jump\t// in\n    tag_194:\n      mload(0x40)\n      dup1\n      swap2\n      sub\n      swap1\n      revert\n    tag_193:\n        /* \"@openzeppelin/contracts/security/ReentrancyGuard.sol\":1744:1745  2 */\n      0x02\n        /* \"@openzeppelin/contracts/security/ReentrancyGuard.sol\":2325:2332  _status */\n      sload(0x01)\n        /* \"@openzeppelin/contracts/security/ReentrancyGuard.sol\":2325:2344  _status != _ENTERED */\n      sub\n        /* \"@openzeppelin/contracts/security/ReentrancyGuard.sol\":2317:2380  require(_status != _ENTERED, \"ReentrancyGuard: reentrant call\") */\n      tag_196\n      jumpi\n      mload(0x40)\n      0x08c379a000000000000000000000000000000000000000000000000000000000\n      dup2\n      mstore\n      0x04\n      add\n      tag_197\n      swap1\n      tag_147\n      jump\t// in\n    tag_197:\n      mload(0x40)\n      dup1\n      swap2\n      sub\n      swap1\n      revert\n    tag_196:\n        /* \"@openzeppelin/contracts/security/ReentrancyGuard.sol\":1744:1745  2 */\n      0x02\n        /* \"@openzeppelin/contracts/security/ReentrancyGuard.sol\":2455:2462  _status */\n      0x01\n        /* \"@openzeppelin/contracts/security/ReentrancyGuard.sol\":2455:2473  _status = _ENTERED */\n      dup2\n      swap1\n      sstore\n      pop\n        /* \"contracts/Staking.sol\":4634:4635  0 */\n      0x00\n        /* \"contracts/Staking.sol\":4615:4624  _tokenIds */\n      dup4\n      dup4\n        /* \"contracts/Staking.sol\":4615:4631  _tokenIds.length */\n      swap1\n      pop\n        /* \"contracts/Staking.sol\":4615:4635  _tokenIds.length > 0 */\n      gt\n        /* \"contracts/Staking.sol\":4607:4649  require(_tokenIds.length > 0, \"No tokens\") */\n      tag_199\n      jumpi\n      mload(0x40)\n      0x08c379a000000000000000000000000000000000000000000000000000000000\n      dup2\n      mstore\n      0x04\n      add\n      tag_200\n      swap1\n      tag_82\n      jump\t// in\n    tag_200:\n      mload(0x40)\n      dup1\n      swap2\n      sub\n      swap1\n      revert\n    tag_199:\n        /* \"contracts/Staking.sol\":4667:4676  uint256 i */\n      0x00\n        /* \"contracts/Staking.sol\":4662:5509  for (uint256 i = 0; i < _tokenIds.length; i++) {... */\n    tag_201:\n        /* \"contracts/Staking.sol\":4686:4695  _tokenIds */\n      dup4\n      dup4\n        /* \"contracts/Staking.sol\":4686:4702  _tokenIds.length */\n      swap1\n      pop\n        /* \"contracts/Staking.sol\":4682:4683  i */\n      dup2\n        /* \"contracts/Staking.sol\":4682:4702  i < _tokenIds.length */\n      lt\n        /* \"contracts/Staking.sol\":4662:5509  for (uint256 i = 0; i < _tokenIds.length; i++) {... */\n      iszero\n      tag_202\n      jumpi\n        /* \"contracts/Staking.sol\":4724:4744  LockInfo memory info */\n      0x00\n        /* \"contracts/Staking.sol\":4747:4755  lockInfo */\n      0x03\n        /* \"contracts/Staking.sol\":4747:4776  lockInfo[IERC721(nftAddress)] */\n      0x00\n        /* \"contracts/Staking.sol\":4764:4774  nftAddress */\n      dup5\n        /* \"contracts/Staking.sol\":4747:4776  lockInfo[IERC721(nftAddress)] */\n      0xffffffffffffffffffffffffffffffffffffffff\n      and\n      0xffffffffffffffffffffffffffffffffffffffff\n      and\n      dup2\n      mstore\n      0x20\n      add\n      swap1\n      dup2\n      mstore\n      0x20\n      add\n      0x00\n      keccak256\n        /* \"contracts/Staking.sol\":4747:4790  lockInfo[IERC721(nftAddress)][_tokenIds[i]] */\n      0x00\n        /* \"contracts/Staking.sol\":4777:4786  _tokenIds */\n      dup7\n      dup7\n        /* \"contracts/Staking.sol\":4787:4788  i */\n      dup6\n        /* \"contracts/Staking.sol\":4777:4789  _tokenIds[i] */\n      dup2\n      dup2\n      lt\n      tag_204\n      jumpi\n      tag_205\n      tag_88\n      jump\t// in\n    tag_205:\n    tag_204:\n      swap1\n      pop\n      0x20\n      mul\n      add\n      calldataload\n        /* \"contracts/Staking.sol\":4747:4790  lockInfo[IERC721(nftAddress)][_tokenIds[i]] */\n      dup2\n      mstore\n      0x20\n      add\n      swap1\n      dup2\n      mstore\n      0x20\n      add\n      0x00\n      keccak256\n        /* \"contracts/Staking.sol\":4724:4790  LockInfo memory info = lockInfo[IERC721(nftAddress)][_tokenIds[i]] */\n      mload(0x40)\n      dup1\n      0xa0\n      add\n      0x40\n      mstore\n      swap1\n      dup2\n      0x00\n      dup3\n      add\n      0x00\n      swap1\n      sload\n      swap1\n      0x0100\n      exp\n      swap1\n      div\n      0xffffffffffffffffffffffffffffffffffffffff\n      and\n      0xffffffffffffffffffffffffffffffffffffffff\n      and\n      0xffffffffffffffffffffffffffffffffffffffff\n      and\n      dup2\n      mstore\n      0x20\n      add\n      0x01\n      dup3\n      add\n      sload\n      dup2\n      mstore\n      0x20\n      add\n      0x02\n      dup3\n      add\n      sload\n      dup2\n      mstore\n      0x20\n      add\n      0x03\n      dup3\n      add\n      0x00\n      swap1\n      sload\n      swap1\n      0x0100\n      exp\n      swap1\n      div\n      0xff\n      and\n      iszero\n      iszero\n      iszero\n      iszero\n      dup2\n      mstore\n      0x20\n      add\n      0x03\n      dup3\n      add\n      0x01\n      swap1\n      sload\n      swap1\n      0x0100\n      exp\n      swap1\n      div\n      0xffffffffffffffffffffffffffffffffffffffff\n      and\n      0xffffffffffffffffffffffffffffffffffffffff\n      and\n      0xffffffffffffffffffffffffffffffffffffffff\n      and\n      dup2\n      mstore\n      pop\n      pop\n      swap1\n      pop\n        /* \"contracts/Staking.sol\":4827:4837  msg.sender */\n      caller\n        /* \"contracts/Staking.sol\":4813:4837  info.owner == msg.sender */\n      0xffffffffffffffffffffffffffffffffffffffff\n      and\n        /* \"contracts/Staking.sol\":4813:4817  info */\n      dup2\n        /* \"contracts/Staking.sol\":4813:4823  info.owner */\n      0x00\n      add\n      mload\n        /* \"contracts/Staking.sol\":4813:4837  info.owner == msg.sender */\n      0xffffffffffffffffffffffffffffffffffffffff\n      and\n      eq\n        /* \"contracts/Staking.sol\":4805:4859  require(info.owner == msg.sender, \"Not a token owner\") */\n      tag_206\n      jumpi\n      mload(0x40)\n      0x08c379a000000000000000000000000000000000000000000000000000000000\n      dup2\n      mstore\n      0x04\n      add\n      tag_207\n      swap1\n      tag_91\n      jump\t// in\n    tag_207:\n      mload(0x40)\n      dup1\n      swap2\n      sub\n      swap1\n      revert\n    tag_206:\n        /* \"contracts/Staking.sol\":4913:4928  block.timestamp */\n      timestamp\n        /* \"contracts/Staking.sol\":4900:4910  lockPeriod */\n      sload(0x02)\n        /* \"contracts/Staking.sol\":4882:4886  info */\n      dup3\n        /* \"contracts/Staking.sol\":4882:4897  info.lockedTime */\n      0x20\n      add\n      mload\n        /* \"contracts/Staking.sol\":4882:4910  info.lockedTime + lockPeriod */\n      tag_208\n      swap2\n      swap1\n      tag_93\n      jump\t// in\n    tag_208:\n        /* \"contracts/Staking.sol\":4882:4928  info.lockedTime + lockPeriod < block.timestamp */\n      lt\n        /* \"contracts/Staking.sol\":4874:4955  require(info.lockedTime + lockPeriod < block.timestamp, \"Not able to unlock yet\") */\n      tag_209\n      jumpi\n      mload(0x40)\n      0x08c379a000000000000000000000000000000000000000000000000000000000\n      dup2\n      mstore\n      0x04\n      add\n      tag_210\n      swap1\n      tag_211\n      jump\t// in\n    tag_210:\n      mload(0x40)\n      dup1\n      swap2\n      sub\n      swap1\n      revert\n    tag_209:\n        /* \"contracts/Staking.sol\":4979:4983  info */\n      dup1\n        /* \"contracts/Staking.sol\":4979:4994  info.isUnlocked */\n      0x60\n      add\n      mload\n        /* \"contracts/Staking.sol\":4978:4994  !info.isUnlocked */\n      iszero\n        /* \"contracts/Staking.sol\":4970:5015  require(!info.isUnlocked, \"Already unlocked\") */\n      tag_212\n      jumpi\n      mload(0x40)\n      0x08c379a000000000000000000000000000000000000000000000000000000000\n      dup2\n      mstore\n      0x04\n      add\n      tag_213\n      swap1\n      tag_99\n      jump\t// in\n    tag_213:\n      mload(0x40)\n      dup1\n      swap2\n      sub\n      swap1\n      revert\n    tag_212:\n        /* \"contracts/Staking.sol\":5032:5042  nftAddress */\n      dup3\n        /* \"contracts/Staking.sol\":5032:5055  nftAddress.transferFrom */\n      0xffffffffffffffffffffffffffffffffffffffff\n      and\n      0x23b872dd\n        /* \"contracts/Staking.sol\":5064:5068  this */\n      address\n        /* \"contracts/Staking.sol\":5071:5081  msg.sender */\n      caller\n        /* \"contracts/Staking.sol\":5083:5092  _tokenIds */\n      dup9\n      dup9\n        /* \"contracts/Staking.sol\":5093:5094  i */\n      dup8\n        /* \"contracts/Staking.sol\":5083:5095  _tokenIds[i] */\n      dup2\n      dup2\n      lt\n      tag_214\n      jumpi\n      tag_215\n      tag_88\n      jump\t// in\n    tag_215:\n    tag_214:\n      swap1\n      pop\n      0x20\n      mul\n      add\n      calldataload\n        /* \"contracts/Staking.sol\":5032:5096  nftAddress.transferFrom(address(this), msg.sender, _tokenIds[i]) */\n      mload(0x40)\n      dup5\n      0xffffffff\n      and\n      0xe0\n      shl\n      dup2\n      mstore\n      0x04\n      add\n      tag_216\n      swap4\n      swap3\n      swap2\n      swap1\n      tag_167\n      jump\t// in\n    tag_216:\n      0x00\n      mload(0x40)\n      dup1\n      dup4\n      sub\n      dup2\n      0x00\n      dup8\n      dup1\n      extcodesize\n      iszero\n      dup1\n      iszero\n      tag_217\n      jumpi\n      0x00\n      dup1\n      revert\n    tag_217:\n      pop\n      gas\n      call\n      iszero\n      dup1\n      iszero\n      tag_219\n      jumpi\n      returndatasize\n      0x00\n      dup1\n      returndatacopy\n      revert(0x00, returndatasize)\n    tag_219:\n      pop\n      pop\n      pop\n      pop\n        /* \"contracts/Staking.sol\":5113:5132  uint256 totalAmount */\n      0x00\n        /* \"contracts/Staking.sol\":5135:5174  _rewardAmount(_tokenIds[i], nftAddress) */\n      tag_220\n        /* \"contracts/Staking.sol\":5149:5158  _tokenIds */\n      dup7\n      dup7\n        /* \"contracts/Staking.sol\":5159:5160  i */\n      dup6\n        /* \"contracts/Staking.sol\":5149:5161  _tokenIds[i] */\n      dup2\n      dup2\n      lt\n      tag_221\n      jumpi\n      tag_222\n      tag_88\n      jump\t// in\n    tag_222:\n    tag_221:\n      swap1\n      pop\n      0x20\n      mul\n      add\n      calldataload\n        /* \"contracts/Staking.sol\":5163:5173  nftAddress */\n      dup6\n        /* \"contracts/Staking.sol\":5135:5148  _rewardAmount */\n      tag_103\n        /* \"contracts/Staking.sol\":5135:5174  _rewardAmount(_tokenIds[i], nftAddress) */\n      jump\t// in\n    tag_220:\n        /* \"contracts/Staking.sol\":5113:5174  uint256 totalAmount = _rewardAmount(_tokenIds[i], nftAddress) */\n      swap1\n      pop\n        /* \"contracts/Staking.sol\":5189:5213  uint256 unclaminedAmount */\n      0x00\n        /* \"contracts/Staking.sol\":5230:5234  info */\n      dup3\n        /* \"contracts/Staking.sol\":5230:5249  info.claimedRewards */\n      0x40\n      add\n      mload\n        /* \"contracts/Staking.sol\":5216:5227  totalAmount */\n      dup3\n        /* \"contracts/Staking.sol\":5216:5249  totalAmount - info.claimedRewards */\n      tag_223\n      swap2\n      swap1\n      tag_105\n      jump\t// in\n    tag_223:\n        /* \"contracts/Staking.sol\":5189:5249  uint256 unclaminedAmount = totalAmount - info.claimedRewards */\n      swap1\n      pop\n        /* \"contracts/Staking.sol\":5265:5272  nftInfo */\n      0x04\n        /* \"contracts/Staking.sol\":5265:5284  nftInfo[nftAddress] */\n      0x00\n        /* \"contracts/Staking.sol\":5273:5283  nftAddress */\n      dup7\n        /* \"contracts/Staking.sol\":5265:5284  nftInfo[nftAddress] */\n      0xffffffffffffffffffffffffffffffffffffffff\n      and\n      0xffffffffffffffffffffffffffffffffffffffff\n      and\n      dup2\n      mstore\n      0x20\n      add\n      swap1\n      dup2\n      mstore\n      0x20\n      add\n      0x00\n      keccak256\n        /* \"contracts/Staking.sol\":5265:5297  nftInfo[nftAddress].rewardsToken */\n      0x00\n      add\n      0x00\n      swap1\n      sload\n      swap1\n      0x0100\n      exp\n      swap1\n      div\n      0xffffffffffffffffffffffffffffffffffffffff\n      and\n        /* \"contracts/Staking.sol\":5265:5302  nftInfo[nftAddress].rewardsToken.mint */\n      0xffffffffffffffffffffffffffffffffffffffff\n      and\n      0x40c10f19\n        /* \"contracts/Staking.sol\":5303:5313  msg.sender */\n      caller\n        /* \"contracts/Staking.sol\":5315:5331  unclaminedAmount */\n      dup4\n        /* \"contracts/Staking.sol\":5265:5332  nftInfo[nftAddress].rewardsToken.mint(msg.sender, unclaminedAmount) */\n      mload(0x40)\n      dup4\n      0xffffffff\n      and\n      0xe0\n      shl\n      dup2\n      mstore\n      0x04\n      add\n      tag_224\n      swap3\n      swap2\n      swap1\n      tag_107\n      jump\t// in\n    tag_224:\n      0x00\n      mload(0x40)\n      dup1\n      dup4\n      sub\n      dup2\n      0x00\n      dup8\n      dup1\n      extcodesize\n      iszero\n      dup1\n      iszero\n      tag_225\n      jumpi\n      0x00\n      dup1\n      revert\n    tag_225:\n      pop\n      gas\n      call\n      iszero\n      dup1\n      iszero\n      tag_227\n      jumpi\n      returndatasize\n      0x00\n      dup1\n      returndatacopy\n      revert(0x00, returndatasize)\n    tag_227:\n      pop\n      pop\n      pop\n      pop\n        /* \"contracts/Staking.sol\":5410:5421  totalAmount */\n      dup2\n        /* \"contracts/Staking.sol\":5349:5357  lockInfo */\n      0x03\n        /* \"contracts/Staking.sol\":5349:5378  lockInfo[IERC721(nftAddress)] */\n      0x00\n        /* \"contracts/Staking.sol\":5366:5376  nftAddress */\n      dup8\n        /* \"contracts/Staking.sol\":5349:5378  lockInfo[IERC721(nftAddress)] */\n      0xffffffffffffffffffffffffffffffffffffffff\n      and\n      0xffffffffffffffffffffffffffffffffffffffff\n      and\n      dup2\n      mstore\n      0x20\n      add\n      swap1\n      dup2\n      mstore\n      0x20\n      add\n      0x00\n      keccak256\n        /* \"contracts/Staking.sol\":5349:5392  lockInfo[IERC721(nftAddress)][_tokenIds[i]] */\n      0x00\n        /* \"contracts/Staking.sol\":5379:5388  _tokenIds */\n      dup10\n      dup10\n        /* \"contracts/Staking.sol\":5389:5390  i */\n      dup9\n        /* \"contracts/Staking.sol\":5379:5391  _tokenIds[i] */\n      dup2\n      dup2\n      lt\n      tag_228\n      jumpi\n      tag_229\n      tag_88\n      jump\t// in\n    tag_229:\n    tag_228:\n      swap1\n      pop\n      0x20\n      mul\n      add\n      calldataload\n        /* \"contracts/Staking.sol\":5349:5392  lockInfo[IERC721(nftAddress)][_tokenIds[i]] */\n      dup2\n      mstore\n      0x20\n      add\n      swap1\n      dup2\n      mstore\n      0x20\n      add\n      0x00\n      keccak256\n        /* \"contracts/Staking.sol\":5349:5407  lockInfo[IERC721(nftAddress)][_tokenIds[i]].claimedRewards */\n      0x02\n      add\n        /* \"contracts/Staking.sol\":5349:5421  lockInfo[IERC721(nftAddress)][_tokenIds[i]].claimedRewards = totalAmount */\n      dup2\n      swap1\n      sstore\n      pop\n        /* \"contracts/Staking.sol\":5493:5497  true */\n      0x01\n        /* \"contracts/Staking.sol\":5436:5444  lockInfo */\n      0x03\n        /* \"contracts/Staking.sol\":5436:5465  lockInfo[IERC721(nftAddress)] */\n      0x00\n        /* \"contracts/Staking.sol\":5453:5463  nftAddress */\n      dup8\n        /* \"contracts/Staking.sol\":5436:5465  lockInfo[IERC721(nftAddress)] */\n      0xffffffffffffffffffffffffffffffffffffffff\n      and\n      0xffffffffffffffffffffffffffffffffffffffff\n      and\n      dup2\n      mstore\n      0x20\n      add\n      swap1\n      dup2\n      mstore\n      0x20\n      add\n      0x00\n      keccak256\n        /* \"contracts/Staking.sol\":5436:5479  lockInfo[IERC721(nftAddress)][_tokenIds[i]] */\n      0x00\n        /* \"contracts/Staking.sol\":5466:5475  _tokenIds */\n      dup10\n      dup10\n        /* \"contracts/Staking.sol\":5476:5477  i */\n      dup9\n        /* \"contracts/Staking.sol\":5466:5478  _tokenIds[i] */\n      dup2\n      dup2\n      lt\n      tag_230\n      jumpi\n      tag_231\n      tag_88\n      jump\t// in\n    tag_231:\n    tag_230:\n      swap1\n      pop\n      0x20\n      mul\n      add\n      calldataload\n        /* \"contracts/Staking.sol\":5436:5479  lockInfo[IERC721(nftAddress)][_tokenIds[i]] */\n      dup2\n      mstore\n      0x20\n      add\n      swap1\n      dup2\n      mstore\n      0x20\n      add\n      0x00\n      keccak256\n        /* \"contracts/Staking.sol\":5436:5490  lockInfo[IERC721(nftAddress)][_tokenIds[i]].isUnlocked */\n      0x03\n      add\n      0x00\n        /* \"contracts/Staking.sol\":5436:5497  lockInfo[IERC721(nftAddress)][_tokenIds[i]].isUnlocked = true */\n      0x0100\n      exp\n      dup2\n      sload\n      dup2\n      0xff\n      mul\n      not\n      and\n      swap1\n      dup4\n      iszero\n      iszero\n      mul\n      or\n      swap1\n      sstore\n      pop\n        /* \"contracts/Staking.sol\":4709:5509  {... */\n      pop\n      pop\n      pop\n        /* \"contracts/Staking.sol\":4704:4707  i++ */\n      dup1\n      dup1\n      tag_232\n      swap1\n      tag_115\n      jump\t// in\n    tag_232:\n      swap2\n      pop\n      pop\n        /* \"contracts/Staking.sol\":4662:5509  for (uint256 i = 0; i < _tokenIds.length; i++) {... */\n      jump(tag_201)\n    tag_202:\n      pop\n        /* \"contracts/Staking.sol\":5538:5548  msg.sender */\n      caller\n        /* \"contracts/Staking.sol\":5526:5560  NFTUnLocked(msg.sender, _tokenIds) */\n      0xffffffffffffffffffffffffffffffffffffffff\n      and\n      0x5cb48022479b9ac3bfb10a27965dc010acffc9fc1bc9a52f0b18975b944b54ca\n        /* \"contracts/Staking.sol\":5550:5559  _tokenIds */\n      dup5\n      dup5\n        /* \"contracts/Staking.sol\":5526:5560  NFTUnLocked(msg.sender, _tokenIds) */\n      mload(0x40)\n      tag_233\n      swap3\n      swap2\n      swap1\n      tag_175\n      jump\t// in\n    tag_233:\n      mload(0x40)\n      dup1\n      swap2\n      sub\n      swap1\n      log2\n        /* \"@openzeppelin/contracts/security/ReentrancyGuard.sol\":1701:1702  1 */\n      0x01\n        /* \"@openzeppelin/contracts/security/ReentrancyGuard.sol\":2628:2635  _status */\n      dup1\n        /* \"@openzeppelin/contracts/security/ReentrancyGuard.sol\":2628:2650  _status = _NOT_ENTERED */\n      dup2\n      swap1\n      sstore\n      pop\n        /* \"contracts/Staking.sol\":4493:5568  function unlockNFT(uint256[] calldata _tokenIds, IERC721 nftAddress) external notContract nonReentrant {... */\n      pop\n      pop\n      pop\n      jump\t// out\n        /* \"contracts/Staking.sol\":770:834  mapping(IERC721 => mapping(uint256 => LockInfo)) public lockInfo */\n    tag_49:\n      mstore(0x20, 0x03)\n      dup2\n      0x00\n      mstore\n      mstore(0x20, keccak256(0x00, 0x40))\n      dup1\n      0x00\n      mstore\n      keccak256(0x00, 0x40)\n      0x00\n      swap2\n      pop\n      swap2\n      pop\n      pop\n      dup1\n      0x00\n      add\n      0x00\n      swap1\n      sload\n      swap1\n      0x0100\n      exp\n      swap1\n      div\n      0xffffffffffffffffffffffffffffffffffffffff\n      and\n      swap1\n      dup1\n      0x01\n      add\n      sload\n      swap1\n      dup1\n      0x02\n      add\n      sload\n      swap1\n      dup1\n      0x03\n      add\n      0x00\n      swap1\n      sload\n      swap1\n      0x0100\n      exp\n      swap1\n      div\n      0xff\n      and\n      swap1\n      dup1\n      0x03\n      add\n      0x01\n      swap1\n      sload\n      swap1\n      0x0100\n      exp\n      swap1\n      div\n      0xffffffffffffffffffffffffffffffffffffffff\n      and\n      swap1\n      pop\n      dup6\n      jump\t// out\n        /* \"contracts/Staking.sol\":3474:3648  function claimedRewards(uint256 _tokenId, IERC721 nftAddress) external view returns (uint256) {... */\n    tag_55:\n        /* \"contracts/Staking.sol\":3559:3566  uint256 */\n      0x00\n        /* \"contracts/Staking.sol\":3586:3594  lockInfo */\n      0x03\n        /* \"contracts/Staking.sol\":3586:3615  lockInfo[IERC721(nftAddress)] */\n      0x00\n        /* \"contracts/Staking.sol\":3603:3613  nftAddress */\n      dup4\n        /* \"contracts/Staking.sol\":3586:3615  lockInfo[IERC721(nftAddress)] */\n      0xffffffffffffffffffffffffffffffffffffffff\n      and\n      0xffffffffffffffffffffffffffffffffffffffff\n      and\n      dup2\n      mstore\n      0x20\n      add\n      swap1\n      dup2\n      mstore\n      0x20\n      add\n      0x00\n      keccak256\n        /* \"contracts/Staking.sol\":3586:3625  lockInfo[IERC721(nftAddress)][_tokenId] */\n      0x00\n        /* \"contracts/Staking.sol\":3616:3624  _tokenId */\n      dup5\n        /* \"contracts/Staking.sol\":3586:3625  lockInfo[IERC721(nftAddress)][_tokenId] */\n      dup2\n      mstore\n      0x20\n      add\n      swap1\n      dup2\n      mstore\n      0x20\n      add\n      0x00\n      keccak256\n        /* \"contracts/Staking.sol\":3586:3640  lockInfo[IERC721(nftAddress)][_tokenId].claimedRewards */\n      0x02\n      add\n      sload\n        /* \"contracts/Staking.sol\":3579:3640  return lockInfo[IERC721(nftAddress)][_tokenId].claimedRewards */\n      swap1\n      pop\n        /* \"contracts/Staking.sol\":3474:3648  function claimedRewards(uint256 _tokenId, IERC721 nftAddress) external view returns (uint256) {... */\n      swap3\n      swap2\n      pop\n      pop\n      jump\t// out\n        /* \"contracts/Staking.sol\":1099:1118  uint256 public WAVE */\n    tag_58:\n      sload(0x05)\n      dup2\n      jump\t// out\n        /* \"contracts/Staking.sol\":1016:1063  mapping(IERC721 => stakeNftInfo) public nftInfo */\n    tag_63:\n      mstore(0x20, 0x04)\n      dup1\n      0x00\n      mstore\n      keccak256(0x00, 0x40)\n      0x00\n      swap2\n      pop\n      swap1\n      pop\n      dup1\n      0x00\n      add\n      0x00\n      swap1\n      sload\n      swap1\n      0x0100\n      exp\n      swap1\n      div\n      0xffffffffffffffffffffffffffffffffffffffff\n      and\n      swap1\n      dup1\n      0x01\n      add\n      sload\n      swap1\n      dup1\n      0x02\n      add\n      sload\n      swap1\n      pop\n      dup4\n      jump\t// out\n        /* \"@openzeppelin/contracts/access/Ownable.sol\":2081:2279  function transferOwnership(address newOwner) public virtual onlyOwner {... */\n    tag_69:\n        /* \"@openzeppelin/contracts/access/Ownable.sol\":1094:1107  _checkOwner() */\n      tag_236\n        /* \"@openzeppelin/contracts/access/Ownable.sol\":1094:1105  _checkOwner */\n      tag_120\n        /* \"@openzeppelin/contracts/access/Ownable.sol\":1094:1107  _checkOwner() */\n      jump\t// in\n    tag_236:\n        /* \"@openzeppelin/contracts/access/Ownable.sol\":2189:2190  0 */\n      0x00\n        /* \"@openzeppelin/contracts/access/Ownable.sol\":2169:2191  newOwner != address(0) */\n      0xffffffffffffffffffffffffffffffffffffffff\n      and\n        /* \"@openzeppelin/contracts/access/Ownable.sol\":2169:2177  newOwner */\n      dup2\n        /* \"@openzeppelin/contracts/access/Ownable.sol\":2169:2191  newOwner != address(0) */\n      0xffffffffffffffffffffffffffffffffffffffff\n      and\n      sub\n        /* \"@openzeppelin/contracts/access/Ownable.sol\":2161:2234  require(newOwner != address(0), \"Ownable: new owner is the zero address\") */\n      tag_238\n      jumpi\n      mload(0x40)\n      0x08c379a000000000000000000000000000000000000000000000000000000000\n      dup2\n      mstore\n      0x04\n      add\n      tag_239\n      swap1\n      tag_240\n      jump\t// in\n    tag_239:\n      mload(0x40)\n      dup1\n      swap2\n      sub\n      swap1\n      revert\n    tag_238:\n        /* \"@openzeppelin/contracts/access/Ownable.sol\":2244:2272  _transferOwnership(newOwner) */\n      tag_241\n        /* \"@openzeppelin/contracts/access/Ownable.sol\":2263:2271  newOwner */\n      dup2\n        /* \"@openzeppelin/contracts/access/Ownable.sol\":2244:2262  _transferOwnership */\n      tag_180\n        /* \"@openzeppelin/contracts/access/Ownable.sol\":2244:2272  _transferOwnership(newOwner) */\n      jump\t// in\n    tag_241:\n        /* \"@openzeppelin/contracts/access/Ownable.sol\":2081:2279  function transferOwnership(address newOwner) public virtual onlyOwner {... */\n      pop\n      jump\t// out\n        /* \"@openzeppelin/contracts/utils/Address.sol\":1175:1495  function isContract(address account) internal view returns (bool) {... */\n    tag_72:\n        /* \"@openzeppelin/contracts/utils/Address.sol\":1235:1239  bool */\n      0x00\n        /* \"@openzeppelin/contracts/utils/Address.sol\":1487:1488  0 */\n      dup1\n        /* \"@openzeppelin/contracts/utils/Address.sol\":1465:1472  account */\n      dup3\n        /* \"@openzeppelin/contracts/utils/Address.sol\":1465:1484  account.code.length */\n      0xffffffffffffffffffffffffffffffffffffffff\n      and\n      extcodesize\n        /* \"@openzeppelin/contracts/utils/Address.sol\":1465:1488  account.code.length > 0 */\n      gt\n        /* \"@openzeppelin/contracts/utils/Address.sol\":1458:1488  return account.code.length > 0 */\n      swap1\n      pop\n        /* \"@openzeppelin/contracts/utils/Address.sol\":1175:1495  function isContract(address account) internal view returns (bool) {... */\n      swap2\n      swap1\n      pop\n      jump\t// out\n        /* \"contracts/Staking.sol\":6729:7241  function _rewardAmount(uint256 _tokenId, IERC721 nftAddress) internal view returns (uint256) {... */\n    tag_103:\n        /* \"contracts/Staking.sol\":6813:6820  uint256 */\n      0x00\n        /* \"contracts/Staking.sol\":6833:6853  LockInfo memory info */\n      dup1\n        /* \"contracts/Staking.sol\":6856:6864  lockInfo */\n      0x03\n        /* \"contracts/Staking.sol\":6856:6885  lockInfo[IERC721(nftAddress)] */\n      0x00\n        /* \"contracts/Staking.sol\":6873:6883  nftAddress */\n      dup5\n        /* \"contracts/Staking.sol\":6856:6885  lockInfo[IERC721(nftAddress)] */\n      0xffffffffffffffffffffffffffffffffffffffff\n      and\n      0xffffffffffffffffffffffffffffffffffffffff\n      and\n      dup2\n      mstore\n      0x20\n      add\n      swap1\n      dup2\n      mstore\n      0x20\n      add\n      0x00\n      keccak256\n        /* \"contracts/Staking.sol\":6856:6895  lockInfo[IERC721(nftAddress)][_tokenId] */\n      0x00\n        /* \"contracts/Staking.sol\":6886:6894  _tokenId */\n      dup6\n        /* \"contracts/Staking.sol\":6856:6895  lockInfo[IERC721(nftAddress)][_tokenId] */\n      dup2\n      mstore\n      0x20\n      add\n      swap1\n      dup2\n      mstore\n      0x20\n      add\n      0x00\n      keccak256\n        /* \"contracts/Staking.sol\":6833:6895  LockInfo memory info = lockInfo[IERC721(nftAddress)][_tokenId] */\n      mload(0x40)\n      dup1\n      0xa0\n      add\n      0x40\n      mstore\n      swap1\n      dup2\n      0x00\n      dup3\n      add\n      0x00\n      swap1\n      sload\n      swap1\n      0x0100\n      exp\n      swap1\n      div\n      0xffffffffffffffffffffffffffffffffffffffff\n      and\n      0xffffffffffffffffffffffffffffffffffffffff\n      and\n      0xffffffffffffffffffffffffffffffffffffffff\n      and\n      dup2\n      mstore\n      0x20\n      add\n      0x01\n      dup3\n      add\n      sload\n      dup2\n      mstore\n      0x20\n      add\n      0x02\n      dup3\n      add\n      sload\n      dup2\n      mstore\n      0x20\n      add\n      0x03\n      dup3\n      add\n      0x00\n      swap1\n      sload\n      swap1\n      0x0100\n      exp\n      swap1\n      div\n      0xff\n      and\n      iszero\n      iszero\n      iszero\n      iszero\n      dup2\n      mstore\n      0x20\n      add\n      0x03\n      dup3\n      add\n      0x01\n      swap1\n      sload\n      swap1\n      0x0100\n      exp\n      swap1\n      div\n      0xffffffffffffffffffffffffffffffffffffffff\n      and\n      0xffffffffffffffffffffffffffffffffffffffff\n      and\n      0xffffffffffffffffffffffffffffffffffffffff\n      and\n      dup2\n      mstore\n      pop\n      pop\n      swap1\n      pop\n        /* \"contracts/Staking.sol\":6906:6929  uint256 stakingDuration */\n      0x00\n        /* \"contracts/Staking.sol\":6950:6954  info */\n      dup2\n        /* \"contracts/Staking.sol\":6950:6965  info.lockedTime */\n      0x20\n      add\n      mload\n        /* \"contracts/Staking.sol\":6932:6947  block.timestamp */\n      timestamp\n        /* \"contracts/Staking.sol\":6932:6965  block.timestamp - info.lockedTime */\n      tag_244\n      swap2\n      swap1\n      tag_105\n      jump\t// in\n    tag_244:\n        /* \"contracts/Staking.sol\":6906:6965  uint256 stakingDuration = block.timestamp - info.lockedTime */\n      swap1\n      pop\n        /* \"contracts/Staking.sol\":6976:6995  uint256 totalAmount */\n      0x00\n        /* \"contracts/Staking.sol\":7030:7040  lockPeriod */\n      sload(0x02)\n        /* \"contracts/Staking.sol\":7012:7027  stakingDuration */\n      dup3\n        /* \"contracts/Staking.sol\":7012:7040  stakingDuration < lockPeriod */\n      lt\n        /* \"contracts/Staking.sol\":7008:7234  if (stakingDuration < lockPeriod) {... */\n      iszero\n      tag_245\n      jumpi\n        /* \"contracts/Staking.sol\":7064:7065  0 */\n      0x00\n        /* \"contracts/Staking.sol\":7057:7065  return 0 */\n      swap4\n      pop\n      pop\n      pop\n      pop\n      jump(tag_243)\n        /* \"contracts/Staking.sol\":7008:7234  if (stakingDuration < lockPeriod) {... */\n    tag_245:\n        /* \"contracts/Staking.sol\":7185:7189  WAVE */\n      sload(0x05)\n        /* \"contracts/Staking.sol\":7170:7180  lockPeriod */\n      sload(0x02)\n        /* \"contracts/Staking.sol\":7152:7167  stakingDuration */\n      dup4\n        /* \"contracts/Staking.sol\":7152:7180  stakingDuration - lockPeriod */\n      tag_247\n      swap2\n      swap1\n      tag_105\n      jump\t// in\n    tag_247:\n        /* \"contracts/Staking.sol\":7114:7121  nftInfo */\n      0x04\n        /* \"contracts/Staking.sol\":7114:7133  nftInfo[nftAddress] */\n      0x00\n        /* \"contracts/Staking.sol\":7122:7132  nftAddress */\n      dup9\n        /* \"contracts/Staking.sol\":7114:7133  nftInfo[nftAddress] */\n      0xffffffffffffffffffffffffffffffffffffffff\n      and\n      0xffffffffffffffffffffffffffffffffffffffff\n      and\n      dup2\n      mstore\n      0x20\n      add\n      swap1\n      dup2\n      mstore\n      0x20\n      add\n      0x00\n      keccak256\n        /* \"contracts/Staking.sol\":7114:7148  nftInfo[nftAddress].rewardsPerWave */\n      0x01\n      add\n      sload\n        /* \"contracts/Staking.sol\":7114:7181  nftInfo[nftAddress].rewardsPerWave * (stakingDuration - lockPeriod) */\n      tag_248\n      swap2\n      swap1\n      tag_249\n      jump\t// in\n    tag_248:\n        /* \"contracts/Staking.sol\":7112:7189  ( nftInfo[nftAddress].rewardsPerWave * (stakingDuration - lockPeriod)) / WAVE */\n      tag_250\n      swap2\n      swap1\n      tag_251\n      jump\t// in\n    tag_250:\n        /* \"contracts/Staking.sol\":7098:7189  totalAmount = ( nftInfo[nftAddress].rewardsPerWave * (stakingDuration - lockPeriod)) / WAVE */\n      swap1\n      pop\n        /* \"contracts/Staking.sol\":7211:7222  totalAmount */\n      dup1\n        /* \"contracts/Staking.sol\":7204:7222  return totalAmount */\n      swap4\n      pop\n      pop\n      pop\n      pop\n        /* \"contracts/Staking.sol\":6729:7241  function _rewardAmount(uint256 _tokenId, IERC721 nftAddress) internal view returns (uint256) {... */\n    tag_243:\n      swap3\n      swap2\n      pop\n      pop\n      jump\t// out\n        /* \"@openzeppelin/contracts/access/Ownable.sol\":1359:1489  function _checkOwner() internal view virtual {... */\n    tag_120:\n        /* \"@openzeppelin/contracts/access/Ownable.sol\":1433:1445  _msgSender() */\n      tag_253\n        /* \"@openzeppelin/contracts/access/Ownable.sol\":1433:1443  _msgSender */\n      tag_254\n        /* \"@openzeppelin/contracts/access/Ownable.sol\":1433:1445  _msgSender() */\n      jump\t// in\n    tag_253:\n        /* \"@openzeppelin/contracts/access/Ownable.sol\":1422:1445  owner() == _msgSender() */\n      0xffffffffffffffffffffffffffffffffffffffff\n      and\n        /* \"@openzeppelin/contracts/access/Ownable.sol\":1422:1429  owner() */\n      tag_255\n        /* \"@openzeppelin/contracts/access/Ownable.sol\":1422:1427  owner */\n      tag_40\n        /* \"@openzeppelin/contracts/access/Ownable.sol\":1422:1429  owner() */\n      jump\t// in\n    tag_255:\n        /* \"@openzeppelin/contracts/access/Ownable.sol\":1422:1445  owner() == _msgSender() */\n      0xffffffffffffffffffffffffffffffffffffffff\n      and\n      eq\n        /* \"@openzeppelin/contracts/access/Ownable.sol\":1414:1482  require(owner() == _msgSender(), \"Ownable: caller is not the owner\") */\n      tag_256\n      jumpi\n      mload(0x40)\n      0x08c379a000000000000000000000000000000000000000000000000000000000\n      dup2\n      mstore\n      0x04\n      add\n      tag_257\n      swap1\n      tag_258\n      jump\t// in\n    tag_257:\n      mload(0x40)\n      dup1\n      swap2\n      sub\n      swap1\n      revert\n    tag_256:\n        /* \"@openzeppelin/contracts/access/Ownable.sol\":1359:1489  function _checkOwner() internal view virtual {... */\n      jump\t// out\n        /* \"@openzeppelin/contracts/access/Ownable.sol\":2433:2620  function _transferOwnership(address newOwner) internal virtual {... */\n    tag_180:\n        /* \"@openzeppelin/contracts/access/Ownable.sol\":2506:2522  address oldOwner */\n      0x00\n        /* \"@openzeppelin/contracts/access/Ownable.sol\":2525:2531  _owner */\n      dup1\n      0x00\n      swap1\n      sload\n      swap1\n      0x0100\n      exp\n      swap1\n      div\n      0xffffffffffffffffffffffffffffffffffffffff\n      and\n        /* \"@openzeppelin/contracts/access/Ownable.sol\":2506:2531  address oldOwner = _owner */\n      swap1\n      pop\n        /* \"@openzeppelin/contracts/access/Ownable.sol\":2550:2558  newOwner */\n      dup2\n        /* \"@openzeppelin/contracts/access/Ownable.sol\":2541:2547  _owner */\n      0x00\n      dup1\n        /* \"@openzeppelin/contracts/access/Ownable.sol\":2541:2558  _owner = newOwner */\n      0x0100\n      exp\n      dup2\n      sload\n      dup2\n      0xffffffffffffffffffffffffffffffffffffffff\n      mul\n      not\n      and\n      swap1\n      dup4\n      0xffffffffffffffffffffffffffffffffffffffff\n      and\n      mul\n      or\n      swap1\n      sstore\n      pop\n        /* \"@openzeppelin/contracts/access/Ownable.sol\":2604:2612  newOwner */\n      dup2\n        /* \"@openzeppelin/contracts/access/Ownable.sol\":2573:2613  OwnershipTransferred(oldOwner, newOwner) */\n      0xffffffffffffffffffffffffffffffffffffffff\n      and\n        /* \"@openzeppelin/contracts/access/Ownable.sol\":2594:2602  oldOwner */\n      dup2\n        /* \"@openzeppelin/contracts/access/Ownable.sol\":2573:2613  OwnershipTransferred(oldOwner, newOwner) */\n      0xffffffffffffffffffffffffffffffffffffffff\n      and\n      0x8be0079c531659141344cd1fd0a4f28419497f9722a3daafe3b4186f6b6457e0\n      mload(0x40)\n      mload(0x40)\n      dup1\n      swap2\n      sub\n      swap1\n      log3\n        /* \"@openzeppelin/contracts/access/Ownable.sol\":2496:2620  {... */\n      pop\n        /* \"@openzeppelin/contracts/access/Ownable.sol\":2433:2620  function _transferOwnership(address newOwner) internal virtual {... */\n      pop\n      jump\t// out\n        /* \"@openzeppelin/contracts/utils/Context.sol\":640:736  function _msgSender() internal view virtual returns (address) {... */\n    tag_254:\n        /* \"@openzeppelin/contracts/utils/Context.sol\":693:700  address */\n      0x00\n        /* \"@openzeppelin/contracts/utils/Context.sol\":719:729  msg.sender */\n      caller\n        /* \"@openzeppelin/contracts/utils/Context.sol\":712:729  return msg.sender */\n      swap1\n      pop\n        /* \"@openzeppelin/contracts/utils/Context.sol\":640:736  function _msgSender() internal view virtual returns (address) {... */\n      swap1\n      jump\t// out\n        /* \"#utility.yul\":7:82   */\n    tag_261:\n        /* \"#utility.yul\":40:46   */\n      0x00\n        /* \"#utility.yul\":73:75   */\n      0x40\n        /* \"#utility.yul\":67:76   */\n      mload\n        /* \"#utility.yul\":57:76   */\n      swap1\n      pop\n        /* \"#utility.yul\":7:82   */\n      swap1\n      jump\t// out\n        /* \"#utility.yul\":88:205   */\n    tag_262:\n        /* \"#utility.yul\":197:198   */\n      0x00\n        /* \"#utility.yul\":194:195   */\n      dup1\n        /* \"#utility.yul\":187:199   */\n      revert\n        /* \"#utility.yul\":211:328   */\n    tag_263:\n        /* \"#utility.yul\":320:321   */\n      0x00\n        /* \"#utility.yul\":317:318   */\n      dup1\n        /* \"#utility.yul\":310:322   */\n      revert\n        /* \"#utility.yul\":334:451   */\n    tag_264:\n        /* \"#utility.yul\":443:444   */\n      0x00\n        /* \"#utility.yul\":440:441   */\n      dup1\n        /* \"#utility.yul\":433:445   */\n      revert\n        /* \"#utility.yul\":457:574   */\n    tag_265:\n        /* \"#utility.yul\":566:567   */\n      0x00\n        /* \"#utility.yul\":563:564   */\n      dup1\n        /* \"#utility.yul\":556:568   */\n      revert\n        /* \"#utility.yul\":580:697   */\n    tag_266:\n        /* \"#utility.yul\":689:690   */\n      0x00\n        /* \"#utility.yul\":686:687   */\n      dup1\n        /* \"#utility.yul\":679:691   */\n      revert\n        /* \"#utility.yul\":720:1288   */\n    tag_267:\n        /* \"#utility.yul\":793:801   */\n      0x00\n        /* \"#utility.yul\":803:809   */\n      dup1\n        /* \"#utility.yul\":853:856   */\n      dup4\n        /* \"#utility.yul\":846:850   */\n      0x1f\n        /* \"#utility.yul\":838:844   */\n      dup5\n        /* \"#utility.yul\":834:851   */\n      add\n        /* \"#utility.yul\":830:857   */\n      slt\n        /* \"#utility.yul\":820:942   */\n      tag_339\n      jumpi\n        /* \"#utility.yul\":861:940   */\n      tag_340\n      tag_264\n      jump\t// in\n    tag_340:\n        /* \"#utility.yul\":820:942   */\n    tag_339:\n        /* \"#utility.yul\":974:980   */\n      dup3\n        /* \"#utility.yul\":961:981   */\n      calldataload\n        /* \"#utility.yul\":951:981   */\n      swap1\n      pop\n        /* \"#utility.yul\":1004:1022   */\n      0xffffffffffffffff\n        /* \"#utility.yul\":996:1002   */\n      dup2\n        /* \"#utility.yul\":993:1023   */\n      gt\n        /* \"#utility.yul\":990:1107   */\n      iszero\n      tag_341\n      jumpi\n        /* \"#utility.yul\":1026:1105   */\n      tag_342\n      tag_265\n      jump\t// in\n    tag_342:\n        /* \"#utility.yul\":990:1107   */\n    tag_341:\n        /* \"#utility.yul\":1140:1144   */\n      0x20\n        /* \"#utility.yul\":1132:1138   */\n      dup4\n        /* \"#utility.yul\":1128:1145   */\n      add\n        /* \"#utility.yul\":1116:1145   */\n      swap2\n      pop\n        /* \"#utility.yul\":1194:1197   */\n      dup4\n        /* \"#utility.yul\":1186:1190   */\n      0x20\n        /* \"#utility.yul\":1178:1184   */\n      dup3\n        /* \"#utility.yul\":1174:1191   */\n      mul\n        /* \"#utility.yul\":1164:1172   */\n      dup4\n        /* \"#utility.yul\":1160:1192   */\n      add\n        /* \"#utility.yul\":1157:1198   */\n      gt\n        /* \"#utility.yul\":1154:1282   */\n      iszero\n      tag_343\n      jumpi\n        /* \"#utility.yul\":1201:1280   */\n      tag_344\n      tag_266\n      jump\t// in\n    tag_344:\n        /* \"#utility.yul\":1154:1282   */\n    tag_343:\n        /* \"#utility.yul\":720:1288   */\n      swap3\n      pop\n      swap3\n      swap1\n      pop\n      jump\t// out\n        /* \"#utility.yul\":1294:1420   */\n    tag_268:\n        /* \"#utility.yul\":1331:1338   */\n      0x00\n        /* \"#utility.yul\":1371:1413   */\n      0xffffffffffffffffffffffffffffffffffffffff\n        /* \"#utility.yul\":1364:1369   */\n      dup3\n        /* \"#utility.yul\":1360:1414   */\n      and\n        /* \"#utility.yul\":1349:1414   */\n      swap1\n      pop\n        /* \"#utility.yul\":1294:1420   */\n      swap2\n      swap1\n      pop\n      jump\t// out\n        /* \"#utility.yul\":1426:1522   */\n    tag_269:\n        /* \"#utility.yul\":1463:1470   */\n      0x00\n        /* \"#utility.yul\":1492:1516   */\n      tag_347\n        /* \"#utility.yul\":1510:1515   */\n      dup3\n        /* \"#utility.yul\":1492:1516   */\n      tag_268\n      jump\t// in\n    tag_347:\n        /* \"#utility.yul\":1481:1516   */\n      swap1\n      pop\n        /* \"#utility.yul\":1426:1522   */\n      swap2\n      swap1\n      pop\n      jump\t// out\n        /* \"#utility.yul\":1528:1639   */\n    tag_270:\n        /* \"#utility.yul\":1580:1587   */\n      0x00\n        /* \"#utility.yul\":1609:1633   */\n      tag_349\n        /* \"#utility.yul\":1627:1632   */\n      dup3\n        /* \"#utility.yul\":1609:1633   */\n      tag_269\n      jump\t// in\n    tag_349:\n        /* \"#utility.yul\":1598:1633   */\n      swap1\n      pop\n        /* \"#utility.yul\":1528:1639   */\n      swap2\n      swap1\n      pop\n      jump\t// out\n        /* \"#utility.yul\":1645:1797   */\n    tag_271:\n        /* \"#utility.yul\":1733:1772   */\n      tag_351\n        /* \"#utility.yul\":1766:1771   */\n      dup2\n        /* \"#utility.yul\":1733:1772   */\n      tag_270\n      jump\t// in\n    tag_351:\n        /* \"#utility.yul\":1726:1731   */\n      dup2\n        /* \"#utility.yul\":1723:1773   */\n      eq\n        /* \"#utility.yul\":1713:1791   */\n      tag_352\n      jumpi\n        /* \"#utility.yul\":1787:1788   */\n      0x00\n        /* \"#utility.yul\":1784:1785   */\n      dup1\n        /* \"#utility.yul\":1777:1789   */\n      revert\n        /* \"#utility.yul\":1713:1791   */\n    tag_352:\n        /* \"#utility.yul\":1645:1797   */\n      pop\n      jump\t// out\n        /* \"#utility.yul\":1803:1972   */\n    tag_272:\n        /* \"#utility.yul\":1864:1869   */\n      0x00\n        /* \"#utility.yul\":1902:1908   */\n      dup2\n        /* \"#utility.yul\":1889:1909   */\n      calldataload\n        /* \"#utility.yul\":1880:1909   */\n      swap1\n      pop\n        /* \"#utility.yul\":1918:1966   */\n      tag_354\n        /* \"#utility.yul\":1960:1965   */\n      dup2\n        /* \"#utility.yul\":1918:1966   */\n      tag_271\n      jump\t// in\n    tag_354:\n        /* \"#utility.yul\":1803:1972   */\n      swap3\n      swap2\n      pop\n      pop\n      jump\t// out\n        /* \"#utility.yul\":1978:2712   */\n    tag_20:\n        /* \"#utility.yul\":2088:2094   */\n      0x00\n        /* \"#utility.yul\":2096:2102   */\n      dup1\n        /* \"#utility.yul\":2104:2110   */\n      0x00\n        /* \"#utility.yul\":2153:2155   */\n      0x40\n        /* \"#utility.yul\":2141:2150   */\n      dup5\n        /* \"#utility.yul\":2132:2139   */\n      dup7\n        /* \"#utility.yul\":2128:2151   */\n      sub\n        /* \"#utility.yul\":2124:2156   */\n      slt\n        /* \"#utility.yul\":2121:2240   */\n      iszero\n      tag_356\n      jumpi\n        /* \"#utility.yul\":2159:2238   */\n      tag_357\n      tag_262\n      jump\t// in\n    tag_357:\n        /* \"#utility.yul\":2121:2240   */\n    tag_356:\n        /* \"#utility.yul\":2307:2308   */\n      0x00\n        /* \"#utility.yul\":2296:2305   */\n      dup5\n        /* \"#utility.yul\":2292:2309   */\n      add\n        /* \"#utility.yul\":2279:2310   */\n      calldataload\n        /* \"#utility.yul\":2337:2355   */\n      0xffffffffffffffff\n        /* \"#utility.yul\":2329:2335   */\n      dup2\n        /* \"#utility.yul\":2326:2356   */\n      gt\n        /* \"#utility.yul\":2323:2440   */\n      iszero\n      tag_358\n      jumpi\n        /* \"#utility.yul\":2359:2438   */\n      tag_359\n      tag_263\n      jump\t// in\n    tag_359:\n        /* \"#utility.yul\":2323:2440   */\n    tag_358:\n        /* \"#utility.yul\":2472:2552   */\n      tag_360\n        /* \"#utility.yul\":2544:2551   */\n      dup7\n        /* \"#utility.yul\":2535:2541   */\n      dup3\n        /* \"#utility.yul\":2524:2533   */\n      dup8\n        /* \"#utility.yul\":2520:2542   */\n      add\n        /* \"#utility.yul\":2472:2552   */\n      tag_267\n      jump\t// in\n    tag_360:\n        /* \"#utility.yul\":2454:2552   */\n      swap4\n      pop\n      swap4\n      pop\n        /* \"#utility.yul\":2250:2562   */\n      pop\n        /* \"#utility.yul\":2601:2603   */\n      0x20\n        /* \"#utility.yul\":2627:2695   */\n      tag_361\n        /* \"#utility.yul\":2687:2694   */\n      dup7\n        /* \"#utility.yul\":2678:2684   */\n      dup3\n        /* \"#utility.yul\":2667:2676   */\n      dup8\n        /* \"#utility.yul\":2663:2685   */\n      add\n        /* \"#utility.yul\":2627:2695   */\n      tag_272\n      jump\t// in\n    tag_361:\n        /* \"#utility.yul\":2617:2695   */\n      swap2\n      pop\n        /* \"#utility.yul\":2572:2705   */\n      pop\n        /* \"#utility.yul\":1978:2712   */\n      swap3\n      pop\n      swap3\n      pop\n      swap3\n      jump\t// out\n        /* \"#utility.yul\":2718:2820   */\n    tag_273:\n        /* \"#utility.yul\":2759:2765   */\n      0x00\n        /* \"#utility.yul\":2810:2812   */\n      0x1f\n        /* \"#utility.yul\":2806:2813   */\n      not\n        /* \"#utility.yul\":2801:2803   */\n      0x1f\n        /* \"#utility.yul\":2794:2799   */\n      dup4\n        /* \"#utility.yul\":2790:2804   */\n      add\n        /* \"#utility.yul\":2786:2814   */\n      and\n        /* \"#utility.yul\":2776:2814   */\n      swap1\n      pop\n        /* \"#utility.yul\":2718:2820   */\n      swap2\n      swap1\n      pop\n      jump\t// out\n        /* \"#utility.yul\":2826:3006   */\n    tag_274:\n        /* \"#utility.yul\":2874:2951   */\n      0x4e487b7100000000000000000000000000000000000000000000000000000000\n        /* \"#utility.yul\":2871:2872   */\n      0x00\n        /* \"#utility.yul\":2864:2952   */\n      mstore\n        /* \"#utility.yul\":2971:2975   */\n      0x41\n        /* \"#utility.yul\":2968:2969   */\n      0x04\n        /* \"#utility.yul\":2961:2976   */\n      mstore\n        /* \"#utility.yul\":2995:2999   */\n      0x24\n        /* \"#utility.yul\":2992:2993   */\n      0x00\n        /* \"#utility.yul\":2985:3000   */\n      revert\n        /* \"#utility.yul\":3012:3293   */\n    tag_275:\n        /* \"#utility.yul\":3095:3122   */\n      tag_365\n        /* \"#utility.yul\":3117:3121   */\n      dup3\n        /* \"#utility.yul\":3095:3122   */\n      tag_273\n      jump\t// in\n    tag_365:\n        /* \"#utility.yul\":3087:3093   */\n      dup2\n        /* \"#utility.yul\":3083:3123   */\n      add\n        /* \"#utility.yul\":3225:3231   */\n      dup2\n        /* \"#utility.yul\":3213:3223   */\n      dup2\n        /* \"#utility.yul\":3210:3232   */\n      lt\n        /* \"#utility.yul\":3189:3207   */\n      0xffffffffffffffff\n        /* \"#utility.yul\":3177:3187   */\n      dup3\n        /* \"#utility.yul\":3174:3208   */\n      gt\n        /* \"#utility.yul\":3171:3233   */\n      or\n        /* \"#utility.yul\":3168:3256   */\n      iszero\n      tag_366\n      jumpi\n        /* \"#utility.yul\":3236:3254   */\n      tag_367\n      tag_274\n      jump\t// in\n    tag_367:\n        /* \"#utility.yul\":3168:3256   */\n    tag_366:\n        /* \"#utility.yul\":3276:3286   */\n      dup1\n        /* \"#utility.yul\":3272:3274   */\n      0x40\n        /* \"#utility.yul\":3265:3287   */\n      mstore\n        /* \"#utility.yul\":3055:3293   */\n      pop\n        /* \"#utility.yul\":3012:3293   */\n      pop\n      pop\n      jump\t// out\n        /* \"#utility.yul\":3299:3428   */\n    tag_276:\n        /* \"#utility.yul\":3333:3339   */\n      0x00\n        /* \"#utility.yul\":3360:3380   */\n      tag_369\n      tag_261\n      jump\t// in\n    tag_369:\n        /* \"#utility.yul\":3350:3380   */\n      swap1\n      pop\n        /* \"#utility.yul\":3389:3422   */\n      tag_370\n        /* \"#utility.yul\":3417:3421   */\n      dup3\n        /* \"#utility.yul\":3409:3415   */\n      dup3\n        /* \"#utility.yul\":3389:3422   */\n      tag_275\n      jump\t// in\n    tag_370:\n        /* \"#utility.yul\":3299:3428   */\n      swap2\n      swap1\n      pop\n      jump\t// out\n        /* \"#utility.yul\":3434:3745   */\n    tag_277:\n        /* \"#utility.yul\":3511:3515   */\n      0x00\n        /* \"#utility.yul\":3601:3619   */\n      0xffffffffffffffff\n        /* \"#utility.yul\":3593:3599   */\n      dup3\n        /* \"#utility.yul\":3590:3620   */\n      gt\n        /* \"#utility.yul\":3587:3643   */\n      iszero\n      tag_372\n      jumpi\n        /* \"#utility.yul\":3623:3641   */\n      tag_373\n      tag_274\n      jump\t// in\n    tag_373:\n        /* \"#utility.yul\":3587:3643   */\n    tag_372:\n        /* \"#utility.yul\":3673:3677   */\n      0x20\n        /* \"#utility.yul\":3665:3671   */\n      dup3\n        /* \"#utility.yul\":3661:3678   */\n      mul\n        /* \"#utility.yul\":3653:3678   */\n      swap1\n      pop\n        /* \"#utility.yul\":3733:3737   */\n      0x20\n        /* \"#utility.yul\":3727:3731   */\n      dup2\n        /* \"#utility.yul\":3723:3738   */\n      add\n        /* \"#utility.yul\":3715:3738   */\n      swap1\n      pop\n        /* \"#utility.yul\":3434:3745   */\n      swap2\n      swap1\n      pop\n      jump\t// out\n        /* \"#utility.yul\":3751:3873   */\n    tag_278:\n        /* \"#utility.yul\":3824:3848   */\n      tag_375\n        /* \"#utility.yul\":3842:3847   */\n      dup2\n        /* \"#utility.yul\":3824:3848   */\n      tag_269\n      jump\t// in\n    tag_375:\n        /* \"#utility.yul\":3817:3822   */\n      dup2\n        /* \"#utility.yul\":3814:3849   */\n      eq\n        /* \"#utility.yul\":3804:3867   */\n      tag_376\n      jumpi\n        /* \"#utility.yul\":3863:3864   */\n      0x00\n        /* \"#utility.yul\":3860:3861   */\n      dup1\n        /* \"#utility.yul\":3853:3865   */\n      revert\n        /* \"#utility.yul\":3804:3867   */\n    tag_376:\n        /* \"#utility.yul\":3751:3873   */\n      pop\n      jump\t// out\n        /* \"#utility.yul\":3879:4018   */\n    tag_279:\n        /* \"#utility.yul\":3925:3930   */\n      0x00\n        /* \"#utility.yul\":3963:3969   */\n      dup2\n        /* \"#utility.yul\":3950:3970   */\n      calldataload\n        /* \"#utility.yul\":3941:3970   */\n      swap1\n      pop\n        /* \"#utility.yul\":3979:4012   */\n      tag_378\n        /* \"#utility.yul\":4006:4011   */\n      dup2\n        /* \"#utility.yul\":3979:4012   */\n      tag_278\n      jump\t// in\n    tag_378:\n        /* \"#utility.yul\":3879:4018   */\n      swap3\n      swap2\n      pop\n      pop\n      jump\t// out\n        /* \"#utility.yul\":4041:4751   */\n    tag_280:\n        /* \"#utility.yul\":4137:4142   */\n      0x00\n        /* \"#utility.yul\":4162:4243   */\n      tag_380\n        /* \"#utility.yul\":4178:4242   */\n      tag_381\n        /* \"#utility.yul\":4235:4241   */\n      dup5\n        /* \"#utility.yul\":4178:4242   */\n      tag_277\n      jump\t// in\n    tag_381:\n        /* \"#utility.yul\":4162:4243   */\n      tag_276\n      jump\t// in\n    tag_380:\n        /* \"#utility.yul\":4153:4243   */\n      swap1\n      pop\n        /* \"#utility.yul\":4263:4268   */\n      dup1\n        /* \"#utility.yul\":4292:4298   */\n      dup4\n        /* \"#utility.yul\":4285:4290   */\n      dup3\n        /* \"#utility.yul\":4278:4299   */\n      mstore\n        /* \"#utility.yul\":4326:4330   */\n      0x20\n        /* \"#utility.yul\":4319:4324   */\n      dup3\n        /* \"#utility.yul\":4315:4331   */\n      add\n        /* \"#utility.yul\":4308:4331   */\n      swap1\n      pop\n        /* \"#utility.yul\":4379:4383   */\n      0x20\n        /* \"#utility.yul\":4371:4377   */\n      dup5\n        /* \"#utility.yul\":4367:4384   */\n      mul\n        /* \"#utility.yul\":4359:4365   */\n      dup4\n        /* \"#utility.yul\":4355:4385   */\n      add\n        /* \"#utility.yul\":4408:4411   */\n      dup6\n        /* \"#utility.yul\":4400:4406   */\n      dup2\n        /* \"#utility.yul\":4397:4412   */\n      gt\n        /* \"#utility.yul\":4394:4516   */\n      iszero\n      tag_382\n      jumpi\n        /* \"#utility.yul\":4427:4506   */\n      tag_383\n      tag_266\n      jump\t// in\n    tag_383:\n        /* \"#utility.yul\":4394:4516   */\n    tag_382:\n        /* \"#utility.yul\":4542:4548   */\n      dup4\n        /* \"#utility.yul\":4525:4745   */\n    tag_384:\n        /* \"#utility.yul\":4559:4565   */\n      dup2\n        /* \"#utility.yul\":4554:4557   */\n      dup2\n        /* \"#utility.yul\":4551:4566   */\n      lt\n        /* \"#utility.yul\":4525:4745   */\n      iszero\n      tag_386\n      jumpi\n        /* \"#utility.yul\":4634:4637   */\n      dup1\n        /* \"#utility.yul\":4663:4700   */\n      tag_387\n        /* \"#utility.yul\":4696:4699   */\n      dup9\n        /* \"#utility.yul\":4684:4694   */\n      dup3\n        /* \"#utility.yul\":4663:4700   */\n      tag_279\n      jump\t// in\n    tag_387:\n        /* \"#utility.yul\":4658:4661   */\n      dup5\n        /* \"#utility.yul\":4651:4701   */\n      mstore\n        /* \"#utility.yul\":4730:4734   */\n      0x20\n        /* \"#utility.yul\":4725:4728   */\n      dup5\n        /* \"#utility.yul\":4721:4735   */\n      add\n        /* \"#utility.yul\":4714:4735   */\n      swap4\n      pop\n        /* \"#utility.yul\":4601:4745   */\n      pop\n        /* \"#utility.yul\":4585:4589   */\n      0x20\n        /* \"#utility.yul\":4580:4583   */\n      dup2\n        /* \"#utility.yul\":4576:4590   */\n      add\n        /* \"#utility.yul\":4569:4590   */\n      swap1\n      pop\n        /* \"#utility.yul\":4525:4745   */\n      jump(tag_384)\n    tag_386:\n        /* \"#utility.yul\":4529:4550   */\n      pop\n        /* \"#utility.yul\":4143:4751   */\n      pop\n      pop\n        /* \"#utility.yul\":4041:4751   */\n      swap4\n      swap3\n      pop\n      pop\n      pop\n      jump\t// out\n        /* \"#utility.yul\":4774:5144   */\n    tag_281:\n        /* \"#utility.yul\":4845:4850   */\n      0x00\n        /* \"#utility.yul\":4894:4897   */\n      dup3\n        /* \"#utility.yul\":4887:4891   */\n      0x1f\n        /* \"#utility.yul\":4879:4885   */\n      dup4\n        /* \"#utility.yul\":4875:4892   */\n      add\n        /* \"#utility.yul\":4871:4898   */\n      slt\n        /* \"#utility.yul\":4861:4983   */\n      tag_389\n      jumpi\n        /* \"#utility.yul\":4902:4981   */\n      tag_390\n      tag_264\n      jump\t// in\n    tag_390:\n        /* \"#utility.yul\":4861:4983   */\n    tag_389:\n        /* \"#utility.yul\":5019:5025   */\n      dup2\n        /* \"#utility.yul\":5006:5026   */\n      calldataload\n        /* \"#utility.yul\":5044:5138   */\n      tag_391\n        /* \"#utility.yul\":5134:5137   */\n      dup5\n        /* \"#utility.yul\":5126:5132   */\n      dup3\n        /* \"#utility.yul\":5119:5123   */\n      0x20\n        /* \"#utility.yul\":5111:5117   */\n      dup7\n        /* \"#utility.yul\":5107:5124   */\n      add\n        /* \"#utility.yul\":5044:5138   */\n      tag_280\n      jump\t// in\n    tag_391:\n        /* \"#utility.yul\":5035:5138   */\n      swap2\n      pop\n        /* \"#utility.yul\":4851:5144   */\n      pop\n        /* \"#utility.yul\":4774:5144   */\n      swap3\n      swap2\n      pop\n      pop\n      jump\t// out\n        /* \"#utility.yul\":5150:5461   */\n    tag_282:\n        /* \"#utility.yul\":5227:5231   */\n      0x00\n        /* \"#utility.yul\":5317:5335   */\n      0xffffffffffffffff\n        /* \"#utility.yul\":5309:5315   */\n      dup3\n        /* \"#utility.yul\":5306:5336   */\n      gt\n        /* \"#utility.yul\":5303:5359   */\n      iszero\n      tag_393\n      jumpi\n        /* \"#utility.yul\":5339:5357   */\n      tag_394\n      tag_274\n      jump\t// in\n    tag_394:\n        /* \"#utility.yul\":5303:5359   */\n    tag_393:\n        /* \"#utility.yul\":5389:5393   */\n      0x20\n        /* \"#utility.yul\":5381:5387   */\n      dup3\n        /* \"#utility.yul\":5377:5394   */\n      mul\n        /* \"#utility.yul\":5369:5394   */\n      swap1\n      pop\n        /* \"#utility.yul\":5449:5453   */\n      0x20\n        /* \"#utility.yul\":5443:5447   */\n      dup2\n        /* \"#utility.yul\":5439:5454   */\n      add\n        /* \"#utility.yul\":5431:5454   */\n      swap1\n      pop\n        /* \"#utility.yul\":5150:5461   */\n      swap2\n      swap1\n      pop\n      jump\t// out\n        /* \"#utility.yul\":5467:5544   */\n    tag_283:\n        /* \"#utility.yul\":5504:5511   */\n      0x00\n        /* \"#utility.yul\":5533:5538   */\n      dup2\n        /* \"#utility.yul\":5522:5538   */\n      swap1\n      pop\n        /* \"#utility.yul\":5467:5544   */\n      swap2\n      swap1\n      pop\n      jump\t// out\n        /* \"#utility.yul\":5550:5672   */\n    tag_284:\n        /* \"#utility.yul\":5623:5647   */\n      tag_397\n        /* \"#utility.yul\":5641:5646   */\n      dup2\n        /* \"#utility.yul\":5623:5647   */\n      tag_283\n      jump\t// in\n    tag_397:\n        /* \"#utility.yul\":5616:5621   */\n      dup2\n        /* \"#utility.yul\":5613:5648   */\n      eq\n        /* \"#utility.yul\":5603:5666   */\n      tag_398\n      jumpi\n        /* \"#utility.yul\":5662:5663   */\n      0x00\n        /* \"#utility.yul\":5659:5660   */\n      dup1\n        /* \"#utility.yul\":5652:5664   */\n      revert\n        /* \"#utility.yul\":5603:5666   */\n    tag_398:\n        /* \"#utility.yul\":5550:5672   */\n      pop\n      jump\t// out\n        /* \"#utility.yul\":5678:5817   */\n    tag_285:\n        /* \"#utility.yul\":5724:5729   */\n      0x00\n        /* \"#utility.yul\":5762:5768   */\n      dup2\n        /* \"#utility.yul\":5749:5769   */\n      calldataload\n        /* \"#utility.yul\":5740:5769   */\n      swap1\n      pop\n        /* \"#utility.yul\":5778:5811   */\n      tag_400\n        /* \"#utility.yul\":5805:5810   */\n      dup2\n        /* \"#utility.yul\":5778:5811   */\n      tag_284\n      jump\t// in\n    tag_400:\n        /* \"#utility.yul\":5678:5817   */\n      swap3\n      swap2\n      pop\n      pop\n      jump\t// out\n        /* \"#utility.yul\":5840:6550   */\n    tag_286:\n        /* \"#utility.yul\":5936:5941   */\n      0x00\n        /* \"#utility.yul\":5961:6042   */\n      tag_402\n        /* \"#utility.yul\":5977:6041   */\n      tag_403\n        /* \"#utility.yul\":6034:6040   */\n      dup5\n        /* \"#utility.yul\":5977:6041   */\n      tag_282\n      jump\t// in\n    tag_403:\n        /* \"#utility.yul\":5961:6042   */\n      tag_276\n      jump\t// in\n    tag_402:\n        /* \"#utility.yul\":5952:6042   */\n      swap1\n      pop\n        /* \"#utility.yul\":6062:6067   */\n      dup1\n        /* \"#utility.yul\":6091:6097   */\n      dup4\n        /* \"#utility.yul\":6084:6089   */\n      dup3\n        /* \"#utility.yul\":6077:6098   */\n      mstore\n        /* \"#utility.yul\":6125:6129   */\n      0x20\n        /* \"#utility.yul\":6118:6123   */\n      dup3\n        /* \"#utility.yul\":6114:6130   */\n      add\n        /* \"#utility.yul\":6107:6130   */\n      swap1\n      pop\n        /* \"#utility.yul\":6178:6182   */\n      0x20\n        /* \"#utility.yul\":6170:6176   */\n      dup5\n        /* \"#utility.yul\":6166:6183   */\n      mul\n        /* \"#utility.yul\":6158:6164   */\n      dup4\n        /* \"#utility.yul\":6154:6184   */\n      add\n        /* \"#utility.yul\":6207:6210   */\n      dup6\n        /* \"#utility.yul\":6199:6205   */\n      dup2\n        /* \"#utility.yul\":6196:6211   */\n      gt\n        /* \"#utility.yul\":6193:6315   */\n      iszero\n      tag_404\n      jumpi\n        /* \"#utility.yul\":6226:6305   */\n      tag_405\n      tag_266\n      jump\t// in\n    tag_405:\n        /* \"#utility.yul\":6193:6315   */\n    tag_404:\n        /* \"#utility.yul\":6341:6347   */\n      dup4\n        /* \"#utility.yul\":6324:6544   */\n    tag_406:\n        /* \"#utility.yul\":6358:6364   */\n      dup2\n        /* \"#utility.yul\":6353:6356   */\n      dup2\n        /* \"#utility.yul\":6350:6365   */\n      lt\n        /* \"#utility.yul\":6324:6544   */\n      iszero\n      tag_408\n      jumpi\n        /* \"#utility.yul\":6433:6436   */\n      dup1\n        /* \"#utility.yul\":6462:6499   */\n      tag_409\n        /* \"#utility.yul\":6495:6498   */\n      dup9\n        /* \"#utility.yul\":6483:6493   */\n      dup3\n        /* \"#utility.yul\":6462:6499   */\n      tag_285\n      jump\t// in\n    tag_409:\n        /* \"#utility.yul\":6457:6460   */\n      dup5\n        /* \"#utility.yul\":6450:6500   */\n      mstore\n        /* \"#utility.yul\":6529:6533   */\n      0x20\n        /* \"#utility.yul\":6524:6527   */\n      dup5\n        /* \"#utility.yul\":6520:6534   */\n      add\n        /* \"#utility.yul\":6513:6534   */\n      swap4\n      pop\n        /* \"#utility.yul\":6400:6544   */\n      pop\n        /* \"#utility.yul\":6384:6388   */\n      0x20\n        /* \"#utility.yul\":6379:6382   */\n      dup2\n        /* \"#utility.yul\":6375:6389   */\n      add\n        /* \"#utility.yul\":6368:6389   */\n      swap1\n      pop\n        /* \"#utility.yul\":6324:6544   */\n      jump(tag_406)\n    tag_408:\n        /* \"#utility.yul\":6328:6349   */\n      pop\n        /* \"#utility.yul\":5942:6550   */\n      pop\n      pop\n        /* \"#utility.yul\":5840:6550   */\n      swap4\n      swap3\n      pop\n      pop\n      pop\n      jump\t// out\n        /* \"#utility.yul\":6573:6943   */\n    tag_287:\n        /* \"#utility.yul\":6644:6649   */\n      0x00\n        /* \"#utility.yul\":6693:6696   */\n      dup3\n        /* \"#utility.yul\":6686:6690   */\n      0x1f\n        /* \"#utility.yul\":6678:6684   */\n      dup4\n        /* \"#utility.yul\":6674:6691   */\n      add\n        /* \"#utility.yul\":6670:6697   */\n      slt\n        /* \"#utility.yul\":6660:6782   */\n      tag_411\n      jumpi\n        /* \"#utility.yul\":6701:6780   */\n      tag_412\n      tag_264\n      jump\t// in\n    tag_412:\n        /* \"#utility.yul\":6660:6782   */\n    tag_411:\n        /* \"#utility.yul\":6818:6824   */\n      dup2\n        /* \"#utility.yul\":6805:6825   */\n      calldataload\n        /* \"#utility.yul\":6843:6937   */\n      tag_413\n        /* \"#utility.yul\":6933:6936   */\n      dup5\n        /* \"#utility.yul\":6925:6931   */\n      dup3\n        /* \"#utility.yul\":6918:6922   */\n      0x20\n        /* \"#utility.yul\":6910:6916   */\n      dup7\n        /* \"#utility.yul\":6906:6923   */\n      add\n        /* \"#utility.yul\":6843:6937   */\n      tag_286\n      jump\t// in\n    tag_413:\n        /* \"#utility.yul\":6834:6937   */\n      swap2\n      pop\n        /* \"#utility.yul\":6650:6943   */\n      pop\n        /* \"#utility.yul\":6573:6943   */\n      swap3\n      swap2\n      pop\n      pop\n      jump\t// out\n        /* \"#utility.yul\":6949:8554   */\n    tag_24:\n        /* \"#utility.yul\":7135:7141   */\n      0x00\n        /* \"#utility.yul\":7143:7149   */\n      dup1\n        /* \"#utility.yul\":7151:7157   */\n      0x00\n        /* \"#utility.yul\":7159:7165   */\n      dup1\n        /* \"#utility.yul\":7208:7211   */\n      0x80\n        /* \"#utility.yul\":7196:7205   */\n      dup6\n        /* \"#utility.yul\":7187:7194   */\n      dup8\n        /* \"#utility.yul\":7183:7206   */\n      sub\n        /* \"#utility.yul\":7179:7212   */\n      slt\n        /* \"#utility.yul\":7176:7296   */\n      iszero\n      tag_415\n      jumpi\n        /* \"#utility.yul\":7215:7294   */\n      tag_416\n      tag_262\n      jump\t// in\n    tag_416:\n        /* \"#utility.yul\":7176:7296   */\n    tag_415:\n        /* \"#utility.yul\":7363:7364   */\n      0x00\n        /* \"#utility.yul\":7352:7361   */\n      dup6\n        /* \"#utility.yul\":7348:7365   */\n      add\n        /* \"#utility.yul\":7335:7366   */\n      calldataload\n        /* \"#utility.yul\":7393:7411   */\n      0xffffffffffffffff\n        /* \"#utility.yul\":7385:7391   */\n      dup2\n        /* \"#utility.yul\":7382:7412   */\n      gt\n        /* \"#utility.yul\":7379:7496   */\n      iszero\n      tag_417\n      jumpi\n        /* \"#utility.yul\":7415:7494   */\n      tag_418\n      tag_263\n      jump\t// in\n    tag_418:\n        /* \"#utility.yul\":7379:7496   */\n    tag_417:\n        /* \"#utility.yul\":7520:7598   */\n      tag_419\n        /* \"#utility.yul\":7590:7597   */\n      dup8\n        /* \"#utility.yul\":7581:7587   */\n      dup3\n        /* \"#utility.yul\":7570:7579   */\n      dup9\n        /* \"#utility.yul\":7566:7588   */\n      add\n        /* \"#utility.yul\":7520:7598   */\n      tag_281\n      jump\t// in\n    tag_419:\n        /* \"#utility.yul\":7510:7598   */\n      swap5\n      pop\n        /* \"#utility.yul\":7306:7608   */\n      pop\n        /* \"#utility.yul\":7675:7677   */\n      0x20\n        /* \"#utility.yul\":7664:7673   */\n      dup6\n        /* \"#utility.yul\":7660:7678   */\n      add\n        /* \"#utility.yul\":7647:7679   */\n      calldataload\n        /* \"#utility.yul\":7706:7724   */\n      0xffffffffffffffff\n        /* \"#utility.yul\":7698:7704   */\n      dup2\n        /* \"#utility.yul\":7695:7725   */\n      gt\n        /* \"#utility.yul\":7692:7809   */\n      iszero\n      tag_420\n      jumpi\n        /* \"#utility.yul\":7728:7807   */\n      tag_421\n      tag_263\n      jump\t// in\n    tag_421:\n        /* \"#utility.yul\":7692:7809   */\n    tag_420:\n        /* \"#utility.yul\":7833:7911   */\n      tag_422\n        /* \"#utility.yul\":7903:7910   */\n      dup8\n        /* \"#utility.yul\":7894:7900   */\n      dup3\n        /* \"#utility.yul\":7883:7892   */\n      dup9\n        /* \"#utility.yul\":7879:7901   */\n      add\n        /* \"#utility.yul\":7833:7911   */\n      tag_281\n      jump\t// in\n    tag_422:\n        /* \"#utility.yul\":7823:7911   */\n      swap4\n      pop\n        /* \"#utility.yul\":7618:7921   */\n      pop\n        /* \"#utility.yul\":7988:7990   */\n      0x40\n        /* \"#utility.yul\":7977:7986   */\n      dup6\n        /* \"#utility.yul\":7973:7991   */\n      add\n        /* \"#utility.yul\":7960:7992   */\n      calldataload\n        /* \"#utility.yul\":8019:8037   */\n      0xffffffffffffffff\n        /* \"#utility.yul\":8011:8017   */\n      dup2\n        /* \"#utility.yul\":8008:8038   */\n      gt\n        /* \"#utility.yul\":8005:8122   */\n      iszero\n      tag_423\n      jumpi\n        /* \"#utility.yul\":8041:8120   */\n      tag_424\n      tag_263\n      jump\t// in\n    tag_424:\n        /* \"#utility.yul\":8005:8122   */\n    tag_423:\n        /* \"#utility.yul\":8146:8224   */\n      tag_425\n        /* \"#utility.yul\":8216:8223   */\n      dup8\n        /* \"#utility.yul\":8207:8213   */\n      dup3\n        /* \"#utility.yul\":8196:8205   */\n      dup9\n        /* \"#utility.yul\":8192:8214   */\n      add\n        /* \"#utility.yul\":8146:8224   */\n      tag_287\n      jump\t// in\n    tag_425:\n        /* \"#utility.yul\":8136:8224   */\n      swap3\n      pop\n        /* \"#utility.yul\":7931:8234   */\n      pop\n        /* \"#utility.yul\":8301:8303   */\n      0x60\n        /* \"#utility.yul\":8290:8299   */\n      dup6\n        /* \"#utility.yul\":8286:8304   */\n      add\n        /* \"#utility.yul\":8273:8305   */\n      calldataload\n        /* \"#utility.yul\":8332:8350   */\n      0xffffffffffffffff\n        /* \"#utility.yul\":8324:8330   */\n      dup2\n        /* \"#utility.yul\":8321:8351   */\n      gt\n        /* \"#utility.yul\":8318:8435   */\n      iszero\n      tag_426\n      jumpi\n        /* \"#utility.yul\":8354:8433   */\n      tag_427\n      tag_263\n      jump\t// in\n    tag_427:\n        /* \"#utility.yul\":8318:8435   */\n    tag_426:\n        /* \"#utility.yul\":8459:8537   */\n      tag_428\n        /* \"#utility.yul\":8529:8536   */\n      dup8\n        /* \"#utility.yul\":8520:8526   */\n      dup3\n        /* \"#utility.yul\":8509:8518   */\n      dup9\n        /* \"#utility.yul\":8505:8527   */\n      add\n        /* \"#utility.yul\":8459:8537   */\n      tag_287\n      jump\t// in\n    tag_428:\n        /* \"#utility.yul\":8449:8537   */\n      swap2\n      pop\n        /* \"#utility.yul\":8244:8547   */\n      pop\n        /* \"#utility.yul\":6949:8554   */\n      swap3\n      swap6\n      swap2\n      swap5\n      pop\n      swap3\n      pop\n      jump\t// out\n        /* \"#utility.yul\":8560:8678   */\n    tag_288:\n        /* \"#utility.yul\":8647:8671   */\n      tag_430\n        /* \"#utility.yul\":8665:8670   */\n      dup2\n        /* \"#utility.yul\":8647:8671   */\n      tag_283\n      jump\t// in\n    tag_430:\n        /* \"#utility.yul\":8642:8645   */\n      dup3\n        /* \"#utility.yul\":8635:8672   */\n      mstore\n        /* \"#utility.yul\":8560:8678   */\n      pop\n      pop\n      jump\t// out\n        /* \"#utility.yul\":8684:8906   */\n    tag_32:\n        /* \"#utility.yul\":8777:8781   */\n      0x00\n        /* \"#utility.yul\":8815:8817   */\n      0x20\n        /* \"#utility.yul\":8804:8813   */\n      dup3\n        /* \"#utility.yul\":8800:8818   */\n      add\n        /* \"#utility.yul\":8792:8818   */\n      swap1\n      pop\n        /* \"#utility.yul\":8828:8899   */\n      tag_432\n        /* \"#utility.yul\":8896:8897   */\n      0x00\n        /* \"#utility.yul\":8885:8894   */\n      dup4\n        /* \"#utility.yul\":8881:8898   */\n      add\n        /* \"#utility.yul\":8872:8878   */\n      dup5\n        /* \"#utility.yul\":8828:8899   */\n      tag_288\n      jump\t// in\n    tag_432:\n        /* \"#utility.yul\":8684:8906   */\n      swap3\n      swap2\n      pop\n      pop\n      jump\t// out\n        /* \"#utility.yul\":8912:9241   */\n    tag_37:\n        /* \"#utility.yul\":8971:8977   */\n      0x00\n        /* \"#utility.yul\":9020:9022   */\n      0x20\n        /* \"#utility.yul\":9008:9017   */\n      dup3\n        /* \"#utility.yul\":8999:9006   */\n      dup5\n        /* \"#utility.yul\":8995:9018   */\n      sub\n        /* \"#utility.yul\":8991:9023   */\n      slt\n        /* \"#utility.yul\":8988:9107   */\n      iszero\n      tag_434\n      jumpi\n        /* \"#utility.yul\":9026:9105   */\n      tag_435\n      tag_262\n      jump\t// in\n    tag_435:\n        /* \"#utility.yul\":8988:9107   */\n    tag_434:\n        /* \"#utility.yul\":9146:9147   */\n      0x00\n        /* \"#utility.yul\":9171:9224   */\n      tag_436\n        /* \"#utility.yul\":9216:9223   */\n      dup5\n        /* \"#utility.yul\":9207:9213   */\n      dup3\n        /* \"#utility.yul\":9196:9205   */\n      dup6\n        /* \"#utility.yul\":9192:9214   */\n      add\n        /* \"#utility.yul\":9171:9224   */\n      tag_285\n      jump\t// in\n    tag_436:\n        /* \"#utility.yul\":9161:9224   */\n      swap2\n      pop\n        /* \"#utility.yul\":9117:9234   */\n      pop\n        /* \"#utility.yul\":8912:9241   */\n      swap3\n      swap2\n      pop\n      pop\n      jump\t// out\n        /* \"#utility.yul\":9247:9365   */\n    tag_289:\n        /* \"#utility.yul\":9334:9358   */\n      tag_438\n        /* \"#utility.yul\":9352:9357   */\n      dup2\n        /* \"#utility.yul\":9334:9358   */\n      tag_269\n      jump\t// in\n    tag_438:\n        /* \"#utility.yul\":9329:9332   */\n      dup3\n        /* \"#utility.yul\":9322:9359   */\n      mstore\n        /* \"#utility.yul\":9247:9365   */\n      pop\n      pop\n      jump\t// out\n        /* \"#utility.yul\":9371:9593   */\n    tag_42:\n        /* \"#utility.yul\":9464:9468   */\n      0x00\n        /* \"#utility.yul\":9502:9504   */\n      0x20\n        /* \"#utility.yul\":9491:9500   */\n      dup3\n        /* \"#utility.yul\":9487:9505   */\n      add\n        /* \"#utility.yul\":9479:9505   */\n      swap1\n      pop\n        /* \"#utility.yul\":9515:9586   */\n      tag_440\n        /* \"#utility.yul\":9583:9584   */\n      0x00\n        /* \"#utility.yul\":9572:9581   */\n      dup4\n        /* \"#utility.yul\":9568:9585   */\n      add\n        /* \"#utility.yul\":9559:9565   */\n      dup5\n        /* \"#utility.yul\":9515:9586   */\n      tag_289\n      jump\t// in\n    tag_440:\n        /* \"#utility.yul\":9371:9593   */\n      swap3\n      swap2\n      pop\n      pop\n      jump\t// out\n        /* \"#utility.yul\":9599:10103   */\n    tag_48:\n        /* \"#utility.yul\":9682:9688   */\n      0x00\n        /* \"#utility.yul\":9690:9696   */\n      dup1\n        /* \"#utility.yul\":9739:9741   */\n      0x40\n        /* \"#utility.yul\":9727:9736   */\n      dup4\n        /* \"#utility.yul\":9718:9725   */\n      dup6\n        /* \"#utility.yul\":9714:9737   */\n      sub\n        /* \"#utility.yul\":9710:9742   */\n      slt\n        /* \"#utility.yul\":9707:9826   */\n      iszero\n      tag_442\n      jumpi\n        /* \"#utility.yul\":9745:9824   */\n      tag_443\n      tag_262\n      jump\t// in\n    tag_443:\n        /* \"#utility.yul\":9707:9826   */\n    tag_442:\n        /* \"#utility.yul\":9865:9866   */\n      0x00\n        /* \"#utility.yul\":9890:9958   */\n      tag_444\n        /* \"#utility.yul\":9950:9957   */\n      dup6\n        /* \"#utility.yul\":9941:9947   */\n      dup3\n        /* \"#utility.yul\":9930:9939   */\n      dup7\n        /* \"#utility.yul\":9926:9948   */\n      add\n        /* \"#utility.yul\":9890:9958   */\n      tag_272\n      jump\t// in\n    tag_444:\n        /* \"#utility.yul\":9880:9958   */\n      swap3\n      pop\n        /* \"#utility.yul\":9836:9968   */\n      pop\n        /* \"#utility.yul\":10007:10009   */\n      0x20\n        /* \"#utility.yul\":10033:10086   */\n      tag_445\n        /* \"#utility.yul\":10078:10085   */\n      dup6\n        /* \"#utility.yul\":10069:10075   */\n      dup3\n        /* \"#utility.yul\":10058:10067   */\n      dup7\n        /* \"#utility.yul\":10054:10076   */\n      add\n        /* \"#utility.yul\":10033:10086   */\n      tag_285\n      jump\t// in\n    tag_445:\n        /* \"#utility.yul\":10023:10086   */\n      swap2\n      pop\n        /* \"#utility.yul\":9978:10096   */\n      pop\n        /* \"#utility.yul\":9599:10103   */\n      swap3\n      pop\n      swap3\n      swap1\n      pop\n      jump\t// out\n        /* \"#utility.yul\":10109:10199   */\n    tag_290:\n        /* \"#utility.yul\":10143:10150   */\n      0x00\n        /* \"#utility.yul\":10186:10191   */\n      dup2\n        /* \"#utility.yul\":10179:10192   */\n      iszero\n        /* \"#utility.yul\":10172:10193   */\n      iszero\n        /* \"#utility.yul\":10161:10193   */\n      swap1\n      pop\n        /* \"#utility.yul\":10109:10199   */\n      swap2\n      swap1\n      pop\n      jump\t// out\n        /* \"#utility.yul\":10205:10314   */\n    tag_291:\n        /* \"#utility.yul\":10286:10307   */\n      tag_448\n        /* \"#utility.yul\":10301:10306   */\n      dup2\n        /* \"#utility.yul\":10286:10307   */\n      tag_290\n      jump\t// in\n    tag_448:\n        /* \"#utility.yul\":10281:10284   */\n      dup3\n        /* \"#utility.yul\":10274:10308   */\n      mstore\n        /* \"#utility.yul\":10205:10314   */\n      pop\n      pop\n      jump\t// out\n        /* \"#utility.yul\":10320:10380   */\n    tag_292:\n        /* \"#utility.yul\":10348:10351   */\n      0x00\n        /* \"#utility.yul\":10369:10374   */\n      dup2\n        /* \"#utility.yul\":10362:10374   */\n      swap1\n      pop\n        /* \"#utility.yul\":10320:10380   */\n      swap2\n      swap1\n      pop\n      jump\t// out\n        /* \"#utility.yul\":10386:10528   */\n    tag_293:\n        /* \"#utility.yul\":10436:10445   */\n      0x00\n        /* \"#utility.yul\":10469:10522   */\n      tag_451\n        /* \"#utility.yul\":10487:10521   */\n      tag_452\n        /* \"#utility.yul\":10496:10520   */\n      tag_453\n        /* \"#utility.yul\":10514:10519   */\n      dup5\n        /* \"#utility.yul\":10496:10520   */\n      tag_268\n      jump\t// in\n    tag_453:\n        /* \"#utility.yul\":10487:10521   */\n      tag_292\n      jump\t// in\n    tag_452:\n        /* \"#utility.yul\":10469:10522   */\n      tag_268\n      jump\t// in\n    tag_451:\n        /* \"#utility.yul\":10456:10522   */\n      swap1\n      pop\n        /* \"#utility.yul\":10386:10528   */\n      swap2\n      swap1\n      pop\n      jump\t// out\n        /* \"#utility.yul\":10534:10660   */\n    tag_294:\n        /* \"#utility.yul\":10584:10593   */\n      0x00\n        /* \"#utility.yul\":10617:10654   */\n      tag_455\n        /* \"#utility.yul\":10648:10653   */\n      dup3\n        /* \"#utility.yul\":10617:10654   */\n      tag_293\n      jump\t// in\n    tag_455:\n        /* \"#utility.yul\":10604:10654   */\n      swap1\n      pop\n        /* \"#utility.yul\":10534:10660   */\n      swap2\n      swap1\n      pop\n      jump\t// out\n        /* \"#utility.yul\":10666:10807   */\n    tag_295:\n        /* \"#utility.yul\":10731:10740   */\n      0x00\n        /* \"#utility.yul\":10764:10801   */\n      tag_457\n        /* \"#utility.yul\":10795:10800   */\n      dup3\n        /* \"#utility.yul\":10764:10801   */\n      tag_294\n      jump\t// in\n    tag_457:\n        /* \"#utility.yul\":10751:10801   */\n      swap1\n      pop\n        /* \"#utility.yul\":10666:10807   */\n      swap2\n      swap1\n      pop\n      jump\t// out\n        /* \"#utility.yul\":10813:10974   */\n    tag_296:\n        /* \"#utility.yul\":10915:10967   */\n      tag_459\n        /* \"#utility.yul\":10961:10966   */\n      dup2\n        /* \"#utility.yul\":10915:10967   */\n      tag_295\n      jump\t// in\n    tag_459:\n        /* \"#utility.yul\":10910:10913   */\n      dup3\n        /* \"#utility.yul\":10903:10968   */\n      mstore\n        /* \"#utility.yul\":10813:10974   */\n      pop\n      pop\n      jump\t// out\n        /* \"#utility.yul\":10980:11662   */\n    tag_51:\n        /* \"#utility.yul\":11194:11198   */\n      0x00\n        /* \"#utility.yul\":11232:11235   */\n      0xa0\n        /* \"#utility.yul\":11221:11230   */\n      dup3\n        /* \"#utility.yul\":11217:11236   */\n      add\n        /* \"#utility.yul\":11209:11236   */\n      swap1\n      pop\n        /* \"#utility.yul\":11246:11317   */\n      tag_461\n        /* \"#utility.yul\":11314:11315   */\n      0x00\n        /* \"#utility.yul\":11303:11312   */\n      dup4\n        /* \"#utility.yul\":11299:11316   */\n      add\n        /* \"#utility.yul\":11290:11296   */\n      dup9\n        /* \"#utility.yul\":11246:11317   */\n      tag_289\n      jump\t// in\n    tag_461:\n        /* \"#utility.yul\":11327:11399   */\n      tag_462\n        /* \"#utility.yul\":11395:11397   */\n      0x20\n        /* \"#utility.yul\":11384:11393   */\n      dup4\n        /* \"#utility.yul\":11380:11398   */\n      add\n        /* \"#utility.yul\":11371:11377   */\n      dup8\n        /* \"#utility.yul\":11327:11399   */\n      tag_288\n      jump\t// in\n    tag_462:\n        /* \"#utility.yul\":11409:11481   */\n      tag_463\n        /* \"#utility.yul\":11477:11479   */\n      0x40\n        /* \"#utility.yul\":11466:11475   */\n      dup4\n        /* \"#utility.yul\":11462:11480   */\n      add\n        /* \"#utility.yul\":11453:11459   */\n      dup7\n        /* \"#utility.yul\":11409:11481   */\n      tag_288\n      jump\t// in\n    tag_463:\n        /* \"#utility.yul\":11491:11557   */\n      tag_464\n        /* \"#utility.yul\":11553:11555   */\n      0x60\n        /* \"#utility.yul\":11542:11551   */\n      dup4\n        /* \"#utility.yul\":11538:11556   */\n      add\n        /* \"#utility.yul\":11529:11535   */\n      dup6\n        /* \"#utility.yul\":11491:11557   */\n      tag_291\n      jump\t// in\n    tag_464:\n        /* \"#utility.yul\":11567:11655   */\n      tag_465\n        /* \"#utility.yul\":11650:11653   */\n      0x80\n        /* \"#utility.yul\":11639:11648   */\n      dup4\n        /* \"#utility.yul\":11635:11654   */\n      add\n        /* \"#utility.yul\":11626:11632   */\n      dup5\n        /* \"#utility.yul\":11567:11655   */\n      tag_296\n      jump\t// in\n    tag_465:\n        /* \"#utility.yul\":10980:11662   */\n      swap7\n      swap6\n      pop\n      pop\n      pop\n      pop\n      pop\n      pop\n      jump\t// out\n        /* \"#utility.yul\":11668:12172   */\n    tag_54:\n        /* \"#utility.yul\":11751:11757   */\n      0x00\n        /* \"#utility.yul\":11759:11765   */\n      dup1\n        /* \"#utility.yul\":11808:11810   */\n      0x40\n        /* \"#utility.yul\":11796:11805   */\n      dup4\n        /* \"#utility.yul\":11787:11794   */\n      dup6\n        /* \"#utility.yul\":11783:11806   */\n      sub\n        /* \"#utility.yul\":11779:11811   */\n      slt\n        /* \"#utility.yul\":11776:11895   */\n      iszero\n      tag_467\n      jumpi\n        /* \"#utility.yul\":11814:11893   */\n      tag_468\n      tag_262\n      jump\t// in\n    tag_468:\n        /* \"#utility.yul\":11776:11895   */\n    tag_467:\n        /* \"#utility.yul\":11934:11935   */\n      0x00\n        /* \"#utility.yul\":11959:12012   */\n      tag_469\n        /* \"#utility.yul\":12004:12011   */\n      dup6\n        /* \"#utility.yul\":11995:12001   */\n      dup3\n        /* \"#utility.yul\":11984:11993   */\n      dup7\n        /* \"#utility.yul\":11980:12002   */\n      add\n        /* \"#utility.yul\":11959:12012   */\n      tag_285\n      jump\t// in\n    tag_469:\n        /* \"#utility.yul\":11949:12012   */\n      swap3\n      pop\n        /* \"#utility.yul\":11905:12022   */\n      pop\n        /* \"#utility.yul\":12061:12063   */\n      0x20\n        /* \"#utility.yul\":12087:12155   */\n      tag_470\n        /* \"#utility.yul\":12147:12154   */\n      dup6\n        /* \"#utility.yul\":12138:12144   */\n      dup3\n        /* \"#utility.yul\":12127:12136   */\n      dup7\n        /* \"#utility.yul\":12123:12145   */\n      add\n        /* \"#utility.yul\":12087:12155   */\n      tag_272\n      jump\t// in\n    tag_470:\n        /* \"#utility.yul\":12077:12155   */\n      swap2\n      pop\n        /* \"#utility.yul\":12032:12165   */\n      pop\n        /* \"#utility.yul\":11668:12172   */\n      swap3\n      pop\n      swap3\n      swap1\n      pop\n      jump\t// out\n        /* \"#utility.yul\":12178:12537   */\n    tag_62:\n        /* \"#utility.yul\":12252:12258   */\n      0x00\n        /* \"#utility.yul\":12301:12303   */\n      0x20\n        /* \"#utility.yul\":12289:12298   */\n      dup3\n        /* \"#utility.yul\":12280:12287   */\n      dup5\n        /* \"#utility.yul\":12276:12299   */\n      sub\n        /* \"#utility.yul\":12272:12304   */\n      slt\n        /* \"#utility.yul\":12269:12388   */\n      iszero\n      tag_472\n      jumpi\n        /* \"#utility.yul\":12307:12386   */\n      tag_473\n      tag_262\n      jump\t// in\n    tag_473:\n        /* \"#utility.yul\":12269:12388   */\n    tag_472:\n        /* \"#utility.yul\":12427:12428   */\n      0x00\n        /* \"#utility.yul\":12452:12520   */\n      tag_474\n        /* \"#utility.yul\":12512:12519   */\n      dup5\n        /* \"#utility.yul\":12503:12509   */\n      dup3\n        /* \"#utility.yul\":12492:12501   */\n      dup6\n        /* \"#utility.yul\":12488:12510   */\n      add\n        /* \"#utility.yul\":12452:12520   */\n      tag_272\n      jump\t// in\n    tag_474:\n        /* \"#utility.yul\":12442:12520   */\n      swap2\n      pop\n        /* \"#utility.yul\":12398:12530   */\n      pop\n        /* \"#utility.yul\":12178:12537   */\n      swap3\n      swap2\n      pop\n      pop\n      jump\t// out\n        /* \"#utility.yul\":12543:12691   */\n    tag_297:\n        /* \"#utility.yul\":12615:12624   */\n      0x00\n        /* \"#utility.yul\":12648:12685   */\n      tag_476\n        /* \"#utility.yul\":12679:12684   */\n      dup3\n        /* \"#utility.yul\":12648:12685   */\n      tag_294\n      jump\t// in\n    tag_476:\n        /* \"#utility.yul\":12635:12685   */\n      swap1\n      pop\n        /* \"#utility.yul\":12543:12691   */\n      swap2\n      swap1\n      pop\n      jump\t// out\n        /* \"#utility.yul\":12697:12872   */\n    tag_298:\n        /* \"#utility.yul\":12806:12865   */\n      tag_478\n        /* \"#utility.yul\":12859:12864   */\n      dup2\n        /* \"#utility.yul\":12806:12865   */\n      tag_297\n      jump\t// in\n    tag_478:\n        /* \"#utility.yul\":12801:12804   */\n      dup3\n        /* \"#utility.yul\":12794:12866   */\n      mstore\n        /* \"#utility.yul\":12697:12872   */\n      pop\n      pop\n      jump\t// out\n        /* \"#utility.yul\":12878:13364   */\n    tag_65:\n        /* \"#utility.yul\":13049:13053   */\n      0x00\n        /* \"#utility.yul\":13087:13089   */\n      0x60\n        /* \"#utility.yul\":13076:13085   */\n      dup3\n        /* \"#utility.yul\":13072:13090   */\n      add\n        /* \"#utility.yul\":13064:13090   */\n      swap1\n      pop\n        /* \"#utility.yul\":13100:13193   */\n      tag_480\n        /* \"#utility.yul\":13190:13191   */\n      0x00\n        /* \"#utility.yul\":13179:13188   */\n      dup4\n        /* \"#utility.yul\":13175:13192   */\n      add\n        /* \"#utility.yul\":13166:13172   */\n      dup7\n        /* \"#utility.yul\":13100:13193   */\n      tag_298\n      jump\t// in\n    tag_480:\n        /* \"#utility.yul\":13203:13275   */\n      tag_481\n        /* \"#utility.yul\":13271:13273   */\n      0x20\n        /* \"#utility.yul\":13260:13269   */\n      dup4\n        /* \"#utility.yul\":13256:13274   */\n      add\n        /* \"#utility.yul\":13247:13253   */\n      dup6\n        /* \"#utility.yul\":13203:13275   */\n      tag_288\n      jump\t// in\n    tag_481:\n        /* \"#utility.yul\":13285:13357   */\n      tag_482\n        /* \"#utility.yul\":13353:13355   */\n      0x40\n        /* \"#utility.yul\":13342:13351   */\n      dup4\n        /* \"#utility.yul\":13338:13356   */\n      add\n        /* \"#utility.yul\":13329:13335   */\n      dup5\n        /* \"#utility.yul\":13285:13357   */\n      tag_288\n      jump\t// in\n    tag_482:\n        /* \"#utility.yul\":12878:13364   */\n      swap5\n      swap4\n      pop\n      pop\n      pop\n      pop\n      jump\t// out\n        /* \"#utility.yul\":13370:13699   */\n    tag_68:\n        /* \"#utility.yul\":13429:13435   */\n      0x00\n        /* \"#utility.yul\":13478:13480   */\n      0x20\n        /* \"#utility.yul\":13466:13475   */\n      dup3\n        /* \"#utility.yul\":13457:13464   */\n      dup5\n        /* \"#utility.yul\":13453:13476   */\n      sub\n        /* \"#utility.yul\":13449:13481   */\n      slt\n        /* \"#utility.yul\":13446:13565   */\n      iszero\n      tag_484\n      jumpi\n        /* \"#utility.yul\":13484:13563   */\n      tag_485\n      tag_262\n      jump\t// in\n    tag_485:\n        /* \"#utility.yul\":13446:13565   */\n    tag_484:\n        /* \"#utility.yul\":13604:13605   */\n      0x00\n        /* \"#utility.yul\":13629:13682   */\n      tag_486\n        /* \"#utility.yul\":13674:13681   */\n      dup5\n        /* \"#utility.yul\":13665:13671   */\n      dup3\n        /* \"#utility.yul\":13654:13663   */\n      dup6\n        /* \"#utility.yul\":13650:13672   */\n      add\n        /* \"#utility.yul\":13629:13682   */\n      tag_279\n      jump\t// in\n    tag_486:\n        /* \"#utility.yul\":13619:13682   */\n      swap2\n      pop\n        /* \"#utility.yul\":13575:13692   */\n      pop\n        /* \"#utility.yul\":13370:13699   */\n      swap3\n      swap2\n      pop\n      pop\n      jump\t// out\n        /* \"#utility.yul\":13705:13874   */\n    tag_299:\n        /* \"#utility.yul\":13789:13800   */\n      0x00\n        /* \"#utility.yul\":13823:13829   */\n      dup3\n        /* \"#utility.yul\":13818:13821   */\n      dup3\n        /* \"#utility.yul\":13811:13830   */\n      mstore\n        /* \"#utility.yul\":13863:13867   */\n      0x20\n        /* \"#utility.yul\":13858:13861   */\n      dup3\n        /* \"#utility.yul\":13854:13868   */\n      add\n        /* \"#utility.yul\":13839:13868   */\n      swap1\n      pop\n        /* \"#utility.yul\":13705:13874   */\n      swap3\n      swap2\n      pop\n      pop\n      jump\t// out\n        /* \"#utility.yul\":13880:14050   */\n    tag_300:\n        /* \"#utility.yul\":14020:14042   */\n      0x436f6e7472616374206e6f7420616c6c6f776564000000000000000000000000\n        /* \"#utility.yul\":14016:14017   */\n      0x00\n        /* \"#utility.yul\":14008:14014   */\n      dup3\n        /* \"#utility.yul\":14004:14018   */\n      add\n        /* \"#utility.yul\":13997:14043   */\n      mstore\n        /* \"#utility.yul\":13880:14050   */\n      pop\n      jump\t// out\n        /* \"#utility.yul\":14056:14422   */\n    tag_301:\n        /* \"#utility.yul\":14198:14201   */\n      0x00\n        /* \"#utility.yul\":14219:14286   */\n      tag_490\n        /* \"#utility.yul\":14283:14285   */\n      0x14\n        /* \"#utility.yul\":14278:14281   */\n      dup4\n        /* \"#utility.yul\":14219:14286   */\n      tag_299\n      jump\t// in\n    tag_490:\n        /* \"#utility.yul\":14212:14286   */\n      swap2\n      pop\n        /* \"#utility.yul\":14295:14388   */\n      tag_491\n        /* \"#utility.yul\":14384:14387   */\n      dup3\n        /* \"#utility.yul\":14295:14388   */\n      tag_300\n      jump\t// in\n    tag_491:\n        /* \"#utility.yul\":14413:14415   */\n      0x20\n        /* \"#utility.yul\":14408:14411   */\n      dup3\n        /* \"#utility.yul\":14404:14416   */\n      add\n        /* \"#utility.yul\":14397:14416   */\n      swap1\n      pop\n        /* \"#utility.yul\":14056:14422   */\n      swap2\n      swap1\n      pop\n      jump\t// out\n        /* \"#utility.yul\":14428:14847   */\n    tag_75:\n        /* \"#utility.yul\":14594:14598   */\n      0x00\n        /* \"#utility.yul\":14632:14634   */\n      0x20\n        /* \"#utility.yul\":14621:14630   */\n      dup3\n        /* \"#utility.yul\":14617:14635   */\n      add\n        /* \"#utility.yul\":14609:14635   */\n      swap1\n      pop\n        /* \"#utility.yul\":14681:14690   */\n      dup2\n        /* \"#utility.yul\":14675:14679   */\n      dup2\n        /* \"#utility.yul\":14671:14691   */\n      sub\n        /* \"#utility.yul\":14667:14668   */\n      0x00\n        /* \"#utility.yul\":14656:14665   */\n      dup4\n        /* \"#utility.yul\":14652:14669   */\n      add\n        /* \"#utility.yul\":14645:14692   */\n      mstore\n        /* \"#utility.yul\":14709:14840   */\n      tag_493\n        /* \"#utility.yul\":14835:14839   */\n      dup2\n        /* \"#utility.yul\":14709:14840   */\n      tag_301\n      jump\t// in\n    tag_493:\n        /* \"#utility.yul\":14701:14840   */\n      swap1\n      pop\n        /* \"#utility.yul\":14428:14847   */\n      swap2\n      swap1\n      pop\n      jump\t// out\n        /* \"#utility.yul\":14853:15029   */\n    tag_302:\n        /* \"#utility.yul\":14993:15021   */\n      0x50726f787920636f6e7472616374206e6f7420616c6c6f776564000000000000\n        /* \"#utility.yul\":14989:14990   */\n      0x00\n        /* \"#utility.yul\":14981:14987   */\n      dup3\n        /* \"#utility.yul\":14977:14991   */\n      add\n        /* \"#utility.yul\":14970:15022   */\n      mstore\n        /* \"#utility.yul\":14853:15029   */\n      pop\n      jump\t// out\n        /* \"#utility.yul\":15035:15401   */\n    tag_303:\n        /* \"#utility.yul\":15177:15180   */\n      0x00\n        /* \"#utility.yul\":15198:15265   */\n      tag_496\n        /* \"#utility.yul\":15262:15264   */\n      0x1a\n        /* \"#utility.yul\":15257:15260   */\n      dup4\n        /* \"#utility.yul\":15198:15265   */\n      tag_299\n      jump\t// in\n    tag_496:\n        /* \"#utility.yul\":15191:15265   */\n      swap2\n      pop\n        /* \"#utility.yul\":15274:15367   */\n      tag_497\n        /* \"#utility.yul\":15363:15366   */\n      dup3\n        /* \"#utility.yul\":15274:15367   */\n      tag_302\n      jump\t// in\n    tag_497:\n        /* \"#utility.yul\":15392:15394   */\n      0x20\n        /* \"#utility.yul\":15387:15390   */\n      dup3\n        /* \"#utility.yul\":15383:15395   */\n      add\n        /* \"#utility.yul\":15376:15395   */\n      swap1\n      pop\n        /* \"#utility.yul\":15035:15401   */\n      swap2\n      swap1\n      pop\n      jump\t// out\n        /* \"#utility.yul\":15407:15826   */\n    tag_78:\n        /* \"#utility.yul\":15573:15577   */\n      0x00\n        /* \"#utility.yul\":15611:15613   */\n      0x20\n        /* \"#utility.yul\":15600:15609   */\n      dup3\n        /* \"#utility.yul\":15596:15614   */\n      add\n        /* \"#utility.yul\":15588:15614   */\n      swap1\n      pop\n        /* \"#utility.yul\":15660:15669   */\n      dup2\n        /* \"#utility.yul\":15654:15658   */\n      dup2\n        /* \"#utility.yul\":15650:15670   */\n      sub\n        /* \"#utility.yul\":15646:15647   */\n      0x00\n        /* \"#utility.yul\":15635:15644   */\n      dup4\n        /* \"#utility.yul\":15631:15648   */\n      add\n        /* \"#utility.yul\":15624:15671   */\n      mstore\n        /* \"#utility.yul\":15688:15819   */\n      tag_499\n        /* \"#utility.yul\":15814:15818   */\n      dup2\n        /* \"#utility.yul\":15688:15819   */\n      tag_303\n      jump\t// in\n    tag_499:\n        /* \"#utility.yul\":15680:15819   */\n      swap1\n      pop\n        /* \"#utility.yul\":15407:15826   */\n      swap2\n      swap1\n      pop\n      jump\t// out\n        /* \"#utility.yul\":15832:15991   */\n    tag_304:\n        /* \"#utility.yul\":15972:15983   */\n      0x4e6f20746f6b656e730000000000000000000000000000000000000000000000\n        /* \"#utility.yul\":15968:15969   */\n      0x00\n        /* \"#utility.yul\":15960:15966   */\n      dup3\n        /* \"#utility.yul\":15956:15970   */\n      add\n        /* \"#utility.yul\":15949:15984   */\n      mstore\n        /* \"#utility.yul\":15832:15991   */\n      pop\n      jump\t// out\n        /* \"#utility.yul\":15997:16362   */\n    tag_305:\n        /* \"#utility.yul\":16139:16142   */\n      0x00\n        /* \"#utility.yul\":16160:16226   */\n      tag_502\n        /* \"#utility.yul\":16224:16225   */\n      0x09\n        /* \"#utility.yul\":16219:16222   */\n      dup4\n        /* \"#utility.yul\":16160:16226   */\n      tag_299\n      jump\t// in\n    tag_502:\n        /* \"#utility.yul\":16153:16226   */\n      swap2\n      pop\n        /* \"#utility.yul\":16235:16328   */\n      tag_503\n        /* \"#utility.yul\":16324:16327   */\n      dup3\n        /* \"#utility.yul\":16235:16328   */\n      tag_304\n      jump\t// in\n    tag_503:\n        /* \"#utility.yul\":16353:16355   */\n      0x20\n        /* \"#utility.yul\":16348:16351   */\n      dup3\n        /* \"#utility.yul\":16344:16356   */\n      add\n        /* \"#utility.yul\":16337:16356   */\n      swap1\n      pop\n        /* \"#utility.yul\":15997:16362   */\n      swap2\n      swap1\n      pop\n      jump\t// out\n        /* \"#utility.yul\":16368:16787   */\n    tag_82:\n        /* \"#utility.yul\":16534:16538   */\n      0x00\n        /* \"#utility.yul\":16572:16574   */\n      0x20\n        /* \"#utility.yul\":16561:16570   */\n      dup3\n        /* \"#utility.yul\":16557:16575   */\n      add\n        /* \"#utility.yul\":16549:16575   */\n      swap1\n      pop\n        /* \"#utility.yul\":16621:16630   */\n      dup2\n        /* \"#utility.yul\":16615:16619   */\n      dup2\n        /* \"#utility.yul\":16611:16631   */\n      sub\n        /* \"#utility.yul\":16607:16608   */\n      0x00\n        /* \"#utility.yul\":16596:16605   */\n      dup4\n        /* \"#utility.yul\":16592:16609   */\n      add\n        /* \"#utility.yul\":16585:16632   */\n      mstore\n        /* \"#utility.yul\":16649:16780   */\n      tag_505\n        /* \"#utility.yul\":16775:16779   */\n      dup2\n        /* \"#utility.yul\":16649:16780   */\n      tag_305\n      jump\t// in\n    tag_505:\n        /* \"#utility.yul\":16641:16780   */\n      swap1\n      pop\n        /* \"#utility.yul\":16368:16787   */\n      swap2\n      swap1\n      pop\n      jump\t// out\n        /* \"#utility.yul\":16793:16973   */\n    tag_88:\n        /* \"#utility.yul\":16841:16918   */\n      0x4e487b7100000000000000000000000000000000000000000000000000000000\n        /* \"#utility.yul\":16838:16839   */\n      0x00\n        /* \"#utility.yul\":16831:16919   */\n      mstore\n        /* \"#utility.yul\":16938:16942   */\n      0x32\n        /* \"#utility.yul\":16935:16936   */\n      0x04\n        /* \"#utility.yul\":16928:16943   */\n      mstore\n        /* \"#utility.yul\":16962:16966   */\n      0x24\n        /* \"#utility.yul\":16959:16960   */\n      0x00\n        /* \"#utility.yul\":16952:16967   */\n      revert\n        /* \"#utility.yul\":16979:17146   */\n    tag_306:\n        /* \"#utility.yul\":17119:17138   */\n      0x4e6f74206120746f6b656e206f776e6572000000000000000000000000000000\n        /* \"#utility.yul\":17115:17116   */\n      0x00\n        /* \"#utility.yul\":17107:17113   */\n      dup3\n        /* \"#utility.yul\":17103:17117   */\n      add\n        /* \"#utility.yul\":17096:17139   */\n      mstore\n        /* \"#utility.yul\":16979:17146   */\n      pop\n      jump\t// out\n        /* \"#utility.yul\":17152:17518   */\n    tag_307:\n        /* \"#utility.yul\":17294:17297   */\n      0x00\n        /* \"#utility.yul\":17315:17382   */\n      tag_509\n        /* \"#utility.yul\":17379:17381   */\n      0x11\n        /* \"#utility.yul\":17374:17377   */\n      dup4\n        /* \"#utility.yul\":17315:17382   */\n      tag_299\n      jump\t// in\n    tag_509:\n        /* \"#utility.yul\":17308:17382   */\n      swap2\n      pop\n        /* \"#utility.yul\":17391:17484   */\n      tag_510\n        /* \"#utility.yul\":17480:17483   */\n      dup3\n        /* \"#utility.yul\":17391:17484   */\n      tag_306\n      jump\t// in\n    tag_510:\n        /* \"#utility.yul\":17509:17511   */\n      0x20\n        /* \"#utility.yul\":17504:17507   */\n      dup3\n        /* \"#utility.yul\":17500:17512   */\n      add\n        /* \"#utility.yul\":17493:17512   */\n      swap1\n      pop\n        /* \"#utility.yul\":17152:17518   */\n      swap2\n      swap1\n      pop\n      jump\t// out\n        /* \"#utility.yul\":17524:17943   */\n    tag_91:\n        /* \"#utility.yul\":17690:17694   */\n      0x00\n        /* \"#utility.yul\":17728:17730   */\n      0x20\n        /* \"#utility.yul\":17717:17726   */\n      dup3\n        /* \"#utility.yul\":17713:17731   */\n      add\n        /* \"#utility.yul\":17705:17731   */\n      swap1\n      pop\n        /* \"#utility.yul\":17777:17786   */\n      dup2\n        /* \"#utility.yul\":17771:17775   */\n      dup2\n        /* \"#utility.yul\":17767:17787   */\n      sub\n        /* \"#utility.yul\":17763:17764   */\n      0x00\n        /* \"#utility.yul\":17752:17761   */\n      dup4\n        /* \"#utility.yul\":17748:17765   */\n      add\n        /* \"#utility.yul\":17741:17788   */\n      mstore\n        /* \"#utility.yul\":17805:17936   */\n      tag_512\n        /* \"#utility.yul\":17931:17935   */\n      dup2\n        /* \"#utility.yul\":17805:17936   */\n      tag_307\n      jump\t// in\n    tag_512:\n        /* \"#utility.yul\":17797:17936   */\n      swap1\n      pop\n        /* \"#utility.yul\":17524:17943   */\n      swap2\n      swap1\n      pop\n      jump\t// out\n        /* \"#utility.yul\":17949:18129   */\n    tag_308:\n        /* \"#utility.yul\":17997:18074   */\n      0x4e487b7100000000000000000000000000000000000000000000000000000000\n        /* \"#utility.yul\":17994:17995   */\n      0x00\n        /* \"#utility.yul\":17987:18075   */\n      mstore\n        /* \"#utility.yul\":18094:18098   */\n      0x11\n        /* \"#utility.yul\":18091:18092   */\n      0x04\n        /* \"#utility.yul\":18084:18099   */\n      mstore\n        /* \"#utility.yul\":18118:18122   */\n      0x24\n        /* \"#utility.yul\":18115:18116   */\n      0x00\n        /* \"#utility.yul\":18108:18123   */\n      revert\n        /* \"#utility.yul\":18135:18326   */\n    tag_93:\n        /* \"#utility.yul\":18175:18178   */\n      0x00\n        /* \"#utility.yul\":18194:18214   */\n      tag_515\n        /* \"#utility.yul\":18212:18213   */\n      dup3\n        /* \"#utility.yul\":18194:18214   */\n      tag_283\n      jump\t// in\n    tag_515:\n        /* \"#utility.yul\":18189:18214   */\n      swap2\n      pop\n        /* \"#utility.yul\":18228:18248   */\n      tag_516\n        /* \"#utility.yul\":18246:18247   */\n      dup4\n        /* \"#utility.yul\":18228:18248   */\n      tag_283\n      jump\t// in\n    tag_516:\n        /* \"#utility.yul\":18223:18248   */\n      swap3\n      pop\n        /* \"#utility.yul\":18271:18272   */\n      dup3\n        /* \"#utility.yul\":18268:18269   */\n      dup3\n        /* \"#utility.yul\":18264:18273   */\n      add\n        /* \"#utility.yul\":18257:18273   */\n      swap1\n      pop\n        /* \"#utility.yul\":18292:18295   */\n      dup1\n        /* \"#utility.yul\":18289:18290   */\n      dup3\n        /* \"#utility.yul\":18286:18296   */\n      gt\n        /* \"#utility.yul\":18283:18319   */\n      iszero\n      tag_517\n      jumpi\n        /* \"#utility.yul\":18299:18317   */\n      tag_518\n      tag_308\n      jump\t// in\n    tag_518:\n        /* \"#utility.yul\":18283:18319   */\n    tag_517:\n        /* \"#utility.yul\":18135:18326   */\n      swap3\n      swap2\n      pop\n      pop\n      jump\t// out\n        /* \"#utility.yul\":18332:18503   */\n    tag_309:\n        /* \"#utility.yul\":18472:18495   */\n      0x4e6f742061626c6520746f20636c61696d207965740000000000000000000000\n        /* \"#utility.yul\":18468:18469   */\n      0x00\n        /* \"#utility.yul\":18460:18466   */\n      dup3\n        /* \"#utility.yul\":18456:18470   */\n      add\n        /* \"#utility.yul\":18449:18496   */\n      mstore\n        /* \"#utility.yul\":18332:18503   */\n      pop\n      jump\t// out\n        /* \"#utility.yul\":18509:18875   */\n    tag_310:\n        /* \"#utility.yul\":18651:18654   */\n      0x00\n        /* \"#utility.yul\":18672:18739   */\n      tag_521\n        /* \"#utility.yul\":18736:18738   */\n      0x15\n        /* \"#utility.yul\":18731:18734   */\n      dup4\n        /* \"#utility.yul\":18672:18739   */\n      tag_299\n      jump\t// in\n    tag_521:\n        /* \"#utility.yul\":18665:18739   */\n      swap2\n      pop\n        /* \"#utility.yul\":18748:18841   */\n      tag_522\n        /* \"#utility.yul\":18837:18840   */\n      dup3\n        /* \"#utility.yul\":18748:18841   */\n      tag_309\n      jump\t// in\n    tag_522:\n        /* \"#utility.yul\":18866:18868   */\n      0x20\n        /* \"#utility.yul\":18861:18864   */\n      dup3\n        /* \"#utility.yul\":18857:18869   */\n      add\n        /* \"#utility.yul\":18850:18869   */\n      swap1\n      pop\n        /* \"#utility.yul\":18509:18875   */\n      swap2\n      swap1\n      pop\n      jump\t// out\n        /* \"#utility.yul\":18881:19300   */\n    tag_96:\n        /* \"#utility.yul\":19047:19051   */\n      0x00\n        /* \"#utility.yul\":19085:19087   */\n      0x20\n        /* \"#utility.yul\":19074:19083   */\n      dup3\n        /* \"#utility.yul\":19070:19088   */\n      add\n        /* \"#utility.yul\":19062:19088   */\n      swap1\n      pop\n        /* \"#utility.yul\":19134:19143   */\n      dup2\n        /* \"#utility.yul\":19128:19132   */\n      dup2\n        /* \"#utility.yul\":19124:19144   */\n      sub\n        /* \"#utility.yul\":19120:19121   */\n      0x00\n        /* \"#utility.yul\":19109:19118   */\n      dup4\n        /* \"#utility.yul\":19105:19122   */\n      add\n        /* \"#utility.yul\":19098:19145   */\n      mstore\n        /* \"#utility.yul\":19162:19293   */\n      tag_524\n        /* \"#utility.yul\":19288:19292   */\n      dup2\n        /* \"#utility.yul\":19162:19293   */\n      tag_310\n      jump\t// in\n    tag_524:\n        /* \"#utility.yul\":19154:19293   */\n      swap1\n      pop\n        /* \"#utility.yul\":18881:19300   */\n      swap2\n      swap1\n      pop\n      jump\t// out\n        /* \"#utility.yul\":19306:19472   */\n    tag_311:\n        /* \"#utility.yul\":19446:19464   */\n      0x416c726561647920756e6c6f636b656400000000000000000000000000000000\n        /* \"#utility.yul\":19442:19443   */\n      0x00\n        /* \"#utility.yul\":19434:19440   */\n      dup3\n        /* \"#utility.yul\":19430:19444   */\n      add\n        /* \"#utility.yul\":19423:19465   */\n      mstore\n        /* \"#utility.yul\":19306:19472   */\n      pop\n      jump\t// out\n        /* \"#utility.yul\":19478:19844   */\n    tag_312:\n        /* \"#utility.yul\":19620:19623   */\n      0x00\n        /* \"#utility.yul\":19641:19708   */\n      tag_527\n        /* \"#utility.yul\":19705:19707   */\n      0x10\n        /* \"#utility.yul\":19700:19703   */\n      dup4\n        /* \"#utility.yul\":19641:19708   */\n      tag_299\n      jump\t// in\n    tag_527:\n        /* \"#utility.yul\":19634:19708   */\n      swap2\n      pop\n        /* \"#utility.yul\":19717:19810   */\n      tag_528\n        /* \"#utility.yul\":19806:19809   */\n      dup3\n        /* \"#utility.yul\":19717:19810   */\n      tag_311\n      jump\t// in\n    tag_528:\n        /* \"#utility.yul\":19835:19837   */\n      0x20\n        /* \"#utility.yul\":19830:19833   */\n      dup3\n        /* \"#utility.yul\":19826:19838   */\n      add\n        /* \"#utility.yul\":19819:19838   */\n      swap1\n      pop\n        /* \"#utility.yul\":19478:19844   */\n      swap2\n      swap1\n      pop\n      jump\t// out\n        /* \"#utility.yul\":19850:20269   */\n    tag_99:\n        /* \"#utility.yul\":20016:20020   */\n      0x00\n        /* \"#utility.yul\":20054:20056   */\n      0x20\n        /* \"#utility.yul\":20043:20052   */\n      dup3\n        /* \"#utility.yul\":20039:20057   */\n      add\n        /* \"#utility.yul\":20031:20057   */\n      swap1\n      pop\n        /* \"#utility.yul\":20103:20112   */\n      dup2\n        /* \"#utility.yul\":20097:20101   */\n      dup2\n        /* \"#utility.yul\":20093:20113   */\n      sub\n        /* \"#utility.yul\":20089:20090   */\n      0x00\n        /* \"#utility.yul\":20078:20087   */\n      dup4\n        /* \"#utility.yul\":20074:20091   */\n      add\n        /* \"#utility.yul\":20067:20114   */\n      mstore\n        /* \"#utility.yul\":20131:20262   */\n      tag_530\n        /* \"#utility.yul\":20257:20261   */\n      dup2\n        /* \"#utility.yul\":20131:20262   */\n      tag_312\n      jump\t// in\n    tag_530:\n        /* \"#utility.yul\":20123:20262   */\n      swap1\n      pop\n        /* \"#utility.yul\":19850:20269   */\n      swap2\n      swap1\n      pop\n      jump\t// out\n        /* \"#utility.yul\":20275:20469   */\n    tag_105:\n        /* \"#utility.yul\":20315:20319   */\n      0x00\n        /* \"#utility.yul\":20335:20355   */\n      tag_532\n        /* \"#utility.yul\":20353:20354   */\n      dup3\n        /* \"#utility.yul\":20335:20355   */\n      tag_283\n      jump\t// in\n    tag_532:\n        /* \"#utility.yul\":20330:20355   */\n      swap2\n      pop\n        /* \"#utility.yul\":20369:20389   */\n      tag_533\n        /* \"#utility.yul\":20387:20388   */\n      dup4\n        /* \"#utility.yul\":20369:20389   */\n      tag_283\n      jump\t// in\n    tag_533:\n        /* \"#utility.yul\":20364:20389   */\n      swap3\n      pop\n        /* \"#utility.yul\":20413:20414   */\n      dup3\n        /* \"#utility.yul\":20410:20411   */\n      dup3\n        /* \"#utility.yul\":20406:20415   */\n      sub\n        /* \"#utility.yul\":20398:20415   */\n      swap1\n      pop\n        /* \"#utility.yul\":20437:20438   */\n      dup2\n        /* \"#utility.yul\":20431:20435   */\n      dup2\n        /* \"#utility.yul\":20428:20439   */\n      gt\n        /* \"#utility.yul\":20425:20462   */\n      iszero\n      tag_534\n      jumpi\n        /* \"#utility.yul\":20442:20460   */\n      tag_535\n      tag_308\n      jump\t// in\n    tag_535:\n        /* \"#utility.yul\":20425:20462   */\n    tag_534:\n        /* \"#utility.yul\":20275:20469   */\n      swap3\n      swap2\n      pop\n      pop\n      jump\t// out\n        /* \"#utility.yul\":20475:20807   */\n    tag_107:\n        /* \"#utility.yul\":20596:20600   */\n      0x00\n        /* \"#utility.yul\":20634:20636   */\n      0x40\n        /* \"#utility.yul\":20623:20632   */\n      dup3\n        /* \"#utility.yul\":20619:20637   */\n      add\n        /* \"#utility.yul\":20611:20637   */\n      swap1\n      pop\n        /* \"#utility.yul\":20647:20718   */\n      tag_537\n        /* \"#utility.yul\":20715:20716   */\n      0x00\n        /* \"#utility.yul\":20704:20713   */\n      dup4\n        /* \"#utility.yul\":20700:20717   */\n      add\n        /* \"#utility.yul\":20691:20697   */\n      dup6\n        /* \"#utility.yul\":20647:20718   */\n      tag_289\n      jump\t// in\n    tag_537:\n        /* \"#utility.yul\":20728:20800   */\n      tag_538\n        /* \"#utility.yul\":20796:20798   */\n      0x20\n        /* \"#utility.yul\":20785:20794   */\n      dup4\n        /* \"#utility.yul\":20781:20799   */\n      add\n        /* \"#utility.yul\":20772:20778   */\n      dup5\n        /* \"#utility.yul\":20728:20800   */\n      tag_288\n      jump\t// in\n    tag_538:\n        /* \"#utility.yul\":20475:20807   */\n      swap4\n      swap3\n      pop\n      pop\n      pop\n      jump\t// out\n        /* \"#utility.yul\":20813:21046   */\n    tag_115:\n        /* \"#utility.yul\":20852:20855   */\n      0x00\n        /* \"#utility.yul\":20875:20899   */\n      tag_540\n        /* \"#utility.yul\":20893:20898   */\n      dup3\n        /* \"#utility.yul\":20875:20899   */\n      tag_283\n      jump\t// in\n    tag_540:\n        /* \"#utility.yul\":20866:20899   */\n      swap2\n      pop\n        /* \"#utility.yul\":20921:20987   */\n      0xffffffffffffffffffffffffffffffffffffffffffffffffffffffffffffffff\n        /* \"#utility.yul\":20914:20919   */\n      dup3\n        /* \"#utility.yul\":20911:20988   */\n      sub\n        /* \"#utility.yul\":20908:21011   */\n      tag_541\n      jumpi\n        /* \"#utility.yul\":20991:21009   */\n      tag_542\n      tag_308\n      jump\t// in\n    tag_542:\n        /* \"#utility.yul\":20908:21011   */\n    tag_541:\n        /* \"#utility.yul\":21038:21039   */\n      0x01\n        /* \"#utility.yul\":21031:21036   */\n      dup3\n        /* \"#utility.yul\":21027:21040   */\n      add\n        /* \"#utility.yul\":21020:21040   */\n      swap1\n      pop\n        /* \"#utility.yul\":20813:21046   */\n      swap2\n      swap1\n      pop\n      jump\t// out\n        /* \"#utility.yul\":21052:21236   */\n    tag_313:\n        /* \"#utility.yul\":21151:21162   */\n      0x00\n        /* \"#utility.yul\":21185:21191   */\n      dup3\n        /* \"#utility.yul\":21180:21183   */\n      dup3\n        /* \"#utility.yul\":21173:21192   */\n      mstore\n        /* \"#utility.yul\":21225:21229   */\n      0x20\n        /* \"#utility.yul\":21220:21223   */\n      dup3\n        /* \"#utility.yul\":21216:21230   */\n      add\n        /* \"#utility.yul\":21201:21230   */\n      swap1\n      pop\n        /* \"#utility.yul\":21052:21236   */\n      swap3\n      swap2\n      pop\n      pop\n      jump\t// out\n        /* \"#utility.yul\":21242:21359   */\n    tag_314:\n        /* \"#utility.yul\":21351:21352   */\n      0x00\n        /* \"#utility.yul\":21348:21349   */\n      dup1\n        /* \"#utility.yul\":21341:21353   */\n      revert\n        /* \"#utility.yul\":21365:21463   */\n    tag_315:\n        /* \"#utility.yul\":21449:21455   */\n      dup3\n        /* \"#utility.yul\":21444:21447   */\n      dup2\n        /* \"#utility.yul\":21439:21442   */\n      dup4\n        /* \"#utility.yul\":21426:21456   */\n      calldatacopy\n        /* \"#utility.yul\":21365:21463   */\n      pop\n      pop\n      pop\n      jump\t// out\n        /* \"#utility.yul\":21499:22036   */\n    tag_316:\n        /* \"#utility.yul\":21627:21630   */\n      0x00\n        /* \"#utility.yul\":21648:21734   */\n      tag_547\n        /* \"#utility.yul\":21727:21733   */\n      dup4\n        /* \"#utility.yul\":21722:21725   */\n      dup6\n        /* \"#utility.yul\":21648:21734   */\n      tag_313\n      jump\t// in\n    tag_547:\n        /* \"#utility.yul\":21641:21734   */\n      swap4\n      pop\n        /* \"#utility.yul\":21758:21824   */\n      0x07ffffffffffffffffffffffffffffffffffffffffffffffffffffffffffffff\n        /* \"#utility.yul\":21750:21756   */\n      dup4\n        /* \"#utility.yul\":21747:21825   */\n      gt\n        /* \"#utility.yul\":21744:21909   */\n      iszero\n      tag_548\n      jumpi\n        /* \"#utility.yul\":21828:21907   */\n      tag_549\n      tag_314\n      jump\t// in\n    tag_549:\n        /* \"#utility.yul\":21744:21909   */\n    tag_548:\n        /* \"#utility.yul\":21940:21944   */\n      0x20\n        /* \"#utility.yul\":21932:21938   */\n      dup4\n        /* \"#utility.yul\":21928:21945   */\n      mul\n        /* \"#utility.yul\":21918:21945   */\n      swap3\n      pop\n        /* \"#utility.yul\":21955:21998   */\n      tag_550\n        /* \"#utility.yul\":21991:21997   */\n      dup4\n        /* \"#utility.yul\":21986:21989   */\n      dup6\n        /* \"#utility.yul\":21979:21984   */\n      dup5\n        /* \"#utility.yul\":21955:21998   */\n      tag_315\n      jump\t// in\n    tag_550:\n        /* \"#utility.yul\":22023:22029   */\n      dup3\n        /* \"#utility.yul\":22018:22021   */\n      dup5\n        /* \"#utility.yul\":22014:22030   */\n      add\n        /* \"#utility.yul\":22007:22030   */\n      swap1\n      pop\n        /* \"#utility.yul\":21499:22036   */\n      swap4\n      swap3\n      pop\n      pop\n      pop\n      jump\t// out\n        /* \"#utility.yul\":22042:22545   */\n    tag_117:\n        /* \"#utility.yul\":22223:22227   */\n      0x00\n        /* \"#utility.yul\":22261:22263   */\n      0x40\n        /* \"#utility.yul\":22250:22259   */\n      dup3\n        /* \"#utility.yul\":22246:22264   */\n      add\n        /* \"#utility.yul\":22238:22264   */\n      swap1\n      pop\n        /* \"#utility.yul\":22310:22319   */\n      dup2\n        /* \"#utility.yul\":22304:22308   */\n      dup2\n        /* \"#utility.yul\":22300:22320   */\n      sub\n        /* \"#utility.yul\":22296:22297   */\n      0x00\n        /* \"#utility.yul\":22285:22294   */\n      dup4\n        /* \"#utility.yul\":22281:22298   */\n      add\n        /* \"#utility.yul\":22274:22321   */\n      mstore\n        /* \"#utility.yul\":22338:22456   */\n      tag_552\n        /* \"#utility.yul\":22451:22455   */\n      dup2\n        /* \"#utility.yul\":22442:22448   */\n      dup6\n        /* \"#utility.yul\":22434:22440   */\n      dup8\n        /* \"#utility.yul\":22338:22456   */\n      tag_316\n      jump\t// in\n    tag_552:\n        /* \"#utility.yul\":22330:22456   */\n      swap1\n      pop\n        /* \"#utility.yul\":22466:22538   */\n      tag_553\n        /* \"#utility.yul\":22534:22536   */\n      0x20\n        /* \"#utility.yul\":22523:22532   */\n      dup4\n        /* \"#utility.yul\":22519:22537   */\n      add\n        /* \"#utility.yul\":22510:22516   */\n      dup5\n        /* \"#utility.yul\":22466:22538   */\n      tag_288\n      jump\t// in\n    tag_553:\n        /* \"#utility.yul\":22042:22545   */\n      swap5\n      swap4\n      pop\n      pop\n      pop\n      pop\n      jump\t// out\n        /* \"#utility.yul\":22551:22732   */\n    tag_317:\n        /* \"#utility.yul\":22691:22724   */\n      0x5265656e7472616e637947756172643a207265656e7472616e742063616c6c00\n        /* \"#utility.yul\":22687:22688   */\n      0x00\n        /* \"#utility.yul\":22679:22685   */\n      dup3\n        /* \"#utility.yul\":22675:22689   */\n      add\n        /* \"#utility.yul\":22668:22725   */\n      mstore\n        /* \"#utility.yul\":22551:22732   */\n      pop\n      jump\t// out\n        /* \"#utility.yul\":22738:23104   */\n    tag_318:\n        /* \"#utility.yul\":22880:22883   */\n      0x00\n        /* \"#utility.yul\":22901:22968   */\n      tag_556\n        /* \"#utility.yul\":22965:22967   */\n      0x1f\n        /* \"#utility.yul\":22960:22963   */\n      dup4\n        /* \"#utility.yul\":22901:22968   */\n      tag_299\n      jump\t// in\n    tag_556:\n        /* \"#utility.yul\":22894:22968   */\n      swap2\n      pop\n        /* \"#utility.yul\":22977:23070   */\n      tag_557\n        /* \"#utility.yul\":23066:23069   */\n      dup3\n        /* \"#utility.yul\":22977:23070   */\n      tag_317\n      jump\t// in\n    tag_557:\n        /* \"#utility.yul\":23095:23097   */\n      0x20\n        /* \"#utility.yul\":23090:23093   */\n      dup3\n        /* \"#utility.yul\":23086:23098   */\n      add\n        /* \"#utility.yul\":23079:23098   */\n      swap1\n      pop\n        /* \"#utility.yul\":22738:23104   */\n      swap2\n      swap1\n      pop\n      jump\t// out\n        /* \"#utility.yul\":23110:23529   */\n    tag_147:\n        /* \"#utility.yul\":23276:23280   */\n      0x00\n        /* \"#utility.yul\":23314:23316   */\n      0x20\n        /* \"#utility.yul\":23303:23312   */\n      dup3\n        /* \"#utility.yul\":23299:23317   */\n      add\n        /* \"#utility.yul\":23291:23317   */\n      swap1\n      pop\n        /* \"#utility.yul\":23363:23372   */\n      dup2\n        /* \"#utility.yul\":23357:23361   */\n      dup2\n        /* \"#utility.yul\":23353:23373   */\n      sub\n        /* \"#utility.yul\":23349:23350   */\n      0x00\n        /* \"#utility.yul\":23338:23347   */\n      dup4\n        /* \"#utility.yul\":23334:23351   */\n      add\n        /* \"#utility.yul\":23327:23374   */\n      mstore\n        /* \"#utility.yul\":23391:23522   */\n      tag_559\n        /* \"#utility.yul\":23517:23521   */\n      dup2\n        /* \"#utility.yul\":23391:23522   */\n      tag_318\n      jump\t// in\n    tag_559:\n        /* \"#utility.yul\":23383:23522   */\n      swap1\n      pop\n        /* \"#utility.yul\":23110:23529   */\n      swap2\n      swap1\n      pop\n      jump\t// out\n        /* \"#utility.yul\":23535:23678   */\n    tag_319:\n        /* \"#utility.yul\":23592:23597   */\n      0x00\n        /* \"#utility.yul\":23623:23629   */\n      dup2\n        /* \"#utility.yul\":23617:23630   */\n      mload\n        /* \"#utility.yul\":23608:23630   */\n      swap1\n      pop\n        /* \"#utility.yul\":23639:23672   */\n      tag_561\n        /* \"#utility.yul\":23666:23671   */\n      dup2\n        /* \"#utility.yul\":23639:23672   */\n      tag_278\n      jump\t// in\n    tag_561:\n        /* \"#utility.yul\":23535:23678   */\n      swap3\n      swap2\n      pop\n      pop\n      jump\t// out\n        /* \"#utility.yul\":23684:24035   */\n    tag_160:\n        /* \"#utility.yul\":23754:23760   */\n      0x00\n        /* \"#utility.yul\":23803:23805   */\n      0x20\n        /* \"#utility.yul\":23791:23800   */\n      dup3\n        /* \"#utility.yul\":23782:23789   */\n      dup5\n        /* \"#utility.yul\":23778:23801   */\n      sub\n        /* \"#utility.yul\":23774:23806   */\n      slt\n        /* \"#utility.yul\":23771:23890   */\n      iszero\n      tag_563\n      jumpi\n        /* \"#utility.yul\":23809:23888   */\n      tag_564\n      tag_262\n      jump\t// in\n    tag_564:\n        /* \"#utility.yul\":23771:23890   */\n    tag_563:\n        /* \"#utility.yul\":23929:23930   */\n      0x00\n        /* \"#utility.yul\":23954:24018   */\n      tag_565\n        /* \"#utility.yul\":24010:24017   */\n      dup5\n        /* \"#utility.yul\":24001:24007   */\n      dup3\n        /* \"#utility.yul\":23990:23999   */\n      dup6\n        /* \"#utility.yul\":23986:24008   */\n      add\n        /* \"#utility.yul\":23954:24018   */\n      tag_319\n      jump\t// in\n    tag_565:\n        /* \"#utility.yul\":23944:24018   */\n      swap2\n      pop\n        /* \"#utility.yul\":23900:24028   */\n      pop\n        /* \"#utility.yul\":23684:24035   */\n      swap3\n      swap2\n      pop\n      pop\n      jump\t// out\n        /* \"#utility.yul\":24041:24216   */\n    tag_320:\n        /* \"#utility.yul\":24181:24208   */\n      0x596f7520646f6e277420686f6c64207468697320746f6b656e00000000000000\n        /* \"#utility.yul\":24177:24178   */\n      0x00\n        /* \"#utility.yul\":24169:24175   */\n      dup3\n        /* \"#utility.yul\":24165:24179   */\n      add\n        /* \"#utility.yul\":24158:24209   */\n      mstore\n        /* \"#utility.yul\":24041:24216   */\n      pop\n      jump\t// out\n        /* \"#utility.yul\":24222:24588   */\n    tag_321:\n        /* \"#utility.yul\":24364:24367   */\n      0x00\n        /* \"#utility.yul\":24385:24452   */\n      tag_568\n        /* \"#utility.yul\":24449:24451   */\n      0x19\n        /* \"#utility.yul\":24444:24447   */\n      dup4\n        /* \"#utility.yul\":24385:24452   */\n      tag_299\n      jump\t// in\n    tag_568:\n        /* \"#utility.yul\":24378:24452   */\n      swap2\n      pop\n        /* \"#utility.yul\":24461:24554   */\n      tag_569\n        /* \"#utility.yul\":24550:24553   */\n      dup3\n        /* \"#utility.yul\":24461:24554   */\n      tag_320\n      jump\t// in\n    tag_569:\n        /* \"#utility.yul\":24579:24581   */\n      0x20\n        /* \"#utility.yul\":24574:24577   */\n      dup3\n        /* \"#utility.yul\":24570:24582   */\n      add\n        /* \"#utility.yul\":24563:24582   */\n      swap1\n      pop\n        /* \"#utility.yul\":24222:24588   */\n      swap2\n      swap1\n      pop\n      jump\t// out\n        /* \"#utility.yul\":24594:25013   */\n    tag_163:\n        /* \"#utility.yul\":24760:24764   */\n      0x00\n        /* \"#utility.yul\":24798:24800   */\n      0x20\n        /* \"#utility.yul\":24787:24796   */\n      dup3\n        /* \"#utility.yul\":24783:24801   */\n      add\n        /* \"#utility.yul\":24775:24801   */\n      swap1\n      pop\n        /* \"#utility.yul\":24847:24856   */\n      dup2\n        /* \"#utility.yul\":24841:24845   */\n      dup2\n        /* \"#utility.yul\":24837:24857   */\n      sub\n        /* \"#utility.yul\":24833:24834   */\n      0x00\n        /* \"#utility.yul\":24822:24831   */\n      dup4\n        /* \"#utility.yul\":24818:24835   */\n      add\n        /* \"#utility.yul\":24811:24858   */\n      mstore\n        /* \"#utility.yul\":24875:25006   */\n      tag_571\n        /* \"#utility.yul\":25001:25005   */\n      dup2\n        /* \"#utility.yul\":24875:25006   */\n      tag_321\n      jump\t// in\n    tag_571:\n        /* \"#utility.yul\":24867:25006   */\n      swap1\n      pop\n        /* \"#utility.yul\":24594:25013   */\n      swap2\n      swap1\n      pop\n      jump\t// out\n        /* \"#utility.yul\":25019:25461   */\n    tag_167:\n        /* \"#utility.yul\":25168:25172   */\n      0x00\n        /* \"#utility.yul\":25206:25208   */\n      0x60\n        /* \"#utility.yul\":25195:25204   */\n      dup3\n        /* \"#utility.yul\":25191:25209   */\n      add\n        /* \"#utility.yul\":25183:25209   */\n      swap1\n      pop\n        /* \"#utility.yul\":25219:25290   */\n      tag_573\n        /* \"#utility.yul\":25287:25288   */\n      0x00\n        /* \"#utility.yul\":25276:25285   */\n      dup4\n        /* \"#utility.yul\":25272:25289   */\n      add\n        /* \"#utility.yul\":25263:25269   */\n      dup7\n        /* \"#utility.yul\":25219:25290   */\n      tag_289\n      jump\t// in\n    tag_573:\n        /* \"#utility.yul\":25300:25372   */\n      tag_574\n        /* \"#utility.yul\":25368:25370   */\n      0x20\n        /* \"#utility.yul\":25357:25366   */\n      dup4\n        /* \"#utility.yul\":25353:25371   */\n      add\n        /* \"#utility.yul\":25344:25350   */\n      dup6\n        /* \"#utility.yul\":25300:25372   */\n      tag_289\n      jump\t// in\n    tag_574:\n        /* \"#utility.yul\":25382:25454   */\n      tag_575\n        /* \"#utility.yul\":25450:25452   */\n      0x40\n        /* \"#utility.yul\":25439:25448   */\n      dup4\n        /* \"#utility.yul\":25435:25453   */\n      add\n        /* \"#utility.yul\":25426:25432   */\n      dup5\n        /* \"#utility.yul\":25382:25454   */\n      tag_288\n      jump\t// in\n    tag_575:\n        /* \"#utility.yul\":25019:25461   */\n      swap5\n      swap4\n      pop\n      pop\n      pop\n      pop\n      jump\t// out\n        /* \"#utility.yul\":25467:25860   */\n    tag_175:\n        /* \"#utility.yul\":25620:25624   */\n      0x00\n        /* \"#utility.yul\":25658:25660   */\n      0x20\n        /* \"#utility.yul\":25647:25656   */\n      dup3\n        /* \"#utility.yul\":25643:25661   */\n      add\n        /* \"#utility.yul\":25635:25661   */\n      swap1\n      pop\n        /* \"#utility.yul\":25707:25716   */\n      dup2\n        /* \"#utility.yul\":25701:25705   */\n      dup2\n        /* \"#utility.yul\":25697:25717   */\n      sub\n        /* \"#utility.yul\":25693:25694   */\n      0x00\n        /* \"#utility.yul\":25682:25691   */\n      dup4\n        /* \"#utility.yul\":25678:25695   */\n      add\n        /* \"#utility.yul\":25671:25718   */\n      mstore\n        /* \"#utility.yul\":25735:25853   */\n      tag_577\n        /* \"#utility.yul\":25848:25852   */\n      dup2\n        /* \"#utility.yul\":25839:25845   */\n      dup5\n        /* \"#utility.yul\":25831:25837   */\n      dup7\n        /* \"#utility.yul\":25735:25853   */\n      tag_316\n      jump\t// in\n    tag_577:\n        /* \"#utility.yul\":25727:25853   */\n      swap1\n      pop\n        /* \"#utility.yul\":25467:25860   */\n      swap4\n      swap3\n      pop\n      pop\n      pop\n      jump\t// out\n        /* \"#utility.yul\":25866:26036   */\n    tag_322:\n        /* \"#utility.yul\":26006:26028   */\n      0x496e76616c6964206c6f636b20706572696f642e000000000000000000000000\n        /* \"#utility.yul\":26002:26003   */\n      0x00\n        /* \"#utility.yul\":25994:26000   */\n      dup3\n        /* \"#utility.yul\":25990:26004   */\n      add\n        /* \"#utility.yul\":25983:26029   */\n      mstore\n        /* \"#utility.yul\":25866:26036   */\n      pop\n      jump\t// out\n        /* \"#utility.yul\":26042:26408   */\n    tag_323:\n        /* \"#utility.yul\":26184:26187   */\n      0x00\n        /* \"#utility.yul\":26205:26272   */\n      tag_580\n        /* \"#utility.yul\":26269:26271   */\n      0x14\n        /* \"#utility.yul\":26264:26267   */\n      dup4\n        /* \"#utility.yul\":26205:26272   */\n      tag_299\n      jump\t// in\n    tag_580:\n        /* \"#utility.yul\":26198:26272   */\n      swap2\n      pop\n        /* \"#utility.yul\":26281:26374   */\n      tag_581\n        /* \"#utility.yul\":26370:26373   */\n      dup3\n        /* \"#utility.yul\":26281:26374   */\n      tag_322\n      jump\t// in\n    tag_581:\n        /* \"#utility.yul\":26399:26401   */\n      0x20\n        /* \"#utility.yul\":26394:26397   */\n      dup3\n        /* \"#utility.yul\":26390:26402   */\n      add\n        /* \"#utility.yul\":26383:26402   */\n      swap1\n      pop\n        /* \"#utility.yul\":26042:26408   */\n      swap2\n      swap1\n      pop\n      jump\t// out\n        /* \"#utility.yul\":26414:26833   */\n    tag_186:\n        /* \"#utility.yul\":26580:26584   */\n      0x00\n        /* \"#utility.yul\":26618:26620   */\n      0x20\n        /* \"#utility.yul\":26607:26616   */\n      dup3\n        /* \"#utility.yul\":26603:26621   */\n      add\n        /* \"#utility.yul\":26595:26621   */\n      swap1\n      pop\n        /* \"#utility.yul\":26667:26676   */\n      dup2\n        /* \"#utility.yul\":26661:26665   */\n      dup2\n        /* \"#utility.yul\":26657:26677   */\n      sub\n        /* \"#utility.yul\":26653:26654   */\n      0x00\n        /* \"#utility.yul\":26642:26651   */\n      dup4\n        /* \"#utility.yul\":26638:26655   */\n      add\n        /* \"#utility.yul\":26631:26678   */\n      mstore\n        /* \"#utility.yul\":26695:26826   */\n      tag_583\n        /* \"#utility.yul\":26821:26825   */\n      dup2\n        /* \"#utility.yul\":26695:26826   */\n      tag_323\n      jump\t// in\n    tag_583:\n        /* \"#utility.yul\":26687:26826   */\n      swap1\n      pop\n        /* \"#utility.yul\":26414:26833   */\n      swap2\n      swap1\n      pop\n      jump\t// out\n        /* \"#utility.yul\":26839:27011   */\n    tag_324:\n        /* \"#utility.yul\":26979:27003   */\n      0x4e6f742061626c6520746f20756e6c6f636b2079657400000000000000000000\n        /* \"#utility.yul\":26975:26976   */\n      0x00\n        /* \"#utility.yul\":26967:26973   */\n      dup3\n        /* \"#utility.yul\":26963:26977   */\n      add\n        /* \"#utility.yul\":26956:27004   */\n      mstore\n        /* \"#utility.yul\":26839:27011   */\n      pop\n      jump\t// out\n        /* \"#utility.yul\":27017:27383   */\n    tag_325:\n        /* \"#utility.yul\":27159:27162   */\n      0x00\n        /* \"#utility.yul\":27180:27247   */\n      tag_586\n        /* \"#utility.yul\":27244:27246   */\n      0x16\n        /* \"#utility.yul\":27239:27242   */\n      dup4\n        /* \"#utility.yul\":27180:27247   */\n      tag_299\n      jump\t// in\n    tag_586:\n        /* \"#utility.yul\":27173:27247   */\n      swap2\n      pop\n        /* \"#utility.yul\":27256:27349   */\n      tag_587\n        /* \"#utility.yul\":27345:27348   */\n      dup3\n        /* \"#utility.yul\":27256:27349   */\n      tag_324\n      jump\t// in\n    tag_587:\n        /* \"#utility.yul\":27374:27376   */\n      0x20\n        /* \"#utility.yul\":27369:27372   */\n      dup3\n        /* \"#utility.yul\":27365:27377   */\n      add\n        /* \"#utility.yul\":27358:27377   */\n      swap1\n      pop\n        /* \"#utility.yul\":27017:27383   */\n      swap2\n      swap1\n      pop\n      jump\t// out\n        /* \"#utility.yul\":27389:27808   */\n    tag_211:\n        /* \"#utility.yul\":27555:27559   */\n      0x00\n        /* \"#utility.yul\":27593:27595   */\n      0x20\n        /* \"#utility.yul\":27582:27591   */\n      dup3\n        /* \"#utility.yul\":27578:27596   */\n      add\n        /* \"#utility.yul\":27570:27596   */\n      swap1\n      pop\n        /* \"#utility.yul\":27642:27651   */\n      dup2\n        /* \"#utility.yul\":27636:27640   */\n      dup2\n        /* \"#utility.yul\":27632:27652   */\n      sub\n        /* \"#utility.yul\":27628:27629   */\n      0x00\n        /* \"#utility.yul\":27617:27626   */\n      dup4\n        /* \"#utility.yul\":27613:27630   */\n      add\n        /* \"#utility.yul\":27606:27653   */\n      mstore\n        /* \"#utility.yul\":27670:27801   */\n      tag_589\n        /* \"#utility.yul\":27796:27800   */\n      dup2\n        /* \"#utility.yul\":27670:27801   */\n      tag_325\n      jump\t// in\n    tag_589:\n        /* \"#utility.yul\":27662:27801   */\n      swap1\n      pop\n        /* \"#utility.yul\":27389:27808   */\n      swap2\n      swap1\n      pop\n      jump\t// out\n        /* \"#utility.yul\":27814:28039   */\n    tag_326:\n        /* \"#utility.yul\":27954:27988   */\n      0x4f776e61626c653a206e6577206f776e657220697320746865207a65726f2061\n        /* \"#utility.yul\":27950:27951   */\n      0x00\n        /* \"#utility.yul\":27942:27948   */\n      dup3\n        /* \"#utility.yul\":27938:27952   */\n      add\n        /* \"#utility.yul\":27931:27989   */\n      mstore\n        /* \"#utility.yul\":28023:28031   */\n      0x6464726573730000000000000000000000000000000000000000000000000000\n        /* \"#utility.yul\":28018:28020   */\n      0x20\n        /* \"#utility.yul\":28010:28016   */\n      dup3\n        /* \"#utility.yul\":28006:28021   */\n      add\n        /* \"#utility.yul\":27999:28032   */\n      mstore\n        /* \"#utility.yul\":27814:28039   */\n      pop\n      jump\t// out\n        /* \"#utility.yul\":28045:28411   */\n    tag_327:\n        /* \"#utility.yul\":28187:28190   */\n      0x00\n        /* \"#utility.yul\":28208:28275   */\n      tag_592\n        /* \"#utility.yul\":28272:28274   */\n      0x26\n        /* \"#utility.yul\":28267:28270   */\n      dup4\n        /* \"#utility.yul\":28208:28275   */\n      tag_299\n      jump\t// in\n    tag_592:\n        /* \"#utility.yul\":28201:28275   */\n      swap2\n      pop\n        /* \"#utility.yul\":28284:28377   */\n      tag_593\n        /* \"#utility.yul\":28373:28376   */\n      dup3\n        /* \"#utility.yul\":28284:28377   */\n      tag_326\n      jump\t// in\n    tag_593:\n        /* \"#utility.yul\":28402:28404   */\n      0x40\n        /* \"#utility.yul\":28397:28400   */\n      dup3\n        /* \"#utility.yul\":28393:28405   */\n      add\n        /* \"#utility.yul\":28386:28405   */\n      swap1\n      pop\n        /* \"#utility.yul\":28045:28411   */\n      swap2\n      swap1\n      pop\n      jump\t// out\n        /* \"#utility.yul\":28417:28836   */\n    tag_240:\n        /* \"#utility.yul\":28583:28587   */\n      0x00\n        /* \"#utility.yul\":28621:28623   */\n      0x20\n        /* \"#utility.yul\":28610:28619   */\n      dup3\n        /* \"#utility.yul\":28606:28624   */\n      add\n        /* \"#utility.yul\":28598:28624   */\n      swap1\n      pop\n        /* \"#utility.yul\":28670:28679   */\n      dup2\n        /* \"#utility.yul\":28664:28668   */\n      dup2\n        /* \"#utility.yul\":28660:28680   */\n      sub\n        /* \"#utility.yul\":28656:28657   */\n      0x00\n        /* \"#utility.yul\":28645:28654   */\n      dup4\n        /* \"#utility.yul\":28641:28658   */\n      add\n        /* \"#utility.yul\":28634:28681   */\n      mstore\n        /* \"#utility.yul\":28698:28829   */\n      tag_595\n        /* \"#utility.yul\":28824:28828   */\n      dup2\n        /* \"#utility.yul\":28698:28829   */\n      tag_327\n      jump\t// in\n    tag_595:\n        /* \"#utility.yul\":28690:28829   */\n      swap1\n      pop\n        /* \"#utility.yul\":28417:28836   */\n      swap2\n      swap1\n      pop\n      jump\t// out\n        /* \"#utility.yul\":28842:29190   */\n    tag_249:\n        /* \"#utility.yul\":28882:28889   */\n      0x00\n        /* \"#utility.yul\":28905:28925   */\n      tag_597\n        /* \"#utility.yul\":28923:28924   */\n      dup3\n        /* \"#utility.yul\":28905:28925   */\n      tag_283\n      jump\t// in\n    tag_597:\n        /* \"#utility.yul\":28900:28925   */\n      swap2\n      pop\n        /* \"#utility.yul\":28939:28959   */\n      tag_598\n        /* \"#utility.yul\":28957:28958   */\n      dup4\n        /* \"#utility.yul\":28939:28959   */\n      tag_283\n      jump\t// in\n    tag_598:\n        /* \"#utility.yul\":28934:28959   */\n      swap3\n      pop\n        /* \"#utility.yul\":29127:29128   */\n      dup2\n        /* \"#utility.yul\":29059:29125   */\n      0xffffffffffffffffffffffffffffffffffffffffffffffffffffffffffffffff\n        /* \"#utility.yul\":29055:29129   */\n      div\n        /* \"#utility.yul\":29052:29053   */\n      dup4\n        /* \"#utility.yul\":29049:29130   */\n      gt\n        /* \"#utility.yul\":29044:29045   */\n      dup3\n        /* \"#utility.yul\":29037:29046   */\n      iszero\n        /* \"#utility.yul\":29030:29047   */\n      iszero\n        /* \"#utility.yul\":29026:29131   */\n      and\n        /* \"#utility.yul\":29023:29154   */\n      iszero\n      tag_599\n      jumpi\n        /* \"#utility.yul\":29134:29152   */\n      tag_600\n      tag_308\n      jump\t// in\n    tag_600:\n        /* \"#utility.yul\":29023:29154   */\n    tag_599:\n        /* \"#utility.yul\":29182:29183   */\n      dup3\n        /* \"#utility.yul\":29179:29180   */\n      dup3\n        /* \"#utility.yul\":29175:29184   */\n      mul\n        /* \"#utility.yul\":29164:29184   */\n      swap1\n      pop\n        /* \"#utility.yul\":28842:29190   */\n      swap3\n      swap2\n      pop\n      pop\n      jump\t// out\n        /* \"#utility.yul\":29196:29376   */\n    tag_328:\n        /* \"#utility.yul\":29244:29321   */\n      0x4e487b7100000000000000000000000000000000000000000000000000000000\n        /* \"#utility.yul\":29241:29242   */\n      0x00\n        /* \"#utility.yul\":29234:29322   */\n      mstore\n        /* \"#utility.yul\":29341:29345   */\n      0x12\n        /* \"#utility.yul\":29338:29339   */\n      0x04\n        /* \"#utility.yul\":29331:29346   */\n      mstore\n        /* \"#utility.yul\":29365:29369   */\n      0x24\n        /* \"#utility.yul\":29362:29363   */\n      0x00\n        /* \"#utility.yul\":29355:29370   */\n      revert\n        /* \"#utility.yul\":29382:29567   */\n    tag_251:\n        /* \"#utility.yul\":29422:29423   */\n      0x00\n        /* \"#utility.yul\":29439:29459   */\n      tag_603\n        /* \"#utility.yul\":29457:29458   */\n      dup3\n        /* \"#utility.yul\":29439:29459   */\n      tag_283\n      jump\t// in\n    tag_603:\n        /* \"#utility.yul\":29434:29459   */\n      swap2\n      pop\n        /* \"#utility.yul\":29473:29493   */\n      tag_604\n        /* \"#utility.yul\":29491:29492   */\n      dup4\n        /* \"#utility.yul\":29473:29493   */\n      tag_283\n      jump\t// in\n    tag_604:\n        /* \"#utility.yul\":29468:29493   */\n      swap3\n      pop\n        /* \"#utility.yul\":29512:29513   */\n      dup3\n        /* \"#utility.yul\":29502:29537   */\n      tag_605\n      jumpi\n        /* \"#utility.yul\":29517:29535   */\n      tag_606\n      tag_328\n      jump\t// in\n    tag_606:\n        /* \"#utility.yul\":29502:29537   */\n    tag_605:\n        /* \"#utility.yul\":29559:29560   */\n      dup3\n        /* \"#utility.yul\":29556:29557   */\n      dup3\n        /* \"#utility.yul\":29552:29561   */\n      div\n        /* \"#utility.yul\":29547:29561   */\n      swap1\n      pop\n        /* \"#utility.yul\":29382:29567   */\n      swap3\n      swap2\n      pop\n      pop\n      jump\t// out\n        /* \"#utility.yul\":29573:29755   */\n    tag_329:\n        /* \"#utility.yul\":29713:29747   */\n      0x4f776e61626c653a2063616c6c6572206973206e6f7420746865206f776e6572\n        /* \"#utility.yul\":29709:29710   */\n      0x00\n        /* \"#utility.yul\":29701:29707   */\n      dup3\n        /* \"#utility.yul\":29697:29711   */\n      add\n        /* \"#utility.yul\":29690:29748   */\n      mstore\n        /* \"#utility.yul\":29573:29755   */\n      pop\n      jump\t// out\n        /* \"#utility.yul\":29761:30127   */\n    tag_330:\n        /* \"#utility.yul\":29903:29906   */\n      0x00\n        /* \"#utility.yul\":29924:29991   */\n      tag_609\n        /* \"#utility.yul\":29988:29990   */\n      0x20\n        /* \"#utility.yul\":29983:29986   */\n      dup4\n        /* \"#utility.yul\":29924:29991   */\n      tag_299\n      jump\t// in\n    tag_609:\n        /* \"#utility.yul\":29917:29991   */\n      swap2\n      pop\n        /* \"#utility.yul\":30000:30093   */\n      tag_610\n        /* \"#utility.yul\":30089:30092   */\n      dup3\n        /* \"#utility.yul\":30000:30093   */\n      tag_329\n      jump\t// in\n    tag_610:\n        /* \"#utility.yul\":30118:30120   */\n      0x20\n        /* \"#utility.yul\":30113:30116   */\n      dup3\n        /* \"#utility.yul\":30109:30121   */\n      add\n        /* \"#utility.yul\":30102:30121   */\n      swap1\n      pop\n        /* \"#utility.yul\":29761:30127   */\n      swap2\n      swap1\n      pop\n      jump\t// out\n        /* \"#utility.yul\":30133:30552   */\n    tag_258:\n        /* \"#utility.yul\":30299:30303   */\n      0x00\n        /* \"#utility.yul\":30337:30339   */\n      0x20\n        /* \"#utility.yul\":30326:30335   */\n      dup3\n        /* \"#utility.yul\":30322:30340   */\n      add\n        /* \"#utility.yul\":30314:30340   */\n      swap1\n      pop\n        /* \"#utility.yul\":30386:30395   */\n      dup2\n        /* \"#utility.yul\":30380:30384   */\n      dup2\n        /* \"#utility.yul\":30376:30396   */\n      sub\n        /* \"#utility.yul\":30372:30373   */\n      0x00\n        /* \"#utility.yul\":30361:30370   */\n      dup4\n        /* \"#utility.yul\":30357:30374   */\n      add\n        /* \"#utility.yul\":30350:30397   */\n      mstore\n        /* \"#utility.yul\":30414:30545   */\n      tag_612\n        /* \"#utility.yul\":30540:30544   */\n      dup2\n        /* \"#utility.yul\":30414:30545   */\n      tag_330\n      jump\t// in\n    tag_612:\n        /* \"#utility.yul\":30406:30545   */\n      swap1\n      pop\n        /* \"#utility.yul\":30133:30552   */\n      swap2\n      swap1\n      pop\n      jump\t// out\n\n    auxdata: 0xa2646970667358221220d30afa8b471596b52e016db597637b63d4cdf8aac00408166bb9ec74e998d55364736f6c63430008100033\n}\n",
				"bytecode": {
					"linkReferences": {},
					"object": "60806040523480156200001157600080fd5b5060405162002dc238038062002dc28339818101604052810190620000379190620001c6565b620000576200004b620000ba60201b60201c565b620000c260201b60201c565b6001808190555060008211620000a4576040517f08c379a00000000000000000000000000000000000000000000000000000000081526004016200009b906200026e565b60405180910390fd5b8160028190555080600581905550505062000290565b600033905090565b60008060009054906101000a900473ffffffffffffffffffffffffffffffffffffffff169050816000806101000a81548173ffffffffffffffffffffffffffffffffffffffff021916908373ffffffffffffffffffffffffffffffffffffffff1602179055508173ffffffffffffffffffffffffffffffffffffffff168173ffffffffffffffffffffffffffffffffffffffff167f8be0079c531659141344cd1fd0a4f28419497f9722a3daafe3b4186f6b6457e060405160405180910390a35050565b600080fd5b6000819050919050565b620001a0816200018b565b8114620001ac57600080fd5b50565b600081519050620001c08162000195565b92915050565b60008060408385031215620001e057620001df62000186565b5b6000620001f085828601620001af565b92505060206200020385828601620001af565b9150509250929050565b600082825260208201905092915050565b7f496e76616c6964206c6f636b20706572696f6400000000000000000000000000600082015250565b6000620002566013836200020d565b915062000263826200021e565b602082019050919050565b60006020820190508181036000830152620002898162000247565b9050919050565b612b2280620002a06000396000f3fe608060405234801561001057600080fd5b50600436106100cf5760003560e01c80638da5cb5b1161008c578063b33068c411610066578063b33068c4146101da578063c69d19231461020a578063e9545b9214610228578063f2fde38b1461025a576100cf565b80638da5cb5b1461016c5780639f3625f01461018a578063b2520a7c146101a6576100cf565b80630520537f146100d4578063108a9d9e146100f05780631902732e1461010c5780633fd8b02f14610128578063715018a614610146578063779972da14610150575b600080fd5b6100ee60048036038101906100e99190611c3f565b610276565b005b61010a60048036038101906101059190611f13565b6107f1565b005b61012660048036038101906101219190611c3f565b6109ca565b005b610130610eb5565b60405161013d9190611ff9565b60405180910390f35b61014e610ebb565b005b61016a60048036038101906101659190612014565b610ecf565b005b610174610f5b565b6040516101819190612050565b60405180910390f35b6101a4600480360381019061019f9190611c3f565b610f84565b005b6101c060048036038101906101bb919061206b565b61164a565b6040516101d1959493929190612125565b60405180910390f35b6101f460048036038101906101ef9190612178565b6116da565b6040516102019190611ff9565b60405180910390f35b610212611738565b60405161021f9190611ff9565b60405180910390f35b610242600480360381019061023d91906121b8565b61173e565b60405161025193929190612206565b60405180910390f35b610274600480360381019061026f919061223d565b611788565b005b6102953373ffffffffffffffffffffffffffffffffffffffff1661180b565b156102d5576040517f08c379a00000000000000000000000000000000000000000000000000000000081526004016102cc906122c7565b60405180910390fd5b3273ffffffffffffffffffffffffffffffffffffffff163373ffffffffffffffffffffffffffffffffffffffff1614610343576040517f08c379a000000000000000000000000000000000000000000000000000000000815260040161033a90612333565b60405180910390fd5b60008383905011610389576040517f08c379a00000000000000000000000000000000000000000000000000000000081526004016103809061239f565b60405180910390fd5b600080600090505b84849050811015610798576000600360008573ffffffffffffffffffffffffffffffffffffffff1673ffffffffffffffffffffffffffffffffffffffff16815260200190815260200160002060008787858181106103f2576103f16123bf565b5b9050602002013581526020019081526020016000206040518060a00160405290816000820160009054906101000a900473ffffffffffffffffffffffffffffffffffffffff1673ffffffffffffffffffffffffffffffffffffffff1673ffffffffffffffffffffffffffffffffffffffff16815260200160018201548152602001600282015481526020016003820160009054906101000a900460ff161515151581526020016003820160019054906101000a900473ffffffffffffffffffffffffffffffffffffffff1673ffffffffffffffffffffffffffffffffffffffff1673ffffffffffffffffffffffffffffffffffffffff168152505090503373ffffffffffffffffffffffffffffffffffffffff16816000015173ffffffffffffffffffffffffffffffffffffffff1614610561576040517f08c379a00000000000000000000000000000000000000000000000000000000081526004016105589061243a565b60405180910390fd5b4260025482602001516105749190612489565b106105b4576040517f08c379a00000000000000000000000000000000000000000000000000000000081526004016105ab90612509565b60405180910390fd5b8060600151156105f9576040517f08c379a00000000000000000000000000000000000000000000000000000000081526004016105f090612575565b60405180910390fd5b600061061e878785818110610611576106106123bf565b5b905060200201358661182e565b905060008260400151826106329190612595565b9050600460008773ffffffffffffffffffffffffffffffffffffffff1673ffffffffffffffffffffffffffffffffffffffff16815260200190815260200160002060000160009054906101000a900473ffffffffffffffffffffffffffffffffffffffff1673ffffffffffffffffffffffffffffffffffffffff166340c10f1933836040518363ffffffff1660e01b81526004016106d19291906125c9565b600060405180830381600087803b1580156106eb57600080fd5b505af11580156106ff573d6000803e3d6000fd5b50505050808561070f9190612489565b945081600360008873ffffffffffffffffffffffffffffffffffffffff1673ffffffffffffffffffffffffffffffffffffffff16815260200190815260200160002060008a8a88818110610766576107656123bf565b5b905060200201358152602001908152602001600020600201819055505050508080610790906125f2565b915050610391565b503373ffffffffffffffffffffffffffffffffffffffff167f37826be3c26dbad83731f4b985f22fa9ef86b6d1974cd77208332b7f1f283c0c8585846040516107e3939291906126b5565b60405180910390a250505050565b6107f9611a0c565b60005b84518110156109c357838181518110610818576108176123bf565b5b602002602001015160046000878481518110610837576108366123bf565b5b602002602001015173ffffffffffffffffffffffffffffffffffffffff1673ffffffffffffffffffffffffffffffffffffffff16815260200190815260200160002060000160006101000a81548173ffffffffffffffffffffffffffffffffffffffff021916908373ffffffffffffffffffffffffffffffffffffffff1602179055508281815181106108cd576108cc6123bf565b5b6020026020010151600460008784815181106108ec576108eb6123bf565b5b602002602001015173ffffffffffffffffffffffffffffffffffffffff1673ffffffffffffffffffffffffffffffffffffffff16815260200190815260200160002060010181905550818181518110610948576109476123bf565b5b602002602001015160046000878481518110610967576109666123bf565b5b602002602001015173ffffffffffffffffffffffffffffffffffffffff1673ffffffffffffffffffffffffffffffffffffffff1681526020019081526020016000206002018190555080806109bb906125f2565b9150506107fc565b5050505050565b6109e93373ffffffffffffffffffffffffffffffffffffffff1661180b565b15610a29576040517f08c379a0000000000000000000000000000000000000000000000000000000008152600401610a20906122c7565b60405180910390fd5b3273ffffffffffffffffffffffffffffffffffffffff163373ffffffffffffffffffffffffffffffffffffffff1614610a97576040517f08c379a0000000000000000000000000000000000000000000000000000000008152600401610a8e90612333565b60405180910390fd5b600260015403610adc576040517f08c379a0000000000000000000000000000000000000000000000000000000008152600401610ad390612733565b60405180910390fd5b600260018190555060008383905011610b2a576040517f08c379a0000000000000000000000000000000000000000000000000000000008152600401610b219061239f565b60405180910390fd5b60005b83839050811015610e58573373ffffffffffffffffffffffffffffffffffffffff168273ffffffffffffffffffffffffffffffffffffffff16636352211e868685818110610b7e57610b7d6123bf565b5b905060200201356040518263ffffffff1660e01b8152600401610ba19190611ff9565b602060405180830381865afa158015610bbe573d6000803e3d6000fd5b505050506040513d601f19601f82011682018060405250810190610be29190612768565b73ffffffffffffffffffffffffffffffffffffffff1614610c38576040517f08c379a0000000000000000000000000000000000000000000000000000000008152600401610c2f906127e1565b60405180910390fd5b8173ffffffffffffffffffffffffffffffffffffffff166323b872dd3330878786818110610c6957610c686123bf565b5b905060200201356040518463ffffffff1660e01b8152600401610c8e93929190612801565b600060405180830381600087803b158015610ca857600080fd5b505af1158015610cbc573d6000803e3d6000fd5b505050506040518060a001604052803373ffffffffffffffffffffffffffffffffffffffff168152602001428152602001600081526020016000151581526020018373ffffffffffffffffffffffffffffffffffffffff16815250600360008473ffffffffffffffffffffffffffffffffffffffff1673ffffffffffffffffffffffffffffffffffffffff1681526020019081526020016000206000868685818110610d6b57610d6a6123bf565b5b90506020020135815260200190815260200160002060008201518160000160006101000a81548173ffffffffffffffffffffffffffffffffffffffff021916908373ffffffffffffffffffffffffffffffffffffffff160217905550602082015181600101556040820151816002015560608201518160030160006101000a81548160ff02191690831515021790555060808201518160030160016101000a81548173ffffffffffffffffffffffffffffffffffffffff021916908373ffffffffffffffffffffffffffffffffffffffff1602179055509050508080610e50906125f2565b915050610b2d565b503373ffffffffffffffffffffffffffffffffffffffff167f458be0227bccc9e803dec79bd16767eeaf9925d2ce708eeed7ae1f3621f968f98484604051610ea1929190612838565b60405180910390a260018081905550505050565b60025481565b610ec3611a0c565b610ecd6000611a8a565b565b610ed7611a0c565b60008111610f1a576040517f08c379a0000000000000000000000000000000000000000000000000000000008152600401610f11906128a8565b60405180910390fd5b806002819055507f8249ec545e68f6f1e1230133ca48c704d831a7f8e635ded80f3dd9e99b09bb2f81604051610f509190611ff9565b60405180910390a150565b60008060009054906101000a900473ffffffffffffffffffffffffffffffffffffffff16905090565b610fa33373ffffffffffffffffffffffffffffffffffffffff1661180b565b15610fe3576040517f08c379a0000000000000000000000000000000000000000000000000000000008152600401610fda906122c7565b60405180910390fd5b3273ffffffffffffffffffffffffffffffffffffffff163373ffffffffffffffffffffffffffffffffffffffff1614611051576040517f08c379a000000000000000000000000000000000000000000000000000000000815260040161104890612333565b60405180910390fd5b600260015403611096576040517f08c379a000000000000000000000000000000000000000000000000000000000815260040161108d90612733565b60405180910390fd5b6002600181905550600083839050116110e4576040517f08c379a00000000000000000000000000000000000000000000000000000000081526004016110db9061239f565b60405180910390fd5b60005b838390508110156115ed576000600360008473ffffffffffffffffffffffffffffffffffffffff1673ffffffffffffffffffffffffffffffffffffffff1681526020019081526020016000206000868685818110611148576111476123bf565b5b9050602002013581526020019081526020016000206040518060a00160405290816000820160009054906101000a900473ffffffffffffffffffffffffffffffffffffffff1673ffffffffffffffffffffffffffffffffffffffff1673ffffffffffffffffffffffffffffffffffffffff16815260200160018201548152602001600282015481526020016003820160009054906101000a900460ff161515151581526020016003820160019054906101000a900473ffffffffffffffffffffffffffffffffffffffff1673ffffffffffffffffffffffffffffffffffffffff1673ffffffffffffffffffffffffffffffffffffffff168152505090503373ffffffffffffffffffffffffffffffffffffffff16816000015173ffffffffffffffffffffffffffffffffffffffff16146112b7576040517f08c379a00000000000000000000000000000000000000000000000000000000081526004016112ae9061243a565b60405180910390fd5b4260025482602001516112ca9190612489565b1061130a576040517f08c379a000000000000000000000000000000000000000000000000000000000815260040161130190612914565b60405180910390fd5b80606001511561134f576040517f08c379a000000000000000000000000000000000000000000000000000000000815260040161134690612575565b60405180910390fd5b8273ffffffffffffffffffffffffffffffffffffffff166323b872dd30338888878181106113805761137f6123bf565b5b905060200201356040518463ffffffff1660e01b81526004016113a593929190612801565b600060405180830381600087803b1580156113bf57600080fd5b505af11580156113d3573d6000803e3d6000fd5b5050505060006113fc8686858181106113ef576113ee6123bf565b5b905060200201358561182e565b905060008260400151826114109190612595565b9050600460008673ffffffffffffffffffffffffffffffffffffffff1673ffffffffffffffffffffffffffffffffffffffff16815260200190815260200160002060000160009054906101000a900473ffffffffffffffffffffffffffffffffffffffff1673ffffffffffffffffffffffffffffffffffffffff166340c10f1933836040518363ffffffff1660e01b81526004016114af9291906125c9565b600060405180830381600087803b1580156114c957600080fd5b505af11580156114dd573d6000803e3d6000fd5b5050505081600360008773ffffffffffffffffffffffffffffffffffffffff1673ffffffffffffffffffffffffffffffffffffffff1681526020019081526020016000206000898988818110611536576115356123bf565b5b905060200201358152602001908152602001600020600201819055506001600360008773ffffffffffffffffffffffffffffffffffffffff1673ffffffffffffffffffffffffffffffffffffffff16815260200190815260200160002060008989888181106115a8576115a76123bf565b5b90506020020135815260200190815260200160002060030160006101000a81548160ff02191690831515021790555050505080806115e5906125f2565b9150506110e7565b503373ffffffffffffffffffffffffffffffffffffffff167f5cb48022479b9ac3bfb10a27965dc010acffc9fc1bc9a52f0b18975b944b54ca8484604051611636929190612838565b60405180910390a260018081905550505050565b6003602052816000526040600020602052806000526040600020600091509150508060000160009054906101000a900473ffffffffffffffffffffffffffffffffffffffff16908060010154908060020154908060030160009054906101000a900460ff16908060030160019054906101000a900473ffffffffffffffffffffffffffffffffffffffff16905085565b6000600360008373ffffffffffffffffffffffffffffffffffffffff1673ffffffffffffffffffffffffffffffffffffffff168152602001908152602001600020600084815260200190815260200160002060020154905092915050565b60055481565b60046020528060005260406000206000915090508060000160009054906101000a900473ffffffffffffffffffffffffffffffffffffffff16908060010154908060020154905083565b611790611a0c565b600073ffffffffffffffffffffffffffffffffffffffff168173ffffffffffffffffffffffffffffffffffffffff16036117ff576040517f08c379a00000000000000000000000000000000000000000000000000000000081526004016117f6906129a6565b60405180910390fd5b61180881611a8a565b50565b6000808273ffffffffffffffffffffffffffffffffffffffff163b119050919050565b600080600360008473ffffffffffffffffffffffffffffffffffffffff1673ffffffffffffffffffffffffffffffffffffffff16815260200190815260200160002060008581526020019081526020016000206040518060a00160405290816000820160009054906101000a900473ffffffffffffffffffffffffffffffffffffffff1673ffffffffffffffffffffffffffffffffffffffff1673ffffffffffffffffffffffffffffffffffffffff16815260200160018201548152602001600282015481526020016003820160009054906101000a900460ff161515151581526020016003820160019054906101000a900473ffffffffffffffffffffffffffffffffffffffff1673ffffffffffffffffffffffffffffffffffffffff1673ffffffffffffffffffffffffffffffffffffffff16815250509050600081602001514261197b9190612595565b905060006002548210156119955760009350505050611a06565b600554600254836119a69190612595565b600460008873ffffffffffffffffffffffffffffffffffffffff1673ffffffffffffffffffffffffffffffffffffffff168152602001908152602001600020600101546119f391906129c6565b6119fd9190612a4f565b90508093505050505b92915050565b611a14611b4e565b73ffffffffffffffffffffffffffffffffffffffff16611a32610f5b565b73ffffffffffffffffffffffffffffffffffffffff1614611a88576040517f08c379a0000000000000000000000000000000000000000000000000000000008152600401611a7f90612acc565b60405180910390fd5b565b60008060009054906101000a900473ffffffffffffffffffffffffffffffffffffffff169050816000806101000a81548173ffffffffffffffffffffffffffffffffffffffff021916908373ffffffffffffffffffffffffffffffffffffffff1602179055508173ffffffffffffffffffffffffffffffffffffffff168173ffffffffffffffffffffffffffffffffffffffff167f8be0079c531659141344cd1fd0a4f28419497f9722a3daafe3b4186f6b6457e060405160405180910390a35050565b600033905090565b6000604051905090565b600080fd5b600080fd5b600080fd5b600080fd5b600080fd5b60008083601f840112611b8f57611b8e611b6a565b5b8235905067ffffffffffffffff811115611bac57611bab611b6f565b5b602083019150836020820283011115611bc857611bc7611b74565b5b9250929050565b600073ffffffffffffffffffffffffffffffffffffffff82169050919050565b6000611bfa82611bcf565b9050919050565b6000611c0c82611bef565b9050919050565b611c1c81611c01565b8114611c2757600080fd5b50565b600081359050611c3981611c13565b92915050565b600080600060408486031215611c5857611c57611b60565b5b600084013567ffffffffffffffff811115611c7657611c75611b65565b5b611c8286828701611b79565b93509350506020611c9586828701611c2a565b9150509250925092565b6000601f19601f8301169050919050565b7f4e487b7100000000000000000000000000000000000000000000000000000000600052604160045260246000fd5b611ce882611c9f565b810181811067ffffffffffffffff82111715611d0757611d06611cb0565b5b80604052505050565b6000611d1a611b56565b9050611d268282611cdf565b919050565b600067ffffffffffffffff821115611d4657611d45611cb0565b5b602082029050602081019050919050565b611d6081611bef565b8114611d6b57600080fd5b50565b600081359050611d7d81611d57565b92915050565b6000611d96611d9184611d2b565b611d10565b90508083825260208201905060208402830185811115611db957611db8611b74565b5b835b81811015611de25780611dce8882611d6e565b845260208401935050602081019050611dbb565b5050509392505050565b600082601f830112611e0157611e00611b6a565b5b8135611e11848260208601611d83565b91505092915050565b600067ffffffffffffffff821115611e3557611e34611cb0565b5b602082029050602081019050919050565b6000819050919050565b611e5981611e46565b8114611e6457600080fd5b50565b600081359050611e7681611e50565b92915050565b6000611e8f611e8a84611e1a565b611d10565b90508083825260208201905060208402830185811115611eb257611eb1611b74565b5b835b81811015611edb5780611ec78882611e67565b845260208401935050602081019050611eb4565b5050509392505050565b600082601f830112611efa57611ef9611b6a565b5b8135611f0a848260208601611e7c565b91505092915050565b60008060008060808587031215611f2d57611f2c611b60565b5b600085013567ffffffffffffffff811115611f4b57611f4a611b65565b5b611f5787828801611dec565b945050602085013567ffffffffffffffff811115611f7857611f77611b65565b5b611f8487828801611dec565b935050604085013567ffffffffffffffff811115611fa557611fa4611b65565b5b611fb187828801611ee5565b925050606085013567ffffffffffffffff811115611fd257611fd1611b65565b5b611fde87828801611ee5565b91505092959194509250565b611ff381611e46565b82525050565b600060208201905061200e6000830184611fea565b92915050565b60006020828403121561202a57612029611b60565b5b600061203884828501611e67565b91505092915050565b61204a81611bef565b82525050565b60006020820190506120656000830184612041565b92915050565b6000806040838503121561208257612081611b60565b5b600061209085828601611c2a565b92505060206120a185828601611e67565b9150509250929050565b60008115159050919050565b6120c0816120ab565b82525050565b6000819050919050565b60006120eb6120e66120e184611bcf565b6120c6565b611bcf565b9050919050565b60006120fd826120d0565b9050919050565b600061210f826120f2565b9050919050565b61211f81612104565b82525050565b600060a08201905061213a6000830188612041565b6121476020830187611fea565b6121546040830186611fea565b61216160608301856120b7565b61216e6080830184612116565b9695505050505050565b6000806040838503121561218f5761218e611b60565b5b600061219d85828601611e67565b92505060206121ae85828601611c2a565b9150509250929050565b6000602082840312156121ce576121cd611b60565b5b60006121dc84828501611c2a565b91505092915050565b60006121f0826120f2565b9050919050565b612200816121e5565b82525050565b600060608201905061221b60008301866121f7565b6122286020830185611fea565b6122356040830184611fea565b949350505050565b60006020828403121561225357612252611b60565b5b600061226184828501611d6e565b91505092915050565b600082825260208201905092915050565b7f436f6e7472616374206e6f7420616c6c6f776564000000000000000000000000600082015250565b60006122b160148361226a565b91506122bc8261227b565b602082019050919050565b600060208201905081810360008301526122e0816122a4565b9050919050565b7f50726f787920636f6e7472616374206e6f7420616c6c6f776564000000000000600082015250565b600061231d601a8361226a565b9150612328826122e7565b602082019050919050565b6000602082019050818103600083015261234c81612310565b9050919050565b7f4e6f20746f6b656e730000000000000000000000000000000000000000000000600082015250565b600061238960098361226a565b915061239482612353565b602082019050919050565b600060208201905081810360008301526123b88161237c565b9050919050565b7f4e487b7100000000000000000000000000000000000000000000000000000000600052603260045260246000fd5b7f4e6f74206120746f6b656e206f776e6572000000000000000000000000000000600082015250565b600061242460118361226a565b915061242f826123ee565b602082019050919050565b6000602082019050818103600083015261245381612417565b9050919050565b7f4e487b7100000000000000000000000000000000000000000000000000000000600052601160045260246000fd5b600061249482611e46565b915061249f83611e46565b92508282019050808211156124b7576124b661245a565b5b92915050565b7f4e6f742061626c6520746f20636c61696d207965740000000000000000000000600082015250565b60006124f360158361226a565b91506124fe826124bd565b602082019050919050565b60006020820190508181036000830152612522816124e6565b9050919050565b7f416c726561647920756e6c6f636b656400000000000000000000000000000000600082015250565b600061255f60108361226a565b915061256a82612529565b602082019050919050565b6000602082019050818103600083015261258e81612552565b9050919050565b60006125a082611e46565b91506125ab83611e46565b92508282039050818111156125c3576125c261245a565b5b92915050565b60006040820190506125de6000830185612041565b6125eb6020830184611fea565b9392505050565b60006125fd82611e46565b91507fffffffffffffffffffffffffffffffffffffffffffffffffffffffffffffffff820361262f5761262e61245a565b5b600182019050919050565b600082825260208201905092915050565b600080fd5b82818337505050565b6000612665838561263a565b93507f07ffffffffffffffffffffffffffffffffffffffffffffffffffffffffffffff8311156126985761269761264b565b5b6020830292506126a9838584612650565b82840190509392505050565b600060408201905081810360008301526126d0818587612659565b90506126df6020830184611fea565b949350505050565b7f5265656e7472616e637947756172643a207265656e7472616e742063616c6c00600082015250565b600061271d601f8361226a565b9150612728826126e7565b602082019050919050565b6000602082019050818103600083015261274c81612710565b9050919050565b60008151905061276281611d57565b92915050565b60006020828403121561277e5761277d611b60565b5b600061278c84828501612753565b91505092915050565b7f596f7520646f6e277420686f6c64207468697320746f6b656e00000000000000600082015250565b60006127cb60198361226a565b91506127d682612795565b602082019050919050565b600060208201905081810360008301526127fa816127be565b9050919050565b60006060820190506128166000830186612041565b6128236020830185612041565b6128306040830184611fea565b949350505050565b60006020820190508181036000830152612853818486612659565b90509392505050565b7f496e76616c6964206c6f636b20706572696f642e000000000000000000000000600082015250565b600061289260148361226a565b915061289d8261285c565b602082019050919050565b600060208201905081810360008301526128c181612885565b9050919050565b7f4e6f742061626c6520746f20756e6c6f636b2079657400000000000000000000600082015250565b60006128fe60168361226a565b9150612909826128c8565b602082019050919050565b6000602082019050818103600083015261292d816128f1565b9050919050565b7f4f776e61626c653a206e6577206f776e657220697320746865207a65726f206160008201527f6464726573730000000000000000000000000000000000000000000000000000602082015250565b600061299060268361226a565b915061299b82612934565b604082019050919050565b600060208201905081810360008301526129bf81612983565b9050919050565b60006129d182611e46565b91506129dc83611e46565b9250817fffffffffffffffffffffffffffffffffffffffffffffffffffffffffffffffff0483118215151615612a1557612a1461245a565b5b828202905092915050565b7f4e487b7100000000000000000000000000000000000000000000000000000000600052601260045260246000fd5b6000612a5a82611e46565b9150612a6583611e46565b925082612a7557612a74612a20565b5b828204905092915050565b7f4f776e61626c653a2063616c6c6572206973206e6f7420746865206f776e6572600082015250565b6000612ab660208361226a565b9150612ac182612a80565b602082019050919050565b60006020820190508181036000830152612ae581612aa9565b905091905056fea2646970667358221220d30afa8b471596b52e016db597637b63d4cdf8aac00408166bb9ec74e998d55364736f6c63430008100033",
					"opcodes": "PUSH1 0x80 PUSH1 0x40 MSTORE CALLVALUE DUP1 ISZERO PUSH3 0x11 JUMPI PUSH1 0x0 DUP1 REVERT JUMPDEST POP PUSH1 0x40 MLOAD PUSH3 0x2DC2 CODESIZE SUB DUP1 PUSH3 0x2DC2 DUP4 CODECOPY DUP2 DUP2 ADD PUSH1 0x40 MSTORE DUP2 ADD SWAP1 PUSH3 0x37 SWAP2 SWAP1 PUSH3 0x1C6 JUMP JUMPDEST PUSH3 0x57 PUSH3 0x4B PUSH3 0xBA PUSH1 0x20 SHL PUSH1 0x20 SHR JUMP JUMPDEST PUSH3 0xC2 PUSH1 0x20 SHL PUSH1 0x20 SHR JUMP JUMPDEST PUSH1 0x1 DUP1 DUP2 SWAP1 SSTORE POP PUSH1 0x0 DUP3 GT PUSH3 0xA4 JUMPI PUSH1 0x40 MLOAD PUSH32 0x8C379A000000000000000000000000000000000000000000000000000000000 DUP2 MSTORE PUSH1 0x4 ADD PUSH3 0x9B SWAP1 PUSH3 0x26E JUMP JUMPDEST PUSH1 0x40 MLOAD DUP1 SWAP2 SUB SWAP1 REVERT JUMPDEST DUP2 PUSH1 0x2 DUP2 SWAP1 SSTORE POP DUP1 PUSH1 0x5 DUP2 SWAP1 SSTORE POP POP POP PUSH3 0x290 JUMP JUMPDEST PUSH1 0x0 CALLER SWAP1 POP SWAP1 JUMP JUMPDEST PUSH1 0x0 DUP1 PUSH1 0x0 SWAP1 SLOAD SWAP1 PUSH2 0x100 EXP SWAP1 DIV PUSH20 0xFFFFFFFFFFFFFFFFFFFFFFFFFFFFFFFFFFFFFFFF AND SWAP1 POP DUP2 PUSH1 0x0 DUP1 PUSH2 0x100 EXP DUP2 SLOAD DUP2 PUSH20 0xFFFFFFFFFFFFFFFFFFFFFFFFFFFFFFFFFFFFFFFF MUL NOT AND SWAP1 DUP4 PUSH20 0xFFFFFFFFFFFFFFFFFFFFFFFFFFFFFFFFFFFFFFFF AND MUL OR SWAP1 SSTORE POP DUP2 PUSH20 0xFFFFFFFFFFFFFFFFFFFFFFFFFFFFFFFFFFFFFFFF AND DUP2 PUSH20 0xFFFFFFFFFFFFFFFFFFFFFFFFFFFFFFFFFFFFFFFF AND PUSH32 0x8BE0079C531659141344CD1FD0A4F28419497F9722A3DAAFE3B4186F6B6457E0 PUSH1 0x40 MLOAD PUSH1 0x40 MLOAD DUP1 SWAP2 SUB SWAP1 LOG3 POP POP JUMP JUMPDEST PUSH1 0x0 DUP1 REVERT JUMPDEST PUSH1 0x0 DUP2 SWAP1 POP SWAP2 SWAP1 POP JUMP JUMPDEST PUSH3 0x1A0 DUP2 PUSH3 0x18B JUMP JUMPDEST DUP2 EQ PUSH3 0x1AC JUMPI PUSH1 0x0 DUP1 REVERT JUMPDEST POP JUMP JUMPDEST PUSH1 0x0 DUP2 MLOAD SWAP1 POP PUSH3 0x1C0 DUP2 PUSH3 0x195 JUMP JUMPDEST SWAP3 SWAP2 POP POP JUMP JUMPDEST PUSH1 0x0 DUP1 PUSH1 0x40 DUP4 DUP6 SUB SLT ISZERO PUSH3 0x1E0 JUMPI PUSH3 0x1DF PUSH3 0x186 JUMP JUMPDEST JUMPDEST PUSH1 0x0 PUSH3 0x1F0 DUP6 DUP3 DUP7 ADD PUSH3 0x1AF JUMP JUMPDEST SWAP3 POP POP PUSH1 0x20 PUSH3 0x203 DUP6 DUP3 DUP7 ADD PUSH3 0x1AF JUMP JUMPDEST SWAP2 POP POP SWAP3 POP SWAP3 SWAP1 POP JUMP JUMPDEST PUSH1 0x0 DUP3 DUP3 MSTORE PUSH1 0x20 DUP3 ADD SWAP1 POP SWAP3 SWAP2 POP POP JUMP JUMPDEST PUSH32 0x496E76616C6964206C6F636B20706572696F6400000000000000000000000000 PUSH1 0x0 DUP3 ADD MSTORE POP JUMP JUMPDEST PUSH1 0x0 PUSH3 0x256 PUSH1 0x13 DUP4 PUSH3 0x20D JUMP JUMPDEST SWAP2 POP PUSH3 0x263 DUP3 PUSH3 0x21E JUMP JUMPDEST PUSH1 0x20 DUP3 ADD SWAP1 POP SWAP2 SWAP1 POP JUMP JUMPDEST PUSH1 0x0 PUSH1 0x20 DUP3 ADD SWAP1 POP DUP2 DUP2 SUB PUSH1 0x0 DUP4 ADD MSTORE PUSH3 0x289 DUP2 PUSH3 0x247 JUMP JUMPDEST SWAP1 POP SWAP2 SWAP1 POP JUMP JUMPDEST PUSH2 0x2B22 DUP1 PUSH3 0x2A0 PUSH1 0x0 CODECOPY PUSH1 0x0 RETURN INVALID PUSH1 0x80 PUSH1 0x40 MSTORE CALLVALUE DUP1 ISZERO PUSH2 0x10 JUMPI PUSH1 0x0 DUP1 REVERT JUMPDEST POP PUSH1 0x4 CALLDATASIZE LT PUSH2 0xCF JUMPI PUSH1 0x0 CALLDATALOAD PUSH1 0xE0 SHR DUP1 PUSH4 0x8DA5CB5B GT PUSH2 0x8C JUMPI DUP1 PUSH4 0xB33068C4 GT PUSH2 0x66 JUMPI DUP1 PUSH4 0xB33068C4 EQ PUSH2 0x1DA JUMPI DUP1 PUSH4 0xC69D1923 EQ PUSH2 0x20A JUMPI DUP1 PUSH4 0xE9545B92 EQ PUSH2 0x228 JUMPI DUP1 PUSH4 0xF2FDE38B EQ PUSH2 0x25A JUMPI PUSH2 0xCF JUMP JUMPDEST DUP1 PUSH4 0x8DA5CB5B EQ PUSH2 0x16C JUMPI DUP1 PUSH4 0x9F3625F0 EQ PUSH2 0x18A JUMPI DUP1 PUSH4 0xB2520A7C EQ PUSH2 0x1A6 JUMPI PUSH2 0xCF JUMP JUMPDEST DUP1 PUSH4 0x520537F EQ PUSH2 0xD4 JUMPI DUP1 PUSH4 0x108A9D9E EQ PUSH2 0xF0 JUMPI DUP1 PUSH4 0x1902732E EQ PUSH2 0x10C JUMPI DUP1 PUSH4 0x3FD8B02F EQ PUSH2 0x128 JUMPI DUP1 PUSH4 0x715018A6 EQ PUSH2 0x146 JUMPI DUP1 PUSH4 0x779972DA EQ PUSH2 0x150 JUMPI JUMPDEST PUSH1 0x0 DUP1 REVERT JUMPDEST PUSH2 0xEE PUSH1 0x4 DUP1 CALLDATASIZE SUB DUP2 ADD SWAP1 PUSH2 0xE9 SWAP2 SWAP1 PUSH2 0x1C3F JUMP JUMPDEST PUSH2 0x276 JUMP JUMPDEST STOP JUMPDEST PUSH2 0x10A PUSH1 0x4 DUP1 CALLDATASIZE SUB DUP2 ADD SWAP1 PUSH2 0x105 SWAP2 SWAP1 PUSH2 0x1F13 JUMP JUMPDEST PUSH2 0x7F1 JUMP JUMPDEST STOP JUMPDEST PUSH2 0x126 PUSH1 0x4 DUP1 CALLDATASIZE SUB DUP2 ADD SWAP1 PUSH2 0x121 SWAP2 SWAP1 PUSH2 0x1C3F JUMP JUMPDEST PUSH2 0x9CA JUMP JUMPDEST STOP JUMPDEST PUSH2 0x130 PUSH2 0xEB5 JUMP JUMPDEST PUSH1 0x40 MLOAD PUSH2 0x13D SWAP2 SWAP1 PUSH2 0x1FF9 JUMP JUMPDEST PUSH1 0x40 MLOAD DUP1 SWAP2 SUB SWAP1 RETURN JUMPDEST PUSH2 0x14E PUSH2 0xEBB JUMP JUMPDEST STOP JUMPDEST PUSH2 0x16A PUSH1 0x4 DUP1 CALLDATASIZE SUB DUP2 ADD SWAP1 PUSH2 0x165 SWAP2 SWAP1 PUSH2 0x2014 JUMP JUMPDEST PUSH2 0xECF JUMP JUMPDEST STOP JUMPDEST PUSH2 0x174 PUSH2 0xF5B JUMP JUMPDEST PUSH1 0x40 MLOAD PUSH2 0x181 SWAP2 SWAP1 PUSH2 0x2050 JUMP JUMPDEST PUSH1 0x40 MLOAD DUP1 SWAP2 SUB SWAP1 RETURN JUMPDEST PUSH2 0x1A4 PUSH1 0x4 DUP1 CALLDATASIZE SUB DUP2 ADD SWAP1 PUSH2 0x19F SWAP2 SWAP1 PUSH2 0x1C3F JUMP JUMPDEST PUSH2 0xF84 JUMP JUMPDEST STOP JUMPDEST PUSH2 0x1C0 PUSH1 0x4 DUP1 CALLDATASIZE SUB DUP2 ADD SWAP1 PUSH2 0x1BB SWAP2 SWAP1 PUSH2 0x206B JUMP JUMPDEST PUSH2 0x164A JUMP JUMPDEST PUSH1 0x40 MLOAD PUSH2 0x1D1 SWAP6 SWAP5 SWAP4 SWAP3 SWAP2 SWAP1 PUSH2 0x2125 JUMP JUMPDEST PUSH1 0x40 MLOAD DUP1 SWAP2 SUB SWAP1 RETURN JUMPDEST PUSH2 0x1F4 PUSH1 0x4 DUP1 CALLDATASIZE SUB DUP2 ADD SWAP1 PUSH2 0x1EF SWAP2 SWAP1 PUSH2 0x2178 JUMP JUMPDEST PUSH2 0x16DA JUMP JUMPDEST PUSH1 0x40 MLOAD PUSH2 0x201 SWAP2 SWAP1 PUSH2 0x1FF9 JUMP JUMPDEST PUSH1 0x40 MLOAD DUP1 SWAP2 SUB SWAP1 RETURN JUMPDEST PUSH2 0x212 PUSH2 0x1738 JUMP JUMPDEST PUSH1 0x40 MLOAD PUSH2 0x21F SWAP2 SWAP1 PUSH2 0x1FF9 JUMP JUMPDEST PUSH1 0x40 MLOAD DUP1 SWAP2 SUB SWAP1 RETURN JUMPDEST PUSH2 0x242 PUSH1 0x4 DUP1 CALLDATASIZE SUB DUP2 ADD SWAP1 PUSH2 0x23D SWAP2 SWAP1 PUSH2 0x21B8 JUMP JUMPDEST PUSH2 0x173E JUMP JUMPDEST PUSH1 0x40 MLOAD PUSH2 0x251 SWAP4 SWAP3 SWAP2 SWAP1 PUSH2 0x2206 JUMP JUMPDEST PUSH1 0x40 MLOAD DUP1 SWAP2 SUB SWAP1 RETURN JUMPDEST PUSH2 0x274 PUSH1 0x4 DUP1 CALLDATASIZE SUB DUP2 ADD SWAP1 PUSH2 0x26F SWAP2 SWAP1 PUSH2 0x223D JUMP JUMPDEST PUSH2 0x1788 JUMP JUMPDEST STOP JUMPDEST PUSH2 0x295 CALLER PUSH20 0xFFFFFFFFFFFFFFFFFFFFFFFFFFFFFFFFFFFFFFFF AND PUSH2 0x180B JUMP JUMPDEST ISZERO PUSH2 0x2D5 JUMPI PUSH1 0x40 MLOAD PUSH32 0x8C379A000000000000000000000000000000000000000000000000000000000 DUP2 MSTORE PUSH1 0x4 ADD PUSH2 0x2CC SWAP1 PUSH2 0x22C7 JUMP JUMPDEST PUSH1 0x40 MLOAD DUP1 SWAP2 SUB SWAP1 REVERT JUMPDEST ORIGIN PUSH20 0xFFFFFFFFFFFFFFFFFFFFFFFFFFFFFFFFFFFFFFFF AND CALLER PUSH20 0xFFFFFFFFFFFFFFFFFFFFFFFFFFFFFFFFFFFFFFFF AND EQ PUSH2 0x343 JUMPI PUSH1 0x40 MLOAD PUSH32 0x8C379A000000000000000000000000000000000000000000000000000000000 DUP2 MSTORE PUSH1 0x4 ADD PUSH2 0x33A SWAP1 PUSH2 0x2333 JUMP JUMPDEST PUSH1 0x40 MLOAD DUP1 SWAP2 SUB SWAP1 REVERT JUMPDEST PUSH1 0x0 DUP4 DUP4 SWAP1 POP GT PUSH2 0x389 JUMPI PUSH1 0x40 MLOAD PUSH32 0x8C379A000000000000000000000000000000000000000000000000000000000 DUP2 MSTORE PUSH1 0x4 ADD PUSH2 0x380 SWAP1 PUSH2 0x239F JUMP JUMPDEST PUSH1 0x40 MLOAD DUP1 SWAP2 SUB SWAP1 REVERT JUMPDEST PUSH1 0x0 DUP1 PUSH1 0x0 SWAP1 POP JUMPDEST DUP5 DUP5 SWAP1 POP DUP2 LT ISZERO PUSH2 0x798 JUMPI PUSH1 0x0 PUSH1 0x3 PUSH1 0x0 DUP6 PUSH20 0xFFFFFFFFFFFFFFFFFFFFFFFFFFFFFFFFFFFFFFFF AND PUSH20 0xFFFFFFFFFFFFFFFFFFFFFFFFFFFFFFFFFFFFFFFF AND DUP2 MSTORE PUSH1 0x20 ADD SWAP1 DUP2 MSTORE PUSH1 0x20 ADD PUSH1 0x0 KECCAK256 PUSH1 0x0 DUP8 DUP8 DUP6 DUP2 DUP2 LT PUSH2 0x3F2 JUMPI PUSH2 0x3F1 PUSH2 0x23BF JUMP JUMPDEST JUMPDEST SWAP1 POP PUSH1 0x20 MUL ADD CALLDATALOAD DUP2 MSTORE PUSH1 0x20 ADD SWAP1 DUP2 MSTORE PUSH1 0x20 ADD PUSH1 0x0 KECCAK256 PUSH1 0x40 MLOAD DUP1 PUSH1 0xA0 ADD PUSH1 0x40 MSTORE SWAP1 DUP2 PUSH1 0x0 DUP3 ADD PUSH1 0x0 SWAP1 SLOAD SWAP1 PUSH2 0x100 EXP SWAP1 DIV PUSH20 0xFFFFFFFFFFFFFFFFFFFFFFFFFFFFFFFFFFFFFFFF AND PUSH20 0xFFFFFFFFFFFFFFFFFFFFFFFFFFFFFFFFFFFFFFFF AND PUSH20 0xFFFFFFFFFFFFFFFFFFFFFFFFFFFFFFFFFFFFFFFF AND DUP2 MSTORE PUSH1 0x20 ADD PUSH1 0x1 DUP3 ADD SLOAD DUP2 MSTORE PUSH1 0x20 ADD PUSH1 0x2 DUP3 ADD SLOAD DUP2 MSTORE PUSH1 0x20 ADD PUSH1 0x3 DUP3 ADD PUSH1 0x0 SWAP1 SLOAD SWAP1 PUSH2 0x100 EXP SWAP1 DIV PUSH1 0xFF AND ISZERO ISZERO ISZERO ISZERO DUP2 MSTORE PUSH1 0x20 ADD PUSH1 0x3 DUP3 ADD PUSH1 0x1 SWAP1 SLOAD SWAP1 PUSH2 0x100 EXP SWAP1 DIV PUSH20 0xFFFFFFFFFFFFFFFFFFFFFFFFFFFFFFFFFFFFFFFF AND PUSH20 0xFFFFFFFFFFFFFFFFFFFFFFFFFFFFFFFFFFFFFFFF AND PUSH20 0xFFFFFFFFFFFFFFFFFFFFFFFFFFFFFFFFFFFFFFFF AND DUP2 MSTORE POP POP SWAP1 POP CALLER PUSH20 0xFFFFFFFFFFFFFFFFFFFFFFFFFFFFFFFFFFFFFFFF AND DUP2 PUSH1 0x0 ADD MLOAD PUSH20 0xFFFFFFFFFFFFFFFFFFFFFFFFFFFFFFFFFFFFFFFF AND EQ PUSH2 0x561 JUMPI PUSH1 0x40 MLOAD PUSH32 0x8C379A000000000000000000000000000000000000000000000000000000000 DUP2 MSTORE PUSH1 0x4 ADD PUSH2 0x558 SWAP1 PUSH2 0x243A JUMP JUMPDEST PUSH1 0x40 MLOAD DUP1 SWAP2 SUB SWAP1 REVERT JUMPDEST TIMESTAMP PUSH1 0x2 SLOAD DUP3 PUSH1 0x20 ADD MLOAD PUSH2 0x574 SWAP2 SWAP1 PUSH2 0x2489 JUMP JUMPDEST LT PUSH2 0x5B4 JUMPI PUSH1 0x40 MLOAD PUSH32 0x8C379A000000000000000000000000000000000000000000000000000000000 DUP2 MSTORE PUSH1 0x4 ADD PUSH2 0x5AB SWAP1 PUSH2 0x2509 JUMP JUMPDEST PUSH1 0x40 MLOAD DUP1 SWAP2 SUB SWAP1 REVERT JUMPDEST DUP1 PUSH1 0x60 ADD MLOAD ISZERO PUSH2 0x5F9 JUMPI PUSH1 0x40 MLOAD PUSH32 0x8C379A000000000000000000000000000000000000000000000000000000000 DUP2 MSTORE PUSH1 0x4 ADD PUSH2 0x5F0 SWAP1 PUSH2 0x2575 JUMP JUMPDEST PUSH1 0x40 MLOAD DUP1 SWAP2 SUB SWAP1 REVERT JUMPDEST PUSH1 0x0 PUSH2 0x61E DUP8 DUP8 DUP6 DUP2 DUP2 LT PUSH2 0x611 JUMPI PUSH2 0x610 PUSH2 0x23BF JUMP JUMPDEST JUMPDEST SWAP1 POP PUSH1 0x20 MUL ADD CALLDATALOAD DUP7 PUSH2 0x182E JUMP JUMPDEST SWAP1 POP PUSH1 0x0 DUP3 PUSH1 0x40 ADD MLOAD DUP3 PUSH2 0x632 SWAP2 SWAP1 PUSH2 0x2595 JUMP JUMPDEST SWAP1 POP PUSH1 0x4 PUSH1 0x0 DUP8 PUSH20 0xFFFFFFFFFFFFFFFFFFFFFFFFFFFFFFFFFFFFFFFF AND PUSH20 0xFFFFFFFFFFFFFFFFFFFFFFFFFFFFFFFFFFFFFFFF AND DUP2 MSTORE PUSH1 0x20 ADD SWAP1 DUP2 MSTORE PUSH1 0x20 ADD PUSH1 0x0 KECCAK256 PUSH1 0x0 ADD PUSH1 0x0 SWAP1 SLOAD SWAP1 PUSH2 0x100 EXP SWAP1 DIV PUSH20 0xFFFFFFFFFFFFFFFFFFFFFFFFFFFFFFFFFFFFFFFF AND PUSH20 0xFFFFFFFFFFFFFFFFFFFFFFFFFFFFFFFFFFFFFFFF AND PUSH4 0x40C10F19 CALLER DUP4 PUSH1 0x40 MLOAD DUP4 PUSH4 0xFFFFFFFF AND PUSH1 0xE0 SHL DUP2 MSTORE PUSH1 0x4 ADD PUSH2 0x6D1 SWAP3 SWAP2 SWAP1 PUSH2 0x25C9 JUMP JUMPDEST PUSH1 0x0 PUSH1 0x40 MLOAD DUP1 DUP4 SUB DUP2 PUSH1 0x0 DUP8 DUP1 EXTCODESIZE ISZERO DUP1 ISZERO PUSH2 0x6EB JUMPI PUSH1 0x0 DUP1 REVERT JUMPDEST POP GAS CALL ISZERO DUP1 ISZERO PUSH2 0x6FF JUMPI RETURNDATASIZE PUSH1 0x0 DUP1 RETURNDATACOPY RETURNDATASIZE PUSH1 0x0 REVERT JUMPDEST POP POP POP POP DUP1 DUP6 PUSH2 0x70F SWAP2 SWAP1 PUSH2 0x2489 JUMP JUMPDEST SWAP5 POP DUP2 PUSH1 0x3 PUSH1 0x0 DUP9 PUSH20 0xFFFFFFFFFFFFFFFFFFFFFFFFFFFFFFFFFFFFFFFF AND PUSH20 0xFFFFFFFFFFFFFFFFFFFFFFFFFFFFFFFFFFFFFFFF AND DUP2 MSTORE PUSH1 0x20 ADD SWAP1 DUP2 MSTORE PUSH1 0x20 ADD PUSH1 0x0 KECCAK256 PUSH1 0x0 DUP11 DUP11 DUP9 DUP2 DUP2 LT PUSH2 0x766 JUMPI PUSH2 0x765 PUSH2 0x23BF JUMP JUMPDEST JUMPDEST SWAP1 POP PUSH1 0x20 MUL ADD CALLDATALOAD DUP2 MSTORE PUSH1 0x20 ADD SWAP1 DUP2 MSTORE PUSH1 0x20 ADD PUSH1 0x0 KECCAK256 PUSH1 0x2 ADD DUP2 SWAP1 SSTORE POP POP POP POP DUP1 DUP1 PUSH2 0x790 SWAP1 PUSH2 0x25F2 JUMP JUMPDEST SWAP2 POP POP PUSH2 0x391 JUMP JUMPDEST POP CALLER PUSH20 0xFFFFFFFFFFFFFFFFFFFFFFFFFFFFFFFFFFFFFFFF AND PUSH32 0x37826BE3C26DBAD83731F4B985F22FA9EF86B6D1974CD77208332B7F1F283C0C DUP6 DUP6 DUP5 PUSH1 0x40 MLOAD PUSH2 0x7E3 SWAP4 SWAP3 SWAP2 SWAP1 PUSH2 0x26B5 JUMP JUMPDEST PUSH1 0x40 MLOAD DUP1 SWAP2 SUB SWAP1 LOG2 POP POP POP POP JUMP JUMPDEST PUSH2 0x7F9 PUSH2 0x1A0C JUMP JUMPDEST PUSH1 0x0 JUMPDEST DUP5 MLOAD DUP2 LT ISZERO PUSH2 0x9C3 JUMPI DUP4 DUP2 DUP2 MLOAD DUP2 LT PUSH2 0x818 JUMPI PUSH2 0x817 PUSH2 0x23BF JUMP JUMPDEST JUMPDEST PUSH1 0x20 MUL PUSH1 0x20 ADD ADD MLOAD PUSH1 0x4 PUSH1 0x0 DUP8 DUP5 DUP2 MLOAD DUP2 LT PUSH2 0x837 JUMPI PUSH2 0x836 PUSH2 0x23BF JUMP JUMPDEST JUMPDEST PUSH1 0x20 MUL PUSH1 0x20 ADD ADD MLOAD PUSH20 0xFFFFFFFFFFFFFFFFFFFFFFFFFFFFFFFFFFFFFFFF AND PUSH20 0xFFFFFFFFFFFFFFFFFFFFFFFFFFFFFFFFFFFFFFFF AND DUP2 MSTORE PUSH1 0x20 ADD SWAP1 DUP2 MSTORE PUSH1 0x20 ADD PUSH1 0x0 KECCAK256 PUSH1 0x0 ADD PUSH1 0x0 PUSH2 0x100 EXP DUP2 SLOAD DUP2 PUSH20 0xFFFFFFFFFFFFFFFFFFFFFFFFFFFFFFFFFFFFFFFF MUL NOT AND SWAP1 DUP4 PUSH20 0xFFFFFFFFFFFFFFFFFFFFFFFFFFFFFFFFFFFFFFFF AND MUL OR SWAP1 SSTORE POP DUP3 DUP2 DUP2 MLOAD DUP2 LT PUSH2 0x8CD JUMPI PUSH2 0x8CC PUSH2 0x23BF JUMP JUMPDEST JUMPDEST PUSH1 0x20 MUL PUSH1 0x20 ADD ADD MLOAD PUSH1 0x4 PUSH1 0x0 DUP8 DUP5 DUP2 MLOAD DUP2 LT PUSH2 0x8EC JUMPI PUSH2 0x8EB PUSH2 0x23BF JUMP JUMPDEST JUMPDEST PUSH1 0x20 MUL PUSH1 0x20 ADD ADD MLOAD PUSH20 0xFFFFFFFFFFFFFFFFFFFFFFFFFFFFFFFFFFFFFFFF AND PUSH20 0xFFFFFFFFFFFFFFFFFFFFFFFFFFFFFFFFFFFFFFFF AND DUP2 MSTORE PUSH1 0x20 ADD SWAP1 DUP2 MSTORE PUSH1 0x20 ADD PUSH1 0x0 KECCAK256 PUSH1 0x1 ADD DUP2 SWAP1 SSTORE POP DUP2 DUP2 DUP2 MLOAD DUP2 LT PUSH2 0x948 JUMPI PUSH2 0x947 PUSH2 0x23BF JUMP JUMPDEST JUMPDEST PUSH1 0x20 MUL PUSH1 0x20 ADD ADD MLOAD PUSH1 0x4 PUSH1 0x0 DUP8 DUP5 DUP2 MLOAD DUP2 LT PUSH2 0x967 JUMPI PUSH2 0x966 PUSH2 0x23BF JUMP JUMPDEST JUMPDEST PUSH1 0x20 MUL PUSH1 0x20 ADD ADD MLOAD PUSH20 0xFFFFFFFFFFFFFFFFFFFFFFFFFFFFFFFFFFFFFFFF AND PUSH20 0xFFFFFFFFFFFFFFFFFFFFFFFFFFFFFFFFFFFFFFFF AND DUP2 MSTORE PUSH1 0x20 ADD SWAP1 DUP2 MSTORE PUSH1 0x20 ADD PUSH1 0x0 KECCAK256 PUSH1 0x2 ADD DUP2 SWAP1 SSTORE POP DUP1 DUP1 PUSH2 0x9BB SWAP1 PUSH2 0x25F2 JUMP JUMPDEST SWAP2 POP POP PUSH2 0x7FC JUMP JUMPDEST POP POP POP POP POP JUMP JUMPDEST PUSH2 0x9E9 CALLER PUSH20 0xFFFFFFFFFFFFFFFFFFFFFFFFFFFFFFFFFFFFFFFF AND PUSH2 0x180B JUMP JUMPDEST ISZERO PUSH2 0xA29 JUMPI PUSH1 0x40 MLOAD PUSH32 0x8C379A000000000000000000000000000000000000000000000000000000000 DUP2 MSTORE PUSH1 0x4 ADD PUSH2 0xA20 SWAP1 PUSH2 0x22C7 JUMP JUMPDEST PUSH1 0x40 MLOAD DUP1 SWAP2 SUB SWAP1 REVERT JUMPDEST ORIGIN PUSH20 0xFFFFFFFFFFFFFFFFFFFFFFFFFFFFFFFFFFFFFFFF AND CALLER PUSH20 0xFFFFFFFFFFFFFFFFFFFFFFFFFFFFFFFFFFFFFFFF AND EQ PUSH2 0xA97 JUMPI PUSH1 0x40 MLOAD PUSH32 0x8C379A000000000000000000000000000000000000000000000000000000000 DUP2 MSTORE PUSH1 0x4 ADD PUSH2 0xA8E SWAP1 PUSH2 0x2333 JUMP JUMPDEST PUSH1 0x40 MLOAD DUP1 SWAP2 SUB SWAP1 REVERT JUMPDEST PUSH1 0x2 PUSH1 0x1 SLOAD SUB PUSH2 0xADC JUMPI PUSH1 0x40 MLOAD PUSH32 0x8C379A000000000000000000000000000000000000000000000000000000000 DUP2 MSTORE PUSH1 0x4 ADD PUSH2 0xAD3 SWAP1 PUSH2 0x2733 JUMP JUMPDEST PUSH1 0x40 MLOAD DUP1 SWAP2 SUB SWAP1 REVERT JUMPDEST PUSH1 0x2 PUSH1 0x1 DUP2 SWAP1 SSTORE POP PUSH1 0x0 DUP4 DUP4 SWAP1 POP GT PUSH2 0xB2A JUMPI PUSH1 0x40 MLOAD PUSH32 0x8C379A000000000000000000000000000000000000000000000000000000000 DUP2 MSTORE PUSH1 0x4 ADD PUSH2 0xB21 SWAP1 PUSH2 0x239F JUMP JUMPDEST PUSH1 0x40 MLOAD DUP1 SWAP2 SUB SWAP1 REVERT JUMPDEST PUSH1 0x0 JUMPDEST DUP4 DUP4 SWAP1 POP DUP2 LT ISZERO PUSH2 0xE58 JUMPI CALLER PUSH20 0xFFFFFFFFFFFFFFFFFFFFFFFFFFFFFFFFFFFFFFFF AND DUP3 PUSH20 0xFFFFFFFFFFFFFFFFFFFFFFFFFFFFFFFFFFFFFFFF AND PUSH4 0x6352211E DUP7 DUP7 DUP6 DUP2 DUP2 LT PUSH2 0xB7E JUMPI PUSH2 0xB7D PUSH2 0x23BF JUMP JUMPDEST JUMPDEST SWAP1 POP PUSH1 0x20 MUL ADD CALLDATALOAD PUSH1 0x40 MLOAD DUP3 PUSH4 0xFFFFFFFF AND PUSH1 0xE0 SHL DUP2 MSTORE PUSH1 0x4 ADD PUSH2 0xBA1 SWAP2 SWAP1 PUSH2 0x1FF9 JUMP JUMPDEST PUSH1 0x20 PUSH1 0x40 MLOAD DUP1 DUP4 SUB DUP2 DUP7 GAS STATICCALL ISZERO DUP1 ISZERO PUSH2 0xBBE JUMPI RETURNDATASIZE PUSH1 0x0 DUP1 RETURNDATACOPY RETURNDATASIZE PUSH1 0x0 REVERT JUMPDEST POP POP POP POP PUSH1 0x40 MLOAD RETURNDATASIZE PUSH1 0x1F NOT PUSH1 0x1F DUP3 ADD AND DUP3 ADD DUP1 PUSH1 0x40 MSTORE POP DUP2 ADD SWAP1 PUSH2 0xBE2 SWAP2 SWAP1 PUSH2 0x2768 JUMP JUMPDEST PUSH20 0xFFFFFFFFFFFFFFFFFFFFFFFFFFFFFFFFFFFFFFFF AND EQ PUSH2 0xC38 JUMPI PUSH1 0x40 MLOAD PUSH32 0x8C379A000000000000000000000000000000000000000000000000000000000 DUP2 MSTORE PUSH1 0x4 ADD PUSH2 0xC2F SWAP1 PUSH2 0x27E1 JUMP JUMPDEST PUSH1 0x40 MLOAD DUP1 SWAP2 SUB SWAP1 REVERT JUMPDEST DUP2 PUSH20 0xFFFFFFFFFFFFFFFFFFFFFFFFFFFFFFFFFFFFFFFF AND PUSH4 0x23B872DD CALLER ADDRESS DUP8 DUP8 DUP7 DUP2 DUP2 LT PUSH2 0xC69 JUMPI PUSH2 0xC68 PUSH2 0x23BF JUMP JUMPDEST JUMPDEST SWAP1 POP PUSH1 0x20 MUL ADD CALLDATALOAD PUSH1 0x40 MLOAD DUP5 PUSH4 0xFFFFFFFF AND PUSH1 0xE0 SHL DUP2 MSTORE PUSH1 0x4 ADD PUSH2 0xC8E SWAP4 SWAP3 SWAP2 SWAP1 PUSH2 0x2801 JUMP JUMPDEST PUSH1 0x0 PUSH1 0x40 MLOAD DUP1 DUP4 SUB DUP2 PUSH1 0x0 DUP8 DUP1 EXTCODESIZE ISZERO DUP1 ISZERO PUSH2 0xCA8 JUMPI PUSH1 0x0 DUP1 REVERT JUMPDEST POP GAS CALL ISZERO DUP1 ISZERO PUSH2 0xCBC JUMPI RETURNDATASIZE PUSH1 0x0 DUP1 RETURNDATACOPY RETURNDATASIZE PUSH1 0x0 REVERT JUMPDEST POP POP POP POP PUSH1 0x40 MLOAD DUP1 PUSH1 0xA0 ADD PUSH1 0x40 MSTORE DUP1 CALLER PUSH20 0xFFFFFFFFFFFFFFFFFFFFFFFFFFFFFFFFFFFFFFFF AND DUP2 MSTORE PUSH1 0x20 ADD TIMESTAMP DUP2 MSTORE PUSH1 0x20 ADD PUSH1 0x0 DUP2 MSTORE PUSH1 0x20 ADD PUSH1 0x0 ISZERO ISZERO DUP2 MSTORE PUSH1 0x20 ADD DUP4 PUSH20 0xFFFFFFFFFFFFFFFFFFFFFFFFFFFFFFFFFFFFFFFF AND DUP2 MSTORE POP PUSH1 0x3 PUSH1 0x0 DUP5 PUSH20 0xFFFFFFFFFFFFFFFFFFFFFFFFFFFFFFFFFFFFFFFF AND PUSH20 0xFFFFFFFFFFFFFFFFFFFFFFFFFFFFFFFFFFFFFFFF AND DUP2 MSTORE PUSH1 0x20 ADD SWAP1 DUP2 MSTORE PUSH1 0x20 ADD PUSH1 0x0 KECCAK256 PUSH1 0x0 DUP7 DUP7 DUP6 DUP2 DUP2 LT PUSH2 0xD6B JUMPI PUSH2 0xD6A PUSH2 0x23BF JUMP JUMPDEST JUMPDEST SWAP1 POP PUSH1 0x20 MUL ADD CALLDATALOAD DUP2 MSTORE PUSH1 0x20 ADD SWAP1 DUP2 MSTORE PUSH1 0x20 ADD PUSH1 0x0 KECCAK256 PUSH1 0x0 DUP3 ADD MLOAD DUP2 PUSH1 0x0 ADD PUSH1 0x0 PUSH2 0x100 EXP DUP2 SLOAD DUP2 PUSH20 0xFFFFFFFFFFFFFFFFFFFFFFFFFFFFFFFFFFFFFFFF MUL NOT AND SWAP1 DUP4 PUSH20 0xFFFFFFFFFFFFFFFFFFFFFFFFFFFFFFFFFFFFFFFF AND MUL OR SWAP1 SSTORE POP PUSH1 0x20 DUP3 ADD MLOAD DUP2 PUSH1 0x1 ADD SSTORE PUSH1 0x40 DUP3 ADD MLOAD DUP2 PUSH1 0x2 ADD SSTORE PUSH1 0x60 DUP3 ADD MLOAD DUP2 PUSH1 0x3 ADD PUSH1 0x0 PUSH2 0x100 EXP DUP2 SLOAD DUP2 PUSH1 0xFF MUL NOT AND SWAP1 DUP4 ISZERO ISZERO MUL OR SWAP1 SSTORE POP PUSH1 0x80 DUP3 ADD MLOAD DUP2 PUSH1 0x3 ADD PUSH1 0x1 PUSH2 0x100 EXP DUP2 SLOAD DUP2 PUSH20 0xFFFFFFFFFFFFFFFFFFFFFFFFFFFFFFFFFFFFFFFF MUL NOT AND SWAP1 DUP4 PUSH20 0xFFFFFFFFFFFFFFFFFFFFFFFFFFFFFFFFFFFFFFFF AND MUL OR SWAP1 SSTORE POP SWAP1 POP POP DUP1 DUP1 PUSH2 0xE50 SWAP1 PUSH2 0x25F2 JUMP JUMPDEST SWAP2 POP POP PUSH2 0xB2D JUMP JUMPDEST POP CALLER PUSH20 0xFFFFFFFFFFFFFFFFFFFFFFFFFFFFFFFFFFFFFFFF AND PUSH32 0x458BE0227BCCC9E803DEC79BD16767EEAF9925D2CE708EEED7AE1F3621F968F9 DUP5 DUP5 PUSH1 0x40 MLOAD PUSH2 0xEA1 SWAP3 SWAP2 SWAP1 PUSH2 0x2838 JUMP JUMPDEST PUSH1 0x40 MLOAD DUP1 SWAP2 SUB SWAP1 LOG2 PUSH1 0x1 DUP1 DUP2 SWAP1 SSTORE POP POP POP POP JUMP JUMPDEST PUSH1 0x2 SLOAD DUP2 JUMP JUMPDEST PUSH2 0xEC3 PUSH2 0x1A0C JUMP JUMPDEST PUSH2 0xECD PUSH1 0x0 PUSH2 0x1A8A JUMP JUMPDEST JUMP JUMPDEST PUSH2 0xED7 PUSH2 0x1A0C JUMP JUMPDEST PUSH1 0x0 DUP2 GT PUSH2 0xF1A JUMPI PUSH1 0x40 MLOAD PUSH32 0x8C379A000000000000000000000000000000000000000000000000000000000 DUP2 MSTORE PUSH1 0x4 ADD PUSH2 0xF11 SWAP1 PUSH2 0x28A8 JUMP JUMPDEST PUSH1 0x40 MLOAD DUP1 SWAP2 SUB SWAP1 REVERT JUMPDEST DUP1 PUSH1 0x2 DUP2 SWAP1 SSTORE POP PUSH32 0x8249EC545E68F6F1E1230133CA48C704D831A7F8E635DED80F3DD9E99B09BB2F DUP2 PUSH1 0x40 MLOAD PUSH2 0xF50 SWAP2 SWAP1 PUSH2 0x1FF9 JUMP JUMPDEST PUSH1 0x40 MLOAD DUP1 SWAP2 SUB SWAP1 LOG1 POP JUMP JUMPDEST PUSH1 0x0 DUP1 PUSH1 0x0 SWAP1 SLOAD SWAP1 PUSH2 0x100 EXP SWAP1 DIV PUSH20 0xFFFFFFFFFFFFFFFFFFFFFFFFFFFFFFFFFFFFFFFF AND SWAP1 POP SWAP1 JUMP JUMPDEST PUSH2 0xFA3 CALLER PUSH20 0xFFFFFFFFFFFFFFFFFFFFFFFFFFFFFFFFFFFFFFFF AND PUSH2 0x180B JUMP JUMPDEST ISZERO PUSH2 0xFE3 JUMPI PUSH1 0x40 MLOAD PUSH32 0x8C379A000000000000000000000000000000000000000000000000000000000 DUP2 MSTORE PUSH1 0x4 ADD PUSH2 0xFDA SWAP1 PUSH2 0x22C7 JUMP JUMPDEST PUSH1 0x40 MLOAD DUP1 SWAP2 SUB SWAP1 REVERT JUMPDEST ORIGIN PUSH20 0xFFFFFFFFFFFFFFFFFFFFFFFFFFFFFFFFFFFFFFFF AND CALLER PUSH20 0xFFFFFFFFFFFFFFFFFFFFFFFFFFFFFFFFFFFFFFFF AND EQ PUSH2 0x1051 JUMPI PUSH1 0x40 MLOAD PUSH32 0x8C379A000000000000000000000000000000000000000000000000000000000 DUP2 MSTORE PUSH1 0x4 ADD PUSH2 0x1048 SWAP1 PUSH2 0x2333 JUMP JUMPDEST PUSH1 0x40 MLOAD DUP1 SWAP2 SUB SWAP1 REVERT JUMPDEST PUSH1 0x2 PUSH1 0x1 SLOAD SUB PUSH2 0x1096 JUMPI PUSH1 0x40 MLOAD PUSH32 0x8C379A000000000000000000000000000000000000000000000000000000000 DUP2 MSTORE PUSH1 0x4 ADD PUSH2 0x108D SWAP1 PUSH2 0x2733 JUMP JUMPDEST PUSH1 0x40 MLOAD DUP1 SWAP2 SUB SWAP1 REVERT JUMPDEST PUSH1 0x2 PUSH1 0x1 DUP2 SWAP1 SSTORE POP PUSH1 0x0 DUP4 DUP4 SWAP1 POP GT PUSH2 0x10E4 JUMPI PUSH1 0x40 MLOAD PUSH32 0x8C379A000000000000000000000000000000000000000000000000000000000 DUP2 MSTORE PUSH1 0x4 ADD PUSH2 0x10DB SWAP1 PUSH2 0x239F JUMP JUMPDEST PUSH1 0x40 MLOAD DUP1 SWAP2 SUB SWAP1 REVERT JUMPDEST PUSH1 0x0 JUMPDEST DUP4 DUP4 SWAP1 POP DUP2 LT ISZERO PUSH2 0x15ED JUMPI PUSH1 0x0 PUSH1 0x3 PUSH1 0x0 DUP5 PUSH20 0xFFFFFFFFFFFFFFFFFFFFFFFFFFFFFFFFFFFFFFFF AND PUSH20 0xFFFFFFFFFFFFFFFFFFFFFFFFFFFFFFFFFFFFFFFF AND DUP2 MSTORE PUSH1 0x20 ADD SWAP1 DUP2 MSTORE PUSH1 0x20 ADD PUSH1 0x0 KECCAK256 PUSH1 0x0 DUP7 DUP7 DUP6 DUP2 DUP2 LT PUSH2 0x1148 JUMPI PUSH2 0x1147 PUSH2 0x23BF JUMP JUMPDEST JUMPDEST SWAP1 POP PUSH1 0x20 MUL ADD CALLDATALOAD DUP2 MSTORE PUSH1 0x20 ADD SWAP1 DUP2 MSTORE PUSH1 0x20 ADD PUSH1 0x0 KECCAK256 PUSH1 0x40 MLOAD DUP1 PUSH1 0xA0 ADD PUSH1 0x40 MSTORE SWAP1 DUP2 PUSH1 0x0 DUP3 ADD PUSH1 0x0 SWAP1 SLOAD SWAP1 PUSH2 0x100 EXP SWAP1 DIV PUSH20 0xFFFFFFFFFFFFFFFFFFFFFFFFFFFFFFFFFFFFFFFF AND PUSH20 0xFFFFFFFFFFFFFFFFFFFFFFFFFFFFFFFFFFFFFFFF AND PUSH20 0xFFFFFFFFFFFFFFFFFFFFFFFFFFFFFFFFFFFFFFFF AND DUP2 MSTORE PUSH1 0x20 ADD PUSH1 0x1 DUP3 ADD SLOAD DUP2 MSTORE PUSH1 0x20 ADD PUSH1 0x2 DUP3 ADD SLOAD DUP2 MSTORE PUSH1 0x20 ADD PUSH1 0x3 DUP3 ADD PUSH1 0x0 SWAP1 SLOAD SWAP1 PUSH2 0x100 EXP SWAP1 DIV PUSH1 0xFF AND ISZERO ISZERO ISZERO ISZERO DUP2 MSTORE PUSH1 0x20 ADD PUSH1 0x3 DUP3 ADD PUSH1 0x1 SWAP1 SLOAD SWAP1 PUSH2 0x100 EXP SWAP1 DIV PUSH20 0xFFFFFFFFFFFFFFFFFFFFFFFFFFFFFFFFFFFFFFFF AND PUSH20 0xFFFFFFFFFFFFFFFFFFFFFFFFFFFFFFFFFFFFFFFF AND PUSH20 0xFFFFFFFFFFFFFFFFFFFFFFFFFFFFFFFFFFFFFFFF AND DUP2 MSTORE POP POP SWAP1 POP CALLER PUSH20 0xFFFFFFFFFFFFFFFFFFFFFFFFFFFFFFFFFFFFFFFF AND DUP2 PUSH1 0x0 ADD MLOAD PUSH20 0xFFFFFFFFFFFFFFFFFFFFFFFFFFFFFFFFFFFFFFFF AND EQ PUSH2 0x12B7 JUMPI PUSH1 0x40 MLOAD PUSH32 0x8C379A000000000000000000000000000000000000000000000000000000000 DUP2 MSTORE PUSH1 0x4 ADD PUSH2 0x12AE SWAP1 PUSH2 0x243A JUMP JUMPDEST PUSH1 0x40 MLOAD DUP1 SWAP2 SUB SWAP1 REVERT JUMPDEST TIMESTAMP PUSH1 0x2 SLOAD DUP3 PUSH1 0x20 ADD MLOAD PUSH2 0x12CA SWAP2 SWAP1 PUSH2 0x2489 JUMP JUMPDEST LT PUSH2 0x130A JUMPI PUSH1 0x40 MLOAD PUSH32 0x8C379A000000000000000000000000000000000000000000000000000000000 DUP2 MSTORE PUSH1 0x4 ADD PUSH2 0x1301 SWAP1 PUSH2 0x2914 JUMP JUMPDEST PUSH1 0x40 MLOAD DUP1 SWAP2 SUB SWAP1 REVERT JUMPDEST DUP1 PUSH1 0x60 ADD MLOAD ISZERO PUSH2 0x134F JUMPI PUSH1 0x40 MLOAD PUSH32 0x8C379A000000000000000000000000000000000000000000000000000000000 DUP2 MSTORE PUSH1 0x4 ADD PUSH2 0x1346 SWAP1 PUSH2 0x2575 JUMP JUMPDEST PUSH1 0x40 MLOAD DUP1 SWAP2 SUB SWAP1 REVERT JUMPDEST DUP3 PUSH20 0xFFFFFFFFFFFFFFFFFFFFFFFFFFFFFFFFFFFFFFFF AND PUSH4 0x23B872DD ADDRESS CALLER DUP9 DUP9 DUP8 DUP2 DUP2 LT PUSH2 0x1380 JUMPI PUSH2 0x137F PUSH2 0x23BF JUMP JUMPDEST JUMPDEST SWAP1 POP PUSH1 0x20 MUL ADD CALLDATALOAD PUSH1 0x40 MLOAD DUP5 PUSH4 0xFFFFFFFF AND PUSH1 0xE0 SHL DUP2 MSTORE PUSH1 0x4 ADD PUSH2 0x13A5 SWAP4 SWAP3 SWAP2 SWAP1 PUSH2 0x2801 JUMP JUMPDEST PUSH1 0x0 PUSH1 0x40 MLOAD DUP1 DUP4 SUB DUP2 PUSH1 0x0 DUP8 DUP1 EXTCODESIZE ISZERO DUP1 ISZERO PUSH2 0x13BF JUMPI PUSH1 0x0 DUP1 REVERT JUMPDEST POP GAS CALL ISZERO DUP1 ISZERO PUSH2 0x13D3 JUMPI RETURNDATASIZE PUSH1 0x0 DUP1 RETURNDATACOPY RETURNDATASIZE PUSH1 0x0 REVERT JUMPDEST POP POP POP POP PUSH1 0x0 PUSH2 0x13FC DUP7 DUP7 DUP6 DUP2 DUP2 LT PUSH2 0x13EF JUMPI PUSH2 0x13EE PUSH2 0x23BF JUMP JUMPDEST JUMPDEST SWAP1 POP PUSH1 0x20 MUL ADD CALLDATALOAD DUP6 PUSH2 0x182E JUMP JUMPDEST SWAP1 POP PUSH1 0x0 DUP3 PUSH1 0x40 ADD MLOAD DUP3 PUSH2 0x1410 SWAP2 SWAP1 PUSH2 0x2595 JUMP JUMPDEST SWAP1 POP PUSH1 0x4 PUSH1 0x0 DUP7 PUSH20 0xFFFFFFFFFFFFFFFFFFFFFFFFFFFFFFFFFFFFFFFF AND PUSH20 0xFFFFFFFFFFFFFFFFFFFFFFFFFFFFFFFFFFFFFFFF AND DUP2 MSTORE PUSH1 0x20 ADD SWAP1 DUP2 MSTORE PUSH1 0x20 ADD PUSH1 0x0 KECCAK256 PUSH1 0x0 ADD PUSH1 0x0 SWAP1 SLOAD SWAP1 PUSH2 0x100 EXP SWAP1 DIV PUSH20 0xFFFFFFFFFFFFFFFFFFFFFFFFFFFFFFFFFFFFFFFF AND PUSH20 0xFFFFFFFFFFFFFFFFFFFFFFFFFFFFFFFFFFFFFFFF AND PUSH4 0x40C10F19 CALLER DUP4 PUSH1 0x40 MLOAD DUP4 PUSH4 0xFFFFFFFF AND PUSH1 0xE0 SHL DUP2 MSTORE PUSH1 0x4 ADD PUSH2 0x14AF SWAP3 SWAP2 SWAP1 PUSH2 0x25C9 JUMP JUMPDEST PUSH1 0x0 PUSH1 0x40 MLOAD DUP1 DUP4 SUB DUP2 PUSH1 0x0 DUP8 DUP1 EXTCODESIZE ISZERO DUP1 ISZERO PUSH2 0x14C9 JUMPI PUSH1 0x0 DUP1 REVERT JUMPDEST POP GAS CALL ISZERO DUP1 ISZERO PUSH2 0x14DD JUMPI RETURNDATASIZE PUSH1 0x0 DUP1 RETURNDATACOPY RETURNDATASIZE PUSH1 0x0 REVERT JUMPDEST POP POP POP POP DUP2 PUSH1 0x3 PUSH1 0x0 DUP8 PUSH20 0xFFFFFFFFFFFFFFFFFFFFFFFFFFFFFFFFFFFFFFFF AND PUSH20 0xFFFFFFFFFFFFFFFFFFFFFFFFFFFFFFFFFFFFFFFF AND DUP2 MSTORE PUSH1 0x20 ADD SWAP1 DUP2 MSTORE PUSH1 0x20 ADD PUSH1 0x0 KECCAK256 PUSH1 0x0 DUP10 DUP10 DUP9 DUP2 DUP2 LT PUSH2 0x1536 JUMPI PUSH2 0x1535 PUSH2 0x23BF JUMP JUMPDEST JUMPDEST SWAP1 POP PUSH1 0x20 MUL ADD CALLDATALOAD DUP2 MSTORE PUSH1 0x20 ADD SWAP1 DUP2 MSTORE PUSH1 0x20 ADD PUSH1 0x0 KECCAK256 PUSH1 0x2 ADD DUP2 SWAP1 SSTORE POP PUSH1 0x1 PUSH1 0x3 PUSH1 0x0 DUP8 PUSH20 0xFFFFFFFFFFFFFFFFFFFFFFFFFFFFFFFFFFFFFFFF AND PUSH20 0xFFFFFFFFFFFFFFFFFFFFFFFFFFFFFFFFFFFFFFFF AND DUP2 MSTORE PUSH1 0x20 ADD SWAP1 DUP2 MSTORE PUSH1 0x20 ADD PUSH1 0x0 KECCAK256 PUSH1 0x0 DUP10 DUP10 DUP9 DUP2 DUP2 LT PUSH2 0x15A8 JUMPI PUSH2 0x15A7 PUSH2 0x23BF JUMP JUMPDEST JUMPDEST SWAP1 POP PUSH1 0x20 MUL ADD CALLDATALOAD DUP2 MSTORE PUSH1 0x20 ADD SWAP1 DUP2 MSTORE PUSH1 0x20 ADD PUSH1 0x0 KECCAK256 PUSH1 0x3 ADD PUSH1 0x0 PUSH2 0x100 EXP DUP2 SLOAD DUP2 PUSH1 0xFF MUL NOT AND SWAP1 DUP4 ISZERO ISZERO MUL OR SWAP1 SSTORE POP POP POP POP DUP1 DUP1 PUSH2 0x15E5 SWAP1 PUSH2 0x25F2 JUMP JUMPDEST SWAP2 POP POP PUSH2 0x10E7 JUMP JUMPDEST POP CALLER PUSH20 0xFFFFFFFFFFFFFFFFFFFFFFFFFFFFFFFFFFFFFFFF AND PUSH32 0x5CB48022479B9AC3BFB10A27965DC010ACFFC9FC1BC9A52F0B18975B944B54CA DUP5 DUP5 PUSH1 0x40 MLOAD PUSH2 0x1636 SWAP3 SWAP2 SWAP1 PUSH2 0x2838 JUMP JUMPDEST PUSH1 0x40 MLOAD DUP1 SWAP2 SUB SWAP1 LOG2 PUSH1 0x1 DUP1 DUP2 SWAP1 SSTORE POP POP POP POP JUMP JUMPDEST PUSH1 0x3 PUSH1 0x20 MSTORE DUP2 PUSH1 0x0 MSTORE PUSH1 0x40 PUSH1 0x0 KECCAK256 PUSH1 0x20 MSTORE DUP1 PUSH1 0x0 MSTORE PUSH1 0x40 PUSH1 0x0 KECCAK256 PUSH1 0x0 SWAP2 POP SWAP2 POP POP DUP1 PUSH1 0x0 ADD PUSH1 0x0 SWAP1 SLOAD SWAP1 PUSH2 0x100 EXP SWAP1 DIV PUSH20 0xFFFFFFFFFFFFFFFFFFFFFFFFFFFFFFFFFFFFFFFF AND SWAP1 DUP1 PUSH1 0x1 ADD SLOAD SWAP1 DUP1 PUSH1 0x2 ADD SLOAD SWAP1 DUP1 PUSH1 0x3 ADD PUSH1 0x0 SWAP1 SLOAD SWAP1 PUSH2 0x100 EXP SWAP1 DIV PUSH1 0xFF AND SWAP1 DUP1 PUSH1 0x3 ADD PUSH1 0x1 SWAP1 SLOAD SWAP1 PUSH2 0x100 EXP SWAP1 DIV PUSH20 0xFFFFFFFFFFFFFFFFFFFFFFFFFFFFFFFFFFFFFFFF AND SWAP1 POP DUP6 JUMP JUMPDEST PUSH1 0x0 PUSH1 0x3 PUSH1 0x0 DUP4 PUSH20 0xFFFFFFFFFFFFFFFFFFFFFFFFFFFFFFFFFFFFFFFF AND PUSH20 0xFFFFFFFFFFFFFFFFFFFFFFFFFFFFFFFFFFFFFFFF AND DUP2 MSTORE PUSH1 0x20 ADD SWAP1 DUP2 MSTORE PUSH1 0x20 ADD PUSH1 0x0 KECCAK256 PUSH1 0x0 DUP5 DUP2 MSTORE PUSH1 0x20 ADD SWAP1 DUP2 MSTORE PUSH1 0x20 ADD PUSH1 0x0 KECCAK256 PUSH1 0x2 ADD SLOAD SWAP1 POP SWAP3 SWAP2 POP POP JUMP JUMPDEST PUSH1 0x5 SLOAD DUP2 JUMP JUMPDEST PUSH1 0x4 PUSH1 0x20 MSTORE DUP1 PUSH1 0x0 MSTORE PUSH1 0x40 PUSH1 0x0 KECCAK256 PUSH1 0x0 SWAP2 POP SWAP1 POP DUP1 PUSH1 0x0 ADD PUSH1 0x0 SWAP1 SLOAD SWAP1 PUSH2 0x100 EXP SWAP1 DIV PUSH20 0xFFFFFFFFFFFFFFFFFFFFFFFFFFFFFFFFFFFFFFFF AND SWAP1 DUP1 PUSH1 0x1 ADD SLOAD SWAP1 DUP1 PUSH1 0x2 ADD SLOAD SWAP1 POP DUP4 JUMP JUMPDEST PUSH2 0x1790 PUSH2 0x1A0C JUMP JUMPDEST PUSH1 0x0 PUSH20 0xFFFFFFFFFFFFFFFFFFFFFFFFFFFFFFFFFFFFFFFF AND DUP2 PUSH20 0xFFFFFFFFFFFFFFFFFFFFFFFFFFFFFFFFFFFFFFFF AND SUB PUSH2 0x17FF JUMPI PUSH1 0x40 MLOAD PUSH32 0x8C379A000000000000000000000000000000000000000000000000000000000 DUP2 MSTORE PUSH1 0x4 ADD PUSH2 0x17F6 SWAP1 PUSH2 0x29A6 JUMP JUMPDEST PUSH1 0x40 MLOAD DUP1 SWAP2 SUB SWAP1 REVERT JUMPDEST PUSH2 0x1808 DUP2 PUSH2 0x1A8A JUMP JUMPDEST POP JUMP JUMPDEST PUSH1 0x0 DUP1 DUP3 PUSH20 0xFFFFFFFFFFFFFFFFFFFFFFFFFFFFFFFFFFFFFFFF AND EXTCODESIZE GT SWAP1 POP SWAP2 SWAP1 POP JUMP JUMPDEST PUSH1 0x0 DUP1 PUSH1 0x3 PUSH1 0x0 DUP5 PUSH20 0xFFFFFFFFFFFFFFFFFFFFFFFFFFFFFFFFFFFFFFFF AND PUSH20 0xFFFFFFFFFFFFFFFFFFFFFFFFFFFFFFFFFFFFFFFF AND DUP2 MSTORE PUSH1 0x20 ADD SWAP1 DUP2 MSTORE PUSH1 0x20 ADD PUSH1 0x0 KECCAK256 PUSH1 0x0 DUP6 DUP2 MSTORE PUSH1 0x20 ADD SWAP1 DUP2 MSTORE PUSH1 0x20 ADD PUSH1 0x0 KECCAK256 PUSH1 0x40 MLOAD DUP1 PUSH1 0xA0 ADD PUSH1 0x40 MSTORE SWAP1 DUP2 PUSH1 0x0 DUP3 ADD PUSH1 0x0 SWAP1 SLOAD SWAP1 PUSH2 0x100 EXP SWAP1 DIV PUSH20 0xFFFFFFFFFFFFFFFFFFFFFFFFFFFFFFFFFFFFFFFF AND PUSH20 0xFFFFFFFFFFFFFFFFFFFFFFFFFFFFFFFFFFFFFFFF AND PUSH20 0xFFFFFFFFFFFFFFFFFFFFFFFFFFFFFFFFFFFFFFFF AND DUP2 MSTORE PUSH1 0x20 ADD PUSH1 0x1 DUP3 ADD SLOAD DUP2 MSTORE PUSH1 0x20 ADD PUSH1 0x2 DUP3 ADD SLOAD DUP2 MSTORE PUSH1 0x20 ADD PUSH1 0x3 DUP3 ADD PUSH1 0x0 SWAP1 SLOAD SWAP1 PUSH2 0x100 EXP SWAP1 DIV PUSH1 0xFF AND ISZERO ISZERO ISZERO ISZERO DUP2 MSTORE PUSH1 0x20 ADD PUSH1 0x3 DUP3 ADD PUSH1 0x1 SWAP1 SLOAD SWAP1 PUSH2 0x100 EXP SWAP1 DIV PUSH20 0xFFFFFFFFFFFFFFFFFFFFFFFFFFFFFFFFFFFFFFFF AND PUSH20 0xFFFFFFFFFFFFFFFFFFFFFFFFFFFFFFFFFFFFFFFF AND PUSH20 0xFFFFFFFFFFFFFFFFFFFFFFFFFFFFFFFFFFFFFFFF AND DUP2 MSTORE POP POP SWAP1 POP PUSH1 0x0 DUP2 PUSH1 0x20 ADD MLOAD TIMESTAMP PUSH2 0x197B SWAP2 SWAP1 PUSH2 0x2595 JUMP JUMPDEST SWAP1 POP PUSH1 0x0 PUSH1 0x2 SLOAD DUP3 LT ISZERO PUSH2 0x1995 JUMPI PUSH1 0x0 SWAP4 POP POP POP POP PUSH2 0x1A06 JUMP JUMPDEST PUSH1 0x5 SLOAD PUSH1 0x2 SLOAD DUP4 PUSH2 0x19A6 SWAP2 SWAP1 PUSH2 0x2595 JUMP JUMPDEST PUSH1 0x4 PUSH1 0x0 DUP9 PUSH20 0xFFFFFFFFFFFFFFFFFFFFFFFFFFFFFFFFFFFFFFFF AND PUSH20 0xFFFFFFFFFFFFFFFFFFFFFFFFFFFFFFFFFFFFFFFF AND DUP2 MSTORE PUSH1 0x20 ADD SWAP1 DUP2 MSTORE PUSH1 0x20 ADD PUSH1 0x0 KECCAK256 PUSH1 0x1 ADD SLOAD PUSH2 0x19F3 SWAP2 SWAP1 PUSH2 0x29C6 JUMP JUMPDEST PUSH2 0x19FD SWAP2 SWAP1 PUSH2 0x2A4F JUMP JUMPDEST SWAP1 POP DUP1 SWAP4 POP POP POP POP JUMPDEST SWAP3 SWAP2 POP POP JUMP JUMPDEST PUSH2 0x1A14 PUSH2 0x1B4E JUMP JUMPDEST PUSH20 0xFFFFFFFFFFFFFFFFFFFFFFFFFFFFFFFFFFFFFFFF AND PUSH2 0x1A32 PUSH2 0xF5B JUMP JUMPDEST PUSH20 0xFFFFFFFFFFFFFFFFFFFFFFFFFFFFFFFFFFFFFFFF AND EQ PUSH2 0x1A88 JUMPI PUSH1 0x40 MLOAD PUSH32 0x8C379A000000000000000000000000000000000000000000000000000000000 DUP2 MSTORE PUSH1 0x4 ADD PUSH2 0x1A7F SWAP1 PUSH2 0x2ACC JUMP JUMPDEST PUSH1 0x40 MLOAD DUP1 SWAP2 SUB SWAP1 REVERT JUMPDEST JUMP JUMPDEST PUSH1 0x0 DUP1 PUSH1 0x0 SWAP1 SLOAD SWAP1 PUSH2 0x100 EXP SWAP1 DIV PUSH20 0xFFFFFFFFFFFFFFFFFFFFFFFFFFFFFFFFFFFFFFFF AND SWAP1 POP DUP2 PUSH1 0x0 DUP1 PUSH2 0x100 EXP DUP2 SLOAD DUP2 PUSH20 0xFFFFFFFFFFFFFFFFFFFFFFFFFFFFFFFFFFFFFFFF MUL NOT AND SWAP1 DUP4 PUSH20 0xFFFFFFFFFFFFFFFFFFFFFFFFFFFFFFFFFFFFFFFF AND MUL OR SWAP1 SSTORE POP DUP2 PUSH20 0xFFFFFFFFFFFFFFFFFFFFFFFFFFFFFFFFFFFFFFFF AND DUP2 PUSH20 0xFFFFFFFFFFFFFFFFFFFFFFFFFFFFFFFFFFFFFFFF AND PUSH32 0x8BE0079C531659141344CD1FD0A4F28419497F9722A3DAAFE3B4186F6B6457E0 PUSH1 0x40 MLOAD PUSH1 0x40 MLOAD DUP1 SWAP2 SUB SWAP1 LOG3 POP POP JUMP JUMPDEST PUSH1 0x0 CALLER SWAP1 POP SWAP1 JUMP JUMPDEST PUSH1 0x0 PUSH1 0x40 MLOAD SWAP1 POP SWAP1 JUMP JUMPDEST PUSH1 0x0 DUP1 REVERT JUMPDEST PUSH1 0x0 DUP1 REVERT JUMPDEST PUSH1 0x0 DUP1 REVERT JUMPDEST PUSH1 0x0 DUP1 REVERT JUMPDEST PUSH1 0x0 DUP1 REVERT JUMPDEST PUSH1 0x0 DUP1 DUP4 PUSH1 0x1F DUP5 ADD SLT PUSH2 0x1B8F JUMPI PUSH2 0x1B8E PUSH2 0x1B6A JUMP JUMPDEST JUMPDEST DUP3 CALLDATALOAD SWAP1 POP PUSH8 0xFFFFFFFFFFFFFFFF DUP2 GT ISZERO PUSH2 0x1BAC JUMPI PUSH2 0x1BAB PUSH2 0x1B6F JUMP JUMPDEST JUMPDEST PUSH1 0x20 DUP4 ADD SWAP2 POP DUP4 PUSH1 0x20 DUP3 MUL DUP4 ADD GT ISZERO PUSH2 0x1BC8 JUMPI PUSH2 0x1BC7 PUSH2 0x1B74 JUMP JUMPDEST JUMPDEST SWAP3 POP SWAP3 SWAP1 POP JUMP JUMPDEST PUSH1 0x0 PUSH20 0xFFFFFFFFFFFFFFFFFFFFFFFFFFFFFFFFFFFFFFFF DUP3 AND SWAP1 POP SWAP2 SWAP1 POP JUMP JUMPDEST PUSH1 0x0 PUSH2 0x1BFA DUP3 PUSH2 0x1BCF JUMP JUMPDEST SWAP1 POP SWAP2 SWAP1 POP JUMP JUMPDEST PUSH1 0x0 PUSH2 0x1C0C DUP3 PUSH2 0x1BEF JUMP JUMPDEST SWAP1 POP SWAP2 SWAP1 POP JUMP JUMPDEST PUSH2 0x1C1C DUP2 PUSH2 0x1C01 JUMP JUMPDEST DUP2 EQ PUSH2 0x1C27 JUMPI PUSH1 0x0 DUP1 REVERT JUMPDEST POP JUMP JUMPDEST PUSH1 0x0 DUP2 CALLDATALOAD SWAP1 POP PUSH2 0x1C39 DUP2 PUSH2 0x1C13 JUMP JUMPDEST SWAP3 SWAP2 POP POP JUMP JUMPDEST PUSH1 0x0 DUP1 PUSH1 0x0 PUSH1 0x40 DUP5 DUP7 SUB SLT ISZERO PUSH2 0x1C58 JUMPI PUSH2 0x1C57 PUSH2 0x1B60 JUMP JUMPDEST JUMPDEST PUSH1 0x0 DUP5 ADD CALLDATALOAD PUSH8 0xFFFFFFFFFFFFFFFF DUP2 GT ISZERO PUSH2 0x1C76 JUMPI PUSH2 0x1C75 PUSH2 0x1B65 JUMP JUMPDEST JUMPDEST PUSH2 0x1C82 DUP7 DUP3 DUP8 ADD PUSH2 0x1B79 JUMP JUMPDEST SWAP4 POP SWAP4 POP POP PUSH1 0x20 PUSH2 0x1C95 DUP7 DUP3 DUP8 ADD PUSH2 0x1C2A JUMP JUMPDEST SWAP2 POP POP SWAP3 POP SWAP3 POP SWAP3 JUMP JUMPDEST PUSH1 0x0 PUSH1 0x1F NOT PUSH1 0x1F DUP4 ADD AND SWAP1 POP SWAP2 SWAP1 POP JUMP JUMPDEST PUSH32 0x4E487B7100000000000000000000000000000000000000000000000000000000 PUSH1 0x0 MSTORE PUSH1 0x41 PUSH1 0x4 MSTORE PUSH1 0x24 PUSH1 0x0 REVERT JUMPDEST PUSH2 0x1CE8 DUP3 PUSH2 0x1C9F JUMP JUMPDEST DUP2 ADD DUP2 DUP2 LT PUSH8 0xFFFFFFFFFFFFFFFF DUP3 GT OR ISZERO PUSH2 0x1D07 JUMPI PUSH2 0x1D06 PUSH2 0x1CB0 JUMP JUMPDEST JUMPDEST DUP1 PUSH1 0x40 MSTORE POP POP POP JUMP JUMPDEST PUSH1 0x0 PUSH2 0x1D1A PUSH2 0x1B56 JUMP JUMPDEST SWAP1 POP PUSH2 0x1D26 DUP3 DUP3 PUSH2 0x1CDF JUMP JUMPDEST SWAP2 SWAP1 POP JUMP JUMPDEST PUSH1 0x0 PUSH8 0xFFFFFFFFFFFFFFFF DUP3 GT ISZERO PUSH2 0x1D46 JUMPI PUSH2 0x1D45 PUSH2 0x1CB0 JUMP JUMPDEST JUMPDEST PUSH1 0x20 DUP3 MUL SWAP1 POP PUSH1 0x20 DUP2 ADD SWAP1 POP SWAP2 SWAP1 POP JUMP JUMPDEST PUSH2 0x1D60 DUP2 PUSH2 0x1BEF JUMP JUMPDEST DUP2 EQ PUSH2 0x1D6B JUMPI PUSH1 0x0 DUP1 REVERT JUMPDEST POP JUMP JUMPDEST PUSH1 0x0 DUP2 CALLDATALOAD SWAP1 POP PUSH2 0x1D7D DUP2 PUSH2 0x1D57 JUMP JUMPDEST SWAP3 SWAP2 POP POP JUMP JUMPDEST PUSH1 0x0 PUSH2 0x1D96 PUSH2 0x1D91 DUP5 PUSH2 0x1D2B JUMP JUMPDEST PUSH2 0x1D10 JUMP JUMPDEST SWAP1 POP DUP1 DUP4 DUP3 MSTORE PUSH1 0x20 DUP3 ADD SWAP1 POP PUSH1 0x20 DUP5 MUL DUP4 ADD DUP6 DUP2 GT ISZERO PUSH2 0x1DB9 JUMPI PUSH2 0x1DB8 PUSH2 0x1B74 JUMP JUMPDEST JUMPDEST DUP4 JUMPDEST DUP2 DUP2 LT ISZERO PUSH2 0x1DE2 JUMPI DUP1 PUSH2 0x1DCE DUP9 DUP3 PUSH2 0x1D6E JUMP JUMPDEST DUP5 MSTORE PUSH1 0x20 DUP5 ADD SWAP4 POP POP PUSH1 0x20 DUP2 ADD SWAP1 POP PUSH2 0x1DBB JUMP JUMPDEST POP POP POP SWAP4 SWAP3 POP POP POP JUMP JUMPDEST PUSH1 0x0 DUP3 PUSH1 0x1F DUP4 ADD SLT PUSH2 0x1E01 JUMPI PUSH2 0x1E00 PUSH2 0x1B6A JUMP JUMPDEST JUMPDEST DUP2 CALLDATALOAD PUSH2 0x1E11 DUP5 DUP3 PUSH1 0x20 DUP7 ADD PUSH2 0x1D83 JUMP JUMPDEST SWAP2 POP POP SWAP3 SWAP2 POP POP JUMP JUMPDEST PUSH1 0x0 PUSH8 0xFFFFFFFFFFFFFFFF DUP3 GT ISZERO PUSH2 0x1E35 JUMPI PUSH2 0x1E34 PUSH2 0x1CB0 JUMP JUMPDEST JUMPDEST PUSH1 0x20 DUP3 MUL SWAP1 POP PUSH1 0x20 DUP2 ADD SWAP1 POP SWAP2 SWAP1 POP JUMP JUMPDEST PUSH1 0x0 DUP2 SWAP1 POP SWAP2 SWAP1 POP JUMP JUMPDEST PUSH2 0x1E59 DUP2 PUSH2 0x1E46 JUMP JUMPDEST DUP2 EQ PUSH2 0x1E64 JUMPI PUSH1 0x0 DUP1 REVERT JUMPDEST POP JUMP JUMPDEST PUSH1 0x0 DUP2 CALLDATALOAD SWAP1 POP PUSH2 0x1E76 DUP2 PUSH2 0x1E50 JUMP JUMPDEST SWAP3 SWAP2 POP POP JUMP JUMPDEST PUSH1 0x0 PUSH2 0x1E8F PUSH2 0x1E8A DUP5 PUSH2 0x1E1A JUMP JUMPDEST PUSH2 0x1D10 JUMP JUMPDEST SWAP1 POP DUP1 DUP4 DUP3 MSTORE PUSH1 0x20 DUP3 ADD SWAP1 POP PUSH1 0x20 DUP5 MUL DUP4 ADD DUP6 DUP2 GT ISZERO PUSH2 0x1EB2 JUMPI PUSH2 0x1EB1 PUSH2 0x1B74 JUMP JUMPDEST JUMPDEST DUP4 JUMPDEST DUP2 DUP2 LT ISZERO PUSH2 0x1EDB JUMPI DUP1 PUSH2 0x1EC7 DUP9 DUP3 PUSH2 0x1E67 JUMP JUMPDEST DUP5 MSTORE PUSH1 0x20 DUP5 ADD SWAP4 POP POP PUSH1 0x20 DUP2 ADD SWAP1 POP PUSH2 0x1EB4 JUMP JUMPDEST POP POP POP SWAP4 SWAP3 POP POP POP JUMP JUMPDEST PUSH1 0x0 DUP3 PUSH1 0x1F DUP4 ADD SLT PUSH2 0x1EFA JUMPI PUSH2 0x1EF9 PUSH2 0x1B6A JUMP JUMPDEST JUMPDEST DUP2 CALLDATALOAD PUSH2 0x1F0A DUP5 DUP3 PUSH1 0x20 DUP7 ADD PUSH2 0x1E7C JUMP JUMPDEST SWAP2 POP POP SWAP3 SWAP2 POP POP JUMP JUMPDEST PUSH1 0x0 DUP1 PUSH1 0x0 DUP1 PUSH1 0x80 DUP6 DUP8 SUB SLT ISZERO PUSH2 0x1F2D JUMPI PUSH2 0x1F2C PUSH2 0x1B60 JUMP JUMPDEST JUMPDEST PUSH1 0x0 DUP6 ADD CALLDATALOAD PUSH8 0xFFFFFFFFFFFFFFFF DUP2 GT ISZERO PUSH2 0x1F4B JUMPI PUSH2 0x1F4A PUSH2 0x1B65 JUMP JUMPDEST JUMPDEST PUSH2 0x1F57 DUP8 DUP3 DUP9 ADD PUSH2 0x1DEC JUMP JUMPDEST SWAP5 POP POP PUSH1 0x20 DUP6 ADD CALLDATALOAD PUSH8 0xFFFFFFFFFFFFFFFF DUP2 GT ISZERO PUSH2 0x1F78 JUMPI PUSH2 0x1F77 PUSH2 0x1B65 JUMP JUMPDEST JUMPDEST PUSH2 0x1F84 DUP8 DUP3 DUP9 ADD PUSH2 0x1DEC JUMP JUMPDEST SWAP4 POP POP PUSH1 0x40 DUP6 ADD CALLDATALOAD PUSH8 0xFFFFFFFFFFFFFFFF DUP2 GT ISZERO PUSH2 0x1FA5 JUMPI PUSH2 0x1FA4 PUSH2 0x1B65 JUMP JUMPDEST JUMPDEST PUSH2 0x1FB1 DUP8 DUP3 DUP9 ADD PUSH2 0x1EE5 JUMP JUMPDEST SWAP3 POP POP PUSH1 0x60 DUP6 ADD CALLDATALOAD PUSH8 0xFFFFFFFFFFFFFFFF DUP2 GT ISZERO PUSH2 0x1FD2 JUMPI PUSH2 0x1FD1 PUSH2 0x1B65 JUMP JUMPDEST JUMPDEST PUSH2 0x1FDE DUP8 DUP3 DUP9 ADD PUSH2 0x1EE5 JUMP JUMPDEST SWAP2 POP POP SWAP3 SWAP6 SWAP2 SWAP5 POP SWAP3 POP JUMP JUMPDEST PUSH2 0x1FF3 DUP2 PUSH2 0x1E46 JUMP JUMPDEST DUP3 MSTORE POP POP JUMP JUMPDEST PUSH1 0x0 PUSH1 0x20 DUP3 ADD SWAP1 POP PUSH2 0x200E PUSH1 0x0 DUP4 ADD DUP5 PUSH2 0x1FEA JUMP JUMPDEST SWAP3 SWAP2 POP POP JUMP JUMPDEST PUSH1 0x0 PUSH1 0x20 DUP3 DUP5 SUB SLT ISZERO PUSH2 0x202A JUMPI PUSH2 0x2029 PUSH2 0x1B60 JUMP JUMPDEST JUMPDEST PUSH1 0x0 PUSH2 0x2038 DUP5 DUP3 DUP6 ADD PUSH2 0x1E67 JUMP JUMPDEST SWAP2 POP POP SWAP3 SWAP2 POP POP JUMP JUMPDEST PUSH2 0x204A DUP2 PUSH2 0x1BEF JUMP JUMPDEST DUP3 MSTORE POP POP JUMP JUMPDEST PUSH1 0x0 PUSH1 0x20 DUP3 ADD SWAP1 POP PUSH2 0x2065 PUSH1 0x0 DUP4 ADD DUP5 PUSH2 0x2041 JUMP JUMPDEST SWAP3 SWAP2 POP POP JUMP JUMPDEST PUSH1 0x0 DUP1 PUSH1 0x40 DUP4 DUP6 SUB SLT ISZERO PUSH2 0x2082 JUMPI PUSH2 0x2081 PUSH2 0x1B60 JUMP JUMPDEST JUMPDEST PUSH1 0x0 PUSH2 0x2090 DUP6 DUP3 DUP7 ADD PUSH2 0x1C2A JUMP JUMPDEST SWAP3 POP POP PUSH1 0x20 PUSH2 0x20A1 DUP6 DUP3 DUP7 ADD PUSH2 0x1E67 JUMP JUMPDEST SWAP2 POP POP SWAP3 POP SWAP3 SWAP1 POP JUMP JUMPDEST PUSH1 0x0 DUP2 ISZERO ISZERO SWAP1 POP SWAP2 SWAP1 POP JUMP JUMPDEST PUSH2 0x20C0 DUP2 PUSH2 0x20AB JUMP JUMPDEST DUP3 MSTORE POP POP JUMP JUMPDEST PUSH1 0x0 DUP2 SWAP1 POP SWAP2 SWAP1 POP JUMP JUMPDEST PUSH1 0x0 PUSH2 0x20EB PUSH2 0x20E6 PUSH2 0x20E1 DUP5 PUSH2 0x1BCF JUMP JUMPDEST PUSH2 0x20C6 JUMP JUMPDEST PUSH2 0x1BCF JUMP JUMPDEST SWAP1 POP SWAP2 SWAP1 POP JUMP JUMPDEST PUSH1 0x0 PUSH2 0x20FD DUP3 PUSH2 0x20D0 JUMP JUMPDEST SWAP1 POP SWAP2 SWAP1 POP JUMP JUMPDEST PUSH1 0x0 PUSH2 0x210F DUP3 PUSH2 0x20F2 JUMP JUMPDEST SWAP1 POP SWAP2 SWAP1 POP JUMP JUMPDEST PUSH2 0x211F DUP2 PUSH2 0x2104 JUMP JUMPDEST DUP3 MSTORE POP POP JUMP JUMPDEST PUSH1 0x0 PUSH1 0xA0 DUP3 ADD SWAP1 POP PUSH2 0x213A PUSH1 0x0 DUP4 ADD DUP9 PUSH2 0x2041 JUMP JUMPDEST PUSH2 0x2147 PUSH1 0x20 DUP4 ADD DUP8 PUSH2 0x1FEA JUMP JUMPDEST PUSH2 0x2154 PUSH1 0x40 DUP4 ADD DUP7 PUSH2 0x1FEA JUMP JUMPDEST PUSH2 0x2161 PUSH1 0x60 DUP4 ADD DUP6 PUSH2 0x20B7 JUMP JUMPDEST PUSH2 0x216E PUSH1 0x80 DUP4 ADD DUP5 PUSH2 0x2116 JUMP JUMPDEST SWAP7 SWAP6 POP POP POP POP POP POP JUMP JUMPDEST PUSH1 0x0 DUP1 PUSH1 0x40 DUP4 DUP6 SUB SLT ISZERO PUSH2 0x218F JUMPI PUSH2 0x218E PUSH2 0x1B60 JUMP JUMPDEST JUMPDEST PUSH1 0x0 PUSH2 0x219D DUP6 DUP3 DUP7 ADD PUSH2 0x1E67 JUMP JUMPDEST SWAP3 POP POP PUSH1 0x20 PUSH2 0x21AE DUP6 DUP3 DUP7 ADD PUSH2 0x1C2A JUMP JUMPDEST SWAP2 POP POP SWAP3 POP SWAP3 SWAP1 POP JUMP JUMPDEST PUSH1 0x0 PUSH1 0x20 DUP3 DUP5 SUB SLT ISZERO PUSH2 0x21CE JUMPI PUSH2 0x21CD PUSH2 0x1B60 JUMP JUMPDEST JUMPDEST PUSH1 0x0 PUSH2 0x21DC DUP5 DUP3 DUP6 ADD PUSH2 0x1C2A JUMP JUMPDEST SWAP2 POP POP SWAP3 SWAP2 POP POP JUMP JUMPDEST PUSH1 0x0 PUSH2 0x21F0 DUP3 PUSH2 0x20F2 JUMP JUMPDEST SWAP1 POP SWAP2 SWAP1 POP JUMP JUMPDEST PUSH2 0x2200 DUP2 PUSH2 0x21E5 JUMP JUMPDEST DUP3 MSTORE POP POP JUMP JUMPDEST PUSH1 0x0 PUSH1 0x60 DUP3 ADD SWAP1 POP PUSH2 0x221B PUSH1 0x0 DUP4 ADD DUP7 PUSH2 0x21F7 JUMP JUMPDEST PUSH2 0x2228 PUSH1 0x20 DUP4 ADD DUP6 PUSH2 0x1FEA JUMP JUMPDEST PUSH2 0x2235 PUSH1 0x40 DUP4 ADD DUP5 PUSH2 0x1FEA JUMP JUMPDEST SWAP5 SWAP4 POP POP POP POP JUMP JUMPDEST PUSH1 0x0 PUSH1 0x20 DUP3 DUP5 SUB SLT ISZERO PUSH2 0x2253 JUMPI PUSH2 0x2252 PUSH2 0x1B60 JUMP JUMPDEST JUMPDEST PUSH1 0x0 PUSH2 0x2261 DUP5 DUP3 DUP6 ADD PUSH2 0x1D6E JUMP JUMPDEST SWAP2 POP POP SWAP3 SWAP2 POP POP JUMP JUMPDEST PUSH1 0x0 DUP3 DUP3 MSTORE PUSH1 0x20 DUP3 ADD SWAP1 POP SWAP3 SWAP2 POP POP JUMP JUMPDEST PUSH32 0x436F6E7472616374206E6F7420616C6C6F776564000000000000000000000000 PUSH1 0x0 DUP3 ADD MSTORE POP JUMP JUMPDEST PUSH1 0x0 PUSH2 0x22B1 PUSH1 0x14 DUP4 PUSH2 0x226A JUMP JUMPDEST SWAP2 POP PUSH2 0x22BC DUP3 PUSH2 0x227B JUMP JUMPDEST PUSH1 0x20 DUP3 ADD SWAP1 POP SWAP2 SWAP1 POP JUMP JUMPDEST PUSH1 0x0 PUSH1 0x20 DUP3 ADD SWAP1 POP DUP2 DUP2 SUB PUSH1 0x0 DUP4 ADD MSTORE PUSH2 0x22E0 DUP2 PUSH2 0x22A4 JUMP JUMPDEST SWAP1 POP SWAP2 SWAP1 POP JUMP JUMPDEST PUSH32 0x50726F787920636F6E7472616374206E6F7420616C6C6F776564000000000000 PUSH1 0x0 DUP3 ADD MSTORE POP JUMP JUMPDEST PUSH1 0x0 PUSH2 0x231D PUSH1 0x1A DUP4 PUSH2 0x226A JUMP JUMPDEST SWAP2 POP PUSH2 0x2328 DUP3 PUSH2 0x22E7 JUMP JUMPDEST PUSH1 0x20 DUP3 ADD SWAP1 POP SWAP2 SWAP1 POP JUMP JUMPDEST PUSH1 0x0 PUSH1 0x20 DUP3 ADD SWAP1 POP DUP2 DUP2 SUB PUSH1 0x0 DUP4 ADD MSTORE PUSH2 0x234C DUP2 PUSH2 0x2310 JUMP JUMPDEST SWAP1 POP SWAP2 SWAP1 POP JUMP JUMPDEST PUSH32 0x4E6F20746F6B656E730000000000000000000000000000000000000000000000 PUSH1 0x0 DUP3 ADD MSTORE POP JUMP JUMPDEST PUSH1 0x0 PUSH2 0x2389 PUSH1 0x9 DUP4 PUSH2 0x226A JUMP JUMPDEST SWAP2 POP PUSH2 0x2394 DUP3 PUSH2 0x2353 JUMP JUMPDEST PUSH1 0x20 DUP3 ADD SWAP1 POP SWAP2 SWAP1 POP JUMP JUMPDEST PUSH1 0x0 PUSH1 0x20 DUP3 ADD SWAP1 POP DUP2 DUP2 SUB PUSH1 0x0 DUP4 ADD MSTORE PUSH2 0x23B8 DUP2 PUSH2 0x237C JUMP JUMPDEST SWAP1 POP SWAP2 SWAP1 POP JUMP JUMPDEST PUSH32 0x4E487B7100000000000000000000000000000000000000000000000000000000 PUSH1 0x0 MSTORE PUSH1 0x32 PUSH1 0x4 MSTORE PUSH1 0x24 PUSH1 0x0 REVERT JUMPDEST PUSH32 0x4E6F74206120746F6B656E206F776E6572000000000000000000000000000000 PUSH1 0x0 DUP3 ADD MSTORE POP JUMP JUMPDEST PUSH1 0x0 PUSH2 0x2424 PUSH1 0x11 DUP4 PUSH2 0x226A JUMP JUMPDEST SWAP2 POP PUSH2 0x242F DUP3 PUSH2 0x23EE JUMP JUMPDEST PUSH1 0x20 DUP3 ADD SWAP1 POP SWAP2 SWAP1 POP JUMP JUMPDEST PUSH1 0x0 PUSH1 0x20 DUP3 ADD SWAP1 POP DUP2 DUP2 SUB PUSH1 0x0 DUP4 ADD MSTORE PUSH2 0x2453 DUP2 PUSH2 0x2417 JUMP JUMPDEST SWAP1 POP SWAP2 SWAP1 POP JUMP JUMPDEST PUSH32 0x4E487B7100000000000000000000000000000000000000000000000000000000 PUSH1 0x0 MSTORE PUSH1 0x11 PUSH1 0x4 MSTORE PUSH1 0x24 PUSH1 0x0 REVERT JUMPDEST PUSH1 0x0 PUSH2 0x2494 DUP3 PUSH2 0x1E46 JUMP JUMPDEST SWAP2 POP PUSH2 0x249F DUP4 PUSH2 0x1E46 JUMP JUMPDEST SWAP3 POP DUP3 DUP3 ADD SWAP1 POP DUP1 DUP3 GT ISZERO PUSH2 0x24B7 JUMPI PUSH2 0x24B6 PUSH2 0x245A JUMP JUMPDEST JUMPDEST SWAP3 SWAP2 POP POP JUMP JUMPDEST PUSH32 0x4E6F742061626C6520746F20636C61696D207965740000000000000000000000 PUSH1 0x0 DUP3 ADD MSTORE POP JUMP JUMPDEST PUSH1 0x0 PUSH2 0x24F3 PUSH1 0x15 DUP4 PUSH2 0x226A JUMP JUMPDEST SWAP2 POP PUSH2 0x24FE DUP3 PUSH2 0x24BD JUMP JUMPDEST PUSH1 0x20 DUP3 ADD SWAP1 POP SWAP2 SWAP1 POP JUMP JUMPDEST PUSH1 0x0 PUSH1 0x20 DUP3 ADD SWAP1 POP DUP2 DUP2 SUB PUSH1 0x0 DUP4 ADD MSTORE PUSH2 0x2522 DUP2 PUSH2 0x24E6 JUMP JUMPDEST SWAP1 POP SWAP2 SWAP1 POP JUMP JUMPDEST PUSH32 0x416C726561647920756E6C6F636B656400000000000000000000000000000000 PUSH1 0x0 DUP3 ADD MSTORE POP JUMP JUMPDEST PUSH1 0x0 PUSH2 0x255F PUSH1 0x10 DUP4 PUSH2 0x226A JUMP JUMPDEST SWAP2 POP PUSH2 0x256A DUP3 PUSH2 0x2529 JUMP JUMPDEST PUSH1 0x20 DUP3 ADD SWAP1 POP SWAP2 SWAP1 POP JUMP JUMPDEST PUSH1 0x0 PUSH1 0x20 DUP3 ADD SWAP1 POP DUP2 DUP2 SUB PUSH1 0x0 DUP4 ADD MSTORE PUSH2 0x258E DUP2 PUSH2 0x2552 JUMP JUMPDEST SWAP1 POP SWAP2 SWAP1 POP JUMP JUMPDEST PUSH1 0x0 PUSH2 0x25A0 DUP3 PUSH2 0x1E46 JUMP JUMPDEST SWAP2 POP PUSH2 0x25AB DUP4 PUSH2 0x1E46 JUMP JUMPDEST SWAP3 POP DUP3 DUP3 SUB SWAP1 POP DUP2 DUP2 GT ISZERO PUSH2 0x25C3 JUMPI PUSH2 0x25C2 PUSH2 0x245A JUMP JUMPDEST JUMPDEST SWAP3 SWAP2 POP POP JUMP JUMPDEST PUSH1 0x0 PUSH1 0x40 DUP3 ADD SWAP1 POP PUSH2 0x25DE PUSH1 0x0 DUP4 ADD DUP6 PUSH2 0x2041 JUMP JUMPDEST PUSH2 0x25EB PUSH1 0x20 DUP4 ADD DUP5 PUSH2 0x1FEA JUMP JUMPDEST SWAP4 SWAP3 POP POP POP JUMP JUMPDEST PUSH1 0x0 PUSH2 0x25FD DUP3 PUSH2 0x1E46 JUMP JUMPDEST SWAP2 POP PUSH32 0xFFFFFFFFFFFFFFFFFFFFFFFFFFFFFFFFFFFFFFFFFFFFFFFFFFFFFFFFFFFFFFFF DUP3 SUB PUSH2 0x262F JUMPI PUSH2 0x262E PUSH2 0x245A JUMP JUMPDEST JUMPDEST PUSH1 0x1 DUP3 ADD SWAP1 POP SWAP2 SWAP1 POP JUMP JUMPDEST PUSH1 0x0 DUP3 DUP3 MSTORE PUSH1 0x20 DUP3 ADD SWAP1 POP SWAP3 SWAP2 POP POP JUMP JUMPDEST PUSH1 0x0 DUP1 REVERT JUMPDEST DUP3 DUP2 DUP4 CALLDATACOPY POP POP POP JUMP JUMPDEST PUSH1 0x0 PUSH2 0x2665 DUP4 DUP6 PUSH2 0x263A JUMP JUMPDEST SWAP4 POP PUSH32 0x7FFFFFFFFFFFFFFFFFFFFFFFFFFFFFFFFFFFFFFFFFFFFFFFFFFFFFFFFFFFFFF DUP4 GT ISZERO PUSH2 0x2698 JUMPI PUSH2 0x2697 PUSH2 0x264B JUMP JUMPDEST JUMPDEST PUSH1 0x20 DUP4 MUL SWAP3 POP PUSH2 0x26A9 DUP4 DUP6 DUP5 PUSH2 0x2650 JUMP JUMPDEST DUP3 DUP5 ADD SWAP1 POP SWAP4 SWAP3 POP POP POP JUMP JUMPDEST PUSH1 0x0 PUSH1 0x40 DUP3 ADD SWAP1 POP DUP2 DUP2 SUB PUSH1 0x0 DUP4 ADD MSTORE PUSH2 0x26D0 DUP2 DUP6 DUP8 PUSH2 0x2659 JUMP JUMPDEST SWAP1 POP PUSH2 0x26DF PUSH1 0x20 DUP4 ADD DUP5 PUSH2 0x1FEA JUMP JUMPDEST SWAP5 SWAP4 POP POP POP POP JUMP JUMPDEST PUSH32 0x5265656E7472616E637947756172643A207265656E7472616E742063616C6C00 PUSH1 0x0 DUP3 ADD MSTORE POP JUMP JUMPDEST PUSH1 0x0 PUSH2 0x271D PUSH1 0x1F DUP4 PUSH2 0x226A JUMP JUMPDEST SWAP2 POP PUSH2 0x2728 DUP3 PUSH2 0x26E7 JUMP JUMPDEST PUSH1 0x20 DUP3 ADD SWAP1 POP SWAP2 SWAP1 POP JUMP JUMPDEST PUSH1 0x0 PUSH1 0x20 DUP3 ADD SWAP1 POP DUP2 DUP2 SUB PUSH1 0x0 DUP4 ADD MSTORE PUSH2 0x274C DUP2 PUSH2 0x2710 JUMP JUMPDEST SWAP1 POP SWAP2 SWAP1 POP JUMP JUMPDEST PUSH1 0x0 DUP2 MLOAD SWAP1 POP PUSH2 0x2762 DUP2 PUSH2 0x1D57 JUMP JUMPDEST SWAP3 SWAP2 POP POP JUMP JUMPDEST PUSH1 0x0 PUSH1 0x20 DUP3 DUP5 SUB SLT ISZERO PUSH2 0x277E JUMPI PUSH2 0x277D PUSH2 0x1B60 JUMP JUMPDEST JUMPDEST PUSH1 0x0 PUSH2 0x278C DUP5 DUP3 DUP6 ADD PUSH2 0x2753 JUMP JUMPDEST SWAP2 POP POP SWAP3 SWAP2 POP POP JUMP JUMPDEST PUSH32 0x596F7520646F6E277420686F6C64207468697320746F6B656E00000000000000 PUSH1 0x0 DUP3 ADD MSTORE POP JUMP JUMPDEST PUSH1 0x0 PUSH2 0x27CB PUSH1 0x19 DUP4 PUSH2 0x226A JUMP JUMPDEST SWAP2 POP PUSH2 0x27D6 DUP3 PUSH2 0x2795 JUMP JUMPDEST PUSH1 0x20 DUP3 ADD SWAP1 POP SWAP2 SWAP1 POP JUMP JUMPDEST PUSH1 0x0 PUSH1 0x20 DUP3 ADD SWAP1 POP DUP2 DUP2 SUB PUSH1 0x0 DUP4 ADD MSTORE PUSH2 0x27FA DUP2 PUSH2 0x27BE JUMP JUMPDEST SWAP1 POP SWAP2 SWAP1 POP JUMP JUMPDEST PUSH1 0x0 PUSH1 0x60 DUP3 ADD SWAP1 POP PUSH2 0x2816 PUSH1 0x0 DUP4 ADD DUP7 PUSH2 0x2041 JUMP JUMPDEST PUSH2 0x2823 PUSH1 0x20 DUP4 ADD DUP6 PUSH2 0x2041 JUMP JUMPDEST PUSH2 0x2830 PUSH1 0x40 DUP4 ADD DUP5 PUSH2 0x1FEA JUMP JUMPDEST SWAP5 SWAP4 POP POP POP POP JUMP JUMPDEST PUSH1 0x0 PUSH1 0x20 DUP3 ADD SWAP1 POP DUP2 DUP2 SUB PUSH1 0x0 DUP4 ADD MSTORE PUSH2 0x2853 DUP2 DUP5 DUP7 PUSH2 0x2659 JUMP JUMPDEST SWAP1 POP SWAP4 SWAP3 POP POP POP JUMP JUMPDEST PUSH32 0x496E76616C6964206C6F636B20706572696F642E000000000000000000000000 PUSH1 0x0 DUP3 ADD MSTORE POP JUMP JUMPDEST PUSH1 0x0 PUSH2 0x2892 PUSH1 0x14 DUP4 PUSH2 0x226A JUMP JUMPDEST SWAP2 POP PUSH2 0x289D DUP3 PUSH2 0x285C JUMP JUMPDEST PUSH1 0x20 DUP3 ADD SWAP1 POP SWAP2 SWAP1 POP JUMP JUMPDEST PUSH1 0x0 PUSH1 0x20 DUP3 ADD SWAP1 POP DUP2 DUP2 SUB PUSH1 0x0 DUP4 ADD MSTORE PUSH2 0x28C1 DUP2 PUSH2 0x2885 JUMP JUMPDEST SWAP1 POP SWAP2 SWAP1 POP JUMP JUMPDEST PUSH32 0x4E6F742061626C6520746F20756E6C6F636B2079657400000000000000000000 PUSH1 0x0 DUP3 ADD MSTORE POP JUMP JUMPDEST PUSH1 0x0 PUSH2 0x28FE PUSH1 0x16 DUP4 PUSH2 0x226A JUMP JUMPDEST SWAP2 POP PUSH2 0x2909 DUP3 PUSH2 0x28C8 JUMP JUMPDEST PUSH1 0x20 DUP3 ADD SWAP1 POP SWAP2 SWAP1 POP JUMP JUMPDEST PUSH1 0x0 PUSH1 0x20 DUP3 ADD SWAP1 POP DUP2 DUP2 SUB PUSH1 0x0 DUP4 ADD MSTORE PUSH2 0x292D DUP2 PUSH2 0x28F1 JUMP JUMPDEST SWAP1 POP SWAP2 SWAP1 POP JUMP JUMPDEST PUSH32 0x4F776E61626C653A206E6577206F776E657220697320746865207A65726F2061 PUSH1 0x0 DUP3 ADD MSTORE PUSH32 0x6464726573730000000000000000000000000000000000000000000000000000 PUSH1 0x20 DUP3 ADD MSTORE POP JUMP JUMPDEST PUSH1 0x0 PUSH2 0x2990 PUSH1 0x26 DUP4 PUSH2 0x226A JUMP JUMPDEST SWAP2 POP PUSH2 0x299B DUP3 PUSH2 0x2934 JUMP JUMPDEST PUSH1 0x40 DUP3 ADD SWAP1 POP SWAP2 SWAP1 POP JUMP JUMPDEST PUSH1 0x0 PUSH1 0x20 DUP3 ADD SWAP1 POP DUP2 DUP2 SUB PUSH1 0x0 DUP4 ADD MSTORE PUSH2 0x29BF DUP2 PUSH2 0x2983 JUMP JUMPDEST SWAP1 POP SWAP2 SWAP1 POP JUMP JUMPDEST PUSH1 0x0 PUSH2 0x29D1 DUP3 PUSH2 0x1E46 JUMP JUMPDEST SWAP2 POP PUSH2 0x29DC DUP4 PUSH2 0x1E46 JUMP JUMPDEST SWAP3 POP DUP2 PUSH32 0xFFFFFFFFFFFFFFFFFFFFFFFFFFFFFFFFFFFFFFFFFFFFFFFFFFFFFFFFFFFFFFFF DIV DUP4 GT DUP3 ISZERO ISZERO AND ISZERO PUSH2 0x2A15 JUMPI PUSH2 0x2A14 PUSH2 0x245A JUMP JUMPDEST JUMPDEST DUP3 DUP3 MUL SWAP1 POP SWAP3 SWAP2 POP POP JUMP JUMPDEST PUSH32 0x4E487B7100000000000000000000000000000000000000000000000000000000 PUSH1 0x0 MSTORE PUSH1 0x12 PUSH1 0x4 MSTORE PUSH1 0x24 PUSH1 0x0 REVERT JUMPDEST PUSH1 0x0 PUSH2 0x2A5A DUP3 PUSH2 0x1E46 JUMP JUMPDEST SWAP2 POP PUSH2 0x2A65 DUP4 PUSH2 0x1E46 JUMP JUMPDEST SWAP3 POP DUP3 PUSH2 0x2A75 JUMPI PUSH2 0x2A74 PUSH2 0x2A20 JUMP JUMPDEST JUMPDEST DUP3 DUP3 DIV SWAP1 POP SWAP3 SWAP2 POP POP JUMP JUMPDEST PUSH32 0x4F776E61626C653A2063616C6C6572206973206E6F7420746865206F776E6572 PUSH1 0x0 DUP3 ADD MSTORE POP JUMP JUMPDEST PUSH1 0x0 PUSH2 0x2AB6 PUSH1 0x20 DUP4 PUSH2 0x226A JUMP JUMPDEST SWAP2 POP PUSH2 0x2AC1 DUP3 PUSH2 0x2A80 JUMP JUMPDEST PUSH1 0x20 DUP3 ADD SWAP1 POP SWAP2 SWAP1 POP JUMP JUMPDEST PUSH1 0x0 PUSH1 0x20 DUP3 ADD SWAP1 POP DUP2 DUP2 SUB PUSH1 0x0 DUP4 ADD MSTORE PUSH2 0x2AE5 DUP2 PUSH2 0x2AA9 JUMP JUMPDEST SWAP1 POP SWAP2 SWAP1 POP JUMP INVALID LOG2 PUSH5 0x6970667358 0x22 SLT KECCAK256 0xD3 EXP STATICCALL DUP12 SELFBALANCE ISZERO SWAP7 0xB5 0x2E ADD PUSH14 0xB597637B63D4CDF8AAC00408166B 0xB9 0xEC PUSH21 0xE998D55364736F6C63430008100033000000000000 "
				},
				"gasEstimates": {
					"creation": {
						"codeDepositCost": "2208400",
						"executionCost": "infinite",
						"totalCost": "infinite"
					},
					"external": {
						"WAVE()": "2473",
						"claimRewards(uint256[],address)": "infinite",
						"claimedRewards(uint256,address)": "infinite",
						"lockInfo(address,uint256)": "infinite",
						"lockNFT(uint256[],address)": "infinite",
						"lockPeriod()": "2496",
						"nftInfo(address)": "infinite",
						"owner()": "2545",
						"renounceOwnership()": "30487",
						"setLockPeriod(address[],address[],uint256[],uint256[])": "infinite",
						"setLockPeriod(uint256)": "infinite",
						"transferOwnership(address)": "30832",
						"unlockNFT(uint256[],address)": "infinite"
					},
					"internal": {
						"_rewardAmount(uint256,contract IERC721)": "infinite"
					}
				},
				"methodIdentifiers": {
					"WAVE()": "c69d1923",
					"claimRewards(uint256[],address)": "0520537f",
					"claimedRewards(uint256,address)": "b33068c4",
					"lockInfo(address,uint256)": "b2520a7c",
					"lockNFT(uint256[],address)": "1902732e",
					"lockPeriod()": "3fd8b02f",
					"nftInfo(address)": "e9545b92",
					"owner()": "8da5cb5b",
					"renounceOwnership()": "715018a6",
					"setLockPeriod(address[],address[],uint256[],uint256[])": "108a9d9e",
					"setLockPeriod(uint256)": "779972da",
					"transferOwnership(address)": "f2fde38b",
					"unlockNFT(uint256[],address)": "9f3625f0"
				}
			},
			"storageLayout": {
				"storage": [
					{
						"astId": 7,
						"contract": "contracts/Staking.sol:NFTStaking1",
						"label": "_owner",
						"offset": 0,
						"slot": "0",
						"type": "t_address"
					},
					{
						"astId": 123,
						"contract": "contracts/Staking.sol:NFTStaking1",
						"label": "_status",
						"offset": 0,
						"slot": "1",
						"type": "t_uint256"
					},
					{
						"astId": 614,
						"contract": "contracts/Staking.sol:NFTStaking1",
						"label": "lockPeriod",
						"offset": 0,
						"slot": "2",
						"type": "t_uint256"
					},
					{
						"astId": 634,
						"contract": "contracts/Staking.sol:NFTStaking1",
						"label": "lockInfo",
						"offset": 0,
						"slot": "3",
						"type": "t_mapping(t_contract(IERC721)268,t_mapping(t_uint256,t_struct(LockInfo)626_storage))"
					},
					{
						"astId": 648,
						"contract": "contracts/Staking.sol:NFTStaking1",
						"label": "nftInfo",
						"offset": 0,
						"slot": "4",
						"type": "t_mapping(t_contract(IERC721)268,t_struct(stakeNftInfo)642_storage)"
					},
					{
						"astId": 651,
						"contract": "contracts/Staking.sol:NFTStaking1",
						"label": "WAVE",
						"offset": 0,
						"slot": "5",
						"type": "t_uint256"
					}
				],
				"types": {
					"t_address": {
						"encoding": "inplace",
						"label": "address",
						"numberOfBytes": "20"
					},
					"t_bool": {
						"encoding": "inplace",
						"label": "bool",
						"numberOfBytes": "1"
					},
					"t_contract(IERC721)268": {
						"encoding": "inplace",
						"label": "contract IERC721",
						"numberOfBytes": "20"
					},
					"t_contract(IRewardsToken)1281": {
						"encoding": "inplace",
						"label": "contract IRewardsToken",
						"numberOfBytes": "20"
					},
					"t_mapping(t_contract(IERC721)268,t_mapping(t_uint256,t_struct(LockInfo)626_storage))": {
						"encoding": "mapping",
						"key": "t_contract(IERC721)268",
						"label": "mapping(contract IERC721 => mapping(uint256 => struct NFTStaking1.LockInfo))",
						"numberOfBytes": "32",
						"value": "t_mapping(t_uint256,t_struct(LockInfo)626_storage)"
					},
					"t_mapping(t_contract(IERC721)268,t_struct(stakeNftInfo)642_storage)": {
						"encoding": "mapping",
						"key": "t_contract(IERC721)268",
						"label": "mapping(contract IERC721 => struct NFTStaking1.stakeNftInfo)",
						"numberOfBytes": "32",
						"value": "t_struct(stakeNftInfo)642_storage"
					},
					"t_mapping(t_uint256,t_struct(LockInfo)626_storage)": {
						"encoding": "mapping",
						"key": "t_uint256",
						"label": "mapping(uint256 => struct NFTStaking1.LockInfo)",
						"numberOfBytes": "32",
						"value": "t_struct(LockInfo)626_storage"
					},
					"t_struct(LockInfo)626_storage": {
						"encoding": "inplace",
						"label": "struct NFTStaking1.LockInfo",
						"members": [
							{
								"astId": 616,
								"contract": "contracts/Staking.sol:NFTStaking1",
								"label": "owner",
								"offset": 0,
								"slot": "0",
								"type": "t_address"
							},
							{
								"astId": 618,
								"contract": "contracts/Staking.sol:NFTStaking1",
								"label": "lockedTime",
								"offset": 0,
								"slot": "1",
								"type": "t_uint256"
							},
							{
								"astId": 620,
								"contract": "contracts/Staking.sol:NFTStaking1",
								"label": "claimedRewards",
								"offset": 0,
								"slot": "2",
								"type": "t_uint256"
							},
							{
								"astId": 622,
								"contract": "contracts/Staking.sol:NFTStaking1",
								"label": "isUnlocked",
								"offset": 0,
								"slot": "3",
								"type": "t_bool"
							},
							{
								"astId": 625,
								"contract": "contracts/Staking.sol:NFTStaking1",
								"label": "contractAddress",
								"offset": 1,
								"slot": "3",
								"type": "t_contract(IERC721)268"
							}
						],
						"numberOfBytes": "128"
					},
					"t_struct(stakeNftInfo)642_storage": {
						"encoding": "inplace",
						"label": "struct NFTStaking1.stakeNftInfo",
						"members": [
							{
								"astId": 637,
								"contract": "contracts/Staking.sol:NFTStaking1",
								"label": "rewardsToken",
								"offset": 0,
								"slot": "0",
								"type": "t_contract(IRewardsToken)1281"
							},
							{
								"astId": 639,
								"contract": "contracts/Staking.sol:NFTStaking1",
								"label": "rewardsPerWave",
								"offset": 0,
								"slot": "1",
								"type": "t_uint256"
							},
							{
								"astId": 641,
								"contract": "contracts/Staking.sol:NFTStaking1",
								"label": "rewardPercentage",
								"offset": 0,
								"slot": "2",
								"type": "t_uint256"
							}
						],
						"numberOfBytes": "96"
					},
					"t_uint256": {
						"encoding": "inplace",
						"label": "uint256",
						"numberOfBytes": "32"
					}
				}
			},
			"userdoc": {
				"kind": "user",
				"methods": {
					"WAVE()": {
						"notice": "CONSTANTS "
					}
				},
				"version": 1
			}
		}
	}
}