{
	"contracts/Staking.sol": {
		"NFTStaking1": {
			"abi": [
				{
					"inputs": [
						{
							"internalType": "address[]",
							"name": "_stakeNFT",
							"type": "address[]"
						},
						{
							"internalType": "address[]",
							"name": "_rewardsToken",
							"type": "address[]"
						},
						{
							"internalType": "uint256",
							"name": "_lockPeriod",
							"type": "uint256"
						},
						{
							"internalType": "uint256[]",
							"name": "_rewardPerWave",
							"type": "uint256[]"
						},
						{
							"internalType": "uint256[]",
							"name": "_rewardPercentage",
							"type": "uint256[]"
						},
						{
							"internalType": "uint256",
							"name": "_wave",
							"type": "uint256"
						}
					],
					"stateMutability": "nonpayable",
					"type": "constructor"
				},
				{
					"anonymous": false,
					"inputs": [
						{
							"indexed": false,
							"internalType": "uint256",
							"name": "lockPeriod",
							"type": "uint256"
						}
					],
					"name": "LockPeriodUpdated",
					"type": "event"
				},
				{
					"anonymous": false,
					"inputs": [
						{
							"indexed": true,
							"internalType": "address",
							"name": "owner",
							"type": "address"
						},
						{
							"indexed": false,
							"internalType": "uint256[]",
							"name": "tokenIds",
							"type": "uint256[]"
						}
					],
					"name": "NFTLocked",
					"type": "event"
				},
				{
					"anonymous": false,
					"inputs": [
						{
							"indexed": true,
							"internalType": "address",
							"name": "owner",
							"type": "address"
						},
						{
							"indexed": false,
							"internalType": "uint256[]",
							"name": "tokenIds",
							"type": "uint256[]"
						}
					],
					"name": "NFTUnLocked",
					"type": "event"
				},
				{
					"anonymous": false,
					"inputs": [
						{
							"indexed": true,
							"internalType": "address",
							"name": "previousOwner",
							"type": "address"
						},
						{
							"indexed": true,
							"internalType": "address",
							"name": "newOwner",
							"type": "address"
						}
					],
					"name": "OwnershipTransferred",
					"type": "event"
				},
				{
					"anonymous": false,
					"inputs": [
						{
							"indexed": true,
							"internalType": "address",
							"name": "owner",
							"type": "address"
						},
						{
							"indexed": false,
							"internalType": "uint256[]",
							"name": "tokenIds",
							"type": "uint256[]"
						},
						{
							"indexed": false,
							"internalType": "uint256",
							"name": "rewards",
							"type": "uint256"
						}
					],
					"name": "RewardsClaimed",
					"type": "event"
				},
				{
					"inputs": [],
					"name": "WAVE",
					"outputs": [
						{
							"internalType": "uint256",
							"name": "",
							"type": "uint256"
						}
					],
					"stateMutability": "view",
					"type": "function"
				},
				{
					"inputs": [
						{
							"internalType": "uint256[]",
							"name": "_tokenIds",
							"type": "uint256[]"
						},
						{
							"internalType": "contract IERC721",
							"name": "nftAddress",
							"type": "address"
						}
					],
					"name": "claimRewards",
					"outputs": [],
					"stateMutability": "nonpayable",
					"type": "function"
				},
				{
					"inputs": [
						{
							"internalType": "uint256",
							"name": "_tokenId",
							"type": "uint256"
						},
						{
							"internalType": "contract IERC721",
							"name": "nftAddress",
							"type": "address"
						}
					],
					"name": "claimedRewards",
					"outputs": [
						{
							"internalType": "uint256",
							"name": "",
							"type": "uint256"
						}
					],
					"stateMutability": "view",
					"type": "function"
				},
				{
					"inputs": [
						{
							"internalType": "contract IERC721",
							"name": "",
							"type": "address"
						},
						{
							"internalType": "uint256",
							"name": "",
							"type": "uint256"
						}
					],
					"name": "lockInfo",
					"outputs": [
						{
							"internalType": "address",
							"name": "owner",
							"type": "address"
						},
						{
							"internalType": "uint256",
							"name": "lockedTime",
							"type": "uint256"
						},
						{
							"internalType": "uint256",
							"name": "claimedRewards",
							"type": "uint256"
						},
						{
							"internalType": "bool",
							"name": "isUnlocked",
							"type": "bool"
						},
						{
							"internalType": "contract IERC721",
							"name": "contractAddress",
							"type": "address"
						}
					],
					"stateMutability": "view",
					"type": "function"
				},
				{
					"inputs": [
						{
							"internalType": "uint256[]",
							"name": "_tokenIds",
							"type": "uint256[]"
						},
						{
							"internalType": "contract IERC721",
							"name": "nftAddress",
							"type": "address"
						}
					],
					"name": "lockNFT",
					"outputs": [],
					"stateMutability": "nonpayable",
					"type": "function"
				},
				{
					"inputs": [],
					"name": "lockPeriod",
					"outputs": [
						{
							"internalType": "uint256",
							"name": "",
							"type": "uint256"
						}
					],
					"stateMutability": "view",
					"type": "function"
				},
				{
					"inputs": [
						{
							"internalType": "contract IERC721",
							"name": "",
							"type": "address"
						}
					],
					"name": "nftInfo",
					"outputs": [
						{
							"internalType": "contract IRewardsToken",
							"name": "rewardsToken",
							"type": "address"
						},
						{
							"internalType": "uint256",
							"name": "rewardsPerWave",
							"type": "uint256"
						},
						{
							"internalType": "uint256",
							"name": "rewardPercentage",
							"type": "uint256"
						}
					],
					"stateMutability": "view",
					"type": "function"
				},
				{
					"inputs": [],
					"name": "owner",
					"outputs": [
						{
							"internalType": "address",
							"name": "",
							"type": "address"
						}
					],
					"stateMutability": "view",
					"type": "function"
				},
				{
					"inputs": [],
					"name": "renounceOwnership",
					"outputs": [],
					"stateMutability": "nonpayable",
					"type": "function"
				},
				{
					"inputs": [
						{
							"internalType": "uint256",
							"name": "_lockPeriod",
							"type": "uint256"
						}
					],
					"name": "setLockPeriod",
					"outputs": [],
					"stateMutability": "nonpayable",
					"type": "function"
				},
				{
					"inputs": [
						{
							"internalType": "address",
							"name": "newOwner",
							"type": "address"
						}
					],
					"name": "transferOwnership",
					"outputs": [],
					"stateMutability": "nonpayable",
					"type": "function"
				},
				{
					"inputs": [
						{
							"internalType": "uint256[]",
							"name": "_tokenIds",
							"type": "uint256[]"
						},
						{
							"internalType": "contract IERC721",
							"name": "nftAddress",
							"type": "address"
						}
					],
					"name": "unlockNFT",
					"outputs": [],
					"stateMutability": "nonpayable",
					"type": "function"
				}
			],
			"devdoc": {
				"kind": "dev",
				"methods": {
					"claimRewards(uint256[],address)": {
						"details": "claim rewards",
						"params": {
							"_tokenIds": "token ids to unlock"
						}
					},
					"claimedRewards(uint256,address)": {
						"details": "get total claimed rewards for token id",
						"params": {
							"_tokenId": "token id to get claimed Rewards amount"
						}
					},
					"lockNFT(uint256[],address)": {
						"details": "lock NFT into the contract",
						"params": {
							"_tokenIds": "token ids to stake"
						}
					},
					"owner()": {
						"details": "Returns the address of the current owner."
					},
					"renounceOwnership()": {
						"details": "Leaves the contract without owner. It will not be possible to call `onlyOwner` functions anymore. Can only be called by the current owner. NOTE: Renouncing ownership will leave the contract without an owner, thereby removing any functionality that is only available to the owner."
					},
					"setLockPeriod(uint256)": {
						"details": "update lock period",
						"params": {
							"_lockPeriod": "lock period to set"
						}
					},
					"transferOwnership(address)": {
						"details": "Transfers ownership of the contract to a new account (`newOwner`). Can only be called by the current owner."
					},
					"unlockNFT(uint256[],address)": {
						"details": "unlock NFT from the contract",
						"params": {
							"_tokenIds": "token ids to unlock"
						}
					}
				},
				"version": 1
			},
			"evm": {
				"assembly": "    /* \"contracts/Staking.sol\":412:6998  contract NFTStaking1 is Ownable, ReentrancyGuard {... */\n  mstore(0x40, 0x80)\n    /* \"contracts/Staking.sol\":1578:2500  constructor(... */\n  callvalue\n  dup1\n  iszero\n  tag_1\n  jumpi\n  0x00\n  dup1\n  revert\ntag_1:\n  pop\n  mload(0x40)\n  sub(codesize, bytecodeSize)\n  dup1\n  bytecodeSize\n  dup4\n  codecopy\n  dup2\n  dup2\n  add\n  0x40\n  mstore\n  dup2\n  add\n  swap1\n  tag_2\n  swap2\n  swap1\n  tag_3\n  jump\t// in\ntag_2:\n    /* \"@openzeppelin/contracts/access/Ownable.sol\":936:968  _transferOwnership(_msgSender()) */\n  tag_8\n    /* \"@openzeppelin/contracts/access/Ownable.sol\":955:967  _msgSender() */\n  tag_9\n    /* \"@openzeppelin/contracts/access/Ownable.sol\":955:965  _msgSender */\n  shl(0x20, tag_10)\n    /* \"@openzeppelin/contracts/access/Ownable.sol\":955:967  _msgSender() */\n  0x20\n  shr\n  jump\t// in\ntag_9:\n    /* \"@openzeppelin/contracts/access/Ownable.sol\":936:954  _transferOwnership */\n  shl(0x20, tag_11)\n    /* \"@openzeppelin/contracts/access/Ownable.sol\":936:968  _transferOwnership(_msgSender()) */\n  0x20\n  shr\n  jump\t// in\ntag_8:\n    /* \"@openzeppelin/contracts/security/ReentrancyGuard.sol\":1701:1702  1 */\n  0x01\n    /* \"@openzeppelin/contracts/security/ReentrancyGuard.sol\":1806:1813  _status */\n  dup1\n    /* \"@openzeppelin/contracts/security/ReentrancyGuard.sol\":1806:1828  _status = _NOT_ENTERED */\n  dup2\n  swap1\n  sstore\n  pop\n    /* \"contracts/Staking.sol\":2084:2085  0 */\n  0x00\n    /* \"contracts/Staking.sol\":2070:2081  _lockPeriod */\n  dup5\n    /* \"contracts/Staking.sol\":2070:2085  _lockPeriod > 0 */\n  gt\n    /* \"contracts/Staking.sol\":2062:2109  require(_lockPeriod > 0, \"Invalid lock period\") */\n  tag_14\n  jumpi\n  mload(0x40)\n  0x08c379a000000000000000000000000000000000000000000000000000000000\n  dup2\n  mstore\n  0x04\n  add\n  tag_15\n  swap1\n  tag_16\n  jump\t// in\ntag_15:\n  mload(0x40)\n  dup1\n  swap2\n  sub\n  swap1\n  revert\ntag_14:\n    /* \"contracts/Staking.sol\":2127:2133  uint i */\n  0x00\n    /* \"contracts/Staking.sol\":2122:2433  for (uint i = 0; i < _stakeNFT.length; i++) {... */\ntag_17:\n    /* \"contracts/Staking.sol\":2143:2152  _stakeNFT */\n  dup7\n    /* \"contracts/Staking.sol\":2143:2159  _stakeNFT.length */\n  mload\n    /* \"contracts/Staking.sol\":2139:2140  i */\n  dup2\n    /* \"contracts/Staking.sol\":2139:2159  i < _stakeNFT.length */\n  lt\n    /* \"contracts/Staking.sol\":2122:2433  for (uint i = 0; i < _stakeNFT.length; i++) {... */\n  iszero\n  tag_18\n  jumpi\n    /* \"contracts/Staking.sol\":2243:2256  _rewardsToken */\n  dup6\n    /* \"contracts/Staking.sol\":2257:2258  i */\n  dup2\n    /* \"contracts/Staking.sol\":2243:2259  _rewardsToken[i] */\n  dup2\n  mload\n  dup2\n  lt\n  tag_20\n  jumpi\n  tag_21\n  tag_22\n  jump\t// in\ntag_21:\ntag_20:\n  0x20\n  mul\n  0x20\n  add\n  add\n  mload\n    /* \"contracts/Staking.sol\":2183:2190  nftInfo */\n  0x04\n    /* \"contracts/Staking.sol\":2183:2213  nftInfo[IERC721(_stakeNFT[i])] */\n  0x00\n    /* \"contracts/Staking.sol\":2199:2208  _stakeNFT */\n  dup10\n    /* \"contracts/Staking.sol\":2209:2210  i */\n  dup5\n    /* \"contracts/Staking.sol\":2199:2211  _stakeNFT[i] */\n  dup2\n  mload\n  dup2\n  lt\n  tag_23\n  jumpi\n  tag_24\n  tag_22\n  jump\t// in\ntag_24:\ntag_23:\n  0x20\n  mul\n  0x20\n  add\n  add\n  mload\n    /* \"contracts/Staking.sol\":2183:2213  nftInfo[IERC721(_stakeNFT[i])] */\n  0xffffffffffffffffffffffffffffffffffffffff\n  and\n  0xffffffffffffffffffffffffffffffffffffffff\n  and\n  dup2\n  mstore\n  0x20\n  add\n  swap1\n  dup2\n  mstore\n  0x20\n  add\n  0x00\n  keccak256\n    /* \"contracts/Staking.sol\":2183:2226  nftInfo[IERC721(_stakeNFT[i])].rewardsToken */\n  0x00\n  add\n  0x00\n    /* \"contracts/Staking.sol\":2183:2260  nftInfo[IERC721(_stakeNFT[i])].rewardsToken = IRewardsToken(_rewardsToken[i]) */\n  0x0100\n  exp\n  dup2\n  sload\n  dup2\n  0xffffffffffffffffffffffffffffffffffffffff\n  mul\n  not\n  and\n  swap1\n  dup4\n  0xffffffffffffffffffffffffffffffffffffffff\n  and\n  mul\n  or\n  swap1\n  sstore\n  pop\n    /* \"contracts/Staking.sol\":2323:2337  _rewardPerWave */\n  dup4\n    /* \"contracts/Staking.sol\":2338:2339  i */\n  dup2\n    /* \"contracts/Staking.sol\":2323:2340  _rewardPerWave[i] */\n  dup2\n  mload\n  dup2\n  lt\n  tag_25\n  jumpi\n  tag_26\n  tag_22\n  jump\t// in\ntag_26:\ntag_25:\n  0x20\n  mul\n  0x20\n  add\n  add\n  mload\n    /* \"contracts/Staking.sol\":2275:2282  nftInfo */\n  0x04\n    /* \"contracts/Staking.sol\":2275:2305  nftInfo[IERC721(_stakeNFT[i])] */\n  0x00\n    /* \"contracts/Staking.sol\":2291:2300  _stakeNFT */\n  dup10\n    /* \"contracts/Staking.sol\":2301:2302  i */\n  dup5\n    /* \"contracts/Staking.sol\":2291:2303  _stakeNFT[i] */\n  dup2\n  mload\n  dup2\n  lt\n  tag_27\n  jumpi\n  tag_28\n  tag_22\n  jump\t// in\ntag_28:\ntag_27:\n  0x20\n  mul\n  0x20\n  add\n  add\n  mload\n    /* \"contracts/Staking.sol\":2275:2305  nftInfo[IERC721(_stakeNFT[i])] */\n  0xffffffffffffffffffffffffffffffffffffffff\n  and\n  0xffffffffffffffffffffffffffffffffffffffff\n  and\n  dup2\n  mstore\n  0x20\n  add\n  swap1\n  dup2\n  mstore\n  0x20\n  add\n  0x00\n  keccak256\n    /* \"contracts/Staking.sol\":2275:2320  nftInfo[IERC721(_stakeNFT[i])].rewardsPerWave */\n  0x01\n  add\n    /* \"contracts/Staking.sol\":2275:2340  nftInfo[IERC721(_stakeNFT[i])].rewardsPerWave = _rewardPerWave[i] */\n  dup2\n  swap1\n  sstore\n  pop\n    /* \"contracts/Staking.sol\":2405:2422  _rewardPercentage */\n  dup3\n    /* \"contracts/Staking.sol\":2423:2424  i */\n  dup2\n    /* \"contracts/Staking.sol\":2405:2425  _rewardPercentage[i] */\n  dup2\n  mload\n  dup2\n  lt\n  tag_29\n  jumpi\n  tag_30\n  tag_22\n  jump\t// in\ntag_30:\ntag_29:\n  0x20\n  mul\n  0x20\n  add\n  add\n  mload\n    /* \"contracts/Staking.sol\":2355:2362  nftInfo */\n  0x04\n    /* \"contracts/Staking.sol\":2355:2385  nftInfo[IERC721(_stakeNFT[i])] */\n  0x00\n    /* \"contracts/Staking.sol\":2371:2380  _stakeNFT */\n  dup10\n    /* \"contracts/Staking.sol\":2381:2382  i */\n  dup5\n    /* \"contracts/Staking.sol\":2371:2383  _stakeNFT[i] */\n  dup2\n  mload\n  dup2\n  lt\n  tag_31\n  jumpi\n  tag_32\n  tag_22\n  jump\t// in\ntag_32:\ntag_31:\n  0x20\n  mul\n  0x20\n  add\n  add\n  mload\n    /* \"contracts/Staking.sol\":2355:2385  nftInfo[IERC721(_stakeNFT[i])] */\n  0xffffffffffffffffffffffffffffffffffffffff\n  and\n  0xffffffffffffffffffffffffffffffffffffffff\n  and\n  dup2\n  mstore\n  0x20\n  add\n  swap1\n  dup2\n  mstore\n  0x20\n  add\n  0x00\n  keccak256\n    /* \"contracts/Staking.sol\":2355:2402  nftInfo[IERC721(_stakeNFT[i])].rewardPercentage */\n  0x02\n  add\n    /* \"contracts/Staking.sol\":2355:2425  nftInfo[IERC721(_stakeNFT[i])].rewardPercentage = _rewardPercentage[i] */\n  dup2\n  swap1\n  sstore\n  pop\n    /* \"contracts/Staking.sol\":2161:2164  i++ */\n  dup1\n  dup1\n  tag_33\n  swap1\n  tag_34\n  jump\t// in\ntag_33:\n  swap2\n  pop\n  pop\n    /* \"contracts/Staking.sol\":2122:2433  for (uint i = 0; i < _stakeNFT.length; i++) {... */\n  jump(tag_17)\ntag_18:\n  pop\n    /* \"contracts/Staking.sol\":2458:2469  _lockPeriod */\n  dup4\n    /* \"contracts/Staking.sol\":2445:2455  lockPeriod */\n  0x02\n    /* \"contracts/Staking.sol\":2445:2469  lockPeriod = _lockPeriod */\n  dup2\n  swap1\n  sstore\n  pop\n    /* \"contracts/Staking.sol\":2487:2492  _wave */\n  dup1\n    /* \"contracts/Staking.sol\":2480:2484  WAVE */\n  0x05\n    /* \"contracts/Staking.sol\":2480:2492  WAVE = _wave */\n  dup2\n  swap1\n  sstore\n  pop\n    /* \"contracts/Staking.sol\":1578:2500  constructor(... */\n  pop\n  pop\n  pop\n  pop\n  pop\n  pop\n    /* \"contracts/Staking.sol\":412:6998  contract NFTStaking1 is Ownable, ReentrancyGuard {... */\n  jump(tag_35)\n    /* \"@openzeppelin/contracts/utils/Context.sol\":640:736  function _msgSender() internal view virtual returns (address) {... */\ntag_10:\n    /* \"@openzeppelin/contracts/utils/Context.sol\":693:700  address */\n  0x00\n    /* \"@openzeppelin/contracts/utils/Context.sol\":719:729  msg.sender */\n  caller\n    /* \"@openzeppelin/contracts/utils/Context.sol\":712:729  return msg.sender */\n  swap1\n  pop\n    /* \"@openzeppelin/contracts/utils/Context.sol\":640:736  function _msgSender() internal view virtual returns (address) {... */\n  swap1\n  jump\t// out\n    /* \"@openzeppelin/contracts/access/Ownable.sol\":2433:2620  function _transferOwnership(address newOwner) internal virtual {... */\ntag_11:\n    /* \"@openzeppelin/contracts/access/Ownable.sol\":2506:2522  address oldOwner */\n  0x00\n    /* \"@openzeppelin/contracts/access/Ownable.sol\":2525:2531  _owner */\n  dup1\n  0x00\n  swap1\n  sload\n  swap1\n  0x0100\n  exp\n  swap1\n  div\n  0xffffffffffffffffffffffffffffffffffffffff\n  and\n    /* \"@openzeppelin/contracts/access/Ownable.sol\":2506:2531  address oldOwner = _owner */\n  swap1\n  pop\n    /* \"@openzeppelin/contracts/access/Ownable.sol\":2550:2558  newOwner */\n  dup2\n    /* \"@openzeppelin/contracts/access/Ownable.sol\":2541:2547  _owner */\n  0x00\n  dup1\n    /* \"@openzeppelin/contracts/access/Ownable.sol\":2541:2558  _owner = newOwner */\n  0x0100\n  exp\n  dup2\n  sload\n  dup2\n  0xffffffffffffffffffffffffffffffffffffffff\n  mul\n  not\n  and\n  swap1\n  dup4\n  0xffffffffffffffffffffffffffffffffffffffff\n  and\n  mul\n  or\n  swap1\n  sstore\n  pop\n    /* \"@openzeppelin/contracts/access/Ownable.sol\":2604:2612  newOwner */\n  dup2\n    /* \"@openzeppelin/contracts/access/Ownable.sol\":2573:2613  OwnershipTransferred(oldOwner, newOwner) */\n  0xffffffffffffffffffffffffffffffffffffffff\n  and\n    /* \"@openzeppelin/contracts/access/Ownable.sol\":2594:2602  oldOwner */\n  dup2\n    /* \"@openzeppelin/contracts/access/Ownable.sol\":2573:2613  OwnershipTransferred(oldOwner, newOwner) */\n  0xffffffffffffffffffffffffffffffffffffffff\n  and\n  0x8be0079c531659141344cd1fd0a4f28419497f9722a3daafe3b4186f6b6457e0\n  mload(0x40)\n  mload(0x40)\n  dup1\n  swap2\n  sub\n  swap1\n  log3\n    /* \"@openzeppelin/contracts/access/Ownable.sol\":2496:2620  {... */\n  pop\n    /* \"@openzeppelin/contracts/access/Ownable.sol\":2433:2620  function _transferOwnership(address newOwner) internal virtual {... */\n  pop\n  jump\t// out\n    /* \"#utility.yul\":7:82   */\ntag_38:\n    /* \"#utility.yul\":40:46   */\n  0x00\n    /* \"#utility.yul\":73:75   */\n  0x40\n    /* \"#utility.yul\":67:76   */\n  mload\n    /* \"#utility.yul\":57:76   */\n  swap1\n  pop\n    /* \"#utility.yul\":7:82   */\n  swap1\n  jump\t// out\n    /* \"#utility.yul\":88:205   */\ntag_39:\n    /* \"#utility.yul\":197:198   */\n  0x00\n    /* \"#utility.yul\":194:195   */\n  dup1\n    /* \"#utility.yul\":187:199   */\n  revert\n    /* \"#utility.yul\":211:328   */\ntag_40:\n    /* \"#utility.yul\":320:321   */\n  0x00\n    /* \"#utility.yul\":317:318   */\n  dup1\n    /* \"#utility.yul\":310:322   */\n  revert\n    /* \"#utility.yul\":334:451   */\ntag_41:\n    /* \"#utility.yul\":443:444   */\n  0x00\n    /* \"#utility.yul\":440:441   */\n  dup1\n    /* \"#utility.yul\":433:445   */\n  revert\n    /* \"#utility.yul\":457:559   */\ntag_42:\n    /* \"#utility.yul\":498:504   */\n  0x00\n    /* \"#utility.yul\":549:551   */\n  0x1f\n    /* \"#utility.yul\":545:552   */\n  not\n    /* \"#utility.yul\":540:542   */\n  0x1f\n    /* \"#utility.yul\":533:538   */\n  dup4\n    /* \"#utility.yul\":529:543   */\n  add\n    /* \"#utility.yul\":525:553   */\n  and\n    /* \"#utility.yul\":515:553   */\n  swap1\n  pop\n    /* \"#utility.yul\":457:559   */\n  swap2\n  swap1\n  pop\n  jump\t// out\n    /* \"#utility.yul\":565:745   */\ntag_43:\n    /* \"#utility.yul\":613:690   */\n  0x4e487b7100000000000000000000000000000000000000000000000000000000\n    /* \"#utility.yul\":610:611   */\n  0x00\n    /* \"#utility.yul\":603:691   */\n  mstore\n    /* \"#utility.yul\":710:714   */\n  0x41\n    /* \"#utility.yul\":707:708   */\n  0x04\n    /* \"#utility.yul\":700:715   */\n  mstore\n    /* \"#utility.yul\":734:738   */\n  0x24\n    /* \"#utility.yul\":731:732   */\n  0x00\n    /* \"#utility.yul\":724:739   */\n  revert\n    /* \"#utility.yul\":751:1032   */\ntag_44:\n    /* \"#utility.yul\":834:861   */\n  tag_72\n    /* \"#utility.yul\":856:860   */\n  dup3\n    /* \"#utility.yul\":834:861   */\n  tag_42\n  jump\t// in\ntag_72:\n    /* \"#utility.yul\":826:832   */\n  dup2\n    /* \"#utility.yul\":822:862   */\n  add\n    /* \"#utility.yul\":964:970   */\n  dup2\n    /* \"#utility.yul\":952:962   */\n  dup2\n    /* \"#utility.yul\":949:971   */\n  lt\n    /* \"#utility.yul\":928:946   */\n  0xffffffffffffffff\n    /* \"#utility.yul\":916:926   */\n  dup3\n    /* \"#utility.yul\":913:947   */\n  gt\n    /* \"#utility.yul\":910:972   */\n  or\n    /* \"#utility.yul\":907:995   */\n  iszero\n  tag_73\n  jumpi\n    /* \"#utility.yul\":975:993   */\n  tag_74\n  tag_43\n  jump\t// in\ntag_74:\n    /* \"#utility.yul\":907:995   */\ntag_73:\n    /* \"#utility.yul\":1015:1025   */\n  dup1\n    /* \"#utility.yul\":1011:1013   */\n  0x40\n    /* \"#utility.yul\":1004:1026   */\n  mstore\n    /* \"#utility.yul\":794:1032   */\n  pop\n    /* \"#utility.yul\":751:1032   */\n  pop\n  pop\n  jump\t// out\n    /* \"#utility.yul\":1038:1167   */\ntag_45:\n    /* \"#utility.yul\":1072:1078   */\n  0x00\n    /* \"#utility.yul\":1099:1119   */\n  tag_76\n  tag_38\n  jump\t// in\ntag_76:\n    /* \"#utility.yul\":1089:1119   */\n  swap1\n  pop\n    /* \"#utility.yul\":1128:1161   */\n  tag_77\n    /* \"#utility.yul\":1156:1160   */\n  dup3\n    /* \"#utility.yul\":1148:1154   */\n  dup3\n    /* \"#utility.yul\":1128:1161   */\n  tag_44\n  jump\t// in\ntag_77:\n    /* \"#utility.yul\":1038:1167   */\n  swap2\n  swap1\n  pop\n  jump\t// out\n    /* \"#utility.yul\":1173:1484   */\ntag_46:\n    /* \"#utility.yul\":1250:1254   */\n  0x00\n    /* \"#utility.yul\":1340:1358   */\n  0xffffffffffffffff\n    /* \"#utility.yul\":1332:1338   */\n  dup3\n    /* \"#utility.yul\":1329:1359   */\n  gt\n    /* \"#utility.yul\":1326:1382   */\n  iszero\n  tag_79\n  jumpi\n    /* \"#utility.yul\":1362:1380   */\n  tag_80\n  tag_43\n  jump\t// in\ntag_80:\n    /* \"#utility.yul\":1326:1382   */\ntag_79:\n    /* \"#utility.yul\":1412:1416   */\n  0x20\n    /* \"#utility.yul\":1404:1410   */\n  dup3\n    /* \"#utility.yul\":1400:1417   */\n  mul\n    /* \"#utility.yul\":1392:1417   */\n  swap1\n  pop\n    /* \"#utility.yul\":1472:1476   */\n  0x20\n    /* \"#utility.yul\":1466:1470   */\n  dup2\n    /* \"#utility.yul\":1462:1477   */\n  add\n    /* \"#utility.yul\":1454:1477   */\n  swap1\n  pop\n    /* \"#utility.yul\":1173:1484   */\n  swap2\n  swap1\n  pop\n  jump\t// out\n    /* \"#utility.yul\":1490:1607   */\ntag_47:\n    /* \"#utility.yul\":1599:1600   */\n  0x00\n    /* \"#utility.yul\":1596:1597   */\n  dup1\n    /* \"#utility.yul\":1589:1601   */\n  revert\n    /* \"#utility.yul\":1613:1739   */\ntag_48:\n    /* \"#utility.yul\":1650:1657   */\n  0x00\n    /* \"#utility.yul\":1690:1732   */\n  0xffffffffffffffffffffffffffffffffffffffff\n    /* \"#utility.yul\":1683:1688   */\n  dup3\n    /* \"#utility.yul\":1679:1733   */\n  and\n    /* \"#utility.yul\":1668:1733   */\n  swap1\n  pop\n    /* \"#utility.yul\":1613:1739   */\n  swap2\n  swap1\n  pop\n  jump\t// out\n    /* \"#utility.yul\":1745:1841   */\ntag_49:\n    /* \"#utility.yul\":1782:1789   */\n  0x00\n    /* \"#utility.yul\":1811:1835   */\n  tag_84\n    /* \"#utility.yul\":1829:1834   */\n  dup3\n    /* \"#utility.yul\":1811:1835   */\n  tag_48\n  jump\t// in\ntag_84:\n    /* \"#utility.yul\":1800:1835   */\n  swap1\n  pop\n    /* \"#utility.yul\":1745:1841   */\n  swap2\n  swap1\n  pop\n  jump\t// out\n    /* \"#utility.yul\":1847:1969   */\ntag_50:\n    /* \"#utility.yul\":1920:1944   */\n  tag_86\n    /* \"#utility.yul\":1938:1943   */\n  dup2\n    /* \"#utility.yul\":1920:1944   */\n  tag_49\n  jump\t// in\ntag_86:\n    /* \"#utility.yul\":1913:1918   */\n  dup2\n    /* \"#utility.yul\":1910:1945   */\n  eq\n    /* \"#utility.yul\":1900:1963   */\n  tag_87\n  jumpi\n    /* \"#utility.yul\":1959:1960   */\n  0x00\n    /* \"#utility.yul\":1956:1957   */\n  dup1\n    /* \"#utility.yul\":1949:1961   */\n  revert\n    /* \"#utility.yul\":1900:1963   */\ntag_87:\n    /* \"#utility.yul\":1847:1969   */\n  pop\n  jump\t// out\n    /* \"#utility.yul\":1975:2118   */\ntag_51:\n    /* \"#utility.yul\":2032:2037   */\n  0x00\n    /* \"#utility.yul\":2063:2069   */\n  dup2\n    /* \"#utility.yul\":2057:2070   */\n  mload\n    /* \"#utility.yul\":2048:2070   */\n  swap1\n  pop\n    /* \"#utility.yul\":2079:2112   */\n  tag_89\n    /* \"#utility.yul\":2106:2111   */\n  dup2\n    /* \"#utility.yul\":2079:2112   */\n  tag_50\n  jump\t// in\ntag_89:\n    /* \"#utility.yul\":1975:2118   */\n  swap3\n  swap2\n  pop\n  pop\n  jump\t// out\n    /* \"#utility.yul\":2141:2873   */\ntag_52:\n    /* \"#utility.yul\":2248:2253   */\n  0x00\n    /* \"#utility.yul\":2273:2354   */\n  tag_91\n    /* \"#utility.yul\":2289:2353   */\n  tag_92\n    /* \"#utility.yul\":2346:2352   */\n  dup5\n    /* \"#utility.yul\":2289:2353   */\n  tag_46\n  jump\t// in\ntag_92:\n    /* \"#utility.yul\":2273:2354   */\n  tag_45\n  jump\t// in\ntag_91:\n    /* \"#utility.yul\":2264:2354   */\n  swap1\n  pop\n    /* \"#utility.yul\":2374:2379   */\n  dup1\n    /* \"#utility.yul\":2403:2409   */\n  dup4\n    /* \"#utility.yul\":2396:2401   */\n  dup3\n    /* \"#utility.yul\":2389:2410   */\n  mstore\n    /* \"#utility.yul\":2437:2441   */\n  0x20\n    /* \"#utility.yul\":2430:2435   */\n  dup3\n    /* \"#utility.yul\":2426:2442   */\n  add\n    /* \"#utility.yul\":2419:2442   */\n  swap1\n  pop\n    /* \"#utility.yul\":2490:2494   */\n  0x20\n    /* \"#utility.yul\":2482:2488   */\n  dup5\n    /* \"#utility.yul\":2478:2495   */\n  mul\n    /* \"#utility.yul\":2470:2476   */\n  dup4\n    /* \"#utility.yul\":2466:2496   */\n  add\n    /* \"#utility.yul\":2519:2522   */\n  dup6\n    /* \"#utility.yul\":2511:2517   */\n  dup2\n    /* \"#utility.yul\":2508:2523   */\n  gt\n    /* \"#utility.yul\":2505:2627   */\n  iszero\n  tag_93\n  jumpi\n    /* \"#utility.yul\":2538:2617   */\n  tag_94\n  tag_47\n  jump\t// in\ntag_94:\n    /* \"#utility.yul\":2505:2627   */\ntag_93:\n    /* \"#utility.yul\":2653:2659   */\n  dup4\n    /* \"#utility.yul\":2636:2867   */\ntag_95:\n    /* \"#utility.yul\":2670:2676   */\n  dup2\n    /* \"#utility.yul\":2665:2668   */\n  dup2\n    /* \"#utility.yul\":2662:2677   */\n  lt\n    /* \"#utility.yul\":2636:2867   */\n  iszero\n  tag_97\n  jumpi\n    /* \"#utility.yul\":2745:2748   */\n  dup1\n    /* \"#utility.yul\":2774:2822   */\n  tag_98\n    /* \"#utility.yul\":2818:2821   */\n  dup9\n    /* \"#utility.yul\":2806:2816   */\n  dup3\n    /* \"#utility.yul\":2774:2822   */\n  tag_51\n  jump\t// in\ntag_98:\n    /* \"#utility.yul\":2769:2772   */\n  dup5\n    /* \"#utility.yul\":2762:2823   */\n  mstore\n    /* \"#utility.yul\":2852:2856   */\n  0x20\n    /* \"#utility.yul\":2847:2850   */\n  dup5\n    /* \"#utility.yul\":2843:2857   */\n  add\n    /* \"#utility.yul\":2836:2857   */\n  swap4\n  pop\n    /* \"#utility.yul\":2712:2867   */\n  pop\n    /* \"#utility.yul\":2696:2700   */\n  0x20\n    /* \"#utility.yul\":2691:2694   */\n  dup2\n    /* \"#utility.yul\":2687:2701   */\n  add\n    /* \"#utility.yul\":2680:2701   */\n  swap1\n  pop\n    /* \"#utility.yul\":2636:2867   */\n  jump(tag_95)\ntag_97:\n    /* \"#utility.yul\":2640:2661   */\n  pop\n    /* \"#utility.yul\":2254:2873   */\n  pop\n  pop\n    /* \"#utility.yul\":2141:2873   */\n  swap4\n  swap3\n  pop\n  pop\n  pop\n  jump\t// out\n    /* \"#utility.yul\":2896:3281   */\ntag_53:\n    /* \"#utility.yul\":2978:2983   */\n  0x00\n    /* \"#utility.yul\":3027:3030   */\n  dup3\n    /* \"#utility.yul\":3020:3024   */\n  0x1f\n    /* \"#utility.yul\":3012:3018   */\n  dup4\n    /* \"#utility.yul\":3008:3025   */\n  add\n    /* \"#utility.yul\":3004:3031   */\n  slt\n    /* \"#utility.yul\":2994:3116   */\n  tag_100\n  jumpi\n    /* \"#utility.yul\":3035:3114   */\n  tag_101\n  tag_41\n  jump\t// in\ntag_101:\n    /* \"#utility.yul\":2994:3116   */\ntag_100:\n    /* \"#utility.yul\":3145:3151   */\n  dup2\n    /* \"#utility.yul\":3139:3152   */\n  mload\n    /* \"#utility.yul\":3170:3275   */\n  tag_102\n    /* \"#utility.yul\":3271:3274   */\n  dup5\n    /* \"#utility.yul\":3263:3269   */\n  dup3\n    /* \"#utility.yul\":3256:3260   */\n  0x20\n    /* \"#utility.yul\":3248:3254   */\n  dup7\n    /* \"#utility.yul\":3244:3261   */\n  add\n    /* \"#utility.yul\":3170:3275   */\n  tag_52\n  jump\t// in\ntag_102:\n    /* \"#utility.yul\":3161:3275   */\n  swap2\n  pop\n    /* \"#utility.yul\":2984:3281   */\n  pop\n    /* \"#utility.yul\":2896:3281   */\n  swap3\n  swap2\n  pop\n  pop\n  jump\t// out\n    /* \"#utility.yul\":3287:3364   */\ntag_54:\n    /* \"#utility.yul\":3324:3331   */\n  0x00\n    /* \"#utility.yul\":3353:3358   */\n  dup2\n    /* \"#utility.yul\":3342:3358   */\n  swap1\n  pop\n    /* \"#utility.yul\":3287:3364   */\n  swap2\n  swap1\n  pop\n  jump\t// out\n    /* \"#utility.yul\":3370:3492   */\ntag_55:\n    /* \"#utility.yul\":3443:3467   */\n  tag_105\n    /* \"#utility.yul\":3461:3466   */\n  dup2\n    /* \"#utility.yul\":3443:3467   */\n  tag_54\n  jump\t// in\ntag_105:\n    /* \"#utility.yul\":3436:3441   */\n  dup2\n    /* \"#utility.yul\":3433:3468   */\n  eq\n    /* \"#utility.yul\":3423:3486   */\n  tag_106\n  jumpi\n    /* \"#utility.yul\":3482:3483   */\n  0x00\n    /* \"#utility.yul\":3479:3480   */\n  dup1\n    /* \"#utility.yul\":3472:3484   */\n  revert\n    /* \"#utility.yul\":3423:3486   */\ntag_106:\n    /* \"#utility.yul\":3370:3492   */\n  pop\n  jump\t// out\n    /* \"#utility.yul\":3498:3641   */\ntag_56:\n    /* \"#utility.yul\":3555:3560   */\n  0x00\n    /* \"#utility.yul\":3586:3592   */\n  dup2\n    /* \"#utility.yul\":3580:3593   */\n  mload\n    /* \"#utility.yul\":3571:3593   */\n  swap1\n  pop\n    /* \"#utility.yul\":3602:3635   */\n  tag_108\n    /* \"#utility.yul\":3629:3634   */\n  dup2\n    /* \"#utility.yul\":3602:3635   */\n  tag_55\n  jump\t// in\ntag_108:\n    /* \"#utility.yul\":3498:3641   */\n  swap3\n  swap2\n  pop\n  pop\n  jump\t// out\n    /* \"#utility.yul\":3647:3958   */\ntag_57:\n    /* \"#utility.yul\":3724:3728   */\n  0x00\n    /* \"#utility.yul\":3814:3832   */\n  0xffffffffffffffff\n    /* \"#utility.yul\":3806:3812   */\n  dup3\n    /* \"#utility.yul\":3803:3833   */\n  gt\n    /* \"#utility.yul\":3800:3856   */\n  iszero\n  tag_110\n  jumpi\n    /* \"#utility.yul\":3836:3854   */\n  tag_111\n  tag_43\n  jump\t// in\ntag_111:\n    /* \"#utility.yul\":3800:3856   */\ntag_110:\n    /* \"#utility.yul\":3886:3890   */\n  0x20\n    /* \"#utility.yul\":3878:3884   */\n  dup3\n    /* \"#utility.yul\":3874:3891   */\n  mul\n    /* \"#utility.yul\":3866:3891   */\n  swap1\n  pop\n    /* \"#utility.yul\":3946:3950   */\n  0x20\n    /* \"#utility.yul\":3940:3944   */\n  dup2\n    /* \"#utility.yul\":3936:3951   */\n  add\n    /* \"#utility.yul\":3928:3951   */\n  swap1\n  pop\n    /* \"#utility.yul\":3647:3958   */\n  swap2\n  swap1\n  pop\n  jump\t// out\n    /* \"#utility.yul\":3981:4713   */\ntag_58:\n    /* \"#utility.yul\":4088:4093   */\n  0x00\n    /* \"#utility.yul\":4113:4194   */\n  tag_113\n    /* \"#utility.yul\":4129:4193   */\n  tag_114\n    /* \"#utility.yul\":4186:4192   */\n  dup5\n    /* \"#utility.yul\":4129:4193   */\n  tag_57\n  jump\t// in\ntag_114:\n    /* \"#utility.yul\":4113:4194   */\n  tag_45\n  jump\t// in\ntag_113:\n    /* \"#utility.yul\":4104:4194   */\n  swap1\n  pop\n    /* \"#utility.yul\":4214:4219   */\n  dup1\n    /* \"#utility.yul\":4243:4249   */\n  dup4\n    /* \"#utility.yul\":4236:4241   */\n  dup3\n    /* \"#utility.yul\":4229:4250   */\n  mstore\n    /* \"#utility.yul\":4277:4281   */\n  0x20\n    /* \"#utility.yul\":4270:4275   */\n  dup3\n    /* \"#utility.yul\":4266:4282   */\n  add\n    /* \"#utility.yul\":4259:4282   */\n  swap1\n  pop\n    /* \"#utility.yul\":4330:4334   */\n  0x20\n    /* \"#utility.yul\":4322:4328   */\n  dup5\n    /* \"#utility.yul\":4318:4335   */\n  mul\n    /* \"#utility.yul\":4310:4316   */\n  dup4\n    /* \"#utility.yul\":4306:4336   */\n  add\n    /* \"#utility.yul\":4359:4362   */\n  dup6\n    /* \"#utility.yul\":4351:4357   */\n  dup2\n    /* \"#utility.yul\":4348:4363   */\n  gt\n    /* \"#utility.yul\":4345:4467   */\n  iszero\n  tag_115\n  jumpi\n    /* \"#utility.yul\":4378:4457   */\n  tag_116\n  tag_47\n  jump\t// in\ntag_116:\n    /* \"#utility.yul\":4345:4467   */\ntag_115:\n    /* \"#utility.yul\":4493:4499   */\n  dup4\n    /* \"#utility.yul\":4476:4707   */\ntag_117:\n    /* \"#utility.yul\":4510:4516   */\n  dup2\n    /* \"#utility.yul\":4505:4508   */\n  dup2\n    /* \"#utility.yul\":4502:4517   */\n  lt\n    /* \"#utility.yul\":4476:4707   */\n  iszero\n  tag_119\n  jumpi\n    /* \"#utility.yul\":4585:4588   */\n  dup1\n    /* \"#utility.yul\":4614:4662   */\n  tag_120\n    /* \"#utility.yul\":4658:4661   */\n  dup9\n    /* \"#utility.yul\":4646:4656   */\n  dup3\n    /* \"#utility.yul\":4614:4662   */\n  tag_56\n  jump\t// in\ntag_120:\n    /* \"#utility.yul\":4609:4612   */\n  dup5\n    /* \"#utility.yul\":4602:4663   */\n  mstore\n    /* \"#utility.yul\":4692:4696   */\n  0x20\n    /* \"#utility.yul\":4687:4690   */\n  dup5\n    /* \"#utility.yul\":4683:4697   */\n  add\n    /* \"#utility.yul\":4676:4697   */\n  swap4\n  pop\n    /* \"#utility.yul\":4552:4707   */\n  pop\n    /* \"#utility.yul\":4536:4540   */\n  0x20\n    /* \"#utility.yul\":4531:4534   */\n  dup2\n    /* \"#utility.yul\":4527:4541   */\n  add\n    /* \"#utility.yul\":4520:4541   */\n  swap1\n  pop\n    /* \"#utility.yul\":4476:4707   */\n  jump(tag_117)\ntag_119:\n    /* \"#utility.yul\":4480:4501   */\n  pop\n    /* \"#utility.yul\":4094:4713   */\n  pop\n  pop\n    /* \"#utility.yul\":3981:4713   */\n  swap4\n  swap3\n  pop\n  pop\n  pop\n  jump\t// out\n    /* \"#utility.yul\":4736:5121   */\ntag_59:\n    /* \"#utility.yul\":4818:4823   */\n  0x00\n    /* \"#utility.yul\":4867:4870   */\n  dup3\n    /* \"#utility.yul\":4860:4864   */\n  0x1f\n    /* \"#utility.yul\":4852:4858   */\n  dup4\n    /* \"#utility.yul\":4848:4865   */\n  add\n    /* \"#utility.yul\":4844:4871   */\n  slt\n    /* \"#utility.yul\":4834:4956   */\n  tag_122\n  jumpi\n    /* \"#utility.yul\":4875:4954   */\n  tag_123\n  tag_41\n  jump\t// in\ntag_123:\n    /* \"#utility.yul\":4834:4956   */\ntag_122:\n    /* \"#utility.yul\":4985:4991   */\n  dup2\n    /* \"#utility.yul\":4979:4992   */\n  mload\n    /* \"#utility.yul\":5010:5115   */\n  tag_124\n    /* \"#utility.yul\":5111:5114   */\n  dup5\n    /* \"#utility.yul\":5103:5109   */\n  dup3\n    /* \"#utility.yul\":5096:5100   */\n  0x20\n    /* \"#utility.yul\":5088:5094   */\n  dup7\n    /* \"#utility.yul\":5084:5101   */\n  add\n    /* \"#utility.yul\":5010:5115   */\n  tag_58\n  jump\t// in\ntag_124:\n    /* \"#utility.yul\":5001:5115   */\n  swap2\n  pop\n    /* \"#utility.yul\":4824:5121   */\n  pop\n    /* \"#utility.yul\":4736:5121   */\n  swap3\n  swap2\n  pop\n  pop\n  jump\t// out\n    /* \"#utility.yul\":5127:7073   */\ntag_3:\n    /* \"#utility.yul\":5342:5348   */\n  0x00\n    /* \"#utility.yul\":5350:5356   */\n  dup1\n    /* \"#utility.yul\":5358:5364   */\n  0x00\n    /* \"#utility.yul\":5366:5372   */\n  dup1\n    /* \"#utility.yul\":5374:5380   */\n  0x00\n    /* \"#utility.yul\":5382:5388   */\n  dup1\n    /* \"#utility.yul\":5431:5434   */\n  0xc0\n    /* \"#utility.yul\":5419:5428   */\n  dup8\n    /* \"#utility.yul\":5410:5417   */\n  dup10\n    /* \"#utility.yul\":5406:5429   */\n  sub\n    /* \"#utility.yul\":5402:5435   */\n  slt\n    /* \"#utility.yul\":5399:5519   */\n  iszero\n  tag_126\n  jumpi\n    /* \"#utility.yul\":5438:5517   */\n  tag_127\n  tag_39\n  jump\t// in\ntag_127:\n    /* \"#utility.yul\":5399:5519   */\ntag_126:\n    /* \"#utility.yul\":5579:5580   */\n  0x00\n    /* \"#utility.yul\":5568:5577   */\n  dup8\n    /* \"#utility.yul\":5564:5581   */\n  add\n    /* \"#utility.yul\":5558:5582   */\n  mload\n    /* \"#utility.yul\":5609:5627   */\n  0xffffffffffffffff\n    /* \"#utility.yul\":5601:5607   */\n  dup2\n    /* \"#utility.yul\":5598:5628   */\n  gt\n    /* \"#utility.yul\":5595:5712   */\n  iszero\n  tag_128\n  jumpi\n    /* \"#utility.yul\":5631:5710   */\n  tag_129\n  tag_40\n  jump\t// in\ntag_129:\n    /* \"#utility.yul\":5595:5712   */\ntag_128:\n    /* \"#utility.yul\":5736:5825   */\n  tag_130\n    /* \"#utility.yul\":5817:5824   */\n  dup10\n    /* \"#utility.yul\":5808:5814   */\n  dup3\n    /* \"#utility.yul\":5797:5806   */\n  dup11\n    /* \"#utility.yul\":5793:5815   */\n  add\n    /* \"#utility.yul\":5736:5825   */\n  tag_53\n  jump\t// in\ntag_130:\n    /* \"#utility.yul\":5726:5825   */\n  swap7\n  pop\n    /* \"#utility.yul\":5529:5835   */\n  pop\n    /* \"#utility.yul\":5895:5897   */\n  0x20\n    /* \"#utility.yul\":5884:5893   */\n  dup8\n    /* \"#utility.yul\":5880:5898   */\n  add\n    /* \"#utility.yul\":5874:5899   */\n  mload\n    /* \"#utility.yul\":5926:5944   */\n  0xffffffffffffffff\n    /* \"#utility.yul\":5918:5924   */\n  dup2\n    /* \"#utility.yul\":5915:5945   */\n  gt\n    /* \"#utility.yul\":5912:6029   */\n  iszero\n  tag_131\n  jumpi\n    /* \"#utility.yul\":5948:6027   */\n  tag_132\n  tag_40\n  jump\t// in\ntag_132:\n    /* \"#utility.yul\":5912:6029   */\ntag_131:\n    /* \"#utility.yul\":6053:6142   */\n  tag_133\n    /* \"#utility.yul\":6134:6141   */\n  dup10\n    /* \"#utility.yul\":6125:6131   */\n  dup3\n    /* \"#utility.yul\":6114:6123   */\n  dup11\n    /* \"#utility.yul\":6110:6132   */\n  add\n    /* \"#utility.yul\":6053:6142   */\n  tag_53\n  jump\t// in\ntag_133:\n    /* \"#utility.yul\":6043:6142   */\n  swap6\n  pop\n    /* \"#utility.yul\":5845:6152   */\n  pop\n    /* \"#utility.yul\":6191:6193   */\n  0x40\n    /* \"#utility.yul\":6217:6281   */\n  tag_134\n    /* \"#utility.yul\":6273:6280   */\n  dup10\n    /* \"#utility.yul\":6264:6270   */\n  dup3\n    /* \"#utility.yul\":6253:6262   */\n  dup11\n    /* \"#utility.yul\":6249:6271   */\n  add\n    /* \"#utility.yul\":6217:6281   */\n  tag_56\n  jump\t// in\ntag_134:\n    /* \"#utility.yul\":6207:6281   */\n  swap5\n  pop\n    /* \"#utility.yul\":6162:6291   */\n  pop\n    /* \"#utility.yul\":6351:6353   */\n  0x60\n    /* \"#utility.yul\":6340:6349   */\n  dup8\n    /* \"#utility.yul\":6336:6354   */\n  add\n    /* \"#utility.yul\":6330:6355   */\n  mload\n    /* \"#utility.yul\":6382:6400   */\n  0xffffffffffffffff\n    /* \"#utility.yul\":6374:6380   */\n  dup2\n    /* \"#utility.yul\":6371:6401   */\n  gt\n    /* \"#utility.yul\":6368:6485   */\n  iszero\n  tag_135\n  jumpi\n    /* \"#utility.yul\":6404:6483   */\n  tag_136\n  tag_40\n  jump\t// in\ntag_136:\n    /* \"#utility.yul\":6368:6485   */\ntag_135:\n    /* \"#utility.yul\":6509:6598   */\n  tag_137\n    /* \"#utility.yul\":6590:6597   */\n  dup10\n    /* \"#utility.yul\":6581:6587   */\n  dup3\n    /* \"#utility.yul\":6570:6579   */\n  dup11\n    /* \"#utility.yul\":6566:6588   */\n  add\n    /* \"#utility.yul\":6509:6598   */\n  tag_59\n  jump\t// in\ntag_137:\n    /* \"#utility.yul\":6499:6598   */\n  swap4\n  pop\n    /* \"#utility.yul\":6301:6608   */\n  pop\n    /* \"#utility.yul\":6668:6671   */\n  0x80\n    /* \"#utility.yul\":6657:6666   */\n  dup8\n    /* \"#utility.yul\":6653:6672   */\n  add\n    /* \"#utility.yul\":6647:6673   */\n  mload\n    /* \"#utility.yul\":6700:6718   */\n  0xffffffffffffffff\n    /* \"#utility.yul\":6692:6698   */\n  dup2\n    /* \"#utility.yul\":6689:6719   */\n  gt\n    /* \"#utility.yul\":6686:6803   */\n  iszero\n  tag_138\n  jumpi\n    /* \"#utility.yul\":6722:6801   */\n  tag_139\n  tag_40\n  jump\t// in\ntag_139:\n    /* \"#utility.yul\":6686:6803   */\ntag_138:\n    /* \"#utility.yul\":6827:6916   */\n  tag_140\n    /* \"#utility.yul\":6908:6915   */\n  dup10\n    /* \"#utility.yul\":6899:6905   */\n  dup3\n    /* \"#utility.yul\":6888:6897   */\n  dup11\n    /* \"#utility.yul\":6884:6906   */\n  add\n    /* \"#utility.yul\":6827:6916   */\n  tag_59\n  jump\t// in\ntag_140:\n    /* \"#utility.yul\":6817:6916   */\n  swap3\n  pop\n    /* \"#utility.yul\":6618:6926   */\n  pop\n    /* \"#utility.yul\":6965:6968   */\n  0xa0\n    /* \"#utility.yul\":6992:7056   */\n  tag_141\n    /* \"#utility.yul\":7048:7055   */\n  dup10\n    /* \"#utility.yul\":7039:7045   */\n  dup3\n    /* \"#utility.yul\":7028:7037   */\n  dup11\n    /* \"#utility.yul\":7024:7046   */\n  add\n    /* \"#utility.yul\":6992:7056   */\n  tag_56\n  jump\t// in\ntag_141:\n    /* \"#utility.yul\":6982:7056   */\n  swap2\n  pop\n    /* \"#utility.yul\":6936:7066   */\n  pop\n    /* \"#utility.yul\":5127:7073   */\n  swap3\n  swap6\n  pop\n  swap3\n  swap6\n  pop\n  swap3\n  swap6\n  jump\t// out\n    /* \"#utility.yul\":7079:7248   */\ntag_60:\n    /* \"#utility.yul\":7163:7174   */\n  0x00\n    /* \"#utility.yul\":7197:7203   */\n  dup3\n    /* \"#utility.yul\":7192:7195   */\n  dup3\n    /* \"#utility.yul\":7185:7204   */\n  mstore\n    /* \"#utility.yul\":7237:7241   */\n  0x20\n    /* \"#utility.yul\":7232:7235   */\n  dup3\n    /* \"#utility.yul\":7228:7242   */\n  add\n    /* \"#utility.yul\":7213:7242   */\n  swap1\n  pop\n    /* \"#utility.yul\":7079:7248   */\n  swap3\n  swap2\n  pop\n  pop\n  jump\t// out\n    /* \"#utility.yul\":7254:7423   */\ntag_61:\n    /* \"#utility.yul\":7394:7415   */\n  0x496e76616c6964206c6f636b20706572696f6400000000000000000000000000\n    /* \"#utility.yul\":7390:7391   */\n  0x00\n    /* \"#utility.yul\":7382:7388   */\n  dup3\n    /* \"#utility.yul\":7378:7392   */\n  add\n    /* \"#utility.yul\":7371:7416   */\n  mstore\n    /* \"#utility.yul\":7254:7423   */\n  pop\n  jump\t// out\n    /* \"#utility.yul\":7429:7795   */\ntag_62:\n    /* \"#utility.yul\":7571:7574   */\n  0x00\n    /* \"#utility.yul\":7592:7659   */\n  tag_145\n    /* \"#utility.yul\":7656:7658   */\n  0x13\n    /* \"#utility.yul\":7651:7654   */\n  dup4\n    /* \"#utility.yul\":7592:7659   */\n  tag_60\n  jump\t// in\ntag_145:\n    /* \"#utility.yul\":7585:7659   */\n  swap2\n  pop\n    /* \"#utility.yul\":7668:7761   */\n  tag_146\n    /* \"#utility.yul\":7757:7760   */\n  dup3\n    /* \"#utility.yul\":7668:7761   */\n  tag_61\n  jump\t// in\ntag_146:\n    /* \"#utility.yul\":7786:7788   */\n  0x20\n    /* \"#utility.yul\":7781:7784   */\n  dup3\n    /* \"#utility.yul\":7777:7789   */\n  add\n    /* \"#utility.yul\":7770:7789   */\n  swap1\n  pop\n    /* \"#utility.yul\":7429:7795   */\n  swap2\n  swap1\n  pop\n  jump\t// out\n    /* \"#utility.yul\":7801:8220   */\ntag_16:\n    /* \"#utility.yul\":7967:7971   */\n  0x00\n    /* \"#utility.yul\":8005:8007   */\n  0x20\n    /* \"#utility.yul\":7994:8003   */\n  dup3\n    /* \"#utility.yul\":7990:8008   */\n  add\n    /* \"#utility.yul\":7982:8008   */\n  swap1\n  pop\n    /* \"#utility.yul\":8054:8063   */\n  dup2\n    /* \"#utility.yul\":8048:8052   */\n  dup2\n    /* \"#utility.yul\":8044:8064   */\n  sub\n    /* \"#utility.yul\":8040:8041   */\n  0x00\n    /* \"#utility.yul\":8029:8038   */\n  dup4\n    /* \"#utility.yul\":8025:8042   */\n  add\n    /* \"#utility.yul\":8018:8065   */\n  mstore\n    /* \"#utility.yul\":8082:8213   */\n  tag_148\n    /* \"#utility.yul\":8208:8212   */\n  dup2\n    /* \"#utility.yul\":8082:8213   */\n  tag_62\n  jump\t// in\ntag_148:\n    /* \"#utility.yul\":8074:8213   */\n  swap1\n  pop\n    /* \"#utility.yul\":7801:8220   */\n  swap2\n  swap1\n  pop\n  jump\t// out\n    /* \"#utility.yul\":8226:8406   */\ntag_22:\n    /* \"#utility.yul\":8274:8351   */\n  0x4e487b7100000000000000000000000000000000000000000000000000000000\n    /* \"#utility.yul\":8271:8272   */\n  0x00\n    /* \"#utility.yul\":8264:8352   */\n  mstore\n    /* \"#utility.yul\":8371:8375   */\n  0x32\n    /* \"#utility.yul\":8368:8369   */\n  0x04\n    /* \"#utility.yul\":8361:8376   */\n  mstore\n    /* \"#utility.yul\":8395:8399   */\n  0x24\n    /* \"#utility.yul\":8392:8393   */\n  0x00\n    /* \"#utility.yul\":8385:8400   */\n  revert\n    /* \"#utility.yul\":8412:8592   */\ntag_63:\n    /* \"#utility.yul\":8460:8537   */\n  0x4e487b7100000000000000000000000000000000000000000000000000000000\n    /* \"#utility.yul\":8457:8458   */\n  0x00\n    /* \"#utility.yul\":8450:8538   */\n  mstore\n    /* \"#utility.yul\":8557:8561   */\n  0x11\n    /* \"#utility.yul\":8554:8555   */\n  0x04\n    /* \"#utility.yul\":8547:8562   */\n  mstore\n    /* \"#utility.yul\":8581:8585   */\n  0x24\n    /* \"#utility.yul\":8578:8579   */\n  0x00\n    /* \"#utility.yul\":8571:8586   */\n  revert\n    /* \"#utility.yul\":8598:8831   */\ntag_34:\n    /* \"#utility.yul\":8637:8640   */\n  0x00\n    /* \"#utility.yul\":8660:8684   */\n  tag_152\n    /* \"#utility.yul\":8678:8683   */\n  dup3\n    /* \"#utility.yul\":8660:8684   */\n  tag_54\n  jump\t// in\ntag_152:\n    /* \"#utility.yul\":8651:8684   */\n  swap2\n  pop\n    /* \"#utility.yul\":8706:8772   */\n  0xffffffffffffffffffffffffffffffffffffffffffffffffffffffffffffffff\n    /* \"#utility.yul\":8699:8704   */\n  dup3\n    /* \"#utility.yul\":8696:8773   */\n  sub\n    /* \"#utility.yul\":8693:8796   */\n  tag_153\n  jumpi\n    /* \"#utility.yul\":8776:8794   */\n  tag_154\n  tag_63\n  jump\t// in\ntag_154:\n    /* \"#utility.yul\":8693:8796   */\ntag_153:\n    /* \"#utility.yul\":8823:8824   */\n  0x01\n    /* \"#utility.yul\":8816:8821   */\n  dup3\n    /* \"#utility.yul\":8812:8825   */\n  add\n    /* \"#utility.yul\":8805:8825   */\n  swap1\n  pop\n    /* \"#utility.yul\":8598:8831   */\n  swap2\n  swap1\n  pop\n  jump\t// out\n    /* \"contracts/Staking.sol\":412:6998  contract NFTStaking1 is Ownable, ReentrancyGuard {... */\ntag_35:\n  dataSize(sub_0)\n  dup1\n  dataOffset(sub_0)\n  0x00\n  codecopy\n  0x00\n  return\nstop\n\nsub_0: assembly {\n        /* \"contracts/Staking.sol\":412:6998  contract NFTStaking1 is Ownable, ReentrancyGuard {... */\n      mstore(0x40, 0x80)\n      callvalue\n      dup1\n      iszero\n      tag_1\n      jumpi\n      0x00\n      dup1\n      revert\n    tag_1:\n      pop\n      jumpi(tag_2, lt(calldatasize, 0x04))\n      shr(0xe0, calldataload(0x00))\n      dup1\n      0x9f3625f0\n      gt\n      tag_15\n      jumpi\n      dup1\n      0x9f3625f0\n      eq\n      tag_9\n      jumpi\n      dup1\n      0xb2520a7c\n      eq\n      tag_10\n      jumpi\n      dup1\n      0xb33068c4\n      eq\n      tag_11\n      jumpi\n      dup1\n      0xc69d1923\n      eq\n      tag_12\n      jumpi\n      dup1\n      0xe9545b92\n      eq\n      tag_13\n      jumpi\n      dup1\n      0xf2fde38b\n      eq\n      tag_14\n      jumpi\n      jump(tag_2)\n    tag_15:\n      dup1\n      0x0520537f\n      eq\n      tag_3\n      jumpi\n      dup1\n      0x1902732e\n      eq\n      tag_4\n      jumpi\n      dup1\n      0x3fd8b02f\n      eq\n      tag_5\n      jumpi\n      dup1\n      0x715018a6\n      eq\n      tag_6\n      jumpi\n      dup1\n      0x779972da\n      eq\n      tag_7\n      jumpi\n      dup1\n      0x8da5cb5b\n      eq\n      tag_8\n      jumpi\n    tag_2:\n      0x00\n      dup1\n      revert\n        /* \"contracts/Staking.sol\":5420:6420  function claimRewards(uint256[] calldata _tokenIds,IERC721 nftAddress) external notContract {... */\n    tag_3:\n      tag_16\n      0x04\n      dup1\n      calldatasize\n      sub\n      dup2\n      add\n      swap1\n      tag_17\n      swap2\n      swap1\n      tag_18\n      jump\t// in\n    tag_17:\n      tag_19\n      jump\t// in\n    tag_16:\n      stop\n        /* \"contracts/Staking.sol\":3543:4134  function lockNFT(uint256[] calldata  _tokenIds, IERC721 nftAddress ) external notContract nonReentrant {... */\n    tag_4:\n      tag_20\n      0x04\n      dup1\n      calldatasize\n      sub\n      dup2\n      add\n      swap1\n      tag_21\n      swap2\n      swap1\n      tag_18\n      jump\t// in\n    tag_21:\n      tag_22\n      jump\t// in\n    tag_20:\n      stop\n        /* \"contracts/Staking.sol\":502:527  uint256 public lockPeriod */\n    tag_5:\n      tag_23\n      tag_24\n      jump\t// in\n    tag_23:\n      mload(0x40)\n      tag_25\n      swap2\n      swap1\n      tag_26\n      jump\t// in\n    tag_25:\n      mload(0x40)\n      dup1\n      swap2\n      sub\n      swap1\n      return\n        /* \"@openzeppelin/contracts/access/Ownable.sol\":1831:1932  function renounceOwnership() public virtual onlyOwner {... */\n    tag_6:\n      tag_27\n      tag_28\n      jump\t// in\n    tag_27:\n      stop\n        /* \"contracts/Staking.sol\":2847:3060  function setLockPeriod(uint256 _lockPeriod) external onlyOwner {... */\n    tag_7:\n      tag_29\n      0x04\n      dup1\n      calldatasize\n      sub\n      dup2\n      add\n      swap1\n      tag_30\n      swap2\n      swap1\n      tag_31\n      jump\t// in\n    tag_30:\n      tag_32\n      jump\t// in\n    tag_29:\n      stop\n        /* \"@openzeppelin/contracts/access/Ownable.sol\":1201:1286  function owner() public view virtual returns (address) {... */\n    tag_8:\n      tag_33\n      tag_34\n      jump\t// in\n    tag_33:\n      mload(0x40)\n      tag_35\n      swap2\n      swap1\n      tag_36\n      jump\t// in\n    tag_35:\n      mload(0x40)\n      dup1\n      swap2\n      sub\n      swap1\n      return\n        /* \"contracts/Staking.sol\":4247:5322  function unlockNFT(uint256[] calldata _tokenIds, IERC721 nftAddress) external notContract nonReentrant {... */\n    tag_9:\n      tag_37\n      0x04\n      dup1\n      calldatasize\n      sub\n      dup2\n      add\n      swap1\n      tag_38\n      swap2\n      swap1\n      tag_18\n      jump\t// in\n    tag_38:\n      tag_39\n      jump\t// in\n    tag_37:\n      stop\n        /* \"contracts/Staking.sol\":767:831  mapping(IERC721 => mapping(uint256 => LockInfo)) public lockInfo */\n    tag_10:\n      tag_40\n      0x04\n      dup1\n      calldatasize\n      sub\n      dup2\n      add\n      swap1\n      tag_41\n      swap2\n      swap1\n      tag_42\n      jump\t// in\n    tag_41:\n      tag_43\n      jump\t// in\n    tag_40:\n      mload(0x40)\n      tag_44\n      swap6\n      swap5\n      swap4\n      swap3\n      swap2\n      swap1\n      tag_45\n      jump\t// in\n    tag_44:\n      mload(0x40)\n      dup1\n      swap2\n      sub\n      swap1\n      return\n        /* \"contracts/Staking.sol\":3228:3402  function claimedRewards(uint256 _tokenId, IERC721 nftAddress) external view returns (uint256) {... */\n    tag_11:\n      tag_46\n      0x04\n      dup1\n      calldatasize\n      sub\n      dup2\n      add\n      swap1\n      tag_47\n      swap2\n      swap1\n      tag_48\n      jump\t// in\n    tag_47:\n      tag_49\n      jump\t// in\n    tag_46:\n      mload(0x40)\n      tag_50\n      swap2\n      swap1\n      tag_26\n      jump\t// in\n    tag_50:\n      mload(0x40)\n      dup1\n      swap2\n      sub\n      swap1\n      return\n        /* \"contracts/Staking.sol\":1096:1115  uint256 public WAVE */\n    tag_12:\n      tag_51\n      tag_52\n      jump\t// in\n    tag_51:\n      mload(0x40)\n      tag_53\n      swap2\n      swap1\n      tag_26\n      jump\t// in\n    tag_53:\n      mload(0x40)\n      dup1\n      swap2\n      sub\n      swap1\n      return\n        /* \"contracts/Staking.sol\":1013:1060  mapping(IERC721 => stakeNftInfo) public nftInfo */\n    tag_13:\n      tag_54\n      0x04\n      dup1\n      calldatasize\n      sub\n      dup2\n      add\n      swap1\n      tag_55\n      swap2\n      swap1\n      tag_56\n      jump\t// in\n    tag_55:\n      tag_57\n      jump\t// in\n    tag_54:\n      mload(0x40)\n      tag_58\n      swap4\n      swap3\n      swap2\n      swap1\n      tag_59\n      jump\t// in\n    tag_58:\n      mload(0x40)\n      dup1\n      swap2\n      sub\n      swap1\n      return\n        /* \"@openzeppelin/contracts/access/Ownable.sol\":2081:2279  function transferOwnership(address newOwner) public virtual onlyOwner {... */\n    tag_14:\n      tag_60\n      0x04\n      dup1\n      calldatasize\n      sub\n      dup2\n      add\n      swap1\n      tag_61\n      swap2\n      swap1\n      tag_62\n      jump\t// in\n    tag_61:\n      tag_63\n      jump\t// in\n    tag_60:\n      stop\n        /* \"contracts/Staking.sol\":5420:6420  function claimRewards(uint256[] calldata _tokenIds,IERC721 nftAddress) external notContract {... */\n    tag_19:\n        /* \"contracts/Staking.sol\":2573:2605  address(msg.sender).isContract() */\n      tag_65\n        /* \"contracts/Staking.sol\":2581:2591  msg.sender */\n      caller\n        /* \"contracts/Staking.sol\":2573:2603  address(msg.sender).isContract */\n      0xffffffffffffffffffffffffffffffffffffffff\n      and\n      tag_66\n        /* \"contracts/Staking.sol\":2573:2605  address(msg.sender).isContract() */\n      jump\t// in\n    tag_65:\n        /* \"contracts/Staking.sol\":2572:2605  !address(msg.sender).isContract() */\n      iszero\n        /* \"contracts/Staking.sol\":2564:2630  require(!address(msg.sender).isContract(), \"Contract not allowed\") */\n      tag_67\n      jumpi\n      mload(0x40)\n      0x08c379a000000000000000000000000000000000000000000000000000000000\n      dup2\n      mstore\n      0x04\n      add\n      tag_68\n      swap1\n      tag_69\n      jump\t// in\n    tag_68:\n      mload(0x40)\n      dup1\n      swap2\n      sub\n      swap1\n      revert\n    tag_67:\n        /* \"contracts/Staking.sol\":2663:2672  tx.origin */\n      origin\n        /* \"contracts/Staking.sol\":2649:2672  msg.sender == tx.origin */\n      0xffffffffffffffffffffffffffffffffffffffff\n      and\n        /* \"contracts/Staking.sol\":2649:2659  msg.sender */\n      caller\n        /* \"contracts/Staking.sol\":2649:2672  msg.sender == tx.origin */\n      0xffffffffffffffffffffffffffffffffffffffff\n      and\n      eq\n        /* \"contracts/Staking.sol\":2641:2703  require(msg.sender == tx.origin, \"Proxy contract not allowed\") */\n      tag_70\n      jumpi\n      mload(0x40)\n      0x08c379a000000000000000000000000000000000000000000000000000000000\n      dup2\n      mstore\n      0x04\n      add\n      tag_71\n      swap1\n      tag_72\n      jump\t// in\n    tag_71:\n      mload(0x40)\n      dup1\n      swap2\n      sub\n      swap1\n      revert\n    tag_70:\n        /* \"contracts/Staking.sol\":5550:5551  0 */\n      0x00\n        /* \"contracts/Staking.sol\":5531:5540  _tokenIds */\n      dup4\n      dup4\n        /* \"contracts/Staking.sol\":5531:5547  _tokenIds.length */\n      swap1\n      pop\n        /* \"contracts/Staking.sol\":5531:5551  _tokenIds.length > 0 */\n      gt\n        /* \"contracts/Staking.sol\":5523:5565  require(_tokenIds.length > 0, \"No tokens\") */\n      tag_74\n      jumpi\n      mload(0x40)\n      0x08c379a000000000000000000000000000000000000000000000000000000000\n      dup2\n      mstore\n      0x04\n      add\n      tag_75\n      swap1\n      tag_76\n      jump\t// in\n    tag_75:\n      mload(0x40)\n      dup1\n      swap2\n      sub\n      swap1\n      revert\n    tag_74:\n        /* \"contracts/Staking.sol\":5578:5598  uint256 totalRewards */\n      0x00\n        /* \"contracts/Staking.sol\":5614:5623  uint256 i */\n      dup1\n        /* \"contracts/Staking.sol\":5626:5627  0 */\n      0x00\n        /* \"contracts/Staking.sol\":5614:5627  uint256 i = 0 */\n      swap1\n      pop\n        /* \"contracts/Staking.sol\":5609:6344  for (uint256 i = 0; i < _tokenIds.length; i++) {... */\n    tag_77:\n        /* \"contracts/Staking.sol\":5633:5642  _tokenIds */\n      dup5\n      dup5\n        /* \"contracts/Staking.sol\":5633:5649  _tokenIds.length */\n      swap1\n      pop\n        /* \"contracts/Staking.sol\":5629:5630  i */\n      dup2\n        /* \"contracts/Staking.sol\":5629:5649  i < _tokenIds.length */\n      lt\n        /* \"contracts/Staking.sol\":5609:6344  for (uint256 i = 0; i < _tokenIds.length; i++) {... */\n      iszero\n      tag_78\n      jumpi\n        /* \"contracts/Staking.sol\":5671:5691  LockInfo memory info */\n      0x00\n        /* \"contracts/Staking.sol\":5694:5702  lockInfo */\n      0x03\n        /* \"contracts/Staking.sol\":5694:5723  lockInfo[IERC721(nftAddress)] */\n      0x00\n        /* \"contracts/Staking.sol\":5711:5721  nftAddress */\n      dup6\n        /* \"contracts/Staking.sol\":5694:5723  lockInfo[IERC721(nftAddress)] */\n      0xffffffffffffffffffffffffffffffffffffffff\n      and\n      0xffffffffffffffffffffffffffffffffffffffff\n      and\n      dup2\n      mstore\n      0x20\n      add\n      swap1\n      dup2\n      mstore\n      0x20\n      add\n      0x00\n      keccak256\n        /* \"contracts/Staking.sol\":5694:5737  lockInfo[IERC721(nftAddress)][_tokenIds[i]] */\n      0x00\n        /* \"contracts/Staking.sol\":5724:5733  _tokenIds */\n      dup8\n      dup8\n        /* \"contracts/Staking.sol\":5734:5735  i */\n      dup6\n        /* \"contracts/Staking.sol\":5724:5736  _tokenIds[i] */\n      dup2\n      dup2\n      lt\n      tag_80\n      jumpi\n      tag_81\n      tag_82\n      jump\t// in\n    tag_81:\n    tag_80:\n      swap1\n      pop\n      0x20\n      mul\n      add\n      calldataload\n        /* \"contracts/Staking.sol\":5694:5737  lockInfo[IERC721(nftAddress)][_tokenIds[i]] */\n      dup2\n      mstore\n      0x20\n      add\n      swap1\n      dup2\n      mstore\n      0x20\n      add\n      0x00\n      keccak256\n        /* \"contracts/Staking.sol\":5671:5737  LockInfo memory info = lockInfo[IERC721(nftAddress)][_tokenIds[i]] */\n      mload(0x40)\n      dup1\n      0xa0\n      add\n      0x40\n      mstore\n      swap1\n      dup2\n      0x00\n      dup3\n      add\n      0x00\n      swap1\n      sload\n      swap1\n      0x0100\n      exp\n      swap1\n      div\n      0xffffffffffffffffffffffffffffffffffffffff\n      and\n      0xffffffffffffffffffffffffffffffffffffffff\n      and\n      0xffffffffffffffffffffffffffffffffffffffff\n      and\n      dup2\n      mstore\n      0x20\n      add\n      0x01\n      dup3\n      add\n      sload\n      dup2\n      mstore\n      0x20\n      add\n      0x02\n      dup3\n      add\n      sload\n      dup2\n      mstore\n      0x20\n      add\n      0x03\n      dup3\n      add\n      0x00\n      swap1\n      sload\n      swap1\n      0x0100\n      exp\n      swap1\n      div\n      0xff\n      and\n      iszero\n      iszero\n      iszero\n      iszero\n      dup2\n      mstore\n      0x20\n      add\n      0x03\n      dup3\n      add\n      0x01\n      swap1\n      sload\n      swap1\n      0x0100\n      exp\n      swap1\n      div\n      0xffffffffffffffffffffffffffffffffffffffff\n      and\n      0xffffffffffffffffffffffffffffffffffffffff\n      and\n      0xffffffffffffffffffffffffffffffffffffffff\n      and\n      dup2\n      mstore\n      pop\n      pop\n      swap1\n      pop\n        /* \"contracts/Staking.sol\":5774:5784  msg.sender */\n      caller\n        /* \"contracts/Staking.sol\":5760:5784  info.owner == msg.sender */\n      0xffffffffffffffffffffffffffffffffffffffff\n      and\n        /* \"contracts/Staking.sol\":5760:5764  info */\n      dup2\n        /* \"contracts/Staking.sol\":5760:5770  info.owner */\n      0x00\n      add\n      mload\n        /* \"contracts/Staking.sol\":5760:5784  info.owner == msg.sender */\n      0xffffffffffffffffffffffffffffffffffffffff\n      and\n      eq\n        /* \"contracts/Staking.sol\":5752:5806  require(info.owner == msg.sender, \"Not a token owner\") */\n      tag_83\n      jumpi\n      mload(0x40)\n      0x08c379a000000000000000000000000000000000000000000000000000000000\n      dup2\n      mstore\n      0x04\n      add\n      tag_84\n      swap1\n      tag_85\n      jump\t// in\n    tag_84:\n      mload(0x40)\n      dup1\n      swap2\n      sub\n      swap1\n      revert\n    tag_83:\n        /* \"contracts/Staking.sol\":5860:5875  block.timestamp */\n      timestamp\n        /* \"contracts/Staking.sol\":5847:5857  lockPeriod */\n      sload(0x02)\n        /* \"contracts/Staking.sol\":5829:5833  info */\n      dup3\n        /* \"contracts/Staking.sol\":5829:5844  info.lockedTime */\n      0x20\n      add\n      mload\n        /* \"contracts/Staking.sol\":5829:5857  info.lockedTime + lockPeriod */\n      tag_86\n      swap2\n      swap1\n      tag_87\n      jump\t// in\n    tag_86:\n        /* \"contracts/Staking.sol\":5829:5875  info.lockedTime + lockPeriod < block.timestamp */\n      lt\n        /* \"contracts/Staking.sol\":5821:5901  require(info.lockedTime + lockPeriod < block.timestamp, \"Not able to claim yet\") */\n      tag_88\n      jumpi\n      mload(0x40)\n      0x08c379a000000000000000000000000000000000000000000000000000000000\n      dup2\n      mstore\n      0x04\n      add\n      tag_89\n      swap1\n      tag_90\n      jump\t// in\n    tag_89:\n      mload(0x40)\n      dup1\n      swap2\n      sub\n      swap1\n      revert\n    tag_88:\n        /* \"contracts/Staking.sol\":5925:5929  info */\n      dup1\n        /* \"contracts/Staking.sol\":5925:5940  info.isUnlocked */\n      0x60\n      add\n      mload\n        /* \"contracts/Staking.sol\":5924:5940  !info.isUnlocked */\n      iszero\n        /* \"contracts/Staking.sol\":5916:5961  require(!info.isUnlocked, \"Already unlocked\") */\n      tag_91\n      jumpi\n      mload(0x40)\n      0x08c379a000000000000000000000000000000000000000000000000000000000\n      dup2\n      mstore\n      0x04\n      add\n      tag_92\n      swap1\n      tag_93\n      jump\t// in\n    tag_92:\n      mload(0x40)\n      dup1\n      swap2\n      sub\n      swap1\n      revert\n    tag_91:\n        /* \"contracts/Staking.sol\":5978:5997  uint256 totalAmount */\n      0x00\n        /* \"contracts/Staking.sol\":6000:6039  _rewardAmount(_tokenIds[i], nftAddress) */\n      tag_94\n        /* \"contracts/Staking.sol\":6014:6023  _tokenIds */\n      dup8\n      dup8\n        /* \"contracts/Staking.sol\":6024:6025  i */\n      dup6\n        /* \"contracts/Staking.sol\":6014:6026  _tokenIds[i] */\n      dup2\n      dup2\n      lt\n      tag_95\n      jumpi\n      tag_96\n      tag_82\n      jump\t// in\n    tag_96:\n    tag_95:\n      swap1\n      pop\n      0x20\n      mul\n      add\n      calldataload\n        /* \"contracts/Staking.sol\":6028:6038  nftAddress */\n      dup7\n        /* \"contracts/Staking.sol\":6000:6013  _rewardAmount */\n      tag_97\n        /* \"contracts/Staking.sol\":6000:6039  _rewardAmount(_tokenIds[i], nftAddress) */\n      jump\t// in\n    tag_94:\n        /* \"contracts/Staking.sol\":5978:6039  uint256 totalAmount = _rewardAmount(_tokenIds[i], nftAddress) */\n      swap1\n      pop\n        /* \"contracts/Staking.sol\":6054:6078  uint256 unclaminedAmount */\n      0x00\n        /* \"contracts/Staking.sol\":6095:6099  info */\n      dup3\n        /* \"contracts/Staking.sol\":6095:6114  info.claimedRewards */\n      0x40\n      add\n      mload\n        /* \"contracts/Staking.sol\":6081:6092  totalAmount */\n      dup3\n        /* \"contracts/Staking.sol\":6081:6114  totalAmount - info.claimedRewards */\n      tag_98\n      swap2\n      swap1\n      tag_99\n      jump\t// in\n    tag_98:\n        /* \"contracts/Staking.sol\":6054:6114  uint256 unclaminedAmount = totalAmount - info.claimedRewards */\n      swap1\n      pop\n        /* \"contracts/Staking.sol\":6129:6136  nftInfo */\n      0x04\n        /* \"contracts/Staking.sol\":6129:6148  nftInfo[nftAddress] */\n      0x00\n        /* \"contracts/Staking.sol\":6137:6147  nftAddress */\n      dup8\n        /* \"contracts/Staking.sol\":6129:6148  nftInfo[nftAddress] */\n      0xffffffffffffffffffffffffffffffffffffffff\n      and\n      0xffffffffffffffffffffffffffffffffffffffff\n      and\n      dup2\n      mstore\n      0x20\n      add\n      swap1\n      dup2\n      mstore\n      0x20\n      add\n      0x00\n      keccak256\n        /* \"contracts/Staking.sol\":6129:6161  nftInfo[nftAddress].rewardsToken */\n      0x00\n      add\n      0x00\n      swap1\n      sload\n      swap1\n      0x0100\n      exp\n      swap1\n      div\n      0xffffffffffffffffffffffffffffffffffffffff\n      and\n        /* \"contracts/Staking.sol\":6129:6166  nftInfo[nftAddress].rewardsToken.mint */\n      0xffffffffffffffffffffffffffffffffffffffff\n      and\n      0x40c10f19\n        /* \"contracts/Staking.sol\":6167:6177  msg.sender */\n      caller\n        /* \"contracts/Staking.sol\":6179:6195  unclaminedAmount */\n      dup4\n        /* \"contracts/Staking.sol\":6129:6196  nftInfo[nftAddress].rewardsToken.mint(msg.sender, unclaminedAmount) */\n      mload(0x40)\n      dup4\n      0xffffffff\n      and\n      0xe0\n      shl\n      dup2\n      mstore\n      0x04\n      add\n      tag_100\n      swap3\n      swap2\n      swap1\n      tag_101\n      jump\t// in\n    tag_100:\n      0x00\n      mload(0x40)\n      dup1\n      dup4\n      sub\n      dup2\n      0x00\n      dup8\n      dup1\n      extcodesize\n      iszero\n      dup1\n      iszero\n      tag_102\n      jumpi\n      0x00\n      dup1\n      revert\n    tag_102:\n      pop\n      gas\n      call\n      iszero\n      dup1\n      iszero\n      tag_104\n      jumpi\n      returndatasize\n      0x00\n      dup1\n      returndatacopy\n      revert(0x00, returndatasize)\n    tag_104:\n      pop\n      pop\n      pop\n      pop\n        /* \"contracts/Staking.sol\":6227:6243  unclaminedAmount */\n      dup1\n        /* \"contracts/Staking.sol\":6211:6243  totalRewards += unclaminedAmount */\n      dup6\n      tag_105\n      swap2\n      swap1\n      tag_87\n      jump\t// in\n    tag_105:\n      swap5\n      pop\n        /* \"contracts/Staking.sol\":6321:6332  totalAmount */\n      dup2\n        /* \"contracts/Staking.sol\":6260:6268  lockInfo */\n      0x03\n        /* \"contracts/Staking.sol\":6260:6289  lockInfo[IERC721(nftAddress)] */\n      0x00\n        /* \"contracts/Staking.sol\":6277:6287  nftAddress */\n      dup9\n        /* \"contracts/Staking.sol\":6260:6289  lockInfo[IERC721(nftAddress)] */\n      0xffffffffffffffffffffffffffffffffffffffff\n      and\n      0xffffffffffffffffffffffffffffffffffffffff\n      and\n      dup2\n      mstore\n      0x20\n      add\n      swap1\n      dup2\n      mstore\n      0x20\n      add\n      0x00\n      keccak256\n        /* \"contracts/Staking.sol\":6260:6303  lockInfo[IERC721(nftAddress)][_tokenIds[i]] */\n      0x00\n        /* \"contracts/Staking.sol\":6290:6299  _tokenIds */\n      dup11\n      dup11\n        /* \"contracts/Staking.sol\":6300:6301  i */\n      dup9\n        /* \"contracts/Staking.sol\":6290:6302  _tokenIds[i] */\n      dup2\n      dup2\n      lt\n      tag_106\n      jumpi\n      tag_107\n      tag_82\n      jump\t// in\n    tag_107:\n    tag_106:\n      swap1\n      pop\n      0x20\n      mul\n      add\n      calldataload\n        /* \"contracts/Staking.sol\":6260:6303  lockInfo[IERC721(nftAddress)][_tokenIds[i]] */\n      dup2\n      mstore\n      0x20\n      add\n      swap1\n      dup2\n      mstore\n      0x20\n      add\n      0x00\n      keccak256\n        /* \"contracts/Staking.sol\":6260:6318  lockInfo[IERC721(nftAddress)][_tokenIds[i]].claimedRewards */\n      0x02\n      add\n        /* \"contracts/Staking.sol\":6260:6332  lockInfo[IERC721(nftAddress)][_tokenIds[i]].claimedRewards = totalAmount */\n      dup2\n      swap1\n      sstore\n      pop\n        /* \"contracts/Staking.sol\":5656:6344  {... */\n      pop\n      pop\n      pop\n        /* \"contracts/Staking.sol\":5651:5654  i++ */\n      dup1\n      dup1\n      tag_108\n      swap1\n      tag_109\n      jump\t// in\n    tag_108:\n      swap2\n      pop\n      pop\n        /* \"contracts/Staking.sol\":5609:6344  for (uint256 i = 0; i < _tokenIds.length; i++) {... */\n      jump(tag_77)\n    tag_78:\n      pop\n        /* \"contracts/Staking.sol\":6376:6386  msg.sender */\n      caller\n        /* \"contracts/Staking.sol\":6361:6412  RewardsClaimed(msg.sender, _tokenIds, totalRewards) */\n      0xffffffffffffffffffffffffffffffffffffffff\n      and\n      0x37826be3c26dbad83731f4b985f22fa9ef86b6d1974cd77208332b7f1f283c0c\n        /* \"contracts/Staking.sol\":6388:6397  _tokenIds */\n      dup6\n      dup6\n        /* \"contracts/Staking.sol\":6399:6411  totalRewards */\n      dup5\n        /* \"contracts/Staking.sol\":6361:6412  RewardsClaimed(msg.sender, _tokenIds, totalRewards) */\n      mload(0x40)\n      tag_110\n      swap4\n      swap3\n      swap2\n      swap1\n      tag_111\n      jump\t// in\n    tag_110:\n      mload(0x40)\n      dup1\n      swap2\n      sub\n      swap1\n      log2\n        /* \"contracts/Staking.sol\":5512:6420  {... */\n      pop\n        /* \"contracts/Staking.sol\":5420:6420  function claimRewards(uint256[] calldata _tokenIds,IERC721 nftAddress) external notContract {... */\n      pop\n      pop\n      pop\n      jump\t// out\n        /* \"contracts/Staking.sol\":3543:4134  function lockNFT(uint256[] calldata  _tokenIds, IERC721 nftAddress ) external notContract nonReentrant {... */\n    tag_22:\n        /* \"contracts/Staking.sol\":2573:2605  address(msg.sender).isContract() */\n      tag_113\n        /* \"contracts/Staking.sol\":2581:2591  msg.sender */\n      caller\n        /* \"contracts/Staking.sol\":2573:2603  address(msg.sender).isContract */\n      0xffffffffffffffffffffffffffffffffffffffff\n      and\n      tag_66\n        /* \"contracts/Staking.sol\":2573:2605  address(msg.sender).isContract() */\n      jump\t// in\n    tag_113:\n        /* \"contracts/Staking.sol\":2572:2605  !address(msg.sender).isContract() */\n      iszero\n        /* \"contracts/Staking.sol\":2564:2630  require(!address(msg.sender).isContract(), \"Contract not allowed\") */\n      tag_114\n      jumpi\n      mload(0x40)\n      0x08c379a000000000000000000000000000000000000000000000000000000000\n      dup2\n      mstore\n      0x04\n      add\n      tag_115\n      swap1\n      tag_69\n      jump\t// in\n    tag_115:\n      mload(0x40)\n      dup1\n      swap2\n      sub\n      swap1\n      revert\n    tag_114:\n        /* \"contracts/Staking.sol\":2663:2672  tx.origin */\n      origin\n        /* \"contracts/Staking.sol\":2649:2672  msg.sender == tx.origin */\n      0xffffffffffffffffffffffffffffffffffffffff\n      and\n        /* \"contracts/Staking.sol\":2649:2659  msg.sender */\n      caller\n        /* \"contracts/Staking.sol\":2649:2672  msg.sender == tx.origin */\n      0xffffffffffffffffffffffffffffffffffffffff\n      and\n      eq\n        /* \"contracts/Staking.sol\":2641:2703  require(msg.sender == tx.origin, \"Proxy contract not allowed\") */\n      tag_116\n      jumpi\n      mload(0x40)\n      0x08c379a000000000000000000000000000000000000000000000000000000000\n      dup2\n      mstore\n      0x04\n      add\n      tag_117\n      swap1\n      tag_72\n      jump\t// in\n    tag_117:\n      mload(0x40)\n      dup1\n      swap2\n      sub\n      swap1\n      revert\n    tag_116:\n        /* \"@openzeppelin/contracts/security/ReentrancyGuard.sol\":1744:1745  2 */\n      0x02\n        /* \"@openzeppelin/contracts/security/ReentrancyGuard.sol\":2325:2332  _status */\n      sload(0x01)\n        /* \"@openzeppelin/contracts/security/ReentrancyGuard.sol\":2325:2344  _status != _ENTERED */\n      sub\n        /* \"@openzeppelin/contracts/security/ReentrancyGuard.sol\":2317:2380  require(_status != _ENTERED, \"ReentrancyGuard: reentrant call\") */\n      tag_119\n      jumpi\n      mload(0x40)\n      0x08c379a000000000000000000000000000000000000000000000000000000000\n      dup2\n      mstore\n      0x04\n      add\n      tag_120\n      swap1\n      tag_121\n      jump\t// in\n    tag_120:\n      mload(0x40)\n      dup1\n      swap2\n      sub\n      swap1\n      revert\n    tag_119:\n        /* \"@openzeppelin/contracts/security/ReentrancyGuard.sol\":1744:1745  2 */\n      0x02\n        /* \"@openzeppelin/contracts/security/ReentrancyGuard.sol\":2455:2462  _status */\n      0x01\n        /* \"@openzeppelin/contracts/security/ReentrancyGuard.sol\":2455:2473  _status = _ENTERED */\n      dup2\n      swap1\n      sstore\n      pop\n        /* \"contracts/Staking.sol\":3684:3685  0 */\n      0x00\n        /* \"contracts/Staking.sol\":3665:3674  _tokenIds */\n      dup4\n      dup4\n        /* \"contracts/Staking.sol\":3665:3681  _tokenIds.length */\n      swap1\n      pop\n        /* \"contracts/Staking.sol\":3665:3685  _tokenIds.length > 0 */\n      gt\n        /* \"contracts/Staking.sol\":3657:3699  require(_tokenIds.length > 0, \"No tokens\") */\n      tag_123\n      jumpi\n      mload(0x40)\n      0x08c379a000000000000000000000000000000000000000000000000000000000\n      dup2\n      mstore\n      0x04\n      add\n      tag_124\n      swap1\n      tag_76\n      jump\t// in\n    tag_124:\n      mload(0x40)\n      dup1\n      swap2\n      sub\n      swap1\n      revert\n    tag_123:\n        /* \"contracts/Staking.sol\":3717:3726  uint256 i */\n      0x00\n        /* \"contracts/Staking.sol\":3712:4077  for (uint256 i = 0; i < _tokenIds.length; i++) {... */\n    tag_125:\n        /* \"contracts/Staking.sol\":3736:3745  _tokenIds */\n      dup4\n      dup4\n        /* \"contracts/Staking.sol\":3736:3752  _tokenIds.length */\n      swap1\n      pop\n        /* \"contracts/Staking.sol\":3732:3733  i */\n      dup2\n        /* \"contracts/Staking.sol\":3732:3752  i < _tokenIds.length */\n      lt\n        /* \"contracts/Staking.sol\":3712:4077  for (uint256 i = 0; i < _tokenIds.length; i++) {... */\n      iszero\n      tag_126\n      jumpi\n        /* \"contracts/Staking.sol\":3818:3828  msg.sender */\n      caller\n        /* \"contracts/Staking.sol\":3782:3828  nftAddress.ownerOf(_tokenIds[i]) == msg.sender */\n      0xffffffffffffffffffffffffffffffffffffffff\n      and\n        /* \"contracts/Staking.sol\":3782:3792  nftAddress */\n      dup3\n        /* \"contracts/Staking.sol\":3782:3800  nftAddress.ownerOf */\n      0xffffffffffffffffffffffffffffffffffffffff\n      and\n      0x6352211e\n        /* \"contracts/Staking.sol\":3801:3810  _tokenIds */\n      dup7\n      dup7\n        /* \"contracts/Staking.sol\":3811:3812  i */\n      dup6\n        /* \"contracts/Staking.sol\":3801:3813  _tokenIds[i] */\n      dup2\n      dup2\n      lt\n      tag_128\n      jumpi\n      tag_129\n      tag_82\n      jump\t// in\n    tag_129:\n    tag_128:\n      swap1\n      pop\n      0x20\n      mul\n      add\n      calldataload\n        /* \"contracts/Staking.sol\":3782:3814  nftAddress.ownerOf(_tokenIds[i]) */\n      mload(0x40)\n      dup3\n      0xffffffff\n      and\n      0xe0\n      shl\n      dup2\n      mstore\n      0x04\n      add\n      tag_130\n      swap2\n      swap1\n      tag_26\n      jump\t// in\n    tag_130:\n      0x20\n      mload(0x40)\n      dup1\n      dup4\n      sub\n      dup2\n      dup7\n      gas\n      staticcall\n      iszero\n      dup1\n      iszero\n      tag_132\n      jumpi\n      returndatasize\n      0x00\n      dup1\n      returndatacopy\n      revert(0x00, returndatasize)\n    tag_132:\n      pop\n      pop\n      pop\n      pop\n      mload(0x40)\n      returndatasize\n      not(0x1f)\n      0x1f\n      dup3\n      add\n      and\n      dup3\n      add\n      dup1\n      0x40\n      mstore\n      pop\n      dup2\n      add\n      swap1\n      tag_133\n      swap2\n      swap1\n      tag_134\n      jump\t// in\n    tag_133:\n        /* \"contracts/Staking.sol\":3782:3828  nftAddress.ownerOf(_tokenIds[i]) == msg.sender */\n      0xffffffffffffffffffffffffffffffffffffffff\n      and\n      eq\n        /* \"contracts/Staking.sol\":3774:3858  require(nftAddress.ownerOf(_tokenIds[i]) == msg.sender, \"You don't hold this token\") */\n      tag_135\n      jumpi\n      mload(0x40)\n      0x08c379a000000000000000000000000000000000000000000000000000000000\n      dup2\n      mstore\n      0x04\n      add\n      tag_136\n      swap1\n      tag_137\n      jump\t// in\n    tag_136:\n      mload(0x40)\n      dup1\n      swap2\n      sub\n      swap1\n      revert\n    tag_135:\n        /* \"contracts/Staking.sol\":3873:3883  nftAddress */\n      dup2\n        /* \"contracts/Staking.sol\":3873:3896  nftAddress.transferFrom */\n      0xffffffffffffffffffffffffffffffffffffffff\n      and\n      0x23b872dd\n        /* \"contracts/Staking.sol\":3897:3907  msg.sender */\n      caller\n        /* \"contracts/Staking.sol\":3917:3921  this */\n      address\n        /* \"contracts/Staking.sol\":3924:3933  _tokenIds */\n      dup8\n      dup8\n        /* \"contracts/Staking.sol\":3934:3935  i */\n      dup7\n        /* \"contracts/Staking.sol\":3924:3936  _tokenIds[i] */\n      dup2\n      dup2\n      lt\n      tag_138\n      jumpi\n      tag_139\n      tag_82\n      jump\t// in\n    tag_139:\n    tag_138:\n      swap1\n      pop\n      0x20\n      mul\n      add\n      calldataload\n        /* \"contracts/Staking.sol\":3873:3937  nftAddress.transferFrom(msg.sender, address(this), _tokenIds[i]) */\n      mload(0x40)\n      dup5\n      0xffffffff\n      and\n      0xe0\n      shl\n      dup2\n      mstore\n      0x04\n      add\n      tag_140\n      swap4\n      swap3\n      swap2\n      swap1\n      tag_141\n      jump\t// in\n    tag_140:\n      0x00\n      mload(0x40)\n      dup1\n      dup4\n      sub\n      dup2\n      0x00\n      dup8\n      dup1\n      extcodesize\n      iszero\n      dup1\n      iszero\n      tag_142\n      jumpi\n      0x00\n      dup1\n      revert\n    tag_142:\n      pop\n      gas\n      call\n      iszero\n      dup1\n      iszero\n      tag_144\n      jumpi\n      returndatasize\n      0x00\n      dup1\n      returndatacopy\n      revert(0x00, returndatasize)\n    tag_144:\n      pop\n      pop\n      pop\n      pop\n        /* \"contracts/Staking.sol\":3998:4065  LockInfo(msg.sender, block.timestamp, 0, false,IERC721(nftAddress)) */\n      mload(0x40)\n      dup1\n      0xa0\n      add\n      0x40\n      mstore\n      dup1\n        /* \"contracts/Staking.sol\":4007:4017  msg.sender */\n      caller\n        /* \"contracts/Staking.sol\":3998:4065  LockInfo(msg.sender, block.timestamp, 0, false,IERC721(nftAddress)) */\n      0xffffffffffffffffffffffffffffffffffffffff\n      and\n      dup2\n      mstore\n      0x20\n      add\n        /* \"contracts/Staking.sol\":4019:4034  block.timestamp */\n      timestamp\n        /* \"contracts/Staking.sol\":3998:4065  LockInfo(msg.sender, block.timestamp, 0, false,IERC721(nftAddress)) */\n      dup2\n      mstore\n      0x20\n      add\n        /* \"contracts/Staking.sol\":4036:4037  0 */\n      0x00\n        /* \"contracts/Staking.sol\":3998:4065  LockInfo(msg.sender, block.timestamp, 0, false,IERC721(nftAddress)) */\n      dup2\n      mstore\n      0x20\n      add\n        /* \"contracts/Staking.sol\":4039:4044  false */\n      0x00\n        /* \"contracts/Staking.sol\":3998:4065  LockInfo(msg.sender, block.timestamp, 0, false,IERC721(nftAddress)) */\n      iszero\n      iszero\n      dup2\n      mstore\n      0x20\n      add\n        /* \"contracts/Staking.sol\":4053:4063  nftAddress */\n      dup4\n        /* \"contracts/Staking.sol\":3998:4065  LockInfo(msg.sender, block.timestamp, 0, false,IERC721(nftAddress)) */\n      0xffffffffffffffffffffffffffffffffffffffff\n      and\n      dup2\n      mstore\n      pop\n        /* \"contracts/Staking.sol\":3952:3960  lockInfo */\n      0x03\n        /* \"contracts/Staking.sol\":3952:3981  lockInfo[IERC721(nftAddress)] */\n      0x00\n        /* \"contracts/Staking.sol\":3969:3979  nftAddress */\n      dup5\n        /* \"contracts/Staking.sol\":3952:3981  lockInfo[IERC721(nftAddress)] */\n      0xffffffffffffffffffffffffffffffffffffffff\n      and\n      0xffffffffffffffffffffffffffffffffffffffff\n      and\n      dup2\n      mstore\n      0x20\n      add\n      swap1\n      dup2\n      mstore\n      0x20\n      add\n      0x00\n      keccak256\n        /* \"contracts/Staking.sol\":3952:3995  lockInfo[IERC721(nftAddress)][_tokenIds[i]] */\n      0x00\n        /* \"contracts/Staking.sol\":3982:3991  _tokenIds */\n      dup7\n      dup7\n        /* \"contracts/Staking.sol\":3992:3993  i */\n      dup6\n        /* \"contracts/Staking.sol\":3982:3994  _tokenIds[i] */\n      dup2\n      dup2\n      lt\n      tag_145\n      jumpi\n      tag_146\n      tag_82\n      jump\t// in\n    tag_146:\n    tag_145:\n      swap1\n      pop\n      0x20\n      mul\n      add\n      calldataload\n        /* \"contracts/Staking.sol\":3952:3995  lockInfo[IERC721(nftAddress)][_tokenIds[i]] */\n      dup2\n      mstore\n      0x20\n      add\n      swap1\n      dup2\n      mstore\n      0x20\n      add\n      0x00\n      keccak256\n        /* \"contracts/Staking.sol\":3952:4065  lockInfo[IERC721(nftAddress)][_tokenIds[i]] = LockInfo(msg.sender, block.timestamp, 0, false,IERC721(nftAddress)) */\n      0x00\n      dup3\n      add\n      mload\n      dup2\n      0x00\n      add\n      exp(0x0100, 0x00)\n      dup2\n      sload\n      dup2\n      0xffffffffffffffffffffffffffffffffffffffff\n      mul\n      not\n      and\n      swap1\n      dup4\n      0xffffffffffffffffffffffffffffffffffffffff\n      and\n      mul\n      or\n      swap1\n      sstore\n      pop\n      0x20\n      dup3\n      add\n      mload\n      dup2\n      0x01\n      add\n      sstore\n      0x40\n      dup3\n      add\n      mload\n      dup2\n      0x02\n      add\n      sstore\n      0x60\n      dup3\n      add\n      mload\n      dup2\n      0x03\n      add\n      exp(0x0100, 0x00)\n      dup2\n      sload\n      dup2\n      0xff\n      mul\n      not\n      and\n      swap1\n      dup4\n      iszero\n      iszero\n      mul\n      or\n      swap1\n      sstore\n      pop\n      0x80\n      dup3\n      add\n      mload\n      dup2\n      0x03\n      add\n      exp(0x0100, 0x01)\n      dup2\n      sload\n      dup2\n      0xffffffffffffffffffffffffffffffffffffffff\n      mul\n      not\n      and\n      swap1\n      dup4\n      0xffffffffffffffffffffffffffffffffffffffff\n      and\n      mul\n      or\n      swap1\n      sstore\n      pop\n      swap1\n      pop\n      pop\n        /* \"contracts/Staking.sol\":3754:3757  i++ */\n      dup1\n      dup1\n      tag_147\n      swap1\n      tag_109\n      jump\t// in\n    tag_147:\n      swap2\n      pop\n      pop\n        /* \"contracts/Staking.sol\":3712:4077  for (uint256 i = 0; i < _tokenIds.length; i++) {... */\n      jump(tag_125)\n    tag_126:\n      pop\n        /* \"contracts/Staking.sol\":4104:4114  msg.sender */\n      caller\n        /* \"contracts/Staking.sol\":4094:4126  NFTLocked(msg.sender, _tokenIds) */\n      0xffffffffffffffffffffffffffffffffffffffff\n      and\n      0x458be0227bccc9e803dec79bd16767eeaf9925d2ce708eeed7ae1f3621f968f9\n        /* \"contracts/Staking.sol\":4116:4125  _tokenIds */\n      dup5\n      dup5\n        /* \"contracts/Staking.sol\":4094:4126  NFTLocked(msg.sender, _tokenIds) */\n      mload(0x40)\n      tag_148\n      swap3\n      swap2\n      swap1\n      tag_149\n      jump\t// in\n    tag_148:\n      mload(0x40)\n      dup1\n      swap2\n      sub\n      swap1\n      log2\n        /* \"@openzeppelin/contracts/security/ReentrancyGuard.sol\":1701:1702  1 */\n      0x01\n        /* \"@openzeppelin/contracts/security/ReentrancyGuard.sol\":2628:2635  _status */\n      dup1\n        /* \"@openzeppelin/contracts/security/ReentrancyGuard.sol\":2628:2650  _status = _NOT_ENTERED */\n      dup2\n      swap1\n      sstore\n      pop\n        /* \"contracts/Staking.sol\":3543:4134  function lockNFT(uint256[] calldata  _tokenIds, IERC721 nftAddress ) external notContract nonReentrant {... */\n      pop\n      pop\n      pop\n      jump\t// out\n        /* \"contracts/Staking.sol\":502:527  uint256 public lockPeriod */\n    tag_24:\n      sload(0x02)\n      dup2\n      jump\t// out\n        /* \"@openzeppelin/contracts/access/Ownable.sol\":1831:1932  function renounceOwnership() public virtual onlyOwner {... */\n    tag_28:\n        /* \"@openzeppelin/contracts/access/Ownable.sol\":1094:1107  _checkOwner() */\n      tag_151\n        /* \"@openzeppelin/contracts/access/Ownable.sol\":1094:1105  _checkOwner */\n      tag_152\n        /* \"@openzeppelin/contracts/access/Ownable.sol\":1094:1107  _checkOwner() */\n      jump\t// in\n    tag_151:\n        /* \"@openzeppelin/contracts/access/Ownable.sol\":1895:1925  _transferOwnership(address(0)) */\n      tag_154\n        /* \"@openzeppelin/contracts/access/Ownable.sol\":1922:1923  0 */\n      0x00\n        /* \"@openzeppelin/contracts/access/Ownable.sol\":1895:1913  _transferOwnership */\n      tag_155\n        /* \"@openzeppelin/contracts/access/Ownable.sol\":1895:1925  _transferOwnership(address(0)) */\n      jump\t// in\n    tag_154:\n        /* \"@openzeppelin/contracts/access/Ownable.sol\":1831:1932  function renounceOwnership() public virtual onlyOwner {... */\n      jump\t// out\n        /* \"contracts/Staking.sol\":2847:3060  function setLockPeriod(uint256 _lockPeriod) external onlyOwner {... */\n    tag_32:\n        /* \"@openzeppelin/contracts/access/Ownable.sol\":1094:1107  _checkOwner() */\n      tag_157\n        /* \"@openzeppelin/contracts/access/Ownable.sol\":1094:1105  _checkOwner */\n      tag_152\n        /* \"@openzeppelin/contracts/access/Ownable.sol\":1094:1107  _checkOwner() */\n      jump\t// in\n    tag_157:\n        /* \"contracts/Staking.sol\":2943:2944  0 */\n      0x00\n        /* \"contracts/Staking.sol\":2929:2940  _lockPeriod */\n      dup2\n        /* \"contracts/Staking.sol\":2929:2944  _lockPeriod > 0 */\n      gt\n        /* \"contracts/Staking.sol\":2921:2969  require(_lockPeriod > 0, \"Invalid lock period.\") */\n      tag_159\n      jumpi\n      mload(0x40)\n      0x08c379a000000000000000000000000000000000000000000000000000000000\n      dup2\n      mstore\n      0x04\n      add\n      tag_160\n      swap1\n      tag_161\n      jump\t// in\n    tag_160:\n      mload(0x40)\n      dup1\n      swap2\n      sub\n      swap1\n      revert\n    tag_159:\n        /* \"contracts/Staking.sol\":2993:3004  _lockPeriod */\n      dup1\n        /* \"contracts/Staking.sol\":2980:2990  lockPeriod */\n      0x02\n        /* \"contracts/Staking.sol\":2980:3004  lockPeriod = _lockPeriod */\n      dup2\n      swap1\n      sstore\n      pop\n        /* \"contracts/Staking.sol\":3022:3052  LockPeriodUpdated(_lockPeriod) */\n      0x8249ec545e68f6f1e1230133ca48c704d831a7f8e635ded80f3dd9e99b09bb2f\n        /* \"contracts/Staking.sol\":3040:3051  _lockPeriod */\n      dup2\n        /* \"contracts/Staking.sol\":3022:3052  LockPeriodUpdated(_lockPeriod) */\n      mload(0x40)\n      tag_162\n      swap2\n      swap1\n      tag_26\n      jump\t// in\n    tag_162:\n      mload(0x40)\n      dup1\n      swap2\n      sub\n      swap1\n      log1\n        /* \"contracts/Staking.sol\":2847:3060  function setLockPeriod(uint256 _lockPeriod) external onlyOwner {... */\n      pop\n      jump\t// out\n        /* \"@openzeppelin/contracts/access/Ownable.sol\":1201:1286  function owner() public view virtual returns (address) {... */\n    tag_34:\n        /* \"@openzeppelin/contracts/access/Ownable.sol\":1247:1254  address */\n      0x00\n        /* \"@openzeppelin/contracts/access/Ownable.sol\":1273:1279  _owner */\n      dup1\n      0x00\n      swap1\n      sload\n      swap1\n      0x0100\n      exp\n      swap1\n      div\n      0xffffffffffffffffffffffffffffffffffffffff\n      and\n        /* \"@openzeppelin/contracts/access/Ownable.sol\":1266:1279  return _owner */\n      swap1\n      pop\n        /* \"@openzeppelin/contracts/access/Ownable.sol\":1201:1286  function owner() public view virtual returns (address) {... */\n      swap1\n      jump\t// out\n        /* \"contracts/Staking.sol\":4247:5322  function unlockNFT(uint256[] calldata _tokenIds, IERC721 nftAddress) external notContract nonReentrant {... */\n    tag_39:\n        /* \"contracts/Staking.sol\":2573:2605  address(msg.sender).isContract() */\n      tag_165\n        /* \"contracts/Staking.sol\":2581:2591  msg.sender */\n      caller\n        /* \"contracts/Staking.sol\":2573:2603  address(msg.sender).isContract */\n      0xffffffffffffffffffffffffffffffffffffffff\n      and\n      tag_66\n        /* \"contracts/Staking.sol\":2573:2605  address(msg.sender).isContract() */\n      jump\t// in\n    tag_165:\n        /* \"contracts/Staking.sol\":2572:2605  !address(msg.sender).isContract() */\n      iszero\n        /* \"contracts/Staking.sol\":2564:2630  require(!address(msg.sender).isContract(), \"Contract not allowed\") */\n      tag_166\n      jumpi\n      mload(0x40)\n      0x08c379a000000000000000000000000000000000000000000000000000000000\n      dup2\n      mstore\n      0x04\n      add\n      tag_167\n      swap1\n      tag_69\n      jump\t// in\n    tag_167:\n      mload(0x40)\n      dup1\n      swap2\n      sub\n      swap1\n      revert\n    tag_166:\n        /* \"contracts/Staking.sol\":2663:2672  tx.origin */\n      origin\n        /* \"contracts/Staking.sol\":2649:2672  msg.sender == tx.origin */\n      0xffffffffffffffffffffffffffffffffffffffff\n      and\n        /* \"contracts/Staking.sol\":2649:2659  msg.sender */\n      caller\n        /* \"contracts/Staking.sol\":2649:2672  msg.sender == tx.origin */\n      0xffffffffffffffffffffffffffffffffffffffff\n      and\n      eq\n        /* \"contracts/Staking.sol\":2641:2703  require(msg.sender == tx.origin, \"Proxy contract not allowed\") */\n      tag_168\n      jumpi\n      mload(0x40)\n      0x08c379a000000000000000000000000000000000000000000000000000000000\n      dup2\n      mstore\n      0x04\n      add\n      tag_169\n      swap1\n      tag_72\n      jump\t// in\n    tag_169:\n      mload(0x40)\n      dup1\n      swap2\n      sub\n      swap1\n      revert\n    tag_168:\n        /* \"@openzeppelin/contracts/security/ReentrancyGuard.sol\":1744:1745  2 */\n      0x02\n        /* \"@openzeppelin/contracts/security/ReentrancyGuard.sol\":2325:2332  _status */\n      sload(0x01)\n        /* \"@openzeppelin/contracts/security/ReentrancyGuard.sol\":2325:2344  _status != _ENTERED */\n      sub\n        /* \"@openzeppelin/contracts/security/ReentrancyGuard.sol\":2317:2380  require(_status != _ENTERED, \"ReentrancyGuard: reentrant call\") */\n      tag_171\n      jumpi\n      mload(0x40)\n      0x08c379a000000000000000000000000000000000000000000000000000000000\n      dup2\n      mstore\n      0x04\n      add\n      tag_172\n      swap1\n      tag_121\n      jump\t// in\n    tag_172:\n      mload(0x40)\n      dup1\n      swap2\n      sub\n      swap1\n      revert\n    tag_171:\n        /* \"@openzeppelin/contracts/security/ReentrancyGuard.sol\":1744:1745  2 */\n      0x02\n        /* \"@openzeppelin/contracts/security/ReentrancyGuard.sol\":2455:2462  _status */\n      0x01\n        /* \"@openzeppelin/contracts/security/ReentrancyGuard.sol\":2455:2473  _status = _ENTERED */\n      dup2\n      swap1\n      sstore\n      pop\n        /* \"contracts/Staking.sol\":4388:4389  0 */\n      0x00\n        /* \"contracts/Staking.sol\":4369:4378  _tokenIds */\n      dup4\n      dup4\n        /* \"contracts/Staking.sol\":4369:4385  _tokenIds.length */\n      swap1\n      pop\n        /* \"contracts/Staking.sol\":4369:4389  _tokenIds.length > 0 */\n      gt\n        /* \"contracts/Staking.sol\":4361:4403  require(_tokenIds.length > 0, \"No tokens\") */\n      tag_174\n      jumpi\n      mload(0x40)\n      0x08c379a000000000000000000000000000000000000000000000000000000000\n      dup2\n      mstore\n      0x04\n      add\n      tag_175\n      swap1\n      tag_76\n      jump\t// in\n    tag_175:\n      mload(0x40)\n      dup1\n      swap2\n      sub\n      swap1\n      revert\n    tag_174:\n        /* \"contracts/Staking.sol\":4421:4430  uint256 i */\n      0x00\n        /* \"contracts/Staking.sol\":4416:5263  for (uint256 i = 0; i < _tokenIds.length; i++) {... */\n    tag_176:\n        /* \"contracts/Staking.sol\":4440:4449  _tokenIds */\n      dup4\n      dup4\n        /* \"contracts/Staking.sol\":4440:4456  _tokenIds.length */\n      swap1\n      pop\n        /* \"contracts/Staking.sol\":4436:4437  i */\n      dup2\n        /* \"contracts/Staking.sol\":4436:4456  i < _tokenIds.length */\n      lt\n        /* \"contracts/Staking.sol\":4416:5263  for (uint256 i = 0; i < _tokenIds.length; i++) {... */\n      iszero\n      tag_177\n      jumpi\n        /* \"contracts/Staking.sol\":4478:4498  LockInfo memory info */\n      0x00\n        /* \"contracts/Staking.sol\":4501:4509  lockInfo */\n      0x03\n        /* \"contracts/Staking.sol\":4501:4530  lockInfo[IERC721(nftAddress)] */\n      0x00\n        /* \"contracts/Staking.sol\":4518:4528  nftAddress */\n      dup5\n        /* \"contracts/Staking.sol\":4501:4530  lockInfo[IERC721(nftAddress)] */\n      0xffffffffffffffffffffffffffffffffffffffff\n      and\n      0xffffffffffffffffffffffffffffffffffffffff\n      and\n      dup2\n      mstore\n      0x20\n      add\n      swap1\n      dup2\n      mstore\n      0x20\n      add\n      0x00\n      keccak256\n        /* \"contracts/Staking.sol\":4501:4544  lockInfo[IERC721(nftAddress)][_tokenIds[i]] */\n      0x00\n        /* \"contracts/Staking.sol\":4531:4540  _tokenIds */\n      dup7\n      dup7\n        /* \"contracts/Staking.sol\":4541:4542  i */\n      dup6\n        /* \"contracts/Staking.sol\":4531:4543  _tokenIds[i] */\n      dup2\n      dup2\n      lt\n      tag_179\n      jumpi\n      tag_180\n      tag_82\n      jump\t// in\n    tag_180:\n    tag_179:\n      swap1\n      pop\n      0x20\n      mul\n      add\n      calldataload\n        /* \"contracts/Staking.sol\":4501:4544  lockInfo[IERC721(nftAddress)][_tokenIds[i]] */\n      dup2\n      mstore\n      0x20\n      add\n      swap1\n      dup2\n      mstore\n      0x20\n      add\n      0x00\n      keccak256\n        /* \"contracts/Staking.sol\":4478:4544  LockInfo memory info = lockInfo[IERC721(nftAddress)][_tokenIds[i]] */\n      mload(0x40)\n      dup1\n      0xa0\n      add\n      0x40\n      mstore\n      swap1\n      dup2\n      0x00\n      dup3\n      add\n      0x00\n      swap1\n      sload\n      swap1\n      0x0100\n      exp\n      swap1\n      div\n      0xffffffffffffffffffffffffffffffffffffffff\n      and\n      0xffffffffffffffffffffffffffffffffffffffff\n      and\n      0xffffffffffffffffffffffffffffffffffffffff\n      and\n      dup2\n      mstore\n      0x20\n      add\n      0x01\n      dup3\n      add\n      sload\n      dup2\n      mstore\n      0x20\n      add\n      0x02\n      dup3\n      add\n      sload\n      dup2\n      mstore\n      0x20\n      add\n      0x03\n      dup3\n      add\n      0x00\n      swap1\n      sload\n      swap1\n      0x0100\n      exp\n      swap1\n      div\n      0xff\n      and\n      iszero\n      iszero\n      iszero\n      iszero\n      dup2\n      mstore\n      0x20\n      add\n      0x03\n      dup3\n      add\n      0x01\n      swap1\n      sload\n      swap1\n      0x0100\n      exp\n      swap1\n      div\n      0xffffffffffffffffffffffffffffffffffffffff\n      and\n      0xffffffffffffffffffffffffffffffffffffffff\n      and\n      0xffffffffffffffffffffffffffffffffffffffff\n      and\n      dup2\n      mstore\n      pop\n      pop\n      swap1\n      pop\n        /* \"contracts/Staking.sol\":4581:4591  msg.sender */\n      caller\n        /* \"contracts/Staking.sol\":4567:4591  info.owner == msg.sender */\n      0xffffffffffffffffffffffffffffffffffffffff\n      and\n        /* \"contracts/Staking.sol\":4567:4571  info */\n      dup2\n        /* \"contracts/Staking.sol\":4567:4577  info.owner */\n      0x00\n      add\n      mload\n        /* \"contracts/Staking.sol\":4567:4591  info.owner == msg.sender */\n      0xffffffffffffffffffffffffffffffffffffffff\n      and\n      eq\n        /* \"contracts/Staking.sol\":4559:4613  require(info.owner == msg.sender, \"Not a token owner\") */\n      tag_181\n      jumpi\n      mload(0x40)\n      0x08c379a000000000000000000000000000000000000000000000000000000000\n      dup2\n      mstore\n      0x04\n      add\n      tag_182\n      swap1\n      tag_85\n      jump\t// in\n    tag_182:\n      mload(0x40)\n      dup1\n      swap2\n      sub\n      swap1\n      revert\n    tag_181:\n        /* \"contracts/Staking.sol\":4667:4682  block.timestamp */\n      timestamp\n        /* \"contracts/Staking.sol\":4654:4664  lockPeriod */\n      sload(0x02)\n        /* \"contracts/Staking.sol\":4636:4640  info */\n      dup3\n        /* \"contracts/Staking.sol\":4636:4651  info.lockedTime */\n      0x20\n      add\n      mload\n        /* \"contracts/Staking.sol\":4636:4664  info.lockedTime + lockPeriod */\n      tag_183\n      swap2\n      swap1\n      tag_87\n      jump\t// in\n    tag_183:\n        /* \"contracts/Staking.sol\":4636:4682  info.lockedTime + lockPeriod < block.timestamp */\n      lt\n        /* \"contracts/Staking.sol\":4628:4709  require(info.lockedTime + lockPeriod < block.timestamp, \"Not able to unlock yet\") */\n      tag_184\n      jumpi\n      mload(0x40)\n      0x08c379a000000000000000000000000000000000000000000000000000000000\n      dup2\n      mstore\n      0x04\n      add\n      tag_185\n      swap1\n      tag_186\n      jump\t// in\n    tag_185:\n      mload(0x40)\n      dup1\n      swap2\n      sub\n      swap1\n      revert\n    tag_184:\n        /* \"contracts/Staking.sol\":4733:4737  info */\n      dup1\n        /* \"contracts/Staking.sol\":4733:4748  info.isUnlocked */\n      0x60\n      add\n      mload\n        /* \"contracts/Staking.sol\":4732:4748  !info.isUnlocked */\n      iszero\n        /* \"contracts/Staking.sol\":4724:4769  require(!info.isUnlocked, \"Already unlocked\") */\n      tag_187\n      jumpi\n      mload(0x40)\n      0x08c379a000000000000000000000000000000000000000000000000000000000\n      dup2\n      mstore\n      0x04\n      add\n      tag_188\n      swap1\n      tag_93\n      jump\t// in\n    tag_188:\n      mload(0x40)\n      dup1\n      swap2\n      sub\n      swap1\n      revert\n    tag_187:\n        /* \"contracts/Staking.sol\":4786:4796  nftAddress */\n      dup3\n        /* \"contracts/Staking.sol\":4786:4809  nftAddress.transferFrom */\n      0xffffffffffffffffffffffffffffffffffffffff\n      and\n      0x23b872dd\n        /* \"contracts/Staking.sol\":4818:4822  this */\n      address\n        /* \"contracts/Staking.sol\":4825:4835  msg.sender */\n      caller\n        /* \"contracts/Staking.sol\":4837:4846  _tokenIds */\n      dup9\n      dup9\n        /* \"contracts/Staking.sol\":4847:4848  i */\n      dup8\n        /* \"contracts/Staking.sol\":4837:4849  _tokenIds[i] */\n      dup2\n      dup2\n      lt\n      tag_189\n      jumpi\n      tag_190\n      tag_82\n      jump\t// in\n    tag_190:\n    tag_189:\n      swap1\n      pop\n      0x20\n      mul\n      add\n      calldataload\n        /* \"contracts/Staking.sol\":4786:4850  nftAddress.transferFrom(address(this), msg.sender, _tokenIds[i]) */\n      mload(0x40)\n      dup5\n      0xffffffff\n      and\n      0xe0\n      shl\n      dup2\n      mstore\n      0x04\n      add\n      tag_191\n      swap4\n      swap3\n      swap2\n      swap1\n      tag_141\n      jump\t// in\n    tag_191:\n      0x00\n      mload(0x40)\n      dup1\n      dup4\n      sub\n      dup2\n      0x00\n      dup8\n      dup1\n      extcodesize\n      iszero\n      dup1\n      iszero\n      tag_192\n      jumpi\n      0x00\n      dup1\n      revert\n    tag_192:\n      pop\n      gas\n      call\n      iszero\n      dup1\n      iszero\n      tag_194\n      jumpi\n      returndatasize\n      0x00\n      dup1\n      returndatacopy\n      revert(0x00, returndatasize)\n    tag_194:\n      pop\n      pop\n      pop\n      pop\n        /* \"contracts/Staking.sol\":4867:4886  uint256 totalAmount */\n      0x00\n        /* \"contracts/Staking.sol\":4889:4928  _rewardAmount(_tokenIds[i], nftAddress) */\n      tag_195\n        /* \"contracts/Staking.sol\":4903:4912  _tokenIds */\n      dup7\n      dup7\n        /* \"contracts/Staking.sol\":4913:4914  i */\n      dup6\n        /* \"contracts/Staking.sol\":4903:4915  _tokenIds[i] */\n      dup2\n      dup2\n      lt\n      tag_196\n      jumpi\n      tag_197\n      tag_82\n      jump\t// in\n    tag_197:\n    tag_196:\n      swap1\n      pop\n      0x20\n      mul\n      add\n      calldataload\n        /* \"contracts/Staking.sol\":4917:4927  nftAddress */\n      dup6\n        /* \"contracts/Staking.sol\":4889:4902  _rewardAmount */\n      tag_97\n        /* \"contracts/Staking.sol\":4889:4928  _rewardAmount(_tokenIds[i], nftAddress) */\n      jump\t// in\n    tag_195:\n        /* \"contracts/Staking.sol\":4867:4928  uint256 totalAmount = _rewardAmount(_tokenIds[i], nftAddress) */\n      swap1\n      pop\n        /* \"contracts/Staking.sol\":4943:4967  uint256 unclaminedAmount */\n      0x00\n        /* \"contracts/Staking.sol\":4984:4988  info */\n      dup3\n        /* \"contracts/Staking.sol\":4984:5003  info.claimedRewards */\n      0x40\n      add\n      mload\n        /* \"contracts/Staking.sol\":4970:4981  totalAmount */\n      dup3\n        /* \"contracts/Staking.sol\":4970:5003  totalAmount - info.claimedRewards */\n      tag_198\n      swap2\n      swap1\n      tag_99\n      jump\t// in\n    tag_198:\n        /* \"contracts/Staking.sol\":4943:5003  uint256 unclaminedAmount = totalAmount - info.claimedRewards */\n      swap1\n      pop\n        /* \"contracts/Staking.sol\":5019:5026  nftInfo */\n      0x04\n        /* \"contracts/Staking.sol\":5019:5038  nftInfo[nftAddress] */\n      0x00\n        /* \"contracts/Staking.sol\":5027:5037  nftAddress */\n      dup7\n        /* \"contracts/Staking.sol\":5019:5038  nftInfo[nftAddress] */\n      0xffffffffffffffffffffffffffffffffffffffff\n      and\n      0xffffffffffffffffffffffffffffffffffffffff\n      and\n      dup2\n      mstore\n      0x20\n      add\n      swap1\n      dup2\n      mstore\n      0x20\n      add\n      0x00\n      keccak256\n        /* \"contracts/Staking.sol\":5019:5051  nftInfo[nftAddress].rewardsToken */\n      0x00\n      add\n      0x00\n      swap1\n      sload\n      swap1\n      0x0100\n      exp\n      swap1\n      div\n      0xffffffffffffffffffffffffffffffffffffffff\n      and\n        /* \"contracts/Staking.sol\":5019:5056  nftInfo[nftAddress].rewardsToken.mint */\n      0xffffffffffffffffffffffffffffffffffffffff\n      and\n      0x40c10f19\n        /* \"contracts/Staking.sol\":5057:5067  msg.sender */\n      caller\n        /* \"contracts/Staking.sol\":5069:5085  unclaminedAmount */\n      dup4\n        /* \"contracts/Staking.sol\":5019:5086  nftInfo[nftAddress].rewardsToken.mint(msg.sender, unclaminedAmount) */\n      mload(0x40)\n      dup4\n      0xffffffff\n      and\n      0xe0\n      shl\n      dup2\n      mstore\n      0x04\n      add\n      tag_199\n      swap3\n      swap2\n      swap1\n      tag_101\n      jump\t// in\n    tag_199:\n      0x00\n      mload(0x40)\n      dup1\n      dup4\n      sub\n      dup2\n      0x00\n      dup8\n      dup1\n      extcodesize\n      iszero\n      dup1\n      iszero\n      tag_200\n      jumpi\n      0x00\n      dup1\n      revert\n    tag_200:\n      pop\n      gas\n      call\n      iszero\n      dup1\n      iszero\n      tag_202\n      jumpi\n      returndatasize\n      0x00\n      dup1\n      returndatacopy\n      revert(0x00, returndatasize)\n    tag_202:\n      pop\n      pop\n      pop\n      pop\n        /* \"contracts/Staking.sol\":5164:5175  totalAmount */\n      dup2\n        /* \"contracts/Staking.sol\":5103:5111  lockInfo */\n      0x03\n        /* \"contracts/Staking.sol\":5103:5132  lockInfo[IERC721(nftAddress)] */\n      0x00\n        /* \"contracts/Staking.sol\":5120:5130  nftAddress */\n      dup8\n        /* \"contracts/Staking.sol\":5103:5132  lockInfo[IERC721(nftAddress)] */\n      0xffffffffffffffffffffffffffffffffffffffff\n      and\n      0xffffffffffffffffffffffffffffffffffffffff\n      and\n      dup2\n      mstore\n      0x20\n      add\n      swap1\n      dup2\n      mstore\n      0x20\n      add\n      0x00\n      keccak256\n        /* \"contracts/Staking.sol\":5103:5146  lockInfo[IERC721(nftAddress)][_tokenIds[i]] */\n      0x00\n        /* \"contracts/Staking.sol\":5133:5142  _tokenIds */\n      dup10\n      dup10\n        /* \"contracts/Staking.sol\":5143:5144  i */\n      dup9\n        /* \"contracts/Staking.sol\":5133:5145  _tokenIds[i] */\n      dup2\n      dup2\n      lt\n      tag_203\n      jumpi\n      tag_204\n      tag_82\n      jump\t// in\n    tag_204:\n    tag_203:\n      swap1\n      pop\n      0x20\n      mul\n      add\n      calldataload\n        /* \"contracts/Staking.sol\":5103:5146  lockInfo[IERC721(nftAddress)][_tokenIds[i]] */\n      dup2\n      mstore\n      0x20\n      add\n      swap1\n      dup2\n      mstore\n      0x20\n      add\n      0x00\n      keccak256\n        /* \"contracts/Staking.sol\":5103:5161  lockInfo[IERC721(nftAddress)][_tokenIds[i]].claimedRewards */\n      0x02\n      add\n        /* \"contracts/Staking.sol\":5103:5175  lockInfo[IERC721(nftAddress)][_tokenIds[i]].claimedRewards = totalAmount */\n      dup2\n      swap1\n      sstore\n      pop\n        /* \"contracts/Staking.sol\":5247:5251  true */\n      0x01\n        /* \"contracts/Staking.sol\":5190:5198  lockInfo */\n      0x03\n        /* \"contracts/Staking.sol\":5190:5219  lockInfo[IERC721(nftAddress)] */\n      0x00\n        /* \"contracts/Staking.sol\":5207:5217  nftAddress */\n      dup8\n        /* \"contracts/Staking.sol\":5190:5219  lockInfo[IERC721(nftAddress)] */\n      0xffffffffffffffffffffffffffffffffffffffff\n      and\n      0xffffffffffffffffffffffffffffffffffffffff\n      and\n      dup2\n      mstore\n      0x20\n      add\n      swap1\n      dup2\n      mstore\n      0x20\n      add\n      0x00\n      keccak256\n        /* \"contracts/Staking.sol\":5190:5233  lockInfo[IERC721(nftAddress)][_tokenIds[i]] */\n      0x00\n        /* \"contracts/Staking.sol\":5220:5229  _tokenIds */\n      dup10\n      dup10\n        /* \"contracts/Staking.sol\":5230:5231  i */\n      dup9\n        /* \"contracts/Staking.sol\":5220:5232  _tokenIds[i] */\n      dup2\n      dup2\n      lt\n      tag_205\n      jumpi\n      tag_206\n      tag_82\n      jump\t// in\n    tag_206:\n    tag_205:\n      swap1\n      pop\n      0x20\n      mul\n      add\n      calldataload\n        /* \"contracts/Staking.sol\":5190:5233  lockInfo[IERC721(nftAddress)][_tokenIds[i]] */\n      dup2\n      mstore\n      0x20\n      add\n      swap1\n      dup2\n      mstore\n      0x20\n      add\n      0x00\n      keccak256\n        /* \"contracts/Staking.sol\":5190:5244  lockInfo[IERC721(nftAddress)][_tokenIds[i]].isUnlocked */\n      0x03\n      add\n      0x00\n        /* \"contracts/Staking.sol\":5190:5251  lockInfo[IERC721(nftAddress)][_tokenIds[i]].isUnlocked = true */\n      0x0100\n      exp\n      dup2\n      sload\n      dup2\n      0xff\n      mul\n      not\n      and\n      swap1\n      dup4\n      iszero\n      iszero\n      mul\n      or\n      swap1\n      sstore\n      pop\n        /* \"contracts/Staking.sol\":4463:5263  {... */\n      pop\n      pop\n      pop\n        /* \"contracts/Staking.sol\":4458:4461  i++ */\n      dup1\n      dup1\n      tag_207\n      swap1\n      tag_109\n      jump\t// in\n    tag_207:\n      swap2\n      pop\n      pop\n        /* \"contracts/Staking.sol\":4416:5263  for (uint256 i = 0; i < _tokenIds.length; i++) {... */\n      jump(tag_176)\n    tag_177:\n      pop\n        /* \"contracts/Staking.sol\":5292:5302  msg.sender */\n      caller\n        /* \"contracts/Staking.sol\":5280:5314  NFTUnLocked(msg.sender, _tokenIds) */\n      0xffffffffffffffffffffffffffffffffffffffff\n      and\n      0x5cb48022479b9ac3bfb10a27965dc010acffc9fc1bc9a52f0b18975b944b54ca\n        /* \"contracts/Staking.sol\":5304:5313  _tokenIds */\n      dup5\n      dup5\n        /* \"contracts/Staking.sol\":5280:5314  NFTUnLocked(msg.sender, _tokenIds) */\n      mload(0x40)\n      tag_208\n      swap3\n      swap2\n      swap1\n      tag_149\n      jump\t// in\n    tag_208:\n      mload(0x40)\n      dup1\n      swap2\n      sub\n      swap1\n      log2\n        /* \"@openzeppelin/contracts/security/ReentrancyGuard.sol\":1701:1702  1 */\n      0x01\n        /* \"@openzeppelin/contracts/security/ReentrancyGuard.sol\":2628:2635  _status */\n      dup1\n        /* \"@openzeppelin/contracts/security/ReentrancyGuard.sol\":2628:2650  _status = _NOT_ENTERED */\n      dup2\n      swap1\n      sstore\n      pop\n        /* \"contracts/Staking.sol\":4247:5322  function unlockNFT(uint256[] calldata _tokenIds, IERC721 nftAddress) external notContract nonReentrant {... */\n      pop\n      pop\n      pop\n      jump\t// out\n        /* \"contracts/Staking.sol\":767:831  mapping(IERC721 => mapping(uint256 => LockInfo)) public lockInfo */\n    tag_43:\n      mstore(0x20, 0x03)\n      dup2\n      0x00\n      mstore\n      mstore(0x20, keccak256(0x00, 0x40))\n      dup1\n      0x00\n      mstore\n      keccak256(0x00, 0x40)\n      0x00\n      swap2\n      pop\n      swap2\n      pop\n      pop\n      dup1\n      0x00\n      add\n      0x00\n      swap1\n      sload\n      swap1\n      0x0100\n      exp\n      swap1\n      div\n      0xffffffffffffffffffffffffffffffffffffffff\n      and\n      swap1\n      dup1\n      0x01\n      add\n      sload\n      swap1\n      dup1\n      0x02\n      add\n      sload\n      swap1\n      dup1\n      0x03\n      add\n      0x00\n      swap1\n      sload\n      swap1\n      0x0100\n      exp\n      swap1\n      div\n      0xff\n      and\n      swap1\n      dup1\n      0x03\n      add\n      0x01\n      swap1\n      sload\n      swap1\n      0x0100\n      exp\n      swap1\n      div\n      0xffffffffffffffffffffffffffffffffffffffff\n      and\n      swap1\n      pop\n      dup6\n      jump\t// out\n        /* \"contracts/Staking.sol\":3228:3402  function claimedRewards(uint256 _tokenId, IERC721 nftAddress) external view returns (uint256) {... */\n    tag_49:\n        /* \"contracts/Staking.sol\":3313:3320  uint256 */\n      0x00\n        /* \"contracts/Staking.sol\":3340:3348  lockInfo */\n      0x03\n        /* \"contracts/Staking.sol\":3340:3369  lockInfo[IERC721(nftAddress)] */\n      0x00\n        /* \"contracts/Staking.sol\":3357:3367  nftAddress */\n      dup4\n        /* \"contracts/Staking.sol\":3340:3369  lockInfo[IERC721(nftAddress)] */\n      0xffffffffffffffffffffffffffffffffffffffff\n      and\n      0xffffffffffffffffffffffffffffffffffffffff\n      and\n      dup2\n      mstore\n      0x20\n      add\n      swap1\n      dup2\n      mstore\n      0x20\n      add\n      0x00\n      keccak256\n        /* \"contracts/Staking.sol\":3340:3379  lockInfo[IERC721(nftAddress)][_tokenId] */\n      0x00\n        /* \"contracts/Staking.sol\":3370:3378  _tokenId */\n      dup5\n        /* \"contracts/Staking.sol\":3340:3379  lockInfo[IERC721(nftAddress)][_tokenId] */\n      dup2\n      mstore\n      0x20\n      add\n      swap1\n      dup2\n      mstore\n      0x20\n      add\n      0x00\n      keccak256\n        /* \"contracts/Staking.sol\":3340:3394  lockInfo[IERC721(nftAddress)][_tokenId].claimedRewards */\n      0x02\n      add\n      sload\n        /* \"contracts/Staking.sol\":3333:3394  return lockInfo[IERC721(nftAddress)][_tokenId].claimedRewards */\n      swap1\n      pop\n        /* \"contracts/Staking.sol\":3228:3402  function claimedRewards(uint256 _tokenId, IERC721 nftAddress) external view returns (uint256) {... */\n      swap3\n      swap2\n      pop\n      pop\n      jump\t// out\n        /* \"contracts/Staking.sol\":1096:1115  uint256 public WAVE */\n    tag_52:\n      sload(0x05)\n      dup2\n      jump\t// out\n        /* \"contracts/Staking.sol\":1013:1060  mapping(IERC721 => stakeNftInfo) public nftInfo */\n    tag_57:\n      mstore(0x20, 0x04)\n      dup1\n      0x00\n      mstore\n      keccak256(0x00, 0x40)\n      0x00\n      swap2\n      pop\n      swap1\n      pop\n      dup1\n      0x00\n      add\n      0x00\n      swap1\n      sload\n      swap1\n      0x0100\n      exp\n      swap1\n      div\n      0xffffffffffffffffffffffffffffffffffffffff\n      and\n      swap1\n      dup1\n      0x01\n      add\n      sload\n      swap1\n      dup1\n      0x02\n      add\n      sload\n      swap1\n      pop\n      dup4\n      jump\t// out\n        /* \"@openzeppelin/contracts/access/Ownable.sol\":2081:2279  function transferOwnership(address newOwner) public virtual onlyOwner {... */\n    tag_63:\n        /* \"@openzeppelin/contracts/access/Ownable.sol\":1094:1107  _checkOwner() */\n      tag_211\n        /* \"@openzeppelin/contracts/access/Ownable.sol\":1094:1105  _checkOwner */\n      tag_152\n        /* \"@openzeppelin/contracts/access/Ownable.sol\":1094:1107  _checkOwner() */\n      jump\t// in\n    tag_211:\n        /* \"@openzeppelin/contracts/access/Ownable.sol\":2189:2190  0 */\n      0x00\n        /* \"@openzeppelin/contracts/access/Ownable.sol\":2169:2191  newOwner != address(0) */\n      0xffffffffffffffffffffffffffffffffffffffff\n      and\n        /* \"@openzeppelin/contracts/access/Ownable.sol\":2169:2177  newOwner */\n      dup2\n        /* \"@openzeppelin/contracts/access/Ownable.sol\":2169:2191  newOwner != address(0) */\n      0xffffffffffffffffffffffffffffffffffffffff\n      and\n      sub\n        /* \"@openzeppelin/contracts/access/Ownable.sol\":2161:2234  require(newOwner != address(0), \"Ownable: new owner is the zero address\") */\n      tag_213\n      jumpi\n      mload(0x40)\n      0x08c379a000000000000000000000000000000000000000000000000000000000\n      dup2\n      mstore\n      0x04\n      add\n      tag_214\n      swap1\n      tag_215\n      jump\t// in\n    tag_214:\n      mload(0x40)\n      dup1\n      swap2\n      sub\n      swap1\n      revert\n    tag_213:\n        /* \"@openzeppelin/contracts/access/Ownable.sol\":2244:2272  _transferOwnership(newOwner) */\n      tag_216\n        /* \"@openzeppelin/contracts/access/Ownable.sol\":2263:2271  newOwner */\n      dup2\n        /* \"@openzeppelin/contracts/access/Ownable.sol\":2244:2262  _transferOwnership */\n      tag_155\n        /* \"@openzeppelin/contracts/access/Ownable.sol\":2244:2272  _transferOwnership(newOwner) */\n      jump\t// in\n    tag_216:\n        /* \"@openzeppelin/contracts/access/Ownable.sol\":2081:2279  function transferOwnership(address newOwner) public virtual onlyOwner {... */\n      pop\n      jump\t// out\n        /* \"@openzeppelin/contracts/utils/Address.sol\":1175:1495  function isContract(address account) internal view returns (bool) {... */\n    tag_66:\n        /* \"@openzeppelin/contracts/utils/Address.sol\":1235:1239  bool */\n      0x00\n        /* \"@openzeppelin/contracts/utils/Address.sol\":1487:1488  0 */\n      dup1\n        /* \"@openzeppelin/contracts/utils/Address.sol\":1465:1472  account */\n      dup3\n        /* \"@openzeppelin/contracts/utils/Address.sol\":1465:1484  account.code.length */\n      0xffffffffffffffffffffffffffffffffffffffff\n      and\n      extcodesize\n        /* \"@openzeppelin/contracts/utils/Address.sol\":1465:1488  account.code.length > 0 */\n      gt\n        /* \"@openzeppelin/contracts/utils/Address.sol\":1458:1488  return account.code.length > 0 */\n      swap1\n      pop\n        /* \"@openzeppelin/contracts/utils/Address.sol\":1175:1495  function isContract(address account) internal view returns (bool) {... */\n      swap2\n      swap1\n      pop\n      jump\t// out\n        /* \"contracts/Staking.sol\":6483:6995  function _rewardAmount(uint256 _tokenId, IERC721 nftAddress) internal view returns (uint256) {... */\n    tag_97:\n        /* \"contracts/Staking.sol\":6567:6574  uint256 */\n      0x00\n        /* \"contracts/Staking.sol\":6587:6607  LockInfo memory info */\n      dup1\n        /* \"contracts/Staking.sol\":6610:6618  lockInfo */\n      0x03\n        /* \"contracts/Staking.sol\":6610:6639  lockInfo[IERC721(nftAddress)] */\n      0x00\n        /* \"contracts/Staking.sol\":6627:6637  nftAddress */\n      dup5\n        /* \"contracts/Staking.sol\":6610:6639  lockInfo[IERC721(nftAddress)] */\n      0xffffffffffffffffffffffffffffffffffffffff\n      and\n      0xffffffffffffffffffffffffffffffffffffffff\n      and\n      dup2\n      mstore\n      0x20\n      add\n      swap1\n      dup2\n      mstore\n      0x20\n      add\n      0x00\n      keccak256\n        /* \"contracts/Staking.sol\":6610:6649  lockInfo[IERC721(nftAddress)][_tokenId] */\n      0x00\n        /* \"contracts/Staking.sol\":6640:6648  _tokenId */\n      dup6\n        /* \"contracts/Staking.sol\":6610:6649  lockInfo[IERC721(nftAddress)][_tokenId] */\n      dup2\n      mstore\n      0x20\n      add\n      swap1\n      dup2\n      mstore\n      0x20\n      add\n      0x00\n      keccak256\n        /* \"contracts/Staking.sol\":6587:6649  LockInfo memory info = lockInfo[IERC721(nftAddress)][_tokenId] */\n      mload(0x40)\n      dup1\n      0xa0\n      add\n      0x40\n      mstore\n      swap1\n      dup2\n      0x00\n      dup3\n      add\n      0x00\n      swap1\n      sload\n      swap1\n      0x0100\n      exp\n      swap1\n      div\n      0xffffffffffffffffffffffffffffffffffffffff\n      and\n      0xffffffffffffffffffffffffffffffffffffffff\n      and\n      0xffffffffffffffffffffffffffffffffffffffff\n      and\n      dup2\n      mstore\n      0x20\n      add\n      0x01\n      dup3\n      add\n      sload\n      dup2\n      mstore\n      0x20\n      add\n      0x02\n      dup3\n      add\n      sload\n      dup2\n      mstore\n      0x20\n      add\n      0x03\n      dup3\n      add\n      0x00\n      swap1\n      sload\n      swap1\n      0x0100\n      exp\n      swap1\n      div\n      0xff\n      and\n      iszero\n      iszero\n      iszero\n      iszero\n      dup2\n      mstore\n      0x20\n      add\n      0x03\n      dup3\n      add\n      0x01\n      swap1\n      sload\n      swap1\n      0x0100\n      exp\n      swap1\n      div\n      0xffffffffffffffffffffffffffffffffffffffff\n      and\n      0xffffffffffffffffffffffffffffffffffffffff\n      and\n      0xffffffffffffffffffffffffffffffffffffffff\n      and\n      dup2\n      mstore\n      pop\n      pop\n      swap1\n      pop\n        /* \"contracts/Staking.sol\":6660:6683  uint256 stakingDuration */\n      0x00\n        /* \"contracts/Staking.sol\":6704:6708  info */\n      dup2\n        /* \"contracts/Staking.sol\":6704:6719  info.lockedTime */\n      0x20\n      add\n      mload\n        /* \"contracts/Staking.sol\":6686:6701  block.timestamp */\n      timestamp\n        /* \"contracts/Staking.sol\":6686:6719  block.timestamp - info.lockedTime */\n      tag_219\n      swap2\n      swap1\n      tag_99\n      jump\t// in\n    tag_219:\n        /* \"contracts/Staking.sol\":6660:6719  uint256 stakingDuration = block.timestamp - info.lockedTime */\n      swap1\n      pop\n        /* \"contracts/Staking.sol\":6730:6749  uint256 totalAmount */\n      0x00\n        /* \"contracts/Staking.sol\":6784:6794  lockPeriod */\n      sload(0x02)\n        /* \"contracts/Staking.sol\":6766:6781  stakingDuration */\n      dup3\n        /* \"contracts/Staking.sol\":6766:6794  stakingDuration < lockPeriod */\n      lt\n        /* \"contracts/Staking.sol\":6762:6988  if (stakingDuration < lockPeriod) {... */\n      iszero\n      tag_220\n      jumpi\n        /* \"contracts/Staking.sol\":6818:6819  0 */\n      0x00\n        /* \"contracts/Staking.sol\":6811:6819  return 0 */\n      swap4\n      pop\n      pop\n      pop\n      pop\n      jump(tag_218)\n        /* \"contracts/Staking.sol\":6762:6988  if (stakingDuration < lockPeriod) {... */\n    tag_220:\n        /* \"contracts/Staking.sol\":6939:6943  WAVE */\n      sload(0x05)\n        /* \"contracts/Staking.sol\":6924:6934  lockPeriod */\n      sload(0x02)\n        /* \"contracts/Staking.sol\":6906:6921  stakingDuration */\n      dup4\n        /* \"contracts/Staking.sol\":6906:6934  stakingDuration - lockPeriod */\n      tag_222\n      swap2\n      swap1\n      tag_99\n      jump\t// in\n    tag_222:\n        /* \"contracts/Staking.sol\":6868:6875  nftInfo */\n      0x04\n        /* \"contracts/Staking.sol\":6868:6887  nftInfo[nftAddress] */\n      0x00\n        /* \"contracts/Staking.sol\":6876:6886  nftAddress */\n      dup9\n        /* \"contracts/Staking.sol\":6868:6887  nftInfo[nftAddress] */\n      0xffffffffffffffffffffffffffffffffffffffff\n      and\n      0xffffffffffffffffffffffffffffffffffffffff\n      and\n      dup2\n      mstore\n      0x20\n      add\n      swap1\n      dup2\n      mstore\n      0x20\n      add\n      0x00\n      keccak256\n        /* \"contracts/Staking.sol\":6868:6902  nftInfo[nftAddress].rewardsPerWave */\n      0x01\n      add\n      sload\n        /* \"contracts/Staking.sol\":6868:6935  nftInfo[nftAddress].rewardsPerWave * (stakingDuration - lockPeriod) */\n      tag_223\n      swap2\n      swap1\n      tag_224\n      jump\t// in\n    tag_223:\n        /* \"contracts/Staking.sol\":6866:6943  ( nftInfo[nftAddress].rewardsPerWave * (stakingDuration - lockPeriod)) / WAVE */\n      tag_225\n      swap2\n      swap1\n      tag_226\n      jump\t// in\n    tag_225:\n        /* \"contracts/Staking.sol\":6852:6943  totalAmount = ( nftInfo[nftAddress].rewardsPerWave * (stakingDuration - lockPeriod)) / WAVE */\n      swap1\n      pop\n        /* \"contracts/Staking.sol\":6965:6976  totalAmount */\n      dup1\n        /* \"contracts/Staking.sol\":6958:6976  return totalAmount */\n      swap4\n      pop\n      pop\n      pop\n      pop\n        /* \"contracts/Staking.sol\":6483:6995  function _rewardAmount(uint256 _tokenId, IERC721 nftAddress) internal view returns (uint256) {... */\n    tag_218:\n      swap3\n      swap2\n      pop\n      pop\n      jump\t// out\n        /* \"@openzeppelin/contracts/access/Ownable.sol\":1359:1489  function _checkOwner() internal view virtual {... */\n    tag_152:\n        /* \"@openzeppelin/contracts/access/Ownable.sol\":1433:1445  _msgSender() */\n      tag_228\n        /* \"@openzeppelin/contracts/access/Ownable.sol\":1433:1443  _msgSender */\n      tag_229\n        /* \"@openzeppelin/contracts/access/Ownable.sol\":1433:1445  _msgSender() */\n      jump\t// in\n    tag_228:\n        /* \"@openzeppelin/contracts/access/Ownable.sol\":1422:1445  owner() == _msgSender() */\n      0xffffffffffffffffffffffffffffffffffffffff\n      and\n        /* \"@openzeppelin/contracts/access/Ownable.sol\":1422:1429  owner() */\n      tag_230\n        /* \"@openzeppelin/contracts/access/Ownable.sol\":1422:1427  owner */\n      tag_34\n        /* \"@openzeppelin/contracts/access/Ownable.sol\":1422:1429  owner() */\n      jump\t// in\n    tag_230:\n        /* \"@openzeppelin/contracts/access/Ownable.sol\":1422:1445  owner() == _msgSender() */\n      0xffffffffffffffffffffffffffffffffffffffff\n      and\n      eq\n        /* \"@openzeppelin/contracts/access/Ownable.sol\":1414:1482  require(owner() == _msgSender(), \"Ownable: caller is not the owner\") */\n      tag_231\n      jumpi\n      mload(0x40)\n      0x08c379a000000000000000000000000000000000000000000000000000000000\n      dup2\n      mstore\n      0x04\n      add\n      tag_232\n      swap1\n      tag_233\n      jump\t// in\n    tag_232:\n      mload(0x40)\n      dup1\n      swap2\n      sub\n      swap1\n      revert\n    tag_231:\n        /* \"@openzeppelin/contracts/access/Ownable.sol\":1359:1489  function _checkOwner() internal view virtual {... */\n      jump\t// out\n        /* \"@openzeppelin/contracts/access/Ownable.sol\":2433:2620  function _transferOwnership(address newOwner) internal virtual {... */\n    tag_155:\n        /* \"@openzeppelin/contracts/access/Ownable.sol\":2506:2522  address oldOwner */\n      0x00\n        /* \"@openzeppelin/contracts/access/Ownable.sol\":2525:2531  _owner */\n      dup1\n      0x00\n      swap1\n      sload\n      swap1\n      0x0100\n      exp\n      swap1\n      div\n      0xffffffffffffffffffffffffffffffffffffffff\n      and\n        /* \"@openzeppelin/contracts/access/Ownable.sol\":2506:2531  address oldOwner = _owner */\n      swap1\n      pop\n        /* \"@openzeppelin/contracts/access/Ownable.sol\":2550:2558  newOwner */\n      dup2\n        /* \"@openzeppelin/contracts/access/Ownable.sol\":2541:2547  _owner */\n      0x00\n      dup1\n        /* \"@openzeppelin/contracts/access/Ownable.sol\":2541:2558  _owner = newOwner */\n      0x0100\n      exp\n      dup2\n      sload\n      dup2\n      0xffffffffffffffffffffffffffffffffffffffff\n      mul\n      not\n      and\n      swap1\n      dup4\n      0xffffffffffffffffffffffffffffffffffffffff\n      and\n      mul\n      or\n      swap1\n      sstore\n      pop\n        /* \"@openzeppelin/contracts/access/Ownable.sol\":2604:2612  newOwner */\n      dup2\n        /* \"@openzeppelin/contracts/access/Ownable.sol\":2573:2613  OwnershipTransferred(oldOwner, newOwner) */\n      0xffffffffffffffffffffffffffffffffffffffff\n      and\n        /* \"@openzeppelin/contracts/access/Ownable.sol\":2594:2602  oldOwner */\n      dup2\n        /* \"@openzeppelin/contracts/access/Ownable.sol\":2573:2613  OwnershipTransferred(oldOwner, newOwner) */\n      0xffffffffffffffffffffffffffffffffffffffff\n      and\n      0x8be0079c531659141344cd1fd0a4f28419497f9722a3daafe3b4186f6b6457e0\n      mload(0x40)\n      mload(0x40)\n      dup1\n      swap2\n      sub\n      swap1\n      log3\n        /* \"@openzeppelin/contracts/access/Ownable.sol\":2496:2620  {... */\n      pop\n        /* \"@openzeppelin/contracts/access/Ownable.sol\":2433:2620  function _transferOwnership(address newOwner) internal virtual {... */\n      pop\n      jump\t// out\n        /* \"@openzeppelin/contracts/utils/Context.sol\":640:736  function _msgSender() internal view virtual returns (address) {... */\n    tag_229:\n        /* \"@openzeppelin/contracts/utils/Context.sol\":693:700  address */\n      0x00\n        /* \"@openzeppelin/contracts/utils/Context.sol\":719:729  msg.sender */\n      caller\n        /* \"@openzeppelin/contracts/utils/Context.sol\":712:729  return msg.sender */\n      swap1\n      pop\n        /* \"@openzeppelin/contracts/utils/Context.sol\":640:736  function _msgSender() internal view virtual returns (address) {... */\n      swap1\n      jump\t// out\n        /* \"#utility.yul\":88:205   */\n    tag_237:\n        /* \"#utility.yul\":197:198   */\n      0x00\n        /* \"#utility.yul\":194:195   */\n      dup1\n        /* \"#utility.yul\":187:199   */\n      revert\n        /* \"#utility.yul\":211:328   */\n    tag_238:\n        /* \"#utility.yul\":320:321   */\n      0x00\n        /* \"#utility.yul\":317:318   */\n      dup1\n        /* \"#utility.yul\":310:322   */\n      revert\n        /* \"#utility.yul\":334:451   */\n    tag_239:\n        /* \"#utility.yul\":443:444   */\n      0x00\n        /* \"#utility.yul\":440:441   */\n      dup1\n        /* \"#utility.yul\":433:445   */\n      revert\n        /* \"#utility.yul\":457:574   */\n    tag_240:\n        /* \"#utility.yul\":566:567   */\n      0x00\n        /* \"#utility.yul\":563:564   */\n      dup1\n        /* \"#utility.yul\":556:568   */\n      revert\n        /* \"#utility.yul\":580:697   */\n    tag_241:\n        /* \"#utility.yul\":689:690   */\n      0x00\n        /* \"#utility.yul\":686:687   */\n      dup1\n        /* \"#utility.yul\":679:691   */\n      revert\n        /* \"#utility.yul\":720:1288   */\n    tag_242:\n        /* \"#utility.yul\":793:801   */\n      0x00\n        /* \"#utility.yul\":803:809   */\n      dup1\n        /* \"#utility.yul\":853:856   */\n      dup4\n        /* \"#utility.yul\":846:850   */\n      0x1f\n        /* \"#utility.yul\":838:844   */\n      dup5\n        /* \"#utility.yul\":834:851   */\n      add\n        /* \"#utility.yul\":830:857   */\n      slt\n        /* \"#utility.yul\":820:942   */\n      tag_304\n      jumpi\n        /* \"#utility.yul\":861:940   */\n      tag_305\n      tag_239\n      jump\t// in\n    tag_305:\n        /* \"#utility.yul\":820:942   */\n    tag_304:\n        /* \"#utility.yul\":974:980   */\n      dup3\n        /* \"#utility.yul\":961:981   */\n      calldataload\n        /* \"#utility.yul\":951:981   */\n      swap1\n      pop\n        /* \"#utility.yul\":1004:1022   */\n      0xffffffffffffffff\n        /* \"#utility.yul\":996:1002   */\n      dup2\n        /* \"#utility.yul\":993:1023   */\n      gt\n        /* \"#utility.yul\":990:1107   */\n      iszero\n      tag_306\n      jumpi\n        /* \"#utility.yul\":1026:1105   */\n      tag_307\n      tag_240\n      jump\t// in\n    tag_307:\n        /* \"#utility.yul\":990:1107   */\n    tag_306:\n        /* \"#utility.yul\":1140:1144   */\n      0x20\n        /* \"#utility.yul\":1132:1138   */\n      dup4\n        /* \"#utility.yul\":1128:1145   */\n      add\n        /* \"#utility.yul\":1116:1145   */\n      swap2\n      pop\n        /* \"#utility.yul\":1194:1197   */\n      dup4\n        /* \"#utility.yul\":1186:1190   */\n      0x20\n        /* \"#utility.yul\":1178:1184   */\n      dup3\n        /* \"#utility.yul\":1174:1191   */\n      mul\n        /* \"#utility.yul\":1164:1172   */\n      dup4\n        /* \"#utility.yul\":1160:1192   */\n      add\n        /* \"#utility.yul\":1157:1198   */\n      gt\n        /* \"#utility.yul\":1154:1282   */\n      iszero\n      tag_308\n      jumpi\n        /* \"#utility.yul\":1201:1280   */\n      tag_309\n      tag_241\n      jump\t// in\n    tag_309:\n        /* \"#utility.yul\":1154:1282   */\n    tag_308:\n        /* \"#utility.yul\":720:1288   */\n      swap3\n      pop\n      swap3\n      swap1\n      pop\n      jump\t// out\n        /* \"#utility.yul\":1294:1420   */\n    tag_243:\n        /* \"#utility.yul\":1331:1338   */\n      0x00\n        /* \"#utility.yul\":1371:1413   */\n      0xffffffffffffffffffffffffffffffffffffffff\n        /* \"#utility.yul\":1364:1369   */\n      dup3\n        /* \"#utility.yul\":1360:1414   */\n      and\n        /* \"#utility.yul\":1349:1414   */\n      swap1\n      pop\n        /* \"#utility.yul\":1294:1420   */\n      swap2\n      swap1\n      pop\n      jump\t// out\n        /* \"#utility.yul\":1426:1522   */\n    tag_244:\n        /* \"#utility.yul\":1463:1470   */\n      0x00\n        /* \"#utility.yul\":1492:1516   */\n      tag_312\n        /* \"#utility.yul\":1510:1515   */\n      dup3\n        /* \"#utility.yul\":1492:1516   */\n      tag_243\n      jump\t// in\n    tag_312:\n        /* \"#utility.yul\":1481:1516   */\n      swap1\n      pop\n        /* \"#utility.yul\":1426:1522   */\n      swap2\n      swap1\n      pop\n      jump\t// out\n        /* \"#utility.yul\":1528:1639   */\n    tag_245:\n        /* \"#utility.yul\":1580:1587   */\n      0x00\n        /* \"#utility.yul\":1609:1633   */\n      tag_314\n        /* \"#utility.yul\":1627:1632   */\n      dup3\n        /* \"#utility.yul\":1609:1633   */\n      tag_244\n      jump\t// in\n    tag_314:\n        /* \"#utility.yul\":1598:1633   */\n      swap1\n      pop\n        /* \"#utility.yul\":1528:1639   */\n      swap2\n      swap1\n      pop\n      jump\t// out\n        /* \"#utility.yul\":1645:1797   */\n    tag_246:\n        /* \"#utility.yul\":1733:1772   */\n      tag_316\n        /* \"#utility.yul\":1766:1771   */\n      dup2\n        /* \"#utility.yul\":1733:1772   */\n      tag_245\n      jump\t// in\n    tag_316:\n        /* \"#utility.yul\":1726:1731   */\n      dup2\n        /* \"#utility.yul\":1723:1773   */\n      eq\n        /* \"#utility.yul\":1713:1791   */\n      tag_317\n      jumpi\n        /* \"#utility.yul\":1787:1788   */\n      0x00\n        /* \"#utility.yul\":1784:1785   */\n      dup1\n        /* \"#utility.yul\":1777:1789   */\n      revert\n        /* \"#utility.yul\":1713:1791   */\n    tag_317:\n        /* \"#utility.yul\":1645:1797   */\n      pop\n      jump\t// out\n        /* \"#utility.yul\":1803:1972   */\n    tag_247:\n        /* \"#utility.yul\":1864:1869   */\n      0x00\n        /* \"#utility.yul\":1902:1908   */\n      dup2\n        /* \"#utility.yul\":1889:1909   */\n      calldataload\n        /* \"#utility.yul\":1880:1909   */\n      swap1\n      pop\n        /* \"#utility.yul\":1918:1966   */\n      tag_319\n        /* \"#utility.yul\":1960:1965   */\n      dup2\n        /* \"#utility.yul\":1918:1966   */\n      tag_246\n      jump\t// in\n    tag_319:\n        /* \"#utility.yul\":1803:1972   */\n      swap3\n      swap2\n      pop\n      pop\n      jump\t// out\n        /* \"#utility.yul\":1978:2712   */\n    tag_18:\n        /* \"#utility.yul\":2088:2094   */\n      0x00\n        /* \"#utility.yul\":2096:2102   */\n      dup1\n        /* \"#utility.yul\":2104:2110   */\n      0x00\n        /* \"#utility.yul\":2153:2155   */\n      0x40\n        /* \"#utility.yul\":2141:2150   */\n      dup5\n        /* \"#utility.yul\":2132:2139   */\n      dup7\n        /* \"#utility.yul\":2128:2151   */\n      sub\n        /* \"#utility.yul\":2124:2156   */\n      slt\n        /* \"#utility.yul\":2121:2240   */\n      iszero\n      tag_321\n      jumpi\n        /* \"#utility.yul\":2159:2238   */\n      tag_322\n      tag_237\n      jump\t// in\n    tag_322:\n        /* \"#utility.yul\":2121:2240   */\n    tag_321:\n        /* \"#utility.yul\":2307:2308   */\n      0x00\n        /* \"#utility.yul\":2296:2305   */\n      dup5\n        /* \"#utility.yul\":2292:2309   */\n      add\n        /* \"#utility.yul\":2279:2310   */\n      calldataload\n        /* \"#utility.yul\":2337:2355   */\n      0xffffffffffffffff\n        /* \"#utility.yul\":2329:2335   */\n      dup2\n        /* \"#utility.yul\":2326:2356   */\n      gt\n        /* \"#utility.yul\":2323:2440   */\n      iszero\n      tag_323\n      jumpi\n        /* \"#utility.yul\":2359:2438   */\n      tag_324\n      tag_238\n      jump\t// in\n    tag_324:\n        /* \"#utility.yul\":2323:2440   */\n    tag_323:\n        /* \"#utility.yul\":2472:2552   */\n      tag_325\n        /* \"#utility.yul\":2544:2551   */\n      dup7\n        /* \"#utility.yul\":2535:2541   */\n      dup3\n        /* \"#utility.yul\":2524:2533   */\n      dup8\n        /* \"#utility.yul\":2520:2542   */\n      add\n        /* \"#utility.yul\":2472:2552   */\n      tag_242\n      jump\t// in\n    tag_325:\n        /* \"#utility.yul\":2454:2552   */\n      swap4\n      pop\n      swap4\n      pop\n        /* \"#utility.yul\":2250:2562   */\n      pop\n        /* \"#utility.yul\":2601:2603   */\n      0x20\n        /* \"#utility.yul\":2627:2695   */\n      tag_326\n        /* \"#utility.yul\":2687:2694   */\n      dup7\n        /* \"#utility.yul\":2678:2684   */\n      dup3\n        /* \"#utility.yul\":2667:2676   */\n      dup8\n        /* \"#utility.yul\":2663:2685   */\n      add\n        /* \"#utility.yul\":2627:2695   */\n      tag_247\n      jump\t// in\n    tag_326:\n        /* \"#utility.yul\":2617:2695   */\n      swap2\n      pop\n        /* \"#utility.yul\":2572:2705   */\n      pop\n        /* \"#utility.yul\":1978:2712   */\n      swap3\n      pop\n      swap3\n      pop\n      swap3\n      jump\t// out\n        /* \"#utility.yul\":2718:2795   */\n    tag_248:\n        /* \"#utility.yul\":2755:2762   */\n      0x00\n        /* \"#utility.yul\":2784:2789   */\n      dup2\n        /* \"#utility.yul\":2773:2789   */\n      swap1\n      pop\n        /* \"#utility.yul\":2718:2795   */\n      swap2\n      swap1\n      pop\n      jump\t// out\n        /* \"#utility.yul\":2801:2919   */\n    tag_249:\n        /* \"#utility.yul\":2888:2912   */\n      tag_329\n        /* \"#utility.yul\":2906:2911   */\n      dup2\n        /* \"#utility.yul\":2888:2912   */\n      tag_248\n      jump\t// in\n    tag_329:\n        /* \"#utility.yul\":2883:2886   */\n      dup3\n        /* \"#utility.yul\":2876:2913   */\n      mstore\n        /* \"#utility.yul\":2801:2919   */\n      pop\n      pop\n      jump\t// out\n        /* \"#utility.yul\":2925:3147   */\n    tag_26:\n        /* \"#utility.yul\":3018:3022   */\n      0x00\n        /* \"#utility.yul\":3056:3058   */\n      0x20\n        /* \"#utility.yul\":3045:3054   */\n      dup3\n        /* \"#utility.yul\":3041:3059   */\n      add\n        /* \"#utility.yul\":3033:3059   */\n      swap1\n      pop\n        /* \"#utility.yul\":3069:3140   */\n      tag_331\n        /* \"#utility.yul\":3137:3138   */\n      0x00\n        /* \"#utility.yul\":3126:3135   */\n      dup4\n        /* \"#utility.yul\":3122:3139   */\n      add\n        /* \"#utility.yul\":3113:3119   */\n      dup5\n        /* \"#utility.yul\":3069:3140   */\n      tag_249\n      jump\t// in\n    tag_331:\n        /* \"#utility.yul\":2925:3147   */\n      swap3\n      swap2\n      pop\n      pop\n      jump\t// out\n        /* \"#utility.yul\":3153:3275   */\n    tag_250:\n        /* \"#utility.yul\":3226:3250   */\n      tag_333\n        /* \"#utility.yul\":3244:3249   */\n      dup2\n        /* \"#utility.yul\":3226:3250   */\n      tag_248\n      jump\t// in\n    tag_333:\n        /* \"#utility.yul\":3219:3224   */\n      dup2\n        /* \"#utility.yul\":3216:3251   */\n      eq\n        /* \"#utility.yul\":3206:3269   */\n      tag_334\n      jumpi\n        /* \"#utility.yul\":3265:3266   */\n      0x00\n        /* \"#utility.yul\":3262:3263   */\n      dup1\n        /* \"#utility.yul\":3255:3267   */\n      revert\n        /* \"#utility.yul\":3206:3269   */\n    tag_334:\n        /* \"#utility.yul\":3153:3275   */\n      pop\n      jump\t// out\n        /* \"#utility.yul\":3281:3420   */\n    tag_251:\n        /* \"#utility.yul\":3327:3332   */\n      0x00\n        /* \"#utility.yul\":3365:3371   */\n      dup2\n        /* \"#utility.yul\":3352:3372   */\n      calldataload\n        /* \"#utility.yul\":3343:3372   */\n      swap1\n      pop\n        /* \"#utility.yul\":3381:3414   */\n      tag_336\n        /* \"#utility.yul\":3408:3413   */\n      dup2\n        /* \"#utility.yul\":3381:3414   */\n      tag_250\n      jump\t// in\n    tag_336:\n        /* \"#utility.yul\":3281:3420   */\n      swap3\n      swap2\n      pop\n      pop\n      jump\t// out\n        /* \"#utility.yul\":3426:3755   */\n    tag_31:\n        /* \"#utility.yul\":3485:3491   */\n      0x00\n        /* \"#utility.yul\":3534:3536   */\n      0x20\n        /* \"#utility.yul\":3522:3531   */\n      dup3\n        /* \"#utility.yul\":3513:3520   */\n      dup5\n        /* \"#utility.yul\":3509:3532   */\n      sub\n        /* \"#utility.yul\":3505:3537   */\n      slt\n        /* \"#utility.yul\":3502:3621   */\n      iszero\n      tag_338\n      jumpi\n        /* \"#utility.yul\":3540:3619   */\n      tag_339\n      tag_237\n      jump\t// in\n    tag_339:\n        /* \"#utility.yul\":3502:3621   */\n    tag_338:\n        /* \"#utility.yul\":3660:3661   */\n      0x00\n        /* \"#utility.yul\":3685:3738   */\n      tag_340\n        /* \"#utility.yul\":3730:3737   */\n      dup5\n        /* \"#utility.yul\":3721:3727   */\n      dup3\n        /* \"#utility.yul\":3710:3719   */\n      dup6\n        /* \"#utility.yul\":3706:3728   */\n      add\n        /* \"#utility.yul\":3685:3738   */\n      tag_251\n      jump\t// in\n    tag_340:\n        /* \"#utility.yul\":3675:3738   */\n      swap2\n      pop\n        /* \"#utility.yul\":3631:3748   */\n      pop\n        /* \"#utility.yul\":3426:3755   */\n      swap3\n      swap2\n      pop\n      pop\n      jump\t// out\n        /* \"#utility.yul\":3761:3879   */\n    tag_252:\n        /* \"#utility.yul\":3848:3872   */\n      tag_342\n        /* \"#utility.yul\":3866:3871   */\n      dup2\n        /* \"#utility.yul\":3848:3872   */\n      tag_244\n      jump\t// in\n    tag_342:\n        /* \"#utility.yul\":3843:3846   */\n      dup3\n        /* \"#utility.yul\":3836:3873   */\n      mstore\n        /* \"#utility.yul\":3761:3879   */\n      pop\n      pop\n      jump\t// out\n        /* \"#utility.yul\":3885:4107   */\n    tag_36:\n        /* \"#utility.yul\":3978:3982   */\n      0x00\n        /* \"#utility.yul\":4016:4018   */\n      0x20\n        /* \"#utility.yul\":4005:4014   */\n      dup3\n        /* \"#utility.yul\":4001:4019   */\n      add\n        /* \"#utility.yul\":3993:4019   */\n      swap1\n      pop\n        /* \"#utility.yul\":4029:4100   */\n      tag_344\n        /* \"#utility.yul\":4097:4098   */\n      0x00\n        /* \"#utility.yul\":4086:4095   */\n      dup4\n        /* \"#utility.yul\":4082:4099   */\n      add\n        /* \"#utility.yul\":4073:4079   */\n      dup5\n        /* \"#utility.yul\":4029:4100   */\n      tag_252\n      jump\t// in\n    tag_344:\n        /* \"#utility.yul\":3885:4107   */\n      swap3\n      swap2\n      pop\n      pop\n      jump\t// out\n        /* \"#utility.yul\":4113:4617   */\n    tag_42:\n        /* \"#utility.yul\":4196:4202   */\n      0x00\n        /* \"#utility.yul\":4204:4210   */\n      dup1\n        /* \"#utility.yul\":4253:4255   */\n      0x40\n        /* \"#utility.yul\":4241:4250   */\n      dup4\n        /* \"#utility.yul\":4232:4239   */\n      dup6\n        /* \"#utility.yul\":4228:4251   */\n      sub\n        /* \"#utility.yul\":4224:4256   */\n      slt\n        /* \"#utility.yul\":4221:4340   */\n      iszero\n      tag_346\n      jumpi\n        /* \"#utility.yul\":4259:4338   */\n      tag_347\n      tag_237\n      jump\t// in\n    tag_347:\n        /* \"#utility.yul\":4221:4340   */\n    tag_346:\n        /* \"#utility.yul\":4379:4380   */\n      0x00\n        /* \"#utility.yul\":4404:4472   */\n      tag_348\n        /* \"#utility.yul\":4464:4471   */\n      dup6\n        /* \"#utility.yul\":4455:4461   */\n      dup3\n        /* \"#utility.yul\":4444:4453   */\n      dup7\n        /* \"#utility.yul\":4440:4462   */\n      add\n        /* \"#utility.yul\":4404:4472   */\n      tag_247\n      jump\t// in\n    tag_348:\n        /* \"#utility.yul\":4394:4472   */\n      swap3\n      pop\n        /* \"#utility.yul\":4350:4482   */\n      pop\n        /* \"#utility.yul\":4521:4523   */\n      0x20\n        /* \"#utility.yul\":4547:4600   */\n      tag_349\n        /* \"#utility.yul\":4592:4599   */\n      dup6\n        /* \"#utility.yul\":4583:4589   */\n      dup3\n        /* \"#utility.yul\":4572:4581   */\n      dup7\n        /* \"#utility.yul\":4568:4590   */\n      add\n        /* \"#utility.yul\":4547:4600   */\n      tag_251\n      jump\t// in\n    tag_349:\n        /* \"#utility.yul\":4537:4600   */\n      swap2\n      pop\n        /* \"#utility.yul\":4492:4610   */\n      pop\n        /* \"#utility.yul\":4113:4617   */\n      swap3\n      pop\n      swap3\n      swap1\n      pop\n      jump\t// out\n        /* \"#utility.yul\":4623:4713   */\n    tag_253:\n        /* \"#utility.yul\":4657:4664   */\n      0x00\n        /* \"#utility.yul\":4700:4705   */\n      dup2\n        /* \"#utility.yul\":4693:4706   */\n      iszero\n        /* \"#utility.yul\":4686:4707   */\n      iszero\n        /* \"#utility.yul\":4675:4707   */\n      swap1\n      pop\n        /* \"#utility.yul\":4623:4713   */\n      swap2\n      swap1\n      pop\n      jump\t// out\n        /* \"#utility.yul\":4719:4828   */\n    tag_254:\n        /* \"#utility.yul\":4800:4821   */\n      tag_352\n        /* \"#utility.yul\":4815:4820   */\n      dup2\n        /* \"#utility.yul\":4800:4821   */\n      tag_253\n      jump\t// in\n    tag_352:\n        /* \"#utility.yul\":4795:4798   */\n      dup3\n        /* \"#utility.yul\":4788:4822   */\n      mstore\n        /* \"#utility.yul\":4719:4828   */\n      pop\n      pop\n      jump\t// out\n        /* \"#utility.yul\":4834:4894   */\n    tag_255:\n        /* \"#utility.yul\":4862:4865   */\n      0x00\n        /* \"#utility.yul\":4883:4888   */\n      dup2\n        /* \"#utility.yul\":4876:4888   */\n      swap1\n      pop\n        /* \"#utility.yul\":4834:4894   */\n      swap2\n      swap1\n      pop\n      jump\t// out\n        /* \"#utility.yul\":4900:5042   */\n    tag_256:\n        /* \"#utility.yul\":4950:4959   */\n      0x00\n        /* \"#utility.yul\":4983:5036   */\n      tag_355\n        /* \"#utility.yul\":5001:5035   */\n      tag_356\n        /* \"#utility.yul\":5010:5034   */\n      tag_357\n        /* \"#utility.yul\":5028:5033   */\n      dup5\n        /* \"#utility.yul\":5010:5034   */\n      tag_243\n      jump\t// in\n    tag_357:\n        /* \"#utility.yul\":5001:5035   */\n      tag_255\n      jump\t// in\n    tag_356:\n        /* \"#utility.yul\":4983:5036   */\n      tag_243\n      jump\t// in\n    tag_355:\n        /* \"#utility.yul\":4970:5036   */\n      swap1\n      pop\n        /* \"#utility.yul\":4900:5042   */\n      swap2\n      swap1\n      pop\n      jump\t// out\n        /* \"#utility.yul\":5048:5174   */\n    tag_257:\n        /* \"#utility.yul\":5098:5107   */\n      0x00\n        /* \"#utility.yul\":5131:5168   */\n      tag_359\n        /* \"#utility.yul\":5162:5167   */\n      dup3\n        /* \"#utility.yul\":5131:5168   */\n      tag_256\n      jump\t// in\n    tag_359:\n        /* \"#utility.yul\":5118:5168   */\n      swap1\n      pop\n        /* \"#utility.yul\":5048:5174   */\n      swap2\n      swap1\n      pop\n      jump\t// out\n        /* \"#utility.yul\":5180:5321   */\n    tag_258:\n        /* \"#utility.yul\":5245:5254   */\n      0x00\n        /* \"#utility.yul\":5278:5315   */\n      tag_361\n        /* \"#utility.yul\":5309:5314   */\n      dup3\n        /* \"#utility.yul\":5278:5315   */\n      tag_257\n      jump\t// in\n    tag_361:\n        /* \"#utility.yul\":5265:5315   */\n      swap1\n      pop\n        /* \"#utility.yul\":5180:5321   */\n      swap2\n      swap1\n      pop\n      jump\t// out\n        /* \"#utility.yul\":5327:5488   */\n    tag_259:\n        /* \"#utility.yul\":5429:5481   */\n      tag_363\n        /* \"#utility.yul\":5475:5480   */\n      dup2\n        /* \"#utility.yul\":5429:5481   */\n      tag_258\n      jump\t// in\n    tag_363:\n        /* \"#utility.yul\":5424:5427   */\n      dup3\n        /* \"#utility.yul\":5417:5482   */\n      mstore\n        /* \"#utility.yul\":5327:5488   */\n      pop\n      pop\n      jump\t// out\n        /* \"#utility.yul\":5494:6176   */\n    tag_45:\n        /* \"#utility.yul\":5708:5712   */\n      0x00\n        /* \"#utility.yul\":5746:5749   */\n      0xa0\n        /* \"#utility.yul\":5735:5744   */\n      dup3\n        /* \"#utility.yul\":5731:5750   */\n      add\n        /* \"#utility.yul\":5723:5750   */\n      swap1\n      pop\n        /* \"#utility.yul\":5760:5831   */\n      tag_365\n        /* \"#utility.yul\":5828:5829   */\n      0x00\n        /* \"#utility.yul\":5817:5826   */\n      dup4\n        /* \"#utility.yul\":5813:5830   */\n      add\n        /* \"#utility.yul\":5804:5810   */\n      dup9\n        /* \"#utility.yul\":5760:5831   */\n      tag_252\n      jump\t// in\n    tag_365:\n        /* \"#utility.yul\":5841:5913   */\n      tag_366\n        /* \"#utility.yul\":5909:5911   */\n      0x20\n        /* \"#utility.yul\":5898:5907   */\n      dup4\n        /* \"#utility.yul\":5894:5912   */\n      add\n        /* \"#utility.yul\":5885:5891   */\n      dup8\n        /* \"#utility.yul\":5841:5913   */\n      tag_249\n      jump\t// in\n    tag_366:\n        /* \"#utility.yul\":5923:5995   */\n      tag_367\n        /* \"#utility.yul\":5991:5993   */\n      0x40\n        /* \"#utility.yul\":5980:5989   */\n      dup4\n        /* \"#utility.yul\":5976:5994   */\n      add\n        /* \"#utility.yul\":5967:5973   */\n      dup7\n        /* \"#utility.yul\":5923:5995   */\n      tag_249\n      jump\t// in\n    tag_367:\n        /* \"#utility.yul\":6005:6071   */\n      tag_368\n        /* \"#utility.yul\":6067:6069   */\n      0x60\n        /* \"#utility.yul\":6056:6065   */\n      dup4\n        /* \"#utility.yul\":6052:6070   */\n      add\n        /* \"#utility.yul\":6043:6049   */\n      dup6\n        /* \"#utility.yul\":6005:6071   */\n      tag_254\n      jump\t// in\n    tag_368:\n        /* \"#utility.yul\":6081:6169   */\n      tag_369\n        /* \"#utility.yul\":6164:6167   */\n      0x80\n        /* \"#utility.yul\":6153:6162   */\n      dup4\n        /* \"#utility.yul\":6149:6168   */\n      add\n        /* \"#utility.yul\":6140:6146   */\n      dup5\n        /* \"#utility.yul\":6081:6169   */\n      tag_259\n      jump\t// in\n    tag_369:\n        /* \"#utility.yul\":5494:6176   */\n      swap7\n      swap6\n      pop\n      pop\n      pop\n      pop\n      pop\n      pop\n      jump\t// out\n        /* \"#utility.yul\":6182:6686   */\n    tag_48:\n        /* \"#utility.yul\":6265:6271   */\n      0x00\n        /* \"#utility.yul\":6273:6279   */\n      dup1\n        /* \"#utility.yul\":6322:6324   */\n      0x40\n        /* \"#utility.yul\":6310:6319   */\n      dup4\n        /* \"#utility.yul\":6301:6308   */\n      dup6\n        /* \"#utility.yul\":6297:6320   */\n      sub\n        /* \"#utility.yul\":6293:6325   */\n      slt\n        /* \"#utility.yul\":6290:6409   */\n      iszero\n      tag_371\n      jumpi\n        /* \"#utility.yul\":6328:6407   */\n      tag_372\n      tag_237\n      jump\t// in\n    tag_372:\n        /* \"#utility.yul\":6290:6409   */\n    tag_371:\n        /* \"#utility.yul\":6448:6449   */\n      0x00\n        /* \"#utility.yul\":6473:6526   */\n      tag_373\n        /* \"#utility.yul\":6518:6525   */\n      dup6\n        /* \"#utility.yul\":6509:6515   */\n      dup3\n        /* \"#utility.yul\":6498:6507   */\n      dup7\n        /* \"#utility.yul\":6494:6516   */\n      add\n        /* \"#utility.yul\":6473:6526   */\n      tag_251\n      jump\t// in\n    tag_373:\n        /* \"#utility.yul\":6463:6526   */\n      swap3\n      pop\n        /* \"#utility.yul\":6419:6536   */\n      pop\n        /* \"#utility.yul\":6575:6577   */\n      0x20\n        /* \"#utility.yul\":6601:6669   */\n      tag_374\n        /* \"#utility.yul\":6661:6668   */\n      dup6\n        /* \"#utility.yul\":6652:6658   */\n      dup3\n        /* \"#utility.yul\":6641:6650   */\n      dup7\n        /* \"#utility.yul\":6637:6659   */\n      add\n        /* \"#utility.yul\":6601:6669   */\n      tag_247\n      jump\t// in\n    tag_374:\n        /* \"#utility.yul\":6591:6669   */\n      swap2\n      pop\n        /* \"#utility.yul\":6546:6679   */\n      pop\n        /* \"#utility.yul\":6182:6686   */\n      swap3\n      pop\n      swap3\n      swap1\n      pop\n      jump\t// out\n        /* \"#utility.yul\":6692:7051   */\n    tag_56:\n        /* \"#utility.yul\":6766:6772   */\n      0x00\n        /* \"#utility.yul\":6815:6817   */\n      0x20\n        /* \"#utility.yul\":6803:6812   */\n      dup3\n        /* \"#utility.yul\":6794:6801   */\n      dup5\n        /* \"#utility.yul\":6790:6813   */\n      sub\n        /* \"#utility.yul\":6786:6818   */\n      slt\n        /* \"#utility.yul\":6783:6902   */\n      iszero\n      tag_376\n      jumpi\n        /* \"#utility.yul\":6821:6900   */\n      tag_377\n      tag_237\n      jump\t// in\n    tag_377:\n        /* \"#utility.yul\":6783:6902   */\n    tag_376:\n        /* \"#utility.yul\":6941:6942   */\n      0x00\n        /* \"#utility.yul\":6966:7034   */\n      tag_378\n        /* \"#utility.yul\":7026:7033   */\n      dup5\n        /* \"#utility.yul\":7017:7023   */\n      dup3\n        /* \"#utility.yul\":7006:7015   */\n      dup6\n        /* \"#utility.yul\":7002:7024   */\n      add\n        /* \"#utility.yul\":6966:7034   */\n      tag_247\n      jump\t// in\n    tag_378:\n        /* \"#utility.yul\":6956:7034   */\n      swap2\n      pop\n        /* \"#utility.yul\":6912:7044   */\n      pop\n        /* \"#utility.yul\":6692:7051   */\n      swap3\n      swap2\n      pop\n      pop\n      jump\t// out\n        /* \"#utility.yul\":7057:7205   */\n    tag_260:\n        /* \"#utility.yul\":7129:7138   */\n      0x00\n        /* \"#utility.yul\":7162:7199   */\n      tag_380\n        /* \"#utility.yul\":7193:7198   */\n      dup3\n        /* \"#utility.yul\":7162:7199   */\n      tag_257\n      jump\t// in\n    tag_380:\n        /* \"#utility.yul\":7149:7199   */\n      swap1\n      pop\n        /* \"#utility.yul\":7057:7205   */\n      swap2\n      swap1\n      pop\n      jump\t// out\n        /* \"#utility.yul\":7211:7386   */\n    tag_261:\n        /* \"#utility.yul\":7320:7379   */\n      tag_382\n        /* \"#utility.yul\":7373:7378   */\n      dup2\n        /* \"#utility.yul\":7320:7379   */\n      tag_260\n      jump\t// in\n    tag_382:\n        /* \"#utility.yul\":7315:7318   */\n      dup3\n        /* \"#utility.yul\":7308:7380   */\n      mstore\n        /* \"#utility.yul\":7211:7386   */\n      pop\n      pop\n      jump\t// out\n        /* \"#utility.yul\":7392:7878   */\n    tag_59:\n        /* \"#utility.yul\":7563:7567   */\n      0x00\n        /* \"#utility.yul\":7601:7603   */\n      0x60\n        /* \"#utility.yul\":7590:7599   */\n      dup3\n        /* \"#utility.yul\":7586:7604   */\n      add\n        /* \"#utility.yul\":7578:7604   */\n      swap1\n      pop\n        /* \"#utility.yul\":7614:7707   */\n      tag_384\n        /* \"#utility.yul\":7704:7705   */\n      0x00\n        /* \"#utility.yul\":7693:7702   */\n      dup4\n        /* \"#utility.yul\":7689:7706   */\n      add\n        /* \"#utility.yul\":7680:7686   */\n      dup7\n        /* \"#utility.yul\":7614:7707   */\n      tag_261\n      jump\t// in\n    tag_384:\n        /* \"#utility.yul\":7717:7789   */\n      tag_385\n        /* \"#utility.yul\":7785:7787   */\n      0x20\n        /* \"#utility.yul\":7774:7783   */\n      dup4\n        /* \"#utility.yul\":7770:7788   */\n      add\n        /* \"#utility.yul\":7761:7767   */\n      dup6\n        /* \"#utility.yul\":7717:7789   */\n      tag_249\n      jump\t// in\n    tag_385:\n        /* \"#utility.yul\":7799:7871   */\n      tag_386\n        /* \"#utility.yul\":7867:7869   */\n      0x40\n        /* \"#utility.yul\":7856:7865   */\n      dup4\n        /* \"#utility.yul\":7852:7870   */\n      add\n        /* \"#utility.yul\":7843:7849   */\n      dup5\n        /* \"#utility.yul\":7799:7871   */\n      tag_249\n      jump\t// in\n    tag_386:\n        /* \"#utility.yul\":7392:7878   */\n      swap5\n      swap4\n      pop\n      pop\n      pop\n      pop\n      jump\t// out\n        /* \"#utility.yul\":7884:8006   */\n    tag_262:\n        /* \"#utility.yul\":7957:7981   */\n      tag_388\n        /* \"#utility.yul\":7975:7980   */\n      dup2\n        /* \"#utility.yul\":7957:7981   */\n      tag_244\n      jump\t// in\n    tag_388:\n        /* \"#utility.yul\":7950:7955   */\n      dup2\n        /* \"#utility.yul\":7947:7982   */\n      eq\n        /* \"#utility.yul\":7937:8000   */\n      tag_389\n      jumpi\n        /* \"#utility.yul\":7996:7997   */\n      0x00\n        /* \"#utility.yul\":7993:7994   */\n      dup1\n        /* \"#utility.yul\":7986:7998   */\n      revert\n        /* \"#utility.yul\":7937:8000   */\n    tag_389:\n        /* \"#utility.yul\":7884:8006   */\n      pop\n      jump\t// out\n        /* \"#utility.yul\":8012:8151   */\n    tag_263:\n        /* \"#utility.yul\":8058:8063   */\n      0x00\n        /* \"#utility.yul\":8096:8102   */\n      dup2\n        /* \"#utility.yul\":8083:8103   */\n      calldataload\n        /* \"#utility.yul\":8074:8103   */\n      swap1\n      pop\n        /* \"#utility.yul\":8112:8145   */\n      tag_391\n        /* \"#utility.yul\":8139:8144   */\n      dup2\n        /* \"#utility.yul\":8112:8145   */\n      tag_262\n      jump\t// in\n    tag_391:\n        /* \"#utility.yul\":8012:8151   */\n      swap3\n      swap2\n      pop\n      pop\n      jump\t// out\n        /* \"#utility.yul\":8157:8486   */\n    tag_62:\n        /* \"#utility.yul\":8216:8222   */\n      0x00\n        /* \"#utility.yul\":8265:8267   */\n      0x20\n        /* \"#utility.yul\":8253:8262   */\n      dup3\n        /* \"#utility.yul\":8244:8251   */\n      dup5\n        /* \"#utility.yul\":8240:8263   */\n      sub\n        /* \"#utility.yul\":8236:8268   */\n      slt\n        /* \"#utility.yul\":8233:8352   */\n      iszero\n      tag_393\n      jumpi\n        /* \"#utility.yul\":8271:8350   */\n      tag_394\n      tag_237\n      jump\t// in\n    tag_394:\n        /* \"#utility.yul\":8233:8352   */\n    tag_393:\n        /* \"#utility.yul\":8391:8392   */\n      0x00\n        /* \"#utility.yul\":8416:8469   */\n      tag_395\n        /* \"#utility.yul\":8461:8468   */\n      dup5\n        /* \"#utility.yul\":8452:8458   */\n      dup3\n        /* \"#utility.yul\":8441:8450   */\n      dup6\n        /* \"#utility.yul\":8437:8459   */\n      add\n        /* \"#utility.yul\":8416:8469   */\n      tag_263\n      jump\t// in\n    tag_395:\n        /* \"#utility.yul\":8406:8469   */\n      swap2\n      pop\n        /* \"#utility.yul\":8362:8479   */\n      pop\n        /* \"#utility.yul\":8157:8486   */\n      swap3\n      swap2\n      pop\n      pop\n      jump\t// out\n        /* \"#utility.yul\":8492:8661   */\n    tag_264:\n        /* \"#utility.yul\":8576:8587   */\n      0x00\n        /* \"#utility.yul\":8610:8616   */\n      dup3\n        /* \"#utility.yul\":8605:8608   */\n      dup3\n        /* \"#utility.yul\":8598:8617   */\n      mstore\n        /* \"#utility.yul\":8650:8654   */\n      0x20\n        /* \"#utility.yul\":8645:8648   */\n      dup3\n        /* \"#utility.yul\":8641:8655   */\n      add\n        /* \"#utility.yul\":8626:8655   */\n      swap1\n      pop\n        /* \"#utility.yul\":8492:8661   */\n      swap3\n      swap2\n      pop\n      pop\n      jump\t// out\n        /* \"#utility.yul\":8667:8837   */\n    tag_265:\n        /* \"#utility.yul\":8807:8829   */\n      0x436f6e7472616374206e6f7420616c6c6f776564000000000000000000000000\n        /* \"#utility.yul\":8803:8804   */\n      0x00\n        /* \"#utility.yul\":8795:8801   */\n      dup3\n        /* \"#utility.yul\":8791:8805   */\n      add\n        /* \"#utility.yul\":8784:8830   */\n      mstore\n        /* \"#utility.yul\":8667:8837   */\n      pop\n      jump\t// out\n        /* \"#utility.yul\":8843:9209   */\n    tag_266:\n        /* \"#utility.yul\":8985:8988   */\n      0x00\n        /* \"#utility.yul\":9006:9073   */\n      tag_399\n        /* \"#utility.yul\":9070:9072   */\n      0x14\n        /* \"#utility.yul\":9065:9068   */\n      dup4\n        /* \"#utility.yul\":9006:9073   */\n      tag_264\n      jump\t// in\n    tag_399:\n        /* \"#utility.yul\":8999:9073   */\n      swap2\n      pop\n        /* \"#utility.yul\":9082:9175   */\n      tag_400\n        /* \"#utility.yul\":9171:9174   */\n      dup3\n        /* \"#utility.yul\":9082:9175   */\n      tag_265\n      jump\t// in\n    tag_400:\n        /* \"#utility.yul\":9200:9202   */\n      0x20\n        /* \"#utility.yul\":9195:9198   */\n      dup3\n        /* \"#utility.yul\":9191:9203   */\n      add\n        /* \"#utility.yul\":9184:9203   */\n      swap1\n      pop\n        /* \"#utility.yul\":8843:9209   */\n      swap2\n      swap1\n      pop\n      jump\t// out\n        /* \"#utility.yul\":9215:9634   */\n    tag_69:\n        /* \"#utility.yul\":9381:9385   */\n      0x00\n        /* \"#utility.yul\":9419:9421   */\n      0x20\n        /* \"#utility.yul\":9408:9417   */\n      dup3\n        /* \"#utility.yul\":9404:9422   */\n      add\n        /* \"#utility.yul\":9396:9422   */\n      swap1\n      pop\n        /* \"#utility.yul\":9468:9477   */\n      dup2\n        /* \"#utility.yul\":9462:9466   */\n      dup2\n        /* \"#utility.yul\":9458:9478   */\n      sub\n        /* \"#utility.yul\":9454:9455   */\n      0x00\n        /* \"#utility.yul\":9443:9452   */\n      dup4\n        /* \"#utility.yul\":9439:9456   */\n      add\n        /* \"#utility.yul\":9432:9479   */\n      mstore\n        /* \"#utility.yul\":9496:9627   */\n      tag_402\n        /* \"#utility.yul\":9622:9626   */\n      dup2\n        /* \"#utility.yul\":9496:9627   */\n      tag_266\n      jump\t// in\n    tag_402:\n        /* \"#utility.yul\":9488:9627   */\n      swap1\n      pop\n        /* \"#utility.yul\":9215:9634   */\n      swap2\n      swap1\n      pop\n      jump\t// out\n        /* \"#utility.yul\":9640:9816   */\n    tag_267:\n        /* \"#utility.yul\":9780:9808   */\n      0x50726f787920636f6e7472616374206e6f7420616c6c6f776564000000000000\n        /* \"#utility.yul\":9776:9777   */\n      0x00\n        /* \"#utility.yul\":9768:9774   */\n      dup3\n        /* \"#utility.yul\":9764:9778   */\n      add\n        /* \"#utility.yul\":9757:9809   */\n      mstore\n        /* \"#utility.yul\":9640:9816   */\n      pop\n      jump\t// out\n        /* \"#utility.yul\":9822:10188   */\n    tag_268:\n        /* \"#utility.yul\":9964:9967   */\n      0x00\n        /* \"#utility.yul\":9985:10052   */\n      tag_405\n        /* \"#utility.yul\":10049:10051   */\n      0x1a\n        /* \"#utility.yul\":10044:10047   */\n      dup4\n        /* \"#utility.yul\":9985:10052   */\n      tag_264\n      jump\t// in\n    tag_405:\n        /* \"#utility.yul\":9978:10052   */\n      swap2\n      pop\n        /* \"#utility.yul\":10061:10154   */\n      tag_406\n        /* \"#utility.yul\":10150:10153   */\n      dup3\n        /* \"#utility.yul\":10061:10154   */\n      tag_267\n      jump\t// in\n    tag_406:\n        /* \"#utility.yul\":10179:10181   */\n      0x20\n        /* \"#utility.yul\":10174:10177   */\n      dup3\n        /* \"#utility.yul\":10170:10182   */\n      add\n        /* \"#utility.yul\":10163:10182   */\n      swap1\n      pop\n        /* \"#utility.yul\":9822:10188   */\n      swap2\n      swap1\n      pop\n      jump\t// out\n        /* \"#utility.yul\":10194:10613   */\n    tag_72:\n        /* \"#utility.yul\":10360:10364   */\n      0x00\n        /* \"#utility.yul\":10398:10400   */\n      0x20\n        /* \"#utility.yul\":10387:10396   */\n      dup3\n        /* \"#utility.yul\":10383:10401   */\n      add\n        /* \"#utility.yul\":10375:10401   */\n      swap1\n      pop\n        /* \"#utility.yul\":10447:10456   */\n      dup2\n        /* \"#utility.yul\":10441:10445   */\n      dup2\n        /* \"#utility.yul\":10437:10457   */\n      sub\n        /* \"#utility.yul\":10433:10434   */\n      0x00\n        /* \"#utility.yul\":10422:10431   */\n      dup4\n        /* \"#utility.yul\":10418:10435   */\n      add\n        /* \"#utility.yul\":10411:10458   */\n      mstore\n        /* \"#utility.yul\":10475:10606   */\n      tag_408\n        /* \"#utility.yul\":10601:10605   */\n      dup2\n        /* \"#utility.yul\":10475:10606   */\n      tag_268\n      jump\t// in\n    tag_408:\n        /* \"#utility.yul\":10467:10606   */\n      swap1\n      pop\n        /* \"#utility.yul\":10194:10613   */\n      swap2\n      swap1\n      pop\n      jump\t// out\n        /* \"#utility.yul\":10619:10778   */\n    tag_269:\n        /* \"#utility.yul\":10759:10770   */\n      0x4e6f20746f6b656e730000000000000000000000000000000000000000000000\n        /* \"#utility.yul\":10755:10756   */\n      0x00\n        /* \"#utility.yul\":10747:10753   */\n      dup3\n        /* \"#utility.yul\":10743:10757   */\n      add\n        /* \"#utility.yul\":10736:10771   */\n      mstore\n        /* \"#utility.yul\":10619:10778   */\n      pop\n      jump\t// out\n        /* \"#utility.yul\":10784:11149   */\n    tag_270:\n        /* \"#utility.yul\":10926:10929   */\n      0x00\n        /* \"#utility.yul\":10947:11013   */\n      tag_411\n        /* \"#utility.yul\":11011:11012   */\n      0x09\n        /* \"#utility.yul\":11006:11009   */\n      dup4\n        /* \"#utility.yul\":10947:11013   */\n      tag_264\n      jump\t// in\n    tag_411:\n        /* \"#utility.yul\":10940:11013   */\n      swap2\n      pop\n        /* \"#utility.yul\":11022:11115   */\n      tag_412\n        /* \"#utility.yul\":11111:11114   */\n      dup3\n        /* \"#utility.yul\":11022:11115   */\n      tag_269\n      jump\t// in\n    tag_412:\n        /* \"#utility.yul\":11140:11142   */\n      0x20\n        /* \"#utility.yul\":11135:11138   */\n      dup3\n        /* \"#utility.yul\":11131:11143   */\n      add\n        /* \"#utility.yul\":11124:11143   */\n      swap1\n      pop\n        /* \"#utility.yul\":10784:11149   */\n      swap2\n      swap1\n      pop\n      jump\t// out\n        /* \"#utility.yul\":11155:11574   */\n    tag_76:\n        /* \"#utility.yul\":11321:11325   */\n      0x00\n        /* \"#utility.yul\":11359:11361   */\n      0x20\n        /* \"#utility.yul\":11348:11357   */\n      dup3\n        /* \"#utility.yul\":11344:11362   */\n      add\n        /* \"#utility.yul\":11336:11362   */\n      swap1\n      pop\n        /* \"#utility.yul\":11408:11417   */\n      dup2\n        /* \"#utility.yul\":11402:11406   */\n      dup2\n        /* \"#utility.yul\":11398:11418   */\n      sub\n        /* \"#utility.yul\":11394:11395   */\n      0x00\n        /* \"#utility.yul\":11383:11392   */\n      dup4\n        /* \"#utility.yul\":11379:11396   */\n      add\n        /* \"#utility.yul\":11372:11419   */\n      mstore\n        /* \"#utility.yul\":11436:11567   */\n      tag_414\n        /* \"#utility.yul\":11562:11566   */\n      dup2\n        /* \"#utility.yul\":11436:11567   */\n      tag_270\n      jump\t// in\n    tag_414:\n        /* \"#utility.yul\":11428:11567   */\n      swap1\n      pop\n        /* \"#utility.yul\":11155:11574   */\n      swap2\n      swap1\n      pop\n      jump\t// out\n        /* \"#utility.yul\":11580:11760   */\n    tag_82:\n        /* \"#utility.yul\":11628:11705   */\n      0x4e487b7100000000000000000000000000000000000000000000000000000000\n        /* \"#utility.yul\":11625:11626   */\n      0x00\n        /* \"#utility.yul\":11618:11706   */\n      mstore\n        /* \"#utility.yul\":11725:11729   */\n      0x32\n        /* \"#utility.yul\":11722:11723   */\n      0x04\n        /* \"#utility.yul\":11715:11730   */\n      mstore\n        /* \"#utility.yul\":11749:11753   */\n      0x24\n        /* \"#utility.yul\":11746:11747   */\n      0x00\n        /* \"#utility.yul\":11739:11754   */\n      revert\n        /* \"#utility.yul\":11766:11933   */\n    tag_271:\n        /* \"#utility.yul\":11906:11925   */\n      0x4e6f74206120746f6b656e206f776e6572000000000000000000000000000000\n        /* \"#utility.yul\":11902:11903   */\n      0x00\n        /* \"#utility.yul\":11894:11900   */\n      dup3\n        /* \"#utility.yul\":11890:11904   */\n      add\n        /* \"#utility.yul\":11883:11926   */\n      mstore\n        /* \"#utility.yul\":11766:11933   */\n      pop\n      jump\t// out\n        /* \"#utility.yul\":11939:12305   */\n    tag_272:\n        /* \"#utility.yul\":12081:12084   */\n      0x00\n        /* \"#utility.yul\":12102:12169   */\n      tag_418\n        /* \"#utility.yul\":12166:12168   */\n      0x11\n        /* \"#utility.yul\":12161:12164   */\n      dup4\n        /* \"#utility.yul\":12102:12169   */\n      tag_264\n      jump\t// in\n    tag_418:\n        /* \"#utility.yul\":12095:12169   */\n      swap2\n      pop\n        /* \"#utility.yul\":12178:12271   */\n      tag_419\n        /* \"#utility.yul\":12267:12270   */\n      dup3\n        /* \"#utility.yul\":12178:12271   */\n      tag_271\n      jump\t// in\n    tag_419:\n        /* \"#utility.yul\":12296:12298   */\n      0x20\n        /* \"#utility.yul\":12291:12294   */\n      dup3\n        /* \"#utility.yul\":12287:12299   */\n      add\n        /* \"#utility.yul\":12280:12299   */\n      swap1\n      pop\n        /* \"#utility.yul\":11939:12305   */\n      swap2\n      swap1\n      pop\n      jump\t// out\n        /* \"#utility.yul\":12311:12730   */\n    tag_85:\n        /* \"#utility.yul\":12477:12481   */\n      0x00\n        /* \"#utility.yul\":12515:12517   */\n      0x20\n        /* \"#utility.yul\":12504:12513   */\n      dup3\n        /* \"#utility.yul\":12500:12518   */\n      add\n        /* \"#utility.yul\":12492:12518   */\n      swap1\n      pop\n        /* \"#utility.yul\":12564:12573   */\n      dup2\n        /* \"#utility.yul\":12558:12562   */\n      dup2\n        /* \"#utility.yul\":12554:12574   */\n      sub\n        /* \"#utility.yul\":12550:12551   */\n      0x00\n        /* \"#utility.yul\":12539:12548   */\n      dup4\n        /* \"#utility.yul\":12535:12552   */\n      add\n        /* \"#utility.yul\":12528:12575   */\n      mstore\n        /* \"#utility.yul\":12592:12723   */\n      tag_421\n        /* \"#utility.yul\":12718:12722   */\n      dup2\n        /* \"#utility.yul\":12592:12723   */\n      tag_272\n      jump\t// in\n    tag_421:\n        /* \"#utility.yul\":12584:12723   */\n      swap1\n      pop\n        /* \"#utility.yul\":12311:12730   */\n      swap2\n      swap1\n      pop\n      jump\t// out\n        /* \"#utility.yul\":12736:12916   */\n    tag_273:\n        /* \"#utility.yul\":12784:12861   */\n      0x4e487b7100000000000000000000000000000000000000000000000000000000\n        /* \"#utility.yul\":12781:12782   */\n      0x00\n        /* \"#utility.yul\":12774:12862   */\n      mstore\n        /* \"#utility.yul\":12881:12885   */\n      0x11\n        /* \"#utility.yul\":12878:12879   */\n      0x04\n        /* \"#utility.yul\":12871:12886   */\n      mstore\n        /* \"#utility.yul\":12905:12909   */\n      0x24\n        /* \"#utility.yul\":12902:12903   */\n      0x00\n        /* \"#utility.yul\":12895:12910   */\n      revert\n        /* \"#utility.yul\":12922:13113   */\n    tag_87:\n        /* \"#utility.yul\":12962:12965   */\n      0x00\n        /* \"#utility.yul\":12981:13001   */\n      tag_424\n        /* \"#utility.yul\":12999:13000   */\n      dup3\n        /* \"#utility.yul\":12981:13001   */\n      tag_248\n      jump\t// in\n    tag_424:\n        /* \"#utility.yul\":12976:13001   */\n      swap2\n      pop\n        /* \"#utility.yul\":13015:13035   */\n      tag_425\n        /* \"#utility.yul\":13033:13034   */\n      dup4\n        /* \"#utility.yul\":13015:13035   */\n      tag_248\n      jump\t// in\n    tag_425:\n        /* \"#utility.yul\":13010:13035   */\n      swap3\n      pop\n        /* \"#utility.yul\":13058:13059   */\n      dup3\n        /* \"#utility.yul\":13055:13056   */\n      dup3\n        /* \"#utility.yul\":13051:13060   */\n      add\n        /* \"#utility.yul\":13044:13060   */\n      swap1\n      pop\n        /* \"#utility.yul\":13079:13082   */\n      dup1\n        /* \"#utility.yul\":13076:13077   */\n      dup3\n        /* \"#utility.yul\":13073:13083   */\n      gt\n        /* \"#utility.yul\":13070:13106   */\n      iszero\n      tag_426\n      jumpi\n        /* \"#utility.yul\":13086:13104   */\n      tag_427\n      tag_273\n      jump\t// in\n    tag_427:\n        /* \"#utility.yul\":13070:13106   */\n    tag_426:\n        /* \"#utility.yul\":12922:13113   */\n      swap3\n      swap2\n      pop\n      pop\n      jump\t// out\n        /* \"#utility.yul\":13119:13290   */\n    tag_274:\n        /* \"#utility.yul\":13259:13282   */\n      0x4e6f742061626c6520746f20636c61696d207965740000000000000000000000\n        /* \"#utility.yul\":13255:13256   */\n      0x00\n        /* \"#utility.yul\":13247:13253   */\n      dup3\n        /* \"#utility.yul\":13243:13257   */\n      add\n        /* \"#utility.yul\":13236:13283   */\n      mstore\n        /* \"#utility.yul\":13119:13290   */\n      pop\n      jump\t// out\n        /* \"#utility.yul\":13296:13662   */\n    tag_275:\n        /* \"#utility.yul\":13438:13441   */\n      0x00\n        /* \"#utility.yul\":13459:13526   */\n      tag_430\n        /* \"#utility.yul\":13523:13525   */\n      0x15\n        /* \"#utility.yul\":13518:13521   */\n      dup4\n        /* \"#utility.yul\":13459:13526   */\n      tag_264\n      jump\t// in\n    tag_430:\n        /* \"#utility.yul\":13452:13526   */\n      swap2\n      pop\n        /* \"#utility.yul\":13535:13628   */\n      tag_431\n        /* \"#utility.yul\":13624:13627   */\n      dup3\n        /* \"#utility.yul\":13535:13628   */\n      tag_274\n      jump\t// in\n    tag_431:\n        /* \"#utility.yul\":13653:13655   */\n      0x20\n        /* \"#utility.yul\":13648:13651   */\n      dup3\n        /* \"#utility.yul\":13644:13656   */\n      add\n        /* \"#utility.yul\":13637:13656   */\n      swap1\n      pop\n        /* \"#utility.yul\":13296:13662   */\n      swap2\n      swap1\n      pop\n      jump\t// out\n        /* \"#utility.yul\":13668:14087   */\n    tag_90:\n        /* \"#utility.yul\":13834:13838   */\n      0x00\n        /* \"#utility.yul\":13872:13874   */\n      0x20\n        /* \"#utility.yul\":13861:13870   */\n      dup3\n        /* \"#utility.yul\":13857:13875   */\n      add\n        /* \"#utility.yul\":13849:13875   */\n      swap1\n      pop\n        /* \"#utility.yul\":13921:13930   */\n      dup2\n        /* \"#utility.yul\":13915:13919   */\n      dup2\n        /* \"#utility.yul\":13911:13931   */\n      sub\n        /* \"#utility.yul\":13907:13908   */\n      0x00\n        /* \"#utility.yul\":13896:13905   */\n      dup4\n        /* \"#utility.yul\":13892:13909   */\n      add\n        /* \"#utility.yul\":13885:13932   */\n      mstore\n        /* \"#utility.yul\":13949:14080   */\n      tag_433\n        /* \"#utility.yul\":14075:14079   */\n      dup2\n        /* \"#utility.yul\":13949:14080   */\n      tag_275\n      jump\t// in\n    tag_433:\n        /* \"#utility.yul\":13941:14080   */\n      swap1\n      pop\n        /* \"#utility.yul\":13668:14087   */\n      swap2\n      swap1\n      pop\n      jump\t// out\n        /* \"#utility.yul\":14093:14259   */\n    tag_276:\n        /* \"#utility.yul\":14233:14251   */\n      0x416c726561647920756e6c6f636b656400000000000000000000000000000000\n        /* \"#utility.yul\":14229:14230   */\n      0x00\n        /* \"#utility.yul\":14221:14227   */\n      dup3\n        /* \"#utility.yul\":14217:14231   */\n      add\n        /* \"#utility.yul\":14210:14252   */\n      mstore\n        /* \"#utility.yul\":14093:14259   */\n      pop\n      jump\t// out\n        /* \"#utility.yul\":14265:14631   */\n    tag_277:\n        /* \"#utility.yul\":14407:14410   */\n      0x00\n        /* \"#utility.yul\":14428:14495   */\n      tag_436\n        /* \"#utility.yul\":14492:14494   */\n      0x10\n        /* \"#utility.yul\":14487:14490   */\n      dup4\n        /* \"#utility.yul\":14428:14495   */\n      tag_264\n      jump\t// in\n    tag_436:\n        /* \"#utility.yul\":14421:14495   */\n      swap2\n      pop\n        /* \"#utility.yul\":14504:14597   */\n      tag_437\n        /* \"#utility.yul\":14593:14596   */\n      dup3\n        /* \"#utility.yul\":14504:14597   */\n      tag_276\n      jump\t// in\n    tag_437:\n        /* \"#utility.yul\":14622:14624   */\n      0x20\n        /* \"#utility.yul\":14617:14620   */\n      dup3\n        /* \"#utility.yul\":14613:14625   */\n      add\n        /* \"#utility.yul\":14606:14625   */\n      swap1\n      pop\n        /* \"#utility.yul\":14265:14631   */\n      swap2\n      swap1\n      pop\n      jump\t// out\n        /* \"#utility.yul\":14637:15056   */\n    tag_93:\n        /* \"#utility.yul\":14803:14807   */\n      0x00\n        /* \"#utility.yul\":14841:14843   */\n      0x20\n        /* \"#utility.yul\":14830:14839   */\n      dup3\n        /* \"#utility.yul\":14826:14844   */\n      add\n        /* \"#utility.yul\":14818:14844   */\n      swap1\n      pop\n        /* \"#utility.yul\":14890:14899   */\n      dup2\n        /* \"#utility.yul\":14884:14888   */\n      dup2\n        /* \"#utility.yul\":14880:14900   */\n      sub\n        /* \"#utility.yul\":14876:14877   */\n      0x00\n        /* \"#utility.yul\":14865:14874   */\n      dup4\n        /* \"#utility.yul\":14861:14878   */\n      add\n        /* \"#utility.yul\":14854:14901   */\n      mstore\n        /* \"#utility.yul\":14918:15049   */\n      tag_439\n        /* \"#utility.yul\":15044:15048   */\n      dup2\n        /* \"#utility.yul\":14918:15049   */\n      tag_277\n      jump\t// in\n    tag_439:\n        /* \"#utility.yul\":14910:15049   */\n      swap1\n      pop\n        /* \"#utility.yul\":14637:15056   */\n      swap2\n      swap1\n      pop\n      jump\t// out\n        /* \"#utility.yul\":15062:15256   */\n    tag_99:\n        /* \"#utility.yul\":15102:15106   */\n      0x00\n        /* \"#utility.yul\":15122:15142   */\n      tag_441\n        /* \"#utility.yul\":15140:15141   */\n      dup3\n        /* \"#utility.yul\":15122:15142   */\n      tag_248\n      jump\t// in\n    tag_441:\n        /* \"#utility.yul\":15117:15142   */\n      swap2\n      pop\n        /* \"#utility.yul\":15156:15176   */\n      tag_442\n        /* \"#utility.yul\":15174:15175   */\n      dup4\n        /* \"#utility.yul\":15156:15176   */\n      tag_248\n      jump\t// in\n    tag_442:\n        /* \"#utility.yul\":15151:15176   */\n      swap3\n      pop\n        /* \"#utility.yul\":15200:15201   */\n      dup3\n        /* \"#utility.yul\":15197:15198   */\n      dup3\n        /* \"#utility.yul\":15193:15202   */\n      sub\n        /* \"#utility.yul\":15185:15202   */\n      swap1\n      pop\n        /* \"#utility.yul\":15224:15225   */\n      dup2\n        /* \"#utility.yul\":15218:15222   */\n      dup2\n        /* \"#utility.yul\":15215:15226   */\n      gt\n        /* \"#utility.yul\":15212:15249   */\n      iszero\n      tag_443\n      jumpi\n        /* \"#utility.yul\":15229:15247   */\n      tag_444\n      tag_273\n      jump\t// in\n    tag_444:\n        /* \"#utility.yul\":15212:15249   */\n    tag_443:\n        /* \"#utility.yul\":15062:15256   */\n      swap3\n      swap2\n      pop\n      pop\n      jump\t// out\n        /* \"#utility.yul\":15262:15594   */\n    tag_101:\n        /* \"#utility.yul\":15383:15387   */\n      0x00\n        /* \"#utility.yul\":15421:15423   */\n      0x40\n        /* \"#utility.yul\":15410:15419   */\n      dup3\n        /* \"#utility.yul\":15406:15424   */\n      add\n        /* \"#utility.yul\":15398:15424   */\n      swap1\n      pop\n        /* \"#utility.yul\":15434:15505   */\n      tag_446\n        /* \"#utility.yul\":15502:15503   */\n      0x00\n        /* \"#utility.yul\":15491:15500   */\n      dup4\n        /* \"#utility.yul\":15487:15504   */\n      add\n        /* \"#utility.yul\":15478:15484   */\n      dup6\n        /* \"#utility.yul\":15434:15505   */\n      tag_252\n      jump\t// in\n    tag_446:\n        /* \"#utility.yul\":15515:15587   */\n      tag_447\n        /* \"#utility.yul\":15583:15585   */\n      0x20\n        /* \"#utility.yul\":15572:15581   */\n      dup4\n        /* \"#utility.yul\":15568:15586   */\n      add\n        /* \"#utility.yul\":15559:15565   */\n      dup5\n        /* \"#utility.yul\":15515:15587   */\n      tag_249\n      jump\t// in\n    tag_447:\n        /* \"#utility.yul\":15262:15594   */\n      swap4\n      swap3\n      pop\n      pop\n      pop\n      jump\t// out\n        /* \"#utility.yul\":15600:15833   */\n    tag_109:\n        /* \"#utility.yul\":15639:15642   */\n      0x00\n        /* \"#utility.yul\":15662:15686   */\n      tag_449\n        /* \"#utility.yul\":15680:15685   */\n      dup3\n        /* \"#utility.yul\":15662:15686   */\n      tag_248\n      jump\t// in\n    tag_449:\n        /* \"#utility.yul\":15653:15686   */\n      swap2\n      pop\n        /* \"#utility.yul\":15708:15774   */\n      0xffffffffffffffffffffffffffffffffffffffffffffffffffffffffffffffff\n        /* \"#utility.yul\":15701:15706   */\n      dup3\n        /* \"#utility.yul\":15698:15775   */\n      sub\n        /* \"#utility.yul\":15695:15798   */\n      tag_450\n      jumpi\n        /* \"#utility.yul\":15778:15796   */\n      tag_451\n      tag_273\n      jump\t// in\n    tag_451:\n        /* \"#utility.yul\":15695:15798   */\n    tag_450:\n        /* \"#utility.yul\":15825:15826   */\n      0x01\n        /* \"#utility.yul\":15818:15823   */\n      dup3\n        /* \"#utility.yul\":15814:15827   */\n      add\n        /* \"#utility.yul\":15807:15827   */\n      swap1\n      pop\n        /* \"#utility.yul\":15600:15833   */\n      swap2\n      swap1\n      pop\n      jump\t// out\n        /* \"#utility.yul\":15839:16023   */\n    tag_278:\n        /* \"#utility.yul\":15938:15949   */\n      0x00\n        /* \"#utility.yul\":15972:15978   */\n      dup3\n        /* \"#utility.yul\":15967:15970   */\n      dup3\n        /* \"#utility.yul\":15960:15979   */\n      mstore\n        /* \"#utility.yul\":16012:16016   */\n      0x20\n        /* \"#utility.yul\":16007:16010   */\n      dup3\n        /* \"#utility.yul\":16003:16017   */\n      add\n        /* \"#utility.yul\":15988:16017   */\n      swap1\n      pop\n        /* \"#utility.yul\":15839:16023   */\n      swap3\n      swap2\n      pop\n      pop\n      jump\t// out\n        /* \"#utility.yul\":16029:16146   */\n    tag_279:\n        /* \"#utility.yul\":16138:16139   */\n      0x00\n        /* \"#utility.yul\":16135:16136   */\n      dup1\n        /* \"#utility.yul\":16128:16140   */\n      revert\n        /* \"#utility.yul\":16152:16250   */\n    tag_280:\n        /* \"#utility.yul\":16236:16242   */\n      dup3\n        /* \"#utility.yul\":16231:16234   */\n      dup2\n        /* \"#utility.yul\":16226:16229   */\n      dup4\n        /* \"#utility.yul\":16213:16243   */\n      calldatacopy\n        /* \"#utility.yul\":16152:16250   */\n      pop\n      pop\n      pop\n      jump\t// out\n        /* \"#utility.yul\":16286:16823   */\n    tag_281:\n        /* \"#utility.yul\":16414:16417   */\n      0x00\n        /* \"#utility.yul\":16435:16521   */\n      tag_456\n        /* \"#utility.yul\":16514:16520   */\n      dup4\n        /* \"#utility.yul\":16509:16512   */\n      dup6\n        /* \"#utility.yul\":16435:16521   */\n      tag_278\n      jump\t// in\n    tag_456:\n        /* \"#utility.yul\":16428:16521   */\n      swap4\n      pop\n        /* \"#utility.yul\":16545:16611   */\n      0x07ffffffffffffffffffffffffffffffffffffffffffffffffffffffffffffff\n        /* \"#utility.yul\":16537:16543   */\n      dup4\n        /* \"#utility.yul\":16534:16612   */\n      gt\n        /* \"#utility.yul\":16531:16696   */\n      iszero\n      tag_457\n      jumpi\n        /* \"#utility.yul\":16615:16694   */\n      tag_458\n      tag_279\n      jump\t// in\n    tag_458:\n        /* \"#utility.yul\":16531:16696   */\n    tag_457:\n        /* \"#utility.yul\":16727:16731   */\n      0x20\n        /* \"#utility.yul\":16719:16725   */\n      dup4\n        /* \"#utility.yul\":16715:16732   */\n      mul\n        /* \"#utility.yul\":16705:16732   */\n      swap3\n      pop\n        /* \"#utility.yul\":16742:16785   */\n      tag_459\n        /* \"#utility.yul\":16778:16784   */\n      dup4\n        /* \"#utility.yul\":16773:16776   */\n      dup6\n        /* \"#utility.yul\":16766:16771   */\n      dup5\n        /* \"#utility.yul\":16742:16785   */\n      tag_280\n      jump\t// in\n    tag_459:\n        /* \"#utility.yul\":16810:16816   */\n      dup3\n        /* \"#utility.yul\":16805:16808   */\n      dup5\n        /* \"#utility.yul\":16801:16817   */\n      add\n        /* \"#utility.yul\":16794:16817   */\n      swap1\n      pop\n        /* \"#utility.yul\":16286:16823   */\n      swap4\n      swap3\n      pop\n      pop\n      pop\n      jump\t// out\n        /* \"#utility.yul\":16829:17332   */\n    tag_111:\n        /* \"#utility.yul\":17010:17014   */\n      0x00\n        /* \"#utility.yul\":17048:17050   */\n      0x40\n        /* \"#utility.yul\":17037:17046   */\n      dup3\n        /* \"#utility.yul\":17033:17051   */\n      add\n        /* \"#utility.yul\":17025:17051   */\n      swap1\n      pop\n        /* \"#utility.yul\":17097:17106   */\n      dup2\n        /* \"#utility.yul\":17091:17095   */\n      dup2\n        /* \"#utility.yul\":17087:17107   */\n      sub\n        /* \"#utility.yul\":17083:17084   */\n      0x00\n        /* \"#utility.yul\":17072:17081   */\n      dup4\n        /* \"#utility.yul\":17068:17085   */\n      add\n        /* \"#utility.yul\":17061:17108   */\n      mstore\n        /* \"#utility.yul\":17125:17243   */\n      tag_461\n        /* \"#utility.yul\":17238:17242   */\n      dup2\n        /* \"#utility.yul\":17229:17235   */\n      dup6\n        /* \"#utility.yul\":17221:17227   */\n      dup8\n        /* \"#utility.yul\":17125:17243   */\n      tag_281\n      jump\t// in\n    tag_461:\n        /* \"#utility.yul\":17117:17243   */\n      swap1\n      pop\n        /* \"#utility.yul\":17253:17325   */\n      tag_462\n        /* \"#utility.yul\":17321:17323   */\n      0x20\n        /* \"#utility.yul\":17310:17319   */\n      dup4\n        /* \"#utility.yul\":17306:17324   */\n      add\n        /* \"#utility.yul\":17297:17303   */\n      dup5\n        /* \"#utility.yul\":17253:17325   */\n      tag_249\n      jump\t// in\n    tag_462:\n        /* \"#utility.yul\":16829:17332   */\n      swap5\n      swap4\n      pop\n      pop\n      pop\n      pop\n      jump\t// out\n        /* \"#utility.yul\":17338:17519   */\n    tag_282:\n        /* \"#utility.yul\":17478:17511   */\n      0x5265656e7472616e637947756172643a207265656e7472616e742063616c6c00\n        /* \"#utility.yul\":17474:17475   */\n      0x00\n        /* \"#utility.yul\":17466:17472   */\n      dup3\n        /* \"#utility.yul\":17462:17476   */\n      add\n        /* \"#utility.yul\":17455:17512   */\n      mstore\n        /* \"#utility.yul\":17338:17519   */\n      pop\n      jump\t// out\n        /* \"#utility.yul\":17525:17891   */\n    tag_283:\n        /* \"#utility.yul\":17667:17670   */\n      0x00\n        /* \"#utility.yul\":17688:17755   */\n      tag_465\n        /* \"#utility.yul\":17752:17754   */\n      0x1f\n        /* \"#utility.yul\":17747:17750   */\n      dup4\n        /* \"#utility.yul\":17688:17755   */\n      tag_264\n      jump\t// in\n    tag_465:\n        /* \"#utility.yul\":17681:17755   */\n      swap2\n      pop\n        /* \"#utility.yul\":17764:17857   */\n      tag_466\n        /* \"#utility.yul\":17853:17856   */\n      dup3\n        /* \"#utility.yul\":17764:17857   */\n      tag_282\n      jump\t// in\n    tag_466:\n        /* \"#utility.yul\":17882:17884   */\n      0x20\n        /* \"#utility.yul\":17877:17880   */\n      dup3\n        /* \"#utility.yul\":17873:17885   */\n      add\n        /* \"#utility.yul\":17866:17885   */\n      swap1\n      pop\n        /* \"#utility.yul\":17525:17891   */\n      swap2\n      swap1\n      pop\n      jump\t// out\n        /* \"#utility.yul\":17897:18316   */\n    tag_121:\n        /* \"#utility.yul\":18063:18067   */\n      0x00\n        /* \"#utility.yul\":18101:18103   */\n      0x20\n        /* \"#utility.yul\":18090:18099   */\n      dup3\n        /* \"#utility.yul\":18086:18104   */\n      add\n        /* \"#utility.yul\":18078:18104   */\n      swap1\n      pop\n        /* \"#utility.yul\":18150:18159   */\n      dup2\n        /* \"#utility.yul\":18144:18148   */\n      dup2\n        /* \"#utility.yul\":18140:18160   */\n      sub\n        /* \"#utility.yul\":18136:18137   */\n      0x00\n        /* \"#utility.yul\":18125:18134   */\n      dup4\n        /* \"#utility.yul\":18121:18138   */\n      add\n        /* \"#utility.yul\":18114:18161   */\n      mstore\n        /* \"#utility.yul\":18178:18309   */\n      tag_468\n        /* \"#utility.yul\":18304:18308   */\n      dup2\n        /* \"#utility.yul\":18178:18309   */\n      tag_283\n      jump\t// in\n    tag_468:\n        /* \"#utility.yul\":18170:18309   */\n      swap1\n      pop\n        /* \"#utility.yul\":17897:18316   */\n      swap2\n      swap1\n      pop\n      jump\t// out\n        /* \"#utility.yul\":18322:18465   */\n    tag_284:\n        /* \"#utility.yul\":18379:18384   */\n      0x00\n        /* \"#utility.yul\":18410:18416   */\n      dup2\n        /* \"#utility.yul\":18404:18417   */\n      mload\n        /* \"#utility.yul\":18395:18417   */\n      swap1\n      pop\n        /* \"#utility.yul\":18426:18459   */\n      tag_470\n        /* \"#utility.yul\":18453:18458   */\n      dup2\n        /* \"#utility.yul\":18426:18459   */\n      tag_262\n      jump\t// in\n    tag_470:\n        /* \"#utility.yul\":18322:18465   */\n      swap3\n      swap2\n      pop\n      pop\n      jump\t// out\n        /* \"#utility.yul\":18471:18822   */\n    tag_134:\n        /* \"#utility.yul\":18541:18547   */\n      0x00\n        /* \"#utility.yul\":18590:18592   */\n      0x20\n        /* \"#utility.yul\":18578:18587   */\n      dup3\n        /* \"#utility.yul\":18569:18576   */\n      dup5\n        /* \"#utility.yul\":18565:18588   */\n      sub\n        /* \"#utility.yul\":18561:18593   */\n      slt\n        /* \"#utility.yul\":18558:18677   */\n      iszero\n      tag_472\n      jumpi\n        /* \"#utility.yul\":18596:18675   */\n      tag_473\n      tag_237\n      jump\t// in\n    tag_473:\n        /* \"#utility.yul\":18558:18677   */\n    tag_472:\n        /* \"#utility.yul\":18716:18717   */\n      0x00\n        /* \"#utility.yul\":18741:18805   */\n      tag_474\n        /* \"#utility.yul\":18797:18804   */\n      dup5\n        /* \"#utility.yul\":18788:18794   */\n      dup3\n        /* \"#utility.yul\":18777:18786   */\n      dup6\n        /* \"#utility.yul\":18773:18795   */\n      add\n        /* \"#utility.yul\":18741:18805   */\n      tag_284\n      jump\t// in\n    tag_474:\n        /* \"#utility.yul\":18731:18805   */\n      swap2\n      pop\n        /* \"#utility.yul\":18687:18815   */\n      pop\n        /* \"#utility.yul\":18471:18822   */\n      swap3\n      swap2\n      pop\n      pop\n      jump\t// out\n        /* \"#utility.yul\":18828:19003   */\n    tag_285:\n        /* \"#utility.yul\":18968:18995   */\n      0x596f7520646f6e277420686f6c64207468697320746f6b656e00000000000000\n        /* \"#utility.yul\":18964:18965   */\n      0x00\n        /* \"#utility.yul\":18956:18962   */\n      dup3\n        /* \"#utility.yul\":18952:18966   */\n      add\n        /* \"#utility.yul\":18945:18996   */\n      mstore\n        /* \"#utility.yul\":18828:19003   */\n      pop\n      jump\t// out\n        /* \"#utility.yul\":19009:19375   */\n    tag_286:\n        /* \"#utility.yul\":19151:19154   */\n      0x00\n        /* \"#utility.yul\":19172:19239   */\n      tag_477\n        /* \"#utility.yul\":19236:19238   */\n      0x19\n        /* \"#utility.yul\":19231:19234   */\n      dup4\n        /* \"#utility.yul\":19172:19239   */\n      tag_264\n      jump\t// in\n    tag_477:\n        /* \"#utility.yul\":19165:19239   */\n      swap2\n      pop\n        /* \"#utility.yul\":19248:19341   */\n      tag_478\n        /* \"#utility.yul\":19337:19340   */\n      dup3\n        /* \"#utility.yul\":19248:19341   */\n      tag_285\n      jump\t// in\n    tag_478:\n        /* \"#utility.yul\":19366:19368   */\n      0x20\n        /* \"#utility.yul\":19361:19364   */\n      dup3\n        /* \"#utility.yul\":19357:19369   */\n      add\n        /* \"#utility.yul\":19350:19369   */\n      swap1\n      pop\n        /* \"#utility.yul\":19009:19375   */\n      swap2\n      swap1\n      pop\n      jump\t// out\n        /* \"#utility.yul\":19381:19800   */\n    tag_137:\n        /* \"#utility.yul\":19547:19551   */\n      0x00\n        /* \"#utility.yul\":19585:19587   */\n      0x20\n        /* \"#utility.yul\":19574:19583   */\n      dup3\n        /* \"#utility.yul\":19570:19588   */\n      add\n        /* \"#utility.yul\":19562:19588   */\n      swap1\n      pop\n        /* \"#utility.yul\":19634:19643   */\n      dup2\n        /* \"#utility.yul\":19628:19632   */\n      dup2\n        /* \"#utility.yul\":19624:19644   */\n      sub\n        /* \"#utility.yul\":19620:19621   */\n      0x00\n        /* \"#utility.yul\":19609:19618   */\n      dup4\n        /* \"#utility.yul\":19605:19622   */\n      add\n        /* \"#utility.yul\":19598:19645   */\n      mstore\n        /* \"#utility.yul\":19662:19793   */\n      tag_480\n        /* \"#utility.yul\":19788:19792   */\n      dup2\n        /* \"#utility.yul\":19662:19793   */\n      tag_286\n      jump\t// in\n    tag_480:\n        /* \"#utility.yul\":19654:19793   */\n      swap1\n      pop\n        /* \"#utility.yul\":19381:19800   */\n      swap2\n      swap1\n      pop\n      jump\t// out\n        /* \"#utility.yul\":19806:20248   */\n    tag_141:\n        /* \"#utility.yul\":19955:19959   */\n      0x00\n        /* \"#utility.yul\":19993:19995   */\n      0x60\n        /* \"#utility.yul\":19982:19991   */\n      dup3\n        /* \"#utility.yul\":19978:19996   */\n      add\n        /* \"#utility.yul\":19970:19996   */\n      swap1\n      pop\n        /* \"#utility.yul\":20006:20077   */\n      tag_482\n        /* \"#utility.yul\":20074:20075   */\n      0x00\n        /* \"#utility.yul\":20063:20072   */\n      dup4\n        /* \"#utility.yul\":20059:20076   */\n      add\n        /* \"#utility.yul\":20050:20056   */\n      dup7\n        /* \"#utility.yul\":20006:20077   */\n      tag_252\n      jump\t// in\n    tag_482:\n        /* \"#utility.yul\":20087:20159   */\n      tag_483\n        /* \"#utility.yul\":20155:20157   */\n      0x20\n        /* \"#utility.yul\":20144:20153   */\n      dup4\n        /* \"#utility.yul\":20140:20158   */\n      add\n        /* \"#utility.yul\":20131:20137   */\n      dup6\n        /* \"#utility.yul\":20087:20159   */\n      tag_252\n      jump\t// in\n    tag_483:\n        /* \"#utility.yul\":20169:20241   */\n      tag_484\n        /* \"#utility.yul\":20237:20239   */\n      0x40\n        /* \"#utility.yul\":20226:20235   */\n      dup4\n        /* \"#utility.yul\":20222:20240   */\n      add\n        /* \"#utility.yul\":20213:20219   */\n      dup5\n        /* \"#utility.yul\":20169:20241   */\n      tag_249\n      jump\t// in\n    tag_484:\n        /* \"#utility.yul\":19806:20248   */\n      swap5\n      swap4\n      pop\n      pop\n      pop\n      pop\n      jump\t// out\n        /* \"#utility.yul\":20254:20647   */\n    tag_149:\n        /* \"#utility.yul\":20407:20411   */\n      0x00\n        /* \"#utility.yul\":20445:20447   */\n      0x20\n        /* \"#utility.yul\":20434:20443   */\n      dup3\n        /* \"#utility.yul\":20430:20448   */\n      add\n        /* \"#utility.yul\":20422:20448   */\n      swap1\n      pop\n        /* \"#utility.yul\":20494:20503   */\n      dup2\n        /* \"#utility.yul\":20488:20492   */\n      dup2\n        /* \"#utility.yul\":20484:20504   */\n      sub\n        /* \"#utility.yul\":20480:20481   */\n      0x00\n        /* \"#utility.yul\":20469:20478   */\n      dup4\n        /* \"#utility.yul\":20465:20482   */\n      add\n        /* \"#utility.yul\":20458:20505   */\n      mstore\n        /* \"#utility.yul\":20522:20640   */\n      tag_486\n        /* \"#utility.yul\":20635:20639   */\n      dup2\n        /* \"#utility.yul\":20626:20632   */\n      dup5\n        /* \"#utility.yul\":20618:20624   */\n      dup7\n        /* \"#utility.yul\":20522:20640   */\n      tag_281\n      jump\t// in\n    tag_486:\n        /* \"#utility.yul\":20514:20640   */\n      swap1\n      pop\n        /* \"#utility.yul\":20254:20647   */\n      swap4\n      swap3\n      pop\n      pop\n      pop\n      jump\t// out\n        /* \"#utility.yul\":20653:20823   */\n    tag_287:\n        /* \"#utility.yul\":20793:20815   */\n      0x496e76616c6964206c6f636b20706572696f642e000000000000000000000000\n        /* \"#utility.yul\":20789:20790   */\n      0x00\n        /* \"#utility.yul\":20781:20787   */\n      dup3\n        /* \"#utility.yul\":20777:20791   */\n      add\n        /* \"#utility.yul\":20770:20816   */\n      mstore\n        /* \"#utility.yul\":20653:20823   */\n      pop\n      jump\t// out\n        /* \"#utility.yul\":20829:21195   */\n    tag_288:\n        /* \"#utility.yul\":20971:20974   */\n      0x00\n        /* \"#utility.yul\":20992:21059   */\n      tag_489\n        /* \"#utility.yul\":21056:21058   */\n      0x14\n        /* \"#utility.yul\":21051:21054   */\n      dup4\n        /* \"#utility.yul\":20992:21059   */\n      tag_264\n      jump\t// in\n    tag_489:\n        /* \"#utility.yul\":20985:21059   */\n      swap2\n      pop\n        /* \"#utility.yul\":21068:21161   */\n      tag_490\n        /* \"#utility.yul\":21157:21160   */\n      dup3\n        /* \"#utility.yul\":21068:21161   */\n      tag_287\n      jump\t// in\n    tag_490:\n        /* \"#utility.yul\":21186:21188   */\n      0x20\n        /* \"#utility.yul\":21181:21184   */\n      dup3\n        /* \"#utility.yul\":21177:21189   */\n      add\n        /* \"#utility.yul\":21170:21189   */\n      swap1\n      pop\n        /* \"#utility.yul\":20829:21195   */\n      swap2\n      swap1\n      pop\n      jump\t// out\n        /* \"#utility.yul\":21201:21620   */\n    tag_161:\n        /* \"#utility.yul\":21367:21371   */\n      0x00\n        /* \"#utility.yul\":21405:21407   */\n      0x20\n        /* \"#utility.yul\":21394:21403   */\n      dup3\n        /* \"#utility.yul\":21390:21408   */\n      add\n        /* \"#utility.yul\":21382:21408   */\n      swap1\n      pop\n        /* \"#utility.yul\":21454:21463   */\n      dup2\n        /* \"#utility.yul\":21448:21452   */\n      dup2\n        /* \"#utility.yul\":21444:21464   */\n      sub\n        /* \"#utility.yul\":21440:21441   */\n      0x00\n        /* \"#utility.yul\":21429:21438   */\n      dup4\n        /* \"#utility.yul\":21425:21442   */\n      add\n        /* \"#utility.yul\":21418:21465   */\n      mstore\n        /* \"#utility.yul\":21482:21613   */\n      tag_492\n        /* \"#utility.yul\":21608:21612   */\n      dup2\n        /* \"#utility.yul\":21482:21613   */\n      tag_288\n      jump\t// in\n    tag_492:\n        /* \"#utility.yul\":21474:21613   */\n      swap1\n      pop\n        /* \"#utility.yul\":21201:21620   */\n      swap2\n      swap1\n      pop\n      jump\t// out\n        /* \"#utility.yul\":21626:21798   */\n    tag_289:\n        /* \"#utility.yul\":21766:21790   */\n      0x4e6f742061626c6520746f20756e6c6f636b2079657400000000000000000000\n        /* \"#utility.yul\":21762:21763   */\n      0x00\n        /* \"#utility.yul\":21754:21760   */\n      dup3\n        /* \"#utility.yul\":21750:21764   */\n      add\n        /* \"#utility.yul\":21743:21791   */\n      mstore\n        /* \"#utility.yul\":21626:21798   */\n      pop\n      jump\t// out\n        /* \"#utility.yul\":21804:22170   */\n    tag_290:\n        /* \"#utility.yul\":21946:21949   */\n      0x00\n        /* \"#utility.yul\":21967:22034   */\n      tag_495\n        /* \"#utility.yul\":22031:22033   */\n      0x16\n        /* \"#utility.yul\":22026:22029   */\n      dup4\n        /* \"#utility.yul\":21967:22034   */\n      tag_264\n      jump\t// in\n    tag_495:\n        /* \"#utility.yul\":21960:22034   */\n      swap2\n      pop\n        /* \"#utility.yul\":22043:22136   */\n      tag_496\n        /* \"#utility.yul\":22132:22135   */\n      dup3\n        /* \"#utility.yul\":22043:22136   */\n      tag_289\n      jump\t// in\n    tag_496:\n        /* \"#utility.yul\":22161:22163   */\n      0x20\n        /* \"#utility.yul\":22156:22159   */\n      dup3\n        /* \"#utility.yul\":22152:22164   */\n      add\n        /* \"#utility.yul\":22145:22164   */\n      swap1\n      pop\n        /* \"#utility.yul\":21804:22170   */\n      swap2\n      swap1\n      pop\n      jump\t// out\n        /* \"#utility.yul\":22176:22595   */\n    tag_186:\n        /* \"#utility.yul\":22342:22346   */\n      0x00\n        /* \"#utility.yul\":22380:22382   */\n      0x20\n        /* \"#utility.yul\":22369:22378   */\n      dup3\n        /* \"#utility.yul\":22365:22383   */\n      add\n        /* \"#utility.yul\":22357:22383   */\n      swap1\n      pop\n        /* \"#utility.yul\":22429:22438   */\n      dup2\n        /* \"#utility.yul\":22423:22427   */\n      dup2\n        /* \"#utility.yul\":22419:22439   */\n      sub\n        /* \"#utility.yul\":22415:22416   */\n      0x00\n        /* \"#utility.yul\":22404:22413   */\n      dup4\n        /* \"#utility.yul\":22400:22417   */\n      add\n        /* \"#utility.yul\":22393:22440   */\n      mstore\n        /* \"#utility.yul\":22457:22588   */\n      tag_498\n        /* \"#utility.yul\":22583:22587   */\n      dup2\n        /* \"#utility.yul\":22457:22588   */\n      tag_290\n      jump\t// in\n    tag_498:\n        /* \"#utility.yul\":22449:22588   */\n      swap1\n      pop\n        /* \"#utility.yul\":22176:22595   */\n      swap2\n      swap1\n      pop\n      jump\t// out\n        /* \"#utility.yul\":22601:22826   */\n    tag_291:\n        /* \"#utility.yul\":22741:22775   */\n      0x4f776e61626c653a206e6577206f776e657220697320746865207a65726f2061\n        /* \"#utility.yul\":22737:22738   */\n      0x00\n        /* \"#utility.yul\":22729:22735   */\n      dup3\n        /* \"#utility.yul\":22725:22739   */\n      add\n        /* \"#utility.yul\":22718:22776   */\n      mstore\n        /* \"#utility.yul\":22810:22818   */\n      0x6464726573730000000000000000000000000000000000000000000000000000\n        /* \"#utility.yul\":22805:22807   */\n      0x20\n        /* \"#utility.yul\":22797:22803   */\n      dup3\n        /* \"#utility.yul\":22793:22808   */\n      add\n        /* \"#utility.yul\":22786:22819   */\n      mstore\n        /* \"#utility.yul\":22601:22826   */\n      pop\n      jump\t// out\n        /* \"#utility.yul\":22832:23198   */\n    tag_292:\n        /* \"#utility.yul\":22974:22977   */\n      0x00\n        /* \"#utility.yul\":22995:23062   */\n      tag_501\n        /* \"#utility.yul\":23059:23061   */\n      0x26\n        /* \"#utility.yul\":23054:23057   */\n      dup4\n        /* \"#utility.yul\":22995:23062   */\n      tag_264\n      jump\t// in\n    tag_501:\n        /* \"#utility.yul\":22988:23062   */\n      swap2\n      pop\n        /* \"#utility.yul\":23071:23164   */\n      tag_502\n        /* \"#utility.yul\":23160:23163   */\n      dup3\n        /* \"#utility.yul\":23071:23164   */\n      tag_291\n      jump\t// in\n    tag_502:\n        /* \"#utility.yul\":23189:23191   */\n      0x40\n        /* \"#utility.yul\":23184:23187   */\n      dup3\n        /* \"#utility.yul\":23180:23192   */\n      add\n        /* \"#utility.yul\":23173:23192   */\n      swap1\n      pop\n        /* \"#utility.yul\":22832:23198   */\n      swap2\n      swap1\n      pop\n      jump\t// out\n        /* \"#utility.yul\":23204:23623   */\n    tag_215:\n        /* \"#utility.yul\":23370:23374   */\n      0x00\n        /* \"#utility.yul\":23408:23410   */\n      0x20\n        /* \"#utility.yul\":23397:23406   */\n      dup3\n        /* \"#utility.yul\":23393:23411   */\n      add\n        /* \"#utility.yul\":23385:23411   */\n      swap1\n      pop\n        /* \"#utility.yul\":23457:23466   */\n      dup2\n        /* \"#utility.yul\":23451:23455   */\n      dup2\n        /* \"#utility.yul\":23447:23467   */\n      sub\n        /* \"#utility.yul\":23443:23444   */\n      0x00\n        /* \"#utility.yul\":23432:23441   */\n      dup4\n        /* \"#utility.yul\":23428:23445   */\n      add\n        /* \"#utility.yul\":23421:23468   */\n      mstore\n        /* \"#utility.yul\":23485:23616   */\n      tag_504\n        /* \"#utility.yul\":23611:23615   */\n      dup2\n        /* \"#utility.yul\":23485:23616   */\n      tag_292\n      jump\t// in\n    tag_504:\n        /* \"#utility.yul\":23477:23616   */\n      swap1\n      pop\n        /* \"#utility.yul\":23204:23623   */\n      swap2\n      swap1\n      pop\n      jump\t// out\n        /* \"#utility.yul\":23629:23977   */\n    tag_224:\n        /* \"#utility.yul\":23669:23676   */\n      0x00\n        /* \"#utility.yul\":23692:23712   */\n      tag_506\n        /* \"#utility.yul\":23710:23711   */\n      dup3\n        /* \"#utility.yul\":23692:23712   */\n      tag_248\n      jump\t// in\n    tag_506:\n        /* \"#utility.yul\":23687:23712   */\n      swap2\n      pop\n        /* \"#utility.yul\":23726:23746   */\n      tag_507\n        /* \"#utility.yul\":23744:23745   */\n      dup4\n        /* \"#utility.yul\":23726:23746   */\n      tag_248\n      jump\t// in\n    tag_507:\n        /* \"#utility.yul\":23721:23746   */\n      swap3\n      pop\n        /* \"#utility.yul\":23914:23915   */\n      dup2\n        /* \"#utility.yul\":23846:23912   */\n      0xffffffffffffffffffffffffffffffffffffffffffffffffffffffffffffffff\n        /* \"#utility.yul\":23842:23916   */\n      div\n        /* \"#utility.yul\":23839:23840   */\n      dup4\n        /* \"#utility.yul\":23836:23917   */\n      gt\n        /* \"#utility.yul\":23831:23832   */\n      dup3\n        /* \"#utility.yul\":23824:23833   */\n      iszero\n        /* \"#utility.yul\":23817:23834   */\n      iszero\n        /* \"#utility.yul\":23813:23918   */\n      and\n        /* \"#utility.yul\":23810:23941   */\n      iszero\n      tag_508\n      jumpi\n        /* \"#utility.yul\":23921:23939   */\n      tag_509\n      tag_273\n      jump\t// in\n    tag_509:\n        /* \"#utility.yul\":23810:23941   */\n    tag_508:\n        /* \"#utility.yul\":23969:23970   */\n      dup3\n        /* \"#utility.yul\":23966:23967   */\n      dup3\n        /* \"#utility.yul\":23962:23971   */\n      mul\n        /* \"#utility.yul\":23951:23971   */\n      swap1\n      pop\n        /* \"#utility.yul\":23629:23977   */\n      swap3\n      swap2\n      pop\n      pop\n      jump\t// out\n        /* \"#utility.yul\":23983:24163   */\n    tag_293:\n        /* \"#utility.yul\":24031:24108   */\n      0x4e487b7100000000000000000000000000000000000000000000000000000000\n        /* \"#utility.yul\":24028:24029   */\n      0x00\n        /* \"#utility.yul\":24021:24109   */\n      mstore\n        /* \"#utility.yul\":24128:24132   */\n      0x12\n        /* \"#utility.yul\":24125:24126   */\n      0x04\n        /* \"#utility.yul\":24118:24133   */\n      mstore\n        /* \"#utility.yul\":24152:24156   */\n      0x24\n        /* \"#utility.yul\":24149:24150   */\n      0x00\n        /* \"#utility.yul\":24142:24157   */\n      revert\n        /* \"#utility.yul\":24169:24354   */\n    tag_226:\n        /* \"#utility.yul\":24209:24210   */\n      0x00\n        /* \"#utility.yul\":24226:24246   */\n      tag_512\n        /* \"#utility.yul\":24244:24245   */\n      dup3\n        /* \"#utility.yul\":24226:24246   */\n      tag_248\n      jump\t// in\n    tag_512:\n        /* \"#utility.yul\":24221:24246   */\n      swap2\n      pop\n        /* \"#utility.yul\":24260:24280   */\n      tag_513\n        /* \"#utility.yul\":24278:24279   */\n      dup4\n        /* \"#utility.yul\":24260:24280   */\n      tag_248\n      jump\t// in\n    tag_513:\n        /* \"#utility.yul\":24255:24280   */\n      swap3\n      pop\n        /* \"#utility.yul\":24299:24300   */\n      dup3\n        /* \"#utility.yul\":24289:24324   */\n      tag_514\n      jumpi\n        /* \"#utility.yul\":24304:24322   */\n      tag_515\n      tag_293\n      jump\t// in\n    tag_515:\n        /* \"#utility.yul\":24289:24324   */\n    tag_514:\n        /* \"#utility.yul\":24346:24347   */\n      dup3\n        /* \"#utility.yul\":24343:24344   */\n      dup3\n        /* \"#utility.yul\":24339:24348   */\n      div\n        /* \"#utility.yul\":24334:24348   */\n      swap1\n      pop\n        /* \"#utility.yul\":24169:24354   */\n      swap3\n      swap2\n      pop\n      pop\n      jump\t// out\n        /* \"#utility.yul\":24360:24542   */\n    tag_294:\n        /* \"#utility.yul\":24500:24534   */\n      0x4f776e61626c653a2063616c6c6572206973206e6f7420746865206f776e6572\n        /* \"#utility.yul\":24496:24497   */\n      0x00\n        /* \"#utility.yul\":24488:24494   */\n      dup3\n        /* \"#utility.yul\":24484:24498   */\n      add\n        /* \"#utility.yul\":24477:24535   */\n      mstore\n        /* \"#utility.yul\":24360:24542   */\n      pop\n      jump\t// out\n        /* \"#utility.yul\":24548:24914   */\n    tag_295:\n        /* \"#utility.yul\":24690:24693   */\n      0x00\n        /* \"#utility.yul\":24711:24778   */\n      tag_518\n        /* \"#utility.yul\":24775:24777   */\n      0x20\n        /* \"#utility.yul\":24770:24773   */\n      dup4\n        /* \"#utility.yul\":24711:24778   */\n      tag_264\n      jump\t// in\n    tag_518:\n        /* \"#utility.yul\":24704:24778   */\n      swap2\n      pop\n        /* \"#utility.yul\":24787:24880   */\n      tag_519\n        /* \"#utility.yul\":24876:24879   */\n      dup3\n        /* \"#utility.yul\":24787:24880   */\n      tag_294\n      jump\t// in\n    tag_519:\n        /* \"#utility.yul\":24905:24907   */\n      0x20\n        /* \"#utility.yul\":24900:24903   */\n      dup3\n        /* \"#utility.yul\":24896:24908   */\n      add\n        /* \"#utility.yul\":24889:24908   */\n      swap1\n      pop\n        /* \"#utility.yul\":24548:24914   */\n      swap2\n      swap1\n      pop\n      jump\t// out\n        /* \"#utility.yul\":24920:25339   */\n    tag_233:\n        /* \"#utility.yul\":25086:25090   */\n      0x00\n        /* \"#utility.yul\":25124:25126   */\n      0x20\n        /* \"#utility.yul\":25113:25122   */\n      dup3\n        /* \"#utility.yul\":25109:25127   */\n      add\n        /* \"#utility.yul\":25101:25127   */\n      swap1\n      pop\n        /* \"#utility.yul\":25173:25182   */\n      dup2\n        /* \"#utility.yul\":25167:25171   */\n      dup2\n        /* \"#utility.yul\":25163:25183   */\n      sub\n        /* \"#utility.yul\":25159:25160   */\n      0x00\n        /* \"#utility.yul\":25148:25157   */\n      dup4\n        /* \"#utility.yul\":25144:25161   */\n      add\n        /* \"#utility.yul\":25137:25184   */\n      mstore\n        /* \"#utility.yul\":25201:25332   */\n      tag_521\n        /* \"#utility.yul\":25327:25331   */\n      dup2\n        /* \"#utility.yul\":25201:25332   */\n      tag_295\n      jump\t// in\n    tag_521:\n        /* \"#utility.yul\":25193:25332   */\n      swap1\n      pop\n        /* \"#utility.yul\":24920:25339   */\n      swap2\n      swap1\n      pop\n      jump\t// out\n\n    auxdata: 0xa2646970667358221220296ec1ed1f371249e3fee2014fff3ddcb54b472b8b91939e381c9fe96a93245e64736f6c63430008100033\n}\n",
				"bytecode": {
					"linkReferences": {},
					"object": "60806040523480156200001157600080fd5b5060405162002edf38038062002edf83398181016040528101906200003791906200066a565b620000576200004b6200029f60201b60201c565b620002a760201b60201c565b6001808190555060008411620000a4576040517f08c379a00000000000000000000000000000000000000000000000000000000081526004016200009b90620007e3565b60405180910390fd5b60005b86518110156200028457858181518110620000c757620000c662000805565b5b602002602001015160046000898481518110620000e957620000e862000805565b5b602002602001015173ffffffffffffffffffffffffffffffffffffffff1673ffffffffffffffffffffffffffffffffffffffff16815260200190815260200160002060000160006101000a81548173ffffffffffffffffffffffffffffffffffffffff021916908373ffffffffffffffffffffffffffffffffffffffff16021790555083818151811062000182576200018162000805565b5b602002602001015160046000898481518110620001a457620001a362000805565b5b602002602001015173ffffffffffffffffffffffffffffffffffffffff1673ffffffffffffffffffffffffffffffffffffffff1681526020019081526020016000206001018190555082818151811062000203576200020262000805565b5b60200260200101516004600089848151811062000225576200022462000805565b5b602002602001015173ffffffffffffffffffffffffffffffffffffffff1673ffffffffffffffffffffffffffffffffffffffff1681526020019081526020016000206002018190555080806200027b9062000863565b915050620000a7565b508360028190555080600581905550505050505050620008b0565b600033905090565b60008060009054906101000a900473ffffffffffffffffffffffffffffffffffffffff169050816000806101000a81548173ffffffffffffffffffffffffffffffffffffffff021916908373ffffffffffffffffffffffffffffffffffffffff1602179055508173ffffffffffffffffffffffffffffffffffffffff168173ffffffffffffffffffffffffffffffffffffffff167f8be0079c531659141344cd1fd0a4f28419497f9722a3daafe3b4186f6b6457e060405160405180910390a35050565b6000604051905090565b600080fd5b600080fd5b600080fd5b6000601f19601f8301169050919050565b7f4e487b7100000000000000000000000000000000000000000000000000000000600052604160045260246000fd5b620003cf8262000384565b810181811067ffffffffffffffff82111715620003f157620003f062000395565b5b80604052505050565b6000620004066200036b565b9050620004148282620003c4565b919050565b600067ffffffffffffffff82111562000437576200043662000395565b5b602082029050602081019050919050565b600080fd5b600073ffffffffffffffffffffffffffffffffffffffff82169050919050565b60006200047a826200044d565b9050919050565b6200048c816200046d565b81146200049857600080fd5b50565b600081519050620004ac8162000481565b92915050565b6000620004c9620004c38462000419565b620003fa565b90508083825260208201905060208402830185811115620004ef57620004ee62000448565b5b835b818110156200051c57806200050788826200049b565b845260208401935050602081019050620004f1565b5050509392505050565b600082601f8301126200053e576200053d6200037f565b5b815162000550848260208601620004b2565b91505092915050565b6000819050919050565b6200056e8162000559565b81146200057a57600080fd5b50565b6000815190506200058e8162000563565b92915050565b600067ffffffffffffffff821115620005b257620005b162000395565b5b602082029050602081019050919050565b6000620005da620005d48462000594565b620003fa565b905080838252602082019050602084028301858111156200060057620005ff62000448565b5b835b818110156200062d57806200061888826200057d565b84526020840193505060208101905062000602565b5050509392505050565b600082601f8301126200064f576200064e6200037f565b5b815162000661848260208601620005c3565b91505092915050565b60008060008060008060c087890312156200068a576200068962000375565b5b600087015167ffffffffffffffff811115620006ab57620006aa6200037a565b5b620006b989828a0162000526565b965050602087015167ffffffffffffffff811115620006dd57620006dc6200037a565b5b620006eb89828a0162000526565b9550506040620006fe89828a016200057d565b945050606087015167ffffffffffffffff8111156200072257620007216200037a565b5b6200073089828a0162000637565b935050608087015167ffffffffffffffff8111156200075457620007536200037a565b5b6200076289828a0162000637565b92505060a06200077589828a016200057d565b9150509295509295509295565b600082825260208201905092915050565b7f496e76616c6964206c6f636b20706572696f6400000000000000000000000000600082015250565b6000620007cb60138362000782565b9150620007d88262000793565b602082019050919050565b60006020820190508181036000830152620007fe81620007bc565b9050919050565b7f4e487b7100000000000000000000000000000000000000000000000000000000600052603260045260246000fd5b7f4e487b7100000000000000000000000000000000000000000000000000000000600052601160045260246000fd5b6000620008708262000559565b91507fffffffffffffffffffffffffffffffffffffffffffffffffffffffffffffffff8203620008a557620008a462000834565b5b600182019050919050565b61261f80620008c06000396000f3fe608060405234801561001057600080fd5b50600436106100b45760003560e01c80639f3625f0116100715780639f3625f014610153578063b2520a7c1461016f578063b33068c4146101a3578063c69d1923146101d3578063e9545b92146101f1578063f2fde38b14610223576100b4565b80630520537f146100b95780631902732e146100d55780633fd8b02f146100f1578063715018a61461010f578063779972da146101195780638da5cb5b14610135575b600080fd5b6100d360048036038101906100ce9190611a25565b61023f565b005b6100ef60048036038101906100ea9190611a25565b6107ba565b005b6100f9610ca5565b6040516101069190611a9e565b60405180910390f35b610117610cab565b005b610133600480360381019061012e9190611ae5565b610cbf565b005b61013d610d4b565b60405161014a9190611b21565b60405180910390f35b61016d60048036038101906101689190611a25565b610d74565b005b61018960048036038101906101849190611b3c565b61143a565b60405161019a959493929190611bf6565b60405180910390f35b6101bd60048036038101906101b89190611c49565b6114ca565b6040516101ca9190611a9e565b60405180910390f35b6101db611528565b6040516101e89190611a9e565b60405180910390f35b61020b60048036038101906102069190611c89565b61152e565b60405161021a93929190611cd7565b60405180910390f35b61023d60048036038101906102389190611d3a565b611578565b005b61025e3373ffffffffffffffffffffffffffffffffffffffff166115fb565b1561029e576040517f08c379a000000000000000000000000000000000000000000000000000000000815260040161029590611dc4565b60405180910390fd5b3273ffffffffffffffffffffffffffffffffffffffff163373ffffffffffffffffffffffffffffffffffffffff161461030c576040517f08c379a000000000000000000000000000000000000000000000000000000000815260040161030390611e30565b60405180910390fd5b60008383905011610352576040517f08c379a000000000000000000000000000000000000000000000000000000000815260040161034990611e9c565b60405180910390fd5b600080600090505b84849050811015610761576000600360008573ffffffffffffffffffffffffffffffffffffffff1673ffffffffffffffffffffffffffffffffffffffff16815260200190815260200160002060008787858181106103bb576103ba611ebc565b5b9050602002013581526020019081526020016000206040518060a00160405290816000820160009054906101000a900473ffffffffffffffffffffffffffffffffffffffff1673ffffffffffffffffffffffffffffffffffffffff1673ffffffffffffffffffffffffffffffffffffffff16815260200160018201548152602001600282015481526020016003820160009054906101000a900460ff161515151581526020016003820160019054906101000a900473ffffffffffffffffffffffffffffffffffffffff1673ffffffffffffffffffffffffffffffffffffffff1673ffffffffffffffffffffffffffffffffffffffff168152505090503373ffffffffffffffffffffffffffffffffffffffff16816000015173ffffffffffffffffffffffffffffffffffffffff161461052a576040517f08c379a000000000000000000000000000000000000000000000000000000000815260040161052190611f37565b60405180910390fd5b42600254826020015161053d9190611f86565b1061057d576040517f08c379a000000000000000000000000000000000000000000000000000000000815260040161057490612006565b60405180910390fd5b8060600151156105c2576040517f08c379a00000000000000000000000000000000000000000000000000000000081526004016105b990612072565b60405180910390fd5b60006105e78787858181106105da576105d9611ebc565b5b905060200201358661161e565b905060008260400151826105fb9190612092565b9050600460008773ffffffffffffffffffffffffffffffffffffffff1673ffffffffffffffffffffffffffffffffffffffff16815260200190815260200160002060000160009054906101000a900473ffffffffffffffffffffffffffffffffffffffff1673ffffffffffffffffffffffffffffffffffffffff166340c10f1933836040518363ffffffff1660e01b815260040161069a9291906120c6565b600060405180830381600087803b1580156106b457600080fd5b505af11580156106c8573d6000803e3d6000fd5b5050505080856106d89190611f86565b945081600360008873ffffffffffffffffffffffffffffffffffffffff1673ffffffffffffffffffffffffffffffffffffffff16815260200190815260200160002060008a8a8881811061072f5761072e611ebc565b5b905060200201358152602001908152602001600020600201819055505050508080610759906120ef565b91505061035a565b503373ffffffffffffffffffffffffffffffffffffffff167f37826be3c26dbad83731f4b985f22fa9ef86b6d1974cd77208332b7f1f283c0c8585846040516107ac939291906121b2565b60405180910390a250505050565b6107d93373ffffffffffffffffffffffffffffffffffffffff166115fb565b15610819576040517f08c379a000000000000000000000000000000000000000000000000000000000815260040161081090611dc4565b60405180910390fd5b3273ffffffffffffffffffffffffffffffffffffffff163373ffffffffffffffffffffffffffffffffffffffff1614610887576040517f08c379a000000000000000000000000000000000000000000000000000000000815260040161087e90611e30565b60405180910390fd5b6002600154036108cc576040517f08c379a00000000000000000000000000000000000000000000000000000000081526004016108c390612230565b60405180910390fd5b60026001819055506000838390501161091a576040517f08c379a000000000000000000000000000000000000000000000000000000000815260040161091190611e9c565b60405180910390fd5b60005b83839050811015610c48573373ffffffffffffffffffffffffffffffffffffffff168273ffffffffffffffffffffffffffffffffffffffff16636352211e86868581811061096e5761096d611ebc565b5b905060200201356040518263ffffffff1660e01b81526004016109919190611a9e565b602060405180830381865afa1580156109ae573d6000803e3d6000fd5b505050506040513d601f19601f820116820180604052508101906109d29190612265565b73ffffffffffffffffffffffffffffffffffffffff1614610a28576040517f08c379a0000000000000000000000000000000000000000000000000000000008152600401610a1f906122de565b60405180910390fd5b8173ffffffffffffffffffffffffffffffffffffffff166323b872dd3330878786818110610a5957610a58611ebc565b5b905060200201356040518463ffffffff1660e01b8152600401610a7e939291906122fe565b600060405180830381600087803b158015610a9857600080fd5b505af1158015610aac573d6000803e3d6000fd5b505050506040518060a001604052803373ffffffffffffffffffffffffffffffffffffffff168152602001428152602001600081526020016000151581526020018373ffffffffffffffffffffffffffffffffffffffff16815250600360008473ffffffffffffffffffffffffffffffffffffffff1673ffffffffffffffffffffffffffffffffffffffff1681526020019081526020016000206000868685818110610b5b57610b5a611ebc565b5b90506020020135815260200190815260200160002060008201518160000160006101000a81548173ffffffffffffffffffffffffffffffffffffffff021916908373ffffffffffffffffffffffffffffffffffffffff160217905550602082015181600101556040820151816002015560608201518160030160006101000a81548160ff02191690831515021790555060808201518160030160016101000a81548173ffffffffffffffffffffffffffffffffffffffff021916908373ffffffffffffffffffffffffffffffffffffffff1602179055509050508080610c40906120ef565b91505061091d565b503373ffffffffffffffffffffffffffffffffffffffff167f458be0227bccc9e803dec79bd16767eeaf9925d2ce708eeed7ae1f3621f968f98484604051610c91929190612335565b60405180910390a260018081905550505050565b60025481565b610cb36117fc565b610cbd600061187a565b565b610cc76117fc565b60008111610d0a576040517f08c379a0000000000000000000000000000000000000000000000000000000008152600401610d01906123a5565b60405180910390fd5b806002819055507f8249ec545e68f6f1e1230133ca48c704d831a7f8e635ded80f3dd9e99b09bb2f81604051610d409190611a9e565b60405180910390a150565b60008060009054906101000a900473ffffffffffffffffffffffffffffffffffffffff16905090565b610d933373ffffffffffffffffffffffffffffffffffffffff166115fb565b15610dd3576040517f08c379a0000000000000000000000000000000000000000000000000000000008152600401610dca90611dc4565b60405180910390fd5b3273ffffffffffffffffffffffffffffffffffffffff163373ffffffffffffffffffffffffffffffffffffffff1614610e41576040517f08c379a0000000000000000000000000000000000000000000000000000000008152600401610e3890611e30565b60405180910390fd5b600260015403610e86576040517f08c379a0000000000000000000000000000000000000000000000000000000008152600401610e7d90612230565b60405180910390fd5b600260018190555060008383905011610ed4576040517f08c379a0000000000000000000000000000000000000000000000000000000008152600401610ecb90611e9c565b60405180910390fd5b60005b838390508110156113dd576000600360008473ffffffffffffffffffffffffffffffffffffffff1673ffffffffffffffffffffffffffffffffffffffff1681526020019081526020016000206000868685818110610f3857610f37611ebc565b5b9050602002013581526020019081526020016000206040518060a00160405290816000820160009054906101000a900473ffffffffffffffffffffffffffffffffffffffff1673ffffffffffffffffffffffffffffffffffffffff1673ffffffffffffffffffffffffffffffffffffffff16815260200160018201548152602001600282015481526020016003820160009054906101000a900460ff161515151581526020016003820160019054906101000a900473ffffffffffffffffffffffffffffffffffffffff1673ffffffffffffffffffffffffffffffffffffffff1673ffffffffffffffffffffffffffffffffffffffff168152505090503373ffffffffffffffffffffffffffffffffffffffff16816000015173ffffffffffffffffffffffffffffffffffffffff16146110a7576040517f08c379a000000000000000000000000000000000000000000000000000000000815260040161109e90611f37565b60405180910390fd5b4260025482602001516110ba9190611f86565b106110fa576040517f08c379a00000000000000000000000000000000000000000000000000000000081526004016110f190612411565b60405180910390fd5b80606001511561113f576040517f08c379a000000000000000000000000000000000000000000000000000000000815260040161113690612072565b60405180910390fd5b8273ffffffffffffffffffffffffffffffffffffffff166323b872dd30338888878181106111705761116f611ebc565b5b905060200201356040518463ffffffff1660e01b8152600401611195939291906122fe565b600060405180830381600087803b1580156111af57600080fd5b505af11580156111c3573d6000803e3d6000fd5b5050505060006111ec8686858181106111df576111de611ebc565b5b905060200201358561161e565b905060008260400151826112009190612092565b9050600460008673ffffffffffffffffffffffffffffffffffffffff1673ffffffffffffffffffffffffffffffffffffffff16815260200190815260200160002060000160009054906101000a900473ffffffffffffffffffffffffffffffffffffffff1673ffffffffffffffffffffffffffffffffffffffff166340c10f1933836040518363ffffffff1660e01b815260040161129f9291906120c6565b600060405180830381600087803b1580156112b957600080fd5b505af11580156112cd573d6000803e3d6000fd5b5050505081600360008773ffffffffffffffffffffffffffffffffffffffff1673ffffffffffffffffffffffffffffffffffffffff168152602001908152602001600020600089898881811061132657611325611ebc565b5b905060200201358152602001908152602001600020600201819055506001600360008773ffffffffffffffffffffffffffffffffffffffff1673ffffffffffffffffffffffffffffffffffffffff168152602001908152602001600020600089898881811061139857611397611ebc565b5b90506020020135815260200190815260200160002060030160006101000a81548160ff02191690831515021790555050505080806113d5906120ef565b915050610ed7565b503373ffffffffffffffffffffffffffffffffffffffff167f5cb48022479b9ac3bfb10a27965dc010acffc9fc1bc9a52f0b18975b944b54ca8484604051611426929190612335565b60405180910390a260018081905550505050565b6003602052816000526040600020602052806000526040600020600091509150508060000160009054906101000a900473ffffffffffffffffffffffffffffffffffffffff16908060010154908060020154908060030160009054906101000a900460ff16908060030160019054906101000a900473ffffffffffffffffffffffffffffffffffffffff16905085565b6000600360008373ffffffffffffffffffffffffffffffffffffffff1673ffffffffffffffffffffffffffffffffffffffff168152602001908152602001600020600084815260200190815260200160002060020154905092915050565b60055481565b60046020528060005260406000206000915090508060000160009054906101000a900473ffffffffffffffffffffffffffffffffffffffff16908060010154908060020154905083565b6115806117fc565b600073ffffffffffffffffffffffffffffffffffffffff168173ffffffffffffffffffffffffffffffffffffffff16036115ef576040517f08c379a00000000000000000000000000000000000000000000000000000000081526004016115e6906124a3565b60405180910390fd5b6115f88161187a565b50565b6000808273ffffffffffffffffffffffffffffffffffffffff163b119050919050565b600080600360008473ffffffffffffffffffffffffffffffffffffffff1673ffffffffffffffffffffffffffffffffffffffff16815260200190815260200160002060008581526020019081526020016000206040518060a00160405290816000820160009054906101000a900473ffffffffffffffffffffffffffffffffffffffff1673ffffffffffffffffffffffffffffffffffffffff1673ffffffffffffffffffffffffffffffffffffffff16815260200160018201548152602001600282015481526020016003820160009054906101000a900460ff161515151581526020016003820160019054906101000a900473ffffffffffffffffffffffffffffffffffffffff1673ffffffffffffffffffffffffffffffffffffffff1673ffffffffffffffffffffffffffffffffffffffff16815250509050600081602001514261176b9190612092565b9050600060025482101561178557600093505050506117f6565b600554600254836117969190612092565b600460008873ffffffffffffffffffffffffffffffffffffffff1673ffffffffffffffffffffffffffffffffffffffff168152602001908152602001600020600101546117e391906124c3565b6117ed919061254c565b90508093505050505b92915050565b61180461193e565b73ffffffffffffffffffffffffffffffffffffffff16611822610d4b565b73ffffffffffffffffffffffffffffffffffffffff1614611878576040517f08c379a000000000000000000000000000000000000000000000000000000000815260040161186f906125c9565b60405180910390fd5b565b60008060009054906101000a900473ffffffffffffffffffffffffffffffffffffffff169050816000806101000a81548173ffffffffffffffffffffffffffffffffffffffff021916908373ffffffffffffffffffffffffffffffffffffffff1602179055508173ffffffffffffffffffffffffffffffffffffffff168173ffffffffffffffffffffffffffffffffffffffff167f8be0079c531659141344cd1fd0a4f28419497f9722a3daafe3b4186f6b6457e060405160405180910390a35050565b600033905090565b600080fd5b600080fd5b600080fd5b600080fd5b600080fd5b60008083601f84011261197557611974611950565b5b8235905067ffffffffffffffff81111561199257611991611955565b5b6020830191508360208202830111156119ae576119ad61195a565b5b9250929050565b600073ffffffffffffffffffffffffffffffffffffffff82169050919050565b60006119e0826119b5565b9050919050565b60006119f2826119d5565b9050919050565b611a02816119e7565b8114611a0d57600080fd5b50565b600081359050611a1f816119f9565b92915050565b600080600060408486031215611a3e57611a3d611946565b5b600084013567ffffffffffffffff811115611a5c57611a5b61194b565b5b611a688682870161195f565b93509350506020611a7b86828701611a10565b9150509250925092565b6000819050919050565b611a9881611a85565b82525050565b6000602082019050611ab36000830184611a8f565b92915050565b611ac281611a85565b8114611acd57600080fd5b50565b600081359050611adf81611ab9565b92915050565b600060208284031215611afb57611afa611946565b5b6000611b0984828501611ad0565b91505092915050565b611b1b816119d5565b82525050565b6000602082019050611b366000830184611b12565b92915050565b60008060408385031215611b5357611b52611946565b5b6000611b6185828601611a10565b9250506020611b7285828601611ad0565b9150509250929050565b60008115159050919050565b611b9181611b7c565b82525050565b6000819050919050565b6000611bbc611bb7611bb2846119b5565b611b97565b6119b5565b9050919050565b6000611bce82611ba1565b9050919050565b6000611be082611bc3565b9050919050565b611bf081611bd5565b82525050565b600060a082019050611c0b6000830188611b12565b611c186020830187611a8f565b611c256040830186611a8f565b611c326060830185611b88565b611c3f6080830184611be7565b9695505050505050565b60008060408385031215611c6057611c5f611946565b5b6000611c6e85828601611ad0565b9250506020611c7f85828601611a10565b9150509250929050565b600060208284031215611c9f57611c9e611946565b5b6000611cad84828501611a10565b91505092915050565b6000611cc182611bc3565b9050919050565b611cd181611cb6565b82525050565b6000606082019050611cec6000830186611cc8565b611cf96020830185611a8f565b611d066040830184611a8f565b949350505050565b611d17816119d5565b8114611d2257600080fd5b50565b600081359050611d3481611d0e565b92915050565b600060208284031215611d5057611d4f611946565b5b6000611d5e84828501611d25565b91505092915050565b600082825260208201905092915050565b7f436f6e7472616374206e6f7420616c6c6f776564000000000000000000000000600082015250565b6000611dae601483611d67565b9150611db982611d78565b602082019050919050565b60006020820190508181036000830152611ddd81611da1565b9050919050565b7f50726f787920636f6e7472616374206e6f7420616c6c6f776564000000000000600082015250565b6000611e1a601a83611d67565b9150611e2582611de4565b602082019050919050565b60006020820190508181036000830152611e4981611e0d565b9050919050565b7f4e6f20746f6b656e730000000000000000000000000000000000000000000000600082015250565b6000611e86600983611d67565b9150611e9182611e50565b602082019050919050565b60006020820190508181036000830152611eb581611e79565b9050919050565b7f4e487b7100000000000000000000000000000000000000000000000000000000600052603260045260246000fd5b7f4e6f74206120746f6b656e206f776e6572000000000000000000000000000000600082015250565b6000611f21601183611d67565b9150611f2c82611eeb565b602082019050919050565b60006020820190508181036000830152611f5081611f14565b9050919050565b7f4e487b7100000000000000000000000000000000000000000000000000000000600052601160045260246000fd5b6000611f9182611a85565b9150611f9c83611a85565b9250828201905080821115611fb457611fb3611f57565b5b92915050565b7f4e6f742061626c6520746f20636c61696d207965740000000000000000000000600082015250565b6000611ff0601583611d67565b9150611ffb82611fba565b602082019050919050565b6000602082019050818103600083015261201f81611fe3565b9050919050565b7f416c726561647920756e6c6f636b656400000000000000000000000000000000600082015250565b600061205c601083611d67565b915061206782612026565b602082019050919050565b6000602082019050818103600083015261208b8161204f565b9050919050565b600061209d82611a85565b91506120a883611a85565b92508282039050818111156120c0576120bf611f57565b5b92915050565b60006040820190506120db6000830185611b12565b6120e86020830184611a8f565b9392505050565b60006120fa82611a85565b91507fffffffffffffffffffffffffffffffffffffffffffffffffffffffffffffffff820361212c5761212b611f57565b5b600182019050919050565b600082825260208201905092915050565b600080fd5b82818337505050565b60006121628385612137565b93507f07ffffffffffffffffffffffffffffffffffffffffffffffffffffffffffffff83111561219557612194612148565b5b6020830292506121a683858461214d565b82840190509392505050565b600060408201905081810360008301526121cd818587612156565b90506121dc6020830184611a8f565b949350505050565b7f5265656e7472616e637947756172643a207265656e7472616e742063616c6c00600082015250565b600061221a601f83611d67565b9150612225826121e4565b602082019050919050565b600060208201905081810360008301526122498161220d565b9050919050565b60008151905061225f81611d0e565b92915050565b60006020828403121561227b5761227a611946565b5b600061228984828501612250565b91505092915050565b7f596f7520646f6e277420686f6c64207468697320746f6b656e00000000000000600082015250565b60006122c8601983611d67565b91506122d382612292565b602082019050919050565b600060208201905081810360008301526122f7816122bb565b9050919050565b60006060820190506123136000830186611b12565b6123206020830185611b12565b61232d6040830184611a8f565b949350505050565b60006020820190508181036000830152612350818486612156565b90509392505050565b7f496e76616c6964206c6f636b20706572696f642e000000000000000000000000600082015250565b600061238f601483611d67565b915061239a82612359565b602082019050919050565b600060208201905081810360008301526123be81612382565b9050919050565b7f4e6f742061626c6520746f20756e6c6f636b2079657400000000000000000000600082015250565b60006123fb601683611d67565b9150612406826123c5565b602082019050919050565b6000602082019050818103600083015261242a816123ee565b9050919050565b7f4f776e61626c653a206e6577206f776e657220697320746865207a65726f206160008201527f6464726573730000000000000000000000000000000000000000000000000000602082015250565b600061248d602683611d67565b915061249882612431565b604082019050919050565b600060208201905081810360008301526124bc81612480565b9050919050565b60006124ce82611a85565b91506124d983611a85565b9250817fffffffffffffffffffffffffffffffffffffffffffffffffffffffffffffffff048311821515161561251257612511611f57565b5b828202905092915050565b7f4e487b7100000000000000000000000000000000000000000000000000000000600052601260045260246000fd5b600061255782611a85565b915061256283611a85565b9250826125725761257161251d565b5b828204905092915050565b7f4f776e61626c653a2063616c6c6572206973206e6f7420746865206f776e6572600082015250565b60006125b3602083611d67565b91506125be8261257d565b602082019050919050565b600060208201905081810360008301526125e2816125a6565b905091905056fea2646970667358221220296ec1ed1f371249e3fee2014fff3ddcb54b472b8b91939e381c9fe96a93245e64736f6c63430008100033",
					"opcodes": "PUSH1 0x80 PUSH1 0x40 MSTORE CALLVALUE DUP1 ISZERO PUSH3 0x11 JUMPI PUSH1 0x0 DUP1 REVERT JUMPDEST POP PUSH1 0x40 MLOAD PUSH3 0x2EDF CODESIZE SUB DUP1 PUSH3 0x2EDF DUP4 CODECOPY DUP2 DUP2 ADD PUSH1 0x40 MSTORE DUP2 ADD SWAP1 PUSH3 0x37 SWAP2 SWAP1 PUSH3 0x66A JUMP JUMPDEST PUSH3 0x57 PUSH3 0x4B PUSH3 0x29F PUSH1 0x20 SHL PUSH1 0x20 SHR JUMP JUMPDEST PUSH3 0x2A7 PUSH1 0x20 SHL PUSH1 0x20 SHR JUMP JUMPDEST PUSH1 0x1 DUP1 DUP2 SWAP1 SSTORE POP PUSH1 0x0 DUP5 GT PUSH3 0xA4 JUMPI PUSH1 0x40 MLOAD PUSH32 0x8C379A000000000000000000000000000000000000000000000000000000000 DUP2 MSTORE PUSH1 0x4 ADD PUSH3 0x9B SWAP1 PUSH3 0x7E3 JUMP JUMPDEST PUSH1 0x40 MLOAD DUP1 SWAP2 SUB SWAP1 REVERT JUMPDEST PUSH1 0x0 JUMPDEST DUP7 MLOAD DUP2 LT ISZERO PUSH3 0x284 JUMPI DUP6 DUP2 DUP2 MLOAD DUP2 LT PUSH3 0xC7 JUMPI PUSH3 0xC6 PUSH3 0x805 JUMP JUMPDEST JUMPDEST PUSH1 0x20 MUL PUSH1 0x20 ADD ADD MLOAD PUSH1 0x4 PUSH1 0x0 DUP10 DUP5 DUP2 MLOAD DUP2 LT PUSH3 0xE9 JUMPI PUSH3 0xE8 PUSH3 0x805 JUMP JUMPDEST JUMPDEST PUSH1 0x20 MUL PUSH1 0x20 ADD ADD MLOAD PUSH20 0xFFFFFFFFFFFFFFFFFFFFFFFFFFFFFFFFFFFFFFFF AND PUSH20 0xFFFFFFFFFFFFFFFFFFFFFFFFFFFFFFFFFFFFFFFF AND DUP2 MSTORE PUSH1 0x20 ADD SWAP1 DUP2 MSTORE PUSH1 0x20 ADD PUSH1 0x0 KECCAK256 PUSH1 0x0 ADD PUSH1 0x0 PUSH2 0x100 EXP DUP2 SLOAD DUP2 PUSH20 0xFFFFFFFFFFFFFFFFFFFFFFFFFFFFFFFFFFFFFFFF MUL NOT AND SWAP1 DUP4 PUSH20 0xFFFFFFFFFFFFFFFFFFFFFFFFFFFFFFFFFFFFFFFF AND MUL OR SWAP1 SSTORE POP DUP4 DUP2 DUP2 MLOAD DUP2 LT PUSH3 0x182 JUMPI PUSH3 0x181 PUSH3 0x805 JUMP JUMPDEST JUMPDEST PUSH1 0x20 MUL PUSH1 0x20 ADD ADD MLOAD PUSH1 0x4 PUSH1 0x0 DUP10 DUP5 DUP2 MLOAD DUP2 LT PUSH3 0x1A4 JUMPI PUSH3 0x1A3 PUSH3 0x805 JUMP JUMPDEST JUMPDEST PUSH1 0x20 MUL PUSH1 0x20 ADD ADD MLOAD PUSH20 0xFFFFFFFFFFFFFFFFFFFFFFFFFFFFFFFFFFFFFFFF AND PUSH20 0xFFFFFFFFFFFFFFFFFFFFFFFFFFFFFFFFFFFFFFFF AND DUP2 MSTORE PUSH1 0x20 ADD SWAP1 DUP2 MSTORE PUSH1 0x20 ADD PUSH1 0x0 KECCAK256 PUSH1 0x1 ADD DUP2 SWAP1 SSTORE POP DUP3 DUP2 DUP2 MLOAD DUP2 LT PUSH3 0x203 JUMPI PUSH3 0x202 PUSH3 0x805 JUMP JUMPDEST JUMPDEST PUSH1 0x20 MUL PUSH1 0x20 ADD ADD MLOAD PUSH1 0x4 PUSH1 0x0 DUP10 DUP5 DUP2 MLOAD DUP2 LT PUSH3 0x225 JUMPI PUSH3 0x224 PUSH3 0x805 JUMP JUMPDEST JUMPDEST PUSH1 0x20 MUL PUSH1 0x20 ADD ADD MLOAD PUSH20 0xFFFFFFFFFFFFFFFFFFFFFFFFFFFFFFFFFFFFFFFF AND PUSH20 0xFFFFFFFFFFFFFFFFFFFFFFFFFFFFFFFFFFFFFFFF AND DUP2 MSTORE PUSH1 0x20 ADD SWAP1 DUP2 MSTORE PUSH1 0x20 ADD PUSH1 0x0 KECCAK256 PUSH1 0x2 ADD DUP2 SWAP1 SSTORE POP DUP1 DUP1 PUSH3 0x27B SWAP1 PUSH3 0x863 JUMP JUMPDEST SWAP2 POP POP PUSH3 0xA7 JUMP JUMPDEST POP DUP4 PUSH1 0x2 DUP2 SWAP1 SSTORE POP DUP1 PUSH1 0x5 DUP2 SWAP1 SSTORE POP POP POP POP POP POP POP PUSH3 0x8B0 JUMP JUMPDEST PUSH1 0x0 CALLER SWAP1 POP SWAP1 JUMP JUMPDEST PUSH1 0x0 DUP1 PUSH1 0x0 SWAP1 SLOAD SWAP1 PUSH2 0x100 EXP SWAP1 DIV PUSH20 0xFFFFFFFFFFFFFFFFFFFFFFFFFFFFFFFFFFFFFFFF AND SWAP1 POP DUP2 PUSH1 0x0 DUP1 PUSH2 0x100 EXP DUP2 SLOAD DUP2 PUSH20 0xFFFFFFFFFFFFFFFFFFFFFFFFFFFFFFFFFFFFFFFF MUL NOT AND SWAP1 DUP4 PUSH20 0xFFFFFFFFFFFFFFFFFFFFFFFFFFFFFFFFFFFFFFFF AND MUL OR SWAP1 SSTORE POP DUP2 PUSH20 0xFFFFFFFFFFFFFFFFFFFFFFFFFFFFFFFFFFFFFFFF AND DUP2 PUSH20 0xFFFFFFFFFFFFFFFFFFFFFFFFFFFFFFFFFFFFFFFF AND PUSH32 0x8BE0079C531659141344CD1FD0A4F28419497F9722A3DAAFE3B4186F6B6457E0 PUSH1 0x40 MLOAD PUSH1 0x40 MLOAD DUP1 SWAP2 SUB SWAP1 LOG3 POP POP JUMP JUMPDEST PUSH1 0x0 PUSH1 0x40 MLOAD SWAP1 POP SWAP1 JUMP JUMPDEST PUSH1 0x0 DUP1 REVERT JUMPDEST PUSH1 0x0 DUP1 REVERT JUMPDEST PUSH1 0x0 DUP1 REVERT JUMPDEST PUSH1 0x0 PUSH1 0x1F NOT PUSH1 0x1F DUP4 ADD AND SWAP1 POP SWAP2 SWAP1 POP JUMP JUMPDEST PUSH32 0x4E487B7100000000000000000000000000000000000000000000000000000000 PUSH1 0x0 MSTORE PUSH1 0x41 PUSH1 0x4 MSTORE PUSH1 0x24 PUSH1 0x0 REVERT JUMPDEST PUSH3 0x3CF DUP3 PUSH3 0x384 JUMP JUMPDEST DUP2 ADD DUP2 DUP2 LT PUSH8 0xFFFFFFFFFFFFFFFF DUP3 GT OR ISZERO PUSH3 0x3F1 JUMPI PUSH3 0x3F0 PUSH3 0x395 JUMP JUMPDEST JUMPDEST DUP1 PUSH1 0x40 MSTORE POP POP POP JUMP JUMPDEST PUSH1 0x0 PUSH3 0x406 PUSH3 0x36B JUMP JUMPDEST SWAP1 POP PUSH3 0x414 DUP3 DUP3 PUSH3 0x3C4 JUMP JUMPDEST SWAP2 SWAP1 POP JUMP JUMPDEST PUSH1 0x0 PUSH8 0xFFFFFFFFFFFFFFFF DUP3 GT ISZERO PUSH3 0x437 JUMPI PUSH3 0x436 PUSH3 0x395 JUMP JUMPDEST JUMPDEST PUSH1 0x20 DUP3 MUL SWAP1 POP PUSH1 0x20 DUP2 ADD SWAP1 POP SWAP2 SWAP1 POP JUMP JUMPDEST PUSH1 0x0 DUP1 REVERT JUMPDEST PUSH1 0x0 PUSH20 0xFFFFFFFFFFFFFFFFFFFFFFFFFFFFFFFFFFFFFFFF DUP3 AND SWAP1 POP SWAP2 SWAP1 POP JUMP JUMPDEST PUSH1 0x0 PUSH3 0x47A DUP3 PUSH3 0x44D JUMP JUMPDEST SWAP1 POP SWAP2 SWAP1 POP JUMP JUMPDEST PUSH3 0x48C DUP2 PUSH3 0x46D JUMP JUMPDEST DUP2 EQ PUSH3 0x498 JUMPI PUSH1 0x0 DUP1 REVERT JUMPDEST POP JUMP JUMPDEST PUSH1 0x0 DUP2 MLOAD SWAP1 POP PUSH3 0x4AC DUP2 PUSH3 0x481 JUMP JUMPDEST SWAP3 SWAP2 POP POP JUMP JUMPDEST PUSH1 0x0 PUSH3 0x4C9 PUSH3 0x4C3 DUP5 PUSH3 0x419 JUMP JUMPDEST PUSH3 0x3FA JUMP JUMPDEST SWAP1 POP DUP1 DUP4 DUP3 MSTORE PUSH1 0x20 DUP3 ADD SWAP1 POP PUSH1 0x20 DUP5 MUL DUP4 ADD DUP6 DUP2 GT ISZERO PUSH3 0x4EF JUMPI PUSH3 0x4EE PUSH3 0x448 JUMP JUMPDEST JUMPDEST DUP4 JUMPDEST DUP2 DUP2 LT ISZERO PUSH3 0x51C JUMPI DUP1 PUSH3 0x507 DUP9 DUP3 PUSH3 0x49B JUMP JUMPDEST DUP5 MSTORE PUSH1 0x20 DUP5 ADD SWAP4 POP POP PUSH1 0x20 DUP2 ADD SWAP1 POP PUSH3 0x4F1 JUMP JUMPDEST POP POP POP SWAP4 SWAP3 POP POP POP JUMP JUMPDEST PUSH1 0x0 DUP3 PUSH1 0x1F DUP4 ADD SLT PUSH3 0x53E JUMPI PUSH3 0x53D PUSH3 0x37F JUMP JUMPDEST JUMPDEST DUP2 MLOAD PUSH3 0x550 DUP5 DUP3 PUSH1 0x20 DUP7 ADD PUSH3 0x4B2 JUMP JUMPDEST SWAP2 POP POP SWAP3 SWAP2 POP POP JUMP JUMPDEST PUSH1 0x0 DUP2 SWAP1 POP SWAP2 SWAP1 POP JUMP JUMPDEST PUSH3 0x56E DUP2 PUSH3 0x559 JUMP JUMPDEST DUP2 EQ PUSH3 0x57A JUMPI PUSH1 0x0 DUP1 REVERT JUMPDEST POP JUMP JUMPDEST PUSH1 0x0 DUP2 MLOAD SWAP1 POP PUSH3 0x58E DUP2 PUSH3 0x563 JUMP JUMPDEST SWAP3 SWAP2 POP POP JUMP JUMPDEST PUSH1 0x0 PUSH8 0xFFFFFFFFFFFFFFFF DUP3 GT ISZERO PUSH3 0x5B2 JUMPI PUSH3 0x5B1 PUSH3 0x395 JUMP JUMPDEST JUMPDEST PUSH1 0x20 DUP3 MUL SWAP1 POP PUSH1 0x20 DUP2 ADD SWAP1 POP SWAP2 SWAP1 POP JUMP JUMPDEST PUSH1 0x0 PUSH3 0x5DA PUSH3 0x5D4 DUP5 PUSH3 0x594 JUMP JUMPDEST PUSH3 0x3FA JUMP JUMPDEST SWAP1 POP DUP1 DUP4 DUP3 MSTORE PUSH1 0x20 DUP3 ADD SWAP1 POP PUSH1 0x20 DUP5 MUL DUP4 ADD DUP6 DUP2 GT ISZERO PUSH3 0x600 JUMPI PUSH3 0x5FF PUSH3 0x448 JUMP JUMPDEST JUMPDEST DUP4 JUMPDEST DUP2 DUP2 LT ISZERO PUSH3 0x62D JUMPI DUP1 PUSH3 0x618 DUP9 DUP3 PUSH3 0x57D JUMP JUMPDEST DUP5 MSTORE PUSH1 0x20 DUP5 ADD SWAP4 POP POP PUSH1 0x20 DUP2 ADD SWAP1 POP PUSH3 0x602 JUMP JUMPDEST POP POP POP SWAP4 SWAP3 POP POP POP JUMP JUMPDEST PUSH1 0x0 DUP3 PUSH1 0x1F DUP4 ADD SLT PUSH3 0x64F JUMPI PUSH3 0x64E PUSH3 0x37F JUMP JUMPDEST JUMPDEST DUP2 MLOAD PUSH3 0x661 DUP5 DUP3 PUSH1 0x20 DUP7 ADD PUSH3 0x5C3 JUMP JUMPDEST SWAP2 POP POP SWAP3 SWAP2 POP POP JUMP JUMPDEST PUSH1 0x0 DUP1 PUSH1 0x0 DUP1 PUSH1 0x0 DUP1 PUSH1 0xC0 DUP8 DUP10 SUB SLT ISZERO PUSH3 0x68A JUMPI PUSH3 0x689 PUSH3 0x375 JUMP JUMPDEST JUMPDEST PUSH1 0x0 DUP8 ADD MLOAD PUSH8 0xFFFFFFFFFFFFFFFF DUP2 GT ISZERO PUSH3 0x6AB JUMPI PUSH3 0x6AA PUSH3 0x37A JUMP JUMPDEST JUMPDEST PUSH3 0x6B9 DUP10 DUP3 DUP11 ADD PUSH3 0x526 JUMP JUMPDEST SWAP7 POP POP PUSH1 0x20 DUP8 ADD MLOAD PUSH8 0xFFFFFFFFFFFFFFFF DUP2 GT ISZERO PUSH3 0x6DD JUMPI PUSH3 0x6DC PUSH3 0x37A JUMP JUMPDEST JUMPDEST PUSH3 0x6EB DUP10 DUP3 DUP11 ADD PUSH3 0x526 JUMP JUMPDEST SWAP6 POP POP PUSH1 0x40 PUSH3 0x6FE DUP10 DUP3 DUP11 ADD PUSH3 0x57D JUMP JUMPDEST SWAP5 POP POP PUSH1 0x60 DUP8 ADD MLOAD PUSH8 0xFFFFFFFFFFFFFFFF DUP2 GT ISZERO PUSH3 0x722 JUMPI PUSH3 0x721 PUSH3 0x37A JUMP JUMPDEST JUMPDEST PUSH3 0x730 DUP10 DUP3 DUP11 ADD PUSH3 0x637 JUMP JUMPDEST SWAP4 POP POP PUSH1 0x80 DUP8 ADD MLOAD PUSH8 0xFFFFFFFFFFFFFFFF DUP2 GT ISZERO PUSH3 0x754 JUMPI PUSH3 0x753 PUSH3 0x37A JUMP JUMPDEST JUMPDEST PUSH3 0x762 DUP10 DUP3 DUP11 ADD PUSH3 0x637 JUMP JUMPDEST SWAP3 POP POP PUSH1 0xA0 PUSH3 0x775 DUP10 DUP3 DUP11 ADD PUSH3 0x57D JUMP JUMPDEST SWAP2 POP POP SWAP3 SWAP6 POP SWAP3 SWAP6 POP SWAP3 SWAP6 JUMP JUMPDEST PUSH1 0x0 DUP3 DUP3 MSTORE PUSH1 0x20 DUP3 ADD SWAP1 POP SWAP3 SWAP2 POP POP JUMP JUMPDEST PUSH32 0x496E76616C6964206C6F636B20706572696F6400000000000000000000000000 PUSH1 0x0 DUP3 ADD MSTORE POP JUMP JUMPDEST PUSH1 0x0 PUSH3 0x7CB PUSH1 0x13 DUP4 PUSH3 0x782 JUMP JUMPDEST SWAP2 POP PUSH3 0x7D8 DUP3 PUSH3 0x793 JUMP JUMPDEST PUSH1 0x20 DUP3 ADD SWAP1 POP SWAP2 SWAP1 POP JUMP JUMPDEST PUSH1 0x0 PUSH1 0x20 DUP3 ADD SWAP1 POP DUP2 DUP2 SUB PUSH1 0x0 DUP4 ADD MSTORE PUSH3 0x7FE DUP2 PUSH3 0x7BC JUMP JUMPDEST SWAP1 POP SWAP2 SWAP1 POP JUMP JUMPDEST PUSH32 0x4E487B7100000000000000000000000000000000000000000000000000000000 PUSH1 0x0 MSTORE PUSH1 0x32 PUSH1 0x4 MSTORE PUSH1 0x24 PUSH1 0x0 REVERT JUMPDEST PUSH32 0x4E487B7100000000000000000000000000000000000000000000000000000000 PUSH1 0x0 MSTORE PUSH1 0x11 PUSH1 0x4 MSTORE PUSH1 0x24 PUSH1 0x0 REVERT JUMPDEST PUSH1 0x0 PUSH3 0x870 DUP3 PUSH3 0x559 JUMP JUMPDEST SWAP2 POP PUSH32 0xFFFFFFFFFFFFFFFFFFFFFFFFFFFFFFFFFFFFFFFFFFFFFFFFFFFFFFFFFFFFFFFF DUP3 SUB PUSH3 0x8A5 JUMPI PUSH3 0x8A4 PUSH3 0x834 JUMP JUMPDEST JUMPDEST PUSH1 0x1 DUP3 ADD SWAP1 POP SWAP2 SWAP1 POP JUMP JUMPDEST PUSH2 0x261F DUP1 PUSH3 0x8C0 PUSH1 0x0 CODECOPY PUSH1 0x0 RETURN INVALID PUSH1 0x80 PUSH1 0x40 MSTORE CALLVALUE DUP1 ISZERO PUSH2 0x10 JUMPI PUSH1 0x0 DUP1 REVERT JUMPDEST POP PUSH1 0x4 CALLDATASIZE LT PUSH2 0xB4 JUMPI PUSH1 0x0 CALLDATALOAD PUSH1 0xE0 SHR DUP1 PUSH4 0x9F3625F0 GT PUSH2 0x71 JUMPI DUP1 PUSH4 0x9F3625F0 EQ PUSH2 0x153 JUMPI DUP1 PUSH4 0xB2520A7C EQ PUSH2 0x16F JUMPI DUP1 PUSH4 0xB33068C4 EQ PUSH2 0x1A3 JUMPI DUP1 PUSH4 0xC69D1923 EQ PUSH2 0x1D3 JUMPI DUP1 PUSH4 0xE9545B92 EQ PUSH2 0x1F1 JUMPI DUP1 PUSH4 0xF2FDE38B EQ PUSH2 0x223 JUMPI PUSH2 0xB4 JUMP JUMPDEST DUP1 PUSH4 0x520537F EQ PUSH2 0xB9 JUMPI DUP1 PUSH4 0x1902732E EQ PUSH2 0xD5 JUMPI DUP1 PUSH4 0x3FD8B02F EQ PUSH2 0xF1 JUMPI DUP1 PUSH4 0x715018A6 EQ PUSH2 0x10F JUMPI DUP1 PUSH4 0x779972DA EQ PUSH2 0x119 JUMPI DUP1 PUSH4 0x8DA5CB5B EQ PUSH2 0x135 JUMPI JUMPDEST PUSH1 0x0 DUP1 REVERT JUMPDEST PUSH2 0xD3 PUSH1 0x4 DUP1 CALLDATASIZE SUB DUP2 ADD SWAP1 PUSH2 0xCE SWAP2 SWAP1 PUSH2 0x1A25 JUMP JUMPDEST PUSH2 0x23F JUMP JUMPDEST STOP JUMPDEST PUSH2 0xEF PUSH1 0x4 DUP1 CALLDATASIZE SUB DUP2 ADD SWAP1 PUSH2 0xEA SWAP2 SWAP1 PUSH2 0x1A25 JUMP JUMPDEST PUSH2 0x7BA JUMP JUMPDEST STOP JUMPDEST PUSH2 0xF9 PUSH2 0xCA5 JUMP JUMPDEST PUSH1 0x40 MLOAD PUSH2 0x106 SWAP2 SWAP1 PUSH2 0x1A9E JUMP JUMPDEST PUSH1 0x40 MLOAD DUP1 SWAP2 SUB SWAP1 RETURN JUMPDEST PUSH2 0x117 PUSH2 0xCAB JUMP JUMPDEST STOP JUMPDEST PUSH2 0x133 PUSH1 0x4 DUP1 CALLDATASIZE SUB DUP2 ADD SWAP1 PUSH2 0x12E SWAP2 SWAP1 PUSH2 0x1AE5 JUMP JUMPDEST PUSH2 0xCBF JUMP JUMPDEST STOP JUMPDEST PUSH2 0x13D PUSH2 0xD4B JUMP JUMPDEST PUSH1 0x40 MLOAD PUSH2 0x14A SWAP2 SWAP1 PUSH2 0x1B21 JUMP JUMPDEST PUSH1 0x40 MLOAD DUP1 SWAP2 SUB SWAP1 RETURN JUMPDEST PUSH2 0x16D PUSH1 0x4 DUP1 CALLDATASIZE SUB DUP2 ADD SWAP1 PUSH2 0x168 SWAP2 SWAP1 PUSH2 0x1A25 JUMP JUMPDEST PUSH2 0xD74 JUMP JUMPDEST STOP JUMPDEST PUSH2 0x189 PUSH1 0x4 DUP1 CALLDATASIZE SUB DUP2 ADD SWAP1 PUSH2 0x184 SWAP2 SWAP1 PUSH2 0x1B3C JUMP JUMPDEST PUSH2 0x143A JUMP JUMPDEST PUSH1 0x40 MLOAD PUSH2 0x19A SWAP6 SWAP5 SWAP4 SWAP3 SWAP2 SWAP1 PUSH2 0x1BF6 JUMP JUMPDEST PUSH1 0x40 MLOAD DUP1 SWAP2 SUB SWAP1 RETURN JUMPDEST PUSH2 0x1BD PUSH1 0x4 DUP1 CALLDATASIZE SUB DUP2 ADD SWAP1 PUSH2 0x1B8 SWAP2 SWAP1 PUSH2 0x1C49 JUMP JUMPDEST PUSH2 0x14CA JUMP JUMPDEST PUSH1 0x40 MLOAD PUSH2 0x1CA SWAP2 SWAP1 PUSH2 0x1A9E JUMP JUMPDEST PUSH1 0x40 MLOAD DUP1 SWAP2 SUB SWAP1 RETURN JUMPDEST PUSH2 0x1DB PUSH2 0x1528 JUMP JUMPDEST PUSH1 0x40 MLOAD PUSH2 0x1E8 SWAP2 SWAP1 PUSH2 0x1A9E JUMP JUMPDEST PUSH1 0x40 MLOAD DUP1 SWAP2 SUB SWAP1 RETURN JUMPDEST PUSH2 0x20B PUSH1 0x4 DUP1 CALLDATASIZE SUB DUP2 ADD SWAP1 PUSH2 0x206 SWAP2 SWAP1 PUSH2 0x1C89 JUMP JUMPDEST PUSH2 0x152E JUMP JUMPDEST PUSH1 0x40 MLOAD PUSH2 0x21A SWAP4 SWAP3 SWAP2 SWAP1 PUSH2 0x1CD7 JUMP JUMPDEST PUSH1 0x40 MLOAD DUP1 SWAP2 SUB SWAP1 RETURN JUMPDEST PUSH2 0x23D PUSH1 0x4 DUP1 CALLDATASIZE SUB DUP2 ADD SWAP1 PUSH2 0x238 SWAP2 SWAP1 PUSH2 0x1D3A JUMP JUMPDEST PUSH2 0x1578 JUMP JUMPDEST STOP JUMPDEST PUSH2 0x25E CALLER PUSH20 0xFFFFFFFFFFFFFFFFFFFFFFFFFFFFFFFFFFFFFFFF AND PUSH2 0x15FB JUMP JUMPDEST ISZERO PUSH2 0x29E JUMPI PUSH1 0x40 MLOAD PUSH32 0x8C379A000000000000000000000000000000000000000000000000000000000 DUP2 MSTORE PUSH1 0x4 ADD PUSH2 0x295 SWAP1 PUSH2 0x1DC4 JUMP JUMPDEST PUSH1 0x40 MLOAD DUP1 SWAP2 SUB SWAP1 REVERT JUMPDEST ORIGIN PUSH20 0xFFFFFFFFFFFFFFFFFFFFFFFFFFFFFFFFFFFFFFFF AND CALLER PUSH20 0xFFFFFFFFFFFFFFFFFFFFFFFFFFFFFFFFFFFFFFFF AND EQ PUSH2 0x30C JUMPI PUSH1 0x40 MLOAD PUSH32 0x8C379A000000000000000000000000000000000000000000000000000000000 DUP2 MSTORE PUSH1 0x4 ADD PUSH2 0x303 SWAP1 PUSH2 0x1E30 JUMP JUMPDEST PUSH1 0x40 MLOAD DUP1 SWAP2 SUB SWAP1 REVERT JUMPDEST PUSH1 0x0 DUP4 DUP4 SWAP1 POP GT PUSH2 0x352 JUMPI PUSH1 0x40 MLOAD PUSH32 0x8C379A000000000000000000000000000000000000000000000000000000000 DUP2 MSTORE PUSH1 0x4 ADD PUSH2 0x349 SWAP1 PUSH2 0x1E9C JUMP JUMPDEST PUSH1 0x40 MLOAD DUP1 SWAP2 SUB SWAP1 REVERT JUMPDEST PUSH1 0x0 DUP1 PUSH1 0x0 SWAP1 POP JUMPDEST DUP5 DUP5 SWAP1 POP DUP2 LT ISZERO PUSH2 0x761 JUMPI PUSH1 0x0 PUSH1 0x3 PUSH1 0x0 DUP6 PUSH20 0xFFFFFFFFFFFFFFFFFFFFFFFFFFFFFFFFFFFFFFFF AND PUSH20 0xFFFFFFFFFFFFFFFFFFFFFFFFFFFFFFFFFFFFFFFF AND DUP2 MSTORE PUSH1 0x20 ADD SWAP1 DUP2 MSTORE PUSH1 0x20 ADD PUSH1 0x0 KECCAK256 PUSH1 0x0 DUP8 DUP8 DUP6 DUP2 DUP2 LT PUSH2 0x3BB JUMPI PUSH2 0x3BA PUSH2 0x1EBC JUMP JUMPDEST JUMPDEST SWAP1 POP PUSH1 0x20 MUL ADD CALLDATALOAD DUP2 MSTORE PUSH1 0x20 ADD SWAP1 DUP2 MSTORE PUSH1 0x20 ADD PUSH1 0x0 KECCAK256 PUSH1 0x40 MLOAD DUP1 PUSH1 0xA0 ADD PUSH1 0x40 MSTORE SWAP1 DUP2 PUSH1 0x0 DUP3 ADD PUSH1 0x0 SWAP1 SLOAD SWAP1 PUSH2 0x100 EXP SWAP1 DIV PUSH20 0xFFFFFFFFFFFFFFFFFFFFFFFFFFFFFFFFFFFFFFFF AND PUSH20 0xFFFFFFFFFFFFFFFFFFFFFFFFFFFFFFFFFFFFFFFF AND PUSH20 0xFFFFFFFFFFFFFFFFFFFFFFFFFFFFFFFFFFFFFFFF AND DUP2 MSTORE PUSH1 0x20 ADD PUSH1 0x1 DUP3 ADD SLOAD DUP2 MSTORE PUSH1 0x20 ADD PUSH1 0x2 DUP3 ADD SLOAD DUP2 MSTORE PUSH1 0x20 ADD PUSH1 0x3 DUP3 ADD PUSH1 0x0 SWAP1 SLOAD SWAP1 PUSH2 0x100 EXP SWAP1 DIV PUSH1 0xFF AND ISZERO ISZERO ISZERO ISZERO DUP2 MSTORE PUSH1 0x20 ADD PUSH1 0x3 DUP3 ADD PUSH1 0x1 SWAP1 SLOAD SWAP1 PUSH2 0x100 EXP SWAP1 DIV PUSH20 0xFFFFFFFFFFFFFFFFFFFFFFFFFFFFFFFFFFFFFFFF AND PUSH20 0xFFFFFFFFFFFFFFFFFFFFFFFFFFFFFFFFFFFFFFFF AND PUSH20 0xFFFFFFFFFFFFFFFFFFFFFFFFFFFFFFFFFFFFFFFF AND DUP2 MSTORE POP POP SWAP1 POP CALLER PUSH20 0xFFFFFFFFFFFFFFFFFFFFFFFFFFFFFFFFFFFFFFFF AND DUP2 PUSH1 0x0 ADD MLOAD PUSH20 0xFFFFFFFFFFFFFFFFFFFFFFFFFFFFFFFFFFFFFFFF AND EQ PUSH2 0x52A JUMPI PUSH1 0x40 MLOAD PUSH32 0x8C379A000000000000000000000000000000000000000000000000000000000 DUP2 MSTORE PUSH1 0x4 ADD PUSH2 0x521 SWAP1 PUSH2 0x1F37 JUMP JUMPDEST PUSH1 0x40 MLOAD DUP1 SWAP2 SUB SWAP1 REVERT JUMPDEST TIMESTAMP PUSH1 0x2 SLOAD DUP3 PUSH1 0x20 ADD MLOAD PUSH2 0x53D SWAP2 SWAP1 PUSH2 0x1F86 JUMP JUMPDEST LT PUSH2 0x57D JUMPI PUSH1 0x40 MLOAD PUSH32 0x8C379A000000000000000000000000000000000000000000000000000000000 DUP2 MSTORE PUSH1 0x4 ADD PUSH2 0x574 SWAP1 PUSH2 0x2006 JUMP JUMPDEST PUSH1 0x40 MLOAD DUP1 SWAP2 SUB SWAP1 REVERT JUMPDEST DUP1 PUSH1 0x60 ADD MLOAD ISZERO PUSH2 0x5C2 JUMPI PUSH1 0x40 MLOAD PUSH32 0x8C379A000000000000000000000000000000000000000000000000000000000 DUP2 MSTORE PUSH1 0x4 ADD PUSH2 0x5B9 SWAP1 PUSH2 0x2072 JUMP JUMPDEST PUSH1 0x40 MLOAD DUP1 SWAP2 SUB SWAP1 REVERT JUMPDEST PUSH1 0x0 PUSH2 0x5E7 DUP8 DUP8 DUP6 DUP2 DUP2 LT PUSH2 0x5DA JUMPI PUSH2 0x5D9 PUSH2 0x1EBC JUMP JUMPDEST JUMPDEST SWAP1 POP PUSH1 0x20 MUL ADD CALLDATALOAD DUP7 PUSH2 0x161E JUMP JUMPDEST SWAP1 POP PUSH1 0x0 DUP3 PUSH1 0x40 ADD MLOAD DUP3 PUSH2 0x5FB SWAP2 SWAP1 PUSH2 0x2092 JUMP JUMPDEST SWAP1 POP PUSH1 0x4 PUSH1 0x0 DUP8 PUSH20 0xFFFFFFFFFFFFFFFFFFFFFFFFFFFFFFFFFFFFFFFF AND PUSH20 0xFFFFFFFFFFFFFFFFFFFFFFFFFFFFFFFFFFFFFFFF AND DUP2 MSTORE PUSH1 0x20 ADD SWAP1 DUP2 MSTORE PUSH1 0x20 ADD PUSH1 0x0 KECCAK256 PUSH1 0x0 ADD PUSH1 0x0 SWAP1 SLOAD SWAP1 PUSH2 0x100 EXP SWAP1 DIV PUSH20 0xFFFFFFFFFFFFFFFFFFFFFFFFFFFFFFFFFFFFFFFF AND PUSH20 0xFFFFFFFFFFFFFFFFFFFFFFFFFFFFFFFFFFFFFFFF AND PUSH4 0x40C10F19 CALLER DUP4 PUSH1 0x40 MLOAD DUP4 PUSH4 0xFFFFFFFF AND PUSH1 0xE0 SHL DUP2 MSTORE PUSH1 0x4 ADD PUSH2 0x69A SWAP3 SWAP2 SWAP1 PUSH2 0x20C6 JUMP JUMPDEST PUSH1 0x0 PUSH1 0x40 MLOAD DUP1 DUP4 SUB DUP2 PUSH1 0x0 DUP8 DUP1 EXTCODESIZE ISZERO DUP1 ISZERO PUSH2 0x6B4 JUMPI PUSH1 0x0 DUP1 REVERT JUMPDEST POP GAS CALL ISZERO DUP1 ISZERO PUSH2 0x6C8 JUMPI RETURNDATASIZE PUSH1 0x0 DUP1 RETURNDATACOPY RETURNDATASIZE PUSH1 0x0 REVERT JUMPDEST POP POP POP POP DUP1 DUP6 PUSH2 0x6D8 SWAP2 SWAP1 PUSH2 0x1F86 JUMP JUMPDEST SWAP5 POP DUP2 PUSH1 0x3 PUSH1 0x0 DUP9 PUSH20 0xFFFFFFFFFFFFFFFFFFFFFFFFFFFFFFFFFFFFFFFF AND PUSH20 0xFFFFFFFFFFFFFFFFFFFFFFFFFFFFFFFFFFFFFFFF AND DUP2 MSTORE PUSH1 0x20 ADD SWAP1 DUP2 MSTORE PUSH1 0x20 ADD PUSH1 0x0 KECCAK256 PUSH1 0x0 DUP11 DUP11 DUP9 DUP2 DUP2 LT PUSH2 0x72F JUMPI PUSH2 0x72E PUSH2 0x1EBC JUMP JUMPDEST JUMPDEST SWAP1 POP PUSH1 0x20 MUL ADD CALLDATALOAD DUP2 MSTORE PUSH1 0x20 ADD SWAP1 DUP2 MSTORE PUSH1 0x20 ADD PUSH1 0x0 KECCAK256 PUSH1 0x2 ADD DUP2 SWAP1 SSTORE POP POP POP POP DUP1 DUP1 PUSH2 0x759 SWAP1 PUSH2 0x20EF JUMP JUMPDEST SWAP2 POP POP PUSH2 0x35A JUMP JUMPDEST POP CALLER PUSH20 0xFFFFFFFFFFFFFFFFFFFFFFFFFFFFFFFFFFFFFFFF AND PUSH32 0x37826BE3C26DBAD83731F4B985F22FA9EF86B6D1974CD77208332B7F1F283C0C DUP6 DUP6 DUP5 PUSH1 0x40 MLOAD PUSH2 0x7AC SWAP4 SWAP3 SWAP2 SWAP1 PUSH2 0x21B2 JUMP JUMPDEST PUSH1 0x40 MLOAD DUP1 SWAP2 SUB SWAP1 LOG2 POP POP POP POP JUMP JUMPDEST PUSH2 0x7D9 CALLER PUSH20 0xFFFFFFFFFFFFFFFFFFFFFFFFFFFFFFFFFFFFFFFF AND PUSH2 0x15FB JUMP JUMPDEST ISZERO PUSH2 0x819 JUMPI PUSH1 0x40 MLOAD PUSH32 0x8C379A000000000000000000000000000000000000000000000000000000000 DUP2 MSTORE PUSH1 0x4 ADD PUSH2 0x810 SWAP1 PUSH2 0x1DC4 JUMP JUMPDEST PUSH1 0x40 MLOAD DUP1 SWAP2 SUB SWAP1 REVERT JUMPDEST ORIGIN PUSH20 0xFFFFFFFFFFFFFFFFFFFFFFFFFFFFFFFFFFFFFFFF AND CALLER PUSH20 0xFFFFFFFFFFFFFFFFFFFFFFFFFFFFFFFFFFFFFFFF AND EQ PUSH2 0x887 JUMPI PUSH1 0x40 MLOAD PUSH32 0x8C379A000000000000000000000000000000000000000000000000000000000 DUP2 MSTORE PUSH1 0x4 ADD PUSH2 0x87E SWAP1 PUSH2 0x1E30 JUMP JUMPDEST PUSH1 0x40 MLOAD DUP1 SWAP2 SUB SWAP1 REVERT JUMPDEST PUSH1 0x2 PUSH1 0x1 SLOAD SUB PUSH2 0x8CC JUMPI PUSH1 0x40 MLOAD PUSH32 0x8C379A000000000000000000000000000000000000000000000000000000000 DUP2 MSTORE PUSH1 0x4 ADD PUSH2 0x8C3 SWAP1 PUSH2 0x2230 JUMP JUMPDEST PUSH1 0x40 MLOAD DUP1 SWAP2 SUB SWAP1 REVERT JUMPDEST PUSH1 0x2 PUSH1 0x1 DUP2 SWAP1 SSTORE POP PUSH1 0x0 DUP4 DUP4 SWAP1 POP GT PUSH2 0x91A JUMPI PUSH1 0x40 MLOAD PUSH32 0x8C379A000000000000000000000000000000000000000000000000000000000 DUP2 MSTORE PUSH1 0x4 ADD PUSH2 0x911 SWAP1 PUSH2 0x1E9C JUMP JUMPDEST PUSH1 0x40 MLOAD DUP1 SWAP2 SUB SWAP1 REVERT JUMPDEST PUSH1 0x0 JUMPDEST DUP4 DUP4 SWAP1 POP DUP2 LT ISZERO PUSH2 0xC48 JUMPI CALLER PUSH20 0xFFFFFFFFFFFFFFFFFFFFFFFFFFFFFFFFFFFFFFFF AND DUP3 PUSH20 0xFFFFFFFFFFFFFFFFFFFFFFFFFFFFFFFFFFFFFFFF AND PUSH4 0x6352211E DUP7 DUP7 DUP6 DUP2 DUP2 LT PUSH2 0x96E JUMPI PUSH2 0x96D PUSH2 0x1EBC JUMP JUMPDEST JUMPDEST SWAP1 POP PUSH1 0x20 MUL ADD CALLDATALOAD PUSH1 0x40 MLOAD DUP3 PUSH4 0xFFFFFFFF AND PUSH1 0xE0 SHL DUP2 MSTORE PUSH1 0x4 ADD PUSH2 0x991 SWAP2 SWAP1 PUSH2 0x1A9E JUMP JUMPDEST PUSH1 0x20 PUSH1 0x40 MLOAD DUP1 DUP4 SUB DUP2 DUP7 GAS STATICCALL ISZERO DUP1 ISZERO PUSH2 0x9AE JUMPI RETURNDATASIZE PUSH1 0x0 DUP1 RETURNDATACOPY RETURNDATASIZE PUSH1 0x0 REVERT JUMPDEST POP POP POP POP PUSH1 0x40 MLOAD RETURNDATASIZE PUSH1 0x1F NOT PUSH1 0x1F DUP3 ADD AND DUP3 ADD DUP1 PUSH1 0x40 MSTORE POP DUP2 ADD SWAP1 PUSH2 0x9D2 SWAP2 SWAP1 PUSH2 0x2265 JUMP JUMPDEST PUSH20 0xFFFFFFFFFFFFFFFFFFFFFFFFFFFFFFFFFFFFFFFF AND EQ PUSH2 0xA28 JUMPI PUSH1 0x40 MLOAD PUSH32 0x8C379A000000000000000000000000000000000000000000000000000000000 DUP2 MSTORE PUSH1 0x4 ADD PUSH2 0xA1F SWAP1 PUSH2 0x22DE JUMP JUMPDEST PUSH1 0x40 MLOAD DUP1 SWAP2 SUB SWAP1 REVERT JUMPDEST DUP2 PUSH20 0xFFFFFFFFFFFFFFFFFFFFFFFFFFFFFFFFFFFFFFFF AND PUSH4 0x23B872DD CALLER ADDRESS DUP8 DUP8 DUP7 DUP2 DUP2 LT PUSH2 0xA59 JUMPI PUSH2 0xA58 PUSH2 0x1EBC JUMP JUMPDEST JUMPDEST SWAP1 POP PUSH1 0x20 MUL ADD CALLDATALOAD PUSH1 0x40 MLOAD DUP5 PUSH4 0xFFFFFFFF AND PUSH1 0xE0 SHL DUP2 MSTORE PUSH1 0x4 ADD PUSH2 0xA7E SWAP4 SWAP3 SWAP2 SWAP1 PUSH2 0x22FE JUMP JUMPDEST PUSH1 0x0 PUSH1 0x40 MLOAD DUP1 DUP4 SUB DUP2 PUSH1 0x0 DUP8 DUP1 EXTCODESIZE ISZERO DUP1 ISZERO PUSH2 0xA98 JUMPI PUSH1 0x0 DUP1 REVERT JUMPDEST POP GAS CALL ISZERO DUP1 ISZERO PUSH2 0xAAC JUMPI RETURNDATASIZE PUSH1 0x0 DUP1 RETURNDATACOPY RETURNDATASIZE PUSH1 0x0 REVERT JUMPDEST POP POP POP POP PUSH1 0x40 MLOAD DUP1 PUSH1 0xA0 ADD PUSH1 0x40 MSTORE DUP1 CALLER PUSH20 0xFFFFFFFFFFFFFFFFFFFFFFFFFFFFFFFFFFFFFFFF AND DUP2 MSTORE PUSH1 0x20 ADD TIMESTAMP DUP2 MSTORE PUSH1 0x20 ADD PUSH1 0x0 DUP2 MSTORE PUSH1 0x20 ADD PUSH1 0x0 ISZERO ISZERO DUP2 MSTORE PUSH1 0x20 ADD DUP4 PUSH20 0xFFFFFFFFFFFFFFFFFFFFFFFFFFFFFFFFFFFFFFFF AND DUP2 MSTORE POP PUSH1 0x3 PUSH1 0x0 DUP5 PUSH20 0xFFFFFFFFFFFFFFFFFFFFFFFFFFFFFFFFFFFFFFFF AND PUSH20 0xFFFFFFFFFFFFFFFFFFFFFFFFFFFFFFFFFFFFFFFF AND DUP2 MSTORE PUSH1 0x20 ADD SWAP1 DUP2 MSTORE PUSH1 0x20 ADD PUSH1 0x0 KECCAK256 PUSH1 0x0 DUP7 DUP7 DUP6 DUP2 DUP2 LT PUSH2 0xB5B JUMPI PUSH2 0xB5A PUSH2 0x1EBC JUMP JUMPDEST JUMPDEST SWAP1 POP PUSH1 0x20 MUL ADD CALLDATALOAD DUP2 MSTORE PUSH1 0x20 ADD SWAP1 DUP2 MSTORE PUSH1 0x20 ADD PUSH1 0x0 KECCAK256 PUSH1 0x0 DUP3 ADD MLOAD DUP2 PUSH1 0x0 ADD PUSH1 0x0 PUSH2 0x100 EXP DUP2 SLOAD DUP2 PUSH20 0xFFFFFFFFFFFFFFFFFFFFFFFFFFFFFFFFFFFFFFFF MUL NOT AND SWAP1 DUP4 PUSH20 0xFFFFFFFFFFFFFFFFFFFFFFFFFFFFFFFFFFFFFFFF AND MUL OR SWAP1 SSTORE POP PUSH1 0x20 DUP3 ADD MLOAD DUP2 PUSH1 0x1 ADD SSTORE PUSH1 0x40 DUP3 ADD MLOAD DUP2 PUSH1 0x2 ADD SSTORE PUSH1 0x60 DUP3 ADD MLOAD DUP2 PUSH1 0x3 ADD PUSH1 0x0 PUSH2 0x100 EXP DUP2 SLOAD DUP2 PUSH1 0xFF MUL NOT AND SWAP1 DUP4 ISZERO ISZERO MUL OR SWAP1 SSTORE POP PUSH1 0x80 DUP3 ADD MLOAD DUP2 PUSH1 0x3 ADD PUSH1 0x1 PUSH2 0x100 EXP DUP2 SLOAD DUP2 PUSH20 0xFFFFFFFFFFFFFFFFFFFFFFFFFFFFFFFFFFFFFFFF MUL NOT AND SWAP1 DUP4 PUSH20 0xFFFFFFFFFFFFFFFFFFFFFFFFFFFFFFFFFFFFFFFF AND MUL OR SWAP1 SSTORE POP SWAP1 POP POP DUP1 DUP1 PUSH2 0xC40 SWAP1 PUSH2 0x20EF JUMP JUMPDEST SWAP2 POP POP PUSH2 0x91D JUMP JUMPDEST POP CALLER PUSH20 0xFFFFFFFFFFFFFFFFFFFFFFFFFFFFFFFFFFFFFFFF AND PUSH32 0x458BE0227BCCC9E803DEC79BD16767EEAF9925D2CE708EEED7AE1F3621F968F9 DUP5 DUP5 PUSH1 0x40 MLOAD PUSH2 0xC91 SWAP3 SWAP2 SWAP1 PUSH2 0x2335 JUMP JUMPDEST PUSH1 0x40 MLOAD DUP1 SWAP2 SUB SWAP1 LOG2 PUSH1 0x1 DUP1 DUP2 SWAP1 SSTORE POP POP POP POP JUMP JUMPDEST PUSH1 0x2 SLOAD DUP2 JUMP JUMPDEST PUSH2 0xCB3 PUSH2 0x17FC JUMP JUMPDEST PUSH2 0xCBD PUSH1 0x0 PUSH2 0x187A JUMP JUMPDEST JUMP JUMPDEST PUSH2 0xCC7 PUSH2 0x17FC JUMP JUMPDEST PUSH1 0x0 DUP2 GT PUSH2 0xD0A JUMPI PUSH1 0x40 MLOAD PUSH32 0x8C379A000000000000000000000000000000000000000000000000000000000 DUP2 MSTORE PUSH1 0x4 ADD PUSH2 0xD01 SWAP1 PUSH2 0x23A5 JUMP JUMPDEST PUSH1 0x40 MLOAD DUP1 SWAP2 SUB SWAP1 REVERT JUMPDEST DUP1 PUSH1 0x2 DUP2 SWAP1 SSTORE POP PUSH32 0x8249EC545E68F6F1E1230133CA48C704D831A7F8E635DED80F3DD9E99B09BB2F DUP2 PUSH1 0x40 MLOAD PUSH2 0xD40 SWAP2 SWAP1 PUSH2 0x1A9E JUMP JUMPDEST PUSH1 0x40 MLOAD DUP1 SWAP2 SUB SWAP1 LOG1 POP JUMP JUMPDEST PUSH1 0x0 DUP1 PUSH1 0x0 SWAP1 SLOAD SWAP1 PUSH2 0x100 EXP SWAP1 DIV PUSH20 0xFFFFFFFFFFFFFFFFFFFFFFFFFFFFFFFFFFFFFFFF AND SWAP1 POP SWAP1 JUMP JUMPDEST PUSH2 0xD93 CALLER PUSH20 0xFFFFFFFFFFFFFFFFFFFFFFFFFFFFFFFFFFFFFFFF AND PUSH2 0x15FB JUMP JUMPDEST ISZERO PUSH2 0xDD3 JUMPI PUSH1 0x40 MLOAD PUSH32 0x8C379A000000000000000000000000000000000000000000000000000000000 DUP2 MSTORE PUSH1 0x4 ADD PUSH2 0xDCA SWAP1 PUSH2 0x1DC4 JUMP JUMPDEST PUSH1 0x40 MLOAD DUP1 SWAP2 SUB SWAP1 REVERT JUMPDEST ORIGIN PUSH20 0xFFFFFFFFFFFFFFFFFFFFFFFFFFFFFFFFFFFFFFFF AND CALLER PUSH20 0xFFFFFFFFFFFFFFFFFFFFFFFFFFFFFFFFFFFFFFFF AND EQ PUSH2 0xE41 JUMPI PUSH1 0x40 MLOAD PUSH32 0x8C379A000000000000000000000000000000000000000000000000000000000 DUP2 MSTORE PUSH1 0x4 ADD PUSH2 0xE38 SWAP1 PUSH2 0x1E30 JUMP JUMPDEST PUSH1 0x40 MLOAD DUP1 SWAP2 SUB SWAP1 REVERT JUMPDEST PUSH1 0x2 PUSH1 0x1 SLOAD SUB PUSH2 0xE86 JUMPI PUSH1 0x40 MLOAD PUSH32 0x8C379A000000000000000000000000000000000000000000000000000000000 DUP2 MSTORE PUSH1 0x4 ADD PUSH2 0xE7D SWAP1 PUSH2 0x2230 JUMP JUMPDEST PUSH1 0x40 MLOAD DUP1 SWAP2 SUB SWAP1 REVERT JUMPDEST PUSH1 0x2 PUSH1 0x1 DUP2 SWAP1 SSTORE POP PUSH1 0x0 DUP4 DUP4 SWAP1 POP GT PUSH2 0xED4 JUMPI PUSH1 0x40 MLOAD PUSH32 0x8C379A000000000000000000000000000000000000000000000000000000000 DUP2 MSTORE PUSH1 0x4 ADD PUSH2 0xECB SWAP1 PUSH2 0x1E9C JUMP JUMPDEST PUSH1 0x40 MLOAD DUP1 SWAP2 SUB SWAP1 REVERT JUMPDEST PUSH1 0x0 JUMPDEST DUP4 DUP4 SWAP1 POP DUP2 LT ISZERO PUSH2 0x13DD JUMPI PUSH1 0x0 PUSH1 0x3 PUSH1 0x0 DUP5 PUSH20 0xFFFFFFFFFFFFFFFFFFFFFFFFFFFFFFFFFFFFFFFF AND PUSH20 0xFFFFFFFFFFFFFFFFFFFFFFFFFFFFFFFFFFFFFFFF AND DUP2 MSTORE PUSH1 0x20 ADD SWAP1 DUP2 MSTORE PUSH1 0x20 ADD PUSH1 0x0 KECCAK256 PUSH1 0x0 DUP7 DUP7 DUP6 DUP2 DUP2 LT PUSH2 0xF38 JUMPI PUSH2 0xF37 PUSH2 0x1EBC JUMP JUMPDEST JUMPDEST SWAP1 POP PUSH1 0x20 MUL ADD CALLDATALOAD DUP2 MSTORE PUSH1 0x20 ADD SWAP1 DUP2 MSTORE PUSH1 0x20 ADD PUSH1 0x0 KECCAK256 PUSH1 0x40 MLOAD DUP1 PUSH1 0xA0 ADD PUSH1 0x40 MSTORE SWAP1 DUP2 PUSH1 0x0 DUP3 ADD PUSH1 0x0 SWAP1 SLOAD SWAP1 PUSH2 0x100 EXP SWAP1 DIV PUSH20 0xFFFFFFFFFFFFFFFFFFFFFFFFFFFFFFFFFFFFFFFF AND PUSH20 0xFFFFFFFFFFFFFFFFFFFFFFFFFFFFFFFFFFFFFFFF AND PUSH20 0xFFFFFFFFFFFFFFFFFFFFFFFFFFFFFFFFFFFFFFFF AND DUP2 MSTORE PUSH1 0x20 ADD PUSH1 0x1 DUP3 ADD SLOAD DUP2 MSTORE PUSH1 0x20 ADD PUSH1 0x2 DUP3 ADD SLOAD DUP2 MSTORE PUSH1 0x20 ADD PUSH1 0x3 DUP3 ADD PUSH1 0x0 SWAP1 SLOAD SWAP1 PUSH2 0x100 EXP SWAP1 DIV PUSH1 0xFF AND ISZERO ISZERO ISZERO ISZERO DUP2 MSTORE PUSH1 0x20 ADD PUSH1 0x3 DUP3 ADD PUSH1 0x1 SWAP1 SLOAD SWAP1 PUSH2 0x100 EXP SWAP1 DIV PUSH20 0xFFFFFFFFFFFFFFFFFFFFFFFFFFFFFFFFFFFFFFFF AND PUSH20 0xFFFFFFFFFFFFFFFFFFFFFFFFFFFFFFFFFFFFFFFF AND PUSH20 0xFFFFFFFFFFFFFFFFFFFFFFFFFFFFFFFFFFFFFFFF AND DUP2 MSTORE POP POP SWAP1 POP CALLER PUSH20 0xFFFFFFFFFFFFFFFFFFFFFFFFFFFFFFFFFFFFFFFF AND DUP2 PUSH1 0x0 ADD MLOAD PUSH20 0xFFFFFFFFFFFFFFFFFFFFFFFFFFFFFFFFFFFFFFFF AND EQ PUSH2 0x10A7 JUMPI PUSH1 0x40 MLOAD PUSH32 0x8C379A000000000000000000000000000000000000000000000000000000000 DUP2 MSTORE PUSH1 0x4 ADD PUSH2 0x109E SWAP1 PUSH2 0x1F37 JUMP JUMPDEST PUSH1 0x40 MLOAD DUP1 SWAP2 SUB SWAP1 REVERT JUMPDEST TIMESTAMP PUSH1 0x2 SLOAD DUP3 PUSH1 0x20 ADD MLOAD PUSH2 0x10BA SWAP2 SWAP1 PUSH2 0x1F86 JUMP JUMPDEST LT PUSH2 0x10FA JUMPI PUSH1 0x40 MLOAD PUSH32 0x8C379A000000000000000000000000000000000000000000000000000000000 DUP2 MSTORE PUSH1 0x4 ADD PUSH2 0x10F1 SWAP1 PUSH2 0x2411 JUMP JUMPDEST PUSH1 0x40 MLOAD DUP1 SWAP2 SUB SWAP1 REVERT JUMPDEST DUP1 PUSH1 0x60 ADD MLOAD ISZERO PUSH2 0x113F JUMPI PUSH1 0x40 MLOAD PUSH32 0x8C379A000000000000000000000000000000000000000000000000000000000 DUP2 MSTORE PUSH1 0x4 ADD PUSH2 0x1136 SWAP1 PUSH2 0x2072 JUMP JUMPDEST PUSH1 0x40 MLOAD DUP1 SWAP2 SUB SWAP1 REVERT JUMPDEST DUP3 PUSH20 0xFFFFFFFFFFFFFFFFFFFFFFFFFFFFFFFFFFFFFFFF AND PUSH4 0x23B872DD ADDRESS CALLER DUP9 DUP9 DUP8 DUP2 DUP2 LT PUSH2 0x1170 JUMPI PUSH2 0x116F PUSH2 0x1EBC JUMP JUMPDEST JUMPDEST SWAP1 POP PUSH1 0x20 MUL ADD CALLDATALOAD PUSH1 0x40 MLOAD DUP5 PUSH4 0xFFFFFFFF AND PUSH1 0xE0 SHL DUP2 MSTORE PUSH1 0x4 ADD PUSH2 0x1195 SWAP4 SWAP3 SWAP2 SWAP1 PUSH2 0x22FE JUMP JUMPDEST PUSH1 0x0 PUSH1 0x40 MLOAD DUP1 DUP4 SUB DUP2 PUSH1 0x0 DUP8 DUP1 EXTCODESIZE ISZERO DUP1 ISZERO PUSH2 0x11AF JUMPI PUSH1 0x0 DUP1 REVERT JUMPDEST POP GAS CALL ISZERO DUP1 ISZERO PUSH2 0x11C3 JUMPI RETURNDATASIZE PUSH1 0x0 DUP1 RETURNDATACOPY RETURNDATASIZE PUSH1 0x0 REVERT JUMPDEST POP POP POP POP PUSH1 0x0 PUSH2 0x11EC DUP7 DUP7 DUP6 DUP2 DUP2 LT PUSH2 0x11DF JUMPI PUSH2 0x11DE PUSH2 0x1EBC JUMP JUMPDEST JUMPDEST SWAP1 POP PUSH1 0x20 MUL ADD CALLDATALOAD DUP6 PUSH2 0x161E JUMP JUMPDEST SWAP1 POP PUSH1 0x0 DUP3 PUSH1 0x40 ADD MLOAD DUP3 PUSH2 0x1200 SWAP2 SWAP1 PUSH2 0x2092 JUMP JUMPDEST SWAP1 POP PUSH1 0x4 PUSH1 0x0 DUP7 PUSH20 0xFFFFFFFFFFFFFFFFFFFFFFFFFFFFFFFFFFFFFFFF AND PUSH20 0xFFFFFFFFFFFFFFFFFFFFFFFFFFFFFFFFFFFFFFFF AND DUP2 MSTORE PUSH1 0x20 ADD SWAP1 DUP2 MSTORE PUSH1 0x20 ADD PUSH1 0x0 KECCAK256 PUSH1 0x0 ADD PUSH1 0x0 SWAP1 SLOAD SWAP1 PUSH2 0x100 EXP SWAP1 DIV PUSH20 0xFFFFFFFFFFFFFFFFFFFFFFFFFFFFFFFFFFFFFFFF AND PUSH20 0xFFFFFFFFFFFFFFFFFFFFFFFFFFFFFFFFFFFFFFFF AND PUSH4 0x40C10F19 CALLER DUP4 PUSH1 0x40 MLOAD DUP4 PUSH4 0xFFFFFFFF AND PUSH1 0xE0 SHL DUP2 MSTORE PUSH1 0x4 ADD PUSH2 0x129F SWAP3 SWAP2 SWAP1 PUSH2 0x20C6 JUMP JUMPDEST PUSH1 0x0 PUSH1 0x40 MLOAD DUP1 DUP4 SUB DUP2 PUSH1 0x0 DUP8 DUP1 EXTCODESIZE ISZERO DUP1 ISZERO PUSH2 0x12B9 JUMPI PUSH1 0x0 DUP1 REVERT JUMPDEST POP GAS CALL ISZERO DUP1 ISZERO PUSH2 0x12CD JUMPI RETURNDATASIZE PUSH1 0x0 DUP1 RETURNDATACOPY RETURNDATASIZE PUSH1 0x0 REVERT JUMPDEST POP POP POP POP DUP2 PUSH1 0x3 PUSH1 0x0 DUP8 PUSH20 0xFFFFFFFFFFFFFFFFFFFFFFFFFFFFFFFFFFFFFFFF AND PUSH20 0xFFFFFFFFFFFFFFFFFFFFFFFFFFFFFFFFFFFFFFFF AND DUP2 MSTORE PUSH1 0x20 ADD SWAP1 DUP2 MSTORE PUSH1 0x20 ADD PUSH1 0x0 KECCAK256 PUSH1 0x0 DUP10 DUP10 DUP9 DUP2 DUP2 LT PUSH2 0x1326 JUMPI PUSH2 0x1325 PUSH2 0x1EBC JUMP JUMPDEST JUMPDEST SWAP1 POP PUSH1 0x20 MUL ADD CALLDATALOAD DUP2 MSTORE PUSH1 0x20 ADD SWAP1 DUP2 MSTORE PUSH1 0x20 ADD PUSH1 0x0 KECCAK256 PUSH1 0x2 ADD DUP2 SWAP1 SSTORE POP PUSH1 0x1 PUSH1 0x3 PUSH1 0x0 DUP8 PUSH20 0xFFFFFFFFFFFFFFFFFFFFFFFFFFFFFFFFFFFFFFFF AND PUSH20 0xFFFFFFFFFFFFFFFFFFFFFFFFFFFFFFFFFFFFFFFF AND DUP2 MSTORE PUSH1 0x20 ADD SWAP1 DUP2 MSTORE PUSH1 0x20 ADD PUSH1 0x0 KECCAK256 PUSH1 0x0 DUP10 DUP10 DUP9 DUP2 DUP2 LT PUSH2 0x1398 JUMPI PUSH2 0x1397 PUSH2 0x1EBC JUMP JUMPDEST JUMPDEST SWAP1 POP PUSH1 0x20 MUL ADD CALLDATALOAD DUP2 MSTORE PUSH1 0x20 ADD SWAP1 DUP2 MSTORE PUSH1 0x20 ADD PUSH1 0x0 KECCAK256 PUSH1 0x3 ADD PUSH1 0x0 PUSH2 0x100 EXP DUP2 SLOAD DUP2 PUSH1 0xFF MUL NOT AND SWAP1 DUP4 ISZERO ISZERO MUL OR SWAP1 SSTORE POP POP POP POP DUP1 DUP1 PUSH2 0x13D5 SWAP1 PUSH2 0x20EF JUMP JUMPDEST SWAP2 POP POP PUSH2 0xED7 JUMP JUMPDEST POP CALLER PUSH20 0xFFFFFFFFFFFFFFFFFFFFFFFFFFFFFFFFFFFFFFFF AND PUSH32 0x5CB48022479B9AC3BFB10A27965DC010ACFFC9FC1BC9A52F0B18975B944B54CA DUP5 DUP5 PUSH1 0x40 MLOAD PUSH2 0x1426 SWAP3 SWAP2 SWAP1 PUSH2 0x2335 JUMP JUMPDEST PUSH1 0x40 MLOAD DUP1 SWAP2 SUB SWAP1 LOG2 PUSH1 0x1 DUP1 DUP2 SWAP1 SSTORE POP POP POP POP JUMP JUMPDEST PUSH1 0x3 PUSH1 0x20 MSTORE DUP2 PUSH1 0x0 MSTORE PUSH1 0x40 PUSH1 0x0 KECCAK256 PUSH1 0x20 MSTORE DUP1 PUSH1 0x0 MSTORE PUSH1 0x40 PUSH1 0x0 KECCAK256 PUSH1 0x0 SWAP2 POP SWAP2 POP POP DUP1 PUSH1 0x0 ADD PUSH1 0x0 SWAP1 SLOAD SWAP1 PUSH2 0x100 EXP SWAP1 DIV PUSH20 0xFFFFFFFFFFFFFFFFFFFFFFFFFFFFFFFFFFFFFFFF AND SWAP1 DUP1 PUSH1 0x1 ADD SLOAD SWAP1 DUP1 PUSH1 0x2 ADD SLOAD SWAP1 DUP1 PUSH1 0x3 ADD PUSH1 0x0 SWAP1 SLOAD SWAP1 PUSH2 0x100 EXP SWAP1 DIV PUSH1 0xFF AND SWAP1 DUP1 PUSH1 0x3 ADD PUSH1 0x1 SWAP1 SLOAD SWAP1 PUSH2 0x100 EXP SWAP1 DIV PUSH20 0xFFFFFFFFFFFFFFFFFFFFFFFFFFFFFFFFFFFFFFFF AND SWAP1 POP DUP6 JUMP JUMPDEST PUSH1 0x0 PUSH1 0x3 PUSH1 0x0 DUP4 PUSH20 0xFFFFFFFFFFFFFFFFFFFFFFFFFFFFFFFFFFFFFFFF AND PUSH20 0xFFFFFFFFFFFFFFFFFFFFFFFFFFFFFFFFFFFFFFFF AND DUP2 MSTORE PUSH1 0x20 ADD SWAP1 DUP2 MSTORE PUSH1 0x20 ADD PUSH1 0x0 KECCAK256 PUSH1 0x0 DUP5 DUP2 MSTORE PUSH1 0x20 ADD SWAP1 DUP2 MSTORE PUSH1 0x20 ADD PUSH1 0x0 KECCAK256 PUSH1 0x2 ADD SLOAD SWAP1 POP SWAP3 SWAP2 POP POP JUMP JUMPDEST PUSH1 0x5 SLOAD DUP2 JUMP JUMPDEST PUSH1 0x4 PUSH1 0x20 MSTORE DUP1 PUSH1 0x0 MSTORE PUSH1 0x40 PUSH1 0x0 KECCAK256 PUSH1 0x0 SWAP2 POP SWAP1 POP DUP1 PUSH1 0x0 ADD PUSH1 0x0 SWAP1 SLOAD SWAP1 PUSH2 0x100 EXP SWAP1 DIV PUSH20 0xFFFFFFFFFFFFFFFFFFFFFFFFFFFFFFFFFFFFFFFF AND SWAP1 DUP1 PUSH1 0x1 ADD SLOAD SWAP1 DUP1 PUSH1 0x2 ADD SLOAD SWAP1 POP DUP4 JUMP JUMPDEST PUSH2 0x1580 PUSH2 0x17FC JUMP JUMPDEST PUSH1 0x0 PUSH20 0xFFFFFFFFFFFFFFFFFFFFFFFFFFFFFFFFFFFFFFFF AND DUP2 PUSH20 0xFFFFFFFFFFFFFFFFFFFFFFFFFFFFFFFFFFFFFFFF AND SUB PUSH2 0x15EF JUMPI PUSH1 0x40 MLOAD PUSH32 0x8C379A000000000000000000000000000000000000000000000000000000000 DUP2 MSTORE PUSH1 0x4 ADD PUSH2 0x15E6 SWAP1 PUSH2 0x24A3 JUMP JUMPDEST PUSH1 0x40 MLOAD DUP1 SWAP2 SUB SWAP1 REVERT JUMPDEST PUSH2 0x15F8 DUP2 PUSH2 0x187A JUMP JUMPDEST POP JUMP JUMPDEST PUSH1 0x0 DUP1 DUP3 PUSH20 0xFFFFFFFFFFFFFFFFFFFFFFFFFFFFFFFFFFFFFFFF AND EXTCODESIZE GT SWAP1 POP SWAP2 SWAP1 POP JUMP JUMPDEST PUSH1 0x0 DUP1 PUSH1 0x3 PUSH1 0x0 DUP5 PUSH20 0xFFFFFFFFFFFFFFFFFFFFFFFFFFFFFFFFFFFFFFFF AND PUSH20 0xFFFFFFFFFFFFFFFFFFFFFFFFFFFFFFFFFFFFFFFF AND DUP2 MSTORE PUSH1 0x20 ADD SWAP1 DUP2 MSTORE PUSH1 0x20 ADD PUSH1 0x0 KECCAK256 PUSH1 0x0 DUP6 DUP2 MSTORE PUSH1 0x20 ADD SWAP1 DUP2 MSTORE PUSH1 0x20 ADD PUSH1 0x0 KECCAK256 PUSH1 0x40 MLOAD DUP1 PUSH1 0xA0 ADD PUSH1 0x40 MSTORE SWAP1 DUP2 PUSH1 0x0 DUP3 ADD PUSH1 0x0 SWAP1 SLOAD SWAP1 PUSH2 0x100 EXP SWAP1 DIV PUSH20 0xFFFFFFFFFFFFFFFFFFFFFFFFFFFFFFFFFFFFFFFF AND PUSH20 0xFFFFFFFFFFFFFFFFFFFFFFFFFFFFFFFFFFFFFFFF AND PUSH20 0xFFFFFFFFFFFFFFFFFFFFFFFFFFFFFFFFFFFFFFFF AND DUP2 MSTORE PUSH1 0x20 ADD PUSH1 0x1 DUP3 ADD SLOAD DUP2 MSTORE PUSH1 0x20 ADD PUSH1 0x2 DUP3 ADD SLOAD DUP2 MSTORE PUSH1 0x20 ADD PUSH1 0x3 DUP3 ADD PUSH1 0x0 SWAP1 SLOAD SWAP1 PUSH2 0x100 EXP SWAP1 DIV PUSH1 0xFF AND ISZERO ISZERO ISZERO ISZERO DUP2 MSTORE PUSH1 0x20 ADD PUSH1 0x3 DUP3 ADD PUSH1 0x1 SWAP1 SLOAD SWAP1 PUSH2 0x100 EXP SWAP1 DIV PUSH20 0xFFFFFFFFFFFFFFFFFFFFFFFFFFFFFFFFFFFFFFFF AND PUSH20 0xFFFFFFFFFFFFFFFFFFFFFFFFFFFFFFFFFFFFFFFF AND PUSH20 0xFFFFFFFFFFFFFFFFFFFFFFFFFFFFFFFFFFFFFFFF AND DUP2 MSTORE POP POP SWAP1 POP PUSH1 0x0 DUP2 PUSH1 0x20 ADD MLOAD TIMESTAMP PUSH2 0x176B SWAP2 SWAP1 PUSH2 0x2092 JUMP JUMPDEST SWAP1 POP PUSH1 0x0 PUSH1 0x2 SLOAD DUP3 LT ISZERO PUSH2 0x1785 JUMPI PUSH1 0x0 SWAP4 POP POP POP POP PUSH2 0x17F6 JUMP JUMPDEST PUSH1 0x5 SLOAD PUSH1 0x2 SLOAD DUP4 PUSH2 0x1796 SWAP2 SWAP1 PUSH2 0x2092 JUMP JUMPDEST PUSH1 0x4 PUSH1 0x0 DUP9 PUSH20 0xFFFFFFFFFFFFFFFFFFFFFFFFFFFFFFFFFFFFFFFF AND PUSH20 0xFFFFFFFFFFFFFFFFFFFFFFFFFFFFFFFFFFFFFFFF AND DUP2 MSTORE PUSH1 0x20 ADD SWAP1 DUP2 MSTORE PUSH1 0x20 ADD PUSH1 0x0 KECCAK256 PUSH1 0x1 ADD SLOAD PUSH2 0x17E3 SWAP2 SWAP1 PUSH2 0x24C3 JUMP JUMPDEST PUSH2 0x17ED SWAP2 SWAP1 PUSH2 0x254C JUMP JUMPDEST SWAP1 POP DUP1 SWAP4 POP POP POP POP JUMPDEST SWAP3 SWAP2 POP POP JUMP JUMPDEST PUSH2 0x1804 PUSH2 0x193E JUMP JUMPDEST PUSH20 0xFFFFFFFFFFFFFFFFFFFFFFFFFFFFFFFFFFFFFFFF AND PUSH2 0x1822 PUSH2 0xD4B JUMP JUMPDEST PUSH20 0xFFFFFFFFFFFFFFFFFFFFFFFFFFFFFFFFFFFFFFFF AND EQ PUSH2 0x1878 JUMPI PUSH1 0x40 MLOAD PUSH32 0x8C379A000000000000000000000000000000000000000000000000000000000 DUP2 MSTORE PUSH1 0x4 ADD PUSH2 0x186F SWAP1 PUSH2 0x25C9 JUMP JUMPDEST PUSH1 0x40 MLOAD DUP1 SWAP2 SUB SWAP1 REVERT JUMPDEST JUMP JUMPDEST PUSH1 0x0 DUP1 PUSH1 0x0 SWAP1 SLOAD SWAP1 PUSH2 0x100 EXP SWAP1 DIV PUSH20 0xFFFFFFFFFFFFFFFFFFFFFFFFFFFFFFFFFFFFFFFF AND SWAP1 POP DUP2 PUSH1 0x0 DUP1 PUSH2 0x100 EXP DUP2 SLOAD DUP2 PUSH20 0xFFFFFFFFFFFFFFFFFFFFFFFFFFFFFFFFFFFFFFFF MUL NOT AND SWAP1 DUP4 PUSH20 0xFFFFFFFFFFFFFFFFFFFFFFFFFFFFFFFFFFFFFFFF AND MUL OR SWAP1 SSTORE POP DUP2 PUSH20 0xFFFFFFFFFFFFFFFFFFFFFFFFFFFFFFFFFFFFFFFF AND DUP2 PUSH20 0xFFFFFFFFFFFFFFFFFFFFFFFFFFFFFFFFFFFFFFFF AND PUSH32 0x8BE0079C531659141344CD1FD0A4F28419497F9722A3DAAFE3B4186F6B6457E0 PUSH1 0x40 MLOAD PUSH1 0x40 MLOAD DUP1 SWAP2 SUB SWAP1 LOG3 POP POP JUMP JUMPDEST PUSH1 0x0 CALLER SWAP1 POP SWAP1 JUMP JUMPDEST PUSH1 0x0 DUP1 REVERT JUMPDEST PUSH1 0x0 DUP1 REVERT JUMPDEST PUSH1 0x0 DUP1 REVERT JUMPDEST PUSH1 0x0 DUP1 REVERT JUMPDEST PUSH1 0x0 DUP1 REVERT JUMPDEST PUSH1 0x0 DUP1 DUP4 PUSH1 0x1F DUP5 ADD SLT PUSH2 0x1975 JUMPI PUSH2 0x1974 PUSH2 0x1950 JUMP JUMPDEST JUMPDEST DUP3 CALLDATALOAD SWAP1 POP PUSH8 0xFFFFFFFFFFFFFFFF DUP2 GT ISZERO PUSH2 0x1992 JUMPI PUSH2 0x1991 PUSH2 0x1955 JUMP JUMPDEST JUMPDEST PUSH1 0x20 DUP4 ADD SWAP2 POP DUP4 PUSH1 0x20 DUP3 MUL DUP4 ADD GT ISZERO PUSH2 0x19AE JUMPI PUSH2 0x19AD PUSH2 0x195A JUMP JUMPDEST JUMPDEST SWAP3 POP SWAP3 SWAP1 POP JUMP JUMPDEST PUSH1 0x0 PUSH20 0xFFFFFFFFFFFFFFFFFFFFFFFFFFFFFFFFFFFFFFFF DUP3 AND SWAP1 POP SWAP2 SWAP1 POP JUMP JUMPDEST PUSH1 0x0 PUSH2 0x19E0 DUP3 PUSH2 0x19B5 JUMP JUMPDEST SWAP1 POP SWAP2 SWAP1 POP JUMP JUMPDEST PUSH1 0x0 PUSH2 0x19F2 DUP3 PUSH2 0x19D5 JUMP JUMPDEST SWAP1 POP SWAP2 SWAP1 POP JUMP JUMPDEST PUSH2 0x1A02 DUP2 PUSH2 0x19E7 JUMP JUMPDEST DUP2 EQ PUSH2 0x1A0D JUMPI PUSH1 0x0 DUP1 REVERT JUMPDEST POP JUMP JUMPDEST PUSH1 0x0 DUP2 CALLDATALOAD SWAP1 POP PUSH2 0x1A1F DUP2 PUSH2 0x19F9 JUMP JUMPDEST SWAP3 SWAP2 POP POP JUMP JUMPDEST PUSH1 0x0 DUP1 PUSH1 0x0 PUSH1 0x40 DUP5 DUP7 SUB SLT ISZERO PUSH2 0x1A3E JUMPI PUSH2 0x1A3D PUSH2 0x1946 JUMP JUMPDEST JUMPDEST PUSH1 0x0 DUP5 ADD CALLDATALOAD PUSH8 0xFFFFFFFFFFFFFFFF DUP2 GT ISZERO PUSH2 0x1A5C JUMPI PUSH2 0x1A5B PUSH2 0x194B JUMP JUMPDEST JUMPDEST PUSH2 0x1A68 DUP7 DUP3 DUP8 ADD PUSH2 0x195F JUMP JUMPDEST SWAP4 POP SWAP4 POP POP PUSH1 0x20 PUSH2 0x1A7B DUP7 DUP3 DUP8 ADD PUSH2 0x1A10 JUMP JUMPDEST SWAP2 POP POP SWAP3 POP SWAP3 POP SWAP3 JUMP JUMPDEST PUSH1 0x0 DUP2 SWAP1 POP SWAP2 SWAP1 POP JUMP JUMPDEST PUSH2 0x1A98 DUP2 PUSH2 0x1A85 JUMP JUMPDEST DUP3 MSTORE POP POP JUMP JUMPDEST PUSH1 0x0 PUSH1 0x20 DUP3 ADD SWAP1 POP PUSH2 0x1AB3 PUSH1 0x0 DUP4 ADD DUP5 PUSH2 0x1A8F JUMP JUMPDEST SWAP3 SWAP2 POP POP JUMP JUMPDEST PUSH2 0x1AC2 DUP2 PUSH2 0x1A85 JUMP JUMPDEST DUP2 EQ PUSH2 0x1ACD JUMPI PUSH1 0x0 DUP1 REVERT JUMPDEST POP JUMP JUMPDEST PUSH1 0x0 DUP2 CALLDATALOAD SWAP1 POP PUSH2 0x1ADF DUP2 PUSH2 0x1AB9 JUMP JUMPDEST SWAP3 SWAP2 POP POP JUMP JUMPDEST PUSH1 0x0 PUSH1 0x20 DUP3 DUP5 SUB SLT ISZERO PUSH2 0x1AFB JUMPI PUSH2 0x1AFA PUSH2 0x1946 JUMP JUMPDEST JUMPDEST PUSH1 0x0 PUSH2 0x1B09 DUP5 DUP3 DUP6 ADD PUSH2 0x1AD0 JUMP JUMPDEST SWAP2 POP POP SWAP3 SWAP2 POP POP JUMP JUMPDEST PUSH2 0x1B1B DUP2 PUSH2 0x19D5 JUMP JUMPDEST DUP3 MSTORE POP POP JUMP JUMPDEST PUSH1 0x0 PUSH1 0x20 DUP3 ADD SWAP1 POP PUSH2 0x1B36 PUSH1 0x0 DUP4 ADD DUP5 PUSH2 0x1B12 JUMP JUMPDEST SWAP3 SWAP2 POP POP JUMP JUMPDEST PUSH1 0x0 DUP1 PUSH1 0x40 DUP4 DUP6 SUB SLT ISZERO PUSH2 0x1B53 JUMPI PUSH2 0x1B52 PUSH2 0x1946 JUMP JUMPDEST JUMPDEST PUSH1 0x0 PUSH2 0x1B61 DUP6 DUP3 DUP7 ADD PUSH2 0x1A10 JUMP JUMPDEST SWAP3 POP POP PUSH1 0x20 PUSH2 0x1B72 DUP6 DUP3 DUP7 ADD PUSH2 0x1AD0 JUMP JUMPDEST SWAP2 POP POP SWAP3 POP SWAP3 SWAP1 POP JUMP JUMPDEST PUSH1 0x0 DUP2 ISZERO ISZERO SWAP1 POP SWAP2 SWAP1 POP JUMP JUMPDEST PUSH2 0x1B91 DUP2 PUSH2 0x1B7C JUMP JUMPDEST DUP3 MSTORE POP POP JUMP JUMPDEST PUSH1 0x0 DUP2 SWAP1 POP SWAP2 SWAP1 POP JUMP JUMPDEST PUSH1 0x0 PUSH2 0x1BBC PUSH2 0x1BB7 PUSH2 0x1BB2 DUP5 PUSH2 0x19B5 JUMP JUMPDEST PUSH2 0x1B97 JUMP JUMPDEST PUSH2 0x19B5 JUMP JUMPDEST SWAP1 POP SWAP2 SWAP1 POP JUMP JUMPDEST PUSH1 0x0 PUSH2 0x1BCE DUP3 PUSH2 0x1BA1 JUMP JUMPDEST SWAP1 POP SWAP2 SWAP1 POP JUMP JUMPDEST PUSH1 0x0 PUSH2 0x1BE0 DUP3 PUSH2 0x1BC3 JUMP JUMPDEST SWAP1 POP SWAP2 SWAP1 POP JUMP JUMPDEST PUSH2 0x1BF0 DUP2 PUSH2 0x1BD5 JUMP JUMPDEST DUP3 MSTORE POP POP JUMP JUMPDEST PUSH1 0x0 PUSH1 0xA0 DUP3 ADD SWAP1 POP PUSH2 0x1C0B PUSH1 0x0 DUP4 ADD DUP9 PUSH2 0x1B12 JUMP JUMPDEST PUSH2 0x1C18 PUSH1 0x20 DUP4 ADD DUP8 PUSH2 0x1A8F JUMP JUMPDEST PUSH2 0x1C25 PUSH1 0x40 DUP4 ADD DUP7 PUSH2 0x1A8F JUMP JUMPDEST PUSH2 0x1C32 PUSH1 0x60 DUP4 ADD DUP6 PUSH2 0x1B88 JUMP JUMPDEST PUSH2 0x1C3F PUSH1 0x80 DUP4 ADD DUP5 PUSH2 0x1BE7 JUMP JUMPDEST SWAP7 SWAP6 POP POP POP POP POP POP JUMP JUMPDEST PUSH1 0x0 DUP1 PUSH1 0x40 DUP4 DUP6 SUB SLT ISZERO PUSH2 0x1C60 JUMPI PUSH2 0x1C5F PUSH2 0x1946 JUMP JUMPDEST JUMPDEST PUSH1 0x0 PUSH2 0x1C6E DUP6 DUP3 DUP7 ADD PUSH2 0x1AD0 JUMP JUMPDEST SWAP3 POP POP PUSH1 0x20 PUSH2 0x1C7F DUP6 DUP3 DUP7 ADD PUSH2 0x1A10 JUMP JUMPDEST SWAP2 POP POP SWAP3 POP SWAP3 SWAP1 POP JUMP JUMPDEST PUSH1 0x0 PUSH1 0x20 DUP3 DUP5 SUB SLT ISZERO PUSH2 0x1C9F JUMPI PUSH2 0x1C9E PUSH2 0x1946 JUMP JUMPDEST JUMPDEST PUSH1 0x0 PUSH2 0x1CAD DUP5 DUP3 DUP6 ADD PUSH2 0x1A10 JUMP JUMPDEST SWAP2 POP POP SWAP3 SWAP2 POP POP JUMP JUMPDEST PUSH1 0x0 PUSH2 0x1CC1 DUP3 PUSH2 0x1BC3 JUMP JUMPDEST SWAP1 POP SWAP2 SWAP1 POP JUMP JUMPDEST PUSH2 0x1CD1 DUP2 PUSH2 0x1CB6 JUMP JUMPDEST DUP3 MSTORE POP POP JUMP JUMPDEST PUSH1 0x0 PUSH1 0x60 DUP3 ADD SWAP1 POP PUSH2 0x1CEC PUSH1 0x0 DUP4 ADD DUP7 PUSH2 0x1CC8 JUMP JUMPDEST PUSH2 0x1CF9 PUSH1 0x20 DUP4 ADD DUP6 PUSH2 0x1A8F JUMP JUMPDEST PUSH2 0x1D06 PUSH1 0x40 DUP4 ADD DUP5 PUSH2 0x1A8F JUMP JUMPDEST SWAP5 SWAP4 POP POP POP POP JUMP JUMPDEST PUSH2 0x1D17 DUP2 PUSH2 0x19D5 JUMP JUMPDEST DUP2 EQ PUSH2 0x1D22 JUMPI PUSH1 0x0 DUP1 REVERT JUMPDEST POP JUMP JUMPDEST PUSH1 0x0 DUP2 CALLDATALOAD SWAP1 POP PUSH2 0x1D34 DUP2 PUSH2 0x1D0E JUMP JUMPDEST SWAP3 SWAP2 POP POP JUMP JUMPDEST PUSH1 0x0 PUSH1 0x20 DUP3 DUP5 SUB SLT ISZERO PUSH2 0x1D50 JUMPI PUSH2 0x1D4F PUSH2 0x1946 JUMP JUMPDEST JUMPDEST PUSH1 0x0 PUSH2 0x1D5E DUP5 DUP3 DUP6 ADD PUSH2 0x1D25 JUMP JUMPDEST SWAP2 POP POP SWAP3 SWAP2 POP POP JUMP JUMPDEST PUSH1 0x0 DUP3 DUP3 MSTORE PUSH1 0x20 DUP3 ADD SWAP1 POP SWAP3 SWAP2 POP POP JUMP JUMPDEST PUSH32 0x436F6E7472616374206E6F7420616C6C6F776564000000000000000000000000 PUSH1 0x0 DUP3 ADD MSTORE POP JUMP JUMPDEST PUSH1 0x0 PUSH2 0x1DAE PUSH1 0x14 DUP4 PUSH2 0x1D67 JUMP JUMPDEST SWAP2 POP PUSH2 0x1DB9 DUP3 PUSH2 0x1D78 JUMP JUMPDEST PUSH1 0x20 DUP3 ADD SWAP1 POP SWAP2 SWAP1 POP JUMP JUMPDEST PUSH1 0x0 PUSH1 0x20 DUP3 ADD SWAP1 POP DUP2 DUP2 SUB PUSH1 0x0 DUP4 ADD MSTORE PUSH2 0x1DDD DUP2 PUSH2 0x1DA1 JUMP JUMPDEST SWAP1 POP SWAP2 SWAP1 POP JUMP JUMPDEST PUSH32 0x50726F787920636F6E7472616374206E6F7420616C6C6F776564000000000000 PUSH1 0x0 DUP3 ADD MSTORE POP JUMP JUMPDEST PUSH1 0x0 PUSH2 0x1E1A PUSH1 0x1A DUP4 PUSH2 0x1D67 JUMP JUMPDEST SWAP2 POP PUSH2 0x1E25 DUP3 PUSH2 0x1DE4 JUMP JUMPDEST PUSH1 0x20 DUP3 ADD SWAP1 POP SWAP2 SWAP1 POP JUMP JUMPDEST PUSH1 0x0 PUSH1 0x20 DUP3 ADD SWAP1 POP DUP2 DUP2 SUB PUSH1 0x0 DUP4 ADD MSTORE PUSH2 0x1E49 DUP2 PUSH2 0x1E0D JUMP JUMPDEST SWAP1 POP SWAP2 SWAP1 POP JUMP JUMPDEST PUSH32 0x4E6F20746F6B656E730000000000000000000000000000000000000000000000 PUSH1 0x0 DUP3 ADD MSTORE POP JUMP JUMPDEST PUSH1 0x0 PUSH2 0x1E86 PUSH1 0x9 DUP4 PUSH2 0x1D67 JUMP JUMPDEST SWAP2 POP PUSH2 0x1E91 DUP3 PUSH2 0x1E50 JUMP JUMPDEST PUSH1 0x20 DUP3 ADD SWAP1 POP SWAP2 SWAP1 POP JUMP JUMPDEST PUSH1 0x0 PUSH1 0x20 DUP3 ADD SWAP1 POP DUP2 DUP2 SUB PUSH1 0x0 DUP4 ADD MSTORE PUSH2 0x1EB5 DUP2 PUSH2 0x1E79 JUMP JUMPDEST SWAP1 POP SWAP2 SWAP1 POP JUMP JUMPDEST PUSH32 0x4E487B7100000000000000000000000000000000000000000000000000000000 PUSH1 0x0 MSTORE PUSH1 0x32 PUSH1 0x4 MSTORE PUSH1 0x24 PUSH1 0x0 REVERT JUMPDEST PUSH32 0x4E6F74206120746F6B656E206F776E6572000000000000000000000000000000 PUSH1 0x0 DUP3 ADD MSTORE POP JUMP JUMPDEST PUSH1 0x0 PUSH2 0x1F21 PUSH1 0x11 DUP4 PUSH2 0x1D67 JUMP JUMPDEST SWAP2 POP PUSH2 0x1F2C DUP3 PUSH2 0x1EEB JUMP JUMPDEST PUSH1 0x20 DUP3 ADD SWAP1 POP SWAP2 SWAP1 POP JUMP JUMPDEST PUSH1 0x0 PUSH1 0x20 DUP3 ADD SWAP1 POP DUP2 DUP2 SUB PUSH1 0x0 DUP4 ADD MSTORE PUSH2 0x1F50 DUP2 PUSH2 0x1F14 JUMP JUMPDEST SWAP1 POP SWAP2 SWAP1 POP JUMP JUMPDEST PUSH32 0x4E487B7100000000000000000000000000000000000000000000000000000000 PUSH1 0x0 MSTORE PUSH1 0x11 PUSH1 0x4 MSTORE PUSH1 0x24 PUSH1 0x0 REVERT JUMPDEST PUSH1 0x0 PUSH2 0x1F91 DUP3 PUSH2 0x1A85 JUMP JUMPDEST SWAP2 POP PUSH2 0x1F9C DUP4 PUSH2 0x1A85 JUMP JUMPDEST SWAP3 POP DUP3 DUP3 ADD SWAP1 POP DUP1 DUP3 GT ISZERO PUSH2 0x1FB4 JUMPI PUSH2 0x1FB3 PUSH2 0x1F57 JUMP JUMPDEST JUMPDEST SWAP3 SWAP2 POP POP JUMP JUMPDEST PUSH32 0x4E6F742061626C6520746F20636C61696D207965740000000000000000000000 PUSH1 0x0 DUP3 ADD MSTORE POP JUMP JUMPDEST PUSH1 0x0 PUSH2 0x1FF0 PUSH1 0x15 DUP4 PUSH2 0x1D67 JUMP JUMPDEST SWAP2 POP PUSH2 0x1FFB DUP3 PUSH2 0x1FBA JUMP JUMPDEST PUSH1 0x20 DUP3 ADD SWAP1 POP SWAP2 SWAP1 POP JUMP JUMPDEST PUSH1 0x0 PUSH1 0x20 DUP3 ADD SWAP1 POP DUP2 DUP2 SUB PUSH1 0x0 DUP4 ADD MSTORE PUSH2 0x201F DUP2 PUSH2 0x1FE3 JUMP JUMPDEST SWAP1 POP SWAP2 SWAP1 POP JUMP JUMPDEST PUSH32 0x416C726561647920756E6C6F636B656400000000000000000000000000000000 PUSH1 0x0 DUP3 ADD MSTORE POP JUMP JUMPDEST PUSH1 0x0 PUSH2 0x205C PUSH1 0x10 DUP4 PUSH2 0x1D67 JUMP JUMPDEST SWAP2 POP PUSH2 0x2067 DUP3 PUSH2 0x2026 JUMP JUMPDEST PUSH1 0x20 DUP3 ADD SWAP1 POP SWAP2 SWAP1 POP JUMP JUMPDEST PUSH1 0x0 PUSH1 0x20 DUP3 ADD SWAP1 POP DUP2 DUP2 SUB PUSH1 0x0 DUP4 ADD MSTORE PUSH2 0x208B DUP2 PUSH2 0x204F JUMP JUMPDEST SWAP1 POP SWAP2 SWAP1 POP JUMP JUMPDEST PUSH1 0x0 PUSH2 0x209D DUP3 PUSH2 0x1A85 JUMP JUMPDEST SWAP2 POP PUSH2 0x20A8 DUP4 PUSH2 0x1A85 JUMP JUMPDEST SWAP3 POP DUP3 DUP3 SUB SWAP1 POP DUP2 DUP2 GT ISZERO PUSH2 0x20C0 JUMPI PUSH2 0x20BF PUSH2 0x1F57 JUMP JUMPDEST JUMPDEST SWAP3 SWAP2 POP POP JUMP JUMPDEST PUSH1 0x0 PUSH1 0x40 DUP3 ADD SWAP1 POP PUSH2 0x20DB PUSH1 0x0 DUP4 ADD DUP6 PUSH2 0x1B12 JUMP JUMPDEST PUSH2 0x20E8 PUSH1 0x20 DUP4 ADD DUP5 PUSH2 0x1A8F JUMP JUMPDEST SWAP4 SWAP3 POP POP POP JUMP JUMPDEST PUSH1 0x0 PUSH2 0x20FA DUP3 PUSH2 0x1A85 JUMP JUMPDEST SWAP2 POP PUSH32 0xFFFFFFFFFFFFFFFFFFFFFFFFFFFFFFFFFFFFFFFFFFFFFFFFFFFFFFFFFFFFFFFF DUP3 SUB PUSH2 0x212C JUMPI PUSH2 0x212B PUSH2 0x1F57 JUMP JUMPDEST JUMPDEST PUSH1 0x1 DUP3 ADD SWAP1 POP SWAP2 SWAP1 POP JUMP JUMPDEST PUSH1 0x0 DUP3 DUP3 MSTORE PUSH1 0x20 DUP3 ADD SWAP1 POP SWAP3 SWAP2 POP POP JUMP JUMPDEST PUSH1 0x0 DUP1 REVERT JUMPDEST DUP3 DUP2 DUP4 CALLDATACOPY POP POP POP JUMP JUMPDEST PUSH1 0x0 PUSH2 0x2162 DUP4 DUP6 PUSH2 0x2137 JUMP JUMPDEST SWAP4 POP PUSH32 0x7FFFFFFFFFFFFFFFFFFFFFFFFFFFFFFFFFFFFFFFFFFFFFFFFFFFFFFFFFFFFFF DUP4 GT ISZERO PUSH2 0x2195 JUMPI PUSH2 0x2194 PUSH2 0x2148 JUMP JUMPDEST JUMPDEST PUSH1 0x20 DUP4 MUL SWAP3 POP PUSH2 0x21A6 DUP4 DUP6 DUP5 PUSH2 0x214D JUMP JUMPDEST DUP3 DUP5 ADD SWAP1 POP SWAP4 SWAP3 POP POP POP JUMP JUMPDEST PUSH1 0x0 PUSH1 0x40 DUP3 ADD SWAP1 POP DUP2 DUP2 SUB PUSH1 0x0 DUP4 ADD MSTORE PUSH2 0x21CD DUP2 DUP6 DUP8 PUSH2 0x2156 JUMP JUMPDEST SWAP1 POP PUSH2 0x21DC PUSH1 0x20 DUP4 ADD DUP5 PUSH2 0x1A8F JUMP JUMPDEST SWAP5 SWAP4 POP POP POP POP JUMP JUMPDEST PUSH32 0x5265656E7472616E637947756172643A207265656E7472616E742063616C6C00 PUSH1 0x0 DUP3 ADD MSTORE POP JUMP JUMPDEST PUSH1 0x0 PUSH2 0x221A PUSH1 0x1F DUP4 PUSH2 0x1D67 JUMP JUMPDEST SWAP2 POP PUSH2 0x2225 DUP3 PUSH2 0x21E4 JUMP JUMPDEST PUSH1 0x20 DUP3 ADD SWAP1 POP SWAP2 SWAP1 POP JUMP JUMPDEST PUSH1 0x0 PUSH1 0x20 DUP3 ADD SWAP1 POP DUP2 DUP2 SUB PUSH1 0x0 DUP4 ADD MSTORE PUSH2 0x2249 DUP2 PUSH2 0x220D JUMP JUMPDEST SWAP1 POP SWAP2 SWAP1 POP JUMP JUMPDEST PUSH1 0x0 DUP2 MLOAD SWAP1 POP PUSH2 0x225F DUP2 PUSH2 0x1D0E JUMP JUMPDEST SWAP3 SWAP2 POP POP JUMP JUMPDEST PUSH1 0x0 PUSH1 0x20 DUP3 DUP5 SUB SLT ISZERO PUSH2 0x227B JUMPI PUSH2 0x227A PUSH2 0x1946 JUMP JUMPDEST JUMPDEST PUSH1 0x0 PUSH2 0x2289 DUP5 DUP3 DUP6 ADD PUSH2 0x2250 JUMP JUMPDEST SWAP2 POP POP SWAP3 SWAP2 POP POP JUMP JUMPDEST PUSH32 0x596F7520646F6E277420686F6C64207468697320746F6B656E00000000000000 PUSH1 0x0 DUP3 ADD MSTORE POP JUMP JUMPDEST PUSH1 0x0 PUSH2 0x22C8 PUSH1 0x19 DUP4 PUSH2 0x1D67 JUMP JUMPDEST SWAP2 POP PUSH2 0x22D3 DUP3 PUSH2 0x2292 JUMP JUMPDEST PUSH1 0x20 DUP3 ADD SWAP1 POP SWAP2 SWAP1 POP JUMP JUMPDEST PUSH1 0x0 PUSH1 0x20 DUP3 ADD SWAP1 POP DUP2 DUP2 SUB PUSH1 0x0 DUP4 ADD MSTORE PUSH2 0x22F7 DUP2 PUSH2 0x22BB JUMP JUMPDEST SWAP1 POP SWAP2 SWAP1 POP JUMP JUMPDEST PUSH1 0x0 PUSH1 0x60 DUP3 ADD SWAP1 POP PUSH2 0x2313 PUSH1 0x0 DUP4 ADD DUP7 PUSH2 0x1B12 JUMP JUMPDEST PUSH2 0x2320 PUSH1 0x20 DUP4 ADD DUP6 PUSH2 0x1B12 JUMP JUMPDEST PUSH2 0x232D PUSH1 0x40 DUP4 ADD DUP5 PUSH2 0x1A8F JUMP JUMPDEST SWAP5 SWAP4 POP POP POP POP JUMP JUMPDEST PUSH1 0x0 PUSH1 0x20 DUP3 ADD SWAP1 POP DUP2 DUP2 SUB PUSH1 0x0 DUP4 ADD MSTORE PUSH2 0x2350 DUP2 DUP5 DUP7 PUSH2 0x2156 JUMP JUMPDEST SWAP1 POP SWAP4 SWAP3 POP POP POP JUMP JUMPDEST PUSH32 0x496E76616C6964206C6F636B20706572696F642E000000000000000000000000 PUSH1 0x0 DUP3 ADD MSTORE POP JUMP JUMPDEST PUSH1 0x0 PUSH2 0x238F PUSH1 0x14 DUP4 PUSH2 0x1D67 JUMP JUMPDEST SWAP2 POP PUSH2 0x239A DUP3 PUSH2 0x2359 JUMP JUMPDEST PUSH1 0x20 DUP3 ADD SWAP1 POP SWAP2 SWAP1 POP JUMP JUMPDEST PUSH1 0x0 PUSH1 0x20 DUP3 ADD SWAP1 POP DUP2 DUP2 SUB PUSH1 0x0 DUP4 ADD MSTORE PUSH2 0x23BE DUP2 PUSH2 0x2382 JUMP JUMPDEST SWAP1 POP SWAP2 SWAP1 POP JUMP JUMPDEST PUSH32 0x4E6F742061626C6520746F20756E6C6F636B2079657400000000000000000000 PUSH1 0x0 DUP3 ADD MSTORE POP JUMP JUMPDEST PUSH1 0x0 PUSH2 0x23FB PUSH1 0x16 DUP4 PUSH2 0x1D67 JUMP JUMPDEST SWAP2 POP PUSH2 0x2406 DUP3 PUSH2 0x23C5 JUMP JUMPDEST PUSH1 0x20 DUP3 ADD SWAP1 POP SWAP2 SWAP1 POP JUMP JUMPDEST PUSH1 0x0 PUSH1 0x20 DUP3 ADD SWAP1 POP DUP2 DUP2 SUB PUSH1 0x0 DUP4 ADD MSTORE PUSH2 0x242A DUP2 PUSH2 0x23EE JUMP JUMPDEST SWAP1 POP SWAP2 SWAP1 POP JUMP JUMPDEST PUSH32 0x4F776E61626C653A206E6577206F776E657220697320746865207A65726F2061 PUSH1 0x0 DUP3 ADD MSTORE PUSH32 0x6464726573730000000000000000000000000000000000000000000000000000 PUSH1 0x20 DUP3 ADD MSTORE POP JUMP JUMPDEST PUSH1 0x0 PUSH2 0x248D PUSH1 0x26 DUP4 PUSH2 0x1D67 JUMP JUMPDEST SWAP2 POP PUSH2 0x2498 DUP3 PUSH2 0x2431 JUMP JUMPDEST PUSH1 0x40 DUP3 ADD SWAP1 POP SWAP2 SWAP1 POP JUMP JUMPDEST PUSH1 0x0 PUSH1 0x20 DUP3 ADD SWAP1 POP DUP2 DUP2 SUB PUSH1 0x0 DUP4 ADD MSTORE PUSH2 0x24BC DUP2 PUSH2 0x2480 JUMP JUMPDEST SWAP1 POP SWAP2 SWAP1 POP JUMP JUMPDEST PUSH1 0x0 PUSH2 0x24CE DUP3 PUSH2 0x1A85 JUMP JUMPDEST SWAP2 POP PUSH2 0x24D9 DUP4 PUSH2 0x1A85 JUMP JUMPDEST SWAP3 POP DUP2 PUSH32 0xFFFFFFFFFFFFFFFFFFFFFFFFFFFFFFFFFFFFFFFFFFFFFFFFFFFFFFFFFFFFFFFF DIV DUP4 GT DUP3 ISZERO ISZERO AND ISZERO PUSH2 0x2512 JUMPI PUSH2 0x2511 PUSH2 0x1F57 JUMP JUMPDEST JUMPDEST DUP3 DUP3 MUL SWAP1 POP SWAP3 SWAP2 POP POP JUMP JUMPDEST PUSH32 0x4E487B7100000000000000000000000000000000000000000000000000000000 PUSH1 0x0 MSTORE PUSH1 0x12 PUSH1 0x4 MSTORE PUSH1 0x24 PUSH1 0x0 REVERT JUMPDEST PUSH1 0x0 PUSH2 0x2557 DUP3 PUSH2 0x1A85 JUMP JUMPDEST SWAP2 POP PUSH2 0x2562 DUP4 PUSH2 0x1A85 JUMP JUMPDEST SWAP3 POP DUP3 PUSH2 0x2572 JUMPI PUSH2 0x2571 PUSH2 0x251D JUMP JUMPDEST JUMPDEST DUP3 DUP3 DIV SWAP1 POP SWAP3 SWAP2 POP POP JUMP JUMPDEST PUSH32 0x4F776E61626C653A2063616C6C6572206973206E6F7420746865206F776E6572 PUSH1 0x0 DUP3 ADD MSTORE POP JUMP JUMPDEST PUSH1 0x0 PUSH2 0x25B3 PUSH1 0x20 DUP4 PUSH2 0x1D67 JUMP JUMPDEST SWAP2 POP PUSH2 0x25BE DUP3 PUSH2 0x257D JUMP JUMPDEST PUSH1 0x20 DUP3 ADD SWAP1 POP SWAP2 SWAP1 POP JUMP JUMPDEST PUSH1 0x0 PUSH1 0x20 DUP3 ADD SWAP1 POP DUP2 DUP2 SUB PUSH1 0x0 DUP4 ADD MSTORE PUSH2 0x25E2 DUP2 PUSH2 0x25A6 JUMP JUMPDEST SWAP1 POP SWAP2 SWAP1 POP JUMP INVALID LOG2 PUSH5 0x6970667358 0x22 SLT KECCAK256 0x29 PUSH15 0xC1ED1F371249E3FEE2014FFF3DDCB5 0x4B SELFBALANCE 0x2B DUP12 SWAP2 SWAP4 SWAP15 CODESIZE SHR SWAP16 0xE9 PUSH11 0x93245E64736F6C63430008 LT STOP CALLER "
				},
				"gasEstimates": {
					"creation": {
						"codeDepositCost": "1951800",
						"executionCost": "infinite",
						"totalCost": "infinite"
					},
					"external": {
						"WAVE()": "2495",
						"claimRewards(uint256[],address)": "infinite",
						"claimedRewards(uint256,address)": "infinite",
						"lockInfo(address,uint256)": "infinite",
						"lockNFT(uint256[],address)": "infinite",
						"lockPeriod()": "2474",
						"nftInfo(address)": "infinite",
						"owner()": "2633",
						"renounceOwnership()": "30465",
						"setLockPeriod(uint256)": "infinite",
						"transferOwnership(address)": "30854",
						"unlockNFT(uint256[],address)": "infinite"
					},
					"internal": {
						"_rewardAmount(uint256,contract IERC721)": "infinite"
					}
				},
				"methodIdentifiers": {
					"WAVE()": "c69d1923",
					"claimRewards(uint256[],address)": "0520537f",
					"claimedRewards(uint256,address)": "b33068c4",
					"lockInfo(address,uint256)": "b2520a7c",
					"lockNFT(uint256[],address)": "1902732e",
					"lockPeriod()": "3fd8b02f",
					"nftInfo(address)": "e9545b92",
					"owner()": "8da5cb5b",
					"renounceOwnership()": "715018a6",
					"setLockPeriod(uint256)": "779972da",
					"transferOwnership(address)": "f2fde38b",
					"unlockNFT(uint256[],address)": "9f3625f0"
				}
			},
			"storageLayout": {
				"storage": [
					{
						"astId": 7,
						"contract": "contracts/Staking.sol:NFTStaking1",
						"label": "_owner",
						"offset": 0,
						"slot": "0",
						"type": "t_address"
					},
					{
						"astId": 123,
						"contract": "contracts/Staking.sol:NFTStaking1",
						"label": "_status",
						"offset": 0,
						"slot": "1",
						"type": "t_uint256"
					},
					{
						"astId": 614,
						"contract": "contracts/Staking.sol:NFTStaking1",
						"label": "lockPeriod",
						"offset": 0,
						"slot": "2",
						"type": "t_uint256"
					},
					{
						"astId": 634,
						"contract": "contracts/Staking.sol:NFTStaking1",
						"label": "lockInfo",
						"offset": 0,
						"slot": "3",
						"type": "t_mapping(t_contract(IERC721)268,t_mapping(t_uint256,t_struct(LockInfo)626_storage))"
					},
					{
						"astId": 648,
						"contract": "contracts/Staking.sol:NFTStaking1",
						"label": "nftInfo",
						"offset": 0,
						"slot": "4",
						"type": "t_mapping(t_contract(IERC721)268,t_struct(stakeNftInfo)642_storage)"
					},
					{
						"astId": 651,
						"contract": "contracts/Staking.sol:NFTStaking1",
						"label": "WAVE",
						"offset": 0,
						"slot": "5",
						"type": "t_uint256"
					}
				],
				"types": {
					"t_address": {
						"encoding": "inplace",
						"label": "address",
						"numberOfBytes": "20"
					},
					"t_bool": {
						"encoding": "inplace",
						"label": "bool",
						"numberOfBytes": "1"
					},
					"t_contract(IERC721)268": {
						"encoding": "inplace",
						"label": "contract IERC721",
						"numberOfBytes": "20"
					},
					"t_contract(IRewardsToken)1274": {
						"encoding": "inplace",
						"label": "contract IRewardsToken",
						"numberOfBytes": "20"
					},
					"t_mapping(t_contract(IERC721)268,t_mapping(t_uint256,t_struct(LockInfo)626_storage))": {
						"encoding": "mapping",
						"key": "t_contract(IERC721)268",
						"label": "mapping(contract IERC721 => mapping(uint256 => struct NFTStaking1.LockInfo))",
						"numberOfBytes": "32",
						"value": "t_mapping(t_uint256,t_struct(LockInfo)626_storage)"
					},
					"t_mapping(t_contract(IERC721)268,t_struct(stakeNftInfo)642_storage)": {
						"encoding": "mapping",
						"key": "t_contract(IERC721)268",
						"label": "mapping(contract IERC721 => struct NFTStaking1.stakeNftInfo)",
						"numberOfBytes": "32",
						"value": "t_struct(stakeNftInfo)642_storage"
					},
					"t_mapping(t_uint256,t_struct(LockInfo)626_storage)": {
						"encoding": "mapping",
						"key": "t_uint256",
						"label": "mapping(uint256 => struct NFTStaking1.LockInfo)",
						"numberOfBytes": "32",
						"value": "t_struct(LockInfo)626_storage"
					},
					"t_struct(LockInfo)626_storage": {
						"encoding": "inplace",
						"label": "struct NFTStaking1.LockInfo",
						"members": [
							{
								"astId": 616,
								"contract": "contracts/Staking.sol:NFTStaking1",
								"label": "owner",
								"offset": 0,
								"slot": "0",
								"type": "t_address"
							},
							{
								"astId": 618,
								"contract": "contracts/Staking.sol:NFTStaking1",
								"label": "lockedTime",
								"offset": 0,
								"slot": "1",
								"type": "t_uint256"
							},
							{
								"astId": 620,
								"contract": "contracts/Staking.sol:NFTStaking1",
								"label": "claimedRewards",
								"offset": 0,
								"slot": "2",
								"type": "t_uint256"
							},
							{
								"astId": 622,
								"contract": "contracts/Staking.sol:NFTStaking1",
								"label": "isUnlocked",
								"offset": 0,
								"slot": "3",
								"type": "t_bool"
							},
							{
								"astId": 625,
								"contract": "contracts/Staking.sol:NFTStaking1",
								"label": "contractAddress",
								"offset": 1,
								"slot": "3",
								"type": "t_contract(IERC721)268"
							}
						],
						"numberOfBytes": "128"
					},
					"t_struct(stakeNftInfo)642_storage": {
						"encoding": "inplace",
						"label": "struct NFTStaking1.stakeNftInfo",
						"members": [
							{
								"astId": 637,
								"contract": "contracts/Staking.sol:NFTStaking1",
								"label": "rewardsToken",
								"offset": 0,
								"slot": "0",
								"type": "t_contract(IRewardsToken)1274"
							},
							{
								"astId": 639,
								"contract": "contracts/Staking.sol:NFTStaking1",
								"label": "rewardsPerWave",
								"offset": 0,
								"slot": "1",
								"type": "t_uint256"
							},
							{
								"astId": 641,
								"contract": "contracts/Staking.sol:NFTStaking1",
								"label": "rewardPercentage",
								"offset": 0,
								"slot": "2",
								"type": "t_uint256"
							}
						],
						"numberOfBytes": "96"
					},
					"t_uint256": {
						"encoding": "inplace",
						"label": "uint256",
						"numberOfBytes": "32"
					}
				}
			},
			"userdoc": {
				"kind": "user",
				"methods": {
					"WAVE()": {
						"notice": "CONSTANTS "
					}
				},
				"version": 1
			}
		}
	}
}