{
	"contracts/Staking.sol": {
		"NFTStaking1": {
			"abi": [
				{
					"inputs": [
						{
							"internalType": "uint256",
							"name": "_lockPeriod",
							"type": "uint256"
						},
						{
							"internalType": "uint256",
							"name": "_wave",
							"type": "uint256"
						}
					],
					"stateMutability": "nonpayable",
					"type": "constructor"
				},
				{
					"anonymous": false,
					"inputs": [
						{
							"indexed": false,
							"internalType": "uint256",
							"name": "lockPeriod",
							"type": "uint256"
						}
					],
					"name": "LockPeriodUpdated",
					"type": "event"
				},
				{
					"anonymous": false,
					"inputs": [
						{
							"indexed": true,
							"internalType": "address",
							"name": "owner",
							"type": "address"
						},
						{
							"indexed": false,
							"internalType": "uint256[]",
							"name": "tokenIds",
							"type": "uint256[]"
						}
					],
					"name": "NFTLocked",
					"type": "event"
				},
				{
					"anonymous": false,
					"inputs": [
						{
							"indexed": true,
							"internalType": "address",
							"name": "owner",
							"type": "address"
						},
						{
							"indexed": false,
							"internalType": "uint256[]",
							"name": "tokenIds",
							"type": "uint256[]"
						}
					],
					"name": "NFTUnLocked",
					"type": "event"
				},
				{
					"anonymous": false,
					"inputs": [
						{
							"indexed": true,
							"internalType": "address",
							"name": "previousOwner",
							"type": "address"
						},
						{
							"indexed": true,
							"internalType": "address",
							"name": "newOwner",
							"type": "address"
						}
					],
					"name": "OwnershipTransferred",
					"type": "event"
				},
				{
					"anonymous": false,
					"inputs": [
						{
							"indexed": true,
							"internalType": "address",
							"name": "owner",
							"type": "address"
						},
						{
							"indexed": false,
							"internalType": "uint256[]",
							"name": "tokenIds",
							"type": "uint256[]"
						},
						{
							"indexed": false,
							"internalType": "uint256",
							"name": "rewards",
							"type": "uint256"
						}
					],
					"name": "RewardsClaimed",
					"type": "event"
				},
				{
					"inputs": [],
					"name": "WAVE",
					"outputs": [
						{
							"internalType": "uint256",
							"name": "",
							"type": "uint256"
						}
					],
					"stateMutability": "view",
					"type": "function"
				},
				{
					"inputs": [
						{
							"internalType": "address[]",
							"name": "_stakeNFT",
							"type": "address[]"
						},
						{
							"internalType": "address[]",
							"name": "_rewardsToken",
							"type": "address[]"
						},
						{
							"internalType": "uint256[]",
							"name": "_rewardPerWave",
							"type": "uint256[]"
						},
						{
							"internalType": "uint256[]",
							"name": "_rewardPercentage",
							"type": "uint256[]"
						}
					],
					"name": "addStakingNfts",
					"outputs": [],
					"stateMutability": "nonpayable",
					"type": "function"
				},
				{
					"inputs": [
						{
							"internalType": "uint256[]",
							"name": "_tokenIds",
							"type": "uint256[]"
						},
						{
							"internalType": "contract IERC721",
							"name": "nftAddress",
							"type": "address"
						}
					],
					"name": "claimRewards",
					"outputs": [],
					"stateMutability": "nonpayable",
					"type": "function"
				},
				{
					"inputs": [
						{
							"internalType": "uint256",
							"name": "_tokenId",
							"type": "uint256"
						},
						{
							"internalType": "contract IERC721",
							"name": "nftAddress",
							"type": "address"
						}
					],
					"name": "claimedRewards",
					"outputs": [
						{
							"internalType": "uint256",
							"name": "",
							"type": "uint256"
						}
					],
					"stateMutability": "view",
					"type": "function"
				},
				{
					"inputs": [
						{
							"internalType": "contract IERC721",
							"name": "",
							"type": "address"
						},
						{
							"internalType": "uint256",
							"name": "",
							"type": "uint256"
						}
					],
					"name": "lockInfo",
					"outputs": [
						{
							"internalType": "address",
							"name": "owner",
							"type": "address"
						},
						{
							"internalType": "uint256",
							"name": "lockedTime",
							"type": "uint256"
						},
						{
							"internalType": "uint256",
							"name": "claimedRewards",
							"type": "uint256"
						},
						{
							"internalType": "bool",
							"name": "isUnlocked",
							"type": "bool"
						},
						{
							"internalType": "contract IERC721",
							"name": "contractAddress",
							"type": "address"
						}
					],
					"stateMutability": "view",
					"type": "function"
				},
				{
					"inputs": [
						{
							"internalType": "uint256[]",
							"name": "_tokenIds",
							"type": "uint256[]"
						},
						{
							"internalType": "contract IERC721",
							"name": "nftAddress",
							"type": "address"
						}
					],
					"name": "lockNFT",
					"outputs": [],
					"stateMutability": "nonpayable",
					"type": "function"
				},
				{
					"inputs": [],
					"name": "lockPeriod",
					"outputs": [
						{
							"internalType": "uint256",
							"name": "",
							"type": "uint256"
						}
					],
					"stateMutability": "view",
					"type": "function"
				},
				{
					"inputs": [
						{
							"internalType": "contract IERC721",
							"name": "",
							"type": "address"
						}
					],
					"name": "nftInfo",
					"outputs": [
						{
							"internalType": "contract IRewardsToken",
							"name": "rewardsToken",
							"type": "address"
						},
						{
							"internalType": "uint256",
							"name": "rewardsPerWave",
							"type": "uint256"
						},
						{
							"internalType": "uint256",
							"name": "rewardPercentage",
							"type": "uint256"
						}
					],
					"stateMutability": "view",
					"type": "function"
				},
				{
					"inputs": [],
					"name": "owner",
					"outputs": [
						{
							"internalType": "address",
							"name": "",
							"type": "address"
						}
					],
					"stateMutability": "view",
					"type": "function"
				},
				{
					"inputs": [],
					"name": "renounceOwnership",
					"outputs": [],
					"stateMutability": "nonpayable",
					"type": "function"
				},
				{
					"inputs": [
						{
							"internalType": "uint256",
							"name": "_lockPeriod",
							"type": "uint256"
						}
					],
					"name": "setLockPe",
					"outputs": [],
					"stateMutability": "nonpayable",
					"type": "function"
				},
				{
					"inputs": [
						{
							"internalType": "address",
							"name": "newOwner",
							"type": "address"
						}
					],
					"name": "transferOwnership",
					"outputs": [],
					"stateMutability": "nonpayable",
					"type": "function"
				},
				{
					"inputs": [
						{
							"internalType": "uint256[]",
							"name": "_tokenIds",
							"type": "uint256[]"
						},
						{
							"internalType": "contract IERC721",
							"name": "nftAddress",
							"type": "address"
						}
					],
					"name": "unlockNFT",
					"outputs": [],
					"stateMutability": "nonpayable",
					"type": "function"
				}
			],
			"devdoc": {
				"kind": "dev",
				"methods": {
					"addStakingNfts(address[],address[],uint256[],uint256[])": {
						"details": "add the address NFT staking addresses and their corresponders",
						"params": {
							"_stakeNFT": ", _rewardsToken, _rewardPerWave, _rewardPercentage"
						}
					},
					"claimRewards(uint256[],address)": {
						"details": "claim rewards",
						"params": {
							"_tokenIds": "token ids to unlock"
						}
					},
					"claimedRewards(uint256,address)": {
						"details": "get total claimed rewards for token id",
						"params": {
							"_tokenId": "token id to get claimed Rewards amount"
						}
					},
					"lockNFT(uint256[],address)": {
						"details": "lock NFT into the contract",
						"params": {
							"_tokenIds": "token ids to stake"
						}
					},
					"owner()": {
						"details": "Returns the address of the current owner."
					},
					"renounceOwnership()": {
						"details": "Leaves the contract without owner. It will not be possible to call `onlyOwner` functions anymore. Can only be called by the current owner. NOTE: Renouncing ownership will leave the contract without an owner, thereby removing any functionality that is only available to the owner."
					},
					"setLockPe(uint256)": {
						"details": "update lock period",
						"params": {
							"_lockPeriod": "lock period to set"
						}
					},
					"transferOwnership(address)": {
						"details": "Transfers ownership of the contract to a new account (`newOwner`). Can only be called by the current owner."
					},
					"unlockNFT(uint256[],address)": {
						"details": "unlock NFT from the contract",
						"params": {
							"_tokenIds": "token ids to unlock"
						}
					}
				},
				"version": 1
			},
			"evm": {
				"assembly": "    /* \"contracts/Staking.sol\":412:7747  contract NFTStaking1 is Ownable, ReentrancyGuard {... */\n  mstore(0x40, 0x80)\n    /* \"contracts/Staking.sol\":1581:1785  constructor(... */\n  callvalue\n  dup1\n  iszero\n  tag_1\n  jumpi\n  0x00\n  dup1\n  revert\ntag_1:\n  pop\n  mload(0x40)\n  sub(codesize, bytecodeSize)\n  dup1\n  bytecodeSize\n  dup4\n  codecopy\n  dup2\n  dup2\n  add\n  0x40\n  mstore\n  dup2\n  add\n  swap1\n  tag_2\n  swap2\n  swap1\n  tag_3\n  jump\t// in\ntag_2:\n    /* \"@openzeppelin/contracts/access/Ownable.sol\":936:968  _transferOwnership(_msgSender()) */\n  tag_8\n    /* \"@openzeppelin/contracts/access/Ownable.sol\":955:967  _msgSender() */\n  tag_9\n    /* \"@openzeppelin/contracts/access/Ownable.sol\":955:965  _msgSender */\n  shl(0x20, tag_10)\n    /* \"@openzeppelin/contracts/access/Ownable.sol\":955:967  _msgSender() */\n  0x20\n  shr\n  jump\t// in\ntag_9:\n    /* \"@openzeppelin/contracts/access/Ownable.sol\":936:954  _transferOwnership */\n  shl(0x20, tag_11)\n    /* \"@openzeppelin/contracts/access/Ownable.sol\":936:968  _transferOwnership(_msgSender()) */\n  0x20\n  shr\n  jump\t// in\ntag_8:\n    /* \"@openzeppelin/contracts/security/ReentrancyGuard.sol\":1701:1702  1 */\n  0x01\n    /* \"@openzeppelin/contracts/security/ReentrancyGuard.sol\":1806:1813  _status */\n  dup1\n    /* \"@openzeppelin/contracts/security/ReentrancyGuard.sol\":1806:1828  _status = _NOT_ENTERED */\n  dup2\n  swap1\n  sstore\n  pop\n    /* \"contracts/Staking.sol\":1692:1693  0 */\n  0x00\n    /* \"contracts/Staking.sol\":1678:1689  _lockPeriod */\n  dup3\n    /* \"contracts/Staking.sol\":1678:1693  _lockPeriod > 0 */\n  gt\n    /* \"contracts/Staking.sol\":1670:1717  require(_lockPeriod > 0, \"Invalid lock period\") */\n  tag_14\n  jumpi\n  mload(0x40)\n  0x08c379a000000000000000000000000000000000000000000000000000000000\n  dup2\n  mstore\n  0x04\n  add\n  tag_15\n  swap1\n  tag_16\n  jump\t// in\ntag_15:\n  mload(0x40)\n  dup1\n  swap2\n  sub\n  swap1\n  revert\ntag_14:\n    /* \"contracts/Staking.sol\":1743:1754  _lockPeriod */\n  dup2\n    /* \"contracts/Staking.sol\":1730:1740  lockPeriod */\n  0x02\n    /* \"contracts/Staking.sol\":1730:1754  lockPeriod = _lockPeriod */\n  dup2\n  swap1\n  sstore\n  pop\n    /* \"contracts/Staking.sol\":1772:1777  _wave */\n  dup1\n    /* \"contracts/Staking.sol\":1765:1769  WAVE */\n  0x05\n    /* \"contracts/Staking.sol\":1765:1777  WAVE = _wave */\n  dup2\n  swap1\n  sstore\n  pop\n    /* \"contracts/Staking.sol\":1581:1785  constructor(... */\n  pop\n  pop\n    /* \"contracts/Staking.sol\":412:7747  contract NFTStaking1 is Ownable, ReentrancyGuard {... */\n  jump(tag_17)\n    /* \"@openzeppelin/contracts/utils/Context.sol\":640:736  function _msgSender() internal view virtual returns (address) {... */\ntag_10:\n    /* \"@openzeppelin/contracts/utils/Context.sol\":693:700  address */\n  0x00\n    /* \"@openzeppelin/contracts/utils/Context.sol\":719:729  msg.sender */\n  caller\n    /* \"@openzeppelin/contracts/utils/Context.sol\":712:729  return msg.sender */\n  swap1\n  pop\n    /* \"@openzeppelin/contracts/utils/Context.sol\":640:736  function _msgSender() internal view virtual returns (address) {... */\n  swap1\n  jump\t// out\n    /* \"@openzeppelin/contracts/access/Ownable.sol\":2433:2620  function _transferOwnership(address newOwner) internal virtual {... */\ntag_11:\n    /* \"@openzeppelin/contracts/access/Ownable.sol\":2506:2522  address oldOwner */\n  0x00\n    /* \"@openzeppelin/contracts/access/Ownable.sol\":2525:2531  _owner */\n  dup1\n  0x00\n  swap1\n  sload\n  swap1\n  0x0100\n  exp\n  swap1\n  div\n  0xffffffffffffffffffffffffffffffffffffffff\n  and\n    /* \"@openzeppelin/contracts/access/Ownable.sol\":2506:2531  address oldOwner = _owner */\n  swap1\n  pop\n    /* \"@openzeppelin/contracts/access/Ownable.sol\":2550:2558  newOwner */\n  dup2\n    /* \"@openzeppelin/contracts/access/Ownable.sol\":2541:2547  _owner */\n  0x00\n  dup1\n    /* \"@openzeppelin/contracts/access/Ownable.sol\":2541:2558  _owner = newOwner */\n  0x0100\n  exp\n  dup2\n  sload\n  dup2\n  0xffffffffffffffffffffffffffffffffffffffff\n  mul\n  not\n  and\n  swap1\n  dup4\n  0xffffffffffffffffffffffffffffffffffffffff\n  and\n  mul\n  or\n  swap1\n  sstore\n  pop\n    /* \"@openzeppelin/contracts/access/Ownable.sol\":2604:2612  newOwner */\n  dup2\n    /* \"@openzeppelin/contracts/access/Ownable.sol\":2573:2613  OwnershipTransferred(oldOwner, newOwner) */\n  0xffffffffffffffffffffffffffffffffffffffff\n  and\n    /* \"@openzeppelin/contracts/access/Ownable.sol\":2594:2602  oldOwner */\n  dup2\n    /* \"@openzeppelin/contracts/access/Ownable.sol\":2573:2613  OwnershipTransferred(oldOwner, newOwner) */\n  0xffffffffffffffffffffffffffffffffffffffff\n  and\n  0x8be0079c531659141344cd1fd0a4f28419497f9722a3daafe3b4186f6b6457e0\n  mload(0x40)\n  mload(0x40)\n  dup1\n  swap2\n  sub\n  swap1\n  log3\n    /* \"@openzeppelin/contracts/access/Ownable.sol\":2496:2620  {... */\n  pop\n    /* \"@openzeppelin/contracts/access/Ownable.sol\":2433:2620  function _transferOwnership(address newOwner) internal virtual {... */\n  pop\n  jump\t// out\n    /* \"#utility.yul\":88:205   */\ntag_21:\n    /* \"#utility.yul\":197:198   */\n  0x00\n    /* \"#utility.yul\":194:195   */\n  dup1\n    /* \"#utility.yul\":187:199   */\n  revert\n    /* \"#utility.yul\":334:411   */\ntag_23:\n    /* \"#utility.yul\":371:378   */\n  0x00\n    /* \"#utility.yul\":400:405   */\n  dup2\n    /* \"#utility.yul\":389:405   */\n  swap1\n  pop\n    /* \"#utility.yul\":334:411   */\n  swap2\n  swap1\n  pop\n  jump\t// out\n    /* \"#utility.yul\":417:539   */\ntag_24:\n    /* \"#utility.yul\":490:514   */\n  tag_35\n    /* \"#utility.yul\":508:513   */\n  dup2\n    /* \"#utility.yul\":490:514   */\n  tag_23\n  jump\t// in\ntag_35:\n    /* \"#utility.yul\":483:488   */\n  dup2\n    /* \"#utility.yul\":480:515   */\n  eq\n    /* \"#utility.yul\":470:533   */\n  tag_36\n  jumpi\n    /* \"#utility.yul\":529:530   */\n  0x00\n    /* \"#utility.yul\":526:527   */\n  dup1\n    /* \"#utility.yul\":519:531   */\n  revert\n    /* \"#utility.yul\":470:533   */\ntag_36:\n    /* \"#utility.yul\":417:539   */\n  pop\n  jump\t// out\n    /* \"#utility.yul\":545:688   */\ntag_25:\n    /* \"#utility.yul\":602:607   */\n  0x00\n    /* \"#utility.yul\":633:639   */\n  dup2\n    /* \"#utility.yul\":627:640   */\n  mload\n    /* \"#utility.yul\":618:640   */\n  swap1\n  pop\n    /* \"#utility.yul\":649:682   */\n  tag_38\n    /* \"#utility.yul\":676:681   */\n  dup2\n    /* \"#utility.yul\":649:682   */\n  tag_24\n  jump\t// in\ntag_38:\n    /* \"#utility.yul\":545:688   */\n  swap3\n  swap2\n  pop\n  pop\n  jump\t// out\n    /* \"#utility.yul\":694:1201   */\ntag_3:\n    /* \"#utility.yul\":773:779   */\n  0x00\n    /* \"#utility.yul\":781:787   */\n  dup1\n    /* \"#utility.yul\":830:832   */\n  0x40\n    /* \"#utility.yul\":818:827   */\n  dup4\n    /* \"#utility.yul\":809:816   */\n  dup6\n    /* \"#utility.yul\":805:828   */\n  sub\n    /* \"#utility.yul\":801:833   */\n  slt\n    /* \"#utility.yul\":798:917   */\n  iszero\n  tag_40\n  jumpi\n    /* \"#utility.yul\":836:915   */\n  tag_41\n  tag_21\n  jump\t// in\ntag_41:\n    /* \"#utility.yul\":798:917   */\ntag_40:\n    /* \"#utility.yul\":956:957   */\n  0x00\n    /* \"#utility.yul\":981:1045   */\n  tag_42\n    /* \"#utility.yul\":1037:1044   */\n  dup6\n    /* \"#utility.yul\":1028:1034   */\n  dup3\n    /* \"#utility.yul\":1017:1026   */\n  dup7\n    /* \"#utility.yul\":1013:1035   */\n  add\n    /* \"#utility.yul\":981:1045   */\n  tag_25\n  jump\t// in\ntag_42:\n    /* \"#utility.yul\":971:1045   */\n  swap3\n  pop\n    /* \"#utility.yul\":927:1055   */\n  pop\n    /* \"#utility.yul\":1094:1096   */\n  0x20\n    /* \"#utility.yul\":1120:1184   */\n  tag_43\n    /* \"#utility.yul\":1176:1183   */\n  dup6\n    /* \"#utility.yul\":1167:1173   */\n  dup3\n    /* \"#utility.yul\":1156:1165   */\n  dup7\n    /* \"#utility.yul\":1152:1174   */\n  add\n    /* \"#utility.yul\":1120:1184   */\n  tag_25\n  jump\t// in\ntag_43:\n    /* \"#utility.yul\":1110:1184   */\n  swap2\n  pop\n    /* \"#utility.yul\":1065:1194   */\n  pop\n    /* \"#utility.yul\":694:1201   */\n  swap3\n  pop\n  swap3\n  swap1\n  pop\n  jump\t// out\n    /* \"#utility.yul\":1207:1376   */\ntag_26:\n    /* \"#utility.yul\":1291:1302   */\n  0x00\n    /* \"#utility.yul\":1325:1331   */\n  dup3\n    /* \"#utility.yul\":1320:1323   */\n  dup3\n    /* \"#utility.yul\":1313:1332   */\n  mstore\n    /* \"#utility.yul\":1365:1369   */\n  0x20\n    /* \"#utility.yul\":1360:1363   */\n  dup3\n    /* \"#utility.yul\":1356:1370   */\n  add\n    /* \"#utility.yul\":1341:1370   */\n  swap1\n  pop\n    /* \"#utility.yul\":1207:1376   */\n  swap3\n  swap2\n  pop\n  pop\n  jump\t// out\n    /* \"#utility.yul\":1382:1551   */\ntag_27:\n    /* \"#utility.yul\":1522:1543   */\n  0x496e76616c6964206c6f636b20706572696f6400000000000000000000000000\n    /* \"#utility.yul\":1518:1519   */\n  0x00\n    /* \"#utility.yul\":1510:1516   */\n  dup3\n    /* \"#utility.yul\":1506:1520   */\n  add\n    /* \"#utility.yul\":1499:1544   */\n  mstore\n    /* \"#utility.yul\":1382:1551   */\n  pop\n  jump\t// out\n    /* \"#utility.yul\":1557:1923   */\ntag_28:\n    /* \"#utility.yul\":1699:1702   */\n  0x00\n    /* \"#utility.yul\":1720:1787   */\n  tag_47\n    /* \"#utility.yul\":1784:1786   */\n  0x13\n    /* \"#utility.yul\":1779:1782   */\n  dup4\n    /* \"#utility.yul\":1720:1787   */\n  tag_26\n  jump\t// in\ntag_47:\n    /* \"#utility.yul\":1713:1787   */\n  swap2\n  pop\n    /* \"#utility.yul\":1796:1889   */\n  tag_48\n    /* \"#utility.yul\":1885:1888   */\n  dup3\n    /* \"#utility.yul\":1796:1889   */\n  tag_27\n  jump\t// in\ntag_48:\n    /* \"#utility.yul\":1914:1916   */\n  0x20\n    /* \"#utility.yul\":1909:1912   */\n  dup3\n    /* \"#utility.yul\":1905:1917   */\n  add\n    /* \"#utility.yul\":1898:1917   */\n  swap1\n  pop\n    /* \"#utility.yul\":1557:1923   */\n  swap2\n  swap1\n  pop\n  jump\t// out\n    /* \"#utility.yul\":1929:2348   */\ntag_16:\n    /* \"#utility.yul\":2095:2099   */\n  0x00\n    /* \"#utility.yul\":2133:2135   */\n  0x20\n    /* \"#utility.yul\":2122:2131   */\n  dup3\n    /* \"#utility.yul\":2118:2136   */\n  add\n    /* \"#utility.yul\":2110:2136   */\n  swap1\n  pop\n    /* \"#utility.yul\":2182:2191   */\n  dup2\n    /* \"#utility.yul\":2176:2180   */\n  dup2\n    /* \"#utility.yul\":2172:2192   */\n  sub\n    /* \"#utility.yul\":2168:2169   */\n  0x00\n    /* \"#utility.yul\":2157:2166   */\n  dup4\n    /* \"#utility.yul\":2153:2170   */\n  add\n    /* \"#utility.yul\":2146:2193   */\n  mstore\n    /* \"#utility.yul\":2210:2341   */\n  tag_50\n    /* \"#utility.yul\":2336:2340   */\n  dup2\n    /* \"#utility.yul\":2210:2341   */\n  tag_28\n  jump\t// in\ntag_50:\n    /* \"#utility.yul\":2202:2341   */\n  swap1\n  pop\n    /* \"#utility.yul\":1929:2348   */\n  swap2\n  swap1\n  pop\n  jump\t// out\n    /* \"contracts/Staking.sol\":412:7747  contract NFTStaking1 is Ownable, ReentrancyGuard {... */\ntag_17:\n  dataSize(sub_0)\n  dup1\n  dataOffset(sub_0)\n  0x00\n  codecopy\n  0x00\n  return\nstop\n\nsub_0: assembly {\n        /* \"contracts/Staking.sol\":412:7747  contract NFTStaking1 is Ownable, ReentrancyGuard {... */\n      mstore(0x40, 0x80)\n      callvalue\n      dup1\n      iszero\n      tag_1\n      jumpi\n      0x00\n      dup1\n      revert\n    tag_1:\n      pop\n      jumpi(tag_2, lt(calldatasize, 0x04))\n      shr(0xe0, calldataload(0x00))\n      dup1\n      0x9f3625f0\n      gt\n      tag_16\n      jumpi\n      dup1\n      0xc69d1923\n      gt\n      tag_17\n      jumpi\n      dup1\n      0xc69d1923\n      eq\n      tag_12\n      jumpi\n      dup1\n      0xe9545b92\n      eq\n      tag_13\n      jumpi\n      dup1\n      0xeee00ed0\n      eq\n      tag_14\n      jumpi\n      dup1\n      0xf2fde38b\n      eq\n      tag_15\n      jumpi\n      jump(tag_2)\n    tag_17:\n      dup1\n      0x9f3625f0\n      eq\n      tag_9\n      jumpi\n      dup1\n      0xb2520a7c\n      eq\n      tag_10\n      jumpi\n      dup1\n      0xb33068c4\n      eq\n      tag_11\n      jumpi\n      jump(tag_2)\n    tag_16:\n      dup1\n      0x574d23\n      eq\n      tag_3\n      jumpi\n      dup1\n      0x0520537f\n      eq\n      tag_4\n      jumpi\n      dup1\n      0x1902732e\n      eq\n      tag_5\n      jumpi\n      dup1\n      0x3fd8b02f\n      eq\n      tag_6\n      jumpi\n      dup1\n      0x715018a6\n      eq\n      tag_7\n      jumpi\n      dup1\n      0x8da5cb5b\n      eq\n      tag_8\n      jumpi\n    tag_2:\n      0x00\n      dup1\n      revert\n        /* \"contracts/Staking.sol\":3109:3318  function setLockPe(uint256 _lockPeriod) external onlyOwner {... */\n    tag_3:\n      tag_18\n      0x04\n      dup1\n      calldatasize\n      sub\n      dup2\n      add\n      swap1\n      tag_19\n      swap2\n      swap1\n      tag_20\n      jump\t// in\n    tag_19:\n      tag_21\n      jump\t// in\n    tag_18:\n      stop\n        /* \"contracts/Staking.sol\":6006:7169  function claimRewards(uint256[] calldata _tokenIds,IERC721 nftAddress) external notContract {... */\n    tag_4:\n      tag_22\n      0x04\n      dup1\n      calldatasize\n      sub\n      dup2\n      add\n      swap1\n      tag_23\n      swap2\n      swap1\n      tag_24\n      jump\t// in\n    tag_23:\n      tag_25\n      jump\t// in\n    tag_22:\n      stop\n        /* \"contracts/Staking.sol\":3801:4557  function lockNFT(uint256[] calldata  _tokenIds, IERC721 nftAddress ) external notContract nonReentrant {... */\n    tag_5:\n      tag_26\n      0x04\n      dup1\n      calldatasize\n      sub\n      dup2\n      add\n      swap1\n      tag_27\n      swap2\n      swap1\n      tag_24\n      jump\t// in\n    tag_27:\n      tag_28\n      jump\t// in\n    tag_26:\n      stop\n        /* \"contracts/Staking.sol\":502:527  uint256 public lockPeriod */\n    tag_6:\n      tag_29\n      tag_30\n      jump\t// in\n    tag_29:\n      mload(0x40)\n      tag_31\n      swap2\n      swap1\n      tag_32\n      jump\t// in\n    tag_31:\n      mload(0x40)\n      dup1\n      swap2\n      sub\n      swap1\n      return\n        /* \"@openzeppelin/contracts/access/Ownable.sol\":1831:1932  function renounceOwnership() public virtual onlyOwner {... */\n    tag_7:\n      tag_33\n      tag_34\n      jump\t// in\n    tag_33:\n      stop\n        /* \"@openzeppelin/contracts/access/Ownable.sol\":1201:1286  function owner() public view virtual returns (address) {... */\n    tag_8:\n      tag_35\n      tag_36\n      jump\t// in\n    tag_35:\n      mload(0x40)\n      tag_37\n      swap2\n      swap1\n      tag_38\n      jump\t// in\n    tag_37:\n      mload(0x40)\n      dup1\n      swap2\n      sub\n      swap1\n      return\n        /* \"contracts/Staking.sol\":4670:5908  function unlockNFT(uint256[] calldata _tokenIds, IERC721 nftAddress) external notContract nonReentrant {... */\n    tag_9:\n      tag_39\n      0x04\n      dup1\n      calldatasize\n      sub\n      dup2\n      add\n      swap1\n      tag_40\n      swap2\n      swap1\n      tag_24\n      jump\t// in\n    tag_40:\n      tag_41\n      jump\t// in\n    tag_39:\n      stop\n        /* \"contracts/Staking.sol\":770:834  mapping(IERC721 => mapping(uint256 => LockInfo)) public lockInfo */\n    tag_10:\n      tag_42\n      0x04\n      dup1\n      calldatasize\n      sub\n      dup2\n      add\n      swap1\n      tag_43\n      swap2\n      swap1\n      tag_44\n      jump\t// in\n    tag_43:\n      tag_45\n      jump\t// in\n    tag_42:\n      mload(0x40)\n      tag_46\n      swap6\n      swap5\n      swap4\n      swap3\n      swap2\n      swap1\n      tag_47\n      jump\t// in\n    tag_46:\n      mload(0x40)\n      dup1\n      swap2\n      sub\n      swap1\n      return\n        /* \"contracts/Staking.sol\":3486:3660  function claimedRewards(uint256 _tokenId, IERC721 nftAddress) external view returns (uint256) {... */\n    tag_11:\n      tag_48\n      0x04\n      dup1\n      calldatasize\n      sub\n      dup2\n      add\n      swap1\n      tag_49\n      swap2\n      swap1\n      tag_50\n      jump\t// in\n    tag_49:\n      tag_51\n      jump\t// in\n    tag_48:\n      mload(0x40)\n      tag_52\n      swap2\n      swap1\n      tag_32\n      jump\t// in\n    tag_52:\n      mload(0x40)\n      dup1\n      swap2\n      sub\n      swap1\n      return\n        /* \"contracts/Staking.sol\":1099:1118  uint256 public WAVE */\n    tag_12:\n      tag_53\n      tag_54\n      jump\t// in\n    tag_53:\n      mload(0x40)\n      tag_55\n      swap2\n      swap1\n      tag_32\n      jump\t// in\n    tag_55:\n      mload(0x40)\n      dup1\n      swap2\n      sub\n      swap1\n      return\n        /* \"contracts/Staking.sol\":1016:1063  mapping(IERC721 => stakeNftInfo) public nftInfo */\n    tag_13:\n      tag_56\n      0x04\n      dup1\n      calldatasize\n      sub\n      dup2\n      add\n      swap1\n      tag_57\n      swap2\n      swap1\n      tag_58\n      jump\t// in\n    tag_57:\n      tag_59\n      jump\t// in\n    tag_56:\n      mload(0x40)\n      tag_60\n      swap4\n      swap3\n      swap2\n      swap1\n      tag_61\n      jump\t// in\n    tag_60:\n      mload(0x40)\n      dup1\n      swap2\n      sub\n      swap1\n      return\n        /* \"contracts/Staking.sol\":2208:2985  function addStakingNfts(... */\n    tag_14:\n      tag_62\n      0x04\n      dup1\n      calldatasize\n      sub\n      dup2\n      add\n      swap1\n      tag_63\n      swap2\n      swap1\n      tag_64\n      jump\t// in\n    tag_63:\n      tag_65\n      jump\t// in\n    tag_62:\n      stop\n        /* \"@openzeppelin/contracts/access/Ownable.sol\":2081:2279  function transferOwnership(address newOwner) public virtual onlyOwner {... */\n    tag_15:\n      tag_66\n      0x04\n      dup1\n      calldatasize\n      sub\n      dup2\n      add\n      swap1\n      tag_67\n      swap2\n      swap1\n      tag_68\n      jump\t// in\n    tag_67:\n      tag_69\n      jump\t// in\n    tag_66:\n      stop\n        /* \"contracts/Staking.sol\":3109:3318  function setLockPe(uint256 _lockPeriod) external onlyOwner {... */\n    tag_21:\n        /* \"@openzeppelin/contracts/access/Ownable.sol\":1094:1107  _checkOwner() */\n      tag_71\n        /* \"@openzeppelin/contracts/access/Ownable.sol\":1094:1105  _checkOwner */\n      tag_72\n        /* \"@openzeppelin/contracts/access/Ownable.sol\":1094:1107  _checkOwner() */\n      jump\t// in\n    tag_71:\n        /* \"contracts/Staking.sol\":3201:3202  0 */\n      0x00\n        /* \"contracts/Staking.sol\":3187:3198  _lockPeriod */\n      dup2\n        /* \"contracts/Staking.sol\":3187:3202  _lockPeriod > 0 */\n      gt\n        /* \"contracts/Staking.sol\":3179:3227  require(_lockPeriod > 0, \"Invalid lock period.\") */\n      tag_74\n      jumpi\n      mload(0x40)\n      0x08c379a000000000000000000000000000000000000000000000000000000000\n      dup2\n      mstore\n      0x04\n      add\n      tag_75\n      swap1\n      tag_76\n      jump\t// in\n    tag_75:\n      mload(0x40)\n      dup1\n      swap2\n      sub\n      swap1\n      revert\n    tag_74:\n        /* \"contracts/Staking.sol\":3251:3262  _lockPeriod */\n      dup1\n        /* \"contracts/Staking.sol\":3238:3248  lockPeriod */\n      0x02\n        /* \"contracts/Staking.sol\":3238:3262  lockPeriod = _lockPeriod */\n      dup2\n      swap1\n      sstore\n      pop\n        /* \"contracts/Staking.sol\":3280:3310  LockPeriodUpdated(_lockPeriod) */\n      0x8249ec545e68f6f1e1230133ca48c704d831a7f8e635ded80f3dd9e99b09bb2f\n        /* \"contracts/Staking.sol\":3298:3309  _lockPeriod */\n      dup2\n        /* \"contracts/Staking.sol\":3280:3310  LockPeriodUpdated(_lockPeriod) */\n      mload(0x40)\n      tag_77\n      swap2\n      swap1\n      tag_32\n      jump\t// in\n    tag_77:\n      mload(0x40)\n      dup1\n      swap2\n      sub\n      swap1\n      log1\n        /* \"contracts/Staking.sol\":3109:3318  function setLockPe(uint256 _lockPeriod) external onlyOwner {... */\n      pop\n      jump\t// out\n        /* \"contracts/Staking.sol\":6006:7169  function claimRewards(uint256[] calldata _tokenIds,IERC721 nftAddress) external notContract {... */\n    tag_25:\n        /* \"contracts/Staking.sol\":1858:1890  address(msg.sender).isContract() */\n      tag_79\n        /* \"contracts/Staking.sol\":1866:1876  msg.sender */\n      caller\n        /* \"contracts/Staking.sol\":1858:1888  address(msg.sender).isContract */\n      0xffffffffffffffffffffffffffffffffffffffff\n      and\n      tag_80\n        /* \"contracts/Staking.sol\":1858:1890  address(msg.sender).isContract() */\n      jump\t// in\n    tag_79:\n        /* \"contracts/Staking.sol\":1857:1890  !address(msg.sender).isContract() */\n      iszero\n        /* \"contracts/Staking.sol\":1849:1915  require(!address(msg.sender).isContract(), \"Contract not allowed\") */\n      tag_81\n      jumpi\n      mload(0x40)\n      0x08c379a000000000000000000000000000000000000000000000000000000000\n      dup2\n      mstore\n      0x04\n      add\n      tag_82\n      swap1\n      tag_83\n      jump\t// in\n    tag_82:\n      mload(0x40)\n      dup1\n      swap2\n      sub\n      swap1\n      revert\n    tag_81:\n        /* \"contracts/Staking.sol\":1948:1957  tx.origin */\n      origin\n        /* \"contracts/Staking.sol\":1934:1957  msg.sender == tx.origin */\n      0xffffffffffffffffffffffffffffffffffffffff\n      and\n        /* \"contracts/Staking.sol\":1934:1944  msg.sender */\n      caller\n        /* \"contracts/Staking.sol\":1934:1957  msg.sender == tx.origin */\n      0xffffffffffffffffffffffffffffffffffffffff\n      and\n      eq\n        /* \"contracts/Staking.sol\":1926:1988  require(msg.sender == tx.origin, \"Proxy contract not allowed\") */\n      tag_84\n      jumpi\n      mload(0x40)\n      0x08c379a000000000000000000000000000000000000000000000000000000000\n      dup2\n      mstore\n      0x04\n      add\n      tag_85\n      swap1\n      tag_86\n      jump\t// in\n    tag_85:\n      mload(0x40)\n      dup1\n      swap2\n      sub\n      swap1\n      revert\n    tag_84:\n        /* \"contracts/Staking.sol\":6167:6209  0x0000000000000000000000000000000000000000 */\n      0x00\n        /* \"contracts/Staking.sol\":6117:6210  nftInfo[nftAddress].rewardsToken != IRewardsToken(0x0000000000000000000000000000000000000000) */\n      0xffffffffffffffffffffffffffffffffffffffff\n      and\n        /* \"contracts/Staking.sol\":6117:6124  nftInfo */\n      0x04\n        /* \"contracts/Staking.sol\":6117:6136  nftInfo[nftAddress] */\n      0x00\n        /* \"contracts/Staking.sol\":6125:6135  nftAddress */\n      dup4\n        /* \"contracts/Staking.sol\":6117:6136  nftInfo[nftAddress] */\n      0xffffffffffffffffffffffffffffffffffffffff\n      and\n      0xffffffffffffffffffffffffffffffffffffffff\n      and\n      dup2\n      mstore\n      0x20\n      add\n      swap1\n      dup2\n      mstore\n      0x20\n      add\n      0x00\n      keccak256\n        /* \"contracts/Staking.sol\":6117:6149  nftInfo[nftAddress].rewardsToken */\n      0x00\n      add\n      0x00\n      swap1\n      sload\n      swap1\n      0x0100\n      exp\n      swap1\n      div\n      0xffffffffffffffffffffffffffffffffffffffff\n      and\n        /* \"contracts/Staking.sol\":6117:6210  nftInfo[nftAddress].rewardsToken != IRewardsToken(0x0000000000000000000000000000000000000000) */\n      0xffffffffffffffffffffffffffffffffffffffff\n      and\n      sub\n        /* \"contracts/Staking.sol\":6109:6261  require(nftInfo[nftAddress].rewardsToken != IRewardsToken(0x0000000000000000000000000000000000000000), \"Staking: Register collection by addStakingNfts\") */\n      tag_88\n      jumpi\n      mload(0x40)\n      0x08c379a000000000000000000000000000000000000000000000000000000000\n      dup2\n      mstore\n      0x04\n      add\n      tag_89\n      swap1\n      tag_90\n      jump\t// in\n    tag_89:\n      mload(0x40)\n      dup1\n      swap2\n      sub\n      swap1\n      revert\n    tag_88:\n        /* \"contracts/Staking.sol\":6299:6300  0 */\n      0x00\n        /* \"contracts/Staking.sol\":6280:6289  _tokenIds */\n      dup4\n      dup4\n        /* \"contracts/Staking.sol\":6280:6296  _tokenIds.length */\n      swap1\n      pop\n        /* \"contracts/Staking.sol\":6280:6300  _tokenIds.length > 0 */\n      gt\n        /* \"contracts/Staking.sol\":6272:6314  require(_tokenIds.length > 0, \"No tokens\") */\n      tag_91\n      jumpi\n      mload(0x40)\n      0x08c379a000000000000000000000000000000000000000000000000000000000\n      dup2\n      mstore\n      0x04\n      add\n      tag_92\n      swap1\n      tag_93\n      jump\t// in\n    tag_92:\n      mload(0x40)\n      dup1\n      swap2\n      sub\n      swap1\n      revert\n    tag_91:\n        /* \"contracts/Staking.sol\":6327:6347  uint256 totalRewards */\n      0x00\n        /* \"contracts/Staking.sol\":6363:6372  uint256 i */\n      dup1\n        /* \"contracts/Staking.sol\":6375:6376  0 */\n      0x00\n        /* \"contracts/Staking.sol\":6363:6376  uint256 i = 0 */\n      swap1\n      pop\n        /* \"contracts/Staking.sol\":6358:7093  for (uint256 i = 0; i < _tokenIds.length; i++) {... */\n    tag_94:\n        /* \"contracts/Staking.sol\":6382:6391  _tokenIds */\n      dup5\n      dup5\n        /* \"contracts/Staking.sol\":6382:6398  _tokenIds.length */\n      swap1\n      pop\n        /* \"contracts/Staking.sol\":6378:6379  i */\n      dup2\n        /* \"contracts/Staking.sol\":6378:6398  i < _tokenIds.length */\n      lt\n        /* \"contracts/Staking.sol\":6358:7093  for (uint256 i = 0; i < _tokenIds.length; i++) {... */\n      iszero\n      tag_95\n      jumpi\n        /* \"contracts/Staking.sol\":6420:6440  LockInfo memory info */\n      0x00\n        /* \"contracts/Staking.sol\":6443:6451  lockInfo */\n      0x03\n        /* \"contracts/Staking.sol\":6443:6472  lockInfo[IERC721(nftAddress)] */\n      0x00\n        /* \"contracts/Staking.sol\":6460:6470  nftAddress */\n      dup6\n        /* \"contracts/Staking.sol\":6443:6472  lockInfo[IERC721(nftAddress)] */\n      0xffffffffffffffffffffffffffffffffffffffff\n      and\n      0xffffffffffffffffffffffffffffffffffffffff\n      and\n      dup2\n      mstore\n      0x20\n      add\n      swap1\n      dup2\n      mstore\n      0x20\n      add\n      0x00\n      keccak256\n        /* \"contracts/Staking.sol\":6443:6486  lockInfo[IERC721(nftAddress)][_tokenIds[i]] */\n      0x00\n        /* \"contracts/Staking.sol\":6473:6482  _tokenIds */\n      dup8\n      dup8\n        /* \"contracts/Staking.sol\":6483:6484  i */\n      dup6\n        /* \"contracts/Staking.sol\":6473:6485  _tokenIds[i] */\n      dup2\n      dup2\n      lt\n      tag_97\n      jumpi\n      tag_98\n      tag_99\n      jump\t// in\n    tag_98:\n    tag_97:\n      swap1\n      pop\n      0x20\n      mul\n      add\n      calldataload\n        /* \"contracts/Staking.sol\":6443:6486  lockInfo[IERC721(nftAddress)][_tokenIds[i]] */\n      dup2\n      mstore\n      0x20\n      add\n      swap1\n      dup2\n      mstore\n      0x20\n      add\n      0x00\n      keccak256\n        /* \"contracts/Staking.sol\":6420:6486  LockInfo memory info = lockInfo[IERC721(nftAddress)][_tokenIds[i]] */\n      mload(0x40)\n      dup1\n      0xa0\n      add\n      0x40\n      mstore\n      swap1\n      dup2\n      0x00\n      dup3\n      add\n      0x00\n      swap1\n      sload\n      swap1\n      0x0100\n      exp\n      swap1\n      div\n      0xffffffffffffffffffffffffffffffffffffffff\n      and\n      0xffffffffffffffffffffffffffffffffffffffff\n      and\n      0xffffffffffffffffffffffffffffffffffffffff\n      and\n      dup2\n      mstore\n      0x20\n      add\n      0x01\n      dup3\n      add\n      sload\n      dup2\n      mstore\n      0x20\n      add\n      0x02\n      dup3\n      add\n      sload\n      dup2\n      mstore\n      0x20\n      add\n      0x03\n      dup3\n      add\n      0x00\n      swap1\n      sload\n      swap1\n      0x0100\n      exp\n      swap1\n      div\n      0xff\n      and\n      iszero\n      iszero\n      iszero\n      iszero\n      dup2\n      mstore\n      0x20\n      add\n      0x03\n      dup3\n      add\n      0x01\n      swap1\n      sload\n      swap1\n      0x0100\n      exp\n      swap1\n      div\n      0xffffffffffffffffffffffffffffffffffffffff\n      and\n      0xffffffffffffffffffffffffffffffffffffffff\n      and\n      0xffffffffffffffffffffffffffffffffffffffff\n      and\n      dup2\n      mstore\n      pop\n      pop\n      swap1\n      pop\n        /* \"contracts/Staking.sol\":6523:6533  msg.sender */\n      caller\n        /* \"contracts/Staking.sol\":6509:6533  info.owner == msg.sender */\n      0xffffffffffffffffffffffffffffffffffffffff\n      and\n        /* \"contracts/Staking.sol\":6509:6513  info */\n      dup2\n        /* \"contracts/Staking.sol\":6509:6519  info.owner */\n      0x00\n      add\n      mload\n        /* \"contracts/Staking.sol\":6509:6533  info.owner == msg.sender */\n      0xffffffffffffffffffffffffffffffffffffffff\n      and\n      eq\n        /* \"contracts/Staking.sol\":6501:6555  require(info.owner == msg.sender, \"Not a token owner\") */\n      tag_100\n      jumpi\n      mload(0x40)\n      0x08c379a000000000000000000000000000000000000000000000000000000000\n      dup2\n      mstore\n      0x04\n      add\n      tag_101\n      swap1\n      tag_102\n      jump\t// in\n    tag_101:\n      mload(0x40)\n      dup1\n      swap2\n      sub\n      swap1\n      revert\n    tag_100:\n        /* \"contracts/Staking.sol\":6609:6624  block.timestamp */\n      timestamp\n        /* \"contracts/Staking.sol\":6596:6606  lockPeriod */\n      sload(0x02)\n        /* \"contracts/Staking.sol\":6578:6582  info */\n      dup3\n        /* \"contracts/Staking.sol\":6578:6593  info.lockedTime */\n      0x20\n      add\n      mload\n        /* \"contracts/Staking.sol\":6578:6606  info.lockedTime + lockPeriod */\n      tag_103\n      swap2\n      swap1\n      tag_104\n      jump\t// in\n    tag_103:\n        /* \"contracts/Staking.sol\":6578:6624  info.lockedTime + lockPeriod < block.timestamp */\n      lt\n        /* \"contracts/Staking.sol\":6570:6650  require(info.lockedTime + lockPeriod < block.timestamp, \"Not able to claim yet\") */\n      tag_105\n      jumpi\n      mload(0x40)\n      0x08c379a000000000000000000000000000000000000000000000000000000000\n      dup2\n      mstore\n      0x04\n      add\n      tag_106\n      swap1\n      tag_107\n      jump\t// in\n    tag_106:\n      mload(0x40)\n      dup1\n      swap2\n      sub\n      swap1\n      revert\n    tag_105:\n        /* \"contracts/Staking.sol\":6674:6678  info */\n      dup1\n        /* \"contracts/Staking.sol\":6674:6689  info.isUnlocked */\n      0x60\n      add\n      mload\n        /* \"contracts/Staking.sol\":6673:6689  !info.isUnlocked */\n      iszero\n        /* \"contracts/Staking.sol\":6665:6710  require(!info.isUnlocked, \"Already unlocked\") */\n      tag_108\n      jumpi\n      mload(0x40)\n      0x08c379a000000000000000000000000000000000000000000000000000000000\n      dup2\n      mstore\n      0x04\n      add\n      tag_109\n      swap1\n      tag_110\n      jump\t// in\n    tag_109:\n      mload(0x40)\n      dup1\n      swap2\n      sub\n      swap1\n      revert\n    tag_108:\n        /* \"contracts/Staking.sol\":6727:6746  uint256 totalAmount */\n      0x00\n        /* \"contracts/Staking.sol\":6749:6788  _rewardAmount(_tokenIds[i], nftAddress) */\n      tag_111\n        /* \"contracts/Staking.sol\":6763:6772  _tokenIds */\n      dup8\n      dup8\n        /* \"contracts/Staking.sol\":6773:6774  i */\n      dup6\n        /* \"contracts/Staking.sol\":6763:6775  _tokenIds[i] */\n      dup2\n      dup2\n      lt\n      tag_112\n      jumpi\n      tag_113\n      tag_99\n      jump\t// in\n    tag_113:\n    tag_112:\n      swap1\n      pop\n      0x20\n      mul\n      add\n      calldataload\n        /* \"contracts/Staking.sol\":6777:6787  nftAddress */\n      dup7\n        /* \"contracts/Staking.sol\":6749:6762  _rewardAmount */\n      tag_114\n        /* \"contracts/Staking.sol\":6749:6788  _rewardAmount(_tokenIds[i], nftAddress) */\n      jump\t// in\n    tag_111:\n        /* \"contracts/Staking.sol\":6727:6788  uint256 totalAmount = _rewardAmount(_tokenIds[i], nftAddress) */\n      swap1\n      pop\n        /* \"contracts/Staking.sol\":6803:6827  uint256 unclaminedAmount */\n      0x00\n        /* \"contracts/Staking.sol\":6844:6848  info */\n      dup3\n        /* \"contracts/Staking.sol\":6844:6863  info.claimedRewards */\n      0x40\n      add\n      mload\n        /* \"contracts/Staking.sol\":6830:6841  totalAmount */\n      dup3\n        /* \"contracts/Staking.sol\":6830:6863  totalAmount - info.claimedRewards */\n      tag_115\n      swap2\n      swap1\n      tag_116\n      jump\t// in\n    tag_115:\n        /* \"contracts/Staking.sol\":6803:6863  uint256 unclaminedAmount = totalAmount - info.claimedRewards */\n      swap1\n      pop\n        /* \"contracts/Staking.sol\":6878:6885  nftInfo */\n      0x04\n        /* \"contracts/Staking.sol\":6878:6897  nftInfo[nftAddress] */\n      0x00\n        /* \"contracts/Staking.sol\":6886:6896  nftAddress */\n      dup8\n        /* \"contracts/Staking.sol\":6878:6897  nftInfo[nftAddress] */\n      0xffffffffffffffffffffffffffffffffffffffff\n      and\n      0xffffffffffffffffffffffffffffffffffffffff\n      and\n      dup2\n      mstore\n      0x20\n      add\n      swap1\n      dup2\n      mstore\n      0x20\n      add\n      0x00\n      keccak256\n        /* \"contracts/Staking.sol\":6878:6910  nftInfo[nftAddress].rewardsToken */\n      0x00\n      add\n      0x00\n      swap1\n      sload\n      swap1\n      0x0100\n      exp\n      swap1\n      div\n      0xffffffffffffffffffffffffffffffffffffffff\n      and\n        /* \"contracts/Staking.sol\":6878:6915  nftInfo[nftAddress].rewardsToken.mint */\n      0xffffffffffffffffffffffffffffffffffffffff\n      and\n      0x40c10f19\n        /* \"contracts/Staking.sol\":6916:6926  msg.sender */\n      caller\n        /* \"contracts/Staking.sol\":6928:6944  unclaminedAmount */\n      dup4\n        /* \"contracts/Staking.sol\":6878:6945  nftInfo[nftAddress].rewardsToken.mint(msg.sender, unclaminedAmount) */\n      mload(0x40)\n      dup4\n      0xffffffff\n      and\n      0xe0\n      shl\n      dup2\n      mstore\n      0x04\n      add\n      tag_117\n      swap3\n      swap2\n      swap1\n      tag_118\n      jump\t// in\n    tag_117:\n      0x00\n      mload(0x40)\n      dup1\n      dup4\n      sub\n      dup2\n      0x00\n      dup8\n      dup1\n      extcodesize\n      iszero\n      dup1\n      iszero\n      tag_119\n      jumpi\n      0x00\n      dup1\n      revert\n    tag_119:\n      pop\n      gas\n      call\n      iszero\n      dup1\n      iszero\n      tag_121\n      jumpi\n      returndatasize\n      0x00\n      dup1\n      returndatacopy\n      revert(0x00, returndatasize)\n    tag_121:\n      pop\n      pop\n      pop\n      pop\n        /* \"contracts/Staking.sol\":6976:6992  unclaminedAmount */\n      dup1\n        /* \"contracts/Staking.sol\":6960:6992  totalRewards += unclaminedAmount */\n      dup6\n      tag_122\n      swap2\n      swap1\n      tag_104\n      jump\t// in\n    tag_122:\n      swap5\n      pop\n        /* \"contracts/Staking.sol\":7070:7081  totalAmount */\n      dup2\n        /* \"contracts/Staking.sol\":7009:7017  lockInfo */\n      0x03\n        /* \"contracts/Staking.sol\":7009:7038  lockInfo[IERC721(nftAddress)] */\n      0x00\n        /* \"contracts/Staking.sol\":7026:7036  nftAddress */\n      dup9\n        /* \"contracts/Staking.sol\":7009:7038  lockInfo[IERC721(nftAddress)] */\n      0xffffffffffffffffffffffffffffffffffffffff\n      and\n      0xffffffffffffffffffffffffffffffffffffffff\n      and\n      dup2\n      mstore\n      0x20\n      add\n      swap1\n      dup2\n      mstore\n      0x20\n      add\n      0x00\n      keccak256\n        /* \"contracts/Staking.sol\":7009:7052  lockInfo[IERC721(nftAddress)][_tokenIds[i]] */\n      0x00\n        /* \"contracts/Staking.sol\":7039:7048  _tokenIds */\n      dup11\n      dup11\n        /* \"contracts/Staking.sol\":7049:7050  i */\n      dup9\n        /* \"contracts/Staking.sol\":7039:7051  _tokenIds[i] */\n      dup2\n      dup2\n      lt\n      tag_123\n      jumpi\n      tag_124\n      tag_99\n      jump\t// in\n    tag_124:\n    tag_123:\n      swap1\n      pop\n      0x20\n      mul\n      add\n      calldataload\n        /* \"contracts/Staking.sol\":7009:7052  lockInfo[IERC721(nftAddress)][_tokenIds[i]] */\n      dup2\n      mstore\n      0x20\n      add\n      swap1\n      dup2\n      mstore\n      0x20\n      add\n      0x00\n      keccak256\n        /* \"contracts/Staking.sol\":7009:7067  lockInfo[IERC721(nftAddress)][_tokenIds[i]].claimedRewards */\n      0x02\n      add\n        /* \"contracts/Staking.sol\":7009:7081  lockInfo[IERC721(nftAddress)][_tokenIds[i]].claimedRewards = totalAmount */\n      dup2\n      swap1\n      sstore\n      pop\n        /* \"contracts/Staking.sol\":6405:7093  {... */\n      pop\n      pop\n      pop\n        /* \"contracts/Staking.sol\":6400:6403  i++ */\n      dup1\n      dup1\n      tag_125\n      swap1\n      tag_126\n      jump\t// in\n    tag_125:\n      swap2\n      pop\n      pop\n        /* \"contracts/Staking.sol\":6358:7093  for (uint256 i = 0; i < _tokenIds.length; i++) {... */\n      jump(tag_94)\n    tag_95:\n      pop\n        /* \"contracts/Staking.sol\":7125:7135  msg.sender */\n      caller\n        /* \"contracts/Staking.sol\":7110:7161  RewardsClaimed(msg.sender, _tokenIds, totalRewards) */\n      0xffffffffffffffffffffffffffffffffffffffff\n      and\n      0x37826be3c26dbad83731f4b985f22fa9ef86b6d1974cd77208332b7f1f283c0c\n        /* \"contracts/Staking.sol\":7137:7146  _tokenIds */\n      dup6\n      dup6\n        /* \"contracts/Staking.sol\":7148:7160  totalRewards */\n      dup5\n        /* \"contracts/Staking.sol\":7110:7161  RewardsClaimed(msg.sender, _tokenIds, totalRewards) */\n      mload(0x40)\n      tag_127\n      swap4\n      swap3\n      swap2\n      swap1\n      tag_128\n      jump\t// in\n    tag_127:\n      mload(0x40)\n      dup1\n      swap2\n      sub\n      swap1\n      log2\n        /* \"contracts/Staking.sol\":6098:7169  {... */\n      pop\n        /* \"contracts/Staking.sol\":6006:7169  function claimRewards(uint256[] calldata _tokenIds,IERC721 nftAddress) external notContract {... */\n      pop\n      pop\n      pop\n      jump\t// out\n        /* \"contracts/Staking.sol\":3801:4557  function lockNFT(uint256[] calldata  _tokenIds, IERC721 nftAddress ) external notContract nonReentrant {... */\n    tag_28:\n        /* \"contracts/Staking.sol\":1858:1890  address(msg.sender).isContract() */\n      tag_130\n        /* \"contracts/Staking.sol\":1866:1876  msg.sender */\n      caller\n        /* \"contracts/Staking.sol\":1858:1888  address(msg.sender).isContract */\n      0xffffffffffffffffffffffffffffffffffffffff\n      and\n      tag_80\n        /* \"contracts/Staking.sol\":1858:1890  address(msg.sender).isContract() */\n      jump\t// in\n    tag_130:\n        /* \"contracts/Staking.sol\":1857:1890  !address(msg.sender).isContract() */\n      iszero\n        /* \"contracts/Staking.sol\":1849:1915  require(!address(msg.sender).isContract(), \"Contract not allowed\") */\n      tag_131\n      jumpi\n      mload(0x40)\n      0x08c379a000000000000000000000000000000000000000000000000000000000\n      dup2\n      mstore\n      0x04\n      add\n      tag_132\n      swap1\n      tag_83\n      jump\t// in\n    tag_132:\n      mload(0x40)\n      dup1\n      swap2\n      sub\n      swap1\n      revert\n    tag_131:\n        /* \"contracts/Staking.sol\":1948:1957  tx.origin */\n      origin\n        /* \"contracts/Staking.sol\":1934:1957  msg.sender == tx.origin */\n      0xffffffffffffffffffffffffffffffffffffffff\n      and\n        /* \"contracts/Staking.sol\":1934:1944  msg.sender */\n      caller\n        /* \"contracts/Staking.sol\":1934:1957  msg.sender == tx.origin */\n      0xffffffffffffffffffffffffffffffffffffffff\n      and\n      eq\n        /* \"contracts/Staking.sol\":1926:1988  require(msg.sender == tx.origin, \"Proxy contract not allowed\") */\n      tag_133\n      jumpi\n      mload(0x40)\n      0x08c379a000000000000000000000000000000000000000000000000000000000\n      dup2\n      mstore\n      0x04\n      add\n      tag_134\n      swap1\n      tag_86\n      jump\t// in\n    tag_134:\n      mload(0x40)\n      dup1\n      swap2\n      sub\n      swap1\n      revert\n    tag_133:\n        /* \"@openzeppelin/contracts/security/ReentrancyGuard.sol\":1744:1745  2 */\n      0x02\n        /* \"@openzeppelin/contracts/security/ReentrancyGuard.sol\":2325:2332  _status */\n      sload(0x01)\n        /* \"@openzeppelin/contracts/security/ReentrancyGuard.sol\":2325:2344  _status != _ENTERED */\n      sub\n        /* \"@openzeppelin/contracts/security/ReentrancyGuard.sol\":2317:2380  require(_status != _ENTERED, \"ReentrancyGuard: reentrant call\") */\n      tag_136\n      jumpi\n      mload(0x40)\n      0x08c379a000000000000000000000000000000000000000000000000000000000\n      dup2\n      mstore\n      0x04\n      add\n      tag_137\n      swap1\n      tag_138\n      jump\t// in\n    tag_137:\n      mload(0x40)\n      dup1\n      swap2\n      sub\n      swap1\n      revert\n    tag_136:\n        /* \"@openzeppelin/contracts/security/ReentrancyGuard.sol\":1744:1745  2 */\n      0x02\n        /* \"@openzeppelin/contracts/security/ReentrancyGuard.sol\":2455:2462  _status */\n      0x01\n        /* \"@openzeppelin/contracts/security/ReentrancyGuard.sol\":2455:2473  _status = _ENTERED */\n      dup2\n      swap1\n      sstore\n      pop\n        /* \"contracts/Staking.sol\":3975:4017  0x0000000000000000000000000000000000000000 */\n      0x00\n        /* \"contracts/Staking.sol\":3925:4018  nftInfo[nftAddress].rewardsToken != IRewardsToken(0x0000000000000000000000000000000000000000) */\n      0xffffffffffffffffffffffffffffffffffffffff\n      and\n        /* \"contracts/Staking.sol\":3925:3932  nftInfo */\n      0x04\n        /* \"contracts/Staking.sol\":3925:3944  nftInfo[nftAddress] */\n      0x00\n        /* \"contracts/Staking.sol\":3933:3943  nftAddress */\n      dup4\n        /* \"contracts/Staking.sol\":3925:3944  nftInfo[nftAddress] */\n      0xffffffffffffffffffffffffffffffffffffffff\n      and\n      0xffffffffffffffffffffffffffffffffffffffff\n      and\n      dup2\n      mstore\n      0x20\n      add\n      swap1\n      dup2\n      mstore\n      0x20\n      add\n      0x00\n      keccak256\n        /* \"contracts/Staking.sol\":3925:3957  nftInfo[nftAddress].rewardsToken */\n      0x00\n      add\n      0x00\n      swap1\n      sload\n      swap1\n      0x0100\n      exp\n      swap1\n      div\n      0xffffffffffffffffffffffffffffffffffffffff\n      and\n        /* \"contracts/Staking.sol\":3925:4018  nftInfo[nftAddress].rewardsToken != IRewardsToken(0x0000000000000000000000000000000000000000) */\n      0xffffffffffffffffffffffffffffffffffffffff\n      and\n      sub\n        /* \"contracts/Staking.sol\":3917:4069  require(nftInfo[nftAddress].rewardsToken != IRewardsToken(0x0000000000000000000000000000000000000000), \"Staking: Register collection by addStakingNfts\") */\n      tag_140\n      jumpi\n      mload(0x40)\n      0x08c379a000000000000000000000000000000000000000000000000000000000\n      dup2\n      mstore\n      0x04\n      add\n      tag_141\n      swap1\n      tag_90\n      jump\t// in\n    tag_141:\n      mload(0x40)\n      dup1\n      swap2\n      sub\n      swap1\n      revert\n    tag_140:\n        /* \"contracts/Staking.sol\":4107:4108  0 */\n      0x00\n        /* \"contracts/Staking.sol\":4088:4097  _tokenIds */\n      dup4\n      dup4\n        /* \"contracts/Staking.sol\":4088:4104  _tokenIds.length */\n      swap1\n      pop\n        /* \"contracts/Staking.sol\":4088:4108  _tokenIds.length > 0 */\n      gt\n        /* \"contracts/Staking.sol\":4080:4122  require(_tokenIds.length > 0, \"No tokens\") */\n      tag_142\n      jumpi\n      mload(0x40)\n      0x08c379a000000000000000000000000000000000000000000000000000000000\n      dup2\n      mstore\n      0x04\n      add\n      tag_143\n      swap1\n      tag_93\n      jump\t// in\n    tag_143:\n      mload(0x40)\n      dup1\n      swap2\n      sub\n      swap1\n      revert\n    tag_142:\n        /* \"contracts/Staking.sol\":4140:4149  uint256 i */\n      0x00\n        /* \"contracts/Staking.sol\":4135:4500  for (uint256 i = 0; i < _tokenIds.length; i++) {... */\n    tag_144:\n        /* \"contracts/Staking.sol\":4159:4168  _tokenIds */\n      dup4\n      dup4\n        /* \"contracts/Staking.sol\":4159:4175  _tokenIds.length */\n      swap1\n      pop\n        /* \"contracts/Staking.sol\":4155:4156  i */\n      dup2\n        /* \"contracts/Staking.sol\":4155:4175  i < _tokenIds.length */\n      lt\n        /* \"contracts/Staking.sol\":4135:4500  for (uint256 i = 0; i < _tokenIds.length; i++) {... */\n      iszero\n      tag_145\n      jumpi\n        /* \"contracts/Staking.sol\":4241:4251  msg.sender */\n      caller\n        /* \"contracts/Staking.sol\":4205:4251  nftAddress.ownerOf(_tokenIds[i]) == msg.sender */\n      0xffffffffffffffffffffffffffffffffffffffff\n      and\n        /* \"contracts/Staking.sol\":4205:4215  nftAddress */\n      dup3\n        /* \"contracts/Staking.sol\":4205:4223  nftAddress.ownerOf */\n      0xffffffffffffffffffffffffffffffffffffffff\n      and\n      0x6352211e\n        /* \"contracts/Staking.sol\":4224:4233  _tokenIds */\n      dup7\n      dup7\n        /* \"contracts/Staking.sol\":4234:4235  i */\n      dup6\n        /* \"contracts/Staking.sol\":4224:4236  _tokenIds[i] */\n      dup2\n      dup2\n      lt\n      tag_147\n      jumpi\n      tag_148\n      tag_99\n      jump\t// in\n    tag_148:\n    tag_147:\n      swap1\n      pop\n      0x20\n      mul\n      add\n      calldataload\n        /* \"contracts/Staking.sol\":4205:4237  nftAddress.ownerOf(_tokenIds[i]) */\n      mload(0x40)\n      dup3\n      0xffffffff\n      and\n      0xe0\n      shl\n      dup2\n      mstore\n      0x04\n      add\n      tag_149\n      swap2\n      swap1\n      tag_32\n      jump\t// in\n    tag_149:\n      0x20\n      mload(0x40)\n      dup1\n      dup4\n      sub\n      dup2\n      dup7\n      gas\n      staticcall\n      iszero\n      dup1\n      iszero\n      tag_151\n      jumpi\n      returndatasize\n      0x00\n      dup1\n      returndatacopy\n      revert(0x00, returndatasize)\n    tag_151:\n      pop\n      pop\n      pop\n      pop\n      mload(0x40)\n      returndatasize\n      not(0x1f)\n      0x1f\n      dup3\n      add\n      and\n      dup3\n      add\n      dup1\n      0x40\n      mstore\n      pop\n      dup2\n      add\n      swap1\n      tag_152\n      swap2\n      swap1\n      tag_153\n      jump\t// in\n    tag_152:\n        /* \"contracts/Staking.sol\":4205:4251  nftAddress.ownerOf(_tokenIds[i]) == msg.sender */\n      0xffffffffffffffffffffffffffffffffffffffff\n      and\n      eq\n        /* \"contracts/Staking.sol\":4197:4281  require(nftAddress.ownerOf(_tokenIds[i]) == msg.sender, \"You don't hold this token\") */\n      tag_154\n      jumpi\n      mload(0x40)\n      0x08c379a000000000000000000000000000000000000000000000000000000000\n      dup2\n      mstore\n      0x04\n      add\n      tag_155\n      swap1\n      tag_156\n      jump\t// in\n    tag_155:\n      mload(0x40)\n      dup1\n      swap2\n      sub\n      swap1\n      revert\n    tag_154:\n        /* \"contracts/Staking.sol\":4296:4306  nftAddress */\n      dup2\n        /* \"contracts/Staking.sol\":4296:4319  nftAddress.transferFrom */\n      0xffffffffffffffffffffffffffffffffffffffff\n      and\n      0x23b872dd\n        /* \"contracts/Staking.sol\":4320:4330  msg.sender */\n      caller\n        /* \"contracts/Staking.sol\":4340:4344  this */\n      address\n        /* \"contracts/Staking.sol\":4347:4356  _tokenIds */\n      dup8\n      dup8\n        /* \"contracts/Staking.sol\":4357:4358  i */\n      dup7\n        /* \"contracts/Staking.sol\":4347:4359  _tokenIds[i] */\n      dup2\n      dup2\n      lt\n      tag_157\n      jumpi\n      tag_158\n      tag_99\n      jump\t// in\n    tag_158:\n    tag_157:\n      swap1\n      pop\n      0x20\n      mul\n      add\n      calldataload\n        /* \"contracts/Staking.sol\":4296:4360  nftAddress.transferFrom(msg.sender, address(this), _tokenIds[i]) */\n      mload(0x40)\n      dup5\n      0xffffffff\n      and\n      0xe0\n      shl\n      dup2\n      mstore\n      0x04\n      add\n      tag_159\n      swap4\n      swap3\n      swap2\n      swap1\n      tag_160\n      jump\t// in\n    tag_159:\n      0x00\n      mload(0x40)\n      dup1\n      dup4\n      sub\n      dup2\n      0x00\n      dup8\n      dup1\n      extcodesize\n      iszero\n      dup1\n      iszero\n      tag_161\n      jumpi\n      0x00\n      dup1\n      revert\n    tag_161:\n      pop\n      gas\n      call\n      iszero\n      dup1\n      iszero\n      tag_163\n      jumpi\n      returndatasize\n      0x00\n      dup1\n      returndatacopy\n      revert(0x00, returndatasize)\n    tag_163:\n      pop\n      pop\n      pop\n      pop\n        /* \"contracts/Staking.sol\":4421:4488  LockInfo(msg.sender, block.timestamp, 0, false,IERC721(nftAddress)) */\n      mload(0x40)\n      dup1\n      0xa0\n      add\n      0x40\n      mstore\n      dup1\n        /* \"contracts/Staking.sol\":4430:4440  msg.sender */\n      caller\n        /* \"contracts/Staking.sol\":4421:4488  LockInfo(msg.sender, block.timestamp, 0, false,IERC721(nftAddress)) */\n      0xffffffffffffffffffffffffffffffffffffffff\n      and\n      dup2\n      mstore\n      0x20\n      add\n        /* \"contracts/Staking.sol\":4442:4457  block.timestamp */\n      timestamp\n        /* \"contracts/Staking.sol\":4421:4488  LockInfo(msg.sender, block.timestamp, 0, false,IERC721(nftAddress)) */\n      dup2\n      mstore\n      0x20\n      add\n        /* \"contracts/Staking.sol\":4459:4460  0 */\n      0x00\n        /* \"contracts/Staking.sol\":4421:4488  LockInfo(msg.sender, block.timestamp, 0, false,IERC721(nftAddress)) */\n      dup2\n      mstore\n      0x20\n      add\n        /* \"contracts/Staking.sol\":4462:4467  false */\n      0x00\n        /* \"contracts/Staking.sol\":4421:4488  LockInfo(msg.sender, block.timestamp, 0, false,IERC721(nftAddress)) */\n      iszero\n      iszero\n      dup2\n      mstore\n      0x20\n      add\n        /* \"contracts/Staking.sol\":4476:4486  nftAddress */\n      dup4\n        /* \"contracts/Staking.sol\":4421:4488  LockInfo(msg.sender, block.timestamp, 0, false,IERC721(nftAddress)) */\n      0xffffffffffffffffffffffffffffffffffffffff\n      and\n      dup2\n      mstore\n      pop\n        /* \"contracts/Staking.sol\":4375:4383  lockInfo */\n      0x03\n        /* \"contracts/Staking.sol\":4375:4404  lockInfo[IERC721(nftAddress)] */\n      0x00\n        /* \"contracts/Staking.sol\":4392:4402  nftAddress */\n      dup5\n        /* \"contracts/Staking.sol\":4375:4404  lockInfo[IERC721(nftAddress)] */\n      0xffffffffffffffffffffffffffffffffffffffff\n      and\n      0xffffffffffffffffffffffffffffffffffffffff\n      and\n      dup2\n      mstore\n      0x20\n      add\n      swap1\n      dup2\n      mstore\n      0x20\n      add\n      0x00\n      keccak256\n        /* \"contracts/Staking.sol\":4375:4418  lockInfo[IERC721(nftAddress)][_tokenIds[i]] */\n      0x00\n        /* \"contracts/Staking.sol\":4405:4414  _tokenIds */\n      dup7\n      dup7\n        /* \"contracts/Staking.sol\":4415:4416  i */\n      dup6\n        /* \"contracts/Staking.sol\":4405:4417  _tokenIds[i] */\n      dup2\n      dup2\n      lt\n      tag_164\n      jumpi\n      tag_165\n      tag_99\n      jump\t// in\n    tag_165:\n    tag_164:\n      swap1\n      pop\n      0x20\n      mul\n      add\n      calldataload\n        /* \"contracts/Staking.sol\":4375:4418  lockInfo[IERC721(nftAddress)][_tokenIds[i]] */\n      dup2\n      mstore\n      0x20\n      add\n      swap1\n      dup2\n      mstore\n      0x20\n      add\n      0x00\n      keccak256\n        /* \"contracts/Staking.sol\":4375:4488  lockInfo[IERC721(nftAddress)][_tokenIds[i]] = LockInfo(msg.sender, block.timestamp, 0, false,IERC721(nftAddress)) */\n      0x00\n      dup3\n      add\n      mload\n      dup2\n      0x00\n      add\n      exp(0x0100, 0x00)\n      dup2\n      sload\n      dup2\n      0xffffffffffffffffffffffffffffffffffffffff\n      mul\n      not\n      and\n      swap1\n      dup4\n      0xffffffffffffffffffffffffffffffffffffffff\n      and\n      mul\n      or\n      swap1\n      sstore\n      pop\n      0x20\n      dup3\n      add\n      mload\n      dup2\n      0x01\n      add\n      sstore\n      0x40\n      dup3\n      add\n      mload\n      dup2\n      0x02\n      add\n      sstore\n      0x60\n      dup3\n      add\n      mload\n      dup2\n      0x03\n      add\n      exp(0x0100, 0x00)\n      dup2\n      sload\n      dup2\n      0xff\n      mul\n      not\n      and\n      swap1\n      dup4\n      iszero\n      iszero\n      mul\n      or\n      swap1\n      sstore\n      pop\n      0x80\n      dup3\n      add\n      mload\n      dup2\n      0x03\n      add\n      exp(0x0100, 0x01)\n      dup2\n      sload\n      dup2\n      0xffffffffffffffffffffffffffffffffffffffff\n      mul\n      not\n      and\n      swap1\n      dup4\n      0xffffffffffffffffffffffffffffffffffffffff\n      and\n      mul\n      or\n      swap1\n      sstore\n      pop\n      swap1\n      pop\n      pop\n        /* \"contracts/Staking.sol\":4177:4180  i++ */\n      dup1\n      dup1\n      tag_166\n      swap1\n      tag_126\n      jump\t// in\n    tag_166:\n      swap2\n      pop\n      pop\n        /* \"contracts/Staking.sol\":4135:4500  for (uint256 i = 0; i < _tokenIds.length; i++) {... */\n      jump(tag_144)\n    tag_145:\n      pop\n        /* \"contracts/Staking.sol\":4527:4537  msg.sender */\n      caller\n        /* \"contracts/Staking.sol\":4517:4549  NFTLocked(msg.sender, _tokenIds) */\n      0xffffffffffffffffffffffffffffffffffffffff\n      and\n      0x458be0227bccc9e803dec79bd16767eeaf9925d2ce708eeed7ae1f3621f968f9\n        /* \"contracts/Staking.sol\":4539:4548  _tokenIds */\n      dup5\n      dup5\n        /* \"contracts/Staking.sol\":4517:4549  NFTLocked(msg.sender, _tokenIds) */\n      mload(0x40)\n      tag_167\n      swap3\n      swap2\n      swap1\n      tag_168\n      jump\t// in\n    tag_167:\n      mload(0x40)\n      dup1\n      swap2\n      sub\n      swap1\n      log2\n        /* \"@openzeppelin/contracts/security/ReentrancyGuard.sol\":1701:1702  1 */\n      0x01\n        /* \"@openzeppelin/contracts/security/ReentrancyGuard.sol\":2628:2635  _status */\n      dup1\n        /* \"@openzeppelin/contracts/security/ReentrancyGuard.sol\":2628:2650  _status = _NOT_ENTERED */\n      dup2\n      swap1\n      sstore\n      pop\n        /* \"contracts/Staking.sol\":3801:4557  function lockNFT(uint256[] calldata  _tokenIds, IERC721 nftAddress ) external notContract nonReentrant {... */\n      pop\n      pop\n      pop\n      jump\t// out\n        /* \"contracts/Staking.sol\":502:527  uint256 public lockPeriod */\n    tag_30:\n      sload(0x02)\n      dup2\n      jump\t// out\n        /* \"@openzeppelin/contracts/access/Ownable.sol\":1831:1932  function renounceOwnership() public virtual onlyOwner {... */\n    tag_34:\n        /* \"@openzeppelin/contracts/access/Ownable.sol\":1094:1107  _checkOwner() */\n      tag_170\n        /* \"@openzeppelin/contracts/access/Ownable.sol\":1094:1105  _checkOwner */\n      tag_72\n        /* \"@openzeppelin/contracts/access/Ownable.sol\":1094:1107  _checkOwner() */\n      jump\t// in\n    tag_170:\n        /* \"@openzeppelin/contracts/access/Ownable.sol\":1895:1925  _transferOwnership(address(0)) */\n      tag_172\n        /* \"@openzeppelin/contracts/access/Ownable.sol\":1922:1923  0 */\n      0x00\n        /* \"@openzeppelin/contracts/access/Ownable.sol\":1895:1913  _transferOwnership */\n      tag_173\n        /* \"@openzeppelin/contracts/access/Ownable.sol\":1895:1925  _transferOwnership(address(0)) */\n      jump\t// in\n    tag_172:\n        /* \"@openzeppelin/contracts/access/Ownable.sol\":1831:1932  function renounceOwnership() public virtual onlyOwner {... */\n      jump\t// out\n        /* \"@openzeppelin/contracts/access/Ownable.sol\":1201:1286  function owner() public view virtual returns (address) {... */\n    tag_36:\n        /* \"@openzeppelin/contracts/access/Ownable.sol\":1247:1254  address */\n      0x00\n        /* \"@openzeppelin/contracts/access/Ownable.sol\":1273:1279  _owner */\n      dup1\n      0x00\n      swap1\n      sload\n      swap1\n      0x0100\n      exp\n      swap1\n      div\n      0xffffffffffffffffffffffffffffffffffffffff\n      and\n        /* \"@openzeppelin/contracts/access/Ownable.sol\":1266:1279  return _owner */\n      swap1\n      pop\n        /* \"@openzeppelin/contracts/access/Ownable.sol\":1201:1286  function owner() public view virtual returns (address) {... */\n      swap1\n      jump\t// out\n        /* \"contracts/Staking.sol\":4670:5908  function unlockNFT(uint256[] calldata _tokenIds, IERC721 nftAddress) external notContract nonReentrant {... */\n    tag_41:\n        /* \"contracts/Staking.sol\":1858:1890  address(msg.sender).isContract() */\n      tag_176\n        /* \"contracts/Staking.sol\":1866:1876  msg.sender */\n      caller\n        /* \"contracts/Staking.sol\":1858:1888  address(msg.sender).isContract */\n      0xffffffffffffffffffffffffffffffffffffffff\n      and\n      tag_80\n        /* \"contracts/Staking.sol\":1858:1890  address(msg.sender).isContract() */\n      jump\t// in\n    tag_176:\n        /* \"contracts/Staking.sol\":1857:1890  !address(msg.sender).isContract() */\n      iszero\n        /* \"contracts/Staking.sol\":1849:1915  require(!address(msg.sender).isContract(), \"Contract not allowed\") */\n      tag_177\n      jumpi\n      mload(0x40)\n      0x08c379a000000000000000000000000000000000000000000000000000000000\n      dup2\n      mstore\n      0x04\n      add\n      tag_178\n      swap1\n      tag_83\n      jump\t// in\n    tag_178:\n      mload(0x40)\n      dup1\n      swap2\n      sub\n      swap1\n      revert\n    tag_177:\n        /* \"contracts/Staking.sol\":1948:1957  tx.origin */\n      origin\n        /* \"contracts/Staking.sol\":1934:1957  msg.sender == tx.origin */\n      0xffffffffffffffffffffffffffffffffffffffff\n      and\n        /* \"contracts/Staking.sol\":1934:1944  msg.sender */\n      caller\n        /* \"contracts/Staking.sol\":1934:1957  msg.sender == tx.origin */\n      0xffffffffffffffffffffffffffffffffffffffff\n      and\n      eq\n        /* \"contracts/Staking.sol\":1926:1988  require(msg.sender == tx.origin, \"Proxy contract not allowed\") */\n      tag_179\n      jumpi\n      mload(0x40)\n      0x08c379a000000000000000000000000000000000000000000000000000000000\n      dup2\n      mstore\n      0x04\n      add\n      tag_180\n      swap1\n      tag_86\n      jump\t// in\n    tag_180:\n      mload(0x40)\n      dup1\n      swap2\n      sub\n      swap1\n      revert\n    tag_179:\n        /* \"@openzeppelin/contracts/security/ReentrancyGuard.sol\":1744:1745  2 */\n      0x02\n        /* \"@openzeppelin/contracts/security/ReentrancyGuard.sol\":2325:2332  _status */\n      sload(0x01)\n        /* \"@openzeppelin/contracts/security/ReentrancyGuard.sol\":2325:2344  _status != _ENTERED */\n      sub\n        /* \"@openzeppelin/contracts/security/ReentrancyGuard.sol\":2317:2380  require(_status != _ENTERED, \"ReentrancyGuard: reentrant call\") */\n      tag_182\n      jumpi\n      mload(0x40)\n      0x08c379a000000000000000000000000000000000000000000000000000000000\n      dup2\n      mstore\n      0x04\n      add\n      tag_183\n      swap1\n      tag_138\n      jump\t// in\n    tag_183:\n      mload(0x40)\n      dup1\n      swap2\n      sub\n      swap1\n      revert\n    tag_182:\n        /* \"@openzeppelin/contracts/security/ReentrancyGuard.sol\":1744:1745  2 */\n      0x02\n        /* \"@openzeppelin/contracts/security/ReentrancyGuard.sol\":2455:2462  _status */\n      0x01\n        /* \"@openzeppelin/contracts/security/ReentrancyGuard.sol\":2455:2473  _status = _ENTERED */\n      dup2\n      swap1\n      sstore\n      pop\n        /* \"contracts/Staking.sol\":4842:4884  0x0000000000000000000000000000000000000000 */\n      0x00\n        /* \"contracts/Staking.sol\":4792:4885  nftInfo[nftAddress].rewardsToken != IRewardsToken(0x0000000000000000000000000000000000000000) */\n      0xffffffffffffffffffffffffffffffffffffffff\n      and\n        /* \"contracts/Staking.sol\":4792:4799  nftInfo */\n      0x04\n        /* \"contracts/Staking.sol\":4792:4811  nftInfo[nftAddress] */\n      0x00\n        /* \"contracts/Staking.sol\":4800:4810  nftAddress */\n      dup4\n        /* \"contracts/Staking.sol\":4792:4811  nftInfo[nftAddress] */\n      0xffffffffffffffffffffffffffffffffffffffff\n      and\n      0xffffffffffffffffffffffffffffffffffffffff\n      and\n      dup2\n      mstore\n      0x20\n      add\n      swap1\n      dup2\n      mstore\n      0x20\n      add\n      0x00\n      keccak256\n        /* \"contracts/Staking.sol\":4792:4824  nftInfo[nftAddress].rewardsToken */\n      0x00\n      add\n      0x00\n      swap1\n      sload\n      swap1\n      0x0100\n      exp\n      swap1\n      div\n      0xffffffffffffffffffffffffffffffffffffffff\n      and\n        /* \"contracts/Staking.sol\":4792:4885  nftInfo[nftAddress].rewardsToken != IRewardsToken(0x0000000000000000000000000000000000000000) */\n      0xffffffffffffffffffffffffffffffffffffffff\n      and\n      sub\n        /* \"contracts/Staking.sol\":4784:4936  require(nftInfo[nftAddress].rewardsToken != IRewardsToken(0x0000000000000000000000000000000000000000), \"Staking: Register collection by addStakingNfts\") */\n      tag_185\n      jumpi\n      mload(0x40)\n      0x08c379a000000000000000000000000000000000000000000000000000000000\n      dup2\n      mstore\n      0x04\n      add\n      tag_186\n      swap1\n      tag_90\n      jump\t// in\n    tag_186:\n      mload(0x40)\n      dup1\n      swap2\n      sub\n      swap1\n      revert\n    tag_185:\n        /* \"contracts/Staking.sol\":4974:4975  0 */\n      0x00\n        /* \"contracts/Staking.sol\":4955:4964  _tokenIds */\n      dup4\n      dup4\n        /* \"contracts/Staking.sol\":4955:4971  _tokenIds.length */\n      swap1\n      pop\n        /* \"contracts/Staking.sol\":4955:4975  _tokenIds.length > 0 */\n      gt\n        /* \"contracts/Staking.sol\":4947:4989  require(_tokenIds.length > 0, \"No tokens\") */\n      tag_187\n      jumpi\n      mload(0x40)\n      0x08c379a000000000000000000000000000000000000000000000000000000000\n      dup2\n      mstore\n      0x04\n      add\n      tag_188\n      swap1\n      tag_93\n      jump\t// in\n    tag_188:\n      mload(0x40)\n      dup1\n      swap2\n      sub\n      swap1\n      revert\n    tag_187:\n        /* \"contracts/Staking.sol\":5007:5016  uint256 i */\n      0x00\n        /* \"contracts/Staking.sol\":5002:5849  for (uint256 i = 0; i < _tokenIds.length; i++) {... */\n    tag_189:\n        /* \"contracts/Staking.sol\":5026:5035  _tokenIds */\n      dup4\n      dup4\n        /* \"contracts/Staking.sol\":5026:5042  _tokenIds.length */\n      swap1\n      pop\n        /* \"contracts/Staking.sol\":5022:5023  i */\n      dup2\n        /* \"contracts/Staking.sol\":5022:5042  i < _tokenIds.length */\n      lt\n        /* \"contracts/Staking.sol\":5002:5849  for (uint256 i = 0; i < _tokenIds.length; i++) {... */\n      iszero\n      tag_190\n      jumpi\n        /* \"contracts/Staking.sol\":5064:5084  LockInfo memory info */\n      0x00\n        /* \"contracts/Staking.sol\":5087:5095  lockInfo */\n      0x03\n        /* \"contracts/Staking.sol\":5087:5116  lockInfo[IERC721(nftAddress)] */\n      0x00\n        /* \"contracts/Staking.sol\":5104:5114  nftAddress */\n      dup5\n        /* \"contracts/Staking.sol\":5087:5116  lockInfo[IERC721(nftAddress)] */\n      0xffffffffffffffffffffffffffffffffffffffff\n      and\n      0xffffffffffffffffffffffffffffffffffffffff\n      and\n      dup2\n      mstore\n      0x20\n      add\n      swap1\n      dup2\n      mstore\n      0x20\n      add\n      0x00\n      keccak256\n        /* \"contracts/Staking.sol\":5087:5130  lockInfo[IERC721(nftAddress)][_tokenIds[i]] */\n      0x00\n        /* \"contracts/Staking.sol\":5117:5126  _tokenIds */\n      dup7\n      dup7\n        /* \"contracts/Staking.sol\":5127:5128  i */\n      dup6\n        /* \"contracts/Staking.sol\":5117:5129  _tokenIds[i] */\n      dup2\n      dup2\n      lt\n      tag_192\n      jumpi\n      tag_193\n      tag_99\n      jump\t// in\n    tag_193:\n    tag_192:\n      swap1\n      pop\n      0x20\n      mul\n      add\n      calldataload\n        /* \"contracts/Staking.sol\":5087:5130  lockInfo[IERC721(nftAddress)][_tokenIds[i]] */\n      dup2\n      mstore\n      0x20\n      add\n      swap1\n      dup2\n      mstore\n      0x20\n      add\n      0x00\n      keccak256\n        /* \"contracts/Staking.sol\":5064:5130  LockInfo memory info = lockInfo[IERC721(nftAddress)][_tokenIds[i]] */\n      mload(0x40)\n      dup1\n      0xa0\n      add\n      0x40\n      mstore\n      swap1\n      dup2\n      0x00\n      dup3\n      add\n      0x00\n      swap1\n      sload\n      swap1\n      0x0100\n      exp\n      swap1\n      div\n      0xffffffffffffffffffffffffffffffffffffffff\n      and\n      0xffffffffffffffffffffffffffffffffffffffff\n      and\n      0xffffffffffffffffffffffffffffffffffffffff\n      and\n      dup2\n      mstore\n      0x20\n      add\n      0x01\n      dup3\n      add\n      sload\n      dup2\n      mstore\n      0x20\n      add\n      0x02\n      dup3\n      add\n      sload\n      dup2\n      mstore\n      0x20\n      add\n      0x03\n      dup3\n      add\n      0x00\n      swap1\n      sload\n      swap1\n      0x0100\n      exp\n      swap1\n      div\n      0xff\n      and\n      iszero\n      iszero\n      iszero\n      iszero\n      dup2\n      mstore\n      0x20\n      add\n      0x03\n      dup3\n      add\n      0x01\n      swap1\n      sload\n      swap1\n      0x0100\n      exp\n      swap1\n      div\n      0xffffffffffffffffffffffffffffffffffffffff\n      and\n      0xffffffffffffffffffffffffffffffffffffffff\n      and\n      0xffffffffffffffffffffffffffffffffffffffff\n      and\n      dup2\n      mstore\n      pop\n      pop\n      swap1\n      pop\n        /* \"contracts/Staking.sol\":5167:5177  msg.sender */\n      caller\n        /* \"contracts/Staking.sol\":5153:5177  info.owner == msg.sender */\n      0xffffffffffffffffffffffffffffffffffffffff\n      and\n        /* \"contracts/Staking.sol\":5153:5157  info */\n      dup2\n        /* \"contracts/Staking.sol\":5153:5163  info.owner */\n      0x00\n      add\n      mload\n        /* \"contracts/Staking.sol\":5153:5177  info.owner == msg.sender */\n      0xffffffffffffffffffffffffffffffffffffffff\n      and\n      eq\n        /* \"contracts/Staking.sol\":5145:5199  require(info.owner == msg.sender, \"Not a token owner\") */\n      tag_194\n      jumpi\n      mload(0x40)\n      0x08c379a000000000000000000000000000000000000000000000000000000000\n      dup2\n      mstore\n      0x04\n      add\n      tag_195\n      swap1\n      tag_102\n      jump\t// in\n    tag_195:\n      mload(0x40)\n      dup1\n      swap2\n      sub\n      swap1\n      revert\n    tag_194:\n        /* \"contracts/Staking.sol\":5253:5268  block.timestamp */\n      timestamp\n        /* \"contracts/Staking.sol\":5240:5250  lockPeriod */\n      sload(0x02)\n        /* \"contracts/Staking.sol\":5222:5226  info */\n      dup3\n        /* \"contracts/Staking.sol\":5222:5237  info.lockedTime */\n      0x20\n      add\n      mload\n        /* \"contracts/Staking.sol\":5222:5250  info.lockedTime + lockPeriod */\n      tag_196\n      swap2\n      swap1\n      tag_104\n      jump\t// in\n    tag_196:\n        /* \"contracts/Staking.sol\":5222:5268  info.lockedTime + lockPeriod < block.timestamp */\n      lt\n        /* \"contracts/Staking.sol\":5214:5295  require(info.lockedTime + lockPeriod < block.timestamp, \"Not able to unlock yet\") */\n      tag_197\n      jumpi\n      mload(0x40)\n      0x08c379a000000000000000000000000000000000000000000000000000000000\n      dup2\n      mstore\n      0x04\n      add\n      tag_198\n      swap1\n      tag_199\n      jump\t// in\n    tag_198:\n      mload(0x40)\n      dup1\n      swap2\n      sub\n      swap1\n      revert\n    tag_197:\n        /* \"contracts/Staking.sol\":5319:5323  info */\n      dup1\n        /* \"contracts/Staking.sol\":5319:5334  info.isUnlocked */\n      0x60\n      add\n      mload\n        /* \"contracts/Staking.sol\":5318:5334  !info.isUnlocked */\n      iszero\n        /* \"contracts/Staking.sol\":5310:5355  require(!info.isUnlocked, \"Already unlocked\") */\n      tag_200\n      jumpi\n      mload(0x40)\n      0x08c379a000000000000000000000000000000000000000000000000000000000\n      dup2\n      mstore\n      0x04\n      add\n      tag_201\n      swap1\n      tag_110\n      jump\t// in\n    tag_201:\n      mload(0x40)\n      dup1\n      swap2\n      sub\n      swap1\n      revert\n    tag_200:\n        /* \"contracts/Staking.sol\":5372:5382  nftAddress */\n      dup3\n        /* \"contracts/Staking.sol\":5372:5395  nftAddress.transferFrom */\n      0xffffffffffffffffffffffffffffffffffffffff\n      and\n      0x23b872dd\n        /* \"contracts/Staking.sol\":5404:5408  this */\n      address\n        /* \"contracts/Staking.sol\":5411:5421  msg.sender */\n      caller\n        /* \"contracts/Staking.sol\":5423:5432  _tokenIds */\n      dup9\n      dup9\n        /* \"contracts/Staking.sol\":5433:5434  i */\n      dup8\n        /* \"contracts/Staking.sol\":5423:5435  _tokenIds[i] */\n      dup2\n      dup2\n      lt\n      tag_202\n      jumpi\n      tag_203\n      tag_99\n      jump\t// in\n    tag_203:\n    tag_202:\n      swap1\n      pop\n      0x20\n      mul\n      add\n      calldataload\n        /* \"contracts/Staking.sol\":5372:5436  nftAddress.transferFrom(address(this), msg.sender, _tokenIds[i]) */\n      mload(0x40)\n      dup5\n      0xffffffff\n      and\n      0xe0\n      shl\n      dup2\n      mstore\n      0x04\n      add\n      tag_204\n      swap4\n      swap3\n      swap2\n      swap1\n      tag_160\n      jump\t// in\n    tag_204:\n      0x00\n      mload(0x40)\n      dup1\n      dup4\n      sub\n      dup2\n      0x00\n      dup8\n      dup1\n      extcodesize\n      iszero\n      dup1\n      iszero\n      tag_205\n      jumpi\n      0x00\n      dup1\n      revert\n    tag_205:\n      pop\n      gas\n      call\n      iszero\n      dup1\n      iszero\n      tag_207\n      jumpi\n      returndatasize\n      0x00\n      dup1\n      returndatacopy\n      revert(0x00, returndatasize)\n    tag_207:\n      pop\n      pop\n      pop\n      pop\n        /* \"contracts/Staking.sol\":5453:5472  uint256 totalAmount */\n      0x00\n        /* \"contracts/Staking.sol\":5475:5514  _rewardAmount(_tokenIds[i], nftAddress) */\n      tag_208\n        /* \"contracts/Staking.sol\":5489:5498  _tokenIds */\n      dup7\n      dup7\n        /* \"contracts/Staking.sol\":5499:5500  i */\n      dup6\n        /* \"contracts/Staking.sol\":5489:5501  _tokenIds[i] */\n      dup2\n      dup2\n      lt\n      tag_209\n      jumpi\n      tag_210\n      tag_99\n      jump\t// in\n    tag_210:\n    tag_209:\n      swap1\n      pop\n      0x20\n      mul\n      add\n      calldataload\n        /* \"contracts/Staking.sol\":5503:5513  nftAddress */\n      dup6\n        /* \"contracts/Staking.sol\":5475:5488  _rewardAmount */\n      tag_114\n        /* \"contracts/Staking.sol\":5475:5514  _rewardAmount(_tokenIds[i], nftAddress) */\n      jump\t// in\n    tag_208:\n        /* \"contracts/Staking.sol\":5453:5514  uint256 totalAmount = _rewardAmount(_tokenIds[i], nftAddress) */\n      swap1\n      pop\n        /* \"contracts/Staking.sol\":5529:5553  uint256 unclaminedAmount */\n      0x00\n        /* \"contracts/Staking.sol\":5570:5574  info */\n      dup3\n        /* \"contracts/Staking.sol\":5570:5589  info.claimedRewards */\n      0x40\n      add\n      mload\n        /* \"contracts/Staking.sol\":5556:5567  totalAmount */\n      dup3\n        /* \"contracts/Staking.sol\":5556:5589  totalAmount - info.claimedRewards */\n      tag_211\n      swap2\n      swap1\n      tag_116\n      jump\t// in\n    tag_211:\n        /* \"contracts/Staking.sol\":5529:5589  uint256 unclaminedAmount = totalAmount - info.claimedRewards */\n      swap1\n      pop\n        /* \"contracts/Staking.sol\":5605:5612  nftInfo */\n      0x04\n        /* \"contracts/Staking.sol\":5605:5624  nftInfo[nftAddress] */\n      0x00\n        /* \"contracts/Staking.sol\":5613:5623  nftAddress */\n      dup7\n        /* \"contracts/Staking.sol\":5605:5624  nftInfo[nftAddress] */\n      0xffffffffffffffffffffffffffffffffffffffff\n      and\n      0xffffffffffffffffffffffffffffffffffffffff\n      and\n      dup2\n      mstore\n      0x20\n      add\n      swap1\n      dup2\n      mstore\n      0x20\n      add\n      0x00\n      keccak256\n        /* \"contracts/Staking.sol\":5605:5637  nftInfo[nftAddress].rewardsToken */\n      0x00\n      add\n      0x00\n      swap1\n      sload\n      swap1\n      0x0100\n      exp\n      swap1\n      div\n      0xffffffffffffffffffffffffffffffffffffffff\n      and\n        /* \"contracts/Staking.sol\":5605:5642  nftInfo[nftAddress].rewardsToken.mint */\n      0xffffffffffffffffffffffffffffffffffffffff\n      and\n      0x40c10f19\n        /* \"contracts/Staking.sol\":5643:5653  msg.sender */\n      caller\n        /* \"contracts/Staking.sol\":5655:5671  unclaminedAmount */\n      dup4\n        /* \"contracts/Staking.sol\":5605:5672  nftInfo[nftAddress].rewardsToken.mint(msg.sender, unclaminedAmount) */\n      mload(0x40)\n      dup4\n      0xffffffff\n      and\n      0xe0\n      shl\n      dup2\n      mstore\n      0x04\n      add\n      tag_212\n      swap3\n      swap2\n      swap1\n      tag_118\n      jump\t// in\n    tag_212:\n      0x00\n      mload(0x40)\n      dup1\n      dup4\n      sub\n      dup2\n      0x00\n      dup8\n      dup1\n      extcodesize\n      iszero\n      dup1\n      iszero\n      tag_213\n      jumpi\n      0x00\n      dup1\n      revert\n    tag_213:\n      pop\n      gas\n      call\n      iszero\n      dup1\n      iszero\n      tag_215\n      jumpi\n      returndatasize\n      0x00\n      dup1\n      returndatacopy\n      revert(0x00, returndatasize)\n    tag_215:\n      pop\n      pop\n      pop\n      pop\n        /* \"contracts/Staking.sol\":5750:5761  totalAmount */\n      dup2\n        /* \"contracts/Staking.sol\":5689:5697  lockInfo */\n      0x03\n        /* \"contracts/Staking.sol\":5689:5718  lockInfo[IERC721(nftAddress)] */\n      0x00\n        /* \"contracts/Staking.sol\":5706:5716  nftAddress */\n      dup8\n        /* \"contracts/Staking.sol\":5689:5718  lockInfo[IERC721(nftAddress)] */\n      0xffffffffffffffffffffffffffffffffffffffff\n      and\n      0xffffffffffffffffffffffffffffffffffffffff\n      and\n      dup2\n      mstore\n      0x20\n      add\n      swap1\n      dup2\n      mstore\n      0x20\n      add\n      0x00\n      keccak256\n        /* \"contracts/Staking.sol\":5689:5732  lockInfo[IERC721(nftAddress)][_tokenIds[i]] */\n      0x00\n        /* \"contracts/Staking.sol\":5719:5728  _tokenIds */\n      dup10\n      dup10\n        /* \"contracts/Staking.sol\":5729:5730  i */\n      dup9\n        /* \"contracts/Staking.sol\":5719:5731  _tokenIds[i] */\n      dup2\n      dup2\n      lt\n      tag_216\n      jumpi\n      tag_217\n      tag_99\n      jump\t// in\n    tag_217:\n    tag_216:\n      swap1\n      pop\n      0x20\n      mul\n      add\n      calldataload\n        /* \"contracts/Staking.sol\":5689:5732  lockInfo[IERC721(nftAddress)][_tokenIds[i]] */\n      dup2\n      mstore\n      0x20\n      add\n      swap1\n      dup2\n      mstore\n      0x20\n      add\n      0x00\n      keccak256\n        /* \"contracts/Staking.sol\":5689:5747  lockInfo[IERC721(nftAddress)][_tokenIds[i]].claimedRewards */\n      0x02\n      add\n        /* \"contracts/Staking.sol\":5689:5761  lockInfo[IERC721(nftAddress)][_tokenIds[i]].claimedRewards = totalAmount */\n      dup2\n      swap1\n      sstore\n      pop\n        /* \"contracts/Staking.sol\":5833:5837  true */\n      0x01\n        /* \"contracts/Staking.sol\":5776:5784  lockInfo */\n      0x03\n        /* \"contracts/Staking.sol\":5776:5805  lockInfo[IERC721(nftAddress)] */\n      0x00\n        /* \"contracts/Staking.sol\":5793:5803  nftAddress */\n      dup8\n        /* \"contracts/Staking.sol\":5776:5805  lockInfo[IERC721(nftAddress)] */\n      0xffffffffffffffffffffffffffffffffffffffff\n      and\n      0xffffffffffffffffffffffffffffffffffffffff\n      and\n      dup2\n      mstore\n      0x20\n      add\n      swap1\n      dup2\n      mstore\n      0x20\n      add\n      0x00\n      keccak256\n        /* \"contracts/Staking.sol\":5776:5819  lockInfo[IERC721(nftAddress)][_tokenIds[i]] */\n      0x00\n        /* \"contracts/Staking.sol\":5806:5815  _tokenIds */\n      dup10\n      dup10\n        /* \"contracts/Staking.sol\":5816:5817  i */\n      dup9\n        /* \"contracts/Staking.sol\":5806:5818  _tokenIds[i] */\n      dup2\n      dup2\n      lt\n      tag_218\n      jumpi\n      tag_219\n      tag_99\n      jump\t// in\n    tag_219:\n    tag_218:\n      swap1\n      pop\n      0x20\n      mul\n      add\n      calldataload\n        /* \"contracts/Staking.sol\":5776:5819  lockInfo[IERC721(nftAddress)][_tokenIds[i]] */\n      dup2\n      mstore\n      0x20\n      add\n      swap1\n      dup2\n      mstore\n      0x20\n      add\n      0x00\n      keccak256\n        /* \"contracts/Staking.sol\":5776:5830  lockInfo[IERC721(nftAddress)][_tokenIds[i]].isUnlocked */\n      0x03\n      add\n      0x00\n        /* \"contracts/Staking.sol\":5776:5837  lockInfo[IERC721(nftAddress)][_tokenIds[i]].isUnlocked = true */\n      0x0100\n      exp\n      dup2\n      sload\n      dup2\n      0xff\n      mul\n      not\n      and\n      swap1\n      dup4\n      iszero\n      iszero\n      mul\n      or\n      swap1\n      sstore\n      pop\n        /* \"contracts/Staking.sol\":5049:5849  {... */\n      pop\n      pop\n      pop\n        /* \"contracts/Staking.sol\":5044:5047  i++ */\n      dup1\n      dup1\n      tag_220\n      swap1\n      tag_126\n      jump\t// in\n    tag_220:\n      swap2\n      pop\n      pop\n        /* \"contracts/Staking.sol\":5002:5849  for (uint256 i = 0; i < _tokenIds.length; i++) {... */\n      jump(tag_189)\n    tag_190:\n      pop\n        /* \"contracts/Staking.sol\":5878:5888  msg.sender */\n      caller\n        /* \"contracts/Staking.sol\":5866:5900  NFTUnLocked(msg.sender, _tokenIds) */\n      0xffffffffffffffffffffffffffffffffffffffff\n      and\n      0x5cb48022479b9ac3bfb10a27965dc010acffc9fc1bc9a52f0b18975b944b54ca\n        /* \"contracts/Staking.sol\":5890:5899  _tokenIds */\n      dup5\n      dup5\n        /* \"contracts/Staking.sol\":5866:5900  NFTUnLocked(msg.sender, _tokenIds) */\n      mload(0x40)\n      tag_221\n      swap3\n      swap2\n      swap1\n      tag_168\n      jump\t// in\n    tag_221:\n      mload(0x40)\n      dup1\n      swap2\n      sub\n      swap1\n      log2\n        /* \"@openzeppelin/contracts/security/ReentrancyGuard.sol\":1701:1702  1 */\n      0x01\n        /* \"@openzeppelin/contracts/security/ReentrancyGuard.sol\":2628:2635  _status */\n      dup1\n        /* \"@openzeppelin/contracts/security/ReentrancyGuard.sol\":2628:2650  _status = _NOT_ENTERED */\n      dup2\n      swap1\n      sstore\n      pop\n        /* \"contracts/Staking.sol\":4670:5908  function unlockNFT(uint256[] calldata _tokenIds, IERC721 nftAddress) external notContract nonReentrant {... */\n      pop\n      pop\n      pop\n      jump\t// out\n        /* \"contracts/Staking.sol\":770:834  mapping(IERC721 => mapping(uint256 => LockInfo)) public lockInfo */\n    tag_45:\n      mstore(0x20, 0x03)\n      dup2\n      0x00\n      mstore\n      mstore(0x20, keccak256(0x00, 0x40))\n      dup1\n      0x00\n      mstore\n      keccak256(0x00, 0x40)\n      0x00\n      swap2\n      pop\n      swap2\n      pop\n      pop\n      dup1\n      0x00\n      add\n      0x00\n      swap1\n      sload\n      swap1\n      0x0100\n      exp\n      swap1\n      div\n      0xffffffffffffffffffffffffffffffffffffffff\n      and\n      swap1\n      dup1\n      0x01\n      add\n      sload\n      swap1\n      dup1\n      0x02\n      add\n      sload\n      swap1\n      dup1\n      0x03\n      add\n      0x00\n      swap1\n      sload\n      swap1\n      0x0100\n      exp\n      swap1\n      div\n      0xff\n      and\n      swap1\n      dup1\n      0x03\n      add\n      0x01\n      swap1\n      sload\n      swap1\n      0x0100\n      exp\n      swap1\n      div\n      0xffffffffffffffffffffffffffffffffffffffff\n      and\n      swap1\n      pop\n      dup6\n      jump\t// out\n        /* \"contracts/Staking.sol\":3486:3660  function claimedRewards(uint256 _tokenId, IERC721 nftAddress) external view returns (uint256) {... */\n    tag_51:\n        /* \"contracts/Staking.sol\":3571:3578  uint256 */\n      0x00\n        /* \"contracts/Staking.sol\":3598:3606  lockInfo */\n      0x03\n        /* \"contracts/Staking.sol\":3598:3627  lockInfo[IERC721(nftAddress)] */\n      0x00\n        /* \"contracts/Staking.sol\":3615:3625  nftAddress */\n      dup4\n        /* \"contracts/Staking.sol\":3598:3627  lockInfo[IERC721(nftAddress)] */\n      0xffffffffffffffffffffffffffffffffffffffff\n      and\n      0xffffffffffffffffffffffffffffffffffffffff\n      and\n      dup2\n      mstore\n      0x20\n      add\n      swap1\n      dup2\n      mstore\n      0x20\n      add\n      0x00\n      keccak256\n        /* \"contracts/Staking.sol\":3598:3637  lockInfo[IERC721(nftAddress)][_tokenId] */\n      0x00\n        /* \"contracts/Staking.sol\":3628:3636  _tokenId */\n      dup5\n        /* \"contracts/Staking.sol\":3598:3637  lockInfo[IERC721(nftAddress)][_tokenId] */\n      dup2\n      mstore\n      0x20\n      add\n      swap1\n      dup2\n      mstore\n      0x20\n      add\n      0x00\n      keccak256\n        /* \"contracts/Staking.sol\":3598:3652  lockInfo[IERC721(nftAddress)][_tokenId].claimedRewards */\n      0x02\n      add\n      sload\n        /* \"contracts/Staking.sol\":3591:3652  return lockInfo[IERC721(nftAddress)][_tokenId].claimedRewards */\n      swap1\n      pop\n        /* \"contracts/Staking.sol\":3486:3660  function claimedRewards(uint256 _tokenId, IERC721 nftAddress) external view returns (uint256) {... */\n      swap3\n      swap2\n      pop\n      pop\n      jump\t// out\n        /* \"contracts/Staking.sol\":1099:1118  uint256 public WAVE */\n    tag_54:\n      sload(0x05)\n      dup2\n      jump\t// out\n        /* \"contracts/Staking.sol\":1016:1063  mapping(IERC721 => stakeNftInfo) public nftInfo */\n    tag_59:\n      mstore(0x20, 0x04)\n      dup1\n      0x00\n      mstore\n      keccak256(0x00, 0x40)\n      0x00\n      swap2\n      pop\n      swap1\n      pop\n      dup1\n      0x00\n      add\n      0x00\n      swap1\n      sload\n      swap1\n      0x0100\n      exp\n      swap1\n      div\n      0xffffffffffffffffffffffffffffffffffffffff\n      and\n      swap1\n      dup1\n      0x01\n      add\n      sload\n      swap1\n      dup1\n      0x02\n      add\n      sload\n      swap1\n      pop\n      dup4\n      jump\t// out\n        /* \"contracts/Staking.sol\":2208:2985  function addStakingNfts(... */\n    tag_65:\n        /* \"@openzeppelin/contracts/access/Ownable.sol\":1094:1107  _checkOwner() */\n      tag_224\n        /* \"@openzeppelin/contracts/access/Ownable.sol\":1094:1105  _checkOwner */\n      tag_72\n        /* \"@openzeppelin/contracts/access/Ownable.sol\":1094:1107  _checkOwner() */\n      jump\t// in\n    tag_224:\n        /* \"contracts/Staking.sol\":2672:2678  uint i */\n      0x00\n        /* \"contracts/Staking.sol\":2667:2978  for (uint i = 0; i < _stakeNFT.length; i++) {... */\n    tag_226:\n        /* \"contracts/Staking.sol\":2688:2697  _stakeNFT */\n      dup5\n        /* \"contracts/Staking.sol\":2688:2704  _stakeNFT.length */\n      mload\n        /* \"contracts/Staking.sol\":2684:2685  i */\n      dup2\n        /* \"contracts/Staking.sol\":2684:2704  i < _stakeNFT.length */\n      lt\n        /* \"contracts/Staking.sol\":2667:2978  for (uint i = 0; i < _stakeNFT.length; i++) {... */\n      iszero\n      tag_227\n      jumpi\n        /* \"contracts/Staking.sol\":2788:2801  _rewardsToken */\n      dup4\n        /* \"contracts/Staking.sol\":2802:2803  i */\n      dup2\n        /* \"contracts/Staking.sol\":2788:2804  _rewardsToken[i] */\n      dup2\n      mload\n      dup2\n      lt\n      tag_229\n      jumpi\n      tag_230\n      tag_99\n      jump\t// in\n    tag_230:\n    tag_229:\n      0x20\n      mul\n      0x20\n      add\n      add\n      mload\n        /* \"contracts/Staking.sol\":2728:2735  nftInfo */\n      0x04\n        /* \"contracts/Staking.sol\":2728:2758  nftInfo[IERC721(_stakeNFT[i])] */\n      0x00\n        /* \"contracts/Staking.sol\":2744:2753  _stakeNFT */\n      dup8\n        /* \"contracts/Staking.sol\":2754:2755  i */\n      dup5\n        /* \"contracts/Staking.sol\":2744:2756  _stakeNFT[i] */\n      dup2\n      mload\n      dup2\n      lt\n      tag_231\n      jumpi\n      tag_232\n      tag_99\n      jump\t// in\n    tag_232:\n    tag_231:\n      0x20\n      mul\n      0x20\n      add\n      add\n      mload\n        /* \"contracts/Staking.sol\":2728:2758  nftInfo[IERC721(_stakeNFT[i])] */\n      0xffffffffffffffffffffffffffffffffffffffff\n      and\n      0xffffffffffffffffffffffffffffffffffffffff\n      and\n      dup2\n      mstore\n      0x20\n      add\n      swap1\n      dup2\n      mstore\n      0x20\n      add\n      0x00\n      keccak256\n        /* \"contracts/Staking.sol\":2728:2771  nftInfo[IERC721(_stakeNFT[i])].rewardsToken */\n      0x00\n      add\n      0x00\n        /* \"contracts/Staking.sol\":2728:2805  nftInfo[IERC721(_stakeNFT[i])].rewardsToken = IRewardsToken(_rewardsToken[i]) */\n      0x0100\n      exp\n      dup2\n      sload\n      dup2\n      0xffffffffffffffffffffffffffffffffffffffff\n      mul\n      not\n      and\n      swap1\n      dup4\n      0xffffffffffffffffffffffffffffffffffffffff\n      and\n      mul\n      or\n      swap1\n      sstore\n      pop\n        /* \"contracts/Staking.sol\":2868:2882  _rewardPerWave */\n      dup3\n        /* \"contracts/Staking.sol\":2883:2884  i */\n      dup2\n        /* \"contracts/Staking.sol\":2868:2885  _rewardPerWave[i] */\n      dup2\n      mload\n      dup2\n      lt\n      tag_233\n      jumpi\n      tag_234\n      tag_99\n      jump\t// in\n    tag_234:\n    tag_233:\n      0x20\n      mul\n      0x20\n      add\n      add\n      mload\n        /* \"contracts/Staking.sol\":2820:2827  nftInfo */\n      0x04\n        /* \"contracts/Staking.sol\":2820:2850  nftInfo[IERC721(_stakeNFT[i])] */\n      0x00\n        /* \"contracts/Staking.sol\":2836:2845  _stakeNFT */\n      dup8\n        /* \"contracts/Staking.sol\":2846:2847  i */\n      dup5\n        /* \"contracts/Staking.sol\":2836:2848  _stakeNFT[i] */\n      dup2\n      mload\n      dup2\n      lt\n      tag_235\n      jumpi\n      tag_236\n      tag_99\n      jump\t// in\n    tag_236:\n    tag_235:\n      0x20\n      mul\n      0x20\n      add\n      add\n      mload\n        /* \"contracts/Staking.sol\":2820:2850  nftInfo[IERC721(_stakeNFT[i])] */\n      0xffffffffffffffffffffffffffffffffffffffff\n      and\n      0xffffffffffffffffffffffffffffffffffffffff\n      and\n      dup2\n      mstore\n      0x20\n      add\n      swap1\n      dup2\n      mstore\n      0x20\n      add\n      0x00\n      keccak256\n        /* \"contracts/Staking.sol\":2820:2865  nftInfo[IERC721(_stakeNFT[i])].rewardsPerWave */\n      0x01\n      add\n        /* \"contracts/Staking.sol\":2820:2885  nftInfo[IERC721(_stakeNFT[i])].rewardsPerWave = _rewardPerWave[i] */\n      dup2\n      swap1\n      sstore\n      pop\n        /* \"contracts/Staking.sol\":2950:2967  _rewardPercentage */\n      dup2\n        /* \"contracts/Staking.sol\":2968:2969  i */\n      dup2\n        /* \"contracts/Staking.sol\":2950:2970  _rewardPercentage[i] */\n      dup2\n      mload\n      dup2\n      lt\n      tag_237\n      jumpi\n      tag_238\n      tag_99\n      jump\t// in\n    tag_238:\n    tag_237:\n      0x20\n      mul\n      0x20\n      add\n      add\n      mload\n        /* \"contracts/Staking.sol\":2900:2907  nftInfo */\n      0x04\n        /* \"contracts/Staking.sol\":2900:2930  nftInfo[IERC721(_stakeNFT[i])] */\n      0x00\n        /* \"contracts/Staking.sol\":2916:2925  _stakeNFT */\n      dup8\n        /* \"contracts/Staking.sol\":2926:2927  i */\n      dup5\n        /* \"contracts/Staking.sol\":2916:2928  _stakeNFT[i] */\n      dup2\n      mload\n      dup2\n      lt\n      tag_239\n      jumpi\n      tag_240\n      tag_99\n      jump\t// in\n    tag_240:\n    tag_239:\n      0x20\n      mul\n      0x20\n      add\n      add\n      mload\n        /* \"contracts/Staking.sol\":2900:2930  nftInfo[IERC721(_stakeNFT[i])] */\n      0xffffffffffffffffffffffffffffffffffffffff\n      and\n      0xffffffffffffffffffffffffffffffffffffffff\n      and\n      dup2\n      mstore\n      0x20\n      add\n      swap1\n      dup2\n      mstore\n      0x20\n      add\n      0x00\n      keccak256\n        /* \"contracts/Staking.sol\":2900:2947  nftInfo[IERC721(_stakeNFT[i])].rewardPercentage */\n      0x02\n      add\n        /* \"contracts/Staking.sol\":2900:2970  nftInfo[IERC721(_stakeNFT[i])].rewardPercentage = _rewardPercentage[i] */\n      dup2\n      swap1\n      sstore\n      pop\n        /* \"contracts/Staking.sol\":2706:2709  i++ */\n      dup1\n      dup1\n      tag_241\n      swap1\n      tag_126\n      jump\t// in\n    tag_241:\n      swap2\n      pop\n      pop\n        /* \"contracts/Staking.sol\":2667:2978  for (uint i = 0; i < _stakeNFT.length; i++) {... */\n      jump(tag_226)\n    tag_227:\n      pop\n        /* \"contracts/Staking.sol\":2208:2985  function addStakingNfts(... */\n      pop\n      pop\n      pop\n      pop\n      jump\t// out\n        /* \"@openzeppelin/contracts/access/Ownable.sol\":2081:2279  function transferOwnership(address newOwner) public virtual onlyOwner {... */\n    tag_69:\n        /* \"@openzeppelin/contracts/access/Ownable.sol\":1094:1107  _checkOwner() */\n      tag_243\n        /* \"@openzeppelin/contracts/access/Ownable.sol\":1094:1105  _checkOwner */\n      tag_72\n        /* \"@openzeppelin/contracts/access/Ownable.sol\":1094:1107  _checkOwner() */\n      jump\t// in\n    tag_243:\n        /* \"@openzeppelin/contracts/access/Ownable.sol\":2189:2190  0 */\n      0x00\n        /* \"@openzeppelin/contracts/access/Ownable.sol\":2169:2191  newOwner != address(0) */\n      0xffffffffffffffffffffffffffffffffffffffff\n      and\n        /* \"@openzeppelin/contracts/access/Ownable.sol\":2169:2177  newOwner */\n      dup2\n        /* \"@openzeppelin/contracts/access/Ownable.sol\":2169:2191  newOwner != address(0) */\n      0xffffffffffffffffffffffffffffffffffffffff\n      and\n      sub\n        /* \"@openzeppelin/contracts/access/Ownable.sol\":2161:2234  require(newOwner != address(0), \"Ownable: new owner is the zero address\") */\n      tag_245\n      jumpi\n      mload(0x40)\n      0x08c379a000000000000000000000000000000000000000000000000000000000\n      dup2\n      mstore\n      0x04\n      add\n      tag_246\n      swap1\n      tag_247\n      jump\t// in\n    tag_246:\n      mload(0x40)\n      dup1\n      swap2\n      sub\n      swap1\n      revert\n    tag_245:\n        /* \"@openzeppelin/contracts/access/Ownable.sol\":2244:2272  _transferOwnership(newOwner) */\n      tag_248\n        /* \"@openzeppelin/contracts/access/Ownable.sol\":2263:2271  newOwner */\n      dup2\n        /* \"@openzeppelin/contracts/access/Ownable.sol\":2244:2262  _transferOwnership */\n      tag_173\n        /* \"@openzeppelin/contracts/access/Ownable.sol\":2244:2272  _transferOwnership(newOwner) */\n      jump\t// in\n    tag_248:\n        /* \"@openzeppelin/contracts/access/Ownable.sol\":2081:2279  function transferOwnership(address newOwner) public virtual onlyOwner {... */\n      pop\n      jump\t// out\n        /* \"@openzeppelin/contracts/access/Ownable.sol\":1359:1489  function _checkOwner() internal view virtual {... */\n    tag_72:\n        /* \"@openzeppelin/contracts/access/Ownable.sol\":1433:1445  _msgSender() */\n      tag_250\n        /* \"@openzeppelin/contracts/access/Ownable.sol\":1433:1443  _msgSender */\n      tag_251\n        /* \"@openzeppelin/contracts/access/Ownable.sol\":1433:1445  _msgSender() */\n      jump\t// in\n    tag_250:\n        /* \"@openzeppelin/contracts/access/Ownable.sol\":1422:1445  owner() == _msgSender() */\n      0xffffffffffffffffffffffffffffffffffffffff\n      and\n        /* \"@openzeppelin/contracts/access/Ownable.sol\":1422:1429  owner() */\n      tag_252\n        /* \"@openzeppelin/contracts/access/Ownable.sol\":1422:1427  owner */\n      tag_36\n        /* \"@openzeppelin/contracts/access/Ownable.sol\":1422:1429  owner() */\n      jump\t// in\n    tag_252:\n        /* \"@openzeppelin/contracts/access/Ownable.sol\":1422:1445  owner() == _msgSender() */\n      0xffffffffffffffffffffffffffffffffffffffff\n      and\n      eq\n        /* \"@openzeppelin/contracts/access/Ownable.sol\":1414:1482  require(owner() == _msgSender(), \"Ownable: caller is not the owner\") */\n      tag_253\n      jumpi\n      mload(0x40)\n      0x08c379a000000000000000000000000000000000000000000000000000000000\n      dup2\n      mstore\n      0x04\n      add\n      tag_254\n      swap1\n      tag_255\n      jump\t// in\n    tag_254:\n      mload(0x40)\n      dup1\n      swap2\n      sub\n      swap1\n      revert\n    tag_253:\n        /* \"@openzeppelin/contracts/access/Ownable.sol\":1359:1489  function _checkOwner() internal view virtual {... */\n      jump\t// out\n        /* \"@openzeppelin/contracts/utils/Address.sol\":1175:1495  function isContract(address account) internal view returns (bool) {... */\n    tag_80:\n        /* \"@openzeppelin/contracts/utils/Address.sol\":1235:1239  bool */\n      0x00\n        /* \"@openzeppelin/contracts/utils/Address.sol\":1487:1488  0 */\n      dup1\n        /* \"@openzeppelin/contracts/utils/Address.sol\":1465:1472  account */\n      dup3\n        /* \"@openzeppelin/contracts/utils/Address.sol\":1465:1484  account.code.length */\n      0xffffffffffffffffffffffffffffffffffffffff\n      and\n      extcodesize\n        /* \"@openzeppelin/contracts/utils/Address.sol\":1465:1488  account.code.length > 0 */\n      gt\n        /* \"@openzeppelin/contracts/utils/Address.sol\":1458:1488  return account.code.length > 0 */\n      swap1\n      pop\n        /* \"@openzeppelin/contracts/utils/Address.sol\":1175:1495  function isContract(address account) internal view returns (bool) {... */\n      swap2\n      swap1\n      pop\n      jump\t// out\n        /* \"contracts/Staking.sol\":7232:7744  function _rewardAmount(uint256 _tokenId, IERC721 nftAddress) internal view returns (uint256) {... */\n    tag_114:\n        /* \"contracts/Staking.sol\":7316:7323  uint256 */\n      0x00\n        /* \"contracts/Staking.sol\":7336:7356  LockInfo memory info */\n      dup1\n        /* \"contracts/Staking.sol\":7359:7367  lockInfo */\n      0x03\n        /* \"contracts/Staking.sol\":7359:7388  lockInfo[IERC721(nftAddress)] */\n      0x00\n        /* \"contracts/Staking.sol\":7376:7386  nftAddress */\n      dup5\n        /* \"contracts/Staking.sol\":7359:7388  lockInfo[IERC721(nftAddress)] */\n      0xffffffffffffffffffffffffffffffffffffffff\n      and\n      0xffffffffffffffffffffffffffffffffffffffff\n      and\n      dup2\n      mstore\n      0x20\n      add\n      swap1\n      dup2\n      mstore\n      0x20\n      add\n      0x00\n      keccak256\n        /* \"contracts/Staking.sol\":7359:7398  lockInfo[IERC721(nftAddress)][_tokenId] */\n      0x00\n        /* \"contracts/Staking.sol\":7389:7397  _tokenId */\n      dup6\n        /* \"contracts/Staking.sol\":7359:7398  lockInfo[IERC721(nftAddress)][_tokenId] */\n      dup2\n      mstore\n      0x20\n      add\n      swap1\n      dup2\n      mstore\n      0x20\n      add\n      0x00\n      keccak256\n        /* \"contracts/Staking.sol\":7336:7398  LockInfo memory info = lockInfo[IERC721(nftAddress)][_tokenId] */\n      mload(0x40)\n      dup1\n      0xa0\n      add\n      0x40\n      mstore\n      swap1\n      dup2\n      0x00\n      dup3\n      add\n      0x00\n      swap1\n      sload\n      swap1\n      0x0100\n      exp\n      swap1\n      div\n      0xffffffffffffffffffffffffffffffffffffffff\n      and\n      0xffffffffffffffffffffffffffffffffffffffff\n      and\n      0xffffffffffffffffffffffffffffffffffffffff\n      and\n      dup2\n      mstore\n      0x20\n      add\n      0x01\n      dup3\n      add\n      sload\n      dup2\n      mstore\n      0x20\n      add\n      0x02\n      dup3\n      add\n      sload\n      dup2\n      mstore\n      0x20\n      add\n      0x03\n      dup3\n      add\n      0x00\n      swap1\n      sload\n      swap1\n      0x0100\n      exp\n      swap1\n      div\n      0xff\n      and\n      iszero\n      iszero\n      iszero\n      iszero\n      dup2\n      mstore\n      0x20\n      add\n      0x03\n      dup3\n      add\n      0x01\n      swap1\n      sload\n      swap1\n      0x0100\n      exp\n      swap1\n      div\n      0xffffffffffffffffffffffffffffffffffffffff\n      and\n      0xffffffffffffffffffffffffffffffffffffffff\n      and\n      0xffffffffffffffffffffffffffffffffffffffff\n      and\n      dup2\n      mstore\n      pop\n      pop\n      swap1\n      pop\n        /* \"contracts/Staking.sol\":7409:7432  uint256 stakingDuration */\n      0x00\n        /* \"contracts/Staking.sol\":7453:7457  info */\n      dup2\n        /* \"contracts/Staking.sol\":7453:7468  info.lockedTime */\n      0x20\n      add\n      mload\n        /* \"contracts/Staking.sol\":7435:7450  block.timestamp */\n      timestamp\n        /* \"contracts/Staking.sol\":7435:7468  block.timestamp - info.lockedTime */\n      tag_258\n      swap2\n      swap1\n      tag_116\n      jump\t// in\n    tag_258:\n        /* \"contracts/Staking.sol\":7409:7468  uint256 stakingDuration = block.timestamp - info.lockedTime */\n      swap1\n      pop\n        /* \"contracts/Staking.sol\":7479:7498  uint256 totalAmount */\n      0x00\n        /* \"contracts/Staking.sol\":7533:7543  lockPeriod */\n      sload(0x02)\n        /* \"contracts/Staking.sol\":7515:7530  stakingDuration */\n      dup3\n        /* \"contracts/Staking.sol\":7515:7543  stakingDuration < lockPeriod */\n      lt\n        /* \"contracts/Staking.sol\":7511:7737  if (stakingDuration < lockPeriod) {... */\n      iszero\n      tag_259\n      jumpi\n        /* \"contracts/Staking.sol\":7567:7568  0 */\n      0x00\n        /* \"contracts/Staking.sol\":7560:7568  return 0 */\n      swap4\n      pop\n      pop\n      pop\n      pop\n      jump(tag_257)\n        /* \"contracts/Staking.sol\":7511:7737  if (stakingDuration < lockPeriod) {... */\n    tag_259:\n        /* \"contracts/Staking.sol\":7688:7692  WAVE */\n      sload(0x05)\n        /* \"contracts/Staking.sol\":7673:7683  lockPeriod */\n      sload(0x02)\n        /* \"contracts/Staking.sol\":7655:7670  stakingDuration */\n      dup4\n        /* \"contracts/Staking.sol\":7655:7683  stakingDuration - lockPeriod */\n      tag_261\n      swap2\n      swap1\n      tag_116\n      jump\t// in\n    tag_261:\n        /* \"contracts/Staking.sol\":7617:7624  nftInfo */\n      0x04\n        /* \"contracts/Staking.sol\":7617:7636  nftInfo[nftAddress] */\n      0x00\n        /* \"contracts/Staking.sol\":7625:7635  nftAddress */\n      dup9\n        /* \"contracts/Staking.sol\":7617:7636  nftInfo[nftAddress] */\n      0xffffffffffffffffffffffffffffffffffffffff\n      and\n      0xffffffffffffffffffffffffffffffffffffffff\n      and\n      dup2\n      mstore\n      0x20\n      add\n      swap1\n      dup2\n      mstore\n      0x20\n      add\n      0x00\n      keccak256\n        /* \"contracts/Staking.sol\":7617:7651  nftInfo[nftAddress].rewardsPerWave */\n      0x01\n      add\n      sload\n        /* \"contracts/Staking.sol\":7617:7684  nftInfo[nftAddress].rewardsPerWave * (stakingDuration - lockPeriod) */\n      tag_262\n      swap2\n      swap1\n      tag_263\n      jump\t// in\n    tag_262:\n        /* \"contracts/Staking.sol\":7615:7692  ( nftInfo[nftAddress].rewardsPerWave * (stakingDuration - lockPeriod)) / WAVE */\n      tag_264\n      swap2\n      swap1\n      tag_265\n      jump\t// in\n    tag_264:\n        /* \"contracts/Staking.sol\":7601:7692  totalAmount = ( nftInfo[nftAddress].rewardsPerWave * (stakingDuration - lockPeriod)) / WAVE */\n      swap1\n      pop\n        /* \"contracts/Staking.sol\":7714:7725  totalAmount */\n      dup1\n        /* \"contracts/Staking.sol\":7707:7725  return totalAmount */\n      swap4\n      pop\n      pop\n      pop\n      pop\n        /* \"contracts/Staking.sol\":7232:7744  function _rewardAmount(uint256 _tokenId, IERC721 nftAddress) internal view returns (uint256) {... */\n    tag_257:\n      swap3\n      swap2\n      pop\n      pop\n      jump\t// out\n        /* \"@openzeppelin/contracts/access/Ownable.sol\":2433:2620  function _transferOwnership(address newOwner) internal virtual {... */\n    tag_173:\n        /* \"@openzeppelin/contracts/access/Ownable.sol\":2506:2522  address oldOwner */\n      0x00\n        /* \"@openzeppelin/contracts/access/Ownable.sol\":2525:2531  _owner */\n      dup1\n      0x00\n      swap1\n      sload\n      swap1\n      0x0100\n      exp\n      swap1\n      div\n      0xffffffffffffffffffffffffffffffffffffffff\n      and\n        /* \"@openzeppelin/contracts/access/Ownable.sol\":2506:2531  address oldOwner = _owner */\n      swap1\n      pop\n        /* \"@openzeppelin/contracts/access/Ownable.sol\":2550:2558  newOwner */\n      dup2\n        /* \"@openzeppelin/contracts/access/Ownable.sol\":2541:2547  _owner */\n      0x00\n      dup1\n        /* \"@openzeppelin/contracts/access/Ownable.sol\":2541:2558  _owner = newOwner */\n      0x0100\n      exp\n      dup2\n      sload\n      dup2\n      0xffffffffffffffffffffffffffffffffffffffff\n      mul\n      not\n      and\n      swap1\n      dup4\n      0xffffffffffffffffffffffffffffffffffffffff\n      and\n      mul\n      or\n      swap1\n      sstore\n      pop\n        /* \"@openzeppelin/contracts/access/Ownable.sol\":2604:2612  newOwner */\n      dup2\n        /* \"@openzeppelin/contracts/access/Ownable.sol\":2573:2613  OwnershipTransferred(oldOwner, newOwner) */\n      0xffffffffffffffffffffffffffffffffffffffff\n      and\n        /* \"@openzeppelin/contracts/access/Ownable.sol\":2594:2602  oldOwner */\n      dup2\n        /* \"@openzeppelin/contracts/access/Ownable.sol\":2573:2613  OwnershipTransferred(oldOwner, newOwner) */\n      0xffffffffffffffffffffffffffffffffffffffff\n      and\n      0x8be0079c531659141344cd1fd0a4f28419497f9722a3daafe3b4186f6b6457e0\n      mload(0x40)\n      mload(0x40)\n      dup1\n      swap2\n      sub\n      swap1\n      log3\n        /* \"@openzeppelin/contracts/access/Ownable.sol\":2496:2620  {... */\n      pop\n        /* \"@openzeppelin/contracts/access/Ownable.sol\":2433:2620  function _transferOwnership(address newOwner) internal virtual {... */\n      pop\n      jump\t// out\n        /* \"@openzeppelin/contracts/utils/Context.sol\":640:736  function _msgSender() internal view virtual returns (address) {... */\n    tag_251:\n        /* \"@openzeppelin/contracts/utils/Context.sol\":693:700  address */\n      0x00\n        /* \"@openzeppelin/contracts/utils/Context.sol\":719:729  msg.sender */\n      caller\n        /* \"@openzeppelin/contracts/utils/Context.sol\":712:729  return msg.sender */\n      swap1\n      pop\n        /* \"@openzeppelin/contracts/utils/Context.sol\":640:736  function _msgSender() internal view virtual returns (address) {... */\n      swap1\n      jump\t// out\n        /* \"#utility.yul\":7:82   */\n    tag_268:\n        /* \"#utility.yul\":40:46   */\n      0x00\n        /* \"#utility.yul\":73:75   */\n      0x40\n        /* \"#utility.yul\":67:76   */\n      mload\n        /* \"#utility.yul\":57:76   */\n      swap1\n      pop\n        /* \"#utility.yul\":7:82   */\n      swap1\n      jump\t// out\n        /* \"#utility.yul\":88:205   */\n    tag_269:\n        /* \"#utility.yul\":197:198   */\n      0x00\n        /* \"#utility.yul\":194:195   */\n      dup1\n        /* \"#utility.yul\":187:199   */\n      revert\n        /* \"#utility.yul\":211:328   */\n    tag_270:\n        /* \"#utility.yul\":320:321   */\n      0x00\n        /* \"#utility.yul\":317:318   */\n      dup1\n        /* \"#utility.yul\":310:322   */\n      revert\n        /* \"#utility.yul\":334:411   */\n    tag_271:\n        /* \"#utility.yul\":371:378   */\n      0x00\n        /* \"#utility.yul\":400:405   */\n      dup2\n        /* \"#utility.yul\":389:405   */\n      swap1\n      pop\n        /* \"#utility.yul\":334:411   */\n      swap2\n      swap1\n      pop\n      jump\t// out\n        /* \"#utility.yul\":417:539   */\n    tag_272:\n        /* \"#utility.yul\":490:514   */\n      tag_346\n        /* \"#utility.yul\":508:513   */\n      dup2\n        /* \"#utility.yul\":490:514   */\n      tag_271\n      jump\t// in\n    tag_346:\n        /* \"#utility.yul\":483:488   */\n      dup2\n        /* \"#utility.yul\":480:515   */\n      eq\n        /* \"#utility.yul\":470:533   */\n      tag_347\n      jumpi\n        /* \"#utility.yul\":529:530   */\n      0x00\n        /* \"#utility.yul\":526:527   */\n      dup1\n        /* \"#utility.yul\":519:531   */\n      revert\n        /* \"#utility.yul\":470:533   */\n    tag_347:\n        /* \"#utility.yul\":417:539   */\n      pop\n      jump\t// out\n        /* \"#utility.yul\":545:684   */\n    tag_273:\n        /* \"#utility.yul\":591:596   */\n      0x00\n        /* \"#utility.yul\":629:635   */\n      dup2\n        /* \"#utility.yul\":616:636   */\n      calldataload\n        /* \"#utility.yul\":607:636   */\n      swap1\n      pop\n        /* \"#utility.yul\":645:678   */\n      tag_349\n        /* \"#utility.yul\":672:677   */\n      dup2\n        /* \"#utility.yul\":645:678   */\n      tag_272\n      jump\t// in\n    tag_349:\n        /* \"#utility.yul\":545:684   */\n      swap3\n      swap2\n      pop\n      pop\n      jump\t// out\n        /* \"#utility.yul\":690:1019   */\n    tag_20:\n        /* \"#utility.yul\":749:755   */\n      0x00\n        /* \"#utility.yul\":798:800   */\n      0x20\n        /* \"#utility.yul\":786:795   */\n      dup3\n        /* \"#utility.yul\":777:784   */\n      dup5\n        /* \"#utility.yul\":773:796   */\n      sub\n        /* \"#utility.yul\":769:801   */\n      slt\n        /* \"#utility.yul\":766:885   */\n      iszero\n      tag_351\n      jumpi\n        /* \"#utility.yul\":804:883   */\n      tag_352\n      tag_269\n      jump\t// in\n    tag_352:\n        /* \"#utility.yul\":766:885   */\n    tag_351:\n        /* \"#utility.yul\":924:925   */\n      0x00\n        /* \"#utility.yul\":949:1002   */\n      tag_353\n        /* \"#utility.yul\":994:1001   */\n      dup5\n        /* \"#utility.yul\":985:991   */\n      dup3\n        /* \"#utility.yul\":974:983   */\n      dup6\n        /* \"#utility.yul\":970:992   */\n      add\n        /* \"#utility.yul\":949:1002   */\n      tag_273\n      jump\t// in\n    tag_353:\n        /* \"#utility.yul\":939:1002   */\n      swap2\n      pop\n        /* \"#utility.yul\":895:1012   */\n      pop\n        /* \"#utility.yul\":690:1019   */\n      swap3\n      swap2\n      pop\n      pop\n      jump\t// out\n        /* \"#utility.yul\":1025:1142   */\n    tag_274:\n        /* \"#utility.yul\":1134:1135   */\n      0x00\n        /* \"#utility.yul\":1131:1132   */\n      dup1\n        /* \"#utility.yul\":1124:1136   */\n      revert\n        /* \"#utility.yul\":1148:1265   */\n    tag_275:\n        /* \"#utility.yul\":1257:1258   */\n      0x00\n        /* \"#utility.yul\":1254:1255   */\n      dup1\n        /* \"#utility.yul\":1247:1259   */\n      revert\n        /* \"#utility.yul\":1271:1388   */\n    tag_276:\n        /* \"#utility.yul\":1380:1381   */\n      0x00\n        /* \"#utility.yul\":1377:1378   */\n      dup1\n        /* \"#utility.yul\":1370:1382   */\n      revert\n        /* \"#utility.yul\":1411:1979   */\n    tag_277:\n        /* \"#utility.yul\":1484:1492   */\n      0x00\n        /* \"#utility.yul\":1494:1500   */\n      dup1\n        /* \"#utility.yul\":1544:1547   */\n      dup4\n        /* \"#utility.yul\":1537:1541   */\n      0x1f\n        /* \"#utility.yul\":1529:1535   */\n      dup5\n        /* \"#utility.yul\":1525:1542   */\n      add\n        /* \"#utility.yul\":1521:1548   */\n      slt\n        /* \"#utility.yul\":1511:1633   */\n      tag_358\n      jumpi\n        /* \"#utility.yul\":1552:1631   */\n      tag_359\n      tag_274\n      jump\t// in\n    tag_359:\n        /* \"#utility.yul\":1511:1633   */\n    tag_358:\n        /* \"#utility.yul\":1665:1671   */\n      dup3\n        /* \"#utility.yul\":1652:1672   */\n      calldataload\n        /* \"#utility.yul\":1642:1672   */\n      swap1\n      pop\n        /* \"#utility.yul\":1695:1713   */\n      0xffffffffffffffff\n        /* \"#utility.yul\":1687:1693   */\n      dup2\n        /* \"#utility.yul\":1684:1714   */\n      gt\n        /* \"#utility.yul\":1681:1798   */\n      iszero\n      tag_360\n      jumpi\n        /* \"#utility.yul\":1717:1796   */\n      tag_361\n      tag_275\n      jump\t// in\n    tag_361:\n        /* \"#utility.yul\":1681:1798   */\n    tag_360:\n        /* \"#utility.yul\":1831:1835   */\n      0x20\n        /* \"#utility.yul\":1823:1829   */\n      dup4\n        /* \"#utility.yul\":1819:1836   */\n      add\n        /* \"#utility.yul\":1807:1836   */\n      swap2\n      pop\n        /* \"#utility.yul\":1885:1888   */\n      dup4\n        /* \"#utility.yul\":1877:1881   */\n      0x20\n        /* \"#utility.yul\":1869:1875   */\n      dup3\n        /* \"#utility.yul\":1865:1882   */\n      mul\n        /* \"#utility.yul\":1855:1863   */\n      dup4\n        /* \"#utility.yul\":1851:1883   */\n      add\n        /* \"#utility.yul\":1848:1889   */\n      gt\n        /* \"#utility.yul\":1845:1973   */\n      iszero\n      tag_362\n      jumpi\n        /* \"#utility.yul\":1892:1971   */\n      tag_363\n      tag_276\n      jump\t// in\n    tag_363:\n        /* \"#utility.yul\":1845:1973   */\n    tag_362:\n        /* \"#utility.yul\":1411:1979   */\n      swap3\n      pop\n      swap3\n      swap1\n      pop\n      jump\t// out\n        /* \"#utility.yul\":1985:2111   */\n    tag_278:\n        /* \"#utility.yul\":2022:2029   */\n      0x00\n        /* \"#utility.yul\":2062:2104   */\n      0xffffffffffffffffffffffffffffffffffffffff\n        /* \"#utility.yul\":2055:2060   */\n      dup3\n        /* \"#utility.yul\":2051:2105   */\n      and\n        /* \"#utility.yul\":2040:2105   */\n      swap1\n      pop\n        /* \"#utility.yul\":1985:2111   */\n      swap2\n      swap1\n      pop\n      jump\t// out\n        /* \"#utility.yul\":2117:2213   */\n    tag_279:\n        /* \"#utility.yul\":2154:2161   */\n      0x00\n        /* \"#utility.yul\":2183:2207   */\n      tag_366\n        /* \"#utility.yul\":2201:2206   */\n      dup3\n        /* \"#utility.yul\":2183:2207   */\n      tag_278\n      jump\t// in\n    tag_366:\n        /* \"#utility.yul\":2172:2207   */\n      swap1\n      pop\n        /* \"#utility.yul\":2117:2213   */\n      swap2\n      swap1\n      pop\n      jump\t// out\n        /* \"#utility.yul\":2219:2330   */\n    tag_280:\n        /* \"#utility.yul\":2271:2278   */\n      0x00\n        /* \"#utility.yul\":2300:2324   */\n      tag_368\n        /* \"#utility.yul\":2318:2323   */\n      dup3\n        /* \"#utility.yul\":2300:2324   */\n      tag_279\n      jump\t// in\n    tag_368:\n        /* \"#utility.yul\":2289:2324   */\n      swap1\n      pop\n        /* \"#utility.yul\":2219:2330   */\n      swap2\n      swap1\n      pop\n      jump\t// out\n        /* \"#utility.yul\":2336:2488   */\n    tag_281:\n        /* \"#utility.yul\":2424:2463   */\n      tag_370\n        /* \"#utility.yul\":2457:2462   */\n      dup2\n        /* \"#utility.yul\":2424:2463   */\n      tag_280\n      jump\t// in\n    tag_370:\n        /* \"#utility.yul\":2417:2422   */\n      dup2\n        /* \"#utility.yul\":2414:2464   */\n      eq\n        /* \"#utility.yul\":2404:2482   */\n      tag_371\n      jumpi\n        /* \"#utility.yul\":2478:2479   */\n      0x00\n        /* \"#utility.yul\":2475:2476   */\n      dup1\n        /* \"#utility.yul\":2468:2480   */\n      revert\n        /* \"#utility.yul\":2404:2482   */\n    tag_371:\n        /* \"#utility.yul\":2336:2488   */\n      pop\n      jump\t// out\n        /* \"#utility.yul\":2494:2663   */\n    tag_282:\n        /* \"#utility.yul\":2555:2560   */\n      0x00\n        /* \"#utility.yul\":2593:2599   */\n      dup2\n        /* \"#utility.yul\":2580:2600   */\n      calldataload\n        /* \"#utility.yul\":2571:2600   */\n      swap1\n      pop\n        /* \"#utility.yul\":2609:2657   */\n      tag_373\n        /* \"#utility.yul\":2651:2656   */\n      dup2\n        /* \"#utility.yul\":2609:2657   */\n      tag_281\n      jump\t// in\n    tag_373:\n        /* \"#utility.yul\":2494:2663   */\n      swap3\n      swap2\n      pop\n      pop\n      jump\t// out\n        /* \"#utility.yul\":2669:3403   */\n    tag_24:\n        /* \"#utility.yul\":2779:2785   */\n      0x00\n        /* \"#utility.yul\":2787:2793   */\n      dup1\n        /* \"#utility.yul\":2795:2801   */\n      0x00\n        /* \"#utility.yul\":2844:2846   */\n      0x40\n        /* \"#utility.yul\":2832:2841   */\n      dup5\n        /* \"#utility.yul\":2823:2830   */\n      dup7\n        /* \"#utility.yul\":2819:2842   */\n      sub\n        /* \"#utility.yul\":2815:2847   */\n      slt\n        /* \"#utility.yul\":2812:2931   */\n      iszero\n      tag_375\n      jumpi\n        /* \"#utility.yul\":2850:2929   */\n      tag_376\n      tag_269\n      jump\t// in\n    tag_376:\n        /* \"#utility.yul\":2812:2931   */\n    tag_375:\n        /* \"#utility.yul\":2998:2999   */\n      0x00\n        /* \"#utility.yul\":2987:2996   */\n      dup5\n        /* \"#utility.yul\":2983:3000   */\n      add\n        /* \"#utility.yul\":2970:3001   */\n      calldataload\n        /* \"#utility.yul\":3028:3046   */\n      0xffffffffffffffff\n        /* \"#utility.yul\":3020:3026   */\n      dup2\n        /* \"#utility.yul\":3017:3047   */\n      gt\n        /* \"#utility.yul\":3014:3131   */\n      iszero\n      tag_377\n      jumpi\n        /* \"#utility.yul\":3050:3129   */\n      tag_378\n      tag_270\n      jump\t// in\n    tag_378:\n        /* \"#utility.yul\":3014:3131   */\n    tag_377:\n        /* \"#utility.yul\":3163:3243   */\n      tag_379\n        /* \"#utility.yul\":3235:3242   */\n      dup7\n        /* \"#utility.yul\":3226:3232   */\n      dup3\n        /* \"#utility.yul\":3215:3224   */\n      dup8\n        /* \"#utility.yul\":3211:3233   */\n      add\n        /* \"#utility.yul\":3163:3243   */\n      tag_277\n      jump\t// in\n    tag_379:\n        /* \"#utility.yul\":3145:3243   */\n      swap4\n      pop\n      swap4\n      pop\n        /* \"#utility.yul\":2941:3253   */\n      pop\n        /* \"#utility.yul\":3292:3294   */\n      0x20\n        /* \"#utility.yul\":3318:3386   */\n      tag_380\n        /* \"#utility.yul\":3378:3385   */\n      dup7\n        /* \"#utility.yul\":3369:3375   */\n      dup3\n        /* \"#utility.yul\":3358:3367   */\n      dup8\n        /* \"#utility.yul\":3354:3376   */\n      add\n        /* \"#utility.yul\":3318:3386   */\n      tag_282\n      jump\t// in\n    tag_380:\n        /* \"#utility.yul\":3308:3386   */\n      swap2\n      pop\n        /* \"#utility.yul\":3263:3396   */\n      pop\n        /* \"#utility.yul\":2669:3403   */\n      swap3\n      pop\n      swap3\n      pop\n      swap3\n      jump\t// out\n        /* \"#utility.yul\":3409:3527   */\n    tag_283:\n        /* \"#utility.yul\":3496:3520   */\n      tag_382\n        /* \"#utility.yul\":3514:3519   */\n      dup2\n        /* \"#utility.yul\":3496:3520   */\n      tag_271\n      jump\t// in\n    tag_382:\n        /* \"#utility.yul\":3491:3494   */\n      dup3\n        /* \"#utility.yul\":3484:3521   */\n      mstore\n        /* \"#utility.yul\":3409:3527   */\n      pop\n      pop\n      jump\t// out\n        /* \"#utility.yul\":3533:3755   */\n    tag_32:\n        /* \"#utility.yul\":3626:3630   */\n      0x00\n        /* \"#utility.yul\":3664:3666   */\n      0x20\n        /* \"#utility.yul\":3653:3662   */\n      dup3\n        /* \"#utility.yul\":3649:3667   */\n      add\n        /* \"#utility.yul\":3641:3667   */\n      swap1\n      pop\n        /* \"#utility.yul\":3677:3748   */\n      tag_384\n        /* \"#utility.yul\":3745:3746   */\n      0x00\n        /* \"#utility.yul\":3734:3743   */\n      dup4\n        /* \"#utility.yul\":3730:3747   */\n      add\n        /* \"#utility.yul\":3721:3727   */\n      dup5\n        /* \"#utility.yul\":3677:3748   */\n      tag_283\n      jump\t// in\n    tag_384:\n        /* \"#utility.yul\":3533:3755   */\n      swap3\n      swap2\n      pop\n      pop\n      jump\t// out\n        /* \"#utility.yul\":3761:3879   */\n    tag_284:\n        /* \"#utility.yul\":3848:3872   */\n      tag_386\n        /* \"#utility.yul\":3866:3871   */\n      dup2\n        /* \"#utility.yul\":3848:3872   */\n      tag_279\n      jump\t// in\n    tag_386:\n        /* \"#utility.yul\":3843:3846   */\n      dup3\n        /* \"#utility.yul\":3836:3873   */\n      mstore\n        /* \"#utility.yul\":3761:3879   */\n      pop\n      pop\n      jump\t// out\n        /* \"#utility.yul\":3885:4107   */\n    tag_38:\n        /* \"#utility.yul\":3978:3982   */\n      0x00\n        /* \"#utility.yul\":4016:4018   */\n      0x20\n        /* \"#utility.yul\":4005:4014   */\n      dup3\n        /* \"#utility.yul\":4001:4019   */\n      add\n        /* \"#utility.yul\":3993:4019   */\n      swap1\n      pop\n        /* \"#utility.yul\":4029:4100   */\n      tag_388\n        /* \"#utility.yul\":4097:4098   */\n      0x00\n        /* \"#utility.yul\":4086:4095   */\n      dup4\n        /* \"#utility.yul\":4082:4099   */\n      add\n        /* \"#utility.yul\":4073:4079   */\n      dup5\n        /* \"#utility.yul\":4029:4100   */\n      tag_284\n      jump\t// in\n    tag_388:\n        /* \"#utility.yul\":3885:4107   */\n      swap3\n      swap2\n      pop\n      pop\n      jump\t// out\n        /* \"#utility.yul\":4113:4617   */\n    tag_44:\n        /* \"#utility.yul\":4196:4202   */\n      0x00\n        /* \"#utility.yul\":4204:4210   */\n      dup1\n        /* \"#utility.yul\":4253:4255   */\n      0x40\n        /* \"#utility.yul\":4241:4250   */\n      dup4\n        /* \"#utility.yul\":4232:4239   */\n      dup6\n        /* \"#utility.yul\":4228:4251   */\n      sub\n        /* \"#utility.yul\":4224:4256   */\n      slt\n        /* \"#utility.yul\":4221:4340   */\n      iszero\n      tag_390\n      jumpi\n        /* \"#utility.yul\":4259:4338   */\n      tag_391\n      tag_269\n      jump\t// in\n    tag_391:\n        /* \"#utility.yul\":4221:4340   */\n    tag_390:\n        /* \"#utility.yul\":4379:4380   */\n      0x00\n        /* \"#utility.yul\":4404:4472   */\n      tag_392\n        /* \"#utility.yul\":4464:4471   */\n      dup6\n        /* \"#utility.yul\":4455:4461   */\n      dup3\n        /* \"#utility.yul\":4444:4453   */\n      dup7\n        /* \"#utility.yul\":4440:4462   */\n      add\n        /* \"#utility.yul\":4404:4472   */\n      tag_282\n      jump\t// in\n    tag_392:\n        /* \"#utility.yul\":4394:4472   */\n      swap3\n      pop\n        /* \"#utility.yul\":4350:4482   */\n      pop\n        /* \"#utility.yul\":4521:4523   */\n      0x20\n        /* \"#utility.yul\":4547:4600   */\n      tag_393\n        /* \"#utility.yul\":4592:4599   */\n      dup6\n        /* \"#utility.yul\":4583:4589   */\n      dup3\n        /* \"#utility.yul\":4572:4581   */\n      dup7\n        /* \"#utility.yul\":4568:4590   */\n      add\n        /* \"#utility.yul\":4547:4600   */\n      tag_273\n      jump\t// in\n    tag_393:\n        /* \"#utility.yul\":4537:4600   */\n      swap2\n      pop\n        /* \"#utility.yul\":4492:4610   */\n      pop\n        /* \"#utility.yul\":4113:4617   */\n      swap3\n      pop\n      swap3\n      swap1\n      pop\n      jump\t// out\n        /* \"#utility.yul\":4623:4713   */\n    tag_285:\n        /* \"#utility.yul\":4657:4664   */\n      0x00\n        /* \"#utility.yul\":4700:4705   */\n      dup2\n        /* \"#utility.yul\":4693:4706   */\n      iszero\n        /* \"#utility.yul\":4686:4707   */\n      iszero\n        /* \"#utility.yul\":4675:4707   */\n      swap1\n      pop\n        /* \"#utility.yul\":4623:4713   */\n      swap2\n      swap1\n      pop\n      jump\t// out\n        /* \"#utility.yul\":4719:4828   */\n    tag_286:\n        /* \"#utility.yul\":4800:4821   */\n      tag_396\n        /* \"#utility.yul\":4815:4820   */\n      dup2\n        /* \"#utility.yul\":4800:4821   */\n      tag_285\n      jump\t// in\n    tag_396:\n        /* \"#utility.yul\":4795:4798   */\n      dup3\n        /* \"#utility.yul\":4788:4822   */\n      mstore\n        /* \"#utility.yul\":4719:4828   */\n      pop\n      pop\n      jump\t// out\n        /* \"#utility.yul\":4834:4894   */\n    tag_287:\n        /* \"#utility.yul\":4862:4865   */\n      0x00\n        /* \"#utility.yul\":4883:4888   */\n      dup2\n        /* \"#utility.yul\":4876:4888   */\n      swap1\n      pop\n        /* \"#utility.yul\":4834:4894   */\n      swap2\n      swap1\n      pop\n      jump\t// out\n        /* \"#utility.yul\":4900:5042   */\n    tag_288:\n        /* \"#utility.yul\":4950:4959   */\n      0x00\n        /* \"#utility.yul\":4983:5036   */\n      tag_399\n        /* \"#utility.yul\":5001:5035   */\n      tag_400\n        /* \"#utility.yul\":5010:5034   */\n      tag_401\n        /* \"#utility.yul\":5028:5033   */\n      dup5\n        /* \"#utility.yul\":5010:5034   */\n      tag_278\n      jump\t// in\n    tag_401:\n        /* \"#utility.yul\":5001:5035   */\n      tag_287\n      jump\t// in\n    tag_400:\n        /* \"#utility.yul\":4983:5036   */\n      tag_278\n      jump\t// in\n    tag_399:\n        /* \"#utility.yul\":4970:5036   */\n      swap1\n      pop\n        /* \"#utility.yul\":4900:5042   */\n      swap2\n      swap1\n      pop\n      jump\t// out\n        /* \"#utility.yul\":5048:5174   */\n    tag_289:\n        /* \"#utility.yul\":5098:5107   */\n      0x00\n        /* \"#utility.yul\":5131:5168   */\n      tag_403\n        /* \"#utility.yul\":5162:5167   */\n      dup3\n        /* \"#utility.yul\":5131:5168   */\n      tag_288\n      jump\t// in\n    tag_403:\n        /* \"#utility.yul\":5118:5168   */\n      swap1\n      pop\n        /* \"#utility.yul\":5048:5174   */\n      swap2\n      swap1\n      pop\n      jump\t// out\n        /* \"#utility.yul\":5180:5321   */\n    tag_290:\n        /* \"#utility.yul\":5245:5254   */\n      0x00\n        /* \"#utility.yul\":5278:5315   */\n      tag_405\n        /* \"#utility.yul\":5309:5314   */\n      dup3\n        /* \"#utility.yul\":5278:5315   */\n      tag_289\n      jump\t// in\n    tag_405:\n        /* \"#utility.yul\":5265:5315   */\n      swap1\n      pop\n        /* \"#utility.yul\":5180:5321   */\n      swap2\n      swap1\n      pop\n      jump\t// out\n        /* \"#utility.yul\":5327:5488   */\n    tag_291:\n        /* \"#utility.yul\":5429:5481   */\n      tag_407\n        /* \"#utility.yul\":5475:5480   */\n      dup2\n        /* \"#utility.yul\":5429:5481   */\n      tag_290\n      jump\t// in\n    tag_407:\n        /* \"#utility.yul\":5424:5427   */\n      dup3\n        /* \"#utility.yul\":5417:5482   */\n      mstore\n        /* \"#utility.yul\":5327:5488   */\n      pop\n      pop\n      jump\t// out\n        /* \"#utility.yul\":5494:6176   */\n    tag_47:\n        /* \"#utility.yul\":5708:5712   */\n      0x00\n        /* \"#utility.yul\":5746:5749   */\n      0xa0\n        /* \"#utility.yul\":5735:5744   */\n      dup3\n        /* \"#utility.yul\":5731:5750   */\n      add\n        /* \"#utility.yul\":5723:5750   */\n      swap1\n      pop\n        /* \"#utility.yul\":5760:5831   */\n      tag_409\n        /* \"#utility.yul\":5828:5829   */\n      0x00\n        /* \"#utility.yul\":5817:5826   */\n      dup4\n        /* \"#utility.yul\":5813:5830   */\n      add\n        /* \"#utility.yul\":5804:5810   */\n      dup9\n        /* \"#utility.yul\":5760:5831   */\n      tag_284\n      jump\t// in\n    tag_409:\n        /* \"#utility.yul\":5841:5913   */\n      tag_410\n        /* \"#utility.yul\":5909:5911   */\n      0x20\n        /* \"#utility.yul\":5898:5907   */\n      dup4\n        /* \"#utility.yul\":5894:5912   */\n      add\n        /* \"#utility.yul\":5885:5891   */\n      dup8\n        /* \"#utility.yul\":5841:5913   */\n      tag_283\n      jump\t// in\n    tag_410:\n        /* \"#utility.yul\":5923:5995   */\n      tag_411\n        /* \"#utility.yul\":5991:5993   */\n      0x40\n        /* \"#utility.yul\":5980:5989   */\n      dup4\n        /* \"#utility.yul\":5976:5994   */\n      add\n        /* \"#utility.yul\":5967:5973   */\n      dup7\n        /* \"#utility.yul\":5923:5995   */\n      tag_283\n      jump\t// in\n    tag_411:\n        /* \"#utility.yul\":6005:6071   */\n      tag_412\n        /* \"#utility.yul\":6067:6069   */\n      0x60\n        /* \"#utility.yul\":6056:6065   */\n      dup4\n        /* \"#utility.yul\":6052:6070   */\n      add\n        /* \"#utility.yul\":6043:6049   */\n      dup6\n        /* \"#utility.yul\":6005:6071   */\n      tag_286\n      jump\t// in\n    tag_412:\n        /* \"#utility.yul\":6081:6169   */\n      tag_413\n        /* \"#utility.yul\":6164:6167   */\n      0x80\n        /* \"#utility.yul\":6153:6162   */\n      dup4\n        /* \"#utility.yul\":6149:6168   */\n      add\n        /* \"#utility.yul\":6140:6146   */\n      dup5\n        /* \"#utility.yul\":6081:6169   */\n      tag_291\n      jump\t// in\n    tag_413:\n        /* \"#utility.yul\":5494:6176   */\n      swap7\n      swap6\n      pop\n      pop\n      pop\n      pop\n      pop\n      pop\n      jump\t// out\n        /* \"#utility.yul\":6182:6686   */\n    tag_50:\n        /* \"#utility.yul\":6265:6271   */\n      0x00\n        /* \"#utility.yul\":6273:6279   */\n      dup1\n        /* \"#utility.yul\":6322:6324   */\n      0x40\n        /* \"#utility.yul\":6310:6319   */\n      dup4\n        /* \"#utility.yul\":6301:6308   */\n      dup6\n        /* \"#utility.yul\":6297:6320   */\n      sub\n        /* \"#utility.yul\":6293:6325   */\n      slt\n        /* \"#utility.yul\":6290:6409   */\n      iszero\n      tag_415\n      jumpi\n        /* \"#utility.yul\":6328:6407   */\n      tag_416\n      tag_269\n      jump\t// in\n    tag_416:\n        /* \"#utility.yul\":6290:6409   */\n    tag_415:\n        /* \"#utility.yul\":6448:6449   */\n      0x00\n        /* \"#utility.yul\":6473:6526   */\n      tag_417\n        /* \"#utility.yul\":6518:6525   */\n      dup6\n        /* \"#utility.yul\":6509:6515   */\n      dup3\n        /* \"#utility.yul\":6498:6507   */\n      dup7\n        /* \"#utility.yul\":6494:6516   */\n      add\n        /* \"#utility.yul\":6473:6526   */\n      tag_273\n      jump\t// in\n    tag_417:\n        /* \"#utility.yul\":6463:6526   */\n      swap3\n      pop\n        /* \"#utility.yul\":6419:6536   */\n      pop\n        /* \"#utility.yul\":6575:6577   */\n      0x20\n        /* \"#utility.yul\":6601:6669   */\n      tag_418\n        /* \"#utility.yul\":6661:6668   */\n      dup6\n        /* \"#utility.yul\":6652:6658   */\n      dup3\n        /* \"#utility.yul\":6641:6650   */\n      dup7\n        /* \"#utility.yul\":6637:6659   */\n      add\n        /* \"#utility.yul\":6601:6669   */\n      tag_282\n      jump\t// in\n    tag_418:\n        /* \"#utility.yul\":6591:6669   */\n      swap2\n      pop\n        /* \"#utility.yul\":6546:6679   */\n      pop\n        /* \"#utility.yul\":6182:6686   */\n      swap3\n      pop\n      swap3\n      swap1\n      pop\n      jump\t// out\n        /* \"#utility.yul\":6692:7051   */\n    tag_58:\n        /* \"#utility.yul\":6766:6772   */\n      0x00\n        /* \"#utility.yul\":6815:6817   */\n      0x20\n        /* \"#utility.yul\":6803:6812   */\n      dup3\n        /* \"#utility.yul\":6794:6801   */\n      dup5\n        /* \"#utility.yul\":6790:6813   */\n      sub\n        /* \"#utility.yul\":6786:6818   */\n      slt\n        /* \"#utility.yul\":6783:6902   */\n      iszero\n      tag_420\n      jumpi\n        /* \"#utility.yul\":6821:6900   */\n      tag_421\n      tag_269\n      jump\t// in\n    tag_421:\n        /* \"#utility.yul\":6783:6902   */\n    tag_420:\n        /* \"#utility.yul\":6941:6942   */\n      0x00\n        /* \"#utility.yul\":6966:7034   */\n      tag_422\n        /* \"#utility.yul\":7026:7033   */\n      dup5\n        /* \"#utility.yul\":7017:7023   */\n      dup3\n        /* \"#utility.yul\":7006:7015   */\n      dup6\n        /* \"#utility.yul\":7002:7024   */\n      add\n        /* \"#utility.yul\":6966:7034   */\n      tag_282\n      jump\t// in\n    tag_422:\n        /* \"#utility.yul\":6956:7034   */\n      swap2\n      pop\n        /* \"#utility.yul\":6912:7044   */\n      pop\n        /* \"#utility.yul\":6692:7051   */\n      swap3\n      swap2\n      pop\n      pop\n      jump\t// out\n        /* \"#utility.yul\":7057:7205   */\n    tag_292:\n        /* \"#utility.yul\":7129:7138   */\n      0x00\n        /* \"#utility.yul\":7162:7199   */\n      tag_424\n        /* \"#utility.yul\":7193:7198   */\n      dup3\n        /* \"#utility.yul\":7162:7199   */\n      tag_289\n      jump\t// in\n    tag_424:\n        /* \"#utility.yul\":7149:7199   */\n      swap1\n      pop\n        /* \"#utility.yul\":7057:7205   */\n      swap2\n      swap1\n      pop\n      jump\t// out\n        /* \"#utility.yul\":7211:7386   */\n    tag_293:\n        /* \"#utility.yul\":7320:7379   */\n      tag_426\n        /* \"#utility.yul\":7373:7378   */\n      dup2\n        /* \"#utility.yul\":7320:7379   */\n      tag_292\n      jump\t// in\n    tag_426:\n        /* \"#utility.yul\":7315:7318   */\n      dup3\n        /* \"#utility.yul\":7308:7380   */\n      mstore\n        /* \"#utility.yul\":7211:7386   */\n      pop\n      pop\n      jump\t// out\n        /* \"#utility.yul\":7392:7878   */\n    tag_61:\n        /* \"#utility.yul\":7563:7567   */\n      0x00\n        /* \"#utility.yul\":7601:7603   */\n      0x60\n        /* \"#utility.yul\":7590:7599   */\n      dup3\n        /* \"#utility.yul\":7586:7604   */\n      add\n        /* \"#utility.yul\":7578:7604   */\n      swap1\n      pop\n        /* \"#utility.yul\":7614:7707   */\n      tag_428\n        /* \"#utility.yul\":7704:7705   */\n      0x00\n        /* \"#utility.yul\":7693:7702   */\n      dup4\n        /* \"#utility.yul\":7689:7706   */\n      add\n        /* \"#utility.yul\":7680:7686   */\n      dup7\n        /* \"#utility.yul\":7614:7707   */\n      tag_293\n      jump\t// in\n    tag_428:\n        /* \"#utility.yul\":7717:7789   */\n      tag_429\n        /* \"#utility.yul\":7785:7787   */\n      0x20\n        /* \"#utility.yul\":7774:7783   */\n      dup4\n        /* \"#utility.yul\":7770:7788   */\n      add\n        /* \"#utility.yul\":7761:7767   */\n      dup6\n        /* \"#utility.yul\":7717:7789   */\n      tag_283\n      jump\t// in\n    tag_429:\n        /* \"#utility.yul\":7799:7871   */\n      tag_430\n        /* \"#utility.yul\":7867:7869   */\n      0x40\n        /* \"#utility.yul\":7856:7865   */\n      dup4\n        /* \"#utility.yul\":7852:7870   */\n      add\n        /* \"#utility.yul\":7843:7849   */\n      dup5\n        /* \"#utility.yul\":7799:7871   */\n      tag_283\n      jump\t// in\n    tag_430:\n        /* \"#utility.yul\":7392:7878   */\n      swap5\n      swap4\n      pop\n      pop\n      pop\n      pop\n      jump\t// out\n        /* \"#utility.yul\":7884:7986   */\n    tag_294:\n        /* \"#utility.yul\":7925:7931   */\n      0x00\n        /* \"#utility.yul\":7976:7978   */\n      0x1f\n        /* \"#utility.yul\":7972:7979   */\n      not\n        /* \"#utility.yul\":7967:7969   */\n      0x1f\n        /* \"#utility.yul\":7960:7965   */\n      dup4\n        /* \"#utility.yul\":7956:7970   */\n      add\n        /* \"#utility.yul\":7952:7980   */\n      and\n        /* \"#utility.yul\":7942:7980   */\n      swap1\n      pop\n        /* \"#utility.yul\":7884:7986   */\n      swap2\n      swap1\n      pop\n      jump\t// out\n        /* \"#utility.yul\":7992:8172   */\n    tag_295:\n        /* \"#utility.yul\":8040:8117   */\n      0x4e487b7100000000000000000000000000000000000000000000000000000000\n        /* \"#utility.yul\":8037:8038   */\n      0x00\n        /* \"#utility.yul\":8030:8118   */\n      mstore\n        /* \"#utility.yul\":8137:8141   */\n      0x41\n        /* \"#utility.yul\":8134:8135   */\n      0x04\n        /* \"#utility.yul\":8127:8142   */\n      mstore\n        /* \"#utility.yul\":8161:8165   */\n      0x24\n        /* \"#utility.yul\":8158:8159   */\n      0x00\n        /* \"#utility.yul\":8151:8166   */\n      revert\n        /* \"#utility.yul\":8178:8459   */\n    tag_296:\n        /* \"#utility.yul\":8261:8288   */\n      tag_434\n        /* \"#utility.yul\":8283:8287   */\n      dup3\n        /* \"#utility.yul\":8261:8288   */\n      tag_294\n      jump\t// in\n    tag_434:\n        /* \"#utility.yul\":8253:8259   */\n      dup2\n        /* \"#utility.yul\":8249:8289   */\n      add\n        /* \"#utility.yul\":8391:8397   */\n      dup2\n        /* \"#utility.yul\":8379:8389   */\n      dup2\n        /* \"#utility.yul\":8376:8398   */\n      lt\n        /* \"#utility.yul\":8355:8373   */\n      0xffffffffffffffff\n        /* \"#utility.yul\":8343:8353   */\n      dup3\n        /* \"#utility.yul\":8340:8374   */\n      gt\n        /* \"#utility.yul\":8337:8399   */\n      or\n        /* \"#utility.yul\":8334:8422   */\n      iszero\n      tag_435\n      jumpi\n        /* \"#utility.yul\":8402:8420   */\n      tag_436\n      tag_295\n      jump\t// in\n    tag_436:\n        /* \"#utility.yul\":8334:8422   */\n    tag_435:\n        /* \"#utility.yul\":8442:8452   */\n      dup1\n        /* \"#utility.yul\":8438:8440   */\n      0x40\n        /* \"#utility.yul\":8431:8453   */\n      mstore\n        /* \"#utility.yul\":8221:8459   */\n      pop\n        /* \"#utility.yul\":8178:8459   */\n      pop\n      pop\n      jump\t// out\n        /* \"#utility.yul\":8465:8594   */\n    tag_297:\n        /* \"#utility.yul\":8499:8505   */\n      0x00\n        /* \"#utility.yul\":8526:8546   */\n      tag_438\n      tag_268\n      jump\t// in\n    tag_438:\n        /* \"#utility.yul\":8516:8546   */\n      swap1\n      pop\n        /* \"#utility.yul\":8555:8588   */\n      tag_439\n        /* \"#utility.yul\":8583:8587   */\n      dup3\n        /* \"#utility.yul\":8575:8581   */\n      dup3\n        /* \"#utility.yul\":8555:8588   */\n      tag_296\n      jump\t// in\n    tag_439:\n        /* \"#utility.yul\":8465:8594   */\n      swap2\n      swap1\n      pop\n      jump\t// out\n        /* \"#utility.yul\":8600:8911   */\n    tag_298:\n        /* \"#utility.yul\":8677:8681   */\n      0x00\n        /* \"#utility.yul\":8767:8785   */\n      0xffffffffffffffff\n        /* \"#utility.yul\":8759:8765   */\n      dup3\n        /* \"#utility.yul\":8756:8786   */\n      gt\n        /* \"#utility.yul\":8753:8809   */\n      iszero\n      tag_441\n      jumpi\n        /* \"#utility.yul\":8789:8807   */\n      tag_442\n      tag_295\n      jump\t// in\n    tag_442:\n        /* \"#utility.yul\":8753:8809   */\n    tag_441:\n        /* \"#utility.yul\":8839:8843   */\n      0x20\n        /* \"#utility.yul\":8831:8837   */\n      dup3\n        /* \"#utility.yul\":8827:8844   */\n      mul\n        /* \"#utility.yul\":8819:8844   */\n      swap1\n      pop\n        /* \"#utility.yul\":8899:8903   */\n      0x20\n        /* \"#utility.yul\":8893:8897   */\n      dup2\n        /* \"#utility.yul\":8889:8904   */\n      add\n        /* \"#utility.yul\":8881:8904   */\n      swap1\n      pop\n        /* \"#utility.yul\":8600:8911   */\n      swap2\n      swap1\n      pop\n      jump\t// out\n        /* \"#utility.yul\":8917:9039   */\n    tag_299:\n        /* \"#utility.yul\":8990:9014   */\n      tag_444\n        /* \"#utility.yul\":9008:9013   */\n      dup2\n        /* \"#utility.yul\":8990:9014   */\n      tag_279\n      jump\t// in\n    tag_444:\n        /* \"#utility.yul\":8983:8988   */\n      dup2\n        /* \"#utility.yul\":8980:9015   */\n      eq\n        /* \"#utility.yul\":8970:9033   */\n      tag_445\n      jumpi\n        /* \"#utility.yul\":9029:9030   */\n      0x00\n        /* \"#utility.yul\":9026:9027   */\n      dup1\n        /* \"#utility.yul\":9019:9031   */\n      revert\n        /* \"#utility.yul\":8970:9033   */\n    tag_445:\n        /* \"#utility.yul\":8917:9039   */\n      pop\n      jump\t// out\n        /* \"#utility.yul\":9045:9184   */\n    tag_300:\n        /* \"#utility.yul\":9091:9096   */\n      0x00\n        /* \"#utility.yul\":9129:9135   */\n      dup2\n        /* \"#utility.yul\":9116:9136   */\n      calldataload\n        /* \"#utility.yul\":9107:9136   */\n      swap1\n      pop\n        /* \"#utility.yul\":9145:9178   */\n      tag_447\n        /* \"#utility.yul\":9172:9177   */\n      dup2\n        /* \"#utility.yul\":9145:9178   */\n      tag_299\n      jump\t// in\n    tag_447:\n        /* \"#utility.yul\":9045:9184   */\n      swap3\n      swap2\n      pop\n      pop\n      jump\t// out\n        /* \"#utility.yul\":9207:9917   */\n    tag_301:\n        /* \"#utility.yul\":9303:9308   */\n      0x00\n        /* \"#utility.yul\":9328:9409   */\n      tag_449\n        /* \"#utility.yul\":9344:9408   */\n      tag_450\n        /* \"#utility.yul\":9401:9407   */\n      dup5\n        /* \"#utility.yul\":9344:9408   */\n      tag_298\n      jump\t// in\n    tag_450:\n        /* \"#utility.yul\":9328:9409   */\n      tag_297\n      jump\t// in\n    tag_449:\n        /* \"#utility.yul\":9319:9409   */\n      swap1\n      pop\n        /* \"#utility.yul\":9429:9434   */\n      dup1\n        /* \"#utility.yul\":9458:9464   */\n      dup4\n        /* \"#utility.yul\":9451:9456   */\n      dup3\n        /* \"#utility.yul\":9444:9465   */\n      mstore\n        /* \"#utility.yul\":9492:9496   */\n      0x20\n        /* \"#utility.yul\":9485:9490   */\n      dup3\n        /* \"#utility.yul\":9481:9497   */\n      add\n        /* \"#utility.yul\":9474:9497   */\n      swap1\n      pop\n        /* \"#utility.yul\":9545:9549   */\n      0x20\n        /* \"#utility.yul\":9537:9543   */\n      dup5\n        /* \"#utility.yul\":9533:9550   */\n      mul\n        /* \"#utility.yul\":9525:9531   */\n      dup4\n        /* \"#utility.yul\":9521:9551   */\n      add\n        /* \"#utility.yul\":9574:9577   */\n      dup6\n        /* \"#utility.yul\":9566:9572   */\n      dup2\n        /* \"#utility.yul\":9563:9578   */\n      gt\n        /* \"#utility.yul\":9560:9682   */\n      iszero\n      tag_451\n      jumpi\n        /* \"#utility.yul\":9593:9672   */\n      tag_452\n      tag_276\n      jump\t// in\n    tag_452:\n        /* \"#utility.yul\":9560:9682   */\n    tag_451:\n        /* \"#utility.yul\":9708:9714   */\n      dup4\n        /* \"#utility.yul\":9691:9911   */\n    tag_453:\n        /* \"#utility.yul\":9725:9731   */\n      dup2\n        /* \"#utility.yul\":9720:9723   */\n      dup2\n        /* \"#utility.yul\":9717:9732   */\n      lt\n        /* \"#utility.yul\":9691:9911   */\n      iszero\n      tag_455\n      jumpi\n        /* \"#utility.yul\":9800:9803   */\n      dup1\n        /* \"#utility.yul\":9829:9866   */\n      tag_456\n        /* \"#utility.yul\":9862:9865   */\n      dup9\n        /* \"#utility.yul\":9850:9860   */\n      dup3\n        /* \"#utility.yul\":9829:9866   */\n      tag_300\n      jump\t// in\n    tag_456:\n        /* \"#utility.yul\":9824:9827   */\n      dup5\n        /* \"#utility.yul\":9817:9867   */\n      mstore\n        /* \"#utility.yul\":9896:9900   */\n      0x20\n        /* \"#utility.yul\":9891:9894   */\n      dup5\n        /* \"#utility.yul\":9887:9901   */\n      add\n        /* \"#utility.yul\":9880:9901   */\n      swap4\n      pop\n        /* \"#utility.yul\":9767:9911   */\n      pop\n        /* \"#utility.yul\":9751:9755   */\n      0x20\n        /* \"#utility.yul\":9746:9749   */\n      dup2\n        /* \"#utility.yul\":9742:9756   */\n      add\n        /* \"#utility.yul\":9735:9756   */\n      swap1\n      pop\n        /* \"#utility.yul\":9691:9911   */\n      jump(tag_453)\n    tag_455:\n        /* \"#utility.yul\":9695:9716   */\n      pop\n        /* \"#utility.yul\":9309:9917   */\n      pop\n      pop\n        /* \"#utility.yul\":9207:9917   */\n      swap4\n      swap3\n      pop\n      pop\n      pop\n      jump\t// out\n        /* \"#utility.yul\":9940:10310   */\n    tag_302:\n        /* \"#utility.yul\":10011:10016   */\n      0x00\n        /* \"#utility.yul\":10060:10063   */\n      dup3\n        /* \"#utility.yul\":10053:10057   */\n      0x1f\n        /* \"#utility.yul\":10045:10051   */\n      dup4\n        /* \"#utility.yul\":10041:10058   */\n      add\n        /* \"#utility.yul\":10037:10064   */\n      slt\n        /* \"#utility.yul\":10027:10149   */\n      tag_458\n      jumpi\n        /* \"#utility.yul\":10068:10147   */\n      tag_459\n      tag_274\n      jump\t// in\n    tag_459:\n        /* \"#utility.yul\":10027:10149   */\n    tag_458:\n        /* \"#utility.yul\":10185:10191   */\n      dup2\n        /* \"#utility.yul\":10172:10192   */\n      calldataload\n        /* \"#utility.yul\":10210:10304   */\n      tag_460\n        /* \"#utility.yul\":10300:10303   */\n      dup5\n        /* \"#utility.yul\":10292:10298   */\n      dup3\n        /* \"#utility.yul\":10285:10289   */\n      0x20\n        /* \"#utility.yul\":10277:10283   */\n      dup7\n        /* \"#utility.yul\":10273:10290   */\n      add\n        /* \"#utility.yul\":10210:10304   */\n      tag_301\n      jump\t// in\n    tag_460:\n        /* \"#utility.yul\":10201:10304   */\n      swap2\n      pop\n        /* \"#utility.yul\":10017:10310   */\n      pop\n        /* \"#utility.yul\":9940:10310   */\n      swap3\n      swap2\n      pop\n      pop\n      jump\t// out\n        /* \"#utility.yul\":10316:10627   */\n    tag_303:\n        /* \"#utility.yul\":10393:10397   */\n      0x00\n        /* \"#utility.yul\":10483:10501   */\n      0xffffffffffffffff\n        /* \"#utility.yul\":10475:10481   */\n      dup3\n        /* \"#utility.yul\":10472:10502   */\n      gt\n        /* \"#utility.yul\":10469:10525   */\n      iszero\n      tag_462\n      jumpi\n        /* \"#utility.yul\":10505:10523   */\n      tag_463\n      tag_295\n      jump\t// in\n    tag_463:\n        /* \"#utility.yul\":10469:10525   */\n    tag_462:\n        /* \"#utility.yul\":10555:10559   */\n      0x20\n        /* \"#utility.yul\":10547:10553   */\n      dup3\n        /* \"#utility.yul\":10543:10560   */\n      mul\n        /* \"#utility.yul\":10535:10560   */\n      swap1\n      pop\n        /* \"#utility.yul\":10615:10619   */\n      0x20\n        /* \"#utility.yul\":10609:10613   */\n      dup2\n        /* \"#utility.yul\":10605:10620   */\n      add\n        /* \"#utility.yul\":10597:10620   */\n      swap1\n      pop\n        /* \"#utility.yul\":10316:10627   */\n      swap2\n      swap1\n      pop\n      jump\t// out\n        /* \"#utility.yul\":10650:11360   */\n    tag_304:\n        /* \"#utility.yul\":10746:10751   */\n      0x00\n        /* \"#utility.yul\":10771:10852   */\n      tag_465\n        /* \"#utility.yul\":10787:10851   */\n      tag_466\n        /* \"#utility.yul\":10844:10850   */\n      dup5\n        /* \"#utility.yul\":10787:10851   */\n      tag_303\n      jump\t// in\n    tag_466:\n        /* \"#utility.yul\":10771:10852   */\n      tag_297\n      jump\t// in\n    tag_465:\n        /* \"#utility.yul\":10762:10852   */\n      swap1\n      pop\n        /* \"#utility.yul\":10872:10877   */\n      dup1\n        /* \"#utility.yul\":10901:10907   */\n      dup4\n        /* \"#utility.yul\":10894:10899   */\n      dup3\n        /* \"#utility.yul\":10887:10908   */\n      mstore\n        /* \"#utility.yul\":10935:10939   */\n      0x20\n        /* \"#utility.yul\":10928:10933   */\n      dup3\n        /* \"#utility.yul\":10924:10940   */\n      add\n        /* \"#utility.yul\":10917:10940   */\n      swap1\n      pop\n        /* \"#utility.yul\":10988:10992   */\n      0x20\n        /* \"#utility.yul\":10980:10986   */\n      dup5\n        /* \"#utility.yul\":10976:10993   */\n      mul\n        /* \"#utility.yul\":10968:10974   */\n      dup4\n        /* \"#utility.yul\":10964:10994   */\n      add\n        /* \"#utility.yul\":11017:11020   */\n      dup6\n        /* \"#utility.yul\":11009:11015   */\n      dup2\n        /* \"#utility.yul\":11006:11021   */\n      gt\n        /* \"#utility.yul\":11003:11125   */\n      iszero\n      tag_467\n      jumpi\n        /* \"#utility.yul\":11036:11115   */\n      tag_468\n      tag_276\n      jump\t// in\n    tag_468:\n        /* \"#utility.yul\":11003:11125   */\n    tag_467:\n        /* \"#utility.yul\":11151:11157   */\n      dup4\n        /* \"#utility.yul\":11134:11354   */\n    tag_469:\n        /* \"#utility.yul\":11168:11174   */\n      dup2\n        /* \"#utility.yul\":11163:11166   */\n      dup2\n        /* \"#utility.yul\":11160:11175   */\n      lt\n        /* \"#utility.yul\":11134:11354   */\n      iszero\n      tag_471\n      jumpi\n        /* \"#utility.yul\":11243:11246   */\n      dup1\n        /* \"#utility.yul\":11272:11309   */\n      tag_472\n        /* \"#utility.yul\":11305:11308   */\n      dup9\n        /* \"#utility.yul\":11293:11303   */\n      dup3\n        /* \"#utility.yul\":11272:11309   */\n      tag_273\n      jump\t// in\n    tag_472:\n        /* \"#utility.yul\":11267:11270   */\n      dup5\n        /* \"#utility.yul\":11260:11310   */\n      mstore\n        /* \"#utility.yul\":11339:11343   */\n      0x20\n        /* \"#utility.yul\":11334:11337   */\n      dup5\n        /* \"#utility.yul\":11330:11344   */\n      add\n        /* \"#utility.yul\":11323:11344   */\n      swap4\n      pop\n        /* \"#utility.yul\":11210:11354   */\n      pop\n        /* \"#utility.yul\":11194:11198   */\n      0x20\n        /* \"#utility.yul\":11189:11192   */\n      dup2\n        /* \"#utility.yul\":11185:11199   */\n      add\n        /* \"#utility.yul\":11178:11199   */\n      swap1\n      pop\n        /* \"#utility.yul\":11134:11354   */\n      jump(tag_469)\n    tag_471:\n        /* \"#utility.yul\":11138:11159   */\n      pop\n        /* \"#utility.yul\":10752:11360   */\n      pop\n      pop\n        /* \"#utility.yul\":10650:11360   */\n      swap4\n      swap3\n      pop\n      pop\n      pop\n      jump\t// out\n        /* \"#utility.yul\":11383:11753   */\n    tag_305:\n        /* \"#utility.yul\":11454:11459   */\n      0x00\n        /* \"#utility.yul\":11503:11506   */\n      dup3\n        /* \"#utility.yul\":11496:11500   */\n      0x1f\n        /* \"#utility.yul\":11488:11494   */\n      dup4\n        /* \"#utility.yul\":11484:11501   */\n      add\n        /* \"#utility.yul\":11480:11507   */\n      slt\n        /* \"#utility.yul\":11470:11592   */\n      tag_474\n      jumpi\n        /* \"#utility.yul\":11511:11590   */\n      tag_475\n      tag_274\n      jump\t// in\n    tag_475:\n        /* \"#utility.yul\":11470:11592   */\n    tag_474:\n        /* \"#utility.yul\":11628:11634   */\n      dup2\n        /* \"#utility.yul\":11615:11635   */\n      calldataload\n        /* \"#utility.yul\":11653:11747   */\n      tag_476\n        /* \"#utility.yul\":11743:11746   */\n      dup5\n        /* \"#utility.yul\":11735:11741   */\n      dup3\n        /* \"#utility.yul\":11728:11732   */\n      0x20\n        /* \"#utility.yul\":11720:11726   */\n      dup7\n        /* \"#utility.yul\":11716:11733   */\n      add\n        /* \"#utility.yul\":11653:11747   */\n      tag_304\n      jump\t// in\n    tag_476:\n        /* \"#utility.yul\":11644:11747   */\n      swap2\n      pop\n        /* \"#utility.yul\":11460:11753   */\n      pop\n        /* \"#utility.yul\":11383:11753   */\n      swap3\n      swap2\n      pop\n      pop\n      jump\t// out\n        /* \"#utility.yul\":11759:13364   */\n    tag_64:\n        /* \"#utility.yul\":11945:11951   */\n      0x00\n        /* \"#utility.yul\":11953:11959   */\n      dup1\n        /* \"#utility.yul\":11961:11967   */\n      0x00\n        /* \"#utility.yul\":11969:11975   */\n      dup1\n        /* \"#utility.yul\":12018:12021   */\n      0x80\n        /* \"#utility.yul\":12006:12015   */\n      dup6\n        /* \"#utility.yul\":11997:12004   */\n      dup8\n        /* \"#utility.yul\":11993:12016   */\n      sub\n        /* \"#utility.yul\":11989:12022   */\n      slt\n        /* \"#utility.yul\":11986:12106   */\n      iszero\n      tag_478\n      jumpi\n        /* \"#utility.yul\":12025:12104   */\n      tag_479\n      tag_269\n      jump\t// in\n    tag_479:\n        /* \"#utility.yul\":11986:12106   */\n    tag_478:\n        /* \"#utility.yul\":12173:12174   */\n      0x00\n        /* \"#utility.yul\":12162:12171   */\n      dup6\n        /* \"#utility.yul\":12158:12175   */\n      add\n        /* \"#utility.yul\":12145:12176   */\n      calldataload\n        /* \"#utility.yul\":12203:12221   */\n      0xffffffffffffffff\n        /* \"#utility.yul\":12195:12201   */\n      dup2\n        /* \"#utility.yul\":12192:12222   */\n      gt\n        /* \"#utility.yul\":12189:12306   */\n      iszero\n      tag_480\n      jumpi\n        /* \"#utility.yul\":12225:12304   */\n      tag_481\n      tag_270\n      jump\t// in\n    tag_481:\n        /* \"#utility.yul\":12189:12306   */\n    tag_480:\n        /* \"#utility.yul\":12330:12408   */\n      tag_482\n        /* \"#utility.yul\":12400:12407   */\n      dup8\n        /* \"#utility.yul\":12391:12397   */\n      dup3\n        /* \"#utility.yul\":12380:12389   */\n      dup9\n        /* \"#utility.yul\":12376:12398   */\n      add\n        /* \"#utility.yul\":12330:12408   */\n      tag_302\n      jump\t// in\n    tag_482:\n        /* \"#utility.yul\":12320:12408   */\n      swap5\n      pop\n        /* \"#utility.yul\":12116:12418   */\n      pop\n        /* \"#utility.yul\":12485:12487   */\n      0x20\n        /* \"#utility.yul\":12474:12483   */\n      dup6\n        /* \"#utility.yul\":12470:12488   */\n      add\n        /* \"#utility.yul\":12457:12489   */\n      calldataload\n        /* \"#utility.yul\":12516:12534   */\n      0xffffffffffffffff\n        /* \"#utility.yul\":12508:12514   */\n      dup2\n        /* \"#utility.yul\":12505:12535   */\n      gt\n        /* \"#utility.yul\":12502:12619   */\n      iszero\n      tag_483\n      jumpi\n        /* \"#utility.yul\":12538:12617   */\n      tag_484\n      tag_270\n      jump\t// in\n    tag_484:\n        /* \"#utility.yul\":12502:12619   */\n    tag_483:\n        /* \"#utility.yul\":12643:12721   */\n      tag_485\n        /* \"#utility.yul\":12713:12720   */\n      dup8\n        /* \"#utility.yul\":12704:12710   */\n      dup3\n        /* \"#utility.yul\":12693:12702   */\n      dup9\n        /* \"#utility.yul\":12689:12711   */\n      add\n        /* \"#utility.yul\":12643:12721   */\n      tag_302\n      jump\t// in\n    tag_485:\n        /* \"#utility.yul\":12633:12721   */\n      swap4\n      pop\n        /* \"#utility.yul\":12428:12731   */\n      pop\n        /* \"#utility.yul\":12798:12800   */\n      0x40\n        /* \"#utility.yul\":12787:12796   */\n      dup6\n        /* \"#utility.yul\":12783:12801   */\n      add\n        /* \"#utility.yul\":12770:12802   */\n      calldataload\n        /* \"#utility.yul\":12829:12847   */\n      0xffffffffffffffff\n        /* \"#utility.yul\":12821:12827   */\n      dup2\n        /* \"#utility.yul\":12818:12848   */\n      gt\n        /* \"#utility.yul\":12815:12932   */\n      iszero\n      tag_486\n      jumpi\n        /* \"#utility.yul\":12851:12930   */\n      tag_487\n      tag_270\n      jump\t// in\n    tag_487:\n        /* \"#utility.yul\":12815:12932   */\n    tag_486:\n        /* \"#utility.yul\":12956:13034   */\n      tag_488\n        /* \"#utility.yul\":13026:13033   */\n      dup8\n        /* \"#utility.yul\":13017:13023   */\n      dup3\n        /* \"#utility.yul\":13006:13015   */\n      dup9\n        /* \"#utility.yul\":13002:13024   */\n      add\n        /* \"#utility.yul\":12956:13034   */\n      tag_305\n      jump\t// in\n    tag_488:\n        /* \"#utility.yul\":12946:13034   */\n      swap3\n      pop\n        /* \"#utility.yul\":12741:13044   */\n      pop\n        /* \"#utility.yul\":13111:13113   */\n      0x60\n        /* \"#utility.yul\":13100:13109   */\n      dup6\n        /* \"#utility.yul\":13096:13114   */\n      add\n        /* \"#utility.yul\":13083:13115   */\n      calldataload\n        /* \"#utility.yul\":13142:13160   */\n      0xffffffffffffffff\n        /* \"#utility.yul\":13134:13140   */\n      dup2\n        /* \"#utility.yul\":13131:13161   */\n      gt\n        /* \"#utility.yul\":13128:13245   */\n      iszero\n      tag_489\n      jumpi\n        /* \"#utility.yul\":13164:13243   */\n      tag_490\n      tag_270\n      jump\t// in\n    tag_490:\n        /* \"#utility.yul\":13128:13245   */\n    tag_489:\n        /* \"#utility.yul\":13269:13347   */\n      tag_491\n        /* \"#utility.yul\":13339:13346   */\n      dup8\n        /* \"#utility.yul\":13330:13336   */\n      dup3\n        /* \"#utility.yul\":13319:13328   */\n      dup9\n        /* \"#utility.yul\":13315:13337   */\n      add\n        /* \"#utility.yul\":13269:13347   */\n      tag_305\n      jump\t// in\n    tag_491:\n        /* \"#utility.yul\":13259:13347   */\n      swap2\n      pop\n        /* \"#utility.yul\":13054:13357   */\n      pop\n        /* \"#utility.yul\":11759:13364   */\n      swap3\n      swap6\n      swap2\n      swap5\n      pop\n      swap3\n      pop\n      jump\t// out\n        /* \"#utility.yul\":13370:13699   */\n    tag_68:\n        /* \"#utility.yul\":13429:13435   */\n      0x00\n        /* \"#utility.yul\":13478:13480   */\n      0x20\n        /* \"#utility.yul\":13466:13475   */\n      dup3\n        /* \"#utility.yul\":13457:13464   */\n      dup5\n        /* \"#utility.yul\":13453:13476   */\n      sub\n        /* \"#utility.yul\":13449:13481   */\n      slt\n        /* \"#utility.yul\":13446:13565   */\n      iszero\n      tag_493\n      jumpi\n        /* \"#utility.yul\":13484:13563   */\n      tag_494\n      tag_269\n      jump\t// in\n    tag_494:\n        /* \"#utility.yul\":13446:13565   */\n    tag_493:\n        /* \"#utility.yul\":13604:13605   */\n      0x00\n        /* \"#utility.yul\":13629:13682   */\n      tag_495\n        /* \"#utility.yul\":13674:13681   */\n      dup5\n        /* \"#utility.yul\":13665:13671   */\n      dup3\n        /* \"#utility.yul\":13654:13663   */\n      dup6\n        /* \"#utility.yul\":13650:13672   */\n      add\n        /* \"#utility.yul\":13629:13682   */\n      tag_300\n      jump\t// in\n    tag_495:\n        /* \"#utility.yul\":13619:13682   */\n      swap2\n      pop\n        /* \"#utility.yul\":13575:13692   */\n      pop\n        /* \"#utility.yul\":13370:13699   */\n      swap3\n      swap2\n      pop\n      pop\n      jump\t// out\n        /* \"#utility.yul\":13705:13874   */\n    tag_306:\n        /* \"#utility.yul\":13789:13800   */\n      0x00\n        /* \"#utility.yul\":13823:13829   */\n      dup3\n        /* \"#utility.yul\":13818:13821   */\n      dup3\n        /* \"#utility.yul\":13811:13830   */\n      mstore\n        /* \"#utility.yul\":13863:13867   */\n      0x20\n        /* \"#utility.yul\":13858:13861   */\n      dup3\n        /* \"#utility.yul\":13854:13868   */\n      add\n        /* \"#utility.yul\":13839:13868   */\n      swap1\n      pop\n        /* \"#utility.yul\":13705:13874   */\n      swap3\n      swap2\n      pop\n      pop\n      jump\t// out\n        /* \"#utility.yul\":13880:14050   */\n    tag_307:\n        /* \"#utility.yul\":14020:14042   */\n      0x496e76616c6964206c6f636b20706572696f642e000000000000000000000000\n        /* \"#utility.yul\":14016:14017   */\n      0x00\n        /* \"#utility.yul\":14008:14014   */\n      dup3\n        /* \"#utility.yul\":14004:14018   */\n      add\n        /* \"#utility.yul\":13997:14043   */\n      mstore\n        /* \"#utility.yul\":13880:14050   */\n      pop\n      jump\t// out\n        /* \"#utility.yul\":14056:14422   */\n    tag_308:\n        /* \"#utility.yul\":14198:14201   */\n      0x00\n        /* \"#utility.yul\":14219:14286   */\n      tag_499\n        /* \"#utility.yul\":14283:14285   */\n      0x14\n        /* \"#utility.yul\":14278:14281   */\n      dup4\n        /* \"#utility.yul\":14219:14286   */\n      tag_306\n      jump\t// in\n    tag_499:\n        /* \"#utility.yul\":14212:14286   */\n      swap2\n      pop\n        /* \"#utility.yul\":14295:14388   */\n      tag_500\n        /* \"#utility.yul\":14384:14387   */\n      dup3\n        /* \"#utility.yul\":14295:14388   */\n      tag_307\n      jump\t// in\n    tag_500:\n        /* \"#utility.yul\":14413:14415   */\n      0x20\n        /* \"#utility.yul\":14408:14411   */\n      dup3\n        /* \"#utility.yul\":14404:14416   */\n      add\n        /* \"#utility.yul\":14397:14416   */\n      swap1\n      pop\n        /* \"#utility.yul\":14056:14422   */\n      swap2\n      swap1\n      pop\n      jump\t// out\n        /* \"#utility.yul\":14428:14847   */\n    tag_76:\n        /* \"#utility.yul\":14594:14598   */\n      0x00\n        /* \"#utility.yul\":14632:14634   */\n      0x20\n        /* \"#utility.yul\":14621:14630   */\n      dup3\n        /* \"#utility.yul\":14617:14635   */\n      add\n        /* \"#utility.yul\":14609:14635   */\n      swap1\n      pop\n        /* \"#utility.yul\":14681:14690   */\n      dup2\n        /* \"#utility.yul\":14675:14679   */\n      dup2\n        /* \"#utility.yul\":14671:14691   */\n      sub\n        /* \"#utility.yul\":14667:14668   */\n      0x00\n        /* \"#utility.yul\":14656:14665   */\n      dup4\n        /* \"#utility.yul\":14652:14669   */\n      add\n        /* \"#utility.yul\":14645:14692   */\n      mstore\n        /* \"#utility.yul\":14709:14840   */\n      tag_502\n        /* \"#utility.yul\":14835:14839   */\n      dup2\n        /* \"#utility.yul\":14709:14840   */\n      tag_308\n      jump\t// in\n    tag_502:\n        /* \"#utility.yul\":14701:14840   */\n      swap1\n      pop\n        /* \"#utility.yul\":14428:14847   */\n      swap2\n      swap1\n      pop\n      jump\t// out\n        /* \"#utility.yul\":14853:15023   */\n    tag_309:\n        /* \"#utility.yul\":14993:15015   */\n      0x436f6e7472616374206e6f7420616c6c6f776564000000000000000000000000\n        /* \"#utility.yul\":14989:14990   */\n      0x00\n        /* \"#utility.yul\":14981:14987   */\n      dup3\n        /* \"#utility.yul\":14977:14991   */\n      add\n        /* \"#utility.yul\":14970:15016   */\n      mstore\n        /* \"#utility.yul\":14853:15023   */\n      pop\n      jump\t// out\n        /* \"#utility.yul\":15029:15395   */\n    tag_310:\n        /* \"#utility.yul\":15171:15174   */\n      0x00\n        /* \"#utility.yul\":15192:15259   */\n      tag_505\n        /* \"#utility.yul\":15256:15258   */\n      0x14\n        /* \"#utility.yul\":15251:15254   */\n      dup4\n        /* \"#utility.yul\":15192:15259   */\n      tag_306\n      jump\t// in\n    tag_505:\n        /* \"#utility.yul\":15185:15259   */\n      swap2\n      pop\n        /* \"#utility.yul\":15268:15361   */\n      tag_506\n        /* \"#utility.yul\":15357:15360   */\n      dup3\n        /* \"#utility.yul\":15268:15361   */\n      tag_309\n      jump\t// in\n    tag_506:\n        /* \"#utility.yul\":15386:15388   */\n      0x20\n        /* \"#utility.yul\":15381:15384   */\n      dup3\n        /* \"#utility.yul\":15377:15389   */\n      add\n        /* \"#utility.yul\":15370:15389   */\n      swap1\n      pop\n        /* \"#utility.yul\":15029:15395   */\n      swap2\n      swap1\n      pop\n      jump\t// out\n        /* \"#utility.yul\":15401:15820   */\n    tag_83:\n        /* \"#utility.yul\":15567:15571   */\n      0x00\n        /* \"#utility.yul\":15605:15607   */\n      0x20\n        /* \"#utility.yul\":15594:15603   */\n      dup3\n        /* \"#utility.yul\":15590:15608   */\n      add\n        /* \"#utility.yul\":15582:15608   */\n      swap1\n      pop\n        /* \"#utility.yul\":15654:15663   */\n      dup2\n        /* \"#utility.yul\":15648:15652   */\n      dup2\n        /* \"#utility.yul\":15644:15664   */\n      sub\n        /* \"#utility.yul\":15640:15641   */\n      0x00\n        /* \"#utility.yul\":15629:15638   */\n      dup4\n        /* \"#utility.yul\":15625:15642   */\n      add\n        /* \"#utility.yul\":15618:15665   */\n      mstore\n        /* \"#utility.yul\":15682:15813   */\n      tag_508\n        /* \"#utility.yul\":15808:15812   */\n      dup2\n        /* \"#utility.yul\":15682:15813   */\n      tag_310\n      jump\t// in\n    tag_508:\n        /* \"#utility.yul\":15674:15813   */\n      swap1\n      pop\n        /* \"#utility.yul\":15401:15820   */\n      swap2\n      swap1\n      pop\n      jump\t// out\n        /* \"#utility.yul\":15826:16002   */\n    tag_311:\n        /* \"#utility.yul\":15966:15994   */\n      0x50726f787920636f6e7472616374206e6f7420616c6c6f776564000000000000\n        /* \"#utility.yul\":15962:15963   */\n      0x00\n        /* \"#utility.yul\":15954:15960   */\n      dup3\n        /* \"#utility.yul\":15950:15964   */\n      add\n        /* \"#utility.yul\":15943:15995   */\n      mstore\n        /* \"#utility.yul\":15826:16002   */\n      pop\n      jump\t// out\n        /* \"#utility.yul\":16008:16374   */\n    tag_312:\n        /* \"#utility.yul\":16150:16153   */\n      0x00\n        /* \"#utility.yul\":16171:16238   */\n      tag_511\n        /* \"#utility.yul\":16235:16237   */\n      0x1a\n        /* \"#utility.yul\":16230:16233   */\n      dup4\n        /* \"#utility.yul\":16171:16238   */\n      tag_306\n      jump\t// in\n    tag_511:\n        /* \"#utility.yul\":16164:16238   */\n      swap2\n      pop\n        /* \"#utility.yul\":16247:16340   */\n      tag_512\n        /* \"#utility.yul\":16336:16339   */\n      dup3\n        /* \"#utility.yul\":16247:16340   */\n      tag_311\n      jump\t// in\n    tag_512:\n        /* \"#utility.yul\":16365:16367   */\n      0x20\n        /* \"#utility.yul\":16360:16363   */\n      dup3\n        /* \"#utility.yul\":16356:16368   */\n      add\n        /* \"#utility.yul\":16349:16368   */\n      swap1\n      pop\n        /* \"#utility.yul\":16008:16374   */\n      swap2\n      swap1\n      pop\n      jump\t// out\n        /* \"#utility.yul\":16380:16799   */\n    tag_86:\n        /* \"#utility.yul\":16546:16550   */\n      0x00\n        /* \"#utility.yul\":16584:16586   */\n      0x20\n        /* \"#utility.yul\":16573:16582   */\n      dup3\n        /* \"#utility.yul\":16569:16587   */\n      add\n        /* \"#utility.yul\":16561:16587   */\n      swap1\n      pop\n        /* \"#utility.yul\":16633:16642   */\n      dup2\n        /* \"#utility.yul\":16627:16631   */\n      dup2\n        /* \"#utility.yul\":16623:16643   */\n      sub\n        /* \"#utility.yul\":16619:16620   */\n      0x00\n        /* \"#utility.yul\":16608:16617   */\n      dup4\n        /* \"#utility.yul\":16604:16621   */\n      add\n        /* \"#utility.yul\":16597:16644   */\n      mstore\n        /* \"#utility.yul\":16661:16792   */\n      tag_514\n        /* \"#utility.yul\":16787:16791   */\n      dup2\n        /* \"#utility.yul\":16661:16792   */\n      tag_312\n      jump\t// in\n    tag_514:\n        /* \"#utility.yul\":16653:16792   */\n      swap1\n      pop\n        /* \"#utility.yul\":16380:16799   */\n      swap2\n      swap1\n      pop\n      jump\t// out\n        /* \"#utility.yul\":16805:17038   */\n    tag_313:\n        /* \"#utility.yul\":16945:16979   */\n      0x5374616b696e673a20526567697374657220636f6c6c656374696f6e20627920\n        /* \"#utility.yul\":16941:16942   */\n      0x00\n        /* \"#utility.yul\":16933:16939   */\n      dup3\n        /* \"#utility.yul\":16929:16943   */\n      add\n        /* \"#utility.yul\":16922:16980   */\n      mstore\n        /* \"#utility.yul\":17014:17030   */\n      0x6164645374616b696e674e667473000000000000000000000000000000000000\n        /* \"#utility.yul\":17009:17011   */\n      0x20\n        /* \"#utility.yul\":17001:17007   */\n      dup3\n        /* \"#utility.yul\":16997:17012   */\n      add\n        /* \"#utility.yul\":16990:17031   */\n      mstore\n        /* \"#utility.yul\":16805:17038   */\n      pop\n      jump\t// out\n        /* \"#utility.yul\":17044:17410   */\n    tag_314:\n        /* \"#utility.yul\":17186:17189   */\n      0x00\n        /* \"#utility.yul\":17207:17274   */\n      tag_517\n        /* \"#utility.yul\":17271:17273   */\n      0x2e\n        /* \"#utility.yul\":17266:17269   */\n      dup4\n        /* \"#utility.yul\":17207:17274   */\n      tag_306\n      jump\t// in\n    tag_517:\n        /* \"#utility.yul\":17200:17274   */\n      swap2\n      pop\n        /* \"#utility.yul\":17283:17376   */\n      tag_518\n        /* \"#utility.yul\":17372:17375   */\n      dup3\n        /* \"#utility.yul\":17283:17376   */\n      tag_313\n      jump\t// in\n    tag_518:\n        /* \"#utility.yul\":17401:17403   */\n      0x40\n        /* \"#utility.yul\":17396:17399   */\n      dup3\n        /* \"#utility.yul\":17392:17404   */\n      add\n        /* \"#utility.yul\":17385:17404   */\n      swap1\n      pop\n        /* \"#utility.yul\":17044:17410   */\n      swap2\n      swap1\n      pop\n      jump\t// out\n        /* \"#utility.yul\":17416:17835   */\n    tag_90:\n        /* \"#utility.yul\":17582:17586   */\n      0x00\n        /* \"#utility.yul\":17620:17622   */\n      0x20\n        /* \"#utility.yul\":17609:17618   */\n      dup3\n        /* \"#utility.yul\":17605:17623   */\n      add\n        /* \"#utility.yul\":17597:17623   */\n      swap1\n      pop\n        /* \"#utility.yul\":17669:17678   */\n      dup2\n        /* \"#utility.yul\":17663:17667   */\n      dup2\n        /* \"#utility.yul\":17659:17679   */\n      sub\n        /* \"#utility.yul\":17655:17656   */\n      0x00\n        /* \"#utility.yul\":17644:17653   */\n      dup4\n        /* \"#utility.yul\":17640:17657   */\n      add\n        /* \"#utility.yul\":17633:17680   */\n      mstore\n        /* \"#utility.yul\":17697:17828   */\n      tag_520\n        /* \"#utility.yul\":17823:17827   */\n      dup2\n        /* \"#utility.yul\":17697:17828   */\n      tag_314\n      jump\t// in\n    tag_520:\n        /* \"#utility.yul\":17689:17828   */\n      swap1\n      pop\n        /* \"#utility.yul\":17416:17835   */\n      swap2\n      swap1\n      pop\n      jump\t// out\n        /* \"#utility.yul\":17841:18000   */\n    tag_315:\n        /* \"#utility.yul\":17981:17992   */\n      0x4e6f20746f6b656e730000000000000000000000000000000000000000000000\n        /* \"#utility.yul\":17977:17978   */\n      0x00\n        /* \"#utility.yul\":17969:17975   */\n      dup3\n        /* \"#utility.yul\":17965:17979   */\n      add\n        /* \"#utility.yul\":17958:17993   */\n      mstore\n        /* \"#utility.yul\":17841:18000   */\n      pop\n      jump\t// out\n        /* \"#utility.yul\":18006:18371   */\n    tag_316:\n        /* \"#utility.yul\":18148:18151   */\n      0x00\n        /* \"#utility.yul\":18169:18235   */\n      tag_523\n        /* \"#utility.yul\":18233:18234   */\n      0x09\n        /* \"#utility.yul\":18228:18231   */\n      dup4\n        /* \"#utility.yul\":18169:18235   */\n      tag_306\n      jump\t// in\n    tag_523:\n        /* \"#utility.yul\":18162:18235   */\n      swap2\n      pop\n        /* \"#utility.yul\":18244:18337   */\n      tag_524\n        /* \"#utility.yul\":18333:18336   */\n      dup3\n        /* \"#utility.yul\":18244:18337   */\n      tag_315\n      jump\t// in\n    tag_524:\n        /* \"#utility.yul\":18362:18364   */\n      0x20\n        /* \"#utility.yul\":18357:18360   */\n      dup3\n        /* \"#utility.yul\":18353:18365   */\n      add\n        /* \"#utility.yul\":18346:18365   */\n      swap1\n      pop\n        /* \"#utility.yul\":18006:18371   */\n      swap2\n      swap1\n      pop\n      jump\t// out\n        /* \"#utility.yul\":18377:18796   */\n    tag_93:\n        /* \"#utility.yul\":18543:18547   */\n      0x00\n        /* \"#utility.yul\":18581:18583   */\n      0x20\n        /* \"#utility.yul\":18570:18579   */\n      dup3\n        /* \"#utility.yul\":18566:18584   */\n      add\n        /* \"#utility.yul\":18558:18584   */\n      swap1\n      pop\n        /* \"#utility.yul\":18630:18639   */\n      dup2\n        /* \"#utility.yul\":18624:18628   */\n      dup2\n        /* \"#utility.yul\":18620:18640   */\n      sub\n        /* \"#utility.yul\":18616:18617   */\n      0x00\n        /* \"#utility.yul\":18605:18614   */\n      dup4\n        /* \"#utility.yul\":18601:18618   */\n      add\n        /* \"#utility.yul\":18594:18641   */\n      mstore\n        /* \"#utility.yul\":18658:18789   */\n      tag_526\n        /* \"#utility.yul\":18784:18788   */\n      dup2\n        /* \"#utility.yul\":18658:18789   */\n      tag_316\n      jump\t// in\n    tag_526:\n        /* \"#utility.yul\":18650:18789   */\n      swap1\n      pop\n        /* \"#utility.yul\":18377:18796   */\n      swap2\n      swap1\n      pop\n      jump\t// out\n        /* \"#utility.yul\":18802:18982   */\n    tag_99:\n        /* \"#utility.yul\":18850:18927   */\n      0x4e487b7100000000000000000000000000000000000000000000000000000000\n        /* \"#utility.yul\":18847:18848   */\n      0x00\n        /* \"#utility.yul\":18840:18928   */\n      mstore\n        /* \"#utility.yul\":18947:18951   */\n      0x32\n        /* \"#utility.yul\":18944:18945   */\n      0x04\n        /* \"#utility.yul\":18937:18952   */\n      mstore\n        /* \"#utility.yul\":18971:18975   */\n      0x24\n        /* \"#utility.yul\":18968:18969   */\n      0x00\n        /* \"#utility.yul\":18961:18976   */\n      revert\n        /* \"#utility.yul\":18988:19155   */\n    tag_317:\n        /* \"#utility.yul\":19128:19147   */\n      0x4e6f74206120746f6b656e206f776e6572000000000000000000000000000000\n        /* \"#utility.yul\":19124:19125   */\n      0x00\n        /* \"#utility.yul\":19116:19122   */\n      dup3\n        /* \"#utility.yul\":19112:19126   */\n      add\n        /* \"#utility.yul\":19105:19148   */\n      mstore\n        /* \"#utility.yul\":18988:19155   */\n      pop\n      jump\t// out\n        /* \"#utility.yul\":19161:19527   */\n    tag_318:\n        /* \"#utility.yul\":19303:19306   */\n      0x00\n        /* \"#utility.yul\":19324:19391   */\n      tag_530\n        /* \"#utility.yul\":19388:19390   */\n      0x11\n        /* \"#utility.yul\":19383:19386   */\n      dup4\n        /* \"#utility.yul\":19324:19391   */\n      tag_306\n      jump\t// in\n    tag_530:\n        /* \"#utility.yul\":19317:19391   */\n      swap2\n      pop\n        /* \"#utility.yul\":19400:19493   */\n      tag_531\n        /* \"#utility.yul\":19489:19492   */\n      dup3\n        /* \"#utility.yul\":19400:19493   */\n      tag_317\n      jump\t// in\n    tag_531:\n        /* \"#utility.yul\":19518:19520   */\n      0x20\n        /* \"#utility.yul\":19513:19516   */\n      dup3\n        /* \"#utility.yul\":19509:19521   */\n      add\n        /* \"#utility.yul\":19502:19521   */\n      swap1\n      pop\n        /* \"#utility.yul\":19161:19527   */\n      swap2\n      swap1\n      pop\n      jump\t// out\n        /* \"#utility.yul\":19533:19952   */\n    tag_102:\n        /* \"#utility.yul\":19699:19703   */\n      0x00\n        /* \"#utility.yul\":19737:19739   */\n      0x20\n        /* \"#utility.yul\":19726:19735   */\n      dup3\n        /* \"#utility.yul\":19722:19740   */\n      add\n        /* \"#utility.yul\":19714:19740   */\n      swap1\n      pop\n        /* \"#utility.yul\":19786:19795   */\n      dup2\n        /* \"#utility.yul\":19780:19784   */\n      dup2\n        /* \"#utility.yul\":19776:19796   */\n      sub\n        /* \"#utility.yul\":19772:19773   */\n      0x00\n        /* \"#utility.yul\":19761:19770   */\n      dup4\n        /* \"#utility.yul\":19757:19774   */\n      add\n        /* \"#utility.yul\":19750:19797   */\n      mstore\n        /* \"#utility.yul\":19814:19945   */\n      tag_533\n        /* \"#utility.yul\":19940:19944   */\n      dup2\n        /* \"#utility.yul\":19814:19945   */\n      tag_318\n      jump\t// in\n    tag_533:\n        /* \"#utility.yul\":19806:19945   */\n      swap1\n      pop\n        /* \"#utility.yul\":19533:19952   */\n      swap2\n      swap1\n      pop\n      jump\t// out\n        /* \"#utility.yul\":19958:20138   */\n    tag_319:\n        /* \"#utility.yul\":20006:20083   */\n      0x4e487b7100000000000000000000000000000000000000000000000000000000\n        /* \"#utility.yul\":20003:20004   */\n      0x00\n        /* \"#utility.yul\":19996:20084   */\n      mstore\n        /* \"#utility.yul\":20103:20107   */\n      0x11\n        /* \"#utility.yul\":20100:20101   */\n      0x04\n        /* \"#utility.yul\":20093:20108   */\n      mstore\n        /* \"#utility.yul\":20127:20131   */\n      0x24\n        /* \"#utility.yul\":20124:20125   */\n      0x00\n        /* \"#utility.yul\":20117:20132   */\n      revert\n        /* \"#utility.yul\":20144:20335   */\n    tag_104:\n        /* \"#utility.yul\":20184:20187   */\n      0x00\n        /* \"#utility.yul\":20203:20223   */\n      tag_536\n        /* \"#utility.yul\":20221:20222   */\n      dup3\n        /* \"#utility.yul\":20203:20223   */\n      tag_271\n      jump\t// in\n    tag_536:\n        /* \"#utility.yul\":20198:20223   */\n      swap2\n      pop\n        /* \"#utility.yul\":20237:20257   */\n      tag_537\n        /* \"#utility.yul\":20255:20256   */\n      dup4\n        /* \"#utility.yul\":20237:20257   */\n      tag_271\n      jump\t// in\n    tag_537:\n        /* \"#utility.yul\":20232:20257   */\n      swap3\n      pop\n        /* \"#utility.yul\":20280:20281   */\n      dup3\n        /* \"#utility.yul\":20277:20278   */\n      dup3\n        /* \"#utility.yul\":20273:20282   */\n      add\n        /* \"#utility.yul\":20266:20282   */\n      swap1\n      pop\n        /* \"#utility.yul\":20301:20304   */\n      dup1\n        /* \"#utility.yul\":20298:20299   */\n      dup3\n        /* \"#utility.yul\":20295:20305   */\n      gt\n        /* \"#utility.yul\":20292:20328   */\n      iszero\n      tag_538\n      jumpi\n        /* \"#utility.yul\":20308:20326   */\n      tag_539\n      tag_319\n      jump\t// in\n    tag_539:\n        /* \"#utility.yul\":20292:20328   */\n    tag_538:\n        /* \"#utility.yul\":20144:20335   */\n      swap3\n      swap2\n      pop\n      pop\n      jump\t// out\n        /* \"#utility.yul\":20341:20512   */\n    tag_320:\n        /* \"#utility.yul\":20481:20504   */\n      0x4e6f742061626c6520746f20636c61696d207965740000000000000000000000\n        /* \"#utility.yul\":20477:20478   */\n      0x00\n        /* \"#utility.yul\":20469:20475   */\n      dup3\n        /* \"#utility.yul\":20465:20479   */\n      add\n        /* \"#utility.yul\":20458:20505   */\n      mstore\n        /* \"#utility.yul\":20341:20512   */\n      pop\n      jump\t// out\n        /* \"#utility.yul\":20518:20884   */\n    tag_321:\n        /* \"#utility.yul\":20660:20663   */\n      0x00\n        /* \"#utility.yul\":20681:20748   */\n      tag_542\n        /* \"#utility.yul\":20745:20747   */\n      0x15\n        /* \"#utility.yul\":20740:20743   */\n      dup4\n        /* \"#utility.yul\":20681:20748   */\n      tag_306\n      jump\t// in\n    tag_542:\n        /* \"#utility.yul\":20674:20748   */\n      swap2\n      pop\n        /* \"#utility.yul\":20757:20850   */\n      tag_543\n        /* \"#utility.yul\":20846:20849   */\n      dup3\n        /* \"#utility.yul\":20757:20850   */\n      tag_320\n      jump\t// in\n    tag_543:\n        /* \"#utility.yul\":20875:20877   */\n      0x20\n        /* \"#utility.yul\":20870:20873   */\n      dup3\n        /* \"#utility.yul\":20866:20878   */\n      add\n        /* \"#utility.yul\":20859:20878   */\n      swap1\n      pop\n        /* \"#utility.yul\":20518:20884   */\n      swap2\n      swap1\n      pop\n      jump\t// out\n        /* \"#utility.yul\":20890:21309   */\n    tag_107:\n        /* \"#utility.yul\":21056:21060   */\n      0x00\n        /* \"#utility.yul\":21094:21096   */\n      0x20\n        /* \"#utility.yul\":21083:21092   */\n      dup3\n        /* \"#utility.yul\":21079:21097   */\n      add\n        /* \"#utility.yul\":21071:21097   */\n      swap1\n      pop\n        /* \"#utility.yul\":21143:21152   */\n      dup2\n        /* \"#utility.yul\":21137:21141   */\n      dup2\n        /* \"#utility.yul\":21133:21153   */\n      sub\n        /* \"#utility.yul\":21129:21130   */\n      0x00\n        /* \"#utility.yul\":21118:21127   */\n      dup4\n        /* \"#utility.yul\":21114:21131   */\n      add\n        /* \"#utility.yul\":21107:21154   */\n      mstore\n        /* \"#utility.yul\":21171:21302   */\n      tag_545\n        /* \"#utility.yul\":21297:21301   */\n      dup2\n        /* \"#utility.yul\":21171:21302   */\n      tag_321\n      jump\t// in\n    tag_545:\n        /* \"#utility.yul\":21163:21302   */\n      swap1\n      pop\n        /* \"#utility.yul\":20890:21309   */\n      swap2\n      swap1\n      pop\n      jump\t// out\n        /* \"#utility.yul\":21315:21481   */\n    tag_322:\n        /* \"#utility.yul\":21455:21473   */\n      0x416c726561647920756e6c6f636b656400000000000000000000000000000000\n        /* \"#utility.yul\":21451:21452   */\n      0x00\n        /* \"#utility.yul\":21443:21449   */\n      dup3\n        /* \"#utility.yul\":21439:21453   */\n      add\n        /* \"#utility.yul\":21432:21474   */\n      mstore\n        /* \"#utility.yul\":21315:21481   */\n      pop\n      jump\t// out\n        /* \"#utility.yul\":21487:21853   */\n    tag_323:\n        /* \"#utility.yul\":21629:21632   */\n      0x00\n        /* \"#utility.yul\":21650:21717   */\n      tag_548\n        /* \"#utility.yul\":21714:21716   */\n      0x10\n        /* \"#utility.yul\":21709:21712   */\n      dup4\n        /* \"#utility.yul\":21650:21717   */\n      tag_306\n      jump\t// in\n    tag_548:\n        /* \"#utility.yul\":21643:21717   */\n      swap2\n      pop\n        /* \"#utility.yul\":21726:21819   */\n      tag_549\n        /* \"#utility.yul\":21815:21818   */\n      dup3\n        /* \"#utility.yul\":21726:21819   */\n      tag_322\n      jump\t// in\n    tag_549:\n        /* \"#utility.yul\":21844:21846   */\n      0x20\n        /* \"#utility.yul\":21839:21842   */\n      dup3\n        /* \"#utility.yul\":21835:21847   */\n      add\n        /* \"#utility.yul\":21828:21847   */\n      swap1\n      pop\n        /* \"#utility.yul\":21487:21853   */\n      swap2\n      swap1\n      pop\n      jump\t// out\n        /* \"#utility.yul\":21859:22278   */\n    tag_110:\n        /* \"#utility.yul\":22025:22029   */\n      0x00\n        /* \"#utility.yul\":22063:22065   */\n      0x20\n        /* \"#utility.yul\":22052:22061   */\n      dup3\n        /* \"#utility.yul\":22048:22066   */\n      add\n        /* \"#utility.yul\":22040:22066   */\n      swap1\n      pop\n        /* \"#utility.yul\":22112:22121   */\n      dup2\n        /* \"#utility.yul\":22106:22110   */\n      dup2\n        /* \"#utility.yul\":22102:22122   */\n      sub\n        /* \"#utility.yul\":22098:22099   */\n      0x00\n        /* \"#utility.yul\":22087:22096   */\n      dup4\n        /* \"#utility.yul\":22083:22100   */\n      add\n        /* \"#utility.yul\":22076:22123   */\n      mstore\n        /* \"#utility.yul\":22140:22271   */\n      tag_551\n        /* \"#utility.yul\":22266:22270   */\n      dup2\n        /* \"#utility.yul\":22140:22271   */\n      tag_323\n      jump\t// in\n    tag_551:\n        /* \"#utility.yul\":22132:22271   */\n      swap1\n      pop\n        /* \"#utility.yul\":21859:22278   */\n      swap2\n      swap1\n      pop\n      jump\t// out\n        /* \"#utility.yul\":22284:22478   */\n    tag_116:\n        /* \"#utility.yul\":22324:22328   */\n      0x00\n        /* \"#utility.yul\":22344:22364   */\n      tag_553\n        /* \"#utility.yul\":22362:22363   */\n      dup3\n        /* \"#utility.yul\":22344:22364   */\n      tag_271\n      jump\t// in\n    tag_553:\n        /* \"#utility.yul\":22339:22364   */\n      swap2\n      pop\n        /* \"#utility.yul\":22378:22398   */\n      tag_554\n        /* \"#utility.yul\":22396:22397   */\n      dup4\n        /* \"#utility.yul\":22378:22398   */\n      tag_271\n      jump\t// in\n    tag_554:\n        /* \"#utility.yul\":22373:22398   */\n      swap3\n      pop\n        /* \"#utility.yul\":22422:22423   */\n      dup3\n        /* \"#utility.yul\":22419:22420   */\n      dup3\n        /* \"#utility.yul\":22415:22424   */\n      sub\n        /* \"#utility.yul\":22407:22424   */\n      swap1\n      pop\n        /* \"#utility.yul\":22446:22447   */\n      dup2\n        /* \"#utility.yul\":22440:22444   */\n      dup2\n        /* \"#utility.yul\":22437:22448   */\n      gt\n        /* \"#utility.yul\":22434:22471   */\n      iszero\n      tag_555\n      jumpi\n        /* \"#utility.yul\":22451:22469   */\n      tag_556\n      tag_319\n      jump\t// in\n    tag_556:\n        /* \"#utility.yul\":22434:22471   */\n    tag_555:\n        /* \"#utility.yul\":22284:22478   */\n      swap3\n      swap2\n      pop\n      pop\n      jump\t// out\n        /* \"#utility.yul\":22484:22816   */\n    tag_118:\n        /* \"#utility.yul\":22605:22609   */\n      0x00\n        /* \"#utility.yul\":22643:22645   */\n      0x40\n        /* \"#utility.yul\":22632:22641   */\n      dup3\n        /* \"#utility.yul\":22628:22646   */\n      add\n        /* \"#utility.yul\":22620:22646   */\n      swap1\n      pop\n        /* \"#utility.yul\":22656:22727   */\n      tag_558\n        /* \"#utility.yul\":22724:22725   */\n      0x00\n        /* \"#utility.yul\":22713:22722   */\n      dup4\n        /* \"#utility.yul\":22709:22726   */\n      add\n        /* \"#utility.yul\":22700:22706   */\n      dup6\n        /* \"#utility.yul\":22656:22727   */\n      tag_284\n      jump\t// in\n    tag_558:\n        /* \"#utility.yul\":22737:22809   */\n      tag_559\n        /* \"#utility.yul\":22805:22807   */\n      0x20\n        /* \"#utility.yul\":22794:22803   */\n      dup4\n        /* \"#utility.yul\":22790:22808   */\n      add\n        /* \"#utility.yul\":22781:22787   */\n      dup5\n        /* \"#utility.yul\":22737:22809   */\n      tag_283\n      jump\t// in\n    tag_559:\n        /* \"#utility.yul\":22484:22816   */\n      swap4\n      swap3\n      pop\n      pop\n      pop\n      jump\t// out\n        /* \"#utility.yul\":22822:23055   */\n    tag_126:\n        /* \"#utility.yul\":22861:22864   */\n      0x00\n        /* \"#utility.yul\":22884:22908   */\n      tag_561\n        /* \"#utility.yul\":22902:22907   */\n      dup3\n        /* \"#utility.yul\":22884:22908   */\n      tag_271\n      jump\t// in\n    tag_561:\n        /* \"#utility.yul\":22875:22908   */\n      swap2\n      pop\n        /* \"#utility.yul\":22930:22996   */\n      0xffffffffffffffffffffffffffffffffffffffffffffffffffffffffffffffff\n        /* \"#utility.yul\":22923:22928   */\n      dup3\n        /* \"#utility.yul\":22920:22997   */\n      sub\n        /* \"#utility.yul\":22917:23020   */\n      tag_562\n      jumpi\n        /* \"#utility.yul\":23000:23018   */\n      tag_563\n      tag_319\n      jump\t// in\n    tag_563:\n        /* \"#utility.yul\":22917:23020   */\n    tag_562:\n        /* \"#utility.yul\":23047:23048   */\n      0x01\n        /* \"#utility.yul\":23040:23045   */\n      dup3\n        /* \"#utility.yul\":23036:23049   */\n      add\n        /* \"#utility.yul\":23029:23049   */\n      swap1\n      pop\n        /* \"#utility.yul\":22822:23055   */\n      swap2\n      swap1\n      pop\n      jump\t// out\n        /* \"#utility.yul\":23061:23245   */\n    tag_324:\n        /* \"#utility.yul\":23160:23171   */\n      0x00\n        /* \"#utility.yul\":23194:23200   */\n      dup3\n        /* \"#utility.yul\":23189:23192   */\n      dup3\n        /* \"#utility.yul\":23182:23201   */\n      mstore\n        /* \"#utility.yul\":23234:23238   */\n      0x20\n        /* \"#utility.yul\":23229:23232   */\n      dup3\n        /* \"#utility.yul\":23225:23239   */\n      add\n        /* \"#utility.yul\":23210:23239   */\n      swap1\n      pop\n        /* \"#utility.yul\":23061:23245   */\n      swap3\n      swap2\n      pop\n      pop\n      jump\t// out\n        /* \"#utility.yul\":23251:23368   */\n    tag_325:\n        /* \"#utility.yul\":23360:23361   */\n      0x00\n        /* \"#utility.yul\":23357:23358   */\n      dup1\n        /* \"#utility.yul\":23350:23362   */\n      revert\n        /* \"#utility.yul\":23374:23472   */\n    tag_326:\n        /* \"#utility.yul\":23458:23464   */\n      dup3\n        /* \"#utility.yul\":23453:23456   */\n      dup2\n        /* \"#utility.yul\":23448:23451   */\n      dup4\n        /* \"#utility.yul\":23435:23465   */\n      calldatacopy\n        /* \"#utility.yul\":23374:23472   */\n      pop\n      pop\n      pop\n      jump\t// out\n        /* \"#utility.yul\":23508:24045   */\n    tag_327:\n        /* \"#utility.yul\":23636:23639   */\n      0x00\n        /* \"#utility.yul\":23657:23743   */\n      tag_568\n        /* \"#utility.yul\":23736:23742   */\n      dup4\n        /* \"#utility.yul\":23731:23734   */\n      dup6\n        /* \"#utility.yul\":23657:23743   */\n      tag_324\n      jump\t// in\n    tag_568:\n        /* \"#utility.yul\":23650:23743   */\n      swap4\n      pop\n        /* \"#utility.yul\":23767:23833   */\n      0x07ffffffffffffffffffffffffffffffffffffffffffffffffffffffffffffff\n        /* \"#utility.yul\":23759:23765   */\n      dup4\n        /* \"#utility.yul\":23756:23834   */\n      gt\n        /* \"#utility.yul\":23753:23918   */\n      iszero\n      tag_569\n      jumpi\n        /* \"#utility.yul\":23837:23916   */\n      tag_570\n      tag_325\n      jump\t// in\n    tag_570:\n        /* \"#utility.yul\":23753:23918   */\n    tag_569:\n        /* \"#utility.yul\":23949:23953   */\n      0x20\n        /* \"#utility.yul\":23941:23947   */\n      dup4\n        /* \"#utility.yul\":23937:23954   */\n      mul\n        /* \"#utility.yul\":23927:23954   */\n      swap3\n      pop\n        /* \"#utility.yul\":23964:24007   */\n      tag_571\n        /* \"#utility.yul\":24000:24006   */\n      dup4\n        /* \"#utility.yul\":23995:23998   */\n      dup6\n        /* \"#utility.yul\":23988:23993   */\n      dup5\n        /* \"#utility.yul\":23964:24007   */\n      tag_326\n      jump\t// in\n    tag_571:\n        /* \"#utility.yul\":24032:24038   */\n      dup3\n        /* \"#utility.yul\":24027:24030   */\n      dup5\n        /* \"#utility.yul\":24023:24039   */\n      add\n        /* \"#utility.yul\":24016:24039   */\n      swap1\n      pop\n        /* \"#utility.yul\":23508:24045   */\n      swap4\n      swap3\n      pop\n      pop\n      pop\n      jump\t// out\n        /* \"#utility.yul\":24051:24554   */\n    tag_128:\n        /* \"#utility.yul\":24232:24236   */\n      0x00\n        /* \"#utility.yul\":24270:24272   */\n      0x40\n        /* \"#utility.yul\":24259:24268   */\n      dup3\n        /* \"#utility.yul\":24255:24273   */\n      add\n        /* \"#utility.yul\":24247:24273   */\n      swap1\n      pop\n        /* \"#utility.yul\":24319:24328   */\n      dup2\n        /* \"#utility.yul\":24313:24317   */\n      dup2\n        /* \"#utility.yul\":24309:24329   */\n      sub\n        /* \"#utility.yul\":24305:24306   */\n      0x00\n        /* \"#utility.yul\":24294:24303   */\n      dup4\n        /* \"#utility.yul\":24290:24307   */\n      add\n        /* \"#utility.yul\":24283:24330   */\n      mstore\n        /* \"#utility.yul\":24347:24465   */\n      tag_573\n        /* \"#utility.yul\":24460:24464   */\n      dup2\n        /* \"#utility.yul\":24451:24457   */\n      dup6\n        /* \"#utility.yul\":24443:24449   */\n      dup8\n        /* \"#utility.yul\":24347:24465   */\n      tag_327\n      jump\t// in\n    tag_573:\n        /* \"#utility.yul\":24339:24465   */\n      swap1\n      pop\n        /* \"#utility.yul\":24475:24547   */\n      tag_574\n        /* \"#utility.yul\":24543:24545   */\n      0x20\n        /* \"#utility.yul\":24532:24541   */\n      dup4\n        /* \"#utility.yul\":24528:24546   */\n      add\n        /* \"#utility.yul\":24519:24525   */\n      dup5\n        /* \"#utility.yul\":24475:24547   */\n      tag_283\n      jump\t// in\n    tag_574:\n        /* \"#utility.yul\":24051:24554   */\n      swap5\n      swap4\n      pop\n      pop\n      pop\n      pop\n      jump\t// out\n        /* \"#utility.yul\":24560:24741   */\n    tag_328:\n        /* \"#utility.yul\":24700:24733   */\n      0x5265656e7472616e637947756172643a207265656e7472616e742063616c6c00\n        /* \"#utility.yul\":24696:24697   */\n      0x00\n        /* \"#utility.yul\":24688:24694   */\n      dup3\n        /* \"#utility.yul\":24684:24698   */\n      add\n        /* \"#utility.yul\":24677:24734   */\n      mstore\n        /* \"#utility.yul\":24560:24741   */\n      pop\n      jump\t// out\n        /* \"#utility.yul\":24747:25113   */\n    tag_329:\n        /* \"#utility.yul\":24889:24892   */\n      0x00\n        /* \"#utility.yul\":24910:24977   */\n      tag_577\n        /* \"#utility.yul\":24974:24976   */\n      0x1f\n        /* \"#utility.yul\":24969:24972   */\n      dup4\n        /* \"#utility.yul\":24910:24977   */\n      tag_306\n      jump\t// in\n    tag_577:\n        /* \"#utility.yul\":24903:24977   */\n      swap2\n      pop\n        /* \"#utility.yul\":24986:25079   */\n      tag_578\n        /* \"#utility.yul\":25075:25078   */\n      dup3\n        /* \"#utility.yul\":24986:25079   */\n      tag_328\n      jump\t// in\n    tag_578:\n        /* \"#utility.yul\":25104:25106   */\n      0x20\n        /* \"#utility.yul\":25099:25102   */\n      dup3\n        /* \"#utility.yul\":25095:25107   */\n      add\n        /* \"#utility.yul\":25088:25107   */\n      swap1\n      pop\n        /* \"#utility.yul\":24747:25113   */\n      swap2\n      swap1\n      pop\n      jump\t// out\n        /* \"#utility.yul\":25119:25538   */\n    tag_138:\n        /* \"#utility.yul\":25285:25289   */\n      0x00\n        /* \"#utility.yul\":25323:25325   */\n      0x20\n        /* \"#utility.yul\":25312:25321   */\n      dup3\n        /* \"#utility.yul\":25308:25326   */\n      add\n        /* \"#utility.yul\":25300:25326   */\n      swap1\n      pop\n        /* \"#utility.yul\":25372:25381   */\n      dup2\n        /* \"#utility.yul\":25366:25370   */\n      dup2\n        /* \"#utility.yul\":25362:25382   */\n      sub\n        /* \"#utility.yul\":25358:25359   */\n      0x00\n        /* \"#utility.yul\":25347:25356   */\n      dup4\n        /* \"#utility.yul\":25343:25360   */\n      add\n        /* \"#utility.yul\":25336:25383   */\n      mstore\n        /* \"#utility.yul\":25400:25531   */\n      tag_580\n        /* \"#utility.yul\":25526:25530   */\n      dup2\n        /* \"#utility.yul\":25400:25531   */\n      tag_329\n      jump\t// in\n    tag_580:\n        /* \"#utility.yul\":25392:25531   */\n      swap1\n      pop\n        /* \"#utility.yul\":25119:25538   */\n      swap2\n      swap1\n      pop\n      jump\t// out\n        /* \"#utility.yul\":25544:25687   */\n    tag_330:\n        /* \"#utility.yul\":25601:25606   */\n      0x00\n        /* \"#utility.yul\":25632:25638   */\n      dup2\n        /* \"#utility.yul\":25626:25639   */\n      mload\n        /* \"#utility.yul\":25617:25639   */\n      swap1\n      pop\n        /* \"#utility.yul\":25648:25681   */\n      tag_582\n        /* \"#utility.yul\":25675:25680   */\n      dup2\n        /* \"#utility.yul\":25648:25681   */\n      tag_299\n      jump\t// in\n    tag_582:\n        /* \"#utility.yul\":25544:25687   */\n      swap3\n      swap2\n      pop\n      pop\n      jump\t// out\n        /* \"#utility.yul\":25693:26044   */\n    tag_153:\n        /* \"#utility.yul\":25763:25769   */\n      0x00\n        /* \"#utility.yul\":25812:25814   */\n      0x20\n        /* \"#utility.yul\":25800:25809   */\n      dup3\n        /* \"#utility.yul\":25791:25798   */\n      dup5\n        /* \"#utility.yul\":25787:25810   */\n      sub\n        /* \"#utility.yul\":25783:25815   */\n      slt\n        /* \"#utility.yul\":25780:25899   */\n      iszero\n      tag_584\n      jumpi\n        /* \"#utility.yul\":25818:25897   */\n      tag_585\n      tag_269\n      jump\t// in\n    tag_585:\n        /* \"#utility.yul\":25780:25899   */\n    tag_584:\n        /* \"#utility.yul\":25938:25939   */\n      0x00\n        /* \"#utility.yul\":25963:26027   */\n      tag_586\n        /* \"#utility.yul\":26019:26026   */\n      dup5\n        /* \"#utility.yul\":26010:26016   */\n      dup3\n        /* \"#utility.yul\":25999:26008   */\n      dup6\n        /* \"#utility.yul\":25995:26017   */\n      add\n        /* \"#utility.yul\":25963:26027   */\n      tag_330\n      jump\t// in\n    tag_586:\n        /* \"#utility.yul\":25953:26027   */\n      swap2\n      pop\n        /* \"#utility.yul\":25909:26037   */\n      pop\n        /* \"#utility.yul\":25693:26044   */\n      swap3\n      swap2\n      pop\n      pop\n      jump\t// out\n        /* \"#utility.yul\":26050:26225   */\n    tag_331:\n        /* \"#utility.yul\":26190:26217   */\n      0x596f7520646f6e277420686f6c64207468697320746f6b656e00000000000000\n        /* \"#utility.yul\":26186:26187   */\n      0x00\n        /* \"#utility.yul\":26178:26184   */\n      dup3\n        /* \"#utility.yul\":26174:26188   */\n      add\n        /* \"#utility.yul\":26167:26218   */\n      mstore\n        /* \"#utility.yul\":26050:26225   */\n      pop\n      jump\t// out\n        /* \"#utility.yul\":26231:26597   */\n    tag_332:\n        /* \"#utility.yul\":26373:26376   */\n      0x00\n        /* \"#utility.yul\":26394:26461   */\n      tag_589\n        /* \"#utility.yul\":26458:26460   */\n      0x19\n        /* \"#utility.yul\":26453:26456   */\n      dup4\n        /* \"#utility.yul\":26394:26461   */\n      tag_306\n      jump\t// in\n    tag_589:\n        /* \"#utility.yul\":26387:26461   */\n      swap2\n      pop\n        /* \"#utility.yul\":26470:26563   */\n      tag_590\n        /* \"#utility.yul\":26559:26562   */\n      dup3\n        /* \"#utility.yul\":26470:26563   */\n      tag_331\n      jump\t// in\n    tag_590:\n        /* \"#utility.yul\":26588:26590   */\n      0x20\n        /* \"#utility.yul\":26583:26586   */\n      dup3\n        /* \"#utility.yul\":26579:26591   */\n      add\n        /* \"#utility.yul\":26572:26591   */\n      swap1\n      pop\n        /* \"#utility.yul\":26231:26597   */\n      swap2\n      swap1\n      pop\n      jump\t// out\n        /* \"#utility.yul\":26603:27022   */\n    tag_156:\n        /* \"#utility.yul\":26769:26773   */\n      0x00\n        /* \"#utility.yul\":26807:26809   */\n      0x20\n        /* \"#utility.yul\":26796:26805   */\n      dup3\n        /* \"#utility.yul\":26792:26810   */\n      add\n        /* \"#utility.yul\":26784:26810   */\n      swap1\n      pop\n        /* \"#utility.yul\":26856:26865   */\n      dup2\n        /* \"#utility.yul\":26850:26854   */\n      dup2\n        /* \"#utility.yul\":26846:26866   */\n      sub\n        /* \"#utility.yul\":26842:26843   */\n      0x00\n        /* \"#utility.yul\":26831:26840   */\n      dup4\n        /* \"#utility.yul\":26827:26844   */\n      add\n        /* \"#utility.yul\":26820:26867   */\n      mstore\n        /* \"#utility.yul\":26884:27015   */\n      tag_592\n        /* \"#utility.yul\":27010:27014   */\n      dup2\n        /* \"#utility.yul\":26884:27015   */\n      tag_332\n      jump\t// in\n    tag_592:\n        /* \"#utility.yul\":26876:27015   */\n      swap1\n      pop\n        /* \"#utility.yul\":26603:27022   */\n      swap2\n      swap1\n      pop\n      jump\t// out\n        /* \"#utility.yul\":27028:27470   */\n    tag_160:\n        /* \"#utility.yul\":27177:27181   */\n      0x00\n        /* \"#utility.yul\":27215:27217   */\n      0x60\n        /* \"#utility.yul\":27204:27213   */\n      dup3\n        /* \"#utility.yul\":27200:27218   */\n      add\n        /* \"#utility.yul\":27192:27218   */\n      swap1\n      pop\n        /* \"#utility.yul\":27228:27299   */\n      tag_594\n        /* \"#utility.yul\":27296:27297   */\n      0x00\n        /* \"#utility.yul\":27285:27294   */\n      dup4\n        /* \"#utility.yul\":27281:27298   */\n      add\n        /* \"#utility.yul\":27272:27278   */\n      dup7\n        /* \"#utility.yul\":27228:27299   */\n      tag_284\n      jump\t// in\n    tag_594:\n        /* \"#utility.yul\":27309:27381   */\n      tag_595\n        /* \"#utility.yul\":27377:27379   */\n      0x20\n        /* \"#utility.yul\":27366:27375   */\n      dup4\n        /* \"#utility.yul\":27362:27380   */\n      add\n        /* \"#utility.yul\":27353:27359   */\n      dup6\n        /* \"#utility.yul\":27309:27381   */\n      tag_284\n      jump\t// in\n    tag_595:\n        /* \"#utility.yul\":27391:27463   */\n      tag_596\n        /* \"#utility.yul\":27459:27461   */\n      0x40\n        /* \"#utility.yul\":27448:27457   */\n      dup4\n        /* \"#utility.yul\":27444:27462   */\n      add\n        /* \"#utility.yul\":27435:27441   */\n      dup5\n        /* \"#utility.yul\":27391:27463   */\n      tag_283\n      jump\t// in\n    tag_596:\n        /* \"#utility.yul\":27028:27470   */\n      swap5\n      swap4\n      pop\n      pop\n      pop\n      pop\n      jump\t// out\n        /* \"#utility.yul\":27476:27869   */\n    tag_168:\n        /* \"#utility.yul\":27629:27633   */\n      0x00\n        /* \"#utility.yul\":27667:27669   */\n      0x20\n        /* \"#utility.yul\":27656:27665   */\n      dup3\n        /* \"#utility.yul\":27652:27670   */\n      add\n        /* \"#utility.yul\":27644:27670   */\n      swap1\n      pop\n        /* \"#utility.yul\":27716:27725   */\n      dup2\n        /* \"#utility.yul\":27710:27714   */\n      dup2\n        /* \"#utility.yul\":27706:27726   */\n      sub\n        /* \"#utility.yul\":27702:27703   */\n      0x00\n        /* \"#utility.yul\":27691:27700   */\n      dup4\n        /* \"#utility.yul\":27687:27704   */\n      add\n        /* \"#utility.yul\":27680:27727   */\n      mstore\n        /* \"#utility.yul\":27744:27862   */\n      tag_598\n        /* \"#utility.yul\":27857:27861   */\n      dup2\n        /* \"#utility.yul\":27848:27854   */\n      dup5\n        /* \"#utility.yul\":27840:27846   */\n      dup7\n        /* \"#utility.yul\":27744:27862   */\n      tag_327\n      jump\t// in\n    tag_598:\n        /* \"#utility.yul\":27736:27862   */\n      swap1\n      pop\n        /* \"#utility.yul\":27476:27869   */\n      swap4\n      swap3\n      pop\n      pop\n      pop\n      jump\t// out\n        /* \"#utility.yul\":27875:28047   */\n    tag_333:\n        /* \"#utility.yul\":28015:28039   */\n      0x4e6f742061626c6520746f20756e6c6f636b2079657400000000000000000000\n        /* \"#utility.yul\":28011:28012   */\n      0x00\n        /* \"#utility.yul\":28003:28009   */\n      dup3\n        /* \"#utility.yul\":27999:28013   */\n      add\n        /* \"#utility.yul\":27992:28040   */\n      mstore\n        /* \"#utility.yul\":27875:28047   */\n      pop\n      jump\t// out\n        /* \"#utility.yul\":28053:28419   */\n    tag_334:\n        /* \"#utility.yul\":28195:28198   */\n      0x00\n        /* \"#utility.yul\":28216:28283   */\n      tag_601\n        /* \"#utility.yul\":28280:28282   */\n      0x16\n        /* \"#utility.yul\":28275:28278   */\n      dup4\n        /* \"#utility.yul\":28216:28283   */\n      tag_306\n      jump\t// in\n    tag_601:\n        /* \"#utility.yul\":28209:28283   */\n      swap2\n      pop\n        /* \"#utility.yul\":28292:28385   */\n      tag_602\n        /* \"#utility.yul\":28381:28384   */\n      dup3\n        /* \"#utility.yul\":28292:28385   */\n      tag_333\n      jump\t// in\n    tag_602:\n        /* \"#utility.yul\":28410:28412   */\n      0x20\n        /* \"#utility.yul\":28405:28408   */\n      dup3\n        /* \"#utility.yul\":28401:28413   */\n      add\n        /* \"#utility.yul\":28394:28413   */\n      swap1\n      pop\n        /* \"#utility.yul\":28053:28419   */\n      swap2\n      swap1\n      pop\n      jump\t// out\n        /* \"#utility.yul\":28425:28844   */\n    tag_199:\n        /* \"#utility.yul\":28591:28595   */\n      0x00\n        /* \"#utility.yul\":28629:28631   */\n      0x20\n        /* \"#utility.yul\":28618:28627   */\n      dup3\n        /* \"#utility.yul\":28614:28632   */\n      add\n        /* \"#utility.yul\":28606:28632   */\n      swap1\n      pop\n        /* \"#utility.yul\":28678:28687   */\n      dup2\n        /* \"#utility.yul\":28672:28676   */\n      dup2\n        /* \"#utility.yul\":28668:28688   */\n      sub\n        /* \"#utility.yul\":28664:28665   */\n      0x00\n        /* \"#utility.yul\":28653:28662   */\n      dup4\n        /* \"#utility.yul\":28649:28666   */\n      add\n        /* \"#utility.yul\":28642:28689   */\n      mstore\n        /* \"#utility.yul\":28706:28837   */\n      tag_604\n        /* \"#utility.yul\":28832:28836   */\n      dup2\n        /* \"#utility.yul\":28706:28837   */\n      tag_334\n      jump\t// in\n    tag_604:\n        /* \"#utility.yul\":28698:28837   */\n      swap1\n      pop\n        /* \"#utility.yul\":28425:28844   */\n      swap2\n      swap1\n      pop\n      jump\t// out\n        /* \"#utility.yul\":28850:29075   */\n    tag_335:\n        /* \"#utility.yul\":28990:29024   */\n      0x4f776e61626c653a206e6577206f776e657220697320746865207a65726f2061\n        /* \"#utility.yul\":28986:28987   */\n      0x00\n        /* \"#utility.yul\":28978:28984   */\n      dup3\n        /* \"#utility.yul\":28974:28988   */\n      add\n        /* \"#utility.yul\":28967:29025   */\n      mstore\n        /* \"#utility.yul\":29059:29067   */\n      0x6464726573730000000000000000000000000000000000000000000000000000\n        /* \"#utility.yul\":29054:29056   */\n      0x20\n        /* \"#utility.yul\":29046:29052   */\n      dup3\n        /* \"#utility.yul\":29042:29057   */\n      add\n        /* \"#utility.yul\":29035:29068   */\n      mstore\n        /* \"#utility.yul\":28850:29075   */\n      pop\n      jump\t// out\n        /* \"#utility.yul\":29081:29447   */\n    tag_336:\n        /* \"#utility.yul\":29223:29226   */\n      0x00\n        /* \"#utility.yul\":29244:29311   */\n      tag_607\n        /* \"#utility.yul\":29308:29310   */\n      0x26\n        /* \"#utility.yul\":29303:29306   */\n      dup4\n        /* \"#utility.yul\":29244:29311   */\n      tag_306\n      jump\t// in\n    tag_607:\n        /* \"#utility.yul\":29237:29311   */\n      swap2\n      pop\n        /* \"#utility.yul\":29320:29413   */\n      tag_608\n        /* \"#utility.yul\":29409:29412   */\n      dup3\n        /* \"#utility.yul\":29320:29413   */\n      tag_335\n      jump\t// in\n    tag_608:\n        /* \"#utility.yul\":29438:29440   */\n      0x40\n        /* \"#utility.yul\":29433:29436   */\n      dup3\n        /* \"#utility.yul\":29429:29441   */\n      add\n        /* \"#utility.yul\":29422:29441   */\n      swap1\n      pop\n        /* \"#utility.yul\":29081:29447   */\n      swap2\n      swap1\n      pop\n      jump\t// out\n        /* \"#utility.yul\":29453:29872   */\n    tag_247:\n        /* \"#utility.yul\":29619:29623   */\n      0x00\n        /* \"#utility.yul\":29657:29659   */\n      0x20\n        /* \"#utility.yul\":29646:29655   */\n      dup3\n        /* \"#utility.yul\":29642:29660   */\n      add\n        /* \"#utility.yul\":29634:29660   */\n      swap1\n      pop\n        /* \"#utility.yul\":29706:29715   */\n      dup2\n        /* \"#utility.yul\":29700:29704   */\n      dup2\n        /* \"#utility.yul\":29696:29716   */\n      sub\n        /* \"#utility.yul\":29692:29693   */\n      0x00\n        /* \"#utility.yul\":29681:29690   */\n      dup4\n        /* \"#utility.yul\":29677:29694   */\n      add\n        /* \"#utility.yul\":29670:29717   */\n      mstore\n        /* \"#utility.yul\":29734:29865   */\n      tag_610\n        /* \"#utility.yul\":29860:29864   */\n      dup2\n        /* \"#utility.yul\":29734:29865   */\n      tag_336\n      jump\t// in\n    tag_610:\n        /* \"#utility.yul\":29726:29865   */\n      swap1\n      pop\n        /* \"#utility.yul\":29453:29872   */\n      swap2\n      swap1\n      pop\n      jump\t// out\n        /* \"#utility.yul\":29878:30060   */\n    tag_337:\n        /* \"#utility.yul\":30018:30052   */\n      0x4f776e61626c653a2063616c6c6572206973206e6f7420746865206f776e6572\n        /* \"#utility.yul\":30014:30015   */\n      0x00\n        /* \"#utility.yul\":30006:30012   */\n      dup3\n        /* \"#utility.yul\":30002:30016   */\n      add\n        /* \"#utility.yul\":29995:30053   */\n      mstore\n        /* \"#utility.yul\":29878:30060   */\n      pop\n      jump\t// out\n        /* \"#utility.yul\":30066:30432   */\n    tag_338:\n        /* \"#utility.yul\":30208:30211   */\n      0x00\n        /* \"#utility.yul\":30229:30296   */\n      tag_613\n        /* \"#utility.yul\":30293:30295   */\n      0x20\n        /* \"#utility.yul\":30288:30291   */\n      dup4\n        /* \"#utility.yul\":30229:30296   */\n      tag_306\n      jump\t// in\n    tag_613:\n        /* \"#utility.yul\":30222:30296   */\n      swap2\n      pop\n        /* \"#utility.yul\":30305:30398   */\n      tag_614\n        /* \"#utility.yul\":30394:30397   */\n      dup3\n        /* \"#utility.yul\":30305:30398   */\n      tag_337\n      jump\t// in\n    tag_614:\n        /* \"#utility.yul\":30423:30425   */\n      0x20\n        /* \"#utility.yul\":30418:30421   */\n      dup3\n        /* \"#utility.yul\":30414:30426   */\n      add\n        /* \"#utility.yul\":30407:30426   */\n      swap1\n      pop\n        /* \"#utility.yul\":30066:30432   */\n      swap2\n      swap1\n      pop\n      jump\t// out\n        /* \"#utility.yul\":30438:30857   */\n    tag_255:\n        /* \"#utility.yul\":30604:30608   */\n      0x00\n        /* \"#utility.yul\":30642:30644   */\n      0x20\n        /* \"#utility.yul\":30631:30640   */\n      dup3\n        /* \"#utility.yul\":30627:30645   */\n      add\n        /* \"#utility.yul\":30619:30645   */\n      swap1\n      pop\n        /* \"#utility.yul\":30691:30700   */\n      dup2\n        /* \"#utility.yul\":30685:30689   */\n      dup2\n        /* \"#utility.yul\":30681:30701   */\n      sub\n        /* \"#utility.yul\":30677:30678   */\n      0x00\n        /* \"#utility.yul\":30666:30675   */\n      dup4\n        /* \"#utility.yul\":30662:30679   */\n      add\n        /* \"#utility.yul\":30655:30702   */\n      mstore\n        /* \"#utility.yul\":30719:30850   */\n      tag_616\n        /* \"#utility.yul\":30845:30849   */\n      dup2\n        /* \"#utility.yul\":30719:30850   */\n      tag_338\n      jump\t// in\n    tag_616:\n        /* \"#utility.yul\":30711:30850   */\n      swap1\n      pop\n        /* \"#utility.yul\":30438:30857   */\n      swap2\n      swap1\n      pop\n      jump\t// out\n        /* \"#utility.yul\":30863:31211   */\n    tag_263:\n        /* \"#utility.yul\":30903:30910   */\n      0x00\n        /* \"#utility.yul\":30926:30946   */\n      tag_618\n        /* \"#utility.yul\":30944:30945   */\n      dup3\n        /* \"#utility.yul\":30926:30946   */\n      tag_271\n      jump\t// in\n    tag_618:\n        /* \"#utility.yul\":30921:30946   */\n      swap2\n      pop\n        /* \"#utility.yul\":30960:30980   */\n      tag_619\n        /* \"#utility.yul\":30978:30979   */\n      dup4\n        /* \"#utility.yul\":30960:30980   */\n      tag_271\n      jump\t// in\n    tag_619:\n        /* \"#utility.yul\":30955:30980   */\n      swap3\n      pop\n        /* \"#utility.yul\":31148:31149   */\n      dup2\n        /* \"#utility.yul\":31080:31146   */\n      0xffffffffffffffffffffffffffffffffffffffffffffffffffffffffffffffff\n        /* \"#utility.yul\":31076:31150   */\n      div\n        /* \"#utility.yul\":31073:31074   */\n      dup4\n        /* \"#utility.yul\":31070:31151   */\n      gt\n        /* \"#utility.yul\":31065:31066   */\n      dup3\n        /* \"#utility.yul\":31058:31067   */\n      iszero\n        /* \"#utility.yul\":31051:31068   */\n      iszero\n        /* \"#utility.yul\":31047:31152   */\n      and\n        /* \"#utility.yul\":31044:31175   */\n      iszero\n      tag_620\n      jumpi\n        /* \"#utility.yul\":31155:31173   */\n      tag_621\n      tag_319\n      jump\t// in\n    tag_621:\n        /* \"#utility.yul\":31044:31175   */\n    tag_620:\n        /* \"#utility.yul\":31203:31204   */\n      dup3\n        /* \"#utility.yul\":31200:31201   */\n      dup3\n        /* \"#utility.yul\":31196:31205   */\n      mul\n        /* \"#utility.yul\":31185:31205   */\n      swap1\n      pop\n        /* \"#utility.yul\":30863:31211   */\n      swap3\n      swap2\n      pop\n      pop\n      jump\t// out\n        /* \"#utility.yul\":31217:31397   */\n    tag_339:\n        /* \"#utility.yul\":31265:31342   */\n      0x4e487b7100000000000000000000000000000000000000000000000000000000\n        /* \"#utility.yul\":31262:31263   */\n      0x00\n        /* \"#utility.yul\":31255:31343   */\n      mstore\n        /* \"#utility.yul\":31362:31366   */\n      0x12\n        /* \"#utility.yul\":31359:31360   */\n      0x04\n        /* \"#utility.yul\":31352:31367   */\n      mstore\n        /* \"#utility.yul\":31386:31390   */\n      0x24\n        /* \"#utility.yul\":31383:31384   */\n      0x00\n        /* \"#utility.yul\":31376:31391   */\n      revert\n        /* \"#utility.yul\":31403:31588   */\n    tag_265:\n        /* \"#utility.yul\":31443:31444   */\n      0x00\n        /* \"#utility.yul\":31460:31480   */\n      tag_624\n        /* \"#utility.yul\":31478:31479   */\n      dup3\n        /* \"#utility.yul\":31460:31480   */\n      tag_271\n      jump\t// in\n    tag_624:\n        /* \"#utility.yul\":31455:31480   */\n      swap2\n      pop\n        /* \"#utility.yul\":31494:31514   */\n      tag_625\n        /* \"#utility.yul\":31512:31513   */\n      dup4\n        /* \"#utility.yul\":31494:31514   */\n      tag_271\n      jump\t// in\n    tag_625:\n        /* \"#utility.yul\":31489:31514   */\n      swap3\n      pop\n        /* \"#utility.yul\":31533:31534   */\n      dup3\n        /* \"#utility.yul\":31523:31558   */\n      tag_626\n      jumpi\n        /* \"#utility.yul\":31538:31556   */\n      tag_627\n      tag_339\n      jump\t// in\n    tag_627:\n        /* \"#utility.yul\":31523:31558   */\n    tag_626:\n        /* \"#utility.yul\":31580:31581   */\n      dup3\n        /* \"#utility.yul\":31577:31578   */\n      dup3\n        /* \"#utility.yul\":31573:31582   */\n      div\n        /* \"#utility.yul\":31568:31582   */\n      swap1\n      pop\n        /* \"#utility.yul\":31403:31588   */\n      swap3\n      swap2\n      pop\n      pop\n      jump\t// out\n\n    auxdata: 0xa2646970667358221220a1b0734d7ce6f45410c57f8360f6e9c1765c607095a3e4c8a53d0dc0e3fed64164736f6c63430008100033\n}\n",
				"bytecode": {
					"linkReferences": {},
					"object": "60806040523480156200001157600080fd5b50604051620030c6380380620030c68339818101604052810190620000379190620001c6565b620000576200004b620000ba60201b60201c565b620000c260201b60201c565b6001808190555060008211620000a4576040517f08c379a00000000000000000000000000000000000000000000000000000000081526004016200009b906200026e565b60405180910390fd5b8160028190555080600581905550505062000290565b600033905090565b60008060009054906101000a900473ffffffffffffffffffffffffffffffffffffffff169050816000806101000a81548173ffffffffffffffffffffffffffffffffffffffff021916908373ffffffffffffffffffffffffffffffffffffffff1602179055508173ffffffffffffffffffffffffffffffffffffffff168173ffffffffffffffffffffffffffffffffffffffff167f8be0079c531659141344cd1fd0a4f28419497f9722a3daafe3b4186f6b6457e060405160405180910390a35050565b600080fd5b6000819050919050565b620001a0816200018b565b8114620001ac57600080fd5b50565b600081519050620001c08162000195565b92915050565b60008060408385031215620001e057620001df62000186565b5b6000620001f085828601620001af565b92505060206200020385828601620001af565b9150509250929050565b600082825260208201905092915050565b7f496e76616c6964206c6f636b20706572696f6400000000000000000000000000600082015250565b6000620002566013836200020d565b915062000263826200021e565b602082019050919050565b60006020820190508181036000830152620002898162000247565b9050919050565b612e2680620002a06000396000f3fe608060405234801561001057600080fd5b50600436106100ce5760003560e01c80639f3625f01161008c578063c69d192311610066578063c69d1923146101ed578063e9545b921461020b578063eee00ed01461023d578063f2fde38b14610259576100ce565b80639f3625f01461016d578063b2520a7c14610189578063b33068c4146101bd576100ce565b8062574d23146100d35780630520537f146100ef5780631902732e1461010b5780633fd8b02f14610127578063715018a6146101455780638da5cb5b1461014f575b600080fd5b6100ed60048036038101906100e89190611e12565b610275565b005b61010960048036038101906101049190611f14565b610301565b005b61012560048036038101906101209190611f14565b61094d565b005b61012f610f09565b60405161013c9190611f83565b60405180910390f35b61014d610f0f565b005b610157610f23565b6040516101649190611fad565b60405180910390f35b61018760048036038101906101829190611f14565b610f4c565b005b6101a3600480360381019061019e9190611fc8565b6116e3565b6040516101b4959493929190612082565b60405180910390f35b6101d760048036038101906101d291906120d5565b611773565b6040516101e49190611f83565b60405180910390f35b6101f56117d1565b6040516102029190611f83565b60405180910390f35b61022560048036038101906102209190612115565b6117d7565b60405161023493929190612163565b60405180910390f35b610257600480360381019061025291906123d8565b611821565b005b610273600480360381019061026e91906124af565b6119fa565b005b61027d611a7d565b600081116102c0576040517f08c379a00000000000000000000000000000000000000000000000000000000081526004016102b790612539565b60405180910390fd5b806002819055507f8249ec545e68f6f1e1230133ca48c704d831a7f8e635ded80f3dd9e99b09bb2f816040516102f69190611f83565b60405180910390a150565b6103203373ffffffffffffffffffffffffffffffffffffffff16611afb565b15610360576040517f08c379a0000000000000000000000000000000000000000000000000000000008152600401610357906125a5565b60405180910390fd5b3273ffffffffffffffffffffffffffffffffffffffff163373ffffffffffffffffffffffffffffffffffffffff16146103ce576040517f08c379a00000000000000000000000000000000000000000000000000000000081526004016103c590612611565b60405180910390fd5b600073ffffffffffffffffffffffffffffffffffffffff16600460008373ffffffffffffffffffffffffffffffffffffffff1673ffffffffffffffffffffffffffffffffffffffff16815260200190815260200160002060000160009054906101000a900473ffffffffffffffffffffffffffffffffffffffff1673ffffffffffffffffffffffffffffffffffffffff160361049f576040517f08c379a0000000000000000000000000000000000000000000000000000000008152600401610496906126a3565b60405180910390fd5b600083839050116104e5576040517f08c379a00000000000000000000000000000000000000000000000000000000081526004016104dc9061270f565b60405180910390fd5b600080600090505b848490508110156108f4576000600360008573ffffffffffffffffffffffffffffffffffffffff1673ffffffffffffffffffffffffffffffffffffffff168152602001908152602001600020600087878581811061054e5761054d61272f565b5b9050602002013581526020019081526020016000206040518060a00160405290816000820160009054906101000a900473ffffffffffffffffffffffffffffffffffffffff1673ffffffffffffffffffffffffffffffffffffffff1673ffffffffffffffffffffffffffffffffffffffff16815260200160018201548152602001600282015481526020016003820160009054906101000a900460ff161515151581526020016003820160019054906101000a900473ffffffffffffffffffffffffffffffffffffffff1673ffffffffffffffffffffffffffffffffffffffff1673ffffffffffffffffffffffffffffffffffffffff168152505090503373ffffffffffffffffffffffffffffffffffffffff16816000015173ffffffffffffffffffffffffffffffffffffffff16146106bd576040517f08c379a00000000000000000000000000000000000000000000000000000000081526004016106b4906127aa565b60405180910390fd5b4260025482602001516106d091906127f9565b10610710576040517f08c379a000000000000000000000000000000000000000000000000000000000815260040161070790612879565b60405180910390fd5b806060015115610755576040517f08c379a000000000000000000000000000000000000000000000000000000000815260040161074c906128e5565b60405180910390fd5b600061077a87878581811061076d5761076c61272f565b5b9050602002013586611b1e565b9050600082604001518261078e9190612905565b9050600460008773ffffffffffffffffffffffffffffffffffffffff1673ffffffffffffffffffffffffffffffffffffffff16815260200190815260200160002060000160009054906101000a900473ffffffffffffffffffffffffffffffffffffffff1673ffffffffffffffffffffffffffffffffffffffff166340c10f1933836040518363ffffffff1660e01b815260040161082d929190612939565b600060405180830381600087803b15801561084757600080fd5b505af115801561085b573d6000803e3d6000fd5b50505050808561086b91906127f9565b945081600360008873ffffffffffffffffffffffffffffffffffffffff1673ffffffffffffffffffffffffffffffffffffffff16815260200190815260200160002060008a8a888181106108c2576108c161272f565b5b9050602002013581526020019081526020016000206002018190555050505080806108ec90612962565b9150506104ed565b503373ffffffffffffffffffffffffffffffffffffffff167f37826be3c26dbad83731f4b985f22fa9ef86b6d1974cd77208332b7f1f283c0c85858460405161093f93929190612a25565b60405180910390a250505050565b61096c3373ffffffffffffffffffffffffffffffffffffffff16611afb565b156109ac576040517f08c379a00000000000000000000000000000000000000000000000000000000081526004016109a3906125a5565b60405180910390fd5b3273ffffffffffffffffffffffffffffffffffffffff163373ffffffffffffffffffffffffffffffffffffffff1614610a1a576040517f08c379a0000000000000000000000000000000000000000000000000000000008152600401610a1190612611565b60405180910390fd5b600260015403610a5f576040517f08c379a0000000000000000000000000000000000000000000000000000000008152600401610a5690612aa3565b60405180910390fd5b6002600181905550600073ffffffffffffffffffffffffffffffffffffffff16600460008373ffffffffffffffffffffffffffffffffffffffff1673ffffffffffffffffffffffffffffffffffffffff16815260200190815260200160002060000160009054906101000a900473ffffffffffffffffffffffffffffffffffffffff1673ffffffffffffffffffffffffffffffffffffffff1603610b38576040517f08c379a0000000000000000000000000000000000000000000000000000000008152600401610b2f906126a3565b60405180910390fd5b60008383905011610b7e576040517f08c379a0000000000000000000000000000000000000000000000000000000008152600401610b759061270f565b60405180910390fd5b60005b83839050811015610eac573373ffffffffffffffffffffffffffffffffffffffff168273ffffffffffffffffffffffffffffffffffffffff16636352211e868685818110610bd257610bd161272f565b5b905060200201356040518263ffffffff1660e01b8152600401610bf59190611f83565b602060405180830381865afa158015610c12573d6000803e3d6000fd5b505050506040513d601f19601f82011682018060405250810190610c369190612ad8565b73ffffffffffffffffffffffffffffffffffffffff1614610c8c576040517f08c379a0000000000000000000000000000000000000000000000000000000008152600401610c8390612b51565b60405180910390fd5b8173ffffffffffffffffffffffffffffffffffffffff166323b872dd3330878786818110610cbd57610cbc61272f565b5b905060200201356040518463ffffffff1660e01b8152600401610ce293929190612b71565b600060405180830381600087803b158015610cfc57600080fd5b505af1158015610d10573d6000803e3d6000fd5b505050506040518060a001604052803373ffffffffffffffffffffffffffffffffffffffff168152602001428152602001600081526020016000151581526020018373ffffffffffffffffffffffffffffffffffffffff16815250600360008473ffffffffffffffffffffffffffffffffffffffff1673ffffffffffffffffffffffffffffffffffffffff1681526020019081526020016000206000868685818110610dbf57610dbe61272f565b5b90506020020135815260200190815260200160002060008201518160000160006101000a81548173ffffffffffffffffffffffffffffffffffffffff021916908373ffffffffffffffffffffffffffffffffffffffff160217905550602082015181600101556040820151816002015560608201518160030160006101000a81548160ff02191690831515021790555060808201518160030160016101000a81548173ffffffffffffffffffffffffffffffffffffffff021916908373ffffffffffffffffffffffffffffffffffffffff1602179055509050508080610ea490612962565b915050610b81565b503373ffffffffffffffffffffffffffffffffffffffff167f458be0227bccc9e803dec79bd16767eeaf9925d2ce708eeed7ae1f3621f968f98484604051610ef5929190612ba8565b60405180910390a260018081905550505050565b60025481565b610f17611a7d565b610f216000611cfc565b565b60008060009054906101000a900473ffffffffffffffffffffffffffffffffffffffff16905090565b610f6b3373ffffffffffffffffffffffffffffffffffffffff16611afb565b15610fab576040517f08c379a0000000000000000000000000000000000000000000000000000000008152600401610fa2906125a5565b60405180910390fd5b3273ffffffffffffffffffffffffffffffffffffffff163373ffffffffffffffffffffffffffffffffffffffff1614611019576040517f08c379a000000000000000000000000000000000000000000000000000000000815260040161101090612611565b60405180910390fd5b60026001540361105e576040517f08c379a000000000000000000000000000000000000000000000000000000000815260040161105590612aa3565b60405180910390fd5b6002600181905550600073ffffffffffffffffffffffffffffffffffffffff16600460008373ffffffffffffffffffffffffffffffffffffffff1673ffffffffffffffffffffffffffffffffffffffff16815260200190815260200160002060000160009054906101000a900473ffffffffffffffffffffffffffffffffffffffff1673ffffffffffffffffffffffffffffffffffffffff1603611137576040517f08c379a000000000000000000000000000000000000000000000000000000000815260040161112e906126a3565b60405180910390fd5b6000838390501161117d576040517f08c379a00000000000000000000000000000000000000000000000000000000081526004016111749061270f565b60405180910390fd5b60005b83839050811015611686576000600360008473ffffffffffffffffffffffffffffffffffffffff1673ffffffffffffffffffffffffffffffffffffffff16815260200190815260200160002060008686858181106111e1576111e061272f565b5b9050602002013581526020019081526020016000206040518060a00160405290816000820160009054906101000a900473ffffffffffffffffffffffffffffffffffffffff1673ffffffffffffffffffffffffffffffffffffffff1673ffffffffffffffffffffffffffffffffffffffff16815260200160018201548152602001600282015481526020016003820160009054906101000a900460ff161515151581526020016003820160019054906101000a900473ffffffffffffffffffffffffffffffffffffffff1673ffffffffffffffffffffffffffffffffffffffff1673ffffffffffffffffffffffffffffffffffffffff168152505090503373ffffffffffffffffffffffffffffffffffffffff16816000015173ffffffffffffffffffffffffffffffffffffffff1614611350576040517f08c379a0000000000000000000000000000000000000000000000000000000008152600401611347906127aa565b60405180910390fd5b42600254826020015161136391906127f9565b106113a3576040517f08c379a000000000000000000000000000000000000000000000000000000000815260040161139a90612c18565b60405180910390fd5b8060600151156113e8576040517f08c379a00000000000000000000000000000000000000000000000000000000081526004016113df906128e5565b60405180910390fd5b8273ffffffffffffffffffffffffffffffffffffffff166323b872dd30338888878181106114195761141861272f565b5b905060200201356040518463ffffffff1660e01b815260040161143e93929190612b71565b600060405180830381600087803b15801561145857600080fd5b505af115801561146c573d6000803e3d6000fd5b5050505060006114958686858181106114885761148761272f565b5b9050602002013585611b1e565b905060008260400151826114a99190612905565b9050600460008673ffffffffffffffffffffffffffffffffffffffff1673ffffffffffffffffffffffffffffffffffffffff16815260200190815260200160002060000160009054906101000a900473ffffffffffffffffffffffffffffffffffffffff1673ffffffffffffffffffffffffffffffffffffffff166340c10f1933836040518363ffffffff1660e01b8152600401611548929190612939565b600060405180830381600087803b15801561156257600080fd5b505af1158015611576573d6000803e3d6000fd5b5050505081600360008773ffffffffffffffffffffffffffffffffffffffff1673ffffffffffffffffffffffffffffffffffffffff16815260200190815260200160002060008989888181106115cf576115ce61272f565b5b905060200201358152602001908152602001600020600201819055506001600360008773ffffffffffffffffffffffffffffffffffffffff1673ffffffffffffffffffffffffffffffffffffffff16815260200190815260200160002060008989888181106116415761164061272f565b5b90506020020135815260200190815260200160002060030160006101000a81548160ff021916908315150217905550505050808061167e90612962565b915050611180565b503373ffffffffffffffffffffffffffffffffffffffff167f5cb48022479b9ac3bfb10a27965dc010acffc9fc1bc9a52f0b18975b944b54ca84846040516116cf929190612ba8565b60405180910390a260018081905550505050565b6003602052816000526040600020602052806000526040600020600091509150508060000160009054906101000a900473ffffffffffffffffffffffffffffffffffffffff16908060010154908060020154908060030160009054906101000a900460ff16908060030160019054906101000a900473ffffffffffffffffffffffffffffffffffffffff16905085565b6000600360008373ffffffffffffffffffffffffffffffffffffffff1673ffffffffffffffffffffffffffffffffffffffff168152602001908152602001600020600084815260200190815260200160002060020154905092915050565b60055481565b60046020528060005260406000206000915090508060000160009054906101000a900473ffffffffffffffffffffffffffffffffffffffff16908060010154908060020154905083565b611829611a7d565b60005b84518110156119f3578381815181106118485761184761272f565b5b6020026020010151600460008784815181106118675761186661272f565b5b602002602001015173ffffffffffffffffffffffffffffffffffffffff1673ffffffffffffffffffffffffffffffffffffffff16815260200190815260200160002060000160006101000a81548173ffffffffffffffffffffffffffffffffffffffff021916908373ffffffffffffffffffffffffffffffffffffffff1602179055508281815181106118fd576118fc61272f565b5b60200260200101516004600087848151811061191c5761191b61272f565b5b602002602001015173ffffffffffffffffffffffffffffffffffffffff1673ffffffffffffffffffffffffffffffffffffffff168152602001908152602001600020600101819055508181815181106119785761197761272f565b5b6020026020010151600460008784815181106119975761199661272f565b5b602002602001015173ffffffffffffffffffffffffffffffffffffffff1673ffffffffffffffffffffffffffffffffffffffff1681526020019081526020016000206002018190555080806119eb90612962565b91505061182c565b5050505050565b611a02611a7d565b600073ffffffffffffffffffffffffffffffffffffffff168173ffffffffffffffffffffffffffffffffffffffff1603611a71576040517f08c379a0000000000000000000000000000000000000000000000000000000008152600401611a6890612caa565b60405180910390fd5b611a7a81611cfc565b50565b611a85611dc0565b73ffffffffffffffffffffffffffffffffffffffff16611aa3610f23565b73ffffffffffffffffffffffffffffffffffffffff1614611af9576040517f08c379a0000000000000000000000000000000000000000000000000000000008152600401611af090612d16565b60405180910390fd5b565b6000808273ffffffffffffffffffffffffffffffffffffffff163b119050919050565b600080600360008473ffffffffffffffffffffffffffffffffffffffff1673ffffffffffffffffffffffffffffffffffffffff16815260200190815260200160002060008581526020019081526020016000206040518060a00160405290816000820160009054906101000a900473ffffffffffffffffffffffffffffffffffffffff1673ffffffffffffffffffffffffffffffffffffffff1673ffffffffffffffffffffffffffffffffffffffff16815260200160018201548152602001600282015481526020016003820160009054906101000a900460ff161515151581526020016003820160019054906101000a900473ffffffffffffffffffffffffffffffffffffffff1673ffffffffffffffffffffffffffffffffffffffff1673ffffffffffffffffffffffffffffffffffffffff168152505090506000816020015142611c6b9190612905565b90506000600254821015611c855760009350505050611cf6565b60055460025483611c969190612905565b600460008873ffffffffffffffffffffffffffffffffffffffff1673ffffffffffffffffffffffffffffffffffffffff16815260200190815260200160002060010154611ce39190612d36565b611ced9190612dbf565b90508093505050505b92915050565b60008060009054906101000a900473ffffffffffffffffffffffffffffffffffffffff169050816000806101000a81548173ffffffffffffffffffffffffffffffffffffffff021916908373ffffffffffffffffffffffffffffffffffffffff1602179055508173ffffffffffffffffffffffffffffffffffffffff168173ffffffffffffffffffffffffffffffffffffffff167f8be0079c531659141344cd1fd0a4f28419497f9722a3daafe3b4186f6b6457e060405160405180910390a35050565b600033905090565b6000604051905090565b600080fd5b600080fd5b6000819050919050565b611def81611ddc565b8114611dfa57600080fd5b50565b600081359050611e0c81611de6565b92915050565b600060208284031215611e2857611e27611dd2565b5b6000611e3684828501611dfd565b91505092915050565b600080fd5b600080fd5b600080fd5b60008083601f840112611e6457611e63611e3f565b5b8235905067ffffffffffffffff811115611e8157611e80611e44565b5b602083019150836020820283011115611e9d57611e9c611e49565b5b9250929050565b600073ffffffffffffffffffffffffffffffffffffffff82169050919050565b6000611ecf82611ea4565b9050919050565b6000611ee182611ec4565b9050919050565b611ef181611ed6565b8114611efc57600080fd5b50565b600081359050611f0e81611ee8565b92915050565b600080600060408486031215611f2d57611f2c611dd2565b5b600084013567ffffffffffffffff811115611f4b57611f4a611dd7565b5b611f5786828701611e4e565b93509350506020611f6a86828701611eff565b9150509250925092565b611f7d81611ddc565b82525050565b6000602082019050611f986000830184611f74565b92915050565b611fa781611ec4565b82525050565b6000602082019050611fc26000830184611f9e565b92915050565b60008060408385031215611fdf57611fde611dd2565b5b6000611fed85828601611eff565b9250506020611ffe85828601611dfd565b9150509250929050565b60008115159050919050565b61201d81612008565b82525050565b6000819050919050565b600061204861204361203e84611ea4565b612023565b611ea4565b9050919050565b600061205a8261202d565b9050919050565b600061206c8261204f565b9050919050565b61207c81612061565b82525050565b600060a0820190506120976000830188611f9e565b6120a46020830187611f74565b6120b16040830186611f74565b6120be6060830185612014565b6120cb6080830184612073565b9695505050505050565b600080604083850312156120ec576120eb611dd2565b5b60006120fa85828601611dfd565b925050602061210b85828601611eff565b9150509250929050565b60006020828403121561212b5761212a611dd2565b5b600061213984828501611eff565b91505092915050565b600061214d8261204f565b9050919050565b61215d81612142565b82525050565b60006060820190506121786000830186612154565b6121856020830185611f74565b6121926040830184611f74565b949350505050565b6000601f19601f8301169050919050565b7f4e487b7100000000000000000000000000000000000000000000000000000000600052604160045260246000fd5b6121e38261219a565b810181811067ffffffffffffffff82111715612202576122016121ab565b5b80604052505050565b6000612215611dc8565b905061222182826121da565b919050565b600067ffffffffffffffff821115612241576122406121ab565b5b602082029050602081019050919050565b61225b81611ec4565b811461226657600080fd5b50565b60008135905061227881612252565b92915050565b600061229161228c84612226565b61220b565b905080838252602082019050602084028301858111156122b4576122b3611e49565b5b835b818110156122dd57806122c98882612269565b8452602084019350506020810190506122b6565b5050509392505050565b600082601f8301126122fc576122fb611e3f565b5b813561230c84826020860161227e565b91505092915050565b600067ffffffffffffffff8211156123305761232f6121ab565b5b602082029050602081019050919050565b600061235461234f84612315565b61220b565b9050808382526020820190506020840283018581111561237757612376611e49565b5b835b818110156123a0578061238c8882611dfd565b845260208401935050602081019050612379565b5050509392505050565b600082601f8301126123bf576123be611e3f565b5b81356123cf848260208601612341565b91505092915050565b600080600080608085870312156123f2576123f1611dd2565b5b600085013567ffffffffffffffff8111156124105761240f611dd7565b5b61241c878288016122e7565b945050602085013567ffffffffffffffff81111561243d5761243c611dd7565b5b612449878288016122e7565b935050604085013567ffffffffffffffff81111561246a57612469611dd7565b5b612476878288016123aa565b925050606085013567ffffffffffffffff81111561249757612496611dd7565b5b6124a3878288016123aa565b91505092959194509250565b6000602082840312156124c5576124c4611dd2565b5b60006124d384828501612269565b91505092915050565b600082825260208201905092915050565b7f496e76616c6964206c6f636b20706572696f642e000000000000000000000000600082015250565b60006125236014836124dc565b915061252e826124ed565b602082019050919050565b6000602082019050818103600083015261255281612516565b9050919050565b7f436f6e7472616374206e6f7420616c6c6f776564000000000000000000000000600082015250565b600061258f6014836124dc565b915061259a82612559565b602082019050919050565b600060208201905081810360008301526125be81612582565b9050919050565b7f50726f787920636f6e7472616374206e6f7420616c6c6f776564000000000000600082015250565b60006125fb601a836124dc565b9150612606826125c5565b602082019050919050565b6000602082019050818103600083015261262a816125ee565b9050919050565b7f5374616b696e673a20526567697374657220636f6c6c656374696f6e2062792060008201527f6164645374616b696e674e667473000000000000000000000000000000000000602082015250565b600061268d602e836124dc565b915061269882612631565b604082019050919050565b600060208201905081810360008301526126bc81612680565b9050919050565b7f4e6f20746f6b656e730000000000000000000000000000000000000000000000600082015250565b60006126f96009836124dc565b9150612704826126c3565b602082019050919050565b60006020820190508181036000830152612728816126ec565b9050919050565b7f4e487b7100000000000000000000000000000000000000000000000000000000600052603260045260246000fd5b7f4e6f74206120746f6b656e206f776e6572000000000000000000000000000000600082015250565b60006127946011836124dc565b915061279f8261275e565b602082019050919050565b600060208201905081810360008301526127c381612787565b9050919050565b7f4e487b7100000000000000000000000000000000000000000000000000000000600052601160045260246000fd5b600061280482611ddc565b915061280f83611ddc565b9250828201905080821115612827576128266127ca565b5b92915050565b7f4e6f742061626c6520746f20636c61696d207965740000000000000000000000600082015250565b60006128636015836124dc565b915061286e8261282d565b602082019050919050565b6000602082019050818103600083015261289281612856565b9050919050565b7f416c726561647920756e6c6f636b656400000000000000000000000000000000600082015250565b60006128cf6010836124dc565b91506128da82612899565b602082019050919050565b600060208201905081810360008301526128fe816128c2565b9050919050565b600061291082611ddc565b915061291b83611ddc565b9250828203905081811115612933576129326127ca565b5b92915050565b600060408201905061294e6000830185611f9e565b61295b6020830184611f74565b9392505050565b600061296d82611ddc565b91507fffffffffffffffffffffffffffffffffffffffffffffffffffffffffffffffff820361299f5761299e6127ca565b5b600182019050919050565b600082825260208201905092915050565b600080fd5b82818337505050565b60006129d583856129aa565b93507f07ffffffffffffffffffffffffffffffffffffffffffffffffffffffffffffff831115612a0857612a076129bb565b5b602083029250612a198385846129c0565b82840190509392505050565b60006040820190508181036000830152612a408185876129c9565b9050612a4f6020830184611f74565b949350505050565b7f5265656e7472616e637947756172643a207265656e7472616e742063616c6c00600082015250565b6000612a8d601f836124dc565b9150612a9882612a57565b602082019050919050565b60006020820190508181036000830152612abc81612a80565b9050919050565b600081519050612ad281612252565b92915050565b600060208284031215612aee57612aed611dd2565b5b6000612afc84828501612ac3565b91505092915050565b7f596f7520646f6e277420686f6c64207468697320746f6b656e00000000000000600082015250565b6000612b3b6019836124dc565b9150612b4682612b05565b602082019050919050565b60006020820190508181036000830152612b6a81612b2e565b9050919050565b6000606082019050612b866000830186611f9e565b612b936020830185611f9e565b612ba06040830184611f74565b949350505050565b60006020820190508181036000830152612bc38184866129c9565b90509392505050565b7f4e6f742061626c6520746f20756e6c6f636b2079657400000000000000000000600082015250565b6000612c026016836124dc565b9150612c0d82612bcc565b602082019050919050565b60006020820190508181036000830152612c3181612bf5565b9050919050565b7f4f776e61626c653a206e6577206f776e657220697320746865207a65726f206160008201527f6464726573730000000000000000000000000000000000000000000000000000602082015250565b6000612c946026836124dc565b9150612c9f82612c38565b604082019050919050565b60006020820190508181036000830152612cc381612c87565b9050919050565b7f4f776e61626c653a2063616c6c6572206973206e6f7420746865206f776e6572600082015250565b6000612d006020836124dc565b9150612d0b82612cca565b602082019050919050565b60006020820190508181036000830152612d2f81612cf3565b9050919050565b6000612d4182611ddc565b9150612d4c83611ddc565b9250817fffffffffffffffffffffffffffffffffffffffffffffffffffffffffffffffff0483118215151615612d8557612d846127ca565b5b828202905092915050565b7f4e487b7100000000000000000000000000000000000000000000000000000000600052601260045260246000fd5b6000612dca82611ddc565b9150612dd583611ddc565b925082612de557612de4612d90565b5b82820490509291505056fea2646970667358221220a1b0734d7ce6f45410c57f8360f6e9c1765c607095a3e4c8a53d0dc0e3fed64164736f6c63430008100033",
					"opcodes": "PUSH1 0x80 PUSH1 0x40 MSTORE CALLVALUE DUP1 ISZERO PUSH3 0x11 JUMPI PUSH1 0x0 DUP1 REVERT JUMPDEST POP PUSH1 0x40 MLOAD PUSH3 0x30C6 CODESIZE SUB DUP1 PUSH3 0x30C6 DUP4 CODECOPY DUP2 DUP2 ADD PUSH1 0x40 MSTORE DUP2 ADD SWAP1 PUSH3 0x37 SWAP2 SWAP1 PUSH3 0x1C6 JUMP JUMPDEST PUSH3 0x57 PUSH3 0x4B PUSH3 0xBA PUSH1 0x20 SHL PUSH1 0x20 SHR JUMP JUMPDEST PUSH3 0xC2 PUSH1 0x20 SHL PUSH1 0x20 SHR JUMP JUMPDEST PUSH1 0x1 DUP1 DUP2 SWAP1 SSTORE POP PUSH1 0x0 DUP3 GT PUSH3 0xA4 JUMPI PUSH1 0x40 MLOAD PUSH32 0x8C379A000000000000000000000000000000000000000000000000000000000 DUP2 MSTORE PUSH1 0x4 ADD PUSH3 0x9B SWAP1 PUSH3 0x26E JUMP JUMPDEST PUSH1 0x40 MLOAD DUP1 SWAP2 SUB SWAP1 REVERT JUMPDEST DUP2 PUSH1 0x2 DUP2 SWAP1 SSTORE POP DUP1 PUSH1 0x5 DUP2 SWAP1 SSTORE POP POP POP PUSH3 0x290 JUMP JUMPDEST PUSH1 0x0 CALLER SWAP1 POP SWAP1 JUMP JUMPDEST PUSH1 0x0 DUP1 PUSH1 0x0 SWAP1 SLOAD SWAP1 PUSH2 0x100 EXP SWAP1 DIV PUSH20 0xFFFFFFFFFFFFFFFFFFFFFFFFFFFFFFFFFFFFFFFF AND SWAP1 POP DUP2 PUSH1 0x0 DUP1 PUSH2 0x100 EXP DUP2 SLOAD DUP2 PUSH20 0xFFFFFFFFFFFFFFFFFFFFFFFFFFFFFFFFFFFFFFFF MUL NOT AND SWAP1 DUP4 PUSH20 0xFFFFFFFFFFFFFFFFFFFFFFFFFFFFFFFFFFFFFFFF AND MUL OR SWAP1 SSTORE POP DUP2 PUSH20 0xFFFFFFFFFFFFFFFFFFFFFFFFFFFFFFFFFFFFFFFF AND DUP2 PUSH20 0xFFFFFFFFFFFFFFFFFFFFFFFFFFFFFFFFFFFFFFFF AND PUSH32 0x8BE0079C531659141344CD1FD0A4F28419497F9722A3DAAFE3B4186F6B6457E0 PUSH1 0x40 MLOAD PUSH1 0x40 MLOAD DUP1 SWAP2 SUB SWAP1 LOG3 POP POP JUMP JUMPDEST PUSH1 0x0 DUP1 REVERT JUMPDEST PUSH1 0x0 DUP2 SWAP1 POP SWAP2 SWAP1 POP JUMP JUMPDEST PUSH3 0x1A0 DUP2 PUSH3 0x18B JUMP JUMPDEST DUP2 EQ PUSH3 0x1AC JUMPI PUSH1 0x0 DUP1 REVERT JUMPDEST POP JUMP JUMPDEST PUSH1 0x0 DUP2 MLOAD SWAP1 POP PUSH3 0x1C0 DUP2 PUSH3 0x195 JUMP JUMPDEST SWAP3 SWAP2 POP POP JUMP JUMPDEST PUSH1 0x0 DUP1 PUSH1 0x40 DUP4 DUP6 SUB SLT ISZERO PUSH3 0x1E0 JUMPI PUSH3 0x1DF PUSH3 0x186 JUMP JUMPDEST JUMPDEST PUSH1 0x0 PUSH3 0x1F0 DUP6 DUP3 DUP7 ADD PUSH3 0x1AF JUMP JUMPDEST SWAP3 POP POP PUSH1 0x20 PUSH3 0x203 DUP6 DUP3 DUP7 ADD PUSH3 0x1AF JUMP JUMPDEST SWAP2 POP POP SWAP3 POP SWAP3 SWAP1 POP JUMP JUMPDEST PUSH1 0x0 DUP3 DUP3 MSTORE PUSH1 0x20 DUP3 ADD SWAP1 POP SWAP3 SWAP2 POP POP JUMP JUMPDEST PUSH32 0x496E76616C6964206C6F636B20706572696F6400000000000000000000000000 PUSH1 0x0 DUP3 ADD MSTORE POP JUMP JUMPDEST PUSH1 0x0 PUSH3 0x256 PUSH1 0x13 DUP4 PUSH3 0x20D JUMP JUMPDEST SWAP2 POP PUSH3 0x263 DUP3 PUSH3 0x21E JUMP JUMPDEST PUSH1 0x20 DUP3 ADD SWAP1 POP SWAP2 SWAP1 POP JUMP JUMPDEST PUSH1 0x0 PUSH1 0x20 DUP3 ADD SWAP1 POP DUP2 DUP2 SUB PUSH1 0x0 DUP4 ADD MSTORE PUSH3 0x289 DUP2 PUSH3 0x247 JUMP JUMPDEST SWAP1 POP SWAP2 SWAP1 POP JUMP JUMPDEST PUSH2 0x2E26 DUP1 PUSH3 0x2A0 PUSH1 0x0 CODECOPY PUSH1 0x0 RETURN INVALID PUSH1 0x80 PUSH1 0x40 MSTORE CALLVALUE DUP1 ISZERO PUSH2 0x10 JUMPI PUSH1 0x0 DUP1 REVERT JUMPDEST POP PUSH1 0x4 CALLDATASIZE LT PUSH2 0xCE JUMPI PUSH1 0x0 CALLDATALOAD PUSH1 0xE0 SHR DUP1 PUSH4 0x9F3625F0 GT PUSH2 0x8C JUMPI DUP1 PUSH4 0xC69D1923 GT PUSH2 0x66 JUMPI DUP1 PUSH4 0xC69D1923 EQ PUSH2 0x1ED JUMPI DUP1 PUSH4 0xE9545B92 EQ PUSH2 0x20B JUMPI DUP1 PUSH4 0xEEE00ED0 EQ PUSH2 0x23D JUMPI DUP1 PUSH4 0xF2FDE38B EQ PUSH2 0x259 JUMPI PUSH2 0xCE JUMP JUMPDEST DUP1 PUSH4 0x9F3625F0 EQ PUSH2 0x16D JUMPI DUP1 PUSH4 0xB2520A7C EQ PUSH2 0x189 JUMPI DUP1 PUSH4 0xB33068C4 EQ PUSH2 0x1BD JUMPI PUSH2 0xCE JUMP JUMPDEST DUP1 PUSH3 0x574D23 EQ PUSH2 0xD3 JUMPI DUP1 PUSH4 0x520537F EQ PUSH2 0xEF JUMPI DUP1 PUSH4 0x1902732E EQ PUSH2 0x10B JUMPI DUP1 PUSH4 0x3FD8B02F EQ PUSH2 0x127 JUMPI DUP1 PUSH4 0x715018A6 EQ PUSH2 0x145 JUMPI DUP1 PUSH4 0x8DA5CB5B EQ PUSH2 0x14F JUMPI JUMPDEST PUSH1 0x0 DUP1 REVERT JUMPDEST PUSH2 0xED PUSH1 0x4 DUP1 CALLDATASIZE SUB DUP2 ADD SWAP1 PUSH2 0xE8 SWAP2 SWAP1 PUSH2 0x1E12 JUMP JUMPDEST PUSH2 0x275 JUMP JUMPDEST STOP JUMPDEST PUSH2 0x109 PUSH1 0x4 DUP1 CALLDATASIZE SUB DUP2 ADD SWAP1 PUSH2 0x104 SWAP2 SWAP1 PUSH2 0x1F14 JUMP JUMPDEST PUSH2 0x301 JUMP JUMPDEST STOP JUMPDEST PUSH2 0x125 PUSH1 0x4 DUP1 CALLDATASIZE SUB DUP2 ADD SWAP1 PUSH2 0x120 SWAP2 SWAP1 PUSH2 0x1F14 JUMP JUMPDEST PUSH2 0x94D JUMP JUMPDEST STOP JUMPDEST PUSH2 0x12F PUSH2 0xF09 JUMP JUMPDEST PUSH1 0x40 MLOAD PUSH2 0x13C SWAP2 SWAP1 PUSH2 0x1F83 JUMP JUMPDEST PUSH1 0x40 MLOAD DUP1 SWAP2 SUB SWAP1 RETURN JUMPDEST PUSH2 0x14D PUSH2 0xF0F JUMP JUMPDEST STOP JUMPDEST PUSH2 0x157 PUSH2 0xF23 JUMP JUMPDEST PUSH1 0x40 MLOAD PUSH2 0x164 SWAP2 SWAP1 PUSH2 0x1FAD JUMP JUMPDEST PUSH1 0x40 MLOAD DUP1 SWAP2 SUB SWAP1 RETURN JUMPDEST PUSH2 0x187 PUSH1 0x4 DUP1 CALLDATASIZE SUB DUP2 ADD SWAP1 PUSH2 0x182 SWAP2 SWAP1 PUSH2 0x1F14 JUMP JUMPDEST PUSH2 0xF4C JUMP JUMPDEST STOP JUMPDEST PUSH2 0x1A3 PUSH1 0x4 DUP1 CALLDATASIZE SUB DUP2 ADD SWAP1 PUSH2 0x19E SWAP2 SWAP1 PUSH2 0x1FC8 JUMP JUMPDEST PUSH2 0x16E3 JUMP JUMPDEST PUSH1 0x40 MLOAD PUSH2 0x1B4 SWAP6 SWAP5 SWAP4 SWAP3 SWAP2 SWAP1 PUSH2 0x2082 JUMP JUMPDEST PUSH1 0x40 MLOAD DUP1 SWAP2 SUB SWAP1 RETURN JUMPDEST PUSH2 0x1D7 PUSH1 0x4 DUP1 CALLDATASIZE SUB DUP2 ADD SWAP1 PUSH2 0x1D2 SWAP2 SWAP1 PUSH2 0x20D5 JUMP JUMPDEST PUSH2 0x1773 JUMP JUMPDEST PUSH1 0x40 MLOAD PUSH2 0x1E4 SWAP2 SWAP1 PUSH2 0x1F83 JUMP JUMPDEST PUSH1 0x40 MLOAD DUP1 SWAP2 SUB SWAP1 RETURN JUMPDEST PUSH2 0x1F5 PUSH2 0x17D1 JUMP JUMPDEST PUSH1 0x40 MLOAD PUSH2 0x202 SWAP2 SWAP1 PUSH2 0x1F83 JUMP JUMPDEST PUSH1 0x40 MLOAD DUP1 SWAP2 SUB SWAP1 RETURN JUMPDEST PUSH2 0x225 PUSH1 0x4 DUP1 CALLDATASIZE SUB DUP2 ADD SWAP1 PUSH2 0x220 SWAP2 SWAP1 PUSH2 0x2115 JUMP JUMPDEST PUSH2 0x17D7 JUMP JUMPDEST PUSH1 0x40 MLOAD PUSH2 0x234 SWAP4 SWAP3 SWAP2 SWAP1 PUSH2 0x2163 JUMP JUMPDEST PUSH1 0x40 MLOAD DUP1 SWAP2 SUB SWAP1 RETURN JUMPDEST PUSH2 0x257 PUSH1 0x4 DUP1 CALLDATASIZE SUB DUP2 ADD SWAP1 PUSH2 0x252 SWAP2 SWAP1 PUSH2 0x23D8 JUMP JUMPDEST PUSH2 0x1821 JUMP JUMPDEST STOP JUMPDEST PUSH2 0x273 PUSH1 0x4 DUP1 CALLDATASIZE SUB DUP2 ADD SWAP1 PUSH2 0x26E SWAP2 SWAP1 PUSH2 0x24AF JUMP JUMPDEST PUSH2 0x19FA JUMP JUMPDEST STOP JUMPDEST PUSH2 0x27D PUSH2 0x1A7D JUMP JUMPDEST PUSH1 0x0 DUP2 GT PUSH2 0x2C0 JUMPI PUSH1 0x40 MLOAD PUSH32 0x8C379A000000000000000000000000000000000000000000000000000000000 DUP2 MSTORE PUSH1 0x4 ADD PUSH2 0x2B7 SWAP1 PUSH2 0x2539 JUMP JUMPDEST PUSH1 0x40 MLOAD DUP1 SWAP2 SUB SWAP1 REVERT JUMPDEST DUP1 PUSH1 0x2 DUP2 SWAP1 SSTORE POP PUSH32 0x8249EC545E68F6F1E1230133CA48C704D831A7F8E635DED80F3DD9E99B09BB2F DUP2 PUSH1 0x40 MLOAD PUSH2 0x2F6 SWAP2 SWAP1 PUSH2 0x1F83 JUMP JUMPDEST PUSH1 0x40 MLOAD DUP1 SWAP2 SUB SWAP1 LOG1 POP JUMP JUMPDEST PUSH2 0x320 CALLER PUSH20 0xFFFFFFFFFFFFFFFFFFFFFFFFFFFFFFFFFFFFFFFF AND PUSH2 0x1AFB JUMP JUMPDEST ISZERO PUSH2 0x360 JUMPI PUSH1 0x40 MLOAD PUSH32 0x8C379A000000000000000000000000000000000000000000000000000000000 DUP2 MSTORE PUSH1 0x4 ADD PUSH2 0x357 SWAP1 PUSH2 0x25A5 JUMP JUMPDEST PUSH1 0x40 MLOAD DUP1 SWAP2 SUB SWAP1 REVERT JUMPDEST ORIGIN PUSH20 0xFFFFFFFFFFFFFFFFFFFFFFFFFFFFFFFFFFFFFFFF AND CALLER PUSH20 0xFFFFFFFFFFFFFFFFFFFFFFFFFFFFFFFFFFFFFFFF AND EQ PUSH2 0x3CE JUMPI PUSH1 0x40 MLOAD PUSH32 0x8C379A000000000000000000000000000000000000000000000000000000000 DUP2 MSTORE PUSH1 0x4 ADD PUSH2 0x3C5 SWAP1 PUSH2 0x2611 JUMP JUMPDEST PUSH1 0x40 MLOAD DUP1 SWAP2 SUB SWAP1 REVERT JUMPDEST PUSH1 0x0 PUSH20 0xFFFFFFFFFFFFFFFFFFFFFFFFFFFFFFFFFFFFFFFF AND PUSH1 0x4 PUSH1 0x0 DUP4 PUSH20 0xFFFFFFFFFFFFFFFFFFFFFFFFFFFFFFFFFFFFFFFF AND PUSH20 0xFFFFFFFFFFFFFFFFFFFFFFFFFFFFFFFFFFFFFFFF AND DUP2 MSTORE PUSH1 0x20 ADD SWAP1 DUP2 MSTORE PUSH1 0x20 ADD PUSH1 0x0 KECCAK256 PUSH1 0x0 ADD PUSH1 0x0 SWAP1 SLOAD SWAP1 PUSH2 0x100 EXP SWAP1 DIV PUSH20 0xFFFFFFFFFFFFFFFFFFFFFFFFFFFFFFFFFFFFFFFF AND PUSH20 0xFFFFFFFFFFFFFFFFFFFFFFFFFFFFFFFFFFFFFFFF AND SUB PUSH2 0x49F JUMPI PUSH1 0x40 MLOAD PUSH32 0x8C379A000000000000000000000000000000000000000000000000000000000 DUP2 MSTORE PUSH1 0x4 ADD PUSH2 0x496 SWAP1 PUSH2 0x26A3 JUMP JUMPDEST PUSH1 0x40 MLOAD DUP1 SWAP2 SUB SWAP1 REVERT JUMPDEST PUSH1 0x0 DUP4 DUP4 SWAP1 POP GT PUSH2 0x4E5 JUMPI PUSH1 0x40 MLOAD PUSH32 0x8C379A000000000000000000000000000000000000000000000000000000000 DUP2 MSTORE PUSH1 0x4 ADD PUSH2 0x4DC SWAP1 PUSH2 0x270F JUMP JUMPDEST PUSH1 0x40 MLOAD DUP1 SWAP2 SUB SWAP1 REVERT JUMPDEST PUSH1 0x0 DUP1 PUSH1 0x0 SWAP1 POP JUMPDEST DUP5 DUP5 SWAP1 POP DUP2 LT ISZERO PUSH2 0x8F4 JUMPI PUSH1 0x0 PUSH1 0x3 PUSH1 0x0 DUP6 PUSH20 0xFFFFFFFFFFFFFFFFFFFFFFFFFFFFFFFFFFFFFFFF AND PUSH20 0xFFFFFFFFFFFFFFFFFFFFFFFFFFFFFFFFFFFFFFFF AND DUP2 MSTORE PUSH1 0x20 ADD SWAP1 DUP2 MSTORE PUSH1 0x20 ADD PUSH1 0x0 KECCAK256 PUSH1 0x0 DUP8 DUP8 DUP6 DUP2 DUP2 LT PUSH2 0x54E JUMPI PUSH2 0x54D PUSH2 0x272F JUMP JUMPDEST JUMPDEST SWAP1 POP PUSH1 0x20 MUL ADD CALLDATALOAD DUP2 MSTORE PUSH1 0x20 ADD SWAP1 DUP2 MSTORE PUSH1 0x20 ADD PUSH1 0x0 KECCAK256 PUSH1 0x40 MLOAD DUP1 PUSH1 0xA0 ADD PUSH1 0x40 MSTORE SWAP1 DUP2 PUSH1 0x0 DUP3 ADD PUSH1 0x0 SWAP1 SLOAD SWAP1 PUSH2 0x100 EXP SWAP1 DIV PUSH20 0xFFFFFFFFFFFFFFFFFFFFFFFFFFFFFFFFFFFFFFFF AND PUSH20 0xFFFFFFFFFFFFFFFFFFFFFFFFFFFFFFFFFFFFFFFF AND PUSH20 0xFFFFFFFFFFFFFFFFFFFFFFFFFFFFFFFFFFFFFFFF AND DUP2 MSTORE PUSH1 0x20 ADD PUSH1 0x1 DUP3 ADD SLOAD DUP2 MSTORE PUSH1 0x20 ADD PUSH1 0x2 DUP3 ADD SLOAD DUP2 MSTORE PUSH1 0x20 ADD PUSH1 0x3 DUP3 ADD PUSH1 0x0 SWAP1 SLOAD SWAP1 PUSH2 0x100 EXP SWAP1 DIV PUSH1 0xFF AND ISZERO ISZERO ISZERO ISZERO DUP2 MSTORE PUSH1 0x20 ADD PUSH1 0x3 DUP3 ADD PUSH1 0x1 SWAP1 SLOAD SWAP1 PUSH2 0x100 EXP SWAP1 DIV PUSH20 0xFFFFFFFFFFFFFFFFFFFFFFFFFFFFFFFFFFFFFFFF AND PUSH20 0xFFFFFFFFFFFFFFFFFFFFFFFFFFFFFFFFFFFFFFFF AND PUSH20 0xFFFFFFFFFFFFFFFFFFFFFFFFFFFFFFFFFFFFFFFF AND DUP2 MSTORE POP POP SWAP1 POP CALLER PUSH20 0xFFFFFFFFFFFFFFFFFFFFFFFFFFFFFFFFFFFFFFFF AND DUP2 PUSH1 0x0 ADD MLOAD PUSH20 0xFFFFFFFFFFFFFFFFFFFFFFFFFFFFFFFFFFFFFFFF AND EQ PUSH2 0x6BD JUMPI PUSH1 0x40 MLOAD PUSH32 0x8C379A000000000000000000000000000000000000000000000000000000000 DUP2 MSTORE PUSH1 0x4 ADD PUSH2 0x6B4 SWAP1 PUSH2 0x27AA JUMP JUMPDEST PUSH1 0x40 MLOAD DUP1 SWAP2 SUB SWAP1 REVERT JUMPDEST TIMESTAMP PUSH1 0x2 SLOAD DUP3 PUSH1 0x20 ADD MLOAD PUSH2 0x6D0 SWAP2 SWAP1 PUSH2 0x27F9 JUMP JUMPDEST LT PUSH2 0x710 JUMPI PUSH1 0x40 MLOAD PUSH32 0x8C379A000000000000000000000000000000000000000000000000000000000 DUP2 MSTORE PUSH1 0x4 ADD PUSH2 0x707 SWAP1 PUSH2 0x2879 JUMP JUMPDEST PUSH1 0x40 MLOAD DUP1 SWAP2 SUB SWAP1 REVERT JUMPDEST DUP1 PUSH1 0x60 ADD MLOAD ISZERO PUSH2 0x755 JUMPI PUSH1 0x40 MLOAD PUSH32 0x8C379A000000000000000000000000000000000000000000000000000000000 DUP2 MSTORE PUSH1 0x4 ADD PUSH2 0x74C SWAP1 PUSH2 0x28E5 JUMP JUMPDEST PUSH1 0x40 MLOAD DUP1 SWAP2 SUB SWAP1 REVERT JUMPDEST PUSH1 0x0 PUSH2 0x77A DUP8 DUP8 DUP6 DUP2 DUP2 LT PUSH2 0x76D JUMPI PUSH2 0x76C PUSH2 0x272F JUMP JUMPDEST JUMPDEST SWAP1 POP PUSH1 0x20 MUL ADD CALLDATALOAD DUP7 PUSH2 0x1B1E JUMP JUMPDEST SWAP1 POP PUSH1 0x0 DUP3 PUSH1 0x40 ADD MLOAD DUP3 PUSH2 0x78E SWAP2 SWAP1 PUSH2 0x2905 JUMP JUMPDEST SWAP1 POP PUSH1 0x4 PUSH1 0x0 DUP8 PUSH20 0xFFFFFFFFFFFFFFFFFFFFFFFFFFFFFFFFFFFFFFFF AND PUSH20 0xFFFFFFFFFFFFFFFFFFFFFFFFFFFFFFFFFFFFFFFF AND DUP2 MSTORE PUSH1 0x20 ADD SWAP1 DUP2 MSTORE PUSH1 0x20 ADD PUSH1 0x0 KECCAK256 PUSH1 0x0 ADD PUSH1 0x0 SWAP1 SLOAD SWAP1 PUSH2 0x100 EXP SWAP1 DIV PUSH20 0xFFFFFFFFFFFFFFFFFFFFFFFFFFFFFFFFFFFFFFFF AND PUSH20 0xFFFFFFFFFFFFFFFFFFFFFFFFFFFFFFFFFFFFFFFF AND PUSH4 0x40C10F19 CALLER DUP4 PUSH1 0x40 MLOAD DUP4 PUSH4 0xFFFFFFFF AND PUSH1 0xE0 SHL DUP2 MSTORE PUSH1 0x4 ADD PUSH2 0x82D SWAP3 SWAP2 SWAP1 PUSH2 0x2939 JUMP JUMPDEST PUSH1 0x0 PUSH1 0x40 MLOAD DUP1 DUP4 SUB DUP2 PUSH1 0x0 DUP8 DUP1 EXTCODESIZE ISZERO DUP1 ISZERO PUSH2 0x847 JUMPI PUSH1 0x0 DUP1 REVERT JUMPDEST POP GAS CALL ISZERO DUP1 ISZERO PUSH2 0x85B JUMPI RETURNDATASIZE PUSH1 0x0 DUP1 RETURNDATACOPY RETURNDATASIZE PUSH1 0x0 REVERT JUMPDEST POP POP POP POP DUP1 DUP6 PUSH2 0x86B SWAP2 SWAP1 PUSH2 0x27F9 JUMP JUMPDEST SWAP5 POP DUP2 PUSH1 0x3 PUSH1 0x0 DUP9 PUSH20 0xFFFFFFFFFFFFFFFFFFFFFFFFFFFFFFFFFFFFFFFF AND PUSH20 0xFFFFFFFFFFFFFFFFFFFFFFFFFFFFFFFFFFFFFFFF AND DUP2 MSTORE PUSH1 0x20 ADD SWAP1 DUP2 MSTORE PUSH1 0x20 ADD PUSH1 0x0 KECCAK256 PUSH1 0x0 DUP11 DUP11 DUP9 DUP2 DUP2 LT PUSH2 0x8C2 JUMPI PUSH2 0x8C1 PUSH2 0x272F JUMP JUMPDEST JUMPDEST SWAP1 POP PUSH1 0x20 MUL ADD CALLDATALOAD DUP2 MSTORE PUSH1 0x20 ADD SWAP1 DUP2 MSTORE PUSH1 0x20 ADD PUSH1 0x0 KECCAK256 PUSH1 0x2 ADD DUP2 SWAP1 SSTORE POP POP POP POP DUP1 DUP1 PUSH2 0x8EC SWAP1 PUSH2 0x2962 JUMP JUMPDEST SWAP2 POP POP PUSH2 0x4ED JUMP JUMPDEST POP CALLER PUSH20 0xFFFFFFFFFFFFFFFFFFFFFFFFFFFFFFFFFFFFFFFF AND PUSH32 0x37826BE3C26DBAD83731F4B985F22FA9EF86B6D1974CD77208332B7F1F283C0C DUP6 DUP6 DUP5 PUSH1 0x40 MLOAD PUSH2 0x93F SWAP4 SWAP3 SWAP2 SWAP1 PUSH2 0x2A25 JUMP JUMPDEST PUSH1 0x40 MLOAD DUP1 SWAP2 SUB SWAP1 LOG2 POP POP POP POP JUMP JUMPDEST PUSH2 0x96C CALLER PUSH20 0xFFFFFFFFFFFFFFFFFFFFFFFFFFFFFFFFFFFFFFFF AND PUSH2 0x1AFB JUMP JUMPDEST ISZERO PUSH2 0x9AC JUMPI PUSH1 0x40 MLOAD PUSH32 0x8C379A000000000000000000000000000000000000000000000000000000000 DUP2 MSTORE PUSH1 0x4 ADD PUSH2 0x9A3 SWAP1 PUSH2 0x25A5 JUMP JUMPDEST PUSH1 0x40 MLOAD DUP1 SWAP2 SUB SWAP1 REVERT JUMPDEST ORIGIN PUSH20 0xFFFFFFFFFFFFFFFFFFFFFFFFFFFFFFFFFFFFFFFF AND CALLER PUSH20 0xFFFFFFFFFFFFFFFFFFFFFFFFFFFFFFFFFFFFFFFF AND EQ PUSH2 0xA1A JUMPI PUSH1 0x40 MLOAD PUSH32 0x8C379A000000000000000000000000000000000000000000000000000000000 DUP2 MSTORE PUSH1 0x4 ADD PUSH2 0xA11 SWAP1 PUSH2 0x2611 JUMP JUMPDEST PUSH1 0x40 MLOAD DUP1 SWAP2 SUB SWAP1 REVERT JUMPDEST PUSH1 0x2 PUSH1 0x1 SLOAD SUB PUSH2 0xA5F JUMPI PUSH1 0x40 MLOAD PUSH32 0x8C379A000000000000000000000000000000000000000000000000000000000 DUP2 MSTORE PUSH1 0x4 ADD PUSH2 0xA56 SWAP1 PUSH2 0x2AA3 JUMP JUMPDEST PUSH1 0x40 MLOAD DUP1 SWAP2 SUB SWAP1 REVERT JUMPDEST PUSH1 0x2 PUSH1 0x1 DUP2 SWAP1 SSTORE POP PUSH1 0x0 PUSH20 0xFFFFFFFFFFFFFFFFFFFFFFFFFFFFFFFFFFFFFFFF AND PUSH1 0x4 PUSH1 0x0 DUP4 PUSH20 0xFFFFFFFFFFFFFFFFFFFFFFFFFFFFFFFFFFFFFFFF AND PUSH20 0xFFFFFFFFFFFFFFFFFFFFFFFFFFFFFFFFFFFFFFFF AND DUP2 MSTORE PUSH1 0x20 ADD SWAP1 DUP2 MSTORE PUSH1 0x20 ADD PUSH1 0x0 KECCAK256 PUSH1 0x0 ADD PUSH1 0x0 SWAP1 SLOAD SWAP1 PUSH2 0x100 EXP SWAP1 DIV PUSH20 0xFFFFFFFFFFFFFFFFFFFFFFFFFFFFFFFFFFFFFFFF AND PUSH20 0xFFFFFFFFFFFFFFFFFFFFFFFFFFFFFFFFFFFFFFFF AND SUB PUSH2 0xB38 JUMPI PUSH1 0x40 MLOAD PUSH32 0x8C379A000000000000000000000000000000000000000000000000000000000 DUP2 MSTORE PUSH1 0x4 ADD PUSH2 0xB2F SWAP1 PUSH2 0x26A3 JUMP JUMPDEST PUSH1 0x40 MLOAD DUP1 SWAP2 SUB SWAP1 REVERT JUMPDEST PUSH1 0x0 DUP4 DUP4 SWAP1 POP GT PUSH2 0xB7E JUMPI PUSH1 0x40 MLOAD PUSH32 0x8C379A000000000000000000000000000000000000000000000000000000000 DUP2 MSTORE PUSH1 0x4 ADD PUSH2 0xB75 SWAP1 PUSH2 0x270F JUMP JUMPDEST PUSH1 0x40 MLOAD DUP1 SWAP2 SUB SWAP1 REVERT JUMPDEST PUSH1 0x0 JUMPDEST DUP4 DUP4 SWAP1 POP DUP2 LT ISZERO PUSH2 0xEAC JUMPI CALLER PUSH20 0xFFFFFFFFFFFFFFFFFFFFFFFFFFFFFFFFFFFFFFFF AND DUP3 PUSH20 0xFFFFFFFFFFFFFFFFFFFFFFFFFFFFFFFFFFFFFFFF AND PUSH4 0x6352211E DUP7 DUP7 DUP6 DUP2 DUP2 LT PUSH2 0xBD2 JUMPI PUSH2 0xBD1 PUSH2 0x272F JUMP JUMPDEST JUMPDEST SWAP1 POP PUSH1 0x20 MUL ADD CALLDATALOAD PUSH1 0x40 MLOAD DUP3 PUSH4 0xFFFFFFFF AND PUSH1 0xE0 SHL DUP2 MSTORE PUSH1 0x4 ADD PUSH2 0xBF5 SWAP2 SWAP1 PUSH2 0x1F83 JUMP JUMPDEST PUSH1 0x20 PUSH1 0x40 MLOAD DUP1 DUP4 SUB DUP2 DUP7 GAS STATICCALL ISZERO DUP1 ISZERO PUSH2 0xC12 JUMPI RETURNDATASIZE PUSH1 0x0 DUP1 RETURNDATACOPY RETURNDATASIZE PUSH1 0x0 REVERT JUMPDEST POP POP POP POP PUSH1 0x40 MLOAD RETURNDATASIZE PUSH1 0x1F NOT PUSH1 0x1F DUP3 ADD AND DUP3 ADD DUP1 PUSH1 0x40 MSTORE POP DUP2 ADD SWAP1 PUSH2 0xC36 SWAP2 SWAP1 PUSH2 0x2AD8 JUMP JUMPDEST PUSH20 0xFFFFFFFFFFFFFFFFFFFFFFFFFFFFFFFFFFFFFFFF AND EQ PUSH2 0xC8C JUMPI PUSH1 0x40 MLOAD PUSH32 0x8C379A000000000000000000000000000000000000000000000000000000000 DUP2 MSTORE PUSH1 0x4 ADD PUSH2 0xC83 SWAP1 PUSH2 0x2B51 JUMP JUMPDEST PUSH1 0x40 MLOAD DUP1 SWAP2 SUB SWAP1 REVERT JUMPDEST DUP2 PUSH20 0xFFFFFFFFFFFFFFFFFFFFFFFFFFFFFFFFFFFFFFFF AND PUSH4 0x23B872DD CALLER ADDRESS DUP8 DUP8 DUP7 DUP2 DUP2 LT PUSH2 0xCBD JUMPI PUSH2 0xCBC PUSH2 0x272F JUMP JUMPDEST JUMPDEST SWAP1 POP PUSH1 0x20 MUL ADD CALLDATALOAD PUSH1 0x40 MLOAD DUP5 PUSH4 0xFFFFFFFF AND PUSH1 0xE0 SHL DUP2 MSTORE PUSH1 0x4 ADD PUSH2 0xCE2 SWAP4 SWAP3 SWAP2 SWAP1 PUSH2 0x2B71 JUMP JUMPDEST PUSH1 0x0 PUSH1 0x40 MLOAD DUP1 DUP4 SUB DUP2 PUSH1 0x0 DUP8 DUP1 EXTCODESIZE ISZERO DUP1 ISZERO PUSH2 0xCFC JUMPI PUSH1 0x0 DUP1 REVERT JUMPDEST POP GAS CALL ISZERO DUP1 ISZERO PUSH2 0xD10 JUMPI RETURNDATASIZE PUSH1 0x0 DUP1 RETURNDATACOPY RETURNDATASIZE PUSH1 0x0 REVERT JUMPDEST POP POP POP POP PUSH1 0x40 MLOAD DUP1 PUSH1 0xA0 ADD PUSH1 0x40 MSTORE DUP1 CALLER PUSH20 0xFFFFFFFFFFFFFFFFFFFFFFFFFFFFFFFFFFFFFFFF AND DUP2 MSTORE PUSH1 0x20 ADD TIMESTAMP DUP2 MSTORE PUSH1 0x20 ADD PUSH1 0x0 DUP2 MSTORE PUSH1 0x20 ADD PUSH1 0x0 ISZERO ISZERO DUP2 MSTORE PUSH1 0x20 ADD DUP4 PUSH20 0xFFFFFFFFFFFFFFFFFFFFFFFFFFFFFFFFFFFFFFFF AND DUP2 MSTORE POP PUSH1 0x3 PUSH1 0x0 DUP5 PUSH20 0xFFFFFFFFFFFFFFFFFFFFFFFFFFFFFFFFFFFFFFFF AND PUSH20 0xFFFFFFFFFFFFFFFFFFFFFFFFFFFFFFFFFFFFFFFF AND DUP2 MSTORE PUSH1 0x20 ADD SWAP1 DUP2 MSTORE PUSH1 0x20 ADD PUSH1 0x0 KECCAK256 PUSH1 0x0 DUP7 DUP7 DUP6 DUP2 DUP2 LT PUSH2 0xDBF JUMPI PUSH2 0xDBE PUSH2 0x272F JUMP JUMPDEST JUMPDEST SWAP1 POP PUSH1 0x20 MUL ADD CALLDATALOAD DUP2 MSTORE PUSH1 0x20 ADD SWAP1 DUP2 MSTORE PUSH1 0x20 ADD PUSH1 0x0 KECCAK256 PUSH1 0x0 DUP3 ADD MLOAD DUP2 PUSH1 0x0 ADD PUSH1 0x0 PUSH2 0x100 EXP DUP2 SLOAD DUP2 PUSH20 0xFFFFFFFFFFFFFFFFFFFFFFFFFFFFFFFFFFFFFFFF MUL NOT AND SWAP1 DUP4 PUSH20 0xFFFFFFFFFFFFFFFFFFFFFFFFFFFFFFFFFFFFFFFF AND MUL OR SWAP1 SSTORE POP PUSH1 0x20 DUP3 ADD MLOAD DUP2 PUSH1 0x1 ADD SSTORE PUSH1 0x40 DUP3 ADD MLOAD DUP2 PUSH1 0x2 ADD SSTORE PUSH1 0x60 DUP3 ADD MLOAD DUP2 PUSH1 0x3 ADD PUSH1 0x0 PUSH2 0x100 EXP DUP2 SLOAD DUP2 PUSH1 0xFF MUL NOT AND SWAP1 DUP4 ISZERO ISZERO MUL OR SWAP1 SSTORE POP PUSH1 0x80 DUP3 ADD MLOAD DUP2 PUSH1 0x3 ADD PUSH1 0x1 PUSH2 0x100 EXP DUP2 SLOAD DUP2 PUSH20 0xFFFFFFFFFFFFFFFFFFFFFFFFFFFFFFFFFFFFFFFF MUL NOT AND SWAP1 DUP4 PUSH20 0xFFFFFFFFFFFFFFFFFFFFFFFFFFFFFFFFFFFFFFFF AND MUL OR SWAP1 SSTORE POP SWAP1 POP POP DUP1 DUP1 PUSH2 0xEA4 SWAP1 PUSH2 0x2962 JUMP JUMPDEST SWAP2 POP POP PUSH2 0xB81 JUMP JUMPDEST POP CALLER PUSH20 0xFFFFFFFFFFFFFFFFFFFFFFFFFFFFFFFFFFFFFFFF AND PUSH32 0x458BE0227BCCC9E803DEC79BD16767EEAF9925D2CE708EEED7AE1F3621F968F9 DUP5 DUP5 PUSH1 0x40 MLOAD PUSH2 0xEF5 SWAP3 SWAP2 SWAP1 PUSH2 0x2BA8 JUMP JUMPDEST PUSH1 0x40 MLOAD DUP1 SWAP2 SUB SWAP1 LOG2 PUSH1 0x1 DUP1 DUP2 SWAP1 SSTORE POP POP POP POP JUMP JUMPDEST PUSH1 0x2 SLOAD DUP2 JUMP JUMPDEST PUSH2 0xF17 PUSH2 0x1A7D JUMP JUMPDEST PUSH2 0xF21 PUSH1 0x0 PUSH2 0x1CFC JUMP JUMPDEST JUMP JUMPDEST PUSH1 0x0 DUP1 PUSH1 0x0 SWAP1 SLOAD SWAP1 PUSH2 0x100 EXP SWAP1 DIV PUSH20 0xFFFFFFFFFFFFFFFFFFFFFFFFFFFFFFFFFFFFFFFF AND SWAP1 POP SWAP1 JUMP JUMPDEST PUSH2 0xF6B CALLER PUSH20 0xFFFFFFFFFFFFFFFFFFFFFFFFFFFFFFFFFFFFFFFF AND PUSH2 0x1AFB JUMP JUMPDEST ISZERO PUSH2 0xFAB JUMPI PUSH1 0x40 MLOAD PUSH32 0x8C379A000000000000000000000000000000000000000000000000000000000 DUP2 MSTORE PUSH1 0x4 ADD PUSH2 0xFA2 SWAP1 PUSH2 0x25A5 JUMP JUMPDEST PUSH1 0x40 MLOAD DUP1 SWAP2 SUB SWAP1 REVERT JUMPDEST ORIGIN PUSH20 0xFFFFFFFFFFFFFFFFFFFFFFFFFFFFFFFFFFFFFFFF AND CALLER PUSH20 0xFFFFFFFFFFFFFFFFFFFFFFFFFFFFFFFFFFFFFFFF AND EQ PUSH2 0x1019 JUMPI PUSH1 0x40 MLOAD PUSH32 0x8C379A000000000000000000000000000000000000000000000000000000000 DUP2 MSTORE PUSH1 0x4 ADD PUSH2 0x1010 SWAP1 PUSH2 0x2611 JUMP JUMPDEST PUSH1 0x40 MLOAD DUP1 SWAP2 SUB SWAP1 REVERT JUMPDEST PUSH1 0x2 PUSH1 0x1 SLOAD SUB PUSH2 0x105E JUMPI PUSH1 0x40 MLOAD PUSH32 0x8C379A000000000000000000000000000000000000000000000000000000000 DUP2 MSTORE PUSH1 0x4 ADD PUSH2 0x1055 SWAP1 PUSH2 0x2AA3 JUMP JUMPDEST PUSH1 0x40 MLOAD DUP1 SWAP2 SUB SWAP1 REVERT JUMPDEST PUSH1 0x2 PUSH1 0x1 DUP2 SWAP1 SSTORE POP PUSH1 0x0 PUSH20 0xFFFFFFFFFFFFFFFFFFFFFFFFFFFFFFFFFFFFFFFF AND PUSH1 0x4 PUSH1 0x0 DUP4 PUSH20 0xFFFFFFFFFFFFFFFFFFFFFFFFFFFFFFFFFFFFFFFF AND PUSH20 0xFFFFFFFFFFFFFFFFFFFFFFFFFFFFFFFFFFFFFFFF AND DUP2 MSTORE PUSH1 0x20 ADD SWAP1 DUP2 MSTORE PUSH1 0x20 ADD PUSH1 0x0 KECCAK256 PUSH1 0x0 ADD PUSH1 0x0 SWAP1 SLOAD SWAP1 PUSH2 0x100 EXP SWAP1 DIV PUSH20 0xFFFFFFFFFFFFFFFFFFFFFFFFFFFFFFFFFFFFFFFF AND PUSH20 0xFFFFFFFFFFFFFFFFFFFFFFFFFFFFFFFFFFFFFFFF AND SUB PUSH2 0x1137 JUMPI PUSH1 0x40 MLOAD PUSH32 0x8C379A000000000000000000000000000000000000000000000000000000000 DUP2 MSTORE PUSH1 0x4 ADD PUSH2 0x112E SWAP1 PUSH2 0x26A3 JUMP JUMPDEST PUSH1 0x40 MLOAD DUP1 SWAP2 SUB SWAP1 REVERT JUMPDEST PUSH1 0x0 DUP4 DUP4 SWAP1 POP GT PUSH2 0x117D JUMPI PUSH1 0x40 MLOAD PUSH32 0x8C379A000000000000000000000000000000000000000000000000000000000 DUP2 MSTORE PUSH1 0x4 ADD PUSH2 0x1174 SWAP1 PUSH2 0x270F JUMP JUMPDEST PUSH1 0x40 MLOAD DUP1 SWAP2 SUB SWAP1 REVERT JUMPDEST PUSH1 0x0 JUMPDEST DUP4 DUP4 SWAP1 POP DUP2 LT ISZERO PUSH2 0x1686 JUMPI PUSH1 0x0 PUSH1 0x3 PUSH1 0x0 DUP5 PUSH20 0xFFFFFFFFFFFFFFFFFFFFFFFFFFFFFFFFFFFFFFFF AND PUSH20 0xFFFFFFFFFFFFFFFFFFFFFFFFFFFFFFFFFFFFFFFF AND DUP2 MSTORE PUSH1 0x20 ADD SWAP1 DUP2 MSTORE PUSH1 0x20 ADD PUSH1 0x0 KECCAK256 PUSH1 0x0 DUP7 DUP7 DUP6 DUP2 DUP2 LT PUSH2 0x11E1 JUMPI PUSH2 0x11E0 PUSH2 0x272F JUMP JUMPDEST JUMPDEST SWAP1 POP PUSH1 0x20 MUL ADD CALLDATALOAD DUP2 MSTORE PUSH1 0x20 ADD SWAP1 DUP2 MSTORE PUSH1 0x20 ADD PUSH1 0x0 KECCAK256 PUSH1 0x40 MLOAD DUP1 PUSH1 0xA0 ADD PUSH1 0x40 MSTORE SWAP1 DUP2 PUSH1 0x0 DUP3 ADD PUSH1 0x0 SWAP1 SLOAD SWAP1 PUSH2 0x100 EXP SWAP1 DIV PUSH20 0xFFFFFFFFFFFFFFFFFFFFFFFFFFFFFFFFFFFFFFFF AND PUSH20 0xFFFFFFFFFFFFFFFFFFFFFFFFFFFFFFFFFFFFFFFF AND PUSH20 0xFFFFFFFFFFFFFFFFFFFFFFFFFFFFFFFFFFFFFFFF AND DUP2 MSTORE PUSH1 0x20 ADD PUSH1 0x1 DUP3 ADD SLOAD DUP2 MSTORE PUSH1 0x20 ADD PUSH1 0x2 DUP3 ADD SLOAD DUP2 MSTORE PUSH1 0x20 ADD PUSH1 0x3 DUP3 ADD PUSH1 0x0 SWAP1 SLOAD SWAP1 PUSH2 0x100 EXP SWAP1 DIV PUSH1 0xFF AND ISZERO ISZERO ISZERO ISZERO DUP2 MSTORE PUSH1 0x20 ADD PUSH1 0x3 DUP3 ADD PUSH1 0x1 SWAP1 SLOAD SWAP1 PUSH2 0x100 EXP SWAP1 DIV PUSH20 0xFFFFFFFFFFFFFFFFFFFFFFFFFFFFFFFFFFFFFFFF AND PUSH20 0xFFFFFFFFFFFFFFFFFFFFFFFFFFFFFFFFFFFFFFFF AND PUSH20 0xFFFFFFFFFFFFFFFFFFFFFFFFFFFFFFFFFFFFFFFF AND DUP2 MSTORE POP POP SWAP1 POP CALLER PUSH20 0xFFFFFFFFFFFFFFFFFFFFFFFFFFFFFFFFFFFFFFFF AND DUP2 PUSH1 0x0 ADD MLOAD PUSH20 0xFFFFFFFFFFFFFFFFFFFFFFFFFFFFFFFFFFFFFFFF AND EQ PUSH2 0x1350 JUMPI PUSH1 0x40 MLOAD PUSH32 0x8C379A000000000000000000000000000000000000000000000000000000000 DUP2 MSTORE PUSH1 0x4 ADD PUSH2 0x1347 SWAP1 PUSH2 0x27AA JUMP JUMPDEST PUSH1 0x40 MLOAD DUP1 SWAP2 SUB SWAP1 REVERT JUMPDEST TIMESTAMP PUSH1 0x2 SLOAD DUP3 PUSH1 0x20 ADD MLOAD PUSH2 0x1363 SWAP2 SWAP1 PUSH2 0x27F9 JUMP JUMPDEST LT PUSH2 0x13A3 JUMPI PUSH1 0x40 MLOAD PUSH32 0x8C379A000000000000000000000000000000000000000000000000000000000 DUP2 MSTORE PUSH1 0x4 ADD PUSH2 0x139A SWAP1 PUSH2 0x2C18 JUMP JUMPDEST PUSH1 0x40 MLOAD DUP1 SWAP2 SUB SWAP1 REVERT JUMPDEST DUP1 PUSH1 0x60 ADD MLOAD ISZERO PUSH2 0x13E8 JUMPI PUSH1 0x40 MLOAD PUSH32 0x8C379A000000000000000000000000000000000000000000000000000000000 DUP2 MSTORE PUSH1 0x4 ADD PUSH2 0x13DF SWAP1 PUSH2 0x28E5 JUMP JUMPDEST PUSH1 0x40 MLOAD DUP1 SWAP2 SUB SWAP1 REVERT JUMPDEST DUP3 PUSH20 0xFFFFFFFFFFFFFFFFFFFFFFFFFFFFFFFFFFFFFFFF AND PUSH4 0x23B872DD ADDRESS CALLER DUP9 DUP9 DUP8 DUP2 DUP2 LT PUSH2 0x1419 JUMPI PUSH2 0x1418 PUSH2 0x272F JUMP JUMPDEST JUMPDEST SWAP1 POP PUSH1 0x20 MUL ADD CALLDATALOAD PUSH1 0x40 MLOAD DUP5 PUSH4 0xFFFFFFFF AND PUSH1 0xE0 SHL DUP2 MSTORE PUSH1 0x4 ADD PUSH2 0x143E SWAP4 SWAP3 SWAP2 SWAP1 PUSH2 0x2B71 JUMP JUMPDEST PUSH1 0x0 PUSH1 0x40 MLOAD DUP1 DUP4 SUB DUP2 PUSH1 0x0 DUP8 DUP1 EXTCODESIZE ISZERO DUP1 ISZERO PUSH2 0x1458 JUMPI PUSH1 0x0 DUP1 REVERT JUMPDEST POP GAS CALL ISZERO DUP1 ISZERO PUSH2 0x146C JUMPI RETURNDATASIZE PUSH1 0x0 DUP1 RETURNDATACOPY RETURNDATASIZE PUSH1 0x0 REVERT JUMPDEST POP POP POP POP PUSH1 0x0 PUSH2 0x1495 DUP7 DUP7 DUP6 DUP2 DUP2 LT PUSH2 0x1488 JUMPI PUSH2 0x1487 PUSH2 0x272F JUMP JUMPDEST JUMPDEST SWAP1 POP PUSH1 0x20 MUL ADD CALLDATALOAD DUP6 PUSH2 0x1B1E JUMP JUMPDEST SWAP1 POP PUSH1 0x0 DUP3 PUSH1 0x40 ADD MLOAD DUP3 PUSH2 0x14A9 SWAP2 SWAP1 PUSH2 0x2905 JUMP JUMPDEST SWAP1 POP PUSH1 0x4 PUSH1 0x0 DUP7 PUSH20 0xFFFFFFFFFFFFFFFFFFFFFFFFFFFFFFFFFFFFFFFF AND PUSH20 0xFFFFFFFFFFFFFFFFFFFFFFFFFFFFFFFFFFFFFFFF AND DUP2 MSTORE PUSH1 0x20 ADD SWAP1 DUP2 MSTORE PUSH1 0x20 ADD PUSH1 0x0 KECCAK256 PUSH1 0x0 ADD PUSH1 0x0 SWAP1 SLOAD SWAP1 PUSH2 0x100 EXP SWAP1 DIV PUSH20 0xFFFFFFFFFFFFFFFFFFFFFFFFFFFFFFFFFFFFFFFF AND PUSH20 0xFFFFFFFFFFFFFFFFFFFFFFFFFFFFFFFFFFFFFFFF AND PUSH4 0x40C10F19 CALLER DUP4 PUSH1 0x40 MLOAD DUP4 PUSH4 0xFFFFFFFF AND PUSH1 0xE0 SHL DUP2 MSTORE PUSH1 0x4 ADD PUSH2 0x1548 SWAP3 SWAP2 SWAP1 PUSH2 0x2939 JUMP JUMPDEST PUSH1 0x0 PUSH1 0x40 MLOAD DUP1 DUP4 SUB DUP2 PUSH1 0x0 DUP8 DUP1 EXTCODESIZE ISZERO DUP1 ISZERO PUSH2 0x1562 JUMPI PUSH1 0x0 DUP1 REVERT JUMPDEST POP GAS CALL ISZERO DUP1 ISZERO PUSH2 0x1576 JUMPI RETURNDATASIZE PUSH1 0x0 DUP1 RETURNDATACOPY RETURNDATASIZE PUSH1 0x0 REVERT JUMPDEST POP POP POP POP DUP2 PUSH1 0x3 PUSH1 0x0 DUP8 PUSH20 0xFFFFFFFFFFFFFFFFFFFFFFFFFFFFFFFFFFFFFFFF AND PUSH20 0xFFFFFFFFFFFFFFFFFFFFFFFFFFFFFFFFFFFFFFFF AND DUP2 MSTORE PUSH1 0x20 ADD SWAP1 DUP2 MSTORE PUSH1 0x20 ADD PUSH1 0x0 KECCAK256 PUSH1 0x0 DUP10 DUP10 DUP9 DUP2 DUP2 LT PUSH2 0x15CF JUMPI PUSH2 0x15CE PUSH2 0x272F JUMP JUMPDEST JUMPDEST SWAP1 POP PUSH1 0x20 MUL ADD CALLDATALOAD DUP2 MSTORE PUSH1 0x20 ADD SWAP1 DUP2 MSTORE PUSH1 0x20 ADD PUSH1 0x0 KECCAK256 PUSH1 0x2 ADD DUP2 SWAP1 SSTORE POP PUSH1 0x1 PUSH1 0x3 PUSH1 0x0 DUP8 PUSH20 0xFFFFFFFFFFFFFFFFFFFFFFFFFFFFFFFFFFFFFFFF AND PUSH20 0xFFFFFFFFFFFFFFFFFFFFFFFFFFFFFFFFFFFFFFFF AND DUP2 MSTORE PUSH1 0x20 ADD SWAP1 DUP2 MSTORE PUSH1 0x20 ADD PUSH1 0x0 KECCAK256 PUSH1 0x0 DUP10 DUP10 DUP9 DUP2 DUP2 LT PUSH2 0x1641 JUMPI PUSH2 0x1640 PUSH2 0x272F JUMP JUMPDEST JUMPDEST SWAP1 POP PUSH1 0x20 MUL ADD CALLDATALOAD DUP2 MSTORE PUSH1 0x20 ADD SWAP1 DUP2 MSTORE PUSH1 0x20 ADD PUSH1 0x0 KECCAK256 PUSH1 0x3 ADD PUSH1 0x0 PUSH2 0x100 EXP DUP2 SLOAD DUP2 PUSH1 0xFF MUL NOT AND SWAP1 DUP4 ISZERO ISZERO MUL OR SWAP1 SSTORE POP POP POP POP DUP1 DUP1 PUSH2 0x167E SWAP1 PUSH2 0x2962 JUMP JUMPDEST SWAP2 POP POP PUSH2 0x1180 JUMP JUMPDEST POP CALLER PUSH20 0xFFFFFFFFFFFFFFFFFFFFFFFFFFFFFFFFFFFFFFFF AND PUSH32 0x5CB48022479B9AC3BFB10A27965DC010ACFFC9FC1BC9A52F0B18975B944B54CA DUP5 DUP5 PUSH1 0x40 MLOAD PUSH2 0x16CF SWAP3 SWAP2 SWAP1 PUSH2 0x2BA8 JUMP JUMPDEST PUSH1 0x40 MLOAD DUP1 SWAP2 SUB SWAP1 LOG2 PUSH1 0x1 DUP1 DUP2 SWAP1 SSTORE POP POP POP POP JUMP JUMPDEST PUSH1 0x3 PUSH1 0x20 MSTORE DUP2 PUSH1 0x0 MSTORE PUSH1 0x40 PUSH1 0x0 KECCAK256 PUSH1 0x20 MSTORE DUP1 PUSH1 0x0 MSTORE PUSH1 0x40 PUSH1 0x0 KECCAK256 PUSH1 0x0 SWAP2 POP SWAP2 POP POP DUP1 PUSH1 0x0 ADD PUSH1 0x0 SWAP1 SLOAD SWAP1 PUSH2 0x100 EXP SWAP1 DIV PUSH20 0xFFFFFFFFFFFFFFFFFFFFFFFFFFFFFFFFFFFFFFFF AND SWAP1 DUP1 PUSH1 0x1 ADD SLOAD SWAP1 DUP1 PUSH1 0x2 ADD SLOAD SWAP1 DUP1 PUSH1 0x3 ADD PUSH1 0x0 SWAP1 SLOAD SWAP1 PUSH2 0x100 EXP SWAP1 DIV PUSH1 0xFF AND SWAP1 DUP1 PUSH1 0x3 ADD PUSH1 0x1 SWAP1 SLOAD SWAP1 PUSH2 0x100 EXP SWAP1 DIV PUSH20 0xFFFFFFFFFFFFFFFFFFFFFFFFFFFFFFFFFFFFFFFF AND SWAP1 POP DUP6 JUMP JUMPDEST PUSH1 0x0 PUSH1 0x3 PUSH1 0x0 DUP4 PUSH20 0xFFFFFFFFFFFFFFFFFFFFFFFFFFFFFFFFFFFFFFFF AND PUSH20 0xFFFFFFFFFFFFFFFFFFFFFFFFFFFFFFFFFFFFFFFF AND DUP2 MSTORE PUSH1 0x20 ADD SWAP1 DUP2 MSTORE PUSH1 0x20 ADD PUSH1 0x0 KECCAK256 PUSH1 0x0 DUP5 DUP2 MSTORE PUSH1 0x20 ADD SWAP1 DUP2 MSTORE PUSH1 0x20 ADD PUSH1 0x0 KECCAK256 PUSH1 0x2 ADD SLOAD SWAP1 POP SWAP3 SWAP2 POP POP JUMP JUMPDEST PUSH1 0x5 SLOAD DUP2 JUMP JUMPDEST PUSH1 0x4 PUSH1 0x20 MSTORE DUP1 PUSH1 0x0 MSTORE PUSH1 0x40 PUSH1 0x0 KECCAK256 PUSH1 0x0 SWAP2 POP SWAP1 POP DUP1 PUSH1 0x0 ADD PUSH1 0x0 SWAP1 SLOAD SWAP1 PUSH2 0x100 EXP SWAP1 DIV PUSH20 0xFFFFFFFFFFFFFFFFFFFFFFFFFFFFFFFFFFFFFFFF AND SWAP1 DUP1 PUSH1 0x1 ADD SLOAD SWAP1 DUP1 PUSH1 0x2 ADD SLOAD SWAP1 POP DUP4 JUMP JUMPDEST PUSH2 0x1829 PUSH2 0x1A7D JUMP JUMPDEST PUSH1 0x0 JUMPDEST DUP5 MLOAD DUP2 LT ISZERO PUSH2 0x19F3 JUMPI DUP4 DUP2 DUP2 MLOAD DUP2 LT PUSH2 0x1848 JUMPI PUSH2 0x1847 PUSH2 0x272F JUMP JUMPDEST JUMPDEST PUSH1 0x20 MUL PUSH1 0x20 ADD ADD MLOAD PUSH1 0x4 PUSH1 0x0 DUP8 DUP5 DUP2 MLOAD DUP2 LT PUSH2 0x1867 JUMPI PUSH2 0x1866 PUSH2 0x272F JUMP JUMPDEST JUMPDEST PUSH1 0x20 MUL PUSH1 0x20 ADD ADD MLOAD PUSH20 0xFFFFFFFFFFFFFFFFFFFFFFFFFFFFFFFFFFFFFFFF AND PUSH20 0xFFFFFFFFFFFFFFFFFFFFFFFFFFFFFFFFFFFFFFFF AND DUP2 MSTORE PUSH1 0x20 ADD SWAP1 DUP2 MSTORE PUSH1 0x20 ADD PUSH1 0x0 KECCAK256 PUSH1 0x0 ADD PUSH1 0x0 PUSH2 0x100 EXP DUP2 SLOAD DUP2 PUSH20 0xFFFFFFFFFFFFFFFFFFFFFFFFFFFFFFFFFFFFFFFF MUL NOT AND SWAP1 DUP4 PUSH20 0xFFFFFFFFFFFFFFFFFFFFFFFFFFFFFFFFFFFFFFFF AND MUL OR SWAP1 SSTORE POP DUP3 DUP2 DUP2 MLOAD DUP2 LT PUSH2 0x18FD JUMPI PUSH2 0x18FC PUSH2 0x272F JUMP JUMPDEST JUMPDEST PUSH1 0x20 MUL PUSH1 0x20 ADD ADD MLOAD PUSH1 0x4 PUSH1 0x0 DUP8 DUP5 DUP2 MLOAD DUP2 LT PUSH2 0x191C JUMPI PUSH2 0x191B PUSH2 0x272F JUMP JUMPDEST JUMPDEST PUSH1 0x20 MUL PUSH1 0x20 ADD ADD MLOAD PUSH20 0xFFFFFFFFFFFFFFFFFFFFFFFFFFFFFFFFFFFFFFFF AND PUSH20 0xFFFFFFFFFFFFFFFFFFFFFFFFFFFFFFFFFFFFFFFF AND DUP2 MSTORE PUSH1 0x20 ADD SWAP1 DUP2 MSTORE PUSH1 0x20 ADD PUSH1 0x0 KECCAK256 PUSH1 0x1 ADD DUP2 SWAP1 SSTORE POP DUP2 DUP2 DUP2 MLOAD DUP2 LT PUSH2 0x1978 JUMPI PUSH2 0x1977 PUSH2 0x272F JUMP JUMPDEST JUMPDEST PUSH1 0x20 MUL PUSH1 0x20 ADD ADD MLOAD PUSH1 0x4 PUSH1 0x0 DUP8 DUP5 DUP2 MLOAD DUP2 LT PUSH2 0x1997 JUMPI PUSH2 0x1996 PUSH2 0x272F JUMP JUMPDEST JUMPDEST PUSH1 0x20 MUL PUSH1 0x20 ADD ADD MLOAD PUSH20 0xFFFFFFFFFFFFFFFFFFFFFFFFFFFFFFFFFFFFFFFF AND PUSH20 0xFFFFFFFFFFFFFFFFFFFFFFFFFFFFFFFFFFFFFFFF AND DUP2 MSTORE PUSH1 0x20 ADD SWAP1 DUP2 MSTORE PUSH1 0x20 ADD PUSH1 0x0 KECCAK256 PUSH1 0x2 ADD DUP2 SWAP1 SSTORE POP DUP1 DUP1 PUSH2 0x19EB SWAP1 PUSH2 0x2962 JUMP JUMPDEST SWAP2 POP POP PUSH2 0x182C JUMP JUMPDEST POP POP POP POP POP JUMP JUMPDEST PUSH2 0x1A02 PUSH2 0x1A7D JUMP JUMPDEST PUSH1 0x0 PUSH20 0xFFFFFFFFFFFFFFFFFFFFFFFFFFFFFFFFFFFFFFFF AND DUP2 PUSH20 0xFFFFFFFFFFFFFFFFFFFFFFFFFFFFFFFFFFFFFFFF AND SUB PUSH2 0x1A71 JUMPI PUSH1 0x40 MLOAD PUSH32 0x8C379A000000000000000000000000000000000000000000000000000000000 DUP2 MSTORE PUSH1 0x4 ADD PUSH2 0x1A68 SWAP1 PUSH2 0x2CAA JUMP JUMPDEST PUSH1 0x40 MLOAD DUP1 SWAP2 SUB SWAP1 REVERT JUMPDEST PUSH2 0x1A7A DUP2 PUSH2 0x1CFC JUMP JUMPDEST POP JUMP JUMPDEST PUSH2 0x1A85 PUSH2 0x1DC0 JUMP JUMPDEST PUSH20 0xFFFFFFFFFFFFFFFFFFFFFFFFFFFFFFFFFFFFFFFF AND PUSH2 0x1AA3 PUSH2 0xF23 JUMP JUMPDEST PUSH20 0xFFFFFFFFFFFFFFFFFFFFFFFFFFFFFFFFFFFFFFFF AND EQ PUSH2 0x1AF9 JUMPI PUSH1 0x40 MLOAD PUSH32 0x8C379A000000000000000000000000000000000000000000000000000000000 DUP2 MSTORE PUSH1 0x4 ADD PUSH2 0x1AF0 SWAP1 PUSH2 0x2D16 JUMP JUMPDEST PUSH1 0x40 MLOAD DUP1 SWAP2 SUB SWAP1 REVERT JUMPDEST JUMP JUMPDEST PUSH1 0x0 DUP1 DUP3 PUSH20 0xFFFFFFFFFFFFFFFFFFFFFFFFFFFFFFFFFFFFFFFF AND EXTCODESIZE GT SWAP1 POP SWAP2 SWAP1 POP JUMP JUMPDEST PUSH1 0x0 DUP1 PUSH1 0x3 PUSH1 0x0 DUP5 PUSH20 0xFFFFFFFFFFFFFFFFFFFFFFFFFFFFFFFFFFFFFFFF AND PUSH20 0xFFFFFFFFFFFFFFFFFFFFFFFFFFFFFFFFFFFFFFFF AND DUP2 MSTORE PUSH1 0x20 ADD SWAP1 DUP2 MSTORE PUSH1 0x20 ADD PUSH1 0x0 KECCAK256 PUSH1 0x0 DUP6 DUP2 MSTORE PUSH1 0x20 ADD SWAP1 DUP2 MSTORE PUSH1 0x20 ADD PUSH1 0x0 KECCAK256 PUSH1 0x40 MLOAD DUP1 PUSH1 0xA0 ADD PUSH1 0x40 MSTORE SWAP1 DUP2 PUSH1 0x0 DUP3 ADD PUSH1 0x0 SWAP1 SLOAD SWAP1 PUSH2 0x100 EXP SWAP1 DIV PUSH20 0xFFFFFFFFFFFFFFFFFFFFFFFFFFFFFFFFFFFFFFFF AND PUSH20 0xFFFFFFFFFFFFFFFFFFFFFFFFFFFFFFFFFFFFFFFF AND PUSH20 0xFFFFFFFFFFFFFFFFFFFFFFFFFFFFFFFFFFFFFFFF AND DUP2 MSTORE PUSH1 0x20 ADD PUSH1 0x1 DUP3 ADD SLOAD DUP2 MSTORE PUSH1 0x20 ADD PUSH1 0x2 DUP3 ADD SLOAD DUP2 MSTORE PUSH1 0x20 ADD PUSH1 0x3 DUP3 ADD PUSH1 0x0 SWAP1 SLOAD SWAP1 PUSH2 0x100 EXP SWAP1 DIV PUSH1 0xFF AND ISZERO ISZERO ISZERO ISZERO DUP2 MSTORE PUSH1 0x20 ADD PUSH1 0x3 DUP3 ADD PUSH1 0x1 SWAP1 SLOAD SWAP1 PUSH2 0x100 EXP SWAP1 DIV PUSH20 0xFFFFFFFFFFFFFFFFFFFFFFFFFFFFFFFFFFFFFFFF AND PUSH20 0xFFFFFFFFFFFFFFFFFFFFFFFFFFFFFFFFFFFFFFFF AND PUSH20 0xFFFFFFFFFFFFFFFFFFFFFFFFFFFFFFFFFFFFFFFF AND DUP2 MSTORE POP POP SWAP1 POP PUSH1 0x0 DUP2 PUSH1 0x20 ADD MLOAD TIMESTAMP PUSH2 0x1C6B SWAP2 SWAP1 PUSH2 0x2905 JUMP JUMPDEST SWAP1 POP PUSH1 0x0 PUSH1 0x2 SLOAD DUP3 LT ISZERO PUSH2 0x1C85 JUMPI PUSH1 0x0 SWAP4 POP POP POP POP PUSH2 0x1CF6 JUMP JUMPDEST PUSH1 0x5 SLOAD PUSH1 0x2 SLOAD DUP4 PUSH2 0x1C96 SWAP2 SWAP1 PUSH2 0x2905 JUMP JUMPDEST PUSH1 0x4 PUSH1 0x0 DUP9 PUSH20 0xFFFFFFFFFFFFFFFFFFFFFFFFFFFFFFFFFFFFFFFF AND PUSH20 0xFFFFFFFFFFFFFFFFFFFFFFFFFFFFFFFFFFFFFFFF AND DUP2 MSTORE PUSH1 0x20 ADD SWAP1 DUP2 MSTORE PUSH1 0x20 ADD PUSH1 0x0 KECCAK256 PUSH1 0x1 ADD SLOAD PUSH2 0x1CE3 SWAP2 SWAP1 PUSH2 0x2D36 JUMP JUMPDEST PUSH2 0x1CED SWAP2 SWAP1 PUSH2 0x2DBF JUMP JUMPDEST SWAP1 POP DUP1 SWAP4 POP POP POP POP JUMPDEST SWAP3 SWAP2 POP POP JUMP JUMPDEST PUSH1 0x0 DUP1 PUSH1 0x0 SWAP1 SLOAD SWAP1 PUSH2 0x100 EXP SWAP1 DIV PUSH20 0xFFFFFFFFFFFFFFFFFFFFFFFFFFFFFFFFFFFFFFFF AND SWAP1 POP DUP2 PUSH1 0x0 DUP1 PUSH2 0x100 EXP DUP2 SLOAD DUP2 PUSH20 0xFFFFFFFFFFFFFFFFFFFFFFFFFFFFFFFFFFFFFFFF MUL NOT AND SWAP1 DUP4 PUSH20 0xFFFFFFFFFFFFFFFFFFFFFFFFFFFFFFFFFFFFFFFF AND MUL OR SWAP1 SSTORE POP DUP2 PUSH20 0xFFFFFFFFFFFFFFFFFFFFFFFFFFFFFFFFFFFFFFFF AND DUP2 PUSH20 0xFFFFFFFFFFFFFFFFFFFFFFFFFFFFFFFFFFFFFFFF AND PUSH32 0x8BE0079C531659141344CD1FD0A4F28419497F9722A3DAAFE3B4186F6B6457E0 PUSH1 0x40 MLOAD PUSH1 0x40 MLOAD DUP1 SWAP2 SUB SWAP1 LOG3 POP POP JUMP JUMPDEST PUSH1 0x0 CALLER SWAP1 POP SWAP1 JUMP JUMPDEST PUSH1 0x0 PUSH1 0x40 MLOAD SWAP1 POP SWAP1 JUMP JUMPDEST PUSH1 0x0 DUP1 REVERT JUMPDEST PUSH1 0x0 DUP1 REVERT JUMPDEST PUSH1 0x0 DUP2 SWAP1 POP SWAP2 SWAP1 POP JUMP JUMPDEST PUSH2 0x1DEF DUP2 PUSH2 0x1DDC JUMP JUMPDEST DUP2 EQ PUSH2 0x1DFA JUMPI PUSH1 0x0 DUP1 REVERT JUMPDEST POP JUMP JUMPDEST PUSH1 0x0 DUP2 CALLDATALOAD SWAP1 POP PUSH2 0x1E0C DUP2 PUSH2 0x1DE6 JUMP JUMPDEST SWAP3 SWAP2 POP POP JUMP JUMPDEST PUSH1 0x0 PUSH1 0x20 DUP3 DUP5 SUB SLT ISZERO PUSH2 0x1E28 JUMPI PUSH2 0x1E27 PUSH2 0x1DD2 JUMP JUMPDEST JUMPDEST PUSH1 0x0 PUSH2 0x1E36 DUP5 DUP3 DUP6 ADD PUSH2 0x1DFD JUMP JUMPDEST SWAP2 POP POP SWAP3 SWAP2 POP POP JUMP JUMPDEST PUSH1 0x0 DUP1 REVERT JUMPDEST PUSH1 0x0 DUP1 REVERT JUMPDEST PUSH1 0x0 DUP1 REVERT JUMPDEST PUSH1 0x0 DUP1 DUP4 PUSH1 0x1F DUP5 ADD SLT PUSH2 0x1E64 JUMPI PUSH2 0x1E63 PUSH2 0x1E3F JUMP JUMPDEST JUMPDEST DUP3 CALLDATALOAD SWAP1 POP PUSH8 0xFFFFFFFFFFFFFFFF DUP2 GT ISZERO PUSH2 0x1E81 JUMPI PUSH2 0x1E80 PUSH2 0x1E44 JUMP JUMPDEST JUMPDEST PUSH1 0x20 DUP4 ADD SWAP2 POP DUP4 PUSH1 0x20 DUP3 MUL DUP4 ADD GT ISZERO PUSH2 0x1E9D JUMPI PUSH2 0x1E9C PUSH2 0x1E49 JUMP JUMPDEST JUMPDEST SWAP3 POP SWAP3 SWAP1 POP JUMP JUMPDEST PUSH1 0x0 PUSH20 0xFFFFFFFFFFFFFFFFFFFFFFFFFFFFFFFFFFFFFFFF DUP3 AND SWAP1 POP SWAP2 SWAP1 POP JUMP JUMPDEST PUSH1 0x0 PUSH2 0x1ECF DUP3 PUSH2 0x1EA4 JUMP JUMPDEST SWAP1 POP SWAP2 SWAP1 POP JUMP JUMPDEST PUSH1 0x0 PUSH2 0x1EE1 DUP3 PUSH2 0x1EC4 JUMP JUMPDEST SWAP1 POP SWAP2 SWAP1 POP JUMP JUMPDEST PUSH2 0x1EF1 DUP2 PUSH2 0x1ED6 JUMP JUMPDEST DUP2 EQ PUSH2 0x1EFC JUMPI PUSH1 0x0 DUP1 REVERT JUMPDEST POP JUMP JUMPDEST PUSH1 0x0 DUP2 CALLDATALOAD SWAP1 POP PUSH2 0x1F0E DUP2 PUSH2 0x1EE8 JUMP JUMPDEST SWAP3 SWAP2 POP POP JUMP JUMPDEST PUSH1 0x0 DUP1 PUSH1 0x0 PUSH1 0x40 DUP5 DUP7 SUB SLT ISZERO PUSH2 0x1F2D JUMPI PUSH2 0x1F2C PUSH2 0x1DD2 JUMP JUMPDEST JUMPDEST PUSH1 0x0 DUP5 ADD CALLDATALOAD PUSH8 0xFFFFFFFFFFFFFFFF DUP2 GT ISZERO PUSH2 0x1F4B JUMPI PUSH2 0x1F4A PUSH2 0x1DD7 JUMP JUMPDEST JUMPDEST PUSH2 0x1F57 DUP7 DUP3 DUP8 ADD PUSH2 0x1E4E JUMP JUMPDEST SWAP4 POP SWAP4 POP POP PUSH1 0x20 PUSH2 0x1F6A DUP7 DUP3 DUP8 ADD PUSH2 0x1EFF JUMP JUMPDEST SWAP2 POP POP SWAP3 POP SWAP3 POP SWAP3 JUMP JUMPDEST PUSH2 0x1F7D DUP2 PUSH2 0x1DDC JUMP JUMPDEST DUP3 MSTORE POP POP JUMP JUMPDEST PUSH1 0x0 PUSH1 0x20 DUP3 ADD SWAP1 POP PUSH2 0x1F98 PUSH1 0x0 DUP4 ADD DUP5 PUSH2 0x1F74 JUMP JUMPDEST SWAP3 SWAP2 POP POP JUMP JUMPDEST PUSH2 0x1FA7 DUP2 PUSH2 0x1EC4 JUMP JUMPDEST DUP3 MSTORE POP POP JUMP JUMPDEST PUSH1 0x0 PUSH1 0x20 DUP3 ADD SWAP1 POP PUSH2 0x1FC2 PUSH1 0x0 DUP4 ADD DUP5 PUSH2 0x1F9E JUMP JUMPDEST SWAP3 SWAP2 POP POP JUMP JUMPDEST PUSH1 0x0 DUP1 PUSH1 0x40 DUP4 DUP6 SUB SLT ISZERO PUSH2 0x1FDF JUMPI PUSH2 0x1FDE PUSH2 0x1DD2 JUMP JUMPDEST JUMPDEST PUSH1 0x0 PUSH2 0x1FED DUP6 DUP3 DUP7 ADD PUSH2 0x1EFF JUMP JUMPDEST SWAP3 POP POP PUSH1 0x20 PUSH2 0x1FFE DUP6 DUP3 DUP7 ADD PUSH2 0x1DFD JUMP JUMPDEST SWAP2 POP POP SWAP3 POP SWAP3 SWAP1 POP JUMP JUMPDEST PUSH1 0x0 DUP2 ISZERO ISZERO SWAP1 POP SWAP2 SWAP1 POP JUMP JUMPDEST PUSH2 0x201D DUP2 PUSH2 0x2008 JUMP JUMPDEST DUP3 MSTORE POP POP JUMP JUMPDEST PUSH1 0x0 DUP2 SWAP1 POP SWAP2 SWAP1 POP JUMP JUMPDEST PUSH1 0x0 PUSH2 0x2048 PUSH2 0x2043 PUSH2 0x203E DUP5 PUSH2 0x1EA4 JUMP JUMPDEST PUSH2 0x2023 JUMP JUMPDEST PUSH2 0x1EA4 JUMP JUMPDEST SWAP1 POP SWAP2 SWAP1 POP JUMP JUMPDEST PUSH1 0x0 PUSH2 0x205A DUP3 PUSH2 0x202D JUMP JUMPDEST SWAP1 POP SWAP2 SWAP1 POP JUMP JUMPDEST PUSH1 0x0 PUSH2 0x206C DUP3 PUSH2 0x204F JUMP JUMPDEST SWAP1 POP SWAP2 SWAP1 POP JUMP JUMPDEST PUSH2 0x207C DUP2 PUSH2 0x2061 JUMP JUMPDEST DUP3 MSTORE POP POP JUMP JUMPDEST PUSH1 0x0 PUSH1 0xA0 DUP3 ADD SWAP1 POP PUSH2 0x2097 PUSH1 0x0 DUP4 ADD DUP9 PUSH2 0x1F9E JUMP JUMPDEST PUSH2 0x20A4 PUSH1 0x20 DUP4 ADD DUP8 PUSH2 0x1F74 JUMP JUMPDEST PUSH2 0x20B1 PUSH1 0x40 DUP4 ADD DUP7 PUSH2 0x1F74 JUMP JUMPDEST PUSH2 0x20BE PUSH1 0x60 DUP4 ADD DUP6 PUSH2 0x2014 JUMP JUMPDEST PUSH2 0x20CB PUSH1 0x80 DUP4 ADD DUP5 PUSH2 0x2073 JUMP JUMPDEST SWAP7 SWAP6 POP POP POP POP POP POP JUMP JUMPDEST PUSH1 0x0 DUP1 PUSH1 0x40 DUP4 DUP6 SUB SLT ISZERO PUSH2 0x20EC JUMPI PUSH2 0x20EB PUSH2 0x1DD2 JUMP JUMPDEST JUMPDEST PUSH1 0x0 PUSH2 0x20FA DUP6 DUP3 DUP7 ADD PUSH2 0x1DFD JUMP JUMPDEST SWAP3 POP POP PUSH1 0x20 PUSH2 0x210B DUP6 DUP3 DUP7 ADD PUSH2 0x1EFF JUMP JUMPDEST SWAP2 POP POP SWAP3 POP SWAP3 SWAP1 POP JUMP JUMPDEST PUSH1 0x0 PUSH1 0x20 DUP3 DUP5 SUB SLT ISZERO PUSH2 0x212B JUMPI PUSH2 0x212A PUSH2 0x1DD2 JUMP JUMPDEST JUMPDEST PUSH1 0x0 PUSH2 0x2139 DUP5 DUP3 DUP6 ADD PUSH2 0x1EFF JUMP JUMPDEST SWAP2 POP POP SWAP3 SWAP2 POP POP JUMP JUMPDEST PUSH1 0x0 PUSH2 0x214D DUP3 PUSH2 0x204F JUMP JUMPDEST SWAP1 POP SWAP2 SWAP1 POP JUMP JUMPDEST PUSH2 0x215D DUP2 PUSH2 0x2142 JUMP JUMPDEST DUP3 MSTORE POP POP JUMP JUMPDEST PUSH1 0x0 PUSH1 0x60 DUP3 ADD SWAP1 POP PUSH2 0x2178 PUSH1 0x0 DUP4 ADD DUP7 PUSH2 0x2154 JUMP JUMPDEST PUSH2 0x2185 PUSH1 0x20 DUP4 ADD DUP6 PUSH2 0x1F74 JUMP JUMPDEST PUSH2 0x2192 PUSH1 0x40 DUP4 ADD DUP5 PUSH2 0x1F74 JUMP JUMPDEST SWAP5 SWAP4 POP POP POP POP JUMP JUMPDEST PUSH1 0x0 PUSH1 0x1F NOT PUSH1 0x1F DUP4 ADD AND SWAP1 POP SWAP2 SWAP1 POP JUMP JUMPDEST PUSH32 0x4E487B7100000000000000000000000000000000000000000000000000000000 PUSH1 0x0 MSTORE PUSH1 0x41 PUSH1 0x4 MSTORE PUSH1 0x24 PUSH1 0x0 REVERT JUMPDEST PUSH2 0x21E3 DUP3 PUSH2 0x219A JUMP JUMPDEST DUP2 ADD DUP2 DUP2 LT PUSH8 0xFFFFFFFFFFFFFFFF DUP3 GT OR ISZERO PUSH2 0x2202 JUMPI PUSH2 0x2201 PUSH2 0x21AB JUMP JUMPDEST JUMPDEST DUP1 PUSH1 0x40 MSTORE POP POP POP JUMP JUMPDEST PUSH1 0x0 PUSH2 0x2215 PUSH2 0x1DC8 JUMP JUMPDEST SWAP1 POP PUSH2 0x2221 DUP3 DUP3 PUSH2 0x21DA JUMP JUMPDEST SWAP2 SWAP1 POP JUMP JUMPDEST PUSH1 0x0 PUSH8 0xFFFFFFFFFFFFFFFF DUP3 GT ISZERO PUSH2 0x2241 JUMPI PUSH2 0x2240 PUSH2 0x21AB JUMP JUMPDEST JUMPDEST PUSH1 0x20 DUP3 MUL SWAP1 POP PUSH1 0x20 DUP2 ADD SWAP1 POP SWAP2 SWAP1 POP JUMP JUMPDEST PUSH2 0x225B DUP2 PUSH2 0x1EC4 JUMP JUMPDEST DUP2 EQ PUSH2 0x2266 JUMPI PUSH1 0x0 DUP1 REVERT JUMPDEST POP JUMP JUMPDEST PUSH1 0x0 DUP2 CALLDATALOAD SWAP1 POP PUSH2 0x2278 DUP2 PUSH2 0x2252 JUMP JUMPDEST SWAP3 SWAP2 POP POP JUMP JUMPDEST PUSH1 0x0 PUSH2 0x2291 PUSH2 0x228C DUP5 PUSH2 0x2226 JUMP JUMPDEST PUSH2 0x220B JUMP JUMPDEST SWAP1 POP DUP1 DUP4 DUP3 MSTORE PUSH1 0x20 DUP3 ADD SWAP1 POP PUSH1 0x20 DUP5 MUL DUP4 ADD DUP6 DUP2 GT ISZERO PUSH2 0x22B4 JUMPI PUSH2 0x22B3 PUSH2 0x1E49 JUMP JUMPDEST JUMPDEST DUP4 JUMPDEST DUP2 DUP2 LT ISZERO PUSH2 0x22DD JUMPI DUP1 PUSH2 0x22C9 DUP9 DUP3 PUSH2 0x2269 JUMP JUMPDEST DUP5 MSTORE PUSH1 0x20 DUP5 ADD SWAP4 POP POP PUSH1 0x20 DUP2 ADD SWAP1 POP PUSH2 0x22B6 JUMP JUMPDEST POP POP POP SWAP4 SWAP3 POP POP POP JUMP JUMPDEST PUSH1 0x0 DUP3 PUSH1 0x1F DUP4 ADD SLT PUSH2 0x22FC JUMPI PUSH2 0x22FB PUSH2 0x1E3F JUMP JUMPDEST JUMPDEST DUP2 CALLDATALOAD PUSH2 0x230C DUP5 DUP3 PUSH1 0x20 DUP7 ADD PUSH2 0x227E JUMP JUMPDEST SWAP2 POP POP SWAP3 SWAP2 POP POP JUMP JUMPDEST PUSH1 0x0 PUSH8 0xFFFFFFFFFFFFFFFF DUP3 GT ISZERO PUSH2 0x2330 JUMPI PUSH2 0x232F PUSH2 0x21AB JUMP JUMPDEST JUMPDEST PUSH1 0x20 DUP3 MUL SWAP1 POP PUSH1 0x20 DUP2 ADD SWAP1 POP SWAP2 SWAP1 POP JUMP JUMPDEST PUSH1 0x0 PUSH2 0x2354 PUSH2 0x234F DUP5 PUSH2 0x2315 JUMP JUMPDEST PUSH2 0x220B JUMP JUMPDEST SWAP1 POP DUP1 DUP4 DUP3 MSTORE PUSH1 0x20 DUP3 ADD SWAP1 POP PUSH1 0x20 DUP5 MUL DUP4 ADD DUP6 DUP2 GT ISZERO PUSH2 0x2377 JUMPI PUSH2 0x2376 PUSH2 0x1E49 JUMP JUMPDEST JUMPDEST DUP4 JUMPDEST DUP2 DUP2 LT ISZERO PUSH2 0x23A0 JUMPI DUP1 PUSH2 0x238C DUP9 DUP3 PUSH2 0x1DFD JUMP JUMPDEST DUP5 MSTORE PUSH1 0x20 DUP5 ADD SWAP4 POP POP PUSH1 0x20 DUP2 ADD SWAP1 POP PUSH2 0x2379 JUMP JUMPDEST POP POP POP SWAP4 SWAP3 POP POP POP JUMP JUMPDEST PUSH1 0x0 DUP3 PUSH1 0x1F DUP4 ADD SLT PUSH2 0x23BF JUMPI PUSH2 0x23BE PUSH2 0x1E3F JUMP JUMPDEST JUMPDEST DUP2 CALLDATALOAD PUSH2 0x23CF DUP5 DUP3 PUSH1 0x20 DUP7 ADD PUSH2 0x2341 JUMP JUMPDEST SWAP2 POP POP SWAP3 SWAP2 POP POP JUMP JUMPDEST PUSH1 0x0 DUP1 PUSH1 0x0 DUP1 PUSH1 0x80 DUP6 DUP8 SUB SLT ISZERO PUSH2 0x23F2 JUMPI PUSH2 0x23F1 PUSH2 0x1DD2 JUMP JUMPDEST JUMPDEST PUSH1 0x0 DUP6 ADD CALLDATALOAD PUSH8 0xFFFFFFFFFFFFFFFF DUP2 GT ISZERO PUSH2 0x2410 JUMPI PUSH2 0x240F PUSH2 0x1DD7 JUMP JUMPDEST JUMPDEST PUSH2 0x241C DUP8 DUP3 DUP9 ADD PUSH2 0x22E7 JUMP JUMPDEST SWAP5 POP POP PUSH1 0x20 DUP6 ADD CALLDATALOAD PUSH8 0xFFFFFFFFFFFFFFFF DUP2 GT ISZERO PUSH2 0x243D JUMPI PUSH2 0x243C PUSH2 0x1DD7 JUMP JUMPDEST JUMPDEST PUSH2 0x2449 DUP8 DUP3 DUP9 ADD PUSH2 0x22E7 JUMP JUMPDEST SWAP4 POP POP PUSH1 0x40 DUP6 ADD CALLDATALOAD PUSH8 0xFFFFFFFFFFFFFFFF DUP2 GT ISZERO PUSH2 0x246A JUMPI PUSH2 0x2469 PUSH2 0x1DD7 JUMP JUMPDEST JUMPDEST PUSH2 0x2476 DUP8 DUP3 DUP9 ADD PUSH2 0x23AA JUMP JUMPDEST SWAP3 POP POP PUSH1 0x60 DUP6 ADD CALLDATALOAD PUSH8 0xFFFFFFFFFFFFFFFF DUP2 GT ISZERO PUSH2 0x2497 JUMPI PUSH2 0x2496 PUSH2 0x1DD7 JUMP JUMPDEST JUMPDEST PUSH2 0x24A3 DUP8 DUP3 DUP9 ADD PUSH2 0x23AA JUMP JUMPDEST SWAP2 POP POP SWAP3 SWAP6 SWAP2 SWAP5 POP SWAP3 POP JUMP JUMPDEST PUSH1 0x0 PUSH1 0x20 DUP3 DUP5 SUB SLT ISZERO PUSH2 0x24C5 JUMPI PUSH2 0x24C4 PUSH2 0x1DD2 JUMP JUMPDEST JUMPDEST PUSH1 0x0 PUSH2 0x24D3 DUP5 DUP3 DUP6 ADD PUSH2 0x2269 JUMP JUMPDEST SWAP2 POP POP SWAP3 SWAP2 POP POP JUMP JUMPDEST PUSH1 0x0 DUP3 DUP3 MSTORE PUSH1 0x20 DUP3 ADD SWAP1 POP SWAP3 SWAP2 POP POP JUMP JUMPDEST PUSH32 0x496E76616C6964206C6F636B20706572696F642E000000000000000000000000 PUSH1 0x0 DUP3 ADD MSTORE POP JUMP JUMPDEST PUSH1 0x0 PUSH2 0x2523 PUSH1 0x14 DUP4 PUSH2 0x24DC JUMP JUMPDEST SWAP2 POP PUSH2 0x252E DUP3 PUSH2 0x24ED JUMP JUMPDEST PUSH1 0x20 DUP3 ADD SWAP1 POP SWAP2 SWAP1 POP JUMP JUMPDEST PUSH1 0x0 PUSH1 0x20 DUP3 ADD SWAP1 POP DUP2 DUP2 SUB PUSH1 0x0 DUP4 ADD MSTORE PUSH2 0x2552 DUP2 PUSH2 0x2516 JUMP JUMPDEST SWAP1 POP SWAP2 SWAP1 POP JUMP JUMPDEST PUSH32 0x436F6E7472616374206E6F7420616C6C6F776564000000000000000000000000 PUSH1 0x0 DUP3 ADD MSTORE POP JUMP JUMPDEST PUSH1 0x0 PUSH2 0x258F PUSH1 0x14 DUP4 PUSH2 0x24DC JUMP JUMPDEST SWAP2 POP PUSH2 0x259A DUP3 PUSH2 0x2559 JUMP JUMPDEST PUSH1 0x20 DUP3 ADD SWAP1 POP SWAP2 SWAP1 POP JUMP JUMPDEST PUSH1 0x0 PUSH1 0x20 DUP3 ADD SWAP1 POP DUP2 DUP2 SUB PUSH1 0x0 DUP4 ADD MSTORE PUSH2 0x25BE DUP2 PUSH2 0x2582 JUMP JUMPDEST SWAP1 POP SWAP2 SWAP1 POP JUMP JUMPDEST PUSH32 0x50726F787920636F6E7472616374206E6F7420616C6C6F776564000000000000 PUSH1 0x0 DUP3 ADD MSTORE POP JUMP JUMPDEST PUSH1 0x0 PUSH2 0x25FB PUSH1 0x1A DUP4 PUSH2 0x24DC JUMP JUMPDEST SWAP2 POP PUSH2 0x2606 DUP3 PUSH2 0x25C5 JUMP JUMPDEST PUSH1 0x20 DUP3 ADD SWAP1 POP SWAP2 SWAP1 POP JUMP JUMPDEST PUSH1 0x0 PUSH1 0x20 DUP3 ADD SWAP1 POP DUP2 DUP2 SUB PUSH1 0x0 DUP4 ADD MSTORE PUSH2 0x262A DUP2 PUSH2 0x25EE JUMP JUMPDEST SWAP1 POP SWAP2 SWAP1 POP JUMP JUMPDEST PUSH32 0x5374616B696E673A20526567697374657220636F6C6C656374696F6E20627920 PUSH1 0x0 DUP3 ADD MSTORE PUSH32 0x6164645374616B696E674E667473000000000000000000000000000000000000 PUSH1 0x20 DUP3 ADD MSTORE POP JUMP JUMPDEST PUSH1 0x0 PUSH2 0x268D PUSH1 0x2E DUP4 PUSH2 0x24DC JUMP JUMPDEST SWAP2 POP PUSH2 0x2698 DUP3 PUSH2 0x2631 JUMP JUMPDEST PUSH1 0x40 DUP3 ADD SWAP1 POP SWAP2 SWAP1 POP JUMP JUMPDEST PUSH1 0x0 PUSH1 0x20 DUP3 ADD SWAP1 POP DUP2 DUP2 SUB PUSH1 0x0 DUP4 ADD MSTORE PUSH2 0x26BC DUP2 PUSH2 0x2680 JUMP JUMPDEST SWAP1 POP SWAP2 SWAP1 POP JUMP JUMPDEST PUSH32 0x4E6F20746F6B656E730000000000000000000000000000000000000000000000 PUSH1 0x0 DUP3 ADD MSTORE POP JUMP JUMPDEST PUSH1 0x0 PUSH2 0x26F9 PUSH1 0x9 DUP4 PUSH2 0x24DC JUMP JUMPDEST SWAP2 POP PUSH2 0x2704 DUP3 PUSH2 0x26C3 JUMP JUMPDEST PUSH1 0x20 DUP3 ADD SWAP1 POP SWAP2 SWAP1 POP JUMP JUMPDEST PUSH1 0x0 PUSH1 0x20 DUP3 ADD SWAP1 POP DUP2 DUP2 SUB PUSH1 0x0 DUP4 ADD MSTORE PUSH2 0x2728 DUP2 PUSH2 0x26EC JUMP JUMPDEST SWAP1 POP SWAP2 SWAP1 POP JUMP JUMPDEST PUSH32 0x4E487B7100000000000000000000000000000000000000000000000000000000 PUSH1 0x0 MSTORE PUSH1 0x32 PUSH1 0x4 MSTORE PUSH1 0x24 PUSH1 0x0 REVERT JUMPDEST PUSH32 0x4E6F74206120746F6B656E206F776E6572000000000000000000000000000000 PUSH1 0x0 DUP3 ADD MSTORE POP JUMP JUMPDEST PUSH1 0x0 PUSH2 0x2794 PUSH1 0x11 DUP4 PUSH2 0x24DC JUMP JUMPDEST SWAP2 POP PUSH2 0x279F DUP3 PUSH2 0x275E JUMP JUMPDEST PUSH1 0x20 DUP3 ADD SWAP1 POP SWAP2 SWAP1 POP JUMP JUMPDEST PUSH1 0x0 PUSH1 0x20 DUP3 ADD SWAP1 POP DUP2 DUP2 SUB PUSH1 0x0 DUP4 ADD MSTORE PUSH2 0x27C3 DUP2 PUSH2 0x2787 JUMP JUMPDEST SWAP1 POP SWAP2 SWAP1 POP JUMP JUMPDEST PUSH32 0x4E487B7100000000000000000000000000000000000000000000000000000000 PUSH1 0x0 MSTORE PUSH1 0x11 PUSH1 0x4 MSTORE PUSH1 0x24 PUSH1 0x0 REVERT JUMPDEST PUSH1 0x0 PUSH2 0x2804 DUP3 PUSH2 0x1DDC JUMP JUMPDEST SWAP2 POP PUSH2 0x280F DUP4 PUSH2 0x1DDC JUMP JUMPDEST SWAP3 POP DUP3 DUP3 ADD SWAP1 POP DUP1 DUP3 GT ISZERO PUSH2 0x2827 JUMPI PUSH2 0x2826 PUSH2 0x27CA JUMP JUMPDEST JUMPDEST SWAP3 SWAP2 POP POP JUMP JUMPDEST PUSH32 0x4E6F742061626C6520746F20636C61696D207965740000000000000000000000 PUSH1 0x0 DUP3 ADD MSTORE POP JUMP JUMPDEST PUSH1 0x0 PUSH2 0x2863 PUSH1 0x15 DUP4 PUSH2 0x24DC JUMP JUMPDEST SWAP2 POP PUSH2 0x286E DUP3 PUSH2 0x282D JUMP JUMPDEST PUSH1 0x20 DUP3 ADD SWAP1 POP SWAP2 SWAP1 POP JUMP JUMPDEST PUSH1 0x0 PUSH1 0x20 DUP3 ADD SWAP1 POP DUP2 DUP2 SUB PUSH1 0x0 DUP4 ADD MSTORE PUSH2 0x2892 DUP2 PUSH2 0x2856 JUMP JUMPDEST SWAP1 POP SWAP2 SWAP1 POP JUMP JUMPDEST PUSH32 0x416C726561647920756E6C6F636B656400000000000000000000000000000000 PUSH1 0x0 DUP3 ADD MSTORE POP JUMP JUMPDEST PUSH1 0x0 PUSH2 0x28CF PUSH1 0x10 DUP4 PUSH2 0x24DC JUMP JUMPDEST SWAP2 POP PUSH2 0x28DA DUP3 PUSH2 0x2899 JUMP JUMPDEST PUSH1 0x20 DUP3 ADD SWAP1 POP SWAP2 SWAP1 POP JUMP JUMPDEST PUSH1 0x0 PUSH1 0x20 DUP3 ADD SWAP1 POP DUP2 DUP2 SUB PUSH1 0x0 DUP4 ADD MSTORE PUSH2 0x28FE DUP2 PUSH2 0x28C2 JUMP JUMPDEST SWAP1 POP SWAP2 SWAP1 POP JUMP JUMPDEST PUSH1 0x0 PUSH2 0x2910 DUP3 PUSH2 0x1DDC JUMP JUMPDEST SWAP2 POP PUSH2 0x291B DUP4 PUSH2 0x1DDC JUMP JUMPDEST SWAP3 POP DUP3 DUP3 SUB SWAP1 POP DUP2 DUP2 GT ISZERO PUSH2 0x2933 JUMPI PUSH2 0x2932 PUSH2 0x27CA JUMP JUMPDEST JUMPDEST SWAP3 SWAP2 POP POP JUMP JUMPDEST PUSH1 0x0 PUSH1 0x40 DUP3 ADD SWAP1 POP PUSH2 0x294E PUSH1 0x0 DUP4 ADD DUP6 PUSH2 0x1F9E JUMP JUMPDEST PUSH2 0x295B PUSH1 0x20 DUP4 ADD DUP5 PUSH2 0x1F74 JUMP JUMPDEST SWAP4 SWAP3 POP POP POP JUMP JUMPDEST PUSH1 0x0 PUSH2 0x296D DUP3 PUSH2 0x1DDC JUMP JUMPDEST SWAP2 POP PUSH32 0xFFFFFFFFFFFFFFFFFFFFFFFFFFFFFFFFFFFFFFFFFFFFFFFFFFFFFFFFFFFFFFFF DUP3 SUB PUSH2 0x299F JUMPI PUSH2 0x299E PUSH2 0x27CA JUMP JUMPDEST JUMPDEST PUSH1 0x1 DUP3 ADD SWAP1 POP SWAP2 SWAP1 POP JUMP JUMPDEST PUSH1 0x0 DUP3 DUP3 MSTORE PUSH1 0x20 DUP3 ADD SWAP1 POP SWAP3 SWAP2 POP POP JUMP JUMPDEST PUSH1 0x0 DUP1 REVERT JUMPDEST DUP3 DUP2 DUP4 CALLDATACOPY POP POP POP JUMP JUMPDEST PUSH1 0x0 PUSH2 0x29D5 DUP4 DUP6 PUSH2 0x29AA JUMP JUMPDEST SWAP4 POP PUSH32 0x7FFFFFFFFFFFFFFFFFFFFFFFFFFFFFFFFFFFFFFFFFFFFFFFFFFFFFFFFFFFFFF DUP4 GT ISZERO PUSH2 0x2A08 JUMPI PUSH2 0x2A07 PUSH2 0x29BB JUMP JUMPDEST JUMPDEST PUSH1 0x20 DUP4 MUL SWAP3 POP PUSH2 0x2A19 DUP4 DUP6 DUP5 PUSH2 0x29C0 JUMP JUMPDEST DUP3 DUP5 ADD SWAP1 POP SWAP4 SWAP3 POP POP POP JUMP JUMPDEST PUSH1 0x0 PUSH1 0x40 DUP3 ADD SWAP1 POP DUP2 DUP2 SUB PUSH1 0x0 DUP4 ADD MSTORE PUSH2 0x2A40 DUP2 DUP6 DUP8 PUSH2 0x29C9 JUMP JUMPDEST SWAP1 POP PUSH2 0x2A4F PUSH1 0x20 DUP4 ADD DUP5 PUSH2 0x1F74 JUMP JUMPDEST SWAP5 SWAP4 POP POP POP POP JUMP JUMPDEST PUSH32 0x5265656E7472616E637947756172643A207265656E7472616E742063616C6C00 PUSH1 0x0 DUP3 ADD MSTORE POP JUMP JUMPDEST PUSH1 0x0 PUSH2 0x2A8D PUSH1 0x1F DUP4 PUSH2 0x24DC JUMP JUMPDEST SWAP2 POP PUSH2 0x2A98 DUP3 PUSH2 0x2A57 JUMP JUMPDEST PUSH1 0x20 DUP3 ADD SWAP1 POP SWAP2 SWAP1 POP JUMP JUMPDEST PUSH1 0x0 PUSH1 0x20 DUP3 ADD SWAP1 POP DUP2 DUP2 SUB PUSH1 0x0 DUP4 ADD MSTORE PUSH2 0x2ABC DUP2 PUSH2 0x2A80 JUMP JUMPDEST SWAP1 POP SWAP2 SWAP1 POP JUMP JUMPDEST PUSH1 0x0 DUP2 MLOAD SWAP1 POP PUSH2 0x2AD2 DUP2 PUSH2 0x2252 JUMP JUMPDEST SWAP3 SWAP2 POP POP JUMP JUMPDEST PUSH1 0x0 PUSH1 0x20 DUP3 DUP5 SUB SLT ISZERO PUSH2 0x2AEE JUMPI PUSH2 0x2AED PUSH2 0x1DD2 JUMP JUMPDEST JUMPDEST PUSH1 0x0 PUSH2 0x2AFC DUP5 DUP3 DUP6 ADD PUSH2 0x2AC3 JUMP JUMPDEST SWAP2 POP POP SWAP3 SWAP2 POP POP JUMP JUMPDEST PUSH32 0x596F7520646F6E277420686F6C64207468697320746F6B656E00000000000000 PUSH1 0x0 DUP3 ADD MSTORE POP JUMP JUMPDEST PUSH1 0x0 PUSH2 0x2B3B PUSH1 0x19 DUP4 PUSH2 0x24DC JUMP JUMPDEST SWAP2 POP PUSH2 0x2B46 DUP3 PUSH2 0x2B05 JUMP JUMPDEST PUSH1 0x20 DUP3 ADD SWAP1 POP SWAP2 SWAP1 POP JUMP JUMPDEST PUSH1 0x0 PUSH1 0x20 DUP3 ADD SWAP1 POP DUP2 DUP2 SUB PUSH1 0x0 DUP4 ADD MSTORE PUSH2 0x2B6A DUP2 PUSH2 0x2B2E JUMP JUMPDEST SWAP1 POP SWAP2 SWAP1 POP JUMP JUMPDEST PUSH1 0x0 PUSH1 0x60 DUP3 ADD SWAP1 POP PUSH2 0x2B86 PUSH1 0x0 DUP4 ADD DUP7 PUSH2 0x1F9E JUMP JUMPDEST PUSH2 0x2B93 PUSH1 0x20 DUP4 ADD DUP6 PUSH2 0x1F9E JUMP JUMPDEST PUSH2 0x2BA0 PUSH1 0x40 DUP4 ADD DUP5 PUSH2 0x1F74 JUMP JUMPDEST SWAP5 SWAP4 POP POP POP POP JUMP JUMPDEST PUSH1 0x0 PUSH1 0x20 DUP3 ADD SWAP1 POP DUP2 DUP2 SUB PUSH1 0x0 DUP4 ADD MSTORE PUSH2 0x2BC3 DUP2 DUP5 DUP7 PUSH2 0x29C9 JUMP JUMPDEST SWAP1 POP SWAP4 SWAP3 POP POP POP JUMP JUMPDEST PUSH32 0x4E6F742061626C6520746F20756E6C6F636B2079657400000000000000000000 PUSH1 0x0 DUP3 ADD MSTORE POP JUMP JUMPDEST PUSH1 0x0 PUSH2 0x2C02 PUSH1 0x16 DUP4 PUSH2 0x24DC JUMP JUMPDEST SWAP2 POP PUSH2 0x2C0D DUP3 PUSH2 0x2BCC JUMP JUMPDEST PUSH1 0x20 DUP3 ADD SWAP1 POP SWAP2 SWAP1 POP JUMP JUMPDEST PUSH1 0x0 PUSH1 0x20 DUP3 ADD SWAP1 POP DUP2 DUP2 SUB PUSH1 0x0 DUP4 ADD MSTORE PUSH2 0x2C31 DUP2 PUSH2 0x2BF5 JUMP JUMPDEST SWAP1 POP SWAP2 SWAP1 POP JUMP JUMPDEST PUSH32 0x4F776E61626C653A206E6577206F776E657220697320746865207A65726F2061 PUSH1 0x0 DUP3 ADD MSTORE PUSH32 0x6464726573730000000000000000000000000000000000000000000000000000 PUSH1 0x20 DUP3 ADD MSTORE POP JUMP JUMPDEST PUSH1 0x0 PUSH2 0x2C94 PUSH1 0x26 DUP4 PUSH2 0x24DC JUMP JUMPDEST SWAP2 POP PUSH2 0x2C9F DUP3 PUSH2 0x2C38 JUMP JUMPDEST PUSH1 0x40 DUP3 ADD SWAP1 POP SWAP2 SWAP1 POP JUMP JUMPDEST PUSH1 0x0 PUSH1 0x20 DUP3 ADD SWAP1 POP DUP2 DUP2 SUB PUSH1 0x0 DUP4 ADD MSTORE PUSH2 0x2CC3 DUP2 PUSH2 0x2C87 JUMP JUMPDEST SWAP1 POP SWAP2 SWAP1 POP JUMP JUMPDEST PUSH32 0x4F776E61626C653A2063616C6C6572206973206E6F7420746865206F776E6572 PUSH1 0x0 DUP3 ADD MSTORE POP JUMP JUMPDEST PUSH1 0x0 PUSH2 0x2D00 PUSH1 0x20 DUP4 PUSH2 0x24DC JUMP JUMPDEST SWAP2 POP PUSH2 0x2D0B DUP3 PUSH2 0x2CCA JUMP JUMPDEST PUSH1 0x20 DUP3 ADD SWAP1 POP SWAP2 SWAP1 POP JUMP JUMPDEST PUSH1 0x0 PUSH1 0x20 DUP3 ADD SWAP1 POP DUP2 DUP2 SUB PUSH1 0x0 DUP4 ADD MSTORE PUSH2 0x2D2F DUP2 PUSH2 0x2CF3 JUMP JUMPDEST SWAP1 POP SWAP2 SWAP1 POP JUMP JUMPDEST PUSH1 0x0 PUSH2 0x2D41 DUP3 PUSH2 0x1DDC JUMP JUMPDEST SWAP2 POP PUSH2 0x2D4C DUP4 PUSH2 0x1DDC JUMP JUMPDEST SWAP3 POP DUP2 PUSH32 0xFFFFFFFFFFFFFFFFFFFFFFFFFFFFFFFFFFFFFFFFFFFFFFFFFFFFFFFFFFFFFFFF DIV DUP4 GT DUP3 ISZERO ISZERO AND ISZERO PUSH2 0x2D85 JUMPI PUSH2 0x2D84 PUSH2 0x27CA JUMP JUMPDEST JUMPDEST DUP3 DUP3 MUL SWAP1 POP SWAP3 SWAP2 POP POP JUMP JUMPDEST PUSH32 0x4E487B7100000000000000000000000000000000000000000000000000000000 PUSH1 0x0 MSTORE PUSH1 0x12 PUSH1 0x4 MSTORE PUSH1 0x24 PUSH1 0x0 REVERT JUMPDEST PUSH1 0x0 PUSH2 0x2DCA DUP3 PUSH2 0x1DDC JUMP JUMPDEST SWAP2 POP PUSH2 0x2DD5 DUP4 PUSH2 0x1DDC JUMP JUMPDEST SWAP3 POP DUP3 PUSH2 0x2DE5 JUMPI PUSH2 0x2DE4 PUSH2 0x2D90 JUMP JUMPDEST JUMPDEST DUP3 DUP3 DIV SWAP1 POP SWAP3 SWAP2 POP POP JUMP INVALID LOG2 PUSH5 0x6970667358 0x22 SLT KECCAK256 LOG1 0xB0 PUSH20 0x4D7CE6F45410C57F8360F6E9C1765C607095A3E4 0xC8 0xA5 RETURNDATASIZE 0xD 0xC0 0xE3 INVALID 0xD6 COINBASE PUSH5 0x736F6C6343 STOP ADDMOD LT STOP CALLER "
				},
				"gasEstimates": {
					"creation": {
						"codeDepositCost": "2362800",
						"executionCost": "infinite",
						"totalCost": "infinite"
					},
					"external": {
						"WAVE()": "2451",
						"addStakingNfts(address[],address[],uint256[],uint256[])": "infinite",
						"claimRewards(uint256[],address)": "infinite",
						"claimedRewards(uint256,address)": "infinite",
						"lockInfo(address,uint256)": "infinite",
						"lockNFT(uint256[],address)": "infinite",
						"lockPeriod()": "2496",
						"nftInfo(address)": "infinite",
						"owner()": "2633",
						"renounceOwnership()": "30487",
						"setLockPe(uint256)": "infinite",
						"transferOwnership(address)": "30832",
						"unlockNFT(uint256[],address)": "infinite"
					},
					"internal": {
						"_rewardAmount(uint256,contract IERC721)": "infinite"
					}
				},
				"methodIdentifiers": {
					"WAVE()": "c69d1923",
					"addStakingNfts(address[],address[],uint256[],uint256[])": "eee00ed0",
					"claimRewards(uint256[],address)": "0520537f",
					"claimedRewards(uint256,address)": "b33068c4",
					"lockInfo(address,uint256)": "b2520a7c",
					"lockNFT(uint256[],address)": "1902732e",
					"lockPeriod()": "3fd8b02f",
					"nftInfo(address)": "e9545b92",
					"owner()": "8da5cb5b",
					"renounceOwnership()": "715018a6",
					"setLockPe(uint256)": "00574d23",
					"transferOwnership(address)": "f2fde38b",
					"unlockNFT(uint256[],address)": "9f3625f0"
				}
			},
			"storageLayout": {
				"storage": [
					{
						"astId": 7,
						"contract": "contracts/Staking.sol:NFTStaking1",
						"label": "_owner",
						"offset": 0,
						"slot": "0",
						"type": "t_address"
					},
					{
						"astId": 123,
						"contract": "contracts/Staking.sol:NFTStaking1",
						"label": "_status",
						"offset": 0,
						"slot": "1",
						"type": "t_uint256"
					},
					{
						"astId": 614,
						"contract": "contracts/Staking.sol:NFTStaking1",
						"label": "lockPeriod",
						"offset": 0,
						"slot": "2",
						"type": "t_uint256"
					},
					{
						"astId": 634,
						"contract": "contracts/Staking.sol:NFTStaking1",
						"label": "lockInfo",
						"offset": 0,
						"slot": "3",
						"type": "t_mapping(t_contract(IERC721)268,t_mapping(t_uint256,t_struct(LockInfo)626_storage))"
					},
					{
						"astId": 648,
						"contract": "contracts/Staking.sol:NFTStaking1",
						"label": "nftInfo",
						"offset": 0,
						"slot": "4",
						"type": "t_mapping(t_contract(IERC721)268,t_struct(stakeNftInfo)642_storage)"
					},
					{
						"astId": 651,
						"contract": "contracts/Staking.sol:NFTStaking1",
						"label": "WAVE",
						"offset": 0,
						"slot": "5",
						"type": "t_uint256"
					}
				],
				"types": {
					"t_address": {
						"encoding": "inplace",
						"label": "address",
						"numberOfBytes": "20"
					},
					"t_bool": {
						"encoding": "inplace",
						"label": "bool",
						"numberOfBytes": "1"
					},
					"t_contract(IERC721)268": {
						"encoding": "inplace",
						"label": "contract IERC721",
						"numberOfBytes": "20"
					},
					"t_contract(IRewardsToken)1317": {
						"encoding": "inplace",
						"label": "contract IRewardsToken",
						"numberOfBytes": "20"
					},
					"t_mapping(t_contract(IERC721)268,t_mapping(t_uint256,t_struct(LockInfo)626_storage))": {
						"encoding": "mapping",
						"key": "t_contract(IERC721)268",
						"label": "mapping(contract IERC721 => mapping(uint256 => struct NFTStaking1.LockInfo))",
						"numberOfBytes": "32",
						"value": "t_mapping(t_uint256,t_struct(LockInfo)626_storage)"
					},
					"t_mapping(t_contract(IERC721)268,t_struct(stakeNftInfo)642_storage)": {
						"encoding": "mapping",
						"key": "t_contract(IERC721)268",
						"label": "mapping(contract IERC721 => struct NFTStaking1.stakeNftInfo)",
						"numberOfBytes": "32",
						"value": "t_struct(stakeNftInfo)642_storage"
					},
					"t_mapping(t_uint256,t_struct(LockInfo)626_storage)": {
						"encoding": "mapping",
						"key": "t_uint256",
						"label": "mapping(uint256 => struct NFTStaking1.LockInfo)",
						"numberOfBytes": "32",
						"value": "t_struct(LockInfo)626_storage"
					},
					"t_struct(LockInfo)626_storage": {
						"encoding": "inplace",
						"label": "struct NFTStaking1.LockInfo",
						"members": [
							{
								"astId": 616,
								"contract": "contracts/Staking.sol:NFTStaking1",
								"label": "owner",
								"offset": 0,
								"slot": "0",
								"type": "t_address"
							},
							{
								"astId": 618,
								"contract": "contracts/Staking.sol:NFTStaking1",
								"label": "lockedTime",
								"offset": 0,
								"slot": "1",
								"type": "t_uint256"
							},
							{
								"astId": 620,
								"contract": "contracts/Staking.sol:NFTStaking1",
								"label": "claimedRewards",
								"offset": 0,
								"slot": "2",
								"type": "t_uint256"
							},
							{
								"astId": 622,
								"contract": "contracts/Staking.sol:NFTStaking1",
								"label": "isUnlocked",
								"offset": 0,
								"slot": "3",
								"type": "t_bool"
							},
							{
								"astId": 625,
								"contract": "contracts/Staking.sol:NFTStaking1",
								"label": "contractAddress",
								"offset": 1,
								"slot": "3",
								"type": "t_contract(IERC721)268"
							}
						],
						"numberOfBytes": "128"
					},
					"t_struct(stakeNftInfo)642_storage": {
						"encoding": "inplace",
						"label": "struct NFTStaking1.stakeNftInfo",
						"members": [
							{
								"astId": 637,
								"contract": "contracts/Staking.sol:NFTStaking1",
								"label": "rewardsToken",
								"offset": 0,
								"slot": "0",
								"type": "t_contract(IRewardsToken)1317"
							},
							{
								"astId": 639,
								"contract": "contracts/Staking.sol:NFTStaking1",
								"label": "rewardsPerWave",
								"offset": 0,
								"slot": "1",
								"type": "t_uint256"
							},
							{
								"astId": 641,
								"contract": "contracts/Staking.sol:NFTStaking1",
								"label": "rewardPercentage",
								"offset": 0,
								"slot": "2",
								"type": "t_uint256"
							}
						],
						"numberOfBytes": "96"
					},
					"t_uint256": {
						"encoding": "inplace",
						"label": "uint256",
						"numberOfBytes": "32"
					}
				}
			},
			"userdoc": {
				"kind": "user",
				"methods": {
					"WAVE()": {
						"notice": "CONSTANTS "
					}
				},
				"version": 1
			}
		}
	}
}