{
	"contracts/Staking.sol": {
		"NFTStaking1": {
			"abi": [
				{
					"inputs": [
						{
							"internalType": "address[]",
							"name": "_stakeNFT",
							"type": "address[]"
						},
						{
							"internalType": "address[]",
							"name": "_rewardsToken",
							"type": "address[]"
						},
						{
							"internalType": "uint256",
							"name": "_lockPeriod",
							"type": "uint256"
						},
						{
							"internalType": "uint256[]",
							"name": "_rewardPerWave",
							"type": "uint256[]"
						},
						{
							"internalType": "uint256",
							"name": "_wave",
							"type": "uint256"
						}
					],
					"stateMutability": "nonpayable",
					"type": "constructor"
				},
				{
					"anonymous": false,
					"inputs": [
						{
							"indexed": false,
							"internalType": "uint256",
							"name": "lockPeriod",
							"type": "uint256"
						}
					],
					"name": "LockPeriodUpdated",
					"type": "event"
				},
				{
					"anonymous": false,
					"inputs": [
						{
							"indexed": true,
							"internalType": "address",
							"name": "owner",
							"type": "address"
						},
						{
							"indexed": false,
							"internalType": "uint256[]",
							"name": "tokenIds",
							"type": "uint256[]"
						}
					],
					"name": "NFTLocked",
					"type": "event"
				},
				{
					"anonymous": false,
					"inputs": [
						{
							"indexed": true,
							"internalType": "address",
							"name": "owner",
							"type": "address"
						},
						{
							"indexed": false,
							"internalType": "uint256[]",
							"name": "tokenIds",
							"type": "uint256[]"
						}
					],
					"name": "NFTUnLocked",
					"type": "event"
				},
				{
					"anonymous": false,
					"inputs": [
						{
							"indexed": true,
							"internalType": "address",
							"name": "previousOwner",
							"type": "address"
						},
						{
							"indexed": true,
							"internalType": "address",
							"name": "newOwner",
							"type": "address"
						}
					],
					"name": "OwnershipTransferred",
					"type": "event"
				},
				{
					"anonymous": false,
					"inputs": [
						{
							"indexed": true,
							"internalType": "address",
							"name": "owner",
							"type": "address"
						},
						{
							"indexed": false,
							"internalType": "uint256[]",
							"name": "tokenIds",
							"type": "uint256[]"
						},
						{
							"indexed": false,
							"internalType": "uint256",
							"name": "rewards",
							"type": "uint256"
						}
					],
					"name": "RewardsClaimed",
					"type": "event"
				},
				{
					"inputs": [],
					"name": "WAVE",
					"outputs": [
						{
							"internalType": "uint256",
							"name": "",
							"type": "uint256"
						}
					],
					"stateMutability": "view",
					"type": "function"
				},
				{
					"inputs": [
						{
							"internalType": "uint256[]",
							"name": "_tokenIds",
							"type": "uint256[]"
						}
					],
					"name": "claimRewards",
					"outputs": [],
					"stateMutability": "nonpayable",
					"type": "function"
				},
				{
					"inputs": [
						{
							"internalType": "uint256",
							"name": "_tokenId",
							"type": "uint256"
						}
					],
					"name": "claimedRewards",
					"outputs": [
						{
							"internalType": "uint256",
							"name": "",
							"type": "uint256"
						}
					],
					"stateMutability": "view",
					"type": "function"
				},
				{
					"inputs": [
						{
							"internalType": "uint256[]",
							"name": "_tokenIds",
							"type": "uint256[]"
						}
					],
					"name": "lockNFT",
					"outputs": [],
					"stateMutability": "nonpayable",
					"type": "function"
				},
				{
					"inputs": [],
					"name": "lockPeriod",
					"outputs": [
						{
							"internalType": "uint256",
							"name": "",
							"type": "uint256"
						}
					],
					"stateMutability": "view",
					"type": "function"
				},
				{
					"inputs": [],
					"name": "owner",
					"outputs": [
						{
							"internalType": "address",
							"name": "",
							"type": "address"
						}
					],
					"stateMutability": "view",
					"type": "function"
				},
				{
					"inputs": [],
					"name": "renounceOwnership",
					"outputs": [],
					"stateMutability": "nonpayable",
					"type": "function"
				},
				{
					"inputs": [
						{
							"internalType": "uint256",
							"name": "",
							"type": "uint256"
						}
					],
					"name": "rewardsPerWave",
					"outputs": [
						{
							"internalType": "uint256",
							"name": "",
							"type": "uint256"
						}
					],
					"stateMutability": "view",
					"type": "function"
				},
				{
					"inputs": [
						{
							"internalType": "uint256",
							"name": "",
							"type": "uint256"
						}
					],
					"name": "rewardsToken",
					"outputs": [
						{
							"internalType": "contract IRewardsToken",
							"name": "",
							"type": "address"
						}
					],
					"stateMutability": "view",
					"type": "function"
				},
				{
					"inputs": [
						{
							"internalType": "uint256",
							"name": "_lockPeriod",
							"type": "uint256"
						}
					],
					"name": "setLockPeriod",
					"outputs": [],
					"stateMutability": "nonpayable",
					"type": "function"
				},
				{
					"inputs": [
						{
							"internalType": "uint256",
							"name": "",
							"type": "uint256"
						}
					],
					"name": "stakeNFT",
					"outputs": [
						{
							"internalType": "contract IERC721",
							"name": "",
							"type": "address"
						}
					],
					"stateMutability": "view",
					"type": "function"
				},
				{
					"inputs": [
						{
							"internalType": "address",
							"name": "newOwner",
							"type": "address"
						}
					],
					"name": "transferOwnership",
					"outputs": [],
					"stateMutability": "nonpayable",
					"type": "function"
				},
				{
					"inputs": [
						{
							"internalType": "uint256[]",
							"name": "_tokenIds",
							"type": "uint256[]"
						}
					],
					"name": "unlockNFT",
					"outputs": [],
					"stateMutability": "nonpayable",
					"type": "function"
				}
			],
			"devdoc": {
				"kind": "dev",
				"methods": {
					"claimRewards(uint256[])": {
						"details": "claim rewards",
						"params": {
							"_tokenIds": "token ids to unlock"
						}
					},
					"claimedRewards(uint256)": {
						"details": "get total claimed rewards for token id",
						"params": {
							"_tokenId": "token id to get claimed Rewards amount"
						}
					},
					"lockNFT(uint256[])": {
						"details": "lock NFT into the contract",
						"params": {
							"_tokenIds": "token ids to stake"
						}
					},
					"owner()": {
						"details": "Returns the address of the current owner."
					},
					"renounceOwnership()": {
						"details": "Leaves the contract without owner. It will not be possible to call `onlyOwner` functions anymore. Can only be called by the current owner. NOTE: Renouncing ownership will leave the contract without an owner, thereby removing any functionality that is only available to the owner."
					},
					"setLockPeriod(uint256)": {
						"details": "update lock period",
						"params": {
							"_lockPeriod": "lock period to set"
						}
					},
					"transferOwnership(address)": {
						"details": "Transfers ownership of the contract to a new account (`newOwner`). Can only be called by the current owner."
					},
					"unlockNFT(uint256[])": {
						"details": "unlock NFT from the contract",
						"params": {
							"_tokenIds": "token ids to unlock"
						}
					}
				},
				"version": 1
			},
			"evm": {
				"assembly": "    /* \"contracts/Staking.sol\":412:6533  contract NFTStaking1 is Ownable, ReentrancyGuard {... */\n  mstore(0x40, 0x80)\n    /* \"contracts/Staking.sol\":1458:2398  constructor(... */\n  callvalue\n  dup1\n  iszero\n  tag_1\n  jumpi\n  0x00\n  dup1\n  revert\ntag_1:\n  pop\n  mload(0x40)\n  sub(codesize, bytecodeSize)\n  dup1\n  bytecodeSize\n  dup4\n  codecopy\n  dup2\n  dup2\n  add\n  0x40\n  mstore\n  dup2\n  add\n  swap1\n  tag_2\n  swap2\n  swap1\n  tag_3\n  jump\t// in\ntag_2:\n    /* \"@openzeppelin/contracts/access/Ownable.sol\":936:968  _transferOwnership(_msgSender()) */\n  tag_8\n    /* \"@openzeppelin/contracts/access/Ownable.sol\":955:967  _msgSender() */\n  tag_9\n    /* \"@openzeppelin/contracts/access/Ownable.sol\":955:965  _msgSender */\n  shl(0x20, tag_10)\n    /* \"@openzeppelin/contracts/access/Ownable.sol\":955:967  _msgSender() */\n  0x20\n  shr\n  jump\t// in\ntag_9:\n    /* \"@openzeppelin/contracts/access/Ownable.sol\":936:954  _transferOwnership */\n  shl(0x20, tag_11)\n    /* \"@openzeppelin/contracts/access/Ownable.sol\":936:968  _transferOwnership(_msgSender()) */\n  0x20\n  shr\n  jump\t// in\ntag_8:\n    /* \"@openzeppelin/contracts/security/ReentrancyGuard.sol\":1701:1702  1 */\n  0x01\n    /* \"@openzeppelin/contracts/security/ReentrancyGuard.sol\":1806:1813  _status */\n  dup1\n    /* \"@openzeppelin/contracts/security/ReentrancyGuard.sol\":1806:1828  _status = _NOT_ENTERED */\n  dup2\n  swap1\n  sstore\n  pop\n    /* \"contracts/Staking.sol\":1918:1919  0 */\n  0x00\n    /* \"contracts/Staking.sol\":1904:1915  _lockPeriod */\n  dup4\n    /* \"contracts/Staking.sol\":1904:1919  _lockPeriod > 0 */\n  gt\n    /* \"contracts/Staking.sol\":1896:1943  require(_lockPeriod > 0, \"Invalid lock period\") */\n  tag_14\n  jumpi\n  mload(0x40)\n  0x08c379a000000000000000000000000000000000000000000000000000000000\n  dup2\n  mstore\n  0x04\n  add\n  tag_15\n  swap1\n  tag_16\n  jump\t// in\ntag_15:\n  mload(0x40)\n  dup1\n  swap2\n  sub\n  swap1\n  revert\ntag_14:\n    /* \"contracts/Staking.sol\":1961:1967  uint i */\n  0x00\n    /* \"contracts/Staking.sol\":1956:2079  for (uint i = 0; i < _rewardsToken.length; i++) {... */\ntag_17:\n    /* \"contracts/Staking.sol\":1977:1990  _rewardsToken */\n  dup5\n    /* \"contracts/Staking.sol\":1977:1997  _rewardsToken.length */\n  mload\n    /* \"contracts/Staking.sol\":1973:1974  i */\n  dup2\n    /* \"contracts/Staking.sol\":1973:1997  i < _rewardsToken.length */\n  lt\n    /* \"contracts/Staking.sol\":1956:2079  for (uint i = 0; i < _rewardsToken.length; i++) {... */\n  iszero\n  tag_18\n  jumpi\n    /* \"contracts/Staking.sol\":2021:2033  rewardsToken */\n  0x02\n    /* \"contracts/Staking.sol\":2053:2066  _rewardsToken */\n  dup6\n    /* \"contracts/Staking.sol\":2067:2068  i */\n  dup3\n    /* \"contracts/Staking.sol\":2053:2069  _rewardsToken[i] */\n  dup2\n  mload\n  dup2\n  lt\n  tag_20\n  jumpi\n  tag_21\n  tag_22\n  jump\t// in\ntag_21:\ntag_20:\n  0x20\n  mul\n  0x20\n  add\n  add\n  mload\n    /* \"contracts/Staking.sol\":2021:2071  rewardsToken.push(IRewardsToken(_rewardsToken[i])) */\n  swap1\n  dup1\n  0x01\n  dup2\n  sload\n  add\n  dup1\n  dup3\n  sstore\n  dup1\n  swap2\n  pop\n  pop\n  0x01\n  swap1\n  sub\n  swap1\n  0x00\n  mstore\n  keccak256(0x00, 0x20)\n  add\n  0x00\n  swap1\n  swap2\n  swap1\n  swap2\n  swap1\n  swap2\n  0x0100\n  exp\n  dup2\n  sload\n  dup2\n  0xffffffffffffffffffffffffffffffffffffffff\n  mul\n  not\n  and\n  swap1\n  dup4\n  0xffffffffffffffffffffffffffffffffffffffff\n  and\n  mul\n  or\n  swap1\n  sstore\n  pop\n    /* \"contracts/Staking.sol\":1999:2002  i++ */\n  dup1\n  dup1\n  tag_24\n  swap1\n  tag_25\n  jump\t// in\ntag_24:\n  swap2\n  pop\n  pop\n    /* \"contracts/Staking.sol\":1956:2079  for (uint i = 0; i < _rewardsToken.length; i++) {... */\n  jump(tag_17)\ntag_18:\n  pop\n    /* \"contracts/Staking.sol\":2100:2106  uint i */\n  0x00\n    /* \"contracts/Staking.sol\":2095:2208  for (uint i = 0; i < _rewardsToken.length; i++) {... */\ntag_26:\n    /* \"contracts/Staking.sol\":2116:2129  _rewardsToken */\n  dup5\n    /* \"contracts/Staking.sol\":2116:2136  _rewardsToken.length */\n  mload\n    /* \"contracts/Staking.sol\":2112:2113  i */\n  dup2\n    /* \"contracts/Staking.sol\":2112:2136  i < _rewardsToken.length */\n  lt\n    /* \"contracts/Staking.sol\":2095:2208  for (uint i = 0; i < _rewardsToken.length; i++) {... */\n  iszero\n  tag_27\n  jumpi\n    /* \"contracts/Staking.sol\":2160:2174  rewardsPerWave */\n  0x07\n    /* \"contracts/Staking.sol\":2181:2195  _rewardPerWave */\n  dup4\n    /* \"contracts/Staking.sol\":2196:2197  i */\n  dup3\n    /* \"contracts/Staking.sol\":2181:2198  _rewardPerWave[i] */\n  dup2\n  mload\n  dup2\n  lt\n  tag_29\n  jumpi\n  tag_30\n  tag_22\n  jump\t// in\ntag_30:\ntag_29:\n  0x20\n  mul\n  0x20\n  add\n  add\n  mload\n    /* \"contracts/Staking.sol\":2160:2200  rewardsPerWave.push((_rewardPerWave[i])) */\n  swap1\n  dup1\n  0x01\n  dup2\n  sload\n  add\n  dup1\n  dup3\n  sstore\n  dup1\n  swap2\n  pop\n  pop\n  0x01\n  swap1\n  sub\n  swap1\n  0x00\n  mstore\n  keccak256(0x00, 0x20)\n  add\n  0x00\n  swap1\n  swap2\n  swap1\n  swap2\n  swap1\n  swap2\n  pop\n  sstore\n    /* \"contracts/Staking.sol\":2138:2141  i++ */\n  dup1\n  dup1\n  tag_32\n  swap1\n  tag_25\n  jump\t// in\ntag_32:\n  swap2\n  pop\n  pop\n    /* \"contracts/Staking.sol\":2095:2208  for (uint i = 0; i < _rewardsToken.length; i++) {... */\n  jump(tag_26)\ntag_27:\n  pop\n    /* \"contracts/Staking.sol\":2231:2237  uint i */\n  0x00\n    /* \"contracts/Staking.sol\":2226:2331  for (uint i = 0; i < _stakeNFT.length; i++) {... */\ntag_33:\n    /* \"contracts/Staking.sol\":2247:2256  _stakeNFT */\n  dup6\n    /* \"contracts/Staking.sol\":2247:2263  _stakeNFT.length */\n  mload\n    /* \"contracts/Staking.sol\":2243:2244  i */\n  dup2\n    /* \"contracts/Staking.sol\":2243:2263  i < _stakeNFT.length */\n  lt\n    /* \"contracts/Staking.sol\":2226:2331  for (uint i = 0; i < _stakeNFT.length; i++) {... */\n  iszero\n  tag_34\n  jumpi\n    /* \"contracts/Staking.sol\":2287:2295  stakeNFT */\n  0x03\n    /* \"contracts/Staking.sol\":2309:2318  _stakeNFT */\n  dup7\n    /* \"contracts/Staking.sol\":2319:2320  i */\n  dup3\n    /* \"contracts/Staking.sol\":2309:2321  _stakeNFT[i] */\n  dup2\n  mload\n  dup2\n  lt\n  tag_36\n  jumpi\n  tag_37\n  tag_22\n  jump\t// in\ntag_37:\ntag_36:\n  0x20\n  mul\n  0x20\n  add\n  add\n  mload\n    /* \"contracts/Staking.sol\":2287:2323  stakeNFT.push(IERC721(_stakeNFT[i])) */\n  swap1\n  dup1\n  0x01\n  dup2\n  sload\n  add\n  dup1\n  dup3\n  sstore\n  dup1\n  swap2\n  pop\n  pop\n  0x01\n  swap1\n  sub\n  swap1\n  0x00\n  mstore\n  keccak256(0x00, 0x20)\n  add\n  0x00\n  swap1\n  swap2\n  swap1\n  swap2\n  swap1\n  swap2\n  0x0100\n  exp\n  dup2\n  sload\n  dup2\n  0xffffffffffffffffffffffffffffffffffffffff\n  mul\n  not\n  and\n  swap1\n  dup4\n  0xffffffffffffffffffffffffffffffffffffffff\n  and\n  mul\n  or\n  swap1\n  sstore\n  pop\n    /* \"contracts/Staking.sol\":2265:2268  i++ */\n  dup1\n  dup1\n  tag_39\n  swap1\n  tag_25\n  jump\t// in\ntag_39:\n  swap2\n  pop\n  pop\n    /* \"contracts/Staking.sol\":2226:2331  for (uint i = 0; i < _stakeNFT.length; i++) {... */\n  jump(tag_33)\ntag_34:\n  pop\n    /* \"contracts/Staking.sol\":2356:2367  _lockPeriod */\n  dup3\n    /* \"contracts/Staking.sol\":2343:2353  lockPeriod */\n  0x04\n    /* \"contracts/Staking.sol\":2343:2367  lockPeriod = _lockPeriod */\n  dup2\n  swap1\n  sstore\n  pop\n    /* \"contracts/Staking.sol\":2385:2390  _wave */\n  dup1\n    /* \"contracts/Staking.sol\":2378:2382  WAVE */\n  0x06\n    /* \"contracts/Staking.sol\":2378:2390  WAVE = _wave */\n  dup2\n  swap1\n  sstore\n  pop\n    /* \"contracts/Staking.sol\":1458:2398  constructor(... */\n  pop\n  pop\n  pop\n  pop\n  pop\n    /* \"contracts/Staking.sol\":412:6533  contract NFTStaking1 is Ownable, ReentrancyGuard {... */\n  jump(tag_40)\n    /* \"@openzeppelin/contracts/utils/Context.sol\":640:736  function _msgSender() internal view virtual returns (address) {... */\ntag_10:\n    /* \"@openzeppelin/contracts/utils/Context.sol\":693:700  address */\n  0x00\n    /* \"@openzeppelin/contracts/utils/Context.sol\":719:729  msg.sender */\n  caller\n    /* \"@openzeppelin/contracts/utils/Context.sol\":712:729  return msg.sender */\n  swap1\n  pop\n    /* \"@openzeppelin/contracts/utils/Context.sol\":640:736  function _msgSender() internal view virtual returns (address) {... */\n  swap1\n  jump\t// out\n    /* \"@openzeppelin/contracts/access/Ownable.sol\":2433:2620  function _transferOwnership(address newOwner) internal virtual {... */\ntag_11:\n    /* \"@openzeppelin/contracts/access/Ownable.sol\":2506:2522  address oldOwner */\n  0x00\n    /* \"@openzeppelin/contracts/access/Ownable.sol\":2525:2531  _owner */\n  dup1\n  0x00\n  swap1\n  sload\n  swap1\n  0x0100\n  exp\n  swap1\n  div\n  0xffffffffffffffffffffffffffffffffffffffff\n  and\n    /* \"@openzeppelin/contracts/access/Ownable.sol\":2506:2531  address oldOwner = _owner */\n  swap1\n  pop\n    /* \"@openzeppelin/contracts/access/Ownable.sol\":2550:2558  newOwner */\n  dup2\n    /* \"@openzeppelin/contracts/access/Ownable.sol\":2541:2547  _owner */\n  0x00\n  dup1\n    /* \"@openzeppelin/contracts/access/Ownable.sol\":2541:2558  _owner = newOwner */\n  0x0100\n  exp\n  dup2\n  sload\n  dup2\n  0xffffffffffffffffffffffffffffffffffffffff\n  mul\n  not\n  and\n  swap1\n  dup4\n  0xffffffffffffffffffffffffffffffffffffffff\n  and\n  mul\n  or\n  swap1\n  sstore\n  pop\n    /* \"@openzeppelin/contracts/access/Ownable.sol\":2604:2612  newOwner */\n  dup2\n    /* \"@openzeppelin/contracts/access/Ownable.sol\":2573:2613  OwnershipTransferred(oldOwner, newOwner) */\n  0xffffffffffffffffffffffffffffffffffffffff\n  and\n    /* \"@openzeppelin/contracts/access/Ownable.sol\":2594:2602  oldOwner */\n  dup2\n    /* \"@openzeppelin/contracts/access/Ownable.sol\":2573:2613  OwnershipTransferred(oldOwner, newOwner) */\n  0xffffffffffffffffffffffffffffffffffffffff\n  and\n  0x8be0079c531659141344cd1fd0a4f28419497f9722a3daafe3b4186f6b6457e0\n  mload(0x40)\n  mload(0x40)\n  dup1\n  swap2\n  sub\n  swap1\n  log3\n    /* \"@openzeppelin/contracts/access/Ownable.sol\":2496:2620  {... */\n  pop\n    /* \"@openzeppelin/contracts/access/Ownable.sol\":2433:2620  function _transferOwnership(address newOwner) internal virtual {... */\n  pop\n  jump\t// out\n    /* \"#utility.yul\":7:82   */\ntag_43:\n    /* \"#utility.yul\":40:46   */\n  0x00\n    /* \"#utility.yul\":73:75   */\n  0x40\n    /* \"#utility.yul\":67:76   */\n  mload\n    /* \"#utility.yul\":57:76   */\n  swap1\n  pop\n    /* \"#utility.yul\":7:82   */\n  swap1\n  jump\t// out\n    /* \"#utility.yul\":88:205   */\ntag_44:\n    /* \"#utility.yul\":197:198   */\n  0x00\n    /* \"#utility.yul\":194:195   */\n  dup1\n    /* \"#utility.yul\":187:199   */\n  revert\n    /* \"#utility.yul\":211:328   */\ntag_45:\n    /* \"#utility.yul\":320:321   */\n  0x00\n    /* \"#utility.yul\":317:318   */\n  dup1\n    /* \"#utility.yul\":310:322   */\n  revert\n    /* \"#utility.yul\":334:451   */\ntag_46:\n    /* \"#utility.yul\":443:444   */\n  0x00\n    /* \"#utility.yul\":440:441   */\n  dup1\n    /* \"#utility.yul\":433:445   */\n  revert\n    /* \"#utility.yul\":457:559   */\ntag_47:\n    /* \"#utility.yul\":498:504   */\n  0x00\n    /* \"#utility.yul\":549:551   */\n  0x1f\n    /* \"#utility.yul\":545:552   */\n  not\n    /* \"#utility.yul\":540:542   */\n  0x1f\n    /* \"#utility.yul\":533:538   */\n  dup4\n    /* \"#utility.yul\":529:543   */\n  add\n    /* \"#utility.yul\":525:553   */\n  and\n    /* \"#utility.yul\":515:553   */\n  swap1\n  pop\n    /* \"#utility.yul\":457:559   */\n  swap2\n  swap1\n  pop\n  jump\t// out\n    /* \"#utility.yul\":565:745   */\ntag_48:\n    /* \"#utility.yul\":613:690   */\n  0x4e487b7100000000000000000000000000000000000000000000000000000000\n    /* \"#utility.yul\":610:611   */\n  0x00\n    /* \"#utility.yul\":603:691   */\n  mstore\n    /* \"#utility.yul\":710:714   */\n  0x41\n    /* \"#utility.yul\":707:708   */\n  0x04\n    /* \"#utility.yul\":700:715   */\n  mstore\n    /* \"#utility.yul\":734:738   */\n  0x24\n    /* \"#utility.yul\":731:732   */\n  0x00\n    /* \"#utility.yul\":724:739   */\n  revert\n    /* \"#utility.yul\":751:1032   */\ntag_49:\n    /* \"#utility.yul\":834:861   */\n  tag_77\n    /* \"#utility.yul\":856:860   */\n  dup3\n    /* \"#utility.yul\":834:861   */\n  tag_47\n  jump\t// in\ntag_77:\n    /* \"#utility.yul\":826:832   */\n  dup2\n    /* \"#utility.yul\":822:862   */\n  add\n    /* \"#utility.yul\":964:970   */\n  dup2\n    /* \"#utility.yul\":952:962   */\n  dup2\n    /* \"#utility.yul\":949:971   */\n  lt\n    /* \"#utility.yul\":928:946   */\n  0xffffffffffffffff\n    /* \"#utility.yul\":916:926   */\n  dup3\n    /* \"#utility.yul\":913:947   */\n  gt\n    /* \"#utility.yul\":910:972   */\n  or\n    /* \"#utility.yul\":907:995   */\n  iszero\n  tag_78\n  jumpi\n    /* \"#utility.yul\":975:993   */\n  tag_79\n  tag_48\n  jump\t// in\ntag_79:\n    /* \"#utility.yul\":907:995   */\ntag_78:\n    /* \"#utility.yul\":1015:1025   */\n  dup1\n    /* \"#utility.yul\":1011:1013   */\n  0x40\n    /* \"#utility.yul\":1004:1026   */\n  mstore\n    /* \"#utility.yul\":794:1032   */\n  pop\n    /* \"#utility.yul\":751:1032   */\n  pop\n  pop\n  jump\t// out\n    /* \"#utility.yul\":1038:1167   */\ntag_50:\n    /* \"#utility.yul\":1072:1078   */\n  0x00\n    /* \"#utility.yul\":1099:1119   */\n  tag_81\n  tag_43\n  jump\t// in\ntag_81:\n    /* \"#utility.yul\":1089:1119   */\n  swap1\n  pop\n    /* \"#utility.yul\":1128:1161   */\n  tag_82\n    /* \"#utility.yul\":1156:1160   */\n  dup3\n    /* \"#utility.yul\":1148:1154   */\n  dup3\n    /* \"#utility.yul\":1128:1161   */\n  tag_49\n  jump\t// in\ntag_82:\n    /* \"#utility.yul\":1038:1167   */\n  swap2\n  swap1\n  pop\n  jump\t// out\n    /* \"#utility.yul\":1173:1484   */\ntag_51:\n    /* \"#utility.yul\":1250:1254   */\n  0x00\n    /* \"#utility.yul\":1340:1358   */\n  0xffffffffffffffff\n    /* \"#utility.yul\":1332:1338   */\n  dup3\n    /* \"#utility.yul\":1329:1359   */\n  gt\n    /* \"#utility.yul\":1326:1382   */\n  iszero\n  tag_84\n  jumpi\n    /* \"#utility.yul\":1362:1380   */\n  tag_85\n  tag_48\n  jump\t// in\ntag_85:\n    /* \"#utility.yul\":1326:1382   */\ntag_84:\n    /* \"#utility.yul\":1412:1416   */\n  0x20\n    /* \"#utility.yul\":1404:1410   */\n  dup3\n    /* \"#utility.yul\":1400:1417   */\n  mul\n    /* \"#utility.yul\":1392:1417   */\n  swap1\n  pop\n    /* \"#utility.yul\":1472:1476   */\n  0x20\n    /* \"#utility.yul\":1466:1470   */\n  dup2\n    /* \"#utility.yul\":1462:1477   */\n  add\n    /* \"#utility.yul\":1454:1477   */\n  swap1\n  pop\n    /* \"#utility.yul\":1173:1484   */\n  swap2\n  swap1\n  pop\n  jump\t// out\n    /* \"#utility.yul\":1490:1607   */\ntag_52:\n    /* \"#utility.yul\":1599:1600   */\n  0x00\n    /* \"#utility.yul\":1596:1597   */\n  dup1\n    /* \"#utility.yul\":1589:1601   */\n  revert\n    /* \"#utility.yul\":1613:1739   */\ntag_53:\n    /* \"#utility.yul\":1650:1657   */\n  0x00\n    /* \"#utility.yul\":1690:1732   */\n  0xffffffffffffffffffffffffffffffffffffffff\n    /* \"#utility.yul\":1683:1688   */\n  dup3\n    /* \"#utility.yul\":1679:1733   */\n  and\n    /* \"#utility.yul\":1668:1733   */\n  swap1\n  pop\n    /* \"#utility.yul\":1613:1739   */\n  swap2\n  swap1\n  pop\n  jump\t// out\n    /* \"#utility.yul\":1745:1841   */\ntag_54:\n    /* \"#utility.yul\":1782:1789   */\n  0x00\n    /* \"#utility.yul\":1811:1835   */\n  tag_89\n    /* \"#utility.yul\":1829:1834   */\n  dup3\n    /* \"#utility.yul\":1811:1835   */\n  tag_53\n  jump\t// in\ntag_89:\n    /* \"#utility.yul\":1800:1835   */\n  swap1\n  pop\n    /* \"#utility.yul\":1745:1841   */\n  swap2\n  swap1\n  pop\n  jump\t// out\n    /* \"#utility.yul\":1847:1969   */\ntag_55:\n    /* \"#utility.yul\":1920:1944   */\n  tag_91\n    /* \"#utility.yul\":1938:1943   */\n  dup2\n    /* \"#utility.yul\":1920:1944   */\n  tag_54\n  jump\t// in\ntag_91:\n    /* \"#utility.yul\":1913:1918   */\n  dup2\n    /* \"#utility.yul\":1910:1945   */\n  eq\n    /* \"#utility.yul\":1900:1963   */\n  tag_92\n  jumpi\n    /* \"#utility.yul\":1959:1960   */\n  0x00\n    /* \"#utility.yul\":1956:1957   */\n  dup1\n    /* \"#utility.yul\":1949:1961   */\n  revert\n    /* \"#utility.yul\":1900:1963   */\ntag_92:\n    /* \"#utility.yul\":1847:1969   */\n  pop\n  jump\t// out\n    /* \"#utility.yul\":1975:2118   */\ntag_56:\n    /* \"#utility.yul\":2032:2037   */\n  0x00\n    /* \"#utility.yul\":2063:2069   */\n  dup2\n    /* \"#utility.yul\":2057:2070   */\n  mload\n    /* \"#utility.yul\":2048:2070   */\n  swap1\n  pop\n    /* \"#utility.yul\":2079:2112   */\n  tag_94\n    /* \"#utility.yul\":2106:2111   */\n  dup2\n    /* \"#utility.yul\":2079:2112   */\n  tag_55\n  jump\t// in\ntag_94:\n    /* \"#utility.yul\":1975:2118   */\n  swap3\n  swap2\n  pop\n  pop\n  jump\t// out\n    /* \"#utility.yul\":2141:2873   */\ntag_57:\n    /* \"#utility.yul\":2248:2253   */\n  0x00\n    /* \"#utility.yul\":2273:2354   */\n  tag_96\n    /* \"#utility.yul\":2289:2353   */\n  tag_97\n    /* \"#utility.yul\":2346:2352   */\n  dup5\n    /* \"#utility.yul\":2289:2353   */\n  tag_51\n  jump\t// in\ntag_97:\n    /* \"#utility.yul\":2273:2354   */\n  tag_50\n  jump\t// in\ntag_96:\n    /* \"#utility.yul\":2264:2354   */\n  swap1\n  pop\n    /* \"#utility.yul\":2374:2379   */\n  dup1\n    /* \"#utility.yul\":2403:2409   */\n  dup4\n    /* \"#utility.yul\":2396:2401   */\n  dup3\n    /* \"#utility.yul\":2389:2410   */\n  mstore\n    /* \"#utility.yul\":2437:2441   */\n  0x20\n    /* \"#utility.yul\":2430:2435   */\n  dup3\n    /* \"#utility.yul\":2426:2442   */\n  add\n    /* \"#utility.yul\":2419:2442   */\n  swap1\n  pop\n    /* \"#utility.yul\":2490:2494   */\n  0x20\n    /* \"#utility.yul\":2482:2488   */\n  dup5\n    /* \"#utility.yul\":2478:2495   */\n  mul\n    /* \"#utility.yul\":2470:2476   */\n  dup4\n    /* \"#utility.yul\":2466:2496   */\n  add\n    /* \"#utility.yul\":2519:2522   */\n  dup6\n    /* \"#utility.yul\":2511:2517   */\n  dup2\n    /* \"#utility.yul\":2508:2523   */\n  gt\n    /* \"#utility.yul\":2505:2627   */\n  iszero\n  tag_98\n  jumpi\n    /* \"#utility.yul\":2538:2617   */\n  tag_99\n  tag_52\n  jump\t// in\ntag_99:\n    /* \"#utility.yul\":2505:2627   */\ntag_98:\n    /* \"#utility.yul\":2653:2659   */\n  dup4\n    /* \"#utility.yul\":2636:2867   */\ntag_100:\n    /* \"#utility.yul\":2670:2676   */\n  dup2\n    /* \"#utility.yul\":2665:2668   */\n  dup2\n    /* \"#utility.yul\":2662:2677   */\n  lt\n    /* \"#utility.yul\":2636:2867   */\n  iszero\n  tag_102\n  jumpi\n    /* \"#utility.yul\":2745:2748   */\n  dup1\n    /* \"#utility.yul\":2774:2822   */\n  tag_103\n    /* \"#utility.yul\":2818:2821   */\n  dup9\n    /* \"#utility.yul\":2806:2816   */\n  dup3\n    /* \"#utility.yul\":2774:2822   */\n  tag_56\n  jump\t// in\ntag_103:\n    /* \"#utility.yul\":2769:2772   */\n  dup5\n    /* \"#utility.yul\":2762:2823   */\n  mstore\n    /* \"#utility.yul\":2852:2856   */\n  0x20\n    /* \"#utility.yul\":2847:2850   */\n  dup5\n    /* \"#utility.yul\":2843:2857   */\n  add\n    /* \"#utility.yul\":2836:2857   */\n  swap4\n  pop\n    /* \"#utility.yul\":2712:2867   */\n  pop\n    /* \"#utility.yul\":2696:2700   */\n  0x20\n    /* \"#utility.yul\":2691:2694   */\n  dup2\n    /* \"#utility.yul\":2687:2701   */\n  add\n    /* \"#utility.yul\":2680:2701   */\n  swap1\n  pop\n    /* \"#utility.yul\":2636:2867   */\n  jump(tag_100)\ntag_102:\n    /* \"#utility.yul\":2640:2661   */\n  pop\n    /* \"#utility.yul\":2254:2873   */\n  pop\n  pop\n    /* \"#utility.yul\":2141:2873   */\n  swap4\n  swap3\n  pop\n  pop\n  pop\n  jump\t// out\n    /* \"#utility.yul\":2896:3281   */\ntag_58:\n    /* \"#utility.yul\":2978:2983   */\n  0x00\n    /* \"#utility.yul\":3027:3030   */\n  dup3\n    /* \"#utility.yul\":3020:3024   */\n  0x1f\n    /* \"#utility.yul\":3012:3018   */\n  dup4\n    /* \"#utility.yul\":3008:3025   */\n  add\n    /* \"#utility.yul\":3004:3031   */\n  slt\n    /* \"#utility.yul\":2994:3116   */\n  tag_105\n  jumpi\n    /* \"#utility.yul\":3035:3114   */\n  tag_106\n  tag_46\n  jump\t// in\ntag_106:\n    /* \"#utility.yul\":2994:3116   */\ntag_105:\n    /* \"#utility.yul\":3145:3151   */\n  dup2\n    /* \"#utility.yul\":3139:3152   */\n  mload\n    /* \"#utility.yul\":3170:3275   */\n  tag_107\n    /* \"#utility.yul\":3271:3274   */\n  dup5\n    /* \"#utility.yul\":3263:3269   */\n  dup3\n    /* \"#utility.yul\":3256:3260   */\n  0x20\n    /* \"#utility.yul\":3248:3254   */\n  dup7\n    /* \"#utility.yul\":3244:3261   */\n  add\n    /* \"#utility.yul\":3170:3275   */\n  tag_57\n  jump\t// in\ntag_107:\n    /* \"#utility.yul\":3161:3275   */\n  swap2\n  pop\n    /* \"#utility.yul\":2984:3281   */\n  pop\n    /* \"#utility.yul\":2896:3281   */\n  swap3\n  swap2\n  pop\n  pop\n  jump\t// out\n    /* \"#utility.yul\":3287:3364   */\ntag_59:\n    /* \"#utility.yul\":3324:3331   */\n  0x00\n    /* \"#utility.yul\":3353:3358   */\n  dup2\n    /* \"#utility.yul\":3342:3358   */\n  swap1\n  pop\n    /* \"#utility.yul\":3287:3364   */\n  swap2\n  swap1\n  pop\n  jump\t// out\n    /* \"#utility.yul\":3370:3492   */\ntag_60:\n    /* \"#utility.yul\":3443:3467   */\n  tag_110\n    /* \"#utility.yul\":3461:3466   */\n  dup2\n    /* \"#utility.yul\":3443:3467   */\n  tag_59\n  jump\t// in\ntag_110:\n    /* \"#utility.yul\":3436:3441   */\n  dup2\n    /* \"#utility.yul\":3433:3468   */\n  eq\n    /* \"#utility.yul\":3423:3486   */\n  tag_111\n  jumpi\n    /* \"#utility.yul\":3482:3483   */\n  0x00\n    /* \"#utility.yul\":3479:3480   */\n  dup1\n    /* \"#utility.yul\":3472:3484   */\n  revert\n    /* \"#utility.yul\":3423:3486   */\ntag_111:\n    /* \"#utility.yul\":3370:3492   */\n  pop\n  jump\t// out\n    /* \"#utility.yul\":3498:3641   */\ntag_61:\n    /* \"#utility.yul\":3555:3560   */\n  0x00\n    /* \"#utility.yul\":3586:3592   */\n  dup2\n    /* \"#utility.yul\":3580:3593   */\n  mload\n    /* \"#utility.yul\":3571:3593   */\n  swap1\n  pop\n    /* \"#utility.yul\":3602:3635   */\n  tag_113\n    /* \"#utility.yul\":3629:3634   */\n  dup2\n    /* \"#utility.yul\":3602:3635   */\n  tag_60\n  jump\t// in\ntag_113:\n    /* \"#utility.yul\":3498:3641   */\n  swap3\n  swap2\n  pop\n  pop\n  jump\t// out\n    /* \"#utility.yul\":3647:3958   */\ntag_62:\n    /* \"#utility.yul\":3724:3728   */\n  0x00\n    /* \"#utility.yul\":3814:3832   */\n  0xffffffffffffffff\n    /* \"#utility.yul\":3806:3812   */\n  dup3\n    /* \"#utility.yul\":3803:3833   */\n  gt\n    /* \"#utility.yul\":3800:3856   */\n  iszero\n  tag_115\n  jumpi\n    /* \"#utility.yul\":3836:3854   */\n  tag_116\n  tag_48\n  jump\t// in\ntag_116:\n    /* \"#utility.yul\":3800:3856   */\ntag_115:\n    /* \"#utility.yul\":3886:3890   */\n  0x20\n    /* \"#utility.yul\":3878:3884   */\n  dup3\n    /* \"#utility.yul\":3874:3891   */\n  mul\n    /* \"#utility.yul\":3866:3891   */\n  swap1\n  pop\n    /* \"#utility.yul\":3946:3950   */\n  0x20\n    /* \"#utility.yul\":3940:3944   */\n  dup2\n    /* \"#utility.yul\":3936:3951   */\n  add\n    /* \"#utility.yul\":3928:3951   */\n  swap1\n  pop\n    /* \"#utility.yul\":3647:3958   */\n  swap2\n  swap1\n  pop\n  jump\t// out\n    /* \"#utility.yul\":3981:4713   */\ntag_63:\n    /* \"#utility.yul\":4088:4093   */\n  0x00\n    /* \"#utility.yul\":4113:4194   */\n  tag_118\n    /* \"#utility.yul\":4129:4193   */\n  tag_119\n    /* \"#utility.yul\":4186:4192   */\n  dup5\n    /* \"#utility.yul\":4129:4193   */\n  tag_62\n  jump\t// in\ntag_119:\n    /* \"#utility.yul\":4113:4194   */\n  tag_50\n  jump\t// in\ntag_118:\n    /* \"#utility.yul\":4104:4194   */\n  swap1\n  pop\n    /* \"#utility.yul\":4214:4219   */\n  dup1\n    /* \"#utility.yul\":4243:4249   */\n  dup4\n    /* \"#utility.yul\":4236:4241   */\n  dup3\n    /* \"#utility.yul\":4229:4250   */\n  mstore\n    /* \"#utility.yul\":4277:4281   */\n  0x20\n    /* \"#utility.yul\":4270:4275   */\n  dup3\n    /* \"#utility.yul\":4266:4282   */\n  add\n    /* \"#utility.yul\":4259:4282   */\n  swap1\n  pop\n    /* \"#utility.yul\":4330:4334   */\n  0x20\n    /* \"#utility.yul\":4322:4328   */\n  dup5\n    /* \"#utility.yul\":4318:4335   */\n  mul\n    /* \"#utility.yul\":4310:4316   */\n  dup4\n    /* \"#utility.yul\":4306:4336   */\n  add\n    /* \"#utility.yul\":4359:4362   */\n  dup6\n    /* \"#utility.yul\":4351:4357   */\n  dup2\n    /* \"#utility.yul\":4348:4363   */\n  gt\n    /* \"#utility.yul\":4345:4467   */\n  iszero\n  tag_120\n  jumpi\n    /* \"#utility.yul\":4378:4457   */\n  tag_121\n  tag_52\n  jump\t// in\ntag_121:\n    /* \"#utility.yul\":4345:4467   */\ntag_120:\n    /* \"#utility.yul\":4493:4499   */\n  dup4\n    /* \"#utility.yul\":4476:4707   */\ntag_122:\n    /* \"#utility.yul\":4510:4516   */\n  dup2\n    /* \"#utility.yul\":4505:4508   */\n  dup2\n    /* \"#utility.yul\":4502:4517   */\n  lt\n    /* \"#utility.yul\":4476:4707   */\n  iszero\n  tag_124\n  jumpi\n    /* \"#utility.yul\":4585:4588   */\n  dup1\n    /* \"#utility.yul\":4614:4662   */\n  tag_125\n    /* \"#utility.yul\":4658:4661   */\n  dup9\n    /* \"#utility.yul\":4646:4656   */\n  dup3\n    /* \"#utility.yul\":4614:4662   */\n  tag_61\n  jump\t// in\ntag_125:\n    /* \"#utility.yul\":4609:4612   */\n  dup5\n    /* \"#utility.yul\":4602:4663   */\n  mstore\n    /* \"#utility.yul\":4692:4696   */\n  0x20\n    /* \"#utility.yul\":4687:4690   */\n  dup5\n    /* \"#utility.yul\":4683:4697   */\n  add\n    /* \"#utility.yul\":4676:4697   */\n  swap4\n  pop\n    /* \"#utility.yul\":4552:4707   */\n  pop\n    /* \"#utility.yul\":4536:4540   */\n  0x20\n    /* \"#utility.yul\":4531:4534   */\n  dup2\n    /* \"#utility.yul\":4527:4541   */\n  add\n    /* \"#utility.yul\":4520:4541   */\n  swap1\n  pop\n    /* \"#utility.yul\":4476:4707   */\n  jump(tag_122)\ntag_124:\n    /* \"#utility.yul\":4480:4501   */\n  pop\n    /* \"#utility.yul\":4094:4713   */\n  pop\n  pop\n    /* \"#utility.yul\":3981:4713   */\n  swap4\n  swap3\n  pop\n  pop\n  pop\n  jump\t// out\n    /* \"#utility.yul\":4736:5121   */\ntag_64:\n    /* \"#utility.yul\":4818:4823   */\n  0x00\n    /* \"#utility.yul\":4867:4870   */\n  dup3\n    /* \"#utility.yul\":4860:4864   */\n  0x1f\n    /* \"#utility.yul\":4852:4858   */\n  dup4\n    /* \"#utility.yul\":4848:4865   */\n  add\n    /* \"#utility.yul\":4844:4871   */\n  slt\n    /* \"#utility.yul\":4834:4956   */\n  tag_127\n  jumpi\n    /* \"#utility.yul\":4875:4954   */\n  tag_128\n  tag_46\n  jump\t// in\ntag_128:\n    /* \"#utility.yul\":4834:4956   */\ntag_127:\n    /* \"#utility.yul\":4985:4991   */\n  dup2\n    /* \"#utility.yul\":4979:4992   */\n  mload\n    /* \"#utility.yul\":5010:5115   */\n  tag_129\n    /* \"#utility.yul\":5111:5114   */\n  dup5\n    /* \"#utility.yul\":5103:5109   */\n  dup3\n    /* \"#utility.yul\":5096:5100   */\n  0x20\n    /* \"#utility.yul\":5088:5094   */\n  dup7\n    /* \"#utility.yul\":5084:5101   */\n  add\n    /* \"#utility.yul\":5010:5115   */\n  tag_63\n  jump\t// in\ntag_129:\n    /* \"#utility.yul\":5001:5115   */\n  swap2\n  pop\n    /* \"#utility.yul\":4824:5121   */\n  pop\n    /* \"#utility.yul\":4736:5121   */\n  swap3\n  swap2\n  pop\n  pop\n  jump\t// out\n    /* \"#utility.yul\":5127:6713   */\ntag_3:\n    /* \"#utility.yul\":5308:5314   */\n  0x00\n    /* \"#utility.yul\":5316:5322   */\n  dup1\n    /* \"#utility.yul\":5324:5330   */\n  0x00\n    /* \"#utility.yul\":5332:5338   */\n  dup1\n    /* \"#utility.yul\":5340:5346   */\n  0x00\n    /* \"#utility.yul\":5389:5392   */\n  0xa0\n    /* \"#utility.yul\":5377:5386   */\n  dup7\n    /* \"#utility.yul\":5368:5375   */\n  dup9\n    /* \"#utility.yul\":5364:5387   */\n  sub\n    /* \"#utility.yul\":5360:5393   */\n  slt\n    /* \"#utility.yul\":5357:5477   */\n  iszero\n  tag_131\n  jumpi\n    /* \"#utility.yul\":5396:5475   */\n  tag_132\n  tag_44\n  jump\t// in\ntag_132:\n    /* \"#utility.yul\":5357:5477   */\ntag_131:\n    /* \"#utility.yul\":5537:5538   */\n  0x00\n    /* \"#utility.yul\":5526:5535   */\n  dup7\n    /* \"#utility.yul\":5522:5539   */\n  add\n    /* \"#utility.yul\":5516:5540   */\n  mload\n    /* \"#utility.yul\":5567:5585   */\n  0xffffffffffffffff\n    /* \"#utility.yul\":5559:5565   */\n  dup2\n    /* \"#utility.yul\":5556:5586   */\n  gt\n    /* \"#utility.yul\":5553:5670   */\n  iszero\n  tag_133\n  jumpi\n    /* \"#utility.yul\":5589:5668   */\n  tag_134\n  tag_45\n  jump\t// in\ntag_134:\n    /* \"#utility.yul\":5553:5670   */\ntag_133:\n    /* \"#utility.yul\":5694:5783   */\n  tag_135\n    /* \"#utility.yul\":5775:5782   */\n  dup9\n    /* \"#utility.yul\":5766:5772   */\n  dup3\n    /* \"#utility.yul\":5755:5764   */\n  dup10\n    /* \"#utility.yul\":5751:5773   */\n  add\n    /* \"#utility.yul\":5694:5783   */\n  tag_58\n  jump\t// in\ntag_135:\n    /* \"#utility.yul\":5684:5783   */\n  swap6\n  pop\n    /* \"#utility.yul\":5487:5793   */\n  pop\n    /* \"#utility.yul\":5853:5855   */\n  0x20\n    /* \"#utility.yul\":5842:5851   */\n  dup7\n    /* \"#utility.yul\":5838:5856   */\n  add\n    /* \"#utility.yul\":5832:5857   */\n  mload\n    /* \"#utility.yul\":5884:5902   */\n  0xffffffffffffffff\n    /* \"#utility.yul\":5876:5882   */\n  dup2\n    /* \"#utility.yul\":5873:5903   */\n  gt\n    /* \"#utility.yul\":5870:5987   */\n  iszero\n  tag_136\n  jumpi\n    /* \"#utility.yul\":5906:5985   */\n  tag_137\n  tag_45\n  jump\t// in\ntag_137:\n    /* \"#utility.yul\":5870:5987   */\ntag_136:\n    /* \"#utility.yul\":6011:6100   */\n  tag_138\n    /* \"#utility.yul\":6092:6099   */\n  dup9\n    /* \"#utility.yul\":6083:6089   */\n  dup3\n    /* \"#utility.yul\":6072:6081   */\n  dup10\n    /* \"#utility.yul\":6068:6090   */\n  add\n    /* \"#utility.yul\":6011:6100   */\n  tag_58\n  jump\t// in\ntag_138:\n    /* \"#utility.yul\":6001:6100   */\n  swap5\n  pop\n    /* \"#utility.yul\":5803:6110   */\n  pop\n    /* \"#utility.yul\":6149:6151   */\n  0x40\n    /* \"#utility.yul\":6175:6239   */\n  tag_139\n    /* \"#utility.yul\":6231:6238   */\n  dup9\n    /* \"#utility.yul\":6222:6228   */\n  dup3\n    /* \"#utility.yul\":6211:6220   */\n  dup10\n    /* \"#utility.yul\":6207:6229   */\n  add\n    /* \"#utility.yul\":6175:6239   */\n  tag_61\n  jump\t// in\ntag_139:\n    /* \"#utility.yul\":6165:6239   */\n  swap4\n  pop\n    /* \"#utility.yul\":6120:6249   */\n  pop\n    /* \"#utility.yul\":6309:6311   */\n  0x60\n    /* \"#utility.yul\":6298:6307   */\n  dup7\n    /* \"#utility.yul\":6294:6312   */\n  add\n    /* \"#utility.yul\":6288:6313   */\n  mload\n    /* \"#utility.yul\":6340:6358   */\n  0xffffffffffffffff\n    /* \"#utility.yul\":6332:6338   */\n  dup2\n    /* \"#utility.yul\":6329:6359   */\n  gt\n    /* \"#utility.yul\":6326:6443   */\n  iszero\n  tag_140\n  jumpi\n    /* \"#utility.yul\":6362:6441   */\n  tag_141\n  tag_45\n  jump\t// in\ntag_141:\n    /* \"#utility.yul\":6326:6443   */\ntag_140:\n    /* \"#utility.yul\":6467:6556   */\n  tag_142\n    /* \"#utility.yul\":6548:6555   */\n  dup9\n    /* \"#utility.yul\":6539:6545   */\n  dup3\n    /* \"#utility.yul\":6528:6537   */\n  dup10\n    /* \"#utility.yul\":6524:6546   */\n  add\n    /* \"#utility.yul\":6467:6556   */\n  tag_64\n  jump\t// in\ntag_142:\n    /* \"#utility.yul\":6457:6556   */\n  swap3\n  pop\n    /* \"#utility.yul\":6259:6566   */\n  pop\n    /* \"#utility.yul\":6605:6608   */\n  0x80\n    /* \"#utility.yul\":6632:6696   */\n  tag_143\n    /* \"#utility.yul\":6688:6695   */\n  dup9\n    /* \"#utility.yul\":6679:6685   */\n  dup3\n    /* \"#utility.yul\":6668:6677   */\n  dup10\n    /* \"#utility.yul\":6664:6686   */\n  add\n    /* \"#utility.yul\":6632:6696   */\n  tag_61\n  jump\t// in\ntag_143:\n    /* \"#utility.yul\":6622:6696   */\n  swap2\n  pop\n    /* \"#utility.yul\":6576:6706   */\n  pop\n    /* \"#utility.yul\":5127:6713   */\n  swap3\n  swap6\n  pop\n  swap3\n  swap6\n  swap1\n  swap4\n  pop\n  jump\t// out\n    /* \"#utility.yul\":6719:6888   */\ntag_65:\n    /* \"#utility.yul\":6803:6814   */\n  0x00\n    /* \"#utility.yul\":6837:6843   */\n  dup3\n    /* \"#utility.yul\":6832:6835   */\n  dup3\n    /* \"#utility.yul\":6825:6844   */\n  mstore\n    /* \"#utility.yul\":6877:6881   */\n  0x20\n    /* \"#utility.yul\":6872:6875   */\n  dup3\n    /* \"#utility.yul\":6868:6882   */\n  add\n    /* \"#utility.yul\":6853:6882   */\n  swap1\n  pop\n    /* \"#utility.yul\":6719:6888   */\n  swap3\n  swap2\n  pop\n  pop\n  jump\t// out\n    /* \"#utility.yul\":6894:7063   */\ntag_66:\n    /* \"#utility.yul\":7034:7055   */\n  0x496e76616c6964206c6f636b20706572696f6400000000000000000000000000\n    /* \"#utility.yul\":7030:7031   */\n  0x00\n    /* \"#utility.yul\":7022:7028   */\n  dup3\n    /* \"#utility.yul\":7018:7032   */\n  add\n    /* \"#utility.yul\":7011:7056   */\n  mstore\n    /* \"#utility.yul\":6894:7063   */\n  pop\n  jump\t// out\n    /* \"#utility.yul\":7069:7435   */\ntag_67:\n    /* \"#utility.yul\":7211:7214   */\n  0x00\n    /* \"#utility.yul\":7232:7299   */\n  tag_147\n    /* \"#utility.yul\":7296:7298   */\n  0x13\n    /* \"#utility.yul\":7291:7294   */\n  dup4\n    /* \"#utility.yul\":7232:7299   */\n  tag_65\n  jump\t// in\ntag_147:\n    /* \"#utility.yul\":7225:7299   */\n  swap2\n  pop\n    /* \"#utility.yul\":7308:7401   */\n  tag_148\n    /* \"#utility.yul\":7397:7400   */\n  dup3\n    /* \"#utility.yul\":7308:7401   */\n  tag_66\n  jump\t// in\ntag_148:\n    /* \"#utility.yul\":7426:7428   */\n  0x20\n    /* \"#utility.yul\":7421:7424   */\n  dup3\n    /* \"#utility.yul\":7417:7429   */\n  add\n    /* \"#utility.yul\":7410:7429   */\n  swap1\n  pop\n    /* \"#utility.yul\":7069:7435   */\n  swap2\n  swap1\n  pop\n  jump\t// out\n    /* \"#utility.yul\":7441:7860   */\ntag_16:\n    /* \"#utility.yul\":7607:7611   */\n  0x00\n    /* \"#utility.yul\":7645:7647   */\n  0x20\n    /* \"#utility.yul\":7634:7643   */\n  dup3\n    /* \"#utility.yul\":7630:7648   */\n  add\n    /* \"#utility.yul\":7622:7648   */\n  swap1\n  pop\n    /* \"#utility.yul\":7694:7703   */\n  dup2\n    /* \"#utility.yul\":7688:7692   */\n  dup2\n    /* \"#utility.yul\":7684:7704   */\n  sub\n    /* \"#utility.yul\":7680:7681   */\n  0x00\n    /* \"#utility.yul\":7669:7678   */\n  dup4\n    /* \"#utility.yul\":7665:7682   */\n  add\n    /* \"#utility.yul\":7658:7705   */\n  mstore\n    /* \"#utility.yul\":7722:7853   */\n  tag_150\n    /* \"#utility.yul\":7848:7852   */\n  dup2\n    /* \"#utility.yul\":7722:7853   */\n  tag_67\n  jump\t// in\ntag_150:\n    /* \"#utility.yul\":7714:7853   */\n  swap1\n  pop\n    /* \"#utility.yul\":7441:7860   */\n  swap2\n  swap1\n  pop\n  jump\t// out\n    /* \"#utility.yul\":7866:8046   */\ntag_22:\n    /* \"#utility.yul\":7914:7991   */\n  0x4e487b7100000000000000000000000000000000000000000000000000000000\n    /* \"#utility.yul\":7911:7912   */\n  0x00\n    /* \"#utility.yul\":7904:7992   */\n  mstore\n    /* \"#utility.yul\":8011:8015   */\n  0x32\n    /* \"#utility.yul\":8008:8009   */\n  0x04\n    /* \"#utility.yul\":8001:8016   */\n  mstore\n    /* \"#utility.yul\":8035:8039   */\n  0x24\n    /* \"#utility.yul\":8032:8033   */\n  0x00\n    /* \"#utility.yul\":8025:8040   */\n  revert\n    /* \"#utility.yul\":8052:8232   */\ntag_68:\n    /* \"#utility.yul\":8100:8177   */\n  0x4e487b7100000000000000000000000000000000000000000000000000000000\n    /* \"#utility.yul\":8097:8098   */\n  0x00\n    /* \"#utility.yul\":8090:8178   */\n  mstore\n    /* \"#utility.yul\":8197:8201   */\n  0x11\n    /* \"#utility.yul\":8194:8195   */\n  0x04\n    /* \"#utility.yul\":8187:8202   */\n  mstore\n    /* \"#utility.yul\":8221:8225   */\n  0x24\n    /* \"#utility.yul\":8218:8219   */\n  0x00\n    /* \"#utility.yul\":8211:8226   */\n  revert\n    /* \"#utility.yul\":8238:8471   */\ntag_25:\n    /* \"#utility.yul\":8277:8280   */\n  0x00\n    /* \"#utility.yul\":8300:8324   */\n  tag_154\n    /* \"#utility.yul\":8318:8323   */\n  dup3\n    /* \"#utility.yul\":8300:8324   */\n  tag_59\n  jump\t// in\ntag_154:\n    /* \"#utility.yul\":8291:8324   */\n  swap2\n  pop\n    /* \"#utility.yul\":8346:8412   */\n  0xffffffffffffffffffffffffffffffffffffffffffffffffffffffffffffffff\n    /* \"#utility.yul\":8339:8344   */\n  dup3\n    /* \"#utility.yul\":8336:8413   */\n  sub\n    /* \"#utility.yul\":8333:8436   */\n  tag_155\n  jumpi\n    /* \"#utility.yul\":8416:8434   */\n  tag_156\n  tag_68\n  jump\t// in\ntag_156:\n    /* \"#utility.yul\":8333:8436   */\ntag_155:\n    /* \"#utility.yul\":8463:8464   */\n  0x01\n    /* \"#utility.yul\":8456:8461   */\n  dup3\n    /* \"#utility.yul\":8452:8465   */\n  add\n    /* \"#utility.yul\":8445:8465   */\n  swap1\n  pop\n    /* \"#utility.yul\":8238:8471   */\n  swap2\n  swap1\n  pop\n  jump\t// out\n    /* \"contracts/Staking.sol\":412:6533  contract NFTStaking1 is Ownable, ReentrancyGuard {... */\ntag_40:\n  dataSize(sub_0)\n  dup1\n  dataOffset(sub_0)\n  0x00\n  codecopy\n  0x00\n  return\nstop\n\nsub_0: assembly {\n        /* \"contracts/Staking.sol\":412:6533  contract NFTStaking1 is Ownable, ReentrancyGuard {... */\n      mstore(0x40, 0x80)\n      callvalue\n      dup1\n      iszero\n      tag_1\n      jumpi\n      0x00\n      dup1\n      revert\n    tag_1:\n      pop\n      jumpi(tag_2, lt(calldatasize, 0x04))\n      shr(0xe0, calldataload(0x00))\n      dup1\n      0x715018a6\n      gt\n      tag_16\n      jumpi\n      dup1\n      0x8da5cb5b\n      gt\n      tag_17\n      jumpi\n      dup1\n      0x8da5cb5b\n      eq\n      tag_12\n      jumpi\n      dup1\n      0xc69d1923\n      eq\n      tag_13\n      jumpi\n      dup1\n      0xf2fde38b\n      eq\n      tag_14\n      jumpi\n      dup1\n      0xff5d8450\n      eq\n      tag_15\n      jumpi\n      jump(tag_2)\n    tag_17:\n      dup1\n      0x715018a6\n      eq\n      tag_9\n      jumpi\n      dup1\n      0x779972da\n      eq\n      tag_10\n      jumpi\n      dup1\n      0x849a1e1d\n      eq\n      tag_11\n      jumpi\n      jump(tag_2)\n    tag_16:\n      dup1\n      0x20281a98\n      eq\n      tag_3\n      jumpi\n      dup1\n      0x30d10275\n      eq\n      tag_4\n      jumpi\n      dup1\n      0x3fd8b02f\n      eq\n      tag_5\n      jumpi\n      dup1\n      0x422dc713\n      eq\n      tag_6\n      jumpi\n      dup1\n      0x5eac6239\n      eq\n      tag_7\n      jumpi\n      dup1\n      0x6eb604e0\n      eq\n      tag_8\n      jumpi\n    tag_2:\n      0x00\n      dup1\n      revert\n        /* \"contracts/Staking.sol\":3126:3259  function claimedRewards(uint256 _tokenId) external view returns (uint256) {... */\n    tag_3:\n      tag_18\n      0x04\n      dup1\n      calldatasize\n      sub\n      dup2\n      add\n      swap1\n      tag_19\n      swap2\n      swap1\n      tag_20\n      jump\t// in\n    tag_19:\n      tag_21\n      jump\t// in\n    tag_18:\n      mload(0x40)\n      tag_22\n      swap2\n      swap1\n      tag_23\n      jump\t// in\n    tag_22:\n      mload(0x40)\n      dup1\n      swap2\n      sub\n      swap1\n      return\n        /* \"contracts/Staking.sol\":540:576  IRewardsToken [] public rewardsToken */\n    tag_4:\n      tag_24\n      0x04\n      dup1\n      calldatasize\n      sub\n      dup2\n      add\n      swap1\n      tag_25\n      swap2\n      swap1\n      tag_20\n      jump\t// in\n    tag_25:\n      tag_26\n      jump\t// in\n    tag_24:\n      mload(0x40)\n      tag_27\n      swap2\n      swap1\n      tag_28\n      jump\t// in\n    tag_27:\n      mload(0x40)\n      dup1\n      swap2\n      sub\n      swap1\n      return\n        /* \"contracts/Staking.sol\":618:643  uint256 public lockPeriod */\n    tag_5:\n      tag_29\n      tag_30\n      jump\t// in\n    tag_29:\n      mload(0x40)\n      tag_31\n      swap2\n      swap1\n      tag_23\n      jump\t// in\n    tag_31:\n      mload(0x40)\n      dup1\n      swap2\n      sub\n      swap1\n      return\n        /* \"contracts/Staking.sol\":963:995  uint256 [] public rewardsPerWave */\n    tag_6:\n      tag_32\n      0x04\n      dup1\n      calldatasize\n      sub\n      dup2\n      add\n      swap1\n      tag_33\n      swap2\n      swap1\n      tag_20\n      jump\t// in\n    tag_33:\n      tag_34\n      jump\t// in\n    tag_32:\n      mload(0x40)\n      tag_35\n      swap2\n      swap1\n      tag_23\n      jump\t// in\n    tag_35:\n      mload(0x40)\n      dup1\n      swap2\n      sub\n      swap1\n      return\n        /* \"contracts/Staking.sol\":5104:6014  function claimRewards(uint256[] calldata _tokenIds) external notContract {... */\n    tag_7:\n      tag_36\n      0x04\n      dup1\n      calldatasize\n      sub\n      dup2\n      add\n      swap1\n      tag_37\n      swap2\n      swap1\n      tag_38\n      jump\t// in\n    tag_37:\n      tag_39\n      jump\t// in\n    tag_36:\n      stop\n        /* \"contracts/Staking.sol\":583:609  IERC721 [] public stakeNFT */\n    tag_8:\n      tag_40\n      0x04\n      dup1\n      calldatasize\n      sub\n      dup2\n      add\n      swap1\n      tag_41\n      swap2\n      swap1\n      tag_20\n      jump\t// in\n    tag_41:\n      tag_42\n      jump\t// in\n    tag_40:\n      mload(0x40)\n      tag_43\n      swap2\n      swap1\n      tag_44\n      jump\t// in\n    tag_43:\n      mload(0x40)\n      dup1\n      swap2\n      sub\n      swap1\n      return\n        /* \"@openzeppelin/contracts/access/Ownable.sol\":1831:1932  function renounceOwnership() public virtual onlyOwner {... */\n    tag_9:\n      tag_45\n      tag_46\n      jump\t// in\n    tag_45:\n      stop\n        /* \"contracts/Staking.sol\":2745:2958  function setLockPeriod(uint256 _lockPeriod) external onlyOwner {... */\n    tag_10:\n      tag_47\n      0x04\n      dup1\n      calldatasize\n      sub\n      dup2\n      add\n      swap1\n      tag_48\n      swap2\n      swap1\n      tag_20\n      jump\t// in\n    tag_48:\n      tag_49\n      jump\t// in\n    tag_47:\n      stop\n        /* \"contracts/Staking.sol\":4043:5006  function unlockNFT(uint256[] calldata _tokenIds) external notContract nonReentrant {... */\n    tag_11:\n      tag_50\n      0x04\n      dup1\n      calldatasize\n      sub\n      dup2\n      add\n      swap1\n      tag_51\n      swap2\n      swap1\n      tag_38\n      jump\t// in\n    tag_51:\n      tag_52\n      jump\t// in\n    tag_50:\n      stop\n        /* \"@openzeppelin/contracts/access/Ownable.sol\":1201:1286  function owner() public view virtual returns (address) {... */\n    tag_12:\n      tag_53\n      tag_54\n      jump\t// in\n    tag_53:\n      mload(0x40)\n      tag_55\n      swap2\n      swap1\n      tag_56\n      jump\t// in\n    tag_55:\n      mload(0x40)\n      dup1\n      swap2\n      sub\n      swap1\n      return\n        /* \"contracts/Staking.sol\":937:956  uint256 public WAVE */\n    tag_13:\n      tag_57\n      tag_58\n      jump\t// in\n    tag_57:\n      mload(0x40)\n      tag_59\n      swap2\n      swap1\n      tag_23\n      jump\t// in\n    tag_59:\n      mload(0x40)\n      dup1\n      swap2\n      sub\n      swap1\n      return\n        /* \"@openzeppelin/contracts/access/Ownable.sol\":2081:2279  function transferOwnership(address newOwner) public virtual onlyOwner {... */\n    tag_14:\n      tag_60\n      0x04\n      dup1\n      calldatasize\n      sub\n      dup2\n      add\n      swap1\n      tag_61\n      swap2\n      swap1\n      tag_62\n      jump\t// in\n    tag_61:\n      tag_63\n      jump\t// in\n    tag_60:\n      stop\n        /* \"contracts/Staking.sol\":3400:3930  function lockNFT(uint256[] calldata _tokenIds) external notContract nonReentrant {... */\n    tag_15:\n      tag_64\n      0x04\n      dup1\n      calldatasize\n      sub\n      dup2\n      add\n      swap1\n      tag_65\n      swap2\n      swap1\n      tag_38\n      jump\t// in\n    tag_65:\n      tag_66\n      jump\t// in\n    tag_64:\n      stop\n        /* \"contracts/Staking.sol\":3126:3259  function claimedRewards(uint256 _tokenId) external view returns (uint256) {... */\n    tag_21:\n        /* \"contracts/Staking.sol\":3191:3198  uint256 */\n      0x00\n        /* \"contracts/Staking.sol\":3218:3226  lockInfo */\n      0x05\n        /* \"contracts/Staking.sol\":3218:3236  lockInfo[_tokenId] */\n      0x00\n        /* \"contracts/Staking.sol\":3227:3235  _tokenId */\n      dup4\n        /* \"contracts/Staking.sol\":3218:3236  lockInfo[_tokenId] */\n      dup2\n      mstore\n      0x20\n      add\n      swap1\n      dup2\n      mstore\n      0x20\n      add\n      0x00\n      keccak256\n        /* \"contracts/Staking.sol\":3218:3251  lockInfo[_tokenId].claimedRewards */\n      0x02\n      add\n      sload\n        /* \"contracts/Staking.sol\":3211:3251  return lockInfo[_tokenId].claimedRewards */\n      swap1\n      pop\n        /* \"contracts/Staking.sol\":3126:3259  function claimedRewards(uint256 _tokenId) external view returns (uint256) {... */\n      swap2\n      swap1\n      pop\n      jump\t// out\n        /* \"contracts/Staking.sol\":540:576  IRewardsToken [] public rewardsToken */\n    tag_26:\n      0x02\n      dup2\n      dup2\n      sload\n      dup2\n      lt\n      tag_68\n      jumpi\n      0x00\n      dup1\n      revert\n    tag_68:\n      swap1\n      0x00\n      mstore\n      keccak256(0x00, 0x20)\n      add\n      0x00\n      swap2\n      pop\n      sload\n      swap1\n      0x0100\n      exp\n      swap1\n      div\n      0xffffffffffffffffffffffffffffffffffffffff\n      and\n      dup2\n      jump\t// out\n        /* \"contracts/Staking.sol\":618:643  uint256 public lockPeriod */\n    tag_30:\n      sload(0x04)\n      dup2\n      jump\t// out\n        /* \"contracts/Staking.sol\":963:995  uint256 [] public rewardsPerWave */\n    tag_34:\n      0x07\n      dup2\n      dup2\n      sload\n      dup2\n      lt\n      tag_70\n      jumpi\n      0x00\n      dup1\n      revert\n    tag_70:\n      swap1\n      0x00\n      mstore\n      keccak256(0x00, 0x20)\n      add\n      0x00\n      swap2\n      pop\n      swap1\n      pop\n      sload\n      dup2\n      jump\t// out\n        /* \"contracts/Staking.sol\":5104:6014  function claimRewards(uint256[] calldata _tokenIds) external notContract {... */\n    tag_39:\n        /* \"contracts/Staking.sol\":2471:2503  address(msg.sender).isContract() */\n      tag_73\n        /* \"contracts/Staking.sol\":2479:2489  msg.sender */\n      caller\n        /* \"contracts/Staking.sol\":2471:2501  address(msg.sender).isContract */\n      0xffffffffffffffffffffffffffffffffffffffff\n      and\n      tag_74\n        /* \"contracts/Staking.sol\":2471:2503  address(msg.sender).isContract() */\n      jump\t// in\n    tag_73:\n        /* \"contracts/Staking.sol\":2470:2503  !address(msg.sender).isContract() */\n      iszero\n        /* \"contracts/Staking.sol\":2462:2528  require(!address(msg.sender).isContract(), \"Contract not allowed\") */\n      tag_75\n      jumpi\n      mload(0x40)\n      0x08c379a000000000000000000000000000000000000000000000000000000000\n      dup2\n      mstore\n      0x04\n      add\n      tag_76\n      swap1\n      tag_77\n      jump\t// in\n    tag_76:\n      mload(0x40)\n      dup1\n      swap2\n      sub\n      swap1\n      revert\n    tag_75:\n        /* \"contracts/Staking.sol\":2561:2570  tx.origin */\n      origin\n        /* \"contracts/Staking.sol\":2547:2570  msg.sender == tx.origin */\n      0xffffffffffffffffffffffffffffffffffffffff\n      and\n        /* \"contracts/Staking.sol\":2547:2557  msg.sender */\n      caller\n        /* \"contracts/Staking.sol\":2547:2570  msg.sender == tx.origin */\n      0xffffffffffffffffffffffffffffffffffffffff\n      and\n      eq\n        /* \"contracts/Staking.sol\":2539:2601  require(msg.sender == tx.origin, \"Proxy contract not allowed\") */\n      tag_78\n      jumpi\n      mload(0x40)\n      0x08c379a000000000000000000000000000000000000000000000000000000000\n      dup2\n      mstore\n      0x04\n      add\n      tag_79\n      swap1\n      tag_80\n      jump\t// in\n    tag_79:\n      mload(0x40)\n      dup1\n      swap2\n      sub\n      swap1\n      revert\n    tag_78:\n        /* \"contracts/Staking.sol\":5215:5216  0 */\n      0x00\n        /* \"contracts/Staking.sol\":5196:5205  _tokenIds */\n      dup3\n      dup3\n        /* \"contracts/Staking.sol\":5196:5212  _tokenIds.length */\n      swap1\n      pop\n        /* \"contracts/Staking.sol\":5196:5216  _tokenIds.length > 0 */\n      gt\n        /* \"contracts/Staking.sol\":5188:5230  require(_tokenIds.length > 0, \"No tokens\") */\n      tag_82\n      jumpi\n      mload(0x40)\n      0x08c379a000000000000000000000000000000000000000000000000000000000\n      dup2\n      mstore\n      0x04\n      add\n      tag_83\n      swap1\n      tag_84\n      jump\t// in\n    tag_83:\n      mload(0x40)\n      dup1\n      swap2\n      sub\n      swap1\n      revert\n    tag_82:\n        /* \"contracts/Staking.sol\":5243:5263  uint256 totalRewards */\n      0x00\n        /* \"contracts/Staking.sol\":5279:5288  uint256 i */\n      dup1\n        /* \"contracts/Staking.sol\":5291:5292  0 */\n      0x00\n        /* \"contracts/Staking.sol\":5279:5292  uint256 i = 0 */\n      swap1\n      pop\n        /* \"contracts/Staking.sol\":5274:5938  for (uint256 i = 0; i < _tokenIds.length; i++) {... */\n    tag_85:\n        /* \"contracts/Staking.sol\":5298:5307  _tokenIds */\n      dup4\n      dup4\n        /* \"contracts/Staking.sol\":5298:5314  _tokenIds.length */\n      swap1\n      pop\n        /* \"contracts/Staking.sol\":5294:5295  i */\n      dup2\n        /* \"contracts/Staking.sol\":5294:5314  i < _tokenIds.length */\n      lt\n        /* \"contracts/Staking.sol\":5274:5938  for (uint256 i = 0; i < _tokenIds.length; i++) {... */\n      iszero\n      tag_86\n      jumpi\n        /* \"contracts/Staking.sol\":5336:5356  LockInfo memory info */\n      0x00\n        /* \"contracts/Staking.sol\":5359:5367  lockInfo */\n      0x05\n        /* \"contracts/Staking.sol\":5359:5381  lockInfo[_tokenIds[i]] */\n      0x00\n        /* \"contracts/Staking.sol\":5368:5377  _tokenIds */\n      dup7\n      dup7\n        /* \"contracts/Staking.sol\":5378:5379  i */\n      dup6\n        /* \"contracts/Staking.sol\":5368:5380  _tokenIds[i] */\n      dup2\n      dup2\n      lt\n      tag_88\n      jumpi\n      tag_89\n      tag_90\n      jump\t// in\n    tag_89:\n    tag_88:\n      swap1\n      pop\n      0x20\n      mul\n      add\n      calldataload\n        /* \"contracts/Staking.sol\":5359:5381  lockInfo[_tokenIds[i]] */\n      dup2\n      mstore\n      0x20\n      add\n      swap1\n      dup2\n      mstore\n      0x20\n      add\n      0x00\n      keccak256\n        /* \"contracts/Staking.sol\":5336:5381  LockInfo memory info = lockInfo[_tokenIds[i]] */\n      mload(0x40)\n      dup1\n      0x80\n      add\n      0x40\n      mstore\n      swap1\n      dup2\n      0x00\n      dup3\n      add\n      0x00\n      swap1\n      sload\n      swap1\n      0x0100\n      exp\n      swap1\n      div\n      0xffffffffffffffffffffffffffffffffffffffff\n      and\n      0xffffffffffffffffffffffffffffffffffffffff\n      and\n      0xffffffffffffffffffffffffffffffffffffffff\n      and\n      dup2\n      mstore\n      0x20\n      add\n      0x01\n      dup3\n      add\n      sload\n      dup2\n      mstore\n      0x20\n      add\n      0x02\n      dup3\n      add\n      sload\n      dup2\n      mstore\n      0x20\n      add\n      0x03\n      dup3\n      add\n      0x00\n      swap1\n      sload\n      swap1\n      0x0100\n      exp\n      swap1\n      div\n      0xff\n      and\n      iszero\n      iszero\n      iszero\n      iszero\n      dup2\n      mstore\n      pop\n      pop\n      swap1\n      pop\n        /* \"contracts/Staking.sol\":5418:5428  msg.sender */\n      caller\n        /* \"contracts/Staking.sol\":5404:5428  info.owner == msg.sender */\n      0xffffffffffffffffffffffffffffffffffffffff\n      and\n        /* \"contracts/Staking.sol\":5404:5408  info */\n      dup2\n        /* \"contracts/Staking.sol\":5404:5414  info.owner */\n      0x00\n      add\n      mload\n        /* \"contracts/Staking.sol\":5404:5428  info.owner == msg.sender */\n      0xffffffffffffffffffffffffffffffffffffffff\n      and\n      eq\n        /* \"contracts/Staking.sol\":5396:5450  require(info.owner == msg.sender, \"Not a token owner\") */\n      tag_91\n      jumpi\n      mload(0x40)\n      0x08c379a000000000000000000000000000000000000000000000000000000000\n      dup2\n      mstore\n      0x04\n      add\n      tag_92\n      swap1\n      tag_93\n      jump\t// in\n    tag_92:\n      mload(0x40)\n      dup1\n      swap2\n      sub\n      swap1\n      revert\n    tag_91:\n        /* \"contracts/Staking.sol\":5504:5519  block.timestamp */\n      timestamp\n        /* \"contracts/Staking.sol\":5491:5501  lockPeriod */\n      sload(0x04)\n        /* \"contracts/Staking.sol\":5473:5477  info */\n      dup3\n        /* \"contracts/Staking.sol\":5473:5488  info.lockedTime */\n      0x20\n      add\n      mload\n        /* \"contracts/Staking.sol\":5473:5501  info.lockedTime + lockPeriod */\n      tag_94\n      swap2\n      swap1\n      tag_95\n      jump\t// in\n    tag_94:\n        /* \"contracts/Staking.sol\":5473:5519  info.lockedTime + lockPeriod < block.timestamp */\n      lt\n        /* \"contracts/Staking.sol\":5465:5545  require(info.lockedTime + lockPeriod < block.timestamp, \"Not able to claim yet\") */\n      tag_96\n      jumpi\n      mload(0x40)\n      0x08c379a000000000000000000000000000000000000000000000000000000000\n      dup2\n      mstore\n      0x04\n      add\n      tag_97\n      swap1\n      tag_98\n      jump\t// in\n    tag_97:\n      mload(0x40)\n      dup1\n      swap2\n      sub\n      swap1\n      revert\n    tag_96:\n        /* \"contracts/Staking.sol\":5569:5573  info */\n      dup1\n        /* \"contracts/Staking.sol\":5569:5584  info.isUnlocked */\n      0x60\n      add\n      mload\n        /* \"contracts/Staking.sol\":5568:5584  !info.isUnlocked */\n      iszero\n        /* \"contracts/Staking.sol\":5560:5605  require(!info.isUnlocked, \"Already unlocked\") */\n      tag_99\n      jumpi\n      mload(0x40)\n      0x08c379a000000000000000000000000000000000000000000000000000000000\n      dup2\n      mstore\n      0x04\n      add\n      tag_100\n      swap1\n      tag_101\n      jump\t// in\n    tag_100:\n      mload(0x40)\n      dup1\n      swap2\n      sub\n      swap1\n      revert\n    tag_99:\n        /* \"contracts/Staking.sol\":5622:5641  uint256 totalAmount */\n      0x00\n        /* \"contracts/Staking.sol\":5644:5671  _rewardAmount(_tokenIds[i]) */\n      tag_102\n        /* \"contracts/Staking.sol\":5658:5667  _tokenIds */\n      dup7\n      dup7\n        /* \"contracts/Staking.sol\":5668:5669  i */\n      dup6\n        /* \"contracts/Staking.sol\":5658:5670  _tokenIds[i] */\n      dup2\n      dup2\n      lt\n      tag_103\n      jumpi\n      tag_104\n      tag_90\n      jump\t// in\n    tag_104:\n    tag_103:\n      swap1\n      pop\n      0x20\n      mul\n      add\n      calldataload\n        /* \"contracts/Staking.sol\":5644:5657  _rewardAmount */\n      tag_105\n        /* \"contracts/Staking.sol\":5644:5671  _rewardAmount(_tokenIds[i]) */\n      jump\t// in\n    tag_102:\n        /* \"contracts/Staking.sol\":5622:5671  uint256 totalAmount = _rewardAmount(_tokenIds[i]) */\n      swap1\n      pop\n        /* \"contracts/Staking.sol\":5686:5710  uint256 unclaminedAmount */\n      0x00\n        /* \"contracts/Staking.sol\":5727:5731  info */\n      dup3\n        /* \"contracts/Staking.sol\":5727:5746  info.claimedRewards */\n      0x40\n      add\n      mload\n        /* \"contracts/Staking.sol\":5713:5724  totalAmount */\n      dup3\n        /* \"contracts/Staking.sol\":5713:5746  totalAmount - info.claimedRewards */\n      tag_106\n      swap2\n      swap1\n      tag_107\n      jump\t// in\n    tag_106:\n        /* \"contracts/Staking.sol\":5686:5746  uint256 unclaminedAmount = totalAmount - info.claimedRewards */\n      swap1\n      pop\n        /* \"contracts/Staking.sol\":5842:5858  unclaminedAmount */\n      dup1\n        /* \"contracts/Staking.sol\":5826:5858  totalRewards += unclaminedAmount */\n      dup6\n      tag_108\n      swap2\n      swap1\n      tag_95\n      jump\t// in\n    tag_108:\n      swap5\n      pop\n        /* \"contracts/Staking.sol\":5915:5926  totalAmount */\n      dup2\n        /* \"contracts/Staking.sol\":5875:5883  lockInfo */\n      0x05\n        /* \"contracts/Staking.sol\":5875:5897  lockInfo[_tokenIds[i]] */\n      0x00\n        /* \"contracts/Staking.sol\":5884:5893  _tokenIds */\n      dup10\n      dup10\n        /* \"contracts/Staking.sol\":5894:5895  i */\n      dup9\n        /* \"contracts/Staking.sol\":5884:5896  _tokenIds[i] */\n      dup2\n      dup2\n      lt\n      tag_109\n      jumpi\n      tag_110\n      tag_90\n      jump\t// in\n    tag_110:\n    tag_109:\n      swap1\n      pop\n      0x20\n      mul\n      add\n      calldataload\n        /* \"contracts/Staking.sol\":5875:5897  lockInfo[_tokenIds[i]] */\n      dup2\n      mstore\n      0x20\n      add\n      swap1\n      dup2\n      mstore\n      0x20\n      add\n      0x00\n      keccak256\n        /* \"contracts/Staking.sol\":5875:5912  lockInfo[_tokenIds[i]].claimedRewards */\n      0x02\n      add\n        /* \"contracts/Staking.sol\":5875:5926  lockInfo[_tokenIds[i]].claimedRewards = totalAmount */\n      dup2\n      swap1\n      sstore\n      pop\n        /* \"contracts/Staking.sol\":5321:5938  {... */\n      pop\n      pop\n      pop\n        /* \"contracts/Staking.sol\":5316:5319  i++ */\n      dup1\n      dup1\n      tag_111\n      swap1\n      tag_112\n      jump\t// in\n    tag_111:\n      swap2\n      pop\n      pop\n        /* \"contracts/Staking.sol\":5274:5938  for (uint256 i = 0; i < _tokenIds.length; i++) {... */\n      jump(tag_85)\n    tag_86:\n      pop\n        /* \"contracts/Staking.sol\":5970:5980  msg.sender */\n      caller\n        /* \"contracts/Staking.sol\":5955:6006  RewardsClaimed(msg.sender, _tokenIds, totalRewards) */\n      0xffffffffffffffffffffffffffffffffffffffff\n      and\n      0x37826be3c26dbad83731f4b985f22fa9ef86b6d1974cd77208332b7f1f283c0c\n        /* \"contracts/Staking.sol\":5982:5991  _tokenIds */\n      dup5\n      dup5\n        /* \"contracts/Staking.sol\":5993:6005  totalRewards */\n      dup5\n        /* \"contracts/Staking.sol\":5955:6006  RewardsClaimed(msg.sender, _tokenIds, totalRewards) */\n      mload(0x40)\n      tag_113\n      swap4\n      swap3\n      swap2\n      swap1\n      tag_114\n      jump\t// in\n    tag_113:\n      mload(0x40)\n      dup1\n      swap2\n      sub\n      swap1\n      log2\n        /* \"contracts/Staking.sol\":5177:6014  {... */\n      pop\n        /* \"contracts/Staking.sol\":5104:6014  function claimRewards(uint256[] calldata _tokenIds) external notContract {... */\n      pop\n      pop\n      jump\t// out\n        /* \"contracts/Staking.sol\":583:609  IERC721 [] public stakeNFT */\n    tag_42:\n      0x03\n      dup2\n      dup2\n      sload\n      dup2\n      lt\n      tag_115\n      jumpi\n      0x00\n      dup1\n      revert\n    tag_115:\n      swap1\n      0x00\n      mstore\n      keccak256(0x00, 0x20)\n      add\n      0x00\n      swap2\n      pop\n      sload\n      swap1\n      0x0100\n      exp\n      swap1\n      div\n      0xffffffffffffffffffffffffffffffffffffffff\n      and\n      dup2\n      jump\t// out\n        /* \"@openzeppelin/contracts/access/Ownable.sol\":1831:1932  function renounceOwnership() public virtual onlyOwner {... */\n    tag_46:\n        /* \"@openzeppelin/contracts/access/Ownable.sol\":1094:1107  _checkOwner() */\n      tag_118\n        /* \"@openzeppelin/contracts/access/Ownable.sol\":1094:1105  _checkOwner */\n      tag_119\n        /* \"@openzeppelin/contracts/access/Ownable.sol\":1094:1107  _checkOwner() */\n      jump\t// in\n    tag_118:\n        /* \"@openzeppelin/contracts/access/Ownable.sol\":1895:1925  _transferOwnership(address(0)) */\n      tag_121\n        /* \"@openzeppelin/contracts/access/Ownable.sol\":1922:1923  0 */\n      0x00\n        /* \"@openzeppelin/contracts/access/Ownable.sol\":1895:1913  _transferOwnership */\n      tag_122\n        /* \"@openzeppelin/contracts/access/Ownable.sol\":1895:1925  _transferOwnership(address(0)) */\n      jump\t// in\n    tag_121:\n        /* \"@openzeppelin/contracts/access/Ownable.sol\":1831:1932  function renounceOwnership() public virtual onlyOwner {... */\n      jump\t// out\n        /* \"contracts/Staking.sol\":2745:2958  function setLockPeriod(uint256 _lockPeriod) external onlyOwner {... */\n    tag_49:\n        /* \"@openzeppelin/contracts/access/Ownable.sol\":1094:1107  _checkOwner() */\n      tag_124\n        /* \"@openzeppelin/contracts/access/Ownable.sol\":1094:1105  _checkOwner */\n      tag_119\n        /* \"@openzeppelin/contracts/access/Ownable.sol\":1094:1107  _checkOwner() */\n      jump\t// in\n    tag_124:\n        /* \"contracts/Staking.sol\":2841:2842  0 */\n      0x00\n        /* \"contracts/Staking.sol\":2827:2838  _lockPeriod */\n      dup2\n        /* \"contracts/Staking.sol\":2827:2842  _lockPeriod > 0 */\n      gt\n        /* \"contracts/Staking.sol\":2819:2867  require(_lockPeriod > 0, \"Invalid lock period.\") */\n      tag_126\n      jumpi\n      mload(0x40)\n      0x08c379a000000000000000000000000000000000000000000000000000000000\n      dup2\n      mstore\n      0x04\n      add\n      tag_127\n      swap1\n      tag_128\n      jump\t// in\n    tag_127:\n      mload(0x40)\n      dup1\n      swap2\n      sub\n      swap1\n      revert\n    tag_126:\n        /* \"contracts/Staking.sol\":2891:2902  _lockPeriod */\n      dup1\n        /* \"contracts/Staking.sol\":2878:2888  lockPeriod */\n      0x04\n        /* \"contracts/Staking.sol\":2878:2902  lockPeriod = _lockPeriod */\n      dup2\n      swap1\n      sstore\n      pop\n        /* \"contracts/Staking.sol\":2920:2950  LockPeriodUpdated(_lockPeriod) */\n      0x8249ec545e68f6f1e1230133ca48c704d831a7f8e635ded80f3dd9e99b09bb2f\n        /* \"contracts/Staking.sol\":2938:2949  _lockPeriod */\n      dup2\n        /* \"contracts/Staking.sol\":2920:2950  LockPeriodUpdated(_lockPeriod) */\n      mload(0x40)\n      tag_129\n      swap2\n      swap1\n      tag_23\n      jump\t// in\n    tag_129:\n      mload(0x40)\n      dup1\n      swap2\n      sub\n      swap1\n      log1\n        /* \"contracts/Staking.sol\":2745:2958  function setLockPeriod(uint256 _lockPeriod) external onlyOwner {... */\n      pop\n      jump\t// out\n        /* \"contracts/Staking.sol\":4043:5006  function unlockNFT(uint256[] calldata _tokenIds) external notContract nonReentrant {... */\n    tag_52:\n        /* \"contracts/Staking.sol\":2471:2503  address(msg.sender).isContract() */\n      tag_131\n        /* \"contracts/Staking.sol\":2479:2489  msg.sender */\n      caller\n        /* \"contracts/Staking.sol\":2471:2501  address(msg.sender).isContract */\n      0xffffffffffffffffffffffffffffffffffffffff\n      and\n      tag_74\n        /* \"contracts/Staking.sol\":2471:2503  address(msg.sender).isContract() */\n      jump\t// in\n    tag_131:\n        /* \"contracts/Staking.sol\":2470:2503  !address(msg.sender).isContract() */\n      iszero\n        /* \"contracts/Staking.sol\":2462:2528  require(!address(msg.sender).isContract(), \"Contract not allowed\") */\n      tag_132\n      jumpi\n      mload(0x40)\n      0x08c379a000000000000000000000000000000000000000000000000000000000\n      dup2\n      mstore\n      0x04\n      add\n      tag_133\n      swap1\n      tag_77\n      jump\t// in\n    tag_133:\n      mload(0x40)\n      dup1\n      swap2\n      sub\n      swap1\n      revert\n    tag_132:\n        /* \"contracts/Staking.sol\":2561:2570  tx.origin */\n      origin\n        /* \"contracts/Staking.sol\":2547:2570  msg.sender == tx.origin */\n      0xffffffffffffffffffffffffffffffffffffffff\n      and\n        /* \"contracts/Staking.sol\":2547:2557  msg.sender */\n      caller\n        /* \"contracts/Staking.sol\":2547:2570  msg.sender == tx.origin */\n      0xffffffffffffffffffffffffffffffffffffffff\n      and\n      eq\n        /* \"contracts/Staking.sol\":2539:2601  require(msg.sender == tx.origin, \"Proxy contract not allowed\") */\n      tag_134\n      jumpi\n      mload(0x40)\n      0x08c379a000000000000000000000000000000000000000000000000000000000\n      dup2\n      mstore\n      0x04\n      add\n      tag_135\n      swap1\n      tag_80\n      jump\t// in\n    tag_135:\n      mload(0x40)\n      dup1\n      swap2\n      sub\n      swap1\n      revert\n    tag_134:\n        /* \"@openzeppelin/contracts/security/ReentrancyGuard.sol\":1744:1745  2 */\n      0x02\n        /* \"@openzeppelin/contracts/security/ReentrancyGuard.sol\":2325:2332  _status */\n      sload(0x01)\n        /* \"@openzeppelin/contracts/security/ReentrancyGuard.sol\":2325:2344  _status != _ENTERED */\n      sub\n        /* \"@openzeppelin/contracts/security/ReentrancyGuard.sol\":2317:2380  require(_status != _ENTERED, \"ReentrancyGuard: reentrant call\") */\n      tag_137\n      jumpi\n      mload(0x40)\n      0x08c379a000000000000000000000000000000000000000000000000000000000\n      dup2\n      mstore\n      0x04\n      add\n      tag_138\n      swap1\n      tag_139\n      jump\t// in\n    tag_138:\n      mload(0x40)\n      dup1\n      swap2\n      sub\n      swap1\n      revert\n    tag_137:\n        /* \"@openzeppelin/contracts/security/ReentrancyGuard.sol\":1744:1745  2 */\n      0x02\n        /* \"@openzeppelin/contracts/security/ReentrancyGuard.sol\":2455:2462  _status */\n      0x01\n        /* \"@openzeppelin/contracts/security/ReentrancyGuard.sol\":2455:2473  _status = _ENTERED */\n      dup2\n      swap1\n      sstore\n      pop\n        /* \"contracts/Staking.sol\":4164:4165  0 */\n      0x00\n        /* \"contracts/Staking.sol\":4145:4154  _tokenIds */\n      dup3\n      dup3\n        /* \"contracts/Staking.sol\":4145:4161  _tokenIds.length */\n      swap1\n      pop\n        /* \"contracts/Staking.sol\":4145:4165  _tokenIds.length > 0 */\n      gt\n        /* \"contracts/Staking.sol\":4137:4179  require(_tokenIds.length > 0, \"No tokens\") */\n      tag_141\n      jumpi\n      mload(0x40)\n      0x08c379a000000000000000000000000000000000000000000000000000000000\n      dup2\n      mstore\n      0x04\n      add\n      tag_142\n      swap1\n      tag_84\n      jump\t// in\n    tag_142:\n      mload(0x40)\n      dup1\n      swap2\n      sub\n      swap1\n      revert\n    tag_141:\n        /* \"contracts/Staking.sol\":4197:4206  uint256 i */\n      0x00\n        /* \"contracts/Staking.sol\":4192:4947  for (uint256 i = 0; i < _tokenIds.length; i++) {... */\n    tag_143:\n        /* \"contracts/Staking.sol\":4216:4225  _tokenIds */\n      dup3\n      dup3\n        /* \"contracts/Staking.sol\":4216:4232  _tokenIds.length */\n      swap1\n      pop\n        /* \"contracts/Staking.sol\":4212:4213  i */\n      dup2\n        /* \"contracts/Staking.sol\":4212:4232  i < _tokenIds.length */\n      lt\n        /* \"contracts/Staking.sol\":4192:4947  for (uint256 i = 0; i < _tokenIds.length; i++) {... */\n      iszero\n      tag_144\n      jumpi\n        /* \"contracts/Staking.sol\":4254:4274  LockInfo memory info */\n      0x00\n        /* \"contracts/Staking.sol\":4277:4285  lockInfo */\n      0x05\n        /* \"contracts/Staking.sol\":4277:4299  lockInfo[_tokenIds[i]] */\n      0x00\n        /* \"contracts/Staking.sol\":4286:4295  _tokenIds */\n      dup6\n      dup6\n        /* \"contracts/Staking.sol\":4296:4297  i */\n      dup6\n        /* \"contracts/Staking.sol\":4286:4298  _tokenIds[i] */\n      dup2\n      dup2\n      lt\n      tag_146\n      jumpi\n      tag_147\n      tag_90\n      jump\t// in\n    tag_147:\n    tag_146:\n      swap1\n      pop\n      0x20\n      mul\n      add\n      calldataload\n        /* \"contracts/Staking.sol\":4277:4299  lockInfo[_tokenIds[i]] */\n      dup2\n      mstore\n      0x20\n      add\n      swap1\n      dup2\n      mstore\n      0x20\n      add\n      0x00\n      keccak256\n        /* \"contracts/Staking.sol\":4254:4299  LockInfo memory info = lockInfo[_tokenIds[i]] */\n      mload(0x40)\n      dup1\n      0x80\n      add\n      0x40\n      mstore\n      swap1\n      dup2\n      0x00\n      dup3\n      add\n      0x00\n      swap1\n      sload\n      swap1\n      0x0100\n      exp\n      swap1\n      div\n      0xffffffffffffffffffffffffffffffffffffffff\n      and\n      0xffffffffffffffffffffffffffffffffffffffff\n      and\n      0xffffffffffffffffffffffffffffffffffffffff\n      and\n      dup2\n      mstore\n      0x20\n      add\n      0x01\n      dup3\n      add\n      sload\n      dup2\n      mstore\n      0x20\n      add\n      0x02\n      dup3\n      add\n      sload\n      dup2\n      mstore\n      0x20\n      add\n      0x03\n      dup3\n      add\n      0x00\n      swap1\n      sload\n      swap1\n      0x0100\n      exp\n      swap1\n      div\n      0xff\n      and\n      iszero\n      iszero\n      iszero\n      iszero\n      dup2\n      mstore\n      pop\n      pop\n      swap1\n      pop\n        /* \"contracts/Staking.sol\":4336:4346  msg.sender */\n      caller\n        /* \"contracts/Staking.sol\":4322:4346  info.owner == msg.sender */\n      0xffffffffffffffffffffffffffffffffffffffff\n      and\n        /* \"contracts/Staking.sol\":4322:4326  info */\n      dup2\n        /* \"contracts/Staking.sol\":4322:4332  info.owner */\n      0x00\n      add\n      mload\n        /* \"contracts/Staking.sol\":4322:4346  info.owner == msg.sender */\n      0xffffffffffffffffffffffffffffffffffffffff\n      and\n      eq\n        /* \"contracts/Staking.sol\":4314:4368  require(info.owner == msg.sender, \"Not a token owner\") */\n      tag_148\n      jumpi\n      mload(0x40)\n      0x08c379a000000000000000000000000000000000000000000000000000000000\n      dup2\n      mstore\n      0x04\n      add\n      tag_149\n      swap1\n      tag_93\n      jump\t// in\n    tag_149:\n      mload(0x40)\n      dup1\n      swap2\n      sub\n      swap1\n      revert\n    tag_148:\n        /* \"contracts/Staking.sol\":4422:4437  block.timestamp */\n      timestamp\n        /* \"contracts/Staking.sol\":4409:4419  lockPeriod */\n      sload(0x04)\n        /* \"contracts/Staking.sol\":4391:4395  info */\n      dup3\n        /* \"contracts/Staking.sol\":4391:4406  info.lockedTime */\n      0x20\n      add\n      mload\n        /* \"contracts/Staking.sol\":4391:4419  info.lockedTime + lockPeriod */\n      tag_150\n      swap2\n      swap1\n      tag_95\n      jump\t// in\n    tag_150:\n        /* \"contracts/Staking.sol\":4391:4437  info.lockedTime + lockPeriod < block.timestamp */\n      lt\n        /* \"contracts/Staking.sol\":4383:4464  require(info.lockedTime + lockPeriod < block.timestamp, \"Not able to unlock yet\") */\n      tag_151\n      jumpi\n      mload(0x40)\n      0x08c379a000000000000000000000000000000000000000000000000000000000\n      dup2\n      mstore\n      0x04\n      add\n      tag_152\n      swap1\n      tag_153\n      jump\t// in\n    tag_152:\n      mload(0x40)\n      dup1\n      swap2\n      sub\n      swap1\n      revert\n    tag_151:\n        /* \"contracts/Staking.sol\":4488:4492  info */\n      dup1\n        /* \"contracts/Staking.sol\":4488:4503  info.isUnlocked */\n      0x60\n      add\n      mload\n        /* \"contracts/Staking.sol\":4487:4503  !info.isUnlocked */\n      iszero\n        /* \"contracts/Staking.sol\":4479:4524  require(!info.isUnlocked, \"Already unlocked\") */\n      tag_154\n      jumpi\n      mload(0x40)\n      0x08c379a000000000000000000000000000000000000000000000000000000000\n      dup2\n      mstore\n      0x04\n      add\n      tag_155\n      swap1\n      tag_101\n      jump\t// in\n    tag_155:\n      mload(0x40)\n      dup1\n      swap2\n      sub\n      swap1\n      revert\n    tag_154:\n        /* \"contracts/Staking.sol\":4623:4642  uint256 totalAmount */\n      0x00\n        /* \"contracts/Staking.sol\":4645:4672  _rewardAmount(_tokenIds[i]) */\n      tag_156\n        /* \"contracts/Staking.sol\":4659:4668  _tokenIds */\n      dup6\n      dup6\n        /* \"contracts/Staking.sol\":4669:4670  i */\n      dup6\n        /* \"contracts/Staking.sol\":4659:4671  _tokenIds[i] */\n      dup2\n      dup2\n      lt\n      tag_157\n      jumpi\n      tag_158\n      tag_90\n      jump\t// in\n    tag_158:\n    tag_157:\n      swap1\n      pop\n      0x20\n      mul\n      add\n      calldataload\n        /* \"contracts/Staking.sol\":4645:4658  _rewardAmount */\n      tag_105\n        /* \"contracts/Staking.sol\":4645:4672  _rewardAmount(_tokenIds[i]) */\n      jump\t// in\n    tag_156:\n        /* \"contracts/Staking.sol\":4623:4672  uint256 totalAmount = _rewardAmount(_tokenIds[i]) */\n      swap1\n      pop\n        /* \"contracts/Staking.sol\":4687:4711  uint256 unclaminedAmount */\n      0x00\n        /* \"contracts/Staking.sol\":4728:4732  info */\n      dup3\n        /* \"contracts/Staking.sol\":4728:4747  info.claimedRewards */\n      0x40\n      add\n      mload\n        /* \"contracts/Staking.sol\":4714:4725  totalAmount */\n      dup3\n        /* \"contracts/Staking.sol\":4714:4747  totalAmount - info.claimedRewards */\n      tag_159\n      swap2\n      swap1\n      tag_107\n      jump\t// in\n    tag_159:\n        /* \"contracts/Staking.sol\":4687:4747  uint256 unclaminedAmount = totalAmount - info.claimedRewards */\n      swap1\n      pop\n        /* \"contracts/Staking.sol\":4869:4880  totalAmount */\n      dup2\n        /* \"contracts/Staking.sol\":4829:4837  lockInfo */\n      0x05\n        /* \"contracts/Staking.sol\":4829:4851  lockInfo[_tokenIds[i]] */\n      0x00\n        /* \"contracts/Staking.sol\":4838:4847  _tokenIds */\n      dup9\n      dup9\n        /* \"contracts/Staking.sol\":4848:4849  i */\n      dup9\n        /* \"contracts/Staking.sol\":4838:4850  _tokenIds[i] */\n      dup2\n      dup2\n      lt\n      tag_160\n      jumpi\n      tag_161\n      tag_90\n      jump\t// in\n    tag_161:\n    tag_160:\n      swap1\n      pop\n      0x20\n      mul\n      add\n      calldataload\n        /* \"contracts/Staking.sol\":4829:4851  lockInfo[_tokenIds[i]] */\n      dup2\n      mstore\n      0x20\n      add\n      swap1\n      dup2\n      mstore\n      0x20\n      add\n      0x00\n      keccak256\n        /* \"contracts/Staking.sol\":4829:4866  lockInfo[_tokenIds[i]].claimedRewards */\n      0x02\n      add\n        /* \"contracts/Staking.sol\":4829:4880  lockInfo[_tokenIds[i]].claimedRewards = totalAmount */\n      dup2\n      swap1\n      sstore\n      pop\n        /* \"contracts/Staking.sol\":4931:4935  true */\n      0x01\n        /* \"contracts/Staking.sol\":4895:4903  lockInfo */\n      0x05\n        /* \"contracts/Staking.sol\":4895:4917  lockInfo[_tokenIds[i]] */\n      0x00\n        /* \"contracts/Staking.sol\":4904:4913  _tokenIds */\n      dup9\n      dup9\n        /* \"contracts/Staking.sol\":4914:4915  i */\n      dup9\n        /* \"contracts/Staking.sol\":4904:4916  _tokenIds[i] */\n      dup2\n      dup2\n      lt\n      tag_162\n      jumpi\n      tag_163\n      tag_90\n      jump\t// in\n    tag_163:\n    tag_162:\n      swap1\n      pop\n      0x20\n      mul\n      add\n      calldataload\n        /* \"contracts/Staking.sol\":4895:4917  lockInfo[_tokenIds[i]] */\n      dup2\n      mstore\n      0x20\n      add\n      swap1\n      dup2\n      mstore\n      0x20\n      add\n      0x00\n      keccak256\n        /* \"contracts/Staking.sol\":4895:4928  lockInfo[_tokenIds[i]].isUnlocked */\n      0x03\n      add\n      0x00\n        /* \"contracts/Staking.sol\":4895:4935  lockInfo[_tokenIds[i]].isUnlocked = true */\n      0x0100\n      exp\n      dup2\n      sload\n      dup2\n      0xff\n      mul\n      not\n      and\n      swap1\n      dup4\n      iszero\n      iszero\n      mul\n      or\n      swap1\n      sstore\n      pop\n        /* \"contracts/Staking.sol\":4239:4947  {... */\n      pop\n      pop\n      pop\n        /* \"contracts/Staking.sol\":4234:4237  i++ */\n      dup1\n      dup1\n      tag_164\n      swap1\n      tag_112\n      jump\t// in\n    tag_164:\n      swap2\n      pop\n      pop\n        /* \"contracts/Staking.sol\":4192:4947  for (uint256 i = 0; i < _tokenIds.length; i++) {... */\n      jump(tag_143)\n    tag_144:\n      pop\n        /* \"contracts/Staking.sol\":4976:4986  msg.sender */\n      caller\n        /* \"contracts/Staking.sol\":4964:4998  NFTUnLocked(msg.sender, _tokenIds) */\n      0xffffffffffffffffffffffffffffffffffffffff\n      and\n      0x5cb48022479b9ac3bfb10a27965dc010acffc9fc1bc9a52f0b18975b944b54ca\n        /* \"contracts/Staking.sol\":4988:4997  _tokenIds */\n      dup4\n      dup4\n        /* \"contracts/Staking.sol\":4964:4998  NFTUnLocked(msg.sender, _tokenIds) */\n      mload(0x40)\n      tag_165\n      swap3\n      swap2\n      swap1\n      tag_166\n      jump\t// in\n    tag_165:\n      mload(0x40)\n      dup1\n      swap2\n      sub\n      swap1\n      log2\n        /* \"@openzeppelin/contracts/security/ReentrancyGuard.sol\":1701:1702  1 */\n      0x01\n        /* \"@openzeppelin/contracts/security/ReentrancyGuard.sol\":2628:2635  _status */\n      dup1\n        /* \"@openzeppelin/contracts/security/ReentrancyGuard.sol\":2628:2650  _status = _NOT_ENTERED */\n      dup2\n      swap1\n      sstore\n      pop\n        /* \"contracts/Staking.sol\":4043:5006  function unlockNFT(uint256[] calldata _tokenIds) external notContract nonReentrant {... */\n      pop\n      pop\n      jump\t// out\n        /* \"@openzeppelin/contracts/access/Ownable.sol\":1201:1286  function owner() public view virtual returns (address) {... */\n    tag_54:\n        /* \"@openzeppelin/contracts/access/Ownable.sol\":1247:1254  address */\n      0x00\n        /* \"@openzeppelin/contracts/access/Ownable.sol\":1273:1279  _owner */\n      dup1\n      0x00\n      swap1\n      sload\n      swap1\n      0x0100\n      exp\n      swap1\n      div\n      0xffffffffffffffffffffffffffffffffffffffff\n      and\n        /* \"@openzeppelin/contracts/access/Ownable.sol\":1266:1279  return _owner */\n      swap1\n      pop\n        /* \"@openzeppelin/contracts/access/Ownable.sol\":1201:1286  function owner() public view virtual returns (address) {... */\n      swap1\n      jump\t// out\n        /* \"contracts/Staking.sol\":937:956  uint256 public WAVE */\n    tag_58:\n      sload(0x06)\n      dup2\n      jump\t// out\n        /* \"@openzeppelin/contracts/access/Ownable.sol\":2081:2279  function transferOwnership(address newOwner) public virtual onlyOwner {... */\n    tag_63:\n        /* \"@openzeppelin/contracts/access/Ownable.sol\":1094:1107  _checkOwner() */\n      tag_169\n        /* \"@openzeppelin/contracts/access/Ownable.sol\":1094:1105  _checkOwner */\n      tag_119\n        /* \"@openzeppelin/contracts/access/Ownable.sol\":1094:1107  _checkOwner() */\n      jump\t// in\n    tag_169:\n        /* \"@openzeppelin/contracts/access/Ownable.sol\":2189:2190  0 */\n      0x00\n        /* \"@openzeppelin/contracts/access/Ownable.sol\":2169:2191  newOwner != address(0) */\n      0xffffffffffffffffffffffffffffffffffffffff\n      and\n        /* \"@openzeppelin/contracts/access/Ownable.sol\":2169:2177  newOwner */\n      dup2\n        /* \"@openzeppelin/contracts/access/Ownable.sol\":2169:2191  newOwner != address(0) */\n      0xffffffffffffffffffffffffffffffffffffffff\n      and\n      sub\n        /* \"@openzeppelin/contracts/access/Ownable.sol\":2161:2234  require(newOwner != address(0), \"Ownable: new owner is the zero address\") */\n      tag_171\n      jumpi\n      mload(0x40)\n      0x08c379a000000000000000000000000000000000000000000000000000000000\n      dup2\n      mstore\n      0x04\n      add\n      tag_172\n      swap1\n      tag_173\n      jump\t// in\n    tag_172:\n      mload(0x40)\n      dup1\n      swap2\n      sub\n      swap1\n      revert\n    tag_171:\n        /* \"@openzeppelin/contracts/access/Ownable.sol\":2244:2272  _transferOwnership(newOwner) */\n      tag_174\n        /* \"@openzeppelin/contracts/access/Ownable.sol\":2263:2271  newOwner */\n      dup2\n        /* \"@openzeppelin/contracts/access/Ownable.sol\":2244:2262  _transferOwnership */\n      tag_122\n        /* \"@openzeppelin/contracts/access/Ownable.sol\":2244:2272  _transferOwnership(newOwner) */\n      jump\t// in\n    tag_174:\n        /* \"@openzeppelin/contracts/access/Ownable.sol\":2081:2279  function transferOwnership(address newOwner) public virtual onlyOwner {... */\n      pop\n      jump\t// out\n        /* \"contracts/Staking.sol\":3400:3930  function lockNFT(uint256[] calldata _tokenIds) external notContract nonReentrant {... */\n    tag_66:\n        /* \"contracts/Staking.sol\":2471:2503  address(msg.sender).isContract() */\n      tag_176\n        /* \"contracts/Staking.sol\":2479:2489  msg.sender */\n      caller\n        /* \"contracts/Staking.sol\":2471:2501  address(msg.sender).isContract */\n      0xffffffffffffffffffffffffffffffffffffffff\n      and\n      tag_74\n        /* \"contracts/Staking.sol\":2471:2503  address(msg.sender).isContract() */\n      jump\t// in\n    tag_176:\n        /* \"contracts/Staking.sol\":2470:2503  !address(msg.sender).isContract() */\n      iszero\n        /* \"contracts/Staking.sol\":2462:2528  require(!address(msg.sender).isContract(), \"Contract not allowed\") */\n      tag_177\n      jumpi\n      mload(0x40)\n      0x08c379a000000000000000000000000000000000000000000000000000000000\n      dup2\n      mstore\n      0x04\n      add\n      tag_178\n      swap1\n      tag_77\n      jump\t// in\n    tag_178:\n      mload(0x40)\n      dup1\n      swap2\n      sub\n      swap1\n      revert\n    tag_177:\n        /* \"contracts/Staking.sol\":2561:2570  tx.origin */\n      origin\n        /* \"contracts/Staking.sol\":2547:2570  msg.sender == tx.origin */\n      0xffffffffffffffffffffffffffffffffffffffff\n      and\n        /* \"contracts/Staking.sol\":2547:2557  msg.sender */\n      caller\n        /* \"contracts/Staking.sol\":2547:2570  msg.sender == tx.origin */\n      0xffffffffffffffffffffffffffffffffffffffff\n      and\n      eq\n        /* \"contracts/Staking.sol\":2539:2601  require(msg.sender == tx.origin, \"Proxy contract not allowed\") */\n      tag_179\n      jumpi\n      mload(0x40)\n      0x08c379a000000000000000000000000000000000000000000000000000000000\n      dup2\n      mstore\n      0x04\n      add\n      tag_180\n      swap1\n      tag_80\n      jump\t// in\n    tag_180:\n      mload(0x40)\n      dup1\n      swap2\n      sub\n      swap1\n      revert\n    tag_179:\n        /* \"@openzeppelin/contracts/security/ReentrancyGuard.sol\":1744:1745  2 */\n      0x02\n        /* \"@openzeppelin/contracts/security/ReentrancyGuard.sol\":2325:2332  _status */\n      sload(0x01)\n        /* \"@openzeppelin/contracts/security/ReentrancyGuard.sol\":2325:2344  _status != _ENTERED */\n      sub\n        /* \"@openzeppelin/contracts/security/ReentrancyGuard.sol\":2317:2380  require(_status != _ENTERED, \"ReentrancyGuard: reentrant call\") */\n      tag_182\n      jumpi\n      mload(0x40)\n      0x08c379a000000000000000000000000000000000000000000000000000000000\n      dup2\n      mstore\n      0x04\n      add\n      tag_183\n      swap1\n      tag_139\n      jump\t// in\n    tag_183:\n      mload(0x40)\n      dup1\n      swap2\n      sub\n      swap1\n      revert\n    tag_182:\n        /* \"@openzeppelin/contracts/security/ReentrancyGuard.sol\":1744:1745  2 */\n      0x02\n        /* \"@openzeppelin/contracts/security/ReentrancyGuard.sol\":2455:2462  _status */\n      0x01\n        /* \"@openzeppelin/contracts/security/ReentrancyGuard.sol\":2455:2473  _status = _ENTERED */\n      dup2\n      swap1\n      sstore\n      pop\n        /* \"contracts/Staking.sol\":3519:3520  0 */\n      0x00\n        /* \"contracts/Staking.sol\":3500:3509  _tokenIds */\n      dup3\n      dup3\n        /* \"contracts/Staking.sol\":3500:3516  _tokenIds.length */\n      swap1\n      pop\n        /* \"contracts/Staking.sol\":3500:3520  _tokenIds.length > 0 */\n      gt\n        /* \"contracts/Staking.sol\":3492:3534  require(_tokenIds.length > 0, \"No tokens\") */\n      tag_185\n      jumpi\n      mload(0x40)\n      0x08c379a000000000000000000000000000000000000000000000000000000000\n      dup2\n      mstore\n      0x04\n      add\n      tag_186\n      swap1\n      tag_84\n      jump\t// in\n    tag_186:\n      mload(0x40)\n      dup1\n      swap2\n      sub\n      swap1\n      revert\n    tag_185:\n        /* \"contracts/Staking.sol\":3552:3561  uint256 i */\n      0x00\n        /* \"contracts/Staking.sol\":3547:3873  for (uint256 i = 0; i < _tokenIds.length; i++) {... */\n    tag_187:\n        /* \"contracts/Staking.sol\":3571:3580  _tokenIds */\n      dup3\n      dup3\n        /* \"contracts/Staking.sol\":3571:3587  _tokenIds.length */\n      swap1\n      pop\n        /* \"contracts/Staking.sol\":3567:3568  i */\n      dup2\n        /* \"contracts/Staking.sol\":3567:3587  i < _tokenIds.length */\n      lt\n        /* \"contracts/Staking.sol\":3547:3873  for (uint256 i = 0; i < _tokenIds.length; i++) {... */\n      iszero\n      tag_188\n      jumpi\n        /* \"contracts/Staking.sol\":3814:3861  LockInfo(msg.sender, block.timestamp, 0, false) */\n      mload(0x40)\n      dup1\n      0x80\n      add\n      0x40\n      mstore\n      dup1\n        /* \"contracts/Staking.sol\":3823:3833  msg.sender */\n      caller\n        /* \"contracts/Staking.sol\":3814:3861  LockInfo(msg.sender, block.timestamp, 0, false) */\n      0xffffffffffffffffffffffffffffffffffffffff\n      and\n      dup2\n      mstore\n      0x20\n      add\n        /* \"contracts/Staking.sol\":3835:3850  block.timestamp */\n      timestamp\n        /* \"contracts/Staking.sol\":3814:3861  LockInfo(msg.sender, block.timestamp, 0, false) */\n      dup2\n      mstore\n      0x20\n      add\n        /* \"contracts/Staking.sol\":3852:3853  0 */\n      0x00\n        /* \"contracts/Staking.sol\":3814:3861  LockInfo(msg.sender, block.timestamp, 0, false) */\n      dup2\n      mstore\n      0x20\n      add\n        /* \"contracts/Staking.sol\":3855:3860  false */\n      0x00\n        /* \"contracts/Staking.sol\":3814:3861  LockInfo(msg.sender, block.timestamp, 0, false) */\n      iszero\n      iszero\n      dup2\n      mstore\n      pop\n        /* \"contracts/Staking.sol\":3789:3797  lockInfo */\n      0x05\n        /* \"contracts/Staking.sol\":3789:3811  lockInfo[_tokenIds[i]] */\n      0x00\n        /* \"contracts/Staking.sol\":3798:3807  _tokenIds */\n      dup6\n      dup6\n        /* \"contracts/Staking.sol\":3808:3809  i */\n      dup6\n        /* \"contracts/Staking.sol\":3798:3810  _tokenIds[i] */\n      dup2\n      dup2\n      lt\n      tag_190\n      jumpi\n      tag_191\n      tag_90\n      jump\t// in\n    tag_191:\n    tag_190:\n      swap1\n      pop\n      0x20\n      mul\n      add\n      calldataload\n        /* \"contracts/Staking.sol\":3789:3811  lockInfo[_tokenIds[i]] */\n      dup2\n      mstore\n      0x20\n      add\n      swap1\n      dup2\n      mstore\n      0x20\n      add\n      0x00\n      keccak256\n        /* \"contracts/Staking.sol\":3789:3861  lockInfo[_tokenIds[i]] = LockInfo(msg.sender, block.timestamp, 0, false) */\n      0x00\n      dup3\n      add\n      mload\n      dup2\n      0x00\n      add\n      exp(0x0100, 0x00)\n      dup2\n      sload\n      dup2\n      0xffffffffffffffffffffffffffffffffffffffff\n      mul\n      not\n      and\n      swap1\n      dup4\n      0xffffffffffffffffffffffffffffffffffffffff\n      and\n      mul\n      or\n      swap1\n      sstore\n      pop\n      0x20\n      dup3\n      add\n      mload\n      dup2\n      0x01\n      add\n      sstore\n      0x40\n      dup3\n      add\n      mload\n      dup2\n      0x02\n      add\n      sstore\n      0x60\n      dup3\n      add\n      mload\n      dup2\n      0x03\n      add\n      exp(0x0100, 0x00)\n      dup2\n      sload\n      dup2\n      0xff\n      mul\n      not\n      and\n      swap1\n      dup4\n      iszero\n      iszero\n      mul\n      or\n      swap1\n      sstore\n      pop\n      swap1\n      pop\n      pop\n        /* \"contracts/Staking.sol\":3589:3592  i++ */\n      dup1\n      dup1\n      tag_192\n      swap1\n      tag_112\n      jump\t// in\n    tag_192:\n      swap2\n      pop\n      pop\n        /* \"contracts/Staking.sol\":3547:3873  for (uint256 i = 0; i < _tokenIds.length; i++) {... */\n      jump(tag_187)\n    tag_188:\n      pop\n        /* \"contracts/Staking.sol\":3900:3910  msg.sender */\n      caller\n        /* \"contracts/Staking.sol\":3890:3922  NFTLocked(msg.sender, _tokenIds) */\n      0xffffffffffffffffffffffffffffffffffffffff\n      and\n      0x458be0227bccc9e803dec79bd16767eeaf9925d2ce708eeed7ae1f3621f968f9\n        /* \"contracts/Staking.sol\":3912:3921  _tokenIds */\n      dup4\n      dup4\n        /* \"contracts/Staking.sol\":3890:3922  NFTLocked(msg.sender, _tokenIds) */\n      mload(0x40)\n      tag_193\n      swap3\n      swap2\n      swap1\n      tag_166\n      jump\t// in\n    tag_193:\n      mload(0x40)\n      dup1\n      swap2\n      sub\n      swap1\n      log2\n        /* \"@openzeppelin/contracts/security/ReentrancyGuard.sol\":1701:1702  1 */\n      0x01\n        /* \"@openzeppelin/contracts/security/ReentrancyGuard.sol\":2628:2635  _status */\n      dup1\n        /* \"@openzeppelin/contracts/security/ReentrancyGuard.sol\":2628:2650  _status = _NOT_ENTERED */\n      dup2\n      swap1\n      sstore\n      pop\n        /* \"contracts/Staking.sol\":3400:3930  function lockNFT(uint256[] calldata _tokenIds) external notContract nonReentrant {... */\n      pop\n      pop\n      jump\t// out\n        /* \"@openzeppelin/contracts/utils/Address.sol\":1175:1495  function isContract(address account) internal view returns (bool) {... */\n    tag_74:\n        /* \"@openzeppelin/contracts/utils/Address.sol\":1235:1239  bool */\n      0x00\n        /* \"@openzeppelin/contracts/utils/Address.sol\":1487:1488  0 */\n      dup1\n        /* \"@openzeppelin/contracts/utils/Address.sol\":1465:1472  account */\n      dup3\n        /* \"@openzeppelin/contracts/utils/Address.sol\":1465:1484  account.code.length */\n      0xffffffffffffffffffffffffffffffffffffffff\n      and\n      extcodesize\n        /* \"@openzeppelin/contracts/utils/Address.sol\":1465:1488  account.code.length > 0 */\n      gt\n        /* \"@openzeppelin/contracts/utils/Address.sol\":1458:1488  return account.code.length > 0 */\n      swap1\n      pop\n        /* \"@openzeppelin/contracts/utils/Address.sol\":1175:1495  function isContract(address account) internal view returns (bool) {... */\n      swap2\n      swap1\n      pop\n      jump\t// out\n        /* \"contracts/Staking.sol\":6077:6530  function _rewardAmount(uint256 _tokenId) internal view returns (uint256) {... */\n    tag_105:\n        /* \"contracts/Staking.sol\":6141:6148  uint256 */\n      0x00\n        /* \"contracts/Staking.sol\":6161:6181  LockInfo memory info */\n      dup1\n        /* \"contracts/Staking.sol\":6184:6192  lockInfo */\n      0x05\n        /* \"contracts/Staking.sol\":6184:6202  lockInfo[_tokenId] */\n      0x00\n        /* \"contracts/Staking.sol\":6193:6201  _tokenId */\n      dup5\n        /* \"contracts/Staking.sol\":6184:6202  lockInfo[_tokenId] */\n      dup2\n      mstore\n      0x20\n      add\n      swap1\n      dup2\n      mstore\n      0x20\n      add\n      0x00\n      keccak256\n        /* \"contracts/Staking.sol\":6161:6202  LockInfo memory info = lockInfo[_tokenId] */\n      mload(0x40)\n      dup1\n      0x80\n      add\n      0x40\n      mstore\n      swap1\n      dup2\n      0x00\n      dup3\n      add\n      0x00\n      swap1\n      sload\n      swap1\n      0x0100\n      exp\n      swap1\n      div\n      0xffffffffffffffffffffffffffffffffffffffff\n      and\n      0xffffffffffffffffffffffffffffffffffffffff\n      and\n      0xffffffffffffffffffffffffffffffffffffffff\n      and\n      dup2\n      mstore\n      0x20\n      add\n      0x01\n      dup3\n      add\n      sload\n      dup2\n      mstore\n      0x20\n      add\n      0x02\n      dup3\n      add\n      sload\n      dup2\n      mstore\n      0x20\n      add\n      0x03\n      dup3\n      add\n      0x00\n      swap1\n      sload\n      swap1\n      0x0100\n      exp\n      swap1\n      div\n      0xff\n      and\n      iszero\n      iszero\n      iszero\n      iszero\n      dup2\n      mstore\n      pop\n      pop\n      swap1\n      pop\n        /* \"contracts/Staking.sol\":6213:6236  uint256 stakingDuration */\n      0x00\n        /* \"contracts/Staking.sol\":6257:6261  info */\n      dup2\n        /* \"contracts/Staking.sol\":6257:6272  info.lockedTime */\n      0x20\n      add\n      mload\n        /* \"contracts/Staking.sol\":6239:6254  block.timestamp */\n      timestamp\n        /* \"contracts/Staking.sol\":6239:6272  block.timestamp - info.lockedTime */\n      tag_196\n      swap2\n      swap1\n      tag_107\n      jump\t// in\n    tag_196:\n        /* \"contracts/Staking.sol\":6213:6272  uint256 stakingDuration = block.timestamp - info.lockedTime */\n      swap1\n      pop\n        /* \"contracts/Staking.sol\":6283:6302  uint256 totalAmount */\n      0x00\n        /* \"contracts/Staking.sol\":6337:6347  lockPeriod */\n      sload(0x04)\n        /* \"contracts/Staking.sol\":6319:6334  stakingDuration */\n      dup3\n        /* \"contracts/Staking.sol\":6319:6347  stakingDuration < lockPeriod */\n      lt\n        /* \"contracts/Staking.sol\":6315:6523  if (stakingDuration < lockPeriod) {... */\n      iszero\n      tag_197\n      jumpi\n        /* \"contracts/Staking.sol\":6371:6372  0 */\n      0x00\n        /* \"contracts/Staking.sol\":6364:6372  return 0 */\n      swap4\n      pop\n      pop\n      pop\n      pop\n      jump(tag_195)\n        /* \"contracts/Staking.sol\":6315:6523  if (stakingDuration < lockPeriod) {... */\n    tag_197:\n        /* \"contracts/Staking.sol\":6500:6511  totalAmount */\n      dup1\n        /* \"contracts/Staking.sol\":6493:6511  return totalAmount */\n      swap4\n      pop\n      pop\n      pop\n      pop\n        /* \"contracts/Staking.sol\":6077:6530  function _rewardAmount(uint256 _tokenId) internal view returns (uint256) {... */\n    tag_195:\n      swap2\n      swap1\n      pop\n      jump\t// out\n        /* \"@openzeppelin/contracts/access/Ownable.sol\":1359:1489  function _checkOwner() internal view virtual {... */\n    tag_119:\n        /* \"@openzeppelin/contracts/access/Ownable.sol\":1433:1445  _msgSender() */\n      tag_200\n        /* \"@openzeppelin/contracts/access/Ownable.sol\":1433:1443  _msgSender */\n      tag_201\n        /* \"@openzeppelin/contracts/access/Ownable.sol\":1433:1445  _msgSender() */\n      jump\t// in\n    tag_200:\n        /* \"@openzeppelin/contracts/access/Ownable.sol\":1422:1445  owner() == _msgSender() */\n      0xffffffffffffffffffffffffffffffffffffffff\n      and\n        /* \"@openzeppelin/contracts/access/Ownable.sol\":1422:1429  owner() */\n      tag_202\n        /* \"@openzeppelin/contracts/access/Ownable.sol\":1422:1427  owner */\n      tag_54\n        /* \"@openzeppelin/contracts/access/Ownable.sol\":1422:1429  owner() */\n      jump\t// in\n    tag_202:\n        /* \"@openzeppelin/contracts/access/Ownable.sol\":1422:1445  owner() == _msgSender() */\n      0xffffffffffffffffffffffffffffffffffffffff\n      and\n      eq\n        /* \"@openzeppelin/contracts/access/Ownable.sol\":1414:1482  require(owner() == _msgSender(), \"Ownable: caller is not the owner\") */\n      tag_203\n      jumpi\n      mload(0x40)\n      0x08c379a000000000000000000000000000000000000000000000000000000000\n      dup2\n      mstore\n      0x04\n      add\n      tag_204\n      swap1\n      tag_205\n      jump\t// in\n    tag_204:\n      mload(0x40)\n      dup1\n      swap2\n      sub\n      swap1\n      revert\n    tag_203:\n        /* \"@openzeppelin/contracts/access/Ownable.sol\":1359:1489  function _checkOwner() internal view virtual {... */\n      jump\t// out\n        /* \"@openzeppelin/contracts/access/Ownable.sol\":2433:2620  function _transferOwnership(address newOwner) internal virtual {... */\n    tag_122:\n        /* \"@openzeppelin/contracts/access/Ownable.sol\":2506:2522  address oldOwner */\n      0x00\n        /* \"@openzeppelin/contracts/access/Ownable.sol\":2525:2531  _owner */\n      dup1\n      0x00\n      swap1\n      sload\n      swap1\n      0x0100\n      exp\n      swap1\n      div\n      0xffffffffffffffffffffffffffffffffffffffff\n      and\n        /* \"@openzeppelin/contracts/access/Ownable.sol\":2506:2531  address oldOwner = _owner */\n      swap1\n      pop\n        /* \"@openzeppelin/contracts/access/Ownable.sol\":2550:2558  newOwner */\n      dup2\n        /* \"@openzeppelin/contracts/access/Ownable.sol\":2541:2547  _owner */\n      0x00\n      dup1\n        /* \"@openzeppelin/contracts/access/Ownable.sol\":2541:2558  _owner = newOwner */\n      0x0100\n      exp\n      dup2\n      sload\n      dup2\n      0xffffffffffffffffffffffffffffffffffffffff\n      mul\n      not\n      and\n      swap1\n      dup4\n      0xffffffffffffffffffffffffffffffffffffffff\n      and\n      mul\n      or\n      swap1\n      sstore\n      pop\n        /* \"@openzeppelin/contracts/access/Ownable.sol\":2604:2612  newOwner */\n      dup2\n        /* \"@openzeppelin/contracts/access/Ownable.sol\":2573:2613  OwnershipTransferred(oldOwner, newOwner) */\n      0xffffffffffffffffffffffffffffffffffffffff\n      and\n        /* \"@openzeppelin/contracts/access/Ownable.sol\":2594:2602  oldOwner */\n      dup2\n        /* \"@openzeppelin/contracts/access/Ownable.sol\":2573:2613  OwnershipTransferred(oldOwner, newOwner) */\n      0xffffffffffffffffffffffffffffffffffffffff\n      and\n      0x8be0079c531659141344cd1fd0a4f28419497f9722a3daafe3b4186f6b6457e0\n      mload(0x40)\n      mload(0x40)\n      dup1\n      swap2\n      sub\n      swap1\n      log3\n        /* \"@openzeppelin/contracts/access/Ownable.sol\":2496:2620  {... */\n      pop\n        /* \"@openzeppelin/contracts/access/Ownable.sol\":2433:2620  function _transferOwnership(address newOwner) internal virtual {... */\n      pop\n      jump\t// out\n        /* \"@openzeppelin/contracts/utils/Context.sol\":640:736  function _msgSender() internal view virtual returns (address) {... */\n    tag_201:\n        /* \"@openzeppelin/contracts/utils/Context.sol\":693:700  address */\n      0x00\n        /* \"@openzeppelin/contracts/utils/Context.sol\":719:729  msg.sender */\n      caller\n        /* \"@openzeppelin/contracts/utils/Context.sol\":712:729  return msg.sender */\n      swap1\n      pop\n        /* \"@openzeppelin/contracts/utils/Context.sol\":640:736  function _msgSender() internal view virtual returns (address) {... */\n      swap1\n      jump\t// out\n        /* \"#utility.yul\":88:205   */\n    tag_209:\n        /* \"#utility.yul\":197:198   */\n      0x00\n        /* \"#utility.yul\":194:195   */\n      dup1\n        /* \"#utility.yul\":187:199   */\n      revert\n        /* \"#utility.yul\":211:328   */\n    tag_210:\n        /* \"#utility.yul\":320:321   */\n      0x00\n        /* \"#utility.yul\":317:318   */\n      dup1\n        /* \"#utility.yul\":310:322   */\n      revert\n        /* \"#utility.yul\":334:411   */\n    tag_211:\n        /* \"#utility.yul\":371:378   */\n      0x00\n        /* \"#utility.yul\":400:405   */\n      dup2\n        /* \"#utility.yul\":389:405   */\n      swap1\n      pop\n        /* \"#utility.yul\":334:411   */\n      swap2\n      swap1\n      pop\n      jump\t// out\n        /* \"#utility.yul\":417:539   */\n    tag_212:\n        /* \"#utility.yul\":490:514   */\n      tag_265\n        /* \"#utility.yul\":508:513   */\n      dup2\n        /* \"#utility.yul\":490:514   */\n      tag_211\n      jump\t// in\n    tag_265:\n        /* \"#utility.yul\":483:488   */\n      dup2\n        /* \"#utility.yul\":480:515   */\n      eq\n        /* \"#utility.yul\":470:533   */\n      tag_266\n      jumpi\n        /* \"#utility.yul\":529:530   */\n      0x00\n        /* \"#utility.yul\":526:527   */\n      dup1\n        /* \"#utility.yul\":519:531   */\n      revert\n        /* \"#utility.yul\":470:533   */\n    tag_266:\n        /* \"#utility.yul\":417:539   */\n      pop\n      jump\t// out\n        /* \"#utility.yul\":545:684   */\n    tag_213:\n        /* \"#utility.yul\":591:596   */\n      0x00\n        /* \"#utility.yul\":629:635   */\n      dup2\n        /* \"#utility.yul\":616:636   */\n      calldataload\n        /* \"#utility.yul\":607:636   */\n      swap1\n      pop\n        /* \"#utility.yul\":645:678   */\n      tag_268\n        /* \"#utility.yul\":672:677   */\n      dup2\n        /* \"#utility.yul\":645:678   */\n      tag_212\n      jump\t// in\n    tag_268:\n        /* \"#utility.yul\":545:684   */\n      swap3\n      swap2\n      pop\n      pop\n      jump\t// out\n        /* \"#utility.yul\":690:1019   */\n    tag_20:\n        /* \"#utility.yul\":749:755   */\n      0x00\n        /* \"#utility.yul\":798:800   */\n      0x20\n        /* \"#utility.yul\":786:795   */\n      dup3\n        /* \"#utility.yul\":777:784   */\n      dup5\n        /* \"#utility.yul\":773:796   */\n      sub\n        /* \"#utility.yul\":769:801   */\n      slt\n        /* \"#utility.yul\":766:885   */\n      iszero\n      tag_270\n      jumpi\n        /* \"#utility.yul\":804:883   */\n      tag_271\n      tag_209\n      jump\t// in\n    tag_271:\n        /* \"#utility.yul\":766:885   */\n    tag_270:\n        /* \"#utility.yul\":924:925   */\n      0x00\n        /* \"#utility.yul\":949:1002   */\n      tag_272\n        /* \"#utility.yul\":994:1001   */\n      dup5\n        /* \"#utility.yul\":985:991   */\n      dup3\n        /* \"#utility.yul\":974:983   */\n      dup6\n        /* \"#utility.yul\":970:992   */\n      add\n        /* \"#utility.yul\":949:1002   */\n      tag_213\n      jump\t// in\n    tag_272:\n        /* \"#utility.yul\":939:1002   */\n      swap2\n      pop\n        /* \"#utility.yul\":895:1012   */\n      pop\n        /* \"#utility.yul\":690:1019   */\n      swap3\n      swap2\n      pop\n      pop\n      jump\t// out\n        /* \"#utility.yul\":1025:1143   */\n    tag_214:\n        /* \"#utility.yul\":1112:1136   */\n      tag_274\n        /* \"#utility.yul\":1130:1135   */\n      dup2\n        /* \"#utility.yul\":1112:1136   */\n      tag_211\n      jump\t// in\n    tag_274:\n        /* \"#utility.yul\":1107:1110   */\n      dup3\n        /* \"#utility.yul\":1100:1137   */\n      mstore\n        /* \"#utility.yul\":1025:1143   */\n      pop\n      pop\n      jump\t// out\n        /* \"#utility.yul\":1149:1371   */\n    tag_23:\n        /* \"#utility.yul\":1242:1246   */\n      0x00\n        /* \"#utility.yul\":1280:1282   */\n      0x20\n        /* \"#utility.yul\":1269:1278   */\n      dup3\n        /* \"#utility.yul\":1265:1283   */\n      add\n        /* \"#utility.yul\":1257:1283   */\n      swap1\n      pop\n        /* \"#utility.yul\":1293:1364   */\n      tag_276\n        /* \"#utility.yul\":1361:1362   */\n      0x00\n        /* \"#utility.yul\":1350:1359   */\n      dup4\n        /* \"#utility.yul\":1346:1363   */\n      add\n        /* \"#utility.yul\":1337:1343   */\n      dup5\n        /* \"#utility.yul\":1293:1364   */\n      tag_214\n      jump\t// in\n    tag_276:\n        /* \"#utility.yul\":1149:1371   */\n      swap3\n      swap2\n      pop\n      pop\n      jump\t// out\n        /* \"#utility.yul\":1377:1503   */\n    tag_215:\n        /* \"#utility.yul\":1414:1421   */\n      0x00\n        /* \"#utility.yul\":1454:1496   */\n      0xffffffffffffffffffffffffffffffffffffffff\n        /* \"#utility.yul\":1447:1452   */\n      dup3\n        /* \"#utility.yul\":1443:1497   */\n      and\n        /* \"#utility.yul\":1432:1497   */\n      swap1\n      pop\n        /* \"#utility.yul\":1377:1503   */\n      swap2\n      swap1\n      pop\n      jump\t// out\n        /* \"#utility.yul\":1509:1569   */\n    tag_216:\n        /* \"#utility.yul\":1537:1540   */\n      0x00\n        /* \"#utility.yul\":1558:1563   */\n      dup2\n        /* \"#utility.yul\":1551:1563   */\n      swap1\n      pop\n        /* \"#utility.yul\":1509:1569   */\n      swap2\n      swap1\n      pop\n      jump\t// out\n        /* \"#utility.yul\":1575:1717   */\n    tag_217:\n        /* \"#utility.yul\":1625:1634   */\n      0x00\n        /* \"#utility.yul\":1658:1711   */\n      tag_280\n        /* \"#utility.yul\":1676:1710   */\n      tag_281\n        /* \"#utility.yul\":1685:1709   */\n      tag_282\n        /* \"#utility.yul\":1703:1708   */\n      dup5\n        /* \"#utility.yul\":1685:1709   */\n      tag_215\n      jump\t// in\n    tag_282:\n        /* \"#utility.yul\":1676:1710   */\n      tag_216\n      jump\t// in\n    tag_281:\n        /* \"#utility.yul\":1658:1711   */\n      tag_215\n      jump\t// in\n    tag_280:\n        /* \"#utility.yul\":1645:1711   */\n      swap1\n      pop\n        /* \"#utility.yul\":1575:1717   */\n      swap2\n      swap1\n      pop\n      jump\t// out\n        /* \"#utility.yul\":1723:1849   */\n    tag_218:\n        /* \"#utility.yul\":1773:1782   */\n      0x00\n        /* \"#utility.yul\":1806:1843   */\n      tag_284\n        /* \"#utility.yul\":1837:1842   */\n      dup3\n        /* \"#utility.yul\":1806:1843   */\n      tag_217\n      jump\t// in\n    tag_284:\n        /* \"#utility.yul\":1793:1843   */\n      swap1\n      pop\n        /* \"#utility.yul\":1723:1849   */\n      swap2\n      swap1\n      pop\n      jump\t// out\n        /* \"#utility.yul\":1855:2003   */\n    tag_219:\n        /* \"#utility.yul\":1927:1936   */\n      0x00\n        /* \"#utility.yul\":1960:1997   */\n      tag_286\n        /* \"#utility.yul\":1991:1996   */\n      dup3\n        /* \"#utility.yul\":1960:1997   */\n      tag_218\n      jump\t// in\n    tag_286:\n        /* \"#utility.yul\":1947:1997   */\n      swap1\n      pop\n        /* \"#utility.yul\":1855:2003   */\n      swap2\n      swap1\n      pop\n      jump\t// out\n        /* \"#utility.yul\":2009:2184   */\n    tag_220:\n        /* \"#utility.yul\":2118:2177   */\n      tag_288\n        /* \"#utility.yul\":2171:2176   */\n      dup2\n        /* \"#utility.yul\":2118:2177   */\n      tag_219\n      jump\t// in\n    tag_288:\n        /* \"#utility.yul\":2113:2116   */\n      dup3\n        /* \"#utility.yul\":2106:2178   */\n      mstore\n        /* \"#utility.yul\":2009:2184   */\n      pop\n      pop\n      jump\t// out\n        /* \"#utility.yul\":2190:2456   */\n    tag_28:\n        /* \"#utility.yul\":2305:2309   */\n      0x00\n        /* \"#utility.yul\":2343:2345   */\n      0x20\n        /* \"#utility.yul\":2332:2341   */\n      dup3\n        /* \"#utility.yul\":2328:2346   */\n      add\n        /* \"#utility.yul\":2320:2346   */\n      swap1\n      pop\n        /* \"#utility.yul\":2356:2449   */\n      tag_290\n        /* \"#utility.yul\":2446:2447   */\n      0x00\n        /* \"#utility.yul\":2435:2444   */\n      dup4\n        /* \"#utility.yul\":2431:2448   */\n      add\n        /* \"#utility.yul\":2422:2428   */\n      dup5\n        /* \"#utility.yul\":2356:2449   */\n      tag_220\n      jump\t// in\n    tag_290:\n        /* \"#utility.yul\":2190:2456   */\n      swap3\n      swap2\n      pop\n      pop\n      jump\t// out\n        /* \"#utility.yul\":2462:2579   */\n    tag_221:\n        /* \"#utility.yul\":2571:2572   */\n      0x00\n        /* \"#utility.yul\":2568:2569   */\n      dup1\n        /* \"#utility.yul\":2561:2573   */\n      revert\n        /* \"#utility.yul\":2585:2702   */\n    tag_222:\n        /* \"#utility.yul\":2694:2695   */\n      0x00\n        /* \"#utility.yul\":2691:2692   */\n      dup1\n        /* \"#utility.yul\":2684:2696   */\n      revert\n        /* \"#utility.yul\":2708:2825   */\n    tag_223:\n        /* \"#utility.yul\":2817:2818   */\n      0x00\n        /* \"#utility.yul\":2814:2815   */\n      dup1\n        /* \"#utility.yul\":2807:2819   */\n      revert\n        /* \"#utility.yul\":2848:3416   */\n    tag_224:\n        /* \"#utility.yul\":2921:2929   */\n      0x00\n        /* \"#utility.yul\":2931:2937   */\n      dup1\n        /* \"#utility.yul\":2981:2984   */\n      dup4\n        /* \"#utility.yul\":2974:2978   */\n      0x1f\n        /* \"#utility.yul\":2966:2972   */\n      dup5\n        /* \"#utility.yul\":2962:2979   */\n      add\n        /* \"#utility.yul\":2958:2985   */\n      slt\n        /* \"#utility.yul\":2948:3070   */\n      tag_295\n      jumpi\n        /* \"#utility.yul\":2989:3068   */\n      tag_296\n      tag_221\n      jump\t// in\n    tag_296:\n        /* \"#utility.yul\":2948:3070   */\n    tag_295:\n        /* \"#utility.yul\":3102:3108   */\n      dup3\n        /* \"#utility.yul\":3089:3109   */\n      calldataload\n        /* \"#utility.yul\":3079:3109   */\n      swap1\n      pop\n        /* \"#utility.yul\":3132:3150   */\n      0xffffffffffffffff\n        /* \"#utility.yul\":3124:3130   */\n      dup2\n        /* \"#utility.yul\":3121:3151   */\n      gt\n        /* \"#utility.yul\":3118:3235   */\n      iszero\n      tag_297\n      jumpi\n        /* \"#utility.yul\":3154:3233   */\n      tag_298\n      tag_222\n      jump\t// in\n    tag_298:\n        /* \"#utility.yul\":3118:3235   */\n    tag_297:\n        /* \"#utility.yul\":3268:3272   */\n      0x20\n        /* \"#utility.yul\":3260:3266   */\n      dup4\n        /* \"#utility.yul\":3256:3273   */\n      add\n        /* \"#utility.yul\":3244:3273   */\n      swap2\n      pop\n        /* \"#utility.yul\":3322:3325   */\n      dup4\n        /* \"#utility.yul\":3314:3318   */\n      0x20\n        /* \"#utility.yul\":3306:3312   */\n      dup3\n        /* \"#utility.yul\":3302:3319   */\n      mul\n        /* \"#utility.yul\":3292:3300   */\n      dup4\n        /* \"#utility.yul\":3288:3320   */\n      add\n        /* \"#utility.yul\":3285:3326   */\n      gt\n        /* \"#utility.yul\":3282:3410   */\n      iszero\n      tag_299\n      jumpi\n        /* \"#utility.yul\":3329:3408   */\n      tag_300\n      tag_223\n      jump\t// in\n    tag_300:\n        /* \"#utility.yul\":3282:3410   */\n    tag_299:\n        /* \"#utility.yul\":2848:3416   */\n      swap3\n      pop\n      swap3\n      swap1\n      pop\n      jump\t// out\n        /* \"#utility.yul\":3422:3981   */\n    tag_38:\n        /* \"#utility.yul\":3508:3514   */\n      0x00\n        /* \"#utility.yul\":3516:3522   */\n      dup1\n        /* \"#utility.yul\":3565:3567   */\n      0x20\n        /* \"#utility.yul\":3553:3562   */\n      dup4\n        /* \"#utility.yul\":3544:3551   */\n      dup6\n        /* \"#utility.yul\":3540:3563   */\n      sub\n        /* \"#utility.yul\":3536:3568   */\n      slt\n        /* \"#utility.yul\":3533:3652   */\n      iszero\n      tag_302\n      jumpi\n        /* \"#utility.yul\":3571:3650   */\n      tag_303\n      tag_209\n      jump\t// in\n    tag_303:\n        /* \"#utility.yul\":3533:3652   */\n    tag_302:\n        /* \"#utility.yul\":3719:3720   */\n      0x00\n        /* \"#utility.yul\":3708:3717   */\n      dup4\n        /* \"#utility.yul\":3704:3721   */\n      add\n        /* \"#utility.yul\":3691:3722   */\n      calldataload\n        /* \"#utility.yul\":3749:3767   */\n      0xffffffffffffffff\n        /* \"#utility.yul\":3741:3747   */\n      dup2\n        /* \"#utility.yul\":3738:3768   */\n      gt\n        /* \"#utility.yul\":3735:3852   */\n      iszero\n      tag_304\n      jumpi\n        /* \"#utility.yul\":3771:3850   */\n      tag_305\n      tag_210\n      jump\t// in\n    tag_305:\n        /* \"#utility.yul\":3735:3852   */\n    tag_304:\n        /* \"#utility.yul\":3884:3964   */\n      tag_306\n        /* \"#utility.yul\":3956:3963   */\n      dup6\n        /* \"#utility.yul\":3947:3953   */\n      dup3\n        /* \"#utility.yul\":3936:3945   */\n      dup7\n        /* \"#utility.yul\":3932:3954   */\n      add\n        /* \"#utility.yul\":3884:3964   */\n      tag_224\n      jump\t// in\n    tag_306:\n        /* \"#utility.yul\":3866:3964   */\n      swap3\n      pop\n      swap3\n      pop\n        /* \"#utility.yul\":3662:3974   */\n      pop\n        /* \"#utility.yul\":3422:3981   */\n      swap3\n      pop\n      swap3\n      swap1\n      pop\n      jump\t// out\n        /* \"#utility.yul\":3987:4128   */\n    tag_225:\n        /* \"#utility.yul\":4052:4061   */\n      0x00\n        /* \"#utility.yul\":4085:4122   */\n      tag_308\n        /* \"#utility.yul\":4116:4121   */\n      dup3\n        /* \"#utility.yul\":4085:4122   */\n      tag_218\n      jump\t// in\n    tag_308:\n        /* \"#utility.yul\":4072:4122   */\n      swap1\n      pop\n        /* \"#utility.yul\":3987:4128   */\n      swap2\n      swap1\n      pop\n      jump\t// out\n        /* \"#utility.yul\":4134:4295   */\n    tag_226:\n        /* \"#utility.yul\":4236:4288   */\n      tag_310\n        /* \"#utility.yul\":4282:4287   */\n      dup2\n        /* \"#utility.yul\":4236:4288   */\n      tag_225\n      jump\t// in\n    tag_310:\n        /* \"#utility.yul\":4231:4234   */\n      dup3\n        /* \"#utility.yul\":4224:4289   */\n      mstore\n        /* \"#utility.yul\":4134:4295   */\n      pop\n      pop\n      jump\t// out\n        /* \"#utility.yul\":4301:4553   */\n    tag_44:\n        /* \"#utility.yul\":4409:4413   */\n      0x00\n        /* \"#utility.yul\":4447:4449   */\n      0x20\n        /* \"#utility.yul\":4436:4445   */\n      dup3\n        /* \"#utility.yul\":4432:4450   */\n      add\n        /* \"#utility.yul\":4424:4450   */\n      swap1\n      pop\n        /* \"#utility.yul\":4460:4546   */\n      tag_312\n        /* \"#utility.yul\":4543:4544   */\n      0x00\n        /* \"#utility.yul\":4532:4541   */\n      dup4\n        /* \"#utility.yul\":4528:4545   */\n      add\n        /* \"#utility.yul\":4519:4525   */\n      dup5\n        /* \"#utility.yul\":4460:4546   */\n      tag_226\n      jump\t// in\n    tag_312:\n        /* \"#utility.yul\":4301:4553   */\n      swap3\n      swap2\n      pop\n      pop\n      jump\t// out\n        /* \"#utility.yul\":4559:4655   */\n    tag_227:\n        /* \"#utility.yul\":4596:4603   */\n      0x00\n        /* \"#utility.yul\":4625:4649   */\n      tag_314\n        /* \"#utility.yul\":4643:4648   */\n      dup3\n        /* \"#utility.yul\":4625:4649   */\n      tag_215\n      jump\t// in\n    tag_314:\n        /* \"#utility.yul\":4614:4649   */\n      swap1\n      pop\n        /* \"#utility.yul\":4559:4655   */\n      swap2\n      swap1\n      pop\n      jump\t// out\n        /* \"#utility.yul\":4661:4779   */\n    tag_228:\n        /* \"#utility.yul\":4748:4772   */\n      tag_316\n        /* \"#utility.yul\":4766:4771   */\n      dup2\n        /* \"#utility.yul\":4748:4772   */\n      tag_227\n      jump\t// in\n    tag_316:\n        /* \"#utility.yul\":4743:4746   */\n      dup3\n        /* \"#utility.yul\":4736:4773   */\n      mstore\n        /* \"#utility.yul\":4661:4779   */\n      pop\n      pop\n      jump\t// out\n        /* \"#utility.yul\":4785:5007   */\n    tag_56:\n        /* \"#utility.yul\":4878:4882   */\n      0x00\n        /* \"#utility.yul\":4916:4918   */\n      0x20\n        /* \"#utility.yul\":4905:4914   */\n      dup3\n        /* \"#utility.yul\":4901:4919   */\n      add\n        /* \"#utility.yul\":4893:4919   */\n      swap1\n      pop\n        /* \"#utility.yul\":4929:5000   */\n      tag_318\n        /* \"#utility.yul\":4997:4998   */\n      0x00\n        /* \"#utility.yul\":4986:4995   */\n      dup4\n        /* \"#utility.yul\":4982:4999   */\n      add\n        /* \"#utility.yul\":4973:4979   */\n      dup5\n        /* \"#utility.yul\":4929:5000   */\n      tag_228\n      jump\t// in\n    tag_318:\n        /* \"#utility.yul\":4785:5007   */\n      swap3\n      swap2\n      pop\n      pop\n      jump\t// out\n        /* \"#utility.yul\":5013:5135   */\n    tag_229:\n        /* \"#utility.yul\":5086:5110   */\n      tag_320\n        /* \"#utility.yul\":5104:5109   */\n      dup2\n        /* \"#utility.yul\":5086:5110   */\n      tag_227\n      jump\t// in\n    tag_320:\n        /* \"#utility.yul\":5079:5084   */\n      dup2\n        /* \"#utility.yul\":5076:5111   */\n      eq\n        /* \"#utility.yul\":5066:5129   */\n      tag_321\n      jumpi\n        /* \"#utility.yul\":5125:5126   */\n      0x00\n        /* \"#utility.yul\":5122:5123   */\n      dup1\n        /* \"#utility.yul\":5115:5127   */\n      revert\n        /* \"#utility.yul\":5066:5129   */\n    tag_321:\n        /* \"#utility.yul\":5013:5135   */\n      pop\n      jump\t// out\n        /* \"#utility.yul\":5141:5280   */\n    tag_230:\n        /* \"#utility.yul\":5187:5192   */\n      0x00\n        /* \"#utility.yul\":5225:5231   */\n      dup2\n        /* \"#utility.yul\":5212:5232   */\n      calldataload\n        /* \"#utility.yul\":5203:5232   */\n      swap1\n      pop\n        /* \"#utility.yul\":5241:5274   */\n      tag_323\n        /* \"#utility.yul\":5268:5273   */\n      dup2\n        /* \"#utility.yul\":5241:5274   */\n      tag_229\n      jump\t// in\n    tag_323:\n        /* \"#utility.yul\":5141:5280   */\n      swap3\n      swap2\n      pop\n      pop\n      jump\t// out\n        /* \"#utility.yul\":5286:5615   */\n    tag_62:\n        /* \"#utility.yul\":5345:5351   */\n      0x00\n        /* \"#utility.yul\":5394:5396   */\n      0x20\n        /* \"#utility.yul\":5382:5391   */\n      dup3\n        /* \"#utility.yul\":5373:5380   */\n      dup5\n        /* \"#utility.yul\":5369:5392   */\n      sub\n        /* \"#utility.yul\":5365:5397   */\n      slt\n        /* \"#utility.yul\":5362:5481   */\n      iszero\n      tag_325\n      jumpi\n        /* \"#utility.yul\":5400:5479   */\n      tag_326\n      tag_209\n      jump\t// in\n    tag_326:\n        /* \"#utility.yul\":5362:5481   */\n    tag_325:\n        /* \"#utility.yul\":5520:5521   */\n      0x00\n        /* \"#utility.yul\":5545:5598   */\n      tag_327\n        /* \"#utility.yul\":5590:5597   */\n      dup5\n        /* \"#utility.yul\":5581:5587   */\n      dup3\n        /* \"#utility.yul\":5570:5579   */\n      dup6\n        /* \"#utility.yul\":5566:5588   */\n      add\n        /* \"#utility.yul\":5545:5598   */\n      tag_230\n      jump\t// in\n    tag_327:\n        /* \"#utility.yul\":5535:5598   */\n      swap2\n      pop\n        /* \"#utility.yul\":5491:5608   */\n      pop\n        /* \"#utility.yul\":5286:5615   */\n      swap3\n      swap2\n      pop\n      pop\n      jump\t// out\n        /* \"#utility.yul\":5621:5790   */\n    tag_231:\n        /* \"#utility.yul\":5705:5716   */\n      0x00\n        /* \"#utility.yul\":5739:5745   */\n      dup3\n        /* \"#utility.yul\":5734:5737   */\n      dup3\n        /* \"#utility.yul\":5727:5746   */\n      mstore\n        /* \"#utility.yul\":5779:5783   */\n      0x20\n        /* \"#utility.yul\":5774:5777   */\n      dup3\n        /* \"#utility.yul\":5770:5784   */\n      add\n        /* \"#utility.yul\":5755:5784   */\n      swap1\n      pop\n        /* \"#utility.yul\":5621:5790   */\n      swap3\n      swap2\n      pop\n      pop\n      jump\t// out\n        /* \"#utility.yul\":5796:5966   */\n    tag_232:\n        /* \"#utility.yul\":5936:5958   */\n      0x436f6e7472616374206e6f7420616c6c6f776564000000000000000000000000\n        /* \"#utility.yul\":5932:5933   */\n      0x00\n        /* \"#utility.yul\":5924:5930   */\n      dup3\n        /* \"#utility.yul\":5920:5934   */\n      add\n        /* \"#utility.yul\":5913:5959   */\n      mstore\n        /* \"#utility.yul\":5796:5966   */\n      pop\n      jump\t// out\n        /* \"#utility.yul\":5972:6338   */\n    tag_233:\n        /* \"#utility.yul\":6114:6117   */\n      0x00\n        /* \"#utility.yul\":6135:6202   */\n      tag_331\n        /* \"#utility.yul\":6199:6201   */\n      0x14\n        /* \"#utility.yul\":6194:6197   */\n      dup4\n        /* \"#utility.yul\":6135:6202   */\n      tag_231\n      jump\t// in\n    tag_331:\n        /* \"#utility.yul\":6128:6202   */\n      swap2\n      pop\n        /* \"#utility.yul\":6211:6304   */\n      tag_332\n        /* \"#utility.yul\":6300:6303   */\n      dup3\n        /* \"#utility.yul\":6211:6304   */\n      tag_232\n      jump\t// in\n    tag_332:\n        /* \"#utility.yul\":6329:6331   */\n      0x20\n        /* \"#utility.yul\":6324:6327   */\n      dup3\n        /* \"#utility.yul\":6320:6332   */\n      add\n        /* \"#utility.yul\":6313:6332   */\n      swap1\n      pop\n        /* \"#utility.yul\":5972:6338   */\n      swap2\n      swap1\n      pop\n      jump\t// out\n        /* \"#utility.yul\":6344:6763   */\n    tag_77:\n        /* \"#utility.yul\":6510:6514   */\n      0x00\n        /* \"#utility.yul\":6548:6550   */\n      0x20\n        /* \"#utility.yul\":6537:6546   */\n      dup3\n        /* \"#utility.yul\":6533:6551   */\n      add\n        /* \"#utility.yul\":6525:6551   */\n      swap1\n      pop\n        /* \"#utility.yul\":6597:6606   */\n      dup2\n        /* \"#utility.yul\":6591:6595   */\n      dup2\n        /* \"#utility.yul\":6587:6607   */\n      sub\n        /* \"#utility.yul\":6583:6584   */\n      0x00\n        /* \"#utility.yul\":6572:6581   */\n      dup4\n        /* \"#utility.yul\":6568:6585   */\n      add\n        /* \"#utility.yul\":6561:6608   */\n      mstore\n        /* \"#utility.yul\":6625:6756   */\n      tag_334\n        /* \"#utility.yul\":6751:6755   */\n      dup2\n        /* \"#utility.yul\":6625:6756   */\n      tag_233\n      jump\t// in\n    tag_334:\n        /* \"#utility.yul\":6617:6756   */\n      swap1\n      pop\n        /* \"#utility.yul\":6344:6763   */\n      swap2\n      swap1\n      pop\n      jump\t// out\n        /* \"#utility.yul\":6769:6945   */\n    tag_234:\n        /* \"#utility.yul\":6909:6937   */\n      0x50726f787920636f6e7472616374206e6f7420616c6c6f776564000000000000\n        /* \"#utility.yul\":6905:6906   */\n      0x00\n        /* \"#utility.yul\":6897:6903   */\n      dup3\n        /* \"#utility.yul\":6893:6907   */\n      add\n        /* \"#utility.yul\":6886:6938   */\n      mstore\n        /* \"#utility.yul\":6769:6945   */\n      pop\n      jump\t// out\n        /* \"#utility.yul\":6951:7317   */\n    tag_235:\n        /* \"#utility.yul\":7093:7096   */\n      0x00\n        /* \"#utility.yul\":7114:7181   */\n      tag_337\n        /* \"#utility.yul\":7178:7180   */\n      0x1a\n        /* \"#utility.yul\":7173:7176   */\n      dup4\n        /* \"#utility.yul\":7114:7181   */\n      tag_231\n      jump\t// in\n    tag_337:\n        /* \"#utility.yul\":7107:7181   */\n      swap2\n      pop\n        /* \"#utility.yul\":7190:7283   */\n      tag_338\n        /* \"#utility.yul\":7279:7282   */\n      dup3\n        /* \"#utility.yul\":7190:7283   */\n      tag_234\n      jump\t// in\n    tag_338:\n        /* \"#utility.yul\":7308:7310   */\n      0x20\n        /* \"#utility.yul\":7303:7306   */\n      dup3\n        /* \"#utility.yul\":7299:7311   */\n      add\n        /* \"#utility.yul\":7292:7311   */\n      swap1\n      pop\n        /* \"#utility.yul\":6951:7317   */\n      swap2\n      swap1\n      pop\n      jump\t// out\n        /* \"#utility.yul\":7323:7742   */\n    tag_80:\n        /* \"#utility.yul\":7489:7493   */\n      0x00\n        /* \"#utility.yul\":7527:7529   */\n      0x20\n        /* \"#utility.yul\":7516:7525   */\n      dup3\n        /* \"#utility.yul\":7512:7530   */\n      add\n        /* \"#utility.yul\":7504:7530   */\n      swap1\n      pop\n        /* \"#utility.yul\":7576:7585   */\n      dup2\n        /* \"#utility.yul\":7570:7574   */\n      dup2\n        /* \"#utility.yul\":7566:7586   */\n      sub\n        /* \"#utility.yul\":7562:7563   */\n      0x00\n        /* \"#utility.yul\":7551:7560   */\n      dup4\n        /* \"#utility.yul\":7547:7564   */\n      add\n        /* \"#utility.yul\":7540:7587   */\n      mstore\n        /* \"#utility.yul\":7604:7735   */\n      tag_340\n        /* \"#utility.yul\":7730:7734   */\n      dup2\n        /* \"#utility.yul\":7604:7735   */\n      tag_235\n      jump\t// in\n    tag_340:\n        /* \"#utility.yul\":7596:7735   */\n      swap1\n      pop\n        /* \"#utility.yul\":7323:7742   */\n      swap2\n      swap1\n      pop\n      jump\t// out\n        /* \"#utility.yul\":7748:7907   */\n    tag_236:\n        /* \"#utility.yul\":7888:7899   */\n      0x4e6f20746f6b656e730000000000000000000000000000000000000000000000\n        /* \"#utility.yul\":7884:7885   */\n      0x00\n        /* \"#utility.yul\":7876:7882   */\n      dup3\n        /* \"#utility.yul\":7872:7886   */\n      add\n        /* \"#utility.yul\":7865:7900   */\n      mstore\n        /* \"#utility.yul\":7748:7907   */\n      pop\n      jump\t// out\n        /* \"#utility.yul\":7913:8278   */\n    tag_237:\n        /* \"#utility.yul\":8055:8058   */\n      0x00\n        /* \"#utility.yul\":8076:8142   */\n      tag_343\n        /* \"#utility.yul\":8140:8141   */\n      0x09\n        /* \"#utility.yul\":8135:8138   */\n      dup4\n        /* \"#utility.yul\":8076:8142   */\n      tag_231\n      jump\t// in\n    tag_343:\n        /* \"#utility.yul\":8069:8142   */\n      swap2\n      pop\n        /* \"#utility.yul\":8151:8244   */\n      tag_344\n        /* \"#utility.yul\":8240:8243   */\n      dup3\n        /* \"#utility.yul\":8151:8244   */\n      tag_236\n      jump\t// in\n    tag_344:\n        /* \"#utility.yul\":8269:8271   */\n      0x20\n        /* \"#utility.yul\":8264:8267   */\n      dup3\n        /* \"#utility.yul\":8260:8272   */\n      add\n        /* \"#utility.yul\":8253:8272   */\n      swap1\n      pop\n        /* \"#utility.yul\":7913:8278   */\n      swap2\n      swap1\n      pop\n      jump\t// out\n        /* \"#utility.yul\":8284:8703   */\n    tag_84:\n        /* \"#utility.yul\":8450:8454   */\n      0x00\n        /* \"#utility.yul\":8488:8490   */\n      0x20\n        /* \"#utility.yul\":8477:8486   */\n      dup3\n        /* \"#utility.yul\":8473:8491   */\n      add\n        /* \"#utility.yul\":8465:8491   */\n      swap1\n      pop\n        /* \"#utility.yul\":8537:8546   */\n      dup2\n        /* \"#utility.yul\":8531:8535   */\n      dup2\n        /* \"#utility.yul\":8527:8547   */\n      sub\n        /* \"#utility.yul\":8523:8524   */\n      0x00\n        /* \"#utility.yul\":8512:8521   */\n      dup4\n        /* \"#utility.yul\":8508:8525   */\n      add\n        /* \"#utility.yul\":8501:8548   */\n      mstore\n        /* \"#utility.yul\":8565:8696   */\n      tag_346\n        /* \"#utility.yul\":8691:8695   */\n      dup2\n        /* \"#utility.yul\":8565:8696   */\n      tag_237\n      jump\t// in\n    tag_346:\n        /* \"#utility.yul\":8557:8696   */\n      swap1\n      pop\n        /* \"#utility.yul\":8284:8703   */\n      swap2\n      swap1\n      pop\n      jump\t// out\n        /* \"#utility.yul\":8709:8889   */\n    tag_90:\n        /* \"#utility.yul\":8757:8834   */\n      0x4e487b7100000000000000000000000000000000000000000000000000000000\n        /* \"#utility.yul\":8754:8755   */\n      0x00\n        /* \"#utility.yul\":8747:8835   */\n      mstore\n        /* \"#utility.yul\":8854:8858   */\n      0x32\n        /* \"#utility.yul\":8851:8852   */\n      0x04\n        /* \"#utility.yul\":8844:8859   */\n      mstore\n        /* \"#utility.yul\":8878:8882   */\n      0x24\n        /* \"#utility.yul\":8875:8876   */\n      0x00\n        /* \"#utility.yul\":8868:8883   */\n      revert\n        /* \"#utility.yul\":8895:9062   */\n    tag_238:\n        /* \"#utility.yul\":9035:9054   */\n      0x4e6f74206120746f6b656e206f776e6572000000000000000000000000000000\n        /* \"#utility.yul\":9031:9032   */\n      0x00\n        /* \"#utility.yul\":9023:9029   */\n      dup3\n        /* \"#utility.yul\":9019:9033   */\n      add\n        /* \"#utility.yul\":9012:9055   */\n      mstore\n        /* \"#utility.yul\":8895:9062   */\n      pop\n      jump\t// out\n        /* \"#utility.yul\":9068:9434   */\n    tag_239:\n        /* \"#utility.yul\":9210:9213   */\n      0x00\n        /* \"#utility.yul\":9231:9298   */\n      tag_350\n        /* \"#utility.yul\":9295:9297   */\n      0x11\n        /* \"#utility.yul\":9290:9293   */\n      dup4\n        /* \"#utility.yul\":9231:9298   */\n      tag_231\n      jump\t// in\n    tag_350:\n        /* \"#utility.yul\":9224:9298   */\n      swap2\n      pop\n        /* \"#utility.yul\":9307:9400   */\n      tag_351\n        /* \"#utility.yul\":9396:9399   */\n      dup3\n        /* \"#utility.yul\":9307:9400   */\n      tag_238\n      jump\t// in\n    tag_351:\n        /* \"#utility.yul\":9425:9427   */\n      0x20\n        /* \"#utility.yul\":9420:9423   */\n      dup3\n        /* \"#utility.yul\":9416:9428   */\n      add\n        /* \"#utility.yul\":9409:9428   */\n      swap1\n      pop\n        /* \"#utility.yul\":9068:9434   */\n      swap2\n      swap1\n      pop\n      jump\t// out\n        /* \"#utility.yul\":9440:9859   */\n    tag_93:\n        /* \"#utility.yul\":9606:9610   */\n      0x00\n        /* \"#utility.yul\":9644:9646   */\n      0x20\n        /* \"#utility.yul\":9633:9642   */\n      dup3\n        /* \"#utility.yul\":9629:9647   */\n      add\n        /* \"#utility.yul\":9621:9647   */\n      swap1\n      pop\n        /* \"#utility.yul\":9693:9702   */\n      dup2\n        /* \"#utility.yul\":9687:9691   */\n      dup2\n        /* \"#utility.yul\":9683:9703   */\n      sub\n        /* \"#utility.yul\":9679:9680   */\n      0x00\n        /* \"#utility.yul\":9668:9677   */\n      dup4\n        /* \"#utility.yul\":9664:9681   */\n      add\n        /* \"#utility.yul\":9657:9704   */\n      mstore\n        /* \"#utility.yul\":9721:9852   */\n      tag_353\n        /* \"#utility.yul\":9847:9851   */\n      dup2\n        /* \"#utility.yul\":9721:9852   */\n      tag_239\n      jump\t// in\n    tag_353:\n        /* \"#utility.yul\":9713:9852   */\n      swap1\n      pop\n        /* \"#utility.yul\":9440:9859   */\n      swap2\n      swap1\n      pop\n      jump\t// out\n        /* \"#utility.yul\":9865:10045   */\n    tag_240:\n        /* \"#utility.yul\":9913:9990   */\n      0x4e487b7100000000000000000000000000000000000000000000000000000000\n        /* \"#utility.yul\":9910:9911   */\n      0x00\n        /* \"#utility.yul\":9903:9991   */\n      mstore\n        /* \"#utility.yul\":10010:10014   */\n      0x11\n        /* \"#utility.yul\":10007:10008   */\n      0x04\n        /* \"#utility.yul\":10000:10015   */\n      mstore\n        /* \"#utility.yul\":10034:10038   */\n      0x24\n        /* \"#utility.yul\":10031:10032   */\n      0x00\n        /* \"#utility.yul\":10024:10039   */\n      revert\n        /* \"#utility.yul\":10051:10242   */\n    tag_95:\n        /* \"#utility.yul\":10091:10094   */\n      0x00\n        /* \"#utility.yul\":10110:10130   */\n      tag_356\n        /* \"#utility.yul\":10128:10129   */\n      dup3\n        /* \"#utility.yul\":10110:10130   */\n      tag_211\n      jump\t// in\n    tag_356:\n        /* \"#utility.yul\":10105:10130   */\n      swap2\n      pop\n        /* \"#utility.yul\":10144:10164   */\n      tag_357\n        /* \"#utility.yul\":10162:10163   */\n      dup4\n        /* \"#utility.yul\":10144:10164   */\n      tag_211\n      jump\t// in\n    tag_357:\n        /* \"#utility.yul\":10139:10164   */\n      swap3\n      pop\n        /* \"#utility.yul\":10187:10188   */\n      dup3\n        /* \"#utility.yul\":10184:10185   */\n      dup3\n        /* \"#utility.yul\":10180:10189   */\n      add\n        /* \"#utility.yul\":10173:10189   */\n      swap1\n      pop\n        /* \"#utility.yul\":10208:10211   */\n      dup1\n        /* \"#utility.yul\":10205:10206   */\n      dup3\n        /* \"#utility.yul\":10202:10212   */\n      gt\n        /* \"#utility.yul\":10199:10235   */\n      iszero\n      tag_358\n      jumpi\n        /* \"#utility.yul\":10215:10233   */\n      tag_359\n      tag_240\n      jump\t// in\n    tag_359:\n        /* \"#utility.yul\":10199:10235   */\n    tag_358:\n        /* \"#utility.yul\":10051:10242   */\n      swap3\n      swap2\n      pop\n      pop\n      jump\t// out\n        /* \"#utility.yul\":10248:10419   */\n    tag_241:\n        /* \"#utility.yul\":10388:10411   */\n      0x4e6f742061626c6520746f20636c61696d207965740000000000000000000000\n        /* \"#utility.yul\":10384:10385   */\n      0x00\n        /* \"#utility.yul\":10376:10382   */\n      dup3\n        /* \"#utility.yul\":10372:10386   */\n      add\n        /* \"#utility.yul\":10365:10412   */\n      mstore\n        /* \"#utility.yul\":10248:10419   */\n      pop\n      jump\t// out\n        /* \"#utility.yul\":10425:10791   */\n    tag_242:\n        /* \"#utility.yul\":10567:10570   */\n      0x00\n        /* \"#utility.yul\":10588:10655   */\n      tag_362\n        /* \"#utility.yul\":10652:10654   */\n      0x15\n        /* \"#utility.yul\":10647:10650   */\n      dup4\n        /* \"#utility.yul\":10588:10655   */\n      tag_231\n      jump\t// in\n    tag_362:\n        /* \"#utility.yul\":10581:10655   */\n      swap2\n      pop\n        /* \"#utility.yul\":10664:10757   */\n      tag_363\n        /* \"#utility.yul\":10753:10756   */\n      dup3\n        /* \"#utility.yul\":10664:10757   */\n      tag_241\n      jump\t// in\n    tag_363:\n        /* \"#utility.yul\":10782:10784   */\n      0x20\n        /* \"#utility.yul\":10777:10780   */\n      dup3\n        /* \"#utility.yul\":10773:10785   */\n      add\n        /* \"#utility.yul\":10766:10785   */\n      swap1\n      pop\n        /* \"#utility.yul\":10425:10791   */\n      swap2\n      swap1\n      pop\n      jump\t// out\n        /* \"#utility.yul\":10797:11216   */\n    tag_98:\n        /* \"#utility.yul\":10963:10967   */\n      0x00\n        /* \"#utility.yul\":11001:11003   */\n      0x20\n        /* \"#utility.yul\":10990:10999   */\n      dup3\n        /* \"#utility.yul\":10986:11004   */\n      add\n        /* \"#utility.yul\":10978:11004   */\n      swap1\n      pop\n        /* \"#utility.yul\":11050:11059   */\n      dup2\n        /* \"#utility.yul\":11044:11048   */\n      dup2\n        /* \"#utility.yul\":11040:11060   */\n      sub\n        /* \"#utility.yul\":11036:11037   */\n      0x00\n        /* \"#utility.yul\":11025:11034   */\n      dup4\n        /* \"#utility.yul\":11021:11038   */\n      add\n        /* \"#utility.yul\":11014:11061   */\n      mstore\n        /* \"#utility.yul\":11078:11209   */\n      tag_365\n        /* \"#utility.yul\":11204:11208   */\n      dup2\n        /* \"#utility.yul\":11078:11209   */\n      tag_242\n      jump\t// in\n    tag_365:\n        /* \"#utility.yul\":11070:11209   */\n      swap1\n      pop\n        /* \"#utility.yul\":10797:11216   */\n      swap2\n      swap1\n      pop\n      jump\t// out\n        /* \"#utility.yul\":11222:11388   */\n    tag_243:\n        /* \"#utility.yul\":11362:11380   */\n      0x416c726561647920756e6c6f636b656400000000000000000000000000000000\n        /* \"#utility.yul\":11358:11359   */\n      0x00\n        /* \"#utility.yul\":11350:11356   */\n      dup3\n        /* \"#utility.yul\":11346:11360   */\n      add\n        /* \"#utility.yul\":11339:11381   */\n      mstore\n        /* \"#utility.yul\":11222:11388   */\n      pop\n      jump\t// out\n        /* \"#utility.yul\":11394:11760   */\n    tag_244:\n        /* \"#utility.yul\":11536:11539   */\n      0x00\n        /* \"#utility.yul\":11557:11624   */\n      tag_368\n        /* \"#utility.yul\":11621:11623   */\n      0x10\n        /* \"#utility.yul\":11616:11619   */\n      dup4\n        /* \"#utility.yul\":11557:11624   */\n      tag_231\n      jump\t// in\n    tag_368:\n        /* \"#utility.yul\":11550:11624   */\n      swap2\n      pop\n        /* \"#utility.yul\":11633:11726   */\n      tag_369\n        /* \"#utility.yul\":11722:11725   */\n      dup3\n        /* \"#utility.yul\":11633:11726   */\n      tag_243\n      jump\t// in\n    tag_369:\n        /* \"#utility.yul\":11751:11753   */\n      0x20\n        /* \"#utility.yul\":11746:11749   */\n      dup3\n        /* \"#utility.yul\":11742:11754   */\n      add\n        /* \"#utility.yul\":11735:11754   */\n      swap1\n      pop\n        /* \"#utility.yul\":11394:11760   */\n      swap2\n      swap1\n      pop\n      jump\t// out\n        /* \"#utility.yul\":11766:12185   */\n    tag_101:\n        /* \"#utility.yul\":11932:11936   */\n      0x00\n        /* \"#utility.yul\":11970:11972   */\n      0x20\n        /* \"#utility.yul\":11959:11968   */\n      dup3\n        /* \"#utility.yul\":11955:11973   */\n      add\n        /* \"#utility.yul\":11947:11973   */\n      swap1\n      pop\n        /* \"#utility.yul\":12019:12028   */\n      dup2\n        /* \"#utility.yul\":12013:12017   */\n      dup2\n        /* \"#utility.yul\":12009:12029   */\n      sub\n        /* \"#utility.yul\":12005:12006   */\n      0x00\n        /* \"#utility.yul\":11994:12003   */\n      dup4\n        /* \"#utility.yul\":11990:12007   */\n      add\n        /* \"#utility.yul\":11983:12030   */\n      mstore\n        /* \"#utility.yul\":12047:12178   */\n      tag_371\n        /* \"#utility.yul\":12173:12177   */\n      dup2\n        /* \"#utility.yul\":12047:12178   */\n      tag_244\n      jump\t// in\n    tag_371:\n        /* \"#utility.yul\":12039:12178   */\n      swap1\n      pop\n        /* \"#utility.yul\":11766:12185   */\n      swap2\n      swap1\n      pop\n      jump\t// out\n        /* \"#utility.yul\":12191:12385   */\n    tag_107:\n        /* \"#utility.yul\":12231:12235   */\n      0x00\n        /* \"#utility.yul\":12251:12271   */\n      tag_373\n        /* \"#utility.yul\":12269:12270   */\n      dup3\n        /* \"#utility.yul\":12251:12271   */\n      tag_211\n      jump\t// in\n    tag_373:\n        /* \"#utility.yul\":12246:12271   */\n      swap2\n      pop\n        /* \"#utility.yul\":12285:12305   */\n      tag_374\n        /* \"#utility.yul\":12303:12304   */\n      dup4\n        /* \"#utility.yul\":12285:12305   */\n      tag_211\n      jump\t// in\n    tag_374:\n        /* \"#utility.yul\":12280:12305   */\n      swap3\n      pop\n        /* \"#utility.yul\":12329:12330   */\n      dup3\n        /* \"#utility.yul\":12326:12327   */\n      dup3\n        /* \"#utility.yul\":12322:12331   */\n      sub\n        /* \"#utility.yul\":12314:12331   */\n      swap1\n      pop\n        /* \"#utility.yul\":12353:12354   */\n      dup2\n        /* \"#utility.yul\":12347:12351   */\n      dup2\n        /* \"#utility.yul\":12344:12355   */\n      gt\n        /* \"#utility.yul\":12341:12378   */\n      iszero\n      tag_375\n      jumpi\n        /* \"#utility.yul\":12358:12376   */\n      tag_376\n      tag_240\n      jump\t// in\n    tag_376:\n        /* \"#utility.yul\":12341:12378   */\n    tag_375:\n        /* \"#utility.yul\":12191:12385   */\n      swap3\n      swap2\n      pop\n      pop\n      jump\t// out\n        /* \"#utility.yul\":12391:12624   */\n    tag_112:\n        /* \"#utility.yul\":12430:12433   */\n      0x00\n        /* \"#utility.yul\":12453:12477   */\n      tag_378\n        /* \"#utility.yul\":12471:12476   */\n      dup3\n        /* \"#utility.yul\":12453:12477   */\n      tag_211\n      jump\t// in\n    tag_378:\n        /* \"#utility.yul\":12444:12477   */\n      swap2\n      pop\n        /* \"#utility.yul\":12499:12565   */\n      0xffffffffffffffffffffffffffffffffffffffffffffffffffffffffffffffff\n        /* \"#utility.yul\":12492:12497   */\n      dup3\n        /* \"#utility.yul\":12489:12566   */\n      sub\n        /* \"#utility.yul\":12486:12589   */\n      tag_379\n      jumpi\n        /* \"#utility.yul\":12569:12587   */\n      tag_380\n      tag_240\n      jump\t// in\n    tag_380:\n        /* \"#utility.yul\":12486:12589   */\n    tag_379:\n        /* \"#utility.yul\":12616:12617   */\n      0x01\n        /* \"#utility.yul\":12609:12614   */\n      dup3\n        /* \"#utility.yul\":12605:12618   */\n      add\n        /* \"#utility.yul\":12598:12618   */\n      swap1\n      pop\n        /* \"#utility.yul\":12391:12624   */\n      swap2\n      swap1\n      pop\n      jump\t// out\n        /* \"#utility.yul\":12630:12814   */\n    tag_245:\n        /* \"#utility.yul\":12729:12740   */\n      0x00\n        /* \"#utility.yul\":12763:12769   */\n      dup3\n        /* \"#utility.yul\":12758:12761   */\n      dup3\n        /* \"#utility.yul\":12751:12770   */\n      mstore\n        /* \"#utility.yul\":12803:12807   */\n      0x20\n        /* \"#utility.yul\":12798:12801   */\n      dup3\n        /* \"#utility.yul\":12794:12808   */\n      add\n        /* \"#utility.yul\":12779:12808   */\n      swap1\n      pop\n        /* \"#utility.yul\":12630:12814   */\n      swap3\n      swap2\n      pop\n      pop\n      jump\t// out\n        /* \"#utility.yul\":12820:12937   */\n    tag_246:\n        /* \"#utility.yul\":12929:12930   */\n      0x00\n        /* \"#utility.yul\":12926:12927   */\n      dup1\n        /* \"#utility.yul\":12919:12931   */\n      revert\n        /* \"#utility.yul\":12943:13041   */\n    tag_247:\n        /* \"#utility.yul\":13027:13033   */\n      dup3\n        /* \"#utility.yul\":13022:13025   */\n      dup2\n        /* \"#utility.yul\":13017:13020   */\n      dup4\n        /* \"#utility.yul\":13004:13034   */\n      calldatacopy\n        /* \"#utility.yul\":12943:13041   */\n      pop\n      pop\n      pop\n      jump\t// out\n        /* \"#utility.yul\":13077:13614   */\n    tag_248:\n        /* \"#utility.yul\":13205:13208   */\n      0x00\n        /* \"#utility.yul\":13226:13312   */\n      tag_385\n        /* \"#utility.yul\":13305:13311   */\n      dup4\n        /* \"#utility.yul\":13300:13303   */\n      dup6\n        /* \"#utility.yul\":13226:13312   */\n      tag_245\n      jump\t// in\n    tag_385:\n        /* \"#utility.yul\":13219:13312   */\n      swap4\n      pop\n        /* \"#utility.yul\":13336:13402   */\n      0x07ffffffffffffffffffffffffffffffffffffffffffffffffffffffffffffff\n        /* \"#utility.yul\":13328:13334   */\n      dup4\n        /* \"#utility.yul\":13325:13403   */\n      gt\n        /* \"#utility.yul\":13322:13487   */\n      iszero\n      tag_386\n      jumpi\n        /* \"#utility.yul\":13406:13485   */\n      tag_387\n      tag_246\n      jump\t// in\n    tag_387:\n        /* \"#utility.yul\":13322:13487   */\n    tag_386:\n        /* \"#utility.yul\":13518:13522   */\n      0x20\n        /* \"#utility.yul\":13510:13516   */\n      dup4\n        /* \"#utility.yul\":13506:13523   */\n      mul\n        /* \"#utility.yul\":13496:13523   */\n      swap3\n      pop\n        /* \"#utility.yul\":13533:13576   */\n      tag_388\n        /* \"#utility.yul\":13569:13575   */\n      dup4\n        /* \"#utility.yul\":13564:13567   */\n      dup6\n        /* \"#utility.yul\":13557:13562   */\n      dup5\n        /* \"#utility.yul\":13533:13576   */\n      tag_247\n      jump\t// in\n    tag_388:\n        /* \"#utility.yul\":13601:13607   */\n      dup3\n        /* \"#utility.yul\":13596:13599   */\n      dup5\n        /* \"#utility.yul\":13592:13608   */\n      add\n        /* \"#utility.yul\":13585:13608   */\n      swap1\n      pop\n        /* \"#utility.yul\":13077:13614   */\n      swap4\n      swap3\n      pop\n      pop\n      pop\n      jump\t// out\n        /* \"#utility.yul\":13620:14123   */\n    tag_114:\n        /* \"#utility.yul\":13801:13805   */\n      0x00\n        /* \"#utility.yul\":13839:13841   */\n      0x40\n        /* \"#utility.yul\":13828:13837   */\n      dup3\n        /* \"#utility.yul\":13824:13842   */\n      add\n        /* \"#utility.yul\":13816:13842   */\n      swap1\n      pop\n        /* \"#utility.yul\":13888:13897   */\n      dup2\n        /* \"#utility.yul\":13882:13886   */\n      dup2\n        /* \"#utility.yul\":13878:13898   */\n      sub\n        /* \"#utility.yul\":13874:13875   */\n      0x00\n        /* \"#utility.yul\":13863:13872   */\n      dup4\n        /* \"#utility.yul\":13859:13876   */\n      add\n        /* \"#utility.yul\":13852:13899   */\n      mstore\n        /* \"#utility.yul\":13916:14034   */\n      tag_390\n        /* \"#utility.yul\":14029:14033   */\n      dup2\n        /* \"#utility.yul\":14020:14026   */\n      dup6\n        /* \"#utility.yul\":14012:14018   */\n      dup8\n        /* \"#utility.yul\":13916:14034   */\n      tag_248\n      jump\t// in\n    tag_390:\n        /* \"#utility.yul\":13908:14034   */\n      swap1\n      pop\n        /* \"#utility.yul\":14044:14116   */\n      tag_391\n        /* \"#utility.yul\":14112:14114   */\n      0x20\n        /* \"#utility.yul\":14101:14110   */\n      dup4\n        /* \"#utility.yul\":14097:14115   */\n      add\n        /* \"#utility.yul\":14088:14094   */\n      dup5\n        /* \"#utility.yul\":14044:14116   */\n      tag_214\n      jump\t// in\n    tag_391:\n        /* \"#utility.yul\":13620:14123   */\n      swap5\n      swap4\n      pop\n      pop\n      pop\n      pop\n      jump\t// out\n        /* \"#utility.yul\":14129:14299   */\n    tag_249:\n        /* \"#utility.yul\":14269:14291   */\n      0x496e76616c6964206c6f636b20706572696f642e000000000000000000000000\n        /* \"#utility.yul\":14265:14266   */\n      0x00\n        /* \"#utility.yul\":14257:14263   */\n      dup3\n        /* \"#utility.yul\":14253:14267   */\n      add\n        /* \"#utility.yul\":14246:14292   */\n      mstore\n        /* \"#utility.yul\":14129:14299   */\n      pop\n      jump\t// out\n        /* \"#utility.yul\":14305:14671   */\n    tag_250:\n        /* \"#utility.yul\":14447:14450   */\n      0x00\n        /* \"#utility.yul\":14468:14535   */\n      tag_394\n        /* \"#utility.yul\":14532:14534   */\n      0x14\n        /* \"#utility.yul\":14527:14530   */\n      dup4\n        /* \"#utility.yul\":14468:14535   */\n      tag_231\n      jump\t// in\n    tag_394:\n        /* \"#utility.yul\":14461:14535   */\n      swap2\n      pop\n        /* \"#utility.yul\":14544:14637   */\n      tag_395\n        /* \"#utility.yul\":14633:14636   */\n      dup3\n        /* \"#utility.yul\":14544:14637   */\n      tag_249\n      jump\t// in\n    tag_395:\n        /* \"#utility.yul\":14662:14664   */\n      0x20\n        /* \"#utility.yul\":14657:14660   */\n      dup3\n        /* \"#utility.yul\":14653:14665   */\n      add\n        /* \"#utility.yul\":14646:14665   */\n      swap1\n      pop\n        /* \"#utility.yul\":14305:14671   */\n      swap2\n      swap1\n      pop\n      jump\t// out\n        /* \"#utility.yul\":14677:15096   */\n    tag_128:\n        /* \"#utility.yul\":14843:14847   */\n      0x00\n        /* \"#utility.yul\":14881:14883   */\n      0x20\n        /* \"#utility.yul\":14870:14879   */\n      dup3\n        /* \"#utility.yul\":14866:14884   */\n      add\n        /* \"#utility.yul\":14858:14884   */\n      swap1\n      pop\n        /* \"#utility.yul\":14930:14939   */\n      dup2\n        /* \"#utility.yul\":14924:14928   */\n      dup2\n        /* \"#utility.yul\":14920:14940   */\n      sub\n        /* \"#utility.yul\":14916:14917   */\n      0x00\n        /* \"#utility.yul\":14905:14914   */\n      dup4\n        /* \"#utility.yul\":14901:14918   */\n      add\n        /* \"#utility.yul\":14894:14941   */\n      mstore\n        /* \"#utility.yul\":14958:15089   */\n      tag_397\n        /* \"#utility.yul\":15084:15088   */\n      dup2\n        /* \"#utility.yul\":14958:15089   */\n      tag_250\n      jump\t// in\n    tag_397:\n        /* \"#utility.yul\":14950:15089   */\n      swap1\n      pop\n        /* \"#utility.yul\":14677:15096   */\n      swap2\n      swap1\n      pop\n      jump\t// out\n        /* \"#utility.yul\":15102:15283   */\n    tag_251:\n        /* \"#utility.yul\":15242:15275   */\n      0x5265656e7472616e637947756172643a207265656e7472616e742063616c6c00\n        /* \"#utility.yul\":15238:15239   */\n      0x00\n        /* \"#utility.yul\":15230:15236   */\n      dup3\n        /* \"#utility.yul\":15226:15240   */\n      add\n        /* \"#utility.yul\":15219:15276   */\n      mstore\n        /* \"#utility.yul\":15102:15283   */\n      pop\n      jump\t// out\n        /* \"#utility.yul\":15289:15655   */\n    tag_252:\n        /* \"#utility.yul\":15431:15434   */\n      0x00\n        /* \"#utility.yul\":15452:15519   */\n      tag_400\n        /* \"#utility.yul\":15516:15518   */\n      0x1f\n        /* \"#utility.yul\":15511:15514   */\n      dup4\n        /* \"#utility.yul\":15452:15519   */\n      tag_231\n      jump\t// in\n    tag_400:\n        /* \"#utility.yul\":15445:15519   */\n      swap2\n      pop\n        /* \"#utility.yul\":15528:15621   */\n      tag_401\n        /* \"#utility.yul\":15617:15620   */\n      dup3\n        /* \"#utility.yul\":15528:15621   */\n      tag_251\n      jump\t// in\n    tag_401:\n        /* \"#utility.yul\":15646:15648   */\n      0x20\n        /* \"#utility.yul\":15641:15644   */\n      dup3\n        /* \"#utility.yul\":15637:15649   */\n      add\n        /* \"#utility.yul\":15630:15649   */\n      swap1\n      pop\n        /* \"#utility.yul\":15289:15655   */\n      swap2\n      swap1\n      pop\n      jump\t// out\n        /* \"#utility.yul\":15661:16080   */\n    tag_139:\n        /* \"#utility.yul\":15827:15831   */\n      0x00\n        /* \"#utility.yul\":15865:15867   */\n      0x20\n        /* \"#utility.yul\":15854:15863   */\n      dup3\n        /* \"#utility.yul\":15850:15868   */\n      add\n        /* \"#utility.yul\":15842:15868   */\n      swap1\n      pop\n        /* \"#utility.yul\":15914:15923   */\n      dup2\n        /* \"#utility.yul\":15908:15912   */\n      dup2\n        /* \"#utility.yul\":15904:15924   */\n      sub\n        /* \"#utility.yul\":15900:15901   */\n      0x00\n        /* \"#utility.yul\":15889:15898   */\n      dup4\n        /* \"#utility.yul\":15885:15902   */\n      add\n        /* \"#utility.yul\":15878:15925   */\n      mstore\n        /* \"#utility.yul\":15942:16073   */\n      tag_403\n        /* \"#utility.yul\":16068:16072   */\n      dup2\n        /* \"#utility.yul\":15942:16073   */\n      tag_252\n      jump\t// in\n    tag_403:\n        /* \"#utility.yul\":15934:16073   */\n      swap1\n      pop\n        /* \"#utility.yul\":15661:16080   */\n      swap2\n      swap1\n      pop\n      jump\t// out\n        /* \"#utility.yul\":16086:16258   */\n    tag_253:\n        /* \"#utility.yul\":16226:16250   */\n      0x4e6f742061626c6520746f20756e6c6f636b2079657400000000000000000000\n        /* \"#utility.yul\":16222:16223   */\n      0x00\n        /* \"#utility.yul\":16214:16220   */\n      dup3\n        /* \"#utility.yul\":16210:16224   */\n      add\n        /* \"#utility.yul\":16203:16251   */\n      mstore\n        /* \"#utility.yul\":16086:16258   */\n      pop\n      jump\t// out\n        /* \"#utility.yul\":16264:16630   */\n    tag_254:\n        /* \"#utility.yul\":16406:16409   */\n      0x00\n        /* \"#utility.yul\":16427:16494   */\n      tag_406\n        /* \"#utility.yul\":16491:16493   */\n      0x16\n        /* \"#utility.yul\":16486:16489   */\n      dup4\n        /* \"#utility.yul\":16427:16494   */\n      tag_231\n      jump\t// in\n    tag_406:\n        /* \"#utility.yul\":16420:16494   */\n      swap2\n      pop\n        /* \"#utility.yul\":16503:16596   */\n      tag_407\n        /* \"#utility.yul\":16592:16595   */\n      dup3\n        /* \"#utility.yul\":16503:16596   */\n      tag_253\n      jump\t// in\n    tag_407:\n        /* \"#utility.yul\":16621:16623   */\n      0x20\n        /* \"#utility.yul\":16616:16619   */\n      dup3\n        /* \"#utility.yul\":16612:16624   */\n      add\n        /* \"#utility.yul\":16605:16624   */\n      swap1\n      pop\n        /* \"#utility.yul\":16264:16630   */\n      swap2\n      swap1\n      pop\n      jump\t// out\n        /* \"#utility.yul\":16636:17055   */\n    tag_153:\n        /* \"#utility.yul\":16802:16806   */\n      0x00\n        /* \"#utility.yul\":16840:16842   */\n      0x20\n        /* \"#utility.yul\":16829:16838   */\n      dup3\n        /* \"#utility.yul\":16825:16843   */\n      add\n        /* \"#utility.yul\":16817:16843   */\n      swap1\n      pop\n        /* \"#utility.yul\":16889:16898   */\n      dup2\n        /* \"#utility.yul\":16883:16887   */\n      dup2\n        /* \"#utility.yul\":16879:16899   */\n      sub\n        /* \"#utility.yul\":16875:16876   */\n      0x00\n        /* \"#utility.yul\":16864:16873   */\n      dup4\n        /* \"#utility.yul\":16860:16877   */\n      add\n        /* \"#utility.yul\":16853:16900   */\n      mstore\n        /* \"#utility.yul\":16917:17048   */\n      tag_409\n        /* \"#utility.yul\":17043:17047   */\n      dup2\n        /* \"#utility.yul\":16917:17048   */\n      tag_254\n      jump\t// in\n    tag_409:\n        /* \"#utility.yul\":16909:17048   */\n      swap1\n      pop\n        /* \"#utility.yul\":16636:17055   */\n      swap2\n      swap1\n      pop\n      jump\t// out\n        /* \"#utility.yul\":17061:17454   */\n    tag_166:\n        /* \"#utility.yul\":17214:17218   */\n      0x00\n        /* \"#utility.yul\":17252:17254   */\n      0x20\n        /* \"#utility.yul\":17241:17250   */\n      dup3\n        /* \"#utility.yul\":17237:17255   */\n      add\n        /* \"#utility.yul\":17229:17255   */\n      swap1\n      pop\n        /* \"#utility.yul\":17301:17310   */\n      dup2\n        /* \"#utility.yul\":17295:17299   */\n      dup2\n        /* \"#utility.yul\":17291:17311   */\n      sub\n        /* \"#utility.yul\":17287:17288   */\n      0x00\n        /* \"#utility.yul\":17276:17285   */\n      dup4\n        /* \"#utility.yul\":17272:17289   */\n      add\n        /* \"#utility.yul\":17265:17312   */\n      mstore\n        /* \"#utility.yul\":17329:17447   */\n      tag_411\n        /* \"#utility.yul\":17442:17446   */\n      dup2\n        /* \"#utility.yul\":17433:17439   */\n      dup5\n        /* \"#utility.yul\":17425:17431   */\n      dup7\n        /* \"#utility.yul\":17329:17447   */\n      tag_248\n      jump\t// in\n    tag_411:\n        /* \"#utility.yul\":17321:17447   */\n      swap1\n      pop\n        /* \"#utility.yul\":17061:17454   */\n      swap4\n      swap3\n      pop\n      pop\n      pop\n      jump\t// out\n        /* \"#utility.yul\":17460:17685   */\n    tag_255:\n        /* \"#utility.yul\":17600:17634   */\n      0x4f776e61626c653a206e6577206f776e657220697320746865207a65726f2061\n        /* \"#utility.yul\":17596:17597   */\n      0x00\n        /* \"#utility.yul\":17588:17594   */\n      dup3\n        /* \"#utility.yul\":17584:17598   */\n      add\n        /* \"#utility.yul\":17577:17635   */\n      mstore\n        /* \"#utility.yul\":17669:17677   */\n      0x6464726573730000000000000000000000000000000000000000000000000000\n        /* \"#utility.yul\":17664:17666   */\n      0x20\n        /* \"#utility.yul\":17656:17662   */\n      dup3\n        /* \"#utility.yul\":17652:17667   */\n      add\n        /* \"#utility.yul\":17645:17678   */\n      mstore\n        /* \"#utility.yul\":17460:17685   */\n      pop\n      jump\t// out\n        /* \"#utility.yul\":17691:18057   */\n    tag_256:\n        /* \"#utility.yul\":17833:17836   */\n      0x00\n        /* \"#utility.yul\":17854:17921   */\n      tag_414\n        /* \"#utility.yul\":17918:17920   */\n      0x26\n        /* \"#utility.yul\":17913:17916   */\n      dup4\n        /* \"#utility.yul\":17854:17921   */\n      tag_231\n      jump\t// in\n    tag_414:\n        /* \"#utility.yul\":17847:17921   */\n      swap2\n      pop\n        /* \"#utility.yul\":17930:18023   */\n      tag_415\n        /* \"#utility.yul\":18019:18022   */\n      dup3\n        /* \"#utility.yul\":17930:18023   */\n      tag_255\n      jump\t// in\n    tag_415:\n        /* \"#utility.yul\":18048:18050   */\n      0x40\n        /* \"#utility.yul\":18043:18046   */\n      dup3\n        /* \"#utility.yul\":18039:18051   */\n      add\n        /* \"#utility.yul\":18032:18051   */\n      swap1\n      pop\n        /* \"#utility.yul\":17691:18057   */\n      swap2\n      swap1\n      pop\n      jump\t// out\n        /* \"#utility.yul\":18063:18482   */\n    tag_173:\n        /* \"#utility.yul\":18229:18233   */\n      0x00\n        /* \"#utility.yul\":18267:18269   */\n      0x20\n        /* \"#utility.yul\":18256:18265   */\n      dup3\n        /* \"#utility.yul\":18252:18270   */\n      add\n        /* \"#utility.yul\":18244:18270   */\n      swap1\n      pop\n        /* \"#utility.yul\":18316:18325   */\n      dup2\n        /* \"#utility.yul\":18310:18314   */\n      dup2\n        /* \"#utility.yul\":18306:18326   */\n      sub\n        /* \"#utility.yul\":18302:18303   */\n      0x00\n        /* \"#utility.yul\":18291:18300   */\n      dup4\n        /* \"#utility.yul\":18287:18304   */\n      add\n        /* \"#utility.yul\":18280:18327   */\n      mstore\n        /* \"#utility.yul\":18344:18475   */\n      tag_417\n        /* \"#utility.yul\":18470:18474   */\n      dup2\n        /* \"#utility.yul\":18344:18475   */\n      tag_256\n      jump\t// in\n    tag_417:\n        /* \"#utility.yul\":18336:18475   */\n      swap1\n      pop\n        /* \"#utility.yul\":18063:18482   */\n      swap2\n      swap1\n      pop\n      jump\t// out\n        /* \"#utility.yul\":18488:18670   */\n    tag_257:\n        /* \"#utility.yul\":18628:18662   */\n      0x4f776e61626c653a2063616c6c6572206973206e6f7420746865206f776e6572\n        /* \"#utility.yul\":18624:18625   */\n      0x00\n        /* \"#utility.yul\":18616:18622   */\n      dup3\n        /* \"#utility.yul\":18612:18626   */\n      add\n        /* \"#utility.yul\":18605:18663   */\n      mstore\n        /* \"#utility.yul\":18488:18670   */\n      pop\n      jump\t// out\n        /* \"#utility.yul\":18676:19042   */\n    tag_258:\n        /* \"#utility.yul\":18818:18821   */\n      0x00\n        /* \"#utility.yul\":18839:18906   */\n      tag_420\n        /* \"#utility.yul\":18903:18905   */\n      0x20\n        /* \"#utility.yul\":18898:18901   */\n      dup4\n        /* \"#utility.yul\":18839:18906   */\n      tag_231\n      jump\t// in\n    tag_420:\n        /* \"#utility.yul\":18832:18906   */\n      swap2\n      pop\n        /* \"#utility.yul\":18915:19008   */\n      tag_421\n        /* \"#utility.yul\":19004:19007   */\n      dup3\n        /* \"#utility.yul\":18915:19008   */\n      tag_257\n      jump\t// in\n    tag_421:\n        /* \"#utility.yul\":19033:19035   */\n      0x20\n        /* \"#utility.yul\":19028:19031   */\n      dup3\n        /* \"#utility.yul\":19024:19036   */\n      add\n        /* \"#utility.yul\":19017:19036   */\n      swap1\n      pop\n        /* \"#utility.yul\":18676:19042   */\n      swap2\n      swap1\n      pop\n      jump\t// out\n        /* \"#utility.yul\":19048:19467   */\n    tag_205:\n        /* \"#utility.yul\":19214:19218   */\n      0x00\n        /* \"#utility.yul\":19252:19254   */\n      0x20\n        /* \"#utility.yul\":19241:19250   */\n      dup3\n        /* \"#utility.yul\":19237:19255   */\n      add\n        /* \"#utility.yul\":19229:19255   */\n      swap1\n      pop\n        /* \"#utility.yul\":19301:19310   */\n      dup2\n        /* \"#utility.yul\":19295:19299   */\n      dup2\n        /* \"#utility.yul\":19291:19311   */\n      sub\n        /* \"#utility.yul\":19287:19288   */\n      0x00\n        /* \"#utility.yul\":19276:19285   */\n      dup4\n        /* \"#utility.yul\":19272:19289   */\n      add\n        /* \"#utility.yul\":19265:19312   */\n      mstore\n        /* \"#utility.yul\":19329:19460   */\n      tag_423\n        /* \"#utility.yul\":19455:19459   */\n      dup2\n        /* \"#utility.yul\":19329:19460   */\n      tag_258\n      jump\t// in\n    tag_423:\n        /* \"#utility.yul\":19321:19460   */\n      swap1\n      pop\n        /* \"#utility.yul\":19048:19467   */\n      swap2\n      swap1\n      pop\n      jump\t// out\n\n    auxdata: 0xa2646970667358221220149048cfe4aec13aade8ab48f01371a8407a48fe4fbb06173b7b299b1ed9190164736f6c63430008100033\n}\n",
				"bytecode": {
					"linkReferences": {},
					"object": "60806040523480156200001157600080fd5b50604051620023e8380380620023e883398181016040528101906200003791906200063a565b620000576200004b6200026f60201b60201c565b6200027760201b60201c565b6001808190555060008311620000a4576040517f08c379a00000000000000000000000000000000000000000000000000000000081526004016200009b9062000780565b60405180910390fd5b60005b845181101562000147576002858281518110620000c957620000c8620007a2565b5b60200260200101519080600181540180825580915050600190039060005260206000200160009091909190916101000a81548173ffffffffffffffffffffffffffffffffffffffff021916908373ffffffffffffffffffffffffffffffffffffffff16021790555080806200013e9062000800565b915050620000a7565b5060005b8451811015620001b15760078382815181106200016d576200016c620007a2565b5b602002602001015190806001815401808255809150506001900390600052602060002001600090919091909150558080620001a89062000800565b9150506200014b565b5060005b855181101562000255576003868281518110620001d757620001d6620007a2565b5b60200260200101519080600181540180825580915050600190039060005260206000200160009091909190916101000a81548173ffffffffffffffffffffffffffffffffffffffff021916908373ffffffffffffffffffffffffffffffffffffffff16021790555080806200024c9062000800565b915050620001b5565b50826004819055508060068190555050505050506200084d565b600033905090565b60008060009054906101000a900473ffffffffffffffffffffffffffffffffffffffff169050816000806101000a81548173ffffffffffffffffffffffffffffffffffffffff021916908373ffffffffffffffffffffffffffffffffffffffff1602179055508173ffffffffffffffffffffffffffffffffffffffff168173ffffffffffffffffffffffffffffffffffffffff167f8be0079c531659141344cd1fd0a4f28419497f9722a3daafe3b4186f6b6457e060405160405180910390a35050565b6000604051905090565b600080fd5b600080fd5b600080fd5b6000601f19601f8301169050919050565b7f4e487b7100000000000000000000000000000000000000000000000000000000600052604160045260246000fd5b6200039f8262000354565b810181811067ffffffffffffffff82111715620003c157620003c062000365565b5b80604052505050565b6000620003d66200033b565b9050620003e4828262000394565b919050565b600067ffffffffffffffff82111562000407576200040662000365565b5b602082029050602081019050919050565b600080fd5b600073ffffffffffffffffffffffffffffffffffffffff82169050919050565b60006200044a826200041d565b9050919050565b6200045c816200043d565b81146200046857600080fd5b50565b6000815190506200047c8162000451565b92915050565b6000620004996200049384620003e9565b620003ca565b90508083825260208201905060208402830185811115620004bf57620004be62000418565b5b835b81811015620004ec5780620004d788826200046b565b845260208401935050602081019050620004c1565b5050509392505050565b600082601f8301126200050e576200050d6200034f565b5b81516200052084826020860162000482565b91505092915050565b6000819050919050565b6200053e8162000529565b81146200054a57600080fd5b50565b6000815190506200055e8162000533565b92915050565b600067ffffffffffffffff82111562000582576200058162000365565b5b602082029050602081019050919050565b6000620005aa620005a48462000564565b620003ca565b90508083825260208201905060208402830185811115620005d057620005cf62000418565b5b835b81811015620005fd5780620005e888826200054d565b845260208401935050602081019050620005d2565b5050509392505050565b600082601f8301126200061f576200061e6200034f565b5b81516200063184826020860162000593565b91505092915050565b600080600080600060a0868803121562000659576200065862000345565b5b600086015167ffffffffffffffff8111156200067a57620006796200034a565b5b6200068888828901620004f6565b955050602086015167ffffffffffffffff811115620006ac57620006ab6200034a565b5b620006ba88828901620004f6565b9450506040620006cd888289016200054d565b935050606086015167ffffffffffffffff811115620006f157620006f06200034a565b5b620006ff8882890162000607565b925050608062000712888289016200054d565b9150509295509295909350565b600082825260208201905092915050565b7f496e76616c6964206c6f636b20706572696f6400000000000000000000000000600082015250565b6000620007686013836200071f565b9150620007758262000730565b602082019050919050565b600060208201905081810360008301526200079b8162000759565b9050919050565b7f4e487b7100000000000000000000000000000000000000000000000000000000600052603260045260246000fd5b7f4e487b7100000000000000000000000000000000000000000000000000000000600052601160045260246000fd5b60006200080d8262000529565b91507fffffffffffffffffffffffffffffffffffffffffffffffffffffffffffffffff8203620008425762000841620007d1565b5b600182019050919050565b611b8b806200085d6000396000f3fe608060405234801561001057600080fd5b50600436106100cf5760003560e01c8063715018a61161008c5780638da5cb5b116100665780638da5cb5b14610210578063c69d19231461022e578063f2fde38b1461024c578063ff5d845014610268576100cf565b8063715018a6146101ce578063779972da146101d8578063849a1e1d146101f4576100cf565b806320281a98146100d457806330d10275146101045780633fd8b02f14610134578063422dc713146101525780635eac6239146101825780636eb604e01461019e575b600080fd5b6100ee60048036038101906100e99190611227565b610284565b6040516100fb9190611263565b60405180910390f35b61011e60048036038101906101199190611227565b6102a4565b60405161012b91906112fd565b60405180910390f35b61013c6102e3565b6040516101499190611263565b60405180910390f35b61016c60048036038101906101679190611227565b6102e9565b6040516101799190611263565b60405180910390f35b61019c6004803603810190610197919061137d565b61030d565b005b6101b860048036038101906101b39190611227565b6106e7565b6040516101c591906113eb565b60405180910390f35b6101d6610726565b005b6101f260048036038101906101ed9190611227565b61073a565b005b61020e6004803603810190610209919061137d565b6107c6565b005b610218610c26565b6040516102259190611427565b60405180910390f35b610236610c4f565b6040516102439190611263565b60405180910390f35b6102666004803603810190610261919061146e565b610c55565b005b610282600480360381019061027d919061137d565b610cd8565b005b600060056000838152602001908152602001600020600201549050919050565b600281815481106102b457600080fd5b906000526020600020016000915054906101000a900473ffffffffffffffffffffffffffffffffffffffff1681565b60045481565b600781815481106102f957600080fd5b906000526020600020016000915090505481565b61032c3373ffffffffffffffffffffffffffffffffffffffff16610f9a565b1561036c576040517f08c379a0000000000000000000000000000000000000000000000000000000008152600401610363906114f8565b60405180910390fd5b3273ffffffffffffffffffffffffffffffffffffffff163373ffffffffffffffffffffffffffffffffffffffff16146103da576040517f08c379a00000000000000000000000000000000000000000000000000000000081526004016103d190611564565b60405180910390fd5b60008282905011610420576040517f08c379a0000000000000000000000000000000000000000000000000000000008152600401610417906115d0565b60405180910390fd5b600080600090505b8383905081101561068f5760006005600086868581811061044c5761044b6115f0565b5b9050602002013581526020019081526020016000206040518060800160405290816000820160009054906101000a900473ffffffffffffffffffffffffffffffffffffffff1673ffffffffffffffffffffffffffffffffffffffff1673ffffffffffffffffffffffffffffffffffffffff16815260200160018201548152602001600282015481526020016003820160009054906101000a900460ff16151515158152505090503373ffffffffffffffffffffffffffffffffffffffff16816000015173ffffffffffffffffffffffffffffffffffffffff1614610565576040517f08c379a000000000000000000000000000000000000000000000000000000000815260040161055c9061166b565b60405180910390fd5b42600454826020015161057891906116ba565b106105b8576040517f08c379a00000000000000000000000000000000000000000000000000000000081526004016105af9061173a565b60405180910390fd5b8060600151156105fd576040517f08c379a00000000000000000000000000000000000000000000000000000000081526004016105f4906117a6565b60405180910390fd5b6000610621868685818110610615576106146115f0565b5b90506020020135610fbd565b9050600082604001518261063591906117c6565b9050808561064391906116ba565b9450816005600089898881811061065d5761065c6115f0565b5b905060200201358152602001908152602001600020600201819055505050508080610687906117fa565b915050610428565b503373ffffffffffffffffffffffffffffffffffffffff167f37826be3c26dbad83731f4b985f22fa9ef86b6d1974cd77208332b7f1f283c0c8484846040516106da939291906118bd565b60405180910390a2505050565b600381815481106106f757600080fd5b906000526020600020016000915054906101000a900473ffffffffffffffffffffffffffffffffffffffff1681565b61072e61109d565b610738600061111b565b565b61074261109d565b60008111610785576040517f08c379a000000000000000000000000000000000000000000000000000000000815260040161077c9061193b565b60405180910390fd5b806004819055507f8249ec545e68f6f1e1230133ca48c704d831a7f8e635ded80f3dd9e99b09bb2f816040516107bb9190611263565b60405180910390a150565b6107e53373ffffffffffffffffffffffffffffffffffffffff16610f9a565b15610825576040517f08c379a000000000000000000000000000000000000000000000000000000000815260040161081c906114f8565b60405180910390fd5b3273ffffffffffffffffffffffffffffffffffffffff163373ffffffffffffffffffffffffffffffffffffffff1614610893576040517f08c379a000000000000000000000000000000000000000000000000000000000815260040161088a90611564565b60405180910390fd5b6002600154036108d8576040517f08c379a00000000000000000000000000000000000000000000000000000000081526004016108cf906119a7565b60405180910390fd5b600260018190555060008282905011610926576040517f08c379a000000000000000000000000000000000000000000000000000000000815260040161091d906115d0565b60405180910390fd5b60005b82829050811015610bca5760006005600085858581811061094d5761094c6115f0565b5b9050602002013581526020019081526020016000206040518060800160405290816000820160009054906101000a900473ffffffffffffffffffffffffffffffffffffffff1673ffffffffffffffffffffffffffffffffffffffff1673ffffffffffffffffffffffffffffffffffffffff16815260200160018201548152602001600282015481526020016003820160009054906101000a900460ff16151515158152505090503373ffffffffffffffffffffffffffffffffffffffff16816000015173ffffffffffffffffffffffffffffffffffffffff1614610a66576040517f08c379a0000000000000000000000000000000000000000000000000000000008152600401610a5d9061166b565b60405180910390fd5b426004548260200151610a7991906116ba565b10610ab9576040517f08c379a0000000000000000000000000000000000000000000000000000000008152600401610ab090611a13565b60405180910390fd5b806060015115610afe576040517f08c379a0000000000000000000000000000000000000000000000000000000008152600401610af5906117a6565b60405180910390fd5b6000610b22858585818110610b1657610b156115f0565b5b90506020020135610fbd565b90506000826040015182610b3691906117c6565b90508160056000888888818110610b5057610b4f6115f0565b5b90506020020135815260200190815260200160002060020181905550600160056000888888818110610b8557610b846115f0565b5b90506020020135815260200190815260200160002060030160006101000a81548160ff0219169083151502179055505050508080610bc2906117fa565b915050610929565b503373ffffffffffffffffffffffffffffffffffffffff167f5cb48022479b9ac3bfb10a27965dc010acffc9fc1bc9a52f0b18975b944b54ca8383604051610c13929190611a33565b60405180910390a2600180819055505050565b60008060009054906101000a900473ffffffffffffffffffffffffffffffffffffffff16905090565b60065481565b610c5d61109d565b600073ffffffffffffffffffffffffffffffffffffffff168173ffffffffffffffffffffffffffffffffffffffff1603610ccc576040517f08c379a0000000000000000000000000000000000000000000000000000000008152600401610cc390611ac9565b60405180910390fd5b610cd58161111b565b50565b610cf73373ffffffffffffffffffffffffffffffffffffffff16610f9a565b15610d37576040517f08c379a0000000000000000000000000000000000000000000000000000000008152600401610d2e906114f8565b60405180910390fd5b3273ffffffffffffffffffffffffffffffffffffffff163373ffffffffffffffffffffffffffffffffffffffff1614610da5576040517f08c379a0000000000000000000000000000000000000000000000000000000008152600401610d9c90611564565b60405180910390fd5b600260015403610dea576040517f08c379a0000000000000000000000000000000000000000000000000000000008152600401610de1906119a7565b60405180910390fd5b600260018190555060008282905011610e38576040517f08c379a0000000000000000000000000000000000000000000000000000000008152600401610e2f906115d0565b60405180910390fd5b60005b82829050811015610f3e5760405180608001604052803373ffffffffffffffffffffffffffffffffffffffff168152602001428152602001600081526020016000151581525060056000858585818110610e9857610e976115f0565b5b90506020020135815260200190815260200160002060008201518160000160006101000a81548173ffffffffffffffffffffffffffffffffffffffff021916908373ffffffffffffffffffffffffffffffffffffffff160217905550602082015181600101556040820151816002015560608201518160030160006101000a81548160ff0219169083151502179055509050508080610f36906117fa565b915050610e3b565b503373ffffffffffffffffffffffffffffffffffffffff167f458be0227bccc9e803dec79bd16767eeaf9925d2ce708eeed7ae1f3621f968f98383604051610f87929190611a33565b60405180910390a2600180819055505050565b6000808273ffffffffffffffffffffffffffffffffffffffff163b119050919050565b600080600560008481526020019081526020016000206040518060800160405290816000820160009054906101000a900473ffffffffffffffffffffffffffffffffffffffff1673ffffffffffffffffffffffffffffffffffffffff1673ffffffffffffffffffffffffffffffffffffffff16815260200160018201548152602001600282015481526020016003820160009054906101000a900460ff1615151515815250509050600081602001514261107791906117c6565b905060006004548210156110915760009350505050611098565b8093505050505b919050565b6110a56111df565b73ffffffffffffffffffffffffffffffffffffffff166110c3610c26565b73ffffffffffffffffffffffffffffffffffffffff1614611119576040517f08c379a000000000000000000000000000000000000000000000000000000000815260040161111090611b35565b60405180910390fd5b565b60008060009054906101000a900473ffffffffffffffffffffffffffffffffffffffff169050816000806101000a81548173ffffffffffffffffffffffffffffffffffffffff021916908373ffffffffffffffffffffffffffffffffffffffff1602179055508173ffffffffffffffffffffffffffffffffffffffff168173ffffffffffffffffffffffffffffffffffffffff167f8be0079c531659141344cd1fd0a4f28419497f9722a3daafe3b4186f6b6457e060405160405180910390a35050565b600033905090565b600080fd5b600080fd5b6000819050919050565b611204816111f1565b811461120f57600080fd5b50565b600081359050611221816111fb565b92915050565b60006020828403121561123d5761123c6111e7565b5b600061124b84828501611212565b91505092915050565b61125d816111f1565b82525050565b60006020820190506112786000830184611254565b92915050565b600073ffffffffffffffffffffffffffffffffffffffff82169050919050565b6000819050919050565b60006112c36112be6112b98461127e565b61129e565b61127e565b9050919050565b60006112d5826112a8565b9050919050565b60006112e7826112ca565b9050919050565b6112f7816112dc565b82525050565b600060208201905061131260008301846112ee565b92915050565b600080fd5b600080fd5b600080fd5b60008083601f84011261133d5761133c611318565b5b8235905067ffffffffffffffff81111561135a5761135961131d565b5b60208301915083602082028301111561137657611375611322565b5b9250929050565b60008060208385031215611394576113936111e7565b5b600083013567ffffffffffffffff8111156113b2576113b16111ec565b5b6113be85828601611327565b92509250509250929050565b60006113d5826112ca565b9050919050565b6113e5816113ca565b82525050565b600060208201905061140060008301846113dc565b92915050565b60006114118261127e565b9050919050565b61142181611406565b82525050565b600060208201905061143c6000830184611418565b92915050565b61144b81611406565b811461145657600080fd5b50565b60008135905061146881611442565b92915050565b600060208284031215611484576114836111e7565b5b600061149284828501611459565b91505092915050565b600082825260208201905092915050565b7f436f6e7472616374206e6f7420616c6c6f776564000000000000000000000000600082015250565b60006114e260148361149b565b91506114ed826114ac565b602082019050919050565b60006020820190508181036000830152611511816114d5565b9050919050565b7f50726f787920636f6e7472616374206e6f7420616c6c6f776564000000000000600082015250565b600061154e601a8361149b565b915061155982611518565b602082019050919050565b6000602082019050818103600083015261157d81611541565b9050919050565b7f4e6f20746f6b656e730000000000000000000000000000000000000000000000600082015250565b60006115ba60098361149b565b91506115c582611584565b602082019050919050565b600060208201905081810360008301526115e9816115ad565b9050919050565b7f4e487b7100000000000000000000000000000000000000000000000000000000600052603260045260246000fd5b7f4e6f74206120746f6b656e206f776e6572000000000000000000000000000000600082015250565b600061165560118361149b565b91506116608261161f565b602082019050919050565b6000602082019050818103600083015261168481611648565b9050919050565b7f4e487b7100000000000000000000000000000000000000000000000000000000600052601160045260246000fd5b60006116c5826111f1565b91506116d0836111f1565b92508282019050808211156116e8576116e761168b565b5b92915050565b7f4e6f742061626c6520746f20636c61696d207965740000000000000000000000600082015250565b600061172460158361149b565b915061172f826116ee565b602082019050919050565b6000602082019050818103600083015261175381611717565b9050919050565b7f416c726561647920756e6c6f636b656400000000000000000000000000000000600082015250565b600061179060108361149b565b915061179b8261175a565b602082019050919050565b600060208201905081810360008301526117bf81611783565b9050919050565b60006117d1826111f1565b91506117dc836111f1565b92508282039050818111156117f4576117f361168b565b5b92915050565b6000611805826111f1565b91507fffffffffffffffffffffffffffffffffffffffffffffffffffffffffffffffff82036118375761183661168b565b5b600182019050919050565b600082825260208201905092915050565b600080fd5b82818337505050565b600061186d8385611842565b93507f07ffffffffffffffffffffffffffffffffffffffffffffffffffffffffffffff8311156118a05761189f611853565b5b6020830292506118b1838584611858565b82840190509392505050565b600060408201905081810360008301526118d8818587611861565b90506118e76020830184611254565b949350505050565b7f496e76616c6964206c6f636b20706572696f642e000000000000000000000000600082015250565b600061192560148361149b565b9150611930826118ef565b602082019050919050565b6000602082019050818103600083015261195481611918565b9050919050565b7f5265656e7472616e637947756172643a207265656e7472616e742063616c6c00600082015250565b6000611991601f8361149b565b915061199c8261195b565b602082019050919050565b600060208201905081810360008301526119c081611984565b9050919050565b7f4e6f742061626c6520746f20756e6c6f636b2079657400000000000000000000600082015250565b60006119fd60168361149b565b9150611a08826119c7565b602082019050919050565b60006020820190508181036000830152611a2c816119f0565b9050919050565b60006020820190508181036000830152611a4e818486611861565b90509392505050565b7f4f776e61626c653a206e6577206f776e657220697320746865207a65726f206160008201527f6464726573730000000000000000000000000000000000000000000000000000602082015250565b6000611ab360268361149b565b9150611abe82611a57565b604082019050919050565b60006020820190508181036000830152611ae281611aa6565b9050919050565b7f4f776e61626c653a2063616c6c6572206973206e6f7420746865206f776e6572600082015250565b6000611b1f60208361149b565b9150611b2a82611ae9565b602082019050919050565b60006020820190508181036000830152611b4e81611b12565b905091905056fea2646970667358221220149048cfe4aec13aade8ab48f01371a8407a48fe4fbb06173b7b299b1ed9190164736f6c63430008100033",
					"opcodes": "PUSH1 0x80 PUSH1 0x40 MSTORE CALLVALUE DUP1 ISZERO PUSH3 0x11 JUMPI PUSH1 0x0 DUP1 REVERT JUMPDEST POP PUSH1 0x40 MLOAD PUSH3 0x23E8 CODESIZE SUB DUP1 PUSH3 0x23E8 DUP4 CODECOPY DUP2 DUP2 ADD PUSH1 0x40 MSTORE DUP2 ADD SWAP1 PUSH3 0x37 SWAP2 SWAP1 PUSH3 0x63A JUMP JUMPDEST PUSH3 0x57 PUSH3 0x4B PUSH3 0x26F PUSH1 0x20 SHL PUSH1 0x20 SHR JUMP JUMPDEST PUSH3 0x277 PUSH1 0x20 SHL PUSH1 0x20 SHR JUMP JUMPDEST PUSH1 0x1 DUP1 DUP2 SWAP1 SSTORE POP PUSH1 0x0 DUP4 GT PUSH3 0xA4 JUMPI PUSH1 0x40 MLOAD PUSH32 0x8C379A000000000000000000000000000000000000000000000000000000000 DUP2 MSTORE PUSH1 0x4 ADD PUSH3 0x9B SWAP1 PUSH3 0x780 JUMP JUMPDEST PUSH1 0x40 MLOAD DUP1 SWAP2 SUB SWAP1 REVERT JUMPDEST PUSH1 0x0 JUMPDEST DUP5 MLOAD DUP2 LT ISZERO PUSH3 0x147 JUMPI PUSH1 0x2 DUP6 DUP3 DUP2 MLOAD DUP2 LT PUSH3 0xC9 JUMPI PUSH3 0xC8 PUSH3 0x7A2 JUMP JUMPDEST JUMPDEST PUSH1 0x20 MUL PUSH1 0x20 ADD ADD MLOAD SWAP1 DUP1 PUSH1 0x1 DUP2 SLOAD ADD DUP1 DUP3 SSTORE DUP1 SWAP2 POP POP PUSH1 0x1 SWAP1 SUB SWAP1 PUSH1 0x0 MSTORE PUSH1 0x20 PUSH1 0x0 KECCAK256 ADD PUSH1 0x0 SWAP1 SWAP2 SWAP1 SWAP2 SWAP1 SWAP2 PUSH2 0x100 EXP DUP2 SLOAD DUP2 PUSH20 0xFFFFFFFFFFFFFFFFFFFFFFFFFFFFFFFFFFFFFFFF MUL NOT AND SWAP1 DUP4 PUSH20 0xFFFFFFFFFFFFFFFFFFFFFFFFFFFFFFFFFFFFFFFF AND MUL OR SWAP1 SSTORE POP DUP1 DUP1 PUSH3 0x13E SWAP1 PUSH3 0x800 JUMP JUMPDEST SWAP2 POP POP PUSH3 0xA7 JUMP JUMPDEST POP PUSH1 0x0 JUMPDEST DUP5 MLOAD DUP2 LT ISZERO PUSH3 0x1B1 JUMPI PUSH1 0x7 DUP4 DUP3 DUP2 MLOAD DUP2 LT PUSH3 0x16D JUMPI PUSH3 0x16C PUSH3 0x7A2 JUMP JUMPDEST JUMPDEST PUSH1 0x20 MUL PUSH1 0x20 ADD ADD MLOAD SWAP1 DUP1 PUSH1 0x1 DUP2 SLOAD ADD DUP1 DUP3 SSTORE DUP1 SWAP2 POP POP PUSH1 0x1 SWAP1 SUB SWAP1 PUSH1 0x0 MSTORE PUSH1 0x20 PUSH1 0x0 KECCAK256 ADD PUSH1 0x0 SWAP1 SWAP2 SWAP1 SWAP2 SWAP1 SWAP2 POP SSTORE DUP1 DUP1 PUSH3 0x1A8 SWAP1 PUSH3 0x800 JUMP JUMPDEST SWAP2 POP POP PUSH3 0x14B JUMP JUMPDEST POP PUSH1 0x0 JUMPDEST DUP6 MLOAD DUP2 LT ISZERO PUSH3 0x255 JUMPI PUSH1 0x3 DUP7 DUP3 DUP2 MLOAD DUP2 LT PUSH3 0x1D7 JUMPI PUSH3 0x1D6 PUSH3 0x7A2 JUMP JUMPDEST JUMPDEST PUSH1 0x20 MUL PUSH1 0x20 ADD ADD MLOAD SWAP1 DUP1 PUSH1 0x1 DUP2 SLOAD ADD DUP1 DUP3 SSTORE DUP1 SWAP2 POP POP PUSH1 0x1 SWAP1 SUB SWAP1 PUSH1 0x0 MSTORE PUSH1 0x20 PUSH1 0x0 KECCAK256 ADD PUSH1 0x0 SWAP1 SWAP2 SWAP1 SWAP2 SWAP1 SWAP2 PUSH2 0x100 EXP DUP2 SLOAD DUP2 PUSH20 0xFFFFFFFFFFFFFFFFFFFFFFFFFFFFFFFFFFFFFFFF MUL NOT AND SWAP1 DUP4 PUSH20 0xFFFFFFFFFFFFFFFFFFFFFFFFFFFFFFFFFFFFFFFF AND MUL OR SWAP1 SSTORE POP DUP1 DUP1 PUSH3 0x24C SWAP1 PUSH3 0x800 JUMP JUMPDEST SWAP2 POP POP PUSH3 0x1B5 JUMP JUMPDEST POP DUP3 PUSH1 0x4 DUP2 SWAP1 SSTORE POP DUP1 PUSH1 0x6 DUP2 SWAP1 SSTORE POP POP POP POP POP POP PUSH3 0x84D JUMP JUMPDEST PUSH1 0x0 CALLER SWAP1 POP SWAP1 JUMP JUMPDEST PUSH1 0x0 DUP1 PUSH1 0x0 SWAP1 SLOAD SWAP1 PUSH2 0x100 EXP SWAP1 DIV PUSH20 0xFFFFFFFFFFFFFFFFFFFFFFFFFFFFFFFFFFFFFFFF AND SWAP1 POP DUP2 PUSH1 0x0 DUP1 PUSH2 0x100 EXP DUP2 SLOAD DUP2 PUSH20 0xFFFFFFFFFFFFFFFFFFFFFFFFFFFFFFFFFFFFFFFF MUL NOT AND SWAP1 DUP4 PUSH20 0xFFFFFFFFFFFFFFFFFFFFFFFFFFFFFFFFFFFFFFFF AND MUL OR SWAP1 SSTORE POP DUP2 PUSH20 0xFFFFFFFFFFFFFFFFFFFFFFFFFFFFFFFFFFFFFFFF AND DUP2 PUSH20 0xFFFFFFFFFFFFFFFFFFFFFFFFFFFFFFFFFFFFFFFF AND PUSH32 0x8BE0079C531659141344CD1FD0A4F28419497F9722A3DAAFE3B4186F6B6457E0 PUSH1 0x40 MLOAD PUSH1 0x40 MLOAD DUP1 SWAP2 SUB SWAP1 LOG3 POP POP JUMP JUMPDEST PUSH1 0x0 PUSH1 0x40 MLOAD SWAP1 POP SWAP1 JUMP JUMPDEST PUSH1 0x0 DUP1 REVERT JUMPDEST PUSH1 0x0 DUP1 REVERT JUMPDEST PUSH1 0x0 DUP1 REVERT JUMPDEST PUSH1 0x0 PUSH1 0x1F NOT PUSH1 0x1F DUP4 ADD AND SWAP1 POP SWAP2 SWAP1 POP JUMP JUMPDEST PUSH32 0x4E487B7100000000000000000000000000000000000000000000000000000000 PUSH1 0x0 MSTORE PUSH1 0x41 PUSH1 0x4 MSTORE PUSH1 0x24 PUSH1 0x0 REVERT JUMPDEST PUSH3 0x39F DUP3 PUSH3 0x354 JUMP JUMPDEST DUP2 ADD DUP2 DUP2 LT PUSH8 0xFFFFFFFFFFFFFFFF DUP3 GT OR ISZERO PUSH3 0x3C1 JUMPI PUSH3 0x3C0 PUSH3 0x365 JUMP JUMPDEST JUMPDEST DUP1 PUSH1 0x40 MSTORE POP POP POP JUMP JUMPDEST PUSH1 0x0 PUSH3 0x3D6 PUSH3 0x33B JUMP JUMPDEST SWAP1 POP PUSH3 0x3E4 DUP3 DUP3 PUSH3 0x394 JUMP JUMPDEST SWAP2 SWAP1 POP JUMP JUMPDEST PUSH1 0x0 PUSH8 0xFFFFFFFFFFFFFFFF DUP3 GT ISZERO PUSH3 0x407 JUMPI PUSH3 0x406 PUSH3 0x365 JUMP JUMPDEST JUMPDEST PUSH1 0x20 DUP3 MUL SWAP1 POP PUSH1 0x20 DUP2 ADD SWAP1 POP SWAP2 SWAP1 POP JUMP JUMPDEST PUSH1 0x0 DUP1 REVERT JUMPDEST PUSH1 0x0 PUSH20 0xFFFFFFFFFFFFFFFFFFFFFFFFFFFFFFFFFFFFFFFF DUP3 AND SWAP1 POP SWAP2 SWAP1 POP JUMP JUMPDEST PUSH1 0x0 PUSH3 0x44A DUP3 PUSH3 0x41D JUMP JUMPDEST SWAP1 POP SWAP2 SWAP1 POP JUMP JUMPDEST PUSH3 0x45C DUP2 PUSH3 0x43D JUMP JUMPDEST DUP2 EQ PUSH3 0x468 JUMPI PUSH1 0x0 DUP1 REVERT JUMPDEST POP JUMP JUMPDEST PUSH1 0x0 DUP2 MLOAD SWAP1 POP PUSH3 0x47C DUP2 PUSH3 0x451 JUMP JUMPDEST SWAP3 SWAP2 POP POP JUMP JUMPDEST PUSH1 0x0 PUSH3 0x499 PUSH3 0x493 DUP5 PUSH3 0x3E9 JUMP JUMPDEST PUSH3 0x3CA JUMP JUMPDEST SWAP1 POP DUP1 DUP4 DUP3 MSTORE PUSH1 0x20 DUP3 ADD SWAP1 POP PUSH1 0x20 DUP5 MUL DUP4 ADD DUP6 DUP2 GT ISZERO PUSH3 0x4BF JUMPI PUSH3 0x4BE PUSH3 0x418 JUMP JUMPDEST JUMPDEST DUP4 JUMPDEST DUP2 DUP2 LT ISZERO PUSH3 0x4EC JUMPI DUP1 PUSH3 0x4D7 DUP9 DUP3 PUSH3 0x46B JUMP JUMPDEST DUP5 MSTORE PUSH1 0x20 DUP5 ADD SWAP4 POP POP PUSH1 0x20 DUP2 ADD SWAP1 POP PUSH3 0x4C1 JUMP JUMPDEST POP POP POP SWAP4 SWAP3 POP POP POP JUMP JUMPDEST PUSH1 0x0 DUP3 PUSH1 0x1F DUP4 ADD SLT PUSH3 0x50E JUMPI PUSH3 0x50D PUSH3 0x34F JUMP JUMPDEST JUMPDEST DUP2 MLOAD PUSH3 0x520 DUP5 DUP3 PUSH1 0x20 DUP7 ADD PUSH3 0x482 JUMP JUMPDEST SWAP2 POP POP SWAP3 SWAP2 POP POP JUMP JUMPDEST PUSH1 0x0 DUP2 SWAP1 POP SWAP2 SWAP1 POP JUMP JUMPDEST PUSH3 0x53E DUP2 PUSH3 0x529 JUMP JUMPDEST DUP2 EQ PUSH3 0x54A JUMPI PUSH1 0x0 DUP1 REVERT JUMPDEST POP JUMP JUMPDEST PUSH1 0x0 DUP2 MLOAD SWAP1 POP PUSH3 0x55E DUP2 PUSH3 0x533 JUMP JUMPDEST SWAP3 SWAP2 POP POP JUMP JUMPDEST PUSH1 0x0 PUSH8 0xFFFFFFFFFFFFFFFF DUP3 GT ISZERO PUSH3 0x582 JUMPI PUSH3 0x581 PUSH3 0x365 JUMP JUMPDEST JUMPDEST PUSH1 0x20 DUP3 MUL SWAP1 POP PUSH1 0x20 DUP2 ADD SWAP1 POP SWAP2 SWAP1 POP JUMP JUMPDEST PUSH1 0x0 PUSH3 0x5AA PUSH3 0x5A4 DUP5 PUSH3 0x564 JUMP JUMPDEST PUSH3 0x3CA JUMP JUMPDEST SWAP1 POP DUP1 DUP4 DUP3 MSTORE PUSH1 0x20 DUP3 ADD SWAP1 POP PUSH1 0x20 DUP5 MUL DUP4 ADD DUP6 DUP2 GT ISZERO PUSH3 0x5D0 JUMPI PUSH3 0x5CF PUSH3 0x418 JUMP JUMPDEST JUMPDEST DUP4 JUMPDEST DUP2 DUP2 LT ISZERO PUSH3 0x5FD JUMPI DUP1 PUSH3 0x5E8 DUP9 DUP3 PUSH3 0x54D JUMP JUMPDEST DUP5 MSTORE PUSH1 0x20 DUP5 ADD SWAP4 POP POP PUSH1 0x20 DUP2 ADD SWAP1 POP PUSH3 0x5D2 JUMP JUMPDEST POP POP POP SWAP4 SWAP3 POP POP POP JUMP JUMPDEST PUSH1 0x0 DUP3 PUSH1 0x1F DUP4 ADD SLT PUSH3 0x61F JUMPI PUSH3 0x61E PUSH3 0x34F JUMP JUMPDEST JUMPDEST DUP2 MLOAD PUSH3 0x631 DUP5 DUP3 PUSH1 0x20 DUP7 ADD PUSH3 0x593 JUMP JUMPDEST SWAP2 POP POP SWAP3 SWAP2 POP POP JUMP JUMPDEST PUSH1 0x0 DUP1 PUSH1 0x0 DUP1 PUSH1 0x0 PUSH1 0xA0 DUP7 DUP9 SUB SLT ISZERO PUSH3 0x659 JUMPI PUSH3 0x658 PUSH3 0x345 JUMP JUMPDEST JUMPDEST PUSH1 0x0 DUP7 ADD MLOAD PUSH8 0xFFFFFFFFFFFFFFFF DUP2 GT ISZERO PUSH3 0x67A JUMPI PUSH3 0x679 PUSH3 0x34A JUMP JUMPDEST JUMPDEST PUSH3 0x688 DUP9 DUP3 DUP10 ADD PUSH3 0x4F6 JUMP JUMPDEST SWAP6 POP POP PUSH1 0x20 DUP7 ADD MLOAD PUSH8 0xFFFFFFFFFFFFFFFF DUP2 GT ISZERO PUSH3 0x6AC JUMPI PUSH3 0x6AB PUSH3 0x34A JUMP JUMPDEST JUMPDEST PUSH3 0x6BA DUP9 DUP3 DUP10 ADD PUSH3 0x4F6 JUMP JUMPDEST SWAP5 POP POP PUSH1 0x40 PUSH3 0x6CD DUP9 DUP3 DUP10 ADD PUSH3 0x54D JUMP JUMPDEST SWAP4 POP POP PUSH1 0x60 DUP7 ADD MLOAD PUSH8 0xFFFFFFFFFFFFFFFF DUP2 GT ISZERO PUSH3 0x6F1 JUMPI PUSH3 0x6F0 PUSH3 0x34A JUMP JUMPDEST JUMPDEST PUSH3 0x6FF DUP9 DUP3 DUP10 ADD PUSH3 0x607 JUMP JUMPDEST SWAP3 POP POP PUSH1 0x80 PUSH3 0x712 DUP9 DUP3 DUP10 ADD PUSH3 0x54D JUMP JUMPDEST SWAP2 POP POP SWAP3 SWAP6 POP SWAP3 SWAP6 SWAP1 SWAP4 POP JUMP JUMPDEST PUSH1 0x0 DUP3 DUP3 MSTORE PUSH1 0x20 DUP3 ADD SWAP1 POP SWAP3 SWAP2 POP POP JUMP JUMPDEST PUSH32 0x496E76616C6964206C6F636B20706572696F6400000000000000000000000000 PUSH1 0x0 DUP3 ADD MSTORE POP JUMP JUMPDEST PUSH1 0x0 PUSH3 0x768 PUSH1 0x13 DUP4 PUSH3 0x71F JUMP JUMPDEST SWAP2 POP PUSH3 0x775 DUP3 PUSH3 0x730 JUMP JUMPDEST PUSH1 0x20 DUP3 ADD SWAP1 POP SWAP2 SWAP1 POP JUMP JUMPDEST PUSH1 0x0 PUSH1 0x20 DUP3 ADD SWAP1 POP DUP2 DUP2 SUB PUSH1 0x0 DUP4 ADD MSTORE PUSH3 0x79B DUP2 PUSH3 0x759 JUMP JUMPDEST SWAP1 POP SWAP2 SWAP1 POP JUMP JUMPDEST PUSH32 0x4E487B7100000000000000000000000000000000000000000000000000000000 PUSH1 0x0 MSTORE PUSH1 0x32 PUSH1 0x4 MSTORE PUSH1 0x24 PUSH1 0x0 REVERT JUMPDEST PUSH32 0x4E487B7100000000000000000000000000000000000000000000000000000000 PUSH1 0x0 MSTORE PUSH1 0x11 PUSH1 0x4 MSTORE PUSH1 0x24 PUSH1 0x0 REVERT JUMPDEST PUSH1 0x0 PUSH3 0x80D DUP3 PUSH3 0x529 JUMP JUMPDEST SWAP2 POP PUSH32 0xFFFFFFFFFFFFFFFFFFFFFFFFFFFFFFFFFFFFFFFFFFFFFFFFFFFFFFFFFFFFFFFF DUP3 SUB PUSH3 0x842 JUMPI PUSH3 0x841 PUSH3 0x7D1 JUMP JUMPDEST JUMPDEST PUSH1 0x1 DUP3 ADD SWAP1 POP SWAP2 SWAP1 POP JUMP JUMPDEST PUSH2 0x1B8B DUP1 PUSH3 0x85D PUSH1 0x0 CODECOPY PUSH1 0x0 RETURN INVALID PUSH1 0x80 PUSH1 0x40 MSTORE CALLVALUE DUP1 ISZERO PUSH2 0x10 JUMPI PUSH1 0x0 DUP1 REVERT JUMPDEST POP PUSH1 0x4 CALLDATASIZE LT PUSH2 0xCF JUMPI PUSH1 0x0 CALLDATALOAD PUSH1 0xE0 SHR DUP1 PUSH4 0x715018A6 GT PUSH2 0x8C JUMPI DUP1 PUSH4 0x8DA5CB5B GT PUSH2 0x66 JUMPI DUP1 PUSH4 0x8DA5CB5B EQ PUSH2 0x210 JUMPI DUP1 PUSH4 0xC69D1923 EQ PUSH2 0x22E JUMPI DUP1 PUSH4 0xF2FDE38B EQ PUSH2 0x24C JUMPI DUP1 PUSH4 0xFF5D8450 EQ PUSH2 0x268 JUMPI PUSH2 0xCF JUMP JUMPDEST DUP1 PUSH4 0x715018A6 EQ PUSH2 0x1CE JUMPI DUP1 PUSH4 0x779972DA EQ PUSH2 0x1D8 JUMPI DUP1 PUSH4 0x849A1E1D EQ PUSH2 0x1F4 JUMPI PUSH2 0xCF JUMP JUMPDEST DUP1 PUSH4 0x20281A98 EQ PUSH2 0xD4 JUMPI DUP1 PUSH4 0x30D10275 EQ PUSH2 0x104 JUMPI DUP1 PUSH4 0x3FD8B02F EQ PUSH2 0x134 JUMPI DUP1 PUSH4 0x422DC713 EQ PUSH2 0x152 JUMPI DUP1 PUSH4 0x5EAC6239 EQ PUSH2 0x182 JUMPI DUP1 PUSH4 0x6EB604E0 EQ PUSH2 0x19E JUMPI JUMPDEST PUSH1 0x0 DUP1 REVERT JUMPDEST PUSH2 0xEE PUSH1 0x4 DUP1 CALLDATASIZE SUB DUP2 ADD SWAP1 PUSH2 0xE9 SWAP2 SWAP1 PUSH2 0x1227 JUMP JUMPDEST PUSH2 0x284 JUMP JUMPDEST PUSH1 0x40 MLOAD PUSH2 0xFB SWAP2 SWAP1 PUSH2 0x1263 JUMP JUMPDEST PUSH1 0x40 MLOAD DUP1 SWAP2 SUB SWAP1 RETURN JUMPDEST PUSH2 0x11E PUSH1 0x4 DUP1 CALLDATASIZE SUB DUP2 ADD SWAP1 PUSH2 0x119 SWAP2 SWAP1 PUSH2 0x1227 JUMP JUMPDEST PUSH2 0x2A4 JUMP JUMPDEST PUSH1 0x40 MLOAD PUSH2 0x12B SWAP2 SWAP1 PUSH2 0x12FD JUMP JUMPDEST PUSH1 0x40 MLOAD DUP1 SWAP2 SUB SWAP1 RETURN JUMPDEST PUSH2 0x13C PUSH2 0x2E3 JUMP JUMPDEST PUSH1 0x40 MLOAD PUSH2 0x149 SWAP2 SWAP1 PUSH2 0x1263 JUMP JUMPDEST PUSH1 0x40 MLOAD DUP1 SWAP2 SUB SWAP1 RETURN JUMPDEST PUSH2 0x16C PUSH1 0x4 DUP1 CALLDATASIZE SUB DUP2 ADD SWAP1 PUSH2 0x167 SWAP2 SWAP1 PUSH2 0x1227 JUMP JUMPDEST PUSH2 0x2E9 JUMP JUMPDEST PUSH1 0x40 MLOAD PUSH2 0x179 SWAP2 SWAP1 PUSH2 0x1263 JUMP JUMPDEST PUSH1 0x40 MLOAD DUP1 SWAP2 SUB SWAP1 RETURN JUMPDEST PUSH2 0x19C PUSH1 0x4 DUP1 CALLDATASIZE SUB DUP2 ADD SWAP1 PUSH2 0x197 SWAP2 SWAP1 PUSH2 0x137D JUMP JUMPDEST PUSH2 0x30D JUMP JUMPDEST STOP JUMPDEST PUSH2 0x1B8 PUSH1 0x4 DUP1 CALLDATASIZE SUB DUP2 ADD SWAP1 PUSH2 0x1B3 SWAP2 SWAP1 PUSH2 0x1227 JUMP JUMPDEST PUSH2 0x6E7 JUMP JUMPDEST PUSH1 0x40 MLOAD PUSH2 0x1C5 SWAP2 SWAP1 PUSH2 0x13EB JUMP JUMPDEST PUSH1 0x40 MLOAD DUP1 SWAP2 SUB SWAP1 RETURN JUMPDEST PUSH2 0x1D6 PUSH2 0x726 JUMP JUMPDEST STOP JUMPDEST PUSH2 0x1F2 PUSH1 0x4 DUP1 CALLDATASIZE SUB DUP2 ADD SWAP1 PUSH2 0x1ED SWAP2 SWAP1 PUSH2 0x1227 JUMP JUMPDEST PUSH2 0x73A JUMP JUMPDEST STOP JUMPDEST PUSH2 0x20E PUSH1 0x4 DUP1 CALLDATASIZE SUB DUP2 ADD SWAP1 PUSH2 0x209 SWAP2 SWAP1 PUSH2 0x137D JUMP JUMPDEST PUSH2 0x7C6 JUMP JUMPDEST STOP JUMPDEST PUSH2 0x218 PUSH2 0xC26 JUMP JUMPDEST PUSH1 0x40 MLOAD PUSH2 0x225 SWAP2 SWAP1 PUSH2 0x1427 JUMP JUMPDEST PUSH1 0x40 MLOAD DUP1 SWAP2 SUB SWAP1 RETURN JUMPDEST PUSH2 0x236 PUSH2 0xC4F JUMP JUMPDEST PUSH1 0x40 MLOAD PUSH2 0x243 SWAP2 SWAP1 PUSH2 0x1263 JUMP JUMPDEST PUSH1 0x40 MLOAD DUP1 SWAP2 SUB SWAP1 RETURN JUMPDEST PUSH2 0x266 PUSH1 0x4 DUP1 CALLDATASIZE SUB DUP2 ADD SWAP1 PUSH2 0x261 SWAP2 SWAP1 PUSH2 0x146E JUMP JUMPDEST PUSH2 0xC55 JUMP JUMPDEST STOP JUMPDEST PUSH2 0x282 PUSH1 0x4 DUP1 CALLDATASIZE SUB DUP2 ADD SWAP1 PUSH2 0x27D SWAP2 SWAP1 PUSH2 0x137D JUMP JUMPDEST PUSH2 0xCD8 JUMP JUMPDEST STOP JUMPDEST PUSH1 0x0 PUSH1 0x5 PUSH1 0x0 DUP4 DUP2 MSTORE PUSH1 0x20 ADD SWAP1 DUP2 MSTORE PUSH1 0x20 ADD PUSH1 0x0 KECCAK256 PUSH1 0x2 ADD SLOAD SWAP1 POP SWAP2 SWAP1 POP JUMP JUMPDEST PUSH1 0x2 DUP2 DUP2 SLOAD DUP2 LT PUSH2 0x2B4 JUMPI PUSH1 0x0 DUP1 REVERT JUMPDEST SWAP1 PUSH1 0x0 MSTORE PUSH1 0x20 PUSH1 0x0 KECCAK256 ADD PUSH1 0x0 SWAP2 POP SLOAD SWAP1 PUSH2 0x100 EXP SWAP1 DIV PUSH20 0xFFFFFFFFFFFFFFFFFFFFFFFFFFFFFFFFFFFFFFFF AND DUP2 JUMP JUMPDEST PUSH1 0x4 SLOAD DUP2 JUMP JUMPDEST PUSH1 0x7 DUP2 DUP2 SLOAD DUP2 LT PUSH2 0x2F9 JUMPI PUSH1 0x0 DUP1 REVERT JUMPDEST SWAP1 PUSH1 0x0 MSTORE PUSH1 0x20 PUSH1 0x0 KECCAK256 ADD PUSH1 0x0 SWAP2 POP SWAP1 POP SLOAD DUP2 JUMP JUMPDEST PUSH2 0x32C CALLER PUSH20 0xFFFFFFFFFFFFFFFFFFFFFFFFFFFFFFFFFFFFFFFF AND PUSH2 0xF9A JUMP JUMPDEST ISZERO PUSH2 0x36C JUMPI PUSH1 0x40 MLOAD PUSH32 0x8C379A000000000000000000000000000000000000000000000000000000000 DUP2 MSTORE PUSH1 0x4 ADD PUSH2 0x363 SWAP1 PUSH2 0x14F8 JUMP JUMPDEST PUSH1 0x40 MLOAD DUP1 SWAP2 SUB SWAP1 REVERT JUMPDEST ORIGIN PUSH20 0xFFFFFFFFFFFFFFFFFFFFFFFFFFFFFFFFFFFFFFFF AND CALLER PUSH20 0xFFFFFFFFFFFFFFFFFFFFFFFFFFFFFFFFFFFFFFFF AND EQ PUSH2 0x3DA JUMPI PUSH1 0x40 MLOAD PUSH32 0x8C379A000000000000000000000000000000000000000000000000000000000 DUP2 MSTORE PUSH1 0x4 ADD PUSH2 0x3D1 SWAP1 PUSH2 0x1564 JUMP JUMPDEST PUSH1 0x40 MLOAD DUP1 SWAP2 SUB SWAP1 REVERT JUMPDEST PUSH1 0x0 DUP3 DUP3 SWAP1 POP GT PUSH2 0x420 JUMPI PUSH1 0x40 MLOAD PUSH32 0x8C379A000000000000000000000000000000000000000000000000000000000 DUP2 MSTORE PUSH1 0x4 ADD PUSH2 0x417 SWAP1 PUSH2 0x15D0 JUMP JUMPDEST PUSH1 0x40 MLOAD DUP1 SWAP2 SUB SWAP1 REVERT JUMPDEST PUSH1 0x0 DUP1 PUSH1 0x0 SWAP1 POP JUMPDEST DUP4 DUP4 SWAP1 POP DUP2 LT ISZERO PUSH2 0x68F JUMPI PUSH1 0x0 PUSH1 0x5 PUSH1 0x0 DUP7 DUP7 DUP6 DUP2 DUP2 LT PUSH2 0x44C JUMPI PUSH2 0x44B PUSH2 0x15F0 JUMP JUMPDEST JUMPDEST SWAP1 POP PUSH1 0x20 MUL ADD CALLDATALOAD DUP2 MSTORE PUSH1 0x20 ADD SWAP1 DUP2 MSTORE PUSH1 0x20 ADD PUSH1 0x0 KECCAK256 PUSH1 0x40 MLOAD DUP1 PUSH1 0x80 ADD PUSH1 0x40 MSTORE SWAP1 DUP2 PUSH1 0x0 DUP3 ADD PUSH1 0x0 SWAP1 SLOAD SWAP1 PUSH2 0x100 EXP SWAP1 DIV PUSH20 0xFFFFFFFFFFFFFFFFFFFFFFFFFFFFFFFFFFFFFFFF AND PUSH20 0xFFFFFFFFFFFFFFFFFFFFFFFFFFFFFFFFFFFFFFFF AND PUSH20 0xFFFFFFFFFFFFFFFFFFFFFFFFFFFFFFFFFFFFFFFF AND DUP2 MSTORE PUSH1 0x20 ADD PUSH1 0x1 DUP3 ADD SLOAD DUP2 MSTORE PUSH1 0x20 ADD PUSH1 0x2 DUP3 ADD SLOAD DUP2 MSTORE PUSH1 0x20 ADD PUSH1 0x3 DUP3 ADD PUSH1 0x0 SWAP1 SLOAD SWAP1 PUSH2 0x100 EXP SWAP1 DIV PUSH1 0xFF AND ISZERO ISZERO ISZERO ISZERO DUP2 MSTORE POP POP SWAP1 POP CALLER PUSH20 0xFFFFFFFFFFFFFFFFFFFFFFFFFFFFFFFFFFFFFFFF AND DUP2 PUSH1 0x0 ADD MLOAD PUSH20 0xFFFFFFFFFFFFFFFFFFFFFFFFFFFFFFFFFFFFFFFF AND EQ PUSH2 0x565 JUMPI PUSH1 0x40 MLOAD PUSH32 0x8C379A000000000000000000000000000000000000000000000000000000000 DUP2 MSTORE PUSH1 0x4 ADD PUSH2 0x55C SWAP1 PUSH2 0x166B JUMP JUMPDEST PUSH1 0x40 MLOAD DUP1 SWAP2 SUB SWAP1 REVERT JUMPDEST TIMESTAMP PUSH1 0x4 SLOAD DUP3 PUSH1 0x20 ADD MLOAD PUSH2 0x578 SWAP2 SWAP1 PUSH2 0x16BA JUMP JUMPDEST LT PUSH2 0x5B8 JUMPI PUSH1 0x40 MLOAD PUSH32 0x8C379A000000000000000000000000000000000000000000000000000000000 DUP2 MSTORE PUSH1 0x4 ADD PUSH2 0x5AF SWAP1 PUSH2 0x173A JUMP JUMPDEST PUSH1 0x40 MLOAD DUP1 SWAP2 SUB SWAP1 REVERT JUMPDEST DUP1 PUSH1 0x60 ADD MLOAD ISZERO PUSH2 0x5FD JUMPI PUSH1 0x40 MLOAD PUSH32 0x8C379A000000000000000000000000000000000000000000000000000000000 DUP2 MSTORE PUSH1 0x4 ADD PUSH2 0x5F4 SWAP1 PUSH2 0x17A6 JUMP JUMPDEST PUSH1 0x40 MLOAD DUP1 SWAP2 SUB SWAP1 REVERT JUMPDEST PUSH1 0x0 PUSH2 0x621 DUP7 DUP7 DUP6 DUP2 DUP2 LT PUSH2 0x615 JUMPI PUSH2 0x614 PUSH2 0x15F0 JUMP JUMPDEST JUMPDEST SWAP1 POP PUSH1 0x20 MUL ADD CALLDATALOAD PUSH2 0xFBD JUMP JUMPDEST SWAP1 POP PUSH1 0x0 DUP3 PUSH1 0x40 ADD MLOAD DUP3 PUSH2 0x635 SWAP2 SWAP1 PUSH2 0x17C6 JUMP JUMPDEST SWAP1 POP DUP1 DUP6 PUSH2 0x643 SWAP2 SWAP1 PUSH2 0x16BA JUMP JUMPDEST SWAP5 POP DUP2 PUSH1 0x5 PUSH1 0x0 DUP10 DUP10 DUP9 DUP2 DUP2 LT PUSH2 0x65D JUMPI PUSH2 0x65C PUSH2 0x15F0 JUMP JUMPDEST JUMPDEST SWAP1 POP PUSH1 0x20 MUL ADD CALLDATALOAD DUP2 MSTORE PUSH1 0x20 ADD SWAP1 DUP2 MSTORE PUSH1 0x20 ADD PUSH1 0x0 KECCAK256 PUSH1 0x2 ADD DUP2 SWAP1 SSTORE POP POP POP POP DUP1 DUP1 PUSH2 0x687 SWAP1 PUSH2 0x17FA JUMP JUMPDEST SWAP2 POP POP PUSH2 0x428 JUMP JUMPDEST POP CALLER PUSH20 0xFFFFFFFFFFFFFFFFFFFFFFFFFFFFFFFFFFFFFFFF AND PUSH32 0x37826BE3C26DBAD83731F4B985F22FA9EF86B6D1974CD77208332B7F1F283C0C DUP5 DUP5 DUP5 PUSH1 0x40 MLOAD PUSH2 0x6DA SWAP4 SWAP3 SWAP2 SWAP1 PUSH2 0x18BD JUMP JUMPDEST PUSH1 0x40 MLOAD DUP1 SWAP2 SUB SWAP1 LOG2 POP POP POP JUMP JUMPDEST PUSH1 0x3 DUP2 DUP2 SLOAD DUP2 LT PUSH2 0x6F7 JUMPI PUSH1 0x0 DUP1 REVERT JUMPDEST SWAP1 PUSH1 0x0 MSTORE PUSH1 0x20 PUSH1 0x0 KECCAK256 ADD PUSH1 0x0 SWAP2 POP SLOAD SWAP1 PUSH2 0x100 EXP SWAP1 DIV PUSH20 0xFFFFFFFFFFFFFFFFFFFFFFFFFFFFFFFFFFFFFFFF AND DUP2 JUMP JUMPDEST PUSH2 0x72E PUSH2 0x109D JUMP JUMPDEST PUSH2 0x738 PUSH1 0x0 PUSH2 0x111B JUMP JUMPDEST JUMP JUMPDEST PUSH2 0x742 PUSH2 0x109D JUMP JUMPDEST PUSH1 0x0 DUP2 GT PUSH2 0x785 JUMPI PUSH1 0x40 MLOAD PUSH32 0x8C379A000000000000000000000000000000000000000000000000000000000 DUP2 MSTORE PUSH1 0x4 ADD PUSH2 0x77C SWAP1 PUSH2 0x193B JUMP JUMPDEST PUSH1 0x40 MLOAD DUP1 SWAP2 SUB SWAP1 REVERT JUMPDEST DUP1 PUSH1 0x4 DUP2 SWAP1 SSTORE POP PUSH32 0x8249EC545E68F6F1E1230133CA48C704D831A7F8E635DED80F3DD9E99B09BB2F DUP2 PUSH1 0x40 MLOAD PUSH2 0x7BB SWAP2 SWAP1 PUSH2 0x1263 JUMP JUMPDEST PUSH1 0x40 MLOAD DUP1 SWAP2 SUB SWAP1 LOG1 POP JUMP JUMPDEST PUSH2 0x7E5 CALLER PUSH20 0xFFFFFFFFFFFFFFFFFFFFFFFFFFFFFFFFFFFFFFFF AND PUSH2 0xF9A JUMP JUMPDEST ISZERO PUSH2 0x825 JUMPI PUSH1 0x40 MLOAD PUSH32 0x8C379A000000000000000000000000000000000000000000000000000000000 DUP2 MSTORE PUSH1 0x4 ADD PUSH2 0x81C SWAP1 PUSH2 0x14F8 JUMP JUMPDEST PUSH1 0x40 MLOAD DUP1 SWAP2 SUB SWAP1 REVERT JUMPDEST ORIGIN PUSH20 0xFFFFFFFFFFFFFFFFFFFFFFFFFFFFFFFFFFFFFFFF AND CALLER PUSH20 0xFFFFFFFFFFFFFFFFFFFFFFFFFFFFFFFFFFFFFFFF AND EQ PUSH2 0x893 JUMPI PUSH1 0x40 MLOAD PUSH32 0x8C379A000000000000000000000000000000000000000000000000000000000 DUP2 MSTORE PUSH1 0x4 ADD PUSH2 0x88A SWAP1 PUSH2 0x1564 JUMP JUMPDEST PUSH1 0x40 MLOAD DUP1 SWAP2 SUB SWAP1 REVERT JUMPDEST PUSH1 0x2 PUSH1 0x1 SLOAD SUB PUSH2 0x8D8 JUMPI PUSH1 0x40 MLOAD PUSH32 0x8C379A000000000000000000000000000000000000000000000000000000000 DUP2 MSTORE PUSH1 0x4 ADD PUSH2 0x8CF SWAP1 PUSH2 0x19A7 JUMP JUMPDEST PUSH1 0x40 MLOAD DUP1 SWAP2 SUB SWAP1 REVERT JUMPDEST PUSH1 0x2 PUSH1 0x1 DUP2 SWAP1 SSTORE POP PUSH1 0x0 DUP3 DUP3 SWAP1 POP GT PUSH2 0x926 JUMPI PUSH1 0x40 MLOAD PUSH32 0x8C379A000000000000000000000000000000000000000000000000000000000 DUP2 MSTORE PUSH1 0x4 ADD PUSH2 0x91D SWAP1 PUSH2 0x15D0 JUMP JUMPDEST PUSH1 0x40 MLOAD DUP1 SWAP2 SUB SWAP1 REVERT JUMPDEST PUSH1 0x0 JUMPDEST DUP3 DUP3 SWAP1 POP DUP2 LT ISZERO PUSH2 0xBCA JUMPI PUSH1 0x0 PUSH1 0x5 PUSH1 0x0 DUP6 DUP6 DUP6 DUP2 DUP2 LT PUSH2 0x94D JUMPI PUSH2 0x94C PUSH2 0x15F0 JUMP JUMPDEST JUMPDEST SWAP1 POP PUSH1 0x20 MUL ADD CALLDATALOAD DUP2 MSTORE PUSH1 0x20 ADD SWAP1 DUP2 MSTORE PUSH1 0x20 ADD PUSH1 0x0 KECCAK256 PUSH1 0x40 MLOAD DUP1 PUSH1 0x80 ADD PUSH1 0x40 MSTORE SWAP1 DUP2 PUSH1 0x0 DUP3 ADD PUSH1 0x0 SWAP1 SLOAD SWAP1 PUSH2 0x100 EXP SWAP1 DIV PUSH20 0xFFFFFFFFFFFFFFFFFFFFFFFFFFFFFFFFFFFFFFFF AND PUSH20 0xFFFFFFFFFFFFFFFFFFFFFFFFFFFFFFFFFFFFFFFF AND PUSH20 0xFFFFFFFFFFFFFFFFFFFFFFFFFFFFFFFFFFFFFFFF AND DUP2 MSTORE PUSH1 0x20 ADD PUSH1 0x1 DUP3 ADD SLOAD DUP2 MSTORE PUSH1 0x20 ADD PUSH1 0x2 DUP3 ADD SLOAD DUP2 MSTORE PUSH1 0x20 ADD PUSH1 0x3 DUP3 ADD PUSH1 0x0 SWAP1 SLOAD SWAP1 PUSH2 0x100 EXP SWAP1 DIV PUSH1 0xFF AND ISZERO ISZERO ISZERO ISZERO DUP2 MSTORE POP POP SWAP1 POP CALLER PUSH20 0xFFFFFFFFFFFFFFFFFFFFFFFFFFFFFFFFFFFFFFFF AND DUP2 PUSH1 0x0 ADD MLOAD PUSH20 0xFFFFFFFFFFFFFFFFFFFFFFFFFFFFFFFFFFFFFFFF AND EQ PUSH2 0xA66 JUMPI PUSH1 0x40 MLOAD PUSH32 0x8C379A000000000000000000000000000000000000000000000000000000000 DUP2 MSTORE PUSH1 0x4 ADD PUSH2 0xA5D SWAP1 PUSH2 0x166B JUMP JUMPDEST PUSH1 0x40 MLOAD DUP1 SWAP2 SUB SWAP1 REVERT JUMPDEST TIMESTAMP PUSH1 0x4 SLOAD DUP3 PUSH1 0x20 ADD MLOAD PUSH2 0xA79 SWAP2 SWAP1 PUSH2 0x16BA JUMP JUMPDEST LT PUSH2 0xAB9 JUMPI PUSH1 0x40 MLOAD PUSH32 0x8C379A000000000000000000000000000000000000000000000000000000000 DUP2 MSTORE PUSH1 0x4 ADD PUSH2 0xAB0 SWAP1 PUSH2 0x1A13 JUMP JUMPDEST PUSH1 0x40 MLOAD DUP1 SWAP2 SUB SWAP1 REVERT JUMPDEST DUP1 PUSH1 0x60 ADD MLOAD ISZERO PUSH2 0xAFE JUMPI PUSH1 0x40 MLOAD PUSH32 0x8C379A000000000000000000000000000000000000000000000000000000000 DUP2 MSTORE PUSH1 0x4 ADD PUSH2 0xAF5 SWAP1 PUSH2 0x17A6 JUMP JUMPDEST PUSH1 0x40 MLOAD DUP1 SWAP2 SUB SWAP1 REVERT JUMPDEST PUSH1 0x0 PUSH2 0xB22 DUP6 DUP6 DUP6 DUP2 DUP2 LT PUSH2 0xB16 JUMPI PUSH2 0xB15 PUSH2 0x15F0 JUMP JUMPDEST JUMPDEST SWAP1 POP PUSH1 0x20 MUL ADD CALLDATALOAD PUSH2 0xFBD JUMP JUMPDEST SWAP1 POP PUSH1 0x0 DUP3 PUSH1 0x40 ADD MLOAD DUP3 PUSH2 0xB36 SWAP2 SWAP1 PUSH2 0x17C6 JUMP JUMPDEST SWAP1 POP DUP2 PUSH1 0x5 PUSH1 0x0 DUP9 DUP9 DUP9 DUP2 DUP2 LT PUSH2 0xB50 JUMPI PUSH2 0xB4F PUSH2 0x15F0 JUMP JUMPDEST JUMPDEST SWAP1 POP PUSH1 0x20 MUL ADD CALLDATALOAD DUP2 MSTORE PUSH1 0x20 ADD SWAP1 DUP2 MSTORE PUSH1 0x20 ADD PUSH1 0x0 KECCAK256 PUSH1 0x2 ADD DUP2 SWAP1 SSTORE POP PUSH1 0x1 PUSH1 0x5 PUSH1 0x0 DUP9 DUP9 DUP9 DUP2 DUP2 LT PUSH2 0xB85 JUMPI PUSH2 0xB84 PUSH2 0x15F0 JUMP JUMPDEST JUMPDEST SWAP1 POP PUSH1 0x20 MUL ADD CALLDATALOAD DUP2 MSTORE PUSH1 0x20 ADD SWAP1 DUP2 MSTORE PUSH1 0x20 ADD PUSH1 0x0 KECCAK256 PUSH1 0x3 ADD PUSH1 0x0 PUSH2 0x100 EXP DUP2 SLOAD DUP2 PUSH1 0xFF MUL NOT AND SWAP1 DUP4 ISZERO ISZERO MUL OR SWAP1 SSTORE POP POP POP POP DUP1 DUP1 PUSH2 0xBC2 SWAP1 PUSH2 0x17FA JUMP JUMPDEST SWAP2 POP POP PUSH2 0x929 JUMP JUMPDEST POP CALLER PUSH20 0xFFFFFFFFFFFFFFFFFFFFFFFFFFFFFFFFFFFFFFFF AND PUSH32 0x5CB48022479B9AC3BFB10A27965DC010ACFFC9FC1BC9A52F0B18975B944B54CA DUP4 DUP4 PUSH1 0x40 MLOAD PUSH2 0xC13 SWAP3 SWAP2 SWAP1 PUSH2 0x1A33 JUMP JUMPDEST PUSH1 0x40 MLOAD DUP1 SWAP2 SUB SWAP1 LOG2 PUSH1 0x1 DUP1 DUP2 SWAP1 SSTORE POP POP POP JUMP JUMPDEST PUSH1 0x0 DUP1 PUSH1 0x0 SWAP1 SLOAD SWAP1 PUSH2 0x100 EXP SWAP1 DIV PUSH20 0xFFFFFFFFFFFFFFFFFFFFFFFFFFFFFFFFFFFFFFFF AND SWAP1 POP SWAP1 JUMP JUMPDEST PUSH1 0x6 SLOAD DUP2 JUMP JUMPDEST PUSH2 0xC5D PUSH2 0x109D JUMP JUMPDEST PUSH1 0x0 PUSH20 0xFFFFFFFFFFFFFFFFFFFFFFFFFFFFFFFFFFFFFFFF AND DUP2 PUSH20 0xFFFFFFFFFFFFFFFFFFFFFFFFFFFFFFFFFFFFFFFF AND SUB PUSH2 0xCCC JUMPI PUSH1 0x40 MLOAD PUSH32 0x8C379A000000000000000000000000000000000000000000000000000000000 DUP2 MSTORE PUSH1 0x4 ADD PUSH2 0xCC3 SWAP1 PUSH2 0x1AC9 JUMP JUMPDEST PUSH1 0x40 MLOAD DUP1 SWAP2 SUB SWAP1 REVERT JUMPDEST PUSH2 0xCD5 DUP2 PUSH2 0x111B JUMP JUMPDEST POP JUMP JUMPDEST PUSH2 0xCF7 CALLER PUSH20 0xFFFFFFFFFFFFFFFFFFFFFFFFFFFFFFFFFFFFFFFF AND PUSH2 0xF9A JUMP JUMPDEST ISZERO PUSH2 0xD37 JUMPI PUSH1 0x40 MLOAD PUSH32 0x8C379A000000000000000000000000000000000000000000000000000000000 DUP2 MSTORE PUSH1 0x4 ADD PUSH2 0xD2E SWAP1 PUSH2 0x14F8 JUMP JUMPDEST PUSH1 0x40 MLOAD DUP1 SWAP2 SUB SWAP1 REVERT JUMPDEST ORIGIN PUSH20 0xFFFFFFFFFFFFFFFFFFFFFFFFFFFFFFFFFFFFFFFF AND CALLER PUSH20 0xFFFFFFFFFFFFFFFFFFFFFFFFFFFFFFFFFFFFFFFF AND EQ PUSH2 0xDA5 JUMPI PUSH1 0x40 MLOAD PUSH32 0x8C379A000000000000000000000000000000000000000000000000000000000 DUP2 MSTORE PUSH1 0x4 ADD PUSH2 0xD9C SWAP1 PUSH2 0x1564 JUMP JUMPDEST PUSH1 0x40 MLOAD DUP1 SWAP2 SUB SWAP1 REVERT JUMPDEST PUSH1 0x2 PUSH1 0x1 SLOAD SUB PUSH2 0xDEA JUMPI PUSH1 0x40 MLOAD PUSH32 0x8C379A000000000000000000000000000000000000000000000000000000000 DUP2 MSTORE PUSH1 0x4 ADD PUSH2 0xDE1 SWAP1 PUSH2 0x19A7 JUMP JUMPDEST PUSH1 0x40 MLOAD DUP1 SWAP2 SUB SWAP1 REVERT JUMPDEST PUSH1 0x2 PUSH1 0x1 DUP2 SWAP1 SSTORE POP PUSH1 0x0 DUP3 DUP3 SWAP1 POP GT PUSH2 0xE38 JUMPI PUSH1 0x40 MLOAD PUSH32 0x8C379A000000000000000000000000000000000000000000000000000000000 DUP2 MSTORE PUSH1 0x4 ADD PUSH2 0xE2F SWAP1 PUSH2 0x15D0 JUMP JUMPDEST PUSH1 0x40 MLOAD DUP1 SWAP2 SUB SWAP1 REVERT JUMPDEST PUSH1 0x0 JUMPDEST DUP3 DUP3 SWAP1 POP DUP2 LT ISZERO PUSH2 0xF3E JUMPI PUSH1 0x40 MLOAD DUP1 PUSH1 0x80 ADD PUSH1 0x40 MSTORE DUP1 CALLER PUSH20 0xFFFFFFFFFFFFFFFFFFFFFFFFFFFFFFFFFFFFFFFF AND DUP2 MSTORE PUSH1 0x20 ADD TIMESTAMP DUP2 MSTORE PUSH1 0x20 ADD PUSH1 0x0 DUP2 MSTORE PUSH1 0x20 ADD PUSH1 0x0 ISZERO ISZERO DUP2 MSTORE POP PUSH1 0x5 PUSH1 0x0 DUP6 DUP6 DUP6 DUP2 DUP2 LT PUSH2 0xE98 JUMPI PUSH2 0xE97 PUSH2 0x15F0 JUMP JUMPDEST JUMPDEST SWAP1 POP PUSH1 0x20 MUL ADD CALLDATALOAD DUP2 MSTORE PUSH1 0x20 ADD SWAP1 DUP2 MSTORE PUSH1 0x20 ADD PUSH1 0x0 KECCAK256 PUSH1 0x0 DUP3 ADD MLOAD DUP2 PUSH1 0x0 ADD PUSH1 0x0 PUSH2 0x100 EXP DUP2 SLOAD DUP2 PUSH20 0xFFFFFFFFFFFFFFFFFFFFFFFFFFFFFFFFFFFFFFFF MUL NOT AND SWAP1 DUP4 PUSH20 0xFFFFFFFFFFFFFFFFFFFFFFFFFFFFFFFFFFFFFFFF AND MUL OR SWAP1 SSTORE POP PUSH1 0x20 DUP3 ADD MLOAD DUP2 PUSH1 0x1 ADD SSTORE PUSH1 0x40 DUP3 ADD MLOAD DUP2 PUSH1 0x2 ADD SSTORE PUSH1 0x60 DUP3 ADD MLOAD DUP2 PUSH1 0x3 ADD PUSH1 0x0 PUSH2 0x100 EXP DUP2 SLOAD DUP2 PUSH1 0xFF MUL NOT AND SWAP1 DUP4 ISZERO ISZERO MUL OR SWAP1 SSTORE POP SWAP1 POP POP DUP1 DUP1 PUSH2 0xF36 SWAP1 PUSH2 0x17FA JUMP JUMPDEST SWAP2 POP POP PUSH2 0xE3B JUMP JUMPDEST POP CALLER PUSH20 0xFFFFFFFFFFFFFFFFFFFFFFFFFFFFFFFFFFFFFFFF AND PUSH32 0x458BE0227BCCC9E803DEC79BD16767EEAF9925D2CE708EEED7AE1F3621F968F9 DUP4 DUP4 PUSH1 0x40 MLOAD PUSH2 0xF87 SWAP3 SWAP2 SWAP1 PUSH2 0x1A33 JUMP JUMPDEST PUSH1 0x40 MLOAD DUP1 SWAP2 SUB SWAP1 LOG2 PUSH1 0x1 DUP1 DUP2 SWAP1 SSTORE POP POP POP JUMP JUMPDEST PUSH1 0x0 DUP1 DUP3 PUSH20 0xFFFFFFFFFFFFFFFFFFFFFFFFFFFFFFFFFFFFFFFF AND EXTCODESIZE GT SWAP1 POP SWAP2 SWAP1 POP JUMP JUMPDEST PUSH1 0x0 DUP1 PUSH1 0x5 PUSH1 0x0 DUP5 DUP2 MSTORE PUSH1 0x20 ADD SWAP1 DUP2 MSTORE PUSH1 0x20 ADD PUSH1 0x0 KECCAK256 PUSH1 0x40 MLOAD DUP1 PUSH1 0x80 ADD PUSH1 0x40 MSTORE SWAP1 DUP2 PUSH1 0x0 DUP3 ADD PUSH1 0x0 SWAP1 SLOAD SWAP1 PUSH2 0x100 EXP SWAP1 DIV PUSH20 0xFFFFFFFFFFFFFFFFFFFFFFFFFFFFFFFFFFFFFFFF AND PUSH20 0xFFFFFFFFFFFFFFFFFFFFFFFFFFFFFFFFFFFFFFFF AND PUSH20 0xFFFFFFFFFFFFFFFFFFFFFFFFFFFFFFFFFFFFFFFF AND DUP2 MSTORE PUSH1 0x20 ADD PUSH1 0x1 DUP3 ADD SLOAD DUP2 MSTORE PUSH1 0x20 ADD PUSH1 0x2 DUP3 ADD SLOAD DUP2 MSTORE PUSH1 0x20 ADD PUSH1 0x3 DUP3 ADD PUSH1 0x0 SWAP1 SLOAD SWAP1 PUSH2 0x100 EXP SWAP1 DIV PUSH1 0xFF AND ISZERO ISZERO ISZERO ISZERO DUP2 MSTORE POP POP SWAP1 POP PUSH1 0x0 DUP2 PUSH1 0x20 ADD MLOAD TIMESTAMP PUSH2 0x1077 SWAP2 SWAP1 PUSH2 0x17C6 JUMP JUMPDEST SWAP1 POP PUSH1 0x0 PUSH1 0x4 SLOAD DUP3 LT ISZERO PUSH2 0x1091 JUMPI PUSH1 0x0 SWAP4 POP POP POP POP PUSH2 0x1098 JUMP JUMPDEST DUP1 SWAP4 POP POP POP POP JUMPDEST SWAP2 SWAP1 POP JUMP JUMPDEST PUSH2 0x10A5 PUSH2 0x11DF JUMP JUMPDEST PUSH20 0xFFFFFFFFFFFFFFFFFFFFFFFFFFFFFFFFFFFFFFFF AND PUSH2 0x10C3 PUSH2 0xC26 JUMP JUMPDEST PUSH20 0xFFFFFFFFFFFFFFFFFFFFFFFFFFFFFFFFFFFFFFFF AND EQ PUSH2 0x1119 JUMPI PUSH1 0x40 MLOAD PUSH32 0x8C379A000000000000000000000000000000000000000000000000000000000 DUP2 MSTORE PUSH1 0x4 ADD PUSH2 0x1110 SWAP1 PUSH2 0x1B35 JUMP JUMPDEST PUSH1 0x40 MLOAD DUP1 SWAP2 SUB SWAP1 REVERT JUMPDEST JUMP JUMPDEST PUSH1 0x0 DUP1 PUSH1 0x0 SWAP1 SLOAD SWAP1 PUSH2 0x100 EXP SWAP1 DIV PUSH20 0xFFFFFFFFFFFFFFFFFFFFFFFFFFFFFFFFFFFFFFFF AND SWAP1 POP DUP2 PUSH1 0x0 DUP1 PUSH2 0x100 EXP DUP2 SLOAD DUP2 PUSH20 0xFFFFFFFFFFFFFFFFFFFFFFFFFFFFFFFFFFFFFFFF MUL NOT AND SWAP1 DUP4 PUSH20 0xFFFFFFFFFFFFFFFFFFFFFFFFFFFFFFFFFFFFFFFF AND MUL OR SWAP1 SSTORE POP DUP2 PUSH20 0xFFFFFFFFFFFFFFFFFFFFFFFFFFFFFFFFFFFFFFFF AND DUP2 PUSH20 0xFFFFFFFFFFFFFFFFFFFFFFFFFFFFFFFFFFFFFFFF AND PUSH32 0x8BE0079C531659141344CD1FD0A4F28419497F9722A3DAAFE3B4186F6B6457E0 PUSH1 0x40 MLOAD PUSH1 0x40 MLOAD DUP1 SWAP2 SUB SWAP1 LOG3 POP POP JUMP JUMPDEST PUSH1 0x0 CALLER SWAP1 POP SWAP1 JUMP JUMPDEST PUSH1 0x0 DUP1 REVERT JUMPDEST PUSH1 0x0 DUP1 REVERT JUMPDEST PUSH1 0x0 DUP2 SWAP1 POP SWAP2 SWAP1 POP JUMP JUMPDEST PUSH2 0x1204 DUP2 PUSH2 0x11F1 JUMP JUMPDEST DUP2 EQ PUSH2 0x120F JUMPI PUSH1 0x0 DUP1 REVERT JUMPDEST POP JUMP JUMPDEST PUSH1 0x0 DUP2 CALLDATALOAD SWAP1 POP PUSH2 0x1221 DUP2 PUSH2 0x11FB JUMP JUMPDEST SWAP3 SWAP2 POP POP JUMP JUMPDEST PUSH1 0x0 PUSH1 0x20 DUP3 DUP5 SUB SLT ISZERO PUSH2 0x123D JUMPI PUSH2 0x123C PUSH2 0x11E7 JUMP JUMPDEST JUMPDEST PUSH1 0x0 PUSH2 0x124B DUP5 DUP3 DUP6 ADD PUSH2 0x1212 JUMP JUMPDEST SWAP2 POP POP SWAP3 SWAP2 POP POP JUMP JUMPDEST PUSH2 0x125D DUP2 PUSH2 0x11F1 JUMP JUMPDEST DUP3 MSTORE POP POP JUMP JUMPDEST PUSH1 0x0 PUSH1 0x20 DUP3 ADD SWAP1 POP PUSH2 0x1278 PUSH1 0x0 DUP4 ADD DUP5 PUSH2 0x1254 JUMP JUMPDEST SWAP3 SWAP2 POP POP JUMP JUMPDEST PUSH1 0x0 PUSH20 0xFFFFFFFFFFFFFFFFFFFFFFFFFFFFFFFFFFFFFFFF DUP3 AND SWAP1 POP SWAP2 SWAP1 POP JUMP JUMPDEST PUSH1 0x0 DUP2 SWAP1 POP SWAP2 SWAP1 POP JUMP JUMPDEST PUSH1 0x0 PUSH2 0x12C3 PUSH2 0x12BE PUSH2 0x12B9 DUP5 PUSH2 0x127E JUMP JUMPDEST PUSH2 0x129E JUMP JUMPDEST PUSH2 0x127E JUMP JUMPDEST SWAP1 POP SWAP2 SWAP1 POP JUMP JUMPDEST PUSH1 0x0 PUSH2 0x12D5 DUP3 PUSH2 0x12A8 JUMP JUMPDEST SWAP1 POP SWAP2 SWAP1 POP JUMP JUMPDEST PUSH1 0x0 PUSH2 0x12E7 DUP3 PUSH2 0x12CA JUMP JUMPDEST SWAP1 POP SWAP2 SWAP1 POP JUMP JUMPDEST PUSH2 0x12F7 DUP2 PUSH2 0x12DC JUMP JUMPDEST DUP3 MSTORE POP POP JUMP JUMPDEST PUSH1 0x0 PUSH1 0x20 DUP3 ADD SWAP1 POP PUSH2 0x1312 PUSH1 0x0 DUP4 ADD DUP5 PUSH2 0x12EE JUMP JUMPDEST SWAP3 SWAP2 POP POP JUMP JUMPDEST PUSH1 0x0 DUP1 REVERT JUMPDEST PUSH1 0x0 DUP1 REVERT JUMPDEST PUSH1 0x0 DUP1 REVERT JUMPDEST PUSH1 0x0 DUP1 DUP4 PUSH1 0x1F DUP5 ADD SLT PUSH2 0x133D JUMPI PUSH2 0x133C PUSH2 0x1318 JUMP JUMPDEST JUMPDEST DUP3 CALLDATALOAD SWAP1 POP PUSH8 0xFFFFFFFFFFFFFFFF DUP2 GT ISZERO PUSH2 0x135A JUMPI PUSH2 0x1359 PUSH2 0x131D JUMP JUMPDEST JUMPDEST PUSH1 0x20 DUP4 ADD SWAP2 POP DUP4 PUSH1 0x20 DUP3 MUL DUP4 ADD GT ISZERO PUSH2 0x1376 JUMPI PUSH2 0x1375 PUSH2 0x1322 JUMP JUMPDEST JUMPDEST SWAP3 POP SWAP3 SWAP1 POP JUMP JUMPDEST PUSH1 0x0 DUP1 PUSH1 0x20 DUP4 DUP6 SUB SLT ISZERO PUSH2 0x1394 JUMPI PUSH2 0x1393 PUSH2 0x11E7 JUMP JUMPDEST JUMPDEST PUSH1 0x0 DUP4 ADD CALLDATALOAD PUSH8 0xFFFFFFFFFFFFFFFF DUP2 GT ISZERO PUSH2 0x13B2 JUMPI PUSH2 0x13B1 PUSH2 0x11EC JUMP JUMPDEST JUMPDEST PUSH2 0x13BE DUP6 DUP3 DUP7 ADD PUSH2 0x1327 JUMP JUMPDEST SWAP3 POP SWAP3 POP POP SWAP3 POP SWAP3 SWAP1 POP JUMP JUMPDEST PUSH1 0x0 PUSH2 0x13D5 DUP3 PUSH2 0x12CA JUMP JUMPDEST SWAP1 POP SWAP2 SWAP1 POP JUMP JUMPDEST PUSH2 0x13E5 DUP2 PUSH2 0x13CA JUMP JUMPDEST DUP3 MSTORE POP POP JUMP JUMPDEST PUSH1 0x0 PUSH1 0x20 DUP3 ADD SWAP1 POP PUSH2 0x1400 PUSH1 0x0 DUP4 ADD DUP5 PUSH2 0x13DC JUMP JUMPDEST SWAP3 SWAP2 POP POP JUMP JUMPDEST PUSH1 0x0 PUSH2 0x1411 DUP3 PUSH2 0x127E JUMP JUMPDEST SWAP1 POP SWAP2 SWAP1 POP JUMP JUMPDEST PUSH2 0x1421 DUP2 PUSH2 0x1406 JUMP JUMPDEST DUP3 MSTORE POP POP JUMP JUMPDEST PUSH1 0x0 PUSH1 0x20 DUP3 ADD SWAP1 POP PUSH2 0x143C PUSH1 0x0 DUP4 ADD DUP5 PUSH2 0x1418 JUMP JUMPDEST SWAP3 SWAP2 POP POP JUMP JUMPDEST PUSH2 0x144B DUP2 PUSH2 0x1406 JUMP JUMPDEST DUP2 EQ PUSH2 0x1456 JUMPI PUSH1 0x0 DUP1 REVERT JUMPDEST POP JUMP JUMPDEST PUSH1 0x0 DUP2 CALLDATALOAD SWAP1 POP PUSH2 0x1468 DUP2 PUSH2 0x1442 JUMP JUMPDEST SWAP3 SWAP2 POP POP JUMP JUMPDEST PUSH1 0x0 PUSH1 0x20 DUP3 DUP5 SUB SLT ISZERO PUSH2 0x1484 JUMPI PUSH2 0x1483 PUSH2 0x11E7 JUMP JUMPDEST JUMPDEST PUSH1 0x0 PUSH2 0x1492 DUP5 DUP3 DUP6 ADD PUSH2 0x1459 JUMP JUMPDEST SWAP2 POP POP SWAP3 SWAP2 POP POP JUMP JUMPDEST PUSH1 0x0 DUP3 DUP3 MSTORE PUSH1 0x20 DUP3 ADD SWAP1 POP SWAP3 SWAP2 POP POP JUMP JUMPDEST PUSH32 0x436F6E7472616374206E6F7420616C6C6F776564000000000000000000000000 PUSH1 0x0 DUP3 ADD MSTORE POP JUMP JUMPDEST PUSH1 0x0 PUSH2 0x14E2 PUSH1 0x14 DUP4 PUSH2 0x149B JUMP JUMPDEST SWAP2 POP PUSH2 0x14ED DUP3 PUSH2 0x14AC JUMP JUMPDEST PUSH1 0x20 DUP3 ADD SWAP1 POP SWAP2 SWAP1 POP JUMP JUMPDEST PUSH1 0x0 PUSH1 0x20 DUP3 ADD SWAP1 POP DUP2 DUP2 SUB PUSH1 0x0 DUP4 ADD MSTORE PUSH2 0x1511 DUP2 PUSH2 0x14D5 JUMP JUMPDEST SWAP1 POP SWAP2 SWAP1 POP JUMP JUMPDEST PUSH32 0x50726F787920636F6E7472616374206E6F7420616C6C6F776564000000000000 PUSH1 0x0 DUP3 ADD MSTORE POP JUMP JUMPDEST PUSH1 0x0 PUSH2 0x154E PUSH1 0x1A DUP4 PUSH2 0x149B JUMP JUMPDEST SWAP2 POP PUSH2 0x1559 DUP3 PUSH2 0x1518 JUMP JUMPDEST PUSH1 0x20 DUP3 ADD SWAP1 POP SWAP2 SWAP1 POP JUMP JUMPDEST PUSH1 0x0 PUSH1 0x20 DUP3 ADD SWAP1 POP DUP2 DUP2 SUB PUSH1 0x0 DUP4 ADD MSTORE PUSH2 0x157D DUP2 PUSH2 0x1541 JUMP JUMPDEST SWAP1 POP SWAP2 SWAP1 POP JUMP JUMPDEST PUSH32 0x4E6F20746F6B656E730000000000000000000000000000000000000000000000 PUSH1 0x0 DUP3 ADD MSTORE POP JUMP JUMPDEST PUSH1 0x0 PUSH2 0x15BA PUSH1 0x9 DUP4 PUSH2 0x149B JUMP JUMPDEST SWAP2 POP PUSH2 0x15C5 DUP3 PUSH2 0x1584 JUMP JUMPDEST PUSH1 0x20 DUP3 ADD SWAP1 POP SWAP2 SWAP1 POP JUMP JUMPDEST PUSH1 0x0 PUSH1 0x20 DUP3 ADD SWAP1 POP DUP2 DUP2 SUB PUSH1 0x0 DUP4 ADD MSTORE PUSH2 0x15E9 DUP2 PUSH2 0x15AD JUMP JUMPDEST SWAP1 POP SWAP2 SWAP1 POP JUMP JUMPDEST PUSH32 0x4E487B7100000000000000000000000000000000000000000000000000000000 PUSH1 0x0 MSTORE PUSH1 0x32 PUSH1 0x4 MSTORE PUSH1 0x24 PUSH1 0x0 REVERT JUMPDEST PUSH32 0x4E6F74206120746F6B656E206F776E6572000000000000000000000000000000 PUSH1 0x0 DUP3 ADD MSTORE POP JUMP JUMPDEST PUSH1 0x0 PUSH2 0x1655 PUSH1 0x11 DUP4 PUSH2 0x149B JUMP JUMPDEST SWAP2 POP PUSH2 0x1660 DUP3 PUSH2 0x161F JUMP JUMPDEST PUSH1 0x20 DUP3 ADD SWAP1 POP SWAP2 SWAP1 POP JUMP JUMPDEST PUSH1 0x0 PUSH1 0x20 DUP3 ADD SWAP1 POP DUP2 DUP2 SUB PUSH1 0x0 DUP4 ADD MSTORE PUSH2 0x1684 DUP2 PUSH2 0x1648 JUMP JUMPDEST SWAP1 POP SWAP2 SWAP1 POP JUMP JUMPDEST PUSH32 0x4E487B7100000000000000000000000000000000000000000000000000000000 PUSH1 0x0 MSTORE PUSH1 0x11 PUSH1 0x4 MSTORE PUSH1 0x24 PUSH1 0x0 REVERT JUMPDEST PUSH1 0x0 PUSH2 0x16C5 DUP3 PUSH2 0x11F1 JUMP JUMPDEST SWAP2 POP PUSH2 0x16D0 DUP4 PUSH2 0x11F1 JUMP JUMPDEST SWAP3 POP DUP3 DUP3 ADD SWAP1 POP DUP1 DUP3 GT ISZERO PUSH2 0x16E8 JUMPI PUSH2 0x16E7 PUSH2 0x168B JUMP JUMPDEST JUMPDEST SWAP3 SWAP2 POP POP JUMP JUMPDEST PUSH32 0x4E6F742061626C6520746F20636C61696D207965740000000000000000000000 PUSH1 0x0 DUP3 ADD MSTORE POP JUMP JUMPDEST PUSH1 0x0 PUSH2 0x1724 PUSH1 0x15 DUP4 PUSH2 0x149B JUMP JUMPDEST SWAP2 POP PUSH2 0x172F DUP3 PUSH2 0x16EE JUMP JUMPDEST PUSH1 0x20 DUP3 ADD SWAP1 POP SWAP2 SWAP1 POP JUMP JUMPDEST PUSH1 0x0 PUSH1 0x20 DUP3 ADD SWAP1 POP DUP2 DUP2 SUB PUSH1 0x0 DUP4 ADD MSTORE PUSH2 0x1753 DUP2 PUSH2 0x1717 JUMP JUMPDEST SWAP1 POP SWAP2 SWAP1 POP JUMP JUMPDEST PUSH32 0x416C726561647920756E6C6F636B656400000000000000000000000000000000 PUSH1 0x0 DUP3 ADD MSTORE POP JUMP JUMPDEST PUSH1 0x0 PUSH2 0x1790 PUSH1 0x10 DUP4 PUSH2 0x149B JUMP JUMPDEST SWAP2 POP PUSH2 0x179B DUP3 PUSH2 0x175A JUMP JUMPDEST PUSH1 0x20 DUP3 ADD SWAP1 POP SWAP2 SWAP1 POP JUMP JUMPDEST PUSH1 0x0 PUSH1 0x20 DUP3 ADD SWAP1 POP DUP2 DUP2 SUB PUSH1 0x0 DUP4 ADD MSTORE PUSH2 0x17BF DUP2 PUSH2 0x1783 JUMP JUMPDEST SWAP1 POP SWAP2 SWAP1 POP JUMP JUMPDEST PUSH1 0x0 PUSH2 0x17D1 DUP3 PUSH2 0x11F1 JUMP JUMPDEST SWAP2 POP PUSH2 0x17DC DUP4 PUSH2 0x11F1 JUMP JUMPDEST SWAP3 POP DUP3 DUP3 SUB SWAP1 POP DUP2 DUP2 GT ISZERO PUSH2 0x17F4 JUMPI PUSH2 0x17F3 PUSH2 0x168B JUMP JUMPDEST JUMPDEST SWAP3 SWAP2 POP POP JUMP JUMPDEST PUSH1 0x0 PUSH2 0x1805 DUP3 PUSH2 0x11F1 JUMP JUMPDEST SWAP2 POP PUSH32 0xFFFFFFFFFFFFFFFFFFFFFFFFFFFFFFFFFFFFFFFFFFFFFFFFFFFFFFFFFFFFFFFF DUP3 SUB PUSH2 0x1837 JUMPI PUSH2 0x1836 PUSH2 0x168B JUMP JUMPDEST JUMPDEST PUSH1 0x1 DUP3 ADD SWAP1 POP SWAP2 SWAP1 POP JUMP JUMPDEST PUSH1 0x0 DUP3 DUP3 MSTORE PUSH1 0x20 DUP3 ADD SWAP1 POP SWAP3 SWAP2 POP POP JUMP JUMPDEST PUSH1 0x0 DUP1 REVERT JUMPDEST DUP3 DUP2 DUP4 CALLDATACOPY POP POP POP JUMP JUMPDEST PUSH1 0x0 PUSH2 0x186D DUP4 DUP6 PUSH2 0x1842 JUMP JUMPDEST SWAP4 POP PUSH32 0x7FFFFFFFFFFFFFFFFFFFFFFFFFFFFFFFFFFFFFFFFFFFFFFFFFFFFFFFFFFFFFF DUP4 GT ISZERO PUSH2 0x18A0 JUMPI PUSH2 0x189F PUSH2 0x1853 JUMP JUMPDEST JUMPDEST PUSH1 0x20 DUP4 MUL SWAP3 POP PUSH2 0x18B1 DUP4 DUP6 DUP5 PUSH2 0x1858 JUMP JUMPDEST DUP3 DUP5 ADD SWAP1 POP SWAP4 SWAP3 POP POP POP JUMP JUMPDEST PUSH1 0x0 PUSH1 0x40 DUP3 ADD SWAP1 POP DUP2 DUP2 SUB PUSH1 0x0 DUP4 ADD MSTORE PUSH2 0x18D8 DUP2 DUP6 DUP8 PUSH2 0x1861 JUMP JUMPDEST SWAP1 POP PUSH2 0x18E7 PUSH1 0x20 DUP4 ADD DUP5 PUSH2 0x1254 JUMP JUMPDEST SWAP5 SWAP4 POP POP POP POP JUMP JUMPDEST PUSH32 0x496E76616C6964206C6F636B20706572696F642E000000000000000000000000 PUSH1 0x0 DUP3 ADD MSTORE POP JUMP JUMPDEST PUSH1 0x0 PUSH2 0x1925 PUSH1 0x14 DUP4 PUSH2 0x149B JUMP JUMPDEST SWAP2 POP PUSH2 0x1930 DUP3 PUSH2 0x18EF JUMP JUMPDEST PUSH1 0x20 DUP3 ADD SWAP1 POP SWAP2 SWAP1 POP JUMP JUMPDEST PUSH1 0x0 PUSH1 0x20 DUP3 ADD SWAP1 POP DUP2 DUP2 SUB PUSH1 0x0 DUP4 ADD MSTORE PUSH2 0x1954 DUP2 PUSH2 0x1918 JUMP JUMPDEST SWAP1 POP SWAP2 SWAP1 POP JUMP JUMPDEST PUSH32 0x5265656E7472616E637947756172643A207265656E7472616E742063616C6C00 PUSH1 0x0 DUP3 ADD MSTORE POP JUMP JUMPDEST PUSH1 0x0 PUSH2 0x1991 PUSH1 0x1F DUP4 PUSH2 0x149B JUMP JUMPDEST SWAP2 POP PUSH2 0x199C DUP3 PUSH2 0x195B JUMP JUMPDEST PUSH1 0x20 DUP3 ADD SWAP1 POP SWAP2 SWAP1 POP JUMP JUMPDEST PUSH1 0x0 PUSH1 0x20 DUP3 ADD SWAP1 POP DUP2 DUP2 SUB PUSH1 0x0 DUP4 ADD MSTORE PUSH2 0x19C0 DUP2 PUSH2 0x1984 JUMP JUMPDEST SWAP1 POP SWAP2 SWAP1 POP JUMP JUMPDEST PUSH32 0x4E6F742061626C6520746F20756E6C6F636B2079657400000000000000000000 PUSH1 0x0 DUP3 ADD MSTORE POP JUMP JUMPDEST PUSH1 0x0 PUSH2 0x19FD PUSH1 0x16 DUP4 PUSH2 0x149B JUMP JUMPDEST SWAP2 POP PUSH2 0x1A08 DUP3 PUSH2 0x19C7 JUMP JUMPDEST PUSH1 0x20 DUP3 ADD SWAP1 POP SWAP2 SWAP1 POP JUMP JUMPDEST PUSH1 0x0 PUSH1 0x20 DUP3 ADD SWAP1 POP DUP2 DUP2 SUB PUSH1 0x0 DUP4 ADD MSTORE PUSH2 0x1A2C DUP2 PUSH2 0x19F0 JUMP JUMPDEST SWAP1 POP SWAP2 SWAP1 POP JUMP JUMPDEST PUSH1 0x0 PUSH1 0x20 DUP3 ADD SWAP1 POP DUP2 DUP2 SUB PUSH1 0x0 DUP4 ADD MSTORE PUSH2 0x1A4E DUP2 DUP5 DUP7 PUSH2 0x1861 JUMP JUMPDEST SWAP1 POP SWAP4 SWAP3 POP POP POP JUMP JUMPDEST PUSH32 0x4F776E61626C653A206E6577206F776E657220697320746865207A65726F2061 PUSH1 0x0 DUP3 ADD MSTORE PUSH32 0x6464726573730000000000000000000000000000000000000000000000000000 PUSH1 0x20 DUP3 ADD MSTORE POP JUMP JUMPDEST PUSH1 0x0 PUSH2 0x1AB3 PUSH1 0x26 DUP4 PUSH2 0x149B JUMP JUMPDEST SWAP2 POP PUSH2 0x1ABE DUP3 PUSH2 0x1A57 JUMP JUMPDEST PUSH1 0x40 DUP3 ADD SWAP1 POP SWAP2 SWAP1 POP JUMP JUMPDEST PUSH1 0x0 PUSH1 0x20 DUP3 ADD SWAP1 POP DUP2 DUP2 SUB PUSH1 0x0 DUP4 ADD MSTORE PUSH2 0x1AE2 DUP2 PUSH2 0x1AA6 JUMP JUMPDEST SWAP1 POP SWAP2 SWAP1 POP JUMP JUMPDEST PUSH32 0x4F776E61626C653A2063616C6C6572206973206E6F7420746865206F776E6572 PUSH1 0x0 DUP3 ADD MSTORE POP JUMP JUMPDEST PUSH1 0x0 PUSH2 0x1B1F PUSH1 0x20 DUP4 PUSH2 0x149B JUMP JUMPDEST SWAP2 POP PUSH2 0x1B2A DUP3 PUSH2 0x1AE9 JUMP JUMPDEST PUSH1 0x20 DUP3 ADD SWAP1 POP SWAP2 SWAP1 POP JUMP JUMPDEST PUSH1 0x0 PUSH1 0x20 DUP3 ADD SWAP1 POP DUP2 DUP2 SUB PUSH1 0x0 DUP4 ADD MSTORE PUSH2 0x1B4E DUP2 PUSH2 0x1B12 JUMP JUMPDEST SWAP1 POP SWAP2 SWAP1 POP JUMP INVALID LOG2 PUSH5 0x6970667358 0x22 SLT KECCAK256 EQ SWAP1 BASEFEE 0xCF 0xE4 0xAE 0xC1 GASPRICE 0xAD 0xE8 0xAB BASEFEE CREATE SGT PUSH18 0xA8407A48FE4FBB06173B7B299B1ED9190164 PUSH20 0x6F6C634300081000330000000000000000000000 "
				},
				"gasEstimates": {
					"creation": {
						"codeDepositCost": "1410200",
						"executionCost": "infinite",
						"totalCost": "infinite"
					},
					"external": {
						"WAVE()": "2473",
						"claimRewards(uint256[])": "infinite",
						"claimedRewards(uint256)": "infinite",
						"lockNFT(uint256[])": "infinite",
						"lockPeriod()": "2474",
						"owner()": "2544",
						"renounceOwnership()": "30421",
						"rewardsPerWave(uint256)": "infinite",
						"rewardsToken(uint256)": "infinite",
						"setLockPeriod(uint256)": "infinite",
						"stakeNFT(uint256)": "infinite",
						"transferOwnership(address)": "30810",
						"unlockNFT(uint256[])": "infinite"
					},
					"internal": {
						"_rewardAmount(uint256)": "infinite"
					}
				},
				"methodIdentifiers": {
					"WAVE()": "c69d1923",
					"claimRewards(uint256[])": "5eac6239",
					"claimedRewards(uint256)": "20281a98",
					"lockNFT(uint256[])": "ff5d8450",
					"lockPeriod()": "3fd8b02f",
					"owner()": "8da5cb5b",
					"renounceOwnership()": "715018a6",
					"rewardsPerWave(uint256)": "422dc713",
					"rewardsToken(uint256)": "30d10275",
					"setLockPeriod(uint256)": "779972da",
					"stakeNFT(uint256)": "6eb604e0",
					"transferOwnership(address)": "f2fde38b",
					"unlockNFT(uint256[])": "849a1e1d"
				}
			},
			"storageLayout": {
				"storage": [
					{
						"astId": 7,
						"contract": "contracts/Staking.sol:NFTStaking1",
						"label": "_owner",
						"offset": 0,
						"slot": "0",
						"type": "t_address"
					},
					{
						"astId": 123,
						"contract": "contracts/Staking.sol:NFTStaking1",
						"label": "_status",
						"offset": 0,
						"slot": "1",
						"type": "t_uint256"
					},
					{
						"astId": 616,
						"contract": "contracts/Staking.sol:NFTStaking1",
						"label": "rewardsToken",
						"offset": 0,
						"slot": "2",
						"type": "t_array(t_contract(IRewardsToken)1148)dyn_storage"
					},
					{
						"astId": 620,
						"contract": "contracts/Staking.sol:NFTStaking1",
						"label": "stakeNFT",
						"offset": 0,
						"slot": "3",
						"type": "t_array(t_contract(IERC721)268)dyn_storage"
					},
					{
						"astId": 622,
						"contract": "contracts/Staking.sol:NFTStaking1",
						"label": "lockPeriod",
						"offset": 0,
						"slot": "4",
						"type": "t_uint256"
					},
					{
						"astId": 636,
						"contract": "contracts/Staking.sol:NFTStaking1",
						"label": "lockInfo",
						"offset": 0,
						"slot": "5",
						"type": "t_mapping(t_uint256,t_struct(LockInfo)631_storage)"
					},
					{
						"astId": 639,
						"contract": "contracts/Staking.sol:NFTStaking1",
						"label": "WAVE",
						"offset": 0,
						"slot": "6",
						"type": "t_uint256"
					},
					{
						"astId": 642,
						"contract": "contracts/Staking.sol:NFTStaking1",
						"label": "rewardsPerWave",
						"offset": 0,
						"slot": "7",
						"type": "t_array(t_uint256)dyn_storage"
					}
				],
				"types": {
					"t_address": {
						"encoding": "inplace",
						"label": "address",
						"numberOfBytes": "20"
					},
					"t_array(t_contract(IERC721)268)dyn_storage": {
						"base": "t_contract(IERC721)268",
						"encoding": "dynamic_array",
						"label": "contract IERC721[]",
						"numberOfBytes": "32"
					},
					"t_array(t_contract(IRewardsToken)1148)dyn_storage": {
						"base": "t_contract(IRewardsToken)1148",
						"encoding": "dynamic_array",
						"label": "contract IRewardsToken[]",
						"numberOfBytes": "32"
					},
					"t_array(t_uint256)dyn_storage": {
						"base": "t_uint256",
						"encoding": "dynamic_array",
						"label": "uint256[]",
						"numberOfBytes": "32"
					},
					"t_bool": {
						"encoding": "inplace",
						"label": "bool",
						"numberOfBytes": "1"
					},
					"t_contract(IERC721)268": {
						"encoding": "inplace",
						"label": "contract IERC721",
						"numberOfBytes": "20"
					},
					"t_contract(IRewardsToken)1148": {
						"encoding": "inplace",
						"label": "contract IRewardsToken",
						"numberOfBytes": "20"
					},
					"t_mapping(t_uint256,t_struct(LockInfo)631_storage)": {
						"encoding": "mapping",
						"key": "t_uint256",
						"label": "mapping(uint256 => struct NFTStaking1.LockInfo)",
						"numberOfBytes": "32",
						"value": "t_struct(LockInfo)631_storage"
					},
					"t_struct(LockInfo)631_storage": {
						"encoding": "inplace",
						"label": "struct NFTStaking1.LockInfo",
						"members": [
							{
								"astId": 624,
								"contract": "contracts/Staking.sol:NFTStaking1",
								"label": "owner",
								"offset": 0,
								"slot": "0",
								"type": "t_address"
							},
							{
								"astId": 626,
								"contract": "contracts/Staking.sol:NFTStaking1",
								"label": "lockedTime",
								"offset": 0,
								"slot": "1",
								"type": "t_uint256"
							},
							{
								"astId": 628,
								"contract": "contracts/Staking.sol:NFTStaking1",
								"label": "claimedRewards",
								"offset": 0,
								"slot": "2",
								"type": "t_uint256"
							},
							{
								"astId": 630,
								"contract": "contracts/Staking.sol:NFTStaking1",
								"label": "isUnlocked",
								"offset": 0,
								"slot": "3",
								"type": "t_bool"
							}
						],
						"numberOfBytes": "128"
					},
					"t_uint256": {
						"encoding": "inplace",
						"label": "uint256",
						"numberOfBytes": "32"
					}
				}
			},
			"userdoc": {
				"kind": "user",
				"methods": {
					"WAVE()": {
						"notice": "CONSTANTS "
					}
				},
				"version": 1
			}
		}
	}
}