{
	"contracts/Staking.sol": {
		"NFTStaking1": {
			"abi": [
				{
					"inputs": [
						{
							"internalType": "address[]",
							"name": "_stakeNFT",
							"type": "address[]"
						},
						{
							"internalType": "address[]",
							"name": "_rewardsToken",
							"type": "address[]"
						},
						{
							"internalType": "uint256",
							"name": "_lockPeriod",
							"type": "uint256"
						},
						{
							"internalType": "uint256[]",
							"name": "_rewardPerWave",
							"type": "uint256[]"
						},
						{
							"internalType": "uint256[]",
							"name": "_rewardPercentage",
							"type": "uint256[]"
						},
						{
							"internalType": "uint256",
							"name": "_wave",
							"type": "uint256"
						}
					],
					"stateMutability": "nonpayable",
					"type": "constructor"
				},
				{
					"anonymous": false,
					"inputs": [
						{
							"indexed": false,
							"internalType": "uint256",
							"name": "lockPeriod",
							"type": "uint256"
						}
					],
					"name": "LockPeriodUpdated",
					"type": "event"
				},
				{
					"anonymous": false,
					"inputs": [
						{
							"indexed": true,
							"internalType": "address",
							"name": "owner",
							"type": "address"
						},
						{
							"indexed": false,
							"internalType": "uint256[]",
							"name": "tokenIds",
							"type": "uint256[]"
						}
					],
					"name": "NFTLocked",
					"type": "event"
				},
				{
					"anonymous": false,
					"inputs": [
						{
							"indexed": true,
							"internalType": "address",
							"name": "owner",
							"type": "address"
						},
						{
							"indexed": false,
							"internalType": "uint256[]",
							"name": "tokenIds",
							"type": "uint256[]"
						}
					],
					"name": "NFTUnLocked",
					"type": "event"
				},
				{
					"anonymous": false,
					"inputs": [
						{
							"indexed": true,
							"internalType": "address",
							"name": "previousOwner",
							"type": "address"
						},
						{
							"indexed": true,
							"internalType": "address",
							"name": "newOwner",
							"type": "address"
						}
					],
					"name": "OwnershipTransferred",
					"type": "event"
				},
				{
					"anonymous": false,
					"inputs": [
						{
							"indexed": true,
							"internalType": "address",
							"name": "owner",
							"type": "address"
						},
						{
							"indexed": false,
							"internalType": "uint256[]",
							"name": "tokenIds",
							"type": "uint256[]"
						},
						{
							"indexed": false,
							"internalType": "uint256",
							"name": "rewards",
							"type": "uint256"
						}
					],
					"name": "RewardsClaimed",
					"type": "event"
				},
				{
					"inputs": [],
					"name": "WAVE",
					"outputs": [
						{
							"internalType": "uint256",
							"name": "",
							"type": "uint256"
						}
					],
					"stateMutability": "view",
					"type": "function"
				},
				{
					"inputs": [
						{
							"internalType": "uint256[]",
							"name": "_tokenIds",
							"type": "uint256[]"
						},
						{
							"internalType": "contract IERC721",
							"name": "nftAddress",
							"type": "address"
						}
					],
					"name": "claimRewards",
					"outputs": [],
					"stateMutability": "nonpayable",
					"type": "function"
				},
				{
					"inputs": [
						{
							"internalType": "uint256",
							"name": "_tokenId",
							"type": "uint256"
						}
					],
					"name": "claimedRewards",
					"outputs": [
						{
							"internalType": "uint256",
							"name": "",
							"type": "uint256"
						}
					],
					"stateMutability": "view",
					"type": "function"
				},
				{
					"inputs": [
						{
							"internalType": "uint256",
							"name": "",
							"type": "uint256"
						}
					],
					"name": "lockInfo",
					"outputs": [
						{
							"internalType": "address",
							"name": "owner",
							"type": "address"
						},
						{
							"internalType": "uint256",
							"name": "lockedTime",
							"type": "uint256"
						},
						{
							"internalType": "uint256",
							"name": "claimedRewards",
							"type": "uint256"
						},
						{
							"internalType": "bool",
							"name": "isUnlocked",
							"type": "bool"
						},
						{
							"internalType": "contract IERC721",
							"name": "contractAddress",
							"type": "address"
						}
					],
					"stateMutability": "view",
					"type": "function"
				},
				{
					"inputs": [
						{
							"internalType": "uint256[]",
							"name": "_tokenIds",
							"type": "uint256[]"
						},
						{
							"internalType": "contract IERC721",
							"name": "nftAddress",
							"type": "address"
						}
					],
					"name": "lockNFT",
					"outputs": [],
					"stateMutability": "nonpayable",
					"type": "function"
				},
				{
					"inputs": [],
					"name": "lockPeriod",
					"outputs": [
						{
							"internalType": "uint256",
							"name": "",
							"type": "uint256"
						}
					],
					"stateMutability": "view",
					"type": "function"
				},
				{
					"inputs": [
						{
							"internalType": "contract IERC721",
							"name": "",
							"type": "address"
						}
					],
					"name": "nftInfo",
					"outputs": [
						{
							"internalType": "contract IRewardsToken",
							"name": "rewardsToken",
							"type": "address"
						},
						{
							"internalType": "uint256",
							"name": "rewardsPerWave",
							"type": "uint256"
						},
						{
							"internalType": "uint256",
							"name": "rewardPercentage",
							"type": "uint256"
						}
					],
					"stateMutability": "view",
					"type": "function"
				},
				{
					"inputs": [],
					"name": "owner",
					"outputs": [
						{
							"internalType": "address",
							"name": "",
							"type": "address"
						}
					],
					"stateMutability": "view",
					"type": "function"
				},
				{
					"inputs": [],
					"name": "renounceOwnership",
					"outputs": [],
					"stateMutability": "nonpayable",
					"type": "function"
				},
				{
					"inputs": [
						{
							"internalType": "uint256",
							"name": "_lockPeriod",
							"type": "uint256"
						}
					],
					"name": "setLockPeriod",
					"outputs": [],
					"stateMutability": "nonpayable",
					"type": "function"
				},
				{
					"inputs": [
						{
							"internalType": "address",
							"name": "newOwner",
							"type": "address"
						}
					],
					"name": "transferOwnership",
					"outputs": [],
					"stateMutability": "nonpayable",
					"type": "function"
				},
				{
					"inputs": [
						{
							"internalType": "uint256[]",
							"name": "_tokenIds",
							"type": "uint256[]"
						},
						{
							"internalType": "contract IERC721",
							"name": "nftAddress",
							"type": "address"
						}
					],
					"name": "unlockNFT",
					"outputs": [],
					"stateMutability": "nonpayable",
					"type": "function"
				}
			],
			"devdoc": {
				"kind": "dev",
				"methods": {
					"claimRewards(uint256[],address)": {
						"details": "claim rewards",
						"params": {
							"_tokenIds": "token ids to unlock"
						}
					},
					"claimedRewards(uint256)": {
						"details": "get total claimed rewards for token id",
						"params": {
							"_tokenId": "token id to get claimed Rewards amount"
						}
					},
					"lockNFT(uint256[],address)": {
						"details": "lock NFT into the contract",
						"params": {
							"_tokenIds": "token ids to stake"
						}
					},
					"owner()": {
						"details": "Returns the address of the current owner."
					},
					"renounceOwnership()": {
						"details": "Leaves the contract without owner. It will not be possible to call `onlyOwner` functions anymore. Can only be called by the current owner. NOTE: Renouncing ownership will leave the contract without an owner, thereby removing any functionality that is only available to the owner."
					},
					"setLockPeriod(uint256)": {
						"details": "update lock period",
						"params": {
							"_lockPeriod": "lock period to set"
						}
					},
					"transferOwnership(address)": {
						"details": "Transfers ownership of the contract to a new account (`newOwner`). Can only be called by the current owner."
					},
					"unlockNFT(uint256[],address)": {
						"details": "unlock NFT from the contract",
						"params": {
							"_tokenIds": "token ids to unlock"
						}
					}
				},
				"version": 1
			},
			"evm": {
				"assembly": "    /* \"contracts/Staking.sol\":412:6769  contract NFTStaking1 is Ownable, ReentrancyGuard {... */\n  mstore(0x40, 0x80)\n    /* \"contracts/Staking.sol\":1537:2459  constructor(... */\n  callvalue\n  dup1\n  iszero\n  tag_1\n  jumpi\n  0x00\n  dup1\n  revert\ntag_1:\n  pop\n  mload(0x40)\n  sub(codesize, bytecodeSize)\n  dup1\n  bytecodeSize\n  dup4\n  codecopy\n  dup2\n  dup2\n  add\n  0x40\n  mstore\n  dup2\n  add\n  swap1\n  tag_2\n  swap2\n  swap1\n  tag_3\n  jump\t// in\ntag_2:\n    /* \"@openzeppelin/contracts/access/Ownable.sol\":936:968  _transferOwnership(_msgSender()) */\n  tag_8\n    /* \"@openzeppelin/contracts/access/Ownable.sol\":955:967  _msgSender() */\n  tag_9\n    /* \"@openzeppelin/contracts/access/Ownable.sol\":955:965  _msgSender */\n  shl(0x20, tag_10)\n    /* \"@openzeppelin/contracts/access/Ownable.sol\":955:967  _msgSender() */\n  0x20\n  shr\n  jump\t// in\ntag_9:\n    /* \"@openzeppelin/contracts/access/Ownable.sol\":936:954  _transferOwnership */\n  shl(0x20, tag_11)\n    /* \"@openzeppelin/contracts/access/Ownable.sol\":936:968  _transferOwnership(_msgSender()) */\n  0x20\n  shr\n  jump\t// in\ntag_8:\n    /* \"@openzeppelin/contracts/security/ReentrancyGuard.sol\":1701:1702  1 */\n  0x01\n    /* \"@openzeppelin/contracts/security/ReentrancyGuard.sol\":1806:1813  _status */\n  dup1\n    /* \"@openzeppelin/contracts/security/ReentrancyGuard.sol\":1806:1828  _status = _NOT_ENTERED */\n  dup2\n  swap1\n  sstore\n  pop\n    /* \"contracts/Staking.sol\":2043:2044  0 */\n  0x00\n    /* \"contracts/Staking.sol\":2029:2040  _lockPeriod */\n  dup5\n    /* \"contracts/Staking.sol\":2029:2044  _lockPeriod > 0 */\n  gt\n    /* \"contracts/Staking.sol\":2021:2068  require(_lockPeriod > 0, \"Invalid lock period\") */\n  tag_14\n  jumpi\n  mload(0x40)\n  0x08c379a000000000000000000000000000000000000000000000000000000000\n  dup2\n  mstore\n  0x04\n  add\n  tag_15\n  swap1\n  tag_16\n  jump\t// in\ntag_15:\n  mload(0x40)\n  dup1\n  swap2\n  sub\n  swap1\n  revert\ntag_14:\n    /* \"contracts/Staking.sol\":2086:2092  uint i */\n  0x00\n    /* \"contracts/Staking.sol\":2081:2392  for (uint i = 0; i < _stakeNFT.length; i++) {... */\ntag_17:\n    /* \"contracts/Staking.sol\":2102:2111  _stakeNFT */\n  dup7\n    /* \"contracts/Staking.sol\":2102:2118  _stakeNFT.length */\n  mload\n    /* \"contracts/Staking.sol\":2098:2099  i */\n  dup2\n    /* \"contracts/Staking.sol\":2098:2118  i < _stakeNFT.length */\n  lt\n    /* \"contracts/Staking.sol\":2081:2392  for (uint i = 0; i < _stakeNFT.length; i++) {... */\n  iszero\n  tag_18\n  jumpi\n    /* \"contracts/Staking.sol\":2202:2215  _rewardsToken */\n  dup6\n    /* \"contracts/Staking.sol\":2216:2217  i */\n  dup2\n    /* \"contracts/Staking.sol\":2202:2218  _rewardsToken[i] */\n  dup2\n  mload\n  dup2\n  lt\n  tag_20\n  jumpi\n  tag_21\n  tag_22\n  jump\t// in\ntag_21:\ntag_20:\n  0x20\n  mul\n  0x20\n  add\n  add\n  mload\n    /* \"contracts/Staking.sol\":2142:2149  nftInfo */\n  0x04\n    /* \"contracts/Staking.sol\":2142:2172  nftInfo[IERC721(_stakeNFT[i])] */\n  0x00\n    /* \"contracts/Staking.sol\":2158:2167  _stakeNFT */\n  dup10\n    /* \"contracts/Staking.sol\":2168:2169  i */\n  dup5\n    /* \"contracts/Staking.sol\":2158:2170  _stakeNFT[i] */\n  dup2\n  mload\n  dup2\n  lt\n  tag_23\n  jumpi\n  tag_24\n  tag_22\n  jump\t// in\ntag_24:\ntag_23:\n  0x20\n  mul\n  0x20\n  add\n  add\n  mload\n    /* \"contracts/Staking.sol\":2142:2172  nftInfo[IERC721(_stakeNFT[i])] */\n  0xffffffffffffffffffffffffffffffffffffffff\n  and\n  0xffffffffffffffffffffffffffffffffffffffff\n  and\n  dup2\n  mstore\n  0x20\n  add\n  swap1\n  dup2\n  mstore\n  0x20\n  add\n  0x00\n  keccak256\n    /* \"contracts/Staking.sol\":2142:2185  nftInfo[IERC721(_stakeNFT[i])].rewardsToken */\n  0x00\n  add\n  0x00\n    /* \"contracts/Staking.sol\":2142:2219  nftInfo[IERC721(_stakeNFT[i])].rewardsToken = IRewardsToken(_rewardsToken[i]) */\n  0x0100\n  exp\n  dup2\n  sload\n  dup2\n  0xffffffffffffffffffffffffffffffffffffffff\n  mul\n  not\n  and\n  swap1\n  dup4\n  0xffffffffffffffffffffffffffffffffffffffff\n  and\n  mul\n  or\n  swap1\n  sstore\n  pop\n    /* \"contracts/Staking.sol\":2282:2296  _rewardPerWave */\n  dup4\n    /* \"contracts/Staking.sol\":2297:2298  i */\n  dup2\n    /* \"contracts/Staking.sol\":2282:2299  _rewardPerWave[i] */\n  dup2\n  mload\n  dup2\n  lt\n  tag_25\n  jumpi\n  tag_26\n  tag_22\n  jump\t// in\ntag_26:\ntag_25:\n  0x20\n  mul\n  0x20\n  add\n  add\n  mload\n    /* \"contracts/Staking.sol\":2234:2241  nftInfo */\n  0x04\n    /* \"contracts/Staking.sol\":2234:2264  nftInfo[IERC721(_stakeNFT[i])] */\n  0x00\n    /* \"contracts/Staking.sol\":2250:2259  _stakeNFT */\n  dup10\n    /* \"contracts/Staking.sol\":2260:2261  i */\n  dup5\n    /* \"contracts/Staking.sol\":2250:2262  _stakeNFT[i] */\n  dup2\n  mload\n  dup2\n  lt\n  tag_27\n  jumpi\n  tag_28\n  tag_22\n  jump\t// in\ntag_28:\ntag_27:\n  0x20\n  mul\n  0x20\n  add\n  add\n  mload\n    /* \"contracts/Staking.sol\":2234:2264  nftInfo[IERC721(_stakeNFT[i])] */\n  0xffffffffffffffffffffffffffffffffffffffff\n  and\n  0xffffffffffffffffffffffffffffffffffffffff\n  and\n  dup2\n  mstore\n  0x20\n  add\n  swap1\n  dup2\n  mstore\n  0x20\n  add\n  0x00\n  keccak256\n    /* \"contracts/Staking.sol\":2234:2279  nftInfo[IERC721(_stakeNFT[i])].rewardsPerWave */\n  0x01\n  add\n    /* \"contracts/Staking.sol\":2234:2299  nftInfo[IERC721(_stakeNFT[i])].rewardsPerWave = _rewardPerWave[i] */\n  dup2\n  swap1\n  sstore\n  pop\n    /* \"contracts/Staking.sol\":2364:2381  _rewardPercentage */\n  dup3\n    /* \"contracts/Staking.sol\":2382:2383  i */\n  dup2\n    /* \"contracts/Staking.sol\":2364:2384  _rewardPercentage[i] */\n  dup2\n  mload\n  dup2\n  lt\n  tag_29\n  jumpi\n  tag_30\n  tag_22\n  jump\t// in\ntag_30:\ntag_29:\n  0x20\n  mul\n  0x20\n  add\n  add\n  mload\n    /* \"contracts/Staking.sol\":2314:2321  nftInfo */\n  0x04\n    /* \"contracts/Staking.sol\":2314:2344  nftInfo[IERC721(_stakeNFT[i])] */\n  0x00\n    /* \"contracts/Staking.sol\":2330:2339  _stakeNFT */\n  dup10\n    /* \"contracts/Staking.sol\":2340:2341  i */\n  dup5\n    /* \"contracts/Staking.sol\":2330:2342  _stakeNFT[i] */\n  dup2\n  mload\n  dup2\n  lt\n  tag_31\n  jumpi\n  tag_32\n  tag_22\n  jump\t// in\ntag_32:\ntag_31:\n  0x20\n  mul\n  0x20\n  add\n  add\n  mload\n    /* \"contracts/Staking.sol\":2314:2344  nftInfo[IERC721(_stakeNFT[i])] */\n  0xffffffffffffffffffffffffffffffffffffffff\n  and\n  0xffffffffffffffffffffffffffffffffffffffff\n  and\n  dup2\n  mstore\n  0x20\n  add\n  swap1\n  dup2\n  mstore\n  0x20\n  add\n  0x00\n  keccak256\n    /* \"contracts/Staking.sol\":2314:2361  nftInfo[IERC721(_stakeNFT[i])].rewardPercentage */\n  0x02\n  add\n    /* \"contracts/Staking.sol\":2314:2384  nftInfo[IERC721(_stakeNFT[i])].rewardPercentage = _rewardPercentage[i] */\n  dup2\n  swap1\n  sstore\n  pop\n    /* \"contracts/Staking.sol\":2120:2123  i++ */\n  dup1\n  dup1\n  tag_33\n  swap1\n  tag_34\n  jump\t// in\ntag_33:\n  swap2\n  pop\n  pop\n    /* \"contracts/Staking.sol\":2081:2392  for (uint i = 0; i < _stakeNFT.length; i++) {... */\n  jump(tag_17)\ntag_18:\n  pop\n    /* \"contracts/Staking.sol\":2417:2428  _lockPeriod */\n  dup4\n    /* \"contracts/Staking.sol\":2404:2414  lockPeriod */\n  0x02\n    /* \"contracts/Staking.sol\":2404:2428  lockPeriod = _lockPeriod */\n  dup2\n  swap1\n  sstore\n  pop\n    /* \"contracts/Staking.sol\":2446:2451  _wave */\n  dup1\n    /* \"contracts/Staking.sol\":2439:2443  WAVE */\n  0x05\n    /* \"contracts/Staking.sol\":2439:2451  WAVE = _wave */\n  dup2\n  swap1\n  sstore\n  pop\n    /* \"contracts/Staking.sol\":1537:2459  constructor(... */\n  pop\n  pop\n  pop\n  pop\n  pop\n  pop\n    /* \"contracts/Staking.sol\":412:6769  contract NFTStaking1 is Ownable, ReentrancyGuard {... */\n  jump(tag_35)\n    /* \"@openzeppelin/contracts/utils/Context.sol\":640:736  function _msgSender() internal view virtual returns (address) {... */\ntag_10:\n    /* \"@openzeppelin/contracts/utils/Context.sol\":693:700  address */\n  0x00\n    /* \"@openzeppelin/contracts/utils/Context.sol\":719:729  msg.sender */\n  caller\n    /* \"@openzeppelin/contracts/utils/Context.sol\":712:729  return msg.sender */\n  swap1\n  pop\n    /* \"@openzeppelin/contracts/utils/Context.sol\":640:736  function _msgSender() internal view virtual returns (address) {... */\n  swap1\n  jump\t// out\n    /* \"@openzeppelin/contracts/access/Ownable.sol\":2433:2620  function _transferOwnership(address newOwner) internal virtual {... */\ntag_11:\n    /* \"@openzeppelin/contracts/access/Ownable.sol\":2506:2522  address oldOwner */\n  0x00\n    /* \"@openzeppelin/contracts/access/Ownable.sol\":2525:2531  _owner */\n  dup1\n  0x00\n  swap1\n  sload\n  swap1\n  0x0100\n  exp\n  swap1\n  div\n  0xffffffffffffffffffffffffffffffffffffffff\n  and\n    /* \"@openzeppelin/contracts/access/Ownable.sol\":2506:2531  address oldOwner = _owner */\n  swap1\n  pop\n    /* \"@openzeppelin/contracts/access/Ownable.sol\":2550:2558  newOwner */\n  dup2\n    /* \"@openzeppelin/contracts/access/Ownable.sol\":2541:2547  _owner */\n  0x00\n  dup1\n    /* \"@openzeppelin/contracts/access/Ownable.sol\":2541:2558  _owner = newOwner */\n  0x0100\n  exp\n  dup2\n  sload\n  dup2\n  0xffffffffffffffffffffffffffffffffffffffff\n  mul\n  not\n  and\n  swap1\n  dup4\n  0xffffffffffffffffffffffffffffffffffffffff\n  and\n  mul\n  or\n  swap1\n  sstore\n  pop\n    /* \"@openzeppelin/contracts/access/Ownable.sol\":2604:2612  newOwner */\n  dup2\n    /* \"@openzeppelin/contracts/access/Ownable.sol\":2573:2613  OwnershipTransferred(oldOwner, newOwner) */\n  0xffffffffffffffffffffffffffffffffffffffff\n  and\n    /* \"@openzeppelin/contracts/access/Ownable.sol\":2594:2602  oldOwner */\n  dup2\n    /* \"@openzeppelin/contracts/access/Ownable.sol\":2573:2613  OwnershipTransferred(oldOwner, newOwner) */\n  0xffffffffffffffffffffffffffffffffffffffff\n  and\n  0x8be0079c531659141344cd1fd0a4f28419497f9722a3daafe3b4186f6b6457e0\n  mload(0x40)\n  mload(0x40)\n  dup1\n  swap2\n  sub\n  swap1\n  log3\n    /* \"@openzeppelin/contracts/access/Ownable.sol\":2496:2620  {... */\n  pop\n    /* \"@openzeppelin/contracts/access/Ownable.sol\":2433:2620  function _transferOwnership(address newOwner) internal virtual {... */\n  pop\n  jump\t// out\n    /* \"#utility.yul\":7:82   */\ntag_38:\n    /* \"#utility.yul\":40:46   */\n  0x00\n    /* \"#utility.yul\":73:75   */\n  0x40\n    /* \"#utility.yul\":67:76   */\n  mload\n    /* \"#utility.yul\":57:76   */\n  swap1\n  pop\n    /* \"#utility.yul\":7:82   */\n  swap1\n  jump\t// out\n    /* \"#utility.yul\":88:205   */\ntag_39:\n    /* \"#utility.yul\":197:198   */\n  0x00\n    /* \"#utility.yul\":194:195   */\n  dup1\n    /* \"#utility.yul\":187:199   */\n  revert\n    /* \"#utility.yul\":211:328   */\ntag_40:\n    /* \"#utility.yul\":320:321   */\n  0x00\n    /* \"#utility.yul\":317:318   */\n  dup1\n    /* \"#utility.yul\":310:322   */\n  revert\n    /* \"#utility.yul\":334:451   */\ntag_41:\n    /* \"#utility.yul\":443:444   */\n  0x00\n    /* \"#utility.yul\":440:441   */\n  dup1\n    /* \"#utility.yul\":433:445   */\n  revert\n    /* \"#utility.yul\":457:559   */\ntag_42:\n    /* \"#utility.yul\":498:504   */\n  0x00\n    /* \"#utility.yul\":549:551   */\n  0x1f\n    /* \"#utility.yul\":545:552   */\n  not\n    /* \"#utility.yul\":540:542   */\n  0x1f\n    /* \"#utility.yul\":533:538   */\n  dup4\n    /* \"#utility.yul\":529:543   */\n  add\n    /* \"#utility.yul\":525:553   */\n  and\n    /* \"#utility.yul\":515:553   */\n  swap1\n  pop\n    /* \"#utility.yul\":457:559   */\n  swap2\n  swap1\n  pop\n  jump\t// out\n    /* \"#utility.yul\":565:745   */\ntag_43:\n    /* \"#utility.yul\":613:690   */\n  0x4e487b7100000000000000000000000000000000000000000000000000000000\n    /* \"#utility.yul\":610:611   */\n  0x00\n    /* \"#utility.yul\":603:691   */\n  mstore\n    /* \"#utility.yul\":710:714   */\n  0x41\n    /* \"#utility.yul\":707:708   */\n  0x04\n    /* \"#utility.yul\":700:715   */\n  mstore\n    /* \"#utility.yul\":734:738   */\n  0x24\n    /* \"#utility.yul\":731:732   */\n  0x00\n    /* \"#utility.yul\":724:739   */\n  revert\n    /* \"#utility.yul\":751:1032   */\ntag_44:\n    /* \"#utility.yul\":834:861   */\n  tag_72\n    /* \"#utility.yul\":856:860   */\n  dup3\n    /* \"#utility.yul\":834:861   */\n  tag_42\n  jump\t// in\ntag_72:\n    /* \"#utility.yul\":826:832   */\n  dup2\n    /* \"#utility.yul\":822:862   */\n  add\n    /* \"#utility.yul\":964:970   */\n  dup2\n    /* \"#utility.yul\":952:962   */\n  dup2\n    /* \"#utility.yul\":949:971   */\n  lt\n    /* \"#utility.yul\":928:946   */\n  0xffffffffffffffff\n    /* \"#utility.yul\":916:926   */\n  dup3\n    /* \"#utility.yul\":913:947   */\n  gt\n    /* \"#utility.yul\":910:972   */\n  or\n    /* \"#utility.yul\":907:995   */\n  iszero\n  tag_73\n  jumpi\n    /* \"#utility.yul\":975:993   */\n  tag_74\n  tag_43\n  jump\t// in\ntag_74:\n    /* \"#utility.yul\":907:995   */\ntag_73:\n    /* \"#utility.yul\":1015:1025   */\n  dup1\n    /* \"#utility.yul\":1011:1013   */\n  0x40\n    /* \"#utility.yul\":1004:1026   */\n  mstore\n    /* \"#utility.yul\":794:1032   */\n  pop\n    /* \"#utility.yul\":751:1032   */\n  pop\n  pop\n  jump\t// out\n    /* \"#utility.yul\":1038:1167   */\ntag_45:\n    /* \"#utility.yul\":1072:1078   */\n  0x00\n    /* \"#utility.yul\":1099:1119   */\n  tag_76\n  tag_38\n  jump\t// in\ntag_76:\n    /* \"#utility.yul\":1089:1119   */\n  swap1\n  pop\n    /* \"#utility.yul\":1128:1161   */\n  tag_77\n    /* \"#utility.yul\":1156:1160   */\n  dup3\n    /* \"#utility.yul\":1148:1154   */\n  dup3\n    /* \"#utility.yul\":1128:1161   */\n  tag_44\n  jump\t// in\ntag_77:\n    /* \"#utility.yul\":1038:1167   */\n  swap2\n  swap1\n  pop\n  jump\t// out\n    /* \"#utility.yul\":1173:1484   */\ntag_46:\n    /* \"#utility.yul\":1250:1254   */\n  0x00\n    /* \"#utility.yul\":1340:1358   */\n  0xffffffffffffffff\n    /* \"#utility.yul\":1332:1338   */\n  dup3\n    /* \"#utility.yul\":1329:1359   */\n  gt\n    /* \"#utility.yul\":1326:1382   */\n  iszero\n  tag_79\n  jumpi\n    /* \"#utility.yul\":1362:1380   */\n  tag_80\n  tag_43\n  jump\t// in\ntag_80:\n    /* \"#utility.yul\":1326:1382   */\ntag_79:\n    /* \"#utility.yul\":1412:1416   */\n  0x20\n    /* \"#utility.yul\":1404:1410   */\n  dup3\n    /* \"#utility.yul\":1400:1417   */\n  mul\n    /* \"#utility.yul\":1392:1417   */\n  swap1\n  pop\n    /* \"#utility.yul\":1472:1476   */\n  0x20\n    /* \"#utility.yul\":1466:1470   */\n  dup2\n    /* \"#utility.yul\":1462:1477   */\n  add\n    /* \"#utility.yul\":1454:1477   */\n  swap1\n  pop\n    /* \"#utility.yul\":1173:1484   */\n  swap2\n  swap1\n  pop\n  jump\t// out\n    /* \"#utility.yul\":1490:1607   */\ntag_47:\n    /* \"#utility.yul\":1599:1600   */\n  0x00\n    /* \"#utility.yul\":1596:1597   */\n  dup1\n    /* \"#utility.yul\":1589:1601   */\n  revert\n    /* \"#utility.yul\":1613:1739   */\ntag_48:\n    /* \"#utility.yul\":1650:1657   */\n  0x00\n    /* \"#utility.yul\":1690:1732   */\n  0xffffffffffffffffffffffffffffffffffffffff\n    /* \"#utility.yul\":1683:1688   */\n  dup3\n    /* \"#utility.yul\":1679:1733   */\n  and\n    /* \"#utility.yul\":1668:1733   */\n  swap1\n  pop\n    /* \"#utility.yul\":1613:1739   */\n  swap2\n  swap1\n  pop\n  jump\t// out\n    /* \"#utility.yul\":1745:1841   */\ntag_49:\n    /* \"#utility.yul\":1782:1789   */\n  0x00\n    /* \"#utility.yul\":1811:1835   */\n  tag_84\n    /* \"#utility.yul\":1829:1834   */\n  dup3\n    /* \"#utility.yul\":1811:1835   */\n  tag_48\n  jump\t// in\ntag_84:\n    /* \"#utility.yul\":1800:1835   */\n  swap1\n  pop\n    /* \"#utility.yul\":1745:1841   */\n  swap2\n  swap1\n  pop\n  jump\t// out\n    /* \"#utility.yul\":1847:1969   */\ntag_50:\n    /* \"#utility.yul\":1920:1944   */\n  tag_86\n    /* \"#utility.yul\":1938:1943   */\n  dup2\n    /* \"#utility.yul\":1920:1944   */\n  tag_49\n  jump\t// in\ntag_86:\n    /* \"#utility.yul\":1913:1918   */\n  dup2\n    /* \"#utility.yul\":1910:1945   */\n  eq\n    /* \"#utility.yul\":1900:1963   */\n  tag_87\n  jumpi\n    /* \"#utility.yul\":1959:1960   */\n  0x00\n    /* \"#utility.yul\":1956:1957   */\n  dup1\n    /* \"#utility.yul\":1949:1961   */\n  revert\n    /* \"#utility.yul\":1900:1963   */\ntag_87:\n    /* \"#utility.yul\":1847:1969   */\n  pop\n  jump\t// out\n    /* \"#utility.yul\":1975:2118   */\ntag_51:\n    /* \"#utility.yul\":2032:2037   */\n  0x00\n    /* \"#utility.yul\":2063:2069   */\n  dup2\n    /* \"#utility.yul\":2057:2070   */\n  mload\n    /* \"#utility.yul\":2048:2070   */\n  swap1\n  pop\n    /* \"#utility.yul\":2079:2112   */\n  tag_89\n    /* \"#utility.yul\":2106:2111   */\n  dup2\n    /* \"#utility.yul\":2079:2112   */\n  tag_50\n  jump\t// in\ntag_89:\n    /* \"#utility.yul\":1975:2118   */\n  swap3\n  swap2\n  pop\n  pop\n  jump\t// out\n    /* \"#utility.yul\":2141:2873   */\ntag_52:\n    /* \"#utility.yul\":2248:2253   */\n  0x00\n    /* \"#utility.yul\":2273:2354   */\n  tag_91\n    /* \"#utility.yul\":2289:2353   */\n  tag_92\n    /* \"#utility.yul\":2346:2352   */\n  dup5\n    /* \"#utility.yul\":2289:2353   */\n  tag_46\n  jump\t// in\ntag_92:\n    /* \"#utility.yul\":2273:2354   */\n  tag_45\n  jump\t// in\ntag_91:\n    /* \"#utility.yul\":2264:2354   */\n  swap1\n  pop\n    /* \"#utility.yul\":2374:2379   */\n  dup1\n    /* \"#utility.yul\":2403:2409   */\n  dup4\n    /* \"#utility.yul\":2396:2401   */\n  dup3\n    /* \"#utility.yul\":2389:2410   */\n  mstore\n    /* \"#utility.yul\":2437:2441   */\n  0x20\n    /* \"#utility.yul\":2430:2435   */\n  dup3\n    /* \"#utility.yul\":2426:2442   */\n  add\n    /* \"#utility.yul\":2419:2442   */\n  swap1\n  pop\n    /* \"#utility.yul\":2490:2494   */\n  0x20\n    /* \"#utility.yul\":2482:2488   */\n  dup5\n    /* \"#utility.yul\":2478:2495   */\n  mul\n    /* \"#utility.yul\":2470:2476   */\n  dup4\n    /* \"#utility.yul\":2466:2496   */\n  add\n    /* \"#utility.yul\":2519:2522   */\n  dup6\n    /* \"#utility.yul\":2511:2517   */\n  dup2\n    /* \"#utility.yul\":2508:2523   */\n  gt\n    /* \"#utility.yul\":2505:2627   */\n  iszero\n  tag_93\n  jumpi\n    /* \"#utility.yul\":2538:2617   */\n  tag_94\n  tag_47\n  jump\t// in\ntag_94:\n    /* \"#utility.yul\":2505:2627   */\ntag_93:\n    /* \"#utility.yul\":2653:2659   */\n  dup4\n    /* \"#utility.yul\":2636:2867   */\ntag_95:\n    /* \"#utility.yul\":2670:2676   */\n  dup2\n    /* \"#utility.yul\":2665:2668   */\n  dup2\n    /* \"#utility.yul\":2662:2677   */\n  lt\n    /* \"#utility.yul\":2636:2867   */\n  iszero\n  tag_97\n  jumpi\n    /* \"#utility.yul\":2745:2748   */\n  dup1\n    /* \"#utility.yul\":2774:2822   */\n  tag_98\n    /* \"#utility.yul\":2818:2821   */\n  dup9\n    /* \"#utility.yul\":2806:2816   */\n  dup3\n    /* \"#utility.yul\":2774:2822   */\n  tag_51\n  jump\t// in\ntag_98:\n    /* \"#utility.yul\":2769:2772   */\n  dup5\n    /* \"#utility.yul\":2762:2823   */\n  mstore\n    /* \"#utility.yul\":2852:2856   */\n  0x20\n    /* \"#utility.yul\":2847:2850   */\n  dup5\n    /* \"#utility.yul\":2843:2857   */\n  add\n    /* \"#utility.yul\":2836:2857   */\n  swap4\n  pop\n    /* \"#utility.yul\":2712:2867   */\n  pop\n    /* \"#utility.yul\":2696:2700   */\n  0x20\n    /* \"#utility.yul\":2691:2694   */\n  dup2\n    /* \"#utility.yul\":2687:2701   */\n  add\n    /* \"#utility.yul\":2680:2701   */\n  swap1\n  pop\n    /* \"#utility.yul\":2636:2867   */\n  jump(tag_95)\ntag_97:\n    /* \"#utility.yul\":2640:2661   */\n  pop\n    /* \"#utility.yul\":2254:2873   */\n  pop\n  pop\n    /* \"#utility.yul\":2141:2873   */\n  swap4\n  swap3\n  pop\n  pop\n  pop\n  jump\t// out\n    /* \"#utility.yul\":2896:3281   */\ntag_53:\n    /* \"#utility.yul\":2978:2983   */\n  0x00\n    /* \"#utility.yul\":3027:3030   */\n  dup3\n    /* \"#utility.yul\":3020:3024   */\n  0x1f\n    /* \"#utility.yul\":3012:3018   */\n  dup4\n    /* \"#utility.yul\":3008:3025   */\n  add\n    /* \"#utility.yul\":3004:3031   */\n  slt\n    /* \"#utility.yul\":2994:3116   */\n  tag_100\n  jumpi\n    /* \"#utility.yul\":3035:3114   */\n  tag_101\n  tag_41\n  jump\t// in\ntag_101:\n    /* \"#utility.yul\":2994:3116   */\ntag_100:\n    /* \"#utility.yul\":3145:3151   */\n  dup2\n    /* \"#utility.yul\":3139:3152   */\n  mload\n    /* \"#utility.yul\":3170:3275   */\n  tag_102\n    /* \"#utility.yul\":3271:3274   */\n  dup5\n    /* \"#utility.yul\":3263:3269   */\n  dup3\n    /* \"#utility.yul\":3256:3260   */\n  0x20\n    /* \"#utility.yul\":3248:3254   */\n  dup7\n    /* \"#utility.yul\":3244:3261   */\n  add\n    /* \"#utility.yul\":3170:3275   */\n  tag_52\n  jump\t// in\ntag_102:\n    /* \"#utility.yul\":3161:3275   */\n  swap2\n  pop\n    /* \"#utility.yul\":2984:3281   */\n  pop\n    /* \"#utility.yul\":2896:3281   */\n  swap3\n  swap2\n  pop\n  pop\n  jump\t// out\n    /* \"#utility.yul\":3287:3364   */\ntag_54:\n    /* \"#utility.yul\":3324:3331   */\n  0x00\n    /* \"#utility.yul\":3353:3358   */\n  dup2\n    /* \"#utility.yul\":3342:3358   */\n  swap1\n  pop\n    /* \"#utility.yul\":3287:3364   */\n  swap2\n  swap1\n  pop\n  jump\t// out\n    /* \"#utility.yul\":3370:3492   */\ntag_55:\n    /* \"#utility.yul\":3443:3467   */\n  tag_105\n    /* \"#utility.yul\":3461:3466   */\n  dup2\n    /* \"#utility.yul\":3443:3467   */\n  tag_54\n  jump\t// in\ntag_105:\n    /* \"#utility.yul\":3436:3441   */\n  dup2\n    /* \"#utility.yul\":3433:3468   */\n  eq\n    /* \"#utility.yul\":3423:3486   */\n  tag_106\n  jumpi\n    /* \"#utility.yul\":3482:3483   */\n  0x00\n    /* \"#utility.yul\":3479:3480   */\n  dup1\n    /* \"#utility.yul\":3472:3484   */\n  revert\n    /* \"#utility.yul\":3423:3486   */\ntag_106:\n    /* \"#utility.yul\":3370:3492   */\n  pop\n  jump\t// out\n    /* \"#utility.yul\":3498:3641   */\ntag_56:\n    /* \"#utility.yul\":3555:3560   */\n  0x00\n    /* \"#utility.yul\":3586:3592   */\n  dup2\n    /* \"#utility.yul\":3580:3593   */\n  mload\n    /* \"#utility.yul\":3571:3593   */\n  swap1\n  pop\n    /* \"#utility.yul\":3602:3635   */\n  tag_108\n    /* \"#utility.yul\":3629:3634   */\n  dup2\n    /* \"#utility.yul\":3602:3635   */\n  tag_55\n  jump\t// in\ntag_108:\n    /* \"#utility.yul\":3498:3641   */\n  swap3\n  swap2\n  pop\n  pop\n  jump\t// out\n    /* \"#utility.yul\":3647:3958   */\ntag_57:\n    /* \"#utility.yul\":3724:3728   */\n  0x00\n    /* \"#utility.yul\":3814:3832   */\n  0xffffffffffffffff\n    /* \"#utility.yul\":3806:3812   */\n  dup3\n    /* \"#utility.yul\":3803:3833   */\n  gt\n    /* \"#utility.yul\":3800:3856   */\n  iszero\n  tag_110\n  jumpi\n    /* \"#utility.yul\":3836:3854   */\n  tag_111\n  tag_43\n  jump\t// in\ntag_111:\n    /* \"#utility.yul\":3800:3856   */\ntag_110:\n    /* \"#utility.yul\":3886:3890   */\n  0x20\n    /* \"#utility.yul\":3878:3884   */\n  dup3\n    /* \"#utility.yul\":3874:3891   */\n  mul\n    /* \"#utility.yul\":3866:3891   */\n  swap1\n  pop\n    /* \"#utility.yul\":3946:3950   */\n  0x20\n    /* \"#utility.yul\":3940:3944   */\n  dup2\n    /* \"#utility.yul\":3936:3951   */\n  add\n    /* \"#utility.yul\":3928:3951   */\n  swap1\n  pop\n    /* \"#utility.yul\":3647:3958   */\n  swap2\n  swap1\n  pop\n  jump\t// out\n    /* \"#utility.yul\":3981:4713   */\ntag_58:\n    /* \"#utility.yul\":4088:4093   */\n  0x00\n    /* \"#utility.yul\":4113:4194   */\n  tag_113\n    /* \"#utility.yul\":4129:4193   */\n  tag_114\n    /* \"#utility.yul\":4186:4192   */\n  dup5\n    /* \"#utility.yul\":4129:4193   */\n  tag_57\n  jump\t// in\ntag_114:\n    /* \"#utility.yul\":4113:4194   */\n  tag_45\n  jump\t// in\ntag_113:\n    /* \"#utility.yul\":4104:4194   */\n  swap1\n  pop\n    /* \"#utility.yul\":4214:4219   */\n  dup1\n    /* \"#utility.yul\":4243:4249   */\n  dup4\n    /* \"#utility.yul\":4236:4241   */\n  dup3\n    /* \"#utility.yul\":4229:4250   */\n  mstore\n    /* \"#utility.yul\":4277:4281   */\n  0x20\n    /* \"#utility.yul\":4270:4275   */\n  dup3\n    /* \"#utility.yul\":4266:4282   */\n  add\n    /* \"#utility.yul\":4259:4282   */\n  swap1\n  pop\n    /* \"#utility.yul\":4330:4334   */\n  0x20\n    /* \"#utility.yul\":4322:4328   */\n  dup5\n    /* \"#utility.yul\":4318:4335   */\n  mul\n    /* \"#utility.yul\":4310:4316   */\n  dup4\n    /* \"#utility.yul\":4306:4336   */\n  add\n    /* \"#utility.yul\":4359:4362   */\n  dup6\n    /* \"#utility.yul\":4351:4357   */\n  dup2\n    /* \"#utility.yul\":4348:4363   */\n  gt\n    /* \"#utility.yul\":4345:4467   */\n  iszero\n  tag_115\n  jumpi\n    /* \"#utility.yul\":4378:4457   */\n  tag_116\n  tag_47\n  jump\t// in\ntag_116:\n    /* \"#utility.yul\":4345:4467   */\ntag_115:\n    /* \"#utility.yul\":4493:4499   */\n  dup4\n    /* \"#utility.yul\":4476:4707   */\ntag_117:\n    /* \"#utility.yul\":4510:4516   */\n  dup2\n    /* \"#utility.yul\":4505:4508   */\n  dup2\n    /* \"#utility.yul\":4502:4517   */\n  lt\n    /* \"#utility.yul\":4476:4707   */\n  iszero\n  tag_119\n  jumpi\n    /* \"#utility.yul\":4585:4588   */\n  dup1\n    /* \"#utility.yul\":4614:4662   */\n  tag_120\n    /* \"#utility.yul\":4658:4661   */\n  dup9\n    /* \"#utility.yul\":4646:4656   */\n  dup3\n    /* \"#utility.yul\":4614:4662   */\n  tag_56\n  jump\t// in\ntag_120:\n    /* \"#utility.yul\":4609:4612   */\n  dup5\n    /* \"#utility.yul\":4602:4663   */\n  mstore\n    /* \"#utility.yul\":4692:4696   */\n  0x20\n    /* \"#utility.yul\":4687:4690   */\n  dup5\n    /* \"#utility.yul\":4683:4697   */\n  add\n    /* \"#utility.yul\":4676:4697   */\n  swap4\n  pop\n    /* \"#utility.yul\":4552:4707   */\n  pop\n    /* \"#utility.yul\":4536:4540   */\n  0x20\n    /* \"#utility.yul\":4531:4534   */\n  dup2\n    /* \"#utility.yul\":4527:4541   */\n  add\n    /* \"#utility.yul\":4520:4541   */\n  swap1\n  pop\n    /* \"#utility.yul\":4476:4707   */\n  jump(tag_117)\ntag_119:\n    /* \"#utility.yul\":4480:4501   */\n  pop\n    /* \"#utility.yul\":4094:4713   */\n  pop\n  pop\n    /* \"#utility.yul\":3981:4713   */\n  swap4\n  swap3\n  pop\n  pop\n  pop\n  jump\t// out\n    /* \"#utility.yul\":4736:5121   */\ntag_59:\n    /* \"#utility.yul\":4818:4823   */\n  0x00\n    /* \"#utility.yul\":4867:4870   */\n  dup3\n    /* \"#utility.yul\":4860:4864   */\n  0x1f\n    /* \"#utility.yul\":4852:4858   */\n  dup4\n    /* \"#utility.yul\":4848:4865   */\n  add\n    /* \"#utility.yul\":4844:4871   */\n  slt\n    /* \"#utility.yul\":4834:4956   */\n  tag_122\n  jumpi\n    /* \"#utility.yul\":4875:4954   */\n  tag_123\n  tag_41\n  jump\t// in\ntag_123:\n    /* \"#utility.yul\":4834:4956   */\ntag_122:\n    /* \"#utility.yul\":4985:4991   */\n  dup2\n    /* \"#utility.yul\":4979:4992   */\n  mload\n    /* \"#utility.yul\":5010:5115   */\n  tag_124\n    /* \"#utility.yul\":5111:5114   */\n  dup5\n    /* \"#utility.yul\":5103:5109   */\n  dup3\n    /* \"#utility.yul\":5096:5100   */\n  0x20\n    /* \"#utility.yul\":5088:5094   */\n  dup7\n    /* \"#utility.yul\":5084:5101   */\n  add\n    /* \"#utility.yul\":5010:5115   */\n  tag_58\n  jump\t// in\ntag_124:\n    /* \"#utility.yul\":5001:5115   */\n  swap2\n  pop\n    /* \"#utility.yul\":4824:5121   */\n  pop\n    /* \"#utility.yul\":4736:5121   */\n  swap3\n  swap2\n  pop\n  pop\n  jump\t// out\n    /* \"#utility.yul\":5127:7073   */\ntag_3:\n    /* \"#utility.yul\":5342:5348   */\n  0x00\n    /* \"#utility.yul\":5350:5356   */\n  dup1\n    /* \"#utility.yul\":5358:5364   */\n  0x00\n    /* \"#utility.yul\":5366:5372   */\n  dup1\n    /* \"#utility.yul\":5374:5380   */\n  0x00\n    /* \"#utility.yul\":5382:5388   */\n  dup1\n    /* \"#utility.yul\":5431:5434   */\n  0xc0\n    /* \"#utility.yul\":5419:5428   */\n  dup8\n    /* \"#utility.yul\":5410:5417   */\n  dup10\n    /* \"#utility.yul\":5406:5429   */\n  sub\n    /* \"#utility.yul\":5402:5435   */\n  slt\n    /* \"#utility.yul\":5399:5519   */\n  iszero\n  tag_126\n  jumpi\n    /* \"#utility.yul\":5438:5517   */\n  tag_127\n  tag_39\n  jump\t// in\ntag_127:\n    /* \"#utility.yul\":5399:5519   */\ntag_126:\n    /* \"#utility.yul\":5579:5580   */\n  0x00\n    /* \"#utility.yul\":5568:5577   */\n  dup8\n    /* \"#utility.yul\":5564:5581   */\n  add\n    /* \"#utility.yul\":5558:5582   */\n  mload\n    /* \"#utility.yul\":5609:5627   */\n  0xffffffffffffffff\n    /* \"#utility.yul\":5601:5607   */\n  dup2\n    /* \"#utility.yul\":5598:5628   */\n  gt\n    /* \"#utility.yul\":5595:5712   */\n  iszero\n  tag_128\n  jumpi\n    /* \"#utility.yul\":5631:5710   */\n  tag_129\n  tag_40\n  jump\t// in\ntag_129:\n    /* \"#utility.yul\":5595:5712   */\ntag_128:\n    /* \"#utility.yul\":5736:5825   */\n  tag_130\n    /* \"#utility.yul\":5817:5824   */\n  dup10\n    /* \"#utility.yul\":5808:5814   */\n  dup3\n    /* \"#utility.yul\":5797:5806   */\n  dup11\n    /* \"#utility.yul\":5793:5815   */\n  add\n    /* \"#utility.yul\":5736:5825   */\n  tag_53\n  jump\t// in\ntag_130:\n    /* \"#utility.yul\":5726:5825   */\n  swap7\n  pop\n    /* \"#utility.yul\":5529:5835   */\n  pop\n    /* \"#utility.yul\":5895:5897   */\n  0x20\n    /* \"#utility.yul\":5884:5893   */\n  dup8\n    /* \"#utility.yul\":5880:5898   */\n  add\n    /* \"#utility.yul\":5874:5899   */\n  mload\n    /* \"#utility.yul\":5926:5944   */\n  0xffffffffffffffff\n    /* \"#utility.yul\":5918:5924   */\n  dup2\n    /* \"#utility.yul\":5915:5945   */\n  gt\n    /* \"#utility.yul\":5912:6029   */\n  iszero\n  tag_131\n  jumpi\n    /* \"#utility.yul\":5948:6027   */\n  tag_132\n  tag_40\n  jump\t// in\ntag_132:\n    /* \"#utility.yul\":5912:6029   */\ntag_131:\n    /* \"#utility.yul\":6053:6142   */\n  tag_133\n    /* \"#utility.yul\":6134:6141   */\n  dup10\n    /* \"#utility.yul\":6125:6131   */\n  dup3\n    /* \"#utility.yul\":6114:6123   */\n  dup11\n    /* \"#utility.yul\":6110:6132   */\n  add\n    /* \"#utility.yul\":6053:6142   */\n  tag_53\n  jump\t// in\ntag_133:\n    /* \"#utility.yul\":6043:6142   */\n  swap6\n  pop\n    /* \"#utility.yul\":5845:6152   */\n  pop\n    /* \"#utility.yul\":6191:6193   */\n  0x40\n    /* \"#utility.yul\":6217:6281   */\n  tag_134\n    /* \"#utility.yul\":6273:6280   */\n  dup10\n    /* \"#utility.yul\":6264:6270   */\n  dup3\n    /* \"#utility.yul\":6253:6262   */\n  dup11\n    /* \"#utility.yul\":6249:6271   */\n  add\n    /* \"#utility.yul\":6217:6281   */\n  tag_56\n  jump\t// in\ntag_134:\n    /* \"#utility.yul\":6207:6281   */\n  swap5\n  pop\n    /* \"#utility.yul\":6162:6291   */\n  pop\n    /* \"#utility.yul\":6351:6353   */\n  0x60\n    /* \"#utility.yul\":6340:6349   */\n  dup8\n    /* \"#utility.yul\":6336:6354   */\n  add\n    /* \"#utility.yul\":6330:6355   */\n  mload\n    /* \"#utility.yul\":6382:6400   */\n  0xffffffffffffffff\n    /* \"#utility.yul\":6374:6380   */\n  dup2\n    /* \"#utility.yul\":6371:6401   */\n  gt\n    /* \"#utility.yul\":6368:6485   */\n  iszero\n  tag_135\n  jumpi\n    /* \"#utility.yul\":6404:6483   */\n  tag_136\n  tag_40\n  jump\t// in\ntag_136:\n    /* \"#utility.yul\":6368:6485   */\ntag_135:\n    /* \"#utility.yul\":6509:6598   */\n  tag_137\n    /* \"#utility.yul\":6590:6597   */\n  dup10\n    /* \"#utility.yul\":6581:6587   */\n  dup3\n    /* \"#utility.yul\":6570:6579   */\n  dup11\n    /* \"#utility.yul\":6566:6588   */\n  add\n    /* \"#utility.yul\":6509:6598   */\n  tag_59\n  jump\t// in\ntag_137:\n    /* \"#utility.yul\":6499:6598   */\n  swap4\n  pop\n    /* \"#utility.yul\":6301:6608   */\n  pop\n    /* \"#utility.yul\":6668:6671   */\n  0x80\n    /* \"#utility.yul\":6657:6666   */\n  dup8\n    /* \"#utility.yul\":6653:6672   */\n  add\n    /* \"#utility.yul\":6647:6673   */\n  mload\n    /* \"#utility.yul\":6700:6718   */\n  0xffffffffffffffff\n    /* \"#utility.yul\":6692:6698   */\n  dup2\n    /* \"#utility.yul\":6689:6719   */\n  gt\n    /* \"#utility.yul\":6686:6803   */\n  iszero\n  tag_138\n  jumpi\n    /* \"#utility.yul\":6722:6801   */\n  tag_139\n  tag_40\n  jump\t// in\ntag_139:\n    /* \"#utility.yul\":6686:6803   */\ntag_138:\n    /* \"#utility.yul\":6827:6916   */\n  tag_140\n    /* \"#utility.yul\":6908:6915   */\n  dup10\n    /* \"#utility.yul\":6899:6905   */\n  dup3\n    /* \"#utility.yul\":6888:6897   */\n  dup11\n    /* \"#utility.yul\":6884:6906   */\n  add\n    /* \"#utility.yul\":6827:6916   */\n  tag_59\n  jump\t// in\ntag_140:\n    /* \"#utility.yul\":6817:6916   */\n  swap3\n  pop\n    /* \"#utility.yul\":6618:6926   */\n  pop\n    /* \"#utility.yul\":6965:6968   */\n  0xa0\n    /* \"#utility.yul\":6992:7056   */\n  tag_141\n    /* \"#utility.yul\":7048:7055   */\n  dup10\n    /* \"#utility.yul\":7039:7045   */\n  dup3\n    /* \"#utility.yul\":7028:7037   */\n  dup11\n    /* \"#utility.yul\":7024:7046   */\n  add\n    /* \"#utility.yul\":6992:7056   */\n  tag_56\n  jump\t// in\ntag_141:\n    /* \"#utility.yul\":6982:7056   */\n  swap2\n  pop\n    /* \"#utility.yul\":6936:7066   */\n  pop\n    /* \"#utility.yul\":5127:7073   */\n  swap3\n  swap6\n  pop\n  swap3\n  swap6\n  pop\n  swap3\n  swap6\n  jump\t// out\n    /* \"#utility.yul\":7079:7248   */\ntag_60:\n    /* \"#utility.yul\":7163:7174   */\n  0x00\n    /* \"#utility.yul\":7197:7203   */\n  dup3\n    /* \"#utility.yul\":7192:7195   */\n  dup3\n    /* \"#utility.yul\":7185:7204   */\n  mstore\n    /* \"#utility.yul\":7237:7241   */\n  0x20\n    /* \"#utility.yul\":7232:7235   */\n  dup3\n    /* \"#utility.yul\":7228:7242   */\n  add\n    /* \"#utility.yul\":7213:7242   */\n  swap1\n  pop\n    /* \"#utility.yul\":7079:7248   */\n  swap3\n  swap2\n  pop\n  pop\n  jump\t// out\n    /* \"#utility.yul\":7254:7423   */\ntag_61:\n    /* \"#utility.yul\":7394:7415   */\n  0x496e76616c6964206c6f636b20706572696f6400000000000000000000000000\n    /* \"#utility.yul\":7390:7391   */\n  0x00\n    /* \"#utility.yul\":7382:7388   */\n  dup3\n    /* \"#utility.yul\":7378:7392   */\n  add\n    /* \"#utility.yul\":7371:7416   */\n  mstore\n    /* \"#utility.yul\":7254:7423   */\n  pop\n  jump\t// out\n    /* \"#utility.yul\":7429:7795   */\ntag_62:\n    /* \"#utility.yul\":7571:7574   */\n  0x00\n    /* \"#utility.yul\":7592:7659   */\n  tag_145\n    /* \"#utility.yul\":7656:7658   */\n  0x13\n    /* \"#utility.yul\":7651:7654   */\n  dup4\n    /* \"#utility.yul\":7592:7659   */\n  tag_60\n  jump\t// in\ntag_145:\n    /* \"#utility.yul\":7585:7659   */\n  swap2\n  pop\n    /* \"#utility.yul\":7668:7761   */\n  tag_146\n    /* \"#utility.yul\":7757:7760   */\n  dup3\n    /* \"#utility.yul\":7668:7761   */\n  tag_61\n  jump\t// in\ntag_146:\n    /* \"#utility.yul\":7786:7788   */\n  0x20\n    /* \"#utility.yul\":7781:7784   */\n  dup3\n    /* \"#utility.yul\":7777:7789   */\n  add\n    /* \"#utility.yul\":7770:7789   */\n  swap1\n  pop\n    /* \"#utility.yul\":7429:7795   */\n  swap2\n  swap1\n  pop\n  jump\t// out\n    /* \"#utility.yul\":7801:8220   */\ntag_16:\n    /* \"#utility.yul\":7967:7971   */\n  0x00\n    /* \"#utility.yul\":8005:8007   */\n  0x20\n    /* \"#utility.yul\":7994:8003   */\n  dup3\n    /* \"#utility.yul\":7990:8008   */\n  add\n    /* \"#utility.yul\":7982:8008   */\n  swap1\n  pop\n    /* \"#utility.yul\":8054:8063   */\n  dup2\n    /* \"#utility.yul\":8048:8052   */\n  dup2\n    /* \"#utility.yul\":8044:8064   */\n  sub\n    /* \"#utility.yul\":8040:8041   */\n  0x00\n    /* \"#utility.yul\":8029:8038   */\n  dup4\n    /* \"#utility.yul\":8025:8042   */\n  add\n    /* \"#utility.yul\":8018:8065   */\n  mstore\n    /* \"#utility.yul\":8082:8213   */\n  tag_148\n    /* \"#utility.yul\":8208:8212   */\n  dup2\n    /* \"#utility.yul\":8082:8213   */\n  tag_62\n  jump\t// in\ntag_148:\n    /* \"#utility.yul\":8074:8213   */\n  swap1\n  pop\n    /* \"#utility.yul\":7801:8220   */\n  swap2\n  swap1\n  pop\n  jump\t// out\n    /* \"#utility.yul\":8226:8406   */\ntag_22:\n    /* \"#utility.yul\":8274:8351   */\n  0x4e487b7100000000000000000000000000000000000000000000000000000000\n    /* \"#utility.yul\":8271:8272   */\n  0x00\n    /* \"#utility.yul\":8264:8352   */\n  mstore\n    /* \"#utility.yul\":8371:8375   */\n  0x32\n    /* \"#utility.yul\":8368:8369   */\n  0x04\n    /* \"#utility.yul\":8361:8376   */\n  mstore\n    /* \"#utility.yul\":8395:8399   */\n  0x24\n    /* \"#utility.yul\":8392:8393   */\n  0x00\n    /* \"#utility.yul\":8385:8400   */\n  revert\n    /* \"#utility.yul\":8412:8592   */\ntag_63:\n    /* \"#utility.yul\":8460:8537   */\n  0x4e487b7100000000000000000000000000000000000000000000000000000000\n    /* \"#utility.yul\":8457:8458   */\n  0x00\n    /* \"#utility.yul\":8450:8538   */\n  mstore\n    /* \"#utility.yul\":8557:8561   */\n  0x11\n    /* \"#utility.yul\":8554:8555   */\n  0x04\n    /* \"#utility.yul\":8547:8562   */\n  mstore\n    /* \"#utility.yul\":8581:8585   */\n  0x24\n    /* \"#utility.yul\":8578:8579   */\n  0x00\n    /* \"#utility.yul\":8571:8586   */\n  revert\n    /* \"#utility.yul\":8598:8831   */\ntag_34:\n    /* \"#utility.yul\":8637:8640   */\n  0x00\n    /* \"#utility.yul\":8660:8684   */\n  tag_152\n    /* \"#utility.yul\":8678:8683   */\n  dup3\n    /* \"#utility.yul\":8660:8684   */\n  tag_54\n  jump\t// in\ntag_152:\n    /* \"#utility.yul\":8651:8684   */\n  swap2\n  pop\n    /* \"#utility.yul\":8706:8772   */\n  0xffffffffffffffffffffffffffffffffffffffffffffffffffffffffffffffff\n    /* \"#utility.yul\":8699:8704   */\n  dup3\n    /* \"#utility.yul\":8696:8773   */\n  sub\n    /* \"#utility.yul\":8693:8796   */\n  tag_153\n  jumpi\n    /* \"#utility.yul\":8776:8794   */\n  tag_154\n  tag_63\n  jump\t// in\ntag_154:\n    /* \"#utility.yul\":8693:8796   */\ntag_153:\n    /* \"#utility.yul\":8823:8824   */\n  0x01\n    /* \"#utility.yul\":8816:8821   */\n  dup3\n    /* \"#utility.yul\":8812:8825   */\n  add\n    /* \"#utility.yul\":8805:8825   */\n  swap1\n  pop\n    /* \"#utility.yul\":8598:8831   */\n  swap2\n  swap1\n  pop\n  jump\t// out\n    /* \"contracts/Staking.sol\":412:6769  contract NFTStaking1 is Ownable, ReentrancyGuard {... */\ntag_35:\n  dataSize(sub_0)\n  dup1\n  dataOffset(sub_0)\n  0x00\n  codecopy\n  0x00\n  return\nstop\n\nsub_0: assembly {\n        /* \"contracts/Staking.sol\":412:6769  contract NFTStaking1 is Ownable, ReentrancyGuard {... */\n      mstore(0x40, 0x80)\n      callvalue\n      dup1\n      iszero\n      tag_1\n      jumpi\n      0x00\n      dup1\n      revert\n    tag_1:\n      pop\n      jumpi(tag_2, lt(calldatasize, 0x04))\n      shr(0xe0, calldataload(0x00))\n      dup1\n      0x779972da\n      gt\n      tag_15\n      jumpi\n      dup1\n      0x779972da\n      eq\n      tag_9\n      jumpi\n      dup1\n      0x8da5cb5b\n      eq\n      tag_10\n      jumpi\n      dup1\n      0x9f3625f0\n      eq\n      tag_11\n      jumpi\n      dup1\n      0xc69d1923\n      eq\n      tag_12\n      jumpi\n      dup1\n      0xe9545b92\n      eq\n      tag_13\n      jumpi\n      dup1\n      0xf2fde38b\n      eq\n      tag_14\n      jumpi\n      jump(tag_2)\n    tag_15:\n      dup1\n      0x0520537f\n      eq\n      tag_3\n      jumpi\n      dup1\n      0x1902732e\n      eq\n      tag_4\n      jumpi\n      dup1\n      0x20281a98\n      eq\n      tag_5\n      jumpi\n      dup1\n      0x3fd8b02f\n      eq\n      tag_6\n      jumpi\n      dup1\n      0x5b1a4c24\n      eq\n      tag_7\n      jumpi\n      dup1\n      0x715018a6\n      eq\n      tag_8\n      jumpi\n    tag_2:\n      0x00\n      dup1\n      revert\n        /* \"contracts/Staking.sol\":5254:6212  function claimRewards(uint256[] calldata _tokenIds,IERC721 nftAddress) external notContract {... */\n    tag_3:\n      tag_16\n      0x04\n      dup1\n      calldatasize\n      sub\n      dup2\n      add\n      swap1\n      tag_17\n      swap2\n      swap1\n      tag_18\n      jump\t// in\n    tag_17:\n      tag_19\n      jump\t// in\n    tag_16:\n      stop\n        /* \"contracts/Staking.sol\":3461:4031  function lockNFT(uint256[] calldata  _tokenIds, IERC721 nftAddress ) external notContract nonReentrant {... */\n    tag_4:\n      tag_20\n      0x04\n      dup1\n      calldatasize\n      sub\n      dup2\n      add\n      swap1\n      tag_21\n      swap2\n      swap1\n      tag_18\n      jump\t// in\n    tag_21:\n      tag_22\n      jump\t// in\n    tag_20:\n      stop\n        /* \"contracts/Staking.sol\":3187:3320  function claimedRewards(uint256 _tokenId) external view returns (uint256) {... */\n    tag_5:\n      tag_23\n      0x04\n      dup1\n      calldatasize\n      sub\n      dup2\n      add\n      swap1\n      tag_24\n      swap2\n      swap1\n      tag_25\n      jump\t// in\n    tag_24:\n      tag_26\n      jump\t// in\n    tag_23:\n      mload(0x40)\n      tag_27\n      swap2\n      swap1\n      tag_28\n      jump\t// in\n    tag_27:\n      mload(0x40)\n      dup1\n      swap2\n      sub\n      swap1\n      return\n        /* \"contracts/Staking.sol\":502:527  uint256 public lockPeriod */\n    tag_6:\n      tag_29\n      tag_30\n      jump\t// in\n    tag_29:\n      mload(0x40)\n      tag_31\n      swap2\n      swap1\n      tag_28\n      jump\t// in\n    tag_31:\n      mload(0x40)\n      dup1\n      swap2\n      sub\n      swap1\n      return\n        /* \"contracts/Staking.sol\":748:792  mapping(uint256 => LockInfo) public lockInfo */\n    tag_7:\n      tag_32\n      0x04\n      dup1\n      calldatasize\n      sub\n      dup2\n      add\n      swap1\n      tag_33\n      swap2\n      swap1\n      tag_25\n      jump\t// in\n    tag_33:\n      tag_34\n      jump\t// in\n    tag_32:\n      mload(0x40)\n      tag_35\n      swap6\n      swap5\n      swap4\n      swap3\n      swap2\n      swap1\n      tag_36\n      jump\t// in\n    tag_35:\n      mload(0x40)\n      dup1\n      swap2\n      sub\n      swap1\n      return\n        /* \"@openzeppelin/contracts/access/Ownable.sol\":1831:1932  function renounceOwnership() public virtual onlyOwner {... */\n    tag_8:\n      tag_37\n      tag_38\n      jump\t// in\n    tag_37:\n      stop\n        /* \"contracts/Staking.sol\":2806:3019  function setLockPeriod(uint256 _lockPeriod) external onlyOwner {... */\n    tag_9:\n      tag_39\n      0x04\n      dup1\n      calldatasize\n      sub\n      dup2\n      add\n      swap1\n      tag_40\n      swap2\n      swap1\n      tag_25\n      jump\t// in\n    tag_40:\n      tag_41\n      jump\t// in\n    tag_39:\n      stop\n        /* \"@openzeppelin/contracts/access/Ownable.sol\":1201:1286  function owner() public view virtual returns (address) {... */\n    tag_10:\n      tag_42\n      tag_43\n      jump\t// in\n    tag_42:\n      mload(0x40)\n      tag_44\n      swap2\n      swap1\n      tag_45\n      jump\t// in\n    tag_44:\n      mload(0x40)\n      dup1\n      swap2\n      sub\n      swap1\n      return\n        /* \"contracts/Staking.sol\":4144:5156  function unlockNFT(uint256[] calldata _tokenIds, IERC721 nftAddress) external notContract nonReentrant {... */\n    tag_11:\n      tag_46\n      0x04\n      dup1\n      calldatasize\n      sub\n      dup2\n      add\n      swap1\n      tag_47\n      swap2\n      swap1\n      tag_18\n      jump\t// in\n    tag_47:\n      tag_48\n      jump\t// in\n    tag_46:\n      stop\n        /* \"contracts/Staking.sol\":1055:1074  uint256 public WAVE */\n    tag_12:\n      tag_49\n      tag_50\n      jump\t// in\n    tag_49:\n      mload(0x40)\n      tag_51\n      swap2\n      swap1\n      tag_28\n      jump\t// in\n    tag_51:\n      mload(0x40)\n      dup1\n      swap2\n      sub\n      swap1\n      return\n        /* \"contracts/Staking.sol\":974:1021  mapping(IERC721 => stakeNftInfo) public nftInfo */\n    tag_13:\n      tag_52\n      0x04\n      dup1\n      calldatasize\n      sub\n      dup2\n      add\n      swap1\n      tag_53\n      swap2\n      swap1\n      tag_54\n      jump\t// in\n    tag_53:\n      tag_55\n      jump\t// in\n    tag_52:\n      mload(0x40)\n      tag_56\n      swap4\n      swap3\n      swap2\n      swap1\n      tag_57\n      jump\t// in\n    tag_56:\n      mload(0x40)\n      dup1\n      swap2\n      sub\n      swap1\n      return\n        /* \"@openzeppelin/contracts/access/Ownable.sol\":2081:2279  function transferOwnership(address newOwner) public virtual onlyOwner {... */\n    tag_14:\n      tag_58\n      0x04\n      dup1\n      calldatasize\n      sub\n      dup2\n      add\n      swap1\n      tag_59\n      swap2\n      swap1\n      tag_60\n      jump\t// in\n    tag_59:\n      tag_61\n      jump\t// in\n    tag_58:\n      stop\n        /* \"contracts/Staking.sol\":5254:6212  function claimRewards(uint256[] calldata _tokenIds,IERC721 nftAddress) external notContract {... */\n    tag_19:\n        /* \"contracts/Staking.sol\":2532:2564  address(msg.sender).isContract() */\n      tag_63\n        /* \"contracts/Staking.sol\":2540:2550  msg.sender */\n      caller\n        /* \"contracts/Staking.sol\":2532:2562  address(msg.sender).isContract */\n      0xffffffffffffffffffffffffffffffffffffffff\n      and\n      tag_64\n        /* \"contracts/Staking.sol\":2532:2564  address(msg.sender).isContract() */\n      jump\t// in\n    tag_63:\n        /* \"contracts/Staking.sol\":2531:2564  !address(msg.sender).isContract() */\n      iszero\n        /* \"contracts/Staking.sol\":2523:2589  require(!address(msg.sender).isContract(), \"Contract not allowed\") */\n      tag_65\n      jumpi\n      mload(0x40)\n      0x08c379a000000000000000000000000000000000000000000000000000000000\n      dup2\n      mstore\n      0x04\n      add\n      tag_66\n      swap1\n      tag_67\n      jump\t// in\n    tag_66:\n      mload(0x40)\n      dup1\n      swap2\n      sub\n      swap1\n      revert\n    tag_65:\n        /* \"contracts/Staking.sol\":2622:2631  tx.origin */\n      origin\n        /* \"contracts/Staking.sol\":2608:2631  msg.sender == tx.origin */\n      0xffffffffffffffffffffffffffffffffffffffff\n      and\n        /* \"contracts/Staking.sol\":2608:2618  msg.sender */\n      caller\n        /* \"contracts/Staking.sol\":2608:2631  msg.sender == tx.origin */\n      0xffffffffffffffffffffffffffffffffffffffff\n      and\n      eq\n        /* \"contracts/Staking.sol\":2600:2662  require(msg.sender == tx.origin, \"Proxy contract not allowed\") */\n      tag_68\n      jumpi\n      mload(0x40)\n      0x08c379a000000000000000000000000000000000000000000000000000000000\n      dup2\n      mstore\n      0x04\n      add\n      tag_69\n      swap1\n      tag_70\n      jump\t// in\n    tag_69:\n      mload(0x40)\n      dup1\n      swap2\n      sub\n      swap1\n      revert\n    tag_68:\n        /* \"contracts/Staking.sol\":5384:5385  0 */\n      0x00\n        /* \"contracts/Staking.sol\":5365:5374  _tokenIds */\n      dup4\n      dup4\n        /* \"contracts/Staking.sol\":5365:5381  _tokenIds.length */\n      swap1\n      pop\n        /* \"contracts/Staking.sol\":5365:5385  _tokenIds.length > 0 */\n      gt\n        /* \"contracts/Staking.sol\":5357:5399  require(_tokenIds.length > 0, \"No tokens\") */\n      tag_72\n      jumpi\n      mload(0x40)\n      0x08c379a000000000000000000000000000000000000000000000000000000000\n      dup2\n      mstore\n      0x04\n      add\n      tag_73\n      swap1\n      tag_74\n      jump\t// in\n    tag_73:\n      mload(0x40)\n      dup1\n      swap2\n      sub\n      swap1\n      revert\n    tag_72:\n        /* \"contracts/Staking.sol\":5412:5432  uint256 totalRewards */\n      0x00\n        /* \"contracts/Staking.sol\":5448:5457  uint256 i */\n      dup1\n        /* \"contracts/Staking.sol\":5460:5461  0 */\n      0x00\n        /* \"contracts/Staking.sol\":5448:5461  uint256 i = 0 */\n      swap1\n      pop\n        /* \"contracts/Staking.sol\":5443:6136  for (uint256 i = 0; i < _tokenIds.length; i++) {... */\n    tag_75:\n        /* \"contracts/Staking.sol\":5467:5476  _tokenIds */\n      dup5\n      dup5\n        /* \"contracts/Staking.sol\":5467:5483  _tokenIds.length */\n      swap1\n      pop\n        /* \"contracts/Staking.sol\":5463:5464  i */\n      dup2\n        /* \"contracts/Staking.sol\":5463:5483  i < _tokenIds.length */\n      lt\n        /* \"contracts/Staking.sol\":5443:6136  for (uint256 i = 0; i < _tokenIds.length; i++) {... */\n      iszero\n      tag_76\n      jumpi\n        /* \"contracts/Staking.sol\":5505:5525  LockInfo memory info */\n      0x00\n        /* \"contracts/Staking.sol\":5528:5536  lockInfo */\n      0x03\n        /* \"contracts/Staking.sol\":5528:5550  lockInfo[_tokenIds[i]] */\n      0x00\n        /* \"contracts/Staking.sol\":5537:5546  _tokenIds */\n      dup8\n      dup8\n        /* \"contracts/Staking.sol\":5547:5548  i */\n      dup6\n        /* \"contracts/Staking.sol\":5537:5549  _tokenIds[i] */\n      dup2\n      dup2\n      lt\n      tag_78\n      jumpi\n      tag_79\n      tag_80\n      jump\t// in\n    tag_79:\n    tag_78:\n      swap1\n      pop\n      0x20\n      mul\n      add\n      calldataload\n        /* \"contracts/Staking.sol\":5528:5550  lockInfo[_tokenIds[i]] */\n      dup2\n      mstore\n      0x20\n      add\n      swap1\n      dup2\n      mstore\n      0x20\n      add\n      0x00\n      keccak256\n        /* \"contracts/Staking.sol\":5505:5550  LockInfo memory info = lockInfo[_tokenIds[i]] */\n      mload(0x40)\n      dup1\n      0xa0\n      add\n      0x40\n      mstore\n      swap1\n      dup2\n      0x00\n      dup3\n      add\n      0x00\n      swap1\n      sload\n      swap1\n      0x0100\n      exp\n      swap1\n      div\n      0xffffffffffffffffffffffffffffffffffffffff\n      and\n      0xffffffffffffffffffffffffffffffffffffffff\n      and\n      0xffffffffffffffffffffffffffffffffffffffff\n      and\n      dup2\n      mstore\n      0x20\n      add\n      0x01\n      dup3\n      add\n      sload\n      dup2\n      mstore\n      0x20\n      add\n      0x02\n      dup3\n      add\n      sload\n      dup2\n      mstore\n      0x20\n      add\n      0x03\n      dup3\n      add\n      0x00\n      swap1\n      sload\n      swap1\n      0x0100\n      exp\n      swap1\n      div\n      0xff\n      and\n      iszero\n      iszero\n      iszero\n      iszero\n      dup2\n      mstore\n      0x20\n      add\n      0x03\n      dup3\n      add\n      0x01\n      swap1\n      sload\n      swap1\n      0x0100\n      exp\n      swap1\n      div\n      0xffffffffffffffffffffffffffffffffffffffff\n      and\n      0xffffffffffffffffffffffffffffffffffffffff\n      and\n      0xffffffffffffffffffffffffffffffffffffffff\n      and\n      dup2\n      mstore\n      pop\n      pop\n      swap1\n      pop\n        /* \"contracts/Staking.sol\":5587:5597  msg.sender */\n      caller\n        /* \"contracts/Staking.sol\":5573:5597  info.owner == msg.sender */\n      0xffffffffffffffffffffffffffffffffffffffff\n      and\n        /* \"contracts/Staking.sol\":5573:5577  info */\n      dup2\n        /* \"contracts/Staking.sol\":5573:5583  info.owner */\n      0x00\n      add\n      mload\n        /* \"contracts/Staking.sol\":5573:5597  info.owner == msg.sender */\n      0xffffffffffffffffffffffffffffffffffffffff\n      and\n      eq\n        /* \"contracts/Staking.sol\":5565:5619  require(info.owner == msg.sender, \"Not a token owner\") */\n      tag_81\n      jumpi\n      mload(0x40)\n      0x08c379a000000000000000000000000000000000000000000000000000000000\n      dup2\n      mstore\n      0x04\n      add\n      tag_82\n      swap1\n      tag_83\n      jump\t// in\n    tag_82:\n      mload(0x40)\n      dup1\n      swap2\n      sub\n      swap1\n      revert\n    tag_81:\n        /* \"contracts/Staking.sol\":5673:5688  block.timestamp */\n      timestamp\n        /* \"contracts/Staking.sol\":5660:5670  lockPeriod */\n      sload(0x02)\n        /* \"contracts/Staking.sol\":5642:5646  info */\n      dup3\n        /* \"contracts/Staking.sol\":5642:5657  info.lockedTime */\n      0x20\n      add\n      mload\n        /* \"contracts/Staking.sol\":5642:5670  info.lockedTime + lockPeriod */\n      tag_84\n      swap2\n      swap1\n      tag_85\n      jump\t// in\n    tag_84:\n        /* \"contracts/Staking.sol\":5642:5688  info.lockedTime + lockPeriod < block.timestamp */\n      lt\n        /* \"contracts/Staking.sol\":5634:5714  require(info.lockedTime + lockPeriod < block.timestamp, \"Not able to claim yet\") */\n      tag_86\n      jumpi\n      mload(0x40)\n      0x08c379a000000000000000000000000000000000000000000000000000000000\n      dup2\n      mstore\n      0x04\n      add\n      tag_87\n      swap1\n      tag_88\n      jump\t// in\n    tag_87:\n      mload(0x40)\n      dup1\n      swap2\n      sub\n      swap1\n      revert\n    tag_86:\n        /* \"contracts/Staking.sol\":5738:5742  info */\n      dup1\n        /* \"contracts/Staking.sol\":5738:5753  info.isUnlocked */\n      0x60\n      add\n      mload\n        /* \"contracts/Staking.sol\":5737:5753  !info.isUnlocked */\n      iszero\n        /* \"contracts/Staking.sol\":5729:5774  require(!info.isUnlocked, \"Already unlocked\") */\n      tag_89\n      jumpi\n      mload(0x40)\n      0x08c379a000000000000000000000000000000000000000000000000000000000\n      dup2\n      mstore\n      0x04\n      add\n      tag_90\n      swap1\n      tag_91\n      jump\t// in\n    tag_90:\n      mload(0x40)\n      dup1\n      swap2\n      sub\n      swap1\n      revert\n    tag_89:\n        /* \"contracts/Staking.sol\":5791:5810  uint256 totalAmount */\n      0x00\n        /* \"contracts/Staking.sol\":5813:5852  _rewardAmount(_tokenIds[i], nftAddress) */\n      tag_92\n        /* \"contracts/Staking.sol\":5827:5836  _tokenIds */\n      dup8\n      dup8\n        /* \"contracts/Staking.sol\":5837:5838  i */\n      dup6\n        /* \"contracts/Staking.sol\":5827:5839  _tokenIds[i] */\n      dup2\n      dup2\n      lt\n      tag_93\n      jumpi\n      tag_94\n      tag_80\n      jump\t// in\n    tag_94:\n    tag_93:\n      swap1\n      pop\n      0x20\n      mul\n      add\n      calldataload\n        /* \"contracts/Staking.sol\":5841:5851  nftAddress */\n      dup7\n        /* \"contracts/Staking.sol\":5813:5826  _rewardAmount */\n      tag_95\n        /* \"contracts/Staking.sol\":5813:5852  _rewardAmount(_tokenIds[i], nftAddress) */\n      jump\t// in\n    tag_92:\n        /* \"contracts/Staking.sol\":5791:5852  uint256 totalAmount = _rewardAmount(_tokenIds[i], nftAddress) */\n      swap1\n      pop\n        /* \"contracts/Staking.sol\":5867:5891  uint256 unclaminedAmount */\n      0x00\n        /* \"contracts/Staking.sol\":5908:5912  info */\n      dup3\n        /* \"contracts/Staking.sol\":5908:5927  info.claimedRewards */\n      0x40\n      add\n      mload\n        /* \"contracts/Staking.sol\":5894:5905  totalAmount */\n      dup3\n        /* \"contracts/Staking.sol\":5894:5927  totalAmount - info.claimedRewards */\n      tag_96\n      swap2\n      swap1\n      tag_97\n      jump\t// in\n    tag_96:\n        /* \"contracts/Staking.sol\":5867:5927  uint256 unclaminedAmount = totalAmount - info.claimedRewards */\n      swap1\n      pop\n        /* \"contracts/Staking.sol\":5942:5949  nftInfo */\n      0x04\n        /* \"contracts/Staking.sol\":5942:5961  nftInfo[nftAddress] */\n      0x00\n        /* \"contracts/Staking.sol\":5950:5960  nftAddress */\n      dup8\n        /* \"contracts/Staking.sol\":5942:5961  nftInfo[nftAddress] */\n      0xffffffffffffffffffffffffffffffffffffffff\n      and\n      0xffffffffffffffffffffffffffffffffffffffff\n      and\n      dup2\n      mstore\n      0x20\n      add\n      swap1\n      dup2\n      mstore\n      0x20\n      add\n      0x00\n      keccak256\n        /* \"contracts/Staking.sol\":5942:5974  nftInfo[nftAddress].rewardsToken */\n      0x00\n      add\n      0x00\n      swap1\n      sload\n      swap1\n      0x0100\n      exp\n      swap1\n      div\n      0xffffffffffffffffffffffffffffffffffffffff\n      and\n        /* \"contracts/Staking.sol\":5942:5979  nftInfo[nftAddress].rewardsToken.mint */\n      0xffffffffffffffffffffffffffffffffffffffff\n      and\n      0x40c10f19\n        /* \"contracts/Staking.sol\":5980:5990  msg.sender */\n      caller\n        /* \"contracts/Staking.sol\":5992:6008  unclaminedAmount */\n      dup4\n        /* \"contracts/Staking.sol\":5942:6009  nftInfo[nftAddress].rewardsToken.mint(msg.sender, unclaminedAmount) */\n      mload(0x40)\n      dup4\n      0xffffffff\n      and\n      0xe0\n      shl\n      dup2\n      mstore\n      0x04\n      add\n      tag_98\n      swap3\n      swap2\n      swap1\n      tag_99\n      jump\t// in\n    tag_98:\n      0x00\n      mload(0x40)\n      dup1\n      dup4\n      sub\n      dup2\n      0x00\n      dup8\n      dup1\n      extcodesize\n      iszero\n      dup1\n      iszero\n      tag_100\n      jumpi\n      0x00\n      dup1\n      revert\n    tag_100:\n      pop\n      gas\n      call\n      iszero\n      dup1\n      iszero\n      tag_102\n      jumpi\n      returndatasize\n      0x00\n      dup1\n      returndatacopy\n      revert(0x00, returndatasize)\n    tag_102:\n      pop\n      pop\n      pop\n      pop\n        /* \"contracts/Staking.sol\":6040:6056  unclaminedAmount */\n      dup1\n        /* \"contracts/Staking.sol\":6024:6056  totalRewards += unclaminedAmount */\n      dup6\n      tag_103\n      swap2\n      swap1\n      tag_85\n      jump\t// in\n    tag_103:\n      swap5\n      pop\n        /* \"contracts/Staking.sol\":6113:6124  totalAmount */\n      dup2\n        /* \"contracts/Staking.sol\":6073:6081  lockInfo */\n      0x03\n        /* \"contracts/Staking.sol\":6073:6095  lockInfo[_tokenIds[i]] */\n      0x00\n        /* \"contracts/Staking.sol\":6082:6091  _tokenIds */\n      dup11\n      dup11\n        /* \"contracts/Staking.sol\":6092:6093  i */\n      dup9\n        /* \"contracts/Staking.sol\":6082:6094  _tokenIds[i] */\n      dup2\n      dup2\n      lt\n      tag_104\n      jumpi\n      tag_105\n      tag_80\n      jump\t// in\n    tag_105:\n    tag_104:\n      swap1\n      pop\n      0x20\n      mul\n      add\n      calldataload\n        /* \"contracts/Staking.sol\":6073:6095  lockInfo[_tokenIds[i]] */\n      dup2\n      mstore\n      0x20\n      add\n      swap1\n      dup2\n      mstore\n      0x20\n      add\n      0x00\n      keccak256\n        /* \"contracts/Staking.sol\":6073:6110  lockInfo[_tokenIds[i]].claimedRewards */\n      0x02\n      add\n        /* \"contracts/Staking.sol\":6073:6124  lockInfo[_tokenIds[i]].claimedRewards = totalAmount */\n      dup2\n      swap1\n      sstore\n      pop\n        /* \"contracts/Staking.sol\":5490:6136  {... */\n      pop\n      pop\n      pop\n        /* \"contracts/Staking.sol\":5485:5488  i++ */\n      dup1\n      dup1\n      tag_106\n      swap1\n      tag_107\n      jump\t// in\n    tag_106:\n      swap2\n      pop\n      pop\n        /* \"contracts/Staking.sol\":5443:6136  for (uint256 i = 0; i < _tokenIds.length; i++) {... */\n      jump(tag_75)\n    tag_76:\n      pop\n        /* \"contracts/Staking.sol\":6168:6178  msg.sender */\n      caller\n        /* \"contracts/Staking.sol\":6153:6204  RewardsClaimed(msg.sender, _tokenIds, totalRewards) */\n      0xffffffffffffffffffffffffffffffffffffffff\n      and\n      0x37826be3c26dbad83731f4b985f22fa9ef86b6d1974cd77208332b7f1f283c0c\n        /* \"contracts/Staking.sol\":6180:6189  _tokenIds */\n      dup6\n      dup6\n        /* \"contracts/Staking.sol\":6191:6203  totalRewards */\n      dup5\n        /* \"contracts/Staking.sol\":6153:6204  RewardsClaimed(msg.sender, _tokenIds, totalRewards) */\n      mload(0x40)\n      tag_108\n      swap4\n      swap3\n      swap2\n      swap1\n      tag_109\n      jump\t// in\n    tag_108:\n      mload(0x40)\n      dup1\n      swap2\n      sub\n      swap1\n      log2\n        /* \"contracts/Staking.sol\":5346:6212  {... */\n      pop\n        /* \"contracts/Staking.sol\":5254:6212  function claimRewards(uint256[] calldata _tokenIds,IERC721 nftAddress) external notContract {... */\n      pop\n      pop\n      pop\n      jump\t// out\n        /* \"contracts/Staking.sol\":3461:4031  function lockNFT(uint256[] calldata  _tokenIds, IERC721 nftAddress ) external notContract nonReentrant {... */\n    tag_22:\n        /* \"contracts/Staking.sol\":2532:2564  address(msg.sender).isContract() */\n      tag_111\n        /* \"contracts/Staking.sol\":2540:2550  msg.sender */\n      caller\n        /* \"contracts/Staking.sol\":2532:2562  address(msg.sender).isContract */\n      0xffffffffffffffffffffffffffffffffffffffff\n      and\n      tag_64\n        /* \"contracts/Staking.sol\":2532:2564  address(msg.sender).isContract() */\n      jump\t// in\n    tag_111:\n        /* \"contracts/Staking.sol\":2531:2564  !address(msg.sender).isContract() */\n      iszero\n        /* \"contracts/Staking.sol\":2523:2589  require(!address(msg.sender).isContract(), \"Contract not allowed\") */\n      tag_112\n      jumpi\n      mload(0x40)\n      0x08c379a000000000000000000000000000000000000000000000000000000000\n      dup2\n      mstore\n      0x04\n      add\n      tag_113\n      swap1\n      tag_67\n      jump\t// in\n    tag_113:\n      mload(0x40)\n      dup1\n      swap2\n      sub\n      swap1\n      revert\n    tag_112:\n        /* \"contracts/Staking.sol\":2622:2631  tx.origin */\n      origin\n        /* \"contracts/Staking.sol\":2608:2631  msg.sender == tx.origin */\n      0xffffffffffffffffffffffffffffffffffffffff\n      and\n        /* \"contracts/Staking.sol\":2608:2618  msg.sender */\n      caller\n        /* \"contracts/Staking.sol\":2608:2631  msg.sender == tx.origin */\n      0xffffffffffffffffffffffffffffffffffffffff\n      and\n      eq\n        /* \"contracts/Staking.sol\":2600:2662  require(msg.sender == tx.origin, \"Proxy contract not allowed\") */\n      tag_114\n      jumpi\n      mload(0x40)\n      0x08c379a000000000000000000000000000000000000000000000000000000000\n      dup2\n      mstore\n      0x04\n      add\n      tag_115\n      swap1\n      tag_70\n      jump\t// in\n    tag_115:\n      mload(0x40)\n      dup1\n      swap2\n      sub\n      swap1\n      revert\n    tag_114:\n        /* \"@openzeppelin/contracts/security/ReentrancyGuard.sol\":1744:1745  2 */\n      0x02\n        /* \"@openzeppelin/contracts/security/ReentrancyGuard.sol\":2325:2332  _status */\n      sload(0x01)\n        /* \"@openzeppelin/contracts/security/ReentrancyGuard.sol\":2325:2344  _status != _ENTERED */\n      sub\n        /* \"@openzeppelin/contracts/security/ReentrancyGuard.sol\":2317:2380  require(_status != _ENTERED, \"ReentrancyGuard: reentrant call\") */\n      tag_117\n      jumpi\n      mload(0x40)\n      0x08c379a000000000000000000000000000000000000000000000000000000000\n      dup2\n      mstore\n      0x04\n      add\n      tag_118\n      swap1\n      tag_119\n      jump\t// in\n    tag_118:\n      mload(0x40)\n      dup1\n      swap2\n      sub\n      swap1\n      revert\n    tag_117:\n        /* \"@openzeppelin/contracts/security/ReentrancyGuard.sol\":1744:1745  2 */\n      0x02\n        /* \"@openzeppelin/contracts/security/ReentrancyGuard.sol\":2455:2462  _status */\n      0x01\n        /* \"@openzeppelin/contracts/security/ReentrancyGuard.sol\":2455:2473  _status = _ENTERED */\n      dup2\n      swap1\n      sstore\n      pop\n        /* \"contracts/Staking.sol\":3602:3603  0 */\n      0x00\n        /* \"contracts/Staking.sol\":3583:3592  _tokenIds */\n      dup4\n      dup4\n        /* \"contracts/Staking.sol\":3583:3599  _tokenIds.length */\n      swap1\n      pop\n        /* \"contracts/Staking.sol\":3583:3603  _tokenIds.length > 0 */\n      gt\n        /* \"contracts/Staking.sol\":3575:3617  require(_tokenIds.length > 0, \"No tokens\") */\n      tag_121\n      jumpi\n      mload(0x40)\n      0x08c379a000000000000000000000000000000000000000000000000000000000\n      dup2\n      mstore\n      0x04\n      add\n      tag_122\n      swap1\n      tag_74\n      jump\t// in\n    tag_122:\n      mload(0x40)\n      dup1\n      swap2\n      sub\n      swap1\n      revert\n    tag_121:\n        /* \"contracts/Staking.sol\":3635:3644  uint256 i */\n      0x00\n        /* \"contracts/Staking.sol\":3630:3974  for (uint256 i = 0; i < _tokenIds.length; i++) {... */\n    tag_123:\n        /* \"contracts/Staking.sol\":3654:3663  _tokenIds */\n      dup4\n      dup4\n        /* \"contracts/Staking.sol\":3654:3670  _tokenIds.length */\n      swap1\n      pop\n        /* \"contracts/Staking.sol\":3650:3651  i */\n      dup2\n        /* \"contracts/Staking.sol\":3650:3670  i < _tokenIds.length */\n      lt\n        /* \"contracts/Staking.sol\":3630:3974  for (uint256 i = 0; i < _tokenIds.length; i++) {... */\n      iszero\n      tag_124\n      jumpi\n        /* \"contracts/Staking.sol\":3736:3746  msg.sender */\n      caller\n        /* \"contracts/Staking.sol\":3700:3746  nftAddress.ownerOf(_tokenIds[i]) == msg.sender */\n      0xffffffffffffffffffffffffffffffffffffffff\n      and\n        /* \"contracts/Staking.sol\":3700:3710  nftAddress */\n      dup3\n        /* \"contracts/Staking.sol\":3700:3718  nftAddress.ownerOf */\n      0xffffffffffffffffffffffffffffffffffffffff\n      and\n      0x6352211e\n        /* \"contracts/Staking.sol\":3719:3728  _tokenIds */\n      dup7\n      dup7\n        /* \"contracts/Staking.sol\":3729:3730  i */\n      dup6\n        /* \"contracts/Staking.sol\":3719:3731  _tokenIds[i] */\n      dup2\n      dup2\n      lt\n      tag_126\n      jumpi\n      tag_127\n      tag_80\n      jump\t// in\n    tag_127:\n    tag_126:\n      swap1\n      pop\n      0x20\n      mul\n      add\n      calldataload\n        /* \"contracts/Staking.sol\":3700:3732  nftAddress.ownerOf(_tokenIds[i]) */\n      mload(0x40)\n      dup3\n      0xffffffff\n      and\n      0xe0\n      shl\n      dup2\n      mstore\n      0x04\n      add\n      tag_128\n      swap2\n      swap1\n      tag_28\n      jump\t// in\n    tag_128:\n      0x20\n      mload(0x40)\n      dup1\n      dup4\n      sub\n      dup2\n      dup7\n      gas\n      staticcall\n      iszero\n      dup1\n      iszero\n      tag_130\n      jumpi\n      returndatasize\n      0x00\n      dup1\n      returndatacopy\n      revert(0x00, returndatasize)\n    tag_130:\n      pop\n      pop\n      pop\n      pop\n      mload(0x40)\n      returndatasize\n      not(0x1f)\n      0x1f\n      dup3\n      add\n      and\n      dup3\n      add\n      dup1\n      0x40\n      mstore\n      pop\n      dup2\n      add\n      swap1\n      tag_131\n      swap2\n      swap1\n      tag_132\n      jump\t// in\n    tag_131:\n        /* \"contracts/Staking.sol\":3700:3746  nftAddress.ownerOf(_tokenIds[i]) == msg.sender */\n      0xffffffffffffffffffffffffffffffffffffffff\n      and\n      eq\n        /* \"contracts/Staking.sol\":3692:3776  require(nftAddress.ownerOf(_tokenIds[i]) == msg.sender, \"You don't hold this token\") */\n      tag_133\n      jumpi\n      mload(0x40)\n      0x08c379a000000000000000000000000000000000000000000000000000000000\n      dup2\n      mstore\n      0x04\n      add\n      tag_134\n      swap1\n      tag_135\n      jump\t// in\n    tag_134:\n      mload(0x40)\n      dup1\n      swap2\n      sub\n      swap1\n      revert\n    tag_133:\n        /* \"contracts/Staking.sol\":3791:3801  nftAddress */\n      dup2\n        /* \"contracts/Staking.sol\":3791:3814  nftAddress.transferFrom */\n      0xffffffffffffffffffffffffffffffffffffffff\n      and\n      0x23b872dd\n        /* \"contracts/Staking.sol\":3815:3825  msg.sender */\n      caller\n        /* \"contracts/Staking.sol\":3835:3839  this */\n      address\n        /* \"contracts/Staking.sol\":3842:3851  _tokenIds */\n      dup8\n      dup8\n        /* \"contracts/Staking.sol\":3852:3853  i */\n      dup7\n        /* \"contracts/Staking.sol\":3842:3854  _tokenIds[i] */\n      dup2\n      dup2\n      lt\n      tag_136\n      jumpi\n      tag_137\n      tag_80\n      jump\t// in\n    tag_137:\n    tag_136:\n      swap1\n      pop\n      0x20\n      mul\n      add\n      calldataload\n        /* \"contracts/Staking.sol\":3791:3855  nftAddress.transferFrom(msg.sender, address(this), _tokenIds[i]) */\n      mload(0x40)\n      dup5\n      0xffffffff\n      and\n      0xe0\n      shl\n      dup2\n      mstore\n      0x04\n      add\n      tag_138\n      swap4\n      swap3\n      swap2\n      swap1\n      tag_139\n      jump\t// in\n    tag_138:\n      0x00\n      mload(0x40)\n      dup1\n      dup4\n      sub\n      dup2\n      0x00\n      dup8\n      dup1\n      extcodesize\n      iszero\n      dup1\n      iszero\n      tag_140\n      jumpi\n      0x00\n      dup1\n      revert\n    tag_140:\n      pop\n      gas\n      call\n      iszero\n      dup1\n      iszero\n      tag_142\n      jumpi\n      returndatasize\n      0x00\n      dup1\n      returndatacopy\n      revert(0x00, returndatasize)\n    tag_142:\n      pop\n      pop\n      pop\n      pop\n        /* \"contracts/Staking.sol\":3895:3962  LockInfo(msg.sender, block.timestamp, 0, false,IERC721(nftAddress)) */\n      mload(0x40)\n      dup1\n      0xa0\n      add\n      0x40\n      mstore\n      dup1\n        /* \"contracts/Staking.sol\":3904:3914  msg.sender */\n      caller\n        /* \"contracts/Staking.sol\":3895:3962  LockInfo(msg.sender, block.timestamp, 0, false,IERC721(nftAddress)) */\n      0xffffffffffffffffffffffffffffffffffffffff\n      and\n      dup2\n      mstore\n      0x20\n      add\n        /* \"contracts/Staking.sol\":3916:3931  block.timestamp */\n      timestamp\n        /* \"contracts/Staking.sol\":3895:3962  LockInfo(msg.sender, block.timestamp, 0, false,IERC721(nftAddress)) */\n      dup2\n      mstore\n      0x20\n      add\n        /* \"contracts/Staking.sol\":3933:3934  0 */\n      0x00\n        /* \"contracts/Staking.sol\":3895:3962  LockInfo(msg.sender, block.timestamp, 0, false,IERC721(nftAddress)) */\n      dup2\n      mstore\n      0x20\n      add\n        /* \"contracts/Staking.sol\":3936:3941  false */\n      0x00\n        /* \"contracts/Staking.sol\":3895:3962  LockInfo(msg.sender, block.timestamp, 0, false,IERC721(nftAddress)) */\n      iszero\n      iszero\n      dup2\n      mstore\n      0x20\n      add\n        /* \"contracts/Staking.sol\":3950:3960  nftAddress */\n      dup4\n        /* \"contracts/Staking.sol\":3895:3962  LockInfo(msg.sender, block.timestamp, 0, false,IERC721(nftAddress)) */\n      0xffffffffffffffffffffffffffffffffffffffff\n      and\n      dup2\n      mstore\n      pop\n        /* \"contracts/Staking.sol\":3870:3878  lockInfo */\n      0x03\n        /* \"contracts/Staking.sol\":3870:3892  lockInfo[_tokenIds[i]] */\n      0x00\n        /* \"contracts/Staking.sol\":3879:3888  _tokenIds */\n      dup7\n      dup7\n        /* \"contracts/Staking.sol\":3889:3890  i */\n      dup6\n        /* \"contracts/Staking.sol\":3879:3891  _tokenIds[i] */\n      dup2\n      dup2\n      lt\n      tag_143\n      jumpi\n      tag_144\n      tag_80\n      jump\t// in\n    tag_144:\n    tag_143:\n      swap1\n      pop\n      0x20\n      mul\n      add\n      calldataload\n        /* \"contracts/Staking.sol\":3870:3892  lockInfo[_tokenIds[i]] */\n      dup2\n      mstore\n      0x20\n      add\n      swap1\n      dup2\n      mstore\n      0x20\n      add\n      0x00\n      keccak256\n        /* \"contracts/Staking.sol\":3870:3962  lockInfo[_tokenIds[i]] = LockInfo(msg.sender, block.timestamp, 0, false,IERC721(nftAddress)) */\n      0x00\n      dup3\n      add\n      mload\n      dup2\n      0x00\n      add\n      exp(0x0100, 0x00)\n      dup2\n      sload\n      dup2\n      0xffffffffffffffffffffffffffffffffffffffff\n      mul\n      not\n      and\n      swap1\n      dup4\n      0xffffffffffffffffffffffffffffffffffffffff\n      and\n      mul\n      or\n      swap1\n      sstore\n      pop\n      0x20\n      dup3\n      add\n      mload\n      dup2\n      0x01\n      add\n      sstore\n      0x40\n      dup3\n      add\n      mload\n      dup2\n      0x02\n      add\n      sstore\n      0x60\n      dup3\n      add\n      mload\n      dup2\n      0x03\n      add\n      exp(0x0100, 0x00)\n      dup2\n      sload\n      dup2\n      0xff\n      mul\n      not\n      and\n      swap1\n      dup4\n      iszero\n      iszero\n      mul\n      or\n      swap1\n      sstore\n      pop\n      0x80\n      dup3\n      add\n      mload\n      dup2\n      0x03\n      add\n      exp(0x0100, 0x01)\n      dup2\n      sload\n      dup2\n      0xffffffffffffffffffffffffffffffffffffffff\n      mul\n      not\n      and\n      swap1\n      dup4\n      0xffffffffffffffffffffffffffffffffffffffff\n      and\n      mul\n      or\n      swap1\n      sstore\n      pop\n      swap1\n      pop\n      pop\n        /* \"contracts/Staking.sol\":3672:3675  i++ */\n      dup1\n      dup1\n      tag_145\n      swap1\n      tag_107\n      jump\t// in\n    tag_145:\n      swap2\n      pop\n      pop\n        /* \"contracts/Staking.sol\":3630:3974  for (uint256 i = 0; i < _tokenIds.length; i++) {... */\n      jump(tag_123)\n    tag_124:\n      pop\n        /* \"contracts/Staking.sol\":4001:4011  msg.sender */\n      caller\n        /* \"contracts/Staking.sol\":3991:4023  NFTLocked(msg.sender, _tokenIds) */\n      0xffffffffffffffffffffffffffffffffffffffff\n      and\n      0x458be0227bccc9e803dec79bd16767eeaf9925d2ce708eeed7ae1f3621f968f9\n        /* \"contracts/Staking.sol\":4013:4022  _tokenIds */\n      dup5\n      dup5\n        /* \"contracts/Staking.sol\":3991:4023  NFTLocked(msg.sender, _tokenIds) */\n      mload(0x40)\n      tag_146\n      swap3\n      swap2\n      swap1\n      tag_147\n      jump\t// in\n    tag_146:\n      mload(0x40)\n      dup1\n      swap2\n      sub\n      swap1\n      log2\n        /* \"@openzeppelin/contracts/security/ReentrancyGuard.sol\":1701:1702  1 */\n      0x01\n        /* \"@openzeppelin/contracts/security/ReentrancyGuard.sol\":2628:2635  _status */\n      dup1\n        /* \"@openzeppelin/contracts/security/ReentrancyGuard.sol\":2628:2650  _status = _NOT_ENTERED */\n      dup2\n      swap1\n      sstore\n      pop\n        /* \"contracts/Staking.sol\":3461:4031  function lockNFT(uint256[] calldata  _tokenIds, IERC721 nftAddress ) external notContract nonReentrant {... */\n      pop\n      pop\n      pop\n      jump\t// out\n        /* \"contracts/Staking.sol\":3187:3320  function claimedRewards(uint256 _tokenId) external view returns (uint256) {... */\n    tag_26:\n        /* \"contracts/Staking.sol\":3252:3259  uint256 */\n      0x00\n        /* \"contracts/Staking.sol\":3279:3287  lockInfo */\n      0x03\n        /* \"contracts/Staking.sol\":3279:3297  lockInfo[_tokenId] */\n      0x00\n        /* \"contracts/Staking.sol\":3288:3296  _tokenId */\n      dup4\n        /* \"contracts/Staking.sol\":3279:3297  lockInfo[_tokenId] */\n      dup2\n      mstore\n      0x20\n      add\n      swap1\n      dup2\n      mstore\n      0x20\n      add\n      0x00\n      keccak256\n        /* \"contracts/Staking.sol\":3279:3312  lockInfo[_tokenId].claimedRewards */\n      0x02\n      add\n      sload\n        /* \"contracts/Staking.sol\":3272:3312  return lockInfo[_tokenId].claimedRewards */\n      swap1\n      pop\n        /* \"contracts/Staking.sol\":3187:3320  function claimedRewards(uint256 _tokenId) external view returns (uint256) {... */\n      swap2\n      swap1\n      pop\n      jump\t// out\n        /* \"contracts/Staking.sol\":502:527  uint256 public lockPeriod */\n    tag_30:\n      sload(0x02)\n      dup2\n      jump\t// out\n        /* \"contracts/Staking.sol\":748:792  mapping(uint256 => LockInfo) public lockInfo */\n    tag_34:\n      mstore(0x20, 0x03)\n      dup1\n      0x00\n      mstore\n      keccak256(0x00, 0x40)\n      0x00\n      swap2\n      pop\n      swap1\n      pop\n      dup1\n      0x00\n      add\n      0x00\n      swap1\n      sload\n      swap1\n      0x0100\n      exp\n      swap1\n      div\n      0xffffffffffffffffffffffffffffffffffffffff\n      and\n      swap1\n      dup1\n      0x01\n      add\n      sload\n      swap1\n      dup1\n      0x02\n      add\n      sload\n      swap1\n      dup1\n      0x03\n      add\n      0x00\n      swap1\n      sload\n      swap1\n      0x0100\n      exp\n      swap1\n      div\n      0xff\n      and\n      swap1\n      dup1\n      0x03\n      add\n      0x01\n      swap1\n      sload\n      swap1\n      0x0100\n      exp\n      swap1\n      div\n      0xffffffffffffffffffffffffffffffffffffffff\n      and\n      swap1\n      pop\n      dup6\n      jump\t// out\n        /* \"@openzeppelin/contracts/access/Ownable.sol\":1831:1932  function renounceOwnership() public virtual onlyOwner {... */\n    tag_38:\n        /* \"@openzeppelin/contracts/access/Ownable.sol\":1094:1107  _checkOwner() */\n      tag_150\n        /* \"@openzeppelin/contracts/access/Ownable.sol\":1094:1105  _checkOwner */\n      tag_151\n        /* \"@openzeppelin/contracts/access/Ownable.sol\":1094:1107  _checkOwner() */\n      jump\t// in\n    tag_150:\n        /* \"@openzeppelin/contracts/access/Ownable.sol\":1895:1925  _transferOwnership(address(0)) */\n      tag_153\n        /* \"@openzeppelin/contracts/access/Ownable.sol\":1922:1923  0 */\n      0x00\n        /* \"@openzeppelin/contracts/access/Ownable.sol\":1895:1913  _transferOwnership */\n      tag_154\n        /* \"@openzeppelin/contracts/access/Ownable.sol\":1895:1925  _transferOwnership(address(0)) */\n      jump\t// in\n    tag_153:\n        /* \"@openzeppelin/contracts/access/Ownable.sol\":1831:1932  function renounceOwnership() public virtual onlyOwner {... */\n      jump\t// out\n        /* \"contracts/Staking.sol\":2806:3019  function setLockPeriod(uint256 _lockPeriod) external onlyOwner {... */\n    tag_41:\n        /* \"@openzeppelin/contracts/access/Ownable.sol\":1094:1107  _checkOwner() */\n      tag_156\n        /* \"@openzeppelin/contracts/access/Ownable.sol\":1094:1105  _checkOwner */\n      tag_151\n        /* \"@openzeppelin/contracts/access/Ownable.sol\":1094:1107  _checkOwner() */\n      jump\t// in\n    tag_156:\n        /* \"contracts/Staking.sol\":2902:2903  0 */\n      0x00\n        /* \"contracts/Staking.sol\":2888:2899  _lockPeriod */\n      dup2\n        /* \"contracts/Staking.sol\":2888:2903  _lockPeriod > 0 */\n      gt\n        /* \"contracts/Staking.sol\":2880:2928  require(_lockPeriod > 0, \"Invalid lock period.\") */\n      tag_158\n      jumpi\n      mload(0x40)\n      0x08c379a000000000000000000000000000000000000000000000000000000000\n      dup2\n      mstore\n      0x04\n      add\n      tag_159\n      swap1\n      tag_160\n      jump\t// in\n    tag_159:\n      mload(0x40)\n      dup1\n      swap2\n      sub\n      swap1\n      revert\n    tag_158:\n        /* \"contracts/Staking.sol\":2952:2963  _lockPeriod */\n      dup1\n        /* \"contracts/Staking.sol\":2939:2949  lockPeriod */\n      0x02\n        /* \"contracts/Staking.sol\":2939:2963  lockPeriod = _lockPeriod */\n      dup2\n      swap1\n      sstore\n      pop\n        /* \"contracts/Staking.sol\":2981:3011  LockPeriodUpdated(_lockPeriod) */\n      0x8249ec545e68f6f1e1230133ca48c704d831a7f8e635ded80f3dd9e99b09bb2f\n        /* \"contracts/Staking.sol\":2999:3010  _lockPeriod */\n      dup2\n        /* \"contracts/Staking.sol\":2981:3011  LockPeriodUpdated(_lockPeriod) */\n      mload(0x40)\n      tag_161\n      swap2\n      swap1\n      tag_28\n      jump\t// in\n    tag_161:\n      mload(0x40)\n      dup1\n      swap2\n      sub\n      swap1\n      log1\n        /* \"contracts/Staking.sol\":2806:3019  function setLockPeriod(uint256 _lockPeriod) external onlyOwner {... */\n      pop\n      jump\t// out\n        /* \"@openzeppelin/contracts/access/Ownable.sol\":1201:1286  function owner() public view virtual returns (address) {... */\n    tag_43:\n        /* \"@openzeppelin/contracts/access/Ownable.sol\":1247:1254  address */\n      0x00\n        /* \"@openzeppelin/contracts/access/Ownable.sol\":1273:1279  _owner */\n      dup1\n      0x00\n      swap1\n      sload\n      swap1\n      0x0100\n      exp\n      swap1\n      div\n      0xffffffffffffffffffffffffffffffffffffffff\n      and\n        /* \"@openzeppelin/contracts/access/Ownable.sol\":1266:1279  return _owner */\n      swap1\n      pop\n        /* \"@openzeppelin/contracts/access/Ownable.sol\":1201:1286  function owner() public view virtual returns (address) {... */\n      swap1\n      jump\t// out\n        /* \"contracts/Staking.sol\":4144:5156  function unlockNFT(uint256[] calldata _tokenIds, IERC721 nftAddress) external notContract nonReentrant {... */\n    tag_48:\n        /* \"contracts/Staking.sol\":2532:2564  address(msg.sender).isContract() */\n      tag_164\n        /* \"contracts/Staking.sol\":2540:2550  msg.sender */\n      caller\n        /* \"contracts/Staking.sol\":2532:2562  address(msg.sender).isContract */\n      0xffffffffffffffffffffffffffffffffffffffff\n      and\n      tag_64\n        /* \"contracts/Staking.sol\":2532:2564  address(msg.sender).isContract() */\n      jump\t// in\n    tag_164:\n        /* \"contracts/Staking.sol\":2531:2564  !address(msg.sender).isContract() */\n      iszero\n        /* \"contracts/Staking.sol\":2523:2589  require(!address(msg.sender).isContract(), \"Contract not allowed\") */\n      tag_165\n      jumpi\n      mload(0x40)\n      0x08c379a000000000000000000000000000000000000000000000000000000000\n      dup2\n      mstore\n      0x04\n      add\n      tag_166\n      swap1\n      tag_67\n      jump\t// in\n    tag_166:\n      mload(0x40)\n      dup1\n      swap2\n      sub\n      swap1\n      revert\n    tag_165:\n        /* \"contracts/Staking.sol\":2622:2631  tx.origin */\n      origin\n        /* \"contracts/Staking.sol\":2608:2631  msg.sender == tx.origin */\n      0xffffffffffffffffffffffffffffffffffffffff\n      and\n        /* \"contracts/Staking.sol\":2608:2618  msg.sender */\n      caller\n        /* \"contracts/Staking.sol\":2608:2631  msg.sender == tx.origin */\n      0xffffffffffffffffffffffffffffffffffffffff\n      and\n      eq\n        /* \"contracts/Staking.sol\":2600:2662  require(msg.sender == tx.origin, \"Proxy contract not allowed\") */\n      tag_167\n      jumpi\n      mload(0x40)\n      0x08c379a000000000000000000000000000000000000000000000000000000000\n      dup2\n      mstore\n      0x04\n      add\n      tag_168\n      swap1\n      tag_70\n      jump\t// in\n    tag_168:\n      mload(0x40)\n      dup1\n      swap2\n      sub\n      swap1\n      revert\n    tag_167:\n        /* \"@openzeppelin/contracts/security/ReentrancyGuard.sol\":1744:1745  2 */\n      0x02\n        /* \"@openzeppelin/contracts/security/ReentrancyGuard.sol\":2325:2332  _status */\n      sload(0x01)\n        /* \"@openzeppelin/contracts/security/ReentrancyGuard.sol\":2325:2344  _status != _ENTERED */\n      sub\n        /* \"@openzeppelin/contracts/security/ReentrancyGuard.sol\":2317:2380  require(_status != _ENTERED, \"ReentrancyGuard: reentrant call\") */\n      tag_170\n      jumpi\n      mload(0x40)\n      0x08c379a000000000000000000000000000000000000000000000000000000000\n      dup2\n      mstore\n      0x04\n      add\n      tag_171\n      swap1\n      tag_119\n      jump\t// in\n    tag_171:\n      mload(0x40)\n      dup1\n      swap2\n      sub\n      swap1\n      revert\n    tag_170:\n        /* \"@openzeppelin/contracts/security/ReentrancyGuard.sol\":1744:1745  2 */\n      0x02\n        /* \"@openzeppelin/contracts/security/ReentrancyGuard.sol\":2455:2462  _status */\n      0x01\n        /* \"@openzeppelin/contracts/security/ReentrancyGuard.sol\":2455:2473  _status = _ENTERED */\n      dup2\n      swap1\n      sstore\n      pop\n        /* \"contracts/Staking.sol\":4285:4286  0 */\n      0x00\n        /* \"contracts/Staking.sol\":4266:4275  _tokenIds */\n      dup4\n      dup4\n        /* \"contracts/Staking.sol\":4266:4282  _tokenIds.length */\n      swap1\n      pop\n        /* \"contracts/Staking.sol\":4266:4286  _tokenIds.length > 0 */\n      gt\n        /* \"contracts/Staking.sol\":4258:4300  require(_tokenIds.length > 0, \"No tokens\") */\n      tag_173\n      jumpi\n      mload(0x40)\n      0x08c379a000000000000000000000000000000000000000000000000000000000\n      dup2\n      mstore\n      0x04\n      add\n      tag_174\n      swap1\n      tag_74\n      jump\t// in\n    tag_174:\n      mload(0x40)\n      dup1\n      swap2\n      sub\n      swap1\n      revert\n    tag_173:\n        /* \"contracts/Staking.sol\":4318:4327  uint256 i */\n      0x00\n        /* \"contracts/Staking.sol\":4313:5097  for (uint256 i = 0; i < _tokenIds.length; i++) {... */\n    tag_175:\n        /* \"contracts/Staking.sol\":4337:4346  _tokenIds */\n      dup4\n      dup4\n        /* \"contracts/Staking.sol\":4337:4353  _tokenIds.length */\n      swap1\n      pop\n        /* \"contracts/Staking.sol\":4333:4334  i */\n      dup2\n        /* \"contracts/Staking.sol\":4333:4353  i < _tokenIds.length */\n      lt\n        /* \"contracts/Staking.sol\":4313:5097  for (uint256 i = 0; i < _tokenIds.length; i++) {... */\n      iszero\n      tag_176\n      jumpi\n        /* \"contracts/Staking.sol\":4375:4395  LockInfo memory info */\n      0x00\n        /* \"contracts/Staking.sol\":4398:4406  lockInfo */\n      0x03\n        /* \"contracts/Staking.sol\":4398:4420  lockInfo[_tokenIds[i]] */\n      0x00\n        /* \"contracts/Staking.sol\":4407:4416  _tokenIds */\n      dup7\n      dup7\n        /* \"contracts/Staking.sol\":4417:4418  i */\n      dup6\n        /* \"contracts/Staking.sol\":4407:4419  _tokenIds[i] */\n      dup2\n      dup2\n      lt\n      tag_178\n      jumpi\n      tag_179\n      tag_80\n      jump\t// in\n    tag_179:\n    tag_178:\n      swap1\n      pop\n      0x20\n      mul\n      add\n      calldataload\n        /* \"contracts/Staking.sol\":4398:4420  lockInfo[_tokenIds[i]] */\n      dup2\n      mstore\n      0x20\n      add\n      swap1\n      dup2\n      mstore\n      0x20\n      add\n      0x00\n      keccak256\n        /* \"contracts/Staking.sol\":4375:4420  LockInfo memory info = lockInfo[_tokenIds[i]] */\n      mload(0x40)\n      dup1\n      0xa0\n      add\n      0x40\n      mstore\n      swap1\n      dup2\n      0x00\n      dup3\n      add\n      0x00\n      swap1\n      sload\n      swap1\n      0x0100\n      exp\n      swap1\n      div\n      0xffffffffffffffffffffffffffffffffffffffff\n      and\n      0xffffffffffffffffffffffffffffffffffffffff\n      and\n      0xffffffffffffffffffffffffffffffffffffffff\n      and\n      dup2\n      mstore\n      0x20\n      add\n      0x01\n      dup3\n      add\n      sload\n      dup2\n      mstore\n      0x20\n      add\n      0x02\n      dup3\n      add\n      sload\n      dup2\n      mstore\n      0x20\n      add\n      0x03\n      dup3\n      add\n      0x00\n      swap1\n      sload\n      swap1\n      0x0100\n      exp\n      swap1\n      div\n      0xff\n      and\n      iszero\n      iszero\n      iszero\n      iszero\n      dup2\n      mstore\n      0x20\n      add\n      0x03\n      dup3\n      add\n      0x01\n      swap1\n      sload\n      swap1\n      0x0100\n      exp\n      swap1\n      div\n      0xffffffffffffffffffffffffffffffffffffffff\n      and\n      0xffffffffffffffffffffffffffffffffffffffff\n      and\n      0xffffffffffffffffffffffffffffffffffffffff\n      and\n      dup2\n      mstore\n      pop\n      pop\n      swap1\n      pop\n        /* \"contracts/Staking.sol\":4457:4467  msg.sender */\n      caller\n        /* \"contracts/Staking.sol\":4443:4467  info.owner == msg.sender */\n      0xffffffffffffffffffffffffffffffffffffffff\n      and\n        /* \"contracts/Staking.sol\":4443:4447  info */\n      dup2\n        /* \"contracts/Staking.sol\":4443:4453  info.owner */\n      0x00\n      add\n      mload\n        /* \"contracts/Staking.sol\":4443:4467  info.owner == msg.sender */\n      0xffffffffffffffffffffffffffffffffffffffff\n      and\n      eq\n        /* \"contracts/Staking.sol\":4435:4489  require(info.owner == msg.sender, \"Not a token owner\") */\n      tag_180\n      jumpi\n      mload(0x40)\n      0x08c379a000000000000000000000000000000000000000000000000000000000\n      dup2\n      mstore\n      0x04\n      add\n      tag_181\n      swap1\n      tag_83\n      jump\t// in\n    tag_181:\n      mload(0x40)\n      dup1\n      swap2\n      sub\n      swap1\n      revert\n    tag_180:\n        /* \"contracts/Staking.sol\":4543:4558  block.timestamp */\n      timestamp\n        /* \"contracts/Staking.sol\":4530:4540  lockPeriod */\n      sload(0x02)\n        /* \"contracts/Staking.sol\":4512:4516  info */\n      dup3\n        /* \"contracts/Staking.sol\":4512:4527  info.lockedTime */\n      0x20\n      add\n      mload\n        /* \"contracts/Staking.sol\":4512:4540  info.lockedTime + lockPeriod */\n      tag_182\n      swap2\n      swap1\n      tag_85\n      jump\t// in\n    tag_182:\n        /* \"contracts/Staking.sol\":4512:4558  info.lockedTime + lockPeriod < block.timestamp */\n      lt\n        /* \"contracts/Staking.sol\":4504:4585  require(info.lockedTime + lockPeriod < block.timestamp, \"Not able to unlock yet\") */\n      tag_183\n      jumpi\n      mload(0x40)\n      0x08c379a000000000000000000000000000000000000000000000000000000000\n      dup2\n      mstore\n      0x04\n      add\n      tag_184\n      swap1\n      tag_185\n      jump\t// in\n    tag_184:\n      mload(0x40)\n      dup1\n      swap2\n      sub\n      swap1\n      revert\n    tag_183:\n        /* \"contracts/Staking.sol\":4609:4613  info */\n      dup1\n        /* \"contracts/Staking.sol\":4609:4624  info.isUnlocked */\n      0x60\n      add\n      mload\n        /* \"contracts/Staking.sol\":4608:4624  !info.isUnlocked */\n      iszero\n        /* \"contracts/Staking.sol\":4600:4645  require(!info.isUnlocked, \"Already unlocked\") */\n      tag_186\n      jumpi\n      mload(0x40)\n      0x08c379a000000000000000000000000000000000000000000000000000000000\n      dup2\n      mstore\n      0x04\n      add\n      tag_187\n      swap1\n      tag_91\n      jump\t// in\n    tag_187:\n      mload(0x40)\n      dup1\n      swap2\n      sub\n      swap1\n      revert\n    tag_186:\n        /* \"contracts/Staking.sol\":4662:4672  nftAddress */\n      dup3\n        /* \"contracts/Staking.sol\":4662:4685  nftAddress.transferFrom */\n      0xffffffffffffffffffffffffffffffffffffffff\n      and\n      0x23b872dd\n        /* \"contracts/Staking.sol\":4694:4698  this */\n      address\n        /* \"contracts/Staking.sol\":4701:4711  msg.sender */\n      caller\n        /* \"contracts/Staking.sol\":4713:4722  _tokenIds */\n      dup9\n      dup9\n        /* \"contracts/Staking.sol\":4723:4724  i */\n      dup8\n        /* \"contracts/Staking.sol\":4713:4725  _tokenIds[i] */\n      dup2\n      dup2\n      lt\n      tag_188\n      jumpi\n      tag_189\n      tag_80\n      jump\t// in\n    tag_189:\n    tag_188:\n      swap1\n      pop\n      0x20\n      mul\n      add\n      calldataload\n        /* \"contracts/Staking.sol\":4662:4726  nftAddress.transferFrom(address(this), msg.sender, _tokenIds[i]) */\n      mload(0x40)\n      dup5\n      0xffffffff\n      and\n      0xe0\n      shl\n      dup2\n      mstore\n      0x04\n      add\n      tag_190\n      swap4\n      swap3\n      swap2\n      swap1\n      tag_139\n      jump\t// in\n    tag_190:\n      0x00\n      mload(0x40)\n      dup1\n      dup4\n      sub\n      dup2\n      0x00\n      dup8\n      dup1\n      extcodesize\n      iszero\n      dup1\n      iszero\n      tag_191\n      jumpi\n      0x00\n      dup1\n      revert\n    tag_191:\n      pop\n      gas\n      call\n      iszero\n      dup1\n      iszero\n      tag_193\n      jumpi\n      returndatasize\n      0x00\n      dup1\n      returndatacopy\n      revert(0x00, returndatasize)\n    tag_193:\n      pop\n      pop\n      pop\n      pop\n        /* \"contracts/Staking.sol\":4743:4762  uint256 totalAmount */\n      0x00\n        /* \"contracts/Staking.sol\":4765:4804  _rewardAmount(_tokenIds[i], nftAddress) */\n      tag_194\n        /* \"contracts/Staking.sol\":4779:4788  _tokenIds */\n      dup7\n      dup7\n        /* \"contracts/Staking.sol\":4789:4790  i */\n      dup6\n        /* \"contracts/Staking.sol\":4779:4791  _tokenIds[i] */\n      dup2\n      dup2\n      lt\n      tag_195\n      jumpi\n      tag_196\n      tag_80\n      jump\t// in\n    tag_196:\n    tag_195:\n      swap1\n      pop\n      0x20\n      mul\n      add\n      calldataload\n        /* \"contracts/Staking.sol\":4793:4803  nftAddress */\n      dup6\n        /* \"contracts/Staking.sol\":4765:4778  _rewardAmount */\n      tag_95\n        /* \"contracts/Staking.sol\":4765:4804  _rewardAmount(_tokenIds[i], nftAddress) */\n      jump\t// in\n    tag_194:\n        /* \"contracts/Staking.sol\":4743:4804  uint256 totalAmount = _rewardAmount(_tokenIds[i], nftAddress) */\n      swap1\n      pop\n        /* \"contracts/Staking.sol\":4819:4843  uint256 unclaminedAmount */\n      0x00\n        /* \"contracts/Staking.sol\":4860:4864  info */\n      dup3\n        /* \"contracts/Staking.sol\":4860:4879  info.claimedRewards */\n      0x40\n      add\n      mload\n        /* \"contracts/Staking.sol\":4846:4857  totalAmount */\n      dup3\n        /* \"contracts/Staking.sol\":4846:4879  totalAmount - info.claimedRewards */\n      tag_197\n      swap2\n      swap1\n      tag_97\n      jump\t// in\n    tag_197:\n        /* \"contracts/Staking.sol\":4819:4879  uint256 unclaminedAmount = totalAmount - info.claimedRewards */\n      swap1\n      pop\n        /* \"contracts/Staking.sol\":4895:4902  nftInfo */\n      0x04\n        /* \"contracts/Staking.sol\":4895:4914  nftInfo[nftAddress] */\n      0x00\n        /* \"contracts/Staking.sol\":4903:4913  nftAddress */\n      dup7\n        /* \"contracts/Staking.sol\":4895:4914  nftInfo[nftAddress] */\n      0xffffffffffffffffffffffffffffffffffffffff\n      and\n      0xffffffffffffffffffffffffffffffffffffffff\n      and\n      dup2\n      mstore\n      0x20\n      add\n      swap1\n      dup2\n      mstore\n      0x20\n      add\n      0x00\n      keccak256\n        /* \"contracts/Staking.sol\":4895:4927  nftInfo[nftAddress].rewardsToken */\n      0x00\n      add\n      0x00\n      swap1\n      sload\n      swap1\n      0x0100\n      exp\n      swap1\n      div\n      0xffffffffffffffffffffffffffffffffffffffff\n      and\n        /* \"contracts/Staking.sol\":4895:4932  nftInfo[nftAddress].rewardsToken.mint */\n      0xffffffffffffffffffffffffffffffffffffffff\n      and\n      0x40c10f19\n        /* \"contracts/Staking.sol\":4933:4943  msg.sender */\n      caller\n        /* \"contracts/Staking.sol\":4945:4961  unclaminedAmount */\n      dup4\n        /* \"contracts/Staking.sol\":4895:4962  nftInfo[nftAddress].rewardsToken.mint(msg.sender, unclaminedAmount) */\n      mload(0x40)\n      dup4\n      0xffffffff\n      and\n      0xe0\n      shl\n      dup2\n      mstore\n      0x04\n      add\n      tag_198\n      swap3\n      swap2\n      swap1\n      tag_99\n      jump\t// in\n    tag_198:\n      0x00\n      mload(0x40)\n      dup1\n      dup4\n      sub\n      dup2\n      0x00\n      dup8\n      dup1\n      extcodesize\n      iszero\n      dup1\n      iszero\n      tag_199\n      jumpi\n      0x00\n      dup1\n      revert\n    tag_199:\n      pop\n      gas\n      call\n      iszero\n      dup1\n      iszero\n      tag_201\n      jumpi\n      returndatasize\n      0x00\n      dup1\n      returndatacopy\n      revert(0x00, returndatasize)\n    tag_201:\n      pop\n      pop\n      pop\n      pop\n        /* \"contracts/Staking.sol\":5019:5030  totalAmount */\n      dup2\n        /* \"contracts/Staking.sol\":4979:4987  lockInfo */\n      0x03\n        /* \"contracts/Staking.sol\":4979:5001  lockInfo[_tokenIds[i]] */\n      0x00\n        /* \"contracts/Staking.sol\":4988:4997  _tokenIds */\n      dup10\n      dup10\n        /* \"contracts/Staking.sol\":4998:4999  i */\n      dup9\n        /* \"contracts/Staking.sol\":4988:5000  _tokenIds[i] */\n      dup2\n      dup2\n      lt\n      tag_202\n      jumpi\n      tag_203\n      tag_80\n      jump\t// in\n    tag_203:\n    tag_202:\n      swap1\n      pop\n      0x20\n      mul\n      add\n      calldataload\n        /* \"contracts/Staking.sol\":4979:5001  lockInfo[_tokenIds[i]] */\n      dup2\n      mstore\n      0x20\n      add\n      swap1\n      dup2\n      mstore\n      0x20\n      add\n      0x00\n      keccak256\n        /* \"contracts/Staking.sol\":4979:5016  lockInfo[_tokenIds[i]].claimedRewards */\n      0x02\n      add\n        /* \"contracts/Staking.sol\":4979:5030  lockInfo[_tokenIds[i]].claimedRewards = totalAmount */\n      dup2\n      swap1\n      sstore\n      pop\n        /* \"contracts/Staking.sol\":5081:5085  true */\n      0x01\n        /* \"contracts/Staking.sol\":5045:5053  lockInfo */\n      0x03\n        /* \"contracts/Staking.sol\":5045:5067  lockInfo[_tokenIds[i]] */\n      0x00\n        /* \"contracts/Staking.sol\":5054:5063  _tokenIds */\n      dup10\n      dup10\n        /* \"contracts/Staking.sol\":5064:5065  i */\n      dup9\n        /* \"contracts/Staking.sol\":5054:5066  _tokenIds[i] */\n      dup2\n      dup2\n      lt\n      tag_204\n      jumpi\n      tag_205\n      tag_80\n      jump\t// in\n    tag_205:\n    tag_204:\n      swap1\n      pop\n      0x20\n      mul\n      add\n      calldataload\n        /* \"contracts/Staking.sol\":5045:5067  lockInfo[_tokenIds[i]] */\n      dup2\n      mstore\n      0x20\n      add\n      swap1\n      dup2\n      mstore\n      0x20\n      add\n      0x00\n      keccak256\n        /* \"contracts/Staking.sol\":5045:5078  lockInfo[_tokenIds[i]].isUnlocked */\n      0x03\n      add\n      0x00\n        /* \"contracts/Staking.sol\":5045:5085  lockInfo[_tokenIds[i]].isUnlocked = true */\n      0x0100\n      exp\n      dup2\n      sload\n      dup2\n      0xff\n      mul\n      not\n      and\n      swap1\n      dup4\n      iszero\n      iszero\n      mul\n      or\n      swap1\n      sstore\n      pop\n        /* \"contracts/Staking.sol\":4360:5097  {... */\n      pop\n      pop\n      pop\n        /* \"contracts/Staking.sol\":4355:4358  i++ */\n      dup1\n      dup1\n      tag_206\n      swap1\n      tag_107\n      jump\t// in\n    tag_206:\n      swap2\n      pop\n      pop\n        /* \"contracts/Staking.sol\":4313:5097  for (uint256 i = 0; i < _tokenIds.length; i++) {... */\n      jump(tag_175)\n    tag_176:\n      pop\n        /* \"contracts/Staking.sol\":5126:5136  msg.sender */\n      caller\n        /* \"contracts/Staking.sol\":5114:5148  NFTUnLocked(msg.sender, _tokenIds) */\n      0xffffffffffffffffffffffffffffffffffffffff\n      and\n      0x5cb48022479b9ac3bfb10a27965dc010acffc9fc1bc9a52f0b18975b944b54ca\n        /* \"contracts/Staking.sol\":5138:5147  _tokenIds */\n      dup5\n      dup5\n        /* \"contracts/Staking.sol\":5114:5148  NFTUnLocked(msg.sender, _tokenIds) */\n      mload(0x40)\n      tag_207\n      swap3\n      swap2\n      swap1\n      tag_147\n      jump\t// in\n    tag_207:\n      mload(0x40)\n      dup1\n      swap2\n      sub\n      swap1\n      log2\n        /* \"@openzeppelin/contracts/security/ReentrancyGuard.sol\":1701:1702  1 */\n      0x01\n        /* \"@openzeppelin/contracts/security/ReentrancyGuard.sol\":2628:2635  _status */\n      dup1\n        /* \"@openzeppelin/contracts/security/ReentrancyGuard.sol\":2628:2650  _status = _NOT_ENTERED */\n      dup2\n      swap1\n      sstore\n      pop\n        /* \"contracts/Staking.sol\":4144:5156  function unlockNFT(uint256[] calldata _tokenIds, IERC721 nftAddress) external notContract nonReentrant {... */\n      pop\n      pop\n      pop\n      jump\t// out\n        /* \"contracts/Staking.sol\":1055:1074  uint256 public WAVE */\n    tag_50:\n      sload(0x05)\n      dup2\n      jump\t// out\n        /* \"contracts/Staking.sol\":974:1021  mapping(IERC721 => stakeNftInfo) public nftInfo */\n    tag_55:\n      mstore(0x20, 0x04)\n      dup1\n      0x00\n      mstore\n      keccak256(0x00, 0x40)\n      0x00\n      swap2\n      pop\n      swap1\n      pop\n      dup1\n      0x00\n      add\n      0x00\n      swap1\n      sload\n      swap1\n      0x0100\n      exp\n      swap1\n      div\n      0xffffffffffffffffffffffffffffffffffffffff\n      and\n      swap1\n      dup1\n      0x01\n      add\n      sload\n      swap1\n      dup1\n      0x02\n      add\n      sload\n      swap1\n      pop\n      dup4\n      jump\t// out\n        /* \"@openzeppelin/contracts/access/Ownable.sol\":2081:2279  function transferOwnership(address newOwner) public virtual onlyOwner {... */\n    tag_61:\n        /* \"@openzeppelin/contracts/access/Ownable.sol\":1094:1107  _checkOwner() */\n      tag_209\n        /* \"@openzeppelin/contracts/access/Ownable.sol\":1094:1105  _checkOwner */\n      tag_151\n        /* \"@openzeppelin/contracts/access/Ownable.sol\":1094:1107  _checkOwner() */\n      jump\t// in\n    tag_209:\n        /* \"@openzeppelin/contracts/access/Ownable.sol\":2189:2190  0 */\n      0x00\n        /* \"@openzeppelin/contracts/access/Ownable.sol\":2169:2191  newOwner != address(0) */\n      0xffffffffffffffffffffffffffffffffffffffff\n      and\n        /* \"@openzeppelin/contracts/access/Ownable.sol\":2169:2177  newOwner */\n      dup2\n        /* \"@openzeppelin/contracts/access/Ownable.sol\":2169:2191  newOwner != address(0) */\n      0xffffffffffffffffffffffffffffffffffffffff\n      and\n      sub\n        /* \"@openzeppelin/contracts/access/Ownable.sol\":2161:2234  require(newOwner != address(0), \"Ownable: new owner is the zero address\") */\n      tag_211\n      jumpi\n      mload(0x40)\n      0x08c379a000000000000000000000000000000000000000000000000000000000\n      dup2\n      mstore\n      0x04\n      add\n      tag_212\n      swap1\n      tag_213\n      jump\t// in\n    tag_212:\n      mload(0x40)\n      dup1\n      swap2\n      sub\n      swap1\n      revert\n    tag_211:\n        /* \"@openzeppelin/contracts/access/Ownable.sol\":2244:2272  _transferOwnership(newOwner) */\n      tag_214\n        /* \"@openzeppelin/contracts/access/Ownable.sol\":2263:2271  newOwner */\n      dup2\n        /* \"@openzeppelin/contracts/access/Ownable.sol\":2244:2262  _transferOwnership */\n      tag_154\n        /* \"@openzeppelin/contracts/access/Ownable.sol\":2244:2272  _transferOwnership(newOwner) */\n      jump\t// in\n    tag_214:\n        /* \"@openzeppelin/contracts/access/Ownable.sol\":2081:2279  function transferOwnership(address newOwner) public virtual onlyOwner {... */\n      pop\n      jump\t// out\n        /* \"@openzeppelin/contracts/utils/Address.sol\":1175:1495  function isContract(address account) internal view returns (bool) {... */\n    tag_64:\n        /* \"@openzeppelin/contracts/utils/Address.sol\":1235:1239  bool */\n      0x00\n        /* \"@openzeppelin/contracts/utils/Address.sol\":1487:1488  0 */\n      dup1\n        /* \"@openzeppelin/contracts/utils/Address.sol\":1465:1472  account */\n      dup3\n        /* \"@openzeppelin/contracts/utils/Address.sol\":1465:1484  account.code.length */\n      0xffffffffffffffffffffffffffffffffffffffff\n      and\n      extcodesize\n        /* \"@openzeppelin/contracts/utils/Address.sol\":1465:1488  account.code.length > 0 */\n      gt\n        /* \"@openzeppelin/contracts/utils/Address.sol\":1458:1488  return account.code.length > 0 */\n      swap1\n      pop\n        /* \"@openzeppelin/contracts/utils/Address.sol\":1175:1495  function isContract(address account) internal view returns (bool) {... */\n      swap2\n      swap1\n      pop\n      jump\t// out\n        /* \"contracts/Staking.sol\":6275:6766  function _rewardAmount(uint256 _tokenId, IERC721 nftAddress) internal view returns (uint256) {... */\n    tag_95:\n        /* \"contracts/Staking.sol\":6359:6366  uint256 */\n      0x00\n        /* \"contracts/Staking.sol\":6379:6399  LockInfo memory info */\n      dup1\n        /* \"contracts/Staking.sol\":6402:6410  lockInfo */\n      0x03\n        /* \"contracts/Staking.sol\":6402:6420  lockInfo[_tokenId] */\n      0x00\n        /* \"contracts/Staking.sol\":6411:6419  _tokenId */\n      dup6\n        /* \"contracts/Staking.sol\":6402:6420  lockInfo[_tokenId] */\n      dup2\n      mstore\n      0x20\n      add\n      swap1\n      dup2\n      mstore\n      0x20\n      add\n      0x00\n      keccak256\n        /* \"contracts/Staking.sol\":6379:6420  LockInfo memory info = lockInfo[_tokenId] */\n      mload(0x40)\n      dup1\n      0xa0\n      add\n      0x40\n      mstore\n      swap1\n      dup2\n      0x00\n      dup3\n      add\n      0x00\n      swap1\n      sload\n      swap1\n      0x0100\n      exp\n      swap1\n      div\n      0xffffffffffffffffffffffffffffffffffffffff\n      and\n      0xffffffffffffffffffffffffffffffffffffffff\n      and\n      0xffffffffffffffffffffffffffffffffffffffff\n      and\n      dup2\n      mstore\n      0x20\n      add\n      0x01\n      dup3\n      add\n      sload\n      dup2\n      mstore\n      0x20\n      add\n      0x02\n      dup3\n      add\n      sload\n      dup2\n      mstore\n      0x20\n      add\n      0x03\n      dup3\n      add\n      0x00\n      swap1\n      sload\n      swap1\n      0x0100\n      exp\n      swap1\n      div\n      0xff\n      and\n      iszero\n      iszero\n      iszero\n      iszero\n      dup2\n      mstore\n      0x20\n      add\n      0x03\n      dup3\n      add\n      0x01\n      swap1\n      sload\n      swap1\n      0x0100\n      exp\n      swap1\n      div\n      0xffffffffffffffffffffffffffffffffffffffff\n      and\n      0xffffffffffffffffffffffffffffffffffffffff\n      and\n      0xffffffffffffffffffffffffffffffffffffffff\n      and\n      dup2\n      mstore\n      pop\n      pop\n      swap1\n      pop\n        /* \"contracts/Staking.sol\":6431:6454  uint256 stakingDuration */\n      0x00\n        /* \"contracts/Staking.sol\":6475:6479  info */\n      dup2\n        /* \"contracts/Staking.sol\":6475:6490  info.lockedTime */\n      0x20\n      add\n      mload\n        /* \"contracts/Staking.sol\":6457:6472  block.timestamp */\n      timestamp\n        /* \"contracts/Staking.sol\":6457:6490  block.timestamp - info.lockedTime */\n      tag_217\n      swap2\n      swap1\n      tag_97\n      jump\t// in\n    tag_217:\n        /* \"contracts/Staking.sol\":6431:6490  uint256 stakingDuration = block.timestamp - info.lockedTime */\n      swap1\n      pop\n        /* \"contracts/Staking.sol\":6501:6520  uint256 totalAmount */\n      0x00\n        /* \"contracts/Staking.sol\":6555:6565  lockPeriod */\n      sload(0x02)\n        /* \"contracts/Staking.sol\":6537:6552  stakingDuration */\n      dup3\n        /* \"contracts/Staking.sol\":6537:6565  stakingDuration < lockPeriod */\n      lt\n        /* \"contracts/Staking.sol\":6533:6759  if (stakingDuration < lockPeriod) {... */\n      iszero\n      tag_218\n      jumpi\n        /* \"contracts/Staking.sol\":6589:6590  0 */\n      0x00\n        /* \"contracts/Staking.sol\":6582:6590  return 0 */\n      swap4\n      pop\n      pop\n      pop\n      pop\n      jump(tag_216)\n        /* \"contracts/Staking.sol\":6533:6759  if (stakingDuration < lockPeriod) {... */\n    tag_218:\n        /* \"contracts/Staking.sol\":6710:6714  WAVE */\n      sload(0x05)\n        /* \"contracts/Staking.sol\":6695:6705  lockPeriod */\n      sload(0x02)\n        /* \"contracts/Staking.sol\":6677:6692  stakingDuration */\n      dup4\n        /* \"contracts/Staking.sol\":6677:6705  stakingDuration - lockPeriod */\n      tag_220\n      swap2\n      swap1\n      tag_97\n      jump\t// in\n    tag_220:\n        /* \"contracts/Staking.sol\":6639:6646  nftInfo */\n      0x04\n        /* \"contracts/Staking.sol\":6639:6658  nftInfo[nftAddress] */\n      0x00\n        /* \"contracts/Staking.sol\":6647:6657  nftAddress */\n      dup9\n        /* \"contracts/Staking.sol\":6639:6658  nftInfo[nftAddress] */\n      0xffffffffffffffffffffffffffffffffffffffff\n      and\n      0xffffffffffffffffffffffffffffffffffffffff\n      and\n      dup2\n      mstore\n      0x20\n      add\n      swap1\n      dup2\n      mstore\n      0x20\n      add\n      0x00\n      keccak256\n        /* \"contracts/Staking.sol\":6639:6673  nftInfo[nftAddress].rewardsPerWave */\n      0x01\n      add\n      sload\n        /* \"contracts/Staking.sol\":6639:6706  nftInfo[nftAddress].rewardsPerWave * (stakingDuration - lockPeriod) */\n      tag_221\n      swap2\n      swap1\n      tag_222\n      jump\t// in\n    tag_221:\n        /* \"contracts/Staking.sol\":6637:6714  ( nftInfo[nftAddress].rewardsPerWave * (stakingDuration - lockPeriod)) / WAVE */\n      tag_223\n      swap2\n      swap1\n      tag_224\n      jump\t// in\n    tag_223:\n        /* \"contracts/Staking.sol\":6623:6714  totalAmount = ( nftInfo[nftAddress].rewardsPerWave * (stakingDuration - lockPeriod)) / WAVE */\n      swap1\n      pop\n        /* \"contracts/Staking.sol\":6736:6747  totalAmount */\n      dup1\n        /* \"contracts/Staking.sol\":6729:6747  return totalAmount */\n      swap4\n      pop\n      pop\n      pop\n      pop\n        /* \"contracts/Staking.sol\":6275:6766  function _rewardAmount(uint256 _tokenId, IERC721 nftAddress) internal view returns (uint256) {... */\n    tag_216:\n      swap3\n      swap2\n      pop\n      pop\n      jump\t// out\n        /* \"@openzeppelin/contracts/access/Ownable.sol\":1359:1489  function _checkOwner() internal view virtual {... */\n    tag_151:\n        /* \"@openzeppelin/contracts/access/Ownable.sol\":1433:1445  _msgSender() */\n      tag_226\n        /* \"@openzeppelin/contracts/access/Ownable.sol\":1433:1443  _msgSender */\n      tag_227\n        /* \"@openzeppelin/contracts/access/Ownable.sol\":1433:1445  _msgSender() */\n      jump\t// in\n    tag_226:\n        /* \"@openzeppelin/contracts/access/Ownable.sol\":1422:1445  owner() == _msgSender() */\n      0xffffffffffffffffffffffffffffffffffffffff\n      and\n        /* \"@openzeppelin/contracts/access/Ownable.sol\":1422:1429  owner() */\n      tag_228\n        /* \"@openzeppelin/contracts/access/Ownable.sol\":1422:1427  owner */\n      tag_43\n        /* \"@openzeppelin/contracts/access/Ownable.sol\":1422:1429  owner() */\n      jump\t// in\n    tag_228:\n        /* \"@openzeppelin/contracts/access/Ownable.sol\":1422:1445  owner() == _msgSender() */\n      0xffffffffffffffffffffffffffffffffffffffff\n      and\n      eq\n        /* \"@openzeppelin/contracts/access/Ownable.sol\":1414:1482  require(owner() == _msgSender(), \"Ownable: caller is not the owner\") */\n      tag_229\n      jumpi\n      mload(0x40)\n      0x08c379a000000000000000000000000000000000000000000000000000000000\n      dup2\n      mstore\n      0x04\n      add\n      tag_230\n      swap1\n      tag_231\n      jump\t// in\n    tag_230:\n      mload(0x40)\n      dup1\n      swap2\n      sub\n      swap1\n      revert\n    tag_229:\n        /* \"@openzeppelin/contracts/access/Ownable.sol\":1359:1489  function _checkOwner() internal view virtual {... */\n      jump\t// out\n        /* \"@openzeppelin/contracts/access/Ownable.sol\":2433:2620  function _transferOwnership(address newOwner) internal virtual {... */\n    tag_154:\n        /* \"@openzeppelin/contracts/access/Ownable.sol\":2506:2522  address oldOwner */\n      0x00\n        /* \"@openzeppelin/contracts/access/Ownable.sol\":2525:2531  _owner */\n      dup1\n      0x00\n      swap1\n      sload\n      swap1\n      0x0100\n      exp\n      swap1\n      div\n      0xffffffffffffffffffffffffffffffffffffffff\n      and\n        /* \"@openzeppelin/contracts/access/Ownable.sol\":2506:2531  address oldOwner = _owner */\n      swap1\n      pop\n        /* \"@openzeppelin/contracts/access/Ownable.sol\":2550:2558  newOwner */\n      dup2\n        /* \"@openzeppelin/contracts/access/Ownable.sol\":2541:2547  _owner */\n      0x00\n      dup1\n        /* \"@openzeppelin/contracts/access/Ownable.sol\":2541:2558  _owner = newOwner */\n      0x0100\n      exp\n      dup2\n      sload\n      dup2\n      0xffffffffffffffffffffffffffffffffffffffff\n      mul\n      not\n      and\n      swap1\n      dup4\n      0xffffffffffffffffffffffffffffffffffffffff\n      and\n      mul\n      or\n      swap1\n      sstore\n      pop\n        /* \"@openzeppelin/contracts/access/Ownable.sol\":2604:2612  newOwner */\n      dup2\n        /* \"@openzeppelin/contracts/access/Ownable.sol\":2573:2613  OwnershipTransferred(oldOwner, newOwner) */\n      0xffffffffffffffffffffffffffffffffffffffff\n      and\n        /* \"@openzeppelin/contracts/access/Ownable.sol\":2594:2602  oldOwner */\n      dup2\n        /* \"@openzeppelin/contracts/access/Ownable.sol\":2573:2613  OwnershipTransferred(oldOwner, newOwner) */\n      0xffffffffffffffffffffffffffffffffffffffff\n      and\n      0x8be0079c531659141344cd1fd0a4f28419497f9722a3daafe3b4186f6b6457e0\n      mload(0x40)\n      mload(0x40)\n      dup1\n      swap2\n      sub\n      swap1\n      log3\n        /* \"@openzeppelin/contracts/access/Ownable.sol\":2496:2620  {... */\n      pop\n        /* \"@openzeppelin/contracts/access/Ownable.sol\":2433:2620  function _transferOwnership(address newOwner) internal virtual {... */\n      pop\n      jump\t// out\n        /* \"@openzeppelin/contracts/utils/Context.sol\":640:736  function _msgSender() internal view virtual returns (address) {... */\n    tag_227:\n        /* \"@openzeppelin/contracts/utils/Context.sol\":693:700  address */\n      0x00\n        /* \"@openzeppelin/contracts/utils/Context.sol\":719:729  msg.sender */\n      caller\n        /* \"@openzeppelin/contracts/utils/Context.sol\":712:729  return msg.sender */\n      swap1\n      pop\n        /* \"@openzeppelin/contracts/utils/Context.sol\":640:736  function _msgSender() internal view virtual returns (address) {... */\n      swap1\n      jump\t// out\n        /* \"#utility.yul\":88:205   */\n    tag_235:\n        /* \"#utility.yul\":197:198   */\n      0x00\n        /* \"#utility.yul\":194:195   */\n      dup1\n        /* \"#utility.yul\":187:199   */\n      revert\n        /* \"#utility.yul\":211:328   */\n    tag_236:\n        /* \"#utility.yul\":320:321   */\n      0x00\n        /* \"#utility.yul\":317:318   */\n      dup1\n        /* \"#utility.yul\":310:322   */\n      revert\n        /* \"#utility.yul\":334:451   */\n    tag_237:\n        /* \"#utility.yul\":443:444   */\n      0x00\n        /* \"#utility.yul\":440:441   */\n      dup1\n        /* \"#utility.yul\":433:445   */\n      revert\n        /* \"#utility.yul\":457:574   */\n    tag_238:\n        /* \"#utility.yul\":566:567   */\n      0x00\n        /* \"#utility.yul\":563:564   */\n      dup1\n        /* \"#utility.yul\":556:568   */\n      revert\n        /* \"#utility.yul\":580:697   */\n    tag_239:\n        /* \"#utility.yul\":689:690   */\n      0x00\n        /* \"#utility.yul\":686:687   */\n      dup1\n        /* \"#utility.yul\":679:691   */\n      revert\n        /* \"#utility.yul\":720:1288   */\n    tag_240:\n        /* \"#utility.yul\":793:801   */\n      0x00\n        /* \"#utility.yul\":803:809   */\n      dup1\n        /* \"#utility.yul\":853:856   */\n      dup4\n        /* \"#utility.yul\":846:850   */\n      0x1f\n        /* \"#utility.yul\":838:844   */\n      dup5\n        /* \"#utility.yul\":834:851   */\n      add\n        /* \"#utility.yul\":830:857   */\n      slt\n        /* \"#utility.yul\":820:942   */\n      tag_302\n      jumpi\n        /* \"#utility.yul\":861:940   */\n      tag_303\n      tag_237\n      jump\t// in\n    tag_303:\n        /* \"#utility.yul\":820:942   */\n    tag_302:\n        /* \"#utility.yul\":974:980   */\n      dup3\n        /* \"#utility.yul\":961:981   */\n      calldataload\n        /* \"#utility.yul\":951:981   */\n      swap1\n      pop\n        /* \"#utility.yul\":1004:1022   */\n      0xffffffffffffffff\n        /* \"#utility.yul\":996:1002   */\n      dup2\n        /* \"#utility.yul\":993:1023   */\n      gt\n        /* \"#utility.yul\":990:1107   */\n      iszero\n      tag_304\n      jumpi\n        /* \"#utility.yul\":1026:1105   */\n      tag_305\n      tag_238\n      jump\t// in\n    tag_305:\n        /* \"#utility.yul\":990:1107   */\n    tag_304:\n        /* \"#utility.yul\":1140:1144   */\n      0x20\n        /* \"#utility.yul\":1132:1138   */\n      dup4\n        /* \"#utility.yul\":1128:1145   */\n      add\n        /* \"#utility.yul\":1116:1145   */\n      swap2\n      pop\n        /* \"#utility.yul\":1194:1197   */\n      dup4\n        /* \"#utility.yul\":1186:1190   */\n      0x20\n        /* \"#utility.yul\":1178:1184   */\n      dup3\n        /* \"#utility.yul\":1174:1191   */\n      mul\n        /* \"#utility.yul\":1164:1172   */\n      dup4\n        /* \"#utility.yul\":1160:1192   */\n      add\n        /* \"#utility.yul\":1157:1198   */\n      gt\n        /* \"#utility.yul\":1154:1282   */\n      iszero\n      tag_306\n      jumpi\n        /* \"#utility.yul\":1201:1280   */\n      tag_307\n      tag_239\n      jump\t// in\n    tag_307:\n        /* \"#utility.yul\":1154:1282   */\n    tag_306:\n        /* \"#utility.yul\":720:1288   */\n      swap3\n      pop\n      swap3\n      swap1\n      pop\n      jump\t// out\n        /* \"#utility.yul\":1294:1420   */\n    tag_241:\n        /* \"#utility.yul\":1331:1338   */\n      0x00\n        /* \"#utility.yul\":1371:1413   */\n      0xffffffffffffffffffffffffffffffffffffffff\n        /* \"#utility.yul\":1364:1369   */\n      dup3\n        /* \"#utility.yul\":1360:1414   */\n      and\n        /* \"#utility.yul\":1349:1414   */\n      swap1\n      pop\n        /* \"#utility.yul\":1294:1420   */\n      swap2\n      swap1\n      pop\n      jump\t// out\n        /* \"#utility.yul\":1426:1522   */\n    tag_242:\n        /* \"#utility.yul\":1463:1470   */\n      0x00\n        /* \"#utility.yul\":1492:1516   */\n      tag_310\n        /* \"#utility.yul\":1510:1515   */\n      dup3\n        /* \"#utility.yul\":1492:1516   */\n      tag_241\n      jump\t// in\n    tag_310:\n        /* \"#utility.yul\":1481:1516   */\n      swap1\n      pop\n        /* \"#utility.yul\":1426:1522   */\n      swap2\n      swap1\n      pop\n      jump\t// out\n        /* \"#utility.yul\":1528:1639   */\n    tag_243:\n        /* \"#utility.yul\":1580:1587   */\n      0x00\n        /* \"#utility.yul\":1609:1633   */\n      tag_312\n        /* \"#utility.yul\":1627:1632   */\n      dup3\n        /* \"#utility.yul\":1609:1633   */\n      tag_242\n      jump\t// in\n    tag_312:\n        /* \"#utility.yul\":1598:1633   */\n      swap1\n      pop\n        /* \"#utility.yul\":1528:1639   */\n      swap2\n      swap1\n      pop\n      jump\t// out\n        /* \"#utility.yul\":1645:1797   */\n    tag_244:\n        /* \"#utility.yul\":1733:1772   */\n      tag_314\n        /* \"#utility.yul\":1766:1771   */\n      dup2\n        /* \"#utility.yul\":1733:1772   */\n      tag_243\n      jump\t// in\n    tag_314:\n        /* \"#utility.yul\":1726:1731   */\n      dup2\n        /* \"#utility.yul\":1723:1773   */\n      eq\n        /* \"#utility.yul\":1713:1791   */\n      tag_315\n      jumpi\n        /* \"#utility.yul\":1787:1788   */\n      0x00\n        /* \"#utility.yul\":1784:1785   */\n      dup1\n        /* \"#utility.yul\":1777:1789   */\n      revert\n        /* \"#utility.yul\":1713:1791   */\n    tag_315:\n        /* \"#utility.yul\":1645:1797   */\n      pop\n      jump\t// out\n        /* \"#utility.yul\":1803:1972   */\n    tag_245:\n        /* \"#utility.yul\":1864:1869   */\n      0x00\n        /* \"#utility.yul\":1902:1908   */\n      dup2\n        /* \"#utility.yul\":1889:1909   */\n      calldataload\n        /* \"#utility.yul\":1880:1909   */\n      swap1\n      pop\n        /* \"#utility.yul\":1918:1966   */\n      tag_317\n        /* \"#utility.yul\":1960:1965   */\n      dup2\n        /* \"#utility.yul\":1918:1966   */\n      tag_244\n      jump\t// in\n    tag_317:\n        /* \"#utility.yul\":1803:1972   */\n      swap3\n      swap2\n      pop\n      pop\n      jump\t// out\n        /* \"#utility.yul\":1978:2712   */\n    tag_18:\n        /* \"#utility.yul\":2088:2094   */\n      0x00\n        /* \"#utility.yul\":2096:2102   */\n      dup1\n        /* \"#utility.yul\":2104:2110   */\n      0x00\n        /* \"#utility.yul\":2153:2155   */\n      0x40\n        /* \"#utility.yul\":2141:2150   */\n      dup5\n        /* \"#utility.yul\":2132:2139   */\n      dup7\n        /* \"#utility.yul\":2128:2151   */\n      sub\n        /* \"#utility.yul\":2124:2156   */\n      slt\n        /* \"#utility.yul\":2121:2240   */\n      iszero\n      tag_319\n      jumpi\n        /* \"#utility.yul\":2159:2238   */\n      tag_320\n      tag_235\n      jump\t// in\n    tag_320:\n        /* \"#utility.yul\":2121:2240   */\n    tag_319:\n        /* \"#utility.yul\":2307:2308   */\n      0x00\n        /* \"#utility.yul\":2296:2305   */\n      dup5\n        /* \"#utility.yul\":2292:2309   */\n      add\n        /* \"#utility.yul\":2279:2310   */\n      calldataload\n        /* \"#utility.yul\":2337:2355   */\n      0xffffffffffffffff\n        /* \"#utility.yul\":2329:2335   */\n      dup2\n        /* \"#utility.yul\":2326:2356   */\n      gt\n        /* \"#utility.yul\":2323:2440   */\n      iszero\n      tag_321\n      jumpi\n        /* \"#utility.yul\":2359:2438   */\n      tag_322\n      tag_236\n      jump\t// in\n    tag_322:\n        /* \"#utility.yul\":2323:2440   */\n    tag_321:\n        /* \"#utility.yul\":2472:2552   */\n      tag_323\n        /* \"#utility.yul\":2544:2551   */\n      dup7\n        /* \"#utility.yul\":2535:2541   */\n      dup3\n        /* \"#utility.yul\":2524:2533   */\n      dup8\n        /* \"#utility.yul\":2520:2542   */\n      add\n        /* \"#utility.yul\":2472:2552   */\n      tag_240\n      jump\t// in\n    tag_323:\n        /* \"#utility.yul\":2454:2552   */\n      swap4\n      pop\n      swap4\n      pop\n        /* \"#utility.yul\":2250:2562   */\n      pop\n        /* \"#utility.yul\":2601:2603   */\n      0x20\n        /* \"#utility.yul\":2627:2695   */\n      tag_324\n        /* \"#utility.yul\":2687:2694   */\n      dup7\n        /* \"#utility.yul\":2678:2684   */\n      dup3\n        /* \"#utility.yul\":2667:2676   */\n      dup8\n        /* \"#utility.yul\":2663:2685   */\n      add\n        /* \"#utility.yul\":2627:2695   */\n      tag_245\n      jump\t// in\n    tag_324:\n        /* \"#utility.yul\":2617:2695   */\n      swap2\n      pop\n        /* \"#utility.yul\":2572:2705   */\n      pop\n        /* \"#utility.yul\":1978:2712   */\n      swap3\n      pop\n      swap3\n      pop\n      swap3\n      jump\t// out\n        /* \"#utility.yul\":2718:2795   */\n    tag_246:\n        /* \"#utility.yul\":2755:2762   */\n      0x00\n        /* \"#utility.yul\":2784:2789   */\n      dup2\n        /* \"#utility.yul\":2773:2789   */\n      swap1\n      pop\n        /* \"#utility.yul\":2718:2795   */\n      swap2\n      swap1\n      pop\n      jump\t// out\n        /* \"#utility.yul\":2801:2923   */\n    tag_247:\n        /* \"#utility.yul\":2874:2898   */\n      tag_327\n        /* \"#utility.yul\":2892:2897   */\n      dup2\n        /* \"#utility.yul\":2874:2898   */\n      tag_246\n      jump\t// in\n    tag_327:\n        /* \"#utility.yul\":2867:2872   */\n      dup2\n        /* \"#utility.yul\":2864:2899   */\n      eq\n        /* \"#utility.yul\":2854:2917   */\n      tag_328\n      jumpi\n        /* \"#utility.yul\":2913:2914   */\n      0x00\n        /* \"#utility.yul\":2910:2911   */\n      dup1\n        /* \"#utility.yul\":2903:2915   */\n      revert\n        /* \"#utility.yul\":2854:2917   */\n    tag_328:\n        /* \"#utility.yul\":2801:2923   */\n      pop\n      jump\t// out\n        /* \"#utility.yul\":2929:3068   */\n    tag_248:\n        /* \"#utility.yul\":2975:2980   */\n      0x00\n        /* \"#utility.yul\":3013:3019   */\n      dup2\n        /* \"#utility.yul\":3000:3020   */\n      calldataload\n        /* \"#utility.yul\":2991:3020   */\n      swap1\n      pop\n        /* \"#utility.yul\":3029:3062   */\n      tag_330\n        /* \"#utility.yul\":3056:3061   */\n      dup2\n        /* \"#utility.yul\":3029:3062   */\n      tag_247\n      jump\t// in\n    tag_330:\n        /* \"#utility.yul\":2929:3068   */\n      swap3\n      swap2\n      pop\n      pop\n      jump\t// out\n        /* \"#utility.yul\":3074:3403   */\n    tag_25:\n        /* \"#utility.yul\":3133:3139   */\n      0x00\n        /* \"#utility.yul\":3182:3184   */\n      0x20\n        /* \"#utility.yul\":3170:3179   */\n      dup3\n        /* \"#utility.yul\":3161:3168   */\n      dup5\n        /* \"#utility.yul\":3157:3180   */\n      sub\n        /* \"#utility.yul\":3153:3185   */\n      slt\n        /* \"#utility.yul\":3150:3269   */\n      iszero\n      tag_332\n      jumpi\n        /* \"#utility.yul\":3188:3267   */\n      tag_333\n      tag_235\n      jump\t// in\n    tag_333:\n        /* \"#utility.yul\":3150:3269   */\n    tag_332:\n        /* \"#utility.yul\":3308:3309   */\n      0x00\n        /* \"#utility.yul\":3333:3386   */\n      tag_334\n        /* \"#utility.yul\":3378:3385   */\n      dup5\n        /* \"#utility.yul\":3369:3375   */\n      dup3\n        /* \"#utility.yul\":3358:3367   */\n      dup6\n        /* \"#utility.yul\":3354:3376   */\n      add\n        /* \"#utility.yul\":3333:3386   */\n      tag_248\n      jump\t// in\n    tag_334:\n        /* \"#utility.yul\":3323:3386   */\n      swap2\n      pop\n        /* \"#utility.yul\":3279:3396   */\n      pop\n        /* \"#utility.yul\":3074:3403   */\n      swap3\n      swap2\n      pop\n      pop\n      jump\t// out\n        /* \"#utility.yul\":3409:3527   */\n    tag_249:\n        /* \"#utility.yul\":3496:3520   */\n      tag_336\n        /* \"#utility.yul\":3514:3519   */\n      dup2\n        /* \"#utility.yul\":3496:3520   */\n      tag_246\n      jump\t// in\n    tag_336:\n        /* \"#utility.yul\":3491:3494   */\n      dup3\n        /* \"#utility.yul\":3484:3521   */\n      mstore\n        /* \"#utility.yul\":3409:3527   */\n      pop\n      pop\n      jump\t// out\n        /* \"#utility.yul\":3533:3755   */\n    tag_28:\n        /* \"#utility.yul\":3626:3630   */\n      0x00\n        /* \"#utility.yul\":3664:3666   */\n      0x20\n        /* \"#utility.yul\":3653:3662   */\n      dup3\n        /* \"#utility.yul\":3649:3667   */\n      add\n        /* \"#utility.yul\":3641:3667   */\n      swap1\n      pop\n        /* \"#utility.yul\":3677:3748   */\n      tag_338\n        /* \"#utility.yul\":3745:3746   */\n      0x00\n        /* \"#utility.yul\":3734:3743   */\n      dup4\n        /* \"#utility.yul\":3730:3747   */\n      add\n        /* \"#utility.yul\":3721:3727   */\n      dup5\n        /* \"#utility.yul\":3677:3748   */\n      tag_249\n      jump\t// in\n    tag_338:\n        /* \"#utility.yul\":3533:3755   */\n      swap3\n      swap2\n      pop\n      pop\n      jump\t// out\n        /* \"#utility.yul\":3761:3879   */\n    tag_250:\n        /* \"#utility.yul\":3848:3872   */\n      tag_340\n        /* \"#utility.yul\":3866:3871   */\n      dup2\n        /* \"#utility.yul\":3848:3872   */\n      tag_242\n      jump\t// in\n    tag_340:\n        /* \"#utility.yul\":3843:3846   */\n      dup3\n        /* \"#utility.yul\":3836:3873   */\n      mstore\n        /* \"#utility.yul\":3761:3879   */\n      pop\n      pop\n      jump\t// out\n        /* \"#utility.yul\":3885:3975   */\n    tag_251:\n        /* \"#utility.yul\":3919:3926   */\n      0x00\n        /* \"#utility.yul\":3962:3967   */\n      dup2\n        /* \"#utility.yul\":3955:3968   */\n      iszero\n        /* \"#utility.yul\":3948:3969   */\n      iszero\n        /* \"#utility.yul\":3937:3969   */\n      swap1\n      pop\n        /* \"#utility.yul\":3885:3975   */\n      swap2\n      swap1\n      pop\n      jump\t// out\n        /* \"#utility.yul\":3981:4090   */\n    tag_252:\n        /* \"#utility.yul\":4062:4083   */\n      tag_343\n        /* \"#utility.yul\":4077:4082   */\n      dup2\n        /* \"#utility.yul\":4062:4083   */\n      tag_251\n      jump\t// in\n    tag_343:\n        /* \"#utility.yul\":4057:4060   */\n      dup3\n        /* \"#utility.yul\":4050:4084   */\n      mstore\n        /* \"#utility.yul\":3981:4090   */\n      pop\n      pop\n      jump\t// out\n        /* \"#utility.yul\":4096:4156   */\n    tag_253:\n        /* \"#utility.yul\":4124:4127   */\n      0x00\n        /* \"#utility.yul\":4145:4150   */\n      dup2\n        /* \"#utility.yul\":4138:4150   */\n      swap1\n      pop\n        /* \"#utility.yul\":4096:4156   */\n      swap2\n      swap1\n      pop\n      jump\t// out\n        /* \"#utility.yul\":4162:4304   */\n    tag_254:\n        /* \"#utility.yul\":4212:4221   */\n      0x00\n        /* \"#utility.yul\":4245:4298   */\n      tag_346\n        /* \"#utility.yul\":4263:4297   */\n      tag_347\n        /* \"#utility.yul\":4272:4296   */\n      tag_348\n        /* \"#utility.yul\":4290:4295   */\n      dup5\n        /* \"#utility.yul\":4272:4296   */\n      tag_241\n      jump\t// in\n    tag_348:\n        /* \"#utility.yul\":4263:4297   */\n      tag_253\n      jump\t// in\n    tag_347:\n        /* \"#utility.yul\":4245:4298   */\n      tag_241\n      jump\t// in\n    tag_346:\n        /* \"#utility.yul\":4232:4298   */\n      swap1\n      pop\n        /* \"#utility.yul\":4162:4304   */\n      swap2\n      swap1\n      pop\n      jump\t// out\n        /* \"#utility.yul\":4310:4436   */\n    tag_255:\n        /* \"#utility.yul\":4360:4369   */\n      0x00\n        /* \"#utility.yul\":4393:4430   */\n      tag_350\n        /* \"#utility.yul\":4424:4429   */\n      dup3\n        /* \"#utility.yul\":4393:4430   */\n      tag_254\n      jump\t// in\n    tag_350:\n        /* \"#utility.yul\":4380:4430   */\n      swap1\n      pop\n        /* \"#utility.yul\":4310:4436   */\n      swap2\n      swap1\n      pop\n      jump\t// out\n        /* \"#utility.yul\":4442:4583   */\n    tag_256:\n        /* \"#utility.yul\":4507:4516   */\n      0x00\n        /* \"#utility.yul\":4540:4577   */\n      tag_352\n        /* \"#utility.yul\":4571:4576   */\n      dup3\n        /* \"#utility.yul\":4540:4577   */\n      tag_255\n      jump\t// in\n    tag_352:\n        /* \"#utility.yul\":4527:4577   */\n      swap1\n      pop\n        /* \"#utility.yul\":4442:4583   */\n      swap2\n      swap1\n      pop\n      jump\t// out\n        /* \"#utility.yul\":4589:4750   */\n    tag_257:\n        /* \"#utility.yul\":4691:4743   */\n      tag_354\n        /* \"#utility.yul\":4737:4742   */\n      dup2\n        /* \"#utility.yul\":4691:4743   */\n      tag_256\n      jump\t// in\n    tag_354:\n        /* \"#utility.yul\":4686:4689   */\n      dup3\n        /* \"#utility.yul\":4679:4744   */\n      mstore\n        /* \"#utility.yul\":4589:4750   */\n      pop\n      pop\n      jump\t// out\n        /* \"#utility.yul\":4756:5438   */\n    tag_36:\n        /* \"#utility.yul\":4970:4974   */\n      0x00\n        /* \"#utility.yul\":5008:5011   */\n      0xa0\n        /* \"#utility.yul\":4997:5006   */\n      dup3\n        /* \"#utility.yul\":4993:5012   */\n      add\n        /* \"#utility.yul\":4985:5012   */\n      swap1\n      pop\n        /* \"#utility.yul\":5022:5093   */\n      tag_356\n        /* \"#utility.yul\":5090:5091   */\n      0x00\n        /* \"#utility.yul\":5079:5088   */\n      dup4\n        /* \"#utility.yul\":5075:5092   */\n      add\n        /* \"#utility.yul\":5066:5072   */\n      dup9\n        /* \"#utility.yul\":5022:5093   */\n      tag_250\n      jump\t// in\n    tag_356:\n        /* \"#utility.yul\":5103:5175   */\n      tag_357\n        /* \"#utility.yul\":5171:5173   */\n      0x20\n        /* \"#utility.yul\":5160:5169   */\n      dup4\n        /* \"#utility.yul\":5156:5174   */\n      add\n        /* \"#utility.yul\":5147:5153   */\n      dup8\n        /* \"#utility.yul\":5103:5175   */\n      tag_249\n      jump\t// in\n    tag_357:\n        /* \"#utility.yul\":5185:5257   */\n      tag_358\n        /* \"#utility.yul\":5253:5255   */\n      0x40\n        /* \"#utility.yul\":5242:5251   */\n      dup4\n        /* \"#utility.yul\":5238:5256   */\n      add\n        /* \"#utility.yul\":5229:5235   */\n      dup7\n        /* \"#utility.yul\":5185:5257   */\n      tag_249\n      jump\t// in\n    tag_358:\n        /* \"#utility.yul\":5267:5333   */\n      tag_359\n        /* \"#utility.yul\":5329:5331   */\n      0x60\n        /* \"#utility.yul\":5318:5327   */\n      dup4\n        /* \"#utility.yul\":5314:5332   */\n      add\n        /* \"#utility.yul\":5305:5311   */\n      dup6\n        /* \"#utility.yul\":5267:5333   */\n      tag_252\n      jump\t// in\n    tag_359:\n        /* \"#utility.yul\":5343:5431   */\n      tag_360\n        /* \"#utility.yul\":5426:5429   */\n      0x80\n        /* \"#utility.yul\":5415:5424   */\n      dup4\n        /* \"#utility.yul\":5411:5430   */\n      add\n        /* \"#utility.yul\":5402:5408   */\n      dup5\n        /* \"#utility.yul\":5343:5431   */\n      tag_257\n      jump\t// in\n    tag_360:\n        /* \"#utility.yul\":4756:5438   */\n      swap7\n      swap6\n      pop\n      pop\n      pop\n      pop\n      pop\n      pop\n      jump\t// out\n        /* \"#utility.yul\":5444:5666   */\n    tag_45:\n        /* \"#utility.yul\":5537:5541   */\n      0x00\n        /* \"#utility.yul\":5575:5577   */\n      0x20\n        /* \"#utility.yul\":5564:5573   */\n      dup3\n        /* \"#utility.yul\":5560:5578   */\n      add\n        /* \"#utility.yul\":5552:5578   */\n      swap1\n      pop\n        /* \"#utility.yul\":5588:5659   */\n      tag_362\n        /* \"#utility.yul\":5656:5657   */\n      0x00\n        /* \"#utility.yul\":5645:5654   */\n      dup4\n        /* \"#utility.yul\":5641:5658   */\n      add\n        /* \"#utility.yul\":5632:5638   */\n      dup5\n        /* \"#utility.yul\":5588:5659   */\n      tag_250\n      jump\t// in\n    tag_362:\n        /* \"#utility.yul\":5444:5666   */\n      swap3\n      swap2\n      pop\n      pop\n      jump\t// out\n        /* \"#utility.yul\":5672:6031   */\n    tag_54:\n        /* \"#utility.yul\":5746:5752   */\n      0x00\n        /* \"#utility.yul\":5795:5797   */\n      0x20\n        /* \"#utility.yul\":5783:5792   */\n      dup3\n        /* \"#utility.yul\":5774:5781   */\n      dup5\n        /* \"#utility.yul\":5770:5793   */\n      sub\n        /* \"#utility.yul\":5766:5798   */\n      slt\n        /* \"#utility.yul\":5763:5882   */\n      iszero\n      tag_364\n      jumpi\n        /* \"#utility.yul\":5801:5880   */\n      tag_365\n      tag_235\n      jump\t// in\n    tag_365:\n        /* \"#utility.yul\":5763:5882   */\n    tag_364:\n        /* \"#utility.yul\":5921:5922   */\n      0x00\n        /* \"#utility.yul\":5946:6014   */\n      tag_366\n        /* \"#utility.yul\":6006:6013   */\n      dup5\n        /* \"#utility.yul\":5997:6003   */\n      dup3\n        /* \"#utility.yul\":5986:5995   */\n      dup6\n        /* \"#utility.yul\":5982:6004   */\n      add\n        /* \"#utility.yul\":5946:6014   */\n      tag_245\n      jump\t// in\n    tag_366:\n        /* \"#utility.yul\":5936:6014   */\n      swap2\n      pop\n        /* \"#utility.yul\":5892:6024   */\n      pop\n        /* \"#utility.yul\":5672:6031   */\n      swap3\n      swap2\n      pop\n      pop\n      jump\t// out\n        /* \"#utility.yul\":6037:6185   */\n    tag_258:\n        /* \"#utility.yul\":6109:6118   */\n      0x00\n        /* \"#utility.yul\":6142:6179   */\n      tag_368\n        /* \"#utility.yul\":6173:6178   */\n      dup3\n        /* \"#utility.yul\":6142:6179   */\n      tag_255\n      jump\t// in\n    tag_368:\n        /* \"#utility.yul\":6129:6179   */\n      swap1\n      pop\n        /* \"#utility.yul\":6037:6185   */\n      swap2\n      swap1\n      pop\n      jump\t// out\n        /* \"#utility.yul\":6191:6366   */\n    tag_259:\n        /* \"#utility.yul\":6300:6359   */\n      tag_370\n        /* \"#utility.yul\":6353:6358   */\n      dup2\n        /* \"#utility.yul\":6300:6359   */\n      tag_258\n      jump\t// in\n    tag_370:\n        /* \"#utility.yul\":6295:6298   */\n      dup3\n        /* \"#utility.yul\":6288:6360   */\n      mstore\n        /* \"#utility.yul\":6191:6366   */\n      pop\n      pop\n      jump\t// out\n        /* \"#utility.yul\":6372:6858   */\n    tag_57:\n        /* \"#utility.yul\":6543:6547   */\n      0x00\n        /* \"#utility.yul\":6581:6583   */\n      0x60\n        /* \"#utility.yul\":6570:6579   */\n      dup3\n        /* \"#utility.yul\":6566:6584   */\n      add\n        /* \"#utility.yul\":6558:6584   */\n      swap1\n      pop\n        /* \"#utility.yul\":6594:6687   */\n      tag_372\n        /* \"#utility.yul\":6684:6685   */\n      0x00\n        /* \"#utility.yul\":6673:6682   */\n      dup4\n        /* \"#utility.yul\":6669:6686   */\n      add\n        /* \"#utility.yul\":6660:6666   */\n      dup7\n        /* \"#utility.yul\":6594:6687   */\n      tag_259\n      jump\t// in\n    tag_372:\n        /* \"#utility.yul\":6697:6769   */\n      tag_373\n        /* \"#utility.yul\":6765:6767   */\n      0x20\n        /* \"#utility.yul\":6754:6763   */\n      dup4\n        /* \"#utility.yul\":6750:6768   */\n      add\n        /* \"#utility.yul\":6741:6747   */\n      dup6\n        /* \"#utility.yul\":6697:6769   */\n      tag_249\n      jump\t// in\n    tag_373:\n        /* \"#utility.yul\":6779:6851   */\n      tag_374\n        /* \"#utility.yul\":6847:6849   */\n      0x40\n        /* \"#utility.yul\":6836:6845   */\n      dup4\n        /* \"#utility.yul\":6832:6850   */\n      add\n        /* \"#utility.yul\":6823:6829   */\n      dup5\n        /* \"#utility.yul\":6779:6851   */\n      tag_249\n      jump\t// in\n    tag_374:\n        /* \"#utility.yul\":6372:6858   */\n      swap5\n      swap4\n      pop\n      pop\n      pop\n      pop\n      jump\t// out\n        /* \"#utility.yul\":6864:6986   */\n    tag_260:\n        /* \"#utility.yul\":6937:6961   */\n      tag_376\n        /* \"#utility.yul\":6955:6960   */\n      dup2\n        /* \"#utility.yul\":6937:6961   */\n      tag_242\n      jump\t// in\n    tag_376:\n        /* \"#utility.yul\":6930:6935   */\n      dup2\n        /* \"#utility.yul\":6927:6962   */\n      eq\n        /* \"#utility.yul\":6917:6980   */\n      tag_377\n      jumpi\n        /* \"#utility.yul\":6976:6977   */\n      0x00\n        /* \"#utility.yul\":6973:6974   */\n      dup1\n        /* \"#utility.yul\":6966:6978   */\n      revert\n        /* \"#utility.yul\":6917:6980   */\n    tag_377:\n        /* \"#utility.yul\":6864:6986   */\n      pop\n      jump\t// out\n        /* \"#utility.yul\":6992:7131   */\n    tag_261:\n        /* \"#utility.yul\":7038:7043   */\n      0x00\n        /* \"#utility.yul\":7076:7082   */\n      dup2\n        /* \"#utility.yul\":7063:7083   */\n      calldataload\n        /* \"#utility.yul\":7054:7083   */\n      swap1\n      pop\n        /* \"#utility.yul\":7092:7125   */\n      tag_379\n        /* \"#utility.yul\":7119:7124   */\n      dup2\n        /* \"#utility.yul\":7092:7125   */\n      tag_260\n      jump\t// in\n    tag_379:\n        /* \"#utility.yul\":6992:7131   */\n      swap3\n      swap2\n      pop\n      pop\n      jump\t// out\n        /* \"#utility.yul\":7137:7466   */\n    tag_60:\n        /* \"#utility.yul\":7196:7202   */\n      0x00\n        /* \"#utility.yul\":7245:7247   */\n      0x20\n        /* \"#utility.yul\":7233:7242   */\n      dup3\n        /* \"#utility.yul\":7224:7231   */\n      dup5\n        /* \"#utility.yul\":7220:7243   */\n      sub\n        /* \"#utility.yul\":7216:7248   */\n      slt\n        /* \"#utility.yul\":7213:7332   */\n      iszero\n      tag_381\n      jumpi\n        /* \"#utility.yul\":7251:7330   */\n      tag_382\n      tag_235\n      jump\t// in\n    tag_382:\n        /* \"#utility.yul\":7213:7332   */\n    tag_381:\n        /* \"#utility.yul\":7371:7372   */\n      0x00\n        /* \"#utility.yul\":7396:7449   */\n      tag_383\n        /* \"#utility.yul\":7441:7448   */\n      dup5\n        /* \"#utility.yul\":7432:7438   */\n      dup3\n        /* \"#utility.yul\":7421:7430   */\n      dup6\n        /* \"#utility.yul\":7417:7439   */\n      add\n        /* \"#utility.yul\":7396:7449   */\n      tag_261\n      jump\t// in\n    tag_383:\n        /* \"#utility.yul\":7386:7449   */\n      swap2\n      pop\n        /* \"#utility.yul\":7342:7459   */\n      pop\n        /* \"#utility.yul\":7137:7466   */\n      swap3\n      swap2\n      pop\n      pop\n      jump\t// out\n        /* \"#utility.yul\":7472:7641   */\n    tag_262:\n        /* \"#utility.yul\":7556:7567   */\n      0x00\n        /* \"#utility.yul\":7590:7596   */\n      dup3\n        /* \"#utility.yul\":7585:7588   */\n      dup3\n        /* \"#utility.yul\":7578:7597   */\n      mstore\n        /* \"#utility.yul\":7630:7634   */\n      0x20\n        /* \"#utility.yul\":7625:7628   */\n      dup3\n        /* \"#utility.yul\":7621:7635   */\n      add\n        /* \"#utility.yul\":7606:7635   */\n      swap1\n      pop\n        /* \"#utility.yul\":7472:7641   */\n      swap3\n      swap2\n      pop\n      pop\n      jump\t// out\n        /* \"#utility.yul\":7647:7817   */\n    tag_263:\n        /* \"#utility.yul\":7787:7809   */\n      0x436f6e7472616374206e6f7420616c6c6f776564000000000000000000000000\n        /* \"#utility.yul\":7783:7784   */\n      0x00\n        /* \"#utility.yul\":7775:7781   */\n      dup3\n        /* \"#utility.yul\":7771:7785   */\n      add\n        /* \"#utility.yul\":7764:7810   */\n      mstore\n        /* \"#utility.yul\":7647:7817   */\n      pop\n      jump\t// out\n        /* \"#utility.yul\":7823:8189   */\n    tag_264:\n        /* \"#utility.yul\":7965:7968   */\n      0x00\n        /* \"#utility.yul\":7986:8053   */\n      tag_387\n        /* \"#utility.yul\":8050:8052   */\n      0x14\n        /* \"#utility.yul\":8045:8048   */\n      dup4\n        /* \"#utility.yul\":7986:8053   */\n      tag_262\n      jump\t// in\n    tag_387:\n        /* \"#utility.yul\":7979:8053   */\n      swap2\n      pop\n        /* \"#utility.yul\":8062:8155   */\n      tag_388\n        /* \"#utility.yul\":8151:8154   */\n      dup3\n        /* \"#utility.yul\":8062:8155   */\n      tag_263\n      jump\t// in\n    tag_388:\n        /* \"#utility.yul\":8180:8182   */\n      0x20\n        /* \"#utility.yul\":8175:8178   */\n      dup3\n        /* \"#utility.yul\":8171:8183   */\n      add\n        /* \"#utility.yul\":8164:8183   */\n      swap1\n      pop\n        /* \"#utility.yul\":7823:8189   */\n      swap2\n      swap1\n      pop\n      jump\t// out\n        /* \"#utility.yul\":8195:8614   */\n    tag_67:\n        /* \"#utility.yul\":8361:8365   */\n      0x00\n        /* \"#utility.yul\":8399:8401   */\n      0x20\n        /* \"#utility.yul\":8388:8397   */\n      dup3\n        /* \"#utility.yul\":8384:8402   */\n      add\n        /* \"#utility.yul\":8376:8402   */\n      swap1\n      pop\n        /* \"#utility.yul\":8448:8457   */\n      dup2\n        /* \"#utility.yul\":8442:8446   */\n      dup2\n        /* \"#utility.yul\":8438:8458   */\n      sub\n        /* \"#utility.yul\":8434:8435   */\n      0x00\n        /* \"#utility.yul\":8423:8432   */\n      dup4\n        /* \"#utility.yul\":8419:8436   */\n      add\n        /* \"#utility.yul\":8412:8459   */\n      mstore\n        /* \"#utility.yul\":8476:8607   */\n      tag_390\n        /* \"#utility.yul\":8602:8606   */\n      dup2\n        /* \"#utility.yul\":8476:8607   */\n      tag_264\n      jump\t// in\n    tag_390:\n        /* \"#utility.yul\":8468:8607   */\n      swap1\n      pop\n        /* \"#utility.yul\":8195:8614   */\n      swap2\n      swap1\n      pop\n      jump\t// out\n        /* \"#utility.yul\":8620:8796   */\n    tag_265:\n        /* \"#utility.yul\":8760:8788   */\n      0x50726f787920636f6e7472616374206e6f7420616c6c6f776564000000000000\n        /* \"#utility.yul\":8756:8757   */\n      0x00\n        /* \"#utility.yul\":8748:8754   */\n      dup3\n        /* \"#utility.yul\":8744:8758   */\n      add\n        /* \"#utility.yul\":8737:8789   */\n      mstore\n        /* \"#utility.yul\":8620:8796   */\n      pop\n      jump\t// out\n        /* \"#utility.yul\":8802:9168   */\n    tag_266:\n        /* \"#utility.yul\":8944:8947   */\n      0x00\n        /* \"#utility.yul\":8965:9032   */\n      tag_393\n        /* \"#utility.yul\":9029:9031   */\n      0x1a\n        /* \"#utility.yul\":9024:9027   */\n      dup4\n        /* \"#utility.yul\":8965:9032   */\n      tag_262\n      jump\t// in\n    tag_393:\n        /* \"#utility.yul\":8958:9032   */\n      swap2\n      pop\n        /* \"#utility.yul\":9041:9134   */\n      tag_394\n        /* \"#utility.yul\":9130:9133   */\n      dup3\n        /* \"#utility.yul\":9041:9134   */\n      tag_265\n      jump\t// in\n    tag_394:\n        /* \"#utility.yul\":9159:9161   */\n      0x20\n        /* \"#utility.yul\":9154:9157   */\n      dup3\n        /* \"#utility.yul\":9150:9162   */\n      add\n        /* \"#utility.yul\":9143:9162   */\n      swap1\n      pop\n        /* \"#utility.yul\":8802:9168   */\n      swap2\n      swap1\n      pop\n      jump\t// out\n        /* \"#utility.yul\":9174:9593   */\n    tag_70:\n        /* \"#utility.yul\":9340:9344   */\n      0x00\n        /* \"#utility.yul\":9378:9380   */\n      0x20\n        /* \"#utility.yul\":9367:9376   */\n      dup3\n        /* \"#utility.yul\":9363:9381   */\n      add\n        /* \"#utility.yul\":9355:9381   */\n      swap1\n      pop\n        /* \"#utility.yul\":9427:9436   */\n      dup2\n        /* \"#utility.yul\":9421:9425   */\n      dup2\n        /* \"#utility.yul\":9417:9437   */\n      sub\n        /* \"#utility.yul\":9413:9414   */\n      0x00\n        /* \"#utility.yul\":9402:9411   */\n      dup4\n        /* \"#utility.yul\":9398:9415   */\n      add\n        /* \"#utility.yul\":9391:9438   */\n      mstore\n        /* \"#utility.yul\":9455:9586   */\n      tag_396\n        /* \"#utility.yul\":9581:9585   */\n      dup2\n        /* \"#utility.yul\":9455:9586   */\n      tag_266\n      jump\t// in\n    tag_396:\n        /* \"#utility.yul\":9447:9586   */\n      swap1\n      pop\n        /* \"#utility.yul\":9174:9593   */\n      swap2\n      swap1\n      pop\n      jump\t// out\n        /* \"#utility.yul\":9599:9758   */\n    tag_267:\n        /* \"#utility.yul\":9739:9750   */\n      0x4e6f20746f6b656e730000000000000000000000000000000000000000000000\n        /* \"#utility.yul\":9735:9736   */\n      0x00\n        /* \"#utility.yul\":9727:9733   */\n      dup3\n        /* \"#utility.yul\":9723:9737   */\n      add\n        /* \"#utility.yul\":9716:9751   */\n      mstore\n        /* \"#utility.yul\":9599:9758   */\n      pop\n      jump\t// out\n        /* \"#utility.yul\":9764:10129   */\n    tag_268:\n        /* \"#utility.yul\":9906:9909   */\n      0x00\n        /* \"#utility.yul\":9927:9993   */\n      tag_399\n        /* \"#utility.yul\":9991:9992   */\n      0x09\n        /* \"#utility.yul\":9986:9989   */\n      dup4\n        /* \"#utility.yul\":9927:9993   */\n      tag_262\n      jump\t// in\n    tag_399:\n        /* \"#utility.yul\":9920:9993   */\n      swap2\n      pop\n        /* \"#utility.yul\":10002:10095   */\n      tag_400\n        /* \"#utility.yul\":10091:10094   */\n      dup3\n        /* \"#utility.yul\":10002:10095   */\n      tag_267\n      jump\t// in\n    tag_400:\n        /* \"#utility.yul\":10120:10122   */\n      0x20\n        /* \"#utility.yul\":10115:10118   */\n      dup3\n        /* \"#utility.yul\":10111:10123   */\n      add\n        /* \"#utility.yul\":10104:10123   */\n      swap1\n      pop\n        /* \"#utility.yul\":9764:10129   */\n      swap2\n      swap1\n      pop\n      jump\t// out\n        /* \"#utility.yul\":10135:10554   */\n    tag_74:\n        /* \"#utility.yul\":10301:10305   */\n      0x00\n        /* \"#utility.yul\":10339:10341   */\n      0x20\n        /* \"#utility.yul\":10328:10337   */\n      dup3\n        /* \"#utility.yul\":10324:10342   */\n      add\n        /* \"#utility.yul\":10316:10342   */\n      swap1\n      pop\n        /* \"#utility.yul\":10388:10397   */\n      dup2\n        /* \"#utility.yul\":10382:10386   */\n      dup2\n        /* \"#utility.yul\":10378:10398   */\n      sub\n        /* \"#utility.yul\":10374:10375   */\n      0x00\n        /* \"#utility.yul\":10363:10372   */\n      dup4\n        /* \"#utility.yul\":10359:10376   */\n      add\n        /* \"#utility.yul\":10352:10399   */\n      mstore\n        /* \"#utility.yul\":10416:10547   */\n      tag_402\n        /* \"#utility.yul\":10542:10546   */\n      dup2\n        /* \"#utility.yul\":10416:10547   */\n      tag_268\n      jump\t// in\n    tag_402:\n        /* \"#utility.yul\":10408:10547   */\n      swap1\n      pop\n        /* \"#utility.yul\":10135:10554   */\n      swap2\n      swap1\n      pop\n      jump\t// out\n        /* \"#utility.yul\":10560:10740   */\n    tag_80:\n        /* \"#utility.yul\":10608:10685   */\n      0x4e487b7100000000000000000000000000000000000000000000000000000000\n        /* \"#utility.yul\":10605:10606   */\n      0x00\n        /* \"#utility.yul\":10598:10686   */\n      mstore\n        /* \"#utility.yul\":10705:10709   */\n      0x32\n        /* \"#utility.yul\":10702:10703   */\n      0x04\n        /* \"#utility.yul\":10695:10710   */\n      mstore\n        /* \"#utility.yul\":10729:10733   */\n      0x24\n        /* \"#utility.yul\":10726:10727   */\n      0x00\n        /* \"#utility.yul\":10719:10734   */\n      revert\n        /* \"#utility.yul\":10746:10913   */\n    tag_269:\n        /* \"#utility.yul\":10886:10905   */\n      0x4e6f74206120746f6b656e206f776e6572000000000000000000000000000000\n        /* \"#utility.yul\":10882:10883   */\n      0x00\n        /* \"#utility.yul\":10874:10880   */\n      dup3\n        /* \"#utility.yul\":10870:10884   */\n      add\n        /* \"#utility.yul\":10863:10906   */\n      mstore\n        /* \"#utility.yul\":10746:10913   */\n      pop\n      jump\t// out\n        /* \"#utility.yul\":10919:11285   */\n    tag_270:\n        /* \"#utility.yul\":11061:11064   */\n      0x00\n        /* \"#utility.yul\":11082:11149   */\n      tag_406\n        /* \"#utility.yul\":11146:11148   */\n      0x11\n        /* \"#utility.yul\":11141:11144   */\n      dup4\n        /* \"#utility.yul\":11082:11149   */\n      tag_262\n      jump\t// in\n    tag_406:\n        /* \"#utility.yul\":11075:11149   */\n      swap2\n      pop\n        /* \"#utility.yul\":11158:11251   */\n      tag_407\n        /* \"#utility.yul\":11247:11250   */\n      dup3\n        /* \"#utility.yul\":11158:11251   */\n      tag_269\n      jump\t// in\n    tag_407:\n        /* \"#utility.yul\":11276:11278   */\n      0x20\n        /* \"#utility.yul\":11271:11274   */\n      dup3\n        /* \"#utility.yul\":11267:11279   */\n      add\n        /* \"#utility.yul\":11260:11279   */\n      swap1\n      pop\n        /* \"#utility.yul\":10919:11285   */\n      swap2\n      swap1\n      pop\n      jump\t// out\n        /* \"#utility.yul\":11291:11710   */\n    tag_83:\n        /* \"#utility.yul\":11457:11461   */\n      0x00\n        /* \"#utility.yul\":11495:11497   */\n      0x20\n        /* \"#utility.yul\":11484:11493   */\n      dup3\n        /* \"#utility.yul\":11480:11498   */\n      add\n        /* \"#utility.yul\":11472:11498   */\n      swap1\n      pop\n        /* \"#utility.yul\":11544:11553   */\n      dup2\n        /* \"#utility.yul\":11538:11542   */\n      dup2\n        /* \"#utility.yul\":11534:11554   */\n      sub\n        /* \"#utility.yul\":11530:11531   */\n      0x00\n        /* \"#utility.yul\":11519:11528   */\n      dup4\n        /* \"#utility.yul\":11515:11532   */\n      add\n        /* \"#utility.yul\":11508:11555   */\n      mstore\n        /* \"#utility.yul\":11572:11703   */\n      tag_409\n        /* \"#utility.yul\":11698:11702   */\n      dup2\n        /* \"#utility.yul\":11572:11703   */\n      tag_270\n      jump\t// in\n    tag_409:\n        /* \"#utility.yul\":11564:11703   */\n      swap1\n      pop\n        /* \"#utility.yul\":11291:11710   */\n      swap2\n      swap1\n      pop\n      jump\t// out\n        /* \"#utility.yul\":11716:11896   */\n    tag_271:\n        /* \"#utility.yul\":11764:11841   */\n      0x4e487b7100000000000000000000000000000000000000000000000000000000\n        /* \"#utility.yul\":11761:11762   */\n      0x00\n        /* \"#utility.yul\":11754:11842   */\n      mstore\n        /* \"#utility.yul\":11861:11865   */\n      0x11\n        /* \"#utility.yul\":11858:11859   */\n      0x04\n        /* \"#utility.yul\":11851:11866   */\n      mstore\n        /* \"#utility.yul\":11885:11889   */\n      0x24\n        /* \"#utility.yul\":11882:11883   */\n      0x00\n        /* \"#utility.yul\":11875:11890   */\n      revert\n        /* \"#utility.yul\":11902:12093   */\n    tag_85:\n        /* \"#utility.yul\":11942:11945   */\n      0x00\n        /* \"#utility.yul\":11961:11981   */\n      tag_412\n        /* \"#utility.yul\":11979:11980   */\n      dup3\n        /* \"#utility.yul\":11961:11981   */\n      tag_246\n      jump\t// in\n    tag_412:\n        /* \"#utility.yul\":11956:11981   */\n      swap2\n      pop\n        /* \"#utility.yul\":11995:12015   */\n      tag_413\n        /* \"#utility.yul\":12013:12014   */\n      dup4\n        /* \"#utility.yul\":11995:12015   */\n      tag_246\n      jump\t// in\n    tag_413:\n        /* \"#utility.yul\":11990:12015   */\n      swap3\n      pop\n        /* \"#utility.yul\":12038:12039   */\n      dup3\n        /* \"#utility.yul\":12035:12036   */\n      dup3\n        /* \"#utility.yul\":12031:12040   */\n      add\n        /* \"#utility.yul\":12024:12040   */\n      swap1\n      pop\n        /* \"#utility.yul\":12059:12062   */\n      dup1\n        /* \"#utility.yul\":12056:12057   */\n      dup3\n        /* \"#utility.yul\":12053:12063   */\n      gt\n        /* \"#utility.yul\":12050:12086   */\n      iszero\n      tag_414\n      jumpi\n        /* \"#utility.yul\":12066:12084   */\n      tag_415\n      tag_271\n      jump\t// in\n    tag_415:\n        /* \"#utility.yul\":12050:12086   */\n    tag_414:\n        /* \"#utility.yul\":11902:12093   */\n      swap3\n      swap2\n      pop\n      pop\n      jump\t// out\n        /* \"#utility.yul\":12099:12270   */\n    tag_272:\n        /* \"#utility.yul\":12239:12262   */\n      0x4e6f742061626c6520746f20636c61696d207965740000000000000000000000\n        /* \"#utility.yul\":12235:12236   */\n      0x00\n        /* \"#utility.yul\":12227:12233   */\n      dup3\n        /* \"#utility.yul\":12223:12237   */\n      add\n        /* \"#utility.yul\":12216:12263   */\n      mstore\n        /* \"#utility.yul\":12099:12270   */\n      pop\n      jump\t// out\n        /* \"#utility.yul\":12276:12642   */\n    tag_273:\n        /* \"#utility.yul\":12418:12421   */\n      0x00\n        /* \"#utility.yul\":12439:12506   */\n      tag_418\n        /* \"#utility.yul\":12503:12505   */\n      0x15\n        /* \"#utility.yul\":12498:12501   */\n      dup4\n        /* \"#utility.yul\":12439:12506   */\n      tag_262\n      jump\t// in\n    tag_418:\n        /* \"#utility.yul\":12432:12506   */\n      swap2\n      pop\n        /* \"#utility.yul\":12515:12608   */\n      tag_419\n        /* \"#utility.yul\":12604:12607   */\n      dup3\n        /* \"#utility.yul\":12515:12608   */\n      tag_272\n      jump\t// in\n    tag_419:\n        /* \"#utility.yul\":12633:12635   */\n      0x20\n        /* \"#utility.yul\":12628:12631   */\n      dup3\n        /* \"#utility.yul\":12624:12636   */\n      add\n        /* \"#utility.yul\":12617:12636   */\n      swap1\n      pop\n        /* \"#utility.yul\":12276:12642   */\n      swap2\n      swap1\n      pop\n      jump\t// out\n        /* \"#utility.yul\":12648:13067   */\n    tag_88:\n        /* \"#utility.yul\":12814:12818   */\n      0x00\n        /* \"#utility.yul\":12852:12854   */\n      0x20\n        /* \"#utility.yul\":12841:12850   */\n      dup3\n        /* \"#utility.yul\":12837:12855   */\n      add\n        /* \"#utility.yul\":12829:12855   */\n      swap1\n      pop\n        /* \"#utility.yul\":12901:12910   */\n      dup2\n        /* \"#utility.yul\":12895:12899   */\n      dup2\n        /* \"#utility.yul\":12891:12911   */\n      sub\n        /* \"#utility.yul\":12887:12888   */\n      0x00\n        /* \"#utility.yul\":12876:12885   */\n      dup4\n        /* \"#utility.yul\":12872:12889   */\n      add\n        /* \"#utility.yul\":12865:12912   */\n      mstore\n        /* \"#utility.yul\":12929:13060   */\n      tag_421\n        /* \"#utility.yul\":13055:13059   */\n      dup2\n        /* \"#utility.yul\":12929:13060   */\n      tag_273\n      jump\t// in\n    tag_421:\n        /* \"#utility.yul\":12921:13060   */\n      swap1\n      pop\n        /* \"#utility.yul\":12648:13067   */\n      swap2\n      swap1\n      pop\n      jump\t// out\n        /* \"#utility.yul\":13073:13239   */\n    tag_274:\n        /* \"#utility.yul\":13213:13231   */\n      0x416c726561647920756e6c6f636b656400000000000000000000000000000000\n        /* \"#utility.yul\":13209:13210   */\n      0x00\n        /* \"#utility.yul\":13201:13207   */\n      dup3\n        /* \"#utility.yul\":13197:13211   */\n      add\n        /* \"#utility.yul\":13190:13232   */\n      mstore\n        /* \"#utility.yul\":13073:13239   */\n      pop\n      jump\t// out\n        /* \"#utility.yul\":13245:13611   */\n    tag_275:\n        /* \"#utility.yul\":13387:13390   */\n      0x00\n        /* \"#utility.yul\":13408:13475   */\n      tag_424\n        /* \"#utility.yul\":13472:13474   */\n      0x10\n        /* \"#utility.yul\":13467:13470   */\n      dup4\n        /* \"#utility.yul\":13408:13475   */\n      tag_262\n      jump\t// in\n    tag_424:\n        /* \"#utility.yul\":13401:13475   */\n      swap2\n      pop\n        /* \"#utility.yul\":13484:13577   */\n      tag_425\n        /* \"#utility.yul\":13573:13576   */\n      dup3\n        /* \"#utility.yul\":13484:13577   */\n      tag_274\n      jump\t// in\n    tag_425:\n        /* \"#utility.yul\":13602:13604   */\n      0x20\n        /* \"#utility.yul\":13597:13600   */\n      dup3\n        /* \"#utility.yul\":13593:13605   */\n      add\n        /* \"#utility.yul\":13586:13605   */\n      swap1\n      pop\n        /* \"#utility.yul\":13245:13611   */\n      swap2\n      swap1\n      pop\n      jump\t// out\n        /* \"#utility.yul\":13617:14036   */\n    tag_91:\n        /* \"#utility.yul\":13783:13787   */\n      0x00\n        /* \"#utility.yul\":13821:13823   */\n      0x20\n        /* \"#utility.yul\":13810:13819   */\n      dup3\n        /* \"#utility.yul\":13806:13824   */\n      add\n        /* \"#utility.yul\":13798:13824   */\n      swap1\n      pop\n        /* \"#utility.yul\":13870:13879   */\n      dup2\n        /* \"#utility.yul\":13864:13868   */\n      dup2\n        /* \"#utility.yul\":13860:13880   */\n      sub\n        /* \"#utility.yul\":13856:13857   */\n      0x00\n        /* \"#utility.yul\":13845:13854   */\n      dup4\n        /* \"#utility.yul\":13841:13858   */\n      add\n        /* \"#utility.yul\":13834:13881   */\n      mstore\n        /* \"#utility.yul\":13898:14029   */\n      tag_427\n        /* \"#utility.yul\":14024:14028   */\n      dup2\n        /* \"#utility.yul\":13898:14029   */\n      tag_275\n      jump\t// in\n    tag_427:\n        /* \"#utility.yul\":13890:14029   */\n      swap1\n      pop\n        /* \"#utility.yul\":13617:14036   */\n      swap2\n      swap1\n      pop\n      jump\t// out\n        /* \"#utility.yul\":14042:14236   */\n    tag_97:\n        /* \"#utility.yul\":14082:14086   */\n      0x00\n        /* \"#utility.yul\":14102:14122   */\n      tag_429\n        /* \"#utility.yul\":14120:14121   */\n      dup3\n        /* \"#utility.yul\":14102:14122   */\n      tag_246\n      jump\t// in\n    tag_429:\n        /* \"#utility.yul\":14097:14122   */\n      swap2\n      pop\n        /* \"#utility.yul\":14136:14156   */\n      tag_430\n        /* \"#utility.yul\":14154:14155   */\n      dup4\n        /* \"#utility.yul\":14136:14156   */\n      tag_246\n      jump\t// in\n    tag_430:\n        /* \"#utility.yul\":14131:14156   */\n      swap3\n      pop\n        /* \"#utility.yul\":14180:14181   */\n      dup3\n        /* \"#utility.yul\":14177:14178   */\n      dup3\n        /* \"#utility.yul\":14173:14182   */\n      sub\n        /* \"#utility.yul\":14165:14182   */\n      swap1\n      pop\n        /* \"#utility.yul\":14204:14205   */\n      dup2\n        /* \"#utility.yul\":14198:14202   */\n      dup2\n        /* \"#utility.yul\":14195:14206   */\n      gt\n        /* \"#utility.yul\":14192:14229   */\n      iszero\n      tag_431\n      jumpi\n        /* \"#utility.yul\":14209:14227   */\n      tag_432\n      tag_271\n      jump\t// in\n    tag_432:\n        /* \"#utility.yul\":14192:14229   */\n    tag_431:\n        /* \"#utility.yul\":14042:14236   */\n      swap3\n      swap2\n      pop\n      pop\n      jump\t// out\n        /* \"#utility.yul\":14242:14574   */\n    tag_99:\n        /* \"#utility.yul\":14363:14367   */\n      0x00\n        /* \"#utility.yul\":14401:14403   */\n      0x40\n        /* \"#utility.yul\":14390:14399   */\n      dup3\n        /* \"#utility.yul\":14386:14404   */\n      add\n        /* \"#utility.yul\":14378:14404   */\n      swap1\n      pop\n        /* \"#utility.yul\":14414:14485   */\n      tag_434\n        /* \"#utility.yul\":14482:14483   */\n      0x00\n        /* \"#utility.yul\":14471:14480   */\n      dup4\n        /* \"#utility.yul\":14467:14484   */\n      add\n        /* \"#utility.yul\":14458:14464   */\n      dup6\n        /* \"#utility.yul\":14414:14485   */\n      tag_250\n      jump\t// in\n    tag_434:\n        /* \"#utility.yul\":14495:14567   */\n      tag_435\n        /* \"#utility.yul\":14563:14565   */\n      0x20\n        /* \"#utility.yul\":14552:14561   */\n      dup4\n        /* \"#utility.yul\":14548:14566   */\n      add\n        /* \"#utility.yul\":14539:14545   */\n      dup5\n        /* \"#utility.yul\":14495:14567   */\n      tag_249\n      jump\t// in\n    tag_435:\n        /* \"#utility.yul\":14242:14574   */\n      swap4\n      swap3\n      pop\n      pop\n      pop\n      jump\t// out\n        /* \"#utility.yul\":14580:14813   */\n    tag_107:\n        /* \"#utility.yul\":14619:14622   */\n      0x00\n        /* \"#utility.yul\":14642:14666   */\n      tag_437\n        /* \"#utility.yul\":14660:14665   */\n      dup3\n        /* \"#utility.yul\":14642:14666   */\n      tag_246\n      jump\t// in\n    tag_437:\n        /* \"#utility.yul\":14633:14666   */\n      swap2\n      pop\n        /* \"#utility.yul\":14688:14754   */\n      0xffffffffffffffffffffffffffffffffffffffffffffffffffffffffffffffff\n        /* \"#utility.yul\":14681:14686   */\n      dup3\n        /* \"#utility.yul\":14678:14755   */\n      sub\n        /* \"#utility.yul\":14675:14778   */\n      tag_438\n      jumpi\n        /* \"#utility.yul\":14758:14776   */\n      tag_439\n      tag_271\n      jump\t// in\n    tag_439:\n        /* \"#utility.yul\":14675:14778   */\n    tag_438:\n        /* \"#utility.yul\":14805:14806   */\n      0x01\n        /* \"#utility.yul\":14798:14803   */\n      dup3\n        /* \"#utility.yul\":14794:14807   */\n      add\n        /* \"#utility.yul\":14787:14807   */\n      swap1\n      pop\n        /* \"#utility.yul\":14580:14813   */\n      swap2\n      swap1\n      pop\n      jump\t// out\n        /* \"#utility.yul\":14819:15003   */\n    tag_276:\n        /* \"#utility.yul\":14918:14929   */\n      0x00\n        /* \"#utility.yul\":14952:14958   */\n      dup3\n        /* \"#utility.yul\":14947:14950   */\n      dup3\n        /* \"#utility.yul\":14940:14959   */\n      mstore\n        /* \"#utility.yul\":14992:14996   */\n      0x20\n        /* \"#utility.yul\":14987:14990   */\n      dup3\n        /* \"#utility.yul\":14983:14997   */\n      add\n        /* \"#utility.yul\":14968:14997   */\n      swap1\n      pop\n        /* \"#utility.yul\":14819:15003   */\n      swap3\n      swap2\n      pop\n      pop\n      jump\t// out\n        /* \"#utility.yul\":15009:15126   */\n    tag_277:\n        /* \"#utility.yul\":15118:15119   */\n      0x00\n        /* \"#utility.yul\":15115:15116   */\n      dup1\n        /* \"#utility.yul\":15108:15120   */\n      revert\n        /* \"#utility.yul\":15132:15230   */\n    tag_278:\n        /* \"#utility.yul\":15216:15222   */\n      dup3\n        /* \"#utility.yul\":15211:15214   */\n      dup2\n        /* \"#utility.yul\":15206:15209   */\n      dup4\n        /* \"#utility.yul\":15193:15223   */\n      calldatacopy\n        /* \"#utility.yul\":15132:15230   */\n      pop\n      pop\n      pop\n      jump\t// out\n        /* \"#utility.yul\":15266:15803   */\n    tag_279:\n        /* \"#utility.yul\":15394:15397   */\n      0x00\n        /* \"#utility.yul\":15415:15501   */\n      tag_444\n        /* \"#utility.yul\":15494:15500   */\n      dup4\n        /* \"#utility.yul\":15489:15492   */\n      dup6\n        /* \"#utility.yul\":15415:15501   */\n      tag_276\n      jump\t// in\n    tag_444:\n        /* \"#utility.yul\":15408:15501   */\n      swap4\n      pop\n        /* \"#utility.yul\":15525:15591   */\n      0x07ffffffffffffffffffffffffffffffffffffffffffffffffffffffffffffff\n        /* \"#utility.yul\":15517:15523   */\n      dup4\n        /* \"#utility.yul\":15514:15592   */\n      gt\n        /* \"#utility.yul\":15511:15676   */\n      iszero\n      tag_445\n      jumpi\n        /* \"#utility.yul\":15595:15674   */\n      tag_446\n      tag_277\n      jump\t// in\n    tag_446:\n        /* \"#utility.yul\":15511:15676   */\n    tag_445:\n        /* \"#utility.yul\":15707:15711   */\n      0x20\n        /* \"#utility.yul\":15699:15705   */\n      dup4\n        /* \"#utility.yul\":15695:15712   */\n      mul\n        /* \"#utility.yul\":15685:15712   */\n      swap3\n      pop\n        /* \"#utility.yul\":15722:15765   */\n      tag_447\n        /* \"#utility.yul\":15758:15764   */\n      dup4\n        /* \"#utility.yul\":15753:15756   */\n      dup6\n        /* \"#utility.yul\":15746:15751   */\n      dup5\n        /* \"#utility.yul\":15722:15765   */\n      tag_278\n      jump\t// in\n    tag_447:\n        /* \"#utility.yul\":15790:15796   */\n      dup3\n        /* \"#utility.yul\":15785:15788   */\n      dup5\n        /* \"#utility.yul\":15781:15797   */\n      add\n        /* \"#utility.yul\":15774:15797   */\n      swap1\n      pop\n        /* \"#utility.yul\":15266:15803   */\n      swap4\n      swap3\n      pop\n      pop\n      pop\n      jump\t// out\n        /* \"#utility.yul\":15809:16312   */\n    tag_109:\n        /* \"#utility.yul\":15990:15994   */\n      0x00\n        /* \"#utility.yul\":16028:16030   */\n      0x40\n        /* \"#utility.yul\":16017:16026   */\n      dup3\n        /* \"#utility.yul\":16013:16031   */\n      add\n        /* \"#utility.yul\":16005:16031   */\n      swap1\n      pop\n        /* \"#utility.yul\":16077:16086   */\n      dup2\n        /* \"#utility.yul\":16071:16075   */\n      dup2\n        /* \"#utility.yul\":16067:16087   */\n      sub\n        /* \"#utility.yul\":16063:16064   */\n      0x00\n        /* \"#utility.yul\":16052:16061   */\n      dup4\n        /* \"#utility.yul\":16048:16065   */\n      add\n        /* \"#utility.yul\":16041:16088   */\n      mstore\n        /* \"#utility.yul\":16105:16223   */\n      tag_449\n        /* \"#utility.yul\":16218:16222   */\n      dup2\n        /* \"#utility.yul\":16209:16215   */\n      dup6\n        /* \"#utility.yul\":16201:16207   */\n      dup8\n        /* \"#utility.yul\":16105:16223   */\n      tag_279\n      jump\t// in\n    tag_449:\n        /* \"#utility.yul\":16097:16223   */\n      swap1\n      pop\n        /* \"#utility.yul\":16233:16305   */\n      tag_450\n        /* \"#utility.yul\":16301:16303   */\n      0x20\n        /* \"#utility.yul\":16290:16299   */\n      dup4\n        /* \"#utility.yul\":16286:16304   */\n      add\n        /* \"#utility.yul\":16277:16283   */\n      dup5\n        /* \"#utility.yul\":16233:16305   */\n      tag_249\n      jump\t// in\n    tag_450:\n        /* \"#utility.yul\":15809:16312   */\n      swap5\n      swap4\n      pop\n      pop\n      pop\n      pop\n      jump\t// out\n        /* \"#utility.yul\":16318:16499   */\n    tag_280:\n        /* \"#utility.yul\":16458:16491   */\n      0x5265656e7472616e637947756172643a207265656e7472616e742063616c6c00\n        /* \"#utility.yul\":16454:16455   */\n      0x00\n        /* \"#utility.yul\":16446:16452   */\n      dup3\n        /* \"#utility.yul\":16442:16456   */\n      add\n        /* \"#utility.yul\":16435:16492   */\n      mstore\n        /* \"#utility.yul\":16318:16499   */\n      pop\n      jump\t// out\n        /* \"#utility.yul\":16505:16871   */\n    tag_281:\n        /* \"#utility.yul\":16647:16650   */\n      0x00\n        /* \"#utility.yul\":16668:16735   */\n      tag_453\n        /* \"#utility.yul\":16732:16734   */\n      0x1f\n        /* \"#utility.yul\":16727:16730   */\n      dup4\n        /* \"#utility.yul\":16668:16735   */\n      tag_262\n      jump\t// in\n    tag_453:\n        /* \"#utility.yul\":16661:16735   */\n      swap2\n      pop\n        /* \"#utility.yul\":16744:16837   */\n      tag_454\n        /* \"#utility.yul\":16833:16836   */\n      dup3\n        /* \"#utility.yul\":16744:16837   */\n      tag_280\n      jump\t// in\n    tag_454:\n        /* \"#utility.yul\":16862:16864   */\n      0x20\n        /* \"#utility.yul\":16857:16860   */\n      dup3\n        /* \"#utility.yul\":16853:16865   */\n      add\n        /* \"#utility.yul\":16846:16865   */\n      swap1\n      pop\n        /* \"#utility.yul\":16505:16871   */\n      swap2\n      swap1\n      pop\n      jump\t// out\n        /* \"#utility.yul\":16877:17296   */\n    tag_119:\n        /* \"#utility.yul\":17043:17047   */\n      0x00\n        /* \"#utility.yul\":17081:17083   */\n      0x20\n        /* \"#utility.yul\":17070:17079   */\n      dup3\n        /* \"#utility.yul\":17066:17084   */\n      add\n        /* \"#utility.yul\":17058:17084   */\n      swap1\n      pop\n        /* \"#utility.yul\":17130:17139   */\n      dup2\n        /* \"#utility.yul\":17124:17128   */\n      dup2\n        /* \"#utility.yul\":17120:17140   */\n      sub\n        /* \"#utility.yul\":17116:17117   */\n      0x00\n        /* \"#utility.yul\":17105:17114   */\n      dup4\n        /* \"#utility.yul\":17101:17118   */\n      add\n        /* \"#utility.yul\":17094:17141   */\n      mstore\n        /* \"#utility.yul\":17158:17289   */\n      tag_456\n        /* \"#utility.yul\":17284:17288   */\n      dup2\n        /* \"#utility.yul\":17158:17289   */\n      tag_281\n      jump\t// in\n    tag_456:\n        /* \"#utility.yul\":17150:17289   */\n      swap1\n      pop\n        /* \"#utility.yul\":16877:17296   */\n      swap2\n      swap1\n      pop\n      jump\t// out\n        /* \"#utility.yul\":17302:17445   */\n    tag_282:\n        /* \"#utility.yul\":17359:17364   */\n      0x00\n        /* \"#utility.yul\":17390:17396   */\n      dup2\n        /* \"#utility.yul\":17384:17397   */\n      mload\n        /* \"#utility.yul\":17375:17397   */\n      swap1\n      pop\n        /* \"#utility.yul\":17406:17439   */\n      tag_458\n        /* \"#utility.yul\":17433:17438   */\n      dup2\n        /* \"#utility.yul\":17406:17439   */\n      tag_260\n      jump\t// in\n    tag_458:\n        /* \"#utility.yul\":17302:17445   */\n      swap3\n      swap2\n      pop\n      pop\n      jump\t// out\n        /* \"#utility.yul\":17451:17802   */\n    tag_132:\n        /* \"#utility.yul\":17521:17527   */\n      0x00\n        /* \"#utility.yul\":17570:17572   */\n      0x20\n        /* \"#utility.yul\":17558:17567   */\n      dup3\n        /* \"#utility.yul\":17549:17556   */\n      dup5\n        /* \"#utility.yul\":17545:17568   */\n      sub\n        /* \"#utility.yul\":17541:17573   */\n      slt\n        /* \"#utility.yul\":17538:17657   */\n      iszero\n      tag_460\n      jumpi\n        /* \"#utility.yul\":17576:17655   */\n      tag_461\n      tag_235\n      jump\t// in\n    tag_461:\n        /* \"#utility.yul\":17538:17657   */\n    tag_460:\n        /* \"#utility.yul\":17696:17697   */\n      0x00\n        /* \"#utility.yul\":17721:17785   */\n      tag_462\n        /* \"#utility.yul\":17777:17784   */\n      dup5\n        /* \"#utility.yul\":17768:17774   */\n      dup3\n        /* \"#utility.yul\":17757:17766   */\n      dup6\n        /* \"#utility.yul\":17753:17775   */\n      add\n        /* \"#utility.yul\":17721:17785   */\n      tag_282\n      jump\t// in\n    tag_462:\n        /* \"#utility.yul\":17711:17785   */\n      swap2\n      pop\n        /* \"#utility.yul\":17667:17795   */\n      pop\n        /* \"#utility.yul\":17451:17802   */\n      swap3\n      swap2\n      pop\n      pop\n      jump\t// out\n        /* \"#utility.yul\":17808:17983   */\n    tag_283:\n        /* \"#utility.yul\":17948:17975   */\n      0x596f7520646f6e277420686f6c64207468697320746f6b656e00000000000000\n        /* \"#utility.yul\":17944:17945   */\n      0x00\n        /* \"#utility.yul\":17936:17942   */\n      dup3\n        /* \"#utility.yul\":17932:17946   */\n      add\n        /* \"#utility.yul\":17925:17976   */\n      mstore\n        /* \"#utility.yul\":17808:17983   */\n      pop\n      jump\t// out\n        /* \"#utility.yul\":17989:18355   */\n    tag_284:\n        /* \"#utility.yul\":18131:18134   */\n      0x00\n        /* \"#utility.yul\":18152:18219   */\n      tag_465\n        /* \"#utility.yul\":18216:18218   */\n      0x19\n        /* \"#utility.yul\":18211:18214   */\n      dup4\n        /* \"#utility.yul\":18152:18219   */\n      tag_262\n      jump\t// in\n    tag_465:\n        /* \"#utility.yul\":18145:18219   */\n      swap2\n      pop\n        /* \"#utility.yul\":18228:18321   */\n      tag_466\n        /* \"#utility.yul\":18317:18320   */\n      dup3\n        /* \"#utility.yul\":18228:18321   */\n      tag_283\n      jump\t// in\n    tag_466:\n        /* \"#utility.yul\":18346:18348   */\n      0x20\n        /* \"#utility.yul\":18341:18344   */\n      dup3\n        /* \"#utility.yul\":18337:18349   */\n      add\n        /* \"#utility.yul\":18330:18349   */\n      swap1\n      pop\n        /* \"#utility.yul\":17989:18355   */\n      swap2\n      swap1\n      pop\n      jump\t// out\n        /* \"#utility.yul\":18361:18780   */\n    tag_135:\n        /* \"#utility.yul\":18527:18531   */\n      0x00\n        /* \"#utility.yul\":18565:18567   */\n      0x20\n        /* \"#utility.yul\":18554:18563   */\n      dup3\n        /* \"#utility.yul\":18550:18568   */\n      add\n        /* \"#utility.yul\":18542:18568   */\n      swap1\n      pop\n        /* \"#utility.yul\":18614:18623   */\n      dup2\n        /* \"#utility.yul\":18608:18612   */\n      dup2\n        /* \"#utility.yul\":18604:18624   */\n      sub\n        /* \"#utility.yul\":18600:18601   */\n      0x00\n        /* \"#utility.yul\":18589:18598   */\n      dup4\n        /* \"#utility.yul\":18585:18602   */\n      add\n        /* \"#utility.yul\":18578:18625   */\n      mstore\n        /* \"#utility.yul\":18642:18773   */\n      tag_468\n        /* \"#utility.yul\":18768:18772   */\n      dup2\n        /* \"#utility.yul\":18642:18773   */\n      tag_284\n      jump\t// in\n    tag_468:\n        /* \"#utility.yul\":18634:18773   */\n      swap1\n      pop\n        /* \"#utility.yul\":18361:18780   */\n      swap2\n      swap1\n      pop\n      jump\t// out\n        /* \"#utility.yul\":18786:19228   */\n    tag_139:\n        /* \"#utility.yul\":18935:18939   */\n      0x00\n        /* \"#utility.yul\":18973:18975   */\n      0x60\n        /* \"#utility.yul\":18962:18971   */\n      dup3\n        /* \"#utility.yul\":18958:18976   */\n      add\n        /* \"#utility.yul\":18950:18976   */\n      swap1\n      pop\n        /* \"#utility.yul\":18986:19057   */\n      tag_470\n        /* \"#utility.yul\":19054:19055   */\n      0x00\n        /* \"#utility.yul\":19043:19052   */\n      dup4\n        /* \"#utility.yul\":19039:19056   */\n      add\n        /* \"#utility.yul\":19030:19036   */\n      dup7\n        /* \"#utility.yul\":18986:19057   */\n      tag_250\n      jump\t// in\n    tag_470:\n        /* \"#utility.yul\":19067:19139   */\n      tag_471\n        /* \"#utility.yul\":19135:19137   */\n      0x20\n        /* \"#utility.yul\":19124:19133   */\n      dup4\n        /* \"#utility.yul\":19120:19138   */\n      add\n        /* \"#utility.yul\":19111:19117   */\n      dup6\n        /* \"#utility.yul\":19067:19139   */\n      tag_250\n      jump\t// in\n    tag_471:\n        /* \"#utility.yul\":19149:19221   */\n      tag_472\n        /* \"#utility.yul\":19217:19219   */\n      0x40\n        /* \"#utility.yul\":19206:19215   */\n      dup4\n        /* \"#utility.yul\":19202:19220   */\n      add\n        /* \"#utility.yul\":19193:19199   */\n      dup5\n        /* \"#utility.yul\":19149:19221   */\n      tag_249\n      jump\t// in\n    tag_472:\n        /* \"#utility.yul\":18786:19228   */\n      swap5\n      swap4\n      pop\n      pop\n      pop\n      pop\n      jump\t// out\n        /* \"#utility.yul\":19234:19627   */\n    tag_147:\n        /* \"#utility.yul\":19387:19391   */\n      0x00\n        /* \"#utility.yul\":19425:19427   */\n      0x20\n        /* \"#utility.yul\":19414:19423   */\n      dup3\n        /* \"#utility.yul\":19410:19428   */\n      add\n        /* \"#utility.yul\":19402:19428   */\n      swap1\n      pop\n        /* \"#utility.yul\":19474:19483   */\n      dup2\n        /* \"#utility.yul\":19468:19472   */\n      dup2\n        /* \"#utility.yul\":19464:19484   */\n      sub\n        /* \"#utility.yul\":19460:19461   */\n      0x00\n        /* \"#utility.yul\":19449:19458   */\n      dup4\n        /* \"#utility.yul\":19445:19462   */\n      add\n        /* \"#utility.yul\":19438:19485   */\n      mstore\n        /* \"#utility.yul\":19502:19620   */\n      tag_474\n        /* \"#utility.yul\":19615:19619   */\n      dup2\n        /* \"#utility.yul\":19606:19612   */\n      dup5\n        /* \"#utility.yul\":19598:19604   */\n      dup7\n        /* \"#utility.yul\":19502:19620   */\n      tag_279\n      jump\t// in\n    tag_474:\n        /* \"#utility.yul\":19494:19620   */\n      swap1\n      pop\n        /* \"#utility.yul\":19234:19627   */\n      swap4\n      swap3\n      pop\n      pop\n      pop\n      jump\t// out\n        /* \"#utility.yul\":19633:19803   */\n    tag_285:\n        /* \"#utility.yul\":19773:19795   */\n      0x496e76616c6964206c6f636b20706572696f642e000000000000000000000000\n        /* \"#utility.yul\":19769:19770   */\n      0x00\n        /* \"#utility.yul\":19761:19767   */\n      dup3\n        /* \"#utility.yul\":19757:19771   */\n      add\n        /* \"#utility.yul\":19750:19796   */\n      mstore\n        /* \"#utility.yul\":19633:19803   */\n      pop\n      jump\t// out\n        /* \"#utility.yul\":19809:20175   */\n    tag_286:\n        /* \"#utility.yul\":19951:19954   */\n      0x00\n        /* \"#utility.yul\":19972:20039   */\n      tag_477\n        /* \"#utility.yul\":20036:20038   */\n      0x14\n        /* \"#utility.yul\":20031:20034   */\n      dup4\n        /* \"#utility.yul\":19972:20039   */\n      tag_262\n      jump\t// in\n    tag_477:\n        /* \"#utility.yul\":19965:20039   */\n      swap2\n      pop\n        /* \"#utility.yul\":20048:20141   */\n      tag_478\n        /* \"#utility.yul\":20137:20140   */\n      dup3\n        /* \"#utility.yul\":20048:20141   */\n      tag_285\n      jump\t// in\n    tag_478:\n        /* \"#utility.yul\":20166:20168   */\n      0x20\n        /* \"#utility.yul\":20161:20164   */\n      dup3\n        /* \"#utility.yul\":20157:20169   */\n      add\n        /* \"#utility.yul\":20150:20169   */\n      swap1\n      pop\n        /* \"#utility.yul\":19809:20175   */\n      swap2\n      swap1\n      pop\n      jump\t// out\n        /* \"#utility.yul\":20181:20600   */\n    tag_160:\n        /* \"#utility.yul\":20347:20351   */\n      0x00\n        /* \"#utility.yul\":20385:20387   */\n      0x20\n        /* \"#utility.yul\":20374:20383   */\n      dup3\n        /* \"#utility.yul\":20370:20388   */\n      add\n        /* \"#utility.yul\":20362:20388   */\n      swap1\n      pop\n        /* \"#utility.yul\":20434:20443   */\n      dup2\n        /* \"#utility.yul\":20428:20432   */\n      dup2\n        /* \"#utility.yul\":20424:20444   */\n      sub\n        /* \"#utility.yul\":20420:20421   */\n      0x00\n        /* \"#utility.yul\":20409:20418   */\n      dup4\n        /* \"#utility.yul\":20405:20422   */\n      add\n        /* \"#utility.yul\":20398:20445   */\n      mstore\n        /* \"#utility.yul\":20462:20593   */\n      tag_480\n        /* \"#utility.yul\":20588:20592   */\n      dup2\n        /* \"#utility.yul\":20462:20593   */\n      tag_286\n      jump\t// in\n    tag_480:\n        /* \"#utility.yul\":20454:20593   */\n      swap1\n      pop\n        /* \"#utility.yul\":20181:20600   */\n      swap2\n      swap1\n      pop\n      jump\t// out\n        /* \"#utility.yul\":20606:20778   */\n    tag_287:\n        /* \"#utility.yul\":20746:20770   */\n      0x4e6f742061626c6520746f20756e6c6f636b2079657400000000000000000000\n        /* \"#utility.yul\":20742:20743   */\n      0x00\n        /* \"#utility.yul\":20734:20740   */\n      dup3\n        /* \"#utility.yul\":20730:20744   */\n      add\n        /* \"#utility.yul\":20723:20771   */\n      mstore\n        /* \"#utility.yul\":20606:20778   */\n      pop\n      jump\t// out\n        /* \"#utility.yul\":20784:21150   */\n    tag_288:\n        /* \"#utility.yul\":20926:20929   */\n      0x00\n        /* \"#utility.yul\":20947:21014   */\n      tag_483\n        /* \"#utility.yul\":21011:21013   */\n      0x16\n        /* \"#utility.yul\":21006:21009   */\n      dup4\n        /* \"#utility.yul\":20947:21014   */\n      tag_262\n      jump\t// in\n    tag_483:\n        /* \"#utility.yul\":20940:21014   */\n      swap2\n      pop\n        /* \"#utility.yul\":21023:21116   */\n      tag_484\n        /* \"#utility.yul\":21112:21115   */\n      dup3\n        /* \"#utility.yul\":21023:21116   */\n      tag_287\n      jump\t// in\n    tag_484:\n        /* \"#utility.yul\":21141:21143   */\n      0x20\n        /* \"#utility.yul\":21136:21139   */\n      dup3\n        /* \"#utility.yul\":21132:21144   */\n      add\n        /* \"#utility.yul\":21125:21144   */\n      swap1\n      pop\n        /* \"#utility.yul\":20784:21150   */\n      swap2\n      swap1\n      pop\n      jump\t// out\n        /* \"#utility.yul\":21156:21575   */\n    tag_185:\n        /* \"#utility.yul\":21322:21326   */\n      0x00\n        /* \"#utility.yul\":21360:21362   */\n      0x20\n        /* \"#utility.yul\":21349:21358   */\n      dup3\n        /* \"#utility.yul\":21345:21363   */\n      add\n        /* \"#utility.yul\":21337:21363   */\n      swap1\n      pop\n        /* \"#utility.yul\":21409:21418   */\n      dup2\n        /* \"#utility.yul\":21403:21407   */\n      dup2\n        /* \"#utility.yul\":21399:21419   */\n      sub\n        /* \"#utility.yul\":21395:21396   */\n      0x00\n        /* \"#utility.yul\":21384:21393   */\n      dup4\n        /* \"#utility.yul\":21380:21397   */\n      add\n        /* \"#utility.yul\":21373:21420   */\n      mstore\n        /* \"#utility.yul\":21437:21568   */\n      tag_486\n        /* \"#utility.yul\":21563:21567   */\n      dup2\n        /* \"#utility.yul\":21437:21568   */\n      tag_288\n      jump\t// in\n    tag_486:\n        /* \"#utility.yul\":21429:21568   */\n      swap1\n      pop\n        /* \"#utility.yul\":21156:21575   */\n      swap2\n      swap1\n      pop\n      jump\t// out\n        /* \"#utility.yul\":21581:21806   */\n    tag_289:\n        /* \"#utility.yul\":21721:21755   */\n      0x4f776e61626c653a206e6577206f776e657220697320746865207a65726f2061\n        /* \"#utility.yul\":21717:21718   */\n      0x00\n        /* \"#utility.yul\":21709:21715   */\n      dup3\n        /* \"#utility.yul\":21705:21719   */\n      add\n        /* \"#utility.yul\":21698:21756   */\n      mstore\n        /* \"#utility.yul\":21790:21798   */\n      0x6464726573730000000000000000000000000000000000000000000000000000\n        /* \"#utility.yul\":21785:21787   */\n      0x20\n        /* \"#utility.yul\":21777:21783   */\n      dup3\n        /* \"#utility.yul\":21773:21788   */\n      add\n        /* \"#utility.yul\":21766:21799   */\n      mstore\n        /* \"#utility.yul\":21581:21806   */\n      pop\n      jump\t// out\n        /* \"#utility.yul\":21812:22178   */\n    tag_290:\n        /* \"#utility.yul\":21954:21957   */\n      0x00\n        /* \"#utility.yul\":21975:22042   */\n      tag_489\n        /* \"#utility.yul\":22039:22041   */\n      0x26\n        /* \"#utility.yul\":22034:22037   */\n      dup4\n        /* \"#utility.yul\":21975:22042   */\n      tag_262\n      jump\t// in\n    tag_489:\n        /* \"#utility.yul\":21968:22042   */\n      swap2\n      pop\n        /* \"#utility.yul\":22051:22144   */\n      tag_490\n        /* \"#utility.yul\":22140:22143   */\n      dup3\n        /* \"#utility.yul\":22051:22144   */\n      tag_289\n      jump\t// in\n    tag_490:\n        /* \"#utility.yul\":22169:22171   */\n      0x40\n        /* \"#utility.yul\":22164:22167   */\n      dup3\n        /* \"#utility.yul\":22160:22172   */\n      add\n        /* \"#utility.yul\":22153:22172   */\n      swap1\n      pop\n        /* \"#utility.yul\":21812:22178   */\n      swap2\n      swap1\n      pop\n      jump\t// out\n        /* \"#utility.yul\":22184:22603   */\n    tag_213:\n        /* \"#utility.yul\":22350:22354   */\n      0x00\n        /* \"#utility.yul\":22388:22390   */\n      0x20\n        /* \"#utility.yul\":22377:22386   */\n      dup3\n        /* \"#utility.yul\":22373:22391   */\n      add\n        /* \"#utility.yul\":22365:22391   */\n      swap1\n      pop\n        /* \"#utility.yul\":22437:22446   */\n      dup2\n        /* \"#utility.yul\":22431:22435   */\n      dup2\n        /* \"#utility.yul\":22427:22447   */\n      sub\n        /* \"#utility.yul\":22423:22424   */\n      0x00\n        /* \"#utility.yul\":22412:22421   */\n      dup4\n        /* \"#utility.yul\":22408:22425   */\n      add\n        /* \"#utility.yul\":22401:22448   */\n      mstore\n        /* \"#utility.yul\":22465:22596   */\n      tag_492\n        /* \"#utility.yul\":22591:22595   */\n      dup2\n        /* \"#utility.yul\":22465:22596   */\n      tag_290\n      jump\t// in\n    tag_492:\n        /* \"#utility.yul\":22457:22596   */\n      swap1\n      pop\n        /* \"#utility.yul\":22184:22603   */\n      swap2\n      swap1\n      pop\n      jump\t// out\n        /* \"#utility.yul\":22609:22957   */\n    tag_222:\n        /* \"#utility.yul\":22649:22656   */\n      0x00\n        /* \"#utility.yul\":22672:22692   */\n      tag_494\n        /* \"#utility.yul\":22690:22691   */\n      dup3\n        /* \"#utility.yul\":22672:22692   */\n      tag_246\n      jump\t// in\n    tag_494:\n        /* \"#utility.yul\":22667:22692   */\n      swap2\n      pop\n        /* \"#utility.yul\":22706:22726   */\n      tag_495\n        /* \"#utility.yul\":22724:22725   */\n      dup4\n        /* \"#utility.yul\":22706:22726   */\n      tag_246\n      jump\t// in\n    tag_495:\n        /* \"#utility.yul\":22701:22726   */\n      swap3\n      pop\n        /* \"#utility.yul\":22894:22895   */\n      dup2\n        /* \"#utility.yul\":22826:22892   */\n      0xffffffffffffffffffffffffffffffffffffffffffffffffffffffffffffffff\n        /* \"#utility.yul\":22822:22896   */\n      div\n        /* \"#utility.yul\":22819:22820   */\n      dup4\n        /* \"#utility.yul\":22816:22897   */\n      gt\n        /* \"#utility.yul\":22811:22812   */\n      dup3\n        /* \"#utility.yul\":22804:22813   */\n      iszero\n        /* \"#utility.yul\":22797:22814   */\n      iszero\n        /* \"#utility.yul\":22793:22898   */\n      and\n        /* \"#utility.yul\":22790:22921   */\n      iszero\n      tag_496\n      jumpi\n        /* \"#utility.yul\":22901:22919   */\n      tag_497\n      tag_271\n      jump\t// in\n    tag_497:\n        /* \"#utility.yul\":22790:22921   */\n    tag_496:\n        /* \"#utility.yul\":22949:22950   */\n      dup3\n        /* \"#utility.yul\":22946:22947   */\n      dup3\n        /* \"#utility.yul\":22942:22951   */\n      mul\n        /* \"#utility.yul\":22931:22951   */\n      swap1\n      pop\n        /* \"#utility.yul\":22609:22957   */\n      swap3\n      swap2\n      pop\n      pop\n      jump\t// out\n        /* \"#utility.yul\":22963:23143   */\n    tag_291:\n        /* \"#utility.yul\":23011:23088   */\n      0x4e487b7100000000000000000000000000000000000000000000000000000000\n        /* \"#utility.yul\":23008:23009   */\n      0x00\n        /* \"#utility.yul\":23001:23089   */\n      mstore\n        /* \"#utility.yul\":23108:23112   */\n      0x12\n        /* \"#utility.yul\":23105:23106   */\n      0x04\n        /* \"#utility.yul\":23098:23113   */\n      mstore\n        /* \"#utility.yul\":23132:23136   */\n      0x24\n        /* \"#utility.yul\":23129:23130   */\n      0x00\n        /* \"#utility.yul\":23122:23137   */\n      revert\n        /* \"#utility.yul\":23149:23334   */\n    tag_224:\n        /* \"#utility.yul\":23189:23190   */\n      0x00\n        /* \"#utility.yul\":23206:23226   */\n      tag_500\n        /* \"#utility.yul\":23224:23225   */\n      dup3\n        /* \"#utility.yul\":23206:23226   */\n      tag_246\n      jump\t// in\n    tag_500:\n        /* \"#utility.yul\":23201:23226   */\n      swap2\n      pop\n        /* \"#utility.yul\":23240:23260   */\n      tag_501\n        /* \"#utility.yul\":23258:23259   */\n      dup4\n        /* \"#utility.yul\":23240:23260   */\n      tag_246\n      jump\t// in\n    tag_501:\n        /* \"#utility.yul\":23235:23260   */\n      swap3\n      pop\n        /* \"#utility.yul\":23279:23280   */\n      dup3\n        /* \"#utility.yul\":23269:23304   */\n      tag_502\n      jumpi\n        /* \"#utility.yul\":23284:23302   */\n      tag_503\n      tag_291\n      jump\t// in\n    tag_503:\n        /* \"#utility.yul\":23269:23304   */\n    tag_502:\n        /* \"#utility.yul\":23326:23327   */\n      dup3\n        /* \"#utility.yul\":23323:23324   */\n      dup3\n        /* \"#utility.yul\":23319:23328   */\n      div\n        /* \"#utility.yul\":23314:23328   */\n      swap1\n      pop\n        /* \"#utility.yul\":23149:23334   */\n      swap3\n      swap2\n      pop\n      pop\n      jump\t// out\n        /* \"#utility.yul\":23340:23522   */\n    tag_292:\n        /* \"#utility.yul\":23480:23514   */\n      0x4f776e61626c653a2063616c6c6572206973206e6f7420746865206f776e6572\n        /* \"#utility.yul\":23476:23477   */\n      0x00\n        /* \"#utility.yul\":23468:23474   */\n      dup3\n        /* \"#utility.yul\":23464:23478   */\n      add\n        /* \"#utility.yul\":23457:23515   */\n      mstore\n        /* \"#utility.yul\":23340:23522   */\n      pop\n      jump\t// out\n        /* \"#utility.yul\":23528:23894   */\n    tag_293:\n        /* \"#utility.yul\":23670:23673   */\n      0x00\n        /* \"#utility.yul\":23691:23758   */\n      tag_506\n        /* \"#utility.yul\":23755:23757   */\n      0x20\n        /* \"#utility.yul\":23750:23753   */\n      dup4\n        /* \"#utility.yul\":23691:23758   */\n      tag_262\n      jump\t// in\n    tag_506:\n        /* \"#utility.yul\":23684:23758   */\n      swap2\n      pop\n        /* \"#utility.yul\":23767:23860   */\n      tag_507\n        /* \"#utility.yul\":23856:23859   */\n      dup3\n        /* \"#utility.yul\":23767:23860   */\n      tag_292\n      jump\t// in\n    tag_507:\n        /* \"#utility.yul\":23885:23887   */\n      0x20\n        /* \"#utility.yul\":23880:23883   */\n      dup3\n        /* \"#utility.yul\":23876:23888   */\n      add\n        /* \"#utility.yul\":23869:23888   */\n      swap1\n      pop\n        /* \"#utility.yul\":23528:23894   */\n      swap2\n      swap1\n      pop\n      jump\t// out\n        /* \"#utility.yul\":23900:24319   */\n    tag_231:\n        /* \"#utility.yul\":24066:24070   */\n      0x00\n        /* \"#utility.yul\":24104:24106   */\n      0x20\n        /* \"#utility.yul\":24093:24102   */\n      dup3\n        /* \"#utility.yul\":24089:24107   */\n      add\n        /* \"#utility.yul\":24081:24107   */\n      swap1\n      pop\n        /* \"#utility.yul\":24153:24162   */\n      dup2\n        /* \"#utility.yul\":24147:24151   */\n      dup2\n        /* \"#utility.yul\":24143:24163   */\n      sub\n        /* \"#utility.yul\":24139:24140   */\n      0x00\n        /* \"#utility.yul\":24128:24137   */\n      dup4\n        /* \"#utility.yul\":24124:24141   */\n      add\n        /* \"#utility.yul\":24117:24164   */\n      mstore\n        /* \"#utility.yul\":24181:24312   */\n      tag_509\n        /* \"#utility.yul\":24307:24311   */\n      dup2\n        /* \"#utility.yul\":24181:24312   */\n      tag_293\n      jump\t// in\n    tag_509:\n        /* \"#utility.yul\":24173:24312   */\n      swap1\n      pop\n        /* \"#utility.yul\":23900:24319   */\n      swap2\n      swap1\n      pop\n      jump\t// out\n\n    auxdata: 0xa264697066735822122025014697c686ac0c6228e9856d371dc8b842bf1022f0d0f860114ad56017ded464736f6c63430008100033\n}\n",
				"bytecode": {
					"linkReferences": {},
					"object": "60806040523480156200001157600080fd5b5060405162002c6938038062002c6983398181016040528101906200003791906200066a565b620000576200004b6200029f60201b60201c565b620002a760201b60201c565b6001808190555060008411620000a4576040517f08c379a00000000000000000000000000000000000000000000000000000000081526004016200009b90620007e3565b60405180910390fd5b60005b86518110156200028457858181518110620000c757620000c662000805565b5b602002602001015160046000898481518110620000e957620000e862000805565b5b602002602001015173ffffffffffffffffffffffffffffffffffffffff1673ffffffffffffffffffffffffffffffffffffffff16815260200190815260200160002060000160006101000a81548173ffffffffffffffffffffffffffffffffffffffff021916908373ffffffffffffffffffffffffffffffffffffffff16021790555083818151811062000182576200018162000805565b5b602002602001015160046000898481518110620001a457620001a362000805565b5b602002602001015173ffffffffffffffffffffffffffffffffffffffff1673ffffffffffffffffffffffffffffffffffffffff1681526020019081526020016000206001018190555082818151811062000203576200020262000805565b5b60200260200101516004600089848151811062000225576200022462000805565b5b602002602001015173ffffffffffffffffffffffffffffffffffffffff1673ffffffffffffffffffffffffffffffffffffffff1681526020019081526020016000206002018190555080806200027b9062000863565b915050620000a7565b508360028190555080600581905550505050505050620008b0565b600033905090565b60008060009054906101000a900473ffffffffffffffffffffffffffffffffffffffff169050816000806101000a81548173ffffffffffffffffffffffffffffffffffffffff021916908373ffffffffffffffffffffffffffffffffffffffff1602179055508173ffffffffffffffffffffffffffffffffffffffff168173ffffffffffffffffffffffffffffffffffffffff167f8be0079c531659141344cd1fd0a4f28419497f9722a3daafe3b4186f6b6457e060405160405180910390a35050565b6000604051905090565b600080fd5b600080fd5b600080fd5b6000601f19601f8301169050919050565b7f4e487b7100000000000000000000000000000000000000000000000000000000600052604160045260246000fd5b620003cf8262000384565b810181811067ffffffffffffffff82111715620003f157620003f062000395565b5b80604052505050565b6000620004066200036b565b9050620004148282620003c4565b919050565b600067ffffffffffffffff82111562000437576200043662000395565b5b602082029050602081019050919050565b600080fd5b600073ffffffffffffffffffffffffffffffffffffffff82169050919050565b60006200047a826200044d565b9050919050565b6200048c816200046d565b81146200049857600080fd5b50565b600081519050620004ac8162000481565b92915050565b6000620004c9620004c38462000419565b620003fa565b90508083825260208201905060208402830185811115620004ef57620004ee62000448565b5b835b818110156200051c57806200050788826200049b565b845260208401935050602081019050620004f1565b5050509392505050565b600082601f8301126200053e576200053d6200037f565b5b815162000550848260208601620004b2565b91505092915050565b6000819050919050565b6200056e8162000559565b81146200057a57600080fd5b50565b6000815190506200058e8162000563565b92915050565b600067ffffffffffffffff821115620005b257620005b162000395565b5b602082029050602081019050919050565b6000620005da620005d48462000594565b620003fa565b905080838252602082019050602084028301858111156200060057620005ff62000448565b5b835b818110156200062d57806200061888826200057d565b84526020840193505060208101905062000602565b5050509392505050565b600082601f8301126200064f576200064e6200037f565b5b815162000661848260208601620005c3565b91505092915050565b60008060008060008060c087890312156200068a576200068962000375565b5b600087015167ffffffffffffffff811115620006ab57620006aa6200037a565b5b620006b989828a0162000526565b965050602087015167ffffffffffffffff811115620006dd57620006dc6200037a565b5b620006eb89828a0162000526565b9550506040620006fe89828a016200057d565b945050606087015167ffffffffffffffff8111156200072257620007216200037a565b5b6200073089828a0162000637565b935050608087015167ffffffffffffffff8111156200075457620007536200037a565b5b6200076289828a0162000637565b92505060a06200077589828a016200057d565b9150509295509295509295565b600082825260208201905092915050565b7f496e76616c6964206c6f636b20706572696f6400000000000000000000000000600082015250565b6000620007cb60138362000782565b9150620007d88262000793565b602082019050919050565b60006020820190508181036000830152620007fe81620007bc565b9050919050565b7f4e487b7100000000000000000000000000000000000000000000000000000000600052603260045260246000fd5b7f4e487b7100000000000000000000000000000000000000000000000000000000600052601160045260246000fd5b6000620008708262000559565b91507fffffffffffffffffffffffffffffffffffffffffffffffffffffffffffffffff8203620008a557620008a462000834565b5b600182019050919050565b6123a980620008c06000396000f3fe608060405234801561001057600080fd5b50600436106100b45760003560e01c8063779972da11610071578063779972da1461017d5780638da5cb5b146101995780639f3625f0146101b7578063c69d1923146101d3578063e9545b92146101f1578063f2fde38b14610223576100b4565b80630520537f146100b95780631902732e146100d557806320281a98146100f15780633fd8b02f146101215780635b1a4c241461013f578063715018a614610173575b600080fd5b6100d360048036038101906100ce919061182f565b61023f565b005b6100ef60048036038101906100ea919061182f565b610740565b005b61010b600480360381019061010691906118c5565b610bee565b6040516101189190611901565b60405180910390f35b610129610c0e565b6040516101369190611901565b60405180910390f35b610159600480360381019061015491906118c5565b610c14565b60405161016a9594939291906119a5565b60405180910390f35b61017b610c97565b005b610197600480360381019061019291906118c5565b610cab565b005b6101a1610d37565b6040516101ae91906119f8565b60405180910390f35b6101d160048036038101906101cc919061182f565b610d60565b005b6101db61136f565b6040516101e89190611901565b60405180910390f35b61020b60048036038101906102069190611a13565b611375565b60405161021a93929190611a61565b60405180910390f35b61023d60048036038101906102389190611ac4565b6113bf565b005b61025e3373ffffffffffffffffffffffffffffffffffffffff16611442565b1561029e576040517f08c379a000000000000000000000000000000000000000000000000000000000815260040161029590611b4e565b60405180910390fd5b3273ffffffffffffffffffffffffffffffffffffffff163373ffffffffffffffffffffffffffffffffffffffff161461030c576040517f08c379a000000000000000000000000000000000000000000000000000000000815260040161030390611bba565b60405180910390fd5b60008383905011610352576040517f08c379a000000000000000000000000000000000000000000000000000000000815260040161034990611c26565b60405180910390fd5b600080600090505b848490508110156106e75760006003600087878581811061037e5761037d611c46565b5b9050602002013581526020019081526020016000206040518060a00160405290816000820160009054906101000a900473ffffffffffffffffffffffffffffffffffffffff1673ffffffffffffffffffffffffffffffffffffffff1673ffffffffffffffffffffffffffffffffffffffff16815260200160018201548152602001600282015481526020016003820160009054906101000a900460ff161515151581526020016003820160019054906101000a900473ffffffffffffffffffffffffffffffffffffffff1673ffffffffffffffffffffffffffffffffffffffff1673ffffffffffffffffffffffffffffffffffffffff168152505090503373ffffffffffffffffffffffffffffffffffffffff16816000015173ffffffffffffffffffffffffffffffffffffffff16146104ed576040517f08c379a00000000000000000000000000000000000000000000000000000000081526004016104e490611cc1565b60405180910390fd5b4260025482602001516105009190611d10565b10610540576040517f08c379a000000000000000000000000000000000000000000000000000000000815260040161053790611d90565b60405180910390fd5b806060015115610585576040517f08c379a000000000000000000000000000000000000000000000000000000000815260040161057c90611dfc565b60405180910390fd5b60006105aa87878581811061059d5761059c611c46565b5b9050602002013586611465565b905060008260400151826105be9190611e1c565b9050600460008773ffffffffffffffffffffffffffffffffffffffff1673ffffffffffffffffffffffffffffffffffffffff16815260200190815260200160002060000160009054906101000a900473ffffffffffffffffffffffffffffffffffffffff1673ffffffffffffffffffffffffffffffffffffffff166340c10f1933836040518363ffffffff1660e01b815260040161065d929190611e50565b600060405180830381600087803b15801561067757600080fd5b505af115801561068b573d6000803e3d6000fd5b50505050808561069b9190611d10565b945081600360008a8a888181106106b5576106b4611c46565b5b9050602002013581526020019081526020016000206002018190555050505080806106df90611e79565b91505061035a565b503373ffffffffffffffffffffffffffffffffffffffff167f37826be3c26dbad83731f4b985f22fa9ef86b6d1974cd77208332b7f1f283c0c85858460405161073293929190611f3c565b60405180910390a250505050565b61075f3373ffffffffffffffffffffffffffffffffffffffff16611442565b1561079f576040517f08c379a000000000000000000000000000000000000000000000000000000000815260040161079690611b4e565b60405180910390fd5b3273ffffffffffffffffffffffffffffffffffffffff163373ffffffffffffffffffffffffffffffffffffffff161461080d576040517f08c379a000000000000000000000000000000000000000000000000000000000815260040161080490611bba565b60405180910390fd5b600260015403610852576040517f08c379a000000000000000000000000000000000000000000000000000000000815260040161084990611fba565b60405180910390fd5b6002600181905550600083839050116108a0576040517f08c379a000000000000000000000000000000000000000000000000000000000815260040161089790611c26565b60405180910390fd5b60005b83839050811015610b91573373ffffffffffffffffffffffffffffffffffffffff168273ffffffffffffffffffffffffffffffffffffffff16636352211e8686858181106108f4576108f3611c46565b5b905060200201356040518263ffffffff1660e01b81526004016109179190611901565b602060405180830381865afa158015610934573d6000803e3d6000fd5b505050506040513d601f19601f820116820180604052508101906109589190611fef565b73ffffffffffffffffffffffffffffffffffffffff16146109ae576040517f08c379a00000000000000000000000000000000000000000000000000000000081526004016109a590612068565b60405180910390fd5b8173ffffffffffffffffffffffffffffffffffffffff166323b872dd33308787868181106109df576109de611c46565b5b905060200201356040518463ffffffff1660e01b8152600401610a0493929190612088565b600060405180830381600087803b158015610a1e57600080fd5b505af1158015610a32573d6000803e3d6000fd5b505050506040518060a001604052803373ffffffffffffffffffffffffffffffffffffffff168152602001428152602001600081526020016000151581526020018373ffffffffffffffffffffffffffffffffffffffff1681525060036000868685818110610aa457610aa3611c46565b5b90506020020135815260200190815260200160002060008201518160000160006101000a81548173ffffffffffffffffffffffffffffffffffffffff021916908373ffffffffffffffffffffffffffffffffffffffff160217905550602082015181600101556040820151816002015560608201518160030160006101000a81548160ff02191690831515021790555060808201518160030160016101000a81548173ffffffffffffffffffffffffffffffffffffffff021916908373ffffffffffffffffffffffffffffffffffffffff1602179055509050508080610b8990611e79565b9150506108a3565b503373ffffffffffffffffffffffffffffffffffffffff167f458be0227bccc9e803dec79bd16767eeaf9925d2ce708eeed7ae1f3621f968f98484604051610bda9291906120bf565b60405180910390a260018081905550505050565b600060036000838152602001908152602001600020600201549050919050565b60025481565b60036020528060005260406000206000915090508060000160009054906101000a900473ffffffffffffffffffffffffffffffffffffffff16908060010154908060020154908060030160009054906101000a900460ff16908060030160019054906101000a900473ffffffffffffffffffffffffffffffffffffffff16905085565b610c9f611606565b610ca96000611684565b565b610cb3611606565b60008111610cf6576040517f08c379a0000000000000000000000000000000000000000000000000000000008152600401610ced9061212f565b60405180910390fd5b806002819055507f8249ec545e68f6f1e1230133ca48c704d831a7f8e635ded80f3dd9e99b09bb2f81604051610d2c9190611901565b60405180910390a150565b60008060009054906101000a900473ffffffffffffffffffffffffffffffffffffffff16905090565b610d7f3373ffffffffffffffffffffffffffffffffffffffff16611442565b15610dbf576040517f08c379a0000000000000000000000000000000000000000000000000000000008152600401610db690611b4e565b60405180910390fd5b3273ffffffffffffffffffffffffffffffffffffffff163373ffffffffffffffffffffffffffffffffffffffff1614610e2d576040517f08c379a0000000000000000000000000000000000000000000000000000000008152600401610e2490611bba565b60405180910390fd5b600260015403610e72576040517f08c379a0000000000000000000000000000000000000000000000000000000008152600401610e6990611fba565b60405180910390fd5b600260018190555060008383905011610ec0576040517f08c379a0000000000000000000000000000000000000000000000000000000008152600401610eb790611c26565b60405180910390fd5b60005b8383905081101561131257600060036000868685818110610ee757610ee6611c46565b5b9050602002013581526020019081526020016000206040518060a00160405290816000820160009054906101000a900473ffffffffffffffffffffffffffffffffffffffff1673ffffffffffffffffffffffffffffffffffffffff1673ffffffffffffffffffffffffffffffffffffffff16815260200160018201548152602001600282015481526020016003820160009054906101000a900460ff161515151581526020016003820160019054906101000a900473ffffffffffffffffffffffffffffffffffffffff1673ffffffffffffffffffffffffffffffffffffffff1673ffffffffffffffffffffffffffffffffffffffff168152505090503373ffffffffffffffffffffffffffffffffffffffff16816000015173ffffffffffffffffffffffffffffffffffffffff1614611056576040517f08c379a000000000000000000000000000000000000000000000000000000000815260040161104d90611cc1565b60405180910390fd5b4260025482602001516110699190611d10565b106110a9576040517f08c379a00000000000000000000000000000000000000000000000000000000081526004016110a09061219b565b60405180910390fd5b8060600151156110ee576040517f08c379a00000000000000000000000000000000000000000000000000000000081526004016110e590611dfc565b60405180910390fd5b8273ffffffffffffffffffffffffffffffffffffffff166323b872dd303388888781811061111f5761111e611c46565b5b905060200201356040518463ffffffff1660e01b815260040161114493929190612088565b600060405180830381600087803b15801561115e57600080fd5b505af1158015611172573d6000803e3d6000fd5b50505050600061119b86868581811061118e5761118d611c46565b5b9050602002013585611465565b905060008260400151826111af9190611e1c565b9050600460008673ffffffffffffffffffffffffffffffffffffffff1673ffffffffffffffffffffffffffffffffffffffff16815260200190815260200160002060000160009054906101000a900473ffffffffffffffffffffffffffffffffffffffff1673ffffffffffffffffffffffffffffffffffffffff166340c10f1933836040518363ffffffff1660e01b815260040161124e929190611e50565b600060405180830381600087803b15801561126857600080fd5b505af115801561127c573d6000803e3d6000fd5b50505050816003600089898881811061129857611297611c46565b5b905060200201358152602001908152602001600020600201819055506001600360008989888181106112cd576112cc611c46565b5b90506020020135815260200190815260200160002060030160006101000a81548160ff021916908315150217905550505050808061130a90611e79565b915050610ec3565b503373ffffffffffffffffffffffffffffffffffffffff167f5cb48022479b9ac3bfb10a27965dc010acffc9fc1bc9a52f0b18975b944b54ca848460405161135b9291906120bf565b60405180910390a260018081905550505050565b60055481565b60046020528060005260406000206000915090508060000160009054906101000a900473ffffffffffffffffffffffffffffffffffffffff16908060010154908060020154905083565b6113c7611606565b600073ffffffffffffffffffffffffffffffffffffffff168173ffffffffffffffffffffffffffffffffffffffff1603611436576040517f08c379a000000000000000000000000000000000000000000000000000000000815260040161142d9061222d565b60405180910390fd5b61143f81611684565b50565b6000808273ffffffffffffffffffffffffffffffffffffffff163b119050919050565b600080600360008581526020019081526020016000206040518060a00160405290816000820160009054906101000a900473ffffffffffffffffffffffffffffffffffffffff1673ffffffffffffffffffffffffffffffffffffffff1673ffffffffffffffffffffffffffffffffffffffff16815260200160018201548152602001600282015481526020016003820160009054906101000a900460ff161515151581526020016003820160019054906101000a900473ffffffffffffffffffffffffffffffffffffffff1673ffffffffffffffffffffffffffffffffffffffff1673ffffffffffffffffffffffffffffffffffffffff1681525050905060008160200151426115759190611e1c565b9050600060025482101561158f5760009350505050611600565b600554600254836115a09190611e1c565b600460008873ffffffffffffffffffffffffffffffffffffffff1673ffffffffffffffffffffffffffffffffffffffff168152602001908152602001600020600101546115ed919061224d565b6115f791906122d6565b90508093505050505b92915050565b61160e611748565b73ffffffffffffffffffffffffffffffffffffffff1661162c610d37565b73ffffffffffffffffffffffffffffffffffffffff1614611682576040517f08c379a000000000000000000000000000000000000000000000000000000000815260040161167990612353565b60405180910390fd5b565b60008060009054906101000a900473ffffffffffffffffffffffffffffffffffffffff169050816000806101000a81548173ffffffffffffffffffffffffffffffffffffffff021916908373ffffffffffffffffffffffffffffffffffffffff1602179055508173ffffffffffffffffffffffffffffffffffffffff168173ffffffffffffffffffffffffffffffffffffffff167f8be0079c531659141344cd1fd0a4f28419497f9722a3daafe3b4186f6b6457e060405160405180910390a35050565b600033905090565b600080fd5b600080fd5b600080fd5b600080fd5b600080fd5b60008083601f84011261177f5761177e61175a565b5b8235905067ffffffffffffffff81111561179c5761179b61175f565b5b6020830191508360208202830111156117b8576117b7611764565b5b9250929050565b600073ffffffffffffffffffffffffffffffffffffffff82169050919050565b60006117ea826117bf565b9050919050565b60006117fc826117df565b9050919050565b61180c816117f1565b811461181757600080fd5b50565b60008135905061182981611803565b92915050565b60008060006040848603121561184857611847611750565b5b600084013567ffffffffffffffff81111561186657611865611755565b5b61187286828701611769565b935093505060206118858682870161181a565b9150509250925092565b6000819050919050565b6118a28161188f565b81146118ad57600080fd5b50565b6000813590506118bf81611899565b92915050565b6000602082840312156118db576118da611750565b5b60006118e9848285016118b0565b91505092915050565b6118fb8161188f565b82525050565b600060208201905061191660008301846118f2565b92915050565b611925816117df565b82525050565b60008115159050919050565b6119408161192b565b82525050565b6000819050919050565b600061196b611966611961846117bf565b611946565b6117bf565b9050919050565b600061197d82611950565b9050919050565b600061198f82611972565b9050919050565b61199f81611984565b82525050565b600060a0820190506119ba600083018861191c565b6119c760208301876118f2565b6119d460408301866118f2565b6119e16060830185611937565b6119ee6080830184611996565b9695505050505050565b6000602082019050611a0d600083018461191c565b92915050565b600060208284031215611a2957611a28611750565b5b6000611a378482850161181a565b91505092915050565b6000611a4b82611972565b9050919050565b611a5b81611a40565b82525050565b6000606082019050611a766000830186611a52565b611a8360208301856118f2565b611a9060408301846118f2565b949350505050565b611aa1816117df565b8114611aac57600080fd5b50565b600081359050611abe81611a98565b92915050565b600060208284031215611ada57611ad9611750565b5b6000611ae884828501611aaf565b91505092915050565b600082825260208201905092915050565b7f436f6e7472616374206e6f7420616c6c6f776564000000000000000000000000600082015250565b6000611b38601483611af1565b9150611b4382611b02565b602082019050919050565b60006020820190508181036000830152611b6781611b2b565b9050919050565b7f50726f787920636f6e7472616374206e6f7420616c6c6f776564000000000000600082015250565b6000611ba4601a83611af1565b9150611baf82611b6e565b602082019050919050565b60006020820190508181036000830152611bd381611b97565b9050919050565b7f4e6f20746f6b656e730000000000000000000000000000000000000000000000600082015250565b6000611c10600983611af1565b9150611c1b82611bda565b602082019050919050565b60006020820190508181036000830152611c3f81611c03565b9050919050565b7f4e487b7100000000000000000000000000000000000000000000000000000000600052603260045260246000fd5b7f4e6f74206120746f6b656e206f776e6572000000000000000000000000000000600082015250565b6000611cab601183611af1565b9150611cb682611c75565b602082019050919050565b60006020820190508181036000830152611cda81611c9e565b9050919050565b7f4e487b7100000000000000000000000000000000000000000000000000000000600052601160045260246000fd5b6000611d1b8261188f565b9150611d268361188f565b9250828201905080821115611d3e57611d3d611ce1565b5b92915050565b7f4e6f742061626c6520746f20636c61696d207965740000000000000000000000600082015250565b6000611d7a601583611af1565b9150611d8582611d44565b602082019050919050565b60006020820190508181036000830152611da981611d6d565b9050919050565b7f416c726561647920756e6c6f636b656400000000000000000000000000000000600082015250565b6000611de6601083611af1565b9150611df182611db0565b602082019050919050565b60006020820190508181036000830152611e1581611dd9565b9050919050565b6000611e278261188f565b9150611e328361188f565b9250828203905081811115611e4a57611e49611ce1565b5b92915050565b6000604082019050611e65600083018561191c565b611e7260208301846118f2565b9392505050565b6000611e848261188f565b91507fffffffffffffffffffffffffffffffffffffffffffffffffffffffffffffffff8203611eb657611eb5611ce1565b5b600182019050919050565b600082825260208201905092915050565b600080fd5b82818337505050565b6000611eec8385611ec1565b93507f07ffffffffffffffffffffffffffffffffffffffffffffffffffffffffffffff831115611f1f57611f1e611ed2565b5b602083029250611f30838584611ed7565b82840190509392505050565b60006040820190508181036000830152611f57818587611ee0565b9050611f6660208301846118f2565b949350505050565b7f5265656e7472616e637947756172643a207265656e7472616e742063616c6c00600082015250565b6000611fa4601f83611af1565b9150611faf82611f6e565b602082019050919050565b60006020820190508181036000830152611fd381611f97565b9050919050565b600081519050611fe981611a98565b92915050565b60006020828403121561200557612004611750565b5b600061201384828501611fda565b91505092915050565b7f596f7520646f6e277420686f6c64207468697320746f6b656e00000000000000600082015250565b6000612052601983611af1565b915061205d8261201c565b602082019050919050565b6000602082019050818103600083015261208181612045565b9050919050565b600060608201905061209d600083018661191c565b6120aa602083018561191c565b6120b760408301846118f2565b949350505050565b600060208201905081810360008301526120da818486611ee0565b90509392505050565b7f496e76616c6964206c6f636b20706572696f642e000000000000000000000000600082015250565b6000612119601483611af1565b9150612124826120e3565b602082019050919050565b600060208201905081810360008301526121488161210c565b9050919050565b7f4e6f742061626c6520746f20756e6c6f636b2079657400000000000000000000600082015250565b6000612185601683611af1565b91506121908261214f565b602082019050919050565b600060208201905081810360008301526121b481612178565b9050919050565b7f4f776e61626c653a206e6577206f776e657220697320746865207a65726f206160008201527f6464726573730000000000000000000000000000000000000000000000000000602082015250565b6000612217602683611af1565b9150612222826121bb565b604082019050919050565b600060208201905081810360008301526122468161220a565b9050919050565b60006122588261188f565b91506122638361188f565b9250817fffffffffffffffffffffffffffffffffffffffffffffffffffffffffffffffff048311821515161561229c5761229b611ce1565b5b828202905092915050565b7f4e487b7100000000000000000000000000000000000000000000000000000000600052601260045260246000fd5b60006122e18261188f565b91506122ec8361188f565b9250826122fc576122fb6122a7565b5b828204905092915050565b7f4f776e61626c653a2063616c6c6572206973206e6f7420746865206f776e6572600082015250565b600061233d602083611af1565b915061234882612307565b602082019050919050565b6000602082019050818103600083015261236c81612330565b905091905056fea264697066735822122025014697c686ac0c6228e9856d371dc8b842bf1022f0d0f860114ad56017ded464736f6c63430008100033",
					"opcodes": "PUSH1 0x80 PUSH1 0x40 MSTORE CALLVALUE DUP1 ISZERO PUSH3 0x11 JUMPI PUSH1 0x0 DUP1 REVERT JUMPDEST POP PUSH1 0x40 MLOAD PUSH3 0x2C69 CODESIZE SUB DUP1 PUSH3 0x2C69 DUP4 CODECOPY DUP2 DUP2 ADD PUSH1 0x40 MSTORE DUP2 ADD SWAP1 PUSH3 0x37 SWAP2 SWAP1 PUSH3 0x66A JUMP JUMPDEST PUSH3 0x57 PUSH3 0x4B PUSH3 0x29F PUSH1 0x20 SHL PUSH1 0x20 SHR JUMP JUMPDEST PUSH3 0x2A7 PUSH1 0x20 SHL PUSH1 0x20 SHR JUMP JUMPDEST PUSH1 0x1 DUP1 DUP2 SWAP1 SSTORE POP PUSH1 0x0 DUP5 GT PUSH3 0xA4 JUMPI PUSH1 0x40 MLOAD PUSH32 0x8C379A000000000000000000000000000000000000000000000000000000000 DUP2 MSTORE PUSH1 0x4 ADD PUSH3 0x9B SWAP1 PUSH3 0x7E3 JUMP JUMPDEST PUSH1 0x40 MLOAD DUP1 SWAP2 SUB SWAP1 REVERT JUMPDEST PUSH1 0x0 JUMPDEST DUP7 MLOAD DUP2 LT ISZERO PUSH3 0x284 JUMPI DUP6 DUP2 DUP2 MLOAD DUP2 LT PUSH3 0xC7 JUMPI PUSH3 0xC6 PUSH3 0x805 JUMP JUMPDEST JUMPDEST PUSH1 0x20 MUL PUSH1 0x20 ADD ADD MLOAD PUSH1 0x4 PUSH1 0x0 DUP10 DUP5 DUP2 MLOAD DUP2 LT PUSH3 0xE9 JUMPI PUSH3 0xE8 PUSH3 0x805 JUMP JUMPDEST JUMPDEST PUSH1 0x20 MUL PUSH1 0x20 ADD ADD MLOAD PUSH20 0xFFFFFFFFFFFFFFFFFFFFFFFFFFFFFFFFFFFFFFFF AND PUSH20 0xFFFFFFFFFFFFFFFFFFFFFFFFFFFFFFFFFFFFFFFF AND DUP2 MSTORE PUSH1 0x20 ADD SWAP1 DUP2 MSTORE PUSH1 0x20 ADD PUSH1 0x0 KECCAK256 PUSH1 0x0 ADD PUSH1 0x0 PUSH2 0x100 EXP DUP2 SLOAD DUP2 PUSH20 0xFFFFFFFFFFFFFFFFFFFFFFFFFFFFFFFFFFFFFFFF MUL NOT AND SWAP1 DUP4 PUSH20 0xFFFFFFFFFFFFFFFFFFFFFFFFFFFFFFFFFFFFFFFF AND MUL OR SWAP1 SSTORE POP DUP4 DUP2 DUP2 MLOAD DUP2 LT PUSH3 0x182 JUMPI PUSH3 0x181 PUSH3 0x805 JUMP JUMPDEST JUMPDEST PUSH1 0x20 MUL PUSH1 0x20 ADD ADD MLOAD PUSH1 0x4 PUSH1 0x0 DUP10 DUP5 DUP2 MLOAD DUP2 LT PUSH3 0x1A4 JUMPI PUSH3 0x1A3 PUSH3 0x805 JUMP JUMPDEST JUMPDEST PUSH1 0x20 MUL PUSH1 0x20 ADD ADD MLOAD PUSH20 0xFFFFFFFFFFFFFFFFFFFFFFFFFFFFFFFFFFFFFFFF AND PUSH20 0xFFFFFFFFFFFFFFFFFFFFFFFFFFFFFFFFFFFFFFFF AND DUP2 MSTORE PUSH1 0x20 ADD SWAP1 DUP2 MSTORE PUSH1 0x20 ADD PUSH1 0x0 KECCAK256 PUSH1 0x1 ADD DUP2 SWAP1 SSTORE POP DUP3 DUP2 DUP2 MLOAD DUP2 LT PUSH3 0x203 JUMPI PUSH3 0x202 PUSH3 0x805 JUMP JUMPDEST JUMPDEST PUSH1 0x20 MUL PUSH1 0x20 ADD ADD MLOAD PUSH1 0x4 PUSH1 0x0 DUP10 DUP5 DUP2 MLOAD DUP2 LT PUSH3 0x225 JUMPI PUSH3 0x224 PUSH3 0x805 JUMP JUMPDEST JUMPDEST PUSH1 0x20 MUL PUSH1 0x20 ADD ADD MLOAD PUSH20 0xFFFFFFFFFFFFFFFFFFFFFFFFFFFFFFFFFFFFFFFF AND PUSH20 0xFFFFFFFFFFFFFFFFFFFFFFFFFFFFFFFFFFFFFFFF AND DUP2 MSTORE PUSH1 0x20 ADD SWAP1 DUP2 MSTORE PUSH1 0x20 ADD PUSH1 0x0 KECCAK256 PUSH1 0x2 ADD DUP2 SWAP1 SSTORE POP DUP1 DUP1 PUSH3 0x27B SWAP1 PUSH3 0x863 JUMP JUMPDEST SWAP2 POP POP PUSH3 0xA7 JUMP JUMPDEST POP DUP4 PUSH1 0x2 DUP2 SWAP1 SSTORE POP DUP1 PUSH1 0x5 DUP2 SWAP1 SSTORE POP POP POP POP POP POP POP PUSH3 0x8B0 JUMP JUMPDEST PUSH1 0x0 CALLER SWAP1 POP SWAP1 JUMP JUMPDEST PUSH1 0x0 DUP1 PUSH1 0x0 SWAP1 SLOAD SWAP1 PUSH2 0x100 EXP SWAP1 DIV PUSH20 0xFFFFFFFFFFFFFFFFFFFFFFFFFFFFFFFFFFFFFFFF AND SWAP1 POP DUP2 PUSH1 0x0 DUP1 PUSH2 0x100 EXP DUP2 SLOAD DUP2 PUSH20 0xFFFFFFFFFFFFFFFFFFFFFFFFFFFFFFFFFFFFFFFF MUL NOT AND SWAP1 DUP4 PUSH20 0xFFFFFFFFFFFFFFFFFFFFFFFFFFFFFFFFFFFFFFFF AND MUL OR SWAP1 SSTORE POP DUP2 PUSH20 0xFFFFFFFFFFFFFFFFFFFFFFFFFFFFFFFFFFFFFFFF AND DUP2 PUSH20 0xFFFFFFFFFFFFFFFFFFFFFFFFFFFFFFFFFFFFFFFF AND PUSH32 0x8BE0079C531659141344CD1FD0A4F28419497F9722A3DAAFE3B4186F6B6457E0 PUSH1 0x40 MLOAD PUSH1 0x40 MLOAD DUP1 SWAP2 SUB SWAP1 LOG3 POP POP JUMP JUMPDEST PUSH1 0x0 PUSH1 0x40 MLOAD SWAP1 POP SWAP1 JUMP JUMPDEST PUSH1 0x0 DUP1 REVERT JUMPDEST PUSH1 0x0 DUP1 REVERT JUMPDEST PUSH1 0x0 DUP1 REVERT JUMPDEST PUSH1 0x0 PUSH1 0x1F NOT PUSH1 0x1F DUP4 ADD AND SWAP1 POP SWAP2 SWAP1 POP JUMP JUMPDEST PUSH32 0x4E487B7100000000000000000000000000000000000000000000000000000000 PUSH1 0x0 MSTORE PUSH1 0x41 PUSH1 0x4 MSTORE PUSH1 0x24 PUSH1 0x0 REVERT JUMPDEST PUSH3 0x3CF DUP3 PUSH3 0x384 JUMP JUMPDEST DUP2 ADD DUP2 DUP2 LT PUSH8 0xFFFFFFFFFFFFFFFF DUP3 GT OR ISZERO PUSH3 0x3F1 JUMPI PUSH3 0x3F0 PUSH3 0x395 JUMP JUMPDEST JUMPDEST DUP1 PUSH1 0x40 MSTORE POP POP POP JUMP JUMPDEST PUSH1 0x0 PUSH3 0x406 PUSH3 0x36B JUMP JUMPDEST SWAP1 POP PUSH3 0x414 DUP3 DUP3 PUSH3 0x3C4 JUMP JUMPDEST SWAP2 SWAP1 POP JUMP JUMPDEST PUSH1 0x0 PUSH8 0xFFFFFFFFFFFFFFFF DUP3 GT ISZERO PUSH3 0x437 JUMPI PUSH3 0x436 PUSH3 0x395 JUMP JUMPDEST JUMPDEST PUSH1 0x20 DUP3 MUL SWAP1 POP PUSH1 0x20 DUP2 ADD SWAP1 POP SWAP2 SWAP1 POP JUMP JUMPDEST PUSH1 0x0 DUP1 REVERT JUMPDEST PUSH1 0x0 PUSH20 0xFFFFFFFFFFFFFFFFFFFFFFFFFFFFFFFFFFFFFFFF DUP3 AND SWAP1 POP SWAP2 SWAP1 POP JUMP JUMPDEST PUSH1 0x0 PUSH3 0x47A DUP3 PUSH3 0x44D JUMP JUMPDEST SWAP1 POP SWAP2 SWAP1 POP JUMP JUMPDEST PUSH3 0x48C DUP2 PUSH3 0x46D JUMP JUMPDEST DUP2 EQ PUSH3 0x498 JUMPI PUSH1 0x0 DUP1 REVERT JUMPDEST POP JUMP JUMPDEST PUSH1 0x0 DUP2 MLOAD SWAP1 POP PUSH3 0x4AC DUP2 PUSH3 0x481 JUMP JUMPDEST SWAP3 SWAP2 POP POP JUMP JUMPDEST PUSH1 0x0 PUSH3 0x4C9 PUSH3 0x4C3 DUP5 PUSH3 0x419 JUMP JUMPDEST PUSH3 0x3FA JUMP JUMPDEST SWAP1 POP DUP1 DUP4 DUP3 MSTORE PUSH1 0x20 DUP3 ADD SWAP1 POP PUSH1 0x20 DUP5 MUL DUP4 ADD DUP6 DUP2 GT ISZERO PUSH3 0x4EF JUMPI PUSH3 0x4EE PUSH3 0x448 JUMP JUMPDEST JUMPDEST DUP4 JUMPDEST DUP2 DUP2 LT ISZERO PUSH3 0x51C JUMPI DUP1 PUSH3 0x507 DUP9 DUP3 PUSH3 0x49B JUMP JUMPDEST DUP5 MSTORE PUSH1 0x20 DUP5 ADD SWAP4 POP POP PUSH1 0x20 DUP2 ADD SWAP1 POP PUSH3 0x4F1 JUMP JUMPDEST POP POP POP SWAP4 SWAP3 POP POP POP JUMP JUMPDEST PUSH1 0x0 DUP3 PUSH1 0x1F DUP4 ADD SLT PUSH3 0x53E JUMPI PUSH3 0x53D PUSH3 0x37F JUMP JUMPDEST JUMPDEST DUP2 MLOAD PUSH3 0x550 DUP5 DUP3 PUSH1 0x20 DUP7 ADD PUSH3 0x4B2 JUMP JUMPDEST SWAP2 POP POP SWAP3 SWAP2 POP POP JUMP JUMPDEST PUSH1 0x0 DUP2 SWAP1 POP SWAP2 SWAP1 POP JUMP JUMPDEST PUSH3 0x56E DUP2 PUSH3 0x559 JUMP JUMPDEST DUP2 EQ PUSH3 0x57A JUMPI PUSH1 0x0 DUP1 REVERT JUMPDEST POP JUMP JUMPDEST PUSH1 0x0 DUP2 MLOAD SWAP1 POP PUSH3 0x58E DUP2 PUSH3 0x563 JUMP JUMPDEST SWAP3 SWAP2 POP POP JUMP JUMPDEST PUSH1 0x0 PUSH8 0xFFFFFFFFFFFFFFFF DUP3 GT ISZERO PUSH3 0x5B2 JUMPI PUSH3 0x5B1 PUSH3 0x395 JUMP JUMPDEST JUMPDEST PUSH1 0x20 DUP3 MUL SWAP1 POP PUSH1 0x20 DUP2 ADD SWAP1 POP SWAP2 SWAP1 POP JUMP JUMPDEST PUSH1 0x0 PUSH3 0x5DA PUSH3 0x5D4 DUP5 PUSH3 0x594 JUMP JUMPDEST PUSH3 0x3FA JUMP JUMPDEST SWAP1 POP DUP1 DUP4 DUP3 MSTORE PUSH1 0x20 DUP3 ADD SWAP1 POP PUSH1 0x20 DUP5 MUL DUP4 ADD DUP6 DUP2 GT ISZERO PUSH3 0x600 JUMPI PUSH3 0x5FF PUSH3 0x448 JUMP JUMPDEST JUMPDEST DUP4 JUMPDEST DUP2 DUP2 LT ISZERO PUSH3 0x62D JUMPI DUP1 PUSH3 0x618 DUP9 DUP3 PUSH3 0x57D JUMP JUMPDEST DUP5 MSTORE PUSH1 0x20 DUP5 ADD SWAP4 POP POP PUSH1 0x20 DUP2 ADD SWAP1 POP PUSH3 0x602 JUMP JUMPDEST POP POP POP SWAP4 SWAP3 POP POP POP JUMP JUMPDEST PUSH1 0x0 DUP3 PUSH1 0x1F DUP4 ADD SLT PUSH3 0x64F JUMPI PUSH3 0x64E PUSH3 0x37F JUMP JUMPDEST JUMPDEST DUP2 MLOAD PUSH3 0x661 DUP5 DUP3 PUSH1 0x20 DUP7 ADD PUSH3 0x5C3 JUMP JUMPDEST SWAP2 POP POP SWAP3 SWAP2 POP POP JUMP JUMPDEST PUSH1 0x0 DUP1 PUSH1 0x0 DUP1 PUSH1 0x0 DUP1 PUSH1 0xC0 DUP8 DUP10 SUB SLT ISZERO PUSH3 0x68A JUMPI PUSH3 0x689 PUSH3 0x375 JUMP JUMPDEST JUMPDEST PUSH1 0x0 DUP8 ADD MLOAD PUSH8 0xFFFFFFFFFFFFFFFF DUP2 GT ISZERO PUSH3 0x6AB JUMPI PUSH3 0x6AA PUSH3 0x37A JUMP JUMPDEST JUMPDEST PUSH3 0x6B9 DUP10 DUP3 DUP11 ADD PUSH3 0x526 JUMP JUMPDEST SWAP7 POP POP PUSH1 0x20 DUP8 ADD MLOAD PUSH8 0xFFFFFFFFFFFFFFFF DUP2 GT ISZERO PUSH3 0x6DD JUMPI PUSH3 0x6DC PUSH3 0x37A JUMP JUMPDEST JUMPDEST PUSH3 0x6EB DUP10 DUP3 DUP11 ADD PUSH3 0x526 JUMP JUMPDEST SWAP6 POP POP PUSH1 0x40 PUSH3 0x6FE DUP10 DUP3 DUP11 ADD PUSH3 0x57D JUMP JUMPDEST SWAP5 POP POP PUSH1 0x60 DUP8 ADD MLOAD PUSH8 0xFFFFFFFFFFFFFFFF DUP2 GT ISZERO PUSH3 0x722 JUMPI PUSH3 0x721 PUSH3 0x37A JUMP JUMPDEST JUMPDEST PUSH3 0x730 DUP10 DUP3 DUP11 ADD PUSH3 0x637 JUMP JUMPDEST SWAP4 POP POP PUSH1 0x80 DUP8 ADD MLOAD PUSH8 0xFFFFFFFFFFFFFFFF DUP2 GT ISZERO PUSH3 0x754 JUMPI PUSH3 0x753 PUSH3 0x37A JUMP JUMPDEST JUMPDEST PUSH3 0x762 DUP10 DUP3 DUP11 ADD PUSH3 0x637 JUMP JUMPDEST SWAP3 POP POP PUSH1 0xA0 PUSH3 0x775 DUP10 DUP3 DUP11 ADD PUSH3 0x57D JUMP JUMPDEST SWAP2 POP POP SWAP3 SWAP6 POP SWAP3 SWAP6 POP SWAP3 SWAP6 JUMP JUMPDEST PUSH1 0x0 DUP3 DUP3 MSTORE PUSH1 0x20 DUP3 ADD SWAP1 POP SWAP3 SWAP2 POP POP JUMP JUMPDEST PUSH32 0x496E76616C6964206C6F636B20706572696F6400000000000000000000000000 PUSH1 0x0 DUP3 ADD MSTORE POP JUMP JUMPDEST PUSH1 0x0 PUSH3 0x7CB PUSH1 0x13 DUP4 PUSH3 0x782 JUMP JUMPDEST SWAP2 POP PUSH3 0x7D8 DUP3 PUSH3 0x793 JUMP JUMPDEST PUSH1 0x20 DUP3 ADD SWAP1 POP SWAP2 SWAP1 POP JUMP JUMPDEST PUSH1 0x0 PUSH1 0x20 DUP3 ADD SWAP1 POP DUP2 DUP2 SUB PUSH1 0x0 DUP4 ADD MSTORE PUSH3 0x7FE DUP2 PUSH3 0x7BC JUMP JUMPDEST SWAP1 POP SWAP2 SWAP1 POP JUMP JUMPDEST PUSH32 0x4E487B7100000000000000000000000000000000000000000000000000000000 PUSH1 0x0 MSTORE PUSH1 0x32 PUSH1 0x4 MSTORE PUSH1 0x24 PUSH1 0x0 REVERT JUMPDEST PUSH32 0x4E487B7100000000000000000000000000000000000000000000000000000000 PUSH1 0x0 MSTORE PUSH1 0x11 PUSH1 0x4 MSTORE PUSH1 0x24 PUSH1 0x0 REVERT JUMPDEST PUSH1 0x0 PUSH3 0x870 DUP3 PUSH3 0x559 JUMP JUMPDEST SWAP2 POP PUSH32 0xFFFFFFFFFFFFFFFFFFFFFFFFFFFFFFFFFFFFFFFFFFFFFFFFFFFFFFFFFFFFFFFF DUP3 SUB PUSH3 0x8A5 JUMPI PUSH3 0x8A4 PUSH3 0x834 JUMP JUMPDEST JUMPDEST PUSH1 0x1 DUP3 ADD SWAP1 POP SWAP2 SWAP1 POP JUMP JUMPDEST PUSH2 0x23A9 DUP1 PUSH3 0x8C0 PUSH1 0x0 CODECOPY PUSH1 0x0 RETURN INVALID PUSH1 0x80 PUSH1 0x40 MSTORE CALLVALUE DUP1 ISZERO PUSH2 0x10 JUMPI PUSH1 0x0 DUP1 REVERT JUMPDEST POP PUSH1 0x4 CALLDATASIZE LT PUSH2 0xB4 JUMPI PUSH1 0x0 CALLDATALOAD PUSH1 0xE0 SHR DUP1 PUSH4 0x779972DA GT PUSH2 0x71 JUMPI DUP1 PUSH4 0x779972DA EQ PUSH2 0x17D JUMPI DUP1 PUSH4 0x8DA5CB5B EQ PUSH2 0x199 JUMPI DUP1 PUSH4 0x9F3625F0 EQ PUSH2 0x1B7 JUMPI DUP1 PUSH4 0xC69D1923 EQ PUSH2 0x1D3 JUMPI DUP1 PUSH4 0xE9545B92 EQ PUSH2 0x1F1 JUMPI DUP1 PUSH4 0xF2FDE38B EQ PUSH2 0x223 JUMPI PUSH2 0xB4 JUMP JUMPDEST DUP1 PUSH4 0x520537F EQ PUSH2 0xB9 JUMPI DUP1 PUSH4 0x1902732E EQ PUSH2 0xD5 JUMPI DUP1 PUSH4 0x20281A98 EQ PUSH2 0xF1 JUMPI DUP1 PUSH4 0x3FD8B02F EQ PUSH2 0x121 JUMPI DUP1 PUSH4 0x5B1A4C24 EQ PUSH2 0x13F JUMPI DUP1 PUSH4 0x715018A6 EQ PUSH2 0x173 JUMPI JUMPDEST PUSH1 0x0 DUP1 REVERT JUMPDEST PUSH2 0xD3 PUSH1 0x4 DUP1 CALLDATASIZE SUB DUP2 ADD SWAP1 PUSH2 0xCE SWAP2 SWAP1 PUSH2 0x182F JUMP JUMPDEST PUSH2 0x23F JUMP JUMPDEST STOP JUMPDEST PUSH2 0xEF PUSH1 0x4 DUP1 CALLDATASIZE SUB DUP2 ADD SWAP1 PUSH2 0xEA SWAP2 SWAP1 PUSH2 0x182F JUMP JUMPDEST PUSH2 0x740 JUMP JUMPDEST STOP JUMPDEST PUSH2 0x10B PUSH1 0x4 DUP1 CALLDATASIZE SUB DUP2 ADD SWAP1 PUSH2 0x106 SWAP2 SWAP1 PUSH2 0x18C5 JUMP JUMPDEST PUSH2 0xBEE JUMP JUMPDEST PUSH1 0x40 MLOAD PUSH2 0x118 SWAP2 SWAP1 PUSH2 0x1901 JUMP JUMPDEST PUSH1 0x40 MLOAD DUP1 SWAP2 SUB SWAP1 RETURN JUMPDEST PUSH2 0x129 PUSH2 0xC0E JUMP JUMPDEST PUSH1 0x40 MLOAD PUSH2 0x136 SWAP2 SWAP1 PUSH2 0x1901 JUMP JUMPDEST PUSH1 0x40 MLOAD DUP1 SWAP2 SUB SWAP1 RETURN JUMPDEST PUSH2 0x159 PUSH1 0x4 DUP1 CALLDATASIZE SUB DUP2 ADD SWAP1 PUSH2 0x154 SWAP2 SWAP1 PUSH2 0x18C5 JUMP JUMPDEST PUSH2 0xC14 JUMP JUMPDEST PUSH1 0x40 MLOAD PUSH2 0x16A SWAP6 SWAP5 SWAP4 SWAP3 SWAP2 SWAP1 PUSH2 0x19A5 JUMP JUMPDEST PUSH1 0x40 MLOAD DUP1 SWAP2 SUB SWAP1 RETURN JUMPDEST PUSH2 0x17B PUSH2 0xC97 JUMP JUMPDEST STOP JUMPDEST PUSH2 0x197 PUSH1 0x4 DUP1 CALLDATASIZE SUB DUP2 ADD SWAP1 PUSH2 0x192 SWAP2 SWAP1 PUSH2 0x18C5 JUMP JUMPDEST PUSH2 0xCAB JUMP JUMPDEST STOP JUMPDEST PUSH2 0x1A1 PUSH2 0xD37 JUMP JUMPDEST PUSH1 0x40 MLOAD PUSH2 0x1AE SWAP2 SWAP1 PUSH2 0x19F8 JUMP JUMPDEST PUSH1 0x40 MLOAD DUP1 SWAP2 SUB SWAP1 RETURN JUMPDEST PUSH2 0x1D1 PUSH1 0x4 DUP1 CALLDATASIZE SUB DUP2 ADD SWAP1 PUSH2 0x1CC SWAP2 SWAP1 PUSH2 0x182F JUMP JUMPDEST PUSH2 0xD60 JUMP JUMPDEST STOP JUMPDEST PUSH2 0x1DB PUSH2 0x136F JUMP JUMPDEST PUSH1 0x40 MLOAD PUSH2 0x1E8 SWAP2 SWAP1 PUSH2 0x1901 JUMP JUMPDEST PUSH1 0x40 MLOAD DUP1 SWAP2 SUB SWAP1 RETURN JUMPDEST PUSH2 0x20B PUSH1 0x4 DUP1 CALLDATASIZE SUB DUP2 ADD SWAP1 PUSH2 0x206 SWAP2 SWAP1 PUSH2 0x1A13 JUMP JUMPDEST PUSH2 0x1375 JUMP JUMPDEST PUSH1 0x40 MLOAD PUSH2 0x21A SWAP4 SWAP3 SWAP2 SWAP1 PUSH2 0x1A61 JUMP JUMPDEST PUSH1 0x40 MLOAD DUP1 SWAP2 SUB SWAP1 RETURN JUMPDEST PUSH2 0x23D PUSH1 0x4 DUP1 CALLDATASIZE SUB DUP2 ADD SWAP1 PUSH2 0x238 SWAP2 SWAP1 PUSH2 0x1AC4 JUMP JUMPDEST PUSH2 0x13BF JUMP JUMPDEST STOP JUMPDEST PUSH2 0x25E CALLER PUSH20 0xFFFFFFFFFFFFFFFFFFFFFFFFFFFFFFFFFFFFFFFF AND PUSH2 0x1442 JUMP JUMPDEST ISZERO PUSH2 0x29E JUMPI PUSH1 0x40 MLOAD PUSH32 0x8C379A000000000000000000000000000000000000000000000000000000000 DUP2 MSTORE PUSH1 0x4 ADD PUSH2 0x295 SWAP1 PUSH2 0x1B4E JUMP JUMPDEST PUSH1 0x40 MLOAD DUP1 SWAP2 SUB SWAP1 REVERT JUMPDEST ORIGIN PUSH20 0xFFFFFFFFFFFFFFFFFFFFFFFFFFFFFFFFFFFFFFFF AND CALLER PUSH20 0xFFFFFFFFFFFFFFFFFFFFFFFFFFFFFFFFFFFFFFFF AND EQ PUSH2 0x30C JUMPI PUSH1 0x40 MLOAD PUSH32 0x8C379A000000000000000000000000000000000000000000000000000000000 DUP2 MSTORE PUSH1 0x4 ADD PUSH2 0x303 SWAP1 PUSH2 0x1BBA JUMP JUMPDEST PUSH1 0x40 MLOAD DUP1 SWAP2 SUB SWAP1 REVERT JUMPDEST PUSH1 0x0 DUP4 DUP4 SWAP1 POP GT PUSH2 0x352 JUMPI PUSH1 0x40 MLOAD PUSH32 0x8C379A000000000000000000000000000000000000000000000000000000000 DUP2 MSTORE PUSH1 0x4 ADD PUSH2 0x349 SWAP1 PUSH2 0x1C26 JUMP JUMPDEST PUSH1 0x40 MLOAD DUP1 SWAP2 SUB SWAP1 REVERT JUMPDEST PUSH1 0x0 DUP1 PUSH1 0x0 SWAP1 POP JUMPDEST DUP5 DUP5 SWAP1 POP DUP2 LT ISZERO PUSH2 0x6E7 JUMPI PUSH1 0x0 PUSH1 0x3 PUSH1 0x0 DUP8 DUP8 DUP6 DUP2 DUP2 LT PUSH2 0x37E JUMPI PUSH2 0x37D PUSH2 0x1C46 JUMP JUMPDEST JUMPDEST SWAP1 POP PUSH1 0x20 MUL ADD CALLDATALOAD DUP2 MSTORE PUSH1 0x20 ADD SWAP1 DUP2 MSTORE PUSH1 0x20 ADD PUSH1 0x0 KECCAK256 PUSH1 0x40 MLOAD DUP1 PUSH1 0xA0 ADD PUSH1 0x40 MSTORE SWAP1 DUP2 PUSH1 0x0 DUP3 ADD PUSH1 0x0 SWAP1 SLOAD SWAP1 PUSH2 0x100 EXP SWAP1 DIV PUSH20 0xFFFFFFFFFFFFFFFFFFFFFFFFFFFFFFFFFFFFFFFF AND PUSH20 0xFFFFFFFFFFFFFFFFFFFFFFFFFFFFFFFFFFFFFFFF AND PUSH20 0xFFFFFFFFFFFFFFFFFFFFFFFFFFFFFFFFFFFFFFFF AND DUP2 MSTORE PUSH1 0x20 ADD PUSH1 0x1 DUP3 ADD SLOAD DUP2 MSTORE PUSH1 0x20 ADD PUSH1 0x2 DUP3 ADD SLOAD DUP2 MSTORE PUSH1 0x20 ADD PUSH1 0x3 DUP3 ADD PUSH1 0x0 SWAP1 SLOAD SWAP1 PUSH2 0x100 EXP SWAP1 DIV PUSH1 0xFF AND ISZERO ISZERO ISZERO ISZERO DUP2 MSTORE PUSH1 0x20 ADD PUSH1 0x3 DUP3 ADD PUSH1 0x1 SWAP1 SLOAD SWAP1 PUSH2 0x100 EXP SWAP1 DIV PUSH20 0xFFFFFFFFFFFFFFFFFFFFFFFFFFFFFFFFFFFFFFFF AND PUSH20 0xFFFFFFFFFFFFFFFFFFFFFFFFFFFFFFFFFFFFFFFF AND PUSH20 0xFFFFFFFFFFFFFFFFFFFFFFFFFFFFFFFFFFFFFFFF AND DUP2 MSTORE POP POP SWAP1 POP CALLER PUSH20 0xFFFFFFFFFFFFFFFFFFFFFFFFFFFFFFFFFFFFFFFF AND DUP2 PUSH1 0x0 ADD MLOAD PUSH20 0xFFFFFFFFFFFFFFFFFFFFFFFFFFFFFFFFFFFFFFFF AND EQ PUSH2 0x4ED JUMPI PUSH1 0x40 MLOAD PUSH32 0x8C379A000000000000000000000000000000000000000000000000000000000 DUP2 MSTORE PUSH1 0x4 ADD PUSH2 0x4E4 SWAP1 PUSH2 0x1CC1 JUMP JUMPDEST PUSH1 0x40 MLOAD DUP1 SWAP2 SUB SWAP1 REVERT JUMPDEST TIMESTAMP PUSH1 0x2 SLOAD DUP3 PUSH1 0x20 ADD MLOAD PUSH2 0x500 SWAP2 SWAP1 PUSH2 0x1D10 JUMP JUMPDEST LT PUSH2 0x540 JUMPI PUSH1 0x40 MLOAD PUSH32 0x8C379A000000000000000000000000000000000000000000000000000000000 DUP2 MSTORE PUSH1 0x4 ADD PUSH2 0x537 SWAP1 PUSH2 0x1D90 JUMP JUMPDEST PUSH1 0x40 MLOAD DUP1 SWAP2 SUB SWAP1 REVERT JUMPDEST DUP1 PUSH1 0x60 ADD MLOAD ISZERO PUSH2 0x585 JUMPI PUSH1 0x40 MLOAD PUSH32 0x8C379A000000000000000000000000000000000000000000000000000000000 DUP2 MSTORE PUSH1 0x4 ADD PUSH2 0x57C SWAP1 PUSH2 0x1DFC JUMP JUMPDEST PUSH1 0x40 MLOAD DUP1 SWAP2 SUB SWAP1 REVERT JUMPDEST PUSH1 0x0 PUSH2 0x5AA DUP8 DUP8 DUP6 DUP2 DUP2 LT PUSH2 0x59D JUMPI PUSH2 0x59C PUSH2 0x1C46 JUMP JUMPDEST JUMPDEST SWAP1 POP PUSH1 0x20 MUL ADD CALLDATALOAD DUP7 PUSH2 0x1465 JUMP JUMPDEST SWAP1 POP PUSH1 0x0 DUP3 PUSH1 0x40 ADD MLOAD DUP3 PUSH2 0x5BE SWAP2 SWAP1 PUSH2 0x1E1C JUMP JUMPDEST SWAP1 POP PUSH1 0x4 PUSH1 0x0 DUP8 PUSH20 0xFFFFFFFFFFFFFFFFFFFFFFFFFFFFFFFFFFFFFFFF AND PUSH20 0xFFFFFFFFFFFFFFFFFFFFFFFFFFFFFFFFFFFFFFFF AND DUP2 MSTORE PUSH1 0x20 ADD SWAP1 DUP2 MSTORE PUSH1 0x20 ADD PUSH1 0x0 KECCAK256 PUSH1 0x0 ADD PUSH1 0x0 SWAP1 SLOAD SWAP1 PUSH2 0x100 EXP SWAP1 DIV PUSH20 0xFFFFFFFFFFFFFFFFFFFFFFFFFFFFFFFFFFFFFFFF AND PUSH20 0xFFFFFFFFFFFFFFFFFFFFFFFFFFFFFFFFFFFFFFFF AND PUSH4 0x40C10F19 CALLER DUP4 PUSH1 0x40 MLOAD DUP4 PUSH4 0xFFFFFFFF AND PUSH1 0xE0 SHL DUP2 MSTORE PUSH1 0x4 ADD PUSH2 0x65D SWAP3 SWAP2 SWAP1 PUSH2 0x1E50 JUMP JUMPDEST PUSH1 0x0 PUSH1 0x40 MLOAD DUP1 DUP4 SUB DUP2 PUSH1 0x0 DUP8 DUP1 EXTCODESIZE ISZERO DUP1 ISZERO PUSH2 0x677 JUMPI PUSH1 0x0 DUP1 REVERT JUMPDEST POP GAS CALL ISZERO DUP1 ISZERO PUSH2 0x68B JUMPI RETURNDATASIZE PUSH1 0x0 DUP1 RETURNDATACOPY RETURNDATASIZE PUSH1 0x0 REVERT JUMPDEST POP POP POP POP DUP1 DUP6 PUSH2 0x69B SWAP2 SWAP1 PUSH2 0x1D10 JUMP JUMPDEST SWAP5 POP DUP2 PUSH1 0x3 PUSH1 0x0 DUP11 DUP11 DUP9 DUP2 DUP2 LT PUSH2 0x6B5 JUMPI PUSH2 0x6B4 PUSH2 0x1C46 JUMP JUMPDEST JUMPDEST SWAP1 POP PUSH1 0x20 MUL ADD CALLDATALOAD DUP2 MSTORE PUSH1 0x20 ADD SWAP1 DUP2 MSTORE PUSH1 0x20 ADD PUSH1 0x0 KECCAK256 PUSH1 0x2 ADD DUP2 SWAP1 SSTORE POP POP POP POP DUP1 DUP1 PUSH2 0x6DF SWAP1 PUSH2 0x1E79 JUMP JUMPDEST SWAP2 POP POP PUSH2 0x35A JUMP JUMPDEST POP CALLER PUSH20 0xFFFFFFFFFFFFFFFFFFFFFFFFFFFFFFFFFFFFFFFF AND PUSH32 0x37826BE3C26DBAD83731F4B985F22FA9EF86B6D1974CD77208332B7F1F283C0C DUP6 DUP6 DUP5 PUSH1 0x40 MLOAD PUSH2 0x732 SWAP4 SWAP3 SWAP2 SWAP1 PUSH2 0x1F3C JUMP JUMPDEST PUSH1 0x40 MLOAD DUP1 SWAP2 SUB SWAP1 LOG2 POP POP POP POP JUMP JUMPDEST PUSH2 0x75F CALLER PUSH20 0xFFFFFFFFFFFFFFFFFFFFFFFFFFFFFFFFFFFFFFFF AND PUSH2 0x1442 JUMP JUMPDEST ISZERO PUSH2 0x79F JUMPI PUSH1 0x40 MLOAD PUSH32 0x8C379A000000000000000000000000000000000000000000000000000000000 DUP2 MSTORE PUSH1 0x4 ADD PUSH2 0x796 SWAP1 PUSH2 0x1B4E JUMP JUMPDEST PUSH1 0x40 MLOAD DUP1 SWAP2 SUB SWAP1 REVERT JUMPDEST ORIGIN PUSH20 0xFFFFFFFFFFFFFFFFFFFFFFFFFFFFFFFFFFFFFFFF AND CALLER PUSH20 0xFFFFFFFFFFFFFFFFFFFFFFFFFFFFFFFFFFFFFFFF AND EQ PUSH2 0x80D JUMPI PUSH1 0x40 MLOAD PUSH32 0x8C379A000000000000000000000000000000000000000000000000000000000 DUP2 MSTORE PUSH1 0x4 ADD PUSH2 0x804 SWAP1 PUSH2 0x1BBA JUMP JUMPDEST PUSH1 0x40 MLOAD DUP1 SWAP2 SUB SWAP1 REVERT JUMPDEST PUSH1 0x2 PUSH1 0x1 SLOAD SUB PUSH2 0x852 JUMPI PUSH1 0x40 MLOAD PUSH32 0x8C379A000000000000000000000000000000000000000000000000000000000 DUP2 MSTORE PUSH1 0x4 ADD PUSH2 0x849 SWAP1 PUSH2 0x1FBA JUMP JUMPDEST PUSH1 0x40 MLOAD DUP1 SWAP2 SUB SWAP1 REVERT JUMPDEST PUSH1 0x2 PUSH1 0x1 DUP2 SWAP1 SSTORE POP PUSH1 0x0 DUP4 DUP4 SWAP1 POP GT PUSH2 0x8A0 JUMPI PUSH1 0x40 MLOAD PUSH32 0x8C379A000000000000000000000000000000000000000000000000000000000 DUP2 MSTORE PUSH1 0x4 ADD PUSH2 0x897 SWAP1 PUSH2 0x1C26 JUMP JUMPDEST PUSH1 0x40 MLOAD DUP1 SWAP2 SUB SWAP1 REVERT JUMPDEST PUSH1 0x0 JUMPDEST DUP4 DUP4 SWAP1 POP DUP2 LT ISZERO PUSH2 0xB91 JUMPI CALLER PUSH20 0xFFFFFFFFFFFFFFFFFFFFFFFFFFFFFFFFFFFFFFFF AND DUP3 PUSH20 0xFFFFFFFFFFFFFFFFFFFFFFFFFFFFFFFFFFFFFFFF AND PUSH4 0x6352211E DUP7 DUP7 DUP6 DUP2 DUP2 LT PUSH2 0x8F4 JUMPI PUSH2 0x8F3 PUSH2 0x1C46 JUMP JUMPDEST JUMPDEST SWAP1 POP PUSH1 0x20 MUL ADD CALLDATALOAD PUSH1 0x40 MLOAD DUP3 PUSH4 0xFFFFFFFF AND PUSH1 0xE0 SHL DUP2 MSTORE PUSH1 0x4 ADD PUSH2 0x917 SWAP2 SWAP1 PUSH2 0x1901 JUMP JUMPDEST PUSH1 0x20 PUSH1 0x40 MLOAD DUP1 DUP4 SUB DUP2 DUP7 GAS STATICCALL ISZERO DUP1 ISZERO PUSH2 0x934 JUMPI RETURNDATASIZE PUSH1 0x0 DUP1 RETURNDATACOPY RETURNDATASIZE PUSH1 0x0 REVERT JUMPDEST POP POP POP POP PUSH1 0x40 MLOAD RETURNDATASIZE PUSH1 0x1F NOT PUSH1 0x1F DUP3 ADD AND DUP3 ADD DUP1 PUSH1 0x40 MSTORE POP DUP2 ADD SWAP1 PUSH2 0x958 SWAP2 SWAP1 PUSH2 0x1FEF JUMP JUMPDEST PUSH20 0xFFFFFFFFFFFFFFFFFFFFFFFFFFFFFFFFFFFFFFFF AND EQ PUSH2 0x9AE JUMPI PUSH1 0x40 MLOAD PUSH32 0x8C379A000000000000000000000000000000000000000000000000000000000 DUP2 MSTORE PUSH1 0x4 ADD PUSH2 0x9A5 SWAP1 PUSH2 0x2068 JUMP JUMPDEST PUSH1 0x40 MLOAD DUP1 SWAP2 SUB SWAP1 REVERT JUMPDEST DUP2 PUSH20 0xFFFFFFFFFFFFFFFFFFFFFFFFFFFFFFFFFFFFFFFF AND PUSH4 0x23B872DD CALLER ADDRESS DUP8 DUP8 DUP7 DUP2 DUP2 LT PUSH2 0x9DF JUMPI PUSH2 0x9DE PUSH2 0x1C46 JUMP JUMPDEST JUMPDEST SWAP1 POP PUSH1 0x20 MUL ADD CALLDATALOAD PUSH1 0x40 MLOAD DUP5 PUSH4 0xFFFFFFFF AND PUSH1 0xE0 SHL DUP2 MSTORE PUSH1 0x4 ADD PUSH2 0xA04 SWAP4 SWAP3 SWAP2 SWAP1 PUSH2 0x2088 JUMP JUMPDEST PUSH1 0x0 PUSH1 0x40 MLOAD DUP1 DUP4 SUB DUP2 PUSH1 0x0 DUP8 DUP1 EXTCODESIZE ISZERO DUP1 ISZERO PUSH2 0xA1E JUMPI PUSH1 0x0 DUP1 REVERT JUMPDEST POP GAS CALL ISZERO DUP1 ISZERO PUSH2 0xA32 JUMPI RETURNDATASIZE PUSH1 0x0 DUP1 RETURNDATACOPY RETURNDATASIZE PUSH1 0x0 REVERT JUMPDEST POP POP POP POP PUSH1 0x40 MLOAD DUP1 PUSH1 0xA0 ADD PUSH1 0x40 MSTORE DUP1 CALLER PUSH20 0xFFFFFFFFFFFFFFFFFFFFFFFFFFFFFFFFFFFFFFFF AND DUP2 MSTORE PUSH1 0x20 ADD TIMESTAMP DUP2 MSTORE PUSH1 0x20 ADD PUSH1 0x0 DUP2 MSTORE PUSH1 0x20 ADD PUSH1 0x0 ISZERO ISZERO DUP2 MSTORE PUSH1 0x20 ADD DUP4 PUSH20 0xFFFFFFFFFFFFFFFFFFFFFFFFFFFFFFFFFFFFFFFF AND DUP2 MSTORE POP PUSH1 0x3 PUSH1 0x0 DUP7 DUP7 DUP6 DUP2 DUP2 LT PUSH2 0xAA4 JUMPI PUSH2 0xAA3 PUSH2 0x1C46 JUMP JUMPDEST JUMPDEST SWAP1 POP PUSH1 0x20 MUL ADD CALLDATALOAD DUP2 MSTORE PUSH1 0x20 ADD SWAP1 DUP2 MSTORE PUSH1 0x20 ADD PUSH1 0x0 KECCAK256 PUSH1 0x0 DUP3 ADD MLOAD DUP2 PUSH1 0x0 ADD PUSH1 0x0 PUSH2 0x100 EXP DUP2 SLOAD DUP2 PUSH20 0xFFFFFFFFFFFFFFFFFFFFFFFFFFFFFFFFFFFFFFFF MUL NOT AND SWAP1 DUP4 PUSH20 0xFFFFFFFFFFFFFFFFFFFFFFFFFFFFFFFFFFFFFFFF AND MUL OR SWAP1 SSTORE POP PUSH1 0x20 DUP3 ADD MLOAD DUP2 PUSH1 0x1 ADD SSTORE PUSH1 0x40 DUP3 ADD MLOAD DUP2 PUSH1 0x2 ADD SSTORE PUSH1 0x60 DUP3 ADD MLOAD DUP2 PUSH1 0x3 ADD PUSH1 0x0 PUSH2 0x100 EXP DUP2 SLOAD DUP2 PUSH1 0xFF MUL NOT AND SWAP1 DUP4 ISZERO ISZERO MUL OR SWAP1 SSTORE POP PUSH1 0x80 DUP3 ADD MLOAD DUP2 PUSH1 0x3 ADD PUSH1 0x1 PUSH2 0x100 EXP DUP2 SLOAD DUP2 PUSH20 0xFFFFFFFFFFFFFFFFFFFFFFFFFFFFFFFFFFFFFFFF MUL NOT AND SWAP1 DUP4 PUSH20 0xFFFFFFFFFFFFFFFFFFFFFFFFFFFFFFFFFFFFFFFF AND MUL OR SWAP1 SSTORE POP SWAP1 POP POP DUP1 DUP1 PUSH2 0xB89 SWAP1 PUSH2 0x1E79 JUMP JUMPDEST SWAP2 POP POP PUSH2 0x8A3 JUMP JUMPDEST POP CALLER PUSH20 0xFFFFFFFFFFFFFFFFFFFFFFFFFFFFFFFFFFFFFFFF AND PUSH32 0x458BE0227BCCC9E803DEC79BD16767EEAF9925D2CE708EEED7AE1F3621F968F9 DUP5 DUP5 PUSH1 0x40 MLOAD PUSH2 0xBDA SWAP3 SWAP2 SWAP1 PUSH2 0x20BF JUMP JUMPDEST PUSH1 0x40 MLOAD DUP1 SWAP2 SUB SWAP1 LOG2 PUSH1 0x1 DUP1 DUP2 SWAP1 SSTORE POP POP POP POP JUMP JUMPDEST PUSH1 0x0 PUSH1 0x3 PUSH1 0x0 DUP4 DUP2 MSTORE PUSH1 0x20 ADD SWAP1 DUP2 MSTORE PUSH1 0x20 ADD PUSH1 0x0 KECCAK256 PUSH1 0x2 ADD SLOAD SWAP1 POP SWAP2 SWAP1 POP JUMP JUMPDEST PUSH1 0x2 SLOAD DUP2 JUMP JUMPDEST PUSH1 0x3 PUSH1 0x20 MSTORE DUP1 PUSH1 0x0 MSTORE PUSH1 0x40 PUSH1 0x0 KECCAK256 PUSH1 0x0 SWAP2 POP SWAP1 POP DUP1 PUSH1 0x0 ADD PUSH1 0x0 SWAP1 SLOAD SWAP1 PUSH2 0x100 EXP SWAP1 DIV PUSH20 0xFFFFFFFFFFFFFFFFFFFFFFFFFFFFFFFFFFFFFFFF AND SWAP1 DUP1 PUSH1 0x1 ADD SLOAD SWAP1 DUP1 PUSH1 0x2 ADD SLOAD SWAP1 DUP1 PUSH1 0x3 ADD PUSH1 0x0 SWAP1 SLOAD SWAP1 PUSH2 0x100 EXP SWAP1 DIV PUSH1 0xFF AND SWAP1 DUP1 PUSH1 0x3 ADD PUSH1 0x1 SWAP1 SLOAD SWAP1 PUSH2 0x100 EXP SWAP1 DIV PUSH20 0xFFFFFFFFFFFFFFFFFFFFFFFFFFFFFFFFFFFFFFFF AND SWAP1 POP DUP6 JUMP JUMPDEST PUSH2 0xC9F PUSH2 0x1606 JUMP JUMPDEST PUSH2 0xCA9 PUSH1 0x0 PUSH2 0x1684 JUMP JUMPDEST JUMP JUMPDEST PUSH2 0xCB3 PUSH2 0x1606 JUMP JUMPDEST PUSH1 0x0 DUP2 GT PUSH2 0xCF6 JUMPI PUSH1 0x40 MLOAD PUSH32 0x8C379A000000000000000000000000000000000000000000000000000000000 DUP2 MSTORE PUSH1 0x4 ADD PUSH2 0xCED SWAP1 PUSH2 0x212F JUMP JUMPDEST PUSH1 0x40 MLOAD DUP1 SWAP2 SUB SWAP1 REVERT JUMPDEST DUP1 PUSH1 0x2 DUP2 SWAP1 SSTORE POP PUSH32 0x8249EC545E68F6F1E1230133CA48C704D831A7F8E635DED80F3DD9E99B09BB2F DUP2 PUSH1 0x40 MLOAD PUSH2 0xD2C SWAP2 SWAP1 PUSH2 0x1901 JUMP JUMPDEST PUSH1 0x40 MLOAD DUP1 SWAP2 SUB SWAP1 LOG1 POP JUMP JUMPDEST PUSH1 0x0 DUP1 PUSH1 0x0 SWAP1 SLOAD SWAP1 PUSH2 0x100 EXP SWAP1 DIV PUSH20 0xFFFFFFFFFFFFFFFFFFFFFFFFFFFFFFFFFFFFFFFF AND SWAP1 POP SWAP1 JUMP JUMPDEST PUSH2 0xD7F CALLER PUSH20 0xFFFFFFFFFFFFFFFFFFFFFFFFFFFFFFFFFFFFFFFF AND PUSH2 0x1442 JUMP JUMPDEST ISZERO PUSH2 0xDBF JUMPI PUSH1 0x40 MLOAD PUSH32 0x8C379A000000000000000000000000000000000000000000000000000000000 DUP2 MSTORE PUSH1 0x4 ADD PUSH2 0xDB6 SWAP1 PUSH2 0x1B4E JUMP JUMPDEST PUSH1 0x40 MLOAD DUP1 SWAP2 SUB SWAP1 REVERT JUMPDEST ORIGIN PUSH20 0xFFFFFFFFFFFFFFFFFFFFFFFFFFFFFFFFFFFFFFFF AND CALLER PUSH20 0xFFFFFFFFFFFFFFFFFFFFFFFFFFFFFFFFFFFFFFFF AND EQ PUSH2 0xE2D JUMPI PUSH1 0x40 MLOAD PUSH32 0x8C379A000000000000000000000000000000000000000000000000000000000 DUP2 MSTORE PUSH1 0x4 ADD PUSH2 0xE24 SWAP1 PUSH2 0x1BBA JUMP JUMPDEST PUSH1 0x40 MLOAD DUP1 SWAP2 SUB SWAP1 REVERT JUMPDEST PUSH1 0x2 PUSH1 0x1 SLOAD SUB PUSH2 0xE72 JUMPI PUSH1 0x40 MLOAD PUSH32 0x8C379A000000000000000000000000000000000000000000000000000000000 DUP2 MSTORE PUSH1 0x4 ADD PUSH2 0xE69 SWAP1 PUSH2 0x1FBA JUMP JUMPDEST PUSH1 0x40 MLOAD DUP1 SWAP2 SUB SWAP1 REVERT JUMPDEST PUSH1 0x2 PUSH1 0x1 DUP2 SWAP1 SSTORE POP PUSH1 0x0 DUP4 DUP4 SWAP1 POP GT PUSH2 0xEC0 JUMPI PUSH1 0x40 MLOAD PUSH32 0x8C379A000000000000000000000000000000000000000000000000000000000 DUP2 MSTORE PUSH1 0x4 ADD PUSH2 0xEB7 SWAP1 PUSH2 0x1C26 JUMP JUMPDEST PUSH1 0x40 MLOAD DUP1 SWAP2 SUB SWAP1 REVERT JUMPDEST PUSH1 0x0 JUMPDEST DUP4 DUP4 SWAP1 POP DUP2 LT ISZERO PUSH2 0x1312 JUMPI PUSH1 0x0 PUSH1 0x3 PUSH1 0x0 DUP7 DUP7 DUP6 DUP2 DUP2 LT PUSH2 0xEE7 JUMPI PUSH2 0xEE6 PUSH2 0x1C46 JUMP JUMPDEST JUMPDEST SWAP1 POP PUSH1 0x20 MUL ADD CALLDATALOAD DUP2 MSTORE PUSH1 0x20 ADD SWAP1 DUP2 MSTORE PUSH1 0x20 ADD PUSH1 0x0 KECCAK256 PUSH1 0x40 MLOAD DUP1 PUSH1 0xA0 ADD PUSH1 0x40 MSTORE SWAP1 DUP2 PUSH1 0x0 DUP3 ADD PUSH1 0x0 SWAP1 SLOAD SWAP1 PUSH2 0x100 EXP SWAP1 DIV PUSH20 0xFFFFFFFFFFFFFFFFFFFFFFFFFFFFFFFFFFFFFFFF AND PUSH20 0xFFFFFFFFFFFFFFFFFFFFFFFFFFFFFFFFFFFFFFFF AND PUSH20 0xFFFFFFFFFFFFFFFFFFFFFFFFFFFFFFFFFFFFFFFF AND DUP2 MSTORE PUSH1 0x20 ADD PUSH1 0x1 DUP3 ADD SLOAD DUP2 MSTORE PUSH1 0x20 ADD PUSH1 0x2 DUP3 ADD SLOAD DUP2 MSTORE PUSH1 0x20 ADD PUSH1 0x3 DUP3 ADD PUSH1 0x0 SWAP1 SLOAD SWAP1 PUSH2 0x100 EXP SWAP1 DIV PUSH1 0xFF AND ISZERO ISZERO ISZERO ISZERO DUP2 MSTORE PUSH1 0x20 ADD PUSH1 0x3 DUP3 ADD PUSH1 0x1 SWAP1 SLOAD SWAP1 PUSH2 0x100 EXP SWAP1 DIV PUSH20 0xFFFFFFFFFFFFFFFFFFFFFFFFFFFFFFFFFFFFFFFF AND PUSH20 0xFFFFFFFFFFFFFFFFFFFFFFFFFFFFFFFFFFFFFFFF AND PUSH20 0xFFFFFFFFFFFFFFFFFFFFFFFFFFFFFFFFFFFFFFFF AND DUP2 MSTORE POP POP SWAP1 POP CALLER PUSH20 0xFFFFFFFFFFFFFFFFFFFFFFFFFFFFFFFFFFFFFFFF AND DUP2 PUSH1 0x0 ADD MLOAD PUSH20 0xFFFFFFFFFFFFFFFFFFFFFFFFFFFFFFFFFFFFFFFF AND EQ PUSH2 0x1056 JUMPI PUSH1 0x40 MLOAD PUSH32 0x8C379A000000000000000000000000000000000000000000000000000000000 DUP2 MSTORE PUSH1 0x4 ADD PUSH2 0x104D SWAP1 PUSH2 0x1CC1 JUMP JUMPDEST PUSH1 0x40 MLOAD DUP1 SWAP2 SUB SWAP1 REVERT JUMPDEST TIMESTAMP PUSH1 0x2 SLOAD DUP3 PUSH1 0x20 ADD MLOAD PUSH2 0x1069 SWAP2 SWAP1 PUSH2 0x1D10 JUMP JUMPDEST LT PUSH2 0x10A9 JUMPI PUSH1 0x40 MLOAD PUSH32 0x8C379A000000000000000000000000000000000000000000000000000000000 DUP2 MSTORE PUSH1 0x4 ADD PUSH2 0x10A0 SWAP1 PUSH2 0x219B JUMP JUMPDEST PUSH1 0x40 MLOAD DUP1 SWAP2 SUB SWAP1 REVERT JUMPDEST DUP1 PUSH1 0x60 ADD MLOAD ISZERO PUSH2 0x10EE JUMPI PUSH1 0x40 MLOAD PUSH32 0x8C379A000000000000000000000000000000000000000000000000000000000 DUP2 MSTORE PUSH1 0x4 ADD PUSH2 0x10E5 SWAP1 PUSH2 0x1DFC JUMP JUMPDEST PUSH1 0x40 MLOAD DUP1 SWAP2 SUB SWAP1 REVERT JUMPDEST DUP3 PUSH20 0xFFFFFFFFFFFFFFFFFFFFFFFFFFFFFFFFFFFFFFFF AND PUSH4 0x23B872DD ADDRESS CALLER DUP9 DUP9 DUP8 DUP2 DUP2 LT PUSH2 0x111F JUMPI PUSH2 0x111E PUSH2 0x1C46 JUMP JUMPDEST JUMPDEST SWAP1 POP PUSH1 0x20 MUL ADD CALLDATALOAD PUSH1 0x40 MLOAD DUP5 PUSH4 0xFFFFFFFF AND PUSH1 0xE0 SHL DUP2 MSTORE PUSH1 0x4 ADD PUSH2 0x1144 SWAP4 SWAP3 SWAP2 SWAP1 PUSH2 0x2088 JUMP JUMPDEST PUSH1 0x0 PUSH1 0x40 MLOAD DUP1 DUP4 SUB DUP2 PUSH1 0x0 DUP8 DUP1 EXTCODESIZE ISZERO DUP1 ISZERO PUSH2 0x115E JUMPI PUSH1 0x0 DUP1 REVERT JUMPDEST POP GAS CALL ISZERO DUP1 ISZERO PUSH2 0x1172 JUMPI RETURNDATASIZE PUSH1 0x0 DUP1 RETURNDATACOPY RETURNDATASIZE PUSH1 0x0 REVERT JUMPDEST POP POP POP POP PUSH1 0x0 PUSH2 0x119B DUP7 DUP7 DUP6 DUP2 DUP2 LT PUSH2 0x118E JUMPI PUSH2 0x118D PUSH2 0x1C46 JUMP JUMPDEST JUMPDEST SWAP1 POP PUSH1 0x20 MUL ADD CALLDATALOAD DUP6 PUSH2 0x1465 JUMP JUMPDEST SWAP1 POP PUSH1 0x0 DUP3 PUSH1 0x40 ADD MLOAD DUP3 PUSH2 0x11AF SWAP2 SWAP1 PUSH2 0x1E1C JUMP JUMPDEST SWAP1 POP PUSH1 0x4 PUSH1 0x0 DUP7 PUSH20 0xFFFFFFFFFFFFFFFFFFFFFFFFFFFFFFFFFFFFFFFF AND PUSH20 0xFFFFFFFFFFFFFFFFFFFFFFFFFFFFFFFFFFFFFFFF AND DUP2 MSTORE PUSH1 0x20 ADD SWAP1 DUP2 MSTORE PUSH1 0x20 ADD PUSH1 0x0 KECCAK256 PUSH1 0x0 ADD PUSH1 0x0 SWAP1 SLOAD SWAP1 PUSH2 0x100 EXP SWAP1 DIV PUSH20 0xFFFFFFFFFFFFFFFFFFFFFFFFFFFFFFFFFFFFFFFF AND PUSH20 0xFFFFFFFFFFFFFFFFFFFFFFFFFFFFFFFFFFFFFFFF AND PUSH4 0x40C10F19 CALLER DUP4 PUSH1 0x40 MLOAD DUP4 PUSH4 0xFFFFFFFF AND PUSH1 0xE0 SHL DUP2 MSTORE PUSH1 0x4 ADD PUSH2 0x124E SWAP3 SWAP2 SWAP1 PUSH2 0x1E50 JUMP JUMPDEST PUSH1 0x0 PUSH1 0x40 MLOAD DUP1 DUP4 SUB DUP2 PUSH1 0x0 DUP8 DUP1 EXTCODESIZE ISZERO DUP1 ISZERO PUSH2 0x1268 JUMPI PUSH1 0x0 DUP1 REVERT JUMPDEST POP GAS CALL ISZERO DUP1 ISZERO PUSH2 0x127C JUMPI RETURNDATASIZE PUSH1 0x0 DUP1 RETURNDATACOPY RETURNDATASIZE PUSH1 0x0 REVERT JUMPDEST POP POP POP POP DUP2 PUSH1 0x3 PUSH1 0x0 DUP10 DUP10 DUP9 DUP2 DUP2 LT PUSH2 0x1298 JUMPI PUSH2 0x1297 PUSH2 0x1C46 JUMP JUMPDEST JUMPDEST SWAP1 POP PUSH1 0x20 MUL ADD CALLDATALOAD DUP2 MSTORE PUSH1 0x20 ADD SWAP1 DUP2 MSTORE PUSH1 0x20 ADD PUSH1 0x0 KECCAK256 PUSH1 0x2 ADD DUP2 SWAP1 SSTORE POP PUSH1 0x1 PUSH1 0x3 PUSH1 0x0 DUP10 DUP10 DUP9 DUP2 DUP2 LT PUSH2 0x12CD JUMPI PUSH2 0x12CC PUSH2 0x1C46 JUMP JUMPDEST JUMPDEST SWAP1 POP PUSH1 0x20 MUL ADD CALLDATALOAD DUP2 MSTORE PUSH1 0x20 ADD SWAP1 DUP2 MSTORE PUSH1 0x20 ADD PUSH1 0x0 KECCAK256 PUSH1 0x3 ADD PUSH1 0x0 PUSH2 0x100 EXP DUP2 SLOAD DUP2 PUSH1 0xFF MUL NOT AND SWAP1 DUP4 ISZERO ISZERO MUL OR SWAP1 SSTORE POP POP POP POP DUP1 DUP1 PUSH2 0x130A SWAP1 PUSH2 0x1E79 JUMP JUMPDEST SWAP2 POP POP PUSH2 0xEC3 JUMP JUMPDEST POP CALLER PUSH20 0xFFFFFFFFFFFFFFFFFFFFFFFFFFFFFFFFFFFFFFFF AND PUSH32 0x5CB48022479B9AC3BFB10A27965DC010ACFFC9FC1BC9A52F0B18975B944B54CA DUP5 DUP5 PUSH1 0x40 MLOAD PUSH2 0x135B SWAP3 SWAP2 SWAP1 PUSH2 0x20BF JUMP JUMPDEST PUSH1 0x40 MLOAD DUP1 SWAP2 SUB SWAP1 LOG2 PUSH1 0x1 DUP1 DUP2 SWAP1 SSTORE POP POP POP POP JUMP JUMPDEST PUSH1 0x5 SLOAD DUP2 JUMP JUMPDEST PUSH1 0x4 PUSH1 0x20 MSTORE DUP1 PUSH1 0x0 MSTORE PUSH1 0x40 PUSH1 0x0 KECCAK256 PUSH1 0x0 SWAP2 POP SWAP1 POP DUP1 PUSH1 0x0 ADD PUSH1 0x0 SWAP1 SLOAD SWAP1 PUSH2 0x100 EXP SWAP1 DIV PUSH20 0xFFFFFFFFFFFFFFFFFFFFFFFFFFFFFFFFFFFFFFFF AND SWAP1 DUP1 PUSH1 0x1 ADD SLOAD SWAP1 DUP1 PUSH1 0x2 ADD SLOAD SWAP1 POP DUP4 JUMP JUMPDEST PUSH2 0x13C7 PUSH2 0x1606 JUMP JUMPDEST PUSH1 0x0 PUSH20 0xFFFFFFFFFFFFFFFFFFFFFFFFFFFFFFFFFFFFFFFF AND DUP2 PUSH20 0xFFFFFFFFFFFFFFFFFFFFFFFFFFFFFFFFFFFFFFFF AND SUB PUSH2 0x1436 JUMPI PUSH1 0x40 MLOAD PUSH32 0x8C379A000000000000000000000000000000000000000000000000000000000 DUP2 MSTORE PUSH1 0x4 ADD PUSH2 0x142D SWAP1 PUSH2 0x222D JUMP JUMPDEST PUSH1 0x40 MLOAD DUP1 SWAP2 SUB SWAP1 REVERT JUMPDEST PUSH2 0x143F DUP2 PUSH2 0x1684 JUMP JUMPDEST POP JUMP JUMPDEST PUSH1 0x0 DUP1 DUP3 PUSH20 0xFFFFFFFFFFFFFFFFFFFFFFFFFFFFFFFFFFFFFFFF AND EXTCODESIZE GT SWAP1 POP SWAP2 SWAP1 POP JUMP JUMPDEST PUSH1 0x0 DUP1 PUSH1 0x3 PUSH1 0x0 DUP6 DUP2 MSTORE PUSH1 0x20 ADD SWAP1 DUP2 MSTORE PUSH1 0x20 ADD PUSH1 0x0 KECCAK256 PUSH1 0x40 MLOAD DUP1 PUSH1 0xA0 ADD PUSH1 0x40 MSTORE SWAP1 DUP2 PUSH1 0x0 DUP3 ADD PUSH1 0x0 SWAP1 SLOAD SWAP1 PUSH2 0x100 EXP SWAP1 DIV PUSH20 0xFFFFFFFFFFFFFFFFFFFFFFFFFFFFFFFFFFFFFFFF AND PUSH20 0xFFFFFFFFFFFFFFFFFFFFFFFFFFFFFFFFFFFFFFFF AND PUSH20 0xFFFFFFFFFFFFFFFFFFFFFFFFFFFFFFFFFFFFFFFF AND DUP2 MSTORE PUSH1 0x20 ADD PUSH1 0x1 DUP3 ADD SLOAD DUP2 MSTORE PUSH1 0x20 ADD PUSH1 0x2 DUP3 ADD SLOAD DUP2 MSTORE PUSH1 0x20 ADD PUSH1 0x3 DUP3 ADD PUSH1 0x0 SWAP1 SLOAD SWAP1 PUSH2 0x100 EXP SWAP1 DIV PUSH1 0xFF AND ISZERO ISZERO ISZERO ISZERO DUP2 MSTORE PUSH1 0x20 ADD PUSH1 0x3 DUP3 ADD PUSH1 0x1 SWAP1 SLOAD SWAP1 PUSH2 0x100 EXP SWAP1 DIV PUSH20 0xFFFFFFFFFFFFFFFFFFFFFFFFFFFFFFFFFFFFFFFF AND PUSH20 0xFFFFFFFFFFFFFFFFFFFFFFFFFFFFFFFFFFFFFFFF AND PUSH20 0xFFFFFFFFFFFFFFFFFFFFFFFFFFFFFFFFFFFFFFFF AND DUP2 MSTORE POP POP SWAP1 POP PUSH1 0x0 DUP2 PUSH1 0x20 ADD MLOAD TIMESTAMP PUSH2 0x1575 SWAP2 SWAP1 PUSH2 0x1E1C JUMP JUMPDEST SWAP1 POP PUSH1 0x0 PUSH1 0x2 SLOAD DUP3 LT ISZERO PUSH2 0x158F JUMPI PUSH1 0x0 SWAP4 POP POP POP POP PUSH2 0x1600 JUMP JUMPDEST PUSH1 0x5 SLOAD PUSH1 0x2 SLOAD DUP4 PUSH2 0x15A0 SWAP2 SWAP1 PUSH2 0x1E1C JUMP JUMPDEST PUSH1 0x4 PUSH1 0x0 DUP9 PUSH20 0xFFFFFFFFFFFFFFFFFFFFFFFFFFFFFFFFFFFFFFFF AND PUSH20 0xFFFFFFFFFFFFFFFFFFFFFFFFFFFFFFFFFFFFFFFF AND DUP2 MSTORE PUSH1 0x20 ADD SWAP1 DUP2 MSTORE PUSH1 0x20 ADD PUSH1 0x0 KECCAK256 PUSH1 0x1 ADD SLOAD PUSH2 0x15ED SWAP2 SWAP1 PUSH2 0x224D JUMP JUMPDEST PUSH2 0x15F7 SWAP2 SWAP1 PUSH2 0x22D6 JUMP JUMPDEST SWAP1 POP DUP1 SWAP4 POP POP POP POP JUMPDEST SWAP3 SWAP2 POP POP JUMP JUMPDEST PUSH2 0x160E PUSH2 0x1748 JUMP JUMPDEST PUSH20 0xFFFFFFFFFFFFFFFFFFFFFFFFFFFFFFFFFFFFFFFF AND PUSH2 0x162C PUSH2 0xD37 JUMP JUMPDEST PUSH20 0xFFFFFFFFFFFFFFFFFFFFFFFFFFFFFFFFFFFFFFFF AND EQ PUSH2 0x1682 JUMPI PUSH1 0x40 MLOAD PUSH32 0x8C379A000000000000000000000000000000000000000000000000000000000 DUP2 MSTORE PUSH1 0x4 ADD PUSH2 0x1679 SWAP1 PUSH2 0x2353 JUMP JUMPDEST PUSH1 0x40 MLOAD DUP1 SWAP2 SUB SWAP1 REVERT JUMPDEST JUMP JUMPDEST PUSH1 0x0 DUP1 PUSH1 0x0 SWAP1 SLOAD SWAP1 PUSH2 0x100 EXP SWAP1 DIV PUSH20 0xFFFFFFFFFFFFFFFFFFFFFFFFFFFFFFFFFFFFFFFF AND SWAP1 POP DUP2 PUSH1 0x0 DUP1 PUSH2 0x100 EXP DUP2 SLOAD DUP2 PUSH20 0xFFFFFFFFFFFFFFFFFFFFFFFFFFFFFFFFFFFFFFFF MUL NOT AND SWAP1 DUP4 PUSH20 0xFFFFFFFFFFFFFFFFFFFFFFFFFFFFFFFFFFFFFFFF AND MUL OR SWAP1 SSTORE POP DUP2 PUSH20 0xFFFFFFFFFFFFFFFFFFFFFFFFFFFFFFFFFFFFFFFF AND DUP2 PUSH20 0xFFFFFFFFFFFFFFFFFFFFFFFFFFFFFFFFFFFFFFFF AND PUSH32 0x8BE0079C531659141344CD1FD0A4F28419497F9722A3DAAFE3B4186F6B6457E0 PUSH1 0x40 MLOAD PUSH1 0x40 MLOAD DUP1 SWAP2 SUB SWAP1 LOG3 POP POP JUMP JUMPDEST PUSH1 0x0 CALLER SWAP1 POP SWAP1 JUMP JUMPDEST PUSH1 0x0 DUP1 REVERT JUMPDEST PUSH1 0x0 DUP1 REVERT JUMPDEST PUSH1 0x0 DUP1 REVERT JUMPDEST PUSH1 0x0 DUP1 REVERT JUMPDEST PUSH1 0x0 DUP1 REVERT JUMPDEST PUSH1 0x0 DUP1 DUP4 PUSH1 0x1F DUP5 ADD SLT PUSH2 0x177F JUMPI PUSH2 0x177E PUSH2 0x175A JUMP JUMPDEST JUMPDEST DUP3 CALLDATALOAD SWAP1 POP PUSH8 0xFFFFFFFFFFFFFFFF DUP2 GT ISZERO PUSH2 0x179C JUMPI PUSH2 0x179B PUSH2 0x175F JUMP JUMPDEST JUMPDEST PUSH1 0x20 DUP4 ADD SWAP2 POP DUP4 PUSH1 0x20 DUP3 MUL DUP4 ADD GT ISZERO PUSH2 0x17B8 JUMPI PUSH2 0x17B7 PUSH2 0x1764 JUMP JUMPDEST JUMPDEST SWAP3 POP SWAP3 SWAP1 POP JUMP JUMPDEST PUSH1 0x0 PUSH20 0xFFFFFFFFFFFFFFFFFFFFFFFFFFFFFFFFFFFFFFFF DUP3 AND SWAP1 POP SWAP2 SWAP1 POP JUMP JUMPDEST PUSH1 0x0 PUSH2 0x17EA DUP3 PUSH2 0x17BF JUMP JUMPDEST SWAP1 POP SWAP2 SWAP1 POP JUMP JUMPDEST PUSH1 0x0 PUSH2 0x17FC DUP3 PUSH2 0x17DF JUMP JUMPDEST SWAP1 POP SWAP2 SWAP1 POP JUMP JUMPDEST PUSH2 0x180C DUP2 PUSH2 0x17F1 JUMP JUMPDEST DUP2 EQ PUSH2 0x1817 JUMPI PUSH1 0x0 DUP1 REVERT JUMPDEST POP JUMP JUMPDEST PUSH1 0x0 DUP2 CALLDATALOAD SWAP1 POP PUSH2 0x1829 DUP2 PUSH2 0x1803 JUMP JUMPDEST SWAP3 SWAP2 POP POP JUMP JUMPDEST PUSH1 0x0 DUP1 PUSH1 0x0 PUSH1 0x40 DUP5 DUP7 SUB SLT ISZERO PUSH2 0x1848 JUMPI PUSH2 0x1847 PUSH2 0x1750 JUMP JUMPDEST JUMPDEST PUSH1 0x0 DUP5 ADD CALLDATALOAD PUSH8 0xFFFFFFFFFFFFFFFF DUP2 GT ISZERO PUSH2 0x1866 JUMPI PUSH2 0x1865 PUSH2 0x1755 JUMP JUMPDEST JUMPDEST PUSH2 0x1872 DUP7 DUP3 DUP8 ADD PUSH2 0x1769 JUMP JUMPDEST SWAP4 POP SWAP4 POP POP PUSH1 0x20 PUSH2 0x1885 DUP7 DUP3 DUP8 ADD PUSH2 0x181A JUMP JUMPDEST SWAP2 POP POP SWAP3 POP SWAP3 POP SWAP3 JUMP JUMPDEST PUSH1 0x0 DUP2 SWAP1 POP SWAP2 SWAP1 POP JUMP JUMPDEST PUSH2 0x18A2 DUP2 PUSH2 0x188F JUMP JUMPDEST DUP2 EQ PUSH2 0x18AD JUMPI PUSH1 0x0 DUP1 REVERT JUMPDEST POP JUMP JUMPDEST PUSH1 0x0 DUP2 CALLDATALOAD SWAP1 POP PUSH2 0x18BF DUP2 PUSH2 0x1899 JUMP JUMPDEST SWAP3 SWAP2 POP POP JUMP JUMPDEST PUSH1 0x0 PUSH1 0x20 DUP3 DUP5 SUB SLT ISZERO PUSH2 0x18DB JUMPI PUSH2 0x18DA PUSH2 0x1750 JUMP JUMPDEST JUMPDEST PUSH1 0x0 PUSH2 0x18E9 DUP5 DUP3 DUP6 ADD PUSH2 0x18B0 JUMP JUMPDEST SWAP2 POP POP SWAP3 SWAP2 POP POP JUMP JUMPDEST PUSH2 0x18FB DUP2 PUSH2 0x188F JUMP JUMPDEST DUP3 MSTORE POP POP JUMP JUMPDEST PUSH1 0x0 PUSH1 0x20 DUP3 ADD SWAP1 POP PUSH2 0x1916 PUSH1 0x0 DUP4 ADD DUP5 PUSH2 0x18F2 JUMP JUMPDEST SWAP3 SWAP2 POP POP JUMP JUMPDEST PUSH2 0x1925 DUP2 PUSH2 0x17DF JUMP JUMPDEST DUP3 MSTORE POP POP JUMP JUMPDEST PUSH1 0x0 DUP2 ISZERO ISZERO SWAP1 POP SWAP2 SWAP1 POP JUMP JUMPDEST PUSH2 0x1940 DUP2 PUSH2 0x192B JUMP JUMPDEST DUP3 MSTORE POP POP JUMP JUMPDEST PUSH1 0x0 DUP2 SWAP1 POP SWAP2 SWAP1 POP JUMP JUMPDEST PUSH1 0x0 PUSH2 0x196B PUSH2 0x1966 PUSH2 0x1961 DUP5 PUSH2 0x17BF JUMP JUMPDEST PUSH2 0x1946 JUMP JUMPDEST PUSH2 0x17BF JUMP JUMPDEST SWAP1 POP SWAP2 SWAP1 POP JUMP JUMPDEST PUSH1 0x0 PUSH2 0x197D DUP3 PUSH2 0x1950 JUMP JUMPDEST SWAP1 POP SWAP2 SWAP1 POP JUMP JUMPDEST PUSH1 0x0 PUSH2 0x198F DUP3 PUSH2 0x1972 JUMP JUMPDEST SWAP1 POP SWAP2 SWAP1 POP JUMP JUMPDEST PUSH2 0x199F DUP2 PUSH2 0x1984 JUMP JUMPDEST DUP3 MSTORE POP POP JUMP JUMPDEST PUSH1 0x0 PUSH1 0xA0 DUP3 ADD SWAP1 POP PUSH2 0x19BA PUSH1 0x0 DUP4 ADD DUP9 PUSH2 0x191C JUMP JUMPDEST PUSH2 0x19C7 PUSH1 0x20 DUP4 ADD DUP8 PUSH2 0x18F2 JUMP JUMPDEST PUSH2 0x19D4 PUSH1 0x40 DUP4 ADD DUP7 PUSH2 0x18F2 JUMP JUMPDEST PUSH2 0x19E1 PUSH1 0x60 DUP4 ADD DUP6 PUSH2 0x1937 JUMP JUMPDEST PUSH2 0x19EE PUSH1 0x80 DUP4 ADD DUP5 PUSH2 0x1996 JUMP JUMPDEST SWAP7 SWAP6 POP POP POP POP POP POP JUMP JUMPDEST PUSH1 0x0 PUSH1 0x20 DUP3 ADD SWAP1 POP PUSH2 0x1A0D PUSH1 0x0 DUP4 ADD DUP5 PUSH2 0x191C JUMP JUMPDEST SWAP3 SWAP2 POP POP JUMP JUMPDEST PUSH1 0x0 PUSH1 0x20 DUP3 DUP5 SUB SLT ISZERO PUSH2 0x1A29 JUMPI PUSH2 0x1A28 PUSH2 0x1750 JUMP JUMPDEST JUMPDEST PUSH1 0x0 PUSH2 0x1A37 DUP5 DUP3 DUP6 ADD PUSH2 0x181A JUMP JUMPDEST SWAP2 POP POP SWAP3 SWAP2 POP POP JUMP JUMPDEST PUSH1 0x0 PUSH2 0x1A4B DUP3 PUSH2 0x1972 JUMP JUMPDEST SWAP1 POP SWAP2 SWAP1 POP JUMP JUMPDEST PUSH2 0x1A5B DUP2 PUSH2 0x1A40 JUMP JUMPDEST DUP3 MSTORE POP POP JUMP JUMPDEST PUSH1 0x0 PUSH1 0x60 DUP3 ADD SWAP1 POP PUSH2 0x1A76 PUSH1 0x0 DUP4 ADD DUP7 PUSH2 0x1A52 JUMP JUMPDEST PUSH2 0x1A83 PUSH1 0x20 DUP4 ADD DUP6 PUSH2 0x18F2 JUMP JUMPDEST PUSH2 0x1A90 PUSH1 0x40 DUP4 ADD DUP5 PUSH2 0x18F2 JUMP JUMPDEST SWAP5 SWAP4 POP POP POP POP JUMP JUMPDEST PUSH2 0x1AA1 DUP2 PUSH2 0x17DF JUMP JUMPDEST DUP2 EQ PUSH2 0x1AAC JUMPI PUSH1 0x0 DUP1 REVERT JUMPDEST POP JUMP JUMPDEST PUSH1 0x0 DUP2 CALLDATALOAD SWAP1 POP PUSH2 0x1ABE DUP2 PUSH2 0x1A98 JUMP JUMPDEST SWAP3 SWAP2 POP POP JUMP JUMPDEST PUSH1 0x0 PUSH1 0x20 DUP3 DUP5 SUB SLT ISZERO PUSH2 0x1ADA JUMPI PUSH2 0x1AD9 PUSH2 0x1750 JUMP JUMPDEST JUMPDEST PUSH1 0x0 PUSH2 0x1AE8 DUP5 DUP3 DUP6 ADD PUSH2 0x1AAF JUMP JUMPDEST SWAP2 POP POP SWAP3 SWAP2 POP POP JUMP JUMPDEST PUSH1 0x0 DUP3 DUP3 MSTORE PUSH1 0x20 DUP3 ADD SWAP1 POP SWAP3 SWAP2 POP POP JUMP JUMPDEST PUSH32 0x436F6E7472616374206E6F7420616C6C6F776564000000000000000000000000 PUSH1 0x0 DUP3 ADD MSTORE POP JUMP JUMPDEST PUSH1 0x0 PUSH2 0x1B38 PUSH1 0x14 DUP4 PUSH2 0x1AF1 JUMP JUMPDEST SWAP2 POP PUSH2 0x1B43 DUP3 PUSH2 0x1B02 JUMP JUMPDEST PUSH1 0x20 DUP3 ADD SWAP1 POP SWAP2 SWAP1 POP JUMP JUMPDEST PUSH1 0x0 PUSH1 0x20 DUP3 ADD SWAP1 POP DUP2 DUP2 SUB PUSH1 0x0 DUP4 ADD MSTORE PUSH2 0x1B67 DUP2 PUSH2 0x1B2B JUMP JUMPDEST SWAP1 POP SWAP2 SWAP1 POP JUMP JUMPDEST PUSH32 0x50726F787920636F6E7472616374206E6F7420616C6C6F776564000000000000 PUSH1 0x0 DUP3 ADD MSTORE POP JUMP JUMPDEST PUSH1 0x0 PUSH2 0x1BA4 PUSH1 0x1A DUP4 PUSH2 0x1AF1 JUMP JUMPDEST SWAP2 POP PUSH2 0x1BAF DUP3 PUSH2 0x1B6E JUMP JUMPDEST PUSH1 0x20 DUP3 ADD SWAP1 POP SWAP2 SWAP1 POP JUMP JUMPDEST PUSH1 0x0 PUSH1 0x20 DUP3 ADD SWAP1 POP DUP2 DUP2 SUB PUSH1 0x0 DUP4 ADD MSTORE PUSH2 0x1BD3 DUP2 PUSH2 0x1B97 JUMP JUMPDEST SWAP1 POP SWAP2 SWAP1 POP JUMP JUMPDEST PUSH32 0x4E6F20746F6B656E730000000000000000000000000000000000000000000000 PUSH1 0x0 DUP3 ADD MSTORE POP JUMP JUMPDEST PUSH1 0x0 PUSH2 0x1C10 PUSH1 0x9 DUP4 PUSH2 0x1AF1 JUMP JUMPDEST SWAP2 POP PUSH2 0x1C1B DUP3 PUSH2 0x1BDA JUMP JUMPDEST PUSH1 0x20 DUP3 ADD SWAP1 POP SWAP2 SWAP1 POP JUMP JUMPDEST PUSH1 0x0 PUSH1 0x20 DUP3 ADD SWAP1 POP DUP2 DUP2 SUB PUSH1 0x0 DUP4 ADD MSTORE PUSH2 0x1C3F DUP2 PUSH2 0x1C03 JUMP JUMPDEST SWAP1 POP SWAP2 SWAP1 POP JUMP JUMPDEST PUSH32 0x4E487B7100000000000000000000000000000000000000000000000000000000 PUSH1 0x0 MSTORE PUSH1 0x32 PUSH1 0x4 MSTORE PUSH1 0x24 PUSH1 0x0 REVERT JUMPDEST PUSH32 0x4E6F74206120746F6B656E206F776E6572000000000000000000000000000000 PUSH1 0x0 DUP3 ADD MSTORE POP JUMP JUMPDEST PUSH1 0x0 PUSH2 0x1CAB PUSH1 0x11 DUP4 PUSH2 0x1AF1 JUMP JUMPDEST SWAP2 POP PUSH2 0x1CB6 DUP3 PUSH2 0x1C75 JUMP JUMPDEST PUSH1 0x20 DUP3 ADD SWAP1 POP SWAP2 SWAP1 POP JUMP JUMPDEST PUSH1 0x0 PUSH1 0x20 DUP3 ADD SWAP1 POP DUP2 DUP2 SUB PUSH1 0x0 DUP4 ADD MSTORE PUSH2 0x1CDA DUP2 PUSH2 0x1C9E JUMP JUMPDEST SWAP1 POP SWAP2 SWAP1 POP JUMP JUMPDEST PUSH32 0x4E487B7100000000000000000000000000000000000000000000000000000000 PUSH1 0x0 MSTORE PUSH1 0x11 PUSH1 0x4 MSTORE PUSH1 0x24 PUSH1 0x0 REVERT JUMPDEST PUSH1 0x0 PUSH2 0x1D1B DUP3 PUSH2 0x188F JUMP JUMPDEST SWAP2 POP PUSH2 0x1D26 DUP4 PUSH2 0x188F JUMP JUMPDEST SWAP3 POP DUP3 DUP3 ADD SWAP1 POP DUP1 DUP3 GT ISZERO PUSH2 0x1D3E JUMPI PUSH2 0x1D3D PUSH2 0x1CE1 JUMP JUMPDEST JUMPDEST SWAP3 SWAP2 POP POP JUMP JUMPDEST PUSH32 0x4E6F742061626C6520746F20636C61696D207965740000000000000000000000 PUSH1 0x0 DUP3 ADD MSTORE POP JUMP JUMPDEST PUSH1 0x0 PUSH2 0x1D7A PUSH1 0x15 DUP4 PUSH2 0x1AF1 JUMP JUMPDEST SWAP2 POP PUSH2 0x1D85 DUP3 PUSH2 0x1D44 JUMP JUMPDEST PUSH1 0x20 DUP3 ADD SWAP1 POP SWAP2 SWAP1 POP JUMP JUMPDEST PUSH1 0x0 PUSH1 0x20 DUP3 ADD SWAP1 POP DUP2 DUP2 SUB PUSH1 0x0 DUP4 ADD MSTORE PUSH2 0x1DA9 DUP2 PUSH2 0x1D6D JUMP JUMPDEST SWAP1 POP SWAP2 SWAP1 POP JUMP JUMPDEST PUSH32 0x416C726561647920756E6C6F636B656400000000000000000000000000000000 PUSH1 0x0 DUP3 ADD MSTORE POP JUMP JUMPDEST PUSH1 0x0 PUSH2 0x1DE6 PUSH1 0x10 DUP4 PUSH2 0x1AF1 JUMP JUMPDEST SWAP2 POP PUSH2 0x1DF1 DUP3 PUSH2 0x1DB0 JUMP JUMPDEST PUSH1 0x20 DUP3 ADD SWAP1 POP SWAP2 SWAP1 POP JUMP JUMPDEST PUSH1 0x0 PUSH1 0x20 DUP3 ADD SWAP1 POP DUP2 DUP2 SUB PUSH1 0x0 DUP4 ADD MSTORE PUSH2 0x1E15 DUP2 PUSH2 0x1DD9 JUMP JUMPDEST SWAP1 POP SWAP2 SWAP1 POP JUMP JUMPDEST PUSH1 0x0 PUSH2 0x1E27 DUP3 PUSH2 0x188F JUMP JUMPDEST SWAP2 POP PUSH2 0x1E32 DUP4 PUSH2 0x188F JUMP JUMPDEST SWAP3 POP DUP3 DUP3 SUB SWAP1 POP DUP2 DUP2 GT ISZERO PUSH2 0x1E4A JUMPI PUSH2 0x1E49 PUSH2 0x1CE1 JUMP JUMPDEST JUMPDEST SWAP3 SWAP2 POP POP JUMP JUMPDEST PUSH1 0x0 PUSH1 0x40 DUP3 ADD SWAP1 POP PUSH2 0x1E65 PUSH1 0x0 DUP4 ADD DUP6 PUSH2 0x191C JUMP JUMPDEST PUSH2 0x1E72 PUSH1 0x20 DUP4 ADD DUP5 PUSH2 0x18F2 JUMP JUMPDEST SWAP4 SWAP3 POP POP POP JUMP JUMPDEST PUSH1 0x0 PUSH2 0x1E84 DUP3 PUSH2 0x188F JUMP JUMPDEST SWAP2 POP PUSH32 0xFFFFFFFFFFFFFFFFFFFFFFFFFFFFFFFFFFFFFFFFFFFFFFFFFFFFFFFFFFFFFFFF DUP3 SUB PUSH2 0x1EB6 JUMPI PUSH2 0x1EB5 PUSH2 0x1CE1 JUMP JUMPDEST JUMPDEST PUSH1 0x1 DUP3 ADD SWAP1 POP SWAP2 SWAP1 POP JUMP JUMPDEST PUSH1 0x0 DUP3 DUP3 MSTORE PUSH1 0x20 DUP3 ADD SWAP1 POP SWAP3 SWAP2 POP POP JUMP JUMPDEST PUSH1 0x0 DUP1 REVERT JUMPDEST DUP3 DUP2 DUP4 CALLDATACOPY POP POP POP JUMP JUMPDEST PUSH1 0x0 PUSH2 0x1EEC DUP4 DUP6 PUSH2 0x1EC1 JUMP JUMPDEST SWAP4 POP PUSH32 0x7FFFFFFFFFFFFFFFFFFFFFFFFFFFFFFFFFFFFFFFFFFFFFFFFFFFFFFFFFFFFFF DUP4 GT ISZERO PUSH2 0x1F1F JUMPI PUSH2 0x1F1E PUSH2 0x1ED2 JUMP JUMPDEST JUMPDEST PUSH1 0x20 DUP4 MUL SWAP3 POP PUSH2 0x1F30 DUP4 DUP6 DUP5 PUSH2 0x1ED7 JUMP JUMPDEST DUP3 DUP5 ADD SWAP1 POP SWAP4 SWAP3 POP POP POP JUMP JUMPDEST PUSH1 0x0 PUSH1 0x40 DUP3 ADD SWAP1 POP DUP2 DUP2 SUB PUSH1 0x0 DUP4 ADD MSTORE PUSH2 0x1F57 DUP2 DUP6 DUP8 PUSH2 0x1EE0 JUMP JUMPDEST SWAP1 POP PUSH2 0x1F66 PUSH1 0x20 DUP4 ADD DUP5 PUSH2 0x18F2 JUMP JUMPDEST SWAP5 SWAP4 POP POP POP POP JUMP JUMPDEST PUSH32 0x5265656E7472616E637947756172643A207265656E7472616E742063616C6C00 PUSH1 0x0 DUP3 ADD MSTORE POP JUMP JUMPDEST PUSH1 0x0 PUSH2 0x1FA4 PUSH1 0x1F DUP4 PUSH2 0x1AF1 JUMP JUMPDEST SWAP2 POP PUSH2 0x1FAF DUP3 PUSH2 0x1F6E JUMP JUMPDEST PUSH1 0x20 DUP3 ADD SWAP1 POP SWAP2 SWAP1 POP JUMP JUMPDEST PUSH1 0x0 PUSH1 0x20 DUP3 ADD SWAP1 POP DUP2 DUP2 SUB PUSH1 0x0 DUP4 ADD MSTORE PUSH2 0x1FD3 DUP2 PUSH2 0x1F97 JUMP JUMPDEST SWAP1 POP SWAP2 SWAP1 POP JUMP JUMPDEST PUSH1 0x0 DUP2 MLOAD SWAP1 POP PUSH2 0x1FE9 DUP2 PUSH2 0x1A98 JUMP JUMPDEST SWAP3 SWAP2 POP POP JUMP JUMPDEST PUSH1 0x0 PUSH1 0x20 DUP3 DUP5 SUB SLT ISZERO PUSH2 0x2005 JUMPI PUSH2 0x2004 PUSH2 0x1750 JUMP JUMPDEST JUMPDEST PUSH1 0x0 PUSH2 0x2013 DUP5 DUP3 DUP6 ADD PUSH2 0x1FDA JUMP JUMPDEST SWAP2 POP POP SWAP3 SWAP2 POP POP JUMP JUMPDEST PUSH32 0x596F7520646F6E277420686F6C64207468697320746F6B656E00000000000000 PUSH1 0x0 DUP3 ADD MSTORE POP JUMP JUMPDEST PUSH1 0x0 PUSH2 0x2052 PUSH1 0x19 DUP4 PUSH2 0x1AF1 JUMP JUMPDEST SWAP2 POP PUSH2 0x205D DUP3 PUSH2 0x201C JUMP JUMPDEST PUSH1 0x20 DUP3 ADD SWAP1 POP SWAP2 SWAP1 POP JUMP JUMPDEST PUSH1 0x0 PUSH1 0x20 DUP3 ADD SWAP1 POP DUP2 DUP2 SUB PUSH1 0x0 DUP4 ADD MSTORE PUSH2 0x2081 DUP2 PUSH2 0x2045 JUMP JUMPDEST SWAP1 POP SWAP2 SWAP1 POP JUMP JUMPDEST PUSH1 0x0 PUSH1 0x60 DUP3 ADD SWAP1 POP PUSH2 0x209D PUSH1 0x0 DUP4 ADD DUP7 PUSH2 0x191C JUMP JUMPDEST PUSH2 0x20AA PUSH1 0x20 DUP4 ADD DUP6 PUSH2 0x191C JUMP JUMPDEST PUSH2 0x20B7 PUSH1 0x40 DUP4 ADD DUP5 PUSH2 0x18F2 JUMP JUMPDEST SWAP5 SWAP4 POP POP POP POP JUMP JUMPDEST PUSH1 0x0 PUSH1 0x20 DUP3 ADD SWAP1 POP DUP2 DUP2 SUB PUSH1 0x0 DUP4 ADD MSTORE PUSH2 0x20DA DUP2 DUP5 DUP7 PUSH2 0x1EE0 JUMP JUMPDEST SWAP1 POP SWAP4 SWAP3 POP POP POP JUMP JUMPDEST PUSH32 0x496E76616C6964206C6F636B20706572696F642E000000000000000000000000 PUSH1 0x0 DUP3 ADD MSTORE POP JUMP JUMPDEST PUSH1 0x0 PUSH2 0x2119 PUSH1 0x14 DUP4 PUSH2 0x1AF1 JUMP JUMPDEST SWAP2 POP PUSH2 0x2124 DUP3 PUSH2 0x20E3 JUMP JUMPDEST PUSH1 0x20 DUP3 ADD SWAP1 POP SWAP2 SWAP1 POP JUMP JUMPDEST PUSH1 0x0 PUSH1 0x20 DUP3 ADD SWAP1 POP DUP2 DUP2 SUB PUSH1 0x0 DUP4 ADD MSTORE PUSH2 0x2148 DUP2 PUSH2 0x210C JUMP JUMPDEST SWAP1 POP SWAP2 SWAP1 POP JUMP JUMPDEST PUSH32 0x4E6F742061626C6520746F20756E6C6F636B2079657400000000000000000000 PUSH1 0x0 DUP3 ADD MSTORE POP JUMP JUMPDEST PUSH1 0x0 PUSH2 0x2185 PUSH1 0x16 DUP4 PUSH2 0x1AF1 JUMP JUMPDEST SWAP2 POP PUSH2 0x2190 DUP3 PUSH2 0x214F JUMP JUMPDEST PUSH1 0x20 DUP3 ADD SWAP1 POP SWAP2 SWAP1 POP JUMP JUMPDEST PUSH1 0x0 PUSH1 0x20 DUP3 ADD SWAP1 POP DUP2 DUP2 SUB PUSH1 0x0 DUP4 ADD MSTORE PUSH2 0x21B4 DUP2 PUSH2 0x2178 JUMP JUMPDEST SWAP1 POP SWAP2 SWAP1 POP JUMP JUMPDEST PUSH32 0x4F776E61626C653A206E6577206F776E657220697320746865207A65726F2061 PUSH1 0x0 DUP3 ADD MSTORE PUSH32 0x6464726573730000000000000000000000000000000000000000000000000000 PUSH1 0x20 DUP3 ADD MSTORE POP JUMP JUMPDEST PUSH1 0x0 PUSH2 0x2217 PUSH1 0x26 DUP4 PUSH2 0x1AF1 JUMP JUMPDEST SWAP2 POP PUSH2 0x2222 DUP3 PUSH2 0x21BB JUMP JUMPDEST PUSH1 0x40 DUP3 ADD SWAP1 POP SWAP2 SWAP1 POP JUMP JUMPDEST PUSH1 0x0 PUSH1 0x20 DUP3 ADD SWAP1 POP DUP2 DUP2 SUB PUSH1 0x0 DUP4 ADD MSTORE PUSH2 0x2246 DUP2 PUSH2 0x220A JUMP JUMPDEST SWAP1 POP SWAP2 SWAP1 POP JUMP JUMPDEST PUSH1 0x0 PUSH2 0x2258 DUP3 PUSH2 0x188F JUMP JUMPDEST SWAP2 POP PUSH2 0x2263 DUP4 PUSH2 0x188F JUMP JUMPDEST SWAP3 POP DUP2 PUSH32 0xFFFFFFFFFFFFFFFFFFFFFFFFFFFFFFFFFFFFFFFFFFFFFFFFFFFFFFFFFFFFFFFF DIV DUP4 GT DUP3 ISZERO ISZERO AND ISZERO PUSH2 0x229C JUMPI PUSH2 0x229B PUSH2 0x1CE1 JUMP JUMPDEST JUMPDEST DUP3 DUP3 MUL SWAP1 POP SWAP3 SWAP2 POP POP JUMP JUMPDEST PUSH32 0x4E487B7100000000000000000000000000000000000000000000000000000000 PUSH1 0x0 MSTORE PUSH1 0x12 PUSH1 0x4 MSTORE PUSH1 0x24 PUSH1 0x0 REVERT JUMPDEST PUSH1 0x0 PUSH2 0x22E1 DUP3 PUSH2 0x188F JUMP JUMPDEST SWAP2 POP PUSH2 0x22EC DUP4 PUSH2 0x188F JUMP JUMPDEST SWAP3 POP DUP3 PUSH2 0x22FC JUMPI PUSH2 0x22FB PUSH2 0x22A7 JUMP JUMPDEST JUMPDEST DUP3 DUP3 DIV SWAP1 POP SWAP3 SWAP2 POP POP JUMP JUMPDEST PUSH32 0x4F776E61626C653A2063616C6C6572206973206E6F7420746865206F776E6572 PUSH1 0x0 DUP3 ADD MSTORE POP JUMP JUMPDEST PUSH1 0x0 PUSH2 0x233D PUSH1 0x20 DUP4 PUSH2 0x1AF1 JUMP JUMPDEST SWAP2 POP PUSH2 0x2348 DUP3 PUSH2 0x2307 JUMP JUMPDEST PUSH1 0x20 DUP3 ADD SWAP1 POP SWAP2 SWAP1 POP JUMP JUMPDEST PUSH1 0x0 PUSH1 0x20 DUP3 ADD SWAP1 POP DUP2 DUP2 SUB PUSH1 0x0 DUP4 ADD MSTORE PUSH2 0x236C DUP2 PUSH2 0x2330 JUMP JUMPDEST SWAP1 POP SWAP2 SWAP1 POP JUMP INVALID LOG2 PUSH5 0x6970667358 0x22 SLT KECCAK256 0x25 ADD CHAINID SWAP8 0xC6 DUP7 0xAC 0xC PUSH3 0x28E985 PUSH14 0x371DC8B842BF1022F0D0F860114A 0xD5 PUSH1 0x17 0xDE 0xD4 PUSH5 0x736F6C6343 STOP ADDMOD LT STOP CALLER "
				},
				"gasEstimates": {
					"creation": {
						"codeDepositCost": "1825800",
						"executionCost": "infinite",
						"totalCost": "infinite"
					},
					"external": {
						"WAVE()": "2495",
						"claimRewards(uint256[],address)": "infinite",
						"claimedRewards(uint256)": "infinite",
						"lockInfo(uint256)": "infinite",
						"lockNFT(uint256[],address)": "infinite",
						"lockPeriod()": "2496",
						"nftInfo(address)": "infinite",
						"owner()": "2544",
						"renounceOwnership()": "30509",
						"setLockPeriod(uint256)": "infinite",
						"transferOwnership(address)": "30854",
						"unlockNFT(uint256[],address)": "infinite"
					},
					"internal": {
						"_rewardAmount(uint256,contract IERC721)": "infinite"
					}
				},
				"methodIdentifiers": {
					"WAVE()": "c69d1923",
					"claimRewards(uint256[],address)": "0520537f",
					"claimedRewards(uint256)": "20281a98",
					"lockInfo(uint256)": "5b1a4c24",
					"lockNFT(uint256[],address)": "1902732e",
					"lockPeriod()": "3fd8b02f",
					"nftInfo(address)": "e9545b92",
					"owner()": "8da5cb5b",
					"renounceOwnership()": "715018a6",
					"setLockPeriod(uint256)": "779972da",
					"transferOwnership(address)": "f2fde38b",
					"unlockNFT(uint256[],address)": "9f3625f0"
				}
			},
			"storageLayout": {
				"storage": [
					{
						"astId": 7,
						"contract": "contracts/Staking.sol:NFTStaking1",
						"label": "_owner",
						"offset": 0,
						"slot": "0",
						"type": "t_address"
					},
					{
						"astId": 123,
						"contract": "contracts/Staking.sol:NFTStaking1",
						"label": "_status",
						"offset": 0,
						"slot": "1",
						"type": "t_uint256"
					},
					{
						"astId": 614,
						"contract": "contracts/Staking.sol:NFTStaking1",
						"label": "lockPeriod",
						"offset": 0,
						"slot": "2",
						"type": "t_uint256"
					},
					{
						"astId": 631,
						"contract": "contracts/Staking.sol:NFTStaking1",
						"label": "lockInfo",
						"offset": 0,
						"slot": "3",
						"type": "t_mapping(t_uint256,t_struct(LockInfo)626_storage)"
					},
					{
						"astId": 645,
						"contract": "contracts/Staking.sol:NFTStaking1",
						"label": "nftInfo",
						"offset": 0,
						"slot": "4",
						"type": "t_mapping(t_contract(IERC721)268,t_struct(stakeNftInfo)639_storage)"
					},
					{
						"astId": 648,
						"contract": "contracts/Staking.sol:NFTStaking1",
						"label": "WAVE",
						"offset": 0,
						"slot": "5",
						"type": "t_uint256"
					}
				],
				"types": {
					"t_address": {
						"encoding": "inplace",
						"label": "address",
						"numberOfBytes": "20"
					},
					"t_bool": {
						"encoding": "inplace",
						"label": "bool",
						"numberOfBytes": "1"
					},
					"t_contract(IERC721)268": {
						"encoding": "inplace",
						"label": "contract IERC721",
						"numberOfBytes": "20"
					},
					"t_contract(IRewardsToken)1236": {
						"encoding": "inplace",
						"label": "contract IRewardsToken",
						"numberOfBytes": "20"
					},
					"t_mapping(t_contract(IERC721)268,t_struct(stakeNftInfo)639_storage)": {
						"encoding": "mapping",
						"key": "t_contract(IERC721)268",
						"label": "mapping(contract IERC721 => struct NFTStaking1.stakeNftInfo)",
						"numberOfBytes": "32",
						"value": "t_struct(stakeNftInfo)639_storage"
					},
					"t_mapping(t_uint256,t_struct(LockInfo)626_storage)": {
						"encoding": "mapping",
						"key": "t_uint256",
						"label": "mapping(uint256 => struct NFTStaking1.LockInfo)",
						"numberOfBytes": "32",
						"value": "t_struct(LockInfo)626_storage"
					},
					"t_struct(LockInfo)626_storage": {
						"encoding": "inplace",
						"label": "struct NFTStaking1.LockInfo",
						"members": [
							{
								"astId": 616,
								"contract": "contracts/Staking.sol:NFTStaking1",
								"label": "owner",
								"offset": 0,
								"slot": "0",
								"type": "t_address"
							},
							{
								"astId": 618,
								"contract": "contracts/Staking.sol:NFTStaking1",
								"label": "lockedTime",
								"offset": 0,
								"slot": "1",
								"type": "t_uint256"
							},
							{
								"astId": 620,
								"contract": "contracts/Staking.sol:NFTStaking1",
								"label": "claimedRewards",
								"offset": 0,
								"slot": "2",
								"type": "t_uint256"
							},
							{
								"astId": 622,
								"contract": "contracts/Staking.sol:NFTStaking1",
								"label": "isUnlocked",
								"offset": 0,
								"slot": "3",
								"type": "t_bool"
							},
							{
								"astId": 625,
								"contract": "contracts/Staking.sol:NFTStaking1",
								"label": "contractAddress",
								"offset": 1,
								"slot": "3",
								"type": "t_contract(IERC721)268"
							}
						],
						"numberOfBytes": "128"
					},
					"t_struct(stakeNftInfo)639_storage": {
						"encoding": "inplace",
						"label": "struct NFTStaking1.stakeNftInfo",
						"members": [
							{
								"astId": 634,
								"contract": "contracts/Staking.sol:NFTStaking1",
								"label": "rewardsToken",
								"offset": 0,
								"slot": "0",
								"type": "t_contract(IRewardsToken)1236"
							},
							{
								"astId": 636,
								"contract": "contracts/Staking.sol:NFTStaking1",
								"label": "rewardsPerWave",
								"offset": 0,
								"slot": "1",
								"type": "t_uint256"
							},
							{
								"astId": 638,
								"contract": "contracts/Staking.sol:NFTStaking1",
								"label": "rewardPercentage",
								"offset": 0,
								"slot": "2",
								"type": "t_uint256"
							}
						],
						"numberOfBytes": "96"
					},
					"t_uint256": {
						"encoding": "inplace",
						"label": "uint256",
						"numberOfBytes": "32"
					}
				}
			},
			"userdoc": {
				"kind": "user",
				"methods": {
					"WAVE()": {
						"notice": "CONSTANTS "
					}
				},
				"version": 1
			}
		}
	}
}