{
	"contracts/Staking.sol": {
		"NFTStaking1": {
			"abi": [
				{
					"inputs": [
						{
							"internalType": "uint256",
							"name": "_lockPeriod",
							"type": "uint256"
						},
						{
							"internalType": "uint256",
							"name": "_wave",
							"type": "uint256"
						}
					],
					"stateMutability": "nonpayable",
					"type": "constructor"
				},
				{
					"anonymous": false,
					"inputs": [
						{
							"indexed": false,
							"internalType": "address",
							"name": "collection",
							"type": "address"
						},
						{
							"indexed": false,
							"internalType": "address",
							"name": "reward",
							"type": "address"
						}
					],
					"name": "AddStaking",
					"type": "event"
				},
				{
					"anonymous": false,
					"inputs": [
						{
							"indexed": false,
							"internalType": "uint256",
							"name": "lockPeriod",
							"type": "uint256"
						}
					],
					"name": "LockPeriodUpdated",
					"type": "event"
				},
				{
					"anonymous": false,
					"inputs": [
						{
							"indexed": true,
							"internalType": "address",
							"name": "owner",
							"type": "address"
						},
						{
							"indexed": false,
							"internalType": "uint256[]",
							"name": "tokenIds",
							"type": "uint256[]"
						}
					],
					"name": "NFTLocked",
					"type": "event"
				},
				{
					"anonymous": false,
					"inputs": [
						{
							"indexed": true,
							"internalType": "address",
							"name": "owner",
							"type": "address"
						},
						{
							"indexed": false,
							"internalType": "uint256[]",
							"name": "tokenIds",
							"type": "uint256[]"
						}
					],
					"name": "NFTUnLocked",
					"type": "event"
				},
				{
					"anonymous": false,
					"inputs": [
						{
							"indexed": true,
							"internalType": "address",
							"name": "previousOwner",
							"type": "address"
						},
						{
							"indexed": true,
							"internalType": "address",
							"name": "newOwner",
							"type": "address"
						}
					],
					"name": "OwnershipTransferred",
					"type": "event"
				},
				{
					"anonymous": false,
					"inputs": [
						{
							"indexed": true,
							"internalType": "address",
							"name": "owner",
							"type": "address"
						},
						{
							"indexed": false,
							"internalType": "uint256[]",
							"name": "tokenIds",
							"type": "uint256[]"
						},
						{
							"indexed": false,
							"internalType": "uint256",
							"name": "rewards",
							"type": "uint256"
						}
					],
					"name": "RewardsClaimed",
					"type": "event"
				},
				{
					"inputs": [],
					"name": "WAVE",
					"outputs": [
						{
							"internalType": "uint256",
							"name": "",
							"type": "uint256"
						}
					],
					"stateMutability": "view",
					"type": "function"
				},
				{
					"inputs": [
						{
							"internalType": "address[]",
							"name": "_stakeNFT",
							"type": "address[]"
						},
						{
							"internalType": "address[]",
							"name": "_rewardsToken",
							"type": "address[]"
						},
						{
							"internalType": "uint256[]",
							"name": "_rewardPerWave",
							"type": "uint256[]"
						},
						{
							"internalType": "uint256[]",
							"name": "_rewardPercentage",
							"type": "uint256[]"
						}
					],
					"name": "addStakingNfts",
					"outputs": [],
					"stateMutability": "nonpayable",
					"type": "function"
				},
				{
					"inputs": [
						{
							"internalType": "uint256[]",
							"name": "_tokenIds",
							"type": "uint256[]"
						},
						{
							"internalType": "contract IERC721",
							"name": "nftAddress",
							"type": "address"
						}
					],
					"name": "claimRewards",
					"outputs": [],
					"stateMutability": "nonpayable",
					"type": "function"
				},
				{
					"inputs": [
						{
							"internalType": "uint256",
							"name": "_tokenId",
							"type": "uint256"
						},
						{
							"internalType": "contract IERC721",
							"name": "nftAddress",
							"type": "address"
						}
					],
					"name": "claimedRewards",
					"outputs": [
						{
							"internalType": "uint256",
							"name": "",
							"type": "uint256"
						}
					],
					"stateMutability": "view",
					"type": "function"
				},
				{
					"inputs": [
						{
							"internalType": "contract IERC721",
							"name": "",
							"type": "address"
						},
						{
							"internalType": "uint256",
							"name": "",
							"type": "uint256"
						}
					],
					"name": "lockInfo",
					"outputs": [
						{
							"internalType": "address",
							"name": "owner",
							"type": "address"
						},
						{
							"internalType": "uint256",
							"name": "lockedTime",
							"type": "uint256"
						},
						{
							"internalType": "uint256",
							"name": "claimedRewards",
							"type": "uint256"
						},
						{
							"internalType": "bool",
							"name": "isUnlocked",
							"type": "bool"
						},
						{
							"internalType": "contract IERC721",
							"name": "contractAddress",
							"type": "address"
						}
					],
					"stateMutability": "view",
					"type": "function"
				},
				{
					"inputs": [
						{
							"internalType": "uint256[]",
							"name": "_tokenIds",
							"type": "uint256[]"
						},
						{
							"internalType": "contract IERC721",
							"name": "nftAddress",
							"type": "address"
						}
					],
					"name": "lockNFT",
					"outputs": [],
					"stateMutability": "nonpayable",
					"type": "function"
				},
				{
					"inputs": [],
					"name": "lockPeriod",
					"outputs": [
						{
							"internalType": "uint256",
							"name": "",
							"type": "uint256"
						}
					],
					"stateMutability": "view",
					"type": "function"
				},
				{
					"inputs": [
						{
							"internalType": "contract IERC721",
							"name": "",
							"type": "address"
						}
					],
					"name": "nftInfo",
					"outputs": [
						{
							"internalType": "contract IRewardsToken",
							"name": "rewardsToken",
							"type": "address"
						},
						{
							"internalType": "uint256",
							"name": "rewardsPerWave",
							"type": "uint256"
						},
						{
							"internalType": "uint256",
							"name": "rewardPercentage",
							"type": "uint256"
						}
					],
					"stateMutability": "view",
					"type": "function"
				},
				{
					"inputs": [],
					"name": "owner",
					"outputs": [
						{
							"internalType": "address",
							"name": "",
							"type": "address"
						}
					],
					"stateMutability": "view",
					"type": "function"
				},
				{
					"inputs": [],
					"name": "renounceOwnership",
					"outputs": [],
					"stateMutability": "nonpayable",
					"type": "function"
				},
				{
					"inputs": [
						{
							"internalType": "uint256",
							"name": "_lockPeriod",
							"type": "uint256"
						}
					],
					"name": "setLockPeriod",
					"outputs": [],
					"stateMutability": "nonpayable",
					"type": "function"
				},
				{
					"inputs": [
						{
							"internalType": "address",
							"name": "newOwner",
							"type": "address"
						}
					],
					"name": "transferOwnership",
					"outputs": [],
					"stateMutability": "nonpayable",
					"type": "function"
				},
				{
					"inputs": [
						{
							"internalType": "uint256[]",
							"name": "_tokenIds",
							"type": "uint256[]"
						},
						{
							"internalType": "contract IERC721",
							"name": "nftAddress",
							"type": "address"
						}
					],
					"name": "unlockNFT",
					"outputs": [],
					"stateMutability": "nonpayable",
					"type": "function"
				}
			],
			"devdoc": {
				"kind": "dev",
				"methods": {
					"addStakingNfts(address[],address[],uint256[],uint256[])": {
						"details": "add the address NFT staking addresses and their corresponders",
						"params": {
							"_stakeNFT": ", _rewardsToken, _rewardPerWave, _rewardPercentage"
						}
					},
					"claimRewards(uint256[],address)": {
						"details": "claim rewards",
						"params": {
							"_tokenIds": "token ids to unlock"
						}
					},
					"claimedRewards(uint256,address)": {
						"details": "get total claimed rewards for token id",
						"params": {
							"_tokenId": "token id to get claimed Rewards amount"
						}
					},
					"lockNFT(uint256[],address)": {
						"details": "lock NFT into the contract",
						"params": {
							"_tokenIds": "token ids to stake"
						}
					},
					"owner()": {
						"details": "Returns the address of the current owner."
					},
					"renounceOwnership()": {
						"details": "Leaves the contract without owner. It will not be possible to call `onlyOwner` functions anymore. Can only be called by the current owner. NOTE: Renouncing ownership will leave the contract without an owner, thereby removing any functionality that is only available to the owner."
					},
					"setLockPeriod(uint256)": {
						"details": "update lock period",
						"params": {
							"_lockPeriod": "lock period to set"
						}
					},
					"transferOwnership(address)": {
						"details": "Transfers ownership of the contract to a new account (`newOwner`). Can only be called by the current owner."
					},
					"unlockNFT(uint256[],address)": {
						"details": "unlock NFT from the contract",
						"params": {
							"_tokenIds": "token ids to unlock"
						}
					}
				},
				"version": 1
			},
			"evm": {
				"assembly": "    /* \"contracts/Staking.sol\":412:7822  contract NFTStaking1 is Ownable, ReentrancyGuard {... */\n  mstore(0x40, 0x80)\n    /* \"contracts/Staking.sol\":1640:1844  constructor(... */\n  callvalue\n  dup1\n  iszero\n  tag_1\n  jumpi\n  0x00\n  dup1\n  revert\ntag_1:\n  pop\n  mload(0x40)\n  sub(codesize, bytecodeSize)\n  dup1\n  bytecodeSize\n  dup4\n  codecopy\n  dup2\n  dup2\n  add\n  0x40\n  mstore\n  dup2\n  add\n  swap1\n  tag_2\n  swap2\n  swap1\n  tag_3\n  jump\t// in\ntag_2:\n    /* \"@openzeppelin/contracts/access/Ownable.sol\":936:968  _transferOwnership(_msgSender()) */\n  tag_8\n    /* \"@openzeppelin/contracts/access/Ownable.sol\":955:967  _msgSender() */\n  tag_9\n    /* \"@openzeppelin/contracts/access/Ownable.sol\":955:965  _msgSender */\n  shl(0x20, tag_10)\n    /* \"@openzeppelin/contracts/access/Ownable.sol\":955:967  _msgSender() */\n  0x20\n  shr\n  jump\t// in\ntag_9:\n    /* \"@openzeppelin/contracts/access/Ownable.sol\":936:954  _transferOwnership */\n  shl(0x20, tag_11)\n    /* \"@openzeppelin/contracts/access/Ownable.sol\":936:968  _transferOwnership(_msgSender()) */\n  0x20\n  shr\n  jump\t// in\ntag_8:\n    /* \"@openzeppelin/contracts/security/ReentrancyGuard.sol\":1701:1702  1 */\n  0x01\n    /* \"@openzeppelin/contracts/security/ReentrancyGuard.sol\":1806:1813  _status */\n  dup1\n    /* \"@openzeppelin/contracts/security/ReentrancyGuard.sol\":1806:1828  _status = _NOT_ENTERED */\n  dup2\n  swap1\n  sstore\n  pop\n    /* \"contracts/Staking.sol\":1751:1752  0 */\n  0x00\n    /* \"contracts/Staking.sol\":1737:1748  _lockPeriod */\n  dup3\n    /* \"contracts/Staking.sol\":1737:1752  _lockPeriod > 0 */\n  gt\n    /* \"contracts/Staking.sol\":1729:1776  require(_lockPeriod > 0, \"Invalid lock period\") */\n  tag_14\n  jumpi\n  mload(0x40)\n  0x08c379a000000000000000000000000000000000000000000000000000000000\n  dup2\n  mstore\n  0x04\n  add\n  tag_15\n  swap1\n  tag_16\n  jump\t// in\ntag_15:\n  mload(0x40)\n  dup1\n  swap2\n  sub\n  swap1\n  revert\ntag_14:\n    /* \"contracts/Staking.sol\":1802:1813  _lockPeriod */\n  dup2\n    /* \"contracts/Staking.sol\":1789:1799  lockPeriod */\n  0x02\n    /* \"contracts/Staking.sol\":1789:1813  lockPeriod = _lockPeriod */\n  dup2\n  swap1\n  sstore\n  pop\n    /* \"contracts/Staking.sol\":1831:1836  _wave */\n  dup1\n    /* \"contracts/Staking.sol\":1824:1828  WAVE */\n  0x05\n    /* \"contracts/Staking.sol\":1824:1836  WAVE = _wave */\n  dup2\n  swap1\n  sstore\n  pop\n    /* \"contracts/Staking.sol\":1640:1844  constructor(... */\n  pop\n  pop\n    /* \"contracts/Staking.sol\":412:7822  contract NFTStaking1 is Ownable, ReentrancyGuard {... */\n  jump(tag_17)\n    /* \"@openzeppelin/contracts/utils/Context.sol\":640:736  function _msgSender() internal view virtual returns (address) {... */\ntag_10:\n    /* \"@openzeppelin/contracts/utils/Context.sol\":693:700  address */\n  0x00\n    /* \"@openzeppelin/contracts/utils/Context.sol\":719:729  msg.sender */\n  caller\n    /* \"@openzeppelin/contracts/utils/Context.sol\":712:729  return msg.sender */\n  swap1\n  pop\n    /* \"@openzeppelin/contracts/utils/Context.sol\":640:736  function _msgSender() internal view virtual returns (address) {... */\n  swap1\n  jump\t// out\n    /* \"@openzeppelin/contracts/access/Ownable.sol\":2433:2620  function _transferOwnership(address newOwner) internal virtual {... */\ntag_11:\n    /* \"@openzeppelin/contracts/access/Ownable.sol\":2506:2522  address oldOwner */\n  0x00\n    /* \"@openzeppelin/contracts/access/Ownable.sol\":2525:2531  _owner */\n  dup1\n  0x00\n  swap1\n  sload\n  swap1\n  0x0100\n  exp\n  swap1\n  div\n  0xffffffffffffffffffffffffffffffffffffffff\n  and\n    /* \"@openzeppelin/contracts/access/Ownable.sol\":2506:2531  address oldOwner = _owner */\n  swap1\n  pop\n    /* \"@openzeppelin/contracts/access/Ownable.sol\":2550:2558  newOwner */\n  dup2\n    /* \"@openzeppelin/contracts/access/Ownable.sol\":2541:2547  _owner */\n  0x00\n  dup1\n    /* \"@openzeppelin/contracts/access/Ownable.sol\":2541:2558  _owner = newOwner */\n  0x0100\n  exp\n  dup2\n  sload\n  dup2\n  0xffffffffffffffffffffffffffffffffffffffff\n  mul\n  not\n  and\n  swap1\n  dup4\n  0xffffffffffffffffffffffffffffffffffffffff\n  and\n  mul\n  or\n  swap1\n  sstore\n  pop\n    /* \"@openzeppelin/contracts/access/Ownable.sol\":2604:2612  newOwner */\n  dup2\n    /* \"@openzeppelin/contracts/access/Ownable.sol\":2573:2613  OwnershipTransferred(oldOwner, newOwner) */\n  0xffffffffffffffffffffffffffffffffffffffff\n  and\n    /* \"@openzeppelin/contracts/access/Ownable.sol\":2594:2602  oldOwner */\n  dup2\n    /* \"@openzeppelin/contracts/access/Ownable.sol\":2573:2613  OwnershipTransferred(oldOwner, newOwner) */\n  0xffffffffffffffffffffffffffffffffffffffff\n  and\n  0x8be0079c531659141344cd1fd0a4f28419497f9722a3daafe3b4186f6b6457e0\n  mload(0x40)\n  mload(0x40)\n  dup1\n  swap2\n  sub\n  swap1\n  log3\n    /* \"@openzeppelin/contracts/access/Ownable.sol\":2496:2620  {... */\n  pop\n    /* \"@openzeppelin/contracts/access/Ownable.sol\":2433:2620  function _transferOwnership(address newOwner) internal virtual {... */\n  pop\n  jump\t// out\n    /* \"#utility.yul\":88:205   */\ntag_21:\n    /* \"#utility.yul\":197:198   */\n  0x00\n    /* \"#utility.yul\":194:195   */\n  dup1\n    /* \"#utility.yul\":187:199   */\n  revert\n    /* \"#utility.yul\":334:411   */\ntag_23:\n    /* \"#utility.yul\":371:378   */\n  0x00\n    /* \"#utility.yul\":400:405   */\n  dup2\n    /* \"#utility.yul\":389:405   */\n  swap1\n  pop\n    /* \"#utility.yul\":334:411   */\n  swap2\n  swap1\n  pop\n  jump\t// out\n    /* \"#utility.yul\":417:539   */\ntag_24:\n    /* \"#utility.yul\":490:514   */\n  tag_35\n    /* \"#utility.yul\":508:513   */\n  dup2\n    /* \"#utility.yul\":490:514   */\n  tag_23\n  jump\t// in\ntag_35:\n    /* \"#utility.yul\":483:488   */\n  dup2\n    /* \"#utility.yul\":480:515   */\n  eq\n    /* \"#utility.yul\":470:533   */\n  tag_36\n  jumpi\n    /* \"#utility.yul\":529:530   */\n  0x00\n    /* \"#utility.yul\":526:527   */\n  dup1\n    /* \"#utility.yul\":519:531   */\n  revert\n    /* \"#utility.yul\":470:533   */\ntag_36:\n    /* \"#utility.yul\":417:539   */\n  pop\n  jump\t// out\n    /* \"#utility.yul\":545:688   */\ntag_25:\n    /* \"#utility.yul\":602:607   */\n  0x00\n    /* \"#utility.yul\":633:639   */\n  dup2\n    /* \"#utility.yul\":627:640   */\n  mload\n    /* \"#utility.yul\":618:640   */\n  swap1\n  pop\n    /* \"#utility.yul\":649:682   */\n  tag_38\n    /* \"#utility.yul\":676:681   */\n  dup2\n    /* \"#utility.yul\":649:682   */\n  tag_24\n  jump\t// in\ntag_38:\n    /* \"#utility.yul\":545:688   */\n  swap3\n  swap2\n  pop\n  pop\n  jump\t// out\n    /* \"#utility.yul\":694:1201   */\ntag_3:\n    /* \"#utility.yul\":773:779   */\n  0x00\n    /* \"#utility.yul\":781:787   */\n  dup1\n    /* \"#utility.yul\":830:832   */\n  0x40\n    /* \"#utility.yul\":818:827   */\n  dup4\n    /* \"#utility.yul\":809:816   */\n  dup6\n    /* \"#utility.yul\":805:828   */\n  sub\n    /* \"#utility.yul\":801:833   */\n  slt\n    /* \"#utility.yul\":798:917   */\n  iszero\n  tag_40\n  jumpi\n    /* \"#utility.yul\":836:915   */\n  tag_41\n  tag_21\n  jump\t// in\ntag_41:\n    /* \"#utility.yul\":798:917   */\ntag_40:\n    /* \"#utility.yul\":956:957   */\n  0x00\n    /* \"#utility.yul\":981:1045   */\n  tag_42\n    /* \"#utility.yul\":1037:1044   */\n  dup6\n    /* \"#utility.yul\":1028:1034   */\n  dup3\n    /* \"#utility.yul\":1017:1026   */\n  dup7\n    /* \"#utility.yul\":1013:1035   */\n  add\n    /* \"#utility.yul\":981:1045   */\n  tag_25\n  jump\t// in\ntag_42:\n    /* \"#utility.yul\":971:1045   */\n  swap3\n  pop\n    /* \"#utility.yul\":927:1055   */\n  pop\n    /* \"#utility.yul\":1094:1096   */\n  0x20\n    /* \"#utility.yul\":1120:1184   */\n  tag_43\n    /* \"#utility.yul\":1176:1183   */\n  dup6\n    /* \"#utility.yul\":1167:1173   */\n  dup3\n    /* \"#utility.yul\":1156:1165   */\n  dup7\n    /* \"#utility.yul\":1152:1174   */\n  add\n    /* \"#utility.yul\":1120:1184   */\n  tag_25\n  jump\t// in\ntag_43:\n    /* \"#utility.yul\":1110:1184   */\n  swap2\n  pop\n    /* \"#utility.yul\":1065:1194   */\n  pop\n    /* \"#utility.yul\":694:1201   */\n  swap3\n  pop\n  swap3\n  swap1\n  pop\n  jump\t// out\n    /* \"#utility.yul\":1207:1376   */\ntag_26:\n    /* \"#utility.yul\":1291:1302   */\n  0x00\n    /* \"#utility.yul\":1325:1331   */\n  dup3\n    /* \"#utility.yul\":1320:1323   */\n  dup3\n    /* \"#utility.yul\":1313:1332   */\n  mstore\n    /* \"#utility.yul\":1365:1369   */\n  0x20\n    /* \"#utility.yul\":1360:1363   */\n  dup3\n    /* \"#utility.yul\":1356:1370   */\n  add\n    /* \"#utility.yul\":1341:1370   */\n  swap1\n  pop\n    /* \"#utility.yul\":1207:1376   */\n  swap3\n  swap2\n  pop\n  pop\n  jump\t// out\n    /* \"#utility.yul\":1382:1551   */\ntag_27:\n    /* \"#utility.yul\":1522:1543   */\n  0x496e76616c6964206c6f636b20706572696f6400000000000000000000000000\n    /* \"#utility.yul\":1518:1519   */\n  0x00\n    /* \"#utility.yul\":1510:1516   */\n  dup3\n    /* \"#utility.yul\":1506:1520   */\n  add\n    /* \"#utility.yul\":1499:1544   */\n  mstore\n    /* \"#utility.yul\":1382:1551   */\n  pop\n  jump\t// out\n    /* \"#utility.yul\":1557:1923   */\ntag_28:\n    /* \"#utility.yul\":1699:1702   */\n  0x00\n    /* \"#utility.yul\":1720:1787   */\n  tag_47\n    /* \"#utility.yul\":1784:1786   */\n  0x13\n    /* \"#utility.yul\":1779:1782   */\n  dup4\n    /* \"#utility.yul\":1720:1787   */\n  tag_26\n  jump\t// in\ntag_47:\n    /* \"#utility.yul\":1713:1787   */\n  swap2\n  pop\n    /* \"#utility.yul\":1796:1889   */\n  tag_48\n    /* \"#utility.yul\":1885:1888   */\n  dup3\n    /* \"#utility.yul\":1796:1889   */\n  tag_27\n  jump\t// in\ntag_48:\n    /* \"#utility.yul\":1914:1916   */\n  0x20\n    /* \"#utility.yul\":1909:1912   */\n  dup3\n    /* \"#utility.yul\":1905:1917   */\n  add\n    /* \"#utility.yul\":1898:1917   */\n  swap1\n  pop\n    /* \"#utility.yul\":1557:1923   */\n  swap2\n  swap1\n  pop\n  jump\t// out\n    /* \"#utility.yul\":1929:2348   */\ntag_16:\n    /* \"#utility.yul\":2095:2099   */\n  0x00\n    /* \"#utility.yul\":2133:2135   */\n  0x20\n    /* \"#utility.yul\":2122:2131   */\n  dup3\n    /* \"#utility.yul\":2118:2136   */\n  add\n    /* \"#utility.yul\":2110:2136   */\n  swap1\n  pop\n    /* \"#utility.yul\":2182:2191   */\n  dup2\n    /* \"#utility.yul\":2176:2180   */\n  dup2\n    /* \"#utility.yul\":2172:2192   */\n  sub\n    /* \"#utility.yul\":2168:2169   */\n  0x00\n    /* \"#utility.yul\":2157:2166   */\n  dup4\n    /* \"#utility.yul\":2153:2170   */\n  add\n    /* \"#utility.yul\":2146:2193   */\n  mstore\n    /* \"#utility.yul\":2210:2341   */\n  tag_50\n    /* \"#utility.yul\":2336:2340   */\n  dup2\n    /* \"#utility.yul\":2210:2341   */\n  tag_28\n  jump\t// in\ntag_50:\n    /* \"#utility.yul\":2202:2341   */\n  swap1\n  pop\n    /* \"#utility.yul\":1929:2348   */\n  swap2\n  swap1\n  pop\n  jump\t// out\n    /* \"contracts/Staking.sol\":412:7822  contract NFTStaking1 is Ownable, ReentrancyGuard {... */\ntag_17:\n  dataSize(sub_0)\n  dup1\n  dataOffset(sub_0)\n  0x00\n  codecopy\n  0x00\n  return\nstop\n\nsub_0: assembly {\n        /* \"contracts/Staking.sol\":412:7822  contract NFTStaking1 is Ownable, ReentrancyGuard {... */\n      mstore(0x40, 0x80)\n      callvalue\n      dup1\n      iszero\n      tag_1\n      jumpi\n      0x00\n      dup1\n      revert\n    tag_1:\n      pop\n      jumpi(tag_2, lt(calldatasize, 0x04))\n      shr(0xe0, calldataload(0x00))\n      dup1\n      0x9f3625f0\n      gt\n      tag_16\n      jumpi\n      dup1\n      0xc69d1923\n      gt\n      tag_17\n      jumpi\n      dup1\n      0xc69d1923\n      eq\n      tag_12\n      jumpi\n      dup1\n      0xe9545b92\n      eq\n      tag_13\n      jumpi\n      dup1\n      0xeee00ed0\n      eq\n      tag_14\n      jumpi\n      dup1\n      0xf2fde38b\n      eq\n      tag_15\n      jumpi\n      jump(tag_2)\n    tag_17:\n      dup1\n      0x9f3625f0\n      eq\n      tag_9\n      jumpi\n      dup1\n      0xb2520a7c\n      eq\n      tag_10\n      jumpi\n      dup1\n      0xb33068c4\n      eq\n      tag_11\n      jumpi\n      jump(tag_2)\n    tag_16:\n      dup1\n      0x0520537f\n      eq\n      tag_3\n      jumpi\n      dup1\n      0x1902732e\n      eq\n      tag_4\n      jumpi\n      dup1\n      0x3fd8b02f\n      eq\n      tag_5\n      jumpi\n      dup1\n      0x715018a6\n      eq\n      tag_6\n      jumpi\n      dup1\n      0x779972da\n      eq\n      tag_7\n      jumpi\n      dup1\n      0x8da5cb5b\n      eq\n      tag_8\n      jumpi\n    tag_2:\n      0x00\n      dup1\n      revert\n        /* \"contracts/Staking.sol\":6081:7244  function claimRewards(uint256[] calldata _tokenIds,IERC721 nftAddress) external notContract {... */\n    tag_3:\n      tag_18\n      0x04\n      dup1\n      calldatasize\n      sub\n      dup2\n      add\n      swap1\n      tag_19\n      swap2\n      swap1\n      tag_20\n      jump\t// in\n    tag_19:\n      tag_21\n      jump\t// in\n    tag_18:\n      stop\n        /* \"contracts/Staking.sol\":3876:4632  function lockNFT(uint256[] calldata  _tokenIds, IERC721 nftAddress ) external notContract nonReentrant {... */\n    tag_4:\n      tag_22\n      0x04\n      dup1\n      calldatasize\n      sub\n      dup2\n      add\n      swap1\n      tag_23\n      swap2\n      swap1\n      tag_20\n      jump\t// in\n    tag_23:\n      tag_24\n      jump\t// in\n    tag_22:\n      stop\n        /* \"contracts/Staking.sol\":502:527  uint256 public lockPeriod */\n    tag_5:\n      tag_25\n      tag_26\n      jump\t// in\n    tag_25:\n      mload(0x40)\n      tag_27\n      swap2\n      swap1\n      tag_28\n      jump\t// in\n    tag_27:\n      mload(0x40)\n      dup1\n      swap2\n      sub\n      swap1\n      return\n        /* \"@openzeppelin/contracts/access/Ownable.sol\":1831:1932  function renounceOwnership() public virtual onlyOwner {... */\n    tag_6:\n      tag_29\n      tag_30\n      jump\t// in\n    tag_29:\n      stop\n        /* \"contracts/Staking.sol\":3180:3393  function setLockPeriod(uint256 _lockPeriod) external onlyOwner {... */\n    tag_7:\n      tag_31\n      0x04\n      dup1\n      calldatasize\n      sub\n      dup2\n      add\n      swap1\n      tag_32\n      swap2\n      swap1\n      tag_33\n      jump\t// in\n    tag_32:\n      tag_34\n      jump\t// in\n    tag_31:\n      stop\n        /* \"@openzeppelin/contracts/access/Ownable.sol\":1201:1286  function owner() public view virtual returns (address) {... */\n    tag_8:\n      tag_35\n      tag_36\n      jump\t// in\n    tag_35:\n      mload(0x40)\n      tag_37\n      swap2\n      swap1\n      tag_38\n      jump\t// in\n    tag_37:\n      mload(0x40)\n      dup1\n      swap2\n      sub\n      swap1\n      return\n        /* \"contracts/Staking.sol\":4745:5983  function unlockNFT(uint256[] calldata _tokenIds, IERC721 nftAddress) external notContract nonReentrant {... */\n    tag_9:\n      tag_39\n      0x04\n      dup1\n      calldatasize\n      sub\n      dup2\n      add\n      swap1\n      tag_40\n      swap2\n      swap1\n      tag_20\n      jump\t// in\n    tag_40:\n      tag_41\n      jump\t// in\n    tag_39:\n      stop\n        /* \"contracts/Staking.sol\":770:834  mapping(IERC721 => mapping(uint256 => LockInfo)) public lockInfo */\n    tag_10:\n      tag_42\n      0x04\n      dup1\n      calldatasize\n      sub\n      dup2\n      add\n      swap1\n      tag_43\n      swap2\n      swap1\n      tag_44\n      jump\t// in\n    tag_43:\n      tag_45\n      jump\t// in\n    tag_42:\n      mload(0x40)\n      tag_46\n      swap6\n      swap5\n      swap4\n      swap3\n      swap2\n      swap1\n      tag_47\n      jump\t// in\n    tag_46:\n      mload(0x40)\n      dup1\n      swap2\n      sub\n      swap1\n      return\n        /* \"contracts/Staking.sol\":3561:3735  function claimedRewards(uint256 _tokenId, IERC721 nftAddress) external view returns (uint256) {... */\n    tag_11:\n      tag_48\n      0x04\n      dup1\n      calldatasize\n      sub\n      dup2\n      add\n      swap1\n      tag_49\n      swap2\n      swap1\n      tag_50\n      jump\t// in\n    tag_49:\n      tag_51\n      jump\t// in\n    tag_48:\n      mload(0x40)\n      tag_52\n      swap2\n      swap1\n      tag_28\n      jump\t// in\n    tag_52:\n      mload(0x40)\n      dup1\n      swap2\n      sub\n      swap1\n      return\n        /* \"contracts/Staking.sol\":1099:1118  uint256 public WAVE */\n    tag_12:\n      tag_53\n      tag_54\n      jump\t// in\n    tag_53:\n      mload(0x40)\n      tag_55\n      swap2\n      swap1\n      tag_28\n      jump\t// in\n    tag_55:\n      mload(0x40)\n      dup1\n      swap2\n      sub\n      swap1\n      return\n        /* \"contracts/Staking.sol\":1016:1063  mapping(IERC721 => stakeNftInfo) public nftInfo */\n    tag_13:\n      tag_56\n      0x04\n      dup1\n      calldatasize\n      sub\n      dup2\n      add\n      swap1\n      tag_57\n      swap2\n      swap1\n      tag_58\n      jump\t// in\n    tag_57:\n      tag_59\n      jump\t// in\n    tag_56:\n      mload(0x40)\n      tag_60\n      swap4\n      swap3\n      swap2\n      swap1\n      tag_61\n      jump\t// in\n    tag_60:\n      mload(0x40)\n      dup1\n      swap2\n      sub\n      swap1\n      return\n        /* \"contracts/Staking.sol\":2267:3056  function addStakingNfts(... */\n    tag_14:\n      tag_62\n      0x04\n      dup1\n      calldatasize\n      sub\n      dup2\n      add\n      swap1\n      tag_63\n      swap2\n      swap1\n      tag_64\n      jump\t// in\n    tag_63:\n      tag_65\n      jump\t// in\n    tag_62:\n      stop\n        /* \"@openzeppelin/contracts/access/Ownable.sol\":2081:2279  function transferOwnership(address newOwner) public virtual onlyOwner {... */\n    tag_15:\n      tag_66\n      0x04\n      dup1\n      calldatasize\n      sub\n      dup2\n      add\n      swap1\n      tag_67\n      swap2\n      swap1\n      tag_68\n      jump\t// in\n    tag_67:\n      tag_69\n      jump\t// in\n    tag_66:\n      stop\n        /* \"contracts/Staking.sol\":6081:7244  function claimRewards(uint256[] calldata _tokenIds,IERC721 nftAddress) external notContract {... */\n    tag_21:\n        /* \"contracts/Staking.sol\":1917:1949  address(msg.sender).isContract() */\n      tag_71\n        /* \"contracts/Staking.sol\":1925:1935  msg.sender */\n      caller\n        /* \"contracts/Staking.sol\":1917:1947  address(msg.sender).isContract */\n      0xffffffffffffffffffffffffffffffffffffffff\n      and\n      tag_72\n        /* \"contracts/Staking.sol\":1917:1949  address(msg.sender).isContract() */\n      jump\t// in\n    tag_71:\n        /* \"contracts/Staking.sol\":1916:1949  !address(msg.sender).isContract() */\n      iszero\n        /* \"contracts/Staking.sol\":1908:1974  require(!address(msg.sender).isContract(), \"Contract not allowed\") */\n      tag_73\n      jumpi\n      mload(0x40)\n      0x08c379a000000000000000000000000000000000000000000000000000000000\n      dup2\n      mstore\n      0x04\n      add\n      tag_74\n      swap1\n      tag_75\n      jump\t// in\n    tag_74:\n      mload(0x40)\n      dup1\n      swap2\n      sub\n      swap1\n      revert\n    tag_73:\n        /* \"contracts/Staking.sol\":2007:2016  tx.origin */\n      origin\n        /* \"contracts/Staking.sol\":1993:2016  msg.sender == tx.origin */\n      0xffffffffffffffffffffffffffffffffffffffff\n      and\n        /* \"contracts/Staking.sol\":1993:2003  msg.sender */\n      caller\n        /* \"contracts/Staking.sol\":1993:2016  msg.sender == tx.origin */\n      0xffffffffffffffffffffffffffffffffffffffff\n      and\n      eq\n        /* \"contracts/Staking.sol\":1985:2047  require(msg.sender == tx.origin, \"Proxy contract not allowed\") */\n      tag_76\n      jumpi\n      mload(0x40)\n      0x08c379a000000000000000000000000000000000000000000000000000000000\n      dup2\n      mstore\n      0x04\n      add\n      tag_77\n      swap1\n      tag_78\n      jump\t// in\n    tag_77:\n      mload(0x40)\n      dup1\n      swap2\n      sub\n      swap1\n      revert\n    tag_76:\n        /* \"contracts/Staking.sol\":6242:6284  0x0000000000000000000000000000000000000000 */\n      0x00\n        /* \"contracts/Staking.sol\":6192:6285  nftInfo[nftAddress].rewardsToken != IRewardsToken(0x0000000000000000000000000000000000000000) */\n      0xffffffffffffffffffffffffffffffffffffffff\n      and\n        /* \"contracts/Staking.sol\":6192:6199  nftInfo */\n      0x04\n        /* \"contracts/Staking.sol\":6192:6211  nftInfo[nftAddress] */\n      0x00\n        /* \"contracts/Staking.sol\":6200:6210  nftAddress */\n      dup4\n        /* \"contracts/Staking.sol\":6192:6211  nftInfo[nftAddress] */\n      0xffffffffffffffffffffffffffffffffffffffff\n      and\n      0xffffffffffffffffffffffffffffffffffffffff\n      and\n      dup2\n      mstore\n      0x20\n      add\n      swap1\n      dup2\n      mstore\n      0x20\n      add\n      0x00\n      keccak256\n        /* \"contracts/Staking.sol\":6192:6224  nftInfo[nftAddress].rewardsToken */\n      0x00\n      add\n      0x00\n      swap1\n      sload\n      swap1\n      0x0100\n      exp\n      swap1\n      div\n      0xffffffffffffffffffffffffffffffffffffffff\n      and\n        /* \"contracts/Staking.sol\":6192:6285  nftInfo[nftAddress].rewardsToken != IRewardsToken(0x0000000000000000000000000000000000000000) */\n      0xffffffffffffffffffffffffffffffffffffffff\n      and\n      sub\n        /* \"contracts/Staking.sol\":6184:6336  require(nftInfo[nftAddress].rewardsToken != IRewardsToken(0x0000000000000000000000000000000000000000), \"Staking: Register collection by addStakingNfts\") */\n      tag_80\n      jumpi\n      mload(0x40)\n      0x08c379a000000000000000000000000000000000000000000000000000000000\n      dup2\n      mstore\n      0x04\n      add\n      tag_81\n      swap1\n      tag_82\n      jump\t// in\n    tag_81:\n      mload(0x40)\n      dup1\n      swap2\n      sub\n      swap1\n      revert\n    tag_80:\n        /* \"contracts/Staking.sol\":6374:6375  0 */\n      0x00\n        /* \"contracts/Staking.sol\":6355:6364  _tokenIds */\n      dup4\n      dup4\n        /* \"contracts/Staking.sol\":6355:6371  _tokenIds.length */\n      swap1\n      pop\n        /* \"contracts/Staking.sol\":6355:6375  _tokenIds.length > 0 */\n      gt\n        /* \"contracts/Staking.sol\":6347:6389  require(_tokenIds.length > 0, \"No tokens\") */\n      tag_83\n      jumpi\n      mload(0x40)\n      0x08c379a000000000000000000000000000000000000000000000000000000000\n      dup2\n      mstore\n      0x04\n      add\n      tag_84\n      swap1\n      tag_85\n      jump\t// in\n    tag_84:\n      mload(0x40)\n      dup1\n      swap2\n      sub\n      swap1\n      revert\n    tag_83:\n        /* \"contracts/Staking.sol\":6402:6422  uint256 totalRewards */\n      0x00\n        /* \"contracts/Staking.sol\":6438:6447  uint256 i */\n      dup1\n        /* \"contracts/Staking.sol\":6450:6451  0 */\n      0x00\n        /* \"contracts/Staking.sol\":6438:6451  uint256 i = 0 */\n      swap1\n      pop\n        /* \"contracts/Staking.sol\":6433:7168  for (uint256 i = 0; i < _tokenIds.length; i++) {... */\n    tag_86:\n        /* \"contracts/Staking.sol\":6457:6466  _tokenIds */\n      dup5\n      dup5\n        /* \"contracts/Staking.sol\":6457:6473  _tokenIds.length */\n      swap1\n      pop\n        /* \"contracts/Staking.sol\":6453:6454  i */\n      dup2\n        /* \"contracts/Staking.sol\":6453:6473  i < _tokenIds.length */\n      lt\n        /* \"contracts/Staking.sol\":6433:7168  for (uint256 i = 0; i < _tokenIds.length; i++) {... */\n      iszero\n      tag_87\n      jumpi\n        /* \"contracts/Staking.sol\":6495:6515  LockInfo memory info */\n      0x00\n        /* \"contracts/Staking.sol\":6518:6526  lockInfo */\n      0x03\n        /* \"contracts/Staking.sol\":6518:6547  lockInfo[IERC721(nftAddress)] */\n      0x00\n        /* \"contracts/Staking.sol\":6535:6545  nftAddress */\n      dup6\n        /* \"contracts/Staking.sol\":6518:6547  lockInfo[IERC721(nftAddress)] */\n      0xffffffffffffffffffffffffffffffffffffffff\n      and\n      0xffffffffffffffffffffffffffffffffffffffff\n      and\n      dup2\n      mstore\n      0x20\n      add\n      swap1\n      dup2\n      mstore\n      0x20\n      add\n      0x00\n      keccak256\n        /* \"contracts/Staking.sol\":6518:6561  lockInfo[IERC721(nftAddress)][_tokenIds[i]] */\n      0x00\n        /* \"contracts/Staking.sol\":6548:6557  _tokenIds */\n      dup8\n      dup8\n        /* \"contracts/Staking.sol\":6558:6559  i */\n      dup6\n        /* \"contracts/Staking.sol\":6548:6560  _tokenIds[i] */\n      dup2\n      dup2\n      lt\n      tag_89\n      jumpi\n      tag_90\n      tag_91\n      jump\t// in\n    tag_90:\n    tag_89:\n      swap1\n      pop\n      0x20\n      mul\n      add\n      calldataload\n        /* \"contracts/Staking.sol\":6518:6561  lockInfo[IERC721(nftAddress)][_tokenIds[i]] */\n      dup2\n      mstore\n      0x20\n      add\n      swap1\n      dup2\n      mstore\n      0x20\n      add\n      0x00\n      keccak256\n        /* \"contracts/Staking.sol\":6495:6561  LockInfo memory info = lockInfo[IERC721(nftAddress)][_tokenIds[i]] */\n      mload(0x40)\n      dup1\n      0xa0\n      add\n      0x40\n      mstore\n      swap1\n      dup2\n      0x00\n      dup3\n      add\n      0x00\n      swap1\n      sload\n      swap1\n      0x0100\n      exp\n      swap1\n      div\n      0xffffffffffffffffffffffffffffffffffffffff\n      and\n      0xffffffffffffffffffffffffffffffffffffffff\n      and\n      0xffffffffffffffffffffffffffffffffffffffff\n      and\n      dup2\n      mstore\n      0x20\n      add\n      0x01\n      dup3\n      add\n      sload\n      dup2\n      mstore\n      0x20\n      add\n      0x02\n      dup3\n      add\n      sload\n      dup2\n      mstore\n      0x20\n      add\n      0x03\n      dup3\n      add\n      0x00\n      swap1\n      sload\n      swap1\n      0x0100\n      exp\n      swap1\n      div\n      0xff\n      and\n      iszero\n      iszero\n      iszero\n      iszero\n      dup2\n      mstore\n      0x20\n      add\n      0x03\n      dup3\n      add\n      0x01\n      swap1\n      sload\n      swap1\n      0x0100\n      exp\n      swap1\n      div\n      0xffffffffffffffffffffffffffffffffffffffff\n      and\n      0xffffffffffffffffffffffffffffffffffffffff\n      and\n      0xffffffffffffffffffffffffffffffffffffffff\n      and\n      dup2\n      mstore\n      pop\n      pop\n      swap1\n      pop\n        /* \"contracts/Staking.sol\":6598:6608  msg.sender */\n      caller\n        /* \"contracts/Staking.sol\":6584:6608  info.owner == msg.sender */\n      0xffffffffffffffffffffffffffffffffffffffff\n      and\n        /* \"contracts/Staking.sol\":6584:6588  info */\n      dup2\n        /* \"contracts/Staking.sol\":6584:6594  info.owner */\n      0x00\n      add\n      mload\n        /* \"contracts/Staking.sol\":6584:6608  info.owner == msg.sender */\n      0xffffffffffffffffffffffffffffffffffffffff\n      and\n      eq\n        /* \"contracts/Staking.sol\":6576:6630  require(info.owner == msg.sender, \"Not a token owner\") */\n      tag_92\n      jumpi\n      mload(0x40)\n      0x08c379a000000000000000000000000000000000000000000000000000000000\n      dup2\n      mstore\n      0x04\n      add\n      tag_93\n      swap1\n      tag_94\n      jump\t// in\n    tag_93:\n      mload(0x40)\n      dup1\n      swap2\n      sub\n      swap1\n      revert\n    tag_92:\n        /* \"contracts/Staking.sol\":6684:6699  block.timestamp */\n      timestamp\n        /* \"contracts/Staking.sol\":6671:6681  lockPeriod */\n      sload(0x02)\n        /* \"contracts/Staking.sol\":6653:6657  info */\n      dup3\n        /* \"contracts/Staking.sol\":6653:6668  info.lockedTime */\n      0x20\n      add\n      mload\n        /* \"contracts/Staking.sol\":6653:6681  info.lockedTime + lockPeriod */\n      tag_95\n      swap2\n      swap1\n      tag_96\n      jump\t// in\n    tag_95:\n        /* \"contracts/Staking.sol\":6653:6699  info.lockedTime + lockPeriod < block.timestamp */\n      lt\n        /* \"contracts/Staking.sol\":6645:6725  require(info.lockedTime + lockPeriod < block.timestamp, \"Not able to claim yet\") */\n      tag_97\n      jumpi\n      mload(0x40)\n      0x08c379a000000000000000000000000000000000000000000000000000000000\n      dup2\n      mstore\n      0x04\n      add\n      tag_98\n      swap1\n      tag_99\n      jump\t// in\n    tag_98:\n      mload(0x40)\n      dup1\n      swap2\n      sub\n      swap1\n      revert\n    tag_97:\n        /* \"contracts/Staking.sol\":6749:6753  info */\n      dup1\n        /* \"contracts/Staking.sol\":6749:6764  info.isUnlocked */\n      0x60\n      add\n      mload\n        /* \"contracts/Staking.sol\":6748:6764  !info.isUnlocked */\n      iszero\n        /* \"contracts/Staking.sol\":6740:6785  require(!info.isUnlocked, \"Already unlocked\") */\n      tag_100\n      jumpi\n      mload(0x40)\n      0x08c379a000000000000000000000000000000000000000000000000000000000\n      dup2\n      mstore\n      0x04\n      add\n      tag_101\n      swap1\n      tag_102\n      jump\t// in\n    tag_101:\n      mload(0x40)\n      dup1\n      swap2\n      sub\n      swap1\n      revert\n    tag_100:\n        /* \"contracts/Staking.sol\":6802:6821  uint256 totalAmount */\n      0x00\n        /* \"contracts/Staking.sol\":6824:6863  _rewardAmount(_tokenIds[i], nftAddress) */\n      tag_103\n        /* \"contracts/Staking.sol\":6838:6847  _tokenIds */\n      dup8\n      dup8\n        /* \"contracts/Staking.sol\":6848:6849  i */\n      dup6\n        /* \"contracts/Staking.sol\":6838:6850  _tokenIds[i] */\n      dup2\n      dup2\n      lt\n      tag_104\n      jumpi\n      tag_105\n      tag_91\n      jump\t// in\n    tag_105:\n    tag_104:\n      swap1\n      pop\n      0x20\n      mul\n      add\n      calldataload\n        /* \"contracts/Staking.sol\":6852:6862  nftAddress */\n      dup7\n        /* \"contracts/Staking.sol\":6824:6837  _rewardAmount */\n      tag_106\n        /* \"contracts/Staking.sol\":6824:6863  _rewardAmount(_tokenIds[i], nftAddress) */\n      jump\t// in\n    tag_103:\n        /* \"contracts/Staking.sol\":6802:6863  uint256 totalAmount = _rewardAmount(_tokenIds[i], nftAddress) */\n      swap1\n      pop\n        /* \"contracts/Staking.sol\":6878:6902  uint256 unclaminedAmount */\n      0x00\n        /* \"contracts/Staking.sol\":6919:6923  info */\n      dup3\n        /* \"contracts/Staking.sol\":6919:6938  info.claimedRewards */\n      0x40\n      add\n      mload\n        /* \"contracts/Staking.sol\":6905:6916  totalAmount */\n      dup3\n        /* \"contracts/Staking.sol\":6905:6938  totalAmount - info.claimedRewards */\n      tag_107\n      swap2\n      swap1\n      tag_108\n      jump\t// in\n    tag_107:\n        /* \"contracts/Staking.sol\":6878:6938  uint256 unclaminedAmount = totalAmount - info.claimedRewards */\n      swap1\n      pop\n        /* \"contracts/Staking.sol\":6953:6960  nftInfo */\n      0x04\n        /* \"contracts/Staking.sol\":6953:6972  nftInfo[nftAddress] */\n      0x00\n        /* \"contracts/Staking.sol\":6961:6971  nftAddress */\n      dup8\n        /* \"contracts/Staking.sol\":6953:6972  nftInfo[nftAddress] */\n      0xffffffffffffffffffffffffffffffffffffffff\n      and\n      0xffffffffffffffffffffffffffffffffffffffff\n      and\n      dup2\n      mstore\n      0x20\n      add\n      swap1\n      dup2\n      mstore\n      0x20\n      add\n      0x00\n      keccak256\n        /* \"contracts/Staking.sol\":6953:6985  nftInfo[nftAddress].rewardsToken */\n      0x00\n      add\n      0x00\n      swap1\n      sload\n      swap1\n      0x0100\n      exp\n      swap1\n      div\n      0xffffffffffffffffffffffffffffffffffffffff\n      and\n        /* \"contracts/Staking.sol\":6953:6990  nftInfo[nftAddress].rewardsToken.mint */\n      0xffffffffffffffffffffffffffffffffffffffff\n      and\n      0x40c10f19\n        /* \"contracts/Staking.sol\":6991:7001  msg.sender */\n      caller\n        /* \"contracts/Staking.sol\":7003:7019  unclaminedAmount */\n      dup4\n        /* \"contracts/Staking.sol\":6953:7020  nftInfo[nftAddress].rewardsToken.mint(msg.sender, unclaminedAmount) */\n      mload(0x40)\n      dup4\n      0xffffffff\n      and\n      0xe0\n      shl\n      dup2\n      mstore\n      0x04\n      add\n      tag_109\n      swap3\n      swap2\n      swap1\n      tag_110\n      jump\t// in\n    tag_109:\n      0x00\n      mload(0x40)\n      dup1\n      dup4\n      sub\n      dup2\n      0x00\n      dup8\n      dup1\n      extcodesize\n      iszero\n      dup1\n      iszero\n      tag_111\n      jumpi\n      0x00\n      dup1\n      revert\n    tag_111:\n      pop\n      gas\n      call\n      iszero\n      dup1\n      iszero\n      tag_113\n      jumpi\n      returndatasize\n      0x00\n      dup1\n      returndatacopy\n      revert(0x00, returndatasize)\n    tag_113:\n      pop\n      pop\n      pop\n      pop\n        /* \"contracts/Staking.sol\":7051:7067  unclaminedAmount */\n      dup1\n        /* \"contracts/Staking.sol\":7035:7067  totalRewards += unclaminedAmount */\n      dup6\n      tag_114\n      swap2\n      swap1\n      tag_96\n      jump\t// in\n    tag_114:\n      swap5\n      pop\n        /* \"contracts/Staking.sol\":7145:7156  totalAmount */\n      dup2\n        /* \"contracts/Staking.sol\":7084:7092  lockInfo */\n      0x03\n        /* \"contracts/Staking.sol\":7084:7113  lockInfo[IERC721(nftAddress)] */\n      0x00\n        /* \"contracts/Staking.sol\":7101:7111  nftAddress */\n      dup9\n        /* \"contracts/Staking.sol\":7084:7113  lockInfo[IERC721(nftAddress)] */\n      0xffffffffffffffffffffffffffffffffffffffff\n      and\n      0xffffffffffffffffffffffffffffffffffffffff\n      and\n      dup2\n      mstore\n      0x20\n      add\n      swap1\n      dup2\n      mstore\n      0x20\n      add\n      0x00\n      keccak256\n        /* \"contracts/Staking.sol\":7084:7127  lockInfo[IERC721(nftAddress)][_tokenIds[i]] */\n      0x00\n        /* \"contracts/Staking.sol\":7114:7123  _tokenIds */\n      dup11\n      dup11\n        /* \"contracts/Staking.sol\":7124:7125  i */\n      dup9\n        /* \"contracts/Staking.sol\":7114:7126  _tokenIds[i] */\n      dup2\n      dup2\n      lt\n      tag_115\n      jumpi\n      tag_116\n      tag_91\n      jump\t// in\n    tag_116:\n    tag_115:\n      swap1\n      pop\n      0x20\n      mul\n      add\n      calldataload\n        /* \"contracts/Staking.sol\":7084:7127  lockInfo[IERC721(nftAddress)][_tokenIds[i]] */\n      dup2\n      mstore\n      0x20\n      add\n      swap1\n      dup2\n      mstore\n      0x20\n      add\n      0x00\n      keccak256\n        /* \"contracts/Staking.sol\":7084:7142  lockInfo[IERC721(nftAddress)][_tokenIds[i]].claimedRewards */\n      0x02\n      add\n        /* \"contracts/Staking.sol\":7084:7156  lockInfo[IERC721(nftAddress)][_tokenIds[i]].claimedRewards = totalAmount */\n      dup2\n      swap1\n      sstore\n      pop\n        /* \"contracts/Staking.sol\":6480:7168  {... */\n      pop\n      pop\n      pop\n        /* \"contracts/Staking.sol\":6475:6478  i++ */\n      dup1\n      dup1\n      tag_117\n      swap1\n      tag_118\n      jump\t// in\n    tag_117:\n      swap2\n      pop\n      pop\n        /* \"contracts/Staking.sol\":6433:7168  for (uint256 i = 0; i < _tokenIds.length; i++) {... */\n      jump(tag_86)\n    tag_87:\n      pop\n        /* \"contracts/Staking.sol\":7200:7210  msg.sender */\n      caller\n        /* \"contracts/Staking.sol\":7185:7236  RewardsClaimed(msg.sender, _tokenIds, totalRewards) */\n      0xffffffffffffffffffffffffffffffffffffffff\n      and\n      0x37826be3c26dbad83731f4b985f22fa9ef86b6d1974cd77208332b7f1f283c0c\n        /* \"contracts/Staking.sol\":7212:7221  _tokenIds */\n      dup6\n      dup6\n        /* \"contracts/Staking.sol\":7223:7235  totalRewards */\n      dup5\n        /* \"contracts/Staking.sol\":7185:7236  RewardsClaimed(msg.sender, _tokenIds, totalRewards) */\n      mload(0x40)\n      tag_119\n      swap4\n      swap3\n      swap2\n      swap1\n      tag_120\n      jump\t// in\n    tag_119:\n      mload(0x40)\n      dup1\n      swap2\n      sub\n      swap1\n      log2\n        /* \"contracts/Staking.sol\":6173:7244  {... */\n      pop\n        /* \"contracts/Staking.sol\":6081:7244  function claimRewards(uint256[] calldata _tokenIds,IERC721 nftAddress) external notContract {... */\n      pop\n      pop\n      pop\n      jump\t// out\n        /* \"contracts/Staking.sol\":3876:4632  function lockNFT(uint256[] calldata  _tokenIds, IERC721 nftAddress ) external notContract nonReentrant {... */\n    tag_24:\n        /* \"contracts/Staking.sol\":1917:1949  address(msg.sender).isContract() */\n      tag_122\n        /* \"contracts/Staking.sol\":1925:1935  msg.sender */\n      caller\n        /* \"contracts/Staking.sol\":1917:1947  address(msg.sender).isContract */\n      0xffffffffffffffffffffffffffffffffffffffff\n      and\n      tag_72\n        /* \"contracts/Staking.sol\":1917:1949  address(msg.sender).isContract() */\n      jump\t// in\n    tag_122:\n        /* \"contracts/Staking.sol\":1916:1949  !address(msg.sender).isContract() */\n      iszero\n        /* \"contracts/Staking.sol\":1908:1974  require(!address(msg.sender).isContract(), \"Contract not allowed\") */\n      tag_123\n      jumpi\n      mload(0x40)\n      0x08c379a000000000000000000000000000000000000000000000000000000000\n      dup2\n      mstore\n      0x04\n      add\n      tag_124\n      swap1\n      tag_75\n      jump\t// in\n    tag_124:\n      mload(0x40)\n      dup1\n      swap2\n      sub\n      swap1\n      revert\n    tag_123:\n        /* \"contracts/Staking.sol\":2007:2016  tx.origin */\n      origin\n        /* \"contracts/Staking.sol\":1993:2016  msg.sender == tx.origin */\n      0xffffffffffffffffffffffffffffffffffffffff\n      and\n        /* \"contracts/Staking.sol\":1993:2003  msg.sender */\n      caller\n        /* \"contracts/Staking.sol\":1993:2016  msg.sender == tx.origin */\n      0xffffffffffffffffffffffffffffffffffffffff\n      and\n      eq\n        /* \"contracts/Staking.sol\":1985:2047  require(msg.sender == tx.origin, \"Proxy contract not allowed\") */\n      tag_125\n      jumpi\n      mload(0x40)\n      0x08c379a000000000000000000000000000000000000000000000000000000000\n      dup2\n      mstore\n      0x04\n      add\n      tag_126\n      swap1\n      tag_78\n      jump\t// in\n    tag_126:\n      mload(0x40)\n      dup1\n      swap2\n      sub\n      swap1\n      revert\n    tag_125:\n        /* \"@openzeppelin/contracts/security/ReentrancyGuard.sol\":1744:1745  2 */\n      0x02\n        /* \"@openzeppelin/contracts/security/ReentrancyGuard.sol\":2325:2332  _status */\n      sload(0x01)\n        /* \"@openzeppelin/contracts/security/ReentrancyGuard.sol\":2325:2344  _status != _ENTERED */\n      sub\n        /* \"@openzeppelin/contracts/security/ReentrancyGuard.sol\":2317:2380  require(_status != _ENTERED, \"ReentrancyGuard: reentrant call\") */\n      tag_128\n      jumpi\n      mload(0x40)\n      0x08c379a000000000000000000000000000000000000000000000000000000000\n      dup2\n      mstore\n      0x04\n      add\n      tag_129\n      swap1\n      tag_130\n      jump\t// in\n    tag_129:\n      mload(0x40)\n      dup1\n      swap2\n      sub\n      swap1\n      revert\n    tag_128:\n        /* \"@openzeppelin/contracts/security/ReentrancyGuard.sol\":1744:1745  2 */\n      0x02\n        /* \"@openzeppelin/contracts/security/ReentrancyGuard.sol\":2455:2462  _status */\n      0x01\n        /* \"@openzeppelin/contracts/security/ReentrancyGuard.sol\":2455:2473  _status = _ENTERED */\n      dup2\n      swap1\n      sstore\n      pop\n        /* \"contracts/Staking.sol\":4050:4092  0x0000000000000000000000000000000000000000 */\n      0x00\n        /* \"contracts/Staking.sol\":4000:4093  nftInfo[nftAddress].rewardsToken != IRewardsToken(0x0000000000000000000000000000000000000000) */\n      0xffffffffffffffffffffffffffffffffffffffff\n      and\n        /* \"contracts/Staking.sol\":4000:4007  nftInfo */\n      0x04\n        /* \"contracts/Staking.sol\":4000:4019  nftInfo[nftAddress] */\n      0x00\n        /* \"contracts/Staking.sol\":4008:4018  nftAddress */\n      dup4\n        /* \"contracts/Staking.sol\":4000:4019  nftInfo[nftAddress] */\n      0xffffffffffffffffffffffffffffffffffffffff\n      and\n      0xffffffffffffffffffffffffffffffffffffffff\n      and\n      dup2\n      mstore\n      0x20\n      add\n      swap1\n      dup2\n      mstore\n      0x20\n      add\n      0x00\n      keccak256\n        /* \"contracts/Staking.sol\":4000:4032  nftInfo[nftAddress].rewardsToken */\n      0x00\n      add\n      0x00\n      swap1\n      sload\n      swap1\n      0x0100\n      exp\n      swap1\n      div\n      0xffffffffffffffffffffffffffffffffffffffff\n      and\n        /* \"contracts/Staking.sol\":4000:4093  nftInfo[nftAddress].rewardsToken != IRewardsToken(0x0000000000000000000000000000000000000000) */\n      0xffffffffffffffffffffffffffffffffffffffff\n      and\n      sub\n        /* \"contracts/Staking.sol\":3992:4144  require(nftInfo[nftAddress].rewardsToken != IRewardsToken(0x0000000000000000000000000000000000000000), \"Staking: Register collection by addStakingNfts\") */\n      tag_132\n      jumpi\n      mload(0x40)\n      0x08c379a000000000000000000000000000000000000000000000000000000000\n      dup2\n      mstore\n      0x04\n      add\n      tag_133\n      swap1\n      tag_82\n      jump\t// in\n    tag_133:\n      mload(0x40)\n      dup1\n      swap2\n      sub\n      swap1\n      revert\n    tag_132:\n        /* \"contracts/Staking.sol\":4182:4183  0 */\n      0x00\n        /* \"contracts/Staking.sol\":4163:4172  _tokenIds */\n      dup4\n      dup4\n        /* \"contracts/Staking.sol\":4163:4179  _tokenIds.length */\n      swap1\n      pop\n        /* \"contracts/Staking.sol\":4163:4183  _tokenIds.length > 0 */\n      gt\n        /* \"contracts/Staking.sol\":4155:4197  require(_tokenIds.length > 0, \"No tokens\") */\n      tag_134\n      jumpi\n      mload(0x40)\n      0x08c379a000000000000000000000000000000000000000000000000000000000\n      dup2\n      mstore\n      0x04\n      add\n      tag_135\n      swap1\n      tag_85\n      jump\t// in\n    tag_135:\n      mload(0x40)\n      dup1\n      swap2\n      sub\n      swap1\n      revert\n    tag_134:\n        /* \"contracts/Staking.sol\":4215:4224  uint256 i */\n      0x00\n        /* \"contracts/Staking.sol\":4210:4575  for (uint256 i = 0; i < _tokenIds.length; i++) {... */\n    tag_136:\n        /* \"contracts/Staking.sol\":4234:4243  _tokenIds */\n      dup4\n      dup4\n        /* \"contracts/Staking.sol\":4234:4250  _tokenIds.length */\n      swap1\n      pop\n        /* \"contracts/Staking.sol\":4230:4231  i */\n      dup2\n        /* \"contracts/Staking.sol\":4230:4250  i < _tokenIds.length */\n      lt\n        /* \"contracts/Staking.sol\":4210:4575  for (uint256 i = 0; i < _tokenIds.length; i++) {... */\n      iszero\n      tag_137\n      jumpi\n        /* \"contracts/Staking.sol\":4316:4326  msg.sender */\n      caller\n        /* \"contracts/Staking.sol\":4280:4326  nftAddress.ownerOf(_tokenIds[i]) == msg.sender */\n      0xffffffffffffffffffffffffffffffffffffffff\n      and\n        /* \"contracts/Staking.sol\":4280:4290  nftAddress */\n      dup3\n        /* \"contracts/Staking.sol\":4280:4298  nftAddress.ownerOf */\n      0xffffffffffffffffffffffffffffffffffffffff\n      and\n      0x6352211e\n        /* \"contracts/Staking.sol\":4299:4308  _tokenIds */\n      dup7\n      dup7\n        /* \"contracts/Staking.sol\":4309:4310  i */\n      dup6\n        /* \"contracts/Staking.sol\":4299:4311  _tokenIds[i] */\n      dup2\n      dup2\n      lt\n      tag_139\n      jumpi\n      tag_140\n      tag_91\n      jump\t// in\n    tag_140:\n    tag_139:\n      swap1\n      pop\n      0x20\n      mul\n      add\n      calldataload\n        /* \"contracts/Staking.sol\":4280:4312  nftAddress.ownerOf(_tokenIds[i]) */\n      mload(0x40)\n      dup3\n      0xffffffff\n      and\n      0xe0\n      shl\n      dup2\n      mstore\n      0x04\n      add\n      tag_141\n      swap2\n      swap1\n      tag_28\n      jump\t// in\n    tag_141:\n      0x20\n      mload(0x40)\n      dup1\n      dup4\n      sub\n      dup2\n      dup7\n      gas\n      staticcall\n      iszero\n      dup1\n      iszero\n      tag_143\n      jumpi\n      returndatasize\n      0x00\n      dup1\n      returndatacopy\n      revert(0x00, returndatasize)\n    tag_143:\n      pop\n      pop\n      pop\n      pop\n      mload(0x40)\n      returndatasize\n      not(0x1f)\n      0x1f\n      dup3\n      add\n      and\n      dup3\n      add\n      dup1\n      0x40\n      mstore\n      pop\n      dup2\n      add\n      swap1\n      tag_144\n      swap2\n      swap1\n      tag_145\n      jump\t// in\n    tag_144:\n        /* \"contracts/Staking.sol\":4280:4326  nftAddress.ownerOf(_tokenIds[i]) == msg.sender */\n      0xffffffffffffffffffffffffffffffffffffffff\n      and\n      eq\n        /* \"contracts/Staking.sol\":4272:4356  require(nftAddress.ownerOf(_tokenIds[i]) == msg.sender, \"You don't hold this token\") */\n      tag_146\n      jumpi\n      mload(0x40)\n      0x08c379a000000000000000000000000000000000000000000000000000000000\n      dup2\n      mstore\n      0x04\n      add\n      tag_147\n      swap1\n      tag_148\n      jump\t// in\n    tag_147:\n      mload(0x40)\n      dup1\n      swap2\n      sub\n      swap1\n      revert\n    tag_146:\n        /* \"contracts/Staking.sol\":4371:4381  nftAddress */\n      dup2\n        /* \"contracts/Staking.sol\":4371:4394  nftAddress.transferFrom */\n      0xffffffffffffffffffffffffffffffffffffffff\n      and\n      0x23b872dd\n        /* \"contracts/Staking.sol\":4395:4405  msg.sender */\n      caller\n        /* \"contracts/Staking.sol\":4415:4419  this */\n      address\n        /* \"contracts/Staking.sol\":4422:4431  _tokenIds */\n      dup8\n      dup8\n        /* \"contracts/Staking.sol\":4432:4433  i */\n      dup7\n        /* \"contracts/Staking.sol\":4422:4434  _tokenIds[i] */\n      dup2\n      dup2\n      lt\n      tag_149\n      jumpi\n      tag_150\n      tag_91\n      jump\t// in\n    tag_150:\n    tag_149:\n      swap1\n      pop\n      0x20\n      mul\n      add\n      calldataload\n        /* \"contracts/Staking.sol\":4371:4435  nftAddress.transferFrom(msg.sender, address(this), _tokenIds[i]) */\n      mload(0x40)\n      dup5\n      0xffffffff\n      and\n      0xe0\n      shl\n      dup2\n      mstore\n      0x04\n      add\n      tag_151\n      swap4\n      swap3\n      swap2\n      swap1\n      tag_152\n      jump\t// in\n    tag_151:\n      0x00\n      mload(0x40)\n      dup1\n      dup4\n      sub\n      dup2\n      0x00\n      dup8\n      dup1\n      extcodesize\n      iszero\n      dup1\n      iszero\n      tag_153\n      jumpi\n      0x00\n      dup1\n      revert\n    tag_153:\n      pop\n      gas\n      call\n      iszero\n      dup1\n      iszero\n      tag_155\n      jumpi\n      returndatasize\n      0x00\n      dup1\n      returndatacopy\n      revert(0x00, returndatasize)\n    tag_155:\n      pop\n      pop\n      pop\n      pop\n        /* \"contracts/Staking.sol\":4496:4563  LockInfo(msg.sender, block.timestamp, 0, false,IERC721(nftAddress)) */\n      mload(0x40)\n      dup1\n      0xa0\n      add\n      0x40\n      mstore\n      dup1\n        /* \"contracts/Staking.sol\":4505:4515  msg.sender */\n      caller\n        /* \"contracts/Staking.sol\":4496:4563  LockInfo(msg.sender, block.timestamp, 0, false,IERC721(nftAddress)) */\n      0xffffffffffffffffffffffffffffffffffffffff\n      and\n      dup2\n      mstore\n      0x20\n      add\n        /* \"contracts/Staking.sol\":4517:4532  block.timestamp */\n      timestamp\n        /* \"contracts/Staking.sol\":4496:4563  LockInfo(msg.sender, block.timestamp, 0, false,IERC721(nftAddress)) */\n      dup2\n      mstore\n      0x20\n      add\n        /* \"contracts/Staking.sol\":4534:4535  0 */\n      0x00\n        /* \"contracts/Staking.sol\":4496:4563  LockInfo(msg.sender, block.timestamp, 0, false,IERC721(nftAddress)) */\n      dup2\n      mstore\n      0x20\n      add\n        /* \"contracts/Staking.sol\":4537:4542  false */\n      0x00\n        /* \"contracts/Staking.sol\":4496:4563  LockInfo(msg.sender, block.timestamp, 0, false,IERC721(nftAddress)) */\n      iszero\n      iszero\n      dup2\n      mstore\n      0x20\n      add\n        /* \"contracts/Staking.sol\":4551:4561  nftAddress */\n      dup4\n        /* \"contracts/Staking.sol\":4496:4563  LockInfo(msg.sender, block.timestamp, 0, false,IERC721(nftAddress)) */\n      0xffffffffffffffffffffffffffffffffffffffff\n      and\n      dup2\n      mstore\n      pop\n        /* \"contracts/Staking.sol\":4450:4458  lockInfo */\n      0x03\n        /* \"contracts/Staking.sol\":4450:4479  lockInfo[IERC721(nftAddress)] */\n      0x00\n        /* \"contracts/Staking.sol\":4467:4477  nftAddress */\n      dup5\n        /* \"contracts/Staking.sol\":4450:4479  lockInfo[IERC721(nftAddress)] */\n      0xffffffffffffffffffffffffffffffffffffffff\n      and\n      0xffffffffffffffffffffffffffffffffffffffff\n      and\n      dup2\n      mstore\n      0x20\n      add\n      swap1\n      dup2\n      mstore\n      0x20\n      add\n      0x00\n      keccak256\n        /* \"contracts/Staking.sol\":4450:4493  lockInfo[IERC721(nftAddress)][_tokenIds[i]] */\n      0x00\n        /* \"contracts/Staking.sol\":4480:4489  _tokenIds */\n      dup7\n      dup7\n        /* \"contracts/Staking.sol\":4490:4491  i */\n      dup6\n        /* \"contracts/Staking.sol\":4480:4492  _tokenIds[i] */\n      dup2\n      dup2\n      lt\n      tag_156\n      jumpi\n      tag_157\n      tag_91\n      jump\t// in\n    tag_157:\n    tag_156:\n      swap1\n      pop\n      0x20\n      mul\n      add\n      calldataload\n        /* \"contracts/Staking.sol\":4450:4493  lockInfo[IERC721(nftAddress)][_tokenIds[i]] */\n      dup2\n      mstore\n      0x20\n      add\n      swap1\n      dup2\n      mstore\n      0x20\n      add\n      0x00\n      keccak256\n        /* \"contracts/Staking.sol\":4450:4563  lockInfo[IERC721(nftAddress)][_tokenIds[i]] = LockInfo(msg.sender, block.timestamp, 0, false,IERC721(nftAddress)) */\n      0x00\n      dup3\n      add\n      mload\n      dup2\n      0x00\n      add\n      exp(0x0100, 0x00)\n      dup2\n      sload\n      dup2\n      0xffffffffffffffffffffffffffffffffffffffff\n      mul\n      not\n      and\n      swap1\n      dup4\n      0xffffffffffffffffffffffffffffffffffffffff\n      and\n      mul\n      or\n      swap1\n      sstore\n      pop\n      0x20\n      dup3\n      add\n      mload\n      dup2\n      0x01\n      add\n      sstore\n      0x40\n      dup3\n      add\n      mload\n      dup2\n      0x02\n      add\n      sstore\n      0x60\n      dup3\n      add\n      mload\n      dup2\n      0x03\n      add\n      exp(0x0100, 0x00)\n      dup2\n      sload\n      dup2\n      0xff\n      mul\n      not\n      and\n      swap1\n      dup4\n      iszero\n      iszero\n      mul\n      or\n      swap1\n      sstore\n      pop\n      0x80\n      dup3\n      add\n      mload\n      dup2\n      0x03\n      add\n      exp(0x0100, 0x01)\n      dup2\n      sload\n      dup2\n      0xffffffffffffffffffffffffffffffffffffffff\n      mul\n      not\n      and\n      swap1\n      dup4\n      0xffffffffffffffffffffffffffffffffffffffff\n      and\n      mul\n      or\n      swap1\n      sstore\n      pop\n      swap1\n      pop\n      pop\n        /* \"contracts/Staking.sol\":4252:4255  i++ */\n      dup1\n      dup1\n      tag_158\n      swap1\n      tag_118\n      jump\t// in\n    tag_158:\n      swap2\n      pop\n      pop\n        /* \"contracts/Staking.sol\":4210:4575  for (uint256 i = 0; i < _tokenIds.length; i++) {... */\n      jump(tag_136)\n    tag_137:\n      pop\n        /* \"contracts/Staking.sol\":4602:4612  msg.sender */\n      caller\n        /* \"contracts/Staking.sol\":4592:4624  NFTLocked(msg.sender, _tokenIds) */\n      0xffffffffffffffffffffffffffffffffffffffff\n      and\n      0x458be0227bccc9e803dec79bd16767eeaf9925d2ce708eeed7ae1f3621f968f9\n        /* \"contracts/Staking.sol\":4614:4623  _tokenIds */\n      dup5\n      dup5\n        /* \"contracts/Staking.sol\":4592:4624  NFTLocked(msg.sender, _tokenIds) */\n      mload(0x40)\n      tag_159\n      swap3\n      swap2\n      swap1\n      tag_160\n      jump\t// in\n    tag_159:\n      mload(0x40)\n      dup1\n      swap2\n      sub\n      swap1\n      log2\n        /* \"@openzeppelin/contracts/security/ReentrancyGuard.sol\":1701:1702  1 */\n      0x01\n        /* \"@openzeppelin/contracts/security/ReentrancyGuard.sol\":2628:2635  _status */\n      dup1\n        /* \"@openzeppelin/contracts/security/ReentrancyGuard.sol\":2628:2650  _status = _NOT_ENTERED */\n      dup2\n      swap1\n      sstore\n      pop\n        /* \"contracts/Staking.sol\":3876:4632  function lockNFT(uint256[] calldata  _tokenIds, IERC721 nftAddress ) external notContract nonReentrant {... */\n      pop\n      pop\n      pop\n      jump\t// out\n        /* \"contracts/Staking.sol\":502:527  uint256 public lockPeriod */\n    tag_26:\n      sload(0x02)\n      dup2\n      jump\t// out\n        /* \"@openzeppelin/contracts/access/Ownable.sol\":1831:1932  function renounceOwnership() public virtual onlyOwner {... */\n    tag_30:\n        /* \"@openzeppelin/contracts/access/Ownable.sol\":1094:1107  _checkOwner() */\n      tag_162\n        /* \"@openzeppelin/contracts/access/Ownable.sol\":1094:1105  _checkOwner */\n      tag_163\n        /* \"@openzeppelin/contracts/access/Ownable.sol\":1094:1107  _checkOwner() */\n      jump\t// in\n    tag_162:\n        /* \"@openzeppelin/contracts/access/Ownable.sol\":1895:1925  _transferOwnership(address(0)) */\n      tag_165\n        /* \"@openzeppelin/contracts/access/Ownable.sol\":1922:1923  0 */\n      0x00\n        /* \"@openzeppelin/contracts/access/Ownable.sol\":1895:1913  _transferOwnership */\n      tag_166\n        /* \"@openzeppelin/contracts/access/Ownable.sol\":1895:1925  _transferOwnership(address(0)) */\n      jump\t// in\n    tag_165:\n        /* \"@openzeppelin/contracts/access/Ownable.sol\":1831:1932  function renounceOwnership() public virtual onlyOwner {... */\n      jump\t// out\n        /* \"contracts/Staking.sol\":3180:3393  function setLockPeriod(uint256 _lockPeriod) external onlyOwner {... */\n    tag_34:\n        /* \"@openzeppelin/contracts/access/Ownable.sol\":1094:1107  _checkOwner() */\n      tag_168\n        /* \"@openzeppelin/contracts/access/Ownable.sol\":1094:1105  _checkOwner */\n      tag_163\n        /* \"@openzeppelin/contracts/access/Ownable.sol\":1094:1107  _checkOwner() */\n      jump\t// in\n    tag_168:\n        /* \"contracts/Staking.sol\":3276:3277  0 */\n      0x00\n        /* \"contracts/Staking.sol\":3262:3273  _lockPeriod */\n      dup2\n        /* \"contracts/Staking.sol\":3262:3277  _lockPeriod > 0 */\n      gt\n        /* \"contracts/Staking.sol\":3254:3302  require(_lockPeriod > 0, \"Invalid lock period.\") */\n      tag_170\n      jumpi\n      mload(0x40)\n      0x08c379a000000000000000000000000000000000000000000000000000000000\n      dup2\n      mstore\n      0x04\n      add\n      tag_171\n      swap1\n      tag_172\n      jump\t// in\n    tag_171:\n      mload(0x40)\n      dup1\n      swap2\n      sub\n      swap1\n      revert\n    tag_170:\n        /* \"contracts/Staking.sol\":3326:3337  _lockPeriod */\n      dup1\n        /* \"contracts/Staking.sol\":3313:3323  lockPeriod */\n      0x02\n        /* \"contracts/Staking.sol\":3313:3337  lockPeriod = _lockPeriod */\n      dup2\n      swap1\n      sstore\n      pop\n        /* \"contracts/Staking.sol\":3355:3385  LockPeriodUpdated(_lockPeriod) */\n      0x8249ec545e68f6f1e1230133ca48c704d831a7f8e635ded80f3dd9e99b09bb2f\n        /* \"contracts/Staking.sol\":3373:3384  _lockPeriod */\n      dup2\n        /* \"contracts/Staking.sol\":3355:3385  LockPeriodUpdated(_lockPeriod) */\n      mload(0x40)\n      tag_173\n      swap2\n      swap1\n      tag_28\n      jump\t// in\n    tag_173:\n      mload(0x40)\n      dup1\n      swap2\n      sub\n      swap1\n      log1\n        /* \"contracts/Staking.sol\":3180:3393  function setLockPeriod(uint256 _lockPeriod) external onlyOwner {... */\n      pop\n      jump\t// out\n        /* \"@openzeppelin/contracts/access/Ownable.sol\":1201:1286  function owner() public view virtual returns (address) {... */\n    tag_36:\n        /* \"@openzeppelin/contracts/access/Ownable.sol\":1247:1254  address */\n      0x00\n        /* \"@openzeppelin/contracts/access/Ownable.sol\":1273:1279  _owner */\n      dup1\n      0x00\n      swap1\n      sload\n      swap1\n      0x0100\n      exp\n      swap1\n      div\n      0xffffffffffffffffffffffffffffffffffffffff\n      and\n        /* \"@openzeppelin/contracts/access/Ownable.sol\":1266:1279  return _owner */\n      swap1\n      pop\n        /* \"@openzeppelin/contracts/access/Ownable.sol\":1201:1286  function owner() public view virtual returns (address) {... */\n      swap1\n      jump\t// out\n        /* \"contracts/Staking.sol\":4745:5983  function unlockNFT(uint256[] calldata _tokenIds, IERC721 nftAddress) external notContract nonReentrant {... */\n    tag_41:\n        /* \"contracts/Staking.sol\":1917:1949  address(msg.sender).isContract() */\n      tag_176\n        /* \"contracts/Staking.sol\":1925:1935  msg.sender */\n      caller\n        /* \"contracts/Staking.sol\":1917:1947  address(msg.sender).isContract */\n      0xffffffffffffffffffffffffffffffffffffffff\n      and\n      tag_72\n        /* \"contracts/Staking.sol\":1917:1949  address(msg.sender).isContract() */\n      jump\t// in\n    tag_176:\n        /* \"contracts/Staking.sol\":1916:1949  !address(msg.sender).isContract() */\n      iszero\n        /* \"contracts/Staking.sol\":1908:1974  require(!address(msg.sender).isContract(), \"Contract not allowed\") */\n      tag_177\n      jumpi\n      mload(0x40)\n      0x08c379a000000000000000000000000000000000000000000000000000000000\n      dup2\n      mstore\n      0x04\n      add\n      tag_178\n      swap1\n      tag_75\n      jump\t// in\n    tag_178:\n      mload(0x40)\n      dup1\n      swap2\n      sub\n      swap1\n      revert\n    tag_177:\n        /* \"contracts/Staking.sol\":2007:2016  tx.origin */\n      origin\n        /* \"contracts/Staking.sol\":1993:2016  msg.sender == tx.origin */\n      0xffffffffffffffffffffffffffffffffffffffff\n      and\n        /* \"contracts/Staking.sol\":1993:2003  msg.sender */\n      caller\n        /* \"contracts/Staking.sol\":1993:2016  msg.sender == tx.origin */\n      0xffffffffffffffffffffffffffffffffffffffff\n      and\n      eq\n        /* \"contracts/Staking.sol\":1985:2047  require(msg.sender == tx.origin, \"Proxy contract not allowed\") */\n      tag_179\n      jumpi\n      mload(0x40)\n      0x08c379a000000000000000000000000000000000000000000000000000000000\n      dup2\n      mstore\n      0x04\n      add\n      tag_180\n      swap1\n      tag_78\n      jump\t// in\n    tag_180:\n      mload(0x40)\n      dup1\n      swap2\n      sub\n      swap1\n      revert\n    tag_179:\n        /* \"@openzeppelin/contracts/security/ReentrancyGuard.sol\":1744:1745  2 */\n      0x02\n        /* \"@openzeppelin/contracts/security/ReentrancyGuard.sol\":2325:2332  _status */\n      sload(0x01)\n        /* \"@openzeppelin/contracts/security/ReentrancyGuard.sol\":2325:2344  _status != _ENTERED */\n      sub\n        /* \"@openzeppelin/contracts/security/ReentrancyGuard.sol\":2317:2380  require(_status != _ENTERED, \"ReentrancyGuard: reentrant call\") */\n      tag_182\n      jumpi\n      mload(0x40)\n      0x08c379a000000000000000000000000000000000000000000000000000000000\n      dup2\n      mstore\n      0x04\n      add\n      tag_183\n      swap1\n      tag_130\n      jump\t// in\n    tag_183:\n      mload(0x40)\n      dup1\n      swap2\n      sub\n      swap1\n      revert\n    tag_182:\n        /* \"@openzeppelin/contracts/security/ReentrancyGuard.sol\":1744:1745  2 */\n      0x02\n        /* \"@openzeppelin/contracts/security/ReentrancyGuard.sol\":2455:2462  _status */\n      0x01\n        /* \"@openzeppelin/contracts/security/ReentrancyGuard.sol\":2455:2473  _status = _ENTERED */\n      dup2\n      swap1\n      sstore\n      pop\n        /* \"contracts/Staking.sol\":4917:4959  0x0000000000000000000000000000000000000000 */\n      0x00\n        /* \"contracts/Staking.sol\":4867:4960  nftInfo[nftAddress].rewardsToken != IRewardsToken(0x0000000000000000000000000000000000000000) */\n      0xffffffffffffffffffffffffffffffffffffffff\n      and\n        /* \"contracts/Staking.sol\":4867:4874  nftInfo */\n      0x04\n        /* \"contracts/Staking.sol\":4867:4886  nftInfo[nftAddress] */\n      0x00\n        /* \"contracts/Staking.sol\":4875:4885  nftAddress */\n      dup4\n        /* \"contracts/Staking.sol\":4867:4886  nftInfo[nftAddress] */\n      0xffffffffffffffffffffffffffffffffffffffff\n      and\n      0xffffffffffffffffffffffffffffffffffffffff\n      and\n      dup2\n      mstore\n      0x20\n      add\n      swap1\n      dup2\n      mstore\n      0x20\n      add\n      0x00\n      keccak256\n        /* \"contracts/Staking.sol\":4867:4899  nftInfo[nftAddress].rewardsToken */\n      0x00\n      add\n      0x00\n      swap1\n      sload\n      swap1\n      0x0100\n      exp\n      swap1\n      div\n      0xffffffffffffffffffffffffffffffffffffffff\n      and\n        /* \"contracts/Staking.sol\":4867:4960  nftInfo[nftAddress].rewardsToken != IRewardsToken(0x0000000000000000000000000000000000000000) */\n      0xffffffffffffffffffffffffffffffffffffffff\n      and\n      sub\n        /* \"contracts/Staking.sol\":4859:5011  require(nftInfo[nftAddress].rewardsToken != IRewardsToken(0x0000000000000000000000000000000000000000), \"Staking: Register collection by addStakingNfts\") */\n      tag_185\n      jumpi\n      mload(0x40)\n      0x08c379a000000000000000000000000000000000000000000000000000000000\n      dup2\n      mstore\n      0x04\n      add\n      tag_186\n      swap1\n      tag_82\n      jump\t// in\n    tag_186:\n      mload(0x40)\n      dup1\n      swap2\n      sub\n      swap1\n      revert\n    tag_185:\n        /* \"contracts/Staking.sol\":5049:5050  0 */\n      0x00\n        /* \"contracts/Staking.sol\":5030:5039  _tokenIds */\n      dup4\n      dup4\n        /* \"contracts/Staking.sol\":5030:5046  _tokenIds.length */\n      swap1\n      pop\n        /* \"contracts/Staking.sol\":5030:5050  _tokenIds.length > 0 */\n      gt\n        /* \"contracts/Staking.sol\":5022:5064  require(_tokenIds.length > 0, \"No tokens\") */\n      tag_187\n      jumpi\n      mload(0x40)\n      0x08c379a000000000000000000000000000000000000000000000000000000000\n      dup2\n      mstore\n      0x04\n      add\n      tag_188\n      swap1\n      tag_85\n      jump\t// in\n    tag_188:\n      mload(0x40)\n      dup1\n      swap2\n      sub\n      swap1\n      revert\n    tag_187:\n        /* \"contracts/Staking.sol\":5082:5091  uint256 i */\n      0x00\n        /* \"contracts/Staking.sol\":5077:5924  for (uint256 i = 0; i < _tokenIds.length; i++) {... */\n    tag_189:\n        /* \"contracts/Staking.sol\":5101:5110  _tokenIds */\n      dup4\n      dup4\n        /* \"contracts/Staking.sol\":5101:5117  _tokenIds.length */\n      swap1\n      pop\n        /* \"contracts/Staking.sol\":5097:5098  i */\n      dup2\n        /* \"contracts/Staking.sol\":5097:5117  i < _tokenIds.length */\n      lt\n        /* \"contracts/Staking.sol\":5077:5924  for (uint256 i = 0; i < _tokenIds.length; i++) {... */\n      iszero\n      tag_190\n      jumpi\n        /* \"contracts/Staking.sol\":5139:5159  LockInfo memory info */\n      0x00\n        /* \"contracts/Staking.sol\":5162:5170  lockInfo */\n      0x03\n        /* \"contracts/Staking.sol\":5162:5191  lockInfo[IERC721(nftAddress)] */\n      0x00\n        /* \"contracts/Staking.sol\":5179:5189  nftAddress */\n      dup5\n        /* \"contracts/Staking.sol\":5162:5191  lockInfo[IERC721(nftAddress)] */\n      0xffffffffffffffffffffffffffffffffffffffff\n      and\n      0xffffffffffffffffffffffffffffffffffffffff\n      and\n      dup2\n      mstore\n      0x20\n      add\n      swap1\n      dup2\n      mstore\n      0x20\n      add\n      0x00\n      keccak256\n        /* \"contracts/Staking.sol\":5162:5205  lockInfo[IERC721(nftAddress)][_tokenIds[i]] */\n      0x00\n        /* \"contracts/Staking.sol\":5192:5201  _tokenIds */\n      dup7\n      dup7\n        /* \"contracts/Staking.sol\":5202:5203  i */\n      dup6\n        /* \"contracts/Staking.sol\":5192:5204  _tokenIds[i] */\n      dup2\n      dup2\n      lt\n      tag_192\n      jumpi\n      tag_193\n      tag_91\n      jump\t// in\n    tag_193:\n    tag_192:\n      swap1\n      pop\n      0x20\n      mul\n      add\n      calldataload\n        /* \"contracts/Staking.sol\":5162:5205  lockInfo[IERC721(nftAddress)][_tokenIds[i]] */\n      dup2\n      mstore\n      0x20\n      add\n      swap1\n      dup2\n      mstore\n      0x20\n      add\n      0x00\n      keccak256\n        /* \"contracts/Staking.sol\":5139:5205  LockInfo memory info = lockInfo[IERC721(nftAddress)][_tokenIds[i]] */\n      mload(0x40)\n      dup1\n      0xa0\n      add\n      0x40\n      mstore\n      swap1\n      dup2\n      0x00\n      dup3\n      add\n      0x00\n      swap1\n      sload\n      swap1\n      0x0100\n      exp\n      swap1\n      div\n      0xffffffffffffffffffffffffffffffffffffffff\n      and\n      0xffffffffffffffffffffffffffffffffffffffff\n      and\n      0xffffffffffffffffffffffffffffffffffffffff\n      and\n      dup2\n      mstore\n      0x20\n      add\n      0x01\n      dup3\n      add\n      sload\n      dup2\n      mstore\n      0x20\n      add\n      0x02\n      dup3\n      add\n      sload\n      dup2\n      mstore\n      0x20\n      add\n      0x03\n      dup3\n      add\n      0x00\n      swap1\n      sload\n      swap1\n      0x0100\n      exp\n      swap1\n      div\n      0xff\n      and\n      iszero\n      iszero\n      iszero\n      iszero\n      dup2\n      mstore\n      0x20\n      add\n      0x03\n      dup3\n      add\n      0x01\n      swap1\n      sload\n      swap1\n      0x0100\n      exp\n      swap1\n      div\n      0xffffffffffffffffffffffffffffffffffffffff\n      and\n      0xffffffffffffffffffffffffffffffffffffffff\n      and\n      0xffffffffffffffffffffffffffffffffffffffff\n      and\n      dup2\n      mstore\n      pop\n      pop\n      swap1\n      pop\n        /* \"contracts/Staking.sol\":5242:5252  msg.sender */\n      caller\n        /* \"contracts/Staking.sol\":5228:5252  info.owner == msg.sender */\n      0xffffffffffffffffffffffffffffffffffffffff\n      and\n        /* \"contracts/Staking.sol\":5228:5232  info */\n      dup2\n        /* \"contracts/Staking.sol\":5228:5238  info.owner */\n      0x00\n      add\n      mload\n        /* \"contracts/Staking.sol\":5228:5252  info.owner == msg.sender */\n      0xffffffffffffffffffffffffffffffffffffffff\n      and\n      eq\n        /* \"contracts/Staking.sol\":5220:5274  require(info.owner == msg.sender, \"Not a token owner\") */\n      tag_194\n      jumpi\n      mload(0x40)\n      0x08c379a000000000000000000000000000000000000000000000000000000000\n      dup2\n      mstore\n      0x04\n      add\n      tag_195\n      swap1\n      tag_94\n      jump\t// in\n    tag_195:\n      mload(0x40)\n      dup1\n      swap2\n      sub\n      swap1\n      revert\n    tag_194:\n        /* \"contracts/Staking.sol\":5328:5343  block.timestamp */\n      timestamp\n        /* \"contracts/Staking.sol\":5315:5325  lockPeriod */\n      sload(0x02)\n        /* \"contracts/Staking.sol\":5297:5301  info */\n      dup3\n        /* \"contracts/Staking.sol\":5297:5312  info.lockedTime */\n      0x20\n      add\n      mload\n        /* \"contracts/Staking.sol\":5297:5325  info.lockedTime + lockPeriod */\n      tag_196\n      swap2\n      swap1\n      tag_96\n      jump\t// in\n    tag_196:\n        /* \"contracts/Staking.sol\":5297:5343  info.lockedTime + lockPeriod < block.timestamp */\n      lt\n        /* \"contracts/Staking.sol\":5289:5370  require(info.lockedTime + lockPeriod < block.timestamp, \"Not able to unlock yet\") */\n      tag_197\n      jumpi\n      mload(0x40)\n      0x08c379a000000000000000000000000000000000000000000000000000000000\n      dup2\n      mstore\n      0x04\n      add\n      tag_198\n      swap1\n      tag_199\n      jump\t// in\n    tag_198:\n      mload(0x40)\n      dup1\n      swap2\n      sub\n      swap1\n      revert\n    tag_197:\n        /* \"contracts/Staking.sol\":5394:5398  info */\n      dup1\n        /* \"contracts/Staking.sol\":5394:5409  info.isUnlocked */\n      0x60\n      add\n      mload\n        /* \"contracts/Staking.sol\":5393:5409  !info.isUnlocked */\n      iszero\n        /* \"contracts/Staking.sol\":5385:5430  require(!info.isUnlocked, \"Already unlocked\") */\n      tag_200\n      jumpi\n      mload(0x40)\n      0x08c379a000000000000000000000000000000000000000000000000000000000\n      dup2\n      mstore\n      0x04\n      add\n      tag_201\n      swap1\n      tag_102\n      jump\t// in\n    tag_201:\n      mload(0x40)\n      dup1\n      swap2\n      sub\n      swap1\n      revert\n    tag_200:\n        /* \"contracts/Staking.sol\":5447:5457  nftAddress */\n      dup3\n        /* \"contracts/Staking.sol\":5447:5470  nftAddress.transferFrom */\n      0xffffffffffffffffffffffffffffffffffffffff\n      and\n      0x23b872dd\n        /* \"contracts/Staking.sol\":5479:5483  this */\n      address\n        /* \"contracts/Staking.sol\":5486:5496  msg.sender */\n      caller\n        /* \"contracts/Staking.sol\":5498:5507  _tokenIds */\n      dup9\n      dup9\n        /* \"contracts/Staking.sol\":5508:5509  i */\n      dup8\n        /* \"contracts/Staking.sol\":5498:5510  _tokenIds[i] */\n      dup2\n      dup2\n      lt\n      tag_202\n      jumpi\n      tag_203\n      tag_91\n      jump\t// in\n    tag_203:\n    tag_202:\n      swap1\n      pop\n      0x20\n      mul\n      add\n      calldataload\n        /* \"contracts/Staking.sol\":5447:5511  nftAddress.transferFrom(address(this), msg.sender, _tokenIds[i]) */\n      mload(0x40)\n      dup5\n      0xffffffff\n      and\n      0xe0\n      shl\n      dup2\n      mstore\n      0x04\n      add\n      tag_204\n      swap4\n      swap3\n      swap2\n      swap1\n      tag_152\n      jump\t// in\n    tag_204:\n      0x00\n      mload(0x40)\n      dup1\n      dup4\n      sub\n      dup2\n      0x00\n      dup8\n      dup1\n      extcodesize\n      iszero\n      dup1\n      iszero\n      tag_205\n      jumpi\n      0x00\n      dup1\n      revert\n    tag_205:\n      pop\n      gas\n      call\n      iszero\n      dup1\n      iszero\n      tag_207\n      jumpi\n      returndatasize\n      0x00\n      dup1\n      returndatacopy\n      revert(0x00, returndatasize)\n    tag_207:\n      pop\n      pop\n      pop\n      pop\n        /* \"contracts/Staking.sol\":5528:5547  uint256 totalAmount */\n      0x00\n        /* \"contracts/Staking.sol\":5550:5589  _rewardAmount(_tokenIds[i], nftAddress) */\n      tag_208\n        /* \"contracts/Staking.sol\":5564:5573  _tokenIds */\n      dup7\n      dup7\n        /* \"contracts/Staking.sol\":5574:5575  i */\n      dup6\n        /* \"contracts/Staking.sol\":5564:5576  _tokenIds[i] */\n      dup2\n      dup2\n      lt\n      tag_209\n      jumpi\n      tag_210\n      tag_91\n      jump\t// in\n    tag_210:\n    tag_209:\n      swap1\n      pop\n      0x20\n      mul\n      add\n      calldataload\n        /* \"contracts/Staking.sol\":5578:5588  nftAddress */\n      dup6\n        /* \"contracts/Staking.sol\":5550:5563  _rewardAmount */\n      tag_106\n        /* \"contracts/Staking.sol\":5550:5589  _rewardAmount(_tokenIds[i], nftAddress) */\n      jump\t// in\n    tag_208:\n        /* \"contracts/Staking.sol\":5528:5589  uint256 totalAmount = _rewardAmount(_tokenIds[i], nftAddress) */\n      swap1\n      pop\n        /* \"contracts/Staking.sol\":5604:5628  uint256 unclaminedAmount */\n      0x00\n        /* \"contracts/Staking.sol\":5645:5649  info */\n      dup3\n        /* \"contracts/Staking.sol\":5645:5664  info.claimedRewards */\n      0x40\n      add\n      mload\n        /* \"contracts/Staking.sol\":5631:5642  totalAmount */\n      dup3\n        /* \"contracts/Staking.sol\":5631:5664  totalAmount - info.claimedRewards */\n      tag_211\n      swap2\n      swap1\n      tag_108\n      jump\t// in\n    tag_211:\n        /* \"contracts/Staking.sol\":5604:5664  uint256 unclaminedAmount = totalAmount - info.claimedRewards */\n      swap1\n      pop\n        /* \"contracts/Staking.sol\":5680:5687  nftInfo */\n      0x04\n        /* \"contracts/Staking.sol\":5680:5699  nftInfo[nftAddress] */\n      0x00\n        /* \"contracts/Staking.sol\":5688:5698  nftAddress */\n      dup7\n        /* \"contracts/Staking.sol\":5680:5699  nftInfo[nftAddress] */\n      0xffffffffffffffffffffffffffffffffffffffff\n      and\n      0xffffffffffffffffffffffffffffffffffffffff\n      and\n      dup2\n      mstore\n      0x20\n      add\n      swap1\n      dup2\n      mstore\n      0x20\n      add\n      0x00\n      keccak256\n        /* \"contracts/Staking.sol\":5680:5712  nftInfo[nftAddress].rewardsToken */\n      0x00\n      add\n      0x00\n      swap1\n      sload\n      swap1\n      0x0100\n      exp\n      swap1\n      div\n      0xffffffffffffffffffffffffffffffffffffffff\n      and\n        /* \"contracts/Staking.sol\":5680:5717  nftInfo[nftAddress].rewardsToken.mint */\n      0xffffffffffffffffffffffffffffffffffffffff\n      and\n      0x40c10f19\n        /* \"contracts/Staking.sol\":5718:5728  msg.sender */\n      caller\n        /* \"contracts/Staking.sol\":5730:5746  unclaminedAmount */\n      dup4\n        /* \"contracts/Staking.sol\":5680:5747  nftInfo[nftAddress].rewardsToken.mint(msg.sender, unclaminedAmount) */\n      mload(0x40)\n      dup4\n      0xffffffff\n      and\n      0xe0\n      shl\n      dup2\n      mstore\n      0x04\n      add\n      tag_212\n      swap3\n      swap2\n      swap1\n      tag_110\n      jump\t// in\n    tag_212:\n      0x00\n      mload(0x40)\n      dup1\n      dup4\n      sub\n      dup2\n      0x00\n      dup8\n      dup1\n      extcodesize\n      iszero\n      dup1\n      iszero\n      tag_213\n      jumpi\n      0x00\n      dup1\n      revert\n    tag_213:\n      pop\n      gas\n      call\n      iszero\n      dup1\n      iszero\n      tag_215\n      jumpi\n      returndatasize\n      0x00\n      dup1\n      returndatacopy\n      revert(0x00, returndatasize)\n    tag_215:\n      pop\n      pop\n      pop\n      pop\n        /* \"contracts/Staking.sol\":5825:5836  totalAmount */\n      dup2\n        /* \"contracts/Staking.sol\":5764:5772  lockInfo */\n      0x03\n        /* \"contracts/Staking.sol\":5764:5793  lockInfo[IERC721(nftAddress)] */\n      0x00\n        /* \"contracts/Staking.sol\":5781:5791  nftAddress */\n      dup8\n        /* \"contracts/Staking.sol\":5764:5793  lockInfo[IERC721(nftAddress)] */\n      0xffffffffffffffffffffffffffffffffffffffff\n      and\n      0xffffffffffffffffffffffffffffffffffffffff\n      and\n      dup2\n      mstore\n      0x20\n      add\n      swap1\n      dup2\n      mstore\n      0x20\n      add\n      0x00\n      keccak256\n        /* \"contracts/Staking.sol\":5764:5807  lockInfo[IERC721(nftAddress)][_tokenIds[i]] */\n      0x00\n        /* \"contracts/Staking.sol\":5794:5803  _tokenIds */\n      dup10\n      dup10\n        /* \"contracts/Staking.sol\":5804:5805  i */\n      dup9\n        /* \"contracts/Staking.sol\":5794:5806  _tokenIds[i] */\n      dup2\n      dup2\n      lt\n      tag_216\n      jumpi\n      tag_217\n      tag_91\n      jump\t// in\n    tag_217:\n    tag_216:\n      swap1\n      pop\n      0x20\n      mul\n      add\n      calldataload\n        /* \"contracts/Staking.sol\":5764:5807  lockInfo[IERC721(nftAddress)][_tokenIds[i]] */\n      dup2\n      mstore\n      0x20\n      add\n      swap1\n      dup2\n      mstore\n      0x20\n      add\n      0x00\n      keccak256\n        /* \"contracts/Staking.sol\":5764:5822  lockInfo[IERC721(nftAddress)][_tokenIds[i]].claimedRewards */\n      0x02\n      add\n        /* \"contracts/Staking.sol\":5764:5836  lockInfo[IERC721(nftAddress)][_tokenIds[i]].claimedRewards = totalAmount */\n      dup2\n      swap1\n      sstore\n      pop\n        /* \"contracts/Staking.sol\":5908:5912  true */\n      0x01\n        /* \"contracts/Staking.sol\":5851:5859  lockInfo */\n      0x03\n        /* \"contracts/Staking.sol\":5851:5880  lockInfo[IERC721(nftAddress)] */\n      0x00\n        /* \"contracts/Staking.sol\":5868:5878  nftAddress */\n      dup8\n        /* \"contracts/Staking.sol\":5851:5880  lockInfo[IERC721(nftAddress)] */\n      0xffffffffffffffffffffffffffffffffffffffff\n      and\n      0xffffffffffffffffffffffffffffffffffffffff\n      and\n      dup2\n      mstore\n      0x20\n      add\n      swap1\n      dup2\n      mstore\n      0x20\n      add\n      0x00\n      keccak256\n        /* \"contracts/Staking.sol\":5851:5894  lockInfo[IERC721(nftAddress)][_tokenIds[i]] */\n      0x00\n        /* \"contracts/Staking.sol\":5881:5890  _tokenIds */\n      dup10\n      dup10\n        /* \"contracts/Staking.sol\":5891:5892  i */\n      dup9\n        /* \"contracts/Staking.sol\":5881:5893  _tokenIds[i] */\n      dup2\n      dup2\n      lt\n      tag_218\n      jumpi\n      tag_219\n      tag_91\n      jump\t// in\n    tag_219:\n    tag_218:\n      swap1\n      pop\n      0x20\n      mul\n      add\n      calldataload\n        /* \"contracts/Staking.sol\":5851:5894  lockInfo[IERC721(nftAddress)][_tokenIds[i]] */\n      dup2\n      mstore\n      0x20\n      add\n      swap1\n      dup2\n      mstore\n      0x20\n      add\n      0x00\n      keccak256\n        /* \"contracts/Staking.sol\":5851:5905  lockInfo[IERC721(nftAddress)][_tokenIds[i]].isUnlocked */\n      0x03\n      add\n      0x00\n        /* \"contracts/Staking.sol\":5851:5912  lockInfo[IERC721(nftAddress)][_tokenIds[i]].isUnlocked = true */\n      0x0100\n      exp\n      dup2\n      sload\n      dup2\n      0xff\n      mul\n      not\n      and\n      swap1\n      dup4\n      iszero\n      iszero\n      mul\n      or\n      swap1\n      sstore\n      pop\n        /* \"contracts/Staking.sol\":5124:5924  {... */\n      pop\n      pop\n      pop\n        /* \"contracts/Staking.sol\":5119:5122  i++ */\n      dup1\n      dup1\n      tag_220\n      swap1\n      tag_118\n      jump\t// in\n    tag_220:\n      swap2\n      pop\n      pop\n        /* \"contracts/Staking.sol\":5077:5924  for (uint256 i = 0; i < _tokenIds.length; i++) {... */\n      jump(tag_189)\n    tag_190:\n      pop\n        /* \"contracts/Staking.sol\":5953:5963  msg.sender */\n      caller\n        /* \"contracts/Staking.sol\":5941:5975  NFTUnLocked(msg.sender, _tokenIds) */\n      0xffffffffffffffffffffffffffffffffffffffff\n      and\n      0x5cb48022479b9ac3bfb10a27965dc010acffc9fc1bc9a52f0b18975b944b54ca\n        /* \"contracts/Staking.sol\":5965:5974  _tokenIds */\n      dup5\n      dup5\n        /* \"contracts/Staking.sol\":5941:5975  NFTUnLocked(msg.sender, _tokenIds) */\n      mload(0x40)\n      tag_221\n      swap3\n      swap2\n      swap1\n      tag_160\n      jump\t// in\n    tag_221:\n      mload(0x40)\n      dup1\n      swap2\n      sub\n      swap1\n      log2\n        /* \"@openzeppelin/contracts/security/ReentrancyGuard.sol\":1701:1702  1 */\n      0x01\n        /* \"@openzeppelin/contracts/security/ReentrancyGuard.sol\":2628:2635  _status */\n      dup1\n        /* \"@openzeppelin/contracts/security/ReentrancyGuard.sol\":2628:2650  _status = _NOT_ENTERED */\n      dup2\n      swap1\n      sstore\n      pop\n        /* \"contracts/Staking.sol\":4745:5983  function unlockNFT(uint256[] calldata _tokenIds, IERC721 nftAddress) external notContract nonReentrant {... */\n      pop\n      pop\n      pop\n      jump\t// out\n        /* \"contracts/Staking.sol\":770:834  mapping(IERC721 => mapping(uint256 => LockInfo)) public lockInfo */\n    tag_45:\n      mstore(0x20, 0x03)\n      dup2\n      0x00\n      mstore\n      mstore(0x20, keccak256(0x00, 0x40))\n      dup1\n      0x00\n      mstore\n      keccak256(0x00, 0x40)\n      0x00\n      swap2\n      pop\n      swap2\n      pop\n      pop\n      dup1\n      0x00\n      add\n      0x00\n      swap1\n      sload\n      swap1\n      0x0100\n      exp\n      swap1\n      div\n      0xffffffffffffffffffffffffffffffffffffffff\n      and\n      swap1\n      dup1\n      0x01\n      add\n      sload\n      swap1\n      dup1\n      0x02\n      add\n      sload\n      swap1\n      dup1\n      0x03\n      add\n      0x00\n      swap1\n      sload\n      swap1\n      0x0100\n      exp\n      swap1\n      div\n      0xff\n      and\n      swap1\n      dup1\n      0x03\n      add\n      0x01\n      swap1\n      sload\n      swap1\n      0x0100\n      exp\n      swap1\n      div\n      0xffffffffffffffffffffffffffffffffffffffff\n      and\n      swap1\n      pop\n      dup6\n      jump\t// out\n        /* \"contracts/Staking.sol\":3561:3735  function claimedRewards(uint256 _tokenId, IERC721 nftAddress) external view returns (uint256) {... */\n    tag_51:\n        /* \"contracts/Staking.sol\":3646:3653  uint256 */\n      0x00\n        /* \"contracts/Staking.sol\":3673:3681  lockInfo */\n      0x03\n        /* \"contracts/Staking.sol\":3673:3702  lockInfo[IERC721(nftAddress)] */\n      0x00\n        /* \"contracts/Staking.sol\":3690:3700  nftAddress */\n      dup4\n        /* \"contracts/Staking.sol\":3673:3702  lockInfo[IERC721(nftAddress)] */\n      0xffffffffffffffffffffffffffffffffffffffff\n      and\n      0xffffffffffffffffffffffffffffffffffffffff\n      and\n      dup2\n      mstore\n      0x20\n      add\n      swap1\n      dup2\n      mstore\n      0x20\n      add\n      0x00\n      keccak256\n        /* \"contracts/Staking.sol\":3673:3712  lockInfo[IERC721(nftAddress)][_tokenId] */\n      0x00\n        /* \"contracts/Staking.sol\":3703:3711  _tokenId */\n      dup5\n        /* \"contracts/Staking.sol\":3673:3712  lockInfo[IERC721(nftAddress)][_tokenId] */\n      dup2\n      mstore\n      0x20\n      add\n      swap1\n      dup2\n      mstore\n      0x20\n      add\n      0x00\n      keccak256\n        /* \"contracts/Staking.sol\":3673:3727  lockInfo[IERC721(nftAddress)][_tokenId].claimedRewards */\n      0x02\n      add\n      sload\n        /* \"contracts/Staking.sol\":3666:3727  return lockInfo[IERC721(nftAddress)][_tokenId].claimedRewards */\n      swap1\n      pop\n        /* \"contracts/Staking.sol\":3561:3735  function claimedRewards(uint256 _tokenId, IERC721 nftAddress) external view returns (uint256) {... */\n      swap3\n      swap2\n      pop\n      pop\n      jump\t// out\n        /* \"contracts/Staking.sol\":1099:1118  uint256 public WAVE */\n    tag_54:\n      sload(0x05)\n      dup2\n      jump\t// out\n        /* \"contracts/Staking.sol\":1016:1063  mapping(IERC721 => stakeNftInfo) public nftInfo */\n    tag_59:\n      mstore(0x20, 0x04)\n      dup1\n      0x00\n      mstore\n      keccak256(0x00, 0x40)\n      0x00\n      swap2\n      pop\n      swap1\n      pop\n      dup1\n      0x00\n      add\n      0x00\n      swap1\n      sload\n      swap1\n      0x0100\n      exp\n      swap1\n      div\n      0xffffffffffffffffffffffffffffffffffffffff\n      and\n      swap1\n      dup1\n      0x01\n      add\n      sload\n      swap1\n      dup1\n      0x02\n      add\n      sload\n      swap1\n      pop\n      dup4\n      jump\t// out\n        /* \"contracts/Staking.sol\":2267:3056  function addStakingNfts(... */\n    tag_65:\n        /* \"@openzeppelin/contracts/access/Ownable.sol\":1094:1107  _checkOwner() */\n      tag_224\n        /* \"@openzeppelin/contracts/access/Ownable.sol\":1094:1105  _checkOwner */\n      tag_163\n        /* \"@openzeppelin/contracts/access/Ownable.sol\":1094:1107  _checkOwner() */\n      jump\t// in\n    tag_224:\n        /* \"contracts/Staking.sol\":2503:2509  uint i */\n      0x00\n        /* \"contracts/Staking.sol\":2498:3049  for (uint i = 0; i < _stakeNFT.length; i++) {... */\n    tag_226:\n        /* \"contracts/Staking.sol\":2519:2528  _stakeNFT */\n      dup5\n        /* \"contracts/Staking.sol\":2519:2535  _stakeNFT.length */\n      mload\n        /* \"contracts/Staking.sol\":2515:2516  i */\n      dup2\n        /* \"contracts/Staking.sol\":2515:2535  i < _stakeNFT.length */\n      lt\n        /* \"contracts/Staking.sol\":2498:3049  for (uint i = 0; i < _stakeNFT.length; i++) {... */\n      iszero\n      tag_227\n      jumpi\n        /* \"contracts/Staking.sol\":2589:2590  0 */\n      0x00\n        /* \"contracts/Staking.sol\":2565:2591  _stakeNFT[i] != address(0) */\n      0xffffffffffffffffffffffffffffffffffffffff\n      and\n        /* \"contracts/Staking.sol\":2565:2574  _stakeNFT */\n      dup6\n        /* \"contracts/Staking.sol\":2575:2576  i */\n      dup3\n        /* \"contracts/Staking.sol\":2565:2577  _stakeNFT[i] */\n      dup2\n      mload\n      dup2\n      lt\n      tag_229\n      jumpi\n      tag_230\n      tag_91\n      jump\t// in\n    tag_230:\n    tag_229:\n      0x20\n      mul\n      0x20\n      add\n      add\n      mload\n        /* \"contracts/Staking.sol\":2565:2591  _stakeNFT[i] != address(0) */\n      0xffffffffffffffffffffffffffffffffffffffff\n      and\n      sub\n        /* \"contracts/Staking.sol\":2557:2615  require(_stakeNFT[i] != address(0), \"Invalid Stake Token\") */\n      tag_231\n      jumpi\n      mload(0x40)\n      0x08c379a000000000000000000000000000000000000000000000000000000000\n      dup2\n      mstore\n      0x04\n      add\n      tag_232\n      swap1\n      tag_233\n      jump\t// in\n    tag_232:\n      mload(0x40)\n      dup1\n      swap2\n      sub\n      swap1\n      revert\n    tag_231:\n        /* \"contracts/Staking.sol\":2666:2667  0 */\n      0x00\n        /* \"contracts/Staking.sol\":2638:2668  _rewardsToken[i] != address(0) */\n      0xffffffffffffffffffffffffffffffffffffffff\n      and\n        /* \"contracts/Staking.sol\":2638:2651  _rewardsToken */\n      dup5\n        /* \"contracts/Staking.sol\":2652:2653  i */\n      dup3\n        /* \"contracts/Staking.sol\":2638:2654  _rewardsToken[i] */\n      dup2\n      mload\n      dup2\n      lt\n      tag_234\n      jumpi\n      tag_235\n      tag_91\n      jump\t// in\n    tag_235:\n    tag_234:\n      0x20\n      mul\n      0x20\n      add\n      add\n      mload\n        /* \"contracts/Staking.sol\":2638:2668  _rewardsToken[i] != address(0) */\n      0xffffffffffffffffffffffffffffffffffffffff\n      and\n      sub\n        /* \"contracts/Staking.sol\":2630:2693  require(_rewardsToken[i] != address(0), \"Invalid Reward Token\") */\n      tag_236\n      jumpi\n      mload(0x40)\n      0x08c379a000000000000000000000000000000000000000000000000000000000\n      dup2\n      mstore\n      0x04\n      add\n      tag_237\n      swap1\n      tag_238\n      jump\t// in\n    tag_237:\n      mload(0x40)\n      dup1\n      swap2\n      sub\n      swap1\n      revert\n    tag_236:\n        /* \"contracts/Staking.sol\":2724:2733  _stakeNFT */\n      dup5\n        /* \"contracts/Staking.sol\":2734:2735  i */\n      dup2\n        /* \"contracts/Staking.sol\":2724:2736  _stakeNFT[i] */\n      dup2\n      mload\n      dup2\n      lt\n      tag_239\n      jumpi\n      tag_240\n      tag_91\n      jump\t// in\n    tag_240:\n    tag_239:\n      0x20\n      mul\n      0x20\n      add\n      add\n      mload\n        /* \"contracts/Staking.sol\":2716:2755  IERC721(_stakeNFT[i]).supportsInterface */\n      0xffffffffffffffffffffffffffffffffffffffff\n      and\n      0x01ffc9a7\n        /* \"contracts/Staking.sol\":2756:2766  0x80ac58cd */\n      0x80ac58cd\n        /* \"contracts/Staking.sol\":2716:2767  IERC721(_stakeNFT[i]).supportsInterface(0x80ac58cd) */\n      mload(0x40)\n      dup3\n      0xffffffff\n      and\n      0xe0\n      shl\n      dup2\n      mstore\n      0x04\n      add\n      tag_241\n      swap2\n      swap1\n      tag_242\n      jump\t// in\n    tag_241:\n      0x20\n      mload(0x40)\n      dup1\n      dup4\n      sub\n      dup2\n      dup7\n      gas\n      staticcall\n      iszero\n      dup1\n      iszero\n      tag_244\n      jumpi\n      returndatasize\n      0x00\n      dup1\n      returndatacopy\n      revert(0x00, returndatasize)\n    tag_244:\n      pop\n      pop\n      pop\n      pop\n      mload(0x40)\n      returndatasize\n      not(0x1f)\n      0x1f\n      dup3\n      add\n      and\n      dup3\n      add\n      dup1\n      0x40\n      mstore\n      pop\n      dup2\n      add\n      swap1\n      tag_245\n      swap2\n      swap1\n      tag_246\n      jump\t// in\n    tag_245:\n        /* \"contracts/Staking.sol\":2708:2782  require(IERC721(_stakeNFT[i]).supportsInterface(0x80ac58cd), \"Non-erc721\") */\n      tag_247\n      jumpi\n      mload(0x40)\n      0x08c379a000000000000000000000000000000000000000000000000000000000\n      dup2\n      mstore\n      0x04\n      add\n      tag_248\n      swap1\n      tag_249\n      jump\t// in\n    tag_248:\n      mload(0x40)\n      dup1\n      swap2\n      sub\n      swap1\n      revert\n    tag_247:\n        /* \"contracts/Staking.sol\":2859:2872  _rewardsToken */\n      dup4\n        /* \"contracts/Staking.sol\":2873:2874  i */\n      dup2\n        /* \"contracts/Staking.sol\":2859:2875  _rewardsToken[i] */\n      dup2\n      mload\n      dup2\n      lt\n      tag_250\n      jumpi\n      tag_251\n      tag_91\n      jump\t// in\n    tag_251:\n    tag_250:\n      0x20\n      mul\n      0x20\n      add\n      add\n      mload\n        /* \"contracts/Staking.sol\":2799:2806  nftInfo */\n      0x04\n        /* \"contracts/Staking.sol\":2799:2829  nftInfo[IERC721(_stakeNFT[i])] */\n      0x00\n        /* \"contracts/Staking.sol\":2815:2824  _stakeNFT */\n      dup8\n        /* \"contracts/Staking.sol\":2825:2826  i */\n      dup5\n        /* \"contracts/Staking.sol\":2815:2827  _stakeNFT[i] */\n      dup2\n      mload\n      dup2\n      lt\n      tag_252\n      jumpi\n      tag_253\n      tag_91\n      jump\t// in\n    tag_253:\n    tag_252:\n      0x20\n      mul\n      0x20\n      add\n      add\n      mload\n        /* \"contracts/Staking.sol\":2799:2829  nftInfo[IERC721(_stakeNFT[i])] */\n      0xffffffffffffffffffffffffffffffffffffffff\n      and\n      0xffffffffffffffffffffffffffffffffffffffff\n      and\n      dup2\n      mstore\n      0x20\n      add\n      swap1\n      dup2\n      mstore\n      0x20\n      add\n      0x00\n      keccak256\n        /* \"contracts/Staking.sol\":2799:2842  nftInfo[IERC721(_stakeNFT[i])].rewardsToken */\n      0x00\n      add\n      0x00\n        /* \"contracts/Staking.sol\":2799:2876  nftInfo[IERC721(_stakeNFT[i])].rewardsToken = IRewardsToken(_rewardsToken[i]) */\n      0x0100\n      exp\n      dup2\n      sload\n      dup2\n      0xffffffffffffffffffffffffffffffffffffffff\n      mul\n      not\n      and\n      swap1\n      dup4\n      0xffffffffffffffffffffffffffffffffffffffff\n      and\n      mul\n      or\n      swap1\n      sstore\n      pop\n        /* \"contracts/Staking.sol\":2939:2953  _rewardPerWave */\n      dup3\n        /* \"contracts/Staking.sol\":2954:2955  i */\n      dup2\n        /* \"contracts/Staking.sol\":2939:2956  _rewardPerWave[i] */\n      dup2\n      mload\n      dup2\n      lt\n      tag_254\n      jumpi\n      tag_255\n      tag_91\n      jump\t// in\n    tag_255:\n    tag_254:\n      0x20\n      mul\n      0x20\n      add\n      add\n      mload\n        /* \"contracts/Staking.sol\":2891:2898  nftInfo */\n      0x04\n        /* \"contracts/Staking.sol\":2891:2921  nftInfo[IERC721(_stakeNFT[i])] */\n      0x00\n        /* \"contracts/Staking.sol\":2907:2916  _stakeNFT */\n      dup8\n        /* \"contracts/Staking.sol\":2917:2918  i */\n      dup5\n        /* \"contracts/Staking.sol\":2907:2919  _stakeNFT[i] */\n      dup2\n      mload\n      dup2\n      lt\n      tag_256\n      jumpi\n      tag_257\n      tag_91\n      jump\t// in\n    tag_257:\n    tag_256:\n      0x20\n      mul\n      0x20\n      add\n      add\n      mload\n        /* \"contracts/Staking.sol\":2891:2921  nftInfo[IERC721(_stakeNFT[i])] */\n      0xffffffffffffffffffffffffffffffffffffffff\n      and\n      0xffffffffffffffffffffffffffffffffffffffff\n      and\n      dup2\n      mstore\n      0x20\n      add\n      swap1\n      dup2\n      mstore\n      0x20\n      add\n      0x00\n      keccak256\n        /* \"contracts/Staking.sol\":2891:2936  nftInfo[IERC721(_stakeNFT[i])].rewardsPerWave */\n      0x01\n      add\n        /* \"contracts/Staking.sol\":2891:2956  nftInfo[IERC721(_stakeNFT[i])].rewardsPerWave = _rewardPerWave[i] */\n      dup2\n      swap1\n      sstore\n      pop\n        /* \"contracts/Staking.sol\":3021:3038  _rewardPercentage */\n      dup2\n        /* \"contracts/Staking.sol\":3039:3040  i */\n      dup2\n        /* \"contracts/Staking.sol\":3021:3041  _rewardPercentage[i] */\n      dup2\n      mload\n      dup2\n      lt\n      tag_258\n      jumpi\n      tag_259\n      tag_91\n      jump\t// in\n    tag_259:\n    tag_258:\n      0x20\n      mul\n      0x20\n      add\n      add\n      mload\n        /* \"contracts/Staking.sol\":2971:2978  nftInfo */\n      0x04\n        /* \"contracts/Staking.sol\":2971:3001  nftInfo[IERC721(_stakeNFT[i])] */\n      0x00\n        /* \"contracts/Staking.sol\":2987:2996  _stakeNFT */\n      dup8\n        /* \"contracts/Staking.sol\":2997:2998  i */\n      dup5\n        /* \"contracts/Staking.sol\":2987:2999  _stakeNFT[i] */\n      dup2\n      mload\n      dup2\n      lt\n      tag_260\n      jumpi\n      tag_261\n      tag_91\n      jump\t// in\n    tag_261:\n    tag_260:\n      0x20\n      mul\n      0x20\n      add\n      add\n      mload\n        /* \"contracts/Staking.sol\":2971:3001  nftInfo[IERC721(_stakeNFT[i])] */\n      0xffffffffffffffffffffffffffffffffffffffff\n      and\n      0xffffffffffffffffffffffffffffffffffffffff\n      and\n      dup2\n      mstore\n      0x20\n      add\n      swap1\n      dup2\n      mstore\n      0x20\n      add\n      0x00\n      keccak256\n        /* \"contracts/Staking.sol\":2971:3018  nftInfo[IERC721(_stakeNFT[i])].rewardPercentage */\n      0x02\n      add\n        /* \"contracts/Staking.sol\":2971:3041  nftInfo[IERC721(_stakeNFT[i])].rewardPercentage = _rewardPercentage[i] */\n      dup2\n      swap1\n      sstore\n      pop\n        /* \"contracts/Staking.sol\":2537:2540  i++ */\n      dup1\n      dup1\n      tag_262\n      swap1\n      tag_118\n      jump\t// in\n    tag_262:\n      swap2\n      pop\n      pop\n        /* \"contracts/Staking.sol\":2498:3049  for (uint i = 0; i < _stakeNFT.length; i++) {... */\n      jump(tag_226)\n    tag_227:\n      pop\n        /* \"contracts/Staking.sol\":2267:3056  function addStakingNfts(... */\n      pop\n      pop\n      pop\n      pop\n      jump\t// out\n        /* \"@openzeppelin/contracts/access/Ownable.sol\":2081:2279  function transferOwnership(address newOwner) public virtual onlyOwner {... */\n    tag_69:\n        /* \"@openzeppelin/contracts/access/Ownable.sol\":1094:1107  _checkOwner() */\n      tag_264\n        /* \"@openzeppelin/contracts/access/Ownable.sol\":1094:1105  _checkOwner */\n      tag_163\n        /* \"@openzeppelin/contracts/access/Ownable.sol\":1094:1107  _checkOwner() */\n      jump\t// in\n    tag_264:\n        /* \"@openzeppelin/contracts/access/Ownable.sol\":2189:2190  0 */\n      0x00\n        /* \"@openzeppelin/contracts/access/Ownable.sol\":2169:2191  newOwner != address(0) */\n      0xffffffffffffffffffffffffffffffffffffffff\n      and\n        /* \"@openzeppelin/contracts/access/Ownable.sol\":2169:2177  newOwner */\n      dup2\n        /* \"@openzeppelin/contracts/access/Ownable.sol\":2169:2191  newOwner != address(0) */\n      0xffffffffffffffffffffffffffffffffffffffff\n      and\n      sub\n        /* \"@openzeppelin/contracts/access/Ownable.sol\":2161:2234  require(newOwner != address(0), \"Ownable: new owner is the zero address\") */\n      tag_266\n      jumpi\n      mload(0x40)\n      0x08c379a000000000000000000000000000000000000000000000000000000000\n      dup2\n      mstore\n      0x04\n      add\n      tag_267\n      swap1\n      tag_268\n      jump\t// in\n    tag_267:\n      mload(0x40)\n      dup1\n      swap2\n      sub\n      swap1\n      revert\n    tag_266:\n        /* \"@openzeppelin/contracts/access/Ownable.sol\":2244:2272  _transferOwnership(newOwner) */\n      tag_269\n        /* \"@openzeppelin/contracts/access/Ownable.sol\":2263:2271  newOwner */\n      dup2\n        /* \"@openzeppelin/contracts/access/Ownable.sol\":2244:2262  _transferOwnership */\n      tag_166\n        /* \"@openzeppelin/contracts/access/Ownable.sol\":2244:2272  _transferOwnership(newOwner) */\n      jump\t// in\n    tag_269:\n        /* \"@openzeppelin/contracts/access/Ownable.sol\":2081:2279  function transferOwnership(address newOwner) public virtual onlyOwner {... */\n      pop\n      jump\t// out\n        /* \"@openzeppelin/contracts/utils/Address.sol\":1175:1495  function isContract(address account) internal view returns (bool) {... */\n    tag_72:\n        /* \"@openzeppelin/contracts/utils/Address.sol\":1235:1239  bool */\n      0x00\n        /* \"@openzeppelin/contracts/utils/Address.sol\":1487:1488  0 */\n      dup1\n        /* \"@openzeppelin/contracts/utils/Address.sol\":1465:1472  account */\n      dup3\n        /* \"@openzeppelin/contracts/utils/Address.sol\":1465:1484  account.code.length */\n      0xffffffffffffffffffffffffffffffffffffffff\n      and\n      extcodesize\n        /* \"@openzeppelin/contracts/utils/Address.sol\":1465:1488  account.code.length > 0 */\n      gt\n        /* \"@openzeppelin/contracts/utils/Address.sol\":1458:1488  return account.code.length > 0 */\n      swap1\n      pop\n        /* \"@openzeppelin/contracts/utils/Address.sol\":1175:1495  function isContract(address account) internal view returns (bool) {... */\n      swap2\n      swap1\n      pop\n      jump\t// out\n        /* \"contracts/Staking.sol\":7307:7819  function _rewardAmount(uint256 _tokenId, IERC721 nftAddress) internal view returns (uint256) {... */\n    tag_106:\n        /* \"contracts/Staking.sol\":7391:7398  uint256 */\n      0x00\n        /* \"contracts/Staking.sol\":7411:7431  LockInfo memory info */\n      dup1\n        /* \"contracts/Staking.sol\":7434:7442  lockInfo */\n      0x03\n        /* \"contracts/Staking.sol\":7434:7463  lockInfo[IERC721(nftAddress)] */\n      0x00\n        /* \"contracts/Staking.sol\":7451:7461  nftAddress */\n      dup5\n        /* \"contracts/Staking.sol\":7434:7463  lockInfo[IERC721(nftAddress)] */\n      0xffffffffffffffffffffffffffffffffffffffff\n      and\n      0xffffffffffffffffffffffffffffffffffffffff\n      and\n      dup2\n      mstore\n      0x20\n      add\n      swap1\n      dup2\n      mstore\n      0x20\n      add\n      0x00\n      keccak256\n        /* \"contracts/Staking.sol\":7434:7473  lockInfo[IERC721(nftAddress)][_tokenId] */\n      0x00\n        /* \"contracts/Staking.sol\":7464:7472  _tokenId */\n      dup6\n        /* \"contracts/Staking.sol\":7434:7473  lockInfo[IERC721(nftAddress)][_tokenId] */\n      dup2\n      mstore\n      0x20\n      add\n      swap1\n      dup2\n      mstore\n      0x20\n      add\n      0x00\n      keccak256\n        /* \"contracts/Staking.sol\":7411:7473  LockInfo memory info = lockInfo[IERC721(nftAddress)][_tokenId] */\n      mload(0x40)\n      dup1\n      0xa0\n      add\n      0x40\n      mstore\n      swap1\n      dup2\n      0x00\n      dup3\n      add\n      0x00\n      swap1\n      sload\n      swap1\n      0x0100\n      exp\n      swap1\n      div\n      0xffffffffffffffffffffffffffffffffffffffff\n      and\n      0xffffffffffffffffffffffffffffffffffffffff\n      and\n      0xffffffffffffffffffffffffffffffffffffffff\n      and\n      dup2\n      mstore\n      0x20\n      add\n      0x01\n      dup3\n      add\n      sload\n      dup2\n      mstore\n      0x20\n      add\n      0x02\n      dup3\n      add\n      sload\n      dup2\n      mstore\n      0x20\n      add\n      0x03\n      dup3\n      add\n      0x00\n      swap1\n      sload\n      swap1\n      0x0100\n      exp\n      swap1\n      div\n      0xff\n      and\n      iszero\n      iszero\n      iszero\n      iszero\n      dup2\n      mstore\n      0x20\n      add\n      0x03\n      dup3\n      add\n      0x01\n      swap1\n      sload\n      swap1\n      0x0100\n      exp\n      swap1\n      div\n      0xffffffffffffffffffffffffffffffffffffffff\n      and\n      0xffffffffffffffffffffffffffffffffffffffff\n      and\n      0xffffffffffffffffffffffffffffffffffffffff\n      and\n      dup2\n      mstore\n      pop\n      pop\n      swap1\n      pop\n        /* \"contracts/Staking.sol\":7484:7507  uint256 stakingDuration */\n      0x00\n        /* \"contracts/Staking.sol\":7528:7532  info */\n      dup2\n        /* \"contracts/Staking.sol\":7528:7543  info.lockedTime */\n      0x20\n      add\n      mload\n        /* \"contracts/Staking.sol\":7510:7525  block.timestamp */\n      timestamp\n        /* \"contracts/Staking.sol\":7510:7543  block.timestamp - info.lockedTime */\n      tag_272\n      swap2\n      swap1\n      tag_108\n      jump\t// in\n    tag_272:\n        /* \"contracts/Staking.sol\":7484:7543  uint256 stakingDuration = block.timestamp - info.lockedTime */\n      swap1\n      pop\n        /* \"contracts/Staking.sol\":7554:7573  uint256 totalAmount */\n      0x00\n        /* \"contracts/Staking.sol\":7608:7618  lockPeriod */\n      sload(0x02)\n        /* \"contracts/Staking.sol\":7590:7605  stakingDuration */\n      dup3\n        /* \"contracts/Staking.sol\":7590:7618  stakingDuration < lockPeriod */\n      lt\n        /* \"contracts/Staking.sol\":7586:7812  if (stakingDuration < lockPeriod) {... */\n      iszero\n      tag_273\n      jumpi\n        /* \"contracts/Staking.sol\":7642:7643  0 */\n      0x00\n        /* \"contracts/Staking.sol\":7635:7643  return 0 */\n      swap4\n      pop\n      pop\n      pop\n      pop\n      jump(tag_271)\n        /* \"contracts/Staking.sol\":7586:7812  if (stakingDuration < lockPeriod) {... */\n    tag_273:\n        /* \"contracts/Staking.sol\":7763:7767  WAVE */\n      sload(0x05)\n        /* \"contracts/Staking.sol\":7748:7758  lockPeriod */\n      sload(0x02)\n        /* \"contracts/Staking.sol\":7730:7745  stakingDuration */\n      dup4\n        /* \"contracts/Staking.sol\":7730:7758  stakingDuration - lockPeriod */\n      tag_275\n      swap2\n      swap1\n      tag_108\n      jump\t// in\n    tag_275:\n        /* \"contracts/Staking.sol\":7692:7699  nftInfo */\n      0x04\n        /* \"contracts/Staking.sol\":7692:7711  nftInfo[nftAddress] */\n      0x00\n        /* \"contracts/Staking.sol\":7700:7710  nftAddress */\n      dup9\n        /* \"contracts/Staking.sol\":7692:7711  nftInfo[nftAddress] */\n      0xffffffffffffffffffffffffffffffffffffffff\n      and\n      0xffffffffffffffffffffffffffffffffffffffff\n      and\n      dup2\n      mstore\n      0x20\n      add\n      swap1\n      dup2\n      mstore\n      0x20\n      add\n      0x00\n      keccak256\n        /* \"contracts/Staking.sol\":7692:7726  nftInfo[nftAddress].rewardsPerWave */\n      0x01\n      add\n      sload\n        /* \"contracts/Staking.sol\":7692:7759  nftInfo[nftAddress].rewardsPerWave * (stakingDuration - lockPeriod) */\n      tag_276\n      swap2\n      swap1\n      tag_277\n      jump\t// in\n    tag_276:\n        /* \"contracts/Staking.sol\":7690:7767  ( nftInfo[nftAddress].rewardsPerWave * (stakingDuration - lockPeriod)) / WAVE */\n      tag_278\n      swap2\n      swap1\n      tag_279\n      jump\t// in\n    tag_278:\n        /* \"contracts/Staking.sol\":7676:7767  totalAmount = ( nftInfo[nftAddress].rewardsPerWave * (stakingDuration - lockPeriod)) / WAVE */\n      swap1\n      pop\n        /* \"contracts/Staking.sol\":7789:7800  totalAmount */\n      dup1\n        /* \"contracts/Staking.sol\":7782:7800  return totalAmount */\n      swap4\n      pop\n      pop\n      pop\n      pop\n        /* \"contracts/Staking.sol\":7307:7819  function _rewardAmount(uint256 _tokenId, IERC721 nftAddress) internal view returns (uint256) {... */\n    tag_271:\n      swap3\n      swap2\n      pop\n      pop\n      jump\t// out\n        /* \"@openzeppelin/contracts/access/Ownable.sol\":1359:1489  function _checkOwner() internal view virtual {... */\n    tag_163:\n        /* \"@openzeppelin/contracts/access/Ownable.sol\":1433:1445  _msgSender() */\n      tag_281\n        /* \"@openzeppelin/contracts/access/Ownable.sol\":1433:1443  _msgSender */\n      tag_282\n        /* \"@openzeppelin/contracts/access/Ownable.sol\":1433:1445  _msgSender() */\n      jump\t// in\n    tag_281:\n        /* \"@openzeppelin/contracts/access/Ownable.sol\":1422:1445  owner() == _msgSender() */\n      0xffffffffffffffffffffffffffffffffffffffff\n      and\n        /* \"@openzeppelin/contracts/access/Ownable.sol\":1422:1429  owner() */\n      tag_283\n        /* \"@openzeppelin/contracts/access/Ownable.sol\":1422:1427  owner */\n      tag_36\n        /* \"@openzeppelin/contracts/access/Ownable.sol\":1422:1429  owner() */\n      jump\t// in\n    tag_283:\n        /* \"@openzeppelin/contracts/access/Ownable.sol\":1422:1445  owner() == _msgSender() */\n      0xffffffffffffffffffffffffffffffffffffffff\n      and\n      eq\n        /* \"@openzeppelin/contracts/access/Ownable.sol\":1414:1482  require(owner() == _msgSender(), \"Ownable: caller is not the owner\") */\n      tag_284\n      jumpi\n      mload(0x40)\n      0x08c379a000000000000000000000000000000000000000000000000000000000\n      dup2\n      mstore\n      0x04\n      add\n      tag_285\n      swap1\n      tag_286\n      jump\t// in\n    tag_285:\n      mload(0x40)\n      dup1\n      swap2\n      sub\n      swap1\n      revert\n    tag_284:\n        /* \"@openzeppelin/contracts/access/Ownable.sol\":1359:1489  function _checkOwner() internal view virtual {... */\n      jump\t// out\n        /* \"@openzeppelin/contracts/access/Ownable.sol\":2433:2620  function _transferOwnership(address newOwner) internal virtual {... */\n    tag_166:\n        /* \"@openzeppelin/contracts/access/Ownable.sol\":2506:2522  address oldOwner */\n      0x00\n        /* \"@openzeppelin/contracts/access/Ownable.sol\":2525:2531  _owner */\n      dup1\n      0x00\n      swap1\n      sload\n      swap1\n      0x0100\n      exp\n      swap1\n      div\n      0xffffffffffffffffffffffffffffffffffffffff\n      and\n        /* \"@openzeppelin/contracts/access/Ownable.sol\":2506:2531  address oldOwner = _owner */\n      swap1\n      pop\n        /* \"@openzeppelin/contracts/access/Ownable.sol\":2550:2558  newOwner */\n      dup2\n        /* \"@openzeppelin/contracts/access/Ownable.sol\":2541:2547  _owner */\n      0x00\n      dup1\n        /* \"@openzeppelin/contracts/access/Ownable.sol\":2541:2558  _owner = newOwner */\n      0x0100\n      exp\n      dup2\n      sload\n      dup2\n      0xffffffffffffffffffffffffffffffffffffffff\n      mul\n      not\n      and\n      swap1\n      dup4\n      0xffffffffffffffffffffffffffffffffffffffff\n      and\n      mul\n      or\n      swap1\n      sstore\n      pop\n        /* \"@openzeppelin/contracts/access/Ownable.sol\":2604:2612  newOwner */\n      dup2\n        /* \"@openzeppelin/contracts/access/Ownable.sol\":2573:2613  OwnershipTransferred(oldOwner, newOwner) */\n      0xffffffffffffffffffffffffffffffffffffffff\n      and\n        /* \"@openzeppelin/contracts/access/Ownable.sol\":2594:2602  oldOwner */\n      dup2\n        /* \"@openzeppelin/contracts/access/Ownable.sol\":2573:2613  OwnershipTransferred(oldOwner, newOwner) */\n      0xffffffffffffffffffffffffffffffffffffffff\n      and\n      0x8be0079c531659141344cd1fd0a4f28419497f9722a3daafe3b4186f6b6457e0\n      mload(0x40)\n      mload(0x40)\n      dup1\n      swap2\n      sub\n      swap1\n      log3\n        /* \"@openzeppelin/contracts/access/Ownable.sol\":2496:2620  {... */\n      pop\n        /* \"@openzeppelin/contracts/access/Ownable.sol\":2433:2620  function _transferOwnership(address newOwner) internal virtual {... */\n      pop\n      jump\t// out\n        /* \"@openzeppelin/contracts/utils/Context.sol\":640:736  function _msgSender() internal view virtual returns (address) {... */\n    tag_282:\n        /* \"@openzeppelin/contracts/utils/Context.sol\":693:700  address */\n      0x00\n        /* \"@openzeppelin/contracts/utils/Context.sol\":719:729  msg.sender */\n      caller\n        /* \"@openzeppelin/contracts/utils/Context.sol\":712:729  return msg.sender */\n      swap1\n      pop\n        /* \"@openzeppelin/contracts/utils/Context.sol\":640:736  function _msgSender() internal view virtual returns (address) {... */\n      swap1\n      jump\t// out\n        /* \"#utility.yul\":7:82   */\n    tag_289:\n        /* \"#utility.yul\":40:46   */\n      0x00\n        /* \"#utility.yul\":73:75   */\n      0x40\n        /* \"#utility.yul\":67:76   */\n      mload\n        /* \"#utility.yul\":57:76   */\n      swap1\n      pop\n        /* \"#utility.yul\":7:82   */\n      swap1\n      jump\t// out\n        /* \"#utility.yul\":88:205   */\n    tag_290:\n        /* \"#utility.yul\":197:198   */\n      0x00\n        /* \"#utility.yul\":194:195   */\n      dup1\n        /* \"#utility.yul\":187:199   */\n      revert\n        /* \"#utility.yul\":211:328   */\n    tag_291:\n        /* \"#utility.yul\":320:321   */\n      0x00\n        /* \"#utility.yul\":317:318   */\n      dup1\n        /* \"#utility.yul\":310:322   */\n      revert\n        /* \"#utility.yul\":334:451   */\n    tag_292:\n        /* \"#utility.yul\":443:444   */\n      0x00\n        /* \"#utility.yul\":440:441   */\n      dup1\n        /* \"#utility.yul\":433:445   */\n      revert\n        /* \"#utility.yul\":457:574   */\n    tag_293:\n        /* \"#utility.yul\":566:567   */\n      0x00\n        /* \"#utility.yul\":563:564   */\n      dup1\n        /* \"#utility.yul\":556:568   */\n      revert\n        /* \"#utility.yul\":580:697   */\n    tag_294:\n        /* \"#utility.yul\":689:690   */\n      0x00\n        /* \"#utility.yul\":686:687   */\n      dup1\n        /* \"#utility.yul\":679:691   */\n      revert\n        /* \"#utility.yul\":720:1288   */\n    tag_295:\n        /* \"#utility.yul\":793:801   */\n      0x00\n        /* \"#utility.yul\":803:809   */\n      dup1\n        /* \"#utility.yul\":853:856   */\n      dup4\n        /* \"#utility.yul\":846:850   */\n      0x1f\n        /* \"#utility.yul\":838:844   */\n      dup5\n        /* \"#utility.yul\":834:851   */\n      add\n        /* \"#utility.yul\":830:857   */\n      slt\n        /* \"#utility.yul\":820:942   */\n      tag_382\n      jumpi\n        /* \"#utility.yul\":861:940   */\n      tag_383\n      tag_292\n      jump\t// in\n    tag_383:\n        /* \"#utility.yul\":820:942   */\n    tag_382:\n        /* \"#utility.yul\":974:980   */\n      dup3\n        /* \"#utility.yul\":961:981   */\n      calldataload\n        /* \"#utility.yul\":951:981   */\n      swap1\n      pop\n        /* \"#utility.yul\":1004:1022   */\n      0xffffffffffffffff\n        /* \"#utility.yul\":996:1002   */\n      dup2\n        /* \"#utility.yul\":993:1023   */\n      gt\n        /* \"#utility.yul\":990:1107   */\n      iszero\n      tag_384\n      jumpi\n        /* \"#utility.yul\":1026:1105   */\n      tag_385\n      tag_293\n      jump\t// in\n    tag_385:\n        /* \"#utility.yul\":990:1107   */\n    tag_384:\n        /* \"#utility.yul\":1140:1144   */\n      0x20\n        /* \"#utility.yul\":1132:1138   */\n      dup4\n        /* \"#utility.yul\":1128:1145   */\n      add\n        /* \"#utility.yul\":1116:1145   */\n      swap2\n      pop\n        /* \"#utility.yul\":1194:1197   */\n      dup4\n        /* \"#utility.yul\":1186:1190   */\n      0x20\n        /* \"#utility.yul\":1178:1184   */\n      dup3\n        /* \"#utility.yul\":1174:1191   */\n      mul\n        /* \"#utility.yul\":1164:1172   */\n      dup4\n        /* \"#utility.yul\":1160:1192   */\n      add\n        /* \"#utility.yul\":1157:1198   */\n      gt\n        /* \"#utility.yul\":1154:1282   */\n      iszero\n      tag_386\n      jumpi\n        /* \"#utility.yul\":1201:1280   */\n      tag_387\n      tag_294\n      jump\t// in\n    tag_387:\n        /* \"#utility.yul\":1154:1282   */\n    tag_386:\n        /* \"#utility.yul\":720:1288   */\n      swap3\n      pop\n      swap3\n      swap1\n      pop\n      jump\t// out\n        /* \"#utility.yul\":1294:1420   */\n    tag_296:\n        /* \"#utility.yul\":1331:1338   */\n      0x00\n        /* \"#utility.yul\":1371:1413   */\n      0xffffffffffffffffffffffffffffffffffffffff\n        /* \"#utility.yul\":1364:1369   */\n      dup3\n        /* \"#utility.yul\":1360:1414   */\n      and\n        /* \"#utility.yul\":1349:1414   */\n      swap1\n      pop\n        /* \"#utility.yul\":1294:1420   */\n      swap2\n      swap1\n      pop\n      jump\t// out\n        /* \"#utility.yul\":1426:1522   */\n    tag_297:\n        /* \"#utility.yul\":1463:1470   */\n      0x00\n        /* \"#utility.yul\":1492:1516   */\n      tag_390\n        /* \"#utility.yul\":1510:1515   */\n      dup3\n        /* \"#utility.yul\":1492:1516   */\n      tag_296\n      jump\t// in\n    tag_390:\n        /* \"#utility.yul\":1481:1516   */\n      swap1\n      pop\n        /* \"#utility.yul\":1426:1522   */\n      swap2\n      swap1\n      pop\n      jump\t// out\n        /* \"#utility.yul\":1528:1639   */\n    tag_298:\n        /* \"#utility.yul\":1580:1587   */\n      0x00\n        /* \"#utility.yul\":1609:1633   */\n      tag_392\n        /* \"#utility.yul\":1627:1632   */\n      dup3\n        /* \"#utility.yul\":1609:1633   */\n      tag_297\n      jump\t// in\n    tag_392:\n        /* \"#utility.yul\":1598:1633   */\n      swap1\n      pop\n        /* \"#utility.yul\":1528:1639   */\n      swap2\n      swap1\n      pop\n      jump\t// out\n        /* \"#utility.yul\":1645:1797   */\n    tag_299:\n        /* \"#utility.yul\":1733:1772   */\n      tag_394\n        /* \"#utility.yul\":1766:1771   */\n      dup2\n        /* \"#utility.yul\":1733:1772   */\n      tag_298\n      jump\t// in\n    tag_394:\n        /* \"#utility.yul\":1726:1731   */\n      dup2\n        /* \"#utility.yul\":1723:1773   */\n      eq\n        /* \"#utility.yul\":1713:1791   */\n      tag_395\n      jumpi\n        /* \"#utility.yul\":1787:1788   */\n      0x00\n        /* \"#utility.yul\":1784:1785   */\n      dup1\n        /* \"#utility.yul\":1777:1789   */\n      revert\n        /* \"#utility.yul\":1713:1791   */\n    tag_395:\n        /* \"#utility.yul\":1645:1797   */\n      pop\n      jump\t// out\n        /* \"#utility.yul\":1803:1972   */\n    tag_300:\n        /* \"#utility.yul\":1864:1869   */\n      0x00\n        /* \"#utility.yul\":1902:1908   */\n      dup2\n        /* \"#utility.yul\":1889:1909   */\n      calldataload\n        /* \"#utility.yul\":1880:1909   */\n      swap1\n      pop\n        /* \"#utility.yul\":1918:1966   */\n      tag_397\n        /* \"#utility.yul\":1960:1965   */\n      dup2\n        /* \"#utility.yul\":1918:1966   */\n      tag_299\n      jump\t// in\n    tag_397:\n        /* \"#utility.yul\":1803:1972   */\n      swap3\n      swap2\n      pop\n      pop\n      jump\t// out\n        /* \"#utility.yul\":1978:2712   */\n    tag_20:\n        /* \"#utility.yul\":2088:2094   */\n      0x00\n        /* \"#utility.yul\":2096:2102   */\n      dup1\n        /* \"#utility.yul\":2104:2110   */\n      0x00\n        /* \"#utility.yul\":2153:2155   */\n      0x40\n        /* \"#utility.yul\":2141:2150   */\n      dup5\n        /* \"#utility.yul\":2132:2139   */\n      dup7\n        /* \"#utility.yul\":2128:2151   */\n      sub\n        /* \"#utility.yul\":2124:2156   */\n      slt\n        /* \"#utility.yul\":2121:2240   */\n      iszero\n      tag_399\n      jumpi\n        /* \"#utility.yul\":2159:2238   */\n      tag_400\n      tag_290\n      jump\t// in\n    tag_400:\n        /* \"#utility.yul\":2121:2240   */\n    tag_399:\n        /* \"#utility.yul\":2307:2308   */\n      0x00\n        /* \"#utility.yul\":2296:2305   */\n      dup5\n        /* \"#utility.yul\":2292:2309   */\n      add\n        /* \"#utility.yul\":2279:2310   */\n      calldataload\n        /* \"#utility.yul\":2337:2355   */\n      0xffffffffffffffff\n        /* \"#utility.yul\":2329:2335   */\n      dup2\n        /* \"#utility.yul\":2326:2356   */\n      gt\n        /* \"#utility.yul\":2323:2440   */\n      iszero\n      tag_401\n      jumpi\n        /* \"#utility.yul\":2359:2438   */\n      tag_402\n      tag_291\n      jump\t// in\n    tag_402:\n        /* \"#utility.yul\":2323:2440   */\n    tag_401:\n        /* \"#utility.yul\":2472:2552   */\n      tag_403\n        /* \"#utility.yul\":2544:2551   */\n      dup7\n        /* \"#utility.yul\":2535:2541   */\n      dup3\n        /* \"#utility.yul\":2524:2533   */\n      dup8\n        /* \"#utility.yul\":2520:2542   */\n      add\n        /* \"#utility.yul\":2472:2552   */\n      tag_295\n      jump\t// in\n    tag_403:\n        /* \"#utility.yul\":2454:2552   */\n      swap4\n      pop\n      swap4\n      pop\n        /* \"#utility.yul\":2250:2562   */\n      pop\n        /* \"#utility.yul\":2601:2603   */\n      0x20\n        /* \"#utility.yul\":2627:2695   */\n      tag_404\n        /* \"#utility.yul\":2687:2694   */\n      dup7\n        /* \"#utility.yul\":2678:2684   */\n      dup3\n        /* \"#utility.yul\":2667:2676   */\n      dup8\n        /* \"#utility.yul\":2663:2685   */\n      add\n        /* \"#utility.yul\":2627:2695   */\n      tag_300\n      jump\t// in\n    tag_404:\n        /* \"#utility.yul\":2617:2695   */\n      swap2\n      pop\n        /* \"#utility.yul\":2572:2705   */\n      pop\n        /* \"#utility.yul\":1978:2712   */\n      swap3\n      pop\n      swap3\n      pop\n      swap3\n      jump\t// out\n        /* \"#utility.yul\":2718:2795   */\n    tag_301:\n        /* \"#utility.yul\":2755:2762   */\n      0x00\n        /* \"#utility.yul\":2784:2789   */\n      dup2\n        /* \"#utility.yul\":2773:2789   */\n      swap1\n      pop\n        /* \"#utility.yul\":2718:2795   */\n      swap2\n      swap1\n      pop\n      jump\t// out\n        /* \"#utility.yul\":2801:2919   */\n    tag_302:\n        /* \"#utility.yul\":2888:2912   */\n      tag_407\n        /* \"#utility.yul\":2906:2911   */\n      dup2\n        /* \"#utility.yul\":2888:2912   */\n      tag_301\n      jump\t// in\n    tag_407:\n        /* \"#utility.yul\":2883:2886   */\n      dup3\n        /* \"#utility.yul\":2876:2913   */\n      mstore\n        /* \"#utility.yul\":2801:2919   */\n      pop\n      pop\n      jump\t// out\n        /* \"#utility.yul\":2925:3147   */\n    tag_28:\n        /* \"#utility.yul\":3018:3022   */\n      0x00\n        /* \"#utility.yul\":3056:3058   */\n      0x20\n        /* \"#utility.yul\":3045:3054   */\n      dup3\n        /* \"#utility.yul\":3041:3059   */\n      add\n        /* \"#utility.yul\":3033:3059   */\n      swap1\n      pop\n        /* \"#utility.yul\":3069:3140   */\n      tag_409\n        /* \"#utility.yul\":3137:3138   */\n      0x00\n        /* \"#utility.yul\":3126:3135   */\n      dup4\n        /* \"#utility.yul\":3122:3139   */\n      add\n        /* \"#utility.yul\":3113:3119   */\n      dup5\n        /* \"#utility.yul\":3069:3140   */\n      tag_302\n      jump\t// in\n    tag_409:\n        /* \"#utility.yul\":2925:3147   */\n      swap3\n      swap2\n      pop\n      pop\n      jump\t// out\n        /* \"#utility.yul\":3153:3275   */\n    tag_303:\n        /* \"#utility.yul\":3226:3250   */\n      tag_411\n        /* \"#utility.yul\":3244:3249   */\n      dup2\n        /* \"#utility.yul\":3226:3250   */\n      tag_301\n      jump\t// in\n    tag_411:\n        /* \"#utility.yul\":3219:3224   */\n      dup2\n        /* \"#utility.yul\":3216:3251   */\n      eq\n        /* \"#utility.yul\":3206:3269   */\n      tag_412\n      jumpi\n        /* \"#utility.yul\":3265:3266   */\n      0x00\n        /* \"#utility.yul\":3262:3263   */\n      dup1\n        /* \"#utility.yul\":3255:3267   */\n      revert\n        /* \"#utility.yul\":3206:3269   */\n    tag_412:\n        /* \"#utility.yul\":3153:3275   */\n      pop\n      jump\t// out\n        /* \"#utility.yul\":3281:3420   */\n    tag_304:\n        /* \"#utility.yul\":3327:3332   */\n      0x00\n        /* \"#utility.yul\":3365:3371   */\n      dup2\n        /* \"#utility.yul\":3352:3372   */\n      calldataload\n        /* \"#utility.yul\":3343:3372   */\n      swap1\n      pop\n        /* \"#utility.yul\":3381:3414   */\n      tag_414\n        /* \"#utility.yul\":3408:3413   */\n      dup2\n        /* \"#utility.yul\":3381:3414   */\n      tag_303\n      jump\t// in\n    tag_414:\n        /* \"#utility.yul\":3281:3420   */\n      swap3\n      swap2\n      pop\n      pop\n      jump\t// out\n        /* \"#utility.yul\":3426:3755   */\n    tag_33:\n        /* \"#utility.yul\":3485:3491   */\n      0x00\n        /* \"#utility.yul\":3534:3536   */\n      0x20\n        /* \"#utility.yul\":3522:3531   */\n      dup3\n        /* \"#utility.yul\":3513:3520   */\n      dup5\n        /* \"#utility.yul\":3509:3532   */\n      sub\n        /* \"#utility.yul\":3505:3537   */\n      slt\n        /* \"#utility.yul\":3502:3621   */\n      iszero\n      tag_416\n      jumpi\n        /* \"#utility.yul\":3540:3619   */\n      tag_417\n      tag_290\n      jump\t// in\n    tag_417:\n        /* \"#utility.yul\":3502:3621   */\n    tag_416:\n        /* \"#utility.yul\":3660:3661   */\n      0x00\n        /* \"#utility.yul\":3685:3738   */\n      tag_418\n        /* \"#utility.yul\":3730:3737   */\n      dup5\n        /* \"#utility.yul\":3721:3727   */\n      dup3\n        /* \"#utility.yul\":3710:3719   */\n      dup6\n        /* \"#utility.yul\":3706:3728   */\n      add\n        /* \"#utility.yul\":3685:3738   */\n      tag_304\n      jump\t// in\n    tag_418:\n        /* \"#utility.yul\":3675:3738   */\n      swap2\n      pop\n        /* \"#utility.yul\":3631:3748   */\n      pop\n        /* \"#utility.yul\":3426:3755   */\n      swap3\n      swap2\n      pop\n      pop\n      jump\t// out\n        /* \"#utility.yul\":3761:3879   */\n    tag_305:\n        /* \"#utility.yul\":3848:3872   */\n      tag_420\n        /* \"#utility.yul\":3866:3871   */\n      dup2\n        /* \"#utility.yul\":3848:3872   */\n      tag_297\n      jump\t// in\n    tag_420:\n        /* \"#utility.yul\":3843:3846   */\n      dup3\n        /* \"#utility.yul\":3836:3873   */\n      mstore\n        /* \"#utility.yul\":3761:3879   */\n      pop\n      pop\n      jump\t// out\n        /* \"#utility.yul\":3885:4107   */\n    tag_38:\n        /* \"#utility.yul\":3978:3982   */\n      0x00\n        /* \"#utility.yul\":4016:4018   */\n      0x20\n        /* \"#utility.yul\":4005:4014   */\n      dup3\n        /* \"#utility.yul\":4001:4019   */\n      add\n        /* \"#utility.yul\":3993:4019   */\n      swap1\n      pop\n        /* \"#utility.yul\":4029:4100   */\n      tag_422\n        /* \"#utility.yul\":4097:4098   */\n      0x00\n        /* \"#utility.yul\":4086:4095   */\n      dup4\n        /* \"#utility.yul\":4082:4099   */\n      add\n        /* \"#utility.yul\":4073:4079   */\n      dup5\n        /* \"#utility.yul\":4029:4100   */\n      tag_305\n      jump\t// in\n    tag_422:\n        /* \"#utility.yul\":3885:4107   */\n      swap3\n      swap2\n      pop\n      pop\n      jump\t// out\n        /* \"#utility.yul\":4113:4617   */\n    tag_44:\n        /* \"#utility.yul\":4196:4202   */\n      0x00\n        /* \"#utility.yul\":4204:4210   */\n      dup1\n        /* \"#utility.yul\":4253:4255   */\n      0x40\n        /* \"#utility.yul\":4241:4250   */\n      dup4\n        /* \"#utility.yul\":4232:4239   */\n      dup6\n        /* \"#utility.yul\":4228:4251   */\n      sub\n        /* \"#utility.yul\":4224:4256   */\n      slt\n        /* \"#utility.yul\":4221:4340   */\n      iszero\n      tag_424\n      jumpi\n        /* \"#utility.yul\":4259:4338   */\n      tag_425\n      tag_290\n      jump\t// in\n    tag_425:\n        /* \"#utility.yul\":4221:4340   */\n    tag_424:\n        /* \"#utility.yul\":4379:4380   */\n      0x00\n        /* \"#utility.yul\":4404:4472   */\n      tag_426\n        /* \"#utility.yul\":4464:4471   */\n      dup6\n        /* \"#utility.yul\":4455:4461   */\n      dup3\n        /* \"#utility.yul\":4444:4453   */\n      dup7\n        /* \"#utility.yul\":4440:4462   */\n      add\n        /* \"#utility.yul\":4404:4472   */\n      tag_300\n      jump\t// in\n    tag_426:\n        /* \"#utility.yul\":4394:4472   */\n      swap3\n      pop\n        /* \"#utility.yul\":4350:4482   */\n      pop\n        /* \"#utility.yul\":4521:4523   */\n      0x20\n        /* \"#utility.yul\":4547:4600   */\n      tag_427\n        /* \"#utility.yul\":4592:4599   */\n      dup6\n        /* \"#utility.yul\":4583:4589   */\n      dup3\n        /* \"#utility.yul\":4572:4581   */\n      dup7\n        /* \"#utility.yul\":4568:4590   */\n      add\n        /* \"#utility.yul\":4547:4600   */\n      tag_304\n      jump\t// in\n    tag_427:\n        /* \"#utility.yul\":4537:4600   */\n      swap2\n      pop\n        /* \"#utility.yul\":4492:4610   */\n      pop\n        /* \"#utility.yul\":4113:4617   */\n      swap3\n      pop\n      swap3\n      swap1\n      pop\n      jump\t// out\n        /* \"#utility.yul\":4623:4713   */\n    tag_306:\n        /* \"#utility.yul\":4657:4664   */\n      0x00\n        /* \"#utility.yul\":4700:4705   */\n      dup2\n        /* \"#utility.yul\":4693:4706   */\n      iszero\n        /* \"#utility.yul\":4686:4707   */\n      iszero\n        /* \"#utility.yul\":4675:4707   */\n      swap1\n      pop\n        /* \"#utility.yul\":4623:4713   */\n      swap2\n      swap1\n      pop\n      jump\t// out\n        /* \"#utility.yul\":4719:4828   */\n    tag_307:\n        /* \"#utility.yul\":4800:4821   */\n      tag_430\n        /* \"#utility.yul\":4815:4820   */\n      dup2\n        /* \"#utility.yul\":4800:4821   */\n      tag_306\n      jump\t// in\n    tag_430:\n        /* \"#utility.yul\":4795:4798   */\n      dup3\n        /* \"#utility.yul\":4788:4822   */\n      mstore\n        /* \"#utility.yul\":4719:4828   */\n      pop\n      pop\n      jump\t// out\n        /* \"#utility.yul\":4834:4894   */\n    tag_308:\n        /* \"#utility.yul\":4862:4865   */\n      0x00\n        /* \"#utility.yul\":4883:4888   */\n      dup2\n        /* \"#utility.yul\":4876:4888   */\n      swap1\n      pop\n        /* \"#utility.yul\":4834:4894   */\n      swap2\n      swap1\n      pop\n      jump\t// out\n        /* \"#utility.yul\":4900:5042   */\n    tag_309:\n        /* \"#utility.yul\":4950:4959   */\n      0x00\n        /* \"#utility.yul\":4983:5036   */\n      tag_433\n        /* \"#utility.yul\":5001:5035   */\n      tag_434\n        /* \"#utility.yul\":5010:5034   */\n      tag_435\n        /* \"#utility.yul\":5028:5033   */\n      dup5\n        /* \"#utility.yul\":5010:5034   */\n      tag_296\n      jump\t// in\n    tag_435:\n        /* \"#utility.yul\":5001:5035   */\n      tag_308\n      jump\t// in\n    tag_434:\n        /* \"#utility.yul\":4983:5036   */\n      tag_296\n      jump\t// in\n    tag_433:\n        /* \"#utility.yul\":4970:5036   */\n      swap1\n      pop\n        /* \"#utility.yul\":4900:5042   */\n      swap2\n      swap1\n      pop\n      jump\t// out\n        /* \"#utility.yul\":5048:5174   */\n    tag_310:\n        /* \"#utility.yul\":5098:5107   */\n      0x00\n        /* \"#utility.yul\":5131:5168   */\n      tag_437\n        /* \"#utility.yul\":5162:5167   */\n      dup3\n        /* \"#utility.yul\":5131:5168   */\n      tag_309\n      jump\t// in\n    tag_437:\n        /* \"#utility.yul\":5118:5168   */\n      swap1\n      pop\n        /* \"#utility.yul\":5048:5174   */\n      swap2\n      swap1\n      pop\n      jump\t// out\n        /* \"#utility.yul\":5180:5321   */\n    tag_311:\n        /* \"#utility.yul\":5245:5254   */\n      0x00\n        /* \"#utility.yul\":5278:5315   */\n      tag_439\n        /* \"#utility.yul\":5309:5314   */\n      dup3\n        /* \"#utility.yul\":5278:5315   */\n      tag_310\n      jump\t// in\n    tag_439:\n        /* \"#utility.yul\":5265:5315   */\n      swap1\n      pop\n        /* \"#utility.yul\":5180:5321   */\n      swap2\n      swap1\n      pop\n      jump\t// out\n        /* \"#utility.yul\":5327:5488   */\n    tag_312:\n        /* \"#utility.yul\":5429:5481   */\n      tag_441\n        /* \"#utility.yul\":5475:5480   */\n      dup2\n        /* \"#utility.yul\":5429:5481   */\n      tag_311\n      jump\t// in\n    tag_441:\n        /* \"#utility.yul\":5424:5427   */\n      dup3\n        /* \"#utility.yul\":5417:5482   */\n      mstore\n        /* \"#utility.yul\":5327:5488   */\n      pop\n      pop\n      jump\t// out\n        /* \"#utility.yul\":5494:6176   */\n    tag_47:\n        /* \"#utility.yul\":5708:5712   */\n      0x00\n        /* \"#utility.yul\":5746:5749   */\n      0xa0\n        /* \"#utility.yul\":5735:5744   */\n      dup3\n        /* \"#utility.yul\":5731:5750   */\n      add\n        /* \"#utility.yul\":5723:5750   */\n      swap1\n      pop\n        /* \"#utility.yul\":5760:5831   */\n      tag_443\n        /* \"#utility.yul\":5828:5829   */\n      0x00\n        /* \"#utility.yul\":5817:5826   */\n      dup4\n        /* \"#utility.yul\":5813:5830   */\n      add\n        /* \"#utility.yul\":5804:5810   */\n      dup9\n        /* \"#utility.yul\":5760:5831   */\n      tag_305\n      jump\t// in\n    tag_443:\n        /* \"#utility.yul\":5841:5913   */\n      tag_444\n        /* \"#utility.yul\":5909:5911   */\n      0x20\n        /* \"#utility.yul\":5898:5907   */\n      dup4\n        /* \"#utility.yul\":5894:5912   */\n      add\n        /* \"#utility.yul\":5885:5891   */\n      dup8\n        /* \"#utility.yul\":5841:5913   */\n      tag_302\n      jump\t// in\n    tag_444:\n        /* \"#utility.yul\":5923:5995   */\n      tag_445\n        /* \"#utility.yul\":5991:5993   */\n      0x40\n        /* \"#utility.yul\":5980:5989   */\n      dup4\n        /* \"#utility.yul\":5976:5994   */\n      add\n        /* \"#utility.yul\":5967:5973   */\n      dup7\n        /* \"#utility.yul\":5923:5995   */\n      tag_302\n      jump\t// in\n    tag_445:\n        /* \"#utility.yul\":6005:6071   */\n      tag_446\n        /* \"#utility.yul\":6067:6069   */\n      0x60\n        /* \"#utility.yul\":6056:6065   */\n      dup4\n        /* \"#utility.yul\":6052:6070   */\n      add\n        /* \"#utility.yul\":6043:6049   */\n      dup6\n        /* \"#utility.yul\":6005:6071   */\n      tag_307\n      jump\t// in\n    tag_446:\n        /* \"#utility.yul\":6081:6169   */\n      tag_447\n        /* \"#utility.yul\":6164:6167   */\n      0x80\n        /* \"#utility.yul\":6153:6162   */\n      dup4\n        /* \"#utility.yul\":6149:6168   */\n      add\n        /* \"#utility.yul\":6140:6146   */\n      dup5\n        /* \"#utility.yul\":6081:6169   */\n      tag_312\n      jump\t// in\n    tag_447:\n        /* \"#utility.yul\":5494:6176   */\n      swap7\n      swap6\n      pop\n      pop\n      pop\n      pop\n      pop\n      pop\n      jump\t// out\n        /* \"#utility.yul\":6182:6686   */\n    tag_50:\n        /* \"#utility.yul\":6265:6271   */\n      0x00\n        /* \"#utility.yul\":6273:6279   */\n      dup1\n        /* \"#utility.yul\":6322:6324   */\n      0x40\n        /* \"#utility.yul\":6310:6319   */\n      dup4\n        /* \"#utility.yul\":6301:6308   */\n      dup6\n        /* \"#utility.yul\":6297:6320   */\n      sub\n        /* \"#utility.yul\":6293:6325   */\n      slt\n        /* \"#utility.yul\":6290:6409   */\n      iszero\n      tag_449\n      jumpi\n        /* \"#utility.yul\":6328:6407   */\n      tag_450\n      tag_290\n      jump\t// in\n    tag_450:\n        /* \"#utility.yul\":6290:6409   */\n    tag_449:\n        /* \"#utility.yul\":6448:6449   */\n      0x00\n        /* \"#utility.yul\":6473:6526   */\n      tag_451\n        /* \"#utility.yul\":6518:6525   */\n      dup6\n        /* \"#utility.yul\":6509:6515   */\n      dup3\n        /* \"#utility.yul\":6498:6507   */\n      dup7\n        /* \"#utility.yul\":6494:6516   */\n      add\n        /* \"#utility.yul\":6473:6526   */\n      tag_304\n      jump\t// in\n    tag_451:\n        /* \"#utility.yul\":6463:6526   */\n      swap3\n      pop\n        /* \"#utility.yul\":6419:6536   */\n      pop\n        /* \"#utility.yul\":6575:6577   */\n      0x20\n        /* \"#utility.yul\":6601:6669   */\n      tag_452\n        /* \"#utility.yul\":6661:6668   */\n      dup6\n        /* \"#utility.yul\":6652:6658   */\n      dup3\n        /* \"#utility.yul\":6641:6650   */\n      dup7\n        /* \"#utility.yul\":6637:6659   */\n      add\n        /* \"#utility.yul\":6601:6669   */\n      tag_300\n      jump\t// in\n    tag_452:\n        /* \"#utility.yul\":6591:6669   */\n      swap2\n      pop\n        /* \"#utility.yul\":6546:6679   */\n      pop\n        /* \"#utility.yul\":6182:6686   */\n      swap3\n      pop\n      swap3\n      swap1\n      pop\n      jump\t// out\n        /* \"#utility.yul\":6692:7051   */\n    tag_58:\n        /* \"#utility.yul\":6766:6772   */\n      0x00\n        /* \"#utility.yul\":6815:6817   */\n      0x20\n        /* \"#utility.yul\":6803:6812   */\n      dup3\n        /* \"#utility.yul\":6794:6801   */\n      dup5\n        /* \"#utility.yul\":6790:6813   */\n      sub\n        /* \"#utility.yul\":6786:6818   */\n      slt\n        /* \"#utility.yul\":6783:6902   */\n      iszero\n      tag_454\n      jumpi\n        /* \"#utility.yul\":6821:6900   */\n      tag_455\n      tag_290\n      jump\t// in\n    tag_455:\n        /* \"#utility.yul\":6783:6902   */\n    tag_454:\n        /* \"#utility.yul\":6941:6942   */\n      0x00\n        /* \"#utility.yul\":6966:7034   */\n      tag_456\n        /* \"#utility.yul\":7026:7033   */\n      dup5\n        /* \"#utility.yul\":7017:7023   */\n      dup3\n        /* \"#utility.yul\":7006:7015   */\n      dup6\n        /* \"#utility.yul\":7002:7024   */\n      add\n        /* \"#utility.yul\":6966:7034   */\n      tag_300\n      jump\t// in\n    tag_456:\n        /* \"#utility.yul\":6956:7034   */\n      swap2\n      pop\n        /* \"#utility.yul\":6912:7044   */\n      pop\n        /* \"#utility.yul\":6692:7051   */\n      swap3\n      swap2\n      pop\n      pop\n      jump\t// out\n        /* \"#utility.yul\":7057:7205   */\n    tag_313:\n        /* \"#utility.yul\":7129:7138   */\n      0x00\n        /* \"#utility.yul\":7162:7199   */\n      tag_458\n        /* \"#utility.yul\":7193:7198   */\n      dup3\n        /* \"#utility.yul\":7162:7199   */\n      tag_310\n      jump\t// in\n    tag_458:\n        /* \"#utility.yul\":7149:7199   */\n      swap1\n      pop\n        /* \"#utility.yul\":7057:7205   */\n      swap2\n      swap1\n      pop\n      jump\t// out\n        /* \"#utility.yul\":7211:7386   */\n    tag_314:\n        /* \"#utility.yul\":7320:7379   */\n      tag_460\n        /* \"#utility.yul\":7373:7378   */\n      dup2\n        /* \"#utility.yul\":7320:7379   */\n      tag_313\n      jump\t// in\n    tag_460:\n        /* \"#utility.yul\":7315:7318   */\n      dup3\n        /* \"#utility.yul\":7308:7380   */\n      mstore\n        /* \"#utility.yul\":7211:7386   */\n      pop\n      pop\n      jump\t// out\n        /* \"#utility.yul\":7392:7878   */\n    tag_61:\n        /* \"#utility.yul\":7563:7567   */\n      0x00\n        /* \"#utility.yul\":7601:7603   */\n      0x60\n        /* \"#utility.yul\":7590:7599   */\n      dup3\n        /* \"#utility.yul\":7586:7604   */\n      add\n        /* \"#utility.yul\":7578:7604   */\n      swap1\n      pop\n        /* \"#utility.yul\":7614:7707   */\n      tag_462\n        /* \"#utility.yul\":7704:7705   */\n      0x00\n        /* \"#utility.yul\":7693:7702   */\n      dup4\n        /* \"#utility.yul\":7689:7706   */\n      add\n        /* \"#utility.yul\":7680:7686   */\n      dup7\n        /* \"#utility.yul\":7614:7707   */\n      tag_314\n      jump\t// in\n    tag_462:\n        /* \"#utility.yul\":7717:7789   */\n      tag_463\n        /* \"#utility.yul\":7785:7787   */\n      0x20\n        /* \"#utility.yul\":7774:7783   */\n      dup4\n        /* \"#utility.yul\":7770:7788   */\n      add\n        /* \"#utility.yul\":7761:7767   */\n      dup6\n        /* \"#utility.yul\":7717:7789   */\n      tag_302\n      jump\t// in\n    tag_463:\n        /* \"#utility.yul\":7799:7871   */\n      tag_464\n        /* \"#utility.yul\":7867:7869   */\n      0x40\n        /* \"#utility.yul\":7856:7865   */\n      dup4\n        /* \"#utility.yul\":7852:7870   */\n      add\n        /* \"#utility.yul\":7843:7849   */\n      dup5\n        /* \"#utility.yul\":7799:7871   */\n      tag_302\n      jump\t// in\n    tag_464:\n        /* \"#utility.yul\":7392:7878   */\n      swap5\n      swap4\n      pop\n      pop\n      pop\n      pop\n      jump\t// out\n        /* \"#utility.yul\":7884:7986   */\n    tag_315:\n        /* \"#utility.yul\":7925:7931   */\n      0x00\n        /* \"#utility.yul\":7976:7978   */\n      0x1f\n        /* \"#utility.yul\":7972:7979   */\n      not\n        /* \"#utility.yul\":7967:7969   */\n      0x1f\n        /* \"#utility.yul\":7960:7965   */\n      dup4\n        /* \"#utility.yul\":7956:7970   */\n      add\n        /* \"#utility.yul\":7952:7980   */\n      and\n        /* \"#utility.yul\":7942:7980   */\n      swap1\n      pop\n        /* \"#utility.yul\":7884:7986   */\n      swap2\n      swap1\n      pop\n      jump\t// out\n        /* \"#utility.yul\":7992:8172   */\n    tag_316:\n        /* \"#utility.yul\":8040:8117   */\n      0x4e487b7100000000000000000000000000000000000000000000000000000000\n        /* \"#utility.yul\":8037:8038   */\n      0x00\n        /* \"#utility.yul\":8030:8118   */\n      mstore\n        /* \"#utility.yul\":8137:8141   */\n      0x41\n        /* \"#utility.yul\":8134:8135   */\n      0x04\n        /* \"#utility.yul\":8127:8142   */\n      mstore\n        /* \"#utility.yul\":8161:8165   */\n      0x24\n        /* \"#utility.yul\":8158:8159   */\n      0x00\n        /* \"#utility.yul\":8151:8166   */\n      revert\n        /* \"#utility.yul\":8178:8459   */\n    tag_317:\n        /* \"#utility.yul\":8261:8288   */\n      tag_468\n        /* \"#utility.yul\":8283:8287   */\n      dup3\n        /* \"#utility.yul\":8261:8288   */\n      tag_315\n      jump\t// in\n    tag_468:\n        /* \"#utility.yul\":8253:8259   */\n      dup2\n        /* \"#utility.yul\":8249:8289   */\n      add\n        /* \"#utility.yul\":8391:8397   */\n      dup2\n        /* \"#utility.yul\":8379:8389   */\n      dup2\n        /* \"#utility.yul\":8376:8398   */\n      lt\n        /* \"#utility.yul\":8355:8373   */\n      0xffffffffffffffff\n        /* \"#utility.yul\":8343:8353   */\n      dup3\n        /* \"#utility.yul\":8340:8374   */\n      gt\n        /* \"#utility.yul\":8337:8399   */\n      or\n        /* \"#utility.yul\":8334:8422   */\n      iszero\n      tag_469\n      jumpi\n        /* \"#utility.yul\":8402:8420   */\n      tag_470\n      tag_316\n      jump\t// in\n    tag_470:\n        /* \"#utility.yul\":8334:8422   */\n    tag_469:\n        /* \"#utility.yul\":8442:8452   */\n      dup1\n        /* \"#utility.yul\":8438:8440   */\n      0x40\n        /* \"#utility.yul\":8431:8453   */\n      mstore\n        /* \"#utility.yul\":8221:8459   */\n      pop\n        /* \"#utility.yul\":8178:8459   */\n      pop\n      pop\n      jump\t// out\n        /* \"#utility.yul\":8465:8594   */\n    tag_318:\n        /* \"#utility.yul\":8499:8505   */\n      0x00\n        /* \"#utility.yul\":8526:8546   */\n      tag_472\n      tag_289\n      jump\t// in\n    tag_472:\n        /* \"#utility.yul\":8516:8546   */\n      swap1\n      pop\n        /* \"#utility.yul\":8555:8588   */\n      tag_473\n        /* \"#utility.yul\":8583:8587   */\n      dup3\n        /* \"#utility.yul\":8575:8581   */\n      dup3\n        /* \"#utility.yul\":8555:8588   */\n      tag_317\n      jump\t// in\n    tag_473:\n        /* \"#utility.yul\":8465:8594   */\n      swap2\n      swap1\n      pop\n      jump\t// out\n        /* \"#utility.yul\":8600:8911   */\n    tag_319:\n        /* \"#utility.yul\":8677:8681   */\n      0x00\n        /* \"#utility.yul\":8767:8785   */\n      0xffffffffffffffff\n        /* \"#utility.yul\":8759:8765   */\n      dup3\n        /* \"#utility.yul\":8756:8786   */\n      gt\n        /* \"#utility.yul\":8753:8809   */\n      iszero\n      tag_475\n      jumpi\n        /* \"#utility.yul\":8789:8807   */\n      tag_476\n      tag_316\n      jump\t// in\n    tag_476:\n        /* \"#utility.yul\":8753:8809   */\n    tag_475:\n        /* \"#utility.yul\":8839:8843   */\n      0x20\n        /* \"#utility.yul\":8831:8837   */\n      dup3\n        /* \"#utility.yul\":8827:8844   */\n      mul\n        /* \"#utility.yul\":8819:8844   */\n      swap1\n      pop\n        /* \"#utility.yul\":8899:8903   */\n      0x20\n        /* \"#utility.yul\":8893:8897   */\n      dup2\n        /* \"#utility.yul\":8889:8904   */\n      add\n        /* \"#utility.yul\":8881:8904   */\n      swap1\n      pop\n        /* \"#utility.yul\":8600:8911   */\n      swap2\n      swap1\n      pop\n      jump\t// out\n        /* \"#utility.yul\":8917:9039   */\n    tag_320:\n        /* \"#utility.yul\":8990:9014   */\n      tag_478\n        /* \"#utility.yul\":9008:9013   */\n      dup2\n        /* \"#utility.yul\":8990:9014   */\n      tag_297\n      jump\t// in\n    tag_478:\n        /* \"#utility.yul\":8983:8988   */\n      dup2\n        /* \"#utility.yul\":8980:9015   */\n      eq\n        /* \"#utility.yul\":8970:9033   */\n      tag_479\n      jumpi\n        /* \"#utility.yul\":9029:9030   */\n      0x00\n        /* \"#utility.yul\":9026:9027   */\n      dup1\n        /* \"#utility.yul\":9019:9031   */\n      revert\n        /* \"#utility.yul\":8970:9033   */\n    tag_479:\n        /* \"#utility.yul\":8917:9039   */\n      pop\n      jump\t// out\n        /* \"#utility.yul\":9045:9184   */\n    tag_321:\n        /* \"#utility.yul\":9091:9096   */\n      0x00\n        /* \"#utility.yul\":9129:9135   */\n      dup2\n        /* \"#utility.yul\":9116:9136   */\n      calldataload\n        /* \"#utility.yul\":9107:9136   */\n      swap1\n      pop\n        /* \"#utility.yul\":9145:9178   */\n      tag_481\n        /* \"#utility.yul\":9172:9177   */\n      dup2\n        /* \"#utility.yul\":9145:9178   */\n      tag_320\n      jump\t// in\n    tag_481:\n        /* \"#utility.yul\":9045:9184   */\n      swap3\n      swap2\n      pop\n      pop\n      jump\t// out\n        /* \"#utility.yul\":9207:9917   */\n    tag_322:\n        /* \"#utility.yul\":9303:9308   */\n      0x00\n        /* \"#utility.yul\":9328:9409   */\n      tag_483\n        /* \"#utility.yul\":9344:9408   */\n      tag_484\n        /* \"#utility.yul\":9401:9407   */\n      dup5\n        /* \"#utility.yul\":9344:9408   */\n      tag_319\n      jump\t// in\n    tag_484:\n        /* \"#utility.yul\":9328:9409   */\n      tag_318\n      jump\t// in\n    tag_483:\n        /* \"#utility.yul\":9319:9409   */\n      swap1\n      pop\n        /* \"#utility.yul\":9429:9434   */\n      dup1\n        /* \"#utility.yul\":9458:9464   */\n      dup4\n        /* \"#utility.yul\":9451:9456   */\n      dup3\n        /* \"#utility.yul\":9444:9465   */\n      mstore\n        /* \"#utility.yul\":9492:9496   */\n      0x20\n        /* \"#utility.yul\":9485:9490   */\n      dup3\n        /* \"#utility.yul\":9481:9497   */\n      add\n        /* \"#utility.yul\":9474:9497   */\n      swap1\n      pop\n        /* \"#utility.yul\":9545:9549   */\n      0x20\n        /* \"#utility.yul\":9537:9543   */\n      dup5\n        /* \"#utility.yul\":9533:9550   */\n      mul\n        /* \"#utility.yul\":9525:9531   */\n      dup4\n        /* \"#utility.yul\":9521:9551   */\n      add\n        /* \"#utility.yul\":9574:9577   */\n      dup6\n        /* \"#utility.yul\":9566:9572   */\n      dup2\n        /* \"#utility.yul\":9563:9578   */\n      gt\n        /* \"#utility.yul\":9560:9682   */\n      iszero\n      tag_485\n      jumpi\n        /* \"#utility.yul\":9593:9672   */\n      tag_486\n      tag_294\n      jump\t// in\n    tag_486:\n        /* \"#utility.yul\":9560:9682   */\n    tag_485:\n        /* \"#utility.yul\":9708:9714   */\n      dup4\n        /* \"#utility.yul\":9691:9911   */\n    tag_487:\n        /* \"#utility.yul\":9725:9731   */\n      dup2\n        /* \"#utility.yul\":9720:9723   */\n      dup2\n        /* \"#utility.yul\":9717:9732   */\n      lt\n        /* \"#utility.yul\":9691:9911   */\n      iszero\n      tag_489\n      jumpi\n        /* \"#utility.yul\":9800:9803   */\n      dup1\n        /* \"#utility.yul\":9829:9866   */\n      tag_490\n        /* \"#utility.yul\":9862:9865   */\n      dup9\n        /* \"#utility.yul\":9850:9860   */\n      dup3\n        /* \"#utility.yul\":9829:9866   */\n      tag_321\n      jump\t// in\n    tag_490:\n        /* \"#utility.yul\":9824:9827   */\n      dup5\n        /* \"#utility.yul\":9817:9867   */\n      mstore\n        /* \"#utility.yul\":9896:9900   */\n      0x20\n        /* \"#utility.yul\":9891:9894   */\n      dup5\n        /* \"#utility.yul\":9887:9901   */\n      add\n        /* \"#utility.yul\":9880:9901   */\n      swap4\n      pop\n        /* \"#utility.yul\":9767:9911   */\n      pop\n        /* \"#utility.yul\":9751:9755   */\n      0x20\n        /* \"#utility.yul\":9746:9749   */\n      dup2\n        /* \"#utility.yul\":9742:9756   */\n      add\n        /* \"#utility.yul\":9735:9756   */\n      swap1\n      pop\n        /* \"#utility.yul\":9691:9911   */\n      jump(tag_487)\n    tag_489:\n        /* \"#utility.yul\":9695:9716   */\n      pop\n        /* \"#utility.yul\":9309:9917   */\n      pop\n      pop\n        /* \"#utility.yul\":9207:9917   */\n      swap4\n      swap3\n      pop\n      pop\n      pop\n      jump\t// out\n        /* \"#utility.yul\":9940:10310   */\n    tag_323:\n        /* \"#utility.yul\":10011:10016   */\n      0x00\n        /* \"#utility.yul\":10060:10063   */\n      dup3\n        /* \"#utility.yul\":10053:10057   */\n      0x1f\n        /* \"#utility.yul\":10045:10051   */\n      dup4\n        /* \"#utility.yul\":10041:10058   */\n      add\n        /* \"#utility.yul\":10037:10064   */\n      slt\n        /* \"#utility.yul\":10027:10149   */\n      tag_492\n      jumpi\n        /* \"#utility.yul\":10068:10147   */\n      tag_493\n      tag_292\n      jump\t// in\n    tag_493:\n        /* \"#utility.yul\":10027:10149   */\n    tag_492:\n        /* \"#utility.yul\":10185:10191   */\n      dup2\n        /* \"#utility.yul\":10172:10192   */\n      calldataload\n        /* \"#utility.yul\":10210:10304   */\n      tag_494\n        /* \"#utility.yul\":10300:10303   */\n      dup5\n        /* \"#utility.yul\":10292:10298   */\n      dup3\n        /* \"#utility.yul\":10285:10289   */\n      0x20\n        /* \"#utility.yul\":10277:10283   */\n      dup7\n        /* \"#utility.yul\":10273:10290   */\n      add\n        /* \"#utility.yul\":10210:10304   */\n      tag_322\n      jump\t// in\n    tag_494:\n        /* \"#utility.yul\":10201:10304   */\n      swap2\n      pop\n        /* \"#utility.yul\":10017:10310   */\n      pop\n        /* \"#utility.yul\":9940:10310   */\n      swap3\n      swap2\n      pop\n      pop\n      jump\t// out\n        /* \"#utility.yul\":10316:10627   */\n    tag_324:\n        /* \"#utility.yul\":10393:10397   */\n      0x00\n        /* \"#utility.yul\":10483:10501   */\n      0xffffffffffffffff\n        /* \"#utility.yul\":10475:10481   */\n      dup3\n        /* \"#utility.yul\":10472:10502   */\n      gt\n        /* \"#utility.yul\":10469:10525   */\n      iszero\n      tag_496\n      jumpi\n        /* \"#utility.yul\":10505:10523   */\n      tag_497\n      tag_316\n      jump\t// in\n    tag_497:\n        /* \"#utility.yul\":10469:10525   */\n    tag_496:\n        /* \"#utility.yul\":10555:10559   */\n      0x20\n        /* \"#utility.yul\":10547:10553   */\n      dup3\n        /* \"#utility.yul\":10543:10560   */\n      mul\n        /* \"#utility.yul\":10535:10560   */\n      swap1\n      pop\n        /* \"#utility.yul\":10615:10619   */\n      0x20\n        /* \"#utility.yul\":10609:10613   */\n      dup2\n        /* \"#utility.yul\":10605:10620   */\n      add\n        /* \"#utility.yul\":10597:10620   */\n      swap1\n      pop\n        /* \"#utility.yul\":10316:10627   */\n      swap2\n      swap1\n      pop\n      jump\t// out\n        /* \"#utility.yul\":10650:11360   */\n    tag_325:\n        /* \"#utility.yul\":10746:10751   */\n      0x00\n        /* \"#utility.yul\":10771:10852   */\n      tag_499\n        /* \"#utility.yul\":10787:10851   */\n      tag_500\n        /* \"#utility.yul\":10844:10850   */\n      dup5\n        /* \"#utility.yul\":10787:10851   */\n      tag_324\n      jump\t// in\n    tag_500:\n        /* \"#utility.yul\":10771:10852   */\n      tag_318\n      jump\t// in\n    tag_499:\n        /* \"#utility.yul\":10762:10852   */\n      swap1\n      pop\n        /* \"#utility.yul\":10872:10877   */\n      dup1\n        /* \"#utility.yul\":10901:10907   */\n      dup4\n        /* \"#utility.yul\":10894:10899   */\n      dup3\n        /* \"#utility.yul\":10887:10908   */\n      mstore\n        /* \"#utility.yul\":10935:10939   */\n      0x20\n        /* \"#utility.yul\":10928:10933   */\n      dup3\n        /* \"#utility.yul\":10924:10940   */\n      add\n        /* \"#utility.yul\":10917:10940   */\n      swap1\n      pop\n        /* \"#utility.yul\":10988:10992   */\n      0x20\n        /* \"#utility.yul\":10980:10986   */\n      dup5\n        /* \"#utility.yul\":10976:10993   */\n      mul\n        /* \"#utility.yul\":10968:10974   */\n      dup4\n        /* \"#utility.yul\":10964:10994   */\n      add\n        /* \"#utility.yul\":11017:11020   */\n      dup6\n        /* \"#utility.yul\":11009:11015   */\n      dup2\n        /* \"#utility.yul\":11006:11021   */\n      gt\n        /* \"#utility.yul\":11003:11125   */\n      iszero\n      tag_501\n      jumpi\n        /* \"#utility.yul\":11036:11115   */\n      tag_502\n      tag_294\n      jump\t// in\n    tag_502:\n        /* \"#utility.yul\":11003:11125   */\n    tag_501:\n        /* \"#utility.yul\":11151:11157   */\n      dup4\n        /* \"#utility.yul\":11134:11354   */\n    tag_503:\n        /* \"#utility.yul\":11168:11174   */\n      dup2\n        /* \"#utility.yul\":11163:11166   */\n      dup2\n        /* \"#utility.yul\":11160:11175   */\n      lt\n        /* \"#utility.yul\":11134:11354   */\n      iszero\n      tag_505\n      jumpi\n        /* \"#utility.yul\":11243:11246   */\n      dup1\n        /* \"#utility.yul\":11272:11309   */\n      tag_506\n        /* \"#utility.yul\":11305:11308   */\n      dup9\n        /* \"#utility.yul\":11293:11303   */\n      dup3\n        /* \"#utility.yul\":11272:11309   */\n      tag_304\n      jump\t// in\n    tag_506:\n        /* \"#utility.yul\":11267:11270   */\n      dup5\n        /* \"#utility.yul\":11260:11310   */\n      mstore\n        /* \"#utility.yul\":11339:11343   */\n      0x20\n        /* \"#utility.yul\":11334:11337   */\n      dup5\n        /* \"#utility.yul\":11330:11344   */\n      add\n        /* \"#utility.yul\":11323:11344   */\n      swap4\n      pop\n        /* \"#utility.yul\":11210:11354   */\n      pop\n        /* \"#utility.yul\":11194:11198   */\n      0x20\n        /* \"#utility.yul\":11189:11192   */\n      dup2\n        /* \"#utility.yul\":11185:11199   */\n      add\n        /* \"#utility.yul\":11178:11199   */\n      swap1\n      pop\n        /* \"#utility.yul\":11134:11354   */\n      jump(tag_503)\n    tag_505:\n        /* \"#utility.yul\":11138:11159   */\n      pop\n        /* \"#utility.yul\":10752:11360   */\n      pop\n      pop\n        /* \"#utility.yul\":10650:11360   */\n      swap4\n      swap3\n      pop\n      pop\n      pop\n      jump\t// out\n        /* \"#utility.yul\":11383:11753   */\n    tag_326:\n        /* \"#utility.yul\":11454:11459   */\n      0x00\n        /* \"#utility.yul\":11503:11506   */\n      dup3\n        /* \"#utility.yul\":11496:11500   */\n      0x1f\n        /* \"#utility.yul\":11488:11494   */\n      dup4\n        /* \"#utility.yul\":11484:11501   */\n      add\n        /* \"#utility.yul\":11480:11507   */\n      slt\n        /* \"#utility.yul\":11470:11592   */\n      tag_508\n      jumpi\n        /* \"#utility.yul\":11511:11590   */\n      tag_509\n      tag_292\n      jump\t// in\n    tag_509:\n        /* \"#utility.yul\":11470:11592   */\n    tag_508:\n        /* \"#utility.yul\":11628:11634   */\n      dup2\n        /* \"#utility.yul\":11615:11635   */\n      calldataload\n        /* \"#utility.yul\":11653:11747   */\n      tag_510\n        /* \"#utility.yul\":11743:11746   */\n      dup5\n        /* \"#utility.yul\":11735:11741   */\n      dup3\n        /* \"#utility.yul\":11728:11732   */\n      0x20\n        /* \"#utility.yul\":11720:11726   */\n      dup7\n        /* \"#utility.yul\":11716:11733   */\n      add\n        /* \"#utility.yul\":11653:11747   */\n      tag_325\n      jump\t// in\n    tag_510:\n        /* \"#utility.yul\":11644:11747   */\n      swap2\n      pop\n        /* \"#utility.yul\":11460:11753   */\n      pop\n        /* \"#utility.yul\":11383:11753   */\n      swap3\n      swap2\n      pop\n      pop\n      jump\t// out\n        /* \"#utility.yul\":11759:13364   */\n    tag_64:\n        /* \"#utility.yul\":11945:11951   */\n      0x00\n        /* \"#utility.yul\":11953:11959   */\n      dup1\n        /* \"#utility.yul\":11961:11967   */\n      0x00\n        /* \"#utility.yul\":11969:11975   */\n      dup1\n        /* \"#utility.yul\":12018:12021   */\n      0x80\n        /* \"#utility.yul\":12006:12015   */\n      dup6\n        /* \"#utility.yul\":11997:12004   */\n      dup8\n        /* \"#utility.yul\":11993:12016   */\n      sub\n        /* \"#utility.yul\":11989:12022   */\n      slt\n        /* \"#utility.yul\":11986:12106   */\n      iszero\n      tag_512\n      jumpi\n        /* \"#utility.yul\":12025:12104   */\n      tag_513\n      tag_290\n      jump\t// in\n    tag_513:\n        /* \"#utility.yul\":11986:12106   */\n    tag_512:\n        /* \"#utility.yul\":12173:12174   */\n      0x00\n        /* \"#utility.yul\":12162:12171   */\n      dup6\n        /* \"#utility.yul\":12158:12175   */\n      add\n        /* \"#utility.yul\":12145:12176   */\n      calldataload\n        /* \"#utility.yul\":12203:12221   */\n      0xffffffffffffffff\n        /* \"#utility.yul\":12195:12201   */\n      dup2\n        /* \"#utility.yul\":12192:12222   */\n      gt\n        /* \"#utility.yul\":12189:12306   */\n      iszero\n      tag_514\n      jumpi\n        /* \"#utility.yul\":12225:12304   */\n      tag_515\n      tag_291\n      jump\t// in\n    tag_515:\n        /* \"#utility.yul\":12189:12306   */\n    tag_514:\n        /* \"#utility.yul\":12330:12408   */\n      tag_516\n        /* \"#utility.yul\":12400:12407   */\n      dup8\n        /* \"#utility.yul\":12391:12397   */\n      dup3\n        /* \"#utility.yul\":12380:12389   */\n      dup9\n        /* \"#utility.yul\":12376:12398   */\n      add\n        /* \"#utility.yul\":12330:12408   */\n      tag_323\n      jump\t// in\n    tag_516:\n        /* \"#utility.yul\":12320:12408   */\n      swap5\n      pop\n        /* \"#utility.yul\":12116:12418   */\n      pop\n        /* \"#utility.yul\":12485:12487   */\n      0x20\n        /* \"#utility.yul\":12474:12483   */\n      dup6\n        /* \"#utility.yul\":12470:12488   */\n      add\n        /* \"#utility.yul\":12457:12489   */\n      calldataload\n        /* \"#utility.yul\":12516:12534   */\n      0xffffffffffffffff\n        /* \"#utility.yul\":12508:12514   */\n      dup2\n        /* \"#utility.yul\":12505:12535   */\n      gt\n        /* \"#utility.yul\":12502:12619   */\n      iszero\n      tag_517\n      jumpi\n        /* \"#utility.yul\":12538:12617   */\n      tag_518\n      tag_291\n      jump\t// in\n    tag_518:\n        /* \"#utility.yul\":12502:12619   */\n    tag_517:\n        /* \"#utility.yul\":12643:12721   */\n      tag_519\n        /* \"#utility.yul\":12713:12720   */\n      dup8\n        /* \"#utility.yul\":12704:12710   */\n      dup3\n        /* \"#utility.yul\":12693:12702   */\n      dup9\n        /* \"#utility.yul\":12689:12711   */\n      add\n        /* \"#utility.yul\":12643:12721   */\n      tag_323\n      jump\t// in\n    tag_519:\n        /* \"#utility.yul\":12633:12721   */\n      swap4\n      pop\n        /* \"#utility.yul\":12428:12731   */\n      pop\n        /* \"#utility.yul\":12798:12800   */\n      0x40\n        /* \"#utility.yul\":12787:12796   */\n      dup6\n        /* \"#utility.yul\":12783:12801   */\n      add\n        /* \"#utility.yul\":12770:12802   */\n      calldataload\n        /* \"#utility.yul\":12829:12847   */\n      0xffffffffffffffff\n        /* \"#utility.yul\":12821:12827   */\n      dup2\n        /* \"#utility.yul\":12818:12848   */\n      gt\n        /* \"#utility.yul\":12815:12932   */\n      iszero\n      tag_520\n      jumpi\n        /* \"#utility.yul\":12851:12930   */\n      tag_521\n      tag_291\n      jump\t// in\n    tag_521:\n        /* \"#utility.yul\":12815:12932   */\n    tag_520:\n        /* \"#utility.yul\":12956:13034   */\n      tag_522\n        /* \"#utility.yul\":13026:13033   */\n      dup8\n        /* \"#utility.yul\":13017:13023   */\n      dup3\n        /* \"#utility.yul\":13006:13015   */\n      dup9\n        /* \"#utility.yul\":13002:13024   */\n      add\n        /* \"#utility.yul\":12956:13034   */\n      tag_326\n      jump\t// in\n    tag_522:\n        /* \"#utility.yul\":12946:13034   */\n      swap3\n      pop\n        /* \"#utility.yul\":12741:13044   */\n      pop\n        /* \"#utility.yul\":13111:13113   */\n      0x60\n        /* \"#utility.yul\":13100:13109   */\n      dup6\n        /* \"#utility.yul\":13096:13114   */\n      add\n        /* \"#utility.yul\":13083:13115   */\n      calldataload\n        /* \"#utility.yul\":13142:13160   */\n      0xffffffffffffffff\n        /* \"#utility.yul\":13134:13140   */\n      dup2\n        /* \"#utility.yul\":13131:13161   */\n      gt\n        /* \"#utility.yul\":13128:13245   */\n      iszero\n      tag_523\n      jumpi\n        /* \"#utility.yul\":13164:13243   */\n      tag_524\n      tag_291\n      jump\t// in\n    tag_524:\n        /* \"#utility.yul\":13128:13245   */\n    tag_523:\n        /* \"#utility.yul\":13269:13347   */\n      tag_525\n        /* \"#utility.yul\":13339:13346   */\n      dup8\n        /* \"#utility.yul\":13330:13336   */\n      dup3\n        /* \"#utility.yul\":13319:13328   */\n      dup9\n        /* \"#utility.yul\":13315:13337   */\n      add\n        /* \"#utility.yul\":13269:13347   */\n      tag_326\n      jump\t// in\n    tag_525:\n        /* \"#utility.yul\":13259:13347   */\n      swap2\n      pop\n        /* \"#utility.yul\":13054:13357   */\n      pop\n        /* \"#utility.yul\":11759:13364   */\n      swap3\n      swap6\n      swap2\n      swap5\n      pop\n      swap3\n      pop\n      jump\t// out\n        /* \"#utility.yul\":13370:13699   */\n    tag_68:\n        /* \"#utility.yul\":13429:13435   */\n      0x00\n        /* \"#utility.yul\":13478:13480   */\n      0x20\n        /* \"#utility.yul\":13466:13475   */\n      dup3\n        /* \"#utility.yul\":13457:13464   */\n      dup5\n        /* \"#utility.yul\":13453:13476   */\n      sub\n        /* \"#utility.yul\":13449:13481   */\n      slt\n        /* \"#utility.yul\":13446:13565   */\n      iszero\n      tag_527\n      jumpi\n        /* \"#utility.yul\":13484:13563   */\n      tag_528\n      tag_290\n      jump\t// in\n    tag_528:\n        /* \"#utility.yul\":13446:13565   */\n    tag_527:\n        /* \"#utility.yul\":13604:13605   */\n      0x00\n        /* \"#utility.yul\":13629:13682   */\n      tag_529\n        /* \"#utility.yul\":13674:13681   */\n      dup5\n        /* \"#utility.yul\":13665:13671   */\n      dup3\n        /* \"#utility.yul\":13654:13663   */\n      dup6\n        /* \"#utility.yul\":13650:13672   */\n      add\n        /* \"#utility.yul\":13629:13682   */\n      tag_321\n      jump\t// in\n    tag_529:\n        /* \"#utility.yul\":13619:13682   */\n      swap2\n      pop\n        /* \"#utility.yul\":13575:13692   */\n      pop\n        /* \"#utility.yul\":13370:13699   */\n      swap3\n      swap2\n      pop\n      pop\n      jump\t// out\n        /* \"#utility.yul\":13705:13874   */\n    tag_327:\n        /* \"#utility.yul\":13789:13800   */\n      0x00\n        /* \"#utility.yul\":13823:13829   */\n      dup3\n        /* \"#utility.yul\":13818:13821   */\n      dup3\n        /* \"#utility.yul\":13811:13830   */\n      mstore\n        /* \"#utility.yul\":13863:13867   */\n      0x20\n        /* \"#utility.yul\":13858:13861   */\n      dup3\n        /* \"#utility.yul\":13854:13868   */\n      add\n        /* \"#utility.yul\":13839:13868   */\n      swap1\n      pop\n        /* \"#utility.yul\":13705:13874   */\n      swap3\n      swap2\n      pop\n      pop\n      jump\t// out\n        /* \"#utility.yul\":13880:14050   */\n    tag_328:\n        /* \"#utility.yul\":14020:14042   */\n      0x436f6e7472616374206e6f7420616c6c6f776564000000000000000000000000\n        /* \"#utility.yul\":14016:14017   */\n      0x00\n        /* \"#utility.yul\":14008:14014   */\n      dup3\n        /* \"#utility.yul\":14004:14018   */\n      add\n        /* \"#utility.yul\":13997:14043   */\n      mstore\n        /* \"#utility.yul\":13880:14050   */\n      pop\n      jump\t// out\n        /* \"#utility.yul\":14056:14422   */\n    tag_329:\n        /* \"#utility.yul\":14198:14201   */\n      0x00\n        /* \"#utility.yul\":14219:14286   */\n      tag_533\n        /* \"#utility.yul\":14283:14285   */\n      0x14\n        /* \"#utility.yul\":14278:14281   */\n      dup4\n        /* \"#utility.yul\":14219:14286   */\n      tag_327\n      jump\t// in\n    tag_533:\n        /* \"#utility.yul\":14212:14286   */\n      swap2\n      pop\n        /* \"#utility.yul\":14295:14388   */\n      tag_534\n        /* \"#utility.yul\":14384:14387   */\n      dup3\n        /* \"#utility.yul\":14295:14388   */\n      tag_328\n      jump\t// in\n    tag_534:\n        /* \"#utility.yul\":14413:14415   */\n      0x20\n        /* \"#utility.yul\":14408:14411   */\n      dup3\n        /* \"#utility.yul\":14404:14416   */\n      add\n        /* \"#utility.yul\":14397:14416   */\n      swap1\n      pop\n        /* \"#utility.yul\":14056:14422   */\n      swap2\n      swap1\n      pop\n      jump\t// out\n        /* \"#utility.yul\":14428:14847   */\n    tag_75:\n        /* \"#utility.yul\":14594:14598   */\n      0x00\n        /* \"#utility.yul\":14632:14634   */\n      0x20\n        /* \"#utility.yul\":14621:14630   */\n      dup3\n        /* \"#utility.yul\":14617:14635   */\n      add\n        /* \"#utility.yul\":14609:14635   */\n      swap1\n      pop\n        /* \"#utility.yul\":14681:14690   */\n      dup2\n        /* \"#utility.yul\":14675:14679   */\n      dup2\n        /* \"#utility.yul\":14671:14691   */\n      sub\n        /* \"#utility.yul\":14667:14668   */\n      0x00\n        /* \"#utility.yul\":14656:14665   */\n      dup4\n        /* \"#utility.yul\":14652:14669   */\n      add\n        /* \"#utility.yul\":14645:14692   */\n      mstore\n        /* \"#utility.yul\":14709:14840   */\n      tag_536\n        /* \"#utility.yul\":14835:14839   */\n      dup2\n        /* \"#utility.yul\":14709:14840   */\n      tag_329\n      jump\t// in\n    tag_536:\n        /* \"#utility.yul\":14701:14840   */\n      swap1\n      pop\n        /* \"#utility.yul\":14428:14847   */\n      swap2\n      swap1\n      pop\n      jump\t// out\n        /* \"#utility.yul\":14853:15029   */\n    tag_330:\n        /* \"#utility.yul\":14993:15021   */\n      0x50726f787920636f6e7472616374206e6f7420616c6c6f776564000000000000\n        /* \"#utility.yul\":14989:14990   */\n      0x00\n        /* \"#utility.yul\":14981:14987   */\n      dup3\n        /* \"#utility.yul\":14977:14991   */\n      add\n        /* \"#utility.yul\":14970:15022   */\n      mstore\n        /* \"#utility.yul\":14853:15029   */\n      pop\n      jump\t// out\n        /* \"#utility.yul\":15035:15401   */\n    tag_331:\n        /* \"#utility.yul\":15177:15180   */\n      0x00\n        /* \"#utility.yul\":15198:15265   */\n      tag_539\n        /* \"#utility.yul\":15262:15264   */\n      0x1a\n        /* \"#utility.yul\":15257:15260   */\n      dup4\n        /* \"#utility.yul\":15198:15265   */\n      tag_327\n      jump\t// in\n    tag_539:\n        /* \"#utility.yul\":15191:15265   */\n      swap2\n      pop\n        /* \"#utility.yul\":15274:15367   */\n      tag_540\n        /* \"#utility.yul\":15363:15366   */\n      dup3\n        /* \"#utility.yul\":15274:15367   */\n      tag_330\n      jump\t// in\n    tag_540:\n        /* \"#utility.yul\":15392:15394   */\n      0x20\n        /* \"#utility.yul\":15387:15390   */\n      dup3\n        /* \"#utility.yul\":15383:15395   */\n      add\n        /* \"#utility.yul\":15376:15395   */\n      swap1\n      pop\n        /* \"#utility.yul\":15035:15401   */\n      swap2\n      swap1\n      pop\n      jump\t// out\n        /* \"#utility.yul\":15407:15826   */\n    tag_78:\n        /* \"#utility.yul\":15573:15577   */\n      0x00\n        /* \"#utility.yul\":15611:15613   */\n      0x20\n        /* \"#utility.yul\":15600:15609   */\n      dup3\n        /* \"#utility.yul\":15596:15614   */\n      add\n        /* \"#utility.yul\":15588:15614   */\n      swap1\n      pop\n        /* \"#utility.yul\":15660:15669   */\n      dup2\n        /* \"#utility.yul\":15654:15658   */\n      dup2\n        /* \"#utility.yul\":15650:15670   */\n      sub\n        /* \"#utility.yul\":15646:15647   */\n      0x00\n        /* \"#utility.yul\":15635:15644   */\n      dup4\n        /* \"#utility.yul\":15631:15648   */\n      add\n        /* \"#utility.yul\":15624:15671   */\n      mstore\n        /* \"#utility.yul\":15688:15819   */\n      tag_542\n        /* \"#utility.yul\":15814:15818   */\n      dup2\n        /* \"#utility.yul\":15688:15819   */\n      tag_331\n      jump\t// in\n    tag_542:\n        /* \"#utility.yul\":15680:15819   */\n      swap1\n      pop\n        /* \"#utility.yul\":15407:15826   */\n      swap2\n      swap1\n      pop\n      jump\t// out\n        /* \"#utility.yul\":15832:16065   */\n    tag_332:\n        /* \"#utility.yul\":15972:16006   */\n      0x5374616b696e673a20526567697374657220636f6c6c656374696f6e20627920\n        /* \"#utility.yul\":15968:15969   */\n      0x00\n        /* \"#utility.yul\":15960:15966   */\n      dup3\n        /* \"#utility.yul\":15956:15970   */\n      add\n        /* \"#utility.yul\":15949:16007   */\n      mstore\n        /* \"#utility.yul\":16041:16057   */\n      0x6164645374616b696e674e667473000000000000000000000000000000000000\n        /* \"#utility.yul\":16036:16038   */\n      0x20\n        /* \"#utility.yul\":16028:16034   */\n      dup3\n        /* \"#utility.yul\":16024:16039   */\n      add\n        /* \"#utility.yul\":16017:16058   */\n      mstore\n        /* \"#utility.yul\":15832:16065   */\n      pop\n      jump\t// out\n        /* \"#utility.yul\":16071:16437   */\n    tag_333:\n        /* \"#utility.yul\":16213:16216   */\n      0x00\n        /* \"#utility.yul\":16234:16301   */\n      tag_545\n        /* \"#utility.yul\":16298:16300   */\n      0x2e\n        /* \"#utility.yul\":16293:16296   */\n      dup4\n        /* \"#utility.yul\":16234:16301   */\n      tag_327\n      jump\t// in\n    tag_545:\n        /* \"#utility.yul\":16227:16301   */\n      swap2\n      pop\n        /* \"#utility.yul\":16310:16403   */\n      tag_546\n        /* \"#utility.yul\":16399:16402   */\n      dup3\n        /* \"#utility.yul\":16310:16403   */\n      tag_332\n      jump\t// in\n    tag_546:\n        /* \"#utility.yul\":16428:16430   */\n      0x40\n        /* \"#utility.yul\":16423:16426   */\n      dup3\n        /* \"#utility.yul\":16419:16431   */\n      add\n        /* \"#utility.yul\":16412:16431   */\n      swap1\n      pop\n        /* \"#utility.yul\":16071:16437   */\n      swap2\n      swap1\n      pop\n      jump\t// out\n        /* \"#utility.yul\":16443:16862   */\n    tag_82:\n        /* \"#utility.yul\":16609:16613   */\n      0x00\n        /* \"#utility.yul\":16647:16649   */\n      0x20\n        /* \"#utility.yul\":16636:16645   */\n      dup3\n        /* \"#utility.yul\":16632:16650   */\n      add\n        /* \"#utility.yul\":16624:16650   */\n      swap1\n      pop\n        /* \"#utility.yul\":16696:16705   */\n      dup2\n        /* \"#utility.yul\":16690:16694   */\n      dup2\n        /* \"#utility.yul\":16686:16706   */\n      sub\n        /* \"#utility.yul\":16682:16683   */\n      0x00\n        /* \"#utility.yul\":16671:16680   */\n      dup4\n        /* \"#utility.yul\":16667:16684   */\n      add\n        /* \"#utility.yul\":16660:16707   */\n      mstore\n        /* \"#utility.yul\":16724:16855   */\n      tag_548\n        /* \"#utility.yul\":16850:16854   */\n      dup2\n        /* \"#utility.yul\":16724:16855   */\n      tag_333\n      jump\t// in\n    tag_548:\n        /* \"#utility.yul\":16716:16855   */\n      swap1\n      pop\n        /* \"#utility.yul\":16443:16862   */\n      swap2\n      swap1\n      pop\n      jump\t// out\n        /* \"#utility.yul\":16868:17027   */\n    tag_334:\n        /* \"#utility.yul\":17008:17019   */\n      0x4e6f20746f6b656e730000000000000000000000000000000000000000000000\n        /* \"#utility.yul\":17004:17005   */\n      0x00\n        /* \"#utility.yul\":16996:17002   */\n      dup3\n        /* \"#utility.yul\":16992:17006   */\n      add\n        /* \"#utility.yul\":16985:17020   */\n      mstore\n        /* \"#utility.yul\":16868:17027   */\n      pop\n      jump\t// out\n        /* \"#utility.yul\":17033:17398   */\n    tag_335:\n        /* \"#utility.yul\":17175:17178   */\n      0x00\n        /* \"#utility.yul\":17196:17262   */\n      tag_551\n        /* \"#utility.yul\":17260:17261   */\n      0x09\n        /* \"#utility.yul\":17255:17258   */\n      dup4\n        /* \"#utility.yul\":17196:17262   */\n      tag_327\n      jump\t// in\n    tag_551:\n        /* \"#utility.yul\":17189:17262   */\n      swap2\n      pop\n        /* \"#utility.yul\":17271:17364   */\n      tag_552\n        /* \"#utility.yul\":17360:17363   */\n      dup3\n        /* \"#utility.yul\":17271:17364   */\n      tag_334\n      jump\t// in\n    tag_552:\n        /* \"#utility.yul\":17389:17391   */\n      0x20\n        /* \"#utility.yul\":17384:17387   */\n      dup3\n        /* \"#utility.yul\":17380:17392   */\n      add\n        /* \"#utility.yul\":17373:17392   */\n      swap1\n      pop\n        /* \"#utility.yul\":17033:17398   */\n      swap2\n      swap1\n      pop\n      jump\t// out\n        /* \"#utility.yul\":17404:17823   */\n    tag_85:\n        /* \"#utility.yul\":17570:17574   */\n      0x00\n        /* \"#utility.yul\":17608:17610   */\n      0x20\n        /* \"#utility.yul\":17597:17606   */\n      dup3\n        /* \"#utility.yul\":17593:17611   */\n      add\n        /* \"#utility.yul\":17585:17611   */\n      swap1\n      pop\n        /* \"#utility.yul\":17657:17666   */\n      dup2\n        /* \"#utility.yul\":17651:17655   */\n      dup2\n        /* \"#utility.yul\":17647:17667   */\n      sub\n        /* \"#utility.yul\":17643:17644   */\n      0x00\n        /* \"#utility.yul\":17632:17641   */\n      dup4\n        /* \"#utility.yul\":17628:17645   */\n      add\n        /* \"#utility.yul\":17621:17668   */\n      mstore\n        /* \"#utility.yul\":17685:17816   */\n      tag_554\n        /* \"#utility.yul\":17811:17815   */\n      dup2\n        /* \"#utility.yul\":17685:17816   */\n      tag_335\n      jump\t// in\n    tag_554:\n        /* \"#utility.yul\":17677:17816   */\n      swap1\n      pop\n        /* \"#utility.yul\":17404:17823   */\n      swap2\n      swap1\n      pop\n      jump\t// out\n        /* \"#utility.yul\":17829:18009   */\n    tag_91:\n        /* \"#utility.yul\":17877:17954   */\n      0x4e487b7100000000000000000000000000000000000000000000000000000000\n        /* \"#utility.yul\":17874:17875   */\n      0x00\n        /* \"#utility.yul\":17867:17955   */\n      mstore\n        /* \"#utility.yul\":17974:17978   */\n      0x32\n        /* \"#utility.yul\":17971:17972   */\n      0x04\n        /* \"#utility.yul\":17964:17979   */\n      mstore\n        /* \"#utility.yul\":17998:18002   */\n      0x24\n        /* \"#utility.yul\":17995:17996   */\n      0x00\n        /* \"#utility.yul\":17988:18003   */\n      revert\n        /* \"#utility.yul\":18015:18182   */\n    tag_336:\n        /* \"#utility.yul\":18155:18174   */\n      0x4e6f74206120746f6b656e206f776e6572000000000000000000000000000000\n        /* \"#utility.yul\":18151:18152   */\n      0x00\n        /* \"#utility.yul\":18143:18149   */\n      dup3\n        /* \"#utility.yul\":18139:18153   */\n      add\n        /* \"#utility.yul\":18132:18175   */\n      mstore\n        /* \"#utility.yul\":18015:18182   */\n      pop\n      jump\t// out\n        /* \"#utility.yul\":18188:18554   */\n    tag_337:\n        /* \"#utility.yul\":18330:18333   */\n      0x00\n        /* \"#utility.yul\":18351:18418   */\n      tag_558\n        /* \"#utility.yul\":18415:18417   */\n      0x11\n        /* \"#utility.yul\":18410:18413   */\n      dup4\n        /* \"#utility.yul\":18351:18418   */\n      tag_327\n      jump\t// in\n    tag_558:\n        /* \"#utility.yul\":18344:18418   */\n      swap2\n      pop\n        /* \"#utility.yul\":18427:18520   */\n      tag_559\n        /* \"#utility.yul\":18516:18519   */\n      dup3\n        /* \"#utility.yul\":18427:18520   */\n      tag_336\n      jump\t// in\n    tag_559:\n        /* \"#utility.yul\":18545:18547   */\n      0x20\n        /* \"#utility.yul\":18540:18543   */\n      dup3\n        /* \"#utility.yul\":18536:18548   */\n      add\n        /* \"#utility.yul\":18529:18548   */\n      swap1\n      pop\n        /* \"#utility.yul\":18188:18554   */\n      swap2\n      swap1\n      pop\n      jump\t// out\n        /* \"#utility.yul\":18560:18979   */\n    tag_94:\n        /* \"#utility.yul\":18726:18730   */\n      0x00\n        /* \"#utility.yul\":18764:18766   */\n      0x20\n        /* \"#utility.yul\":18753:18762   */\n      dup3\n        /* \"#utility.yul\":18749:18767   */\n      add\n        /* \"#utility.yul\":18741:18767   */\n      swap1\n      pop\n        /* \"#utility.yul\":18813:18822   */\n      dup2\n        /* \"#utility.yul\":18807:18811   */\n      dup2\n        /* \"#utility.yul\":18803:18823   */\n      sub\n        /* \"#utility.yul\":18799:18800   */\n      0x00\n        /* \"#utility.yul\":18788:18797   */\n      dup4\n        /* \"#utility.yul\":18784:18801   */\n      add\n        /* \"#utility.yul\":18777:18824   */\n      mstore\n        /* \"#utility.yul\":18841:18972   */\n      tag_561\n        /* \"#utility.yul\":18967:18971   */\n      dup2\n        /* \"#utility.yul\":18841:18972   */\n      tag_337\n      jump\t// in\n    tag_561:\n        /* \"#utility.yul\":18833:18972   */\n      swap1\n      pop\n        /* \"#utility.yul\":18560:18979   */\n      swap2\n      swap1\n      pop\n      jump\t// out\n        /* \"#utility.yul\":18985:19165   */\n    tag_338:\n        /* \"#utility.yul\":19033:19110   */\n      0x4e487b7100000000000000000000000000000000000000000000000000000000\n        /* \"#utility.yul\":19030:19031   */\n      0x00\n        /* \"#utility.yul\":19023:19111   */\n      mstore\n        /* \"#utility.yul\":19130:19134   */\n      0x11\n        /* \"#utility.yul\":19127:19128   */\n      0x04\n        /* \"#utility.yul\":19120:19135   */\n      mstore\n        /* \"#utility.yul\":19154:19158   */\n      0x24\n        /* \"#utility.yul\":19151:19152   */\n      0x00\n        /* \"#utility.yul\":19144:19159   */\n      revert\n        /* \"#utility.yul\":19171:19362   */\n    tag_96:\n        /* \"#utility.yul\":19211:19214   */\n      0x00\n        /* \"#utility.yul\":19230:19250   */\n      tag_564\n        /* \"#utility.yul\":19248:19249   */\n      dup3\n        /* \"#utility.yul\":19230:19250   */\n      tag_301\n      jump\t// in\n    tag_564:\n        /* \"#utility.yul\":19225:19250   */\n      swap2\n      pop\n        /* \"#utility.yul\":19264:19284   */\n      tag_565\n        /* \"#utility.yul\":19282:19283   */\n      dup4\n        /* \"#utility.yul\":19264:19284   */\n      tag_301\n      jump\t// in\n    tag_565:\n        /* \"#utility.yul\":19259:19284   */\n      swap3\n      pop\n        /* \"#utility.yul\":19307:19308   */\n      dup3\n        /* \"#utility.yul\":19304:19305   */\n      dup3\n        /* \"#utility.yul\":19300:19309   */\n      add\n        /* \"#utility.yul\":19293:19309   */\n      swap1\n      pop\n        /* \"#utility.yul\":19328:19331   */\n      dup1\n        /* \"#utility.yul\":19325:19326   */\n      dup3\n        /* \"#utility.yul\":19322:19332   */\n      gt\n        /* \"#utility.yul\":19319:19355   */\n      iszero\n      tag_566\n      jumpi\n        /* \"#utility.yul\":19335:19353   */\n      tag_567\n      tag_338\n      jump\t// in\n    tag_567:\n        /* \"#utility.yul\":19319:19355   */\n    tag_566:\n        /* \"#utility.yul\":19171:19362   */\n      swap3\n      swap2\n      pop\n      pop\n      jump\t// out\n        /* \"#utility.yul\":19368:19539   */\n    tag_339:\n        /* \"#utility.yul\":19508:19531   */\n      0x4e6f742061626c6520746f20636c61696d207965740000000000000000000000\n        /* \"#utility.yul\":19504:19505   */\n      0x00\n        /* \"#utility.yul\":19496:19502   */\n      dup3\n        /* \"#utility.yul\":19492:19506   */\n      add\n        /* \"#utility.yul\":19485:19532   */\n      mstore\n        /* \"#utility.yul\":19368:19539   */\n      pop\n      jump\t// out\n        /* \"#utility.yul\":19545:19911   */\n    tag_340:\n        /* \"#utility.yul\":19687:19690   */\n      0x00\n        /* \"#utility.yul\":19708:19775   */\n      tag_570\n        /* \"#utility.yul\":19772:19774   */\n      0x15\n        /* \"#utility.yul\":19767:19770   */\n      dup4\n        /* \"#utility.yul\":19708:19775   */\n      tag_327\n      jump\t// in\n    tag_570:\n        /* \"#utility.yul\":19701:19775   */\n      swap2\n      pop\n        /* \"#utility.yul\":19784:19877   */\n      tag_571\n        /* \"#utility.yul\":19873:19876   */\n      dup3\n        /* \"#utility.yul\":19784:19877   */\n      tag_339\n      jump\t// in\n    tag_571:\n        /* \"#utility.yul\":19902:19904   */\n      0x20\n        /* \"#utility.yul\":19897:19900   */\n      dup3\n        /* \"#utility.yul\":19893:19905   */\n      add\n        /* \"#utility.yul\":19886:19905   */\n      swap1\n      pop\n        /* \"#utility.yul\":19545:19911   */\n      swap2\n      swap1\n      pop\n      jump\t// out\n        /* \"#utility.yul\":19917:20336   */\n    tag_99:\n        /* \"#utility.yul\":20083:20087   */\n      0x00\n        /* \"#utility.yul\":20121:20123   */\n      0x20\n        /* \"#utility.yul\":20110:20119   */\n      dup3\n        /* \"#utility.yul\":20106:20124   */\n      add\n        /* \"#utility.yul\":20098:20124   */\n      swap1\n      pop\n        /* \"#utility.yul\":20170:20179   */\n      dup2\n        /* \"#utility.yul\":20164:20168   */\n      dup2\n        /* \"#utility.yul\":20160:20180   */\n      sub\n        /* \"#utility.yul\":20156:20157   */\n      0x00\n        /* \"#utility.yul\":20145:20154   */\n      dup4\n        /* \"#utility.yul\":20141:20158   */\n      add\n        /* \"#utility.yul\":20134:20181   */\n      mstore\n        /* \"#utility.yul\":20198:20329   */\n      tag_573\n        /* \"#utility.yul\":20324:20328   */\n      dup2\n        /* \"#utility.yul\":20198:20329   */\n      tag_340\n      jump\t// in\n    tag_573:\n        /* \"#utility.yul\":20190:20329   */\n      swap1\n      pop\n        /* \"#utility.yul\":19917:20336   */\n      swap2\n      swap1\n      pop\n      jump\t// out\n        /* \"#utility.yul\":20342:20508   */\n    tag_341:\n        /* \"#utility.yul\":20482:20500   */\n      0x416c726561647920756e6c6f636b656400000000000000000000000000000000\n        /* \"#utility.yul\":20478:20479   */\n      0x00\n        /* \"#utility.yul\":20470:20476   */\n      dup3\n        /* \"#utility.yul\":20466:20480   */\n      add\n        /* \"#utility.yul\":20459:20501   */\n      mstore\n        /* \"#utility.yul\":20342:20508   */\n      pop\n      jump\t// out\n        /* \"#utility.yul\":20514:20880   */\n    tag_342:\n        /* \"#utility.yul\":20656:20659   */\n      0x00\n        /* \"#utility.yul\":20677:20744   */\n      tag_576\n        /* \"#utility.yul\":20741:20743   */\n      0x10\n        /* \"#utility.yul\":20736:20739   */\n      dup4\n        /* \"#utility.yul\":20677:20744   */\n      tag_327\n      jump\t// in\n    tag_576:\n        /* \"#utility.yul\":20670:20744   */\n      swap2\n      pop\n        /* \"#utility.yul\":20753:20846   */\n      tag_577\n        /* \"#utility.yul\":20842:20845   */\n      dup3\n        /* \"#utility.yul\":20753:20846   */\n      tag_341\n      jump\t// in\n    tag_577:\n        /* \"#utility.yul\":20871:20873   */\n      0x20\n        /* \"#utility.yul\":20866:20869   */\n      dup3\n        /* \"#utility.yul\":20862:20874   */\n      add\n        /* \"#utility.yul\":20855:20874   */\n      swap1\n      pop\n        /* \"#utility.yul\":20514:20880   */\n      swap2\n      swap1\n      pop\n      jump\t// out\n        /* \"#utility.yul\":20886:21305   */\n    tag_102:\n        /* \"#utility.yul\":21052:21056   */\n      0x00\n        /* \"#utility.yul\":21090:21092   */\n      0x20\n        /* \"#utility.yul\":21079:21088   */\n      dup3\n        /* \"#utility.yul\":21075:21093   */\n      add\n        /* \"#utility.yul\":21067:21093   */\n      swap1\n      pop\n        /* \"#utility.yul\":21139:21148   */\n      dup2\n        /* \"#utility.yul\":21133:21137   */\n      dup2\n        /* \"#utility.yul\":21129:21149   */\n      sub\n        /* \"#utility.yul\":21125:21126   */\n      0x00\n        /* \"#utility.yul\":21114:21123   */\n      dup4\n        /* \"#utility.yul\":21110:21127   */\n      add\n        /* \"#utility.yul\":21103:21150   */\n      mstore\n        /* \"#utility.yul\":21167:21298   */\n      tag_579\n        /* \"#utility.yul\":21293:21297   */\n      dup2\n        /* \"#utility.yul\":21167:21298   */\n      tag_342\n      jump\t// in\n    tag_579:\n        /* \"#utility.yul\":21159:21298   */\n      swap1\n      pop\n        /* \"#utility.yul\":20886:21305   */\n      swap2\n      swap1\n      pop\n      jump\t// out\n        /* \"#utility.yul\":21311:21505   */\n    tag_108:\n        /* \"#utility.yul\":21351:21355   */\n      0x00\n        /* \"#utility.yul\":21371:21391   */\n      tag_581\n        /* \"#utility.yul\":21389:21390   */\n      dup3\n        /* \"#utility.yul\":21371:21391   */\n      tag_301\n      jump\t// in\n    tag_581:\n        /* \"#utility.yul\":21366:21391   */\n      swap2\n      pop\n        /* \"#utility.yul\":21405:21425   */\n      tag_582\n        /* \"#utility.yul\":21423:21424   */\n      dup4\n        /* \"#utility.yul\":21405:21425   */\n      tag_301\n      jump\t// in\n    tag_582:\n        /* \"#utility.yul\":21400:21425   */\n      swap3\n      pop\n        /* \"#utility.yul\":21449:21450   */\n      dup3\n        /* \"#utility.yul\":21446:21447   */\n      dup3\n        /* \"#utility.yul\":21442:21451   */\n      sub\n        /* \"#utility.yul\":21434:21451   */\n      swap1\n      pop\n        /* \"#utility.yul\":21473:21474   */\n      dup2\n        /* \"#utility.yul\":21467:21471   */\n      dup2\n        /* \"#utility.yul\":21464:21475   */\n      gt\n        /* \"#utility.yul\":21461:21498   */\n      iszero\n      tag_583\n      jumpi\n        /* \"#utility.yul\":21478:21496   */\n      tag_584\n      tag_338\n      jump\t// in\n    tag_584:\n        /* \"#utility.yul\":21461:21498   */\n    tag_583:\n        /* \"#utility.yul\":21311:21505   */\n      swap3\n      swap2\n      pop\n      pop\n      jump\t// out\n        /* \"#utility.yul\":21511:21843   */\n    tag_110:\n        /* \"#utility.yul\":21632:21636   */\n      0x00\n        /* \"#utility.yul\":21670:21672   */\n      0x40\n        /* \"#utility.yul\":21659:21668   */\n      dup3\n        /* \"#utility.yul\":21655:21673   */\n      add\n        /* \"#utility.yul\":21647:21673   */\n      swap1\n      pop\n        /* \"#utility.yul\":21683:21754   */\n      tag_586\n        /* \"#utility.yul\":21751:21752   */\n      0x00\n        /* \"#utility.yul\":21740:21749   */\n      dup4\n        /* \"#utility.yul\":21736:21753   */\n      add\n        /* \"#utility.yul\":21727:21733   */\n      dup6\n        /* \"#utility.yul\":21683:21754   */\n      tag_305\n      jump\t// in\n    tag_586:\n        /* \"#utility.yul\":21764:21836   */\n      tag_587\n        /* \"#utility.yul\":21832:21834   */\n      0x20\n        /* \"#utility.yul\":21821:21830   */\n      dup4\n        /* \"#utility.yul\":21817:21835   */\n      add\n        /* \"#utility.yul\":21808:21814   */\n      dup5\n        /* \"#utility.yul\":21764:21836   */\n      tag_302\n      jump\t// in\n    tag_587:\n        /* \"#utility.yul\":21511:21843   */\n      swap4\n      swap3\n      pop\n      pop\n      pop\n      jump\t// out\n        /* \"#utility.yul\":21849:22082   */\n    tag_118:\n        /* \"#utility.yul\":21888:21891   */\n      0x00\n        /* \"#utility.yul\":21911:21935   */\n      tag_589\n        /* \"#utility.yul\":21929:21934   */\n      dup3\n        /* \"#utility.yul\":21911:21935   */\n      tag_301\n      jump\t// in\n    tag_589:\n        /* \"#utility.yul\":21902:21935   */\n      swap2\n      pop\n        /* \"#utility.yul\":21957:22023   */\n      0xffffffffffffffffffffffffffffffffffffffffffffffffffffffffffffffff\n        /* \"#utility.yul\":21950:21955   */\n      dup3\n        /* \"#utility.yul\":21947:22024   */\n      sub\n        /* \"#utility.yul\":21944:22047   */\n      tag_590\n      jumpi\n        /* \"#utility.yul\":22027:22045   */\n      tag_591\n      tag_338\n      jump\t// in\n    tag_591:\n        /* \"#utility.yul\":21944:22047   */\n    tag_590:\n        /* \"#utility.yul\":22074:22075   */\n      0x01\n        /* \"#utility.yul\":22067:22072   */\n      dup3\n        /* \"#utility.yul\":22063:22076   */\n      add\n        /* \"#utility.yul\":22056:22076   */\n      swap1\n      pop\n        /* \"#utility.yul\":21849:22082   */\n      swap2\n      swap1\n      pop\n      jump\t// out\n        /* \"#utility.yul\":22088:22272   */\n    tag_343:\n        /* \"#utility.yul\":22187:22198   */\n      0x00\n        /* \"#utility.yul\":22221:22227   */\n      dup3\n        /* \"#utility.yul\":22216:22219   */\n      dup3\n        /* \"#utility.yul\":22209:22228   */\n      mstore\n        /* \"#utility.yul\":22261:22265   */\n      0x20\n        /* \"#utility.yul\":22256:22259   */\n      dup3\n        /* \"#utility.yul\":22252:22266   */\n      add\n        /* \"#utility.yul\":22237:22266   */\n      swap1\n      pop\n        /* \"#utility.yul\":22088:22272   */\n      swap3\n      swap2\n      pop\n      pop\n      jump\t// out\n        /* \"#utility.yul\":22278:22395   */\n    tag_344:\n        /* \"#utility.yul\":22387:22388   */\n      0x00\n        /* \"#utility.yul\":22384:22385   */\n      dup1\n        /* \"#utility.yul\":22377:22389   */\n      revert\n        /* \"#utility.yul\":22401:22499   */\n    tag_345:\n        /* \"#utility.yul\":22485:22491   */\n      dup3\n        /* \"#utility.yul\":22480:22483   */\n      dup2\n        /* \"#utility.yul\":22475:22478   */\n      dup4\n        /* \"#utility.yul\":22462:22492   */\n      calldatacopy\n        /* \"#utility.yul\":22401:22499   */\n      pop\n      pop\n      pop\n      jump\t// out\n        /* \"#utility.yul\":22535:23072   */\n    tag_346:\n        /* \"#utility.yul\":22663:22666   */\n      0x00\n        /* \"#utility.yul\":22684:22770   */\n      tag_596\n        /* \"#utility.yul\":22763:22769   */\n      dup4\n        /* \"#utility.yul\":22758:22761   */\n      dup6\n        /* \"#utility.yul\":22684:22770   */\n      tag_343\n      jump\t// in\n    tag_596:\n        /* \"#utility.yul\":22677:22770   */\n      swap4\n      pop\n        /* \"#utility.yul\":22794:22860   */\n      0x07ffffffffffffffffffffffffffffffffffffffffffffffffffffffffffffff\n        /* \"#utility.yul\":22786:22792   */\n      dup4\n        /* \"#utility.yul\":22783:22861   */\n      gt\n        /* \"#utility.yul\":22780:22945   */\n      iszero\n      tag_597\n      jumpi\n        /* \"#utility.yul\":22864:22943   */\n      tag_598\n      tag_344\n      jump\t// in\n    tag_598:\n        /* \"#utility.yul\":22780:22945   */\n    tag_597:\n        /* \"#utility.yul\":22976:22980   */\n      0x20\n        /* \"#utility.yul\":22968:22974   */\n      dup4\n        /* \"#utility.yul\":22964:22981   */\n      mul\n        /* \"#utility.yul\":22954:22981   */\n      swap3\n      pop\n        /* \"#utility.yul\":22991:23034   */\n      tag_599\n        /* \"#utility.yul\":23027:23033   */\n      dup4\n        /* \"#utility.yul\":23022:23025   */\n      dup6\n        /* \"#utility.yul\":23015:23020   */\n      dup5\n        /* \"#utility.yul\":22991:23034   */\n      tag_345\n      jump\t// in\n    tag_599:\n        /* \"#utility.yul\":23059:23065   */\n      dup3\n        /* \"#utility.yul\":23054:23057   */\n      dup5\n        /* \"#utility.yul\":23050:23066   */\n      add\n        /* \"#utility.yul\":23043:23066   */\n      swap1\n      pop\n        /* \"#utility.yul\":22535:23072   */\n      swap4\n      swap3\n      pop\n      pop\n      pop\n      jump\t// out\n        /* \"#utility.yul\":23078:23581   */\n    tag_120:\n        /* \"#utility.yul\":23259:23263   */\n      0x00\n        /* \"#utility.yul\":23297:23299   */\n      0x40\n        /* \"#utility.yul\":23286:23295   */\n      dup3\n        /* \"#utility.yul\":23282:23300   */\n      add\n        /* \"#utility.yul\":23274:23300   */\n      swap1\n      pop\n        /* \"#utility.yul\":23346:23355   */\n      dup2\n        /* \"#utility.yul\":23340:23344   */\n      dup2\n        /* \"#utility.yul\":23336:23356   */\n      sub\n        /* \"#utility.yul\":23332:23333   */\n      0x00\n        /* \"#utility.yul\":23321:23330   */\n      dup4\n        /* \"#utility.yul\":23317:23334   */\n      add\n        /* \"#utility.yul\":23310:23357   */\n      mstore\n        /* \"#utility.yul\":23374:23492   */\n      tag_601\n        /* \"#utility.yul\":23487:23491   */\n      dup2\n        /* \"#utility.yul\":23478:23484   */\n      dup6\n        /* \"#utility.yul\":23470:23476   */\n      dup8\n        /* \"#utility.yul\":23374:23492   */\n      tag_346\n      jump\t// in\n    tag_601:\n        /* \"#utility.yul\":23366:23492   */\n      swap1\n      pop\n        /* \"#utility.yul\":23502:23574   */\n      tag_602\n        /* \"#utility.yul\":23570:23572   */\n      0x20\n        /* \"#utility.yul\":23559:23568   */\n      dup4\n        /* \"#utility.yul\":23555:23573   */\n      add\n        /* \"#utility.yul\":23546:23552   */\n      dup5\n        /* \"#utility.yul\":23502:23574   */\n      tag_302\n      jump\t// in\n    tag_602:\n        /* \"#utility.yul\":23078:23581   */\n      swap5\n      swap4\n      pop\n      pop\n      pop\n      pop\n      jump\t// out\n        /* \"#utility.yul\":23587:23768   */\n    tag_347:\n        /* \"#utility.yul\":23727:23760   */\n      0x5265656e7472616e637947756172643a207265656e7472616e742063616c6c00\n        /* \"#utility.yul\":23723:23724   */\n      0x00\n        /* \"#utility.yul\":23715:23721   */\n      dup3\n        /* \"#utility.yul\":23711:23725   */\n      add\n        /* \"#utility.yul\":23704:23761   */\n      mstore\n        /* \"#utility.yul\":23587:23768   */\n      pop\n      jump\t// out\n        /* \"#utility.yul\":23774:24140   */\n    tag_348:\n        /* \"#utility.yul\":23916:23919   */\n      0x00\n        /* \"#utility.yul\":23937:24004   */\n      tag_605\n        /* \"#utility.yul\":24001:24003   */\n      0x1f\n        /* \"#utility.yul\":23996:23999   */\n      dup4\n        /* \"#utility.yul\":23937:24004   */\n      tag_327\n      jump\t// in\n    tag_605:\n        /* \"#utility.yul\":23930:24004   */\n      swap2\n      pop\n        /* \"#utility.yul\":24013:24106   */\n      tag_606\n        /* \"#utility.yul\":24102:24105   */\n      dup3\n        /* \"#utility.yul\":24013:24106   */\n      tag_347\n      jump\t// in\n    tag_606:\n        /* \"#utility.yul\":24131:24133   */\n      0x20\n        /* \"#utility.yul\":24126:24129   */\n      dup3\n        /* \"#utility.yul\":24122:24134   */\n      add\n        /* \"#utility.yul\":24115:24134   */\n      swap1\n      pop\n        /* \"#utility.yul\":23774:24140   */\n      swap2\n      swap1\n      pop\n      jump\t// out\n        /* \"#utility.yul\":24146:24565   */\n    tag_130:\n        /* \"#utility.yul\":24312:24316   */\n      0x00\n        /* \"#utility.yul\":24350:24352   */\n      0x20\n        /* \"#utility.yul\":24339:24348   */\n      dup3\n        /* \"#utility.yul\":24335:24353   */\n      add\n        /* \"#utility.yul\":24327:24353   */\n      swap1\n      pop\n        /* \"#utility.yul\":24399:24408   */\n      dup2\n        /* \"#utility.yul\":24393:24397   */\n      dup2\n        /* \"#utility.yul\":24389:24409   */\n      sub\n        /* \"#utility.yul\":24385:24386   */\n      0x00\n        /* \"#utility.yul\":24374:24383   */\n      dup4\n        /* \"#utility.yul\":24370:24387   */\n      add\n        /* \"#utility.yul\":24363:24410   */\n      mstore\n        /* \"#utility.yul\":24427:24558   */\n      tag_608\n        /* \"#utility.yul\":24553:24557   */\n      dup2\n        /* \"#utility.yul\":24427:24558   */\n      tag_348\n      jump\t// in\n    tag_608:\n        /* \"#utility.yul\":24419:24558   */\n      swap1\n      pop\n        /* \"#utility.yul\":24146:24565   */\n      swap2\n      swap1\n      pop\n      jump\t// out\n        /* \"#utility.yul\":24571:24714   */\n    tag_349:\n        /* \"#utility.yul\":24628:24633   */\n      0x00\n        /* \"#utility.yul\":24659:24665   */\n      dup2\n        /* \"#utility.yul\":24653:24666   */\n      mload\n        /* \"#utility.yul\":24644:24666   */\n      swap1\n      pop\n        /* \"#utility.yul\":24675:24708   */\n      tag_610\n        /* \"#utility.yul\":24702:24707   */\n      dup2\n        /* \"#utility.yul\":24675:24708   */\n      tag_320\n      jump\t// in\n    tag_610:\n        /* \"#utility.yul\":24571:24714   */\n      swap3\n      swap2\n      pop\n      pop\n      jump\t// out\n        /* \"#utility.yul\":24720:25071   */\n    tag_145:\n        /* \"#utility.yul\":24790:24796   */\n      0x00\n        /* \"#utility.yul\":24839:24841   */\n      0x20\n        /* \"#utility.yul\":24827:24836   */\n      dup3\n        /* \"#utility.yul\":24818:24825   */\n      dup5\n        /* \"#utility.yul\":24814:24837   */\n      sub\n        /* \"#utility.yul\":24810:24842   */\n      slt\n        /* \"#utility.yul\":24807:24926   */\n      iszero\n      tag_612\n      jumpi\n        /* \"#utility.yul\":24845:24924   */\n      tag_613\n      tag_290\n      jump\t// in\n    tag_613:\n        /* \"#utility.yul\":24807:24926   */\n    tag_612:\n        /* \"#utility.yul\":24965:24966   */\n      0x00\n        /* \"#utility.yul\":24990:25054   */\n      tag_614\n        /* \"#utility.yul\":25046:25053   */\n      dup5\n        /* \"#utility.yul\":25037:25043   */\n      dup3\n        /* \"#utility.yul\":25026:25035   */\n      dup6\n        /* \"#utility.yul\":25022:25044   */\n      add\n        /* \"#utility.yul\":24990:25054   */\n      tag_349\n      jump\t// in\n    tag_614:\n        /* \"#utility.yul\":24980:25054   */\n      swap2\n      pop\n        /* \"#utility.yul\":24936:25064   */\n      pop\n        /* \"#utility.yul\":24720:25071   */\n      swap3\n      swap2\n      pop\n      pop\n      jump\t// out\n        /* \"#utility.yul\":25077:25252   */\n    tag_350:\n        /* \"#utility.yul\":25217:25244   */\n      0x596f7520646f6e277420686f6c64207468697320746f6b656e00000000000000\n        /* \"#utility.yul\":25213:25214   */\n      0x00\n        /* \"#utility.yul\":25205:25211   */\n      dup3\n        /* \"#utility.yul\":25201:25215   */\n      add\n        /* \"#utility.yul\":25194:25245   */\n      mstore\n        /* \"#utility.yul\":25077:25252   */\n      pop\n      jump\t// out\n        /* \"#utility.yul\":25258:25624   */\n    tag_351:\n        /* \"#utility.yul\":25400:25403   */\n      0x00\n        /* \"#utility.yul\":25421:25488   */\n      tag_617\n        /* \"#utility.yul\":25485:25487   */\n      0x19\n        /* \"#utility.yul\":25480:25483   */\n      dup4\n        /* \"#utility.yul\":25421:25488   */\n      tag_327\n      jump\t// in\n    tag_617:\n        /* \"#utility.yul\":25414:25488   */\n      swap2\n      pop\n        /* \"#utility.yul\":25497:25590   */\n      tag_618\n        /* \"#utility.yul\":25586:25589   */\n      dup3\n        /* \"#utility.yul\":25497:25590   */\n      tag_350\n      jump\t// in\n    tag_618:\n        /* \"#utility.yul\":25615:25617   */\n      0x20\n        /* \"#utility.yul\":25610:25613   */\n      dup3\n        /* \"#utility.yul\":25606:25618   */\n      add\n        /* \"#utility.yul\":25599:25618   */\n      swap1\n      pop\n        /* \"#utility.yul\":25258:25624   */\n      swap2\n      swap1\n      pop\n      jump\t// out\n        /* \"#utility.yul\":25630:26049   */\n    tag_148:\n        /* \"#utility.yul\":25796:25800   */\n      0x00\n        /* \"#utility.yul\":25834:25836   */\n      0x20\n        /* \"#utility.yul\":25823:25832   */\n      dup3\n        /* \"#utility.yul\":25819:25837   */\n      add\n        /* \"#utility.yul\":25811:25837   */\n      swap1\n      pop\n        /* \"#utility.yul\":25883:25892   */\n      dup2\n        /* \"#utility.yul\":25877:25881   */\n      dup2\n        /* \"#utility.yul\":25873:25893   */\n      sub\n        /* \"#utility.yul\":25869:25870   */\n      0x00\n        /* \"#utility.yul\":25858:25867   */\n      dup4\n        /* \"#utility.yul\":25854:25871   */\n      add\n        /* \"#utility.yul\":25847:25894   */\n      mstore\n        /* \"#utility.yul\":25911:26042   */\n      tag_620\n        /* \"#utility.yul\":26037:26041   */\n      dup2\n        /* \"#utility.yul\":25911:26042   */\n      tag_351\n      jump\t// in\n    tag_620:\n        /* \"#utility.yul\":25903:26042   */\n      swap1\n      pop\n        /* \"#utility.yul\":25630:26049   */\n      swap2\n      swap1\n      pop\n      jump\t// out\n        /* \"#utility.yul\":26055:26497   */\n    tag_152:\n        /* \"#utility.yul\":26204:26208   */\n      0x00\n        /* \"#utility.yul\":26242:26244   */\n      0x60\n        /* \"#utility.yul\":26231:26240   */\n      dup3\n        /* \"#utility.yul\":26227:26245   */\n      add\n        /* \"#utility.yul\":26219:26245   */\n      swap1\n      pop\n        /* \"#utility.yul\":26255:26326   */\n      tag_622\n        /* \"#utility.yul\":26323:26324   */\n      0x00\n        /* \"#utility.yul\":26312:26321   */\n      dup4\n        /* \"#utility.yul\":26308:26325   */\n      add\n        /* \"#utility.yul\":26299:26305   */\n      dup7\n        /* \"#utility.yul\":26255:26326   */\n      tag_305\n      jump\t// in\n    tag_622:\n        /* \"#utility.yul\":26336:26408   */\n      tag_623\n        /* \"#utility.yul\":26404:26406   */\n      0x20\n        /* \"#utility.yul\":26393:26402   */\n      dup4\n        /* \"#utility.yul\":26389:26407   */\n      add\n        /* \"#utility.yul\":26380:26386   */\n      dup6\n        /* \"#utility.yul\":26336:26408   */\n      tag_305\n      jump\t// in\n    tag_623:\n        /* \"#utility.yul\":26418:26490   */\n      tag_624\n        /* \"#utility.yul\":26486:26488   */\n      0x40\n        /* \"#utility.yul\":26475:26484   */\n      dup4\n        /* \"#utility.yul\":26471:26489   */\n      add\n        /* \"#utility.yul\":26462:26468   */\n      dup5\n        /* \"#utility.yul\":26418:26490   */\n      tag_302\n      jump\t// in\n    tag_624:\n        /* \"#utility.yul\":26055:26497   */\n      swap5\n      swap4\n      pop\n      pop\n      pop\n      pop\n      jump\t// out\n        /* \"#utility.yul\":26503:26896   */\n    tag_160:\n        /* \"#utility.yul\":26656:26660   */\n      0x00\n        /* \"#utility.yul\":26694:26696   */\n      0x20\n        /* \"#utility.yul\":26683:26692   */\n      dup3\n        /* \"#utility.yul\":26679:26697   */\n      add\n        /* \"#utility.yul\":26671:26697   */\n      swap1\n      pop\n        /* \"#utility.yul\":26743:26752   */\n      dup2\n        /* \"#utility.yul\":26737:26741   */\n      dup2\n        /* \"#utility.yul\":26733:26753   */\n      sub\n        /* \"#utility.yul\":26729:26730   */\n      0x00\n        /* \"#utility.yul\":26718:26727   */\n      dup4\n        /* \"#utility.yul\":26714:26731   */\n      add\n        /* \"#utility.yul\":26707:26754   */\n      mstore\n        /* \"#utility.yul\":26771:26889   */\n      tag_626\n        /* \"#utility.yul\":26884:26888   */\n      dup2\n        /* \"#utility.yul\":26875:26881   */\n      dup5\n        /* \"#utility.yul\":26867:26873   */\n      dup7\n        /* \"#utility.yul\":26771:26889   */\n      tag_346\n      jump\t// in\n    tag_626:\n        /* \"#utility.yul\":26763:26889   */\n      swap1\n      pop\n        /* \"#utility.yul\":26503:26896   */\n      swap4\n      swap3\n      pop\n      pop\n      pop\n      jump\t// out\n        /* \"#utility.yul\":26902:27072   */\n    tag_352:\n        /* \"#utility.yul\":27042:27064   */\n      0x496e76616c6964206c6f636b20706572696f642e000000000000000000000000\n        /* \"#utility.yul\":27038:27039   */\n      0x00\n        /* \"#utility.yul\":27030:27036   */\n      dup3\n        /* \"#utility.yul\":27026:27040   */\n      add\n        /* \"#utility.yul\":27019:27065   */\n      mstore\n        /* \"#utility.yul\":26902:27072   */\n      pop\n      jump\t// out\n        /* \"#utility.yul\":27078:27444   */\n    tag_353:\n        /* \"#utility.yul\":27220:27223   */\n      0x00\n        /* \"#utility.yul\":27241:27308   */\n      tag_629\n        /* \"#utility.yul\":27305:27307   */\n      0x14\n        /* \"#utility.yul\":27300:27303   */\n      dup4\n        /* \"#utility.yul\":27241:27308   */\n      tag_327\n      jump\t// in\n    tag_629:\n        /* \"#utility.yul\":27234:27308   */\n      swap2\n      pop\n        /* \"#utility.yul\":27317:27410   */\n      tag_630\n        /* \"#utility.yul\":27406:27409   */\n      dup3\n        /* \"#utility.yul\":27317:27410   */\n      tag_352\n      jump\t// in\n    tag_630:\n        /* \"#utility.yul\":27435:27437   */\n      0x20\n        /* \"#utility.yul\":27430:27433   */\n      dup3\n        /* \"#utility.yul\":27426:27438   */\n      add\n        /* \"#utility.yul\":27419:27438   */\n      swap1\n      pop\n        /* \"#utility.yul\":27078:27444   */\n      swap2\n      swap1\n      pop\n      jump\t// out\n        /* \"#utility.yul\":27450:27869   */\n    tag_172:\n        /* \"#utility.yul\":27616:27620   */\n      0x00\n        /* \"#utility.yul\":27654:27656   */\n      0x20\n        /* \"#utility.yul\":27643:27652   */\n      dup3\n        /* \"#utility.yul\":27639:27657   */\n      add\n        /* \"#utility.yul\":27631:27657   */\n      swap1\n      pop\n        /* \"#utility.yul\":27703:27712   */\n      dup2\n        /* \"#utility.yul\":27697:27701   */\n      dup2\n        /* \"#utility.yul\":27693:27713   */\n      sub\n        /* \"#utility.yul\":27689:27690   */\n      0x00\n        /* \"#utility.yul\":27678:27687   */\n      dup4\n        /* \"#utility.yul\":27674:27691   */\n      add\n        /* \"#utility.yul\":27667:27714   */\n      mstore\n        /* \"#utility.yul\":27731:27862   */\n      tag_632\n        /* \"#utility.yul\":27857:27861   */\n      dup2\n        /* \"#utility.yul\":27731:27862   */\n      tag_353\n      jump\t// in\n    tag_632:\n        /* \"#utility.yul\":27723:27862   */\n      swap1\n      pop\n        /* \"#utility.yul\":27450:27869   */\n      swap2\n      swap1\n      pop\n      jump\t// out\n        /* \"#utility.yul\":27875:28047   */\n    tag_354:\n        /* \"#utility.yul\":28015:28039   */\n      0x4e6f742061626c6520746f20756e6c6f636b2079657400000000000000000000\n        /* \"#utility.yul\":28011:28012   */\n      0x00\n        /* \"#utility.yul\":28003:28009   */\n      dup3\n        /* \"#utility.yul\":27999:28013   */\n      add\n        /* \"#utility.yul\":27992:28040   */\n      mstore\n        /* \"#utility.yul\":27875:28047   */\n      pop\n      jump\t// out\n        /* \"#utility.yul\":28053:28419   */\n    tag_355:\n        /* \"#utility.yul\":28195:28198   */\n      0x00\n        /* \"#utility.yul\":28216:28283   */\n      tag_635\n        /* \"#utility.yul\":28280:28282   */\n      0x16\n        /* \"#utility.yul\":28275:28278   */\n      dup4\n        /* \"#utility.yul\":28216:28283   */\n      tag_327\n      jump\t// in\n    tag_635:\n        /* \"#utility.yul\":28209:28283   */\n      swap2\n      pop\n        /* \"#utility.yul\":28292:28385   */\n      tag_636\n        /* \"#utility.yul\":28381:28384   */\n      dup3\n        /* \"#utility.yul\":28292:28385   */\n      tag_354\n      jump\t// in\n    tag_636:\n        /* \"#utility.yul\":28410:28412   */\n      0x20\n        /* \"#utility.yul\":28405:28408   */\n      dup3\n        /* \"#utility.yul\":28401:28413   */\n      add\n        /* \"#utility.yul\":28394:28413   */\n      swap1\n      pop\n        /* \"#utility.yul\":28053:28419   */\n      swap2\n      swap1\n      pop\n      jump\t// out\n        /* \"#utility.yul\":28425:28844   */\n    tag_199:\n        /* \"#utility.yul\":28591:28595   */\n      0x00\n        /* \"#utility.yul\":28629:28631   */\n      0x20\n        /* \"#utility.yul\":28618:28627   */\n      dup3\n        /* \"#utility.yul\":28614:28632   */\n      add\n        /* \"#utility.yul\":28606:28632   */\n      swap1\n      pop\n        /* \"#utility.yul\":28678:28687   */\n      dup2\n        /* \"#utility.yul\":28672:28676   */\n      dup2\n        /* \"#utility.yul\":28668:28688   */\n      sub\n        /* \"#utility.yul\":28664:28665   */\n      0x00\n        /* \"#utility.yul\":28653:28662   */\n      dup4\n        /* \"#utility.yul\":28649:28666   */\n      add\n        /* \"#utility.yul\":28642:28689   */\n      mstore\n        /* \"#utility.yul\":28706:28837   */\n      tag_638\n        /* \"#utility.yul\":28832:28836   */\n      dup2\n        /* \"#utility.yul\":28706:28837   */\n      tag_355\n      jump\t// in\n    tag_638:\n        /* \"#utility.yul\":28698:28837   */\n      swap1\n      pop\n        /* \"#utility.yul\":28425:28844   */\n      swap2\n      swap1\n      pop\n      jump\t// out\n        /* \"#utility.yul\":28850:29019   */\n    tag_356:\n        /* \"#utility.yul\":28990:29011   */\n      0x496e76616c6964205374616b6520546f6b656e00000000000000000000000000\n        /* \"#utility.yul\":28986:28987   */\n      0x00\n        /* \"#utility.yul\":28978:28984   */\n      dup3\n        /* \"#utility.yul\":28974:28988   */\n      add\n        /* \"#utility.yul\":28967:29012   */\n      mstore\n        /* \"#utility.yul\":28850:29019   */\n      pop\n      jump\t// out\n        /* \"#utility.yul\":29025:29391   */\n    tag_357:\n        /* \"#utility.yul\":29167:29170   */\n      0x00\n        /* \"#utility.yul\":29188:29255   */\n      tag_641\n        /* \"#utility.yul\":29252:29254   */\n      0x13\n        /* \"#utility.yul\":29247:29250   */\n      dup4\n        /* \"#utility.yul\":29188:29255   */\n      tag_327\n      jump\t// in\n    tag_641:\n        /* \"#utility.yul\":29181:29255   */\n      swap2\n      pop\n        /* \"#utility.yul\":29264:29357   */\n      tag_642\n        /* \"#utility.yul\":29353:29356   */\n      dup3\n        /* \"#utility.yul\":29264:29357   */\n      tag_356\n      jump\t// in\n    tag_642:\n        /* \"#utility.yul\":29382:29384   */\n      0x20\n        /* \"#utility.yul\":29377:29380   */\n      dup3\n        /* \"#utility.yul\":29373:29385   */\n      add\n        /* \"#utility.yul\":29366:29385   */\n      swap1\n      pop\n        /* \"#utility.yul\":29025:29391   */\n      swap2\n      swap1\n      pop\n      jump\t// out\n        /* \"#utility.yul\":29397:29816   */\n    tag_233:\n        /* \"#utility.yul\":29563:29567   */\n      0x00\n        /* \"#utility.yul\":29601:29603   */\n      0x20\n        /* \"#utility.yul\":29590:29599   */\n      dup3\n        /* \"#utility.yul\":29586:29604   */\n      add\n        /* \"#utility.yul\":29578:29604   */\n      swap1\n      pop\n        /* \"#utility.yul\":29650:29659   */\n      dup2\n        /* \"#utility.yul\":29644:29648   */\n      dup2\n        /* \"#utility.yul\":29640:29660   */\n      sub\n        /* \"#utility.yul\":29636:29637   */\n      0x00\n        /* \"#utility.yul\":29625:29634   */\n      dup4\n        /* \"#utility.yul\":29621:29638   */\n      add\n        /* \"#utility.yul\":29614:29661   */\n      mstore\n        /* \"#utility.yul\":29678:29809   */\n      tag_644\n        /* \"#utility.yul\":29804:29808   */\n      dup2\n        /* \"#utility.yul\":29678:29809   */\n      tag_357\n      jump\t// in\n    tag_644:\n        /* \"#utility.yul\":29670:29809   */\n      swap1\n      pop\n        /* \"#utility.yul\":29397:29816   */\n      swap2\n      swap1\n      pop\n      jump\t// out\n        /* \"#utility.yul\":29822:29992   */\n    tag_358:\n        /* \"#utility.yul\":29962:29984   */\n      0x496e76616c69642052657761726420546f6b656e000000000000000000000000\n        /* \"#utility.yul\":29958:29959   */\n      0x00\n        /* \"#utility.yul\":29950:29956   */\n      dup3\n        /* \"#utility.yul\":29946:29960   */\n      add\n        /* \"#utility.yul\":29939:29985   */\n      mstore\n        /* \"#utility.yul\":29822:29992   */\n      pop\n      jump\t// out\n        /* \"#utility.yul\":29998:30364   */\n    tag_359:\n        /* \"#utility.yul\":30140:30143   */\n      0x00\n        /* \"#utility.yul\":30161:30228   */\n      tag_647\n        /* \"#utility.yul\":30225:30227   */\n      0x14\n        /* \"#utility.yul\":30220:30223   */\n      dup4\n        /* \"#utility.yul\":30161:30228   */\n      tag_327\n      jump\t// in\n    tag_647:\n        /* \"#utility.yul\":30154:30228   */\n      swap2\n      pop\n        /* \"#utility.yul\":30237:30330   */\n      tag_648\n        /* \"#utility.yul\":30326:30329   */\n      dup3\n        /* \"#utility.yul\":30237:30330   */\n      tag_358\n      jump\t// in\n    tag_648:\n        /* \"#utility.yul\":30355:30357   */\n      0x20\n        /* \"#utility.yul\":30350:30353   */\n      dup3\n        /* \"#utility.yul\":30346:30358   */\n      add\n        /* \"#utility.yul\":30339:30358   */\n      swap1\n      pop\n        /* \"#utility.yul\":29998:30364   */\n      swap2\n      swap1\n      pop\n      jump\t// out\n        /* \"#utility.yul\":30370:30789   */\n    tag_238:\n        /* \"#utility.yul\":30536:30540   */\n      0x00\n        /* \"#utility.yul\":30574:30576   */\n      0x20\n        /* \"#utility.yul\":30563:30572   */\n      dup3\n        /* \"#utility.yul\":30559:30577   */\n      add\n        /* \"#utility.yul\":30551:30577   */\n      swap1\n      pop\n        /* \"#utility.yul\":30623:30632   */\n      dup2\n        /* \"#utility.yul\":30617:30621   */\n      dup2\n        /* \"#utility.yul\":30613:30633   */\n      sub\n        /* \"#utility.yul\":30609:30610   */\n      0x00\n        /* \"#utility.yul\":30598:30607   */\n      dup4\n        /* \"#utility.yul\":30594:30611   */\n      add\n        /* \"#utility.yul\":30587:30634   */\n      mstore\n        /* \"#utility.yul\":30651:30782   */\n      tag_650\n        /* \"#utility.yul\":30777:30781   */\n      dup2\n        /* \"#utility.yul\":30651:30782   */\n      tag_359\n      jump\t// in\n    tag_650:\n        /* \"#utility.yul\":30643:30782   */\n      swap1\n      pop\n        /* \"#utility.yul\":30370:30789   */\n      swap2\n      swap1\n      pop\n      jump\t// out\n        /* \"#utility.yul\":30795:30889   */\n    tag_360:\n        /* \"#utility.yul\":30849:30856   */\n      0x00\n        /* \"#utility.yul\":30878:30883   */\n      dup2\n        /* \"#utility.yul\":30867:30883   */\n      swap1\n      pop\n        /* \"#utility.yul\":30795:30889   */\n      swap2\n      swap1\n      pop\n      jump\t// out\n        /* \"#utility.yul\":30895:31044   */\n    tag_361:\n        /* \"#utility.yul\":30931:30938   */\n      0x00\n        /* \"#utility.yul\":30971:31037   */\n      0xffffffff00000000000000000000000000000000000000000000000000000000\n        /* \"#utility.yul\":30964:30969   */\n      dup3\n        /* \"#utility.yul\":30960:31038   */\n      and\n        /* \"#utility.yul\":30949:31038   */\n      swap1\n      pop\n        /* \"#utility.yul\":30895:31044   */\n      swap2\n      swap1\n      pop\n      jump\t// out\n        /* \"#utility.yul\":31050:31146   */\n    tag_362:\n        /* \"#utility.yul\":31084:31092   */\n      0x00\n        /* \"#utility.yul\":31133:31138   */\n      dup2\n        /* \"#utility.yul\":31128:31131   */\n      0xe0\n        /* \"#utility.yul\":31124:31139   */\n      shl\n        /* \"#utility.yul\":31103:31139   */\n      swap1\n      pop\n        /* \"#utility.yul\":31050:31146   */\n      swap2\n      swap1\n      pop\n      jump\t// out\n        /* \"#utility.yul\":31152:31332   */\n    tag_363:\n        /* \"#utility.yul\":31218:31227   */\n      0x00\n        /* \"#utility.yul\":31251:31326   */\n      tag_655\n        /* \"#utility.yul\":31268:31325   */\n      tag_656\n        /* \"#utility.yul\":31283:31324   */\n      tag_657\n        /* \"#utility.yul\":31318:31323   */\n      dup5\n        /* \"#utility.yul\":31283:31324   */\n      tag_360\n      jump\t// in\n    tag_657:\n        /* \"#utility.yul\":31268:31325   */\n      tag_362\n      jump\t// in\n    tag_656:\n        /* \"#utility.yul\":31251:31326   */\n      tag_361\n      jump\t// in\n    tag_655:\n        /* \"#utility.yul\":31238:31326   */\n      swap1\n      pop\n        /* \"#utility.yul\":31152:31332   */\n      swap2\n      swap1\n      pop\n      jump\t// out\n        /* \"#utility.yul\":31338:31501   */\n    tag_364:\n        /* \"#utility.yul\":31441:31494   */\n      tag_659\n        /* \"#utility.yul\":31488:31493   */\n      dup2\n        /* \"#utility.yul\":31441:31494   */\n      tag_363\n      jump\t// in\n    tag_659:\n        /* \"#utility.yul\":31436:31439   */\n      dup3\n        /* \"#utility.yul\":31429:31495   */\n      mstore\n        /* \"#utility.yul\":31338:31501   */\n      pop\n      pop\n      jump\t// out\n        /* \"#utility.yul\":31507:31761   */\n    tag_242:\n        /* \"#utility.yul\":31616:31620   */\n      0x00\n        /* \"#utility.yul\":31654:31656   */\n      0x20\n        /* \"#utility.yul\":31643:31652   */\n      dup3\n        /* \"#utility.yul\":31639:31657   */\n      add\n        /* \"#utility.yul\":31631:31657   */\n      swap1\n      pop\n        /* \"#utility.yul\":31667:31754   */\n      tag_661\n        /* \"#utility.yul\":31751:31752   */\n      0x00\n        /* \"#utility.yul\":31740:31749   */\n      dup4\n        /* \"#utility.yul\":31736:31753   */\n      add\n        /* \"#utility.yul\":31727:31733   */\n      dup5\n        /* \"#utility.yul\":31667:31754   */\n      tag_364\n      jump\t// in\n    tag_661:\n        /* \"#utility.yul\":31507:31761   */\n      swap3\n      swap2\n      pop\n      pop\n      jump\t// out\n        /* \"#utility.yul\":31767:31883   */\n    tag_365:\n        /* \"#utility.yul\":31837:31858   */\n      tag_663\n        /* \"#utility.yul\":31852:31857   */\n      dup2\n        /* \"#utility.yul\":31837:31858   */\n      tag_306\n      jump\t// in\n    tag_663:\n        /* \"#utility.yul\":31830:31835   */\n      dup2\n        /* \"#utility.yul\":31827:31859   */\n      eq\n        /* \"#utility.yul\":31817:31877   */\n      tag_664\n      jumpi\n        /* \"#utility.yul\":31873:31874   */\n      0x00\n        /* \"#utility.yul\":31870:31871   */\n      dup1\n        /* \"#utility.yul\":31863:31875   */\n      revert\n        /* \"#utility.yul\":31817:31877   */\n    tag_664:\n        /* \"#utility.yul\":31767:31883   */\n      pop\n      jump\t// out\n        /* \"#utility.yul\":31889:32026   */\n    tag_366:\n        /* \"#utility.yul\":31943:31948   */\n      0x00\n        /* \"#utility.yul\":31974:31980   */\n      dup2\n        /* \"#utility.yul\":31968:31981   */\n      mload\n        /* \"#utility.yul\":31959:31981   */\n      swap1\n      pop\n        /* \"#utility.yul\":31990:32020   */\n      tag_666\n        /* \"#utility.yul\":32014:32019   */\n      dup2\n        /* \"#utility.yul\":31990:32020   */\n      tag_365\n      jump\t// in\n    tag_666:\n        /* \"#utility.yul\":31889:32026   */\n      swap3\n      swap2\n      pop\n      pop\n      jump\t// out\n        /* \"#utility.yul\":32032:32377   */\n    tag_246:\n        /* \"#utility.yul\":32099:32105   */\n      0x00\n        /* \"#utility.yul\":32148:32150   */\n      0x20\n        /* \"#utility.yul\":32136:32145   */\n      dup3\n        /* \"#utility.yul\":32127:32134   */\n      dup5\n        /* \"#utility.yul\":32123:32146   */\n      sub\n        /* \"#utility.yul\":32119:32151   */\n      slt\n        /* \"#utility.yul\":32116:32235   */\n      iszero\n      tag_668\n      jumpi\n        /* \"#utility.yul\":32154:32233   */\n      tag_669\n      tag_290\n      jump\t// in\n    tag_669:\n        /* \"#utility.yul\":32116:32235   */\n    tag_668:\n        /* \"#utility.yul\":32274:32275   */\n      0x00\n        /* \"#utility.yul\":32299:32360   */\n      tag_670\n        /* \"#utility.yul\":32352:32359   */\n      dup5\n        /* \"#utility.yul\":32343:32349   */\n      dup3\n        /* \"#utility.yul\":32332:32341   */\n      dup6\n        /* \"#utility.yul\":32328:32350   */\n      add\n        /* \"#utility.yul\":32299:32360   */\n      tag_366\n      jump\t// in\n    tag_670:\n        /* \"#utility.yul\":32289:32360   */\n      swap2\n      pop\n        /* \"#utility.yul\":32245:32370   */\n      pop\n        /* \"#utility.yul\":32032:32377   */\n      swap3\n      swap2\n      pop\n      pop\n      jump\t// out\n        /* \"#utility.yul\":32383:32543   */\n    tag_367:\n        /* \"#utility.yul\":32523:32535   */\n      0x4e6f6e2d65726337323100000000000000000000000000000000000000000000\n        /* \"#utility.yul\":32519:32520   */\n      0x00\n        /* \"#utility.yul\":32511:32517   */\n      dup3\n        /* \"#utility.yul\":32507:32521   */\n      add\n        /* \"#utility.yul\":32500:32536   */\n      mstore\n        /* \"#utility.yul\":32383:32543   */\n      pop\n      jump\t// out\n        /* \"#utility.yul\":32549:32915   */\n    tag_368:\n        /* \"#utility.yul\":32691:32694   */\n      0x00\n        /* \"#utility.yul\":32712:32779   */\n      tag_673\n        /* \"#utility.yul\":32776:32778   */\n      0x0a\n        /* \"#utility.yul\":32771:32774   */\n      dup4\n        /* \"#utility.yul\":32712:32779   */\n      tag_327\n      jump\t// in\n    tag_673:\n        /* \"#utility.yul\":32705:32779   */\n      swap2\n      pop\n        /* \"#utility.yul\":32788:32881   */\n      tag_674\n        /* \"#utility.yul\":32877:32880   */\n      dup3\n        /* \"#utility.yul\":32788:32881   */\n      tag_367\n      jump\t// in\n    tag_674:\n        /* \"#utility.yul\":32906:32908   */\n      0x20\n        /* \"#utility.yul\":32901:32904   */\n      dup3\n        /* \"#utility.yul\":32897:32909   */\n      add\n        /* \"#utility.yul\":32890:32909   */\n      swap1\n      pop\n        /* \"#utility.yul\":32549:32915   */\n      swap2\n      swap1\n      pop\n      jump\t// out\n        /* \"#utility.yul\":32921:33340   */\n    tag_249:\n        /* \"#utility.yul\":33087:33091   */\n      0x00\n        /* \"#utility.yul\":33125:33127   */\n      0x20\n        /* \"#utility.yul\":33114:33123   */\n      dup3\n        /* \"#utility.yul\":33110:33128   */\n      add\n        /* \"#utility.yul\":33102:33128   */\n      swap1\n      pop\n        /* \"#utility.yul\":33174:33183   */\n      dup2\n        /* \"#utility.yul\":33168:33172   */\n      dup2\n        /* \"#utility.yul\":33164:33184   */\n      sub\n        /* \"#utility.yul\":33160:33161   */\n      0x00\n        /* \"#utility.yul\":33149:33158   */\n      dup4\n        /* \"#utility.yul\":33145:33162   */\n      add\n        /* \"#utility.yul\":33138:33185   */\n      mstore\n        /* \"#utility.yul\":33202:33333   */\n      tag_676\n        /* \"#utility.yul\":33328:33332   */\n      dup2\n        /* \"#utility.yul\":33202:33333   */\n      tag_368\n      jump\t// in\n    tag_676:\n        /* \"#utility.yul\":33194:33333   */\n      swap1\n      pop\n        /* \"#utility.yul\":32921:33340   */\n      swap2\n      swap1\n      pop\n      jump\t// out\n        /* \"#utility.yul\":33346:33571   */\n    tag_369:\n        /* \"#utility.yul\":33486:33520   */\n      0x4f776e61626c653a206e6577206f776e657220697320746865207a65726f2061\n        /* \"#utility.yul\":33482:33483   */\n      0x00\n        /* \"#utility.yul\":33474:33480   */\n      dup3\n        /* \"#utility.yul\":33470:33484   */\n      add\n        /* \"#utility.yul\":33463:33521   */\n      mstore\n        /* \"#utility.yul\":33555:33563   */\n      0x6464726573730000000000000000000000000000000000000000000000000000\n        /* \"#utility.yul\":33550:33552   */\n      0x20\n        /* \"#utility.yul\":33542:33548   */\n      dup3\n        /* \"#utility.yul\":33538:33553   */\n      add\n        /* \"#utility.yul\":33531:33564   */\n      mstore\n        /* \"#utility.yul\":33346:33571   */\n      pop\n      jump\t// out\n        /* \"#utility.yul\":33577:33943   */\n    tag_370:\n        /* \"#utility.yul\":33719:33722   */\n      0x00\n        /* \"#utility.yul\":33740:33807   */\n      tag_679\n        /* \"#utility.yul\":33804:33806   */\n      0x26\n        /* \"#utility.yul\":33799:33802   */\n      dup4\n        /* \"#utility.yul\":33740:33807   */\n      tag_327\n      jump\t// in\n    tag_679:\n        /* \"#utility.yul\":33733:33807   */\n      swap2\n      pop\n        /* \"#utility.yul\":33816:33909   */\n      tag_680\n        /* \"#utility.yul\":33905:33908   */\n      dup3\n        /* \"#utility.yul\":33816:33909   */\n      tag_369\n      jump\t// in\n    tag_680:\n        /* \"#utility.yul\":33934:33936   */\n      0x40\n        /* \"#utility.yul\":33929:33932   */\n      dup3\n        /* \"#utility.yul\":33925:33937   */\n      add\n        /* \"#utility.yul\":33918:33937   */\n      swap1\n      pop\n        /* \"#utility.yul\":33577:33943   */\n      swap2\n      swap1\n      pop\n      jump\t// out\n        /* \"#utility.yul\":33949:34368   */\n    tag_268:\n        /* \"#utility.yul\":34115:34119   */\n      0x00\n        /* \"#utility.yul\":34153:34155   */\n      0x20\n        /* \"#utility.yul\":34142:34151   */\n      dup3\n        /* \"#utility.yul\":34138:34156   */\n      add\n        /* \"#utility.yul\":34130:34156   */\n      swap1\n      pop\n        /* \"#utility.yul\":34202:34211   */\n      dup2\n        /* \"#utility.yul\":34196:34200   */\n      dup2\n        /* \"#utility.yul\":34192:34212   */\n      sub\n        /* \"#utility.yul\":34188:34189   */\n      0x00\n        /* \"#utility.yul\":34177:34186   */\n      dup4\n        /* \"#utility.yul\":34173:34190   */\n      add\n        /* \"#utility.yul\":34166:34213   */\n      mstore\n        /* \"#utility.yul\":34230:34361   */\n      tag_682\n        /* \"#utility.yul\":34356:34360   */\n      dup2\n        /* \"#utility.yul\":34230:34361   */\n      tag_370\n      jump\t// in\n    tag_682:\n        /* \"#utility.yul\":34222:34361   */\n      swap1\n      pop\n        /* \"#utility.yul\":33949:34368   */\n      swap2\n      swap1\n      pop\n      jump\t// out\n        /* \"#utility.yul\":34374:34722   */\n    tag_277:\n        /* \"#utility.yul\":34414:34421   */\n      0x00\n        /* \"#utility.yul\":34437:34457   */\n      tag_684\n        /* \"#utility.yul\":34455:34456   */\n      dup3\n        /* \"#utility.yul\":34437:34457   */\n      tag_301\n      jump\t// in\n    tag_684:\n        /* \"#utility.yul\":34432:34457   */\n      swap2\n      pop\n        /* \"#utility.yul\":34471:34491   */\n      tag_685\n        /* \"#utility.yul\":34489:34490   */\n      dup4\n        /* \"#utility.yul\":34471:34491   */\n      tag_301\n      jump\t// in\n    tag_685:\n        /* \"#utility.yul\":34466:34491   */\n      swap3\n      pop\n        /* \"#utility.yul\":34659:34660   */\n      dup2\n        /* \"#utility.yul\":34591:34657   */\n      0xffffffffffffffffffffffffffffffffffffffffffffffffffffffffffffffff\n        /* \"#utility.yul\":34587:34661   */\n      div\n        /* \"#utility.yul\":34584:34585   */\n      dup4\n        /* \"#utility.yul\":34581:34662   */\n      gt\n        /* \"#utility.yul\":34576:34577   */\n      dup3\n        /* \"#utility.yul\":34569:34578   */\n      iszero\n        /* \"#utility.yul\":34562:34579   */\n      iszero\n        /* \"#utility.yul\":34558:34663   */\n      and\n        /* \"#utility.yul\":34555:34686   */\n      iszero\n      tag_686\n      jumpi\n        /* \"#utility.yul\":34666:34684   */\n      tag_687\n      tag_338\n      jump\t// in\n    tag_687:\n        /* \"#utility.yul\":34555:34686   */\n    tag_686:\n        /* \"#utility.yul\":34714:34715   */\n      dup3\n        /* \"#utility.yul\":34711:34712   */\n      dup3\n        /* \"#utility.yul\":34707:34716   */\n      mul\n        /* \"#utility.yul\":34696:34716   */\n      swap1\n      pop\n        /* \"#utility.yul\":34374:34722   */\n      swap3\n      swap2\n      pop\n      pop\n      jump\t// out\n        /* \"#utility.yul\":34728:34908   */\n    tag_371:\n        /* \"#utility.yul\":34776:34853   */\n      0x4e487b7100000000000000000000000000000000000000000000000000000000\n        /* \"#utility.yul\":34773:34774   */\n      0x00\n        /* \"#utility.yul\":34766:34854   */\n      mstore\n        /* \"#utility.yul\":34873:34877   */\n      0x12\n        /* \"#utility.yul\":34870:34871   */\n      0x04\n        /* \"#utility.yul\":34863:34878   */\n      mstore\n        /* \"#utility.yul\":34897:34901   */\n      0x24\n        /* \"#utility.yul\":34894:34895   */\n      0x00\n        /* \"#utility.yul\":34887:34902   */\n      revert\n        /* \"#utility.yul\":34914:35099   */\n    tag_279:\n        /* \"#utility.yul\":34954:34955   */\n      0x00\n        /* \"#utility.yul\":34971:34991   */\n      tag_690\n        /* \"#utility.yul\":34989:34990   */\n      dup3\n        /* \"#utility.yul\":34971:34991   */\n      tag_301\n      jump\t// in\n    tag_690:\n        /* \"#utility.yul\":34966:34991   */\n      swap2\n      pop\n        /* \"#utility.yul\":35005:35025   */\n      tag_691\n        /* \"#utility.yul\":35023:35024   */\n      dup4\n        /* \"#utility.yul\":35005:35025   */\n      tag_301\n      jump\t// in\n    tag_691:\n        /* \"#utility.yul\":35000:35025   */\n      swap3\n      pop\n        /* \"#utility.yul\":35044:35045   */\n      dup3\n        /* \"#utility.yul\":35034:35069   */\n      tag_692\n      jumpi\n        /* \"#utility.yul\":35049:35067   */\n      tag_693\n      tag_371\n      jump\t// in\n    tag_693:\n        /* \"#utility.yul\":35034:35069   */\n    tag_692:\n        /* \"#utility.yul\":35091:35092   */\n      dup3\n        /* \"#utility.yul\":35088:35089   */\n      dup3\n        /* \"#utility.yul\":35084:35093   */\n      div\n        /* \"#utility.yul\":35079:35093   */\n      swap1\n      pop\n        /* \"#utility.yul\":34914:35099   */\n      swap3\n      swap2\n      pop\n      pop\n      jump\t// out\n        /* \"#utility.yul\":35105:35287   */\n    tag_372:\n        /* \"#utility.yul\":35245:35279   */\n      0x4f776e61626c653a2063616c6c6572206973206e6f7420746865206f776e6572\n        /* \"#utility.yul\":35241:35242   */\n      0x00\n        /* \"#utility.yul\":35233:35239   */\n      dup3\n        /* \"#utility.yul\":35229:35243   */\n      add\n        /* \"#utility.yul\":35222:35280   */\n      mstore\n        /* \"#utility.yul\":35105:35287   */\n      pop\n      jump\t// out\n        /* \"#utility.yul\":35293:35659   */\n    tag_373:\n        /* \"#utility.yul\":35435:35438   */\n      0x00\n        /* \"#utility.yul\":35456:35523   */\n      tag_696\n        /* \"#utility.yul\":35520:35522   */\n      0x20\n        /* \"#utility.yul\":35515:35518   */\n      dup4\n        /* \"#utility.yul\":35456:35523   */\n      tag_327\n      jump\t// in\n    tag_696:\n        /* \"#utility.yul\":35449:35523   */\n      swap2\n      pop\n        /* \"#utility.yul\":35532:35625   */\n      tag_697\n        /* \"#utility.yul\":35621:35624   */\n      dup3\n        /* \"#utility.yul\":35532:35625   */\n      tag_372\n      jump\t// in\n    tag_697:\n        /* \"#utility.yul\":35650:35652   */\n      0x20\n        /* \"#utility.yul\":35645:35648   */\n      dup3\n        /* \"#utility.yul\":35641:35653   */\n      add\n        /* \"#utility.yul\":35634:35653   */\n      swap1\n      pop\n        /* \"#utility.yul\":35293:35659   */\n      swap2\n      swap1\n      pop\n      jump\t// out\n        /* \"#utility.yul\":35665:36084   */\n    tag_286:\n        /* \"#utility.yul\":35831:35835   */\n      0x00\n        /* \"#utility.yul\":35869:35871   */\n      0x20\n        /* \"#utility.yul\":35858:35867   */\n      dup3\n        /* \"#utility.yul\":35854:35872   */\n      add\n        /* \"#utility.yul\":35846:35872   */\n      swap1\n      pop\n        /* \"#utility.yul\":35918:35927   */\n      dup2\n        /* \"#utility.yul\":35912:35916   */\n      dup2\n        /* \"#utility.yul\":35908:35928   */\n      sub\n        /* \"#utility.yul\":35904:35905   */\n      0x00\n        /* \"#utility.yul\":35893:35902   */\n      dup4\n        /* \"#utility.yul\":35889:35906   */\n      add\n        /* \"#utility.yul\":35882:35929   */\n      mstore\n        /* \"#utility.yul\":35946:36077   */\n      tag_699\n        /* \"#utility.yul\":36072:36076   */\n      dup2\n        /* \"#utility.yul\":35946:36077   */\n      tag_373\n      jump\t// in\n    tag_699:\n        /* \"#utility.yul\":35938:36077   */\n      swap1\n      pop\n        /* \"#utility.yul\":35665:36084   */\n      swap2\n      swap1\n      pop\n      jump\t// out\n\n    auxdata: 0xa264697066735822122042a530111a47cdabbd7aec6ecae91a8f9f9c5ee3ec0885f07556e73becdadad164736f6c63430008100033\n}\n",
				"bytecode": {
					"linkReferences": {},
					"object": "60806040523480156200001157600080fd5b50604051620034dc380380620034dc8339818101604052810190620000379190620001c6565b620000576200004b620000ba60201b60201c565b620000c260201b60201c565b6001808190555060008211620000a4576040517f08c379a00000000000000000000000000000000000000000000000000000000081526004016200009b906200026e565b60405180910390fd5b8160028190555080600581905550505062000290565b600033905090565b60008060009054906101000a900473ffffffffffffffffffffffffffffffffffffffff169050816000806101000a81548173ffffffffffffffffffffffffffffffffffffffff021916908373ffffffffffffffffffffffffffffffffffffffff1602179055508173ffffffffffffffffffffffffffffffffffffffff168173ffffffffffffffffffffffffffffffffffffffff167f8be0079c531659141344cd1fd0a4f28419497f9722a3daafe3b4186f6b6457e060405160405180910390a35050565b600080fd5b6000819050919050565b620001a0816200018b565b8114620001ac57600080fd5b50565b600081519050620001c08162000195565b92915050565b60008060408385031215620001e057620001df62000186565b5b6000620001f085828601620001af565b92505060206200020385828601620001af565b9150509250929050565b600082825260208201905092915050565b7f496e76616c6964206c6f636b20706572696f6400000000000000000000000000600082015250565b6000620002566013836200020d565b915062000263826200021e565b602082019050919050565b60006020820190508181036000830152620002898162000247565b9050919050565b61323c80620002a06000396000f3fe608060405234801561001057600080fd5b50600436106100cf5760003560e01c80639f3625f01161008c578063c69d192311610066578063c69d1923146101ee578063e9545b921461020c578063eee00ed01461023e578063f2fde38b1461025a576100cf565b80639f3625f01461016e578063b2520a7c1461018a578063b33068c4146101be576100cf565b80630520537f146100d45780631902732e146100f05780633fd8b02f1461010c578063715018a61461012a578063779972da146101345780638da5cb5b14610150575b600080fd5b6100ee60048036038101906100e9919061209b565b610276565b005b61010a6004803603810190610105919061209b565b6108c2565b005b610114610e7e565b6040516101219190612114565b60405180910390f35b610132610e84565b005b61014e6004803603810190610149919061215b565b610e98565b005b610158610f24565b6040516101659190612197565b60405180910390f35b6101886004803603810190610183919061209b565b610f4d565b005b6101a4600480360381019061019f91906121b2565b6116e4565b6040516101b595949392919061226c565b60405180910390f35b6101d860048036038101906101d391906122bf565b611774565b6040516101e59190612114565b60405180910390f35b6101f66117d2565b6040516102039190612114565b60405180910390f35b610226600480360381019061022191906122ff565b6117d8565b6040516102359392919061234d565b60405180910390f35b610258600480360381019061025391906125c2565b611822565b005b610274600480360381019061026f9190612699565b611be4565b005b6102953373ffffffffffffffffffffffffffffffffffffffff16611c67565b156102d5576040517f08c379a00000000000000000000000000000000000000000000000000000000081526004016102cc90612723565b60405180910390fd5b3273ffffffffffffffffffffffffffffffffffffffff163373ffffffffffffffffffffffffffffffffffffffff1614610343576040517f08c379a000000000000000000000000000000000000000000000000000000000815260040161033a9061278f565b60405180910390fd5b600073ffffffffffffffffffffffffffffffffffffffff16600460008373ffffffffffffffffffffffffffffffffffffffff1673ffffffffffffffffffffffffffffffffffffffff16815260200190815260200160002060000160009054906101000a900473ffffffffffffffffffffffffffffffffffffffff1673ffffffffffffffffffffffffffffffffffffffff1603610414576040517f08c379a000000000000000000000000000000000000000000000000000000000815260040161040b90612821565b60405180910390fd5b6000838390501161045a576040517f08c379a00000000000000000000000000000000000000000000000000000000081526004016104519061288d565b60405180910390fd5b600080600090505b84849050811015610869576000600360008573ffffffffffffffffffffffffffffffffffffffff1673ffffffffffffffffffffffffffffffffffffffff16815260200190815260200160002060008787858181106104c3576104c26128ad565b5b9050602002013581526020019081526020016000206040518060a00160405290816000820160009054906101000a900473ffffffffffffffffffffffffffffffffffffffff1673ffffffffffffffffffffffffffffffffffffffff1673ffffffffffffffffffffffffffffffffffffffff16815260200160018201548152602001600282015481526020016003820160009054906101000a900460ff161515151581526020016003820160019054906101000a900473ffffffffffffffffffffffffffffffffffffffff1673ffffffffffffffffffffffffffffffffffffffff1673ffffffffffffffffffffffffffffffffffffffff168152505090503373ffffffffffffffffffffffffffffffffffffffff16816000015173ffffffffffffffffffffffffffffffffffffffff1614610632576040517f08c379a000000000000000000000000000000000000000000000000000000000815260040161062990612928565b60405180910390fd5b4260025482602001516106459190612977565b10610685576040517f08c379a000000000000000000000000000000000000000000000000000000000815260040161067c906129f7565b60405180910390fd5b8060600151156106ca576040517f08c379a00000000000000000000000000000000000000000000000000000000081526004016106c190612a63565b60405180910390fd5b60006106ef8787858181106106e2576106e16128ad565b5b9050602002013586611c8a565b905060008260400151826107039190612a83565b9050600460008773ffffffffffffffffffffffffffffffffffffffff1673ffffffffffffffffffffffffffffffffffffffff16815260200190815260200160002060000160009054906101000a900473ffffffffffffffffffffffffffffffffffffffff1673ffffffffffffffffffffffffffffffffffffffff166340c10f1933836040518363ffffffff1660e01b81526004016107a2929190612ab7565b600060405180830381600087803b1580156107bc57600080fd5b505af11580156107d0573d6000803e3d6000fd5b5050505080856107e09190612977565b945081600360008873ffffffffffffffffffffffffffffffffffffffff1673ffffffffffffffffffffffffffffffffffffffff16815260200190815260200160002060008a8a88818110610837576108366128ad565b5b90506020020135815260200190815260200160002060020181905550505050808061086190612ae0565b915050610462565b503373ffffffffffffffffffffffffffffffffffffffff167f37826be3c26dbad83731f4b985f22fa9ef86b6d1974cd77208332b7f1f283c0c8585846040516108b493929190612ba3565b60405180910390a250505050565b6108e13373ffffffffffffffffffffffffffffffffffffffff16611c67565b15610921576040517f08c379a000000000000000000000000000000000000000000000000000000000815260040161091890612723565b60405180910390fd5b3273ffffffffffffffffffffffffffffffffffffffff163373ffffffffffffffffffffffffffffffffffffffff161461098f576040517f08c379a00000000000000000000000000000000000000000000000000000000081526004016109869061278f565b60405180910390fd5b6002600154036109d4576040517f08c379a00000000000000000000000000000000000000000000000000000000081526004016109cb90612c21565b60405180910390fd5b6002600181905550600073ffffffffffffffffffffffffffffffffffffffff16600460008373ffffffffffffffffffffffffffffffffffffffff1673ffffffffffffffffffffffffffffffffffffffff16815260200190815260200160002060000160009054906101000a900473ffffffffffffffffffffffffffffffffffffffff1673ffffffffffffffffffffffffffffffffffffffff1603610aad576040517f08c379a0000000000000000000000000000000000000000000000000000000008152600401610aa490612821565b60405180910390fd5b60008383905011610af3576040517f08c379a0000000000000000000000000000000000000000000000000000000008152600401610aea9061288d565b60405180910390fd5b60005b83839050811015610e21573373ffffffffffffffffffffffffffffffffffffffff168273ffffffffffffffffffffffffffffffffffffffff16636352211e868685818110610b4757610b466128ad565b5b905060200201356040518263ffffffff1660e01b8152600401610b6a9190612114565b602060405180830381865afa158015610b87573d6000803e3d6000fd5b505050506040513d601f19601f82011682018060405250810190610bab9190612c56565b73ffffffffffffffffffffffffffffffffffffffff1614610c01576040517f08c379a0000000000000000000000000000000000000000000000000000000008152600401610bf890612ccf565b60405180910390fd5b8173ffffffffffffffffffffffffffffffffffffffff166323b872dd3330878786818110610c3257610c316128ad565b5b905060200201356040518463ffffffff1660e01b8152600401610c5793929190612cef565b600060405180830381600087803b158015610c7157600080fd5b505af1158015610c85573d6000803e3d6000fd5b505050506040518060a001604052803373ffffffffffffffffffffffffffffffffffffffff168152602001428152602001600081526020016000151581526020018373ffffffffffffffffffffffffffffffffffffffff16815250600360008473ffffffffffffffffffffffffffffffffffffffff1673ffffffffffffffffffffffffffffffffffffffff1681526020019081526020016000206000868685818110610d3457610d336128ad565b5b90506020020135815260200190815260200160002060008201518160000160006101000a81548173ffffffffffffffffffffffffffffffffffffffff021916908373ffffffffffffffffffffffffffffffffffffffff160217905550602082015181600101556040820151816002015560608201518160030160006101000a81548160ff02191690831515021790555060808201518160030160016101000a81548173ffffffffffffffffffffffffffffffffffffffff021916908373ffffffffffffffffffffffffffffffffffffffff1602179055509050508080610e1990612ae0565b915050610af6565b503373ffffffffffffffffffffffffffffffffffffffff167f458be0227bccc9e803dec79bd16767eeaf9925d2ce708eeed7ae1f3621f968f98484604051610e6a929190612d26565b60405180910390a260018081905550505050565b60025481565b610e8c611e68565b610e966000611ee6565b565b610ea0611e68565b60008111610ee3576040517f08c379a0000000000000000000000000000000000000000000000000000000008152600401610eda90612d96565b60405180910390fd5b806002819055507f8249ec545e68f6f1e1230133ca48c704d831a7f8e635ded80f3dd9e99b09bb2f81604051610f199190612114565b60405180910390a150565b60008060009054906101000a900473ffffffffffffffffffffffffffffffffffffffff16905090565b610f6c3373ffffffffffffffffffffffffffffffffffffffff16611c67565b15610fac576040517f08c379a0000000000000000000000000000000000000000000000000000000008152600401610fa390612723565b60405180910390fd5b3273ffffffffffffffffffffffffffffffffffffffff163373ffffffffffffffffffffffffffffffffffffffff161461101a576040517f08c379a00000000000000000000000000000000000000000000000000000000081526004016110119061278f565b60405180910390fd5b60026001540361105f576040517f08c379a000000000000000000000000000000000000000000000000000000000815260040161105690612c21565b60405180910390fd5b6002600181905550600073ffffffffffffffffffffffffffffffffffffffff16600460008373ffffffffffffffffffffffffffffffffffffffff1673ffffffffffffffffffffffffffffffffffffffff16815260200190815260200160002060000160009054906101000a900473ffffffffffffffffffffffffffffffffffffffff1673ffffffffffffffffffffffffffffffffffffffff1603611138576040517f08c379a000000000000000000000000000000000000000000000000000000000815260040161112f90612821565b60405180910390fd5b6000838390501161117e576040517f08c379a00000000000000000000000000000000000000000000000000000000081526004016111759061288d565b60405180910390fd5b60005b83839050811015611687576000600360008473ffffffffffffffffffffffffffffffffffffffff1673ffffffffffffffffffffffffffffffffffffffff16815260200190815260200160002060008686858181106111e2576111e16128ad565b5b9050602002013581526020019081526020016000206040518060a00160405290816000820160009054906101000a900473ffffffffffffffffffffffffffffffffffffffff1673ffffffffffffffffffffffffffffffffffffffff1673ffffffffffffffffffffffffffffffffffffffff16815260200160018201548152602001600282015481526020016003820160009054906101000a900460ff161515151581526020016003820160019054906101000a900473ffffffffffffffffffffffffffffffffffffffff1673ffffffffffffffffffffffffffffffffffffffff1673ffffffffffffffffffffffffffffffffffffffff168152505090503373ffffffffffffffffffffffffffffffffffffffff16816000015173ffffffffffffffffffffffffffffffffffffffff1614611351576040517f08c379a000000000000000000000000000000000000000000000000000000000815260040161134890612928565b60405180910390fd5b4260025482602001516113649190612977565b106113a4576040517f08c379a000000000000000000000000000000000000000000000000000000000815260040161139b90612e02565b60405180910390fd5b8060600151156113e9576040517f08c379a00000000000000000000000000000000000000000000000000000000081526004016113e090612a63565b60405180910390fd5b8273ffffffffffffffffffffffffffffffffffffffff166323b872dd303388888781811061141a576114196128ad565b5b905060200201356040518463ffffffff1660e01b815260040161143f93929190612cef565b600060405180830381600087803b15801561145957600080fd5b505af115801561146d573d6000803e3d6000fd5b505050506000611496868685818110611489576114886128ad565b5b9050602002013585611c8a565b905060008260400151826114aa9190612a83565b9050600460008673ffffffffffffffffffffffffffffffffffffffff1673ffffffffffffffffffffffffffffffffffffffff16815260200190815260200160002060000160009054906101000a900473ffffffffffffffffffffffffffffffffffffffff1673ffffffffffffffffffffffffffffffffffffffff166340c10f1933836040518363ffffffff1660e01b8152600401611549929190612ab7565b600060405180830381600087803b15801561156357600080fd5b505af1158015611577573d6000803e3d6000fd5b5050505081600360008773ffffffffffffffffffffffffffffffffffffffff1673ffffffffffffffffffffffffffffffffffffffff16815260200190815260200160002060008989888181106115d0576115cf6128ad565b5b905060200201358152602001908152602001600020600201819055506001600360008773ffffffffffffffffffffffffffffffffffffffff1673ffffffffffffffffffffffffffffffffffffffff1681526020019081526020016000206000898988818110611642576116416128ad565b5b90506020020135815260200190815260200160002060030160006101000a81548160ff021916908315150217905550505050808061167f90612ae0565b915050611181565b503373ffffffffffffffffffffffffffffffffffffffff167f5cb48022479b9ac3bfb10a27965dc010acffc9fc1bc9a52f0b18975b944b54ca84846040516116d0929190612d26565b60405180910390a260018081905550505050565b6003602052816000526040600020602052806000526040600020600091509150508060000160009054906101000a900473ffffffffffffffffffffffffffffffffffffffff16908060010154908060020154908060030160009054906101000a900460ff16908060030160019054906101000a900473ffffffffffffffffffffffffffffffffffffffff16905085565b6000600360008373ffffffffffffffffffffffffffffffffffffffff1673ffffffffffffffffffffffffffffffffffffffff168152602001908152602001600020600084815260200190815260200160002060020154905092915050565b60055481565b60046020528060005260406000206000915090508060000160009054906101000a900473ffffffffffffffffffffffffffffffffffffffff16908060010154908060020154905083565b61182a611e68565b60005b8451811015611bdd57600073ffffffffffffffffffffffffffffffffffffffff16858281518110611861576118606128ad565b5b602002602001015173ffffffffffffffffffffffffffffffffffffffff16036118bf576040517f08c379a00000000000000000000000000000000000000000000000000000000081526004016118b690612e6e565b60405180910390fd5b600073ffffffffffffffffffffffffffffffffffffffff168482815181106118ea576118e96128ad565b5b602002602001015173ffffffffffffffffffffffffffffffffffffffff1603611948576040517f08c379a000000000000000000000000000000000000000000000000000000000815260040161193f90612eda565b60405180910390fd5b84818151811061195b5761195a6128ad565b5b602002602001015173ffffffffffffffffffffffffffffffffffffffff166301ffc9a76380ac58cd6040518263ffffffff1660e01b815260040161199f9190612f6e565b602060405180830381865afa1580156119bc573d6000803e3d6000fd5b505050506040513d601f19601f820116820180604052508101906119e09190612fb5565b611a1f576040517f08c379a0000000000000000000000000000000000000000000000000000000008152600401611a169061302e565b60405180910390fd5b838181518110611a3257611a316128ad565b5b602002602001015160046000878481518110611a5157611a506128ad565b5b602002602001015173ffffffffffffffffffffffffffffffffffffffff1673ffffffffffffffffffffffffffffffffffffffff16815260200190815260200160002060000160006101000a81548173ffffffffffffffffffffffffffffffffffffffff021916908373ffffffffffffffffffffffffffffffffffffffff160217905550828181518110611ae757611ae66128ad565b5b602002602001015160046000878481518110611b0657611b056128ad565b5b602002602001015173ffffffffffffffffffffffffffffffffffffffff1673ffffffffffffffffffffffffffffffffffffffff16815260200190815260200160002060010181905550818181518110611b6257611b616128ad565b5b602002602001015160046000878481518110611b8157611b806128ad565b5b602002602001015173ffffffffffffffffffffffffffffffffffffffff1673ffffffffffffffffffffffffffffffffffffffff168152602001908152602001600020600201819055508080611bd590612ae0565b91505061182d565b5050505050565b611bec611e68565b600073ffffffffffffffffffffffffffffffffffffffff168173ffffffffffffffffffffffffffffffffffffffff1603611c5b576040517f08c379a0000000000000000000000000000000000000000000000000000000008152600401611c52906130c0565b60405180910390fd5b611c6481611ee6565b50565b6000808273ffffffffffffffffffffffffffffffffffffffff163b119050919050565b600080600360008473ffffffffffffffffffffffffffffffffffffffff1673ffffffffffffffffffffffffffffffffffffffff16815260200190815260200160002060008581526020019081526020016000206040518060a00160405290816000820160009054906101000a900473ffffffffffffffffffffffffffffffffffffffff1673ffffffffffffffffffffffffffffffffffffffff1673ffffffffffffffffffffffffffffffffffffffff16815260200160018201548152602001600282015481526020016003820160009054906101000a900460ff161515151581526020016003820160019054906101000a900473ffffffffffffffffffffffffffffffffffffffff1673ffffffffffffffffffffffffffffffffffffffff1673ffffffffffffffffffffffffffffffffffffffff168152505090506000816020015142611dd79190612a83565b90506000600254821015611df15760009350505050611e62565b60055460025483611e029190612a83565b600460008873ffffffffffffffffffffffffffffffffffffffff1673ffffffffffffffffffffffffffffffffffffffff16815260200190815260200160002060010154611e4f91906130e0565b611e599190613169565b90508093505050505b92915050565b611e70611faa565b73ffffffffffffffffffffffffffffffffffffffff16611e8e610f24565b73ffffffffffffffffffffffffffffffffffffffff1614611ee4576040517f08c379a0000000000000000000000000000000000000000000000000000000008152600401611edb906131e6565b60405180910390fd5b565b60008060009054906101000a900473ffffffffffffffffffffffffffffffffffffffff169050816000806101000a81548173ffffffffffffffffffffffffffffffffffffffff021916908373ffffffffffffffffffffffffffffffffffffffff1602179055508173ffffffffffffffffffffffffffffffffffffffff168173ffffffffffffffffffffffffffffffffffffffff167f8be0079c531659141344cd1fd0a4f28419497f9722a3daafe3b4186f6b6457e060405160405180910390a35050565b600033905090565b6000604051905090565b600080fd5b600080fd5b600080fd5b600080fd5b600080fd5b60008083601f840112611feb57611fea611fc6565b5b8235905067ffffffffffffffff81111561200857612007611fcb565b5b60208301915083602082028301111561202457612023611fd0565b5b9250929050565b600073ffffffffffffffffffffffffffffffffffffffff82169050919050565b60006120568261202b565b9050919050565b60006120688261204b565b9050919050565b6120788161205d565b811461208357600080fd5b50565b6000813590506120958161206f565b92915050565b6000806000604084860312156120b4576120b3611fbc565b5b600084013567ffffffffffffffff8111156120d2576120d1611fc1565b5b6120de86828701611fd5565b935093505060206120f186828701612086565b9150509250925092565b6000819050919050565b61210e816120fb565b82525050565b60006020820190506121296000830184612105565b92915050565b612138816120fb565b811461214357600080fd5b50565b6000813590506121558161212f565b92915050565b60006020828403121561217157612170611fbc565b5b600061217f84828501612146565b91505092915050565b6121918161204b565b82525050565b60006020820190506121ac6000830184612188565b92915050565b600080604083850312156121c9576121c8611fbc565b5b60006121d785828601612086565b92505060206121e885828601612146565b9150509250929050565b60008115159050919050565b612207816121f2565b82525050565b6000819050919050565b600061223261222d6122288461202b565b61220d565b61202b565b9050919050565b600061224482612217565b9050919050565b600061225682612239565b9050919050565b6122668161224b565b82525050565b600060a0820190506122816000830188612188565b61228e6020830187612105565b61229b6040830186612105565b6122a860608301856121fe565b6122b5608083018461225d565b9695505050505050565b600080604083850312156122d6576122d5611fbc565b5b60006122e485828601612146565b92505060206122f585828601612086565b9150509250929050565b60006020828403121561231557612314611fbc565b5b600061232384828501612086565b91505092915050565b600061233782612239565b9050919050565b6123478161232c565b82525050565b6000606082019050612362600083018661233e565b61236f6020830185612105565b61237c6040830184612105565b949350505050565b6000601f19601f8301169050919050565b7f4e487b7100000000000000000000000000000000000000000000000000000000600052604160045260246000fd5b6123cd82612384565b810181811067ffffffffffffffff821117156123ec576123eb612395565b5b80604052505050565b60006123ff611fb2565b905061240b82826123c4565b919050565b600067ffffffffffffffff82111561242b5761242a612395565b5b602082029050602081019050919050565b6124458161204b565b811461245057600080fd5b50565b6000813590506124628161243c565b92915050565b600061247b61247684612410565b6123f5565b9050808382526020820190506020840283018581111561249e5761249d611fd0565b5b835b818110156124c757806124b38882612453565b8452602084019350506020810190506124a0565b5050509392505050565b600082601f8301126124e6576124e5611fc6565b5b81356124f6848260208601612468565b91505092915050565b600067ffffffffffffffff82111561251a57612519612395565b5b602082029050602081019050919050565b600061253e612539846124ff565b6123f5565b9050808382526020820190506020840283018581111561256157612560611fd0565b5b835b8181101561258a57806125768882612146565b845260208401935050602081019050612563565b5050509392505050565b600082601f8301126125a9576125a8611fc6565b5b81356125b984826020860161252b565b91505092915050565b600080600080608085870312156125dc576125db611fbc565b5b600085013567ffffffffffffffff8111156125fa576125f9611fc1565b5b612606878288016124d1565b945050602085013567ffffffffffffffff81111561262757612626611fc1565b5b612633878288016124d1565b935050604085013567ffffffffffffffff81111561265457612653611fc1565b5b61266087828801612594565b925050606085013567ffffffffffffffff81111561268157612680611fc1565b5b61268d87828801612594565b91505092959194509250565b6000602082840312156126af576126ae611fbc565b5b60006126bd84828501612453565b91505092915050565b600082825260208201905092915050565b7f436f6e7472616374206e6f7420616c6c6f776564000000000000000000000000600082015250565b600061270d6014836126c6565b9150612718826126d7565b602082019050919050565b6000602082019050818103600083015261273c81612700565b9050919050565b7f50726f787920636f6e7472616374206e6f7420616c6c6f776564000000000000600082015250565b6000612779601a836126c6565b915061278482612743565b602082019050919050565b600060208201905081810360008301526127a88161276c565b9050919050565b7f5374616b696e673a20526567697374657220636f6c6c656374696f6e2062792060008201527f6164645374616b696e674e667473000000000000000000000000000000000000602082015250565b600061280b602e836126c6565b9150612816826127af565b604082019050919050565b6000602082019050818103600083015261283a816127fe565b9050919050565b7f4e6f20746f6b656e730000000000000000000000000000000000000000000000600082015250565b60006128776009836126c6565b915061288282612841565b602082019050919050565b600060208201905081810360008301526128a68161286a565b9050919050565b7f4e487b7100000000000000000000000000000000000000000000000000000000600052603260045260246000fd5b7f4e6f74206120746f6b656e206f776e6572000000000000000000000000000000600082015250565b60006129126011836126c6565b915061291d826128dc565b602082019050919050565b6000602082019050818103600083015261294181612905565b9050919050565b7f4e487b7100000000000000000000000000000000000000000000000000000000600052601160045260246000fd5b6000612982826120fb565b915061298d836120fb565b92508282019050808211156129a5576129a4612948565b5b92915050565b7f4e6f742061626c6520746f20636c61696d207965740000000000000000000000600082015250565b60006129e16015836126c6565b91506129ec826129ab565b602082019050919050565b60006020820190508181036000830152612a10816129d4565b9050919050565b7f416c726561647920756e6c6f636b656400000000000000000000000000000000600082015250565b6000612a4d6010836126c6565b9150612a5882612a17565b602082019050919050565b60006020820190508181036000830152612a7c81612a40565b9050919050565b6000612a8e826120fb565b9150612a99836120fb565b9250828203905081811115612ab157612ab0612948565b5b92915050565b6000604082019050612acc6000830185612188565b612ad96020830184612105565b9392505050565b6000612aeb826120fb565b91507fffffffffffffffffffffffffffffffffffffffffffffffffffffffffffffffff8203612b1d57612b1c612948565b5b600182019050919050565b600082825260208201905092915050565b600080fd5b82818337505050565b6000612b538385612b28565b93507f07ffffffffffffffffffffffffffffffffffffffffffffffffffffffffffffff831115612b8657612b85612b39565b5b602083029250612b97838584612b3e565b82840190509392505050565b60006040820190508181036000830152612bbe818587612b47565b9050612bcd6020830184612105565b949350505050565b7f5265656e7472616e637947756172643a207265656e7472616e742063616c6c00600082015250565b6000612c0b601f836126c6565b9150612c1682612bd5565b602082019050919050565b60006020820190508181036000830152612c3a81612bfe565b9050919050565b600081519050612c508161243c565b92915050565b600060208284031215612c6c57612c6b611fbc565b5b6000612c7a84828501612c41565b91505092915050565b7f596f7520646f6e277420686f6c64207468697320746f6b656e00000000000000600082015250565b6000612cb96019836126c6565b9150612cc482612c83565b602082019050919050565b60006020820190508181036000830152612ce881612cac565b9050919050565b6000606082019050612d046000830186612188565b612d116020830185612188565b612d1e6040830184612105565b949350505050565b60006020820190508181036000830152612d41818486612b47565b90509392505050565b7f496e76616c6964206c6f636b20706572696f642e000000000000000000000000600082015250565b6000612d806014836126c6565b9150612d8b82612d4a565b602082019050919050565b60006020820190508181036000830152612daf81612d73565b9050919050565b7f4e6f742061626c6520746f20756e6c6f636b2079657400000000000000000000600082015250565b6000612dec6016836126c6565b9150612df782612db6565b602082019050919050565b60006020820190508181036000830152612e1b81612ddf565b9050919050565b7f496e76616c6964205374616b6520546f6b656e00000000000000000000000000600082015250565b6000612e586013836126c6565b9150612e6382612e22565b602082019050919050565b60006020820190508181036000830152612e8781612e4b565b9050919050565b7f496e76616c69642052657761726420546f6b656e000000000000000000000000600082015250565b6000612ec46014836126c6565b9150612ecf82612e8e565b602082019050919050565b60006020820190508181036000830152612ef381612eb7565b9050919050565b6000819050919050565b60007fffffffff0000000000000000000000000000000000000000000000000000000082169050919050565b60008160e01b9050919050565b6000612f58612f53612f4e84612efa565b612f30565b612f04565b9050919050565b612f6881612f3d565b82525050565b6000602082019050612f836000830184612f5f565b92915050565b612f92816121f2565b8114612f9d57600080fd5b50565b600081519050612faf81612f89565b92915050565b600060208284031215612fcb57612fca611fbc565b5b6000612fd984828501612fa0565b91505092915050565b7f4e6f6e2d65726337323100000000000000000000000000000000000000000000600082015250565b6000613018600a836126c6565b915061302382612fe2565b602082019050919050565b600060208201905081810360008301526130478161300b565b9050919050565b7f4f776e61626c653a206e6577206f776e657220697320746865207a65726f206160008201527f6464726573730000000000000000000000000000000000000000000000000000602082015250565b60006130aa6026836126c6565b91506130b58261304e565b604082019050919050565b600060208201905081810360008301526130d98161309d565b9050919050565b60006130eb826120fb565b91506130f6836120fb565b9250817fffffffffffffffffffffffffffffffffffffffffffffffffffffffffffffffff048311821515161561312f5761312e612948565b5b828202905092915050565b7f4e487b7100000000000000000000000000000000000000000000000000000000600052601260045260246000fd5b6000613174826120fb565b915061317f836120fb565b92508261318f5761318e61313a565b5b828204905092915050565b7f4f776e61626c653a2063616c6c6572206973206e6f7420746865206f776e6572600082015250565b60006131d06020836126c6565b91506131db8261319a565b602082019050919050565b600060208201905081810360008301526131ff816131c3565b905091905056fea264697066735822122042a530111a47cdabbd7aec6ecae91a8f9f9c5ee3ec0885f07556e73becdadad164736f6c63430008100033",
					"opcodes": "PUSH1 0x80 PUSH1 0x40 MSTORE CALLVALUE DUP1 ISZERO PUSH3 0x11 JUMPI PUSH1 0x0 DUP1 REVERT JUMPDEST POP PUSH1 0x40 MLOAD PUSH3 0x34DC CODESIZE SUB DUP1 PUSH3 0x34DC DUP4 CODECOPY DUP2 DUP2 ADD PUSH1 0x40 MSTORE DUP2 ADD SWAP1 PUSH3 0x37 SWAP2 SWAP1 PUSH3 0x1C6 JUMP JUMPDEST PUSH3 0x57 PUSH3 0x4B PUSH3 0xBA PUSH1 0x20 SHL PUSH1 0x20 SHR JUMP JUMPDEST PUSH3 0xC2 PUSH1 0x20 SHL PUSH1 0x20 SHR JUMP JUMPDEST PUSH1 0x1 DUP1 DUP2 SWAP1 SSTORE POP PUSH1 0x0 DUP3 GT PUSH3 0xA4 JUMPI PUSH1 0x40 MLOAD PUSH32 0x8C379A000000000000000000000000000000000000000000000000000000000 DUP2 MSTORE PUSH1 0x4 ADD PUSH3 0x9B SWAP1 PUSH3 0x26E JUMP JUMPDEST PUSH1 0x40 MLOAD DUP1 SWAP2 SUB SWAP1 REVERT JUMPDEST DUP2 PUSH1 0x2 DUP2 SWAP1 SSTORE POP DUP1 PUSH1 0x5 DUP2 SWAP1 SSTORE POP POP POP PUSH3 0x290 JUMP JUMPDEST PUSH1 0x0 CALLER SWAP1 POP SWAP1 JUMP JUMPDEST PUSH1 0x0 DUP1 PUSH1 0x0 SWAP1 SLOAD SWAP1 PUSH2 0x100 EXP SWAP1 DIV PUSH20 0xFFFFFFFFFFFFFFFFFFFFFFFFFFFFFFFFFFFFFFFF AND SWAP1 POP DUP2 PUSH1 0x0 DUP1 PUSH2 0x100 EXP DUP2 SLOAD DUP2 PUSH20 0xFFFFFFFFFFFFFFFFFFFFFFFFFFFFFFFFFFFFFFFF MUL NOT AND SWAP1 DUP4 PUSH20 0xFFFFFFFFFFFFFFFFFFFFFFFFFFFFFFFFFFFFFFFF AND MUL OR SWAP1 SSTORE POP DUP2 PUSH20 0xFFFFFFFFFFFFFFFFFFFFFFFFFFFFFFFFFFFFFFFF AND DUP2 PUSH20 0xFFFFFFFFFFFFFFFFFFFFFFFFFFFFFFFFFFFFFFFF AND PUSH32 0x8BE0079C531659141344CD1FD0A4F28419497F9722A3DAAFE3B4186F6B6457E0 PUSH1 0x40 MLOAD PUSH1 0x40 MLOAD DUP1 SWAP2 SUB SWAP1 LOG3 POP POP JUMP JUMPDEST PUSH1 0x0 DUP1 REVERT JUMPDEST PUSH1 0x0 DUP2 SWAP1 POP SWAP2 SWAP1 POP JUMP JUMPDEST PUSH3 0x1A0 DUP2 PUSH3 0x18B JUMP JUMPDEST DUP2 EQ PUSH3 0x1AC JUMPI PUSH1 0x0 DUP1 REVERT JUMPDEST POP JUMP JUMPDEST PUSH1 0x0 DUP2 MLOAD SWAP1 POP PUSH3 0x1C0 DUP2 PUSH3 0x195 JUMP JUMPDEST SWAP3 SWAP2 POP POP JUMP JUMPDEST PUSH1 0x0 DUP1 PUSH1 0x40 DUP4 DUP6 SUB SLT ISZERO PUSH3 0x1E0 JUMPI PUSH3 0x1DF PUSH3 0x186 JUMP JUMPDEST JUMPDEST PUSH1 0x0 PUSH3 0x1F0 DUP6 DUP3 DUP7 ADD PUSH3 0x1AF JUMP JUMPDEST SWAP3 POP POP PUSH1 0x20 PUSH3 0x203 DUP6 DUP3 DUP7 ADD PUSH3 0x1AF JUMP JUMPDEST SWAP2 POP POP SWAP3 POP SWAP3 SWAP1 POP JUMP JUMPDEST PUSH1 0x0 DUP3 DUP3 MSTORE PUSH1 0x20 DUP3 ADD SWAP1 POP SWAP3 SWAP2 POP POP JUMP JUMPDEST PUSH32 0x496E76616C6964206C6F636B20706572696F6400000000000000000000000000 PUSH1 0x0 DUP3 ADD MSTORE POP JUMP JUMPDEST PUSH1 0x0 PUSH3 0x256 PUSH1 0x13 DUP4 PUSH3 0x20D JUMP JUMPDEST SWAP2 POP PUSH3 0x263 DUP3 PUSH3 0x21E JUMP JUMPDEST PUSH1 0x20 DUP3 ADD SWAP1 POP SWAP2 SWAP1 POP JUMP JUMPDEST PUSH1 0x0 PUSH1 0x20 DUP3 ADD SWAP1 POP DUP2 DUP2 SUB PUSH1 0x0 DUP4 ADD MSTORE PUSH3 0x289 DUP2 PUSH3 0x247 JUMP JUMPDEST SWAP1 POP SWAP2 SWAP1 POP JUMP JUMPDEST PUSH2 0x323C DUP1 PUSH3 0x2A0 PUSH1 0x0 CODECOPY PUSH1 0x0 RETURN INVALID PUSH1 0x80 PUSH1 0x40 MSTORE CALLVALUE DUP1 ISZERO PUSH2 0x10 JUMPI PUSH1 0x0 DUP1 REVERT JUMPDEST POP PUSH1 0x4 CALLDATASIZE LT PUSH2 0xCF JUMPI PUSH1 0x0 CALLDATALOAD PUSH1 0xE0 SHR DUP1 PUSH4 0x9F3625F0 GT PUSH2 0x8C JUMPI DUP1 PUSH4 0xC69D1923 GT PUSH2 0x66 JUMPI DUP1 PUSH4 0xC69D1923 EQ PUSH2 0x1EE JUMPI DUP1 PUSH4 0xE9545B92 EQ PUSH2 0x20C JUMPI DUP1 PUSH4 0xEEE00ED0 EQ PUSH2 0x23E JUMPI DUP1 PUSH4 0xF2FDE38B EQ PUSH2 0x25A JUMPI PUSH2 0xCF JUMP JUMPDEST DUP1 PUSH4 0x9F3625F0 EQ PUSH2 0x16E JUMPI DUP1 PUSH4 0xB2520A7C EQ PUSH2 0x18A JUMPI DUP1 PUSH4 0xB33068C4 EQ PUSH2 0x1BE JUMPI PUSH2 0xCF JUMP JUMPDEST DUP1 PUSH4 0x520537F EQ PUSH2 0xD4 JUMPI DUP1 PUSH4 0x1902732E EQ PUSH2 0xF0 JUMPI DUP1 PUSH4 0x3FD8B02F EQ PUSH2 0x10C JUMPI DUP1 PUSH4 0x715018A6 EQ PUSH2 0x12A JUMPI DUP1 PUSH4 0x779972DA EQ PUSH2 0x134 JUMPI DUP1 PUSH4 0x8DA5CB5B EQ PUSH2 0x150 JUMPI JUMPDEST PUSH1 0x0 DUP1 REVERT JUMPDEST PUSH2 0xEE PUSH1 0x4 DUP1 CALLDATASIZE SUB DUP2 ADD SWAP1 PUSH2 0xE9 SWAP2 SWAP1 PUSH2 0x209B JUMP JUMPDEST PUSH2 0x276 JUMP JUMPDEST STOP JUMPDEST PUSH2 0x10A PUSH1 0x4 DUP1 CALLDATASIZE SUB DUP2 ADD SWAP1 PUSH2 0x105 SWAP2 SWAP1 PUSH2 0x209B JUMP JUMPDEST PUSH2 0x8C2 JUMP JUMPDEST STOP JUMPDEST PUSH2 0x114 PUSH2 0xE7E JUMP JUMPDEST PUSH1 0x40 MLOAD PUSH2 0x121 SWAP2 SWAP1 PUSH2 0x2114 JUMP JUMPDEST PUSH1 0x40 MLOAD DUP1 SWAP2 SUB SWAP1 RETURN JUMPDEST PUSH2 0x132 PUSH2 0xE84 JUMP JUMPDEST STOP JUMPDEST PUSH2 0x14E PUSH1 0x4 DUP1 CALLDATASIZE SUB DUP2 ADD SWAP1 PUSH2 0x149 SWAP2 SWAP1 PUSH2 0x215B JUMP JUMPDEST PUSH2 0xE98 JUMP JUMPDEST STOP JUMPDEST PUSH2 0x158 PUSH2 0xF24 JUMP JUMPDEST PUSH1 0x40 MLOAD PUSH2 0x165 SWAP2 SWAP1 PUSH2 0x2197 JUMP JUMPDEST PUSH1 0x40 MLOAD DUP1 SWAP2 SUB SWAP1 RETURN JUMPDEST PUSH2 0x188 PUSH1 0x4 DUP1 CALLDATASIZE SUB DUP2 ADD SWAP1 PUSH2 0x183 SWAP2 SWAP1 PUSH2 0x209B JUMP JUMPDEST PUSH2 0xF4D JUMP JUMPDEST STOP JUMPDEST PUSH2 0x1A4 PUSH1 0x4 DUP1 CALLDATASIZE SUB DUP2 ADD SWAP1 PUSH2 0x19F SWAP2 SWAP1 PUSH2 0x21B2 JUMP JUMPDEST PUSH2 0x16E4 JUMP JUMPDEST PUSH1 0x40 MLOAD PUSH2 0x1B5 SWAP6 SWAP5 SWAP4 SWAP3 SWAP2 SWAP1 PUSH2 0x226C JUMP JUMPDEST PUSH1 0x40 MLOAD DUP1 SWAP2 SUB SWAP1 RETURN JUMPDEST PUSH2 0x1D8 PUSH1 0x4 DUP1 CALLDATASIZE SUB DUP2 ADD SWAP1 PUSH2 0x1D3 SWAP2 SWAP1 PUSH2 0x22BF JUMP JUMPDEST PUSH2 0x1774 JUMP JUMPDEST PUSH1 0x40 MLOAD PUSH2 0x1E5 SWAP2 SWAP1 PUSH2 0x2114 JUMP JUMPDEST PUSH1 0x40 MLOAD DUP1 SWAP2 SUB SWAP1 RETURN JUMPDEST PUSH2 0x1F6 PUSH2 0x17D2 JUMP JUMPDEST PUSH1 0x40 MLOAD PUSH2 0x203 SWAP2 SWAP1 PUSH2 0x2114 JUMP JUMPDEST PUSH1 0x40 MLOAD DUP1 SWAP2 SUB SWAP1 RETURN JUMPDEST PUSH2 0x226 PUSH1 0x4 DUP1 CALLDATASIZE SUB DUP2 ADD SWAP1 PUSH2 0x221 SWAP2 SWAP1 PUSH2 0x22FF JUMP JUMPDEST PUSH2 0x17D8 JUMP JUMPDEST PUSH1 0x40 MLOAD PUSH2 0x235 SWAP4 SWAP3 SWAP2 SWAP1 PUSH2 0x234D JUMP JUMPDEST PUSH1 0x40 MLOAD DUP1 SWAP2 SUB SWAP1 RETURN JUMPDEST PUSH2 0x258 PUSH1 0x4 DUP1 CALLDATASIZE SUB DUP2 ADD SWAP1 PUSH2 0x253 SWAP2 SWAP1 PUSH2 0x25C2 JUMP JUMPDEST PUSH2 0x1822 JUMP JUMPDEST STOP JUMPDEST PUSH2 0x274 PUSH1 0x4 DUP1 CALLDATASIZE SUB DUP2 ADD SWAP1 PUSH2 0x26F SWAP2 SWAP1 PUSH2 0x2699 JUMP JUMPDEST PUSH2 0x1BE4 JUMP JUMPDEST STOP JUMPDEST PUSH2 0x295 CALLER PUSH20 0xFFFFFFFFFFFFFFFFFFFFFFFFFFFFFFFFFFFFFFFF AND PUSH2 0x1C67 JUMP JUMPDEST ISZERO PUSH2 0x2D5 JUMPI PUSH1 0x40 MLOAD PUSH32 0x8C379A000000000000000000000000000000000000000000000000000000000 DUP2 MSTORE PUSH1 0x4 ADD PUSH2 0x2CC SWAP1 PUSH2 0x2723 JUMP JUMPDEST PUSH1 0x40 MLOAD DUP1 SWAP2 SUB SWAP1 REVERT JUMPDEST ORIGIN PUSH20 0xFFFFFFFFFFFFFFFFFFFFFFFFFFFFFFFFFFFFFFFF AND CALLER PUSH20 0xFFFFFFFFFFFFFFFFFFFFFFFFFFFFFFFFFFFFFFFF AND EQ PUSH2 0x343 JUMPI PUSH1 0x40 MLOAD PUSH32 0x8C379A000000000000000000000000000000000000000000000000000000000 DUP2 MSTORE PUSH1 0x4 ADD PUSH2 0x33A SWAP1 PUSH2 0x278F JUMP JUMPDEST PUSH1 0x40 MLOAD DUP1 SWAP2 SUB SWAP1 REVERT JUMPDEST PUSH1 0x0 PUSH20 0xFFFFFFFFFFFFFFFFFFFFFFFFFFFFFFFFFFFFFFFF AND PUSH1 0x4 PUSH1 0x0 DUP4 PUSH20 0xFFFFFFFFFFFFFFFFFFFFFFFFFFFFFFFFFFFFFFFF AND PUSH20 0xFFFFFFFFFFFFFFFFFFFFFFFFFFFFFFFFFFFFFFFF AND DUP2 MSTORE PUSH1 0x20 ADD SWAP1 DUP2 MSTORE PUSH1 0x20 ADD PUSH1 0x0 KECCAK256 PUSH1 0x0 ADD PUSH1 0x0 SWAP1 SLOAD SWAP1 PUSH2 0x100 EXP SWAP1 DIV PUSH20 0xFFFFFFFFFFFFFFFFFFFFFFFFFFFFFFFFFFFFFFFF AND PUSH20 0xFFFFFFFFFFFFFFFFFFFFFFFFFFFFFFFFFFFFFFFF AND SUB PUSH2 0x414 JUMPI PUSH1 0x40 MLOAD PUSH32 0x8C379A000000000000000000000000000000000000000000000000000000000 DUP2 MSTORE PUSH1 0x4 ADD PUSH2 0x40B SWAP1 PUSH2 0x2821 JUMP JUMPDEST PUSH1 0x40 MLOAD DUP1 SWAP2 SUB SWAP1 REVERT JUMPDEST PUSH1 0x0 DUP4 DUP4 SWAP1 POP GT PUSH2 0x45A JUMPI PUSH1 0x40 MLOAD PUSH32 0x8C379A000000000000000000000000000000000000000000000000000000000 DUP2 MSTORE PUSH1 0x4 ADD PUSH2 0x451 SWAP1 PUSH2 0x288D JUMP JUMPDEST PUSH1 0x40 MLOAD DUP1 SWAP2 SUB SWAP1 REVERT JUMPDEST PUSH1 0x0 DUP1 PUSH1 0x0 SWAP1 POP JUMPDEST DUP5 DUP5 SWAP1 POP DUP2 LT ISZERO PUSH2 0x869 JUMPI PUSH1 0x0 PUSH1 0x3 PUSH1 0x0 DUP6 PUSH20 0xFFFFFFFFFFFFFFFFFFFFFFFFFFFFFFFFFFFFFFFF AND PUSH20 0xFFFFFFFFFFFFFFFFFFFFFFFFFFFFFFFFFFFFFFFF AND DUP2 MSTORE PUSH1 0x20 ADD SWAP1 DUP2 MSTORE PUSH1 0x20 ADD PUSH1 0x0 KECCAK256 PUSH1 0x0 DUP8 DUP8 DUP6 DUP2 DUP2 LT PUSH2 0x4C3 JUMPI PUSH2 0x4C2 PUSH2 0x28AD JUMP JUMPDEST JUMPDEST SWAP1 POP PUSH1 0x20 MUL ADD CALLDATALOAD DUP2 MSTORE PUSH1 0x20 ADD SWAP1 DUP2 MSTORE PUSH1 0x20 ADD PUSH1 0x0 KECCAK256 PUSH1 0x40 MLOAD DUP1 PUSH1 0xA0 ADD PUSH1 0x40 MSTORE SWAP1 DUP2 PUSH1 0x0 DUP3 ADD PUSH1 0x0 SWAP1 SLOAD SWAP1 PUSH2 0x100 EXP SWAP1 DIV PUSH20 0xFFFFFFFFFFFFFFFFFFFFFFFFFFFFFFFFFFFFFFFF AND PUSH20 0xFFFFFFFFFFFFFFFFFFFFFFFFFFFFFFFFFFFFFFFF AND PUSH20 0xFFFFFFFFFFFFFFFFFFFFFFFFFFFFFFFFFFFFFFFF AND DUP2 MSTORE PUSH1 0x20 ADD PUSH1 0x1 DUP3 ADD SLOAD DUP2 MSTORE PUSH1 0x20 ADD PUSH1 0x2 DUP3 ADD SLOAD DUP2 MSTORE PUSH1 0x20 ADD PUSH1 0x3 DUP3 ADD PUSH1 0x0 SWAP1 SLOAD SWAP1 PUSH2 0x100 EXP SWAP1 DIV PUSH1 0xFF AND ISZERO ISZERO ISZERO ISZERO DUP2 MSTORE PUSH1 0x20 ADD PUSH1 0x3 DUP3 ADD PUSH1 0x1 SWAP1 SLOAD SWAP1 PUSH2 0x100 EXP SWAP1 DIV PUSH20 0xFFFFFFFFFFFFFFFFFFFFFFFFFFFFFFFFFFFFFFFF AND PUSH20 0xFFFFFFFFFFFFFFFFFFFFFFFFFFFFFFFFFFFFFFFF AND PUSH20 0xFFFFFFFFFFFFFFFFFFFFFFFFFFFFFFFFFFFFFFFF AND DUP2 MSTORE POP POP SWAP1 POP CALLER PUSH20 0xFFFFFFFFFFFFFFFFFFFFFFFFFFFFFFFFFFFFFFFF AND DUP2 PUSH1 0x0 ADD MLOAD PUSH20 0xFFFFFFFFFFFFFFFFFFFFFFFFFFFFFFFFFFFFFFFF AND EQ PUSH2 0x632 JUMPI PUSH1 0x40 MLOAD PUSH32 0x8C379A000000000000000000000000000000000000000000000000000000000 DUP2 MSTORE PUSH1 0x4 ADD PUSH2 0x629 SWAP1 PUSH2 0x2928 JUMP JUMPDEST PUSH1 0x40 MLOAD DUP1 SWAP2 SUB SWAP1 REVERT JUMPDEST TIMESTAMP PUSH1 0x2 SLOAD DUP3 PUSH1 0x20 ADD MLOAD PUSH2 0x645 SWAP2 SWAP1 PUSH2 0x2977 JUMP JUMPDEST LT PUSH2 0x685 JUMPI PUSH1 0x40 MLOAD PUSH32 0x8C379A000000000000000000000000000000000000000000000000000000000 DUP2 MSTORE PUSH1 0x4 ADD PUSH2 0x67C SWAP1 PUSH2 0x29F7 JUMP JUMPDEST PUSH1 0x40 MLOAD DUP1 SWAP2 SUB SWAP1 REVERT JUMPDEST DUP1 PUSH1 0x60 ADD MLOAD ISZERO PUSH2 0x6CA JUMPI PUSH1 0x40 MLOAD PUSH32 0x8C379A000000000000000000000000000000000000000000000000000000000 DUP2 MSTORE PUSH1 0x4 ADD PUSH2 0x6C1 SWAP1 PUSH2 0x2A63 JUMP JUMPDEST PUSH1 0x40 MLOAD DUP1 SWAP2 SUB SWAP1 REVERT JUMPDEST PUSH1 0x0 PUSH2 0x6EF DUP8 DUP8 DUP6 DUP2 DUP2 LT PUSH2 0x6E2 JUMPI PUSH2 0x6E1 PUSH2 0x28AD JUMP JUMPDEST JUMPDEST SWAP1 POP PUSH1 0x20 MUL ADD CALLDATALOAD DUP7 PUSH2 0x1C8A JUMP JUMPDEST SWAP1 POP PUSH1 0x0 DUP3 PUSH1 0x40 ADD MLOAD DUP3 PUSH2 0x703 SWAP2 SWAP1 PUSH2 0x2A83 JUMP JUMPDEST SWAP1 POP PUSH1 0x4 PUSH1 0x0 DUP8 PUSH20 0xFFFFFFFFFFFFFFFFFFFFFFFFFFFFFFFFFFFFFFFF AND PUSH20 0xFFFFFFFFFFFFFFFFFFFFFFFFFFFFFFFFFFFFFFFF AND DUP2 MSTORE PUSH1 0x20 ADD SWAP1 DUP2 MSTORE PUSH1 0x20 ADD PUSH1 0x0 KECCAK256 PUSH1 0x0 ADD PUSH1 0x0 SWAP1 SLOAD SWAP1 PUSH2 0x100 EXP SWAP1 DIV PUSH20 0xFFFFFFFFFFFFFFFFFFFFFFFFFFFFFFFFFFFFFFFF AND PUSH20 0xFFFFFFFFFFFFFFFFFFFFFFFFFFFFFFFFFFFFFFFF AND PUSH4 0x40C10F19 CALLER DUP4 PUSH1 0x40 MLOAD DUP4 PUSH4 0xFFFFFFFF AND PUSH1 0xE0 SHL DUP2 MSTORE PUSH1 0x4 ADD PUSH2 0x7A2 SWAP3 SWAP2 SWAP1 PUSH2 0x2AB7 JUMP JUMPDEST PUSH1 0x0 PUSH1 0x40 MLOAD DUP1 DUP4 SUB DUP2 PUSH1 0x0 DUP8 DUP1 EXTCODESIZE ISZERO DUP1 ISZERO PUSH2 0x7BC JUMPI PUSH1 0x0 DUP1 REVERT JUMPDEST POP GAS CALL ISZERO DUP1 ISZERO PUSH2 0x7D0 JUMPI RETURNDATASIZE PUSH1 0x0 DUP1 RETURNDATACOPY RETURNDATASIZE PUSH1 0x0 REVERT JUMPDEST POP POP POP POP DUP1 DUP6 PUSH2 0x7E0 SWAP2 SWAP1 PUSH2 0x2977 JUMP JUMPDEST SWAP5 POP DUP2 PUSH1 0x3 PUSH1 0x0 DUP9 PUSH20 0xFFFFFFFFFFFFFFFFFFFFFFFFFFFFFFFFFFFFFFFF AND PUSH20 0xFFFFFFFFFFFFFFFFFFFFFFFFFFFFFFFFFFFFFFFF AND DUP2 MSTORE PUSH1 0x20 ADD SWAP1 DUP2 MSTORE PUSH1 0x20 ADD PUSH1 0x0 KECCAK256 PUSH1 0x0 DUP11 DUP11 DUP9 DUP2 DUP2 LT PUSH2 0x837 JUMPI PUSH2 0x836 PUSH2 0x28AD JUMP JUMPDEST JUMPDEST SWAP1 POP PUSH1 0x20 MUL ADD CALLDATALOAD DUP2 MSTORE PUSH1 0x20 ADD SWAP1 DUP2 MSTORE PUSH1 0x20 ADD PUSH1 0x0 KECCAK256 PUSH1 0x2 ADD DUP2 SWAP1 SSTORE POP POP POP POP DUP1 DUP1 PUSH2 0x861 SWAP1 PUSH2 0x2AE0 JUMP JUMPDEST SWAP2 POP POP PUSH2 0x462 JUMP JUMPDEST POP CALLER PUSH20 0xFFFFFFFFFFFFFFFFFFFFFFFFFFFFFFFFFFFFFFFF AND PUSH32 0x37826BE3C26DBAD83731F4B985F22FA9EF86B6D1974CD77208332B7F1F283C0C DUP6 DUP6 DUP5 PUSH1 0x40 MLOAD PUSH2 0x8B4 SWAP4 SWAP3 SWAP2 SWAP1 PUSH2 0x2BA3 JUMP JUMPDEST PUSH1 0x40 MLOAD DUP1 SWAP2 SUB SWAP1 LOG2 POP POP POP POP JUMP JUMPDEST PUSH2 0x8E1 CALLER PUSH20 0xFFFFFFFFFFFFFFFFFFFFFFFFFFFFFFFFFFFFFFFF AND PUSH2 0x1C67 JUMP JUMPDEST ISZERO PUSH2 0x921 JUMPI PUSH1 0x40 MLOAD PUSH32 0x8C379A000000000000000000000000000000000000000000000000000000000 DUP2 MSTORE PUSH1 0x4 ADD PUSH2 0x918 SWAP1 PUSH2 0x2723 JUMP JUMPDEST PUSH1 0x40 MLOAD DUP1 SWAP2 SUB SWAP1 REVERT JUMPDEST ORIGIN PUSH20 0xFFFFFFFFFFFFFFFFFFFFFFFFFFFFFFFFFFFFFFFF AND CALLER PUSH20 0xFFFFFFFFFFFFFFFFFFFFFFFFFFFFFFFFFFFFFFFF AND EQ PUSH2 0x98F JUMPI PUSH1 0x40 MLOAD PUSH32 0x8C379A000000000000000000000000000000000000000000000000000000000 DUP2 MSTORE PUSH1 0x4 ADD PUSH2 0x986 SWAP1 PUSH2 0x278F JUMP JUMPDEST PUSH1 0x40 MLOAD DUP1 SWAP2 SUB SWAP1 REVERT JUMPDEST PUSH1 0x2 PUSH1 0x1 SLOAD SUB PUSH2 0x9D4 JUMPI PUSH1 0x40 MLOAD PUSH32 0x8C379A000000000000000000000000000000000000000000000000000000000 DUP2 MSTORE PUSH1 0x4 ADD PUSH2 0x9CB SWAP1 PUSH2 0x2C21 JUMP JUMPDEST PUSH1 0x40 MLOAD DUP1 SWAP2 SUB SWAP1 REVERT JUMPDEST PUSH1 0x2 PUSH1 0x1 DUP2 SWAP1 SSTORE POP PUSH1 0x0 PUSH20 0xFFFFFFFFFFFFFFFFFFFFFFFFFFFFFFFFFFFFFFFF AND PUSH1 0x4 PUSH1 0x0 DUP4 PUSH20 0xFFFFFFFFFFFFFFFFFFFFFFFFFFFFFFFFFFFFFFFF AND PUSH20 0xFFFFFFFFFFFFFFFFFFFFFFFFFFFFFFFFFFFFFFFF AND DUP2 MSTORE PUSH1 0x20 ADD SWAP1 DUP2 MSTORE PUSH1 0x20 ADD PUSH1 0x0 KECCAK256 PUSH1 0x0 ADD PUSH1 0x0 SWAP1 SLOAD SWAP1 PUSH2 0x100 EXP SWAP1 DIV PUSH20 0xFFFFFFFFFFFFFFFFFFFFFFFFFFFFFFFFFFFFFFFF AND PUSH20 0xFFFFFFFFFFFFFFFFFFFFFFFFFFFFFFFFFFFFFFFF AND SUB PUSH2 0xAAD JUMPI PUSH1 0x40 MLOAD PUSH32 0x8C379A000000000000000000000000000000000000000000000000000000000 DUP2 MSTORE PUSH1 0x4 ADD PUSH2 0xAA4 SWAP1 PUSH2 0x2821 JUMP JUMPDEST PUSH1 0x40 MLOAD DUP1 SWAP2 SUB SWAP1 REVERT JUMPDEST PUSH1 0x0 DUP4 DUP4 SWAP1 POP GT PUSH2 0xAF3 JUMPI PUSH1 0x40 MLOAD PUSH32 0x8C379A000000000000000000000000000000000000000000000000000000000 DUP2 MSTORE PUSH1 0x4 ADD PUSH2 0xAEA SWAP1 PUSH2 0x288D JUMP JUMPDEST PUSH1 0x40 MLOAD DUP1 SWAP2 SUB SWAP1 REVERT JUMPDEST PUSH1 0x0 JUMPDEST DUP4 DUP4 SWAP1 POP DUP2 LT ISZERO PUSH2 0xE21 JUMPI CALLER PUSH20 0xFFFFFFFFFFFFFFFFFFFFFFFFFFFFFFFFFFFFFFFF AND DUP3 PUSH20 0xFFFFFFFFFFFFFFFFFFFFFFFFFFFFFFFFFFFFFFFF AND PUSH4 0x6352211E DUP7 DUP7 DUP6 DUP2 DUP2 LT PUSH2 0xB47 JUMPI PUSH2 0xB46 PUSH2 0x28AD JUMP JUMPDEST JUMPDEST SWAP1 POP PUSH1 0x20 MUL ADD CALLDATALOAD PUSH1 0x40 MLOAD DUP3 PUSH4 0xFFFFFFFF AND PUSH1 0xE0 SHL DUP2 MSTORE PUSH1 0x4 ADD PUSH2 0xB6A SWAP2 SWAP1 PUSH2 0x2114 JUMP JUMPDEST PUSH1 0x20 PUSH1 0x40 MLOAD DUP1 DUP4 SUB DUP2 DUP7 GAS STATICCALL ISZERO DUP1 ISZERO PUSH2 0xB87 JUMPI RETURNDATASIZE PUSH1 0x0 DUP1 RETURNDATACOPY RETURNDATASIZE PUSH1 0x0 REVERT JUMPDEST POP POP POP POP PUSH1 0x40 MLOAD RETURNDATASIZE PUSH1 0x1F NOT PUSH1 0x1F DUP3 ADD AND DUP3 ADD DUP1 PUSH1 0x40 MSTORE POP DUP2 ADD SWAP1 PUSH2 0xBAB SWAP2 SWAP1 PUSH2 0x2C56 JUMP JUMPDEST PUSH20 0xFFFFFFFFFFFFFFFFFFFFFFFFFFFFFFFFFFFFFFFF AND EQ PUSH2 0xC01 JUMPI PUSH1 0x40 MLOAD PUSH32 0x8C379A000000000000000000000000000000000000000000000000000000000 DUP2 MSTORE PUSH1 0x4 ADD PUSH2 0xBF8 SWAP1 PUSH2 0x2CCF JUMP JUMPDEST PUSH1 0x40 MLOAD DUP1 SWAP2 SUB SWAP1 REVERT JUMPDEST DUP2 PUSH20 0xFFFFFFFFFFFFFFFFFFFFFFFFFFFFFFFFFFFFFFFF AND PUSH4 0x23B872DD CALLER ADDRESS DUP8 DUP8 DUP7 DUP2 DUP2 LT PUSH2 0xC32 JUMPI PUSH2 0xC31 PUSH2 0x28AD JUMP JUMPDEST JUMPDEST SWAP1 POP PUSH1 0x20 MUL ADD CALLDATALOAD PUSH1 0x40 MLOAD DUP5 PUSH4 0xFFFFFFFF AND PUSH1 0xE0 SHL DUP2 MSTORE PUSH1 0x4 ADD PUSH2 0xC57 SWAP4 SWAP3 SWAP2 SWAP1 PUSH2 0x2CEF JUMP JUMPDEST PUSH1 0x0 PUSH1 0x40 MLOAD DUP1 DUP4 SUB DUP2 PUSH1 0x0 DUP8 DUP1 EXTCODESIZE ISZERO DUP1 ISZERO PUSH2 0xC71 JUMPI PUSH1 0x0 DUP1 REVERT JUMPDEST POP GAS CALL ISZERO DUP1 ISZERO PUSH2 0xC85 JUMPI RETURNDATASIZE PUSH1 0x0 DUP1 RETURNDATACOPY RETURNDATASIZE PUSH1 0x0 REVERT JUMPDEST POP POP POP POP PUSH1 0x40 MLOAD DUP1 PUSH1 0xA0 ADD PUSH1 0x40 MSTORE DUP1 CALLER PUSH20 0xFFFFFFFFFFFFFFFFFFFFFFFFFFFFFFFFFFFFFFFF AND DUP2 MSTORE PUSH1 0x20 ADD TIMESTAMP DUP2 MSTORE PUSH1 0x20 ADD PUSH1 0x0 DUP2 MSTORE PUSH1 0x20 ADD PUSH1 0x0 ISZERO ISZERO DUP2 MSTORE PUSH1 0x20 ADD DUP4 PUSH20 0xFFFFFFFFFFFFFFFFFFFFFFFFFFFFFFFFFFFFFFFF AND DUP2 MSTORE POP PUSH1 0x3 PUSH1 0x0 DUP5 PUSH20 0xFFFFFFFFFFFFFFFFFFFFFFFFFFFFFFFFFFFFFFFF AND PUSH20 0xFFFFFFFFFFFFFFFFFFFFFFFFFFFFFFFFFFFFFFFF AND DUP2 MSTORE PUSH1 0x20 ADD SWAP1 DUP2 MSTORE PUSH1 0x20 ADD PUSH1 0x0 KECCAK256 PUSH1 0x0 DUP7 DUP7 DUP6 DUP2 DUP2 LT PUSH2 0xD34 JUMPI PUSH2 0xD33 PUSH2 0x28AD JUMP JUMPDEST JUMPDEST SWAP1 POP PUSH1 0x20 MUL ADD CALLDATALOAD DUP2 MSTORE PUSH1 0x20 ADD SWAP1 DUP2 MSTORE PUSH1 0x20 ADD PUSH1 0x0 KECCAK256 PUSH1 0x0 DUP3 ADD MLOAD DUP2 PUSH1 0x0 ADD PUSH1 0x0 PUSH2 0x100 EXP DUP2 SLOAD DUP2 PUSH20 0xFFFFFFFFFFFFFFFFFFFFFFFFFFFFFFFFFFFFFFFF MUL NOT AND SWAP1 DUP4 PUSH20 0xFFFFFFFFFFFFFFFFFFFFFFFFFFFFFFFFFFFFFFFF AND MUL OR SWAP1 SSTORE POP PUSH1 0x20 DUP3 ADD MLOAD DUP2 PUSH1 0x1 ADD SSTORE PUSH1 0x40 DUP3 ADD MLOAD DUP2 PUSH1 0x2 ADD SSTORE PUSH1 0x60 DUP3 ADD MLOAD DUP2 PUSH1 0x3 ADD PUSH1 0x0 PUSH2 0x100 EXP DUP2 SLOAD DUP2 PUSH1 0xFF MUL NOT AND SWAP1 DUP4 ISZERO ISZERO MUL OR SWAP1 SSTORE POP PUSH1 0x80 DUP3 ADD MLOAD DUP2 PUSH1 0x3 ADD PUSH1 0x1 PUSH2 0x100 EXP DUP2 SLOAD DUP2 PUSH20 0xFFFFFFFFFFFFFFFFFFFFFFFFFFFFFFFFFFFFFFFF MUL NOT AND SWAP1 DUP4 PUSH20 0xFFFFFFFFFFFFFFFFFFFFFFFFFFFFFFFFFFFFFFFF AND MUL OR SWAP1 SSTORE POP SWAP1 POP POP DUP1 DUP1 PUSH2 0xE19 SWAP1 PUSH2 0x2AE0 JUMP JUMPDEST SWAP2 POP POP PUSH2 0xAF6 JUMP JUMPDEST POP CALLER PUSH20 0xFFFFFFFFFFFFFFFFFFFFFFFFFFFFFFFFFFFFFFFF AND PUSH32 0x458BE0227BCCC9E803DEC79BD16767EEAF9925D2CE708EEED7AE1F3621F968F9 DUP5 DUP5 PUSH1 0x40 MLOAD PUSH2 0xE6A SWAP3 SWAP2 SWAP1 PUSH2 0x2D26 JUMP JUMPDEST PUSH1 0x40 MLOAD DUP1 SWAP2 SUB SWAP1 LOG2 PUSH1 0x1 DUP1 DUP2 SWAP1 SSTORE POP POP POP POP JUMP JUMPDEST PUSH1 0x2 SLOAD DUP2 JUMP JUMPDEST PUSH2 0xE8C PUSH2 0x1E68 JUMP JUMPDEST PUSH2 0xE96 PUSH1 0x0 PUSH2 0x1EE6 JUMP JUMPDEST JUMP JUMPDEST PUSH2 0xEA0 PUSH2 0x1E68 JUMP JUMPDEST PUSH1 0x0 DUP2 GT PUSH2 0xEE3 JUMPI PUSH1 0x40 MLOAD PUSH32 0x8C379A000000000000000000000000000000000000000000000000000000000 DUP2 MSTORE PUSH1 0x4 ADD PUSH2 0xEDA SWAP1 PUSH2 0x2D96 JUMP JUMPDEST PUSH1 0x40 MLOAD DUP1 SWAP2 SUB SWAP1 REVERT JUMPDEST DUP1 PUSH1 0x2 DUP2 SWAP1 SSTORE POP PUSH32 0x8249EC545E68F6F1E1230133CA48C704D831A7F8E635DED80F3DD9E99B09BB2F DUP2 PUSH1 0x40 MLOAD PUSH2 0xF19 SWAP2 SWAP1 PUSH2 0x2114 JUMP JUMPDEST PUSH1 0x40 MLOAD DUP1 SWAP2 SUB SWAP1 LOG1 POP JUMP JUMPDEST PUSH1 0x0 DUP1 PUSH1 0x0 SWAP1 SLOAD SWAP1 PUSH2 0x100 EXP SWAP1 DIV PUSH20 0xFFFFFFFFFFFFFFFFFFFFFFFFFFFFFFFFFFFFFFFF AND SWAP1 POP SWAP1 JUMP JUMPDEST PUSH2 0xF6C CALLER PUSH20 0xFFFFFFFFFFFFFFFFFFFFFFFFFFFFFFFFFFFFFFFF AND PUSH2 0x1C67 JUMP JUMPDEST ISZERO PUSH2 0xFAC JUMPI PUSH1 0x40 MLOAD PUSH32 0x8C379A000000000000000000000000000000000000000000000000000000000 DUP2 MSTORE PUSH1 0x4 ADD PUSH2 0xFA3 SWAP1 PUSH2 0x2723 JUMP JUMPDEST PUSH1 0x40 MLOAD DUP1 SWAP2 SUB SWAP1 REVERT JUMPDEST ORIGIN PUSH20 0xFFFFFFFFFFFFFFFFFFFFFFFFFFFFFFFFFFFFFFFF AND CALLER PUSH20 0xFFFFFFFFFFFFFFFFFFFFFFFFFFFFFFFFFFFFFFFF AND EQ PUSH2 0x101A JUMPI PUSH1 0x40 MLOAD PUSH32 0x8C379A000000000000000000000000000000000000000000000000000000000 DUP2 MSTORE PUSH1 0x4 ADD PUSH2 0x1011 SWAP1 PUSH2 0x278F JUMP JUMPDEST PUSH1 0x40 MLOAD DUP1 SWAP2 SUB SWAP1 REVERT JUMPDEST PUSH1 0x2 PUSH1 0x1 SLOAD SUB PUSH2 0x105F JUMPI PUSH1 0x40 MLOAD PUSH32 0x8C379A000000000000000000000000000000000000000000000000000000000 DUP2 MSTORE PUSH1 0x4 ADD PUSH2 0x1056 SWAP1 PUSH2 0x2C21 JUMP JUMPDEST PUSH1 0x40 MLOAD DUP1 SWAP2 SUB SWAP1 REVERT JUMPDEST PUSH1 0x2 PUSH1 0x1 DUP2 SWAP1 SSTORE POP PUSH1 0x0 PUSH20 0xFFFFFFFFFFFFFFFFFFFFFFFFFFFFFFFFFFFFFFFF AND PUSH1 0x4 PUSH1 0x0 DUP4 PUSH20 0xFFFFFFFFFFFFFFFFFFFFFFFFFFFFFFFFFFFFFFFF AND PUSH20 0xFFFFFFFFFFFFFFFFFFFFFFFFFFFFFFFFFFFFFFFF AND DUP2 MSTORE PUSH1 0x20 ADD SWAP1 DUP2 MSTORE PUSH1 0x20 ADD PUSH1 0x0 KECCAK256 PUSH1 0x0 ADD PUSH1 0x0 SWAP1 SLOAD SWAP1 PUSH2 0x100 EXP SWAP1 DIV PUSH20 0xFFFFFFFFFFFFFFFFFFFFFFFFFFFFFFFFFFFFFFFF AND PUSH20 0xFFFFFFFFFFFFFFFFFFFFFFFFFFFFFFFFFFFFFFFF AND SUB PUSH2 0x1138 JUMPI PUSH1 0x40 MLOAD PUSH32 0x8C379A000000000000000000000000000000000000000000000000000000000 DUP2 MSTORE PUSH1 0x4 ADD PUSH2 0x112F SWAP1 PUSH2 0x2821 JUMP JUMPDEST PUSH1 0x40 MLOAD DUP1 SWAP2 SUB SWAP1 REVERT JUMPDEST PUSH1 0x0 DUP4 DUP4 SWAP1 POP GT PUSH2 0x117E JUMPI PUSH1 0x40 MLOAD PUSH32 0x8C379A000000000000000000000000000000000000000000000000000000000 DUP2 MSTORE PUSH1 0x4 ADD PUSH2 0x1175 SWAP1 PUSH2 0x288D JUMP JUMPDEST PUSH1 0x40 MLOAD DUP1 SWAP2 SUB SWAP1 REVERT JUMPDEST PUSH1 0x0 JUMPDEST DUP4 DUP4 SWAP1 POP DUP2 LT ISZERO PUSH2 0x1687 JUMPI PUSH1 0x0 PUSH1 0x3 PUSH1 0x0 DUP5 PUSH20 0xFFFFFFFFFFFFFFFFFFFFFFFFFFFFFFFFFFFFFFFF AND PUSH20 0xFFFFFFFFFFFFFFFFFFFFFFFFFFFFFFFFFFFFFFFF AND DUP2 MSTORE PUSH1 0x20 ADD SWAP1 DUP2 MSTORE PUSH1 0x20 ADD PUSH1 0x0 KECCAK256 PUSH1 0x0 DUP7 DUP7 DUP6 DUP2 DUP2 LT PUSH2 0x11E2 JUMPI PUSH2 0x11E1 PUSH2 0x28AD JUMP JUMPDEST JUMPDEST SWAP1 POP PUSH1 0x20 MUL ADD CALLDATALOAD DUP2 MSTORE PUSH1 0x20 ADD SWAP1 DUP2 MSTORE PUSH1 0x20 ADD PUSH1 0x0 KECCAK256 PUSH1 0x40 MLOAD DUP1 PUSH1 0xA0 ADD PUSH1 0x40 MSTORE SWAP1 DUP2 PUSH1 0x0 DUP3 ADD PUSH1 0x0 SWAP1 SLOAD SWAP1 PUSH2 0x100 EXP SWAP1 DIV PUSH20 0xFFFFFFFFFFFFFFFFFFFFFFFFFFFFFFFFFFFFFFFF AND PUSH20 0xFFFFFFFFFFFFFFFFFFFFFFFFFFFFFFFFFFFFFFFF AND PUSH20 0xFFFFFFFFFFFFFFFFFFFFFFFFFFFFFFFFFFFFFFFF AND DUP2 MSTORE PUSH1 0x20 ADD PUSH1 0x1 DUP3 ADD SLOAD DUP2 MSTORE PUSH1 0x20 ADD PUSH1 0x2 DUP3 ADD SLOAD DUP2 MSTORE PUSH1 0x20 ADD PUSH1 0x3 DUP3 ADD PUSH1 0x0 SWAP1 SLOAD SWAP1 PUSH2 0x100 EXP SWAP1 DIV PUSH1 0xFF AND ISZERO ISZERO ISZERO ISZERO DUP2 MSTORE PUSH1 0x20 ADD PUSH1 0x3 DUP3 ADD PUSH1 0x1 SWAP1 SLOAD SWAP1 PUSH2 0x100 EXP SWAP1 DIV PUSH20 0xFFFFFFFFFFFFFFFFFFFFFFFFFFFFFFFFFFFFFFFF AND PUSH20 0xFFFFFFFFFFFFFFFFFFFFFFFFFFFFFFFFFFFFFFFF AND PUSH20 0xFFFFFFFFFFFFFFFFFFFFFFFFFFFFFFFFFFFFFFFF AND DUP2 MSTORE POP POP SWAP1 POP CALLER PUSH20 0xFFFFFFFFFFFFFFFFFFFFFFFFFFFFFFFFFFFFFFFF AND DUP2 PUSH1 0x0 ADD MLOAD PUSH20 0xFFFFFFFFFFFFFFFFFFFFFFFFFFFFFFFFFFFFFFFF AND EQ PUSH2 0x1351 JUMPI PUSH1 0x40 MLOAD PUSH32 0x8C379A000000000000000000000000000000000000000000000000000000000 DUP2 MSTORE PUSH1 0x4 ADD PUSH2 0x1348 SWAP1 PUSH2 0x2928 JUMP JUMPDEST PUSH1 0x40 MLOAD DUP1 SWAP2 SUB SWAP1 REVERT JUMPDEST TIMESTAMP PUSH1 0x2 SLOAD DUP3 PUSH1 0x20 ADD MLOAD PUSH2 0x1364 SWAP2 SWAP1 PUSH2 0x2977 JUMP JUMPDEST LT PUSH2 0x13A4 JUMPI PUSH1 0x40 MLOAD PUSH32 0x8C379A000000000000000000000000000000000000000000000000000000000 DUP2 MSTORE PUSH1 0x4 ADD PUSH2 0x139B SWAP1 PUSH2 0x2E02 JUMP JUMPDEST PUSH1 0x40 MLOAD DUP1 SWAP2 SUB SWAP1 REVERT JUMPDEST DUP1 PUSH1 0x60 ADD MLOAD ISZERO PUSH2 0x13E9 JUMPI PUSH1 0x40 MLOAD PUSH32 0x8C379A000000000000000000000000000000000000000000000000000000000 DUP2 MSTORE PUSH1 0x4 ADD PUSH2 0x13E0 SWAP1 PUSH2 0x2A63 JUMP JUMPDEST PUSH1 0x40 MLOAD DUP1 SWAP2 SUB SWAP1 REVERT JUMPDEST DUP3 PUSH20 0xFFFFFFFFFFFFFFFFFFFFFFFFFFFFFFFFFFFFFFFF AND PUSH4 0x23B872DD ADDRESS CALLER DUP9 DUP9 DUP8 DUP2 DUP2 LT PUSH2 0x141A JUMPI PUSH2 0x1419 PUSH2 0x28AD JUMP JUMPDEST JUMPDEST SWAP1 POP PUSH1 0x20 MUL ADD CALLDATALOAD PUSH1 0x40 MLOAD DUP5 PUSH4 0xFFFFFFFF AND PUSH1 0xE0 SHL DUP2 MSTORE PUSH1 0x4 ADD PUSH2 0x143F SWAP4 SWAP3 SWAP2 SWAP1 PUSH2 0x2CEF JUMP JUMPDEST PUSH1 0x0 PUSH1 0x40 MLOAD DUP1 DUP4 SUB DUP2 PUSH1 0x0 DUP8 DUP1 EXTCODESIZE ISZERO DUP1 ISZERO PUSH2 0x1459 JUMPI PUSH1 0x0 DUP1 REVERT JUMPDEST POP GAS CALL ISZERO DUP1 ISZERO PUSH2 0x146D JUMPI RETURNDATASIZE PUSH1 0x0 DUP1 RETURNDATACOPY RETURNDATASIZE PUSH1 0x0 REVERT JUMPDEST POP POP POP POP PUSH1 0x0 PUSH2 0x1496 DUP7 DUP7 DUP6 DUP2 DUP2 LT PUSH2 0x1489 JUMPI PUSH2 0x1488 PUSH2 0x28AD JUMP JUMPDEST JUMPDEST SWAP1 POP PUSH1 0x20 MUL ADD CALLDATALOAD DUP6 PUSH2 0x1C8A JUMP JUMPDEST SWAP1 POP PUSH1 0x0 DUP3 PUSH1 0x40 ADD MLOAD DUP3 PUSH2 0x14AA SWAP2 SWAP1 PUSH2 0x2A83 JUMP JUMPDEST SWAP1 POP PUSH1 0x4 PUSH1 0x0 DUP7 PUSH20 0xFFFFFFFFFFFFFFFFFFFFFFFFFFFFFFFFFFFFFFFF AND PUSH20 0xFFFFFFFFFFFFFFFFFFFFFFFFFFFFFFFFFFFFFFFF AND DUP2 MSTORE PUSH1 0x20 ADD SWAP1 DUP2 MSTORE PUSH1 0x20 ADD PUSH1 0x0 KECCAK256 PUSH1 0x0 ADD PUSH1 0x0 SWAP1 SLOAD SWAP1 PUSH2 0x100 EXP SWAP1 DIV PUSH20 0xFFFFFFFFFFFFFFFFFFFFFFFFFFFFFFFFFFFFFFFF AND PUSH20 0xFFFFFFFFFFFFFFFFFFFFFFFFFFFFFFFFFFFFFFFF AND PUSH4 0x40C10F19 CALLER DUP4 PUSH1 0x40 MLOAD DUP4 PUSH4 0xFFFFFFFF AND PUSH1 0xE0 SHL DUP2 MSTORE PUSH1 0x4 ADD PUSH2 0x1549 SWAP3 SWAP2 SWAP1 PUSH2 0x2AB7 JUMP JUMPDEST PUSH1 0x0 PUSH1 0x40 MLOAD DUP1 DUP4 SUB DUP2 PUSH1 0x0 DUP8 DUP1 EXTCODESIZE ISZERO DUP1 ISZERO PUSH2 0x1563 JUMPI PUSH1 0x0 DUP1 REVERT JUMPDEST POP GAS CALL ISZERO DUP1 ISZERO PUSH2 0x1577 JUMPI RETURNDATASIZE PUSH1 0x0 DUP1 RETURNDATACOPY RETURNDATASIZE PUSH1 0x0 REVERT JUMPDEST POP POP POP POP DUP2 PUSH1 0x3 PUSH1 0x0 DUP8 PUSH20 0xFFFFFFFFFFFFFFFFFFFFFFFFFFFFFFFFFFFFFFFF AND PUSH20 0xFFFFFFFFFFFFFFFFFFFFFFFFFFFFFFFFFFFFFFFF AND DUP2 MSTORE PUSH1 0x20 ADD SWAP1 DUP2 MSTORE PUSH1 0x20 ADD PUSH1 0x0 KECCAK256 PUSH1 0x0 DUP10 DUP10 DUP9 DUP2 DUP2 LT PUSH2 0x15D0 JUMPI PUSH2 0x15CF PUSH2 0x28AD JUMP JUMPDEST JUMPDEST SWAP1 POP PUSH1 0x20 MUL ADD CALLDATALOAD DUP2 MSTORE PUSH1 0x20 ADD SWAP1 DUP2 MSTORE PUSH1 0x20 ADD PUSH1 0x0 KECCAK256 PUSH1 0x2 ADD DUP2 SWAP1 SSTORE POP PUSH1 0x1 PUSH1 0x3 PUSH1 0x0 DUP8 PUSH20 0xFFFFFFFFFFFFFFFFFFFFFFFFFFFFFFFFFFFFFFFF AND PUSH20 0xFFFFFFFFFFFFFFFFFFFFFFFFFFFFFFFFFFFFFFFF AND DUP2 MSTORE PUSH1 0x20 ADD SWAP1 DUP2 MSTORE PUSH1 0x20 ADD PUSH1 0x0 KECCAK256 PUSH1 0x0 DUP10 DUP10 DUP9 DUP2 DUP2 LT PUSH2 0x1642 JUMPI PUSH2 0x1641 PUSH2 0x28AD JUMP JUMPDEST JUMPDEST SWAP1 POP PUSH1 0x20 MUL ADD CALLDATALOAD DUP2 MSTORE PUSH1 0x20 ADD SWAP1 DUP2 MSTORE PUSH1 0x20 ADD PUSH1 0x0 KECCAK256 PUSH1 0x3 ADD PUSH1 0x0 PUSH2 0x100 EXP DUP2 SLOAD DUP2 PUSH1 0xFF MUL NOT AND SWAP1 DUP4 ISZERO ISZERO MUL OR SWAP1 SSTORE POP POP POP POP DUP1 DUP1 PUSH2 0x167F SWAP1 PUSH2 0x2AE0 JUMP JUMPDEST SWAP2 POP POP PUSH2 0x1181 JUMP JUMPDEST POP CALLER PUSH20 0xFFFFFFFFFFFFFFFFFFFFFFFFFFFFFFFFFFFFFFFF AND PUSH32 0x5CB48022479B9AC3BFB10A27965DC010ACFFC9FC1BC9A52F0B18975B944B54CA DUP5 DUP5 PUSH1 0x40 MLOAD PUSH2 0x16D0 SWAP3 SWAP2 SWAP1 PUSH2 0x2D26 JUMP JUMPDEST PUSH1 0x40 MLOAD DUP1 SWAP2 SUB SWAP1 LOG2 PUSH1 0x1 DUP1 DUP2 SWAP1 SSTORE POP POP POP POP JUMP JUMPDEST PUSH1 0x3 PUSH1 0x20 MSTORE DUP2 PUSH1 0x0 MSTORE PUSH1 0x40 PUSH1 0x0 KECCAK256 PUSH1 0x20 MSTORE DUP1 PUSH1 0x0 MSTORE PUSH1 0x40 PUSH1 0x0 KECCAK256 PUSH1 0x0 SWAP2 POP SWAP2 POP POP DUP1 PUSH1 0x0 ADD PUSH1 0x0 SWAP1 SLOAD SWAP1 PUSH2 0x100 EXP SWAP1 DIV PUSH20 0xFFFFFFFFFFFFFFFFFFFFFFFFFFFFFFFFFFFFFFFF AND SWAP1 DUP1 PUSH1 0x1 ADD SLOAD SWAP1 DUP1 PUSH1 0x2 ADD SLOAD SWAP1 DUP1 PUSH1 0x3 ADD PUSH1 0x0 SWAP1 SLOAD SWAP1 PUSH2 0x100 EXP SWAP1 DIV PUSH1 0xFF AND SWAP1 DUP1 PUSH1 0x3 ADD PUSH1 0x1 SWAP1 SLOAD SWAP1 PUSH2 0x100 EXP SWAP1 DIV PUSH20 0xFFFFFFFFFFFFFFFFFFFFFFFFFFFFFFFFFFFFFFFF AND SWAP1 POP DUP6 JUMP JUMPDEST PUSH1 0x0 PUSH1 0x3 PUSH1 0x0 DUP4 PUSH20 0xFFFFFFFFFFFFFFFFFFFFFFFFFFFFFFFFFFFFFFFF AND PUSH20 0xFFFFFFFFFFFFFFFFFFFFFFFFFFFFFFFFFFFFFFFF AND DUP2 MSTORE PUSH1 0x20 ADD SWAP1 DUP2 MSTORE PUSH1 0x20 ADD PUSH1 0x0 KECCAK256 PUSH1 0x0 DUP5 DUP2 MSTORE PUSH1 0x20 ADD SWAP1 DUP2 MSTORE PUSH1 0x20 ADD PUSH1 0x0 KECCAK256 PUSH1 0x2 ADD SLOAD SWAP1 POP SWAP3 SWAP2 POP POP JUMP JUMPDEST PUSH1 0x5 SLOAD DUP2 JUMP JUMPDEST PUSH1 0x4 PUSH1 0x20 MSTORE DUP1 PUSH1 0x0 MSTORE PUSH1 0x40 PUSH1 0x0 KECCAK256 PUSH1 0x0 SWAP2 POP SWAP1 POP DUP1 PUSH1 0x0 ADD PUSH1 0x0 SWAP1 SLOAD SWAP1 PUSH2 0x100 EXP SWAP1 DIV PUSH20 0xFFFFFFFFFFFFFFFFFFFFFFFFFFFFFFFFFFFFFFFF AND SWAP1 DUP1 PUSH1 0x1 ADD SLOAD SWAP1 DUP1 PUSH1 0x2 ADD SLOAD SWAP1 POP DUP4 JUMP JUMPDEST PUSH2 0x182A PUSH2 0x1E68 JUMP JUMPDEST PUSH1 0x0 JUMPDEST DUP5 MLOAD DUP2 LT ISZERO PUSH2 0x1BDD JUMPI PUSH1 0x0 PUSH20 0xFFFFFFFFFFFFFFFFFFFFFFFFFFFFFFFFFFFFFFFF AND DUP6 DUP3 DUP2 MLOAD DUP2 LT PUSH2 0x1861 JUMPI PUSH2 0x1860 PUSH2 0x28AD JUMP JUMPDEST JUMPDEST PUSH1 0x20 MUL PUSH1 0x20 ADD ADD MLOAD PUSH20 0xFFFFFFFFFFFFFFFFFFFFFFFFFFFFFFFFFFFFFFFF AND SUB PUSH2 0x18BF JUMPI PUSH1 0x40 MLOAD PUSH32 0x8C379A000000000000000000000000000000000000000000000000000000000 DUP2 MSTORE PUSH1 0x4 ADD PUSH2 0x18B6 SWAP1 PUSH2 0x2E6E JUMP JUMPDEST PUSH1 0x40 MLOAD DUP1 SWAP2 SUB SWAP1 REVERT JUMPDEST PUSH1 0x0 PUSH20 0xFFFFFFFFFFFFFFFFFFFFFFFFFFFFFFFFFFFFFFFF AND DUP5 DUP3 DUP2 MLOAD DUP2 LT PUSH2 0x18EA JUMPI PUSH2 0x18E9 PUSH2 0x28AD JUMP JUMPDEST JUMPDEST PUSH1 0x20 MUL PUSH1 0x20 ADD ADD MLOAD PUSH20 0xFFFFFFFFFFFFFFFFFFFFFFFFFFFFFFFFFFFFFFFF AND SUB PUSH2 0x1948 JUMPI PUSH1 0x40 MLOAD PUSH32 0x8C379A000000000000000000000000000000000000000000000000000000000 DUP2 MSTORE PUSH1 0x4 ADD PUSH2 0x193F SWAP1 PUSH2 0x2EDA JUMP JUMPDEST PUSH1 0x40 MLOAD DUP1 SWAP2 SUB SWAP1 REVERT JUMPDEST DUP5 DUP2 DUP2 MLOAD DUP2 LT PUSH2 0x195B JUMPI PUSH2 0x195A PUSH2 0x28AD JUMP JUMPDEST JUMPDEST PUSH1 0x20 MUL PUSH1 0x20 ADD ADD MLOAD PUSH20 0xFFFFFFFFFFFFFFFFFFFFFFFFFFFFFFFFFFFFFFFF AND PUSH4 0x1FFC9A7 PUSH4 0x80AC58CD PUSH1 0x40 MLOAD DUP3 PUSH4 0xFFFFFFFF AND PUSH1 0xE0 SHL DUP2 MSTORE PUSH1 0x4 ADD PUSH2 0x199F SWAP2 SWAP1 PUSH2 0x2F6E JUMP JUMPDEST PUSH1 0x20 PUSH1 0x40 MLOAD DUP1 DUP4 SUB DUP2 DUP7 GAS STATICCALL ISZERO DUP1 ISZERO PUSH2 0x19BC JUMPI RETURNDATASIZE PUSH1 0x0 DUP1 RETURNDATACOPY RETURNDATASIZE PUSH1 0x0 REVERT JUMPDEST POP POP POP POP PUSH1 0x40 MLOAD RETURNDATASIZE PUSH1 0x1F NOT PUSH1 0x1F DUP3 ADD AND DUP3 ADD DUP1 PUSH1 0x40 MSTORE POP DUP2 ADD SWAP1 PUSH2 0x19E0 SWAP2 SWAP1 PUSH2 0x2FB5 JUMP JUMPDEST PUSH2 0x1A1F JUMPI PUSH1 0x40 MLOAD PUSH32 0x8C379A000000000000000000000000000000000000000000000000000000000 DUP2 MSTORE PUSH1 0x4 ADD PUSH2 0x1A16 SWAP1 PUSH2 0x302E JUMP JUMPDEST PUSH1 0x40 MLOAD DUP1 SWAP2 SUB SWAP1 REVERT JUMPDEST DUP4 DUP2 DUP2 MLOAD DUP2 LT PUSH2 0x1A32 JUMPI PUSH2 0x1A31 PUSH2 0x28AD JUMP JUMPDEST JUMPDEST PUSH1 0x20 MUL PUSH1 0x20 ADD ADD MLOAD PUSH1 0x4 PUSH1 0x0 DUP8 DUP5 DUP2 MLOAD DUP2 LT PUSH2 0x1A51 JUMPI PUSH2 0x1A50 PUSH2 0x28AD JUMP JUMPDEST JUMPDEST PUSH1 0x20 MUL PUSH1 0x20 ADD ADD MLOAD PUSH20 0xFFFFFFFFFFFFFFFFFFFFFFFFFFFFFFFFFFFFFFFF AND PUSH20 0xFFFFFFFFFFFFFFFFFFFFFFFFFFFFFFFFFFFFFFFF AND DUP2 MSTORE PUSH1 0x20 ADD SWAP1 DUP2 MSTORE PUSH1 0x20 ADD PUSH1 0x0 KECCAK256 PUSH1 0x0 ADD PUSH1 0x0 PUSH2 0x100 EXP DUP2 SLOAD DUP2 PUSH20 0xFFFFFFFFFFFFFFFFFFFFFFFFFFFFFFFFFFFFFFFF MUL NOT AND SWAP1 DUP4 PUSH20 0xFFFFFFFFFFFFFFFFFFFFFFFFFFFFFFFFFFFFFFFF AND MUL OR SWAP1 SSTORE POP DUP3 DUP2 DUP2 MLOAD DUP2 LT PUSH2 0x1AE7 JUMPI PUSH2 0x1AE6 PUSH2 0x28AD JUMP JUMPDEST JUMPDEST PUSH1 0x20 MUL PUSH1 0x20 ADD ADD MLOAD PUSH1 0x4 PUSH1 0x0 DUP8 DUP5 DUP2 MLOAD DUP2 LT PUSH2 0x1B06 JUMPI PUSH2 0x1B05 PUSH2 0x28AD JUMP JUMPDEST JUMPDEST PUSH1 0x20 MUL PUSH1 0x20 ADD ADD MLOAD PUSH20 0xFFFFFFFFFFFFFFFFFFFFFFFFFFFFFFFFFFFFFFFF AND PUSH20 0xFFFFFFFFFFFFFFFFFFFFFFFFFFFFFFFFFFFFFFFF AND DUP2 MSTORE PUSH1 0x20 ADD SWAP1 DUP2 MSTORE PUSH1 0x20 ADD PUSH1 0x0 KECCAK256 PUSH1 0x1 ADD DUP2 SWAP1 SSTORE POP DUP2 DUP2 DUP2 MLOAD DUP2 LT PUSH2 0x1B62 JUMPI PUSH2 0x1B61 PUSH2 0x28AD JUMP JUMPDEST JUMPDEST PUSH1 0x20 MUL PUSH1 0x20 ADD ADD MLOAD PUSH1 0x4 PUSH1 0x0 DUP8 DUP5 DUP2 MLOAD DUP2 LT PUSH2 0x1B81 JUMPI PUSH2 0x1B80 PUSH2 0x28AD JUMP JUMPDEST JUMPDEST PUSH1 0x20 MUL PUSH1 0x20 ADD ADD MLOAD PUSH20 0xFFFFFFFFFFFFFFFFFFFFFFFFFFFFFFFFFFFFFFFF AND PUSH20 0xFFFFFFFFFFFFFFFFFFFFFFFFFFFFFFFFFFFFFFFF AND DUP2 MSTORE PUSH1 0x20 ADD SWAP1 DUP2 MSTORE PUSH1 0x20 ADD PUSH1 0x0 KECCAK256 PUSH1 0x2 ADD DUP2 SWAP1 SSTORE POP DUP1 DUP1 PUSH2 0x1BD5 SWAP1 PUSH2 0x2AE0 JUMP JUMPDEST SWAP2 POP POP PUSH2 0x182D JUMP JUMPDEST POP POP POP POP POP JUMP JUMPDEST PUSH2 0x1BEC PUSH2 0x1E68 JUMP JUMPDEST PUSH1 0x0 PUSH20 0xFFFFFFFFFFFFFFFFFFFFFFFFFFFFFFFFFFFFFFFF AND DUP2 PUSH20 0xFFFFFFFFFFFFFFFFFFFFFFFFFFFFFFFFFFFFFFFF AND SUB PUSH2 0x1C5B JUMPI PUSH1 0x40 MLOAD PUSH32 0x8C379A000000000000000000000000000000000000000000000000000000000 DUP2 MSTORE PUSH1 0x4 ADD PUSH2 0x1C52 SWAP1 PUSH2 0x30C0 JUMP JUMPDEST PUSH1 0x40 MLOAD DUP1 SWAP2 SUB SWAP1 REVERT JUMPDEST PUSH2 0x1C64 DUP2 PUSH2 0x1EE6 JUMP JUMPDEST POP JUMP JUMPDEST PUSH1 0x0 DUP1 DUP3 PUSH20 0xFFFFFFFFFFFFFFFFFFFFFFFFFFFFFFFFFFFFFFFF AND EXTCODESIZE GT SWAP1 POP SWAP2 SWAP1 POP JUMP JUMPDEST PUSH1 0x0 DUP1 PUSH1 0x3 PUSH1 0x0 DUP5 PUSH20 0xFFFFFFFFFFFFFFFFFFFFFFFFFFFFFFFFFFFFFFFF AND PUSH20 0xFFFFFFFFFFFFFFFFFFFFFFFFFFFFFFFFFFFFFFFF AND DUP2 MSTORE PUSH1 0x20 ADD SWAP1 DUP2 MSTORE PUSH1 0x20 ADD PUSH1 0x0 KECCAK256 PUSH1 0x0 DUP6 DUP2 MSTORE PUSH1 0x20 ADD SWAP1 DUP2 MSTORE PUSH1 0x20 ADD PUSH1 0x0 KECCAK256 PUSH1 0x40 MLOAD DUP1 PUSH1 0xA0 ADD PUSH1 0x40 MSTORE SWAP1 DUP2 PUSH1 0x0 DUP3 ADD PUSH1 0x0 SWAP1 SLOAD SWAP1 PUSH2 0x100 EXP SWAP1 DIV PUSH20 0xFFFFFFFFFFFFFFFFFFFFFFFFFFFFFFFFFFFFFFFF AND PUSH20 0xFFFFFFFFFFFFFFFFFFFFFFFFFFFFFFFFFFFFFFFF AND PUSH20 0xFFFFFFFFFFFFFFFFFFFFFFFFFFFFFFFFFFFFFFFF AND DUP2 MSTORE PUSH1 0x20 ADD PUSH1 0x1 DUP3 ADD SLOAD DUP2 MSTORE PUSH1 0x20 ADD PUSH1 0x2 DUP3 ADD SLOAD DUP2 MSTORE PUSH1 0x20 ADD PUSH1 0x3 DUP3 ADD PUSH1 0x0 SWAP1 SLOAD SWAP1 PUSH2 0x100 EXP SWAP1 DIV PUSH1 0xFF AND ISZERO ISZERO ISZERO ISZERO DUP2 MSTORE PUSH1 0x20 ADD PUSH1 0x3 DUP3 ADD PUSH1 0x1 SWAP1 SLOAD SWAP1 PUSH2 0x100 EXP SWAP1 DIV PUSH20 0xFFFFFFFFFFFFFFFFFFFFFFFFFFFFFFFFFFFFFFFF AND PUSH20 0xFFFFFFFFFFFFFFFFFFFFFFFFFFFFFFFFFFFFFFFF AND PUSH20 0xFFFFFFFFFFFFFFFFFFFFFFFFFFFFFFFFFFFFFFFF AND DUP2 MSTORE POP POP SWAP1 POP PUSH1 0x0 DUP2 PUSH1 0x20 ADD MLOAD TIMESTAMP PUSH2 0x1DD7 SWAP2 SWAP1 PUSH2 0x2A83 JUMP JUMPDEST SWAP1 POP PUSH1 0x0 PUSH1 0x2 SLOAD DUP3 LT ISZERO PUSH2 0x1DF1 JUMPI PUSH1 0x0 SWAP4 POP POP POP POP PUSH2 0x1E62 JUMP JUMPDEST PUSH1 0x5 SLOAD PUSH1 0x2 SLOAD DUP4 PUSH2 0x1E02 SWAP2 SWAP1 PUSH2 0x2A83 JUMP JUMPDEST PUSH1 0x4 PUSH1 0x0 DUP9 PUSH20 0xFFFFFFFFFFFFFFFFFFFFFFFFFFFFFFFFFFFFFFFF AND PUSH20 0xFFFFFFFFFFFFFFFFFFFFFFFFFFFFFFFFFFFFFFFF AND DUP2 MSTORE PUSH1 0x20 ADD SWAP1 DUP2 MSTORE PUSH1 0x20 ADD PUSH1 0x0 KECCAK256 PUSH1 0x1 ADD SLOAD PUSH2 0x1E4F SWAP2 SWAP1 PUSH2 0x30E0 JUMP JUMPDEST PUSH2 0x1E59 SWAP2 SWAP1 PUSH2 0x3169 JUMP JUMPDEST SWAP1 POP DUP1 SWAP4 POP POP POP POP JUMPDEST SWAP3 SWAP2 POP POP JUMP JUMPDEST PUSH2 0x1E70 PUSH2 0x1FAA JUMP JUMPDEST PUSH20 0xFFFFFFFFFFFFFFFFFFFFFFFFFFFFFFFFFFFFFFFF AND PUSH2 0x1E8E PUSH2 0xF24 JUMP JUMPDEST PUSH20 0xFFFFFFFFFFFFFFFFFFFFFFFFFFFFFFFFFFFFFFFF AND EQ PUSH2 0x1EE4 JUMPI PUSH1 0x40 MLOAD PUSH32 0x8C379A000000000000000000000000000000000000000000000000000000000 DUP2 MSTORE PUSH1 0x4 ADD PUSH2 0x1EDB SWAP1 PUSH2 0x31E6 JUMP JUMPDEST PUSH1 0x40 MLOAD DUP1 SWAP2 SUB SWAP1 REVERT JUMPDEST JUMP JUMPDEST PUSH1 0x0 DUP1 PUSH1 0x0 SWAP1 SLOAD SWAP1 PUSH2 0x100 EXP SWAP1 DIV PUSH20 0xFFFFFFFFFFFFFFFFFFFFFFFFFFFFFFFFFFFFFFFF AND SWAP1 POP DUP2 PUSH1 0x0 DUP1 PUSH2 0x100 EXP DUP2 SLOAD DUP2 PUSH20 0xFFFFFFFFFFFFFFFFFFFFFFFFFFFFFFFFFFFFFFFF MUL NOT AND SWAP1 DUP4 PUSH20 0xFFFFFFFFFFFFFFFFFFFFFFFFFFFFFFFFFFFFFFFF AND MUL OR SWAP1 SSTORE POP DUP2 PUSH20 0xFFFFFFFFFFFFFFFFFFFFFFFFFFFFFFFFFFFFFFFF AND DUP2 PUSH20 0xFFFFFFFFFFFFFFFFFFFFFFFFFFFFFFFFFFFFFFFF AND PUSH32 0x8BE0079C531659141344CD1FD0A4F28419497F9722A3DAAFE3B4186F6B6457E0 PUSH1 0x40 MLOAD PUSH1 0x40 MLOAD DUP1 SWAP2 SUB SWAP1 LOG3 POP POP JUMP JUMPDEST PUSH1 0x0 CALLER SWAP1 POP SWAP1 JUMP JUMPDEST PUSH1 0x0 PUSH1 0x40 MLOAD SWAP1 POP SWAP1 JUMP JUMPDEST PUSH1 0x0 DUP1 REVERT JUMPDEST PUSH1 0x0 DUP1 REVERT JUMPDEST PUSH1 0x0 DUP1 REVERT JUMPDEST PUSH1 0x0 DUP1 REVERT JUMPDEST PUSH1 0x0 DUP1 REVERT JUMPDEST PUSH1 0x0 DUP1 DUP4 PUSH1 0x1F DUP5 ADD SLT PUSH2 0x1FEB JUMPI PUSH2 0x1FEA PUSH2 0x1FC6 JUMP JUMPDEST JUMPDEST DUP3 CALLDATALOAD SWAP1 POP PUSH8 0xFFFFFFFFFFFFFFFF DUP2 GT ISZERO PUSH2 0x2008 JUMPI PUSH2 0x2007 PUSH2 0x1FCB JUMP JUMPDEST JUMPDEST PUSH1 0x20 DUP4 ADD SWAP2 POP DUP4 PUSH1 0x20 DUP3 MUL DUP4 ADD GT ISZERO PUSH2 0x2024 JUMPI PUSH2 0x2023 PUSH2 0x1FD0 JUMP JUMPDEST JUMPDEST SWAP3 POP SWAP3 SWAP1 POP JUMP JUMPDEST PUSH1 0x0 PUSH20 0xFFFFFFFFFFFFFFFFFFFFFFFFFFFFFFFFFFFFFFFF DUP3 AND SWAP1 POP SWAP2 SWAP1 POP JUMP JUMPDEST PUSH1 0x0 PUSH2 0x2056 DUP3 PUSH2 0x202B JUMP JUMPDEST SWAP1 POP SWAP2 SWAP1 POP JUMP JUMPDEST PUSH1 0x0 PUSH2 0x2068 DUP3 PUSH2 0x204B JUMP JUMPDEST SWAP1 POP SWAP2 SWAP1 POP JUMP JUMPDEST PUSH2 0x2078 DUP2 PUSH2 0x205D JUMP JUMPDEST DUP2 EQ PUSH2 0x2083 JUMPI PUSH1 0x0 DUP1 REVERT JUMPDEST POP JUMP JUMPDEST PUSH1 0x0 DUP2 CALLDATALOAD SWAP1 POP PUSH2 0x2095 DUP2 PUSH2 0x206F JUMP JUMPDEST SWAP3 SWAP2 POP POP JUMP JUMPDEST PUSH1 0x0 DUP1 PUSH1 0x0 PUSH1 0x40 DUP5 DUP7 SUB SLT ISZERO PUSH2 0x20B4 JUMPI PUSH2 0x20B3 PUSH2 0x1FBC JUMP JUMPDEST JUMPDEST PUSH1 0x0 DUP5 ADD CALLDATALOAD PUSH8 0xFFFFFFFFFFFFFFFF DUP2 GT ISZERO PUSH2 0x20D2 JUMPI PUSH2 0x20D1 PUSH2 0x1FC1 JUMP JUMPDEST JUMPDEST PUSH2 0x20DE DUP7 DUP3 DUP8 ADD PUSH2 0x1FD5 JUMP JUMPDEST SWAP4 POP SWAP4 POP POP PUSH1 0x20 PUSH2 0x20F1 DUP7 DUP3 DUP8 ADD PUSH2 0x2086 JUMP JUMPDEST SWAP2 POP POP SWAP3 POP SWAP3 POP SWAP3 JUMP JUMPDEST PUSH1 0x0 DUP2 SWAP1 POP SWAP2 SWAP1 POP JUMP JUMPDEST PUSH2 0x210E DUP2 PUSH2 0x20FB JUMP JUMPDEST DUP3 MSTORE POP POP JUMP JUMPDEST PUSH1 0x0 PUSH1 0x20 DUP3 ADD SWAP1 POP PUSH2 0x2129 PUSH1 0x0 DUP4 ADD DUP5 PUSH2 0x2105 JUMP JUMPDEST SWAP3 SWAP2 POP POP JUMP JUMPDEST PUSH2 0x2138 DUP2 PUSH2 0x20FB JUMP JUMPDEST DUP2 EQ PUSH2 0x2143 JUMPI PUSH1 0x0 DUP1 REVERT JUMPDEST POP JUMP JUMPDEST PUSH1 0x0 DUP2 CALLDATALOAD SWAP1 POP PUSH2 0x2155 DUP2 PUSH2 0x212F JUMP JUMPDEST SWAP3 SWAP2 POP POP JUMP JUMPDEST PUSH1 0x0 PUSH1 0x20 DUP3 DUP5 SUB SLT ISZERO PUSH2 0x2171 JUMPI PUSH2 0x2170 PUSH2 0x1FBC JUMP JUMPDEST JUMPDEST PUSH1 0x0 PUSH2 0x217F DUP5 DUP3 DUP6 ADD PUSH2 0x2146 JUMP JUMPDEST SWAP2 POP POP SWAP3 SWAP2 POP POP JUMP JUMPDEST PUSH2 0x2191 DUP2 PUSH2 0x204B JUMP JUMPDEST DUP3 MSTORE POP POP JUMP JUMPDEST PUSH1 0x0 PUSH1 0x20 DUP3 ADD SWAP1 POP PUSH2 0x21AC PUSH1 0x0 DUP4 ADD DUP5 PUSH2 0x2188 JUMP JUMPDEST SWAP3 SWAP2 POP POP JUMP JUMPDEST PUSH1 0x0 DUP1 PUSH1 0x40 DUP4 DUP6 SUB SLT ISZERO PUSH2 0x21C9 JUMPI PUSH2 0x21C8 PUSH2 0x1FBC JUMP JUMPDEST JUMPDEST PUSH1 0x0 PUSH2 0x21D7 DUP6 DUP3 DUP7 ADD PUSH2 0x2086 JUMP JUMPDEST SWAP3 POP POP PUSH1 0x20 PUSH2 0x21E8 DUP6 DUP3 DUP7 ADD PUSH2 0x2146 JUMP JUMPDEST SWAP2 POP POP SWAP3 POP SWAP3 SWAP1 POP JUMP JUMPDEST PUSH1 0x0 DUP2 ISZERO ISZERO SWAP1 POP SWAP2 SWAP1 POP JUMP JUMPDEST PUSH2 0x2207 DUP2 PUSH2 0x21F2 JUMP JUMPDEST DUP3 MSTORE POP POP JUMP JUMPDEST PUSH1 0x0 DUP2 SWAP1 POP SWAP2 SWAP1 POP JUMP JUMPDEST PUSH1 0x0 PUSH2 0x2232 PUSH2 0x222D PUSH2 0x2228 DUP5 PUSH2 0x202B JUMP JUMPDEST PUSH2 0x220D JUMP JUMPDEST PUSH2 0x202B JUMP JUMPDEST SWAP1 POP SWAP2 SWAP1 POP JUMP JUMPDEST PUSH1 0x0 PUSH2 0x2244 DUP3 PUSH2 0x2217 JUMP JUMPDEST SWAP1 POP SWAP2 SWAP1 POP JUMP JUMPDEST PUSH1 0x0 PUSH2 0x2256 DUP3 PUSH2 0x2239 JUMP JUMPDEST SWAP1 POP SWAP2 SWAP1 POP JUMP JUMPDEST PUSH2 0x2266 DUP2 PUSH2 0x224B JUMP JUMPDEST DUP3 MSTORE POP POP JUMP JUMPDEST PUSH1 0x0 PUSH1 0xA0 DUP3 ADD SWAP1 POP PUSH2 0x2281 PUSH1 0x0 DUP4 ADD DUP9 PUSH2 0x2188 JUMP JUMPDEST PUSH2 0x228E PUSH1 0x20 DUP4 ADD DUP8 PUSH2 0x2105 JUMP JUMPDEST PUSH2 0x229B PUSH1 0x40 DUP4 ADD DUP7 PUSH2 0x2105 JUMP JUMPDEST PUSH2 0x22A8 PUSH1 0x60 DUP4 ADD DUP6 PUSH2 0x21FE JUMP JUMPDEST PUSH2 0x22B5 PUSH1 0x80 DUP4 ADD DUP5 PUSH2 0x225D JUMP JUMPDEST SWAP7 SWAP6 POP POP POP POP POP POP JUMP JUMPDEST PUSH1 0x0 DUP1 PUSH1 0x40 DUP4 DUP6 SUB SLT ISZERO PUSH2 0x22D6 JUMPI PUSH2 0x22D5 PUSH2 0x1FBC JUMP JUMPDEST JUMPDEST PUSH1 0x0 PUSH2 0x22E4 DUP6 DUP3 DUP7 ADD PUSH2 0x2146 JUMP JUMPDEST SWAP3 POP POP PUSH1 0x20 PUSH2 0x22F5 DUP6 DUP3 DUP7 ADD PUSH2 0x2086 JUMP JUMPDEST SWAP2 POP POP SWAP3 POP SWAP3 SWAP1 POP JUMP JUMPDEST PUSH1 0x0 PUSH1 0x20 DUP3 DUP5 SUB SLT ISZERO PUSH2 0x2315 JUMPI PUSH2 0x2314 PUSH2 0x1FBC JUMP JUMPDEST JUMPDEST PUSH1 0x0 PUSH2 0x2323 DUP5 DUP3 DUP6 ADD PUSH2 0x2086 JUMP JUMPDEST SWAP2 POP POP SWAP3 SWAP2 POP POP JUMP JUMPDEST PUSH1 0x0 PUSH2 0x2337 DUP3 PUSH2 0x2239 JUMP JUMPDEST SWAP1 POP SWAP2 SWAP1 POP JUMP JUMPDEST PUSH2 0x2347 DUP2 PUSH2 0x232C JUMP JUMPDEST DUP3 MSTORE POP POP JUMP JUMPDEST PUSH1 0x0 PUSH1 0x60 DUP3 ADD SWAP1 POP PUSH2 0x2362 PUSH1 0x0 DUP4 ADD DUP7 PUSH2 0x233E JUMP JUMPDEST PUSH2 0x236F PUSH1 0x20 DUP4 ADD DUP6 PUSH2 0x2105 JUMP JUMPDEST PUSH2 0x237C PUSH1 0x40 DUP4 ADD DUP5 PUSH2 0x2105 JUMP JUMPDEST SWAP5 SWAP4 POP POP POP POP JUMP JUMPDEST PUSH1 0x0 PUSH1 0x1F NOT PUSH1 0x1F DUP4 ADD AND SWAP1 POP SWAP2 SWAP1 POP JUMP JUMPDEST PUSH32 0x4E487B7100000000000000000000000000000000000000000000000000000000 PUSH1 0x0 MSTORE PUSH1 0x41 PUSH1 0x4 MSTORE PUSH1 0x24 PUSH1 0x0 REVERT JUMPDEST PUSH2 0x23CD DUP3 PUSH2 0x2384 JUMP JUMPDEST DUP2 ADD DUP2 DUP2 LT PUSH8 0xFFFFFFFFFFFFFFFF DUP3 GT OR ISZERO PUSH2 0x23EC JUMPI PUSH2 0x23EB PUSH2 0x2395 JUMP JUMPDEST JUMPDEST DUP1 PUSH1 0x40 MSTORE POP POP POP JUMP JUMPDEST PUSH1 0x0 PUSH2 0x23FF PUSH2 0x1FB2 JUMP JUMPDEST SWAP1 POP PUSH2 0x240B DUP3 DUP3 PUSH2 0x23C4 JUMP JUMPDEST SWAP2 SWAP1 POP JUMP JUMPDEST PUSH1 0x0 PUSH8 0xFFFFFFFFFFFFFFFF DUP3 GT ISZERO PUSH2 0x242B JUMPI PUSH2 0x242A PUSH2 0x2395 JUMP JUMPDEST JUMPDEST PUSH1 0x20 DUP3 MUL SWAP1 POP PUSH1 0x20 DUP2 ADD SWAP1 POP SWAP2 SWAP1 POP JUMP JUMPDEST PUSH2 0x2445 DUP2 PUSH2 0x204B JUMP JUMPDEST DUP2 EQ PUSH2 0x2450 JUMPI PUSH1 0x0 DUP1 REVERT JUMPDEST POP JUMP JUMPDEST PUSH1 0x0 DUP2 CALLDATALOAD SWAP1 POP PUSH2 0x2462 DUP2 PUSH2 0x243C JUMP JUMPDEST SWAP3 SWAP2 POP POP JUMP JUMPDEST PUSH1 0x0 PUSH2 0x247B PUSH2 0x2476 DUP5 PUSH2 0x2410 JUMP JUMPDEST PUSH2 0x23F5 JUMP JUMPDEST SWAP1 POP DUP1 DUP4 DUP3 MSTORE PUSH1 0x20 DUP3 ADD SWAP1 POP PUSH1 0x20 DUP5 MUL DUP4 ADD DUP6 DUP2 GT ISZERO PUSH2 0x249E JUMPI PUSH2 0x249D PUSH2 0x1FD0 JUMP JUMPDEST JUMPDEST DUP4 JUMPDEST DUP2 DUP2 LT ISZERO PUSH2 0x24C7 JUMPI DUP1 PUSH2 0x24B3 DUP9 DUP3 PUSH2 0x2453 JUMP JUMPDEST DUP5 MSTORE PUSH1 0x20 DUP5 ADD SWAP4 POP POP PUSH1 0x20 DUP2 ADD SWAP1 POP PUSH2 0x24A0 JUMP JUMPDEST POP POP POP SWAP4 SWAP3 POP POP POP JUMP JUMPDEST PUSH1 0x0 DUP3 PUSH1 0x1F DUP4 ADD SLT PUSH2 0x24E6 JUMPI PUSH2 0x24E5 PUSH2 0x1FC6 JUMP JUMPDEST JUMPDEST DUP2 CALLDATALOAD PUSH2 0x24F6 DUP5 DUP3 PUSH1 0x20 DUP7 ADD PUSH2 0x2468 JUMP JUMPDEST SWAP2 POP POP SWAP3 SWAP2 POP POP JUMP JUMPDEST PUSH1 0x0 PUSH8 0xFFFFFFFFFFFFFFFF DUP3 GT ISZERO PUSH2 0x251A JUMPI PUSH2 0x2519 PUSH2 0x2395 JUMP JUMPDEST JUMPDEST PUSH1 0x20 DUP3 MUL SWAP1 POP PUSH1 0x20 DUP2 ADD SWAP1 POP SWAP2 SWAP1 POP JUMP JUMPDEST PUSH1 0x0 PUSH2 0x253E PUSH2 0x2539 DUP5 PUSH2 0x24FF JUMP JUMPDEST PUSH2 0x23F5 JUMP JUMPDEST SWAP1 POP DUP1 DUP4 DUP3 MSTORE PUSH1 0x20 DUP3 ADD SWAP1 POP PUSH1 0x20 DUP5 MUL DUP4 ADD DUP6 DUP2 GT ISZERO PUSH2 0x2561 JUMPI PUSH2 0x2560 PUSH2 0x1FD0 JUMP JUMPDEST JUMPDEST DUP4 JUMPDEST DUP2 DUP2 LT ISZERO PUSH2 0x258A JUMPI DUP1 PUSH2 0x2576 DUP9 DUP3 PUSH2 0x2146 JUMP JUMPDEST DUP5 MSTORE PUSH1 0x20 DUP5 ADD SWAP4 POP POP PUSH1 0x20 DUP2 ADD SWAP1 POP PUSH2 0x2563 JUMP JUMPDEST POP POP POP SWAP4 SWAP3 POP POP POP JUMP JUMPDEST PUSH1 0x0 DUP3 PUSH1 0x1F DUP4 ADD SLT PUSH2 0x25A9 JUMPI PUSH2 0x25A8 PUSH2 0x1FC6 JUMP JUMPDEST JUMPDEST DUP2 CALLDATALOAD PUSH2 0x25B9 DUP5 DUP3 PUSH1 0x20 DUP7 ADD PUSH2 0x252B JUMP JUMPDEST SWAP2 POP POP SWAP3 SWAP2 POP POP JUMP JUMPDEST PUSH1 0x0 DUP1 PUSH1 0x0 DUP1 PUSH1 0x80 DUP6 DUP8 SUB SLT ISZERO PUSH2 0x25DC JUMPI PUSH2 0x25DB PUSH2 0x1FBC JUMP JUMPDEST JUMPDEST PUSH1 0x0 DUP6 ADD CALLDATALOAD PUSH8 0xFFFFFFFFFFFFFFFF DUP2 GT ISZERO PUSH2 0x25FA JUMPI PUSH2 0x25F9 PUSH2 0x1FC1 JUMP JUMPDEST JUMPDEST PUSH2 0x2606 DUP8 DUP3 DUP9 ADD PUSH2 0x24D1 JUMP JUMPDEST SWAP5 POP POP PUSH1 0x20 DUP6 ADD CALLDATALOAD PUSH8 0xFFFFFFFFFFFFFFFF DUP2 GT ISZERO PUSH2 0x2627 JUMPI PUSH2 0x2626 PUSH2 0x1FC1 JUMP JUMPDEST JUMPDEST PUSH2 0x2633 DUP8 DUP3 DUP9 ADD PUSH2 0x24D1 JUMP JUMPDEST SWAP4 POP POP PUSH1 0x40 DUP6 ADD CALLDATALOAD PUSH8 0xFFFFFFFFFFFFFFFF DUP2 GT ISZERO PUSH2 0x2654 JUMPI PUSH2 0x2653 PUSH2 0x1FC1 JUMP JUMPDEST JUMPDEST PUSH2 0x2660 DUP8 DUP3 DUP9 ADD PUSH2 0x2594 JUMP JUMPDEST SWAP3 POP POP PUSH1 0x60 DUP6 ADD CALLDATALOAD PUSH8 0xFFFFFFFFFFFFFFFF DUP2 GT ISZERO PUSH2 0x2681 JUMPI PUSH2 0x2680 PUSH2 0x1FC1 JUMP JUMPDEST JUMPDEST PUSH2 0x268D DUP8 DUP3 DUP9 ADD PUSH2 0x2594 JUMP JUMPDEST SWAP2 POP POP SWAP3 SWAP6 SWAP2 SWAP5 POP SWAP3 POP JUMP JUMPDEST PUSH1 0x0 PUSH1 0x20 DUP3 DUP5 SUB SLT ISZERO PUSH2 0x26AF JUMPI PUSH2 0x26AE PUSH2 0x1FBC JUMP JUMPDEST JUMPDEST PUSH1 0x0 PUSH2 0x26BD DUP5 DUP3 DUP6 ADD PUSH2 0x2453 JUMP JUMPDEST SWAP2 POP POP SWAP3 SWAP2 POP POP JUMP JUMPDEST PUSH1 0x0 DUP3 DUP3 MSTORE PUSH1 0x20 DUP3 ADD SWAP1 POP SWAP3 SWAP2 POP POP JUMP JUMPDEST PUSH32 0x436F6E7472616374206E6F7420616C6C6F776564000000000000000000000000 PUSH1 0x0 DUP3 ADD MSTORE POP JUMP JUMPDEST PUSH1 0x0 PUSH2 0x270D PUSH1 0x14 DUP4 PUSH2 0x26C6 JUMP JUMPDEST SWAP2 POP PUSH2 0x2718 DUP3 PUSH2 0x26D7 JUMP JUMPDEST PUSH1 0x20 DUP3 ADD SWAP1 POP SWAP2 SWAP1 POP JUMP JUMPDEST PUSH1 0x0 PUSH1 0x20 DUP3 ADD SWAP1 POP DUP2 DUP2 SUB PUSH1 0x0 DUP4 ADD MSTORE PUSH2 0x273C DUP2 PUSH2 0x2700 JUMP JUMPDEST SWAP1 POP SWAP2 SWAP1 POP JUMP JUMPDEST PUSH32 0x50726F787920636F6E7472616374206E6F7420616C6C6F776564000000000000 PUSH1 0x0 DUP3 ADD MSTORE POP JUMP JUMPDEST PUSH1 0x0 PUSH2 0x2779 PUSH1 0x1A DUP4 PUSH2 0x26C6 JUMP JUMPDEST SWAP2 POP PUSH2 0x2784 DUP3 PUSH2 0x2743 JUMP JUMPDEST PUSH1 0x20 DUP3 ADD SWAP1 POP SWAP2 SWAP1 POP JUMP JUMPDEST PUSH1 0x0 PUSH1 0x20 DUP3 ADD SWAP1 POP DUP2 DUP2 SUB PUSH1 0x0 DUP4 ADD MSTORE PUSH2 0x27A8 DUP2 PUSH2 0x276C JUMP JUMPDEST SWAP1 POP SWAP2 SWAP1 POP JUMP JUMPDEST PUSH32 0x5374616B696E673A20526567697374657220636F6C6C656374696F6E20627920 PUSH1 0x0 DUP3 ADD MSTORE PUSH32 0x6164645374616B696E674E667473000000000000000000000000000000000000 PUSH1 0x20 DUP3 ADD MSTORE POP JUMP JUMPDEST PUSH1 0x0 PUSH2 0x280B PUSH1 0x2E DUP4 PUSH2 0x26C6 JUMP JUMPDEST SWAP2 POP PUSH2 0x2816 DUP3 PUSH2 0x27AF JUMP JUMPDEST PUSH1 0x40 DUP3 ADD SWAP1 POP SWAP2 SWAP1 POP JUMP JUMPDEST PUSH1 0x0 PUSH1 0x20 DUP3 ADD SWAP1 POP DUP2 DUP2 SUB PUSH1 0x0 DUP4 ADD MSTORE PUSH2 0x283A DUP2 PUSH2 0x27FE JUMP JUMPDEST SWAP1 POP SWAP2 SWAP1 POP JUMP JUMPDEST PUSH32 0x4E6F20746F6B656E730000000000000000000000000000000000000000000000 PUSH1 0x0 DUP3 ADD MSTORE POP JUMP JUMPDEST PUSH1 0x0 PUSH2 0x2877 PUSH1 0x9 DUP4 PUSH2 0x26C6 JUMP JUMPDEST SWAP2 POP PUSH2 0x2882 DUP3 PUSH2 0x2841 JUMP JUMPDEST PUSH1 0x20 DUP3 ADD SWAP1 POP SWAP2 SWAP1 POP JUMP JUMPDEST PUSH1 0x0 PUSH1 0x20 DUP3 ADD SWAP1 POP DUP2 DUP2 SUB PUSH1 0x0 DUP4 ADD MSTORE PUSH2 0x28A6 DUP2 PUSH2 0x286A JUMP JUMPDEST SWAP1 POP SWAP2 SWAP1 POP JUMP JUMPDEST PUSH32 0x4E487B7100000000000000000000000000000000000000000000000000000000 PUSH1 0x0 MSTORE PUSH1 0x32 PUSH1 0x4 MSTORE PUSH1 0x24 PUSH1 0x0 REVERT JUMPDEST PUSH32 0x4E6F74206120746F6B656E206F776E6572000000000000000000000000000000 PUSH1 0x0 DUP3 ADD MSTORE POP JUMP JUMPDEST PUSH1 0x0 PUSH2 0x2912 PUSH1 0x11 DUP4 PUSH2 0x26C6 JUMP JUMPDEST SWAP2 POP PUSH2 0x291D DUP3 PUSH2 0x28DC JUMP JUMPDEST PUSH1 0x20 DUP3 ADD SWAP1 POP SWAP2 SWAP1 POP JUMP JUMPDEST PUSH1 0x0 PUSH1 0x20 DUP3 ADD SWAP1 POP DUP2 DUP2 SUB PUSH1 0x0 DUP4 ADD MSTORE PUSH2 0x2941 DUP2 PUSH2 0x2905 JUMP JUMPDEST SWAP1 POP SWAP2 SWAP1 POP JUMP JUMPDEST PUSH32 0x4E487B7100000000000000000000000000000000000000000000000000000000 PUSH1 0x0 MSTORE PUSH1 0x11 PUSH1 0x4 MSTORE PUSH1 0x24 PUSH1 0x0 REVERT JUMPDEST PUSH1 0x0 PUSH2 0x2982 DUP3 PUSH2 0x20FB JUMP JUMPDEST SWAP2 POP PUSH2 0x298D DUP4 PUSH2 0x20FB JUMP JUMPDEST SWAP3 POP DUP3 DUP3 ADD SWAP1 POP DUP1 DUP3 GT ISZERO PUSH2 0x29A5 JUMPI PUSH2 0x29A4 PUSH2 0x2948 JUMP JUMPDEST JUMPDEST SWAP3 SWAP2 POP POP JUMP JUMPDEST PUSH32 0x4E6F742061626C6520746F20636C61696D207965740000000000000000000000 PUSH1 0x0 DUP3 ADD MSTORE POP JUMP JUMPDEST PUSH1 0x0 PUSH2 0x29E1 PUSH1 0x15 DUP4 PUSH2 0x26C6 JUMP JUMPDEST SWAP2 POP PUSH2 0x29EC DUP3 PUSH2 0x29AB JUMP JUMPDEST PUSH1 0x20 DUP3 ADD SWAP1 POP SWAP2 SWAP1 POP JUMP JUMPDEST PUSH1 0x0 PUSH1 0x20 DUP3 ADD SWAP1 POP DUP2 DUP2 SUB PUSH1 0x0 DUP4 ADD MSTORE PUSH2 0x2A10 DUP2 PUSH2 0x29D4 JUMP JUMPDEST SWAP1 POP SWAP2 SWAP1 POP JUMP JUMPDEST PUSH32 0x416C726561647920756E6C6F636B656400000000000000000000000000000000 PUSH1 0x0 DUP3 ADD MSTORE POP JUMP JUMPDEST PUSH1 0x0 PUSH2 0x2A4D PUSH1 0x10 DUP4 PUSH2 0x26C6 JUMP JUMPDEST SWAP2 POP PUSH2 0x2A58 DUP3 PUSH2 0x2A17 JUMP JUMPDEST PUSH1 0x20 DUP3 ADD SWAP1 POP SWAP2 SWAP1 POP JUMP JUMPDEST PUSH1 0x0 PUSH1 0x20 DUP3 ADD SWAP1 POP DUP2 DUP2 SUB PUSH1 0x0 DUP4 ADD MSTORE PUSH2 0x2A7C DUP2 PUSH2 0x2A40 JUMP JUMPDEST SWAP1 POP SWAP2 SWAP1 POP JUMP JUMPDEST PUSH1 0x0 PUSH2 0x2A8E DUP3 PUSH2 0x20FB JUMP JUMPDEST SWAP2 POP PUSH2 0x2A99 DUP4 PUSH2 0x20FB JUMP JUMPDEST SWAP3 POP DUP3 DUP3 SUB SWAP1 POP DUP2 DUP2 GT ISZERO PUSH2 0x2AB1 JUMPI PUSH2 0x2AB0 PUSH2 0x2948 JUMP JUMPDEST JUMPDEST SWAP3 SWAP2 POP POP JUMP JUMPDEST PUSH1 0x0 PUSH1 0x40 DUP3 ADD SWAP1 POP PUSH2 0x2ACC PUSH1 0x0 DUP4 ADD DUP6 PUSH2 0x2188 JUMP JUMPDEST PUSH2 0x2AD9 PUSH1 0x20 DUP4 ADD DUP5 PUSH2 0x2105 JUMP JUMPDEST SWAP4 SWAP3 POP POP POP JUMP JUMPDEST PUSH1 0x0 PUSH2 0x2AEB DUP3 PUSH2 0x20FB JUMP JUMPDEST SWAP2 POP PUSH32 0xFFFFFFFFFFFFFFFFFFFFFFFFFFFFFFFFFFFFFFFFFFFFFFFFFFFFFFFFFFFFFFFF DUP3 SUB PUSH2 0x2B1D JUMPI PUSH2 0x2B1C PUSH2 0x2948 JUMP JUMPDEST JUMPDEST PUSH1 0x1 DUP3 ADD SWAP1 POP SWAP2 SWAP1 POP JUMP JUMPDEST PUSH1 0x0 DUP3 DUP3 MSTORE PUSH1 0x20 DUP3 ADD SWAP1 POP SWAP3 SWAP2 POP POP JUMP JUMPDEST PUSH1 0x0 DUP1 REVERT JUMPDEST DUP3 DUP2 DUP4 CALLDATACOPY POP POP POP JUMP JUMPDEST PUSH1 0x0 PUSH2 0x2B53 DUP4 DUP6 PUSH2 0x2B28 JUMP JUMPDEST SWAP4 POP PUSH32 0x7FFFFFFFFFFFFFFFFFFFFFFFFFFFFFFFFFFFFFFFFFFFFFFFFFFFFFFFFFFFFFF DUP4 GT ISZERO PUSH2 0x2B86 JUMPI PUSH2 0x2B85 PUSH2 0x2B39 JUMP JUMPDEST JUMPDEST PUSH1 0x20 DUP4 MUL SWAP3 POP PUSH2 0x2B97 DUP4 DUP6 DUP5 PUSH2 0x2B3E JUMP JUMPDEST DUP3 DUP5 ADD SWAP1 POP SWAP4 SWAP3 POP POP POP JUMP JUMPDEST PUSH1 0x0 PUSH1 0x40 DUP3 ADD SWAP1 POP DUP2 DUP2 SUB PUSH1 0x0 DUP4 ADD MSTORE PUSH2 0x2BBE DUP2 DUP6 DUP8 PUSH2 0x2B47 JUMP JUMPDEST SWAP1 POP PUSH2 0x2BCD PUSH1 0x20 DUP4 ADD DUP5 PUSH2 0x2105 JUMP JUMPDEST SWAP5 SWAP4 POP POP POP POP JUMP JUMPDEST PUSH32 0x5265656E7472616E637947756172643A207265656E7472616E742063616C6C00 PUSH1 0x0 DUP3 ADD MSTORE POP JUMP JUMPDEST PUSH1 0x0 PUSH2 0x2C0B PUSH1 0x1F DUP4 PUSH2 0x26C6 JUMP JUMPDEST SWAP2 POP PUSH2 0x2C16 DUP3 PUSH2 0x2BD5 JUMP JUMPDEST PUSH1 0x20 DUP3 ADD SWAP1 POP SWAP2 SWAP1 POP JUMP JUMPDEST PUSH1 0x0 PUSH1 0x20 DUP3 ADD SWAP1 POP DUP2 DUP2 SUB PUSH1 0x0 DUP4 ADD MSTORE PUSH2 0x2C3A DUP2 PUSH2 0x2BFE JUMP JUMPDEST SWAP1 POP SWAP2 SWAP1 POP JUMP JUMPDEST PUSH1 0x0 DUP2 MLOAD SWAP1 POP PUSH2 0x2C50 DUP2 PUSH2 0x243C JUMP JUMPDEST SWAP3 SWAP2 POP POP JUMP JUMPDEST PUSH1 0x0 PUSH1 0x20 DUP3 DUP5 SUB SLT ISZERO PUSH2 0x2C6C JUMPI PUSH2 0x2C6B PUSH2 0x1FBC JUMP JUMPDEST JUMPDEST PUSH1 0x0 PUSH2 0x2C7A DUP5 DUP3 DUP6 ADD PUSH2 0x2C41 JUMP JUMPDEST SWAP2 POP POP SWAP3 SWAP2 POP POP JUMP JUMPDEST PUSH32 0x596F7520646F6E277420686F6C64207468697320746F6B656E00000000000000 PUSH1 0x0 DUP3 ADD MSTORE POP JUMP JUMPDEST PUSH1 0x0 PUSH2 0x2CB9 PUSH1 0x19 DUP4 PUSH2 0x26C6 JUMP JUMPDEST SWAP2 POP PUSH2 0x2CC4 DUP3 PUSH2 0x2C83 JUMP JUMPDEST PUSH1 0x20 DUP3 ADD SWAP1 POP SWAP2 SWAP1 POP JUMP JUMPDEST PUSH1 0x0 PUSH1 0x20 DUP3 ADD SWAP1 POP DUP2 DUP2 SUB PUSH1 0x0 DUP4 ADD MSTORE PUSH2 0x2CE8 DUP2 PUSH2 0x2CAC JUMP JUMPDEST SWAP1 POP SWAP2 SWAP1 POP JUMP JUMPDEST PUSH1 0x0 PUSH1 0x60 DUP3 ADD SWAP1 POP PUSH2 0x2D04 PUSH1 0x0 DUP4 ADD DUP7 PUSH2 0x2188 JUMP JUMPDEST PUSH2 0x2D11 PUSH1 0x20 DUP4 ADD DUP6 PUSH2 0x2188 JUMP JUMPDEST PUSH2 0x2D1E PUSH1 0x40 DUP4 ADD DUP5 PUSH2 0x2105 JUMP JUMPDEST SWAP5 SWAP4 POP POP POP POP JUMP JUMPDEST PUSH1 0x0 PUSH1 0x20 DUP3 ADD SWAP1 POP DUP2 DUP2 SUB PUSH1 0x0 DUP4 ADD MSTORE PUSH2 0x2D41 DUP2 DUP5 DUP7 PUSH2 0x2B47 JUMP JUMPDEST SWAP1 POP SWAP4 SWAP3 POP POP POP JUMP JUMPDEST PUSH32 0x496E76616C6964206C6F636B20706572696F642E000000000000000000000000 PUSH1 0x0 DUP3 ADD MSTORE POP JUMP JUMPDEST PUSH1 0x0 PUSH2 0x2D80 PUSH1 0x14 DUP4 PUSH2 0x26C6 JUMP JUMPDEST SWAP2 POP PUSH2 0x2D8B DUP3 PUSH2 0x2D4A JUMP JUMPDEST PUSH1 0x20 DUP3 ADD SWAP1 POP SWAP2 SWAP1 POP JUMP JUMPDEST PUSH1 0x0 PUSH1 0x20 DUP3 ADD SWAP1 POP DUP2 DUP2 SUB PUSH1 0x0 DUP4 ADD MSTORE PUSH2 0x2DAF DUP2 PUSH2 0x2D73 JUMP JUMPDEST SWAP1 POP SWAP2 SWAP1 POP JUMP JUMPDEST PUSH32 0x4E6F742061626C6520746F20756E6C6F636B2079657400000000000000000000 PUSH1 0x0 DUP3 ADD MSTORE POP JUMP JUMPDEST PUSH1 0x0 PUSH2 0x2DEC PUSH1 0x16 DUP4 PUSH2 0x26C6 JUMP JUMPDEST SWAP2 POP PUSH2 0x2DF7 DUP3 PUSH2 0x2DB6 JUMP JUMPDEST PUSH1 0x20 DUP3 ADD SWAP1 POP SWAP2 SWAP1 POP JUMP JUMPDEST PUSH1 0x0 PUSH1 0x20 DUP3 ADD SWAP1 POP DUP2 DUP2 SUB PUSH1 0x0 DUP4 ADD MSTORE PUSH2 0x2E1B DUP2 PUSH2 0x2DDF JUMP JUMPDEST SWAP1 POP SWAP2 SWAP1 POP JUMP JUMPDEST PUSH32 0x496E76616C6964205374616B6520546F6B656E00000000000000000000000000 PUSH1 0x0 DUP3 ADD MSTORE POP JUMP JUMPDEST PUSH1 0x0 PUSH2 0x2E58 PUSH1 0x13 DUP4 PUSH2 0x26C6 JUMP JUMPDEST SWAP2 POP PUSH2 0x2E63 DUP3 PUSH2 0x2E22 JUMP JUMPDEST PUSH1 0x20 DUP3 ADD SWAP1 POP SWAP2 SWAP1 POP JUMP JUMPDEST PUSH1 0x0 PUSH1 0x20 DUP3 ADD SWAP1 POP DUP2 DUP2 SUB PUSH1 0x0 DUP4 ADD MSTORE PUSH2 0x2E87 DUP2 PUSH2 0x2E4B JUMP JUMPDEST SWAP1 POP SWAP2 SWAP1 POP JUMP JUMPDEST PUSH32 0x496E76616C69642052657761726420546F6B656E000000000000000000000000 PUSH1 0x0 DUP3 ADD MSTORE POP JUMP JUMPDEST PUSH1 0x0 PUSH2 0x2EC4 PUSH1 0x14 DUP4 PUSH2 0x26C6 JUMP JUMPDEST SWAP2 POP PUSH2 0x2ECF DUP3 PUSH2 0x2E8E JUMP JUMPDEST PUSH1 0x20 DUP3 ADD SWAP1 POP SWAP2 SWAP1 POP JUMP JUMPDEST PUSH1 0x0 PUSH1 0x20 DUP3 ADD SWAP1 POP DUP2 DUP2 SUB PUSH1 0x0 DUP4 ADD MSTORE PUSH2 0x2EF3 DUP2 PUSH2 0x2EB7 JUMP JUMPDEST SWAP1 POP SWAP2 SWAP1 POP JUMP JUMPDEST PUSH1 0x0 DUP2 SWAP1 POP SWAP2 SWAP1 POP JUMP JUMPDEST PUSH1 0x0 PUSH32 0xFFFFFFFF00000000000000000000000000000000000000000000000000000000 DUP3 AND SWAP1 POP SWAP2 SWAP1 POP JUMP JUMPDEST PUSH1 0x0 DUP2 PUSH1 0xE0 SHL SWAP1 POP SWAP2 SWAP1 POP JUMP JUMPDEST PUSH1 0x0 PUSH2 0x2F58 PUSH2 0x2F53 PUSH2 0x2F4E DUP5 PUSH2 0x2EFA JUMP JUMPDEST PUSH2 0x2F30 JUMP JUMPDEST PUSH2 0x2F04 JUMP JUMPDEST SWAP1 POP SWAP2 SWAP1 POP JUMP JUMPDEST PUSH2 0x2F68 DUP2 PUSH2 0x2F3D JUMP JUMPDEST DUP3 MSTORE POP POP JUMP JUMPDEST PUSH1 0x0 PUSH1 0x20 DUP3 ADD SWAP1 POP PUSH2 0x2F83 PUSH1 0x0 DUP4 ADD DUP5 PUSH2 0x2F5F JUMP JUMPDEST SWAP3 SWAP2 POP POP JUMP JUMPDEST PUSH2 0x2F92 DUP2 PUSH2 0x21F2 JUMP JUMPDEST DUP2 EQ PUSH2 0x2F9D JUMPI PUSH1 0x0 DUP1 REVERT JUMPDEST POP JUMP JUMPDEST PUSH1 0x0 DUP2 MLOAD SWAP1 POP PUSH2 0x2FAF DUP2 PUSH2 0x2F89 JUMP JUMPDEST SWAP3 SWAP2 POP POP JUMP JUMPDEST PUSH1 0x0 PUSH1 0x20 DUP3 DUP5 SUB SLT ISZERO PUSH2 0x2FCB JUMPI PUSH2 0x2FCA PUSH2 0x1FBC JUMP JUMPDEST JUMPDEST PUSH1 0x0 PUSH2 0x2FD9 DUP5 DUP3 DUP6 ADD PUSH2 0x2FA0 JUMP JUMPDEST SWAP2 POP POP SWAP3 SWAP2 POP POP JUMP JUMPDEST PUSH32 0x4E6F6E2D65726337323100000000000000000000000000000000000000000000 PUSH1 0x0 DUP3 ADD MSTORE POP JUMP JUMPDEST PUSH1 0x0 PUSH2 0x3018 PUSH1 0xA DUP4 PUSH2 0x26C6 JUMP JUMPDEST SWAP2 POP PUSH2 0x3023 DUP3 PUSH2 0x2FE2 JUMP JUMPDEST PUSH1 0x20 DUP3 ADD SWAP1 POP SWAP2 SWAP1 POP JUMP JUMPDEST PUSH1 0x0 PUSH1 0x20 DUP3 ADD SWAP1 POP DUP2 DUP2 SUB PUSH1 0x0 DUP4 ADD MSTORE PUSH2 0x3047 DUP2 PUSH2 0x300B JUMP JUMPDEST SWAP1 POP SWAP2 SWAP1 POP JUMP JUMPDEST PUSH32 0x4F776E61626C653A206E6577206F776E657220697320746865207A65726F2061 PUSH1 0x0 DUP3 ADD MSTORE PUSH32 0x6464726573730000000000000000000000000000000000000000000000000000 PUSH1 0x20 DUP3 ADD MSTORE POP JUMP JUMPDEST PUSH1 0x0 PUSH2 0x30AA PUSH1 0x26 DUP4 PUSH2 0x26C6 JUMP JUMPDEST SWAP2 POP PUSH2 0x30B5 DUP3 PUSH2 0x304E JUMP JUMPDEST PUSH1 0x40 DUP3 ADD SWAP1 POP SWAP2 SWAP1 POP JUMP JUMPDEST PUSH1 0x0 PUSH1 0x20 DUP3 ADD SWAP1 POP DUP2 DUP2 SUB PUSH1 0x0 DUP4 ADD MSTORE PUSH2 0x30D9 DUP2 PUSH2 0x309D JUMP JUMPDEST SWAP1 POP SWAP2 SWAP1 POP JUMP JUMPDEST PUSH1 0x0 PUSH2 0x30EB DUP3 PUSH2 0x20FB JUMP JUMPDEST SWAP2 POP PUSH2 0x30F6 DUP4 PUSH2 0x20FB JUMP JUMPDEST SWAP3 POP DUP2 PUSH32 0xFFFFFFFFFFFFFFFFFFFFFFFFFFFFFFFFFFFFFFFFFFFFFFFFFFFFFFFFFFFFFFFF DIV DUP4 GT DUP3 ISZERO ISZERO AND ISZERO PUSH2 0x312F JUMPI PUSH2 0x312E PUSH2 0x2948 JUMP JUMPDEST JUMPDEST DUP3 DUP3 MUL SWAP1 POP SWAP3 SWAP2 POP POP JUMP JUMPDEST PUSH32 0x4E487B7100000000000000000000000000000000000000000000000000000000 PUSH1 0x0 MSTORE PUSH1 0x12 PUSH1 0x4 MSTORE PUSH1 0x24 PUSH1 0x0 REVERT JUMPDEST PUSH1 0x0 PUSH2 0x3174 DUP3 PUSH2 0x20FB JUMP JUMPDEST SWAP2 POP PUSH2 0x317F DUP4 PUSH2 0x20FB JUMP JUMPDEST SWAP3 POP DUP3 PUSH2 0x318F JUMPI PUSH2 0x318E PUSH2 0x313A JUMP JUMPDEST JUMPDEST DUP3 DUP3 DIV SWAP1 POP SWAP3 SWAP2 POP POP JUMP JUMPDEST PUSH32 0x4F776E61626C653A2063616C6C6572206973206E6F7420746865206F776E6572 PUSH1 0x0 DUP3 ADD MSTORE POP JUMP JUMPDEST PUSH1 0x0 PUSH2 0x31D0 PUSH1 0x20 DUP4 PUSH2 0x26C6 JUMP JUMPDEST SWAP2 POP PUSH2 0x31DB DUP3 PUSH2 0x319A JUMP JUMPDEST PUSH1 0x20 DUP3 ADD SWAP1 POP SWAP2 SWAP1 POP JUMP JUMPDEST PUSH1 0x0 PUSH1 0x20 DUP3 ADD SWAP1 POP DUP2 DUP2 SUB PUSH1 0x0 DUP4 ADD MSTORE PUSH2 0x31FF DUP2 PUSH2 0x31C3 JUMP JUMPDEST SWAP1 POP SWAP2 SWAP1 POP JUMP INVALID LOG2 PUSH5 0x6970667358 0x22 SLT KECCAK256 TIMESTAMP 0xA5 ADDRESS GT BYTE SELFBALANCE 0xCD 0xAB 0xBD PUSH27 0xEC6ECAE91A8F9F9C5EE3EC0885F07556E73BECDADAD164736F6C63 NUMBER STOP ADDMOD LT STOP CALLER "
				},
				"gasEstimates": {
					"creation": {
						"codeDepositCost": "2572000",
						"executionCost": "infinite",
						"totalCost": "infinite"
					},
					"external": {
						"WAVE()": "2451",
						"addStakingNfts(address[],address[],uint256[],uint256[])": "infinite",
						"claimRewards(uint256[],address)": "infinite",
						"claimedRewards(uint256,address)": "infinite",
						"lockInfo(address,uint256)": "infinite",
						"lockNFT(uint256[],address)": "infinite",
						"lockPeriod()": "2474",
						"nftInfo(address)": "infinite",
						"owner()": "2633",
						"renounceOwnership()": "30465",
						"setLockPeriod(uint256)": "infinite",
						"transferOwnership(address)": "30832",
						"unlockNFT(uint256[],address)": "infinite"
					},
					"internal": {
						"_rewardAmount(uint256,contract IERC721)": "infinite"
					}
				},
				"methodIdentifiers": {
					"WAVE()": "c69d1923",
					"addStakingNfts(address[],address[],uint256[],uint256[])": "eee00ed0",
					"claimRewards(uint256[],address)": "0520537f",
					"claimedRewards(uint256,address)": "b33068c4",
					"lockInfo(address,uint256)": "b2520a7c",
					"lockNFT(uint256[],address)": "1902732e",
					"lockPeriod()": "3fd8b02f",
					"nftInfo(address)": "e9545b92",
					"owner()": "8da5cb5b",
					"renounceOwnership()": "715018a6",
					"setLockPeriod(uint256)": "779972da",
					"transferOwnership(address)": "f2fde38b",
					"unlockNFT(uint256[],address)": "9f3625f0"
				}
			},
			"storageLayout": {
				"storage": [
					{
						"astId": 7,
						"contract": "contracts/Staking.sol:NFTStaking1",
						"label": "_owner",
						"offset": 0,
						"slot": "0",
						"type": "t_address"
					},
					{
						"astId": 123,
						"contract": "contracts/Staking.sol:NFTStaking1",
						"label": "_status",
						"offset": 0,
						"slot": "1",
						"type": "t_uint256"
					},
					{
						"astId": 614,
						"contract": "contracts/Staking.sol:NFTStaking1",
						"label": "lockPeriod",
						"offset": 0,
						"slot": "2",
						"type": "t_uint256"
					},
					{
						"astId": 634,
						"contract": "contracts/Staking.sol:NFTStaking1",
						"label": "lockInfo",
						"offset": 0,
						"slot": "3",
						"type": "t_mapping(t_contract(IERC721)268,t_mapping(t_uint256,t_struct(LockInfo)626_storage))"
					},
					{
						"astId": 648,
						"contract": "contracts/Staking.sol:NFTStaking1",
						"label": "nftInfo",
						"offset": 0,
						"slot": "4",
						"type": "t_mapping(t_contract(IERC721)268,t_struct(stakeNftInfo)642_storage)"
					},
					{
						"astId": 651,
						"contract": "contracts/Staking.sol:NFTStaking1",
						"label": "WAVE",
						"offset": 0,
						"slot": "5",
						"type": "t_uint256"
					}
				],
				"types": {
					"t_address": {
						"encoding": "inplace",
						"label": "address",
						"numberOfBytes": "20"
					},
					"t_bool": {
						"encoding": "inplace",
						"label": "bool",
						"numberOfBytes": "1"
					},
					"t_contract(IERC721)268": {
						"encoding": "inplace",
						"label": "contract IERC721",
						"numberOfBytes": "20"
					},
					"t_contract(IRewardsToken)1359": {
						"encoding": "inplace",
						"label": "contract IRewardsToken",
						"numberOfBytes": "20"
					},
					"t_mapping(t_contract(IERC721)268,t_mapping(t_uint256,t_struct(LockInfo)626_storage))": {
						"encoding": "mapping",
						"key": "t_contract(IERC721)268",
						"label": "mapping(contract IERC721 => mapping(uint256 => struct NFTStaking1.LockInfo))",
						"numberOfBytes": "32",
						"value": "t_mapping(t_uint256,t_struct(LockInfo)626_storage)"
					},
					"t_mapping(t_contract(IERC721)268,t_struct(stakeNftInfo)642_storage)": {
						"encoding": "mapping",
						"key": "t_contract(IERC721)268",
						"label": "mapping(contract IERC721 => struct NFTStaking1.stakeNftInfo)",
						"numberOfBytes": "32",
						"value": "t_struct(stakeNftInfo)642_storage"
					},
					"t_mapping(t_uint256,t_struct(LockInfo)626_storage)": {
						"encoding": "mapping",
						"key": "t_uint256",
						"label": "mapping(uint256 => struct NFTStaking1.LockInfo)",
						"numberOfBytes": "32",
						"value": "t_struct(LockInfo)626_storage"
					},
					"t_struct(LockInfo)626_storage": {
						"encoding": "inplace",
						"label": "struct NFTStaking1.LockInfo",
						"members": [
							{
								"astId": 616,
								"contract": "contracts/Staking.sol:NFTStaking1",
								"label": "owner",
								"offset": 0,
								"slot": "0",
								"type": "t_address"
							},
							{
								"astId": 618,
								"contract": "contracts/Staking.sol:NFTStaking1",
								"label": "lockedTime",
								"offset": 0,
								"slot": "1",
								"type": "t_uint256"
							},
							{
								"astId": 620,
								"contract": "contracts/Staking.sol:NFTStaking1",
								"label": "claimedRewards",
								"offset": 0,
								"slot": "2",
								"type": "t_uint256"
							},
							{
								"astId": 622,
								"contract": "contracts/Staking.sol:NFTStaking1",
								"label": "isUnlocked",
								"offset": 0,
								"slot": "3",
								"type": "t_bool"
							},
							{
								"astId": 625,
								"contract": "contracts/Staking.sol:NFTStaking1",
								"label": "contractAddress",
								"offset": 1,
								"slot": "3",
								"type": "t_contract(IERC721)268"
							}
						],
						"numberOfBytes": "128"
					},
					"t_struct(stakeNftInfo)642_storage": {
						"encoding": "inplace",
						"label": "struct NFTStaking1.stakeNftInfo",
						"members": [
							{
								"astId": 637,
								"contract": "contracts/Staking.sol:NFTStaking1",
								"label": "rewardsToken",
								"offset": 0,
								"slot": "0",
								"type": "t_contract(IRewardsToken)1359"
							},
							{
								"astId": 639,
								"contract": "contracts/Staking.sol:NFTStaking1",
								"label": "rewardsPerWave",
								"offset": 0,
								"slot": "1",
								"type": "t_uint256"
							},
							{
								"astId": 641,
								"contract": "contracts/Staking.sol:NFTStaking1",
								"label": "rewardPercentage",
								"offset": 0,
								"slot": "2",
								"type": "t_uint256"
							}
						],
						"numberOfBytes": "96"
					},
					"t_uint256": {
						"encoding": "inplace",
						"label": "uint256",
						"numberOfBytes": "32"
					}
				}
			},
			"userdoc": {
				"kind": "user",
				"methods": {
					"WAVE()": {
						"notice": "CONSTANTS "
					}
				},
				"version": 1
			}
		}
	}
}