{
	"contracts/NFTStaking.sol": {
		"NFTStaking1": {
			"abi": [
				{
					"inputs": [
						{
							"internalType": "address",
							"name": "_stakeNFT",
							"type": "address"
						},
						{
							"internalType": "address",
							"name": "_rewardsToken",
							"type": "address"
						},
						{
							"internalType": "uint256",
							"name": "_lockPeriod",
							"type": "uint256"
						},
						{
							"internalType": "uint256",
							"name": "_rewardPerWave",
							"type": "uint256"
						},
						{
							"internalType": "uint256",
							"name": "_wave",
							"type": "uint256"
						}
					],
					"stateMutability": "nonpayable",
					"type": "constructor"
				},
				{
					"anonymous": false,
					"inputs": [
						{
							"indexed": false,
							"internalType": "uint256",
							"name": "lockPeriod",
							"type": "uint256"
						}
					],
					"name": "LockPeriodUpdated",
					"type": "event"
				},
				{
					"anonymous": false,
					"inputs": [
						{
							"indexed": true,
							"internalType": "address",
							"name": "owner",
							"type": "address"
						},
						{
							"indexed": false,
							"internalType": "uint256[]",
							"name": "tokenIds",
							"type": "uint256[]"
						}
					],
					"name": "NFTLocked",
					"type": "event"
				},
				{
					"anonymous": false,
					"inputs": [
						{
							"indexed": true,
							"internalType": "address",
							"name": "owner",
							"type": "address"
						},
						{
							"indexed": false,
							"internalType": "uint256[]",
							"name": "tokenIds",
							"type": "uint256[]"
						}
					],
					"name": "NFTUnLocked",
					"type": "event"
				},
				{
					"anonymous": false,
					"inputs": [
						{
							"indexed": true,
							"internalType": "address",
							"name": "previousOwner",
							"type": "address"
						},
						{
							"indexed": true,
							"internalType": "address",
							"name": "newOwner",
							"type": "address"
						}
					],
					"name": "OwnershipTransferred",
					"type": "event"
				},
				{
					"anonymous": false,
					"inputs": [
						{
							"indexed": true,
							"internalType": "address",
							"name": "owner",
							"type": "address"
						},
						{
							"indexed": false,
							"internalType": "uint256[]",
							"name": "tokenIds",
							"type": "uint256[]"
						},
						{
							"indexed": false,
							"internalType": "uint256",
							"name": "rewards",
							"type": "uint256"
						}
					],
					"name": "RewardsClaimed",
					"type": "event"
				},
				{
					"inputs": [],
					"name": "WAVE",
					"outputs": [
						{
							"internalType": "uint256",
							"name": "",
							"type": "uint256"
						}
					],
					"stateMutability": "view",
					"type": "function"
				},
				{
					"inputs": [
						{
							"internalType": "uint256[]",
							"name": "_tokenIds",
							"type": "uint256[]"
						}
					],
					"name": "claimRewards",
					"outputs": [],
					"stateMutability": "nonpayable",
					"type": "function"
				},
				{
					"inputs": [
						{
							"internalType": "uint256",
							"name": "_tokenId",
							"type": "uint256"
						}
					],
					"name": "claimedRewards",
					"outputs": [
						{
							"internalType": "uint256",
							"name": "",
							"type": "uint256"
						}
					],
					"stateMutability": "view",
					"type": "function"
				},
				{
					"inputs": [
						{
							"internalType": "uint256[]",
							"name": "_tokenIds",
							"type": "uint256[]"
						}
					],
					"name": "lockNFT",
					"outputs": [],
					"stateMutability": "nonpayable",
					"type": "function"
				},
				{
					"inputs": [],
					"name": "lockPeriod",
					"outputs": [
						{
							"internalType": "uint256",
							"name": "",
							"type": "uint256"
						}
					],
					"stateMutability": "view",
					"type": "function"
				},
				{
					"inputs": [],
					"name": "owner",
					"outputs": [
						{
							"internalType": "address",
							"name": "",
							"type": "address"
						}
					],
					"stateMutability": "view",
					"type": "function"
				},
				{
					"inputs": [],
					"name": "renounceOwnership",
					"outputs": [],
					"stateMutability": "nonpayable",
					"type": "function"
				},
				{
					"inputs": [],
					"name": "rewardsPerWave",
					"outputs": [
						{
							"internalType": "uint256",
							"name": "",
							"type": "uint256"
						}
					],
					"stateMutability": "view",
					"type": "function"
				},
				{
					"inputs": [],
					"name": "rewardsToken",
					"outputs": [
						{
							"internalType": "contract IRewardsToken",
							"name": "",
							"type": "address"
						}
					],
					"stateMutability": "view",
					"type": "function"
				},
				{
					"inputs": [
						{
							"internalType": "uint256",
							"name": "_lockPeriod",
							"type": "uint256"
						}
					],
					"name": "setLockPeriod",
					"outputs": [],
					"stateMutability": "nonpayable",
					"type": "function"
				},
				{
					"inputs": [],
					"name": "stakeNFT",
					"outputs": [
						{
							"internalType": "contract IERC721",
							"name": "",
							"type": "address"
						}
					],
					"stateMutability": "view",
					"type": "function"
				},
				{
					"inputs": [
						{
							"internalType": "address",
							"name": "newOwner",
							"type": "address"
						}
					],
					"name": "transferOwnership",
					"outputs": [],
					"stateMutability": "nonpayable",
					"type": "function"
				},
				{
					"inputs": [
						{
							"internalType": "uint256[]",
							"name": "_tokenIds",
							"type": "uint256[]"
						}
					],
					"name": "unlockNFT",
					"outputs": [],
					"stateMutability": "nonpayable",
					"type": "function"
				}
			],
			"devdoc": {
				"kind": "dev",
				"methods": {
					"claimRewards(uint256[])": {
						"details": "claim rewards",
						"params": {
							"_tokenIds": "token ids to unlock"
						}
					},
					"claimedRewards(uint256)": {
						"details": "get total claimed rewards for token id",
						"params": {
							"_tokenId": "token id to get claimed Rewards amount"
						}
					},
					"lockNFT(uint256[])": {
						"details": "lock NFT into the contract",
						"params": {
							"_tokenIds": "token ids to stake"
						}
					},
					"owner()": {
						"details": "Returns the address of the current owner."
					},
					"renounceOwnership()": {
						"details": "Leaves the contract without owner. It will not be possible to call `onlyOwner` functions anymore. Can only be called by the current owner. NOTE: Renouncing ownership will leave the contract without an owner, thereby removing any functionality that is only available to the owner."
					},
					"setLockPeriod(uint256)": {
						"details": "update lock period",
						"params": {
							"_lockPeriod": "lock period to set"
						}
					},
					"transferOwnership(address)": {
						"details": "Transfers ownership of the contract to a new account (`newOwner`). Can only be called by the current owner."
					},
					"unlockNFT(uint256[])": {
						"details": "unlock NFT from the contractmffmvmdfmf n llfdnsknfknf lknfdmknmgnfmnfnfaii kk ",
						"params": {
							"_tokenIds": "token ids to unlock"
						}
					}
				},
				"version": 1
			},
			"evm": {
				"assembly": "    /* \"contracts/NFTStaking.sol\":412:6260  contract NFTStaking1 is Ownable, ReentrancyGuard {... */\n  mstore(0x40, 0xc0)\n    /* \"contracts/NFTStaking.sol\":1433:2081  constructor(... */\n  callvalue\n  dup1\n  iszero\n  tag_1\n  jumpi\n  0x00\n  dup1\n  revert\ntag_1:\n  pop\n  mload(0x40)\n  sub(codesize, bytecodeSize)\n  dup1\n  bytecodeSize\n  dup4\n  codecopy\n  dup2\n  dup2\n  add\n  0x40\n  mstore\n  dup2\n  add\n  swap1\n  tag_2\n  swap2\n  swap1\n  tag_3\n  jump\t// in\ntag_2:\n    /* \"@openzeppelin/contracts/access/Ownable.sol\":936:968  _transferOwnership(_msgSender()) */\n  tag_8\n    /* \"@openzeppelin/contracts/access/Ownable.sol\":955:967  _msgSender() */\n  tag_9\n    /* \"@openzeppelin/contracts/access/Ownable.sol\":955:965  _msgSender */\n  shl(0x20, tag_10)\n    /* \"@openzeppelin/contracts/access/Ownable.sol\":955:967  _msgSender() */\n  0x20\n  shr\n  jump\t// in\ntag_9:\n    /* \"@openzeppelin/contracts/access/Ownable.sol\":936:954  _transferOwnership */\n  shl(0x20, tag_11)\n    /* \"@openzeppelin/contracts/access/Ownable.sol\":936:968  _transferOwnership(_msgSender()) */\n  0x20\n  shr\n  jump\t// in\ntag_8:\n    /* \"@openzeppelin/contracts/security/ReentrancyGuard.sol\":1701:1702  1 */\n  0x01\n    /* \"@openzeppelin/contracts/security/ReentrancyGuard.sol\":1806:1813  _status */\n  dup1\n    /* \"@openzeppelin/contracts/security/ReentrancyGuard.sol\":1806:1828  _status = _NOT_ENTERED */\n  dup2\n  swap1\n  sstore\n  pop\n    /* \"contracts/NFTStaking.sol\":1646:1647  0 */\n  0x00\n    /* \"contracts/NFTStaking.sol\":1621:1648  _rewardsToken != address(0) */\n  0xffffffffffffffffffffffffffffffffffffffff\n  and\n    /* \"contracts/NFTStaking.sol\":1621:1634  _rewardsToken */\n  dup5\n    /* \"contracts/NFTStaking.sol\":1621:1648  _rewardsToken != address(0) */\n  0xffffffffffffffffffffffffffffffffffffffff\n  and\n  sub\n    /* \"contracts/NFTStaking.sol\":1613:1673  require(_rewardsToken != address(0), \"Invalid reward token\") */\n  tag_14\n  jumpi\n  mload(0x40)\n  0x08c379a000000000000000000000000000000000000000000000000000000000\n  dup2\n  mstore\n  0x04\n  add\n  tag_15\n  swap1\n  tag_16\n  jump\t// in\ntag_15:\n  mload(0x40)\n  dup1\n  swap2\n  sub\n  swap1\n  revert\ntag_14:\n    /* \"contracts/NFTStaking.sol\":1713:1714  0 */\n  0x00\n    /* \"contracts/NFTStaking.sol\":1692:1715  _stakeNFT != address(0) */\n  0xffffffffffffffffffffffffffffffffffffffff\n  and\n    /* \"contracts/NFTStaking.sol\":1692:1701  _stakeNFT */\n  dup6\n    /* \"contracts/NFTStaking.sol\":1692:1715  _stakeNFT != address(0) */\n  0xffffffffffffffffffffffffffffffffffffffff\n  and\n  sub\n    /* \"contracts/NFTStaking.sol\":1684:1737  require(_stakeNFT != address(0), \"Invalid stake NFT\") */\n  tag_17\n  jumpi\n  mload(0x40)\n  0x08c379a000000000000000000000000000000000000000000000000000000000\n  dup2\n  mstore\n  0x04\n  add\n  tag_18\n  swap1\n  tag_19\n  jump\t// in\ntag_18:\n  mload(0x40)\n  dup1\n  swap2\n  sub\n  swap1\n  revert\ntag_17:\n    /* \"contracts/NFTStaking.sol\":1764:1773  _stakeNFT */\n  dup5\n    /* \"contracts/NFTStaking.sol\":1756:1792  IERC165(_stakeNFT).supportsInterface */\n  0xffffffffffffffffffffffffffffffffffffffff\n  and\n  0x01ffc9a7\n    /* \"contracts/NFTStaking.sol\":1793:1803  0x80ac58cd */\n  0x80ac58cd\n    /* \"contracts/NFTStaking.sol\":1756:1804  IERC165(_stakeNFT).supportsInterface(0x80ac58cd) */\n  mload(0x40)\n  dup3\n  0xffffffff\n  and\n  0xe0\n  shl\n  dup2\n  mstore\n  0x04\n  add\n  tag_20\n  swap2\n  swap1\n  tag_21\n  jump\t// in\ntag_20:\n  0x20\n  mload(0x40)\n  dup1\n  dup4\n  sub\n  dup2\n  dup7\n  gas\n  staticcall\n  iszero\n  dup1\n  iszero\n  tag_23\n  jumpi\n  returndatasize\n  0x00\n  dup1\n  returndatacopy\n  revert(0x00, returndatasize)\ntag_23:\n  pop\n  pop\n  pop\n  pop\n  mload(0x40)\n  returndatasize\n  not(0x1f)\n  0x1f\n  dup3\n  add\n  and\n  dup3\n  add\n  dup1\n  0x40\n  mstore\n  pop\n  dup2\n  add\n  swap1\n  tag_24\n  swap2\n  swap1\n  tag_25\n  jump\t// in\ntag_24:\n    /* \"contracts/NFTStaking.sol\":1748:1819  require(IERC165(_stakeNFT).supportsInterface(0x80ac58cd), \"Non-erc721\") */\n  tag_26\n  jumpi\n  mload(0x40)\n  0x08c379a000000000000000000000000000000000000000000000000000000000\n  dup2\n  mstore\n  0x04\n  add\n  tag_27\n  swap1\n  tag_28\n  jump\t// in\ntag_27:\n  mload(0x40)\n  dup1\n  swap2\n  sub\n  swap1\n  revert\ntag_26:\n    /* \"contracts/NFTStaking.sol\":1852:1853  0 */\n  0x00\n    /* \"contracts/NFTStaking.sol\":1838:1849  _lockPeriod */\n  dup4\n    /* \"contracts/NFTStaking.sol\":1838:1853  _lockPeriod > 0 */\n  gt\n    /* \"contracts/NFTStaking.sol\":1830:1877  require(_lockPeriod > 0, \"Invalid lock period\") */\n  tag_29\n  jumpi\n  mload(0x40)\n  0x08c379a000000000000000000000000000000000000000000000000000000000\n  dup2\n  mstore\n  0x04\n  add\n  tag_30\n  swap1\n  tag_31\n  jump\t// in\ntag_30:\n  mload(0x40)\n  dup1\n  swap2\n  sub\n  swap1\n  revert\ntag_29:\n    /* \"contracts/NFTStaking.sol\":1919:1932  _rewardsToken */\n  dup4\n    /* \"contracts/NFTStaking.sol\":1890:1933  rewardsToken = IRewardsToken(_rewardsToken) */\n  0xffffffffffffffffffffffffffffffffffffffff\n  and\n  0x80\n  dup2\n  0xffffffffffffffffffffffffffffffffffffffff\n  and\n  dup2\n  mstore\n  pop\n  pop\n    /* \"contracts/NFTStaking.sol\":1963:1972  _stakeNFT */\n  dup5\n    /* \"contracts/NFTStaking.sol\":1944:1973  stakeNFT = IERC721(_stakeNFT) */\n  0xffffffffffffffffffffffffffffffffffffffff\n  and\n  0xa0\n  dup2\n  0xffffffffffffffffffffffffffffffffffffffff\n  and\n  dup2\n  mstore\n  pop\n  pop\n    /* \"contracts/NFTStaking.sol\":1997:2008  _lockPeriod */\n  dup3\n    /* \"contracts/NFTStaking.sol\":1984:1994  lockPeriod */\n  0x02\n    /* \"contracts/NFTStaking.sol\":1984:2008  lockPeriod = _lockPeriod */\n  dup2\n  swap1\n  sstore\n  pop\n    /* \"contracts/NFTStaking.sol\":2036:2050  _rewardPerWave */\n  dup2\n    /* \"contracts/NFTStaking.sol\":2019:2033  rewardsPerWave */\n  0x05\n    /* \"contracts/NFTStaking.sol\":2019:2050  rewardsPerWave = _rewardPerWave */\n  dup2\n  swap1\n  sstore\n  pop\n    /* \"contracts/NFTStaking.sol\":2068:2073  _wave */\n  dup1\n    /* \"contracts/NFTStaking.sol\":2061:2065  WAVE */\n  0x04\n    /* \"contracts/NFTStaking.sol\":2061:2073  WAVE = _wave */\n  dup2\n  swap1\n  sstore\n  pop\n    /* \"contracts/NFTStaking.sol\":1433:2081  constructor(... */\n  pop\n  pop\n  pop\n  pop\n  pop\n    /* \"contracts/NFTStaking.sol\":412:6260  contract NFTStaking1 is Ownable, ReentrancyGuard {... */\n  jump(tag_32)\n    /* \"@openzeppelin/contracts/utils/Context.sol\":640:736  function _msgSender() internal view virtual returns (address) {... */\ntag_10:\n    /* \"@openzeppelin/contracts/utils/Context.sol\":693:700  address */\n  0x00\n    /* \"@openzeppelin/contracts/utils/Context.sol\":719:729  msg.sender */\n  caller\n    /* \"@openzeppelin/contracts/utils/Context.sol\":712:729  return msg.sender */\n  swap1\n  pop\n    /* \"@openzeppelin/contracts/utils/Context.sol\":640:736  function _msgSender() internal view virtual returns (address) {... */\n  swap1\n  jump\t// out\n    /* \"@openzeppelin/contracts/access/Ownable.sol\":2433:2620  function _transferOwnership(address newOwner) internal virtual {... */\ntag_11:\n    /* \"@openzeppelin/contracts/access/Ownable.sol\":2506:2522  address oldOwner */\n  0x00\n    /* \"@openzeppelin/contracts/access/Ownable.sol\":2525:2531  _owner */\n  dup1\n  0x00\n  swap1\n  sload\n  swap1\n  0x0100\n  exp\n  swap1\n  div\n  0xffffffffffffffffffffffffffffffffffffffff\n  and\n    /* \"@openzeppelin/contracts/access/Ownable.sol\":2506:2531  address oldOwner = _owner */\n  swap1\n  pop\n    /* \"@openzeppelin/contracts/access/Ownable.sol\":2550:2558  newOwner */\n  dup2\n    /* \"@openzeppelin/contracts/access/Ownable.sol\":2541:2547  _owner */\n  0x00\n  dup1\n    /* \"@openzeppelin/contracts/access/Ownable.sol\":2541:2558  _owner = newOwner */\n  0x0100\n  exp\n  dup2\n  sload\n  dup2\n  0xffffffffffffffffffffffffffffffffffffffff\n  mul\n  not\n  and\n  swap1\n  dup4\n  0xffffffffffffffffffffffffffffffffffffffff\n  and\n  mul\n  or\n  swap1\n  sstore\n  pop\n    /* \"@openzeppelin/contracts/access/Ownable.sol\":2604:2612  newOwner */\n  dup2\n    /* \"@openzeppelin/contracts/access/Ownable.sol\":2573:2613  OwnershipTransferred(oldOwner, newOwner) */\n  0xffffffffffffffffffffffffffffffffffffffff\n  and\n    /* \"@openzeppelin/contracts/access/Ownable.sol\":2594:2602  oldOwner */\n  dup2\n    /* \"@openzeppelin/contracts/access/Ownable.sol\":2573:2613  OwnershipTransferred(oldOwner, newOwner) */\n  0xffffffffffffffffffffffffffffffffffffffff\n  and\n  0x8be0079c531659141344cd1fd0a4f28419497f9722a3daafe3b4186f6b6457e0\n  mload(0x40)\n  mload(0x40)\n  dup1\n  swap2\n  sub\n  swap1\n  log3\n    /* \"@openzeppelin/contracts/access/Ownable.sol\":2496:2620  {... */\n  pop\n    /* \"@openzeppelin/contracts/access/Ownable.sol\":2433:2620  function _transferOwnership(address newOwner) internal virtual {... */\n  pop\n  jump\t// out\n    /* \"#utility.yul\":88:205   */\ntag_36:\n    /* \"#utility.yul\":197:198   */\n  0x00\n    /* \"#utility.yul\":194:195   */\n  dup1\n    /* \"#utility.yul\":187:199   */\n  revert\n    /* \"#utility.yul\":334:460   */\ntag_38:\n    /* \"#utility.yul\":371:378   */\n  0x00\n    /* \"#utility.yul\":411:453   */\n  0xffffffffffffffffffffffffffffffffffffffff\n    /* \"#utility.yul\":404:409   */\n  dup3\n    /* \"#utility.yul\":400:454   */\n  and\n    /* \"#utility.yul\":389:454   */\n  swap1\n  pop\n    /* \"#utility.yul\":334:460   */\n  swap2\n  swap1\n  pop\n  jump\t// out\n    /* \"#utility.yul\":466:562   */\ntag_39:\n    /* \"#utility.yul\":503:510   */\n  0x00\n    /* \"#utility.yul\":532:556   */\n  tag_68\n    /* \"#utility.yul\":550:555   */\n  dup3\n    /* \"#utility.yul\":532:556   */\n  tag_38\n  jump\t// in\ntag_68:\n    /* \"#utility.yul\":521:556   */\n  swap1\n  pop\n    /* \"#utility.yul\":466:562   */\n  swap2\n  swap1\n  pop\n  jump\t// out\n    /* \"#utility.yul\":568:690   */\ntag_40:\n    /* \"#utility.yul\":641:665   */\n  tag_70\n    /* \"#utility.yul\":659:664   */\n  dup2\n    /* \"#utility.yul\":641:665   */\n  tag_39\n  jump\t// in\ntag_70:\n    /* \"#utility.yul\":634:639   */\n  dup2\n    /* \"#utility.yul\":631:666   */\n  eq\n    /* \"#utility.yul\":621:684   */\n  tag_71\n  jumpi\n    /* \"#utility.yul\":680:681   */\n  0x00\n    /* \"#utility.yul\":677:678   */\n  dup1\n    /* \"#utility.yul\":670:682   */\n  revert\n    /* \"#utility.yul\":621:684   */\ntag_71:\n    /* \"#utility.yul\":568:690   */\n  pop\n  jump\t// out\n    /* \"#utility.yul\":696:839   */\ntag_41:\n    /* \"#utility.yul\":753:758   */\n  0x00\n    /* \"#utility.yul\":784:790   */\n  dup2\n    /* \"#utility.yul\":778:791   */\n  mload\n    /* \"#utility.yul\":769:791   */\n  swap1\n  pop\n    /* \"#utility.yul\":800:833   */\n  tag_73\n    /* \"#utility.yul\":827:832   */\n  dup2\n    /* \"#utility.yul\":800:833   */\n  tag_40\n  jump\t// in\ntag_73:\n    /* \"#utility.yul\":696:839   */\n  swap3\n  swap2\n  pop\n  pop\n  jump\t// out\n    /* \"#utility.yul\":845:922   */\ntag_42:\n    /* \"#utility.yul\":882:889   */\n  0x00\n    /* \"#utility.yul\":911:916   */\n  dup2\n    /* \"#utility.yul\":900:916   */\n  swap1\n  pop\n    /* \"#utility.yul\":845:922   */\n  swap2\n  swap1\n  pop\n  jump\t// out\n    /* \"#utility.yul\":928:1050   */\ntag_43:\n    /* \"#utility.yul\":1001:1025   */\n  tag_76\n    /* \"#utility.yul\":1019:1024   */\n  dup2\n    /* \"#utility.yul\":1001:1025   */\n  tag_42\n  jump\t// in\ntag_76:\n    /* \"#utility.yul\":994:999   */\n  dup2\n    /* \"#utility.yul\":991:1026   */\n  eq\n    /* \"#utility.yul\":981:1044   */\n  tag_77\n  jumpi\n    /* \"#utility.yul\":1040:1041   */\n  0x00\n    /* \"#utility.yul\":1037:1038   */\n  dup1\n    /* \"#utility.yul\":1030:1042   */\n  revert\n    /* \"#utility.yul\":981:1044   */\ntag_77:\n    /* \"#utility.yul\":928:1050   */\n  pop\n  jump\t// out\n    /* \"#utility.yul\":1056:1199   */\ntag_44:\n    /* \"#utility.yul\":1113:1118   */\n  0x00\n    /* \"#utility.yul\":1144:1150   */\n  dup2\n    /* \"#utility.yul\":1138:1151   */\n  mload\n    /* \"#utility.yul\":1129:1151   */\n  swap1\n  pop\n    /* \"#utility.yul\":1160:1193   */\n  tag_79\n    /* \"#utility.yul\":1187:1192   */\n  dup2\n    /* \"#utility.yul\":1160:1193   */\n  tag_43\n  jump\t// in\ntag_79:\n    /* \"#utility.yul\":1056:1199   */\n  swap3\n  swap2\n  pop\n  pop\n  jump\t// out\n    /* \"#utility.yul\":1205:2182   */\ntag_3:\n    /* \"#utility.yul\":1311:1317   */\n  0x00\n    /* \"#utility.yul\":1319:1325   */\n  dup1\n    /* \"#utility.yul\":1327:1333   */\n  0x00\n    /* \"#utility.yul\":1335:1341   */\n  dup1\n    /* \"#utility.yul\":1343:1349   */\n  0x00\n    /* \"#utility.yul\":1392:1395   */\n  0xa0\n    /* \"#utility.yul\":1380:1389   */\n  dup7\n    /* \"#utility.yul\":1371:1378   */\n  dup9\n    /* \"#utility.yul\":1367:1390   */\n  sub\n    /* \"#utility.yul\":1363:1396   */\n  slt\n    /* \"#utility.yul\":1360:1480   */\n  iszero\n  tag_81\n  jumpi\n    /* \"#utility.yul\":1399:1478   */\n  tag_82\n  tag_36\n  jump\t// in\ntag_82:\n    /* \"#utility.yul\":1360:1480   */\ntag_81:\n    /* \"#utility.yul\":1519:1520   */\n  0x00\n    /* \"#utility.yul\":1544:1608   */\n  tag_83\n    /* \"#utility.yul\":1600:1607   */\n  dup9\n    /* \"#utility.yul\":1591:1597   */\n  dup3\n    /* \"#utility.yul\":1580:1589   */\n  dup10\n    /* \"#utility.yul\":1576:1598   */\n  add\n    /* \"#utility.yul\":1544:1608   */\n  tag_41\n  jump\t// in\ntag_83:\n    /* \"#utility.yul\":1534:1608   */\n  swap6\n  pop\n    /* \"#utility.yul\":1490:1618   */\n  pop\n    /* \"#utility.yul\":1657:1659   */\n  0x20\n    /* \"#utility.yul\":1683:1747   */\n  tag_84\n    /* \"#utility.yul\":1739:1746   */\n  dup9\n    /* \"#utility.yul\":1730:1736   */\n  dup3\n    /* \"#utility.yul\":1719:1728   */\n  dup10\n    /* \"#utility.yul\":1715:1737   */\n  add\n    /* \"#utility.yul\":1683:1747   */\n  tag_41\n  jump\t// in\ntag_84:\n    /* \"#utility.yul\":1673:1747   */\n  swap5\n  pop\n    /* \"#utility.yul\":1628:1757   */\n  pop\n    /* \"#utility.yul\":1796:1798   */\n  0x40\n    /* \"#utility.yul\":1822:1886   */\n  tag_85\n    /* \"#utility.yul\":1878:1885   */\n  dup9\n    /* \"#utility.yul\":1869:1875   */\n  dup3\n    /* \"#utility.yul\":1858:1867   */\n  dup10\n    /* \"#utility.yul\":1854:1876   */\n  add\n    /* \"#utility.yul\":1822:1886   */\n  tag_44\n  jump\t// in\ntag_85:\n    /* \"#utility.yul\":1812:1886   */\n  swap4\n  pop\n    /* \"#utility.yul\":1767:1896   */\n  pop\n    /* \"#utility.yul\":1935:1937   */\n  0x60\n    /* \"#utility.yul\":1961:2025   */\n  tag_86\n    /* \"#utility.yul\":2017:2024   */\n  dup9\n    /* \"#utility.yul\":2008:2014   */\n  dup3\n    /* \"#utility.yul\":1997:2006   */\n  dup10\n    /* \"#utility.yul\":1993:2015   */\n  add\n    /* \"#utility.yul\":1961:2025   */\n  tag_44\n  jump\t// in\ntag_86:\n    /* \"#utility.yul\":1951:2025   */\n  swap3\n  pop\n    /* \"#utility.yul\":1906:2035   */\n  pop\n    /* \"#utility.yul\":2074:2077   */\n  0x80\n    /* \"#utility.yul\":2101:2165   */\n  tag_87\n    /* \"#utility.yul\":2157:2164   */\n  dup9\n    /* \"#utility.yul\":2148:2154   */\n  dup3\n    /* \"#utility.yul\":2137:2146   */\n  dup10\n    /* \"#utility.yul\":2133:2155   */\n  add\n    /* \"#utility.yul\":2101:2165   */\n  tag_44\n  jump\t// in\ntag_87:\n    /* \"#utility.yul\":2091:2165   */\n  swap2\n  pop\n    /* \"#utility.yul\":2045:2175   */\n  pop\n    /* \"#utility.yul\":1205:2182   */\n  swap3\n  swap6\n  pop\n  swap3\n  swap6\n  swap1\n  swap4\n  pop\n  jump\t// out\n    /* \"#utility.yul\":2188:2357   */\ntag_45:\n    /* \"#utility.yul\":2272:2283   */\n  0x00\n    /* \"#utility.yul\":2306:2312   */\n  dup3\n    /* \"#utility.yul\":2301:2304   */\n  dup3\n    /* \"#utility.yul\":2294:2313   */\n  mstore\n    /* \"#utility.yul\":2346:2350   */\n  0x20\n    /* \"#utility.yul\":2341:2344   */\n  dup3\n    /* \"#utility.yul\":2337:2351   */\n  add\n    /* \"#utility.yul\":2322:2351   */\n  swap1\n  pop\n    /* \"#utility.yul\":2188:2357   */\n  swap3\n  swap2\n  pop\n  pop\n  jump\t// out\n    /* \"#utility.yul\":2363:2533   */\ntag_46:\n    /* \"#utility.yul\":2503:2525   */\n  0x496e76616c69642072657761726420746f6b656e000000000000000000000000\n    /* \"#utility.yul\":2499:2500   */\n  0x00\n    /* \"#utility.yul\":2491:2497   */\n  dup3\n    /* \"#utility.yul\":2487:2501   */\n  add\n    /* \"#utility.yul\":2480:2526   */\n  mstore\n    /* \"#utility.yul\":2363:2533   */\n  pop\n  jump\t// out\n    /* \"#utility.yul\":2539:2905   */\ntag_47:\n    /* \"#utility.yul\":2681:2684   */\n  0x00\n    /* \"#utility.yul\":2702:2769   */\n  tag_91\n    /* \"#utility.yul\":2766:2768   */\n  0x14\n    /* \"#utility.yul\":2761:2764   */\n  dup4\n    /* \"#utility.yul\":2702:2769   */\n  tag_45\n  jump\t// in\ntag_91:\n    /* \"#utility.yul\":2695:2769   */\n  swap2\n  pop\n    /* \"#utility.yul\":2778:2871   */\n  tag_92\n    /* \"#utility.yul\":2867:2870   */\n  dup3\n    /* \"#utility.yul\":2778:2871   */\n  tag_46\n  jump\t// in\ntag_92:\n    /* \"#utility.yul\":2896:2898   */\n  0x20\n    /* \"#utility.yul\":2891:2894   */\n  dup3\n    /* \"#utility.yul\":2887:2899   */\n  add\n    /* \"#utility.yul\":2880:2899   */\n  swap1\n  pop\n    /* \"#utility.yul\":2539:2905   */\n  swap2\n  swap1\n  pop\n  jump\t// out\n    /* \"#utility.yul\":2911:3330   */\ntag_16:\n    /* \"#utility.yul\":3077:3081   */\n  0x00\n    /* \"#utility.yul\":3115:3117   */\n  0x20\n    /* \"#utility.yul\":3104:3113   */\n  dup3\n    /* \"#utility.yul\":3100:3118   */\n  add\n    /* \"#utility.yul\":3092:3118   */\n  swap1\n  pop\n    /* \"#utility.yul\":3164:3173   */\n  dup2\n    /* \"#utility.yul\":3158:3162   */\n  dup2\n    /* \"#utility.yul\":3154:3174   */\n  sub\n    /* \"#utility.yul\":3150:3151   */\n  0x00\n    /* \"#utility.yul\":3139:3148   */\n  dup4\n    /* \"#utility.yul\":3135:3152   */\n  add\n    /* \"#utility.yul\":3128:3175   */\n  mstore\n    /* \"#utility.yul\":3192:3323   */\n  tag_94\n    /* \"#utility.yul\":3318:3322   */\n  dup2\n    /* \"#utility.yul\":3192:3323   */\n  tag_47\n  jump\t// in\ntag_94:\n    /* \"#utility.yul\":3184:3323   */\n  swap1\n  pop\n    /* \"#utility.yul\":2911:3330   */\n  swap2\n  swap1\n  pop\n  jump\t// out\n    /* \"#utility.yul\":3336:3503   */\ntag_48:\n    /* \"#utility.yul\":3476:3495   */\n  0x496e76616c6964207374616b65204e4654000000000000000000000000000000\n    /* \"#utility.yul\":3472:3473   */\n  0x00\n    /* \"#utility.yul\":3464:3470   */\n  dup3\n    /* \"#utility.yul\":3460:3474   */\n  add\n    /* \"#utility.yul\":3453:3496   */\n  mstore\n    /* \"#utility.yul\":3336:3503   */\n  pop\n  jump\t// out\n    /* \"#utility.yul\":3509:3875   */\ntag_49:\n    /* \"#utility.yul\":3651:3654   */\n  0x00\n    /* \"#utility.yul\":3672:3739   */\n  tag_97\n    /* \"#utility.yul\":3736:3738   */\n  0x11\n    /* \"#utility.yul\":3731:3734   */\n  dup4\n    /* \"#utility.yul\":3672:3739   */\n  tag_45\n  jump\t// in\ntag_97:\n    /* \"#utility.yul\":3665:3739   */\n  swap2\n  pop\n    /* \"#utility.yul\":3748:3841   */\n  tag_98\n    /* \"#utility.yul\":3837:3840   */\n  dup3\n    /* \"#utility.yul\":3748:3841   */\n  tag_48\n  jump\t// in\ntag_98:\n    /* \"#utility.yul\":3866:3868   */\n  0x20\n    /* \"#utility.yul\":3861:3864   */\n  dup3\n    /* \"#utility.yul\":3857:3869   */\n  add\n    /* \"#utility.yul\":3850:3869   */\n  swap1\n  pop\n    /* \"#utility.yul\":3509:3875   */\n  swap2\n  swap1\n  pop\n  jump\t// out\n    /* \"#utility.yul\":3881:4300   */\ntag_19:\n    /* \"#utility.yul\":4047:4051   */\n  0x00\n    /* \"#utility.yul\":4085:4087   */\n  0x20\n    /* \"#utility.yul\":4074:4083   */\n  dup3\n    /* \"#utility.yul\":4070:4088   */\n  add\n    /* \"#utility.yul\":4062:4088   */\n  swap1\n  pop\n    /* \"#utility.yul\":4134:4143   */\n  dup2\n    /* \"#utility.yul\":4128:4132   */\n  dup2\n    /* \"#utility.yul\":4124:4144   */\n  sub\n    /* \"#utility.yul\":4120:4121   */\n  0x00\n    /* \"#utility.yul\":4109:4118   */\n  dup4\n    /* \"#utility.yul\":4105:4122   */\n  add\n    /* \"#utility.yul\":4098:4145   */\n  mstore\n    /* \"#utility.yul\":4162:4293   */\n  tag_100\n    /* \"#utility.yul\":4288:4292   */\n  dup2\n    /* \"#utility.yul\":4162:4293   */\n  tag_49\n  jump\t// in\ntag_100:\n    /* \"#utility.yul\":4154:4293   */\n  swap1\n  pop\n    /* \"#utility.yul\":3881:4300   */\n  swap2\n  swap1\n  pop\n  jump\t// out\n    /* \"#utility.yul\":4306:4400   */\ntag_50:\n    /* \"#utility.yul\":4360:4367   */\n  0x00\n    /* \"#utility.yul\":4389:4394   */\n  dup2\n    /* \"#utility.yul\":4378:4394   */\n  swap1\n  pop\n    /* \"#utility.yul\":4306:4400   */\n  swap2\n  swap1\n  pop\n  jump\t// out\n    /* \"#utility.yul\":4406:4555   */\ntag_51:\n    /* \"#utility.yul\":4442:4449   */\n  0x00\n    /* \"#utility.yul\":4482:4548   */\n  0xffffffff00000000000000000000000000000000000000000000000000000000\n    /* \"#utility.yul\":4475:4480   */\n  dup3\n    /* \"#utility.yul\":4471:4549   */\n  and\n    /* \"#utility.yul\":4460:4549   */\n  swap1\n  pop\n    /* \"#utility.yul\":4406:4555   */\n  swap2\n  swap1\n  pop\n  jump\t// out\n    /* \"#utility.yul\":4561:4657   */\ntag_52:\n    /* \"#utility.yul\":4595:4603   */\n  0x00\n    /* \"#utility.yul\":4644:4649   */\n  dup2\n    /* \"#utility.yul\":4639:4642   */\n  0xe0\n    /* \"#utility.yul\":4635:4650   */\n  shl\n    /* \"#utility.yul\":4614:4650   */\n  swap1\n  pop\n    /* \"#utility.yul\":4561:4657   */\n  swap2\n  swap1\n  pop\n  jump\t// out\n    /* \"#utility.yul\":4663:4843   */\ntag_53:\n    /* \"#utility.yul\":4729:4738   */\n  0x00\n    /* \"#utility.yul\":4762:4837   */\n  tag_105\n    /* \"#utility.yul\":4779:4836   */\n  tag_106\n    /* \"#utility.yul\":4794:4835   */\n  tag_107\n    /* \"#utility.yul\":4829:4834   */\n  dup5\n    /* \"#utility.yul\":4794:4835   */\n  tag_50\n  jump\t// in\ntag_107:\n    /* \"#utility.yul\":4779:4836   */\n  tag_52\n  jump\t// in\ntag_106:\n    /* \"#utility.yul\":4762:4837   */\n  tag_51\n  jump\t// in\ntag_105:\n    /* \"#utility.yul\":4749:4837   */\n  swap1\n  pop\n    /* \"#utility.yul\":4663:4843   */\n  swap2\n  swap1\n  pop\n  jump\t// out\n    /* \"#utility.yul\":4849:5012   */\ntag_54:\n    /* \"#utility.yul\":4952:5005   */\n  tag_109\n    /* \"#utility.yul\":4999:5004   */\n  dup2\n    /* \"#utility.yul\":4952:5005   */\n  tag_53\n  jump\t// in\ntag_109:\n    /* \"#utility.yul\":4947:4950   */\n  dup3\n    /* \"#utility.yul\":4940:5006   */\n  mstore\n    /* \"#utility.yul\":4849:5012   */\n  pop\n  pop\n  jump\t// out\n    /* \"#utility.yul\":5018:5272   */\ntag_21:\n    /* \"#utility.yul\":5127:5131   */\n  0x00\n    /* \"#utility.yul\":5165:5167   */\n  0x20\n    /* \"#utility.yul\":5154:5163   */\n  dup3\n    /* \"#utility.yul\":5150:5168   */\n  add\n    /* \"#utility.yul\":5142:5168   */\n  swap1\n  pop\n    /* \"#utility.yul\":5178:5265   */\n  tag_111\n    /* \"#utility.yul\":5262:5263   */\n  0x00\n    /* \"#utility.yul\":5251:5260   */\n  dup4\n    /* \"#utility.yul\":5247:5264   */\n  add\n    /* \"#utility.yul\":5238:5244   */\n  dup5\n    /* \"#utility.yul\":5178:5265   */\n  tag_54\n  jump\t// in\ntag_111:\n    /* \"#utility.yul\":5018:5272   */\n  swap3\n  swap2\n  pop\n  pop\n  jump\t// out\n    /* \"#utility.yul\":5278:5368   */\ntag_55:\n    /* \"#utility.yul\":5312:5319   */\n  0x00\n    /* \"#utility.yul\":5355:5360   */\n  dup2\n    /* \"#utility.yul\":5348:5361   */\n  iszero\n    /* \"#utility.yul\":5341:5362   */\n  iszero\n    /* \"#utility.yul\":5330:5362   */\n  swap1\n  pop\n    /* \"#utility.yul\":5278:5368   */\n  swap2\n  swap1\n  pop\n  jump\t// out\n    /* \"#utility.yul\":5374:5490   */\ntag_56:\n    /* \"#utility.yul\":5444:5465   */\n  tag_114\n    /* \"#utility.yul\":5459:5464   */\n  dup2\n    /* \"#utility.yul\":5444:5465   */\n  tag_55\n  jump\t// in\ntag_114:\n    /* \"#utility.yul\":5437:5442   */\n  dup2\n    /* \"#utility.yul\":5434:5466   */\n  eq\n    /* \"#utility.yul\":5424:5484   */\n  tag_115\n  jumpi\n    /* \"#utility.yul\":5480:5481   */\n  0x00\n    /* \"#utility.yul\":5477:5478   */\n  dup1\n    /* \"#utility.yul\":5470:5482   */\n  revert\n    /* \"#utility.yul\":5424:5484   */\ntag_115:\n    /* \"#utility.yul\":5374:5490   */\n  pop\n  jump\t// out\n    /* \"#utility.yul\":5496:5633   */\ntag_57:\n    /* \"#utility.yul\":5550:5555   */\n  0x00\n    /* \"#utility.yul\":5581:5587   */\n  dup2\n    /* \"#utility.yul\":5575:5588   */\n  mload\n    /* \"#utility.yul\":5566:5588   */\n  swap1\n  pop\n    /* \"#utility.yul\":5597:5627   */\n  tag_117\n    /* \"#utility.yul\":5621:5626   */\n  dup2\n    /* \"#utility.yul\":5597:5627   */\n  tag_56\n  jump\t// in\ntag_117:\n    /* \"#utility.yul\":5496:5633   */\n  swap3\n  swap2\n  pop\n  pop\n  jump\t// out\n    /* \"#utility.yul\":5639:5984   */\ntag_25:\n    /* \"#utility.yul\":5706:5712   */\n  0x00\n    /* \"#utility.yul\":5755:5757   */\n  0x20\n    /* \"#utility.yul\":5743:5752   */\n  dup3\n    /* \"#utility.yul\":5734:5741   */\n  dup5\n    /* \"#utility.yul\":5730:5753   */\n  sub\n    /* \"#utility.yul\":5726:5758   */\n  slt\n    /* \"#utility.yul\":5723:5842   */\n  iszero\n  tag_119\n  jumpi\n    /* \"#utility.yul\":5761:5840   */\n  tag_120\n  tag_36\n  jump\t// in\ntag_120:\n    /* \"#utility.yul\":5723:5842   */\ntag_119:\n    /* \"#utility.yul\":5881:5882   */\n  0x00\n    /* \"#utility.yul\":5906:5967   */\n  tag_121\n    /* \"#utility.yul\":5959:5966   */\n  dup5\n    /* \"#utility.yul\":5950:5956   */\n  dup3\n    /* \"#utility.yul\":5939:5948   */\n  dup6\n    /* \"#utility.yul\":5935:5957   */\n  add\n    /* \"#utility.yul\":5906:5967   */\n  tag_57\n  jump\t// in\ntag_121:\n    /* \"#utility.yul\":5896:5967   */\n  swap2\n  pop\n    /* \"#utility.yul\":5852:5977   */\n  pop\n    /* \"#utility.yul\":5639:5984   */\n  swap3\n  swap2\n  pop\n  pop\n  jump\t// out\n    /* \"#utility.yul\":5990:6150   */\ntag_58:\n    /* \"#utility.yul\":6130:6142   */\n  0x4e6f6e2d65726337323100000000000000000000000000000000000000000000\n    /* \"#utility.yul\":6126:6127   */\n  0x00\n    /* \"#utility.yul\":6118:6124   */\n  dup3\n    /* \"#utility.yul\":6114:6128   */\n  add\n    /* \"#utility.yul\":6107:6143   */\n  mstore\n    /* \"#utility.yul\":5990:6150   */\n  pop\n  jump\t// out\n    /* \"#utility.yul\":6156:6522   */\ntag_59:\n    /* \"#utility.yul\":6298:6301   */\n  0x00\n    /* \"#utility.yul\":6319:6386   */\n  tag_124\n    /* \"#utility.yul\":6383:6385   */\n  0x0a\n    /* \"#utility.yul\":6378:6381   */\n  dup4\n    /* \"#utility.yul\":6319:6386   */\n  tag_45\n  jump\t// in\ntag_124:\n    /* \"#utility.yul\":6312:6386   */\n  swap2\n  pop\n    /* \"#utility.yul\":6395:6488   */\n  tag_125\n    /* \"#utility.yul\":6484:6487   */\n  dup3\n    /* \"#utility.yul\":6395:6488   */\n  tag_58\n  jump\t// in\ntag_125:\n    /* \"#utility.yul\":6513:6515   */\n  0x20\n    /* \"#utility.yul\":6508:6511   */\n  dup3\n    /* \"#utility.yul\":6504:6516   */\n  add\n    /* \"#utility.yul\":6497:6516   */\n  swap1\n  pop\n    /* \"#utility.yul\":6156:6522   */\n  swap2\n  swap1\n  pop\n  jump\t// out\n    /* \"#utility.yul\":6528:6947   */\ntag_28:\n    /* \"#utility.yul\":6694:6698   */\n  0x00\n    /* \"#utility.yul\":6732:6734   */\n  0x20\n    /* \"#utility.yul\":6721:6730   */\n  dup3\n    /* \"#utility.yul\":6717:6735   */\n  add\n    /* \"#utility.yul\":6709:6735   */\n  swap1\n  pop\n    /* \"#utility.yul\":6781:6790   */\n  dup2\n    /* \"#utility.yul\":6775:6779   */\n  dup2\n    /* \"#utility.yul\":6771:6791   */\n  sub\n    /* \"#utility.yul\":6767:6768   */\n  0x00\n    /* \"#utility.yul\":6756:6765   */\n  dup4\n    /* \"#utility.yul\":6752:6769   */\n  add\n    /* \"#utility.yul\":6745:6792   */\n  mstore\n    /* \"#utility.yul\":6809:6940   */\n  tag_127\n    /* \"#utility.yul\":6935:6939   */\n  dup2\n    /* \"#utility.yul\":6809:6940   */\n  tag_59\n  jump\t// in\ntag_127:\n    /* \"#utility.yul\":6801:6940   */\n  swap1\n  pop\n    /* \"#utility.yul\":6528:6947   */\n  swap2\n  swap1\n  pop\n  jump\t// out\n    /* \"#utility.yul\":6953:7122   */\ntag_60:\n    /* \"#utility.yul\":7093:7114   */\n  0x496e76616c6964206c6f636b20706572696f6400000000000000000000000000\n    /* \"#utility.yul\":7089:7090   */\n  0x00\n    /* \"#utility.yul\":7081:7087   */\n  dup3\n    /* \"#utility.yul\":7077:7091   */\n  add\n    /* \"#utility.yul\":7070:7115   */\n  mstore\n    /* \"#utility.yul\":6953:7122   */\n  pop\n  jump\t// out\n    /* \"#utility.yul\":7128:7494   */\ntag_61:\n    /* \"#utility.yul\":7270:7273   */\n  0x00\n    /* \"#utility.yul\":7291:7358   */\n  tag_130\n    /* \"#utility.yul\":7355:7357   */\n  0x13\n    /* \"#utility.yul\":7350:7353   */\n  dup4\n    /* \"#utility.yul\":7291:7358   */\n  tag_45\n  jump\t// in\ntag_130:\n    /* \"#utility.yul\":7284:7358   */\n  swap2\n  pop\n    /* \"#utility.yul\":7367:7460   */\n  tag_131\n    /* \"#utility.yul\":7456:7459   */\n  dup3\n    /* \"#utility.yul\":7367:7460   */\n  tag_60\n  jump\t// in\ntag_131:\n    /* \"#utility.yul\":7485:7487   */\n  0x20\n    /* \"#utility.yul\":7480:7483   */\n  dup3\n    /* \"#utility.yul\":7476:7488   */\n  add\n    /* \"#utility.yul\":7469:7488   */\n  swap1\n  pop\n    /* \"#utility.yul\":7128:7494   */\n  swap2\n  swap1\n  pop\n  jump\t// out\n    /* \"#utility.yul\":7500:7919   */\ntag_31:\n    /* \"#utility.yul\":7666:7670   */\n  0x00\n    /* \"#utility.yul\":7704:7706   */\n  0x20\n    /* \"#utility.yul\":7693:7702   */\n  dup3\n    /* \"#utility.yul\":7689:7707   */\n  add\n    /* \"#utility.yul\":7681:7707   */\n  swap1\n  pop\n    /* \"#utility.yul\":7753:7762   */\n  dup2\n    /* \"#utility.yul\":7747:7751   */\n  dup2\n    /* \"#utility.yul\":7743:7763   */\n  sub\n    /* \"#utility.yul\":7739:7740   */\n  0x00\n    /* \"#utility.yul\":7728:7737   */\n  dup4\n    /* \"#utility.yul\":7724:7741   */\n  add\n    /* \"#utility.yul\":7717:7764   */\n  mstore\n    /* \"#utility.yul\":7781:7912   */\n  tag_133\n    /* \"#utility.yul\":7907:7911   */\n  dup2\n    /* \"#utility.yul\":7781:7912   */\n  tag_61\n  jump\t// in\ntag_133:\n    /* \"#utility.yul\":7773:7912   */\n  swap1\n  pop\n    /* \"#utility.yul\":7500:7919   */\n  swap2\n  swap1\n  pop\n  jump\t// out\n    /* \"contracts/NFTStaking.sol\":412:6260  contract NFTStaking1 is Ownable, ReentrancyGuard {... */\ntag_32:\n  mload(0x80)\n  mload(0xa0)\n  codecopy(0x00, dataOffset(sub_0), dataSize(sub_0))\n  0x00\n  assignImmutable(\"0x1a87bd8a90f68e1a783aeb62d8f14bea0949c88f942ad2b7737dddede78696b4\")\n  0x00\n  assignImmutable(\"0x9459a54a9dc1a91201f12e123a36391197edb81156a93e7e6bc8a3c17589bb36\")\n  return(0x00, dataSize(sub_0))\nstop\n\nsub_0: assembly {\n        /* \"contracts/NFTStaking.sol\":412:6260  contract NFTStaking1 is Ownable, ReentrancyGuard {... */\n      mstore(0x40, 0x80)\n      callvalue\n      dup1\n      iszero\n      tag_1\n      jumpi\n      0x00\n      dup1\n      revert\n    tag_1:\n      pop\n      jumpi(tag_2, lt(calldatasize, 0x04))\n      shr(0xe0, calldataload(0x00))\n      dup1\n      0x8da5cb5b\n      gt\n      tag_16\n      jumpi\n      dup1\n      0xcb12f660\n      gt\n      tag_17\n      jumpi\n      dup1\n      0xcb12f660\n      eq\n      tag_12\n      jumpi\n      dup1\n      0xd1af0c7d\n      eq\n      tag_13\n      jumpi\n      dup1\n      0xf2fde38b\n      eq\n      tag_14\n      jumpi\n      dup1\n      0xff5d8450\n      eq\n      tag_15\n      jumpi\n      jump(tag_2)\n    tag_17:\n      dup1\n      0x8da5cb5b\n      eq\n      tag_9\n      jumpi\n      dup1\n      0xb48509e6\n      eq\n      tag_10\n      jumpi\n      dup1\n      0xc69d1923\n      eq\n      tag_11\n      jumpi\n      jump(tag_2)\n    tag_16:\n      dup1\n      0x20281a98\n      eq\n      tag_3\n      jumpi\n      dup1\n      0x3fd8b02f\n      eq\n      tag_4\n      jumpi\n      dup1\n      0x5eac6239\n      eq\n      tag_5\n      jumpi\n      dup1\n      0x715018a6\n      eq\n      tag_6\n      jumpi\n      dup1\n      0x779972da\n      eq\n      tag_7\n      jumpi\n      dup1\n      0x849a1e1d\n      eq\n      tag_8\n      jumpi\n    tag_2:\n      0x00\n      dup1\n      revert\n        /* \"contracts/NFTStaking.sol\":2809:2942  function claimedRewards(uint256 _tokenId) external view returns (uint256) {... */\n    tag_3:\n      tag_18\n      0x04\n      dup1\n      calldatasize\n      sub\n      dup2\n      add\n      swap1\n      tag_19\n      swap2\n      swap1\n      tag_20\n      jump\t// in\n    tag_19:\n      tag_21\n      jump\t// in\n    tag_18:\n      mload(0x40)\n      tag_22\n      swap2\n      swap1\n      tag_23\n      jump\t// in\n    tag_22:\n      mload(0x40)\n      dup1\n      swap2\n      sub\n      swap1\n      return\n        /* \"contracts/NFTStaking.sol\":632:657  uint256 public lockPeriod */\n    tag_4:\n      tag_24\n      tag_25\n      jump\t// in\n    tag_24:\n      mload(0x40)\n      tag_26\n      swap2\n      swap1\n      tag_23\n      jump\t// in\n    tag_26:\n      mload(0x40)\n      dup1\n      swap2\n      sub\n      swap1\n      return\n        /* \"contracts/NFTStaking.sol\":4837:5744  function claimRewards(uint256[] calldata _tokenIds) external notContract {... */\n    tag_5:\n      tag_27\n      0x04\n      dup1\n      calldatasize\n      sub\n      dup2\n      add\n      swap1\n      tag_28\n      swap2\n      swap1\n      tag_29\n      jump\t// in\n    tag_28:\n      tag_30\n      jump\t// in\n    tag_27:\n      stop\n        /* \"@openzeppelin/contracts/access/Ownable.sol\":1831:1932  function renounceOwnership() public virtual onlyOwner {... */\n    tag_6:\n      tag_31\n      tag_32\n      jump\t// in\n    tag_31:\n      stop\n        /* \"contracts/NFTStaking.sol\":2428:2641  function setLockPeriod(uint256 _lockPeriod) external onlyOwner {... */\n    tag_7:\n      tag_33\n      0x04\n      dup1\n      calldatasize\n      sub\n      dup2\n      add\n      swap1\n      tag_34\n      swap2\n      swap1\n      tag_20\n      jump\t// in\n    tag_34:\n      tag_35\n      jump\t// in\n    tag_33:\n      stop\n        /* \"contracts/NFTStaking.sol\":3782:4739  function unlockNFT(uint256[] calldata _tokenIds) external notContract nonReentrant {... */\n    tag_8:\n      tag_36\n      0x04\n      dup1\n      calldatasize\n      sub\n      dup2\n      add\n      swap1\n      tag_37\n      swap2\n      swap1\n      tag_29\n      jump\t// in\n    tag_37:\n      tag_38\n      jump\t// in\n    tag_36:\n      stop\n        /* \"@openzeppelin/contracts/access/Ownable.sol\":1201:1286  function owner() public view virtual returns (address) {... */\n    tag_9:\n      tag_39\n      tag_40\n      jump\t// in\n    tag_39:\n      mload(0x40)\n      tag_41\n      swap2\n      swap1\n      tag_42\n      jump\t// in\n    tag_41:\n      mload(0x40)\n      dup1\n      swap2\n      sub\n      swap1\n      return\n        /* \"contracts/NFTStaking.sol\":590:623  IERC721 public immutable stakeNFT */\n    tag_10:\n      tag_43\n      tag_44\n      jump\t// in\n    tag_43:\n      mload(0x40)\n      tag_45\n      swap2\n      swap1\n      tag_46\n      jump\t// in\n    tag_45:\n      mload(0x40)\n      dup1\n      swap2\n      sub\n      swap1\n      return\n        /* \"contracts/NFTStaking.sol\":921:940  uint256 public WAVE */\n    tag_11:\n      tag_47\n      tag_48\n      jump\t// in\n    tag_47:\n      mload(0x40)\n      tag_49\n      swap2\n      swap1\n      tag_23\n      jump\t// in\n    tag_49:\n      mload(0x40)\n      dup1\n      swap2\n      sub\n      swap1\n      return\n        /* \"contracts/NFTStaking.sol\":947:976  uint256 public rewardsPerWave */\n    tag_12:\n      tag_50\n      tag_51\n      jump\t// in\n    tag_50:\n      mload(0x40)\n      tag_52\n      swap2\n      swap1\n      tag_23\n      jump\t// in\n    tag_52:\n      mload(0x40)\n      dup1\n      swap2\n      sub\n      swap1\n      return\n        /* \"contracts/NFTStaking.sol\":540:583  IRewardsToken public immutable rewardsToken */\n    tag_13:\n      tag_53\n      tag_54\n      jump\t// in\n    tag_53:\n      mload(0x40)\n      tag_55\n      swap2\n      swap1\n      tag_56\n      jump\t// in\n    tag_55:\n      mload(0x40)\n      dup1\n      swap2\n      sub\n      swap1\n      return\n        /* \"@openzeppelin/contracts/access/Ownable.sol\":2081:2279  function transferOwnership(address newOwner) public virtual onlyOwner {... */\n    tag_14:\n      tag_57\n      0x04\n      dup1\n      calldatasize\n      sub\n      dup2\n      add\n      swap1\n      tag_58\n      swap2\n      swap1\n      tag_59\n      jump\t// in\n    tag_58:\n      tag_60\n      jump\t// in\n    tag_57:\n      stop\n        /* \"contracts/NFTStaking.sol\":3083:3607  function lockNFT(uint256[] calldata _tokenIds) external notContract nonReentrant {... */\n    tag_15:\n      tag_61\n      0x04\n      dup1\n      calldatasize\n      sub\n      dup2\n      add\n      swap1\n      tag_62\n      swap2\n      swap1\n      tag_29\n      jump\t// in\n    tag_62:\n      tag_63\n      jump\t// in\n    tag_61:\n      stop\n        /* \"contracts/NFTStaking.sol\":2809:2942  function claimedRewards(uint256 _tokenId) external view returns (uint256) {... */\n    tag_21:\n        /* \"contracts/NFTStaking.sol\":2874:2881  uint256 */\n      0x00\n        /* \"contracts/NFTStaking.sol\":2901:2909  lockInfo */\n      0x03\n        /* \"contracts/NFTStaking.sol\":2901:2919  lockInfo[_tokenId] */\n      0x00\n        /* \"contracts/NFTStaking.sol\":2910:2918  _tokenId */\n      dup4\n        /* \"contracts/NFTStaking.sol\":2901:2919  lockInfo[_tokenId] */\n      dup2\n      mstore\n      0x20\n      add\n      swap1\n      dup2\n      mstore\n      0x20\n      add\n      0x00\n      keccak256\n        /* \"contracts/NFTStaking.sol\":2901:2934  lockInfo[_tokenId].claimedRewards */\n      0x02\n      add\n      sload\n        /* \"contracts/NFTStaking.sol\":2894:2934  return lockInfo[_tokenId].claimedRewards */\n      swap1\n      pop\n        /* \"contracts/NFTStaking.sol\":2809:2942  function claimedRewards(uint256 _tokenId) external view returns (uint256) {... */\n      swap2\n      swap1\n      pop\n      jump\t// out\n        /* \"contracts/NFTStaking.sol\":632:657  uint256 public lockPeriod */\n    tag_25:\n      sload(0x02)\n      dup2\n      jump\t// out\n        /* \"contracts/NFTStaking.sol\":4837:5744  function claimRewards(uint256[] calldata _tokenIds) external notContract {... */\n    tag_30:\n        /* \"contracts/NFTStaking.sol\":2154:2186  address(msg.sender).isContract() */\n      tag_66\n        /* \"contracts/NFTStaking.sol\":2162:2172  msg.sender */\n      caller\n        /* \"contracts/NFTStaking.sol\":2154:2184  address(msg.sender).isContract */\n      0xffffffffffffffffffffffffffffffffffffffff\n      and\n      tag_67\n        /* \"contracts/NFTStaking.sol\":2154:2186  address(msg.sender).isContract() */\n      jump\t// in\n    tag_66:\n        /* \"contracts/NFTStaking.sol\":2153:2186  !address(msg.sender).isContract() */\n      iszero\n        /* \"contracts/NFTStaking.sol\":2145:2211  require(!address(msg.sender).isContract(), \"Contract not allowed\") */\n      tag_68\n      jumpi\n      mload(0x40)\n      0x08c379a000000000000000000000000000000000000000000000000000000000\n      dup2\n      mstore\n      0x04\n      add\n      tag_69\n      swap1\n      tag_70\n      jump\t// in\n    tag_69:\n      mload(0x40)\n      dup1\n      swap2\n      sub\n      swap1\n      revert\n    tag_68:\n        /* \"contracts/NFTStaking.sol\":2244:2253  tx.origin */\n      origin\n        /* \"contracts/NFTStaking.sol\":2230:2253  msg.sender == tx.origin */\n      0xffffffffffffffffffffffffffffffffffffffff\n      and\n        /* \"contracts/NFTStaking.sol\":2230:2240  msg.sender */\n      caller\n        /* \"contracts/NFTStaking.sol\":2230:2253  msg.sender == tx.origin */\n      0xffffffffffffffffffffffffffffffffffffffff\n      and\n      eq\n        /* \"contracts/NFTStaking.sol\":2222:2284  require(msg.sender == tx.origin, \"Proxy contract not allowed\") */\n      tag_71\n      jumpi\n      mload(0x40)\n      0x08c379a000000000000000000000000000000000000000000000000000000000\n      dup2\n      mstore\n      0x04\n      add\n      tag_72\n      swap1\n      tag_73\n      jump\t// in\n    tag_72:\n      mload(0x40)\n      dup1\n      swap2\n      sub\n      swap1\n      revert\n    tag_71:\n        /* \"contracts/NFTStaking.sol\":4948:4949  0 */\n      0x00\n        /* \"contracts/NFTStaking.sol\":4929:4938  _tokenIds */\n      dup3\n      dup3\n        /* \"contracts/NFTStaking.sol\":4929:4945  _tokenIds.length */\n      swap1\n      pop\n        /* \"contracts/NFTStaking.sol\":4929:4949  _tokenIds.length > 0 */\n      gt\n        /* \"contracts/NFTStaking.sol\":4921:4963  require(_tokenIds.length > 0, \"No tokens\") */\n      tag_75\n      jumpi\n      mload(0x40)\n      0x08c379a000000000000000000000000000000000000000000000000000000000\n      dup2\n      mstore\n      0x04\n      add\n      tag_76\n      swap1\n      tag_77\n      jump\t// in\n    tag_76:\n      mload(0x40)\n      dup1\n      swap2\n      sub\n      swap1\n      revert\n    tag_75:\n        /* \"contracts/NFTStaking.sol\":4976:4996  uint256 totalRewards */\n      0x00\n        /* \"contracts/NFTStaking.sol\":5012:5021  uint256 i */\n      dup1\n        /* \"contracts/NFTStaking.sol\":5024:5025  0 */\n      0x00\n        /* \"contracts/NFTStaking.sol\":5012:5025  uint256 i = 0 */\n      swap1\n      pop\n        /* \"contracts/NFTStaking.sol\":5007:5668  for (uint256 i = 0; i < _tokenIds.length; i++) {... */\n    tag_78:\n        /* \"contracts/NFTStaking.sol\":5031:5040  _tokenIds */\n      dup4\n      dup4\n        /* \"contracts/NFTStaking.sol\":5031:5047  _tokenIds.length */\n      swap1\n      pop\n        /* \"contracts/NFTStaking.sol\":5027:5028  i */\n      dup2\n        /* \"contracts/NFTStaking.sol\":5027:5047  i < _tokenIds.length */\n      lt\n        /* \"contracts/NFTStaking.sol\":5007:5668  for (uint256 i = 0; i < _tokenIds.length; i++) {... */\n      iszero\n      tag_79\n      jumpi\n        /* \"contracts/NFTStaking.sol\":5069:5089  LockInfo memory info */\n      0x00\n        /* \"contracts/NFTStaking.sol\":5092:5100  lockInfo */\n      0x03\n        /* \"contracts/NFTStaking.sol\":5092:5114  lockInfo[_tokenIds[i]] */\n      0x00\n        /* \"contracts/NFTStaking.sol\":5101:5110  _tokenIds */\n      dup7\n      dup7\n        /* \"contracts/NFTStaking.sol\":5111:5112  i */\n      dup6\n        /* \"contracts/NFTStaking.sol\":5101:5113  _tokenIds[i] */\n      dup2\n      dup2\n      lt\n      tag_81\n      jumpi\n      tag_82\n      tag_83\n      jump\t// in\n    tag_82:\n    tag_81:\n      swap1\n      pop\n      0x20\n      mul\n      add\n      calldataload\n        /* \"contracts/NFTStaking.sol\":5092:5114  lockInfo[_tokenIds[i]] */\n      dup2\n      mstore\n      0x20\n      add\n      swap1\n      dup2\n      mstore\n      0x20\n      add\n      0x00\n      keccak256\n        /* \"contracts/NFTStaking.sol\":5069:5114  LockInfo memory info = lockInfo[_tokenIds[i]] */\n      mload(0x40)\n      dup1\n      0x80\n      add\n      0x40\n      mstore\n      swap1\n      dup2\n      0x00\n      dup3\n      add\n      0x00\n      swap1\n      sload\n      swap1\n      0x0100\n      exp\n      swap1\n      div\n      0xffffffffffffffffffffffffffffffffffffffff\n      and\n      0xffffffffffffffffffffffffffffffffffffffff\n      and\n      0xffffffffffffffffffffffffffffffffffffffff\n      and\n      dup2\n      mstore\n      0x20\n      add\n      0x01\n      dup3\n      add\n      sload\n      dup2\n      mstore\n      0x20\n      add\n      0x02\n      dup3\n      add\n      sload\n      dup2\n      mstore\n      0x20\n      add\n      0x03\n      dup3\n      add\n      0x00\n      swap1\n      sload\n      swap1\n      0x0100\n      exp\n      swap1\n      div\n      0xff\n      and\n      iszero\n      iszero\n      iszero\n      iszero\n      dup2\n      mstore\n      pop\n      pop\n      swap1\n      pop\n        /* \"contracts/NFTStaking.sol\":5151:5161  msg.sender */\n      caller\n        /* \"contracts/NFTStaking.sol\":5137:5161  info.owner == msg.sender */\n      0xffffffffffffffffffffffffffffffffffffffff\n      and\n        /* \"contracts/NFTStaking.sol\":5137:5141  info */\n      dup2\n        /* \"contracts/NFTStaking.sol\":5137:5147  info.owner */\n      0x00\n      add\n      mload\n        /* \"contracts/NFTStaking.sol\":5137:5161  info.owner == msg.sender */\n      0xffffffffffffffffffffffffffffffffffffffff\n      and\n      eq\n        /* \"contracts/NFTStaking.sol\":5129:5183  require(info.owner == msg.sender, \"Not a token owner\") */\n      tag_84\n      jumpi\n      mload(0x40)\n      0x08c379a000000000000000000000000000000000000000000000000000000000\n      dup2\n      mstore\n      0x04\n      add\n      tag_85\n      swap1\n      tag_86\n      jump\t// in\n    tag_85:\n      mload(0x40)\n      dup1\n      swap2\n      sub\n      swap1\n      revert\n    tag_84:\n        /* \"contracts/NFTStaking.sol\":5237:5252  block.timestamp */\n      timestamp\n        /* \"contracts/NFTStaking.sol\":5224:5234  lockPeriod */\n      sload(0x02)\n        /* \"contracts/NFTStaking.sol\":5206:5210  info */\n      dup3\n        /* \"contracts/NFTStaking.sol\":5206:5221  info.lockedTime */\n      0x20\n      add\n      mload\n        /* \"contracts/NFTStaking.sol\":5206:5234  info.lockedTime + lockPeriod */\n      tag_87\n      swap2\n      swap1\n      tag_88\n      jump\t// in\n    tag_87:\n        /* \"contracts/NFTStaking.sol\":5206:5252  info.lockedTime + lockPeriod < block.timestamp */\n      lt\n        /* \"contracts/NFTStaking.sol\":5198:5278  require(info.lockedTime + lockPeriod < block.timestamp, \"Not able to claim yet\") */\n      tag_89\n      jumpi\n      mload(0x40)\n      0x08c379a000000000000000000000000000000000000000000000000000000000\n      dup2\n      mstore\n      0x04\n      add\n      tag_90\n      swap1\n      tag_91\n      jump\t// in\n    tag_90:\n      mload(0x40)\n      dup1\n      swap2\n      sub\n      swap1\n      revert\n    tag_89:\n        /* \"contracts/NFTStaking.sol\":5302:5306  info */\n      dup1\n        /* \"contracts/NFTStaking.sol\":5302:5317  info.isUnlocked */\n      0x60\n      add\n      mload\n        /* \"contracts/NFTStaking.sol\":5301:5317  !info.isUnlocked */\n      iszero\n        /* \"contracts/NFTStaking.sol\":5293:5338  require(!info.isUnlocked, \"Already unlocked\") */\n      tag_92\n      jumpi\n      mload(0x40)\n      0x08c379a000000000000000000000000000000000000000000000000000000000\n      dup2\n      mstore\n      0x04\n      add\n      tag_93\n      swap1\n      tag_94\n      jump\t// in\n    tag_93:\n      mload(0x40)\n      dup1\n      swap2\n      sub\n      swap1\n      revert\n    tag_92:\n        /* \"contracts/NFTStaking.sol\":5355:5374  uint256 totalAmount */\n      0x00\n        /* \"contracts/NFTStaking.sol\":5377:5404  _rewardAmount(_tokenIds[i]) */\n      tag_95\n        /* \"contracts/NFTStaking.sol\":5391:5400  _tokenIds */\n      dup7\n      dup7\n        /* \"contracts/NFTStaking.sol\":5401:5402  i */\n      dup6\n        /* \"contracts/NFTStaking.sol\":5391:5403  _tokenIds[i] */\n      dup2\n      dup2\n      lt\n      tag_96\n      jumpi\n      tag_97\n      tag_83\n      jump\t// in\n    tag_97:\n    tag_96:\n      swap1\n      pop\n      0x20\n      mul\n      add\n      calldataload\n        /* \"contracts/NFTStaking.sol\":5377:5390  _rewardAmount */\n      tag_98\n        /* \"contracts/NFTStaking.sol\":5377:5404  _rewardAmount(_tokenIds[i]) */\n      jump\t// in\n    tag_95:\n        /* \"contracts/NFTStaking.sol\":5355:5404  uint256 totalAmount = _rewardAmount(_tokenIds[i]) */\n      swap1\n      pop\n        /* \"contracts/NFTStaking.sol\":5419:5443  uint256 unclaminedAmount */\n      0x00\n        /* \"contracts/NFTStaking.sol\":5460:5464  info */\n      dup3\n        /* \"contracts/NFTStaking.sol\":5460:5479  info.claimedRewards */\n      0x40\n      add\n      mload\n        /* \"contracts/NFTStaking.sol\":5446:5457  totalAmount */\n      dup3\n        /* \"contracts/NFTStaking.sol\":5446:5479  totalAmount - info.claimedRewards */\n      tag_99\n      swap2\n      swap1\n      tag_100\n      jump\t// in\n    tag_99:\n        /* \"contracts/NFTStaking.sol\":5419:5479  uint256 unclaminedAmount = totalAmount - info.claimedRewards */\n      swap1\n      pop\n        /* \"contracts/NFTStaking.sol\":5494:5506  rewardsToken */\n      immutable(\"0x9459a54a9dc1a91201f12e123a36391197edb81156a93e7e6bc8a3c17589bb36\")\n        /* \"contracts/NFTStaking.sol\":5494:5511  rewardsToken.mint */\n      0xffffffffffffffffffffffffffffffffffffffff\n      and\n      0x40c10f19\n        /* \"contracts/NFTStaking.sol\":5512:5522  msg.sender */\n      caller\n        /* \"contracts/NFTStaking.sol\":5524:5540  unclaminedAmount */\n      dup4\n        /* \"contracts/NFTStaking.sol\":5494:5541  rewardsToken.mint(msg.sender, unclaminedAmount) */\n      mload(0x40)\n      dup4\n      0xffffffff\n      and\n      0xe0\n      shl\n      dup2\n      mstore\n      0x04\n      add\n      tag_101\n      swap3\n      swap2\n      swap1\n      tag_102\n      jump\t// in\n    tag_101:\n      0x00\n      mload(0x40)\n      dup1\n      dup4\n      sub\n      dup2\n      0x00\n      dup8\n      dup1\n      extcodesize\n      iszero\n      dup1\n      iszero\n      tag_103\n      jumpi\n      0x00\n      dup1\n      revert\n    tag_103:\n      pop\n      gas\n      call\n      iszero\n      dup1\n      iszero\n      tag_105\n      jumpi\n      returndatasize\n      0x00\n      dup1\n      returndatacopy\n      revert(0x00, returndatasize)\n    tag_105:\n      pop\n      pop\n      pop\n      pop\n        /* \"contracts/NFTStaking.sol\":5572:5588  unclaminedAmount */\n      dup1\n        /* \"contracts/NFTStaking.sol\":5556:5588  totalRewards += unclaminedAmount */\n      dup6\n      tag_106\n      swap2\n      swap1\n      tag_88\n      jump\t// in\n    tag_106:\n      swap5\n      pop\n        /* \"contracts/NFTStaking.sol\":5645:5656  totalAmount */\n      dup2\n        /* \"contracts/NFTStaking.sol\":5605:5613  lockInfo */\n      0x03\n        /* \"contracts/NFTStaking.sol\":5605:5627  lockInfo[_tokenIds[i]] */\n      0x00\n        /* \"contracts/NFTStaking.sol\":5614:5623  _tokenIds */\n      dup10\n      dup10\n        /* \"contracts/NFTStaking.sol\":5624:5625  i */\n      dup9\n        /* \"contracts/NFTStaking.sol\":5614:5626  _tokenIds[i] */\n      dup2\n      dup2\n      lt\n      tag_107\n      jumpi\n      tag_108\n      tag_83\n      jump\t// in\n    tag_108:\n    tag_107:\n      swap1\n      pop\n      0x20\n      mul\n      add\n      calldataload\n        /* \"contracts/NFTStaking.sol\":5605:5627  lockInfo[_tokenIds[i]] */\n      dup2\n      mstore\n      0x20\n      add\n      swap1\n      dup2\n      mstore\n      0x20\n      add\n      0x00\n      keccak256\n        /* \"contracts/NFTStaking.sol\":5605:5642  lockInfo[_tokenIds[i]].claimedRewards */\n      0x02\n      add\n        /* \"contracts/NFTStaking.sol\":5605:5656  lockInfo[_tokenIds[i]].claimedRewards = totalAmount */\n      dup2\n      swap1\n      sstore\n      pop\n        /* \"contracts/NFTStaking.sol\":5054:5668  {... */\n      pop\n      pop\n      pop\n        /* \"contracts/NFTStaking.sol\":5049:5052  i++ */\n      dup1\n      dup1\n      tag_109\n      swap1\n      tag_110\n      jump\t// in\n    tag_109:\n      swap2\n      pop\n      pop\n        /* \"contracts/NFTStaking.sol\":5007:5668  for (uint256 i = 0; i < _tokenIds.length; i++) {... */\n      jump(tag_78)\n    tag_79:\n      pop\n        /* \"contracts/NFTStaking.sol\":5700:5710  msg.sender */\n      caller\n        /* \"contracts/NFTStaking.sol\":5685:5736  RewardsClaimed(msg.sender, _tokenIds, totalRewards) */\n      0xffffffffffffffffffffffffffffffffffffffff\n      and\n      0x37826be3c26dbad83731f4b985f22fa9ef86b6d1974cd77208332b7f1f283c0c\n        /* \"contracts/NFTStaking.sol\":5712:5721  _tokenIds */\n      dup5\n      dup5\n        /* \"contracts/NFTStaking.sol\":5723:5735  totalRewards */\n      dup5\n        /* \"contracts/NFTStaking.sol\":5685:5736  RewardsClaimed(msg.sender, _tokenIds, totalRewards) */\n      mload(0x40)\n      tag_111\n      swap4\n      swap3\n      swap2\n      swap1\n      tag_112\n      jump\t// in\n    tag_111:\n      mload(0x40)\n      dup1\n      swap2\n      sub\n      swap1\n      log2\n        /* \"contracts/NFTStaking.sol\":4910:5744  {... */\n      pop\n        /* \"contracts/NFTStaking.sol\":4837:5744  function claimRewards(uint256[] calldata _tokenIds) external notContract {... */\n      pop\n      pop\n      jump\t// out\n        /* \"@openzeppelin/contracts/access/Ownable.sol\":1831:1932  function renounceOwnership() public virtual onlyOwner {... */\n    tag_32:\n        /* \"@openzeppelin/contracts/access/Ownable.sol\":1094:1107  _checkOwner() */\n      tag_114\n        /* \"@openzeppelin/contracts/access/Ownable.sol\":1094:1105  _checkOwner */\n      tag_115\n        /* \"@openzeppelin/contracts/access/Ownable.sol\":1094:1107  _checkOwner() */\n      jump\t// in\n    tag_114:\n        /* \"@openzeppelin/contracts/access/Ownable.sol\":1895:1925  _transferOwnership(address(0)) */\n      tag_117\n        /* \"@openzeppelin/contracts/access/Ownable.sol\":1922:1923  0 */\n      0x00\n        /* \"@openzeppelin/contracts/access/Ownable.sol\":1895:1913  _transferOwnership */\n      tag_118\n        /* \"@openzeppelin/contracts/access/Ownable.sol\":1895:1925  _transferOwnership(address(0)) */\n      jump\t// in\n    tag_117:\n        /* \"@openzeppelin/contracts/access/Ownable.sol\":1831:1932  function renounceOwnership() public virtual onlyOwner {... */\n      jump\t// out\n        /* \"contracts/NFTStaking.sol\":2428:2641  function setLockPeriod(uint256 _lockPeriod) external onlyOwner {... */\n    tag_35:\n        /* \"@openzeppelin/contracts/access/Ownable.sol\":1094:1107  _checkOwner() */\n      tag_120\n        /* \"@openzeppelin/contracts/access/Ownable.sol\":1094:1105  _checkOwner */\n      tag_115\n        /* \"@openzeppelin/contracts/access/Ownable.sol\":1094:1107  _checkOwner() */\n      jump\t// in\n    tag_120:\n        /* \"contracts/NFTStaking.sol\":2524:2525  0 */\n      0x00\n        /* \"contracts/NFTStaking.sol\":2510:2521  _lockPeriod */\n      dup2\n        /* \"contracts/NFTStaking.sol\":2510:2525  _lockPeriod > 0 */\n      gt\n        /* \"contracts/NFTStaking.sol\":2502:2550  require(_lockPeriod > 0, \"Invalid lock period.\") */\n      tag_122\n      jumpi\n      mload(0x40)\n      0x08c379a000000000000000000000000000000000000000000000000000000000\n      dup2\n      mstore\n      0x04\n      add\n      tag_123\n      swap1\n      tag_124\n      jump\t// in\n    tag_123:\n      mload(0x40)\n      dup1\n      swap2\n      sub\n      swap1\n      revert\n    tag_122:\n        /* \"contracts/NFTStaking.sol\":2574:2585  _lockPeriod */\n      dup1\n        /* \"contracts/NFTStaking.sol\":2561:2571  lockPeriod */\n      0x02\n        /* \"contracts/NFTStaking.sol\":2561:2585  lockPeriod = _lockPeriod */\n      dup2\n      swap1\n      sstore\n      pop\n        /* \"contracts/NFTStaking.sol\":2603:2633  LockPeriodUpdated(_lockPeriod) */\n      0x8249ec545e68f6f1e1230133ca48c704d831a7f8e635ded80f3dd9e99b09bb2f\n        /* \"contracts/NFTStaking.sol\":2621:2632  _lockPeriod */\n      dup2\n        /* \"contracts/NFTStaking.sol\":2603:2633  LockPeriodUpdated(_lockPeriod) */\n      mload(0x40)\n      tag_125\n      swap2\n      swap1\n      tag_23\n      jump\t// in\n    tag_125:\n      mload(0x40)\n      dup1\n      swap2\n      sub\n      swap1\n      log1\n        /* \"contracts/NFTStaking.sol\":2428:2641  function setLockPeriod(uint256 _lockPeriod) external onlyOwner {... */\n      pop\n      jump\t// out\n        /* \"contracts/NFTStaking.sol\":3782:4739  function unlockNFT(uint256[] calldata _tokenIds) external notContract nonReentrant {... */\n    tag_38:\n        /* \"contracts/NFTStaking.sol\":2154:2186  address(msg.sender).isContract() */\n      tag_127\n        /* \"contracts/NFTStaking.sol\":2162:2172  msg.sender */\n      caller\n        /* \"contracts/NFTStaking.sol\":2154:2184  address(msg.sender).isContract */\n      0xffffffffffffffffffffffffffffffffffffffff\n      and\n      tag_67\n        /* \"contracts/NFTStaking.sol\":2154:2186  address(msg.sender).isContract() */\n      jump\t// in\n    tag_127:\n        /* \"contracts/NFTStaking.sol\":2153:2186  !address(msg.sender).isContract() */\n      iszero\n        /* \"contracts/NFTStaking.sol\":2145:2211  require(!address(msg.sender).isContract(), \"Contract not allowed\") */\n      tag_128\n      jumpi\n      mload(0x40)\n      0x08c379a000000000000000000000000000000000000000000000000000000000\n      dup2\n      mstore\n      0x04\n      add\n      tag_129\n      swap1\n      tag_70\n      jump\t// in\n    tag_129:\n      mload(0x40)\n      dup1\n      swap2\n      sub\n      swap1\n      revert\n    tag_128:\n        /* \"contracts/NFTStaking.sol\":2244:2253  tx.origin */\n      origin\n        /* \"contracts/NFTStaking.sol\":2230:2253  msg.sender == tx.origin */\n      0xffffffffffffffffffffffffffffffffffffffff\n      and\n        /* \"contracts/NFTStaking.sol\":2230:2240  msg.sender */\n      caller\n        /* \"contracts/NFTStaking.sol\":2230:2253  msg.sender == tx.origin */\n      0xffffffffffffffffffffffffffffffffffffffff\n      and\n      eq\n        /* \"contracts/NFTStaking.sol\":2222:2284  require(msg.sender == tx.origin, \"Proxy contract not allowed\") */\n      tag_130\n      jumpi\n      mload(0x40)\n      0x08c379a000000000000000000000000000000000000000000000000000000000\n      dup2\n      mstore\n      0x04\n      add\n      tag_131\n      swap1\n      tag_73\n      jump\t// in\n    tag_131:\n      mload(0x40)\n      dup1\n      swap2\n      sub\n      swap1\n      revert\n    tag_130:\n        /* \"@openzeppelin/contracts/security/ReentrancyGuard.sol\":1744:1745  2 */\n      0x02\n        /* \"@openzeppelin/contracts/security/ReentrancyGuard.sol\":2325:2332  _status */\n      sload(0x01)\n        /* \"@openzeppelin/contracts/security/ReentrancyGuard.sol\":2325:2344  _status != _ENTERED */\n      sub\n        /* \"@openzeppelin/contracts/security/ReentrancyGuard.sol\":2317:2380  require(_status != _ENTERED, \"ReentrancyGuard: reentrant call\") */\n      tag_133\n      jumpi\n      mload(0x40)\n      0x08c379a000000000000000000000000000000000000000000000000000000000\n      dup2\n      mstore\n      0x04\n      add\n      tag_134\n      swap1\n      tag_135\n      jump\t// in\n    tag_134:\n      mload(0x40)\n      dup1\n      swap2\n      sub\n      swap1\n      revert\n    tag_133:\n        /* \"@openzeppelin/contracts/security/ReentrancyGuard.sol\":1744:1745  2 */\n      0x02\n        /* \"@openzeppelin/contracts/security/ReentrancyGuard.sol\":2455:2462  _status */\n      0x01\n        /* \"@openzeppelin/contracts/security/ReentrancyGuard.sol\":2455:2473  _status = _ENTERED */\n      dup2\n      swap1\n      sstore\n      pop\n        /* \"contracts/NFTStaking.sol\":3903:3904  0 */\n      0x00\n        /* \"contracts/NFTStaking.sol\":3884:3893  _tokenIds */\n      dup3\n      dup3\n        /* \"contracts/NFTStaking.sol\":3884:3900  _tokenIds.length */\n      swap1\n      pop\n        /* \"contracts/NFTStaking.sol\":3884:3904  _tokenIds.length > 0 */\n      gt\n        /* \"contracts/NFTStaking.sol\":3876:3918  require(_tokenIds.length > 0, \"No tokens\") */\n      tag_137\n      jumpi\n      mload(0x40)\n      0x08c379a000000000000000000000000000000000000000000000000000000000\n      dup2\n      mstore\n      0x04\n      add\n      tag_138\n      swap1\n      tag_77\n      jump\t// in\n    tag_138:\n      mload(0x40)\n      dup1\n      swap2\n      sub\n      swap1\n      revert\n    tag_137:\n        /* \"contracts/NFTStaking.sol\":3936:3945  uint256 i */\n      0x00\n        /* \"contracts/NFTStaking.sol\":3931:4680  for (uint256 i = 0; i < _tokenIds.length; i++) {... */\n    tag_139:\n        /* \"contracts/NFTStaking.sol\":3955:3964  _tokenIds */\n      dup3\n      dup3\n        /* \"contracts/NFTStaking.sol\":3955:3971  _tokenIds.length */\n      swap1\n      pop\n        /* \"contracts/NFTStaking.sol\":3951:3952  i */\n      dup2\n        /* \"contracts/NFTStaking.sol\":3951:3971  i < _tokenIds.length */\n      lt\n        /* \"contracts/NFTStaking.sol\":3931:4680  for (uint256 i = 0; i < _tokenIds.length; i++) {... */\n      iszero\n      tag_140\n      jumpi\n        /* \"contracts/NFTStaking.sol\":3993:4013  LockInfo memory info */\n      0x00\n        /* \"contracts/NFTStaking.sol\":4016:4024  lockInfo */\n      0x03\n        /* \"contracts/NFTStaking.sol\":4016:4038  lockInfo[_tokenIds[i]] */\n      0x00\n        /* \"contracts/NFTStaking.sol\":4025:4034  _tokenIds */\n      dup6\n      dup6\n        /* \"contracts/NFTStaking.sol\":4035:4036  i */\n      dup6\n        /* \"contracts/NFTStaking.sol\":4025:4037  _tokenIds[i] */\n      dup2\n      dup2\n      lt\n      tag_142\n      jumpi\n      tag_143\n      tag_83\n      jump\t// in\n    tag_143:\n    tag_142:\n      swap1\n      pop\n      0x20\n      mul\n      add\n      calldataload\n        /* \"contracts/NFTStaking.sol\":4016:4038  lockInfo[_tokenIds[i]] */\n      dup2\n      mstore\n      0x20\n      add\n      swap1\n      dup2\n      mstore\n      0x20\n      add\n      0x00\n      keccak256\n        /* \"contracts/NFTStaking.sol\":3993:4038  LockInfo memory info = lockInfo[_tokenIds[i]] */\n      mload(0x40)\n      dup1\n      0x80\n      add\n      0x40\n      mstore\n      swap1\n      dup2\n      0x00\n      dup3\n      add\n      0x00\n      swap1\n      sload\n      swap1\n      0x0100\n      exp\n      swap1\n      div\n      0xffffffffffffffffffffffffffffffffffffffff\n      and\n      0xffffffffffffffffffffffffffffffffffffffff\n      and\n      0xffffffffffffffffffffffffffffffffffffffff\n      and\n      dup2\n      mstore\n      0x20\n      add\n      0x01\n      dup3\n      add\n      sload\n      dup2\n      mstore\n      0x20\n      add\n      0x02\n      dup3\n      add\n      sload\n      dup2\n      mstore\n      0x20\n      add\n      0x03\n      dup3\n      add\n      0x00\n      swap1\n      sload\n      swap1\n      0x0100\n      exp\n      swap1\n      div\n      0xff\n      and\n      iszero\n      iszero\n      iszero\n      iszero\n      dup2\n      mstore\n      pop\n      pop\n      swap1\n      pop\n        /* \"contracts/NFTStaking.sol\":4075:4085  msg.sender */\n      caller\n        /* \"contracts/NFTStaking.sol\":4061:4085  info.owner == msg.sender */\n      0xffffffffffffffffffffffffffffffffffffffff\n      and\n        /* \"contracts/NFTStaking.sol\":4061:4065  info */\n      dup2\n        /* \"contracts/NFTStaking.sol\":4061:4071  info.owner */\n      0x00\n      add\n      mload\n        /* \"contracts/NFTStaking.sol\":4061:4085  info.owner == msg.sender */\n      0xffffffffffffffffffffffffffffffffffffffff\n      and\n      eq\n        /* \"contracts/NFTStaking.sol\":4053:4107  require(info.owner == msg.sender, \"Not a token owner\") */\n      tag_144\n      jumpi\n      mload(0x40)\n      0x08c379a000000000000000000000000000000000000000000000000000000000\n      dup2\n      mstore\n      0x04\n      add\n      tag_145\n      swap1\n      tag_86\n      jump\t// in\n    tag_145:\n      mload(0x40)\n      dup1\n      swap2\n      sub\n      swap1\n      revert\n    tag_144:\n        /* \"contracts/NFTStaking.sol\":4161:4176  block.timestamp */\n      timestamp\n        /* \"contracts/NFTStaking.sol\":4148:4158  lockPeriod */\n      sload(0x02)\n        /* \"contracts/NFTStaking.sol\":4130:4134  info */\n      dup3\n        /* \"contracts/NFTStaking.sol\":4130:4145  info.lockedTime */\n      0x20\n      add\n      mload\n        /* \"contracts/NFTStaking.sol\":4130:4158  info.lockedTime + lockPeriod */\n      tag_146\n      swap2\n      swap1\n      tag_88\n      jump\t// in\n    tag_146:\n        /* \"contracts/NFTStaking.sol\":4130:4176  info.lockedTime + lockPeriod < block.timestamp */\n      lt\n        /* \"contracts/NFTStaking.sol\":4122:4203  require(info.lockedTime + lockPeriod < block.timestamp, \"Not able to unlock yet\") */\n      tag_147\n      jumpi\n      mload(0x40)\n      0x08c379a000000000000000000000000000000000000000000000000000000000\n      dup2\n      mstore\n      0x04\n      add\n      tag_148\n      swap1\n      tag_149\n      jump\t// in\n    tag_148:\n      mload(0x40)\n      dup1\n      swap2\n      sub\n      swap1\n      revert\n    tag_147:\n        /* \"contracts/NFTStaking.sol\":4227:4231  info */\n      dup1\n        /* \"contracts/NFTStaking.sol\":4227:4242  info.isUnlocked */\n      0x60\n      add\n      mload\n        /* \"contracts/NFTStaking.sol\":4226:4242  !info.isUnlocked */\n      iszero\n        /* \"contracts/NFTStaking.sol\":4218:4263  require(!info.isUnlocked, \"Already unlocked\") */\n      tag_150\n      jumpi\n      mload(0x40)\n      0x08c379a000000000000000000000000000000000000000000000000000000000\n      dup2\n      mstore\n      0x04\n      add\n      tag_151\n      swap1\n      tag_94\n      jump\t// in\n    tag_151:\n      mload(0x40)\n      dup1\n      swap2\n      sub\n      swap1\n      revert\n    tag_150:\n        /* \"contracts/NFTStaking.sol\":4280:4288  stakeNFT */\n      immutable(\"0x1a87bd8a90f68e1a783aeb62d8f14bea0949c88f942ad2b7737dddede78696b4\")\n        /* \"contracts/NFTStaking.sol\":4280:4301  stakeNFT.transferFrom */\n      0xffffffffffffffffffffffffffffffffffffffff\n      and\n      0x23b872dd\n        /* \"contracts/NFTStaking.sol\":4310:4314  this */\n      address\n        /* \"contracts/NFTStaking.sol\":4317:4327  msg.sender */\n      caller\n        /* \"contracts/NFTStaking.sol\":4329:4338  _tokenIds */\n      dup8\n      dup8\n        /* \"contracts/NFTStaking.sol\":4339:4340  i */\n      dup8\n        /* \"contracts/NFTStaking.sol\":4329:4341  _tokenIds[i] */\n      dup2\n      dup2\n      lt\n      tag_152\n      jumpi\n      tag_153\n      tag_83\n      jump\t// in\n    tag_153:\n    tag_152:\n      swap1\n      pop\n      0x20\n      mul\n      add\n      calldataload\n        /* \"contracts/NFTStaking.sol\":4280:4342  stakeNFT.transferFrom(address(this), msg.sender, _tokenIds[i]) */\n      mload(0x40)\n      dup5\n      0xffffffff\n      and\n      0xe0\n      shl\n      dup2\n      mstore\n      0x04\n      add\n      tag_154\n      swap4\n      swap3\n      swap2\n      swap1\n      tag_155\n      jump\t// in\n    tag_154:\n      0x00\n      mload(0x40)\n      dup1\n      dup4\n      sub\n      dup2\n      0x00\n      dup8\n      dup1\n      extcodesize\n      iszero\n      dup1\n      iszero\n      tag_156\n      jumpi\n      0x00\n      dup1\n      revert\n    tag_156:\n      pop\n      gas\n      call\n      iszero\n      dup1\n      iszero\n      tag_158\n      jumpi\n      returndatasize\n      0x00\n      dup1\n      returndatacopy\n      revert(0x00, returndatasize)\n    tag_158:\n      pop\n      pop\n      pop\n      pop\n        /* \"contracts/NFTStaking.sol\":4359:4378  uint256 totalAmount */\n      0x00\n        /* \"contracts/NFTStaking.sol\":4381:4408  _rewardAmount(_tokenIds[i]) */\n      tag_159\n        /* \"contracts/NFTStaking.sol\":4395:4404  _tokenIds */\n      dup6\n      dup6\n        /* \"contracts/NFTStaking.sol\":4405:4406  i */\n      dup6\n        /* \"contracts/NFTStaking.sol\":4395:4407  _tokenIds[i] */\n      dup2\n      dup2\n      lt\n      tag_160\n      jumpi\n      tag_161\n      tag_83\n      jump\t// in\n    tag_161:\n    tag_160:\n      swap1\n      pop\n      0x20\n      mul\n      add\n      calldataload\n        /* \"contracts/NFTStaking.sol\":4381:4394  _rewardAmount */\n      tag_98\n        /* \"contracts/NFTStaking.sol\":4381:4408  _rewardAmount(_tokenIds[i]) */\n      jump\t// in\n    tag_159:\n        /* \"contracts/NFTStaking.sol\":4359:4408  uint256 totalAmount = _rewardAmount(_tokenIds[i]) */\n      swap1\n      pop\n        /* \"contracts/NFTStaking.sol\":4423:4447  uint256 unclaminedAmount */\n      0x00\n        /* \"contracts/NFTStaking.sol\":4464:4468  info */\n      dup3\n        /* \"contracts/NFTStaking.sol\":4464:4483  info.claimedRewards */\n      0x40\n      add\n      mload\n        /* \"contracts/NFTStaking.sol\":4450:4461  totalAmount */\n      dup3\n        /* \"contracts/NFTStaking.sol\":4450:4483  totalAmount - info.claimedRewards */\n      tag_162\n      swap2\n      swap1\n      tag_100\n      jump\t// in\n    tag_162:\n        /* \"contracts/NFTStaking.sol\":4423:4483  uint256 unclaminedAmount = totalAmount - info.claimedRewards */\n      swap1\n      pop\n        /* \"contracts/NFTStaking.sol\":4498:4510  rewardsToken */\n      immutable(\"0x9459a54a9dc1a91201f12e123a36391197edb81156a93e7e6bc8a3c17589bb36\")\n        /* \"contracts/NFTStaking.sol\":4498:4515  rewardsToken.mint */\n      0xffffffffffffffffffffffffffffffffffffffff\n      and\n      0x40c10f19\n        /* \"contracts/NFTStaking.sol\":4516:4526  msg.sender */\n      caller\n        /* \"contracts/NFTStaking.sol\":4528:4544  unclaminedAmount */\n      dup4\n        /* \"contracts/NFTStaking.sol\":4498:4545  rewardsToken.mint(msg.sender, unclaminedAmount) */\n      mload(0x40)\n      dup4\n      0xffffffff\n      and\n      0xe0\n      shl\n      dup2\n      mstore\n      0x04\n      add\n      tag_163\n      swap3\n      swap2\n      swap1\n      tag_102\n      jump\t// in\n    tag_163:\n      0x00\n      mload(0x40)\n      dup1\n      dup4\n      sub\n      dup2\n      0x00\n      dup8\n      dup1\n      extcodesize\n      iszero\n      dup1\n      iszero\n      tag_164\n      jumpi\n      0x00\n      dup1\n      revert\n    tag_164:\n      pop\n      gas\n      call\n      iszero\n      dup1\n      iszero\n      tag_166\n      jumpi\n      returndatasize\n      0x00\n      dup1\n      returndatacopy\n      revert(0x00, returndatasize)\n    tag_166:\n      pop\n      pop\n      pop\n      pop\n        /* \"contracts/NFTStaking.sol\":4602:4613  totalAmount */\n      dup2\n        /* \"contracts/NFTStaking.sol\":4562:4570  lockInfo */\n      0x03\n        /* \"contracts/NFTStaking.sol\":4562:4584  lockInfo[_tokenIds[i]] */\n      0x00\n        /* \"contracts/NFTStaking.sol\":4571:4580  _tokenIds */\n      dup9\n      dup9\n        /* \"contracts/NFTStaking.sol\":4581:4582  i */\n      dup9\n        /* \"contracts/NFTStaking.sol\":4571:4583  _tokenIds[i] */\n      dup2\n      dup2\n      lt\n      tag_167\n      jumpi\n      tag_168\n      tag_83\n      jump\t// in\n    tag_168:\n    tag_167:\n      swap1\n      pop\n      0x20\n      mul\n      add\n      calldataload\n        /* \"contracts/NFTStaking.sol\":4562:4584  lockInfo[_tokenIds[i]] */\n      dup2\n      mstore\n      0x20\n      add\n      swap1\n      dup2\n      mstore\n      0x20\n      add\n      0x00\n      keccak256\n        /* \"contracts/NFTStaking.sol\":4562:4599  lockInfo[_tokenIds[i]].claimedRewards */\n      0x02\n      add\n        /* \"contracts/NFTStaking.sol\":4562:4613  lockInfo[_tokenIds[i]].claimedRewards = totalAmount */\n      dup2\n      swap1\n      sstore\n      pop\n        /* \"contracts/NFTStaking.sol\":4664:4668  true */\n      0x01\n        /* \"contracts/NFTStaking.sol\":4628:4636  lockInfo */\n      0x03\n        /* \"contracts/NFTStaking.sol\":4628:4650  lockInfo[_tokenIds[i]] */\n      0x00\n        /* \"contracts/NFTStaking.sol\":4637:4646  _tokenIds */\n      dup9\n      dup9\n        /* \"contracts/NFTStaking.sol\":4647:4648  i */\n      dup9\n        /* \"contracts/NFTStaking.sol\":4637:4649  _tokenIds[i] */\n      dup2\n      dup2\n      lt\n      tag_169\n      jumpi\n      tag_170\n      tag_83\n      jump\t// in\n    tag_170:\n    tag_169:\n      swap1\n      pop\n      0x20\n      mul\n      add\n      calldataload\n        /* \"contracts/NFTStaking.sol\":4628:4650  lockInfo[_tokenIds[i]] */\n      dup2\n      mstore\n      0x20\n      add\n      swap1\n      dup2\n      mstore\n      0x20\n      add\n      0x00\n      keccak256\n        /* \"contracts/NFTStaking.sol\":4628:4661  lockInfo[_tokenIds[i]].isUnlocked */\n      0x03\n      add\n      0x00\n        /* \"contracts/NFTStaking.sol\":4628:4668  lockInfo[_tokenIds[i]].isUnlocked = true */\n      0x0100\n      exp\n      dup2\n      sload\n      dup2\n      0xff\n      mul\n      not\n      and\n      swap1\n      dup4\n      iszero\n      iszero\n      mul\n      or\n      swap1\n      sstore\n      pop\n        /* \"contracts/NFTStaking.sol\":3978:4680  {... */\n      pop\n      pop\n      pop\n        /* \"contracts/NFTStaking.sol\":3973:3976  i++ */\n      dup1\n      dup1\n      tag_171\n      swap1\n      tag_110\n      jump\t// in\n    tag_171:\n      swap2\n      pop\n      pop\n        /* \"contracts/NFTStaking.sol\":3931:4680  for (uint256 i = 0; i < _tokenIds.length; i++) {... */\n      jump(tag_139)\n    tag_140:\n      pop\n        /* \"contracts/NFTStaking.sol\":4709:4719  msg.sender */\n      caller\n        /* \"contracts/NFTStaking.sol\":4697:4731  NFTUnLocked(msg.sender, _tokenIds) */\n      0xffffffffffffffffffffffffffffffffffffffff\n      and\n      0x5cb48022479b9ac3bfb10a27965dc010acffc9fc1bc9a52f0b18975b944b54ca\n        /* \"contracts/NFTStaking.sol\":4721:4730  _tokenIds */\n      dup4\n      dup4\n        /* \"contracts/NFTStaking.sol\":4697:4731  NFTUnLocked(msg.sender, _tokenIds) */\n      mload(0x40)\n      tag_172\n      swap3\n      swap2\n      swap1\n      tag_173\n      jump\t// in\n    tag_172:\n      mload(0x40)\n      dup1\n      swap2\n      sub\n      swap1\n      log2\n        /* \"@openzeppelin/contracts/security/ReentrancyGuard.sol\":1701:1702  1 */\n      0x01\n        /* \"@openzeppelin/contracts/security/ReentrancyGuard.sol\":2628:2635  _status */\n      dup1\n        /* \"@openzeppelin/contracts/security/ReentrancyGuard.sol\":2628:2650  _status = _NOT_ENTERED */\n      dup2\n      swap1\n      sstore\n      pop\n        /* \"contracts/NFTStaking.sol\":3782:4739  function unlockNFT(uint256[] calldata _tokenIds) external notContract nonReentrant {... */\n      pop\n      pop\n      jump\t// out\n        /* \"@openzeppelin/contracts/access/Ownable.sol\":1201:1286  function owner() public view virtual returns (address) {... */\n    tag_40:\n        /* \"@openzeppelin/contracts/access/Ownable.sol\":1247:1254  address */\n      0x00\n        /* \"@openzeppelin/contracts/access/Ownable.sol\":1273:1279  _owner */\n      dup1\n      0x00\n      swap1\n      sload\n      swap1\n      0x0100\n      exp\n      swap1\n      div\n      0xffffffffffffffffffffffffffffffffffffffff\n      and\n        /* \"@openzeppelin/contracts/access/Ownable.sol\":1266:1279  return _owner */\n      swap1\n      pop\n        /* \"@openzeppelin/contracts/access/Ownable.sol\":1201:1286  function owner() public view virtual returns (address) {... */\n      swap1\n      jump\t// out\n        /* \"contracts/NFTStaking.sol\":590:623  IERC721 public immutable stakeNFT */\n    tag_44:\n      immutable(\"0x1a87bd8a90f68e1a783aeb62d8f14bea0949c88f942ad2b7737dddede78696b4\")\n      dup2\n      jump\t// out\n        /* \"contracts/NFTStaking.sol\":921:940  uint256 public WAVE */\n    tag_48:\n      sload(0x04)\n      dup2\n      jump\t// out\n        /* \"contracts/NFTStaking.sol\":947:976  uint256 public rewardsPerWave */\n    tag_51:\n      sload(0x05)\n      dup2\n      jump\t// out\n        /* \"contracts/NFTStaking.sol\":540:583  IRewardsToken public immutable rewardsToken */\n    tag_54:\n      immutable(\"0x9459a54a9dc1a91201f12e123a36391197edb81156a93e7e6bc8a3c17589bb36\")\n      dup2\n      jump\t// out\n        /* \"@openzeppelin/contracts/access/Ownable.sol\":2081:2279  function transferOwnership(address newOwner) public virtual onlyOwner {... */\n    tag_60:\n        /* \"@openzeppelin/contracts/access/Ownable.sol\":1094:1107  _checkOwner() */\n      tag_176\n        /* \"@openzeppelin/contracts/access/Ownable.sol\":1094:1105  _checkOwner */\n      tag_115\n        /* \"@openzeppelin/contracts/access/Ownable.sol\":1094:1107  _checkOwner() */\n      jump\t// in\n    tag_176:\n        /* \"@openzeppelin/contracts/access/Ownable.sol\":2189:2190  0 */\n      0x00\n        /* \"@openzeppelin/contracts/access/Ownable.sol\":2169:2191  newOwner != address(0) */\n      0xffffffffffffffffffffffffffffffffffffffff\n      and\n        /* \"@openzeppelin/contracts/access/Ownable.sol\":2169:2177  newOwner */\n      dup2\n        /* \"@openzeppelin/contracts/access/Ownable.sol\":2169:2191  newOwner != address(0) */\n      0xffffffffffffffffffffffffffffffffffffffff\n      and\n      sub\n        /* \"@openzeppelin/contracts/access/Ownable.sol\":2161:2234  require(newOwner != address(0), \"Ownable: new owner is the zero address\") */\n      tag_178\n      jumpi\n      mload(0x40)\n      0x08c379a000000000000000000000000000000000000000000000000000000000\n      dup2\n      mstore\n      0x04\n      add\n      tag_179\n      swap1\n      tag_180\n      jump\t// in\n    tag_179:\n      mload(0x40)\n      dup1\n      swap2\n      sub\n      swap1\n      revert\n    tag_178:\n        /* \"@openzeppelin/contracts/access/Ownable.sol\":2244:2272  _transferOwnership(newOwner) */\n      tag_181\n        /* \"@openzeppelin/contracts/access/Ownable.sol\":2263:2271  newOwner */\n      dup2\n        /* \"@openzeppelin/contracts/access/Ownable.sol\":2244:2262  _transferOwnership */\n      tag_118\n        /* \"@openzeppelin/contracts/access/Ownable.sol\":2244:2272  _transferOwnership(newOwner) */\n      jump\t// in\n    tag_181:\n        /* \"@openzeppelin/contracts/access/Ownable.sol\":2081:2279  function transferOwnership(address newOwner) public virtual onlyOwner {... */\n      pop\n      jump\t// out\n        /* \"contracts/NFTStaking.sol\":3083:3607  function lockNFT(uint256[] calldata _tokenIds) external notContract nonReentrant {... */\n    tag_63:\n        /* \"contracts/NFTStaking.sol\":2154:2186  address(msg.sender).isContract() */\n      tag_183\n        /* \"contracts/NFTStaking.sol\":2162:2172  msg.sender */\n      caller\n        /* \"contracts/NFTStaking.sol\":2154:2184  address(msg.sender).isContract */\n      0xffffffffffffffffffffffffffffffffffffffff\n      and\n      tag_67\n        /* \"contracts/NFTStaking.sol\":2154:2186  address(msg.sender).isContract() */\n      jump\t// in\n    tag_183:\n        /* \"contracts/NFTStaking.sol\":2153:2186  !address(msg.sender).isContract() */\n      iszero\n        /* \"contracts/NFTStaking.sol\":2145:2211  require(!address(msg.sender).isContract(), \"Contract not allowed\") */\n      tag_184\n      jumpi\n      mload(0x40)\n      0x08c379a000000000000000000000000000000000000000000000000000000000\n      dup2\n      mstore\n      0x04\n      add\n      tag_185\n      swap1\n      tag_70\n      jump\t// in\n    tag_185:\n      mload(0x40)\n      dup1\n      swap2\n      sub\n      swap1\n      revert\n    tag_184:\n        /* \"contracts/NFTStaking.sol\":2244:2253  tx.origin */\n      origin\n        /* \"contracts/NFTStaking.sol\":2230:2253  msg.sender == tx.origin */\n      0xffffffffffffffffffffffffffffffffffffffff\n      and\n        /* \"contracts/NFTStaking.sol\":2230:2240  msg.sender */\n      caller\n        /* \"contracts/NFTStaking.sol\":2230:2253  msg.sender == tx.origin */\n      0xffffffffffffffffffffffffffffffffffffffff\n      and\n      eq\n        /* \"contracts/NFTStaking.sol\":2222:2284  require(msg.sender == tx.origin, \"Proxy contract not allowed\") */\n      tag_186\n      jumpi\n      mload(0x40)\n      0x08c379a000000000000000000000000000000000000000000000000000000000\n      dup2\n      mstore\n      0x04\n      add\n      tag_187\n      swap1\n      tag_73\n      jump\t// in\n    tag_187:\n      mload(0x40)\n      dup1\n      swap2\n      sub\n      swap1\n      revert\n    tag_186:\n        /* \"@openzeppelin/contracts/security/ReentrancyGuard.sol\":1744:1745  2 */\n      0x02\n        /* \"@openzeppelin/contracts/security/ReentrancyGuard.sol\":2325:2332  _status */\n      sload(0x01)\n        /* \"@openzeppelin/contracts/security/ReentrancyGuard.sol\":2325:2344  _status != _ENTERED */\n      sub\n        /* \"@openzeppelin/contracts/security/ReentrancyGuard.sol\":2317:2380  require(_status != _ENTERED, \"ReentrancyGuard: reentrant call\") */\n      tag_189\n      jumpi\n      mload(0x40)\n      0x08c379a000000000000000000000000000000000000000000000000000000000\n      dup2\n      mstore\n      0x04\n      add\n      tag_190\n      swap1\n      tag_135\n      jump\t// in\n    tag_190:\n      mload(0x40)\n      dup1\n      swap2\n      sub\n      swap1\n      revert\n    tag_189:\n        /* \"@openzeppelin/contracts/security/ReentrancyGuard.sol\":1744:1745  2 */\n      0x02\n        /* \"@openzeppelin/contracts/security/ReentrancyGuard.sol\":2455:2462  _status */\n      0x01\n        /* \"@openzeppelin/contracts/security/ReentrancyGuard.sol\":2455:2473  _status = _ENTERED */\n      dup2\n      swap1\n      sstore\n      pop\n        /* \"contracts/NFTStaking.sol\":3202:3203  0 */\n      0x00\n        /* \"contracts/NFTStaking.sol\":3183:3192  _tokenIds */\n      dup3\n      dup3\n        /* \"contracts/NFTStaking.sol\":3183:3199  _tokenIds.length */\n      swap1\n      pop\n        /* \"contracts/NFTStaking.sol\":3183:3203  _tokenIds.length > 0 */\n      gt\n        /* \"contracts/NFTStaking.sol\":3175:3217  require(_tokenIds.length > 0, \"No tokens\") */\n      tag_192\n      jumpi\n      mload(0x40)\n      0x08c379a000000000000000000000000000000000000000000000000000000000\n      dup2\n      mstore\n      0x04\n      add\n      tag_193\n      swap1\n      tag_77\n      jump\t// in\n    tag_193:\n      mload(0x40)\n      dup1\n      swap2\n      sub\n      swap1\n      revert\n    tag_192:\n        /* \"contracts/NFTStaking.sol\":3235:3244  uint256 i */\n      0x00\n        /* \"contracts/NFTStaking.sol\":3230:3550  for (uint256 i = 0; i < _tokenIds.length; i++) {... */\n    tag_194:\n        /* \"contracts/NFTStaking.sol\":3254:3263  _tokenIds */\n      dup3\n      dup3\n        /* \"contracts/NFTStaking.sol\":3254:3270  _tokenIds.length */\n      swap1\n      pop\n        /* \"contracts/NFTStaking.sol\":3250:3251  i */\n      dup2\n        /* \"contracts/NFTStaking.sol\":3250:3270  i < _tokenIds.length */\n      lt\n        /* \"contracts/NFTStaking.sol\":3230:3550  for (uint256 i = 0; i < _tokenIds.length; i++) {... */\n      iszero\n      tag_195\n      jumpi\n        /* \"contracts/NFTStaking.sol\":3334:3344  msg.sender */\n      caller\n        /* \"contracts/NFTStaking.sol\":3300:3344  stakeNFT.ownerOf(_tokenIds[i]) == msg.sender */\n      0xffffffffffffffffffffffffffffffffffffffff\n      and\n        /* \"contracts/NFTStaking.sol\":3300:3308  stakeNFT */\n      immutable(\"0x1a87bd8a90f68e1a783aeb62d8f14bea0949c88f942ad2b7737dddede78696b4\")\n        /* \"contracts/NFTStaking.sol\":3300:3316  stakeNFT.ownerOf */\n      0xffffffffffffffffffffffffffffffffffffffff\n      and\n      0x6352211e\n        /* \"contracts/NFTStaking.sol\":3317:3326  _tokenIds */\n      dup6\n      dup6\n        /* \"contracts/NFTStaking.sol\":3327:3328  i */\n      dup6\n        /* \"contracts/NFTStaking.sol\":3317:3329  _tokenIds[i] */\n      dup2\n      dup2\n      lt\n      tag_197\n      jumpi\n      tag_198\n      tag_83\n      jump\t// in\n    tag_198:\n    tag_197:\n      swap1\n      pop\n      0x20\n      mul\n      add\n      calldataload\n        /* \"contracts/NFTStaking.sol\":3300:3330  stakeNFT.ownerOf(_tokenIds[i]) */\n      mload(0x40)\n      dup3\n      0xffffffff\n      and\n      0xe0\n      shl\n      dup2\n      mstore\n      0x04\n      add\n      tag_199\n      swap2\n      swap1\n      tag_23\n      jump\t// in\n    tag_199:\n      0x20\n      mload(0x40)\n      dup1\n      dup4\n      sub\n      dup2\n      dup7\n      gas\n      staticcall\n      iszero\n      dup1\n      iszero\n      tag_201\n      jumpi\n      returndatasize\n      0x00\n      dup1\n      returndatacopy\n      revert(0x00, returndatasize)\n    tag_201:\n      pop\n      pop\n      pop\n      pop\n      mload(0x40)\n      returndatasize\n      not(0x1f)\n      0x1f\n      dup3\n      add\n      and\n      dup3\n      add\n      dup1\n      0x40\n      mstore\n      pop\n      dup2\n      add\n      swap1\n      tag_202\n      swap2\n      swap1\n      tag_203\n      jump\t// in\n    tag_202:\n        /* \"contracts/NFTStaking.sol\":3300:3344  stakeNFT.ownerOf(_tokenIds[i]) == msg.sender */\n      0xffffffffffffffffffffffffffffffffffffffff\n      and\n      eq\n        /* \"contracts/NFTStaking.sol\":3292:3374  require(stakeNFT.ownerOf(_tokenIds[i]) == msg.sender, \"You don't hold this token\") */\n      tag_204\n      jumpi\n      mload(0x40)\n      0x08c379a000000000000000000000000000000000000000000000000000000000\n      dup2\n      mstore\n      0x04\n      add\n      tag_205\n      swap1\n      tag_206\n      jump\t// in\n    tag_205:\n      mload(0x40)\n      dup1\n      swap2\n      sub\n      swap1\n      revert\n    tag_204:\n        /* \"contracts/NFTStaking.sol\":3389:3397  stakeNFT */\n      immutable(\"0x1a87bd8a90f68e1a783aeb62d8f14bea0949c88f942ad2b7737dddede78696b4\")\n        /* \"contracts/NFTStaking.sol\":3389:3410  stakeNFT.transferFrom */\n      0xffffffffffffffffffffffffffffffffffffffff\n      and\n      0x23b872dd\n        /* \"contracts/NFTStaking.sol\":3411:3421  msg.sender */\n      caller\n        /* \"contracts/NFTStaking.sol\":3431:3435  this */\n      address\n        /* \"contracts/NFTStaking.sol\":3438:3447  _tokenIds */\n      dup7\n      dup7\n        /* \"contracts/NFTStaking.sol\":3448:3449  i */\n      dup7\n        /* \"contracts/NFTStaking.sol\":3438:3450  _tokenIds[i] */\n      dup2\n      dup2\n      lt\n      tag_207\n      jumpi\n      tag_208\n      tag_83\n      jump\t// in\n    tag_208:\n    tag_207:\n      swap1\n      pop\n      0x20\n      mul\n      add\n      calldataload\n        /* \"contracts/NFTStaking.sol\":3389:3451  stakeNFT.transferFrom(msg.sender, address(this), _tokenIds[i]) */\n      mload(0x40)\n      dup5\n      0xffffffff\n      and\n      0xe0\n      shl\n      dup2\n      mstore\n      0x04\n      add\n      tag_209\n      swap4\n      swap3\n      swap2\n      swap1\n      tag_155\n      jump\t// in\n    tag_209:\n      0x00\n      mload(0x40)\n      dup1\n      dup4\n      sub\n      dup2\n      0x00\n      dup8\n      dup1\n      extcodesize\n      iszero\n      dup1\n      iszero\n      tag_210\n      jumpi\n      0x00\n      dup1\n      revert\n    tag_210:\n      pop\n      gas\n      call\n      iszero\n      dup1\n      iszero\n      tag_212\n      jumpi\n      returndatasize\n      0x00\n      dup1\n      returndatacopy\n      revert(0x00, returndatasize)\n    tag_212:\n      pop\n      pop\n      pop\n      pop\n        /* \"contracts/NFTStaking.sol\":3491:3538  LockInfo(msg.sender, block.timestamp, 0, false) */\n      mload(0x40)\n      dup1\n      0x80\n      add\n      0x40\n      mstore\n      dup1\n        /* \"contracts/NFTStaking.sol\":3500:3510  msg.sender */\n      caller\n        /* \"contracts/NFTStaking.sol\":3491:3538  LockInfo(msg.sender, block.timestamp, 0, false) */\n      0xffffffffffffffffffffffffffffffffffffffff\n      and\n      dup2\n      mstore\n      0x20\n      add\n        /* \"contracts/NFTStaking.sol\":3512:3527  block.timestamp */\n      timestamp\n        /* \"contracts/NFTStaking.sol\":3491:3538  LockInfo(msg.sender, block.timestamp, 0, false) */\n      dup2\n      mstore\n      0x20\n      add\n        /* \"contracts/NFTStaking.sol\":3529:3530  0 */\n      0x00\n        /* \"contracts/NFTStaking.sol\":3491:3538  LockInfo(msg.sender, block.timestamp, 0, false) */\n      dup2\n      mstore\n      0x20\n      add\n        /* \"contracts/NFTStaking.sol\":3532:3537  false */\n      0x00\n        /* \"contracts/NFTStaking.sol\":3491:3538  LockInfo(msg.sender, block.timestamp, 0, false) */\n      iszero\n      iszero\n      dup2\n      mstore\n      pop\n        /* \"contracts/NFTStaking.sol\":3466:3474  lockInfo */\n      0x03\n        /* \"contracts/NFTStaking.sol\":3466:3488  lockInfo[_tokenIds[i]] */\n      0x00\n        /* \"contracts/NFTStaking.sol\":3475:3484  _tokenIds */\n      dup6\n      dup6\n        /* \"contracts/NFTStaking.sol\":3485:3486  i */\n      dup6\n        /* \"contracts/NFTStaking.sol\":3475:3487  _tokenIds[i] */\n      dup2\n      dup2\n      lt\n      tag_213\n      jumpi\n      tag_214\n      tag_83\n      jump\t// in\n    tag_214:\n    tag_213:\n      swap1\n      pop\n      0x20\n      mul\n      add\n      calldataload\n        /* \"contracts/NFTStaking.sol\":3466:3488  lockInfo[_tokenIds[i]] */\n      dup2\n      mstore\n      0x20\n      add\n      swap1\n      dup2\n      mstore\n      0x20\n      add\n      0x00\n      keccak256\n        /* \"contracts/NFTStaking.sol\":3466:3538  lockInfo[_tokenIds[i]] = LockInfo(msg.sender, block.timestamp, 0, false) */\n      0x00\n      dup3\n      add\n      mload\n      dup2\n      0x00\n      add\n      exp(0x0100, 0x00)\n      dup2\n      sload\n      dup2\n      0xffffffffffffffffffffffffffffffffffffffff\n      mul\n      not\n      and\n      swap1\n      dup4\n      0xffffffffffffffffffffffffffffffffffffffff\n      and\n      mul\n      or\n      swap1\n      sstore\n      pop\n      0x20\n      dup3\n      add\n      mload\n      dup2\n      0x01\n      add\n      sstore\n      0x40\n      dup3\n      add\n      mload\n      dup2\n      0x02\n      add\n      sstore\n      0x60\n      dup3\n      add\n      mload\n      dup2\n      0x03\n      add\n      exp(0x0100, 0x00)\n      dup2\n      sload\n      dup2\n      0xff\n      mul\n      not\n      and\n      swap1\n      dup4\n      iszero\n      iszero\n      mul\n      or\n      swap1\n      sstore\n      pop\n      swap1\n      pop\n      pop\n        /* \"contracts/NFTStaking.sol\":3272:3275  i++ */\n      dup1\n      dup1\n      tag_215\n      swap1\n      tag_110\n      jump\t// in\n    tag_215:\n      swap2\n      pop\n      pop\n        /* \"contracts/NFTStaking.sol\":3230:3550  for (uint256 i = 0; i < _tokenIds.length; i++) {... */\n      jump(tag_194)\n    tag_195:\n      pop\n        /* \"contracts/NFTStaking.sol\":3577:3587  msg.sender */\n      caller\n        /* \"contracts/NFTStaking.sol\":3567:3599  NFTLocked(msg.sender, _tokenIds) */\n      0xffffffffffffffffffffffffffffffffffffffff\n      and\n      0x458be0227bccc9e803dec79bd16767eeaf9925d2ce708eeed7ae1f3621f968f9\n        /* \"contracts/NFTStaking.sol\":3589:3598  _tokenIds */\n      dup4\n      dup4\n        /* \"contracts/NFTStaking.sol\":3567:3599  NFTLocked(msg.sender, _tokenIds) */\n      mload(0x40)\n      tag_216\n      swap3\n      swap2\n      swap1\n      tag_173\n      jump\t// in\n    tag_216:\n      mload(0x40)\n      dup1\n      swap2\n      sub\n      swap1\n      log2\n        /* \"@openzeppelin/contracts/security/ReentrancyGuard.sol\":1701:1702  1 */\n      0x01\n        /* \"@openzeppelin/contracts/security/ReentrancyGuard.sol\":2628:2635  _status */\n      dup1\n        /* \"@openzeppelin/contracts/security/ReentrancyGuard.sol\":2628:2650  _status = _NOT_ENTERED */\n      dup2\n      swap1\n      sstore\n      pop\n        /* \"contracts/NFTStaking.sol\":3083:3607  function lockNFT(uint256[] calldata _tokenIds) external notContract nonReentrant {... */\n      pop\n      pop\n      jump\t// out\n        /* \"@openzeppelin/contracts/utils/Address.sol\":1175:1495  function isContract(address account) internal view returns (bool) {... */\n    tag_67:\n        /* \"@openzeppelin/contracts/utils/Address.sol\":1235:1239  bool */\n      0x00\n        /* \"@openzeppelin/contracts/utils/Address.sol\":1487:1488  0 */\n      dup1\n        /* \"@openzeppelin/contracts/utils/Address.sol\":1465:1472  account */\n      dup3\n        /* \"@openzeppelin/contracts/utils/Address.sol\":1465:1484  account.code.length */\n      0xffffffffffffffffffffffffffffffffffffffff\n      and\n      extcodesize\n        /* \"@openzeppelin/contracts/utils/Address.sol\":1465:1488  account.code.length > 0 */\n      gt\n        /* \"@openzeppelin/contracts/utils/Address.sol\":1458:1488  return account.code.length > 0 */\n      swap1\n      pop\n        /* \"@openzeppelin/contracts/utils/Address.sol\":1175:1495  function isContract(address account) internal view returns (bool) {... */\n      swap2\n      swap1\n      pop\n      jump\t// out\n        /* \"contracts/NFTStaking.sol\":5807:6257  function _rewardAmount(uint256 _tokenId) internal view returns (uint256) {... */\n    tag_98:\n        /* \"contracts/NFTStaking.sol\":5871:5878  uint256 */\n      0x00\n        /* \"contracts/NFTStaking.sol\":5891:5911  LockInfo memory info */\n      dup1\n        /* \"contracts/NFTStaking.sol\":5914:5922  lockInfo */\n      0x03\n        /* \"contracts/NFTStaking.sol\":5914:5932  lockInfo[_tokenId] */\n      0x00\n        /* \"contracts/NFTStaking.sol\":5923:5931  _tokenId */\n      dup5\n        /* \"contracts/NFTStaking.sol\":5914:5932  lockInfo[_tokenId] */\n      dup2\n      mstore\n      0x20\n      add\n      swap1\n      dup2\n      mstore\n      0x20\n      add\n      0x00\n      keccak256\n        /* \"contracts/NFTStaking.sol\":5891:5932  LockInfo memory info = lockInfo[_tokenId] */\n      mload(0x40)\n      dup1\n      0x80\n      add\n      0x40\n      mstore\n      swap1\n      dup2\n      0x00\n      dup3\n      add\n      0x00\n      swap1\n      sload\n      swap1\n      0x0100\n      exp\n      swap1\n      div\n      0xffffffffffffffffffffffffffffffffffffffff\n      and\n      0xffffffffffffffffffffffffffffffffffffffff\n      and\n      0xffffffffffffffffffffffffffffffffffffffff\n      and\n      dup2\n      mstore\n      0x20\n      add\n      0x01\n      dup3\n      add\n      sload\n      dup2\n      mstore\n      0x20\n      add\n      0x02\n      dup3\n      add\n      sload\n      dup2\n      mstore\n      0x20\n      add\n      0x03\n      dup3\n      add\n      0x00\n      swap1\n      sload\n      swap1\n      0x0100\n      exp\n      swap1\n      div\n      0xff\n      and\n      iszero\n      iszero\n      iszero\n      iszero\n      dup2\n      mstore\n      pop\n      pop\n      swap1\n      pop\n        /* \"contracts/NFTStaking.sol\":5943:5966  uint256 stakingDuration */\n      0x00\n        /* \"contracts/NFTStaking.sol\":5987:5991  info */\n      dup2\n        /* \"contracts/NFTStaking.sol\":5987:6002  info.lockedTime */\n      0x20\n      add\n      mload\n        /* \"contracts/NFTStaking.sol\":5969:5984  block.timestamp */\n      timestamp\n        /* \"contracts/NFTStaking.sol\":5969:6002  block.timestamp - info.lockedTime */\n      tag_219\n      swap2\n      swap1\n      tag_100\n      jump\t// in\n    tag_219:\n        /* \"contracts/NFTStaking.sol\":5943:6002  uint256 stakingDuration = block.timestamp - info.lockedTime */\n      swap1\n      pop\n        /* \"contracts/NFTStaking.sol\":6013:6032  uint256 totalAmount */\n      0x00\n        /* \"contracts/NFTStaking.sol\":6067:6077  lockPeriod */\n      sload(0x02)\n        /* \"contracts/NFTStaking.sol\":6049:6064  stakingDuration */\n      dup3\n        /* \"contracts/NFTStaking.sol\":6049:6077  stakingDuration < lockPeriod */\n      lt\n        /* \"contracts/NFTStaking.sol\":6045:6250  if (stakingDuration < lockPeriod) {... */\n      iszero\n      tag_220\n      jumpi\n        /* \"contracts/NFTStaking.sol\":6101:6102  0 */\n      0x00\n        /* \"contracts/NFTStaking.sol\":6094:6102  return 0 */\n      swap4\n      pop\n      pop\n      pop\n      pop\n      jump(tag_218)\n        /* \"contracts/NFTStaking.sol\":6045:6250  if (stakingDuration < lockPeriod) {... */\n    tag_220:\n        /* \"contracts/NFTStaking.sol\":6201:6205  WAVE */\n      sload(0x04)\n        /* \"contracts/NFTStaking.sol\":6186:6196  lockPeriod */\n      sload(0x02)\n        /* \"contracts/NFTStaking.sol\":6168:6183  stakingDuration */\n      dup4\n        /* \"contracts/NFTStaking.sol\":6168:6196  stakingDuration - lockPeriod */\n      tag_222\n      swap2\n      swap1\n      tag_100\n      jump\t// in\n    tag_222:\n        /* \"contracts/NFTStaking.sol\":6150:6164  rewardsPerWave */\n      sload(0x05)\n        /* \"contracts/NFTStaking.sol\":6150:6197  rewardsPerWave * (stakingDuration - lockPeriod) */\n      tag_223\n      swap2\n      swap1\n      tag_224\n      jump\t// in\n    tag_223:\n        /* \"contracts/NFTStaking.sol\":6149:6205  (rewardsPerWave * (stakingDuration - lockPeriod)) / WAVE */\n      tag_225\n      swap2\n      swap1\n      tag_226\n      jump\t// in\n    tag_225:\n        /* \"contracts/NFTStaking.sol\":6135:6205  totalAmount = (rewardsPerWave * (stakingDuration - lockPeriod)) / WAVE */\n      swap1\n      pop\n        /* \"contracts/NFTStaking.sol\":6227:6238  totalAmount */\n      dup1\n        /* \"contracts/NFTStaking.sol\":6220:6238  return totalAmount */\n      swap4\n      pop\n      pop\n      pop\n      pop\n        /* \"contracts/NFTStaking.sol\":5807:6257  function _rewardAmount(uint256 _tokenId) internal view returns (uint256) {... */\n    tag_218:\n      swap2\n      swap1\n      pop\n      jump\t// out\n        /* \"@openzeppelin/contracts/access/Ownable.sol\":1359:1489  function _checkOwner() internal view virtual {... */\n    tag_115:\n        /* \"@openzeppelin/contracts/access/Ownable.sol\":1433:1445  _msgSender() */\n      tag_228\n        /* \"@openzeppelin/contracts/access/Ownable.sol\":1433:1443  _msgSender */\n      tag_229\n        /* \"@openzeppelin/contracts/access/Ownable.sol\":1433:1445  _msgSender() */\n      jump\t// in\n    tag_228:\n        /* \"@openzeppelin/contracts/access/Ownable.sol\":1422:1445  owner() == _msgSender() */\n      0xffffffffffffffffffffffffffffffffffffffff\n      and\n        /* \"@openzeppelin/contracts/access/Ownable.sol\":1422:1429  owner() */\n      tag_230\n        /* \"@openzeppelin/contracts/access/Ownable.sol\":1422:1427  owner */\n      tag_40\n        /* \"@openzeppelin/contracts/access/Ownable.sol\":1422:1429  owner() */\n      jump\t// in\n    tag_230:\n        /* \"@openzeppelin/contracts/access/Ownable.sol\":1422:1445  owner() == _msgSender() */\n      0xffffffffffffffffffffffffffffffffffffffff\n      and\n      eq\n        /* \"@openzeppelin/contracts/access/Ownable.sol\":1414:1482  require(owner() == _msgSender(), \"Ownable: caller is not the owner\") */\n      tag_231\n      jumpi\n      mload(0x40)\n      0x08c379a000000000000000000000000000000000000000000000000000000000\n      dup2\n      mstore\n      0x04\n      add\n      tag_232\n      swap1\n      tag_233\n      jump\t// in\n    tag_232:\n      mload(0x40)\n      dup1\n      swap2\n      sub\n      swap1\n      revert\n    tag_231:\n        /* \"@openzeppelin/contracts/access/Ownable.sol\":1359:1489  function _checkOwner() internal view virtual {... */\n      jump\t// out\n        /* \"@openzeppelin/contracts/access/Ownable.sol\":2433:2620  function _transferOwnership(address newOwner) internal virtual {... */\n    tag_118:\n        /* \"@openzeppelin/contracts/access/Ownable.sol\":2506:2522  address oldOwner */\n      0x00\n        /* \"@openzeppelin/contracts/access/Ownable.sol\":2525:2531  _owner */\n      dup1\n      0x00\n      swap1\n      sload\n      swap1\n      0x0100\n      exp\n      swap1\n      div\n      0xffffffffffffffffffffffffffffffffffffffff\n      and\n        /* \"@openzeppelin/contracts/access/Ownable.sol\":2506:2531  address oldOwner = _owner */\n      swap1\n      pop\n        /* \"@openzeppelin/contracts/access/Ownable.sol\":2550:2558  newOwner */\n      dup2\n        /* \"@openzeppelin/contracts/access/Ownable.sol\":2541:2547  _owner */\n      0x00\n      dup1\n        /* \"@openzeppelin/contracts/access/Ownable.sol\":2541:2558  _owner = newOwner */\n      0x0100\n      exp\n      dup2\n      sload\n      dup2\n      0xffffffffffffffffffffffffffffffffffffffff\n      mul\n      not\n      and\n      swap1\n      dup4\n      0xffffffffffffffffffffffffffffffffffffffff\n      and\n      mul\n      or\n      swap1\n      sstore\n      pop\n        /* \"@openzeppelin/contracts/access/Ownable.sol\":2604:2612  newOwner */\n      dup2\n        /* \"@openzeppelin/contracts/access/Ownable.sol\":2573:2613  OwnershipTransferred(oldOwner, newOwner) */\n      0xffffffffffffffffffffffffffffffffffffffff\n      and\n        /* \"@openzeppelin/contracts/access/Ownable.sol\":2594:2602  oldOwner */\n      dup2\n        /* \"@openzeppelin/contracts/access/Ownable.sol\":2573:2613  OwnershipTransferred(oldOwner, newOwner) */\n      0xffffffffffffffffffffffffffffffffffffffff\n      and\n      0x8be0079c531659141344cd1fd0a4f28419497f9722a3daafe3b4186f6b6457e0\n      mload(0x40)\n      mload(0x40)\n      dup1\n      swap2\n      sub\n      swap1\n      log3\n        /* \"@openzeppelin/contracts/access/Ownable.sol\":2496:2620  {... */\n      pop\n        /* \"@openzeppelin/contracts/access/Ownable.sol\":2433:2620  function _transferOwnership(address newOwner) internal virtual {... */\n      pop\n      jump\t// out\n        /* \"@openzeppelin/contracts/utils/Context.sol\":640:736  function _msgSender() internal view virtual returns (address) {... */\n    tag_229:\n        /* \"@openzeppelin/contracts/utils/Context.sol\":693:700  address */\n      0x00\n        /* \"@openzeppelin/contracts/utils/Context.sol\":719:729  msg.sender */\n      caller\n        /* \"@openzeppelin/contracts/utils/Context.sol\":712:729  return msg.sender */\n      swap1\n      pop\n        /* \"@openzeppelin/contracts/utils/Context.sol\":640:736  function _msgSender() internal view virtual returns (address) {... */\n      swap1\n      jump\t// out\n        /* \"#utility.yul\":88:205   */\n    tag_237:\n        /* \"#utility.yul\":197:198   */\n      0x00\n        /* \"#utility.yul\":194:195   */\n      dup1\n        /* \"#utility.yul\":187:199   */\n      revert\n        /* \"#utility.yul\":211:328   */\n    tag_238:\n        /* \"#utility.yul\":320:321   */\n      0x00\n        /* \"#utility.yul\":317:318   */\n      dup1\n        /* \"#utility.yul\":310:322   */\n      revert\n        /* \"#utility.yul\":334:411   */\n    tag_239:\n        /* \"#utility.yul\":371:378   */\n      0x00\n        /* \"#utility.yul\":400:405   */\n      dup2\n        /* \"#utility.yul\":389:405   */\n      swap1\n      pop\n        /* \"#utility.yul\":334:411   */\n      swap2\n      swap1\n      pop\n      jump\t// out\n        /* \"#utility.yul\":417:539   */\n    tag_240:\n        /* \"#utility.yul\":490:514   */\n      tag_297\n        /* \"#utility.yul\":508:513   */\n      dup2\n        /* \"#utility.yul\":490:514   */\n      tag_239\n      jump\t// in\n    tag_297:\n        /* \"#utility.yul\":483:488   */\n      dup2\n        /* \"#utility.yul\":480:515   */\n      eq\n        /* \"#utility.yul\":470:533   */\n      tag_298\n      jumpi\n        /* \"#utility.yul\":529:530   */\n      0x00\n        /* \"#utility.yul\":526:527   */\n      dup1\n        /* \"#utility.yul\":519:531   */\n      revert\n        /* \"#utility.yul\":470:533   */\n    tag_298:\n        /* \"#utility.yul\":417:539   */\n      pop\n      jump\t// out\n        /* \"#utility.yul\":545:684   */\n    tag_241:\n        /* \"#utility.yul\":591:596   */\n      0x00\n        /* \"#utility.yul\":629:635   */\n      dup2\n        /* \"#utility.yul\":616:636   */\n      calldataload\n        /* \"#utility.yul\":607:636   */\n      swap1\n      pop\n        /* \"#utility.yul\":645:678   */\n      tag_300\n        /* \"#utility.yul\":672:677   */\n      dup2\n        /* \"#utility.yul\":645:678   */\n      tag_240\n      jump\t// in\n    tag_300:\n        /* \"#utility.yul\":545:684   */\n      swap3\n      swap2\n      pop\n      pop\n      jump\t// out\n        /* \"#utility.yul\":690:1019   */\n    tag_20:\n        /* \"#utility.yul\":749:755   */\n      0x00\n        /* \"#utility.yul\":798:800   */\n      0x20\n        /* \"#utility.yul\":786:795   */\n      dup3\n        /* \"#utility.yul\":777:784   */\n      dup5\n        /* \"#utility.yul\":773:796   */\n      sub\n        /* \"#utility.yul\":769:801   */\n      slt\n        /* \"#utility.yul\":766:885   */\n      iszero\n      tag_302\n      jumpi\n        /* \"#utility.yul\":804:883   */\n      tag_303\n      tag_237\n      jump\t// in\n    tag_303:\n        /* \"#utility.yul\":766:885   */\n    tag_302:\n        /* \"#utility.yul\":924:925   */\n      0x00\n        /* \"#utility.yul\":949:1002   */\n      tag_304\n        /* \"#utility.yul\":994:1001   */\n      dup5\n        /* \"#utility.yul\":985:991   */\n      dup3\n        /* \"#utility.yul\":974:983   */\n      dup6\n        /* \"#utility.yul\":970:992   */\n      add\n        /* \"#utility.yul\":949:1002   */\n      tag_241\n      jump\t// in\n    tag_304:\n        /* \"#utility.yul\":939:1002   */\n      swap2\n      pop\n        /* \"#utility.yul\":895:1012   */\n      pop\n        /* \"#utility.yul\":690:1019   */\n      swap3\n      swap2\n      pop\n      pop\n      jump\t// out\n        /* \"#utility.yul\":1025:1143   */\n    tag_242:\n        /* \"#utility.yul\":1112:1136   */\n      tag_306\n        /* \"#utility.yul\":1130:1135   */\n      dup2\n        /* \"#utility.yul\":1112:1136   */\n      tag_239\n      jump\t// in\n    tag_306:\n        /* \"#utility.yul\":1107:1110   */\n      dup3\n        /* \"#utility.yul\":1100:1137   */\n      mstore\n        /* \"#utility.yul\":1025:1143   */\n      pop\n      pop\n      jump\t// out\n        /* \"#utility.yul\":1149:1371   */\n    tag_23:\n        /* \"#utility.yul\":1242:1246   */\n      0x00\n        /* \"#utility.yul\":1280:1282   */\n      0x20\n        /* \"#utility.yul\":1269:1278   */\n      dup3\n        /* \"#utility.yul\":1265:1283   */\n      add\n        /* \"#utility.yul\":1257:1283   */\n      swap1\n      pop\n        /* \"#utility.yul\":1293:1364   */\n      tag_308\n        /* \"#utility.yul\":1361:1362   */\n      0x00\n        /* \"#utility.yul\":1350:1359   */\n      dup4\n        /* \"#utility.yul\":1346:1363   */\n      add\n        /* \"#utility.yul\":1337:1343   */\n      dup5\n        /* \"#utility.yul\":1293:1364   */\n      tag_242\n      jump\t// in\n    tag_308:\n        /* \"#utility.yul\":1149:1371   */\n      swap3\n      swap2\n      pop\n      pop\n      jump\t// out\n        /* \"#utility.yul\":1377:1494   */\n    tag_243:\n        /* \"#utility.yul\":1486:1487   */\n      0x00\n        /* \"#utility.yul\":1483:1484   */\n      dup1\n        /* \"#utility.yul\":1476:1488   */\n      revert\n        /* \"#utility.yul\":1500:1617   */\n    tag_244:\n        /* \"#utility.yul\":1609:1610   */\n      0x00\n        /* \"#utility.yul\":1606:1607   */\n      dup1\n        /* \"#utility.yul\":1599:1611   */\n      revert\n        /* \"#utility.yul\":1623:1740   */\n    tag_245:\n        /* \"#utility.yul\":1732:1733   */\n      0x00\n        /* \"#utility.yul\":1729:1730   */\n      dup1\n        /* \"#utility.yul\":1722:1734   */\n      revert\n        /* \"#utility.yul\":1763:2331   */\n    tag_246:\n        /* \"#utility.yul\":1836:1844   */\n      0x00\n        /* \"#utility.yul\":1846:1852   */\n      dup1\n        /* \"#utility.yul\":1896:1899   */\n      dup4\n        /* \"#utility.yul\":1889:1893   */\n      0x1f\n        /* \"#utility.yul\":1881:1887   */\n      dup5\n        /* \"#utility.yul\":1877:1894   */\n      add\n        /* \"#utility.yul\":1873:1900   */\n      slt\n        /* \"#utility.yul\":1863:1985   */\n      tag_313\n      jumpi\n        /* \"#utility.yul\":1904:1983   */\n      tag_314\n      tag_243\n      jump\t// in\n    tag_314:\n        /* \"#utility.yul\":1863:1985   */\n    tag_313:\n        /* \"#utility.yul\":2017:2023   */\n      dup3\n        /* \"#utility.yul\":2004:2024   */\n      calldataload\n        /* \"#utility.yul\":1994:2024   */\n      swap1\n      pop\n        /* \"#utility.yul\":2047:2065   */\n      0xffffffffffffffff\n        /* \"#utility.yul\":2039:2045   */\n      dup2\n        /* \"#utility.yul\":2036:2066   */\n      gt\n        /* \"#utility.yul\":2033:2150   */\n      iszero\n      tag_315\n      jumpi\n        /* \"#utility.yul\":2069:2148   */\n      tag_316\n      tag_244\n      jump\t// in\n    tag_316:\n        /* \"#utility.yul\":2033:2150   */\n    tag_315:\n        /* \"#utility.yul\":2183:2187   */\n      0x20\n        /* \"#utility.yul\":2175:2181   */\n      dup4\n        /* \"#utility.yul\":2171:2188   */\n      add\n        /* \"#utility.yul\":2159:2188   */\n      swap2\n      pop\n        /* \"#utility.yul\":2237:2240   */\n      dup4\n        /* \"#utility.yul\":2229:2233   */\n      0x20\n        /* \"#utility.yul\":2221:2227   */\n      dup3\n        /* \"#utility.yul\":2217:2234   */\n      mul\n        /* \"#utility.yul\":2207:2215   */\n      dup4\n        /* \"#utility.yul\":2203:2235   */\n      add\n        /* \"#utility.yul\":2200:2241   */\n      gt\n        /* \"#utility.yul\":2197:2325   */\n      iszero\n      tag_317\n      jumpi\n        /* \"#utility.yul\":2244:2323   */\n      tag_318\n      tag_245\n      jump\t// in\n    tag_318:\n        /* \"#utility.yul\":2197:2325   */\n    tag_317:\n        /* \"#utility.yul\":1763:2331   */\n      swap3\n      pop\n      swap3\n      swap1\n      pop\n      jump\t// out\n        /* \"#utility.yul\":2337:2896   */\n    tag_29:\n        /* \"#utility.yul\":2423:2429   */\n      0x00\n        /* \"#utility.yul\":2431:2437   */\n      dup1\n        /* \"#utility.yul\":2480:2482   */\n      0x20\n        /* \"#utility.yul\":2468:2477   */\n      dup4\n        /* \"#utility.yul\":2459:2466   */\n      dup6\n        /* \"#utility.yul\":2455:2478   */\n      sub\n        /* \"#utility.yul\":2451:2483   */\n      slt\n        /* \"#utility.yul\":2448:2567   */\n      iszero\n      tag_320\n      jumpi\n        /* \"#utility.yul\":2486:2565   */\n      tag_321\n      tag_237\n      jump\t// in\n    tag_321:\n        /* \"#utility.yul\":2448:2567   */\n    tag_320:\n        /* \"#utility.yul\":2634:2635   */\n      0x00\n        /* \"#utility.yul\":2623:2632   */\n      dup4\n        /* \"#utility.yul\":2619:2636   */\n      add\n        /* \"#utility.yul\":2606:2637   */\n      calldataload\n        /* \"#utility.yul\":2664:2682   */\n      0xffffffffffffffff\n        /* \"#utility.yul\":2656:2662   */\n      dup2\n        /* \"#utility.yul\":2653:2683   */\n      gt\n        /* \"#utility.yul\":2650:2767   */\n      iszero\n      tag_322\n      jumpi\n        /* \"#utility.yul\":2686:2765   */\n      tag_323\n      tag_238\n      jump\t// in\n    tag_323:\n        /* \"#utility.yul\":2650:2767   */\n    tag_322:\n        /* \"#utility.yul\":2799:2879   */\n      tag_324\n        /* \"#utility.yul\":2871:2878   */\n      dup6\n        /* \"#utility.yul\":2862:2868   */\n      dup3\n        /* \"#utility.yul\":2851:2860   */\n      dup7\n        /* \"#utility.yul\":2847:2869   */\n      add\n        /* \"#utility.yul\":2799:2879   */\n      tag_246\n      jump\t// in\n    tag_324:\n        /* \"#utility.yul\":2781:2879   */\n      swap3\n      pop\n      swap3\n      pop\n        /* \"#utility.yul\":2577:2889   */\n      pop\n        /* \"#utility.yul\":2337:2896   */\n      swap3\n      pop\n      swap3\n      swap1\n      pop\n      jump\t// out\n        /* \"#utility.yul\":2902:3028   */\n    tag_247:\n        /* \"#utility.yul\":2939:2946   */\n      0x00\n        /* \"#utility.yul\":2979:3021   */\n      0xffffffffffffffffffffffffffffffffffffffff\n        /* \"#utility.yul\":2972:2977   */\n      dup3\n        /* \"#utility.yul\":2968:3022   */\n      and\n        /* \"#utility.yul\":2957:3022   */\n      swap1\n      pop\n        /* \"#utility.yul\":2902:3028   */\n      swap2\n      swap1\n      pop\n      jump\t// out\n        /* \"#utility.yul\":3034:3130   */\n    tag_248:\n        /* \"#utility.yul\":3071:3078   */\n      0x00\n        /* \"#utility.yul\":3100:3124   */\n      tag_327\n        /* \"#utility.yul\":3118:3123   */\n      dup3\n        /* \"#utility.yul\":3100:3124   */\n      tag_247\n      jump\t// in\n    tag_327:\n        /* \"#utility.yul\":3089:3124   */\n      swap1\n      pop\n        /* \"#utility.yul\":3034:3130   */\n      swap2\n      swap1\n      pop\n      jump\t// out\n        /* \"#utility.yul\":3136:3254   */\n    tag_249:\n        /* \"#utility.yul\":3223:3247   */\n      tag_329\n        /* \"#utility.yul\":3241:3246   */\n      dup2\n        /* \"#utility.yul\":3223:3247   */\n      tag_248\n      jump\t// in\n    tag_329:\n        /* \"#utility.yul\":3218:3221   */\n      dup3\n        /* \"#utility.yul\":3211:3248   */\n      mstore\n        /* \"#utility.yul\":3136:3254   */\n      pop\n      pop\n      jump\t// out\n        /* \"#utility.yul\":3260:3482   */\n    tag_42:\n        /* \"#utility.yul\":3353:3357   */\n      0x00\n        /* \"#utility.yul\":3391:3393   */\n      0x20\n        /* \"#utility.yul\":3380:3389   */\n      dup3\n        /* \"#utility.yul\":3376:3394   */\n      add\n        /* \"#utility.yul\":3368:3394   */\n      swap1\n      pop\n        /* \"#utility.yul\":3404:3475   */\n      tag_331\n        /* \"#utility.yul\":3472:3473   */\n      0x00\n        /* \"#utility.yul\":3461:3470   */\n      dup4\n        /* \"#utility.yul\":3457:3474   */\n      add\n        /* \"#utility.yul\":3448:3454   */\n      dup5\n        /* \"#utility.yul\":3404:3475   */\n      tag_249\n      jump\t// in\n    tag_331:\n        /* \"#utility.yul\":3260:3482   */\n      swap3\n      swap2\n      pop\n      pop\n      jump\t// out\n        /* \"#utility.yul\":3488:3548   */\n    tag_250:\n        /* \"#utility.yul\":3516:3519   */\n      0x00\n        /* \"#utility.yul\":3537:3542   */\n      dup2\n        /* \"#utility.yul\":3530:3542   */\n      swap1\n      pop\n        /* \"#utility.yul\":3488:3548   */\n      swap2\n      swap1\n      pop\n      jump\t// out\n        /* \"#utility.yul\":3554:3696   */\n    tag_251:\n        /* \"#utility.yul\":3604:3613   */\n      0x00\n        /* \"#utility.yul\":3637:3690   */\n      tag_334\n        /* \"#utility.yul\":3655:3689   */\n      tag_335\n        /* \"#utility.yul\":3664:3688   */\n      tag_336\n        /* \"#utility.yul\":3682:3687   */\n      dup5\n        /* \"#utility.yul\":3664:3688   */\n      tag_247\n      jump\t// in\n    tag_336:\n        /* \"#utility.yul\":3655:3689   */\n      tag_250\n      jump\t// in\n    tag_335:\n        /* \"#utility.yul\":3637:3690   */\n      tag_247\n      jump\t// in\n    tag_334:\n        /* \"#utility.yul\":3624:3690   */\n      swap1\n      pop\n        /* \"#utility.yul\":3554:3696   */\n      swap2\n      swap1\n      pop\n      jump\t// out\n        /* \"#utility.yul\":3702:3828   */\n    tag_252:\n        /* \"#utility.yul\":3752:3761   */\n      0x00\n        /* \"#utility.yul\":3785:3822   */\n      tag_338\n        /* \"#utility.yul\":3816:3821   */\n      dup3\n        /* \"#utility.yul\":3785:3822   */\n      tag_251\n      jump\t// in\n    tag_338:\n        /* \"#utility.yul\":3772:3822   */\n      swap1\n      pop\n        /* \"#utility.yul\":3702:3828   */\n      swap2\n      swap1\n      pop\n      jump\t// out\n        /* \"#utility.yul\":3834:3975   */\n    tag_253:\n        /* \"#utility.yul\":3899:3908   */\n      0x00\n        /* \"#utility.yul\":3932:3969   */\n      tag_340\n        /* \"#utility.yul\":3963:3968   */\n      dup3\n        /* \"#utility.yul\":3932:3969   */\n      tag_252\n      jump\t// in\n    tag_340:\n        /* \"#utility.yul\":3919:3969   */\n      swap1\n      pop\n        /* \"#utility.yul\":3834:3975   */\n      swap2\n      swap1\n      pop\n      jump\t// out\n        /* \"#utility.yul\":3981:4142   */\n    tag_254:\n        /* \"#utility.yul\":4083:4135   */\n      tag_342\n        /* \"#utility.yul\":4129:4134   */\n      dup2\n        /* \"#utility.yul\":4083:4135   */\n      tag_253\n      jump\t// in\n    tag_342:\n        /* \"#utility.yul\":4078:4081   */\n      dup3\n        /* \"#utility.yul\":4071:4136   */\n      mstore\n        /* \"#utility.yul\":3981:4142   */\n      pop\n      pop\n      jump\t// out\n        /* \"#utility.yul\":4148:4400   */\n    tag_46:\n        /* \"#utility.yul\":4256:4260   */\n      0x00\n        /* \"#utility.yul\":4294:4296   */\n      0x20\n        /* \"#utility.yul\":4283:4292   */\n      dup3\n        /* \"#utility.yul\":4279:4297   */\n      add\n        /* \"#utility.yul\":4271:4297   */\n      swap1\n      pop\n        /* \"#utility.yul\":4307:4393   */\n      tag_344\n        /* \"#utility.yul\":4390:4391   */\n      0x00\n        /* \"#utility.yul\":4379:4388   */\n      dup4\n        /* \"#utility.yul\":4375:4392   */\n      add\n        /* \"#utility.yul\":4366:4372   */\n      dup5\n        /* \"#utility.yul\":4307:4393   */\n      tag_254\n      jump\t// in\n    tag_344:\n        /* \"#utility.yul\":4148:4400   */\n      swap3\n      swap2\n      pop\n      pop\n      jump\t// out\n        /* \"#utility.yul\":4406:4554   */\n    tag_255:\n        /* \"#utility.yul\":4478:4487   */\n      0x00\n        /* \"#utility.yul\":4511:4548   */\n      tag_346\n        /* \"#utility.yul\":4542:4547   */\n      dup3\n        /* \"#utility.yul\":4511:4548   */\n      tag_252\n      jump\t// in\n    tag_346:\n        /* \"#utility.yul\":4498:4548   */\n      swap1\n      pop\n        /* \"#utility.yul\":4406:4554   */\n      swap2\n      swap1\n      pop\n      jump\t// out\n        /* \"#utility.yul\":4560:4735   */\n    tag_256:\n        /* \"#utility.yul\":4669:4728   */\n      tag_348\n        /* \"#utility.yul\":4722:4727   */\n      dup2\n        /* \"#utility.yul\":4669:4728   */\n      tag_255\n      jump\t// in\n    tag_348:\n        /* \"#utility.yul\":4664:4667   */\n      dup3\n        /* \"#utility.yul\":4657:4729   */\n      mstore\n        /* \"#utility.yul\":4560:4735   */\n      pop\n      pop\n      jump\t// out\n        /* \"#utility.yul\":4741:5007   */\n    tag_56:\n        /* \"#utility.yul\":4856:4860   */\n      0x00\n        /* \"#utility.yul\":4894:4896   */\n      0x20\n        /* \"#utility.yul\":4883:4892   */\n      dup3\n        /* \"#utility.yul\":4879:4897   */\n      add\n        /* \"#utility.yul\":4871:4897   */\n      swap1\n      pop\n        /* \"#utility.yul\":4907:5000   */\n      tag_350\n        /* \"#utility.yul\":4997:4998   */\n      0x00\n        /* \"#utility.yul\":4986:4995   */\n      dup4\n        /* \"#utility.yul\":4982:4999   */\n      add\n        /* \"#utility.yul\":4973:4979   */\n      dup5\n        /* \"#utility.yul\":4907:5000   */\n      tag_256\n      jump\t// in\n    tag_350:\n        /* \"#utility.yul\":4741:5007   */\n      swap3\n      swap2\n      pop\n      pop\n      jump\t// out\n        /* \"#utility.yul\":5013:5135   */\n    tag_257:\n        /* \"#utility.yul\":5086:5110   */\n      tag_352\n        /* \"#utility.yul\":5104:5109   */\n      dup2\n        /* \"#utility.yul\":5086:5110   */\n      tag_248\n      jump\t// in\n    tag_352:\n        /* \"#utility.yul\":5079:5084   */\n      dup2\n        /* \"#utility.yul\":5076:5111   */\n      eq\n        /* \"#utility.yul\":5066:5129   */\n      tag_353\n      jumpi\n        /* \"#utility.yul\":5125:5126   */\n      0x00\n        /* \"#utility.yul\":5122:5123   */\n      dup1\n        /* \"#utility.yul\":5115:5127   */\n      revert\n        /* \"#utility.yul\":5066:5129   */\n    tag_353:\n        /* \"#utility.yul\":5013:5135   */\n      pop\n      jump\t// out\n        /* \"#utility.yul\":5141:5280   */\n    tag_258:\n        /* \"#utility.yul\":5187:5192   */\n      0x00\n        /* \"#utility.yul\":5225:5231   */\n      dup2\n        /* \"#utility.yul\":5212:5232   */\n      calldataload\n        /* \"#utility.yul\":5203:5232   */\n      swap1\n      pop\n        /* \"#utility.yul\":5241:5274   */\n      tag_355\n        /* \"#utility.yul\":5268:5273   */\n      dup2\n        /* \"#utility.yul\":5241:5274   */\n      tag_257\n      jump\t// in\n    tag_355:\n        /* \"#utility.yul\":5141:5280   */\n      swap3\n      swap2\n      pop\n      pop\n      jump\t// out\n        /* \"#utility.yul\":5286:5615   */\n    tag_59:\n        /* \"#utility.yul\":5345:5351   */\n      0x00\n        /* \"#utility.yul\":5394:5396   */\n      0x20\n        /* \"#utility.yul\":5382:5391   */\n      dup3\n        /* \"#utility.yul\":5373:5380   */\n      dup5\n        /* \"#utility.yul\":5369:5392   */\n      sub\n        /* \"#utility.yul\":5365:5397   */\n      slt\n        /* \"#utility.yul\":5362:5481   */\n      iszero\n      tag_357\n      jumpi\n        /* \"#utility.yul\":5400:5479   */\n      tag_358\n      tag_237\n      jump\t// in\n    tag_358:\n        /* \"#utility.yul\":5362:5481   */\n    tag_357:\n        /* \"#utility.yul\":5520:5521   */\n      0x00\n        /* \"#utility.yul\":5545:5598   */\n      tag_359\n        /* \"#utility.yul\":5590:5597   */\n      dup5\n        /* \"#utility.yul\":5581:5587   */\n      dup3\n        /* \"#utility.yul\":5570:5579   */\n      dup6\n        /* \"#utility.yul\":5566:5588   */\n      add\n        /* \"#utility.yul\":5545:5598   */\n      tag_258\n      jump\t// in\n    tag_359:\n        /* \"#utility.yul\":5535:5598   */\n      swap2\n      pop\n        /* \"#utility.yul\":5491:5608   */\n      pop\n        /* \"#utility.yul\":5286:5615   */\n      swap3\n      swap2\n      pop\n      pop\n      jump\t// out\n        /* \"#utility.yul\":5621:5790   */\n    tag_259:\n        /* \"#utility.yul\":5705:5716   */\n      0x00\n        /* \"#utility.yul\":5739:5745   */\n      dup3\n        /* \"#utility.yul\":5734:5737   */\n      dup3\n        /* \"#utility.yul\":5727:5746   */\n      mstore\n        /* \"#utility.yul\":5779:5783   */\n      0x20\n        /* \"#utility.yul\":5774:5777   */\n      dup3\n        /* \"#utility.yul\":5770:5784   */\n      add\n        /* \"#utility.yul\":5755:5784   */\n      swap1\n      pop\n        /* \"#utility.yul\":5621:5790   */\n      swap3\n      swap2\n      pop\n      pop\n      jump\t// out\n        /* \"#utility.yul\":5796:5966   */\n    tag_260:\n        /* \"#utility.yul\":5936:5958   */\n      0x436f6e7472616374206e6f7420616c6c6f776564000000000000000000000000\n        /* \"#utility.yul\":5932:5933   */\n      0x00\n        /* \"#utility.yul\":5924:5930   */\n      dup3\n        /* \"#utility.yul\":5920:5934   */\n      add\n        /* \"#utility.yul\":5913:5959   */\n      mstore\n        /* \"#utility.yul\":5796:5966   */\n      pop\n      jump\t// out\n        /* \"#utility.yul\":5972:6338   */\n    tag_261:\n        /* \"#utility.yul\":6114:6117   */\n      0x00\n        /* \"#utility.yul\":6135:6202   */\n      tag_363\n        /* \"#utility.yul\":6199:6201   */\n      0x14\n        /* \"#utility.yul\":6194:6197   */\n      dup4\n        /* \"#utility.yul\":6135:6202   */\n      tag_259\n      jump\t// in\n    tag_363:\n        /* \"#utility.yul\":6128:6202   */\n      swap2\n      pop\n        /* \"#utility.yul\":6211:6304   */\n      tag_364\n        /* \"#utility.yul\":6300:6303   */\n      dup3\n        /* \"#utility.yul\":6211:6304   */\n      tag_260\n      jump\t// in\n    tag_364:\n        /* \"#utility.yul\":6329:6331   */\n      0x20\n        /* \"#utility.yul\":6324:6327   */\n      dup3\n        /* \"#utility.yul\":6320:6332   */\n      add\n        /* \"#utility.yul\":6313:6332   */\n      swap1\n      pop\n        /* \"#utility.yul\":5972:6338   */\n      swap2\n      swap1\n      pop\n      jump\t// out\n        /* \"#utility.yul\":6344:6763   */\n    tag_70:\n        /* \"#utility.yul\":6510:6514   */\n      0x00\n        /* \"#utility.yul\":6548:6550   */\n      0x20\n        /* \"#utility.yul\":6537:6546   */\n      dup3\n        /* \"#utility.yul\":6533:6551   */\n      add\n        /* \"#utility.yul\":6525:6551   */\n      swap1\n      pop\n        /* \"#utility.yul\":6597:6606   */\n      dup2\n        /* \"#utility.yul\":6591:6595   */\n      dup2\n        /* \"#utility.yul\":6587:6607   */\n      sub\n        /* \"#utility.yul\":6583:6584   */\n      0x00\n        /* \"#utility.yul\":6572:6581   */\n      dup4\n        /* \"#utility.yul\":6568:6585   */\n      add\n        /* \"#utility.yul\":6561:6608   */\n      mstore\n        /* \"#utility.yul\":6625:6756   */\n      tag_366\n        /* \"#utility.yul\":6751:6755   */\n      dup2\n        /* \"#utility.yul\":6625:6756   */\n      tag_261\n      jump\t// in\n    tag_366:\n        /* \"#utility.yul\":6617:6756   */\n      swap1\n      pop\n        /* \"#utility.yul\":6344:6763   */\n      swap2\n      swap1\n      pop\n      jump\t// out\n        /* \"#utility.yul\":6769:6945   */\n    tag_262:\n        /* \"#utility.yul\":6909:6937   */\n      0x50726f787920636f6e7472616374206e6f7420616c6c6f776564000000000000\n        /* \"#utility.yul\":6905:6906   */\n      0x00\n        /* \"#utility.yul\":6897:6903   */\n      dup3\n        /* \"#utility.yul\":6893:6907   */\n      add\n        /* \"#utility.yul\":6886:6938   */\n      mstore\n        /* \"#utility.yul\":6769:6945   */\n      pop\n      jump\t// out\n        /* \"#utility.yul\":6951:7317   */\n    tag_263:\n        /* \"#utility.yul\":7093:7096   */\n      0x00\n        /* \"#utility.yul\":7114:7181   */\n      tag_369\n        /* \"#utility.yul\":7178:7180   */\n      0x1a\n        /* \"#utility.yul\":7173:7176   */\n      dup4\n        /* \"#utility.yul\":7114:7181   */\n      tag_259\n      jump\t// in\n    tag_369:\n        /* \"#utility.yul\":7107:7181   */\n      swap2\n      pop\n        /* \"#utility.yul\":7190:7283   */\n      tag_370\n        /* \"#utility.yul\":7279:7282   */\n      dup3\n        /* \"#utility.yul\":7190:7283   */\n      tag_262\n      jump\t// in\n    tag_370:\n        /* \"#utility.yul\":7308:7310   */\n      0x20\n        /* \"#utility.yul\":7303:7306   */\n      dup3\n        /* \"#utility.yul\":7299:7311   */\n      add\n        /* \"#utility.yul\":7292:7311   */\n      swap1\n      pop\n        /* \"#utility.yul\":6951:7317   */\n      swap2\n      swap1\n      pop\n      jump\t// out\n        /* \"#utility.yul\":7323:7742   */\n    tag_73:\n        /* \"#utility.yul\":7489:7493   */\n      0x00\n        /* \"#utility.yul\":7527:7529   */\n      0x20\n        /* \"#utility.yul\":7516:7525   */\n      dup3\n        /* \"#utility.yul\":7512:7530   */\n      add\n        /* \"#utility.yul\":7504:7530   */\n      swap1\n      pop\n        /* \"#utility.yul\":7576:7585   */\n      dup2\n        /* \"#utility.yul\":7570:7574   */\n      dup2\n        /* \"#utility.yul\":7566:7586   */\n      sub\n        /* \"#utility.yul\":7562:7563   */\n      0x00\n        /* \"#utility.yul\":7551:7560   */\n      dup4\n        /* \"#utility.yul\":7547:7564   */\n      add\n        /* \"#utility.yul\":7540:7587   */\n      mstore\n        /* \"#utility.yul\":7604:7735   */\n      tag_372\n        /* \"#utility.yul\":7730:7734   */\n      dup2\n        /* \"#utility.yul\":7604:7735   */\n      tag_263\n      jump\t// in\n    tag_372:\n        /* \"#utility.yul\":7596:7735   */\n      swap1\n      pop\n        /* \"#utility.yul\":7323:7742   */\n      swap2\n      swap1\n      pop\n      jump\t// out\n        /* \"#utility.yul\":7748:7907   */\n    tag_264:\n        /* \"#utility.yul\":7888:7899   */\n      0x4e6f20746f6b656e730000000000000000000000000000000000000000000000\n        /* \"#utility.yul\":7884:7885   */\n      0x00\n        /* \"#utility.yul\":7876:7882   */\n      dup3\n        /* \"#utility.yul\":7872:7886   */\n      add\n        /* \"#utility.yul\":7865:7900   */\n      mstore\n        /* \"#utility.yul\":7748:7907   */\n      pop\n      jump\t// out\n        /* \"#utility.yul\":7913:8278   */\n    tag_265:\n        /* \"#utility.yul\":8055:8058   */\n      0x00\n        /* \"#utility.yul\":8076:8142   */\n      tag_375\n        /* \"#utility.yul\":8140:8141   */\n      0x09\n        /* \"#utility.yul\":8135:8138   */\n      dup4\n        /* \"#utility.yul\":8076:8142   */\n      tag_259\n      jump\t// in\n    tag_375:\n        /* \"#utility.yul\":8069:8142   */\n      swap2\n      pop\n        /* \"#utility.yul\":8151:8244   */\n      tag_376\n        /* \"#utility.yul\":8240:8243   */\n      dup3\n        /* \"#utility.yul\":8151:8244   */\n      tag_264\n      jump\t// in\n    tag_376:\n        /* \"#utility.yul\":8269:8271   */\n      0x20\n        /* \"#utility.yul\":8264:8267   */\n      dup3\n        /* \"#utility.yul\":8260:8272   */\n      add\n        /* \"#utility.yul\":8253:8272   */\n      swap1\n      pop\n        /* \"#utility.yul\":7913:8278   */\n      swap2\n      swap1\n      pop\n      jump\t// out\n        /* \"#utility.yul\":8284:8703   */\n    tag_77:\n        /* \"#utility.yul\":8450:8454   */\n      0x00\n        /* \"#utility.yul\":8488:8490   */\n      0x20\n        /* \"#utility.yul\":8477:8486   */\n      dup3\n        /* \"#utility.yul\":8473:8491   */\n      add\n        /* \"#utility.yul\":8465:8491   */\n      swap1\n      pop\n        /* \"#utility.yul\":8537:8546   */\n      dup2\n        /* \"#utility.yul\":8531:8535   */\n      dup2\n        /* \"#utility.yul\":8527:8547   */\n      sub\n        /* \"#utility.yul\":8523:8524   */\n      0x00\n        /* \"#utility.yul\":8512:8521   */\n      dup4\n        /* \"#utility.yul\":8508:8525   */\n      add\n        /* \"#utility.yul\":8501:8548   */\n      mstore\n        /* \"#utility.yul\":8565:8696   */\n      tag_378\n        /* \"#utility.yul\":8691:8695   */\n      dup2\n        /* \"#utility.yul\":8565:8696   */\n      tag_265\n      jump\t// in\n    tag_378:\n        /* \"#utility.yul\":8557:8696   */\n      swap1\n      pop\n        /* \"#utility.yul\":8284:8703   */\n      swap2\n      swap1\n      pop\n      jump\t// out\n        /* \"#utility.yul\":8709:8889   */\n    tag_83:\n        /* \"#utility.yul\":8757:8834   */\n      0x4e487b7100000000000000000000000000000000000000000000000000000000\n        /* \"#utility.yul\":8754:8755   */\n      0x00\n        /* \"#utility.yul\":8747:8835   */\n      mstore\n        /* \"#utility.yul\":8854:8858   */\n      0x32\n        /* \"#utility.yul\":8851:8852   */\n      0x04\n        /* \"#utility.yul\":8844:8859   */\n      mstore\n        /* \"#utility.yul\":8878:8882   */\n      0x24\n        /* \"#utility.yul\":8875:8876   */\n      0x00\n        /* \"#utility.yul\":8868:8883   */\n      revert\n        /* \"#utility.yul\":8895:9062   */\n    tag_266:\n        /* \"#utility.yul\":9035:9054   */\n      0x4e6f74206120746f6b656e206f776e6572000000000000000000000000000000\n        /* \"#utility.yul\":9031:9032   */\n      0x00\n        /* \"#utility.yul\":9023:9029   */\n      dup3\n        /* \"#utility.yul\":9019:9033   */\n      add\n        /* \"#utility.yul\":9012:9055   */\n      mstore\n        /* \"#utility.yul\":8895:9062   */\n      pop\n      jump\t// out\n        /* \"#utility.yul\":9068:9434   */\n    tag_267:\n        /* \"#utility.yul\":9210:9213   */\n      0x00\n        /* \"#utility.yul\":9231:9298   */\n      tag_382\n        /* \"#utility.yul\":9295:9297   */\n      0x11\n        /* \"#utility.yul\":9290:9293   */\n      dup4\n        /* \"#utility.yul\":9231:9298   */\n      tag_259\n      jump\t// in\n    tag_382:\n        /* \"#utility.yul\":9224:9298   */\n      swap2\n      pop\n        /* \"#utility.yul\":9307:9400   */\n      tag_383\n        /* \"#utility.yul\":9396:9399   */\n      dup3\n        /* \"#utility.yul\":9307:9400   */\n      tag_266\n      jump\t// in\n    tag_383:\n        /* \"#utility.yul\":9425:9427   */\n      0x20\n        /* \"#utility.yul\":9420:9423   */\n      dup3\n        /* \"#utility.yul\":9416:9428   */\n      add\n        /* \"#utility.yul\":9409:9428   */\n      swap1\n      pop\n        /* \"#utility.yul\":9068:9434   */\n      swap2\n      swap1\n      pop\n      jump\t// out\n        /* \"#utility.yul\":9440:9859   */\n    tag_86:\n        /* \"#utility.yul\":9606:9610   */\n      0x00\n        /* \"#utility.yul\":9644:9646   */\n      0x20\n        /* \"#utility.yul\":9633:9642   */\n      dup3\n        /* \"#utility.yul\":9629:9647   */\n      add\n        /* \"#utility.yul\":9621:9647   */\n      swap1\n      pop\n        /* \"#utility.yul\":9693:9702   */\n      dup2\n        /* \"#utility.yul\":9687:9691   */\n      dup2\n        /* \"#utility.yul\":9683:9703   */\n      sub\n        /* \"#utility.yul\":9679:9680   */\n      0x00\n        /* \"#utility.yul\":9668:9677   */\n      dup4\n        /* \"#utility.yul\":9664:9681   */\n      add\n        /* \"#utility.yul\":9657:9704   */\n      mstore\n        /* \"#utility.yul\":9721:9852   */\n      tag_385\n        /* \"#utility.yul\":9847:9851   */\n      dup2\n        /* \"#utility.yul\":9721:9852   */\n      tag_267\n      jump\t// in\n    tag_385:\n        /* \"#utility.yul\":9713:9852   */\n      swap1\n      pop\n        /* \"#utility.yul\":9440:9859   */\n      swap2\n      swap1\n      pop\n      jump\t// out\n        /* \"#utility.yul\":9865:10045   */\n    tag_268:\n        /* \"#utility.yul\":9913:9990   */\n      0x4e487b7100000000000000000000000000000000000000000000000000000000\n        /* \"#utility.yul\":9910:9911   */\n      0x00\n        /* \"#utility.yul\":9903:9991   */\n      mstore\n        /* \"#utility.yul\":10010:10014   */\n      0x11\n        /* \"#utility.yul\":10007:10008   */\n      0x04\n        /* \"#utility.yul\":10000:10015   */\n      mstore\n        /* \"#utility.yul\":10034:10038   */\n      0x24\n        /* \"#utility.yul\":10031:10032   */\n      0x00\n        /* \"#utility.yul\":10024:10039   */\n      revert\n        /* \"#utility.yul\":10051:10242   */\n    tag_88:\n        /* \"#utility.yul\":10091:10094   */\n      0x00\n        /* \"#utility.yul\":10110:10130   */\n      tag_388\n        /* \"#utility.yul\":10128:10129   */\n      dup3\n        /* \"#utility.yul\":10110:10130   */\n      tag_239\n      jump\t// in\n    tag_388:\n        /* \"#utility.yul\":10105:10130   */\n      swap2\n      pop\n        /* \"#utility.yul\":10144:10164   */\n      tag_389\n        /* \"#utility.yul\":10162:10163   */\n      dup4\n        /* \"#utility.yul\":10144:10164   */\n      tag_239\n      jump\t// in\n    tag_389:\n        /* \"#utility.yul\":10139:10164   */\n      swap3\n      pop\n        /* \"#utility.yul\":10187:10188   */\n      dup3\n        /* \"#utility.yul\":10184:10185   */\n      dup3\n        /* \"#utility.yul\":10180:10189   */\n      add\n        /* \"#utility.yul\":10173:10189   */\n      swap1\n      pop\n        /* \"#utility.yul\":10208:10211   */\n      dup1\n        /* \"#utility.yul\":10205:10206   */\n      dup3\n        /* \"#utility.yul\":10202:10212   */\n      gt\n        /* \"#utility.yul\":10199:10235   */\n      iszero\n      tag_390\n      jumpi\n        /* \"#utility.yul\":10215:10233   */\n      tag_391\n      tag_268\n      jump\t// in\n    tag_391:\n        /* \"#utility.yul\":10199:10235   */\n    tag_390:\n        /* \"#utility.yul\":10051:10242   */\n      swap3\n      swap2\n      pop\n      pop\n      jump\t// out\n        /* \"#utility.yul\":10248:10419   */\n    tag_269:\n        /* \"#utility.yul\":10388:10411   */\n      0x4e6f742061626c6520746f20636c61696d207965740000000000000000000000\n        /* \"#utility.yul\":10384:10385   */\n      0x00\n        /* \"#utility.yul\":10376:10382   */\n      dup3\n        /* \"#utility.yul\":10372:10386   */\n      add\n        /* \"#utility.yul\":10365:10412   */\n      mstore\n        /* \"#utility.yul\":10248:10419   */\n      pop\n      jump\t// out\n        /* \"#utility.yul\":10425:10791   */\n    tag_270:\n        /* \"#utility.yul\":10567:10570   */\n      0x00\n        /* \"#utility.yul\":10588:10655   */\n      tag_394\n        /* \"#utility.yul\":10652:10654   */\n      0x15\n        /* \"#utility.yul\":10647:10650   */\n      dup4\n        /* \"#utility.yul\":10588:10655   */\n      tag_259\n      jump\t// in\n    tag_394:\n        /* \"#utility.yul\":10581:10655   */\n      swap2\n      pop\n        /* \"#utility.yul\":10664:10757   */\n      tag_395\n        /* \"#utility.yul\":10753:10756   */\n      dup3\n        /* \"#utility.yul\":10664:10757   */\n      tag_269\n      jump\t// in\n    tag_395:\n        /* \"#utility.yul\":10782:10784   */\n      0x20\n        /* \"#utility.yul\":10777:10780   */\n      dup3\n        /* \"#utility.yul\":10773:10785   */\n      add\n        /* \"#utility.yul\":10766:10785   */\n      swap1\n      pop\n        /* \"#utility.yul\":10425:10791   */\n      swap2\n      swap1\n      pop\n      jump\t// out\n        /* \"#utility.yul\":10797:11216   */\n    tag_91:\n        /* \"#utility.yul\":10963:10967   */\n      0x00\n        /* \"#utility.yul\":11001:11003   */\n      0x20\n        /* \"#utility.yul\":10990:10999   */\n      dup3\n        /* \"#utility.yul\":10986:11004   */\n      add\n        /* \"#utility.yul\":10978:11004   */\n      swap1\n      pop\n        /* \"#utility.yul\":11050:11059   */\n      dup2\n        /* \"#utility.yul\":11044:11048   */\n      dup2\n        /* \"#utility.yul\":11040:11060   */\n      sub\n        /* \"#utility.yul\":11036:11037   */\n      0x00\n        /* \"#utility.yul\":11025:11034   */\n      dup4\n        /* \"#utility.yul\":11021:11038   */\n      add\n        /* \"#utility.yul\":11014:11061   */\n      mstore\n        /* \"#utility.yul\":11078:11209   */\n      tag_397\n        /* \"#utility.yul\":11204:11208   */\n      dup2\n        /* \"#utility.yul\":11078:11209   */\n      tag_270\n      jump\t// in\n    tag_397:\n        /* \"#utility.yul\":11070:11209   */\n      swap1\n      pop\n        /* \"#utility.yul\":10797:11216   */\n      swap2\n      swap1\n      pop\n      jump\t// out\n        /* \"#utility.yul\":11222:11388   */\n    tag_271:\n        /* \"#utility.yul\":11362:11380   */\n      0x416c726561647920756e6c6f636b656400000000000000000000000000000000\n        /* \"#utility.yul\":11358:11359   */\n      0x00\n        /* \"#utility.yul\":11350:11356   */\n      dup3\n        /* \"#utility.yul\":11346:11360   */\n      add\n        /* \"#utility.yul\":11339:11381   */\n      mstore\n        /* \"#utility.yul\":11222:11388   */\n      pop\n      jump\t// out\n        /* \"#utility.yul\":11394:11760   */\n    tag_272:\n        /* \"#utility.yul\":11536:11539   */\n      0x00\n        /* \"#utility.yul\":11557:11624   */\n      tag_400\n        /* \"#utility.yul\":11621:11623   */\n      0x10\n        /* \"#utility.yul\":11616:11619   */\n      dup4\n        /* \"#utility.yul\":11557:11624   */\n      tag_259\n      jump\t// in\n    tag_400:\n        /* \"#utility.yul\":11550:11624   */\n      swap2\n      pop\n        /* \"#utility.yul\":11633:11726   */\n      tag_401\n        /* \"#utility.yul\":11722:11725   */\n      dup3\n        /* \"#utility.yul\":11633:11726   */\n      tag_271\n      jump\t// in\n    tag_401:\n        /* \"#utility.yul\":11751:11753   */\n      0x20\n        /* \"#utility.yul\":11746:11749   */\n      dup3\n        /* \"#utility.yul\":11742:11754   */\n      add\n        /* \"#utility.yul\":11735:11754   */\n      swap1\n      pop\n        /* \"#utility.yul\":11394:11760   */\n      swap2\n      swap1\n      pop\n      jump\t// out\n        /* \"#utility.yul\":11766:12185   */\n    tag_94:\n        /* \"#utility.yul\":11932:11936   */\n      0x00\n        /* \"#utility.yul\":11970:11972   */\n      0x20\n        /* \"#utility.yul\":11959:11968   */\n      dup3\n        /* \"#utility.yul\":11955:11973   */\n      add\n        /* \"#utility.yul\":11947:11973   */\n      swap1\n      pop\n        /* \"#utility.yul\":12019:12028   */\n      dup2\n        /* \"#utility.yul\":12013:12017   */\n      dup2\n        /* \"#utility.yul\":12009:12029   */\n      sub\n        /* \"#utility.yul\":12005:12006   */\n      0x00\n        /* \"#utility.yul\":11994:12003   */\n      dup4\n        /* \"#utility.yul\":11990:12007   */\n      add\n        /* \"#utility.yul\":11983:12030   */\n      mstore\n        /* \"#utility.yul\":12047:12178   */\n      tag_403\n        /* \"#utility.yul\":12173:12177   */\n      dup2\n        /* \"#utility.yul\":12047:12178   */\n      tag_272\n      jump\t// in\n    tag_403:\n        /* \"#utility.yul\":12039:12178   */\n      swap1\n      pop\n        /* \"#utility.yul\":11766:12185   */\n      swap2\n      swap1\n      pop\n      jump\t// out\n        /* \"#utility.yul\":12191:12385   */\n    tag_100:\n        /* \"#utility.yul\":12231:12235   */\n      0x00\n        /* \"#utility.yul\":12251:12271   */\n      tag_405\n        /* \"#utility.yul\":12269:12270   */\n      dup3\n        /* \"#utility.yul\":12251:12271   */\n      tag_239\n      jump\t// in\n    tag_405:\n        /* \"#utility.yul\":12246:12271   */\n      swap2\n      pop\n        /* \"#utility.yul\":12285:12305   */\n      tag_406\n        /* \"#utility.yul\":12303:12304   */\n      dup4\n        /* \"#utility.yul\":12285:12305   */\n      tag_239\n      jump\t// in\n    tag_406:\n        /* \"#utility.yul\":12280:12305   */\n      swap3\n      pop\n        /* \"#utility.yul\":12329:12330   */\n      dup3\n        /* \"#utility.yul\":12326:12327   */\n      dup3\n        /* \"#utility.yul\":12322:12331   */\n      sub\n        /* \"#utility.yul\":12314:12331   */\n      swap1\n      pop\n        /* \"#utility.yul\":12353:12354   */\n      dup2\n        /* \"#utility.yul\":12347:12351   */\n      dup2\n        /* \"#utility.yul\":12344:12355   */\n      gt\n        /* \"#utility.yul\":12341:12378   */\n      iszero\n      tag_407\n      jumpi\n        /* \"#utility.yul\":12358:12376   */\n      tag_408\n      tag_268\n      jump\t// in\n    tag_408:\n        /* \"#utility.yul\":12341:12378   */\n    tag_407:\n        /* \"#utility.yul\":12191:12385   */\n      swap3\n      swap2\n      pop\n      pop\n      jump\t// out\n        /* \"#utility.yul\":12391:12723   */\n    tag_102:\n        /* \"#utility.yul\":12512:12516   */\n      0x00\n        /* \"#utility.yul\":12550:12552   */\n      0x40\n        /* \"#utility.yul\":12539:12548   */\n      dup3\n        /* \"#utility.yul\":12535:12553   */\n      add\n        /* \"#utility.yul\":12527:12553   */\n      swap1\n      pop\n        /* \"#utility.yul\":12563:12634   */\n      tag_410\n        /* \"#utility.yul\":12631:12632   */\n      0x00\n        /* \"#utility.yul\":12620:12629   */\n      dup4\n        /* \"#utility.yul\":12616:12633   */\n      add\n        /* \"#utility.yul\":12607:12613   */\n      dup6\n        /* \"#utility.yul\":12563:12634   */\n      tag_249\n      jump\t// in\n    tag_410:\n        /* \"#utility.yul\":12644:12716   */\n      tag_411\n        /* \"#utility.yul\":12712:12714   */\n      0x20\n        /* \"#utility.yul\":12701:12710   */\n      dup4\n        /* \"#utility.yul\":12697:12715   */\n      add\n        /* \"#utility.yul\":12688:12694   */\n      dup5\n        /* \"#utility.yul\":12644:12716   */\n      tag_242\n      jump\t// in\n    tag_411:\n        /* \"#utility.yul\":12391:12723   */\n      swap4\n      swap3\n      pop\n      pop\n      pop\n      jump\t// out\n        /* \"#utility.yul\":12729:12962   */\n    tag_110:\n        /* \"#utility.yul\":12768:12771   */\n      0x00\n        /* \"#utility.yul\":12791:12815   */\n      tag_413\n        /* \"#utility.yul\":12809:12814   */\n      dup3\n        /* \"#utility.yul\":12791:12815   */\n      tag_239\n      jump\t// in\n    tag_413:\n        /* \"#utility.yul\":12782:12815   */\n      swap2\n      pop\n        /* \"#utility.yul\":12837:12903   */\n      0xffffffffffffffffffffffffffffffffffffffffffffffffffffffffffffffff\n        /* \"#utility.yul\":12830:12835   */\n      dup3\n        /* \"#utility.yul\":12827:12904   */\n      sub\n        /* \"#utility.yul\":12824:12927   */\n      tag_414\n      jumpi\n        /* \"#utility.yul\":12907:12925   */\n      tag_415\n      tag_268\n      jump\t// in\n    tag_415:\n        /* \"#utility.yul\":12824:12927   */\n    tag_414:\n        /* \"#utility.yul\":12954:12955   */\n      0x01\n        /* \"#utility.yul\":12947:12952   */\n      dup3\n        /* \"#utility.yul\":12943:12956   */\n      add\n        /* \"#utility.yul\":12936:12956   */\n      swap1\n      pop\n        /* \"#utility.yul\":12729:12962   */\n      swap2\n      swap1\n      pop\n      jump\t// out\n        /* \"#utility.yul\":12968:13152   */\n    tag_273:\n        /* \"#utility.yul\":13067:13078   */\n      0x00\n        /* \"#utility.yul\":13101:13107   */\n      dup3\n        /* \"#utility.yul\":13096:13099   */\n      dup3\n        /* \"#utility.yul\":13089:13108   */\n      mstore\n        /* \"#utility.yul\":13141:13145   */\n      0x20\n        /* \"#utility.yul\":13136:13139   */\n      dup3\n        /* \"#utility.yul\":13132:13146   */\n      add\n        /* \"#utility.yul\":13117:13146   */\n      swap1\n      pop\n        /* \"#utility.yul\":12968:13152   */\n      swap3\n      swap2\n      pop\n      pop\n      jump\t// out\n        /* \"#utility.yul\":13158:13275   */\n    tag_274:\n        /* \"#utility.yul\":13267:13268   */\n      0x00\n        /* \"#utility.yul\":13264:13265   */\n      dup1\n        /* \"#utility.yul\":13257:13269   */\n      revert\n        /* \"#utility.yul\":13281:13379   */\n    tag_275:\n        /* \"#utility.yul\":13365:13371   */\n      dup3\n        /* \"#utility.yul\":13360:13363   */\n      dup2\n        /* \"#utility.yul\":13355:13358   */\n      dup4\n        /* \"#utility.yul\":13342:13372   */\n      calldatacopy\n        /* \"#utility.yul\":13281:13379   */\n      pop\n      pop\n      pop\n      jump\t// out\n        /* \"#utility.yul\":13415:13952   */\n    tag_276:\n        /* \"#utility.yul\":13543:13546   */\n      0x00\n        /* \"#utility.yul\":13564:13650   */\n      tag_420\n        /* \"#utility.yul\":13643:13649   */\n      dup4\n        /* \"#utility.yul\":13638:13641   */\n      dup6\n        /* \"#utility.yul\":13564:13650   */\n      tag_273\n      jump\t// in\n    tag_420:\n        /* \"#utility.yul\":13557:13650   */\n      swap4\n      pop\n        /* \"#utility.yul\":13674:13740   */\n      0x07ffffffffffffffffffffffffffffffffffffffffffffffffffffffffffffff\n        /* \"#utility.yul\":13666:13672   */\n      dup4\n        /* \"#utility.yul\":13663:13741   */\n      gt\n        /* \"#utility.yul\":13660:13825   */\n      iszero\n      tag_421\n      jumpi\n        /* \"#utility.yul\":13744:13823   */\n      tag_422\n      tag_274\n      jump\t// in\n    tag_422:\n        /* \"#utility.yul\":13660:13825   */\n    tag_421:\n        /* \"#utility.yul\":13856:13860   */\n      0x20\n        /* \"#utility.yul\":13848:13854   */\n      dup4\n        /* \"#utility.yul\":13844:13861   */\n      mul\n        /* \"#utility.yul\":13834:13861   */\n      swap3\n      pop\n        /* \"#utility.yul\":13871:13914   */\n      tag_423\n        /* \"#utility.yul\":13907:13913   */\n      dup4\n        /* \"#utility.yul\":13902:13905   */\n      dup6\n        /* \"#utility.yul\":13895:13900   */\n      dup5\n        /* \"#utility.yul\":13871:13914   */\n      tag_275\n      jump\t// in\n    tag_423:\n        /* \"#utility.yul\":13939:13945   */\n      dup3\n        /* \"#utility.yul\":13934:13937   */\n      dup5\n        /* \"#utility.yul\":13930:13946   */\n      add\n        /* \"#utility.yul\":13923:13946   */\n      swap1\n      pop\n        /* \"#utility.yul\":13415:13952   */\n      swap4\n      swap3\n      pop\n      pop\n      pop\n      jump\t// out\n        /* \"#utility.yul\":13958:14461   */\n    tag_112:\n        /* \"#utility.yul\":14139:14143   */\n      0x00\n        /* \"#utility.yul\":14177:14179   */\n      0x40\n        /* \"#utility.yul\":14166:14175   */\n      dup3\n        /* \"#utility.yul\":14162:14180   */\n      add\n        /* \"#utility.yul\":14154:14180   */\n      swap1\n      pop\n        /* \"#utility.yul\":14226:14235   */\n      dup2\n        /* \"#utility.yul\":14220:14224   */\n      dup2\n        /* \"#utility.yul\":14216:14236   */\n      sub\n        /* \"#utility.yul\":14212:14213   */\n      0x00\n        /* \"#utility.yul\":14201:14210   */\n      dup4\n        /* \"#utility.yul\":14197:14214   */\n      add\n        /* \"#utility.yul\":14190:14237   */\n      mstore\n        /* \"#utility.yul\":14254:14372   */\n      tag_425\n        /* \"#utility.yul\":14367:14371   */\n      dup2\n        /* \"#utility.yul\":14358:14364   */\n      dup6\n        /* \"#utility.yul\":14350:14356   */\n      dup8\n        /* \"#utility.yul\":14254:14372   */\n      tag_276\n      jump\t// in\n    tag_425:\n        /* \"#utility.yul\":14246:14372   */\n      swap1\n      pop\n        /* \"#utility.yul\":14382:14454   */\n      tag_426\n        /* \"#utility.yul\":14450:14452   */\n      0x20\n        /* \"#utility.yul\":14439:14448   */\n      dup4\n        /* \"#utility.yul\":14435:14453   */\n      add\n        /* \"#utility.yul\":14426:14432   */\n      dup5\n        /* \"#utility.yul\":14382:14454   */\n      tag_242\n      jump\t// in\n    tag_426:\n        /* \"#utility.yul\":13958:14461   */\n      swap5\n      swap4\n      pop\n      pop\n      pop\n      pop\n      jump\t// out\n        /* \"#utility.yul\":14467:14637   */\n    tag_277:\n        /* \"#utility.yul\":14607:14629   */\n      0x496e76616c6964206c6f636b20706572696f642e000000000000000000000000\n        /* \"#utility.yul\":14603:14604   */\n      0x00\n        /* \"#utility.yul\":14595:14601   */\n      dup3\n        /* \"#utility.yul\":14591:14605   */\n      add\n        /* \"#utility.yul\":14584:14630   */\n      mstore\n        /* \"#utility.yul\":14467:14637   */\n      pop\n      jump\t// out\n        /* \"#utility.yul\":14643:15009   */\n    tag_278:\n        /* \"#utility.yul\":14785:14788   */\n      0x00\n        /* \"#utility.yul\":14806:14873   */\n      tag_429\n        /* \"#utility.yul\":14870:14872   */\n      0x14\n        /* \"#utility.yul\":14865:14868   */\n      dup4\n        /* \"#utility.yul\":14806:14873   */\n      tag_259\n      jump\t// in\n    tag_429:\n        /* \"#utility.yul\":14799:14873   */\n      swap2\n      pop\n        /* \"#utility.yul\":14882:14975   */\n      tag_430\n        /* \"#utility.yul\":14971:14974   */\n      dup3\n        /* \"#utility.yul\":14882:14975   */\n      tag_277\n      jump\t// in\n    tag_430:\n        /* \"#utility.yul\":15000:15002   */\n      0x20\n        /* \"#utility.yul\":14995:14998   */\n      dup3\n        /* \"#utility.yul\":14991:15003   */\n      add\n        /* \"#utility.yul\":14984:15003   */\n      swap1\n      pop\n        /* \"#utility.yul\":14643:15009   */\n      swap2\n      swap1\n      pop\n      jump\t// out\n        /* \"#utility.yul\":15015:15434   */\n    tag_124:\n        /* \"#utility.yul\":15181:15185   */\n      0x00\n        /* \"#utility.yul\":15219:15221   */\n      0x20\n        /* \"#utility.yul\":15208:15217   */\n      dup3\n        /* \"#utility.yul\":15204:15222   */\n      add\n        /* \"#utility.yul\":15196:15222   */\n      swap1\n      pop\n        /* \"#utility.yul\":15268:15277   */\n      dup2\n        /* \"#utility.yul\":15262:15266   */\n      dup2\n        /* \"#utility.yul\":15258:15278   */\n      sub\n        /* \"#utility.yul\":15254:15255   */\n      0x00\n        /* \"#utility.yul\":15243:15252   */\n      dup4\n        /* \"#utility.yul\":15239:15256   */\n      add\n        /* \"#utility.yul\":15232:15279   */\n      mstore\n        /* \"#utility.yul\":15296:15427   */\n      tag_432\n        /* \"#utility.yul\":15422:15426   */\n      dup2\n        /* \"#utility.yul\":15296:15427   */\n      tag_278\n      jump\t// in\n    tag_432:\n        /* \"#utility.yul\":15288:15427   */\n      swap1\n      pop\n        /* \"#utility.yul\":15015:15434   */\n      swap2\n      swap1\n      pop\n      jump\t// out\n        /* \"#utility.yul\":15440:15621   */\n    tag_279:\n        /* \"#utility.yul\":15580:15613   */\n      0x5265656e7472616e637947756172643a207265656e7472616e742063616c6c00\n        /* \"#utility.yul\":15576:15577   */\n      0x00\n        /* \"#utility.yul\":15568:15574   */\n      dup3\n        /* \"#utility.yul\":15564:15578   */\n      add\n        /* \"#utility.yul\":15557:15614   */\n      mstore\n        /* \"#utility.yul\":15440:15621   */\n      pop\n      jump\t// out\n        /* \"#utility.yul\":15627:15993   */\n    tag_280:\n        /* \"#utility.yul\":15769:15772   */\n      0x00\n        /* \"#utility.yul\":15790:15857   */\n      tag_435\n        /* \"#utility.yul\":15854:15856   */\n      0x1f\n        /* \"#utility.yul\":15849:15852   */\n      dup4\n        /* \"#utility.yul\":15790:15857   */\n      tag_259\n      jump\t// in\n    tag_435:\n        /* \"#utility.yul\":15783:15857   */\n      swap2\n      pop\n        /* \"#utility.yul\":15866:15959   */\n      tag_436\n        /* \"#utility.yul\":15955:15958   */\n      dup3\n        /* \"#utility.yul\":15866:15959   */\n      tag_279\n      jump\t// in\n    tag_436:\n        /* \"#utility.yul\":15984:15986   */\n      0x20\n        /* \"#utility.yul\":15979:15982   */\n      dup3\n        /* \"#utility.yul\":15975:15987   */\n      add\n        /* \"#utility.yul\":15968:15987   */\n      swap1\n      pop\n        /* \"#utility.yul\":15627:15993   */\n      swap2\n      swap1\n      pop\n      jump\t// out\n        /* \"#utility.yul\":15999:16418   */\n    tag_135:\n        /* \"#utility.yul\":16165:16169   */\n      0x00\n        /* \"#utility.yul\":16203:16205   */\n      0x20\n        /* \"#utility.yul\":16192:16201   */\n      dup3\n        /* \"#utility.yul\":16188:16206   */\n      add\n        /* \"#utility.yul\":16180:16206   */\n      swap1\n      pop\n        /* \"#utility.yul\":16252:16261   */\n      dup2\n        /* \"#utility.yul\":16246:16250   */\n      dup2\n        /* \"#utility.yul\":16242:16262   */\n      sub\n        /* \"#utility.yul\":16238:16239   */\n      0x00\n        /* \"#utility.yul\":16227:16236   */\n      dup4\n        /* \"#utility.yul\":16223:16240   */\n      add\n        /* \"#utility.yul\":16216:16263   */\n      mstore\n        /* \"#utility.yul\":16280:16411   */\n      tag_438\n        /* \"#utility.yul\":16406:16410   */\n      dup2\n        /* \"#utility.yul\":16280:16411   */\n      tag_280\n      jump\t// in\n    tag_438:\n        /* \"#utility.yul\":16272:16411   */\n      swap1\n      pop\n        /* \"#utility.yul\":15999:16418   */\n      swap2\n      swap1\n      pop\n      jump\t// out\n        /* \"#utility.yul\":16424:16596   */\n    tag_281:\n        /* \"#utility.yul\":16564:16588   */\n      0x4e6f742061626c6520746f20756e6c6f636b2079657400000000000000000000\n        /* \"#utility.yul\":16560:16561   */\n      0x00\n        /* \"#utility.yul\":16552:16558   */\n      dup3\n        /* \"#utility.yul\":16548:16562   */\n      add\n        /* \"#utility.yul\":16541:16589   */\n      mstore\n        /* \"#utility.yul\":16424:16596   */\n      pop\n      jump\t// out\n        /* \"#utility.yul\":16602:16968   */\n    tag_282:\n        /* \"#utility.yul\":16744:16747   */\n      0x00\n        /* \"#utility.yul\":16765:16832   */\n      tag_441\n        /* \"#utility.yul\":16829:16831   */\n      0x16\n        /* \"#utility.yul\":16824:16827   */\n      dup4\n        /* \"#utility.yul\":16765:16832   */\n      tag_259\n      jump\t// in\n    tag_441:\n        /* \"#utility.yul\":16758:16832   */\n      swap2\n      pop\n        /* \"#utility.yul\":16841:16934   */\n      tag_442\n        /* \"#utility.yul\":16930:16933   */\n      dup3\n        /* \"#utility.yul\":16841:16934   */\n      tag_281\n      jump\t// in\n    tag_442:\n        /* \"#utility.yul\":16959:16961   */\n      0x20\n        /* \"#utility.yul\":16954:16957   */\n      dup3\n        /* \"#utility.yul\":16950:16962   */\n      add\n        /* \"#utility.yul\":16943:16962   */\n      swap1\n      pop\n        /* \"#utility.yul\":16602:16968   */\n      swap2\n      swap1\n      pop\n      jump\t// out\n        /* \"#utility.yul\":16974:17393   */\n    tag_149:\n        /* \"#utility.yul\":17140:17144   */\n      0x00\n        /* \"#utility.yul\":17178:17180   */\n      0x20\n        /* \"#utility.yul\":17167:17176   */\n      dup3\n        /* \"#utility.yul\":17163:17181   */\n      add\n        /* \"#utility.yul\":17155:17181   */\n      swap1\n      pop\n        /* \"#utility.yul\":17227:17236   */\n      dup2\n        /* \"#utility.yul\":17221:17225   */\n      dup2\n        /* \"#utility.yul\":17217:17237   */\n      sub\n        /* \"#utility.yul\":17213:17214   */\n      0x00\n        /* \"#utility.yul\":17202:17211   */\n      dup4\n        /* \"#utility.yul\":17198:17215   */\n      add\n        /* \"#utility.yul\":17191:17238   */\n      mstore\n        /* \"#utility.yul\":17255:17386   */\n      tag_444\n        /* \"#utility.yul\":17381:17385   */\n      dup2\n        /* \"#utility.yul\":17255:17386   */\n      tag_282\n      jump\t// in\n    tag_444:\n        /* \"#utility.yul\":17247:17386   */\n      swap1\n      pop\n        /* \"#utility.yul\":16974:17393   */\n      swap2\n      swap1\n      pop\n      jump\t// out\n        /* \"#utility.yul\":17399:17841   */\n    tag_155:\n        /* \"#utility.yul\":17548:17552   */\n      0x00\n        /* \"#utility.yul\":17586:17588   */\n      0x60\n        /* \"#utility.yul\":17575:17584   */\n      dup3\n        /* \"#utility.yul\":17571:17589   */\n      add\n        /* \"#utility.yul\":17563:17589   */\n      swap1\n      pop\n        /* \"#utility.yul\":17599:17670   */\n      tag_446\n        /* \"#utility.yul\":17667:17668   */\n      0x00\n        /* \"#utility.yul\":17656:17665   */\n      dup4\n        /* \"#utility.yul\":17652:17669   */\n      add\n        /* \"#utility.yul\":17643:17649   */\n      dup7\n        /* \"#utility.yul\":17599:17670   */\n      tag_249\n      jump\t// in\n    tag_446:\n        /* \"#utility.yul\":17680:17752   */\n      tag_447\n        /* \"#utility.yul\":17748:17750   */\n      0x20\n        /* \"#utility.yul\":17737:17746   */\n      dup4\n        /* \"#utility.yul\":17733:17751   */\n      add\n        /* \"#utility.yul\":17724:17730   */\n      dup6\n        /* \"#utility.yul\":17680:17752   */\n      tag_249\n      jump\t// in\n    tag_447:\n        /* \"#utility.yul\":17762:17834   */\n      tag_448\n        /* \"#utility.yul\":17830:17832   */\n      0x40\n        /* \"#utility.yul\":17819:17828   */\n      dup4\n        /* \"#utility.yul\":17815:17833   */\n      add\n        /* \"#utility.yul\":17806:17812   */\n      dup5\n        /* \"#utility.yul\":17762:17834   */\n      tag_242\n      jump\t// in\n    tag_448:\n        /* \"#utility.yul\":17399:17841   */\n      swap5\n      swap4\n      pop\n      pop\n      pop\n      pop\n      jump\t// out\n        /* \"#utility.yul\":17847:18240   */\n    tag_173:\n        /* \"#utility.yul\":18000:18004   */\n      0x00\n        /* \"#utility.yul\":18038:18040   */\n      0x20\n        /* \"#utility.yul\":18027:18036   */\n      dup3\n        /* \"#utility.yul\":18023:18041   */\n      add\n        /* \"#utility.yul\":18015:18041   */\n      swap1\n      pop\n        /* \"#utility.yul\":18087:18096   */\n      dup2\n        /* \"#utility.yul\":18081:18085   */\n      dup2\n        /* \"#utility.yul\":18077:18097   */\n      sub\n        /* \"#utility.yul\":18073:18074   */\n      0x00\n        /* \"#utility.yul\":18062:18071   */\n      dup4\n        /* \"#utility.yul\":18058:18075   */\n      add\n        /* \"#utility.yul\":18051:18098   */\n      mstore\n        /* \"#utility.yul\":18115:18233   */\n      tag_450\n        /* \"#utility.yul\":18228:18232   */\n      dup2\n        /* \"#utility.yul\":18219:18225   */\n      dup5\n        /* \"#utility.yul\":18211:18217   */\n      dup7\n        /* \"#utility.yul\":18115:18233   */\n      tag_276\n      jump\t// in\n    tag_450:\n        /* \"#utility.yul\":18107:18233   */\n      swap1\n      pop\n        /* \"#utility.yul\":17847:18240   */\n      swap4\n      swap3\n      pop\n      pop\n      pop\n      jump\t// out\n        /* \"#utility.yul\":18246:18471   */\n    tag_283:\n        /* \"#utility.yul\":18386:18420   */\n      0x4f776e61626c653a206e6577206f776e657220697320746865207a65726f2061\n        /* \"#utility.yul\":18382:18383   */\n      0x00\n        /* \"#utility.yul\":18374:18380   */\n      dup3\n        /* \"#utility.yul\":18370:18384   */\n      add\n        /* \"#utility.yul\":18363:18421   */\n      mstore\n        /* \"#utility.yul\":18455:18463   */\n      0x6464726573730000000000000000000000000000000000000000000000000000\n        /* \"#utility.yul\":18450:18452   */\n      0x20\n        /* \"#utility.yul\":18442:18448   */\n      dup3\n        /* \"#utility.yul\":18438:18453   */\n      add\n        /* \"#utility.yul\":18431:18464   */\n      mstore\n        /* \"#utility.yul\":18246:18471   */\n      pop\n      jump\t// out\n        /* \"#utility.yul\":18477:18843   */\n    tag_284:\n        /* \"#utility.yul\":18619:18622   */\n      0x00\n        /* \"#utility.yul\":18640:18707   */\n      tag_453\n        /* \"#utility.yul\":18704:18706   */\n      0x26\n        /* \"#utility.yul\":18699:18702   */\n      dup4\n        /* \"#utility.yul\":18640:18707   */\n      tag_259\n      jump\t// in\n    tag_453:\n        /* \"#utility.yul\":18633:18707   */\n      swap2\n      pop\n        /* \"#utility.yul\":18716:18809   */\n      tag_454\n        /* \"#utility.yul\":18805:18808   */\n      dup3\n        /* \"#utility.yul\":18716:18809   */\n      tag_283\n      jump\t// in\n    tag_454:\n        /* \"#utility.yul\":18834:18836   */\n      0x40\n        /* \"#utility.yul\":18829:18832   */\n      dup3\n        /* \"#utility.yul\":18825:18837   */\n      add\n        /* \"#utility.yul\":18818:18837   */\n      swap1\n      pop\n        /* \"#utility.yul\":18477:18843   */\n      swap2\n      swap1\n      pop\n      jump\t// out\n        /* \"#utility.yul\":18849:19268   */\n    tag_180:\n        /* \"#utility.yul\":19015:19019   */\n      0x00\n        /* \"#utility.yul\":19053:19055   */\n      0x20\n        /* \"#utility.yul\":19042:19051   */\n      dup3\n        /* \"#utility.yul\":19038:19056   */\n      add\n        /* \"#utility.yul\":19030:19056   */\n      swap1\n      pop\n        /* \"#utility.yul\":19102:19111   */\n      dup2\n        /* \"#utility.yul\":19096:19100   */\n      dup2\n        /* \"#utility.yul\":19092:19112   */\n      sub\n        /* \"#utility.yul\":19088:19089   */\n      0x00\n        /* \"#utility.yul\":19077:19086   */\n      dup4\n        /* \"#utility.yul\":19073:19090   */\n      add\n        /* \"#utility.yul\":19066:19113   */\n      mstore\n        /* \"#utility.yul\":19130:19261   */\n      tag_456\n        /* \"#utility.yul\":19256:19260   */\n      dup2\n        /* \"#utility.yul\":19130:19261   */\n      tag_284\n      jump\t// in\n    tag_456:\n        /* \"#utility.yul\":19122:19261   */\n      swap1\n      pop\n        /* \"#utility.yul\":18849:19268   */\n      swap2\n      swap1\n      pop\n      jump\t// out\n        /* \"#utility.yul\":19274:19417   */\n    tag_285:\n        /* \"#utility.yul\":19331:19336   */\n      0x00\n        /* \"#utility.yul\":19362:19368   */\n      dup2\n        /* \"#utility.yul\":19356:19369   */\n      mload\n        /* \"#utility.yul\":19347:19369   */\n      swap1\n      pop\n        /* \"#utility.yul\":19378:19411   */\n      tag_458\n        /* \"#utility.yul\":19405:19410   */\n      dup2\n        /* \"#utility.yul\":19378:19411   */\n      tag_257\n      jump\t// in\n    tag_458:\n        /* \"#utility.yul\":19274:19417   */\n      swap3\n      swap2\n      pop\n      pop\n      jump\t// out\n        /* \"#utility.yul\":19423:19774   */\n    tag_203:\n        /* \"#utility.yul\":19493:19499   */\n      0x00\n        /* \"#utility.yul\":19542:19544   */\n      0x20\n        /* \"#utility.yul\":19530:19539   */\n      dup3\n        /* \"#utility.yul\":19521:19528   */\n      dup5\n        /* \"#utility.yul\":19517:19540   */\n      sub\n        /* \"#utility.yul\":19513:19545   */\n      slt\n        /* \"#utility.yul\":19510:19629   */\n      iszero\n      tag_460\n      jumpi\n        /* \"#utility.yul\":19548:19627   */\n      tag_461\n      tag_237\n      jump\t// in\n    tag_461:\n        /* \"#utility.yul\":19510:19629   */\n    tag_460:\n        /* \"#utility.yul\":19668:19669   */\n      0x00\n        /* \"#utility.yul\":19693:19757   */\n      tag_462\n        /* \"#utility.yul\":19749:19756   */\n      dup5\n        /* \"#utility.yul\":19740:19746   */\n      dup3\n        /* \"#utility.yul\":19729:19738   */\n      dup6\n        /* \"#utility.yul\":19725:19747   */\n      add\n        /* \"#utility.yul\":19693:19757   */\n      tag_285\n      jump\t// in\n    tag_462:\n        /* \"#utility.yul\":19683:19757   */\n      swap2\n      pop\n        /* \"#utility.yul\":19639:19767   */\n      pop\n        /* \"#utility.yul\":19423:19774   */\n      swap3\n      swap2\n      pop\n      pop\n      jump\t// out\n        /* \"#utility.yul\":19780:19955   */\n    tag_286:\n        /* \"#utility.yul\":19920:19947   */\n      0x596f7520646f6e277420686f6c64207468697320746f6b656e00000000000000\n        /* \"#utility.yul\":19916:19917   */\n      0x00\n        /* \"#utility.yul\":19908:19914   */\n      dup3\n        /* \"#utility.yul\":19904:19918   */\n      add\n        /* \"#utility.yul\":19897:19948   */\n      mstore\n        /* \"#utility.yul\":19780:19955   */\n      pop\n      jump\t// out\n        /* \"#utility.yul\":19961:20327   */\n    tag_287:\n        /* \"#utility.yul\":20103:20106   */\n      0x00\n        /* \"#utility.yul\":20124:20191   */\n      tag_465\n        /* \"#utility.yul\":20188:20190   */\n      0x19\n        /* \"#utility.yul\":20183:20186   */\n      dup4\n        /* \"#utility.yul\":20124:20191   */\n      tag_259\n      jump\t// in\n    tag_465:\n        /* \"#utility.yul\":20117:20191   */\n      swap2\n      pop\n        /* \"#utility.yul\":20200:20293   */\n      tag_466\n        /* \"#utility.yul\":20289:20292   */\n      dup3\n        /* \"#utility.yul\":20200:20293   */\n      tag_286\n      jump\t// in\n    tag_466:\n        /* \"#utility.yul\":20318:20320   */\n      0x20\n        /* \"#utility.yul\":20313:20316   */\n      dup3\n        /* \"#utility.yul\":20309:20321   */\n      add\n        /* \"#utility.yul\":20302:20321   */\n      swap1\n      pop\n        /* \"#utility.yul\":19961:20327   */\n      swap2\n      swap1\n      pop\n      jump\t// out\n        /* \"#utility.yul\":20333:20752   */\n    tag_206:\n        /* \"#utility.yul\":20499:20503   */\n      0x00\n        /* \"#utility.yul\":20537:20539   */\n      0x20\n        /* \"#utility.yul\":20526:20535   */\n      dup3\n        /* \"#utility.yul\":20522:20540   */\n      add\n        /* \"#utility.yul\":20514:20540   */\n      swap1\n      pop\n        /* \"#utility.yul\":20586:20595   */\n      dup2\n        /* \"#utility.yul\":20580:20584   */\n      dup2\n        /* \"#utility.yul\":20576:20596   */\n      sub\n        /* \"#utility.yul\":20572:20573   */\n      0x00\n        /* \"#utility.yul\":20561:20570   */\n      dup4\n        /* \"#utility.yul\":20557:20574   */\n      add\n        /* \"#utility.yul\":20550:20597   */\n      mstore\n        /* \"#utility.yul\":20614:20745   */\n      tag_468\n        /* \"#utility.yul\":20740:20744   */\n      dup2\n        /* \"#utility.yul\":20614:20745   */\n      tag_287\n      jump\t// in\n    tag_468:\n        /* \"#utility.yul\":20606:20745   */\n      swap1\n      pop\n        /* \"#utility.yul\":20333:20752   */\n      swap2\n      swap1\n      pop\n      jump\t// out\n        /* \"#utility.yul\":20758:21106   */\n    tag_224:\n        /* \"#utility.yul\":20798:20805   */\n      0x00\n        /* \"#utility.yul\":20821:20841   */\n      tag_470\n        /* \"#utility.yul\":20839:20840   */\n      dup3\n        /* \"#utility.yul\":20821:20841   */\n      tag_239\n      jump\t// in\n    tag_470:\n        /* \"#utility.yul\":20816:20841   */\n      swap2\n      pop\n        /* \"#utility.yul\":20855:20875   */\n      tag_471\n        /* \"#utility.yul\":20873:20874   */\n      dup4\n        /* \"#utility.yul\":20855:20875   */\n      tag_239\n      jump\t// in\n    tag_471:\n        /* \"#utility.yul\":20850:20875   */\n      swap3\n      pop\n        /* \"#utility.yul\":21043:21044   */\n      dup2\n        /* \"#utility.yul\":20975:21041   */\n      0xffffffffffffffffffffffffffffffffffffffffffffffffffffffffffffffff\n        /* \"#utility.yul\":20971:21045   */\n      div\n        /* \"#utility.yul\":20968:20969   */\n      dup4\n        /* \"#utility.yul\":20965:21046   */\n      gt\n        /* \"#utility.yul\":20960:20961   */\n      dup3\n        /* \"#utility.yul\":20953:20962   */\n      iszero\n        /* \"#utility.yul\":20946:20963   */\n      iszero\n        /* \"#utility.yul\":20942:21047   */\n      and\n        /* \"#utility.yul\":20939:21070   */\n      iszero\n      tag_472\n      jumpi\n        /* \"#utility.yul\":21050:21068   */\n      tag_473\n      tag_268\n      jump\t// in\n    tag_473:\n        /* \"#utility.yul\":20939:21070   */\n    tag_472:\n        /* \"#utility.yul\":21098:21099   */\n      dup3\n        /* \"#utility.yul\":21095:21096   */\n      dup3\n        /* \"#utility.yul\":21091:21100   */\n      mul\n        /* \"#utility.yul\":21080:21100   */\n      swap1\n      pop\n        /* \"#utility.yul\":20758:21106   */\n      swap3\n      swap2\n      pop\n      pop\n      jump\t// out\n        /* \"#utility.yul\":21112:21292   */\n    tag_288:\n        /* \"#utility.yul\":21160:21237   */\n      0x4e487b7100000000000000000000000000000000000000000000000000000000\n        /* \"#utility.yul\":21157:21158   */\n      0x00\n        /* \"#utility.yul\":21150:21238   */\n      mstore\n        /* \"#utility.yul\":21257:21261   */\n      0x12\n        /* \"#utility.yul\":21254:21255   */\n      0x04\n        /* \"#utility.yul\":21247:21262   */\n      mstore\n        /* \"#utility.yul\":21281:21285   */\n      0x24\n        /* \"#utility.yul\":21278:21279   */\n      0x00\n        /* \"#utility.yul\":21271:21286   */\n      revert\n        /* \"#utility.yul\":21298:21483   */\n    tag_226:\n        /* \"#utility.yul\":21338:21339   */\n      0x00\n        /* \"#utility.yul\":21355:21375   */\n      tag_476\n        /* \"#utility.yul\":21373:21374   */\n      dup3\n        /* \"#utility.yul\":21355:21375   */\n      tag_239\n      jump\t// in\n    tag_476:\n        /* \"#utility.yul\":21350:21375   */\n      swap2\n      pop\n        /* \"#utility.yul\":21389:21409   */\n      tag_477\n        /* \"#utility.yul\":21407:21408   */\n      dup4\n        /* \"#utility.yul\":21389:21409   */\n      tag_239\n      jump\t// in\n    tag_477:\n        /* \"#utility.yul\":21384:21409   */\n      swap3\n      pop\n        /* \"#utility.yul\":21428:21429   */\n      dup3\n        /* \"#utility.yul\":21418:21453   */\n      tag_478\n      jumpi\n        /* \"#utility.yul\":21433:21451   */\n      tag_479\n      tag_288\n      jump\t// in\n    tag_479:\n        /* \"#utility.yul\":21418:21453   */\n    tag_478:\n        /* \"#utility.yul\":21475:21476   */\n      dup3\n        /* \"#utility.yul\":21472:21473   */\n      dup3\n        /* \"#utility.yul\":21468:21477   */\n      div\n        /* \"#utility.yul\":21463:21477   */\n      swap1\n      pop\n        /* \"#utility.yul\":21298:21483   */\n      swap3\n      swap2\n      pop\n      pop\n      jump\t// out\n        /* \"#utility.yul\":21489:21671   */\n    tag_289:\n        /* \"#utility.yul\":21629:21663   */\n      0x4f776e61626c653a2063616c6c6572206973206e6f7420746865206f776e6572\n        /* \"#utility.yul\":21625:21626   */\n      0x00\n        /* \"#utility.yul\":21617:21623   */\n      dup3\n        /* \"#utility.yul\":21613:21627   */\n      add\n        /* \"#utility.yul\":21606:21664   */\n      mstore\n        /* \"#utility.yul\":21489:21671   */\n      pop\n      jump\t// out\n        /* \"#utility.yul\":21677:22043   */\n    tag_290:\n        /* \"#utility.yul\":21819:21822   */\n      0x00\n        /* \"#utility.yul\":21840:21907   */\n      tag_482\n        /* \"#utility.yul\":21904:21906   */\n      0x20\n        /* \"#utility.yul\":21899:21902   */\n      dup4\n        /* \"#utility.yul\":21840:21907   */\n      tag_259\n      jump\t// in\n    tag_482:\n        /* \"#utility.yul\":21833:21907   */\n      swap2\n      pop\n        /* \"#utility.yul\":21916:22009   */\n      tag_483\n        /* \"#utility.yul\":22005:22008   */\n      dup3\n        /* \"#utility.yul\":21916:22009   */\n      tag_289\n      jump\t// in\n    tag_483:\n        /* \"#utility.yul\":22034:22036   */\n      0x20\n        /* \"#utility.yul\":22029:22032   */\n      dup3\n        /* \"#utility.yul\":22025:22037   */\n      add\n        /* \"#utility.yul\":22018:22037   */\n      swap1\n      pop\n        /* \"#utility.yul\":21677:22043   */\n      swap2\n      swap1\n      pop\n      jump\t// out\n        /* \"#utility.yul\":22049:22468   */\n    tag_233:\n        /* \"#utility.yul\":22215:22219   */\n      0x00\n        /* \"#utility.yul\":22253:22255   */\n      0x20\n        /* \"#utility.yul\":22242:22251   */\n      dup3\n        /* \"#utility.yul\":22238:22256   */\n      add\n        /* \"#utility.yul\":22230:22256   */\n      swap1\n      pop\n        /* \"#utility.yul\":22302:22311   */\n      dup2\n        /* \"#utility.yul\":22296:22300   */\n      dup2\n        /* \"#utility.yul\":22292:22312   */\n      sub\n        /* \"#utility.yul\":22288:22289   */\n      0x00\n        /* \"#utility.yul\":22277:22286   */\n      dup4\n        /* \"#utility.yul\":22273:22290   */\n      add\n        /* \"#utility.yul\":22266:22313   */\n      mstore\n        /* \"#utility.yul\":22330:22461   */\n      tag_485\n        /* \"#utility.yul\":22456:22460   */\n      dup2\n        /* \"#utility.yul\":22330:22461   */\n      tag_290\n      jump\t// in\n    tag_485:\n        /* \"#utility.yul\":22322:22461   */\n      swap1\n      pop\n        /* \"#utility.yul\":22049:22468   */\n      swap2\n      swap1\n      pop\n      jump\t// out\n\n    auxdata: 0xa2646970667358221220d159a3575c950bff41cc2cc4a81f321d2a713ba3215f75fa14a98516c3f0d20864736f6c63430008100033\n}\n",
				"bytecode": {
					"linkReferences": {},
					"object": "60c06040523480156200001157600080fd5b506040516200287538038062002875833981810160405281019062000037919062000446565b620000576200004b620002d560201b60201c565b620002dd60201b60201c565b60018081905550600073ffffffffffffffffffffffffffffffffffffffff168473ffffffffffffffffffffffffffffffffffffffff1603620000d0576040517f08c379a0000000000000000000000000000000000000000000000000000000008152600401620000c7906200052f565b60405180910390fd5b600073ffffffffffffffffffffffffffffffffffffffff168573ffffffffffffffffffffffffffffffffffffffff160362000142576040517f08c379a00000000000000000000000000000000000000000000000000000000081526004016200013990620005a1565b60405180910390fd5b8473ffffffffffffffffffffffffffffffffffffffff166301ffc9a76380ac58cd6040518263ffffffff1660e01b81526004016200018191906200063f565b602060405180830381865afa1580156200019f573d6000803e3d6000fd5b505050506040513d601f19601f82011682018060405250810190620001c5919062000699565b62000207576040517f08c379a0000000000000000000000000000000000000000000000000000000008152600401620001fe906200071b565b60405180910390fd5b600083116200024d576040517f08c379a000000000000000000000000000000000000000000000000000000000815260040162000244906200078d565b60405180910390fd5b8373ffffffffffffffffffffffffffffffffffffffff1660808173ffffffffffffffffffffffffffffffffffffffff16815250508473ffffffffffffffffffffffffffffffffffffffff1660a08173ffffffffffffffffffffffffffffffffffffffff16815250508260028190555081600581905550806004819055505050505050620007af565b600033905090565b60008060009054906101000a900473ffffffffffffffffffffffffffffffffffffffff169050816000806101000a81548173ffffffffffffffffffffffffffffffffffffffff021916908373ffffffffffffffffffffffffffffffffffffffff1602179055508173ffffffffffffffffffffffffffffffffffffffff168173ffffffffffffffffffffffffffffffffffffffff167f8be0079c531659141344cd1fd0a4f28419497f9722a3daafe3b4186f6b6457e060405160405180910390a35050565b600080fd5b600073ffffffffffffffffffffffffffffffffffffffff82169050919050565b6000620003d382620003a6565b9050919050565b620003e581620003c6565b8114620003f157600080fd5b50565b6000815190506200040581620003da565b92915050565b6000819050919050565b62000420816200040b565b81146200042c57600080fd5b50565b600081519050620004408162000415565b92915050565b600080600080600060a08688031215620004655762000464620003a1565b5b60006200047588828901620003f4565b95505060206200048888828901620003f4565b94505060406200049b888289016200042f565b9350506060620004ae888289016200042f565b9250506080620004c1888289016200042f565b9150509295509295909350565b600082825260208201905092915050565b7f496e76616c69642072657761726420746f6b656e000000000000000000000000600082015250565b600062000517601483620004ce565b91506200052482620004df565b602082019050919050565b600060208201905081810360008301526200054a8162000508565b9050919050565b7f496e76616c6964207374616b65204e4654000000000000000000000000000000600082015250565b600062000589601183620004ce565b9150620005968262000551565b602082019050919050565b60006020820190508181036000830152620005bc816200057a565b9050919050565b6000819050919050565b60007fffffffff0000000000000000000000000000000000000000000000000000000082169050919050565b60008160e01b9050919050565b600062000627620006216200061b84620005c3565b620005f9565b620005cd565b9050919050565b620006398162000606565b82525050565b60006020820190506200065660008301846200062e565b92915050565b60008115159050919050565b62000673816200065c565b81146200067f57600080fd5b50565b600081519050620006938162000668565b92915050565b600060208284031215620006b257620006b1620003a1565b5b6000620006c28482850162000682565b91505092915050565b7f4e6f6e2d65726337323100000000000000000000000000000000000000000000600082015250565b600062000703600a83620004ce565b91506200071082620006cb565b602082019050919050565b600060208201905081810360008301526200073681620006f4565b9050919050565b7f496e76616c6964206c6f636b20706572696f6400000000000000000000000000600082015250565b600062000775601383620004ce565b915062000782826200073d565b602082019050919050565b60006020820190508181036000830152620007a88162000766565b9050919050565b60805160a05161207d620007f860003960008181610ab501528181610d3b01528181610f9701526110a00152600081816105a001528181610b970152610d6b015261207d6000f3fe608060405234801561001057600080fd5b50600436106100cf5760003560e01c80638da5cb5b1161008c578063cb12f66011610066578063cb12f660146101da578063d1af0c7d146101f8578063f2fde38b14610216578063ff5d845014610232576100cf565b80638da5cb5b14610180578063b48509e61461019e578063c69d1923146101bc576100cf565b806320281a98146100d45780633fd8b02f146101045780635eac623914610122578063715018a61461013e578063779972da14610148578063849a1e1d14610164575b600080fd5b6100ee60048036038101906100e99190611551565b61024e565b6040516100fb919061158d565b60405180910390f35b61010c61026e565b604051610119919061158d565b60405180910390f35b61013c6004803603810190610137919061160d565b610274565b005b6101466106db565b005b610162600480360381019061015d9190611551565b6106ef565b005b61017e6004803603810190610179919061160d565b61077b565b005b610188610d10565b604051610195919061169b565b60405180910390f35b6101a6610d39565b6040516101b39190611715565b60405180910390f35b6101c4610d5d565b6040516101d1919061158d565b60405180910390f35b6101e2610d63565b6040516101ef919061158d565b60405180910390f35b610200610d69565b60405161020d9190611751565b60405180910390f35b610230600480360381019061022b9190611798565b610d8d565b005b61024c6004803603810190610247919061160d565b610e10565b005b600060036000838152602001908152602001600020600201549050919050565b60025481565b6102933373ffffffffffffffffffffffffffffffffffffffff1661129a565b156102d3576040517f08c379a00000000000000000000000000000000000000000000000000000000081526004016102ca90611822565b60405180910390fd5b3273ffffffffffffffffffffffffffffffffffffffff163373ffffffffffffffffffffffffffffffffffffffff1614610341576040517f08c379a00000000000000000000000000000000000000000000000000000000081526004016103389061188e565b60405180910390fd5b60008282905011610387576040517f08c379a000000000000000000000000000000000000000000000000000000000815260040161037e906118fa565b60405180910390fd5b600080600090505b83839050811015610683576000600360008686858181106103b3576103b261191a565b5b9050602002013581526020019081526020016000206040518060800160405290816000820160009054906101000a900473ffffffffffffffffffffffffffffffffffffffff1673ffffffffffffffffffffffffffffffffffffffff1673ffffffffffffffffffffffffffffffffffffffff16815260200160018201548152602001600282015481526020016003820160009054906101000a900460ff16151515158152505090503373ffffffffffffffffffffffffffffffffffffffff16816000015173ffffffffffffffffffffffffffffffffffffffff16146104cc576040517f08c379a00000000000000000000000000000000000000000000000000000000081526004016104c390611995565b60405180910390fd5b4260025482602001516104df91906119e4565b1061051f576040517f08c379a000000000000000000000000000000000000000000000000000000000815260040161051690611a64565b60405180910390fd5b806060015115610564576040517f08c379a000000000000000000000000000000000000000000000000000000000815260040161055b90611ad0565b60405180910390fd5b600061058886868581811061057c5761057b61191a565b5b905060200201356112bd565b9050600082604001518261059c9190611af0565b90507f000000000000000000000000000000000000000000000000000000000000000073ffffffffffffffffffffffffffffffffffffffff166340c10f1933836040518363ffffffff1660e01b81526004016105f9929190611b24565b600060405180830381600087803b15801561061357600080fd5b505af1158015610627573d6000803e3d6000fd5b50505050808561063791906119e4565b945081600360008989888181106106515761065061191a565b5b90506020020135815260200190815260200160002060020181905550505050808061067b90611b4d565b91505061038f565b503373ffffffffffffffffffffffffffffffffffffffff167f37826be3c26dbad83731f4b985f22fa9ef86b6d1974cd77208332b7f1f283c0c8484846040516106ce93929190611c10565b60405180910390a2505050565b6106e36113c7565b6106ed6000611445565b565b6106f76113c7565b6000811161073a576040517f08c379a000000000000000000000000000000000000000000000000000000000815260040161073190611c8e565b60405180910390fd5b806002819055507f8249ec545e68f6f1e1230133ca48c704d831a7f8e635ded80f3dd9e99b09bb2f81604051610770919061158d565b60405180910390a150565b61079a3373ffffffffffffffffffffffffffffffffffffffff1661129a565b156107da576040517f08c379a00000000000000000000000000000000000000000000000000000000081526004016107d190611822565b60405180910390fd5b3273ffffffffffffffffffffffffffffffffffffffff163373ffffffffffffffffffffffffffffffffffffffff1614610848576040517f08c379a000000000000000000000000000000000000000000000000000000000815260040161083f9061188e565b60405180910390fd5b60026001540361088d576040517f08c379a000000000000000000000000000000000000000000000000000000000815260040161088490611cfa565b60405180910390fd5b6002600181905550600082829050116108db576040517f08c379a00000000000000000000000000000000000000000000000000000000081526004016108d2906118fa565b60405180910390fd5b60005b82829050811015610cb4576000600360008585858181106109025761090161191a565b5b9050602002013581526020019081526020016000206040518060800160405290816000820160009054906101000a900473ffffffffffffffffffffffffffffffffffffffff1673ffffffffffffffffffffffffffffffffffffffff1673ffffffffffffffffffffffffffffffffffffffff16815260200160018201548152602001600282015481526020016003820160009054906101000a900460ff16151515158152505090503373ffffffffffffffffffffffffffffffffffffffff16816000015173ffffffffffffffffffffffffffffffffffffffff1614610a1b576040517f08c379a0000000000000000000000000000000000000000000000000000000008152600401610a1290611995565b60405180910390fd5b426002548260200151610a2e91906119e4565b10610a6e576040517f08c379a0000000000000000000000000000000000000000000000000000000008152600401610a6590611d66565b60405180910390fd5b806060015115610ab3576040517f08c379a0000000000000000000000000000000000000000000000000000000008152600401610aaa90611ad0565b60405180910390fd5b7f000000000000000000000000000000000000000000000000000000000000000073ffffffffffffffffffffffffffffffffffffffff166323b872dd3033878787818110610b0457610b0361191a565b5b905060200201356040518463ffffffff1660e01b8152600401610b2993929190611d86565b600060405180830381600087803b158015610b4357600080fd5b505af1158015610b57573d6000803e3d6000fd5b505050506000610b7f858585818110610b7357610b7261191a565b5b905060200201356112bd565b90506000826040015182610b939190611af0565b90507f000000000000000000000000000000000000000000000000000000000000000073ffffffffffffffffffffffffffffffffffffffff166340c10f1933836040518363ffffffff1660e01b8152600401610bf0929190611b24565b600060405180830381600087803b158015610c0a57600080fd5b505af1158015610c1e573d6000803e3d6000fd5b505050508160036000888888818110610c3a57610c3961191a565b5b90506020020135815260200190815260200160002060020181905550600160036000888888818110610c6f57610c6e61191a565b5b90506020020135815260200190815260200160002060030160006101000a81548160ff0219169083151502179055505050508080610cac90611b4d565b9150506108de565b503373ffffffffffffffffffffffffffffffffffffffff167f5cb48022479b9ac3bfb10a27965dc010acffc9fc1bc9a52f0b18975b944b54ca8383604051610cfd929190611dbd565b60405180910390a2600180819055505050565b60008060009054906101000a900473ffffffffffffffffffffffffffffffffffffffff16905090565b7f000000000000000000000000000000000000000000000000000000000000000081565b60045481565b60055481565b7f000000000000000000000000000000000000000000000000000000000000000081565b610d956113c7565b600073ffffffffffffffffffffffffffffffffffffffff168173ffffffffffffffffffffffffffffffffffffffff1603610e04576040517f08c379a0000000000000000000000000000000000000000000000000000000008152600401610dfb90611e53565b60405180910390fd5b610e0d81611445565b50565b610e2f3373ffffffffffffffffffffffffffffffffffffffff1661129a565b15610e6f576040517f08c379a0000000000000000000000000000000000000000000000000000000008152600401610e6690611822565b60405180910390fd5b3273ffffffffffffffffffffffffffffffffffffffff163373ffffffffffffffffffffffffffffffffffffffff1614610edd576040517f08c379a0000000000000000000000000000000000000000000000000000000008152600401610ed49061188e565b60405180910390fd5b600260015403610f22576040517f08c379a0000000000000000000000000000000000000000000000000000000008152600401610f1990611cfa565b60405180910390fd5b600260018190555060008282905011610f70576040517f08c379a0000000000000000000000000000000000000000000000000000000008152600401610f67906118fa565b60405180910390fd5b60005b8282905081101561123e573373ffffffffffffffffffffffffffffffffffffffff167f000000000000000000000000000000000000000000000000000000000000000073ffffffffffffffffffffffffffffffffffffffff16636352211e858585818110610fe457610fe361191a565b5b905060200201356040518263ffffffff1660e01b8152600401611007919061158d565b602060405180830381865afa158015611024573d6000803e3d6000fd5b505050506040513d601f19601f820116820180604052508101906110489190611e88565b73ffffffffffffffffffffffffffffffffffffffff161461109e576040517f08c379a000000000000000000000000000000000000000000000000000000000815260040161109590611f01565b60405180910390fd5b7f000000000000000000000000000000000000000000000000000000000000000073ffffffffffffffffffffffffffffffffffffffff166323b872dd33308686868181106110ef576110ee61191a565b5b905060200201356040518463ffffffff1660e01b815260040161111493929190611d86565b600060405180830381600087803b15801561112e57600080fd5b505af1158015611142573d6000803e3d6000fd5b5050505060405180608001604052803373ffffffffffffffffffffffffffffffffffffffff1681526020014281526020016000815260200160001515815250600360008585858181106111985761119761191a565b5b90506020020135815260200190815260200160002060008201518160000160006101000a81548173ffffffffffffffffffffffffffffffffffffffff021916908373ffffffffffffffffffffffffffffffffffffffff160217905550602082015181600101556040820151816002015560608201518160030160006101000a81548160ff021916908315150217905550905050808061123690611b4d565b915050610f73565b503373ffffffffffffffffffffffffffffffffffffffff167f458be0227bccc9e803dec79bd16767eeaf9925d2ce708eeed7ae1f3621f968f98383604051611287929190611dbd565b60405180910390a2600180819055505050565b6000808273ffffffffffffffffffffffffffffffffffffffff163b119050919050565b600080600360008481526020019081526020016000206040518060800160405290816000820160009054906101000a900473ffffffffffffffffffffffffffffffffffffffff1673ffffffffffffffffffffffffffffffffffffffff1673ffffffffffffffffffffffffffffffffffffffff16815260200160018201548152602001600282015481526020016003820160009054906101000a900460ff161515151581525050905060008160200151426113779190611af0565b9050600060025482101561139157600093505050506113c2565b600454600254836113a29190611af0565b6005546113af9190611f21565b6113b99190611faa565b90508093505050505b919050565b6113cf611509565b73ffffffffffffffffffffffffffffffffffffffff166113ed610d10565b73ffffffffffffffffffffffffffffffffffffffff1614611443576040517f08c379a000000000000000000000000000000000000000000000000000000000815260040161143a90612027565b60405180910390fd5b565b60008060009054906101000a900473ffffffffffffffffffffffffffffffffffffffff169050816000806101000a81548173ffffffffffffffffffffffffffffffffffffffff021916908373ffffffffffffffffffffffffffffffffffffffff1602179055508173ffffffffffffffffffffffffffffffffffffffff168173ffffffffffffffffffffffffffffffffffffffff167f8be0079c531659141344cd1fd0a4f28419497f9722a3daafe3b4186f6b6457e060405160405180910390a35050565b600033905090565b600080fd5b600080fd5b6000819050919050565b61152e8161151b565b811461153957600080fd5b50565b60008135905061154b81611525565b92915050565b60006020828403121561156757611566611511565b5b60006115758482850161153c565b91505092915050565b6115878161151b565b82525050565b60006020820190506115a2600083018461157e565b92915050565b600080fd5b600080fd5b600080fd5b60008083601f8401126115cd576115cc6115a8565b5b8235905067ffffffffffffffff8111156115ea576115e96115ad565b5b602083019150836020820283011115611606576116056115b2565b5b9250929050565b6000806020838503121561162457611623611511565b5b600083013567ffffffffffffffff81111561164257611641611516565b5b61164e858286016115b7565b92509250509250929050565b600073ffffffffffffffffffffffffffffffffffffffff82169050919050565b60006116858261165a565b9050919050565b6116958161167a565b82525050565b60006020820190506116b0600083018461168c565b92915050565b6000819050919050565b60006116db6116d66116d18461165a565b6116b6565b61165a565b9050919050565b60006116ed826116c0565b9050919050565b60006116ff826116e2565b9050919050565b61170f816116f4565b82525050565b600060208201905061172a6000830184611706565b92915050565b600061173b826116e2565b9050919050565b61174b81611730565b82525050565b60006020820190506117666000830184611742565b92915050565b6117758161167a565b811461178057600080fd5b50565b6000813590506117928161176c565b92915050565b6000602082840312156117ae576117ad611511565b5b60006117bc84828501611783565b91505092915050565b600082825260208201905092915050565b7f436f6e7472616374206e6f7420616c6c6f776564000000000000000000000000600082015250565b600061180c6014836117c5565b9150611817826117d6565b602082019050919050565b6000602082019050818103600083015261183b816117ff565b9050919050565b7f50726f787920636f6e7472616374206e6f7420616c6c6f776564000000000000600082015250565b6000611878601a836117c5565b915061188382611842565b602082019050919050565b600060208201905081810360008301526118a78161186b565b9050919050565b7f4e6f20746f6b656e730000000000000000000000000000000000000000000000600082015250565b60006118e46009836117c5565b91506118ef826118ae565b602082019050919050565b60006020820190508181036000830152611913816118d7565b9050919050565b7f4e487b7100000000000000000000000000000000000000000000000000000000600052603260045260246000fd5b7f4e6f74206120746f6b656e206f776e6572000000000000000000000000000000600082015250565b600061197f6011836117c5565b915061198a82611949565b602082019050919050565b600060208201905081810360008301526119ae81611972565b9050919050565b7f4e487b7100000000000000000000000000000000000000000000000000000000600052601160045260246000fd5b60006119ef8261151b565b91506119fa8361151b565b9250828201905080821115611a1257611a116119b5565b5b92915050565b7f4e6f742061626c6520746f20636c61696d207965740000000000000000000000600082015250565b6000611a4e6015836117c5565b9150611a5982611a18565b602082019050919050565b60006020820190508181036000830152611a7d81611a41565b9050919050565b7f416c726561647920756e6c6f636b656400000000000000000000000000000000600082015250565b6000611aba6010836117c5565b9150611ac582611a84565b602082019050919050565b60006020820190508181036000830152611ae981611aad565b9050919050565b6000611afb8261151b565b9150611b068361151b565b9250828203905081811115611b1e57611b1d6119b5565b5b92915050565b6000604082019050611b39600083018561168c565b611b46602083018461157e565b9392505050565b6000611b588261151b565b91507fffffffffffffffffffffffffffffffffffffffffffffffffffffffffffffffff8203611b8a57611b896119b5565b5b600182019050919050565b600082825260208201905092915050565b600080fd5b82818337505050565b6000611bc08385611b95565b93507f07ffffffffffffffffffffffffffffffffffffffffffffffffffffffffffffff831115611bf357611bf2611ba6565b5b602083029250611c04838584611bab565b82840190509392505050565b60006040820190508181036000830152611c2b818587611bb4565b9050611c3a602083018461157e565b949350505050565b7f496e76616c6964206c6f636b20706572696f642e000000000000000000000000600082015250565b6000611c786014836117c5565b9150611c8382611c42565b602082019050919050565b60006020820190508181036000830152611ca781611c6b565b9050919050565b7f5265656e7472616e637947756172643a207265656e7472616e742063616c6c00600082015250565b6000611ce4601f836117c5565b9150611cef82611cae565b602082019050919050565b60006020820190508181036000830152611d1381611cd7565b9050919050565b7f4e6f742061626c6520746f20756e6c6f636b2079657400000000000000000000600082015250565b6000611d506016836117c5565b9150611d5b82611d1a565b602082019050919050565b60006020820190508181036000830152611d7f81611d43565b9050919050565b6000606082019050611d9b600083018661168c565b611da8602083018561168c565b611db5604083018461157e565b949350505050565b60006020820190508181036000830152611dd8818486611bb4565b90509392505050565b7f4f776e61626c653a206e6577206f776e657220697320746865207a65726f206160008201527f6464726573730000000000000000000000000000000000000000000000000000602082015250565b6000611e3d6026836117c5565b9150611e4882611de1565b604082019050919050565b60006020820190508181036000830152611e6c81611e30565b9050919050565b600081519050611e828161176c565b92915050565b600060208284031215611e9e57611e9d611511565b5b6000611eac84828501611e73565b91505092915050565b7f596f7520646f6e277420686f6c64207468697320746f6b656e00000000000000600082015250565b6000611eeb6019836117c5565b9150611ef682611eb5565b602082019050919050565b60006020820190508181036000830152611f1a81611ede565b9050919050565b6000611f2c8261151b565b9150611f378361151b565b9250817fffffffffffffffffffffffffffffffffffffffffffffffffffffffffffffffff0483118215151615611f7057611f6f6119b5565b5b828202905092915050565b7f4e487b7100000000000000000000000000000000000000000000000000000000600052601260045260246000fd5b6000611fb58261151b565b9150611fc08361151b565b925082611fd057611fcf611f7b565b5b828204905092915050565b7f4f776e61626c653a2063616c6c6572206973206e6f7420746865206f776e6572600082015250565b60006120116020836117c5565b915061201c82611fdb565b602082019050919050565b6000602082019050818103600083015261204081612004565b905091905056fea2646970667358221220d159a3575c950bff41cc2cc4a81f321d2a713ba3215f75fa14a98516c3f0d20864736f6c63430008100033",
					"opcodes": "PUSH1 0xC0 PUSH1 0x40 MSTORE CALLVALUE DUP1 ISZERO PUSH3 0x11 JUMPI PUSH1 0x0 DUP1 REVERT JUMPDEST POP PUSH1 0x40 MLOAD PUSH3 0x2875 CODESIZE SUB DUP1 PUSH3 0x2875 DUP4 CODECOPY DUP2 DUP2 ADD PUSH1 0x40 MSTORE DUP2 ADD SWAP1 PUSH3 0x37 SWAP2 SWAP1 PUSH3 0x446 JUMP JUMPDEST PUSH3 0x57 PUSH3 0x4B PUSH3 0x2D5 PUSH1 0x20 SHL PUSH1 0x20 SHR JUMP JUMPDEST PUSH3 0x2DD PUSH1 0x20 SHL PUSH1 0x20 SHR JUMP JUMPDEST PUSH1 0x1 DUP1 DUP2 SWAP1 SSTORE POP PUSH1 0x0 PUSH20 0xFFFFFFFFFFFFFFFFFFFFFFFFFFFFFFFFFFFFFFFF AND DUP5 PUSH20 0xFFFFFFFFFFFFFFFFFFFFFFFFFFFFFFFFFFFFFFFF AND SUB PUSH3 0xD0 JUMPI PUSH1 0x40 MLOAD PUSH32 0x8C379A000000000000000000000000000000000000000000000000000000000 DUP2 MSTORE PUSH1 0x4 ADD PUSH3 0xC7 SWAP1 PUSH3 0x52F JUMP JUMPDEST PUSH1 0x40 MLOAD DUP1 SWAP2 SUB SWAP1 REVERT JUMPDEST PUSH1 0x0 PUSH20 0xFFFFFFFFFFFFFFFFFFFFFFFFFFFFFFFFFFFFFFFF AND DUP6 PUSH20 0xFFFFFFFFFFFFFFFFFFFFFFFFFFFFFFFFFFFFFFFF AND SUB PUSH3 0x142 JUMPI PUSH1 0x40 MLOAD PUSH32 0x8C379A000000000000000000000000000000000000000000000000000000000 DUP2 MSTORE PUSH1 0x4 ADD PUSH3 0x139 SWAP1 PUSH3 0x5A1 JUMP JUMPDEST PUSH1 0x40 MLOAD DUP1 SWAP2 SUB SWAP1 REVERT JUMPDEST DUP5 PUSH20 0xFFFFFFFFFFFFFFFFFFFFFFFFFFFFFFFFFFFFFFFF AND PUSH4 0x1FFC9A7 PUSH4 0x80AC58CD PUSH1 0x40 MLOAD DUP3 PUSH4 0xFFFFFFFF AND PUSH1 0xE0 SHL DUP2 MSTORE PUSH1 0x4 ADD PUSH3 0x181 SWAP2 SWAP1 PUSH3 0x63F JUMP JUMPDEST PUSH1 0x20 PUSH1 0x40 MLOAD DUP1 DUP4 SUB DUP2 DUP7 GAS STATICCALL ISZERO DUP1 ISZERO PUSH3 0x19F JUMPI RETURNDATASIZE PUSH1 0x0 DUP1 RETURNDATACOPY RETURNDATASIZE PUSH1 0x0 REVERT JUMPDEST POP POP POP POP PUSH1 0x40 MLOAD RETURNDATASIZE PUSH1 0x1F NOT PUSH1 0x1F DUP3 ADD AND DUP3 ADD DUP1 PUSH1 0x40 MSTORE POP DUP2 ADD SWAP1 PUSH3 0x1C5 SWAP2 SWAP1 PUSH3 0x699 JUMP JUMPDEST PUSH3 0x207 JUMPI PUSH1 0x40 MLOAD PUSH32 0x8C379A000000000000000000000000000000000000000000000000000000000 DUP2 MSTORE PUSH1 0x4 ADD PUSH3 0x1FE SWAP1 PUSH3 0x71B JUMP JUMPDEST PUSH1 0x40 MLOAD DUP1 SWAP2 SUB SWAP1 REVERT JUMPDEST PUSH1 0x0 DUP4 GT PUSH3 0x24D JUMPI PUSH1 0x40 MLOAD PUSH32 0x8C379A000000000000000000000000000000000000000000000000000000000 DUP2 MSTORE PUSH1 0x4 ADD PUSH3 0x244 SWAP1 PUSH3 0x78D JUMP JUMPDEST PUSH1 0x40 MLOAD DUP1 SWAP2 SUB SWAP1 REVERT JUMPDEST DUP4 PUSH20 0xFFFFFFFFFFFFFFFFFFFFFFFFFFFFFFFFFFFFFFFF AND PUSH1 0x80 DUP2 PUSH20 0xFFFFFFFFFFFFFFFFFFFFFFFFFFFFFFFFFFFFFFFF AND DUP2 MSTORE POP POP DUP5 PUSH20 0xFFFFFFFFFFFFFFFFFFFFFFFFFFFFFFFFFFFFFFFF AND PUSH1 0xA0 DUP2 PUSH20 0xFFFFFFFFFFFFFFFFFFFFFFFFFFFFFFFFFFFFFFFF AND DUP2 MSTORE POP POP DUP3 PUSH1 0x2 DUP2 SWAP1 SSTORE POP DUP2 PUSH1 0x5 DUP2 SWAP1 SSTORE POP DUP1 PUSH1 0x4 DUP2 SWAP1 SSTORE POP POP POP POP POP POP PUSH3 0x7AF JUMP JUMPDEST PUSH1 0x0 CALLER SWAP1 POP SWAP1 JUMP JUMPDEST PUSH1 0x0 DUP1 PUSH1 0x0 SWAP1 SLOAD SWAP1 PUSH2 0x100 EXP SWAP1 DIV PUSH20 0xFFFFFFFFFFFFFFFFFFFFFFFFFFFFFFFFFFFFFFFF AND SWAP1 POP DUP2 PUSH1 0x0 DUP1 PUSH2 0x100 EXP DUP2 SLOAD DUP2 PUSH20 0xFFFFFFFFFFFFFFFFFFFFFFFFFFFFFFFFFFFFFFFF MUL NOT AND SWAP1 DUP4 PUSH20 0xFFFFFFFFFFFFFFFFFFFFFFFFFFFFFFFFFFFFFFFF AND MUL OR SWAP1 SSTORE POP DUP2 PUSH20 0xFFFFFFFFFFFFFFFFFFFFFFFFFFFFFFFFFFFFFFFF AND DUP2 PUSH20 0xFFFFFFFFFFFFFFFFFFFFFFFFFFFFFFFFFFFFFFFF AND PUSH32 0x8BE0079C531659141344CD1FD0A4F28419497F9722A3DAAFE3B4186F6B6457E0 PUSH1 0x40 MLOAD PUSH1 0x40 MLOAD DUP1 SWAP2 SUB SWAP1 LOG3 POP POP JUMP JUMPDEST PUSH1 0x0 DUP1 REVERT JUMPDEST PUSH1 0x0 PUSH20 0xFFFFFFFFFFFFFFFFFFFFFFFFFFFFFFFFFFFFFFFF DUP3 AND SWAP1 POP SWAP2 SWAP1 POP JUMP JUMPDEST PUSH1 0x0 PUSH3 0x3D3 DUP3 PUSH3 0x3A6 JUMP JUMPDEST SWAP1 POP SWAP2 SWAP1 POP JUMP JUMPDEST PUSH3 0x3E5 DUP2 PUSH3 0x3C6 JUMP JUMPDEST DUP2 EQ PUSH3 0x3F1 JUMPI PUSH1 0x0 DUP1 REVERT JUMPDEST POP JUMP JUMPDEST PUSH1 0x0 DUP2 MLOAD SWAP1 POP PUSH3 0x405 DUP2 PUSH3 0x3DA JUMP JUMPDEST SWAP3 SWAP2 POP POP JUMP JUMPDEST PUSH1 0x0 DUP2 SWAP1 POP SWAP2 SWAP1 POP JUMP JUMPDEST PUSH3 0x420 DUP2 PUSH3 0x40B JUMP JUMPDEST DUP2 EQ PUSH3 0x42C JUMPI PUSH1 0x0 DUP1 REVERT JUMPDEST POP JUMP JUMPDEST PUSH1 0x0 DUP2 MLOAD SWAP1 POP PUSH3 0x440 DUP2 PUSH3 0x415 JUMP JUMPDEST SWAP3 SWAP2 POP POP JUMP JUMPDEST PUSH1 0x0 DUP1 PUSH1 0x0 DUP1 PUSH1 0x0 PUSH1 0xA0 DUP7 DUP9 SUB SLT ISZERO PUSH3 0x465 JUMPI PUSH3 0x464 PUSH3 0x3A1 JUMP JUMPDEST JUMPDEST PUSH1 0x0 PUSH3 0x475 DUP9 DUP3 DUP10 ADD PUSH3 0x3F4 JUMP JUMPDEST SWAP6 POP POP PUSH1 0x20 PUSH3 0x488 DUP9 DUP3 DUP10 ADD PUSH3 0x3F4 JUMP JUMPDEST SWAP5 POP POP PUSH1 0x40 PUSH3 0x49B DUP9 DUP3 DUP10 ADD PUSH3 0x42F JUMP JUMPDEST SWAP4 POP POP PUSH1 0x60 PUSH3 0x4AE DUP9 DUP3 DUP10 ADD PUSH3 0x42F JUMP JUMPDEST SWAP3 POP POP PUSH1 0x80 PUSH3 0x4C1 DUP9 DUP3 DUP10 ADD PUSH3 0x42F JUMP JUMPDEST SWAP2 POP POP SWAP3 SWAP6 POP SWAP3 SWAP6 SWAP1 SWAP4 POP JUMP JUMPDEST PUSH1 0x0 DUP3 DUP3 MSTORE PUSH1 0x20 DUP3 ADD SWAP1 POP SWAP3 SWAP2 POP POP JUMP JUMPDEST PUSH32 0x496E76616C69642072657761726420746F6B656E000000000000000000000000 PUSH1 0x0 DUP3 ADD MSTORE POP JUMP JUMPDEST PUSH1 0x0 PUSH3 0x517 PUSH1 0x14 DUP4 PUSH3 0x4CE JUMP JUMPDEST SWAP2 POP PUSH3 0x524 DUP3 PUSH3 0x4DF JUMP JUMPDEST PUSH1 0x20 DUP3 ADD SWAP1 POP SWAP2 SWAP1 POP JUMP JUMPDEST PUSH1 0x0 PUSH1 0x20 DUP3 ADD SWAP1 POP DUP2 DUP2 SUB PUSH1 0x0 DUP4 ADD MSTORE PUSH3 0x54A DUP2 PUSH3 0x508 JUMP JUMPDEST SWAP1 POP SWAP2 SWAP1 POP JUMP JUMPDEST PUSH32 0x496E76616C6964207374616B65204E4654000000000000000000000000000000 PUSH1 0x0 DUP3 ADD MSTORE POP JUMP JUMPDEST PUSH1 0x0 PUSH3 0x589 PUSH1 0x11 DUP4 PUSH3 0x4CE JUMP JUMPDEST SWAP2 POP PUSH3 0x596 DUP3 PUSH3 0x551 JUMP JUMPDEST PUSH1 0x20 DUP3 ADD SWAP1 POP SWAP2 SWAP1 POP JUMP JUMPDEST PUSH1 0x0 PUSH1 0x20 DUP3 ADD SWAP1 POP DUP2 DUP2 SUB PUSH1 0x0 DUP4 ADD MSTORE PUSH3 0x5BC DUP2 PUSH3 0x57A JUMP JUMPDEST SWAP1 POP SWAP2 SWAP1 POP JUMP JUMPDEST PUSH1 0x0 DUP2 SWAP1 POP SWAP2 SWAP1 POP JUMP JUMPDEST PUSH1 0x0 PUSH32 0xFFFFFFFF00000000000000000000000000000000000000000000000000000000 DUP3 AND SWAP1 POP SWAP2 SWAP1 POP JUMP JUMPDEST PUSH1 0x0 DUP2 PUSH1 0xE0 SHL SWAP1 POP SWAP2 SWAP1 POP JUMP JUMPDEST PUSH1 0x0 PUSH3 0x627 PUSH3 0x621 PUSH3 0x61B DUP5 PUSH3 0x5C3 JUMP JUMPDEST PUSH3 0x5F9 JUMP JUMPDEST PUSH3 0x5CD JUMP JUMPDEST SWAP1 POP SWAP2 SWAP1 POP JUMP JUMPDEST PUSH3 0x639 DUP2 PUSH3 0x606 JUMP JUMPDEST DUP3 MSTORE POP POP JUMP JUMPDEST PUSH1 0x0 PUSH1 0x20 DUP3 ADD SWAP1 POP PUSH3 0x656 PUSH1 0x0 DUP4 ADD DUP5 PUSH3 0x62E JUMP JUMPDEST SWAP3 SWAP2 POP POP JUMP JUMPDEST PUSH1 0x0 DUP2 ISZERO ISZERO SWAP1 POP SWAP2 SWAP1 POP JUMP JUMPDEST PUSH3 0x673 DUP2 PUSH3 0x65C JUMP JUMPDEST DUP2 EQ PUSH3 0x67F JUMPI PUSH1 0x0 DUP1 REVERT JUMPDEST POP JUMP JUMPDEST PUSH1 0x0 DUP2 MLOAD SWAP1 POP PUSH3 0x693 DUP2 PUSH3 0x668 JUMP JUMPDEST SWAP3 SWAP2 POP POP JUMP JUMPDEST PUSH1 0x0 PUSH1 0x20 DUP3 DUP5 SUB SLT ISZERO PUSH3 0x6B2 JUMPI PUSH3 0x6B1 PUSH3 0x3A1 JUMP JUMPDEST JUMPDEST PUSH1 0x0 PUSH3 0x6C2 DUP5 DUP3 DUP6 ADD PUSH3 0x682 JUMP JUMPDEST SWAP2 POP POP SWAP3 SWAP2 POP POP JUMP JUMPDEST PUSH32 0x4E6F6E2D65726337323100000000000000000000000000000000000000000000 PUSH1 0x0 DUP3 ADD MSTORE POP JUMP JUMPDEST PUSH1 0x0 PUSH3 0x703 PUSH1 0xA DUP4 PUSH3 0x4CE JUMP JUMPDEST SWAP2 POP PUSH3 0x710 DUP3 PUSH3 0x6CB JUMP JUMPDEST PUSH1 0x20 DUP3 ADD SWAP1 POP SWAP2 SWAP1 POP JUMP JUMPDEST PUSH1 0x0 PUSH1 0x20 DUP3 ADD SWAP1 POP DUP2 DUP2 SUB PUSH1 0x0 DUP4 ADD MSTORE PUSH3 0x736 DUP2 PUSH3 0x6F4 JUMP JUMPDEST SWAP1 POP SWAP2 SWAP1 POP JUMP JUMPDEST PUSH32 0x496E76616C6964206C6F636B20706572696F6400000000000000000000000000 PUSH1 0x0 DUP3 ADD MSTORE POP JUMP JUMPDEST PUSH1 0x0 PUSH3 0x775 PUSH1 0x13 DUP4 PUSH3 0x4CE JUMP JUMPDEST SWAP2 POP PUSH3 0x782 DUP3 PUSH3 0x73D JUMP JUMPDEST PUSH1 0x20 DUP3 ADD SWAP1 POP SWAP2 SWAP1 POP JUMP JUMPDEST PUSH1 0x0 PUSH1 0x20 DUP3 ADD SWAP1 POP DUP2 DUP2 SUB PUSH1 0x0 DUP4 ADD MSTORE PUSH3 0x7A8 DUP2 PUSH3 0x766 JUMP JUMPDEST SWAP1 POP SWAP2 SWAP1 POP JUMP JUMPDEST PUSH1 0x80 MLOAD PUSH1 0xA0 MLOAD PUSH2 0x207D PUSH3 0x7F8 PUSH1 0x0 CODECOPY PUSH1 0x0 DUP2 DUP2 PUSH2 0xAB5 ADD MSTORE DUP2 DUP2 PUSH2 0xD3B ADD MSTORE DUP2 DUP2 PUSH2 0xF97 ADD MSTORE PUSH2 0x10A0 ADD MSTORE PUSH1 0x0 DUP2 DUP2 PUSH2 0x5A0 ADD MSTORE DUP2 DUP2 PUSH2 0xB97 ADD MSTORE PUSH2 0xD6B ADD MSTORE PUSH2 0x207D PUSH1 0x0 RETURN INVALID PUSH1 0x80 PUSH1 0x40 MSTORE CALLVALUE DUP1 ISZERO PUSH2 0x10 JUMPI PUSH1 0x0 DUP1 REVERT JUMPDEST POP PUSH1 0x4 CALLDATASIZE LT PUSH2 0xCF JUMPI PUSH1 0x0 CALLDATALOAD PUSH1 0xE0 SHR DUP1 PUSH4 0x8DA5CB5B GT PUSH2 0x8C JUMPI DUP1 PUSH4 0xCB12F660 GT PUSH2 0x66 JUMPI DUP1 PUSH4 0xCB12F660 EQ PUSH2 0x1DA JUMPI DUP1 PUSH4 0xD1AF0C7D EQ PUSH2 0x1F8 JUMPI DUP1 PUSH4 0xF2FDE38B EQ PUSH2 0x216 JUMPI DUP1 PUSH4 0xFF5D8450 EQ PUSH2 0x232 JUMPI PUSH2 0xCF JUMP JUMPDEST DUP1 PUSH4 0x8DA5CB5B EQ PUSH2 0x180 JUMPI DUP1 PUSH4 0xB48509E6 EQ PUSH2 0x19E JUMPI DUP1 PUSH4 0xC69D1923 EQ PUSH2 0x1BC JUMPI PUSH2 0xCF JUMP JUMPDEST DUP1 PUSH4 0x20281A98 EQ PUSH2 0xD4 JUMPI DUP1 PUSH4 0x3FD8B02F EQ PUSH2 0x104 JUMPI DUP1 PUSH4 0x5EAC6239 EQ PUSH2 0x122 JUMPI DUP1 PUSH4 0x715018A6 EQ PUSH2 0x13E JUMPI DUP1 PUSH4 0x779972DA EQ PUSH2 0x148 JUMPI DUP1 PUSH4 0x849A1E1D EQ PUSH2 0x164 JUMPI JUMPDEST PUSH1 0x0 DUP1 REVERT JUMPDEST PUSH2 0xEE PUSH1 0x4 DUP1 CALLDATASIZE SUB DUP2 ADD SWAP1 PUSH2 0xE9 SWAP2 SWAP1 PUSH2 0x1551 JUMP JUMPDEST PUSH2 0x24E JUMP JUMPDEST PUSH1 0x40 MLOAD PUSH2 0xFB SWAP2 SWAP1 PUSH2 0x158D JUMP JUMPDEST PUSH1 0x40 MLOAD DUP1 SWAP2 SUB SWAP1 RETURN JUMPDEST PUSH2 0x10C PUSH2 0x26E JUMP JUMPDEST PUSH1 0x40 MLOAD PUSH2 0x119 SWAP2 SWAP1 PUSH2 0x158D JUMP JUMPDEST PUSH1 0x40 MLOAD DUP1 SWAP2 SUB SWAP1 RETURN JUMPDEST PUSH2 0x13C PUSH1 0x4 DUP1 CALLDATASIZE SUB DUP2 ADD SWAP1 PUSH2 0x137 SWAP2 SWAP1 PUSH2 0x160D JUMP JUMPDEST PUSH2 0x274 JUMP JUMPDEST STOP JUMPDEST PUSH2 0x146 PUSH2 0x6DB JUMP JUMPDEST STOP JUMPDEST PUSH2 0x162 PUSH1 0x4 DUP1 CALLDATASIZE SUB DUP2 ADD SWAP1 PUSH2 0x15D SWAP2 SWAP1 PUSH2 0x1551 JUMP JUMPDEST PUSH2 0x6EF JUMP JUMPDEST STOP JUMPDEST PUSH2 0x17E PUSH1 0x4 DUP1 CALLDATASIZE SUB DUP2 ADD SWAP1 PUSH2 0x179 SWAP2 SWAP1 PUSH2 0x160D JUMP JUMPDEST PUSH2 0x77B JUMP JUMPDEST STOP JUMPDEST PUSH2 0x188 PUSH2 0xD10 JUMP JUMPDEST PUSH1 0x40 MLOAD PUSH2 0x195 SWAP2 SWAP1 PUSH2 0x169B JUMP JUMPDEST PUSH1 0x40 MLOAD DUP1 SWAP2 SUB SWAP1 RETURN JUMPDEST PUSH2 0x1A6 PUSH2 0xD39 JUMP JUMPDEST PUSH1 0x40 MLOAD PUSH2 0x1B3 SWAP2 SWAP1 PUSH2 0x1715 JUMP JUMPDEST PUSH1 0x40 MLOAD DUP1 SWAP2 SUB SWAP1 RETURN JUMPDEST PUSH2 0x1C4 PUSH2 0xD5D JUMP JUMPDEST PUSH1 0x40 MLOAD PUSH2 0x1D1 SWAP2 SWAP1 PUSH2 0x158D JUMP JUMPDEST PUSH1 0x40 MLOAD DUP1 SWAP2 SUB SWAP1 RETURN JUMPDEST PUSH2 0x1E2 PUSH2 0xD63 JUMP JUMPDEST PUSH1 0x40 MLOAD PUSH2 0x1EF SWAP2 SWAP1 PUSH2 0x158D JUMP JUMPDEST PUSH1 0x40 MLOAD DUP1 SWAP2 SUB SWAP1 RETURN JUMPDEST PUSH2 0x200 PUSH2 0xD69 JUMP JUMPDEST PUSH1 0x40 MLOAD PUSH2 0x20D SWAP2 SWAP1 PUSH2 0x1751 JUMP JUMPDEST PUSH1 0x40 MLOAD DUP1 SWAP2 SUB SWAP1 RETURN JUMPDEST PUSH2 0x230 PUSH1 0x4 DUP1 CALLDATASIZE SUB DUP2 ADD SWAP1 PUSH2 0x22B SWAP2 SWAP1 PUSH2 0x1798 JUMP JUMPDEST PUSH2 0xD8D JUMP JUMPDEST STOP JUMPDEST PUSH2 0x24C PUSH1 0x4 DUP1 CALLDATASIZE SUB DUP2 ADD SWAP1 PUSH2 0x247 SWAP2 SWAP1 PUSH2 0x160D JUMP JUMPDEST PUSH2 0xE10 JUMP JUMPDEST STOP JUMPDEST PUSH1 0x0 PUSH1 0x3 PUSH1 0x0 DUP4 DUP2 MSTORE PUSH1 0x20 ADD SWAP1 DUP2 MSTORE PUSH1 0x20 ADD PUSH1 0x0 KECCAK256 PUSH1 0x2 ADD SLOAD SWAP1 POP SWAP2 SWAP1 POP JUMP JUMPDEST PUSH1 0x2 SLOAD DUP2 JUMP JUMPDEST PUSH2 0x293 CALLER PUSH20 0xFFFFFFFFFFFFFFFFFFFFFFFFFFFFFFFFFFFFFFFF AND PUSH2 0x129A JUMP JUMPDEST ISZERO PUSH2 0x2D3 JUMPI PUSH1 0x40 MLOAD PUSH32 0x8C379A000000000000000000000000000000000000000000000000000000000 DUP2 MSTORE PUSH1 0x4 ADD PUSH2 0x2CA SWAP1 PUSH2 0x1822 JUMP JUMPDEST PUSH1 0x40 MLOAD DUP1 SWAP2 SUB SWAP1 REVERT JUMPDEST ORIGIN PUSH20 0xFFFFFFFFFFFFFFFFFFFFFFFFFFFFFFFFFFFFFFFF AND CALLER PUSH20 0xFFFFFFFFFFFFFFFFFFFFFFFFFFFFFFFFFFFFFFFF AND EQ PUSH2 0x341 JUMPI PUSH1 0x40 MLOAD PUSH32 0x8C379A000000000000000000000000000000000000000000000000000000000 DUP2 MSTORE PUSH1 0x4 ADD PUSH2 0x338 SWAP1 PUSH2 0x188E JUMP JUMPDEST PUSH1 0x40 MLOAD DUP1 SWAP2 SUB SWAP1 REVERT JUMPDEST PUSH1 0x0 DUP3 DUP3 SWAP1 POP GT PUSH2 0x387 JUMPI PUSH1 0x40 MLOAD PUSH32 0x8C379A000000000000000000000000000000000000000000000000000000000 DUP2 MSTORE PUSH1 0x4 ADD PUSH2 0x37E SWAP1 PUSH2 0x18FA JUMP JUMPDEST PUSH1 0x40 MLOAD DUP1 SWAP2 SUB SWAP1 REVERT JUMPDEST PUSH1 0x0 DUP1 PUSH1 0x0 SWAP1 POP JUMPDEST DUP4 DUP4 SWAP1 POP DUP2 LT ISZERO PUSH2 0x683 JUMPI PUSH1 0x0 PUSH1 0x3 PUSH1 0x0 DUP7 DUP7 DUP6 DUP2 DUP2 LT PUSH2 0x3B3 JUMPI PUSH2 0x3B2 PUSH2 0x191A JUMP JUMPDEST JUMPDEST SWAP1 POP PUSH1 0x20 MUL ADD CALLDATALOAD DUP2 MSTORE PUSH1 0x20 ADD SWAP1 DUP2 MSTORE PUSH1 0x20 ADD PUSH1 0x0 KECCAK256 PUSH1 0x40 MLOAD DUP1 PUSH1 0x80 ADD PUSH1 0x40 MSTORE SWAP1 DUP2 PUSH1 0x0 DUP3 ADD PUSH1 0x0 SWAP1 SLOAD SWAP1 PUSH2 0x100 EXP SWAP1 DIV PUSH20 0xFFFFFFFFFFFFFFFFFFFFFFFFFFFFFFFFFFFFFFFF AND PUSH20 0xFFFFFFFFFFFFFFFFFFFFFFFFFFFFFFFFFFFFFFFF AND PUSH20 0xFFFFFFFFFFFFFFFFFFFFFFFFFFFFFFFFFFFFFFFF AND DUP2 MSTORE PUSH1 0x20 ADD PUSH1 0x1 DUP3 ADD SLOAD DUP2 MSTORE PUSH1 0x20 ADD PUSH1 0x2 DUP3 ADD SLOAD DUP2 MSTORE PUSH1 0x20 ADD PUSH1 0x3 DUP3 ADD PUSH1 0x0 SWAP1 SLOAD SWAP1 PUSH2 0x100 EXP SWAP1 DIV PUSH1 0xFF AND ISZERO ISZERO ISZERO ISZERO DUP2 MSTORE POP POP SWAP1 POP CALLER PUSH20 0xFFFFFFFFFFFFFFFFFFFFFFFFFFFFFFFFFFFFFFFF AND DUP2 PUSH1 0x0 ADD MLOAD PUSH20 0xFFFFFFFFFFFFFFFFFFFFFFFFFFFFFFFFFFFFFFFF AND EQ PUSH2 0x4CC JUMPI PUSH1 0x40 MLOAD PUSH32 0x8C379A000000000000000000000000000000000000000000000000000000000 DUP2 MSTORE PUSH1 0x4 ADD PUSH2 0x4C3 SWAP1 PUSH2 0x1995 JUMP JUMPDEST PUSH1 0x40 MLOAD DUP1 SWAP2 SUB SWAP1 REVERT JUMPDEST TIMESTAMP PUSH1 0x2 SLOAD DUP3 PUSH1 0x20 ADD MLOAD PUSH2 0x4DF SWAP2 SWAP1 PUSH2 0x19E4 JUMP JUMPDEST LT PUSH2 0x51F JUMPI PUSH1 0x40 MLOAD PUSH32 0x8C379A000000000000000000000000000000000000000000000000000000000 DUP2 MSTORE PUSH1 0x4 ADD PUSH2 0x516 SWAP1 PUSH2 0x1A64 JUMP JUMPDEST PUSH1 0x40 MLOAD DUP1 SWAP2 SUB SWAP1 REVERT JUMPDEST DUP1 PUSH1 0x60 ADD MLOAD ISZERO PUSH2 0x564 JUMPI PUSH1 0x40 MLOAD PUSH32 0x8C379A000000000000000000000000000000000000000000000000000000000 DUP2 MSTORE PUSH1 0x4 ADD PUSH2 0x55B SWAP1 PUSH2 0x1AD0 JUMP JUMPDEST PUSH1 0x40 MLOAD DUP1 SWAP2 SUB SWAP1 REVERT JUMPDEST PUSH1 0x0 PUSH2 0x588 DUP7 DUP7 DUP6 DUP2 DUP2 LT PUSH2 0x57C JUMPI PUSH2 0x57B PUSH2 0x191A JUMP JUMPDEST JUMPDEST SWAP1 POP PUSH1 0x20 MUL ADD CALLDATALOAD PUSH2 0x12BD JUMP JUMPDEST SWAP1 POP PUSH1 0x0 DUP3 PUSH1 0x40 ADD MLOAD DUP3 PUSH2 0x59C SWAP2 SWAP1 PUSH2 0x1AF0 JUMP JUMPDEST SWAP1 POP PUSH32 0x0 PUSH20 0xFFFFFFFFFFFFFFFFFFFFFFFFFFFFFFFFFFFFFFFF AND PUSH4 0x40C10F19 CALLER DUP4 PUSH1 0x40 MLOAD DUP4 PUSH4 0xFFFFFFFF AND PUSH1 0xE0 SHL DUP2 MSTORE PUSH1 0x4 ADD PUSH2 0x5F9 SWAP3 SWAP2 SWAP1 PUSH2 0x1B24 JUMP JUMPDEST PUSH1 0x0 PUSH1 0x40 MLOAD DUP1 DUP4 SUB DUP2 PUSH1 0x0 DUP8 DUP1 EXTCODESIZE ISZERO DUP1 ISZERO PUSH2 0x613 JUMPI PUSH1 0x0 DUP1 REVERT JUMPDEST POP GAS CALL ISZERO DUP1 ISZERO PUSH2 0x627 JUMPI RETURNDATASIZE PUSH1 0x0 DUP1 RETURNDATACOPY RETURNDATASIZE PUSH1 0x0 REVERT JUMPDEST POP POP POP POP DUP1 DUP6 PUSH2 0x637 SWAP2 SWAP1 PUSH2 0x19E4 JUMP JUMPDEST SWAP5 POP DUP2 PUSH1 0x3 PUSH1 0x0 DUP10 DUP10 DUP9 DUP2 DUP2 LT PUSH2 0x651 JUMPI PUSH2 0x650 PUSH2 0x191A JUMP JUMPDEST JUMPDEST SWAP1 POP PUSH1 0x20 MUL ADD CALLDATALOAD DUP2 MSTORE PUSH1 0x20 ADD SWAP1 DUP2 MSTORE PUSH1 0x20 ADD PUSH1 0x0 KECCAK256 PUSH1 0x2 ADD DUP2 SWAP1 SSTORE POP POP POP POP DUP1 DUP1 PUSH2 0x67B SWAP1 PUSH2 0x1B4D JUMP JUMPDEST SWAP2 POP POP PUSH2 0x38F JUMP JUMPDEST POP CALLER PUSH20 0xFFFFFFFFFFFFFFFFFFFFFFFFFFFFFFFFFFFFFFFF AND PUSH32 0x37826BE3C26DBAD83731F4B985F22FA9EF86B6D1974CD77208332B7F1F283C0C DUP5 DUP5 DUP5 PUSH1 0x40 MLOAD PUSH2 0x6CE SWAP4 SWAP3 SWAP2 SWAP1 PUSH2 0x1C10 JUMP JUMPDEST PUSH1 0x40 MLOAD DUP1 SWAP2 SUB SWAP1 LOG2 POP POP POP JUMP JUMPDEST PUSH2 0x6E3 PUSH2 0x13C7 JUMP JUMPDEST PUSH2 0x6ED PUSH1 0x0 PUSH2 0x1445 JUMP JUMPDEST JUMP JUMPDEST PUSH2 0x6F7 PUSH2 0x13C7 JUMP JUMPDEST PUSH1 0x0 DUP2 GT PUSH2 0x73A JUMPI PUSH1 0x40 MLOAD PUSH32 0x8C379A000000000000000000000000000000000000000000000000000000000 DUP2 MSTORE PUSH1 0x4 ADD PUSH2 0x731 SWAP1 PUSH2 0x1C8E JUMP JUMPDEST PUSH1 0x40 MLOAD DUP1 SWAP2 SUB SWAP1 REVERT JUMPDEST DUP1 PUSH1 0x2 DUP2 SWAP1 SSTORE POP PUSH32 0x8249EC545E68F6F1E1230133CA48C704D831A7F8E635DED80F3DD9E99B09BB2F DUP2 PUSH1 0x40 MLOAD PUSH2 0x770 SWAP2 SWAP1 PUSH2 0x158D JUMP JUMPDEST PUSH1 0x40 MLOAD DUP1 SWAP2 SUB SWAP1 LOG1 POP JUMP JUMPDEST PUSH2 0x79A CALLER PUSH20 0xFFFFFFFFFFFFFFFFFFFFFFFFFFFFFFFFFFFFFFFF AND PUSH2 0x129A JUMP JUMPDEST ISZERO PUSH2 0x7DA JUMPI PUSH1 0x40 MLOAD PUSH32 0x8C379A000000000000000000000000000000000000000000000000000000000 DUP2 MSTORE PUSH1 0x4 ADD PUSH2 0x7D1 SWAP1 PUSH2 0x1822 JUMP JUMPDEST PUSH1 0x40 MLOAD DUP1 SWAP2 SUB SWAP1 REVERT JUMPDEST ORIGIN PUSH20 0xFFFFFFFFFFFFFFFFFFFFFFFFFFFFFFFFFFFFFFFF AND CALLER PUSH20 0xFFFFFFFFFFFFFFFFFFFFFFFFFFFFFFFFFFFFFFFF AND EQ PUSH2 0x848 JUMPI PUSH1 0x40 MLOAD PUSH32 0x8C379A000000000000000000000000000000000000000000000000000000000 DUP2 MSTORE PUSH1 0x4 ADD PUSH2 0x83F SWAP1 PUSH2 0x188E JUMP JUMPDEST PUSH1 0x40 MLOAD DUP1 SWAP2 SUB SWAP1 REVERT JUMPDEST PUSH1 0x2 PUSH1 0x1 SLOAD SUB PUSH2 0x88D JUMPI PUSH1 0x40 MLOAD PUSH32 0x8C379A000000000000000000000000000000000000000000000000000000000 DUP2 MSTORE PUSH1 0x4 ADD PUSH2 0x884 SWAP1 PUSH2 0x1CFA JUMP JUMPDEST PUSH1 0x40 MLOAD DUP1 SWAP2 SUB SWAP1 REVERT JUMPDEST PUSH1 0x2 PUSH1 0x1 DUP2 SWAP1 SSTORE POP PUSH1 0x0 DUP3 DUP3 SWAP1 POP GT PUSH2 0x8DB JUMPI PUSH1 0x40 MLOAD PUSH32 0x8C379A000000000000000000000000000000000000000000000000000000000 DUP2 MSTORE PUSH1 0x4 ADD PUSH2 0x8D2 SWAP1 PUSH2 0x18FA JUMP JUMPDEST PUSH1 0x40 MLOAD DUP1 SWAP2 SUB SWAP1 REVERT JUMPDEST PUSH1 0x0 JUMPDEST DUP3 DUP3 SWAP1 POP DUP2 LT ISZERO PUSH2 0xCB4 JUMPI PUSH1 0x0 PUSH1 0x3 PUSH1 0x0 DUP6 DUP6 DUP6 DUP2 DUP2 LT PUSH2 0x902 JUMPI PUSH2 0x901 PUSH2 0x191A JUMP JUMPDEST JUMPDEST SWAP1 POP PUSH1 0x20 MUL ADD CALLDATALOAD DUP2 MSTORE PUSH1 0x20 ADD SWAP1 DUP2 MSTORE PUSH1 0x20 ADD PUSH1 0x0 KECCAK256 PUSH1 0x40 MLOAD DUP1 PUSH1 0x80 ADD PUSH1 0x40 MSTORE SWAP1 DUP2 PUSH1 0x0 DUP3 ADD PUSH1 0x0 SWAP1 SLOAD SWAP1 PUSH2 0x100 EXP SWAP1 DIV PUSH20 0xFFFFFFFFFFFFFFFFFFFFFFFFFFFFFFFFFFFFFFFF AND PUSH20 0xFFFFFFFFFFFFFFFFFFFFFFFFFFFFFFFFFFFFFFFF AND PUSH20 0xFFFFFFFFFFFFFFFFFFFFFFFFFFFFFFFFFFFFFFFF AND DUP2 MSTORE PUSH1 0x20 ADD PUSH1 0x1 DUP3 ADD SLOAD DUP2 MSTORE PUSH1 0x20 ADD PUSH1 0x2 DUP3 ADD SLOAD DUP2 MSTORE PUSH1 0x20 ADD PUSH1 0x3 DUP3 ADD PUSH1 0x0 SWAP1 SLOAD SWAP1 PUSH2 0x100 EXP SWAP1 DIV PUSH1 0xFF AND ISZERO ISZERO ISZERO ISZERO DUP2 MSTORE POP POP SWAP1 POP CALLER PUSH20 0xFFFFFFFFFFFFFFFFFFFFFFFFFFFFFFFFFFFFFFFF AND DUP2 PUSH1 0x0 ADD MLOAD PUSH20 0xFFFFFFFFFFFFFFFFFFFFFFFFFFFFFFFFFFFFFFFF AND EQ PUSH2 0xA1B JUMPI PUSH1 0x40 MLOAD PUSH32 0x8C379A000000000000000000000000000000000000000000000000000000000 DUP2 MSTORE PUSH1 0x4 ADD PUSH2 0xA12 SWAP1 PUSH2 0x1995 JUMP JUMPDEST PUSH1 0x40 MLOAD DUP1 SWAP2 SUB SWAP1 REVERT JUMPDEST TIMESTAMP PUSH1 0x2 SLOAD DUP3 PUSH1 0x20 ADD MLOAD PUSH2 0xA2E SWAP2 SWAP1 PUSH2 0x19E4 JUMP JUMPDEST LT PUSH2 0xA6E JUMPI PUSH1 0x40 MLOAD PUSH32 0x8C379A000000000000000000000000000000000000000000000000000000000 DUP2 MSTORE PUSH1 0x4 ADD PUSH2 0xA65 SWAP1 PUSH2 0x1D66 JUMP JUMPDEST PUSH1 0x40 MLOAD DUP1 SWAP2 SUB SWAP1 REVERT JUMPDEST DUP1 PUSH1 0x60 ADD MLOAD ISZERO PUSH2 0xAB3 JUMPI PUSH1 0x40 MLOAD PUSH32 0x8C379A000000000000000000000000000000000000000000000000000000000 DUP2 MSTORE PUSH1 0x4 ADD PUSH2 0xAAA SWAP1 PUSH2 0x1AD0 JUMP JUMPDEST PUSH1 0x40 MLOAD DUP1 SWAP2 SUB SWAP1 REVERT JUMPDEST PUSH32 0x0 PUSH20 0xFFFFFFFFFFFFFFFFFFFFFFFFFFFFFFFFFFFFFFFF AND PUSH4 0x23B872DD ADDRESS CALLER DUP8 DUP8 DUP8 DUP2 DUP2 LT PUSH2 0xB04 JUMPI PUSH2 0xB03 PUSH2 0x191A JUMP JUMPDEST JUMPDEST SWAP1 POP PUSH1 0x20 MUL ADD CALLDATALOAD PUSH1 0x40 MLOAD DUP5 PUSH4 0xFFFFFFFF AND PUSH1 0xE0 SHL DUP2 MSTORE PUSH1 0x4 ADD PUSH2 0xB29 SWAP4 SWAP3 SWAP2 SWAP1 PUSH2 0x1D86 JUMP JUMPDEST PUSH1 0x0 PUSH1 0x40 MLOAD DUP1 DUP4 SUB DUP2 PUSH1 0x0 DUP8 DUP1 EXTCODESIZE ISZERO DUP1 ISZERO PUSH2 0xB43 JUMPI PUSH1 0x0 DUP1 REVERT JUMPDEST POP GAS CALL ISZERO DUP1 ISZERO PUSH2 0xB57 JUMPI RETURNDATASIZE PUSH1 0x0 DUP1 RETURNDATACOPY RETURNDATASIZE PUSH1 0x0 REVERT JUMPDEST POP POP POP POP PUSH1 0x0 PUSH2 0xB7F DUP6 DUP6 DUP6 DUP2 DUP2 LT PUSH2 0xB73 JUMPI PUSH2 0xB72 PUSH2 0x191A JUMP JUMPDEST JUMPDEST SWAP1 POP PUSH1 0x20 MUL ADD CALLDATALOAD PUSH2 0x12BD JUMP JUMPDEST SWAP1 POP PUSH1 0x0 DUP3 PUSH1 0x40 ADD MLOAD DUP3 PUSH2 0xB93 SWAP2 SWAP1 PUSH2 0x1AF0 JUMP JUMPDEST SWAP1 POP PUSH32 0x0 PUSH20 0xFFFFFFFFFFFFFFFFFFFFFFFFFFFFFFFFFFFFFFFF AND PUSH4 0x40C10F19 CALLER DUP4 PUSH1 0x40 MLOAD DUP4 PUSH4 0xFFFFFFFF AND PUSH1 0xE0 SHL DUP2 MSTORE PUSH1 0x4 ADD PUSH2 0xBF0 SWAP3 SWAP2 SWAP1 PUSH2 0x1B24 JUMP JUMPDEST PUSH1 0x0 PUSH1 0x40 MLOAD DUP1 DUP4 SUB DUP2 PUSH1 0x0 DUP8 DUP1 EXTCODESIZE ISZERO DUP1 ISZERO PUSH2 0xC0A JUMPI PUSH1 0x0 DUP1 REVERT JUMPDEST POP GAS CALL ISZERO DUP1 ISZERO PUSH2 0xC1E JUMPI RETURNDATASIZE PUSH1 0x0 DUP1 RETURNDATACOPY RETURNDATASIZE PUSH1 0x0 REVERT JUMPDEST POP POP POP POP DUP2 PUSH1 0x3 PUSH1 0x0 DUP9 DUP9 DUP9 DUP2 DUP2 LT PUSH2 0xC3A JUMPI PUSH2 0xC39 PUSH2 0x191A JUMP JUMPDEST JUMPDEST SWAP1 POP PUSH1 0x20 MUL ADD CALLDATALOAD DUP2 MSTORE PUSH1 0x20 ADD SWAP1 DUP2 MSTORE PUSH1 0x20 ADD PUSH1 0x0 KECCAK256 PUSH1 0x2 ADD DUP2 SWAP1 SSTORE POP PUSH1 0x1 PUSH1 0x3 PUSH1 0x0 DUP9 DUP9 DUP9 DUP2 DUP2 LT PUSH2 0xC6F JUMPI PUSH2 0xC6E PUSH2 0x191A JUMP JUMPDEST JUMPDEST SWAP1 POP PUSH1 0x20 MUL ADD CALLDATALOAD DUP2 MSTORE PUSH1 0x20 ADD SWAP1 DUP2 MSTORE PUSH1 0x20 ADD PUSH1 0x0 KECCAK256 PUSH1 0x3 ADD PUSH1 0x0 PUSH2 0x100 EXP DUP2 SLOAD DUP2 PUSH1 0xFF MUL NOT AND SWAP1 DUP4 ISZERO ISZERO MUL OR SWAP1 SSTORE POP POP POP POP DUP1 DUP1 PUSH2 0xCAC SWAP1 PUSH2 0x1B4D JUMP JUMPDEST SWAP2 POP POP PUSH2 0x8DE JUMP JUMPDEST POP CALLER PUSH20 0xFFFFFFFFFFFFFFFFFFFFFFFFFFFFFFFFFFFFFFFF AND PUSH32 0x5CB48022479B9AC3BFB10A27965DC010ACFFC9FC1BC9A52F0B18975B944B54CA DUP4 DUP4 PUSH1 0x40 MLOAD PUSH2 0xCFD SWAP3 SWAP2 SWAP1 PUSH2 0x1DBD JUMP JUMPDEST PUSH1 0x40 MLOAD DUP1 SWAP2 SUB SWAP1 LOG2 PUSH1 0x1 DUP1 DUP2 SWAP1 SSTORE POP POP POP JUMP JUMPDEST PUSH1 0x0 DUP1 PUSH1 0x0 SWAP1 SLOAD SWAP1 PUSH2 0x100 EXP SWAP1 DIV PUSH20 0xFFFFFFFFFFFFFFFFFFFFFFFFFFFFFFFFFFFFFFFF AND SWAP1 POP SWAP1 JUMP JUMPDEST PUSH32 0x0 DUP2 JUMP JUMPDEST PUSH1 0x4 SLOAD DUP2 JUMP JUMPDEST PUSH1 0x5 SLOAD DUP2 JUMP JUMPDEST PUSH32 0x0 DUP2 JUMP JUMPDEST PUSH2 0xD95 PUSH2 0x13C7 JUMP JUMPDEST PUSH1 0x0 PUSH20 0xFFFFFFFFFFFFFFFFFFFFFFFFFFFFFFFFFFFFFFFF AND DUP2 PUSH20 0xFFFFFFFFFFFFFFFFFFFFFFFFFFFFFFFFFFFFFFFF AND SUB PUSH2 0xE04 JUMPI PUSH1 0x40 MLOAD PUSH32 0x8C379A000000000000000000000000000000000000000000000000000000000 DUP2 MSTORE PUSH1 0x4 ADD PUSH2 0xDFB SWAP1 PUSH2 0x1E53 JUMP JUMPDEST PUSH1 0x40 MLOAD DUP1 SWAP2 SUB SWAP1 REVERT JUMPDEST PUSH2 0xE0D DUP2 PUSH2 0x1445 JUMP JUMPDEST POP JUMP JUMPDEST PUSH2 0xE2F CALLER PUSH20 0xFFFFFFFFFFFFFFFFFFFFFFFFFFFFFFFFFFFFFFFF AND PUSH2 0x129A JUMP JUMPDEST ISZERO PUSH2 0xE6F JUMPI PUSH1 0x40 MLOAD PUSH32 0x8C379A000000000000000000000000000000000000000000000000000000000 DUP2 MSTORE PUSH1 0x4 ADD PUSH2 0xE66 SWAP1 PUSH2 0x1822 JUMP JUMPDEST PUSH1 0x40 MLOAD DUP1 SWAP2 SUB SWAP1 REVERT JUMPDEST ORIGIN PUSH20 0xFFFFFFFFFFFFFFFFFFFFFFFFFFFFFFFFFFFFFFFF AND CALLER PUSH20 0xFFFFFFFFFFFFFFFFFFFFFFFFFFFFFFFFFFFFFFFF AND EQ PUSH2 0xEDD JUMPI PUSH1 0x40 MLOAD PUSH32 0x8C379A000000000000000000000000000000000000000000000000000000000 DUP2 MSTORE PUSH1 0x4 ADD PUSH2 0xED4 SWAP1 PUSH2 0x188E JUMP JUMPDEST PUSH1 0x40 MLOAD DUP1 SWAP2 SUB SWAP1 REVERT JUMPDEST PUSH1 0x2 PUSH1 0x1 SLOAD SUB PUSH2 0xF22 JUMPI PUSH1 0x40 MLOAD PUSH32 0x8C379A000000000000000000000000000000000000000000000000000000000 DUP2 MSTORE PUSH1 0x4 ADD PUSH2 0xF19 SWAP1 PUSH2 0x1CFA JUMP JUMPDEST PUSH1 0x40 MLOAD DUP1 SWAP2 SUB SWAP1 REVERT JUMPDEST PUSH1 0x2 PUSH1 0x1 DUP2 SWAP1 SSTORE POP PUSH1 0x0 DUP3 DUP3 SWAP1 POP GT PUSH2 0xF70 JUMPI PUSH1 0x40 MLOAD PUSH32 0x8C379A000000000000000000000000000000000000000000000000000000000 DUP2 MSTORE PUSH1 0x4 ADD PUSH2 0xF67 SWAP1 PUSH2 0x18FA JUMP JUMPDEST PUSH1 0x40 MLOAD DUP1 SWAP2 SUB SWAP1 REVERT JUMPDEST PUSH1 0x0 JUMPDEST DUP3 DUP3 SWAP1 POP DUP2 LT ISZERO PUSH2 0x123E JUMPI CALLER PUSH20 0xFFFFFFFFFFFFFFFFFFFFFFFFFFFFFFFFFFFFFFFF AND PUSH32 0x0 PUSH20 0xFFFFFFFFFFFFFFFFFFFFFFFFFFFFFFFFFFFFFFFF AND PUSH4 0x6352211E DUP6 DUP6 DUP6 DUP2 DUP2 LT PUSH2 0xFE4 JUMPI PUSH2 0xFE3 PUSH2 0x191A JUMP JUMPDEST JUMPDEST SWAP1 POP PUSH1 0x20 MUL ADD CALLDATALOAD PUSH1 0x40 MLOAD DUP3 PUSH4 0xFFFFFFFF AND PUSH1 0xE0 SHL DUP2 MSTORE PUSH1 0x4 ADD PUSH2 0x1007 SWAP2 SWAP1 PUSH2 0x158D JUMP JUMPDEST PUSH1 0x20 PUSH1 0x40 MLOAD DUP1 DUP4 SUB DUP2 DUP7 GAS STATICCALL ISZERO DUP1 ISZERO PUSH2 0x1024 JUMPI RETURNDATASIZE PUSH1 0x0 DUP1 RETURNDATACOPY RETURNDATASIZE PUSH1 0x0 REVERT JUMPDEST POP POP POP POP PUSH1 0x40 MLOAD RETURNDATASIZE PUSH1 0x1F NOT PUSH1 0x1F DUP3 ADD AND DUP3 ADD DUP1 PUSH1 0x40 MSTORE POP DUP2 ADD SWAP1 PUSH2 0x1048 SWAP2 SWAP1 PUSH2 0x1E88 JUMP JUMPDEST PUSH20 0xFFFFFFFFFFFFFFFFFFFFFFFFFFFFFFFFFFFFFFFF AND EQ PUSH2 0x109E JUMPI PUSH1 0x40 MLOAD PUSH32 0x8C379A000000000000000000000000000000000000000000000000000000000 DUP2 MSTORE PUSH1 0x4 ADD PUSH2 0x1095 SWAP1 PUSH2 0x1F01 JUMP JUMPDEST PUSH1 0x40 MLOAD DUP1 SWAP2 SUB SWAP1 REVERT JUMPDEST PUSH32 0x0 PUSH20 0xFFFFFFFFFFFFFFFFFFFFFFFFFFFFFFFFFFFFFFFF AND PUSH4 0x23B872DD CALLER ADDRESS DUP7 DUP7 DUP7 DUP2 DUP2 LT PUSH2 0x10EF JUMPI PUSH2 0x10EE PUSH2 0x191A JUMP JUMPDEST JUMPDEST SWAP1 POP PUSH1 0x20 MUL ADD CALLDATALOAD PUSH1 0x40 MLOAD DUP5 PUSH4 0xFFFFFFFF AND PUSH1 0xE0 SHL DUP2 MSTORE PUSH1 0x4 ADD PUSH2 0x1114 SWAP4 SWAP3 SWAP2 SWAP1 PUSH2 0x1D86 JUMP JUMPDEST PUSH1 0x0 PUSH1 0x40 MLOAD DUP1 DUP4 SUB DUP2 PUSH1 0x0 DUP8 DUP1 EXTCODESIZE ISZERO DUP1 ISZERO PUSH2 0x112E JUMPI PUSH1 0x0 DUP1 REVERT JUMPDEST POP GAS CALL ISZERO DUP1 ISZERO PUSH2 0x1142 JUMPI RETURNDATASIZE PUSH1 0x0 DUP1 RETURNDATACOPY RETURNDATASIZE PUSH1 0x0 REVERT JUMPDEST POP POP POP POP PUSH1 0x40 MLOAD DUP1 PUSH1 0x80 ADD PUSH1 0x40 MSTORE DUP1 CALLER PUSH20 0xFFFFFFFFFFFFFFFFFFFFFFFFFFFFFFFFFFFFFFFF AND DUP2 MSTORE PUSH1 0x20 ADD TIMESTAMP DUP2 MSTORE PUSH1 0x20 ADD PUSH1 0x0 DUP2 MSTORE PUSH1 0x20 ADD PUSH1 0x0 ISZERO ISZERO DUP2 MSTORE POP PUSH1 0x3 PUSH1 0x0 DUP6 DUP6 DUP6 DUP2 DUP2 LT PUSH2 0x1198 JUMPI PUSH2 0x1197 PUSH2 0x191A JUMP JUMPDEST JUMPDEST SWAP1 POP PUSH1 0x20 MUL ADD CALLDATALOAD DUP2 MSTORE PUSH1 0x20 ADD SWAP1 DUP2 MSTORE PUSH1 0x20 ADD PUSH1 0x0 KECCAK256 PUSH1 0x0 DUP3 ADD MLOAD DUP2 PUSH1 0x0 ADD PUSH1 0x0 PUSH2 0x100 EXP DUP2 SLOAD DUP2 PUSH20 0xFFFFFFFFFFFFFFFFFFFFFFFFFFFFFFFFFFFFFFFF MUL NOT AND SWAP1 DUP4 PUSH20 0xFFFFFFFFFFFFFFFFFFFFFFFFFFFFFFFFFFFFFFFF AND MUL OR SWAP1 SSTORE POP PUSH1 0x20 DUP3 ADD MLOAD DUP2 PUSH1 0x1 ADD SSTORE PUSH1 0x40 DUP3 ADD MLOAD DUP2 PUSH1 0x2 ADD SSTORE PUSH1 0x60 DUP3 ADD MLOAD DUP2 PUSH1 0x3 ADD PUSH1 0x0 PUSH2 0x100 EXP DUP2 SLOAD DUP2 PUSH1 0xFF MUL NOT AND SWAP1 DUP4 ISZERO ISZERO MUL OR SWAP1 SSTORE POP SWAP1 POP POP DUP1 DUP1 PUSH2 0x1236 SWAP1 PUSH2 0x1B4D JUMP JUMPDEST SWAP2 POP POP PUSH2 0xF73 JUMP JUMPDEST POP CALLER PUSH20 0xFFFFFFFFFFFFFFFFFFFFFFFFFFFFFFFFFFFFFFFF AND PUSH32 0x458BE0227BCCC9E803DEC79BD16767EEAF9925D2CE708EEED7AE1F3621F968F9 DUP4 DUP4 PUSH1 0x40 MLOAD PUSH2 0x1287 SWAP3 SWAP2 SWAP1 PUSH2 0x1DBD JUMP JUMPDEST PUSH1 0x40 MLOAD DUP1 SWAP2 SUB SWAP1 LOG2 PUSH1 0x1 DUP1 DUP2 SWAP1 SSTORE POP POP POP JUMP JUMPDEST PUSH1 0x0 DUP1 DUP3 PUSH20 0xFFFFFFFFFFFFFFFFFFFFFFFFFFFFFFFFFFFFFFFF AND EXTCODESIZE GT SWAP1 POP SWAP2 SWAP1 POP JUMP JUMPDEST PUSH1 0x0 DUP1 PUSH1 0x3 PUSH1 0x0 DUP5 DUP2 MSTORE PUSH1 0x20 ADD SWAP1 DUP2 MSTORE PUSH1 0x20 ADD PUSH1 0x0 KECCAK256 PUSH1 0x40 MLOAD DUP1 PUSH1 0x80 ADD PUSH1 0x40 MSTORE SWAP1 DUP2 PUSH1 0x0 DUP3 ADD PUSH1 0x0 SWAP1 SLOAD SWAP1 PUSH2 0x100 EXP SWAP1 DIV PUSH20 0xFFFFFFFFFFFFFFFFFFFFFFFFFFFFFFFFFFFFFFFF AND PUSH20 0xFFFFFFFFFFFFFFFFFFFFFFFFFFFFFFFFFFFFFFFF AND PUSH20 0xFFFFFFFFFFFFFFFFFFFFFFFFFFFFFFFFFFFFFFFF AND DUP2 MSTORE PUSH1 0x20 ADD PUSH1 0x1 DUP3 ADD SLOAD DUP2 MSTORE PUSH1 0x20 ADD PUSH1 0x2 DUP3 ADD SLOAD DUP2 MSTORE PUSH1 0x20 ADD PUSH1 0x3 DUP3 ADD PUSH1 0x0 SWAP1 SLOAD SWAP1 PUSH2 0x100 EXP SWAP1 DIV PUSH1 0xFF AND ISZERO ISZERO ISZERO ISZERO DUP2 MSTORE POP POP SWAP1 POP PUSH1 0x0 DUP2 PUSH1 0x20 ADD MLOAD TIMESTAMP PUSH2 0x1377 SWAP2 SWAP1 PUSH2 0x1AF0 JUMP JUMPDEST SWAP1 POP PUSH1 0x0 PUSH1 0x2 SLOAD DUP3 LT ISZERO PUSH2 0x1391 JUMPI PUSH1 0x0 SWAP4 POP POP POP POP PUSH2 0x13C2 JUMP JUMPDEST PUSH1 0x4 SLOAD PUSH1 0x2 SLOAD DUP4 PUSH2 0x13A2 SWAP2 SWAP1 PUSH2 0x1AF0 JUMP JUMPDEST PUSH1 0x5 SLOAD PUSH2 0x13AF SWAP2 SWAP1 PUSH2 0x1F21 JUMP JUMPDEST PUSH2 0x13B9 SWAP2 SWAP1 PUSH2 0x1FAA JUMP JUMPDEST SWAP1 POP DUP1 SWAP4 POP POP POP POP JUMPDEST SWAP2 SWAP1 POP JUMP JUMPDEST PUSH2 0x13CF PUSH2 0x1509 JUMP JUMPDEST PUSH20 0xFFFFFFFFFFFFFFFFFFFFFFFFFFFFFFFFFFFFFFFF AND PUSH2 0x13ED PUSH2 0xD10 JUMP JUMPDEST PUSH20 0xFFFFFFFFFFFFFFFFFFFFFFFFFFFFFFFFFFFFFFFF AND EQ PUSH2 0x1443 JUMPI PUSH1 0x40 MLOAD PUSH32 0x8C379A000000000000000000000000000000000000000000000000000000000 DUP2 MSTORE PUSH1 0x4 ADD PUSH2 0x143A SWAP1 PUSH2 0x2027 JUMP JUMPDEST PUSH1 0x40 MLOAD DUP1 SWAP2 SUB SWAP1 REVERT JUMPDEST JUMP JUMPDEST PUSH1 0x0 DUP1 PUSH1 0x0 SWAP1 SLOAD SWAP1 PUSH2 0x100 EXP SWAP1 DIV PUSH20 0xFFFFFFFFFFFFFFFFFFFFFFFFFFFFFFFFFFFFFFFF AND SWAP1 POP DUP2 PUSH1 0x0 DUP1 PUSH2 0x100 EXP DUP2 SLOAD DUP2 PUSH20 0xFFFFFFFFFFFFFFFFFFFFFFFFFFFFFFFFFFFFFFFF MUL NOT AND SWAP1 DUP4 PUSH20 0xFFFFFFFFFFFFFFFFFFFFFFFFFFFFFFFFFFFFFFFF AND MUL OR SWAP1 SSTORE POP DUP2 PUSH20 0xFFFFFFFFFFFFFFFFFFFFFFFFFFFFFFFFFFFFFFFF AND DUP2 PUSH20 0xFFFFFFFFFFFFFFFFFFFFFFFFFFFFFFFFFFFFFFFF AND PUSH32 0x8BE0079C531659141344CD1FD0A4F28419497F9722A3DAAFE3B4186F6B6457E0 PUSH1 0x40 MLOAD PUSH1 0x40 MLOAD DUP1 SWAP2 SUB SWAP1 LOG3 POP POP JUMP JUMPDEST PUSH1 0x0 CALLER SWAP1 POP SWAP1 JUMP JUMPDEST PUSH1 0x0 DUP1 REVERT JUMPDEST PUSH1 0x0 DUP1 REVERT JUMPDEST PUSH1 0x0 DUP2 SWAP1 POP SWAP2 SWAP1 POP JUMP JUMPDEST PUSH2 0x152E DUP2 PUSH2 0x151B JUMP JUMPDEST DUP2 EQ PUSH2 0x1539 JUMPI PUSH1 0x0 DUP1 REVERT JUMPDEST POP JUMP JUMPDEST PUSH1 0x0 DUP2 CALLDATALOAD SWAP1 POP PUSH2 0x154B DUP2 PUSH2 0x1525 JUMP JUMPDEST SWAP3 SWAP2 POP POP JUMP JUMPDEST PUSH1 0x0 PUSH1 0x20 DUP3 DUP5 SUB SLT ISZERO PUSH2 0x1567 JUMPI PUSH2 0x1566 PUSH2 0x1511 JUMP JUMPDEST JUMPDEST PUSH1 0x0 PUSH2 0x1575 DUP5 DUP3 DUP6 ADD PUSH2 0x153C JUMP JUMPDEST SWAP2 POP POP SWAP3 SWAP2 POP POP JUMP JUMPDEST PUSH2 0x1587 DUP2 PUSH2 0x151B JUMP JUMPDEST DUP3 MSTORE POP POP JUMP JUMPDEST PUSH1 0x0 PUSH1 0x20 DUP3 ADD SWAP1 POP PUSH2 0x15A2 PUSH1 0x0 DUP4 ADD DUP5 PUSH2 0x157E JUMP JUMPDEST SWAP3 SWAP2 POP POP JUMP JUMPDEST PUSH1 0x0 DUP1 REVERT JUMPDEST PUSH1 0x0 DUP1 REVERT JUMPDEST PUSH1 0x0 DUP1 REVERT JUMPDEST PUSH1 0x0 DUP1 DUP4 PUSH1 0x1F DUP5 ADD SLT PUSH2 0x15CD JUMPI PUSH2 0x15CC PUSH2 0x15A8 JUMP JUMPDEST JUMPDEST DUP3 CALLDATALOAD SWAP1 POP PUSH8 0xFFFFFFFFFFFFFFFF DUP2 GT ISZERO PUSH2 0x15EA JUMPI PUSH2 0x15E9 PUSH2 0x15AD JUMP JUMPDEST JUMPDEST PUSH1 0x20 DUP4 ADD SWAP2 POP DUP4 PUSH1 0x20 DUP3 MUL DUP4 ADD GT ISZERO PUSH2 0x1606 JUMPI PUSH2 0x1605 PUSH2 0x15B2 JUMP JUMPDEST JUMPDEST SWAP3 POP SWAP3 SWAP1 POP JUMP JUMPDEST PUSH1 0x0 DUP1 PUSH1 0x20 DUP4 DUP6 SUB SLT ISZERO PUSH2 0x1624 JUMPI PUSH2 0x1623 PUSH2 0x1511 JUMP JUMPDEST JUMPDEST PUSH1 0x0 DUP4 ADD CALLDATALOAD PUSH8 0xFFFFFFFFFFFFFFFF DUP2 GT ISZERO PUSH2 0x1642 JUMPI PUSH2 0x1641 PUSH2 0x1516 JUMP JUMPDEST JUMPDEST PUSH2 0x164E DUP6 DUP3 DUP7 ADD PUSH2 0x15B7 JUMP JUMPDEST SWAP3 POP SWAP3 POP POP SWAP3 POP SWAP3 SWAP1 POP JUMP JUMPDEST PUSH1 0x0 PUSH20 0xFFFFFFFFFFFFFFFFFFFFFFFFFFFFFFFFFFFFFFFF DUP3 AND SWAP1 POP SWAP2 SWAP1 POP JUMP JUMPDEST PUSH1 0x0 PUSH2 0x1685 DUP3 PUSH2 0x165A JUMP JUMPDEST SWAP1 POP SWAP2 SWAP1 POP JUMP JUMPDEST PUSH2 0x1695 DUP2 PUSH2 0x167A JUMP JUMPDEST DUP3 MSTORE POP POP JUMP JUMPDEST PUSH1 0x0 PUSH1 0x20 DUP3 ADD SWAP1 POP PUSH2 0x16B0 PUSH1 0x0 DUP4 ADD DUP5 PUSH2 0x168C JUMP JUMPDEST SWAP3 SWAP2 POP POP JUMP JUMPDEST PUSH1 0x0 DUP2 SWAP1 POP SWAP2 SWAP1 POP JUMP JUMPDEST PUSH1 0x0 PUSH2 0x16DB PUSH2 0x16D6 PUSH2 0x16D1 DUP5 PUSH2 0x165A JUMP JUMPDEST PUSH2 0x16B6 JUMP JUMPDEST PUSH2 0x165A JUMP JUMPDEST SWAP1 POP SWAP2 SWAP1 POP JUMP JUMPDEST PUSH1 0x0 PUSH2 0x16ED DUP3 PUSH2 0x16C0 JUMP JUMPDEST SWAP1 POP SWAP2 SWAP1 POP JUMP JUMPDEST PUSH1 0x0 PUSH2 0x16FF DUP3 PUSH2 0x16E2 JUMP JUMPDEST SWAP1 POP SWAP2 SWAP1 POP JUMP JUMPDEST PUSH2 0x170F DUP2 PUSH2 0x16F4 JUMP JUMPDEST DUP3 MSTORE POP POP JUMP JUMPDEST PUSH1 0x0 PUSH1 0x20 DUP3 ADD SWAP1 POP PUSH2 0x172A PUSH1 0x0 DUP4 ADD DUP5 PUSH2 0x1706 JUMP JUMPDEST SWAP3 SWAP2 POP POP JUMP JUMPDEST PUSH1 0x0 PUSH2 0x173B DUP3 PUSH2 0x16E2 JUMP JUMPDEST SWAP1 POP SWAP2 SWAP1 POP JUMP JUMPDEST PUSH2 0x174B DUP2 PUSH2 0x1730 JUMP JUMPDEST DUP3 MSTORE POP POP JUMP JUMPDEST PUSH1 0x0 PUSH1 0x20 DUP3 ADD SWAP1 POP PUSH2 0x1766 PUSH1 0x0 DUP4 ADD DUP5 PUSH2 0x1742 JUMP JUMPDEST SWAP3 SWAP2 POP POP JUMP JUMPDEST PUSH2 0x1775 DUP2 PUSH2 0x167A JUMP JUMPDEST DUP2 EQ PUSH2 0x1780 JUMPI PUSH1 0x0 DUP1 REVERT JUMPDEST POP JUMP JUMPDEST PUSH1 0x0 DUP2 CALLDATALOAD SWAP1 POP PUSH2 0x1792 DUP2 PUSH2 0x176C JUMP JUMPDEST SWAP3 SWAP2 POP POP JUMP JUMPDEST PUSH1 0x0 PUSH1 0x20 DUP3 DUP5 SUB SLT ISZERO PUSH2 0x17AE JUMPI PUSH2 0x17AD PUSH2 0x1511 JUMP JUMPDEST JUMPDEST PUSH1 0x0 PUSH2 0x17BC DUP5 DUP3 DUP6 ADD PUSH2 0x1783 JUMP JUMPDEST SWAP2 POP POP SWAP3 SWAP2 POP POP JUMP JUMPDEST PUSH1 0x0 DUP3 DUP3 MSTORE PUSH1 0x20 DUP3 ADD SWAP1 POP SWAP3 SWAP2 POP POP JUMP JUMPDEST PUSH32 0x436F6E7472616374206E6F7420616C6C6F776564000000000000000000000000 PUSH1 0x0 DUP3 ADD MSTORE POP JUMP JUMPDEST PUSH1 0x0 PUSH2 0x180C PUSH1 0x14 DUP4 PUSH2 0x17C5 JUMP JUMPDEST SWAP2 POP PUSH2 0x1817 DUP3 PUSH2 0x17D6 JUMP JUMPDEST PUSH1 0x20 DUP3 ADD SWAP1 POP SWAP2 SWAP1 POP JUMP JUMPDEST PUSH1 0x0 PUSH1 0x20 DUP3 ADD SWAP1 POP DUP2 DUP2 SUB PUSH1 0x0 DUP4 ADD MSTORE PUSH2 0x183B DUP2 PUSH2 0x17FF JUMP JUMPDEST SWAP1 POP SWAP2 SWAP1 POP JUMP JUMPDEST PUSH32 0x50726F787920636F6E7472616374206E6F7420616C6C6F776564000000000000 PUSH1 0x0 DUP3 ADD MSTORE POP JUMP JUMPDEST PUSH1 0x0 PUSH2 0x1878 PUSH1 0x1A DUP4 PUSH2 0x17C5 JUMP JUMPDEST SWAP2 POP PUSH2 0x1883 DUP3 PUSH2 0x1842 JUMP JUMPDEST PUSH1 0x20 DUP3 ADD SWAP1 POP SWAP2 SWAP1 POP JUMP JUMPDEST PUSH1 0x0 PUSH1 0x20 DUP3 ADD SWAP1 POP DUP2 DUP2 SUB PUSH1 0x0 DUP4 ADD MSTORE PUSH2 0x18A7 DUP2 PUSH2 0x186B JUMP JUMPDEST SWAP1 POP SWAP2 SWAP1 POP JUMP JUMPDEST PUSH32 0x4E6F20746F6B656E730000000000000000000000000000000000000000000000 PUSH1 0x0 DUP3 ADD MSTORE POP JUMP JUMPDEST PUSH1 0x0 PUSH2 0x18E4 PUSH1 0x9 DUP4 PUSH2 0x17C5 JUMP JUMPDEST SWAP2 POP PUSH2 0x18EF DUP3 PUSH2 0x18AE JUMP JUMPDEST PUSH1 0x20 DUP3 ADD SWAP1 POP SWAP2 SWAP1 POP JUMP JUMPDEST PUSH1 0x0 PUSH1 0x20 DUP3 ADD SWAP1 POP DUP2 DUP2 SUB PUSH1 0x0 DUP4 ADD MSTORE PUSH2 0x1913 DUP2 PUSH2 0x18D7 JUMP JUMPDEST SWAP1 POP SWAP2 SWAP1 POP JUMP JUMPDEST PUSH32 0x4E487B7100000000000000000000000000000000000000000000000000000000 PUSH1 0x0 MSTORE PUSH1 0x32 PUSH1 0x4 MSTORE PUSH1 0x24 PUSH1 0x0 REVERT JUMPDEST PUSH32 0x4E6F74206120746F6B656E206F776E6572000000000000000000000000000000 PUSH1 0x0 DUP3 ADD MSTORE POP JUMP JUMPDEST PUSH1 0x0 PUSH2 0x197F PUSH1 0x11 DUP4 PUSH2 0x17C5 JUMP JUMPDEST SWAP2 POP PUSH2 0x198A DUP3 PUSH2 0x1949 JUMP JUMPDEST PUSH1 0x20 DUP3 ADD SWAP1 POP SWAP2 SWAP1 POP JUMP JUMPDEST PUSH1 0x0 PUSH1 0x20 DUP3 ADD SWAP1 POP DUP2 DUP2 SUB PUSH1 0x0 DUP4 ADD MSTORE PUSH2 0x19AE DUP2 PUSH2 0x1972 JUMP JUMPDEST SWAP1 POP SWAP2 SWAP1 POP JUMP JUMPDEST PUSH32 0x4E487B7100000000000000000000000000000000000000000000000000000000 PUSH1 0x0 MSTORE PUSH1 0x11 PUSH1 0x4 MSTORE PUSH1 0x24 PUSH1 0x0 REVERT JUMPDEST PUSH1 0x0 PUSH2 0x19EF DUP3 PUSH2 0x151B JUMP JUMPDEST SWAP2 POP PUSH2 0x19FA DUP4 PUSH2 0x151B JUMP JUMPDEST SWAP3 POP DUP3 DUP3 ADD SWAP1 POP DUP1 DUP3 GT ISZERO PUSH2 0x1A12 JUMPI PUSH2 0x1A11 PUSH2 0x19B5 JUMP JUMPDEST JUMPDEST SWAP3 SWAP2 POP POP JUMP JUMPDEST PUSH32 0x4E6F742061626C6520746F20636C61696D207965740000000000000000000000 PUSH1 0x0 DUP3 ADD MSTORE POP JUMP JUMPDEST PUSH1 0x0 PUSH2 0x1A4E PUSH1 0x15 DUP4 PUSH2 0x17C5 JUMP JUMPDEST SWAP2 POP PUSH2 0x1A59 DUP3 PUSH2 0x1A18 JUMP JUMPDEST PUSH1 0x20 DUP3 ADD SWAP1 POP SWAP2 SWAP1 POP JUMP JUMPDEST PUSH1 0x0 PUSH1 0x20 DUP3 ADD SWAP1 POP DUP2 DUP2 SUB PUSH1 0x0 DUP4 ADD MSTORE PUSH2 0x1A7D DUP2 PUSH2 0x1A41 JUMP JUMPDEST SWAP1 POP SWAP2 SWAP1 POP JUMP JUMPDEST PUSH32 0x416C726561647920756E6C6F636B656400000000000000000000000000000000 PUSH1 0x0 DUP3 ADD MSTORE POP JUMP JUMPDEST PUSH1 0x0 PUSH2 0x1ABA PUSH1 0x10 DUP4 PUSH2 0x17C5 JUMP JUMPDEST SWAP2 POP PUSH2 0x1AC5 DUP3 PUSH2 0x1A84 JUMP JUMPDEST PUSH1 0x20 DUP3 ADD SWAP1 POP SWAP2 SWAP1 POP JUMP JUMPDEST PUSH1 0x0 PUSH1 0x20 DUP3 ADD SWAP1 POP DUP2 DUP2 SUB PUSH1 0x0 DUP4 ADD MSTORE PUSH2 0x1AE9 DUP2 PUSH2 0x1AAD JUMP JUMPDEST SWAP1 POP SWAP2 SWAP1 POP JUMP JUMPDEST PUSH1 0x0 PUSH2 0x1AFB DUP3 PUSH2 0x151B JUMP JUMPDEST SWAP2 POP PUSH2 0x1B06 DUP4 PUSH2 0x151B JUMP JUMPDEST SWAP3 POP DUP3 DUP3 SUB SWAP1 POP DUP2 DUP2 GT ISZERO PUSH2 0x1B1E JUMPI PUSH2 0x1B1D PUSH2 0x19B5 JUMP JUMPDEST JUMPDEST SWAP3 SWAP2 POP POP JUMP JUMPDEST PUSH1 0x0 PUSH1 0x40 DUP3 ADD SWAP1 POP PUSH2 0x1B39 PUSH1 0x0 DUP4 ADD DUP6 PUSH2 0x168C JUMP JUMPDEST PUSH2 0x1B46 PUSH1 0x20 DUP4 ADD DUP5 PUSH2 0x157E JUMP JUMPDEST SWAP4 SWAP3 POP POP POP JUMP JUMPDEST PUSH1 0x0 PUSH2 0x1B58 DUP3 PUSH2 0x151B JUMP JUMPDEST SWAP2 POP PUSH32 0xFFFFFFFFFFFFFFFFFFFFFFFFFFFFFFFFFFFFFFFFFFFFFFFFFFFFFFFFFFFFFFFF DUP3 SUB PUSH2 0x1B8A JUMPI PUSH2 0x1B89 PUSH2 0x19B5 JUMP JUMPDEST JUMPDEST PUSH1 0x1 DUP3 ADD SWAP1 POP SWAP2 SWAP1 POP JUMP JUMPDEST PUSH1 0x0 DUP3 DUP3 MSTORE PUSH1 0x20 DUP3 ADD SWAP1 POP SWAP3 SWAP2 POP POP JUMP JUMPDEST PUSH1 0x0 DUP1 REVERT JUMPDEST DUP3 DUP2 DUP4 CALLDATACOPY POP POP POP JUMP JUMPDEST PUSH1 0x0 PUSH2 0x1BC0 DUP4 DUP6 PUSH2 0x1B95 JUMP JUMPDEST SWAP4 POP PUSH32 0x7FFFFFFFFFFFFFFFFFFFFFFFFFFFFFFFFFFFFFFFFFFFFFFFFFFFFFFFFFFFFFF DUP4 GT ISZERO PUSH2 0x1BF3 JUMPI PUSH2 0x1BF2 PUSH2 0x1BA6 JUMP JUMPDEST JUMPDEST PUSH1 0x20 DUP4 MUL SWAP3 POP PUSH2 0x1C04 DUP4 DUP6 DUP5 PUSH2 0x1BAB JUMP JUMPDEST DUP3 DUP5 ADD SWAP1 POP SWAP4 SWAP3 POP POP POP JUMP JUMPDEST PUSH1 0x0 PUSH1 0x40 DUP3 ADD SWAP1 POP DUP2 DUP2 SUB PUSH1 0x0 DUP4 ADD MSTORE PUSH2 0x1C2B DUP2 DUP6 DUP8 PUSH2 0x1BB4 JUMP JUMPDEST SWAP1 POP PUSH2 0x1C3A PUSH1 0x20 DUP4 ADD DUP5 PUSH2 0x157E JUMP JUMPDEST SWAP5 SWAP4 POP POP POP POP JUMP JUMPDEST PUSH32 0x496E76616C6964206C6F636B20706572696F642E000000000000000000000000 PUSH1 0x0 DUP3 ADD MSTORE POP JUMP JUMPDEST PUSH1 0x0 PUSH2 0x1C78 PUSH1 0x14 DUP4 PUSH2 0x17C5 JUMP JUMPDEST SWAP2 POP PUSH2 0x1C83 DUP3 PUSH2 0x1C42 JUMP JUMPDEST PUSH1 0x20 DUP3 ADD SWAP1 POP SWAP2 SWAP1 POP JUMP JUMPDEST PUSH1 0x0 PUSH1 0x20 DUP3 ADD SWAP1 POP DUP2 DUP2 SUB PUSH1 0x0 DUP4 ADD MSTORE PUSH2 0x1CA7 DUP2 PUSH2 0x1C6B JUMP JUMPDEST SWAP1 POP SWAP2 SWAP1 POP JUMP JUMPDEST PUSH32 0x5265656E7472616E637947756172643A207265656E7472616E742063616C6C00 PUSH1 0x0 DUP3 ADD MSTORE POP JUMP JUMPDEST PUSH1 0x0 PUSH2 0x1CE4 PUSH1 0x1F DUP4 PUSH2 0x17C5 JUMP JUMPDEST SWAP2 POP PUSH2 0x1CEF DUP3 PUSH2 0x1CAE JUMP JUMPDEST PUSH1 0x20 DUP3 ADD SWAP1 POP SWAP2 SWAP1 POP JUMP JUMPDEST PUSH1 0x0 PUSH1 0x20 DUP3 ADD SWAP1 POP DUP2 DUP2 SUB PUSH1 0x0 DUP4 ADD MSTORE PUSH2 0x1D13 DUP2 PUSH2 0x1CD7 JUMP JUMPDEST SWAP1 POP SWAP2 SWAP1 POP JUMP JUMPDEST PUSH32 0x4E6F742061626C6520746F20756E6C6F636B2079657400000000000000000000 PUSH1 0x0 DUP3 ADD MSTORE POP JUMP JUMPDEST PUSH1 0x0 PUSH2 0x1D50 PUSH1 0x16 DUP4 PUSH2 0x17C5 JUMP JUMPDEST SWAP2 POP PUSH2 0x1D5B DUP3 PUSH2 0x1D1A JUMP JUMPDEST PUSH1 0x20 DUP3 ADD SWAP1 POP SWAP2 SWAP1 POP JUMP JUMPDEST PUSH1 0x0 PUSH1 0x20 DUP3 ADD SWAP1 POP DUP2 DUP2 SUB PUSH1 0x0 DUP4 ADD MSTORE PUSH2 0x1D7F DUP2 PUSH2 0x1D43 JUMP JUMPDEST SWAP1 POP SWAP2 SWAP1 POP JUMP JUMPDEST PUSH1 0x0 PUSH1 0x60 DUP3 ADD SWAP1 POP PUSH2 0x1D9B PUSH1 0x0 DUP4 ADD DUP7 PUSH2 0x168C JUMP JUMPDEST PUSH2 0x1DA8 PUSH1 0x20 DUP4 ADD DUP6 PUSH2 0x168C JUMP JUMPDEST PUSH2 0x1DB5 PUSH1 0x40 DUP4 ADD DUP5 PUSH2 0x157E JUMP JUMPDEST SWAP5 SWAP4 POP POP POP POP JUMP JUMPDEST PUSH1 0x0 PUSH1 0x20 DUP3 ADD SWAP1 POP DUP2 DUP2 SUB PUSH1 0x0 DUP4 ADD MSTORE PUSH2 0x1DD8 DUP2 DUP5 DUP7 PUSH2 0x1BB4 JUMP JUMPDEST SWAP1 POP SWAP4 SWAP3 POP POP POP JUMP JUMPDEST PUSH32 0x4F776E61626C653A206E6577206F776E657220697320746865207A65726F2061 PUSH1 0x0 DUP3 ADD MSTORE PUSH32 0x6464726573730000000000000000000000000000000000000000000000000000 PUSH1 0x20 DUP3 ADD MSTORE POP JUMP JUMPDEST PUSH1 0x0 PUSH2 0x1E3D PUSH1 0x26 DUP4 PUSH2 0x17C5 JUMP JUMPDEST SWAP2 POP PUSH2 0x1E48 DUP3 PUSH2 0x1DE1 JUMP JUMPDEST PUSH1 0x40 DUP3 ADD SWAP1 POP SWAP2 SWAP1 POP JUMP JUMPDEST PUSH1 0x0 PUSH1 0x20 DUP3 ADD SWAP1 POP DUP2 DUP2 SUB PUSH1 0x0 DUP4 ADD MSTORE PUSH2 0x1E6C DUP2 PUSH2 0x1E30 JUMP JUMPDEST SWAP1 POP SWAP2 SWAP1 POP JUMP JUMPDEST PUSH1 0x0 DUP2 MLOAD SWAP1 POP PUSH2 0x1E82 DUP2 PUSH2 0x176C JUMP JUMPDEST SWAP3 SWAP2 POP POP JUMP JUMPDEST PUSH1 0x0 PUSH1 0x20 DUP3 DUP5 SUB SLT ISZERO PUSH2 0x1E9E JUMPI PUSH2 0x1E9D PUSH2 0x1511 JUMP JUMPDEST JUMPDEST PUSH1 0x0 PUSH2 0x1EAC DUP5 DUP3 DUP6 ADD PUSH2 0x1E73 JUMP JUMPDEST SWAP2 POP POP SWAP3 SWAP2 POP POP JUMP JUMPDEST PUSH32 0x596F7520646F6E277420686F6C64207468697320746F6B656E00000000000000 PUSH1 0x0 DUP3 ADD MSTORE POP JUMP JUMPDEST PUSH1 0x0 PUSH2 0x1EEB PUSH1 0x19 DUP4 PUSH2 0x17C5 JUMP JUMPDEST SWAP2 POP PUSH2 0x1EF6 DUP3 PUSH2 0x1EB5 JUMP JUMPDEST PUSH1 0x20 DUP3 ADD SWAP1 POP SWAP2 SWAP1 POP JUMP JUMPDEST PUSH1 0x0 PUSH1 0x20 DUP3 ADD SWAP1 POP DUP2 DUP2 SUB PUSH1 0x0 DUP4 ADD MSTORE PUSH2 0x1F1A DUP2 PUSH2 0x1EDE JUMP JUMPDEST SWAP1 POP SWAP2 SWAP1 POP JUMP JUMPDEST PUSH1 0x0 PUSH2 0x1F2C DUP3 PUSH2 0x151B JUMP JUMPDEST SWAP2 POP PUSH2 0x1F37 DUP4 PUSH2 0x151B JUMP JUMPDEST SWAP3 POP DUP2 PUSH32 0xFFFFFFFFFFFFFFFFFFFFFFFFFFFFFFFFFFFFFFFFFFFFFFFFFFFFFFFFFFFFFFFF DIV DUP4 GT DUP3 ISZERO ISZERO AND ISZERO PUSH2 0x1F70 JUMPI PUSH2 0x1F6F PUSH2 0x19B5 JUMP JUMPDEST JUMPDEST DUP3 DUP3 MUL SWAP1 POP SWAP3 SWAP2 POP POP JUMP JUMPDEST PUSH32 0x4E487B7100000000000000000000000000000000000000000000000000000000 PUSH1 0x0 MSTORE PUSH1 0x12 PUSH1 0x4 MSTORE PUSH1 0x24 PUSH1 0x0 REVERT JUMPDEST PUSH1 0x0 PUSH2 0x1FB5 DUP3 PUSH2 0x151B JUMP JUMPDEST SWAP2 POP PUSH2 0x1FC0 DUP4 PUSH2 0x151B JUMP JUMPDEST SWAP3 POP DUP3 PUSH2 0x1FD0 JUMPI PUSH2 0x1FCF PUSH2 0x1F7B JUMP JUMPDEST JUMPDEST DUP3 DUP3 DIV SWAP1 POP SWAP3 SWAP2 POP POP JUMP JUMPDEST PUSH32 0x4F776E61626C653A2063616C6C6572206973206E6F7420746865206F776E6572 PUSH1 0x0 DUP3 ADD MSTORE POP JUMP JUMPDEST PUSH1 0x0 PUSH2 0x2011 PUSH1 0x20 DUP4 PUSH2 0x17C5 JUMP JUMPDEST SWAP2 POP PUSH2 0x201C DUP3 PUSH2 0x1FDB JUMP JUMPDEST PUSH1 0x20 DUP3 ADD SWAP1 POP SWAP2 SWAP1 POP JUMP JUMPDEST PUSH1 0x0 PUSH1 0x20 DUP3 ADD SWAP1 POP DUP2 DUP2 SUB PUSH1 0x0 DUP4 ADD MSTORE PUSH2 0x2040 DUP2 PUSH2 0x2004 JUMP JUMPDEST SWAP1 POP SWAP2 SWAP1 POP JUMP INVALID LOG2 PUSH5 0x6970667358 0x22 SLT KECCAK256 0xD1 MSIZE LOG3 JUMPI 0x5C SWAP6 SIGNEXTEND SELFDESTRUCT COINBASE 0xCC 0x2C 0xC4 0xA8 0x1F ORIGIN SAR 0x2A PUSH18 0x3BA3215F75FA14A98516C3F0D20864736F6C PUSH4 0x43000810 STOP CALLER "
				},
				"gasEstimates": {
					"creation": {
						"codeDepositCost": "1663400",
						"executionCost": "infinite",
						"totalCost": "infinite"
					},
					"external": {
						"WAVE()": "2496",
						"claimRewards(uint256[])": "infinite",
						"claimedRewards(uint256)": "infinite",
						"lockNFT(uint256[])": "infinite",
						"lockPeriod()": "2452",
						"owner()": "2545",
						"renounceOwnership()": "30465",
						"rewardsPerWave()": "2451",
						"rewardsToken()": "infinite",
						"setLockPeriod(uint256)": "infinite",
						"stakeNFT()": "infinite",
						"transferOwnership(address)": "30810",
						"unlockNFT(uint256[])": "infinite"
					},
					"internal": {
						"_rewardAmount(uint256)": "infinite"
					}
				},
				"methodIdentifiers": {
					"WAVE()": "c69d1923",
					"claimRewards(uint256[])": "5eac6239",
					"claimedRewards(uint256)": "20281a98",
					"lockNFT(uint256[])": "ff5d8450",
					"lockPeriod()": "3fd8b02f",
					"owner()": "8da5cb5b",
					"renounceOwnership()": "715018a6",
					"rewardsPerWave()": "cb12f660",
					"rewardsToken()": "d1af0c7d",
					"setLockPeriod(uint256)": "779972da",
					"stakeNFT()": "b48509e6",
					"transferOwnership(address)": "f2fde38b",
					"unlockNFT(uint256[])": "849a1e1d"
				}
			},
			"storageLayout": {
				"storage": [
					{
						"astId": 7,
						"contract": "contracts/NFTStaking.sol:NFTStaking1",
						"label": "_owner",
						"offset": 0,
						"slot": "0",
						"type": "t_address"
					},
					{
						"astId": 123,
						"contract": "contracts/NFTStaking.sol:NFTStaking1",
						"label": "_status",
						"offset": 0,
						"slot": "1",
						"type": "t_uint256"
					},
					{
						"astId": 620,
						"contract": "contracts/NFTStaking.sol:NFTStaking1",
						"label": "lockPeriod",
						"offset": 0,
						"slot": "2",
						"type": "t_uint256"
					},
					{
						"astId": 634,
						"contract": "contracts/NFTStaking.sol:NFTStaking1",
						"label": "lockInfo",
						"offset": 0,
						"slot": "3",
						"type": "t_mapping(t_uint256,t_struct(LockInfo)629_storage)"
					},
					{
						"astId": 637,
						"contract": "contracts/NFTStaking.sol:NFTStaking1",
						"label": "WAVE",
						"offset": 0,
						"slot": "4",
						"type": "t_uint256"
					},
					{
						"astId": 639,
						"contract": "contracts/NFTStaking.sol:NFTStaking1",
						"label": "rewardsPerWave",
						"offset": 0,
						"slot": "5",
						"type": "t_uint256"
					}
				],
				"types": {
					"t_address": {
						"encoding": "inplace",
						"label": "address",
						"numberOfBytes": "20"
					},
					"t_bool": {
						"encoding": "inplace",
						"label": "bool",
						"numberOfBytes": "1"
					},
					"t_mapping(t_uint256,t_struct(LockInfo)629_storage)": {
						"encoding": "mapping",
						"key": "t_uint256",
						"label": "mapping(uint256 => struct NFTStaking1.LockInfo)",
						"numberOfBytes": "32",
						"value": "t_struct(LockInfo)629_storage"
					},
					"t_struct(LockInfo)629_storage": {
						"encoding": "inplace",
						"label": "struct NFTStaking1.LockInfo",
						"members": [
							{
								"astId": 622,
								"contract": "contracts/NFTStaking.sol:NFTStaking1",
								"label": "owner",
								"offset": 0,
								"slot": "0",
								"type": "t_address"
							},
							{
								"astId": 624,
								"contract": "contracts/NFTStaking.sol:NFTStaking1",
								"label": "lockedTime",
								"offset": 0,
								"slot": "1",
								"type": "t_uint256"
							},
							{
								"astId": 626,
								"contract": "contracts/NFTStaking.sol:NFTStaking1",
								"label": "claimedRewards",
								"offset": 0,
								"slot": "2",
								"type": "t_uint256"
							},
							{
								"astId": 628,
								"contract": "contracts/NFTStaking.sol:NFTStaking1",
								"label": "isUnlocked",
								"offset": 0,
								"slot": "3",
								"type": "t_bool"
							}
						],
						"numberOfBytes": "128"
					},
					"t_uint256": {
						"encoding": "inplace",
						"label": "uint256",
						"numberOfBytes": "32"
					}
				}
			},
			"userdoc": {
				"kind": "user",
				"methods": {
					"WAVE()": {
						"notice": "CONSTANTS "
					}
				},
				"version": 1
			}
		}
	}
}