{
	"contracts/Staking.sol": {
		"NFTStaking1": {
			"abi": [
				{
					"inputs": [
						{
							"internalType": "address[]",
							"name": "_stakeNFT",
							"type": "address[]"
						},
						{
							"internalType": "address[]",
							"name": "_rewardsToken",
							"type": "address[]"
						},
						{
							"internalType": "uint256",
							"name": "_lockPeriod",
							"type": "uint256"
						},
						{
							"internalType": "uint256[]",
							"name": "_rewardPerWave",
							"type": "uint256[]"
						},
						{
							"internalType": "uint256[]",
							"name": "_rewardPercentage",
							"type": "uint256[]"
						},
						{
							"internalType": "uint256",
							"name": "_wave",
							"type": "uint256"
						}
					],
					"stateMutability": "nonpayable",
					"type": "constructor"
				},
				{
					"anonymous": false,
					"inputs": [
						{
							"indexed": false,
							"internalType": "uint256",
							"name": "lockPeriod",
							"type": "uint256"
						}
					],
					"name": "LockPeriodUpdated",
					"type": "event"
				},
				{
					"anonymous": false,
					"inputs": [
						{
							"indexed": true,
							"internalType": "address",
							"name": "owner",
							"type": "address"
						},
						{
							"indexed": false,
							"internalType": "uint256[]",
							"name": "tokenIds",
							"type": "uint256[]"
						}
					],
					"name": "NFTLocked",
					"type": "event"
				},
				{
					"anonymous": false,
					"inputs": [
						{
							"indexed": true,
							"internalType": "address",
							"name": "owner",
							"type": "address"
						},
						{
							"indexed": false,
							"internalType": "uint256[]",
							"name": "tokenIds",
							"type": "uint256[]"
						}
					],
					"name": "NFTUnLocked",
					"type": "event"
				},
				{
					"anonymous": false,
					"inputs": [
						{
							"indexed": true,
							"internalType": "address",
							"name": "previousOwner",
							"type": "address"
						},
						{
							"indexed": true,
							"internalType": "address",
							"name": "newOwner",
							"type": "address"
						}
					],
					"name": "OwnershipTransferred",
					"type": "event"
				},
				{
					"anonymous": false,
					"inputs": [
						{
							"indexed": true,
							"internalType": "address",
							"name": "owner",
							"type": "address"
						},
						{
							"indexed": false,
							"internalType": "uint256[]",
							"name": "tokenIds",
							"type": "uint256[]"
						},
						{
							"indexed": false,
							"internalType": "uint256",
							"name": "rewards",
							"type": "uint256"
						}
					],
					"name": "RewardsClaimed",
					"type": "event"
				},
				{
					"inputs": [],
					"name": "WAVE",
					"outputs": [
						{
							"internalType": "uint256",
							"name": "",
							"type": "uint256"
						}
					],
					"stateMutability": "view",
					"type": "function"
				},
				{
					"inputs": [
						{
							"internalType": "uint256[]",
							"name": "_tokenIds",
							"type": "uint256[]"
						},
						{
							"internalType": "contract IERC721",
							"name": "nftAddress",
							"type": "address"
						}
					],
					"name": "claimRewards",
					"outputs": [],
					"stateMutability": "nonpayable",
					"type": "function"
				},
				{
					"inputs": [
						{
							"internalType": "uint256",
							"name": "_tokenId",
							"type": "uint256"
						},
						{
							"internalType": "contract IERC721",
							"name": "nftAddress",
							"type": "address"
						}
					],
					"name": "claimedRewards",
					"outputs": [
						{
							"internalType": "uint256",
							"name": "",
							"type": "uint256"
						}
					],
					"stateMutability": "view",
					"type": "function"
				},
				{
					"inputs": [
						{
							"internalType": "contract IERC721",
							"name": "",
							"type": "address"
						},
						{
							"internalType": "uint256",
							"name": "",
							"type": "uint256"
						}
					],
					"name": "lockInfo",
					"outputs": [
						{
							"internalType": "address",
							"name": "owner",
							"type": "address"
						},
						{
							"internalType": "uint256",
							"name": "lockedTime",
							"type": "uint256"
						},
						{
							"internalType": "uint256",
							"name": "claimedRewards",
							"type": "uint256"
						},
						{
							"internalType": "bool",
							"name": "isUnlocked",
							"type": "bool"
						},
						{
							"internalType": "contract IERC721",
							"name": "contractAddress",
							"type": "address"
						}
					],
					"stateMutability": "view",
					"type": "function"
				},
				{
					"inputs": [
						{
							"internalType": "uint256[]",
							"name": "_tokenIds",
							"type": "uint256[]"
						},
						{
							"internalType": "contract IERC721",
							"name": "nftAddress",
							"type": "address"
						}
					],
					"name": "lockNFT",
					"outputs": [],
					"stateMutability": "nonpayable",
					"type": "function"
				},
				{
					"inputs": [],
					"name": "lockPeriod",
					"outputs": [
						{
							"internalType": "uint256",
							"name": "",
							"type": "uint256"
						}
					],
					"stateMutability": "view",
					"type": "function"
				},
				{
					"inputs": [
						{
							"internalType": "contract IERC721",
							"name": "",
							"type": "address"
						}
					],
					"name": "nftInfo",
					"outputs": [
						{
							"internalType": "contract IRewardsToken",
							"name": "rewardsToken",
							"type": "address"
						},
						{
							"internalType": "uint256",
							"name": "rewardsPerWave",
							"type": "uint256"
						},
						{
							"internalType": "uint256",
							"name": "rewardPercentage",
							"type": "uint256"
						}
					],
					"stateMutability": "view",
					"type": "function"
				},
				{
					"inputs": [],
					"name": "owner",
					"outputs": [
						{
							"internalType": "address",
							"name": "",
							"type": "address"
						}
					],
					"stateMutability": "view",
					"type": "function"
				},
				{
					"inputs": [],
					"name": "renounceOwnership",
					"outputs": [],
					"stateMutability": "nonpayable",
					"type": "function"
				},
				{
					"inputs": [
						{
							"internalType": "uint256",
							"name": "_lockPeriod",
							"type": "uint256"
						}
					],
					"name": "setLockPeriod",
					"outputs": [],
					"stateMutability": "nonpayable",
					"type": "function"
				},
				{
					"inputs": [
						{
							"internalType": "address[]",
							"name": "_stakeNFT",
							"type": "address[]"
						},
						{
							"internalType": "address[]",
							"name": "_rewardsToken",
							"type": "address[]"
						},
						{
							"internalType": "uint256[]",
							"name": "_rewardPerWave",
							"type": "uint256[]"
						},
						{
							"internalType": "uint256[]",
							"name": "_rewardPercentage",
							"type": "uint256[]"
						},
						{
							"internalType": "uint256",
							"name": "_wave",
							"type": "uint256"
						}
					],
					"name": "setLockPeriod",
					"outputs": [],
					"stateMutability": "nonpayable",
					"type": "function"
				},
				{
					"inputs": [
						{
							"internalType": "address",
							"name": "newOwner",
							"type": "address"
						}
					],
					"name": "transferOwnership",
					"outputs": [],
					"stateMutability": "nonpayable",
					"type": "function"
				},
				{
					"inputs": [
						{
							"internalType": "uint256[]",
							"name": "_tokenIds",
							"type": "uint256[]"
						},
						{
							"internalType": "contract IERC721",
							"name": "nftAddress",
							"type": "address"
						}
					],
					"name": "unlockNFT",
					"outputs": [],
					"stateMutability": "nonpayable",
					"type": "function"
				}
			],
			"devdoc": {
				"kind": "dev",
				"methods": {
					"claimRewards(uint256[],address)": {
						"details": "claim rewards",
						"params": {
							"_tokenIds": "token ids to unlock"
						}
					},
					"claimedRewards(uint256,address)": {
						"details": "get total claimed rewards for token id",
						"params": {
							"_tokenId": "token id to get claimed Rewards amount"
						}
					},
					"lockNFT(uint256[],address)": {
						"details": "lock NFT into the contract",
						"params": {
							"_tokenIds": "token ids to stake"
						}
					},
					"owner()": {
						"details": "Returns the address of the current owner."
					},
					"renounceOwnership()": {
						"details": "Leaves the contract without owner. It will not be possible to call `onlyOwner` functions anymore. Can only be called by the current owner. NOTE: Renouncing ownership will leave the contract without an owner, thereby removing any functionality that is only available to the owner."
					},
					"setLockPeriod(uint256)": {
						"details": "update lock period",
						"params": {
							"_lockPeriod": "lock period to set"
						}
					},
					"transferOwnership(address)": {
						"details": "Transfers ownership of the contract to a new account (`newOwner`). Can only be called by the current owner."
					},
					"unlockNFT(uint256[],address)": {
						"details": "unlock NFT from the contract",
						"params": {
							"_tokenIds": "token ids to unlock"
						}
					}
				},
				"version": 1
			},
			"evm": {
				"assembly": "    /* \"contracts/Staking.sol\":412:7816  contract NFTStaking1 is Ownable, ReentrancyGuard {... */\n  mstore(0x40, 0x80)\n    /* \"contracts/Staking.sol\":1581:2503  constructor(... */\n  callvalue\n  dup1\n  iszero\n  tag_1\n  jumpi\n  0x00\n  dup1\n  revert\ntag_1:\n  pop\n  mload(0x40)\n  sub(codesize, bytecodeSize)\n  dup1\n  bytecodeSize\n  dup4\n  codecopy\n  dup2\n  dup2\n  add\n  0x40\n  mstore\n  dup2\n  add\n  swap1\n  tag_2\n  swap2\n  swap1\n  tag_3\n  jump\t// in\ntag_2:\n    /* \"@openzeppelin/contracts/access/Ownable.sol\":936:968  _transferOwnership(_msgSender()) */\n  tag_8\n    /* \"@openzeppelin/contracts/access/Ownable.sol\":955:967  _msgSender() */\n  tag_9\n    /* \"@openzeppelin/contracts/access/Ownable.sol\":955:965  _msgSender */\n  shl(0x20, tag_10)\n    /* \"@openzeppelin/contracts/access/Ownable.sol\":955:967  _msgSender() */\n  0x20\n  shr\n  jump\t// in\ntag_9:\n    /* \"@openzeppelin/contracts/access/Ownable.sol\":936:954  _transferOwnership */\n  shl(0x20, tag_11)\n    /* \"@openzeppelin/contracts/access/Ownable.sol\":936:968  _transferOwnership(_msgSender()) */\n  0x20\n  shr\n  jump\t// in\ntag_8:\n    /* \"@openzeppelin/contracts/security/ReentrancyGuard.sol\":1701:1702  1 */\n  0x01\n    /* \"@openzeppelin/contracts/security/ReentrancyGuard.sol\":1806:1813  _status */\n  dup1\n    /* \"@openzeppelin/contracts/security/ReentrancyGuard.sol\":1806:1828  _status = _NOT_ENTERED */\n  dup2\n  swap1\n  sstore\n  pop\n    /* \"contracts/Staking.sol\":2087:2088  0 */\n  0x00\n    /* \"contracts/Staking.sol\":2073:2084  _lockPeriod */\n  dup5\n    /* \"contracts/Staking.sol\":2073:2088  _lockPeriod > 0 */\n  gt\n    /* \"contracts/Staking.sol\":2065:2112  require(_lockPeriod > 0, \"Invalid lock period\") */\n  tag_14\n  jumpi\n  mload(0x40)\n  0x08c379a000000000000000000000000000000000000000000000000000000000\n  dup2\n  mstore\n  0x04\n  add\n  tag_15\n  swap1\n  tag_16\n  jump\t// in\ntag_15:\n  mload(0x40)\n  dup1\n  swap2\n  sub\n  swap1\n  revert\ntag_14:\n    /* \"contracts/Staking.sol\":2130:2136  uint i */\n  0x00\n    /* \"contracts/Staking.sol\":2125:2436  for (uint i = 0; i < _stakeNFT.length; i++) {... */\ntag_17:\n    /* \"contracts/Staking.sol\":2146:2155  _stakeNFT */\n  dup7\n    /* \"contracts/Staking.sol\":2146:2162  _stakeNFT.length */\n  mload\n    /* \"contracts/Staking.sol\":2142:2143  i */\n  dup2\n    /* \"contracts/Staking.sol\":2142:2162  i < _stakeNFT.length */\n  lt\n    /* \"contracts/Staking.sol\":2125:2436  for (uint i = 0; i < _stakeNFT.length; i++) {... */\n  iszero\n  tag_18\n  jumpi\n    /* \"contracts/Staking.sol\":2246:2259  _rewardsToken */\n  dup6\n    /* \"contracts/Staking.sol\":2260:2261  i */\n  dup2\n    /* \"contracts/Staking.sol\":2246:2262  _rewardsToken[i] */\n  dup2\n  mload\n  dup2\n  lt\n  tag_20\n  jumpi\n  tag_21\n  tag_22\n  jump\t// in\ntag_21:\ntag_20:\n  0x20\n  mul\n  0x20\n  add\n  add\n  mload\n    /* \"contracts/Staking.sol\":2186:2193  nftInfo */\n  0x04\n    /* \"contracts/Staking.sol\":2186:2216  nftInfo[IERC721(_stakeNFT[i])] */\n  0x00\n    /* \"contracts/Staking.sol\":2202:2211  _stakeNFT */\n  dup10\n    /* \"contracts/Staking.sol\":2212:2213  i */\n  dup5\n    /* \"contracts/Staking.sol\":2202:2214  _stakeNFT[i] */\n  dup2\n  mload\n  dup2\n  lt\n  tag_23\n  jumpi\n  tag_24\n  tag_22\n  jump\t// in\ntag_24:\ntag_23:\n  0x20\n  mul\n  0x20\n  add\n  add\n  mload\n    /* \"contracts/Staking.sol\":2186:2216  nftInfo[IERC721(_stakeNFT[i])] */\n  0xffffffffffffffffffffffffffffffffffffffff\n  and\n  0xffffffffffffffffffffffffffffffffffffffff\n  and\n  dup2\n  mstore\n  0x20\n  add\n  swap1\n  dup2\n  mstore\n  0x20\n  add\n  0x00\n  keccak256\n    /* \"contracts/Staking.sol\":2186:2229  nftInfo[IERC721(_stakeNFT[i])].rewardsToken */\n  0x00\n  add\n  0x00\n    /* \"contracts/Staking.sol\":2186:2263  nftInfo[IERC721(_stakeNFT[i])].rewardsToken = IRewardsToken(_rewardsToken[i]) */\n  0x0100\n  exp\n  dup2\n  sload\n  dup2\n  0xffffffffffffffffffffffffffffffffffffffff\n  mul\n  not\n  and\n  swap1\n  dup4\n  0xffffffffffffffffffffffffffffffffffffffff\n  and\n  mul\n  or\n  swap1\n  sstore\n  pop\n    /* \"contracts/Staking.sol\":2326:2340  _rewardPerWave */\n  dup4\n    /* \"contracts/Staking.sol\":2341:2342  i */\n  dup2\n    /* \"contracts/Staking.sol\":2326:2343  _rewardPerWave[i] */\n  dup2\n  mload\n  dup2\n  lt\n  tag_25\n  jumpi\n  tag_26\n  tag_22\n  jump\t// in\ntag_26:\ntag_25:\n  0x20\n  mul\n  0x20\n  add\n  add\n  mload\n    /* \"contracts/Staking.sol\":2278:2285  nftInfo */\n  0x04\n    /* \"contracts/Staking.sol\":2278:2308  nftInfo[IERC721(_stakeNFT[i])] */\n  0x00\n    /* \"contracts/Staking.sol\":2294:2303  _stakeNFT */\n  dup10\n    /* \"contracts/Staking.sol\":2304:2305  i */\n  dup5\n    /* \"contracts/Staking.sol\":2294:2306  _stakeNFT[i] */\n  dup2\n  mload\n  dup2\n  lt\n  tag_27\n  jumpi\n  tag_28\n  tag_22\n  jump\t// in\ntag_28:\ntag_27:\n  0x20\n  mul\n  0x20\n  add\n  add\n  mload\n    /* \"contracts/Staking.sol\":2278:2308  nftInfo[IERC721(_stakeNFT[i])] */\n  0xffffffffffffffffffffffffffffffffffffffff\n  and\n  0xffffffffffffffffffffffffffffffffffffffff\n  and\n  dup2\n  mstore\n  0x20\n  add\n  swap1\n  dup2\n  mstore\n  0x20\n  add\n  0x00\n  keccak256\n    /* \"contracts/Staking.sol\":2278:2323  nftInfo[IERC721(_stakeNFT[i])].rewardsPerWave */\n  0x01\n  add\n    /* \"contracts/Staking.sol\":2278:2343  nftInfo[IERC721(_stakeNFT[i])].rewardsPerWave = _rewardPerWave[i] */\n  dup2\n  swap1\n  sstore\n  pop\n    /* \"contracts/Staking.sol\":2408:2425  _rewardPercentage */\n  dup3\n    /* \"contracts/Staking.sol\":2426:2427  i */\n  dup2\n    /* \"contracts/Staking.sol\":2408:2428  _rewardPercentage[i] */\n  dup2\n  mload\n  dup2\n  lt\n  tag_29\n  jumpi\n  tag_30\n  tag_22\n  jump\t// in\ntag_30:\ntag_29:\n  0x20\n  mul\n  0x20\n  add\n  add\n  mload\n    /* \"contracts/Staking.sol\":2358:2365  nftInfo */\n  0x04\n    /* \"contracts/Staking.sol\":2358:2388  nftInfo[IERC721(_stakeNFT[i])] */\n  0x00\n    /* \"contracts/Staking.sol\":2374:2383  _stakeNFT */\n  dup10\n    /* \"contracts/Staking.sol\":2384:2385  i */\n  dup5\n    /* \"contracts/Staking.sol\":2374:2386  _stakeNFT[i] */\n  dup2\n  mload\n  dup2\n  lt\n  tag_31\n  jumpi\n  tag_32\n  tag_22\n  jump\t// in\ntag_32:\ntag_31:\n  0x20\n  mul\n  0x20\n  add\n  add\n  mload\n    /* \"contracts/Staking.sol\":2358:2388  nftInfo[IERC721(_stakeNFT[i])] */\n  0xffffffffffffffffffffffffffffffffffffffff\n  and\n  0xffffffffffffffffffffffffffffffffffffffff\n  and\n  dup2\n  mstore\n  0x20\n  add\n  swap1\n  dup2\n  mstore\n  0x20\n  add\n  0x00\n  keccak256\n    /* \"contracts/Staking.sol\":2358:2405  nftInfo[IERC721(_stakeNFT[i])].rewardPercentage */\n  0x02\n  add\n    /* \"contracts/Staking.sol\":2358:2428  nftInfo[IERC721(_stakeNFT[i])].rewardPercentage = _rewardPercentage[i] */\n  dup2\n  swap1\n  sstore\n  pop\n    /* \"contracts/Staking.sol\":2164:2167  i++ */\n  dup1\n  dup1\n  tag_33\n  swap1\n  tag_34\n  jump\t// in\ntag_33:\n  swap2\n  pop\n  pop\n    /* \"contracts/Staking.sol\":2125:2436  for (uint i = 0; i < _stakeNFT.length; i++) {... */\n  jump(tag_17)\ntag_18:\n  pop\n    /* \"contracts/Staking.sol\":2461:2472  _lockPeriod */\n  dup4\n    /* \"contracts/Staking.sol\":2448:2458  lockPeriod */\n  0x02\n    /* \"contracts/Staking.sol\":2448:2472  lockPeriod = _lockPeriod */\n  dup2\n  swap1\n  sstore\n  pop\n    /* \"contracts/Staking.sol\":2490:2495  _wave */\n  dup1\n    /* \"contracts/Staking.sol\":2483:2487  WAVE */\n  0x05\n    /* \"contracts/Staking.sol\":2483:2495  WAVE = _wave */\n  dup2\n  swap1\n  sstore\n  pop\n    /* \"contracts/Staking.sol\":1581:2503  constructor(... */\n  pop\n  pop\n  pop\n  pop\n  pop\n  pop\n    /* \"contracts/Staking.sol\":412:7816  contract NFTStaking1 is Ownable, ReentrancyGuard {... */\n  jump(tag_35)\n    /* \"@openzeppelin/contracts/utils/Context.sol\":640:736  function _msgSender() internal view virtual returns (address) {... */\ntag_10:\n    /* \"@openzeppelin/contracts/utils/Context.sol\":693:700  address */\n  0x00\n    /* \"@openzeppelin/contracts/utils/Context.sol\":719:729  msg.sender */\n  caller\n    /* \"@openzeppelin/contracts/utils/Context.sol\":712:729  return msg.sender */\n  swap1\n  pop\n    /* \"@openzeppelin/contracts/utils/Context.sol\":640:736  function _msgSender() internal view virtual returns (address) {... */\n  swap1\n  jump\t// out\n    /* \"@openzeppelin/contracts/access/Ownable.sol\":2433:2620  function _transferOwnership(address newOwner) internal virtual {... */\ntag_11:\n    /* \"@openzeppelin/contracts/access/Ownable.sol\":2506:2522  address oldOwner */\n  0x00\n    /* \"@openzeppelin/contracts/access/Ownable.sol\":2525:2531  _owner */\n  dup1\n  0x00\n  swap1\n  sload\n  swap1\n  0x0100\n  exp\n  swap1\n  div\n  0xffffffffffffffffffffffffffffffffffffffff\n  and\n    /* \"@openzeppelin/contracts/access/Ownable.sol\":2506:2531  address oldOwner = _owner */\n  swap1\n  pop\n    /* \"@openzeppelin/contracts/access/Ownable.sol\":2550:2558  newOwner */\n  dup2\n    /* \"@openzeppelin/contracts/access/Ownable.sol\":2541:2547  _owner */\n  0x00\n  dup1\n    /* \"@openzeppelin/contracts/access/Ownable.sol\":2541:2558  _owner = newOwner */\n  0x0100\n  exp\n  dup2\n  sload\n  dup2\n  0xffffffffffffffffffffffffffffffffffffffff\n  mul\n  not\n  and\n  swap1\n  dup4\n  0xffffffffffffffffffffffffffffffffffffffff\n  and\n  mul\n  or\n  swap1\n  sstore\n  pop\n    /* \"@openzeppelin/contracts/access/Ownable.sol\":2604:2612  newOwner */\n  dup2\n    /* \"@openzeppelin/contracts/access/Ownable.sol\":2573:2613  OwnershipTransferred(oldOwner, newOwner) */\n  0xffffffffffffffffffffffffffffffffffffffff\n  and\n    /* \"@openzeppelin/contracts/access/Ownable.sol\":2594:2602  oldOwner */\n  dup2\n    /* \"@openzeppelin/contracts/access/Ownable.sol\":2573:2613  OwnershipTransferred(oldOwner, newOwner) */\n  0xffffffffffffffffffffffffffffffffffffffff\n  and\n  0x8be0079c531659141344cd1fd0a4f28419497f9722a3daafe3b4186f6b6457e0\n  mload(0x40)\n  mload(0x40)\n  dup1\n  swap2\n  sub\n  swap1\n  log3\n    /* \"@openzeppelin/contracts/access/Ownable.sol\":2496:2620  {... */\n  pop\n    /* \"@openzeppelin/contracts/access/Ownable.sol\":2433:2620  function _transferOwnership(address newOwner) internal virtual {... */\n  pop\n  jump\t// out\n    /* \"#utility.yul\":7:82   */\ntag_38:\n    /* \"#utility.yul\":40:46   */\n  0x00\n    /* \"#utility.yul\":73:75   */\n  0x40\n    /* \"#utility.yul\":67:76   */\n  mload\n    /* \"#utility.yul\":57:76   */\n  swap1\n  pop\n    /* \"#utility.yul\":7:82   */\n  swap1\n  jump\t// out\n    /* \"#utility.yul\":88:205   */\ntag_39:\n    /* \"#utility.yul\":197:198   */\n  0x00\n    /* \"#utility.yul\":194:195   */\n  dup1\n    /* \"#utility.yul\":187:199   */\n  revert\n    /* \"#utility.yul\":211:328   */\ntag_40:\n    /* \"#utility.yul\":320:321   */\n  0x00\n    /* \"#utility.yul\":317:318   */\n  dup1\n    /* \"#utility.yul\":310:322   */\n  revert\n    /* \"#utility.yul\":334:451   */\ntag_41:\n    /* \"#utility.yul\":443:444   */\n  0x00\n    /* \"#utility.yul\":440:441   */\n  dup1\n    /* \"#utility.yul\":433:445   */\n  revert\n    /* \"#utility.yul\":457:559   */\ntag_42:\n    /* \"#utility.yul\":498:504   */\n  0x00\n    /* \"#utility.yul\":549:551   */\n  0x1f\n    /* \"#utility.yul\":545:552   */\n  not\n    /* \"#utility.yul\":540:542   */\n  0x1f\n    /* \"#utility.yul\":533:538   */\n  dup4\n    /* \"#utility.yul\":529:543   */\n  add\n    /* \"#utility.yul\":525:553   */\n  and\n    /* \"#utility.yul\":515:553   */\n  swap1\n  pop\n    /* \"#utility.yul\":457:559   */\n  swap2\n  swap1\n  pop\n  jump\t// out\n    /* \"#utility.yul\":565:745   */\ntag_43:\n    /* \"#utility.yul\":613:690   */\n  0x4e487b7100000000000000000000000000000000000000000000000000000000\n    /* \"#utility.yul\":610:611   */\n  0x00\n    /* \"#utility.yul\":603:691   */\n  mstore\n    /* \"#utility.yul\":710:714   */\n  0x41\n    /* \"#utility.yul\":707:708   */\n  0x04\n    /* \"#utility.yul\":700:715   */\n  mstore\n    /* \"#utility.yul\":734:738   */\n  0x24\n    /* \"#utility.yul\":731:732   */\n  0x00\n    /* \"#utility.yul\":724:739   */\n  revert\n    /* \"#utility.yul\":751:1032   */\ntag_44:\n    /* \"#utility.yul\":834:861   */\n  tag_72\n    /* \"#utility.yul\":856:860   */\n  dup3\n    /* \"#utility.yul\":834:861   */\n  tag_42\n  jump\t// in\ntag_72:\n    /* \"#utility.yul\":826:832   */\n  dup2\n    /* \"#utility.yul\":822:862   */\n  add\n    /* \"#utility.yul\":964:970   */\n  dup2\n    /* \"#utility.yul\":952:962   */\n  dup2\n    /* \"#utility.yul\":949:971   */\n  lt\n    /* \"#utility.yul\":928:946   */\n  0xffffffffffffffff\n    /* \"#utility.yul\":916:926   */\n  dup3\n    /* \"#utility.yul\":913:947   */\n  gt\n    /* \"#utility.yul\":910:972   */\n  or\n    /* \"#utility.yul\":907:995   */\n  iszero\n  tag_73\n  jumpi\n    /* \"#utility.yul\":975:993   */\n  tag_74\n  tag_43\n  jump\t// in\ntag_74:\n    /* \"#utility.yul\":907:995   */\ntag_73:\n    /* \"#utility.yul\":1015:1025   */\n  dup1\n    /* \"#utility.yul\":1011:1013   */\n  0x40\n    /* \"#utility.yul\":1004:1026   */\n  mstore\n    /* \"#utility.yul\":794:1032   */\n  pop\n    /* \"#utility.yul\":751:1032   */\n  pop\n  pop\n  jump\t// out\n    /* \"#utility.yul\":1038:1167   */\ntag_45:\n    /* \"#utility.yul\":1072:1078   */\n  0x00\n    /* \"#utility.yul\":1099:1119   */\n  tag_76\n  tag_38\n  jump\t// in\ntag_76:\n    /* \"#utility.yul\":1089:1119   */\n  swap1\n  pop\n    /* \"#utility.yul\":1128:1161   */\n  tag_77\n    /* \"#utility.yul\":1156:1160   */\n  dup3\n    /* \"#utility.yul\":1148:1154   */\n  dup3\n    /* \"#utility.yul\":1128:1161   */\n  tag_44\n  jump\t// in\ntag_77:\n    /* \"#utility.yul\":1038:1167   */\n  swap2\n  swap1\n  pop\n  jump\t// out\n    /* \"#utility.yul\":1173:1484   */\ntag_46:\n    /* \"#utility.yul\":1250:1254   */\n  0x00\n    /* \"#utility.yul\":1340:1358   */\n  0xffffffffffffffff\n    /* \"#utility.yul\":1332:1338   */\n  dup3\n    /* \"#utility.yul\":1329:1359   */\n  gt\n    /* \"#utility.yul\":1326:1382   */\n  iszero\n  tag_79\n  jumpi\n    /* \"#utility.yul\":1362:1380   */\n  tag_80\n  tag_43\n  jump\t// in\ntag_80:\n    /* \"#utility.yul\":1326:1382   */\ntag_79:\n    /* \"#utility.yul\":1412:1416   */\n  0x20\n    /* \"#utility.yul\":1404:1410   */\n  dup3\n    /* \"#utility.yul\":1400:1417   */\n  mul\n    /* \"#utility.yul\":1392:1417   */\n  swap1\n  pop\n    /* \"#utility.yul\":1472:1476   */\n  0x20\n    /* \"#utility.yul\":1466:1470   */\n  dup2\n    /* \"#utility.yul\":1462:1477   */\n  add\n    /* \"#utility.yul\":1454:1477   */\n  swap1\n  pop\n    /* \"#utility.yul\":1173:1484   */\n  swap2\n  swap1\n  pop\n  jump\t// out\n    /* \"#utility.yul\":1490:1607   */\ntag_47:\n    /* \"#utility.yul\":1599:1600   */\n  0x00\n    /* \"#utility.yul\":1596:1597   */\n  dup1\n    /* \"#utility.yul\":1589:1601   */\n  revert\n    /* \"#utility.yul\":1613:1739   */\ntag_48:\n    /* \"#utility.yul\":1650:1657   */\n  0x00\n    /* \"#utility.yul\":1690:1732   */\n  0xffffffffffffffffffffffffffffffffffffffff\n    /* \"#utility.yul\":1683:1688   */\n  dup3\n    /* \"#utility.yul\":1679:1733   */\n  and\n    /* \"#utility.yul\":1668:1733   */\n  swap1\n  pop\n    /* \"#utility.yul\":1613:1739   */\n  swap2\n  swap1\n  pop\n  jump\t// out\n    /* \"#utility.yul\":1745:1841   */\ntag_49:\n    /* \"#utility.yul\":1782:1789   */\n  0x00\n    /* \"#utility.yul\":1811:1835   */\n  tag_84\n    /* \"#utility.yul\":1829:1834   */\n  dup3\n    /* \"#utility.yul\":1811:1835   */\n  tag_48\n  jump\t// in\ntag_84:\n    /* \"#utility.yul\":1800:1835   */\n  swap1\n  pop\n    /* \"#utility.yul\":1745:1841   */\n  swap2\n  swap1\n  pop\n  jump\t// out\n    /* \"#utility.yul\":1847:1969   */\ntag_50:\n    /* \"#utility.yul\":1920:1944   */\n  tag_86\n    /* \"#utility.yul\":1938:1943   */\n  dup2\n    /* \"#utility.yul\":1920:1944   */\n  tag_49\n  jump\t// in\ntag_86:\n    /* \"#utility.yul\":1913:1918   */\n  dup2\n    /* \"#utility.yul\":1910:1945   */\n  eq\n    /* \"#utility.yul\":1900:1963   */\n  tag_87\n  jumpi\n    /* \"#utility.yul\":1959:1960   */\n  0x00\n    /* \"#utility.yul\":1956:1957   */\n  dup1\n    /* \"#utility.yul\":1949:1961   */\n  revert\n    /* \"#utility.yul\":1900:1963   */\ntag_87:\n    /* \"#utility.yul\":1847:1969   */\n  pop\n  jump\t// out\n    /* \"#utility.yul\":1975:2118   */\ntag_51:\n    /* \"#utility.yul\":2032:2037   */\n  0x00\n    /* \"#utility.yul\":2063:2069   */\n  dup2\n    /* \"#utility.yul\":2057:2070   */\n  mload\n    /* \"#utility.yul\":2048:2070   */\n  swap1\n  pop\n    /* \"#utility.yul\":2079:2112   */\n  tag_89\n    /* \"#utility.yul\":2106:2111   */\n  dup2\n    /* \"#utility.yul\":2079:2112   */\n  tag_50\n  jump\t// in\ntag_89:\n    /* \"#utility.yul\":1975:2118   */\n  swap3\n  swap2\n  pop\n  pop\n  jump\t// out\n    /* \"#utility.yul\":2141:2873   */\ntag_52:\n    /* \"#utility.yul\":2248:2253   */\n  0x00\n    /* \"#utility.yul\":2273:2354   */\n  tag_91\n    /* \"#utility.yul\":2289:2353   */\n  tag_92\n    /* \"#utility.yul\":2346:2352   */\n  dup5\n    /* \"#utility.yul\":2289:2353   */\n  tag_46\n  jump\t// in\ntag_92:\n    /* \"#utility.yul\":2273:2354   */\n  tag_45\n  jump\t// in\ntag_91:\n    /* \"#utility.yul\":2264:2354   */\n  swap1\n  pop\n    /* \"#utility.yul\":2374:2379   */\n  dup1\n    /* \"#utility.yul\":2403:2409   */\n  dup4\n    /* \"#utility.yul\":2396:2401   */\n  dup3\n    /* \"#utility.yul\":2389:2410   */\n  mstore\n    /* \"#utility.yul\":2437:2441   */\n  0x20\n    /* \"#utility.yul\":2430:2435   */\n  dup3\n    /* \"#utility.yul\":2426:2442   */\n  add\n    /* \"#utility.yul\":2419:2442   */\n  swap1\n  pop\n    /* \"#utility.yul\":2490:2494   */\n  0x20\n    /* \"#utility.yul\":2482:2488   */\n  dup5\n    /* \"#utility.yul\":2478:2495   */\n  mul\n    /* \"#utility.yul\":2470:2476   */\n  dup4\n    /* \"#utility.yul\":2466:2496   */\n  add\n    /* \"#utility.yul\":2519:2522   */\n  dup6\n    /* \"#utility.yul\":2511:2517   */\n  dup2\n    /* \"#utility.yul\":2508:2523   */\n  gt\n    /* \"#utility.yul\":2505:2627   */\n  iszero\n  tag_93\n  jumpi\n    /* \"#utility.yul\":2538:2617   */\n  tag_94\n  tag_47\n  jump\t// in\ntag_94:\n    /* \"#utility.yul\":2505:2627   */\ntag_93:\n    /* \"#utility.yul\":2653:2659   */\n  dup4\n    /* \"#utility.yul\":2636:2867   */\ntag_95:\n    /* \"#utility.yul\":2670:2676   */\n  dup2\n    /* \"#utility.yul\":2665:2668   */\n  dup2\n    /* \"#utility.yul\":2662:2677   */\n  lt\n    /* \"#utility.yul\":2636:2867   */\n  iszero\n  tag_97\n  jumpi\n    /* \"#utility.yul\":2745:2748   */\n  dup1\n    /* \"#utility.yul\":2774:2822   */\n  tag_98\n    /* \"#utility.yul\":2818:2821   */\n  dup9\n    /* \"#utility.yul\":2806:2816   */\n  dup3\n    /* \"#utility.yul\":2774:2822   */\n  tag_51\n  jump\t// in\ntag_98:\n    /* \"#utility.yul\":2769:2772   */\n  dup5\n    /* \"#utility.yul\":2762:2823   */\n  mstore\n    /* \"#utility.yul\":2852:2856   */\n  0x20\n    /* \"#utility.yul\":2847:2850   */\n  dup5\n    /* \"#utility.yul\":2843:2857   */\n  add\n    /* \"#utility.yul\":2836:2857   */\n  swap4\n  pop\n    /* \"#utility.yul\":2712:2867   */\n  pop\n    /* \"#utility.yul\":2696:2700   */\n  0x20\n    /* \"#utility.yul\":2691:2694   */\n  dup2\n    /* \"#utility.yul\":2687:2701   */\n  add\n    /* \"#utility.yul\":2680:2701   */\n  swap1\n  pop\n    /* \"#utility.yul\":2636:2867   */\n  jump(tag_95)\ntag_97:\n    /* \"#utility.yul\":2640:2661   */\n  pop\n    /* \"#utility.yul\":2254:2873   */\n  pop\n  pop\n    /* \"#utility.yul\":2141:2873   */\n  swap4\n  swap3\n  pop\n  pop\n  pop\n  jump\t// out\n    /* \"#utility.yul\":2896:3281   */\ntag_53:\n    /* \"#utility.yul\":2978:2983   */\n  0x00\n    /* \"#utility.yul\":3027:3030   */\n  dup3\n    /* \"#utility.yul\":3020:3024   */\n  0x1f\n    /* \"#utility.yul\":3012:3018   */\n  dup4\n    /* \"#utility.yul\":3008:3025   */\n  add\n    /* \"#utility.yul\":3004:3031   */\n  slt\n    /* \"#utility.yul\":2994:3116   */\n  tag_100\n  jumpi\n    /* \"#utility.yul\":3035:3114   */\n  tag_101\n  tag_41\n  jump\t// in\ntag_101:\n    /* \"#utility.yul\":2994:3116   */\ntag_100:\n    /* \"#utility.yul\":3145:3151   */\n  dup2\n    /* \"#utility.yul\":3139:3152   */\n  mload\n    /* \"#utility.yul\":3170:3275   */\n  tag_102\n    /* \"#utility.yul\":3271:3274   */\n  dup5\n    /* \"#utility.yul\":3263:3269   */\n  dup3\n    /* \"#utility.yul\":3256:3260   */\n  0x20\n    /* \"#utility.yul\":3248:3254   */\n  dup7\n    /* \"#utility.yul\":3244:3261   */\n  add\n    /* \"#utility.yul\":3170:3275   */\n  tag_52\n  jump\t// in\ntag_102:\n    /* \"#utility.yul\":3161:3275   */\n  swap2\n  pop\n    /* \"#utility.yul\":2984:3281   */\n  pop\n    /* \"#utility.yul\":2896:3281   */\n  swap3\n  swap2\n  pop\n  pop\n  jump\t// out\n    /* \"#utility.yul\":3287:3364   */\ntag_54:\n    /* \"#utility.yul\":3324:3331   */\n  0x00\n    /* \"#utility.yul\":3353:3358   */\n  dup2\n    /* \"#utility.yul\":3342:3358   */\n  swap1\n  pop\n    /* \"#utility.yul\":3287:3364   */\n  swap2\n  swap1\n  pop\n  jump\t// out\n    /* \"#utility.yul\":3370:3492   */\ntag_55:\n    /* \"#utility.yul\":3443:3467   */\n  tag_105\n    /* \"#utility.yul\":3461:3466   */\n  dup2\n    /* \"#utility.yul\":3443:3467   */\n  tag_54\n  jump\t// in\ntag_105:\n    /* \"#utility.yul\":3436:3441   */\n  dup2\n    /* \"#utility.yul\":3433:3468   */\n  eq\n    /* \"#utility.yul\":3423:3486   */\n  tag_106\n  jumpi\n    /* \"#utility.yul\":3482:3483   */\n  0x00\n    /* \"#utility.yul\":3479:3480   */\n  dup1\n    /* \"#utility.yul\":3472:3484   */\n  revert\n    /* \"#utility.yul\":3423:3486   */\ntag_106:\n    /* \"#utility.yul\":3370:3492   */\n  pop\n  jump\t// out\n    /* \"#utility.yul\":3498:3641   */\ntag_56:\n    /* \"#utility.yul\":3555:3560   */\n  0x00\n    /* \"#utility.yul\":3586:3592   */\n  dup2\n    /* \"#utility.yul\":3580:3593   */\n  mload\n    /* \"#utility.yul\":3571:3593   */\n  swap1\n  pop\n    /* \"#utility.yul\":3602:3635   */\n  tag_108\n    /* \"#utility.yul\":3629:3634   */\n  dup2\n    /* \"#utility.yul\":3602:3635   */\n  tag_55\n  jump\t// in\ntag_108:\n    /* \"#utility.yul\":3498:3641   */\n  swap3\n  swap2\n  pop\n  pop\n  jump\t// out\n    /* \"#utility.yul\":3647:3958   */\ntag_57:\n    /* \"#utility.yul\":3724:3728   */\n  0x00\n    /* \"#utility.yul\":3814:3832   */\n  0xffffffffffffffff\n    /* \"#utility.yul\":3806:3812   */\n  dup3\n    /* \"#utility.yul\":3803:3833   */\n  gt\n    /* \"#utility.yul\":3800:3856   */\n  iszero\n  tag_110\n  jumpi\n    /* \"#utility.yul\":3836:3854   */\n  tag_111\n  tag_43\n  jump\t// in\ntag_111:\n    /* \"#utility.yul\":3800:3856   */\ntag_110:\n    /* \"#utility.yul\":3886:3890   */\n  0x20\n    /* \"#utility.yul\":3878:3884   */\n  dup3\n    /* \"#utility.yul\":3874:3891   */\n  mul\n    /* \"#utility.yul\":3866:3891   */\n  swap1\n  pop\n    /* \"#utility.yul\":3946:3950   */\n  0x20\n    /* \"#utility.yul\":3940:3944   */\n  dup2\n    /* \"#utility.yul\":3936:3951   */\n  add\n    /* \"#utility.yul\":3928:3951   */\n  swap1\n  pop\n    /* \"#utility.yul\":3647:3958   */\n  swap2\n  swap1\n  pop\n  jump\t// out\n    /* \"#utility.yul\":3981:4713   */\ntag_58:\n    /* \"#utility.yul\":4088:4093   */\n  0x00\n    /* \"#utility.yul\":4113:4194   */\n  tag_113\n    /* \"#utility.yul\":4129:4193   */\n  tag_114\n    /* \"#utility.yul\":4186:4192   */\n  dup5\n    /* \"#utility.yul\":4129:4193   */\n  tag_57\n  jump\t// in\ntag_114:\n    /* \"#utility.yul\":4113:4194   */\n  tag_45\n  jump\t// in\ntag_113:\n    /* \"#utility.yul\":4104:4194   */\n  swap1\n  pop\n    /* \"#utility.yul\":4214:4219   */\n  dup1\n    /* \"#utility.yul\":4243:4249   */\n  dup4\n    /* \"#utility.yul\":4236:4241   */\n  dup3\n    /* \"#utility.yul\":4229:4250   */\n  mstore\n    /* \"#utility.yul\":4277:4281   */\n  0x20\n    /* \"#utility.yul\":4270:4275   */\n  dup3\n    /* \"#utility.yul\":4266:4282   */\n  add\n    /* \"#utility.yul\":4259:4282   */\n  swap1\n  pop\n    /* \"#utility.yul\":4330:4334   */\n  0x20\n    /* \"#utility.yul\":4322:4328   */\n  dup5\n    /* \"#utility.yul\":4318:4335   */\n  mul\n    /* \"#utility.yul\":4310:4316   */\n  dup4\n    /* \"#utility.yul\":4306:4336   */\n  add\n    /* \"#utility.yul\":4359:4362   */\n  dup6\n    /* \"#utility.yul\":4351:4357   */\n  dup2\n    /* \"#utility.yul\":4348:4363   */\n  gt\n    /* \"#utility.yul\":4345:4467   */\n  iszero\n  tag_115\n  jumpi\n    /* \"#utility.yul\":4378:4457   */\n  tag_116\n  tag_47\n  jump\t// in\ntag_116:\n    /* \"#utility.yul\":4345:4467   */\ntag_115:\n    /* \"#utility.yul\":4493:4499   */\n  dup4\n    /* \"#utility.yul\":4476:4707   */\ntag_117:\n    /* \"#utility.yul\":4510:4516   */\n  dup2\n    /* \"#utility.yul\":4505:4508   */\n  dup2\n    /* \"#utility.yul\":4502:4517   */\n  lt\n    /* \"#utility.yul\":4476:4707   */\n  iszero\n  tag_119\n  jumpi\n    /* \"#utility.yul\":4585:4588   */\n  dup1\n    /* \"#utility.yul\":4614:4662   */\n  tag_120\n    /* \"#utility.yul\":4658:4661   */\n  dup9\n    /* \"#utility.yul\":4646:4656   */\n  dup3\n    /* \"#utility.yul\":4614:4662   */\n  tag_56\n  jump\t// in\ntag_120:\n    /* \"#utility.yul\":4609:4612   */\n  dup5\n    /* \"#utility.yul\":4602:4663   */\n  mstore\n    /* \"#utility.yul\":4692:4696   */\n  0x20\n    /* \"#utility.yul\":4687:4690   */\n  dup5\n    /* \"#utility.yul\":4683:4697   */\n  add\n    /* \"#utility.yul\":4676:4697   */\n  swap4\n  pop\n    /* \"#utility.yul\":4552:4707   */\n  pop\n    /* \"#utility.yul\":4536:4540   */\n  0x20\n    /* \"#utility.yul\":4531:4534   */\n  dup2\n    /* \"#utility.yul\":4527:4541   */\n  add\n    /* \"#utility.yul\":4520:4541   */\n  swap1\n  pop\n    /* \"#utility.yul\":4476:4707   */\n  jump(tag_117)\ntag_119:\n    /* \"#utility.yul\":4480:4501   */\n  pop\n    /* \"#utility.yul\":4094:4713   */\n  pop\n  pop\n    /* \"#utility.yul\":3981:4713   */\n  swap4\n  swap3\n  pop\n  pop\n  pop\n  jump\t// out\n    /* \"#utility.yul\":4736:5121   */\ntag_59:\n    /* \"#utility.yul\":4818:4823   */\n  0x00\n    /* \"#utility.yul\":4867:4870   */\n  dup3\n    /* \"#utility.yul\":4860:4864   */\n  0x1f\n    /* \"#utility.yul\":4852:4858   */\n  dup4\n    /* \"#utility.yul\":4848:4865   */\n  add\n    /* \"#utility.yul\":4844:4871   */\n  slt\n    /* \"#utility.yul\":4834:4956   */\n  tag_122\n  jumpi\n    /* \"#utility.yul\":4875:4954   */\n  tag_123\n  tag_41\n  jump\t// in\ntag_123:\n    /* \"#utility.yul\":4834:4956   */\ntag_122:\n    /* \"#utility.yul\":4985:4991   */\n  dup2\n    /* \"#utility.yul\":4979:4992   */\n  mload\n    /* \"#utility.yul\":5010:5115   */\n  tag_124\n    /* \"#utility.yul\":5111:5114   */\n  dup5\n    /* \"#utility.yul\":5103:5109   */\n  dup3\n    /* \"#utility.yul\":5096:5100   */\n  0x20\n    /* \"#utility.yul\":5088:5094   */\n  dup7\n    /* \"#utility.yul\":5084:5101   */\n  add\n    /* \"#utility.yul\":5010:5115   */\n  tag_58\n  jump\t// in\ntag_124:\n    /* \"#utility.yul\":5001:5115   */\n  swap2\n  pop\n    /* \"#utility.yul\":4824:5121   */\n  pop\n    /* \"#utility.yul\":4736:5121   */\n  swap3\n  swap2\n  pop\n  pop\n  jump\t// out\n    /* \"#utility.yul\":5127:7073   */\ntag_3:\n    /* \"#utility.yul\":5342:5348   */\n  0x00\n    /* \"#utility.yul\":5350:5356   */\n  dup1\n    /* \"#utility.yul\":5358:5364   */\n  0x00\n    /* \"#utility.yul\":5366:5372   */\n  dup1\n    /* \"#utility.yul\":5374:5380   */\n  0x00\n    /* \"#utility.yul\":5382:5388   */\n  dup1\n    /* \"#utility.yul\":5431:5434   */\n  0xc0\n    /* \"#utility.yul\":5419:5428   */\n  dup8\n    /* \"#utility.yul\":5410:5417   */\n  dup10\n    /* \"#utility.yul\":5406:5429   */\n  sub\n    /* \"#utility.yul\":5402:5435   */\n  slt\n    /* \"#utility.yul\":5399:5519   */\n  iszero\n  tag_126\n  jumpi\n    /* \"#utility.yul\":5438:5517   */\n  tag_127\n  tag_39\n  jump\t// in\ntag_127:\n    /* \"#utility.yul\":5399:5519   */\ntag_126:\n    /* \"#utility.yul\":5579:5580   */\n  0x00\n    /* \"#utility.yul\":5568:5577   */\n  dup8\n    /* \"#utility.yul\":5564:5581   */\n  add\n    /* \"#utility.yul\":5558:5582   */\n  mload\n    /* \"#utility.yul\":5609:5627   */\n  0xffffffffffffffff\n    /* \"#utility.yul\":5601:5607   */\n  dup2\n    /* \"#utility.yul\":5598:5628   */\n  gt\n    /* \"#utility.yul\":5595:5712   */\n  iszero\n  tag_128\n  jumpi\n    /* \"#utility.yul\":5631:5710   */\n  tag_129\n  tag_40\n  jump\t// in\ntag_129:\n    /* \"#utility.yul\":5595:5712   */\ntag_128:\n    /* \"#utility.yul\":5736:5825   */\n  tag_130\n    /* \"#utility.yul\":5817:5824   */\n  dup10\n    /* \"#utility.yul\":5808:5814   */\n  dup3\n    /* \"#utility.yul\":5797:5806   */\n  dup11\n    /* \"#utility.yul\":5793:5815   */\n  add\n    /* \"#utility.yul\":5736:5825   */\n  tag_53\n  jump\t// in\ntag_130:\n    /* \"#utility.yul\":5726:5825   */\n  swap7\n  pop\n    /* \"#utility.yul\":5529:5835   */\n  pop\n    /* \"#utility.yul\":5895:5897   */\n  0x20\n    /* \"#utility.yul\":5884:5893   */\n  dup8\n    /* \"#utility.yul\":5880:5898   */\n  add\n    /* \"#utility.yul\":5874:5899   */\n  mload\n    /* \"#utility.yul\":5926:5944   */\n  0xffffffffffffffff\n    /* \"#utility.yul\":5918:5924   */\n  dup2\n    /* \"#utility.yul\":5915:5945   */\n  gt\n    /* \"#utility.yul\":5912:6029   */\n  iszero\n  tag_131\n  jumpi\n    /* \"#utility.yul\":5948:6027   */\n  tag_132\n  tag_40\n  jump\t// in\ntag_132:\n    /* \"#utility.yul\":5912:6029   */\ntag_131:\n    /* \"#utility.yul\":6053:6142   */\n  tag_133\n    /* \"#utility.yul\":6134:6141   */\n  dup10\n    /* \"#utility.yul\":6125:6131   */\n  dup3\n    /* \"#utility.yul\":6114:6123   */\n  dup11\n    /* \"#utility.yul\":6110:6132   */\n  add\n    /* \"#utility.yul\":6053:6142   */\n  tag_53\n  jump\t// in\ntag_133:\n    /* \"#utility.yul\":6043:6142   */\n  swap6\n  pop\n    /* \"#utility.yul\":5845:6152   */\n  pop\n    /* \"#utility.yul\":6191:6193   */\n  0x40\n    /* \"#utility.yul\":6217:6281   */\n  tag_134\n    /* \"#utility.yul\":6273:6280   */\n  dup10\n    /* \"#utility.yul\":6264:6270   */\n  dup3\n    /* \"#utility.yul\":6253:6262   */\n  dup11\n    /* \"#utility.yul\":6249:6271   */\n  add\n    /* \"#utility.yul\":6217:6281   */\n  tag_56\n  jump\t// in\ntag_134:\n    /* \"#utility.yul\":6207:6281   */\n  swap5\n  pop\n    /* \"#utility.yul\":6162:6291   */\n  pop\n    /* \"#utility.yul\":6351:6353   */\n  0x60\n    /* \"#utility.yul\":6340:6349   */\n  dup8\n    /* \"#utility.yul\":6336:6354   */\n  add\n    /* \"#utility.yul\":6330:6355   */\n  mload\n    /* \"#utility.yul\":6382:6400   */\n  0xffffffffffffffff\n    /* \"#utility.yul\":6374:6380   */\n  dup2\n    /* \"#utility.yul\":6371:6401   */\n  gt\n    /* \"#utility.yul\":6368:6485   */\n  iszero\n  tag_135\n  jumpi\n    /* \"#utility.yul\":6404:6483   */\n  tag_136\n  tag_40\n  jump\t// in\ntag_136:\n    /* \"#utility.yul\":6368:6485   */\ntag_135:\n    /* \"#utility.yul\":6509:6598   */\n  tag_137\n    /* \"#utility.yul\":6590:6597   */\n  dup10\n    /* \"#utility.yul\":6581:6587   */\n  dup3\n    /* \"#utility.yul\":6570:6579   */\n  dup11\n    /* \"#utility.yul\":6566:6588   */\n  add\n    /* \"#utility.yul\":6509:6598   */\n  tag_59\n  jump\t// in\ntag_137:\n    /* \"#utility.yul\":6499:6598   */\n  swap4\n  pop\n    /* \"#utility.yul\":6301:6608   */\n  pop\n    /* \"#utility.yul\":6668:6671   */\n  0x80\n    /* \"#utility.yul\":6657:6666   */\n  dup8\n    /* \"#utility.yul\":6653:6672   */\n  add\n    /* \"#utility.yul\":6647:6673   */\n  mload\n    /* \"#utility.yul\":6700:6718   */\n  0xffffffffffffffff\n    /* \"#utility.yul\":6692:6698   */\n  dup2\n    /* \"#utility.yul\":6689:6719   */\n  gt\n    /* \"#utility.yul\":6686:6803   */\n  iszero\n  tag_138\n  jumpi\n    /* \"#utility.yul\":6722:6801   */\n  tag_139\n  tag_40\n  jump\t// in\ntag_139:\n    /* \"#utility.yul\":6686:6803   */\ntag_138:\n    /* \"#utility.yul\":6827:6916   */\n  tag_140\n    /* \"#utility.yul\":6908:6915   */\n  dup10\n    /* \"#utility.yul\":6899:6905   */\n  dup3\n    /* \"#utility.yul\":6888:6897   */\n  dup11\n    /* \"#utility.yul\":6884:6906   */\n  add\n    /* \"#utility.yul\":6827:6916   */\n  tag_59\n  jump\t// in\ntag_140:\n    /* \"#utility.yul\":6817:6916   */\n  swap3\n  pop\n    /* \"#utility.yul\":6618:6926   */\n  pop\n    /* \"#utility.yul\":6965:6968   */\n  0xa0\n    /* \"#utility.yul\":6992:7056   */\n  tag_141\n    /* \"#utility.yul\":7048:7055   */\n  dup10\n    /* \"#utility.yul\":7039:7045   */\n  dup3\n    /* \"#utility.yul\":7028:7037   */\n  dup11\n    /* \"#utility.yul\":7024:7046   */\n  add\n    /* \"#utility.yul\":6992:7056   */\n  tag_56\n  jump\t// in\ntag_141:\n    /* \"#utility.yul\":6982:7056   */\n  swap2\n  pop\n    /* \"#utility.yul\":6936:7066   */\n  pop\n    /* \"#utility.yul\":5127:7073   */\n  swap3\n  swap6\n  pop\n  swap3\n  swap6\n  pop\n  swap3\n  swap6\n  jump\t// out\n    /* \"#utility.yul\":7079:7248   */\ntag_60:\n    /* \"#utility.yul\":7163:7174   */\n  0x00\n    /* \"#utility.yul\":7197:7203   */\n  dup3\n    /* \"#utility.yul\":7192:7195   */\n  dup3\n    /* \"#utility.yul\":7185:7204   */\n  mstore\n    /* \"#utility.yul\":7237:7241   */\n  0x20\n    /* \"#utility.yul\":7232:7235   */\n  dup3\n    /* \"#utility.yul\":7228:7242   */\n  add\n    /* \"#utility.yul\":7213:7242   */\n  swap1\n  pop\n    /* \"#utility.yul\":7079:7248   */\n  swap3\n  swap2\n  pop\n  pop\n  jump\t// out\n    /* \"#utility.yul\":7254:7423   */\ntag_61:\n    /* \"#utility.yul\":7394:7415   */\n  0x496e76616c6964206c6f636b20706572696f6400000000000000000000000000\n    /* \"#utility.yul\":7390:7391   */\n  0x00\n    /* \"#utility.yul\":7382:7388   */\n  dup3\n    /* \"#utility.yul\":7378:7392   */\n  add\n    /* \"#utility.yul\":7371:7416   */\n  mstore\n    /* \"#utility.yul\":7254:7423   */\n  pop\n  jump\t// out\n    /* \"#utility.yul\":7429:7795   */\ntag_62:\n    /* \"#utility.yul\":7571:7574   */\n  0x00\n    /* \"#utility.yul\":7592:7659   */\n  tag_145\n    /* \"#utility.yul\":7656:7658   */\n  0x13\n    /* \"#utility.yul\":7651:7654   */\n  dup4\n    /* \"#utility.yul\":7592:7659   */\n  tag_60\n  jump\t// in\ntag_145:\n    /* \"#utility.yul\":7585:7659   */\n  swap2\n  pop\n    /* \"#utility.yul\":7668:7761   */\n  tag_146\n    /* \"#utility.yul\":7757:7760   */\n  dup3\n    /* \"#utility.yul\":7668:7761   */\n  tag_61\n  jump\t// in\ntag_146:\n    /* \"#utility.yul\":7786:7788   */\n  0x20\n    /* \"#utility.yul\":7781:7784   */\n  dup3\n    /* \"#utility.yul\":7777:7789   */\n  add\n    /* \"#utility.yul\":7770:7789   */\n  swap1\n  pop\n    /* \"#utility.yul\":7429:7795   */\n  swap2\n  swap1\n  pop\n  jump\t// out\n    /* \"#utility.yul\":7801:8220   */\ntag_16:\n    /* \"#utility.yul\":7967:7971   */\n  0x00\n    /* \"#utility.yul\":8005:8007   */\n  0x20\n    /* \"#utility.yul\":7994:8003   */\n  dup3\n    /* \"#utility.yul\":7990:8008   */\n  add\n    /* \"#utility.yul\":7982:8008   */\n  swap1\n  pop\n    /* \"#utility.yul\":8054:8063   */\n  dup2\n    /* \"#utility.yul\":8048:8052   */\n  dup2\n    /* \"#utility.yul\":8044:8064   */\n  sub\n    /* \"#utility.yul\":8040:8041   */\n  0x00\n    /* \"#utility.yul\":8029:8038   */\n  dup4\n    /* \"#utility.yul\":8025:8042   */\n  add\n    /* \"#utility.yul\":8018:8065   */\n  mstore\n    /* \"#utility.yul\":8082:8213   */\n  tag_148\n    /* \"#utility.yul\":8208:8212   */\n  dup2\n    /* \"#utility.yul\":8082:8213   */\n  tag_62\n  jump\t// in\ntag_148:\n    /* \"#utility.yul\":8074:8213   */\n  swap1\n  pop\n    /* \"#utility.yul\":7801:8220   */\n  swap2\n  swap1\n  pop\n  jump\t// out\n    /* \"#utility.yul\":8226:8406   */\ntag_22:\n    /* \"#utility.yul\":8274:8351   */\n  0x4e487b7100000000000000000000000000000000000000000000000000000000\n    /* \"#utility.yul\":8271:8272   */\n  0x00\n    /* \"#utility.yul\":8264:8352   */\n  mstore\n    /* \"#utility.yul\":8371:8375   */\n  0x32\n    /* \"#utility.yul\":8368:8369   */\n  0x04\n    /* \"#utility.yul\":8361:8376   */\n  mstore\n    /* \"#utility.yul\":8395:8399   */\n  0x24\n    /* \"#utility.yul\":8392:8393   */\n  0x00\n    /* \"#utility.yul\":8385:8400   */\n  revert\n    /* \"#utility.yul\":8412:8592   */\ntag_63:\n    /* \"#utility.yul\":8460:8537   */\n  0x4e487b7100000000000000000000000000000000000000000000000000000000\n    /* \"#utility.yul\":8457:8458   */\n  0x00\n    /* \"#utility.yul\":8450:8538   */\n  mstore\n    /* \"#utility.yul\":8557:8561   */\n  0x11\n    /* \"#utility.yul\":8554:8555   */\n  0x04\n    /* \"#utility.yul\":8547:8562   */\n  mstore\n    /* \"#utility.yul\":8581:8585   */\n  0x24\n    /* \"#utility.yul\":8578:8579   */\n  0x00\n    /* \"#utility.yul\":8571:8586   */\n  revert\n    /* \"#utility.yul\":8598:8831   */\ntag_34:\n    /* \"#utility.yul\":8637:8640   */\n  0x00\n    /* \"#utility.yul\":8660:8684   */\n  tag_152\n    /* \"#utility.yul\":8678:8683   */\n  dup3\n    /* \"#utility.yul\":8660:8684   */\n  tag_54\n  jump\t// in\ntag_152:\n    /* \"#utility.yul\":8651:8684   */\n  swap2\n  pop\n    /* \"#utility.yul\":8706:8772   */\n  0xffffffffffffffffffffffffffffffffffffffffffffffffffffffffffffffff\n    /* \"#utility.yul\":8699:8704   */\n  dup3\n    /* \"#utility.yul\":8696:8773   */\n  sub\n    /* \"#utility.yul\":8693:8796   */\n  tag_153\n  jumpi\n    /* \"#utility.yul\":8776:8794   */\n  tag_154\n  tag_63\n  jump\t// in\ntag_154:\n    /* \"#utility.yul\":8693:8796   */\ntag_153:\n    /* \"#utility.yul\":8823:8824   */\n  0x01\n    /* \"#utility.yul\":8816:8821   */\n  dup3\n    /* \"#utility.yul\":8812:8825   */\n  add\n    /* \"#utility.yul\":8805:8825   */\n  swap1\n  pop\n    /* \"#utility.yul\":8598:8831   */\n  swap2\n  swap1\n  pop\n  jump\t// out\n    /* \"contracts/Staking.sol\":412:7816  contract NFTStaking1 is Ownable, ReentrancyGuard {... */\ntag_35:\n  dataSize(sub_0)\n  dup1\n  dataOffset(sub_0)\n  0x00\n  codecopy\n  0x00\n  return\nstop\n\nsub_0: assembly {\n        /* \"contracts/Staking.sol\":412:7816  contract NFTStaking1 is Ownable, ReentrancyGuard {... */\n      mstore(0x40, 0x80)\n      callvalue\n      dup1\n      iszero\n      tag_1\n      jumpi\n      0x00\n      dup1\n      revert\n    tag_1:\n      pop\n      jumpi(tag_2, lt(calldatasize, 0x04))\n      shr(0xe0, calldataload(0x00))\n      dup1\n      0x9f3625f0\n      gt\n      tag_16\n      jumpi\n      dup1\n      0xc35e750f\n      gt\n      tag_17\n      jumpi\n      dup1\n      0xc35e750f\n      eq\n      tag_12\n      jumpi\n      dup1\n      0xc69d1923\n      eq\n      tag_13\n      jumpi\n      dup1\n      0xe9545b92\n      eq\n      tag_14\n      jumpi\n      dup1\n      0xf2fde38b\n      eq\n      tag_15\n      jumpi\n      jump(tag_2)\n    tag_17:\n      dup1\n      0x9f3625f0\n      eq\n      tag_9\n      jumpi\n      dup1\n      0xb2520a7c\n      eq\n      tag_10\n      jumpi\n      dup1\n      0xb33068c4\n      eq\n      tag_11\n      jumpi\n      jump(tag_2)\n    tag_16:\n      dup1\n      0x0520537f\n      eq\n      tag_3\n      jumpi\n      dup1\n      0x1902732e\n      eq\n      tag_4\n      jumpi\n      dup1\n      0x3fd8b02f\n      eq\n      tag_5\n      jumpi\n      dup1\n      0x715018a6\n      eq\n      tag_6\n      jumpi\n      dup1\n      0x779972da\n      eq\n      tag_7\n      jumpi\n      dup1\n      0x8da5cb5b\n      eq\n      tag_8\n      jumpi\n    tag_2:\n      0x00\n      dup1\n      revert\n        /* \"contracts/Staking.sol\":6238:7238  function claimRewards(uint256[] calldata _tokenIds,IERC721 nftAddress) external notContract {... */\n    tag_3:\n      tag_18\n      0x04\n      dup1\n      calldatasize\n      sub\n      dup2\n      add\n      swap1\n      tag_19\n      swap2\n      swap1\n      tag_20\n      jump\t// in\n    tag_19:\n      tag_21\n      jump\t// in\n    tag_18:\n      stop\n        /* \"contracts/Staking.sol\":4361:4952  function lockNFT(uint256[] calldata  _tokenIds, IERC721 nftAddress ) external notContract nonReentrant {... */\n    tag_4:\n      tag_22\n      0x04\n      dup1\n      calldatasize\n      sub\n      dup2\n      add\n      swap1\n      tag_23\n      swap2\n      swap1\n      tag_20\n      jump\t// in\n    tag_23:\n      tag_24\n      jump\t// in\n    tag_22:\n      stop\n        /* \"contracts/Staking.sol\":502:527  uint256 public lockPeriod */\n    tag_5:\n      tag_25\n      tag_26\n      jump\t// in\n    tag_25:\n      mload(0x40)\n      tag_27\n      swap2\n      swap1\n      tag_28\n      jump\t// in\n    tag_27:\n      mload(0x40)\n      dup1\n      swap2\n      sub\n      swap1\n      return\n        /* \"@openzeppelin/contracts/access/Ownable.sol\":1831:1932  function renounceOwnership() public virtual onlyOwner {... */\n    tag_6:\n      tag_29\n      tag_30\n      jump\t// in\n    tag_29:\n      stop\n        /* \"contracts/Staking.sol\":3665:3878  function setLockPeriod(uint256 _lockPeriod) external onlyOwner {... */\n    tag_7:\n      tag_31\n      0x04\n      dup1\n      calldatasize\n      sub\n      dup2\n      add\n      swap1\n      tag_32\n      swap2\n      swap1\n      tag_33\n      jump\t// in\n    tag_32:\n      tag_34\n      jump\t// in\n    tag_31:\n      stop\n        /* \"@openzeppelin/contracts/access/Ownable.sol\":1201:1286  function owner() public view virtual returns (address) {... */\n    tag_8:\n      tag_35\n      tag_36\n      jump\t// in\n    tag_35:\n      mload(0x40)\n      tag_37\n      swap2\n      swap1\n      tag_38\n      jump\t// in\n    tag_37:\n      mload(0x40)\n      dup1\n      swap2\n      sub\n      swap1\n      return\n        /* \"contracts/Staking.sol\":5065:6140  function unlockNFT(uint256[] calldata _tokenIds, IERC721 nftAddress) external notContract nonReentrant {... */\n    tag_9:\n      tag_39\n      0x04\n      dup1\n      calldatasize\n      sub\n      dup2\n      add\n      swap1\n      tag_40\n      swap2\n      swap1\n      tag_20\n      jump\t// in\n    tag_40:\n      tag_41\n      jump\t// in\n    tag_39:\n      stop\n        /* \"contracts/Staking.sol\":770:834  mapping(IERC721 => mapping(uint256 => LockInfo)) public lockInfo */\n    tag_10:\n      tag_42\n      0x04\n      dup1\n      calldatasize\n      sub\n      dup2\n      add\n      swap1\n      tag_43\n      swap2\n      swap1\n      tag_44\n      jump\t// in\n    tag_43:\n      tag_45\n      jump\t// in\n    tag_42:\n      mload(0x40)\n      tag_46\n      swap6\n      swap5\n      swap4\n      swap3\n      swap2\n      swap1\n      tag_47\n      jump\t// in\n    tag_46:\n      mload(0x40)\n      dup1\n      swap2\n      sub\n      swap1\n      return\n        /* \"contracts/Staking.sol\":4046:4220  function claimedRewards(uint256 _tokenId, IERC721 nftAddress) external view returns (uint256) {... */\n    tag_11:\n      tag_48\n      0x04\n      dup1\n      calldatasize\n      sub\n      dup2\n      add\n      swap1\n      tag_49\n      swap2\n      swap1\n      tag_50\n      jump\t// in\n    tag_49:\n      tag_51\n      jump\t// in\n    tag_48:\n      mload(0x40)\n      tag_52\n      swap2\n      swap1\n      tag_28\n      jump\t// in\n    tag_52:\n      mload(0x40)\n      dup1\n      swap2\n      sub\n      swap1\n      return\n        /* \"contracts/Staking.sol\":2740:3541  function setLockPeriod(... */\n    tag_12:\n      tag_53\n      0x04\n      dup1\n      calldatasize\n      sub\n      dup2\n      add\n      swap1\n      tag_54\n      swap2\n      swap1\n      tag_55\n      jump\t// in\n    tag_54:\n      tag_56\n      jump\t// in\n    tag_53:\n      stop\n        /* \"contracts/Staking.sol\":1099:1118  uint256 public WAVE */\n    tag_13:\n      tag_57\n      tag_58\n      jump\t// in\n    tag_57:\n      mload(0x40)\n      tag_59\n      swap2\n      swap1\n      tag_28\n      jump\t// in\n    tag_59:\n      mload(0x40)\n      dup1\n      swap2\n      sub\n      swap1\n      return\n        /* \"contracts/Staking.sol\":1016:1063  mapping(IERC721 => stakeNftInfo) public nftInfo */\n    tag_14:\n      tag_60\n      0x04\n      dup1\n      calldatasize\n      sub\n      dup2\n      add\n      swap1\n      tag_61\n      swap2\n      swap1\n      tag_62\n      jump\t// in\n    tag_61:\n      tag_63\n      jump\t// in\n    tag_60:\n      mload(0x40)\n      tag_64\n      swap4\n      swap3\n      swap2\n      swap1\n      tag_65\n      jump\t// in\n    tag_64:\n      mload(0x40)\n      dup1\n      swap2\n      sub\n      swap1\n      return\n        /* \"@openzeppelin/contracts/access/Ownable.sol\":2081:2279  function transferOwnership(address newOwner) public virtual onlyOwner {... */\n    tag_15:\n      tag_66\n      0x04\n      dup1\n      calldatasize\n      sub\n      dup2\n      add\n      swap1\n      tag_67\n      swap2\n      swap1\n      tag_68\n      jump\t// in\n    tag_67:\n      tag_69\n      jump\t// in\n    tag_66:\n      stop\n        /* \"contracts/Staking.sol\":6238:7238  function claimRewards(uint256[] calldata _tokenIds,IERC721 nftAddress) external notContract {... */\n    tag_21:\n        /* \"contracts/Staking.sol\":2576:2608  address(msg.sender).isContract() */\n      tag_71\n        /* \"contracts/Staking.sol\":2584:2594  msg.sender */\n      caller\n        /* \"contracts/Staking.sol\":2576:2606  address(msg.sender).isContract */\n      0xffffffffffffffffffffffffffffffffffffffff\n      and\n      tag_72\n        /* \"contracts/Staking.sol\":2576:2608  address(msg.sender).isContract() */\n      jump\t// in\n    tag_71:\n        /* \"contracts/Staking.sol\":2575:2608  !address(msg.sender).isContract() */\n      iszero\n        /* \"contracts/Staking.sol\":2567:2633  require(!address(msg.sender).isContract(), \"Contract not allowed\") */\n      tag_73\n      jumpi\n      mload(0x40)\n      0x08c379a000000000000000000000000000000000000000000000000000000000\n      dup2\n      mstore\n      0x04\n      add\n      tag_74\n      swap1\n      tag_75\n      jump\t// in\n    tag_74:\n      mload(0x40)\n      dup1\n      swap2\n      sub\n      swap1\n      revert\n    tag_73:\n        /* \"contracts/Staking.sol\":2666:2675  tx.origin */\n      origin\n        /* \"contracts/Staking.sol\":2652:2675  msg.sender == tx.origin */\n      0xffffffffffffffffffffffffffffffffffffffff\n      and\n        /* \"contracts/Staking.sol\":2652:2662  msg.sender */\n      caller\n        /* \"contracts/Staking.sol\":2652:2675  msg.sender == tx.origin */\n      0xffffffffffffffffffffffffffffffffffffffff\n      and\n      eq\n        /* \"contracts/Staking.sol\":2644:2706  require(msg.sender == tx.origin, \"Proxy contract not allowed\") */\n      tag_76\n      jumpi\n      mload(0x40)\n      0x08c379a000000000000000000000000000000000000000000000000000000000\n      dup2\n      mstore\n      0x04\n      add\n      tag_77\n      swap1\n      tag_78\n      jump\t// in\n    tag_77:\n      mload(0x40)\n      dup1\n      swap2\n      sub\n      swap1\n      revert\n    tag_76:\n        /* \"contracts/Staking.sol\":6368:6369  0 */\n      0x00\n        /* \"contracts/Staking.sol\":6349:6358  _tokenIds */\n      dup4\n      dup4\n        /* \"contracts/Staking.sol\":6349:6365  _tokenIds.length */\n      swap1\n      pop\n        /* \"contracts/Staking.sol\":6349:6369  _tokenIds.length > 0 */\n      gt\n        /* \"contracts/Staking.sol\":6341:6383  require(_tokenIds.length > 0, \"No tokens\") */\n      tag_80\n      jumpi\n      mload(0x40)\n      0x08c379a000000000000000000000000000000000000000000000000000000000\n      dup2\n      mstore\n      0x04\n      add\n      tag_81\n      swap1\n      tag_82\n      jump\t// in\n    tag_81:\n      mload(0x40)\n      dup1\n      swap2\n      sub\n      swap1\n      revert\n    tag_80:\n        /* \"contracts/Staking.sol\":6396:6416  uint256 totalRewards */\n      0x00\n        /* \"contracts/Staking.sol\":6432:6441  uint256 i */\n      dup1\n        /* \"contracts/Staking.sol\":6444:6445  0 */\n      0x00\n        /* \"contracts/Staking.sol\":6432:6445  uint256 i = 0 */\n      swap1\n      pop\n        /* \"contracts/Staking.sol\":6427:7162  for (uint256 i = 0; i < _tokenIds.length; i++) {... */\n    tag_83:\n        /* \"contracts/Staking.sol\":6451:6460  _tokenIds */\n      dup5\n      dup5\n        /* \"contracts/Staking.sol\":6451:6467  _tokenIds.length */\n      swap1\n      pop\n        /* \"contracts/Staking.sol\":6447:6448  i */\n      dup2\n        /* \"contracts/Staking.sol\":6447:6467  i < _tokenIds.length */\n      lt\n        /* \"contracts/Staking.sol\":6427:7162  for (uint256 i = 0; i < _tokenIds.length; i++) {... */\n      iszero\n      tag_84\n      jumpi\n        /* \"contracts/Staking.sol\":6489:6509  LockInfo memory info */\n      0x00\n        /* \"contracts/Staking.sol\":6512:6520  lockInfo */\n      0x03\n        /* \"contracts/Staking.sol\":6512:6541  lockInfo[IERC721(nftAddress)] */\n      0x00\n        /* \"contracts/Staking.sol\":6529:6539  nftAddress */\n      dup6\n        /* \"contracts/Staking.sol\":6512:6541  lockInfo[IERC721(nftAddress)] */\n      0xffffffffffffffffffffffffffffffffffffffff\n      and\n      0xffffffffffffffffffffffffffffffffffffffff\n      and\n      dup2\n      mstore\n      0x20\n      add\n      swap1\n      dup2\n      mstore\n      0x20\n      add\n      0x00\n      keccak256\n        /* \"contracts/Staking.sol\":6512:6555  lockInfo[IERC721(nftAddress)][_tokenIds[i]] */\n      0x00\n        /* \"contracts/Staking.sol\":6542:6551  _tokenIds */\n      dup8\n      dup8\n        /* \"contracts/Staking.sol\":6552:6553  i */\n      dup6\n        /* \"contracts/Staking.sol\":6542:6554  _tokenIds[i] */\n      dup2\n      dup2\n      lt\n      tag_86\n      jumpi\n      tag_87\n      tag_88\n      jump\t// in\n    tag_87:\n    tag_86:\n      swap1\n      pop\n      0x20\n      mul\n      add\n      calldataload\n        /* \"contracts/Staking.sol\":6512:6555  lockInfo[IERC721(nftAddress)][_tokenIds[i]] */\n      dup2\n      mstore\n      0x20\n      add\n      swap1\n      dup2\n      mstore\n      0x20\n      add\n      0x00\n      keccak256\n        /* \"contracts/Staking.sol\":6489:6555  LockInfo memory info = lockInfo[IERC721(nftAddress)][_tokenIds[i]] */\n      mload(0x40)\n      dup1\n      0xa0\n      add\n      0x40\n      mstore\n      swap1\n      dup2\n      0x00\n      dup3\n      add\n      0x00\n      swap1\n      sload\n      swap1\n      0x0100\n      exp\n      swap1\n      div\n      0xffffffffffffffffffffffffffffffffffffffff\n      and\n      0xffffffffffffffffffffffffffffffffffffffff\n      and\n      0xffffffffffffffffffffffffffffffffffffffff\n      and\n      dup2\n      mstore\n      0x20\n      add\n      0x01\n      dup3\n      add\n      sload\n      dup2\n      mstore\n      0x20\n      add\n      0x02\n      dup3\n      add\n      sload\n      dup2\n      mstore\n      0x20\n      add\n      0x03\n      dup3\n      add\n      0x00\n      swap1\n      sload\n      swap1\n      0x0100\n      exp\n      swap1\n      div\n      0xff\n      and\n      iszero\n      iszero\n      iszero\n      iszero\n      dup2\n      mstore\n      0x20\n      add\n      0x03\n      dup3\n      add\n      0x01\n      swap1\n      sload\n      swap1\n      0x0100\n      exp\n      swap1\n      div\n      0xffffffffffffffffffffffffffffffffffffffff\n      and\n      0xffffffffffffffffffffffffffffffffffffffff\n      and\n      0xffffffffffffffffffffffffffffffffffffffff\n      and\n      dup2\n      mstore\n      pop\n      pop\n      swap1\n      pop\n        /* \"contracts/Staking.sol\":6592:6602  msg.sender */\n      caller\n        /* \"contracts/Staking.sol\":6578:6602  info.owner == msg.sender */\n      0xffffffffffffffffffffffffffffffffffffffff\n      and\n        /* \"contracts/Staking.sol\":6578:6582  info */\n      dup2\n        /* \"contracts/Staking.sol\":6578:6588  info.owner */\n      0x00\n      add\n      mload\n        /* \"contracts/Staking.sol\":6578:6602  info.owner == msg.sender */\n      0xffffffffffffffffffffffffffffffffffffffff\n      and\n      eq\n        /* \"contracts/Staking.sol\":6570:6624  require(info.owner == msg.sender, \"Not a token owner\") */\n      tag_89\n      jumpi\n      mload(0x40)\n      0x08c379a000000000000000000000000000000000000000000000000000000000\n      dup2\n      mstore\n      0x04\n      add\n      tag_90\n      swap1\n      tag_91\n      jump\t// in\n    tag_90:\n      mload(0x40)\n      dup1\n      swap2\n      sub\n      swap1\n      revert\n    tag_89:\n        /* \"contracts/Staking.sol\":6678:6693  block.timestamp */\n      timestamp\n        /* \"contracts/Staking.sol\":6665:6675  lockPeriod */\n      sload(0x02)\n        /* \"contracts/Staking.sol\":6647:6651  info */\n      dup3\n        /* \"contracts/Staking.sol\":6647:6662  info.lockedTime */\n      0x20\n      add\n      mload\n        /* \"contracts/Staking.sol\":6647:6675  info.lockedTime + lockPeriod */\n      tag_92\n      swap2\n      swap1\n      tag_93\n      jump\t// in\n    tag_92:\n        /* \"contracts/Staking.sol\":6647:6693  info.lockedTime + lockPeriod < block.timestamp */\n      lt\n        /* \"contracts/Staking.sol\":6639:6719  require(info.lockedTime + lockPeriod < block.timestamp, \"Not able to claim yet\") */\n      tag_94\n      jumpi\n      mload(0x40)\n      0x08c379a000000000000000000000000000000000000000000000000000000000\n      dup2\n      mstore\n      0x04\n      add\n      tag_95\n      swap1\n      tag_96\n      jump\t// in\n    tag_95:\n      mload(0x40)\n      dup1\n      swap2\n      sub\n      swap1\n      revert\n    tag_94:\n        /* \"contracts/Staking.sol\":6743:6747  info */\n      dup1\n        /* \"contracts/Staking.sol\":6743:6758  info.isUnlocked */\n      0x60\n      add\n      mload\n        /* \"contracts/Staking.sol\":6742:6758  !info.isUnlocked */\n      iszero\n        /* \"contracts/Staking.sol\":6734:6779  require(!info.isUnlocked, \"Already unlocked\") */\n      tag_97\n      jumpi\n      mload(0x40)\n      0x08c379a000000000000000000000000000000000000000000000000000000000\n      dup2\n      mstore\n      0x04\n      add\n      tag_98\n      swap1\n      tag_99\n      jump\t// in\n    tag_98:\n      mload(0x40)\n      dup1\n      swap2\n      sub\n      swap1\n      revert\n    tag_97:\n        /* \"contracts/Staking.sol\":6796:6815  uint256 totalAmount */\n      0x00\n        /* \"contracts/Staking.sol\":6818:6857  _rewardAmount(_tokenIds[i], nftAddress) */\n      tag_100\n        /* \"contracts/Staking.sol\":6832:6841  _tokenIds */\n      dup8\n      dup8\n        /* \"contracts/Staking.sol\":6842:6843  i */\n      dup6\n        /* \"contracts/Staking.sol\":6832:6844  _tokenIds[i] */\n      dup2\n      dup2\n      lt\n      tag_101\n      jumpi\n      tag_102\n      tag_88\n      jump\t// in\n    tag_102:\n    tag_101:\n      swap1\n      pop\n      0x20\n      mul\n      add\n      calldataload\n        /* \"contracts/Staking.sol\":6846:6856  nftAddress */\n      dup7\n        /* \"contracts/Staking.sol\":6818:6831  _rewardAmount */\n      tag_103\n        /* \"contracts/Staking.sol\":6818:6857  _rewardAmount(_tokenIds[i], nftAddress) */\n      jump\t// in\n    tag_100:\n        /* \"contracts/Staking.sol\":6796:6857  uint256 totalAmount = _rewardAmount(_tokenIds[i], nftAddress) */\n      swap1\n      pop\n        /* \"contracts/Staking.sol\":6872:6896  uint256 unclaminedAmount */\n      0x00\n        /* \"contracts/Staking.sol\":6913:6917  info */\n      dup3\n        /* \"contracts/Staking.sol\":6913:6932  info.claimedRewards */\n      0x40\n      add\n      mload\n        /* \"contracts/Staking.sol\":6899:6910  totalAmount */\n      dup3\n        /* \"contracts/Staking.sol\":6899:6932  totalAmount - info.claimedRewards */\n      tag_104\n      swap2\n      swap1\n      tag_105\n      jump\t// in\n    tag_104:\n        /* \"contracts/Staking.sol\":6872:6932  uint256 unclaminedAmount = totalAmount - info.claimedRewards */\n      swap1\n      pop\n        /* \"contracts/Staking.sol\":6947:6954  nftInfo */\n      0x04\n        /* \"contracts/Staking.sol\":6947:6966  nftInfo[nftAddress] */\n      0x00\n        /* \"contracts/Staking.sol\":6955:6965  nftAddress */\n      dup8\n        /* \"contracts/Staking.sol\":6947:6966  nftInfo[nftAddress] */\n      0xffffffffffffffffffffffffffffffffffffffff\n      and\n      0xffffffffffffffffffffffffffffffffffffffff\n      and\n      dup2\n      mstore\n      0x20\n      add\n      swap1\n      dup2\n      mstore\n      0x20\n      add\n      0x00\n      keccak256\n        /* \"contracts/Staking.sol\":6947:6979  nftInfo[nftAddress].rewardsToken */\n      0x00\n      add\n      0x00\n      swap1\n      sload\n      swap1\n      0x0100\n      exp\n      swap1\n      div\n      0xffffffffffffffffffffffffffffffffffffffff\n      and\n        /* \"contracts/Staking.sol\":6947:6984  nftInfo[nftAddress].rewardsToken.mint */\n      0xffffffffffffffffffffffffffffffffffffffff\n      and\n      0x40c10f19\n        /* \"contracts/Staking.sol\":6985:6995  msg.sender */\n      caller\n        /* \"contracts/Staking.sol\":6997:7013  unclaminedAmount */\n      dup4\n        /* \"contracts/Staking.sol\":6947:7014  nftInfo[nftAddress].rewardsToken.mint(msg.sender, unclaminedAmount) */\n      mload(0x40)\n      dup4\n      0xffffffff\n      and\n      0xe0\n      shl\n      dup2\n      mstore\n      0x04\n      add\n      tag_106\n      swap3\n      swap2\n      swap1\n      tag_107\n      jump\t// in\n    tag_106:\n      0x00\n      mload(0x40)\n      dup1\n      dup4\n      sub\n      dup2\n      0x00\n      dup8\n      dup1\n      extcodesize\n      iszero\n      dup1\n      iszero\n      tag_108\n      jumpi\n      0x00\n      dup1\n      revert\n    tag_108:\n      pop\n      gas\n      call\n      iszero\n      dup1\n      iszero\n      tag_110\n      jumpi\n      returndatasize\n      0x00\n      dup1\n      returndatacopy\n      revert(0x00, returndatasize)\n    tag_110:\n      pop\n      pop\n      pop\n      pop\n        /* \"contracts/Staking.sol\":7045:7061  unclaminedAmount */\n      dup1\n        /* \"contracts/Staking.sol\":7029:7061  totalRewards += unclaminedAmount */\n      dup6\n      tag_111\n      swap2\n      swap1\n      tag_93\n      jump\t// in\n    tag_111:\n      swap5\n      pop\n        /* \"contracts/Staking.sol\":7139:7150  totalAmount */\n      dup2\n        /* \"contracts/Staking.sol\":7078:7086  lockInfo */\n      0x03\n        /* \"contracts/Staking.sol\":7078:7107  lockInfo[IERC721(nftAddress)] */\n      0x00\n        /* \"contracts/Staking.sol\":7095:7105  nftAddress */\n      dup9\n        /* \"contracts/Staking.sol\":7078:7107  lockInfo[IERC721(nftAddress)] */\n      0xffffffffffffffffffffffffffffffffffffffff\n      and\n      0xffffffffffffffffffffffffffffffffffffffff\n      and\n      dup2\n      mstore\n      0x20\n      add\n      swap1\n      dup2\n      mstore\n      0x20\n      add\n      0x00\n      keccak256\n        /* \"contracts/Staking.sol\":7078:7121  lockInfo[IERC721(nftAddress)][_tokenIds[i]] */\n      0x00\n        /* \"contracts/Staking.sol\":7108:7117  _tokenIds */\n      dup11\n      dup11\n        /* \"contracts/Staking.sol\":7118:7119  i */\n      dup9\n        /* \"contracts/Staking.sol\":7108:7120  _tokenIds[i] */\n      dup2\n      dup2\n      lt\n      tag_112\n      jumpi\n      tag_113\n      tag_88\n      jump\t// in\n    tag_113:\n    tag_112:\n      swap1\n      pop\n      0x20\n      mul\n      add\n      calldataload\n        /* \"contracts/Staking.sol\":7078:7121  lockInfo[IERC721(nftAddress)][_tokenIds[i]] */\n      dup2\n      mstore\n      0x20\n      add\n      swap1\n      dup2\n      mstore\n      0x20\n      add\n      0x00\n      keccak256\n        /* \"contracts/Staking.sol\":7078:7136  lockInfo[IERC721(nftAddress)][_tokenIds[i]].claimedRewards */\n      0x02\n      add\n        /* \"contracts/Staking.sol\":7078:7150  lockInfo[IERC721(nftAddress)][_tokenIds[i]].claimedRewards = totalAmount */\n      dup2\n      swap1\n      sstore\n      pop\n        /* \"contracts/Staking.sol\":6474:7162  {... */\n      pop\n      pop\n      pop\n        /* \"contracts/Staking.sol\":6469:6472  i++ */\n      dup1\n      dup1\n      tag_114\n      swap1\n      tag_115\n      jump\t// in\n    tag_114:\n      swap2\n      pop\n      pop\n        /* \"contracts/Staking.sol\":6427:7162  for (uint256 i = 0; i < _tokenIds.length; i++) {... */\n      jump(tag_83)\n    tag_84:\n      pop\n        /* \"contracts/Staking.sol\":7194:7204  msg.sender */\n      caller\n        /* \"contracts/Staking.sol\":7179:7230  RewardsClaimed(msg.sender, _tokenIds, totalRewards) */\n      0xffffffffffffffffffffffffffffffffffffffff\n      and\n      0x37826be3c26dbad83731f4b985f22fa9ef86b6d1974cd77208332b7f1f283c0c\n        /* \"contracts/Staking.sol\":7206:7215  _tokenIds */\n      dup6\n      dup6\n        /* \"contracts/Staking.sol\":7217:7229  totalRewards */\n      dup5\n        /* \"contracts/Staking.sol\":7179:7230  RewardsClaimed(msg.sender, _tokenIds, totalRewards) */\n      mload(0x40)\n      tag_116\n      swap4\n      swap3\n      swap2\n      swap1\n      tag_117\n      jump\t// in\n    tag_116:\n      mload(0x40)\n      dup1\n      swap2\n      sub\n      swap1\n      log2\n        /* \"contracts/Staking.sol\":6330:7238  {... */\n      pop\n        /* \"contracts/Staking.sol\":6238:7238  function claimRewards(uint256[] calldata _tokenIds,IERC721 nftAddress) external notContract {... */\n      pop\n      pop\n      pop\n      jump\t// out\n        /* \"contracts/Staking.sol\":4361:4952  function lockNFT(uint256[] calldata  _tokenIds, IERC721 nftAddress ) external notContract nonReentrant {... */\n    tag_24:\n        /* \"contracts/Staking.sol\":2576:2608  address(msg.sender).isContract() */\n      tag_119\n        /* \"contracts/Staking.sol\":2584:2594  msg.sender */\n      caller\n        /* \"contracts/Staking.sol\":2576:2606  address(msg.sender).isContract */\n      0xffffffffffffffffffffffffffffffffffffffff\n      and\n      tag_72\n        /* \"contracts/Staking.sol\":2576:2608  address(msg.sender).isContract() */\n      jump\t// in\n    tag_119:\n        /* \"contracts/Staking.sol\":2575:2608  !address(msg.sender).isContract() */\n      iszero\n        /* \"contracts/Staking.sol\":2567:2633  require(!address(msg.sender).isContract(), \"Contract not allowed\") */\n      tag_120\n      jumpi\n      mload(0x40)\n      0x08c379a000000000000000000000000000000000000000000000000000000000\n      dup2\n      mstore\n      0x04\n      add\n      tag_121\n      swap1\n      tag_75\n      jump\t// in\n    tag_121:\n      mload(0x40)\n      dup1\n      swap2\n      sub\n      swap1\n      revert\n    tag_120:\n        /* \"contracts/Staking.sol\":2666:2675  tx.origin */\n      origin\n        /* \"contracts/Staking.sol\":2652:2675  msg.sender == tx.origin */\n      0xffffffffffffffffffffffffffffffffffffffff\n      and\n        /* \"contracts/Staking.sol\":2652:2662  msg.sender */\n      caller\n        /* \"contracts/Staking.sol\":2652:2675  msg.sender == tx.origin */\n      0xffffffffffffffffffffffffffffffffffffffff\n      and\n      eq\n        /* \"contracts/Staking.sol\":2644:2706  require(msg.sender == tx.origin, \"Proxy contract not allowed\") */\n      tag_122\n      jumpi\n      mload(0x40)\n      0x08c379a000000000000000000000000000000000000000000000000000000000\n      dup2\n      mstore\n      0x04\n      add\n      tag_123\n      swap1\n      tag_78\n      jump\t// in\n    tag_123:\n      mload(0x40)\n      dup1\n      swap2\n      sub\n      swap1\n      revert\n    tag_122:\n        /* \"@openzeppelin/contracts/security/ReentrancyGuard.sol\":1744:1745  2 */\n      0x02\n        /* \"@openzeppelin/contracts/security/ReentrancyGuard.sol\":2325:2332  _status */\n      sload(0x01)\n        /* \"@openzeppelin/contracts/security/ReentrancyGuard.sol\":2325:2344  _status != _ENTERED */\n      sub\n        /* \"@openzeppelin/contracts/security/ReentrancyGuard.sol\":2317:2380  require(_status != _ENTERED, \"ReentrancyGuard: reentrant call\") */\n      tag_125\n      jumpi\n      mload(0x40)\n      0x08c379a000000000000000000000000000000000000000000000000000000000\n      dup2\n      mstore\n      0x04\n      add\n      tag_126\n      swap1\n      tag_127\n      jump\t// in\n    tag_126:\n      mload(0x40)\n      dup1\n      swap2\n      sub\n      swap1\n      revert\n    tag_125:\n        /* \"@openzeppelin/contracts/security/ReentrancyGuard.sol\":1744:1745  2 */\n      0x02\n        /* \"@openzeppelin/contracts/security/ReentrancyGuard.sol\":2455:2462  _status */\n      0x01\n        /* \"@openzeppelin/contracts/security/ReentrancyGuard.sol\":2455:2473  _status = _ENTERED */\n      dup2\n      swap1\n      sstore\n      pop\n        /* \"contracts/Staking.sol\":4502:4503  0 */\n      0x00\n        /* \"contracts/Staking.sol\":4483:4492  _tokenIds */\n      dup4\n      dup4\n        /* \"contracts/Staking.sol\":4483:4499  _tokenIds.length */\n      swap1\n      pop\n        /* \"contracts/Staking.sol\":4483:4503  _tokenIds.length > 0 */\n      gt\n        /* \"contracts/Staking.sol\":4475:4517  require(_tokenIds.length > 0, \"No tokens\") */\n      tag_129\n      jumpi\n      mload(0x40)\n      0x08c379a000000000000000000000000000000000000000000000000000000000\n      dup2\n      mstore\n      0x04\n      add\n      tag_130\n      swap1\n      tag_82\n      jump\t// in\n    tag_130:\n      mload(0x40)\n      dup1\n      swap2\n      sub\n      swap1\n      revert\n    tag_129:\n        /* \"contracts/Staking.sol\":4535:4544  uint256 i */\n      0x00\n        /* \"contracts/Staking.sol\":4530:4895  for (uint256 i = 0; i < _tokenIds.length; i++) {... */\n    tag_131:\n        /* \"contracts/Staking.sol\":4554:4563  _tokenIds */\n      dup4\n      dup4\n        /* \"contracts/Staking.sol\":4554:4570  _tokenIds.length */\n      swap1\n      pop\n        /* \"contracts/Staking.sol\":4550:4551  i */\n      dup2\n        /* \"contracts/Staking.sol\":4550:4570  i < _tokenIds.length */\n      lt\n        /* \"contracts/Staking.sol\":4530:4895  for (uint256 i = 0; i < _tokenIds.length; i++) {... */\n      iszero\n      tag_132\n      jumpi\n        /* \"contracts/Staking.sol\":4636:4646  msg.sender */\n      caller\n        /* \"contracts/Staking.sol\":4600:4646  nftAddress.ownerOf(_tokenIds[i]) == msg.sender */\n      0xffffffffffffffffffffffffffffffffffffffff\n      and\n        /* \"contracts/Staking.sol\":4600:4610  nftAddress */\n      dup3\n        /* \"contracts/Staking.sol\":4600:4618  nftAddress.ownerOf */\n      0xffffffffffffffffffffffffffffffffffffffff\n      and\n      0x6352211e\n        /* \"contracts/Staking.sol\":4619:4628  _tokenIds */\n      dup7\n      dup7\n        /* \"contracts/Staking.sol\":4629:4630  i */\n      dup6\n        /* \"contracts/Staking.sol\":4619:4631  _tokenIds[i] */\n      dup2\n      dup2\n      lt\n      tag_134\n      jumpi\n      tag_135\n      tag_88\n      jump\t// in\n    tag_135:\n    tag_134:\n      swap1\n      pop\n      0x20\n      mul\n      add\n      calldataload\n        /* \"contracts/Staking.sol\":4600:4632  nftAddress.ownerOf(_tokenIds[i]) */\n      mload(0x40)\n      dup3\n      0xffffffff\n      and\n      0xe0\n      shl\n      dup2\n      mstore\n      0x04\n      add\n      tag_136\n      swap2\n      swap1\n      tag_28\n      jump\t// in\n    tag_136:\n      0x20\n      mload(0x40)\n      dup1\n      dup4\n      sub\n      dup2\n      dup7\n      gas\n      staticcall\n      iszero\n      dup1\n      iszero\n      tag_138\n      jumpi\n      returndatasize\n      0x00\n      dup1\n      returndatacopy\n      revert(0x00, returndatasize)\n    tag_138:\n      pop\n      pop\n      pop\n      pop\n      mload(0x40)\n      returndatasize\n      not(0x1f)\n      0x1f\n      dup3\n      add\n      and\n      dup3\n      add\n      dup1\n      0x40\n      mstore\n      pop\n      dup2\n      add\n      swap1\n      tag_139\n      swap2\n      swap1\n      tag_140\n      jump\t// in\n    tag_139:\n        /* \"contracts/Staking.sol\":4600:4646  nftAddress.ownerOf(_tokenIds[i]) == msg.sender */\n      0xffffffffffffffffffffffffffffffffffffffff\n      and\n      eq\n        /* \"contracts/Staking.sol\":4592:4676  require(nftAddress.ownerOf(_tokenIds[i]) == msg.sender, \"You don't hold this token\") */\n      tag_141\n      jumpi\n      mload(0x40)\n      0x08c379a000000000000000000000000000000000000000000000000000000000\n      dup2\n      mstore\n      0x04\n      add\n      tag_142\n      swap1\n      tag_143\n      jump\t// in\n    tag_142:\n      mload(0x40)\n      dup1\n      swap2\n      sub\n      swap1\n      revert\n    tag_141:\n        /* \"contracts/Staking.sol\":4691:4701  nftAddress */\n      dup2\n        /* \"contracts/Staking.sol\":4691:4714  nftAddress.transferFrom */\n      0xffffffffffffffffffffffffffffffffffffffff\n      and\n      0x23b872dd\n        /* \"contracts/Staking.sol\":4715:4725  msg.sender */\n      caller\n        /* \"contracts/Staking.sol\":4735:4739  this */\n      address\n        /* \"contracts/Staking.sol\":4742:4751  _tokenIds */\n      dup8\n      dup8\n        /* \"contracts/Staking.sol\":4752:4753  i */\n      dup7\n        /* \"contracts/Staking.sol\":4742:4754  _tokenIds[i] */\n      dup2\n      dup2\n      lt\n      tag_144\n      jumpi\n      tag_145\n      tag_88\n      jump\t// in\n    tag_145:\n    tag_144:\n      swap1\n      pop\n      0x20\n      mul\n      add\n      calldataload\n        /* \"contracts/Staking.sol\":4691:4755  nftAddress.transferFrom(msg.sender, address(this), _tokenIds[i]) */\n      mload(0x40)\n      dup5\n      0xffffffff\n      and\n      0xe0\n      shl\n      dup2\n      mstore\n      0x04\n      add\n      tag_146\n      swap4\n      swap3\n      swap2\n      swap1\n      tag_147\n      jump\t// in\n    tag_146:\n      0x00\n      mload(0x40)\n      dup1\n      dup4\n      sub\n      dup2\n      0x00\n      dup8\n      dup1\n      extcodesize\n      iszero\n      dup1\n      iszero\n      tag_148\n      jumpi\n      0x00\n      dup1\n      revert\n    tag_148:\n      pop\n      gas\n      call\n      iszero\n      dup1\n      iszero\n      tag_150\n      jumpi\n      returndatasize\n      0x00\n      dup1\n      returndatacopy\n      revert(0x00, returndatasize)\n    tag_150:\n      pop\n      pop\n      pop\n      pop\n        /* \"contracts/Staking.sol\":4816:4883  LockInfo(msg.sender, block.timestamp, 0, false,IERC721(nftAddress)) */\n      mload(0x40)\n      dup1\n      0xa0\n      add\n      0x40\n      mstore\n      dup1\n        /* \"contracts/Staking.sol\":4825:4835  msg.sender */\n      caller\n        /* \"contracts/Staking.sol\":4816:4883  LockInfo(msg.sender, block.timestamp, 0, false,IERC721(nftAddress)) */\n      0xffffffffffffffffffffffffffffffffffffffff\n      and\n      dup2\n      mstore\n      0x20\n      add\n        /* \"contracts/Staking.sol\":4837:4852  block.timestamp */\n      timestamp\n        /* \"contracts/Staking.sol\":4816:4883  LockInfo(msg.sender, block.timestamp, 0, false,IERC721(nftAddress)) */\n      dup2\n      mstore\n      0x20\n      add\n        /* \"contracts/Staking.sol\":4854:4855  0 */\n      0x00\n        /* \"contracts/Staking.sol\":4816:4883  LockInfo(msg.sender, block.timestamp, 0, false,IERC721(nftAddress)) */\n      dup2\n      mstore\n      0x20\n      add\n        /* \"contracts/Staking.sol\":4857:4862  false */\n      0x00\n        /* \"contracts/Staking.sol\":4816:4883  LockInfo(msg.sender, block.timestamp, 0, false,IERC721(nftAddress)) */\n      iszero\n      iszero\n      dup2\n      mstore\n      0x20\n      add\n        /* \"contracts/Staking.sol\":4871:4881  nftAddress */\n      dup4\n        /* \"contracts/Staking.sol\":4816:4883  LockInfo(msg.sender, block.timestamp, 0, false,IERC721(nftAddress)) */\n      0xffffffffffffffffffffffffffffffffffffffff\n      and\n      dup2\n      mstore\n      pop\n        /* \"contracts/Staking.sol\":4770:4778  lockInfo */\n      0x03\n        /* \"contracts/Staking.sol\":4770:4799  lockInfo[IERC721(nftAddress)] */\n      0x00\n        /* \"contracts/Staking.sol\":4787:4797  nftAddress */\n      dup5\n        /* \"contracts/Staking.sol\":4770:4799  lockInfo[IERC721(nftAddress)] */\n      0xffffffffffffffffffffffffffffffffffffffff\n      and\n      0xffffffffffffffffffffffffffffffffffffffff\n      and\n      dup2\n      mstore\n      0x20\n      add\n      swap1\n      dup2\n      mstore\n      0x20\n      add\n      0x00\n      keccak256\n        /* \"contracts/Staking.sol\":4770:4813  lockInfo[IERC721(nftAddress)][_tokenIds[i]] */\n      0x00\n        /* \"contracts/Staking.sol\":4800:4809  _tokenIds */\n      dup7\n      dup7\n        /* \"contracts/Staking.sol\":4810:4811  i */\n      dup6\n        /* \"contracts/Staking.sol\":4800:4812  _tokenIds[i] */\n      dup2\n      dup2\n      lt\n      tag_151\n      jumpi\n      tag_152\n      tag_88\n      jump\t// in\n    tag_152:\n    tag_151:\n      swap1\n      pop\n      0x20\n      mul\n      add\n      calldataload\n        /* \"contracts/Staking.sol\":4770:4813  lockInfo[IERC721(nftAddress)][_tokenIds[i]] */\n      dup2\n      mstore\n      0x20\n      add\n      swap1\n      dup2\n      mstore\n      0x20\n      add\n      0x00\n      keccak256\n        /* \"contracts/Staking.sol\":4770:4883  lockInfo[IERC721(nftAddress)][_tokenIds[i]] = LockInfo(msg.sender, block.timestamp, 0, false,IERC721(nftAddress)) */\n      0x00\n      dup3\n      add\n      mload\n      dup2\n      0x00\n      add\n      exp(0x0100, 0x00)\n      dup2\n      sload\n      dup2\n      0xffffffffffffffffffffffffffffffffffffffff\n      mul\n      not\n      and\n      swap1\n      dup4\n      0xffffffffffffffffffffffffffffffffffffffff\n      and\n      mul\n      or\n      swap1\n      sstore\n      pop\n      0x20\n      dup3\n      add\n      mload\n      dup2\n      0x01\n      add\n      sstore\n      0x40\n      dup3\n      add\n      mload\n      dup2\n      0x02\n      add\n      sstore\n      0x60\n      dup3\n      add\n      mload\n      dup2\n      0x03\n      add\n      exp(0x0100, 0x00)\n      dup2\n      sload\n      dup2\n      0xff\n      mul\n      not\n      and\n      swap1\n      dup4\n      iszero\n      iszero\n      mul\n      or\n      swap1\n      sstore\n      pop\n      0x80\n      dup3\n      add\n      mload\n      dup2\n      0x03\n      add\n      exp(0x0100, 0x01)\n      dup2\n      sload\n      dup2\n      0xffffffffffffffffffffffffffffffffffffffff\n      mul\n      not\n      and\n      swap1\n      dup4\n      0xffffffffffffffffffffffffffffffffffffffff\n      and\n      mul\n      or\n      swap1\n      sstore\n      pop\n      swap1\n      pop\n      pop\n        /* \"contracts/Staking.sol\":4572:4575  i++ */\n      dup1\n      dup1\n      tag_153\n      swap1\n      tag_115\n      jump\t// in\n    tag_153:\n      swap2\n      pop\n      pop\n        /* \"contracts/Staking.sol\":4530:4895  for (uint256 i = 0; i < _tokenIds.length; i++) {... */\n      jump(tag_131)\n    tag_132:\n      pop\n        /* \"contracts/Staking.sol\":4922:4932  msg.sender */\n      caller\n        /* \"contracts/Staking.sol\":4912:4944  NFTLocked(msg.sender, _tokenIds) */\n      0xffffffffffffffffffffffffffffffffffffffff\n      and\n      0x458be0227bccc9e803dec79bd16767eeaf9925d2ce708eeed7ae1f3621f968f9\n        /* \"contracts/Staking.sol\":4934:4943  _tokenIds */\n      dup5\n      dup5\n        /* \"contracts/Staking.sol\":4912:4944  NFTLocked(msg.sender, _tokenIds) */\n      mload(0x40)\n      tag_154\n      swap3\n      swap2\n      swap1\n      tag_155\n      jump\t// in\n    tag_154:\n      mload(0x40)\n      dup1\n      swap2\n      sub\n      swap1\n      log2\n        /* \"@openzeppelin/contracts/security/ReentrancyGuard.sol\":1701:1702  1 */\n      0x01\n        /* \"@openzeppelin/contracts/security/ReentrancyGuard.sol\":2628:2635  _status */\n      dup1\n        /* \"@openzeppelin/contracts/security/ReentrancyGuard.sol\":2628:2650  _status = _NOT_ENTERED */\n      dup2\n      swap1\n      sstore\n      pop\n        /* \"contracts/Staking.sol\":4361:4952  function lockNFT(uint256[] calldata  _tokenIds, IERC721 nftAddress ) external notContract nonReentrant {... */\n      pop\n      pop\n      pop\n      jump\t// out\n        /* \"contracts/Staking.sol\":502:527  uint256 public lockPeriod */\n    tag_26:\n      sload(0x02)\n      dup2\n      jump\t// out\n        /* \"@openzeppelin/contracts/access/Ownable.sol\":1831:1932  function renounceOwnership() public virtual onlyOwner {... */\n    tag_30:\n        /* \"@openzeppelin/contracts/access/Ownable.sol\":1094:1107  _checkOwner() */\n      tag_157\n        /* \"@openzeppelin/contracts/access/Ownable.sol\":1094:1105  _checkOwner */\n      tag_158\n        /* \"@openzeppelin/contracts/access/Ownable.sol\":1094:1107  _checkOwner() */\n      jump\t// in\n    tag_157:\n        /* \"@openzeppelin/contracts/access/Ownable.sol\":1895:1925  _transferOwnership(address(0)) */\n      tag_160\n        /* \"@openzeppelin/contracts/access/Ownable.sol\":1922:1923  0 */\n      0x00\n        /* \"@openzeppelin/contracts/access/Ownable.sol\":1895:1913  _transferOwnership */\n      tag_161\n        /* \"@openzeppelin/contracts/access/Ownable.sol\":1895:1925  _transferOwnership(address(0)) */\n      jump\t// in\n    tag_160:\n        /* \"@openzeppelin/contracts/access/Ownable.sol\":1831:1932  function renounceOwnership() public virtual onlyOwner {... */\n      jump\t// out\n        /* \"contracts/Staking.sol\":3665:3878  function setLockPeriod(uint256 _lockPeriod) external onlyOwner {... */\n    tag_34:\n        /* \"@openzeppelin/contracts/access/Ownable.sol\":1094:1107  _checkOwner() */\n      tag_163\n        /* \"@openzeppelin/contracts/access/Ownable.sol\":1094:1105  _checkOwner */\n      tag_158\n        /* \"@openzeppelin/contracts/access/Ownable.sol\":1094:1107  _checkOwner() */\n      jump\t// in\n    tag_163:\n        /* \"contracts/Staking.sol\":3761:3762  0 */\n      0x00\n        /* \"contracts/Staking.sol\":3747:3758  _lockPeriod */\n      dup2\n        /* \"contracts/Staking.sol\":3747:3762  _lockPeriod > 0 */\n      gt\n        /* \"contracts/Staking.sol\":3739:3787  require(_lockPeriod > 0, \"Invalid lock period.\") */\n      tag_165\n      jumpi\n      mload(0x40)\n      0x08c379a000000000000000000000000000000000000000000000000000000000\n      dup2\n      mstore\n      0x04\n      add\n      tag_166\n      swap1\n      tag_167\n      jump\t// in\n    tag_166:\n      mload(0x40)\n      dup1\n      swap2\n      sub\n      swap1\n      revert\n    tag_165:\n        /* \"contracts/Staking.sol\":3811:3822  _lockPeriod */\n      dup1\n        /* \"contracts/Staking.sol\":3798:3808  lockPeriod */\n      0x02\n        /* \"contracts/Staking.sol\":3798:3822  lockPeriod = _lockPeriod */\n      dup2\n      swap1\n      sstore\n      pop\n        /* \"contracts/Staking.sol\":3840:3870  LockPeriodUpdated(_lockPeriod) */\n      0x8249ec545e68f6f1e1230133ca48c704d831a7f8e635ded80f3dd9e99b09bb2f\n        /* \"contracts/Staking.sol\":3858:3869  _lockPeriod */\n      dup2\n        /* \"contracts/Staking.sol\":3840:3870  LockPeriodUpdated(_lockPeriod) */\n      mload(0x40)\n      tag_168\n      swap2\n      swap1\n      tag_28\n      jump\t// in\n    tag_168:\n      mload(0x40)\n      dup1\n      swap2\n      sub\n      swap1\n      log1\n        /* \"contracts/Staking.sol\":3665:3878  function setLockPeriod(uint256 _lockPeriod) external onlyOwner {... */\n      pop\n      jump\t// out\n        /* \"@openzeppelin/contracts/access/Ownable.sol\":1201:1286  function owner() public view virtual returns (address) {... */\n    tag_36:\n        /* \"@openzeppelin/contracts/access/Ownable.sol\":1247:1254  address */\n      0x00\n        /* \"@openzeppelin/contracts/access/Ownable.sol\":1273:1279  _owner */\n      dup1\n      0x00\n      swap1\n      sload\n      swap1\n      0x0100\n      exp\n      swap1\n      div\n      0xffffffffffffffffffffffffffffffffffffffff\n      and\n        /* \"@openzeppelin/contracts/access/Ownable.sol\":1266:1279  return _owner */\n      swap1\n      pop\n        /* \"@openzeppelin/contracts/access/Ownable.sol\":1201:1286  function owner() public view virtual returns (address) {... */\n      swap1\n      jump\t// out\n        /* \"contracts/Staking.sol\":5065:6140  function unlockNFT(uint256[] calldata _tokenIds, IERC721 nftAddress) external notContract nonReentrant {... */\n    tag_41:\n        /* \"contracts/Staking.sol\":2576:2608  address(msg.sender).isContract() */\n      tag_171\n        /* \"contracts/Staking.sol\":2584:2594  msg.sender */\n      caller\n        /* \"contracts/Staking.sol\":2576:2606  address(msg.sender).isContract */\n      0xffffffffffffffffffffffffffffffffffffffff\n      and\n      tag_72\n        /* \"contracts/Staking.sol\":2576:2608  address(msg.sender).isContract() */\n      jump\t// in\n    tag_171:\n        /* \"contracts/Staking.sol\":2575:2608  !address(msg.sender).isContract() */\n      iszero\n        /* \"contracts/Staking.sol\":2567:2633  require(!address(msg.sender).isContract(), \"Contract not allowed\") */\n      tag_172\n      jumpi\n      mload(0x40)\n      0x08c379a000000000000000000000000000000000000000000000000000000000\n      dup2\n      mstore\n      0x04\n      add\n      tag_173\n      swap1\n      tag_75\n      jump\t// in\n    tag_173:\n      mload(0x40)\n      dup1\n      swap2\n      sub\n      swap1\n      revert\n    tag_172:\n        /* \"contracts/Staking.sol\":2666:2675  tx.origin */\n      origin\n        /* \"contracts/Staking.sol\":2652:2675  msg.sender == tx.origin */\n      0xffffffffffffffffffffffffffffffffffffffff\n      and\n        /* \"contracts/Staking.sol\":2652:2662  msg.sender */\n      caller\n        /* \"contracts/Staking.sol\":2652:2675  msg.sender == tx.origin */\n      0xffffffffffffffffffffffffffffffffffffffff\n      and\n      eq\n        /* \"contracts/Staking.sol\":2644:2706  require(msg.sender == tx.origin, \"Proxy contract not allowed\") */\n      tag_174\n      jumpi\n      mload(0x40)\n      0x08c379a000000000000000000000000000000000000000000000000000000000\n      dup2\n      mstore\n      0x04\n      add\n      tag_175\n      swap1\n      tag_78\n      jump\t// in\n    tag_175:\n      mload(0x40)\n      dup1\n      swap2\n      sub\n      swap1\n      revert\n    tag_174:\n        /* \"@openzeppelin/contracts/security/ReentrancyGuard.sol\":1744:1745  2 */\n      0x02\n        /* \"@openzeppelin/contracts/security/ReentrancyGuard.sol\":2325:2332  _status */\n      sload(0x01)\n        /* \"@openzeppelin/contracts/security/ReentrancyGuard.sol\":2325:2344  _status != _ENTERED */\n      sub\n        /* \"@openzeppelin/contracts/security/ReentrancyGuard.sol\":2317:2380  require(_status != _ENTERED, \"ReentrancyGuard: reentrant call\") */\n      tag_177\n      jumpi\n      mload(0x40)\n      0x08c379a000000000000000000000000000000000000000000000000000000000\n      dup2\n      mstore\n      0x04\n      add\n      tag_178\n      swap1\n      tag_127\n      jump\t// in\n    tag_178:\n      mload(0x40)\n      dup1\n      swap2\n      sub\n      swap1\n      revert\n    tag_177:\n        /* \"@openzeppelin/contracts/security/ReentrancyGuard.sol\":1744:1745  2 */\n      0x02\n        /* \"@openzeppelin/contracts/security/ReentrancyGuard.sol\":2455:2462  _status */\n      0x01\n        /* \"@openzeppelin/contracts/security/ReentrancyGuard.sol\":2455:2473  _status = _ENTERED */\n      dup2\n      swap1\n      sstore\n      pop\n        /* \"contracts/Staking.sol\":5206:5207  0 */\n      0x00\n        /* \"contracts/Staking.sol\":5187:5196  _tokenIds */\n      dup4\n      dup4\n        /* \"contracts/Staking.sol\":5187:5203  _tokenIds.length */\n      swap1\n      pop\n        /* \"contracts/Staking.sol\":5187:5207  _tokenIds.length > 0 */\n      gt\n        /* \"contracts/Staking.sol\":5179:5221  require(_tokenIds.length > 0, \"No tokens\") */\n      tag_180\n      jumpi\n      mload(0x40)\n      0x08c379a000000000000000000000000000000000000000000000000000000000\n      dup2\n      mstore\n      0x04\n      add\n      tag_181\n      swap1\n      tag_82\n      jump\t// in\n    tag_181:\n      mload(0x40)\n      dup1\n      swap2\n      sub\n      swap1\n      revert\n    tag_180:\n        /* \"contracts/Staking.sol\":5239:5248  uint256 i */\n      0x00\n        /* \"contracts/Staking.sol\":5234:6081  for (uint256 i = 0; i < _tokenIds.length; i++) {... */\n    tag_182:\n        /* \"contracts/Staking.sol\":5258:5267  _tokenIds */\n      dup4\n      dup4\n        /* \"contracts/Staking.sol\":5258:5274  _tokenIds.length */\n      swap1\n      pop\n        /* \"contracts/Staking.sol\":5254:5255  i */\n      dup2\n        /* \"contracts/Staking.sol\":5254:5274  i < _tokenIds.length */\n      lt\n        /* \"contracts/Staking.sol\":5234:6081  for (uint256 i = 0; i < _tokenIds.length; i++) {... */\n      iszero\n      tag_183\n      jumpi\n        /* \"contracts/Staking.sol\":5296:5316  LockInfo memory info */\n      0x00\n        /* \"contracts/Staking.sol\":5319:5327  lockInfo */\n      0x03\n        /* \"contracts/Staking.sol\":5319:5348  lockInfo[IERC721(nftAddress)] */\n      0x00\n        /* \"contracts/Staking.sol\":5336:5346  nftAddress */\n      dup5\n        /* \"contracts/Staking.sol\":5319:5348  lockInfo[IERC721(nftAddress)] */\n      0xffffffffffffffffffffffffffffffffffffffff\n      and\n      0xffffffffffffffffffffffffffffffffffffffff\n      and\n      dup2\n      mstore\n      0x20\n      add\n      swap1\n      dup2\n      mstore\n      0x20\n      add\n      0x00\n      keccak256\n        /* \"contracts/Staking.sol\":5319:5362  lockInfo[IERC721(nftAddress)][_tokenIds[i]] */\n      0x00\n        /* \"contracts/Staking.sol\":5349:5358  _tokenIds */\n      dup7\n      dup7\n        /* \"contracts/Staking.sol\":5359:5360  i */\n      dup6\n        /* \"contracts/Staking.sol\":5349:5361  _tokenIds[i] */\n      dup2\n      dup2\n      lt\n      tag_185\n      jumpi\n      tag_186\n      tag_88\n      jump\t// in\n    tag_186:\n    tag_185:\n      swap1\n      pop\n      0x20\n      mul\n      add\n      calldataload\n        /* \"contracts/Staking.sol\":5319:5362  lockInfo[IERC721(nftAddress)][_tokenIds[i]] */\n      dup2\n      mstore\n      0x20\n      add\n      swap1\n      dup2\n      mstore\n      0x20\n      add\n      0x00\n      keccak256\n        /* \"contracts/Staking.sol\":5296:5362  LockInfo memory info = lockInfo[IERC721(nftAddress)][_tokenIds[i]] */\n      mload(0x40)\n      dup1\n      0xa0\n      add\n      0x40\n      mstore\n      swap1\n      dup2\n      0x00\n      dup3\n      add\n      0x00\n      swap1\n      sload\n      swap1\n      0x0100\n      exp\n      swap1\n      div\n      0xffffffffffffffffffffffffffffffffffffffff\n      and\n      0xffffffffffffffffffffffffffffffffffffffff\n      and\n      0xffffffffffffffffffffffffffffffffffffffff\n      and\n      dup2\n      mstore\n      0x20\n      add\n      0x01\n      dup3\n      add\n      sload\n      dup2\n      mstore\n      0x20\n      add\n      0x02\n      dup3\n      add\n      sload\n      dup2\n      mstore\n      0x20\n      add\n      0x03\n      dup3\n      add\n      0x00\n      swap1\n      sload\n      swap1\n      0x0100\n      exp\n      swap1\n      div\n      0xff\n      and\n      iszero\n      iszero\n      iszero\n      iszero\n      dup2\n      mstore\n      0x20\n      add\n      0x03\n      dup3\n      add\n      0x01\n      swap1\n      sload\n      swap1\n      0x0100\n      exp\n      swap1\n      div\n      0xffffffffffffffffffffffffffffffffffffffff\n      and\n      0xffffffffffffffffffffffffffffffffffffffff\n      and\n      0xffffffffffffffffffffffffffffffffffffffff\n      and\n      dup2\n      mstore\n      pop\n      pop\n      swap1\n      pop\n        /* \"contracts/Staking.sol\":5399:5409  msg.sender */\n      caller\n        /* \"contracts/Staking.sol\":5385:5409  info.owner == msg.sender */\n      0xffffffffffffffffffffffffffffffffffffffff\n      and\n        /* \"contracts/Staking.sol\":5385:5389  info */\n      dup2\n        /* \"contracts/Staking.sol\":5385:5395  info.owner */\n      0x00\n      add\n      mload\n        /* \"contracts/Staking.sol\":5385:5409  info.owner == msg.sender */\n      0xffffffffffffffffffffffffffffffffffffffff\n      and\n      eq\n        /* \"contracts/Staking.sol\":5377:5431  require(info.owner == msg.sender, \"Not a token owner\") */\n      tag_187\n      jumpi\n      mload(0x40)\n      0x08c379a000000000000000000000000000000000000000000000000000000000\n      dup2\n      mstore\n      0x04\n      add\n      tag_188\n      swap1\n      tag_91\n      jump\t// in\n    tag_188:\n      mload(0x40)\n      dup1\n      swap2\n      sub\n      swap1\n      revert\n    tag_187:\n        /* \"contracts/Staking.sol\":5485:5500  block.timestamp */\n      timestamp\n        /* \"contracts/Staking.sol\":5472:5482  lockPeriod */\n      sload(0x02)\n        /* \"contracts/Staking.sol\":5454:5458  info */\n      dup3\n        /* \"contracts/Staking.sol\":5454:5469  info.lockedTime */\n      0x20\n      add\n      mload\n        /* \"contracts/Staking.sol\":5454:5482  info.lockedTime + lockPeriod */\n      tag_189\n      swap2\n      swap1\n      tag_93\n      jump\t// in\n    tag_189:\n        /* \"contracts/Staking.sol\":5454:5500  info.lockedTime + lockPeriod < block.timestamp */\n      lt\n        /* \"contracts/Staking.sol\":5446:5527  require(info.lockedTime + lockPeriod < block.timestamp, \"Not able to unlock yet\") */\n      tag_190\n      jumpi\n      mload(0x40)\n      0x08c379a000000000000000000000000000000000000000000000000000000000\n      dup2\n      mstore\n      0x04\n      add\n      tag_191\n      swap1\n      tag_192\n      jump\t// in\n    tag_191:\n      mload(0x40)\n      dup1\n      swap2\n      sub\n      swap1\n      revert\n    tag_190:\n        /* \"contracts/Staking.sol\":5551:5555  info */\n      dup1\n        /* \"contracts/Staking.sol\":5551:5566  info.isUnlocked */\n      0x60\n      add\n      mload\n        /* \"contracts/Staking.sol\":5550:5566  !info.isUnlocked */\n      iszero\n        /* \"contracts/Staking.sol\":5542:5587  require(!info.isUnlocked, \"Already unlocked\") */\n      tag_193\n      jumpi\n      mload(0x40)\n      0x08c379a000000000000000000000000000000000000000000000000000000000\n      dup2\n      mstore\n      0x04\n      add\n      tag_194\n      swap1\n      tag_99\n      jump\t// in\n    tag_194:\n      mload(0x40)\n      dup1\n      swap2\n      sub\n      swap1\n      revert\n    tag_193:\n        /* \"contracts/Staking.sol\":5604:5614  nftAddress */\n      dup3\n        /* \"contracts/Staking.sol\":5604:5627  nftAddress.transferFrom */\n      0xffffffffffffffffffffffffffffffffffffffff\n      and\n      0x23b872dd\n        /* \"contracts/Staking.sol\":5636:5640  this */\n      address\n        /* \"contracts/Staking.sol\":5643:5653  msg.sender */\n      caller\n        /* \"contracts/Staking.sol\":5655:5664  _tokenIds */\n      dup9\n      dup9\n        /* \"contracts/Staking.sol\":5665:5666  i */\n      dup8\n        /* \"contracts/Staking.sol\":5655:5667  _tokenIds[i] */\n      dup2\n      dup2\n      lt\n      tag_195\n      jumpi\n      tag_196\n      tag_88\n      jump\t// in\n    tag_196:\n    tag_195:\n      swap1\n      pop\n      0x20\n      mul\n      add\n      calldataload\n        /* \"contracts/Staking.sol\":5604:5668  nftAddress.transferFrom(address(this), msg.sender, _tokenIds[i]) */\n      mload(0x40)\n      dup5\n      0xffffffff\n      and\n      0xe0\n      shl\n      dup2\n      mstore\n      0x04\n      add\n      tag_197\n      swap4\n      swap3\n      swap2\n      swap1\n      tag_147\n      jump\t// in\n    tag_197:\n      0x00\n      mload(0x40)\n      dup1\n      dup4\n      sub\n      dup2\n      0x00\n      dup8\n      dup1\n      extcodesize\n      iszero\n      dup1\n      iszero\n      tag_198\n      jumpi\n      0x00\n      dup1\n      revert\n    tag_198:\n      pop\n      gas\n      call\n      iszero\n      dup1\n      iszero\n      tag_200\n      jumpi\n      returndatasize\n      0x00\n      dup1\n      returndatacopy\n      revert(0x00, returndatasize)\n    tag_200:\n      pop\n      pop\n      pop\n      pop\n        /* \"contracts/Staking.sol\":5685:5704  uint256 totalAmount */\n      0x00\n        /* \"contracts/Staking.sol\":5707:5746  _rewardAmount(_tokenIds[i], nftAddress) */\n      tag_201\n        /* \"contracts/Staking.sol\":5721:5730  _tokenIds */\n      dup7\n      dup7\n        /* \"contracts/Staking.sol\":5731:5732  i */\n      dup6\n        /* \"contracts/Staking.sol\":5721:5733  _tokenIds[i] */\n      dup2\n      dup2\n      lt\n      tag_202\n      jumpi\n      tag_203\n      tag_88\n      jump\t// in\n    tag_203:\n    tag_202:\n      swap1\n      pop\n      0x20\n      mul\n      add\n      calldataload\n        /* \"contracts/Staking.sol\":5735:5745  nftAddress */\n      dup6\n        /* \"contracts/Staking.sol\":5707:5720  _rewardAmount */\n      tag_103\n        /* \"contracts/Staking.sol\":5707:5746  _rewardAmount(_tokenIds[i], nftAddress) */\n      jump\t// in\n    tag_201:\n        /* \"contracts/Staking.sol\":5685:5746  uint256 totalAmount = _rewardAmount(_tokenIds[i], nftAddress) */\n      swap1\n      pop\n        /* \"contracts/Staking.sol\":5761:5785  uint256 unclaminedAmount */\n      0x00\n        /* \"contracts/Staking.sol\":5802:5806  info */\n      dup3\n        /* \"contracts/Staking.sol\":5802:5821  info.claimedRewards */\n      0x40\n      add\n      mload\n        /* \"contracts/Staking.sol\":5788:5799  totalAmount */\n      dup3\n        /* \"contracts/Staking.sol\":5788:5821  totalAmount - info.claimedRewards */\n      tag_204\n      swap2\n      swap1\n      tag_105\n      jump\t// in\n    tag_204:\n        /* \"contracts/Staking.sol\":5761:5821  uint256 unclaminedAmount = totalAmount - info.claimedRewards */\n      swap1\n      pop\n        /* \"contracts/Staking.sol\":5837:5844  nftInfo */\n      0x04\n        /* \"contracts/Staking.sol\":5837:5856  nftInfo[nftAddress] */\n      0x00\n        /* \"contracts/Staking.sol\":5845:5855  nftAddress */\n      dup7\n        /* \"contracts/Staking.sol\":5837:5856  nftInfo[nftAddress] */\n      0xffffffffffffffffffffffffffffffffffffffff\n      and\n      0xffffffffffffffffffffffffffffffffffffffff\n      and\n      dup2\n      mstore\n      0x20\n      add\n      swap1\n      dup2\n      mstore\n      0x20\n      add\n      0x00\n      keccak256\n        /* \"contracts/Staking.sol\":5837:5869  nftInfo[nftAddress].rewardsToken */\n      0x00\n      add\n      0x00\n      swap1\n      sload\n      swap1\n      0x0100\n      exp\n      swap1\n      div\n      0xffffffffffffffffffffffffffffffffffffffff\n      and\n        /* \"contracts/Staking.sol\":5837:5874  nftInfo[nftAddress].rewardsToken.mint */\n      0xffffffffffffffffffffffffffffffffffffffff\n      and\n      0x40c10f19\n        /* \"contracts/Staking.sol\":5875:5885  msg.sender */\n      caller\n        /* \"contracts/Staking.sol\":5887:5903  unclaminedAmount */\n      dup4\n        /* \"contracts/Staking.sol\":5837:5904  nftInfo[nftAddress].rewardsToken.mint(msg.sender, unclaminedAmount) */\n      mload(0x40)\n      dup4\n      0xffffffff\n      and\n      0xe0\n      shl\n      dup2\n      mstore\n      0x04\n      add\n      tag_205\n      swap3\n      swap2\n      swap1\n      tag_107\n      jump\t// in\n    tag_205:\n      0x00\n      mload(0x40)\n      dup1\n      dup4\n      sub\n      dup2\n      0x00\n      dup8\n      dup1\n      extcodesize\n      iszero\n      dup1\n      iszero\n      tag_206\n      jumpi\n      0x00\n      dup1\n      revert\n    tag_206:\n      pop\n      gas\n      call\n      iszero\n      dup1\n      iszero\n      tag_208\n      jumpi\n      returndatasize\n      0x00\n      dup1\n      returndatacopy\n      revert(0x00, returndatasize)\n    tag_208:\n      pop\n      pop\n      pop\n      pop\n        /* \"contracts/Staking.sol\":5982:5993  totalAmount */\n      dup2\n        /* \"contracts/Staking.sol\":5921:5929  lockInfo */\n      0x03\n        /* \"contracts/Staking.sol\":5921:5950  lockInfo[IERC721(nftAddress)] */\n      0x00\n        /* \"contracts/Staking.sol\":5938:5948  nftAddress */\n      dup8\n        /* \"contracts/Staking.sol\":5921:5950  lockInfo[IERC721(nftAddress)] */\n      0xffffffffffffffffffffffffffffffffffffffff\n      and\n      0xffffffffffffffffffffffffffffffffffffffff\n      and\n      dup2\n      mstore\n      0x20\n      add\n      swap1\n      dup2\n      mstore\n      0x20\n      add\n      0x00\n      keccak256\n        /* \"contracts/Staking.sol\":5921:5964  lockInfo[IERC721(nftAddress)][_tokenIds[i]] */\n      0x00\n        /* \"contracts/Staking.sol\":5951:5960  _tokenIds */\n      dup10\n      dup10\n        /* \"contracts/Staking.sol\":5961:5962  i */\n      dup9\n        /* \"contracts/Staking.sol\":5951:5963  _tokenIds[i] */\n      dup2\n      dup2\n      lt\n      tag_209\n      jumpi\n      tag_210\n      tag_88\n      jump\t// in\n    tag_210:\n    tag_209:\n      swap1\n      pop\n      0x20\n      mul\n      add\n      calldataload\n        /* \"contracts/Staking.sol\":5921:5964  lockInfo[IERC721(nftAddress)][_tokenIds[i]] */\n      dup2\n      mstore\n      0x20\n      add\n      swap1\n      dup2\n      mstore\n      0x20\n      add\n      0x00\n      keccak256\n        /* \"contracts/Staking.sol\":5921:5979  lockInfo[IERC721(nftAddress)][_tokenIds[i]].claimedRewards */\n      0x02\n      add\n        /* \"contracts/Staking.sol\":5921:5993  lockInfo[IERC721(nftAddress)][_tokenIds[i]].claimedRewards = totalAmount */\n      dup2\n      swap1\n      sstore\n      pop\n        /* \"contracts/Staking.sol\":6065:6069  true */\n      0x01\n        /* \"contracts/Staking.sol\":6008:6016  lockInfo */\n      0x03\n        /* \"contracts/Staking.sol\":6008:6037  lockInfo[IERC721(nftAddress)] */\n      0x00\n        /* \"contracts/Staking.sol\":6025:6035  nftAddress */\n      dup8\n        /* \"contracts/Staking.sol\":6008:6037  lockInfo[IERC721(nftAddress)] */\n      0xffffffffffffffffffffffffffffffffffffffff\n      and\n      0xffffffffffffffffffffffffffffffffffffffff\n      and\n      dup2\n      mstore\n      0x20\n      add\n      swap1\n      dup2\n      mstore\n      0x20\n      add\n      0x00\n      keccak256\n        /* \"contracts/Staking.sol\":6008:6051  lockInfo[IERC721(nftAddress)][_tokenIds[i]] */\n      0x00\n        /* \"contracts/Staking.sol\":6038:6047  _tokenIds */\n      dup10\n      dup10\n        /* \"contracts/Staking.sol\":6048:6049  i */\n      dup9\n        /* \"contracts/Staking.sol\":6038:6050  _tokenIds[i] */\n      dup2\n      dup2\n      lt\n      tag_211\n      jumpi\n      tag_212\n      tag_88\n      jump\t// in\n    tag_212:\n    tag_211:\n      swap1\n      pop\n      0x20\n      mul\n      add\n      calldataload\n        /* \"contracts/Staking.sol\":6008:6051  lockInfo[IERC721(nftAddress)][_tokenIds[i]] */\n      dup2\n      mstore\n      0x20\n      add\n      swap1\n      dup2\n      mstore\n      0x20\n      add\n      0x00\n      keccak256\n        /* \"contracts/Staking.sol\":6008:6062  lockInfo[IERC721(nftAddress)][_tokenIds[i]].isUnlocked */\n      0x03\n      add\n      0x00\n        /* \"contracts/Staking.sol\":6008:6069  lockInfo[IERC721(nftAddress)][_tokenIds[i]].isUnlocked = true */\n      0x0100\n      exp\n      dup2\n      sload\n      dup2\n      0xff\n      mul\n      not\n      and\n      swap1\n      dup4\n      iszero\n      iszero\n      mul\n      or\n      swap1\n      sstore\n      pop\n        /* \"contracts/Staking.sol\":5281:6081  {... */\n      pop\n      pop\n      pop\n        /* \"contracts/Staking.sol\":5276:5279  i++ */\n      dup1\n      dup1\n      tag_213\n      swap1\n      tag_115\n      jump\t// in\n    tag_213:\n      swap2\n      pop\n      pop\n        /* \"contracts/Staking.sol\":5234:6081  for (uint256 i = 0; i < _tokenIds.length; i++) {... */\n      jump(tag_182)\n    tag_183:\n      pop\n        /* \"contracts/Staking.sol\":6110:6120  msg.sender */\n      caller\n        /* \"contracts/Staking.sol\":6098:6132  NFTUnLocked(msg.sender, _tokenIds) */\n      0xffffffffffffffffffffffffffffffffffffffff\n      and\n      0x5cb48022479b9ac3bfb10a27965dc010acffc9fc1bc9a52f0b18975b944b54ca\n        /* \"contracts/Staking.sol\":6122:6131  _tokenIds */\n      dup5\n      dup5\n        /* \"contracts/Staking.sol\":6098:6132  NFTUnLocked(msg.sender, _tokenIds) */\n      mload(0x40)\n      tag_214\n      swap3\n      swap2\n      swap1\n      tag_155\n      jump\t// in\n    tag_214:\n      mload(0x40)\n      dup1\n      swap2\n      sub\n      swap1\n      log2\n        /* \"@openzeppelin/contracts/security/ReentrancyGuard.sol\":1701:1702  1 */\n      0x01\n        /* \"@openzeppelin/contracts/security/ReentrancyGuard.sol\":2628:2635  _status */\n      dup1\n        /* \"@openzeppelin/contracts/security/ReentrancyGuard.sol\":2628:2650  _status = _NOT_ENTERED */\n      dup2\n      swap1\n      sstore\n      pop\n        /* \"contracts/Staking.sol\":5065:6140  function unlockNFT(uint256[] calldata _tokenIds, IERC721 nftAddress) external notContract nonReentrant {... */\n      pop\n      pop\n      pop\n      jump\t// out\n        /* \"contracts/Staking.sol\":770:834  mapping(IERC721 => mapping(uint256 => LockInfo)) public lockInfo */\n    tag_45:\n      mstore(0x20, 0x03)\n      dup2\n      0x00\n      mstore\n      mstore(0x20, keccak256(0x00, 0x40))\n      dup1\n      0x00\n      mstore\n      keccak256(0x00, 0x40)\n      0x00\n      swap2\n      pop\n      swap2\n      pop\n      pop\n      dup1\n      0x00\n      add\n      0x00\n      swap1\n      sload\n      swap1\n      0x0100\n      exp\n      swap1\n      div\n      0xffffffffffffffffffffffffffffffffffffffff\n      and\n      swap1\n      dup1\n      0x01\n      add\n      sload\n      swap1\n      dup1\n      0x02\n      add\n      sload\n      swap1\n      dup1\n      0x03\n      add\n      0x00\n      swap1\n      sload\n      swap1\n      0x0100\n      exp\n      swap1\n      div\n      0xff\n      and\n      swap1\n      dup1\n      0x03\n      add\n      0x01\n      swap1\n      sload\n      swap1\n      0x0100\n      exp\n      swap1\n      div\n      0xffffffffffffffffffffffffffffffffffffffff\n      and\n      swap1\n      pop\n      dup6\n      jump\t// out\n        /* \"contracts/Staking.sol\":4046:4220  function claimedRewards(uint256 _tokenId, IERC721 nftAddress) external view returns (uint256) {... */\n    tag_51:\n        /* \"contracts/Staking.sol\":4131:4138  uint256 */\n      0x00\n        /* \"contracts/Staking.sol\":4158:4166  lockInfo */\n      0x03\n        /* \"contracts/Staking.sol\":4158:4187  lockInfo[IERC721(nftAddress)] */\n      0x00\n        /* \"contracts/Staking.sol\":4175:4185  nftAddress */\n      dup4\n        /* \"contracts/Staking.sol\":4158:4187  lockInfo[IERC721(nftAddress)] */\n      0xffffffffffffffffffffffffffffffffffffffff\n      and\n      0xffffffffffffffffffffffffffffffffffffffff\n      and\n      dup2\n      mstore\n      0x20\n      add\n      swap1\n      dup2\n      mstore\n      0x20\n      add\n      0x00\n      keccak256\n        /* \"contracts/Staking.sol\":4158:4197  lockInfo[IERC721(nftAddress)][_tokenId] */\n      0x00\n        /* \"contracts/Staking.sol\":4188:4196  _tokenId */\n      dup5\n        /* \"contracts/Staking.sol\":4158:4197  lockInfo[IERC721(nftAddress)][_tokenId] */\n      dup2\n      mstore\n      0x20\n      add\n      swap1\n      dup2\n      mstore\n      0x20\n      add\n      0x00\n      keccak256\n        /* \"contracts/Staking.sol\":4158:4212  lockInfo[IERC721(nftAddress)][_tokenId].claimedRewards */\n      0x02\n      add\n      sload\n        /* \"contracts/Staking.sol\":4151:4212  return lockInfo[IERC721(nftAddress)][_tokenId].claimedRewards */\n      swap1\n      pop\n        /* \"contracts/Staking.sol\":4046:4220  function claimedRewards(uint256 _tokenId, IERC721 nftAddress) external view returns (uint256) {... */\n      swap3\n      swap2\n      pop\n      pop\n      jump\t// out\n        /* \"contracts/Staking.sol\":2740:3541  function setLockPeriod(... */\n    tag_56:\n        /* \"@openzeppelin/contracts/access/Ownable.sol\":1094:1107  _checkOwner() */\n      tag_217\n        /* \"@openzeppelin/contracts/access/Ownable.sol\":1094:1105  _checkOwner */\n      tag_158\n        /* \"@openzeppelin/contracts/access/Ownable.sol\":1094:1107  _checkOwner() */\n      jump\t// in\n    tag_217:\n        /* \"contracts/Staking.sol\":3228:3234  uint i */\n      0x00\n        /* \"contracts/Staking.sol\":3223:3534  for (uint i = 0; i < _stakeNFT.length; i++) {... */\n    tag_219:\n        /* \"contracts/Staking.sol\":3244:3253  _stakeNFT */\n      dup6\n        /* \"contracts/Staking.sol\":3244:3260  _stakeNFT.length */\n      mload\n        /* \"contracts/Staking.sol\":3240:3241  i */\n      dup2\n        /* \"contracts/Staking.sol\":3240:3260  i < _stakeNFT.length */\n      lt\n        /* \"contracts/Staking.sol\":3223:3534  for (uint i = 0; i < _stakeNFT.length; i++) {... */\n      iszero\n      tag_220\n      jumpi\n        /* \"contracts/Staking.sol\":3344:3357  _rewardsToken */\n      dup5\n        /* \"contracts/Staking.sol\":3358:3359  i */\n      dup2\n        /* \"contracts/Staking.sol\":3344:3360  _rewardsToken[i] */\n      dup2\n      mload\n      dup2\n      lt\n      tag_222\n      jumpi\n      tag_223\n      tag_88\n      jump\t// in\n    tag_223:\n    tag_222:\n      0x20\n      mul\n      0x20\n      add\n      add\n      mload\n        /* \"contracts/Staking.sol\":3284:3291  nftInfo */\n      0x04\n        /* \"contracts/Staking.sol\":3284:3314  nftInfo[IERC721(_stakeNFT[i])] */\n      0x00\n        /* \"contracts/Staking.sol\":3300:3309  _stakeNFT */\n      dup9\n        /* \"contracts/Staking.sol\":3310:3311  i */\n      dup5\n        /* \"contracts/Staking.sol\":3300:3312  _stakeNFT[i] */\n      dup2\n      mload\n      dup2\n      lt\n      tag_224\n      jumpi\n      tag_225\n      tag_88\n      jump\t// in\n    tag_225:\n    tag_224:\n      0x20\n      mul\n      0x20\n      add\n      add\n      mload\n        /* \"contracts/Staking.sol\":3284:3314  nftInfo[IERC721(_stakeNFT[i])] */\n      0xffffffffffffffffffffffffffffffffffffffff\n      and\n      0xffffffffffffffffffffffffffffffffffffffff\n      and\n      dup2\n      mstore\n      0x20\n      add\n      swap1\n      dup2\n      mstore\n      0x20\n      add\n      0x00\n      keccak256\n        /* \"contracts/Staking.sol\":3284:3327  nftInfo[IERC721(_stakeNFT[i])].rewardsToken */\n      0x00\n      add\n      0x00\n        /* \"contracts/Staking.sol\":3284:3361  nftInfo[IERC721(_stakeNFT[i])].rewardsToken = IRewardsToken(_rewardsToken[i]) */\n      0x0100\n      exp\n      dup2\n      sload\n      dup2\n      0xffffffffffffffffffffffffffffffffffffffff\n      mul\n      not\n      and\n      swap1\n      dup4\n      0xffffffffffffffffffffffffffffffffffffffff\n      and\n      mul\n      or\n      swap1\n      sstore\n      pop\n        /* \"contracts/Staking.sol\":3424:3438  _rewardPerWave */\n      dup4\n        /* \"contracts/Staking.sol\":3439:3440  i */\n      dup2\n        /* \"contracts/Staking.sol\":3424:3441  _rewardPerWave[i] */\n      dup2\n      mload\n      dup2\n      lt\n      tag_226\n      jumpi\n      tag_227\n      tag_88\n      jump\t// in\n    tag_227:\n    tag_226:\n      0x20\n      mul\n      0x20\n      add\n      add\n      mload\n        /* \"contracts/Staking.sol\":3376:3383  nftInfo */\n      0x04\n        /* \"contracts/Staking.sol\":3376:3406  nftInfo[IERC721(_stakeNFT[i])] */\n      0x00\n        /* \"contracts/Staking.sol\":3392:3401  _stakeNFT */\n      dup9\n        /* \"contracts/Staking.sol\":3402:3403  i */\n      dup5\n        /* \"contracts/Staking.sol\":3392:3404  _stakeNFT[i] */\n      dup2\n      mload\n      dup2\n      lt\n      tag_228\n      jumpi\n      tag_229\n      tag_88\n      jump\t// in\n    tag_229:\n    tag_228:\n      0x20\n      mul\n      0x20\n      add\n      add\n      mload\n        /* \"contracts/Staking.sol\":3376:3406  nftInfo[IERC721(_stakeNFT[i])] */\n      0xffffffffffffffffffffffffffffffffffffffff\n      and\n      0xffffffffffffffffffffffffffffffffffffffff\n      and\n      dup2\n      mstore\n      0x20\n      add\n      swap1\n      dup2\n      mstore\n      0x20\n      add\n      0x00\n      keccak256\n        /* \"contracts/Staking.sol\":3376:3421  nftInfo[IERC721(_stakeNFT[i])].rewardsPerWave */\n      0x01\n      add\n        /* \"contracts/Staking.sol\":3376:3441  nftInfo[IERC721(_stakeNFT[i])].rewardsPerWave = _rewardPerWave[i] */\n      dup2\n      swap1\n      sstore\n      pop\n        /* \"contracts/Staking.sol\":3506:3523  _rewardPercentage */\n      dup3\n        /* \"contracts/Staking.sol\":3524:3525  i */\n      dup2\n        /* \"contracts/Staking.sol\":3506:3526  _rewardPercentage[i] */\n      dup2\n      mload\n      dup2\n      lt\n      tag_230\n      jumpi\n      tag_231\n      tag_88\n      jump\t// in\n    tag_231:\n    tag_230:\n      0x20\n      mul\n      0x20\n      add\n      add\n      mload\n        /* \"contracts/Staking.sol\":3456:3463  nftInfo */\n      0x04\n        /* \"contracts/Staking.sol\":3456:3486  nftInfo[IERC721(_stakeNFT[i])] */\n      0x00\n        /* \"contracts/Staking.sol\":3472:3481  _stakeNFT */\n      dup9\n        /* \"contracts/Staking.sol\":3482:3483  i */\n      dup5\n        /* \"contracts/Staking.sol\":3472:3484  _stakeNFT[i] */\n      dup2\n      mload\n      dup2\n      lt\n      tag_232\n      jumpi\n      tag_233\n      tag_88\n      jump\t// in\n    tag_233:\n    tag_232:\n      0x20\n      mul\n      0x20\n      add\n      add\n      mload\n        /* \"contracts/Staking.sol\":3456:3486  nftInfo[IERC721(_stakeNFT[i])] */\n      0xffffffffffffffffffffffffffffffffffffffff\n      and\n      0xffffffffffffffffffffffffffffffffffffffff\n      and\n      dup2\n      mstore\n      0x20\n      add\n      swap1\n      dup2\n      mstore\n      0x20\n      add\n      0x00\n      keccak256\n        /* \"contracts/Staking.sol\":3456:3503  nftInfo[IERC721(_stakeNFT[i])].rewardPercentage */\n      0x02\n      add\n        /* \"contracts/Staking.sol\":3456:3526  nftInfo[IERC721(_stakeNFT[i])].rewardPercentage = _rewardPercentage[i] */\n      dup2\n      swap1\n      sstore\n      pop\n        /* \"contracts/Staking.sol\":3262:3265  i++ */\n      dup1\n      dup1\n      tag_234\n      swap1\n      tag_115\n      jump\t// in\n    tag_234:\n      swap2\n      pop\n      pop\n        /* \"contracts/Staking.sol\":3223:3534  for (uint i = 0; i < _stakeNFT.length; i++) {... */\n      jump(tag_219)\n    tag_220:\n      pop\n        /* \"contracts/Staking.sol\":2740:3541  function setLockPeriod(... */\n      pop\n      pop\n      pop\n      pop\n      pop\n      jump\t// out\n        /* \"contracts/Staking.sol\":1099:1118  uint256 public WAVE */\n    tag_58:\n      sload(0x05)\n      dup2\n      jump\t// out\n        /* \"contracts/Staking.sol\":1016:1063  mapping(IERC721 => stakeNftInfo) public nftInfo */\n    tag_63:\n      mstore(0x20, 0x04)\n      dup1\n      0x00\n      mstore\n      keccak256(0x00, 0x40)\n      0x00\n      swap2\n      pop\n      swap1\n      pop\n      dup1\n      0x00\n      add\n      0x00\n      swap1\n      sload\n      swap1\n      0x0100\n      exp\n      swap1\n      div\n      0xffffffffffffffffffffffffffffffffffffffff\n      and\n      swap1\n      dup1\n      0x01\n      add\n      sload\n      swap1\n      dup1\n      0x02\n      add\n      sload\n      swap1\n      pop\n      dup4\n      jump\t// out\n        /* \"@openzeppelin/contracts/access/Ownable.sol\":2081:2279  function transferOwnership(address newOwner) public virtual onlyOwner {... */\n    tag_69:\n        /* \"@openzeppelin/contracts/access/Ownable.sol\":1094:1107  _checkOwner() */\n      tag_236\n        /* \"@openzeppelin/contracts/access/Ownable.sol\":1094:1105  _checkOwner */\n      tag_158\n        /* \"@openzeppelin/contracts/access/Ownable.sol\":1094:1107  _checkOwner() */\n      jump\t// in\n    tag_236:\n        /* \"@openzeppelin/contracts/access/Ownable.sol\":2189:2190  0 */\n      0x00\n        /* \"@openzeppelin/contracts/access/Ownable.sol\":2169:2191  newOwner != address(0) */\n      0xffffffffffffffffffffffffffffffffffffffff\n      and\n        /* \"@openzeppelin/contracts/access/Ownable.sol\":2169:2177  newOwner */\n      dup2\n        /* \"@openzeppelin/contracts/access/Ownable.sol\":2169:2191  newOwner != address(0) */\n      0xffffffffffffffffffffffffffffffffffffffff\n      and\n      sub\n        /* \"@openzeppelin/contracts/access/Ownable.sol\":2161:2234  require(newOwner != address(0), \"Ownable: new owner is the zero address\") */\n      tag_238\n      jumpi\n      mload(0x40)\n      0x08c379a000000000000000000000000000000000000000000000000000000000\n      dup2\n      mstore\n      0x04\n      add\n      tag_239\n      swap1\n      tag_240\n      jump\t// in\n    tag_239:\n      mload(0x40)\n      dup1\n      swap2\n      sub\n      swap1\n      revert\n    tag_238:\n        /* \"@openzeppelin/contracts/access/Ownable.sol\":2244:2272  _transferOwnership(newOwner) */\n      tag_241\n        /* \"@openzeppelin/contracts/access/Ownable.sol\":2263:2271  newOwner */\n      dup2\n        /* \"@openzeppelin/contracts/access/Ownable.sol\":2244:2262  _transferOwnership */\n      tag_161\n        /* \"@openzeppelin/contracts/access/Ownable.sol\":2244:2272  _transferOwnership(newOwner) */\n      jump\t// in\n    tag_241:\n        /* \"@openzeppelin/contracts/access/Ownable.sol\":2081:2279  function transferOwnership(address newOwner) public virtual onlyOwner {... */\n      pop\n      jump\t// out\n        /* \"@openzeppelin/contracts/utils/Address.sol\":1175:1495  function isContract(address account) internal view returns (bool) {... */\n    tag_72:\n        /* \"@openzeppelin/contracts/utils/Address.sol\":1235:1239  bool */\n      0x00\n        /* \"@openzeppelin/contracts/utils/Address.sol\":1487:1488  0 */\n      dup1\n        /* \"@openzeppelin/contracts/utils/Address.sol\":1465:1472  account */\n      dup3\n        /* \"@openzeppelin/contracts/utils/Address.sol\":1465:1484  account.code.length */\n      0xffffffffffffffffffffffffffffffffffffffff\n      and\n      extcodesize\n        /* \"@openzeppelin/contracts/utils/Address.sol\":1465:1488  account.code.length > 0 */\n      gt\n        /* \"@openzeppelin/contracts/utils/Address.sol\":1458:1488  return account.code.length > 0 */\n      swap1\n      pop\n        /* \"@openzeppelin/contracts/utils/Address.sol\":1175:1495  function isContract(address account) internal view returns (bool) {... */\n      swap2\n      swap1\n      pop\n      jump\t// out\n        /* \"contracts/Staking.sol\":7301:7813  function _rewardAmount(uint256 _tokenId, IERC721 nftAddress) internal view returns (uint256) {... */\n    tag_103:\n        /* \"contracts/Staking.sol\":7385:7392  uint256 */\n      0x00\n        /* \"contracts/Staking.sol\":7405:7425  LockInfo memory info */\n      dup1\n        /* \"contracts/Staking.sol\":7428:7436  lockInfo */\n      0x03\n        /* \"contracts/Staking.sol\":7428:7457  lockInfo[IERC721(nftAddress)] */\n      0x00\n        /* \"contracts/Staking.sol\":7445:7455  nftAddress */\n      dup5\n        /* \"contracts/Staking.sol\":7428:7457  lockInfo[IERC721(nftAddress)] */\n      0xffffffffffffffffffffffffffffffffffffffff\n      and\n      0xffffffffffffffffffffffffffffffffffffffff\n      and\n      dup2\n      mstore\n      0x20\n      add\n      swap1\n      dup2\n      mstore\n      0x20\n      add\n      0x00\n      keccak256\n        /* \"contracts/Staking.sol\":7428:7467  lockInfo[IERC721(nftAddress)][_tokenId] */\n      0x00\n        /* \"contracts/Staking.sol\":7458:7466  _tokenId */\n      dup6\n        /* \"contracts/Staking.sol\":7428:7467  lockInfo[IERC721(nftAddress)][_tokenId] */\n      dup2\n      mstore\n      0x20\n      add\n      swap1\n      dup2\n      mstore\n      0x20\n      add\n      0x00\n      keccak256\n        /* \"contracts/Staking.sol\":7405:7467  LockInfo memory info = lockInfo[IERC721(nftAddress)][_tokenId] */\n      mload(0x40)\n      dup1\n      0xa0\n      add\n      0x40\n      mstore\n      swap1\n      dup2\n      0x00\n      dup3\n      add\n      0x00\n      swap1\n      sload\n      swap1\n      0x0100\n      exp\n      swap1\n      div\n      0xffffffffffffffffffffffffffffffffffffffff\n      and\n      0xffffffffffffffffffffffffffffffffffffffff\n      and\n      0xffffffffffffffffffffffffffffffffffffffff\n      and\n      dup2\n      mstore\n      0x20\n      add\n      0x01\n      dup3\n      add\n      sload\n      dup2\n      mstore\n      0x20\n      add\n      0x02\n      dup3\n      add\n      sload\n      dup2\n      mstore\n      0x20\n      add\n      0x03\n      dup3\n      add\n      0x00\n      swap1\n      sload\n      swap1\n      0x0100\n      exp\n      swap1\n      div\n      0xff\n      and\n      iszero\n      iszero\n      iszero\n      iszero\n      dup2\n      mstore\n      0x20\n      add\n      0x03\n      dup3\n      add\n      0x01\n      swap1\n      sload\n      swap1\n      0x0100\n      exp\n      swap1\n      div\n      0xffffffffffffffffffffffffffffffffffffffff\n      and\n      0xffffffffffffffffffffffffffffffffffffffff\n      and\n      0xffffffffffffffffffffffffffffffffffffffff\n      and\n      dup2\n      mstore\n      pop\n      pop\n      swap1\n      pop\n        /* \"contracts/Staking.sol\":7478:7501  uint256 stakingDuration */\n      0x00\n        /* \"contracts/Staking.sol\":7522:7526  info */\n      dup2\n        /* \"contracts/Staking.sol\":7522:7537  info.lockedTime */\n      0x20\n      add\n      mload\n        /* \"contracts/Staking.sol\":7504:7519  block.timestamp */\n      timestamp\n        /* \"contracts/Staking.sol\":7504:7537  block.timestamp - info.lockedTime */\n      tag_244\n      swap2\n      swap1\n      tag_105\n      jump\t// in\n    tag_244:\n        /* \"contracts/Staking.sol\":7478:7537  uint256 stakingDuration = block.timestamp - info.lockedTime */\n      swap1\n      pop\n        /* \"contracts/Staking.sol\":7548:7567  uint256 totalAmount */\n      0x00\n        /* \"contracts/Staking.sol\":7602:7612  lockPeriod */\n      sload(0x02)\n        /* \"contracts/Staking.sol\":7584:7599  stakingDuration */\n      dup3\n        /* \"contracts/Staking.sol\":7584:7612  stakingDuration < lockPeriod */\n      lt\n        /* \"contracts/Staking.sol\":7580:7806  if (stakingDuration < lockPeriod) {... */\n      iszero\n      tag_245\n      jumpi\n        /* \"contracts/Staking.sol\":7636:7637  0 */\n      0x00\n        /* \"contracts/Staking.sol\":7629:7637  return 0 */\n      swap4\n      pop\n      pop\n      pop\n      pop\n      jump(tag_243)\n        /* \"contracts/Staking.sol\":7580:7806  if (stakingDuration < lockPeriod) {... */\n    tag_245:\n        /* \"contracts/Staking.sol\":7757:7761  WAVE */\n      sload(0x05)\n        /* \"contracts/Staking.sol\":7742:7752  lockPeriod */\n      sload(0x02)\n        /* \"contracts/Staking.sol\":7724:7739  stakingDuration */\n      dup4\n        /* \"contracts/Staking.sol\":7724:7752  stakingDuration - lockPeriod */\n      tag_247\n      swap2\n      swap1\n      tag_105\n      jump\t// in\n    tag_247:\n        /* \"contracts/Staking.sol\":7686:7693  nftInfo */\n      0x04\n        /* \"contracts/Staking.sol\":7686:7705  nftInfo[nftAddress] */\n      0x00\n        /* \"contracts/Staking.sol\":7694:7704  nftAddress */\n      dup9\n        /* \"contracts/Staking.sol\":7686:7705  nftInfo[nftAddress] */\n      0xffffffffffffffffffffffffffffffffffffffff\n      and\n      0xffffffffffffffffffffffffffffffffffffffff\n      and\n      dup2\n      mstore\n      0x20\n      add\n      swap1\n      dup2\n      mstore\n      0x20\n      add\n      0x00\n      keccak256\n        /* \"contracts/Staking.sol\":7686:7720  nftInfo[nftAddress].rewardsPerWave */\n      0x01\n      add\n      sload\n        /* \"contracts/Staking.sol\":7686:7753  nftInfo[nftAddress].rewardsPerWave * (stakingDuration - lockPeriod) */\n      tag_248\n      swap2\n      swap1\n      tag_249\n      jump\t// in\n    tag_248:\n        /* \"contracts/Staking.sol\":7684:7761  ( nftInfo[nftAddress].rewardsPerWave * (stakingDuration - lockPeriod)) / WAVE */\n      tag_250\n      swap2\n      swap1\n      tag_251\n      jump\t// in\n    tag_250:\n        /* \"contracts/Staking.sol\":7670:7761  totalAmount = ( nftInfo[nftAddress].rewardsPerWave * (stakingDuration - lockPeriod)) / WAVE */\n      swap1\n      pop\n        /* \"contracts/Staking.sol\":7783:7794  totalAmount */\n      dup1\n        /* \"contracts/Staking.sol\":7776:7794  return totalAmount */\n      swap4\n      pop\n      pop\n      pop\n      pop\n        /* \"contracts/Staking.sol\":7301:7813  function _rewardAmount(uint256 _tokenId, IERC721 nftAddress) internal view returns (uint256) {... */\n    tag_243:\n      swap3\n      swap2\n      pop\n      pop\n      jump\t// out\n        /* \"@openzeppelin/contracts/access/Ownable.sol\":1359:1489  function _checkOwner() internal view virtual {... */\n    tag_158:\n        /* \"@openzeppelin/contracts/access/Ownable.sol\":1433:1445  _msgSender() */\n      tag_253\n        /* \"@openzeppelin/contracts/access/Ownable.sol\":1433:1443  _msgSender */\n      tag_254\n        /* \"@openzeppelin/contracts/access/Ownable.sol\":1433:1445  _msgSender() */\n      jump\t// in\n    tag_253:\n        /* \"@openzeppelin/contracts/access/Ownable.sol\":1422:1445  owner() == _msgSender() */\n      0xffffffffffffffffffffffffffffffffffffffff\n      and\n        /* \"@openzeppelin/contracts/access/Ownable.sol\":1422:1429  owner() */\n      tag_255\n        /* \"@openzeppelin/contracts/access/Ownable.sol\":1422:1427  owner */\n      tag_36\n        /* \"@openzeppelin/contracts/access/Ownable.sol\":1422:1429  owner() */\n      jump\t// in\n    tag_255:\n        /* \"@openzeppelin/contracts/access/Ownable.sol\":1422:1445  owner() == _msgSender() */\n      0xffffffffffffffffffffffffffffffffffffffff\n      and\n      eq\n        /* \"@openzeppelin/contracts/access/Ownable.sol\":1414:1482  require(owner() == _msgSender(), \"Ownable: caller is not the owner\") */\n      tag_256\n      jumpi\n      mload(0x40)\n      0x08c379a000000000000000000000000000000000000000000000000000000000\n      dup2\n      mstore\n      0x04\n      add\n      tag_257\n      swap1\n      tag_258\n      jump\t// in\n    tag_257:\n      mload(0x40)\n      dup1\n      swap2\n      sub\n      swap1\n      revert\n    tag_256:\n        /* \"@openzeppelin/contracts/access/Ownable.sol\":1359:1489  function _checkOwner() internal view virtual {... */\n      jump\t// out\n        /* \"@openzeppelin/contracts/access/Ownable.sol\":2433:2620  function _transferOwnership(address newOwner) internal virtual {... */\n    tag_161:\n        /* \"@openzeppelin/contracts/access/Ownable.sol\":2506:2522  address oldOwner */\n      0x00\n        /* \"@openzeppelin/contracts/access/Ownable.sol\":2525:2531  _owner */\n      dup1\n      0x00\n      swap1\n      sload\n      swap1\n      0x0100\n      exp\n      swap1\n      div\n      0xffffffffffffffffffffffffffffffffffffffff\n      and\n        /* \"@openzeppelin/contracts/access/Ownable.sol\":2506:2531  address oldOwner = _owner */\n      swap1\n      pop\n        /* \"@openzeppelin/contracts/access/Ownable.sol\":2550:2558  newOwner */\n      dup2\n        /* \"@openzeppelin/contracts/access/Ownable.sol\":2541:2547  _owner */\n      0x00\n      dup1\n        /* \"@openzeppelin/contracts/access/Ownable.sol\":2541:2558  _owner = newOwner */\n      0x0100\n      exp\n      dup2\n      sload\n      dup2\n      0xffffffffffffffffffffffffffffffffffffffff\n      mul\n      not\n      and\n      swap1\n      dup4\n      0xffffffffffffffffffffffffffffffffffffffff\n      and\n      mul\n      or\n      swap1\n      sstore\n      pop\n        /* \"@openzeppelin/contracts/access/Ownable.sol\":2604:2612  newOwner */\n      dup2\n        /* \"@openzeppelin/contracts/access/Ownable.sol\":2573:2613  OwnershipTransferred(oldOwner, newOwner) */\n      0xffffffffffffffffffffffffffffffffffffffff\n      and\n        /* \"@openzeppelin/contracts/access/Ownable.sol\":2594:2602  oldOwner */\n      dup2\n        /* \"@openzeppelin/contracts/access/Ownable.sol\":2573:2613  OwnershipTransferred(oldOwner, newOwner) */\n      0xffffffffffffffffffffffffffffffffffffffff\n      and\n      0x8be0079c531659141344cd1fd0a4f28419497f9722a3daafe3b4186f6b6457e0\n      mload(0x40)\n      mload(0x40)\n      dup1\n      swap2\n      sub\n      swap1\n      log3\n        /* \"@openzeppelin/contracts/access/Ownable.sol\":2496:2620  {... */\n      pop\n        /* \"@openzeppelin/contracts/access/Ownable.sol\":2433:2620  function _transferOwnership(address newOwner) internal virtual {... */\n      pop\n      jump\t// out\n        /* \"@openzeppelin/contracts/utils/Context.sol\":640:736  function _msgSender() internal view virtual returns (address) {... */\n    tag_254:\n        /* \"@openzeppelin/contracts/utils/Context.sol\":693:700  address */\n      0x00\n        /* \"@openzeppelin/contracts/utils/Context.sol\":719:729  msg.sender */\n      caller\n        /* \"@openzeppelin/contracts/utils/Context.sol\":712:729  return msg.sender */\n      swap1\n      pop\n        /* \"@openzeppelin/contracts/utils/Context.sol\":640:736  function _msgSender() internal view virtual returns (address) {... */\n      swap1\n      jump\t// out\n        /* \"#utility.yul\":7:82   */\n    tag_261:\n        /* \"#utility.yul\":40:46   */\n      0x00\n        /* \"#utility.yul\":73:75   */\n      0x40\n        /* \"#utility.yul\":67:76   */\n      mload\n        /* \"#utility.yul\":57:76   */\n      swap1\n      pop\n        /* \"#utility.yul\":7:82   */\n      swap1\n      jump\t// out\n        /* \"#utility.yul\":88:205   */\n    tag_262:\n        /* \"#utility.yul\":197:198   */\n      0x00\n        /* \"#utility.yul\":194:195   */\n      dup1\n        /* \"#utility.yul\":187:199   */\n      revert\n        /* \"#utility.yul\":211:328   */\n    tag_263:\n        /* \"#utility.yul\":320:321   */\n      0x00\n        /* \"#utility.yul\":317:318   */\n      dup1\n        /* \"#utility.yul\":310:322   */\n      revert\n        /* \"#utility.yul\":334:451   */\n    tag_264:\n        /* \"#utility.yul\":443:444   */\n      0x00\n        /* \"#utility.yul\":440:441   */\n      dup1\n        /* \"#utility.yul\":433:445   */\n      revert\n        /* \"#utility.yul\":457:574   */\n    tag_265:\n        /* \"#utility.yul\":566:567   */\n      0x00\n        /* \"#utility.yul\":563:564   */\n      dup1\n        /* \"#utility.yul\":556:568   */\n      revert\n        /* \"#utility.yul\":580:697   */\n    tag_266:\n        /* \"#utility.yul\":689:690   */\n      0x00\n        /* \"#utility.yul\":686:687   */\n      dup1\n        /* \"#utility.yul\":679:691   */\n      revert\n        /* \"#utility.yul\":720:1288   */\n    tag_267:\n        /* \"#utility.yul\":793:801   */\n      0x00\n        /* \"#utility.yul\":803:809   */\n      dup1\n        /* \"#utility.yul\":853:856   */\n      dup4\n        /* \"#utility.yul\":846:850   */\n      0x1f\n        /* \"#utility.yul\":838:844   */\n      dup5\n        /* \"#utility.yul\":834:851   */\n      add\n        /* \"#utility.yul\":830:857   */\n      slt\n        /* \"#utility.yul\":820:942   */\n      tag_339\n      jumpi\n        /* \"#utility.yul\":861:940   */\n      tag_340\n      tag_264\n      jump\t// in\n    tag_340:\n        /* \"#utility.yul\":820:942   */\n    tag_339:\n        /* \"#utility.yul\":974:980   */\n      dup3\n        /* \"#utility.yul\":961:981   */\n      calldataload\n        /* \"#utility.yul\":951:981   */\n      swap1\n      pop\n        /* \"#utility.yul\":1004:1022   */\n      0xffffffffffffffff\n        /* \"#utility.yul\":996:1002   */\n      dup2\n        /* \"#utility.yul\":993:1023   */\n      gt\n        /* \"#utility.yul\":990:1107   */\n      iszero\n      tag_341\n      jumpi\n        /* \"#utility.yul\":1026:1105   */\n      tag_342\n      tag_265\n      jump\t// in\n    tag_342:\n        /* \"#utility.yul\":990:1107   */\n    tag_341:\n        /* \"#utility.yul\":1140:1144   */\n      0x20\n        /* \"#utility.yul\":1132:1138   */\n      dup4\n        /* \"#utility.yul\":1128:1145   */\n      add\n        /* \"#utility.yul\":1116:1145   */\n      swap2\n      pop\n        /* \"#utility.yul\":1194:1197   */\n      dup4\n        /* \"#utility.yul\":1186:1190   */\n      0x20\n        /* \"#utility.yul\":1178:1184   */\n      dup3\n        /* \"#utility.yul\":1174:1191   */\n      mul\n        /* \"#utility.yul\":1164:1172   */\n      dup4\n        /* \"#utility.yul\":1160:1192   */\n      add\n        /* \"#utility.yul\":1157:1198   */\n      gt\n        /* \"#utility.yul\":1154:1282   */\n      iszero\n      tag_343\n      jumpi\n        /* \"#utility.yul\":1201:1280   */\n      tag_344\n      tag_266\n      jump\t// in\n    tag_344:\n        /* \"#utility.yul\":1154:1282   */\n    tag_343:\n        /* \"#utility.yul\":720:1288   */\n      swap3\n      pop\n      swap3\n      swap1\n      pop\n      jump\t// out\n        /* \"#utility.yul\":1294:1420   */\n    tag_268:\n        /* \"#utility.yul\":1331:1338   */\n      0x00\n        /* \"#utility.yul\":1371:1413   */\n      0xffffffffffffffffffffffffffffffffffffffff\n        /* \"#utility.yul\":1364:1369   */\n      dup3\n        /* \"#utility.yul\":1360:1414   */\n      and\n        /* \"#utility.yul\":1349:1414   */\n      swap1\n      pop\n        /* \"#utility.yul\":1294:1420   */\n      swap2\n      swap1\n      pop\n      jump\t// out\n        /* \"#utility.yul\":1426:1522   */\n    tag_269:\n        /* \"#utility.yul\":1463:1470   */\n      0x00\n        /* \"#utility.yul\":1492:1516   */\n      tag_347\n        /* \"#utility.yul\":1510:1515   */\n      dup3\n        /* \"#utility.yul\":1492:1516   */\n      tag_268\n      jump\t// in\n    tag_347:\n        /* \"#utility.yul\":1481:1516   */\n      swap1\n      pop\n        /* \"#utility.yul\":1426:1522   */\n      swap2\n      swap1\n      pop\n      jump\t// out\n        /* \"#utility.yul\":1528:1639   */\n    tag_270:\n        /* \"#utility.yul\":1580:1587   */\n      0x00\n        /* \"#utility.yul\":1609:1633   */\n      tag_349\n        /* \"#utility.yul\":1627:1632   */\n      dup3\n        /* \"#utility.yul\":1609:1633   */\n      tag_269\n      jump\t// in\n    tag_349:\n        /* \"#utility.yul\":1598:1633   */\n      swap1\n      pop\n        /* \"#utility.yul\":1528:1639   */\n      swap2\n      swap1\n      pop\n      jump\t// out\n        /* \"#utility.yul\":1645:1797   */\n    tag_271:\n        /* \"#utility.yul\":1733:1772   */\n      tag_351\n        /* \"#utility.yul\":1766:1771   */\n      dup2\n        /* \"#utility.yul\":1733:1772   */\n      tag_270\n      jump\t// in\n    tag_351:\n        /* \"#utility.yul\":1726:1731   */\n      dup2\n        /* \"#utility.yul\":1723:1773   */\n      eq\n        /* \"#utility.yul\":1713:1791   */\n      tag_352\n      jumpi\n        /* \"#utility.yul\":1787:1788   */\n      0x00\n        /* \"#utility.yul\":1784:1785   */\n      dup1\n        /* \"#utility.yul\":1777:1789   */\n      revert\n        /* \"#utility.yul\":1713:1791   */\n    tag_352:\n        /* \"#utility.yul\":1645:1797   */\n      pop\n      jump\t// out\n        /* \"#utility.yul\":1803:1972   */\n    tag_272:\n        /* \"#utility.yul\":1864:1869   */\n      0x00\n        /* \"#utility.yul\":1902:1908   */\n      dup2\n        /* \"#utility.yul\":1889:1909   */\n      calldataload\n        /* \"#utility.yul\":1880:1909   */\n      swap1\n      pop\n        /* \"#utility.yul\":1918:1966   */\n      tag_354\n        /* \"#utility.yul\":1960:1965   */\n      dup2\n        /* \"#utility.yul\":1918:1966   */\n      tag_271\n      jump\t// in\n    tag_354:\n        /* \"#utility.yul\":1803:1972   */\n      swap3\n      swap2\n      pop\n      pop\n      jump\t// out\n        /* \"#utility.yul\":1978:2712   */\n    tag_20:\n        /* \"#utility.yul\":2088:2094   */\n      0x00\n        /* \"#utility.yul\":2096:2102   */\n      dup1\n        /* \"#utility.yul\":2104:2110   */\n      0x00\n        /* \"#utility.yul\":2153:2155   */\n      0x40\n        /* \"#utility.yul\":2141:2150   */\n      dup5\n        /* \"#utility.yul\":2132:2139   */\n      dup7\n        /* \"#utility.yul\":2128:2151   */\n      sub\n        /* \"#utility.yul\":2124:2156   */\n      slt\n        /* \"#utility.yul\":2121:2240   */\n      iszero\n      tag_356\n      jumpi\n        /* \"#utility.yul\":2159:2238   */\n      tag_357\n      tag_262\n      jump\t// in\n    tag_357:\n        /* \"#utility.yul\":2121:2240   */\n    tag_356:\n        /* \"#utility.yul\":2307:2308   */\n      0x00\n        /* \"#utility.yul\":2296:2305   */\n      dup5\n        /* \"#utility.yul\":2292:2309   */\n      add\n        /* \"#utility.yul\":2279:2310   */\n      calldataload\n        /* \"#utility.yul\":2337:2355   */\n      0xffffffffffffffff\n        /* \"#utility.yul\":2329:2335   */\n      dup2\n        /* \"#utility.yul\":2326:2356   */\n      gt\n        /* \"#utility.yul\":2323:2440   */\n      iszero\n      tag_358\n      jumpi\n        /* \"#utility.yul\":2359:2438   */\n      tag_359\n      tag_263\n      jump\t// in\n    tag_359:\n        /* \"#utility.yul\":2323:2440   */\n    tag_358:\n        /* \"#utility.yul\":2472:2552   */\n      tag_360\n        /* \"#utility.yul\":2544:2551   */\n      dup7\n        /* \"#utility.yul\":2535:2541   */\n      dup3\n        /* \"#utility.yul\":2524:2533   */\n      dup8\n        /* \"#utility.yul\":2520:2542   */\n      add\n        /* \"#utility.yul\":2472:2552   */\n      tag_267\n      jump\t// in\n    tag_360:\n        /* \"#utility.yul\":2454:2552   */\n      swap4\n      pop\n      swap4\n      pop\n        /* \"#utility.yul\":2250:2562   */\n      pop\n        /* \"#utility.yul\":2601:2603   */\n      0x20\n        /* \"#utility.yul\":2627:2695   */\n      tag_361\n        /* \"#utility.yul\":2687:2694   */\n      dup7\n        /* \"#utility.yul\":2678:2684   */\n      dup3\n        /* \"#utility.yul\":2667:2676   */\n      dup8\n        /* \"#utility.yul\":2663:2685   */\n      add\n        /* \"#utility.yul\":2627:2695   */\n      tag_272\n      jump\t// in\n    tag_361:\n        /* \"#utility.yul\":2617:2695   */\n      swap2\n      pop\n        /* \"#utility.yul\":2572:2705   */\n      pop\n        /* \"#utility.yul\":1978:2712   */\n      swap3\n      pop\n      swap3\n      pop\n      swap3\n      jump\t// out\n        /* \"#utility.yul\":2718:2795   */\n    tag_273:\n        /* \"#utility.yul\":2755:2762   */\n      0x00\n        /* \"#utility.yul\":2784:2789   */\n      dup2\n        /* \"#utility.yul\":2773:2789   */\n      swap1\n      pop\n        /* \"#utility.yul\":2718:2795   */\n      swap2\n      swap1\n      pop\n      jump\t// out\n        /* \"#utility.yul\":2801:2919   */\n    tag_274:\n        /* \"#utility.yul\":2888:2912   */\n      tag_364\n        /* \"#utility.yul\":2906:2911   */\n      dup2\n        /* \"#utility.yul\":2888:2912   */\n      tag_273\n      jump\t// in\n    tag_364:\n        /* \"#utility.yul\":2883:2886   */\n      dup3\n        /* \"#utility.yul\":2876:2913   */\n      mstore\n        /* \"#utility.yul\":2801:2919   */\n      pop\n      pop\n      jump\t// out\n        /* \"#utility.yul\":2925:3147   */\n    tag_28:\n        /* \"#utility.yul\":3018:3022   */\n      0x00\n        /* \"#utility.yul\":3056:3058   */\n      0x20\n        /* \"#utility.yul\":3045:3054   */\n      dup3\n        /* \"#utility.yul\":3041:3059   */\n      add\n        /* \"#utility.yul\":3033:3059   */\n      swap1\n      pop\n        /* \"#utility.yul\":3069:3140   */\n      tag_366\n        /* \"#utility.yul\":3137:3138   */\n      0x00\n        /* \"#utility.yul\":3126:3135   */\n      dup4\n        /* \"#utility.yul\":3122:3139   */\n      add\n        /* \"#utility.yul\":3113:3119   */\n      dup5\n        /* \"#utility.yul\":3069:3140   */\n      tag_274\n      jump\t// in\n    tag_366:\n        /* \"#utility.yul\":2925:3147   */\n      swap3\n      swap2\n      pop\n      pop\n      jump\t// out\n        /* \"#utility.yul\":3153:3275   */\n    tag_275:\n        /* \"#utility.yul\":3226:3250   */\n      tag_368\n        /* \"#utility.yul\":3244:3249   */\n      dup2\n        /* \"#utility.yul\":3226:3250   */\n      tag_273\n      jump\t// in\n    tag_368:\n        /* \"#utility.yul\":3219:3224   */\n      dup2\n        /* \"#utility.yul\":3216:3251   */\n      eq\n        /* \"#utility.yul\":3206:3269   */\n      tag_369\n      jumpi\n        /* \"#utility.yul\":3265:3266   */\n      0x00\n        /* \"#utility.yul\":3262:3263   */\n      dup1\n        /* \"#utility.yul\":3255:3267   */\n      revert\n        /* \"#utility.yul\":3206:3269   */\n    tag_369:\n        /* \"#utility.yul\":3153:3275   */\n      pop\n      jump\t// out\n        /* \"#utility.yul\":3281:3420   */\n    tag_276:\n        /* \"#utility.yul\":3327:3332   */\n      0x00\n        /* \"#utility.yul\":3365:3371   */\n      dup2\n        /* \"#utility.yul\":3352:3372   */\n      calldataload\n        /* \"#utility.yul\":3343:3372   */\n      swap1\n      pop\n        /* \"#utility.yul\":3381:3414   */\n      tag_371\n        /* \"#utility.yul\":3408:3413   */\n      dup2\n        /* \"#utility.yul\":3381:3414   */\n      tag_275\n      jump\t// in\n    tag_371:\n        /* \"#utility.yul\":3281:3420   */\n      swap3\n      swap2\n      pop\n      pop\n      jump\t// out\n        /* \"#utility.yul\":3426:3755   */\n    tag_33:\n        /* \"#utility.yul\":3485:3491   */\n      0x00\n        /* \"#utility.yul\":3534:3536   */\n      0x20\n        /* \"#utility.yul\":3522:3531   */\n      dup3\n        /* \"#utility.yul\":3513:3520   */\n      dup5\n        /* \"#utility.yul\":3509:3532   */\n      sub\n        /* \"#utility.yul\":3505:3537   */\n      slt\n        /* \"#utility.yul\":3502:3621   */\n      iszero\n      tag_373\n      jumpi\n        /* \"#utility.yul\":3540:3619   */\n      tag_374\n      tag_262\n      jump\t// in\n    tag_374:\n        /* \"#utility.yul\":3502:3621   */\n    tag_373:\n        /* \"#utility.yul\":3660:3661   */\n      0x00\n        /* \"#utility.yul\":3685:3738   */\n      tag_375\n        /* \"#utility.yul\":3730:3737   */\n      dup5\n        /* \"#utility.yul\":3721:3727   */\n      dup3\n        /* \"#utility.yul\":3710:3719   */\n      dup6\n        /* \"#utility.yul\":3706:3728   */\n      add\n        /* \"#utility.yul\":3685:3738   */\n      tag_276\n      jump\t// in\n    tag_375:\n        /* \"#utility.yul\":3675:3738   */\n      swap2\n      pop\n        /* \"#utility.yul\":3631:3748   */\n      pop\n        /* \"#utility.yul\":3426:3755   */\n      swap3\n      swap2\n      pop\n      pop\n      jump\t// out\n        /* \"#utility.yul\":3761:3879   */\n    tag_277:\n        /* \"#utility.yul\":3848:3872   */\n      tag_377\n        /* \"#utility.yul\":3866:3871   */\n      dup2\n        /* \"#utility.yul\":3848:3872   */\n      tag_269\n      jump\t// in\n    tag_377:\n        /* \"#utility.yul\":3843:3846   */\n      dup3\n        /* \"#utility.yul\":3836:3873   */\n      mstore\n        /* \"#utility.yul\":3761:3879   */\n      pop\n      pop\n      jump\t// out\n        /* \"#utility.yul\":3885:4107   */\n    tag_38:\n        /* \"#utility.yul\":3978:3982   */\n      0x00\n        /* \"#utility.yul\":4016:4018   */\n      0x20\n        /* \"#utility.yul\":4005:4014   */\n      dup3\n        /* \"#utility.yul\":4001:4019   */\n      add\n        /* \"#utility.yul\":3993:4019   */\n      swap1\n      pop\n        /* \"#utility.yul\":4029:4100   */\n      tag_379\n        /* \"#utility.yul\":4097:4098   */\n      0x00\n        /* \"#utility.yul\":4086:4095   */\n      dup4\n        /* \"#utility.yul\":4082:4099   */\n      add\n        /* \"#utility.yul\":4073:4079   */\n      dup5\n        /* \"#utility.yul\":4029:4100   */\n      tag_277\n      jump\t// in\n    tag_379:\n        /* \"#utility.yul\":3885:4107   */\n      swap3\n      swap2\n      pop\n      pop\n      jump\t// out\n        /* \"#utility.yul\":4113:4617   */\n    tag_44:\n        /* \"#utility.yul\":4196:4202   */\n      0x00\n        /* \"#utility.yul\":4204:4210   */\n      dup1\n        /* \"#utility.yul\":4253:4255   */\n      0x40\n        /* \"#utility.yul\":4241:4250   */\n      dup4\n        /* \"#utility.yul\":4232:4239   */\n      dup6\n        /* \"#utility.yul\":4228:4251   */\n      sub\n        /* \"#utility.yul\":4224:4256   */\n      slt\n        /* \"#utility.yul\":4221:4340   */\n      iszero\n      tag_381\n      jumpi\n        /* \"#utility.yul\":4259:4338   */\n      tag_382\n      tag_262\n      jump\t// in\n    tag_382:\n        /* \"#utility.yul\":4221:4340   */\n    tag_381:\n        /* \"#utility.yul\":4379:4380   */\n      0x00\n        /* \"#utility.yul\":4404:4472   */\n      tag_383\n        /* \"#utility.yul\":4464:4471   */\n      dup6\n        /* \"#utility.yul\":4455:4461   */\n      dup3\n        /* \"#utility.yul\":4444:4453   */\n      dup7\n        /* \"#utility.yul\":4440:4462   */\n      add\n        /* \"#utility.yul\":4404:4472   */\n      tag_272\n      jump\t// in\n    tag_383:\n        /* \"#utility.yul\":4394:4472   */\n      swap3\n      pop\n        /* \"#utility.yul\":4350:4482   */\n      pop\n        /* \"#utility.yul\":4521:4523   */\n      0x20\n        /* \"#utility.yul\":4547:4600   */\n      tag_384\n        /* \"#utility.yul\":4592:4599   */\n      dup6\n        /* \"#utility.yul\":4583:4589   */\n      dup3\n        /* \"#utility.yul\":4572:4581   */\n      dup7\n        /* \"#utility.yul\":4568:4590   */\n      add\n        /* \"#utility.yul\":4547:4600   */\n      tag_276\n      jump\t// in\n    tag_384:\n        /* \"#utility.yul\":4537:4600   */\n      swap2\n      pop\n        /* \"#utility.yul\":4492:4610   */\n      pop\n        /* \"#utility.yul\":4113:4617   */\n      swap3\n      pop\n      swap3\n      swap1\n      pop\n      jump\t// out\n        /* \"#utility.yul\":4623:4713   */\n    tag_278:\n        /* \"#utility.yul\":4657:4664   */\n      0x00\n        /* \"#utility.yul\":4700:4705   */\n      dup2\n        /* \"#utility.yul\":4693:4706   */\n      iszero\n        /* \"#utility.yul\":4686:4707   */\n      iszero\n        /* \"#utility.yul\":4675:4707   */\n      swap1\n      pop\n        /* \"#utility.yul\":4623:4713   */\n      swap2\n      swap1\n      pop\n      jump\t// out\n        /* \"#utility.yul\":4719:4828   */\n    tag_279:\n        /* \"#utility.yul\":4800:4821   */\n      tag_387\n        /* \"#utility.yul\":4815:4820   */\n      dup2\n        /* \"#utility.yul\":4800:4821   */\n      tag_278\n      jump\t// in\n    tag_387:\n        /* \"#utility.yul\":4795:4798   */\n      dup3\n        /* \"#utility.yul\":4788:4822   */\n      mstore\n        /* \"#utility.yul\":4719:4828   */\n      pop\n      pop\n      jump\t// out\n        /* \"#utility.yul\":4834:4894   */\n    tag_280:\n        /* \"#utility.yul\":4862:4865   */\n      0x00\n        /* \"#utility.yul\":4883:4888   */\n      dup2\n        /* \"#utility.yul\":4876:4888   */\n      swap1\n      pop\n        /* \"#utility.yul\":4834:4894   */\n      swap2\n      swap1\n      pop\n      jump\t// out\n        /* \"#utility.yul\":4900:5042   */\n    tag_281:\n        /* \"#utility.yul\":4950:4959   */\n      0x00\n        /* \"#utility.yul\":4983:5036   */\n      tag_390\n        /* \"#utility.yul\":5001:5035   */\n      tag_391\n        /* \"#utility.yul\":5010:5034   */\n      tag_392\n        /* \"#utility.yul\":5028:5033   */\n      dup5\n        /* \"#utility.yul\":5010:5034   */\n      tag_268\n      jump\t// in\n    tag_392:\n        /* \"#utility.yul\":5001:5035   */\n      tag_280\n      jump\t// in\n    tag_391:\n        /* \"#utility.yul\":4983:5036   */\n      tag_268\n      jump\t// in\n    tag_390:\n        /* \"#utility.yul\":4970:5036   */\n      swap1\n      pop\n        /* \"#utility.yul\":4900:5042   */\n      swap2\n      swap1\n      pop\n      jump\t// out\n        /* \"#utility.yul\":5048:5174   */\n    tag_282:\n        /* \"#utility.yul\":5098:5107   */\n      0x00\n        /* \"#utility.yul\":5131:5168   */\n      tag_394\n        /* \"#utility.yul\":5162:5167   */\n      dup3\n        /* \"#utility.yul\":5131:5168   */\n      tag_281\n      jump\t// in\n    tag_394:\n        /* \"#utility.yul\":5118:5168   */\n      swap1\n      pop\n        /* \"#utility.yul\":5048:5174   */\n      swap2\n      swap1\n      pop\n      jump\t// out\n        /* \"#utility.yul\":5180:5321   */\n    tag_283:\n        /* \"#utility.yul\":5245:5254   */\n      0x00\n        /* \"#utility.yul\":5278:5315   */\n      tag_396\n        /* \"#utility.yul\":5309:5314   */\n      dup3\n        /* \"#utility.yul\":5278:5315   */\n      tag_282\n      jump\t// in\n    tag_396:\n        /* \"#utility.yul\":5265:5315   */\n      swap1\n      pop\n        /* \"#utility.yul\":5180:5321   */\n      swap2\n      swap1\n      pop\n      jump\t// out\n        /* \"#utility.yul\":5327:5488   */\n    tag_284:\n        /* \"#utility.yul\":5429:5481   */\n      tag_398\n        /* \"#utility.yul\":5475:5480   */\n      dup2\n        /* \"#utility.yul\":5429:5481   */\n      tag_283\n      jump\t// in\n    tag_398:\n        /* \"#utility.yul\":5424:5427   */\n      dup3\n        /* \"#utility.yul\":5417:5482   */\n      mstore\n        /* \"#utility.yul\":5327:5488   */\n      pop\n      pop\n      jump\t// out\n        /* \"#utility.yul\":5494:6176   */\n    tag_47:\n        /* \"#utility.yul\":5708:5712   */\n      0x00\n        /* \"#utility.yul\":5746:5749   */\n      0xa0\n        /* \"#utility.yul\":5735:5744   */\n      dup3\n        /* \"#utility.yul\":5731:5750   */\n      add\n        /* \"#utility.yul\":5723:5750   */\n      swap1\n      pop\n        /* \"#utility.yul\":5760:5831   */\n      tag_400\n        /* \"#utility.yul\":5828:5829   */\n      0x00\n        /* \"#utility.yul\":5817:5826   */\n      dup4\n        /* \"#utility.yul\":5813:5830   */\n      add\n        /* \"#utility.yul\":5804:5810   */\n      dup9\n        /* \"#utility.yul\":5760:5831   */\n      tag_277\n      jump\t// in\n    tag_400:\n        /* \"#utility.yul\":5841:5913   */\n      tag_401\n        /* \"#utility.yul\":5909:5911   */\n      0x20\n        /* \"#utility.yul\":5898:5907   */\n      dup4\n        /* \"#utility.yul\":5894:5912   */\n      add\n        /* \"#utility.yul\":5885:5891   */\n      dup8\n        /* \"#utility.yul\":5841:5913   */\n      tag_274\n      jump\t// in\n    tag_401:\n        /* \"#utility.yul\":5923:5995   */\n      tag_402\n        /* \"#utility.yul\":5991:5993   */\n      0x40\n        /* \"#utility.yul\":5980:5989   */\n      dup4\n        /* \"#utility.yul\":5976:5994   */\n      add\n        /* \"#utility.yul\":5967:5973   */\n      dup7\n        /* \"#utility.yul\":5923:5995   */\n      tag_274\n      jump\t// in\n    tag_402:\n        /* \"#utility.yul\":6005:6071   */\n      tag_403\n        /* \"#utility.yul\":6067:6069   */\n      0x60\n        /* \"#utility.yul\":6056:6065   */\n      dup4\n        /* \"#utility.yul\":6052:6070   */\n      add\n        /* \"#utility.yul\":6043:6049   */\n      dup6\n        /* \"#utility.yul\":6005:6071   */\n      tag_279\n      jump\t// in\n    tag_403:\n        /* \"#utility.yul\":6081:6169   */\n      tag_404\n        /* \"#utility.yul\":6164:6167   */\n      0x80\n        /* \"#utility.yul\":6153:6162   */\n      dup4\n        /* \"#utility.yul\":6149:6168   */\n      add\n        /* \"#utility.yul\":6140:6146   */\n      dup5\n        /* \"#utility.yul\":6081:6169   */\n      tag_284\n      jump\t// in\n    tag_404:\n        /* \"#utility.yul\":5494:6176   */\n      swap7\n      swap6\n      pop\n      pop\n      pop\n      pop\n      pop\n      pop\n      jump\t// out\n        /* \"#utility.yul\":6182:6686   */\n    tag_50:\n        /* \"#utility.yul\":6265:6271   */\n      0x00\n        /* \"#utility.yul\":6273:6279   */\n      dup1\n        /* \"#utility.yul\":6322:6324   */\n      0x40\n        /* \"#utility.yul\":6310:6319   */\n      dup4\n        /* \"#utility.yul\":6301:6308   */\n      dup6\n        /* \"#utility.yul\":6297:6320   */\n      sub\n        /* \"#utility.yul\":6293:6325   */\n      slt\n        /* \"#utility.yul\":6290:6409   */\n      iszero\n      tag_406\n      jumpi\n        /* \"#utility.yul\":6328:6407   */\n      tag_407\n      tag_262\n      jump\t// in\n    tag_407:\n        /* \"#utility.yul\":6290:6409   */\n    tag_406:\n        /* \"#utility.yul\":6448:6449   */\n      0x00\n        /* \"#utility.yul\":6473:6526   */\n      tag_408\n        /* \"#utility.yul\":6518:6525   */\n      dup6\n        /* \"#utility.yul\":6509:6515   */\n      dup3\n        /* \"#utility.yul\":6498:6507   */\n      dup7\n        /* \"#utility.yul\":6494:6516   */\n      add\n        /* \"#utility.yul\":6473:6526   */\n      tag_276\n      jump\t// in\n    tag_408:\n        /* \"#utility.yul\":6463:6526   */\n      swap3\n      pop\n        /* \"#utility.yul\":6419:6536   */\n      pop\n        /* \"#utility.yul\":6575:6577   */\n      0x20\n        /* \"#utility.yul\":6601:6669   */\n      tag_409\n        /* \"#utility.yul\":6661:6668   */\n      dup6\n        /* \"#utility.yul\":6652:6658   */\n      dup3\n        /* \"#utility.yul\":6641:6650   */\n      dup7\n        /* \"#utility.yul\":6637:6659   */\n      add\n        /* \"#utility.yul\":6601:6669   */\n      tag_272\n      jump\t// in\n    tag_409:\n        /* \"#utility.yul\":6591:6669   */\n      swap2\n      pop\n        /* \"#utility.yul\":6546:6679   */\n      pop\n        /* \"#utility.yul\":6182:6686   */\n      swap3\n      pop\n      swap3\n      swap1\n      pop\n      jump\t// out\n        /* \"#utility.yul\":6692:6794   */\n    tag_285:\n        /* \"#utility.yul\":6733:6739   */\n      0x00\n        /* \"#utility.yul\":6784:6786   */\n      0x1f\n        /* \"#utility.yul\":6780:6787   */\n      not\n        /* \"#utility.yul\":6775:6777   */\n      0x1f\n        /* \"#utility.yul\":6768:6773   */\n      dup4\n        /* \"#utility.yul\":6764:6778   */\n      add\n        /* \"#utility.yul\":6760:6788   */\n      and\n        /* \"#utility.yul\":6750:6788   */\n      swap1\n      pop\n        /* \"#utility.yul\":6692:6794   */\n      swap2\n      swap1\n      pop\n      jump\t// out\n        /* \"#utility.yul\":6800:6980   */\n    tag_286:\n        /* \"#utility.yul\":6848:6925   */\n      0x4e487b7100000000000000000000000000000000000000000000000000000000\n        /* \"#utility.yul\":6845:6846   */\n      0x00\n        /* \"#utility.yul\":6838:6926   */\n      mstore\n        /* \"#utility.yul\":6945:6949   */\n      0x41\n        /* \"#utility.yul\":6942:6943   */\n      0x04\n        /* \"#utility.yul\":6935:6950   */\n      mstore\n        /* \"#utility.yul\":6969:6973   */\n      0x24\n        /* \"#utility.yul\":6966:6967   */\n      0x00\n        /* \"#utility.yul\":6959:6974   */\n      revert\n        /* \"#utility.yul\":6986:7267   */\n    tag_287:\n        /* \"#utility.yul\":7069:7096   */\n      tag_413\n        /* \"#utility.yul\":7091:7095   */\n      dup3\n        /* \"#utility.yul\":7069:7096   */\n      tag_285\n      jump\t// in\n    tag_413:\n        /* \"#utility.yul\":7061:7067   */\n      dup2\n        /* \"#utility.yul\":7057:7097   */\n      add\n        /* \"#utility.yul\":7199:7205   */\n      dup2\n        /* \"#utility.yul\":7187:7197   */\n      dup2\n        /* \"#utility.yul\":7184:7206   */\n      lt\n        /* \"#utility.yul\":7163:7181   */\n      0xffffffffffffffff\n        /* \"#utility.yul\":7151:7161   */\n      dup3\n        /* \"#utility.yul\":7148:7182   */\n      gt\n        /* \"#utility.yul\":7145:7207   */\n      or\n        /* \"#utility.yul\":7142:7230   */\n      iszero\n      tag_414\n      jumpi\n        /* \"#utility.yul\":7210:7228   */\n      tag_415\n      tag_286\n      jump\t// in\n    tag_415:\n        /* \"#utility.yul\":7142:7230   */\n    tag_414:\n        /* \"#utility.yul\":7250:7260   */\n      dup1\n        /* \"#utility.yul\":7246:7248   */\n      0x40\n        /* \"#utility.yul\":7239:7261   */\n      mstore\n        /* \"#utility.yul\":7029:7267   */\n      pop\n        /* \"#utility.yul\":6986:7267   */\n      pop\n      pop\n      jump\t// out\n        /* \"#utility.yul\":7273:7402   */\n    tag_288:\n        /* \"#utility.yul\":7307:7313   */\n      0x00\n        /* \"#utility.yul\":7334:7354   */\n      tag_417\n      tag_261\n      jump\t// in\n    tag_417:\n        /* \"#utility.yul\":7324:7354   */\n      swap1\n      pop\n        /* \"#utility.yul\":7363:7396   */\n      tag_418\n        /* \"#utility.yul\":7391:7395   */\n      dup3\n        /* \"#utility.yul\":7383:7389   */\n      dup3\n        /* \"#utility.yul\":7363:7396   */\n      tag_287\n      jump\t// in\n    tag_418:\n        /* \"#utility.yul\":7273:7402   */\n      swap2\n      swap1\n      pop\n      jump\t// out\n        /* \"#utility.yul\":7408:7719   */\n    tag_289:\n        /* \"#utility.yul\":7485:7489   */\n      0x00\n        /* \"#utility.yul\":7575:7593   */\n      0xffffffffffffffff\n        /* \"#utility.yul\":7567:7573   */\n      dup3\n        /* \"#utility.yul\":7564:7594   */\n      gt\n        /* \"#utility.yul\":7561:7617   */\n      iszero\n      tag_420\n      jumpi\n        /* \"#utility.yul\":7597:7615   */\n      tag_421\n      tag_286\n      jump\t// in\n    tag_421:\n        /* \"#utility.yul\":7561:7617   */\n    tag_420:\n        /* \"#utility.yul\":7647:7651   */\n      0x20\n        /* \"#utility.yul\":7639:7645   */\n      dup3\n        /* \"#utility.yul\":7635:7652   */\n      mul\n        /* \"#utility.yul\":7627:7652   */\n      swap1\n      pop\n        /* \"#utility.yul\":7707:7711   */\n      0x20\n        /* \"#utility.yul\":7701:7705   */\n      dup2\n        /* \"#utility.yul\":7697:7712   */\n      add\n        /* \"#utility.yul\":7689:7712   */\n      swap1\n      pop\n        /* \"#utility.yul\":7408:7719   */\n      swap2\n      swap1\n      pop\n      jump\t// out\n        /* \"#utility.yul\":7725:7847   */\n    tag_290:\n        /* \"#utility.yul\":7798:7822   */\n      tag_423\n        /* \"#utility.yul\":7816:7821   */\n      dup2\n        /* \"#utility.yul\":7798:7822   */\n      tag_269\n      jump\t// in\n    tag_423:\n        /* \"#utility.yul\":7791:7796   */\n      dup2\n        /* \"#utility.yul\":7788:7823   */\n      eq\n        /* \"#utility.yul\":7778:7841   */\n      tag_424\n      jumpi\n        /* \"#utility.yul\":7837:7838   */\n      0x00\n        /* \"#utility.yul\":7834:7835   */\n      dup1\n        /* \"#utility.yul\":7827:7839   */\n      revert\n        /* \"#utility.yul\":7778:7841   */\n    tag_424:\n        /* \"#utility.yul\":7725:7847   */\n      pop\n      jump\t// out\n        /* \"#utility.yul\":7853:7992   */\n    tag_291:\n        /* \"#utility.yul\":7899:7904   */\n      0x00\n        /* \"#utility.yul\":7937:7943   */\n      dup2\n        /* \"#utility.yul\":7924:7944   */\n      calldataload\n        /* \"#utility.yul\":7915:7944   */\n      swap1\n      pop\n        /* \"#utility.yul\":7953:7986   */\n      tag_426\n        /* \"#utility.yul\":7980:7985   */\n      dup2\n        /* \"#utility.yul\":7953:7986   */\n      tag_290\n      jump\t// in\n    tag_426:\n        /* \"#utility.yul\":7853:7992   */\n      swap3\n      swap2\n      pop\n      pop\n      jump\t// out\n        /* \"#utility.yul\":8015:8725   */\n    tag_292:\n        /* \"#utility.yul\":8111:8116   */\n      0x00\n        /* \"#utility.yul\":8136:8217   */\n      tag_428\n        /* \"#utility.yul\":8152:8216   */\n      tag_429\n        /* \"#utility.yul\":8209:8215   */\n      dup5\n        /* \"#utility.yul\":8152:8216   */\n      tag_289\n      jump\t// in\n    tag_429:\n        /* \"#utility.yul\":8136:8217   */\n      tag_288\n      jump\t// in\n    tag_428:\n        /* \"#utility.yul\":8127:8217   */\n      swap1\n      pop\n        /* \"#utility.yul\":8237:8242   */\n      dup1\n        /* \"#utility.yul\":8266:8272   */\n      dup4\n        /* \"#utility.yul\":8259:8264   */\n      dup3\n        /* \"#utility.yul\":8252:8273   */\n      mstore\n        /* \"#utility.yul\":8300:8304   */\n      0x20\n        /* \"#utility.yul\":8293:8298   */\n      dup3\n        /* \"#utility.yul\":8289:8305   */\n      add\n        /* \"#utility.yul\":8282:8305   */\n      swap1\n      pop\n        /* \"#utility.yul\":8353:8357   */\n      0x20\n        /* \"#utility.yul\":8345:8351   */\n      dup5\n        /* \"#utility.yul\":8341:8358   */\n      mul\n        /* \"#utility.yul\":8333:8339   */\n      dup4\n        /* \"#utility.yul\":8329:8359   */\n      add\n        /* \"#utility.yul\":8382:8385   */\n      dup6\n        /* \"#utility.yul\":8374:8380   */\n      dup2\n        /* \"#utility.yul\":8371:8386   */\n      gt\n        /* \"#utility.yul\":8368:8490   */\n      iszero\n      tag_430\n      jumpi\n        /* \"#utility.yul\":8401:8480   */\n      tag_431\n      tag_266\n      jump\t// in\n    tag_431:\n        /* \"#utility.yul\":8368:8490   */\n    tag_430:\n        /* \"#utility.yul\":8516:8522   */\n      dup4\n        /* \"#utility.yul\":8499:8719   */\n    tag_432:\n        /* \"#utility.yul\":8533:8539   */\n      dup2\n        /* \"#utility.yul\":8528:8531   */\n      dup2\n        /* \"#utility.yul\":8525:8540   */\n      lt\n        /* \"#utility.yul\":8499:8719   */\n      iszero\n      tag_434\n      jumpi\n        /* \"#utility.yul\":8608:8611   */\n      dup1\n        /* \"#utility.yul\":8637:8674   */\n      tag_435\n        /* \"#utility.yul\":8670:8673   */\n      dup9\n        /* \"#utility.yul\":8658:8668   */\n      dup3\n        /* \"#utility.yul\":8637:8674   */\n      tag_291\n      jump\t// in\n    tag_435:\n        /* \"#utility.yul\":8632:8635   */\n      dup5\n        /* \"#utility.yul\":8625:8675   */\n      mstore\n        /* \"#utility.yul\":8704:8708   */\n      0x20\n        /* \"#utility.yul\":8699:8702   */\n      dup5\n        /* \"#utility.yul\":8695:8709   */\n      add\n        /* \"#utility.yul\":8688:8709   */\n      swap4\n      pop\n        /* \"#utility.yul\":8575:8719   */\n      pop\n        /* \"#utility.yul\":8559:8563   */\n      0x20\n        /* \"#utility.yul\":8554:8557   */\n      dup2\n        /* \"#utility.yul\":8550:8564   */\n      add\n        /* \"#utility.yul\":8543:8564   */\n      swap1\n      pop\n        /* \"#utility.yul\":8499:8719   */\n      jump(tag_432)\n    tag_434:\n        /* \"#utility.yul\":8503:8524   */\n      pop\n        /* \"#utility.yul\":8117:8725   */\n      pop\n      pop\n        /* \"#utility.yul\":8015:8725   */\n      swap4\n      swap3\n      pop\n      pop\n      pop\n      jump\t// out\n        /* \"#utility.yul\":8748:9118   */\n    tag_293:\n        /* \"#utility.yul\":8819:8824   */\n      0x00\n        /* \"#utility.yul\":8868:8871   */\n      dup3\n        /* \"#utility.yul\":8861:8865   */\n      0x1f\n        /* \"#utility.yul\":8853:8859   */\n      dup4\n        /* \"#utility.yul\":8849:8866   */\n      add\n        /* \"#utility.yul\":8845:8872   */\n      slt\n        /* \"#utility.yul\":8835:8957   */\n      tag_437\n      jumpi\n        /* \"#utility.yul\":8876:8955   */\n      tag_438\n      tag_264\n      jump\t// in\n    tag_438:\n        /* \"#utility.yul\":8835:8957   */\n    tag_437:\n        /* \"#utility.yul\":8993:8999   */\n      dup2\n        /* \"#utility.yul\":8980:9000   */\n      calldataload\n        /* \"#utility.yul\":9018:9112   */\n      tag_439\n        /* \"#utility.yul\":9108:9111   */\n      dup5\n        /* \"#utility.yul\":9100:9106   */\n      dup3\n        /* \"#utility.yul\":9093:9097   */\n      0x20\n        /* \"#utility.yul\":9085:9091   */\n      dup7\n        /* \"#utility.yul\":9081:9098   */\n      add\n        /* \"#utility.yul\":9018:9112   */\n      tag_292\n      jump\t// in\n    tag_439:\n        /* \"#utility.yul\":9009:9112   */\n      swap2\n      pop\n        /* \"#utility.yul\":8825:9118   */\n      pop\n        /* \"#utility.yul\":8748:9118   */\n      swap3\n      swap2\n      pop\n      pop\n      jump\t// out\n        /* \"#utility.yul\":9124:9435   */\n    tag_294:\n        /* \"#utility.yul\":9201:9205   */\n      0x00\n        /* \"#utility.yul\":9291:9309   */\n      0xffffffffffffffff\n        /* \"#utility.yul\":9283:9289   */\n      dup3\n        /* \"#utility.yul\":9280:9310   */\n      gt\n        /* \"#utility.yul\":9277:9333   */\n      iszero\n      tag_441\n      jumpi\n        /* \"#utility.yul\":9313:9331   */\n      tag_442\n      tag_286\n      jump\t// in\n    tag_442:\n        /* \"#utility.yul\":9277:9333   */\n    tag_441:\n        /* \"#utility.yul\":9363:9367   */\n      0x20\n        /* \"#utility.yul\":9355:9361   */\n      dup3\n        /* \"#utility.yul\":9351:9368   */\n      mul\n        /* \"#utility.yul\":9343:9368   */\n      swap1\n      pop\n        /* \"#utility.yul\":9423:9427   */\n      0x20\n        /* \"#utility.yul\":9417:9421   */\n      dup2\n        /* \"#utility.yul\":9413:9428   */\n      add\n        /* \"#utility.yul\":9405:9428   */\n      swap1\n      pop\n        /* \"#utility.yul\":9124:9435   */\n      swap2\n      swap1\n      pop\n      jump\t// out\n        /* \"#utility.yul\":9458:10168   */\n    tag_295:\n        /* \"#utility.yul\":9554:9559   */\n      0x00\n        /* \"#utility.yul\":9579:9660   */\n      tag_444\n        /* \"#utility.yul\":9595:9659   */\n      tag_445\n        /* \"#utility.yul\":9652:9658   */\n      dup5\n        /* \"#utility.yul\":9595:9659   */\n      tag_294\n      jump\t// in\n    tag_445:\n        /* \"#utility.yul\":9579:9660   */\n      tag_288\n      jump\t// in\n    tag_444:\n        /* \"#utility.yul\":9570:9660   */\n      swap1\n      pop\n        /* \"#utility.yul\":9680:9685   */\n      dup1\n        /* \"#utility.yul\":9709:9715   */\n      dup4\n        /* \"#utility.yul\":9702:9707   */\n      dup3\n        /* \"#utility.yul\":9695:9716   */\n      mstore\n        /* \"#utility.yul\":9743:9747   */\n      0x20\n        /* \"#utility.yul\":9736:9741   */\n      dup3\n        /* \"#utility.yul\":9732:9748   */\n      add\n        /* \"#utility.yul\":9725:9748   */\n      swap1\n      pop\n        /* \"#utility.yul\":9796:9800   */\n      0x20\n        /* \"#utility.yul\":9788:9794   */\n      dup5\n        /* \"#utility.yul\":9784:9801   */\n      mul\n        /* \"#utility.yul\":9776:9782   */\n      dup4\n        /* \"#utility.yul\":9772:9802   */\n      add\n        /* \"#utility.yul\":9825:9828   */\n      dup6\n        /* \"#utility.yul\":9817:9823   */\n      dup2\n        /* \"#utility.yul\":9814:9829   */\n      gt\n        /* \"#utility.yul\":9811:9933   */\n      iszero\n      tag_446\n      jumpi\n        /* \"#utility.yul\":9844:9923   */\n      tag_447\n      tag_266\n      jump\t// in\n    tag_447:\n        /* \"#utility.yul\":9811:9933   */\n    tag_446:\n        /* \"#utility.yul\":9959:9965   */\n      dup4\n        /* \"#utility.yul\":9942:10162   */\n    tag_448:\n        /* \"#utility.yul\":9976:9982   */\n      dup2\n        /* \"#utility.yul\":9971:9974   */\n      dup2\n        /* \"#utility.yul\":9968:9983   */\n      lt\n        /* \"#utility.yul\":9942:10162   */\n      iszero\n      tag_450\n      jumpi\n        /* \"#utility.yul\":10051:10054   */\n      dup1\n        /* \"#utility.yul\":10080:10117   */\n      tag_451\n        /* \"#utility.yul\":10113:10116   */\n      dup9\n        /* \"#utility.yul\":10101:10111   */\n      dup3\n        /* \"#utility.yul\":10080:10117   */\n      tag_276\n      jump\t// in\n    tag_451:\n        /* \"#utility.yul\":10075:10078   */\n      dup5\n        /* \"#utility.yul\":10068:10118   */\n      mstore\n        /* \"#utility.yul\":10147:10151   */\n      0x20\n        /* \"#utility.yul\":10142:10145   */\n      dup5\n        /* \"#utility.yul\":10138:10152   */\n      add\n        /* \"#utility.yul\":10131:10152   */\n      swap4\n      pop\n        /* \"#utility.yul\":10018:10162   */\n      pop\n        /* \"#utility.yul\":10002:10006   */\n      0x20\n        /* \"#utility.yul\":9997:10000   */\n      dup2\n        /* \"#utility.yul\":9993:10007   */\n      add\n        /* \"#utility.yul\":9986:10007   */\n      swap1\n      pop\n        /* \"#utility.yul\":9942:10162   */\n      jump(tag_448)\n    tag_450:\n        /* \"#utility.yul\":9946:9967   */\n      pop\n        /* \"#utility.yul\":9560:10168   */\n      pop\n      pop\n        /* \"#utility.yul\":9458:10168   */\n      swap4\n      swap3\n      pop\n      pop\n      pop\n      jump\t// out\n        /* \"#utility.yul\":10191:10561   */\n    tag_296:\n        /* \"#utility.yul\":10262:10267   */\n      0x00\n        /* \"#utility.yul\":10311:10314   */\n      dup3\n        /* \"#utility.yul\":10304:10308   */\n      0x1f\n        /* \"#utility.yul\":10296:10302   */\n      dup4\n        /* \"#utility.yul\":10292:10309   */\n      add\n        /* \"#utility.yul\":10288:10315   */\n      slt\n        /* \"#utility.yul\":10278:10400   */\n      tag_453\n      jumpi\n        /* \"#utility.yul\":10319:10398   */\n      tag_454\n      tag_264\n      jump\t// in\n    tag_454:\n        /* \"#utility.yul\":10278:10400   */\n    tag_453:\n        /* \"#utility.yul\":10436:10442   */\n      dup2\n        /* \"#utility.yul\":10423:10443   */\n      calldataload\n        /* \"#utility.yul\":10461:10555   */\n      tag_455\n        /* \"#utility.yul\":10551:10554   */\n      dup5\n        /* \"#utility.yul\":10543:10549   */\n      dup3\n        /* \"#utility.yul\":10536:10540   */\n      0x20\n        /* \"#utility.yul\":10528:10534   */\n      dup7\n        /* \"#utility.yul\":10524:10541   */\n      add\n        /* \"#utility.yul\":10461:10555   */\n      tag_295\n      jump\t// in\n    tag_455:\n        /* \"#utility.yul\":10452:10555   */\n      swap2\n      pop\n        /* \"#utility.yul\":10268:10561   */\n      pop\n        /* \"#utility.yul\":10191:10561   */\n      swap3\n      swap2\n      pop\n      pop\n      jump\t// out\n        /* \"#utility.yul\":10567:12318   */\n    tag_55:\n        /* \"#utility.yul\":10762:10768   */\n      0x00\n        /* \"#utility.yul\":10770:10776   */\n      dup1\n        /* \"#utility.yul\":10778:10784   */\n      0x00\n        /* \"#utility.yul\":10786:10792   */\n      dup1\n        /* \"#utility.yul\":10794:10800   */\n      0x00\n        /* \"#utility.yul\":10843:10846   */\n      0xa0\n        /* \"#utility.yul\":10831:10840   */\n      dup7\n        /* \"#utility.yul\":10822:10829   */\n      dup9\n        /* \"#utility.yul\":10818:10841   */\n      sub\n        /* \"#utility.yul\":10814:10847   */\n      slt\n        /* \"#utility.yul\":10811:10931   */\n      iszero\n      tag_457\n      jumpi\n        /* \"#utility.yul\":10850:10929   */\n      tag_458\n      tag_262\n      jump\t// in\n    tag_458:\n        /* \"#utility.yul\":10811:10931   */\n    tag_457:\n        /* \"#utility.yul\":10998:10999   */\n      0x00\n        /* \"#utility.yul\":10987:10996   */\n      dup7\n        /* \"#utility.yul\":10983:11000   */\n      add\n        /* \"#utility.yul\":10970:11001   */\n      calldataload\n        /* \"#utility.yul\":11028:11046   */\n      0xffffffffffffffff\n        /* \"#utility.yul\":11020:11026   */\n      dup2\n        /* \"#utility.yul\":11017:11047   */\n      gt\n        /* \"#utility.yul\":11014:11131   */\n      iszero\n      tag_459\n      jumpi\n        /* \"#utility.yul\":11050:11129   */\n      tag_460\n      tag_263\n      jump\t// in\n    tag_460:\n        /* \"#utility.yul\":11014:11131   */\n    tag_459:\n        /* \"#utility.yul\":11155:11233   */\n      tag_461\n        /* \"#utility.yul\":11225:11232   */\n      dup9\n        /* \"#utility.yul\":11216:11222   */\n      dup3\n        /* \"#utility.yul\":11205:11214   */\n      dup10\n        /* \"#utility.yul\":11201:11223   */\n      add\n        /* \"#utility.yul\":11155:11233   */\n      tag_293\n      jump\t// in\n    tag_461:\n        /* \"#utility.yul\":11145:11233   */\n      swap6\n      pop\n        /* \"#utility.yul\":10941:11243   */\n      pop\n        /* \"#utility.yul\":11310:11312   */\n      0x20\n        /* \"#utility.yul\":11299:11308   */\n      dup7\n        /* \"#utility.yul\":11295:11313   */\n      add\n        /* \"#utility.yul\":11282:11314   */\n      calldataload\n        /* \"#utility.yul\":11341:11359   */\n      0xffffffffffffffff\n        /* \"#utility.yul\":11333:11339   */\n      dup2\n        /* \"#utility.yul\":11330:11360   */\n      gt\n        /* \"#utility.yul\":11327:11444   */\n      iszero\n      tag_462\n      jumpi\n        /* \"#utility.yul\":11363:11442   */\n      tag_463\n      tag_263\n      jump\t// in\n    tag_463:\n        /* \"#utility.yul\":11327:11444   */\n    tag_462:\n        /* \"#utility.yul\":11468:11546   */\n      tag_464\n        /* \"#utility.yul\":11538:11545   */\n      dup9\n        /* \"#utility.yul\":11529:11535   */\n      dup3\n        /* \"#utility.yul\":11518:11527   */\n      dup10\n        /* \"#utility.yul\":11514:11536   */\n      add\n        /* \"#utility.yul\":11468:11546   */\n      tag_293\n      jump\t// in\n    tag_464:\n        /* \"#utility.yul\":11458:11546   */\n      swap5\n      pop\n        /* \"#utility.yul\":11253:11556   */\n      pop\n        /* \"#utility.yul\":11623:11625   */\n      0x40\n        /* \"#utility.yul\":11612:11621   */\n      dup7\n        /* \"#utility.yul\":11608:11626   */\n      add\n        /* \"#utility.yul\":11595:11627   */\n      calldataload\n        /* \"#utility.yul\":11654:11672   */\n      0xffffffffffffffff\n        /* \"#utility.yul\":11646:11652   */\n      dup2\n        /* \"#utility.yul\":11643:11673   */\n      gt\n        /* \"#utility.yul\":11640:11757   */\n      iszero\n      tag_465\n      jumpi\n        /* \"#utility.yul\":11676:11755   */\n      tag_466\n      tag_263\n      jump\t// in\n    tag_466:\n        /* \"#utility.yul\":11640:11757   */\n    tag_465:\n        /* \"#utility.yul\":11781:11859   */\n      tag_467\n        /* \"#utility.yul\":11851:11858   */\n      dup9\n        /* \"#utility.yul\":11842:11848   */\n      dup3\n        /* \"#utility.yul\":11831:11840   */\n      dup10\n        /* \"#utility.yul\":11827:11849   */\n      add\n        /* \"#utility.yul\":11781:11859   */\n      tag_296\n      jump\t// in\n    tag_467:\n        /* \"#utility.yul\":11771:11859   */\n      swap4\n      pop\n        /* \"#utility.yul\":11566:11869   */\n      pop\n        /* \"#utility.yul\":11936:11938   */\n      0x60\n        /* \"#utility.yul\":11925:11934   */\n      dup7\n        /* \"#utility.yul\":11921:11939   */\n      add\n        /* \"#utility.yul\":11908:11940   */\n      calldataload\n        /* \"#utility.yul\":11967:11985   */\n      0xffffffffffffffff\n        /* \"#utility.yul\":11959:11965   */\n      dup2\n        /* \"#utility.yul\":11956:11986   */\n      gt\n        /* \"#utility.yul\":11953:12070   */\n      iszero\n      tag_468\n      jumpi\n        /* \"#utility.yul\":11989:12068   */\n      tag_469\n      tag_263\n      jump\t// in\n    tag_469:\n        /* \"#utility.yul\":11953:12070   */\n    tag_468:\n        /* \"#utility.yul\":12094:12172   */\n      tag_470\n        /* \"#utility.yul\":12164:12171   */\n      dup9\n        /* \"#utility.yul\":12155:12161   */\n      dup3\n        /* \"#utility.yul\":12144:12153   */\n      dup10\n        /* \"#utility.yul\":12140:12162   */\n      add\n        /* \"#utility.yul\":12094:12172   */\n      tag_296\n      jump\t// in\n    tag_470:\n        /* \"#utility.yul\":12084:12172   */\n      swap3\n      pop\n        /* \"#utility.yul\":11879:12182   */\n      pop\n        /* \"#utility.yul\":12221:12224   */\n      0x80\n        /* \"#utility.yul\":12248:12301   */\n      tag_471\n        /* \"#utility.yul\":12293:12300   */\n      dup9\n        /* \"#utility.yul\":12284:12290   */\n      dup3\n        /* \"#utility.yul\":12273:12282   */\n      dup10\n        /* \"#utility.yul\":12269:12291   */\n      add\n        /* \"#utility.yul\":12248:12301   */\n      tag_276\n      jump\t// in\n    tag_471:\n        /* \"#utility.yul\":12238:12301   */\n      swap2\n      pop\n        /* \"#utility.yul\":12192:12311   */\n      pop\n        /* \"#utility.yul\":10567:12318   */\n      swap3\n      swap6\n      pop\n      swap3\n      swap6\n      swap1\n      swap4\n      pop\n      jump\t// out\n        /* \"#utility.yul\":12324:12683   */\n    tag_62:\n        /* \"#utility.yul\":12398:12404   */\n      0x00\n        /* \"#utility.yul\":12447:12449   */\n      0x20\n        /* \"#utility.yul\":12435:12444   */\n      dup3\n        /* \"#utility.yul\":12426:12433   */\n      dup5\n        /* \"#utility.yul\":12422:12445   */\n      sub\n        /* \"#utility.yul\":12418:12450   */\n      slt\n        /* \"#utility.yul\":12415:12534   */\n      iszero\n      tag_473\n      jumpi\n        /* \"#utility.yul\":12453:12532   */\n      tag_474\n      tag_262\n      jump\t// in\n    tag_474:\n        /* \"#utility.yul\":12415:12534   */\n    tag_473:\n        /* \"#utility.yul\":12573:12574   */\n      0x00\n        /* \"#utility.yul\":12598:12666   */\n      tag_475\n        /* \"#utility.yul\":12658:12665   */\n      dup5\n        /* \"#utility.yul\":12649:12655   */\n      dup3\n        /* \"#utility.yul\":12638:12647   */\n      dup6\n        /* \"#utility.yul\":12634:12656   */\n      add\n        /* \"#utility.yul\":12598:12666   */\n      tag_272\n      jump\t// in\n    tag_475:\n        /* \"#utility.yul\":12588:12666   */\n      swap2\n      pop\n        /* \"#utility.yul\":12544:12676   */\n      pop\n        /* \"#utility.yul\":12324:12683   */\n      swap3\n      swap2\n      pop\n      pop\n      jump\t// out\n        /* \"#utility.yul\":12689:12837   */\n    tag_297:\n        /* \"#utility.yul\":12761:12770   */\n      0x00\n        /* \"#utility.yul\":12794:12831   */\n      tag_477\n        /* \"#utility.yul\":12825:12830   */\n      dup3\n        /* \"#utility.yul\":12794:12831   */\n      tag_282\n      jump\t// in\n    tag_477:\n        /* \"#utility.yul\":12781:12831   */\n      swap1\n      pop\n        /* \"#utility.yul\":12689:12837   */\n      swap2\n      swap1\n      pop\n      jump\t// out\n        /* \"#utility.yul\":12843:13018   */\n    tag_298:\n        /* \"#utility.yul\":12952:13011   */\n      tag_479\n        /* \"#utility.yul\":13005:13010   */\n      dup2\n        /* \"#utility.yul\":12952:13011   */\n      tag_297\n      jump\t// in\n    tag_479:\n        /* \"#utility.yul\":12947:12950   */\n      dup3\n        /* \"#utility.yul\":12940:13012   */\n      mstore\n        /* \"#utility.yul\":12843:13018   */\n      pop\n      pop\n      jump\t// out\n        /* \"#utility.yul\":13024:13510   */\n    tag_65:\n        /* \"#utility.yul\":13195:13199   */\n      0x00\n        /* \"#utility.yul\":13233:13235   */\n      0x60\n        /* \"#utility.yul\":13222:13231   */\n      dup3\n        /* \"#utility.yul\":13218:13236   */\n      add\n        /* \"#utility.yul\":13210:13236   */\n      swap1\n      pop\n        /* \"#utility.yul\":13246:13339   */\n      tag_481\n        /* \"#utility.yul\":13336:13337   */\n      0x00\n        /* \"#utility.yul\":13325:13334   */\n      dup4\n        /* \"#utility.yul\":13321:13338   */\n      add\n        /* \"#utility.yul\":13312:13318   */\n      dup7\n        /* \"#utility.yul\":13246:13339   */\n      tag_298\n      jump\t// in\n    tag_481:\n        /* \"#utility.yul\":13349:13421   */\n      tag_482\n        /* \"#utility.yul\":13417:13419   */\n      0x20\n        /* \"#utility.yul\":13406:13415   */\n      dup4\n        /* \"#utility.yul\":13402:13420   */\n      add\n        /* \"#utility.yul\":13393:13399   */\n      dup6\n        /* \"#utility.yul\":13349:13421   */\n      tag_274\n      jump\t// in\n    tag_482:\n        /* \"#utility.yul\":13431:13503   */\n      tag_483\n        /* \"#utility.yul\":13499:13501   */\n      0x40\n        /* \"#utility.yul\":13488:13497   */\n      dup4\n        /* \"#utility.yul\":13484:13502   */\n      add\n        /* \"#utility.yul\":13475:13481   */\n      dup5\n        /* \"#utility.yul\":13431:13503   */\n      tag_274\n      jump\t// in\n    tag_483:\n        /* \"#utility.yul\":13024:13510   */\n      swap5\n      swap4\n      pop\n      pop\n      pop\n      pop\n      jump\t// out\n        /* \"#utility.yul\":13516:13845   */\n    tag_68:\n        /* \"#utility.yul\":13575:13581   */\n      0x00\n        /* \"#utility.yul\":13624:13626   */\n      0x20\n        /* \"#utility.yul\":13612:13621   */\n      dup3\n        /* \"#utility.yul\":13603:13610   */\n      dup5\n        /* \"#utility.yul\":13599:13622   */\n      sub\n        /* \"#utility.yul\":13595:13627   */\n      slt\n        /* \"#utility.yul\":13592:13711   */\n      iszero\n      tag_485\n      jumpi\n        /* \"#utility.yul\":13630:13709   */\n      tag_486\n      tag_262\n      jump\t// in\n    tag_486:\n        /* \"#utility.yul\":13592:13711   */\n    tag_485:\n        /* \"#utility.yul\":13750:13751   */\n      0x00\n        /* \"#utility.yul\":13775:13828   */\n      tag_487\n        /* \"#utility.yul\":13820:13827   */\n      dup5\n        /* \"#utility.yul\":13811:13817   */\n      dup3\n        /* \"#utility.yul\":13800:13809   */\n      dup6\n        /* \"#utility.yul\":13796:13818   */\n      add\n        /* \"#utility.yul\":13775:13828   */\n      tag_291\n      jump\t// in\n    tag_487:\n        /* \"#utility.yul\":13765:13828   */\n      swap2\n      pop\n        /* \"#utility.yul\":13721:13838   */\n      pop\n        /* \"#utility.yul\":13516:13845   */\n      swap3\n      swap2\n      pop\n      pop\n      jump\t// out\n        /* \"#utility.yul\":13851:14020   */\n    tag_299:\n        /* \"#utility.yul\":13935:13946   */\n      0x00\n        /* \"#utility.yul\":13969:13975   */\n      dup3\n        /* \"#utility.yul\":13964:13967   */\n      dup3\n        /* \"#utility.yul\":13957:13976   */\n      mstore\n        /* \"#utility.yul\":14009:14013   */\n      0x20\n        /* \"#utility.yul\":14004:14007   */\n      dup3\n        /* \"#utility.yul\":14000:14014   */\n      add\n        /* \"#utility.yul\":13985:14014   */\n      swap1\n      pop\n        /* \"#utility.yul\":13851:14020   */\n      swap3\n      swap2\n      pop\n      pop\n      jump\t// out\n        /* \"#utility.yul\":14026:14196   */\n    tag_300:\n        /* \"#utility.yul\":14166:14188   */\n      0x436f6e7472616374206e6f7420616c6c6f776564000000000000000000000000\n        /* \"#utility.yul\":14162:14163   */\n      0x00\n        /* \"#utility.yul\":14154:14160   */\n      dup3\n        /* \"#utility.yul\":14150:14164   */\n      add\n        /* \"#utility.yul\":14143:14189   */\n      mstore\n        /* \"#utility.yul\":14026:14196   */\n      pop\n      jump\t// out\n        /* \"#utility.yul\":14202:14568   */\n    tag_301:\n        /* \"#utility.yul\":14344:14347   */\n      0x00\n        /* \"#utility.yul\":14365:14432   */\n      tag_491\n        /* \"#utility.yul\":14429:14431   */\n      0x14\n        /* \"#utility.yul\":14424:14427   */\n      dup4\n        /* \"#utility.yul\":14365:14432   */\n      tag_299\n      jump\t// in\n    tag_491:\n        /* \"#utility.yul\":14358:14432   */\n      swap2\n      pop\n        /* \"#utility.yul\":14441:14534   */\n      tag_492\n        /* \"#utility.yul\":14530:14533   */\n      dup3\n        /* \"#utility.yul\":14441:14534   */\n      tag_300\n      jump\t// in\n    tag_492:\n        /* \"#utility.yul\":14559:14561   */\n      0x20\n        /* \"#utility.yul\":14554:14557   */\n      dup3\n        /* \"#utility.yul\":14550:14562   */\n      add\n        /* \"#utility.yul\":14543:14562   */\n      swap1\n      pop\n        /* \"#utility.yul\":14202:14568   */\n      swap2\n      swap1\n      pop\n      jump\t// out\n        /* \"#utility.yul\":14574:14993   */\n    tag_75:\n        /* \"#utility.yul\":14740:14744   */\n      0x00\n        /* \"#utility.yul\":14778:14780   */\n      0x20\n        /* \"#utility.yul\":14767:14776   */\n      dup3\n        /* \"#utility.yul\":14763:14781   */\n      add\n        /* \"#utility.yul\":14755:14781   */\n      swap1\n      pop\n        /* \"#utility.yul\":14827:14836   */\n      dup2\n        /* \"#utility.yul\":14821:14825   */\n      dup2\n        /* \"#utility.yul\":14817:14837   */\n      sub\n        /* \"#utility.yul\":14813:14814   */\n      0x00\n        /* \"#utility.yul\":14802:14811   */\n      dup4\n        /* \"#utility.yul\":14798:14815   */\n      add\n        /* \"#utility.yul\":14791:14838   */\n      mstore\n        /* \"#utility.yul\":14855:14986   */\n      tag_494\n        /* \"#utility.yul\":14981:14985   */\n      dup2\n        /* \"#utility.yul\":14855:14986   */\n      tag_301\n      jump\t// in\n    tag_494:\n        /* \"#utility.yul\":14847:14986   */\n      swap1\n      pop\n        /* \"#utility.yul\":14574:14993   */\n      swap2\n      swap1\n      pop\n      jump\t// out\n        /* \"#utility.yul\":14999:15175   */\n    tag_302:\n        /* \"#utility.yul\":15139:15167   */\n      0x50726f787920636f6e7472616374206e6f7420616c6c6f776564000000000000\n        /* \"#utility.yul\":15135:15136   */\n      0x00\n        /* \"#utility.yul\":15127:15133   */\n      dup3\n        /* \"#utility.yul\":15123:15137   */\n      add\n        /* \"#utility.yul\":15116:15168   */\n      mstore\n        /* \"#utility.yul\":14999:15175   */\n      pop\n      jump\t// out\n        /* \"#utility.yul\":15181:15547   */\n    tag_303:\n        /* \"#utility.yul\":15323:15326   */\n      0x00\n        /* \"#utility.yul\":15344:15411   */\n      tag_497\n        /* \"#utility.yul\":15408:15410   */\n      0x1a\n        /* \"#utility.yul\":15403:15406   */\n      dup4\n        /* \"#utility.yul\":15344:15411   */\n      tag_299\n      jump\t// in\n    tag_497:\n        /* \"#utility.yul\":15337:15411   */\n      swap2\n      pop\n        /* \"#utility.yul\":15420:15513   */\n      tag_498\n        /* \"#utility.yul\":15509:15512   */\n      dup3\n        /* \"#utility.yul\":15420:15513   */\n      tag_302\n      jump\t// in\n    tag_498:\n        /* \"#utility.yul\":15538:15540   */\n      0x20\n        /* \"#utility.yul\":15533:15536   */\n      dup3\n        /* \"#utility.yul\":15529:15541   */\n      add\n        /* \"#utility.yul\":15522:15541   */\n      swap1\n      pop\n        /* \"#utility.yul\":15181:15547   */\n      swap2\n      swap1\n      pop\n      jump\t// out\n        /* \"#utility.yul\":15553:15972   */\n    tag_78:\n        /* \"#utility.yul\":15719:15723   */\n      0x00\n        /* \"#utility.yul\":15757:15759   */\n      0x20\n        /* \"#utility.yul\":15746:15755   */\n      dup3\n        /* \"#utility.yul\":15742:15760   */\n      add\n        /* \"#utility.yul\":15734:15760   */\n      swap1\n      pop\n        /* \"#utility.yul\":15806:15815   */\n      dup2\n        /* \"#utility.yul\":15800:15804   */\n      dup2\n        /* \"#utility.yul\":15796:15816   */\n      sub\n        /* \"#utility.yul\":15792:15793   */\n      0x00\n        /* \"#utility.yul\":15781:15790   */\n      dup4\n        /* \"#utility.yul\":15777:15794   */\n      add\n        /* \"#utility.yul\":15770:15817   */\n      mstore\n        /* \"#utility.yul\":15834:15965   */\n      tag_500\n        /* \"#utility.yul\":15960:15964   */\n      dup2\n        /* \"#utility.yul\":15834:15965   */\n      tag_303\n      jump\t// in\n    tag_500:\n        /* \"#utility.yul\":15826:15965   */\n      swap1\n      pop\n        /* \"#utility.yul\":15553:15972   */\n      swap2\n      swap1\n      pop\n      jump\t// out\n        /* \"#utility.yul\":15978:16137   */\n    tag_304:\n        /* \"#utility.yul\":16118:16129   */\n      0x4e6f20746f6b656e730000000000000000000000000000000000000000000000\n        /* \"#utility.yul\":16114:16115   */\n      0x00\n        /* \"#utility.yul\":16106:16112   */\n      dup3\n        /* \"#utility.yul\":16102:16116   */\n      add\n        /* \"#utility.yul\":16095:16130   */\n      mstore\n        /* \"#utility.yul\":15978:16137   */\n      pop\n      jump\t// out\n        /* \"#utility.yul\":16143:16508   */\n    tag_305:\n        /* \"#utility.yul\":16285:16288   */\n      0x00\n        /* \"#utility.yul\":16306:16372   */\n      tag_503\n        /* \"#utility.yul\":16370:16371   */\n      0x09\n        /* \"#utility.yul\":16365:16368   */\n      dup4\n        /* \"#utility.yul\":16306:16372   */\n      tag_299\n      jump\t// in\n    tag_503:\n        /* \"#utility.yul\":16299:16372   */\n      swap2\n      pop\n        /* \"#utility.yul\":16381:16474   */\n      tag_504\n        /* \"#utility.yul\":16470:16473   */\n      dup3\n        /* \"#utility.yul\":16381:16474   */\n      tag_304\n      jump\t// in\n    tag_504:\n        /* \"#utility.yul\":16499:16501   */\n      0x20\n        /* \"#utility.yul\":16494:16497   */\n      dup3\n        /* \"#utility.yul\":16490:16502   */\n      add\n        /* \"#utility.yul\":16483:16502   */\n      swap1\n      pop\n        /* \"#utility.yul\":16143:16508   */\n      swap2\n      swap1\n      pop\n      jump\t// out\n        /* \"#utility.yul\":16514:16933   */\n    tag_82:\n        /* \"#utility.yul\":16680:16684   */\n      0x00\n        /* \"#utility.yul\":16718:16720   */\n      0x20\n        /* \"#utility.yul\":16707:16716   */\n      dup3\n        /* \"#utility.yul\":16703:16721   */\n      add\n        /* \"#utility.yul\":16695:16721   */\n      swap1\n      pop\n        /* \"#utility.yul\":16767:16776   */\n      dup2\n        /* \"#utility.yul\":16761:16765   */\n      dup2\n        /* \"#utility.yul\":16757:16777   */\n      sub\n        /* \"#utility.yul\":16753:16754   */\n      0x00\n        /* \"#utility.yul\":16742:16751   */\n      dup4\n        /* \"#utility.yul\":16738:16755   */\n      add\n        /* \"#utility.yul\":16731:16778   */\n      mstore\n        /* \"#utility.yul\":16795:16926   */\n      tag_506\n        /* \"#utility.yul\":16921:16925   */\n      dup2\n        /* \"#utility.yul\":16795:16926   */\n      tag_305\n      jump\t// in\n    tag_506:\n        /* \"#utility.yul\":16787:16926   */\n      swap1\n      pop\n        /* \"#utility.yul\":16514:16933   */\n      swap2\n      swap1\n      pop\n      jump\t// out\n        /* \"#utility.yul\":16939:17119   */\n    tag_88:\n        /* \"#utility.yul\":16987:17064   */\n      0x4e487b7100000000000000000000000000000000000000000000000000000000\n        /* \"#utility.yul\":16984:16985   */\n      0x00\n        /* \"#utility.yul\":16977:17065   */\n      mstore\n        /* \"#utility.yul\":17084:17088   */\n      0x32\n        /* \"#utility.yul\":17081:17082   */\n      0x04\n        /* \"#utility.yul\":17074:17089   */\n      mstore\n        /* \"#utility.yul\":17108:17112   */\n      0x24\n        /* \"#utility.yul\":17105:17106   */\n      0x00\n        /* \"#utility.yul\":17098:17113   */\n      revert\n        /* \"#utility.yul\":17125:17292   */\n    tag_306:\n        /* \"#utility.yul\":17265:17284   */\n      0x4e6f74206120746f6b656e206f776e6572000000000000000000000000000000\n        /* \"#utility.yul\":17261:17262   */\n      0x00\n        /* \"#utility.yul\":17253:17259   */\n      dup3\n        /* \"#utility.yul\":17249:17263   */\n      add\n        /* \"#utility.yul\":17242:17285   */\n      mstore\n        /* \"#utility.yul\":17125:17292   */\n      pop\n      jump\t// out\n        /* \"#utility.yul\":17298:17664   */\n    tag_307:\n        /* \"#utility.yul\":17440:17443   */\n      0x00\n        /* \"#utility.yul\":17461:17528   */\n      tag_510\n        /* \"#utility.yul\":17525:17527   */\n      0x11\n        /* \"#utility.yul\":17520:17523   */\n      dup4\n        /* \"#utility.yul\":17461:17528   */\n      tag_299\n      jump\t// in\n    tag_510:\n        /* \"#utility.yul\":17454:17528   */\n      swap2\n      pop\n        /* \"#utility.yul\":17537:17630   */\n      tag_511\n        /* \"#utility.yul\":17626:17629   */\n      dup3\n        /* \"#utility.yul\":17537:17630   */\n      tag_306\n      jump\t// in\n    tag_511:\n        /* \"#utility.yul\":17655:17657   */\n      0x20\n        /* \"#utility.yul\":17650:17653   */\n      dup3\n        /* \"#utility.yul\":17646:17658   */\n      add\n        /* \"#utility.yul\":17639:17658   */\n      swap1\n      pop\n        /* \"#utility.yul\":17298:17664   */\n      swap2\n      swap1\n      pop\n      jump\t// out\n        /* \"#utility.yul\":17670:18089   */\n    tag_91:\n        /* \"#utility.yul\":17836:17840   */\n      0x00\n        /* \"#utility.yul\":17874:17876   */\n      0x20\n        /* \"#utility.yul\":17863:17872   */\n      dup3\n        /* \"#utility.yul\":17859:17877   */\n      add\n        /* \"#utility.yul\":17851:17877   */\n      swap1\n      pop\n        /* \"#utility.yul\":17923:17932   */\n      dup2\n        /* \"#utility.yul\":17917:17921   */\n      dup2\n        /* \"#utility.yul\":17913:17933   */\n      sub\n        /* \"#utility.yul\":17909:17910   */\n      0x00\n        /* \"#utility.yul\":17898:17907   */\n      dup4\n        /* \"#utility.yul\":17894:17911   */\n      add\n        /* \"#utility.yul\":17887:17934   */\n      mstore\n        /* \"#utility.yul\":17951:18082   */\n      tag_513\n        /* \"#utility.yul\":18077:18081   */\n      dup2\n        /* \"#utility.yul\":17951:18082   */\n      tag_307\n      jump\t// in\n    tag_513:\n        /* \"#utility.yul\":17943:18082   */\n      swap1\n      pop\n        /* \"#utility.yul\":17670:18089   */\n      swap2\n      swap1\n      pop\n      jump\t// out\n        /* \"#utility.yul\":18095:18275   */\n    tag_308:\n        /* \"#utility.yul\":18143:18220   */\n      0x4e487b7100000000000000000000000000000000000000000000000000000000\n        /* \"#utility.yul\":18140:18141   */\n      0x00\n        /* \"#utility.yul\":18133:18221   */\n      mstore\n        /* \"#utility.yul\":18240:18244   */\n      0x11\n        /* \"#utility.yul\":18237:18238   */\n      0x04\n        /* \"#utility.yul\":18230:18245   */\n      mstore\n        /* \"#utility.yul\":18264:18268   */\n      0x24\n        /* \"#utility.yul\":18261:18262   */\n      0x00\n        /* \"#utility.yul\":18254:18269   */\n      revert\n        /* \"#utility.yul\":18281:18472   */\n    tag_93:\n        /* \"#utility.yul\":18321:18324   */\n      0x00\n        /* \"#utility.yul\":18340:18360   */\n      tag_516\n        /* \"#utility.yul\":18358:18359   */\n      dup3\n        /* \"#utility.yul\":18340:18360   */\n      tag_273\n      jump\t// in\n    tag_516:\n        /* \"#utility.yul\":18335:18360   */\n      swap2\n      pop\n        /* \"#utility.yul\":18374:18394   */\n      tag_517\n        /* \"#utility.yul\":18392:18393   */\n      dup4\n        /* \"#utility.yul\":18374:18394   */\n      tag_273\n      jump\t// in\n    tag_517:\n        /* \"#utility.yul\":18369:18394   */\n      swap3\n      pop\n        /* \"#utility.yul\":18417:18418   */\n      dup3\n        /* \"#utility.yul\":18414:18415   */\n      dup3\n        /* \"#utility.yul\":18410:18419   */\n      add\n        /* \"#utility.yul\":18403:18419   */\n      swap1\n      pop\n        /* \"#utility.yul\":18438:18441   */\n      dup1\n        /* \"#utility.yul\":18435:18436   */\n      dup3\n        /* \"#utility.yul\":18432:18442   */\n      gt\n        /* \"#utility.yul\":18429:18465   */\n      iszero\n      tag_518\n      jumpi\n        /* \"#utility.yul\":18445:18463   */\n      tag_519\n      tag_308\n      jump\t// in\n    tag_519:\n        /* \"#utility.yul\":18429:18465   */\n    tag_518:\n        /* \"#utility.yul\":18281:18472   */\n      swap3\n      swap2\n      pop\n      pop\n      jump\t// out\n        /* \"#utility.yul\":18478:18649   */\n    tag_309:\n        /* \"#utility.yul\":18618:18641   */\n      0x4e6f742061626c6520746f20636c61696d207965740000000000000000000000\n        /* \"#utility.yul\":18614:18615   */\n      0x00\n        /* \"#utility.yul\":18606:18612   */\n      dup3\n        /* \"#utility.yul\":18602:18616   */\n      add\n        /* \"#utility.yul\":18595:18642   */\n      mstore\n        /* \"#utility.yul\":18478:18649   */\n      pop\n      jump\t// out\n        /* \"#utility.yul\":18655:19021   */\n    tag_310:\n        /* \"#utility.yul\":18797:18800   */\n      0x00\n        /* \"#utility.yul\":18818:18885   */\n      tag_522\n        /* \"#utility.yul\":18882:18884   */\n      0x15\n        /* \"#utility.yul\":18877:18880   */\n      dup4\n        /* \"#utility.yul\":18818:18885   */\n      tag_299\n      jump\t// in\n    tag_522:\n        /* \"#utility.yul\":18811:18885   */\n      swap2\n      pop\n        /* \"#utility.yul\":18894:18987   */\n      tag_523\n        /* \"#utility.yul\":18983:18986   */\n      dup3\n        /* \"#utility.yul\":18894:18987   */\n      tag_309\n      jump\t// in\n    tag_523:\n        /* \"#utility.yul\":19012:19014   */\n      0x20\n        /* \"#utility.yul\":19007:19010   */\n      dup3\n        /* \"#utility.yul\":19003:19015   */\n      add\n        /* \"#utility.yul\":18996:19015   */\n      swap1\n      pop\n        /* \"#utility.yul\":18655:19021   */\n      swap2\n      swap1\n      pop\n      jump\t// out\n        /* \"#utility.yul\":19027:19446   */\n    tag_96:\n        /* \"#utility.yul\":19193:19197   */\n      0x00\n        /* \"#utility.yul\":19231:19233   */\n      0x20\n        /* \"#utility.yul\":19220:19229   */\n      dup3\n        /* \"#utility.yul\":19216:19234   */\n      add\n        /* \"#utility.yul\":19208:19234   */\n      swap1\n      pop\n        /* \"#utility.yul\":19280:19289   */\n      dup2\n        /* \"#utility.yul\":19274:19278   */\n      dup2\n        /* \"#utility.yul\":19270:19290   */\n      sub\n        /* \"#utility.yul\":19266:19267   */\n      0x00\n        /* \"#utility.yul\":19255:19264   */\n      dup4\n        /* \"#utility.yul\":19251:19268   */\n      add\n        /* \"#utility.yul\":19244:19291   */\n      mstore\n        /* \"#utility.yul\":19308:19439   */\n      tag_525\n        /* \"#utility.yul\":19434:19438   */\n      dup2\n        /* \"#utility.yul\":19308:19439   */\n      tag_310\n      jump\t// in\n    tag_525:\n        /* \"#utility.yul\":19300:19439   */\n      swap1\n      pop\n        /* \"#utility.yul\":19027:19446   */\n      swap2\n      swap1\n      pop\n      jump\t// out\n        /* \"#utility.yul\":19452:19618   */\n    tag_311:\n        /* \"#utility.yul\":19592:19610   */\n      0x416c726561647920756e6c6f636b656400000000000000000000000000000000\n        /* \"#utility.yul\":19588:19589   */\n      0x00\n        /* \"#utility.yul\":19580:19586   */\n      dup3\n        /* \"#utility.yul\":19576:19590   */\n      add\n        /* \"#utility.yul\":19569:19611   */\n      mstore\n        /* \"#utility.yul\":19452:19618   */\n      pop\n      jump\t// out\n        /* \"#utility.yul\":19624:19990   */\n    tag_312:\n        /* \"#utility.yul\":19766:19769   */\n      0x00\n        /* \"#utility.yul\":19787:19854   */\n      tag_528\n        /* \"#utility.yul\":19851:19853   */\n      0x10\n        /* \"#utility.yul\":19846:19849   */\n      dup4\n        /* \"#utility.yul\":19787:19854   */\n      tag_299\n      jump\t// in\n    tag_528:\n        /* \"#utility.yul\":19780:19854   */\n      swap2\n      pop\n        /* \"#utility.yul\":19863:19956   */\n      tag_529\n        /* \"#utility.yul\":19952:19955   */\n      dup3\n        /* \"#utility.yul\":19863:19956   */\n      tag_311\n      jump\t// in\n    tag_529:\n        /* \"#utility.yul\":19981:19983   */\n      0x20\n        /* \"#utility.yul\":19976:19979   */\n      dup3\n        /* \"#utility.yul\":19972:19984   */\n      add\n        /* \"#utility.yul\":19965:19984   */\n      swap1\n      pop\n        /* \"#utility.yul\":19624:19990   */\n      swap2\n      swap1\n      pop\n      jump\t// out\n        /* \"#utility.yul\":19996:20415   */\n    tag_99:\n        /* \"#utility.yul\":20162:20166   */\n      0x00\n        /* \"#utility.yul\":20200:20202   */\n      0x20\n        /* \"#utility.yul\":20189:20198   */\n      dup3\n        /* \"#utility.yul\":20185:20203   */\n      add\n        /* \"#utility.yul\":20177:20203   */\n      swap1\n      pop\n        /* \"#utility.yul\":20249:20258   */\n      dup2\n        /* \"#utility.yul\":20243:20247   */\n      dup2\n        /* \"#utility.yul\":20239:20259   */\n      sub\n        /* \"#utility.yul\":20235:20236   */\n      0x00\n        /* \"#utility.yul\":20224:20233   */\n      dup4\n        /* \"#utility.yul\":20220:20237   */\n      add\n        /* \"#utility.yul\":20213:20260   */\n      mstore\n        /* \"#utility.yul\":20277:20408   */\n      tag_531\n        /* \"#utility.yul\":20403:20407   */\n      dup2\n        /* \"#utility.yul\":20277:20408   */\n      tag_312\n      jump\t// in\n    tag_531:\n        /* \"#utility.yul\":20269:20408   */\n      swap1\n      pop\n        /* \"#utility.yul\":19996:20415   */\n      swap2\n      swap1\n      pop\n      jump\t// out\n        /* \"#utility.yul\":20421:20615   */\n    tag_105:\n        /* \"#utility.yul\":20461:20465   */\n      0x00\n        /* \"#utility.yul\":20481:20501   */\n      tag_533\n        /* \"#utility.yul\":20499:20500   */\n      dup3\n        /* \"#utility.yul\":20481:20501   */\n      tag_273\n      jump\t// in\n    tag_533:\n        /* \"#utility.yul\":20476:20501   */\n      swap2\n      pop\n        /* \"#utility.yul\":20515:20535   */\n      tag_534\n        /* \"#utility.yul\":20533:20534   */\n      dup4\n        /* \"#utility.yul\":20515:20535   */\n      tag_273\n      jump\t// in\n    tag_534:\n        /* \"#utility.yul\":20510:20535   */\n      swap3\n      pop\n        /* \"#utility.yul\":20559:20560   */\n      dup3\n        /* \"#utility.yul\":20556:20557   */\n      dup3\n        /* \"#utility.yul\":20552:20561   */\n      sub\n        /* \"#utility.yul\":20544:20561   */\n      swap1\n      pop\n        /* \"#utility.yul\":20583:20584   */\n      dup2\n        /* \"#utility.yul\":20577:20581   */\n      dup2\n        /* \"#utility.yul\":20574:20585   */\n      gt\n        /* \"#utility.yul\":20571:20608   */\n      iszero\n      tag_535\n      jumpi\n        /* \"#utility.yul\":20588:20606   */\n      tag_536\n      tag_308\n      jump\t// in\n    tag_536:\n        /* \"#utility.yul\":20571:20608   */\n    tag_535:\n        /* \"#utility.yul\":20421:20615   */\n      swap3\n      swap2\n      pop\n      pop\n      jump\t// out\n        /* \"#utility.yul\":20621:20953   */\n    tag_107:\n        /* \"#utility.yul\":20742:20746   */\n      0x00\n        /* \"#utility.yul\":20780:20782   */\n      0x40\n        /* \"#utility.yul\":20769:20778   */\n      dup3\n        /* \"#utility.yul\":20765:20783   */\n      add\n        /* \"#utility.yul\":20757:20783   */\n      swap1\n      pop\n        /* \"#utility.yul\":20793:20864   */\n      tag_538\n        /* \"#utility.yul\":20861:20862   */\n      0x00\n        /* \"#utility.yul\":20850:20859   */\n      dup4\n        /* \"#utility.yul\":20846:20863   */\n      add\n        /* \"#utility.yul\":20837:20843   */\n      dup6\n        /* \"#utility.yul\":20793:20864   */\n      tag_277\n      jump\t// in\n    tag_538:\n        /* \"#utility.yul\":20874:20946   */\n      tag_539\n        /* \"#utility.yul\":20942:20944   */\n      0x20\n        /* \"#utility.yul\":20931:20940   */\n      dup4\n        /* \"#utility.yul\":20927:20945   */\n      add\n        /* \"#utility.yul\":20918:20924   */\n      dup5\n        /* \"#utility.yul\":20874:20946   */\n      tag_274\n      jump\t// in\n    tag_539:\n        /* \"#utility.yul\":20621:20953   */\n      swap4\n      swap3\n      pop\n      pop\n      pop\n      jump\t// out\n        /* \"#utility.yul\":20959:21192   */\n    tag_115:\n        /* \"#utility.yul\":20998:21001   */\n      0x00\n        /* \"#utility.yul\":21021:21045   */\n      tag_541\n        /* \"#utility.yul\":21039:21044   */\n      dup3\n        /* \"#utility.yul\":21021:21045   */\n      tag_273\n      jump\t// in\n    tag_541:\n        /* \"#utility.yul\":21012:21045   */\n      swap2\n      pop\n        /* \"#utility.yul\":21067:21133   */\n      0xffffffffffffffffffffffffffffffffffffffffffffffffffffffffffffffff\n        /* \"#utility.yul\":21060:21065   */\n      dup3\n        /* \"#utility.yul\":21057:21134   */\n      sub\n        /* \"#utility.yul\":21054:21157   */\n      tag_542\n      jumpi\n        /* \"#utility.yul\":21137:21155   */\n      tag_543\n      tag_308\n      jump\t// in\n    tag_543:\n        /* \"#utility.yul\":21054:21157   */\n    tag_542:\n        /* \"#utility.yul\":21184:21185   */\n      0x01\n        /* \"#utility.yul\":21177:21182   */\n      dup3\n        /* \"#utility.yul\":21173:21186   */\n      add\n        /* \"#utility.yul\":21166:21186   */\n      swap1\n      pop\n        /* \"#utility.yul\":20959:21192   */\n      swap2\n      swap1\n      pop\n      jump\t// out\n        /* \"#utility.yul\":21198:21382   */\n    tag_313:\n        /* \"#utility.yul\":21297:21308   */\n      0x00\n        /* \"#utility.yul\":21331:21337   */\n      dup3\n        /* \"#utility.yul\":21326:21329   */\n      dup3\n        /* \"#utility.yul\":21319:21338   */\n      mstore\n        /* \"#utility.yul\":21371:21375   */\n      0x20\n        /* \"#utility.yul\":21366:21369   */\n      dup3\n        /* \"#utility.yul\":21362:21376   */\n      add\n        /* \"#utility.yul\":21347:21376   */\n      swap1\n      pop\n        /* \"#utility.yul\":21198:21382   */\n      swap3\n      swap2\n      pop\n      pop\n      jump\t// out\n        /* \"#utility.yul\":21388:21505   */\n    tag_314:\n        /* \"#utility.yul\":21497:21498   */\n      0x00\n        /* \"#utility.yul\":21494:21495   */\n      dup1\n        /* \"#utility.yul\":21487:21499   */\n      revert\n        /* \"#utility.yul\":21511:21609   */\n    tag_315:\n        /* \"#utility.yul\":21595:21601   */\n      dup3\n        /* \"#utility.yul\":21590:21593   */\n      dup2\n        /* \"#utility.yul\":21585:21588   */\n      dup4\n        /* \"#utility.yul\":21572:21602   */\n      calldatacopy\n        /* \"#utility.yul\":21511:21609   */\n      pop\n      pop\n      pop\n      jump\t// out\n        /* \"#utility.yul\":21645:22182   */\n    tag_316:\n        /* \"#utility.yul\":21773:21776   */\n      0x00\n        /* \"#utility.yul\":21794:21880   */\n      tag_548\n        /* \"#utility.yul\":21873:21879   */\n      dup4\n        /* \"#utility.yul\":21868:21871   */\n      dup6\n        /* \"#utility.yul\":21794:21880   */\n      tag_313\n      jump\t// in\n    tag_548:\n        /* \"#utility.yul\":21787:21880   */\n      swap4\n      pop\n        /* \"#utility.yul\":21904:21970   */\n      0x07ffffffffffffffffffffffffffffffffffffffffffffffffffffffffffffff\n        /* \"#utility.yul\":21896:21902   */\n      dup4\n        /* \"#utility.yul\":21893:21971   */\n      gt\n        /* \"#utility.yul\":21890:22055   */\n      iszero\n      tag_549\n      jumpi\n        /* \"#utility.yul\":21974:22053   */\n      tag_550\n      tag_314\n      jump\t// in\n    tag_550:\n        /* \"#utility.yul\":21890:22055   */\n    tag_549:\n        /* \"#utility.yul\":22086:22090   */\n      0x20\n        /* \"#utility.yul\":22078:22084   */\n      dup4\n        /* \"#utility.yul\":22074:22091   */\n      mul\n        /* \"#utility.yul\":22064:22091   */\n      swap3\n      pop\n        /* \"#utility.yul\":22101:22144   */\n      tag_551\n        /* \"#utility.yul\":22137:22143   */\n      dup4\n        /* \"#utility.yul\":22132:22135   */\n      dup6\n        /* \"#utility.yul\":22125:22130   */\n      dup5\n        /* \"#utility.yul\":22101:22144   */\n      tag_315\n      jump\t// in\n    tag_551:\n        /* \"#utility.yul\":22169:22175   */\n      dup3\n        /* \"#utility.yul\":22164:22167   */\n      dup5\n        /* \"#utility.yul\":22160:22176   */\n      add\n        /* \"#utility.yul\":22153:22176   */\n      swap1\n      pop\n        /* \"#utility.yul\":21645:22182   */\n      swap4\n      swap3\n      pop\n      pop\n      pop\n      jump\t// out\n        /* \"#utility.yul\":22188:22691   */\n    tag_117:\n        /* \"#utility.yul\":22369:22373   */\n      0x00\n        /* \"#utility.yul\":22407:22409   */\n      0x40\n        /* \"#utility.yul\":22396:22405   */\n      dup3\n        /* \"#utility.yul\":22392:22410   */\n      add\n        /* \"#utility.yul\":22384:22410   */\n      swap1\n      pop\n        /* \"#utility.yul\":22456:22465   */\n      dup2\n        /* \"#utility.yul\":22450:22454   */\n      dup2\n        /* \"#utility.yul\":22446:22466   */\n      sub\n        /* \"#utility.yul\":22442:22443   */\n      0x00\n        /* \"#utility.yul\":22431:22440   */\n      dup4\n        /* \"#utility.yul\":22427:22444   */\n      add\n        /* \"#utility.yul\":22420:22467   */\n      mstore\n        /* \"#utility.yul\":22484:22602   */\n      tag_553\n        /* \"#utility.yul\":22597:22601   */\n      dup2\n        /* \"#utility.yul\":22588:22594   */\n      dup6\n        /* \"#utility.yul\":22580:22586   */\n      dup8\n        /* \"#utility.yul\":22484:22602   */\n      tag_316\n      jump\t// in\n    tag_553:\n        /* \"#utility.yul\":22476:22602   */\n      swap1\n      pop\n        /* \"#utility.yul\":22612:22684   */\n      tag_554\n        /* \"#utility.yul\":22680:22682   */\n      0x20\n        /* \"#utility.yul\":22669:22678   */\n      dup4\n        /* \"#utility.yul\":22665:22683   */\n      add\n        /* \"#utility.yul\":22656:22662   */\n      dup5\n        /* \"#utility.yul\":22612:22684   */\n      tag_274\n      jump\t// in\n    tag_554:\n        /* \"#utility.yul\":22188:22691   */\n      swap5\n      swap4\n      pop\n      pop\n      pop\n      pop\n      jump\t// out\n        /* \"#utility.yul\":22697:22878   */\n    tag_317:\n        /* \"#utility.yul\":22837:22870   */\n      0x5265656e7472616e637947756172643a207265656e7472616e742063616c6c00\n        /* \"#utility.yul\":22833:22834   */\n      0x00\n        /* \"#utility.yul\":22825:22831   */\n      dup3\n        /* \"#utility.yul\":22821:22835   */\n      add\n        /* \"#utility.yul\":22814:22871   */\n      mstore\n        /* \"#utility.yul\":22697:22878   */\n      pop\n      jump\t// out\n        /* \"#utility.yul\":22884:23250   */\n    tag_318:\n        /* \"#utility.yul\":23026:23029   */\n      0x00\n        /* \"#utility.yul\":23047:23114   */\n      tag_557\n        /* \"#utility.yul\":23111:23113   */\n      0x1f\n        /* \"#utility.yul\":23106:23109   */\n      dup4\n        /* \"#utility.yul\":23047:23114   */\n      tag_299\n      jump\t// in\n    tag_557:\n        /* \"#utility.yul\":23040:23114   */\n      swap2\n      pop\n        /* \"#utility.yul\":23123:23216   */\n      tag_558\n        /* \"#utility.yul\":23212:23215   */\n      dup3\n        /* \"#utility.yul\":23123:23216   */\n      tag_317\n      jump\t// in\n    tag_558:\n        /* \"#utility.yul\":23241:23243   */\n      0x20\n        /* \"#utility.yul\":23236:23239   */\n      dup3\n        /* \"#utility.yul\":23232:23244   */\n      add\n        /* \"#utility.yul\":23225:23244   */\n      swap1\n      pop\n        /* \"#utility.yul\":22884:23250   */\n      swap2\n      swap1\n      pop\n      jump\t// out\n        /* \"#utility.yul\":23256:23675   */\n    tag_127:\n        /* \"#utility.yul\":23422:23426   */\n      0x00\n        /* \"#utility.yul\":23460:23462   */\n      0x20\n        /* \"#utility.yul\":23449:23458   */\n      dup3\n        /* \"#utility.yul\":23445:23463   */\n      add\n        /* \"#utility.yul\":23437:23463   */\n      swap1\n      pop\n        /* \"#utility.yul\":23509:23518   */\n      dup2\n        /* \"#utility.yul\":23503:23507   */\n      dup2\n        /* \"#utility.yul\":23499:23519   */\n      sub\n        /* \"#utility.yul\":23495:23496   */\n      0x00\n        /* \"#utility.yul\":23484:23493   */\n      dup4\n        /* \"#utility.yul\":23480:23497   */\n      add\n        /* \"#utility.yul\":23473:23520   */\n      mstore\n        /* \"#utility.yul\":23537:23668   */\n      tag_560\n        /* \"#utility.yul\":23663:23667   */\n      dup2\n        /* \"#utility.yul\":23537:23668   */\n      tag_318\n      jump\t// in\n    tag_560:\n        /* \"#utility.yul\":23529:23668   */\n      swap1\n      pop\n        /* \"#utility.yul\":23256:23675   */\n      swap2\n      swap1\n      pop\n      jump\t// out\n        /* \"#utility.yul\":23681:23824   */\n    tag_319:\n        /* \"#utility.yul\":23738:23743   */\n      0x00\n        /* \"#utility.yul\":23769:23775   */\n      dup2\n        /* \"#utility.yul\":23763:23776   */\n      mload\n        /* \"#utility.yul\":23754:23776   */\n      swap1\n      pop\n        /* \"#utility.yul\":23785:23818   */\n      tag_562\n        /* \"#utility.yul\":23812:23817   */\n      dup2\n        /* \"#utility.yul\":23785:23818   */\n      tag_290\n      jump\t// in\n    tag_562:\n        /* \"#utility.yul\":23681:23824   */\n      swap3\n      swap2\n      pop\n      pop\n      jump\t// out\n        /* \"#utility.yul\":23830:24181   */\n    tag_140:\n        /* \"#utility.yul\":23900:23906   */\n      0x00\n        /* \"#utility.yul\":23949:23951   */\n      0x20\n        /* \"#utility.yul\":23937:23946   */\n      dup3\n        /* \"#utility.yul\":23928:23935   */\n      dup5\n        /* \"#utility.yul\":23924:23947   */\n      sub\n        /* \"#utility.yul\":23920:23952   */\n      slt\n        /* \"#utility.yul\":23917:24036   */\n      iszero\n      tag_564\n      jumpi\n        /* \"#utility.yul\":23955:24034   */\n      tag_565\n      tag_262\n      jump\t// in\n    tag_565:\n        /* \"#utility.yul\":23917:24036   */\n    tag_564:\n        /* \"#utility.yul\":24075:24076   */\n      0x00\n        /* \"#utility.yul\":24100:24164   */\n      tag_566\n        /* \"#utility.yul\":24156:24163   */\n      dup5\n        /* \"#utility.yul\":24147:24153   */\n      dup3\n        /* \"#utility.yul\":24136:24145   */\n      dup6\n        /* \"#utility.yul\":24132:24154   */\n      add\n        /* \"#utility.yul\":24100:24164   */\n      tag_319\n      jump\t// in\n    tag_566:\n        /* \"#utility.yul\":24090:24164   */\n      swap2\n      pop\n        /* \"#utility.yul\":24046:24174   */\n      pop\n        /* \"#utility.yul\":23830:24181   */\n      swap3\n      swap2\n      pop\n      pop\n      jump\t// out\n        /* \"#utility.yul\":24187:24362   */\n    tag_320:\n        /* \"#utility.yul\":24327:24354   */\n      0x596f7520646f6e277420686f6c64207468697320746f6b656e00000000000000\n        /* \"#utility.yul\":24323:24324   */\n      0x00\n        /* \"#utility.yul\":24315:24321   */\n      dup3\n        /* \"#utility.yul\":24311:24325   */\n      add\n        /* \"#utility.yul\":24304:24355   */\n      mstore\n        /* \"#utility.yul\":24187:24362   */\n      pop\n      jump\t// out\n        /* \"#utility.yul\":24368:24734   */\n    tag_321:\n        /* \"#utility.yul\":24510:24513   */\n      0x00\n        /* \"#utility.yul\":24531:24598   */\n      tag_569\n        /* \"#utility.yul\":24595:24597   */\n      0x19\n        /* \"#utility.yul\":24590:24593   */\n      dup4\n        /* \"#utility.yul\":24531:24598   */\n      tag_299\n      jump\t// in\n    tag_569:\n        /* \"#utility.yul\":24524:24598   */\n      swap2\n      pop\n        /* \"#utility.yul\":24607:24700   */\n      tag_570\n        /* \"#utility.yul\":24696:24699   */\n      dup3\n        /* \"#utility.yul\":24607:24700   */\n      tag_320\n      jump\t// in\n    tag_570:\n        /* \"#utility.yul\":24725:24727   */\n      0x20\n        /* \"#utility.yul\":24720:24723   */\n      dup3\n        /* \"#utility.yul\":24716:24728   */\n      add\n        /* \"#utility.yul\":24709:24728   */\n      swap1\n      pop\n        /* \"#utility.yul\":24368:24734   */\n      swap2\n      swap1\n      pop\n      jump\t// out\n        /* \"#utility.yul\":24740:25159   */\n    tag_143:\n        /* \"#utility.yul\":24906:24910   */\n      0x00\n        /* \"#utility.yul\":24944:24946   */\n      0x20\n        /* \"#utility.yul\":24933:24942   */\n      dup3\n        /* \"#utility.yul\":24929:24947   */\n      add\n        /* \"#utility.yul\":24921:24947   */\n      swap1\n      pop\n        /* \"#utility.yul\":24993:25002   */\n      dup2\n        /* \"#utility.yul\":24987:24991   */\n      dup2\n        /* \"#utility.yul\":24983:25003   */\n      sub\n        /* \"#utility.yul\":24979:24980   */\n      0x00\n        /* \"#utility.yul\":24968:24977   */\n      dup4\n        /* \"#utility.yul\":24964:24981   */\n      add\n        /* \"#utility.yul\":24957:25004   */\n      mstore\n        /* \"#utility.yul\":25021:25152   */\n      tag_572\n        /* \"#utility.yul\":25147:25151   */\n      dup2\n        /* \"#utility.yul\":25021:25152   */\n      tag_321\n      jump\t// in\n    tag_572:\n        /* \"#utility.yul\":25013:25152   */\n      swap1\n      pop\n        /* \"#utility.yul\":24740:25159   */\n      swap2\n      swap1\n      pop\n      jump\t// out\n        /* \"#utility.yul\":25165:25607   */\n    tag_147:\n        /* \"#utility.yul\":25314:25318   */\n      0x00\n        /* \"#utility.yul\":25352:25354   */\n      0x60\n        /* \"#utility.yul\":25341:25350   */\n      dup3\n        /* \"#utility.yul\":25337:25355   */\n      add\n        /* \"#utility.yul\":25329:25355   */\n      swap1\n      pop\n        /* \"#utility.yul\":25365:25436   */\n      tag_574\n        /* \"#utility.yul\":25433:25434   */\n      0x00\n        /* \"#utility.yul\":25422:25431   */\n      dup4\n        /* \"#utility.yul\":25418:25435   */\n      add\n        /* \"#utility.yul\":25409:25415   */\n      dup7\n        /* \"#utility.yul\":25365:25436   */\n      tag_277\n      jump\t// in\n    tag_574:\n        /* \"#utility.yul\":25446:25518   */\n      tag_575\n        /* \"#utility.yul\":25514:25516   */\n      0x20\n        /* \"#utility.yul\":25503:25512   */\n      dup4\n        /* \"#utility.yul\":25499:25517   */\n      add\n        /* \"#utility.yul\":25490:25496   */\n      dup6\n        /* \"#utility.yul\":25446:25518   */\n      tag_277\n      jump\t// in\n    tag_575:\n        /* \"#utility.yul\":25528:25600   */\n      tag_576\n        /* \"#utility.yul\":25596:25598   */\n      0x40\n        /* \"#utility.yul\":25585:25594   */\n      dup4\n        /* \"#utility.yul\":25581:25599   */\n      add\n        /* \"#utility.yul\":25572:25578   */\n      dup5\n        /* \"#utility.yul\":25528:25600   */\n      tag_274\n      jump\t// in\n    tag_576:\n        /* \"#utility.yul\":25165:25607   */\n      swap5\n      swap4\n      pop\n      pop\n      pop\n      pop\n      jump\t// out\n        /* \"#utility.yul\":25613:26006   */\n    tag_155:\n        /* \"#utility.yul\":25766:25770   */\n      0x00\n        /* \"#utility.yul\":25804:25806   */\n      0x20\n        /* \"#utility.yul\":25793:25802   */\n      dup3\n        /* \"#utility.yul\":25789:25807   */\n      add\n        /* \"#utility.yul\":25781:25807   */\n      swap1\n      pop\n        /* \"#utility.yul\":25853:25862   */\n      dup2\n        /* \"#utility.yul\":25847:25851   */\n      dup2\n        /* \"#utility.yul\":25843:25863   */\n      sub\n        /* \"#utility.yul\":25839:25840   */\n      0x00\n        /* \"#utility.yul\":25828:25837   */\n      dup4\n        /* \"#utility.yul\":25824:25841   */\n      add\n        /* \"#utility.yul\":25817:25864   */\n      mstore\n        /* \"#utility.yul\":25881:25999   */\n      tag_578\n        /* \"#utility.yul\":25994:25998   */\n      dup2\n        /* \"#utility.yul\":25985:25991   */\n      dup5\n        /* \"#utility.yul\":25977:25983   */\n      dup7\n        /* \"#utility.yul\":25881:25999   */\n      tag_316\n      jump\t// in\n    tag_578:\n        /* \"#utility.yul\":25873:25999   */\n      swap1\n      pop\n        /* \"#utility.yul\":25613:26006   */\n      swap4\n      swap3\n      pop\n      pop\n      pop\n      jump\t// out\n        /* \"#utility.yul\":26012:26182   */\n    tag_322:\n        /* \"#utility.yul\":26152:26174   */\n      0x496e76616c6964206c6f636b20706572696f642e000000000000000000000000\n        /* \"#utility.yul\":26148:26149   */\n      0x00\n        /* \"#utility.yul\":26140:26146   */\n      dup3\n        /* \"#utility.yul\":26136:26150   */\n      add\n        /* \"#utility.yul\":26129:26175   */\n      mstore\n        /* \"#utility.yul\":26012:26182   */\n      pop\n      jump\t// out\n        /* \"#utility.yul\":26188:26554   */\n    tag_323:\n        /* \"#utility.yul\":26330:26333   */\n      0x00\n        /* \"#utility.yul\":26351:26418   */\n      tag_581\n        /* \"#utility.yul\":26415:26417   */\n      0x14\n        /* \"#utility.yul\":26410:26413   */\n      dup4\n        /* \"#utility.yul\":26351:26418   */\n      tag_299\n      jump\t// in\n    tag_581:\n        /* \"#utility.yul\":26344:26418   */\n      swap2\n      pop\n        /* \"#utility.yul\":26427:26520   */\n      tag_582\n        /* \"#utility.yul\":26516:26519   */\n      dup3\n        /* \"#utility.yul\":26427:26520   */\n      tag_322\n      jump\t// in\n    tag_582:\n        /* \"#utility.yul\":26545:26547   */\n      0x20\n        /* \"#utility.yul\":26540:26543   */\n      dup3\n        /* \"#utility.yul\":26536:26548   */\n      add\n        /* \"#utility.yul\":26529:26548   */\n      swap1\n      pop\n        /* \"#utility.yul\":26188:26554   */\n      swap2\n      swap1\n      pop\n      jump\t// out\n        /* \"#utility.yul\":26560:26979   */\n    tag_167:\n        /* \"#utility.yul\":26726:26730   */\n      0x00\n        /* \"#utility.yul\":26764:26766   */\n      0x20\n        /* \"#utility.yul\":26753:26762   */\n      dup3\n        /* \"#utility.yul\":26749:26767   */\n      add\n        /* \"#utility.yul\":26741:26767   */\n      swap1\n      pop\n        /* \"#utility.yul\":26813:26822   */\n      dup2\n        /* \"#utility.yul\":26807:26811   */\n      dup2\n        /* \"#utility.yul\":26803:26823   */\n      sub\n        /* \"#utility.yul\":26799:26800   */\n      0x00\n        /* \"#utility.yul\":26788:26797   */\n      dup4\n        /* \"#utility.yul\":26784:26801   */\n      add\n        /* \"#utility.yul\":26777:26824   */\n      mstore\n        /* \"#utility.yul\":26841:26972   */\n      tag_584\n        /* \"#utility.yul\":26967:26971   */\n      dup2\n        /* \"#utility.yul\":26841:26972   */\n      tag_323\n      jump\t// in\n    tag_584:\n        /* \"#utility.yul\":26833:26972   */\n      swap1\n      pop\n        /* \"#utility.yul\":26560:26979   */\n      swap2\n      swap1\n      pop\n      jump\t// out\n        /* \"#utility.yul\":26985:27157   */\n    tag_324:\n        /* \"#utility.yul\":27125:27149   */\n      0x4e6f742061626c6520746f20756e6c6f636b2079657400000000000000000000\n        /* \"#utility.yul\":27121:27122   */\n      0x00\n        /* \"#utility.yul\":27113:27119   */\n      dup3\n        /* \"#utility.yul\":27109:27123   */\n      add\n        /* \"#utility.yul\":27102:27150   */\n      mstore\n        /* \"#utility.yul\":26985:27157   */\n      pop\n      jump\t// out\n        /* \"#utility.yul\":27163:27529   */\n    tag_325:\n        /* \"#utility.yul\":27305:27308   */\n      0x00\n        /* \"#utility.yul\":27326:27393   */\n      tag_587\n        /* \"#utility.yul\":27390:27392   */\n      0x16\n        /* \"#utility.yul\":27385:27388   */\n      dup4\n        /* \"#utility.yul\":27326:27393   */\n      tag_299\n      jump\t// in\n    tag_587:\n        /* \"#utility.yul\":27319:27393   */\n      swap2\n      pop\n        /* \"#utility.yul\":27402:27495   */\n      tag_588\n        /* \"#utility.yul\":27491:27494   */\n      dup3\n        /* \"#utility.yul\":27402:27495   */\n      tag_324\n      jump\t// in\n    tag_588:\n        /* \"#utility.yul\":27520:27522   */\n      0x20\n        /* \"#utility.yul\":27515:27518   */\n      dup3\n        /* \"#utility.yul\":27511:27523   */\n      add\n        /* \"#utility.yul\":27504:27523   */\n      swap1\n      pop\n        /* \"#utility.yul\":27163:27529   */\n      swap2\n      swap1\n      pop\n      jump\t// out\n        /* \"#utility.yul\":27535:27954   */\n    tag_192:\n        /* \"#utility.yul\":27701:27705   */\n      0x00\n        /* \"#utility.yul\":27739:27741   */\n      0x20\n        /* \"#utility.yul\":27728:27737   */\n      dup3\n        /* \"#utility.yul\":27724:27742   */\n      add\n        /* \"#utility.yul\":27716:27742   */\n      swap1\n      pop\n        /* \"#utility.yul\":27788:27797   */\n      dup2\n        /* \"#utility.yul\":27782:27786   */\n      dup2\n        /* \"#utility.yul\":27778:27798   */\n      sub\n        /* \"#utility.yul\":27774:27775   */\n      0x00\n        /* \"#utility.yul\":27763:27772   */\n      dup4\n        /* \"#utility.yul\":27759:27776   */\n      add\n        /* \"#utility.yul\":27752:27799   */\n      mstore\n        /* \"#utility.yul\":27816:27947   */\n      tag_590\n        /* \"#utility.yul\":27942:27946   */\n      dup2\n        /* \"#utility.yul\":27816:27947   */\n      tag_325\n      jump\t// in\n    tag_590:\n        /* \"#utility.yul\":27808:27947   */\n      swap1\n      pop\n        /* \"#utility.yul\":27535:27954   */\n      swap2\n      swap1\n      pop\n      jump\t// out\n        /* \"#utility.yul\":27960:28185   */\n    tag_326:\n        /* \"#utility.yul\":28100:28134   */\n      0x4f776e61626c653a206e6577206f776e657220697320746865207a65726f2061\n        /* \"#utility.yul\":28096:28097   */\n      0x00\n        /* \"#utility.yul\":28088:28094   */\n      dup3\n        /* \"#utility.yul\":28084:28098   */\n      add\n        /* \"#utility.yul\":28077:28135   */\n      mstore\n        /* \"#utility.yul\":28169:28177   */\n      0x6464726573730000000000000000000000000000000000000000000000000000\n        /* \"#utility.yul\":28164:28166   */\n      0x20\n        /* \"#utility.yul\":28156:28162   */\n      dup3\n        /* \"#utility.yul\":28152:28167   */\n      add\n        /* \"#utility.yul\":28145:28178   */\n      mstore\n        /* \"#utility.yul\":27960:28185   */\n      pop\n      jump\t// out\n        /* \"#utility.yul\":28191:28557   */\n    tag_327:\n        /* \"#utility.yul\":28333:28336   */\n      0x00\n        /* \"#utility.yul\":28354:28421   */\n      tag_593\n        /* \"#utility.yul\":28418:28420   */\n      0x26\n        /* \"#utility.yul\":28413:28416   */\n      dup4\n        /* \"#utility.yul\":28354:28421   */\n      tag_299\n      jump\t// in\n    tag_593:\n        /* \"#utility.yul\":28347:28421   */\n      swap2\n      pop\n        /* \"#utility.yul\":28430:28523   */\n      tag_594\n        /* \"#utility.yul\":28519:28522   */\n      dup3\n        /* \"#utility.yul\":28430:28523   */\n      tag_326\n      jump\t// in\n    tag_594:\n        /* \"#utility.yul\":28548:28550   */\n      0x40\n        /* \"#utility.yul\":28543:28546   */\n      dup3\n        /* \"#utility.yul\":28539:28551   */\n      add\n        /* \"#utility.yul\":28532:28551   */\n      swap1\n      pop\n        /* \"#utility.yul\":28191:28557   */\n      swap2\n      swap1\n      pop\n      jump\t// out\n        /* \"#utility.yul\":28563:28982   */\n    tag_240:\n        /* \"#utility.yul\":28729:28733   */\n      0x00\n        /* \"#utility.yul\":28767:28769   */\n      0x20\n        /* \"#utility.yul\":28756:28765   */\n      dup3\n        /* \"#utility.yul\":28752:28770   */\n      add\n        /* \"#utility.yul\":28744:28770   */\n      swap1\n      pop\n        /* \"#utility.yul\":28816:28825   */\n      dup2\n        /* \"#utility.yul\":28810:28814   */\n      dup2\n        /* \"#utility.yul\":28806:28826   */\n      sub\n        /* \"#utility.yul\":28802:28803   */\n      0x00\n        /* \"#utility.yul\":28791:28800   */\n      dup4\n        /* \"#utility.yul\":28787:28804   */\n      add\n        /* \"#utility.yul\":28780:28827   */\n      mstore\n        /* \"#utility.yul\":28844:28975   */\n      tag_596\n        /* \"#utility.yul\":28970:28974   */\n      dup2\n        /* \"#utility.yul\":28844:28975   */\n      tag_327\n      jump\t// in\n    tag_596:\n        /* \"#utility.yul\":28836:28975   */\n      swap1\n      pop\n        /* \"#utility.yul\":28563:28982   */\n      swap2\n      swap1\n      pop\n      jump\t// out\n        /* \"#utility.yul\":28988:29336   */\n    tag_249:\n        /* \"#utility.yul\":29028:29035   */\n      0x00\n        /* \"#utility.yul\":29051:29071   */\n      tag_598\n        /* \"#utility.yul\":29069:29070   */\n      dup3\n        /* \"#utility.yul\":29051:29071   */\n      tag_273\n      jump\t// in\n    tag_598:\n        /* \"#utility.yul\":29046:29071   */\n      swap2\n      pop\n        /* \"#utility.yul\":29085:29105   */\n      tag_599\n        /* \"#utility.yul\":29103:29104   */\n      dup4\n        /* \"#utility.yul\":29085:29105   */\n      tag_273\n      jump\t// in\n    tag_599:\n        /* \"#utility.yul\":29080:29105   */\n      swap3\n      pop\n        /* \"#utility.yul\":29273:29274   */\n      dup2\n        /* \"#utility.yul\":29205:29271   */\n      0xffffffffffffffffffffffffffffffffffffffffffffffffffffffffffffffff\n        /* \"#utility.yul\":29201:29275   */\n      div\n        /* \"#utility.yul\":29198:29199   */\n      dup4\n        /* \"#utility.yul\":29195:29276   */\n      gt\n        /* \"#utility.yul\":29190:29191   */\n      dup3\n        /* \"#utility.yul\":29183:29192   */\n      iszero\n        /* \"#utility.yul\":29176:29193   */\n      iszero\n        /* \"#utility.yul\":29172:29277   */\n      and\n        /* \"#utility.yul\":29169:29300   */\n      iszero\n      tag_600\n      jumpi\n        /* \"#utility.yul\":29280:29298   */\n      tag_601\n      tag_308\n      jump\t// in\n    tag_601:\n        /* \"#utility.yul\":29169:29300   */\n    tag_600:\n        /* \"#utility.yul\":29328:29329   */\n      dup3\n        /* \"#utility.yul\":29325:29326   */\n      dup3\n        /* \"#utility.yul\":29321:29330   */\n      mul\n        /* \"#utility.yul\":29310:29330   */\n      swap1\n      pop\n        /* \"#utility.yul\":28988:29336   */\n      swap3\n      swap2\n      pop\n      pop\n      jump\t// out\n        /* \"#utility.yul\":29342:29522   */\n    tag_328:\n        /* \"#utility.yul\":29390:29467   */\n      0x4e487b7100000000000000000000000000000000000000000000000000000000\n        /* \"#utility.yul\":29387:29388   */\n      0x00\n        /* \"#utility.yul\":29380:29468   */\n      mstore\n        /* \"#utility.yul\":29487:29491   */\n      0x12\n        /* \"#utility.yul\":29484:29485   */\n      0x04\n        /* \"#utility.yul\":29477:29492   */\n      mstore\n        /* \"#utility.yul\":29511:29515   */\n      0x24\n        /* \"#utility.yul\":29508:29509   */\n      0x00\n        /* \"#utility.yul\":29501:29516   */\n      revert\n        /* \"#utility.yul\":29528:29713   */\n    tag_251:\n        /* \"#utility.yul\":29568:29569   */\n      0x00\n        /* \"#utility.yul\":29585:29605   */\n      tag_604\n        /* \"#utility.yul\":29603:29604   */\n      dup3\n        /* \"#utility.yul\":29585:29605   */\n      tag_273\n      jump\t// in\n    tag_604:\n        /* \"#utility.yul\":29580:29605   */\n      swap2\n      pop\n        /* \"#utility.yul\":29619:29639   */\n      tag_605\n        /* \"#utility.yul\":29637:29638   */\n      dup4\n        /* \"#utility.yul\":29619:29639   */\n      tag_273\n      jump\t// in\n    tag_605:\n        /* \"#utility.yul\":29614:29639   */\n      swap3\n      pop\n        /* \"#utility.yul\":29658:29659   */\n      dup3\n        /* \"#utility.yul\":29648:29683   */\n      tag_606\n      jumpi\n        /* \"#utility.yul\":29663:29681   */\n      tag_607\n      tag_328\n      jump\t// in\n    tag_607:\n        /* \"#utility.yul\":29648:29683   */\n    tag_606:\n        /* \"#utility.yul\":29705:29706   */\n      dup3\n        /* \"#utility.yul\":29702:29703   */\n      dup3\n        /* \"#utility.yul\":29698:29707   */\n      div\n        /* \"#utility.yul\":29693:29707   */\n      swap1\n      pop\n        /* \"#utility.yul\":29528:29713   */\n      swap3\n      swap2\n      pop\n      pop\n      jump\t// out\n        /* \"#utility.yul\":29719:29901   */\n    tag_329:\n        /* \"#utility.yul\":29859:29893   */\n      0x4f776e61626c653a2063616c6c6572206973206e6f7420746865206f776e6572\n        /* \"#utility.yul\":29855:29856   */\n      0x00\n        /* \"#utility.yul\":29847:29853   */\n      dup3\n        /* \"#utility.yul\":29843:29857   */\n      add\n        /* \"#utility.yul\":29836:29894   */\n      mstore\n        /* \"#utility.yul\":29719:29901   */\n      pop\n      jump\t// out\n        /* \"#utility.yul\":29907:30273   */\n    tag_330:\n        /* \"#utility.yul\":30049:30052   */\n      0x00\n        /* \"#utility.yul\":30070:30137   */\n      tag_610\n        /* \"#utility.yul\":30134:30136   */\n      0x20\n        /* \"#utility.yul\":30129:30132   */\n      dup4\n        /* \"#utility.yul\":30070:30137   */\n      tag_299\n      jump\t// in\n    tag_610:\n        /* \"#utility.yul\":30063:30137   */\n      swap2\n      pop\n        /* \"#utility.yul\":30146:30239   */\n      tag_611\n        /* \"#utility.yul\":30235:30238   */\n      dup3\n        /* \"#utility.yul\":30146:30239   */\n      tag_329\n      jump\t// in\n    tag_611:\n        /* \"#utility.yul\":30264:30266   */\n      0x20\n        /* \"#utility.yul\":30259:30262   */\n      dup3\n        /* \"#utility.yul\":30255:30267   */\n      add\n        /* \"#utility.yul\":30248:30267   */\n      swap1\n      pop\n        /* \"#utility.yul\":29907:30273   */\n      swap2\n      swap1\n      pop\n      jump\t// out\n        /* \"#utility.yul\":30279:30698   */\n    tag_258:\n        /* \"#utility.yul\":30445:30449   */\n      0x00\n        /* \"#utility.yul\":30483:30485   */\n      0x20\n        /* \"#utility.yul\":30472:30481   */\n      dup3\n        /* \"#utility.yul\":30468:30486   */\n      add\n        /* \"#utility.yul\":30460:30486   */\n      swap1\n      pop\n        /* \"#utility.yul\":30532:30541   */\n      dup2\n        /* \"#utility.yul\":30526:30530   */\n      dup2\n        /* \"#utility.yul\":30522:30542   */\n      sub\n        /* \"#utility.yul\":30518:30519   */\n      0x00\n        /* \"#utility.yul\":30507:30516   */\n      dup4\n        /* \"#utility.yul\":30503:30520   */\n      add\n        /* \"#utility.yul\":30496:30543   */\n      mstore\n        /* \"#utility.yul\":30560:30691   */\n      tag_613\n        /* \"#utility.yul\":30686:30690   */\n      dup2\n        /* \"#utility.yul\":30560:30691   */\n      tag_330\n      jump\t// in\n    tag_613:\n        /* \"#utility.yul\":30552:30691   */\n      swap1\n      pop\n        /* \"#utility.yul\":30279:30698   */\n      swap2\n      swap1\n      pop\n      jump\t// out\n\n    auxdata: 0xa26469706673582212203fd6d091960a53d09c0963e90a9151ec0e06c226d033e1a91530a4ae76f4bccd64736f6c63430008100033\n}\n",
				"bytecode": {
					"linkReferences": {},
					"object": "60806040523480156200001157600080fd5b50604051620033f7380380620033f783398181016040528101906200003791906200066a565b620000576200004b6200029f60201b60201c565b620002a760201b60201c565b6001808190555060008411620000a4576040517f08c379a00000000000000000000000000000000000000000000000000000000081526004016200009b90620007e3565b60405180910390fd5b60005b86518110156200028457858181518110620000c757620000c662000805565b5b602002602001015160046000898481518110620000e957620000e862000805565b5b602002602001015173ffffffffffffffffffffffffffffffffffffffff1673ffffffffffffffffffffffffffffffffffffffff16815260200190815260200160002060000160006101000a81548173ffffffffffffffffffffffffffffffffffffffff021916908373ffffffffffffffffffffffffffffffffffffffff16021790555083818151811062000182576200018162000805565b5b602002602001015160046000898481518110620001a457620001a362000805565b5b602002602001015173ffffffffffffffffffffffffffffffffffffffff1673ffffffffffffffffffffffffffffffffffffffff1681526020019081526020016000206001018190555082818151811062000203576200020262000805565b5b60200260200101516004600089848151811062000225576200022462000805565b5b602002602001015173ffffffffffffffffffffffffffffffffffffffff1673ffffffffffffffffffffffffffffffffffffffff1681526020019081526020016000206002018190555080806200027b9062000863565b915050620000a7565b508360028190555080600581905550505050505050620008b0565b600033905090565b60008060009054906101000a900473ffffffffffffffffffffffffffffffffffffffff169050816000806101000a81548173ffffffffffffffffffffffffffffffffffffffff021916908373ffffffffffffffffffffffffffffffffffffffff1602179055508173ffffffffffffffffffffffffffffffffffffffff168173ffffffffffffffffffffffffffffffffffffffff167f8be0079c531659141344cd1fd0a4f28419497f9722a3daafe3b4186f6b6457e060405160405180910390a35050565b6000604051905090565b600080fd5b600080fd5b600080fd5b6000601f19601f8301169050919050565b7f4e487b7100000000000000000000000000000000000000000000000000000000600052604160045260246000fd5b620003cf8262000384565b810181811067ffffffffffffffff82111715620003f157620003f062000395565b5b80604052505050565b6000620004066200036b565b9050620004148282620003c4565b919050565b600067ffffffffffffffff82111562000437576200043662000395565b5b602082029050602081019050919050565b600080fd5b600073ffffffffffffffffffffffffffffffffffffffff82169050919050565b60006200047a826200044d565b9050919050565b6200048c816200046d565b81146200049857600080fd5b50565b600081519050620004ac8162000481565b92915050565b6000620004c9620004c38462000419565b620003fa565b90508083825260208201905060208402830185811115620004ef57620004ee62000448565b5b835b818110156200051c57806200050788826200049b565b845260208401935050602081019050620004f1565b5050509392505050565b600082601f8301126200053e576200053d6200037f565b5b815162000550848260208601620004b2565b91505092915050565b6000819050919050565b6200056e8162000559565b81146200057a57600080fd5b50565b6000815190506200058e8162000563565b92915050565b600067ffffffffffffffff821115620005b257620005b162000395565b5b602082029050602081019050919050565b6000620005da620005d48462000594565b620003fa565b905080838252602082019050602084028301858111156200060057620005ff62000448565b5b835b818110156200062d57806200061888826200057d565b84526020840193505060208101905062000602565b5050509392505050565b600082601f8301126200064f576200064e6200037f565b5b815162000661848260208601620005c3565b91505092915050565b60008060008060008060c087890312156200068a576200068962000375565b5b600087015167ffffffffffffffff811115620006ab57620006aa6200037a565b5b620006b989828a0162000526565b965050602087015167ffffffffffffffff811115620006dd57620006dc6200037a565b5b620006eb89828a0162000526565b9550506040620006fe89828a016200057d565b945050606087015167ffffffffffffffff8111156200072257620007216200037a565b5b6200073089828a0162000637565b935050608087015167ffffffffffffffff8111156200075457620007536200037a565b5b6200076289828a0162000637565b92505060a06200077589828a016200057d565b9150509295509295509295565b600082825260208201905092915050565b7f496e76616c6964206c6f636b20706572696f6400000000000000000000000000600082015250565b6000620007cb60138362000782565b9150620007d88262000793565b602082019050919050565b60006020820190508181036000830152620007fe81620007bc565b9050919050565b7f4e487b7100000000000000000000000000000000000000000000000000000000600052603260045260246000fd5b7f4e487b7100000000000000000000000000000000000000000000000000000000600052601160045260246000fd5b6000620008708262000559565b91507fffffffffffffffffffffffffffffffffffffffffffffffffffffffffffffffff8203620008a557620008a462000834565b5b600182019050919050565b612b3780620008c06000396000f3fe608060405234801561001057600080fd5b50600436106100cf5760003560e01c80639f3625f01161008c578063c35e750f11610066578063c35e750f146101ee578063c69d19231461020a578063e9545b9214610228578063f2fde38b1461025a576100cf565b80639f3625f01461016e578063b2520a7c1461018a578063b33068c4146101be576100cf565b80630520537f146100d45780631902732e146100f05780633fd8b02f1461010c578063715018a61461012a578063779972da146101345780638da5cb5b14610150575b600080fd5b6100ee60048036038101906100e99190611c40565b610276565b005b61010a60048036038101906101059190611c40565b6107f1565b005b610114610cdc565b6040516101219190611cb9565b60405180910390f35b610132610ce2565b005b61014e60048036038101906101499190611d00565b610cf6565b005b610158610d82565b6040516101659190611d3c565b60405180910390f35b61018860048036038101906101839190611c40565b610dab565b005b6101a4600480360381019061019f9190611d57565b611471565b6040516101b5959493929190611e11565b60405180910390f35b6101d860048036038101906101d39190611e64565b611501565b6040516101e59190611cb9565b60405180910390f35b610208600480360381019061020391906120e2565b61155f565b005b610212611739565b60405161021f9190611cb9565b60405180910390f35b610242600480360381019061023d91906121cd565b61173f565b6040516102519392919061221b565b60405180910390f35b610274600480360381019061026f9190612252565b611789565b005b6102953373ffffffffffffffffffffffffffffffffffffffff1661180c565b156102d5576040517f08c379a00000000000000000000000000000000000000000000000000000000081526004016102cc906122dc565b60405180910390fd5b3273ffffffffffffffffffffffffffffffffffffffff163373ffffffffffffffffffffffffffffffffffffffff1614610343576040517f08c379a000000000000000000000000000000000000000000000000000000000815260040161033a90612348565b60405180910390fd5b60008383905011610389576040517f08c379a0000000000000000000000000000000000000000000000000000000008152600401610380906123b4565b60405180910390fd5b600080600090505b84849050811015610798576000600360008573ffffffffffffffffffffffffffffffffffffffff1673ffffffffffffffffffffffffffffffffffffffff16815260200190815260200160002060008787858181106103f2576103f16123d4565b5b9050602002013581526020019081526020016000206040518060a00160405290816000820160009054906101000a900473ffffffffffffffffffffffffffffffffffffffff1673ffffffffffffffffffffffffffffffffffffffff1673ffffffffffffffffffffffffffffffffffffffff16815260200160018201548152602001600282015481526020016003820160009054906101000a900460ff161515151581526020016003820160019054906101000a900473ffffffffffffffffffffffffffffffffffffffff1673ffffffffffffffffffffffffffffffffffffffff1673ffffffffffffffffffffffffffffffffffffffff168152505090503373ffffffffffffffffffffffffffffffffffffffff16816000015173ffffffffffffffffffffffffffffffffffffffff1614610561576040517f08c379a00000000000000000000000000000000000000000000000000000000081526004016105589061244f565b60405180910390fd5b426002548260200151610574919061249e565b106105b4576040517f08c379a00000000000000000000000000000000000000000000000000000000081526004016105ab9061251e565b60405180910390fd5b8060600151156105f9576040517f08c379a00000000000000000000000000000000000000000000000000000000081526004016105f09061258a565b60405180910390fd5b600061061e878785818110610611576106106123d4565b5b905060200201358661182f565b9050600082604001518261063291906125aa565b9050600460008773ffffffffffffffffffffffffffffffffffffffff1673ffffffffffffffffffffffffffffffffffffffff16815260200190815260200160002060000160009054906101000a900473ffffffffffffffffffffffffffffffffffffffff1673ffffffffffffffffffffffffffffffffffffffff166340c10f1933836040518363ffffffff1660e01b81526004016106d19291906125de565b600060405180830381600087803b1580156106eb57600080fd5b505af11580156106ff573d6000803e3d6000fd5b50505050808561070f919061249e565b945081600360008873ffffffffffffffffffffffffffffffffffffffff1673ffffffffffffffffffffffffffffffffffffffff16815260200190815260200160002060008a8a88818110610766576107656123d4565b5b90506020020135815260200190815260200160002060020181905550505050808061079090612607565b915050610391565b503373ffffffffffffffffffffffffffffffffffffffff167f37826be3c26dbad83731f4b985f22fa9ef86b6d1974cd77208332b7f1f283c0c8585846040516107e3939291906126ca565b60405180910390a250505050565b6108103373ffffffffffffffffffffffffffffffffffffffff1661180c565b15610850576040517f08c379a0000000000000000000000000000000000000000000000000000000008152600401610847906122dc565b60405180910390fd5b3273ffffffffffffffffffffffffffffffffffffffff163373ffffffffffffffffffffffffffffffffffffffff16146108be576040517f08c379a00000000000000000000000000000000000000000000000000000000081526004016108b590612348565b60405180910390fd5b600260015403610903576040517f08c379a00000000000000000000000000000000000000000000000000000000081526004016108fa90612748565b60405180910390fd5b600260018190555060008383905011610951576040517f08c379a0000000000000000000000000000000000000000000000000000000008152600401610948906123b4565b60405180910390fd5b60005b83839050811015610c7f573373ffffffffffffffffffffffffffffffffffffffff168273ffffffffffffffffffffffffffffffffffffffff16636352211e8686858181106109a5576109a46123d4565b5b905060200201356040518263ffffffff1660e01b81526004016109c89190611cb9565b602060405180830381865afa1580156109e5573d6000803e3d6000fd5b505050506040513d601f19601f82011682018060405250810190610a09919061277d565b73ffffffffffffffffffffffffffffffffffffffff1614610a5f576040517f08c379a0000000000000000000000000000000000000000000000000000000008152600401610a56906127f6565b60405180910390fd5b8173ffffffffffffffffffffffffffffffffffffffff166323b872dd3330878786818110610a9057610a8f6123d4565b5b905060200201356040518463ffffffff1660e01b8152600401610ab593929190612816565b600060405180830381600087803b158015610acf57600080fd5b505af1158015610ae3573d6000803e3d6000fd5b505050506040518060a001604052803373ffffffffffffffffffffffffffffffffffffffff168152602001428152602001600081526020016000151581526020018373ffffffffffffffffffffffffffffffffffffffff16815250600360008473ffffffffffffffffffffffffffffffffffffffff1673ffffffffffffffffffffffffffffffffffffffff1681526020019081526020016000206000868685818110610b9257610b916123d4565b5b90506020020135815260200190815260200160002060008201518160000160006101000a81548173ffffffffffffffffffffffffffffffffffffffff021916908373ffffffffffffffffffffffffffffffffffffffff160217905550602082015181600101556040820151816002015560608201518160030160006101000a81548160ff02191690831515021790555060808201518160030160016101000a81548173ffffffffffffffffffffffffffffffffffffffff021916908373ffffffffffffffffffffffffffffffffffffffff1602179055509050508080610c7790612607565b915050610954565b503373ffffffffffffffffffffffffffffffffffffffff167f458be0227bccc9e803dec79bd16767eeaf9925d2ce708eeed7ae1f3621f968f98484604051610cc892919061284d565b60405180910390a260018081905550505050565b60025481565b610cea611a0d565b610cf46000611a8b565b565b610cfe611a0d565b60008111610d41576040517f08c379a0000000000000000000000000000000000000000000000000000000008152600401610d38906128bd565b60405180910390fd5b806002819055507f8249ec545e68f6f1e1230133ca48c704d831a7f8e635ded80f3dd9e99b09bb2f81604051610d779190611cb9565b60405180910390a150565b60008060009054906101000a900473ffffffffffffffffffffffffffffffffffffffff16905090565b610dca3373ffffffffffffffffffffffffffffffffffffffff1661180c565b15610e0a576040517f08c379a0000000000000000000000000000000000000000000000000000000008152600401610e01906122dc565b60405180910390fd5b3273ffffffffffffffffffffffffffffffffffffffff163373ffffffffffffffffffffffffffffffffffffffff1614610e78576040517f08c379a0000000000000000000000000000000000000000000000000000000008152600401610e6f90612348565b60405180910390fd5b600260015403610ebd576040517f08c379a0000000000000000000000000000000000000000000000000000000008152600401610eb490612748565b60405180910390fd5b600260018190555060008383905011610f0b576040517f08c379a0000000000000000000000000000000000000000000000000000000008152600401610f02906123b4565b60405180910390fd5b60005b83839050811015611414576000600360008473ffffffffffffffffffffffffffffffffffffffff1673ffffffffffffffffffffffffffffffffffffffff1681526020019081526020016000206000868685818110610f6f57610f6e6123d4565b5b9050602002013581526020019081526020016000206040518060a00160405290816000820160009054906101000a900473ffffffffffffffffffffffffffffffffffffffff1673ffffffffffffffffffffffffffffffffffffffff1673ffffffffffffffffffffffffffffffffffffffff16815260200160018201548152602001600282015481526020016003820160009054906101000a900460ff161515151581526020016003820160019054906101000a900473ffffffffffffffffffffffffffffffffffffffff1673ffffffffffffffffffffffffffffffffffffffff1673ffffffffffffffffffffffffffffffffffffffff168152505090503373ffffffffffffffffffffffffffffffffffffffff16816000015173ffffffffffffffffffffffffffffffffffffffff16146110de576040517f08c379a00000000000000000000000000000000000000000000000000000000081526004016110d59061244f565b60405180910390fd5b4260025482602001516110f1919061249e565b10611131576040517f08c379a000000000000000000000000000000000000000000000000000000000815260040161112890612929565b60405180910390fd5b806060015115611176576040517f08c379a000000000000000000000000000000000000000000000000000000000815260040161116d9061258a565b60405180910390fd5b8273ffffffffffffffffffffffffffffffffffffffff166323b872dd30338888878181106111a7576111a66123d4565b5b905060200201356040518463ffffffff1660e01b81526004016111cc93929190612816565b600060405180830381600087803b1580156111e657600080fd5b505af11580156111fa573d6000803e3d6000fd5b505050506000611223868685818110611216576112156123d4565b5b905060200201358561182f565b9050600082604001518261123791906125aa565b9050600460008673ffffffffffffffffffffffffffffffffffffffff1673ffffffffffffffffffffffffffffffffffffffff16815260200190815260200160002060000160009054906101000a900473ffffffffffffffffffffffffffffffffffffffff1673ffffffffffffffffffffffffffffffffffffffff166340c10f1933836040518363ffffffff1660e01b81526004016112d69291906125de565b600060405180830381600087803b1580156112f057600080fd5b505af1158015611304573d6000803e3d6000fd5b5050505081600360008773ffffffffffffffffffffffffffffffffffffffff1673ffffffffffffffffffffffffffffffffffffffff168152602001908152602001600020600089898881811061135d5761135c6123d4565b5b905060200201358152602001908152602001600020600201819055506001600360008773ffffffffffffffffffffffffffffffffffffffff1673ffffffffffffffffffffffffffffffffffffffff16815260200190815260200160002060008989888181106113cf576113ce6123d4565b5b90506020020135815260200190815260200160002060030160006101000a81548160ff021916908315150217905550505050808061140c90612607565b915050610f0e565b503373ffffffffffffffffffffffffffffffffffffffff167f5cb48022479b9ac3bfb10a27965dc010acffc9fc1bc9a52f0b18975b944b54ca848460405161145d92919061284d565b60405180910390a260018081905550505050565b6003602052816000526040600020602052806000526040600020600091509150508060000160009054906101000a900473ffffffffffffffffffffffffffffffffffffffff16908060010154908060020154908060030160009054906101000a900460ff16908060030160019054906101000a900473ffffffffffffffffffffffffffffffffffffffff16905085565b6000600360008373ffffffffffffffffffffffffffffffffffffffff1673ffffffffffffffffffffffffffffffffffffffff168152602001908152602001600020600084815260200190815260200160002060020154905092915050565b611567611a0d565b60005b855181101561173157848181518110611586576115856123d4565b5b6020026020010151600460008884815181106115a5576115a46123d4565b5b602002602001015173ffffffffffffffffffffffffffffffffffffffff1673ffffffffffffffffffffffffffffffffffffffff16815260200190815260200160002060000160006101000a81548173ffffffffffffffffffffffffffffffffffffffff021916908373ffffffffffffffffffffffffffffffffffffffff16021790555083818151811061163b5761163a6123d4565b5b60200260200101516004600088848151811061165a576116596123d4565b5b602002602001015173ffffffffffffffffffffffffffffffffffffffff1673ffffffffffffffffffffffffffffffffffffffff168152602001908152602001600020600101819055508281815181106116b6576116b56123d4565b5b6020026020010151600460008884815181106116d5576116d46123d4565b5b602002602001015173ffffffffffffffffffffffffffffffffffffffff1673ffffffffffffffffffffffffffffffffffffffff16815260200190815260200160002060020181905550808061172990612607565b91505061156a565b505050505050565b60055481565b60046020528060005260406000206000915090508060000160009054906101000a900473ffffffffffffffffffffffffffffffffffffffff16908060010154908060020154905083565b611791611a0d565b600073ffffffffffffffffffffffffffffffffffffffff168173ffffffffffffffffffffffffffffffffffffffff1603611800576040517f08c379a00000000000000000000000000000000000000000000000000000000081526004016117f7906129bb565b60405180910390fd5b61180981611a8b565b50565b6000808273ffffffffffffffffffffffffffffffffffffffff163b119050919050565b600080600360008473ffffffffffffffffffffffffffffffffffffffff1673ffffffffffffffffffffffffffffffffffffffff16815260200190815260200160002060008581526020019081526020016000206040518060a00160405290816000820160009054906101000a900473ffffffffffffffffffffffffffffffffffffffff1673ffffffffffffffffffffffffffffffffffffffff1673ffffffffffffffffffffffffffffffffffffffff16815260200160018201548152602001600282015481526020016003820160009054906101000a900460ff161515151581526020016003820160019054906101000a900473ffffffffffffffffffffffffffffffffffffffff1673ffffffffffffffffffffffffffffffffffffffff1673ffffffffffffffffffffffffffffffffffffffff16815250509050600081602001514261197c91906125aa565b905060006002548210156119965760009350505050611a07565b600554600254836119a791906125aa565b600460008873ffffffffffffffffffffffffffffffffffffffff1673ffffffffffffffffffffffffffffffffffffffff168152602001908152602001600020600101546119f491906129db565b6119fe9190612a64565b90508093505050505b92915050565b611a15611b4f565b73ffffffffffffffffffffffffffffffffffffffff16611a33610d82565b73ffffffffffffffffffffffffffffffffffffffff1614611a89576040517f08c379a0000000000000000000000000000000000000000000000000000000008152600401611a8090612ae1565b60405180910390fd5b565b60008060009054906101000a900473ffffffffffffffffffffffffffffffffffffffff169050816000806101000a81548173ffffffffffffffffffffffffffffffffffffffff021916908373ffffffffffffffffffffffffffffffffffffffff1602179055508173ffffffffffffffffffffffffffffffffffffffff168173ffffffffffffffffffffffffffffffffffffffff167f8be0079c531659141344cd1fd0a4f28419497f9722a3daafe3b4186f6b6457e060405160405180910390a35050565b600033905090565b6000604051905090565b600080fd5b600080fd5b600080fd5b600080fd5b600080fd5b60008083601f840112611b9057611b8f611b6b565b5b8235905067ffffffffffffffff811115611bad57611bac611b70565b5b602083019150836020820283011115611bc957611bc8611b75565b5b9250929050565b600073ffffffffffffffffffffffffffffffffffffffff82169050919050565b6000611bfb82611bd0565b9050919050565b6000611c0d82611bf0565b9050919050565b611c1d81611c02565b8114611c2857600080fd5b50565b600081359050611c3a81611c14565b92915050565b600080600060408486031215611c5957611c58611b61565b5b600084013567ffffffffffffffff811115611c7757611c76611b66565b5b611c8386828701611b7a565b93509350506020611c9686828701611c2b565b9150509250925092565b6000819050919050565b611cb381611ca0565b82525050565b6000602082019050611cce6000830184611caa565b92915050565b611cdd81611ca0565b8114611ce857600080fd5b50565b600081359050611cfa81611cd4565b92915050565b600060208284031215611d1657611d15611b61565b5b6000611d2484828501611ceb565b91505092915050565b611d3681611bf0565b82525050565b6000602082019050611d516000830184611d2d565b92915050565b60008060408385031215611d6e57611d6d611b61565b5b6000611d7c85828601611c2b565b9250506020611d8d85828601611ceb565b9150509250929050565b60008115159050919050565b611dac81611d97565b82525050565b6000819050919050565b6000611dd7611dd2611dcd84611bd0565b611db2565b611bd0565b9050919050565b6000611de982611dbc565b9050919050565b6000611dfb82611dde565b9050919050565b611e0b81611df0565b82525050565b600060a082019050611e266000830188611d2d565b611e336020830187611caa565b611e406040830186611caa565b611e4d6060830185611da3565b611e5a6080830184611e02565b9695505050505050565b60008060408385031215611e7b57611e7a611b61565b5b6000611e8985828601611ceb565b9250506020611e9a85828601611c2b565b9150509250929050565b6000601f19601f8301169050919050565b7f4e487b7100000000000000000000000000000000000000000000000000000000600052604160045260246000fd5b611eed82611ea4565b810181811067ffffffffffffffff82111715611f0c57611f0b611eb5565b5b80604052505050565b6000611f1f611b57565b9050611f2b8282611ee4565b919050565b600067ffffffffffffffff821115611f4b57611f4a611eb5565b5b602082029050602081019050919050565b611f6581611bf0565b8114611f7057600080fd5b50565b600081359050611f8281611f5c565b92915050565b6000611f9b611f9684611f30565b611f15565b90508083825260208201905060208402830185811115611fbe57611fbd611b75565b5b835b81811015611fe75780611fd38882611f73565b845260208401935050602081019050611fc0565b5050509392505050565b600082601f83011261200657612005611b6b565b5b8135612016848260208601611f88565b91505092915050565b600067ffffffffffffffff82111561203a57612039611eb5565b5b602082029050602081019050919050565b600061205e6120598461201f565b611f15565b9050808382526020820190506020840283018581111561208157612080611b75565b5b835b818110156120aa57806120968882611ceb565b845260208401935050602081019050612083565b5050509392505050565b600082601f8301126120c9576120c8611b6b565b5b81356120d984826020860161204b565b91505092915050565b600080600080600060a086880312156120fe576120fd611b61565b5b600086013567ffffffffffffffff81111561211c5761211b611b66565b5b61212888828901611ff1565b955050602086013567ffffffffffffffff81111561214957612148611b66565b5b61215588828901611ff1565b945050604086013567ffffffffffffffff81111561217657612175611b66565b5b612182888289016120b4565b935050606086013567ffffffffffffffff8111156121a3576121a2611b66565b5b6121af888289016120b4565b92505060806121c088828901611ceb565b9150509295509295909350565b6000602082840312156121e3576121e2611b61565b5b60006121f184828501611c2b565b91505092915050565b600061220582611dde565b9050919050565b612215816121fa565b82525050565b6000606082019050612230600083018661220c565b61223d6020830185611caa565b61224a6040830184611caa565b949350505050565b60006020828403121561226857612267611b61565b5b600061227684828501611f73565b91505092915050565b600082825260208201905092915050565b7f436f6e7472616374206e6f7420616c6c6f776564000000000000000000000000600082015250565b60006122c660148361227f565b91506122d182612290565b602082019050919050565b600060208201905081810360008301526122f5816122b9565b9050919050565b7f50726f787920636f6e7472616374206e6f7420616c6c6f776564000000000000600082015250565b6000612332601a8361227f565b915061233d826122fc565b602082019050919050565b6000602082019050818103600083015261236181612325565b9050919050565b7f4e6f20746f6b656e730000000000000000000000000000000000000000000000600082015250565b600061239e60098361227f565b91506123a982612368565b602082019050919050565b600060208201905081810360008301526123cd81612391565b9050919050565b7f4e487b7100000000000000000000000000000000000000000000000000000000600052603260045260246000fd5b7f4e6f74206120746f6b656e206f776e6572000000000000000000000000000000600082015250565b600061243960118361227f565b915061244482612403565b602082019050919050565b600060208201905081810360008301526124688161242c565b9050919050565b7f4e487b7100000000000000000000000000000000000000000000000000000000600052601160045260246000fd5b60006124a982611ca0565b91506124b483611ca0565b92508282019050808211156124cc576124cb61246f565b5b92915050565b7f4e6f742061626c6520746f20636c61696d207965740000000000000000000000600082015250565b600061250860158361227f565b9150612513826124d2565b602082019050919050565b60006020820190508181036000830152612537816124fb565b9050919050565b7f416c726561647920756e6c6f636b656400000000000000000000000000000000600082015250565b600061257460108361227f565b915061257f8261253e565b602082019050919050565b600060208201905081810360008301526125a381612567565b9050919050565b60006125b582611ca0565b91506125c083611ca0565b92508282039050818111156125d8576125d761246f565b5b92915050565b60006040820190506125f36000830185611d2d565b6126006020830184611caa565b9392505050565b600061261282611ca0565b91507fffffffffffffffffffffffffffffffffffffffffffffffffffffffffffffffff82036126445761264361246f565b5b600182019050919050565b600082825260208201905092915050565b600080fd5b82818337505050565b600061267a838561264f565b93507f07ffffffffffffffffffffffffffffffffffffffffffffffffffffffffffffff8311156126ad576126ac612660565b5b6020830292506126be838584612665565b82840190509392505050565b600060408201905081810360008301526126e581858761266e565b90506126f46020830184611caa565b949350505050565b7f5265656e7472616e637947756172643a207265656e7472616e742063616c6c00600082015250565b6000612732601f8361227f565b915061273d826126fc565b602082019050919050565b6000602082019050818103600083015261276181612725565b9050919050565b60008151905061277781611f5c565b92915050565b60006020828403121561279357612792611b61565b5b60006127a184828501612768565b91505092915050565b7f596f7520646f6e277420686f6c64207468697320746f6b656e00000000000000600082015250565b60006127e060198361227f565b91506127eb826127aa565b602082019050919050565b6000602082019050818103600083015261280f816127d3565b9050919050565b600060608201905061282b6000830186611d2d565b6128386020830185611d2d565b6128456040830184611caa565b949350505050565b6000602082019050818103600083015261286881848661266e565b90509392505050565b7f496e76616c6964206c6f636b20706572696f642e000000000000000000000000600082015250565b60006128a760148361227f565b91506128b282612871565b602082019050919050565b600060208201905081810360008301526128d68161289a565b9050919050565b7f4e6f742061626c6520746f20756e6c6f636b2079657400000000000000000000600082015250565b600061291360168361227f565b915061291e826128dd565b602082019050919050565b6000602082019050818103600083015261294281612906565b9050919050565b7f4f776e61626c653a206e6577206f776e657220697320746865207a65726f206160008201527f6464726573730000000000000000000000000000000000000000000000000000602082015250565b60006129a560268361227f565b91506129b082612949565b604082019050919050565b600060208201905081810360008301526129d481612998565b9050919050565b60006129e682611ca0565b91506129f183611ca0565b9250817fffffffffffffffffffffffffffffffffffffffffffffffffffffffffffffffff0483118215151615612a2a57612a2961246f565b5b828202905092915050565b7f4e487b7100000000000000000000000000000000000000000000000000000000600052601260045260246000fd5b6000612a6f82611ca0565b9150612a7a83611ca0565b925082612a8a57612a89612a35565b5b828204905092915050565b7f4f776e61626c653a2063616c6c6572206973206e6f7420746865206f776e6572600082015250565b6000612acb60208361227f565b9150612ad682612a95565b602082019050919050565b60006020820190508181036000830152612afa81612abe565b905091905056fea26469706673582212203fd6d091960a53d09c0963e90a9151ec0e06c226d033e1a91530a4ae76f4bccd64736f6c63430008100033",
					"opcodes": "PUSH1 0x80 PUSH1 0x40 MSTORE CALLVALUE DUP1 ISZERO PUSH3 0x11 JUMPI PUSH1 0x0 DUP1 REVERT JUMPDEST POP PUSH1 0x40 MLOAD PUSH3 0x33F7 CODESIZE SUB DUP1 PUSH3 0x33F7 DUP4 CODECOPY DUP2 DUP2 ADD PUSH1 0x40 MSTORE DUP2 ADD SWAP1 PUSH3 0x37 SWAP2 SWAP1 PUSH3 0x66A JUMP JUMPDEST PUSH3 0x57 PUSH3 0x4B PUSH3 0x29F PUSH1 0x20 SHL PUSH1 0x20 SHR JUMP JUMPDEST PUSH3 0x2A7 PUSH1 0x20 SHL PUSH1 0x20 SHR JUMP JUMPDEST PUSH1 0x1 DUP1 DUP2 SWAP1 SSTORE POP PUSH1 0x0 DUP5 GT PUSH3 0xA4 JUMPI PUSH1 0x40 MLOAD PUSH32 0x8C379A000000000000000000000000000000000000000000000000000000000 DUP2 MSTORE PUSH1 0x4 ADD PUSH3 0x9B SWAP1 PUSH3 0x7E3 JUMP JUMPDEST PUSH1 0x40 MLOAD DUP1 SWAP2 SUB SWAP1 REVERT JUMPDEST PUSH1 0x0 JUMPDEST DUP7 MLOAD DUP2 LT ISZERO PUSH3 0x284 JUMPI DUP6 DUP2 DUP2 MLOAD DUP2 LT PUSH3 0xC7 JUMPI PUSH3 0xC6 PUSH3 0x805 JUMP JUMPDEST JUMPDEST PUSH1 0x20 MUL PUSH1 0x20 ADD ADD MLOAD PUSH1 0x4 PUSH1 0x0 DUP10 DUP5 DUP2 MLOAD DUP2 LT PUSH3 0xE9 JUMPI PUSH3 0xE8 PUSH3 0x805 JUMP JUMPDEST JUMPDEST PUSH1 0x20 MUL PUSH1 0x20 ADD ADD MLOAD PUSH20 0xFFFFFFFFFFFFFFFFFFFFFFFFFFFFFFFFFFFFFFFF AND PUSH20 0xFFFFFFFFFFFFFFFFFFFFFFFFFFFFFFFFFFFFFFFF AND DUP2 MSTORE PUSH1 0x20 ADD SWAP1 DUP2 MSTORE PUSH1 0x20 ADD PUSH1 0x0 KECCAK256 PUSH1 0x0 ADD PUSH1 0x0 PUSH2 0x100 EXP DUP2 SLOAD DUP2 PUSH20 0xFFFFFFFFFFFFFFFFFFFFFFFFFFFFFFFFFFFFFFFF MUL NOT AND SWAP1 DUP4 PUSH20 0xFFFFFFFFFFFFFFFFFFFFFFFFFFFFFFFFFFFFFFFF AND MUL OR SWAP1 SSTORE POP DUP4 DUP2 DUP2 MLOAD DUP2 LT PUSH3 0x182 JUMPI PUSH3 0x181 PUSH3 0x805 JUMP JUMPDEST JUMPDEST PUSH1 0x20 MUL PUSH1 0x20 ADD ADD MLOAD PUSH1 0x4 PUSH1 0x0 DUP10 DUP5 DUP2 MLOAD DUP2 LT PUSH3 0x1A4 JUMPI PUSH3 0x1A3 PUSH3 0x805 JUMP JUMPDEST JUMPDEST PUSH1 0x20 MUL PUSH1 0x20 ADD ADD MLOAD PUSH20 0xFFFFFFFFFFFFFFFFFFFFFFFFFFFFFFFFFFFFFFFF AND PUSH20 0xFFFFFFFFFFFFFFFFFFFFFFFFFFFFFFFFFFFFFFFF AND DUP2 MSTORE PUSH1 0x20 ADD SWAP1 DUP2 MSTORE PUSH1 0x20 ADD PUSH1 0x0 KECCAK256 PUSH1 0x1 ADD DUP2 SWAP1 SSTORE POP DUP3 DUP2 DUP2 MLOAD DUP2 LT PUSH3 0x203 JUMPI PUSH3 0x202 PUSH3 0x805 JUMP JUMPDEST JUMPDEST PUSH1 0x20 MUL PUSH1 0x20 ADD ADD MLOAD PUSH1 0x4 PUSH1 0x0 DUP10 DUP5 DUP2 MLOAD DUP2 LT PUSH3 0x225 JUMPI PUSH3 0x224 PUSH3 0x805 JUMP JUMPDEST JUMPDEST PUSH1 0x20 MUL PUSH1 0x20 ADD ADD MLOAD PUSH20 0xFFFFFFFFFFFFFFFFFFFFFFFFFFFFFFFFFFFFFFFF AND PUSH20 0xFFFFFFFFFFFFFFFFFFFFFFFFFFFFFFFFFFFFFFFF AND DUP2 MSTORE PUSH1 0x20 ADD SWAP1 DUP2 MSTORE PUSH1 0x20 ADD PUSH1 0x0 KECCAK256 PUSH1 0x2 ADD DUP2 SWAP1 SSTORE POP DUP1 DUP1 PUSH3 0x27B SWAP1 PUSH3 0x863 JUMP JUMPDEST SWAP2 POP POP PUSH3 0xA7 JUMP JUMPDEST POP DUP4 PUSH1 0x2 DUP2 SWAP1 SSTORE POP DUP1 PUSH1 0x5 DUP2 SWAP1 SSTORE POP POP POP POP POP POP POP PUSH3 0x8B0 JUMP JUMPDEST PUSH1 0x0 CALLER SWAP1 POP SWAP1 JUMP JUMPDEST PUSH1 0x0 DUP1 PUSH1 0x0 SWAP1 SLOAD SWAP1 PUSH2 0x100 EXP SWAP1 DIV PUSH20 0xFFFFFFFFFFFFFFFFFFFFFFFFFFFFFFFFFFFFFFFF AND SWAP1 POP DUP2 PUSH1 0x0 DUP1 PUSH2 0x100 EXP DUP2 SLOAD DUP2 PUSH20 0xFFFFFFFFFFFFFFFFFFFFFFFFFFFFFFFFFFFFFFFF MUL NOT AND SWAP1 DUP4 PUSH20 0xFFFFFFFFFFFFFFFFFFFFFFFFFFFFFFFFFFFFFFFF AND MUL OR SWAP1 SSTORE POP DUP2 PUSH20 0xFFFFFFFFFFFFFFFFFFFFFFFFFFFFFFFFFFFFFFFF AND DUP2 PUSH20 0xFFFFFFFFFFFFFFFFFFFFFFFFFFFFFFFFFFFFFFFF AND PUSH32 0x8BE0079C531659141344CD1FD0A4F28419497F9722A3DAAFE3B4186F6B6457E0 PUSH1 0x40 MLOAD PUSH1 0x40 MLOAD DUP1 SWAP2 SUB SWAP1 LOG3 POP POP JUMP JUMPDEST PUSH1 0x0 PUSH1 0x40 MLOAD SWAP1 POP SWAP1 JUMP JUMPDEST PUSH1 0x0 DUP1 REVERT JUMPDEST PUSH1 0x0 DUP1 REVERT JUMPDEST PUSH1 0x0 DUP1 REVERT JUMPDEST PUSH1 0x0 PUSH1 0x1F NOT PUSH1 0x1F DUP4 ADD AND SWAP1 POP SWAP2 SWAP1 POP JUMP JUMPDEST PUSH32 0x4E487B7100000000000000000000000000000000000000000000000000000000 PUSH1 0x0 MSTORE PUSH1 0x41 PUSH1 0x4 MSTORE PUSH1 0x24 PUSH1 0x0 REVERT JUMPDEST PUSH3 0x3CF DUP3 PUSH3 0x384 JUMP JUMPDEST DUP2 ADD DUP2 DUP2 LT PUSH8 0xFFFFFFFFFFFFFFFF DUP3 GT OR ISZERO PUSH3 0x3F1 JUMPI PUSH3 0x3F0 PUSH3 0x395 JUMP JUMPDEST JUMPDEST DUP1 PUSH1 0x40 MSTORE POP POP POP JUMP JUMPDEST PUSH1 0x0 PUSH3 0x406 PUSH3 0x36B JUMP JUMPDEST SWAP1 POP PUSH3 0x414 DUP3 DUP3 PUSH3 0x3C4 JUMP JUMPDEST SWAP2 SWAP1 POP JUMP JUMPDEST PUSH1 0x0 PUSH8 0xFFFFFFFFFFFFFFFF DUP3 GT ISZERO PUSH3 0x437 JUMPI PUSH3 0x436 PUSH3 0x395 JUMP JUMPDEST JUMPDEST PUSH1 0x20 DUP3 MUL SWAP1 POP PUSH1 0x20 DUP2 ADD SWAP1 POP SWAP2 SWAP1 POP JUMP JUMPDEST PUSH1 0x0 DUP1 REVERT JUMPDEST PUSH1 0x0 PUSH20 0xFFFFFFFFFFFFFFFFFFFFFFFFFFFFFFFFFFFFFFFF DUP3 AND SWAP1 POP SWAP2 SWAP1 POP JUMP JUMPDEST PUSH1 0x0 PUSH3 0x47A DUP3 PUSH3 0x44D JUMP JUMPDEST SWAP1 POP SWAP2 SWAP1 POP JUMP JUMPDEST PUSH3 0x48C DUP2 PUSH3 0x46D JUMP JUMPDEST DUP2 EQ PUSH3 0x498 JUMPI PUSH1 0x0 DUP1 REVERT JUMPDEST POP JUMP JUMPDEST PUSH1 0x0 DUP2 MLOAD SWAP1 POP PUSH3 0x4AC DUP2 PUSH3 0x481 JUMP JUMPDEST SWAP3 SWAP2 POP POP JUMP JUMPDEST PUSH1 0x0 PUSH3 0x4C9 PUSH3 0x4C3 DUP5 PUSH3 0x419 JUMP JUMPDEST PUSH3 0x3FA JUMP JUMPDEST SWAP1 POP DUP1 DUP4 DUP3 MSTORE PUSH1 0x20 DUP3 ADD SWAP1 POP PUSH1 0x20 DUP5 MUL DUP4 ADD DUP6 DUP2 GT ISZERO PUSH3 0x4EF JUMPI PUSH3 0x4EE PUSH3 0x448 JUMP JUMPDEST JUMPDEST DUP4 JUMPDEST DUP2 DUP2 LT ISZERO PUSH3 0x51C JUMPI DUP1 PUSH3 0x507 DUP9 DUP3 PUSH3 0x49B JUMP JUMPDEST DUP5 MSTORE PUSH1 0x20 DUP5 ADD SWAP4 POP POP PUSH1 0x20 DUP2 ADD SWAP1 POP PUSH3 0x4F1 JUMP JUMPDEST POP POP POP SWAP4 SWAP3 POP POP POP JUMP JUMPDEST PUSH1 0x0 DUP3 PUSH1 0x1F DUP4 ADD SLT PUSH3 0x53E JUMPI PUSH3 0x53D PUSH3 0x37F JUMP JUMPDEST JUMPDEST DUP2 MLOAD PUSH3 0x550 DUP5 DUP3 PUSH1 0x20 DUP7 ADD PUSH3 0x4B2 JUMP JUMPDEST SWAP2 POP POP SWAP3 SWAP2 POP POP JUMP JUMPDEST PUSH1 0x0 DUP2 SWAP1 POP SWAP2 SWAP1 POP JUMP JUMPDEST PUSH3 0x56E DUP2 PUSH3 0x559 JUMP JUMPDEST DUP2 EQ PUSH3 0x57A JUMPI PUSH1 0x0 DUP1 REVERT JUMPDEST POP JUMP JUMPDEST PUSH1 0x0 DUP2 MLOAD SWAP1 POP PUSH3 0x58E DUP2 PUSH3 0x563 JUMP JUMPDEST SWAP3 SWAP2 POP POP JUMP JUMPDEST PUSH1 0x0 PUSH8 0xFFFFFFFFFFFFFFFF DUP3 GT ISZERO PUSH3 0x5B2 JUMPI PUSH3 0x5B1 PUSH3 0x395 JUMP JUMPDEST JUMPDEST PUSH1 0x20 DUP3 MUL SWAP1 POP PUSH1 0x20 DUP2 ADD SWAP1 POP SWAP2 SWAP1 POP JUMP JUMPDEST PUSH1 0x0 PUSH3 0x5DA PUSH3 0x5D4 DUP5 PUSH3 0x594 JUMP JUMPDEST PUSH3 0x3FA JUMP JUMPDEST SWAP1 POP DUP1 DUP4 DUP3 MSTORE PUSH1 0x20 DUP3 ADD SWAP1 POP PUSH1 0x20 DUP5 MUL DUP4 ADD DUP6 DUP2 GT ISZERO PUSH3 0x600 JUMPI PUSH3 0x5FF PUSH3 0x448 JUMP JUMPDEST JUMPDEST DUP4 JUMPDEST DUP2 DUP2 LT ISZERO PUSH3 0x62D JUMPI DUP1 PUSH3 0x618 DUP9 DUP3 PUSH3 0x57D JUMP JUMPDEST DUP5 MSTORE PUSH1 0x20 DUP5 ADD SWAP4 POP POP PUSH1 0x20 DUP2 ADD SWAP1 POP PUSH3 0x602 JUMP JUMPDEST POP POP POP SWAP4 SWAP3 POP POP POP JUMP JUMPDEST PUSH1 0x0 DUP3 PUSH1 0x1F DUP4 ADD SLT PUSH3 0x64F JUMPI PUSH3 0x64E PUSH3 0x37F JUMP JUMPDEST JUMPDEST DUP2 MLOAD PUSH3 0x661 DUP5 DUP3 PUSH1 0x20 DUP7 ADD PUSH3 0x5C3 JUMP JUMPDEST SWAP2 POP POP SWAP3 SWAP2 POP POP JUMP JUMPDEST PUSH1 0x0 DUP1 PUSH1 0x0 DUP1 PUSH1 0x0 DUP1 PUSH1 0xC0 DUP8 DUP10 SUB SLT ISZERO PUSH3 0x68A JUMPI PUSH3 0x689 PUSH3 0x375 JUMP JUMPDEST JUMPDEST PUSH1 0x0 DUP8 ADD MLOAD PUSH8 0xFFFFFFFFFFFFFFFF DUP2 GT ISZERO PUSH3 0x6AB JUMPI PUSH3 0x6AA PUSH3 0x37A JUMP JUMPDEST JUMPDEST PUSH3 0x6B9 DUP10 DUP3 DUP11 ADD PUSH3 0x526 JUMP JUMPDEST SWAP7 POP POP PUSH1 0x20 DUP8 ADD MLOAD PUSH8 0xFFFFFFFFFFFFFFFF DUP2 GT ISZERO PUSH3 0x6DD JUMPI PUSH3 0x6DC PUSH3 0x37A JUMP JUMPDEST JUMPDEST PUSH3 0x6EB DUP10 DUP3 DUP11 ADD PUSH3 0x526 JUMP JUMPDEST SWAP6 POP POP PUSH1 0x40 PUSH3 0x6FE DUP10 DUP3 DUP11 ADD PUSH3 0x57D JUMP JUMPDEST SWAP5 POP POP PUSH1 0x60 DUP8 ADD MLOAD PUSH8 0xFFFFFFFFFFFFFFFF DUP2 GT ISZERO PUSH3 0x722 JUMPI PUSH3 0x721 PUSH3 0x37A JUMP JUMPDEST JUMPDEST PUSH3 0x730 DUP10 DUP3 DUP11 ADD PUSH3 0x637 JUMP JUMPDEST SWAP4 POP POP PUSH1 0x80 DUP8 ADD MLOAD PUSH8 0xFFFFFFFFFFFFFFFF DUP2 GT ISZERO PUSH3 0x754 JUMPI PUSH3 0x753 PUSH3 0x37A JUMP JUMPDEST JUMPDEST PUSH3 0x762 DUP10 DUP3 DUP11 ADD PUSH3 0x637 JUMP JUMPDEST SWAP3 POP POP PUSH1 0xA0 PUSH3 0x775 DUP10 DUP3 DUP11 ADD PUSH3 0x57D JUMP JUMPDEST SWAP2 POP POP SWAP3 SWAP6 POP SWAP3 SWAP6 POP SWAP3 SWAP6 JUMP JUMPDEST PUSH1 0x0 DUP3 DUP3 MSTORE PUSH1 0x20 DUP3 ADD SWAP1 POP SWAP3 SWAP2 POP POP JUMP JUMPDEST PUSH32 0x496E76616C6964206C6F636B20706572696F6400000000000000000000000000 PUSH1 0x0 DUP3 ADD MSTORE POP JUMP JUMPDEST PUSH1 0x0 PUSH3 0x7CB PUSH1 0x13 DUP4 PUSH3 0x782 JUMP JUMPDEST SWAP2 POP PUSH3 0x7D8 DUP3 PUSH3 0x793 JUMP JUMPDEST PUSH1 0x20 DUP3 ADD SWAP1 POP SWAP2 SWAP1 POP JUMP JUMPDEST PUSH1 0x0 PUSH1 0x20 DUP3 ADD SWAP1 POP DUP2 DUP2 SUB PUSH1 0x0 DUP4 ADD MSTORE PUSH3 0x7FE DUP2 PUSH3 0x7BC JUMP JUMPDEST SWAP1 POP SWAP2 SWAP1 POP JUMP JUMPDEST PUSH32 0x4E487B7100000000000000000000000000000000000000000000000000000000 PUSH1 0x0 MSTORE PUSH1 0x32 PUSH1 0x4 MSTORE PUSH1 0x24 PUSH1 0x0 REVERT JUMPDEST PUSH32 0x4E487B7100000000000000000000000000000000000000000000000000000000 PUSH1 0x0 MSTORE PUSH1 0x11 PUSH1 0x4 MSTORE PUSH1 0x24 PUSH1 0x0 REVERT JUMPDEST PUSH1 0x0 PUSH3 0x870 DUP3 PUSH3 0x559 JUMP JUMPDEST SWAP2 POP PUSH32 0xFFFFFFFFFFFFFFFFFFFFFFFFFFFFFFFFFFFFFFFFFFFFFFFFFFFFFFFFFFFFFFFF DUP3 SUB PUSH3 0x8A5 JUMPI PUSH3 0x8A4 PUSH3 0x834 JUMP JUMPDEST JUMPDEST PUSH1 0x1 DUP3 ADD SWAP1 POP SWAP2 SWAP1 POP JUMP JUMPDEST PUSH2 0x2B37 DUP1 PUSH3 0x8C0 PUSH1 0x0 CODECOPY PUSH1 0x0 RETURN INVALID PUSH1 0x80 PUSH1 0x40 MSTORE CALLVALUE DUP1 ISZERO PUSH2 0x10 JUMPI PUSH1 0x0 DUP1 REVERT JUMPDEST POP PUSH1 0x4 CALLDATASIZE LT PUSH2 0xCF JUMPI PUSH1 0x0 CALLDATALOAD PUSH1 0xE0 SHR DUP1 PUSH4 0x9F3625F0 GT PUSH2 0x8C JUMPI DUP1 PUSH4 0xC35E750F GT PUSH2 0x66 JUMPI DUP1 PUSH4 0xC35E750F EQ PUSH2 0x1EE JUMPI DUP1 PUSH4 0xC69D1923 EQ PUSH2 0x20A JUMPI DUP1 PUSH4 0xE9545B92 EQ PUSH2 0x228 JUMPI DUP1 PUSH4 0xF2FDE38B EQ PUSH2 0x25A JUMPI PUSH2 0xCF JUMP JUMPDEST DUP1 PUSH4 0x9F3625F0 EQ PUSH2 0x16E JUMPI DUP1 PUSH4 0xB2520A7C EQ PUSH2 0x18A JUMPI DUP1 PUSH4 0xB33068C4 EQ PUSH2 0x1BE JUMPI PUSH2 0xCF JUMP JUMPDEST DUP1 PUSH4 0x520537F EQ PUSH2 0xD4 JUMPI DUP1 PUSH4 0x1902732E EQ PUSH2 0xF0 JUMPI DUP1 PUSH4 0x3FD8B02F EQ PUSH2 0x10C JUMPI DUP1 PUSH4 0x715018A6 EQ PUSH2 0x12A JUMPI DUP1 PUSH4 0x779972DA EQ PUSH2 0x134 JUMPI DUP1 PUSH4 0x8DA5CB5B EQ PUSH2 0x150 JUMPI JUMPDEST PUSH1 0x0 DUP1 REVERT JUMPDEST PUSH2 0xEE PUSH1 0x4 DUP1 CALLDATASIZE SUB DUP2 ADD SWAP1 PUSH2 0xE9 SWAP2 SWAP1 PUSH2 0x1C40 JUMP JUMPDEST PUSH2 0x276 JUMP JUMPDEST STOP JUMPDEST PUSH2 0x10A PUSH1 0x4 DUP1 CALLDATASIZE SUB DUP2 ADD SWAP1 PUSH2 0x105 SWAP2 SWAP1 PUSH2 0x1C40 JUMP JUMPDEST PUSH2 0x7F1 JUMP JUMPDEST STOP JUMPDEST PUSH2 0x114 PUSH2 0xCDC JUMP JUMPDEST PUSH1 0x40 MLOAD PUSH2 0x121 SWAP2 SWAP1 PUSH2 0x1CB9 JUMP JUMPDEST PUSH1 0x40 MLOAD DUP1 SWAP2 SUB SWAP1 RETURN JUMPDEST PUSH2 0x132 PUSH2 0xCE2 JUMP JUMPDEST STOP JUMPDEST PUSH2 0x14E PUSH1 0x4 DUP1 CALLDATASIZE SUB DUP2 ADD SWAP1 PUSH2 0x149 SWAP2 SWAP1 PUSH2 0x1D00 JUMP JUMPDEST PUSH2 0xCF6 JUMP JUMPDEST STOP JUMPDEST PUSH2 0x158 PUSH2 0xD82 JUMP JUMPDEST PUSH1 0x40 MLOAD PUSH2 0x165 SWAP2 SWAP1 PUSH2 0x1D3C JUMP JUMPDEST PUSH1 0x40 MLOAD DUP1 SWAP2 SUB SWAP1 RETURN JUMPDEST PUSH2 0x188 PUSH1 0x4 DUP1 CALLDATASIZE SUB DUP2 ADD SWAP1 PUSH2 0x183 SWAP2 SWAP1 PUSH2 0x1C40 JUMP JUMPDEST PUSH2 0xDAB JUMP JUMPDEST STOP JUMPDEST PUSH2 0x1A4 PUSH1 0x4 DUP1 CALLDATASIZE SUB DUP2 ADD SWAP1 PUSH2 0x19F SWAP2 SWAP1 PUSH2 0x1D57 JUMP JUMPDEST PUSH2 0x1471 JUMP JUMPDEST PUSH1 0x40 MLOAD PUSH2 0x1B5 SWAP6 SWAP5 SWAP4 SWAP3 SWAP2 SWAP1 PUSH2 0x1E11 JUMP JUMPDEST PUSH1 0x40 MLOAD DUP1 SWAP2 SUB SWAP1 RETURN JUMPDEST PUSH2 0x1D8 PUSH1 0x4 DUP1 CALLDATASIZE SUB DUP2 ADD SWAP1 PUSH2 0x1D3 SWAP2 SWAP1 PUSH2 0x1E64 JUMP JUMPDEST PUSH2 0x1501 JUMP JUMPDEST PUSH1 0x40 MLOAD PUSH2 0x1E5 SWAP2 SWAP1 PUSH2 0x1CB9 JUMP JUMPDEST PUSH1 0x40 MLOAD DUP1 SWAP2 SUB SWAP1 RETURN JUMPDEST PUSH2 0x208 PUSH1 0x4 DUP1 CALLDATASIZE SUB DUP2 ADD SWAP1 PUSH2 0x203 SWAP2 SWAP1 PUSH2 0x20E2 JUMP JUMPDEST PUSH2 0x155F JUMP JUMPDEST STOP JUMPDEST PUSH2 0x212 PUSH2 0x1739 JUMP JUMPDEST PUSH1 0x40 MLOAD PUSH2 0x21F SWAP2 SWAP1 PUSH2 0x1CB9 JUMP JUMPDEST PUSH1 0x40 MLOAD DUP1 SWAP2 SUB SWAP1 RETURN JUMPDEST PUSH2 0x242 PUSH1 0x4 DUP1 CALLDATASIZE SUB DUP2 ADD SWAP1 PUSH2 0x23D SWAP2 SWAP1 PUSH2 0x21CD JUMP JUMPDEST PUSH2 0x173F JUMP JUMPDEST PUSH1 0x40 MLOAD PUSH2 0x251 SWAP4 SWAP3 SWAP2 SWAP1 PUSH2 0x221B JUMP JUMPDEST PUSH1 0x40 MLOAD DUP1 SWAP2 SUB SWAP1 RETURN JUMPDEST PUSH2 0x274 PUSH1 0x4 DUP1 CALLDATASIZE SUB DUP2 ADD SWAP1 PUSH2 0x26F SWAP2 SWAP1 PUSH2 0x2252 JUMP JUMPDEST PUSH2 0x1789 JUMP JUMPDEST STOP JUMPDEST PUSH2 0x295 CALLER PUSH20 0xFFFFFFFFFFFFFFFFFFFFFFFFFFFFFFFFFFFFFFFF AND PUSH2 0x180C JUMP JUMPDEST ISZERO PUSH2 0x2D5 JUMPI PUSH1 0x40 MLOAD PUSH32 0x8C379A000000000000000000000000000000000000000000000000000000000 DUP2 MSTORE PUSH1 0x4 ADD PUSH2 0x2CC SWAP1 PUSH2 0x22DC JUMP JUMPDEST PUSH1 0x40 MLOAD DUP1 SWAP2 SUB SWAP1 REVERT JUMPDEST ORIGIN PUSH20 0xFFFFFFFFFFFFFFFFFFFFFFFFFFFFFFFFFFFFFFFF AND CALLER PUSH20 0xFFFFFFFFFFFFFFFFFFFFFFFFFFFFFFFFFFFFFFFF AND EQ PUSH2 0x343 JUMPI PUSH1 0x40 MLOAD PUSH32 0x8C379A000000000000000000000000000000000000000000000000000000000 DUP2 MSTORE PUSH1 0x4 ADD PUSH2 0x33A SWAP1 PUSH2 0x2348 JUMP JUMPDEST PUSH1 0x40 MLOAD DUP1 SWAP2 SUB SWAP1 REVERT JUMPDEST PUSH1 0x0 DUP4 DUP4 SWAP1 POP GT PUSH2 0x389 JUMPI PUSH1 0x40 MLOAD PUSH32 0x8C379A000000000000000000000000000000000000000000000000000000000 DUP2 MSTORE PUSH1 0x4 ADD PUSH2 0x380 SWAP1 PUSH2 0x23B4 JUMP JUMPDEST PUSH1 0x40 MLOAD DUP1 SWAP2 SUB SWAP1 REVERT JUMPDEST PUSH1 0x0 DUP1 PUSH1 0x0 SWAP1 POP JUMPDEST DUP5 DUP5 SWAP1 POP DUP2 LT ISZERO PUSH2 0x798 JUMPI PUSH1 0x0 PUSH1 0x3 PUSH1 0x0 DUP6 PUSH20 0xFFFFFFFFFFFFFFFFFFFFFFFFFFFFFFFFFFFFFFFF AND PUSH20 0xFFFFFFFFFFFFFFFFFFFFFFFFFFFFFFFFFFFFFFFF AND DUP2 MSTORE PUSH1 0x20 ADD SWAP1 DUP2 MSTORE PUSH1 0x20 ADD PUSH1 0x0 KECCAK256 PUSH1 0x0 DUP8 DUP8 DUP6 DUP2 DUP2 LT PUSH2 0x3F2 JUMPI PUSH2 0x3F1 PUSH2 0x23D4 JUMP JUMPDEST JUMPDEST SWAP1 POP PUSH1 0x20 MUL ADD CALLDATALOAD DUP2 MSTORE PUSH1 0x20 ADD SWAP1 DUP2 MSTORE PUSH1 0x20 ADD PUSH1 0x0 KECCAK256 PUSH1 0x40 MLOAD DUP1 PUSH1 0xA0 ADD PUSH1 0x40 MSTORE SWAP1 DUP2 PUSH1 0x0 DUP3 ADD PUSH1 0x0 SWAP1 SLOAD SWAP1 PUSH2 0x100 EXP SWAP1 DIV PUSH20 0xFFFFFFFFFFFFFFFFFFFFFFFFFFFFFFFFFFFFFFFF AND PUSH20 0xFFFFFFFFFFFFFFFFFFFFFFFFFFFFFFFFFFFFFFFF AND PUSH20 0xFFFFFFFFFFFFFFFFFFFFFFFFFFFFFFFFFFFFFFFF AND DUP2 MSTORE PUSH1 0x20 ADD PUSH1 0x1 DUP3 ADD SLOAD DUP2 MSTORE PUSH1 0x20 ADD PUSH1 0x2 DUP3 ADD SLOAD DUP2 MSTORE PUSH1 0x20 ADD PUSH1 0x3 DUP3 ADD PUSH1 0x0 SWAP1 SLOAD SWAP1 PUSH2 0x100 EXP SWAP1 DIV PUSH1 0xFF AND ISZERO ISZERO ISZERO ISZERO DUP2 MSTORE PUSH1 0x20 ADD PUSH1 0x3 DUP3 ADD PUSH1 0x1 SWAP1 SLOAD SWAP1 PUSH2 0x100 EXP SWAP1 DIV PUSH20 0xFFFFFFFFFFFFFFFFFFFFFFFFFFFFFFFFFFFFFFFF AND PUSH20 0xFFFFFFFFFFFFFFFFFFFFFFFFFFFFFFFFFFFFFFFF AND PUSH20 0xFFFFFFFFFFFFFFFFFFFFFFFFFFFFFFFFFFFFFFFF AND DUP2 MSTORE POP POP SWAP1 POP CALLER PUSH20 0xFFFFFFFFFFFFFFFFFFFFFFFFFFFFFFFFFFFFFFFF AND DUP2 PUSH1 0x0 ADD MLOAD PUSH20 0xFFFFFFFFFFFFFFFFFFFFFFFFFFFFFFFFFFFFFFFF AND EQ PUSH2 0x561 JUMPI PUSH1 0x40 MLOAD PUSH32 0x8C379A000000000000000000000000000000000000000000000000000000000 DUP2 MSTORE PUSH1 0x4 ADD PUSH2 0x558 SWAP1 PUSH2 0x244F JUMP JUMPDEST PUSH1 0x40 MLOAD DUP1 SWAP2 SUB SWAP1 REVERT JUMPDEST TIMESTAMP PUSH1 0x2 SLOAD DUP3 PUSH1 0x20 ADD MLOAD PUSH2 0x574 SWAP2 SWAP1 PUSH2 0x249E JUMP JUMPDEST LT PUSH2 0x5B4 JUMPI PUSH1 0x40 MLOAD PUSH32 0x8C379A000000000000000000000000000000000000000000000000000000000 DUP2 MSTORE PUSH1 0x4 ADD PUSH2 0x5AB SWAP1 PUSH2 0x251E JUMP JUMPDEST PUSH1 0x40 MLOAD DUP1 SWAP2 SUB SWAP1 REVERT JUMPDEST DUP1 PUSH1 0x60 ADD MLOAD ISZERO PUSH2 0x5F9 JUMPI PUSH1 0x40 MLOAD PUSH32 0x8C379A000000000000000000000000000000000000000000000000000000000 DUP2 MSTORE PUSH1 0x4 ADD PUSH2 0x5F0 SWAP1 PUSH2 0x258A JUMP JUMPDEST PUSH1 0x40 MLOAD DUP1 SWAP2 SUB SWAP1 REVERT JUMPDEST PUSH1 0x0 PUSH2 0x61E DUP8 DUP8 DUP6 DUP2 DUP2 LT PUSH2 0x611 JUMPI PUSH2 0x610 PUSH2 0x23D4 JUMP JUMPDEST JUMPDEST SWAP1 POP PUSH1 0x20 MUL ADD CALLDATALOAD DUP7 PUSH2 0x182F JUMP JUMPDEST SWAP1 POP PUSH1 0x0 DUP3 PUSH1 0x40 ADD MLOAD DUP3 PUSH2 0x632 SWAP2 SWAP1 PUSH2 0x25AA JUMP JUMPDEST SWAP1 POP PUSH1 0x4 PUSH1 0x0 DUP8 PUSH20 0xFFFFFFFFFFFFFFFFFFFFFFFFFFFFFFFFFFFFFFFF AND PUSH20 0xFFFFFFFFFFFFFFFFFFFFFFFFFFFFFFFFFFFFFFFF AND DUP2 MSTORE PUSH1 0x20 ADD SWAP1 DUP2 MSTORE PUSH1 0x20 ADD PUSH1 0x0 KECCAK256 PUSH1 0x0 ADD PUSH1 0x0 SWAP1 SLOAD SWAP1 PUSH2 0x100 EXP SWAP1 DIV PUSH20 0xFFFFFFFFFFFFFFFFFFFFFFFFFFFFFFFFFFFFFFFF AND PUSH20 0xFFFFFFFFFFFFFFFFFFFFFFFFFFFFFFFFFFFFFFFF AND PUSH4 0x40C10F19 CALLER DUP4 PUSH1 0x40 MLOAD DUP4 PUSH4 0xFFFFFFFF AND PUSH1 0xE0 SHL DUP2 MSTORE PUSH1 0x4 ADD PUSH2 0x6D1 SWAP3 SWAP2 SWAP1 PUSH2 0x25DE JUMP JUMPDEST PUSH1 0x0 PUSH1 0x40 MLOAD DUP1 DUP4 SUB DUP2 PUSH1 0x0 DUP8 DUP1 EXTCODESIZE ISZERO DUP1 ISZERO PUSH2 0x6EB JUMPI PUSH1 0x0 DUP1 REVERT JUMPDEST POP GAS CALL ISZERO DUP1 ISZERO PUSH2 0x6FF JUMPI RETURNDATASIZE PUSH1 0x0 DUP1 RETURNDATACOPY RETURNDATASIZE PUSH1 0x0 REVERT JUMPDEST POP POP POP POP DUP1 DUP6 PUSH2 0x70F SWAP2 SWAP1 PUSH2 0x249E JUMP JUMPDEST SWAP5 POP DUP2 PUSH1 0x3 PUSH1 0x0 DUP9 PUSH20 0xFFFFFFFFFFFFFFFFFFFFFFFFFFFFFFFFFFFFFFFF AND PUSH20 0xFFFFFFFFFFFFFFFFFFFFFFFFFFFFFFFFFFFFFFFF AND DUP2 MSTORE PUSH1 0x20 ADD SWAP1 DUP2 MSTORE PUSH1 0x20 ADD PUSH1 0x0 KECCAK256 PUSH1 0x0 DUP11 DUP11 DUP9 DUP2 DUP2 LT PUSH2 0x766 JUMPI PUSH2 0x765 PUSH2 0x23D4 JUMP JUMPDEST JUMPDEST SWAP1 POP PUSH1 0x20 MUL ADD CALLDATALOAD DUP2 MSTORE PUSH1 0x20 ADD SWAP1 DUP2 MSTORE PUSH1 0x20 ADD PUSH1 0x0 KECCAK256 PUSH1 0x2 ADD DUP2 SWAP1 SSTORE POP POP POP POP DUP1 DUP1 PUSH2 0x790 SWAP1 PUSH2 0x2607 JUMP JUMPDEST SWAP2 POP POP PUSH2 0x391 JUMP JUMPDEST POP CALLER PUSH20 0xFFFFFFFFFFFFFFFFFFFFFFFFFFFFFFFFFFFFFFFF AND PUSH32 0x37826BE3C26DBAD83731F4B985F22FA9EF86B6D1974CD77208332B7F1F283C0C DUP6 DUP6 DUP5 PUSH1 0x40 MLOAD PUSH2 0x7E3 SWAP4 SWAP3 SWAP2 SWAP1 PUSH2 0x26CA JUMP JUMPDEST PUSH1 0x40 MLOAD DUP1 SWAP2 SUB SWAP1 LOG2 POP POP POP POP JUMP JUMPDEST PUSH2 0x810 CALLER PUSH20 0xFFFFFFFFFFFFFFFFFFFFFFFFFFFFFFFFFFFFFFFF AND PUSH2 0x180C JUMP JUMPDEST ISZERO PUSH2 0x850 JUMPI PUSH1 0x40 MLOAD PUSH32 0x8C379A000000000000000000000000000000000000000000000000000000000 DUP2 MSTORE PUSH1 0x4 ADD PUSH2 0x847 SWAP1 PUSH2 0x22DC JUMP JUMPDEST PUSH1 0x40 MLOAD DUP1 SWAP2 SUB SWAP1 REVERT JUMPDEST ORIGIN PUSH20 0xFFFFFFFFFFFFFFFFFFFFFFFFFFFFFFFFFFFFFFFF AND CALLER PUSH20 0xFFFFFFFFFFFFFFFFFFFFFFFFFFFFFFFFFFFFFFFF AND EQ PUSH2 0x8BE JUMPI PUSH1 0x40 MLOAD PUSH32 0x8C379A000000000000000000000000000000000000000000000000000000000 DUP2 MSTORE PUSH1 0x4 ADD PUSH2 0x8B5 SWAP1 PUSH2 0x2348 JUMP JUMPDEST PUSH1 0x40 MLOAD DUP1 SWAP2 SUB SWAP1 REVERT JUMPDEST PUSH1 0x2 PUSH1 0x1 SLOAD SUB PUSH2 0x903 JUMPI PUSH1 0x40 MLOAD PUSH32 0x8C379A000000000000000000000000000000000000000000000000000000000 DUP2 MSTORE PUSH1 0x4 ADD PUSH2 0x8FA SWAP1 PUSH2 0x2748 JUMP JUMPDEST PUSH1 0x40 MLOAD DUP1 SWAP2 SUB SWAP1 REVERT JUMPDEST PUSH1 0x2 PUSH1 0x1 DUP2 SWAP1 SSTORE POP PUSH1 0x0 DUP4 DUP4 SWAP1 POP GT PUSH2 0x951 JUMPI PUSH1 0x40 MLOAD PUSH32 0x8C379A000000000000000000000000000000000000000000000000000000000 DUP2 MSTORE PUSH1 0x4 ADD PUSH2 0x948 SWAP1 PUSH2 0x23B4 JUMP JUMPDEST PUSH1 0x40 MLOAD DUP1 SWAP2 SUB SWAP1 REVERT JUMPDEST PUSH1 0x0 JUMPDEST DUP4 DUP4 SWAP1 POP DUP2 LT ISZERO PUSH2 0xC7F JUMPI CALLER PUSH20 0xFFFFFFFFFFFFFFFFFFFFFFFFFFFFFFFFFFFFFFFF AND DUP3 PUSH20 0xFFFFFFFFFFFFFFFFFFFFFFFFFFFFFFFFFFFFFFFF AND PUSH4 0x6352211E DUP7 DUP7 DUP6 DUP2 DUP2 LT PUSH2 0x9A5 JUMPI PUSH2 0x9A4 PUSH2 0x23D4 JUMP JUMPDEST JUMPDEST SWAP1 POP PUSH1 0x20 MUL ADD CALLDATALOAD PUSH1 0x40 MLOAD DUP3 PUSH4 0xFFFFFFFF AND PUSH1 0xE0 SHL DUP2 MSTORE PUSH1 0x4 ADD PUSH2 0x9C8 SWAP2 SWAP1 PUSH2 0x1CB9 JUMP JUMPDEST PUSH1 0x20 PUSH1 0x40 MLOAD DUP1 DUP4 SUB DUP2 DUP7 GAS STATICCALL ISZERO DUP1 ISZERO PUSH2 0x9E5 JUMPI RETURNDATASIZE PUSH1 0x0 DUP1 RETURNDATACOPY RETURNDATASIZE PUSH1 0x0 REVERT JUMPDEST POP POP POP POP PUSH1 0x40 MLOAD RETURNDATASIZE PUSH1 0x1F NOT PUSH1 0x1F DUP3 ADD AND DUP3 ADD DUP1 PUSH1 0x40 MSTORE POP DUP2 ADD SWAP1 PUSH2 0xA09 SWAP2 SWAP1 PUSH2 0x277D JUMP JUMPDEST PUSH20 0xFFFFFFFFFFFFFFFFFFFFFFFFFFFFFFFFFFFFFFFF AND EQ PUSH2 0xA5F JUMPI PUSH1 0x40 MLOAD PUSH32 0x8C379A000000000000000000000000000000000000000000000000000000000 DUP2 MSTORE PUSH1 0x4 ADD PUSH2 0xA56 SWAP1 PUSH2 0x27F6 JUMP JUMPDEST PUSH1 0x40 MLOAD DUP1 SWAP2 SUB SWAP1 REVERT JUMPDEST DUP2 PUSH20 0xFFFFFFFFFFFFFFFFFFFFFFFFFFFFFFFFFFFFFFFF AND PUSH4 0x23B872DD CALLER ADDRESS DUP8 DUP8 DUP7 DUP2 DUP2 LT PUSH2 0xA90 JUMPI PUSH2 0xA8F PUSH2 0x23D4 JUMP JUMPDEST JUMPDEST SWAP1 POP PUSH1 0x20 MUL ADD CALLDATALOAD PUSH1 0x40 MLOAD DUP5 PUSH4 0xFFFFFFFF AND PUSH1 0xE0 SHL DUP2 MSTORE PUSH1 0x4 ADD PUSH2 0xAB5 SWAP4 SWAP3 SWAP2 SWAP1 PUSH2 0x2816 JUMP JUMPDEST PUSH1 0x0 PUSH1 0x40 MLOAD DUP1 DUP4 SUB DUP2 PUSH1 0x0 DUP8 DUP1 EXTCODESIZE ISZERO DUP1 ISZERO PUSH2 0xACF JUMPI PUSH1 0x0 DUP1 REVERT JUMPDEST POP GAS CALL ISZERO DUP1 ISZERO PUSH2 0xAE3 JUMPI RETURNDATASIZE PUSH1 0x0 DUP1 RETURNDATACOPY RETURNDATASIZE PUSH1 0x0 REVERT JUMPDEST POP POP POP POP PUSH1 0x40 MLOAD DUP1 PUSH1 0xA0 ADD PUSH1 0x40 MSTORE DUP1 CALLER PUSH20 0xFFFFFFFFFFFFFFFFFFFFFFFFFFFFFFFFFFFFFFFF AND DUP2 MSTORE PUSH1 0x20 ADD TIMESTAMP DUP2 MSTORE PUSH1 0x20 ADD PUSH1 0x0 DUP2 MSTORE PUSH1 0x20 ADD PUSH1 0x0 ISZERO ISZERO DUP2 MSTORE PUSH1 0x20 ADD DUP4 PUSH20 0xFFFFFFFFFFFFFFFFFFFFFFFFFFFFFFFFFFFFFFFF AND DUP2 MSTORE POP PUSH1 0x3 PUSH1 0x0 DUP5 PUSH20 0xFFFFFFFFFFFFFFFFFFFFFFFFFFFFFFFFFFFFFFFF AND PUSH20 0xFFFFFFFFFFFFFFFFFFFFFFFFFFFFFFFFFFFFFFFF AND DUP2 MSTORE PUSH1 0x20 ADD SWAP1 DUP2 MSTORE PUSH1 0x20 ADD PUSH1 0x0 KECCAK256 PUSH1 0x0 DUP7 DUP7 DUP6 DUP2 DUP2 LT PUSH2 0xB92 JUMPI PUSH2 0xB91 PUSH2 0x23D4 JUMP JUMPDEST JUMPDEST SWAP1 POP PUSH1 0x20 MUL ADD CALLDATALOAD DUP2 MSTORE PUSH1 0x20 ADD SWAP1 DUP2 MSTORE PUSH1 0x20 ADD PUSH1 0x0 KECCAK256 PUSH1 0x0 DUP3 ADD MLOAD DUP2 PUSH1 0x0 ADD PUSH1 0x0 PUSH2 0x100 EXP DUP2 SLOAD DUP2 PUSH20 0xFFFFFFFFFFFFFFFFFFFFFFFFFFFFFFFFFFFFFFFF MUL NOT AND SWAP1 DUP4 PUSH20 0xFFFFFFFFFFFFFFFFFFFFFFFFFFFFFFFFFFFFFFFF AND MUL OR SWAP1 SSTORE POP PUSH1 0x20 DUP3 ADD MLOAD DUP2 PUSH1 0x1 ADD SSTORE PUSH1 0x40 DUP3 ADD MLOAD DUP2 PUSH1 0x2 ADD SSTORE PUSH1 0x60 DUP3 ADD MLOAD DUP2 PUSH1 0x3 ADD PUSH1 0x0 PUSH2 0x100 EXP DUP2 SLOAD DUP2 PUSH1 0xFF MUL NOT AND SWAP1 DUP4 ISZERO ISZERO MUL OR SWAP1 SSTORE POP PUSH1 0x80 DUP3 ADD MLOAD DUP2 PUSH1 0x3 ADD PUSH1 0x1 PUSH2 0x100 EXP DUP2 SLOAD DUP2 PUSH20 0xFFFFFFFFFFFFFFFFFFFFFFFFFFFFFFFFFFFFFFFF MUL NOT AND SWAP1 DUP4 PUSH20 0xFFFFFFFFFFFFFFFFFFFFFFFFFFFFFFFFFFFFFFFF AND MUL OR SWAP1 SSTORE POP SWAP1 POP POP DUP1 DUP1 PUSH2 0xC77 SWAP1 PUSH2 0x2607 JUMP JUMPDEST SWAP2 POP POP PUSH2 0x954 JUMP JUMPDEST POP CALLER PUSH20 0xFFFFFFFFFFFFFFFFFFFFFFFFFFFFFFFFFFFFFFFF AND PUSH32 0x458BE0227BCCC9E803DEC79BD16767EEAF9925D2CE708EEED7AE1F3621F968F9 DUP5 DUP5 PUSH1 0x40 MLOAD PUSH2 0xCC8 SWAP3 SWAP2 SWAP1 PUSH2 0x284D JUMP JUMPDEST PUSH1 0x40 MLOAD DUP1 SWAP2 SUB SWAP1 LOG2 PUSH1 0x1 DUP1 DUP2 SWAP1 SSTORE POP POP POP POP JUMP JUMPDEST PUSH1 0x2 SLOAD DUP2 JUMP JUMPDEST PUSH2 0xCEA PUSH2 0x1A0D JUMP JUMPDEST PUSH2 0xCF4 PUSH1 0x0 PUSH2 0x1A8B JUMP JUMPDEST JUMP JUMPDEST PUSH2 0xCFE PUSH2 0x1A0D JUMP JUMPDEST PUSH1 0x0 DUP2 GT PUSH2 0xD41 JUMPI PUSH1 0x40 MLOAD PUSH32 0x8C379A000000000000000000000000000000000000000000000000000000000 DUP2 MSTORE PUSH1 0x4 ADD PUSH2 0xD38 SWAP1 PUSH2 0x28BD JUMP JUMPDEST PUSH1 0x40 MLOAD DUP1 SWAP2 SUB SWAP1 REVERT JUMPDEST DUP1 PUSH1 0x2 DUP2 SWAP1 SSTORE POP PUSH32 0x8249EC545E68F6F1E1230133CA48C704D831A7F8E635DED80F3DD9E99B09BB2F DUP2 PUSH1 0x40 MLOAD PUSH2 0xD77 SWAP2 SWAP1 PUSH2 0x1CB9 JUMP JUMPDEST PUSH1 0x40 MLOAD DUP1 SWAP2 SUB SWAP1 LOG1 POP JUMP JUMPDEST PUSH1 0x0 DUP1 PUSH1 0x0 SWAP1 SLOAD SWAP1 PUSH2 0x100 EXP SWAP1 DIV PUSH20 0xFFFFFFFFFFFFFFFFFFFFFFFFFFFFFFFFFFFFFFFF AND SWAP1 POP SWAP1 JUMP JUMPDEST PUSH2 0xDCA CALLER PUSH20 0xFFFFFFFFFFFFFFFFFFFFFFFFFFFFFFFFFFFFFFFF AND PUSH2 0x180C JUMP JUMPDEST ISZERO PUSH2 0xE0A JUMPI PUSH1 0x40 MLOAD PUSH32 0x8C379A000000000000000000000000000000000000000000000000000000000 DUP2 MSTORE PUSH1 0x4 ADD PUSH2 0xE01 SWAP1 PUSH2 0x22DC JUMP JUMPDEST PUSH1 0x40 MLOAD DUP1 SWAP2 SUB SWAP1 REVERT JUMPDEST ORIGIN PUSH20 0xFFFFFFFFFFFFFFFFFFFFFFFFFFFFFFFFFFFFFFFF AND CALLER PUSH20 0xFFFFFFFFFFFFFFFFFFFFFFFFFFFFFFFFFFFFFFFF AND EQ PUSH2 0xE78 JUMPI PUSH1 0x40 MLOAD PUSH32 0x8C379A000000000000000000000000000000000000000000000000000000000 DUP2 MSTORE PUSH1 0x4 ADD PUSH2 0xE6F SWAP1 PUSH2 0x2348 JUMP JUMPDEST PUSH1 0x40 MLOAD DUP1 SWAP2 SUB SWAP1 REVERT JUMPDEST PUSH1 0x2 PUSH1 0x1 SLOAD SUB PUSH2 0xEBD JUMPI PUSH1 0x40 MLOAD PUSH32 0x8C379A000000000000000000000000000000000000000000000000000000000 DUP2 MSTORE PUSH1 0x4 ADD PUSH2 0xEB4 SWAP1 PUSH2 0x2748 JUMP JUMPDEST PUSH1 0x40 MLOAD DUP1 SWAP2 SUB SWAP1 REVERT JUMPDEST PUSH1 0x2 PUSH1 0x1 DUP2 SWAP1 SSTORE POP PUSH1 0x0 DUP4 DUP4 SWAP1 POP GT PUSH2 0xF0B JUMPI PUSH1 0x40 MLOAD PUSH32 0x8C379A000000000000000000000000000000000000000000000000000000000 DUP2 MSTORE PUSH1 0x4 ADD PUSH2 0xF02 SWAP1 PUSH2 0x23B4 JUMP JUMPDEST PUSH1 0x40 MLOAD DUP1 SWAP2 SUB SWAP1 REVERT JUMPDEST PUSH1 0x0 JUMPDEST DUP4 DUP4 SWAP1 POP DUP2 LT ISZERO PUSH2 0x1414 JUMPI PUSH1 0x0 PUSH1 0x3 PUSH1 0x0 DUP5 PUSH20 0xFFFFFFFFFFFFFFFFFFFFFFFFFFFFFFFFFFFFFFFF AND PUSH20 0xFFFFFFFFFFFFFFFFFFFFFFFFFFFFFFFFFFFFFFFF AND DUP2 MSTORE PUSH1 0x20 ADD SWAP1 DUP2 MSTORE PUSH1 0x20 ADD PUSH1 0x0 KECCAK256 PUSH1 0x0 DUP7 DUP7 DUP6 DUP2 DUP2 LT PUSH2 0xF6F JUMPI PUSH2 0xF6E PUSH2 0x23D4 JUMP JUMPDEST JUMPDEST SWAP1 POP PUSH1 0x20 MUL ADD CALLDATALOAD DUP2 MSTORE PUSH1 0x20 ADD SWAP1 DUP2 MSTORE PUSH1 0x20 ADD PUSH1 0x0 KECCAK256 PUSH1 0x40 MLOAD DUP1 PUSH1 0xA0 ADD PUSH1 0x40 MSTORE SWAP1 DUP2 PUSH1 0x0 DUP3 ADD PUSH1 0x0 SWAP1 SLOAD SWAP1 PUSH2 0x100 EXP SWAP1 DIV PUSH20 0xFFFFFFFFFFFFFFFFFFFFFFFFFFFFFFFFFFFFFFFF AND PUSH20 0xFFFFFFFFFFFFFFFFFFFFFFFFFFFFFFFFFFFFFFFF AND PUSH20 0xFFFFFFFFFFFFFFFFFFFFFFFFFFFFFFFFFFFFFFFF AND DUP2 MSTORE PUSH1 0x20 ADD PUSH1 0x1 DUP3 ADD SLOAD DUP2 MSTORE PUSH1 0x20 ADD PUSH1 0x2 DUP3 ADD SLOAD DUP2 MSTORE PUSH1 0x20 ADD PUSH1 0x3 DUP3 ADD PUSH1 0x0 SWAP1 SLOAD SWAP1 PUSH2 0x100 EXP SWAP1 DIV PUSH1 0xFF AND ISZERO ISZERO ISZERO ISZERO DUP2 MSTORE PUSH1 0x20 ADD PUSH1 0x3 DUP3 ADD PUSH1 0x1 SWAP1 SLOAD SWAP1 PUSH2 0x100 EXP SWAP1 DIV PUSH20 0xFFFFFFFFFFFFFFFFFFFFFFFFFFFFFFFFFFFFFFFF AND PUSH20 0xFFFFFFFFFFFFFFFFFFFFFFFFFFFFFFFFFFFFFFFF AND PUSH20 0xFFFFFFFFFFFFFFFFFFFFFFFFFFFFFFFFFFFFFFFF AND DUP2 MSTORE POP POP SWAP1 POP CALLER PUSH20 0xFFFFFFFFFFFFFFFFFFFFFFFFFFFFFFFFFFFFFFFF AND DUP2 PUSH1 0x0 ADD MLOAD PUSH20 0xFFFFFFFFFFFFFFFFFFFFFFFFFFFFFFFFFFFFFFFF AND EQ PUSH2 0x10DE JUMPI PUSH1 0x40 MLOAD PUSH32 0x8C379A000000000000000000000000000000000000000000000000000000000 DUP2 MSTORE PUSH1 0x4 ADD PUSH2 0x10D5 SWAP1 PUSH2 0x244F JUMP JUMPDEST PUSH1 0x40 MLOAD DUP1 SWAP2 SUB SWAP1 REVERT JUMPDEST TIMESTAMP PUSH1 0x2 SLOAD DUP3 PUSH1 0x20 ADD MLOAD PUSH2 0x10F1 SWAP2 SWAP1 PUSH2 0x249E JUMP JUMPDEST LT PUSH2 0x1131 JUMPI PUSH1 0x40 MLOAD PUSH32 0x8C379A000000000000000000000000000000000000000000000000000000000 DUP2 MSTORE PUSH1 0x4 ADD PUSH2 0x1128 SWAP1 PUSH2 0x2929 JUMP JUMPDEST PUSH1 0x40 MLOAD DUP1 SWAP2 SUB SWAP1 REVERT JUMPDEST DUP1 PUSH1 0x60 ADD MLOAD ISZERO PUSH2 0x1176 JUMPI PUSH1 0x40 MLOAD PUSH32 0x8C379A000000000000000000000000000000000000000000000000000000000 DUP2 MSTORE PUSH1 0x4 ADD PUSH2 0x116D SWAP1 PUSH2 0x258A JUMP JUMPDEST PUSH1 0x40 MLOAD DUP1 SWAP2 SUB SWAP1 REVERT JUMPDEST DUP3 PUSH20 0xFFFFFFFFFFFFFFFFFFFFFFFFFFFFFFFFFFFFFFFF AND PUSH4 0x23B872DD ADDRESS CALLER DUP9 DUP9 DUP8 DUP2 DUP2 LT PUSH2 0x11A7 JUMPI PUSH2 0x11A6 PUSH2 0x23D4 JUMP JUMPDEST JUMPDEST SWAP1 POP PUSH1 0x20 MUL ADD CALLDATALOAD PUSH1 0x40 MLOAD DUP5 PUSH4 0xFFFFFFFF AND PUSH1 0xE0 SHL DUP2 MSTORE PUSH1 0x4 ADD PUSH2 0x11CC SWAP4 SWAP3 SWAP2 SWAP1 PUSH2 0x2816 JUMP JUMPDEST PUSH1 0x0 PUSH1 0x40 MLOAD DUP1 DUP4 SUB DUP2 PUSH1 0x0 DUP8 DUP1 EXTCODESIZE ISZERO DUP1 ISZERO PUSH2 0x11E6 JUMPI PUSH1 0x0 DUP1 REVERT JUMPDEST POP GAS CALL ISZERO DUP1 ISZERO PUSH2 0x11FA JUMPI RETURNDATASIZE PUSH1 0x0 DUP1 RETURNDATACOPY RETURNDATASIZE PUSH1 0x0 REVERT JUMPDEST POP POP POP POP PUSH1 0x0 PUSH2 0x1223 DUP7 DUP7 DUP6 DUP2 DUP2 LT PUSH2 0x1216 JUMPI PUSH2 0x1215 PUSH2 0x23D4 JUMP JUMPDEST JUMPDEST SWAP1 POP PUSH1 0x20 MUL ADD CALLDATALOAD DUP6 PUSH2 0x182F JUMP JUMPDEST SWAP1 POP PUSH1 0x0 DUP3 PUSH1 0x40 ADD MLOAD DUP3 PUSH2 0x1237 SWAP2 SWAP1 PUSH2 0x25AA JUMP JUMPDEST SWAP1 POP PUSH1 0x4 PUSH1 0x0 DUP7 PUSH20 0xFFFFFFFFFFFFFFFFFFFFFFFFFFFFFFFFFFFFFFFF AND PUSH20 0xFFFFFFFFFFFFFFFFFFFFFFFFFFFFFFFFFFFFFFFF AND DUP2 MSTORE PUSH1 0x20 ADD SWAP1 DUP2 MSTORE PUSH1 0x20 ADD PUSH1 0x0 KECCAK256 PUSH1 0x0 ADD PUSH1 0x0 SWAP1 SLOAD SWAP1 PUSH2 0x100 EXP SWAP1 DIV PUSH20 0xFFFFFFFFFFFFFFFFFFFFFFFFFFFFFFFFFFFFFFFF AND PUSH20 0xFFFFFFFFFFFFFFFFFFFFFFFFFFFFFFFFFFFFFFFF AND PUSH4 0x40C10F19 CALLER DUP4 PUSH1 0x40 MLOAD DUP4 PUSH4 0xFFFFFFFF AND PUSH1 0xE0 SHL DUP2 MSTORE PUSH1 0x4 ADD PUSH2 0x12D6 SWAP3 SWAP2 SWAP1 PUSH2 0x25DE JUMP JUMPDEST PUSH1 0x0 PUSH1 0x40 MLOAD DUP1 DUP4 SUB DUP2 PUSH1 0x0 DUP8 DUP1 EXTCODESIZE ISZERO DUP1 ISZERO PUSH2 0x12F0 JUMPI PUSH1 0x0 DUP1 REVERT JUMPDEST POP GAS CALL ISZERO DUP1 ISZERO PUSH2 0x1304 JUMPI RETURNDATASIZE PUSH1 0x0 DUP1 RETURNDATACOPY RETURNDATASIZE PUSH1 0x0 REVERT JUMPDEST POP POP POP POP DUP2 PUSH1 0x3 PUSH1 0x0 DUP8 PUSH20 0xFFFFFFFFFFFFFFFFFFFFFFFFFFFFFFFFFFFFFFFF AND PUSH20 0xFFFFFFFFFFFFFFFFFFFFFFFFFFFFFFFFFFFFFFFF AND DUP2 MSTORE PUSH1 0x20 ADD SWAP1 DUP2 MSTORE PUSH1 0x20 ADD PUSH1 0x0 KECCAK256 PUSH1 0x0 DUP10 DUP10 DUP9 DUP2 DUP2 LT PUSH2 0x135D JUMPI PUSH2 0x135C PUSH2 0x23D4 JUMP JUMPDEST JUMPDEST SWAP1 POP PUSH1 0x20 MUL ADD CALLDATALOAD DUP2 MSTORE PUSH1 0x20 ADD SWAP1 DUP2 MSTORE PUSH1 0x20 ADD PUSH1 0x0 KECCAK256 PUSH1 0x2 ADD DUP2 SWAP1 SSTORE POP PUSH1 0x1 PUSH1 0x3 PUSH1 0x0 DUP8 PUSH20 0xFFFFFFFFFFFFFFFFFFFFFFFFFFFFFFFFFFFFFFFF AND PUSH20 0xFFFFFFFFFFFFFFFFFFFFFFFFFFFFFFFFFFFFFFFF AND DUP2 MSTORE PUSH1 0x20 ADD SWAP1 DUP2 MSTORE PUSH1 0x20 ADD PUSH1 0x0 KECCAK256 PUSH1 0x0 DUP10 DUP10 DUP9 DUP2 DUP2 LT PUSH2 0x13CF JUMPI PUSH2 0x13CE PUSH2 0x23D4 JUMP JUMPDEST JUMPDEST SWAP1 POP PUSH1 0x20 MUL ADD CALLDATALOAD DUP2 MSTORE PUSH1 0x20 ADD SWAP1 DUP2 MSTORE PUSH1 0x20 ADD PUSH1 0x0 KECCAK256 PUSH1 0x3 ADD PUSH1 0x0 PUSH2 0x100 EXP DUP2 SLOAD DUP2 PUSH1 0xFF MUL NOT AND SWAP1 DUP4 ISZERO ISZERO MUL OR SWAP1 SSTORE POP POP POP POP DUP1 DUP1 PUSH2 0x140C SWAP1 PUSH2 0x2607 JUMP JUMPDEST SWAP2 POP POP PUSH2 0xF0E JUMP JUMPDEST POP CALLER PUSH20 0xFFFFFFFFFFFFFFFFFFFFFFFFFFFFFFFFFFFFFFFF AND PUSH32 0x5CB48022479B9AC3BFB10A27965DC010ACFFC9FC1BC9A52F0B18975B944B54CA DUP5 DUP5 PUSH1 0x40 MLOAD PUSH2 0x145D SWAP3 SWAP2 SWAP1 PUSH2 0x284D JUMP JUMPDEST PUSH1 0x40 MLOAD DUP1 SWAP2 SUB SWAP1 LOG2 PUSH1 0x1 DUP1 DUP2 SWAP1 SSTORE POP POP POP POP JUMP JUMPDEST PUSH1 0x3 PUSH1 0x20 MSTORE DUP2 PUSH1 0x0 MSTORE PUSH1 0x40 PUSH1 0x0 KECCAK256 PUSH1 0x20 MSTORE DUP1 PUSH1 0x0 MSTORE PUSH1 0x40 PUSH1 0x0 KECCAK256 PUSH1 0x0 SWAP2 POP SWAP2 POP POP DUP1 PUSH1 0x0 ADD PUSH1 0x0 SWAP1 SLOAD SWAP1 PUSH2 0x100 EXP SWAP1 DIV PUSH20 0xFFFFFFFFFFFFFFFFFFFFFFFFFFFFFFFFFFFFFFFF AND SWAP1 DUP1 PUSH1 0x1 ADD SLOAD SWAP1 DUP1 PUSH1 0x2 ADD SLOAD SWAP1 DUP1 PUSH1 0x3 ADD PUSH1 0x0 SWAP1 SLOAD SWAP1 PUSH2 0x100 EXP SWAP1 DIV PUSH1 0xFF AND SWAP1 DUP1 PUSH1 0x3 ADD PUSH1 0x1 SWAP1 SLOAD SWAP1 PUSH2 0x100 EXP SWAP1 DIV PUSH20 0xFFFFFFFFFFFFFFFFFFFFFFFFFFFFFFFFFFFFFFFF AND SWAP1 POP DUP6 JUMP JUMPDEST PUSH1 0x0 PUSH1 0x3 PUSH1 0x0 DUP4 PUSH20 0xFFFFFFFFFFFFFFFFFFFFFFFFFFFFFFFFFFFFFFFF AND PUSH20 0xFFFFFFFFFFFFFFFFFFFFFFFFFFFFFFFFFFFFFFFF AND DUP2 MSTORE PUSH1 0x20 ADD SWAP1 DUP2 MSTORE PUSH1 0x20 ADD PUSH1 0x0 KECCAK256 PUSH1 0x0 DUP5 DUP2 MSTORE PUSH1 0x20 ADD SWAP1 DUP2 MSTORE PUSH1 0x20 ADD PUSH1 0x0 KECCAK256 PUSH1 0x2 ADD SLOAD SWAP1 POP SWAP3 SWAP2 POP POP JUMP JUMPDEST PUSH2 0x1567 PUSH2 0x1A0D JUMP JUMPDEST PUSH1 0x0 JUMPDEST DUP6 MLOAD DUP2 LT ISZERO PUSH2 0x1731 JUMPI DUP5 DUP2 DUP2 MLOAD DUP2 LT PUSH2 0x1586 JUMPI PUSH2 0x1585 PUSH2 0x23D4 JUMP JUMPDEST JUMPDEST PUSH1 0x20 MUL PUSH1 0x20 ADD ADD MLOAD PUSH1 0x4 PUSH1 0x0 DUP9 DUP5 DUP2 MLOAD DUP2 LT PUSH2 0x15A5 JUMPI PUSH2 0x15A4 PUSH2 0x23D4 JUMP JUMPDEST JUMPDEST PUSH1 0x20 MUL PUSH1 0x20 ADD ADD MLOAD PUSH20 0xFFFFFFFFFFFFFFFFFFFFFFFFFFFFFFFFFFFFFFFF AND PUSH20 0xFFFFFFFFFFFFFFFFFFFFFFFFFFFFFFFFFFFFFFFF AND DUP2 MSTORE PUSH1 0x20 ADD SWAP1 DUP2 MSTORE PUSH1 0x20 ADD PUSH1 0x0 KECCAK256 PUSH1 0x0 ADD PUSH1 0x0 PUSH2 0x100 EXP DUP2 SLOAD DUP2 PUSH20 0xFFFFFFFFFFFFFFFFFFFFFFFFFFFFFFFFFFFFFFFF MUL NOT AND SWAP1 DUP4 PUSH20 0xFFFFFFFFFFFFFFFFFFFFFFFFFFFFFFFFFFFFFFFF AND MUL OR SWAP1 SSTORE POP DUP4 DUP2 DUP2 MLOAD DUP2 LT PUSH2 0x163B JUMPI PUSH2 0x163A PUSH2 0x23D4 JUMP JUMPDEST JUMPDEST PUSH1 0x20 MUL PUSH1 0x20 ADD ADD MLOAD PUSH1 0x4 PUSH1 0x0 DUP9 DUP5 DUP2 MLOAD DUP2 LT PUSH2 0x165A JUMPI PUSH2 0x1659 PUSH2 0x23D4 JUMP JUMPDEST JUMPDEST PUSH1 0x20 MUL PUSH1 0x20 ADD ADD MLOAD PUSH20 0xFFFFFFFFFFFFFFFFFFFFFFFFFFFFFFFFFFFFFFFF AND PUSH20 0xFFFFFFFFFFFFFFFFFFFFFFFFFFFFFFFFFFFFFFFF AND DUP2 MSTORE PUSH1 0x20 ADD SWAP1 DUP2 MSTORE PUSH1 0x20 ADD PUSH1 0x0 KECCAK256 PUSH1 0x1 ADD DUP2 SWAP1 SSTORE POP DUP3 DUP2 DUP2 MLOAD DUP2 LT PUSH2 0x16B6 JUMPI PUSH2 0x16B5 PUSH2 0x23D4 JUMP JUMPDEST JUMPDEST PUSH1 0x20 MUL PUSH1 0x20 ADD ADD MLOAD PUSH1 0x4 PUSH1 0x0 DUP9 DUP5 DUP2 MLOAD DUP2 LT PUSH2 0x16D5 JUMPI PUSH2 0x16D4 PUSH2 0x23D4 JUMP JUMPDEST JUMPDEST PUSH1 0x20 MUL PUSH1 0x20 ADD ADD MLOAD PUSH20 0xFFFFFFFFFFFFFFFFFFFFFFFFFFFFFFFFFFFFFFFF AND PUSH20 0xFFFFFFFFFFFFFFFFFFFFFFFFFFFFFFFFFFFFFFFF AND DUP2 MSTORE PUSH1 0x20 ADD SWAP1 DUP2 MSTORE PUSH1 0x20 ADD PUSH1 0x0 KECCAK256 PUSH1 0x2 ADD DUP2 SWAP1 SSTORE POP DUP1 DUP1 PUSH2 0x1729 SWAP1 PUSH2 0x2607 JUMP JUMPDEST SWAP2 POP POP PUSH2 0x156A JUMP JUMPDEST POP POP POP POP POP POP JUMP JUMPDEST PUSH1 0x5 SLOAD DUP2 JUMP JUMPDEST PUSH1 0x4 PUSH1 0x20 MSTORE DUP1 PUSH1 0x0 MSTORE PUSH1 0x40 PUSH1 0x0 KECCAK256 PUSH1 0x0 SWAP2 POP SWAP1 POP DUP1 PUSH1 0x0 ADD PUSH1 0x0 SWAP1 SLOAD SWAP1 PUSH2 0x100 EXP SWAP1 DIV PUSH20 0xFFFFFFFFFFFFFFFFFFFFFFFFFFFFFFFFFFFFFFFF AND SWAP1 DUP1 PUSH1 0x1 ADD SLOAD SWAP1 DUP1 PUSH1 0x2 ADD SLOAD SWAP1 POP DUP4 JUMP JUMPDEST PUSH2 0x1791 PUSH2 0x1A0D JUMP JUMPDEST PUSH1 0x0 PUSH20 0xFFFFFFFFFFFFFFFFFFFFFFFFFFFFFFFFFFFFFFFF AND DUP2 PUSH20 0xFFFFFFFFFFFFFFFFFFFFFFFFFFFFFFFFFFFFFFFF AND SUB PUSH2 0x1800 JUMPI PUSH1 0x40 MLOAD PUSH32 0x8C379A000000000000000000000000000000000000000000000000000000000 DUP2 MSTORE PUSH1 0x4 ADD PUSH2 0x17F7 SWAP1 PUSH2 0x29BB JUMP JUMPDEST PUSH1 0x40 MLOAD DUP1 SWAP2 SUB SWAP1 REVERT JUMPDEST PUSH2 0x1809 DUP2 PUSH2 0x1A8B JUMP JUMPDEST POP JUMP JUMPDEST PUSH1 0x0 DUP1 DUP3 PUSH20 0xFFFFFFFFFFFFFFFFFFFFFFFFFFFFFFFFFFFFFFFF AND EXTCODESIZE GT SWAP1 POP SWAP2 SWAP1 POP JUMP JUMPDEST PUSH1 0x0 DUP1 PUSH1 0x3 PUSH1 0x0 DUP5 PUSH20 0xFFFFFFFFFFFFFFFFFFFFFFFFFFFFFFFFFFFFFFFF AND PUSH20 0xFFFFFFFFFFFFFFFFFFFFFFFFFFFFFFFFFFFFFFFF AND DUP2 MSTORE PUSH1 0x20 ADD SWAP1 DUP2 MSTORE PUSH1 0x20 ADD PUSH1 0x0 KECCAK256 PUSH1 0x0 DUP6 DUP2 MSTORE PUSH1 0x20 ADD SWAP1 DUP2 MSTORE PUSH1 0x20 ADD PUSH1 0x0 KECCAK256 PUSH1 0x40 MLOAD DUP1 PUSH1 0xA0 ADD PUSH1 0x40 MSTORE SWAP1 DUP2 PUSH1 0x0 DUP3 ADD PUSH1 0x0 SWAP1 SLOAD SWAP1 PUSH2 0x100 EXP SWAP1 DIV PUSH20 0xFFFFFFFFFFFFFFFFFFFFFFFFFFFFFFFFFFFFFFFF AND PUSH20 0xFFFFFFFFFFFFFFFFFFFFFFFFFFFFFFFFFFFFFFFF AND PUSH20 0xFFFFFFFFFFFFFFFFFFFFFFFFFFFFFFFFFFFFFFFF AND DUP2 MSTORE PUSH1 0x20 ADD PUSH1 0x1 DUP3 ADD SLOAD DUP2 MSTORE PUSH1 0x20 ADD PUSH1 0x2 DUP3 ADD SLOAD DUP2 MSTORE PUSH1 0x20 ADD PUSH1 0x3 DUP3 ADD PUSH1 0x0 SWAP1 SLOAD SWAP1 PUSH2 0x100 EXP SWAP1 DIV PUSH1 0xFF AND ISZERO ISZERO ISZERO ISZERO DUP2 MSTORE PUSH1 0x20 ADD PUSH1 0x3 DUP3 ADD PUSH1 0x1 SWAP1 SLOAD SWAP1 PUSH2 0x100 EXP SWAP1 DIV PUSH20 0xFFFFFFFFFFFFFFFFFFFFFFFFFFFFFFFFFFFFFFFF AND PUSH20 0xFFFFFFFFFFFFFFFFFFFFFFFFFFFFFFFFFFFFFFFF AND PUSH20 0xFFFFFFFFFFFFFFFFFFFFFFFFFFFFFFFFFFFFFFFF AND DUP2 MSTORE POP POP SWAP1 POP PUSH1 0x0 DUP2 PUSH1 0x20 ADD MLOAD TIMESTAMP PUSH2 0x197C SWAP2 SWAP1 PUSH2 0x25AA JUMP JUMPDEST SWAP1 POP PUSH1 0x0 PUSH1 0x2 SLOAD DUP3 LT ISZERO PUSH2 0x1996 JUMPI PUSH1 0x0 SWAP4 POP POP POP POP PUSH2 0x1A07 JUMP JUMPDEST PUSH1 0x5 SLOAD PUSH1 0x2 SLOAD DUP4 PUSH2 0x19A7 SWAP2 SWAP1 PUSH2 0x25AA JUMP JUMPDEST PUSH1 0x4 PUSH1 0x0 DUP9 PUSH20 0xFFFFFFFFFFFFFFFFFFFFFFFFFFFFFFFFFFFFFFFF AND PUSH20 0xFFFFFFFFFFFFFFFFFFFFFFFFFFFFFFFFFFFFFFFF AND DUP2 MSTORE PUSH1 0x20 ADD SWAP1 DUP2 MSTORE PUSH1 0x20 ADD PUSH1 0x0 KECCAK256 PUSH1 0x1 ADD SLOAD PUSH2 0x19F4 SWAP2 SWAP1 PUSH2 0x29DB JUMP JUMPDEST PUSH2 0x19FE SWAP2 SWAP1 PUSH2 0x2A64 JUMP JUMPDEST SWAP1 POP DUP1 SWAP4 POP POP POP POP JUMPDEST SWAP3 SWAP2 POP POP JUMP JUMPDEST PUSH2 0x1A15 PUSH2 0x1B4F JUMP JUMPDEST PUSH20 0xFFFFFFFFFFFFFFFFFFFFFFFFFFFFFFFFFFFFFFFF AND PUSH2 0x1A33 PUSH2 0xD82 JUMP JUMPDEST PUSH20 0xFFFFFFFFFFFFFFFFFFFFFFFFFFFFFFFFFFFFFFFF AND EQ PUSH2 0x1A89 JUMPI PUSH1 0x40 MLOAD PUSH32 0x8C379A000000000000000000000000000000000000000000000000000000000 DUP2 MSTORE PUSH1 0x4 ADD PUSH2 0x1A80 SWAP1 PUSH2 0x2AE1 JUMP JUMPDEST PUSH1 0x40 MLOAD DUP1 SWAP2 SUB SWAP1 REVERT JUMPDEST JUMP JUMPDEST PUSH1 0x0 DUP1 PUSH1 0x0 SWAP1 SLOAD SWAP1 PUSH2 0x100 EXP SWAP1 DIV PUSH20 0xFFFFFFFFFFFFFFFFFFFFFFFFFFFFFFFFFFFFFFFF AND SWAP1 POP DUP2 PUSH1 0x0 DUP1 PUSH2 0x100 EXP DUP2 SLOAD DUP2 PUSH20 0xFFFFFFFFFFFFFFFFFFFFFFFFFFFFFFFFFFFFFFFF MUL NOT AND SWAP1 DUP4 PUSH20 0xFFFFFFFFFFFFFFFFFFFFFFFFFFFFFFFFFFFFFFFF AND MUL OR SWAP1 SSTORE POP DUP2 PUSH20 0xFFFFFFFFFFFFFFFFFFFFFFFFFFFFFFFFFFFFFFFF AND DUP2 PUSH20 0xFFFFFFFFFFFFFFFFFFFFFFFFFFFFFFFFFFFFFFFF AND PUSH32 0x8BE0079C531659141344CD1FD0A4F28419497F9722A3DAAFE3B4186F6B6457E0 PUSH1 0x40 MLOAD PUSH1 0x40 MLOAD DUP1 SWAP2 SUB SWAP1 LOG3 POP POP JUMP JUMPDEST PUSH1 0x0 CALLER SWAP1 POP SWAP1 JUMP JUMPDEST PUSH1 0x0 PUSH1 0x40 MLOAD SWAP1 POP SWAP1 JUMP JUMPDEST PUSH1 0x0 DUP1 REVERT JUMPDEST PUSH1 0x0 DUP1 REVERT JUMPDEST PUSH1 0x0 DUP1 REVERT JUMPDEST PUSH1 0x0 DUP1 REVERT JUMPDEST PUSH1 0x0 DUP1 REVERT JUMPDEST PUSH1 0x0 DUP1 DUP4 PUSH1 0x1F DUP5 ADD SLT PUSH2 0x1B90 JUMPI PUSH2 0x1B8F PUSH2 0x1B6B JUMP JUMPDEST JUMPDEST DUP3 CALLDATALOAD SWAP1 POP PUSH8 0xFFFFFFFFFFFFFFFF DUP2 GT ISZERO PUSH2 0x1BAD JUMPI PUSH2 0x1BAC PUSH2 0x1B70 JUMP JUMPDEST JUMPDEST PUSH1 0x20 DUP4 ADD SWAP2 POP DUP4 PUSH1 0x20 DUP3 MUL DUP4 ADD GT ISZERO PUSH2 0x1BC9 JUMPI PUSH2 0x1BC8 PUSH2 0x1B75 JUMP JUMPDEST JUMPDEST SWAP3 POP SWAP3 SWAP1 POP JUMP JUMPDEST PUSH1 0x0 PUSH20 0xFFFFFFFFFFFFFFFFFFFFFFFFFFFFFFFFFFFFFFFF DUP3 AND SWAP1 POP SWAP2 SWAP1 POP JUMP JUMPDEST PUSH1 0x0 PUSH2 0x1BFB DUP3 PUSH2 0x1BD0 JUMP JUMPDEST SWAP1 POP SWAP2 SWAP1 POP JUMP JUMPDEST PUSH1 0x0 PUSH2 0x1C0D DUP3 PUSH2 0x1BF0 JUMP JUMPDEST SWAP1 POP SWAP2 SWAP1 POP JUMP JUMPDEST PUSH2 0x1C1D DUP2 PUSH2 0x1C02 JUMP JUMPDEST DUP2 EQ PUSH2 0x1C28 JUMPI PUSH1 0x0 DUP1 REVERT JUMPDEST POP JUMP JUMPDEST PUSH1 0x0 DUP2 CALLDATALOAD SWAP1 POP PUSH2 0x1C3A DUP2 PUSH2 0x1C14 JUMP JUMPDEST SWAP3 SWAP2 POP POP JUMP JUMPDEST PUSH1 0x0 DUP1 PUSH1 0x0 PUSH1 0x40 DUP5 DUP7 SUB SLT ISZERO PUSH2 0x1C59 JUMPI PUSH2 0x1C58 PUSH2 0x1B61 JUMP JUMPDEST JUMPDEST PUSH1 0x0 DUP5 ADD CALLDATALOAD PUSH8 0xFFFFFFFFFFFFFFFF DUP2 GT ISZERO PUSH2 0x1C77 JUMPI PUSH2 0x1C76 PUSH2 0x1B66 JUMP JUMPDEST JUMPDEST PUSH2 0x1C83 DUP7 DUP3 DUP8 ADD PUSH2 0x1B7A JUMP JUMPDEST SWAP4 POP SWAP4 POP POP PUSH1 0x20 PUSH2 0x1C96 DUP7 DUP3 DUP8 ADD PUSH2 0x1C2B JUMP JUMPDEST SWAP2 POP POP SWAP3 POP SWAP3 POP SWAP3 JUMP JUMPDEST PUSH1 0x0 DUP2 SWAP1 POP SWAP2 SWAP1 POP JUMP JUMPDEST PUSH2 0x1CB3 DUP2 PUSH2 0x1CA0 JUMP JUMPDEST DUP3 MSTORE POP POP JUMP JUMPDEST PUSH1 0x0 PUSH1 0x20 DUP3 ADD SWAP1 POP PUSH2 0x1CCE PUSH1 0x0 DUP4 ADD DUP5 PUSH2 0x1CAA JUMP JUMPDEST SWAP3 SWAP2 POP POP JUMP JUMPDEST PUSH2 0x1CDD DUP2 PUSH2 0x1CA0 JUMP JUMPDEST DUP2 EQ PUSH2 0x1CE8 JUMPI PUSH1 0x0 DUP1 REVERT JUMPDEST POP JUMP JUMPDEST PUSH1 0x0 DUP2 CALLDATALOAD SWAP1 POP PUSH2 0x1CFA DUP2 PUSH2 0x1CD4 JUMP JUMPDEST SWAP3 SWAP2 POP POP JUMP JUMPDEST PUSH1 0x0 PUSH1 0x20 DUP3 DUP5 SUB SLT ISZERO PUSH2 0x1D16 JUMPI PUSH2 0x1D15 PUSH2 0x1B61 JUMP JUMPDEST JUMPDEST PUSH1 0x0 PUSH2 0x1D24 DUP5 DUP3 DUP6 ADD PUSH2 0x1CEB JUMP JUMPDEST SWAP2 POP POP SWAP3 SWAP2 POP POP JUMP JUMPDEST PUSH2 0x1D36 DUP2 PUSH2 0x1BF0 JUMP JUMPDEST DUP3 MSTORE POP POP JUMP JUMPDEST PUSH1 0x0 PUSH1 0x20 DUP3 ADD SWAP1 POP PUSH2 0x1D51 PUSH1 0x0 DUP4 ADD DUP5 PUSH2 0x1D2D JUMP JUMPDEST SWAP3 SWAP2 POP POP JUMP JUMPDEST PUSH1 0x0 DUP1 PUSH1 0x40 DUP4 DUP6 SUB SLT ISZERO PUSH2 0x1D6E JUMPI PUSH2 0x1D6D PUSH2 0x1B61 JUMP JUMPDEST JUMPDEST PUSH1 0x0 PUSH2 0x1D7C DUP6 DUP3 DUP7 ADD PUSH2 0x1C2B JUMP JUMPDEST SWAP3 POP POP PUSH1 0x20 PUSH2 0x1D8D DUP6 DUP3 DUP7 ADD PUSH2 0x1CEB JUMP JUMPDEST SWAP2 POP POP SWAP3 POP SWAP3 SWAP1 POP JUMP JUMPDEST PUSH1 0x0 DUP2 ISZERO ISZERO SWAP1 POP SWAP2 SWAP1 POP JUMP JUMPDEST PUSH2 0x1DAC DUP2 PUSH2 0x1D97 JUMP JUMPDEST DUP3 MSTORE POP POP JUMP JUMPDEST PUSH1 0x0 DUP2 SWAP1 POP SWAP2 SWAP1 POP JUMP JUMPDEST PUSH1 0x0 PUSH2 0x1DD7 PUSH2 0x1DD2 PUSH2 0x1DCD DUP5 PUSH2 0x1BD0 JUMP JUMPDEST PUSH2 0x1DB2 JUMP JUMPDEST PUSH2 0x1BD0 JUMP JUMPDEST SWAP1 POP SWAP2 SWAP1 POP JUMP JUMPDEST PUSH1 0x0 PUSH2 0x1DE9 DUP3 PUSH2 0x1DBC JUMP JUMPDEST SWAP1 POP SWAP2 SWAP1 POP JUMP JUMPDEST PUSH1 0x0 PUSH2 0x1DFB DUP3 PUSH2 0x1DDE JUMP JUMPDEST SWAP1 POP SWAP2 SWAP1 POP JUMP JUMPDEST PUSH2 0x1E0B DUP2 PUSH2 0x1DF0 JUMP JUMPDEST DUP3 MSTORE POP POP JUMP JUMPDEST PUSH1 0x0 PUSH1 0xA0 DUP3 ADD SWAP1 POP PUSH2 0x1E26 PUSH1 0x0 DUP4 ADD DUP9 PUSH2 0x1D2D JUMP JUMPDEST PUSH2 0x1E33 PUSH1 0x20 DUP4 ADD DUP8 PUSH2 0x1CAA JUMP JUMPDEST PUSH2 0x1E40 PUSH1 0x40 DUP4 ADD DUP7 PUSH2 0x1CAA JUMP JUMPDEST PUSH2 0x1E4D PUSH1 0x60 DUP4 ADD DUP6 PUSH2 0x1DA3 JUMP JUMPDEST PUSH2 0x1E5A PUSH1 0x80 DUP4 ADD DUP5 PUSH2 0x1E02 JUMP JUMPDEST SWAP7 SWAP6 POP POP POP POP POP POP JUMP JUMPDEST PUSH1 0x0 DUP1 PUSH1 0x40 DUP4 DUP6 SUB SLT ISZERO PUSH2 0x1E7B JUMPI PUSH2 0x1E7A PUSH2 0x1B61 JUMP JUMPDEST JUMPDEST PUSH1 0x0 PUSH2 0x1E89 DUP6 DUP3 DUP7 ADD PUSH2 0x1CEB JUMP JUMPDEST SWAP3 POP POP PUSH1 0x20 PUSH2 0x1E9A DUP6 DUP3 DUP7 ADD PUSH2 0x1C2B JUMP JUMPDEST SWAP2 POP POP SWAP3 POP SWAP3 SWAP1 POP JUMP JUMPDEST PUSH1 0x0 PUSH1 0x1F NOT PUSH1 0x1F DUP4 ADD AND SWAP1 POP SWAP2 SWAP1 POP JUMP JUMPDEST PUSH32 0x4E487B7100000000000000000000000000000000000000000000000000000000 PUSH1 0x0 MSTORE PUSH1 0x41 PUSH1 0x4 MSTORE PUSH1 0x24 PUSH1 0x0 REVERT JUMPDEST PUSH2 0x1EED DUP3 PUSH2 0x1EA4 JUMP JUMPDEST DUP2 ADD DUP2 DUP2 LT PUSH8 0xFFFFFFFFFFFFFFFF DUP3 GT OR ISZERO PUSH2 0x1F0C JUMPI PUSH2 0x1F0B PUSH2 0x1EB5 JUMP JUMPDEST JUMPDEST DUP1 PUSH1 0x40 MSTORE POP POP POP JUMP JUMPDEST PUSH1 0x0 PUSH2 0x1F1F PUSH2 0x1B57 JUMP JUMPDEST SWAP1 POP PUSH2 0x1F2B DUP3 DUP3 PUSH2 0x1EE4 JUMP JUMPDEST SWAP2 SWAP1 POP JUMP JUMPDEST PUSH1 0x0 PUSH8 0xFFFFFFFFFFFFFFFF DUP3 GT ISZERO PUSH2 0x1F4B JUMPI PUSH2 0x1F4A PUSH2 0x1EB5 JUMP JUMPDEST JUMPDEST PUSH1 0x20 DUP3 MUL SWAP1 POP PUSH1 0x20 DUP2 ADD SWAP1 POP SWAP2 SWAP1 POP JUMP JUMPDEST PUSH2 0x1F65 DUP2 PUSH2 0x1BF0 JUMP JUMPDEST DUP2 EQ PUSH2 0x1F70 JUMPI PUSH1 0x0 DUP1 REVERT JUMPDEST POP JUMP JUMPDEST PUSH1 0x0 DUP2 CALLDATALOAD SWAP1 POP PUSH2 0x1F82 DUP2 PUSH2 0x1F5C JUMP JUMPDEST SWAP3 SWAP2 POP POP JUMP JUMPDEST PUSH1 0x0 PUSH2 0x1F9B PUSH2 0x1F96 DUP5 PUSH2 0x1F30 JUMP JUMPDEST PUSH2 0x1F15 JUMP JUMPDEST SWAP1 POP DUP1 DUP4 DUP3 MSTORE PUSH1 0x20 DUP3 ADD SWAP1 POP PUSH1 0x20 DUP5 MUL DUP4 ADD DUP6 DUP2 GT ISZERO PUSH2 0x1FBE JUMPI PUSH2 0x1FBD PUSH2 0x1B75 JUMP JUMPDEST JUMPDEST DUP4 JUMPDEST DUP2 DUP2 LT ISZERO PUSH2 0x1FE7 JUMPI DUP1 PUSH2 0x1FD3 DUP9 DUP3 PUSH2 0x1F73 JUMP JUMPDEST DUP5 MSTORE PUSH1 0x20 DUP5 ADD SWAP4 POP POP PUSH1 0x20 DUP2 ADD SWAP1 POP PUSH2 0x1FC0 JUMP JUMPDEST POP POP POP SWAP4 SWAP3 POP POP POP JUMP JUMPDEST PUSH1 0x0 DUP3 PUSH1 0x1F DUP4 ADD SLT PUSH2 0x2006 JUMPI PUSH2 0x2005 PUSH2 0x1B6B JUMP JUMPDEST JUMPDEST DUP2 CALLDATALOAD PUSH2 0x2016 DUP5 DUP3 PUSH1 0x20 DUP7 ADD PUSH2 0x1F88 JUMP JUMPDEST SWAP2 POP POP SWAP3 SWAP2 POP POP JUMP JUMPDEST PUSH1 0x0 PUSH8 0xFFFFFFFFFFFFFFFF DUP3 GT ISZERO PUSH2 0x203A JUMPI PUSH2 0x2039 PUSH2 0x1EB5 JUMP JUMPDEST JUMPDEST PUSH1 0x20 DUP3 MUL SWAP1 POP PUSH1 0x20 DUP2 ADD SWAP1 POP SWAP2 SWAP1 POP JUMP JUMPDEST PUSH1 0x0 PUSH2 0x205E PUSH2 0x2059 DUP5 PUSH2 0x201F JUMP JUMPDEST PUSH2 0x1F15 JUMP JUMPDEST SWAP1 POP DUP1 DUP4 DUP3 MSTORE PUSH1 0x20 DUP3 ADD SWAP1 POP PUSH1 0x20 DUP5 MUL DUP4 ADD DUP6 DUP2 GT ISZERO PUSH2 0x2081 JUMPI PUSH2 0x2080 PUSH2 0x1B75 JUMP JUMPDEST JUMPDEST DUP4 JUMPDEST DUP2 DUP2 LT ISZERO PUSH2 0x20AA JUMPI DUP1 PUSH2 0x2096 DUP9 DUP3 PUSH2 0x1CEB JUMP JUMPDEST DUP5 MSTORE PUSH1 0x20 DUP5 ADD SWAP4 POP POP PUSH1 0x20 DUP2 ADD SWAP1 POP PUSH2 0x2083 JUMP JUMPDEST POP POP POP SWAP4 SWAP3 POP POP POP JUMP JUMPDEST PUSH1 0x0 DUP3 PUSH1 0x1F DUP4 ADD SLT PUSH2 0x20C9 JUMPI PUSH2 0x20C8 PUSH2 0x1B6B JUMP JUMPDEST JUMPDEST DUP2 CALLDATALOAD PUSH2 0x20D9 DUP5 DUP3 PUSH1 0x20 DUP7 ADD PUSH2 0x204B JUMP JUMPDEST SWAP2 POP POP SWAP3 SWAP2 POP POP JUMP JUMPDEST PUSH1 0x0 DUP1 PUSH1 0x0 DUP1 PUSH1 0x0 PUSH1 0xA0 DUP7 DUP9 SUB SLT ISZERO PUSH2 0x20FE JUMPI PUSH2 0x20FD PUSH2 0x1B61 JUMP JUMPDEST JUMPDEST PUSH1 0x0 DUP7 ADD CALLDATALOAD PUSH8 0xFFFFFFFFFFFFFFFF DUP2 GT ISZERO PUSH2 0x211C JUMPI PUSH2 0x211B PUSH2 0x1B66 JUMP JUMPDEST JUMPDEST PUSH2 0x2128 DUP9 DUP3 DUP10 ADD PUSH2 0x1FF1 JUMP JUMPDEST SWAP6 POP POP PUSH1 0x20 DUP7 ADD CALLDATALOAD PUSH8 0xFFFFFFFFFFFFFFFF DUP2 GT ISZERO PUSH2 0x2149 JUMPI PUSH2 0x2148 PUSH2 0x1B66 JUMP JUMPDEST JUMPDEST PUSH2 0x2155 DUP9 DUP3 DUP10 ADD PUSH2 0x1FF1 JUMP JUMPDEST SWAP5 POP POP PUSH1 0x40 DUP7 ADD CALLDATALOAD PUSH8 0xFFFFFFFFFFFFFFFF DUP2 GT ISZERO PUSH2 0x2176 JUMPI PUSH2 0x2175 PUSH2 0x1B66 JUMP JUMPDEST JUMPDEST PUSH2 0x2182 DUP9 DUP3 DUP10 ADD PUSH2 0x20B4 JUMP JUMPDEST SWAP4 POP POP PUSH1 0x60 DUP7 ADD CALLDATALOAD PUSH8 0xFFFFFFFFFFFFFFFF DUP2 GT ISZERO PUSH2 0x21A3 JUMPI PUSH2 0x21A2 PUSH2 0x1B66 JUMP JUMPDEST JUMPDEST PUSH2 0x21AF DUP9 DUP3 DUP10 ADD PUSH2 0x20B4 JUMP JUMPDEST SWAP3 POP POP PUSH1 0x80 PUSH2 0x21C0 DUP9 DUP3 DUP10 ADD PUSH2 0x1CEB JUMP JUMPDEST SWAP2 POP POP SWAP3 SWAP6 POP SWAP3 SWAP6 SWAP1 SWAP4 POP JUMP JUMPDEST PUSH1 0x0 PUSH1 0x20 DUP3 DUP5 SUB SLT ISZERO PUSH2 0x21E3 JUMPI PUSH2 0x21E2 PUSH2 0x1B61 JUMP JUMPDEST JUMPDEST PUSH1 0x0 PUSH2 0x21F1 DUP5 DUP3 DUP6 ADD PUSH2 0x1C2B JUMP JUMPDEST SWAP2 POP POP SWAP3 SWAP2 POP POP JUMP JUMPDEST PUSH1 0x0 PUSH2 0x2205 DUP3 PUSH2 0x1DDE JUMP JUMPDEST SWAP1 POP SWAP2 SWAP1 POP JUMP JUMPDEST PUSH2 0x2215 DUP2 PUSH2 0x21FA JUMP JUMPDEST DUP3 MSTORE POP POP JUMP JUMPDEST PUSH1 0x0 PUSH1 0x60 DUP3 ADD SWAP1 POP PUSH2 0x2230 PUSH1 0x0 DUP4 ADD DUP7 PUSH2 0x220C JUMP JUMPDEST PUSH2 0x223D PUSH1 0x20 DUP4 ADD DUP6 PUSH2 0x1CAA JUMP JUMPDEST PUSH2 0x224A PUSH1 0x40 DUP4 ADD DUP5 PUSH2 0x1CAA JUMP JUMPDEST SWAP5 SWAP4 POP POP POP POP JUMP JUMPDEST PUSH1 0x0 PUSH1 0x20 DUP3 DUP5 SUB SLT ISZERO PUSH2 0x2268 JUMPI PUSH2 0x2267 PUSH2 0x1B61 JUMP JUMPDEST JUMPDEST PUSH1 0x0 PUSH2 0x2276 DUP5 DUP3 DUP6 ADD PUSH2 0x1F73 JUMP JUMPDEST SWAP2 POP POP SWAP3 SWAP2 POP POP JUMP JUMPDEST PUSH1 0x0 DUP3 DUP3 MSTORE PUSH1 0x20 DUP3 ADD SWAP1 POP SWAP3 SWAP2 POP POP JUMP JUMPDEST PUSH32 0x436F6E7472616374206E6F7420616C6C6F776564000000000000000000000000 PUSH1 0x0 DUP3 ADD MSTORE POP JUMP JUMPDEST PUSH1 0x0 PUSH2 0x22C6 PUSH1 0x14 DUP4 PUSH2 0x227F JUMP JUMPDEST SWAP2 POP PUSH2 0x22D1 DUP3 PUSH2 0x2290 JUMP JUMPDEST PUSH1 0x20 DUP3 ADD SWAP1 POP SWAP2 SWAP1 POP JUMP JUMPDEST PUSH1 0x0 PUSH1 0x20 DUP3 ADD SWAP1 POP DUP2 DUP2 SUB PUSH1 0x0 DUP4 ADD MSTORE PUSH2 0x22F5 DUP2 PUSH2 0x22B9 JUMP JUMPDEST SWAP1 POP SWAP2 SWAP1 POP JUMP JUMPDEST PUSH32 0x50726F787920636F6E7472616374206E6F7420616C6C6F776564000000000000 PUSH1 0x0 DUP3 ADD MSTORE POP JUMP JUMPDEST PUSH1 0x0 PUSH2 0x2332 PUSH1 0x1A DUP4 PUSH2 0x227F JUMP JUMPDEST SWAP2 POP PUSH2 0x233D DUP3 PUSH2 0x22FC JUMP JUMPDEST PUSH1 0x20 DUP3 ADD SWAP1 POP SWAP2 SWAP1 POP JUMP JUMPDEST PUSH1 0x0 PUSH1 0x20 DUP3 ADD SWAP1 POP DUP2 DUP2 SUB PUSH1 0x0 DUP4 ADD MSTORE PUSH2 0x2361 DUP2 PUSH2 0x2325 JUMP JUMPDEST SWAP1 POP SWAP2 SWAP1 POP JUMP JUMPDEST PUSH32 0x4E6F20746F6B656E730000000000000000000000000000000000000000000000 PUSH1 0x0 DUP3 ADD MSTORE POP JUMP JUMPDEST PUSH1 0x0 PUSH2 0x239E PUSH1 0x9 DUP4 PUSH2 0x227F JUMP JUMPDEST SWAP2 POP PUSH2 0x23A9 DUP3 PUSH2 0x2368 JUMP JUMPDEST PUSH1 0x20 DUP3 ADD SWAP1 POP SWAP2 SWAP1 POP JUMP JUMPDEST PUSH1 0x0 PUSH1 0x20 DUP3 ADD SWAP1 POP DUP2 DUP2 SUB PUSH1 0x0 DUP4 ADD MSTORE PUSH2 0x23CD DUP2 PUSH2 0x2391 JUMP JUMPDEST SWAP1 POP SWAP2 SWAP1 POP JUMP JUMPDEST PUSH32 0x4E487B7100000000000000000000000000000000000000000000000000000000 PUSH1 0x0 MSTORE PUSH1 0x32 PUSH1 0x4 MSTORE PUSH1 0x24 PUSH1 0x0 REVERT JUMPDEST PUSH32 0x4E6F74206120746F6B656E206F776E6572000000000000000000000000000000 PUSH1 0x0 DUP3 ADD MSTORE POP JUMP JUMPDEST PUSH1 0x0 PUSH2 0x2439 PUSH1 0x11 DUP4 PUSH2 0x227F JUMP JUMPDEST SWAP2 POP PUSH2 0x2444 DUP3 PUSH2 0x2403 JUMP JUMPDEST PUSH1 0x20 DUP3 ADD SWAP1 POP SWAP2 SWAP1 POP JUMP JUMPDEST PUSH1 0x0 PUSH1 0x20 DUP3 ADD SWAP1 POP DUP2 DUP2 SUB PUSH1 0x0 DUP4 ADD MSTORE PUSH2 0x2468 DUP2 PUSH2 0x242C JUMP JUMPDEST SWAP1 POP SWAP2 SWAP1 POP JUMP JUMPDEST PUSH32 0x4E487B7100000000000000000000000000000000000000000000000000000000 PUSH1 0x0 MSTORE PUSH1 0x11 PUSH1 0x4 MSTORE PUSH1 0x24 PUSH1 0x0 REVERT JUMPDEST PUSH1 0x0 PUSH2 0x24A9 DUP3 PUSH2 0x1CA0 JUMP JUMPDEST SWAP2 POP PUSH2 0x24B4 DUP4 PUSH2 0x1CA0 JUMP JUMPDEST SWAP3 POP DUP3 DUP3 ADD SWAP1 POP DUP1 DUP3 GT ISZERO PUSH2 0x24CC JUMPI PUSH2 0x24CB PUSH2 0x246F JUMP JUMPDEST JUMPDEST SWAP3 SWAP2 POP POP JUMP JUMPDEST PUSH32 0x4E6F742061626C6520746F20636C61696D207965740000000000000000000000 PUSH1 0x0 DUP3 ADD MSTORE POP JUMP JUMPDEST PUSH1 0x0 PUSH2 0x2508 PUSH1 0x15 DUP4 PUSH2 0x227F JUMP JUMPDEST SWAP2 POP PUSH2 0x2513 DUP3 PUSH2 0x24D2 JUMP JUMPDEST PUSH1 0x20 DUP3 ADD SWAP1 POP SWAP2 SWAP1 POP JUMP JUMPDEST PUSH1 0x0 PUSH1 0x20 DUP3 ADD SWAP1 POP DUP2 DUP2 SUB PUSH1 0x0 DUP4 ADD MSTORE PUSH2 0x2537 DUP2 PUSH2 0x24FB JUMP JUMPDEST SWAP1 POP SWAP2 SWAP1 POP JUMP JUMPDEST PUSH32 0x416C726561647920756E6C6F636B656400000000000000000000000000000000 PUSH1 0x0 DUP3 ADD MSTORE POP JUMP JUMPDEST PUSH1 0x0 PUSH2 0x2574 PUSH1 0x10 DUP4 PUSH2 0x227F JUMP JUMPDEST SWAP2 POP PUSH2 0x257F DUP3 PUSH2 0x253E JUMP JUMPDEST PUSH1 0x20 DUP3 ADD SWAP1 POP SWAP2 SWAP1 POP JUMP JUMPDEST PUSH1 0x0 PUSH1 0x20 DUP3 ADD SWAP1 POP DUP2 DUP2 SUB PUSH1 0x0 DUP4 ADD MSTORE PUSH2 0x25A3 DUP2 PUSH2 0x2567 JUMP JUMPDEST SWAP1 POP SWAP2 SWAP1 POP JUMP JUMPDEST PUSH1 0x0 PUSH2 0x25B5 DUP3 PUSH2 0x1CA0 JUMP JUMPDEST SWAP2 POP PUSH2 0x25C0 DUP4 PUSH2 0x1CA0 JUMP JUMPDEST SWAP3 POP DUP3 DUP3 SUB SWAP1 POP DUP2 DUP2 GT ISZERO PUSH2 0x25D8 JUMPI PUSH2 0x25D7 PUSH2 0x246F JUMP JUMPDEST JUMPDEST SWAP3 SWAP2 POP POP JUMP JUMPDEST PUSH1 0x0 PUSH1 0x40 DUP3 ADD SWAP1 POP PUSH2 0x25F3 PUSH1 0x0 DUP4 ADD DUP6 PUSH2 0x1D2D JUMP JUMPDEST PUSH2 0x2600 PUSH1 0x20 DUP4 ADD DUP5 PUSH2 0x1CAA JUMP JUMPDEST SWAP4 SWAP3 POP POP POP JUMP JUMPDEST PUSH1 0x0 PUSH2 0x2612 DUP3 PUSH2 0x1CA0 JUMP JUMPDEST SWAP2 POP PUSH32 0xFFFFFFFFFFFFFFFFFFFFFFFFFFFFFFFFFFFFFFFFFFFFFFFFFFFFFFFFFFFFFFFF DUP3 SUB PUSH2 0x2644 JUMPI PUSH2 0x2643 PUSH2 0x246F JUMP JUMPDEST JUMPDEST PUSH1 0x1 DUP3 ADD SWAP1 POP SWAP2 SWAP1 POP JUMP JUMPDEST PUSH1 0x0 DUP3 DUP3 MSTORE PUSH1 0x20 DUP3 ADD SWAP1 POP SWAP3 SWAP2 POP POP JUMP JUMPDEST PUSH1 0x0 DUP1 REVERT JUMPDEST DUP3 DUP2 DUP4 CALLDATACOPY POP POP POP JUMP JUMPDEST PUSH1 0x0 PUSH2 0x267A DUP4 DUP6 PUSH2 0x264F JUMP JUMPDEST SWAP4 POP PUSH32 0x7FFFFFFFFFFFFFFFFFFFFFFFFFFFFFFFFFFFFFFFFFFFFFFFFFFFFFFFFFFFFFF DUP4 GT ISZERO PUSH2 0x26AD JUMPI PUSH2 0x26AC PUSH2 0x2660 JUMP JUMPDEST JUMPDEST PUSH1 0x20 DUP4 MUL SWAP3 POP PUSH2 0x26BE DUP4 DUP6 DUP5 PUSH2 0x2665 JUMP JUMPDEST DUP3 DUP5 ADD SWAP1 POP SWAP4 SWAP3 POP POP POP JUMP JUMPDEST PUSH1 0x0 PUSH1 0x40 DUP3 ADD SWAP1 POP DUP2 DUP2 SUB PUSH1 0x0 DUP4 ADD MSTORE PUSH2 0x26E5 DUP2 DUP6 DUP8 PUSH2 0x266E JUMP JUMPDEST SWAP1 POP PUSH2 0x26F4 PUSH1 0x20 DUP4 ADD DUP5 PUSH2 0x1CAA JUMP JUMPDEST SWAP5 SWAP4 POP POP POP POP JUMP JUMPDEST PUSH32 0x5265656E7472616E637947756172643A207265656E7472616E742063616C6C00 PUSH1 0x0 DUP3 ADD MSTORE POP JUMP JUMPDEST PUSH1 0x0 PUSH2 0x2732 PUSH1 0x1F DUP4 PUSH2 0x227F JUMP JUMPDEST SWAP2 POP PUSH2 0x273D DUP3 PUSH2 0x26FC JUMP JUMPDEST PUSH1 0x20 DUP3 ADD SWAP1 POP SWAP2 SWAP1 POP JUMP JUMPDEST PUSH1 0x0 PUSH1 0x20 DUP3 ADD SWAP1 POP DUP2 DUP2 SUB PUSH1 0x0 DUP4 ADD MSTORE PUSH2 0x2761 DUP2 PUSH2 0x2725 JUMP JUMPDEST SWAP1 POP SWAP2 SWAP1 POP JUMP JUMPDEST PUSH1 0x0 DUP2 MLOAD SWAP1 POP PUSH2 0x2777 DUP2 PUSH2 0x1F5C JUMP JUMPDEST SWAP3 SWAP2 POP POP JUMP JUMPDEST PUSH1 0x0 PUSH1 0x20 DUP3 DUP5 SUB SLT ISZERO PUSH2 0x2793 JUMPI PUSH2 0x2792 PUSH2 0x1B61 JUMP JUMPDEST JUMPDEST PUSH1 0x0 PUSH2 0x27A1 DUP5 DUP3 DUP6 ADD PUSH2 0x2768 JUMP JUMPDEST SWAP2 POP POP SWAP3 SWAP2 POP POP JUMP JUMPDEST PUSH32 0x596F7520646F6E277420686F6C64207468697320746F6B656E00000000000000 PUSH1 0x0 DUP3 ADD MSTORE POP JUMP JUMPDEST PUSH1 0x0 PUSH2 0x27E0 PUSH1 0x19 DUP4 PUSH2 0x227F JUMP JUMPDEST SWAP2 POP PUSH2 0x27EB DUP3 PUSH2 0x27AA JUMP JUMPDEST PUSH1 0x20 DUP3 ADD SWAP1 POP SWAP2 SWAP1 POP JUMP JUMPDEST PUSH1 0x0 PUSH1 0x20 DUP3 ADD SWAP1 POP DUP2 DUP2 SUB PUSH1 0x0 DUP4 ADD MSTORE PUSH2 0x280F DUP2 PUSH2 0x27D3 JUMP JUMPDEST SWAP1 POP SWAP2 SWAP1 POP JUMP JUMPDEST PUSH1 0x0 PUSH1 0x60 DUP3 ADD SWAP1 POP PUSH2 0x282B PUSH1 0x0 DUP4 ADD DUP7 PUSH2 0x1D2D JUMP JUMPDEST PUSH2 0x2838 PUSH1 0x20 DUP4 ADD DUP6 PUSH2 0x1D2D JUMP JUMPDEST PUSH2 0x2845 PUSH1 0x40 DUP4 ADD DUP5 PUSH2 0x1CAA JUMP JUMPDEST SWAP5 SWAP4 POP POP POP POP JUMP JUMPDEST PUSH1 0x0 PUSH1 0x20 DUP3 ADD SWAP1 POP DUP2 DUP2 SUB PUSH1 0x0 DUP4 ADD MSTORE PUSH2 0x2868 DUP2 DUP5 DUP7 PUSH2 0x266E JUMP JUMPDEST SWAP1 POP SWAP4 SWAP3 POP POP POP JUMP JUMPDEST PUSH32 0x496E76616C6964206C6F636B20706572696F642E000000000000000000000000 PUSH1 0x0 DUP3 ADD MSTORE POP JUMP JUMPDEST PUSH1 0x0 PUSH2 0x28A7 PUSH1 0x14 DUP4 PUSH2 0x227F JUMP JUMPDEST SWAP2 POP PUSH2 0x28B2 DUP3 PUSH2 0x2871 JUMP JUMPDEST PUSH1 0x20 DUP3 ADD SWAP1 POP SWAP2 SWAP1 POP JUMP JUMPDEST PUSH1 0x0 PUSH1 0x20 DUP3 ADD SWAP1 POP DUP2 DUP2 SUB PUSH1 0x0 DUP4 ADD MSTORE PUSH2 0x28D6 DUP2 PUSH2 0x289A JUMP JUMPDEST SWAP1 POP SWAP2 SWAP1 POP JUMP JUMPDEST PUSH32 0x4E6F742061626C6520746F20756E6C6F636B2079657400000000000000000000 PUSH1 0x0 DUP3 ADD MSTORE POP JUMP JUMPDEST PUSH1 0x0 PUSH2 0x2913 PUSH1 0x16 DUP4 PUSH2 0x227F JUMP JUMPDEST SWAP2 POP PUSH2 0x291E DUP3 PUSH2 0x28DD JUMP JUMPDEST PUSH1 0x20 DUP3 ADD SWAP1 POP SWAP2 SWAP1 POP JUMP JUMPDEST PUSH1 0x0 PUSH1 0x20 DUP3 ADD SWAP1 POP DUP2 DUP2 SUB PUSH1 0x0 DUP4 ADD MSTORE PUSH2 0x2942 DUP2 PUSH2 0x2906 JUMP JUMPDEST SWAP1 POP SWAP2 SWAP1 POP JUMP JUMPDEST PUSH32 0x4F776E61626C653A206E6577206F776E657220697320746865207A65726F2061 PUSH1 0x0 DUP3 ADD MSTORE PUSH32 0x6464726573730000000000000000000000000000000000000000000000000000 PUSH1 0x20 DUP3 ADD MSTORE POP JUMP JUMPDEST PUSH1 0x0 PUSH2 0x29A5 PUSH1 0x26 DUP4 PUSH2 0x227F JUMP JUMPDEST SWAP2 POP PUSH2 0x29B0 DUP3 PUSH2 0x2949 JUMP JUMPDEST PUSH1 0x40 DUP3 ADD SWAP1 POP SWAP2 SWAP1 POP JUMP JUMPDEST PUSH1 0x0 PUSH1 0x20 DUP3 ADD SWAP1 POP DUP2 DUP2 SUB PUSH1 0x0 DUP4 ADD MSTORE PUSH2 0x29D4 DUP2 PUSH2 0x2998 JUMP JUMPDEST SWAP1 POP SWAP2 SWAP1 POP JUMP JUMPDEST PUSH1 0x0 PUSH2 0x29E6 DUP3 PUSH2 0x1CA0 JUMP JUMPDEST SWAP2 POP PUSH2 0x29F1 DUP4 PUSH2 0x1CA0 JUMP JUMPDEST SWAP3 POP DUP2 PUSH32 0xFFFFFFFFFFFFFFFFFFFFFFFFFFFFFFFFFFFFFFFFFFFFFFFFFFFFFFFFFFFFFFFF DIV DUP4 GT DUP3 ISZERO ISZERO AND ISZERO PUSH2 0x2A2A JUMPI PUSH2 0x2A29 PUSH2 0x246F JUMP JUMPDEST JUMPDEST DUP3 DUP3 MUL SWAP1 POP SWAP3 SWAP2 POP POP JUMP JUMPDEST PUSH32 0x4E487B7100000000000000000000000000000000000000000000000000000000 PUSH1 0x0 MSTORE PUSH1 0x12 PUSH1 0x4 MSTORE PUSH1 0x24 PUSH1 0x0 REVERT JUMPDEST PUSH1 0x0 PUSH2 0x2A6F DUP3 PUSH2 0x1CA0 JUMP JUMPDEST SWAP2 POP PUSH2 0x2A7A DUP4 PUSH2 0x1CA0 JUMP JUMPDEST SWAP3 POP DUP3 PUSH2 0x2A8A JUMPI PUSH2 0x2A89 PUSH2 0x2A35 JUMP JUMPDEST JUMPDEST DUP3 DUP3 DIV SWAP1 POP SWAP3 SWAP2 POP POP JUMP JUMPDEST PUSH32 0x4F776E61626C653A2063616C6C6572206973206E6F7420746865206F776E6572 PUSH1 0x0 DUP3 ADD MSTORE POP JUMP JUMPDEST PUSH1 0x0 PUSH2 0x2ACB PUSH1 0x20 DUP4 PUSH2 0x227F JUMP JUMPDEST SWAP2 POP PUSH2 0x2AD6 DUP3 PUSH2 0x2A95 JUMP JUMPDEST PUSH1 0x20 DUP3 ADD SWAP1 POP SWAP2 SWAP1 POP JUMP JUMPDEST PUSH1 0x0 PUSH1 0x20 DUP3 ADD SWAP1 POP DUP2 DUP2 SUB PUSH1 0x0 DUP4 ADD MSTORE PUSH2 0x2AFA DUP2 PUSH2 0x2ABE JUMP JUMPDEST SWAP1 POP SWAP2 SWAP1 POP JUMP INVALID LOG2 PUSH5 0x6970667358 0x22 SLT KECCAK256 EXTCODEHASH 0xD6 0xD0 SWAP2 SWAP7 EXP MSTORE8 0xD0 SWAP13 MULMOD PUSH4 0xE90A9151 0xEC 0xE MOD 0xC2 0x26 0xD0 CALLER 0xE1 0xA9 ISZERO ADDRESS LOG4 0xAE PUSH23 0xF4BCCD64736F6C63430008100033000000000000000000 "
				},
				"gasEstimates": {
					"creation": {
						"codeDepositCost": "2212600",
						"executionCost": "infinite",
						"totalCost": "infinite"
					},
					"external": {
						"WAVE()": "2473",
						"claimRewards(uint256[],address)": "infinite",
						"claimedRewards(uint256,address)": "infinite",
						"lockInfo(address,uint256)": "infinite",
						"lockNFT(uint256[],address)": "infinite",
						"lockPeriod()": "2474",
						"nftInfo(address)": "infinite",
						"owner()": "2633",
						"renounceOwnership()": "30465",
						"setLockPeriod(address[],address[],uint256[],uint256[],uint256)": "infinite",
						"setLockPeriod(uint256)": "infinite",
						"transferOwnership(address)": "30832",
						"unlockNFT(uint256[],address)": "infinite"
					},
					"internal": {
						"_rewardAmount(uint256,contract IERC721)": "infinite"
					}
				},
				"methodIdentifiers": {
					"WAVE()": "c69d1923",
					"claimRewards(uint256[],address)": "0520537f",
					"claimedRewards(uint256,address)": "b33068c4",
					"lockInfo(address,uint256)": "b2520a7c",
					"lockNFT(uint256[],address)": "1902732e",
					"lockPeriod()": "3fd8b02f",
					"nftInfo(address)": "e9545b92",
					"owner()": "8da5cb5b",
					"renounceOwnership()": "715018a6",
					"setLockPeriod(address[],address[],uint256[],uint256[],uint256)": "c35e750f",
					"setLockPeriod(uint256)": "779972da",
					"transferOwnership(address)": "f2fde38b",
					"unlockNFT(uint256[],address)": "9f3625f0"
				}
			},
			"storageLayout": {
				"storage": [
					{
						"astId": 7,
						"contract": "contracts/Staking.sol:NFTStaking1",
						"label": "_owner",
						"offset": 0,
						"slot": "0",
						"type": "t_address"
					},
					{
						"astId": 123,
						"contract": "contracts/Staking.sol:NFTStaking1",
						"label": "_status",
						"offset": 0,
						"slot": "1",
						"type": "t_uint256"
					},
					{
						"astId": 614,
						"contract": "contracts/Staking.sol:NFTStaking1",
						"label": "lockPeriod",
						"offset": 0,
						"slot": "2",
						"type": "t_uint256"
					},
					{
						"astId": 634,
						"contract": "contracts/Staking.sol:NFTStaking1",
						"label": "lockInfo",
						"offset": 0,
						"slot": "3",
						"type": "t_mapping(t_contract(IERC721)268,t_mapping(t_uint256,t_struct(LockInfo)626_storage))"
					},
					{
						"astId": 648,
						"contract": "contracts/Staking.sol:NFTStaking1",
						"label": "nftInfo",
						"offset": 0,
						"slot": "4",
						"type": "t_mapping(t_contract(IERC721)268,t_struct(stakeNftInfo)642_storage)"
					},
					{
						"astId": 651,
						"contract": "contracts/Staking.sol:NFTStaking1",
						"label": "WAVE",
						"offset": 0,
						"slot": "5",
						"type": "t_uint256"
					}
				],
				"types": {
					"t_address": {
						"encoding": "inplace",
						"label": "address",
						"numberOfBytes": "20"
					},
					"t_bool": {
						"encoding": "inplace",
						"label": "bool",
						"numberOfBytes": "1"
					},
					"t_contract(IERC721)268": {
						"encoding": "inplace",
						"label": "contract IERC721",
						"numberOfBytes": "20"
					},
					"t_contract(IRewardsToken)1348": {
						"encoding": "inplace",
						"label": "contract IRewardsToken",
						"numberOfBytes": "20"
					},
					"t_mapping(t_contract(IERC721)268,t_mapping(t_uint256,t_struct(LockInfo)626_storage))": {
						"encoding": "mapping",
						"key": "t_contract(IERC721)268",
						"label": "mapping(contract IERC721 => mapping(uint256 => struct NFTStaking1.LockInfo))",
						"numberOfBytes": "32",
						"value": "t_mapping(t_uint256,t_struct(LockInfo)626_storage)"
					},
					"t_mapping(t_contract(IERC721)268,t_struct(stakeNftInfo)642_storage)": {
						"encoding": "mapping",
						"key": "t_contract(IERC721)268",
						"label": "mapping(contract IERC721 => struct NFTStaking1.stakeNftInfo)",
						"numberOfBytes": "32",
						"value": "t_struct(stakeNftInfo)642_storage"
					},
					"t_mapping(t_uint256,t_struct(LockInfo)626_storage)": {
						"encoding": "mapping",
						"key": "t_uint256",
						"label": "mapping(uint256 => struct NFTStaking1.LockInfo)",
						"numberOfBytes": "32",
						"value": "t_struct(LockInfo)626_storage"
					},
					"t_struct(LockInfo)626_storage": {
						"encoding": "inplace",
						"label": "struct NFTStaking1.LockInfo",
						"members": [
							{
								"astId": 616,
								"contract": "contracts/Staking.sol:NFTStaking1",
								"label": "owner",
								"offset": 0,
								"slot": "0",
								"type": "t_address"
							},
							{
								"astId": 618,
								"contract": "contracts/Staking.sol:NFTStaking1",
								"label": "lockedTime",
								"offset": 0,
								"slot": "1",
								"type": "t_uint256"
							},
							{
								"astId": 620,
								"contract": "contracts/Staking.sol:NFTStaking1",
								"label": "claimedRewards",
								"offset": 0,
								"slot": "2",
								"type": "t_uint256"
							},
							{
								"astId": 622,
								"contract": "contracts/Staking.sol:NFTStaking1",
								"label": "isUnlocked",
								"offset": 0,
								"slot": "3",
								"type": "t_bool"
							},
							{
								"astId": 625,
								"contract": "contracts/Staking.sol:NFTStaking1",
								"label": "contractAddress",
								"offset": 1,
								"slot": "3",
								"type": "t_contract(IERC721)268"
							}
						],
						"numberOfBytes": "128"
					},
					"t_struct(stakeNftInfo)642_storage": {
						"encoding": "inplace",
						"label": "struct NFTStaking1.stakeNftInfo",
						"members": [
							{
								"astId": 637,
								"contract": "contracts/Staking.sol:NFTStaking1",
								"label": "rewardsToken",
								"offset": 0,
								"slot": "0",
								"type": "t_contract(IRewardsToken)1348"
							},
							{
								"astId": 639,
								"contract": "contracts/Staking.sol:NFTStaking1",
								"label": "rewardsPerWave",
								"offset": 0,
								"slot": "1",
								"type": "t_uint256"
							},
							{
								"astId": 641,
								"contract": "contracts/Staking.sol:NFTStaking1",
								"label": "rewardPercentage",
								"offset": 0,
								"slot": "2",
								"type": "t_uint256"
							}
						],
						"numberOfBytes": "96"
					},
					"t_uint256": {
						"encoding": "inplace",
						"label": "uint256",
						"numberOfBytes": "32"
					}
				}
			},
			"userdoc": {
				"kind": "user",
				"methods": {
					"WAVE()": {
						"notice": "CONSTANTS "
					}
				},
				"version": 1
			}
		}
	}
}