{
	"contracts/Staking.sol": {
		"NFTStaking1": {
			"abi": [
				{
					"inputs": [
						{
							"internalType": "address",
							"name": "_stakeNFT",
							"type": "address"
						},
						{
							"internalType": "address[]",
							"name": "_rewardsToken",
							"type": "address[]"
						},
						{
							"internalType": "uint256",
							"name": "_lockPeriod",
							"type": "uint256"
						},
						{
							"internalType": "uint256[]",
							"name": "_rewardPerWave",
							"type": "uint256[]"
						},
						{
							"internalType": "uint256",
							"name": "_wave",
							"type": "uint256"
						}
					],
					"stateMutability": "nonpayable",
					"type": "constructor"
				},
				{
					"anonymous": false,
					"inputs": [
						{
							"indexed": false,
							"internalType": "uint256",
							"name": "lockPeriod",
							"type": "uint256"
						}
					],
					"name": "LockPeriodUpdated",
					"type": "event"
				},
				{
					"anonymous": false,
					"inputs": [
						{
							"indexed": true,
							"internalType": "address",
							"name": "owner",
							"type": "address"
						},
						{
							"indexed": false,
							"internalType": "uint256[]",
							"name": "tokenIds",
							"type": "uint256[]"
						}
					],
					"name": "NFTLocked",
					"type": "event"
				},
				{
					"anonymous": false,
					"inputs": [
						{
							"indexed": true,
							"internalType": "address",
							"name": "owner",
							"type": "address"
						},
						{
							"indexed": false,
							"internalType": "uint256[]",
							"name": "tokenIds",
							"type": "uint256[]"
						}
					],
					"name": "NFTUnLocked",
					"type": "event"
				},
				{
					"anonymous": false,
					"inputs": [
						{
							"indexed": true,
							"internalType": "address",
							"name": "previousOwner",
							"type": "address"
						},
						{
							"indexed": true,
							"internalType": "address",
							"name": "newOwner",
							"type": "address"
						}
					],
					"name": "OwnershipTransferred",
					"type": "event"
				},
				{
					"anonymous": false,
					"inputs": [
						{
							"indexed": true,
							"internalType": "address",
							"name": "owner",
							"type": "address"
						},
						{
							"indexed": false,
							"internalType": "uint256[]",
							"name": "tokenIds",
							"type": "uint256[]"
						},
						{
							"indexed": false,
							"internalType": "uint256",
							"name": "rewards",
							"type": "uint256"
						}
					],
					"name": "RewardsClaimed",
					"type": "event"
				},
				{
					"inputs": [],
					"name": "WAVE",
					"outputs": [
						{
							"internalType": "uint256",
							"name": "",
							"type": "uint256"
						}
					],
					"stateMutability": "view",
					"type": "function"
				},
				{
					"inputs": [
						{
							"internalType": "uint256[]",
							"name": "_tokenIds",
							"type": "uint256[]"
						}
					],
					"name": "claimRewards",
					"outputs": [],
					"stateMutability": "nonpayable",
					"type": "function"
				},
				{
					"inputs": [
						{
							"internalType": "uint256",
							"name": "_tokenId",
							"type": "uint256"
						}
					],
					"name": "claimedRewards",
					"outputs": [
						{
							"internalType": "uint256",
							"name": "",
							"type": "uint256"
						}
					],
					"stateMutability": "view",
					"type": "function"
				},
				{
					"inputs": [
						{
							"internalType": "uint256[]",
							"name": "_tokenIds",
							"type": "uint256[]"
						}
					],
					"name": "lockNFT",
					"outputs": [],
					"stateMutability": "nonpayable",
					"type": "function"
				},
				{
					"inputs": [],
					"name": "lockPeriod",
					"outputs": [
						{
							"internalType": "uint256",
							"name": "",
							"type": "uint256"
						}
					],
					"stateMutability": "view",
					"type": "function"
				},
				{
					"inputs": [],
					"name": "owner",
					"outputs": [
						{
							"internalType": "address",
							"name": "",
							"type": "address"
						}
					],
					"stateMutability": "view",
					"type": "function"
				},
				{
					"inputs": [],
					"name": "renounceOwnership",
					"outputs": [],
					"stateMutability": "nonpayable",
					"type": "function"
				},
				{
					"inputs": [
						{
							"internalType": "uint256",
							"name": "",
							"type": "uint256"
						}
					],
					"name": "rewardsPerWave",
					"outputs": [
						{
							"internalType": "uint256",
							"name": "",
							"type": "uint256"
						}
					],
					"stateMutability": "view",
					"type": "function"
				},
				{
					"inputs": [
						{
							"internalType": "uint256",
							"name": "",
							"type": "uint256"
						}
					],
					"name": "rewardsToken",
					"outputs": [
						{
							"internalType": "contract IRewardsToken",
							"name": "",
							"type": "address"
						}
					],
					"stateMutability": "view",
					"type": "function"
				},
				{
					"inputs": [
						{
							"internalType": "uint256",
							"name": "_lockPeriod",
							"type": "uint256"
						}
					],
					"name": "setLockPeriod",
					"outputs": [],
					"stateMutability": "nonpayable",
					"type": "function"
				},
				{
					"inputs": [],
					"name": "stakeNFT",
					"outputs": [
						{
							"internalType": "contract IERC721",
							"name": "",
							"type": "address"
						}
					],
					"stateMutability": "view",
					"type": "function"
				},
				{
					"inputs": [
						{
							"internalType": "address",
							"name": "newOwner",
							"type": "address"
						}
					],
					"name": "transferOwnership",
					"outputs": [],
					"stateMutability": "nonpayable",
					"type": "function"
				},
				{
					"inputs": [
						{
							"internalType": "uint256[]",
							"name": "_tokenIds",
							"type": "uint256[]"
						}
					],
					"name": "unlockNFT",
					"outputs": [],
					"stateMutability": "nonpayable",
					"type": "function"
				}
			],
			"devdoc": {
				"kind": "dev",
				"methods": {
					"claimRewards(uint256[])": {
						"details": "claim rewards",
						"params": {
							"_tokenIds": "token ids to unlock"
						}
					},
					"claimedRewards(uint256)": {
						"details": "get total claimed rewards for token id",
						"params": {
							"_tokenId": "token id to get claimed Rewards amount"
						}
					},
					"lockNFT(uint256[])": {
						"details": "lock NFT into the contract",
						"params": {
							"_tokenIds": "token ids to stake"
						}
					},
					"owner()": {
						"details": "Returns the address of the current owner."
					},
					"renounceOwnership()": {
						"details": "Leaves the contract without owner. It will not be possible to call `onlyOwner` functions anymore. Can only be called by the current owner. NOTE: Renouncing ownership will leave the contract without an owner, thereby removing any functionality that is only available to the owner."
					},
					"setLockPeriod(uint256)": {
						"details": "update lock period",
						"params": {
							"_lockPeriod": "lock period to set"
						}
					},
					"transferOwnership(address)": {
						"details": "Transfers ownership of the contract to a new account (`newOwner`). Can only be called by the current owner."
					},
					"unlockNFT(uint256[])": {
						"details": "unlock NFT from the contract",
						"params": {
							"_tokenIds": "token ids to unlock"
						}
					}
				},
				"version": 1
			},
			"evm": {
				"assembly": "    /* \"contracts/Staking.sol\":412:6413  contract NFTStaking1 is Ownable, ReentrancyGuard {... */\n  mstore(0x40, 0xa0)\n    /* \"contracts/Staking.sol\":1435:2287  constructor(... */\n  callvalue\n  dup1\n  iszero\n  tag_1\n  jumpi\n  0x00\n  dup1\n  revert\ntag_1:\n  pop\n  mload(0x40)\n  sub(codesize, bytecodeSize)\n  dup1\n  bytecodeSize\n  dup4\n  codecopy\n  dup2\n  dup2\n  add\n  0x40\n  mstore\n  dup2\n  add\n  swap1\n  tag_2\n  swap2\n  swap1\n  tag_3\n  jump\t// in\ntag_2:\n    /* \"@openzeppelin/contracts/access/Ownable.sol\":936:968  _transferOwnership(_msgSender()) */\n  tag_8\n    /* \"@openzeppelin/contracts/access/Ownable.sol\":955:967  _msgSender() */\n  tag_9\n    /* \"@openzeppelin/contracts/access/Ownable.sol\":955:965  _msgSender */\n  shl(0x20, tag_10)\n    /* \"@openzeppelin/contracts/access/Ownable.sol\":955:967  _msgSender() */\n  0x20\n  shr\n  jump\t// in\ntag_9:\n    /* \"@openzeppelin/contracts/access/Ownable.sol\":936:954  _transferOwnership */\n  shl(0x20, tag_11)\n    /* \"@openzeppelin/contracts/access/Ownable.sol\":936:968  _transferOwnership(_msgSender()) */\n  0x20\n  shr\n  jump\t// in\ntag_8:\n    /* \"@openzeppelin/contracts/security/ReentrancyGuard.sol\":1701:1702  1 */\n  0x01\n    /* \"@openzeppelin/contracts/security/ReentrancyGuard.sol\":1806:1813  _status */\n  dup1\n    /* \"@openzeppelin/contracts/security/ReentrancyGuard.sol\":1806:1828  _status = _NOT_ENTERED */\n  dup2\n  swap1\n  sstore\n  pop\n    /* \"contracts/Staking.sol\":1794:1803  _stakeNFT */\n  dup5\n    /* \"contracts/Staking.sol\":1786:1822  IERC165(_stakeNFT).supportsInterface */\n  0xffffffffffffffffffffffffffffffffffffffff\n  and\n  0x01ffc9a7\n    /* \"contracts/Staking.sol\":1823:1833  0x80ac58cd */\n  0x80ac58cd\n    /* \"contracts/Staking.sol\":1786:1834  IERC165(_stakeNFT).supportsInterface(0x80ac58cd) */\n  mload(0x40)\n  dup3\n  0xffffffff\n  and\n  0xe0\n  shl\n  dup2\n  mstore\n  0x04\n  add\n  tag_14\n  swap2\n  swap1\n  tag_15\n  jump\t// in\ntag_14:\n  0x20\n  mload(0x40)\n  dup1\n  dup4\n  sub\n  dup2\n  dup7\n  gas\n  staticcall\n  iszero\n  dup1\n  iszero\n  tag_17\n  jumpi\n  returndatasize\n  0x00\n  dup1\n  returndatacopy\n  revert(0x00, returndatasize)\ntag_17:\n  pop\n  pop\n  pop\n  pop\n  mload(0x40)\n  returndatasize\n  not(0x1f)\n  0x1f\n  dup3\n  add\n  and\n  dup3\n  add\n  dup1\n  0x40\n  mstore\n  pop\n  dup2\n  add\n  swap1\n  tag_18\n  swap2\n  swap1\n  tag_19\n  jump\t// in\ntag_18:\n    /* \"contracts/Staking.sol\":1778:1849  require(IERC165(_stakeNFT).supportsInterface(0x80ac58cd), \"Non-erc721\") */\n  tag_20\n  jumpi\n  mload(0x40)\n  0x08c379a000000000000000000000000000000000000000000000000000000000\n  dup2\n  mstore\n  0x04\n  add\n  tag_21\n  swap1\n  tag_22\n  jump\t// in\ntag_21:\n  mload(0x40)\n  dup1\n  swap2\n  sub\n  swap1\n  revert\ntag_20:\n    /* \"contracts/Staking.sol\":1882:1883  0 */\n  0x00\n    /* \"contracts/Staking.sol\":1868:1879  _lockPeriod */\n  dup4\n    /* \"contracts/Staking.sol\":1868:1883  _lockPeriod > 0 */\n  gt\n    /* \"contracts/Staking.sol\":1860:1907  require(_lockPeriod > 0, \"Invalid lock period\") */\n  tag_23\n  jumpi\n  mload(0x40)\n  0x08c379a000000000000000000000000000000000000000000000000000000000\n  dup2\n  mstore\n  0x04\n  add\n  tag_24\n  swap1\n  tag_25\n  jump\t// in\ntag_24:\n  mload(0x40)\n  dup1\n  swap2\n  sub\n  swap1\n  revert\ntag_23:\n    /* \"contracts/Staking.sol\":1925:1931  uint i */\n  0x00\n    /* \"contracts/Staking.sol\":1920:2043  for (uint i = 0; i < _rewardsToken.length; i++) {... */\ntag_26:\n    /* \"contracts/Staking.sol\":1941:1954  _rewardsToken */\n  dup5\n    /* \"contracts/Staking.sol\":1941:1961  _rewardsToken.length */\n  mload\n    /* \"contracts/Staking.sol\":1937:1938  i */\n  dup2\n    /* \"contracts/Staking.sol\":1937:1961  i < _rewardsToken.length */\n  lt\n    /* \"contracts/Staking.sol\":1920:2043  for (uint i = 0; i < _rewardsToken.length; i++) {... */\n  iszero\n  tag_27\n  jumpi\n    /* \"contracts/Staking.sol\":1985:1997  rewardsToken */\n  0x02\n    /* \"contracts/Staking.sol\":2017:2030  _rewardsToken */\n  dup6\n    /* \"contracts/Staking.sol\":2031:2032  i */\n  dup3\n    /* \"contracts/Staking.sol\":2017:2033  _rewardsToken[i] */\n  dup2\n  mload\n  dup2\n  lt\n  tag_29\n  jumpi\n  tag_30\n  tag_31\n  jump\t// in\ntag_30:\ntag_29:\n  0x20\n  mul\n  0x20\n  add\n  add\n  mload\n    /* \"contracts/Staking.sol\":1985:2035  rewardsToken.push(IRewardsToken(_rewardsToken[i])) */\n  swap1\n  dup1\n  0x01\n  dup2\n  sload\n  add\n  dup1\n  dup3\n  sstore\n  dup1\n  swap2\n  pop\n  pop\n  0x01\n  swap1\n  sub\n  swap1\n  0x00\n  mstore\n  keccak256(0x00, 0x20)\n  add\n  0x00\n  swap1\n  swap2\n  swap1\n  swap2\n  swap1\n  swap2\n  0x0100\n  exp\n  dup2\n  sload\n  dup2\n  0xffffffffffffffffffffffffffffffffffffffff\n  mul\n  not\n  and\n  swap1\n  dup4\n  0xffffffffffffffffffffffffffffffffffffffff\n  and\n  mul\n  or\n  swap1\n  sstore\n  pop\n    /* \"contracts/Staking.sol\":1963:1966  i++ */\n  dup1\n  dup1\n  tag_33\n  swap1\n  tag_34\n  jump\t// in\ntag_33:\n  swap2\n  pop\n  pop\n    /* \"contracts/Staking.sol\":1920:2043  for (uint i = 0; i < _rewardsToken.length; i++) {... */\n  jump(tag_26)\ntag_27:\n  pop\n    /* \"contracts/Staking.sol\":2064:2070  uint i */\n  0x00\n    /* \"contracts/Staking.sol\":2059:2172  for (uint i = 0; i < _rewardsToken.length; i++) {... */\ntag_35:\n    /* \"contracts/Staking.sol\":2080:2093  _rewardsToken */\n  dup5\n    /* \"contracts/Staking.sol\":2080:2100  _rewardsToken.length */\n  mload\n    /* \"contracts/Staking.sol\":2076:2077  i */\n  dup2\n    /* \"contracts/Staking.sol\":2076:2100  i < _rewardsToken.length */\n  lt\n    /* \"contracts/Staking.sol\":2059:2172  for (uint i = 0; i < _rewardsToken.length; i++) {... */\n  iszero\n  tag_36\n  jumpi\n    /* \"contracts/Staking.sol\":2124:2138  rewardsPerWave */\n  0x06\n    /* \"contracts/Staking.sol\":2145:2159  _rewardPerWave */\n  dup4\n    /* \"contracts/Staking.sol\":2160:2161  i */\n  dup3\n    /* \"contracts/Staking.sol\":2145:2162  _rewardPerWave[i] */\n  dup2\n  mload\n  dup2\n  lt\n  tag_38\n  jumpi\n  tag_39\n  tag_31\n  jump\t// in\ntag_39:\ntag_38:\n  0x20\n  mul\n  0x20\n  add\n  add\n  mload\n    /* \"contracts/Staking.sol\":2124:2164  rewardsPerWave.push((_rewardPerWave[i])) */\n  swap1\n  dup1\n  0x01\n  dup2\n  sload\n  add\n  dup1\n  dup3\n  sstore\n  dup1\n  swap2\n  pop\n  pop\n  0x01\n  swap1\n  sub\n  swap1\n  0x00\n  mstore\n  keccak256(0x00, 0x20)\n  add\n  0x00\n  swap1\n  swap2\n  swap1\n  swap2\n  swap1\n  swap2\n  pop\n  sstore\n    /* \"contracts/Staking.sol\":2102:2105  i++ */\n  dup1\n  dup1\n  tag_41\n  swap1\n  tag_34\n  jump\t// in\ntag_41:\n  swap2\n  pop\n  pop\n    /* \"contracts/Staking.sol\":2059:2172  for (uint i = 0; i < _rewardsToken.length; i++) {... */\n  jump(tag_35)\ntag_36:\n  pop\n    /* \"contracts/Staking.sol\":2211:2220  _stakeNFT */\n  dup5\n    /* \"contracts/Staking.sol\":2192:2221  stakeNFT = IERC721(_stakeNFT) */\n  0xffffffffffffffffffffffffffffffffffffffff\n  and\n  0x80\n  dup2\n  0xffffffffffffffffffffffffffffffffffffffff\n  and\n  dup2\n  mstore\n  pop\n  pop\n    /* \"contracts/Staking.sol\":2245:2256  _lockPeriod */\n  dup3\n    /* \"contracts/Staking.sol\":2232:2242  lockPeriod */\n  0x03\n    /* \"contracts/Staking.sol\":2232:2256  lockPeriod = _lockPeriod */\n  dup2\n  swap1\n  sstore\n  pop\n    /* \"contracts/Staking.sol\":2274:2279  _wave */\n  dup1\n    /* \"contracts/Staking.sol\":2267:2271  WAVE */\n  0x05\n    /* \"contracts/Staking.sol\":2267:2279  WAVE = _wave */\n  dup2\n  swap1\n  sstore\n  pop\n    /* \"contracts/Staking.sol\":1435:2287  constructor(... */\n  pop\n  pop\n  pop\n  pop\n  pop\n    /* \"contracts/Staking.sol\":412:6413  contract NFTStaking1 is Ownable, ReentrancyGuard {... */\n  jump(tag_42)\n    /* \"@openzeppelin/contracts/utils/Context.sol\":640:736  function _msgSender() internal view virtual returns (address) {... */\ntag_10:\n    /* \"@openzeppelin/contracts/utils/Context.sol\":693:700  address */\n  0x00\n    /* \"@openzeppelin/contracts/utils/Context.sol\":719:729  msg.sender */\n  caller\n    /* \"@openzeppelin/contracts/utils/Context.sol\":712:729  return msg.sender */\n  swap1\n  pop\n    /* \"@openzeppelin/contracts/utils/Context.sol\":640:736  function _msgSender() internal view virtual returns (address) {... */\n  swap1\n  jump\t// out\n    /* \"@openzeppelin/contracts/access/Ownable.sol\":2433:2620  function _transferOwnership(address newOwner) internal virtual {... */\ntag_11:\n    /* \"@openzeppelin/contracts/access/Ownable.sol\":2506:2522  address oldOwner */\n  0x00\n    /* \"@openzeppelin/contracts/access/Ownable.sol\":2525:2531  _owner */\n  dup1\n  0x00\n  swap1\n  sload\n  swap1\n  0x0100\n  exp\n  swap1\n  div\n  0xffffffffffffffffffffffffffffffffffffffff\n  and\n    /* \"@openzeppelin/contracts/access/Ownable.sol\":2506:2531  address oldOwner = _owner */\n  swap1\n  pop\n    /* \"@openzeppelin/contracts/access/Ownable.sol\":2550:2558  newOwner */\n  dup2\n    /* \"@openzeppelin/contracts/access/Ownable.sol\":2541:2547  _owner */\n  0x00\n  dup1\n    /* \"@openzeppelin/contracts/access/Ownable.sol\":2541:2558  _owner = newOwner */\n  0x0100\n  exp\n  dup2\n  sload\n  dup2\n  0xffffffffffffffffffffffffffffffffffffffff\n  mul\n  not\n  and\n  swap1\n  dup4\n  0xffffffffffffffffffffffffffffffffffffffff\n  and\n  mul\n  or\n  swap1\n  sstore\n  pop\n    /* \"@openzeppelin/contracts/access/Ownable.sol\":2604:2612  newOwner */\n  dup2\n    /* \"@openzeppelin/contracts/access/Ownable.sol\":2573:2613  OwnershipTransferred(oldOwner, newOwner) */\n  0xffffffffffffffffffffffffffffffffffffffff\n  and\n    /* \"@openzeppelin/contracts/access/Ownable.sol\":2594:2602  oldOwner */\n  dup2\n    /* \"@openzeppelin/contracts/access/Ownable.sol\":2573:2613  OwnershipTransferred(oldOwner, newOwner) */\n  0xffffffffffffffffffffffffffffffffffffffff\n  and\n  0x8be0079c531659141344cd1fd0a4f28419497f9722a3daafe3b4186f6b6457e0\n  mload(0x40)\n  mload(0x40)\n  dup1\n  swap2\n  sub\n  swap1\n  log3\n    /* \"@openzeppelin/contracts/access/Ownable.sol\":2496:2620  {... */\n  pop\n    /* \"@openzeppelin/contracts/access/Ownable.sol\":2433:2620  function _transferOwnership(address newOwner) internal virtual {... */\n  pop\n  jump\t// out\n    /* \"#utility.yul\":7:82   */\ntag_45:\n    /* \"#utility.yul\":40:46   */\n  0x00\n    /* \"#utility.yul\":73:75   */\n  0x40\n    /* \"#utility.yul\":67:76   */\n  mload\n    /* \"#utility.yul\":57:76   */\n  swap1\n  pop\n    /* \"#utility.yul\":7:82   */\n  swap1\n  jump\t// out\n    /* \"#utility.yul\":88:205   */\ntag_46:\n    /* \"#utility.yul\":197:198   */\n  0x00\n    /* \"#utility.yul\":194:195   */\n  dup1\n    /* \"#utility.yul\":187:199   */\n  revert\n    /* \"#utility.yul\":211:328   */\ntag_47:\n    /* \"#utility.yul\":320:321   */\n  0x00\n    /* \"#utility.yul\":317:318   */\n  dup1\n    /* \"#utility.yul\":310:322   */\n  revert\n    /* \"#utility.yul\":334:460   */\ntag_48:\n    /* \"#utility.yul\":371:378   */\n  0x00\n    /* \"#utility.yul\":411:453   */\n  0xffffffffffffffffffffffffffffffffffffffff\n    /* \"#utility.yul\":404:409   */\n  dup3\n    /* \"#utility.yul\":400:454   */\n  and\n    /* \"#utility.yul\":389:454   */\n  swap1\n  pop\n    /* \"#utility.yul\":334:460   */\n  swap2\n  swap1\n  pop\n  jump\t// out\n    /* \"#utility.yul\":466:562   */\ntag_49:\n    /* \"#utility.yul\":503:510   */\n  0x00\n    /* \"#utility.yul\":532:556   */\n  tag_87\n    /* \"#utility.yul\":550:555   */\n  dup3\n    /* \"#utility.yul\":532:556   */\n  tag_48\n  jump\t// in\ntag_87:\n    /* \"#utility.yul\":521:556   */\n  swap1\n  pop\n    /* \"#utility.yul\":466:562   */\n  swap2\n  swap1\n  pop\n  jump\t// out\n    /* \"#utility.yul\":568:690   */\ntag_50:\n    /* \"#utility.yul\":641:665   */\n  tag_89\n    /* \"#utility.yul\":659:664   */\n  dup2\n    /* \"#utility.yul\":641:665   */\n  tag_49\n  jump\t// in\ntag_89:\n    /* \"#utility.yul\":634:639   */\n  dup2\n    /* \"#utility.yul\":631:666   */\n  eq\n    /* \"#utility.yul\":621:684   */\n  tag_90\n  jumpi\n    /* \"#utility.yul\":680:681   */\n  0x00\n    /* \"#utility.yul\":677:678   */\n  dup1\n    /* \"#utility.yul\":670:682   */\n  revert\n    /* \"#utility.yul\":621:684   */\ntag_90:\n    /* \"#utility.yul\":568:690   */\n  pop\n  jump\t// out\n    /* \"#utility.yul\":696:839   */\ntag_51:\n    /* \"#utility.yul\":753:758   */\n  0x00\n    /* \"#utility.yul\":784:790   */\n  dup2\n    /* \"#utility.yul\":778:791   */\n  mload\n    /* \"#utility.yul\":769:791   */\n  swap1\n  pop\n    /* \"#utility.yul\":800:833   */\n  tag_92\n    /* \"#utility.yul\":827:832   */\n  dup2\n    /* \"#utility.yul\":800:833   */\n  tag_50\n  jump\t// in\ntag_92:\n    /* \"#utility.yul\":696:839   */\n  swap3\n  swap2\n  pop\n  pop\n  jump\t// out\n    /* \"#utility.yul\":845:962   */\ntag_52:\n    /* \"#utility.yul\":954:955   */\n  0x00\n    /* \"#utility.yul\":951:952   */\n  dup1\n    /* \"#utility.yul\":944:956   */\n  revert\n    /* \"#utility.yul\":968:1070   */\ntag_53:\n    /* \"#utility.yul\":1009:1015   */\n  0x00\n    /* \"#utility.yul\":1060:1062   */\n  0x1f\n    /* \"#utility.yul\":1056:1063   */\n  not\n    /* \"#utility.yul\":1051:1053   */\n  0x1f\n    /* \"#utility.yul\":1044:1049   */\n  dup4\n    /* \"#utility.yul\":1040:1054   */\n  add\n    /* \"#utility.yul\":1036:1064   */\n  and\n    /* \"#utility.yul\":1026:1064   */\n  swap1\n  pop\n    /* \"#utility.yul\":968:1070   */\n  swap2\n  swap1\n  pop\n  jump\t// out\n    /* \"#utility.yul\":1076:1256   */\ntag_54:\n    /* \"#utility.yul\":1124:1201   */\n  0x4e487b7100000000000000000000000000000000000000000000000000000000\n    /* \"#utility.yul\":1121:1122   */\n  0x00\n    /* \"#utility.yul\":1114:1202   */\n  mstore\n    /* \"#utility.yul\":1221:1225   */\n  0x41\n    /* \"#utility.yul\":1218:1219   */\n  0x04\n    /* \"#utility.yul\":1211:1226   */\n  mstore\n    /* \"#utility.yul\":1245:1249   */\n  0x24\n    /* \"#utility.yul\":1242:1243   */\n  0x00\n    /* \"#utility.yul\":1235:1250   */\n  revert\n    /* \"#utility.yul\":1262:1543   */\ntag_55:\n    /* \"#utility.yul\":1345:1372   */\n  tag_97\n    /* \"#utility.yul\":1367:1371   */\n  dup3\n    /* \"#utility.yul\":1345:1372   */\n  tag_53\n  jump\t// in\ntag_97:\n    /* \"#utility.yul\":1337:1343   */\n  dup2\n    /* \"#utility.yul\":1333:1373   */\n  add\n    /* \"#utility.yul\":1475:1481   */\n  dup2\n    /* \"#utility.yul\":1463:1473   */\n  dup2\n    /* \"#utility.yul\":1460:1482   */\n  lt\n    /* \"#utility.yul\":1439:1457   */\n  0xffffffffffffffff\n    /* \"#utility.yul\":1427:1437   */\n  dup3\n    /* \"#utility.yul\":1424:1458   */\n  gt\n    /* \"#utility.yul\":1421:1483   */\n  or\n    /* \"#utility.yul\":1418:1506   */\n  iszero\n  tag_98\n  jumpi\n    /* \"#utility.yul\":1486:1504   */\n  tag_99\n  tag_54\n  jump\t// in\ntag_99:\n    /* \"#utility.yul\":1418:1506   */\ntag_98:\n    /* \"#utility.yul\":1526:1536   */\n  dup1\n    /* \"#utility.yul\":1522:1524   */\n  0x40\n    /* \"#utility.yul\":1515:1537   */\n  mstore\n    /* \"#utility.yul\":1305:1543   */\n  pop\n    /* \"#utility.yul\":1262:1543   */\n  pop\n  pop\n  jump\t// out\n    /* \"#utility.yul\":1549:1678   */\ntag_56:\n    /* \"#utility.yul\":1583:1589   */\n  0x00\n    /* \"#utility.yul\":1610:1630   */\n  tag_101\n  tag_45\n  jump\t// in\ntag_101:\n    /* \"#utility.yul\":1600:1630   */\n  swap1\n  pop\n    /* \"#utility.yul\":1639:1672   */\n  tag_102\n    /* \"#utility.yul\":1667:1671   */\n  dup3\n    /* \"#utility.yul\":1659:1665   */\n  dup3\n    /* \"#utility.yul\":1639:1672   */\n  tag_55\n  jump\t// in\ntag_102:\n    /* \"#utility.yul\":1549:1678   */\n  swap2\n  swap1\n  pop\n  jump\t// out\n    /* \"#utility.yul\":1684:1995   */\ntag_57:\n    /* \"#utility.yul\":1761:1765   */\n  0x00\n    /* \"#utility.yul\":1851:1869   */\n  0xffffffffffffffff\n    /* \"#utility.yul\":1843:1849   */\n  dup3\n    /* \"#utility.yul\":1840:1870   */\n  gt\n    /* \"#utility.yul\":1837:1893   */\n  iszero\n  tag_104\n  jumpi\n    /* \"#utility.yul\":1873:1891   */\n  tag_105\n  tag_54\n  jump\t// in\ntag_105:\n    /* \"#utility.yul\":1837:1893   */\ntag_104:\n    /* \"#utility.yul\":1923:1927   */\n  0x20\n    /* \"#utility.yul\":1915:1921   */\n  dup3\n    /* \"#utility.yul\":1911:1928   */\n  mul\n    /* \"#utility.yul\":1903:1928   */\n  swap1\n  pop\n    /* \"#utility.yul\":1983:1987   */\n  0x20\n    /* \"#utility.yul\":1977:1981   */\n  dup2\n    /* \"#utility.yul\":1973:1988   */\n  add\n    /* \"#utility.yul\":1965:1988   */\n  swap1\n  pop\n    /* \"#utility.yul\":1684:1995   */\n  swap2\n  swap1\n  pop\n  jump\t// out\n    /* \"#utility.yul\":2001:2118   */\ntag_58:\n    /* \"#utility.yul\":2110:2111   */\n  0x00\n    /* \"#utility.yul\":2107:2108   */\n  dup1\n    /* \"#utility.yul\":2100:2112   */\n  revert\n    /* \"#utility.yul\":2141:2873   */\ntag_59:\n    /* \"#utility.yul\":2248:2253   */\n  0x00\n    /* \"#utility.yul\":2273:2354   */\n  tag_108\n    /* \"#utility.yul\":2289:2353   */\n  tag_109\n    /* \"#utility.yul\":2346:2352   */\n  dup5\n    /* \"#utility.yul\":2289:2353   */\n  tag_57\n  jump\t// in\ntag_109:\n    /* \"#utility.yul\":2273:2354   */\n  tag_56\n  jump\t// in\ntag_108:\n    /* \"#utility.yul\":2264:2354   */\n  swap1\n  pop\n    /* \"#utility.yul\":2374:2379   */\n  dup1\n    /* \"#utility.yul\":2403:2409   */\n  dup4\n    /* \"#utility.yul\":2396:2401   */\n  dup3\n    /* \"#utility.yul\":2389:2410   */\n  mstore\n    /* \"#utility.yul\":2437:2441   */\n  0x20\n    /* \"#utility.yul\":2430:2435   */\n  dup3\n    /* \"#utility.yul\":2426:2442   */\n  add\n    /* \"#utility.yul\":2419:2442   */\n  swap1\n  pop\n    /* \"#utility.yul\":2490:2494   */\n  0x20\n    /* \"#utility.yul\":2482:2488   */\n  dup5\n    /* \"#utility.yul\":2478:2495   */\n  mul\n    /* \"#utility.yul\":2470:2476   */\n  dup4\n    /* \"#utility.yul\":2466:2496   */\n  add\n    /* \"#utility.yul\":2519:2522   */\n  dup6\n    /* \"#utility.yul\":2511:2517   */\n  dup2\n    /* \"#utility.yul\":2508:2523   */\n  gt\n    /* \"#utility.yul\":2505:2627   */\n  iszero\n  tag_110\n  jumpi\n    /* \"#utility.yul\":2538:2617   */\n  tag_111\n  tag_58\n  jump\t// in\ntag_111:\n    /* \"#utility.yul\":2505:2627   */\ntag_110:\n    /* \"#utility.yul\":2653:2659   */\n  dup4\n    /* \"#utility.yul\":2636:2867   */\ntag_112:\n    /* \"#utility.yul\":2670:2676   */\n  dup2\n    /* \"#utility.yul\":2665:2668   */\n  dup2\n    /* \"#utility.yul\":2662:2677   */\n  lt\n    /* \"#utility.yul\":2636:2867   */\n  iszero\n  tag_114\n  jumpi\n    /* \"#utility.yul\":2745:2748   */\n  dup1\n    /* \"#utility.yul\":2774:2822   */\n  tag_115\n    /* \"#utility.yul\":2818:2821   */\n  dup9\n    /* \"#utility.yul\":2806:2816   */\n  dup3\n    /* \"#utility.yul\":2774:2822   */\n  tag_51\n  jump\t// in\ntag_115:\n    /* \"#utility.yul\":2769:2772   */\n  dup5\n    /* \"#utility.yul\":2762:2823   */\n  mstore\n    /* \"#utility.yul\":2852:2856   */\n  0x20\n    /* \"#utility.yul\":2847:2850   */\n  dup5\n    /* \"#utility.yul\":2843:2857   */\n  add\n    /* \"#utility.yul\":2836:2857   */\n  swap4\n  pop\n    /* \"#utility.yul\":2712:2867   */\n  pop\n    /* \"#utility.yul\":2696:2700   */\n  0x20\n    /* \"#utility.yul\":2691:2694   */\n  dup2\n    /* \"#utility.yul\":2687:2701   */\n  add\n    /* \"#utility.yul\":2680:2701   */\n  swap1\n  pop\n    /* \"#utility.yul\":2636:2867   */\n  jump(tag_112)\ntag_114:\n    /* \"#utility.yul\":2640:2661   */\n  pop\n    /* \"#utility.yul\":2254:2873   */\n  pop\n  pop\n    /* \"#utility.yul\":2141:2873   */\n  swap4\n  swap3\n  pop\n  pop\n  pop\n  jump\t// out\n    /* \"#utility.yul\":2896:3281   */\ntag_60:\n    /* \"#utility.yul\":2978:2983   */\n  0x00\n    /* \"#utility.yul\":3027:3030   */\n  dup3\n    /* \"#utility.yul\":3020:3024   */\n  0x1f\n    /* \"#utility.yul\":3012:3018   */\n  dup4\n    /* \"#utility.yul\":3008:3025   */\n  add\n    /* \"#utility.yul\":3004:3031   */\n  slt\n    /* \"#utility.yul\":2994:3116   */\n  tag_117\n  jumpi\n    /* \"#utility.yul\":3035:3114   */\n  tag_118\n  tag_52\n  jump\t// in\ntag_118:\n    /* \"#utility.yul\":2994:3116   */\ntag_117:\n    /* \"#utility.yul\":3145:3151   */\n  dup2\n    /* \"#utility.yul\":3139:3152   */\n  mload\n    /* \"#utility.yul\":3170:3275   */\n  tag_119\n    /* \"#utility.yul\":3271:3274   */\n  dup5\n    /* \"#utility.yul\":3263:3269   */\n  dup3\n    /* \"#utility.yul\":3256:3260   */\n  0x20\n    /* \"#utility.yul\":3248:3254   */\n  dup7\n    /* \"#utility.yul\":3244:3261   */\n  add\n    /* \"#utility.yul\":3170:3275   */\n  tag_59\n  jump\t// in\ntag_119:\n    /* \"#utility.yul\":3161:3275   */\n  swap2\n  pop\n    /* \"#utility.yul\":2984:3281   */\n  pop\n    /* \"#utility.yul\":2896:3281   */\n  swap3\n  swap2\n  pop\n  pop\n  jump\t// out\n    /* \"#utility.yul\":3287:3364   */\ntag_61:\n    /* \"#utility.yul\":3324:3331   */\n  0x00\n    /* \"#utility.yul\":3353:3358   */\n  dup2\n    /* \"#utility.yul\":3342:3358   */\n  swap1\n  pop\n    /* \"#utility.yul\":3287:3364   */\n  swap2\n  swap1\n  pop\n  jump\t// out\n    /* \"#utility.yul\":3370:3492   */\ntag_62:\n    /* \"#utility.yul\":3443:3467   */\n  tag_122\n    /* \"#utility.yul\":3461:3466   */\n  dup2\n    /* \"#utility.yul\":3443:3467   */\n  tag_61\n  jump\t// in\ntag_122:\n    /* \"#utility.yul\":3436:3441   */\n  dup2\n    /* \"#utility.yul\":3433:3468   */\n  eq\n    /* \"#utility.yul\":3423:3486   */\n  tag_123\n  jumpi\n    /* \"#utility.yul\":3482:3483   */\n  0x00\n    /* \"#utility.yul\":3479:3480   */\n  dup1\n    /* \"#utility.yul\":3472:3484   */\n  revert\n    /* \"#utility.yul\":3423:3486   */\ntag_123:\n    /* \"#utility.yul\":3370:3492   */\n  pop\n  jump\t// out\n    /* \"#utility.yul\":3498:3641   */\ntag_63:\n    /* \"#utility.yul\":3555:3560   */\n  0x00\n    /* \"#utility.yul\":3586:3592   */\n  dup2\n    /* \"#utility.yul\":3580:3593   */\n  mload\n    /* \"#utility.yul\":3571:3593   */\n  swap1\n  pop\n    /* \"#utility.yul\":3602:3635   */\n  tag_125\n    /* \"#utility.yul\":3629:3634   */\n  dup2\n    /* \"#utility.yul\":3602:3635   */\n  tag_62\n  jump\t// in\ntag_125:\n    /* \"#utility.yul\":3498:3641   */\n  swap3\n  swap2\n  pop\n  pop\n  jump\t// out\n    /* \"#utility.yul\":3647:3958   */\ntag_64:\n    /* \"#utility.yul\":3724:3728   */\n  0x00\n    /* \"#utility.yul\":3814:3832   */\n  0xffffffffffffffff\n    /* \"#utility.yul\":3806:3812   */\n  dup3\n    /* \"#utility.yul\":3803:3833   */\n  gt\n    /* \"#utility.yul\":3800:3856   */\n  iszero\n  tag_127\n  jumpi\n    /* \"#utility.yul\":3836:3854   */\n  tag_128\n  tag_54\n  jump\t// in\ntag_128:\n    /* \"#utility.yul\":3800:3856   */\ntag_127:\n    /* \"#utility.yul\":3886:3890   */\n  0x20\n    /* \"#utility.yul\":3878:3884   */\n  dup3\n    /* \"#utility.yul\":3874:3891   */\n  mul\n    /* \"#utility.yul\":3866:3891   */\n  swap1\n  pop\n    /* \"#utility.yul\":3946:3950   */\n  0x20\n    /* \"#utility.yul\":3940:3944   */\n  dup2\n    /* \"#utility.yul\":3936:3951   */\n  add\n    /* \"#utility.yul\":3928:3951   */\n  swap1\n  pop\n    /* \"#utility.yul\":3647:3958   */\n  swap2\n  swap1\n  pop\n  jump\t// out\n    /* \"#utility.yul\":3981:4713   */\ntag_65:\n    /* \"#utility.yul\":4088:4093   */\n  0x00\n    /* \"#utility.yul\":4113:4194   */\n  tag_130\n    /* \"#utility.yul\":4129:4193   */\n  tag_131\n    /* \"#utility.yul\":4186:4192   */\n  dup5\n    /* \"#utility.yul\":4129:4193   */\n  tag_64\n  jump\t// in\ntag_131:\n    /* \"#utility.yul\":4113:4194   */\n  tag_56\n  jump\t// in\ntag_130:\n    /* \"#utility.yul\":4104:4194   */\n  swap1\n  pop\n    /* \"#utility.yul\":4214:4219   */\n  dup1\n    /* \"#utility.yul\":4243:4249   */\n  dup4\n    /* \"#utility.yul\":4236:4241   */\n  dup3\n    /* \"#utility.yul\":4229:4250   */\n  mstore\n    /* \"#utility.yul\":4277:4281   */\n  0x20\n    /* \"#utility.yul\":4270:4275   */\n  dup3\n    /* \"#utility.yul\":4266:4282   */\n  add\n    /* \"#utility.yul\":4259:4282   */\n  swap1\n  pop\n    /* \"#utility.yul\":4330:4334   */\n  0x20\n    /* \"#utility.yul\":4322:4328   */\n  dup5\n    /* \"#utility.yul\":4318:4335   */\n  mul\n    /* \"#utility.yul\":4310:4316   */\n  dup4\n    /* \"#utility.yul\":4306:4336   */\n  add\n    /* \"#utility.yul\":4359:4362   */\n  dup6\n    /* \"#utility.yul\":4351:4357   */\n  dup2\n    /* \"#utility.yul\":4348:4363   */\n  gt\n    /* \"#utility.yul\":4345:4467   */\n  iszero\n  tag_132\n  jumpi\n    /* \"#utility.yul\":4378:4457   */\n  tag_133\n  tag_58\n  jump\t// in\ntag_133:\n    /* \"#utility.yul\":4345:4467   */\ntag_132:\n    /* \"#utility.yul\":4493:4499   */\n  dup4\n    /* \"#utility.yul\":4476:4707   */\ntag_134:\n    /* \"#utility.yul\":4510:4516   */\n  dup2\n    /* \"#utility.yul\":4505:4508   */\n  dup2\n    /* \"#utility.yul\":4502:4517   */\n  lt\n    /* \"#utility.yul\":4476:4707   */\n  iszero\n  tag_136\n  jumpi\n    /* \"#utility.yul\":4585:4588   */\n  dup1\n    /* \"#utility.yul\":4614:4662   */\n  tag_137\n    /* \"#utility.yul\":4658:4661   */\n  dup9\n    /* \"#utility.yul\":4646:4656   */\n  dup3\n    /* \"#utility.yul\":4614:4662   */\n  tag_63\n  jump\t// in\ntag_137:\n    /* \"#utility.yul\":4609:4612   */\n  dup5\n    /* \"#utility.yul\":4602:4663   */\n  mstore\n    /* \"#utility.yul\":4692:4696   */\n  0x20\n    /* \"#utility.yul\":4687:4690   */\n  dup5\n    /* \"#utility.yul\":4683:4697   */\n  add\n    /* \"#utility.yul\":4676:4697   */\n  swap4\n  pop\n    /* \"#utility.yul\":4552:4707   */\n  pop\n    /* \"#utility.yul\":4536:4540   */\n  0x20\n    /* \"#utility.yul\":4531:4534   */\n  dup2\n    /* \"#utility.yul\":4527:4541   */\n  add\n    /* \"#utility.yul\":4520:4541   */\n  swap1\n  pop\n    /* \"#utility.yul\":4476:4707   */\n  jump(tag_134)\ntag_136:\n    /* \"#utility.yul\":4480:4501   */\n  pop\n    /* \"#utility.yul\":4094:4713   */\n  pop\n  pop\n    /* \"#utility.yul\":3981:4713   */\n  swap4\n  swap3\n  pop\n  pop\n  pop\n  jump\t// out\n    /* \"#utility.yul\":4736:5121   */\ntag_66:\n    /* \"#utility.yul\":4818:4823   */\n  0x00\n    /* \"#utility.yul\":4867:4870   */\n  dup3\n    /* \"#utility.yul\":4860:4864   */\n  0x1f\n    /* \"#utility.yul\":4852:4858   */\n  dup4\n    /* \"#utility.yul\":4848:4865   */\n  add\n    /* \"#utility.yul\":4844:4871   */\n  slt\n    /* \"#utility.yul\":4834:4956   */\n  tag_139\n  jumpi\n    /* \"#utility.yul\":4875:4954   */\n  tag_140\n  tag_52\n  jump\t// in\ntag_140:\n    /* \"#utility.yul\":4834:4956   */\ntag_139:\n    /* \"#utility.yul\":4985:4991   */\n  dup2\n    /* \"#utility.yul\":4979:4992   */\n  mload\n    /* \"#utility.yul\":5010:5115   */\n  tag_141\n    /* \"#utility.yul\":5111:5114   */\n  dup5\n    /* \"#utility.yul\":5103:5109   */\n  dup3\n    /* \"#utility.yul\":5096:5100   */\n  0x20\n    /* \"#utility.yul\":5088:5094   */\n  dup7\n    /* \"#utility.yul\":5084:5101   */\n  add\n    /* \"#utility.yul\":5010:5115   */\n  tag_65\n  jump\t// in\ntag_141:\n    /* \"#utility.yul\":5001:5115   */\n  swap2\n  pop\n    /* \"#utility.yul\":4824:5121   */\n  pop\n    /* \"#utility.yul\":4736:5121   */\n  swap3\n  swap2\n  pop\n  pop\n  jump\t// out\n    /* \"#utility.yul\":5127:6510   */\ntag_3:\n    /* \"#utility.yul\":5283:5289   */\n  0x00\n    /* \"#utility.yul\":5291:5297   */\n  dup1\n    /* \"#utility.yul\":5299:5305   */\n  0x00\n    /* \"#utility.yul\":5307:5313   */\n  dup1\n    /* \"#utility.yul\":5315:5321   */\n  0x00\n    /* \"#utility.yul\":5364:5367   */\n  0xa0\n    /* \"#utility.yul\":5352:5361   */\n  dup7\n    /* \"#utility.yul\":5343:5350   */\n  dup9\n    /* \"#utility.yul\":5339:5362   */\n  sub\n    /* \"#utility.yul\":5335:5368   */\n  slt\n    /* \"#utility.yul\":5332:5452   */\n  iszero\n  tag_143\n  jumpi\n    /* \"#utility.yul\":5371:5450   */\n  tag_144\n  tag_46\n  jump\t// in\ntag_144:\n    /* \"#utility.yul\":5332:5452   */\ntag_143:\n    /* \"#utility.yul\":5491:5492   */\n  0x00\n    /* \"#utility.yul\":5516:5580   */\n  tag_145\n    /* \"#utility.yul\":5572:5579   */\n  dup9\n    /* \"#utility.yul\":5563:5569   */\n  dup3\n    /* \"#utility.yul\":5552:5561   */\n  dup10\n    /* \"#utility.yul\":5548:5570   */\n  add\n    /* \"#utility.yul\":5516:5580   */\n  tag_51\n  jump\t// in\ntag_145:\n    /* \"#utility.yul\":5506:5580   */\n  swap6\n  pop\n    /* \"#utility.yul\":5462:5590   */\n  pop\n    /* \"#utility.yul\":5650:5652   */\n  0x20\n    /* \"#utility.yul\":5639:5648   */\n  dup7\n    /* \"#utility.yul\":5635:5653   */\n  add\n    /* \"#utility.yul\":5629:5654   */\n  mload\n    /* \"#utility.yul\":5681:5699   */\n  0xffffffffffffffff\n    /* \"#utility.yul\":5673:5679   */\n  dup2\n    /* \"#utility.yul\":5670:5700   */\n  gt\n    /* \"#utility.yul\":5667:5784   */\n  iszero\n  tag_146\n  jumpi\n    /* \"#utility.yul\":5703:5782   */\n  tag_147\n  tag_47\n  jump\t// in\ntag_147:\n    /* \"#utility.yul\":5667:5784   */\ntag_146:\n    /* \"#utility.yul\":5808:5897   */\n  tag_148\n    /* \"#utility.yul\":5889:5896   */\n  dup9\n    /* \"#utility.yul\":5880:5886   */\n  dup3\n    /* \"#utility.yul\":5869:5878   */\n  dup10\n    /* \"#utility.yul\":5865:5887   */\n  add\n    /* \"#utility.yul\":5808:5897   */\n  tag_60\n  jump\t// in\ntag_148:\n    /* \"#utility.yul\":5798:5897   */\n  swap5\n  pop\n    /* \"#utility.yul\":5600:5907   */\n  pop\n    /* \"#utility.yul\":5946:5948   */\n  0x40\n    /* \"#utility.yul\":5972:6036   */\n  tag_149\n    /* \"#utility.yul\":6028:6035   */\n  dup9\n    /* \"#utility.yul\":6019:6025   */\n  dup3\n    /* \"#utility.yul\":6008:6017   */\n  dup10\n    /* \"#utility.yul\":6004:6026   */\n  add\n    /* \"#utility.yul\":5972:6036   */\n  tag_63\n  jump\t// in\ntag_149:\n    /* \"#utility.yul\":5962:6036   */\n  swap4\n  pop\n    /* \"#utility.yul\":5917:6046   */\n  pop\n    /* \"#utility.yul\":6106:6108   */\n  0x60\n    /* \"#utility.yul\":6095:6104   */\n  dup7\n    /* \"#utility.yul\":6091:6109   */\n  add\n    /* \"#utility.yul\":6085:6110   */\n  mload\n    /* \"#utility.yul\":6137:6155   */\n  0xffffffffffffffff\n    /* \"#utility.yul\":6129:6135   */\n  dup2\n    /* \"#utility.yul\":6126:6156   */\n  gt\n    /* \"#utility.yul\":6123:6240   */\n  iszero\n  tag_150\n  jumpi\n    /* \"#utility.yul\":6159:6238   */\n  tag_151\n  tag_47\n  jump\t// in\ntag_151:\n    /* \"#utility.yul\":6123:6240   */\ntag_150:\n    /* \"#utility.yul\":6264:6353   */\n  tag_152\n    /* \"#utility.yul\":6345:6352   */\n  dup9\n    /* \"#utility.yul\":6336:6342   */\n  dup3\n    /* \"#utility.yul\":6325:6334   */\n  dup10\n    /* \"#utility.yul\":6321:6343   */\n  add\n    /* \"#utility.yul\":6264:6353   */\n  tag_66\n  jump\t// in\ntag_152:\n    /* \"#utility.yul\":6254:6353   */\n  swap3\n  pop\n    /* \"#utility.yul\":6056:6363   */\n  pop\n    /* \"#utility.yul\":6402:6405   */\n  0x80\n    /* \"#utility.yul\":6429:6493   */\n  tag_153\n    /* \"#utility.yul\":6485:6492   */\n  dup9\n    /* \"#utility.yul\":6476:6482   */\n  dup3\n    /* \"#utility.yul\":6465:6474   */\n  dup10\n    /* \"#utility.yul\":6461:6483   */\n  add\n    /* \"#utility.yul\":6429:6493   */\n  tag_63\n  jump\t// in\ntag_153:\n    /* \"#utility.yul\":6419:6493   */\n  swap2\n  pop\n    /* \"#utility.yul\":6373:6503   */\n  pop\n    /* \"#utility.yul\":5127:6510   */\n  swap3\n  swap6\n  pop\n  swap3\n  swap6\n  swap1\n  swap4\n  pop\n  jump\t// out\n    /* \"#utility.yul\":6516:6610   */\ntag_67:\n    /* \"#utility.yul\":6570:6577   */\n  0x00\n    /* \"#utility.yul\":6599:6604   */\n  dup2\n    /* \"#utility.yul\":6588:6604   */\n  swap1\n  pop\n    /* \"#utility.yul\":6516:6610   */\n  swap2\n  swap1\n  pop\n  jump\t// out\n    /* \"#utility.yul\":6616:6765   */\ntag_68:\n    /* \"#utility.yul\":6652:6659   */\n  0x00\n    /* \"#utility.yul\":6692:6758   */\n  0xffffffff00000000000000000000000000000000000000000000000000000000\n    /* \"#utility.yul\":6685:6690   */\n  dup3\n    /* \"#utility.yul\":6681:6759   */\n  and\n    /* \"#utility.yul\":6670:6759   */\n  swap1\n  pop\n    /* \"#utility.yul\":6616:6765   */\n  swap2\n  swap1\n  pop\n  jump\t// out\n    /* \"#utility.yul\":6771:6867   */\ntag_69:\n    /* \"#utility.yul\":6805:6813   */\n  0x00\n    /* \"#utility.yul\":6854:6859   */\n  dup2\n    /* \"#utility.yul\":6849:6852   */\n  0xe0\n    /* \"#utility.yul\":6845:6860   */\n  shl\n    /* \"#utility.yul\":6824:6860   */\n  swap1\n  pop\n    /* \"#utility.yul\":6771:6867   */\n  swap2\n  swap1\n  pop\n  jump\t// out\n    /* \"#utility.yul\":6873:7053   */\ntag_70:\n    /* \"#utility.yul\":6939:6948   */\n  0x00\n    /* \"#utility.yul\":6972:7047   */\n  tag_158\n    /* \"#utility.yul\":6989:7046   */\n  tag_159\n    /* \"#utility.yul\":7004:7045   */\n  tag_160\n    /* \"#utility.yul\":7039:7044   */\n  dup5\n    /* \"#utility.yul\":7004:7045   */\n  tag_67\n  jump\t// in\ntag_160:\n    /* \"#utility.yul\":6989:7046   */\n  tag_69\n  jump\t// in\ntag_159:\n    /* \"#utility.yul\":6972:7047   */\n  tag_68\n  jump\t// in\ntag_158:\n    /* \"#utility.yul\":6959:7047   */\n  swap1\n  pop\n    /* \"#utility.yul\":6873:7053   */\n  swap2\n  swap1\n  pop\n  jump\t// out\n    /* \"#utility.yul\":7059:7222   */\ntag_71:\n    /* \"#utility.yul\":7162:7215   */\n  tag_162\n    /* \"#utility.yul\":7209:7214   */\n  dup2\n    /* \"#utility.yul\":7162:7215   */\n  tag_70\n  jump\t// in\ntag_162:\n    /* \"#utility.yul\":7157:7160   */\n  dup3\n    /* \"#utility.yul\":7150:7216   */\n  mstore\n    /* \"#utility.yul\":7059:7222   */\n  pop\n  pop\n  jump\t// out\n    /* \"#utility.yul\":7228:7482   */\ntag_15:\n    /* \"#utility.yul\":7337:7341   */\n  0x00\n    /* \"#utility.yul\":7375:7377   */\n  0x20\n    /* \"#utility.yul\":7364:7373   */\n  dup3\n    /* \"#utility.yul\":7360:7378   */\n  add\n    /* \"#utility.yul\":7352:7378   */\n  swap1\n  pop\n    /* \"#utility.yul\":7388:7475   */\n  tag_164\n    /* \"#utility.yul\":7472:7473   */\n  0x00\n    /* \"#utility.yul\":7461:7470   */\n  dup4\n    /* \"#utility.yul\":7457:7474   */\n  add\n    /* \"#utility.yul\":7448:7454   */\n  dup5\n    /* \"#utility.yul\":7388:7475   */\n  tag_71\n  jump\t// in\ntag_164:\n    /* \"#utility.yul\":7228:7482   */\n  swap3\n  swap2\n  pop\n  pop\n  jump\t// out\n    /* \"#utility.yul\":7488:7578   */\ntag_72:\n    /* \"#utility.yul\":7522:7529   */\n  0x00\n    /* \"#utility.yul\":7565:7570   */\n  dup2\n    /* \"#utility.yul\":7558:7571   */\n  iszero\n    /* \"#utility.yul\":7551:7572   */\n  iszero\n    /* \"#utility.yul\":7540:7572   */\n  swap1\n  pop\n    /* \"#utility.yul\":7488:7578   */\n  swap2\n  swap1\n  pop\n  jump\t// out\n    /* \"#utility.yul\":7584:7700   */\ntag_73:\n    /* \"#utility.yul\":7654:7675   */\n  tag_167\n    /* \"#utility.yul\":7669:7674   */\n  dup2\n    /* \"#utility.yul\":7654:7675   */\n  tag_72\n  jump\t// in\ntag_167:\n    /* \"#utility.yul\":7647:7652   */\n  dup2\n    /* \"#utility.yul\":7644:7676   */\n  eq\n    /* \"#utility.yul\":7634:7694   */\n  tag_168\n  jumpi\n    /* \"#utility.yul\":7690:7691   */\n  0x00\n    /* \"#utility.yul\":7687:7688   */\n  dup1\n    /* \"#utility.yul\":7680:7692   */\n  revert\n    /* \"#utility.yul\":7634:7694   */\ntag_168:\n    /* \"#utility.yul\":7584:7700   */\n  pop\n  jump\t// out\n    /* \"#utility.yul\":7706:7843   */\ntag_74:\n    /* \"#utility.yul\":7760:7765   */\n  0x00\n    /* \"#utility.yul\":7791:7797   */\n  dup2\n    /* \"#utility.yul\":7785:7798   */\n  mload\n    /* \"#utility.yul\":7776:7798   */\n  swap1\n  pop\n    /* \"#utility.yul\":7807:7837   */\n  tag_170\n    /* \"#utility.yul\":7831:7836   */\n  dup2\n    /* \"#utility.yul\":7807:7837   */\n  tag_73\n  jump\t// in\ntag_170:\n    /* \"#utility.yul\":7706:7843   */\n  swap3\n  swap2\n  pop\n  pop\n  jump\t// out\n    /* \"#utility.yul\":7849:8194   */\ntag_19:\n    /* \"#utility.yul\":7916:7922   */\n  0x00\n    /* \"#utility.yul\":7965:7967   */\n  0x20\n    /* \"#utility.yul\":7953:7962   */\n  dup3\n    /* \"#utility.yul\":7944:7951   */\n  dup5\n    /* \"#utility.yul\":7940:7963   */\n  sub\n    /* \"#utility.yul\":7936:7968   */\n  slt\n    /* \"#utility.yul\":7933:8052   */\n  iszero\n  tag_172\n  jumpi\n    /* \"#utility.yul\":7971:8050   */\n  tag_173\n  tag_46\n  jump\t// in\ntag_173:\n    /* \"#utility.yul\":7933:8052   */\ntag_172:\n    /* \"#utility.yul\":8091:8092   */\n  0x00\n    /* \"#utility.yul\":8116:8177   */\n  tag_174\n    /* \"#utility.yul\":8169:8176   */\n  dup5\n    /* \"#utility.yul\":8160:8166   */\n  dup3\n    /* \"#utility.yul\":8149:8158   */\n  dup6\n    /* \"#utility.yul\":8145:8167   */\n  add\n    /* \"#utility.yul\":8116:8177   */\n  tag_74\n  jump\t// in\ntag_174:\n    /* \"#utility.yul\":8106:8177   */\n  swap2\n  pop\n    /* \"#utility.yul\":8062:8187   */\n  pop\n    /* \"#utility.yul\":7849:8194   */\n  swap3\n  swap2\n  pop\n  pop\n  jump\t// out\n    /* \"#utility.yul\":8200:8369   */\ntag_75:\n    /* \"#utility.yul\":8284:8295   */\n  0x00\n    /* \"#utility.yul\":8318:8324   */\n  dup3\n    /* \"#utility.yul\":8313:8316   */\n  dup3\n    /* \"#utility.yul\":8306:8325   */\n  mstore\n    /* \"#utility.yul\":8358:8362   */\n  0x20\n    /* \"#utility.yul\":8353:8356   */\n  dup3\n    /* \"#utility.yul\":8349:8363   */\n  add\n    /* \"#utility.yul\":8334:8363   */\n  swap1\n  pop\n    /* \"#utility.yul\":8200:8369   */\n  swap3\n  swap2\n  pop\n  pop\n  jump\t// out\n    /* \"#utility.yul\":8375:8535   */\ntag_76:\n    /* \"#utility.yul\":8515:8527   */\n  0x4e6f6e2d65726337323100000000000000000000000000000000000000000000\n    /* \"#utility.yul\":8511:8512   */\n  0x00\n    /* \"#utility.yul\":8503:8509   */\n  dup3\n    /* \"#utility.yul\":8499:8513   */\n  add\n    /* \"#utility.yul\":8492:8528   */\n  mstore\n    /* \"#utility.yul\":8375:8535   */\n  pop\n  jump\t// out\n    /* \"#utility.yul\":8541:8907   */\ntag_77:\n    /* \"#utility.yul\":8683:8686   */\n  0x00\n    /* \"#utility.yul\":8704:8771   */\n  tag_178\n    /* \"#utility.yul\":8768:8770   */\n  0x0a\n    /* \"#utility.yul\":8763:8766   */\n  dup4\n    /* \"#utility.yul\":8704:8771   */\n  tag_75\n  jump\t// in\ntag_178:\n    /* \"#utility.yul\":8697:8771   */\n  swap2\n  pop\n    /* \"#utility.yul\":8780:8873   */\n  tag_179\n    /* \"#utility.yul\":8869:8872   */\n  dup3\n    /* \"#utility.yul\":8780:8873   */\n  tag_76\n  jump\t// in\ntag_179:\n    /* \"#utility.yul\":8898:8900   */\n  0x20\n    /* \"#utility.yul\":8893:8896   */\n  dup3\n    /* \"#utility.yul\":8889:8901   */\n  add\n    /* \"#utility.yul\":8882:8901   */\n  swap1\n  pop\n    /* \"#utility.yul\":8541:8907   */\n  swap2\n  swap1\n  pop\n  jump\t// out\n    /* \"#utility.yul\":8913:9332   */\ntag_22:\n    /* \"#utility.yul\":9079:9083   */\n  0x00\n    /* \"#utility.yul\":9117:9119   */\n  0x20\n    /* \"#utility.yul\":9106:9115   */\n  dup3\n    /* \"#utility.yul\":9102:9120   */\n  add\n    /* \"#utility.yul\":9094:9120   */\n  swap1\n  pop\n    /* \"#utility.yul\":9166:9175   */\n  dup2\n    /* \"#utility.yul\":9160:9164   */\n  dup2\n    /* \"#utility.yul\":9156:9176   */\n  sub\n    /* \"#utility.yul\":9152:9153   */\n  0x00\n    /* \"#utility.yul\":9141:9150   */\n  dup4\n    /* \"#utility.yul\":9137:9154   */\n  add\n    /* \"#utility.yul\":9130:9177   */\n  mstore\n    /* \"#utility.yul\":9194:9325   */\n  tag_181\n    /* \"#utility.yul\":9320:9324   */\n  dup2\n    /* \"#utility.yul\":9194:9325   */\n  tag_77\n  jump\t// in\ntag_181:\n    /* \"#utility.yul\":9186:9325   */\n  swap1\n  pop\n    /* \"#utility.yul\":8913:9332   */\n  swap2\n  swap1\n  pop\n  jump\t// out\n    /* \"#utility.yul\":9338:9507   */\ntag_78:\n    /* \"#utility.yul\":9478:9499   */\n  0x496e76616c6964206c6f636b20706572696f6400000000000000000000000000\n    /* \"#utility.yul\":9474:9475   */\n  0x00\n    /* \"#utility.yul\":9466:9472   */\n  dup3\n    /* \"#utility.yul\":9462:9476   */\n  add\n    /* \"#utility.yul\":9455:9500   */\n  mstore\n    /* \"#utility.yul\":9338:9507   */\n  pop\n  jump\t// out\n    /* \"#utility.yul\":9513:9879   */\ntag_79:\n    /* \"#utility.yul\":9655:9658   */\n  0x00\n    /* \"#utility.yul\":9676:9743   */\n  tag_184\n    /* \"#utility.yul\":9740:9742   */\n  0x13\n    /* \"#utility.yul\":9735:9738   */\n  dup4\n    /* \"#utility.yul\":9676:9743   */\n  tag_75\n  jump\t// in\ntag_184:\n    /* \"#utility.yul\":9669:9743   */\n  swap2\n  pop\n    /* \"#utility.yul\":9752:9845   */\n  tag_185\n    /* \"#utility.yul\":9841:9844   */\n  dup3\n    /* \"#utility.yul\":9752:9845   */\n  tag_78\n  jump\t// in\ntag_185:\n    /* \"#utility.yul\":9870:9872   */\n  0x20\n    /* \"#utility.yul\":9865:9868   */\n  dup3\n    /* \"#utility.yul\":9861:9873   */\n  add\n    /* \"#utility.yul\":9854:9873   */\n  swap1\n  pop\n    /* \"#utility.yul\":9513:9879   */\n  swap2\n  swap1\n  pop\n  jump\t// out\n    /* \"#utility.yul\":9885:10304   */\ntag_25:\n    /* \"#utility.yul\":10051:10055   */\n  0x00\n    /* \"#utility.yul\":10089:10091   */\n  0x20\n    /* \"#utility.yul\":10078:10087   */\n  dup3\n    /* \"#utility.yul\":10074:10092   */\n  add\n    /* \"#utility.yul\":10066:10092   */\n  swap1\n  pop\n    /* \"#utility.yul\":10138:10147   */\n  dup2\n    /* \"#utility.yul\":10132:10136   */\n  dup2\n    /* \"#utility.yul\":10128:10148   */\n  sub\n    /* \"#utility.yul\":10124:10125   */\n  0x00\n    /* \"#utility.yul\":10113:10122   */\n  dup4\n    /* \"#utility.yul\":10109:10126   */\n  add\n    /* \"#utility.yul\":10102:10149   */\n  mstore\n    /* \"#utility.yul\":10166:10297   */\n  tag_187\n    /* \"#utility.yul\":10292:10296   */\n  dup2\n    /* \"#utility.yul\":10166:10297   */\n  tag_79\n  jump\t// in\ntag_187:\n    /* \"#utility.yul\":10158:10297   */\n  swap1\n  pop\n    /* \"#utility.yul\":9885:10304   */\n  swap2\n  swap1\n  pop\n  jump\t// out\n    /* \"#utility.yul\":10310:10490   */\ntag_31:\n    /* \"#utility.yul\":10358:10435   */\n  0x4e487b7100000000000000000000000000000000000000000000000000000000\n    /* \"#utility.yul\":10355:10356   */\n  0x00\n    /* \"#utility.yul\":10348:10436   */\n  mstore\n    /* \"#utility.yul\":10455:10459   */\n  0x32\n    /* \"#utility.yul\":10452:10453   */\n  0x04\n    /* \"#utility.yul\":10445:10460   */\n  mstore\n    /* \"#utility.yul\":10479:10483   */\n  0x24\n    /* \"#utility.yul\":10476:10477   */\n  0x00\n    /* \"#utility.yul\":10469:10484   */\n  revert\n    /* \"#utility.yul\":10496:10676   */\ntag_80:\n    /* \"#utility.yul\":10544:10621   */\n  0x4e487b7100000000000000000000000000000000000000000000000000000000\n    /* \"#utility.yul\":10541:10542   */\n  0x00\n    /* \"#utility.yul\":10534:10622   */\n  mstore\n    /* \"#utility.yul\":10641:10645   */\n  0x11\n    /* \"#utility.yul\":10638:10639   */\n  0x04\n    /* \"#utility.yul\":10631:10646   */\n  mstore\n    /* \"#utility.yul\":10665:10669   */\n  0x24\n    /* \"#utility.yul\":10662:10663   */\n  0x00\n    /* \"#utility.yul\":10655:10670   */\n  revert\n    /* \"#utility.yul\":10682:10915   */\ntag_34:\n    /* \"#utility.yul\":10721:10724   */\n  0x00\n    /* \"#utility.yul\":10744:10768   */\n  tag_191\n    /* \"#utility.yul\":10762:10767   */\n  dup3\n    /* \"#utility.yul\":10744:10768   */\n  tag_61\n  jump\t// in\ntag_191:\n    /* \"#utility.yul\":10735:10768   */\n  swap2\n  pop\n    /* \"#utility.yul\":10790:10856   */\n  0xffffffffffffffffffffffffffffffffffffffffffffffffffffffffffffffff\n    /* \"#utility.yul\":10783:10788   */\n  dup3\n    /* \"#utility.yul\":10780:10857   */\n  sub\n    /* \"#utility.yul\":10777:10880   */\n  tag_192\n  jumpi\n    /* \"#utility.yul\":10860:10878   */\n  tag_193\n  tag_80\n  jump\t// in\ntag_193:\n    /* \"#utility.yul\":10777:10880   */\ntag_192:\n    /* \"#utility.yul\":10907:10908   */\n  0x01\n    /* \"#utility.yul\":10900:10905   */\n  dup3\n    /* \"#utility.yul\":10896:10909   */\n  add\n    /* \"#utility.yul\":10889:10909   */\n  swap1\n  pop\n    /* \"#utility.yul\":10682:10915   */\n  swap2\n  swap1\n  pop\n  jump\t// out\n    /* \"contracts/Staking.sol\":412:6413  contract NFTStaking1 is Ownable, ReentrancyGuard {... */\ntag_42:\n  mload(0x80)\n  codecopy(0x00, dataOffset(sub_0), dataSize(sub_0))\n  0x00\n  assignImmutable(\"0x9ef31662fdafe5ade9dc48fd4724c04f17232ac2ae4e5ea3da9c2a310c4aba3c\")\n  return(0x00, dataSize(sub_0))\nstop\n\nsub_0: assembly {\n        /* \"contracts/Staking.sol\":412:6413  contract NFTStaking1 is Ownable, ReentrancyGuard {... */\n      mstore(0x40, 0x80)\n      callvalue\n      dup1\n      iszero\n      tag_1\n      jumpi\n      0x00\n      dup1\n      revert\n    tag_1:\n      pop\n      jumpi(tag_2, lt(calldatasize, 0x04))\n      shr(0xe0, calldataload(0x00))\n      dup1\n      0x779972da\n      gt\n      tag_16\n      jumpi\n      dup1\n      0xb48509e6\n      gt\n      tag_17\n      jumpi\n      dup1\n      0xb48509e6\n      eq\n      tag_12\n      jumpi\n      dup1\n      0xc69d1923\n      eq\n      tag_13\n      jumpi\n      dup1\n      0xf2fde38b\n      eq\n      tag_14\n      jumpi\n      dup1\n      0xff5d8450\n      eq\n      tag_15\n      jumpi\n      jump(tag_2)\n    tag_17:\n      dup1\n      0x779972da\n      eq\n      tag_9\n      jumpi\n      dup1\n      0x849a1e1d\n      eq\n      tag_10\n      jumpi\n      dup1\n      0x8da5cb5b\n      eq\n      tag_11\n      jumpi\n      jump(tag_2)\n    tag_16:\n      dup1\n      0x20281a98\n      eq\n      tag_3\n      jumpi\n      dup1\n      0x30d10275\n      eq\n      tag_4\n      jumpi\n      dup1\n      0x3fd8b02f\n      eq\n      tag_5\n      jumpi\n      dup1\n      0x422dc713\n      eq\n      tag_6\n      jumpi\n      dup1\n      0x5eac6239\n      eq\n      tag_7\n      jumpi\n      dup1\n      0x715018a6\n      eq\n      tag_8\n      jumpi\n    tag_2:\n      0x00\n      dup1\n      revert\n        /* \"contracts/Staking.sol\":3015:3148  function claimedRewards(uint256 _tokenId) external view returns (uint256) {... */\n    tag_3:\n      tag_18\n      0x04\n      dup1\n      calldatasize\n      sub\n      dup2\n      add\n      swap1\n      tag_19\n      swap2\n      swap1\n      tag_20\n      jump\t// in\n    tag_19:\n      tag_21\n      jump\t// in\n    tag_18:\n      mload(0x40)\n      tag_22\n      swap2\n      swap1\n      tag_23\n      jump\t// in\n    tag_22:\n      mload(0x40)\n      dup1\n      swap2\n      sub\n      swap1\n      return\n        /* \"contracts/Staking.sol\":540:576  IRewardsToken [] public rewardsToken */\n    tag_4:\n      tag_24\n      0x04\n      dup1\n      calldatasize\n      sub\n      dup2\n      add\n      swap1\n      tag_25\n      swap2\n      swap1\n      tag_20\n      jump\t// in\n    tag_25:\n      tag_26\n      jump\t// in\n    tag_24:\n      mload(0x40)\n      tag_27\n      swap2\n      swap1\n      tag_28\n      jump\t// in\n    tag_27:\n      mload(0x40)\n      dup1\n      swap2\n      sub\n      swap1\n      return\n        /* \"contracts/Staking.sol\":625:650  uint256 public lockPeriod */\n    tag_5:\n      tag_29\n      tag_30\n      jump\t// in\n    tag_29:\n      mload(0x40)\n      tag_31\n      swap2\n      swap1\n      tag_23\n      jump\t// in\n    tag_31:\n      mload(0x40)\n      dup1\n      swap2\n      sub\n      swap1\n      return\n        /* \"contracts/Staking.sol\":940:972  uint256 [] public rewardsPerWave */\n    tag_6:\n      tag_32\n      0x04\n      dup1\n      calldatasize\n      sub\n      dup2\n      add\n      swap1\n      tag_33\n      swap2\n      swap1\n      tag_20\n      jump\t// in\n    tag_33:\n      tag_34\n      jump\t// in\n    tag_32:\n      mload(0x40)\n      tag_35\n      swap2\n      swap1\n      tag_23\n      jump\t// in\n    tag_35:\n      mload(0x40)\n      dup1\n      swap2\n      sub\n      swap1\n      return\n        /* \"contracts/Staking.sol\":4984:5894  function claimRewards(uint256[] calldata _tokenIds) external notContract {... */\n    tag_7:\n      tag_36\n      0x04\n      dup1\n      calldatasize\n      sub\n      dup2\n      add\n      swap1\n      tag_37\n      swap2\n      swap1\n      tag_38\n      jump\t// in\n    tag_37:\n      tag_39\n      jump\t// in\n    tag_36:\n      stop\n        /* \"@openzeppelin/contracts/access/Ownable.sol\":1831:1932  function renounceOwnership() public virtual onlyOwner {... */\n    tag_8:\n      tag_40\n      tag_41\n      jump\t// in\n    tag_40:\n      stop\n        /* \"contracts/Staking.sol\":2634:2847  function setLockPeriod(uint256 _lockPeriod) external onlyOwner {... */\n    tag_9:\n      tag_42\n      0x04\n      dup1\n      calldatasize\n      sub\n      dup2\n      add\n      swap1\n      tag_43\n      swap2\n      swap1\n      tag_20\n      jump\t// in\n    tag_43:\n      tag_44\n      jump\t// in\n    tag_42:\n      stop\n        /* \"contracts/Staking.sol\":3926:4886  function unlockNFT(uint256[] calldata _tokenIds) external notContract nonReentrant {... */\n    tag_10:\n      tag_45\n      0x04\n      dup1\n      calldatasize\n      sub\n      dup2\n      add\n      swap1\n      tag_46\n      swap2\n      swap1\n      tag_38\n      jump\t// in\n    tag_46:\n      tag_47\n      jump\t// in\n    tag_45:\n      stop\n        /* \"@openzeppelin/contracts/access/Ownable.sol\":1201:1286  function owner() public view virtual returns (address) {... */\n    tag_11:\n      tag_48\n      tag_49\n      jump\t// in\n    tag_48:\n      mload(0x40)\n      tag_50\n      swap2\n      swap1\n      tag_51\n      jump\t// in\n    tag_50:\n      mload(0x40)\n      dup1\n      swap2\n      sub\n      swap1\n      return\n        /* \"contracts/Staking.sol\":583:616  IERC721 public immutable stakeNFT */\n    tag_12:\n      tag_52\n      tag_53\n      jump\t// in\n    tag_52:\n      mload(0x40)\n      tag_54\n      swap2\n      swap1\n      tag_55\n      jump\t// in\n    tag_54:\n      mload(0x40)\n      dup1\n      swap2\n      sub\n      swap1\n      return\n        /* \"contracts/Staking.sol\":914:933  uint256 public WAVE */\n    tag_13:\n      tag_56\n      tag_57\n      jump\t// in\n    tag_56:\n      mload(0x40)\n      tag_58\n      swap2\n      swap1\n      tag_23\n      jump\t// in\n    tag_58:\n      mload(0x40)\n      dup1\n      swap2\n      sub\n      swap1\n      return\n        /* \"@openzeppelin/contracts/access/Ownable.sol\":2081:2279  function transferOwnership(address newOwner) public virtual onlyOwner {... */\n    tag_14:\n      tag_59\n      0x04\n      dup1\n      calldatasize\n      sub\n      dup2\n      add\n      swap1\n      tag_60\n      swap2\n      swap1\n      tag_61\n      jump\t// in\n    tag_60:\n      tag_62\n      jump\t// in\n    tag_59:\n      stop\n        /* \"contracts/Staking.sol\":3289:3813  function lockNFT(uint256[] calldata _tokenIds) external notContract nonReentrant {... */\n    tag_15:\n      tag_63\n      0x04\n      dup1\n      calldatasize\n      sub\n      dup2\n      add\n      swap1\n      tag_64\n      swap2\n      swap1\n      tag_38\n      jump\t// in\n    tag_64:\n      tag_65\n      jump\t// in\n    tag_63:\n      stop\n        /* \"contracts/Staking.sol\":3015:3148  function claimedRewards(uint256 _tokenId) external view returns (uint256) {... */\n    tag_21:\n        /* \"contracts/Staking.sol\":3080:3087  uint256 */\n      0x00\n        /* \"contracts/Staking.sol\":3107:3115  lockInfo */\n      0x04\n        /* \"contracts/Staking.sol\":3107:3125  lockInfo[_tokenId] */\n      0x00\n        /* \"contracts/Staking.sol\":3116:3124  _tokenId */\n      dup4\n        /* \"contracts/Staking.sol\":3107:3125  lockInfo[_tokenId] */\n      dup2\n      mstore\n      0x20\n      add\n      swap1\n      dup2\n      mstore\n      0x20\n      add\n      0x00\n      keccak256\n        /* \"contracts/Staking.sol\":3107:3140  lockInfo[_tokenId].claimedRewards */\n      0x02\n      add\n      sload\n        /* \"contracts/Staking.sol\":3100:3140  return lockInfo[_tokenId].claimedRewards */\n      swap1\n      pop\n        /* \"contracts/Staking.sol\":3015:3148  function claimedRewards(uint256 _tokenId) external view returns (uint256) {... */\n      swap2\n      swap1\n      pop\n      jump\t// out\n        /* \"contracts/Staking.sol\":540:576  IRewardsToken [] public rewardsToken */\n    tag_26:\n      0x02\n      dup2\n      dup2\n      sload\n      dup2\n      lt\n      tag_67\n      jumpi\n      0x00\n      dup1\n      revert\n    tag_67:\n      swap1\n      0x00\n      mstore\n      keccak256(0x00, 0x20)\n      add\n      0x00\n      swap2\n      pop\n      sload\n      swap1\n      0x0100\n      exp\n      swap1\n      div\n      0xffffffffffffffffffffffffffffffffffffffff\n      and\n      dup2\n      jump\t// out\n        /* \"contracts/Staking.sol\":625:650  uint256 public lockPeriod */\n    tag_30:\n      sload(0x03)\n      dup2\n      jump\t// out\n        /* \"contracts/Staking.sol\":940:972  uint256 [] public rewardsPerWave */\n    tag_34:\n      0x06\n      dup2\n      dup2\n      sload\n      dup2\n      lt\n      tag_69\n      jumpi\n      0x00\n      dup1\n      revert\n    tag_69:\n      swap1\n      0x00\n      mstore\n      keccak256(0x00, 0x20)\n      add\n      0x00\n      swap2\n      pop\n      swap1\n      pop\n      sload\n      dup2\n      jump\t// out\n        /* \"contracts/Staking.sol\":4984:5894  function claimRewards(uint256[] calldata _tokenIds) external notContract {... */\n    tag_39:\n        /* \"contracts/Staking.sol\":2360:2392  address(msg.sender).isContract() */\n      tag_72\n        /* \"contracts/Staking.sol\":2368:2378  msg.sender */\n      caller\n        /* \"contracts/Staking.sol\":2360:2390  address(msg.sender).isContract */\n      0xffffffffffffffffffffffffffffffffffffffff\n      and\n      tag_73\n        /* \"contracts/Staking.sol\":2360:2392  address(msg.sender).isContract() */\n      jump\t// in\n    tag_72:\n        /* \"contracts/Staking.sol\":2359:2392  !address(msg.sender).isContract() */\n      iszero\n        /* \"contracts/Staking.sol\":2351:2417  require(!address(msg.sender).isContract(), \"Contract not allowed\") */\n      tag_74\n      jumpi\n      mload(0x40)\n      0x08c379a000000000000000000000000000000000000000000000000000000000\n      dup2\n      mstore\n      0x04\n      add\n      tag_75\n      swap1\n      tag_76\n      jump\t// in\n    tag_75:\n      mload(0x40)\n      dup1\n      swap2\n      sub\n      swap1\n      revert\n    tag_74:\n        /* \"contracts/Staking.sol\":2450:2459  tx.origin */\n      origin\n        /* \"contracts/Staking.sol\":2436:2459  msg.sender == tx.origin */\n      0xffffffffffffffffffffffffffffffffffffffff\n      and\n        /* \"contracts/Staking.sol\":2436:2446  msg.sender */\n      caller\n        /* \"contracts/Staking.sol\":2436:2459  msg.sender == tx.origin */\n      0xffffffffffffffffffffffffffffffffffffffff\n      and\n      eq\n        /* \"contracts/Staking.sol\":2428:2490  require(msg.sender == tx.origin, \"Proxy contract not allowed\") */\n      tag_77\n      jumpi\n      mload(0x40)\n      0x08c379a000000000000000000000000000000000000000000000000000000000\n      dup2\n      mstore\n      0x04\n      add\n      tag_78\n      swap1\n      tag_79\n      jump\t// in\n    tag_78:\n      mload(0x40)\n      dup1\n      swap2\n      sub\n      swap1\n      revert\n    tag_77:\n        /* \"contracts/Staking.sol\":5095:5096  0 */\n      0x00\n        /* \"contracts/Staking.sol\":5076:5085  _tokenIds */\n      dup3\n      dup3\n        /* \"contracts/Staking.sol\":5076:5092  _tokenIds.length */\n      swap1\n      pop\n        /* \"contracts/Staking.sol\":5076:5096  _tokenIds.length > 0 */\n      gt\n        /* \"contracts/Staking.sol\":5068:5110  require(_tokenIds.length > 0, \"No tokens\") */\n      tag_81\n      jumpi\n      mload(0x40)\n      0x08c379a000000000000000000000000000000000000000000000000000000000\n      dup2\n      mstore\n      0x04\n      add\n      tag_82\n      swap1\n      tag_83\n      jump\t// in\n    tag_82:\n      mload(0x40)\n      dup1\n      swap2\n      sub\n      swap1\n      revert\n    tag_81:\n        /* \"contracts/Staking.sol\":5123:5143  uint256 totalRewards */\n      0x00\n        /* \"contracts/Staking.sol\":5159:5168  uint256 i */\n      dup1\n        /* \"contracts/Staking.sol\":5171:5172  0 */\n      0x00\n        /* \"contracts/Staking.sol\":5159:5172  uint256 i = 0 */\n      swap1\n      pop\n        /* \"contracts/Staking.sol\":5154:5818  for (uint256 i = 0; i < _tokenIds.length; i++) {... */\n    tag_84:\n        /* \"contracts/Staking.sol\":5178:5187  _tokenIds */\n      dup4\n      dup4\n        /* \"contracts/Staking.sol\":5178:5194  _tokenIds.length */\n      swap1\n      pop\n        /* \"contracts/Staking.sol\":5174:5175  i */\n      dup2\n        /* \"contracts/Staking.sol\":5174:5194  i < _tokenIds.length */\n      lt\n        /* \"contracts/Staking.sol\":5154:5818  for (uint256 i = 0; i < _tokenIds.length; i++) {... */\n      iszero\n      tag_85\n      jumpi\n        /* \"contracts/Staking.sol\":5216:5236  LockInfo memory info */\n      0x00\n        /* \"contracts/Staking.sol\":5239:5247  lockInfo */\n      0x04\n        /* \"contracts/Staking.sol\":5239:5261  lockInfo[_tokenIds[i]] */\n      0x00\n        /* \"contracts/Staking.sol\":5248:5257  _tokenIds */\n      dup7\n      dup7\n        /* \"contracts/Staking.sol\":5258:5259  i */\n      dup6\n        /* \"contracts/Staking.sol\":5248:5260  _tokenIds[i] */\n      dup2\n      dup2\n      lt\n      tag_87\n      jumpi\n      tag_88\n      tag_89\n      jump\t// in\n    tag_88:\n    tag_87:\n      swap1\n      pop\n      0x20\n      mul\n      add\n      calldataload\n        /* \"contracts/Staking.sol\":5239:5261  lockInfo[_tokenIds[i]] */\n      dup2\n      mstore\n      0x20\n      add\n      swap1\n      dup2\n      mstore\n      0x20\n      add\n      0x00\n      keccak256\n        /* \"contracts/Staking.sol\":5216:5261  LockInfo memory info = lockInfo[_tokenIds[i]] */\n      mload(0x40)\n      dup1\n      0x80\n      add\n      0x40\n      mstore\n      swap1\n      dup2\n      0x00\n      dup3\n      add\n      0x00\n      swap1\n      sload\n      swap1\n      0x0100\n      exp\n      swap1\n      div\n      0xffffffffffffffffffffffffffffffffffffffff\n      and\n      0xffffffffffffffffffffffffffffffffffffffff\n      and\n      0xffffffffffffffffffffffffffffffffffffffff\n      and\n      dup2\n      mstore\n      0x20\n      add\n      0x01\n      dup3\n      add\n      sload\n      dup2\n      mstore\n      0x20\n      add\n      0x02\n      dup3\n      add\n      sload\n      dup2\n      mstore\n      0x20\n      add\n      0x03\n      dup3\n      add\n      0x00\n      swap1\n      sload\n      swap1\n      0x0100\n      exp\n      swap1\n      div\n      0xff\n      and\n      iszero\n      iszero\n      iszero\n      iszero\n      dup2\n      mstore\n      pop\n      pop\n      swap1\n      pop\n        /* \"contracts/Staking.sol\":5298:5308  msg.sender */\n      caller\n        /* \"contracts/Staking.sol\":5284:5308  info.owner == msg.sender */\n      0xffffffffffffffffffffffffffffffffffffffff\n      and\n        /* \"contracts/Staking.sol\":5284:5288  info */\n      dup2\n        /* \"contracts/Staking.sol\":5284:5294  info.owner */\n      0x00\n      add\n      mload\n        /* \"contracts/Staking.sol\":5284:5308  info.owner == msg.sender */\n      0xffffffffffffffffffffffffffffffffffffffff\n      and\n      eq\n        /* \"contracts/Staking.sol\":5276:5330  require(info.owner == msg.sender, \"Not a token owner\") */\n      tag_90\n      jumpi\n      mload(0x40)\n      0x08c379a000000000000000000000000000000000000000000000000000000000\n      dup2\n      mstore\n      0x04\n      add\n      tag_91\n      swap1\n      tag_92\n      jump\t// in\n    tag_91:\n      mload(0x40)\n      dup1\n      swap2\n      sub\n      swap1\n      revert\n    tag_90:\n        /* \"contracts/Staking.sol\":5384:5399  block.timestamp */\n      timestamp\n        /* \"contracts/Staking.sol\":5371:5381  lockPeriod */\n      sload(0x03)\n        /* \"contracts/Staking.sol\":5353:5357  info */\n      dup3\n        /* \"contracts/Staking.sol\":5353:5368  info.lockedTime */\n      0x20\n      add\n      mload\n        /* \"contracts/Staking.sol\":5353:5381  info.lockedTime + lockPeriod */\n      tag_93\n      swap2\n      swap1\n      tag_94\n      jump\t// in\n    tag_93:\n        /* \"contracts/Staking.sol\":5353:5399  info.lockedTime + lockPeriod < block.timestamp */\n      lt\n        /* \"contracts/Staking.sol\":5345:5425  require(info.lockedTime + lockPeriod < block.timestamp, \"Not able to claim yet\") */\n      tag_95\n      jumpi\n      mload(0x40)\n      0x08c379a000000000000000000000000000000000000000000000000000000000\n      dup2\n      mstore\n      0x04\n      add\n      tag_96\n      swap1\n      tag_97\n      jump\t// in\n    tag_96:\n      mload(0x40)\n      dup1\n      swap2\n      sub\n      swap1\n      revert\n    tag_95:\n        /* \"contracts/Staking.sol\":5449:5453  info */\n      dup1\n        /* \"contracts/Staking.sol\":5449:5464  info.isUnlocked */\n      0x60\n      add\n      mload\n        /* \"contracts/Staking.sol\":5448:5464  !info.isUnlocked */\n      iszero\n        /* \"contracts/Staking.sol\":5440:5485  require(!info.isUnlocked, \"Already unlocked\") */\n      tag_98\n      jumpi\n      mload(0x40)\n      0x08c379a000000000000000000000000000000000000000000000000000000000\n      dup2\n      mstore\n      0x04\n      add\n      tag_99\n      swap1\n      tag_100\n      jump\t// in\n    tag_99:\n      mload(0x40)\n      dup1\n      swap2\n      sub\n      swap1\n      revert\n    tag_98:\n        /* \"contracts/Staking.sol\":5502:5521  uint256 totalAmount */\n      0x00\n        /* \"contracts/Staking.sol\":5524:5551  _rewardAmount(_tokenIds[i]) */\n      tag_101\n        /* \"contracts/Staking.sol\":5538:5547  _tokenIds */\n      dup7\n      dup7\n        /* \"contracts/Staking.sol\":5548:5549  i */\n      dup6\n        /* \"contracts/Staking.sol\":5538:5550  _tokenIds[i] */\n      dup2\n      dup2\n      lt\n      tag_102\n      jumpi\n      tag_103\n      tag_89\n      jump\t// in\n    tag_103:\n    tag_102:\n      swap1\n      pop\n      0x20\n      mul\n      add\n      calldataload\n        /* \"contracts/Staking.sol\":5524:5537  _rewardAmount */\n      tag_104\n        /* \"contracts/Staking.sol\":5524:5551  _rewardAmount(_tokenIds[i]) */\n      jump\t// in\n    tag_101:\n        /* \"contracts/Staking.sol\":5502:5551  uint256 totalAmount = _rewardAmount(_tokenIds[i]) */\n      swap1\n      pop\n        /* \"contracts/Staking.sol\":5566:5590  uint256 unclaminedAmount */\n      0x00\n        /* \"contracts/Staking.sol\":5607:5611  info */\n      dup3\n        /* \"contracts/Staking.sol\":5607:5626  info.claimedRewards */\n      0x40\n      add\n      mload\n        /* \"contracts/Staking.sol\":5593:5604  totalAmount */\n      dup3\n        /* \"contracts/Staking.sol\":5593:5626  totalAmount - info.claimedRewards */\n      tag_105\n      swap2\n      swap1\n      tag_106\n      jump\t// in\n    tag_105:\n        /* \"contracts/Staking.sol\":5566:5626  uint256 unclaminedAmount = totalAmount - info.claimedRewards */\n      swap1\n      pop\n        /* \"contracts/Staking.sol\":5722:5738  unclaminedAmount */\n      dup1\n        /* \"contracts/Staking.sol\":5706:5738  totalRewards += unclaminedAmount */\n      dup6\n      tag_107\n      swap2\n      swap1\n      tag_94\n      jump\t// in\n    tag_107:\n      swap5\n      pop\n        /* \"contracts/Staking.sol\":5795:5806  totalAmount */\n      dup2\n        /* \"contracts/Staking.sol\":5755:5763  lockInfo */\n      0x04\n        /* \"contracts/Staking.sol\":5755:5777  lockInfo[_tokenIds[i]] */\n      0x00\n        /* \"contracts/Staking.sol\":5764:5773  _tokenIds */\n      dup10\n      dup10\n        /* \"contracts/Staking.sol\":5774:5775  i */\n      dup9\n        /* \"contracts/Staking.sol\":5764:5776  _tokenIds[i] */\n      dup2\n      dup2\n      lt\n      tag_108\n      jumpi\n      tag_109\n      tag_89\n      jump\t// in\n    tag_109:\n    tag_108:\n      swap1\n      pop\n      0x20\n      mul\n      add\n      calldataload\n        /* \"contracts/Staking.sol\":5755:5777  lockInfo[_tokenIds[i]] */\n      dup2\n      mstore\n      0x20\n      add\n      swap1\n      dup2\n      mstore\n      0x20\n      add\n      0x00\n      keccak256\n        /* \"contracts/Staking.sol\":5755:5792  lockInfo[_tokenIds[i]].claimedRewards */\n      0x02\n      add\n        /* \"contracts/Staking.sol\":5755:5806  lockInfo[_tokenIds[i]].claimedRewards = totalAmount */\n      dup2\n      swap1\n      sstore\n      pop\n        /* \"contracts/Staking.sol\":5201:5818  {... */\n      pop\n      pop\n      pop\n        /* \"contracts/Staking.sol\":5196:5199  i++ */\n      dup1\n      dup1\n      tag_110\n      swap1\n      tag_111\n      jump\t// in\n    tag_110:\n      swap2\n      pop\n      pop\n        /* \"contracts/Staking.sol\":5154:5818  for (uint256 i = 0; i < _tokenIds.length; i++) {... */\n      jump(tag_84)\n    tag_85:\n      pop\n        /* \"contracts/Staking.sol\":5850:5860  msg.sender */\n      caller\n        /* \"contracts/Staking.sol\":5835:5886  RewardsClaimed(msg.sender, _tokenIds, totalRewards) */\n      0xffffffffffffffffffffffffffffffffffffffff\n      and\n      0x37826be3c26dbad83731f4b985f22fa9ef86b6d1974cd77208332b7f1f283c0c\n        /* \"contracts/Staking.sol\":5862:5871  _tokenIds */\n      dup5\n      dup5\n        /* \"contracts/Staking.sol\":5873:5885  totalRewards */\n      dup5\n        /* \"contracts/Staking.sol\":5835:5886  RewardsClaimed(msg.sender, _tokenIds, totalRewards) */\n      mload(0x40)\n      tag_112\n      swap4\n      swap3\n      swap2\n      swap1\n      tag_113\n      jump\t// in\n    tag_112:\n      mload(0x40)\n      dup1\n      swap2\n      sub\n      swap1\n      log2\n        /* \"contracts/Staking.sol\":5057:5894  {... */\n      pop\n        /* \"contracts/Staking.sol\":4984:5894  function claimRewards(uint256[] calldata _tokenIds) external notContract {... */\n      pop\n      pop\n      jump\t// out\n        /* \"@openzeppelin/contracts/access/Ownable.sol\":1831:1932  function renounceOwnership() public virtual onlyOwner {... */\n    tag_41:\n        /* \"@openzeppelin/contracts/access/Ownable.sol\":1094:1107  _checkOwner() */\n      tag_115\n        /* \"@openzeppelin/contracts/access/Ownable.sol\":1094:1105  _checkOwner */\n      tag_116\n        /* \"@openzeppelin/contracts/access/Ownable.sol\":1094:1107  _checkOwner() */\n      jump\t// in\n    tag_115:\n        /* \"@openzeppelin/contracts/access/Ownable.sol\":1895:1925  _transferOwnership(address(0)) */\n      tag_118\n        /* \"@openzeppelin/contracts/access/Ownable.sol\":1922:1923  0 */\n      0x00\n        /* \"@openzeppelin/contracts/access/Ownable.sol\":1895:1913  _transferOwnership */\n      tag_119\n        /* \"@openzeppelin/contracts/access/Ownable.sol\":1895:1925  _transferOwnership(address(0)) */\n      jump\t// in\n    tag_118:\n        /* \"@openzeppelin/contracts/access/Ownable.sol\":1831:1932  function renounceOwnership() public virtual onlyOwner {... */\n      jump\t// out\n        /* \"contracts/Staking.sol\":2634:2847  function setLockPeriod(uint256 _lockPeriod) external onlyOwner {... */\n    tag_44:\n        /* \"@openzeppelin/contracts/access/Ownable.sol\":1094:1107  _checkOwner() */\n      tag_121\n        /* \"@openzeppelin/contracts/access/Ownable.sol\":1094:1105  _checkOwner */\n      tag_116\n        /* \"@openzeppelin/contracts/access/Ownable.sol\":1094:1107  _checkOwner() */\n      jump\t// in\n    tag_121:\n        /* \"contracts/Staking.sol\":2730:2731  0 */\n      0x00\n        /* \"contracts/Staking.sol\":2716:2727  _lockPeriod */\n      dup2\n        /* \"contracts/Staking.sol\":2716:2731  _lockPeriod > 0 */\n      gt\n        /* \"contracts/Staking.sol\":2708:2756  require(_lockPeriod > 0, \"Invalid lock period.\") */\n      tag_123\n      jumpi\n      mload(0x40)\n      0x08c379a000000000000000000000000000000000000000000000000000000000\n      dup2\n      mstore\n      0x04\n      add\n      tag_124\n      swap1\n      tag_125\n      jump\t// in\n    tag_124:\n      mload(0x40)\n      dup1\n      swap2\n      sub\n      swap1\n      revert\n    tag_123:\n        /* \"contracts/Staking.sol\":2780:2791  _lockPeriod */\n      dup1\n        /* \"contracts/Staking.sol\":2767:2777  lockPeriod */\n      0x03\n        /* \"contracts/Staking.sol\":2767:2791  lockPeriod = _lockPeriod */\n      dup2\n      swap1\n      sstore\n      pop\n        /* \"contracts/Staking.sol\":2809:2839  LockPeriodUpdated(_lockPeriod) */\n      0x8249ec545e68f6f1e1230133ca48c704d831a7f8e635ded80f3dd9e99b09bb2f\n        /* \"contracts/Staking.sol\":2827:2838  _lockPeriod */\n      dup2\n        /* \"contracts/Staking.sol\":2809:2839  LockPeriodUpdated(_lockPeriod) */\n      mload(0x40)\n      tag_126\n      swap2\n      swap1\n      tag_23\n      jump\t// in\n    tag_126:\n      mload(0x40)\n      dup1\n      swap2\n      sub\n      swap1\n      log1\n        /* \"contracts/Staking.sol\":2634:2847  function setLockPeriod(uint256 _lockPeriod) external onlyOwner {... */\n      pop\n      jump\t// out\n        /* \"contracts/Staking.sol\":3926:4886  function unlockNFT(uint256[] calldata _tokenIds) external notContract nonReentrant {... */\n    tag_47:\n        /* \"contracts/Staking.sol\":2360:2392  address(msg.sender).isContract() */\n      tag_128\n        /* \"contracts/Staking.sol\":2368:2378  msg.sender */\n      caller\n        /* \"contracts/Staking.sol\":2360:2390  address(msg.sender).isContract */\n      0xffffffffffffffffffffffffffffffffffffffff\n      and\n      tag_73\n        /* \"contracts/Staking.sol\":2360:2392  address(msg.sender).isContract() */\n      jump\t// in\n    tag_128:\n        /* \"contracts/Staking.sol\":2359:2392  !address(msg.sender).isContract() */\n      iszero\n        /* \"contracts/Staking.sol\":2351:2417  require(!address(msg.sender).isContract(), \"Contract not allowed\") */\n      tag_129\n      jumpi\n      mload(0x40)\n      0x08c379a000000000000000000000000000000000000000000000000000000000\n      dup2\n      mstore\n      0x04\n      add\n      tag_130\n      swap1\n      tag_76\n      jump\t// in\n    tag_130:\n      mload(0x40)\n      dup1\n      swap2\n      sub\n      swap1\n      revert\n    tag_129:\n        /* \"contracts/Staking.sol\":2450:2459  tx.origin */\n      origin\n        /* \"contracts/Staking.sol\":2436:2459  msg.sender == tx.origin */\n      0xffffffffffffffffffffffffffffffffffffffff\n      and\n        /* \"contracts/Staking.sol\":2436:2446  msg.sender */\n      caller\n        /* \"contracts/Staking.sol\":2436:2459  msg.sender == tx.origin */\n      0xffffffffffffffffffffffffffffffffffffffff\n      and\n      eq\n        /* \"contracts/Staking.sol\":2428:2490  require(msg.sender == tx.origin, \"Proxy contract not allowed\") */\n      tag_131\n      jumpi\n      mload(0x40)\n      0x08c379a000000000000000000000000000000000000000000000000000000000\n      dup2\n      mstore\n      0x04\n      add\n      tag_132\n      swap1\n      tag_79\n      jump\t// in\n    tag_132:\n      mload(0x40)\n      dup1\n      swap2\n      sub\n      swap1\n      revert\n    tag_131:\n        /* \"@openzeppelin/contracts/security/ReentrancyGuard.sol\":1744:1745  2 */\n      0x02\n        /* \"@openzeppelin/contracts/security/ReentrancyGuard.sol\":2325:2332  _status */\n      sload(0x01)\n        /* \"@openzeppelin/contracts/security/ReentrancyGuard.sol\":2325:2344  _status != _ENTERED */\n      sub\n        /* \"@openzeppelin/contracts/security/ReentrancyGuard.sol\":2317:2380  require(_status != _ENTERED, \"ReentrancyGuard: reentrant call\") */\n      tag_134\n      jumpi\n      mload(0x40)\n      0x08c379a000000000000000000000000000000000000000000000000000000000\n      dup2\n      mstore\n      0x04\n      add\n      tag_135\n      swap1\n      tag_136\n      jump\t// in\n    tag_135:\n      mload(0x40)\n      dup1\n      swap2\n      sub\n      swap1\n      revert\n    tag_134:\n        /* \"@openzeppelin/contracts/security/ReentrancyGuard.sol\":1744:1745  2 */\n      0x02\n        /* \"@openzeppelin/contracts/security/ReentrancyGuard.sol\":2455:2462  _status */\n      0x01\n        /* \"@openzeppelin/contracts/security/ReentrancyGuard.sol\":2455:2473  _status = _ENTERED */\n      dup2\n      swap1\n      sstore\n      pop\n        /* \"contracts/Staking.sol\":4047:4048  0 */\n      0x00\n        /* \"contracts/Staking.sol\":4028:4037  _tokenIds */\n      dup3\n      dup3\n        /* \"contracts/Staking.sol\":4028:4044  _tokenIds.length */\n      swap1\n      pop\n        /* \"contracts/Staking.sol\":4028:4048  _tokenIds.length > 0 */\n      gt\n        /* \"contracts/Staking.sol\":4020:4062  require(_tokenIds.length > 0, \"No tokens\") */\n      tag_138\n      jumpi\n      mload(0x40)\n      0x08c379a000000000000000000000000000000000000000000000000000000000\n      dup2\n      mstore\n      0x04\n      add\n      tag_139\n      swap1\n      tag_83\n      jump\t// in\n    tag_139:\n      mload(0x40)\n      dup1\n      swap2\n      sub\n      swap1\n      revert\n    tag_138:\n        /* \"contracts/Staking.sol\":4080:4089  uint256 i */\n      0x00\n        /* \"contracts/Staking.sol\":4075:4827  for (uint256 i = 0; i < _tokenIds.length; i++) {... */\n    tag_140:\n        /* \"contracts/Staking.sol\":4099:4108  _tokenIds */\n      dup3\n      dup3\n        /* \"contracts/Staking.sol\":4099:4115  _tokenIds.length */\n      swap1\n      pop\n        /* \"contracts/Staking.sol\":4095:4096  i */\n      dup2\n        /* \"contracts/Staking.sol\":4095:4115  i < _tokenIds.length */\n      lt\n        /* \"contracts/Staking.sol\":4075:4827  for (uint256 i = 0; i < _tokenIds.length; i++) {... */\n      iszero\n      tag_141\n      jumpi\n        /* \"contracts/Staking.sol\":4137:4157  LockInfo memory info */\n      0x00\n        /* \"contracts/Staking.sol\":4160:4168  lockInfo */\n      0x04\n        /* \"contracts/Staking.sol\":4160:4182  lockInfo[_tokenIds[i]] */\n      0x00\n        /* \"contracts/Staking.sol\":4169:4178  _tokenIds */\n      dup6\n      dup6\n        /* \"contracts/Staking.sol\":4179:4180  i */\n      dup6\n        /* \"contracts/Staking.sol\":4169:4181  _tokenIds[i] */\n      dup2\n      dup2\n      lt\n      tag_143\n      jumpi\n      tag_144\n      tag_89\n      jump\t// in\n    tag_144:\n    tag_143:\n      swap1\n      pop\n      0x20\n      mul\n      add\n      calldataload\n        /* \"contracts/Staking.sol\":4160:4182  lockInfo[_tokenIds[i]] */\n      dup2\n      mstore\n      0x20\n      add\n      swap1\n      dup2\n      mstore\n      0x20\n      add\n      0x00\n      keccak256\n        /* \"contracts/Staking.sol\":4137:4182  LockInfo memory info = lockInfo[_tokenIds[i]] */\n      mload(0x40)\n      dup1\n      0x80\n      add\n      0x40\n      mstore\n      swap1\n      dup2\n      0x00\n      dup3\n      add\n      0x00\n      swap1\n      sload\n      swap1\n      0x0100\n      exp\n      swap1\n      div\n      0xffffffffffffffffffffffffffffffffffffffff\n      and\n      0xffffffffffffffffffffffffffffffffffffffff\n      and\n      0xffffffffffffffffffffffffffffffffffffffff\n      and\n      dup2\n      mstore\n      0x20\n      add\n      0x01\n      dup3\n      add\n      sload\n      dup2\n      mstore\n      0x20\n      add\n      0x02\n      dup3\n      add\n      sload\n      dup2\n      mstore\n      0x20\n      add\n      0x03\n      dup3\n      add\n      0x00\n      swap1\n      sload\n      swap1\n      0x0100\n      exp\n      swap1\n      div\n      0xff\n      and\n      iszero\n      iszero\n      iszero\n      iszero\n      dup2\n      mstore\n      pop\n      pop\n      swap1\n      pop\n        /* \"contracts/Staking.sol\":4219:4229  msg.sender */\n      caller\n        /* \"contracts/Staking.sol\":4205:4229  info.owner == msg.sender */\n      0xffffffffffffffffffffffffffffffffffffffff\n      and\n        /* \"contracts/Staking.sol\":4205:4209  info */\n      dup2\n        /* \"contracts/Staking.sol\":4205:4215  info.owner */\n      0x00\n      add\n      mload\n        /* \"contracts/Staking.sol\":4205:4229  info.owner == msg.sender */\n      0xffffffffffffffffffffffffffffffffffffffff\n      and\n      eq\n        /* \"contracts/Staking.sol\":4197:4251  require(info.owner == msg.sender, \"Not a token owner\") */\n      tag_145\n      jumpi\n      mload(0x40)\n      0x08c379a000000000000000000000000000000000000000000000000000000000\n      dup2\n      mstore\n      0x04\n      add\n      tag_146\n      swap1\n      tag_92\n      jump\t// in\n    tag_146:\n      mload(0x40)\n      dup1\n      swap2\n      sub\n      swap1\n      revert\n    tag_145:\n        /* \"contracts/Staking.sol\":4305:4320  block.timestamp */\n      timestamp\n        /* \"contracts/Staking.sol\":4292:4302  lockPeriod */\n      sload(0x03)\n        /* \"contracts/Staking.sol\":4274:4278  info */\n      dup3\n        /* \"contracts/Staking.sol\":4274:4289  info.lockedTime */\n      0x20\n      add\n      mload\n        /* \"contracts/Staking.sol\":4274:4302  info.lockedTime + lockPeriod */\n      tag_147\n      swap2\n      swap1\n      tag_94\n      jump\t// in\n    tag_147:\n        /* \"contracts/Staking.sol\":4274:4320  info.lockedTime + lockPeriod < block.timestamp */\n      lt\n        /* \"contracts/Staking.sol\":4266:4347  require(info.lockedTime + lockPeriod < block.timestamp, \"Not able to unlock yet\") */\n      tag_148\n      jumpi\n      mload(0x40)\n      0x08c379a000000000000000000000000000000000000000000000000000000000\n      dup2\n      mstore\n      0x04\n      add\n      tag_149\n      swap1\n      tag_150\n      jump\t// in\n    tag_149:\n      mload(0x40)\n      dup1\n      swap2\n      sub\n      swap1\n      revert\n    tag_148:\n        /* \"contracts/Staking.sol\":4371:4375  info */\n      dup1\n        /* \"contracts/Staking.sol\":4371:4386  info.isUnlocked */\n      0x60\n      add\n      mload\n        /* \"contracts/Staking.sol\":4370:4386  !info.isUnlocked */\n      iszero\n        /* \"contracts/Staking.sol\":4362:4407  require(!info.isUnlocked, \"Already unlocked\") */\n      tag_151\n      jumpi\n      mload(0x40)\n      0x08c379a000000000000000000000000000000000000000000000000000000000\n      dup2\n      mstore\n      0x04\n      add\n      tag_152\n      swap1\n      tag_100\n      jump\t// in\n    tag_152:\n      mload(0x40)\n      dup1\n      swap2\n      sub\n      swap1\n      revert\n    tag_151:\n        /* \"contracts/Staking.sol\":4424:4432  stakeNFT */\n      immutable(\"0x9ef31662fdafe5ade9dc48fd4724c04f17232ac2ae4e5ea3da9c2a310c4aba3c\")\n        /* \"contracts/Staking.sol\":4424:4445  stakeNFT.transferFrom */\n      0xffffffffffffffffffffffffffffffffffffffff\n      and\n      0x23b872dd\n        /* \"contracts/Staking.sol\":4454:4458  this */\n      address\n        /* \"contracts/Staking.sol\":4461:4471  msg.sender */\n      caller\n        /* \"contracts/Staking.sol\":4473:4482  _tokenIds */\n      dup8\n      dup8\n        /* \"contracts/Staking.sol\":4483:4484  i */\n      dup8\n        /* \"contracts/Staking.sol\":4473:4485  _tokenIds[i] */\n      dup2\n      dup2\n      lt\n      tag_153\n      jumpi\n      tag_154\n      tag_89\n      jump\t// in\n    tag_154:\n    tag_153:\n      swap1\n      pop\n      0x20\n      mul\n      add\n      calldataload\n        /* \"contracts/Staking.sol\":4424:4486  stakeNFT.transferFrom(address(this), msg.sender, _tokenIds[i]) */\n      mload(0x40)\n      dup5\n      0xffffffff\n      and\n      0xe0\n      shl\n      dup2\n      mstore\n      0x04\n      add\n      tag_155\n      swap4\n      swap3\n      swap2\n      swap1\n      tag_156\n      jump\t// in\n    tag_155:\n      0x00\n      mload(0x40)\n      dup1\n      dup4\n      sub\n      dup2\n      0x00\n      dup8\n      dup1\n      extcodesize\n      iszero\n      dup1\n      iszero\n      tag_157\n      jumpi\n      0x00\n      dup1\n      revert\n    tag_157:\n      pop\n      gas\n      call\n      iszero\n      dup1\n      iszero\n      tag_159\n      jumpi\n      returndatasize\n      0x00\n      dup1\n      returndatacopy\n      revert(0x00, returndatasize)\n    tag_159:\n      pop\n      pop\n      pop\n      pop\n        /* \"contracts/Staking.sol\":4503:4522  uint256 totalAmount */\n      0x00\n        /* \"contracts/Staking.sol\":4525:4552  _rewardAmount(_tokenIds[i]) */\n      tag_160\n        /* \"contracts/Staking.sol\":4539:4548  _tokenIds */\n      dup6\n      dup6\n        /* \"contracts/Staking.sol\":4549:4550  i */\n      dup6\n        /* \"contracts/Staking.sol\":4539:4551  _tokenIds[i] */\n      dup2\n      dup2\n      lt\n      tag_161\n      jumpi\n      tag_162\n      tag_89\n      jump\t// in\n    tag_162:\n    tag_161:\n      swap1\n      pop\n      0x20\n      mul\n      add\n      calldataload\n        /* \"contracts/Staking.sol\":4525:4538  _rewardAmount */\n      tag_104\n        /* \"contracts/Staking.sol\":4525:4552  _rewardAmount(_tokenIds[i]) */\n      jump\t// in\n    tag_160:\n        /* \"contracts/Staking.sol\":4503:4552  uint256 totalAmount = _rewardAmount(_tokenIds[i]) */\n      swap1\n      pop\n        /* \"contracts/Staking.sol\":4567:4591  uint256 unclaminedAmount */\n      0x00\n        /* \"contracts/Staking.sol\":4608:4612  info */\n      dup3\n        /* \"contracts/Staking.sol\":4608:4627  info.claimedRewards */\n      0x40\n      add\n      mload\n        /* \"contracts/Staking.sol\":4594:4605  totalAmount */\n      dup3\n        /* \"contracts/Staking.sol\":4594:4627  totalAmount - info.claimedRewards */\n      tag_163\n      swap2\n      swap1\n      tag_106\n      jump\t// in\n    tag_163:\n        /* \"contracts/Staking.sol\":4567:4627  uint256 unclaminedAmount = totalAmount - info.claimedRewards */\n      swap1\n      pop\n        /* \"contracts/Staking.sol\":4749:4760  totalAmount */\n      dup2\n        /* \"contracts/Staking.sol\":4709:4717  lockInfo */\n      0x04\n        /* \"contracts/Staking.sol\":4709:4731  lockInfo[_tokenIds[i]] */\n      0x00\n        /* \"contracts/Staking.sol\":4718:4727  _tokenIds */\n      dup9\n      dup9\n        /* \"contracts/Staking.sol\":4728:4729  i */\n      dup9\n        /* \"contracts/Staking.sol\":4718:4730  _tokenIds[i] */\n      dup2\n      dup2\n      lt\n      tag_164\n      jumpi\n      tag_165\n      tag_89\n      jump\t// in\n    tag_165:\n    tag_164:\n      swap1\n      pop\n      0x20\n      mul\n      add\n      calldataload\n        /* \"contracts/Staking.sol\":4709:4731  lockInfo[_tokenIds[i]] */\n      dup2\n      mstore\n      0x20\n      add\n      swap1\n      dup2\n      mstore\n      0x20\n      add\n      0x00\n      keccak256\n        /* \"contracts/Staking.sol\":4709:4746  lockInfo[_tokenIds[i]].claimedRewards */\n      0x02\n      add\n        /* \"contracts/Staking.sol\":4709:4760  lockInfo[_tokenIds[i]].claimedRewards = totalAmount */\n      dup2\n      swap1\n      sstore\n      pop\n        /* \"contracts/Staking.sol\":4811:4815  true */\n      0x01\n        /* \"contracts/Staking.sol\":4775:4783  lockInfo */\n      0x04\n        /* \"contracts/Staking.sol\":4775:4797  lockInfo[_tokenIds[i]] */\n      0x00\n        /* \"contracts/Staking.sol\":4784:4793  _tokenIds */\n      dup9\n      dup9\n        /* \"contracts/Staking.sol\":4794:4795  i */\n      dup9\n        /* \"contracts/Staking.sol\":4784:4796  _tokenIds[i] */\n      dup2\n      dup2\n      lt\n      tag_166\n      jumpi\n      tag_167\n      tag_89\n      jump\t// in\n    tag_167:\n    tag_166:\n      swap1\n      pop\n      0x20\n      mul\n      add\n      calldataload\n        /* \"contracts/Staking.sol\":4775:4797  lockInfo[_tokenIds[i]] */\n      dup2\n      mstore\n      0x20\n      add\n      swap1\n      dup2\n      mstore\n      0x20\n      add\n      0x00\n      keccak256\n        /* \"contracts/Staking.sol\":4775:4808  lockInfo[_tokenIds[i]].isUnlocked */\n      0x03\n      add\n      0x00\n        /* \"contracts/Staking.sol\":4775:4815  lockInfo[_tokenIds[i]].isUnlocked = true */\n      0x0100\n      exp\n      dup2\n      sload\n      dup2\n      0xff\n      mul\n      not\n      and\n      swap1\n      dup4\n      iszero\n      iszero\n      mul\n      or\n      swap1\n      sstore\n      pop\n        /* \"contracts/Staking.sol\":4122:4827  {... */\n      pop\n      pop\n      pop\n        /* \"contracts/Staking.sol\":4117:4120  i++ */\n      dup1\n      dup1\n      tag_168\n      swap1\n      tag_111\n      jump\t// in\n    tag_168:\n      swap2\n      pop\n      pop\n        /* \"contracts/Staking.sol\":4075:4827  for (uint256 i = 0; i < _tokenIds.length; i++) {... */\n      jump(tag_140)\n    tag_141:\n      pop\n        /* \"contracts/Staking.sol\":4856:4866  msg.sender */\n      caller\n        /* \"contracts/Staking.sol\":4844:4878  NFTUnLocked(msg.sender, _tokenIds) */\n      0xffffffffffffffffffffffffffffffffffffffff\n      and\n      0x5cb48022479b9ac3bfb10a27965dc010acffc9fc1bc9a52f0b18975b944b54ca\n        /* \"contracts/Staking.sol\":4868:4877  _tokenIds */\n      dup4\n      dup4\n        /* \"contracts/Staking.sol\":4844:4878  NFTUnLocked(msg.sender, _tokenIds) */\n      mload(0x40)\n      tag_169\n      swap3\n      swap2\n      swap1\n      tag_170\n      jump\t// in\n    tag_169:\n      mload(0x40)\n      dup1\n      swap2\n      sub\n      swap1\n      log2\n        /* \"@openzeppelin/contracts/security/ReentrancyGuard.sol\":1701:1702  1 */\n      0x01\n        /* \"@openzeppelin/contracts/security/ReentrancyGuard.sol\":2628:2635  _status */\n      dup1\n        /* \"@openzeppelin/contracts/security/ReentrancyGuard.sol\":2628:2650  _status = _NOT_ENTERED */\n      dup2\n      swap1\n      sstore\n      pop\n        /* \"contracts/Staking.sol\":3926:4886  function unlockNFT(uint256[] calldata _tokenIds) external notContract nonReentrant {... */\n      pop\n      pop\n      jump\t// out\n        /* \"@openzeppelin/contracts/access/Ownable.sol\":1201:1286  function owner() public view virtual returns (address) {... */\n    tag_49:\n        /* \"@openzeppelin/contracts/access/Ownable.sol\":1247:1254  address */\n      0x00\n        /* \"@openzeppelin/contracts/access/Ownable.sol\":1273:1279  _owner */\n      dup1\n      0x00\n      swap1\n      sload\n      swap1\n      0x0100\n      exp\n      swap1\n      div\n      0xffffffffffffffffffffffffffffffffffffffff\n      and\n        /* \"@openzeppelin/contracts/access/Ownable.sol\":1266:1279  return _owner */\n      swap1\n      pop\n        /* \"@openzeppelin/contracts/access/Ownable.sol\":1201:1286  function owner() public view virtual returns (address) {... */\n      swap1\n      jump\t// out\n        /* \"contracts/Staking.sol\":583:616  IERC721 public immutable stakeNFT */\n    tag_53:\n      immutable(\"0x9ef31662fdafe5ade9dc48fd4724c04f17232ac2ae4e5ea3da9c2a310c4aba3c\")\n      dup2\n      jump\t// out\n        /* \"contracts/Staking.sol\":914:933  uint256 public WAVE */\n    tag_57:\n      sload(0x05)\n      dup2\n      jump\t// out\n        /* \"@openzeppelin/contracts/access/Ownable.sol\":2081:2279  function transferOwnership(address newOwner) public virtual onlyOwner {... */\n    tag_62:\n        /* \"@openzeppelin/contracts/access/Ownable.sol\":1094:1107  _checkOwner() */\n      tag_173\n        /* \"@openzeppelin/contracts/access/Ownable.sol\":1094:1105  _checkOwner */\n      tag_116\n        /* \"@openzeppelin/contracts/access/Ownable.sol\":1094:1107  _checkOwner() */\n      jump\t// in\n    tag_173:\n        /* \"@openzeppelin/contracts/access/Ownable.sol\":2189:2190  0 */\n      0x00\n        /* \"@openzeppelin/contracts/access/Ownable.sol\":2169:2191  newOwner != address(0) */\n      0xffffffffffffffffffffffffffffffffffffffff\n      and\n        /* \"@openzeppelin/contracts/access/Ownable.sol\":2169:2177  newOwner */\n      dup2\n        /* \"@openzeppelin/contracts/access/Ownable.sol\":2169:2191  newOwner != address(0) */\n      0xffffffffffffffffffffffffffffffffffffffff\n      and\n      sub\n        /* \"@openzeppelin/contracts/access/Ownable.sol\":2161:2234  require(newOwner != address(0), \"Ownable: new owner is the zero address\") */\n      tag_175\n      jumpi\n      mload(0x40)\n      0x08c379a000000000000000000000000000000000000000000000000000000000\n      dup2\n      mstore\n      0x04\n      add\n      tag_176\n      swap1\n      tag_177\n      jump\t// in\n    tag_176:\n      mload(0x40)\n      dup1\n      swap2\n      sub\n      swap1\n      revert\n    tag_175:\n        /* \"@openzeppelin/contracts/access/Ownable.sol\":2244:2272  _transferOwnership(newOwner) */\n      tag_178\n        /* \"@openzeppelin/contracts/access/Ownable.sol\":2263:2271  newOwner */\n      dup2\n        /* \"@openzeppelin/contracts/access/Ownable.sol\":2244:2262  _transferOwnership */\n      tag_119\n        /* \"@openzeppelin/contracts/access/Ownable.sol\":2244:2272  _transferOwnership(newOwner) */\n      jump\t// in\n    tag_178:\n        /* \"@openzeppelin/contracts/access/Ownable.sol\":2081:2279  function transferOwnership(address newOwner) public virtual onlyOwner {... */\n      pop\n      jump\t// out\n        /* \"contracts/Staking.sol\":3289:3813  function lockNFT(uint256[] calldata _tokenIds) external notContract nonReentrant {... */\n    tag_65:\n        /* \"contracts/Staking.sol\":2360:2392  address(msg.sender).isContract() */\n      tag_180\n        /* \"contracts/Staking.sol\":2368:2378  msg.sender */\n      caller\n        /* \"contracts/Staking.sol\":2360:2390  address(msg.sender).isContract */\n      0xffffffffffffffffffffffffffffffffffffffff\n      and\n      tag_73\n        /* \"contracts/Staking.sol\":2360:2392  address(msg.sender).isContract() */\n      jump\t// in\n    tag_180:\n        /* \"contracts/Staking.sol\":2359:2392  !address(msg.sender).isContract() */\n      iszero\n        /* \"contracts/Staking.sol\":2351:2417  require(!address(msg.sender).isContract(), \"Contract not allowed\") */\n      tag_181\n      jumpi\n      mload(0x40)\n      0x08c379a000000000000000000000000000000000000000000000000000000000\n      dup2\n      mstore\n      0x04\n      add\n      tag_182\n      swap1\n      tag_76\n      jump\t// in\n    tag_182:\n      mload(0x40)\n      dup1\n      swap2\n      sub\n      swap1\n      revert\n    tag_181:\n        /* \"contracts/Staking.sol\":2450:2459  tx.origin */\n      origin\n        /* \"contracts/Staking.sol\":2436:2459  msg.sender == tx.origin */\n      0xffffffffffffffffffffffffffffffffffffffff\n      and\n        /* \"contracts/Staking.sol\":2436:2446  msg.sender */\n      caller\n        /* \"contracts/Staking.sol\":2436:2459  msg.sender == tx.origin */\n      0xffffffffffffffffffffffffffffffffffffffff\n      and\n      eq\n        /* \"contracts/Staking.sol\":2428:2490  require(msg.sender == tx.origin, \"Proxy contract not allowed\") */\n      tag_183\n      jumpi\n      mload(0x40)\n      0x08c379a000000000000000000000000000000000000000000000000000000000\n      dup2\n      mstore\n      0x04\n      add\n      tag_184\n      swap1\n      tag_79\n      jump\t// in\n    tag_184:\n      mload(0x40)\n      dup1\n      swap2\n      sub\n      swap1\n      revert\n    tag_183:\n        /* \"@openzeppelin/contracts/security/ReentrancyGuard.sol\":1744:1745  2 */\n      0x02\n        /* \"@openzeppelin/contracts/security/ReentrancyGuard.sol\":2325:2332  _status */\n      sload(0x01)\n        /* \"@openzeppelin/contracts/security/ReentrancyGuard.sol\":2325:2344  _status != _ENTERED */\n      sub\n        /* \"@openzeppelin/contracts/security/ReentrancyGuard.sol\":2317:2380  require(_status != _ENTERED, \"ReentrancyGuard: reentrant call\") */\n      tag_186\n      jumpi\n      mload(0x40)\n      0x08c379a000000000000000000000000000000000000000000000000000000000\n      dup2\n      mstore\n      0x04\n      add\n      tag_187\n      swap1\n      tag_136\n      jump\t// in\n    tag_187:\n      mload(0x40)\n      dup1\n      swap2\n      sub\n      swap1\n      revert\n    tag_186:\n        /* \"@openzeppelin/contracts/security/ReentrancyGuard.sol\":1744:1745  2 */\n      0x02\n        /* \"@openzeppelin/contracts/security/ReentrancyGuard.sol\":2455:2462  _status */\n      0x01\n        /* \"@openzeppelin/contracts/security/ReentrancyGuard.sol\":2455:2473  _status = _ENTERED */\n      dup2\n      swap1\n      sstore\n      pop\n        /* \"contracts/Staking.sol\":3408:3409  0 */\n      0x00\n        /* \"contracts/Staking.sol\":3389:3398  _tokenIds */\n      dup3\n      dup3\n        /* \"contracts/Staking.sol\":3389:3405  _tokenIds.length */\n      swap1\n      pop\n        /* \"contracts/Staking.sol\":3389:3409  _tokenIds.length > 0 */\n      gt\n        /* \"contracts/Staking.sol\":3381:3423  require(_tokenIds.length > 0, \"No tokens\") */\n      tag_189\n      jumpi\n      mload(0x40)\n      0x08c379a000000000000000000000000000000000000000000000000000000000\n      dup2\n      mstore\n      0x04\n      add\n      tag_190\n      swap1\n      tag_83\n      jump\t// in\n    tag_190:\n      mload(0x40)\n      dup1\n      swap2\n      sub\n      swap1\n      revert\n    tag_189:\n        /* \"contracts/Staking.sol\":3441:3450  uint256 i */\n      0x00\n        /* \"contracts/Staking.sol\":3436:3756  for (uint256 i = 0; i < _tokenIds.length; i++) {... */\n    tag_191:\n        /* \"contracts/Staking.sol\":3460:3469  _tokenIds */\n      dup3\n      dup3\n        /* \"contracts/Staking.sol\":3460:3476  _tokenIds.length */\n      swap1\n      pop\n        /* \"contracts/Staking.sol\":3456:3457  i */\n      dup2\n        /* \"contracts/Staking.sol\":3456:3476  i < _tokenIds.length */\n      lt\n        /* \"contracts/Staking.sol\":3436:3756  for (uint256 i = 0; i < _tokenIds.length; i++) {... */\n      iszero\n      tag_192\n      jumpi\n        /* \"contracts/Staking.sol\":3540:3550  msg.sender */\n      caller\n        /* \"contracts/Staking.sol\":3506:3550  stakeNFT.ownerOf(_tokenIds[i]) == msg.sender */\n      0xffffffffffffffffffffffffffffffffffffffff\n      and\n        /* \"contracts/Staking.sol\":3506:3514  stakeNFT */\n      immutable(\"0x9ef31662fdafe5ade9dc48fd4724c04f17232ac2ae4e5ea3da9c2a310c4aba3c\")\n        /* \"contracts/Staking.sol\":3506:3522  stakeNFT.ownerOf */\n      0xffffffffffffffffffffffffffffffffffffffff\n      and\n      0x6352211e\n        /* \"contracts/Staking.sol\":3523:3532  _tokenIds */\n      dup6\n      dup6\n        /* \"contracts/Staking.sol\":3533:3534  i */\n      dup6\n        /* \"contracts/Staking.sol\":3523:3535  _tokenIds[i] */\n      dup2\n      dup2\n      lt\n      tag_194\n      jumpi\n      tag_195\n      tag_89\n      jump\t// in\n    tag_195:\n    tag_194:\n      swap1\n      pop\n      0x20\n      mul\n      add\n      calldataload\n        /* \"contracts/Staking.sol\":3506:3536  stakeNFT.ownerOf(_tokenIds[i]) */\n      mload(0x40)\n      dup3\n      0xffffffff\n      and\n      0xe0\n      shl\n      dup2\n      mstore\n      0x04\n      add\n      tag_196\n      swap2\n      swap1\n      tag_23\n      jump\t// in\n    tag_196:\n      0x20\n      mload(0x40)\n      dup1\n      dup4\n      sub\n      dup2\n      dup7\n      gas\n      staticcall\n      iszero\n      dup1\n      iszero\n      tag_198\n      jumpi\n      returndatasize\n      0x00\n      dup1\n      returndatacopy\n      revert(0x00, returndatasize)\n    tag_198:\n      pop\n      pop\n      pop\n      pop\n      mload(0x40)\n      returndatasize\n      not(0x1f)\n      0x1f\n      dup3\n      add\n      and\n      dup3\n      add\n      dup1\n      0x40\n      mstore\n      pop\n      dup2\n      add\n      swap1\n      tag_199\n      swap2\n      swap1\n      tag_200\n      jump\t// in\n    tag_199:\n        /* \"contracts/Staking.sol\":3506:3550  stakeNFT.ownerOf(_tokenIds[i]) == msg.sender */\n      0xffffffffffffffffffffffffffffffffffffffff\n      and\n      eq\n        /* \"contracts/Staking.sol\":3498:3580  require(stakeNFT.ownerOf(_tokenIds[i]) == msg.sender, \"You don't hold this token\") */\n      tag_201\n      jumpi\n      mload(0x40)\n      0x08c379a000000000000000000000000000000000000000000000000000000000\n      dup2\n      mstore\n      0x04\n      add\n      tag_202\n      swap1\n      tag_203\n      jump\t// in\n    tag_202:\n      mload(0x40)\n      dup1\n      swap2\n      sub\n      swap1\n      revert\n    tag_201:\n        /* \"contracts/Staking.sol\":3595:3603  stakeNFT */\n      immutable(\"0x9ef31662fdafe5ade9dc48fd4724c04f17232ac2ae4e5ea3da9c2a310c4aba3c\")\n        /* \"contracts/Staking.sol\":3595:3616  stakeNFT.transferFrom */\n      0xffffffffffffffffffffffffffffffffffffffff\n      and\n      0x23b872dd\n        /* \"contracts/Staking.sol\":3617:3627  msg.sender */\n      caller\n        /* \"contracts/Staking.sol\":3637:3641  this */\n      address\n        /* \"contracts/Staking.sol\":3644:3653  _tokenIds */\n      dup7\n      dup7\n        /* \"contracts/Staking.sol\":3654:3655  i */\n      dup7\n        /* \"contracts/Staking.sol\":3644:3656  _tokenIds[i] */\n      dup2\n      dup2\n      lt\n      tag_204\n      jumpi\n      tag_205\n      tag_89\n      jump\t// in\n    tag_205:\n    tag_204:\n      swap1\n      pop\n      0x20\n      mul\n      add\n      calldataload\n        /* \"contracts/Staking.sol\":3595:3657  stakeNFT.transferFrom(msg.sender, address(this), _tokenIds[i]) */\n      mload(0x40)\n      dup5\n      0xffffffff\n      and\n      0xe0\n      shl\n      dup2\n      mstore\n      0x04\n      add\n      tag_206\n      swap4\n      swap3\n      swap2\n      swap1\n      tag_156\n      jump\t// in\n    tag_206:\n      0x00\n      mload(0x40)\n      dup1\n      dup4\n      sub\n      dup2\n      0x00\n      dup8\n      dup1\n      extcodesize\n      iszero\n      dup1\n      iszero\n      tag_207\n      jumpi\n      0x00\n      dup1\n      revert\n    tag_207:\n      pop\n      gas\n      call\n      iszero\n      dup1\n      iszero\n      tag_209\n      jumpi\n      returndatasize\n      0x00\n      dup1\n      returndatacopy\n      revert(0x00, returndatasize)\n    tag_209:\n      pop\n      pop\n      pop\n      pop\n        /* \"contracts/Staking.sol\":3697:3744  LockInfo(msg.sender, block.timestamp, 0, false) */\n      mload(0x40)\n      dup1\n      0x80\n      add\n      0x40\n      mstore\n      dup1\n        /* \"contracts/Staking.sol\":3706:3716  msg.sender */\n      caller\n        /* \"contracts/Staking.sol\":3697:3744  LockInfo(msg.sender, block.timestamp, 0, false) */\n      0xffffffffffffffffffffffffffffffffffffffff\n      and\n      dup2\n      mstore\n      0x20\n      add\n        /* \"contracts/Staking.sol\":3718:3733  block.timestamp */\n      timestamp\n        /* \"contracts/Staking.sol\":3697:3744  LockInfo(msg.sender, block.timestamp, 0, false) */\n      dup2\n      mstore\n      0x20\n      add\n        /* \"contracts/Staking.sol\":3735:3736  0 */\n      0x00\n        /* \"contracts/Staking.sol\":3697:3744  LockInfo(msg.sender, block.timestamp, 0, false) */\n      dup2\n      mstore\n      0x20\n      add\n        /* \"contracts/Staking.sol\":3738:3743  false */\n      0x00\n        /* \"contracts/Staking.sol\":3697:3744  LockInfo(msg.sender, block.timestamp, 0, false) */\n      iszero\n      iszero\n      dup2\n      mstore\n      pop\n        /* \"contracts/Staking.sol\":3672:3680  lockInfo */\n      0x04\n        /* \"contracts/Staking.sol\":3672:3694  lockInfo[_tokenIds[i]] */\n      0x00\n        /* \"contracts/Staking.sol\":3681:3690  _tokenIds */\n      dup6\n      dup6\n        /* \"contracts/Staking.sol\":3691:3692  i */\n      dup6\n        /* \"contracts/Staking.sol\":3681:3693  _tokenIds[i] */\n      dup2\n      dup2\n      lt\n      tag_210\n      jumpi\n      tag_211\n      tag_89\n      jump\t// in\n    tag_211:\n    tag_210:\n      swap1\n      pop\n      0x20\n      mul\n      add\n      calldataload\n        /* \"contracts/Staking.sol\":3672:3694  lockInfo[_tokenIds[i]] */\n      dup2\n      mstore\n      0x20\n      add\n      swap1\n      dup2\n      mstore\n      0x20\n      add\n      0x00\n      keccak256\n        /* \"contracts/Staking.sol\":3672:3744  lockInfo[_tokenIds[i]] = LockInfo(msg.sender, block.timestamp, 0, false) */\n      0x00\n      dup3\n      add\n      mload\n      dup2\n      0x00\n      add\n      exp(0x0100, 0x00)\n      dup2\n      sload\n      dup2\n      0xffffffffffffffffffffffffffffffffffffffff\n      mul\n      not\n      and\n      swap1\n      dup4\n      0xffffffffffffffffffffffffffffffffffffffff\n      and\n      mul\n      or\n      swap1\n      sstore\n      pop\n      0x20\n      dup3\n      add\n      mload\n      dup2\n      0x01\n      add\n      sstore\n      0x40\n      dup3\n      add\n      mload\n      dup2\n      0x02\n      add\n      sstore\n      0x60\n      dup3\n      add\n      mload\n      dup2\n      0x03\n      add\n      exp(0x0100, 0x00)\n      dup2\n      sload\n      dup2\n      0xff\n      mul\n      not\n      and\n      swap1\n      dup4\n      iszero\n      iszero\n      mul\n      or\n      swap1\n      sstore\n      pop\n      swap1\n      pop\n      pop\n        /* \"contracts/Staking.sol\":3478:3481  i++ */\n      dup1\n      dup1\n      tag_212\n      swap1\n      tag_111\n      jump\t// in\n    tag_212:\n      swap2\n      pop\n      pop\n        /* \"contracts/Staking.sol\":3436:3756  for (uint256 i = 0; i < _tokenIds.length; i++) {... */\n      jump(tag_191)\n    tag_192:\n      pop\n        /* \"contracts/Staking.sol\":3783:3793  msg.sender */\n      caller\n        /* \"contracts/Staking.sol\":3773:3805  NFTLocked(msg.sender, _tokenIds) */\n      0xffffffffffffffffffffffffffffffffffffffff\n      and\n      0x458be0227bccc9e803dec79bd16767eeaf9925d2ce708eeed7ae1f3621f968f9\n        /* \"contracts/Staking.sol\":3795:3804  _tokenIds */\n      dup4\n      dup4\n        /* \"contracts/Staking.sol\":3773:3805  NFTLocked(msg.sender, _tokenIds) */\n      mload(0x40)\n      tag_213\n      swap3\n      swap2\n      swap1\n      tag_170\n      jump\t// in\n    tag_213:\n      mload(0x40)\n      dup1\n      swap2\n      sub\n      swap1\n      log2\n        /* \"@openzeppelin/contracts/security/ReentrancyGuard.sol\":1701:1702  1 */\n      0x01\n        /* \"@openzeppelin/contracts/security/ReentrancyGuard.sol\":2628:2635  _status */\n      dup1\n        /* \"@openzeppelin/contracts/security/ReentrancyGuard.sol\":2628:2650  _status = _NOT_ENTERED */\n      dup2\n      swap1\n      sstore\n      pop\n        /* \"contracts/Staking.sol\":3289:3813  function lockNFT(uint256[] calldata _tokenIds) external notContract nonReentrant {... */\n      pop\n      pop\n      jump\t// out\n        /* \"@openzeppelin/contracts/utils/Address.sol\":1175:1495  function isContract(address account) internal view returns (bool) {... */\n    tag_73:\n        /* \"@openzeppelin/contracts/utils/Address.sol\":1235:1239  bool */\n      0x00\n        /* \"@openzeppelin/contracts/utils/Address.sol\":1487:1488  0 */\n      dup1\n        /* \"@openzeppelin/contracts/utils/Address.sol\":1465:1472  account */\n      dup3\n        /* \"@openzeppelin/contracts/utils/Address.sol\":1465:1484  account.code.length */\n      0xffffffffffffffffffffffffffffffffffffffff\n      and\n      extcodesize\n        /* \"@openzeppelin/contracts/utils/Address.sol\":1465:1488  account.code.length > 0 */\n      gt\n        /* \"@openzeppelin/contracts/utils/Address.sol\":1458:1488  return account.code.length > 0 */\n      swap1\n      pop\n        /* \"@openzeppelin/contracts/utils/Address.sol\":1175:1495  function isContract(address account) internal view returns (bool) {... */\n      swap2\n      swap1\n      pop\n      jump\t// out\n        /* \"contracts/Staking.sol\":5957:6410  function _rewardAmount(uint256 _tokenId) internal view returns (uint256) {... */\n    tag_104:\n        /* \"contracts/Staking.sol\":6021:6028  uint256 */\n      0x00\n        /* \"contracts/Staking.sol\":6041:6061  LockInfo memory info */\n      dup1\n        /* \"contracts/Staking.sol\":6064:6072  lockInfo */\n      0x04\n        /* \"contracts/Staking.sol\":6064:6082  lockInfo[_tokenId] */\n      0x00\n        /* \"contracts/Staking.sol\":6073:6081  _tokenId */\n      dup5\n        /* \"contracts/Staking.sol\":6064:6082  lockInfo[_tokenId] */\n      dup2\n      mstore\n      0x20\n      add\n      swap1\n      dup2\n      mstore\n      0x20\n      add\n      0x00\n      keccak256\n        /* \"contracts/Staking.sol\":6041:6082  LockInfo memory info = lockInfo[_tokenId] */\n      mload(0x40)\n      dup1\n      0x80\n      add\n      0x40\n      mstore\n      swap1\n      dup2\n      0x00\n      dup3\n      add\n      0x00\n      swap1\n      sload\n      swap1\n      0x0100\n      exp\n      swap1\n      div\n      0xffffffffffffffffffffffffffffffffffffffff\n      and\n      0xffffffffffffffffffffffffffffffffffffffff\n      and\n      0xffffffffffffffffffffffffffffffffffffffff\n      and\n      dup2\n      mstore\n      0x20\n      add\n      0x01\n      dup3\n      add\n      sload\n      dup2\n      mstore\n      0x20\n      add\n      0x02\n      dup3\n      add\n      sload\n      dup2\n      mstore\n      0x20\n      add\n      0x03\n      dup3\n      add\n      0x00\n      swap1\n      sload\n      swap1\n      0x0100\n      exp\n      swap1\n      div\n      0xff\n      and\n      iszero\n      iszero\n      iszero\n      iszero\n      dup2\n      mstore\n      pop\n      pop\n      swap1\n      pop\n        /* \"contracts/Staking.sol\":6093:6116  uint256 stakingDuration */\n      0x00\n        /* \"contracts/Staking.sol\":6137:6141  info */\n      dup2\n        /* \"contracts/Staking.sol\":6137:6152  info.lockedTime */\n      0x20\n      add\n      mload\n        /* \"contracts/Staking.sol\":6119:6134  block.timestamp */\n      timestamp\n        /* \"contracts/Staking.sol\":6119:6152  block.timestamp - info.lockedTime */\n      tag_216\n      swap2\n      swap1\n      tag_106\n      jump\t// in\n    tag_216:\n        /* \"contracts/Staking.sol\":6093:6152  uint256 stakingDuration = block.timestamp - info.lockedTime */\n      swap1\n      pop\n        /* \"contracts/Staking.sol\":6163:6182  uint256 totalAmount */\n      0x00\n        /* \"contracts/Staking.sol\":6217:6227  lockPeriod */\n      sload(0x03)\n        /* \"contracts/Staking.sol\":6199:6214  stakingDuration */\n      dup3\n        /* \"contracts/Staking.sol\":6199:6227  stakingDuration < lockPeriod */\n      lt\n        /* \"contracts/Staking.sol\":6195:6403  if (stakingDuration < lockPeriod) {... */\n      iszero\n      tag_217\n      jumpi\n        /* \"contracts/Staking.sol\":6251:6252  0 */\n      0x00\n        /* \"contracts/Staking.sol\":6244:6252  return 0 */\n      swap4\n      pop\n      pop\n      pop\n      pop\n      jump(tag_215)\n        /* \"contracts/Staking.sol\":6195:6403  if (stakingDuration < lockPeriod) {... */\n    tag_217:\n        /* \"contracts/Staking.sol\":6380:6391  totalAmount */\n      dup1\n        /* \"contracts/Staking.sol\":6373:6391  return totalAmount */\n      swap4\n      pop\n      pop\n      pop\n      pop\n        /* \"contracts/Staking.sol\":5957:6410  function _rewardAmount(uint256 _tokenId) internal view returns (uint256) {... */\n    tag_215:\n      swap2\n      swap1\n      pop\n      jump\t// out\n        /* \"@openzeppelin/contracts/access/Ownable.sol\":1359:1489  function _checkOwner() internal view virtual {... */\n    tag_116:\n        /* \"@openzeppelin/contracts/access/Ownable.sol\":1433:1445  _msgSender() */\n      tag_220\n        /* \"@openzeppelin/contracts/access/Ownable.sol\":1433:1443  _msgSender */\n      tag_221\n        /* \"@openzeppelin/contracts/access/Ownable.sol\":1433:1445  _msgSender() */\n      jump\t// in\n    tag_220:\n        /* \"@openzeppelin/contracts/access/Ownable.sol\":1422:1445  owner() == _msgSender() */\n      0xffffffffffffffffffffffffffffffffffffffff\n      and\n        /* \"@openzeppelin/contracts/access/Ownable.sol\":1422:1429  owner() */\n      tag_222\n        /* \"@openzeppelin/contracts/access/Ownable.sol\":1422:1427  owner */\n      tag_49\n        /* \"@openzeppelin/contracts/access/Ownable.sol\":1422:1429  owner() */\n      jump\t// in\n    tag_222:\n        /* \"@openzeppelin/contracts/access/Ownable.sol\":1422:1445  owner() == _msgSender() */\n      0xffffffffffffffffffffffffffffffffffffffff\n      and\n      eq\n        /* \"@openzeppelin/contracts/access/Ownable.sol\":1414:1482  require(owner() == _msgSender(), \"Ownable: caller is not the owner\") */\n      tag_223\n      jumpi\n      mload(0x40)\n      0x08c379a000000000000000000000000000000000000000000000000000000000\n      dup2\n      mstore\n      0x04\n      add\n      tag_224\n      swap1\n      tag_225\n      jump\t// in\n    tag_224:\n      mload(0x40)\n      dup1\n      swap2\n      sub\n      swap1\n      revert\n    tag_223:\n        /* \"@openzeppelin/contracts/access/Ownable.sol\":1359:1489  function _checkOwner() internal view virtual {... */\n      jump\t// out\n        /* \"@openzeppelin/contracts/access/Ownable.sol\":2433:2620  function _transferOwnership(address newOwner) internal virtual {... */\n    tag_119:\n        /* \"@openzeppelin/contracts/access/Ownable.sol\":2506:2522  address oldOwner */\n      0x00\n        /* \"@openzeppelin/contracts/access/Ownable.sol\":2525:2531  _owner */\n      dup1\n      0x00\n      swap1\n      sload\n      swap1\n      0x0100\n      exp\n      swap1\n      div\n      0xffffffffffffffffffffffffffffffffffffffff\n      and\n        /* \"@openzeppelin/contracts/access/Ownable.sol\":2506:2531  address oldOwner = _owner */\n      swap1\n      pop\n        /* \"@openzeppelin/contracts/access/Ownable.sol\":2550:2558  newOwner */\n      dup2\n        /* \"@openzeppelin/contracts/access/Ownable.sol\":2541:2547  _owner */\n      0x00\n      dup1\n        /* \"@openzeppelin/contracts/access/Ownable.sol\":2541:2558  _owner = newOwner */\n      0x0100\n      exp\n      dup2\n      sload\n      dup2\n      0xffffffffffffffffffffffffffffffffffffffff\n      mul\n      not\n      and\n      swap1\n      dup4\n      0xffffffffffffffffffffffffffffffffffffffff\n      and\n      mul\n      or\n      swap1\n      sstore\n      pop\n        /* \"@openzeppelin/contracts/access/Ownable.sol\":2604:2612  newOwner */\n      dup2\n        /* \"@openzeppelin/contracts/access/Ownable.sol\":2573:2613  OwnershipTransferred(oldOwner, newOwner) */\n      0xffffffffffffffffffffffffffffffffffffffff\n      and\n        /* \"@openzeppelin/contracts/access/Ownable.sol\":2594:2602  oldOwner */\n      dup2\n        /* \"@openzeppelin/contracts/access/Ownable.sol\":2573:2613  OwnershipTransferred(oldOwner, newOwner) */\n      0xffffffffffffffffffffffffffffffffffffffff\n      and\n      0x8be0079c531659141344cd1fd0a4f28419497f9722a3daafe3b4186f6b6457e0\n      mload(0x40)\n      mload(0x40)\n      dup1\n      swap2\n      sub\n      swap1\n      log3\n        /* \"@openzeppelin/contracts/access/Ownable.sol\":2496:2620  {... */\n      pop\n        /* \"@openzeppelin/contracts/access/Ownable.sol\":2433:2620  function _transferOwnership(address newOwner) internal virtual {... */\n      pop\n      jump\t// out\n        /* \"@openzeppelin/contracts/utils/Context.sol\":640:736  function _msgSender() internal view virtual returns (address) {... */\n    tag_221:\n        /* \"@openzeppelin/contracts/utils/Context.sol\":693:700  address */\n      0x00\n        /* \"@openzeppelin/contracts/utils/Context.sol\":719:729  msg.sender */\n      caller\n        /* \"@openzeppelin/contracts/utils/Context.sol\":712:729  return msg.sender */\n      swap1\n      pop\n        /* \"@openzeppelin/contracts/utils/Context.sol\":640:736  function _msgSender() internal view virtual returns (address) {... */\n      swap1\n      jump\t// out\n        /* \"#utility.yul\":88:205   */\n    tag_229:\n        /* \"#utility.yul\":197:198   */\n      0x00\n        /* \"#utility.yul\":194:195   */\n      dup1\n        /* \"#utility.yul\":187:199   */\n      revert\n        /* \"#utility.yul\":211:328   */\n    tag_230:\n        /* \"#utility.yul\":320:321   */\n      0x00\n        /* \"#utility.yul\":317:318   */\n      dup1\n        /* \"#utility.yul\":310:322   */\n      revert\n        /* \"#utility.yul\":334:411   */\n    tag_231:\n        /* \"#utility.yul\":371:378   */\n      0x00\n        /* \"#utility.yul\":400:405   */\n      dup2\n        /* \"#utility.yul\":389:405   */\n      swap1\n      pop\n        /* \"#utility.yul\":334:411   */\n      swap2\n      swap1\n      pop\n      jump\t// out\n        /* \"#utility.yul\":417:539   */\n    tag_232:\n        /* \"#utility.yul\":490:514   */\n      tag_288\n        /* \"#utility.yul\":508:513   */\n      dup2\n        /* \"#utility.yul\":490:514   */\n      tag_231\n      jump\t// in\n    tag_288:\n        /* \"#utility.yul\":483:488   */\n      dup2\n        /* \"#utility.yul\":480:515   */\n      eq\n        /* \"#utility.yul\":470:533   */\n      tag_289\n      jumpi\n        /* \"#utility.yul\":529:530   */\n      0x00\n        /* \"#utility.yul\":526:527   */\n      dup1\n        /* \"#utility.yul\":519:531   */\n      revert\n        /* \"#utility.yul\":470:533   */\n    tag_289:\n        /* \"#utility.yul\":417:539   */\n      pop\n      jump\t// out\n        /* \"#utility.yul\":545:684   */\n    tag_233:\n        /* \"#utility.yul\":591:596   */\n      0x00\n        /* \"#utility.yul\":629:635   */\n      dup2\n        /* \"#utility.yul\":616:636   */\n      calldataload\n        /* \"#utility.yul\":607:636   */\n      swap1\n      pop\n        /* \"#utility.yul\":645:678   */\n      tag_291\n        /* \"#utility.yul\":672:677   */\n      dup2\n        /* \"#utility.yul\":645:678   */\n      tag_232\n      jump\t// in\n    tag_291:\n        /* \"#utility.yul\":545:684   */\n      swap3\n      swap2\n      pop\n      pop\n      jump\t// out\n        /* \"#utility.yul\":690:1019   */\n    tag_20:\n        /* \"#utility.yul\":749:755   */\n      0x00\n        /* \"#utility.yul\":798:800   */\n      0x20\n        /* \"#utility.yul\":786:795   */\n      dup3\n        /* \"#utility.yul\":777:784   */\n      dup5\n        /* \"#utility.yul\":773:796   */\n      sub\n        /* \"#utility.yul\":769:801   */\n      slt\n        /* \"#utility.yul\":766:885   */\n      iszero\n      tag_293\n      jumpi\n        /* \"#utility.yul\":804:883   */\n      tag_294\n      tag_229\n      jump\t// in\n    tag_294:\n        /* \"#utility.yul\":766:885   */\n    tag_293:\n        /* \"#utility.yul\":924:925   */\n      0x00\n        /* \"#utility.yul\":949:1002   */\n      tag_295\n        /* \"#utility.yul\":994:1001   */\n      dup5\n        /* \"#utility.yul\":985:991   */\n      dup3\n        /* \"#utility.yul\":974:983   */\n      dup6\n        /* \"#utility.yul\":970:992   */\n      add\n        /* \"#utility.yul\":949:1002   */\n      tag_233\n      jump\t// in\n    tag_295:\n        /* \"#utility.yul\":939:1002   */\n      swap2\n      pop\n        /* \"#utility.yul\":895:1012   */\n      pop\n        /* \"#utility.yul\":690:1019   */\n      swap3\n      swap2\n      pop\n      pop\n      jump\t// out\n        /* \"#utility.yul\":1025:1143   */\n    tag_234:\n        /* \"#utility.yul\":1112:1136   */\n      tag_297\n        /* \"#utility.yul\":1130:1135   */\n      dup2\n        /* \"#utility.yul\":1112:1136   */\n      tag_231\n      jump\t// in\n    tag_297:\n        /* \"#utility.yul\":1107:1110   */\n      dup3\n        /* \"#utility.yul\":1100:1137   */\n      mstore\n        /* \"#utility.yul\":1025:1143   */\n      pop\n      pop\n      jump\t// out\n        /* \"#utility.yul\":1149:1371   */\n    tag_23:\n        /* \"#utility.yul\":1242:1246   */\n      0x00\n        /* \"#utility.yul\":1280:1282   */\n      0x20\n        /* \"#utility.yul\":1269:1278   */\n      dup3\n        /* \"#utility.yul\":1265:1283   */\n      add\n        /* \"#utility.yul\":1257:1283   */\n      swap1\n      pop\n        /* \"#utility.yul\":1293:1364   */\n      tag_299\n        /* \"#utility.yul\":1361:1362   */\n      0x00\n        /* \"#utility.yul\":1350:1359   */\n      dup4\n        /* \"#utility.yul\":1346:1363   */\n      add\n        /* \"#utility.yul\":1337:1343   */\n      dup5\n        /* \"#utility.yul\":1293:1364   */\n      tag_234\n      jump\t// in\n    tag_299:\n        /* \"#utility.yul\":1149:1371   */\n      swap3\n      swap2\n      pop\n      pop\n      jump\t// out\n        /* \"#utility.yul\":1377:1503   */\n    tag_235:\n        /* \"#utility.yul\":1414:1421   */\n      0x00\n        /* \"#utility.yul\":1454:1496   */\n      0xffffffffffffffffffffffffffffffffffffffff\n        /* \"#utility.yul\":1447:1452   */\n      dup3\n        /* \"#utility.yul\":1443:1497   */\n      and\n        /* \"#utility.yul\":1432:1497   */\n      swap1\n      pop\n        /* \"#utility.yul\":1377:1503   */\n      swap2\n      swap1\n      pop\n      jump\t// out\n        /* \"#utility.yul\":1509:1569   */\n    tag_236:\n        /* \"#utility.yul\":1537:1540   */\n      0x00\n        /* \"#utility.yul\":1558:1563   */\n      dup2\n        /* \"#utility.yul\":1551:1563   */\n      swap1\n      pop\n        /* \"#utility.yul\":1509:1569   */\n      swap2\n      swap1\n      pop\n      jump\t// out\n        /* \"#utility.yul\":1575:1717   */\n    tag_237:\n        /* \"#utility.yul\":1625:1634   */\n      0x00\n        /* \"#utility.yul\":1658:1711   */\n      tag_303\n        /* \"#utility.yul\":1676:1710   */\n      tag_304\n        /* \"#utility.yul\":1685:1709   */\n      tag_305\n        /* \"#utility.yul\":1703:1708   */\n      dup5\n        /* \"#utility.yul\":1685:1709   */\n      tag_235\n      jump\t// in\n    tag_305:\n        /* \"#utility.yul\":1676:1710   */\n      tag_236\n      jump\t// in\n    tag_304:\n        /* \"#utility.yul\":1658:1711   */\n      tag_235\n      jump\t// in\n    tag_303:\n        /* \"#utility.yul\":1645:1711   */\n      swap1\n      pop\n        /* \"#utility.yul\":1575:1717   */\n      swap2\n      swap1\n      pop\n      jump\t// out\n        /* \"#utility.yul\":1723:1849   */\n    tag_238:\n        /* \"#utility.yul\":1773:1782   */\n      0x00\n        /* \"#utility.yul\":1806:1843   */\n      tag_307\n        /* \"#utility.yul\":1837:1842   */\n      dup3\n        /* \"#utility.yul\":1806:1843   */\n      tag_237\n      jump\t// in\n    tag_307:\n        /* \"#utility.yul\":1793:1843   */\n      swap1\n      pop\n        /* \"#utility.yul\":1723:1849   */\n      swap2\n      swap1\n      pop\n      jump\t// out\n        /* \"#utility.yul\":1855:2003   */\n    tag_239:\n        /* \"#utility.yul\":1927:1936   */\n      0x00\n        /* \"#utility.yul\":1960:1997   */\n      tag_309\n        /* \"#utility.yul\":1991:1996   */\n      dup3\n        /* \"#utility.yul\":1960:1997   */\n      tag_238\n      jump\t// in\n    tag_309:\n        /* \"#utility.yul\":1947:1997   */\n      swap1\n      pop\n        /* \"#utility.yul\":1855:2003   */\n      swap2\n      swap1\n      pop\n      jump\t// out\n        /* \"#utility.yul\":2009:2184   */\n    tag_240:\n        /* \"#utility.yul\":2118:2177   */\n      tag_311\n        /* \"#utility.yul\":2171:2176   */\n      dup2\n        /* \"#utility.yul\":2118:2177   */\n      tag_239\n      jump\t// in\n    tag_311:\n        /* \"#utility.yul\":2113:2116   */\n      dup3\n        /* \"#utility.yul\":2106:2178   */\n      mstore\n        /* \"#utility.yul\":2009:2184   */\n      pop\n      pop\n      jump\t// out\n        /* \"#utility.yul\":2190:2456   */\n    tag_28:\n        /* \"#utility.yul\":2305:2309   */\n      0x00\n        /* \"#utility.yul\":2343:2345   */\n      0x20\n        /* \"#utility.yul\":2332:2341   */\n      dup3\n        /* \"#utility.yul\":2328:2346   */\n      add\n        /* \"#utility.yul\":2320:2346   */\n      swap1\n      pop\n        /* \"#utility.yul\":2356:2449   */\n      tag_313\n        /* \"#utility.yul\":2446:2447   */\n      0x00\n        /* \"#utility.yul\":2435:2444   */\n      dup4\n        /* \"#utility.yul\":2431:2448   */\n      add\n        /* \"#utility.yul\":2422:2428   */\n      dup5\n        /* \"#utility.yul\":2356:2449   */\n      tag_240\n      jump\t// in\n    tag_313:\n        /* \"#utility.yul\":2190:2456   */\n      swap3\n      swap2\n      pop\n      pop\n      jump\t// out\n        /* \"#utility.yul\":2462:2579   */\n    tag_241:\n        /* \"#utility.yul\":2571:2572   */\n      0x00\n        /* \"#utility.yul\":2568:2569   */\n      dup1\n        /* \"#utility.yul\":2561:2573   */\n      revert\n        /* \"#utility.yul\":2585:2702   */\n    tag_242:\n        /* \"#utility.yul\":2694:2695   */\n      0x00\n        /* \"#utility.yul\":2691:2692   */\n      dup1\n        /* \"#utility.yul\":2684:2696   */\n      revert\n        /* \"#utility.yul\":2708:2825   */\n    tag_243:\n        /* \"#utility.yul\":2817:2818   */\n      0x00\n        /* \"#utility.yul\":2814:2815   */\n      dup1\n        /* \"#utility.yul\":2807:2819   */\n      revert\n        /* \"#utility.yul\":2848:3416   */\n    tag_244:\n        /* \"#utility.yul\":2921:2929   */\n      0x00\n        /* \"#utility.yul\":2931:2937   */\n      dup1\n        /* \"#utility.yul\":2981:2984   */\n      dup4\n        /* \"#utility.yul\":2974:2978   */\n      0x1f\n        /* \"#utility.yul\":2966:2972   */\n      dup5\n        /* \"#utility.yul\":2962:2979   */\n      add\n        /* \"#utility.yul\":2958:2985   */\n      slt\n        /* \"#utility.yul\":2948:3070   */\n      tag_318\n      jumpi\n        /* \"#utility.yul\":2989:3068   */\n      tag_319\n      tag_241\n      jump\t// in\n    tag_319:\n        /* \"#utility.yul\":2948:3070   */\n    tag_318:\n        /* \"#utility.yul\":3102:3108   */\n      dup3\n        /* \"#utility.yul\":3089:3109   */\n      calldataload\n        /* \"#utility.yul\":3079:3109   */\n      swap1\n      pop\n        /* \"#utility.yul\":3132:3150   */\n      0xffffffffffffffff\n        /* \"#utility.yul\":3124:3130   */\n      dup2\n        /* \"#utility.yul\":3121:3151   */\n      gt\n        /* \"#utility.yul\":3118:3235   */\n      iszero\n      tag_320\n      jumpi\n        /* \"#utility.yul\":3154:3233   */\n      tag_321\n      tag_242\n      jump\t// in\n    tag_321:\n        /* \"#utility.yul\":3118:3235   */\n    tag_320:\n        /* \"#utility.yul\":3268:3272   */\n      0x20\n        /* \"#utility.yul\":3260:3266   */\n      dup4\n        /* \"#utility.yul\":3256:3273   */\n      add\n        /* \"#utility.yul\":3244:3273   */\n      swap2\n      pop\n        /* \"#utility.yul\":3322:3325   */\n      dup4\n        /* \"#utility.yul\":3314:3318   */\n      0x20\n        /* \"#utility.yul\":3306:3312   */\n      dup3\n        /* \"#utility.yul\":3302:3319   */\n      mul\n        /* \"#utility.yul\":3292:3300   */\n      dup4\n        /* \"#utility.yul\":3288:3320   */\n      add\n        /* \"#utility.yul\":3285:3326   */\n      gt\n        /* \"#utility.yul\":3282:3410   */\n      iszero\n      tag_322\n      jumpi\n        /* \"#utility.yul\":3329:3408   */\n      tag_323\n      tag_243\n      jump\t// in\n    tag_323:\n        /* \"#utility.yul\":3282:3410   */\n    tag_322:\n        /* \"#utility.yul\":2848:3416   */\n      swap3\n      pop\n      swap3\n      swap1\n      pop\n      jump\t// out\n        /* \"#utility.yul\":3422:3981   */\n    tag_38:\n        /* \"#utility.yul\":3508:3514   */\n      0x00\n        /* \"#utility.yul\":3516:3522   */\n      dup1\n        /* \"#utility.yul\":3565:3567   */\n      0x20\n        /* \"#utility.yul\":3553:3562   */\n      dup4\n        /* \"#utility.yul\":3544:3551   */\n      dup6\n        /* \"#utility.yul\":3540:3563   */\n      sub\n        /* \"#utility.yul\":3536:3568   */\n      slt\n        /* \"#utility.yul\":3533:3652   */\n      iszero\n      tag_325\n      jumpi\n        /* \"#utility.yul\":3571:3650   */\n      tag_326\n      tag_229\n      jump\t// in\n    tag_326:\n        /* \"#utility.yul\":3533:3652   */\n    tag_325:\n        /* \"#utility.yul\":3719:3720   */\n      0x00\n        /* \"#utility.yul\":3708:3717   */\n      dup4\n        /* \"#utility.yul\":3704:3721   */\n      add\n        /* \"#utility.yul\":3691:3722   */\n      calldataload\n        /* \"#utility.yul\":3749:3767   */\n      0xffffffffffffffff\n        /* \"#utility.yul\":3741:3747   */\n      dup2\n        /* \"#utility.yul\":3738:3768   */\n      gt\n        /* \"#utility.yul\":3735:3852   */\n      iszero\n      tag_327\n      jumpi\n        /* \"#utility.yul\":3771:3850   */\n      tag_328\n      tag_230\n      jump\t// in\n    tag_328:\n        /* \"#utility.yul\":3735:3852   */\n    tag_327:\n        /* \"#utility.yul\":3884:3964   */\n      tag_329\n        /* \"#utility.yul\":3956:3963   */\n      dup6\n        /* \"#utility.yul\":3947:3953   */\n      dup3\n        /* \"#utility.yul\":3936:3945   */\n      dup7\n        /* \"#utility.yul\":3932:3954   */\n      add\n        /* \"#utility.yul\":3884:3964   */\n      tag_244\n      jump\t// in\n    tag_329:\n        /* \"#utility.yul\":3866:3964   */\n      swap3\n      pop\n      swap3\n      pop\n        /* \"#utility.yul\":3662:3974   */\n      pop\n        /* \"#utility.yul\":3422:3981   */\n      swap3\n      pop\n      swap3\n      swap1\n      pop\n      jump\t// out\n        /* \"#utility.yul\":3987:4083   */\n    tag_245:\n        /* \"#utility.yul\":4024:4031   */\n      0x00\n        /* \"#utility.yul\":4053:4077   */\n      tag_331\n        /* \"#utility.yul\":4071:4076   */\n      dup3\n        /* \"#utility.yul\":4053:4077   */\n      tag_235\n      jump\t// in\n    tag_331:\n        /* \"#utility.yul\":4042:4077   */\n      swap1\n      pop\n        /* \"#utility.yul\":3987:4083   */\n      swap2\n      swap1\n      pop\n      jump\t// out\n        /* \"#utility.yul\":4089:4207   */\n    tag_246:\n        /* \"#utility.yul\":4176:4200   */\n      tag_333\n        /* \"#utility.yul\":4194:4199   */\n      dup2\n        /* \"#utility.yul\":4176:4200   */\n      tag_245\n      jump\t// in\n    tag_333:\n        /* \"#utility.yul\":4171:4174   */\n      dup3\n        /* \"#utility.yul\":4164:4201   */\n      mstore\n        /* \"#utility.yul\":4089:4207   */\n      pop\n      pop\n      jump\t// out\n        /* \"#utility.yul\":4213:4435   */\n    tag_51:\n        /* \"#utility.yul\":4306:4310   */\n      0x00\n        /* \"#utility.yul\":4344:4346   */\n      0x20\n        /* \"#utility.yul\":4333:4342   */\n      dup3\n        /* \"#utility.yul\":4329:4347   */\n      add\n        /* \"#utility.yul\":4321:4347   */\n      swap1\n      pop\n        /* \"#utility.yul\":4357:4428   */\n      tag_335\n        /* \"#utility.yul\":4425:4426   */\n      0x00\n        /* \"#utility.yul\":4414:4423   */\n      dup4\n        /* \"#utility.yul\":4410:4427   */\n      add\n        /* \"#utility.yul\":4401:4407   */\n      dup5\n        /* \"#utility.yul\":4357:4428   */\n      tag_246\n      jump\t// in\n    tag_335:\n        /* \"#utility.yul\":4213:4435   */\n      swap3\n      swap2\n      pop\n      pop\n      jump\t// out\n        /* \"#utility.yul\":4441:4582   */\n    tag_247:\n        /* \"#utility.yul\":4506:4515   */\n      0x00\n        /* \"#utility.yul\":4539:4576   */\n      tag_337\n        /* \"#utility.yul\":4570:4575   */\n      dup3\n        /* \"#utility.yul\":4539:4576   */\n      tag_238\n      jump\t// in\n    tag_337:\n        /* \"#utility.yul\":4526:4576   */\n      swap1\n      pop\n        /* \"#utility.yul\":4441:4582   */\n      swap2\n      swap1\n      pop\n      jump\t// out\n        /* \"#utility.yul\":4588:4749   */\n    tag_248:\n        /* \"#utility.yul\":4690:4742   */\n      tag_339\n        /* \"#utility.yul\":4736:4741   */\n      dup2\n        /* \"#utility.yul\":4690:4742   */\n      tag_247\n      jump\t// in\n    tag_339:\n        /* \"#utility.yul\":4685:4688   */\n      dup3\n        /* \"#utility.yul\":4678:4743   */\n      mstore\n        /* \"#utility.yul\":4588:4749   */\n      pop\n      pop\n      jump\t// out\n        /* \"#utility.yul\":4755:5007   */\n    tag_55:\n        /* \"#utility.yul\":4863:4867   */\n      0x00\n        /* \"#utility.yul\":4901:4903   */\n      0x20\n        /* \"#utility.yul\":4890:4899   */\n      dup3\n        /* \"#utility.yul\":4886:4904   */\n      add\n        /* \"#utility.yul\":4878:4904   */\n      swap1\n      pop\n        /* \"#utility.yul\":4914:5000   */\n      tag_341\n        /* \"#utility.yul\":4997:4998   */\n      0x00\n        /* \"#utility.yul\":4986:4995   */\n      dup4\n        /* \"#utility.yul\":4982:4999   */\n      add\n        /* \"#utility.yul\":4973:4979   */\n      dup5\n        /* \"#utility.yul\":4914:5000   */\n      tag_248\n      jump\t// in\n    tag_341:\n        /* \"#utility.yul\":4755:5007   */\n      swap3\n      swap2\n      pop\n      pop\n      jump\t// out\n        /* \"#utility.yul\":5013:5135   */\n    tag_249:\n        /* \"#utility.yul\":5086:5110   */\n      tag_343\n        /* \"#utility.yul\":5104:5109   */\n      dup2\n        /* \"#utility.yul\":5086:5110   */\n      tag_245\n      jump\t// in\n    tag_343:\n        /* \"#utility.yul\":5079:5084   */\n      dup2\n        /* \"#utility.yul\":5076:5111   */\n      eq\n        /* \"#utility.yul\":5066:5129   */\n      tag_344\n      jumpi\n        /* \"#utility.yul\":5125:5126   */\n      0x00\n        /* \"#utility.yul\":5122:5123   */\n      dup1\n        /* \"#utility.yul\":5115:5127   */\n      revert\n        /* \"#utility.yul\":5066:5129   */\n    tag_344:\n        /* \"#utility.yul\":5013:5135   */\n      pop\n      jump\t// out\n        /* \"#utility.yul\":5141:5280   */\n    tag_250:\n        /* \"#utility.yul\":5187:5192   */\n      0x00\n        /* \"#utility.yul\":5225:5231   */\n      dup2\n        /* \"#utility.yul\":5212:5232   */\n      calldataload\n        /* \"#utility.yul\":5203:5232   */\n      swap1\n      pop\n        /* \"#utility.yul\":5241:5274   */\n      tag_346\n        /* \"#utility.yul\":5268:5273   */\n      dup2\n        /* \"#utility.yul\":5241:5274   */\n      tag_249\n      jump\t// in\n    tag_346:\n        /* \"#utility.yul\":5141:5280   */\n      swap3\n      swap2\n      pop\n      pop\n      jump\t// out\n        /* \"#utility.yul\":5286:5615   */\n    tag_61:\n        /* \"#utility.yul\":5345:5351   */\n      0x00\n        /* \"#utility.yul\":5394:5396   */\n      0x20\n        /* \"#utility.yul\":5382:5391   */\n      dup3\n        /* \"#utility.yul\":5373:5380   */\n      dup5\n        /* \"#utility.yul\":5369:5392   */\n      sub\n        /* \"#utility.yul\":5365:5397   */\n      slt\n        /* \"#utility.yul\":5362:5481   */\n      iszero\n      tag_348\n      jumpi\n        /* \"#utility.yul\":5400:5479   */\n      tag_349\n      tag_229\n      jump\t// in\n    tag_349:\n        /* \"#utility.yul\":5362:5481   */\n    tag_348:\n        /* \"#utility.yul\":5520:5521   */\n      0x00\n        /* \"#utility.yul\":5545:5598   */\n      tag_350\n        /* \"#utility.yul\":5590:5597   */\n      dup5\n        /* \"#utility.yul\":5581:5587   */\n      dup3\n        /* \"#utility.yul\":5570:5579   */\n      dup6\n        /* \"#utility.yul\":5566:5588   */\n      add\n        /* \"#utility.yul\":5545:5598   */\n      tag_250\n      jump\t// in\n    tag_350:\n        /* \"#utility.yul\":5535:5598   */\n      swap2\n      pop\n        /* \"#utility.yul\":5491:5608   */\n      pop\n        /* \"#utility.yul\":5286:5615   */\n      swap3\n      swap2\n      pop\n      pop\n      jump\t// out\n        /* \"#utility.yul\":5621:5790   */\n    tag_251:\n        /* \"#utility.yul\":5705:5716   */\n      0x00\n        /* \"#utility.yul\":5739:5745   */\n      dup3\n        /* \"#utility.yul\":5734:5737   */\n      dup3\n        /* \"#utility.yul\":5727:5746   */\n      mstore\n        /* \"#utility.yul\":5779:5783   */\n      0x20\n        /* \"#utility.yul\":5774:5777   */\n      dup3\n        /* \"#utility.yul\":5770:5784   */\n      add\n        /* \"#utility.yul\":5755:5784   */\n      swap1\n      pop\n        /* \"#utility.yul\":5621:5790   */\n      swap3\n      swap2\n      pop\n      pop\n      jump\t// out\n        /* \"#utility.yul\":5796:5966   */\n    tag_252:\n        /* \"#utility.yul\":5936:5958   */\n      0x436f6e7472616374206e6f7420616c6c6f776564000000000000000000000000\n        /* \"#utility.yul\":5932:5933   */\n      0x00\n        /* \"#utility.yul\":5924:5930   */\n      dup3\n        /* \"#utility.yul\":5920:5934   */\n      add\n        /* \"#utility.yul\":5913:5959   */\n      mstore\n        /* \"#utility.yul\":5796:5966   */\n      pop\n      jump\t// out\n        /* \"#utility.yul\":5972:6338   */\n    tag_253:\n        /* \"#utility.yul\":6114:6117   */\n      0x00\n        /* \"#utility.yul\":6135:6202   */\n      tag_354\n        /* \"#utility.yul\":6199:6201   */\n      0x14\n        /* \"#utility.yul\":6194:6197   */\n      dup4\n        /* \"#utility.yul\":6135:6202   */\n      tag_251\n      jump\t// in\n    tag_354:\n        /* \"#utility.yul\":6128:6202   */\n      swap2\n      pop\n        /* \"#utility.yul\":6211:6304   */\n      tag_355\n        /* \"#utility.yul\":6300:6303   */\n      dup3\n        /* \"#utility.yul\":6211:6304   */\n      tag_252\n      jump\t// in\n    tag_355:\n        /* \"#utility.yul\":6329:6331   */\n      0x20\n        /* \"#utility.yul\":6324:6327   */\n      dup3\n        /* \"#utility.yul\":6320:6332   */\n      add\n        /* \"#utility.yul\":6313:6332   */\n      swap1\n      pop\n        /* \"#utility.yul\":5972:6338   */\n      swap2\n      swap1\n      pop\n      jump\t// out\n        /* \"#utility.yul\":6344:6763   */\n    tag_76:\n        /* \"#utility.yul\":6510:6514   */\n      0x00\n        /* \"#utility.yul\":6548:6550   */\n      0x20\n        /* \"#utility.yul\":6537:6546   */\n      dup3\n        /* \"#utility.yul\":6533:6551   */\n      add\n        /* \"#utility.yul\":6525:6551   */\n      swap1\n      pop\n        /* \"#utility.yul\":6597:6606   */\n      dup2\n        /* \"#utility.yul\":6591:6595   */\n      dup2\n        /* \"#utility.yul\":6587:6607   */\n      sub\n        /* \"#utility.yul\":6583:6584   */\n      0x00\n        /* \"#utility.yul\":6572:6581   */\n      dup4\n        /* \"#utility.yul\":6568:6585   */\n      add\n        /* \"#utility.yul\":6561:6608   */\n      mstore\n        /* \"#utility.yul\":6625:6756   */\n      tag_357\n        /* \"#utility.yul\":6751:6755   */\n      dup2\n        /* \"#utility.yul\":6625:6756   */\n      tag_253\n      jump\t// in\n    tag_357:\n        /* \"#utility.yul\":6617:6756   */\n      swap1\n      pop\n        /* \"#utility.yul\":6344:6763   */\n      swap2\n      swap1\n      pop\n      jump\t// out\n        /* \"#utility.yul\":6769:6945   */\n    tag_254:\n        /* \"#utility.yul\":6909:6937   */\n      0x50726f787920636f6e7472616374206e6f7420616c6c6f776564000000000000\n        /* \"#utility.yul\":6905:6906   */\n      0x00\n        /* \"#utility.yul\":6897:6903   */\n      dup3\n        /* \"#utility.yul\":6893:6907   */\n      add\n        /* \"#utility.yul\":6886:6938   */\n      mstore\n        /* \"#utility.yul\":6769:6945   */\n      pop\n      jump\t// out\n        /* \"#utility.yul\":6951:7317   */\n    tag_255:\n        /* \"#utility.yul\":7093:7096   */\n      0x00\n        /* \"#utility.yul\":7114:7181   */\n      tag_360\n        /* \"#utility.yul\":7178:7180   */\n      0x1a\n        /* \"#utility.yul\":7173:7176   */\n      dup4\n        /* \"#utility.yul\":7114:7181   */\n      tag_251\n      jump\t// in\n    tag_360:\n        /* \"#utility.yul\":7107:7181   */\n      swap2\n      pop\n        /* \"#utility.yul\":7190:7283   */\n      tag_361\n        /* \"#utility.yul\":7279:7282   */\n      dup3\n        /* \"#utility.yul\":7190:7283   */\n      tag_254\n      jump\t// in\n    tag_361:\n        /* \"#utility.yul\":7308:7310   */\n      0x20\n        /* \"#utility.yul\":7303:7306   */\n      dup3\n        /* \"#utility.yul\":7299:7311   */\n      add\n        /* \"#utility.yul\":7292:7311   */\n      swap1\n      pop\n        /* \"#utility.yul\":6951:7317   */\n      swap2\n      swap1\n      pop\n      jump\t// out\n        /* \"#utility.yul\":7323:7742   */\n    tag_79:\n        /* \"#utility.yul\":7489:7493   */\n      0x00\n        /* \"#utility.yul\":7527:7529   */\n      0x20\n        /* \"#utility.yul\":7516:7525   */\n      dup3\n        /* \"#utility.yul\":7512:7530   */\n      add\n        /* \"#utility.yul\":7504:7530   */\n      swap1\n      pop\n        /* \"#utility.yul\":7576:7585   */\n      dup2\n        /* \"#utility.yul\":7570:7574   */\n      dup2\n        /* \"#utility.yul\":7566:7586   */\n      sub\n        /* \"#utility.yul\":7562:7563   */\n      0x00\n        /* \"#utility.yul\":7551:7560   */\n      dup4\n        /* \"#utility.yul\":7547:7564   */\n      add\n        /* \"#utility.yul\":7540:7587   */\n      mstore\n        /* \"#utility.yul\":7604:7735   */\n      tag_363\n        /* \"#utility.yul\":7730:7734   */\n      dup2\n        /* \"#utility.yul\":7604:7735   */\n      tag_255\n      jump\t// in\n    tag_363:\n        /* \"#utility.yul\":7596:7735   */\n      swap1\n      pop\n        /* \"#utility.yul\":7323:7742   */\n      swap2\n      swap1\n      pop\n      jump\t// out\n        /* \"#utility.yul\":7748:7907   */\n    tag_256:\n        /* \"#utility.yul\":7888:7899   */\n      0x4e6f20746f6b656e730000000000000000000000000000000000000000000000\n        /* \"#utility.yul\":7884:7885   */\n      0x00\n        /* \"#utility.yul\":7876:7882   */\n      dup3\n        /* \"#utility.yul\":7872:7886   */\n      add\n        /* \"#utility.yul\":7865:7900   */\n      mstore\n        /* \"#utility.yul\":7748:7907   */\n      pop\n      jump\t// out\n        /* \"#utility.yul\":7913:8278   */\n    tag_257:\n        /* \"#utility.yul\":8055:8058   */\n      0x00\n        /* \"#utility.yul\":8076:8142   */\n      tag_366\n        /* \"#utility.yul\":8140:8141   */\n      0x09\n        /* \"#utility.yul\":8135:8138   */\n      dup4\n        /* \"#utility.yul\":8076:8142   */\n      tag_251\n      jump\t// in\n    tag_366:\n        /* \"#utility.yul\":8069:8142   */\n      swap2\n      pop\n        /* \"#utility.yul\":8151:8244   */\n      tag_367\n        /* \"#utility.yul\":8240:8243   */\n      dup3\n        /* \"#utility.yul\":8151:8244   */\n      tag_256\n      jump\t// in\n    tag_367:\n        /* \"#utility.yul\":8269:8271   */\n      0x20\n        /* \"#utility.yul\":8264:8267   */\n      dup3\n        /* \"#utility.yul\":8260:8272   */\n      add\n        /* \"#utility.yul\":8253:8272   */\n      swap1\n      pop\n        /* \"#utility.yul\":7913:8278   */\n      swap2\n      swap1\n      pop\n      jump\t// out\n        /* \"#utility.yul\":8284:8703   */\n    tag_83:\n        /* \"#utility.yul\":8450:8454   */\n      0x00\n        /* \"#utility.yul\":8488:8490   */\n      0x20\n        /* \"#utility.yul\":8477:8486   */\n      dup3\n        /* \"#utility.yul\":8473:8491   */\n      add\n        /* \"#utility.yul\":8465:8491   */\n      swap1\n      pop\n        /* \"#utility.yul\":8537:8546   */\n      dup2\n        /* \"#utility.yul\":8531:8535   */\n      dup2\n        /* \"#utility.yul\":8527:8547   */\n      sub\n        /* \"#utility.yul\":8523:8524   */\n      0x00\n        /* \"#utility.yul\":8512:8521   */\n      dup4\n        /* \"#utility.yul\":8508:8525   */\n      add\n        /* \"#utility.yul\":8501:8548   */\n      mstore\n        /* \"#utility.yul\":8565:8696   */\n      tag_369\n        /* \"#utility.yul\":8691:8695   */\n      dup2\n        /* \"#utility.yul\":8565:8696   */\n      tag_257\n      jump\t// in\n    tag_369:\n        /* \"#utility.yul\":8557:8696   */\n      swap1\n      pop\n        /* \"#utility.yul\":8284:8703   */\n      swap2\n      swap1\n      pop\n      jump\t// out\n        /* \"#utility.yul\":8709:8889   */\n    tag_89:\n        /* \"#utility.yul\":8757:8834   */\n      0x4e487b7100000000000000000000000000000000000000000000000000000000\n        /* \"#utility.yul\":8754:8755   */\n      0x00\n        /* \"#utility.yul\":8747:8835   */\n      mstore\n        /* \"#utility.yul\":8854:8858   */\n      0x32\n        /* \"#utility.yul\":8851:8852   */\n      0x04\n        /* \"#utility.yul\":8844:8859   */\n      mstore\n        /* \"#utility.yul\":8878:8882   */\n      0x24\n        /* \"#utility.yul\":8875:8876   */\n      0x00\n        /* \"#utility.yul\":8868:8883   */\n      revert\n        /* \"#utility.yul\":8895:9062   */\n    tag_258:\n        /* \"#utility.yul\":9035:9054   */\n      0x4e6f74206120746f6b656e206f776e6572000000000000000000000000000000\n        /* \"#utility.yul\":9031:9032   */\n      0x00\n        /* \"#utility.yul\":9023:9029   */\n      dup3\n        /* \"#utility.yul\":9019:9033   */\n      add\n        /* \"#utility.yul\":9012:9055   */\n      mstore\n        /* \"#utility.yul\":8895:9062   */\n      pop\n      jump\t// out\n        /* \"#utility.yul\":9068:9434   */\n    tag_259:\n        /* \"#utility.yul\":9210:9213   */\n      0x00\n        /* \"#utility.yul\":9231:9298   */\n      tag_373\n        /* \"#utility.yul\":9295:9297   */\n      0x11\n        /* \"#utility.yul\":9290:9293   */\n      dup4\n        /* \"#utility.yul\":9231:9298   */\n      tag_251\n      jump\t// in\n    tag_373:\n        /* \"#utility.yul\":9224:9298   */\n      swap2\n      pop\n        /* \"#utility.yul\":9307:9400   */\n      tag_374\n        /* \"#utility.yul\":9396:9399   */\n      dup3\n        /* \"#utility.yul\":9307:9400   */\n      tag_258\n      jump\t// in\n    tag_374:\n        /* \"#utility.yul\":9425:9427   */\n      0x20\n        /* \"#utility.yul\":9420:9423   */\n      dup3\n        /* \"#utility.yul\":9416:9428   */\n      add\n        /* \"#utility.yul\":9409:9428   */\n      swap1\n      pop\n        /* \"#utility.yul\":9068:9434   */\n      swap2\n      swap1\n      pop\n      jump\t// out\n        /* \"#utility.yul\":9440:9859   */\n    tag_92:\n        /* \"#utility.yul\":9606:9610   */\n      0x00\n        /* \"#utility.yul\":9644:9646   */\n      0x20\n        /* \"#utility.yul\":9633:9642   */\n      dup3\n        /* \"#utility.yul\":9629:9647   */\n      add\n        /* \"#utility.yul\":9621:9647   */\n      swap1\n      pop\n        /* \"#utility.yul\":9693:9702   */\n      dup2\n        /* \"#utility.yul\":9687:9691   */\n      dup2\n        /* \"#utility.yul\":9683:9703   */\n      sub\n        /* \"#utility.yul\":9679:9680   */\n      0x00\n        /* \"#utility.yul\":9668:9677   */\n      dup4\n        /* \"#utility.yul\":9664:9681   */\n      add\n        /* \"#utility.yul\":9657:9704   */\n      mstore\n        /* \"#utility.yul\":9721:9852   */\n      tag_376\n        /* \"#utility.yul\":9847:9851   */\n      dup2\n        /* \"#utility.yul\":9721:9852   */\n      tag_259\n      jump\t// in\n    tag_376:\n        /* \"#utility.yul\":9713:9852   */\n      swap1\n      pop\n        /* \"#utility.yul\":9440:9859   */\n      swap2\n      swap1\n      pop\n      jump\t// out\n        /* \"#utility.yul\":9865:10045   */\n    tag_260:\n        /* \"#utility.yul\":9913:9990   */\n      0x4e487b7100000000000000000000000000000000000000000000000000000000\n        /* \"#utility.yul\":9910:9911   */\n      0x00\n        /* \"#utility.yul\":9903:9991   */\n      mstore\n        /* \"#utility.yul\":10010:10014   */\n      0x11\n        /* \"#utility.yul\":10007:10008   */\n      0x04\n        /* \"#utility.yul\":10000:10015   */\n      mstore\n        /* \"#utility.yul\":10034:10038   */\n      0x24\n        /* \"#utility.yul\":10031:10032   */\n      0x00\n        /* \"#utility.yul\":10024:10039   */\n      revert\n        /* \"#utility.yul\":10051:10242   */\n    tag_94:\n        /* \"#utility.yul\":10091:10094   */\n      0x00\n        /* \"#utility.yul\":10110:10130   */\n      tag_379\n        /* \"#utility.yul\":10128:10129   */\n      dup3\n        /* \"#utility.yul\":10110:10130   */\n      tag_231\n      jump\t// in\n    tag_379:\n        /* \"#utility.yul\":10105:10130   */\n      swap2\n      pop\n        /* \"#utility.yul\":10144:10164   */\n      tag_380\n        /* \"#utility.yul\":10162:10163   */\n      dup4\n        /* \"#utility.yul\":10144:10164   */\n      tag_231\n      jump\t// in\n    tag_380:\n        /* \"#utility.yul\":10139:10164   */\n      swap3\n      pop\n        /* \"#utility.yul\":10187:10188   */\n      dup3\n        /* \"#utility.yul\":10184:10185   */\n      dup3\n        /* \"#utility.yul\":10180:10189   */\n      add\n        /* \"#utility.yul\":10173:10189   */\n      swap1\n      pop\n        /* \"#utility.yul\":10208:10211   */\n      dup1\n        /* \"#utility.yul\":10205:10206   */\n      dup3\n        /* \"#utility.yul\":10202:10212   */\n      gt\n        /* \"#utility.yul\":10199:10235   */\n      iszero\n      tag_381\n      jumpi\n        /* \"#utility.yul\":10215:10233   */\n      tag_382\n      tag_260\n      jump\t// in\n    tag_382:\n        /* \"#utility.yul\":10199:10235   */\n    tag_381:\n        /* \"#utility.yul\":10051:10242   */\n      swap3\n      swap2\n      pop\n      pop\n      jump\t// out\n        /* \"#utility.yul\":10248:10419   */\n    tag_261:\n        /* \"#utility.yul\":10388:10411   */\n      0x4e6f742061626c6520746f20636c61696d207965740000000000000000000000\n        /* \"#utility.yul\":10384:10385   */\n      0x00\n        /* \"#utility.yul\":10376:10382   */\n      dup3\n        /* \"#utility.yul\":10372:10386   */\n      add\n        /* \"#utility.yul\":10365:10412   */\n      mstore\n        /* \"#utility.yul\":10248:10419   */\n      pop\n      jump\t// out\n        /* \"#utility.yul\":10425:10791   */\n    tag_262:\n        /* \"#utility.yul\":10567:10570   */\n      0x00\n        /* \"#utility.yul\":10588:10655   */\n      tag_385\n        /* \"#utility.yul\":10652:10654   */\n      0x15\n        /* \"#utility.yul\":10647:10650   */\n      dup4\n        /* \"#utility.yul\":10588:10655   */\n      tag_251\n      jump\t// in\n    tag_385:\n        /* \"#utility.yul\":10581:10655   */\n      swap2\n      pop\n        /* \"#utility.yul\":10664:10757   */\n      tag_386\n        /* \"#utility.yul\":10753:10756   */\n      dup3\n        /* \"#utility.yul\":10664:10757   */\n      tag_261\n      jump\t// in\n    tag_386:\n        /* \"#utility.yul\":10782:10784   */\n      0x20\n        /* \"#utility.yul\":10777:10780   */\n      dup3\n        /* \"#utility.yul\":10773:10785   */\n      add\n        /* \"#utility.yul\":10766:10785   */\n      swap1\n      pop\n        /* \"#utility.yul\":10425:10791   */\n      swap2\n      swap1\n      pop\n      jump\t// out\n        /* \"#utility.yul\":10797:11216   */\n    tag_97:\n        /* \"#utility.yul\":10963:10967   */\n      0x00\n        /* \"#utility.yul\":11001:11003   */\n      0x20\n        /* \"#utility.yul\":10990:10999   */\n      dup3\n        /* \"#utility.yul\":10986:11004   */\n      add\n        /* \"#utility.yul\":10978:11004   */\n      swap1\n      pop\n        /* \"#utility.yul\":11050:11059   */\n      dup2\n        /* \"#utility.yul\":11044:11048   */\n      dup2\n        /* \"#utility.yul\":11040:11060   */\n      sub\n        /* \"#utility.yul\":11036:11037   */\n      0x00\n        /* \"#utility.yul\":11025:11034   */\n      dup4\n        /* \"#utility.yul\":11021:11038   */\n      add\n        /* \"#utility.yul\":11014:11061   */\n      mstore\n        /* \"#utility.yul\":11078:11209   */\n      tag_388\n        /* \"#utility.yul\":11204:11208   */\n      dup2\n        /* \"#utility.yul\":11078:11209   */\n      tag_262\n      jump\t// in\n    tag_388:\n        /* \"#utility.yul\":11070:11209   */\n      swap1\n      pop\n        /* \"#utility.yul\":10797:11216   */\n      swap2\n      swap1\n      pop\n      jump\t// out\n        /* \"#utility.yul\":11222:11388   */\n    tag_263:\n        /* \"#utility.yul\":11362:11380   */\n      0x416c726561647920756e6c6f636b656400000000000000000000000000000000\n        /* \"#utility.yul\":11358:11359   */\n      0x00\n        /* \"#utility.yul\":11350:11356   */\n      dup3\n        /* \"#utility.yul\":11346:11360   */\n      add\n        /* \"#utility.yul\":11339:11381   */\n      mstore\n        /* \"#utility.yul\":11222:11388   */\n      pop\n      jump\t// out\n        /* \"#utility.yul\":11394:11760   */\n    tag_264:\n        /* \"#utility.yul\":11536:11539   */\n      0x00\n        /* \"#utility.yul\":11557:11624   */\n      tag_391\n        /* \"#utility.yul\":11621:11623   */\n      0x10\n        /* \"#utility.yul\":11616:11619   */\n      dup4\n        /* \"#utility.yul\":11557:11624   */\n      tag_251\n      jump\t// in\n    tag_391:\n        /* \"#utility.yul\":11550:11624   */\n      swap2\n      pop\n        /* \"#utility.yul\":11633:11726   */\n      tag_392\n        /* \"#utility.yul\":11722:11725   */\n      dup3\n        /* \"#utility.yul\":11633:11726   */\n      tag_263\n      jump\t// in\n    tag_392:\n        /* \"#utility.yul\":11751:11753   */\n      0x20\n        /* \"#utility.yul\":11746:11749   */\n      dup3\n        /* \"#utility.yul\":11742:11754   */\n      add\n        /* \"#utility.yul\":11735:11754   */\n      swap1\n      pop\n        /* \"#utility.yul\":11394:11760   */\n      swap2\n      swap1\n      pop\n      jump\t// out\n        /* \"#utility.yul\":11766:12185   */\n    tag_100:\n        /* \"#utility.yul\":11932:11936   */\n      0x00\n        /* \"#utility.yul\":11970:11972   */\n      0x20\n        /* \"#utility.yul\":11959:11968   */\n      dup3\n        /* \"#utility.yul\":11955:11973   */\n      add\n        /* \"#utility.yul\":11947:11973   */\n      swap1\n      pop\n        /* \"#utility.yul\":12019:12028   */\n      dup2\n        /* \"#utility.yul\":12013:12017   */\n      dup2\n        /* \"#utility.yul\":12009:12029   */\n      sub\n        /* \"#utility.yul\":12005:12006   */\n      0x00\n        /* \"#utility.yul\":11994:12003   */\n      dup4\n        /* \"#utility.yul\":11990:12007   */\n      add\n        /* \"#utility.yul\":11983:12030   */\n      mstore\n        /* \"#utility.yul\":12047:12178   */\n      tag_394\n        /* \"#utility.yul\":12173:12177   */\n      dup2\n        /* \"#utility.yul\":12047:12178   */\n      tag_264\n      jump\t// in\n    tag_394:\n        /* \"#utility.yul\":12039:12178   */\n      swap1\n      pop\n        /* \"#utility.yul\":11766:12185   */\n      swap2\n      swap1\n      pop\n      jump\t// out\n        /* \"#utility.yul\":12191:12385   */\n    tag_106:\n        /* \"#utility.yul\":12231:12235   */\n      0x00\n        /* \"#utility.yul\":12251:12271   */\n      tag_396\n        /* \"#utility.yul\":12269:12270   */\n      dup3\n        /* \"#utility.yul\":12251:12271   */\n      tag_231\n      jump\t// in\n    tag_396:\n        /* \"#utility.yul\":12246:12271   */\n      swap2\n      pop\n        /* \"#utility.yul\":12285:12305   */\n      tag_397\n        /* \"#utility.yul\":12303:12304   */\n      dup4\n        /* \"#utility.yul\":12285:12305   */\n      tag_231\n      jump\t// in\n    tag_397:\n        /* \"#utility.yul\":12280:12305   */\n      swap3\n      pop\n        /* \"#utility.yul\":12329:12330   */\n      dup3\n        /* \"#utility.yul\":12326:12327   */\n      dup3\n        /* \"#utility.yul\":12322:12331   */\n      sub\n        /* \"#utility.yul\":12314:12331   */\n      swap1\n      pop\n        /* \"#utility.yul\":12353:12354   */\n      dup2\n        /* \"#utility.yul\":12347:12351   */\n      dup2\n        /* \"#utility.yul\":12344:12355   */\n      gt\n        /* \"#utility.yul\":12341:12378   */\n      iszero\n      tag_398\n      jumpi\n        /* \"#utility.yul\":12358:12376   */\n      tag_399\n      tag_260\n      jump\t// in\n    tag_399:\n        /* \"#utility.yul\":12341:12378   */\n    tag_398:\n        /* \"#utility.yul\":12191:12385   */\n      swap3\n      swap2\n      pop\n      pop\n      jump\t// out\n        /* \"#utility.yul\":12391:12624   */\n    tag_111:\n        /* \"#utility.yul\":12430:12433   */\n      0x00\n        /* \"#utility.yul\":12453:12477   */\n      tag_401\n        /* \"#utility.yul\":12471:12476   */\n      dup3\n        /* \"#utility.yul\":12453:12477   */\n      tag_231\n      jump\t// in\n    tag_401:\n        /* \"#utility.yul\":12444:12477   */\n      swap2\n      pop\n        /* \"#utility.yul\":12499:12565   */\n      0xffffffffffffffffffffffffffffffffffffffffffffffffffffffffffffffff\n        /* \"#utility.yul\":12492:12497   */\n      dup3\n        /* \"#utility.yul\":12489:12566   */\n      sub\n        /* \"#utility.yul\":12486:12589   */\n      tag_402\n      jumpi\n        /* \"#utility.yul\":12569:12587   */\n      tag_403\n      tag_260\n      jump\t// in\n    tag_403:\n        /* \"#utility.yul\":12486:12589   */\n    tag_402:\n        /* \"#utility.yul\":12616:12617   */\n      0x01\n        /* \"#utility.yul\":12609:12614   */\n      dup3\n        /* \"#utility.yul\":12605:12618   */\n      add\n        /* \"#utility.yul\":12598:12618   */\n      swap1\n      pop\n        /* \"#utility.yul\":12391:12624   */\n      swap2\n      swap1\n      pop\n      jump\t// out\n        /* \"#utility.yul\":12630:12814   */\n    tag_265:\n        /* \"#utility.yul\":12729:12740   */\n      0x00\n        /* \"#utility.yul\":12763:12769   */\n      dup3\n        /* \"#utility.yul\":12758:12761   */\n      dup3\n        /* \"#utility.yul\":12751:12770   */\n      mstore\n        /* \"#utility.yul\":12803:12807   */\n      0x20\n        /* \"#utility.yul\":12798:12801   */\n      dup3\n        /* \"#utility.yul\":12794:12808   */\n      add\n        /* \"#utility.yul\":12779:12808   */\n      swap1\n      pop\n        /* \"#utility.yul\":12630:12814   */\n      swap3\n      swap2\n      pop\n      pop\n      jump\t// out\n        /* \"#utility.yul\":12820:12937   */\n    tag_266:\n        /* \"#utility.yul\":12929:12930   */\n      0x00\n        /* \"#utility.yul\":12926:12927   */\n      dup1\n        /* \"#utility.yul\":12919:12931   */\n      revert\n        /* \"#utility.yul\":12943:13041   */\n    tag_267:\n        /* \"#utility.yul\":13027:13033   */\n      dup3\n        /* \"#utility.yul\":13022:13025   */\n      dup2\n        /* \"#utility.yul\":13017:13020   */\n      dup4\n        /* \"#utility.yul\":13004:13034   */\n      calldatacopy\n        /* \"#utility.yul\":12943:13041   */\n      pop\n      pop\n      pop\n      jump\t// out\n        /* \"#utility.yul\":13077:13614   */\n    tag_268:\n        /* \"#utility.yul\":13205:13208   */\n      0x00\n        /* \"#utility.yul\":13226:13312   */\n      tag_408\n        /* \"#utility.yul\":13305:13311   */\n      dup4\n        /* \"#utility.yul\":13300:13303   */\n      dup6\n        /* \"#utility.yul\":13226:13312   */\n      tag_265\n      jump\t// in\n    tag_408:\n        /* \"#utility.yul\":13219:13312   */\n      swap4\n      pop\n        /* \"#utility.yul\":13336:13402   */\n      0x07ffffffffffffffffffffffffffffffffffffffffffffffffffffffffffffff\n        /* \"#utility.yul\":13328:13334   */\n      dup4\n        /* \"#utility.yul\":13325:13403   */\n      gt\n        /* \"#utility.yul\":13322:13487   */\n      iszero\n      tag_409\n      jumpi\n        /* \"#utility.yul\":13406:13485   */\n      tag_410\n      tag_266\n      jump\t// in\n    tag_410:\n        /* \"#utility.yul\":13322:13487   */\n    tag_409:\n        /* \"#utility.yul\":13518:13522   */\n      0x20\n        /* \"#utility.yul\":13510:13516   */\n      dup4\n        /* \"#utility.yul\":13506:13523   */\n      mul\n        /* \"#utility.yul\":13496:13523   */\n      swap3\n      pop\n        /* \"#utility.yul\":13533:13576   */\n      tag_411\n        /* \"#utility.yul\":13569:13575   */\n      dup4\n        /* \"#utility.yul\":13564:13567   */\n      dup6\n        /* \"#utility.yul\":13557:13562   */\n      dup5\n        /* \"#utility.yul\":13533:13576   */\n      tag_267\n      jump\t// in\n    tag_411:\n        /* \"#utility.yul\":13601:13607   */\n      dup3\n        /* \"#utility.yul\":13596:13599   */\n      dup5\n        /* \"#utility.yul\":13592:13608   */\n      add\n        /* \"#utility.yul\":13585:13608   */\n      swap1\n      pop\n        /* \"#utility.yul\":13077:13614   */\n      swap4\n      swap3\n      pop\n      pop\n      pop\n      jump\t// out\n        /* \"#utility.yul\":13620:14123   */\n    tag_113:\n        /* \"#utility.yul\":13801:13805   */\n      0x00\n        /* \"#utility.yul\":13839:13841   */\n      0x40\n        /* \"#utility.yul\":13828:13837   */\n      dup3\n        /* \"#utility.yul\":13824:13842   */\n      add\n        /* \"#utility.yul\":13816:13842   */\n      swap1\n      pop\n        /* \"#utility.yul\":13888:13897   */\n      dup2\n        /* \"#utility.yul\":13882:13886   */\n      dup2\n        /* \"#utility.yul\":13878:13898   */\n      sub\n        /* \"#utility.yul\":13874:13875   */\n      0x00\n        /* \"#utility.yul\":13863:13872   */\n      dup4\n        /* \"#utility.yul\":13859:13876   */\n      add\n        /* \"#utility.yul\":13852:13899   */\n      mstore\n        /* \"#utility.yul\":13916:14034   */\n      tag_413\n        /* \"#utility.yul\":14029:14033   */\n      dup2\n        /* \"#utility.yul\":14020:14026   */\n      dup6\n        /* \"#utility.yul\":14012:14018   */\n      dup8\n        /* \"#utility.yul\":13916:14034   */\n      tag_268\n      jump\t// in\n    tag_413:\n        /* \"#utility.yul\":13908:14034   */\n      swap1\n      pop\n        /* \"#utility.yul\":14044:14116   */\n      tag_414\n        /* \"#utility.yul\":14112:14114   */\n      0x20\n        /* \"#utility.yul\":14101:14110   */\n      dup4\n        /* \"#utility.yul\":14097:14115   */\n      add\n        /* \"#utility.yul\":14088:14094   */\n      dup5\n        /* \"#utility.yul\":14044:14116   */\n      tag_234\n      jump\t// in\n    tag_414:\n        /* \"#utility.yul\":13620:14123   */\n      swap5\n      swap4\n      pop\n      pop\n      pop\n      pop\n      jump\t// out\n        /* \"#utility.yul\":14129:14299   */\n    tag_269:\n        /* \"#utility.yul\":14269:14291   */\n      0x496e76616c6964206c6f636b20706572696f642e000000000000000000000000\n        /* \"#utility.yul\":14265:14266   */\n      0x00\n        /* \"#utility.yul\":14257:14263   */\n      dup3\n        /* \"#utility.yul\":14253:14267   */\n      add\n        /* \"#utility.yul\":14246:14292   */\n      mstore\n        /* \"#utility.yul\":14129:14299   */\n      pop\n      jump\t// out\n        /* \"#utility.yul\":14305:14671   */\n    tag_270:\n        /* \"#utility.yul\":14447:14450   */\n      0x00\n        /* \"#utility.yul\":14468:14535   */\n      tag_417\n        /* \"#utility.yul\":14532:14534   */\n      0x14\n        /* \"#utility.yul\":14527:14530   */\n      dup4\n        /* \"#utility.yul\":14468:14535   */\n      tag_251\n      jump\t// in\n    tag_417:\n        /* \"#utility.yul\":14461:14535   */\n      swap2\n      pop\n        /* \"#utility.yul\":14544:14637   */\n      tag_418\n        /* \"#utility.yul\":14633:14636   */\n      dup3\n        /* \"#utility.yul\":14544:14637   */\n      tag_269\n      jump\t// in\n    tag_418:\n        /* \"#utility.yul\":14662:14664   */\n      0x20\n        /* \"#utility.yul\":14657:14660   */\n      dup3\n        /* \"#utility.yul\":14653:14665   */\n      add\n        /* \"#utility.yul\":14646:14665   */\n      swap1\n      pop\n        /* \"#utility.yul\":14305:14671   */\n      swap2\n      swap1\n      pop\n      jump\t// out\n        /* \"#utility.yul\":14677:15096   */\n    tag_125:\n        /* \"#utility.yul\":14843:14847   */\n      0x00\n        /* \"#utility.yul\":14881:14883   */\n      0x20\n        /* \"#utility.yul\":14870:14879   */\n      dup3\n        /* \"#utility.yul\":14866:14884   */\n      add\n        /* \"#utility.yul\":14858:14884   */\n      swap1\n      pop\n        /* \"#utility.yul\":14930:14939   */\n      dup2\n        /* \"#utility.yul\":14924:14928   */\n      dup2\n        /* \"#utility.yul\":14920:14940   */\n      sub\n        /* \"#utility.yul\":14916:14917   */\n      0x00\n        /* \"#utility.yul\":14905:14914   */\n      dup4\n        /* \"#utility.yul\":14901:14918   */\n      add\n        /* \"#utility.yul\":14894:14941   */\n      mstore\n        /* \"#utility.yul\":14958:15089   */\n      tag_420\n        /* \"#utility.yul\":15084:15088   */\n      dup2\n        /* \"#utility.yul\":14958:15089   */\n      tag_270\n      jump\t// in\n    tag_420:\n        /* \"#utility.yul\":14950:15089   */\n      swap1\n      pop\n        /* \"#utility.yul\":14677:15096   */\n      swap2\n      swap1\n      pop\n      jump\t// out\n        /* \"#utility.yul\":15102:15283   */\n    tag_271:\n        /* \"#utility.yul\":15242:15275   */\n      0x5265656e7472616e637947756172643a207265656e7472616e742063616c6c00\n        /* \"#utility.yul\":15238:15239   */\n      0x00\n        /* \"#utility.yul\":15230:15236   */\n      dup3\n        /* \"#utility.yul\":15226:15240   */\n      add\n        /* \"#utility.yul\":15219:15276   */\n      mstore\n        /* \"#utility.yul\":15102:15283   */\n      pop\n      jump\t// out\n        /* \"#utility.yul\":15289:15655   */\n    tag_272:\n        /* \"#utility.yul\":15431:15434   */\n      0x00\n        /* \"#utility.yul\":15452:15519   */\n      tag_423\n        /* \"#utility.yul\":15516:15518   */\n      0x1f\n        /* \"#utility.yul\":15511:15514   */\n      dup4\n        /* \"#utility.yul\":15452:15519   */\n      tag_251\n      jump\t// in\n    tag_423:\n        /* \"#utility.yul\":15445:15519   */\n      swap2\n      pop\n        /* \"#utility.yul\":15528:15621   */\n      tag_424\n        /* \"#utility.yul\":15617:15620   */\n      dup3\n        /* \"#utility.yul\":15528:15621   */\n      tag_271\n      jump\t// in\n    tag_424:\n        /* \"#utility.yul\":15646:15648   */\n      0x20\n        /* \"#utility.yul\":15641:15644   */\n      dup3\n        /* \"#utility.yul\":15637:15649   */\n      add\n        /* \"#utility.yul\":15630:15649   */\n      swap1\n      pop\n        /* \"#utility.yul\":15289:15655   */\n      swap2\n      swap1\n      pop\n      jump\t// out\n        /* \"#utility.yul\":15661:16080   */\n    tag_136:\n        /* \"#utility.yul\":15827:15831   */\n      0x00\n        /* \"#utility.yul\":15865:15867   */\n      0x20\n        /* \"#utility.yul\":15854:15863   */\n      dup3\n        /* \"#utility.yul\":15850:15868   */\n      add\n        /* \"#utility.yul\":15842:15868   */\n      swap1\n      pop\n        /* \"#utility.yul\":15914:15923   */\n      dup2\n        /* \"#utility.yul\":15908:15912   */\n      dup2\n        /* \"#utility.yul\":15904:15924   */\n      sub\n        /* \"#utility.yul\":15900:15901   */\n      0x00\n        /* \"#utility.yul\":15889:15898   */\n      dup4\n        /* \"#utility.yul\":15885:15902   */\n      add\n        /* \"#utility.yul\":15878:15925   */\n      mstore\n        /* \"#utility.yul\":15942:16073   */\n      tag_426\n        /* \"#utility.yul\":16068:16072   */\n      dup2\n        /* \"#utility.yul\":15942:16073   */\n      tag_272\n      jump\t// in\n    tag_426:\n        /* \"#utility.yul\":15934:16073   */\n      swap1\n      pop\n        /* \"#utility.yul\":15661:16080   */\n      swap2\n      swap1\n      pop\n      jump\t// out\n        /* \"#utility.yul\":16086:16258   */\n    tag_273:\n        /* \"#utility.yul\":16226:16250   */\n      0x4e6f742061626c6520746f20756e6c6f636b2079657400000000000000000000\n        /* \"#utility.yul\":16222:16223   */\n      0x00\n        /* \"#utility.yul\":16214:16220   */\n      dup3\n        /* \"#utility.yul\":16210:16224   */\n      add\n        /* \"#utility.yul\":16203:16251   */\n      mstore\n        /* \"#utility.yul\":16086:16258   */\n      pop\n      jump\t// out\n        /* \"#utility.yul\":16264:16630   */\n    tag_274:\n        /* \"#utility.yul\":16406:16409   */\n      0x00\n        /* \"#utility.yul\":16427:16494   */\n      tag_429\n        /* \"#utility.yul\":16491:16493   */\n      0x16\n        /* \"#utility.yul\":16486:16489   */\n      dup4\n        /* \"#utility.yul\":16427:16494   */\n      tag_251\n      jump\t// in\n    tag_429:\n        /* \"#utility.yul\":16420:16494   */\n      swap2\n      pop\n        /* \"#utility.yul\":16503:16596   */\n      tag_430\n        /* \"#utility.yul\":16592:16595   */\n      dup3\n        /* \"#utility.yul\":16503:16596   */\n      tag_273\n      jump\t// in\n    tag_430:\n        /* \"#utility.yul\":16621:16623   */\n      0x20\n        /* \"#utility.yul\":16616:16619   */\n      dup3\n        /* \"#utility.yul\":16612:16624   */\n      add\n        /* \"#utility.yul\":16605:16624   */\n      swap1\n      pop\n        /* \"#utility.yul\":16264:16630   */\n      swap2\n      swap1\n      pop\n      jump\t// out\n        /* \"#utility.yul\":16636:17055   */\n    tag_150:\n        /* \"#utility.yul\":16802:16806   */\n      0x00\n        /* \"#utility.yul\":16840:16842   */\n      0x20\n        /* \"#utility.yul\":16829:16838   */\n      dup3\n        /* \"#utility.yul\":16825:16843   */\n      add\n        /* \"#utility.yul\":16817:16843   */\n      swap1\n      pop\n        /* \"#utility.yul\":16889:16898   */\n      dup2\n        /* \"#utility.yul\":16883:16887   */\n      dup2\n        /* \"#utility.yul\":16879:16899   */\n      sub\n        /* \"#utility.yul\":16875:16876   */\n      0x00\n        /* \"#utility.yul\":16864:16873   */\n      dup4\n        /* \"#utility.yul\":16860:16877   */\n      add\n        /* \"#utility.yul\":16853:16900   */\n      mstore\n        /* \"#utility.yul\":16917:17048   */\n      tag_432\n        /* \"#utility.yul\":17043:17047   */\n      dup2\n        /* \"#utility.yul\":16917:17048   */\n      tag_274\n      jump\t// in\n    tag_432:\n        /* \"#utility.yul\":16909:17048   */\n      swap1\n      pop\n        /* \"#utility.yul\":16636:17055   */\n      swap2\n      swap1\n      pop\n      jump\t// out\n        /* \"#utility.yul\":17061:17503   */\n    tag_156:\n        /* \"#utility.yul\":17210:17214   */\n      0x00\n        /* \"#utility.yul\":17248:17250   */\n      0x60\n        /* \"#utility.yul\":17237:17246   */\n      dup3\n        /* \"#utility.yul\":17233:17251   */\n      add\n        /* \"#utility.yul\":17225:17251   */\n      swap1\n      pop\n        /* \"#utility.yul\":17261:17332   */\n      tag_434\n        /* \"#utility.yul\":17329:17330   */\n      0x00\n        /* \"#utility.yul\":17318:17327   */\n      dup4\n        /* \"#utility.yul\":17314:17331   */\n      add\n        /* \"#utility.yul\":17305:17311   */\n      dup7\n        /* \"#utility.yul\":17261:17332   */\n      tag_246\n      jump\t// in\n    tag_434:\n        /* \"#utility.yul\":17342:17414   */\n      tag_435\n        /* \"#utility.yul\":17410:17412   */\n      0x20\n        /* \"#utility.yul\":17399:17408   */\n      dup4\n        /* \"#utility.yul\":17395:17413   */\n      add\n        /* \"#utility.yul\":17386:17392   */\n      dup6\n        /* \"#utility.yul\":17342:17414   */\n      tag_246\n      jump\t// in\n    tag_435:\n        /* \"#utility.yul\":17424:17496   */\n      tag_436\n        /* \"#utility.yul\":17492:17494   */\n      0x40\n        /* \"#utility.yul\":17481:17490   */\n      dup4\n        /* \"#utility.yul\":17477:17495   */\n      add\n        /* \"#utility.yul\":17468:17474   */\n      dup5\n        /* \"#utility.yul\":17424:17496   */\n      tag_234\n      jump\t// in\n    tag_436:\n        /* \"#utility.yul\":17061:17503   */\n      swap5\n      swap4\n      pop\n      pop\n      pop\n      pop\n      jump\t// out\n        /* \"#utility.yul\":17509:17902   */\n    tag_170:\n        /* \"#utility.yul\":17662:17666   */\n      0x00\n        /* \"#utility.yul\":17700:17702   */\n      0x20\n        /* \"#utility.yul\":17689:17698   */\n      dup3\n        /* \"#utility.yul\":17685:17703   */\n      add\n        /* \"#utility.yul\":17677:17703   */\n      swap1\n      pop\n        /* \"#utility.yul\":17749:17758   */\n      dup2\n        /* \"#utility.yul\":17743:17747   */\n      dup2\n        /* \"#utility.yul\":17739:17759   */\n      sub\n        /* \"#utility.yul\":17735:17736   */\n      0x00\n        /* \"#utility.yul\":17724:17733   */\n      dup4\n        /* \"#utility.yul\":17720:17737   */\n      add\n        /* \"#utility.yul\":17713:17760   */\n      mstore\n        /* \"#utility.yul\":17777:17895   */\n      tag_438\n        /* \"#utility.yul\":17890:17894   */\n      dup2\n        /* \"#utility.yul\":17881:17887   */\n      dup5\n        /* \"#utility.yul\":17873:17879   */\n      dup7\n        /* \"#utility.yul\":17777:17895   */\n      tag_268\n      jump\t// in\n    tag_438:\n        /* \"#utility.yul\":17769:17895   */\n      swap1\n      pop\n        /* \"#utility.yul\":17509:17902   */\n      swap4\n      swap3\n      pop\n      pop\n      pop\n      jump\t// out\n        /* \"#utility.yul\":17908:18133   */\n    tag_275:\n        /* \"#utility.yul\":18048:18082   */\n      0x4f776e61626c653a206e6577206f776e657220697320746865207a65726f2061\n        /* \"#utility.yul\":18044:18045   */\n      0x00\n        /* \"#utility.yul\":18036:18042   */\n      dup3\n        /* \"#utility.yul\":18032:18046   */\n      add\n        /* \"#utility.yul\":18025:18083   */\n      mstore\n        /* \"#utility.yul\":18117:18125   */\n      0x6464726573730000000000000000000000000000000000000000000000000000\n        /* \"#utility.yul\":18112:18114   */\n      0x20\n        /* \"#utility.yul\":18104:18110   */\n      dup3\n        /* \"#utility.yul\":18100:18115   */\n      add\n        /* \"#utility.yul\":18093:18126   */\n      mstore\n        /* \"#utility.yul\":17908:18133   */\n      pop\n      jump\t// out\n        /* \"#utility.yul\":18139:18505   */\n    tag_276:\n        /* \"#utility.yul\":18281:18284   */\n      0x00\n        /* \"#utility.yul\":18302:18369   */\n      tag_441\n        /* \"#utility.yul\":18366:18368   */\n      0x26\n        /* \"#utility.yul\":18361:18364   */\n      dup4\n        /* \"#utility.yul\":18302:18369   */\n      tag_251\n      jump\t// in\n    tag_441:\n        /* \"#utility.yul\":18295:18369   */\n      swap2\n      pop\n        /* \"#utility.yul\":18378:18471   */\n      tag_442\n        /* \"#utility.yul\":18467:18470   */\n      dup3\n        /* \"#utility.yul\":18378:18471   */\n      tag_275\n      jump\t// in\n    tag_442:\n        /* \"#utility.yul\":18496:18498   */\n      0x40\n        /* \"#utility.yul\":18491:18494   */\n      dup3\n        /* \"#utility.yul\":18487:18499   */\n      add\n        /* \"#utility.yul\":18480:18499   */\n      swap1\n      pop\n        /* \"#utility.yul\":18139:18505   */\n      swap2\n      swap1\n      pop\n      jump\t// out\n        /* \"#utility.yul\":18511:18930   */\n    tag_177:\n        /* \"#utility.yul\":18677:18681   */\n      0x00\n        /* \"#utility.yul\":18715:18717   */\n      0x20\n        /* \"#utility.yul\":18704:18713   */\n      dup3\n        /* \"#utility.yul\":18700:18718   */\n      add\n        /* \"#utility.yul\":18692:18718   */\n      swap1\n      pop\n        /* \"#utility.yul\":18764:18773   */\n      dup2\n        /* \"#utility.yul\":18758:18762   */\n      dup2\n        /* \"#utility.yul\":18754:18774   */\n      sub\n        /* \"#utility.yul\":18750:18751   */\n      0x00\n        /* \"#utility.yul\":18739:18748   */\n      dup4\n        /* \"#utility.yul\":18735:18752   */\n      add\n        /* \"#utility.yul\":18728:18775   */\n      mstore\n        /* \"#utility.yul\":18792:18923   */\n      tag_444\n        /* \"#utility.yul\":18918:18922   */\n      dup2\n        /* \"#utility.yul\":18792:18923   */\n      tag_276\n      jump\t// in\n    tag_444:\n        /* \"#utility.yul\":18784:18923   */\n      swap1\n      pop\n        /* \"#utility.yul\":18511:18930   */\n      swap2\n      swap1\n      pop\n      jump\t// out\n        /* \"#utility.yul\":18936:19079   */\n    tag_277:\n        /* \"#utility.yul\":18993:18998   */\n      0x00\n        /* \"#utility.yul\":19024:19030   */\n      dup2\n        /* \"#utility.yul\":19018:19031   */\n      mload\n        /* \"#utility.yul\":19009:19031   */\n      swap1\n      pop\n        /* \"#utility.yul\":19040:19073   */\n      tag_446\n        /* \"#utility.yul\":19067:19072   */\n      dup2\n        /* \"#utility.yul\":19040:19073   */\n      tag_249\n      jump\t// in\n    tag_446:\n        /* \"#utility.yul\":18936:19079   */\n      swap3\n      swap2\n      pop\n      pop\n      jump\t// out\n        /* \"#utility.yul\":19085:19436   */\n    tag_200:\n        /* \"#utility.yul\":19155:19161   */\n      0x00\n        /* \"#utility.yul\":19204:19206   */\n      0x20\n        /* \"#utility.yul\":19192:19201   */\n      dup3\n        /* \"#utility.yul\":19183:19190   */\n      dup5\n        /* \"#utility.yul\":19179:19202   */\n      sub\n        /* \"#utility.yul\":19175:19207   */\n      slt\n        /* \"#utility.yul\":19172:19291   */\n      iszero\n      tag_448\n      jumpi\n        /* \"#utility.yul\":19210:19289   */\n      tag_449\n      tag_229\n      jump\t// in\n    tag_449:\n        /* \"#utility.yul\":19172:19291   */\n    tag_448:\n        /* \"#utility.yul\":19330:19331   */\n      0x00\n        /* \"#utility.yul\":19355:19419   */\n      tag_450\n        /* \"#utility.yul\":19411:19418   */\n      dup5\n        /* \"#utility.yul\":19402:19408   */\n      dup3\n        /* \"#utility.yul\":19391:19400   */\n      dup6\n        /* \"#utility.yul\":19387:19409   */\n      add\n        /* \"#utility.yul\":19355:19419   */\n      tag_277\n      jump\t// in\n    tag_450:\n        /* \"#utility.yul\":19345:19419   */\n      swap2\n      pop\n        /* \"#utility.yul\":19301:19429   */\n      pop\n        /* \"#utility.yul\":19085:19436   */\n      swap3\n      swap2\n      pop\n      pop\n      jump\t// out\n        /* \"#utility.yul\":19442:19617   */\n    tag_278:\n        /* \"#utility.yul\":19582:19609   */\n      0x596f7520646f6e277420686f6c64207468697320746f6b656e00000000000000\n        /* \"#utility.yul\":19578:19579   */\n      0x00\n        /* \"#utility.yul\":19570:19576   */\n      dup3\n        /* \"#utility.yul\":19566:19580   */\n      add\n        /* \"#utility.yul\":19559:19610   */\n      mstore\n        /* \"#utility.yul\":19442:19617   */\n      pop\n      jump\t// out\n        /* \"#utility.yul\":19623:19989   */\n    tag_279:\n        /* \"#utility.yul\":19765:19768   */\n      0x00\n        /* \"#utility.yul\":19786:19853   */\n      tag_453\n        /* \"#utility.yul\":19850:19852   */\n      0x19\n        /* \"#utility.yul\":19845:19848   */\n      dup4\n        /* \"#utility.yul\":19786:19853   */\n      tag_251\n      jump\t// in\n    tag_453:\n        /* \"#utility.yul\":19779:19853   */\n      swap2\n      pop\n        /* \"#utility.yul\":19862:19955   */\n      tag_454\n        /* \"#utility.yul\":19951:19954   */\n      dup3\n        /* \"#utility.yul\":19862:19955   */\n      tag_278\n      jump\t// in\n    tag_454:\n        /* \"#utility.yul\":19980:19982   */\n      0x20\n        /* \"#utility.yul\":19975:19978   */\n      dup3\n        /* \"#utility.yul\":19971:19983   */\n      add\n        /* \"#utility.yul\":19964:19983   */\n      swap1\n      pop\n        /* \"#utility.yul\":19623:19989   */\n      swap2\n      swap1\n      pop\n      jump\t// out\n        /* \"#utility.yul\":19995:20414   */\n    tag_203:\n        /* \"#utility.yul\":20161:20165   */\n      0x00\n        /* \"#utility.yul\":20199:20201   */\n      0x20\n        /* \"#utility.yul\":20188:20197   */\n      dup3\n        /* \"#utility.yul\":20184:20202   */\n      add\n        /* \"#utility.yul\":20176:20202   */\n      swap1\n      pop\n        /* \"#utility.yul\":20248:20257   */\n      dup2\n        /* \"#utility.yul\":20242:20246   */\n      dup2\n        /* \"#utility.yul\":20238:20258   */\n      sub\n        /* \"#utility.yul\":20234:20235   */\n      0x00\n        /* \"#utility.yul\":20223:20232   */\n      dup4\n        /* \"#utility.yul\":20219:20236   */\n      add\n        /* \"#utility.yul\":20212:20259   */\n      mstore\n        /* \"#utility.yul\":20276:20407   */\n      tag_456\n        /* \"#utility.yul\":20402:20406   */\n      dup2\n        /* \"#utility.yul\":20276:20407   */\n      tag_279\n      jump\t// in\n    tag_456:\n        /* \"#utility.yul\":20268:20407   */\n      swap1\n      pop\n        /* \"#utility.yul\":19995:20414   */\n      swap2\n      swap1\n      pop\n      jump\t// out\n        /* \"#utility.yul\":20420:20602   */\n    tag_280:\n        /* \"#utility.yul\":20560:20594   */\n      0x4f776e61626c653a2063616c6c6572206973206e6f7420746865206f776e6572\n        /* \"#utility.yul\":20556:20557   */\n      0x00\n        /* \"#utility.yul\":20548:20554   */\n      dup3\n        /* \"#utility.yul\":20544:20558   */\n      add\n        /* \"#utility.yul\":20537:20595   */\n      mstore\n        /* \"#utility.yul\":20420:20602   */\n      pop\n      jump\t// out\n        /* \"#utility.yul\":20608:20974   */\n    tag_281:\n        /* \"#utility.yul\":20750:20753   */\n      0x00\n        /* \"#utility.yul\":20771:20838   */\n      tag_459\n        /* \"#utility.yul\":20835:20837   */\n      0x20\n        /* \"#utility.yul\":20830:20833   */\n      dup4\n        /* \"#utility.yul\":20771:20838   */\n      tag_251\n      jump\t// in\n    tag_459:\n        /* \"#utility.yul\":20764:20838   */\n      swap2\n      pop\n        /* \"#utility.yul\":20847:20940   */\n      tag_460\n        /* \"#utility.yul\":20936:20939   */\n      dup3\n        /* \"#utility.yul\":20847:20940   */\n      tag_280\n      jump\t// in\n    tag_460:\n        /* \"#utility.yul\":20965:20967   */\n      0x20\n        /* \"#utility.yul\":20960:20963   */\n      dup3\n        /* \"#utility.yul\":20956:20968   */\n      add\n        /* \"#utility.yul\":20949:20968   */\n      swap1\n      pop\n        /* \"#utility.yul\":20608:20974   */\n      swap2\n      swap1\n      pop\n      jump\t// out\n        /* \"#utility.yul\":20980:21399   */\n    tag_225:\n        /* \"#utility.yul\":21146:21150   */\n      0x00\n        /* \"#utility.yul\":21184:21186   */\n      0x20\n        /* \"#utility.yul\":21173:21182   */\n      dup3\n        /* \"#utility.yul\":21169:21187   */\n      add\n        /* \"#utility.yul\":21161:21187   */\n      swap1\n      pop\n        /* \"#utility.yul\":21233:21242   */\n      dup2\n        /* \"#utility.yul\":21227:21231   */\n      dup2\n        /* \"#utility.yul\":21223:21243   */\n      sub\n        /* \"#utility.yul\":21219:21220   */\n      0x00\n        /* \"#utility.yul\":21208:21217   */\n      dup4\n        /* \"#utility.yul\":21204:21221   */\n      add\n        /* \"#utility.yul\":21197:21244   */\n      mstore\n        /* \"#utility.yul\":21261:21392   */\n      tag_462\n        /* \"#utility.yul\":21387:21391   */\n      dup2\n        /* \"#utility.yul\":21261:21392   */\n      tag_281\n      jump\t// in\n    tag_462:\n        /* \"#utility.yul\":21253:21392   */\n      swap1\n      pop\n        /* \"#utility.yul\":20980:21399   */\n      swap2\n      swap1\n      pop\n      jump\t// out\n\n    auxdata: 0xa2646970667358221220bd48315dd34530daa081bcc85451a561ab5ac6526dc5818ef27761ecac2c70bc64736f6c63430008100033\n}\n",
				"bytecode": {
					"linkReferences": {},
					"object": "60a06040523480156200001157600080fd5b50604051620028e1380380620028e183398181016040528101906200003791906200068f565b620000576200004b620002c460201b60201c565b620002cc60201b60201c565b600180819055508473ffffffffffffffffffffffffffffffffffffffff166301ffc9a76380ac58cd6040518263ffffffff1660e01b81526004016200009d9190620007d1565b602060405180830381865afa158015620000bb573d6000803e3d6000fd5b505050506040513d601f19601f82011682018060405250810190620000e191906200082b565b62000123576040517f08c379a00000000000000000000000000000000000000000000000000000000081526004016200011a90620008be565b60405180910390fd5b6000831162000169576040517f08c379a0000000000000000000000000000000000000000000000000000000008152600401620001609062000930565b60405180910390fd5b60005b84518110156200020c5760028582815181106200018e576200018d62000952565b5b60200260200101519080600181540180825580915050600190039060005260206000200160009091909190916101000a81548173ffffffffffffffffffffffffffffffffffffffff021916908373ffffffffffffffffffffffffffffffffffffffff16021790555080806200020390620009b0565b9150506200016c565b5060005b84518110156200027657600683828151811062000232576200023162000952565b5b6020026020010151908060018154018082558091505060019003906000526020600020016000909190919091505580806200026d90620009b0565b91505062000210565b508473ffffffffffffffffffffffffffffffffffffffff1660808173ffffffffffffffffffffffffffffffffffffffff168152505082600381905550806005819055505050505050620009fd565b600033905090565b60008060009054906101000a900473ffffffffffffffffffffffffffffffffffffffff169050816000806101000a81548173ffffffffffffffffffffffffffffffffffffffff021916908373ffffffffffffffffffffffffffffffffffffffff1602179055508173ffffffffffffffffffffffffffffffffffffffff168173ffffffffffffffffffffffffffffffffffffffff167f8be0079c531659141344cd1fd0a4f28419497f9722a3daafe3b4186f6b6457e060405160405180910390a35050565b6000604051905090565b600080fd5b600080fd5b600073ffffffffffffffffffffffffffffffffffffffff82169050919050565b6000620003d182620003a4565b9050919050565b620003e381620003c4565b8114620003ef57600080fd5b50565b6000815190506200040381620003d8565b92915050565b600080fd5b6000601f19601f8301169050919050565b7f4e487b7100000000000000000000000000000000000000000000000000000000600052604160045260246000fd5b62000459826200040e565b810181811067ffffffffffffffff821117156200047b576200047a6200041f565b5b80604052505050565b60006200049062000390565b90506200049e82826200044e565b919050565b600067ffffffffffffffff821115620004c157620004c06200041f565b5b602082029050602081019050919050565b600080fd5b6000620004ee620004e884620004a3565b62000484565b90508083825260208201905060208402830185811115620005145762000513620004d2565b5b835b818110156200054157806200052c8882620003f2565b84526020840193505060208101905062000516565b5050509392505050565b600082601f83011262000563576200056262000409565b5b815162000575848260208601620004d7565b91505092915050565b6000819050919050565b62000593816200057e565b81146200059f57600080fd5b50565b600081519050620005b38162000588565b92915050565b600067ffffffffffffffff821115620005d757620005d66200041f565b5b602082029050602081019050919050565b6000620005ff620005f984620005b9565b62000484565b90508083825260208201905060208402830185811115620006255762000624620004d2565b5b835b818110156200065257806200063d8882620005a2565b84526020840193505060208101905062000627565b5050509392505050565b600082601f83011262000674576200067362000409565b5b815162000686848260208601620005e8565b91505092915050565b600080600080600060a08688031215620006ae57620006ad6200039a565b5b6000620006be88828901620003f2565b955050602086015167ffffffffffffffff811115620006e257620006e16200039f565b5b620006f0888289016200054b565b94505060406200070388828901620005a2565b935050606086015167ffffffffffffffff8111156200072757620007266200039f565b5b62000735888289016200065c565b92505060806200074888828901620005a2565b9150509295509295909350565b6000819050919050565b60007fffffffff0000000000000000000000000000000000000000000000000000000082169050919050565b60008160e01b9050919050565b6000620007b9620007b3620007ad8462000755565b6200078b565b6200075f565b9050919050565b620007cb8162000798565b82525050565b6000602082019050620007e86000830184620007c0565b92915050565b60008115159050919050565b6200080581620007ee565b81146200081157600080fd5b50565b6000815190506200082581620007fa565b92915050565b6000602082840312156200084457620008436200039a565b5b6000620008548482850162000814565b91505092915050565b600082825260208201905092915050565b7f4e6f6e2d65726337323100000000000000000000000000000000000000000000600082015250565b6000620008a6600a836200085d565b9150620008b3826200086e565b602082019050919050565b60006020820190508181036000830152620008d98162000897565b9050919050565b7f496e76616c6964206c6f636b20706572696f6400000000000000000000000000600082015250565b6000620009186013836200085d565b91506200092582620008e0565b602082019050919050565b600060208201905081810360008301526200094b8162000909565b9050919050565b7f4e487b7100000000000000000000000000000000000000000000000000000000600052603260045260246000fd5b7f4e487b7100000000000000000000000000000000000000000000000000000000600052601160045260246000fd5b6000620009bd826200057e565b91507fffffffffffffffffffffffffffffffffffffffffffffffffffffffffffffffff8203620009f257620009f162000981565b5b600182019050919050565b608051611eb362000a2e60003960008181610aaf01528181610ca801528181610eda0152610fe30152611eb36000f3fe608060405234801561001057600080fd5b50600436106100cf5760003560e01c8063779972da1161008c578063b48509e611610066578063b48509e6146101fe578063c69d19231461021c578063f2fde38b1461023a578063ff5d845014610256576100cf565b8063779972da146101a8578063849a1e1d146101c45780638da5cb5b146101e0576100cf565b806320281a98146100d457806330d10275146101045780633fd8b02f14610134578063422dc713146101525780635eac623914610182578063715018a61461019e575b600080fd5b6100ee60048036038101906100e9919061146a565b610272565b6040516100fb91906114a6565b60405180910390f35b61011e6004803603810190610119919061146a565b610292565b60405161012b9190611540565b60405180910390f35b61013c6102d1565b60405161014991906114a6565b60405180910390f35b61016c6004803603810190610167919061146a565b6102d7565b60405161017991906114a6565b60405180910390f35b61019c600480360381019061019791906115c0565b6102fb565b005b6101a66106d5565b005b6101c260048036038101906101bd919061146a565b6106e9565b005b6101de60048036038101906101d991906115c0565b610775565b005b6101e8610c7d565b6040516101f5919061162e565b60405180910390f35b610206610ca6565b604051610213919061166a565b60405180910390f35b610224610cca565b60405161023191906114a6565b60405180910390f35b610254600480360381019061024f91906116b1565b610cd0565b005b610270600480360381019061026b91906115c0565b610d53565b005b600060046000838152602001908152602001600020600201549050919050565b600281815481106102a257600080fd5b906000526020600020016000915054906101000a900473ffffffffffffffffffffffffffffffffffffffff1681565b60035481565b600681815481106102e757600080fd5b906000526020600020016000915090505481565b61031a3373ffffffffffffffffffffffffffffffffffffffff166111dd565b1561035a576040517f08c379a00000000000000000000000000000000000000000000000000000000081526004016103519061173b565b60405180910390fd5b3273ffffffffffffffffffffffffffffffffffffffff163373ffffffffffffffffffffffffffffffffffffffff16146103c8576040517f08c379a00000000000000000000000000000000000000000000000000000000081526004016103bf906117a7565b60405180910390fd5b6000828290501161040e576040517f08c379a000000000000000000000000000000000000000000000000000000000815260040161040590611813565b60405180910390fd5b600080600090505b8383905081101561067d5760006004600086868581811061043a57610439611833565b5b9050602002013581526020019081526020016000206040518060800160405290816000820160009054906101000a900473ffffffffffffffffffffffffffffffffffffffff1673ffffffffffffffffffffffffffffffffffffffff1673ffffffffffffffffffffffffffffffffffffffff16815260200160018201548152602001600282015481526020016003820160009054906101000a900460ff16151515158152505090503373ffffffffffffffffffffffffffffffffffffffff16816000015173ffffffffffffffffffffffffffffffffffffffff1614610553576040517f08c379a000000000000000000000000000000000000000000000000000000000815260040161054a906118ae565b60405180910390fd5b42600354826020015161056691906118fd565b106105a6576040517f08c379a000000000000000000000000000000000000000000000000000000000815260040161059d9061197d565b60405180910390fd5b8060600151156105eb576040517f08c379a00000000000000000000000000000000000000000000000000000000081526004016105e2906119e9565b60405180910390fd5b600061060f86868581811061060357610602611833565b5b90506020020135611200565b905060008260400151826106239190611a09565b9050808561063191906118fd565b9450816004600089898881811061064b5761064a611833565b5b90506020020135815260200190815260200160002060020181905550505050808061067590611a3d565b915050610416565b503373ffffffffffffffffffffffffffffffffffffffff167f37826be3c26dbad83731f4b985f22fa9ef86b6d1974cd77208332b7f1f283c0c8484846040516106c893929190611b00565b60405180910390a2505050565b6106dd6112e0565b6106e7600061135e565b565b6106f16112e0565b60008111610734576040517f08c379a000000000000000000000000000000000000000000000000000000000815260040161072b90611b7e565b60405180910390fd5b806003819055507f8249ec545e68f6f1e1230133ca48c704d831a7f8e635ded80f3dd9e99b09bb2f8160405161076a91906114a6565b60405180910390a150565b6107943373ffffffffffffffffffffffffffffffffffffffff166111dd565b156107d4576040517f08c379a00000000000000000000000000000000000000000000000000000000081526004016107cb9061173b565b60405180910390fd5b3273ffffffffffffffffffffffffffffffffffffffff163373ffffffffffffffffffffffffffffffffffffffff1614610842576040517f08c379a0000000000000000000000000000000000000000000000000000000008152600401610839906117a7565b60405180910390fd5b600260015403610887576040517f08c379a000000000000000000000000000000000000000000000000000000000815260040161087e90611bea565b60405180910390fd5b6002600181905550600082829050116108d5576040517f08c379a00000000000000000000000000000000000000000000000000000000081526004016108cc90611813565b60405180910390fd5b60005b82829050811015610c21576000600460008585858181106108fc576108fb611833565b5b9050602002013581526020019081526020016000206040518060800160405290816000820160009054906101000a900473ffffffffffffffffffffffffffffffffffffffff1673ffffffffffffffffffffffffffffffffffffffff1673ffffffffffffffffffffffffffffffffffffffff16815260200160018201548152602001600282015481526020016003820160009054906101000a900460ff16151515158152505090503373ffffffffffffffffffffffffffffffffffffffff16816000015173ffffffffffffffffffffffffffffffffffffffff1614610a15576040517f08c379a0000000000000000000000000000000000000000000000000000000008152600401610a0c906118ae565b60405180910390fd5b426003548260200151610a2891906118fd565b10610a68576040517f08c379a0000000000000000000000000000000000000000000000000000000008152600401610a5f90611c56565b60405180910390fd5b806060015115610aad576040517f08c379a0000000000000000000000000000000000000000000000000000000008152600401610aa4906119e9565b60405180910390fd5b7f000000000000000000000000000000000000000000000000000000000000000073ffffffffffffffffffffffffffffffffffffffff166323b872dd3033878787818110610afe57610afd611833565b5b905060200201356040518463ffffffff1660e01b8152600401610b2393929190611c76565b600060405180830381600087803b158015610b3d57600080fd5b505af1158015610b51573d6000803e3d6000fd5b505050506000610b79858585818110610b6d57610b6c611833565b5b90506020020135611200565b90506000826040015182610b8d9190611a09565b90508160046000888888818110610ba757610ba6611833565b5b90506020020135815260200190815260200160002060020181905550600160046000888888818110610bdc57610bdb611833565b5b90506020020135815260200190815260200160002060030160006101000a81548160ff0219169083151502179055505050508080610c1990611a3d565b9150506108d8565b503373ffffffffffffffffffffffffffffffffffffffff167f5cb48022479b9ac3bfb10a27965dc010acffc9fc1bc9a52f0b18975b944b54ca8383604051610c6a929190611cad565b60405180910390a2600180819055505050565b60008060009054906101000a900473ffffffffffffffffffffffffffffffffffffffff16905090565b7f000000000000000000000000000000000000000000000000000000000000000081565b60055481565b610cd86112e0565b600073ffffffffffffffffffffffffffffffffffffffff168173ffffffffffffffffffffffffffffffffffffffff1603610d47576040517f08c379a0000000000000000000000000000000000000000000000000000000008152600401610d3e90611d43565b60405180910390fd5b610d508161135e565b50565b610d723373ffffffffffffffffffffffffffffffffffffffff166111dd565b15610db2576040517f08c379a0000000000000000000000000000000000000000000000000000000008152600401610da99061173b565b60405180910390fd5b3273ffffffffffffffffffffffffffffffffffffffff163373ffffffffffffffffffffffffffffffffffffffff1614610e20576040517f08c379a0000000000000000000000000000000000000000000000000000000008152600401610e17906117a7565b60405180910390fd5b600260015403610e65576040517f08c379a0000000000000000000000000000000000000000000000000000000008152600401610e5c90611bea565b60405180910390fd5b600260018190555060008282905011610eb3576040517f08c379a0000000000000000000000000000000000000000000000000000000008152600401610eaa90611813565b60405180910390fd5b60005b82829050811015611181573373ffffffffffffffffffffffffffffffffffffffff167f000000000000000000000000000000000000000000000000000000000000000073ffffffffffffffffffffffffffffffffffffffff16636352211e858585818110610f2757610f26611833565b5b905060200201356040518263ffffffff1660e01b8152600401610f4a91906114a6565b602060405180830381865afa158015610f67573d6000803e3d6000fd5b505050506040513d601f19601f82011682018060405250810190610f8b9190611d78565b73ffffffffffffffffffffffffffffffffffffffff1614610fe1576040517f08c379a0000000000000000000000000000000000000000000000000000000008152600401610fd890611df1565b60405180910390fd5b7f000000000000000000000000000000000000000000000000000000000000000073ffffffffffffffffffffffffffffffffffffffff166323b872dd333086868681811061103257611031611833565b5b905060200201356040518463ffffffff1660e01b815260040161105793929190611c76565b600060405180830381600087803b15801561107157600080fd5b505af1158015611085573d6000803e3d6000fd5b5050505060405180608001604052803373ffffffffffffffffffffffffffffffffffffffff1681526020014281526020016000815260200160001515815250600460008585858181106110db576110da611833565b5b90506020020135815260200190815260200160002060008201518160000160006101000a81548173ffffffffffffffffffffffffffffffffffffffff021916908373ffffffffffffffffffffffffffffffffffffffff160217905550602082015181600101556040820151816002015560608201518160030160006101000a81548160ff021916908315150217905550905050808061117990611a3d565b915050610eb6565b503373ffffffffffffffffffffffffffffffffffffffff167f458be0227bccc9e803dec79bd16767eeaf9925d2ce708eeed7ae1f3621f968f983836040516111ca929190611cad565b60405180910390a2600180819055505050565b6000808273ffffffffffffffffffffffffffffffffffffffff163b119050919050565b600080600460008481526020019081526020016000206040518060800160405290816000820160009054906101000a900473ffffffffffffffffffffffffffffffffffffffff1673ffffffffffffffffffffffffffffffffffffffff1673ffffffffffffffffffffffffffffffffffffffff16815260200160018201548152602001600282015481526020016003820160009054906101000a900460ff161515151581525050905060008160200151426112ba9190611a09565b905060006003548210156112d457600093505050506112db565b8093505050505b919050565b6112e8611422565b73ffffffffffffffffffffffffffffffffffffffff16611306610c7d565b73ffffffffffffffffffffffffffffffffffffffff161461135c576040517f08c379a000000000000000000000000000000000000000000000000000000000815260040161135390611e5d565b60405180910390fd5b565b60008060009054906101000a900473ffffffffffffffffffffffffffffffffffffffff169050816000806101000a81548173ffffffffffffffffffffffffffffffffffffffff021916908373ffffffffffffffffffffffffffffffffffffffff1602179055508173ffffffffffffffffffffffffffffffffffffffff168173ffffffffffffffffffffffffffffffffffffffff167f8be0079c531659141344cd1fd0a4f28419497f9722a3daafe3b4186f6b6457e060405160405180910390a35050565b600033905090565b600080fd5b600080fd5b6000819050919050565b61144781611434565b811461145257600080fd5b50565b6000813590506114648161143e565b92915050565b6000602082840312156114805761147f61142a565b5b600061148e84828501611455565b91505092915050565b6114a081611434565b82525050565b60006020820190506114bb6000830184611497565b92915050565b600073ffffffffffffffffffffffffffffffffffffffff82169050919050565b6000819050919050565b60006115066115016114fc846114c1565b6114e1565b6114c1565b9050919050565b6000611518826114eb565b9050919050565b600061152a8261150d565b9050919050565b61153a8161151f565b82525050565b60006020820190506115556000830184611531565b92915050565b600080fd5b600080fd5b600080fd5b60008083601f8401126115805761157f61155b565b5b8235905067ffffffffffffffff81111561159d5761159c611560565b5b6020830191508360208202830111156115b9576115b8611565565b5b9250929050565b600080602083850312156115d7576115d661142a565b5b600083013567ffffffffffffffff8111156115f5576115f461142f565b5b6116018582860161156a565b92509250509250929050565b6000611618826114c1565b9050919050565b6116288161160d565b82525050565b6000602082019050611643600083018461161f565b92915050565b60006116548261150d565b9050919050565b61166481611649565b82525050565b600060208201905061167f600083018461165b565b92915050565b61168e8161160d565b811461169957600080fd5b50565b6000813590506116ab81611685565b92915050565b6000602082840312156116c7576116c661142a565b5b60006116d58482850161169c565b91505092915050565b600082825260208201905092915050565b7f436f6e7472616374206e6f7420616c6c6f776564000000000000000000000000600082015250565b60006117256014836116de565b9150611730826116ef565b602082019050919050565b6000602082019050818103600083015261175481611718565b9050919050565b7f50726f787920636f6e7472616374206e6f7420616c6c6f776564000000000000600082015250565b6000611791601a836116de565b915061179c8261175b565b602082019050919050565b600060208201905081810360008301526117c081611784565b9050919050565b7f4e6f20746f6b656e730000000000000000000000000000000000000000000000600082015250565b60006117fd6009836116de565b9150611808826117c7565b602082019050919050565b6000602082019050818103600083015261182c816117f0565b9050919050565b7f4e487b7100000000000000000000000000000000000000000000000000000000600052603260045260246000fd5b7f4e6f74206120746f6b656e206f776e6572000000000000000000000000000000600082015250565b60006118986011836116de565b91506118a382611862565b602082019050919050565b600060208201905081810360008301526118c78161188b565b9050919050565b7f4e487b7100000000000000000000000000000000000000000000000000000000600052601160045260246000fd5b600061190882611434565b915061191383611434565b925082820190508082111561192b5761192a6118ce565b5b92915050565b7f4e6f742061626c6520746f20636c61696d207965740000000000000000000000600082015250565b60006119676015836116de565b915061197282611931565b602082019050919050565b600060208201905081810360008301526119968161195a565b9050919050565b7f416c726561647920756e6c6f636b656400000000000000000000000000000000600082015250565b60006119d36010836116de565b91506119de8261199d565b602082019050919050565b60006020820190508181036000830152611a02816119c6565b9050919050565b6000611a1482611434565b9150611a1f83611434565b9250828203905081811115611a3757611a366118ce565b5b92915050565b6000611a4882611434565b91507fffffffffffffffffffffffffffffffffffffffffffffffffffffffffffffffff8203611a7a57611a796118ce565b5b600182019050919050565b600082825260208201905092915050565b600080fd5b82818337505050565b6000611ab08385611a85565b93507f07ffffffffffffffffffffffffffffffffffffffffffffffffffffffffffffff831115611ae357611ae2611a96565b5b602083029250611af4838584611a9b565b82840190509392505050565b60006040820190508181036000830152611b1b818587611aa4565b9050611b2a6020830184611497565b949350505050565b7f496e76616c6964206c6f636b20706572696f642e000000000000000000000000600082015250565b6000611b686014836116de565b9150611b7382611b32565b602082019050919050565b60006020820190508181036000830152611b9781611b5b565b9050919050565b7f5265656e7472616e637947756172643a207265656e7472616e742063616c6c00600082015250565b6000611bd4601f836116de565b9150611bdf82611b9e565b602082019050919050565b60006020820190508181036000830152611c0381611bc7565b9050919050565b7f4e6f742061626c6520746f20756e6c6f636b2079657400000000000000000000600082015250565b6000611c406016836116de565b9150611c4b82611c0a565b602082019050919050565b60006020820190508181036000830152611c6f81611c33565b9050919050565b6000606082019050611c8b600083018661161f565b611c98602083018561161f565b611ca56040830184611497565b949350505050565b60006020820190508181036000830152611cc8818486611aa4565b90509392505050565b7f4f776e61626c653a206e6577206f776e657220697320746865207a65726f206160008201527f6464726573730000000000000000000000000000000000000000000000000000602082015250565b6000611d2d6026836116de565b9150611d3882611cd1565b604082019050919050565b60006020820190508181036000830152611d5c81611d20565b9050919050565b600081519050611d7281611685565b92915050565b600060208284031215611d8e57611d8d61142a565b5b6000611d9c84828501611d63565b91505092915050565b7f596f7520646f6e277420686f6c64207468697320746f6b656e00000000000000600082015250565b6000611ddb6019836116de565b9150611de682611da5565b602082019050919050565b60006020820190508181036000830152611e0a81611dce565b9050919050565b7f4f776e61626c653a2063616c6c6572206973206e6f7420746865206f776e6572600082015250565b6000611e476020836116de565b9150611e5282611e11565b602082019050919050565b60006020820190508181036000830152611e7681611e3a565b905091905056fea2646970667358221220bd48315dd34530daa081bcc85451a561ab5ac6526dc5818ef27761ecac2c70bc64736f6c63430008100033",
					"opcodes": "PUSH1 0xA0 PUSH1 0x40 MSTORE CALLVALUE DUP1 ISZERO PUSH3 0x11 JUMPI PUSH1 0x0 DUP1 REVERT JUMPDEST POP PUSH1 0x40 MLOAD PUSH3 0x28E1 CODESIZE SUB DUP1 PUSH3 0x28E1 DUP4 CODECOPY DUP2 DUP2 ADD PUSH1 0x40 MSTORE DUP2 ADD SWAP1 PUSH3 0x37 SWAP2 SWAP1 PUSH3 0x68F JUMP JUMPDEST PUSH3 0x57 PUSH3 0x4B PUSH3 0x2C4 PUSH1 0x20 SHL PUSH1 0x20 SHR JUMP JUMPDEST PUSH3 0x2CC PUSH1 0x20 SHL PUSH1 0x20 SHR JUMP JUMPDEST PUSH1 0x1 DUP1 DUP2 SWAP1 SSTORE POP DUP5 PUSH20 0xFFFFFFFFFFFFFFFFFFFFFFFFFFFFFFFFFFFFFFFF AND PUSH4 0x1FFC9A7 PUSH4 0x80AC58CD PUSH1 0x40 MLOAD DUP3 PUSH4 0xFFFFFFFF AND PUSH1 0xE0 SHL DUP2 MSTORE PUSH1 0x4 ADD PUSH3 0x9D SWAP2 SWAP1 PUSH3 0x7D1 JUMP JUMPDEST PUSH1 0x20 PUSH1 0x40 MLOAD DUP1 DUP4 SUB DUP2 DUP7 GAS STATICCALL ISZERO DUP1 ISZERO PUSH3 0xBB JUMPI RETURNDATASIZE PUSH1 0x0 DUP1 RETURNDATACOPY RETURNDATASIZE PUSH1 0x0 REVERT JUMPDEST POP POP POP POP PUSH1 0x40 MLOAD RETURNDATASIZE PUSH1 0x1F NOT PUSH1 0x1F DUP3 ADD AND DUP3 ADD DUP1 PUSH1 0x40 MSTORE POP DUP2 ADD SWAP1 PUSH3 0xE1 SWAP2 SWAP1 PUSH3 0x82B JUMP JUMPDEST PUSH3 0x123 JUMPI PUSH1 0x40 MLOAD PUSH32 0x8C379A000000000000000000000000000000000000000000000000000000000 DUP2 MSTORE PUSH1 0x4 ADD PUSH3 0x11A SWAP1 PUSH3 0x8BE JUMP JUMPDEST PUSH1 0x40 MLOAD DUP1 SWAP2 SUB SWAP1 REVERT JUMPDEST PUSH1 0x0 DUP4 GT PUSH3 0x169 JUMPI PUSH1 0x40 MLOAD PUSH32 0x8C379A000000000000000000000000000000000000000000000000000000000 DUP2 MSTORE PUSH1 0x4 ADD PUSH3 0x160 SWAP1 PUSH3 0x930 JUMP JUMPDEST PUSH1 0x40 MLOAD DUP1 SWAP2 SUB SWAP1 REVERT JUMPDEST PUSH1 0x0 JUMPDEST DUP5 MLOAD DUP2 LT ISZERO PUSH3 0x20C JUMPI PUSH1 0x2 DUP6 DUP3 DUP2 MLOAD DUP2 LT PUSH3 0x18E JUMPI PUSH3 0x18D PUSH3 0x952 JUMP JUMPDEST JUMPDEST PUSH1 0x20 MUL PUSH1 0x20 ADD ADD MLOAD SWAP1 DUP1 PUSH1 0x1 DUP2 SLOAD ADD DUP1 DUP3 SSTORE DUP1 SWAP2 POP POP PUSH1 0x1 SWAP1 SUB SWAP1 PUSH1 0x0 MSTORE PUSH1 0x20 PUSH1 0x0 KECCAK256 ADD PUSH1 0x0 SWAP1 SWAP2 SWAP1 SWAP2 SWAP1 SWAP2 PUSH2 0x100 EXP DUP2 SLOAD DUP2 PUSH20 0xFFFFFFFFFFFFFFFFFFFFFFFFFFFFFFFFFFFFFFFF MUL NOT AND SWAP1 DUP4 PUSH20 0xFFFFFFFFFFFFFFFFFFFFFFFFFFFFFFFFFFFFFFFF AND MUL OR SWAP1 SSTORE POP DUP1 DUP1 PUSH3 0x203 SWAP1 PUSH3 0x9B0 JUMP JUMPDEST SWAP2 POP POP PUSH3 0x16C JUMP JUMPDEST POP PUSH1 0x0 JUMPDEST DUP5 MLOAD DUP2 LT ISZERO PUSH3 0x276 JUMPI PUSH1 0x6 DUP4 DUP3 DUP2 MLOAD DUP2 LT PUSH3 0x232 JUMPI PUSH3 0x231 PUSH3 0x952 JUMP JUMPDEST JUMPDEST PUSH1 0x20 MUL PUSH1 0x20 ADD ADD MLOAD SWAP1 DUP1 PUSH1 0x1 DUP2 SLOAD ADD DUP1 DUP3 SSTORE DUP1 SWAP2 POP POP PUSH1 0x1 SWAP1 SUB SWAP1 PUSH1 0x0 MSTORE PUSH1 0x20 PUSH1 0x0 KECCAK256 ADD PUSH1 0x0 SWAP1 SWAP2 SWAP1 SWAP2 SWAP1 SWAP2 POP SSTORE DUP1 DUP1 PUSH3 0x26D SWAP1 PUSH3 0x9B0 JUMP JUMPDEST SWAP2 POP POP PUSH3 0x210 JUMP JUMPDEST POP DUP5 PUSH20 0xFFFFFFFFFFFFFFFFFFFFFFFFFFFFFFFFFFFFFFFF AND PUSH1 0x80 DUP2 PUSH20 0xFFFFFFFFFFFFFFFFFFFFFFFFFFFFFFFFFFFFFFFF AND DUP2 MSTORE POP POP DUP3 PUSH1 0x3 DUP2 SWAP1 SSTORE POP DUP1 PUSH1 0x5 DUP2 SWAP1 SSTORE POP POP POP POP POP POP PUSH3 0x9FD JUMP JUMPDEST PUSH1 0x0 CALLER SWAP1 POP SWAP1 JUMP JUMPDEST PUSH1 0x0 DUP1 PUSH1 0x0 SWAP1 SLOAD SWAP1 PUSH2 0x100 EXP SWAP1 DIV PUSH20 0xFFFFFFFFFFFFFFFFFFFFFFFFFFFFFFFFFFFFFFFF AND SWAP1 POP DUP2 PUSH1 0x0 DUP1 PUSH2 0x100 EXP DUP2 SLOAD DUP2 PUSH20 0xFFFFFFFFFFFFFFFFFFFFFFFFFFFFFFFFFFFFFFFF MUL NOT AND SWAP1 DUP4 PUSH20 0xFFFFFFFFFFFFFFFFFFFFFFFFFFFFFFFFFFFFFFFF AND MUL OR SWAP1 SSTORE POP DUP2 PUSH20 0xFFFFFFFFFFFFFFFFFFFFFFFFFFFFFFFFFFFFFFFF AND DUP2 PUSH20 0xFFFFFFFFFFFFFFFFFFFFFFFFFFFFFFFFFFFFFFFF AND PUSH32 0x8BE0079C531659141344CD1FD0A4F28419497F9722A3DAAFE3B4186F6B6457E0 PUSH1 0x40 MLOAD PUSH1 0x40 MLOAD DUP1 SWAP2 SUB SWAP1 LOG3 POP POP JUMP JUMPDEST PUSH1 0x0 PUSH1 0x40 MLOAD SWAP1 POP SWAP1 JUMP JUMPDEST PUSH1 0x0 DUP1 REVERT JUMPDEST PUSH1 0x0 DUP1 REVERT JUMPDEST PUSH1 0x0 PUSH20 0xFFFFFFFFFFFFFFFFFFFFFFFFFFFFFFFFFFFFFFFF DUP3 AND SWAP1 POP SWAP2 SWAP1 POP JUMP JUMPDEST PUSH1 0x0 PUSH3 0x3D1 DUP3 PUSH3 0x3A4 JUMP JUMPDEST SWAP1 POP SWAP2 SWAP1 POP JUMP JUMPDEST PUSH3 0x3E3 DUP2 PUSH3 0x3C4 JUMP JUMPDEST DUP2 EQ PUSH3 0x3EF JUMPI PUSH1 0x0 DUP1 REVERT JUMPDEST POP JUMP JUMPDEST PUSH1 0x0 DUP2 MLOAD SWAP1 POP PUSH3 0x403 DUP2 PUSH3 0x3D8 JUMP JUMPDEST SWAP3 SWAP2 POP POP JUMP JUMPDEST PUSH1 0x0 DUP1 REVERT JUMPDEST PUSH1 0x0 PUSH1 0x1F NOT PUSH1 0x1F DUP4 ADD AND SWAP1 POP SWAP2 SWAP1 POP JUMP JUMPDEST PUSH32 0x4E487B7100000000000000000000000000000000000000000000000000000000 PUSH1 0x0 MSTORE PUSH1 0x41 PUSH1 0x4 MSTORE PUSH1 0x24 PUSH1 0x0 REVERT JUMPDEST PUSH3 0x459 DUP3 PUSH3 0x40E JUMP JUMPDEST DUP2 ADD DUP2 DUP2 LT PUSH8 0xFFFFFFFFFFFFFFFF DUP3 GT OR ISZERO PUSH3 0x47B JUMPI PUSH3 0x47A PUSH3 0x41F JUMP JUMPDEST JUMPDEST DUP1 PUSH1 0x40 MSTORE POP POP POP JUMP JUMPDEST PUSH1 0x0 PUSH3 0x490 PUSH3 0x390 JUMP JUMPDEST SWAP1 POP PUSH3 0x49E DUP3 DUP3 PUSH3 0x44E JUMP JUMPDEST SWAP2 SWAP1 POP JUMP JUMPDEST PUSH1 0x0 PUSH8 0xFFFFFFFFFFFFFFFF DUP3 GT ISZERO PUSH3 0x4C1 JUMPI PUSH3 0x4C0 PUSH3 0x41F JUMP JUMPDEST JUMPDEST PUSH1 0x20 DUP3 MUL SWAP1 POP PUSH1 0x20 DUP2 ADD SWAP1 POP SWAP2 SWAP1 POP JUMP JUMPDEST PUSH1 0x0 DUP1 REVERT JUMPDEST PUSH1 0x0 PUSH3 0x4EE PUSH3 0x4E8 DUP5 PUSH3 0x4A3 JUMP JUMPDEST PUSH3 0x484 JUMP JUMPDEST SWAP1 POP DUP1 DUP4 DUP3 MSTORE PUSH1 0x20 DUP3 ADD SWAP1 POP PUSH1 0x20 DUP5 MUL DUP4 ADD DUP6 DUP2 GT ISZERO PUSH3 0x514 JUMPI PUSH3 0x513 PUSH3 0x4D2 JUMP JUMPDEST JUMPDEST DUP4 JUMPDEST DUP2 DUP2 LT ISZERO PUSH3 0x541 JUMPI DUP1 PUSH3 0x52C DUP9 DUP3 PUSH3 0x3F2 JUMP JUMPDEST DUP5 MSTORE PUSH1 0x20 DUP5 ADD SWAP4 POP POP PUSH1 0x20 DUP2 ADD SWAP1 POP PUSH3 0x516 JUMP JUMPDEST POP POP POP SWAP4 SWAP3 POP POP POP JUMP JUMPDEST PUSH1 0x0 DUP3 PUSH1 0x1F DUP4 ADD SLT PUSH3 0x563 JUMPI PUSH3 0x562 PUSH3 0x409 JUMP JUMPDEST JUMPDEST DUP2 MLOAD PUSH3 0x575 DUP5 DUP3 PUSH1 0x20 DUP7 ADD PUSH3 0x4D7 JUMP JUMPDEST SWAP2 POP POP SWAP3 SWAP2 POP POP JUMP JUMPDEST PUSH1 0x0 DUP2 SWAP1 POP SWAP2 SWAP1 POP JUMP JUMPDEST PUSH3 0x593 DUP2 PUSH3 0x57E JUMP JUMPDEST DUP2 EQ PUSH3 0x59F JUMPI PUSH1 0x0 DUP1 REVERT JUMPDEST POP JUMP JUMPDEST PUSH1 0x0 DUP2 MLOAD SWAP1 POP PUSH3 0x5B3 DUP2 PUSH3 0x588 JUMP JUMPDEST SWAP3 SWAP2 POP POP JUMP JUMPDEST PUSH1 0x0 PUSH8 0xFFFFFFFFFFFFFFFF DUP3 GT ISZERO PUSH3 0x5D7 JUMPI PUSH3 0x5D6 PUSH3 0x41F JUMP JUMPDEST JUMPDEST PUSH1 0x20 DUP3 MUL SWAP1 POP PUSH1 0x20 DUP2 ADD SWAP1 POP SWAP2 SWAP1 POP JUMP JUMPDEST PUSH1 0x0 PUSH3 0x5FF PUSH3 0x5F9 DUP5 PUSH3 0x5B9 JUMP JUMPDEST PUSH3 0x484 JUMP JUMPDEST SWAP1 POP DUP1 DUP4 DUP3 MSTORE PUSH1 0x20 DUP3 ADD SWAP1 POP PUSH1 0x20 DUP5 MUL DUP4 ADD DUP6 DUP2 GT ISZERO PUSH3 0x625 JUMPI PUSH3 0x624 PUSH3 0x4D2 JUMP JUMPDEST JUMPDEST DUP4 JUMPDEST DUP2 DUP2 LT ISZERO PUSH3 0x652 JUMPI DUP1 PUSH3 0x63D DUP9 DUP3 PUSH3 0x5A2 JUMP JUMPDEST DUP5 MSTORE PUSH1 0x20 DUP5 ADD SWAP4 POP POP PUSH1 0x20 DUP2 ADD SWAP1 POP PUSH3 0x627 JUMP JUMPDEST POP POP POP SWAP4 SWAP3 POP POP POP JUMP JUMPDEST PUSH1 0x0 DUP3 PUSH1 0x1F DUP4 ADD SLT PUSH3 0x674 JUMPI PUSH3 0x673 PUSH3 0x409 JUMP JUMPDEST JUMPDEST DUP2 MLOAD PUSH3 0x686 DUP5 DUP3 PUSH1 0x20 DUP7 ADD PUSH3 0x5E8 JUMP JUMPDEST SWAP2 POP POP SWAP3 SWAP2 POP POP JUMP JUMPDEST PUSH1 0x0 DUP1 PUSH1 0x0 DUP1 PUSH1 0x0 PUSH1 0xA0 DUP7 DUP9 SUB SLT ISZERO PUSH3 0x6AE JUMPI PUSH3 0x6AD PUSH3 0x39A JUMP JUMPDEST JUMPDEST PUSH1 0x0 PUSH3 0x6BE DUP9 DUP3 DUP10 ADD PUSH3 0x3F2 JUMP JUMPDEST SWAP6 POP POP PUSH1 0x20 DUP7 ADD MLOAD PUSH8 0xFFFFFFFFFFFFFFFF DUP2 GT ISZERO PUSH3 0x6E2 JUMPI PUSH3 0x6E1 PUSH3 0x39F JUMP JUMPDEST JUMPDEST PUSH3 0x6F0 DUP9 DUP3 DUP10 ADD PUSH3 0x54B JUMP JUMPDEST SWAP5 POP POP PUSH1 0x40 PUSH3 0x703 DUP9 DUP3 DUP10 ADD PUSH3 0x5A2 JUMP JUMPDEST SWAP4 POP POP PUSH1 0x60 DUP7 ADD MLOAD PUSH8 0xFFFFFFFFFFFFFFFF DUP2 GT ISZERO PUSH3 0x727 JUMPI PUSH3 0x726 PUSH3 0x39F JUMP JUMPDEST JUMPDEST PUSH3 0x735 DUP9 DUP3 DUP10 ADD PUSH3 0x65C JUMP JUMPDEST SWAP3 POP POP PUSH1 0x80 PUSH3 0x748 DUP9 DUP3 DUP10 ADD PUSH3 0x5A2 JUMP JUMPDEST SWAP2 POP POP SWAP3 SWAP6 POP SWAP3 SWAP6 SWAP1 SWAP4 POP JUMP JUMPDEST PUSH1 0x0 DUP2 SWAP1 POP SWAP2 SWAP1 POP JUMP JUMPDEST PUSH1 0x0 PUSH32 0xFFFFFFFF00000000000000000000000000000000000000000000000000000000 DUP3 AND SWAP1 POP SWAP2 SWAP1 POP JUMP JUMPDEST PUSH1 0x0 DUP2 PUSH1 0xE0 SHL SWAP1 POP SWAP2 SWAP1 POP JUMP JUMPDEST PUSH1 0x0 PUSH3 0x7B9 PUSH3 0x7B3 PUSH3 0x7AD DUP5 PUSH3 0x755 JUMP JUMPDEST PUSH3 0x78B JUMP JUMPDEST PUSH3 0x75F JUMP JUMPDEST SWAP1 POP SWAP2 SWAP1 POP JUMP JUMPDEST PUSH3 0x7CB DUP2 PUSH3 0x798 JUMP JUMPDEST DUP3 MSTORE POP POP JUMP JUMPDEST PUSH1 0x0 PUSH1 0x20 DUP3 ADD SWAP1 POP PUSH3 0x7E8 PUSH1 0x0 DUP4 ADD DUP5 PUSH3 0x7C0 JUMP JUMPDEST SWAP3 SWAP2 POP POP JUMP JUMPDEST PUSH1 0x0 DUP2 ISZERO ISZERO SWAP1 POP SWAP2 SWAP1 POP JUMP JUMPDEST PUSH3 0x805 DUP2 PUSH3 0x7EE JUMP JUMPDEST DUP2 EQ PUSH3 0x811 JUMPI PUSH1 0x0 DUP1 REVERT JUMPDEST POP JUMP JUMPDEST PUSH1 0x0 DUP2 MLOAD SWAP1 POP PUSH3 0x825 DUP2 PUSH3 0x7FA JUMP JUMPDEST SWAP3 SWAP2 POP POP JUMP JUMPDEST PUSH1 0x0 PUSH1 0x20 DUP3 DUP5 SUB SLT ISZERO PUSH3 0x844 JUMPI PUSH3 0x843 PUSH3 0x39A JUMP JUMPDEST JUMPDEST PUSH1 0x0 PUSH3 0x854 DUP5 DUP3 DUP6 ADD PUSH3 0x814 JUMP JUMPDEST SWAP2 POP POP SWAP3 SWAP2 POP POP JUMP JUMPDEST PUSH1 0x0 DUP3 DUP3 MSTORE PUSH1 0x20 DUP3 ADD SWAP1 POP SWAP3 SWAP2 POP POP JUMP JUMPDEST PUSH32 0x4E6F6E2D65726337323100000000000000000000000000000000000000000000 PUSH1 0x0 DUP3 ADD MSTORE POP JUMP JUMPDEST PUSH1 0x0 PUSH3 0x8A6 PUSH1 0xA DUP4 PUSH3 0x85D JUMP JUMPDEST SWAP2 POP PUSH3 0x8B3 DUP3 PUSH3 0x86E JUMP JUMPDEST PUSH1 0x20 DUP3 ADD SWAP1 POP SWAP2 SWAP1 POP JUMP JUMPDEST PUSH1 0x0 PUSH1 0x20 DUP3 ADD SWAP1 POP DUP2 DUP2 SUB PUSH1 0x0 DUP4 ADD MSTORE PUSH3 0x8D9 DUP2 PUSH3 0x897 JUMP JUMPDEST SWAP1 POP SWAP2 SWAP1 POP JUMP JUMPDEST PUSH32 0x496E76616C6964206C6F636B20706572696F6400000000000000000000000000 PUSH1 0x0 DUP3 ADD MSTORE POP JUMP JUMPDEST PUSH1 0x0 PUSH3 0x918 PUSH1 0x13 DUP4 PUSH3 0x85D JUMP JUMPDEST SWAP2 POP PUSH3 0x925 DUP3 PUSH3 0x8E0 JUMP JUMPDEST PUSH1 0x20 DUP3 ADD SWAP1 POP SWAP2 SWAP1 POP JUMP JUMPDEST PUSH1 0x0 PUSH1 0x20 DUP3 ADD SWAP1 POP DUP2 DUP2 SUB PUSH1 0x0 DUP4 ADD MSTORE PUSH3 0x94B DUP2 PUSH3 0x909 JUMP JUMPDEST SWAP1 POP SWAP2 SWAP1 POP JUMP JUMPDEST PUSH32 0x4E487B7100000000000000000000000000000000000000000000000000000000 PUSH1 0x0 MSTORE PUSH1 0x32 PUSH1 0x4 MSTORE PUSH1 0x24 PUSH1 0x0 REVERT JUMPDEST PUSH32 0x4E487B7100000000000000000000000000000000000000000000000000000000 PUSH1 0x0 MSTORE PUSH1 0x11 PUSH1 0x4 MSTORE PUSH1 0x24 PUSH1 0x0 REVERT JUMPDEST PUSH1 0x0 PUSH3 0x9BD DUP3 PUSH3 0x57E JUMP JUMPDEST SWAP2 POP PUSH32 0xFFFFFFFFFFFFFFFFFFFFFFFFFFFFFFFFFFFFFFFFFFFFFFFFFFFFFFFFFFFFFFFF DUP3 SUB PUSH3 0x9F2 JUMPI PUSH3 0x9F1 PUSH3 0x981 JUMP JUMPDEST JUMPDEST PUSH1 0x1 DUP3 ADD SWAP1 POP SWAP2 SWAP1 POP JUMP JUMPDEST PUSH1 0x80 MLOAD PUSH2 0x1EB3 PUSH3 0xA2E PUSH1 0x0 CODECOPY PUSH1 0x0 DUP2 DUP2 PUSH2 0xAAF ADD MSTORE DUP2 DUP2 PUSH2 0xCA8 ADD MSTORE DUP2 DUP2 PUSH2 0xEDA ADD MSTORE PUSH2 0xFE3 ADD MSTORE PUSH2 0x1EB3 PUSH1 0x0 RETURN INVALID PUSH1 0x80 PUSH1 0x40 MSTORE CALLVALUE DUP1 ISZERO PUSH2 0x10 JUMPI PUSH1 0x0 DUP1 REVERT JUMPDEST POP PUSH1 0x4 CALLDATASIZE LT PUSH2 0xCF JUMPI PUSH1 0x0 CALLDATALOAD PUSH1 0xE0 SHR DUP1 PUSH4 0x779972DA GT PUSH2 0x8C JUMPI DUP1 PUSH4 0xB48509E6 GT PUSH2 0x66 JUMPI DUP1 PUSH4 0xB48509E6 EQ PUSH2 0x1FE JUMPI DUP1 PUSH4 0xC69D1923 EQ PUSH2 0x21C JUMPI DUP1 PUSH4 0xF2FDE38B EQ PUSH2 0x23A JUMPI DUP1 PUSH4 0xFF5D8450 EQ PUSH2 0x256 JUMPI PUSH2 0xCF JUMP JUMPDEST DUP1 PUSH4 0x779972DA EQ PUSH2 0x1A8 JUMPI DUP1 PUSH4 0x849A1E1D EQ PUSH2 0x1C4 JUMPI DUP1 PUSH4 0x8DA5CB5B EQ PUSH2 0x1E0 JUMPI PUSH2 0xCF JUMP JUMPDEST DUP1 PUSH4 0x20281A98 EQ PUSH2 0xD4 JUMPI DUP1 PUSH4 0x30D10275 EQ PUSH2 0x104 JUMPI DUP1 PUSH4 0x3FD8B02F EQ PUSH2 0x134 JUMPI DUP1 PUSH4 0x422DC713 EQ PUSH2 0x152 JUMPI DUP1 PUSH4 0x5EAC6239 EQ PUSH2 0x182 JUMPI DUP1 PUSH4 0x715018A6 EQ PUSH2 0x19E JUMPI JUMPDEST PUSH1 0x0 DUP1 REVERT JUMPDEST PUSH2 0xEE PUSH1 0x4 DUP1 CALLDATASIZE SUB DUP2 ADD SWAP1 PUSH2 0xE9 SWAP2 SWAP1 PUSH2 0x146A JUMP JUMPDEST PUSH2 0x272 JUMP JUMPDEST PUSH1 0x40 MLOAD PUSH2 0xFB SWAP2 SWAP1 PUSH2 0x14A6 JUMP JUMPDEST PUSH1 0x40 MLOAD DUP1 SWAP2 SUB SWAP1 RETURN JUMPDEST PUSH2 0x11E PUSH1 0x4 DUP1 CALLDATASIZE SUB DUP2 ADD SWAP1 PUSH2 0x119 SWAP2 SWAP1 PUSH2 0x146A JUMP JUMPDEST PUSH2 0x292 JUMP JUMPDEST PUSH1 0x40 MLOAD PUSH2 0x12B SWAP2 SWAP1 PUSH2 0x1540 JUMP JUMPDEST PUSH1 0x40 MLOAD DUP1 SWAP2 SUB SWAP1 RETURN JUMPDEST PUSH2 0x13C PUSH2 0x2D1 JUMP JUMPDEST PUSH1 0x40 MLOAD PUSH2 0x149 SWAP2 SWAP1 PUSH2 0x14A6 JUMP JUMPDEST PUSH1 0x40 MLOAD DUP1 SWAP2 SUB SWAP1 RETURN JUMPDEST PUSH2 0x16C PUSH1 0x4 DUP1 CALLDATASIZE SUB DUP2 ADD SWAP1 PUSH2 0x167 SWAP2 SWAP1 PUSH2 0x146A JUMP JUMPDEST PUSH2 0x2D7 JUMP JUMPDEST PUSH1 0x40 MLOAD PUSH2 0x179 SWAP2 SWAP1 PUSH2 0x14A6 JUMP JUMPDEST PUSH1 0x40 MLOAD DUP1 SWAP2 SUB SWAP1 RETURN JUMPDEST PUSH2 0x19C PUSH1 0x4 DUP1 CALLDATASIZE SUB DUP2 ADD SWAP1 PUSH2 0x197 SWAP2 SWAP1 PUSH2 0x15C0 JUMP JUMPDEST PUSH2 0x2FB JUMP JUMPDEST STOP JUMPDEST PUSH2 0x1A6 PUSH2 0x6D5 JUMP JUMPDEST STOP JUMPDEST PUSH2 0x1C2 PUSH1 0x4 DUP1 CALLDATASIZE SUB DUP2 ADD SWAP1 PUSH2 0x1BD SWAP2 SWAP1 PUSH2 0x146A JUMP JUMPDEST PUSH2 0x6E9 JUMP JUMPDEST STOP JUMPDEST PUSH2 0x1DE PUSH1 0x4 DUP1 CALLDATASIZE SUB DUP2 ADD SWAP1 PUSH2 0x1D9 SWAP2 SWAP1 PUSH2 0x15C0 JUMP JUMPDEST PUSH2 0x775 JUMP JUMPDEST STOP JUMPDEST PUSH2 0x1E8 PUSH2 0xC7D JUMP JUMPDEST PUSH1 0x40 MLOAD PUSH2 0x1F5 SWAP2 SWAP1 PUSH2 0x162E JUMP JUMPDEST PUSH1 0x40 MLOAD DUP1 SWAP2 SUB SWAP1 RETURN JUMPDEST PUSH2 0x206 PUSH2 0xCA6 JUMP JUMPDEST PUSH1 0x40 MLOAD PUSH2 0x213 SWAP2 SWAP1 PUSH2 0x166A JUMP JUMPDEST PUSH1 0x40 MLOAD DUP1 SWAP2 SUB SWAP1 RETURN JUMPDEST PUSH2 0x224 PUSH2 0xCCA JUMP JUMPDEST PUSH1 0x40 MLOAD PUSH2 0x231 SWAP2 SWAP1 PUSH2 0x14A6 JUMP JUMPDEST PUSH1 0x40 MLOAD DUP1 SWAP2 SUB SWAP1 RETURN JUMPDEST PUSH2 0x254 PUSH1 0x4 DUP1 CALLDATASIZE SUB DUP2 ADD SWAP1 PUSH2 0x24F SWAP2 SWAP1 PUSH2 0x16B1 JUMP JUMPDEST PUSH2 0xCD0 JUMP JUMPDEST STOP JUMPDEST PUSH2 0x270 PUSH1 0x4 DUP1 CALLDATASIZE SUB DUP2 ADD SWAP1 PUSH2 0x26B SWAP2 SWAP1 PUSH2 0x15C0 JUMP JUMPDEST PUSH2 0xD53 JUMP JUMPDEST STOP JUMPDEST PUSH1 0x0 PUSH1 0x4 PUSH1 0x0 DUP4 DUP2 MSTORE PUSH1 0x20 ADD SWAP1 DUP2 MSTORE PUSH1 0x20 ADD PUSH1 0x0 KECCAK256 PUSH1 0x2 ADD SLOAD SWAP1 POP SWAP2 SWAP1 POP JUMP JUMPDEST PUSH1 0x2 DUP2 DUP2 SLOAD DUP2 LT PUSH2 0x2A2 JUMPI PUSH1 0x0 DUP1 REVERT JUMPDEST SWAP1 PUSH1 0x0 MSTORE PUSH1 0x20 PUSH1 0x0 KECCAK256 ADD PUSH1 0x0 SWAP2 POP SLOAD SWAP1 PUSH2 0x100 EXP SWAP1 DIV PUSH20 0xFFFFFFFFFFFFFFFFFFFFFFFFFFFFFFFFFFFFFFFF AND DUP2 JUMP JUMPDEST PUSH1 0x3 SLOAD DUP2 JUMP JUMPDEST PUSH1 0x6 DUP2 DUP2 SLOAD DUP2 LT PUSH2 0x2E7 JUMPI PUSH1 0x0 DUP1 REVERT JUMPDEST SWAP1 PUSH1 0x0 MSTORE PUSH1 0x20 PUSH1 0x0 KECCAK256 ADD PUSH1 0x0 SWAP2 POP SWAP1 POP SLOAD DUP2 JUMP JUMPDEST PUSH2 0x31A CALLER PUSH20 0xFFFFFFFFFFFFFFFFFFFFFFFFFFFFFFFFFFFFFFFF AND PUSH2 0x11DD JUMP JUMPDEST ISZERO PUSH2 0x35A JUMPI PUSH1 0x40 MLOAD PUSH32 0x8C379A000000000000000000000000000000000000000000000000000000000 DUP2 MSTORE PUSH1 0x4 ADD PUSH2 0x351 SWAP1 PUSH2 0x173B JUMP JUMPDEST PUSH1 0x40 MLOAD DUP1 SWAP2 SUB SWAP1 REVERT JUMPDEST ORIGIN PUSH20 0xFFFFFFFFFFFFFFFFFFFFFFFFFFFFFFFFFFFFFFFF AND CALLER PUSH20 0xFFFFFFFFFFFFFFFFFFFFFFFFFFFFFFFFFFFFFFFF AND EQ PUSH2 0x3C8 JUMPI PUSH1 0x40 MLOAD PUSH32 0x8C379A000000000000000000000000000000000000000000000000000000000 DUP2 MSTORE PUSH1 0x4 ADD PUSH2 0x3BF SWAP1 PUSH2 0x17A7 JUMP JUMPDEST PUSH1 0x40 MLOAD DUP1 SWAP2 SUB SWAP1 REVERT JUMPDEST PUSH1 0x0 DUP3 DUP3 SWAP1 POP GT PUSH2 0x40E JUMPI PUSH1 0x40 MLOAD PUSH32 0x8C379A000000000000000000000000000000000000000000000000000000000 DUP2 MSTORE PUSH1 0x4 ADD PUSH2 0x405 SWAP1 PUSH2 0x1813 JUMP JUMPDEST PUSH1 0x40 MLOAD DUP1 SWAP2 SUB SWAP1 REVERT JUMPDEST PUSH1 0x0 DUP1 PUSH1 0x0 SWAP1 POP JUMPDEST DUP4 DUP4 SWAP1 POP DUP2 LT ISZERO PUSH2 0x67D JUMPI PUSH1 0x0 PUSH1 0x4 PUSH1 0x0 DUP7 DUP7 DUP6 DUP2 DUP2 LT PUSH2 0x43A JUMPI PUSH2 0x439 PUSH2 0x1833 JUMP JUMPDEST JUMPDEST SWAP1 POP PUSH1 0x20 MUL ADD CALLDATALOAD DUP2 MSTORE PUSH1 0x20 ADD SWAP1 DUP2 MSTORE PUSH1 0x20 ADD PUSH1 0x0 KECCAK256 PUSH1 0x40 MLOAD DUP1 PUSH1 0x80 ADD PUSH1 0x40 MSTORE SWAP1 DUP2 PUSH1 0x0 DUP3 ADD PUSH1 0x0 SWAP1 SLOAD SWAP1 PUSH2 0x100 EXP SWAP1 DIV PUSH20 0xFFFFFFFFFFFFFFFFFFFFFFFFFFFFFFFFFFFFFFFF AND PUSH20 0xFFFFFFFFFFFFFFFFFFFFFFFFFFFFFFFFFFFFFFFF AND PUSH20 0xFFFFFFFFFFFFFFFFFFFFFFFFFFFFFFFFFFFFFFFF AND DUP2 MSTORE PUSH1 0x20 ADD PUSH1 0x1 DUP3 ADD SLOAD DUP2 MSTORE PUSH1 0x20 ADD PUSH1 0x2 DUP3 ADD SLOAD DUP2 MSTORE PUSH1 0x20 ADD PUSH1 0x3 DUP3 ADD PUSH1 0x0 SWAP1 SLOAD SWAP1 PUSH2 0x100 EXP SWAP1 DIV PUSH1 0xFF AND ISZERO ISZERO ISZERO ISZERO DUP2 MSTORE POP POP SWAP1 POP CALLER PUSH20 0xFFFFFFFFFFFFFFFFFFFFFFFFFFFFFFFFFFFFFFFF AND DUP2 PUSH1 0x0 ADD MLOAD PUSH20 0xFFFFFFFFFFFFFFFFFFFFFFFFFFFFFFFFFFFFFFFF AND EQ PUSH2 0x553 JUMPI PUSH1 0x40 MLOAD PUSH32 0x8C379A000000000000000000000000000000000000000000000000000000000 DUP2 MSTORE PUSH1 0x4 ADD PUSH2 0x54A SWAP1 PUSH2 0x18AE JUMP JUMPDEST PUSH1 0x40 MLOAD DUP1 SWAP2 SUB SWAP1 REVERT JUMPDEST TIMESTAMP PUSH1 0x3 SLOAD DUP3 PUSH1 0x20 ADD MLOAD PUSH2 0x566 SWAP2 SWAP1 PUSH2 0x18FD JUMP JUMPDEST LT PUSH2 0x5A6 JUMPI PUSH1 0x40 MLOAD PUSH32 0x8C379A000000000000000000000000000000000000000000000000000000000 DUP2 MSTORE PUSH1 0x4 ADD PUSH2 0x59D SWAP1 PUSH2 0x197D JUMP JUMPDEST PUSH1 0x40 MLOAD DUP1 SWAP2 SUB SWAP1 REVERT JUMPDEST DUP1 PUSH1 0x60 ADD MLOAD ISZERO PUSH2 0x5EB JUMPI PUSH1 0x40 MLOAD PUSH32 0x8C379A000000000000000000000000000000000000000000000000000000000 DUP2 MSTORE PUSH1 0x4 ADD PUSH2 0x5E2 SWAP1 PUSH2 0x19E9 JUMP JUMPDEST PUSH1 0x40 MLOAD DUP1 SWAP2 SUB SWAP1 REVERT JUMPDEST PUSH1 0x0 PUSH2 0x60F DUP7 DUP7 DUP6 DUP2 DUP2 LT PUSH2 0x603 JUMPI PUSH2 0x602 PUSH2 0x1833 JUMP JUMPDEST JUMPDEST SWAP1 POP PUSH1 0x20 MUL ADD CALLDATALOAD PUSH2 0x1200 JUMP JUMPDEST SWAP1 POP PUSH1 0x0 DUP3 PUSH1 0x40 ADD MLOAD DUP3 PUSH2 0x623 SWAP2 SWAP1 PUSH2 0x1A09 JUMP JUMPDEST SWAP1 POP DUP1 DUP6 PUSH2 0x631 SWAP2 SWAP1 PUSH2 0x18FD JUMP JUMPDEST SWAP5 POP DUP2 PUSH1 0x4 PUSH1 0x0 DUP10 DUP10 DUP9 DUP2 DUP2 LT PUSH2 0x64B JUMPI PUSH2 0x64A PUSH2 0x1833 JUMP JUMPDEST JUMPDEST SWAP1 POP PUSH1 0x20 MUL ADD CALLDATALOAD DUP2 MSTORE PUSH1 0x20 ADD SWAP1 DUP2 MSTORE PUSH1 0x20 ADD PUSH1 0x0 KECCAK256 PUSH1 0x2 ADD DUP2 SWAP1 SSTORE POP POP POP POP DUP1 DUP1 PUSH2 0x675 SWAP1 PUSH2 0x1A3D JUMP JUMPDEST SWAP2 POP POP PUSH2 0x416 JUMP JUMPDEST POP CALLER PUSH20 0xFFFFFFFFFFFFFFFFFFFFFFFFFFFFFFFFFFFFFFFF AND PUSH32 0x37826BE3C26DBAD83731F4B985F22FA9EF86B6D1974CD77208332B7F1F283C0C DUP5 DUP5 DUP5 PUSH1 0x40 MLOAD PUSH2 0x6C8 SWAP4 SWAP3 SWAP2 SWAP1 PUSH2 0x1B00 JUMP JUMPDEST PUSH1 0x40 MLOAD DUP1 SWAP2 SUB SWAP1 LOG2 POP POP POP JUMP JUMPDEST PUSH2 0x6DD PUSH2 0x12E0 JUMP JUMPDEST PUSH2 0x6E7 PUSH1 0x0 PUSH2 0x135E JUMP JUMPDEST JUMP JUMPDEST PUSH2 0x6F1 PUSH2 0x12E0 JUMP JUMPDEST PUSH1 0x0 DUP2 GT PUSH2 0x734 JUMPI PUSH1 0x40 MLOAD PUSH32 0x8C379A000000000000000000000000000000000000000000000000000000000 DUP2 MSTORE PUSH1 0x4 ADD PUSH2 0x72B SWAP1 PUSH2 0x1B7E JUMP JUMPDEST PUSH1 0x40 MLOAD DUP1 SWAP2 SUB SWAP1 REVERT JUMPDEST DUP1 PUSH1 0x3 DUP2 SWAP1 SSTORE POP PUSH32 0x8249EC545E68F6F1E1230133CA48C704D831A7F8E635DED80F3DD9E99B09BB2F DUP2 PUSH1 0x40 MLOAD PUSH2 0x76A SWAP2 SWAP1 PUSH2 0x14A6 JUMP JUMPDEST PUSH1 0x40 MLOAD DUP1 SWAP2 SUB SWAP1 LOG1 POP JUMP JUMPDEST PUSH2 0x794 CALLER PUSH20 0xFFFFFFFFFFFFFFFFFFFFFFFFFFFFFFFFFFFFFFFF AND PUSH2 0x11DD JUMP JUMPDEST ISZERO PUSH2 0x7D4 JUMPI PUSH1 0x40 MLOAD PUSH32 0x8C379A000000000000000000000000000000000000000000000000000000000 DUP2 MSTORE PUSH1 0x4 ADD PUSH2 0x7CB SWAP1 PUSH2 0x173B JUMP JUMPDEST PUSH1 0x40 MLOAD DUP1 SWAP2 SUB SWAP1 REVERT JUMPDEST ORIGIN PUSH20 0xFFFFFFFFFFFFFFFFFFFFFFFFFFFFFFFFFFFFFFFF AND CALLER PUSH20 0xFFFFFFFFFFFFFFFFFFFFFFFFFFFFFFFFFFFFFFFF AND EQ PUSH2 0x842 JUMPI PUSH1 0x40 MLOAD PUSH32 0x8C379A000000000000000000000000000000000000000000000000000000000 DUP2 MSTORE PUSH1 0x4 ADD PUSH2 0x839 SWAP1 PUSH2 0x17A7 JUMP JUMPDEST PUSH1 0x40 MLOAD DUP1 SWAP2 SUB SWAP1 REVERT JUMPDEST PUSH1 0x2 PUSH1 0x1 SLOAD SUB PUSH2 0x887 JUMPI PUSH1 0x40 MLOAD PUSH32 0x8C379A000000000000000000000000000000000000000000000000000000000 DUP2 MSTORE PUSH1 0x4 ADD PUSH2 0x87E SWAP1 PUSH2 0x1BEA JUMP JUMPDEST PUSH1 0x40 MLOAD DUP1 SWAP2 SUB SWAP1 REVERT JUMPDEST PUSH1 0x2 PUSH1 0x1 DUP2 SWAP1 SSTORE POP PUSH1 0x0 DUP3 DUP3 SWAP1 POP GT PUSH2 0x8D5 JUMPI PUSH1 0x40 MLOAD PUSH32 0x8C379A000000000000000000000000000000000000000000000000000000000 DUP2 MSTORE PUSH1 0x4 ADD PUSH2 0x8CC SWAP1 PUSH2 0x1813 JUMP JUMPDEST PUSH1 0x40 MLOAD DUP1 SWAP2 SUB SWAP1 REVERT JUMPDEST PUSH1 0x0 JUMPDEST DUP3 DUP3 SWAP1 POP DUP2 LT ISZERO PUSH2 0xC21 JUMPI PUSH1 0x0 PUSH1 0x4 PUSH1 0x0 DUP6 DUP6 DUP6 DUP2 DUP2 LT PUSH2 0x8FC JUMPI PUSH2 0x8FB PUSH2 0x1833 JUMP JUMPDEST JUMPDEST SWAP1 POP PUSH1 0x20 MUL ADD CALLDATALOAD DUP2 MSTORE PUSH1 0x20 ADD SWAP1 DUP2 MSTORE PUSH1 0x20 ADD PUSH1 0x0 KECCAK256 PUSH1 0x40 MLOAD DUP1 PUSH1 0x80 ADD PUSH1 0x40 MSTORE SWAP1 DUP2 PUSH1 0x0 DUP3 ADD PUSH1 0x0 SWAP1 SLOAD SWAP1 PUSH2 0x100 EXP SWAP1 DIV PUSH20 0xFFFFFFFFFFFFFFFFFFFFFFFFFFFFFFFFFFFFFFFF AND PUSH20 0xFFFFFFFFFFFFFFFFFFFFFFFFFFFFFFFFFFFFFFFF AND PUSH20 0xFFFFFFFFFFFFFFFFFFFFFFFFFFFFFFFFFFFFFFFF AND DUP2 MSTORE PUSH1 0x20 ADD PUSH1 0x1 DUP3 ADD SLOAD DUP2 MSTORE PUSH1 0x20 ADD PUSH1 0x2 DUP3 ADD SLOAD DUP2 MSTORE PUSH1 0x20 ADD PUSH1 0x3 DUP3 ADD PUSH1 0x0 SWAP1 SLOAD SWAP1 PUSH2 0x100 EXP SWAP1 DIV PUSH1 0xFF AND ISZERO ISZERO ISZERO ISZERO DUP2 MSTORE POP POP SWAP1 POP CALLER PUSH20 0xFFFFFFFFFFFFFFFFFFFFFFFFFFFFFFFFFFFFFFFF AND DUP2 PUSH1 0x0 ADD MLOAD PUSH20 0xFFFFFFFFFFFFFFFFFFFFFFFFFFFFFFFFFFFFFFFF AND EQ PUSH2 0xA15 JUMPI PUSH1 0x40 MLOAD PUSH32 0x8C379A000000000000000000000000000000000000000000000000000000000 DUP2 MSTORE PUSH1 0x4 ADD PUSH2 0xA0C SWAP1 PUSH2 0x18AE JUMP JUMPDEST PUSH1 0x40 MLOAD DUP1 SWAP2 SUB SWAP1 REVERT JUMPDEST TIMESTAMP PUSH1 0x3 SLOAD DUP3 PUSH1 0x20 ADD MLOAD PUSH2 0xA28 SWAP2 SWAP1 PUSH2 0x18FD JUMP JUMPDEST LT PUSH2 0xA68 JUMPI PUSH1 0x40 MLOAD PUSH32 0x8C379A000000000000000000000000000000000000000000000000000000000 DUP2 MSTORE PUSH1 0x4 ADD PUSH2 0xA5F SWAP1 PUSH2 0x1C56 JUMP JUMPDEST PUSH1 0x40 MLOAD DUP1 SWAP2 SUB SWAP1 REVERT JUMPDEST DUP1 PUSH1 0x60 ADD MLOAD ISZERO PUSH2 0xAAD JUMPI PUSH1 0x40 MLOAD PUSH32 0x8C379A000000000000000000000000000000000000000000000000000000000 DUP2 MSTORE PUSH1 0x4 ADD PUSH2 0xAA4 SWAP1 PUSH2 0x19E9 JUMP JUMPDEST PUSH1 0x40 MLOAD DUP1 SWAP2 SUB SWAP1 REVERT JUMPDEST PUSH32 0x0 PUSH20 0xFFFFFFFFFFFFFFFFFFFFFFFFFFFFFFFFFFFFFFFF AND PUSH4 0x23B872DD ADDRESS CALLER DUP8 DUP8 DUP8 DUP2 DUP2 LT PUSH2 0xAFE JUMPI PUSH2 0xAFD PUSH2 0x1833 JUMP JUMPDEST JUMPDEST SWAP1 POP PUSH1 0x20 MUL ADD CALLDATALOAD PUSH1 0x40 MLOAD DUP5 PUSH4 0xFFFFFFFF AND PUSH1 0xE0 SHL DUP2 MSTORE PUSH1 0x4 ADD PUSH2 0xB23 SWAP4 SWAP3 SWAP2 SWAP1 PUSH2 0x1C76 JUMP JUMPDEST PUSH1 0x0 PUSH1 0x40 MLOAD DUP1 DUP4 SUB DUP2 PUSH1 0x0 DUP8 DUP1 EXTCODESIZE ISZERO DUP1 ISZERO PUSH2 0xB3D JUMPI PUSH1 0x0 DUP1 REVERT JUMPDEST POP GAS CALL ISZERO DUP1 ISZERO PUSH2 0xB51 JUMPI RETURNDATASIZE PUSH1 0x0 DUP1 RETURNDATACOPY RETURNDATASIZE PUSH1 0x0 REVERT JUMPDEST POP POP POP POP PUSH1 0x0 PUSH2 0xB79 DUP6 DUP6 DUP6 DUP2 DUP2 LT PUSH2 0xB6D JUMPI PUSH2 0xB6C PUSH2 0x1833 JUMP JUMPDEST JUMPDEST SWAP1 POP PUSH1 0x20 MUL ADD CALLDATALOAD PUSH2 0x1200 JUMP JUMPDEST SWAP1 POP PUSH1 0x0 DUP3 PUSH1 0x40 ADD MLOAD DUP3 PUSH2 0xB8D SWAP2 SWAP1 PUSH2 0x1A09 JUMP JUMPDEST SWAP1 POP DUP2 PUSH1 0x4 PUSH1 0x0 DUP9 DUP9 DUP9 DUP2 DUP2 LT PUSH2 0xBA7 JUMPI PUSH2 0xBA6 PUSH2 0x1833 JUMP JUMPDEST JUMPDEST SWAP1 POP PUSH1 0x20 MUL ADD CALLDATALOAD DUP2 MSTORE PUSH1 0x20 ADD SWAP1 DUP2 MSTORE PUSH1 0x20 ADD PUSH1 0x0 KECCAK256 PUSH1 0x2 ADD DUP2 SWAP1 SSTORE POP PUSH1 0x1 PUSH1 0x4 PUSH1 0x0 DUP9 DUP9 DUP9 DUP2 DUP2 LT PUSH2 0xBDC JUMPI PUSH2 0xBDB PUSH2 0x1833 JUMP JUMPDEST JUMPDEST SWAP1 POP PUSH1 0x20 MUL ADD CALLDATALOAD DUP2 MSTORE PUSH1 0x20 ADD SWAP1 DUP2 MSTORE PUSH1 0x20 ADD PUSH1 0x0 KECCAK256 PUSH1 0x3 ADD PUSH1 0x0 PUSH2 0x100 EXP DUP2 SLOAD DUP2 PUSH1 0xFF MUL NOT AND SWAP1 DUP4 ISZERO ISZERO MUL OR SWAP1 SSTORE POP POP POP POP DUP1 DUP1 PUSH2 0xC19 SWAP1 PUSH2 0x1A3D JUMP JUMPDEST SWAP2 POP POP PUSH2 0x8D8 JUMP JUMPDEST POP CALLER PUSH20 0xFFFFFFFFFFFFFFFFFFFFFFFFFFFFFFFFFFFFFFFF AND PUSH32 0x5CB48022479B9AC3BFB10A27965DC010ACFFC9FC1BC9A52F0B18975B944B54CA DUP4 DUP4 PUSH1 0x40 MLOAD PUSH2 0xC6A SWAP3 SWAP2 SWAP1 PUSH2 0x1CAD JUMP JUMPDEST PUSH1 0x40 MLOAD DUP1 SWAP2 SUB SWAP1 LOG2 PUSH1 0x1 DUP1 DUP2 SWAP1 SSTORE POP POP POP JUMP JUMPDEST PUSH1 0x0 DUP1 PUSH1 0x0 SWAP1 SLOAD SWAP1 PUSH2 0x100 EXP SWAP1 DIV PUSH20 0xFFFFFFFFFFFFFFFFFFFFFFFFFFFFFFFFFFFFFFFF AND SWAP1 POP SWAP1 JUMP JUMPDEST PUSH32 0x0 DUP2 JUMP JUMPDEST PUSH1 0x5 SLOAD DUP2 JUMP JUMPDEST PUSH2 0xCD8 PUSH2 0x12E0 JUMP JUMPDEST PUSH1 0x0 PUSH20 0xFFFFFFFFFFFFFFFFFFFFFFFFFFFFFFFFFFFFFFFF AND DUP2 PUSH20 0xFFFFFFFFFFFFFFFFFFFFFFFFFFFFFFFFFFFFFFFF AND SUB PUSH2 0xD47 JUMPI PUSH1 0x40 MLOAD PUSH32 0x8C379A000000000000000000000000000000000000000000000000000000000 DUP2 MSTORE PUSH1 0x4 ADD PUSH2 0xD3E SWAP1 PUSH2 0x1D43 JUMP JUMPDEST PUSH1 0x40 MLOAD DUP1 SWAP2 SUB SWAP1 REVERT JUMPDEST PUSH2 0xD50 DUP2 PUSH2 0x135E JUMP JUMPDEST POP JUMP JUMPDEST PUSH2 0xD72 CALLER PUSH20 0xFFFFFFFFFFFFFFFFFFFFFFFFFFFFFFFFFFFFFFFF AND PUSH2 0x11DD JUMP JUMPDEST ISZERO PUSH2 0xDB2 JUMPI PUSH1 0x40 MLOAD PUSH32 0x8C379A000000000000000000000000000000000000000000000000000000000 DUP2 MSTORE PUSH1 0x4 ADD PUSH2 0xDA9 SWAP1 PUSH2 0x173B JUMP JUMPDEST PUSH1 0x40 MLOAD DUP1 SWAP2 SUB SWAP1 REVERT JUMPDEST ORIGIN PUSH20 0xFFFFFFFFFFFFFFFFFFFFFFFFFFFFFFFFFFFFFFFF AND CALLER PUSH20 0xFFFFFFFFFFFFFFFFFFFFFFFFFFFFFFFFFFFFFFFF AND EQ PUSH2 0xE20 JUMPI PUSH1 0x40 MLOAD PUSH32 0x8C379A000000000000000000000000000000000000000000000000000000000 DUP2 MSTORE PUSH1 0x4 ADD PUSH2 0xE17 SWAP1 PUSH2 0x17A7 JUMP JUMPDEST PUSH1 0x40 MLOAD DUP1 SWAP2 SUB SWAP1 REVERT JUMPDEST PUSH1 0x2 PUSH1 0x1 SLOAD SUB PUSH2 0xE65 JUMPI PUSH1 0x40 MLOAD PUSH32 0x8C379A000000000000000000000000000000000000000000000000000000000 DUP2 MSTORE PUSH1 0x4 ADD PUSH2 0xE5C SWAP1 PUSH2 0x1BEA JUMP JUMPDEST PUSH1 0x40 MLOAD DUP1 SWAP2 SUB SWAP1 REVERT JUMPDEST PUSH1 0x2 PUSH1 0x1 DUP2 SWAP1 SSTORE POP PUSH1 0x0 DUP3 DUP3 SWAP1 POP GT PUSH2 0xEB3 JUMPI PUSH1 0x40 MLOAD PUSH32 0x8C379A000000000000000000000000000000000000000000000000000000000 DUP2 MSTORE PUSH1 0x4 ADD PUSH2 0xEAA SWAP1 PUSH2 0x1813 JUMP JUMPDEST PUSH1 0x40 MLOAD DUP1 SWAP2 SUB SWAP1 REVERT JUMPDEST PUSH1 0x0 JUMPDEST DUP3 DUP3 SWAP1 POP DUP2 LT ISZERO PUSH2 0x1181 JUMPI CALLER PUSH20 0xFFFFFFFFFFFFFFFFFFFFFFFFFFFFFFFFFFFFFFFF AND PUSH32 0x0 PUSH20 0xFFFFFFFFFFFFFFFFFFFFFFFFFFFFFFFFFFFFFFFF AND PUSH4 0x6352211E DUP6 DUP6 DUP6 DUP2 DUP2 LT PUSH2 0xF27 JUMPI PUSH2 0xF26 PUSH2 0x1833 JUMP JUMPDEST JUMPDEST SWAP1 POP PUSH1 0x20 MUL ADD CALLDATALOAD PUSH1 0x40 MLOAD DUP3 PUSH4 0xFFFFFFFF AND PUSH1 0xE0 SHL DUP2 MSTORE PUSH1 0x4 ADD PUSH2 0xF4A SWAP2 SWAP1 PUSH2 0x14A6 JUMP JUMPDEST PUSH1 0x20 PUSH1 0x40 MLOAD DUP1 DUP4 SUB DUP2 DUP7 GAS STATICCALL ISZERO DUP1 ISZERO PUSH2 0xF67 JUMPI RETURNDATASIZE PUSH1 0x0 DUP1 RETURNDATACOPY RETURNDATASIZE PUSH1 0x0 REVERT JUMPDEST POP POP POP POP PUSH1 0x40 MLOAD RETURNDATASIZE PUSH1 0x1F NOT PUSH1 0x1F DUP3 ADD AND DUP3 ADD DUP1 PUSH1 0x40 MSTORE POP DUP2 ADD SWAP1 PUSH2 0xF8B SWAP2 SWAP1 PUSH2 0x1D78 JUMP JUMPDEST PUSH20 0xFFFFFFFFFFFFFFFFFFFFFFFFFFFFFFFFFFFFFFFF AND EQ PUSH2 0xFE1 JUMPI PUSH1 0x40 MLOAD PUSH32 0x8C379A000000000000000000000000000000000000000000000000000000000 DUP2 MSTORE PUSH1 0x4 ADD PUSH2 0xFD8 SWAP1 PUSH2 0x1DF1 JUMP JUMPDEST PUSH1 0x40 MLOAD DUP1 SWAP2 SUB SWAP1 REVERT JUMPDEST PUSH32 0x0 PUSH20 0xFFFFFFFFFFFFFFFFFFFFFFFFFFFFFFFFFFFFFFFF AND PUSH4 0x23B872DD CALLER ADDRESS DUP7 DUP7 DUP7 DUP2 DUP2 LT PUSH2 0x1032 JUMPI PUSH2 0x1031 PUSH2 0x1833 JUMP JUMPDEST JUMPDEST SWAP1 POP PUSH1 0x20 MUL ADD CALLDATALOAD PUSH1 0x40 MLOAD DUP5 PUSH4 0xFFFFFFFF AND PUSH1 0xE0 SHL DUP2 MSTORE PUSH1 0x4 ADD PUSH2 0x1057 SWAP4 SWAP3 SWAP2 SWAP1 PUSH2 0x1C76 JUMP JUMPDEST PUSH1 0x0 PUSH1 0x40 MLOAD DUP1 DUP4 SUB DUP2 PUSH1 0x0 DUP8 DUP1 EXTCODESIZE ISZERO DUP1 ISZERO PUSH2 0x1071 JUMPI PUSH1 0x0 DUP1 REVERT JUMPDEST POP GAS CALL ISZERO DUP1 ISZERO PUSH2 0x1085 JUMPI RETURNDATASIZE PUSH1 0x0 DUP1 RETURNDATACOPY RETURNDATASIZE PUSH1 0x0 REVERT JUMPDEST POP POP POP POP PUSH1 0x40 MLOAD DUP1 PUSH1 0x80 ADD PUSH1 0x40 MSTORE DUP1 CALLER PUSH20 0xFFFFFFFFFFFFFFFFFFFFFFFFFFFFFFFFFFFFFFFF AND DUP2 MSTORE PUSH1 0x20 ADD TIMESTAMP DUP2 MSTORE PUSH1 0x20 ADD PUSH1 0x0 DUP2 MSTORE PUSH1 0x20 ADD PUSH1 0x0 ISZERO ISZERO DUP2 MSTORE POP PUSH1 0x4 PUSH1 0x0 DUP6 DUP6 DUP6 DUP2 DUP2 LT PUSH2 0x10DB JUMPI PUSH2 0x10DA PUSH2 0x1833 JUMP JUMPDEST JUMPDEST SWAP1 POP PUSH1 0x20 MUL ADD CALLDATALOAD DUP2 MSTORE PUSH1 0x20 ADD SWAP1 DUP2 MSTORE PUSH1 0x20 ADD PUSH1 0x0 KECCAK256 PUSH1 0x0 DUP3 ADD MLOAD DUP2 PUSH1 0x0 ADD PUSH1 0x0 PUSH2 0x100 EXP DUP2 SLOAD DUP2 PUSH20 0xFFFFFFFFFFFFFFFFFFFFFFFFFFFFFFFFFFFFFFFF MUL NOT AND SWAP1 DUP4 PUSH20 0xFFFFFFFFFFFFFFFFFFFFFFFFFFFFFFFFFFFFFFFF AND MUL OR SWAP1 SSTORE POP PUSH1 0x20 DUP3 ADD MLOAD DUP2 PUSH1 0x1 ADD SSTORE PUSH1 0x40 DUP3 ADD MLOAD DUP2 PUSH1 0x2 ADD SSTORE PUSH1 0x60 DUP3 ADD MLOAD DUP2 PUSH1 0x3 ADD PUSH1 0x0 PUSH2 0x100 EXP DUP2 SLOAD DUP2 PUSH1 0xFF MUL NOT AND SWAP1 DUP4 ISZERO ISZERO MUL OR SWAP1 SSTORE POP SWAP1 POP POP DUP1 DUP1 PUSH2 0x1179 SWAP1 PUSH2 0x1A3D JUMP JUMPDEST SWAP2 POP POP PUSH2 0xEB6 JUMP JUMPDEST POP CALLER PUSH20 0xFFFFFFFFFFFFFFFFFFFFFFFFFFFFFFFFFFFFFFFF AND PUSH32 0x458BE0227BCCC9E803DEC79BD16767EEAF9925D2CE708EEED7AE1F3621F968F9 DUP4 DUP4 PUSH1 0x40 MLOAD PUSH2 0x11CA SWAP3 SWAP2 SWAP1 PUSH2 0x1CAD JUMP JUMPDEST PUSH1 0x40 MLOAD DUP1 SWAP2 SUB SWAP1 LOG2 PUSH1 0x1 DUP1 DUP2 SWAP1 SSTORE POP POP POP JUMP JUMPDEST PUSH1 0x0 DUP1 DUP3 PUSH20 0xFFFFFFFFFFFFFFFFFFFFFFFFFFFFFFFFFFFFFFFF AND EXTCODESIZE GT SWAP1 POP SWAP2 SWAP1 POP JUMP JUMPDEST PUSH1 0x0 DUP1 PUSH1 0x4 PUSH1 0x0 DUP5 DUP2 MSTORE PUSH1 0x20 ADD SWAP1 DUP2 MSTORE PUSH1 0x20 ADD PUSH1 0x0 KECCAK256 PUSH1 0x40 MLOAD DUP1 PUSH1 0x80 ADD PUSH1 0x40 MSTORE SWAP1 DUP2 PUSH1 0x0 DUP3 ADD PUSH1 0x0 SWAP1 SLOAD SWAP1 PUSH2 0x100 EXP SWAP1 DIV PUSH20 0xFFFFFFFFFFFFFFFFFFFFFFFFFFFFFFFFFFFFFFFF AND PUSH20 0xFFFFFFFFFFFFFFFFFFFFFFFFFFFFFFFFFFFFFFFF AND PUSH20 0xFFFFFFFFFFFFFFFFFFFFFFFFFFFFFFFFFFFFFFFF AND DUP2 MSTORE PUSH1 0x20 ADD PUSH1 0x1 DUP3 ADD SLOAD DUP2 MSTORE PUSH1 0x20 ADD PUSH1 0x2 DUP3 ADD SLOAD DUP2 MSTORE PUSH1 0x20 ADD PUSH1 0x3 DUP3 ADD PUSH1 0x0 SWAP1 SLOAD SWAP1 PUSH2 0x100 EXP SWAP1 DIV PUSH1 0xFF AND ISZERO ISZERO ISZERO ISZERO DUP2 MSTORE POP POP SWAP1 POP PUSH1 0x0 DUP2 PUSH1 0x20 ADD MLOAD TIMESTAMP PUSH2 0x12BA SWAP2 SWAP1 PUSH2 0x1A09 JUMP JUMPDEST SWAP1 POP PUSH1 0x0 PUSH1 0x3 SLOAD DUP3 LT ISZERO PUSH2 0x12D4 JUMPI PUSH1 0x0 SWAP4 POP POP POP POP PUSH2 0x12DB JUMP JUMPDEST DUP1 SWAP4 POP POP POP POP JUMPDEST SWAP2 SWAP1 POP JUMP JUMPDEST PUSH2 0x12E8 PUSH2 0x1422 JUMP JUMPDEST PUSH20 0xFFFFFFFFFFFFFFFFFFFFFFFFFFFFFFFFFFFFFFFF AND PUSH2 0x1306 PUSH2 0xC7D JUMP JUMPDEST PUSH20 0xFFFFFFFFFFFFFFFFFFFFFFFFFFFFFFFFFFFFFFFF AND EQ PUSH2 0x135C JUMPI PUSH1 0x40 MLOAD PUSH32 0x8C379A000000000000000000000000000000000000000000000000000000000 DUP2 MSTORE PUSH1 0x4 ADD PUSH2 0x1353 SWAP1 PUSH2 0x1E5D JUMP JUMPDEST PUSH1 0x40 MLOAD DUP1 SWAP2 SUB SWAP1 REVERT JUMPDEST JUMP JUMPDEST PUSH1 0x0 DUP1 PUSH1 0x0 SWAP1 SLOAD SWAP1 PUSH2 0x100 EXP SWAP1 DIV PUSH20 0xFFFFFFFFFFFFFFFFFFFFFFFFFFFFFFFFFFFFFFFF AND SWAP1 POP DUP2 PUSH1 0x0 DUP1 PUSH2 0x100 EXP DUP2 SLOAD DUP2 PUSH20 0xFFFFFFFFFFFFFFFFFFFFFFFFFFFFFFFFFFFFFFFF MUL NOT AND SWAP1 DUP4 PUSH20 0xFFFFFFFFFFFFFFFFFFFFFFFFFFFFFFFFFFFFFFFF AND MUL OR SWAP1 SSTORE POP DUP2 PUSH20 0xFFFFFFFFFFFFFFFFFFFFFFFFFFFFFFFFFFFFFFFF AND DUP2 PUSH20 0xFFFFFFFFFFFFFFFFFFFFFFFFFFFFFFFFFFFFFFFF AND PUSH32 0x8BE0079C531659141344CD1FD0A4F28419497F9722A3DAAFE3B4186F6B6457E0 PUSH1 0x40 MLOAD PUSH1 0x40 MLOAD DUP1 SWAP2 SUB SWAP1 LOG3 POP POP JUMP JUMPDEST PUSH1 0x0 CALLER SWAP1 POP SWAP1 JUMP JUMPDEST PUSH1 0x0 DUP1 REVERT JUMPDEST PUSH1 0x0 DUP1 REVERT JUMPDEST PUSH1 0x0 DUP2 SWAP1 POP SWAP2 SWAP1 POP JUMP JUMPDEST PUSH2 0x1447 DUP2 PUSH2 0x1434 JUMP JUMPDEST DUP2 EQ PUSH2 0x1452 JUMPI PUSH1 0x0 DUP1 REVERT JUMPDEST POP JUMP JUMPDEST PUSH1 0x0 DUP2 CALLDATALOAD SWAP1 POP PUSH2 0x1464 DUP2 PUSH2 0x143E JUMP JUMPDEST SWAP3 SWAP2 POP POP JUMP JUMPDEST PUSH1 0x0 PUSH1 0x20 DUP3 DUP5 SUB SLT ISZERO PUSH2 0x1480 JUMPI PUSH2 0x147F PUSH2 0x142A JUMP JUMPDEST JUMPDEST PUSH1 0x0 PUSH2 0x148E DUP5 DUP3 DUP6 ADD PUSH2 0x1455 JUMP JUMPDEST SWAP2 POP POP SWAP3 SWAP2 POP POP JUMP JUMPDEST PUSH2 0x14A0 DUP2 PUSH2 0x1434 JUMP JUMPDEST DUP3 MSTORE POP POP JUMP JUMPDEST PUSH1 0x0 PUSH1 0x20 DUP3 ADD SWAP1 POP PUSH2 0x14BB PUSH1 0x0 DUP4 ADD DUP5 PUSH2 0x1497 JUMP JUMPDEST SWAP3 SWAP2 POP POP JUMP JUMPDEST PUSH1 0x0 PUSH20 0xFFFFFFFFFFFFFFFFFFFFFFFFFFFFFFFFFFFFFFFF DUP3 AND SWAP1 POP SWAP2 SWAP1 POP JUMP JUMPDEST PUSH1 0x0 DUP2 SWAP1 POP SWAP2 SWAP1 POP JUMP JUMPDEST PUSH1 0x0 PUSH2 0x1506 PUSH2 0x1501 PUSH2 0x14FC DUP5 PUSH2 0x14C1 JUMP JUMPDEST PUSH2 0x14E1 JUMP JUMPDEST PUSH2 0x14C1 JUMP JUMPDEST SWAP1 POP SWAP2 SWAP1 POP JUMP JUMPDEST PUSH1 0x0 PUSH2 0x1518 DUP3 PUSH2 0x14EB JUMP JUMPDEST SWAP1 POP SWAP2 SWAP1 POP JUMP JUMPDEST PUSH1 0x0 PUSH2 0x152A DUP3 PUSH2 0x150D JUMP JUMPDEST SWAP1 POP SWAP2 SWAP1 POP JUMP JUMPDEST PUSH2 0x153A DUP2 PUSH2 0x151F JUMP JUMPDEST DUP3 MSTORE POP POP JUMP JUMPDEST PUSH1 0x0 PUSH1 0x20 DUP3 ADD SWAP1 POP PUSH2 0x1555 PUSH1 0x0 DUP4 ADD DUP5 PUSH2 0x1531 JUMP JUMPDEST SWAP3 SWAP2 POP POP JUMP JUMPDEST PUSH1 0x0 DUP1 REVERT JUMPDEST PUSH1 0x0 DUP1 REVERT JUMPDEST PUSH1 0x0 DUP1 REVERT JUMPDEST PUSH1 0x0 DUP1 DUP4 PUSH1 0x1F DUP5 ADD SLT PUSH2 0x1580 JUMPI PUSH2 0x157F PUSH2 0x155B JUMP JUMPDEST JUMPDEST DUP3 CALLDATALOAD SWAP1 POP PUSH8 0xFFFFFFFFFFFFFFFF DUP2 GT ISZERO PUSH2 0x159D JUMPI PUSH2 0x159C PUSH2 0x1560 JUMP JUMPDEST JUMPDEST PUSH1 0x20 DUP4 ADD SWAP2 POP DUP4 PUSH1 0x20 DUP3 MUL DUP4 ADD GT ISZERO PUSH2 0x15B9 JUMPI PUSH2 0x15B8 PUSH2 0x1565 JUMP JUMPDEST JUMPDEST SWAP3 POP SWAP3 SWAP1 POP JUMP JUMPDEST PUSH1 0x0 DUP1 PUSH1 0x20 DUP4 DUP6 SUB SLT ISZERO PUSH2 0x15D7 JUMPI PUSH2 0x15D6 PUSH2 0x142A JUMP JUMPDEST JUMPDEST PUSH1 0x0 DUP4 ADD CALLDATALOAD PUSH8 0xFFFFFFFFFFFFFFFF DUP2 GT ISZERO PUSH2 0x15F5 JUMPI PUSH2 0x15F4 PUSH2 0x142F JUMP JUMPDEST JUMPDEST PUSH2 0x1601 DUP6 DUP3 DUP7 ADD PUSH2 0x156A JUMP JUMPDEST SWAP3 POP SWAP3 POP POP SWAP3 POP SWAP3 SWAP1 POP JUMP JUMPDEST PUSH1 0x0 PUSH2 0x1618 DUP3 PUSH2 0x14C1 JUMP JUMPDEST SWAP1 POP SWAP2 SWAP1 POP JUMP JUMPDEST PUSH2 0x1628 DUP2 PUSH2 0x160D JUMP JUMPDEST DUP3 MSTORE POP POP JUMP JUMPDEST PUSH1 0x0 PUSH1 0x20 DUP3 ADD SWAP1 POP PUSH2 0x1643 PUSH1 0x0 DUP4 ADD DUP5 PUSH2 0x161F JUMP JUMPDEST SWAP3 SWAP2 POP POP JUMP JUMPDEST PUSH1 0x0 PUSH2 0x1654 DUP3 PUSH2 0x150D JUMP JUMPDEST SWAP1 POP SWAP2 SWAP1 POP JUMP JUMPDEST PUSH2 0x1664 DUP2 PUSH2 0x1649 JUMP JUMPDEST DUP3 MSTORE POP POP JUMP JUMPDEST PUSH1 0x0 PUSH1 0x20 DUP3 ADD SWAP1 POP PUSH2 0x167F PUSH1 0x0 DUP4 ADD DUP5 PUSH2 0x165B JUMP JUMPDEST SWAP3 SWAP2 POP POP JUMP JUMPDEST PUSH2 0x168E DUP2 PUSH2 0x160D JUMP JUMPDEST DUP2 EQ PUSH2 0x1699 JUMPI PUSH1 0x0 DUP1 REVERT JUMPDEST POP JUMP JUMPDEST PUSH1 0x0 DUP2 CALLDATALOAD SWAP1 POP PUSH2 0x16AB DUP2 PUSH2 0x1685 JUMP JUMPDEST SWAP3 SWAP2 POP POP JUMP JUMPDEST PUSH1 0x0 PUSH1 0x20 DUP3 DUP5 SUB SLT ISZERO PUSH2 0x16C7 JUMPI PUSH2 0x16C6 PUSH2 0x142A JUMP JUMPDEST JUMPDEST PUSH1 0x0 PUSH2 0x16D5 DUP5 DUP3 DUP6 ADD PUSH2 0x169C JUMP JUMPDEST SWAP2 POP POP SWAP3 SWAP2 POP POP JUMP JUMPDEST PUSH1 0x0 DUP3 DUP3 MSTORE PUSH1 0x20 DUP3 ADD SWAP1 POP SWAP3 SWAP2 POP POP JUMP JUMPDEST PUSH32 0x436F6E7472616374206E6F7420616C6C6F776564000000000000000000000000 PUSH1 0x0 DUP3 ADD MSTORE POP JUMP JUMPDEST PUSH1 0x0 PUSH2 0x1725 PUSH1 0x14 DUP4 PUSH2 0x16DE JUMP JUMPDEST SWAP2 POP PUSH2 0x1730 DUP3 PUSH2 0x16EF JUMP JUMPDEST PUSH1 0x20 DUP3 ADD SWAP1 POP SWAP2 SWAP1 POP JUMP JUMPDEST PUSH1 0x0 PUSH1 0x20 DUP3 ADD SWAP1 POP DUP2 DUP2 SUB PUSH1 0x0 DUP4 ADD MSTORE PUSH2 0x1754 DUP2 PUSH2 0x1718 JUMP JUMPDEST SWAP1 POP SWAP2 SWAP1 POP JUMP JUMPDEST PUSH32 0x50726F787920636F6E7472616374206E6F7420616C6C6F776564000000000000 PUSH1 0x0 DUP3 ADD MSTORE POP JUMP JUMPDEST PUSH1 0x0 PUSH2 0x1791 PUSH1 0x1A DUP4 PUSH2 0x16DE JUMP JUMPDEST SWAP2 POP PUSH2 0x179C DUP3 PUSH2 0x175B JUMP JUMPDEST PUSH1 0x20 DUP3 ADD SWAP1 POP SWAP2 SWAP1 POP JUMP JUMPDEST PUSH1 0x0 PUSH1 0x20 DUP3 ADD SWAP1 POP DUP2 DUP2 SUB PUSH1 0x0 DUP4 ADD MSTORE PUSH2 0x17C0 DUP2 PUSH2 0x1784 JUMP JUMPDEST SWAP1 POP SWAP2 SWAP1 POP JUMP JUMPDEST PUSH32 0x4E6F20746F6B656E730000000000000000000000000000000000000000000000 PUSH1 0x0 DUP3 ADD MSTORE POP JUMP JUMPDEST PUSH1 0x0 PUSH2 0x17FD PUSH1 0x9 DUP4 PUSH2 0x16DE JUMP JUMPDEST SWAP2 POP PUSH2 0x1808 DUP3 PUSH2 0x17C7 JUMP JUMPDEST PUSH1 0x20 DUP3 ADD SWAP1 POP SWAP2 SWAP1 POP JUMP JUMPDEST PUSH1 0x0 PUSH1 0x20 DUP3 ADD SWAP1 POP DUP2 DUP2 SUB PUSH1 0x0 DUP4 ADD MSTORE PUSH2 0x182C DUP2 PUSH2 0x17F0 JUMP JUMPDEST SWAP1 POP SWAP2 SWAP1 POP JUMP JUMPDEST PUSH32 0x4E487B7100000000000000000000000000000000000000000000000000000000 PUSH1 0x0 MSTORE PUSH1 0x32 PUSH1 0x4 MSTORE PUSH1 0x24 PUSH1 0x0 REVERT JUMPDEST PUSH32 0x4E6F74206120746F6B656E206F776E6572000000000000000000000000000000 PUSH1 0x0 DUP3 ADD MSTORE POP JUMP JUMPDEST PUSH1 0x0 PUSH2 0x1898 PUSH1 0x11 DUP4 PUSH2 0x16DE JUMP JUMPDEST SWAP2 POP PUSH2 0x18A3 DUP3 PUSH2 0x1862 JUMP JUMPDEST PUSH1 0x20 DUP3 ADD SWAP1 POP SWAP2 SWAP1 POP JUMP JUMPDEST PUSH1 0x0 PUSH1 0x20 DUP3 ADD SWAP1 POP DUP2 DUP2 SUB PUSH1 0x0 DUP4 ADD MSTORE PUSH2 0x18C7 DUP2 PUSH2 0x188B JUMP JUMPDEST SWAP1 POP SWAP2 SWAP1 POP JUMP JUMPDEST PUSH32 0x4E487B7100000000000000000000000000000000000000000000000000000000 PUSH1 0x0 MSTORE PUSH1 0x11 PUSH1 0x4 MSTORE PUSH1 0x24 PUSH1 0x0 REVERT JUMPDEST PUSH1 0x0 PUSH2 0x1908 DUP3 PUSH2 0x1434 JUMP JUMPDEST SWAP2 POP PUSH2 0x1913 DUP4 PUSH2 0x1434 JUMP JUMPDEST SWAP3 POP DUP3 DUP3 ADD SWAP1 POP DUP1 DUP3 GT ISZERO PUSH2 0x192B JUMPI PUSH2 0x192A PUSH2 0x18CE JUMP JUMPDEST JUMPDEST SWAP3 SWAP2 POP POP JUMP JUMPDEST PUSH32 0x4E6F742061626C6520746F20636C61696D207965740000000000000000000000 PUSH1 0x0 DUP3 ADD MSTORE POP JUMP JUMPDEST PUSH1 0x0 PUSH2 0x1967 PUSH1 0x15 DUP4 PUSH2 0x16DE JUMP JUMPDEST SWAP2 POP PUSH2 0x1972 DUP3 PUSH2 0x1931 JUMP JUMPDEST PUSH1 0x20 DUP3 ADD SWAP1 POP SWAP2 SWAP1 POP JUMP JUMPDEST PUSH1 0x0 PUSH1 0x20 DUP3 ADD SWAP1 POP DUP2 DUP2 SUB PUSH1 0x0 DUP4 ADD MSTORE PUSH2 0x1996 DUP2 PUSH2 0x195A JUMP JUMPDEST SWAP1 POP SWAP2 SWAP1 POP JUMP JUMPDEST PUSH32 0x416C726561647920756E6C6F636B656400000000000000000000000000000000 PUSH1 0x0 DUP3 ADD MSTORE POP JUMP JUMPDEST PUSH1 0x0 PUSH2 0x19D3 PUSH1 0x10 DUP4 PUSH2 0x16DE JUMP JUMPDEST SWAP2 POP PUSH2 0x19DE DUP3 PUSH2 0x199D JUMP JUMPDEST PUSH1 0x20 DUP3 ADD SWAP1 POP SWAP2 SWAP1 POP JUMP JUMPDEST PUSH1 0x0 PUSH1 0x20 DUP3 ADD SWAP1 POP DUP2 DUP2 SUB PUSH1 0x0 DUP4 ADD MSTORE PUSH2 0x1A02 DUP2 PUSH2 0x19C6 JUMP JUMPDEST SWAP1 POP SWAP2 SWAP1 POP JUMP JUMPDEST PUSH1 0x0 PUSH2 0x1A14 DUP3 PUSH2 0x1434 JUMP JUMPDEST SWAP2 POP PUSH2 0x1A1F DUP4 PUSH2 0x1434 JUMP JUMPDEST SWAP3 POP DUP3 DUP3 SUB SWAP1 POP DUP2 DUP2 GT ISZERO PUSH2 0x1A37 JUMPI PUSH2 0x1A36 PUSH2 0x18CE JUMP JUMPDEST JUMPDEST SWAP3 SWAP2 POP POP JUMP JUMPDEST PUSH1 0x0 PUSH2 0x1A48 DUP3 PUSH2 0x1434 JUMP JUMPDEST SWAP2 POP PUSH32 0xFFFFFFFFFFFFFFFFFFFFFFFFFFFFFFFFFFFFFFFFFFFFFFFFFFFFFFFFFFFFFFFF DUP3 SUB PUSH2 0x1A7A JUMPI PUSH2 0x1A79 PUSH2 0x18CE JUMP JUMPDEST JUMPDEST PUSH1 0x1 DUP3 ADD SWAP1 POP SWAP2 SWAP1 POP JUMP JUMPDEST PUSH1 0x0 DUP3 DUP3 MSTORE PUSH1 0x20 DUP3 ADD SWAP1 POP SWAP3 SWAP2 POP POP JUMP JUMPDEST PUSH1 0x0 DUP1 REVERT JUMPDEST DUP3 DUP2 DUP4 CALLDATACOPY POP POP POP JUMP JUMPDEST PUSH1 0x0 PUSH2 0x1AB0 DUP4 DUP6 PUSH2 0x1A85 JUMP JUMPDEST SWAP4 POP PUSH32 0x7FFFFFFFFFFFFFFFFFFFFFFFFFFFFFFFFFFFFFFFFFFFFFFFFFFFFFFFFFFFFFF DUP4 GT ISZERO PUSH2 0x1AE3 JUMPI PUSH2 0x1AE2 PUSH2 0x1A96 JUMP JUMPDEST JUMPDEST PUSH1 0x20 DUP4 MUL SWAP3 POP PUSH2 0x1AF4 DUP4 DUP6 DUP5 PUSH2 0x1A9B JUMP JUMPDEST DUP3 DUP5 ADD SWAP1 POP SWAP4 SWAP3 POP POP POP JUMP JUMPDEST PUSH1 0x0 PUSH1 0x40 DUP3 ADD SWAP1 POP DUP2 DUP2 SUB PUSH1 0x0 DUP4 ADD MSTORE PUSH2 0x1B1B DUP2 DUP6 DUP8 PUSH2 0x1AA4 JUMP JUMPDEST SWAP1 POP PUSH2 0x1B2A PUSH1 0x20 DUP4 ADD DUP5 PUSH2 0x1497 JUMP JUMPDEST SWAP5 SWAP4 POP POP POP POP JUMP JUMPDEST PUSH32 0x496E76616C6964206C6F636B20706572696F642E000000000000000000000000 PUSH1 0x0 DUP3 ADD MSTORE POP JUMP JUMPDEST PUSH1 0x0 PUSH2 0x1B68 PUSH1 0x14 DUP4 PUSH2 0x16DE JUMP JUMPDEST SWAP2 POP PUSH2 0x1B73 DUP3 PUSH2 0x1B32 JUMP JUMPDEST PUSH1 0x20 DUP3 ADD SWAP1 POP SWAP2 SWAP1 POP JUMP JUMPDEST PUSH1 0x0 PUSH1 0x20 DUP3 ADD SWAP1 POP DUP2 DUP2 SUB PUSH1 0x0 DUP4 ADD MSTORE PUSH2 0x1B97 DUP2 PUSH2 0x1B5B JUMP JUMPDEST SWAP1 POP SWAP2 SWAP1 POP JUMP JUMPDEST PUSH32 0x5265656E7472616E637947756172643A207265656E7472616E742063616C6C00 PUSH1 0x0 DUP3 ADD MSTORE POP JUMP JUMPDEST PUSH1 0x0 PUSH2 0x1BD4 PUSH1 0x1F DUP4 PUSH2 0x16DE JUMP JUMPDEST SWAP2 POP PUSH2 0x1BDF DUP3 PUSH2 0x1B9E JUMP JUMPDEST PUSH1 0x20 DUP3 ADD SWAP1 POP SWAP2 SWAP1 POP JUMP JUMPDEST PUSH1 0x0 PUSH1 0x20 DUP3 ADD SWAP1 POP DUP2 DUP2 SUB PUSH1 0x0 DUP4 ADD MSTORE PUSH2 0x1C03 DUP2 PUSH2 0x1BC7 JUMP JUMPDEST SWAP1 POP SWAP2 SWAP1 POP JUMP JUMPDEST PUSH32 0x4E6F742061626C6520746F20756E6C6F636B2079657400000000000000000000 PUSH1 0x0 DUP3 ADD MSTORE POP JUMP JUMPDEST PUSH1 0x0 PUSH2 0x1C40 PUSH1 0x16 DUP4 PUSH2 0x16DE JUMP JUMPDEST SWAP2 POP PUSH2 0x1C4B DUP3 PUSH2 0x1C0A JUMP JUMPDEST PUSH1 0x20 DUP3 ADD SWAP1 POP SWAP2 SWAP1 POP JUMP JUMPDEST PUSH1 0x0 PUSH1 0x20 DUP3 ADD SWAP1 POP DUP2 DUP2 SUB PUSH1 0x0 DUP4 ADD MSTORE PUSH2 0x1C6F DUP2 PUSH2 0x1C33 JUMP JUMPDEST SWAP1 POP SWAP2 SWAP1 POP JUMP JUMPDEST PUSH1 0x0 PUSH1 0x60 DUP3 ADD SWAP1 POP PUSH2 0x1C8B PUSH1 0x0 DUP4 ADD DUP7 PUSH2 0x161F JUMP JUMPDEST PUSH2 0x1C98 PUSH1 0x20 DUP4 ADD DUP6 PUSH2 0x161F JUMP JUMPDEST PUSH2 0x1CA5 PUSH1 0x40 DUP4 ADD DUP5 PUSH2 0x1497 JUMP JUMPDEST SWAP5 SWAP4 POP POP POP POP JUMP JUMPDEST PUSH1 0x0 PUSH1 0x20 DUP3 ADD SWAP1 POP DUP2 DUP2 SUB PUSH1 0x0 DUP4 ADD MSTORE PUSH2 0x1CC8 DUP2 DUP5 DUP7 PUSH2 0x1AA4 JUMP JUMPDEST SWAP1 POP SWAP4 SWAP3 POP POP POP JUMP JUMPDEST PUSH32 0x4F776E61626C653A206E6577206F776E657220697320746865207A65726F2061 PUSH1 0x0 DUP3 ADD MSTORE PUSH32 0x6464726573730000000000000000000000000000000000000000000000000000 PUSH1 0x20 DUP3 ADD MSTORE POP JUMP JUMPDEST PUSH1 0x0 PUSH2 0x1D2D PUSH1 0x26 DUP4 PUSH2 0x16DE JUMP JUMPDEST SWAP2 POP PUSH2 0x1D38 DUP3 PUSH2 0x1CD1 JUMP JUMPDEST PUSH1 0x40 DUP3 ADD SWAP1 POP SWAP2 SWAP1 POP JUMP JUMPDEST PUSH1 0x0 PUSH1 0x20 DUP3 ADD SWAP1 POP DUP2 DUP2 SUB PUSH1 0x0 DUP4 ADD MSTORE PUSH2 0x1D5C DUP2 PUSH2 0x1D20 JUMP JUMPDEST SWAP1 POP SWAP2 SWAP1 POP JUMP JUMPDEST PUSH1 0x0 DUP2 MLOAD SWAP1 POP PUSH2 0x1D72 DUP2 PUSH2 0x1685 JUMP JUMPDEST SWAP3 SWAP2 POP POP JUMP JUMPDEST PUSH1 0x0 PUSH1 0x20 DUP3 DUP5 SUB SLT ISZERO PUSH2 0x1D8E JUMPI PUSH2 0x1D8D PUSH2 0x142A JUMP JUMPDEST JUMPDEST PUSH1 0x0 PUSH2 0x1D9C DUP5 DUP3 DUP6 ADD PUSH2 0x1D63 JUMP JUMPDEST SWAP2 POP POP SWAP3 SWAP2 POP POP JUMP JUMPDEST PUSH32 0x596F7520646F6E277420686F6C64207468697320746F6B656E00000000000000 PUSH1 0x0 DUP3 ADD MSTORE POP JUMP JUMPDEST PUSH1 0x0 PUSH2 0x1DDB PUSH1 0x19 DUP4 PUSH2 0x16DE JUMP JUMPDEST SWAP2 POP PUSH2 0x1DE6 DUP3 PUSH2 0x1DA5 JUMP JUMPDEST PUSH1 0x20 DUP3 ADD SWAP1 POP SWAP2 SWAP1 POP JUMP JUMPDEST PUSH1 0x0 PUSH1 0x20 DUP3 ADD SWAP1 POP DUP2 DUP2 SUB PUSH1 0x0 DUP4 ADD MSTORE PUSH2 0x1E0A DUP2 PUSH2 0x1DCE JUMP JUMPDEST SWAP1 POP SWAP2 SWAP1 POP JUMP JUMPDEST PUSH32 0x4F776E61626C653A2063616C6C6572206973206E6F7420746865206F776E6572 PUSH1 0x0 DUP3 ADD MSTORE POP JUMP JUMPDEST PUSH1 0x0 PUSH2 0x1E47 PUSH1 0x20 DUP4 PUSH2 0x16DE JUMP JUMPDEST SWAP2 POP PUSH2 0x1E52 DUP3 PUSH2 0x1E11 JUMP JUMPDEST PUSH1 0x20 DUP3 ADD SWAP1 POP SWAP2 SWAP1 POP JUMP JUMPDEST PUSH1 0x0 PUSH1 0x20 DUP3 ADD SWAP1 POP DUP2 DUP2 SUB PUSH1 0x0 DUP4 ADD MSTORE PUSH2 0x1E76 DUP2 PUSH2 0x1E3A JUMP JUMPDEST SWAP1 POP SWAP2 SWAP1 POP JUMP INVALID LOG2 PUSH5 0x6970667358 0x22 SLT KECCAK256 0xBD BASEFEE BALANCE 0x5D 0xD3 GASLIMIT ADDRESS 0xDA LOG0 DUP2 0xBC 0xC8 SLOAD MLOAD 0xA5 PUSH2 0xAB5A 0xC6 MSTORE PUSH14 0xC5818EF27761ECAC2C70BC64736F PUSH13 0x63430008100033000000000000 "
				},
				"gasEstimates": {
					"creation": {
						"codeDepositCost": "1571800",
						"executionCost": "infinite",
						"totalCost": "infinite"
					},
					"external": {
						"WAVE()": "2473",
						"claimRewards(uint256[])": "infinite",
						"claimedRewards(uint256)": "infinite",
						"lockNFT(uint256[])": "infinite",
						"lockPeriod()": "2474",
						"owner()": "2589",
						"renounceOwnership()": "30509",
						"rewardsPerWave(uint256)": "infinite",
						"rewardsToken(uint256)": "infinite",
						"setLockPeriod(uint256)": "infinite",
						"stakeNFT()": "infinite",
						"transferOwnership(address)": "30810",
						"unlockNFT(uint256[])": "infinite"
					},
					"internal": {
						"_rewardAmount(uint256)": "infinite"
					}
				},
				"methodIdentifiers": {
					"WAVE()": "c69d1923",
					"claimRewards(uint256[])": "5eac6239",
					"claimedRewards(uint256)": "20281a98",
					"lockNFT(uint256[])": "ff5d8450",
					"lockPeriod()": "3fd8b02f",
					"owner()": "8da5cb5b",
					"renounceOwnership()": "715018a6",
					"rewardsPerWave(uint256)": "422dc713",
					"rewardsToken(uint256)": "30d10275",
					"setLockPeriod(uint256)": "779972da",
					"stakeNFT()": "b48509e6",
					"transferOwnership(address)": "f2fde38b",
					"unlockNFT(uint256[])": "849a1e1d"
				}
			},
			"storageLayout": {
				"storage": [
					{
						"astId": 7,
						"contract": "contracts/Staking.sol:NFTStaking1",
						"label": "_owner",
						"offset": 0,
						"slot": "0",
						"type": "t_address"
					},
					{
						"astId": 123,
						"contract": "contracts/Staking.sol:NFTStaking1",
						"label": "_status",
						"offset": 0,
						"slot": "1",
						"type": "t_uint256"
					},
					{
						"astId": 616,
						"contract": "contracts/Staking.sol:NFTStaking1",
						"label": "rewardsToken",
						"offset": 0,
						"slot": "2",
						"type": "t_array(t_contract(IRewardsToken)1180)dyn_storage"
					},
					{
						"astId": 621,
						"contract": "contracts/Staking.sol:NFTStaking1",
						"label": "lockPeriod",
						"offset": 0,
						"slot": "3",
						"type": "t_uint256"
					},
					{
						"astId": 635,
						"contract": "contracts/Staking.sol:NFTStaking1",
						"label": "lockInfo",
						"offset": 0,
						"slot": "4",
						"type": "t_mapping(t_uint256,t_struct(LockInfo)630_storage)"
					},
					{
						"astId": 638,
						"contract": "contracts/Staking.sol:NFTStaking1",
						"label": "WAVE",
						"offset": 0,
						"slot": "5",
						"type": "t_uint256"
					},
					{
						"astId": 641,
						"contract": "contracts/Staking.sol:NFTStaking1",
						"label": "rewardsPerWave",
						"offset": 0,
						"slot": "6",
						"type": "t_array(t_uint256)dyn_storage"
					}
				],
				"types": {
					"t_address": {
						"encoding": "inplace",
						"label": "address",
						"numberOfBytes": "20"
					},
					"t_array(t_contract(IRewardsToken)1180)dyn_storage": {
						"base": "t_contract(IRewardsToken)1180",
						"encoding": "dynamic_array",
						"label": "contract IRewardsToken[]",
						"numberOfBytes": "32"
					},
					"t_array(t_uint256)dyn_storage": {
						"base": "t_uint256",
						"encoding": "dynamic_array",
						"label": "uint256[]",
						"numberOfBytes": "32"
					},
					"t_bool": {
						"encoding": "inplace",
						"label": "bool",
						"numberOfBytes": "1"
					},
					"t_contract(IRewardsToken)1180": {
						"encoding": "inplace",
						"label": "contract IRewardsToken",
						"numberOfBytes": "20"
					},
					"t_mapping(t_uint256,t_struct(LockInfo)630_storage)": {
						"encoding": "mapping",
						"key": "t_uint256",
						"label": "mapping(uint256 => struct NFTStaking1.LockInfo)",
						"numberOfBytes": "32",
						"value": "t_struct(LockInfo)630_storage"
					},
					"t_struct(LockInfo)630_storage": {
						"encoding": "inplace",
						"label": "struct NFTStaking1.LockInfo",
						"members": [
							{
								"astId": 623,
								"contract": "contracts/Staking.sol:NFTStaking1",
								"label": "owner",
								"offset": 0,
								"slot": "0",
								"type": "t_address"
							},
							{
								"astId": 625,
								"contract": "contracts/Staking.sol:NFTStaking1",
								"label": "lockedTime",
								"offset": 0,
								"slot": "1",
								"type": "t_uint256"
							},
							{
								"astId": 627,
								"contract": "contracts/Staking.sol:NFTStaking1",
								"label": "claimedRewards",
								"offset": 0,
								"slot": "2",
								"type": "t_uint256"
							},
							{
								"astId": 629,
								"contract": "contracts/Staking.sol:NFTStaking1",
								"label": "isUnlocked",
								"offset": 0,
								"slot": "3",
								"type": "t_bool"
							}
						],
						"numberOfBytes": "128"
					},
					"t_uint256": {
						"encoding": "inplace",
						"label": "uint256",
						"numberOfBytes": "32"
					}
				}
			},
			"userdoc": {
				"kind": "user",
				"methods": {
					"WAVE()": {
						"notice": "CONSTANTS "
					}
				},
				"version": 1
			}
		}
	}
}