{
	"contracts/Staking.sol": {
		"NFTStaking1": {
			"abi": [
				{
					"inputs": [
						{
							"internalType": "address[]",
							"name": "_stakeNFT",
							"type": "address[]"
						},
						{
							"internalType": "address[]",
							"name": "_rewardsToken",
							"type": "address[]"
						},
						{
							"internalType": "uint256",
							"name": "_lockPeriod",
							"type": "uint256"
						},
						{
							"internalType": "uint256[]",
							"name": "_rewardPerWave",
							"type": "uint256[]"
						},
						{
							"internalType": "uint256[]",
							"name": "_rewardPercentage",
							"type": "uint256[]"
						},
						{
							"internalType": "uint256",
							"name": "_wave",
							"type": "uint256"
						}
					],
					"stateMutability": "nonpayable",
					"type": "constructor"
				},
				{
					"anonymous": false,
					"inputs": [
						{
							"indexed": false,
							"internalType": "uint256",
							"name": "lockPeriod",
							"type": "uint256"
						}
					],
					"name": "LockPeriodUpdated",
					"type": "event"
				},
				{
					"anonymous": false,
					"inputs": [
						{
							"indexed": true,
							"internalType": "address",
							"name": "owner",
							"type": "address"
						},
						{
							"indexed": false,
							"internalType": "uint256[]",
							"name": "tokenIds",
							"type": "uint256[]"
						}
					],
					"name": "NFTLocked",
					"type": "event"
				},
				{
					"anonymous": false,
					"inputs": [
						{
							"indexed": true,
							"internalType": "address",
							"name": "owner",
							"type": "address"
						},
						{
							"indexed": false,
							"internalType": "uint256[]",
							"name": "tokenIds",
							"type": "uint256[]"
						}
					],
					"name": "NFTUnLocked",
					"type": "event"
				},
				{
					"anonymous": false,
					"inputs": [
						{
							"indexed": true,
							"internalType": "address",
							"name": "previousOwner",
							"type": "address"
						},
						{
							"indexed": true,
							"internalType": "address",
							"name": "newOwner",
							"type": "address"
						}
					],
					"name": "OwnershipTransferred",
					"type": "event"
				},
				{
					"anonymous": false,
					"inputs": [
						{
							"indexed": true,
							"internalType": "address",
							"name": "owner",
							"type": "address"
						},
						{
							"indexed": false,
							"internalType": "uint256[]",
							"name": "tokenIds",
							"type": "uint256[]"
						},
						{
							"indexed": false,
							"internalType": "uint256",
							"name": "rewards",
							"type": "uint256"
						}
					],
					"name": "RewardsClaimed",
					"type": "event"
				},
				{
					"inputs": [],
					"name": "WAVE",
					"outputs": [
						{
							"internalType": "uint256",
							"name": "",
							"type": "uint256"
						}
					],
					"stateMutability": "view",
					"type": "function"
				},
				{
					"inputs": [
						{
							"internalType": "uint256[]",
							"name": "_tokenIds",
							"type": "uint256[]"
						},
						{
							"internalType": "contract IERC721",
							"name": "nftAddress",
							"type": "address"
						}
					],
					"name": "claimRewards",
					"outputs": [],
					"stateMutability": "nonpayable",
					"type": "function"
				},
				{
					"inputs": [
						{
							"internalType": "uint256",
							"name": "_tokenId",
							"type": "uint256"
						}
					],
					"name": "claimedRewards",
					"outputs": [
						{
							"internalType": "uint256",
							"name": "",
							"type": "uint256"
						}
					],
					"stateMutability": "view",
					"type": "function"
				},
				{
					"inputs": [
						{
							"internalType": "uint256",
							"name": "",
							"type": "uint256"
						}
					],
					"name": "lockInfo",
					"outputs": [
						{
							"internalType": "address",
							"name": "owner",
							"type": "address"
						},
						{
							"internalType": "uint256",
							"name": "lockedTime",
							"type": "uint256"
						},
						{
							"internalType": "uint256",
							"name": "claimedRewards",
							"type": "uint256"
						},
						{
							"internalType": "bool",
							"name": "isUnlocked",
							"type": "bool"
						},
						{
							"internalType": "contract IERC721",
							"name": "contractAddress",
							"type": "address"
						}
					],
					"stateMutability": "view",
					"type": "function"
				},
				{
					"inputs": [
						{
							"internalType": "uint256[]",
							"name": "_tokenIds",
							"type": "uint256[]"
						},
						{
							"internalType": "contract IERC721",
							"name": "nftAddress",
							"type": "address"
						}
					],
					"name": "lockNFT",
					"outputs": [],
					"stateMutability": "nonpayable",
					"type": "function"
				},
				{
					"inputs": [],
					"name": "lockPeriod",
					"outputs": [
						{
							"internalType": "uint256",
							"name": "",
							"type": "uint256"
						}
					],
					"stateMutability": "view",
					"type": "function"
				},
				{
					"inputs": [],
					"name": "owner",
					"outputs": [
						{
							"internalType": "address",
							"name": "",
							"type": "address"
						}
					],
					"stateMutability": "view",
					"type": "function"
				},
				{
					"inputs": [],
					"name": "renounceOwnership",
					"outputs": [],
					"stateMutability": "nonpayable",
					"type": "function"
				},
				{
					"inputs": [
						{
							"internalType": "uint256",
							"name": "_lockPeriod",
							"type": "uint256"
						}
					],
					"name": "setLockPeriod",
					"outputs": [],
					"stateMutability": "nonpayable",
					"type": "function"
				},
				{
					"inputs": [
						{
							"internalType": "uint256",
							"name": "",
							"type": "uint256"
						}
					],
					"name": "tokenOwner",
					"outputs": [
						{
							"internalType": "address",
							"name": "",
							"type": "address"
						}
					],
					"stateMutability": "view",
					"type": "function"
				},
				{
					"inputs": [
						{
							"internalType": "address",
							"name": "newOwner",
							"type": "address"
						}
					],
					"name": "transferOwnership",
					"outputs": [],
					"stateMutability": "nonpayable",
					"type": "function"
				},
				{
					"inputs": [
						{
							"internalType": "uint256[]",
							"name": "_tokenIds",
							"type": "uint256[]"
						},
						{
							"internalType": "contract IERC721",
							"name": "nftAddress",
							"type": "address"
						}
					],
					"name": "unlockNFT",
					"outputs": [],
					"stateMutability": "nonpayable",
					"type": "function"
				}
			],
			"devdoc": {
				"kind": "dev",
				"methods": {
					"claimRewards(uint256[],address)": {
						"details": "claim rewards",
						"params": {
							"_tokenIds": "token ids to unlock"
						}
					},
					"claimedRewards(uint256)": {
						"details": "get total claimed rewards for token id",
						"params": {
							"_tokenId": "token id to get claimed Rewards amount"
						}
					},
					"lockNFT(uint256[],address)": {
						"details": "lock NFT into the contract",
						"params": {
							"_tokenIds": "token ids to stake"
						}
					},
					"owner()": {
						"details": "Returns the address of the current owner."
					},
					"renounceOwnership()": {
						"details": "Leaves the contract without owner. It will not be possible to call `onlyOwner` functions anymore. Can only be called by the current owner. NOTE: Renouncing ownership will leave the contract without an owner, thereby removing any functionality that is only available to the owner."
					},
					"setLockPeriod(uint256)": {
						"details": "update lock period",
						"params": {
							"_lockPeriod": "lock period to set"
						}
					},
					"transferOwnership(address)": {
						"details": "Transfers ownership of the contract to a new account (`newOwner`). Can only be called by the current owner."
					},
					"unlockNFT(uint256[],address)": {
						"details": "unlock NFT from the contract",
						"params": {
							"_tokenIds": "token ids to unlock"
						}
					}
				},
				"version": 1
			},
			"evm": {
				"assembly": "    /* \"contracts/Staking.sol\":412:6826  contract NFTStaking1 is Ownable, ReentrancyGuard {... */\n  mstore(0x40, 0x80)\n    /* \"contracts/Staking.sol\":1594:2516  constructor(... */\n  callvalue\n  dup1\n  iszero\n  tag_1\n  jumpi\n  0x00\n  dup1\n  revert\ntag_1:\n  pop\n  mload(0x40)\n  sub(codesize, bytecodeSize)\n  dup1\n  bytecodeSize\n  dup4\n  codecopy\n  dup2\n  dup2\n  add\n  0x40\n  mstore\n  dup2\n  add\n  swap1\n  tag_2\n  swap2\n  swap1\n  tag_3\n  jump\t// in\ntag_2:\n    /* \"@openzeppelin/contracts/access/Ownable.sol\":936:968  _transferOwnership(_msgSender()) */\n  tag_8\n    /* \"@openzeppelin/contracts/access/Ownable.sol\":955:967  _msgSender() */\n  tag_9\n    /* \"@openzeppelin/contracts/access/Ownable.sol\":955:965  _msgSender */\n  shl(0x20, tag_10)\n    /* \"@openzeppelin/contracts/access/Ownable.sol\":955:967  _msgSender() */\n  0x20\n  shr\n  jump\t// in\ntag_9:\n    /* \"@openzeppelin/contracts/access/Ownable.sol\":936:954  _transferOwnership */\n  shl(0x20, tag_11)\n    /* \"@openzeppelin/contracts/access/Ownable.sol\":936:968  _transferOwnership(_msgSender()) */\n  0x20\n  shr\n  jump\t// in\ntag_8:\n    /* \"@openzeppelin/contracts/security/ReentrancyGuard.sol\":1701:1702  1 */\n  0x01\n    /* \"@openzeppelin/contracts/security/ReentrancyGuard.sol\":1806:1813  _status */\n  dup1\n    /* \"@openzeppelin/contracts/security/ReentrancyGuard.sol\":1806:1828  _status = _NOT_ENTERED */\n  dup2\n  swap1\n  sstore\n  pop\n    /* \"contracts/Staking.sol\":2100:2101  0 */\n  0x00\n    /* \"contracts/Staking.sol\":2086:2097  _lockPeriod */\n  dup5\n    /* \"contracts/Staking.sol\":2086:2101  _lockPeriod > 0 */\n  gt\n    /* \"contracts/Staking.sol\":2078:2125  require(_lockPeriod > 0, \"Invalid lock period\") */\n  tag_14\n  jumpi\n  mload(0x40)\n  0x08c379a000000000000000000000000000000000000000000000000000000000\n  dup2\n  mstore\n  0x04\n  add\n  tag_15\n  swap1\n  tag_16\n  jump\t// in\ntag_15:\n  mload(0x40)\n  dup1\n  swap2\n  sub\n  swap1\n  revert\ntag_14:\n    /* \"contracts/Staking.sol\":2143:2149  uint i */\n  0x00\n    /* \"contracts/Staking.sol\":2138:2449  for (uint i = 0; i < _stakeNFT.length; i++) {... */\ntag_17:\n    /* \"contracts/Staking.sol\":2159:2168  _stakeNFT */\n  dup7\n    /* \"contracts/Staking.sol\":2159:2175  _stakeNFT.length */\n  mload\n    /* \"contracts/Staking.sol\":2155:2156  i */\n  dup2\n    /* \"contracts/Staking.sol\":2155:2175  i < _stakeNFT.length */\n  lt\n    /* \"contracts/Staking.sol\":2138:2449  for (uint i = 0; i < _stakeNFT.length; i++) {... */\n  iszero\n  tag_18\n  jumpi\n    /* \"contracts/Staking.sol\":2259:2272  _rewardsToken */\n  dup6\n    /* \"contracts/Staking.sol\":2273:2274  i */\n  dup2\n    /* \"contracts/Staking.sol\":2259:2275  _rewardsToken[i] */\n  dup2\n  mload\n  dup2\n  lt\n  tag_20\n  jumpi\n  tag_21\n  tag_22\n  jump\t// in\ntag_21:\ntag_20:\n  0x20\n  mul\n  0x20\n  add\n  add\n  mload\n    /* \"contracts/Staking.sol\":2199:2206  nftInfo */\n  0x04\n    /* \"contracts/Staking.sol\":2199:2229  nftInfo[IERC721(_stakeNFT[i])] */\n  0x00\n    /* \"contracts/Staking.sol\":2215:2224  _stakeNFT */\n  dup10\n    /* \"contracts/Staking.sol\":2225:2226  i */\n  dup5\n    /* \"contracts/Staking.sol\":2215:2227  _stakeNFT[i] */\n  dup2\n  mload\n  dup2\n  lt\n  tag_23\n  jumpi\n  tag_24\n  tag_22\n  jump\t// in\ntag_24:\ntag_23:\n  0x20\n  mul\n  0x20\n  add\n  add\n  mload\n    /* \"contracts/Staking.sol\":2199:2229  nftInfo[IERC721(_stakeNFT[i])] */\n  0xffffffffffffffffffffffffffffffffffffffff\n  and\n  0xffffffffffffffffffffffffffffffffffffffff\n  and\n  dup2\n  mstore\n  0x20\n  add\n  swap1\n  dup2\n  mstore\n  0x20\n  add\n  0x00\n  keccak256\n    /* \"contracts/Staking.sol\":2199:2242  nftInfo[IERC721(_stakeNFT[i])].rewardsToken */\n  0x00\n  add\n  0x00\n    /* \"contracts/Staking.sol\":2199:2276  nftInfo[IERC721(_stakeNFT[i])].rewardsToken = IRewardsToken(_rewardsToken[i]) */\n  0x0100\n  exp\n  dup2\n  sload\n  dup2\n  0xffffffffffffffffffffffffffffffffffffffff\n  mul\n  not\n  and\n  swap1\n  dup4\n  0xffffffffffffffffffffffffffffffffffffffff\n  and\n  mul\n  or\n  swap1\n  sstore\n  pop\n    /* \"contracts/Staking.sol\":2339:2353  _rewardPerWave */\n  dup4\n    /* \"contracts/Staking.sol\":2354:2355  i */\n  dup2\n    /* \"contracts/Staking.sol\":2339:2356  _rewardPerWave[i] */\n  dup2\n  mload\n  dup2\n  lt\n  tag_25\n  jumpi\n  tag_26\n  tag_22\n  jump\t// in\ntag_26:\ntag_25:\n  0x20\n  mul\n  0x20\n  add\n  add\n  mload\n    /* \"contracts/Staking.sol\":2291:2298  nftInfo */\n  0x04\n    /* \"contracts/Staking.sol\":2291:2321  nftInfo[IERC721(_stakeNFT[i])] */\n  0x00\n    /* \"contracts/Staking.sol\":2307:2316  _stakeNFT */\n  dup10\n    /* \"contracts/Staking.sol\":2317:2318  i */\n  dup5\n    /* \"contracts/Staking.sol\":2307:2319  _stakeNFT[i] */\n  dup2\n  mload\n  dup2\n  lt\n  tag_27\n  jumpi\n  tag_28\n  tag_22\n  jump\t// in\ntag_28:\ntag_27:\n  0x20\n  mul\n  0x20\n  add\n  add\n  mload\n    /* \"contracts/Staking.sol\":2291:2321  nftInfo[IERC721(_stakeNFT[i])] */\n  0xffffffffffffffffffffffffffffffffffffffff\n  and\n  0xffffffffffffffffffffffffffffffffffffffff\n  and\n  dup2\n  mstore\n  0x20\n  add\n  swap1\n  dup2\n  mstore\n  0x20\n  add\n  0x00\n  keccak256\n    /* \"contracts/Staking.sol\":2291:2336  nftInfo[IERC721(_stakeNFT[i])].rewardsPerWave */\n  0x01\n  add\n    /* \"contracts/Staking.sol\":2291:2356  nftInfo[IERC721(_stakeNFT[i])].rewardsPerWave = _rewardPerWave[i] */\n  dup2\n  swap1\n  sstore\n  pop\n    /* \"contracts/Staking.sol\":2421:2438  _rewardPercentage */\n  dup3\n    /* \"contracts/Staking.sol\":2439:2440  i */\n  dup2\n    /* \"contracts/Staking.sol\":2421:2441  _rewardPercentage[i] */\n  dup2\n  mload\n  dup2\n  lt\n  tag_29\n  jumpi\n  tag_30\n  tag_22\n  jump\t// in\ntag_30:\ntag_29:\n  0x20\n  mul\n  0x20\n  add\n  add\n  mload\n    /* \"contracts/Staking.sol\":2371:2378  nftInfo */\n  0x04\n    /* \"contracts/Staking.sol\":2371:2401  nftInfo[IERC721(_stakeNFT[i])] */\n  0x00\n    /* \"contracts/Staking.sol\":2387:2396  _stakeNFT */\n  dup10\n    /* \"contracts/Staking.sol\":2397:2398  i */\n  dup5\n    /* \"contracts/Staking.sol\":2387:2399  _stakeNFT[i] */\n  dup2\n  mload\n  dup2\n  lt\n  tag_31\n  jumpi\n  tag_32\n  tag_22\n  jump\t// in\ntag_32:\ntag_31:\n  0x20\n  mul\n  0x20\n  add\n  add\n  mload\n    /* \"contracts/Staking.sol\":2371:2401  nftInfo[IERC721(_stakeNFT[i])] */\n  0xffffffffffffffffffffffffffffffffffffffff\n  and\n  0xffffffffffffffffffffffffffffffffffffffff\n  and\n  dup2\n  mstore\n  0x20\n  add\n  swap1\n  dup2\n  mstore\n  0x20\n  add\n  0x00\n  keccak256\n    /* \"contracts/Staking.sol\":2371:2418  nftInfo[IERC721(_stakeNFT[i])].rewardPercentage */\n  0x02\n  add\n    /* \"contracts/Staking.sol\":2371:2441  nftInfo[IERC721(_stakeNFT[i])].rewardPercentage = _rewardPercentage[i] */\n  dup2\n  swap1\n  sstore\n  pop\n    /* \"contracts/Staking.sol\":2177:2180  i++ */\n  dup1\n  dup1\n  tag_33\n  swap1\n  tag_34\n  jump\t// in\ntag_33:\n  swap2\n  pop\n  pop\n    /* \"contracts/Staking.sol\":2138:2449  for (uint i = 0; i < _stakeNFT.length; i++) {... */\n  jump(tag_17)\ntag_18:\n  pop\n    /* \"contracts/Staking.sol\":2474:2485  _lockPeriod */\n  dup4\n    /* \"contracts/Staking.sol\":2461:2471  lockPeriod */\n  0x02\n    /* \"contracts/Staking.sol\":2461:2485  lockPeriod = _lockPeriod */\n  dup2\n  swap1\n  sstore\n  pop\n    /* \"contracts/Staking.sol\":2503:2508  _wave */\n  dup1\n    /* \"contracts/Staking.sol\":2496:2500  WAVE */\n  0x06\n    /* \"contracts/Staking.sol\":2496:2508  WAVE = _wave */\n  dup2\n  swap1\n  sstore\n  pop\n    /* \"contracts/Staking.sol\":1594:2516  constructor(... */\n  pop\n  pop\n  pop\n  pop\n  pop\n  pop\n    /* \"contracts/Staking.sol\":412:6826  contract NFTStaking1 is Ownable, ReentrancyGuard {... */\n  jump(tag_35)\n    /* \"@openzeppelin/contracts/utils/Context.sol\":640:736  function _msgSender() internal view virtual returns (address) {... */\ntag_10:\n    /* \"@openzeppelin/contracts/utils/Context.sol\":693:700  address */\n  0x00\n    /* \"@openzeppelin/contracts/utils/Context.sol\":719:729  msg.sender */\n  caller\n    /* \"@openzeppelin/contracts/utils/Context.sol\":712:729  return msg.sender */\n  swap1\n  pop\n    /* \"@openzeppelin/contracts/utils/Context.sol\":640:736  function _msgSender() internal view virtual returns (address) {... */\n  swap1\n  jump\t// out\n    /* \"@openzeppelin/contracts/access/Ownable.sol\":2433:2620  function _transferOwnership(address newOwner) internal virtual {... */\ntag_11:\n    /* \"@openzeppelin/contracts/access/Ownable.sol\":2506:2522  address oldOwner */\n  0x00\n    /* \"@openzeppelin/contracts/access/Ownable.sol\":2525:2531  _owner */\n  dup1\n  0x00\n  swap1\n  sload\n  swap1\n  0x0100\n  exp\n  swap1\n  div\n  0xffffffffffffffffffffffffffffffffffffffff\n  and\n    /* \"@openzeppelin/contracts/access/Ownable.sol\":2506:2531  address oldOwner = _owner */\n  swap1\n  pop\n    /* \"@openzeppelin/contracts/access/Ownable.sol\":2550:2558  newOwner */\n  dup2\n    /* \"@openzeppelin/contracts/access/Ownable.sol\":2541:2547  _owner */\n  0x00\n  dup1\n    /* \"@openzeppelin/contracts/access/Ownable.sol\":2541:2558  _owner = newOwner */\n  0x0100\n  exp\n  dup2\n  sload\n  dup2\n  0xffffffffffffffffffffffffffffffffffffffff\n  mul\n  not\n  and\n  swap1\n  dup4\n  0xffffffffffffffffffffffffffffffffffffffff\n  and\n  mul\n  or\n  swap1\n  sstore\n  pop\n    /* \"@openzeppelin/contracts/access/Ownable.sol\":2604:2612  newOwner */\n  dup2\n    /* \"@openzeppelin/contracts/access/Ownable.sol\":2573:2613  OwnershipTransferred(oldOwner, newOwner) */\n  0xffffffffffffffffffffffffffffffffffffffff\n  and\n    /* \"@openzeppelin/contracts/access/Ownable.sol\":2594:2602  oldOwner */\n  dup2\n    /* \"@openzeppelin/contracts/access/Ownable.sol\":2573:2613  OwnershipTransferred(oldOwner, newOwner) */\n  0xffffffffffffffffffffffffffffffffffffffff\n  and\n  0x8be0079c531659141344cd1fd0a4f28419497f9722a3daafe3b4186f6b6457e0\n  mload(0x40)\n  mload(0x40)\n  dup1\n  swap2\n  sub\n  swap1\n  log3\n    /* \"@openzeppelin/contracts/access/Ownable.sol\":2496:2620  {... */\n  pop\n    /* \"@openzeppelin/contracts/access/Ownable.sol\":2433:2620  function _transferOwnership(address newOwner) internal virtual {... */\n  pop\n  jump\t// out\n    /* \"#utility.yul\":7:82   */\ntag_38:\n    /* \"#utility.yul\":40:46   */\n  0x00\n    /* \"#utility.yul\":73:75   */\n  0x40\n    /* \"#utility.yul\":67:76   */\n  mload\n    /* \"#utility.yul\":57:76   */\n  swap1\n  pop\n    /* \"#utility.yul\":7:82   */\n  swap1\n  jump\t// out\n    /* \"#utility.yul\":88:205   */\ntag_39:\n    /* \"#utility.yul\":197:198   */\n  0x00\n    /* \"#utility.yul\":194:195   */\n  dup1\n    /* \"#utility.yul\":187:199   */\n  revert\n    /* \"#utility.yul\":211:328   */\ntag_40:\n    /* \"#utility.yul\":320:321   */\n  0x00\n    /* \"#utility.yul\":317:318   */\n  dup1\n    /* \"#utility.yul\":310:322   */\n  revert\n    /* \"#utility.yul\":334:451   */\ntag_41:\n    /* \"#utility.yul\":443:444   */\n  0x00\n    /* \"#utility.yul\":440:441   */\n  dup1\n    /* \"#utility.yul\":433:445   */\n  revert\n    /* \"#utility.yul\":457:559   */\ntag_42:\n    /* \"#utility.yul\":498:504   */\n  0x00\n    /* \"#utility.yul\":549:551   */\n  0x1f\n    /* \"#utility.yul\":545:552   */\n  not\n    /* \"#utility.yul\":540:542   */\n  0x1f\n    /* \"#utility.yul\":533:538   */\n  dup4\n    /* \"#utility.yul\":529:543   */\n  add\n    /* \"#utility.yul\":525:553   */\n  and\n    /* \"#utility.yul\":515:553   */\n  swap1\n  pop\n    /* \"#utility.yul\":457:559   */\n  swap2\n  swap1\n  pop\n  jump\t// out\n    /* \"#utility.yul\":565:745   */\ntag_43:\n    /* \"#utility.yul\":613:690   */\n  0x4e487b7100000000000000000000000000000000000000000000000000000000\n    /* \"#utility.yul\":610:611   */\n  0x00\n    /* \"#utility.yul\":603:691   */\n  mstore\n    /* \"#utility.yul\":710:714   */\n  0x41\n    /* \"#utility.yul\":707:708   */\n  0x04\n    /* \"#utility.yul\":700:715   */\n  mstore\n    /* \"#utility.yul\":734:738   */\n  0x24\n    /* \"#utility.yul\":731:732   */\n  0x00\n    /* \"#utility.yul\":724:739   */\n  revert\n    /* \"#utility.yul\":751:1032   */\ntag_44:\n    /* \"#utility.yul\":834:861   */\n  tag_72\n    /* \"#utility.yul\":856:860   */\n  dup3\n    /* \"#utility.yul\":834:861   */\n  tag_42\n  jump\t// in\ntag_72:\n    /* \"#utility.yul\":826:832   */\n  dup2\n    /* \"#utility.yul\":822:862   */\n  add\n    /* \"#utility.yul\":964:970   */\n  dup2\n    /* \"#utility.yul\":952:962   */\n  dup2\n    /* \"#utility.yul\":949:971   */\n  lt\n    /* \"#utility.yul\":928:946   */\n  0xffffffffffffffff\n    /* \"#utility.yul\":916:926   */\n  dup3\n    /* \"#utility.yul\":913:947   */\n  gt\n    /* \"#utility.yul\":910:972   */\n  or\n    /* \"#utility.yul\":907:995   */\n  iszero\n  tag_73\n  jumpi\n    /* \"#utility.yul\":975:993   */\n  tag_74\n  tag_43\n  jump\t// in\ntag_74:\n    /* \"#utility.yul\":907:995   */\ntag_73:\n    /* \"#utility.yul\":1015:1025   */\n  dup1\n    /* \"#utility.yul\":1011:1013   */\n  0x40\n    /* \"#utility.yul\":1004:1026   */\n  mstore\n    /* \"#utility.yul\":794:1032   */\n  pop\n    /* \"#utility.yul\":751:1032   */\n  pop\n  pop\n  jump\t// out\n    /* \"#utility.yul\":1038:1167   */\ntag_45:\n    /* \"#utility.yul\":1072:1078   */\n  0x00\n    /* \"#utility.yul\":1099:1119   */\n  tag_76\n  tag_38\n  jump\t// in\ntag_76:\n    /* \"#utility.yul\":1089:1119   */\n  swap1\n  pop\n    /* \"#utility.yul\":1128:1161   */\n  tag_77\n    /* \"#utility.yul\":1156:1160   */\n  dup3\n    /* \"#utility.yul\":1148:1154   */\n  dup3\n    /* \"#utility.yul\":1128:1161   */\n  tag_44\n  jump\t// in\ntag_77:\n    /* \"#utility.yul\":1038:1167   */\n  swap2\n  swap1\n  pop\n  jump\t// out\n    /* \"#utility.yul\":1173:1484   */\ntag_46:\n    /* \"#utility.yul\":1250:1254   */\n  0x00\n    /* \"#utility.yul\":1340:1358   */\n  0xffffffffffffffff\n    /* \"#utility.yul\":1332:1338   */\n  dup3\n    /* \"#utility.yul\":1329:1359   */\n  gt\n    /* \"#utility.yul\":1326:1382   */\n  iszero\n  tag_79\n  jumpi\n    /* \"#utility.yul\":1362:1380   */\n  tag_80\n  tag_43\n  jump\t// in\ntag_80:\n    /* \"#utility.yul\":1326:1382   */\ntag_79:\n    /* \"#utility.yul\":1412:1416   */\n  0x20\n    /* \"#utility.yul\":1404:1410   */\n  dup3\n    /* \"#utility.yul\":1400:1417   */\n  mul\n    /* \"#utility.yul\":1392:1417   */\n  swap1\n  pop\n    /* \"#utility.yul\":1472:1476   */\n  0x20\n    /* \"#utility.yul\":1466:1470   */\n  dup2\n    /* \"#utility.yul\":1462:1477   */\n  add\n    /* \"#utility.yul\":1454:1477   */\n  swap1\n  pop\n    /* \"#utility.yul\":1173:1484   */\n  swap2\n  swap1\n  pop\n  jump\t// out\n    /* \"#utility.yul\":1490:1607   */\ntag_47:\n    /* \"#utility.yul\":1599:1600   */\n  0x00\n    /* \"#utility.yul\":1596:1597   */\n  dup1\n    /* \"#utility.yul\":1589:1601   */\n  revert\n    /* \"#utility.yul\":1613:1739   */\ntag_48:\n    /* \"#utility.yul\":1650:1657   */\n  0x00\n    /* \"#utility.yul\":1690:1732   */\n  0xffffffffffffffffffffffffffffffffffffffff\n    /* \"#utility.yul\":1683:1688   */\n  dup3\n    /* \"#utility.yul\":1679:1733   */\n  and\n    /* \"#utility.yul\":1668:1733   */\n  swap1\n  pop\n    /* \"#utility.yul\":1613:1739   */\n  swap2\n  swap1\n  pop\n  jump\t// out\n    /* \"#utility.yul\":1745:1841   */\ntag_49:\n    /* \"#utility.yul\":1782:1789   */\n  0x00\n    /* \"#utility.yul\":1811:1835   */\n  tag_84\n    /* \"#utility.yul\":1829:1834   */\n  dup3\n    /* \"#utility.yul\":1811:1835   */\n  tag_48\n  jump\t// in\ntag_84:\n    /* \"#utility.yul\":1800:1835   */\n  swap1\n  pop\n    /* \"#utility.yul\":1745:1841   */\n  swap2\n  swap1\n  pop\n  jump\t// out\n    /* \"#utility.yul\":1847:1969   */\ntag_50:\n    /* \"#utility.yul\":1920:1944   */\n  tag_86\n    /* \"#utility.yul\":1938:1943   */\n  dup2\n    /* \"#utility.yul\":1920:1944   */\n  tag_49\n  jump\t// in\ntag_86:\n    /* \"#utility.yul\":1913:1918   */\n  dup2\n    /* \"#utility.yul\":1910:1945   */\n  eq\n    /* \"#utility.yul\":1900:1963   */\n  tag_87\n  jumpi\n    /* \"#utility.yul\":1959:1960   */\n  0x00\n    /* \"#utility.yul\":1956:1957   */\n  dup1\n    /* \"#utility.yul\":1949:1961   */\n  revert\n    /* \"#utility.yul\":1900:1963   */\ntag_87:\n    /* \"#utility.yul\":1847:1969   */\n  pop\n  jump\t// out\n    /* \"#utility.yul\":1975:2118   */\ntag_51:\n    /* \"#utility.yul\":2032:2037   */\n  0x00\n    /* \"#utility.yul\":2063:2069   */\n  dup2\n    /* \"#utility.yul\":2057:2070   */\n  mload\n    /* \"#utility.yul\":2048:2070   */\n  swap1\n  pop\n    /* \"#utility.yul\":2079:2112   */\n  tag_89\n    /* \"#utility.yul\":2106:2111   */\n  dup2\n    /* \"#utility.yul\":2079:2112   */\n  tag_50\n  jump\t// in\ntag_89:\n    /* \"#utility.yul\":1975:2118   */\n  swap3\n  swap2\n  pop\n  pop\n  jump\t// out\n    /* \"#utility.yul\":2141:2873   */\ntag_52:\n    /* \"#utility.yul\":2248:2253   */\n  0x00\n    /* \"#utility.yul\":2273:2354   */\n  tag_91\n    /* \"#utility.yul\":2289:2353   */\n  tag_92\n    /* \"#utility.yul\":2346:2352   */\n  dup5\n    /* \"#utility.yul\":2289:2353   */\n  tag_46\n  jump\t// in\ntag_92:\n    /* \"#utility.yul\":2273:2354   */\n  tag_45\n  jump\t// in\ntag_91:\n    /* \"#utility.yul\":2264:2354   */\n  swap1\n  pop\n    /* \"#utility.yul\":2374:2379   */\n  dup1\n    /* \"#utility.yul\":2403:2409   */\n  dup4\n    /* \"#utility.yul\":2396:2401   */\n  dup3\n    /* \"#utility.yul\":2389:2410   */\n  mstore\n    /* \"#utility.yul\":2437:2441   */\n  0x20\n    /* \"#utility.yul\":2430:2435   */\n  dup3\n    /* \"#utility.yul\":2426:2442   */\n  add\n    /* \"#utility.yul\":2419:2442   */\n  swap1\n  pop\n    /* \"#utility.yul\":2490:2494   */\n  0x20\n    /* \"#utility.yul\":2482:2488   */\n  dup5\n    /* \"#utility.yul\":2478:2495   */\n  mul\n    /* \"#utility.yul\":2470:2476   */\n  dup4\n    /* \"#utility.yul\":2466:2496   */\n  add\n    /* \"#utility.yul\":2519:2522   */\n  dup6\n    /* \"#utility.yul\":2511:2517   */\n  dup2\n    /* \"#utility.yul\":2508:2523   */\n  gt\n    /* \"#utility.yul\":2505:2627   */\n  iszero\n  tag_93\n  jumpi\n    /* \"#utility.yul\":2538:2617   */\n  tag_94\n  tag_47\n  jump\t// in\ntag_94:\n    /* \"#utility.yul\":2505:2627   */\ntag_93:\n    /* \"#utility.yul\":2653:2659   */\n  dup4\n    /* \"#utility.yul\":2636:2867   */\ntag_95:\n    /* \"#utility.yul\":2670:2676   */\n  dup2\n    /* \"#utility.yul\":2665:2668   */\n  dup2\n    /* \"#utility.yul\":2662:2677   */\n  lt\n    /* \"#utility.yul\":2636:2867   */\n  iszero\n  tag_97\n  jumpi\n    /* \"#utility.yul\":2745:2748   */\n  dup1\n    /* \"#utility.yul\":2774:2822   */\n  tag_98\n    /* \"#utility.yul\":2818:2821   */\n  dup9\n    /* \"#utility.yul\":2806:2816   */\n  dup3\n    /* \"#utility.yul\":2774:2822   */\n  tag_51\n  jump\t// in\ntag_98:\n    /* \"#utility.yul\":2769:2772   */\n  dup5\n    /* \"#utility.yul\":2762:2823   */\n  mstore\n    /* \"#utility.yul\":2852:2856   */\n  0x20\n    /* \"#utility.yul\":2847:2850   */\n  dup5\n    /* \"#utility.yul\":2843:2857   */\n  add\n    /* \"#utility.yul\":2836:2857   */\n  swap4\n  pop\n    /* \"#utility.yul\":2712:2867   */\n  pop\n    /* \"#utility.yul\":2696:2700   */\n  0x20\n    /* \"#utility.yul\":2691:2694   */\n  dup2\n    /* \"#utility.yul\":2687:2701   */\n  add\n    /* \"#utility.yul\":2680:2701   */\n  swap1\n  pop\n    /* \"#utility.yul\":2636:2867   */\n  jump(tag_95)\ntag_97:\n    /* \"#utility.yul\":2640:2661   */\n  pop\n    /* \"#utility.yul\":2254:2873   */\n  pop\n  pop\n    /* \"#utility.yul\":2141:2873   */\n  swap4\n  swap3\n  pop\n  pop\n  pop\n  jump\t// out\n    /* \"#utility.yul\":2896:3281   */\ntag_53:\n    /* \"#utility.yul\":2978:2983   */\n  0x00\n    /* \"#utility.yul\":3027:3030   */\n  dup3\n    /* \"#utility.yul\":3020:3024   */\n  0x1f\n    /* \"#utility.yul\":3012:3018   */\n  dup4\n    /* \"#utility.yul\":3008:3025   */\n  add\n    /* \"#utility.yul\":3004:3031   */\n  slt\n    /* \"#utility.yul\":2994:3116   */\n  tag_100\n  jumpi\n    /* \"#utility.yul\":3035:3114   */\n  tag_101\n  tag_41\n  jump\t// in\ntag_101:\n    /* \"#utility.yul\":2994:3116   */\ntag_100:\n    /* \"#utility.yul\":3145:3151   */\n  dup2\n    /* \"#utility.yul\":3139:3152   */\n  mload\n    /* \"#utility.yul\":3170:3275   */\n  tag_102\n    /* \"#utility.yul\":3271:3274   */\n  dup5\n    /* \"#utility.yul\":3263:3269   */\n  dup3\n    /* \"#utility.yul\":3256:3260   */\n  0x20\n    /* \"#utility.yul\":3248:3254   */\n  dup7\n    /* \"#utility.yul\":3244:3261   */\n  add\n    /* \"#utility.yul\":3170:3275   */\n  tag_52\n  jump\t// in\ntag_102:\n    /* \"#utility.yul\":3161:3275   */\n  swap2\n  pop\n    /* \"#utility.yul\":2984:3281   */\n  pop\n    /* \"#utility.yul\":2896:3281   */\n  swap3\n  swap2\n  pop\n  pop\n  jump\t// out\n    /* \"#utility.yul\":3287:3364   */\ntag_54:\n    /* \"#utility.yul\":3324:3331   */\n  0x00\n    /* \"#utility.yul\":3353:3358   */\n  dup2\n    /* \"#utility.yul\":3342:3358   */\n  swap1\n  pop\n    /* \"#utility.yul\":3287:3364   */\n  swap2\n  swap1\n  pop\n  jump\t// out\n    /* \"#utility.yul\":3370:3492   */\ntag_55:\n    /* \"#utility.yul\":3443:3467   */\n  tag_105\n    /* \"#utility.yul\":3461:3466   */\n  dup2\n    /* \"#utility.yul\":3443:3467   */\n  tag_54\n  jump\t// in\ntag_105:\n    /* \"#utility.yul\":3436:3441   */\n  dup2\n    /* \"#utility.yul\":3433:3468   */\n  eq\n    /* \"#utility.yul\":3423:3486   */\n  tag_106\n  jumpi\n    /* \"#utility.yul\":3482:3483   */\n  0x00\n    /* \"#utility.yul\":3479:3480   */\n  dup1\n    /* \"#utility.yul\":3472:3484   */\n  revert\n    /* \"#utility.yul\":3423:3486   */\ntag_106:\n    /* \"#utility.yul\":3370:3492   */\n  pop\n  jump\t// out\n    /* \"#utility.yul\":3498:3641   */\ntag_56:\n    /* \"#utility.yul\":3555:3560   */\n  0x00\n    /* \"#utility.yul\":3586:3592   */\n  dup2\n    /* \"#utility.yul\":3580:3593   */\n  mload\n    /* \"#utility.yul\":3571:3593   */\n  swap1\n  pop\n    /* \"#utility.yul\":3602:3635   */\n  tag_108\n    /* \"#utility.yul\":3629:3634   */\n  dup2\n    /* \"#utility.yul\":3602:3635   */\n  tag_55\n  jump\t// in\ntag_108:\n    /* \"#utility.yul\":3498:3641   */\n  swap3\n  swap2\n  pop\n  pop\n  jump\t// out\n    /* \"#utility.yul\":3647:3958   */\ntag_57:\n    /* \"#utility.yul\":3724:3728   */\n  0x00\n    /* \"#utility.yul\":3814:3832   */\n  0xffffffffffffffff\n    /* \"#utility.yul\":3806:3812   */\n  dup3\n    /* \"#utility.yul\":3803:3833   */\n  gt\n    /* \"#utility.yul\":3800:3856   */\n  iszero\n  tag_110\n  jumpi\n    /* \"#utility.yul\":3836:3854   */\n  tag_111\n  tag_43\n  jump\t// in\ntag_111:\n    /* \"#utility.yul\":3800:3856   */\ntag_110:\n    /* \"#utility.yul\":3886:3890   */\n  0x20\n    /* \"#utility.yul\":3878:3884   */\n  dup3\n    /* \"#utility.yul\":3874:3891   */\n  mul\n    /* \"#utility.yul\":3866:3891   */\n  swap1\n  pop\n    /* \"#utility.yul\":3946:3950   */\n  0x20\n    /* \"#utility.yul\":3940:3944   */\n  dup2\n    /* \"#utility.yul\":3936:3951   */\n  add\n    /* \"#utility.yul\":3928:3951   */\n  swap1\n  pop\n    /* \"#utility.yul\":3647:3958   */\n  swap2\n  swap1\n  pop\n  jump\t// out\n    /* \"#utility.yul\":3981:4713   */\ntag_58:\n    /* \"#utility.yul\":4088:4093   */\n  0x00\n    /* \"#utility.yul\":4113:4194   */\n  tag_113\n    /* \"#utility.yul\":4129:4193   */\n  tag_114\n    /* \"#utility.yul\":4186:4192   */\n  dup5\n    /* \"#utility.yul\":4129:4193   */\n  tag_57\n  jump\t// in\ntag_114:\n    /* \"#utility.yul\":4113:4194   */\n  tag_45\n  jump\t// in\ntag_113:\n    /* \"#utility.yul\":4104:4194   */\n  swap1\n  pop\n    /* \"#utility.yul\":4214:4219   */\n  dup1\n    /* \"#utility.yul\":4243:4249   */\n  dup4\n    /* \"#utility.yul\":4236:4241   */\n  dup3\n    /* \"#utility.yul\":4229:4250   */\n  mstore\n    /* \"#utility.yul\":4277:4281   */\n  0x20\n    /* \"#utility.yul\":4270:4275   */\n  dup3\n    /* \"#utility.yul\":4266:4282   */\n  add\n    /* \"#utility.yul\":4259:4282   */\n  swap1\n  pop\n    /* \"#utility.yul\":4330:4334   */\n  0x20\n    /* \"#utility.yul\":4322:4328   */\n  dup5\n    /* \"#utility.yul\":4318:4335   */\n  mul\n    /* \"#utility.yul\":4310:4316   */\n  dup4\n    /* \"#utility.yul\":4306:4336   */\n  add\n    /* \"#utility.yul\":4359:4362   */\n  dup6\n    /* \"#utility.yul\":4351:4357   */\n  dup2\n    /* \"#utility.yul\":4348:4363   */\n  gt\n    /* \"#utility.yul\":4345:4467   */\n  iszero\n  tag_115\n  jumpi\n    /* \"#utility.yul\":4378:4457   */\n  tag_116\n  tag_47\n  jump\t// in\ntag_116:\n    /* \"#utility.yul\":4345:4467   */\ntag_115:\n    /* \"#utility.yul\":4493:4499   */\n  dup4\n    /* \"#utility.yul\":4476:4707   */\ntag_117:\n    /* \"#utility.yul\":4510:4516   */\n  dup2\n    /* \"#utility.yul\":4505:4508   */\n  dup2\n    /* \"#utility.yul\":4502:4517   */\n  lt\n    /* \"#utility.yul\":4476:4707   */\n  iszero\n  tag_119\n  jumpi\n    /* \"#utility.yul\":4585:4588   */\n  dup1\n    /* \"#utility.yul\":4614:4662   */\n  tag_120\n    /* \"#utility.yul\":4658:4661   */\n  dup9\n    /* \"#utility.yul\":4646:4656   */\n  dup3\n    /* \"#utility.yul\":4614:4662   */\n  tag_56\n  jump\t// in\ntag_120:\n    /* \"#utility.yul\":4609:4612   */\n  dup5\n    /* \"#utility.yul\":4602:4663   */\n  mstore\n    /* \"#utility.yul\":4692:4696   */\n  0x20\n    /* \"#utility.yul\":4687:4690   */\n  dup5\n    /* \"#utility.yul\":4683:4697   */\n  add\n    /* \"#utility.yul\":4676:4697   */\n  swap4\n  pop\n    /* \"#utility.yul\":4552:4707   */\n  pop\n    /* \"#utility.yul\":4536:4540   */\n  0x20\n    /* \"#utility.yul\":4531:4534   */\n  dup2\n    /* \"#utility.yul\":4527:4541   */\n  add\n    /* \"#utility.yul\":4520:4541   */\n  swap1\n  pop\n    /* \"#utility.yul\":4476:4707   */\n  jump(tag_117)\ntag_119:\n    /* \"#utility.yul\":4480:4501   */\n  pop\n    /* \"#utility.yul\":4094:4713   */\n  pop\n  pop\n    /* \"#utility.yul\":3981:4713   */\n  swap4\n  swap3\n  pop\n  pop\n  pop\n  jump\t// out\n    /* \"#utility.yul\":4736:5121   */\ntag_59:\n    /* \"#utility.yul\":4818:4823   */\n  0x00\n    /* \"#utility.yul\":4867:4870   */\n  dup3\n    /* \"#utility.yul\":4860:4864   */\n  0x1f\n    /* \"#utility.yul\":4852:4858   */\n  dup4\n    /* \"#utility.yul\":4848:4865   */\n  add\n    /* \"#utility.yul\":4844:4871   */\n  slt\n    /* \"#utility.yul\":4834:4956   */\n  tag_122\n  jumpi\n    /* \"#utility.yul\":4875:4954   */\n  tag_123\n  tag_41\n  jump\t// in\ntag_123:\n    /* \"#utility.yul\":4834:4956   */\ntag_122:\n    /* \"#utility.yul\":4985:4991   */\n  dup2\n    /* \"#utility.yul\":4979:4992   */\n  mload\n    /* \"#utility.yul\":5010:5115   */\n  tag_124\n    /* \"#utility.yul\":5111:5114   */\n  dup5\n    /* \"#utility.yul\":5103:5109   */\n  dup3\n    /* \"#utility.yul\":5096:5100   */\n  0x20\n    /* \"#utility.yul\":5088:5094   */\n  dup7\n    /* \"#utility.yul\":5084:5101   */\n  add\n    /* \"#utility.yul\":5010:5115   */\n  tag_58\n  jump\t// in\ntag_124:\n    /* \"#utility.yul\":5001:5115   */\n  swap2\n  pop\n    /* \"#utility.yul\":4824:5121   */\n  pop\n    /* \"#utility.yul\":4736:5121   */\n  swap3\n  swap2\n  pop\n  pop\n  jump\t// out\n    /* \"#utility.yul\":5127:7073   */\ntag_3:\n    /* \"#utility.yul\":5342:5348   */\n  0x00\n    /* \"#utility.yul\":5350:5356   */\n  dup1\n    /* \"#utility.yul\":5358:5364   */\n  0x00\n    /* \"#utility.yul\":5366:5372   */\n  dup1\n    /* \"#utility.yul\":5374:5380   */\n  0x00\n    /* \"#utility.yul\":5382:5388   */\n  dup1\n    /* \"#utility.yul\":5431:5434   */\n  0xc0\n    /* \"#utility.yul\":5419:5428   */\n  dup8\n    /* \"#utility.yul\":5410:5417   */\n  dup10\n    /* \"#utility.yul\":5406:5429   */\n  sub\n    /* \"#utility.yul\":5402:5435   */\n  slt\n    /* \"#utility.yul\":5399:5519   */\n  iszero\n  tag_126\n  jumpi\n    /* \"#utility.yul\":5438:5517   */\n  tag_127\n  tag_39\n  jump\t// in\ntag_127:\n    /* \"#utility.yul\":5399:5519   */\ntag_126:\n    /* \"#utility.yul\":5579:5580   */\n  0x00\n    /* \"#utility.yul\":5568:5577   */\n  dup8\n    /* \"#utility.yul\":5564:5581   */\n  add\n    /* \"#utility.yul\":5558:5582   */\n  mload\n    /* \"#utility.yul\":5609:5627   */\n  0xffffffffffffffff\n    /* \"#utility.yul\":5601:5607   */\n  dup2\n    /* \"#utility.yul\":5598:5628   */\n  gt\n    /* \"#utility.yul\":5595:5712   */\n  iszero\n  tag_128\n  jumpi\n    /* \"#utility.yul\":5631:5710   */\n  tag_129\n  tag_40\n  jump\t// in\ntag_129:\n    /* \"#utility.yul\":5595:5712   */\ntag_128:\n    /* \"#utility.yul\":5736:5825   */\n  tag_130\n    /* \"#utility.yul\":5817:5824   */\n  dup10\n    /* \"#utility.yul\":5808:5814   */\n  dup3\n    /* \"#utility.yul\":5797:5806   */\n  dup11\n    /* \"#utility.yul\":5793:5815   */\n  add\n    /* \"#utility.yul\":5736:5825   */\n  tag_53\n  jump\t// in\ntag_130:\n    /* \"#utility.yul\":5726:5825   */\n  swap7\n  pop\n    /* \"#utility.yul\":5529:5835   */\n  pop\n    /* \"#utility.yul\":5895:5897   */\n  0x20\n    /* \"#utility.yul\":5884:5893   */\n  dup8\n    /* \"#utility.yul\":5880:5898   */\n  add\n    /* \"#utility.yul\":5874:5899   */\n  mload\n    /* \"#utility.yul\":5926:5944   */\n  0xffffffffffffffff\n    /* \"#utility.yul\":5918:5924   */\n  dup2\n    /* \"#utility.yul\":5915:5945   */\n  gt\n    /* \"#utility.yul\":5912:6029   */\n  iszero\n  tag_131\n  jumpi\n    /* \"#utility.yul\":5948:6027   */\n  tag_132\n  tag_40\n  jump\t// in\ntag_132:\n    /* \"#utility.yul\":5912:6029   */\ntag_131:\n    /* \"#utility.yul\":6053:6142   */\n  tag_133\n    /* \"#utility.yul\":6134:6141   */\n  dup10\n    /* \"#utility.yul\":6125:6131   */\n  dup3\n    /* \"#utility.yul\":6114:6123   */\n  dup11\n    /* \"#utility.yul\":6110:6132   */\n  add\n    /* \"#utility.yul\":6053:6142   */\n  tag_53\n  jump\t// in\ntag_133:\n    /* \"#utility.yul\":6043:6142   */\n  swap6\n  pop\n    /* \"#utility.yul\":5845:6152   */\n  pop\n    /* \"#utility.yul\":6191:6193   */\n  0x40\n    /* \"#utility.yul\":6217:6281   */\n  tag_134\n    /* \"#utility.yul\":6273:6280   */\n  dup10\n    /* \"#utility.yul\":6264:6270   */\n  dup3\n    /* \"#utility.yul\":6253:6262   */\n  dup11\n    /* \"#utility.yul\":6249:6271   */\n  add\n    /* \"#utility.yul\":6217:6281   */\n  tag_56\n  jump\t// in\ntag_134:\n    /* \"#utility.yul\":6207:6281   */\n  swap5\n  pop\n    /* \"#utility.yul\":6162:6291   */\n  pop\n    /* \"#utility.yul\":6351:6353   */\n  0x60\n    /* \"#utility.yul\":6340:6349   */\n  dup8\n    /* \"#utility.yul\":6336:6354   */\n  add\n    /* \"#utility.yul\":6330:6355   */\n  mload\n    /* \"#utility.yul\":6382:6400   */\n  0xffffffffffffffff\n    /* \"#utility.yul\":6374:6380   */\n  dup2\n    /* \"#utility.yul\":6371:6401   */\n  gt\n    /* \"#utility.yul\":6368:6485   */\n  iszero\n  tag_135\n  jumpi\n    /* \"#utility.yul\":6404:6483   */\n  tag_136\n  tag_40\n  jump\t// in\ntag_136:\n    /* \"#utility.yul\":6368:6485   */\ntag_135:\n    /* \"#utility.yul\":6509:6598   */\n  tag_137\n    /* \"#utility.yul\":6590:6597   */\n  dup10\n    /* \"#utility.yul\":6581:6587   */\n  dup3\n    /* \"#utility.yul\":6570:6579   */\n  dup11\n    /* \"#utility.yul\":6566:6588   */\n  add\n    /* \"#utility.yul\":6509:6598   */\n  tag_59\n  jump\t// in\ntag_137:\n    /* \"#utility.yul\":6499:6598   */\n  swap4\n  pop\n    /* \"#utility.yul\":6301:6608   */\n  pop\n    /* \"#utility.yul\":6668:6671   */\n  0x80\n    /* \"#utility.yul\":6657:6666   */\n  dup8\n    /* \"#utility.yul\":6653:6672   */\n  add\n    /* \"#utility.yul\":6647:6673   */\n  mload\n    /* \"#utility.yul\":6700:6718   */\n  0xffffffffffffffff\n    /* \"#utility.yul\":6692:6698   */\n  dup2\n    /* \"#utility.yul\":6689:6719   */\n  gt\n    /* \"#utility.yul\":6686:6803   */\n  iszero\n  tag_138\n  jumpi\n    /* \"#utility.yul\":6722:6801   */\n  tag_139\n  tag_40\n  jump\t// in\ntag_139:\n    /* \"#utility.yul\":6686:6803   */\ntag_138:\n    /* \"#utility.yul\":6827:6916   */\n  tag_140\n    /* \"#utility.yul\":6908:6915   */\n  dup10\n    /* \"#utility.yul\":6899:6905   */\n  dup3\n    /* \"#utility.yul\":6888:6897   */\n  dup11\n    /* \"#utility.yul\":6884:6906   */\n  add\n    /* \"#utility.yul\":6827:6916   */\n  tag_59\n  jump\t// in\ntag_140:\n    /* \"#utility.yul\":6817:6916   */\n  swap3\n  pop\n    /* \"#utility.yul\":6618:6926   */\n  pop\n    /* \"#utility.yul\":6965:6968   */\n  0xa0\n    /* \"#utility.yul\":6992:7056   */\n  tag_141\n    /* \"#utility.yul\":7048:7055   */\n  dup10\n    /* \"#utility.yul\":7039:7045   */\n  dup3\n    /* \"#utility.yul\":7028:7037   */\n  dup11\n    /* \"#utility.yul\":7024:7046   */\n  add\n    /* \"#utility.yul\":6992:7056   */\n  tag_56\n  jump\t// in\ntag_141:\n    /* \"#utility.yul\":6982:7056   */\n  swap2\n  pop\n    /* \"#utility.yul\":6936:7066   */\n  pop\n    /* \"#utility.yul\":5127:7073   */\n  swap3\n  swap6\n  pop\n  swap3\n  swap6\n  pop\n  swap3\n  swap6\n  jump\t// out\n    /* \"#utility.yul\":7079:7248   */\ntag_60:\n    /* \"#utility.yul\":7163:7174   */\n  0x00\n    /* \"#utility.yul\":7197:7203   */\n  dup3\n    /* \"#utility.yul\":7192:7195   */\n  dup3\n    /* \"#utility.yul\":7185:7204   */\n  mstore\n    /* \"#utility.yul\":7237:7241   */\n  0x20\n    /* \"#utility.yul\":7232:7235   */\n  dup3\n    /* \"#utility.yul\":7228:7242   */\n  add\n    /* \"#utility.yul\":7213:7242   */\n  swap1\n  pop\n    /* \"#utility.yul\":7079:7248   */\n  swap3\n  swap2\n  pop\n  pop\n  jump\t// out\n    /* \"#utility.yul\":7254:7423   */\ntag_61:\n    /* \"#utility.yul\":7394:7415   */\n  0x496e76616c6964206c6f636b20706572696f6400000000000000000000000000\n    /* \"#utility.yul\":7390:7391   */\n  0x00\n    /* \"#utility.yul\":7382:7388   */\n  dup3\n    /* \"#utility.yul\":7378:7392   */\n  add\n    /* \"#utility.yul\":7371:7416   */\n  mstore\n    /* \"#utility.yul\":7254:7423   */\n  pop\n  jump\t// out\n    /* \"#utility.yul\":7429:7795   */\ntag_62:\n    /* \"#utility.yul\":7571:7574   */\n  0x00\n    /* \"#utility.yul\":7592:7659   */\n  tag_145\n    /* \"#utility.yul\":7656:7658   */\n  0x13\n    /* \"#utility.yul\":7651:7654   */\n  dup4\n    /* \"#utility.yul\":7592:7659   */\n  tag_60\n  jump\t// in\ntag_145:\n    /* \"#utility.yul\":7585:7659   */\n  swap2\n  pop\n    /* \"#utility.yul\":7668:7761   */\n  tag_146\n    /* \"#utility.yul\":7757:7760   */\n  dup3\n    /* \"#utility.yul\":7668:7761   */\n  tag_61\n  jump\t// in\ntag_146:\n    /* \"#utility.yul\":7786:7788   */\n  0x20\n    /* \"#utility.yul\":7781:7784   */\n  dup3\n    /* \"#utility.yul\":7777:7789   */\n  add\n    /* \"#utility.yul\":7770:7789   */\n  swap1\n  pop\n    /* \"#utility.yul\":7429:7795   */\n  swap2\n  swap1\n  pop\n  jump\t// out\n    /* \"#utility.yul\":7801:8220   */\ntag_16:\n    /* \"#utility.yul\":7967:7971   */\n  0x00\n    /* \"#utility.yul\":8005:8007   */\n  0x20\n    /* \"#utility.yul\":7994:8003   */\n  dup3\n    /* \"#utility.yul\":7990:8008   */\n  add\n    /* \"#utility.yul\":7982:8008   */\n  swap1\n  pop\n    /* \"#utility.yul\":8054:8063   */\n  dup2\n    /* \"#utility.yul\":8048:8052   */\n  dup2\n    /* \"#utility.yul\":8044:8064   */\n  sub\n    /* \"#utility.yul\":8040:8041   */\n  0x00\n    /* \"#utility.yul\":8029:8038   */\n  dup4\n    /* \"#utility.yul\":8025:8042   */\n  add\n    /* \"#utility.yul\":8018:8065   */\n  mstore\n    /* \"#utility.yul\":8082:8213   */\n  tag_148\n    /* \"#utility.yul\":8208:8212   */\n  dup2\n    /* \"#utility.yul\":8082:8213   */\n  tag_62\n  jump\t// in\ntag_148:\n    /* \"#utility.yul\":8074:8213   */\n  swap1\n  pop\n    /* \"#utility.yul\":7801:8220   */\n  swap2\n  swap1\n  pop\n  jump\t// out\n    /* \"#utility.yul\":8226:8406   */\ntag_22:\n    /* \"#utility.yul\":8274:8351   */\n  0x4e487b7100000000000000000000000000000000000000000000000000000000\n    /* \"#utility.yul\":8271:8272   */\n  0x00\n    /* \"#utility.yul\":8264:8352   */\n  mstore\n    /* \"#utility.yul\":8371:8375   */\n  0x32\n    /* \"#utility.yul\":8368:8369   */\n  0x04\n    /* \"#utility.yul\":8361:8376   */\n  mstore\n    /* \"#utility.yul\":8395:8399   */\n  0x24\n    /* \"#utility.yul\":8392:8393   */\n  0x00\n    /* \"#utility.yul\":8385:8400   */\n  revert\n    /* \"#utility.yul\":8412:8592   */\ntag_63:\n    /* \"#utility.yul\":8460:8537   */\n  0x4e487b7100000000000000000000000000000000000000000000000000000000\n    /* \"#utility.yul\":8457:8458   */\n  0x00\n    /* \"#utility.yul\":8450:8538   */\n  mstore\n    /* \"#utility.yul\":8557:8561   */\n  0x11\n    /* \"#utility.yul\":8554:8555   */\n  0x04\n    /* \"#utility.yul\":8547:8562   */\n  mstore\n    /* \"#utility.yul\":8581:8585   */\n  0x24\n    /* \"#utility.yul\":8578:8579   */\n  0x00\n    /* \"#utility.yul\":8571:8586   */\n  revert\n    /* \"#utility.yul\":8598:8831   */\ntag_34:\n    /* \"#utility.yul\":8637:8640   */\n  0x00\n    /* \"#utility.yul\":8660:8684   */\n  tag_152\n    /* \"#utility.yul\":8678:8683   */\n  dup3\n    /* \"#utility.yul\":8660:8684   */\n  tag_54\n  jump\t// in\ntag_152:\n    /* \"#utility.yul\":8651:8684   */\n  swap2\n  pop\n    /* \"#utility.yul\":8706:8772   */\n  0xffffffffffffffffffffffffffffffffffffffffffffffffffffffffffffffff\n    /* \"#utility.yul\":8699:8704   */\n  dup3\n    /* \"#utility.yul\":8696:8773   */\n  sub\n    /* \"#utility.yul\":8693:8796   */\n  tag_153\n  jumpi\n    /* \"#utility.yul\":8776:8794   */\n  tag_154\n  tag_63\n  jump\t// in\ntag_154:\n    /* \"#utility.yul\":8693:8796   */\ntag_153:\n    /* \"#utility.yul\":8823:8824   */\n  0x01\n    /* \"#utility.yul\":8816:8821   */\n  dup3\n    /* \"#utility.yul\":8812:8825   */\n  add\n    /* \"#utility.yul\":8805:8825   */\n  swap1\n  pop\n    /* \"#utility.yul\":8598:8831   */\n  swap2\n  swap1\n  pop\n  jump\t// out\n    /* \"contracts/Staking.sol\":412:6826  contract NFTStaking1 is Ownable, ReentrancyGuard {... */\ntag_35:\n  dataSize(sub_0)\n  dup1\n  dataOffset(sub_0)\n  0x00\n  codecopy\n  0x00\n  return\nstop\n\nsub_0: assembly {\n        /* \"contracts/Staking.sol\":412:6826  contract NFTStaking1 is Ownable, ReentrancyGuard {... */\n      mstore(0x40, 0x80)\n      callvalue\n      dup1\n      iszero\n      tag_1\n      jumpi\n      0x00\n      dup1\n      revert\n    tag_1:\n      pop\n      jumpi(tag_2, lt(calldatasize, 0x04))\n      shr(0xe0, calldataload(0x00))\n      dup1\n      0x715018a6\n      gt\n      tag_15\n      jumpi\n      dup1\n      0x715018a6\n      eq\n      tag_9\n      jumpi\n      dup1\n      0x779972da\n      eq\n      tag_10\n      jumpi\n      dup1\n      0x8da5cb5b\n      eq\n      tag_11\n      jumpi\n      dup1\n      0x9f3625f0\n      eq\n      tag_12\n      jumpi\n      dup1\n      0xc69d1923\n      eq\n      tag_13\n      jumpi\n      dup1\n      0xf2fde38b\n      eq\n      tag_14\n      jumpi\n      jump(tag_2)\n    tag_15:\n      dup1\n      0x0520537f\n      eq\n      tag_3\n      jumpi\n      dup1\n      0x1902732e\n      eq\n      tag_4\n      jumpi\n      dup1\n      0x1caaa487\n      eq\n      tag_5\n      jumpi\n      dup1\n      0x20281a98\n      eq\n      tag_6\n      jumpi\n      dup1\n      0x3fd8b02f\n      eq\n      tag_7\n      jumpi\n      dup1\n      0x5b1a4c24\n      eq\n      tag_8\n      jumpi\n    tag_2:\n      0x00\n      dup1\n      revert\n        /* \"contracts/Staking.sol\":5311:6269  function claimRewards(uint256[] calldata _tokenIds,IERC721 nftAddress) external notContract {... */\n    tag_3:\n      tag_16\n      0x04\n      dup1\n      calldatasize\n      sub\n      dup2\n      add\n      swap1\n      tag_17\n      swap2\n      swap1\n      tag_18\n      jump\t// in\n    tag_17:\n      tag_19\n      jump\t// in\n    tag_16:\n      stop\n        /* \"contracts/Staking.sol\":3518:4088  function lockNFT(uint256[] calldata  _tokenIds, IERC721 nftAddress ) external notContract nonReentrant {... */\n    tag_4:\n      tag_20\n      0x04\n      dup1\n      calldatasize\n      sub\n      dup2\n      add\n      swap1\n      tag_21\n      swap2\n      swap1\n      tag_18\n      jump\t// in\n    tag_21:\n      tag_22\n      jump\t// in\n    tag_20:\n      stop\n        /* \"contracts/Staking.sol\":1036:1081  mapping(uint256 => address) public tokenOwner */\n    tag_5:\n      tag_23\n      0x04\n      dup1\n      calldatasize\n      sub\n      dup2\n      add\n      swap1\n      tag_24\n      swap2\n      swap1\n      tag_25\n      jump\t// in\n    tag_24:\n      tag_26\n      jump\t// in\n    tag_23:\n      mload(0x40)\n      tag_27\n      swap2\n      swap1\n      tag_28\n      jump\t// in\n    tag_27:\n      mload(0x40)\n      dup1\n      swap2\n      sub\n      swap1\n      return\n        /* \"contracts/Staking.sol\":3244:3377  function claimedRewards(uint256 _tokenId) external view returns (uint256) {... */\n    tag_6:\n      tag_29\n      0x04\n      dup1\n      calldatasize\n      sub\n      dup2\n      add\n      swap1\n      tag_30\n      swap2\n      swap1\n      tag_25\n      jump\t// in\n    tag_30:\n      tag_31\n      jump\t// in\n    tag_29:\n      mload(0x40)\n      tag_32\n      swap2\n      swap1\n      tag_33\n      jump\t// in\n    tag_32:\n      mload(0x40)\n      dup1\n      swap2\n      sub\n      swap1\n      return\n        /* \"contracts/Staking.sol\":502:527  uint256 public lockPeriod */\n    tag_7:\n      tag_34\n      tag_35\n      jump\t// in\n    tag_34:\n      mload(0x40)\n      tag_36\n      swap2\n      swap1\n      tag_33\n      jump\t// in\n    tag_36:\n      mload(0x40)\n      dup1\n      swap2\n      sub\n      swap1\n      return\n        /* \"contracts/Staking.sol\":748:792  mapping(uint256 => LockInfo) public lockInfo */\n    tag_8:\n      tag_37\n      0x04\n      dup1\n      calldatasize\n      sub\n      dup2\n      add\n      swap1\n      tag_38\n      swap2\n      swap1\n      tag_25\n      jump\t// in\n    tag_38:\n      tag_39\n      jump\t// in\n    tag_37:\n      mload(0x40)\n      tag_40\n      swap6\n      swap5\n      swap4\n      swap3\n      swap2\n      swap1\n      tag_41\n      jump\t// in\n    tag_40:\n      mload(0x40)\n      dup1\n      swap2\n      sub\n      swap1\n      return\n        /* \"@openzeppelin/contracts/access/Ownable.sol\":1831:1932  function renounceOwnership() public virtual onlyOwner {... */\n    tag_9:\n      tag_42\n      tag_43\n      jump\t// in\n    tag_42:\n      stop\n        /* \"contracts/Staking.sol\":2863:3076  function setLockPeriod(uint256 _lockPeriod) external onlyOwner {... */\n    tag_10:\n      tag_44\n      0x04\n      dup1\n      calldatasize\n      sub\n      dup2\n      add\n      swap1\n      tag_45\n      swap2\n      swap1\n      tag_25\n      jump\t// in\n    tag_45:\n      tag_46\n      jump\t// in\n    tag_44:\n      stop\n        /* \"@openzeppelin/contracts/access/Ownable.sol\":1201:1286  function owner() public view virtual returns (address) {... */\n    tag_11:\n      tag_47\n      tag_48\n      jump\t// in\n    tag_47:\n      mload(0x40)\n      tag_49\n      swap2\n      swap1\n      tag_28\n      jump\t// in\n    tag_49:\n      mload(0x40)\n      dup1\n      swap2\n      sub\n      swap1\n      return\n        /* \"contracts/Staking.sol\":4201:5213  function unlockNFT(uint256[] calldata _tokenIds, IERC721 nftAddress) external notContract nonReentrant {... */\n    tag_12:\n      tag_50\n      0x04\n      dup1\n      calldatasize\n      sub\n      dup2\n      add\n      swap1\n      tag_51\n      swap2\n      swap1\n      tag_18\n      jump\t// in\n    tag_51:\n      tag_52\n      jump\t// in\n    tag_50:\n      stop\n        /* \"contracts/Staking.sol\":1112:1131  uint256 public WAVE */\n    tag_13:\n      tag_53\n      tag_54\n      jump\t// in\n    tag_53:\n      mload(0x40)\n      tag_55\n      swap2\n      swap1\n      tag_33\n      jump\t// in\n    tag_55:\n      mload(0x40)\n      dup1\n      swap2\n      sub\n      swap1\n      return\n        /* \"@openzeppelin/contracts/access/Ownable.sol\":2081:2279  function transferOwnership(address newOwner) public virtual onlyOwner {... */\n    tag_14:\n      tag_56\n      0x04\n      dup1\n      calldatasize\n      sub\n      dup2\n      add\n      swap1\n      tag_57\n      swap2\n      swap1\n      tag_58\n      jump\t// in\n    tag_57:\n      tag_59\n      jump\t// in\n    tag_56:\n      stop\n        /* \"contracts/Staking.sol\":5311:6269  function claimRewards(uint256[] calldata _tokenIds,IERC721 nftAddress) external notContract {... */\n    tag_19:\n        /* \"contracts/Staking.sol\":2589:2621  address(msg.sender).isContract() */\n      tag_61\n        /* \"contracts/Staking.sol\":2597:2607  msg.sender */\n      caller\n        /* \"contracts/Staking.sol\":2589:2619  address(msg.sender).isContract */\n      0xffffffffffffffffffffffffffffffffffffffff\n      and\n      tag_62\n        /* \"contracts/Staking.sol\":2589:2621  address(msg.sender).isContract() */\n      jump\t// in\n    tag_61:\n        /* \"contracts/Staking.sol\":2588:2621  !address(msg.sender).isContract() */\n      iszero\n        /* \"contracts/Staking.sol\":2580:2646  require(!address(msg.sender).isContract(), \"Contract not allowed\") */\n      tag_63\n      jumpi\n      mload(0x40)\n      0x08c379a000000000000000000000000000000000000000000000000000000000\n      dup2\n      mstore\n      0x04\n      add\n      tag_64\n      swap1\n      tag_65\n      jump\t// in\n    tag_64:\n      mload(0x40)\n      dup1\n      swap2\n      sub\n      swap1\n      revert\n    tag_63:\n        /* \"contracts/Staking.sol\":2679:2688  tx.origin */\n      origin\n        /* \"contracts/Staking.sol\":2665:2688  msg.sender == tx.origin */\n      0xffffffffffffffffffffffffffffffffffffffff\n      and\n        /* \"contracts/Staking.sol\":2665:2675  msg.sender */\n      caller\n        /* \"contracts/Staking.sol\":2665:2688  msg.sender == tx.origin */\n      0xffffffffffffffffffffffffffffffffffffffff\n      and\n      eq\n        /* \"contracts/Staking.sol\":2657:2719  require(msg.sender == tx.origin, \"Proxy contract not allowed\") */\n      tag_66\n      jumpi\n      mload(0x40)\n      0x08c379a000000000000000000000000000000000000000000000000000000000\n      dup2\n      mstore\n      0x04\n      add\n      tag_67\n      swap1\n      tag_68\n      jump\t// in\n    tag_67:\n      mload(0x40)\n      dup1\n      swap2\n      sub\n      swap1\n      revert\n    tag_66:\n        /* \"contracts/Staking.sol\":5441:5442  0 */\n      0x00\n        /* \"contracts/Staking.sol\":5422:5431  _tokenIds */\n      dup4\n      dup4\n        /* \"contracts/Staking.sol\":5422:5438  _tokenIds.length */\n      swap1\n      pop\n        /* \"contracts/Staking.sol\":5422:5442  _tokenIds.length > 0 */\n      gt\n        /* \"contracts/Staking.sol\":5414:5456  require(_tokenIds.length > 0, \"No tokens\") */\n      tag_70\n      jumpi\n      mload(0x40)\n      0x08c379a000000000000000000000000000000000000000000000000000000000\n      dup2\n      mstore\n      0x04\n      add\n      tag_71\n      swap1\n      tag_72\n      jump\t// in\n    tag_71:\n      mload(0x40)\n      dup1\n      swap2\n      sub\n      swap1\n      revert\n    tag_70:\n        /* \"contracts/Staking.sol\":5469:5489  uint256 totalRewards */\n      0x00\n        /* \"contracts/Staking.sol\":5505:5514  uint256 i */\n      dup1\n        /* \"contracts/Staking.sol\":5517:5518  0 */\n      0x00\n        /* \"contracts/Staking.sol\":5505:5518  uint256 i = 0 */\n      swap1\n      pop\n        /* \"contracts/Staking.sol\":5500:6193  for (uint256 i = 0; i < _tokenIds.length; i++) {... */\n    tag_73:\n        /* \"contracts/Staking.sol\":5524:5533  _tokenIds */\n      dup5\n      dup5\n        /* \"contracts/Staking.sol\":5524:5540  _tokenIds.length */\n      swap1\n      pop\n        /* \"contracts/Staking.sol\":5520:5521  i */\n      dup2\n        /* \"contracts/Staking.sol\":5520:5540  i < _tokenIds.length */\n      lt\n        /* \"contracts/Staking.sol\":5500:6193  for (uint256 i = 0; i < _tokenIds.length; i++) {... */\n      iszero\n      tag_74\n      jumpi\n        /* \"contracts/Staking.sol\":5562:5582  LockInfo memory info */\n      0x00\n        /* \"contracts/Staking.sol\":5585:5593  lockInfo */\n      0x03\n        /* \"contracts/Staking.sol\":5585:5607  lockInfo[_tokenIds[i]] */\n      0x00\n        /* \"contracts/Staking.sol\":5594:5603  _tokenIds */\n      dup8\n      dup8\n        /* \"contracts/Staking.sol\":5604:5605  i */\n      dup6\n        /* \"contracts/Staking.sol\":5594:5606  _tokenIds[i] */\n      dup2\n      dup2\n      lt\n      tag_76\n      jumpi\n      tag_77\n      tag_78\n      jump\t// in\n    tag_77:\n    tag_76:\n      swap1\n      pop\n      0x20\n      mul\n      add\n      calldataload\n        /* \"contracts/Staking.sol\":5585:5607  lockInfo[_tokenIds[i]] */\n      dup2\n      mstore\n      0x20\n      add\n      swap1\n      dup2\n      mstore\n      0x20\n      add\n      0x00\n      keccak256\n        /* \"contracts/Staking.sol\":5562:5607  LockInfo memory info = lockInfo[_tokenIds[i]] */\n      mload(0x40)\n      dup1\n      0xa0\n      add\n      0x40\n      mstore\n      swap1\n      dup2\n      0x00\n      dup3\n      add\n      0x00\n      swap1\n      sload\n      swap1\n      0x0100\n      exp\n      swap1\n      div\n      0xffffffffffffffffffffffffffffffffffffffff\n      and\n      0xffffffffffffffffffffffffffffffffffffffff\n      and\n      0xffffffffffffffffffffffffffffffffffffffff\n      and\n      dup2\n      mstore\n      0x20\n      add\n      0x01\n      dup3\n      add\n      sload\n      dup2\n      mstore\n      0x20\n      add\n      0x02\n      dup3\n      add\n      sload\n      dup2\n      mstore\n      0x20\n      add\n      0x03\n      dup3\n      add\n      0x00\n      swap1\n      sload\n      swap1\n      0x0100\n      exp\n      swap1\n      div\n      0xff\n      and\n      iszero\n      iszero\n      iszero\n      iszero\n      dup2\n      mstore\n      0x20\n      add\n      0x03\n      dup3\n      add\n      0x01\n      swap1\n      sload\n      swap1\n      0x0100\n      exp\n      swap1\n      div\n      0xffffffffffffffffffffffffffffffffffffffff\n      and\n      0xffffffffffffffffffffffffffffffffffffffff\n      and\n      0xffffffffffffffffffffffffffffffffffffffff\n      and\n      dup2\n      mstore\n      pop\n      pop\n      swap1\n      pop\n        /* \"contracts/Staking.sol\":5644:5654  msg.sender */\n      caller\n        /* \"contracts/Staking.sol\":5630:5654  info.owner == msg.sender */\n      0xffffffffffffffffffffffffffffffffffffffff\n      and\n        /* \"contracts/Staking.sol\":5630:5634  info */\n      dup2\n        /* \"contracts/Staking.sol\":5630:5640  info.owner */\n      0x00\n      add\n      mload\n        /* \"contracts/Staking.sol\":5630:5654  info.owner == msg.sender */\n      0xffffffffffffffffffffffffffffffffffffffff\n      and\n      eq\n        /* \"contracts/Staking.sol\":5622:5676  require(info.owner == msg.sender, \"Not a token owner\") */\n      tag_79\n      jumpi\n      mload(0x40)\n      0x08c379a000000000000000000000000000000000000000000000000000000000\n      dup2\n      mstore\n      0x04\n      add\n      tag_80\n      swap1\n      tag_81\n      jump\t// in\n    tag_80:\n      mload(0x40)\n      dup1\n      swap2\n      sub\n      swap1\n      revert\n    tag_79:\n        /* \"contracts/Staking.sol\":5730:5745  block.timestamp */\n      timestamp\n        /* \"contracts/Staking.sol\":5717:5727  lockPeriod */\n      sload(0x02)\n        /* \"contracts/Staking.sol\":5699:5703  info */\n      dup3\n        /* \"contracts/Staking.sol\":5699:5714  info.lockedTime */\n      0x20\n      add\n      mload\n        /* \"contracts/Staking.sol\":5699:5727  info.lockedTime + lockPeriod */\n      tag_82\n      swap2\n      swap1\n      tag_83\n      jump\t// in\n    tag_82:\n        /* \"contracts/Staking.sol\":5699:5745  info.lockedTime + lockPeriod < block.timestamp */\n      lt\n        /* \"contracts/Staking.sol\":5691:5771  require(info.lockedTime + lockPeriod < block.timestamp, \"Not able to claim yet\") */\n      tag_84\n      jumpi\n      mload(0x40)\n      0x08c379a000000000000000000000000000000000000000000000000000000000\n      dup2\n      mstore\n      0x04\n      add\n      tag_85\n      swap1\n      tag_86\n      jump\t// in\n    tag_85:\n      mload(0x40)\n      dup1\n      swap2\n      sub\n      swap1\n      revert\n    tag_84:\n        /* \"contracts/Staking.sol\":5795:5799  info */\n      dup1\n        /* \"contracts/Staking.sol\":5795:5810  info.isUnlocked */\n      0x60\n      add\n      mload\n        /* \"contracts/Staking.sol\":5794:5810  !info.isUnlocked */\n      iszero\n        /* \"contracts/Staking.sol\":5786:5831  require(!info.isUnlocked, \"Already unlocked\") */\n      tag_87\n      jumpi\n      mload(0x40)\n      0x08c379a000000000000000000000000000000000000000000000000000000000\n      dup2\n      mstore\n      0x04\n      add\n      tag_88\n      swap1\n      tag_89\n      jump\t// in\n    tag_88:\n      mload(0x40)\n      dup1\n      swap2\n      sub\n      swap1\n      revert\n    tag_87:\n        /* \"contracts/Staking.sol\":5848:5867  uint256 totalAmount */\n      0x00\n        /* \"contracts/Staking.sol\":5870:5909  _rewardAmount(_tokenIds[i], nftAddress) */\n      tag_90\n        /* \"contracts/Staking.sol\":5884:5893  _tokenIds */\n      dup8\n      dup8\n        /* \"contracts/Staking.sol\":5894:5895  i */\n      dup6\n        /* \"contracts/Staking.sol\":5884:5896  _tokenIds[i] */\n      dup2\n      dup2\n      lt\n      tag_91\n      jumpi\n      tag_92\n      tag_78\n      jump\t// in\n    tag_92:\n    tag_91:\n      swap1\n      pop\n      0x20\n      mul\n      add\n      calldataload\n        /* \"contracts/Staking.sol\":5898:5908  nftAddress */\n      dup7\n        /* \"contracts/Staking.sol\":5870:5883  _rewardAmount */\n      tag_93\n        /* \"contracts/Staking.sol\":5870:5909  _rewardAmount(_tokenIds[i], nftAddress) */\n      jump\t// in\n    tag_90:\n        /* \"contracts/Staking.sol\":5848:5909  uint256 totalAmount = _rewardAmount(_tokenIds[i], nftAddress) */\n      swap1\n      pop\n        /* \"contracts/Staking.sol\":5924:5948  uint256 unclaminedAmount */\n      0x00\n        /* \"contracts/Staking.sol\":5965:5969  info */\n      dup3\n        /* \"contracts/Staking.sol\":5965:5984  info.claimedRewards */\n      0x40\n      add\n      mload\n        /* \"contracts/Staking.sol\":5951:5962  totalAmount */\n      dup3\n        /* \"contracts/Staking.sol\":5951:5984  totalAmount - info.claimedRewards */\n      tag_94\n      swap2\n      swap1\n      tag_95\n      jump\t// in\n    tag_94:\n        /* \"contracts/Staking.sol\":5924:5984  uint256 unclaminedAmount = totalAmount - info.claimedRewards */\n      swap1\n      pop\n        /* \"contracts/Staking.sol\":5999:6006  nftInfo */\n      0x04\n        /* \"contracts/Staking.sol\":5999:6018  nftInfo[nftAddress] */\n      0x00\n        /* \"contracts/Staking.sol\":6007:6017  nftAddress */\n      dup8\n        /* \"contracts/Staking.sol\":5999:6018  nftInfo[nftAddress] */\n      0xffffffffffffffffffffffffffffffffffffffff\n      and\n      0xffffffffffffffffffffffffffffffffffffffff\n      and\n      dup2\n      mstore\n      0x20\n      add\n      swap1\n      dup2\n      mstore\n      0x20\n      add\n      0x00\n      keccak256\n        /* \"contracts/Staking.sol\":5999:6031  nftInfo[nftAddress].rewardsToken */\n      0x00\n      add\n      0x00\n      swap1\n      sload\n      swap1\n      0x0100\n      exp\n      swap1\n      div\n      0xffffffffffffffffffffffffffffffffffffffff\n      and\n        /* \"contracts/Staking.sol\":5999:6036  nftInfo[nftAddress].rewardsToken.mint */\n      0xffffffffffffffffffffffffffffffffffffffff\n      and\n      0x40c10f19\n        /* \"contracts/Staking.sol\":6037:6047  msg.sender */\n      caller\n        /* \"contracts/Staking.sol\":6049:6065  unclaminedAmount */\n      dup4\n        /* \"contracts/Staking.sol\":5999:6066  nftInfo[nftAddress].rewardsToken.mint(msg.sender, unclaminedAmount) */\n      mload(0x40)\n      dup4\n      0xffffffff\n      and\n      0xe0\n      shl\n      dup2\n      mstore\n      0x04\n      add\n      tag_96\n      swap3\n      swap2\n      swap1\n      tag_97\n      jump\t// in\n    tag_96:\n      0x00\n      mload(0x40)\n      dup1\n      dup4\n      sub\n      dup2\n      0x00\n      dup8\n      dup1\n      extcodesize\n      iszero\n      dup1\n      iszero\n      tag_98\n      jumpi\n      0x00\n      dup1\n      revert\n    tag_98:\n      pop\n      gas\n      call\n      iszero\n      dup1\n      iszero\n      tag_100\n      jumpi\n      returndatasize\n      0x00\n      dup1\n      returndatacopy\n      revert(0x00, returndatasize)\n    tag_100:\n      pop\n      pop\n      pop\n      pop\n        /* \"contracts/Staking.sol\":6097:6113  unclaminedAmount */\n      dup1\n        /* \"contracts/Staking.sol\":6081:6113  totalRewards += unclaminedAmount */\n      dup6\n      tag_101\n      swap2\n      swap1\n      tag_83\n      jump\t// in\n    tag_101:\n      swap5\n      pop\n        /* \"contracts/Staking.sol\":6170:6181  totalAmount */\n      dup2\n        /* \"contracts/Staking.sol\":6130:6138  lockInfo */\n      0x03\n        /* \"contracts/Staking.sol\":6130:6152  lockInfo[_tokenIds[i]] */\n      0x00\n        /* \"contracts/Staking.sol\":6139:6148  _tokenIds */\n      dup11\n      dup11\n        /* \"contracts/Staking.sol\":6149:6150  i */\n      dup9\n        /* \"contracts/Staking.sol\":6139:6151  _tokenIds[i] */\n      dup2\n      dup2\n      lt\n      tag_102\n      jumpi\n      tag_103\n      tag_78\n      jump\t// in\n    tag_103:\n    tag_102:\n      swap1\n      pop\n      0x20\n      mul\n      add\n      calldataload\n        /* \"contracts/Staking.sol\":6130:6152  lockInfo[_tokenIds[i]] */\n      dup2\n      mstore\n      0x20\n      add\n      swap1\n      dup2\n      mstore\n      0x20\n      add\n      0x00\n      keccak256\n        /* \"contracts/Staking.sol\":6130:6167  lockInfo[_tokenIds[i]].claimedRewards */\n      0x02\n      add\n        /* \"contracts/Staking.sol\":6130:6181  lockInfo[_tokenIds[i]].claimedRewards = totalAmount */\n      dup2\n      swap1\n      sstore\n      pop\n        /* \"contracts/Staking.sol\":5547:6193  {... */\n      pop\n      pop\n      pop\n        /* \"contracts/Staking.sol\":5542:5545  i++ */\n      dup1\n      dup1\n      tag_104\n      swap1\n      tag_105\n      jump\t// in\n    tag_104:\n      swap2\n      pop\n      pop\n        /* \"contracts/Staking.sol\":5500:6193  for (uint256 i = 0; i < _tokenIds.length; i++) {... */\n      jump(tag_73)\n    tag_74:\n      pop\n        /* \"contracts/Staking.sol\":6225:6235  msg.sender */\n      caller\n        /* \"contracts/Staking.sol\":6210:6261  RewardsClaimed(msg.sender, _tokenIds, totalRewards) */\n      0xffffffffffffffffffffffffffffffffffffffff\n      and\n      0x37826be3c26dbad83731f4b985f22fa9ef86b6d1974cd77208332b7f1f283c0c\n        /* \"contracts/Staking.sol\":6237:6246  _tokenIds */\n      dup6\n      dup6\n        /* \"contracts/Staking.sol\":6248:6260  totalRewards */\n      dup5\n        /* \"contracts/Staking.sol\":6210:6261  RewardsClaimed(msg.sender, _tokenIds, totalRewards) */\n      mload(0x40)\n      tag_106\n      swap4\n      swap3\n      swap2\n      swap1\n      tag_107\n      jump\t// in\n    tag_106:\n      mload(0x40)\n      dup1\n      swap2\n      sub\n      swap1\n      log2\n        /* \"contracts/Staking.sol\":5403:6269  {... */\n      pop\n        /* \"contracts/Staking.sol\":5311:6269  function claimRewards(uint256[] calldata _tokenIds,IERC721 nftAddress) external notContract {... */\n      pop\n      pop\n      pop\n      jump\t// out\n        /* \"contracts/Staking.sol\":3518:4088  function lockNFT(uint256[] calldata  _tokenIds, IERC721 nftAddress ) external notContract nonReentrant {... */\n    tag_22:\n        /* \"contracts/Staking.sol\":2589:2621  address(msg.sender).isContract() */\n      tag_109\n        /* \"contracts/Staking.sol\":2597:2607  msg.sender */\n      caller\n        /* \"contracts/Staking.sol\":2589:2619  address(msg.sender).isContract */\n      0xffffffffffffffffffffffffffffffffffffffff\n      and\n      tag_62\n        /* \"contracts/Staking.sol\":2589:2621  address(msg.sender).isContract() */\n      jump\t// in\n    tag_109:\n        /* \"contracts/Staking.sol\":2588:2621  !address(msg.sender).isContract() */\n      iszero\n        /* \"contracts/Staking.sol\":2580:2646  require(!address(msg.sender).isContract(), \"Contract not allowed\") */\n      tag_110\n      jumpi\n      mload(0x40)\n      0x08c379a000000000000000000000000000000000000000000000000000000000\n      dup2\n      mstore\n      0x04\n      add\n      tag_111\n      swap1\n      tag_65\n      jump\t// in\n    tag_111:\n      mload(0x40)\n      dup1\n      swap2\n      sub\n      swap1\n      revert\n    tag_110:\n        /* \"contracts/Staking.sol\":2679:2688  tx.origin */\n      origin\n        /* \"contracts/Staking.sol\":2665:2688  msg.sender == tx.origin */\n      0xffffffffffffffffffffffffffffffffffffffff\n      and\n        /* \"contracts/Staking.sol\":2665:2675  msg.sender */\n      caller\n        /* \"contracts/Staking.sol\":2665:2688  msg.sender == tx.origin */\n      0xffffffffffffffffffffffffffffffffffffffff\n      and\n      eq\n        /* \"contracts/Staking.sol\":2657:2719  require(msg.sender == tx.origin, \"Proxy contract not allowed\") */\n      tag_112\n      jumpi\n      mload(0x40)\n      0x08c379a000000000000000000000000000000000000000000000000000000000\n      dup2\n      mstore\n      0x04\n      add\n      tag_113\n      swap1\n      tag_68\n      jump\t// in\n    tag_113:\n      mload(0x40)\n      dup1\n      swap2\n      sub\n      swap1\n      revert\n    tag_112:\n        /* \"@openzeppelin/contracts/security/ReentrancyGuard.sol\":1744:1745  2 */\n      0x02\n        /* \"@openzeppelin/contracts/security/ReentrancyGuard.sol\":2325:2332  _status */\n      sload(0x01)\n        /* \"@openzeppelin/contracts/security/ReentrancyGuard.sol\":2325:2344  _status != _ENTERED */\n      sub\n        /* \"@openzeppelin/contracts/security/ReentrancyGuard.sol\":2317:2380  require(_status != _ENTERED, \"ReentrancyGuard: reentrant call\") */\n      tag_115\n      jumpi\n      mload(0x40)\n      0x08c379a000000000000000000000000000000000000000000000000000000000\n      dup2\n      mstore\n      0x04\n      add\n      tag_116\n      swap1\n      tag_117\n      jump\t// in\n    tag_116:\n      mload(0x40)\n      dup1\n      swap2\n      sub\n      swap1\n      revert\n    tag_115:\n        /* \"@openzeppelin/contracts/security/ReentrancyGuard.sol\":1744:1745  2 */\n      0x02\n        /* \"@openzeppelin/contracts/security/ReentrancyGuard.sol\":2455:2462  _status */\n      0x01\n        /* \"@openzeppelin/contracts/security/ReentrancyGuard.sol\":2455:2473  _status = _ENTERED */\n      dup2\n      swap1\n      sstore\n      pop\n        /* \"contracts/Staking.sol\":3659:3660  0 */\n      0x00\n        /* \"contracts/Staking.sol\":3640:3649  _tokenIds */\n      dup4\n      dup4\n        /* \"contracts/Staking.sol\":3640:3656  _tokenIds.length */\n      swap1\n      pop\n        /* \"contracts/Staking.sol\":3640:3660  _tokenIds.length > 0 */\n      gt\n        /* \"contracts/Staking.sol\":3632:3674  require(_tokenIds.length > 0, \"No tokens\") */\n      tag_119\n      jumpi\n      mload(0x40)\n      0x08c379a000000000000000000000000000000000000000000000000000000000\n      dup2\n      mstore\n      0x04\n      add\n      tag_120\n      swap1\n      tag_72\n      jump\t// in\n    tag_120:\n      mload(0x40)\n      dup1\n      swap2\n      sub\n      swap1\n      revert\n    tag_119:\n        /* \"contracts/Staking.sol\":3692:3701  uint256 i */\n      0x00\n        /* \"contracts/Staking.sol\":3687:4031  for (uint256 i = 0; i < _tokenIds.length; i++) {... */\n    tag_121:\n        /* \"contracts/Staking.sol\":3711:3720  _tokenIds */\n      dup4\n      dup4\n        /* \"contracts/Staking.sol\":3711:3727  _tokenIds.length */\n      swap1\n      pop\n        /* \"contracts/Staking.sol\":3707:3708  i */\n      dup2\n        /* \"contracts/Staking.sol\":3707:3727  i < _tokenIds.length */\n      lt\n        /* \"contracts/Staking.sol\":3687:4031  for (uint256 i = 0; i < _tokenIds.length; i++) {... */\n      iszero\n      tag_122\n      jumpi\n        /* \"contracts/Staking.sol\":3793:3803  msg.sender */\n      caller\n        /* \"contracts/Staking.sol\":3757:3803  nftAddress.ownerOf(_tokenIds[i]) == msg.sender */\n      0xffffffffffffffffffffffffffffffffffffffff\n      and\n        /* \"contracts/Staking.sol\":3757:3767  nftAddress */\n      dup3\n        /* \"contracts/Staking.sol\":3757:3775  nftAddress.ownerOf */\n      0xffffffffffffffffffffffffffffffffffffffff\n      and\n      0x6352211e\n        /* \"contracts/Staking.sol\":3776:3785  _tokenIds */\n      dup7\n      dup7\n        /* \"contracts/Staking.sol\":3786:3787  i */\n      dup6\n        /* \"contracts/Staking.sol\":3776:3788  _tokenIds[i] */\n      dup2\n      dup2\n      lt\n      tag_124\n      jumpi\n      tag_125\n      tag_78\n      jump\t// in\n    tag_125:\n    tag_124:\n      swap1\n      pop\n      0x20\n      mul\n      add\n      calldataload\n        /* \"contracts/Staking.sol\":3757:3789  nftAddress.ownerOf(_tokenIds[i]) */\n      mload(0x40)\n      dup3\n      0xffffffff\n      and\n      0xe0\n      shl\n      dup2\n      mstore\n      0x04\n      add\n      tag_126\n      swap2\n      swap1\n      tag_33\n      jump\t// in\n    tag_126:\n      0x20\n      mload(0x40)\n      dup1\n      dup4\n      sub\n      dup2\n      dup7\n      gas\n      staticcall\n      iszero\n      dup1\n      iszero\n      tag_128\n      jumpi\n      returndatasize\n      0x00\n      dup1\n      returndatacopy\n      revert(0x00, returndatasize)\n    tag_128:\n      pop\n      pop\n      pop\n      pop\n      mload(0x40)\n      returndatasize\n      not(0x1f)\n      0x1f\n      dup3\n      add\n      and\n      dup3\n      add\n      dup1\n      0x40\n      mstore\n      pop\n      dup2\n      add\n      swap1\n      tag_129\n      swap2\n      swap1\n      tag_130\n      jump\t// in\n    tag_129:\n        /* \"contracts/Staking.sol\":3757:3803  nftAddress.ownerOf(_tokenIds[i]) == msg.sender */\n      0xffffffffffffffffffffffffffffffffffffffff\n      and\n      eq\n        /* \"contracts/Staking.sol\":3749:3833  require(nftAddress.ownerOf(_tokenIds[i]) == msg.sender, \"You don't hold this token\") */\n      tag_131\n      jumpi\n      mload(0x40)\n      0x08c379a000000000000000000000000000000000000000000000000000000000\n      dup2\n      mstore\n      0x04\n      add\n      tag_132\n      swap1\n      tag_133\n      jump\t// in\n    tag_132:\n      mload(0x40)\n      dup1\n      swap2\n      sub\n      swap1\n      revert\n    tag_131:\n        /* \"contracts/Staking.sol\":3848:3858  nftAddress */\n      dup2\n        /* \"contracts/Staking.sol\":3848:3871  nftAddress.transferFrom */\n      0xffffffffffffffffffffffffffffffffffffffff\n      and\n      0x23b872dd\n        /* \"contracts/Staking.sol\":3872:3882  msg.sender */\n      caller\n        /* \"contracts/Staking.sol\":3892:3896  this */\n      address\n        /* \"contracts/Staking.sol\":3899:3908  _tokenIds */\n      dup8\n      dup8\n        /* \"contracts/Staking.sol\":3909:3910  i */\n      dup7\n        /* \"contracts/Staking.sol\":3899:3911  _tokenIds[i] */\n      dup2\n      dup2\n      lt\n      tag_134\n      jumpi\n      tag_135\n      tag_78\n      jump\t// in\n    tag_135:\n    tag_134:\n      swap1\n      pop\n      0x20\n      mul\n      add\n      calldataload\n        /* \"contracts/Staking.sol\":3848:3912  nftAddress.transferFrom(msg.sender, address(this), _tokenIds[i]) */\n      mload(0x40)\n      dup5\n      0xffffffff\n      and\n      0xe0\n      shl\n      dup2\n      mstore\n      0x04\n      add\n      tag_136\n      swap4\n      swap3\n      swap2\n      swap1\n      tag_137\n      jump\t// in\n    tag_136:\n      0x00\n      mload(0x40)\n      dup1\n      dup4\n      sub\n      dup2\n      0x00\n      dup8\n      dup1\n      extcodesize\n      iszero\n      dup1\n      iszero\n      tag_138\n      jumpi\n      0x00\n      dup1\n      revert\n    tag_138:\n      pop\n      gas\n      call\n      iszero\n      dup1\n      iszero\n      tag_140\n      jumpi\n      returndatasize\n      0x00\n      dup1\n      returndatacopy\n      revert(0x00, returndatasize)\n    tag_140:\n      pop\n      pop\n      pop\n      pop\n        /* \"contracts/Staking.sol\":3952:4019  LockInfo(msg.sender, block.timestamp, 0, false,IERC721(nftAddress)) */\n      mload(0x40)\n      dup1\n      0xa0\n      add\n      0x40\n      mstore\n      dup1\n        /* \"contracts/Staking.sol\":3961:3971  msg.sender */\n      caller\n        /* \"contracts/Staking.sol\":3952:4019  LockInfo(msg.sender, block.timestamp, 0, false,IERC721(nftAddress)) */\n      0xffffffffffffffffffffffffffffffffffffffff\n      and\n      dup2\n      mstore\n      0x20\n      add\n        /* \"contracts/Staking.sol\":3973:3988  block.timestamp */\n      timestamp\n        /* \"contracts/Staking.sol\":3952:4019  LockInfo(msg.sender, block.timestamp, 0, false,IERC721(nftAddress)) */\n      dup2\n      mstore\n      0x20\n      add\n        /* \"contracts/Staking.sol\":3990:3991  0 */\n      0x00\n        /* \"contracts/Staking.sol\":3952:4019  LockInfo(msg.sender, block.timestamp, 0, false,IERC721(nftAddress)) */\n      dup2\n      mstore\n      0x20\n      add\n        /* \"contracts/Staking.sol\":3993:3998  false */\n      0x00\n        /* \"contracts/Staking.sol\":3952:4019  LockInfo(msg.sender, block.timestamp, 0, false,IERC721(nftAddress)) */\n      iszero\n      iszero\n      dup2\n      mstore\n      0x20\n      add\n        /* \"contracts/Staking.sol\":4007:4017  nftAddress */\n      dup4\n        /* \"contracts/Staking.sol\":3952:4019  LockInfo(msg.sender, block.timestamp, 0, false,IERC721(nftAddress)) */\n      0xffffffffffffffffffffffffffffffffffffffff\n      and\n      dup2\n      mstore\n      pop\n        /* \"contracts/Staking.sol\":3927:3935  lockInfo */\n      0x03\n        /* \"contracts/Staking.sol\":3927:3949  lockInfo[_tokenIds[i]] */\n      0x00\n        /* \"contracts/Staking.sol\":3936:3945  _tokenIds */\n      dup7\n      dup7\n        /* \"contracts/Staking.sol\":3946:3947  i */\n      dup6\n        /* \"contracts/Staking.sol\":3936:3948  _tokenIds[i] */\n      dup2\n      dup2\n      lt\n      tag_141\n      jumpi\n      tag_142\n      tag_78\n      jump\t// in\n    tag_142:\n    tag_141:\n      swap1\n      pop\n      0x20\n      mul\n      add\n      calldataload\n        /* \"contracts/Staking.sol\":3927:3949  lockInfo[_tokenIds[i]] */\n      dup2\n      mstore\n      0x20\n      add\n      swap1\n      dup2\n      mstore\n      0x20\n      add\n      0x00\n      keccak256\n        /* \"contracts/Staking.sol\":3927:4019  lockInfo[_tokenIds[i]] = LockInfo(msg.sender, block.timestamp, 0, false,IERC721(nftAddress)) */\n      0x00\n      dup3\n      add\n      mload\n      dup2\n      0x00\n      add\n      exp(0x0100, 0x00)\n      dup2\n      sload\n      dup2\n      0xffffffffffffffffffffffffffffffffffffffff\n      mul\n      not\n      and\n      swap1\n      dup4\n      0xffffffffffffffffffffffffffffffffffffffff\n      and\n      mul\n      or\n      swap1\n      sstore\n      pop\n      0x20\n      dup3\n      add\n      mload\n      dup2\n      0x01\n      add\n      sstore\n      0x40\n      dup3\n      add\n      mload\n      dup2\n      0x02\n      add\n      sstore\n      0x60\n      dup3\n      add\n      mload\n      dup2\n      0x03\n      add\n      exp(0x0100, 0x00)\n      dup2\n      sload\n      dup2\n      0xff\n      mul\n      not\n      and\n      swap1\n      dup4\n      iszero\n      iszero\n      mul\n      or\n      swap1\n      sstore\n      pop\n      0x80\n      dup3\n      add\n      mload\n      dup2\n      0x03\n      add\n      exp(0x0100, 0x01)\n      dup2\n      sload\n      dup2\n      0xffffffffffffffffffffffffffffffffffffffff\n      mul\n      not\n      and\n      swap1\n      dup4\n      0xffffffffffffffffffffffffffffffffffffffff\n      and\n      mul\n      or\n      swap1\n      sstore\n      pop\n      swap1\n      pop\n      pop\n        /* \"contracts/Staking.sol\":3729:3732  i++ */\n      dup1\n      dup1\n      tag_143\n      swap1\n      tag_105\n      jump\t// in\n    tag_143:\n      swap2\n      pop\n      pop\n        /* \"contracts/Staking.sol\":3687:4031  for (uint256 i = 0; i < _tokenIds.length; i++) {... */\n      jump(tag_121)\n    tag_122:\n      pop\n        /* \"contracts/Staking.sol\":4058:4068  msg.sender */\n      caller\n        /* \"contracts/Staking.sol\":4048:4080  NFTLocked(msg.sender, _tokenIds) */\n      0xffffffffffffffffffffffffffffffffffffffff\n      and\n      0x458be0227bccc9e803dec79bd16767eeaf9925d2ce708eeed7ae1f3621f968f9\n        /* \"contracts/Staking.sol\":4070:4079  _tokenIds */\n      dup5\n      dup5\n        /* \"contracts/Staking.sol\":4048:4080  NFTLocked(msg.sender, _tokenIds) */\n      mload(0x40)\n      tag_144\n      swap3\n      swap2\n      swap1\n      tag_145\n      jump\t// in\n    tag_144:\n      mload(0x40)\n      dup1\n      swap2\n      sub\n      swap1\n      log2\n        /* \"@openzeppelin/contracts/security/ReentrancyGuard.sol\":1701:1702  1 */\n      0x01\n        /* \"@openzeppelin/contracts/security/ReentrancyGuard.sol\":2628:2635  _status */\n      dup1\n        /* \"@openzeppelin/contracts/security/ReentrancyGuard.sol\":2628:2650  _status = _NOT_ENTERED */\n      dup2\n      swap1\n      sstore\n      pop\n        /* \"contracts/Staking.sol\":3518:4088  function lockNFT(uint256[] calldata  _tokenIds, IERC721 nftAddress ) external notContract nonReentrant {... */\n      pop\n      pop\n      pop\n      jump\t// out\n        /* \"contracts/Staking.sol\":1036:1081  mapping(uint256 => address) public tokenOwner */\n    tag_26:\n      mstore(0x20, 0x05)\n      dup1\n      0x00\n      mstore\n      keccak256(0x00, 0x40)\n      0x00\n      swap2\n      pop\n      sload\n      swap1\n      0x0100\n      exp\n      swap1\n      div\n      0xffffffffffffffffffffffffffffffffffffffff\n      and\n      dup2\n      jump\t// out\n        /* \"contracts/Staking.sol\":3244:3377  function claimedRewards(uint256 _tokenId) external view returns (uint256) {... */\n    tag_31:\n        /* \"contracts/Staking.sol\":3309:3316  uint256 */\n      0x00\n        /* \"contracts/Staking.sol\":3336:3344  lockInfo */\n      0x03\n        /* \"contracts/Staking.sol\":3336:3354  lockInfo[_tokenId] */\n      0x00\n        /* \"contracts/Staking.sol\":3345:3353  _tokenId */\n      dup4\n        /* \"contracts/Staking.sol\":3336:3354  lockInfo[_tokenId] */\n      dup2\n      mstore\n      0x20\n      add\n      swap1\n      dup2\n      mstore\n      0x20\n      add\n      0x00\n      keccak256\n        /* \"contracts/Staking.sol\":3336:3369  lockInfo[_tokenId].claimedRewards */\n      0x02\n      add\n      sload\n        /* \"contracts/Staking.sol\":3329:3369  return lockInfo[_tokenId].claimedRewards */\n      swap1\n      pop\n        /* \"contracts/Staking.sol\":3244:3377  function claimedRewards(uint256 _tokenId) external view returns (uint256) {... */\n      swap2\n      swap1\n      pop\n      jump\t// out\n        /* \"contracts/Staking.sol\":502:527  uint256 public lockPeriod */\n    tag_35:\n      sload(0x02)\n      dup2\n      jump\t// out\n        /* \"contracts/Staking.sol\":748:792  mapping(uint256 => LockInfo) public lockInfo */\n    tag_39:\n      mstore(0x20, 0x03)\n      dup1\n      0x00\n      mstore\n      keccak256(0x00, 0x40)\n      0x00\n      swap2\n      pop\n      swap1\n      pop\n      dup1\n      0x00\n      add\n      0x00\n      swap1\n      sload\n      swap1\n      0x0100\n      exp\n      swap1\n      div\n      0xffffffffffffffffffffffffffffffffffffffff\n      and\n      swap1\n      dup1\n      0x01\n      add\n      sload\n      swap1\n      dup1\n      0x02\n      add\n      sload\n      swap1\n      dup1\n      0x03\n      add\n      0x00\n      swap1\n      sload\n      swap1\n      0x0100\n      exp\n      swap1\n      div\n      0xff\n      and\n      swap1\n      dup1\n      0x03\n      add\n      0x01\n      swap1\n      sload\n      swap1\n      0x0100\n      exp\n      swap1\n      div\n      0xffffffffffffffffffffffffffffffffffffffff\n      and\n      swap1\n      pop\n      dup6\n      jump\t// out\n        /* \"@openzeppelin/contracts/access/Ownable.sol\":1831:1932  function renounceOwnership() public virtual onlyOwner {... */\n    tag_43:\n        /* \"@openzeppelin/contracts/access/Ownable.sol\":1094:1107  _checkOwner() */\n      tag_148\n        /* \"@openzeppelin/contracts/access/Ownable.sol\":1094:1105  _checkOwner */\n      tag_149\n        /* \"@openzeppelin/contracts/access/Ownable.sol\":1094:1107  _checkOwner() */\n      jump\t// in\n    tag_148:\n        /* \"@openzeppelin/contracts/access/Ownable.sol\":1895:1925  _transferOwnership(address(0)) */\n      tag_151\n        /* \"@openzeppelin/contracts/access/Ownable.sol\":1922:1923  0 */\n      0x00\n        /* \"@openzeppelin/contracts/access/Ownable.sol\":1895:1913  _transferOwnership */\n      tag_152\n        /* \"@openzeppelin/contracts/access/Ownable.sol\":1895:1925  _transferOwnership(address(0)) */\n      jump\t// in\n    tag_151:\n        /* \"@openzeppelin/contracts/access/Ownable.sol\":1831:1932  function renounceOwnership() public virtual onlyOwner {... */\n      jump\t// out\n        /* \"contracts/Staking.sol\":2863:3076  function setLockPeriod(uint256 _lockPeriod) external onlyOwner {... */\n    tag_46:\n        /* \"@openzeppelin/contracts/access/Ownable.sol\":1094:1107  _checkOwner() */\n      tag_154\n        /* \"@openzeppelin/contracts/access/Ownable.sol\":1094:1105  _checkOwner */\n      tag_149\n        /* \"@openzeppelin/contracts/access/Ownable.sol\":1094:1107  _checkOwner() */\n      jump\t// in\n    tag_154:\n        /* \"contracts/Staking.sol\":2959:2960  0 */\n      0x00\n        /* \"contracts/Staking.sol\":2945:2956  _lockPeriod */\n      dup2\n        /* \"contracts/Staking.sol\":2945:2960  _lockPeriod > 0 */\n      gt\n        /* \"contracts/Staking.sol\":2937:2985  require(_lockPeriod > 0, \"Invalid lock period.\") */\n      tag_156\n      jumpi\n      mload(0x40)\n      0x08c379a000000000000000000000000000000000000000000000000000000000\n      dup2\n      mstore\n      0x04\n      add\n      tag_157\n      swap1\n      tag_158\n      jump\t// in\n    tag_157:\n      mload(0x40)\n      dup1\n      swap2\n      sub\n      swap1\n      revert\n    tag_156:\n        /* \"contracts/Staking.sol\":3009:3020  _lockPeriod */\n      dup1\n        /* \"contracts/Staking.sol\":2996:3006  lockPeriod */\n      0x02\n        /* \"contracts/Staking.sol\":2996:3020  lockPeriod = _lockPeriod */\n      dup2\n      swap1\n      sstore\n      pop\n        /* \"contracts/Staking.sol\":3038:3068  LockPeriodUpdated(_lockPeriod) */\n      0x8249ec545e68f6f1e1230133ca48c704d831a7f8e635ded80f3dd9e99b09bb2f\n        /* \"contracts/Staking.sol\":3056:3067  _lockPeriod */\n      dup2\n        /* \"contracts/Staking.sol\":3038:3068  LockPeriodUpdated(_lockPeriod) */\n      mload(0x40)\n      tag_159\n      swap2\n      swap1\n      tag_33\n      jump\t// in\n    tag_159:\n      mload(0x40)\n      dup1\n      swap2\n      sub\n      swap1\n      log1\n        /* \"contracts/Staking.sol\":2863:3076  function setLockPeriod(uint256 _lockPeriod) external onlyOwner {... */\n      pop\n      jump\t// out\n        /* \"@openzeppelin/contracts/access/Ownable.sol\":1201:1286  function owner() public view virtual returns (address) {... */\n    tag_48:\n        /* \"@openzeppelin/contracts/access/Ownable.sol\":1247:1254  address */\n      0x00\n        /* \"@openzeppelin/contracts/access/Ownable.sol\":1273:1279  _owner */\n      dup1\n      0x00\n      swap1\n      sload\n      swap1\n      0x0100\n      exp\n      swap1\n      div\n      0xffffffffffffffffffffffffffffffffffffffff\n      and\n        /* \"@openzeppelin/contracts/access/Ownable.sol\":1266:1279  return _owner */\n      swap1\n      pop\n        /* \"@openzeppelin/contracts/access/Ownable.sol\":1201:1286  function owner() public view virtual returns (address) {... */\n      swap1\n      jump\t// out\n        /* \"contracts/Staking.sol\":4201:5213  function unlockNFT(uint256[] calldata _tokenIds, IERC721 nftAddress) external notContract nonReentrant {... */\n    tag_52:\n        /* \"contracts/Staking.sol\":2589:2621  address(msg.sender).isContract() */\n      tag_162\n        /* \"contracts/Staking.sol\":2597:2607  msg.sender */\n      caller\n        /* \"contracts/Staking.sol\":2589:2619  address(msg.sender).isContract */\n      0xffffffffffffffffffffffffffffffffffffffff\n      and\n      tag_62\n        /* \"contracts/Staking.sol\":2589:2621  address(msg.sender).isContract() */\n      jump\t// in\n    tag_162:\n        /* \"contracts/Staking.sol\":2588:2621  !address(msg.sender).isContract() */\n      iszero\n        /* \"contracts/Staking.sol\":2580:2646  require(!address(msg.sender).isContract(), \"Contract not allowed\") */\n      tag_163\n      jumpi\n      mload(0x40)\n      0x08c379a000000000000000000000000000000000000000000000000000000000\n      dup2\n      mstore\n      0x04\n      add\n      tag_164\n      swap1\n      tag_65\n      jump\t// in\n    tag_164:\n      mload(0x40)\n      dup1\n      swap2\n      sub\n      swap1\n      revert\n    tag_163:\n        /* \"contracts/Staking.sol\":2679:2688  tx.origin */\n      origin\n        /* \"contracts/Staking.sol\":2665:2688  msg.sender == tx.origin */\n      0xffffffffffffffffffffffffffffffffffffffff\n      and\n        /* \"contracts/Staking.sol\":2665:2675  msg.sender */\n      caller\n        /* \"contracts/Staking.sol\":2665:2688  msg.sender == tx.origin */\n      0xffffffffffffffffffffffffffffffffffffffff\n      and\n      eq\n        /* \"contracts/Staking.sol\":2657:2719  require(msg.sender == tx.origin, \"Proxy contract not allowed\") */\n      tag_165\n      jumpi\n      mload(0x40)\n      0x08c379a000000000000000000000000000000000000000000000000000000000\n      dup2\n      mstore\n      0x04\n      add\n      tag_166\n      swap1\n      tag_68\n      jump\t// in\n    tag_166:\n      mload(0x40)\n      dup1\n      swap2\n      sub\n      swap1\n      revert\n    tag_165:\n        /* \"@openzeppelin/contracts/security/ReentrancyGuard.sol\":1744:1745  2 */\n      0x02\n        /* \"@openzeppelin/contracts/security/ReentrancyGuard.sol\":2325:2332  _status */\n      sload(0x01)\n        /* \"@openzeppelin/contracts/security/ReentrancyGuard.sol\":2325:2344  _status != _ENTERED */\n      sub\n        /* \"@openzeppelin/contracts/security/ReentrancyGuard.sol\":2317:2380  require(_status != _ENTERED, \"ReentrancyGuard: reentrant call\") */\n      tag_168\n      jumpi\n      mload(0x40)\n      0x08c379a000000000000000000000000000000000000000000000000000000000\n      dup2\n      mstore\n      0x04\n      add\n      tag_169\n      swap1\n      tag_117\n      jump\t// in\n    tag_169:\n      mload(0x40)\n      dup1\n      swap2\n      sub\n      swap1\n      revert\n    tag_168:\n        /* \"@openzeppelin/contracts/security/ReentrancyGuard.sol\":1744:1745  2 */\n      0x02\n        /* \"@openzeppelin/contracts/security/ReentrancyGuard.sol\":2455:2462  _status */\n      0x01\n        /* \"@openzeppelin/contracts/security/ReentrancyGuard.sol\":2455:2473  _status = _ENTERED */\n      dup2\n      swap1\n      sstore\n      pop\n        /* \"contracts/Staking.sol\":4342:4343  0 */\n      0x00\n        /* \"contracts/Staking.sol\":4323:4332  _tokenIds */\n      dup4\n      dup4\n        /* \"contracts/Staking.sol\":4323:4339  _tokenIds.length */\n      swap1\n      pop\n        /* \"contracts/Staking.sol\":4323:4343  _tokenIds.length > 0 */\n      gt\n        /* \"contracts/Staking.sol\":4315:4357  require(_tokenIds.length > 0, \"No tokens\") */\n      tag_171\n      jumpi\n      mload(0x40)\n      0x08c379a000000000000000000000000000000000000000000000000000000000\n      dup2\n      mstore\n      0x04\n      add\n      tag_172\n      swap1\n      tag_72\n      jump\t// in\n    tag_172:\n      mload(0x40)\n      dup1\n      swap2\n      sub\n      swap1\n      revert\n    tag_171:\n        /* \"contracts/Staking.sol\":4375:4384  uint256 i */\n      0x00\n        /* \"contracts/Staking.sol\":4370:5154  for (uint256 i = 0; i < _tokenIds.length; i++) {... */\n    tag_173:\n        /* \"contracts/Staking.sol\":4394:4403  _tokenIds */\n      dup4\n      dup4\n        /* \"contracts/Staking.sol\":4394:4410  _tokenIds.length */\n      swap1\n      pop\n        /* \"contracts/Staking.sol\":4390:4391  i */\n      dup2\n        /* \"contracts/Staking.sol\":4390:4410  i < _tokenIds.length */\n      lt\n        /* \"contracts/Staking.sol\":4370:5154  for (uint256 i = 0; i < _tokenIds.length; i++) {... */\n      iszero\n      tag_174\n      jumpi\n        /* \"contracts/Staking.sol\":4432:4452  LockInfo memory info */\n      0x00\n        /* \"contracts/Staking.sol\":4455:4463  lockInfo */\n      0x03\n        /* \"contracts/Staking.sol\":4455:4477  lockInfo[_tokenIds[i]] */\n      0x00\n        /* \"contracts/Staking.sol\":4464:4473  _tokenIds */\n      dup7\n      dup7\n        /* \"contracts/Staking.sol\":4474:4475  i */\n      dup6\n        /* \"contracts/Staking.sol\":4464:4476  _tokenIds[i] */\n      dup2\n      dup2\n      lt\n      tag_176\n      jumpi\n      tag_177\n      tag_78\n      jump\t// in\n    tag_177:\n    tag_176:\n      swap1\n      pop\n      0x20\n      mul\n      add\n      calldataload\n        /* \"contracts/Staking.sol\":4455:4477  lockInfo[_tokenIds[i]] */\n      dup2\n      mstore\n      0x20\n      add\n      swap1\n      dup2\n      mstore\n      0x20\n      add\n      0x00\n      keccak256\n        /* \"contracts/Staking.sol\":4432:4477  LockInfo memory info = lockInfo[_tokenIds[i]] */\n      mload(0x40)\n      dup1\n      0xa0\n      add\n      0x40\n      mstore\n      swap1\n      dup2\n      0x00\n      dup3\n      add\n      0x00\n      swap1\n      sload\n      swap1\n      0x0100\n      exp\n      swap1\n      div\n      0xffffffffffffffffffffffffffffffffffffffff\n      and\n      0xffffffffffffffffffffffffffffffffffffffff\n      and\n      0xffffffffffffffffffffffffffffffffffffffff\n      and\n      dup2\n      mstore\n      0x20\n      add\n      0x01\n      dup3\n      add\n      sload\n      dup2\n      mstore\n      0x20\n      add\n      0x02\n      dup3\n      add\n      sload\n      dup2\n      mstore\n      0x20\n      add\n      0x03\n      dup3\n      add\n      0x00\n      swap1\n      sload\n      swap1\n      0x0100\n      exp\n      swap1\n      div\n      0xff\n      and\n      iszero\n      iszero\n      iszero\n      iszero\n      dup2\n      mstore\n      0x20\n      add\n      0x03\n      dup3\n      add\n      0x01\n      swap1\n      sload\n      swap1\n      0x0100\n      exp\n      swap1\n      div\n      0xffffffffffffffffffffffffffffffffffffffff\n      and\n      0xffffffffffffffffffffffffffffffffffffffff\n      and\n      0xffffffffffffffffffffffffffffffffffffffff\n      and\n      dup2\n      mstore\n      pop\n      pop\n      swap1\n      pop\n        /* \"contracts/Staking.sol\":4514:4524  msg.sender */\n      caller\n        /* \"contracts/Staking.sol\":4500:4524  info.owner == msg.sender */\n      0xffffffffffffffffffffffffffffffffffffffff\n      and\n        /* \"contracts/Staking.sol\":4500:4504  info */\n      dup2\n        /* \"contracts/Staking.sol\":4500:4510  info.owner */\n      0x00\n      add\n      mload\n        /* \"contracts/Staking.sol\":4500:4524  info.owner == msg.sender */\n      0xffffffffffffffffffffffffffffffffffffffff\n      and\n      eq\n        /* \"contracts/Staking.sol\":4492:4546  require(info.owner == msg.sender, \"Not a token owner\") */\n      tag_178\n      jumpi\n      mload(0x40)\n      0x08c379a000000000000000000000000000000000000000000000000000000000\n      dup2\n      mstore\n      0x04\n      add\n      tag_179\n      swap1\n      tag_81\n      jump\t// in\n    tag_179:\n      mload(0x40)\n      dup1\n      swap2\n      sub\n      swap1\n      revert\n    tag_178:\n        /* \"contracts/Staking.sol\":4600:4615  block.timestamp */\n      timestamp\n        /* \"contracts/Staking.sol\":4587:4597  lockPeriod */\n      sload(0x02)\n        /* \"contracts/Staking.sol\":4569:4573  info */\n      dup3\n        /* \"contracts/Staking.sol\":4569:4584  info.lockedTime */\n      0x20\n      add\n      mload\n        /* \"contracts/Staking.sol\":4569:4597  info.lockedTime + lockPeriod */\n      tag_180\n      swap2\n      swap1\n      tag_83\n      jump\t// in\n    tag_180:\n        /* \"contracts/Staking.sol\":4569:4615  info.lockedTime + lockPeriod < block.timestamp */\n      lt\n        /* \"contracts/Staking.sol\":4561:4642  require(info.lockedTime + lockPeriod < block.timestamp, \"Not able to unlock yet\") */\n      tag_181\n      jumpi\n      mload(0x40)\n      0x08c379a000000000000000000000000000000000000000000000000000000000\n      dup2\n      mstore\n      0x04\n      add\n      tag_182\n      swap1\n      tag_183\n      jump\t// in\n    tag_182:\n      mload(0x40)\n      dup1\n      swap2\n      sub\n      swap1\n      revert\n    tag_181:\n        /* \"contracts/Staking.sol\":4666:4670  info */\n      dup1\n        /* \"contracts/Staking.sol\":4666:4681  info.isUnlocked */\n      0x60\n      add\n      mload\n        /* \"contracts/Staking.sol\":4665:4681  !info.isUnlocked */\n      iszero\n        /* \"contracts/Staking.sol\":4657:4702  require(!info.isUnlocked, \"Already unlocked\") */\n      tag_184\n      jumpi\n      mload(0x40)\n      0x08c379a000000000000000000000000000000000000000000000000000000000\n      dup2\n      mstore\n      0x04\n      add\n      tag_185\n      swap1\n      tag_89\n      jump\t// in\n    tag_185:\n      mload(0x40)\n      dup1\n      swap2\n      sub\n      swap1\n      revert\n    tag_184:\n        /* \"contracts/Staking.sol\":4719:4729  nftAddress */\n      dup3\n        /* \"contracts/Staking.sol\":4719:4742  nftAddress.transferFrom */\n      0xffffffffffffffffffffffffffffffffffffffff\n      and\n      0x23b872dd\n        /* \"contracts/Staking.sol\":4751:4755  this */\n      address\n        /* \"contracts/Staking.sol\":4758:4768  msg.sender */\n      caller\n        /* \"contracts/Staking.sol\":4770:4779  _tokenIds */\n      dup9\n      dup9\n        /* \"contracts/Staking.sol\":4780:4781  i */\n      dup8\n        /* \"contracts/Staking.sol\":4770:4782  _tokenIds[i] */\n      dup2\n      dup2\n      lt\n      tag_186\n      jumpi\n      tag_187\n      tag_78\n      jump\t// in\n    tag_187:\n    tag_186:\n      swap1\n      pop\n      0x20\n      mul\n      add\n      calldataload\n        /* \"contracts/Staking.sol\":4719:4783  nftAddress.transferFrom(address(this), msg.sender, _tokenIds[i]) */\n      mload(0x40)\n      dup5\n      0xffffffff\n      and\n      0xe0\n      shl\n      dup2\n      mstore\n      0x04\n      add\n      tag_188\n      swap4\n      swap3\n      swap2\n      swap1\n      tag_137\n      jump\t// in\n    tag_188:\n      0x00\n      mload(0x40)\n      dup1\n      dup4\n      sub\n      dup2\n      0x00\n      dup8\n      dup1\n      extcodesize\n      iszero\n      dup1\n      iszero\n      tag_189\n      jumpi\n      0x00\n      dup1\n      revert\n    tag_189:\n      pop\n      gas\n      call\n      iszero\n      dup1\n      iszero\n      tag_191\n      jumpi\n      returndatasize\n      0x00\n      dup1\n      returndatacopy\n      revert(0x00, returndatasize)\n    tag_191:\n      pop\n      pop\n      pop\n      pop\n        /* \"contracts/Staking.sol\":4800:4819  uint256 totalAmount */\n      0x00\n        /* \"contracts/Staking.sol\":4822:4861  _rewardAmount(_tokenIds[i], nftAddress) */\n      tag_192\n        /* \"contracts/Staking.sol\":4836:4845  _tokenIds */\n      dup7\n      dup7\n        /* \"contracts/Staking.sol\":4846:4847  i */\n      dup6\n        /* \"contracts/Staking.sol\":4836:4848  _tokenIds[i] */\n      dup2\n      dup2\n      lt\n      tag_193\n      jumpi\n      tag_194\n      tag_78\n      jump\t// in\n    tag_194:\n    tag_193:\n      swap1\n      pop\n      0x20\n      mul\n      add\n      calldataload\n        /* \"contracts/Staking.sol\":4850:4860  nftAddress */\n      dup6\n        /* \"contracts/Staking.sol\":4822:4835  _rewardAmount */\n      tag_93\n        /* \"contracts/Staking.sol\":4822:4861  _rewardAmount(_tokenIds[i], nftAddress) */\n      jump\t// in\n    tag_192:\n        /* \"contracts/Staking.sol\":4800:4861  uint256 totalAmount = _rewardAmount(_tokenIds[i], nftAddress) */\n      swap1\n      pop\n        /* \"contracts/Staking.sol\":4876:4900  uint256 unclaminedAmount */\n      0x00\n        /* \"contracts/Staking.sol\":4917:4921  info */\n      dup3\n        /* \"contracts/Staking.sol\":4917:4936  info.claimedRewards */\n      0x40\n      add\n      mload\n        /* \"contracts/Staking.sol\":4903:4914  totalAmount */\n      dup3\n        /* \"contracts/Staking.sol\":4903:4936  totalAmount - info.claimedRewards */\n      tag_195\n      swap2\n      swap1\n      tag_95\n      jump\t// in\n    tag_195:\n        /* \"contracts/Staking.sol\":4876:4936  uint256 unclaminedAmount = totalAmount - info.claimedRewards */\n      swap1\n      pop\n        /* \"contracts/Staking.sol\":4952:4959  nftInfo */\n      0x04\n        /* \"contracts/Staking.sol\":4952:4971  nftInfo[nftAddress] */\n      0x00\n        /* \"contracts/Staking.sol\":4960:4970  nftAddress */\n      dup7\n        /* \"contracts/Staking.sol\":4952:4971  nftInfo[nftAddress] */\n      0xffffffffffffffffffffffffffffffffffffffff\n      and\n      0xffffffffffffffffffffffffffffffffffffffff\n      and\n      dup2\n      mstore\n      0x20\n      add\n      swap1\n      dup2\n      mstore\n      0x20\n      add\n      0x00\n      keccak256\n        /* \"contracts/Staking.sol\":4952:4984  nftInfo[nftAddress].rewardsToken */\n      0x00\n      add\n      0x00\n      swap1\n      sload\n      swap1\n      0x0100\n      exp\n      swap1\n      div\n      0xffffffffffffffffffffffffffffffffffffffff\n      and\n        /* \"contracts/Staking.sol\":4952:4989  nftInfo[nftAddress].rewardsToken.mint */\n      0xffffffffffffffffffffffffffffffffffffffff\n      and\n      0x40c10f19\n        /* \"contracts/Staking.sol\":4990:5000  msg.sender */\n      caller\n        /* \"contracts/Staking.sol\":5002:5018  unclaminedAmount */\n      dup4\n        /* \"contracts/Staking.sol\":4952:5019  nftInfo[nftAddress].rewardsToken.mint(msg.sender, unclaminedAmount) */\n      mload(0x40)\n      dup4\n      0xffffffff\n      and\n      0xe0\n      shl\n      dup2\n      mstore\n      0x04\n      add\n      tag_196\n      swap3\n      swap2\n      swap1\n      tag_97\n      jump\t// in\n    tag_196:\n      0x00\n      mload(0x40)\n      dup1\n      dup4\n      sub\n      dup2\n      0x00\n      dup8\n      dup1\n      extcodesize\n      iszero\n      dup1\n      iszero\n      tag_197\n      jumpi\n      0x00\n      dup1\n      revert\n    tag_197:\n      pop\n      gas\n      call\n      iszero\n      dup1\n      iszero\n      tag_199\n      jumpi\n      returndatasize\n      0x00\n      dup1\n      returndatacopy\n      revert(0x00, returndatasize)\n    tag_199:\n      pop\n      pop\n      pop\n      pop\n        /* \"contracts/Staking.sol\":5076:5087  totalAmount */\n      dup2\n        /* \"contracts/Staking.sol\":5036:5044  lockInfo */\n      0x03\n        /* \"contracts/Staking.sol\":5036:5058  lockInfo[_tokenIds[i]] */\n      0x00\n        /* \"contracts/Staking.sol\":5045:5054  _tokenIds */\n      dup10\n      dup10\n        /* \"contracts/Staking.sol\":5055:5056  i */\n      dup9\n        /* \"contracts/Staking.sol\":5045:5057  _tokenIds[i] */\n      dup2\n      dup2\n      lt\n      tag_200\n      jumpi\n      tag_201\n      tag_78\n      jump\t// in\n    tag_201:\n    tag_200:\n      swap1\n      pop\n      0x20\n      mul\n      add\n      calldataload\n        /* \"contracts/Staking.sol\":5036:5058  lockInfo[_tokenIds[i]] */\n      dup2\n      mstore\n      0x20\n      add\n      swap1\n      dup2\n      mstore\n      0x20\n      add\n      0x00\n      keccak256\n        /* \"contracts/Staking.sol\":5036:5073  lockInfo[_tokenIds[i]].claimedRewards */\n      0x02\n      add\n        /* \"contracts/Staking.sol\":5036:5087  lockInfo[_tokenIds[i]].claimedRewards = totalAmount */\n      dup2\n      swap1\n      sstore\n      pop\n        /* \"contracts/Staking.sol\":5138:5142  true */\n      0x01\n        /* \"contracts/Staking.sol\":5102:5110  lockInfo */\n      0x03\n        /* \"contracts/Staking.sol\":5102:5124  lockInfo[_tokenIds[i]] */\n      0x00\n        /* \"contracts/Staking.sol\":5111:5120  _tokenIds */\n      dup10\n      dup10\n        /* \"contracts/Staking.sol\":5121:5122  i */\n      dup9\n        /* \"contracts/Staking.sol\":5111:5123  _tokenIds[i] */\n      dup2\n      dup2\n      lt\n      tag_202\n      jumpi\n      tag_203\n      tag_78\n      jump\t// in\n    tag_203:\n    tag_202:\n      swap1\n      pop\n      0x20\n      mul\n      add\n      calldataload\n        /* \"contracts/Staking.sol\":5102:5124  lockInfo[_tokenIds[i]] */\n      dup2\n      mstore\n      0x20\n      add\n      swap1\n      dup2\n      mstore\n      0x20\n      add\n      0x00\n      keccak256\n        /* \"contracts/Staking.sol\":5102:5135  lockInfo[_tokenIds[i]].isUnlocked */\n      0x03\n      add\n      0x00\n        /* \"contracts/Staking.sol\":5102:5142  lockInfo[_tokenIds[i]].isUnlocked = true */\n      0x0100\n      exp\n      dup2\n      sload\n      dup2\n      0xff\n      mul\n      not\n      and\n      swap1\n      dup4\n      iszero\n      iszero\n      mul\n      or\n      swap1\n      sstore\n      pop\n        /* \"contracts/Staking.sol\":4417:5154  {... */\n      pop\n      pop\n      pop\n        /* \"contracts/Staking.sol\":4412:4415  i++ */\n      dup1\n      dup1\n      tag_204\n      swap1\n      tag_105\n      jump\t// in\n    tag_204:\n      swap2\n      pop\n      pop\n        /* \"contracts/Staking.sol\":4370:5154  for (uint256 i = 0; i < _tokenIds.length; i++) {... */\n      jump(tag_173)\n    tag_174:\n      pop\n        /* \"contracts/Staking.sol\":5183:5193  msg.sender */\n      caller\n        /* \"contracts/Staking.sol\":5171:5205  NFTUnLocked(msg.sender, _tokenIds) */\n      0xffffffffffffffffffffffffffffffffffffffff\n      and\n      0x5cb48022479b9ac3bfb10a27965dc010acffc9fc1bc9a52f0b18975b944b54ca\n        /* \"contracts/Staking.sol\":5195:5204  _tokenIds */\n      dup5\n      dup5\n        /* \"contracts/Staking.sol\":5171:5205  NFTUnLocked(msg.sender, _tokenIds) */\n      mload(0x40)\n      tag_205\n      swap3\n      swap2\n      swap1\n      tag_145\n      jump\t// in\n    tag_205:\n      mload(0x40)\n      dup1\n      swap2\n      sub\n      swap1\n      log2\n        /* \"@openzeppelin/contracts/security/ReentrancyGuard.sol\":1701:1702  1 */\n      0x01\n        /* \"@openzeppelin/contracts/security/ReentrancyGuard.sol\":2628:2635  _status */\n      dup1\n        /* \"@openzeppelin/contracts/security/ReentrancyGuard.sol\":2628:2650  _status = _NOT_ENTERED */\n      dup2\n      swap1\n      sstore\n      pop\n        /* \"contracts/Staking.sol\":4201:5213  function unlockNFT(uint256[] calldata _tokenIds, IERC721 nftAddress) external notContract nonReentrant {... */\n      pop\n      pop\n      pop\n      jump\t// out\n        /* \"contracts/Staking.sol\":1112:1131  uint256 public WAVE */\n    tag_54:\n      sload(0x06)\n      dup2\n      jump\t// out\n        /* \"@openzeppelin/contracts/access/Ownable.sol\":2081:2279  function transferOwnership(address newOwner) public virtual onlyOwner {... */\n    tag_59:\n        /* \"@openzeppelin/contracts/access/Ownable.sol\":1094:1107  _checkOwner() */\n      tag_207\n        /* \"@openzeppelin/contracts/access/Ownable.sol\":1094:1105  _checkOwner */\n      tag_149\n        /* \"@openzeppelin/contracts/access/Ownable.sol\":1094:1107  _checkOwner() */\n      jump\t// in\n    tag_207:\n        /* \"@openzeppelin/contracts/access/Ownable.sol\":2189:2190  0 */\n      0x00\n        /* \"@openzeppelin/contracts/access/Ownable.sol\":2169:2191  newOwner != address(0) */\n      0xffffffffffffffffffffffffffffffffffffffff\n      and\n        /* \"@openzeppelin/contracts/access/Ownable.sol\":2169:2177  newOwner */\n      dup2\n        /* \"@openzeppelin/contracts/access/Ownable.sol\":2169:2191  newOwner != address(0) */\n      0xffffffffffffffffffffffffffffffffffffffff\n      and\n      sub\n        /* \"@openzeppelin/contracts/access/Ownable.sol\":2161:2234  require(newOwner != address(0), \"Ownable: new owner is the zero address\") */\n      tag_209\n      jumpi\n      mload(0x40)\n      0x08c379a000000000000000000000000000000000000000000000000000000000\n      dup2\n      mstore\n      0x04\n      add\n      tag_210\n      swap1\n      tag_211\n      jump\t// in\n    tag_210:\n      mload(0x40)\n      dup1\n      swap2\n      sub\n      swap1\n      revert\n    tag_209:\n        /* \"@openzeppelin/contracts/access/Ownable.sol\":2244:2272  _transferOwnership(newOwner) */\n      tag_212\n        /* \"@openzeppelin/contracts/access/Ownable.sol\":2263:2271  newOwner */\n      dup2\n        /* \"@openzeppelin/contracts/access/Ownable.sol\":2244:2262  _transferOwnership */\n      tag_152\n        /* \"@openzeppelin/contracts/access/Ownable.sol\":2244:2272  _transferOwnership(newOwner) */\n      jump\t// in\n    tag_212:\n        /* \"@openzeppelin/contracts/access/Ownable.sol\":2081:2279  function transferOwnership(address newOwner) public virtual onlyOwner {... */\n      pop\n      jump\t// out\n        /* \"@openzeppelin/contracts/utils/Address.sol\":1175:1495  function isContract(address account) internal view returns (bool) {... */\n    tag_62:\n        /* \"@openzeppelin/contracts/utils/Address.sol\":1235:1239  bool */\n      0x00\n        /* \"@openzeppelin/contracts/utils/Address.sol\":1487:1488  0 */\n      dup1\n        /* \"@openzeppelin/contracts/utils/Address.sol\":1465:1472  account */\n      dup3\n        /* \"@openzeppelin/contracts/utils/Address.sol\":1465:1484  account.code.length */\n      0xffffffffffffffffffffffffffffffffffffffff\n      and\n      extcodesize\n        /* \"@openzeppelin/contracts/utils/Address.sol\":1465:1488  account.code.length > 0 */\n      gt\n        /* \"@openzeppelin/contracts/utils/Address.sol\":1458:1488  return account.code.length > 0 */\n      swap1\n      pop\n        /* \"@openzeppelin/contracts/utils/Address.sol\":1175:1495  function isContract(address account) internal view returns (bool) {... */\n      swap2\n      swap1\n      pop\n      jump\t// out\n        /* \"contracts/Staking.sol\":6332:6823  function _rewardAmount(uint256 _tokenId, IERC721 nftAddress) internal view returns (uint256) {... */\n    tag_93:\n        /* \"contracts/Staking.sol\":6416:6423  uint256 */\n      0x00\n        /* \"contracts/Staking.sol\":6436:6456  LockInfo memory info */\n      dup1\n        /* \"contracts/Staking.sol\":6459:6467  lockInfo */\n      0x03\n        /* \"contracts/Staking.sol\":6459:6477  lockInfo[_tokenId] */\n      0x00\n        /* \"contracts/Staking.sol\":6468:6476  _tokenId */\n      dup6\n        /* \"contracts/Staking.sol\":6459:6477  lockInfo[_tokenId] */\n      dup2\n      mstore\n      0x20\n      add\n      swap1\n      dup2\n      mstore\n      0x20\n      add\n      0x00\n      keccak256\n        /* \"contracts/Staking.sol\":6436:6477  LockInfo memory info = lockInfo[_tokenId] */\n      mload(0x40)\n      dup1\n      0xa0\n      add\n      0x40\n      mstore\n      swap1\n      dup2\n      0x00\n      dup3\n      add\n      0x00\n      swap1\n      sload\n      swap1\n      0x0100\n      exp\n      swap1\n      div\n      0xffffffffffffffffffffffffffffffffffffffff\n      and\n      0xffffffffffffffffffffffffffffffffffffffff\n      and\n      0xffffffffffffffffffffffffffffffffffffffff\n      and\n      dup2\n      mstore\n      0x20\n      add\n      0x01\n      dup3\n      add\n      sload\n      dup2\n      mstore\n      0x20\n      add\n      0x02\n      dup3\n      add\n      sload\n      dup2\n      mstore\n      0x20\n      add\n      0x03\n      dup3\n      add\n      0x00\n      swap1\n      sload\n      swap1\n      0x0100\n      exp\n      swap1\n      div\n      0xff\n      and\n      iszero\n      iszero\n      iszero\n      iszero\n      dup2\n      mstore\n      0x20\n      add\n      0x03\n      dup3\n      add\n      0x01\n      swap1\n      sload\n      swap1\n      0x0100\n      exp\n      swap1\n      div\n      0xffffffffffffffffffffffffffffffffffffffff\n      and\n      0xffffffffffffffffffffffffffffffffffffffff\n      and\n      0xffffffffffffffffffffffffffffffffffffffff\n      and\n      dup2\n      mstore\n      pop\n      pop\n      swap1\n      pop\n        /* \"contracts/Staking.sol\":6488:6511  uint256 stakingDuration */\n      0x00\n        /* \"contracts/Staking.sol\":6532:6536  info */\n      dup2\n        /* \"contracts/Staking.sol\":6532:6547  info.lockedTime */\n      0x20\n      add\n      mload\n        /* \"contracts/Staking.sol\":6514:6529  block.timestamp */\n      timestamp\n        /* \"contracts/Staking.sol\":6514:6547  block.timestamp - info.lockedTime */\n      tag_215\n      swap2\n      swap1\n      tag_95\n      jump\t// in\n    tag_215:\n        /* \"contracts/Staking.sol\":6488:6547  uint256 stakingDuration = block.timestamp - info.lockedTime */\n      swap1\n      pop\n        /* \"contracts/Staking.sol\":6558:6577  uint256 totalAmount */\n      0x00\n        /* \"contracts/Staking.sol\":6612:6622  lockPeriod */\n      sload(0x02)\n        /* \"contracts/Staking.sol\":6594:6609  stakingDuration */\n      dup3\n        /* \"contracts/Staking.sol\":6594:6622  stakingDuration < lockPeriod */\n      lt\n        /* \"contracts/Staking.sol\":6590:6816  if (stakingDuration < lockPeriod) {... */\n      iszero\n      tag_216\n      jumpi\n        /* \"contracts/Staking.sol\":6646:6647  0 */\n      0x00\n        /* \"contracts/Staking.sol\":6639:6647  return 0 */\n      swap4\n      pop\n      pop\n      pop\n      pop\n      jump(tag_214)\n        /* \"contracts/Staking.sol\":6590:6816  if (stakingDuration < lockPeriod) {... */\n    tag_216:\n        /* \"contracts/Staking.sol\":6767:6771  WAVE */\n      sload(0x06)\n        /* \"contracts/Staking.sol\":6752:6762  lockPeriod */\n      sload(0x02)\n        /* \"contracts/Staking.sol\":6734:6749  stakingDuration */\n      dup4\n        /* \"contracts/Staking.sol\":6734:6762  stakingDuration - lockPeriod */\n      tag_218\n      swap2\n      swap1\n      tag_95\n      jump\t// in\n    tag_218:\n        /* \"contracts/Staking.sol\":6696:6703  nftInfo */\n      0x04\n        /* \"contracts/Staking.sol\":6696:6715  nftInfo[nftAddress] */\n      0x00\n        /* \"contracts/Staking.sol\":6704:6714  nftAddress */\n      dup9\n        /* \"contracts/Staking.sol\":6696:6715  nftInfo[nftAddress] */\n      0xffffffffffffffffffffffffffffffffffffffff\n      and\n      0xffffffffffffffffffffffffffffffffffffffff\n      and\n      dup2\n      mstore\n      0x20\n      add\n      swap1\n      dup2\n      mstore\n      0x20\n      add\n      0x00\n      keccak256\n        /* \"contracts/Staking.sol\":6696:6730  nftInfo[nftAddress].rewardsPerWave */\n      0x01\n      add\n      sload\n        /* \"contracts/Staking.sol\":6696:6763  nftInfo[nftAddress].rewardsPerWave * (stakingDuration - lockPeriod) */\n      tag_219\n      swap2\n      swap1\n      tag_220\n      jump\t// in\n    tag_219:\n        /* \"contracts/Staking.sol\":6694:6771  ( nftInfo[nftAddress].rewardsPerWave * (stakingDuration - lockPeriod)) / WAVE */\n      tag_221\n      swap2\n      swap1\n      tag_222\n      jump\t// in\n    tag_221:\n        /* \"contracts/Staking.sol\":6680:6771  totalAmount = ( nftInfo[nftAddress].rewardsPerWave * (stakingDuration - lockPeriod)) / WAVE */\n      swap1\n      pop\n        /* \"contracts/Staking.sol\":6793:6804  totalAmount */\n      dup1\n        /* \"contracts/Staking.sol\":6786:6804  return totalAmount */\n      swap4\n      pop\n      pop\n      pop\n      pop\n        /* \"contracts/Staking.sol\":6332:6823  function _rewardAmount(uint256 _tokenId, IERC721 nftAddress) internal view returns (uint256) {... */\n    tag_214:\n      swap3\n      swap2\n      pop\n      pop\n      jump\t// out\n        /* \"@openzeppelin/contracts/access/Ownable.sol\":1359:1489  function _checkOwner() internal view virtual {... */\n    tag_149:\n        /* \"@openzeppelin/contracts/access/Ownable.sol\":1433:1445  _msgSender() */\n      tag_224\n        /* \"@openzeppelin/contracts/access/Ownable.sol\":1433:1443  _msgSender */\n      tag_225\n        /* \"@openzeppelin/contracts/access/Ownable.sol\":1433:1445  _msgSender() */\n      jump\t// in\n    tag_224:\n        /* \"@openzeppelin/contracts/access/Ownable.sol\":1422:1445  owner() == _msgSender() */\n      0xffffffffffffffffffffffffffffffffffffffff\n      and\n        /* \"@openzeppelin/contracts/access/Ownable.sol\":1422:1429  owner() */\n      tag_226\n        /* \"@openzeppelin/contracts/access/Ownable.sol\":1422:1427  owner */\n      tag_48\n        /* \"@openzeppelin/contracts/access/Ownable.sol\":1422:1429  owner() */\n      jump\t// in\n    tag_226:\n        /* \"@openzeppelin/contracts/access/Ownable.sol\":1422:1445  owner() == _msgSender() */\n      0xffffffffffffffffffffffffffffffffffffffff\n      and\n      eq\n        /* \"@openzeppelin/contracts/access/Ownable.sol\":1414:1482  require(owner() == _msgSender(), \"Ownable: caller is not the owner\") */\n      tag_227\n      jumpi\n      mload(0x40)\n      0x08c379a000000000000000000000000000000000000000000000000000000000\n      dup2\n      mstore\n      0x04\n      add\n      tag_228\n      swap1\n      tag_229\n      jump\t// in\n    tag_228:\n      mload(0x40)\n      dup1\n      swap2\n      sub\n      swap1\n      revert\n    tag_227:\n        /* \"@openzeppelin/contracts/access/Ownable.sol\":1359:1489  function _checkOwner() internal view virtual {... */\n      jump\t// out\n        /* \"@openzeppelin/contracts/access/Ownable.sol\":2433:2620  function _transferOwnership(address newOwner) internal virtual {... */\n    tag_152:\n        /* \"@openzeppelin/contracts/access/Ownable.sol\":2506:2522  address oldOwner */\n      0x00\n        /* \"@openzeppelin/contracts/access/Ownable.sol\":2525:2531  _owner */\n      dup1\n      0x00\n      swap1\n      sload\n      swap1\n      0x0100\n      exp\n      swap1\n      div\n      0xffffffffffffffffffffffffffffffffffffffff\n      and\n        /* \"@openzeppelin/contracts/access/Ownable.sol\":2506:2531  address oldOwner = _owner */\n      swap1\n      pop\n        /* \"@openzeppelin/contracts/access/Ownable.sol\":2550:2558  newOwner */\n      dup2\n        /* \"@openzeppelin/contracts/access/Ownable.sol\":2541:2547  _owner */\n      0x00\n      dup1\n        /* \"@openzeppelin/contracts/access/Ownable.sol\":2541:2558  _owner = newOwner */\n      0x0100\n      exp\n      dup2\n      sload\n      dup2\n      0xffffffffffffffffffffffffffffffffffffffff\n      mul\n      not\n      and\n      swap1\n      dup4\n      0xffffffffffffffffffffffffffffffffffffffff\n      and\n      mul\n      or\n      swap1\n      sstore\n      pop\n        /* \"@openzeppelin/contracts/access/Ownable.sol\":2604:2612  newOwner */\n      dup2\n        /* \"@openzeppelin/contracts/access/Ownable.sol\":2573:2613  OwnershipTransferred(oldOwner, newOwner) */\n      0xffffffffffffffffffffffffffffffffffffffff\n      and\n        /* \"@openzeppelin/contracts/access/Ownable.sol\":2594:2602  oldOwner */\n      dup2\n        /* \"@openzeppelin/contracts/access/Ownable.sol\":2573:2613  OwnershipTransferred(oldOwner, newOwner) */\n      0xffffffffffffffffffffffffffffffffffffffff\n      and\n      0x8be0079c531659141344cd1fd0a4f28419497f9722a3daafe3b4186f6b6457e0\n      mload(0x40)\n      mload(0x40)\n      dup1\n      swap2\n      sub\n      swap1\n      log3\n        /* \"@openzeppelin/contracts/access/Ownable.sol\":2496:2620  {... */\n      pop\n        /* \"@openzeppelin/contracts/access/Ownable.sol\":2433:2620  function _transferOwnership(address newOwner) internal virtual {... */\n      pop\n      jump\t// out\n        /* \"@openzeppelin/contracts/utils/Context.sol\":640:736  function _msgSender() internal view virtual returns (address) {... */\n    tag_225:\n        /* \"@openzeppelin/contracts/utils/Context.sol\":693:700  address */\n      0x00\n        /* \"@openzeppelin/contracts/utils/Context.sol\":719:729  msg.sender */\n      caller\n        /* \"@openzeppelin/contracts/utils/Context.sol\":712:729  return msg.sender */\n      swap1\n      pop\n        /* \"@openzeppelin/contracts/utils/Context.sol\":640:736  function _msgSender() internal view virtual returns (address) {... */\n      swap1\n      jump\t// out\n        /* \"#utility.yul\":88:205   */\n    tag_233:\n        /* \"#utility.yul\":197:198   */\n      0x00\n        /* \"#utility.yul\":194:195   */\n      dup1\n        /* \"#utility.yul\":187:199   */\n      revert\n        /* \"#utility.yul\":211:328   */\n    tag_234:\n        /* \"#utility.yul\":320:321   */\n      0x00\n        /* \"#utility.yul\":317:318   */\n      dup1\n        /* \"#utility.yul\":310:322   */\n      revert\n        /* \"#utility.yul\":334:451   */\n    tag_235:\n        /* \"#utility.yul\":443:444   */\n      0x00\n        /* \"#utility.yul\":440:441   */\n      dup1\n        /* \"#utility.yul\":433:445   */\n      revert\n        /* \"#utility.yul\":457:574   */\n    tag_236:\n        /* \"#utility.yul\":566:567   */\n      0x00\n        /* \"#utility.yul\":563:564   */\n      dup1\n        /* \"#utility.yul\":556:568   */\n      revert\n        /* \"#utility.yul\":580:697   */\n    tag_237:\n        /* \"#utility.yul\":689:690   */\n      0x00\n        /* \"#utility.yul\":686:687   */\n      dup1\n        /* \"#utility.yul\":679:691   */\n      revert\n        /* \"#utility.yul\":720:1288   */\n    tag_238:\n        /* \"#utility.yul\":793:801   */\n      0x00\n        /* \"#utility.yul\":803:809   */\n      dup1\n        /* \"#utility.yul\":853:856   */\n      dup4\n        /* \"#utility.yul\":846:850   */\n      0x1f\n        /* \"#utility.yul\":838:844   */\n      dup5\n        /* \"#utility.yul\":834:851   */\n      add\n        /* \"#utility.yul\":830:857   */\n      slt\n        /* \"#utility.yul\":820:942   */\n      tag_298\n      jumpi\n        /* \"#utility.yul\":861:940   */\n      tag_299\n      tag_235\n      jump\t// in\n    tag_299:\n        /* \"#utility.yul\":820:942   */\n    tag_298:\n        /* \"#utility.yul\":974:980   */\n      dup3\n        /* \"#utility.yul\":961:981   */\n      calldataload\n        /* \"#utility.yul\":951:981   */\n      swap1\n      pop\n        /* \"#utility.yul\":1004:1022   */\n      0xffffffffffffffff\n        /* \"#utility.yul\":996:1002   */\n      dup2\n        /* \"#utility.yul\":993:1023   */\n      gt\n        /* \"#utility.yul\":990:1107   */\n      iszero\n      tag_300\n      jumpi\n        /* \"#utility.yul\":1026:1105   */\n      tag_301\n      tag_236\n      jump\t// in\n    tag_301:\n        /* \"#utility.yul\":990:1107   */\n    tag_300:\n        /* \"#utility.yul\":1140:1144   */\n      0x20\n        /* \"#utility.yul\":1132:1138   */\n      dup4\n        /* \"#utility.yul\":1128:1145   */\n      add\n        /* \"#utility.yul\":1116:1145   */\n      swap2\n      pop\n        /* \"#utility.yul\":1194:1197   */\n      dup4\n        /* \"#utility.yul\":1186:1190   */\n      0x20\n        /* \"#utility.yul\":1178:1184   */\n      dup3\n        /* \"#utility.yul\":1174:1191   */\n      mul\n        /* \"#utility.yul\":1164:1172   */\n      dup4\n        /* \"#utility.yul\":1160:1192   */\n      add\n        /* \"#utility.yul\":1157:1198   */\n      gt\n        /* \"#utility.yul\":1154:1282   */\n      iszero\n      tag_302\n      jumpi\n        /* \"#utility.yul\":1201:1280   */\n      tag_303\n      tag_237\n      jump\t// in\n    tag_303:\n        /* \"#utility.yul\":1154:1282   */\n    tag_302:\n        /* \"#utility.yul\":720:1288   */\n      swap3\n      pop\n      swap3\n      swap1\n      pop\n      jump\t// out\n        /* \"#utility.yul\":1294:1420   */\n    tag_239:\n        /* \"#utility.yul\":1331:1338   */\n      0x00\n        /* \"#utility.yul\":1371:1413   */\n      0xffffffffffffffffffffffffffffffffffffffff\n        /* \"#utility.yul\":1364:1369   */\n      dup3\n        /* \"#utility.yul\":1360:1414   */\n      and\n        /* \"#utility.yul\":1349:1414   */\n      swap1\n      pop\n        /* \"#utility.yul\":1294:1420   */\n      swap2\n      swap1\n      pop\n      jump\t// out\n        /* \"#utility.yul\":1426:1522   */\n    tag_240:\n        /* \"#utility.yul\":1463:1470   */\n      0x00\n        /* \"#utility.yul\":1492:1516   */\n      tag_306\n        /* \"#utility.yul\":1510:1515   */\n      dup3\n        /* \"#utility.yul\":1492:1516   */\n      tag_239\n      jump\t// in\n    tag_306:\n        /* \"#utility.yul\":1481:1516   */\n      swap1\n      pop\n        /* \"#utility.yul\":1426:1522   */\n      swap2\n      swap1\n      pop\n      jump\t// out\n        /* \"#utility.yul\":1528:1639   */\n    tag_241:\n        /* \"#utility.yul\":1580:1587   */\n      0x00\n        /* \"#utility.yul\":1609:1633   */\n      tag_308\n        /* \"#utility.yul\":1627:1632   */\n      dup3\n        /* \"#utility.yul\":1609:1633   */\n      tag_240\n      jump\t// in\n    tag_308:\n        /* \"#utility.yul\":1598:1633   */\n      swap1\n      pop\n        /* \"#utility.yul\":1528:1639   */\n      swap2\n      swap1\n      pop\n      jump\t// out\n        /* \"#utility.yul\":1645:1797   */\n    tag_242:\n        /* \"#utility.yul\":1733:1772   */\n      tag_310\n        /* \"#utility.yul\":1766:1771   */\n      dup2\n        /* \"#utility.yul\":1733:1772   */\n      tag_241\n      jump\t// in\n    tag_310:\n        /* \"#utility.yul\":1726:1731   */\n      dup2\n        /* \"#utility.yul\":1723:1773   */\n      eq\n        /* \"#utility.yul\":1713:1791   */\n      tag_311\n      jumpi\n        /* \"#utility.yul\":1787:1788   */\n      0x00\n        /* \"#utility.yul\":1784:1785   */\n      dup1\n        /* \"#utility.yul\":1777:1789   */\n      revert\n        /* \"#utility.yul\":1713:1791   */\n    tag_311:\n        /* \"#utility.yul\":1645:1797   */\n      pop\n      jump\t// out\n        /* \"#utility.yul\":1803:1972   */\n    tag_243:\n        /* \"#utility.yul\":1864:1869   */\n      0x00\n        /* \"#utility.yul\":1902:1908   */\n      dup2\n        /* \"#utility.yul\":1889:1909   */\n      calldataload\n        /* \"#utility.yul\":1880:1909   */\n      swap1\n      pop\n        /* \"#utility.yul\":1918:1966   */\n      tag_313\n        /* \"#utility.yul\":1960:1965   */\n      dup2\n        /* \"#utility.yul\":1918:1966   */\n      tag_242\n      jump\t// in\n    tag_313:\n        /* \"#utility.yul\":1803:1972   */\n      swap3\n      swap2\n      pop\n      pop\n      jump\t// out\n        /* \"#utility.yul\":1978:2712   */\n    tag_18:\n        /* \"#utility.yul\":2088:2094   */\n      0x00\n        /* \"#utility.yul\":2096:2102   */\n      dup1\n        /* \"#utility.yul\":2104:2110   */\n      0x00\n        /* \"#utility.yul\":2153:2155   */\n      0x40\n        /* \"#utility.yul\":2141:2150   */\n      dup5\n        /* \"#utility.yul\":2132:2139   */\n      dup7\n        /* \"#utility.yul\":2128:2151   */\n      sub\n        /* \"#utility.yul\":2124:2156   */\n      slt\n        /* \"#utility.yul\":2121:2240   */\n      iszero\n      tag_315\n      jumpi\n        /* \"#utility.yul\":2159:2238   */\n      tag_316\n      tag_233\n      jump\t// in\n    tag_316:\n        /* \"#utility.yul\":2121:2240   */\n    tag_315:\n        /* \"#utility.yul\":2307:2308   */\n      0x00\n        /* \"#utility.yul\":2296:2305   */\n      dup5\n        /* \"#utility.yul\":2292:2309   */\n      add\n        /* \"#utility.yul\":2279:2310   */\n      calldataload\n        /* \"#utility.yul\":2337:2355   */\n      0xffffffffffffffff\n        /* \"#utility.yul\":2329:2335   */\n      dup2\n        /* \"#utility.yul\":2326:2356   */\n      gt\n        /* \"#utility.yul\":2323:2440   */\n      iszero\n      tag_317\n      jumpi\n        /* \"#utility.yul\":2359:2438   */\n      tag_318\n      tag_234\n      jump\t// in\n    tag_318:\n        /* \"#utility.yul\":2323:2440   */\n    tag_317:\n        /* \"#utility.yul\":2472:2552   */\n      tag_319\n        /* \"#utility.yul\":2544:2551   */\n      dup7\n        /* \"#utility.yul\":2535:2541   */\n      dup3\n        /* \"#utility.yul\":2524:2533   */\n      dup8\n        /* \"#utility.yul\":2520:2542   */\n      add\n        /* \"#utility.yul\":2472:2552   */\n      tag_238\n      jump\t// in\n    tag_319:\n        /* \"#utility.yul\":2454:2552   */\n      swap4\n      pop\n      swap4\n      pop\n        /* \"#utility.yul\":2250:2562   */\n      pop\n        /* \"#utility.yul\":2601:2603   */\n      0x20\n        /* \"#utility.yul\":2627:2695   */\n      tag_320\n        /* \"#utility.yul\":2687:2694   */\n      dup7\n        /* \"#utility.yul\":2678:2684   */\n      dup3\n        /* \"#utility.yul\":2667:2676   */\n      dup8\n        /* \"#utility.yul\":2663:2685   */\n      add\n        /* \"#utility.yul\":2627:2695   */\n      tag_243\n      jump\t// in\n    tag_320:\n        /* \"#utility.yul\":2617:2695   */\n      swap2\n      pop\n        /* \"#utility.yul\":2572:2705   */\n      pop\n        /* \"#utility.yul\":1978:2712   */\n      swap3\n      pop\n      swap3\n      pop\n      swap3\n      jump\t// out\n        /* \"#utility.yul\":2718:2795   */\n    tag_244:\n        /* \"#utility.yul\":2755:2762   */\n      0x00\n        /* \"#utility.yul\":2784:2789   */\n      dup2\n        /* \"#utility.yul\":2773:2789   */\n      swap1\n      pop\n        /* \"#utility.yul\":2718:2795   */\n      swap2\n      swap1\n      pop\n      jump\t// out\n        /* \"#utility.yul\":2801:2923   */\n    tag_245:\n        /* \"#utility.yul\":2874:2898   */\n      tag_323\n        /* \"#utility.yul\":2892:2897   */\n      dup2\n        /* \"#utility.yul\":2874:2898   */\n      tag_244\n      jump\t// in\n    tag_323:\n        /* \"#utility.yul\":2867:2872   */\n      dup2\n        /* \"#utility.yul\":2864:2899   */\n      eq\n        /* \"#utility.yul\":2854:2917   */\n      tag_324\n      jumpi\n        /* \"#utility.yul\":2913:2914   */\n      0x00\n        /* \"#utility.yul\":2910:2911   */\n      dup1\n        /* \"#utility.yul\":2903:2915   */\n      revert\n        /* \"#utility.yul\":2854:2917   */\n    tag_324:\n        /* \"#utility.yul\":2801:2923   */\n      pop\n      jump\t// out\n        /* \"#utility.yul\":2929:3068   */\n    tag_246:\n        /* \"#utility.yul\":2975:2980   */\n      0x00\n        /* \"#utility.yul\":3013:3019   */\n      dup2\n        /* \"#utility.yul\":3000:3020   */\n      calldataload\n        /* \"#utility.yul\":2991:3020   */\n      swap1\n      pop\n        /* \"#utility.yul\":3029:3062   */\n      tag_326\n        /* \"#utility.yul\":3056:3061   */\n      dup2\n        /* \"#utility.yul\":3029:3062   */\n      tag_245\n      jump\t// in\n    tag_326:\n        /* \"#utility.yul\":2929:3068   */\n      swap3\n      swap2\n      pop\n      pop\n      jump\t// out\n        /* \"#utility.yul\":3074:3403   */\n    tag_25:\n        /* \"#utility.yul\":3133:3139   */\n      0x00\n        /* \"#utility.yul\":3182:3184   */\n      0x20\n        /* \"#utility.yul\":3170:3179   */\n      dup3\n        /* \"#utility.yul\":3161:3168   */\n      dup5\n        /* \"#utility.yul\":3157:3180   */\n      sub\n        /* \"#utility.yul\":3153:3185   */\n      slt\n        /* \"#utility.yul\":3150:3269   */\n      iszero\n      tag_328\n      jumpi\n        /* \"#utility.yul\":3188:3267   */\n      tag_329\n      tag_233\n      jump\t// in\n    tag_329:\n        /* \"#utility.yul\":3150:3269   */\n    tag_328:\n        /* \"#utility.yul\":3308:3309   */\n      0x00\n        /* \"#utility.yul\":3333:3386   */\n      tag_330\n        /* \"#utility.yul\":3378:3385   */\n      dup5\n        /* \"#utility.yul\":3369:3375   */\n      dup3\n        /* \"#utility.yul\":3358:3367   */\n      dup6\n        /* \"#utility.yul\":3354:3376   */\n      add\n        /* \"#utility.yul\":3333:3386   */\n      tag_246\n      jump\t// in\n    tag_330:\n        /* \"#utility.yul\":3323:3386   */\n      swap2\n      pop\n        /* \"#utility.yul\":3279:3396   */\n      pop\n        /* \"#utility.yul\":3074:3403   */\n      swap3\n      swap2\n      pop\n      pop\n      jump\t// out\n        /* \"#utility.yul\":3409:3527   */\n    tag_247:\n        /* \"#utility.yul\":3496:3520   */\n      tag_332\n        /* \"#utility.yul\":3514:3519   */\n      dup2\n        /* \"#utility.yul\":3496:3520   */\n      tag_240\n      jump\t// in\n    tag_332:\n        /* \"#utility.yul\":3491:3494   */\n      dup3\n        /* \"#utility.yul\":3484:3521   */\n      mstore\n        /* \"#utility.yul\":3409:3527   */\n      pop\n      pop\n      jump\t// out\n        /* \"#utility.yul\":3533:3755   */\n    tag_28:\n        /* \"#utility.yul\":3626:3630   */\n      0x00\n        /* \"#utility.yul\":3664:3666   */\n      0x20\n        /* \"#utility.yul\":3653:3662   */\n      dup3\n        /* \"#utility.yul\":3649:3667   */\n      add\n        /* \"#utility.yul\":3641:3667   */\n      swap1\n      pop\n        /* \"#utility.yul\":3677:3748   */\n      tag_334\n        /* \"#utility.yul\":3745:3746   */\n      0x00\n        /* \"#utility.yul\":3734:3743   */\n      dup4\n        /* \"#utility.yul\":3730:3747   */\n      add\n        /* \"#utility.yul\":3721:3727   */\n      dup5\n        /* \"#utility.yul\":3677:3748   */\n      tag_247\n      jump\t// in\n    tag_334:\n        /* \"#utility.yul\":3533:3755   */\n      swap3\n      swap2\n      pop\n      pop\n      jump\t// out\n        /* \"#utility.yul\":3761:3879   */\n    tag_248:\n        /* \"#utility.yul\":3848:3872   */\n      tag_336\n        /* \"#utility.yul\":3866:3871   */\n      dup2\n        /* \"#utility.yul\":3848:3872   */\n      tag_244\n      jump\t// in\n    tag_336:\n        /* \"#utility.yul\":3843:3846   */\n      dup3\n        /* \"#utility.yul\":3836:3873   */\n      mstore\n        /* \"#utility.yul\":3761:3879   */\n      pop\n      pop\n      jump\t// out\n        /* \"#utility.yul\":3885:4107   */\n    tag_33:\n        /* \"#utility.yul\":3978:3982   */\n      0x00\n        /* \"#utility.yul\":4016:4018   */\n      0x20\n        /* \"#utility.yul\":4005:4014   */\n      dup3\n        /* \"#utility.yul\":4001:4019   */\n      add\n        /* \"#utility.yul\":3993:4019   */\n      swap1\n      pop\n        /* \"#utility.yul\":4029:4100   */\n      tag_338\n        /* \"#utility.yul\":4097:4098   */\n      0x00\n        /* \"#utility.yul\":4086:4095   */\n      dup4\n        /* \"#utility.yul\":4082:4099   */\n      add\n        /* \"#utility.yul\":4073:4079   */\n      dup5\n        /* \"#utility.yul\":4029:4100   */\n      tag_248\n      jump\t// in\n    tag_338:\n        /* \"#utility.yul\":3885:4107   */\n      swap3\n      swap2\n      pop\n      pop\n      jump\t// out\n        /* \"#utility.yul\":4113:4203   */\n    tag_249:\n        /* \"#utility.yul\":4147:4154   */\n      0x00\n        /* \"#utility.yul\":4190:4195   */\n      dup2\n        /* \"#utility.yul\":4183:4196   */\n      iszero\n        /* \"#utility.yul\":4176:4197   */\n      iszero\n        /* \"#utility.yul\":4165:4197   */\n      swap1\n      pop\n        /* \"#utility.yul\":4113:4203   */\n      swap2\n      swap1\n      pop\n      jump\t// out\n        /* \"#utility.yul\":4209:4318   */\n    tag_250:\n        /* \"#utility.yul\":4290:4311   */\n      tag_341\n        /* \"#utility.yul\":4305:4310   */\n      dup2\n        /* \"#utility.yul\":4290:4311   */\n      tag_249\n      jump\t// in\n    tag_341:\n        /* \"#utility.yul\":4285:4288   */\n      dup3\n        /* \"#utility.yul\":4278:4312   */\n      mstore\n        /* \"#utility.yul\":4209:4318   */\n      pop\n      pop\n      jump\t// out\n        /* \"#utility.yul\":4324:4384   */\n    tag_251:\n        /* \"#utility.yul\":4352:4355   */\n      0x00\n        /* \"#utility.yul\":4373:4378   */\n      dup2\n        /* \"#utility.yul\":4366:4378   */\n      swap1\n      pop\n        /* \"#utility.yul\":4324:4384   */\n      swap2\n      swap1\n      pop\n      jump\t// out\n        /* \"#utility.yul\":4390:4532   */\n    tag_252:\n        /* \"#utility.yul\":4440:4449   */\n      0x00\n        /* \"#utility.yul\":4473:4526   */\n      tag_344\n        /* \"#utility.yul\":4491:4525   */\n      tag_345\n        /* \"#utility.yul\":4500:4524   */\n      tag_346\n        /* \"#utility.yul\":4518:4523   */\n      dup5\n        /* \"#utility.yul\":4500:4524   */\n      tag_239\n      jump\t// in\n    tag_346:\n        /* \"#utility.yul\":4491:4525   */\n      tag_251\n      jump\t// in\n    tag_345:\n        /* \"#utility.yul\":4473:4526   */\n      tag_239\n      jump\t// in\n    tag_344:\n        /* \"#utility.yul\":4460:4526   */\n      swap1\n      pop\n        /* \"#utility.yul\":4390:4532   */\n      swap2\n      swap1\n      pop\n      jump\t// out\n        /* \"#utility.yul\":4538:4664   */\n    tag_253:\n        /* \"#utility.yul\":4588:4597   */\n      0x00\n        /* \"#utility.yul\":4621:4658   */\n      tag_348\n        /* \"#utility.yul\":4652:4657   */\n      dup3\n        /* \"#utility.yul\":4621:4658   */\n      tag_252\n      jump\t// in\n    tag_348:\n        /* \"#utility.yul\":4608:4658   */\n      swap1\n      pop\n        /* \"#utility.yul\":4538:4664   */\n      swap2\n      swap1\n      pop\n      jump\t// out\n        /* \"#utility.yul\":4670:4811   */\n    tag_254:\n        /* \"#utility.yul\":4735:4744   */\n      0x00\n        /* \"#utility.yul\":4768:4805   */\n      tag_350\n        /* \"#utility.yul\":4799:4804   */\n      dup3\n        /* \"#utility.yul\":4768:4805   */\n      tag_253\n      jump\t// in\n    tag_350:\n        /* \"#utility.yul\":4755:4805   */\n      swap1\n      pop\n        /* \"#utility.yul\":4670:4811   */\n      swap2\n      swap1\n      pop\n      jump\t// out\n        /* \"#utility.yul\":4817:4978   */\n    tag_255:\n        /* \"#utility.yul\":4919:4971   */\n      tag_352\n        /* \"#utility.yul\":4965:4970   */\n      dup2\n        /* \"#utility.yul\":4919:4971   */\n      tag_254\n      jump\t// in\n    tag_352:\n        /* \"#utility.yul\":4914:4917   */\n      dup3\n        /* \"#utility.yul\":4907:4972   */\n      mstore\n        /* \"#utility.yul\":4817:4978   */\n      pop\n      pop\n      jump\t// out\n        /* \"#utility.yul\":4984:5666   */\n    tag_41:\n        /* \"#utility.yul\":5198:5202   */\n      0x00\n        /* \"#utility.yul\":5236:5239   */\n      0xa0\n        /* \"#utility.yul\":5225:5234   */\n      dup3\n        /* \"#utility.yul\":5221:5240   */\n      add\n        /* \"#utility.yul\":5213:5240   */\n      swap1\n      pop\n        /* \"#utility.yul\":5250:5321   */\n      tag_354\n        /* \"#utility.yul\":5318:5319   */\n      0x00\n        /* \"#utility.yul\":5307:5316   */\n      dup4\n        /* \"#utility.yul\":5303:5320   */\n      add\n        /* \"#utility.yul\":5294:5300   */\n      dup9\n        /* \"#utility.yul\":5250:5321   */\n      tag_247\n      jump\t// in\n    tag_354:\n        /* \"#utility.yul\":5331:5403   */\n      tag_355\n        /* \"#utility.yul\":5399:5401   */\n      0x20\n        /* \"#utility.yul\":5388:5397   */\n      dup4\n        /* \"#utility.yul\":5384:5402   */\n      add\n        /* \"#utility.yul\":5375:5381   */\n      dup8\n        /* \"#utility.yul\":5331:5403   */\n      tag_248\n      jump\t// in\n    tag_355:\n        /* \"#utility.yul\":5413:5485   */\n      tag_356\n        /* \"#utility.yul\":5481:5483   */\n      0x40\n        /* \"#utility.yul\":5470:5479   */\n      dup4\n        /* \"#utility.yul\":5466:5484   */\n      add\n        /* \"#utility.yul\":5457:5463   */\n      dup7\n        /* \"#utility.yul\":5413:5485   */\n      tag_248\n      jump\t// in\n    tag_356:\n        /* \"#utility.yul\":5495:5561   */\n      tag_357\n        /* \"#utility.yul\":5557:5559   */\n      0x60\n        /* \"#utility.yul\":5546:5555   */\n      dup4\n        /* \"#utility.yul\":5542:5560   */\n      add\n        /* \"#utility.yul\":5533:5539   */\n      dup6\n        /* \"#utility.yul\":5495:5561   */\n      tag_250\n      jump\t// in\n    tag_357:\n        /* \"#utility.yul\":5571:5659   */\n      tag_358\n        /* \"#utility.yul\":5654:5657   */\n      0x80\n        /* \"#utility.yul\":5643:5652   */\n      dup4\n        /* \"#utility.yul\":5639:5658   */\n      add\n        /* \"#utility.yul\":5630:5636   */\n      dup5\n        /* \"#utility.yul\":5571:5659   */\n      tag_255\n      jump\t// in\n    tag_358:\n        /* \"#utility.yul\":4984:5666   */\n      swap7\n      swap6\n      pop\n      pop\n      pop\n      pop\n      pop\n      pop\n      jump\t// out\n        /* \"#utility.yul\":5672:5794   */\n    tag_256:\n        /* \"#utility.yul\":5745:5769   */\n      tag_360\n        /* \"#utility.yul\":5763:5768   */\n      dup2\n        /* \"#utility.yul\":5745:5769   */\n      tag_240\n      jump\t// in\n    tag_360:\n        /* \"#utility.yul\":5738:5743   */\n      dup2\n        /* \"#utility.yul\":5735:5770   */\n      eq\n        /* \"#utility.yul\":5725:5788   */\n      tag_361\n      jumpi\n        /* \"#utility.yul\":5784:5785   */\n      0x00\n        /* \"#utility.yul\":5781:5782   */\n      dup1\n        /* \"#utility.yul\":5774:5786   */\n      revert\n        /* \"#utility.yul\":5725:5788   */\n    tag_361:\n        /* \"#utility.yul\":5672:5794   */\n      pop\n      jump\t// out\n        /* \"#utility.yul\":5800:5939   */\n    tag_257:\n        /* \"#utility.yul\":5846:5851   */\n      0x00\n        /* \"#utility.yul\":5884:5890   */\n      dup2\n        /* \"#utility.yul\":5871:5891   */\n      calldataload\n        /* \"#utility.yul\":5862:5891   */\n      swap1\n      pop\n        /* \"#utility.yul\":5900:5933   */\n      tag_363\n        /* \"#utility.yul\":5927:5932   */\n      dup2\n        /* \"#utility.yul\":5900:5933   */\n      tag_256\n      jump\t// in\n    tag_363:\n        /* \"#utility.yul\":5800:5939   */\n      swap3\n      swap2\n      pop\n      pop\n      jump\t// out\n        /* \"#utility.yul\":5945:6274   */\n    tag_58:\n        /* \"#utility.yul\":6004:6010   */\n      0x00\n        /* \"#utility.yul\":6053:6055   */\n      0x20\n        /* \"#utility.yul\":6041:6050   */\n      dup3\n        /* \"#utility.yul\":6032:6039   */\n      dup5\n        /* \"#utility.yul\":6028:6051   */\n      sub\n        /* \"#utility.yul\":6024:6056   */\n      slt\n        /* \"#utility.yul\":6021:6140   */\n      iszero\n      tag_365\n      jumpi\n        /* \"#utility.yul\":6059:6138   */\n      tag_366\n      tag_233\n      jump\t// in\n    tag_366:\n        /* \"#utility.yul\":6021:6140   */\n    tag_365:\n        /* \"#utility.yul\":6179:6180   */\n      0x00\n        /* \"#utility.yul\":6204:6257   */\n      tag_367\n        /* \"#utility.yul\":6249:6256   */\n      dup5\n        /* \"#utility.yul\":6240:6246   */\n      dup3\n        /* \"#utility.yul\":6229:6238   */\n      dup6\n        /* \"#utility.yul\":6225:6247   */\n      add\n        /* \"#utility.yul\":6204:6257   */\n      tag_257\n      jump\t// in\n    tag_367:\n        /* \"#utility.yul\":6194:6257   */\n      swap2\n      pop\n        /* \"#utility.yul\":6150:6267   */\n      pop\n        /* \"#utility.yul\":5945:6274   */\n      swap3\n      swap2\n      pop\n      pop\n      jump\t// out\n        /* \"#utility.yul\":6280:6449   */\n    tag_258:\n        /* \"#utility.yul\":6364:6375   */\n      0x00\n        /* \"#utility.yul\":6398:6404   */\n      dup3\n        /* \"#utility.yul\":6393:6396   */\n      dup3\n        /* \"#utility.yul\":6386:6405   */\n      mstore\n        /* \"#utility.yul\":6438:6442   */\n      0x20\n        /* \"#utility.yul\":6433:6436   */\n      dup3\n        /* \"#utility.yul\":6429:6443   */\n      add\n        /* \"#utility.yul\":6414:6443   */\n      swap1\n      pop\n        /* \"#utility.yul\":6280:6449   */\n      swap3\n      swap2\n      pop\n      pop\n      jump\t// out\n        /* \"#utility.yul\":6455:6625   */\n    tag_259:\n        /* \"#utility.yul\":6595:6617   */\n      0x436f6e7472616374206e6f7420616c6c6f776564000000000000000000000000\n        /* \"#utility.yul\":6591:6592   */\n      0x00\n        /* \"#utility.yul\":6583:6589   */\n      dup3\n        /* \"#utility.yul\":6579:6593   */\n      add\n        /* \"#utility.yul\":6572:6618   */\n      mstore\n        /* \"#utility.yul\":6455:6625   */\n      pop\n      jump\t// out\n        /* \"#utility.yul\":6631:6997   */\n    tag_260:\n        /* \"#utility.yul\":6773:6776   */\n      0x00\n        /* \"#utility.yul\":6794:6861   */\n      tag_371\n        /* \"#utility.yul\":6858:6860   */\n      0x14\n        /* \"#utility.yul\":6853:6856   */\n      dup4\n        /* \"#utility.yul\":6794:6861   */\n      tag_258\n      jump\t// in\n    tag_371:\n        /* \"#utility.yul\":6787:6861   */\n      swap2\n      pop\n        /* \"#utility.yul\":6870:6963   */\n      tag_372\n        /* \"#utility.yul\":6959:6962   */\n      dup3\n        /* \"#utility.yul\":6870:6963   */\n      tag_259\n      jump\t// in\n    tag_372:\n        /* \"#utility.yul\":6988:6990   */\n      0x20\n        /* \"#utility.yul\":6983:6986   */\n      dup3\n        /* \"#utility.yul\":6979:6991   */\n      add\n        /* \"#utility.yul\":6972:6991   */\n      swap1\n      pop\n        /* \"#utility.yul\":6631:6997   */\n      swap2\n      swap1\n      pop\n      jump\t// out\n        /* \"#utility.yul\":7003:7422   */\n    tag_65:\n        /* \"#utility.yul\":7169:7173   */\n      0x00\n        /* \"#utility.yul\":7207:7209   */\n      0x20\n        /* \"#utility.yul\":7196:7205   */\n      dup3\n        /* \"#utility.yul\":7192:7210   */\n      add\n        /* \"#utility.yul\":7184:7210   */\n      swap1\n      pop\n        /* \"#utility.yul\":7256:7265   */\n      dup2\n        /* \"#utility.yul\":7250:7254   */\n      dup2\n        /* \"#utility.yul\":7246:7266   */\n      sub\n        /* \"#utility.yul\":7242:7243   */\n      0x00\n        /* \"#utility.yul\":7231:7240   */\n      dup4\n        /* \"#utility.yul\":7227:7244   */\n      add\n        /* \"#utility.yul\":7220:7267   */\n      mstore\n        /* \"#utility.yul\":7284:7415   */\n      tag_374\n        /* \"#utility.yul\":7410:7414   */\n      dup2\n        /* \"#utility.yul\":7284:7415   */\n      tag_260\n      jump\t// in\n    tag_374:\n        /* \"#utility.yul\":7276:7415   */\n      swap1\n      pop\n        /* \"#utility.yul\":7003:7422   */\n      swap2\n      swap1\n      pop\n      jump\t// out\n        /* \"#utility.yul\":7428:7604   */\n    tag_261:\n        /* \"#utility.yul\":7568:7596   */\n      0x50726f787920636f6e7472616374206e6f7420616c6c6f776564000000000000\n        /* \"#utility.yul\":7564:7565   */\n      0x00\n        /* \"#utility.yul\":7556:7562   */\n      dup3\n        /* \"#utility.yul\":7552:7566   */\n      add\n        /* \"#utility.yul\":7545:7597   */\n      mstore\n        /* \"#utility.yul\":7428:7604   */\n      pop\n      jump\t// out\n        /* \"#utility.yul\":7610:7976   */\n    tag_262:\n        /* \"#utility.yul\":7752:7755   */\n      0x00\n        /* \"#utility.yul\":7773:7840   */\n      tag_377\n        /* \"#utility.yul\":7837:7839   */\n      0x1a\n        /* \"#utility.yul\":7832:7835   */\n      dup4\n        /* \"#utility.yul\":7773:7840   */\n      tag_258\n      jump\t// in\n    tag_377:\n        /* \"#utility.yul\":7766:7840   */\n      swap2\n      pop\n        /* \"#utility.yul\":7849:7942   */\n      tag_378\n        /* \"#utility.yul\":7938:7941   */\n      dup3\n        /* \"#utility.yul\":7849:7942   */\n      tag_261\n      jump\t// in\n    tag_378:\n        /* \"#utility.yul\":7967:7969   */\n      0x20\n        /* \"#utility.yul\":7962:7965   */\n      dup3\n        /* \"#utility.yul\":7958:7970   */\n      add\n        /* \"#utility.yul\":7951:7970   */\n      swap1\n      pop\n        /* \"#utility.yul\":7610:7976   */\n      swap2\n      swap1\n      pop\n      jump\t// out\n        /* \"#utility.yul\":7982:8401   */\n    tag_68:\n        /* \"#utility.yul\":8148:8152   */\n      0x00\n        /* \"#utility.yul\":8186:8188   */\n      0x20\n        /* \"#utility.yul\":8175:8184   */\n      dup3\n        /* \"#utility.yul\":8171:8189   */\n      add\n        /* \"#utility.yul\":8163:8189   */\n      swap1\n      pop\n        /* \"#utility.yul\":8235:8244   */\n      dup2\n        /* \"#utility.yul\":8229:8233   */\n      dup2\n        /* \"#utility.yul\":8225:8245   */\n      sub\n        /* \"#utility.yul\":8221:8222   */\n      0x00\n        /* \"#utility.yul\":8210:8219   */\n      dup4\n        /* \"#utility.yul\":8206:8223   */\n      add\n        /* \"#utility.yul\":8199:8246   */\n      mstore\n        /* \"#utility.yul\":8263:8394   */\n      tag_380\n        /* \"#utility.yul\":8389:8393   */\n      dup2\n        /* \"#utility.yul\":8263:8394   */\n      tag_262\n      jump\t// in\n    tag_380:\n        /* \"#utility.yul\":8255:8394   */\n      swap1\n      pop\n        /* \"#utility.yul\":7982:8401   */\n      swap2\n      swap1\n      pop\n      jump\t// out\n        /* \"#utility.yul\":8407:8566   */\n    tag_263:\n        /* \"#utility.yul\":8547:8558   */\n      0x4e6f20746f6b656e730000000000000000000000000000000000000000000000\n        /* \"#utility.yul\":8543:8544   */\n      0x00\n        /* \"#utility.yul\":8535:8541   */\n      dup3\n        /* \"#utility.yul\":8531:8545   */\n      add\n        /* \"#utility.yul\":8524:8559   */\n      mstore\n        /* \"#utility.yul\":8407:8566   */\n      pop\n      jump\t// out\n        /* \"#utility.yul\":8572:8937   */\n    tag_264:\n        /* \"#utility.yul\":8714:8717   */\n      0x00\n        /* \"#utility.yul\":8735:8801   */\n      tag_383\n        /* \"#utility.yul\":8799:8800   */\n      0x09\n        /* \"#utility.yul\":8794:8797   */\n      dup4\n        /* \"#utility.yul\":8735:8801   */\n      tag_258\n      jump\t// in\n    tag_383:\n        /* \"#utility.yul\":8728:8801   */\n      swap2\n      pop\n        /* \"#utility.yul\":8810:8903   */\n      tag_384\n        /* \"#utility.yul\":8899:8902   */\n      dup3\n        /* \"#utility.yul\":8810:8903   */\n      tag_263\n      jump\t// in\n    tag_384:\n        /* \"#utility.yul\":8928:8930   */\n      0x20\n        /* \"#utility.yul\":8923:8926   */\n      dup3\n        /* \"#utility.yul\":8919:8931   */\n      add\n        /* \"#utility.yul\":8912:8931   */\n      swap1\n      pop\n        /* \"#utility.yul\":8572:8937   */\n      swap2\n      swap1\n      pop\n      jump\t// out\n        /* \"#utility.yul\":8943:9362   */\n    tag_72:\n        /* \"#utility.yul\":9109:9113   */\n      0x00\n        /* \"#utility.yul\":9147:9149   */\n      0x20\n        /* \"#utility.yul\":9136:9145   */\n      dup3\n        /* \"#utility.yul\":9132:9150   */\n      add\n        /* \"#utility.yul\":9124:9150   */\n      swap1\n      pop\n        /* \"#utility.yul\":9196:9205   */\n      dup2\n        /* \"#utility.yul\":9190:9194   */\n      dup2\n        /* \"#utility.yul\":9186:9206   */\n      sub\n        /* \"#utility.yul\":9182:9183   */\n      0x00\n        /* \"#utility.yul\":9171:9180   */\n      dup4\n        /* \"#utility.yul\":9167:9184   */\n      add\n        /* \"#utility.yul\":9160:9207   */\n      mstore\n        /* \"#utility.yul\":9224:9355   */\n      tag_386\n        /* \"#utility.yul\":9350:9354   */\n      dup2\n        /* \"#utility.yul\":9224:9355   */\n      tag_264\n      jump\t// in\n    tag_386:\n        /* \"#utility.yul\":9216:9355   */\n      swap1\n      pop\n        /* \"#utility.yul\":8943:9362   */\n      swap2\n      swap1\n      pop\n      jump\t// out\n        /* \"#utility.yul\":9368:9548   */\n    tag_78:\n        /* \"#utility.yul\":9416:9493   */\n      0x4e487b7100000000000000000000000000000000000000000000000000000000\n        /* \"#utility.yul\":9413:9414   */\n      0x00\n        /* \"#utility.yul\":9406:9494   */\n      mstore\n        /* \"#utility.yul\":9513:9517   */\n      0x32\n        /* \"#utility.yul\":9510:9511   */\n      0x04\n        /* \"#utility.yul\":9503:9518   */\n      mstore\n        /* \"#utility.yul\":9537:9541   */\n      0x24\n        /* \"#utility.yul\":9534:9535   */\n      0x00\n        /* \"#utility.yul\":9527:9542   */\n      revert\n        /* \"#utility.yul\":9554:9721   */\n    tag_265:\n        /* \"#utility.yul\":9694:9713   */\n      0x4e6f74206120746f6b656e206f776e6572000000000000000000000000000000\n        /* \"#utility.yul\":9690:9691   */\n      0x00\n        /* \"#utility.yul\":9682:9688   */\n      dup3\n        /* \"#utility.yul\":9678:9692   */\n      add\n        /* \"#utility.yul\":9671:9714   */\n      mstore\n        /* \"#utility.yul\":9554:9721   */\n      pop\n      jump\t// out\n        /* \"#utility.yul\":9727:10093   */\n    tag_266:\n        /* \"#utility.yul\":9869:9872   */\n      0x00\n        /* \"#utility.yul\":9890:9957   */\n      tag_390\n        /* \"#utility.yul\":9954:9956   */\n      0x11\n        /* \"#utility.yul\":9949:9952   */\n      dup4\n        /* \"#utility.yul\":9890:9957   */\n      tag_258\n      jump\t// in\n    tag_390:\n        /* \"#utility.yul\":9883:9957   */\n      swap2\n      pop\n        /* \"#utility.yul\":9966:10059   */\n      tag_391\n        /* \"#utility.yul\":10055:10058   */\n      dup3\n        /* \"#utility.yul\":9966:10059   */\n      tag_265\n      jump\t// in\n    tag_391:\n        /* \"#utility.yul\":10084:10086   */\n      0x20\n        /* \"#utility.yul\":10079:10082   */\n      dup3\n        /* \"#utility.yul\":10075:10087   */\n      add\n        /* \"#utility.yul\":10068:10087   */\n      swap1\n      pop\n        /* \"#utility.yul\":9727:10093   */\n      swap2\n      swap1\n      pop\n      jump\t// out\n        /* \"#utility.yul\":10099:10518   */\n    tag_81:\n        /* \"#utility.yul\":10265:10269   */\n      0x00\n        /* \"#utility.yul\":10303:10305   */\n      0x20\n        /* \"#utility.yul\":10292:10301   */\n      dup3\n        /* \"#utility.yul\":10288:10306   */\n      add\n        /* \"#utility.yul\":10280:10306   */\n      swap1\n      pop\n        /* \"#utility.yul\":10352:10361   */\n      dup2\n        /* \"#utility.yul\":10346:10350   */\n      dup2\n        /* \"#utility.yul\":10342:10362   */\n      sub\n        /* \"#utility.yul\":10338:10339   */\n      0x00\n        /* \"#utility.yul\":10327:10336   */\n      dup4\n        /* \"#utility.yul\":10323:10340   */\n      add\n        /* \"#utility.yul\":10316:10363   */\n      mstore\n        /* \"#utility.yul\":10380:10511   */\n      tag_393\n        /* \"#utility.yul\":10506:10510   */\n      dup2\n        /* \"#utility.yul\":10380:10511   */\n      tag_266\n      jump\t// in\n    tag_393:\n        /* \"#utility.yul\":10372:10511   */\n      swap1\n      pop\n        /* \"#utility.yul\":10099:10518   */\n      swap2\n      swap1\n      pop\n      jump\t// out\n        /* \"#utility.yul\":10524:10704   */\n    tag_267:\n        /* \"#utility.yul\":10572:10649   */\n      0x4e487b7100000000000000000000000000000000000000000000000000000000\n        /* \"#utility.yul\":10569:10570   */\n      0x00\n        /* \"#utility.yul\":10562:10650   */\n      mstore\n        /* \"#utility.yul\":10669:10673   */\n      0x11\n        /* \"#utility.yul\":10666:10667   */\n      0x04\n        /* \"#utility.yul\":10659:10674   */\n      mstore\n        /* \"#utility.yul\":10693:10697   */\n      0x24\n        /* \"#utility.yul\":10690:10691   */\n      0x00\n        /* \"#utility.yul\":10683:10698   */\n      revert\n        /* \"#utility.yul\":10710:10901   */\n    tag_83:\n        /* \"#utility.yul\":10750:10753   */\n      0x00\n        /* \"#utility.yul\":10769:10789   */\n      tag_396\n        /* \"#utility.yul\":10787:10788   */\n      dup3\n        /* \"#utility.yul\":10769:10789   */\n      tag_244\n      jump\t// in\n    tag_396:\n        /* \"#utility.yul\":10764:10789   */\n      swap2\n      pop\n        /* \"#utility.yul\":10803:10823   */\n      tag_397\n        /* \"#utility.yul\":10821:10822   */\n      dup4\n        /* \"#utility.yul\":10803:10823   */\n      tag_244\n      jump\t// in\n    tag_397:\n        /* \"#utility.yul\":10798:10823   */\n      swap3\n      pop\n        /* \"#utility.yul\":10846:10847   */\n      dup3\n        /* \"#utility.yul\":10843:10844   */\n      dup3\n        /* \"#utility.yul\":10839:10848   */\n      add\n        /* \"#utility.yul\":10832:10848   */\n      swap1\n      pop\n        /* \"#utility.yul\":10867:10870   */\n      dup1\n        /* \"#utility.yul\":10864:10865   */\n      dup3\n        /* \"#utility.yul\":10861:10871   */\n      gt\n        /* \"#utility.yul\":10858:10894   */\n      iszero\n      tag_398\n      jumpi\n        /* \"#utility.yul\":10874:10892   */\n      tag_399\n      tag_267\n      jump\t// in\n    tag_399:\n        /* \"#utility.yul\":10858:10894   */\n    tag_398:\n        /* \"#utility.yul\":10710:10901   */\n      swap3\n      swap2\n      pop\n      pop\n      jump\t// out\n        /* \"#utility.yul\":10907:11078   */\n    tag_268:\n        /* \"#utility.yul\":11047:11070   */\n      0x4e6f742061626c6520746f20636c61696d207965740000000000000000000000\n        /* \"#utility.yul\":11043:11044   */\n      0x00\n        /* \"#utility.yul\":11035:11041   */\n      dup3\n        /* \"#utility.yul\":11031:11045   */\n      add\n        /* \"#utility.yul\":11024:11071   */\n      mstore\n        /* \"#utility.yul\":10907:11078   */\n      pop\n      jump\t// out\n        /* \"#utility.yul\":11084:11450   */\n    tag_269:\n        /* \"#utility.yul\":11226:11229   */\n      0x00\n        /* \"#utility.yul\":11247:11314   */\n      tag_402\n        /* \"#utility.yul\":11311:11313   */\n      0x15\n        /* \"#utility.yul\":11306:11309   */\n      dup4\n        /* \"#utility.yul\":11247:11314   */\n      tag_258\n      jump\t// in\n    tag_402:\n        /* \"#utility.yul\":11240:11314   */\n      swap2\n      pop\n        /* \"#utility.yul\":11323:11416   */\n      tag_403\n        /* \"#utility.yul\":11412:11415   */\n      dup3\n        /* \"#utility.yul\":11323:11416   */\n      tag_268\n      jump\t// in\n    tag_403:\n        /* \"#utility.yul\":11441:11443   */\n      0x20\n        /* \"#utility.yul\":11436:11439   */\n      dup3\n        /* \"#utility.yul\":11432:11444   */\n      add\n        /* \"#utility.yul\":11425:11444   */\n      swap1\n      pop\n        /* \"#utility.yul\":11084:11450   */\n      swap2\n      swap1\n      pop\n      jump\t// out\n        /* \"#utility.yul\":11456:11875   */\n    tag_86:\n        /* \"#utility.yul\":11622:11626   */\n      0x00\n        /* \"#utility.yul\":11660:11662   */\n      0x20\n        /* \"#utility.yul\":11649:11658   */\n      dup3\n        /* \"#utility.yul\":11645:11663   */\n      add\n        /* \"#utility.yul\":11637:11663   */\n      swap1\n      pop\n        /* \"#utility.yul\":11709:11718   */\n      dup2\n        /* \"#utility.yul\":11703:11707   */\n      dup2\n        /* \"#utility.yul\":11699:11719   */\n      sub\n        /* \"#utility.yul\":11695:11696   */\n      0x00\n        /* \"#utility.yul\":11684:11693   */\n      dup4\n        /* \"#utility.yul\":11680:11697   */\n      add\n        /* \"#utility.yul\":11673:11720   */\n      mstore\n        /* \"#utility.yul\":11737:11868   */\n      tag_405\n        /* \"#utility.yul\":11863:11867   */\n      dup2\n        /* \"#utility.yul\":11737:11868   */\n      tag_269\n      jump\t// in\n    tag_405:\n        /* \"#utility.yul\":11729:11868   */\n      swap1\n      pop\n        /* \"#utility.yul\":11456:11875   */\n      swap2\n      swap1\n      pop\n      jump\t// out\n        /* \"#utility.yul\":11881:12047   */\n    tag_270:\n        /* \"#utility.yul\":12021:12039   */\n      0x416c726561647920756e6c6f636b656400000000000000000000000000000000\n        /* \"#utility.yul\":12017:12018   */\n      0x00\n        /* \"#utility.yul\":12009:12015   */\n      dup3\n        /* \"#utility.yul\":12005:12019   */\n      add\n        /* \"#utility.yul\":11998:12040   */\n      mstore\n        /* \"#utility.yul\":11881:12047   */\n      pop\n      jump\t// out\n        /* \"#utility.yul\":12053:12419   */\n    tag_271:\n        /* \"#utility.yul\":12195:12198   */\n      0x00\n        /* \"#utility.yul\":12216:12283   */\n      tag_408\n        /* \"#utility.yul\":12280:12282   */\n      0x10\n        /* \"#utility.yul\":12275:12278   */\n      dup4\n        /* \"#utility.yul\":12216:12283   */\n      tag_258\n      jump\t// in\n    tag_408:\n        /* \"#utility.yul\":12209:12283   */\n      swap2\n      pop\n        /* \"#utility.yul\":12292:12385   */\n      tag_409\n        /* \"#utility.yul\":12381:12384   */\n      dup3\n        /* \"#utility.yul\":12292:12385   */\n      tag_270\n      jump\t// in\n    tag_409:\n        /* \"#utility.yul\":12410:12412   */\n      0x20\n        /* \"#utility.yul\":12405:12408   */\n      dup3\n        /* \"#utility.yul\":12401:12413   */\n      add\n        /* \"#utility.yul\":12394:12413   */\n      swap1\n      pop\n        /* \"#utility.yul\":12053:12419   */\n      swap2\n      swap1\n      pop\n      jump\t// out\n        /* \"#utility.yul\":12425:12844   */\n    tag_89:\n        /* \"#utility.yul\":12591:12595   */\n      0x00\n        /* \"#utility.yul\":12629:12631   */\n      0x20\n        /* \"#utility.yul\":12618:12627   */\n      dup3\n        /* \"#utility.yul\":12614:12632   */\n      add\n        /* \"#utility.yul\":12606:12632   */\n      swap1\n      pop\n        /* \"#utility.yul\":12678:12687   */\n      dup2\n        /* \"#utility.yul\":12672:12676   */\n      dup2\n        /* \"#utility.yul\":12668:12688   */\n      sub\n        /* \"#utility.yul\":12664:12665   */\n      0x00\n        /* \"#utility.yul\":12653:12662   */\n      dup4\n        /* \"#utility.yul\":12649:12666   */\n      add\n        /* \"#utility.yul\":12642:12689   */\n      mstore\n        /* \"#utility.yul\":12706:12837   */\n      tag_411\n        /* \"#utility.yul\":12832:12836   */\n      dup2\n        /* \"#utility.yul\":12706:12837   */\n      tag_271\n      jump\t// in\n    tag_411:\n        /* \"#utility.yul\":12698:12837   */\n      swap1\n      pop\n        /* \"#utility.yul\":12425:12844   */\n      swap2\n      swap1\n      pop\n      jump\t// out\n        /* \"#utility.yul\":12850:13044   */\n    tag_95:\n        /* \"#utility.yul\":12890:12894   */\n      0x00\n        /* \"#utility.yul\":12910:12930   */\n      tag_413\n        /* \"#utility.yul\":12928:12929   */\n      dup3\n        /* \"#utility.yul\":12910:12930   */\n      tag_244\n      jump\t// in\n    tag_413:\n        /* \"#utility.yul\":12905:12930   */\n      swap2\n      pop\n        /* \"#utility.yul\":12944:12964   */\n      tag_414\n        /* \"#utility.yul\":12962:12963   */\n      dup4\n        /* \"#utility.yul\":12944:12964   */\n      tag_244\n      jump\t// in\n    tag_414:\n        /* \"#utility.yul\":12939:12964   */\n      swap3\n      pop\n        /* \"#utility.yul\":12988:12989   */\n      dup3\n        /* \"#utility.yul\":12985:12986   */\n      dup3\n        /* \"#utility.yul\":12981:12990   */\n      sub\n        /* \"#utility.yul\":12973:12990   */\n      swap1\n      pop\n        /* \"#utility.yul\":13012:13013   */\n      dup2\n        /* \"#utility.yul\":13006:13010   */\n      dup2\n        /* \"#utility.yul\":13003:13014   */\n      gt\n        /* \"#utility.yul\":13000:13037   */\n      iszero\n      tag_415\n      jumpi\n        /* \"#utility.yul\":13017:13035   */\n      tag_416\n      tag_267\n      jump\t// in\n    tag_416:\n        /* \"#utility.yul\":13000:13037   */\n    tag_415:\n        /* \"#utility.yul\":12850:13044   */\n      swap3\n      swap2\n      pop\n      pop\n      jump\t// out\n        /* \"#utility.yul\":13050:13382   */\n    tag_97:\n        /* \"#utility.yul\":13171:13175   */\n      0x00\n        /* \"#utility.yul\":13209:13211   */\n      0x40\n        /* \"#utility.yul\":13198:13207   */\n      dup3\n        /* \"#utility.yul\":13194:13212   */\n      add\n        /* \"#utility.yul\":13186:13212   */\n      swap1\n      pop\n        /* \"#utility.yul\":13222:13293   */\n      tag_418\n        /* \"#utility.yul\":13290:13291   */\n      0x00\n        /* \"#utility.yul\":13279:13288   */\n      dup4\n        /* \"#utility.yul\":13275:13292   */\n      add\n        /* \"#utility.yul\":13266:13272   */\n      dup6\n        /* \"#utility.yul\":13222:13293   */\n      tag_247\n      jump\t// in\n    tag_418:\n        /* \"#utility.yul\":13303:13375   */\n      tag_419\n        /* \"#utility.yul\":13371:13373   */\n      0x20\n        /* \"#utility.yul\":13360:13369   */\n      dup4\n        /* \"#utility.yul\":13356:13374   */\n      add\n        /* \"#utility.yul\":13347:13353   */\n      dup5\n        /* \"#utility.yul\":13303:13375   */\n      tag_248\n      jump\t// in\n    tag_419:\n        /* \"#utility.yul\":13050:13382   */\n      swap4\n      swap3\n      pop\n      pop\n      pop\n      jump\t// out\n        /* \"#utility.yul\":13388:13621   */\n    tag_105:\n        /* \"#utility.yul\":13427:13430   */\n      0x00\n        /* \"#utility.yul\":13450:13474   */\n      tag_421\n        /* \"#utility.yul\":13468:13473   */\n      dup3\n        /* \"#utility.yul\":13450:13474   */\n      tag_244\n      jump\t// in\n    tag_421:\n        /* \"#utility.yul\":13441:13474   */\n      swap2\n      pop\n        /* \"#utility.yul\":13496:13562   */\n      0xffffffffffffffffffffffffffffffffffffffffffffffffffffffffffffffff\n        /* \"#utility.yul\":13489:13494   */\n      dup3\n        /* \"#utility.yul\":13486:13563   */\n      sub\n        /* \"#utility.yul\":13483:13586   */\n      tag_422\n      jumpi\n        /* \"#utility.yul\":13566:13584   */\n      tag_423\n      tag_267\n      jump\t// in\n    tag_423:\n        /* \"#utility.yul\":13483:13586   */\n    tag_422:\n        /* \"#utility.yul\":13613:13614   */\n      0x01\n        /* \"#utility.yul\":13606:13611   */\n      dup3\n        /* \"#utility.yul\":13602:13615   */\n      add\n        /* \"#utility.yul\":13595:13615   */\n      swap1\n      pop\n        /* \"#utility.yul\":13388:13621   */\n      swap2\n      swap1\n      pop\n      jump\t// out\n        /* \"#utility.yul\":13627:13811   */\n    tag_272:\n        /* \"#utility.yul\":13726:13737   */\n      0x00\n        /* \"#utility.yul\":13760:13766   */\n      dup3\n        /* \"#utility.yul\":13755:13758   */\n      dup3\n        /* \"#utility.yul\":13748:13767   */\n      mstore\n        /* \"#utility.yul\":13800:13804   */\n      0x20\n        /* \"#utility.yul\":13795:13798   */\n      dup3\n        /* \"#utility.yul\":13791:13805   */\n      add\n        /* \"#utility.yul\":13776:13805   */\n      swap1\n      pop\n        /* \"#utility.yul\":13627:13811   */\n      swap3\n      swap2\n      pop\n      pop\n      jump\t// out\n        /* \"#utility.yul\":13817:13934   */\n    tag_273:\n        /* \"#utility.yul\":13926:13927   */\n      0x00\n        /* \"#utility.yul\":13923:13924   */\n      dup1\n        /* \"#utility.yul\":13916:13928   */\n      revert\n        /* \"#utility.yul\":13940:14038   */\n    tag_274:\n        /* \"#utility.yul\":14024:14030   */\n      dup3\n        /* \"#utility.yul\":14019:14022   */\n      dup2\n        /* \"#utility.yul\":14014:14017   */\n      dup4\n        /* \"#utility.yul\":14001:14031   */\n      calldatacopy\n        /* \"#utility.yul\":13940:14038   */\n      pop\n      pop\n      pop\n      jump\t// out\n        /* \"#utility.yul\":14074:14611   */\n    tag_275:\n        /* \"#utility.yul\":14202:14205   */\n      0x00\n        /* \"#utility.yul\":14223:14309   */\n      tag_428\n        /* \"#utility.yul\":14302:14308   */\n      dup4\n        /* \"#utility.yul\":14297:14300   */\n      dup6\n        /* \"#utility.yul\":14223:14309   */\n      tag_272\n      jump\t// in\n    tag_428:\n        /* \"#utility.yul\":14216:14309   */\n      swap4\n      pop\n        /* \"#utility.yul\":14333:14399   */\n      0x07ffffffffffffffffffffffffffffffffffffffffffffffffffffffffffffff\n        /* \"#utility.yul\":14325:14331   */\n      dup4\n        /* \"#utility.yul\":14322:14400   */\n      gt\n        /* \"#utility.yul\":14319:14484   */\n      iszero\n      tag_429\n      jumpi\n        /* \"#utility.yul\":14403:14482   */\n      tag_430\n      tag_273\n      jump\t// in\n    tag_430:\n        /* \"#utility.yul\":14319:14484   */\n    tag_429:\n        /* \"#utility.yul\":14515:14519   */\n      0x20\n        /* \"#utility.yul\":14507:14513   */\n      dup4\n        /* \"#utility.yul\":14503:14520   */\n      mul\n        /* \"#utility.yul\":14493:14520   */\n      swap3\n      pop\n        /* \"#utility.yul\":14530:14573   */\n      tag_431\n        /* \"#utility.yul\":14566:14572   */\n      dup4\n        /* \"#utility.yul\":14561:14564   */\n      dup6\n        /* \"#utility.yul\":14554:14559   */\n      dup5\n        /* \"#utility.yul\":14530:14573   */\n      tag_274\n      jump\t// in\n    tag_431:\n        /* \"#utility.yul\":14598:14604   */\n      dup3\n        /* \"#utility.yul\":14593:14596   */\n      dup5\n        /* \"#utility.yul\":14589:14605   */\n      add\n        /* \"#utility.yul\":14582:14605   */\n      swap1\n      pop\n        /* \"#utility.yul\":14074:14611   */\n      swap4\n      swap3\n      pop\n      pop\n      pop\n      jump\t// out\n        /* \"#utility.yul\":14617:15120   */\n    tag_107:\n        /* \"#utility.yul\":14798:14802   */\n      0x00\n        /* \"#utility.yul\":14836:14838   */\n      0x40\n        /* \"#utility.yul\":14825:14834   */\n      dup3\n        /* \"#utility.yul\":14821:14839   */\n      add\n        /* \"#utility.yul\":14813:14839   */\n      swap1\n      pop\n        /* \"#utility.yul\":14885:14894   */\n      dup2\n        /* \"#utility.yul\":14879:14883   */\n      dup2\n        /* \"#utility.yul\":14875:14895   */\n      sub\n        /* \"#utility.yul\":14871:14872   */\n      0x00\n        /* \"#utility.yul\":14860:14869   */\n      dup4\n        /* \"#utility.yul\":14856:14873   */\n      add\n        /* \"#utility.yul\":14849:14896   */\n      mstore\n        /* \"#utility.yul\":14913:15031   */\n      tag_433\n        /* \"#utility.yul\":15026:15030   */\n      dup2\n        /* \"#utility.yul\":15017:15023   */\n      dup6\n        /* \"#utility.yul\":15009:15015   */\n      dup8\n        /* \"#utility.yul\":14913:15031   */\n      tag_275\n      jump\t// in\n    tag_433:\n        /* \"#utility.yul\":14905:15031   */\n      swap1\n      pop\n        /* \"#utility.yul\":15041:15113   */\n      tag_434\n        /* \"#utility.yul\":15109:15111   */\n      0x20\n        /* \"#utility.yul\":15098:15107   */\n      dup4\n        /* \"#utility.yul\":15094:15112   */\n      add\n        /* \"#utility.yul\":15085:15091   */\n      dup5\n        /* \"#utility.yul\":15041:15113   */\n      tag_248\n      jump\t// in\n    tag_434:\n        /* \"#utility.yul\":14617:15120   */\n      swap5\n      swap4\n      pop\n      pop\n      pop\n      pop\n      jump\t// out\n        /* \"#utility.yul\":15126:15307   */\n    tag_276:\n        /* \"#utility.yul\":15266:15299   */\n      0x5265656e7472616e637947756172643a207265656e7472616e742063616c6c00\n        /* \"#utility.yul\":15262:15263   */\n      0x00\n        /* \"#utility.yul\":15254:15260   */\n      dup3\n        /* \"#utility.yul\":15250:15264   */\n      add\n        /* \"#utility.yul\":15243:15300   */\n      mstore\n        /* \"#utility.yul\":15126:15307   */\n      pop\n      jump\t// out\n        /* \"#utility.yul\":15313:15679   */\n    tag_277:\n        /* \"#utility.yul\":15455:15458   */\n      0x00\n        /* \"#utility.yul\":15476:15543   */\n      tag_437\n        /* \"#utility.yul\":15540:15542   */\n      0x1f\n        /* \"#utility.yul\":15535:15538   */\n      dup4\n        /* \"#utility.yul\":15476:15543   */\n      tag_258\n      jump\t// in\n    tag_437:\n        /* \"#utility.yul\":15469:15543   */\n      swap2\n      pop\n        /* \"#utility.yul\":15552:15645   */\n      tag_438\n        /* \"#utility.yul\":15641:15644   */\n      dup3\n        /* \"#utility.yul\":15552:15645   */\n      tag_276\n      jump\t// in\n    tag_438:\n        /* \"#utility.yul\":15670:15672   */\n      0x20\n        /* \"#utility.yul\":15665:15668   */\n      dup3\n        /* \"#utility.yul\":15661:15673   */\n      add\n        /* \"#utility.yul\":15654:15673   */\n      swap1\n      pop\n        /* \"#utility.yul\":15313:15679   */\n      swap2\n      swap1\n      pop\n      jump\t// out\n        /* \"#utility.yul\":15685:16104   */\n    tag_117:\n        /* \"#utility.yul\":15851:15855   */\n      0x00\n        /* \"#utility.yul\":15889:15891   */\n      0x20\n        /* \"#utility.yul\":15878:15887   */\n      dup3\n        /* \"#utility.yul\":15874:15892   */\n      add\n        /* \"#utility.yul\":15866:15892   */\n      swap1\n      pop\n        /* \"#utility.yul\":15938:15947   */\n      dup2\n        /* \"#utility.yul\":15932:15936   */\n      dup2\n        /* \"#utility.yul\":15928:15948   */\n      sub\n        /* \"#utility.yul\":15924:15925   */\n      0x00\n        /* \"#utility.yul\":15913:15922   */\n      dup4\n        /* \"#utility.yul\":15909:15926   */\n      add\n        /* \"#utility.yul\":15902:15949   */\n      mstore\n        /* \"#utility.yul\":15966:16097   */\n      tag_440\n        /* \"#utility.yul\":16092:16096   */\n      dup2\n        /* \"#utility.yul\":15966:16097   */\n      tag_277\n      jump\t// in\n    tag_440:\n        /* \"#utility.yul\":15958:16097   */\n      swap1\n      pop\n        /* \"#utility.yul\":15685:16104   */\n      swap2\n      swap1\n      pop\n      jump\t// out\n        /* \"#utility.yul\":16110:16253   */\n    tag_278:\n        /* \"#utility.yul\":16167:16172   */\n      0x00\n        /* \"#utility.yul\":16198:16204   */\n      dup2\n        /* \"#utility.yul\":16192:16205   */\n      mload\n        /* \"#utility.yul\":16183:16205   */\n      swap1\n      pop\n        /* \"#utility.yul\":16214:16247   */\n      tag_442\n        /* \"#utility.yul\":16241:16246   */\n      dup2\n        /* \"#utility.yul\":16214:16247   */\n      tag_256\n      jump\t// in\n    tag_442:\n        /* \"#utility.yul\":16110:16253   */\n      swap3\n      swap2\n      pop\n      pop\n      jump\t// out\n        /* \"#utility.yul\":16259:16610   */\n    tag_130:\n        /* \"#utility.yul\":16329:16335   */\n      0x00\n        /* \"#utility.yul\":16378:16380   */\n      0x20\n        /* \"#utility.yul\":16366:16375   */\n      dup3\n        /* \"#utility.yul\":16357:16364   */\n      dup5\n        /* \"#utility.yul\":16353:16376   */\n      sub\n        /* \"#utility.yul\":16349:16381   */\n      slt\n        /* \"#utility.yul\":16346:16465   */\n      iszero\n      tag_444\n      jumpi\n        /* \"#utility.yul\":16384:16463   */\n      tag_445\n      tag_233\n      jump\t// in\n    tag_445:\n        /* \"#utility.yul\":16346:16465   */\n    tag_444:\n        /* \"#utility.yul\":16504:16505   */\n      0x00\n        /* \"#utility.yul\":16529:16593   */\n      tag_446\n        /* \"#utility.yul\":16585:16592   */\n      dup5\n        /* \"#utility.yul\":16576:16582   */\n      dup3\n        /* \"#utility.yul\":16565:16574   */\n      dup6\n        /* \"#utility.yul\":16561:16583   */\n      add\n        /* \"#utility.yul\":16529:16593   */\n      tag_278\n      jump\t// in\n    tag_446:\n        /* \"#utility.yul\":16519:16593   */\n      swap2\n      pop\n        /* \"#utility.yul\":16475:16603   */\n      pop\n        /* \"#utility.yul\":16259:16610   */\n      swap3\n      swap2\n      pop\n      pop\n      jump\t// out\n        /* \"#utility.yul\":16616:16791   */\n    tag_279:\n        /* \"#utility.yul\":16756:16783   */\n      0x596f7520646f6e277420686f6c64207468697320746f6b656e00000000000000\n        /* \"#utility.yul\":16752:16753   */\n      0x00\n        /* \"#utility.yul\":16744:16750   */\n      dup3\n        /* \"#utility.yul\":16740:16754   */\n      add\n        /* \"#utility.yul\":16733:16784   */\n      mstore\n        /* \"#utility.yul\":16616:16791   */\n      pop\n      jump\t// out\n        /* \"#utility.yul\":16797:17163   */\n    tag_280:\n        /* \"#utility.yul\":16939:16942   */\n      0x00\n        /* \"#utility.yul\":16960:17027   */\n      tag_449\n        /* \"#utility.yul\":17024:17026   */\n      0x19\n        /* \"#utility.yul\":17019:17022   */\n      dup4\n        /* \"#utility.yul\":16960:17027   */\n      tag_258\n      jump\t// in\n    tag_449:\n        /* \"#utility.yul\":16953:17027   */\n      swap2\n      pop\n        /* \"#utility.yul\":17036:17129   */\n      tag_450\n        /* \"#utility.yul\":17125:17128   */\n      dup3\n        /* \"#utility.yul\":17036:17129   */\n      tag_279\n      jump\t// in\n    tag_450:\n        /* \"#utility.yul\":17154:17156   */\n      0x20\n        /* \"#utility.yul\":17149:17152   */\n      dup3\n        /* \"#utility.yul\":17145:17157   */\n      add\n        /* \"#utility.yul\":17138:17157   */\n      swap1\n      pop\n        /* \"#utility.yul\":16797:17163   */\n      swap2\n      swap1\n      pop\n      jump\t// out\n        /* \"#utility.yul\":17169:17588   */\n    tag_133:\n        /* \"#utility.yul\":17335:17339   */\n      0x00\n        /* \"#utility.yul\":17373:17375   */\n      0x20\n        /* \"#utility.yul\":17362:17371   */\n      dup3\n        /* \"#utility.yul\":17358:17376   */\n      add\n        /* \"#utility.yul\":17350:17376   */\n      swap1\n      pop\n        /* \"#utility.yul\":17422:17431   */\n      dup2\n        /* \"#utility.yul\":17416:17420   */\n      dup2\n        /* \"#utility.yul\":17412:17432   */\n      sub\n        /* \"#utility.yul\":17408:17409   */\n      0x00\n        /* \"#utility.yul\":17397:17406   */\n      dup4\n        /* \"#utility.yul\":17393:17410   */\n      add\n        /* \"#utility.yul\":17386:17433   */\n      mstore\n        /* \"#utility.yul\":17450:17581   */\n      tag_452\n        /* \"#utility.yul\":17576:17580   */\n      dup2\n        /* \"#utility.yul\":17450:17581   */\n      tag_280\n      jump\t// in\n    tag_452:\n        /* \"#utility.yul\":17442:17581   */\n      swap1\n      pop\n        /* \"#utility.yul\":17169:17588   */\n      swap2\n      swap1\n      pop\n      jump\t// out\n        /* \"#utility.yul\":17594:18036   */\n    tag_137:\n        /* \"#utility.yul\":17743:17747   */\n      0x00\n        /* \"#utility.yul\":17781:17783   */\n      0x60\n        /* \"#utility.yul\":17770:17779   */\n      dup3\n        /* \"#utility.yul\":17766:17784   */\n      add\n        /* \"#utility.yul\":17758:17784   */\n      swap1\n      pop\n        /* \"#utility.yul\":17794:17865   */\n      tag_454\n        /* \"#utility.yul\":17862:17863   */\n      0x00\n        /* \"#utility.yul\":17851:17860   */\n      dup4\n        /* \"#utility.yul\":17847:17864   */\n      add\n        /* \"#utility.yul\":17838:17844   */\n      dup7\n        /* \"#utility.yul\":17794:17865   */\n      tag_247\n      jump\t// in\n    tag_454:\n        /* \"#utility.yul\":17875:17947   */\n      tag_455\n        /* \"#utility.yul\":17943:17945   */\n      0x20\n        /* \"#utility.yul\":17932:17941   */\n      dup4\n        /* \"#utility.yul\":17928:17946   */\n      add\n        /* \"#utility.yul\":17919:17925   */\n      dup6\n        /* \"#utility.yul\":17875:17947   */\n      tag_247\n      jump\t// in\n    tag_455:\n        /* \"#utility.yul\":17957:18029   */\n      tag_456\n        /* \"#utility.yul\":18025:18027   */\n      0x40\n        /* \"#utility.yul\":18014:18023   */\n      dup4\n        /* \"#utility.yul\":18010:18028   */\n      add\n        /* \"#utility.yul\":18001:18007   */\n      dup5\n        /* \"#utility.yul\":17957:18029   */\n      tag_248\n      jump\t// in\n    tag_456:\n        /* \"#utility.yul\":17594:18036   */\n      swap5\n      swap4\n      pop\n      pop\n      pop\n      pop\n      jump\t// out\n        /* \"#utility.yul\":18042:18435   */\n    tag_145:\n        /* \"#utility.yul\":18195:18199   */\n      0x00\n        /* \"#utility.yul\":18233:18235   */\n      0x20\n        /* \"#utility.yul\":18222:18231   */\n      dup3\n        /* \"#utility.yul\":18218:18236   */\n      add\n        /* \"#utility.yul\":18210:18236   */\n      swap1\n      pop\n        /* \"#utility.yul\":18282:18291   */\n      dup2\n        /* \"#utility.yul\":18276:18280   */\n      dup2\n        /* \"#utility.yul\":18272:18292   */\n      sub\n        /* \"#utility.yul\":18268:18269   */\n      0x00\n        /* \"#utility.yul\":18257:18266   */\n      dup4\n        /* \"#utility.yul\":18253:18270   */\n      add\n        /* \"#utility.yul\":18246:18293   */\n      mstore\n        /* \"#utility.yul\":18310:18428   */\n      tag_458\n        /* \"#utility.yul\":18423:18427   */\n      dup2\n        /* \"#utility.yul\":18414:18420   */\n      dup5\n        /* \"#utility.yul\":18406:18412   */\n      dup7\n        /* \"#utility.yul\":18310:18428   */\n      tag_275\n      jump\t// in\n    tag_458:\n        /* \"#utility.yul\":18302:18428   */\n      swap1\n      pop\n        /* \"#utility.yul\":18042:18435   */\n      swap4\n      swap3\n      pop\n      pop\n      pop\n      jump\t// out\n        /* \"#utility.yul\":18441:18611   */\n    tag_281:\n        /* \"#utility.yul\":18581:18603   */\n      0x496e76616c6964206c6f636b20706572696f642e000000000000000000000000\n        /* \"#utility.yul\":18577:18578   */\n      0x00\n        /* \"#utility.yul\":18569:18575   */\n      dup3\n        /* \"#utility.yul\":18565:18579   */\n      add\n        /* \"#utility.yul\":18558:18604   */\n      mstore\n        /* \"#utility.yul\":18441:18611   */\n      pop\n      jump\t// out\n        /* \"#utility.yul\":18617:18983   */\n    tag_282:\n        /* \"#utility.yul\":18759:18762   */\n      0x00\n        /* \"#utility.yul\":18780:18847   */\n      tag_461\n        /* \"#utility.yul\":18844:18846   */\n      0x14\n        /* \"#utility.yul\":18839:18842   */\n      dup4\n        /* \"#utility.yul\":18780:18847   */\n      tag_258\n      jump\t// in\n    tag_461:\n        /* \"#utility.yul\":18773:18847   */\n      swap2\n      pop\n        /* \"#utility.yul\":18856:18949   */\n      tag_462\n        /* \"#utility.yul\":18945:18948   */\n      dup3\n        /* \"#utility.yul\":18856:18949   */\n      tag_281\n      jump\t// in\n    tag_462:\n        /* \"#utility.yul\":18974:18976   */\n      0x20\n        /* \"#utility.yul\":18969:18972   */\n      dup3\n        /* \"#utility.yul\":18965:18977   */\n      add\n        /* \"#utility.yul\":18958:18977   */\n      swap1\n      pop\n        /* \"#utility.yul\":18617:18983   */\n      swap2\n      swap1\n      pop\n      jump\t// out\n        /* \"#utility.yul\":18989:19408   */\n    tag_158:\n        /* \"#utility.yul\":19155:19159   */\n      0x00\n        /* \"#utility.yul\":19193:19195   */\n      0x20\n        /* \"#utility.yul\":19182:19191   */\n      dup3\n        /* \"#utility.yul\":19178:19196   */\n      add\n        /* \"#utility.yul\":19170:19196   */\n      swap1\n      pop\n        /* \"#utility.yul\":19242:19251   */\n      dup2\n        /* \"#utility.yul\":19236:19240   */\n      dup2\n        /* \"#utility.yul\":19232:19252   */\n      sub\n        /* \"#utility.yul\":19228:19229   */\n      0x00\n        /* \"#utility.yul\":19217:19226   */\n      dup4\n        /* \"#utility.yul\":19213:19230   */\n      add\n        /* \"#utility.yul\":19206:19253   */\n      mstore\n        /* \"#utility.yul\":19270:19401   */\n      tag_464\n        /* \"#utility.yul\":19396:19400   */\n      dup2\n        /* \"#utility.yul\":19270:19401   */\n      tag_282\n      jump\t// in\n    tag_464:\n        /* \"#utility.yul\":19262:19401   */\n      swap1\n      pop\n        /* \"#utility.yul\":18989:19408   */\n      swap2\n      swap1\n      pop\n      jump\t// out\n        /* \"#utility.yul\":19414:19586   */\n    tag_283:\n        /* \"#utility.yul\":19554:19578   */\n      0x4e6f742061626c6520746f20756e6c6f636b2079657400000000000000000000\n        /* \"#utility.yul\":19550:19551   */\n      0x00\n        /* \"#utility.yul\":19542:19548   */\n      dup3\n        /* \"#utility.yul\":19538:19552   */\n      add\n        /* \"#utility.yul\":19531:19579   */\n      mstore\n        /* \"#utility.yul\":19414:19586   */\n      pop\n      jump\t// out\n        /* \"#utility.yul\":19592:19958   */\n    tag_284:\n        /* \"#utility.yul\":19734:19737   */\n      0x00\n        /* \"#utility.yul\":19755:19822   */\n      tag_467\n        /* \"#utility.yul\":19819:19821   */\n      0x16\n        /* \"#utility.yul\":19814:19817   */\n      dup4\n        /* \"#utility.yul\":19755:19822   */\n      tag_258\n      jump\t// in\n    tag_467:\n        /* \"#utility.yul\":19748:19822   */\n      swap2\n      pop\n        /* \"#utility.yul\":19831:19924   */\n      tag_468\n        /* \"#utility.yul\":19920:19923   */\n      dup3\n        /* \"#utility.yul\":19831:19924   */\n      tag_283\n      jump\t// in\n    tag_468:\n        /* \"#utility.yul\":19949:19951   */\n      0x20\n        /* \"#utility.yul\":19944:19947   */\n      dup3\n        /* \"#utility.yul\":19940:19952   */\n      add\n        /* \"#utility.yul\":19933:19952   */\n      swap1\n      pop\n        /* \"#utility.yul\":19592:19958   */\n      swap2\n      swap1\n      pop\n      jump\t// out\n        /* \"#utility.yul\":19964:20383   */\n    tag_183:\n        /* \"#utility.yul\":20130:20134   */\n      0x00\n        /* \"#utility.yul\":20168:20170   */\n      0x20\n        /* \"#utility.yul\":20157:20166   */\n      dup3\n        /* \"#utility.yul\":20153:20171   */\n      add\n        /* \"#utility.yul\":20145:20171   */\n      swap1\n      pop\n        /* \"#utility.yul\":20217:20226   */\n      dup2\n        /* \"#utility.yul\":20211:20215   */\n      dup2\n        /* \"#utility.yul\":20207:20227   */\n      sub\n        /* \"#utility.yul\":20203:20204   */\n      0x00\n        /* \"#utility.yul\":20192:20201   */\n      dup4\n        /* \"#utility.yul\":20188:20205   */\n      add\n        /* \"#utility.yul\":20181:20228   */\n      mstore\n        /* \"#utility.yul\":20245:20376   */\n      tag_470\n        /* \"#utility.yul\":20371:20375   */\n      dup2\n        /* \"#utility.yul\":20245:20376   */\n      tag_284\n      jump\t// in\n    tag_470:\n        /* \"#utility.yul\":20237:20376   */\n      swap1\n      pop\n        /* \"#utility.yul\":19964:20383   */\n      swap2\n      swap1\n      pop\n      jump\t// out\n        /* \"#utility.yul\":20389:20614   */\n    tag_285:\n        /* \"#utility.yul\":20529:20563   */\n      0x4f776e61626c653a206e6577206f776e657220697320746865207a65726f2061\n        /* \"#utility.yul\":20525:20526   */\n      0x00\n        /* \"#utility.yul\":20517:20523   */\n      dup3\n        /* \"#utility.yul\":20513:20527   */\n      add\n        /* \"#utility.yul\":20506:20564   */\n      mstore\n        /* \"#utility.yul\":20598:20606   */\n      0x6464726573730000000000000000000000000000000000000000000000000000\n        /* \"#utility.yul\":20593:20595   */\n      0x20\n        /* \"#utility.yul\":20585:20591   */\n      dup3\n        /* \"#utility.yul\":20581:20596   */\n      add\n        /* \"#utility.yul\":20574:20607   */\n      mstore\n        /* \"#utility.yul\":20389:20614   */\n      pop\n      jump\t// out\n        /* \"#utility.yul\":20620:20986   */\n    tag_286:\n        /* \"#utility.yul\":20762:20765   */\n      0x00\n        /* \"#utility.yul\":20783:20850   */\n      tag_473\n        /* \"#utility.yul\":20847:20849   */\n      0x26\n        /* \"#utility.yul\":20842:20845   */\n      dup4\n        /* \"#utility.yul\":20783:20850   */\n      tag_258\n      jump\t// in\n    tag_473:\n        /* \"#utility.yul\":20776:20850   */\n      swap2\n      pop\n        /* \"#utility.yul\":20859:20952   */\n      tag_474\n        /* \"#utility.yul\":20948:20951   */\n      dup3\n        /* \"#utility.yul\":20859:20952   */\n      tag_285\n      jump\t// in\n    tag_474:\n        /* \"#utility.yul\":20977:20979   */\n      0x40\n        /* \"#utility.yul\":20972:20975   */\n      dup3\n        /* \"#utility.yul\":20968:20980   */\n      add\n        /* \"#utility.yul\":20961:20980   */\n      swap1\n      pop\n        /* \"#utility.yul\":20620:20986   */\n      swap2\n      swap1\n      pop\n      jump\t// out\n        /* \"#utility.yul\":20992:21411   */\n    tag_211:\n        /* \"#utility.yul\":21158:21162   */\n      0x00\n        /* \"#utility.yul\":21196:21198   */\n      0x20\n        /* \"#utility.yul\":21185:21194   */\n      dup3\n        /* \"#utility.yul\":21181:21199   */\n      add\n        /* \"#utility.yul\":21173:21199   */\n      swap1\n      pop\n        /* \"#utility.yul\":21245:21254   */\n      dup2\n        /* \"#utility.yul\":21239:21243   */\n      dup2\n        /* \"#utility.yul\":21235:21255   */\n      sub\n        /* \"#utility.yul\":21231:21232   */\n      0x00\n        /* \"#utility.yul\":21220:21229   */\n      dup4\n        /* \"#utility.yul\":21216:21233   */\n      add\n        /* \"#utility.yul\":21209:21256   */\n      mstore\n        /* \"#utility.yul\":21273:21404   */\n      tag_476\n        /* \"#utility.yul\":21399:21403   */\n      dup2\n        /* \"#utility.yul\":21273:21404   */\n      tag_286\n      jump\t// in\n    tag_476:\n        /* \"#utility.yul\":21265:21404   */\n      swap1\n      pop\n        /* \"#utility.yul\":20992:21411   */\n      swap2\n      swap1\n      pop\n      jump\t// out\n        /* \"#utility.yul\":21417:21765   */\n    tag_220:\n        /* \"#utility.yul\":21457:21464   */\n      0x00\n        /* \"#utility.yul\":21480:21500   */\n      tag_478\n        /* \"#utility.yul\":21498:21499   */\n      dup3\n        /* \"#utility.yul\":21480:21500   */\n      tag_244\n      jump\t// in\n    tag_478:\n        /* \"#utility.yul\":21475:21500   */\n      swap2\n      pop\n        /* \"#utility.yul\":21514:21534   */\n      tag_479\n        /* \"#utility.yul\":21532:21533   */\n      dup4\n        /* \"#utility.yul\":21514:21534   */\n      tag_244\n      jump\t// in\n    tag_479:\n        /* \"#utility.yul\":21509:21534   */\n      swap3\n      pop\n        /* \"#utility.yul\":21702:21703   */\n      dup2\n        /* \"#utility.yul\":21634:21700   */\n      0xffffffffffffffffffffffffffffffffffffffffffffffffffffffffffffffff\n        /* \"#utility.yul\":21630:21704   */\n      div\n        /* \"#utility.yul\":21627:21628   */\n      dup4\n        /* \"#utility.yul\":21624:21705   */\n      gt\n        /* \"#utility.yul\":21619:21620   */\n      dup3\n        /* \"#utility.yul\":21612:21621   */\n      iszero\n        /* \"#utility.yul\":21605:21622   */\n      iszero\n        /* \"#utility.yul\":21601:21706   */\n      and\n        /* \"#utility.yul\":21598:21729   */\n      iszero\n      tag_480\n      jumpi\n        /* \"#utility.yul\":21709:21727   */\n      tag_481\n      tag_267\n      jump\t// in\n    tag_481:\n        /* \"#utility.yul\":21598:21729   */\n    tag_480:\n        /* \"#utility.yul\":21757:21758   */\n      dup3\n        /* \"#utility.yul\":21754:21755   */\n      dup3\n        /* \"#utility.yul\":21750:21759   */\n      mul\n        /* \"#utility.yul\":21739:21759   */\n      swap1\n      pop\n        /* \"#utility.yul\":21417:21765   */\n      swap3\n      swap2\n      pop\n      pop\n      jump\t// out\n        /* \"#utility.yul\":21771:21951   */\n    tag_287:\n        /* \"#utility.yul\":21819:21896   */\n      0x4e487b7100000000000000000000000000000000000000000000000000000000\n        /* \"#utility.yul\":21816:21817   */\n      0x00\n        /* \"#utility.yul\":21809:21897   */\n      mstore\n        /* \"#utility.yul\":21916:21920   */\n      0x12\n        /* \"#utility.yul\":21913:21914   */\n      0x04\n        /* \"#utility.yul\":21906:21921   */\n      mstore\n        /* \"#utility.yul\":21940:21944   */\n      0x24\n        /* \"#utility.yul\":21937:21938   */\n      0x00\n        /* \"#utility.yul\":21930:21945   */\n      revert\n        /* \"#utility.yul\":21957:22142   */\n    tag_222:\n        /* \"#utility.yul\":21997:21998   */\n      0x00\n        /* \"#utility.yul\":22014:22034   */\n      tag_484\n        /* \"#utility.yul\":22032:22033   */\n      dup3\n        /* \"#utility.yul\":22014:22034   */\n      tag_244\n      jump\t// in\n    tag_484:\n        /* \"#utility.yul\":22009:22034   */\n      swap2\n      pop\n        /* \"#utility.yul\":22048:22068   */\n      tag_485\n        /* \"#utility.yul\":22066:22067   */\n      dup4\n        /* \"#utility.yul\":22048:22068   */\n      tag_244\n      jump\t// in\n    tag_485:\n        /* \"#utility.yul\":22043:22068   */\n      swap3\n      pop\n        /* \"#utility.yul\":22087:22088   */\n      dup3\n        /* \"#utility.yul\":22077:22112   */\n      tag_486\n      jumpi\n        /* \"#utility.yul\":22092:22110   */\n      tag_487\n      tag_287\n      jump\t// in\n    tag_487:\n        /* \"#utility.yul\":22077:22112   */\n    tag_486:\n        /* \"#utility.yul\":22134:22135   */\n      dup3\n        /* \"#utility.yul\":22131:22132   */\n      dup3\n        /* \"#utility.yul\":22127:22136   */\n      div\n        /* \"#utility.yul\":22122:22136   */\n      swap1\n      pop\n        /* \"#utility.yul\":21957:22142   */\n      swap3\n      swap2\n      pop\n      pop\n      jump\t// out\n        /* \"#utility.yul\":22148:22330   */\n    tag_288:\n        /* \"#utility.yul\":22288:22322   */\n      0x4f776e61626c653a2063616c6c6572206973206e6f7420746865206f776e6572\n        /* \"#utility.yul\":22284:22285   */\n      0x00\n        /* \"#utility.yul\":22276:22282   */\n      dup3\n        /* \"#utility.yul\":22272:22286   */\n      add\n        /* \"#utility.yul\":22265:22323   */\n      mstore\n        /* \"#utility.yul\":22148:22330   */\n      pop\n      jump\t// out\n        /* \"#utility.yul\":22336:22702   */\n    tag_289:\n        /* \"#utility.yul\":22478:22481   */\n      0x00\n        /* \"#utility.yul\":22499:22566   */\n      tag_490\n        /* \"#utility.yul\":22563:22565   */\n      0x20\n        /* \"#utility.yul\":22558:22561   */\n      dup4\n        /* \"#utility.yul\":22499:22566   */\n      tag_258\n      jump\t// in\n    tag_490:\n        /* \"#utility.yul\":22492:22566   */\n      swap2\n      pop\n        /* \"#utility.yul\":22575:22668   */\n      tag_491\n        /* \"#utility.yul\":22664:22667   */\n      dup3\n        /* \"#utility.yul\":22575:22668   */\n      tag_288\n      jump\t// in\n    tag_491:\n        /* \"#utility.yul\":22693:22695   */\n      0x20\n        /* \"#utility.yul\":22688:22691   */\n      dup3\n        /* \"#utility.yul\":22684:22696   */\n      add\n        /* \"#utility.yul\":22677:22696   */\n      swap1\n      pop\n        /* \"#utility.yul\":22336:22702   */\n      swap2\n      swap1\n      pop\n      jump\t// out\n        /* \"#utility.yul\":22708:23127   */\n    tag_229:\n        /* \"#utility.yul\":22874:22878   */\n      0x00\n        /* \"#utility.yul\":22912:22914   */\n      0x20\n        /* \"#utility.yul\":22901:22910   */\n      dup3\n        /* \"#utility.yul\":22897:22915   */\n      add\n        /* \"#utility.yul\":22889:22915   */\n      swap1\n      pop\n        /* \"#utility.yul\":22961:22970   */\n      dup2\n        /* \"#utility.yul\":22955:22959   */\n      dup2\n        /* \"#utility.yul\":22951:22971   */\n      sub\n        /* \"#utility.yul\":22947:22948   */\n      0x00\n        /* \"#utility.yul\":22936:22945   */\n      dup4\n        /* \"#utility.yul\":22932:22949   */\n      add\n        /* \"#utility.yul\":22925:22972   */\n      mstore\n        /* \"#utility.yul\":22989:23120   */\n      tag_493\n        /* \"#utility.yul\":23115:23119   */\n      dup2\n        /* \"#utility.yul\":22989:23120   */\n      tag_289\n      jump\t// in\n    tag_493:\n        /* \"#utility.yul\":22981:23120   */\n      swap1\n      pop\n        /* \"#utility.yul\":22708:23127   */\n      swap2\n      swap1\n      pop\n      jump\t// out\n\n    auxdata: 0xa264697066735822122047b9ed2dee011f437421719c9148bdffb0b1f71bb720f0e82d2c4b400bdd2dae64736f6c63430008100033\n}\n",
				"bytecode": {
					"linkReferences": {},
					"object": "60806040523480156200001157600080fd5b5060405162002bcb38038062002bcb83398181016040528101906200003791906200066a565b620000576200004b6200029f60201b60201c565b620002a760201b60201c565b6001808190555060008411620000a4576040517f08c379a00000000000000000000000000000000000000000000000000000000081526004016200009b90620007e3565b60405180910390fd5b60005b86518110156200028457858181518110620000c757620000c662000805565b5b602002602001015160046000898481518110620000e957620000e862000805565b5b602002602001015173ffffffffffffffffffffffffffffffffffffffff1673ffffffffffffffffffffffffffffffffffffffff16815260200190815260200160002060000160006101000a81548173ffffffffffffffffffffffffffffffffffffffff021916908373ffffffffffffffffffffffffffffffffffffffff16021790555083818151811062000182576200018162000805565b5b602002602001015160046000898481518110620001a457620001a362000805565b5b602002602001015173ffffffffffffffffffffffffffffffffffffffff1673ffffffffffffffffffffffffffffffffffffffff1681526020019081526020016000206001018190555082818151811062000203576200020262000805565b5b60200260200101516004600089848151811062000225576200022462000805565b5b602002602001015173ffffffffffffffffffffffffffffffffffffffff1673ffffffffffffffffffffffffffffffffffffffff1681526020019081526020016000206002018190555080806200027b9062000863565b915050620000a7565b508360028190555080600681905550505050505050620008b0565b600033905090565b60008060009054906101000a900473ffffffffffffffffffffffffffffffffffffffff169050816000806101000a81548173ffffffffffffffffffffffffffffffffffffffff021916908373ffffffffffffffffffffffffffffffffffffffff1602179055508173ffffffffffffffffffffffffffffffffffffffff168173ffffffffffffffffffffffffffffffffffffffff167f8be0079c531659141344cd1fd0a4f28419497f9722a3daafe3b4186f6b6457e060405160405180910390a35050565b6000604051905090565b600080fd5b600080fd5b600080fd5b6000601f19601f8301169050919050565b7f4e487b7100000000000000000000000000000000000000000000000000000000600052604160045260246000fd5b620003cf8262000384565b810181811067ffffffffffffffff82111715620003f157620003f062000395565b5b80604052505050565b6000620004066200036b565b9050620004148282620003c4565b919050565b600067ffffffffffffffff82111562000437576200043662000395565b5b602082029050602081019050919050565b600080fd5b600073ffffffffffffffffffffffffffffffffffffffff82169050919050565b60006200047a826200044d565b9050919050565b6200048c816200046d565b81146200049857600080fd5b50565b600081519050620004ac8162000481565b92915050565b6000620004c9620004c38462000419565b620003fa565b90508083825260208201905060208402830185811115620004ef57620004ee62000448565b5b835b818110156200051c57806200050788826200049b565b845260208401935050602081019050620004f1565b5050509392505050565b600082601f8301126200053e576200053d6200037f565b5b815162000550848260208601620004b2565b91505092915050565b6000819050919050565b6200056e8162000559565b81146200057a57600080fd5b50565b6000815190506200058e8162000563565b92915050565b600067ffffffffffffffff821115620005b257620005b162000395565b5b602082029050602081019050919050565b6000620005da620005d48462000594565b620003fa565b905080838252602082019050602084028301858111156200060057620005ff62000448565b5b835b818110156200062d57806200061888826200057d565b84526020840193505060208101905062000602565b5050509392505050565b600082601f8301126200064f576200064e6200037f565b5b815162000661848260208601620005c3565b91505092915050565b60008060008060008060c087890312156200068a576200068962000375565b5b600087015167ffffffffffffffff811115620006ab57620006aa6200037a565b5b620006b989828a0162000526565b965050602087015167ffffffffffffffff811115620006dd57620006dc6200037a565b5b620006eb89828a0162000526565b9550506040620006fe89828a016200057d565b945050606087015167ffffffffffffffff8111156200072257620007216200037a565b5b6200073089828a0162000637565b935050608087015167ffffffffffffffff8111156200075457620007536200037a565b5b6200076289828a0162000637565b92505060a06200077589828a016200057d565b9150509295509295509295565b600082825260208201905092915050565b7f496e76616c6964206c6f636b20706572696f6400000000000000000000000000600082015250565b6000620007cb60138362000782565b9150620007d88262000793565b602082019050919050565b60006020820190508181036000830152620007fe81620007bc565b9050919050565b7f4e487b7100000000000000000000000000000000000000000000000000000000600052603260045260246000fd5b7f4e487b7100000000000000000000000000000000000000000000000000000000600052601160045260246000fd5b6000620008708262000559565b91507fffffffffffffffffffffffffffffffffffffffffffffffffffffffffffffffff8203620008a557620008a462000834565b5b600182019050919050565b61230b80620008c06000396000f3fe608060405234801561001057600080fd5b50600436106100b45760003560e01c8063715018a611610071578063715018a6146101a3578063779972da146101ad5780638da5cb5b146101c95780639f3625f0146101e7578063c69d192314610203578063f2fde38b14610221576100b4565b80630520537f146100b95780631902732e146100d55780631caaa487146100f157806320281a98146101215780633fd8b02f146101515780635b1a4c241461016f575b600080fd5b6100d360048036038101906100ce9190611816565b61023d565b005b6100ef60048036038101906100ea9190611816565b61073e565b005b61010b600480360381019061010691906118ac565b610bec565b60405161011891906118e8565b60405180910390f35b61013b600480360381019061013691906118ac565b610c1f565b6040516101489190611912565b60405180910390f35b610159610c3f565b6040516101669190611912565b60405180910390f35b610189600480360381019061018491906118ac565b610c45565b60405161019a9594939291906119a7565b60405180910390f35b6101ab610cc8565b005b6101c760048036038101906101c291906118ac565b610cdc565b005b6101d1610d68565b6040516101de91906118e8565b60405180910390f35b61020160048036038101906101fc9190611816565b610d91565b005b61020b6113a0565b6040516102189190611912565b60405180910390f35b61023b60048036038101906102369190611a26565b6113a6565b005b61025c3373ffffffffffffffffffffffffffffffffffffffff16611429565b1561029c576040517f08c379a000000000000000000000000000000000000000000000000000000000815260040161029390611ab0565b60405180910390fd5b3273ffffffffffffffffffffffffffffffffffffffff163373ffffffffffffffffffffffffffffffffffffffff161461030a576040517f08c379a000000000000000000000000000000000000000000000000000000000815260040161030190611b1c565b60405180910390fd5b60008383905011610350576040517f08c379a000000000000000000000000000000000000000000000000000000000815260040161034790611b88565b60405180910390fd5b600080600090505b848490508110156106e55760006003600087878581811061037c5761037b611ba8565b5b9050602002013581526020019081526020016000206040518060a00160405290816000820160009054906101000a900473ffffffffffffffffffffffffffffffffffffffff1673ffffffffffffffffffffffffffffffffffffffff1673ffffffffffffffffffffffffffffffffffffffff16815260200160018201548152602001600282015481526020016003820160009054906101000a900460ff161515151581526020016003820160019054906101000a900473ffffffffffffffffffffffffffffffffffffffff1673ffffffffffffffffffffffffffffffffffffffff1673ffffffffffffffffffffffffffffffffffffffff168152505090503373ffffffffffffffffffffffffffffffffffffffff16816000015173ffffffffffffffffffffffffffffffffffffffff16146104eb576040517f08c379a00000000000000000000000000000000000000000000000000000000081526004016104e290611c23565b60405180910390fd5b4260025482602001516104fe9190611c72565b1061053e576040517f08c379a000000000000000000000000000000000000000000000000000000000815260040161053590611cf2565b60405180910390fd5b806060015115610583576040517f08c379a000000000000000000000000000000000000000000000000000000000815260040161057a90611d5e565b60405180910390fd5b60006105a887878581811061059b5761059a611ba8565b5b905060200201358661144c565b905060008260400151826105bc9190611d7e565b9050600460008773ffffffffffffffffffffffffffffffffffffffff1673ffffffffffffffffffffffffffffffffffffffff16815260200190815260200160002060000160009054906101000a900473ffffffffffffffffffffffffffffffffffffffff1673ffffffffffffffffffffffffffffffffffffffff166340c10f1933836040518363ffffffff1660e01b815260040161065b929190611db2565b600060405180830381600087803b15801561067557600080fd5b505af1158015610689573d6000803e3d6000fd5b5050505080856106999190611c72565b945081600360008a8a888181106106b3576106b2611ba8565b5b9050602002013581526020019081526020016000206002018190555050505080806106dd90611ddb565b915050610358565b503373ffffffffffffffffffffffffffffffffffffffff167f37826be3c26dbad83731f4b985f22fa9ef86b6d1974cd77208332b7f1f283c0c85858460405161073093929190611e9e565b60405180910390a250505050565b61075d3373ffffffffffffffffffffffffffffffffffffffff16611429565b1561079d576040517f08c379a000000000000000000000000000000000000000000000000000000000815260040161079490611ab0565b60405180910390fd5b3273ffffffffffffffffffffffffffffffffffffffff163373ffffffffffffffffffffffffffffffffffffffff161461080b576040517f08c379a000000000000000000000000000000000000000000000000000000000815260040161080290611b1c565b60405180910390fd5b600260015403610850576040517f08c379a000000000000000000000000000000000000000000000000000000000815260040161084790611f1c565b60405180910390fd5b60026001819055506000838390501161089e576040517f08c379a000000000000000000000000000000000000000000000000000000000815260040161089590611b88565b60405180910390fd5b60005b83839050811015610b8f573373ffffffffffffffffffffffffffffffffffffffff168273ffffffffffffffffffffffffffffffffffffffff16636352211e8686858181106108f2576108f1611ba8565b5b905060200201356040518263ffffffff1660e01b81526004016109159190611912565b602060405180830381865afa158015610932573d6000803e3d6000fd5b505050506040513d601f19601f820116820180604052508101906109569190611f51565b73ffffffffffffffffffffffffffffffffffffffff16146109ac576040517f08c379a00000000000000000000000000000000000000000000000000000000081526004016109a390611fca565b60405180910390fd5b8173ffffffffffffffffffffffffffffffffffffffff166323b872dd33308787868181106109dd576109dc611ba8565b5b905060200201356040518463ffffffff1660e01b8152600401610a0293929190611fea565b600060405180830381600087803b158015610a1c57600080fd5b505af1158015610a30573d6000803e3d6000fd5b505050506040518060a001604052803373ffffffffffffffffffffffffffffffffffffffff168152602001428152602001600081526020016000151581526020018373ffffffffffffffffffffffffffffffffffffffff1681525060036000868685818110610aa257610aa1611ba8565b5b90506020020135815260200190815260200160002060008201518160000160006101000a81548173ffffffffffffffffffffffffffffffffffffffff021916908373ffffffffffffffffffffffffffffffffffffffff160217905550602082015181600101556040820151816002015560608201518160030160006101000a81548160ff02191690831515021790555060808201518160030160016101000a81548173ffffffffffffffffffffffffffffffffffffffff021916908373ffffffffffffffffffffffffffffffffffffffff1602179055509050508080610b8790611ddb565b9150506108a1565b503373ffffffffffffffffffffffffffffffffffffffff167f458be0227bccc9e803dec79bd16767eeaf9925d2ce708eeed7ae1f3621f968f98484604051610bd8929190612021565b60405180910390a260018081905550505050565b60056020528060005260406000206000915054906101000a900473ffffffffffffffffffffffffffffffffffffffff1681565b600060036000838152602001908152602001600020600201549050919050565b60025481565b60036020528060005260406000206000915090508060000160009054906101000a900473ffffffffffffffffffffffffffffffffffffffff16908060010154908060020154908060030160009054906101000a900460ff16908060030160019054906101000a900473ffffffffffffffffffffffffffffffffffffffff16905085565b610cd06115ed565b610cda600061166b565b565b610ce46115ed565b60008111610d27576040517f08c379a0000000000000000000000000000000000000000000000000000000008152600401610d1e90612091565b60405180910390fd5b806002819055507f8249ec545e68f6f1e1230133ca48c704d831a7f8e635ded80f3dd9e99b09bb2f81604051610d5d9190611912565b60405180910390a150565b60008060009054906101000a900473ffffffffffffffffffffffffffffffffffffffff16905090565b610db03373ffffffffffffffffffffffffffffffffffffffff16611429565b15610df0576040517f08c379a0000000000000000000000000000000000000000000000000000000008152600401610de790611ab0565b60405180910390fd5b3273ffffffffffffffffffffffffffffffffffffffff163373ffffffffffffffffffffffffffffffffffffffff1614610e5e576040517f08c379a0000000000000000000000000000000000000000000000000000000008152600401610e5590611b1c565b60405180910390fd5b600260015403610ea3576040517f08c379a0000000000000000000000000000000000000000000000000000000008152600401610e9a90611f1c565b60405180910390fd5b600260018190555060008383905011610ef1576040517f08c379a0000000000000000000000000000000000000000000000000000000008152600401610ee890611b88565b60405180910390fd5b60005b8383905081101561134357600060036000868685818110610f1857610f17611ba8565b5b9050602002013581526020019081526020016000206040518060a00160405290816000820160009054906101000a900473ffffffffffffffffffffffffffffffffffffffff1673ffffffffffffffffffffffffffffffffffffffff1673ffffffffffffffffffffffffffffffffffffffff16815260200160018201548152602001600282015481526020016003820160009054906101000a900460ff161515151581526020016003820160019054906101000a900473ffffffffffffffffffffffffffffffffffffffff1673ffffffffffffffffffffffffffffffffffffffff1673ffffffffffffffffffffffffffffffffffffffff168152505090503373ffffffffffffffffffffffffffffffffffffffff16816000015173ffffffffffffffffffffffffffffffffffffffff1614611087576040517f08c379a000000000000000000000000000000000000000000000000000000000815260040161107e90611c23565b60405180910390fd5b42600254826020015161109a9190611c72565b106110da576040517f08c379a00000000000000000000000000000000000000000000000000000000081526004016110d1906120fd565b60405180910390fd5b80606001511561111f576040517f08c379a000000000000000000000000000000000000000000000000000000000815260040161111690611d5e565b60405180910390fd5b8273ffffffffffffffffffffffffffffffffffffffff166323b872dd30338888878181106111505761114f611ba8565b5b905060200201356040518463ffffffff1660e01b815260040161117593929190611fea565b600060405180830381600087803b15801561118f57600080fd5b505af11580156111a3573d6000803e3d6000fd5b5050505060006111cc8686858181106111bf576111be611ba8565b5b905060200201358561144c565b905060008260400151826111e09190611d7e565b9050600460008673ffffffffffffffffffffffffffffffffffffffff1673ffffffffffffffffffffffffffffffffffffffff16815260200190815260200160002060000160009054906101000a900473ffffffffffffffffffffffffffffffffffffffff1673ffffffffffffffffffffffffffffffffffffffff166340c10f1933836040518363ffffffff1660e01b815260040161127f929190611db2565b600060405180830381600087803b15801561129957600080fd5b505af11580156112ad573d6000803e3d6000fd5b5050505081600360008989888181106112c9576112c8611ba8565b5b905060200201358152602001908152602001600020600201819055506001600360008989888181106112fe576112fd611ba8565b5b90506020020135815260200190815260200160002060030160006101000a81548160ff021916908315150217905550505050808061133b90611ddb565b915050610ef4565b503373ffffffffffffffffffffffffffffffffffffffff167f5cb48022479b9ac3bfb10a27965dc010acffc9fc1bc9a52f0b18975b944b54ca848460405161138c929190612021565b60405180910390a260018081905550505050565b60065481565b6113ae6115ed565b600073ffffffffffffffffffffffffffffffffffffffff168173ffffffffffffffffffffffffffffffffffffffff160361141d576040517f08c379a00000000000000000000000000000000000000000000000000000000081526004016114149061218f565b60405180910390fd5b6114268161166b565b50565b6000808273ffffffffffffffffffffffffffffffffffffffff163b119050919050565b600080600360008581526020019081526020016000206040518060a00160405290816000820160009054906101000a900473ffffffffffffffffffffffffffffffffffffffff1673ffffffffffffffffffffffffffffffffffffffff1673ffffffffffffffffffffffffffffffffffffffff16815260200160018201548152602001600282015481526020016003820160009054906101000a900460ff161515151581526020016003820160019054906101000a900473ffffffffffffffffffffffffffffffffffffffff1673ffffffffffffffffffffffffffffffffffffffff1673ffffffffffffffffffffffffffffffffffffffff16815250509050600081602001514261155c9190611d7e565b9050600060025482101561157657600093505050506115e7565b600654600254836115879190611d7e565b600460008873ffffffffffffffffffffffffffffffffffffffff1673ffffffffffffffffffffffffffffffffffffffff168152602001908152602001600020600101546115d491906121af565b6115de9190612238565b90508093505050505b92915050565b6115f561172f565b73ffffffffffffffffffffffffffffffffffffffff16611613610d68565b73ffffffffffffffffffffffffffffffffffffffff1614611669576040517f08c379a0000000000000000000000000000000000000000000000000000000008152600401611660906122b5565b60405180910390fd5b565b60008060009054906101000a900473ffffffffffffffffffffffffffffffffffffffff169050816000806101000a81548173ffffffffffffffffffffffffffffffffffffffff021916908373ffffffffffffffffffffffffffffffffffffffff1602179055508173ffffffffffffffffffffffffffffffffffffffff168173ffffffffffffffffffffffffffffffffffffffff167f8be0079c531659141344cd1fd0a4f28419497f9722a3daafe3b4186f6b6457e060405160405180910390a35050565b600033905090565b600080fd5b600080fd5b600080fd5b600080fd5b600080fd5b60008083601f84011261176657611765611741565b5b8235905067ffffffffffffffff81111561178357611782611746565b5b60208301915083602082028301111561179f5761179e61174b565b5b9250929050565b600073ffffffffffffffffffffffffffffffffffffffff82169050919050565b60006117d1826117a6565b9050919050565b60006117e3826117c6565b9050919050565b6117f3816117d8565b81146117fe57600080fd5b50565b600081359050611810816117ea565b92915050565b60008060006040848603121561182f5761182e611737565b5b600084013567ffffffffffffffff81111561184d5761184c61173c565b5b61185986828701611750565b9350935050602061186c86828701611801565b9150509250925092565b6000819050919050565b61188981611876565b811461189457600080fd5b50565b6000813590506118a681611880565b92915050565b6000602082840312156118c2576118c1611737565b5b60006118d084828501611897565b91505092915050565b6118e2816117c6565b82525050565b60006020820190506118fd60008301846118d9565b92915050565b61190c81611876565b82525050565b60006020820190506119276000830184611903565b92915050565b60008115159050919050565b6119428161192d565b82525050565b6000819050919050565b600061196d611968611963846117a6565b611948565b6117a6565b9050919050565b600061197f82611952565b9050919050565b600061199182611974565b9050919050565b6119a181611986565b82525050565b600060a0820190506119bc60008301886118d9565b6119c96020830187611903565b6119d66040830186611903565b6119e36060830185611939565b6119f06080830184611998565b9695505050505050565b611a03816117c6565b8114611a0e57600080fd5b50565b600081359050611a20816119fa565b92915050565b600060208284031215611a3c57611a3b611737565b5b6000611a4a84828501611a11565b91505092915050565b600082825260208201905092915050565b7f436f6e7472616374206e6f7420616c6c6f776564000000000000000000000000600082015250565b6000611a9a601483611a53565b9150611aa582611a64565b602082019050919050565b60006020820190508181036000830152611ac981611a8d565b9050919050565b7f50726f787920636f6e7472616374206e6f7420616c6c6f776564000000000000600082015250565b6000611b06601a83611a53565b9150611b1182611ad0565b602082019050919050565b60006020820190508181036000830152611b3581611af9565b9050919050565b7f4e6f20746f6b656e730000000000000000000000000000000000000000000000600082015250565b6000611b72600983611a53565b9150611b7d82611b3c565b602082019050919050565b60006020820190508181036000830152611ba181611b65565b9050919050565b7f4e487b7100000000000000000000000000000000000000000000000000000000600052603260045260246000fd5b7f4e6f74206120746f6b656e206f776e6572000000000000000000000000000000600082015250565b6000611c0d601183611a53565b9150611c1882611bd7565b602082019050919050565b60006020820190508181036000830152611c3c81611c00565b9050919050565b7f4e487b7100000000000000000000000000000000000000000000000000000000600052601160045260246000fd5b6000611c7d82611876565b9150611c8883611876565b9250828201905080821115611ca057611c9f611c43565b5b92915050565b7f4e6f742061626c6520746f20636c61696d207965740000000000000000000000600082015250565b6000611cdc601583611a53565b9150611ce782611ca6565b602082019050919050565b60006020820190508181036000830152611d0b81611ccf565b9050919050565b7f416c726561647920756e6c6f636b656400000000000000000000000000000000600082015250565b6000611d48601083611a53565b9150611d5382611d12565b602082019050919050565b60006020820190508181036000830152611d7781611d3b565b9050919050565b6000611d8982611876565b9150611d9483611876565b9250828203905081811115611dac57611dab611c43565b5b92915050565b6000604082019050611dc760008301856118d9565b611dd46020830184611903565b9392505050565b6000611de682611876565b91507fffffffffffffffffffffffffffffffffffffffffffffffffffffffffffffffff8203611e1857611e17611c43565b5b600182019050919050565b600082825260208201905092915050565b600080fd5b82818337505050565b6000611e4e8385611e23565b93507f07ffffffffffffffffffffffffffffffffffffffffffffffffffffffffffffff831115611e8157611e80611e34565b5b602083029250611e92838584611e39565b82840190509392505050565b60006040820190508181036000830152611eb9818587611e42565b9050611ec86020830184611903565b949350505050565b7f5265656e7472616e637947756172643a207265656e7472616e742063616c6c00600082015250565b6000611f06601f83611a53565b9150611f1182611ed0565b602082019050919050565b60006020820190508181036000830152611f3581611ef9565b9050919050565b600081519050611f4b816119fa565b92915050565b600060208284031215611f6757611f66611737565b5b6000611f7584828501611f3c565b91505092915050565b7f596f7520646f6e277420686f6c64207468697320746f6b656e00000000000000600082015250565b6000611fb4601983611a53565b9150611fbf82611f7e565b602082019050919050565b60006020820190508181036000830152611fe381611fa7565b9050919050565b6000606082019050611fff60008301866118d9565b61200c60208301856118d9565b6120196040830184611903565b949350505050565b6000602082019050818103600083015261203c818486611e42565b90509392505050565b7f496e76616c6964206c6f636b20706572696f642e000000000000000000000000600082015250565b600061207b601483611a53565b915061208682612045565b602082019050919050565b600060208201905081810360008301526120aa8161206e565b9050919050565b7f4e6f742061626c6520746f20756e6c6f636b2079657400000000000000000000600082015250565b60006120e7601683611a53565b91506120f2826120b1565b602082019050919050565b60006020820190508181036000830152612116816120da565b9050919050565b7f4f776e61626c653a206e6577206f776e657220697320746865207a65726f206160008201527f6464726573730000000000000000000000000000000000000000000000000000602082015250565b6000612179602683611a53565b91506121848261211d565b604082019050919050565b600060208201905081810360008301526121a88161216c565b9050919050565b60006121ba82611876565b91506121c583611876565b9250817fffffffffffffffffffffffffffffffffffffffffffffffffffffffffffffffff04831182151516156121fe576121fd611c43565b5b828202905092915050565b7f4e487b7100000000000000000000000000000000000000000000000000000000600052601260045260246000fd5b600061224382611876565b915061224e83611876565b92508261225e5761225d612209565b5b828204905092915050565b7f4f776e61626c653a2063616c6c6572206973206e6f7420746865206f776e6572600082015250565b600061229f602083611a53565b91506122aa82612269565b602082019050919050565b600060208201905081810360008301526122ce81612292565b905091905056fea264697066735822122047b9ed2dee011f437421719c9148bdffb0b1f71bb720f0e82d2c4b400bdd2dae64736f6c63430008100033",
					"opcodes": "PUSH1 0x80 PUSH1 0x40 MSTORE CALLVALUE DUP1 ISZERO PUSH3 0x11 JUMPI PUSH1 0x0 DUP1 REVERT JUMPDEST POP PUSH1 0x40 MLOAD PUSH3 0x2BCB CODESIZE SUB DUP1 PUSH3 0x2BCB DUP4 CODECOPY DUP2 DUP2 ADD PUSH1 0x40 MSTORE DUP2 ADD SWAP1 PUSH3 0x37 SWAP2 SWAP1 PUSH3 0x66A JUMP JUMPDEST PUSH3 0x57 PUSH3 0x4B PUSH3 0x29F PUSH1 0x20 SHL PUSH1 0x20 SHR JUMP JUMPDEST PUSH3 0x2A7 PUSH1 0x20 SHL PUSH1 0x20 SHR JUMP JUMPDEST PUSH1 0x1 DUP1 DUP2 SWAP1 SSTORE POP PUSH1 0x0 DUP5 GT PUSH3 0xA4 JUMPI PUSH1 0x40 MLOAD PUSH32 0x8C379A000000000000000000000000000000000000000000000000000000000 DUP2 MSTORE PUSH1 0x4 ADD PUSH3 0x9B SWAP1 PUSH3 0x7E3 JUMP JUMPDEST PUSH1 0x40 MLOAD DUP1 SWAP2 SUB SWAP1 REVERT JUMPDEST PUSH1 0x0 JUMPDEST DUP7 MLOAD DUP2 LT ISZERO PUSH3 0x284 JUMPI DUP6 DUP2 DUP2 MLOAD DUP2 LT PUSH3 0xC7 JUMPI PUSH3 0xC6 PUSH3 0x805 JUMP JUMPDEST JUMPDEST PUSH1 0x20 MUL PUSH1 0x20 ADD ADD MLOAD PUSH1 0x4 PUSH1 0x0 DUP10 DUP5 DUP2 MLOAD DUP2 LT PUSH3 0xE9 JUMPI PUSH3 0xE8 PUSH3 0x805 JUMP JUMPDEST JUMPDEST PUSH1 0x20 MUL PUSH1 0x20 ADD ADD MLOAD PUSH20 0xFFFFFFFFFFFFFFFFFFFFFFFFFFFFFFFFFFFFFFFF AND PUSH20 0xFFFFFFFFFFFFFFFFFFFFFFFFFFFFFFFFFFFFFFFF AND DUP2 MSTORE PUSH1 0x20 ADD SWAP1 DUP2 MSTORE PUSH1 0x20 ADD PUSH1 0x0 KECCAK256 PUSH1 0x0 ADD PUSH1 0x0 PUSH2 0x100 EXP DUP2 SLOAD DUP2 PUSH20 0xFFFFFFFFFFFFFFFFFFFFFFFFFFFFFFFFFFFFFFFF MUL NOT AND SWAP1 DUP4 PUSH20 0xFFFFFFFFFFFFFFFFFFFFFFFFFFFFFFFFFFFFFFFF AND MUL OR SWAP1 SSTORE POP DUP4 DUP2 DUP2 MLOAD DUP2 LT PUSH3 0x182 JUMPI PUSH3 0x181 PUSH3 0x805 JUMP JUMPDEST JUMPDEST PUSH1 0x20 MUL PUSH1 0x20 ADD ADD MLOAD PUSH1 0x4 PUSH1 0x0 DUP10 DUP5 DUP2 MLOAD DUP2 LT PUSH3 0x1A4 JUMPI PUSH3 0x1A3 PUSH3 0x805 JUMP JUMPDEST JUMPDEST PUSH1 0x20 MUL PUSH1 0x20 ADD ADD MLOAD PUSH20 0xFFFFFFFFFFFFFFFFFFFFFFFFFFFFFFFFFFFFFFFF AND PUSH20 0xFFFFFFFFFFFFFFFFFFFFFFFFFFFFFFFFFFFFFFFF AND DUP2 MSTORE PUSH1 0x20 ADD SWAP1 DUP2 MSTORE PUSH1 0x20 ADD PUSH1 0x0 KECCAK256 PUSH1 0x1 ADD DUP2 SWAP1 SSTORE POP DUP3 DUP2 DUP2 MLOAD DUP2 LT PUSH3 0x203 JUMPI PUSH3 0x202 PUSH3 0x805 JUMP JUMPDEST JUMPDEST PUSH1 0x20 MUL PUSH1 0x20 ADD ADD MLOAD PUSH1 0x4 PUSH1 0x0 DUP10 DUP5 DUP2 MLOAD DUP2 LT PUSH3 0x225 JUMPI PUSH3 0x224 PUSH3 0x805 JUMP JUMPDEST JUMPDEST PUSH1 0x20 MUL PUSH1 0x20 ADD ADD MLOAD PUSH20 0xFFFFFFFFFFFFFFFFFFFFFFFFFFFFFFFFFFFFFFFF AND PUSH20 0xFFFFFFFFFFFFFFFFFFFFFFFFFFFFFFFFFFFFFFFF AND DUP2 MSTORE PUSH1 0x20 ADD SWAP1 DUP2 MSTORE PUSH1 0x20 ADD PUSH1 0x0 KECCAK256 PUSH1 0x2 ADD DUP2 SWAP1 SSTORE POP DUP1 DUP1 PUSH3 0x27B SWAP1 PUSH3 0x863 JUMP JUMPDEST SWAP2 POP POP PUSH3 0xA7 JUMP JUMPDEST POP DUP4 PUSH1 0x2 DUP2 SWAP1 SSTORE POP DUP1 PUSH1 0x6 DUP2 SWAP1 SSTORE POP POP POP POP POP POP POP PUSH3 0x8B0 JUMP JUMPDEST PUSH1 0x0 CALLER SWAP1 POP SWAP1 JUMP JUMPDEST PUSH1 0x0 DUP1 PUSH1 0x0 SWAP1 SLOAD SWAP1 PUSH2 0x100 EXP SWAP1 DIV PUSH20 0xFFFFFFFFFFFFFFFFFFFFFFFFFFFFFFFFFFFFFFFF AND SWAP1 POP DUP2 PUSH1 0x0 DUP1 PUSH2 0x100 EXP DUP2 SLOAD DUP2 PUSH20 0xFFFFFFFFFFFFFFFFFFFFFFFFFFFFFFFFFFFFFFFF MUL NOT AND SWAP1 DUP4 PUSH20 0xFFFFFFFFFFFFFFFFFFFFFFFFFFFFFFFFFFFFFFFF AND MUL OR SWAP1 SSTORE POP DUP2 PUSH20 0xFFFFFFFFFFFFFFFFFFFFFFFFFFFFFFFFFFFFFFFF AND DUP2 PUSH20 0xFFFFFFFFFFFFFFFFFFFFFFFFFFFFFFFFFFFFFFFF AND PUSH32 0x8BE0079C531659141344CD1FD0A4F28419497F9722A3DAAFE3B4186F6B6457E0 PUSH1 0x40 MLOAD PUSH1 0x40 MLOAD DUP1 SWAP2 SUB SWAP1 LOG3 POP POP JUMP JUMPDEST PUSH1 0x0 PUSH1 0x40 MLOAD SWAP1 POP SWAP1 JUMP JUMPDEST PUSH1 0x0 DUP1 REVERT JUMPDEST PUSH1 0x0 DUP1 REVERT JUMPDEST PUSH1 0x0 DUP1 REVERT JUMPDEST PUSH1 0x0 PUSH1 0x1F NOT PUSH1 0x1F DUP4 ADD AND SWAP1 POP SWAP2 SWAP1 POP JUMP JUMPDEST PUSH32 0x4E487B7100000000000000000000000000000000000000000000000000000000 PUSH1 0x0 MSTORE PUSH1 0x41 PUSH1 0x4 MSTORE PUSH1 0x24 PUSH1 0x0 REVERT JUMPDEST PUSH3 0x3CF DUP3 PUSH3 0x384 JUMP JUMPDEST DUP2 ADD DUP2 DUP2 LT PUSH8 0xFFFFFFFFFFFFFFFF DUP3 GT OR ISZERO PUSH3 0x3F1 JUMPI PUSH3 0x3F0 PUSH3 0x395 JUMP JUMPDEST JUMPDEST DUP1 PUSH1 0x40 MSTORE POP POP POP JUMP JUMPDEST PUSH1 0x0 PUSH3 0x406 PUSH3 0x36B JUMP JUMPDEST SWAP1 POP PUSH3 0x414 DUP3 DUP3 PUSH3 0x3C4 JUMP JUMPDEST SWAP2 SWAP1 POP JUMP JUMPDEST PUSH1 0x0 PUSH8 0xFFFFFFFFFFFFFFFF DUP3 GT ISZERO PUSH3 0x437 JUMPI PUSH3 0x436 PUSH3 0x395 JUMP JUMPDEST JUMPDEST PUSH1 0x20 DUP3 MUL SWAP1 POP PUSH1 0x20 DUP2 ADD SWAP1 POP SWAP2 SWAP1 POP JUMP JUMPDEST PUSH1 0x0 DUP1 REVERT JUMPDEST PUSH1 0x0 PUSH20 0xFFFFFFFFFFFFFFFFFFFFFFFFFFFFFFFFFFFFFFFF DUP3 AND SWAP1 POP SWAP2 SWAP1 POP JUMP JUMPDEST PUSH1 0x0 PUSH3 0x47A DUP3 PUSH3 0x44D JUMP JUMPDEST SWAP1 POP SWAP2 SWAP1 POP JUMP JUMPDEST PUSH3 0x48C DUP2 PUSH3 0x46D JUMP JUMPDEST DUP2 EQ PUSH3 0x498 JUMPI PUSH1 0x0 DUP1 REVERT JUMPDEST POP JUMP JUMPDEST PUSH1 0x0 DUP2 MLOAD SWAP1 POP PUSH3 0x4AC DUP2 PUSH3 0x481 JUMP JUMPDEST SWAP3 SWAP2 POP POP JUMP JUMPDEST PUSH1 0x0 PUSH3 0x4C9 PUSH3 0x4C3 DUP5 PUSH3 0x419 JUMP JUMPDEST PUSH3 0x3FA JUMP JUMPDEST SWAP1 POP DUP1 DUP4 DUP3 MSTORE PUSH1 0x20 DUP3 ADD SWAP1 POP PUSH1 0x20 DUP5 MUL DUP4 ADD DUP6 DUP2 GT ISZERO PUSH3 0x4EF JUMPI PUSH3 0x4EE PUSH3 0x448 JUMP JUMPDEST JUMPDEST DUP4 JUMPDEST DUP2 DUP2 LT ISZERO PUSH3 0x51C JUMPI DUP1 PUSH3 0x507 DUP9 DUP3 PUSH3 0x49B JUMP JUMPDEST DUP5 MSTORE PUSH1 0x20 DUP5 ADD SWAP4 POP POP PUSH1 0x20 DUP2 ADD SWAP1 POP PUSH3 0x4F1 JUMP JUMPDEST POP POP POP SWAP4 SWAP3 POP POP POP JUMP JUMPDEST PUSH1 0x0 DUP3 PUSH1 0x1F DUP4 ADD SLT PUSH3 0x53E JUMPI PUSH3 0x53D PUSH3 0x37F JUMP JUMPDEST JUMPDEST DUP2 MLOAD PUSH3 0x550 DUP5 DUP3 PUSH1 0x20 DUP7 ADD PUSH3 0x4B2 JUMP JUMPDEST SWAP2 POP POP SWAP3 SWAP2 POP POP JUMP JUMPDEST PUSH1 0x0 DUP2 SWAP1 POP SWAP2 SWAP1 POP JUMP JUMPDEST PUSH3 0x56E DUP2 PUSH3 0x559 JUMP JUMPDEST DUP2 EQ PUSH3 0x57A JUMPI PUSH1 0x0 DUP1 REVERT JUMPDEST POP JUMP JUMPDEST PUSH1 0x0 DUP2 MLOAD SWAP1 POP PUSH3 0x58E DUP2 PUSH3 0x563 JUMP JUMPDEST SWAP3 SWAP2 POP POP JUMP JUMPDEST PUSH1 0x0 PUSH8 0xFFFFFFFFFFFFFFFF DUP3 GT ISZERO PUSH3 0x5B2 JUMPI PUSH3 0x5B1 PUSH3 0x395 JUMP JUMPDEST JUMPDEST PUSH1 0x20 DUP3 MUL SWAP1 POP PUSH1 0x20 DUP2 ADD SWAP1 POP SWAP2 SWAP1 POP JUMP JUMPDEST PUSH1 0x0 PUSH3 0x5DA PUSH3 0x5D4 DUP5 PUSH3 0x594 JUMP JUMPDEST PUSH3 0x3FA JUMP JUMPDEST SWAP1 POP DUP1 DUP4 DUP3 MSTORE PUSH1 0x20 DUP3 ADD SWAP1 POP PUSH1 0x20 DUP5 MUL DUP4 ADD DUP6 DUP2 GT ISZERO PUSH3 0x600 JUMPI PUSH3 0x5FF PUSH3 0x448 JUMP JUMPDEST JUMPDEST DUP4 JUMPDEST DUP2 DUP2 LT ISZERO PUSH3 0x62D JUMPI DUP1 PUSH3 0x618 DUP9 DUP3 PUSH3 0x57D JUMP JUMPDEST DUP5 MSTORE PUSH1 0x20 DUP5 ADD SWAP4 POP POP PUSH1 0x20 DUP2 ADD SWAP1 POP PUSH3 0x602 JUMP JUMPDEST POP POP POP SWAP4 SWAP3 POP POP POP JUMP JUMPDEST PUSH1 0x0 DUP3 PUSH1 0x1F DUP4 ADD SLT PUSH3 0x64F JUMPI PUSH3 0x64E PUSH3 0x37F JUMP JUMPDEST JUMPDEST DUP2 MLOAD PUSH3 0x661 DUP5 DUP3 PUSH1 0x20 DUP7 ADD PUSH3 0x5C3 JUMP JUMPDEST SWAP2 POP POP SWAP3 SWAP2 POP POP JUMP JUMPDEST PUSH1 0x0 DUP1 PUSH1 0x0 DUP1 PUSH1 0x0 DUP1 PUSH1 0xC0 DUP8 DUP10 SUB SLT ISZERO PUSH3 0x68A JUMPI PUSH3 0x689 PUSH3 0x375 JUMP JUMPDEST JUMPDEST PUSH1 0x0 DUP8 ADD MLOAD PUSH8 0xFFFFFFFFFFFFFFFF DUP2 GT ISZERO PUSH3 0x6AB JUMPI PUSH3 0x6AA PUSH3 0x37A JUMP JUMPDEST JUMPDEST PUSH3 0x6B9 DUP10 DUP3 DUP11 ADD PUSH3 0x526 JUMP JUMPDEST SWAP7 POP POP PUSH1 0x20 DUP8 ADD MLOAD PUSH8 0xFFFFFFFFFFFFFFFF DUP2 GT ISZERO PUSH3 0x6DD JUMPI PUSH3 0x6DC PUSH3 0x37A JUMP JUMPDEST JUMPDEST PUSH3 0x6EB DUP10 DUP3 DUP11 ADD PUSH3 0x526 JUMP JUMPDEST SWAP6 POP POP PUSH1 0x40 PUSH3 0x6FE DUP10 DUP3 DUP11 ADD PUSH3 0x57D JUMP JUMPDEST SWAP5 POP POP PUSH1 0x60 DUP8 ADD MLOAD PUSH8 0xFFFFFFFFFFFFFFFF DUP2 GT ISZERO PUSH3 0x722 JUMPI PUSH3 0x721 PUSH3 0x37A JUMP JUMPDEST JUMPDEST PUSH3 0x730 DUP10 DUP3 DUP11 ADD PUSH3 0x637 JUMP JUMPDEST SWAP4 POP POP PUSH1 0x80 DUP8 ADD MLOAD PUSH8 0xFFFFFFFFFFFFFFFF DUP2 GT ISZERO PUSH3 0x754 JUMPI PUSH3 0x753 PUSH3 0x37A JUMP JUMPDEST JUMPDEST PUSH3 0x762 DUP10 DUP3 DUP11 ADD PUSH3 0x637 JUMP JUMPDEST SWAP3 POP POP PUSH1 0xA0 PUSH3 0x775 DUP10 DUP3 DUP11 ADD PUSH3 0x57D JUMP JUMPDEST SWAP2 POP POP SWAP3 SWAP6 POP SWAP3 SWAP6 POP SWAP3 SWAP6 JUMP JUMPDEST PUSH1 0x0 DUP3 DUP3 MSTORE PUSH1 0x20 DUP3 ADD SWAP1 POP SWAP3 SWAP2 POP POP JUMP JUMPDEST PUSH32 0x496E76616C6964206C6F636B20706572696F6400000000000000000000000000 PUSH1 0x0 DUP3 ADD MSTORE POP JUMP JUMPDEST PUSH1 0x0 PUSH3 0x7CB PUSH1 0x13 DUP4 PUSH3 0x782 JUMP JUMPDEST SWAP2 POP PUSH3 0x7D8 DUP3 PUSH3 0x793 JUMP JUMPDEST PUSH1 0x20 DUP3 ADD SWAP1 POP SWAP2 SWAP1 POP JUMP JUMPDEST PUSH1 0x0 PUSH1 0x20 DUP3 ADD SWAP1 POP DUP2 DUP2 SUB PUSH1 0x0 DUP4 ADD MSTORE PUSH3 0x7FE DUP2 PUSH3 0x7BC JUMP JUMPDEST SWAP1 POP SWAP2 SWAP1 POP JUMP JUMPDEST PUSH32 0x4E487B7100000000000000000000000000000000000000000000000000000000 PUSH1 0x0 MSTORE PUSH1 0x32 PUSH1 0x4 MSTORE PUSH1 0x24 PUSH1 0x0 REVERT JUMPDEST PUSH32 0x4E487B7100000000000000000000000000000000000000000000000000000000 PUSH1 0x0 MSTORE PUSH1 0x11 PUSH1 0x4 MSTORE PUSH1 0x24 PUSH1 0x0 REVERT JUMPDEST PUSH1 0x0 PUSH3 0x870 DUP3 PUSH3 0x559 JUMP JUMPDEST SWAP2 POP PUSH32 0xFFFFFFFFFFFFFFFFFFFFFFFFFFFFFFFFFFFFFFFFFFFFFFFFFFFFFFFFFFFFFFFF DUP3 SUB PUSH3 0x8A5 JUMPI PUSH3 0x8A4 PUSH3 0x834 JUMP JUMPDEST JUMPDEST PUSH1 0x1 DUP3 ADD SWAP1 POP SWAP2 SWAP1 POP JUMP JUMPDEST PUSH2 0x230B DUP1 PUSH3 0x8C0 PUSH1 0x0 CODECOPY PUSH1 0x0 RETURN INVALID PUSH1 0x80 PUSH1 0x40 MSTORE CALLVALUE DUP1 ISZERO PUSH2 0x10 JUMPI PUSH1 0x0 DUP1 REVERT JUMPDEST POP PUSH1 0x4 CALLDATASIZE LT PUSH2 0xB4 JUMPI PUSH1 0x0 CALLDATALOAD PUSH1 0xE0 SHR DUP1 PUSH4 0x715018A6 GT PUSH2 0x71 JUMPI DUP1 PUSH4 0x715018A6 EQ PUSH2 0x1A3 JUMPI DUP1 PUSH4 0x779972DA EQ PUSH2 0x1AD JUMPI DUP1 PUSH4 0x8DA5CB5B EQ PUSH2 0x1C9 JUMPI DUP1 PUSH4 0x9F3625F0 EQ PUSH2 0x1E7 JUMPI DUP1 PUSH4 0xC69D1923 EQ PUSH2 0x203 JUMPI DUP1 PUSH4 0xF2FDE38B EQ PUSH2 0x221 JUMPI PUSH2 0xB4 JUMP JUMPDEST DUP1 PUSH4 0x520537F EQ PUSH2 0xB9 JUMPI DUP1 PUSH4 0x1902732E EQ PUSH2 0xD5 JUMPI DUP1 PUSH4 0x1CAAA487 EQ PUSH2 0xF1 JUMPI DUP1 PUSH4 0x20281A98 EQ PUSH2 0x121 JUMPI DUP1 PUSH4 0x3FD8B02F EQ PUSH2 0x151 JUMPI DUP1 PUSH4 0x5B1A4C24 EQ PUSH2 0x16F JUMPI JUMPDEST PUSH1 0x0 DUP1 REVERT JUMPDEST PUSH2 0xD3 PUSH1 0x4 DUP1 CALLDATASIZE SUB DUP2 ADD SWAP1 PUSH2 0xCE SWAP2 SWAP1 PUSH2 0x1816 JUMP JUMPDEST PUSH2 0x23D JUMP JUMPDEST STOP JUMPDEST PUSH2 0xEF PUSH1 0x4 DUP1 CALLDATASIZE SUB DUP2 ADD SWAP1 PUSH2 0xEA SWAP2 SWAP1 PUSH2 0x1816 JUMP JUMPDEST PUSH2 0x73E JUMP JUMPDEST STOP JUMPDEST PUSH2 0x10B PUSH1 0x4 DUP1 CALLDATASIZE SUB DUP2 ADD SWAP1 PUSH2 0x106 SWAP2 SWAP1 PUSH2 0x18AC JUMP JUMPDEST PUSH2 0xBEC JUMP JUMPDEST PUSH1 0x40 MLOAD PUSH2 0x118 SWAP2 SWAP1 PUSH2 0x18E8 JUMP JUMPDEST PUSH1 0x40 MLOAD DUP1 SWAP2 SUB SWAP1 RETURN JUMPDEST PUSH2 0x13B PUSH1 0x4 DUP1 CALLDATASIZE SUB DUP2 ADD SWAP1 PUSH2 0x136 SWAP2 SWAP1 PUSH2 0x18AC JUMP JUMPDEST PUSH2 0xC1F JUMP JUMPDEST PUSH1 0x40 MLOAD PUSH2 0x148 SWAP2 SWAP1 PUSH2 0x1912 JUMP JUMPDEST PUSH1 0x40 MLOAD DUP1 SWAP2 SUB SWAP1 RETURN JUMPDEST PUSH2 0x159 PUSH2 0xC3F JUMP JUMPDEST PUSH1 0x40 MLOAD PUSH2 0x166 SWAP2 SWAP1 PUSH2 0x1912 JUMP JUMPDEST PUSH1 0x40 MLOAD DUP1 SWAP2 SUB SWAP1 RETURN JUMPDEST PUSH2 0x189 PUSH1 0x4 DUP1 CALLDATASIZE SUB DUP2 ADD SWAP1 PUSH2 0x184 SWAP2 SWAP1 PUSH2 0x18AC JUMP JUMPDEST PUSH2 0xC45 JUMP JUMPDEST PUSH1 0x40 MLOAD PUSH2 0x19A SWAP6 SWAP5 SWAP4 SWAP3 SWAP2 SWAP1 PUSH2 0x19A7 JUMP JUMPDEST PUSH1 0x40 MLOAD DUP1 SWAP2 SUB SWAP1 RETURN JUMPDEST PUSH2 0x1AB PUSH2 0xCC8 JUMP JUMPDEST STOP JUMPDEST PUSH2 0x1C7 PUSH1 0x4 DUP1 CALLDATASIZE SUB DUP2 ADD SWAP1 PUSH2 0x1C2 SWAP2 SWAP1 PUSH2 0x18AC JUMP JUMPDEST PUSH2 0xCDC JUMP JUMPDEST STOP JUMPDEST PUSH2 0x1D1 PUSH2 0xD68 JUMP JUMPDEST PUSH1 0x40 MLOAD PUSH2 0x1DE SWAP2 SWAP1 PUSH2 0x18E8 JUMP JUMPDEST PUSH1 0x40 MLOAD DUP1 SWAP2 SUB SWAP1 RETURN JUMPDEST PUSH2 0x201 PUSH1 0x4 DUP1 CALLDATASIZE SUB DUP2 ADD SWAP1 PUSH2 0x1FC SWAP2 SWAP1 PUSH2 0x1816 JUMP JUMPDEST PUSH2 0xD91 JUMP JUMPDEST STOP JUMPDEST PUSH2 0x20B PUSH2 0x13A0 JUMP JUMPDEST PUSH1 0x40 MLOAD PUSH2 0x218 SWAP2 SWAP1 PUSH2 0x1912 JUMP JUMPDEST PUSH1 0x40 MLOAD DUP1 SWAP2 SUB SWAP1 RETURN JUMPDEST PUSH2 0x23B PUSH1 0x4 DUP1 CALLDATASIZE SUB DUP2 ADD SWAP1 PUSH2 0x236 SWAP2 SWAP1 PUSH2 0x1A26 JUMP JUMPDEST PUSH2 0x13A6 JUMP JUMPDEST STOP JUMPDEST PUSH2 0x25C CALLER PUSH20 0xFFFFFFFFFFFFFFFFFFFFFFFFFFFFFFFFFFFFFFFF AND PUSH2 0x1429 JUMP JUMPDEST ISZERO PUSH2 0x29C JUMPI PUSH1 0x40 MLOAD PUSH32 0x8C379A000000000000000000000000000000000000000000000000000000000 DUP2 MSTORE PUSH1 0x4 ADD PUSH2 0x293 SWAP1 PUSH2 0x1AB0 JUMP JUMPDEST PUSH1 0x40 MLOAD DUP1 SWAP2 SUB SWAP1 REVERT JUMPDEST ORIGIN PUSH20 0xFFFFFFFFFFFFFFFFFFFFFFFFFFFFFFFFFFFFFFFF AND CALLER PUSH20 0xFFFFFFFFFFFFFFFFFFFFFFFFFFFFFFFFFFFFFFFF AND EQ PUSH2 0x30A JUMPI PUSH1 0x40 MLOAD PUSH32 0x8C379A000000000000000000000000000000000000000000000000000000000 DUP2 MSTORE PUSH1 0x4 ADD PUSH2 0x301 SWAP1 PUSH2 0x1B1C JUMP JUMPDEST PUSH1 0x40 MLOAD DUP1 SWAP2 SUB SWAP1 REVERT JUMPDEST PUSH1 0x0 DUP4 DUP4 SWAP1 POP GT PUSH2 0x350 JUMPI PUSH1 0x40 MLOAD PUSH32 0x8C379A000000000000000000000000000000000000000000000000000000000 DUP2 MSTORE PUSH1 0x4 ADD PUSH2 0x347 SWAP1 PUSH2 0x1B88 JUMP JUMPDEST PUSH1 0x40 MLOAD DUP1 SWAP2 SUB SWAP1 REVERT JUMPDEST PUSH1 0x0 DUP1 PUSH1 0x0 SWAP1 POP JUMPDEST DUP5 DUP5 SWAP1 POP DUP2 LT ISZERO PUSH2 0x6E5 JUMPI PUSH1 0x0 PUSH1 0x3 PUSH1 0x0 DUP8 DUP8 DUP6 DUP2 DUP2 LT PUSH2 0x37C JUMPI PUSH2 0x37B PUSH2 0x1BA8 JUMP JUMPDEST JUMPDEST SWAP1 POP PUSH1 0x20 MUL ADD CALLDATALOAD DUP2 MSTORE PUSH1 0x20 ADD SWAP1 DUP2 MSTORE PUSH1 0x20 ADD PUSH1 0x0 KECCAK256 PUSH1 0x40 MLOAD DUP1 PUSH1 0xA0 ADD PUSH1 0x40 MSTORE SWAP1 DUP2 PUSH1 0x0 DUP3 ADD PUSH1 0x0 SWAP1 SLOAD SWAP1 PUSH2 0x100 EXP SWAP1 DIV PUSH20 0xFFFFFFFFFFFFFFFFFFFFFFFFFFFFFFFFFFFFFFFF AND PUSH20 0xFFFFFFFFFFFFFFFFFFFFFFFFFFFFFFFFFFFFFFFF AND PUSH20 0xFFFFFFFFFFFFFFFFFFFFFFFFFFFFFFFFFFFFFFFF AND DUP2 MSTORE PUSH1 0x20 ADD PUSH1 0x1 DUP3 ADD SLOAD DUP2 MSTORE PUSH1 0x20 ADD PUSH1 0x2 DUP3 ADD SLOAD DUP2 MSTORE PUSH1 0x20 ADD PUSH1 0x3 DUP3 ADD PUSH1 0x0 SWAP1 SLOAD SWAP1 PUSH2 0x100 EXP SWAP1 DIV PUSH1 0xFF AND ISZERO ISZERO ISZERO ISZERO DUP2 MSTORE PUSH1 0x20 ADD PUSH1 0x3 DUP3 ADD PUSH1 0x1 SWAP1 SLOAD SWAP1 PUSH2 0x100 EXP SWAP1 DIV PUSH20 0xFFFFFFFFFFFFFFFFFFFFFFFFFFFFFFFFFFFFFFFF AND PUSH20 0xFFFFFFFFFFFFFFFFFFFFFFFFFFFFFFFFFFFFFFFF AND PUSH20 0xFFFFFFFFFFFFFFFFFFFFFFFFFFFFFFFFFFFFFFFF AND DUP2 MSTORE POP POP SWAP1 POP CALLER PUSH20 0xFFFFFFFFFFFFFFFFFFFFFFFFFFFFFFFFFFFFFFFF AND DUP2 PUSH1 0x0 ADD MLOAD PUSH20 0xFFFFFFFFFFFFFFFFFFFFFFFFFFFFFFFFFFFFFFFF AND EQ PUSH2 0x4EB JUMPI PUSH1 0x40 MLOAD PUSH32 0x8C379A000000000000000000000000000000000000000000000000000000000 DUP2 MSTORE PUSH1 0x4 ADD PUSH2 0x4E2 SWAP1 PUSH2 0x1C23 JUMP JUMPDEST PUSH1 0x40 MLOAD DUP1 SWAP2 SUB SWAP1 REVERT JUMPDEST TIMESTAMP PUSH1 0x2 SLOAD DUP3 PUSH1 0x20 ADD MLOAD PUSH2 0x4FE SWAP2 SWAP1 PUSH2 0x1C72 JUMP JUMPDEST LT PUSH2 0x53E JUMPI PUSH1 0x40 MLOAD PUSH32 0x8C379A000000000000000000000000000000000000000000000000000000000 DUP2 MSTORE PUSH1 0x4 ADD PUSH2 0x535 SWAP1 PUSH2 0x1CF2 JUMP JUMPDEST PUSH1 0x40 MLOAD DUP1 SWAP2 SUB SWAP1 REVERT JUMPDEST DUP1 PUSH1 0x60 ADD MLOAD ISZERO PUSH2 0x583 JUMPI PUSH1 0x40 MLOAD PUSH32 0x8C379A000000000000000000000000000000000000000000000000000000000 DUP2 MSTORE PUSH1 0x4 ADD PUSH2 0x57A SWAP1 PUSH2 0x1D5E JUMP JUMPDEST PUSH1 0x40 MLOAD DUP1 SWAP2 SUB SWAP1 REVERT JUMPDEST PUSH1 0x0 PUSH2 0x5A8 DUP8 DUP8 DUP6 DUP2 DUP2 LT PUSH2 0x59B JUMPI PUSH2 0x59A PUSH2 0x1BA8 JUMP JUMPDEST JUMPDEST SWAP1 POP PUSH1 0x20 MUL ADD CALLDATALOAD DUP7 PUSH2 0x144C JUMP JUMPDEST SWAP1 POP PUSH1 0x0 DUP3 PUSH1 0x40 ADD MLOAD DUP3 PUSH2 0x5BC SWAP2 SWAP1 PUSH2 0x1D7E JUMP JUMPDEST SWAP1 POP PUSH1 0x4 PUSH1 0x0 DUP8 PUSH20 0xFFFFFFFFFFFFFFFFFFFFFFFFFFFFFFFFFFFFFFFF AND PUSH20 0xFFFFFFFFFFFFFFFFFFFFFFFFFFFFFFFFFFFFFFFF AND DUP2 MSTORE PUSH1 0x20 ADD SWAP1 DUP2 MSTORE PUSH1 0x20 ADD PUSH1 0x0 KECCAK256 PUSH1 0x0 ADD PUSH1 0x0 SWAP1 SLOAD SWAP1 PUSH2 0x100 EXP SWAP1 DIV PUSH20 0xFFFFFFFFFFFFFFFFFFFFFFFFFFFFFFFFFFFFFFFF AND PUSH20 0xFFFFFFFFFFFFFFFFFFFFFFFFFFFFFFFFFFFFFFFF AND PUSH4 0x40C10F19 CALLER DUP4 PUSH1 0x40 MLOAD DUP4 PUSH4 0xFFFFFFFF AND PUSH1 0xE0 SHL DUP2 MSTORE PUSH1 0x4 ADD PUSH2 0x65B SWAP3 SWAP2 SWAP1 PUSH2 0x1DB2 JUMP JUMPDEST PUSH1 0x0 PUSH1 0x40 MLOAD DUP1 DUP4 SUB DUP2 PUSH1 0x0 DUP8 DUP1 EXTCODESIZE ISZERO DUP1 ISZERO PUSH2 0x675 JUMPI PUSH1 0x0 DUP1 REVERT JUMPDEST POP GAS CALL ISZERO DUP1 ISZERO PUSH2 0x689 JUMPI RETURNDATASIZE PUSH1 0x0 DUP1 RETURNDATACOPY RETURNDATASIZE PUSH1 0x0 REVERT JUMPDEST POP POP POP POP DUP1 DUP6 PUSH2 0x699 SWAP2 SWAP1 PUSH2 0x1C72 JUMP JUMPDEST SWAP5 POP DUP2 PUSH1 0x3 PUSH1 0x0 DUP11 DUP11 DUP9 DUP2 DUP2 LT PUSH2 0x6B3 JUMPI PUSH2 0x6B2 PUSH2 0x1BA8 JUMP JUMPDEST JUMPDEST SWAP1 POP PUSH1 0x20 MUL ADD CALLDATALOAD DUP2 MSTORE PUSH1 0x20 ADD SWAP1 DUP2 MSTORE PUSH1 0x20 ADD PUSH1 0x0 KECCAK256 PUSH1 0x2 ADD DUP2 SWAP1 SSTORE POP POP POP POP DUP1 DUP1 PUSH2 0x6DD SWAP1 PUSH2 0x1DDB JUMP JUMPDEST SWAP2 POP POP PUSH2 0x358 JUMP JUMPDEST POP CALLER PUSH20 0xFFFFFFFFFFFFFFFFFFFFFFFFFFFFFFFFFFFFFFFF AND PUSH32 0x37826BE3C26DBAD83731F4B985F22FA9EF86B6D1974CD77208332B7F1F283C0C DUP6 DUP6 DUP5 PUSH1 0x40 MLOAD PUSH2 0x730 SWAP4 SWAP3 SWAP2 SWAP1 PUSH2 0x1E9E JUMP JUMPDEST PUSH1 0x40 MLOAD DUP1 SWAP2 SUB SWAP1 LOG2 POP POP POP POP JUMP JUMPDEST PUSH2 0x75D CALLER PUSH20 0xFFFFFFFFFFFFFFFFFFFFFFFFFFFFFFFFFFFFFFFF AND PUSH2 0x1429 JUMP JUMPDEST ISZERO PUSH2 0x79D JUMPI PUSH1 0x40 MLOAD PUSH32 0x8C379A000000000000000000000000000000000000000000000000000000000 DUP2 MSTORE PUSH1 0x4 ADD PUSH2 0x794 SWAP1 PUSH2 0x1AB0 JUMP JUMPDEST PUSH1 0x40 MLOAD DUP1 SWAP2 SUB SWAP1 REVERT JUMPDEST ORIGIN PUSH20 0xFFFFFFFFFFFFFFFFFFFFFFFFFFFFFFFFFFFFFFFF AND CALLER PUSH20 0xFFFFFFFFFFFFFFFFFFFFFFFFFFFFFFFFFFFFFFFF AND EQ PUSH2 0x80B JUMPI PUSH1 0x40 MLOAD PUSH32 0x8C379A000000000000000000000000000000000000000000000000000000000 DUP2 MSTORE PUSH1 0x4 ADD PUSH2 0x802 SWAP1 PUSH2 0x1B1C JUMP JUMPDEST PUSH1 0x40 MLOAD DUP1 SWAP2 SUB SWAP1 REVERT JUMPDEST PUSH1 0x2 PUSH1 0x1 SLOAD SUB PUSH2 0x850 JUMPI PUSH1 0x40 MLOAD PUSH32 0x8C379A000000000000000000000000000000000000000000000000000000000 DUP2 MSTORE PUSH1 0x4 ADD PUSH2 0x847 SWAP1 PUSH2 0x1F1C JUMP JUMPDEST PUSH1 0x40 MLOAD DUP1 SWAP2 SUB SWAP1 REVERT JUMPDEST PUSH1 0x2 PUSH1 0x1 DUP2 SWAP1 SSTORE POP PUSH1 0x0 DUP4 DUP4 SWAP1 POP GT PUSH2 0x89E JUMPI PUSH1 0x40 MLOAD PUSH32 0x8C379A000000000000000000000000000000000000000000000000000000000 DUP2 MSTORE PUSH1 0x4 ADD PUSH2 0x895 SWAP1 PUSH2 0x1B88 JUMP JUMPDEST PUSH1 0x40 MLOAD DUP1 SWAP2 SUB SWAP1 REVERT JUMPDEST PUSH1 0x0 JUMPDEST DUP4 DUP4 SWAP1 POP DUP2 LT ISZERO PUSH2 0xB8F JUMPI CALLER PUSH20 0xFFFFFFFFFFFFFFFFFFFFFFFFFFFFFFFFFFFFFFFF AND DUP3 PUSH20 0xFFFFFFFFFFFFFFFFFFFFFFFFFFFFFFFFFFFFFFFF AND PUSH4 0x6352211E DUP7 DUP7 DUP6 DUP2 DUP2 LT PUSH2 0x8F2 JUMPI PUSH2 0x8F1 PUSH2 0x1BA8 JUMP JUMPDEST JUMPDEST SWAP1 POP PUSH1 0x20 MUL ADD CALLDATALOAD PUSH1 0x40 MLOAD DUP3 PUSH4 0xFFFFFFFF AND PUSH1 0xE0 SHL DUP2 MSTORE PUSH1 0x4 ADD PUSH2 0x915 SWAP2 SWAP1 PUSH2 0x1912 JUMP JUMPDEST PUSH1 0x20 PUSH1 0x40 MLOAD DUP1 DUP4 SUB DUP2 DUP7 GAS STATICCALL ISZERO DUP1 ISZERO PUSH2 0x932 JUMPI RETURNDATASIZE PUSH1 0x0 DUP1 RETURNDATACOPY RETURNDATASIZE PUSH1 0x0 REVERT JUMPDEST POP POP POP POP PUSH1 0x40 MLOAD RETURNDATASIZE PUSH1 0x1F NOT PUSH1 0x1F DUP3 ADD AND DUP3 ADD DUP1 PUSH1 0x40 MSTORE POP DUP2 ADD SWAP1 PUSH2 0x956 SWAP2 SWAP1 PUSH2 0x1F51 JUMP JUMPDEST PUSH20 0xFFFFFFFFFFFFFFFFFFFFFFFFFFFFFFFFFFFFFFFF AND EQ PUSH2 0x9AC JUMPI PUSH1 0x40 MLOAD PUSH32 0x8C379A000000000000000000000000000000000000000000000000000000000 DUP2 MSTORE PUSH1 0x4 ADD PUSH2 0x9A3 SWAP1 PUSH2 0x1FCA JUMP JUMPDEST PUSH1 0x40 MLOAD DUP1 SWAP2 SUB SWAP1 REVERT JUMPDEST DUP2 PUSH20 0xFFFFFFFFFFFFFFFFFFFFFFFFFFFFFFFFFFFFFFFF AND PUSH4 0x23B872DD CALLER ADDRESS DUP8 DUP8 DUP7 DUP2 DUP2 LT PUSH2 0x9DD JUMPI PUSH2 0x9DC PUSH2 0x1BA8 JUMP JUMPDEST JUMPDEST SWAP1 POP PUSH1 0x20 MUL ADD CALLDATALOAD PUSH1 0x40 MLOAD DUP5 PUSH4 0xFFFFFFFF AND PUSH1 0xE0 SHL DUP2 MSTORE PUSH1 0x4 ADD PUSH2 0xA02 SWAP4 SWAP3 SWAP2 SWAP1 PUSH2 0x1FEA JUMP JUMPDEST PUSH1 0x0 PUSH1 0x40 MLOAD DUP1 DUP4 SUB DUP2 PUSH1 0x0 DUP8 DUP1 EXTCODESIZE ISZERO DUP1 ISZERO PUSH2 0xA1C JUMPI PUSH1 0x0 DUP1 REVERT JUMPDEST POP GAS CALL ISZERO DUP1 ISZERO PUSH2 0xA30 JUMPI RETURNDATASIZE PUSH1 0x0 DUP1 RETURNDATACOPY RETURNDATASIZE PUSH1 0x0 REVERT JUMPDEST POP POP POP POP PUSH1 0x40 MLOAD DUP1 PUSH1 0xA0 ADD PUSH1 0x40 MSTORE DUP1 CALLER PUSH20 0xFFFFFFFFFFFFFFFFFFFFFFFFFFFFFFFFFFFFFFFF AND DUP2 MSTORE PUSH1 0x20 ADD TIMESTAMP DUP2 MSTORE PUSH1 0x20 ADD PUSH1 0x0 DUP2 MSTORE PUSH1 0x20 ADD PUSH1 0x0 ISZERO ISZERO DUP2 MSTORE PUSH1 0x20 ADD DUP4 PUSH20 0xFFFFFFFFFFFFFFFFFFFFFFFFFFFFFFFFFFFFFFFF AND DUP2 MSTORE POP PUSH1 0x3 PUSH1 0x0 DUP7 DUP7 DUP6 DUP2 DUP2 LT PUSH2 0xAA2 JUMPI PUSH2 0xAA1 PUSH2 0x1BA8 JUMP JUMPDEST JUMPDEST SWAP1 POP PUSH1 0x20 MUL ADD CALLDATALOAD DUP2 MSTORE PUSH1 0x20 ADD SWAP1 DUP2 MSTORE PUSH1 0x20 ADD PUSH1 0x0 KECCAK256 PUSH1 0x0 DUP3 ADD MLOAD DUP2 PUSH1 0x0 ADD PUSH1 0x0 PUSH2 0x100 EXP DUP2 SLOAD DUP2 PUSH20 0xFFFFFFFFFFFFFFFFFFFFFFFFFFFFFFFFFFFFFFFF MUL NOT AND SWAP1 DUP4 PUSH20 0xFFFFFFFFFFFFFFFFFFFFFFFFFFFFFFFFFFFFFFFF AND MUL OR SWAP1 SSTORE POP PUSH1 0x20 DUP3 ADD MLOAD DUP2 PUSH1 0x1 ADD SSTORE PUSH1 0x40 DUP3 ADD MLOAD DUP2 PUSH1 0x2 ADD SSTORE PUSH1 0x60 DUP3 ADD MLOAD DUP2 PUSH1 0x3 ADD PUSH1 0x0 PUSH2 0x100 EXP DUP2 SLOAD DUP2 PUSH1 0xFF MUL NOT AND SWAP1 DUP4 ISZERO ISZERO MUL OR SWAP1 SSTORE POP PUSH1 0x80 DUP3 ADD MLOAD DUP2 PUSH1 0x3 ADD PUSH1 0x1 PUSH2 0x100 EXP DUP2 SLOAD DUP2 PUSH20 0xFFFFFFFFFFFFFFFFFFFFFFFFFFFFFFFFFFFFFFFF MUL NOT AND SWAP1 DUP4 PUSH20 0xFFFFFFFFFFFFFFFFFFFFFFFFFFFFFFFFFFFFFFFF AND MUL OR SWAP1 SSTORE POP SWAP1 POP POP DUP1 DUP1 PUSH2 0xB87 SWAP1 PUSH2 0x1DDB JUMP JUMPDEST SWAP2 POP POP PUSH2 0x8A1 JUMP JUMPDEST POP CALLER PUSH20 0xFFFFFFFFFFFFFFFFFFFFFFFFFFFFFFFFFFFFFFFF AND PUSH32 0x458BE0227BCCC9E803DEC79BD16767EEAF9925D2CE708EEED7AE1F3621F968F9 DUP5 DUP5 PUSH1 0x40 MLOAD PUSH2 0xBD8 SWAP3 SWAP2 SWAP1 PUSH2 0x2021 JUMP JUMPDEST PUSH1 0x40 MLOAD DUP1 SWAP2 SUB SWAP1 LOG2 PUSH1 0x1 DUP1 DUP2 SWAP1 SSTORE POP POP POP POP JUMP JUMPDEST PUSH1 0x5 PUSH1 0x20 MSTORE DUP1 PUSH1 0x0 MSTORE PUSH1 0x40 PUSH1 0x0 KECCAK256 PUSH1 0x0 SWAP2 POP SLOAD SWAP1 PUSH2 0x100 EXP SWAP1 DIV PUSH20 0xFFFFFFFFFFFFFFFFFFFFFFFFFFFFFFFFFFFFFFFF AND DUP2 JUMP JUMPDEST PUSH1 0x0 PUSH1 0x3 PUSH1 0x0 DUP4 DUP2 MSTORE PUSH1 0x20 ADD SWAP1 DUP2 MSTORE PUSH1 0x20 ADD PUSH1 0x0 KECCAK256 PUSH1 0x2 ADD SLOAD SWAP1 POP SWAP2 SWAP1 POP JUMP JUMPDEST PUSH1 0x2 SLOAD DUP2 JUMP JUMPDEST PUSH1 0x3 PUSH1 0x20 MSTORE DUP1 PUSH1 0x0 MSTORE PUSH1 0x40 PUSH1 0x0 KECCAK256 PUSH1 0x0 SWAP2 POP SWAP1 POP DUP1 PUSH1 0x0 ADD PUSH1 0x0 SWAP1 SLOAD SWAP1 PUSH2 0x100 EXP SWAP1 DIV PUSH20 0xFFFFFFFFFFFFFFFFFFFFFFFFFFFFFFFFFFFFFFFF AND SWAP1 DUP1 PUSH1 0x1 ADD SLOAD SWAP1 DUP1 PUSH1 0x2 ADD SLOAD SWAP1 DUP1 PUSH1 0x3 ADD PUSH1 0x0 SWAP1 SLOAD SWAP1 PUSH2 0x100 EXP SWAP1 DIV PUSH1 0xFF AND SWAP1 DUP1 PUSH1 0x3 ADD PUSH1 0x1 SWAP1 SLOAD SWAP1 PUSH2 0x100 EXP SWAP1 DIV PUSH20 0xFFFFFFFFFFFFFFFFFFFFFFFFFFFFFFFFFFFFFFFF AND SWAP1 POP DUP6 JUMP JUMPDEST PUSH2 0xCD0 PUSH2 0x15ED JUMP JUMPDEST PUSH2 0xCDA PUSH1 0x0 PUSH2 0x166B JUMP JUMPDEST JUMP JUMPDEST PUSH2 0xCE4 PUSH2 0x15ED JUMP JUMPDEST PUSH1 0x0 DUP2 GT PUSH2 0xD27 JUMPI PUSH1 0x40 MLOAD PUSH32 0x8C379A000000000000000000000000000000000000000000000000000000000 DUP2 MSTORE PUSH1 0x4 ADD PUSH2 0xD1E SWAP1 PUSH2 0x2091 JUMP JUMPDEST PUSH1 0x40 MLOAD DUP1 SWAP2 SUB SWAP1 REVERT JUMPDEST DUP1 PUSH1 0x2 DUP2 SWAP1 SSTORE POP PUSH32 0x8249EC545E68F6F1E1230133CA48C704D831A7F8E635DED80F3DD9E99B09BB2F DUP2 PUSH1 0x40 MLOAD PUSH2 0xD5D SWAP2 SWAP1 PUSH2 0x1912 JUMP JUMPDEST PUSH1 0x40 MLOAD DUP1 SWAP2 SUB SWAP1 LOG1 POP JUMP JUMPDEST PUSH1 0x0 DUP1 PUSH1 0x0 SWAP1 SLOAD SWAP1 PUSH2 0x100 EXP SWAP1 DIV PUSH20 0xFFFFFFFFFFFFFFFFFFFFFFFFFFFFFFFFFFFFFFFF AND SWAP1 POP SWAP1 JUMP JUMPDEST PUSH2 0xDB0 CALLER PUSH20 0xFFFFFFFFFFFFFFFFFFFFFFFFFFFFFFFFFFFFFFFF AND PUSH2 0x1429 JUMP JUMPDEST ISZERO PUSH2 0xDF0 JUMPI PUSH1 0x40 MLOAD PUSH32 0x8C379A000000000000000000000000000000000000000000000000000000000 DUP2 MSTORE PUSH1 0x4 ADD PUSH2 0xDE7 SWAP1 PUSH2 0x1AB0 JUMP JUMPDEST PUSH1 0x40 MLOAD DUP1 SWAP2 SUB SWAP1 REVERT JUMPDEST ORIGIN PUSH20 0xFFFFFFFFFFFFFFFFFFFFFFFFFFFFFFFFFFFFFFFF AND CALLER PUSH20 0xFFFFFFFFFFFFFFFFFFFFFFFFFFFFFFFFFFFFFFFF AND EQ PUSH2 0xE5E JUMPI PUSH1 0x40 MLOAD PUSH32 0x8C379A000000000000000000000000000000000000000000000000000000000 DUP2 MSTORE PUSH1 0x4 ADD PUSH2 0xE55 SWAP1 PUSH2 0x1B1C JUMP JUMPDEST PUSH1 0x40 MLOAD DUP1 SWAP2 SUB SWAP1 REVERT JUMPDEST PUSH1 0x2 PUSH1 0x1 SLOAD SUB PUSH2 0xEA3 JUMPI PUSH1 0x40 MLOAD PUSH32 0x8C379A000000000000000000000000000000000000000000000000000000000 DUP2 MSTORE PUSH1 0x4 ADD PUSH2 0xE9A SWAP1 PUSH2 0x1F1C JUMP JUMPDEST PUSH1 0x40 MLOAD DUP1 SWAP2 SUB SWAP1 REVERT JUMPDEST PUSH1 0x2 PUSH1 0x1 DUP2 SWAP1 SSTORE POP PUSH1 0x0 DUP4 DUP4 SWAP1 POP GT PUSH2 0xEF1 JUMPI PUSH1 0x40 MLOAD PUSH32 0x8C379A000000000000000000000000000000000000000000000000000000000 DUP2 MSTORE PUSH1 0x4 ADD PUSH2 0xEE8 SWAP1 PUSH2 0x1B88 JUMP JUMPDEST PUSH1 0x40 MLOAD DUP1 SWAP2 SUB SWAP1 REVERT JUMPDEST PUSH1 0x0 JUMPDEST DUP4 DUP4 SWAP1 POP DUP2 LT ISZERO PUSH2 0x1343 JUMPI PUSH1 0x0 PUSH1 0x3 PUSH1 0x0 DUP7 DUP7 DUP6 DUP2 DUP2 LT PUSH2 0xF18 JUMPI PUSH2 0xF17 PUSH2 0x1BA8 JUMP JUMPDEST JUMPDEST SWAP1 POP PUSH1 0x20 MUL ADD CALLDATALOAD DUP2 MSTORE PUSH1 0x20 ADD SWAP1 DUP2 MSTORE PUSH1 0x20 ADD PUSH1 0x0 KECCAK256 PUSH1 0x40 MLOAD DUP1 PUSH1 0xA0 ADD PUSH1 0x40 MSTORE SWAP1 DUP2 PUSH1 0x0 DUP3 ADD PUSH1 0x0 SWAP1 SLOAD SWAP1 PUSH2 0x100 EXP SWAP1 DIV PUSH20 0xFFFFFFFFFFFFFFFFFFFFFFFFFFFFFFFFFFFFFFFF AND PUSH20 0xFFFFFFFFFFFFFFFFFFFFFFFFFFFFFFFFFFFFFFFF AND PUSH20 0xFFFFFFFFFFFFFFFFFFFFFFFFFFFFFFFFFFFFFFFF AND DUP2 MSTORE PUSH1 0x20 ADD PUSH1 0x1 DUP3 ADD SLOAD DUP2 MSTORE PUSH1 0x20 ADD PUSH1 0x2 DUP3 ADD SLOAD DUP2 MSTORE PUSH1 0x20 ADD PUSH1 0x3 DUP3 ADD PUSH1 0x0 SWAP1 SLOAD SWAP1 PUSH2 0x100 EXP SWAP1 DIV PUSH1 0xFF AND ISZERO ISZERO ISZERO ISZERO DUP2 MSTORE PUSH1 0x20 ADD PUSH1 0x3 DUP3 ADD PUSH1 0x1 SWAP1 SLOAD SWAP1 PUSH2 0x100 EXP SWAP1 DIV PUSH20 0xFFFFFFFFFFFFFFFFFFFFFFFFFFFFFFFFFFFFFFFF AND PUSH20 0xFFFFFFFFFFFFFFFFFFFFFFFFFFFFFFFFFFFFFFFF AND PUSH20 0xFFFFFFFFFFFFFFFFFFFFFFFFFFFFFFFFFFFFFFFF AND DUP2 MSTORE POP POP SWAP1 POP CALLER PUSH20 0xFFFFFFFFFFFFFFFFFFFFFFFFFFFFFFFFFFFFFFFF AND DUP2 PUSH1 0x0 ADD MLOAD PUSH20 0xFFFFFFFFFFFFFFFFFFFFFFFFFFFFFFFFFFFFFFFF AND EQ PUSH2 0x1087 JUMPI PUSH1 0x40 MLOAD PUSH32 0x8C379A000000000000000000000000000000000000000000000000000000000 DUP2 MSTORE PUSH1 0x4 ADD PUSH2 0x107E SWAP1 PUSH2 0x1C23 JUMP JUMPDEST PUSH1 0x40 MLOAD DUP1 SWAP2 SUB SWAP1 REVERT JUMPDEST TIMESTAMP PUSH1 0x2 SLOAD DUP3 PUSH1 0x20 ADD MLOAD PUSH2 0x109A SWAP2 SWAP1 PUSH2 0x1C72 JUMP JUMPDEST LT PUSH2 0x10DA JUMPI PUSH1 0x40 MLOAD PUSH32 0x8C379A000000000000000000000000000000000000000000000000000000000 DUP2 MSTORE PUSH1 0x4 ADD PUSH2 0x10D1 SWAP1 PUSH2 0x20FD JUMP JUMPDEST PUSH1 0x40 MLOAD DUP1 SWAP2 SUB SWAP1 REVERT JUMPDEST DUP1 PUSH1 0x60 ADD MLOAD ISZERO PUSH2 0x111F JUMPI PUSH1 0x40 MLOAD PUSH32 0x8C379A000000000000000000000000000000000000000000000000000000000 DUP2 MSTORE PUSH1 0x4 ADD PUSH2 0x1116 SWAP1 PUSH2 0x1D5E JUMP JUMPDEST PUSH1 0x40 MLOAD DUP1 SWAP2 SUB SWAP1 REVERT JUMPDEST DUP3 PUSH20 0xFFFFFFFFFFFFFFFFFFFFFFFFFFFFFFFFFFFFFFFF AND PUSH4 0x23B872DD ADDRESS CALLER DUP9 DUP9 DUP8 DUP2 DUP2 LT PUSH2 0x1150 JUMPI PUSH2 0x114F PUSH2 0x1BA8 JUMP JUMPDEST JUMPDEST SWAP1 POP PUSH1 0x20 MUL ADD CALLDATALOAD PUSH1 0x40 MLOAD DUP5 PUSH4 0xFFFFFFFF AND PUSH1 0xE0 SHL DUP2 MSTORE PUSH1 0x4 ADD PUSH2 0x1175 SWAP4 SWAP3 SWAP2 SWAP1 PUSH2 0x1FEA JUMP JUMPDEST PUSH1 0x0 PUSH1 0x40 MLOAD DUP1 DUP4 SUB DUP2 PUSH1 0x0 DUP8 DUP1 EXTCODESIZE ISZERO DUP1 ISZERO PUSH2 0x118F JUMPI PUSH1 0x0 DUP1 REVERT JUMPDEST POP GAS CALL ISZERO DUP1 ISZERO PUSH2 0x11A3 JUMPI RETURNDATASIZE PUSH1 0x0 DUP1 RETURNDATACOPY RETURNDATASIZE PUSH1 0x0 REVERT JUMPDEST POP POP POP POP PUSH1 0x0 PUSH2 0x11CC DUP7 DUP7 DUP6 DUP2 DUP2 LT PUSH2 0x11BF JUMPI PUSH2 0x11BE PUSH2 0x1BA8 JUMP JUMPDEST JUMPDEST SWAP1 POP PUSH1 0x20 MUL ADD CALLDATALOAD DUP6 PUSH2 0x144C JUMP JUMPDEST SWAP1 POP PUSH1 0x0 DUP3 PUSH1 0x40 ADD MLOAD DUP3 PUSH2 0x11E0 SWAP2 SWAP1 PUSH2 0x1D7E JUMP JUMPDEST SWAP1 POP PUSH1 0x4 PUSH1 0x0 DUP7 PUSH20 0xFFFFFFFFFFFFFFFFFFFFFFFFFFFFFFFFFFFFFFFF AND PUSH20 0xFFFFFFFFFFFFFFFFFFFFFFFFFFFFFFFFFFFFFFFF AND DUP2 MSTORE PUSH1 0x20 ADD SWAP1 DUP2 MSTORE PUSH1 0x20 ADD PUSH1 0x0 KECCAK256 PUSH1 0x0 ADD PUSH1 0x0 SWAP1 SLOAD SWAP1 PUSH2 0x100 EXP SWAP1 DIV PUSH20 0xFFFFFFFFFFFFFFFFFFFFFFFFFFFFFFFFFFFFFFFF AND PUSH20 0xFFFFFFFFFFFFFFFFFFFFFFFFFFFFFFFFFFFFFFFF AND PUSH4 0x40C10F19 CALLER DUP4 PUSH1 0x40 MLOAD DUP4 PUSH4 0xFFFFFFFF AND PUSH1 0xE0 SHL DUP2 MSTORE PUSH1 0x4 ADD PUSH2 0x127F SWAP3 SWAP2 SWAP1 PUSH2 0x1DB2 JUMP JUMPDEST PUSH1 0x0 PUSH1 0x40 MLOAD DUP1 DUP4 SUB DUP2 PUSH1 0x0 DUP8 DUP1 EXTCODESIZE ISZERO DUP1 ISZERO PUSH2 0x1299 JUMPI PUSH1 0x0 DUP1 REVERT JUMPDEST POP GAS CALL ISZERO DUP1 ISZERO PUSH2 0x12AD JUMPI RETURNDATASIZE PUSH1 0x0 DUP1 RETURNDATACOPY RETURNDATASIZE PUSH1 0x0 REVERT JUMPDEST POP POP POP POP DUP2 PUSH1 0x3 PUSH1 0x0 DUP10 DUP10 DUP9 DUP2 DUP2 LT PUSH2 0x12C9 JUMPI PUSH2 0x12C8 PUSH2 0x1BA8 JUMP JUMPDEST JUMPDEST SWAP1 POP PUSH1 0x20 MUL ADD CALLDATALOAD DUP2 MSTORE PUSH1 0x20 ADD SWAP1 DUP2 MSTORE PUSH1 0x20 ADD PUSH1 0x0 KECCAK256 PUSH1 0x2 ADD DUP2 SWAP1 SSTORE POP PUSH1 0x1 PUSH1 0x3 PUSH1 0x0 DUP10 DUP10 DUP9 DUP2 DUP2 LT PUSH2 0x12FE JUMPI PUSH2 0x12FD PUSH2 0x1BA8 JUMP JUMPDEST JUMPDEST SWAP1 POP PUSH1 0x20 MUL ADD CALLDATALOAD DUP2 MSTORE PUSH1 0x20 ADD SWAP1 DUP2 MSTORE PUSH1 0x20 ADD PUSH1 0x0 KECCAK256 PUSH1 0x3 ADD PUSH1 0x0 PUSH2 0x100 EXP DUP2 SLOAD DUP2 PUSH1 0xFF MUL NOT AND SWAP1 DUP4 ISZERO ISZERO MUL OR SWAP1 SSTORE POP POP POP POP DUP1 DUP1 PUSH2 0x133B SWAP1 PUSH2 0x1DDB JUMP JUMPDEST SWAP2 POP POP PUSH2 0xEF4 JUMP JUMPDEST POP CALLER PUSH20 0xFFFFFFFFFFFFFFFFFFFFFFFFFFFFFFFFFFFFFFFF AND PUSH32 0x5CB48022479B9AC3BFB10A27965DC010ACFFC9FC1BC9A52F0B18975B944B54CA DUP5 DUP5 PUSH1 0x40 MLOAD PUSH2 0x138C SWAP3 SWAP2 SWAP1 PUSH2 0x2021 JUMP JUMPDEST PUSH1 0x40 MLOAD DUP1 SWAP2 SUB SWAP1 LOG2 PUSH1 0x1 DUP1 DUP2 SWAP1 SSTORE POP POP POP POP JUMP JUMPDEST PUSH1 0x6 SLOAD DUP2 JUMP JUMPDEST PUSH2 0x13AE PUSH2 0x15ED JUMP JUMPDEST PUSH1 0x0 PUSH20 0xFFFFFFFFFFFFFFFFFFFFFFFFFFFFFFFFFFFFFFFF AND DUP2 PUSH20 0xFFFFFFFFFFFFFFFFFFFFFFFFFFFFFFFFFFFFFFFF AND SUB PUSH2 0x141D JUMPI PUSH1 0x40 MLOAD PUSH32 0x8C379A000000000000000000000000000000000000000000000000000000000 DUP2 MSTORE PUSH1 0x4 ADD PUSH2 0x1414 SWAP1 PUSH2 0x218F JUMP JUMPDEST PUSH1 0x40 MLOAD DUP1 SWAP2 SUB SWAP1 REVERT JUMPDEST PUSH2 0x1426 DUP2 PUSH2 0x166B JUMP JUMPDEST POP JUMP JUMPDEST PUSH1 0x0 DUP1 DUP3 PUSH20 0xFFFFFFFFFFFFFFFFFFFFFFFFFFFFFFFFFFFFFFFF AND EXTCODESIZE GT SWAP1 POP SWAP2 SWAP1 POP JUMP JUMPDEST PUSH1 0x0 DUP1 PUSH1 0x3 PUSH1 0x0 DUP6 DUP2 MSTORE PUSH1 0x20 ADD SWAP1 DUP2 MSTORE PUSH1 0x20 ADD PUSH1 0x0 KECCAK256 PUSH1 0x40 MLOAD DUP1 PUSH1 0xA0 ADD PUSH1 0x40 MSTORE SWAP1 DUP2 PUSH1 0x0 DUP3 ADD PUSH1 0x0 SWAP1 SLOAD SWAP1 PUSH2 0x100 EXP SWAP1 DIV PUSH20 0xFFFFFFFFFFFFFFFFFFFFFFFFFFFFFFFFFFFFFFFF AND PUSH20 0xFFFFFFFFFFFFFFFFFFFFFFFFFFFFFFFFFFFFFFFF AND PUSH20 0xFFFFFFFFFFFFFFFFFFFFFFFFFFFFFFFFFFFFFFFF AND DUP2 MSTORE PUSH1 0x20 ADD PUSH1 0x1 DUP3 ADD SLOAD DUP2 MSTORE PUSH1 0x20 ADD PUSH1 0x2 DUP3 ADD SLOAD DUP2 MSTORE PUSH1 0x20 ADD PUSH1 0x3 DUP3 ADD PUSH1 0x0 SWAP1 SLOAD SWAP1 PUSH2 0x100 EXP SWAP1 DIV PUSH1 0xFF AND ISZERO ISZERO ISZERO ISZERO DUP2 MSTORE PUSH1 0x20 ADD PUSH1 0x3 DUP3 ADD PUSH1 0x1 SWAP1 SLOAD SWAP1 PUSH2 0x100 EXP SWAP1 DIV PUSH20 0xFFFFFFFFFFFFFFFFFFFFFFFFFFFFFFFFFFFFFFFF AND PUSH20 0xFFFFFFFFFFFFFFFFFFFFFFFFFFFFFFFFFFFFFFFF AND PUSH20 0xFFFFFFFFFFFFFFFFFFFFFFFFFFFFFFFFFFFFFFFF AND DUP2 MSTORE POP POP SWAP1 POP PUSH1 0x0 DUP2 PUSH1 0x20 ADD MLOAD TIMESTAMP PUSH2 0x155C SWAP2 SWAP1 PUSH2 0x1D7E JUMP JUMPDEST SWAP1 POP PUSH1 0x0 PUSH1 0x2 SLOAD DUP3 LT ISZERO PUSH2 0x1576 JUMPI PUSH1 0x0 SWAP4 POP POP POP POP PUSH2 0x15E7 JUMP JUMPDEST PUSH1 0x6 SLOAD PUSH1 0x2 SLOAD DUP4 PUSH2 0x1587 SWAP2 SWAP1 PUSH2 0x1D7E JUMP JUMPDEST PUSH1 0x4 PUSH1 0x0 DUP9 PUSH20 0xFFFFFFFFFFFFFFFFFFFFFFFFFFFFFFFFFFFFFFFF AND PUSH20 0xFFFFFFFFFFFFFFFFFFFFFFFFFFFFFFFFFFFFFFFF AND DUP2 MSTORE PUSH1 0x20 ADD SWAP1 DUP2 MSTORE PUSH1 0x20 ADD PUSH1 0x0 KECCAK256 PUSH1 0x1 ADD SLOAD PUSH2 0x15D4 SWAP2 SWAP1 PUSH2 0x21AF JUMP JUMPDEST PUSH2 0x15DE SWAP2 SWAP1 PUSH2 0x2238 JUMP JUMPDEST SWAP1 POP DUP1 SWAP4 POP POP POP POP JUMPDEST SWAP3 SWAP2 POP POP JUMP JUMPDEST PUSH2 0x15F5 PUSH2 0x172F JUMP JUMPDEST PUSH20 0xFFFFFFFFFFFFFFFFFFFFFFFFFFFFFFFFFFFFFFFF AND PUSH2 0x1613 PUSH2 0xD68 JUMP JUMPDEST PUSH20 0xFFFFFFFFFFFFFFFFFFFFFFFFFFFFFFFFFFFFFFFF AND EQ PUSH2 0x1669 JUMPI PUSH1 0x40 MLOAD PUSH32 0x8C379A000000000000000000000000000000000000000000000000000000000 DUP2 MSTORE PUSH1 0x4 ADD PUSH2 0x1660 SWAP1 PUSH2 0x22B5 JUMP JUMPDEST PUSH1 0x40 MLOAD DUP1 SWAP2 SUB SWAP1 REVERT JUMPDEST JUMP JUMPDEST PUSH1 0x0 DUP1 PUSH1 0x0 SWAP1 SLOAD SWAP1 PUSH2 0x100 EXP SWAP1 DIV PUSH20 0xFFFFFFFFFFFFFFFFFFFFFFFFFFFFFFFFFFFFFFFF AND SWAP1 POP DUP2 PUSH1 0x0 DUP1 PUSH2 0x100 EXP DUP2 SLOAD DUP2 PUSH20 0xFFFFFFFFFFFFFFFFFFFFFFFFFFFFFFFFFFFFFFFF MUL NOT AND SWAP1 DUP4 PUSH20 0xFFFFFFFFFFFFFFFFFFFFFFFFFFFFFFFFFFFFFFFF AND MUL OR SWAP1 SSTORE POP DUP2 PUSH20 0xFFFFFFFFFFFFFFFFFFFFFFFFFFFFFFFFFFFFFFFF AND DUP2 PUSH20 0xFFFFFFFFFFFFFFFFFFFFFFFFFFFFFFFFFFFFFFFF AND PUSH32 0x8BE0079C531659141344CD1FD0A4F28419497F9722A3DAAFE3B4186F6B6457E0 PUSH1 0x40 MLOAD PUSH1 0x40 MLOAD DUP1 SWAP2 SUB SWAP1 LOG3 POP POP JUMP JUMPDEST PUSH1 0x0 CALLER SWAP1 POP SWAP1 JUMP JUMPDEST PUSH1 0x0 DUP1 REVERT JUMPDEST PUSH1 0x0 DUP1 REVERT JUMPDEST PUSH1 0x0 DUP1 REVERT JUMPDEST PUSH1 0x0 DUP1 REVERT JUMPDEST PUSH1 0x0 DUP1 REVERT JUMPDEST PUSH1 0x0 DUP1 DUP4 PUSH1 0x1F DUP5 ADD SLT PUSH2 0x1766 JUMPI PUSH2 0x1765 PUSH2 0x1741 JUMP JUMPDEST JUMPDEST DUP3 CALLDATALOAD SWAP1 POP PUSH8 0xFFFFFFFFFFFFFFFF DUP2 GT ISZERO PUSH2 0x1783 JUMPI PUSH2 0x1782 PUSH2 0x1746 JUMP JUMPDEST JUMPDEST PUSH1 0x20 DUP4 ADD SWAP2 POP DUP4 PUSH1 0x20 DUP3 MUL DUP4 ADD GT ISZERO PUSH2 0x179F JUMPI PUSH2 0x179E PUSH2 0x174B JUMP JUMPDEST JUMPDEST SWAP3 POP SWAP3 SWAP1 POP JUMP JUMPDEST PUSH1 0x0 PUSH20 0xFFFFFFFFFFFFFFFFFFFFFFFFFFFFFFFFFFFFFFFF DUP3 AND SWAP1 POP SWAP2 SWAP1 POP JUMP JUMPDEST PUSH1 0x0 PUSH2 0x17D1 DUP3 PUSH2 0x17A6 JUMP JUMPDEST SWAP1 POP SWAP2 SWAP1 POP JUMP JUMPDEST PUSH1 0x0 PUSH2 0x17E3 DUP3 PUSH2 0x17C6 JUMP JUMPDEST SWAP1 POP SWAP2 SWAP1 POP JUMP JUMPDEST PUSH2 0x17F3 DUP2 PUSH2 0x17D8 JUMP JUMPDEST DUP2 EQ PUSH2 0x17FE JUMPI PUSH1 0x0 DUP1 REVERT JUMPDEST POP JUMP JUMPDEST PUSH1 0x0 DUP2 CALLDATALOAD SWAP1 POP PUSH2 0x1810 DUP2 PUSH2 0x17EA JUMP JUMPDEST SWAP3 SWAP2 POP POP JUMP JUMPDEST PUSH1 0x0 DUP1 PUSH1 0x0 PUSH1 0x40 DUP5 DUP7 SUB SLT ISZERO PUSH2 0x182F JUMPI PUSH2 0x182E PUSH2 0x1737 JUMP JUMPDEST JUMPDEST PUSH1 0x0 DUP5 ADD CALLDATALOAD PUSH8 0xFFFFFFFFFFFFFFFF DUP2 GT ISZERO PUSH2 0x184D JUMPI PUSH2 0x184C PUSH2 0x173C JUMP JUMPDEST JUMPDEST PUSH2 0x1859 DUP7 DUP3 DUP8 ADD PUSH2 0x1750 JUMP JUMPDEST SWAP4 POP SWAP4 POP POP PUSH1 0x20 PUSH2 0x186C DUP7 DUP3 DUP8 ADD PUSH2 0x1801 JUMP JUMPDEST SWAP2 POP POP SWAP3 POP SWAP3 POP SWAP3 JUMP JUMPDEST PUSH1 0x0 DUP2 SWAP1 POP SWAP2 SWAP1 POP JUMP JUMPDEST PUSH2 0x1889 DUP2 PUSH2 0x1876 JUMP JUMPDEST DUP2 EQ PUSH2 0x1894 JUMPI PUSH1 0x0 DUP1 REVERT JUMPDEST POP JUMP JUMPDEST PUSH1 0x0 DUP2 CALLDATALOAD SWAP1 POP PUSH2 0x18A6 DUP2 PUSH2 0x1880 JUMP JUMPDEST SWAP3 SWAP2 POP POP JUMP JUMPDEST PUSH1 0x0 PUSH1 0x20 DUP3 DUP5 SUB SLT ISZERO PUSH2 0x18C2 JUMPI PUSH2 0x18C1 PUSH2 0x1737 JUMP JUMPDEST JUMPDEST PUSH1 0x0 PUSH2 0x18D0 DUP5 DUP3 DUP6 ADD PUSH2 0x1897 JUMP JUMPDEST SWAP2 POP POP SWAP3 SWAP2 POP POP JUMP JUMPDEST PUSH2 0x18E2 DUP2 PUSH2 0x17C6 JUMP JUMPDEST DUP3 MSTORE POP POP JUMP JUMPDEST PUSH1 0x0 PUSH1 0x20 DUP3 ADD SWAP1 POP PUSH2 0x18FD PUSH1 0x0 DUP4 ADD DUP5 PUSH2 0x18D9 JUMP JUMPDEST SWAP3 SWAP2 POP POP JUMP JUMPDEST PUSH2 0x190C DUP2 PUSH2 0x1876 JUMP JUMPDEST DUP3 MSTORE POP POP JUMP JUMPDEST PUSH1 0x0 PUSH1 0x20 DUP3 ADD SWAP1 POP PUSH2 0x1927 PUSH1 0x0 DUP4 ADD DUP5 PUSH2 0x1903 JUMP JUMPDEST SWAP3 SWAP2 POP POP JUMP JUMPDEST PUSH1 0x0 DUP2 ISZERO ISZERO SWAP1 POP SWAP2 SWAP1 POP JUMP JUMPDEST PUSH2 0x1942 DUP2 PUSH2 0x192D JUMP JUMPDEST DUP3 MSTORE POP POP JUMP JUMPDEST PUSH1 0x0 DUP2 SWAP1 POP SWAP2 SWAP1 POP JUMP JUMPDEST PUSH1 0x0 PUSH2 0x196D PUSH2 0x1968 PUSH2 0x1963 DUP5 PUSH2 0x17A6 JUMP JUMPDEST PUSH2 0x1948 JUMP JUMPDEST PUSH2 0x17A6 JUMP JUMPDEST SWAP1 POP SWAP2 SWAP1 POP JUMP JUMPDEST PUSH1 0x0 PUSH2 0x197F DUP3 PUSH2 0x1952 JUMP JUMPDEST SWAP1 POP SWAP2 SWAP1 POP JUMP JUMPDEST PUSH1 0x0 PUSH2 0x1991 DUP3 PUSH2 0x1974 JUMP JUMPDEST SWAP1 POP SWAP2 SWAP1 POP JUMP JUMPDEST PUSH2 0x19A1 DUP2 PUSH2 0x1986 JUMP JUMPDEST DUP3 MSTORE POP POP JUMP JUMPDEST PUSH1 0x0 PUSH1 0xA0 DUP3 ADD SWAP1 POP PUSH2 0x19BC PUSH1 0x0 DUP4 ADD DUP9 PUSH2 0x18D9 JUMP JUMPDEST PUSH2 0x19C9 PUSH1 0x20 DUP4 ADD DUP8 PUSH2 0x1903 JUMP JUMPDEST PUSH2 0x19D6 PUSH1 0x40 DUP4 ADD DUP7 PUSH2 0x1903 JUMP JUMPDEST PUSH2 0x19E3 PUSH1 0x60 DUP4 ADD DUP6 PUSH2 0x1939 JUMP JUMPDEST PUSH2 0x19F0 PUSH1 0x80 DUP4 ADD DUP5 PUSH2 0x1998 JUMP JUMPDEST SWAP7 SWAP6 POP POP POP POP POP POP JUMP JUMPDEST PUSH2 0x1A03 DUP2 PUSH2 0x17C6 JUMP JUMPDEST DUP2 EQ PUSH2 0x1A0E JUMPI PUSH1 0x0 DUP1 REVERT JUMPDEST POP JUMP JUMPDEST PUSH1 0x0 DUP2 CALLDATALOAD SWAP1 POP PUSH2 0x1A20 DUP2 PUSH2 0x19FA JUMP JUMPDEST SWAP3 SWAP2 POP POP JUMP JUMPDEST PUSH1 0x0 PUSH1 0x20 DUP3 DUP5 SUB SLT ISZERO PUSH2 0x1A3C JUMPI PUSH2 0x1A3B PUSH2 0x1737 JUMP JUMPDEST JUMPDEST PUSH1 0x0 PUSH2 0x1A4A DUP5 DUP3 DUP6 ADD PUSH2 0x1A11 JUMP JUMPDEST SWAP2 POP POP SWAP3 SWAP2 POP POP JUMP JUMPDEST PUSH1 0x0 DUP3 DUP3 MSTORE PUSH1 0x20 DUP3 ADD SWAP1 POP SWAP3 SWAP2 POP POP JUMP JUMPDEST PUSH32 0x436F6E7472616374206E6F7420616C6C6F776564000000000000000000000000 PUSH1 0x0 DUP3 ADD MSTORE POP JUMP JUMPDEST PUSH1 0x0 PUSH2 0x1A9A PUSH1 0x14 DUP4 PUSH2 0x1A53 JUMP JUMPDEST SWAP2 POP PUSH2 0x1AA5 DUP3 PUSH2 0x1A64 JUMP JUMPDEST PUSH1 0x20 DUP3 ADD SWAP1 POP SWAP2 SWAP1 POP JUMP JUMPDEST PUSH1 0x0 PUSH1 0x20 DUP3 ADD SWAP1 POP DUP2 DUP2 SUB PUSH1 0x0 DUP4 ADD MSTORE PUSH2 0x1AC9 DUP2 PUSH2 0x1A8D JUMP JUMPDEST SWAP1 POP SWAP2 SWAP1 POP JUMP JUMPDEST PUSH32 0x50726F787920636F6E7472616374206E6F7420616C6C6F776564000000000000 PUSH1 0x0 DUP3 ADD MSTORE POP JUMP JUMPDEST PUSH1 0x0 PUSH2 0x1B06 PUSH1 0x1A DUP4 PUSH2 0x1A53 JUMP JUMPDEST SWAP2 POP PUSH2 0x1B11 DUP3 PUSH2 0x1AD0 JUMP JUMPDEST PUSH1 0x20 DUP3 ADD SWAP1 POP SWAP2 SWAP1 POP JUMP JUMPDEST PUSH1 0x0 PUSH1 0x20 DUP3 ADD SWAP1 POP DUP2 DUP2 SUB PUSH1 0x0 DUP4 ADD MSTORE PUSH2 0x1B35 DUP2 PUSH2 0x1AF9 JUMP JUMPDEST SWAP1 POP SWAP2 SWAP1 POP JUMP JUMPDEST PUSH32 0x4E6F20746F6B656E730000000000000000000000000000000000000000000000 PUSH1 0x0 DUP3 ADD MSTORE POP JUMP JUMPDEST PUSH1 0x0 PUSH2 0x1B72 PUSH1 0x9 DUP4 PUSH2 0x1A53 JUMP JUMPDEST SWAP2 POP PUSH2 0x1B7D DUP3 PUSH2 0x1B3C JUMP JUMPDEST PUSH1 0x20 DUP3 ADD SWAP1 POP SWAP2 SWAP1 POP JUMP JUMPDEST PUSH1 0x0 PUSH1 0x20 DUP3 ADD SWAP1 POP DUP2 DUP2 SUB PUSH1 0x0 DUP4 ADD MSTORE PUSH2 0x1BA1 DUP2 PUSH2 0x1B65 JUMP JUMPDEST SWAP1 POP SWAP2 SWAP1 POP JUMP JUMPDEST PUSH32 0x4E487B7100000000000000000000000000000000000000000000000000000000 PUSH1 0x0 MSTORE PUSH1 0x32 PUSH1 0x4 MSTORE PUSH1 0x24 PUSH1 0x0 REVERT JUMPDEST PUSH32 0x4E6F74206120746F6B656E206F776E6572000000000000000000000000000000 PUSH1 0x0 DUP3 ADD MSTORE POP JUMP JUMPDEST PUSH1 0x0 PUSH2 0x1C0D PUSH1 0x11 DUP4 PUSH2 0x1A53 JUMP JUMPDEST SWAP2 POP PUSH2 0x1C18 DUP3 PUSH2 0x1BD7 JUMP JUMPDEST PUSH1 0x20 DUP3 ADD SWAP1 POP SWAP2 SWAP1 POP JUMP JUMPDEST PUSH1 0x0 PUSH1 0x20 DUP3 ADD SWAP1 POP DUP2 DUP2 SUB PUSH1 0x0 DUP4 ADD MSTORE PUSH2 0x1C3C DUP2 PUSH2 0x1C00 JUMP JUMPDEST SWAP1 POP SWAP2 SWAP1 POP JUMP JUMPDEST PUSH32 0x4E487B7100000000000000000000000000000000000000000000000000000000 PUSH1 0x0 MSTORE PUSH1 0x11 PUSH1 0x4 MSTORE PUSH1 0x24 PUSH1 0x0 REVERT JUMPDEST PUSH1 0x0 PUSH2 0x1C7D DUP3 PUSH2 0x1876 JUMP JUMPDEST SWAP2 POP PUSH2 0x1C88 DUP4 PUSH2 0x1876 JUMP JUMPDEST SWAP3 POP DUP3 DUP3 ADD SWAP1 POP DUP1 DUP3 GT ISZERO PUSH2 0x1CA0 JUMPI PUSH2 0x1C9F PUSH2 0x1C43 JUMP JUMPDEST JUMPDEST SWAP3 SWAP2 POP POP JUMP JUMPDEST PUSH32 0x4E6F742061626C6520746F20636C61696D207965740000000000000000000000 PUSH1 0x0 DUP3 ADD MSTORE POP JUMP JUMPDEST PUSH1 0x0 PUSH2 0x1CDC PUSH1 0x15 DUP4 PUSH2 0x1A53 JUMP JUMPDEST SWAP2 POP PUSH2 0x1CE7 DUP3 PUSH2 0x1CA6 JUMP JUMPDEST PUSH1 0x20 DUP3 ADD SWAP1 POP SWAP2 SWAP1 POP JUMP JUMPDEST PUSH1 0x0 PUSH1 0x20 DUP3 ADD SWAP1 POP DUP2 DUP2 SUB PUSH1 0x0 DUP4 ADD MSTORE PUSH2 0x1D0B DUP2 PUSH2 0x1CCF JUMP JUMPDEST SWAP1 POP SWAP2 SWAP1 POP JUMP JUMPDEST PUSH32 0x416C726561647920756E6C6F636B656400000000000000000000000000000000 PUSH1 0x0 DUP3 ADD MSTORE POP JUMP JUMPDEST PUSH1 0x0 PUSH2 0x1D48 PUSH1 0x10 DUP4 PUSH2 0x1A53 JUMP JUMPDEST SWAP2 POP PUSH2 0x1D53 DUP3 PUSH2 0x1D12 JUMP JUMPDEST PUSH1 0x20 DUP3 ADD SWAP1 POP SWAP2 SWAP1 POP JUMP JUMPDEST PUSH1 0x0 PUSH1 0x20 DUP3 ADD SWAP1 POP DUP2 DUP2 SUB PUSH1 0x0 DUP4 ADD MSTORE PUSH2 0x1D77 DUP2 PUSH2 0x1D3B JUMP JUMPDEST SWAP1 POP SWAP2 SWAP1 POP JUMP JUMPDEST PUSH1 0x0 PUSH2 0x1D89 DUP3 PUSH2 0x1876 JUMP JUMPDEST SWAP2 POP PUSH2 0x1D94 DUP4 PUSH2 0x1876 JUMP JUMPDEST SWAP3 POP DUP3 DUP3 SUB SWAP1 POP DUP2 DUP2 GT ISZERO PUSH2 0x1DAC JUMPI PUSH2 0x1DAB PUSH2 0x1C43 JUMP JUMPDEST JUMPDEST SWAP3 SWAP2 POP POP JUMP JUMPDEST PUSH1 0x0 PUSH1 0x40 DUP3 ADD SWAP1 POP PUSH2 0x1DC7 PUSH1 0x0 DUP4 ADD DUP6 PUSH2 0x18D9 JUMP JUMPDEST PUSH2 0x1DD4 PUSH1 0x20 DUP4 ADD DUP5 PUSH2 0x1903 JUMP JUMPDEST SWAP4 SWAP3 POP POP POP JUMP JUMPDEST PUSH1 0x0 PUSH2 0x1DE6 DUP3 PUSH2 0x1876 JUMP JUMPDEST SWAP2 POP PUSH32 0xFFFFFFFFFFFFFFFFFFFFFFFFFFFFFFFFFFFFFFFFFFFFFFFFFFFFFFFFFFFFFFFF DUP3 SUB PUSH2 0x1E18 JUMPI PUSH2 0x1E17 PUSH2 0x1C43 JUMP JUMPDEST JUMPDEST PUSH1 0x1 DUP3 ADD SWAP1 POP SWAP2 SWAP1 POP JUMP JUMPDEST PUSH1 0x0 DUP3 DUP3 MSTORE PUSH1 0x20 DUP3 ADD SWAP1 POP SWAP3 SWAP2 POP POP JUMP JUMPDEST PUSH1 0x0 DUP1 REVERT JUMPDEST DUP3 DUP2 DUP4 CALLDATACOPY POP POP POP JUMP JUMPDEST PUSH1 0x0 PUSH2 0x1E4E DUP4 DUP6 PUSH2 0x1E23 JUMP JUMPDEST SWAP4 POP PUSH32 0x7FFFFFFFFFFFFFFFFFFFFFFFFFFFFFFFFFFFFFFFFFFFFFFFFFFFFFFFFFFFFFF DUP4 GT ISZERO PUSH2 0x1E81 JUMPI PUSH2 0x1E80 PUSH2 0x1E34 JUMP JUMPDEST JUMPDEST PUSH1 0x20 DUP4 MUL SWAP3 POP PUSH2 0x1E92 DUP4 DUP6 DUP5 PUSH2 0x1E39 JUMP JUMPDEST DUP3 DUP5 ADD SWAP1 POP SWAP4 SWAP3 POP POP POP JUMP JUMPDEST PUSH1 0x0 PUSH1 0x40 DUP3 ADD SWAP1 POP DUP2 DUP2 SUB PUSH1 0x0 DUP4 ADD MSTORE PUSH2 0x1EB9 DUP2 DUP6 DUP8 PUSH2 0x1E42 JUMP JUMPDEST SWAP1 POP PUSH2 0x1EC8 PUSH1 0x20 DUP4 ADD DUP5 PUSH2 0x1903 JUMP JUMPDEST SWAP5 SWAP4 POP POP POP POP JUMP JUMPDEST PUSH32 0x5265656E7472616E637947756172643A207265656E7472616E742063616C6C00 PUSH1 0x0 DUP3 ADD MSTORE POP JUMP JUMPDEST PUSH1 0x0 PUSH2 0x1F06 PUSH1 0x1F DUP4 PUSH2 0x1A53 JUMP JUMPDEST SWAP2 POP PUSH2 0x1F11 DUP3 PUSH2 0x1ED0 JUMP JUMPDEST PUSH1 0x20 DUP3 ADD SWAP1 POP SWAP2 SWAP1 POP JUMP JUMPDEST PUSH1 0x0 PUSH1 0x20 DUP3 ADD SWAP1 POP DUP2 DUP2 SUB PUSH1 0x0 DUP4 ADD MSTORE PUSH2 0x1F35 DUP2 PUSH2 0x1EF9 JUMP JUMPDEST SWAP1 POP SWAP2 SWAP1 POP JUMP JUMPDEST PUSH1 0x0 DUP2 MLOAD SWAP1 POP PUSH2 0x1F4B DUP2 PUSH2 0x19FA JUMP JUMPDEST SWAP3 SWAP2 POP POP JUMP JUMPDEST PUSH1 0x0 PUSH1 0x20 DUP3 DUP5 SUB SLT ISZERO PUSH2 0x1F67 JUMPI PUSH2 0x1F66 PUSH2 0x1737 JUMP JUMPDEST JUMPDEST PUSH1 0x0 PUSH2 0x1F75 DUP5 DUP3 DUP6 ADD PUSH2 0x1F3C JUMP JUMPDEST SWAP2 POP POP SWAP3 SWAP2 POP POP JUMP JUMPDEST PUSH32 0x596F7520646F6E277420686F6C64207468697320746F6B656E00000000000000 PUSH1 0x0 DUP3 ADD MSTORE POP JUMP JUMPDEST PUSH1 0x0 PUSH2 0x1FB4 PUSH1 0x19 DUP4 PUSH2 0x1A53 JUMP JUMPDEST SWAP2 POP PUSH2 0x1FBF DUP3 PUSH2 0x1F7E JUMP JUMPDEST PUSH1 0x20 DUP3 ADD SWAP1 POP SWAP2 SWAP1 POP JUMP JUMPDEST PUSH1 0x0 PUSH1 0x20 DUP3 ADD SWAP1 POP DUP2 DUP2 SUB PUSH1 0x0 DUP4 ADD MSTORE PUSH2 0x1FE3 DUP2 PUSH2 0x1FA7 JUMP JUMPDEST SWAP1 POP SWAP2 SWAP1 POP JUMP JUMPDEST PUSH1 0x0 PUSH1 0x60 DUP3 ADD SWAP1 POP PUSH2 0x1FFF PUSH1 0x0 DUP4 ADD DUP7 PUSH2 0x18D9 JUMP JUMPDEST PUSH2 0x200C PUSH1 0x20 DUP4 ADD DUP6 PUSH2 0x18D9 JUMP JUMPDEST PUSH2 0x2019 PUSH1 0x40 DUP4 ADD DUP5 PUSH2 0x1903 JUMP JUMPDEST SWAP5 SWAP4 POP POP POP POP JUMP JUMPDEST PUSH1 0x0 PUSH1 0x20 DUP3 ADD SWAP1 POP DUP2 DUP2 SUB PUSH1 0x0 DUP4 ADD MSTORE PUSH2 0x203C DUP2 DUP5 DUP7 PUSH2 0x1E42 JUMP JUMPDEST SWAP1 POP SWAP4 SWAP3 POP POP POP JUMP JUMPDEST PUSH32 0x496E76616C6964206C6F636B20706572696F642E000000000000000000000000 PUSH1 0x0 DUP3 ADD MSTORE POP JUMP JUMPDEST PUSH1 0x0 PUSH2 0x207B PUSH1 0x14 DUP4 PUSH2 0x1A53 JUMP JUMPDEST SWAP2 POP PUSH2 0x2086 DUP3 PUSH2 0x2045 JUMP JUMPDEST PUSH1 0x20 DUP3 ADD SWAP1 POP SWAP2 SWAP1 POP JUMP JUMPDEST PUSH1 0x0 PUSH1 0x20 DUP3 ADD SWAP1 POP DUP2 DUP2 SUB PUSH1 0x0 DUP4 ADD MSTORE PUSH2 0x20AA DUP2 PUSH2 0x206E JUMP JUMPDEST SWAP1 POP SWAP2 SWAP1 POP JUMP JUMPDEST PUSH32 0x4E6F742061626C6520746F20756E6C6F636B2079657400000000000000000000 PUSH1 0x0 DUP3 ADD MSTORE POP JUMP JUMPDEST PUSH1 0x0 PUSH2 0x20E7 PUSH1 0x16 DUP4 PUSH2 0x1A53 JUMP JUMPDEST SWAP2 POP PUSH2 0x20F2 DUP3 PUSH2 0x20B1 JUMP JUMPDEST PUSH1 0x20 DUP3 ADD SWAP1 POP SWAP2 SWAP1 POP JUMP JUMPDEST PUSH1 0x0 PUSH1 0x20 DUP3 ADD SWAP1 POP DUP2 DUP2 SUB PUSH1 0x0 DUP4 ADD MSTORE PUSH2 0x2116 DUP2 PUSH2 0x20DA JUMP JUMPDEST SWAP1 POP SWAP2 SWAP1 POP JUMP JUMPDEST PUSH32 0x4F776E61626C653A206E6577206F776E657220697320746865207A65726F2061 PUSH1 0x0 DUP3 ADD MSTORE PUSH32 0x6464726573730000000000000000000000000000000000000000000000000000 PUSH1 0x20 DUP3 ADD MSTORE POP JUMP JUMPDEST PUSH1 0x0 PUSH2 0x2179 PUSH1 0x26 DUP4 PUSH2 0x1A53 JUMP JUMPDEST SWAP2 POP PUSH2 0x2184 DUP3 PUSH2 0x211D JUMP JUMPDEST PUSH1 0x40 DUP3 ADD SWAP1 POP SWAP2 SWAP1 POP JUMP JUMPDEST PUSH1 0x0 PUSH1 0x20 DUP3 ADD SWAP1 POP DUP2 DUP2 SUB PUSH1 0x0 DUP4 ADD MSTORE PUSH2 0x21A8 DUP2 PUSH2 0x216C JUMP JUMPDEST SWAP1 POP SWAP2 SWAP1 POP JUMP JUMPDEST PUSH1 0x0 PUSH2 0x21BA DUP3 PUSH2 0x1876 JUMP JUMPDEST SWAP2 POP PUSH2 0x21C5 DUP4 PUSH2 0x1876 JUMP JUMPDEST SWAP3 POP DUP2 PUSH32 0xFFFFFFFFFFFFFFFFFFFFFFFFFFFFFFFFFFFFFFFFFFFFFFFFFFFFFFFFFFFFFFFF DIV DUP4 GT DUP3 ISZERO ISZERO AND ISZERO PUSH2 0x21FE JUMPI PUSH2 0x21FD PUSH2 0x1C43 JUMP JUMPDEST JUMPDEST DUP3 DUP3 MUL SWAP1 POP SWAP3 SWAP2 POP POP JUMP JUMPDEST PUSH32 0x4E487B7100000000000000000000000000000000000000000000000000000000 PUSH1 0x0 MSTORE PUSH1 0x12 PUSH1 0x4 MSTORE PUSH1 0x24 PUSH1 0x0 REVERT JUMPDEST PUSH1 0x0 PUSH2 0x2243 DUP3 PUSH2 0x1876 JUMP JUMPDEST SWAP2 POP PUSH2 0x224E DUP4 PUSH2 0x1876 JUMP JUMPDEST SWAP3 POP DUP3 PUSH2 0x225E JUMPI PUSH2 0x225D PUSH2 0x2209 JUMP JUMPDEST JUMPDEST DUP3 DUP3 DIV SWAP1 POP SWAP3 SWAP2 POP POP JUMP JUMPDEST PUSH32 0x4F776E61626C653A2063616C6C6572206973206E6F7420746865206F776E6572 PUSH1 0x0 DUP3 ADD MSTORE POP JUMP JUMPDEST PUSH1 0x0 PUSH2 0x229F PUSH1 0x20 DUP4 PUSH2 0x1A53 JUMP JUMPDEST SWAP2 POP PUSH2 0x22AA DUP3 PUSH2 0x2269 JUMP JUMPDEST PUSH1 0x20 DUP3 ADD SWAP1 POP SWAP2 SWAP1 POP JUMP JUMPDEST PUSH1 0x0 PUSH1 0x20 DUP3 ADD SWAP1 POP DUP2 DUP2 SUB PUSH1 0x0 DUP4 ADD MSTORE PUSH2 0x22CE DUP2 PUSH2 0x2292 JUMP JUMPDEST SWAP1 POP SWAP2 SWAP1 POP JUMP INVALID LOG2 PUSH5 0x6970667358 0x22 SLT KECCAK256 SELFBALANCE 0xB9 0xED 0x2D 0xEE ADD 0x1F NUMBER PUSH21 0x21719C9148BDFFB0B1F71BB720F0E82D2C4B400BDD 0x2D 0xAE PUSH5 0x736F6C6343 STOP ADDMOD LT STOP CALLER "
				},
				"gasEstimates": {
					"creation": {
						"codeDepositCost": "1794200",
						"executionCost": "infinite",
						"totalCost": "infinite"
					},
					"external": {
						"WAVE()": "2517",
						"claimRewards(uint256[],address)": "infinite",
						"claimedRewards(uint256)": "infinite",
						"lockInfo(uint256)": "infinite",
						"lockNFT(uint256[],address)": "infinite",
						"lockPeriod()": "2518",
						"owner()": "2566",
						"renounceOwnership()": "30398",
						"setLockPeriod(uint256)": "infinite",
						"tokenOwner(uint256)": "2884",
						"transferOwnership(address)": "30854",
						"unlockNFT(uint256[],address)": "infinite"
					},
					"internal": {
						"_rewardAmount(uint256,contract IERC721)": "infinite"
					}
				},
				"methodIdentifiers": {
					"WAVE()": "c69d1923",
					"claimRewards(uint256[],address)": "0520537f",
					"claimedRewards(uint256)": "20281a98",
					"lockInfo(uint256)": "5b1a4c24",
					"lockNFT(uint256[],address)": "1902732e",
					"lockPeriod()": "3fd8b02f",
					"owner()": "8da5cb5b",
					"renounceOwnership()": "715018a6",
					"setLockPeriod(uint256)": "779972da",
					"tokenOwner(uint256)": "1caaa487",
					"transferOwnership(address)": "f2fde38b",
					"unlockNFT(uint256[],address)": "9f3625f0"
				}
			},
			"storageLayout": {
				"storage": [
					{
						"astId": 7,
						"contract": "contracts/Staking.sol:NFTStaking1",
						"label": "_owner",
						"offset": 0,
						"slot": "0",
						"type": "t_address"
					},
					{
						"astId": 123,
						"contract": "contracts/Staking.sol:NFTStaking1",
						"label": "_status",
						"offset": 0,
						"slot": "1",
						"type": "t_uint256"
					},
					{
						"astId": 614,
						"contract": "contracts/Staking.sol:NFTStaking1",
						"label": "lockPeriod",
						"offset": 0,
						"slot": "2",
						"type": "t_uint256"
					},
					{
						"astId": 631,
						"contract": "contracts/Staking.sol:NFTStaking1",
						"label": "lockInfo",
						"offset": 0,
						"slot": "3",
						"type": "t_mapping(t_uint256,t_struct(LockInfo)626_storage)"
					},
					{
						"astId": 645,
						"contract": "contracts/Staking.sol:NFTStaking1",
						"label": "nftInfo",
						"offset": 0,
						"slot": "4",
						"type": "t_mapping(t_contract(IERC721)268,t_struct(stakeNftInfo)639_storage)"
					},
					{
						"astId": 649,
						"contract": "contracts/Staking.sol:NFTStaking1",
						"label": "tokenOwner",
						"offset": 0,
						"slot": "5",
						"type": "t_mapping(t_uint256,t_address)"
					},
					{
						"astId": 652,
						"contract": "contracts/Staking.sol:NFTStaking1",
						"label": "WAVE",
						"offset": 0,
						"slot": "6",
						"type": "t_uint256"
					}
				],
				"types": {
					"t_address": {
						"encoding": "inplace",
						"label": "address",
						"numberOfBytes": "20"
					},
					"t_bool": {
						"encoding": "inplace",
						"label": "bool",
						"numberOfBytes": "1"
					},
					"t_contract(IERC721)268": {
						"encoding": "inplace",
						"label": "contract IERC721",
						"numberOfBytes": "20"
					},
					"t_contract(IRewardsToken)1240": {
						"encoding": "inplace",
						"label": "contract IRewardsToken",
						"numberOfBytes": "20"
					},
					"t_mapping(t_contract(IERC721)268,t_struct(stakeNftInfo)639_storage)": {
						"encoding": "mapping",
						"key": "t_contract(IERC721)268",
						"label": "mapping(contract IERC721 => struct NFTStaking1.stakeNftInfo)",
						"numberOfBytes": "32",
						"value": "t_struct(stakeNftInfo)639_storage"
					},
					"t_mapping(t_uint256,t_address)": {
						"encoding": "mapping",
						"key": "t_uint256",
						"label": "mapping(uint256 => address)",
						"numberOfBytes": "32",
						"value": "t_address"
					},
					"t_mapping(t_uint256,t_struct(LockInfo)626_storage)": {
						"encoding": "mapping",
						"key": "t_uint256",
						"label": "mapping(uint256 => struct NFTStaking1.LockInfo)",
						"numberOfBytes": "32",
						"value": "t_struct(LockInfo)626_storage"
					},
					"t_struct(LockInfo)626_storage": {
						"encoding": "inplace",
						"label": "struct NFTStaking1.LockInfo",
						"members": [
							{
								"astId": 616,
								"contract": "contracts/Staking.sol:NFTStaking1",
								"label": "owner",
								"offset": 0,
								"slot": "0",
								"type": "t_address"
							},
							{
								"astId": 618,
								"contract": "contracts/Staking.sol:NFTStaking1",
								"label": "lockedTime",
								"offset": 0,
								"slot": "1",
								"type": "t_uint256"
							},
							{
								"astId": 620,
								"contract": "contracts/Staking.sol:NFTStaking1",
								"label": "claimedRewards",
								"offset": 0,
								"slot": "2",
								"type": "t_uint256"
							},
							{
								"astId": 622,
								"contract": "contracts/Staking.sol:NFTStaking1",
								"label": "isUnlocked",
								"offset": 0,
								"slot": "3",
								"type": "t_bool"
							},
							{
								"astId": 625,
								"contract": "contracts/Staking.sol:NFTStaking1",
								"label": "contractAddress",
								"offset": 1,
								"slot": "3",
								"type": "t_contract(IERC721)268"
							}
						],
						"numberOfBytes": "128"
					},
					"t_struct(stakeNftInfo)639_storage": {
						"encoding": "inplace",
						"label": "struct NFTStaking1.stakeNftInfo",
						"members": [
							{
								"astId": 634,
								"contract": "contracts/Staking.sol:NFTStaking1",
								"label": "rewardsToken",
								"offset": 0,
								"slot": "0",
								"type": "t_contract(IRewardsToken)1240"
							},
							{
								"astId": 636,
								"contract": "contracts/Staking.sol:NFTStaking1",
								"label": "rewardsPerWave",
								"offset": 0,
								"slot": "1",
								"type": "t_uint256"
							},
							{
								"astId": 638,
								"contract": "contracts/Staking.sol:NFTStaking1",
								"label": "rewardPercentage",
								"offset": 0,
								"slot": "2",
								"type": "t_uint256"
							}
						],
						"numberOfBytes": "96"
					},
					"t_uint256": {
						"encoding": "inplace",
						"label": "uint256",
						"numberOfBytes": "32"
					}
				}
			},
			"userdoc": {
				"kind": "user",
				"methods": {
					"WAVE()": {
						"notice": "CONSTANTS "
					}
				},
				"version": 1
			}
		}
	}
}