{
	"contracts/Staking.sol": {
		"NFTStaking1": {
			"abi": [
				{
					"inputs": [
						{
							"internalType": "address",
							"name": "_stakeNFT",
							"type": "address"
						},
						{
							"internalType": "address[]",
							"name": "_rewardsToken",
							"type": "address[]"
						},
						{
							"internalType": "uint256",
							"name": "_lockPeriod",
							"type": "uint256"
						},
						{
							"internalType": "uint256",
							"name": "_rewardPerWave",
							"type": "uint256"
						},
						{
							"internalType": "uint256",
							"name": "_wave",
							"type": "uint256"
						}
					],
					"stateMutability": "nonpayable",
					"type": "constructor"
				},
				{
					"anonymous": false,
					"inputs": [
						{
							"indexed": false,
							"internalType": "uint256",
							"name": "lockPeriod",
							"type": "uint256"
						}
					],
					"name": "LockPeriodUpdated",
					"type": "event"
				},
				{
					"anonymous": false,
					"inputs": [
						{
							"indexed": true,
							"internalType": "address",
							"name": "owner",
							"type": "address"
						},
						{
							"indexed": false,
							"internalType": "uint256[]",
							"name": "tokenIds",
							"type": "uint256[]"
						}
					],
					"name": "NFTLocked",
					"type": "event"
				},
				{
					"anonymous": false,
					"inputs": [
						{
							"indexed": true,
							"internalType": "address",
							"name": "owner",
							"type": "address"
						},
						{
							"indexed": false,
							"internalType": "uint256[]",
							"name": "tokenIds",
							"type": "uint256[]"
						}
					],
					"name": "NFTUnLocked",
					"type": "event"
				},
				{
					"anonymous": false,
					"inputs": [
						{
							"indexed": true,
							"internalType": "address",
							"name": "previousOwner",
							"type": "address"
						},
						{
							"indexed": true,
							"internalType": "address",
							"name": "newOwner",
							"type": "address"
						}
					],
					"name": "OwnershipTransferred",
					"type": "event"
				},
				{
					"anonymous": false,
					"inputs": [
						{
							"indexed": true,
							"internalType": "address",
							"name": "owner",
							"type": "address"
						},
						{
							"indexed": false,
							"internalType": "uint256[]",
							"name": "tokenIds",
							"type": "uint256[]"
						},
						{
							"indexed": false,
							"internalType": "uint256",
							"name": "rewards",
							"type": "uint256"
						}
					],
					"name": "RewardsClaimed",
					"type": "event"
				},
				{
					"inputs": [],
					"name": "WAVE",
					"outputs": [
						{
							"internalType": "uint256",
							"name": "",
							"type": "uint256"
						}
					],
					"stateMutability": "view",
					"type": "function"
				},
				{
					"inputs": [
						{
							"internalType": "uint256[]",
							"name": "_tokenIds",
							"type": "uint256[]"
						}
					],
					"name": "claimRewards",
					"outputs": [],
					"stateMutability": "nonpayable",
					"type": "function"
				},
				{
					"inputs": [
						{
							"internalType": "uint256",
							"name": "_tokenId",
							"type": "uint256"
						}
					],
					"name": "claimedRewards",
					"outputs": [
						{
							"internalType": "uint256",
							"name": "",
							"type": "uint256"
						}
					],
					"stateMutability": "view",
					"type": "function"
				},
				{
					"inputs": [
						{
							"internalType": "uint256[]",
							"name": "_tokenIds",
							"type": "uint256[]"
						}
					],
					"name": "lockNFT",
					"outputs": [],
					"stateMutability": "nonpayable",
					"type": "function"
				},
				{
					"inputs": [],
					"name": "lockPeriod",
					"outputs": [
						{
							"internalType": "uint256",
							"name": "",
							"type": "uint256"
						}
					],
					"stateMutability": "view",
					"type": "function"
				},
				{
					"inputs": [],
					"name": "owner",
					"outputs": [
						{
							"internalType": "address",
							"name": "",
							"type": "address"
						}
					],
					"stateMutability": "view",
					"type": "function"
				},
				{
					"inputs": [],
					"name": "renounceOwnership",
					"outputs": [],
					"stateMutability": "nonpayable",
					"type": "function"
				},
				{
					"inputs": [],
					"name": "rewardsPerWave",
					"outputs": [
						{
							"internalType": "uint256",
							"name": "",
							"type": "uint256"
						}
					],
					"stateMutability": "view",
					"type": "function"
				},
				{
					"inputs": [
						{
							"internalType": "uint256",
							"name": "",
							"type": "uint256"
						}
					],
					"name": "rewardsToken",
					"outputs": [
						{
							"internalType": "contract IRewardsToken",
							"name": "",
							"type": "address"
						}
					],
					"stateMutability": "view",
					"type": "function"
				},
				{
					"inputs": [
						{
							"internalType": "uint256",
							"name": "_lockPeriod",
							"type": "uint256"
						}
					],
					"name": "setLockPeriod",
					"outputs": [],
					"stateMutability": "nonpayable",
					"type": "function"
				},
				{
					"inputs": [],
					"name": "stakeNFT",
					"outputs": [
						{
							"internalType": "contract IERC721",
							"name": "",
							"type": "address"
						}
					],
					"stateMutability": "view",
					"type": "function"
				},
				{
					"inputs": [
						{
							"internalType": "address",
							"name": "newOwner",
							"type": "address"
						}
					],
					"name": "transferOwnership",
					"outputs": [],
					"stateMutability": "nonpayable",
					"type": "function"
				},
				{
					"inputs": [
						{
							"internalType": "uint256[]",
							"name": "_tokenIds",
							"type": "uint256[]"
						}
					],
					"name": "unlockNFT",
					"outputs": [],
					"stateMutability": "nonpayable",
					"type": "function"
				}
			],
			"devdoc": {
				"kind": "dev",
				"methods": {
					"claimRewards(uint256[])": {
						"details": "claim rewards",
						"params": {
							"_tokenIds": "token ids to unlock"
						}
					},
					"claimedRewards(uint256)": {
						"details": "get total claimed rewards for token id",
						"params": {
							"_tokenId": "token id to get claimed Rewards amount"
						}
					},
					"lockNFT(uint256[])": {
						"details": "lock NFT into the contract",
						"params": {
							"_tokenIds": "token ids to stake"
						}
					},
					"owner()": {
						"details": "Returns the address of the current owner."
					},
					"renounceOwnership()": {
						"details": "Leaves the contract without owner. It will not be possible to call `onlyOwner` functions anymore. Can only be called by the current owner. NOTE: Renouncing ownership will leave the contract without an owner, thereby removing any functionality that is only available to the owner."
					},
					"setLockPeriod(uint256)": {
						"details": "update lock period",
						"params": {
							"_lockPeriod": "lock period to set"
						}
					},
					"transferOwnership(address)": {
						"details": "Transfers ownership of the contract to a new account (`newOwner`). Can only be called by the current owner."
					},
					"unlockNFT(uint256[])": {
						"details": "unlock NFT from the contract",
						"params": {
							"_tokenIds": "token ids to unlock"
						}
					}
				},
				"version": 1
			},
			"evm": {
				"assembly": "    /* \"contracts/Staking.sol\":412:6314  contract NFTStaking1 is Ownable, ReentrancyGuard {... */\n  mstore(0x40, 0xa0)\n    /* \"contracts/Staking.sol\":1432:2191  constructor(... */\n  callvalue\n  dup1\n  iszero\n  tag_1\n  jumpi\n  0x00\n  dup1\n  revert\ntag_1:\n  pop\n  mload(0x40)\n  sub(codesize, bytecodeSize)\n  dup1\n  bytecodeSize\n  dup4\n  codecopy\n  dup2\n  dup2\n  add\n  0x40\n  mstore\n  dup2\n  add\n  swap1\n  tag_2\n  swap2\n  swap1\n  tag_3\n  jump\t// in\ntag_2:\n    /* \"@openzeppelin/contracts/access/Ownable.sol\":936:968  _transferOwnership(_msgSender()) */\n  tag_8\n    /* \"@openzeppelin/contracts/access/Ownable.sol\":955:967  _msgSender() */\n  tag_9\n    /* \"@openzeppelin/contracts/access/Ownable.sol\":955:965  _msgSender */\n  shl(0x20, tag_10)\n    /* \"@openzeppelin/contracts/access/Ownable.sol\":955:967  _msgSender() */\n  0x20\n  shr\n  jump\t// in\ntag_9:\n    /* \"@openzeppelin/contracts/access/Ownable.sol\":936:954  _transferOwnership */\n  shl(0x20, tag_11)\n    /* \"@openzeppelin/contracts/access/Ownable.sol\":936:968  _transferOwnership(_msgSender()) */\n  0x20\n  shr\n  jump\t// in\ntag_8:\n    /* \"@openzeppelin/contracts/security/ReentrancyGuard.sol\":1701:1702  1 */\n  0x01\n    /* \"@openzeppelin/contracts/security/ReentrancyGuard.sol\":1806:1813  _status */\n  dup1\n    /* \"@openzeppelin/contracts/security/ReentrancyGuard.sol\":1806:1828  _status = _NOT_ENTERED */\n  dup2\n  swap1\n  sstore\n  pop\n    /* \"contracts/Staking.sol\":1781:1790  _stakeNFT */\n  dup5\n    /* \"contracts/Staking.sol\":1773:1809  IERC165(_stakeNFT).supportsInterface */\n  0xffffffffffffffffffffffffffffffffffffffff\n  and\n  0x01ffc9a7\n    /* \"contracts/Staking.sol\":1810:1820  0x80ac58cd */\n  0x80ac58cd\n    /* \"contracts/Staking.sol\":1773:1821  IERC165(_stakeNFT).supportsInterface(0x80ac58cd) */\n  mload(0x40)\n  dup3\n  0xffffffff\n  and\n  0xe0\n  shl\n  dup2\n  mstore\n  0x04\n  add\n  tag_14\n  swap2\n  swap1\n  tag_15\n  jump\t// in\ntag_14:\n  0x20\n  mload(0x40)\n  dup1\n  dup4\n  sub\n  dup2\n  dup7\n  gas\n  staticcall\n  iszero\n  dup1\n  iszero\n  tag_17\n  jumpi\n  returndatasize\n  0x00\n  dup1\n  returndatacopy\n  revert(0x00, returndatasize)\ntag_17:\n  pop\n  pop\n  pop\n  pop\n  mload(0x40)\n  returndatasize\n  not(0x1f)\n  0x1f\n  dup3\n  add\n  and\n  dup3\n  add\n  dup1\n  0x40\n  mstore\n  pop\n  dup2\n  add\n  swap1\n  tag_18\n  swap2\n  swap1\n  tag_19\n  jump\t// in\ntag_18:\n    /* \"contracts/Staking.sol\":1765:1836  require(IERC165(_stakeNFT).supportsInterface(0x80ac58cd), \"Non-erc721\") */\n  tag_20\n  jumpi\n  mload(0x40)\n  0x08c379a000000000000000000000000000000000000000000000000000000000\n  dup2\n  mstore\n  0x04\n  add\n  tag_21\n  swap1\n  tag_22\n  jump\t// in\ntag_21:\n  mload(0x40)\n  dup1\n  swap2\n  sub\n  swap1\n  revert\ntag_20:\n    /* \"contracts/Staking.sol\":1869:1870  0 */\n  0x00\n    /* \"contracts/Staking.sol\":1855:1866  _lockPeriod */\n  dup4\n    /* \"contracts/Staking.sol\":1855:1870  _lockPeriod > 0 */\n  gt\n    /* \"contracts/Staking.sol\":1847:1894  require(_lockPeriod > 0, \"Invalid lock period\") */\n  tag_23\n  jumpi\n  mload(0x40)\n  0x08c379a000000000000000000000000000000000000000000000000000000000\n  dup2\n  mstore\n  0x04\n  add\n  tag_24\n  swap1\n  tag_25\n  jump\t// in\ntag_24:\n  mload(0x40)\n  dup1\n  swap2\n  sub\n  swap1\n  revert\ntag_23:\n    /* \"contracts/Staking.sol\":1912:1918  uint i */\n  0x00\n    /* \"contracts/Staking.sol\":1907:2042  for (uint i = 0; i < _rewardsToken.length; i++) {... */\ntag_26:\n    /* \"contracts/Staking.sol\":1928:1941  _rewardsToken */\n  dup5\n    /* \"contracts/Staking.sol\":1928:1948  _rewardsToken.length */\n  mload\n    /* \"contracts/Staking.sol\":1924:1925  i */\n  dup2\n    /* \"contracts/Staking.sol\":1924:1948  i < _rewardsToken.length */\n  lt\n    /* \"contracts/Staking.sol\":1907:2042  for (uint i = 0; i < _rewardsToken.length; i++) {... */\n  iszero\n  tag_27\n  jumpi\n    /* \"contracts/Staking.sol\":1972:1984  rewardsToken */\n  0x02\n    /* \"contracts/Staking.sol\":2004:2017  _rewardsToken */\n  dup6\n    /* \"contracts/Staking.sol\":2018:2019  i */\n  dup3\n    /* \"contracts/Staking.sol\":2004:2020  _rewardsToken[i] */\n  dup2\n  mload\n  dup2\n  lt\n  tag_29\n  jumpi\n  tag_30\n  tag_31\n  jump\t// in\ntag_30:\ntag_29:\n  0x20\n  mul\n  0x20\n  add\n  add\n  mload\n    /* \"contracts/Staking.sol\":1972:2022  rewardsToken.push(IRewardsToken(_rewardsToken[i])) */\n  swap1\n  dup1\n  0x01\n  dup2\n  sload\n  add\n  dup1\n  dup3\n  sstore\n  dup1\n  swap2\n  pop\n  pop\n  0x01\n  swap1\n  sub\n  swap1\n  0x00\n  mstore\n  keccak256(0x00, 0x20)\n  add\n  0x00\n  swap1\n  swap2\n  swap1\n  swap2\n  swap1\n  swap2\n  0x0100\n  exp\n  dup2\n  sload\n  dup2\n  0xffffffffffffffffffffffffffffffffffffffff\n  mul\n  not\n  and\n  swap1\n  dup4\n  0xffffffffffffffffffffffffffffffffffffffff\n  and\n  mul\n  or\n  swap1\n  sstore\n  pop\n    /* \"contracts/Staking.sol\":1950:1953  i++ */\n  dup1\n  dup1\n  tag_33\n  swap1\n  tag_34\n  jump\t// in\ntag_33:\n  swap2\n  pop\n  pop\n    /* \"contracts/Staking.sol\":1907:2042  for (uint i = 0; i < _rewardsToken.length; i++) {... */\n  jump(tag_26)\ntag_27:\n  pop\n    /* \"contracts/Staking.sol\":2073:2082  _stakeNFT */\n  dup5\n    /* \"contracts/Staking.sol\":2054:2083  stakeNFT = IERC721(_stakeNFT) */\n  0xffffffffffffffffffffffffffffffffffffffff\n  and\n  0x80\n  dup2\n  0xffffffffffffffffffffffffffffffffffffffff\n  and\n  dup2\n  mstore\n  pop\n  pop\n    /* \"contracts/Staking.sol\":2107:2118  _lockPeriod */\n  dup3\n    /* \"contracts/Staking.sol\":2094:2104  lockPeriod */\n  0x03\n    /* \"contracts/Staking.sol\":2094:2118  lockPeriod = _lockPeriod */\n  dup2\n  swap1\n  sstore\n  pop\n    /* \"contracts/Staking.sol\":2146:2160  _rewardPerWave */\n  dup2\n    /* \"contracts/Staking.sol\":2129:2143  rewardsPerWave */\n  0x06\n    /* \"contracts/Staking.sol\":2129:2160  rewardsPerWave = _rewardPerWave */\n  dup2\n  swap1\n  sstore\n  pop\n    /* \"contracts/Staking.sol\":2178:2183  _wave */\n  dup1\n    /* \"contracts/Staking.sol\":2171:2175  WAVE */\n  0x05\n    /* \"contracts/Staking.sol\":2171:2183  WAVE = _wave */\n  dup2\n  swap1\n  sstore\n  pop\n    /* \"contracts/Staking.sol\":1432:2191  constructor(... */\n  pop\n  pop\n  pop\n  pop\n  pop\n    /* \"contracts/Staking.sol\":412:6314  contract NFTStaking1 is Ownable, ReentrancyGuard {... */\n  jump(tag_35)\n    /* \"@openzeppelin/contracts/utils/Context.sol\":640:736  function _msgSender() internal view virtual returns (address) {... */\ntag_10:\n    /* \"@openzeppelin/contracts/utils/Context.sol\":693:700  address */\n  0x00\n    /* \"@openzeppelin/contracts/utils/Context.sol\":719:729  msg.sender */\n  caller\n    /* \"@openzeppelin/contracts/utils/Context.sol\":712:729  return msg.sender */\n  swap1\n  pop\n    /* \"@openzeppelin/contracts/utils/Context.sol\":640:736  function _msgSender() internal view virtual returns (address) {... */\n  swap1\n  jump\t// out\n    /* \"@openzeppelin/contracts/access/Ownable.sol\":2433:2620  function _transferOwnership(address newOwner) internal virtual {... */\ntag_11:\n    /* \"@openzeppelin/contracts/access/Ownable.sol\":2506:2522  address oldOwner */\n  0x00\n    /* \"@openzeppelin/contracts/access/Ownable.sol\":2525:2531  _owner */\n  dup1\n  0x00\n  swap1\n  sload\n  swap1\n  0x0100\n  exp\n  swap1\n  div\n  0xffffffffffffffffffffffffffffffffffffffff\n  and\n    /* \"@openzeppelin/contracts/access/Ownable.sol\":2506:2531  address oldOwner = _owner */\n  swap1\n  pop\n    /* \"@openzeppelin/contracts/access/Ownable.sol\":2550:2558  newOwner */\n  dup2\n    /* \"@openzeppelin/contracts/access/Ownable.sol\":2541:2547  _owner */\n  0x00\n  dup1\n    /* \"@openzeppelin/contracts/access/Ownable.sol\":2541:2558  _owner = newOwner */\n  0x0100\n  exp\n  dup2\n  sload\n  dup2\n  0xffffffffffffffffffffffffffffffffffffffff\n  mul\n  not\n  and\n  swap1\n  dup4\n  0xffffffffffffffffffffffffffffffffffffffff\n  and\n  mul\n  or\n  swap1\n  sstore\n  pop\n    /* \"@openzeppelin/contracts/access/Ownable.sol\":2604:2612  newOwner */\n  dup2\n    /* \"@openzeppelin/contracts/access/Ownable.sol\":2573:2613  OwnershipTransferred(oldOwner, newOwner) */\n  0xffffffffffffffffffffffffffffffffffffffff\n  and\n    /* \"@openzeppelin/contracts/access/Ownable.sol\":2594:2602  oldOwner */\n  dup2\n    /* \"@openzeppelin/contracts/access/Ownable.sol\":2573:2613  OwnershipTransferred(oldOwner, newOwner) */\n  0xffffffffffffffffffffffffffffffffffffffff\n  and\n  0x8be0079c531659141344cd1fd0a4f28419497f9722a3daafe3b4186f6b6457e0\n  mload(0x40)\n  mload(0x40)\n  dup1\n  swap2\n  sub\n  swap1\n  log3\n    /* \"@openzeppelin/contracts/access/Ownable.sol\":2496:2620  {... */\n  pop\n    /* \"@openzeppelin/contracts/access/Ownable.sol\":2433:2620  function _transferOwnership(address newOwner) internal virtual {... */\n  pop\n  jump\t// out\n    /* \"#utility.yul\":7:82   */\ntag_38:\n    /* \"#utility.yul\":40:46   */\n  0x00\n    /* \"#utility.yul\":73:75   */\n  0x40\n    /* \"#utility.yul\":67:76   */\n  mload\n    /* \"#utility.yul\":57:76   */\n  swap1\n  pop\n    /* \"#utility.yul\":7:82   */\n  swap1\n  jump\t// out\n    /* \"#utility.yul\":88:205   */\ntag_39:\n    /* \"#utility.yul\":197:198   */\n  0x00\n    /* \"#utility.yul\":194:195   */\n  dup1\n    /* \"#utility.yul\":187:199   */\n  revert\n    /* \"#utility.yul\":211:328   */\ntag_40:\n    /* \"#utility.yul\":320:321   */\n  0x00\n    /* \"#utility.yul\":317:318   */\n  dup1\n    /* \"#utility.yul\":310:322   */\n  revert\n    /* \"#utility.yul\":334:460   */\ntag_41:\n    /* \"#utility.yul\":371:378   */\n  0x00\n    /* \"#utility.yul\":411:453   */\n  0xffffffffffffffffffffffffffffffffffffffff\n    /* \"#utility.yul\":404:409   */\n  dup3\n    /* \"#utility.yul\":400:454   */\n  and\n    /* \"#utility.yul\":389:454   */\n  swap1\n  pop\n    /* \"#utility.yul\":334:460   */\n  swap2\n  swap1\n  pop\n  jump\t// out\n    /* \"#utility.yul\":466:562   */\ntag_42:\n    /* \"#utility.yul\":503:510   */\n  0x00\n    /* \"#utility.yul\":532:556   */\n  tag_77\n    /* \"#utility.yul\":550:555   */\n  dup3\n    /* \"#utility.yul\":532:556   */\n  tag_41\n  jump\t// in\ntag_77:\n    /* \"#utility.yul\":521:556   */\n  swap1\n  pop\n    /* \"#utility.yul\":466:562   */\n  swap2\n  swap1\n  pop\n  jump\t// out\n    /* \"#utility.yul\":568:690   */\ntag_43:\n    /* \"#utility.yul\":641:665   */\n  tag_79\n    /* \"#utility.yul\":659:664   */\n  dup2\n    /* \"#utility.yul\":641:665   */\n  tag_42\n  jump\t// in\ntag_79:\n    /* \"#utility.yul\":634:639   */\n  dup2\n    /* \"#utility.yul\":631:666   */\n  eq\n    /* \"#utility.yul\":621:684   */\n  tag_80\n  jumpi\n    /* \"#utility.yul\":680:681   */\n  0x00\n    /* \"#utility.yul\":677:678   */\n  dup1\n    /* \"#utility.yul\":670:682   */\n  revert\n    /* \"#utility.yul\":621:684   */\ntag_80:\n    /* \"#utility.yul\":568:690   */\n  pop\n  jump\t// out\n    /* \"#utility.yul\":696:839   */\ntag_44:\n    /* \"#utility.yul\":753:758   */\n  0x00\n    /* \"#utility.yul\":784:790   */\n  dup2\n    /* \"#utility.yul\":778:791   */\n  mload\n    /* \"#utility.yul\":769:791   */\n  swap1\n  pop\n    /* \"#utility.yul\":800:833   */\n  tag_82\n    /* \"#utility.yul\":827:832   */\n  dup2\n    /* \"#utility.yul\":800:833   */\n  tag_43\n  jump\t// in\ntag_82:\n    /* \"#utility.yul\":696:839   */\n  swap3\n  swap2\n  pop\n  pop\n  jump\t// out\n    /* \"#utility.yul\":845:962   */\ntag_45:\n    /* \"#utility.yul\":954:955   */\n  0x00\n    /* \"#utility.yul\":951:952   */\n  dup1\n    /* \"#utility.yul\":944:956   */\n  revert\n    /* \"#utility.yul\":968:1070   */\ntag_46:\n    /* \"#utility.yul\":1009:1015   */\n  0x00\n    /* \"#utility.yul\":1060:1062   */\n  0x1f\n    /* \"#utility.yul\":1056:1063   */\n  not\n    /* \"#utility.yul\":1051:1053   */\n  0x1f\n    /* \"#utility.yul\":1044:1049   */\n  dup4\n    /* \"#utility.yul\":1040:1054   */\n  add\n    /* \"#utility.yul\":1036:1064   */\n  and\n    /* \"#utility.yul\":1026:1064   */\n  swap1\n  pop\n    /* \"#utility.yul\":968:1070   */\n  swap2\n  swap1\n  pop\n  jump\t// out\n    /* \"#utility.yul\":1076:1256   */\ntag_47:\n    /* \"#utility.yul\":1124:1201   */\n  0x4e487b7100000000000000000000000000000000000000000000000000000000\n    /* \"#utility.yul\":1121:1122   */\n  0x00\n    /* \"#utility.yul\":1114:1202   */\n  mstore\n    /* \"#utility.yul\":1221:1225   */\n  0x41\n    /* \"#utility.yul\":1218:1219   */\n  0x04\n    /* \"#utility.yul\":1211:1226   */\n  mstore\n    /* \"#utility.yul\":1245:1249   */\n  0x24\n    /* \"#utility.yul\":1242:1243   */\n  0x00\n    /* \"#utility.yul\":1235:1250   */\n  revert\n    /* \"#utility.yul\":1262:1543   */\ntag_48:\n    /* \"#utility.yul\":1345:1372   */\n  tag_87\n    /* \"#utility.yul\":1367:1371   */\n  dup3\n    /* \"#utility.yul\":1345:1372   */\n  tag_46\n  jump\t// in\ntag_87:\n    /* \"#utility.yul\":1337:1343   */\n  dup2\n    /* \"#utility.yul\":1333:1373   */\n  add\n    /* \"#utility.yul\":1475:1481   */\n  dup2\n    /* \"#utility.yul\":1463:1473   */\n  dup2\n    /* \"#utility.yul\":1460:1482   */\n  lt\n    /* \"#utility.yul\":1439:1457   */\n  0xffffffffffffffff\n    /* \"#utility.yul\":1427:1437   */\n  dup3\n    /* \"#utility.yul\":1424:1458   */\n  gt\n    /* \"#utility.yul\":1421:1483   */\n  or\n    /* \"#utility.yul\":1418:1506   */\n  iszero\n  tag_88\n  jumpi\n    /* \"#utility.yul\":1486:1504   */\n  tag_89\n  tag_47\n  jump\t// in\ntag_89:\n    /* \"#utility.yul\":1418:1506   */\ntag_88:\n    /* \"#utility.yul\":1526:1536   */\n  dup1\n    /* \"#utility.yul\":1522:1524   */\n  0x40\n    /* \"#utility.yul\":1515:1537   */\n  mstore\n    /* \"#utility.yul\":1305:1543   */\n  pop\n    /* \"#utility.yul\":1262:1543   */\n  pop\n  pop\n  jump\t// out\n    /* \"#utility.yul\":1549:1678   */\ntag_49:\n    /* \"#utility.yul\":1583:1589   */\n  0x00\n    /* \"#utility.yul\":1610:1630   */\n  tag_91\n  tag_38\n  jump\t// in\ntag_91:\n    /* \"#utility.yul\":1600:1630   */\n  swap1\n  pop\n    /* \"#utility.yul\":1639:1672   */\n  tag_92\n    /* \"#utility.yul\":1667:1671   */\n  dup3\n    /* \"#utility.yul\":1659:1665   */\n  dup3\n    /* \"#utility.yul\":1639:1672   */\n  tag_48\n  jump\t// in\ntag_92:\n    /* \"#utility.yul\":1549:1678   */\n  swap2\n  swap1\n  pop\n  jump\t// out\n    /* \"#utility.yul\":1684:1995   */\ntag_50:\n    /* \"#utility.yul\":1761:1765   */\n  0x00\n    /* \"#utility.yul\":1851:1869   */\n  0xffffffffffffffff\n    /* \"#utility.yul\":1843:1849   */\n  dup3\n    /* \"#utility.yul\":1840:1870   */\n  gt\n    /* \"#utility.yul\":1837:1893   */\n  iszero\n  tag_94\n  jumpi\n    /* \"#utility.yul\":1873:1891   */\n  tag_95\n  tag_47\n  jump\t// in\ntag_95:\n    /* \"#utility.yul\":1837:1893   */\ntag_94:\n    /* \"#utility.yul\":1923:1927   */\n  0x20\n    /* \"#utility.yul\":1915:1921   */\n  dup3\n    /* \"#utility.yul\":1911:1928   */\n  mul\n    /* \"#utility.yul\":1903:1928   */\n  swap1\n  pop\n    /* \"#utility.yul\":1983:1987   */\n  0x20\n    /* \"#utility.yul\":1977:1981   */\n  dup2\n    /* \"#utility.yul\":1973:1988   */\n  add\n    /* \"#utility.yul\":1965:1988   */\n  swap1\n  pop\n    /* \"#utility.yul\":1684:1995   */\n  swap2\n  swap1\n  pop\n  jump\t// out\n    /* \"#utility.yul\":2001:2118   */\ntag_51:\n    /* \"#utility.yul\":2110:2111   */\n  0x00\n    /* \"#utility.yul\":2107:2108   */\n  dup1\n    /* \"#utility.yul\":2100:2112   */\n  revert\n    /* \"#utility.yul\":2141:2873   */\ntag_52:\n    /* \"#utility.yul\":2248:2253   */\n  0x00\n    /* \"#utility.yul\":2273:2354   */\n  tag_98\n    /* \"#utility.yul\":2289:2353   */\n  tag_99\n    /* \"#utility.yul\":2346:2352   */\n  dup5\n    /* \"#utility.yul\":2289:2353   */\n  tag_50\n  jump\t// in\ntag_99:\n    /* \"#utility.yul\":2273:2354   */\n  tag_49\n  jump\t// in\ntag_98:\n    /* \"#utility.yul\":2264:2354   */\n  swap1\n  pop\n    /* \"#utility.yul\":2374:2379   */\n  dup1\n    /* \"#utility.yul\":2403:2409   */\n  dup4\n    /* \"#utility.yul\":2396:2401   */\n  dup3\n    /* \"#utility.yul\":2389:2410   */\n  mstore\n    /* \"#utility.yul\":2437:2441   */\n  0x20\n    /* \"#utility.yul\":2430:2435   */\n  dup3\n    /* \"#utility.yul\":2426:2442   */\n  add\n    /* \"#utility.yul\":2419:2442   */\n  swap1\n  pop\n    /* \"#utility.yul\":2490:2494   */\n  0x20\n    /* \"#utility.yul\":2482:2488   */\n  dup5\n    /* \"#utility.yul\":2478:2495   */\n  mul\n    /* \"#utility.yul\":2470:2476   */\n  dup4\n    /* \"#utility.yul\":2466:2496   */\n  add\n    /* \"#utility.yul\":2519:2522   */\n  dup6\n    /* \"#utility.yul\":2511:2517   */\n  dup2\n    /* \"#utility.yul\":2508:2523   */\n  gt\n    /* \"#utility.yul\":2505:2627   */\n  iszero\n  tag_100\n  jumpi\n    /* \"#utility.yul\":2538:2617   */\n  tag_101\n  tag_51\n  jump\t// in\ntag_101:\n    /* \"#utility.yul\":2505:2627   */\ntag_100:\n    /* \"#utility.yul\":2653:2659   */\n  dup4\n    /* \"#utility.yul\":2636:2867   */\ntag_102:\n    /* \"#utility.yul\":2670:2676   */\n  dup2\n    /* \"#utility.yul\":2665:2668   */\n  dup2\n    /* \"#utility.yul\":2662:2677   */\n  lt\n    /* \"#utility.yul\":2636:2867   */\n  iszero\n  tag_104\n  jumpi\n    /* \"#utility.yul\":2745:2748   */\n  dup1\n    /* \"#utility.yul\":2774:2822   */\n  tag_105\n    /* \"#utility.yul\":2818:2821   */\n  dup9\n    /* \"#utility.yul\":2806:2816   */\n  dup3\n    /* \"#utility.yul\":2774:2822   */\n  tag_44\n  jump\t// in\ntag_105:\n    /* \"#utility.yul\":2769:2772   */\n  dup5\n    /* \"#utility.yul\":2762:2823   */\n  mstore\n    /* \"#utility.yul\":2852:2856   */\n  0x20\n    /* \"#utility.yul\":2847:2850   */\n  dup5\n    /* \"#utility.yul\":2843:2857   */\n  add\n    /* \"#utility.yul\":2836:2857   */\n  swap4\n  pop\n    /* \"#utility.yul\":2712:2867   */\n  pop\n    /* \"#utility.yul\":2696:2700   */\n  0x20\n    /* \"#utility.yul\":2691:2694   */\n  dup2\n    /* \"#utility.yul\":2687:2701   */\n  add\n    /* \"#utility.yul\":2680:2701   */\n  swap1\n  pop\n    /* \"#utility.yul\":2636:2867   */\n  jump(tag_102)\ntag_104:\n    /* \"#utility.yul\":2640:2661   */\n  pop\n    /* \"#utility.yul\":2254:2873   */\n  pop\n  pop\n    /* \"#utility.yul\":2141:2873   */\n  swap4\n  swap3\n  pop\n  pop\n  pop\n  jump\t// out\n    /* \"#utility.yul\":2896:3281   */\ntag_53:\n    /* \"#utility.yul\":2978:2983   */\n  0x00\n    /* \"#utility.yul\":3027:3030   */\n  dup3\n    /* \"#utility.yul\":3020:3024   */\n  0x1f\n    /* \"#utility.yul\":3012:3018   */\n  dup4\n    /* \"#utility.yul\":3008:3025   */\n  add\n    /* \"#utility.yul\":3004:3031   */\n  slt\n    /* \"#utility.yul\":2994:3116   */\n  tag_107\n  jumpi\n    /* \"#utility.yul\":3035:3114   */\n  tag_108\n  tag_45\n  jump\t// in\ntag_108:\n    /* \"#utility.yul\":2994:3116   */\ntag_107:\n    /* \"#utility.yul\":3145:3151   */\n  dup2\n    /* \"#utility.yul\":3139:3152   */\n  mload\n    /* \"#utility.yul\":3170:3275   */\n  tag_109\n    /* \"#utility.yul\":3271:3274   */\n  dup5\n    /* \"#utility.yul\":3263:3269   */\n  dup3\n    /* \"#utility.yul\":3256:3260   */\n  0x20\n    /* \"#utility.yul\":3248:3254   */\n  dup7\n    /* \"#utility.yul\":3244:3261   */\n  add\n    /* \"#utility.yul\":3170:3275   */\n  tag_52\n  jump\t// in\ntag_109:\n    /* \"#utility.yul\":3161:3275   */\n  swap2\n  pop\n    /* \"#utility.yul\":2984:3281   */\n  pop\n    /* \"#utility.yul\":2896:3281   */\n  swap3\n  swap2\n  pop\n  pop\n  jump\t// out\n    /* \"#utility.yul\":3287:3364   */\ntag_54:\n    /* \"#utility.yul\":3324:3331   */\n  0x00\n    /* \"#utility.yul\":3353:3358   */\n  dup2\n    /* \"#utility.yul\":3342:3358   */\n  swap1\n  pop\n    /* \"#utility.yul\":3287:3364   */\n  swap2\n  swap1\n  pop\n  jump\t// out\n    /* \"#utility.yul\":3370:3492   */\ntag_55:\n    /* \"#utility.yul\":3443:3467   */\n  tag_112\n    /* \"#utility.yul\":3461:3466   */\n  dup2\n    /* \"#utility.yul\":3443:3467   */\n  tag_54\n  jump\t// in\ntag_112:\n    /* \"#utility.yul\":3436:3441   */\n  dup2\n    /* \"#utility.yul\":3433:3468   */\n  eq\n    /* \"#utility.yul\":3423:3486   */\n  tag_113\n  jumpi\n    /* \"#utility.yul\":3482:3483   */\n  0x00\n    /* \"#utility.yul\":3479:3480   */\n  dup1\n    /* \"#utility.yul\":3472:3484   */\n  revert\n    /* \"#utility.yul\":3423:3486   */\ntag_113:\n    /* \"#utility.yul\":3370:3492   */\n  pop\n  jump\t// out\n    /* \"#utility.yul\":3498:3641   */\ntag_56:\n    /* \"#utility.yul\":3555:3560   */\n  0x00\n    /* \"#utility.yul\":3586:3592   */\n  dup2\n    /* \"#utility.yul\":3580:3593   */\n  mload\n    /* \"#utility.yul\":3571:3593   */\n  swap1\n  pop\n    /* \"#utility.yul\":3602:3635   */\n  tag_115\n    /* \"#utility.yul\":3629:3634   */\n  dup2\n    /* \"#utility.yul\":3602:3635   */\n  tag_55\n  jump\t// in\ntag_115:\n    /* \"#utility.yul\":3498:3641   */\n  swap3\n  swap2\n  pop\n  pop\n  jump\t// out\n    /* \"#utility.yul\":3647:4827   */\ntag_3:\n    /* \"#utility.yul\":3778:3784   */\n  0x00\n    /* \"#utility.yul\":3786:3792   */\n  dup1\n    /* \"#utility.yul\":3794:3800   */\n  0x00\n    /* \"#utility.yul\":3802:3808   */\n  dup1\n    /* \"#utility.yul\":3810:3816   */\n  0x00\n    /* \"#utility.yul\":3859:3862   */\n  0xa0\n    /* \"#utility.yul\":3847:3856   */\n  dup7\n    /* \"#utility.yul\":3838:3845   */\n  dup9\n    /* \"#utility.yul\":3834:3857   */\n  sub\n    /* \"#utility.yul\":3830:3863   */\n  slt\n    /* \"#utility.yul\":3827:3947   */\n  iszero\n  tag_117\n  jumpi\n    /* \"#utility.yul\":3866:3945   */\n  tag_118\n  tag_39\n  jump\t// in\ntag_118:\n    /* \"#utility.yul\":3827:3947   */\ntag_117:\n    /* \"#utility.yul\":3986:3987   */\n  0x00\n    /* \"#utility.yul\":4011:4075   */\n  tag_119\n    /* \"#utility.yul\":4067:4074   */\n  dup9\n    /* \"#utility.yul\":4058:4064   */\n  dup3\n    /* \"#utility.yul\":4047:4056   */\n  dup10\n    /* \"#utility.yul\":4043:4065   */\n  add\n    /* \"#utility.yul\":4011:4075   */\n  tag_44\n  jump\t// in\ntag_119:\n    /* \"#utility.yul\":4001:4075   */\n  swap6\n  pop\n    /* \"#utility.yul\":3957:4085   */\n  pop\n    /* \"#utility.yul\":4145:4147   */\n  0x20\n    /* \"#utility.yul\":4134:4143   */\n  dup7\n    /* \"#utility.yul\":4130:4148   */\n  add\n    /* \"#utility.yul\":4124:4149   */\n  mload\n    /* \"#utility.yul\":4176:4194   */\n  0xffffffffffffffff\n    /* \"#utility.yul\":4168:4174   */\n  dup2\n    /* \"#utility.yul\":4165:4195   */\n  gt\n    /* \"#utility.yul\":4162:4279   */\n  iszero\n  tag_120\n  jumpi\n    /* \"#utility.yul\":4198:4277   */\n  tag_121\n  tag_40\n  jump\t// in\ntag_121:\n    /* \"#utility.yul\":4162:4279   */\ntag_120:\n    /* \"#utility.yul\":4303:4392   */\n  tag_122\n    /* \"#utility.yul\":4384:4391   */\n  dup9\n    /* \"#utility.yul\":4375:4381   */\n  dup3\n    /* \"#utility.yul\":4364:4373   */\n  dup10\n    /* \"#utility.yul\":4360:4382   */\n  add\n    /* \"#utility.yul\":4303:4392   */\n  tag_53\n  jump\t// in\ntag_122:\n    /* \"#utility.yul\":4293:4392   */\n  swap5\n  pop\n    /* \"#utility.yul\":4095:4402   */\n  pop\n    /* \"#utility.yul\":4441:4443   */\n  0x40\n    /* \"#utility.yul\":4467:4531   */\n  tag_123\n    /* \"#utility.yul\":4523:4530   */\n  dup9\n    /* \"#utility.yul\":4514:4520   */\n  dup3\n    /* \"#utility.yul\":4503:4512   */\n  dup10\n    /* \"#utility.yul\":4499:4521   */\n  add\n    /* \"#utility.yul\":4467:4531   */\n  tag_56\n  jump\t// in\ntag_123:\n    /* \"#utility.yul\":4457:4531   */\n  swap4\n  pop\n    /* \"#utility.yul\":4412:4541   */\n  pop\n    /* \"#utility.yul\":4580:4582   */\n  0x60\n    /* \"#utility.yul\":4606:4670   */\n  tag_124\n    /* \"#utility.yul\":4662:4669   */\n  dup9\n    /* \"#utility.yul\":4653:4659   */\n  dup3\n    /* \"#utility.yul\":4642:4651   */\n  dup10\n    /* \"#utility.yul\":4638:4660   */\n  add\n    /* \"#utility.yul\":4606:4670   */\n  tag_56\n  jump\t// in\ntag_124:\n    /* \"#utility.yul\":4596:4670   */\n  swap3\n  pop\n    /* \"#utility.yul\":4551:4680   */\n  pop\n    /* \"#utility.yul\":4719:4722   */\n  0x80\n    /* \"#utility.yul\":4746:4810   */\n  tag_125\n    /* \"#utility.yul\":4802:4809   */\n  dup9\n    /* \"#utility.yul\":4793:4799   */\n  dup3\n    /* \"#utility.yul\":4782:4791   */\n  dup10\n    /* \"#utility.yul\":4778:4800   */\n  add\n    /* \"#utility.yul\":4746:4810   */\n  tag_56\n  jump\t// in\ntag_125:\n    /* \"#utility.yul\":4736:4810   */\n  swap2\n  pop\n    /* \"#utility.yul\":4690:4820   */\n  pop\n    /* \"#utility.yul\":3647:4827   */\n  swap3\n  swap6\n  pop\n  swap3\n  swap6\n  swap1\n  swap4\n  pop\n  jump\t// out\n    /* \"#utility.yul\":4833:4927   */\ntag_57:\n    /* \"#utility.yul\":4887:4894   */\n  0x00\n    /* \"#utility.yul\":4916:4921   */\n  dup2\n    /* \"#utility.yul\":4905:4921   */\n  swap1\n  pop\n    /* \"#utility.yul\":4833:4927   */\n  swap2\n  swap1\n  pop\n  jump\t// out\n    /* \"#utility.yul\":4933:5082   */\ntag_58:\n    /* \"#utility.yul\":4969:4976   */\n  0x00\n    /* \"#utility.yul\":5009:5075   */\n  0xffffffff00000000000000000000000000000000000000000000000000000000\n    /* \"#utility.yul\":5002:5007   */\n  dup3\n    /* \"#utility.yul\":4998:5076   */\n  and\n    /* \"#utility.yul\":4987:5076   */\n  swap1\n  pop\n    /* \"#utility.yul\":4933:5082   */\n  swap2\n  swap1\n  pop\n  jump\t// out\n    /* \"#utility.yul\":5088:5184   */\ntag_59:\n    /* \"#utility.yul\":5122:5130   */\n  0x00\n    /* \"#utility.yul\":5171:5176   */\n  dup2\n    /* \"#utility.yul\":5166:5169   */\n  0xe0\n    /* \"#utility.yul\":5162:5177   */\n  shl\n    /* \"#utility.yul\":5141:5177   */\n  swap1\n  pop\n    /* \"#utility.yul\":5088:5184   */\n  swap2\n  swap1\n  pop\n  jump\t// out\n    /* \"#utility.yul\":5190:5370   */\ntag_60:\n    /* \"#utility.yul\":5256:5265   */\n  0x00\n    /* \"#utility.yul\":5289:5364   */\n  tag_130\n    /* \"#utility.yul\":5306:5363   */\n  tag_131\n    /* \"#utility.yul\":5321:5362   */\n  tag_132\n    /* \"#utility.yul\":5356:5361   */\n  dup5\n    /* \"#utility.yul\":5321:5362   */\n  tag_57\n  jump\t// in\ntag_132:\n    /* \"#utility.yul\":5306:5363   */\n  tag_59\n  jump\t// in\ntag_131:\n    /* \"#utility.yul\":5289:5364   */\n  tag_58\n  jump\t// in\ntag_130:\n    /* \"#utility.yul\":5276:5364   */\n  swap1\n  pop\n    /* \"#utility.yul\":5190:5370   */\n  swap2\n  swap1\n  pop\n  jump\t// out\n    /* \"#utility.yul\":5376:5539   */\ntag_61:\n    /* \"#utility.yul\":5479:5532   */\n  tag_134\n    /* \"#utility.yul\":5526:5531   */\n  dup2\n    /* \"#utility.yul\":5479:5532   */\n  tag_60\n  jump\t// in\ntag_134:\n    /* \"#utility.yul\":5474:5477   */\n  dup3\n    /* \"#utility.yul\":5467:5533   */\n  mstore\n    /* \"#utility.yul\":5376:5539   */\n  pop\n  pop\n  jump\t// out\n    /* \"#utility.yul\":5545:5799   */\ntag_15:\n    /* \"#utility.yul\":5654:5658   */\n  0x00\n    /* \"#utility.yul\":5692:5694   */\n  0x20\n    /* \"#utility.yul\":5681:5690   */\n  dup3\n    /* \"#utility.yul\":5677:5695   */\n  add\n    /* \"#utility.yul\":5669:5695   */\n  swap1\n  pop\n    /* \"#utility.yul\":5705:5792   */\n  tag_136\n    /* \"#utility.yul\":5789:5790   */\n  0x00\n    /* \"#utility.yul\":5778:5787   */\n  dup4\n    /* \"#utility.yul\":5774:5791   */\n  add\n    /* \"#utility.yul\":5765:5771   */\n  dup5\n    /* \"#utility.yul\":5705:5792   */\n  tag_61\n  jump\t// in\ntag_136:\n    /* \"#utility.yul\":5545:5799   */\n  swap3\n  swap2\n  pop\n  pop\n  jump\t// out\n    /* \"#utility.yul\":5805:5895   */\ntag_62:\n    /* \"#utility.yul\":5839:5846   */\n  0x00\n    /* \"#utility.yul\":5882:5887   */\n  dup2\n    /* \"#utility.yul\":5875:5888   */\n  iszero\n    /* \"#utility.yul\":5868:5889   */\n  iszero\n    /* \"#utility.yul\":5857:5889   */\n  swap1\n  pop\n    /* \"#utility.yul\":5805:5895   */\n  swap2\n  swap1\n  pop\n  jump\t// out\n    /* \"#utility.yul\":5901:6017   */\ntag_63:\n    /* \"#utility.yul\":5971:5992   */\n  tag_139\n    /* \"#utility.yul\":5986:5991   */\n  dup2\n    /* \"#utility.yul\":5971:5992   */\n  tag_62\n  jump\t// in\ntag_139:\n    /* \"#utility.yul\":5964:5969   */\n  dup2\n    /* \"#utility.yul\":5961:5993   */\n  eq\n    /* \"#utility.yul\":5951:6011   */\n  tag_140\n  jumpi\n    /* \"#utility.yul\":6007:6008   */\n  0x00\n    /* \"#utility.yul\":6004:6005   */\n  dup1\n    /* \"#utility.yul\":5997:6009   */\n  revert\n    /* \"#utility.yul\":5951:6011   */\ntag_140:\n    /* \"#utility.yul\":5901:6017   */\n  pop\n  jump\t// out\n    /* \"#utility.yul\":6023:6160   */\ntag_64:\n    /* \"#utility.yul\":6077:6082   */\n  0x00\n    /* \"#utility.yul\":6108:6114   */\n  dup2\n    /* \"#utility.yul\":6102:6115   */\n  mload\n    /* \"#utility.yul\":6093:6115   */\n  swap1\n  pop\n    /* \"#utility.yul\":6124:6154   */\n  tag_142\n    /* \"#utility.yul\":6148:6153   */\n  dup2\n    /* \"#utility.yul\":6124:6154   */\n  tag_63\n  jump\t// in\ntag_142:\n    /* \"#utility.yul\":6023:6160   */\n  swap3\n  swap2\n  pop\n  pop\n  jump\t// out\n    /* \"#utility.yul\":6166:6511   */\ntag_19:\n    /* \"#utility.yul\":6233:6239   */\n  0x00\n    /* \"#utility.yul\":6282:6284   */\n  0x20\n    /* \"#utility.yul\":6270:6279   */\n  dup3\n    /* \"#utility.yul\":6261:6268   */\n  dup5\n    /* \"#utility.yul\":6257:6280   */\n  sub\n    /* \"#utility.yul\":6253:6285   */\n  slt\n    /* \"#utility.yul\":6250:6369   */\n  iszero\n  tag_144\n  jumpi\n    /* \"#utility.yul\":6288:6367   */\n  tag_145\n  tag_39\n  jump\t// in\ntag_145:\n    /* \"#utility.yul\":6250:6369   */\ntag_144:\n    /* \"#utility.yul\":6408:6409   */\n  0x00\n    /* \"#utility.yul\":6433:6494   */\n  tag_146\n    /* \"#utility.yul\":6486:6493   */\n  dup5\n    /* \"#utility.yul\":6477:6483   */\n  dup3\n    /* \"#utility.yul\":6466:6475   */\n  dup6\n    /* \"#utility.yul\":6462:6484   */\n  add\n    /* \"#utility.yul\":6433:6494   */\n  tag_64\n  jump\t// in\ntag_146:\n    /* \"#utility.yul\":6423:6494   */\n  swap2\n  pop\n    /* \"#utility.yul\":6379:6504   */\n  pop\n    /* \"#utility.yul\":6166:6511   */\n  swap3\n  swap2\n  pop\n  pop\n  jump\t// out\n    /* \"#utility.yul\":6517:6686   */\ntag_65:\n    /* \"#utility.yul\":6601:6612   */\n  0x00\n    /* \"#utility.yul\":6635:6641   */\n  dup3\n    /* \"#utility.yul\":6630:6633   */\n  dup3\n    /* \"#utility.yul\":6623:6642   */\n  mstore\n    /* \"#utility.yul\":6675:6679   */\n  0x20\n    /* \"#utility.yul\":6670:6673   */\n  dup3\n    /* \"#utility.yul\":6666:6680   */\n  add\n    /* \"#utility.yul\":6651:6680   */\n  swap1\n  pop\n    /* \"#utility.yul\":6517:6686   */\n  swap3\n  swap2\n  pop\n  pop\n  jump\t// out\n    /* \"#utility.yul\":6692:6852   */\ntag_66:\n    /* \"#utility.yul\":6832:6844   */\n  0x4e6f6e2d65726337323100000000000000000000000000000000000000000000\n    /* \"#utility.yul\":6828:6829   */\n  0x00\n    /* \"#utility.yul\":6820:6826   */\n  dup3\n    /* \"#utility.yul\":6816:6830   */\n  add\n    /* \"#utility.yul\":6809:6845   */\n  mstore\n    /* \"#utility.yul\":6692:6852   */\n  pop\n  jump\t// out\n    /* \"#utility.yul\":6858:7224   */\ntag_67:\n    /* \"#utility.yul\":7000:7003   */\n  0x00\n    /* \"#utility.yul\":7021:7088   */\n  tag_150\n    /* \"#utility.yul\":7085:7087   */\n  0x0a\n    /* \"#utility.yul\":7080:7083   */\n  dup4\n    /* \"#utility.yul\":7021:7088   */\n  tag_65\n  jump\t// in\ntag_150:\n    /* \"#utility.yul\":7014:7088   */\n  swap2\n  pop\n    /* \"#utility.yul\":7097:7190   */\n  tag_151\n    /* \"#utility.yul\":7186:7189   */\n  dup3\n    /* \"#utility.yul\":7097:7190   */\n  tag_66\n  jump\t// in\ntag_151:\n    /* \"#utility.yul\":7215:7217   */\n  0x20\n    /* \"#utility.yul\":7210:7213   */\n  dup3\n    /* \"#utility.yul\":7206:7218   */\n  add\n    /* \"#utility.yul\":7199:7218   */\n  swap1\n  pop\n    /* \"#utility.yul\":6858:7224   */\n  swap2\n  swap1\n  pop\n  jump\t// out\n    /* \"#utility.yul\":7230:7649   */\ntag_22:\n    /* \"#utility.yul\":7396:7400   */\n  0x00\n    /* \"#utility.yul\":7434:7436   */\n  0x20\n    /* \"#utility.yul\":7423:7432   */\n  dup3\n    /* \"#utility.yul\":7419:7437   */\n  add\n    /* \"#utility.yul\":7411:7437   */\n  swap1\n  pop\n    /* \"#utility.yul\":7483:7492   */\n  dup2\n    /* \"#utility.yul\":7477:7481   */\n  dup2\n    /* \"#utility.yul\":7473:7493   */\n  sub\n    /* \"#utility.yul\":7469:7470   */\n  0x00\n    /* \"#utility.yul\":7458:7467   */\n  dup4\n    /* \"#utility.yul\":7454:7471   */\n  add\n    /* \"#utility.yul\":7447:7494   */\n  mstore\n    /* \"#utility.yul\":7511:7642   */\n  tag_153\n    /* \"#utility.yul\":7637:7641   */\n  dup2\n    /* \"#utility.yul\":7511:7642   */\n  tag_67\n  jump\t// in\ntag_153:\n    /* \"#utility.yul\":7503:7642   */\n  swap1\n  pop\n    /* \"#utility.yul\":7230:7649   */\n  swap2\n  swap1\n  pop\n  jump\t// out\n    /* \"#utility.yul\":7655:7824   */\ntag_68:\n    /* \"#utility.yul\":7795:7816   */\n  0x496e76616c6964206c6f636b20706572696f6400000000000000000000000000\n    /* \"#utility.yul\":7791:7792   */\n  0x00\n    /* \"#utility.yul\":7783:7789   */\n  dup3\n    /* \"#utility.yul\":7779:7793   */\n  add\n    /* \"#utility.yul\":7772:7817   */\n  mstore\n    /* \"#utility.yul\":7655:7824   */\n  pop\n  jump\t// out\n    /* \"#utility.yul\":7830:8196   */\ntag_69:\n    /* \"#utility.yul\":7972:7975   */\n  0x00\n    /* \"#utility.yul\":7993:8060   */\n  tag_156\n    /* \"#utility.yul\":8057:8059   */\n  0x13\n    /* \"#utility.yul\":8052:8055   */\n  dup4\n    /* \"#utility.yul\":7993:8060   */\n  tag_65\n  jump\t// in\ntag_156:\n    /* \"#utility.yul\":7986:8060   */\n  swap2\n  pop\n    /* \"#utility.yul\":8069:8162   */\n  tag_157\n    /* \"#utility.yul\":8158:8161   */\n  dup3\n    /* \"#utility.yul\":8069:8162   */\n  tag_68\n  jump\t// in\ntag_157:\n    /* \"#utility.yul\":8187:8189   */\n  0x20\n    /* \"#utility.yul\":8182:8185   */\n  dup3\n    /* \"#utility.yul\":8178:8190   */\n  add\n    /* \"#utility.yul\":8171:8190   */\n  swap1\n  pop\n    /* \"#utility.yul\":7830:8196   */\n  swap2\n  swap1\n  pop\n  jump\t// out\n    /* \"#utility.yul\":8202:8621   */\ntag_25:\n    /* \"#utility.yul\":8368:8372   */\n  0x00\n    /* \"#utility.yul\":8406:8408   */\n  0x20\n    /* \"#utility.yul\":8395:8404   */\n  dup3\n    /* \"#utility.yul\":8391:8409   */\n  add\n    /* \"#utility.yul\":8383:8409   */\n  swap1\n  pop\n    /* \"#utility.yul\":8455:8464   */\n  dup2\n    /* \"#utility.yul\":8449:8453   */\n  dup2\n    /* \"#utility.yul\":8445:8465   */\n  sub\n    /* \"#utility.yul\":8441:8442   */\n  0x00\n    /* \"#utility.yul\":8430:8439   */\n  dup4\n    /* \"#utility.yul\":8426:8443   */\n  add\n    /* \"#utility.yul\":8419:8466   */\n  mstore\n    /* \"#utility.yul\":8483:8614   */\n  tag_159\n    /* \"#utility.yul\":8609:8613   */\n  dup2\n    /* \"#utility.yul\":8483:8614   */\n  tag_69\n  jump\t// in\ntag_159:\n    /* \"#utility.yul\":8475:8614   */\n  swap1\n  pop\n    /* \"#utility.yul\":8202:8621   */\n  swap2\n  swap1\n  pop\n  jump\t// out\n    /* \"#utility.yul\":8627:8807   */\ntag_31:\n    /* \"#utility.yul\":8675:8752   */\n  0x4e487b7100000000000000000000000000000000000000000000000000000000\n    /* \"#utility.yul\":8672:8673   */\n  0x00\n    /* \"#utility.yul\":8665:8753   */\n  mstore\n    /* \"#utility.yul\":8772:8776   */\n  0x32\n    /* \"#utility.yul\":8769:8770   */\n  0x04\n    /* \"#utility.yul\":8762:8777   */\n  mstore\n    /* \"#utility.yul\":8796:8800   */\n  0x24\n    /* \"#utility.yul\":8793:8794   */\n  0x00\n    /* \"#utility.yul\":8786:8801   */\n  revert\n    /* \"#utility.yul\":8813:8993   */\ntag_70:\n    /* \"#utility.yul\":8861:8938   */\n  0x4e487b7100000000000000000000000000000000000000000000000000000000\n    /* \"#utility.yul\":8858:8859   */\n  0x00\n    /* \"#utility.yul\":8851:8939   */\n  mstore\n    /* \"#utility.yul\":8958:8962   */\n  0x11\n    /* \"#utility.yul\":8955:8956   */\n  0x04\n    /* \"#utility.yul\":8948:8963   */\n  mstore\n    /* \"#utility.yul\":8982:8986   */\n  0x24\n    /* \"#utility.yul\":8979:8980   */\n  0x00\n    /* \"#utility.yul\":8972:8987   */\n  revert\n    /* \"#utility.yul\":8999:9232   */\ntag_34:\n    /* \"#utility.yul\":9038:9041   */\n  0x00\n    /* \"#utility.yul\":9061:9085   */\n  tag_163\n    /* \"#utility.yul\":9079:9084   */\n  dup3\n    /* \"#utility.yul\":9061:9085   */\n  tag_54\n  jump\t// in\ntag_163:\n    /* \"#utility.yul\":9052:9085   */\n  swap2\n  pop\n    /* \"#utility.yul\":9107:9173   */\n  0xffffffffffffffffffffffffffffffffffffffffffffffffffffffffffffffff\n    /* \"#utility.yul\":9100:9105   */\n  dup3\n    /* \"#utility.yul\":9097:9174   */\n  sub\n    /* \"#utility.yul\":9094:9197   */\n  tag_164\n  jumpi\n    /* \"#utility.yul\":9177:9195   */\n  tag_165\n  tag_70\n  jump\t// in\ntag_165:\n    /* \"#utility.yul\":9094:9197   */\ntag_164:\n    /* \"#utility.yul\":9224:9225   */\n  0x01\n    /* \"#utility.yul\":9217:9222   */\n  dup3\n    /* \"#utility.yul\":9213:9226   */\n  add\n    /* \"#utility.yul\":9206:9226   */\n  swap1\n  pop\n    /* \"#utility.yul\":8999:9232   */\n  swap2\n  swap1\n  pop\n  jump\t// out\n    /* \"contracts/Staking.sol\":412:6314  contract NFTStaking1 is Ownable, ReentrancyGuard {... */\ntag_35:\n  mload(0x80)\n  codecopy(0x00, dataOffset(sub_0), dataSize(sub_0))\n  0x00\n  assignImmutable(\"0x9ef31662fdafe5ade9dc48fd4724c04f17232ac2ae4e5ea3da9c2a310c4aba3c\")\n  return(0x00, dataSize(sub_0))\nstop\n\nsub_0: assembly {\n        /* \"contracts/Staking.sol\":412:6314  contract NFTStaking1 is Ownable, ReentrancyGuard {... */\n      mstore(0x40, 0x80)\n      callvalue\n      dup1\n      iszero\n      tag_1\n      jumpi\n      0x00\n      dup1\n      revert\n    tag_1:\n      pop\n      jumpi(tag_2, lt(calldatasize, 0x04))\n      shr(0xe0, calldataload(0x00))\n      dup1\n      0x849a1e1d\n      gt\n      tag_16\n      jumpi\n      dup1\n      0xc69d1923\n      gt\n      tag_17\n      jumpi\n      dup1\n      0xc69d1923\n      eq\n      tag_12\n      jumpi\n      dup1\n      0xcb12f660\n      eq\n      tag_13\n      jumpi\n      dup1\n      0xf2fde38b\n      eq\n      tag_14\n      jumpi\n      dup1\n      0xff5d8450\n      eq\n      tag_15\n      jumpi\n      jump(tag_2)\n    tag_17:\n      dup1\n      0x849a1e1d\n      eq\n      tag_9\n      jumpi\n      dup1\n      0x8da5cb5b\n      eq\n      tag_10\n      jumpi\n      dup1\n      0xb48509e6\n      eq\n      tag_11\n      jumpi\n      jump(tag_2)\n    tag_16:\n      dup1\n      0x20281a98\n      eq\n      tag_3\n      jumpi\n      dup1\n      0x30d10275\n      eq\n      tag_4\n      jumpi\n      dup1\n      0x3fd8b02f\n      eq\n      tag_5\n      jumpi\n      dup1\n      0x5eac6239\n      eq\n      tag_6\n      jumpi\n      dup1\n      0x715018a6\n      eq\n      tag_7\n      jumpi\n      dup1\n      0x779972da\n      eq\n      tag_8\n      jumpi\n    tag_2:\n      0x00\n      dup1\n      revert\n        /* \"contracts/Staking.sol\":2919:3052  function claimedRewards(uint256 _tokenId) external view returns (uint256) {... */\n    tag_3:\n      tag_18\n      0x04\n      dup1\n      calldatasize\n      sub\n      dup2\n      add\n      swap1\n      tag_19\n      swap2\n      swap1\n      tag_20\n      jump\t// in\n    tag_19:\n      tag_21\n      jump\t// in\n    tag_18:\n      mload(0x40)\n      tag_22\n      swap2\n      swap1\n      tag_23\n      jump\t// in\n    tag_22:\n      mload(0x40)\n      dup1\n      swap2\n      sub\n      swap1\n      return\n        /* \"contracts/Staking.sol\":540:576  IRewardsToken [] public rewardsToken */\n    tag_4:\n      tag_24\n      0x04\n      dup1\n      calldatasize\n      sub\n      dup2\n      add\n      swap1\n      tag_25\n      swap2\n      swap1\n      tag_20\n      jump\t// in\n    tag_25:\n      tag_26\n      jump\t// in\n    tag_24:\n      mload(0x40)\n      tag_27\n      swap2\n      swap1\n      tag_28\n      jump\t// in\n    tag_27:\n      mload(0x40)\n      dup1\n      swap2\n      sub\n      swap1\n      return\n        /* \"contracts/Staking.sol\":625:650  uint256 public lockPeriod */\n    tag_5:\n      tag_29\n      tag_30\n      jump\t// in\n    tag_29:\n      mload(0x40)\n      tag_31\n      swap2\n      swap1\n      tag_23\n      jump\t// in\n    tag_31:\n      mload(0x40)\n      dup1\n      swap2\n      sub\n      swap1\n      return\n        /* \"contracts/Staking.sol\":4888:5798  function claimRewards(uint256[] calldata _tokenIds) external notContract {... */\n    tag_6:\n      tag_32\n      0x04\n      dup1\n      calldatasize\n      sub\n      dup2\n      add\n      swap1\n      tag_33\n      swap2\n      swap1\n      tag_34\n      jump\t// in\n    tag_33:\n      tag_35\n      jump\t// in\n    tag_32:\n      stop\n        /* \"@openzeppelin/contracts/access/Ownable.sol\":1831:1932  function renounceOwnership() public virtual onlyOwner {... */\n    tag_7:\n      tag_36\n      tag_37\n      jump\t// in\n    tag_36:\n      stop\n        /* \"contracts/Staking.sol\":2538:2751  function setLockPeriod(uint256 _lockPeriod) external onlyOwner {... */\n    tag_8:\n      tag_38\n      0x04\n      dup1\n      calldatasize\n      sub\n      dup2\n      add\n      swap1\n      tag_39\n      swap2\n      swap1\n      tag_20\n      jump\t// in\n    tag_39:\n      tag_40\n      jump\t// in\n    tag_38:\n      stop\n        /* \"contracts/Staking.sol\":3830:4790  function unlockNFT(uint256[] calldata _tokenIds) external notContract nonReentrant {... */\n    tag_9:\n      tag_41\n      0x04\n      dup1\n      calldatasize\n      sub\n      dup2\n      add\n      swap1\n      tag_42\n      swap2\n      swap1\n      tag_34\n      jump\t// in\n    tag_42:\n      tag_43\n      jump\t// in\n    tag_41:\n      stop\n        /* \"@openzeppelin/contracts/access/Ownable.sol\":1201:1286  function owner() public view virtual returns (address) {... */\n    tag_10:\n      tag_44\n      tag_45\n      jump\t// in\n    tag_44:\n      mload(0x40)\n      tag_46\n      swap2\n      swap1\n      tag_47\n      jump\t// in\n    tag_46:\n      mload(0x40)\n      dup1\n      swap2\n      sub\n      swap1\n      return\n        /* \"contracts/Staking.sol\":583:616  IERC721 public immutable stakeNFT */\n    tag_11:\n      tag_48\n      tag_49\n      jump\t// in\n    tag_48:\n      mload(0x40)\n      tag_50\n      swap2\n      swap1\n      tag_51\n      jump\t// in\n    tag_50:\n      mload(0x40)\n      dup1\n      swap2\n      sub\n      swap1\n      return\n        /* \"contracts/Staking.sol\":914:933  uint256 public WAVE */\n    tag_12:\n      tag_52\n      tag_53\n      jump\t// in\n    tag_52:\n      mload(0x40)\n      tag_54\n      swap2\n      swap1\n      tag_23\n      jump\t// in\n    tag_54:\n      mload(0x40)\n      dup1\n      swap2\n      sub\n      swap1\n      return\n        /* \"contracts/Staking.sol\":940:969  uint256 public rewardsPerWave */\n    tag_13:\n      tag_55\n      tag_56\n      jump\t// in\n    tag_55:\n      mload(0x40)\n      tag_57\n      swap2\n      swap1\n      tag_23\n      jump\t// in\n    tag_57:\n      mload(0x40)\n      dup1\n      swap2\n      sub\n      swap1\n      return\n        /* \"@openzeppelin/contracts/access/Ownable.sol\":2081:2279  function transferOwnership(address newOwner) public virtual onlyOwner {... */\n    tag_14:\n      tag_58\n      0x04\n      dup1\n      calldatasize\n      sub\n      dup2\n      add\n      swap1\n      tag_59\n      swap2\n      swap1\n      tag_60\n      jump\t// in\n    tag_59:\n      tag_61\n      jump\t// in\n    tag_58:\n      stop\n        /* \"contracts/Staking.sol\":3193:3717  function lockNFT(uint256[] calldata _tokenIds) external notContract nonReentrant {... */\n    tag_15:\n      tag_62\n      0x04\n      dup1\n      calldatasize\n      sub\n      dup2\n      add\n      swap1\n      tag_63\n      swap2\n      swap1\n      tag_34\n      jump\t// in\n    tag_63:\n      tag_64\n      jump\t// in\n    tag_62:\n      stop\n        /* \"contracts/Staking.sol\":2919:3052  function claimedRewards(uint256 _tokenId) external view returns (uint256) {... */\n    tag_21:\n        /* \"contracts/Staking.sol\":2984:2991  uint256 */\n      0x00\n        /* \"contracts/Staking.sol\":3011:3019  lockInfo */\n      0x04\n        /* \"contracts/Staking.sol\":3011:3029  lockInfo[_tokenId] */\n      0x00\n        /* \"contracts/Staking.sol\":3020:3028  _tokenId */\n      dup4\n        /* \"contracts/Staking.sol\":3011:3029  lockInfo[_tokenId] */\n      dup2\n      mstore\n      0x20\n      add\n      swap1\n      dup2\n      mstore\n      0x20\n      add\n      0x00\n      keccak256\n        /* \"contracts/Staking.sol\":3011:3044  lockInfo[_tokenId].claimedRewards */\n      0x02\n      add\n      sload\n        /* \"contracts/Staking.sol\":3004:3044  return lockInfo[_tokenId].claimedRewards */\n      swap1\n      pop\n        /* \"contracts/Staking.sol\":2919:3052  function claimedRewards(uint256 _tokenId) external view returns (uint256) {... */\n      swap2\n      swap1\n      pop\n      jump\t// out\n        /* \"contracts/Staking.sol\":540:576  IRewardsToken [] public rewardsToken */\n    tag_26:\n      0x02\n      dup2\n      dup2\n      sload\n      dup2\n      lt\n      tag_66\n      jumpi\n      0x00\n      dup1\n      revert\n    tag_66:\n      swap1\n      0x00\n      mstore\n      keccak256(0x00, 0x20)\n      add\n      0x00\n      swap2\n      pop\n      sload\n      swap1\n      0x0100\n      exp\n      swap1\n      div\n      0xffffffffffffffffffffffffffffffffffffffff\n      and\n      dup2\n      jump\t// out\n        /* \"contracts/Staking.sol\":625:650  uint256 public lockPeriod */\n    tag_30:\n      sload(0x03)\n      dup2\n      jump\t// out\n        /* \"contracts/Staking.sol\":4888:5798  function claimRewards(uint256[] calldata _tokenIds) external notContract {... */\n    tag_35:\n        /* \"contracts/Staking.sol\":2264:2296  address(msg.sender).isContract() */\n      tag_69\n        /* \"contracts/Staking.sol\":2272:2282  msg.sender */\n      caller\n        /* \"contracts/Staking.sol\":2264:2294  address(msg.sender).isContract */\n      0xffffffffffffffffffffffffffffffffffffffff\n      and\n      tag_70\n        /* \"contracts/Staking.sol\":2264:2296  address(msg.sender).isContract() */\n      jump\t// in\n    tag_69:\n        /* \"contracts/Staking.sol\":2263:2296  !address(msg.sender).isContract() */\n      iszero\n        /* \"contracts/Staking.sol\":2255:2321  require(!address(msg.sender).isContract(), \"Contract not allowed\") */\n      tag_71\n      jumpi\n      mload(0x40)\n      0x08c379a000000000000000000000000000000000000000000000000000000000\n      dup2\n      mstore\n      0x04\n      add\n      tag_72\n      swap1\n      tag_73\n      jump\t// in\n    tag_72:\n      mload(0x40)\n      dup1\n      swap2\n      sub\n      swap1\n      revert\n    tag_71:\n        /* \"contracts/Staking.sol\":2354:2363  tx.origin */\n      origin\n        /* \"contracts/Staking.sol\":2340:2363  msg.sender == tx.origin */\n      0xffffffffffffffffffffffffffffffffffffffff\n      and\n        /* \"contracts/Staking.sol\":2340:2350  msg.sender */\n      caller\n        /* \"contracts/Staking.sol\":2340:2363  msg.sender == tx.origin */\n      0xffffffffffffffffffffffffffffffffffffffff\n      and\n      eq\n        /* \"contracts/Staking.sol\":2332:2394  require(msg.sender == tx.origin, \"Proxy contract not allowed\") */\n      tag_74\n      jumpi\n      mload(0x40)\n      0x08c379a000000000000000000000000000000000000000000000000000000000\n      dup2\n      mstore\n      0x04\n      add\n      tag_75\n      swap1\n      tag_76\n      jump\t// in\n    tag_75:\n      mload(0x40)\n      dup1\n      swap2\n      sub\n      swap1\n      revert\n    tag_74:\n        /* \"contracts/Staking.sol\":4999:5000  0 */\n      0x00\n        /* \"contracts/Staking.sol\":4980:4989  _tokenIds */\n      dup3\n      dup3\n        /* \"contracts/Staking.sol\":4980:4996  _tokenIds.length */\n      swap1\n      pop\n        /* \"contracts/Staking.sol\":4980:5000  _tokenIds.length > 0 */\n      gt\n        /* \"contracts/Staking.sol\":4972:5014  require(_tokenIds.length > 0, \"No tokens\") */\n      tag_78\n      jumpi\n      mload(0x40)\n      0x08c379a000000000000000000000000000000000000000000000000000000000\n      dup2\n      mstore\n      0x04\n      add\n      tag_79\n      swap1\n      tag_80\n      jump\t// in\n    tag_79:\n      mload(0x40)\n      dup1\n      swap2\n      sub\n      swap1\n      revert\n    tag_78:\n        /* \"contracts/Staking.sol\":5027:5047  uint256 totalRewards */\n      0x00\n        /* \"contracts/Staking.sol\":5063:5072  uint256 i */\n      dup1\n        /* \"contracts/Staking.sol\":5075:5076  0 */\n      0x00\n        /* \"contracts/Staking.sol\":5063:5076  uint256 i = 0 */\n      swap1\n      pop\n        /* \"contracts/Staking.sol\":5058:5722  for (uint256 i = 0; i < _tokenIds.length; i++) {... */\n    tag_81:\n        /* \"contracts/Staking.sol\":5082:5091  _tokenIds */\n      dup4\n      dup4\n        /* \"contracts/Staking.sol\":5082:5098  _tokenIds.length */\n      swap1\n      pop\n        /* \"contracts/Staking.sol\":5078:5079  i */\n      dup2\n        /* \"contracts/Staking.sol\":5078:5098  i < _tokenIds.length */\n      lt\n        /* \"contracts/Staking.sol\":5058:5722  for (uint256 i = 0; i < _tokenIds.length; i++) {... */\n      iszero\n      tag_82\n      jumpi\n        /* \"contracts/Staking.sol\":5120:5140  LockInfo memory info */\n      0x00\n        /* \"contracts/Staking.sol\":5143:5151  lockInfo */\n      0x04\n        /* \"contracts/Staking.sol\":5143:5165  lockInfo[_tokenIds[i]] */\n      0x00\n        /* \"contracts/Staking.sol\":5152:5161  _tokenIds */\n      dup7\n      dup7\n        /* \"contracts/Staking.sol\":5162:5163  i */\n      dup6\n        /* \"contracts/Staking.sol\":5152:5164  _tokenIds[i] */\n      dup2\n      dup2\n      lt\n      tag_84\n      jumpi\n      tag_85\n      tag_86\n      jump\t// in\n    tag_85:\n    tag_84:\n      swap1\n      pop\n      0x20\n      mul\n      add\n      calldataload\n        /* \"contracts/Staking.sol\":5143:5165  lockInfo[_tokenIds[i]] */\n      dup2\n      mstore\n      0x20\n      add\n      swap1\n      dup2\n      mstore\n      0x20\n      add\n      0x00\n      keccak256\n        /* \"contracts/Staking.sol\":5120:5165  LockInfo memory info = lockInfo[_tokenIds[i]] */\n      mload(0x40)\n      dup1\n      0x80\n      add\n      0x40\n      mstore\n      swap1\n      dup2\n      0x00\n      dup3\n      add\n      0x00\n      swap1\n      sload\n      swap1\n      0x0100\n      exp\n      swap1\n      div\n      0xffffffffffffffffffffffffffffffffffffffff\n      and\n      0xffffffffffffffffffffffffffffffffffffffff\n      and\n      0xffffffffffffffffffffffffffffffffffffffff\n      and\n      dup2\n      mstore\n      0x20\n      add\n      0x01\n      dup3\n      add\n      sload\n      dup2\n      mstore\n      0x20\n      add\n      0x02\n      dup3\n      add\n      sload\n      dup2\n      mstore\n      0x20\n      add\n      0x03\n      dup3\n      add\n      0x00\n      swap1\n      sload\n      swap1\n      0x0100\n      exp\n      swap1\n      div\n      0xff\n      and\n      iszero\n      iszero\n      iszero\n      iszero\n      dup2\n      mstore\n      pop\n      pop\n      swap1\n      pop\n        /* \"contracts/Staking.sol\":5202:5212  msg.sender */\n      caller\n        /* \"contracts/Staking.sol\":5188:5212  info.owner == msg.sender */\n      0xffffffffffffffffffffffffffffffffffffffff\n      and\n        /* \"contracts/Staking.sol\":5188:5192  info */\n      dup2\n        /* \"contracts/Staking.sol\":5188:5198  info.owner */\n      0x00\n      add\n      mload\n        /* \"contracts/Staking.sol\":5188:5212  info.owner == msg.sender */\n      0xffffffffffffffffffffffffffffffffffffffff\n      and\n      eq\n        /* \"contracts/Staking.sol\":5180:5234  require(info.owner == msg.sender, \"Not a token owner\") */\n      tag_87\n      jumpi\n      mload(0x40)\n      0x08c379a000000000000000000000000000000000000000000000000000000000\n      dup2\n      mstore\n      0x04\n      add\n      tag_88\n      swap1\n      tag_89\n      jump\t// in\n    tag_88:\n      mload(0x40)\n      dup1\n      swap2\n      sub\n      swap1\n      revert\n    tag_87:\n        /* \"contracts/Staking.sol\":5288:5303  block.timestamp */\n      timestamp\n        /* \"contracts/Staking.sol\":5275:5285  lockPeriod */\n      sload(0x03)\n        /* \"contracts/Staking.sol\":5257:5261  info */\n      dup3\n        /* \"contracts/Staking.sol\":5257:5272  info.lockedTime */\n      0x20\n      add\n      mload\n        /* \"contracts/Staking.sol\":5257:5285  info.lockedTime + lockPeriod */\n      tag_90\n      swap2\n      swap1\n      tag_91\n      jump\t// in\n    tag_90:\n        /* \"contracts/Staking.sol\":5257:5303  info.lockedTime + lockPeriod < block.timestamp */\n      lt\n        /* \"contracts/Staking.sol\":5249:5329  require(info.lockedTime + lockPeriod < block.timestamp, \"Not able to claim yet\") */\n      tag_92\n      jumpi\n      mload(0x40)\n      0x08c379a000000000000000000000000000000000000000000000000000000000\n      dup2\n      mstore\n      0x04\n      add\n      tag_93\n      swap1\n      tag_94\n      jump\t// in\n    tag_93:\n      mload(0x40)\n      dup1\n      swap2\n      sub\n      swap1\n      revert\n    tag_92:\n        /* \"contracts/Staking.sol\":5353:5357  info */\n      dup1\n        /* \"contracts/Staking.sol\":5353:5368  info.isUnlocked */\n      0x60\n      add\n      mload\n        /* \"contracts/Staking.sol\":5352:5368  !info.isUnlocked */\n      iszero\n        /* \"contracts/Staking.sol\":5344:5389  require(!info.isUnlocked, \"Already unlocked\") */\n      tag_95\n      jumpi\n      mload(0x40)\n      0x08c379a000000000000000000000000000000000000000000000000000000000\n      dup2\n      mstore\n      0x04\n      add\n      tag_96\n      swap1\n      tag_97\n      jump\t// in\n    tag_96:\n      mload(0x40)\n      dup1\n      swap2\n      sub\n      swap1\n      revert\n    tag_95:\n        /* \"contracts/Staking.sol\":5406:5425  uint256 totalAmount */\n      0x00\n        /* \"contracts/Staking.sol\":5428:5455  _rewardAmount(_tokenIds[i]) */\n      tag_98\n        /* \"contracts/Staking.sol\":5442:5451  _tokenIds */\n      dup7\n      dup7\n        /* \"contracts/Staking.sol\":5452:5453  i */\n      dup6\n        /* \"contracts/Staking.sol\":5442:5454  _tokenIds[i] */\n      dup2\n      dup2\n      lt\n      tag_99\n      jumpi\n      tag_100\n      tag_86\n      jump\t// in\n    tag_100:\n    tag_99:\n      swap1\n      pop\n      0x20\n      mul\n      add\n      calldataload\n        /* \"contracts/Staking.sol\":5428:5441  _rewardAmount */\n      tag_101\n        /* \"contracts/Staking.sol\":5428:5455  _rewardAmount(_tokenIds[i]) */\n      jump\t// in\n    tag_98:\n        /* \"contracts/Staking.sol\":5406:5455  uint256 totalAmount = _rewardAmount(_tokenIds[i]) */\n      swap1\n      pop\n        /* \"contracts/Staking.sol\":5470:5494  uint256 unclaminedAmount */\n      0x00\n        /* \"contracts/Staking.sol\":5511:5515  info */\n      dup3\n        /* \"contracts/Staking.sol\":5511:5530  info.claimedRewards */\n      0x40\n      add\n      mload\n        /* \"contracts/Staking.sol\":5497:5508  totalAmount */\n      dup3\n        /* \"contracts/Staking.sol\":5497:5530  totalAmount - info.claimedRewards */\n      tag_102\n      swap2\n      swap1\n      tag_103\n      jump\t// in\n    tag_102:\n        /* \"contracts/Staking.sol\":5470:5530  uint256 unclaminedAmount = totalAmount - info.claimedRewards */\n      swap1\n      pop\n        /* \"contracts/Staking.sol\":5626:5642  unclaminedAmount */\n      dup1\n        /* \"contracts/Staking.sol\":5610:5642  totalRewards += unclaminedAmount */\n      dup6\n      tag_104\n      swap2\n      swap1\n      tag_91\n      jump\t// in\n    tag_104:\n      swap5\n      pop\n        /* \"contracts/Staking.sol\":5699:5710  totalAmount */\n      dup2\n        /* \"contracts/Staking.sol\":5659:5667  lockInfo */\n      0x04\n        /* \"contracts/Staking.sol\":5659:5681  lockInfo[_tokenIds[i]] */\n      0x00\n        /* \"contracts/Staking.sol\":5668:5677  _tokenIds */\n      dup10\n      dup10\n        /* \"contracts/Staking.sol\":5678:5679  i */\n      dup9\n        /* \"contracts/Staking.sol\":5668:5680  _tokenIds[i] */\n      dup2\n      dup2\n      lt\n      tag_105\n      jumpi\n      tag_106\n      tag_86\n      jump\t// in\n    tag_106:\n    tag_105:\n      swap1\n      pop\n      0x20\n      mul\n      add\n      calldataload\n        /* \"contracts/Staking.sol\":5659:5681  lockInfo[_tokenIds[i]] */\n      dup2\n      mstore\n      0x20\n      add\n      swap1\n      dup2\n      mstore\n      0x20\n      add\n      0x00\n      keccak256\n        /* \"contracts/Staking.sol\":5659:5696  lockInfo[_tokenIds[i]].claimedRewards */\n      0x02\n      add\n        /* \"contracts/Staking.sol\":5659:5710  lockInfo[_tokenIds[i]].claimedRewards = totalAmount */\n      dup2\n      swap1\n      sstore\n      pop\n        /* \"contracts/Staking.sol\":5105:5722  {... */\n      pop\n      pop\n      pop\n        /* \"contracts/Staking.sol\":5100:5103  i++ */\n      dup1\n      dup1\n      tag_107\n      swap1\n      tag_108\n      jump\t// in\n    tag_107:\n      swap2\n      pop\n      pop\n        /* \"contracts/Staking.sol\":5058:5722  for (uint256 i = 0; i < _tokenIds.length; i++) {... */\n      jump(tag_81)\n    tag_82:\n      pop\n        /* \"contracts/Staking.sol\":5754:5764  msg.sender */\n      caller\n        /* \"contracts/Staking.sol\":5739:5790  RewardsClaimed(msg.sender, _tokenIds, totalRewards) */\n      0xffffffffffffffffffffffffffffffffffffffff\n      and\n      0x37826be3c26dbad83731f4b985f22fa9ef86b6d1974cd77208332b7f1f283c0c\n        /* \"contracts/Staking.sol\":5766:5775  _tokenIds */\n      dup5\n      dup5\n        /* \"contracts/Staking.sol\":5777:5789  totalRewards */\n      dup5\n        /* \"contracts/Staking.sol\":5739:5790  RewardsClaimed(msg.sender, _tokenIds, totalRewards) */\n      mload(0x40)\n      tag_109\n      swap4\n      swap3\n      swap2\n      swap1\n      tag_110\n      jump\t// in\n    tag_109:\n      mload(0x40)\n      dup1\n      swap2\n      sub\n      swap1\n      log2\n        /* \"contracts/Staking.sol\":4961:5798  {... */\n      pop\n        /* \"contracts/Staking.sol\":4888:5798  function claimRewards(uint256[] calldata _tokenIds) external notContract {... */\n      pop\n      pop\n      jump\t// out\n        /* \"@openzeppelin/contracts/access/Ownable.sol\":1831:1932  function renounceOwnership() public virtual onlyOwner {... */\n    tag_37:\n        /* \"@openzeppelin/contracts/access/Ownable.sol\":1094:1107  _checkOwner() */\n      tag_112\n        /* \"@openzeppelin/contracts/access/Ownable.sol\":1094:1105  _checkOwner */\n      tag_113\n        /* \"@openzeppelin/contracts/access/Ownable.sol\":1094:1107  _checkOwner() */\n      jump\t// in\n    tag_112:\n        /* \"@openzeppelin/contracts/access/Ownable.sol\":1895:1925  _transferOwnership(address(0)) */\n      tag_115\n        /* \"@openzeppelin/contracts/access/Ownable.sol\":1922:1923  0 */\n      0x00\n        /* \"@openzeppelin/contracts/access/Ownable.sol\":1895:1913  _transferOwnership */\n      tag_116\n        /* \"@openzeppelin/contracts/access/Ownable.sol\":1895:1925  _transferOwnership(address(0)) */\n      jump\t// in\n    tag_115:\n        /* \"@openzeppelin/contracts/access/Ownable.sol\":1831:1932  function renounceOwnership() public virtual onlyOwner {... */\n      jump\t// out\n        /* \"contracts/Staking.sol\":2538:2751  function setLockPeriod(uint256 _lockPeriod) external onlyOwner {... */\n    tag_40:\n        /* \"@openzeppelin/contracts/access/Ownable.sol\":1094:1107  _checkOwner() */\n      tag_118\n        /* \"@openzeppelin/contracts/access/Ownable.sol\":1094:1105  _checkOwner */\n      tag_113\n        /* \"@openzeppelin/contracts/access/Ownable.sol\":1094:1107  _checkOwner() */\n      jump\t// in\n    tag_118:\n        /* \"contracts/Staking.sol\":2634:2635  0 */\n      0x00\n        /* \"contracts/Staking.sol\":2620:2631  _lockPeriod */\n      dup2\n        /* \"contracts/Staking.sol\":2620:2635  _lockPeriod > 0 */\n      gt\n        /* \"contracts/Staking.sol\":2612:2660  require(_lockPeriod > 0, \"Invalid lock period.\") */\n      tag_120\n      jumpi\n      mload(0x40)\n      0x08c379a000000000000000000000000000000000000000000000000000000000\n      dup2\n      mstore\n      0x04\n      add\n      tag_121\n      swap1\n      tag_122\n      jump\t// in\n    tag_121:\n      mload(0x40)\n      dup1\n      swap2\n      sub\n      swap1\n      revert\n    tag_120:\n        /* \"contracts/Staking.sol\":2684:2695  _lockPeriod */\n      dup1\n        /* \"contracts/Staking.sol\":2671:2681  lockPeriod */\n      0x03\n        /* \"contracts/Staking.sol\":2671:2695  lockPeriod = _lockPeriod */\n      dup2\n      swap1\n      sstore\n      pop\n        /* \"contracts/Staking.sol\":2713:2743  LockPeriodUpdated(_lockPeriod) */\n      0x8249ec545e68f6f1e1230133ca48c704d831a7f8e635ded80f3dd9e99b09bb2f\n        /* \"contracts/Staking.sol\":2731:2742  _lockPeriod */\n      dup2\n        /* \"contracts/Staking.sol\":2713:2743  LockPeriodUpdated(_lockPeriod) */\n      mload(0x40)\n      tag_123\n      swap2\n      swap1\n      tag_23\n      jump\t// in\n    tag_123:\n      mload(0x40)\n      dup1\n      swap2\n      sub\n      swap1\n      log1\n        /* \"contracts/Staking.sol\":2538:2751  function setLockPeriod(uint256 _lockPeriod) external onlyOwner {... */\n      pop\n      jump\t// out\n        /* \"contracts/Staking.sol\":3830:4790  function unlockNFT(uint256[] calldata _tokenIds) external notContract nonReentrant {... */\n    tag_43:\n        /* \"contracts/Staking.sol\":2264:2296  address(msg.sender).isContract() */\n      tag_125\n        /* \"contracts/Staking.sol\":2272:2282  msg.sender */\n      caller\n        /* \"contracts/Staking.sol\":2264:2294  address(msg.sender).isContract */\n      0xffffffffffffffffffffffffffffffffffffffff\n      and\n      tag_70\n        /* \"contracts/Staking.sol\":2264:2296  address(msg.sender).isContract() */\n      jump\t// in\n    tag_125:\n        /* \"contracts/Staking.sol\":2263:2296  !address(msg.sender).isContract() */\n      iszero\n        /* \"contracts/Staking.sol\":2255:2321  require(!address(msg.sender).isContract(), \"Contract not allowed\") */\n      tag_126\n      jumpi\n      mload(0x40)\n      0x08c379a000000000000000000000000000000000000000000000000000000000\n      dup2\n      mstore\n      0x04\n      add\n      tag_127\n      swap1\n      tag_73\n      jump\t// in\n    tag_127:\n      mload(0x40)\n      dup1\n      swap2\n      sub\n      swap1\n      revert\n    tag_126:\n        /* \"contracts/Staking.sol\":2354:2363  tx.origin */\n      origin\n        /* \"contracts/Staking.sol\":2340:2363  msg.sender == tx.origin */\n      0xffffffffffffffffffffffffffffffffffffffff\n      and\n        /* \"contracts/Staking.sol\":2340:2350  msg.sender */\n      caller\n        /* \"contracts/Staking.sol\":2340:2363  msg.sender == tx.origin */\n      0xffffffffffffffffffffffffffffffffffffffff\n      and\n      eq\n        /* \"contracts/Staking.sol\":2332:2394  require(msg.sender == tx.origin, \"Proxy contract not allowed\") */\n      tag_128\n      jumpi\n      mload(0x40)\n      0x08c379a000000000000000000000000000000000000000000000000000000000\n      dup2\n      mstore\n      0x04\n      add\n      tag_129\n      swap1\n      tag_76\n      jump\t// in\n    tag_129:\n      mload(0x40)\n      dup1\n      swap2\n      sub\n      swap1\n      revert\n    tag_128:\n        /* \"@openzeppelin/contracts/security/ReentrancyGuard.sol\":1744:1745  2 */\n      0x02\n        /* \"@openzeppelin/contracts/security/ReentrancyGuard.sol\":2325:2332  _status */\n      sload(0x01)\n        /* \"@openzeppelin/contracts/security/ReentrancyGuard.sol\":2325:2344  _status != _ENTERED */\n      sub\n        /* \"@openzeppelin/contracts/security/ReentrancyGuard.sol\":2317:2380  require(_status != _ENTERED, \"ReentrancyGuard: reentrant call\") */\n      tag_131\n      jumpi\n      mload(0x40)\n      0x08c379a000000000000000000000000000000000000000000000000000000000\n      dup2\n      mstore\n      0x04\n      add\n      tag_132\n      swap1\n      tag_133\n      jump\t// in\n    tag_132:\n      mload(0x40)\n      dup1\n      swap2\n      sub\n      swap1\n      revert\n    tag_131:\n        /* \"@openzeppelin/contracts/security/ReentrancyGuard.sol\":1744:1745  2 */\n      0x02\n        /* \"@openzeppelin/contracts/security/ReentrancyGuard.sol\":2455:2462  _status */\n      0x01\n        /* \"@openzeppelin/contracts/security/ReentrancyGuard.sol\":2455:2473  _status = _ENTERED */\n      dup2\n      swap1\n      sstore\n      pop\n        /* \"contracts/Staking.sol\":3951:3952  0 */\n      0x00\n        /* \"contracts/Staking.sol\":3932:3941  _tokenIds */\n      dup3\n      dup3\n        /* \"contracts/Staking.sol\":3932:3948  _tokenIds.length */\n      swap1\n      pop\n        /* \"contracts/Staking.sol\":3932:3952  _tokenIds.length > 0 */\n      gt\n        /* \"contracts/Staking.sol\":3924:3966  require(_tokenIds.length > 0, \"No tokens\") */\n      tag_135\n      jumpi\n      mload(0x40)\n      0x08c379a000000000000000000000000000000000000000000000000000000000\n      dup2\n      mstore\n      0x04\n      add\n      tag_136\n      swap1\n      tag_80\n      jump\t// in\n    tag_136:\n      mload(0x40)\n      dup1\n      swap2\n      sub\n      swap1\n      revert\n    tag_135:\n        /* \"contracts/Staking.sol\":3984:3993  uint256 i */\n      0x00\n        /* \"contracts/Staking.sol\":3979:4731  for (uint256 i = 0; i < _tokenIds.length; i++) {... */\n    tag_137:\n        /* \"contracts/Staking.sol\":4003:4012  _tokenIds */\n      dup3\n      dup3\n        /* \"contracts/Staking.sol\":4003:4019  _tokenIds.length */\n      swap1\n      pop\n        /* \"contracts/Staking.sol\":3999:4000  i */\n      dup2\n        /* \"contracts/Staking.sol\":3999:4019  i < _tokenIds.length */\n      lt\n        /* \"contracts/Staking.sol\":3979:4731  for (uint256 i = 0; i < _tokenIds.length; i++) {... */\n      iszero\n      tag_138\n      jumpi\n        /* \"contracts/Staking.sol\":4041:4061  LockInfo memory info */\n      0x00\n        /* \"contracts/Staking.sol\":4064:4072  lockInfo */\n      0x04\n        /* \"contracts/Staking.sol\":4064:4086  lockInfo[_tokenIds[i]] */\n      0x00\n        /* \"contracts/Staking.sol\":4073:4082  _tokenIds */\n      dup6\n      dup6\n        /* \"contracts/Staking.sol\":4083:4084  i */\n      dup6\n        /* \"contracts/Staking.sol\":4073:4085  _tokenIds[i] */\n      dup2\n      dup2\n      lt\n      tag_140\n      jumpi\n      tag_141\n      tag_86\n      jump\t// in\n    tag_141:\n    tag_140:\n      swap1\n      pop\n      0x20\n      mul\n      add\n      calldataload\n        /* \"contracts/Staking.sol\":4064:4086  lockInfo[_tokenIds[i]] */\n      dup2\n      mstore\n      0x20\n      add\n      swap1\n      dup2\n      mstore\n      0x20\n      add\n      0x00\n      keccak256\n        /* \"contracts/Staking.sol\":4041:4086  LockInfo memory info = lockInfo[_tokenIds[i]] */\n      mload(0x40)\n      dup1\n      0x80\n      add\n      0x40\n      mstore\n      swap1\n      dup2\n      0x00\n      dup3\n      add\n      0x00\n      swap1\n      sload\n      swap1\n      0x0100\n      exp\n      swap1\n      div\n      0xffffffffffffffffffffffffffffffffffffffff\n      and\n      0xffffffffffffffffffffffffffffffffffffffff\n      and\n      0xffffffffffffffffffffffffffffffffffffffff\n      and\n      dup2\n      mstore\n      0x20\n      add\n      0x01\n      dup3\n      add\n      sload\n      dup2\n      mstore\n      0x20\n      add\n      0x02\n      dup3\n      add\n      sload\n      dup2\n      mstore\n      0x20\n      add\n      0x03\n      dup3\n      add\n      0x00\n      swap1\n      sload\n      swap1\n      0x0100\n      exp\n      swap1\n      div\n      0xff\n      and\n      iszero\n      iszero\n      iszero\n      iszero\n      dup2\n      mstore\n      pop\n      pop\n      swap1\n      pop\n        /* \"contracts/Staking.sol\":4123:4133  msg.sender */\n      caller\n        /* \"contracts/Staking.sol\":4109:4133  info.owner == msg.sender */\n      0xffffffffffffffffffffffffffffffffffffffff\n      and\n        /* \"contracts/Staking.sol\":4109:4113  info */\n      dup2\n        /* \"contracts/Staking.sol\":4109:4119  info.owner */\n      0x00\n      add\n      mload\n        /* \"contracts/Staking.sol\":4109:4133  info.owner == msg.sender */\n      0xffffffffffffffffffffffffffffffffffffffff\n      and\n      eq\n        /* \"contracts/Staking.sol\":4101:4155  require(info.owner == msg.sender, \"Not a token owner\") */\n      tag_142\n      jumpi\n      mload(0x40)\n      0x08c379a000000000000000000000000000000000000000000000000000000000\n      dup2\n      mstore\n      0x04\n      add\n      tag_143\n      swap1\n      tag_89\n      jump\t// in\n    tag_143:\n      mload(0x40)\n      dup1\n      swap2\n      sub\n      swap1\n      revert\n    tag_142:\n        /* \"contracts/Staking.sol\":4209:4224  block.timestamp */\n      timestamp\n        /* \"contracts/Staking.sol\":4196:4206  lockPeriod */\n      sload(0x03)\n        /* \"contracts/Staking.sol\":4178:4182  info */\n      dup3\n        /* \"contracts/Staking.sol\":4178:4193  info.lockedTime */\n      0x20\n      add\n      mload\n        /* \"contracts/Staking.sol\":4178:4206  info.lockedTime + lockPeriod */\n      tag_144\n      swap2\n      swap1\n      tag_91\n      jump\t// in\n    tag_144:\n        /* \"contracts/Staking.sol\":4178:4224  info.lockedTime + lockPeriod < block.timestamp */\n      lt\n        /* \"contracts/Staking.sol\":4170:4251  require(info.lockedTime + lockPeriod < block.timestamp, \"Not able to unlock yet\") */\n      tag_145\n      jumpi\n      mload(0x40)\n      0x08c379a000000000000000000000000000000000000000000000000000000000\n      dup2\n      mstore\n      0x04\n      add\n      tag_146\n      swap1\n      tag_147\n      jump\t// in\n    tag_146:\n      mload(0x40)\n      dup1\n      swap2\n      sub\n      swap1\n      revert\n    tag_145:\n        /* \"contracts/Staking.sol\":4275:4279  info */\n      dup1\n        /* \"contracts/Staking.sol\":4275:4290  info.isUnlocked */\n      0x60\n      add\n      mload\n        /* \"contracts/Staking.sol\":4274:4290  !info.isUnlocked */\n      iszero\n        /* \"contracts/Staking.sol\":4266:4311  require(!info.isUnlocked, \"Already unlocked\") */\n      tag_148\n      jumpi\n      mload(0x40)\n      0x08c379a000000000000000000000000000000000000000000000000000000000\n      dup2\n      mstore\n      0x04\n      add\n      tag_149\n      swap1\n      tag_97\n      jump\t// in\n    tag_149:\n      mload(0x40)\n      dup1\n      swap2\n      sub\n      swap1\n      revert\n    tag_148:\n        /* \"contracts/Staking.sol\":4328:4336  stakeNFT */\n      immutable(\"0x9ef31662fdafe5ade9dc48fd4724c04f17232ac2ae4e5ea3da9c2a310c4aba3c\")\n        /* \"contracts/Staking.sol\":4328:4349  stakeNFT.transferFrom */\n      0xffffffffffffffffffffffffffffffffffffffff\n      and\n      0x23b872dd\n        /* \"contracts/Staking.sol\":4358:4362  this */\n      address\n        /* \"contracts/Staking.sol\":4365:4375  msg.sender */\n      caller\n        /* \"contracts/Staking.sol\":4377:4386  _tokenIds */\n      dup8\n      dup8\n        /* \"contracts/Staking.sol\":4387:4388  i */\n      dup8\n        /* \"contracts/Staking.sol\":4377:4389  _tokenIds[i] */\n      dup2\n      dup2\n      lt\n      tag_150\n      jumpi\n      tag_151\n      tag_86\n      jump\t// in\n    tag_151:\n    tag_150:\n      swap1\n      pop\n      0x20\n      mul\n      add\n      calldataload\n        /* \"contracts/Staking.sol\":4328:4390  stakeNFT.transferFrom(address(this), msg.sender, _tokenIds[i]) */\n      mload(0x40)\n      dup5\n      0xffffffff\n      and\n      0xe0\n      shl\n      dup2\n      mstore\n      0x04\n      add\n      tag_152\n      swap4\n      swap3\n      swap2\n      swap1\n      tag_153\n      jump\t// in\n    tag_152:\n      0x00\n      mload(0x40)\n      dup1\n      dup4\n      sub\n      dup2\n      0x00\n      dup8\n      dup1\n      extcodesize\n      iszero\n      dup1\n      iszero\n      tag_154\n      jumpi\n      0x00\n      dup1\n      revert\n    tag_154:\n      pop\n      gas\n      call\n      iszero\n      dup1\n      iszero\n      tag_156\n      jumpi\n      returndatasize\n      0x00\n      dup1\n      returndatacopy\n      revert(0x00, returndatasize)\n    tag_156:\n      pop\n      pop\n      pop\n      pop\n        /* \"contracts/Staking.sol\":4407:4426  uint256 totalAmount */\n      0x00\n        /* \"contracts/Staking.sol\":4429:4456  _rewardAmount(_tokenIds[i]) */\n      tag_157\n        /* \"contracts/Staking.sol\":4443:4452  _tokenIds */\n      dup6\n      dup6\n        /* \"contracts/Staking.sol\":4453:4454  i */\n      dup6\n        /* \"contracts/Staking.sol\":4443:4455  _tokenIds[i] */\n      dup2\n      dup2\n      lt\n      tag_158\n      jumpi\n      tag_159\n      tag_86\n      jump\t// in\n    tag_159:\n    tag_158:\n      swap1\n      pop\n      0x20\n      mul\n      add\n      calldataload\n        /* \"contracts/Staking.sol\":4429:4442  _rewardAmount */\n      tag_101\n        /* \"contracts/Staking.sol\":4429:4456  _rewardAmount(_tokenIds[i]) */\n      jump\t// in\n    tag_157:\n        /* \"contracts/Staking.sol\":4407:4456  uint256 totalAmount = _rewardAmount(_tokenIds[i]) */\n      swap1\n      pop\n        /* \"contracts/Staking.sol\":4471:4495  uint256 unclaminedAmount */\n      0x00\n        /* \"contracts/Staking.sol\":4512:4516  info */\n      dup3\n        /* \"contracts/Staking.sol\":4512:4531  info.claimedRewards */\n      0x40\n      add\n      mload\n        /* \"contracts/Staking.sol\":4498:4509  totalAmount */\n      dup3\n        /* \"contracts/Staking.sol\":4498:4531  totalAmount - info.claimedRewards */\n      tag_160\n      swap2\n      swap1\n      tag_103\n      jump\t// in\n    tag_160:\n        /* \"contracts/Staking.sol\":4471:4531  uint256 unclaminedAmount = totalAmount - info.claimedRewards */\n      swap1\n      pop\n        /* \"contracts/Staking.sol\":4653:4664  totalAmount */\n      dup2\n        /* \"contracts/Staking.sol\":4613:4621  lockInfo */\n      0x04\n        /* \"contracts/Staking.sol\":4613:4635  lockInfo[_tokenIds[i]] */\n      0x00\n        /* \"contracts/Staking.sol\":4622:4631  _tokenIds */\n      dup9\n      dup9\n        /* \"contracts/Staking.sol\":4632:4633  i */\n      dup9\n        /* \"contracts/Staking.sol\":4622:4634  _tokenIds[i] */\n      dup2\n      dup2\n      lt\n      tag_161\n      jumpi\n      tag_162\n      tag_86\n      jump\t// in\n    tag_162:\n    tag_161:\n      swap1\n      pop\n      0x20\n      mul\n      add\n      calldataload\n        /* \"contracts/Staking.sol\":4613:4635  lockInfo[_tokenIds[i]] */\n      dup2\n      mstore\n      0x20\n      add\n      swap1\n      dup2\n      mstore\n      0x20\n      add\n      0x00\n      keccak256\n        /* \"contracts/Staking.sol\":4613:4650  lockInfo[_tokenIds[i]].claimedRewards */\n      0x02\n      add\n        /* \"contracts/Staking.sol\":4613:4664  lockInfo[_tokenIds[i]].claimedRewards = totalAmount */\n      dup2\n      swap1\n      sstore\n      pop\n        /* \"contracts/Staking.sol\":4715:4719  true */\n      0x01\n        /* \"contracts/Staking.sol\":4679:4687  lockInfo */\n      0x04\n        /* \"contracts/Staking.sol\":4679:4701  lockInfo[_tokenIds[i]] */\n      0x00\n        /* \"contracts/Staking.sol\":4688:4697  _tokenIds */\n      dup9\n      dup9\n        /* \"contracts/Staking.sol\":4698:4699  i */\n      dup9\n        /* \"contracts/Staking.sol\":4688:4700  _tokenIds[i] */\n      dup2\n      dup2\n      lt\n      tag_163\n      jumpi\n      tag_164\n      tag_86\n      jump\t// in\n    tag_164:\n    tag_163:\n      swap1\n      pop\n      0x20\n      mul\n      add\n      calldataload\n        /* \"contracts/Staking.sol\":4679:4701  lockInfo[_tokenIds[i]] */\n      dup2\n      mstore\n      0x20\n      add\n      swap1\n      dup2\n      mstore\n      0x20\n      add\n      0x00\n      keccak256\n        /* \"contracts/Staking.sol\":4679:4712  lockInfo[_tokenIds[i]].isUnlocked */\n      0x03\n      add\n      0x00\n        /* \"contracts/Staking.sol\":4679:4719  lockInfo[_tokenIds[i]].isUnlocked = true */\n      0x0100\n      exp\n      dup2\n      sload\n      dup2\n      0xff\n      mul\n      not\n      and\n      swap1\n      dup4\n      iszero\n      iszero\n      mul\n      or\n      swap1\n      sstore\n      pop\n        /* \"contracts/Staking.sol\":4026:4731  {... */\n      pop\n      pop\n      pop\n        /* \"contracts/Staking.sol\":4021:4024  i++ */\n      dup1\n      dup1\n      tag_165\n      swap1\n      tag_108\n      jump\t// in\n    tag_165:\n      swap2\n      pop\n      pop\n        /* \"contracts/Staking.sol\":3979:4731  for (uint256 i = 0; i < _tokenIds.length; i++) {... */\n      jump(tag_137)\n    tag_138:\n      pop\n        /* \"contracts/Staking.sol\":4760:4770  msg.sender */\n      caller\n        /* \"contracts/Staking.sol\":4748:4782  NFTUnLocked(msg.sender, _tokenIds) */\n      0xffffffffffffffffffffffffffffffffffffffff\n      and\n      0x5cb48022479b9ac3bfb10a27965dc010acffc9fc1bc9a52f0b18975b944b54ca\n        /* \"contracts/Staking.sol\":4772:4781  _tokenIds */\n      dup4\n      dup4\n        /* \"contracts/Staking.sol\":4748:4782  NFTUnLocked(msg.sender, _tokenIds) */\n      mload(0x40)\n      tag_166\n      swap3\n      swap2\n      swap1\n      tag_167\n      jump\t// in\n    tag_166:\n      mload(0x40)\n      dup1\n      swap2\n      sub\n      swap1\n      log2\n        /* \"@openzeppelin/contracts/security/ReentrancyGuard.sol\":1701:1702  1 */\n      0x01\n        /* \"@openzeppelin/contracts/security/ReentrancyGuard.sol\":2628:2635  _status */\n      dup1\n        /* \"@openzeppelin/contracts/security/ReentrancyGuard.sol\":2628:2650  _status = _NOT_ENTERED */\n      dup2\n      swap1\n      sstore\n      pop\n        /* \"contracts/Staking.sol\":3830:4790  function unlockNFT(uint256[] calldata _tokenIds) external notContract nonReentrant {... */\n      pop\n      pop\n      jump\t// out\n        /* \"@openzeppelin/contracts/access/Ownable.sol\":1201:1286  function owner() public view virtual returns (address) {... */\n    tag_45:\n        /* \"@openzeppelin/contracts/access/Ownable.sol\":1247:1254  address */\n      0x00\n        /* \"@openzeppelin/contracts/access/Ownable.sol\":1273:1279  _owner */\n      dup1\n      0x00\n      swap1\n      sload\n      swap1\n      0x0100\n      exp\n      swap1\n      div\n      0xffffffffffffffffffffffffffffffffffffffff\n      and\n        /* \"@openzeppelin/contracts/access/Ownable.sol\":1266:1279  return _owner */\n      swap1\n      pop\n        /* \"@openzeppelin/contracts/access/Ownable.sol\":1201:1286  function owner() public view virtual returns (address) {... */\n      swap1\n      jump\t// out\n        /* \"contracts/Staking.sol\":583:616  IERC721 public immutable stakeNFT */\n    tag_49:\n      immutable(\"0x9ef31662fdafe5ade9dc48fd4724c04f17232ac2ae4e5ea3da9c2a310c4aba3c\")\n      dup2\n      jump\t// out\n        /* \"contracts/Staking.sol\":914:933  uint256 public WAVE */\n    tag_53:\n      sload(0x05)\n      dup2\n      jump\t// out\n        /* \"contracts/Staking.sol\":940:969  uint256 public rewardsPerWave */\n    tag_56:\n      sload(0x06)\n      dup2\n      jump\t// out\n        /* \"@openzeppelin/contracts/access/Ownable.sol\":2081:2279  function transferOwnership(address newOwner) public virtual onlyOwner {... */\n    tag_61:\n        /* \"@openzeppelin/contracts/access/Ownable.sol\":1094:1107  _checkOwner() */\n      tag_170\n        /* \"@openzeppelin/contracts/access/Ownable.sol\":1094:1105  _checkOwner */\n      tag_113\n        /* \"@openzeppelin/contracts/access/Ownable.sol\":1094:1107  _checkOwner() */\n      jump\t// in\n    tag_170:\n        /* \"@openzeppelin/contracts/access/Ownable.sol\":2189:2190  0 */\n      0x00\n        /* \"@openzeppelin/contracts/access/Ownable.sol\":2169:2191  newOwner != address(0) */\n      0xffffffffffffffffffffffffffffffffffffffff\n      and\n        /* \"@openzeppelin/contracts/access/Ownable.sol\":2169:2177  newOwner */\n      dup2\n        /* \"@openzeppelin/contracts/access/Ownable.sol\":2169:2191  newOwner != address(0) */\n      0xffffffffffffffffffffffffffffffffffffffff\n      and\n      sub\n        /* \"@openzeppelin/contracts/access/Ownable.sol\":2161:2234  require(newOwner != address(0), \"Ownable: new owner is the zero address\") */\n      tag_172\n      jumpi\n      mload(0x40)\n      0x08c379a000000000000000000000000000000000000000000000000000000000\n      dup2\n      mstore\n      0x04\n      add\n      tag_173\n      swap1\n      tag_174\n      jump\t// in\n    tag_173:\n      mload(0x40)\n      dup1\n      swap2\n      sub\n      swap1\n      revert\n    tag_172:\n        /* \"@openzeppelin/contracts/access/Ownable.sol\":2244:2272  _transferOwnership(newOwner) */\n      tag_175\n        /* \"@openzeppelin/contracts/access/Ownable.sol\":2263:2271  newOwner */\n      dup2\n        /* \"@openzeppelin/contracts/access/Ownable.sol\":2244:2262  _transferOwnership */\n      tag_116\n        /* \"@openzeppelin/contracts/access/Ownable.sol\":2244:2272  _transferOwnership(newOwner) */\n      jump\t// in\n    tag_175:\n        /* \"@openzeppelin/contracts/access/Ownable.sol\":2081:2279  function transferOwnership(address newOwner) public virtual onlyOwner {... */\n      pop\n      jump\t// out\n        /* \"contracts/Staking.sol\":3193:3717  function lockNFT(uint256[] calldata _tokenIds) external notContract nonReentrant {... */\n    tag_64:\n        /* \"contracts/Staking.sol\":2264:2296  address(msg.sender).isContract() */\n      tag_177\n        /* \"contracts/Staking.sol\":2272:2282  msg.sender */\n      caller\n        /* \"contracts/Staking.sol\":2264:2294  address(msg.sender).isContract */\n      0xffffffffffffffffffffffffffffffffffffffff\n      and\n      tag_70\n        /* \"contracts/Staking.sol\":2264:2296  address(msg.sender).isContract() */\n      jump\t// in\n    tag_177:\n        /* \"contracts/Staking.sol\":2263:2296  !address(msg.sender).isContract() */\n      iszero\n        /* \"contracts/Staking.sol\":2255:2321  require(!address(msg.sender).isContract(), \"Contract not allowed\") */\n      tag_178\n      jumpi\n      mload(0x40)\n      0x08c379a000000000000000000000000000000000000000000000000000000000\n      dup2\n      mstore\n      0x04\n      add\n      tag_179\n      swap1\n      tag_73\n      jump\t// in\n    tag_179:\n      mload(0x40)\n      dup1\n      swap2\n      sub\n      swap1\n      revert\n    tag_178:\n        /* \"contracts/Staking.sol\":2354:2363  tx.origin */\n      origin\n        /* \"contracts/Staking.sol\":2340:2363  msg.sender == tx.origin */\n      0xffffffffffffffffffffffffffffffffffffffff\n      and\n        /* \"contracts/Staking.sol\":2340:2350  msg.sender */\n      caller\n        /* \"contracts/Staking.sol\":2340:2363  msg.sender == tx.origin */\n      0xffffffffffffffffffffffffffffffffffffffff\n      and\n      eq\n        /* \"contracts/Staking.sol\":2332:2394  require(msg.sender == tx.origin, \"Proxy contract not allowed\") */\n      tag_180\n      jumpi\n      mload(0x40)\n      0x08c379a000000000000000000000000000000000000000000000000000000000\n      dup2\n      mstore\n      0x04\n      add\n      tag_181\n      swap1\n      tag_76\n      jump\t// in\n    tag_181:\n      mload(0x40)\n      dup1\n      swap2\n      sub\n      swap1\n      revert\n    tag_180:\n        /* \"@openzeppelin/contracts/security/ReentrancyGuard.sol\":1744:1745  2 */\n      0x02\n        /* \"@openzeppelin/contracts/security/ReentrancyGuard.sol\":2325:2332  _status */\n      sload(0x01)\n        /* \"@openzeppelin/contracts/security/ReentrancyGuard.sol\":2325:2344  _status != _ENTERED */\n      sub\n        /* \"@openzeppelin/contracts/security/ReentrancyGuard.sol\":2317:2380  require(_status != _ENTERED, \"ReentrancyGuard: reentrant call\") */\n      tag_183\n      jumpi\n      mload(0x40)\n      0x08c379a000000000000000000000000000000000000000000000000000000000\n      dup2\n      mstore\n      0x04\n      add\n      tag_184\n      swap1\n      tag_133\n      jump\t// in\n    tag_184:\n      mload(0x40)\n      dup1\n      swap2\n      sub\n      swap1\n      revert\n    tag_183:\n        /* \"@openzeppelin/contracts/security/ReentrancyGuard.sol\":1744:1745  2 */\n      0x02\n        /* \"@openzeppelin/contracts/security/ReentrancyGuard.sol\":2455:2462  _status */\n      0x01\n        /* \"@openzeppelin/contracts/security/ReentrancyGuard.sol\":2455:2473  _status = _ENTERED */\n      dup2\n      swap1\n      sstore\n      pop\n        /* \"contracts/Staking.sol\":3312:3313  0 */\n      0x00\n        /* \"contracts/Staking.sol\":3293:3302  _tokenIds */\n      dup3\n      dup3\n        /* \"contracts/Staking.sol\":3293:3309  _tokenIds.length */\n      swap1\n      pop\n        /* \"contracts/Staking.sol\":3293:3313  _tokenIds.length > 0 */\n      gt\n        /* \"contracts/Staking.sol\":3285:3327  require(_tokenIds.length > 0, \"No tokens\") */\n      tag_186\n      jumpi\n      mload(0x40)\n      0x08c379a000000000000000000000000000000000000000000000000000000000\n      dup2\n      mstore\n      0x04\n      add\n      tag_187\n      swap1\n      tag_80\n      jump\t// in\n    tag_187:\n      mload(0x40)\n      dup1\n      swap2\n      sub\n      swap1\n      revert\n    tag_186:\n        /* \"contracts/Staking.sol\":3345:3354  uint256 i */\n      0x00\n        /* \"contracts/Staking.sol\":3340:3660  for (uint256 i = 0; i < _tokenIds.length; i++) {... */\n    tag_188:\n        /* \"contracts/Staking.sol\":3364:3373  _tokenIds */\n      dup3\n      dup3\n        /* \"contracts/Staking.sol\":3364:3380  _tokenIds.length */\n      swap1\n      pop\n        /* \"contracts/Staking.sol\":3360:3361  i */\n      dup2\n        /* \"contracts/Staking.sol\":3360:3380  i < _tokenIds.length */\n      lt\n        /* \"contracts/Staking.sol\":3340:3660  for (uint256 i = 0; i < _tokenIds.length; i++) {... */\n      iszero\n      tag_189\n      jumpi\n        /* \"contracts/Staking.sol\":3444:3454  msg.sender */\n      caller\n        /* \"contracts/Staking.sol\":3410:3454  stakeNFT.ownerOf(_tokenIds[i]) == msg.sender */\n      0xffffffffffffffffffffffffffffffffffffffff\n      and\n        /* \"contracts/Staking.sol\":3410:3418  stakeNFT */\n      immutable(\"0x9ef31662fdafe5ade9dc48fd4724c04f17232ac2ae4e5ea3da9c2a310c4aba3c\")\n        /* \"contracts/Staking.sol\":3410:3426  stakeNFT.ownerOf */\n      0xffffffffffffffffffffffffffffffffffffffff\n      and\n      0x6352211e\n        /* \"contracts/Staking.sol\":3427:3436  _tokenIds */\n      dup6\n      dup6\n        /* \"contracts/Staking.sol\":3437:3438  i */\n      dup6\n        /* \"contracts/Staking.sol\":3427:3439  _tokenIds[i] */\n      dup2\n      dup2\n      lt\n      tag_191\n      jumpi\n      tag_192\n      tag_86\n      jump\t// in\n    tag_192:\n    tag_191:\n      swap1\n      pop\n      0x20\n      mul\n      add\n      calldataload\n        /* \"contracts/Staking.sol\":3410:3440  stakeNFT.ownerOf(_tokenIds[i]) */\n      mload(0x40)\n      dup3\n      0xffffffff\n      and\n      0xe0\n      shl\n      dup2\n      mstore\n      0x04\n      add\n      tag_193\n      swap2\n      swap1\n      tag_23\n      jump\t// in\n    tag_193:\n      0x20\n      mload(0x40)\n      dup1\n      dup4\n      sub\n      dup2\n      dup7\n      gas\n      staticcall\n      iszero\n      dup1\n      iszero\n      tag_195\n      jumpi\n      returndatasize\n      0x00\n      dup1\n      returndatacopy\n      revert(0x00, returndatasize)\n    tag_195:\n      pop\n      pop\n      pop\n      pop\n      mload(0x40)\n      returndatasize\n      not(0x1f)\n      0x1f\n      dup3\n      add\n      and\n      dup3\n      add\n      dup1\n      0x40\n      mstore\n      pop\n      dup2\n      add\n      swap1\n      tag_196\n      swap2\n      swap1\n      tag_197\n      jump\t// in\n    tag_196:\n        /* \"contracts/Staking.sol\":3410:3454  stakeNFT.ownerOf(_tokenIds[i]) == msg.sender */\n      0xffffffffffffffffffffffffffffffffffffffff\n      and\n      eq\n        /* \"contracts/Staking.sol\":3402:3484  require(stakeNFT.ownerOf(_tokenIds[i]) == msg.sender, \"You don't hold this token\") */\n      tag_198\n      jumpi\n      mload(0x40)\n      0x08c379a000000000000000000000000000000000000000000000000000000000\n      dup2\n      mstore\n      0x04\n      add\n      tag_199\n      swap1\n      tag_200\n      jump\t// in\n    tag_199:\n      mload(0x40)\n      dup1\n      swap2\n      sub\n      swap1\n      revert\n    tag_198:\n        /* \"contracts/Staking.sol\":3499:3507  stakeNFT */\n      immutable(\"0x9ef31662fdafe5ade9dc48fd4724c04f17232ac2ae4e5ea3da9c2a310c4aba3c\")\n        /* \"contracts/Staking.sol\":3499:3520  stakeNFT.transferFrom */\n      0xffffffffffffffffffffffffffffffffffffffff\n      and\n      0x23b872dd\n        /* \"contracts/Staking.sol\":3521:3531  msg.sender */\n      caller\n        /* \"contracts/Staking.sol\":3541:3545  this */\n      address\n        /* \"contracts/Staking.sol\":3548:3557  _tokenIds */\n      dup7\n      dup7\n        /* \"contracts/Staking.sol\":3558:3559  i */\n      dup7\n        /* \"contracts/Staking.sol\":3548:3560  _tokenIds[i] */\n      dup2\n      dup2\n      lt\n      tag_201\n      jumpi\n      tag_202\n      tag_86\n      jump\t// in\n    tag_202:\n    tag_201:\n      swap1\n      pop\n      0x20\n      mul\n      add\n      calldataload\n        /* \"contracts/Staking.sol\":3499:3561  stakeNFT.transferFrom(msg.sender, address(this), _tokenIds[i]) */\n      mload(0x40)\n      dup5\n      0xffffffff\n      and\n      0xe0\n      shl\n      dup2\n      mstore\n      0x04\n      add\n      tag_203\n      swap4\n      swap3\n      swap2\n      swap1\n      tag_153\n      jump\t// in\n    tag_203:\n      0x00\n      mload(0x40)\n      dup1\n      dup4\n      sub\n      dup2\n      0x00\n      dup8\n      dup1\n      extcodesize\n      iszero\n      dup1\n      iszero\n      tag_204\n      jumpi\n      0x00\n      dup1\n      revert\n    tag_204:\n      pop\n      gas\n      call\n      iszero\n      dup1\n      iszero\n      tag_206\n      jumpi\n      returndatasize\n      0x00\n      dup1\n      returndatacopy\n      revert(0x00, returndatasize)\n    tag_206:\n      pop\n      pop\n      pop\n      pop\n        /* \"contracts/Staking.sol\":3601:3648  LockInfo(msg.sender, block.timestamp, 0, false) */\n      mload(0x40)\n      dup1\n      0x80\n      add\n      0x40\n      mstore\n      dup1\n        /* \"contracts/Staking.sol\":3610:3620  msg.sender */\n      caller\n        /* \"contracts/Staking.sol\":3601:3648  LockInfo(msg.sender, block.timestamp, 0, false) */\n      0xffffffffffffffffffffffffffffffffffffffff\n      and\n      dup2\n      mstore\n      0x20\n      add\n        /* \"contracts/Staking.sol\":3622:3637  block.timestamp */\n      timestamp\n        /* \"contracts/Staking.sol\":3601:3648  LockInfo(msg.sender, block.timestamp, 0, false) */\n      dup2\n      mstore\n      0x20\n      add\n        /* \"contracts/Staking.sol\":3639:3640  0 */\n      0x00\n        /* \"contracts/Staking.sol\":3601:3648  LockInfo(msg.sender, block.timestamp, 0, false) */\n      dup2\n      mstore\n      0x20\n      add\n        /* \"contracts/Staking.sol\":3642:3647  false */\n      0x00\n        /* \"contracts/Staking.sol\":3601:3648  LockInfo(msg.sender, block.timestamp, 0, false) */\n      iszero\n      iszero\n      dup2\n      mstore\n      pop\n        /* \"contracts/Staking.sol\":3576:3584  lockInfo */\n      0x04\n        /* \"contracts/Staking.sol\":3576:3598  lockInfo[_tokenIds[i]] */\n      0x00\n        /* \"contracts/Staking.sol\":3585:3594  _tokenIds */\n      dup6\n      dup6\n        /* \"contracts/Staking.sol\":3595:3596  i */\n      dup6\n        /* \"contracts/Staking.sol\":3585:3597  _tokenIds[i] */\n      dup2\n      dup2\n      lt\n      tag_207\n      jumpi\n      tag_208\n      tag_86\n      jump\t// in\n    tag_208:\n    tag_207:\n      swap1\n      pop\n      0x20\n      mul\n      add\n      calldataload\n        /* \"contracts/Staking.sol\":3576:3598  lockInfo[_tokenIds[i]] */\n      dup2\n      mstore\n      0x20\n      add\n      swap1\n      dup2\n      mstore\n      0x20\n      add\n      0x00\n      keccak256\n        /* \"contracts/Staking.sol\":3576:3648  lockInfo[_tokenIds[i]] = LockInfo(msg.sender, block.timestamp, 0, false) */\n      0x00\n      dup3\n      add\n      mload\n      dup2\n      0x00\n      add\n      exp(0x0100, 0x00)\n      dup2\n      sload\n      dup2\n      0xffffffffffffffffffffffffffffffffffffffff\n      mul\n      not\n      and\n      swap1\n      dup4\n      0xffffffffffffffffffffffffffffffffffffffff\n      and\n      mul\n      or\n      swap1\n      sstore\n      pop\n      0x20\n      dup3\n      add\n      mload\n      dup2\n      0x01\n      add\n      sstore\n      0x40\n      dup3\n      add\n      mload\n      dup2\n      0x02\n      add\n      sstore\n      0x60\n      dup3\n      add\n      mload\n      dup2\n      0x03\n      add\n      exp(0x0100, 0x00)\n      dup2\n      sload\n      dup2\n      0xff\n      mul\n      not\n      and\n      swap1\n      dup4\n      iszero\n      iszero\n      mul\n      or\n      swap1\n      sstore\n      pop\n      swap1\n      pop\n      pop\n        /* \"contracts/Staking.sol\":3382:3385  i++ */\n      dup1\n      dup1\n      tag_209\n      swap1\n      tag_108\n      jump\t// in\n    tag_209:\n      swap2\n      pop\n      pop\n        /* \"contracts/Staking.sol\":3340:3660  for (uint256 i = 0; i < _tokenIds.length; i++) {... */\n      jump(tag_188)\n    tag_189:\n      pop\n        /* \"contracts/Staking.sol\":3687:3697  msg.sender */\n      caller\n        /* \"contracts/Staking.sol\":3677:3709  NFTLocked(msg.sender, _tokenIds) */\n      0xffffffffffffffffffffffffffffffffffffffff\n      and\n      0x458be0227bccc9e803dec79bd16767eeaf9925d2ce708eeed7ae1f3621f968f9\n        /* \"contracts/Staking.sol\":3699:3708  _tokenIds */\n      dup4\n      dup4\n        /* \"contracts/Staking.sol\":3677:3709  NFTLocked(msg.sender, _tokenIds) */\n      mload(0x40)\n      tag_210\n      swap3\n      swap2\n      swap1\n      tag_167\n      jump\t// in\n    tag_210:\n      mload(0x40)\n      dup1\n      swap2\n      sub\n      swap1\n      log2\n        /* \"@openzeppelin/contracts/security/ReentrancyGuard.sol\":1701:1702  1 */\n      0x01\n        /* \"@openzeppelin/contracts/security/ReentrancyGuard.sol\":2628:2635  _status */\n      dup1\n        /* \"@openzeppelin/contracts/security/ReentrancyGuard.sol\":2628:2650  _status = _NOT_ENTERED */\n      dup2\n      swap1\n      sstore\n      pop\n        /* \"contracts/Staking.sol\":3193:3717  function lockNFT(uint256[] calldata _tokenIds) external notContract nonReentrant {... */\n      pop\n      pop\n      jump\t// out\n        /* \"@openzeppelin/contracts/utils/Address.sol\":1175:1495  function isContract(address account) internal view returns (bool) {... */\n    tag_70:\n        /* \"@openzeppelin/contracts/utils/Address.sol\":1235:1239  bool */\n      0x00\n        /* \"@openzeppelin/contracts/utils/Address.sol\":1487:1488  0 */\n      dup1\n        /* \"@openzeppelin/contracts/utils/Address.sol\":1465:1472  account */\n      dup3\n        /* \"@openzeppelin/contracts/utils/Address.sol\":1465:1484  account.code.length */\n      0xffffffffffffffffffffffffffffffffffffffff\n      and\n      extcodesize\n        /* \"@openzeppelin/contracts/utils/Address.sol\":1465:1488  account.code.length > 0 */\n      gt\n        /* \"@openzeppelin/contracts/utils/Address.sol\":1458:1488  return account.code.length > 0 */\n      swap1\n      pop\n        /* \"@openzeppelin/contracts/utils/Address.sol\":1175:1495  function isContract(address account) internal view returns (bool) {... */\n      swap2\n      swap1\n      pop\n      jump\t// out\n        /* \"contracts/Staking.sol\":5861:6311  function _rewardAmount(uint256 _tokenId) internal view returns (uint256) {... */\n    tag_101:\n        /* \"contracts/Staking.sol\":5925:5932  uint256 */\n      0x00\n        /* \"contracts/Staking.sol\":5945:5965  LockInfo memory info */\n      dup1\n        /* \"contracts/Staking.sol\":5968:5976  lockInfo */\n      0x04\n        /* \"contracts/Staking.sol\":5968:5986  lockInfo[_tokenId] */\n      0x00\n        /* \"contracts/Staking.sol\":5977:5985  _tokenId */\n      dup5\n        /* \"contracts/Staking.sol\":5968:5986  lockInfo[_tokenId] */\n      dup2\n      mstore\n      0x20\n      add\n      swap1\n      dup2\n      mstore\n      0x20\n      add\n      0x00\n      keccak256\n        /* \"contracts/Staking.sol\":5945:5986  LockInfo memory info = lockInfo[_tokenId] */\n      mload(0x40)\n      dup1\n      0x80\n      add\n      0x40\n      mstore\n      swap1\n      dup2\n      0x00\n      dup3\n      add\n      0x00\n      swap1\n      sload\n      swap1\n      0x0100\n      exp\n      swap1\n      div\n      0xffffffffffffffffffffffffffffffffffffffff\n      and\n      0xffffffffffffffffffffffffffffffffffffffff\n      and\n      0xffffffffffffffffffffffffffffffffffffffff\n      and\n      dup2\n      mstore\n      0x20\n      add\n      0x01\n      dup3\n      add\n      sload\n      dup2\n      mstore\n      0x20\n      add\n      0x02\n      dup3\n      add\n      sload\n      dup2\n      mstore\n      0x20\n      add\n      0x03\n      dup3\n      add\n      0x00\n      swap1\n      sload\n      swap1\n      0x0100\n      exp\n      swap1\n      div\n      0xff\n      and\n      iszero\n      iszero\n      iszero\n      iszero\n      dup2\n      mstore\n      pop\n      pop\n      swap1\n      pop\n        /* \"contracts/Staking.sol\":5997:6020  uint256 stakingDuration */\n      0x00\n        /* \"contracts/Staking.sol\":6041:6045  info */\n      dup2\n        /* \"contracts/Staking.sol\":6041:6056  info.lockedTime */\n      0x20\n      add\n      mload\n        /* \"contracts/Staking.sol\":6023:6038  block.timestamp */\n      timestamp\n        /* \"contracts/Staking.sol\":6023:6056  block.timestamp - info.lockedTime */\n      tag_213\n      swap2\n      swap1\n      tag_103\n      jump\t// in\n    tag_213:\n        /* \"contracts/Staking.sol\":5997:6056  uint256 stakingDuration = block.timestamp - info.lockedTime */\n      swap1\n      pop\n        /* \"contracts/Staking.sol\":6067:6086  uint256 totalAmount */\n      0x00\n        /* \"contracts/Staking.sol\":6121:6131  lockPeriod */\n      sload(0x03)\n        /* \"contracts/Staking.sol\":6103:6118  stakingDuration */\n      dup3\n        /* \"contracts/Staking.sol\":6103:6131  stakingDuration < lockPeriod */\n      lt\n        /* \"contracts/Staking.sol\":6099:6304  if (stakingDuration < lockPeriod) {... */\n      iszero\n      tag_214\n      jumpi\n        /* \"contracts/Staking.sol\":6155:6156  0 */\n      0x00\n        /* \"contracts/Staking.sol\":6148:6156  return 0 */\n      swap4\n      pop\n      pop\n      pop\n      pop\n      jump(tag_212)\n        /* \"contracts/Staking.sol\":6099:6304  if (stakingDuration < lockPeriod) {... */\n    tag_214:\n        /* \"contracts/Staking.sol\":6255:6259  WAVE */\n      sload(0x05)\n        /* \"contracts/Staking.sol\":6240:6250  lockPeriod */\n      sload(0x03)\n        /* \"contracts/Staking.sol\":6222:6237  stakingDuration */\n      dup4\n        /* \"contracts/Staking.sol\":6222:6250  stakingDuration - lockPeriod */\n      tag_216\n      swap2\n      swap1\n      tag_103\n      jump\t// in\n    tag_216:\n        /* \"contracts/Staking.sol\":6204:6218  rewardsPerWave */\n      sload(0x06)\n        /* \"contracts/Staking.sol\":6204:6251  rewardsPerWave * (stakingDuration - lockPeriod) */\n      tag_217\n      swap2\n      swap1\n      tag_218\n      jump\t// in\n    tag_217:\n        /* \"contracts/Staking.sol\":6203:6259  (rewardsPerWave * (stakingDuration - lockPeriod)) / WAVE */\n      tag_219\n      swap2\n      swap1\n      tag_220\n      jump\t// in\n    tag_219:\n        /* \"contracts/Staking.sol\":6189:6259  totalAmount = (rewardsPerWave * (stakingDuration - lockPeriod)) / WAVE */\n      swap1\n      pop\n        /* \"contracts/Staking.sol\":6281:6292  totalAmount */\n      dup1\n        /* \"contracts/Staking.sol\":6274:6292  return totalAmount */\n      swap4\n      pop\n      pop\n      pop\n      pop\n        /* \"contracts/Staking.sol\":5861:6311  function _rewardAmount(uint256 _tokenId) internal view returns (uint256) {... */\n    tag_212:\n      swap2\n      swap1\n      pop\n      jump\t// out\n        /* \"@openzeppelin/contracts/access/Ownable.sol\":1359:1489  function _checkOwner() internal view virtual {... */\n    tag_113:\n        /* \"@openzeppelin/contracts/access/Ownable.sol\":1433:1445  _msgSender() */\n      tag_222\n        /* \"@openzeppelin/contracts/access/Ownable.sol\":1433:1443  _msgSender */\n      tag_223\n        /* \"@openzeppelin/contracts/access/Ownable.sol\":1433:1445  _msgSender() */\n      jump\t// in\n    tag_222:\n        /* \"@openzeppelin/contracts/access/Ownable.sol\":1422:1445  owner() == _msgSender() */\n      0xffffffffffffffffffffffffffffffffffffffff\n      and\n        /* \"@openzeppelin/contracts/access/Ownable.sol\":1422:1429  owner() */\n      tag_224\n        /* \"@openzeppelin/contracts/access/Ownable.sol\":1422:1427  owner */\n      tag_45\n        /* \"@openzeppelin/contracts/access/Ownable.sol\":1422:1429  owner() */\n      jump\t// in\n    tag_224:\n        /* \"@openzeppelin/contracts/access/Ownable.sol\":1422:1445  owner() == _msgSender() */\n      0xffffffffffffffffffffffffffffffffffffffff\n      and\n      eq\n        /* \"@openzeppelin/contracts/access/Ownable.sol\":1414:1482  require(owner() == _msgSender(), \"Ownable: caller is not the owner\") */\n      tag_225\n      jumpi\n      mload(0x40)\n      0x08c379a000000000000000000000000000000000000000000000000000000000\n      dup2\n      mstore\n      0x04\n      add\n      tag_226\n      swap1\n      tag_227\n      jump\t// in\n    tag_226:\n      mload(0x40)\n      dup1\n      swap2\n      sub\n      swap1\n      revert\n    tag_225:\n        /* \"@openzeppelin/contracts/access/Ownable.sol\":1359:1489  function _checkOwner() internal view virtual {... */\n      jump\t// out\n        /* \"@openzeppelin/contracts/access/Ownable.sol\":2433:2620  function _transferOwnership(address newOwner) internal virtual {... */\n    tag_116:\n        /* \"@openzeppelin/contracts/access/Ownable.sol\":2506:2522  address oldOwner */\n      0x00\n        /* \"@openzeppelin/contracts/access/Ownable.sol\":2525:2531  _owner */\n      dup1\n      0x00\n      swap1\n      sload\n      swap1\n      0x0100\n      exp\n      swap1\n      div\n      0xffffffffffffffffffffffffffffffffffffffff\n      and\n        /* \"@openzeppelin/contracts/access/Ownable.sol\":2506:2531  address oldOwner = _owner */\n      swap1\n      pop\n        /* \"@openzeppelin/contracts/access/Ownable.sol\":2550:2558  newOwner */\n      dup2\n        /* \"@openzeppelin/contracts/access/Ownable.sol\":2541:2547  _owner */\n      0x00\n      dup1\n        /* \"@openzeppelin/contracts/access/Ownable.sol\":2541:2558  _owner = newOwner */\n      0x0100\n      exp\n      dup2\n      sload\n      dup2\n      0xffffffffffffffffffffffffffffffffffffffff\n      mul\n      not\n      and\n      swap1\n      dup4\n      0xffffffffffffffffffffffffffffffffffffffff\n      and\n      mul\n      or\n      swap1\n      sstore\n      pop\n        /* \"@openzeppelin/contracts/access/Ownable.sol\":2604:2612  newOwner */\n      dup2\n        /* \"@openzeppelin/contracts/access/Ownable.sol\":2573:2613  OwnershipTransferred(oldOwner, newOwner) */\n      0xffffffffffffffffffffffffffffffffffffffff\n      and\n        /* \"@openzeppelin/contracts/access/Ownable.sol\":2594:2602  oldOwner */\n      dup2\n        /* \"@openzeppelin/contracts/access/Ownable.sol\":2573:2613  OwnershipTransferred(oldOwner, newOwner) */\n      0xffffffffffffffffffffffffffffffffffffffff\n      and\n      0x8be0079c531659141344cd1fd0a4f28419497f9722a3daafe3b4186f6b6457e0\n      mload(0x40)\n      mload(0x40)\n      dup1\n      swap2\n      sub\n      swap1\n      log3\n        /* \"@openzeppelin/contracts/access/Ownable.sol\":2496:2620  {... */\n      pop\n        /* \"@openzeppelin/contracts/access/Ownable.sol\":2433:2620  function _transferOwnership(address newOwner) internal virtual {... */\n      pop\n      jump\t// out\n        /* \"@openzeppelin/contracts/utils/Context.sol\":640:736  function _msgSender() internal view virtual returns (address) {... */\n    tag_223:\n        /* \"@openzeppelin/contracts/utils/Context.sol\":693:700  address */\n      0x00\n        /* \"@openzeppelin/contracts/utils/Context.sol\":719:729  msg.sender */\n      caller\n        /* \"@openzeppelin/contracts/utils/Context.sol\":712:729  return msg.sender */\n      swap1\n      pop\n        /* \"@openzeppelin/contracts/utils/Context.sol\":640:736  function _msgSender() internal view virtual returns (address) {... */\n      swap1\n      jump\t// out\n        /* \"#utility.yul\":88:205   */\n    tag_231:\n        /* \"#utility.yul\":197:198   */\n      0x00\n        /* \"#utility.yul\":194:195   */\n      dup1\n        /* \"#utility.yul\":187:199   */\n      revert\n        /* \"#utility.yul\":211:328   */\n    tag_232:\n        /* \"#utility.yul\":320:321   */\n      0x00\n        /* \"#utility.yul\":317:318   */\n      dup1\n        /* \"#utility.yul\":310:322   */\n      revert\n        /* \"#utility.yul\":334:411   */\n    tag_233:\n        /* \"#utility.yul\":371:378   */\n      0x00\n        /* \"#utility.yul\":400:405   */\n      dup2\n        /* \"#utility.yul\":389:405   */\n      swap1\n      pop\n        /* \"#utility.yul\":334:411   */\n      swap2\n      swap1\n      pop\n      jump\t// out\n        /* \"#utility.yul\":417:539   */\n    tag_234:\n        /* \"#utility.yul\":490:514   */\n      tag_291\n        /* \"#utility.yul\":508:513   */\n      dup2\n        /* \"#utility.yul\":490:514   */\n      tag_233\n      jump\t// in\n    tag_291:\n        /* \"#utility.yul\":483:488   */\n      dup2\n        /* \"#utility.yul\":480:515   */\n      eq\n        /* \"#utility.yul\":470:533   */\n      tag_292\n      jumpi\n        /* \"#utility.yul\":529:530   */\n      0x00\n        /* \"#utility.yul\":526:527   */\n      dup1\n        /* \"#utility.yul\":519:531   */\n      revert\n        /* \"#utility.yul\":470:533   */\n    tag_292:\n        /* \"#utility.yul\":417:539   */\n      pop\n      jump\t// out\n        /* \"#utility.yul\":545:684   */\n    tag_235:\n        /* \"#utility.yul\":591:596   */\n      0x00\n        /* \"#utility.yul\":629:635   */\n      dup2\n        /* \"#utility.yul\":616:636   */\n      calldataload\n        /* \"#utility.yul\":607:636   */\n      swap1\n      pop\n        /* \"#utility.yul\":645:678   */\n      tag_294\n        /* \"#utility.yul\":672:677   */\n      dup2\n        /* \"#utility.yul\":645:678   */\n      tag_234\n      jump\t// in\n    tag_294:\n        /* \"#utility.yul\":545:684   */\n      swap3\n      swap2\n      pop\n      pop\n      jump\t// out\n        /* \"#utility.yul\":690:1019   */\n    tag_20:\n        /* \"#utility.yul\":749:755   */\n      0x00\n        /* \"#utility.yul\":798:800   */\n      0x20\n        /* \"#utility.yul\":786:795   */\n      dup3\n        /* \"#utility.yul\":777:784   */\n      dup5\n        /* \"#utility.yul\":773:796   */\n      sub\n        /* \"#utility.yul\":769:801   */\n      slt\n        /* \"#utility.yul\":766:885   */\n      iszero\n      tag_296\n      jumpi\n        /* \"#utility.yul\":804:883   */\n      tag_297\n      tag_231\n      jump\t// in\n    tag_297:\n        /* \"#utility.yul\":766:885   */\n    tag_296:\n        /* \"#utility.yul\":924:925   */\n      0x00\n        /* \"#utility.yul\":949:1002   */\n      tag_298\n        /* \"#utility.yul\":994:1001   */\n      dup5\n        /* \"#utility.yul\":985:991   */\n      dup3\n        /* \"#utility.yul\":974:983   */\n      dup6\n        /* \"#utility.yul\":970:992   */\n      add\n        /* \"#utility.yul\":949:1002   */\n      tag_235\n      jump\t// in\n    tag_298:\n        /* \"#utility.yul\":939:1002   */\n      swap2\n      pop\n        /* \"#utility.yul\":895:1012   */\n      pop\n        /* \"#utility.yul\":690:1019   */\n      swap3\n      swap2\n      pop\n      pop\n      jump\t// out\n        /* \"#utility.yul\":1025:1143   */\n    tag_236:\n        /* \"#utility.yul\":1112:1136   */\n      tag_300\n        /* \"#utility.yul\":1130:1135   */\n      dup2\n        /* \"#utility.yul\":1112:1136   */\n      tag_233\n      jump\t// in\n    tag_300:\n        /* \"#utility.yul\":1107:1110   */\n      dup3\n        /* \"#utility.yul\":1100:1137   */\n      mstore\n        /* \"#utility.yul\":1025:1143   */\n      pop\n      pop\n      jump\t// out\n        /* \"#utility.yul\":1149:1371   */\n    tag_23:\n        /* \"#utility.yul\":1242:1246   */\n      0x00\n        /* \"#utility.yul\":1280:1282   */\n      0x20\n        /* \"#utility.yul\":1269:1278   */\n      dup3\n        /* \"#utility.yul\":1265:1283   */\n      add\n        /* \"#utility.yul\":1257:1283   */\n      swap1\n      pop\n        /* \"#utility.yul\":1293:1364   */\n      tag_302\n        /* \"#utility.yul\":1361:1362   */\n      0x00\n        /* \"#utility.yul\":1350:1359   */\n      dup4\n        /* \"#utility.yul\":1346:1363   */\n      add\n        /* \"#utility.yul\":1337:1343   */\n      dup5\n        /* \"#utility.yul\":1293:1364   */\n      tag_236\n      jump\t// in\n    tag_302:\n        /* \"#utility.yul\":1149:1371   */\n      swap3\n      swap2\n      pop\n      pop\n      jump\t// out\n        /* \"#utility.yul\":1377:1503   */\n    tag_237:\n        /* \"#utility.yul\":1414:1421   */\n      0x00\n        /* \"#utility.yul\":1454:1496   */\n      0xffffffffffffffffffffffffffffffffffffffff\n        /* \"#utility.yul\":1447:1452   */\n      dup3\n        /* \"#utility.yul\":1443:1497   */\n      and\n        /* \"#utility.yul\":1432:1497   */\n      swap1\n      pop\n        /* \"#utility.yul\":1377:1503   */\n      swap2\n      swap1\n      pop\n      jump\t// out\n        /* \"#utility.yul\":1509:1569   */\n    tag_238:\n        /* \"#utility.yul\":1537:1540   */\n      0x00\n        /* \"#utility.yul\":1558:1563   */\n      dup2\n        /* \"#utility.yul\":1551:1563   */\n      swap1\n      pop\n        /* \"#utility.yul\":1509:1569   */\n      swap2\n      swap1\n      pop\n      jump\t// out\n        /* \"#utility.yul\":1575:1717   */\n    tag_239:\n        /* \"#utility.yul\":1625:1634   */\n      0x00\n        /* \"#utility.yul\":1658:1711   */\n      tag_306\n        /* \"#utility.yul\":1676:1710   */\n      tag_307\n        /* \"#utility.yul\":1685:1709   */\n      tag_308\n        /* \"#utility.yul\":1703:1708   */\n      dup5\n        /* \"#utility.yul\":1685:1709   */\n      tag_237\n      jump\t// in\n    tag_308:\n        /* \"#utility.yul\":1676:1710   */\n      tag_238\n      jump\t// in\n    tag_307:\n        /* \"#utility.yul\":1658:1711   */\n      tag_237\n      jump\t// in\n    tag_306:\n        /* \"#utility.yul\":1645:1711   */\n      swap1\n      pop\n        /* \"#utility.yul\":1575:1717   */\n      swap2\n      swap1\n      pop\n      jump\t// out\n        /* \"#utility.yul\":1723:1849   */\n    tag_240:\n        /* \"#utility.yul\":1773:1782   */\n      0x00\n        /* \"#utility.yul\":1806:1843   */\n      tag_310\n        /* \"#utility.yul\":1837:1842   */\n      dup3\n        /* \"#utility.yul\":1806:1843   */\n      tag_239\n      jump\t// in\n    tag_310:\n        /* \"#utility.yul\":1793:1843   */\n      swap1\n      pop\n        /* \"#utility.yul\":1723:1849   */\n      swap2\n      swap1\n      pop\n      jump\t// out\n        /* \"#utility.yul\":1855:2003   */\n    tag_241:\n        /* \"#utility.yul\":1927:1936   */\n      0x00\n        /* \"#utility.yul\":1960:1997   */\n      tag_312\n        /* \"#utility.yul\":1991:1996   */\n      dup3\n        /* \"#utility.yul\":1960:1997   */\n      tag_240\n      jump\t// in\n    tag_312:\n        /* \"#utility.yul\":1947:1997   */\n      swap1\n      pop\n        /* \"#utility.yul\":1855:2003   */\n      swap2\n      swap1\n      pop\n      jump\t// out\n        /* \"#utility.yul\":2009:2184   */\n    tag_242:\n        /* \"#utility.yul\":2118:2177   */\n      tag_314\n        /* \"#utility.yul\":2171:2176   */\n      dup2\n        /* \"#utility.yul\":2118:2177   */\n      tag_241\n      jump\t// in\n    tag_314:\n        /* \"#utility.yul\":2113:2116   */\n      dup3\n        /* \"#utility.yul\":2106:2178   */\n      mstore\n        /* \"#utility.yul\":2009:2184   */\n      pop\n      pop\n      jump\t// out\n        /* \"#utility.yul\":2190:2456   */\n    tag_28:\n        /* \"#utility.yul\":2305:2309   */\n      0x00\n        /* \"#utility.yul\":2343:2345   */\n      0x20\n        /* \"#utility.yul\":2332:2341   */\n      dup3\n        /* \"#utility.yul\":2328:2346   */\n      add\n        /* \"#utility.yul\":2320:2346   */\n      swap1\n      pop\n        /* \"#utility.yul\":2356:2449   */\n      tag_316\n        /* \"#utility.yul\":2446:2447   */\n      0x00\n        /* \"#utility.yul\":2435:2444   */\n      dup4\n        /* \"#utility.yul\":2431:2448   */\n      add\n        /* \"#utility.yul\":2422:2428   */\n      dup5\n        /* \"#utility.yul\":2356:2449   */\n      tag_242\n      jump\t// in\n    tag_316:\n        /* \"#utility.yul\":2190:2456   */\n      swap3\n      swap2\n      pop\n      pop\n      jump\t// out\n        /* \"#utility.yul\":2462:2579   */\n    tag_243:\n        /* \"#utility.yul\":2571:2572   */\n      0x00\n        /* \"#utility.yul\":2568:2569   */\n      dup1\n        /* \"#utility.yul\":2561:2573   */\n      revert\n        /* \"#utility.yul\":2585:2702   */\n    tag_244:\n        /* \"#utility.yul\":2694:2695   */\n      0x00\n        /* \"#utility.yul\":2691:2692   */\n      dup1\n        /* \"#utility.yul\":2684:2696   */\n      revert\n        /* \"#utility.yul\":2708:2825   */\n    tag_245:\n        /* \"#utility.yul\":2817:2818   */\n      0x00\n        /* \"#utility.yul\":2814:2815   */\n      dup1\n        /* \"#utility.yul\":2807:2819   */\n      revert\n        /* \"#utility.yul\":2848:3416   */\n    tag_246:\n        /* \"#utility.yul\":2921:2929   */\n      0x00\n        /* \"#utility.yul\":2931:2937   */\n      dup1\n        /* \"#utility.yul\":2981:2984   */\n      dup4\n        /* \"#utility.yul\":2974:2978   */\n      0x1f\n        /* \"#utility.yul\":2966:2972   */\n      dup5\n        /* \"#utility.yul\":2962:2979   */\n      add\n        /* \"#utility.yul\":2958:2985   */\n      slt\n        /* \"#utility.yul\":2948:3070   */\n      tag_321\n      jumpi\n        /* \"#utility.yul\":2989:3068   */\n      tag_322\n      tag_243\n      jump\t// in\n    tag_322:\n        /* \"#utility.yul\":2948:3070   */\n    tag_321:\n        /* \"#utility.yul\":3102:3108   */\n      dup3\n        /* \"#utility.yul\":3089:3109   */\n      calldataload\n        /* \"#utility.yul\":3079:3109   */\n      swap1\n      pop\n        /* \"#utility.yul\":3132:3150   */\n      0xffffffffffffffff\n        /* \"#utility.yul\":3124:3130   */\n      dup2\n        /* \"#utility.yul\":3121:3151   */\n      gt\n        /* \"#utility.yul\":3118:3235   */\n      iszero\n      tag_323\n      jumpi\n        /* \"#utility.yul\":3154:3233   */\n      tag_324\n      tag_244\n      jump\t// in\n    tag_324:\n        /* \"#utility.yul\":3118:3235   */\n    tag_323:\n        /* \"#utility.yul\":3268:3272   */\n      0x20\n        /* \"#utility.yul\":3260:3266   */\n      dup4\n        /* \"#utility.yul\":3256:3273   */\n      add\n        /* \"#utility.yul\":3244:3273   */\n      swap2\n      pop\n        /* \"#utility.yul\":3322:3325   */\n      dup4\n        /* \"#utility.yul\":3314:3318   */\n      0x20\n        /* \"#utility.yul\":3306:3312   */\n      dup3\n        /* \"#utility.yul\":3302:3319   */\n      mul\n        /* \"#utility.yul\":3292:3300   */\n      dup4\n        /* \"#utility.yul\":3288:3320   */\n      add\n        /* \"#utility.yul\":3285:3326   */\n      gt\n        /* \"#utility.yul\":3282:3410   */\n      iszero\n      tag_325\n      jumpi\n        /* \"#utility.yul\":3329:3408   */\n      tag_326\n      tag_245\n      jump\t// in\n    tag_326:\n        /* \"#utility.yul\":3282:3410   */\n    tag_325:\n        /* \"#utility.yul\":2848:3416   */\n      swap3\n      pop\n      swap3\n      swap1\n      pop\n      jump\t// out\n        /* \"#utility.yul\":3422:3981   */\n    tag_34:\n        /* \"#utility.yul\":3508:3514   */\n      0x00\n        /* \"#utility.yul\":3516:3522   */\n      dup1\n        /* \"#utility.yul\":3565:3567   */\n      0x20\n        /* \"#utility.yul\":3553:3562   */\n      dup4\n        /* \"#utility.yul\":3544:3551   */\n      dup6\n        /* \"#utility.yul\":3540:3563   */\n      sub\n        /* \"#utility.yul\":3536:3568   */\n      slt\n        /* \"#utility.yul\":3533:3652   */\n      iszero\n      tag_328\n      jumpi\n        /* \"#utility.yul\":3571:3650   */\n      tag_329\n      tag_231\n      jump\t// in\n    tag_329:\n        /* \"#utility.yul\":3533:3652   */\n    tag_328:\n        /* \"#utility.yul\":3719:3720   */\n      0x00\n        /* \"#utility.yul\":3708:3717   */\n      dup4\n        /* \"#utility.yul\":3704:3721   */\n      add\n        /* \"#utility.yul\":3691:3722   */\n      calldataload\n        /* \"#utility.yul\":3749:3767   */\n      0xffffffffffffffff\n        /* \"#utility.yul\":3741:3747   */\n      dup2\n        /* \"#utility.yul\":3738:3768   */\n      gt\n        /* \"#utility.yul\":3735:3852   */\n      iszero\n      tag_330\n      jumpi\n        /* \"#utility.yul\":3771:3850   */\n      tag_331\n      tag_232\n      jump\t// in\n    tag_331:\n        /* \"#utility.yul\":3735:3852   */\n    tag_330:\n        /* \"#utility.yul\":3884:3964   */\n      tag_332\n        /* \"#utility.yul\":3956:3963   */\n      dup6\n        /* \"#utility.yul\":3947:3953   */\n      dup3\n        /* \"#utility.yul\":3936:3945   */\n      dup7\n        /* \"#utility.yul\":3932:3954   */\n      add\n        /* \"#utility.yul\":3884:3964   */\n      tag_246\n      jump\t// in\n    tag_332:\n        /* \"#utility.yul\":3866:3964   */\n      swap3\n      pop\n      swap3\n      pop\n        /* \"#utility.yul\":3662:3974   */\n      pop\n        /* \"#utility.yul\":3422:3981   */\n      swap3\n      pop\n      swap3\n      swap1\n      pop\n      jump\t// out\n        /* \"#utility.yul\":3987:4083   */\n    tag_247:\n        /* \"#utility.yul\":4024:4031   */\n      0x00\n        /* \"#utility.yul\":4053:4077   */\n      tag_334\n        /* \"#utility.yul\":4071:4076   */\n      dup3\n        /* \"#utility.yul\":4053:4077   */\n      tag_237\n      jump\t// in\n    tag_334:\n        /* \"#utility.yul\":4042:4077   */\n      swap1\n      pop\n        /* \"#utility.yul\":3987:4083   */\n      swap2\n      swap1\n      pop\n      jump\t// out\n        /* \"#utility.yul\":4089:4207   */\n    tag_248:\n        /* \"#utility.yul\":4176:4200   */\n      tag_336\n        /* \"#utility.yul\":4194:4199   */\n      dup2\n        /* \"#utility.yul\":4176:4200   */\n      tag_247\n      jump\t// in\n    tag_336:\n        /* \"#utility.yul\":4171:4174   */\n      dup3\n        /* \"#utility.yul\":4164:4201   */\n      mstore\n        /* \"#utility.yul\":4089:4207   */\n      pop\n      pop\n      jump\t// out\n        /* \"#utility.yul\":4213:4435   */\n    tag_47:\n        /* \"#utility.yul\":4306:4310   */\n      0x00\n        /* \"#utility.yul\":4344:4346   */\n      0x20\n        /* \"#utility.yul\":4333:4342   */\n      dup3\n        /* \"#utility.yul\":4329:4347   */\n      add\n        /* \"#utility.yul\":4321:4347   */\n      swap1\n      pop\n        /* \"#utility.yul\":4357:4428   */\n      tag_338\n        /* \"#utility.yul\":4425:4426   */\n      0x00\n        /* \"#utility.yul\":4414:4423   */\n      dup4\n        /* \"#utility.yul\":4410:4427   */\n      add\n        /* \"#utility.yul\":4401:4407   */\n      dup5\n        /* \"#utility.yul\":4357:4428   */\n      tag_248\n      jump\t// in\n    tag_338:\n        /* \"#utility.yul\":4213:4435   */\n      swap3\n      swap2\n      pop\n      pop\n      jump\t// out\n        /* \"#utility.yul\":4441:4582   */\n    tag_249:\n        /* \"#utility.yul\":4506:4515   */\n      0x00\n        /* \"#utility.yul\":4539:4576   */\n      tag_340\n        /* \"#utility.yul\":4570:4575   */\n      dup3\n        /* \"#utility.yul\":4539:4576   */\n      tag_240\n      jump\t// in\n    tag_340:\n        /* \"#utility.yul\":4526:4576   */\n      swap1\n      pop\n        /* \"#utility.yul\":4441:4582   */\n      swap2\n      swap1\n      pop\n      jump\t// out\n        /* \"#utility.yul\":4588:4749   */\n    tag_250:\n        /* \"#utility.yul\":4690:4742   */\n      tag_342\n        /* \"#utility.yul\":4736:4741   */\n      dup2\n        /* \"#utility.yul\":4690:4742   */\n      tag_249\n      jump\t// in\n    tag_342:\n        /* \"#utility.yul\":4685:4688   */\n      dup3\n        /* \"#utility.yul\":4678:4743   */\n      mstore\n        /* \"#utility.yul\":4588:4749   */\n      pop\n      pop\n      jump\t// out\n        /* \"#utility.yul\":4755:5007   */\n    tag_51:\n        /* \"#utility.yul\":4863:4867   */\n      0x00\n        /* \"#utility.yul\":4901:4903   */\n      0x20\n        /* \"#utility.yul\":4890:4899   */\n      dup3\n        /* \"#utility.yul\":4886:4904   */\n      add\n        /* \"#utility.yul\":4878:4904   */\n      swap1\n      pop\n        /* \"#utility.yul\":4914:5000   */\n      tag_344\n        /* \"#utility.yul\":4997:4998   */\n      0x00\n        /* \"#utility.yul\":4986:4995   */\n      dup4\n        /* \"#utility.yul\":4982:4999   */\n      add\n        /* \"#utility.yul\":4973:4979   */\n      dup5\n        /* \"#utility.yul\":4914:5000   */\n      tag_250\n      jump\t// in\n    tag_344:\n        /* \"#utility.yul\":4755:5007   */\n      swap3\n      swap2\n      pop\n      pop\n      jump\t// out\n        /* \"#utility.yul\":5013:5135   */\n    tag_251:\n        /* \"#utility.yul\":5086:5110   */\n      tag_346\n        /* \"#utility.yul\":5104:5109   */\n      dup2\n        /* \"#utility.yul\":5086:5110   */\n      tag_247\n      jump\t// in\n    tag_346:\n        /* \"#utility.yul\":5079:5084   */\n      dup2\n        /* \"#utility.yul\":5076:5111   */\n      eq\n        /* \"#utility.yul\":5066:5129   */\n      tag_347\n      jumpi\n        /* \"#utility.yul\":5125:5126   */\n      0x00\n        /* \"#utility.yul\":5122:5123   */\n      dup1\n        /* \"#utility.yul\":5115:5127   */\n      revert\n        /* \"#utility.yul\":5066:5129   */\n    tag_347:\n        /* \"#utility.yul\":5013:5135   */\n      pop\n      jump\t// out\n        /* \"#utility.yul\":5141:5280   */\n    tag_252:\n        /* \"#utility.yul\":5187:5192   */\n      0x00\n        /* \"#utility.yul\":5225:5231   */\n      dup2\n        /* \"#utility.yul\":5212:5232   */\n      calldataload\n        /* \"#utility.yul\":5203:5232   */\n      swap1\n      pop\n        /* \"#utility.yul\":5241:5274   */\n      tag_349\n        /* \"#utility.yul\":5268:5273   */\n      dup2\n        /* \"#utility.yul\":5241:5274   */\n      tag_251\n      jump\t// in\n    tag_349:\n        /* \"#utility.yul\":5141:5280   */\n      swap3\n      swap2\n      pop\n      pop\n      jump\t// out\n        /* \"#utility.yul\":5286:5615   */\n    tag_60:\n        /* \"#utility.yul\":5345:5351   */\n      0x00\n        /* \"#utility.yul\":5394:5396   */\n      0x20\n        /* \"#utility.yul\":5382:5391   */\n      dup3\n        /* \"#utility.yul\":5373:5380   */\n      dup5\n        /* \"#utility.yul\":5369:5392   */\n      sub\n        /* \"#utility.yul\":5365:5397   */\n      slt\n        /* \"#utility.yul\":5362:5481   */\n      iszero\n      tag_351\n      jumpi\n        /* \"#utility.yul\":5400:5479   */\n      tag_352\n      tag_231\n      jump\t// in\n    tag_352:\n        /* \"#utility.yul\":5362:5481   */\n    tag_351:\n        /* \"#utility.yul\":5520:5521   */\n      0x00\n        /* \"#utility.yul\":5545:5598   */\n      tag_353\n        /* \"#utility.yul\":5590:5597   */\n      dup5\n        /* \"#utility.yul\":5581:5587   */\n      dup3\n        /* \"#utility.yul\":5570:5579   */\n      dup6\n        /* \"#utility.yul\":5566:5588   */\n      add\n        /* \"#utility.yul\":5545:5598   */\n      tag_252\n      jump\t// in\n    tag_353:\n        /* \"#utility.yul\":5535:5598   */\n      swap2\n      pop\n        /* \"#utility.yul\":5491:5608   */\n      pop\n        /* \"#utility.yul\":5286:5615   */\n      swap3\n      swap2\n      pop\n      pop\n      jump\t// out\n        /* \"#utility.yul\":5621:5790   */\n    tag_253:\n        /* \"#utility.yul\":5705:5716   */\n      0x00\n        /* \"#utility.yul\":5739:5745   */\n      dup3\n        /* \"#utility.yul\":5734:5737   */\n      dup3\n        /* \"#utility.yul\":5727:5746   */\n      mstore\n        /* \"#utility.yul\":5779:5783   */\n      0x20\n        /* \"#utility.yul\":5774:5777   */\n      dup3\n        /* \"#utility.yul\":5770:5784   */\n      add\n        /* \"#utility.yul\":5755:5784   */\n      swap1\n      pop\n        /* \"#utility.yul\":5621:5790   */\n      swap3\n      swap2\n      pop\n      pop\n      jump\t// out\n        /* \"#utility.yul\":5796:5966   */\n    tag_254:\n        /* \"#utility.yul\":5936:5958   */\n      0x436f6e7472616374206e6f7420616c6c6f776564000000000000000000000000\n        /* \"#utility.yul\":5932:5933   */\n      0x00\n        /* \"#utility.yul\":5924:5930   */\n      dup3\n        /* \"#utility.yul\":5920:5934   */\n      add\n        /* \"#utility.yul\":5913:5959   */\n      mstore\n        /* \"#utility.yul\":5796:5966   */\n      pop\n      jump\t// out\n        /* \"#utility.yul\":5972:6338   */\n    tag_255:\n        /* \"#utility.yul\":6114:6117   */\n      0x00\n        /* \"#utility.yul\":6135:6202   */\n      tag_357\n        /* \"#utility.yul\":6199:6201   */\n      0x14\n        /* \"#utility.yul\":6194:6197   */\n      dup4\n        /* \"#utility.yul\":6135:6202   */\n      tag_253\n      jump\t// in\n    tag_357:\n        /* \"#utility.yul\":6128:6202   */\n      swap2\n      pop\n        /* \"#utility.yul\":6211:6304   */\n      tag_358\n        /* \"#utility.yul\":6300:6303   */\n      dup3\n        /* \"#utility.yul\":6211:6304   */\n      tag_254\n      jump\t// in\n    tag_358:\n        /* \"#utility.yul\":6329:6331   */\n      0x20\n        /* \"#utility.yul\":6324:6327   */\n      dup3\n        /* \"#utility.yul\":6320:6332   */\n      add\n        /* \"#utility.yul\":6313:6332   */\n      swap1\n      pop\n        /* \"#utility.yul\":5972:6338   */\n      swap2\n      swap1\n      pop\n      jump\t// out\n        /* \"#utility.yul\":6344:6763   */\n    tag_73:\n        /* \"#utility.yul\":6510:6514   */\n      0x00\n        /* \"#utility.yul\":6548:6550   */\n      0x20\n        /* \"#utility.yul\":6537:6546   */\n      dup3\n        /* \"#utility.yul\":6533:6551   */\n      add\n        /* \"#utility.yul\":6525:6551   */\n      swap1\n      pop\n        /* \"#utility.yul\":6597:6606   */\n      dup2\n        /* \"#utility.yul\":6591:6595   */\n      dup2\n        /* \"#utility.yul\":6587:6607   */\n      sub\n        /* \"#utility.yul\":6583:6584   */\n      0x00\n        /* \"#utility.yul\":6572:6581   */\n      dup4\n        /* \"#utility.yul\":6568:6585   */\n      add\n        /* \"#utility.yul\":6561:6608   */\n      mstore\n        /* \"#utility.yul\":6625:6756   */\n      tag_360\n        /* \"#utility.yul\":6751:6755   */\n      dup2\n        /* \"#utility.yul\":6625:6756   */\n      tag_255\n      jump\t// in\n    tag_360:\n        /* \"#utility.yul\":6617:6756   */\n      swap1\n      pop\n        /* \"#utility.yul\":6344:6763   */\n      swap2\n      swap1\n      pop\n      jump\t// out\n        /* \"#utility.yul\":6769:6945   */\n    tag_256:\n        /* \"#utility.yul\":6909:6937   */\n      0x50726f787920636f6e7472616374206e6f7420616c6c6f776564000000000000\n        /* \"#utility.yul\":6905:6906   */\n      0x00\n        /* \"#utility.yul\":6897:6903   */\n      dup3\n        /* \"#utility.yul\":6893:6907   */\n      add\n        /* \"#utility.yul\":6886:6938   */\n      mstore\n        /* \"#utility.yul\":6769:6945   */\n      pop\n      jump\t// out\n        /* \"#utility.yul\":6951:7317   */\n    tag_257:\n        /* \"#utility.yul\":7093:7096   */\n      0x00\n        /* \"#utility.yul\":7114:7181   */\n      tag_363\n        /* \"#utility.yul\":7178:7180   */\n      0x1a\n        /* \"#utility.yul\":7173:7176   */\n      dup4\n        /* \"#utility.yul\":7114:7181   */\n      tag_253\n      jump\t// in\n    tag_363:\n        /* \"#utility.yul\":7107:7181   */\n      swap2\n      pop\n        /* \"#utility.yul\":7190:7283   */\n      tag_364\n        /* \"#utility.yul\":7279:7282   */\n      dup3\n        /* \"#utility.yul\":7190:7283   */\n      tag_256\n      jump\t// in\n    tag_364:\n        /* \"#utility.yul\":7308:7310   */\n      0x20\n        /* \"#utility.yul\":7303:7306   */\n      dup3\n        /* \"#utility.yul\":7299:7311   */\n      add\n        /* \"#utility.yul\":7292:7311   */\n      swap1\n      pop\n        /* \"#utility.yul\":6951:7317   */\n      swap2\n      swap1\n      pop\n      jump\t// out\n        /* \"#utility.yul\":7323:7742   */\n    tag_76:\n        /* \"#utility.yul\":7489:7493   */\n      0x00\n        /* \"#utility.yul\":7527:7529   */\n      0x20\n        /* \"#utility.yul\":7516:7525   */\n      dup3\n        /* \"#utility.yul\":7512:7530   */\n      add\n        /* \"#utility.yul\":7504:7530   */\n      swap1\n      pop\n        /* \"#utility.yul\":7576:7585   */\n      dup2\n        /* \"#utility.yul\":7570:7574   */\n      dup2\n        /* \"#utility.yul\":7566:7586   */\n      sub\n        /* \"#utility.yul\":7562:7563   */\n      0x00\n        /* \"#utility.yul\":7551:7560   */\n      dup4\n        /* \"#utility.yul\":7547:7564   */\n      add\n        /* \"#utility.yul\":7540:7587   */\n      mstore\n        /* \"#utility.yul\":7604:7735   */\n      tag_366\n        /* \"#utility.yul\":7730:7734   */\n      dup2\n        /* \"#utility.yul\":7604:7735   */\n      tag_257\n      jump\t// in\n    tag_366:\n        /* \"#utility.yul\":7596:7735   */\n      swap1\n      pop\n        /* \"#utility.yul\":7323:7742   */\n      swap2\n      swap1\n      pop\n      jump\t// out\n        /* \"#utility.yul\":7748:7907   */\n    tag_258:\n        /* \"#utility.yul\":7888:7899   */\n      0x4e6f20746f6b656e730000000000000000000000000000000000000000000000\n        /* \"#utility.yul\":7884:7885   */\n      0x00\n        /* \"#utility.yul\":7876:7882   */\n      dup3\n        /* \"#utility.yul\":7872:7886   */\n      add\n        /* \"#utility.yul\":7865:7900   */\n      mstore\n        /* \"#utility.yul\":7748:7907   */\n      pop\n      jump\t// out\n        /* \"#utility.yul\":7913:8278   */\n    tag_259:\n        /* \"#utility.yul\":8055:8058   */\n      0x00\n        /* \"#utility.yul\":8076:8142   */\n      tag_369\n        /* \"#utility.yul\":8140:8141   */\n      0x09\n        /* \"#utility.yul\":8135:8138   */\n      dup4\n        /* \"#utility.yul\":8076:8142   */\n      tag_253\n      jump\t// in\n    tag_369:\n        /* \"#utility.yul\":8069:8142   */\n      swap2\n      pop\n        /* \"#utility.yul\":8151:8244   */\n      tag_370\n        /* \"#utility.yul\":8240:8243   */\n      dup3\n        /* \"#utility.yul\":8151:8244   */\n      tag_258\n      jump\t// in\n    tag_370:\n        /* \"#utility.yul\":8269:8271   */\n      0x20\n        /* \"#utility.yul\":8264:8267   */\n      dup3\n        /* \"#utility.yul\":8260:8272   */\n      add\n        /* \"#utility.yul\":8253:8272   */\n      swap1\n      pop\n        /* \"#utility.yul\":7913:8278   */\n      swap2\n      swap1\n      pop\n      jump\t// out\n        /* \"#utility.yul\":8284:8703   */\n    tag_80:\n        /* \"#utility.yul\":8450:8454   */\n      0x00\n        /* \"#utility.yul\":8488:8490   */\n      0x20\n        /* \"#utility.yul\":8477:8486   */\n      dup3\n        /* \"#utility.yul\":8473:8491   */\n      add\n        /* \"#utility.yul\":8465:8491   */\n      swap1\n      pop\n        /* \"#utility.yul\":8537:8546   */\n      dup2\n        /* \"#utility.yul\":8531:8535   */\n      dup2\n        /* \"#utility.yul\":8527:8547   */\n      sub\n        /* \"#utility.yul\":8523:8524   */\n      0x00\n        /* \"#utility.yul\":8512:8521   */\n      dup4\n        /* \"#utility.yul\":8508:8525   */\n      add\n        /* \"#utility.yul\":8501:8548   */\n      mstore\n        /* \"#utility.yul\":8565:8696   */\n      tag_372\n        /* \"#utility.yul\":8691:8695   */\n      dup2\n        /* \"#utility.yul\":8565:8696   */\n      tag_259\n      jump\t// in\n    tag_372:\n        /* \"#utility.yul\":8557:8696   */\n      swap1\n      pop\n        /* \"#utility.yul\":8284:8703   */\n      swap2\n      swap1\n      pop\n      jump\t// out\n        /* \"#utility.yul\":8709:8889   */\n    tag_86:\n        /* \"#utility.yul\":8757:8834   */\n      0x4e487b7100000000000000000000000000000000000000000000000000000000\n        /* \"#utility.yul\":8754:8755   */\n      0x00\n        /* \"#utility.yul\":8747:8835   */\n      mstore\n        /* \"#utility.yul\":8854:8858   */\n      0x32\n        /* \"#utility.yul\":8851:8852   */\n      0x04\n        /* \"#utility.yul\":8844:8859   */\n      mstore\n        /* \"#utility.yul\":8878:8882   */\n      0x24\n        /* \"#utility.yul\":8875:8876   */\n      0x00\n        /* \"#utility.yul\":8868:8883   */\n      revert\n        /* \"#utility.yul\":8895:9062   */\n    tag_260:\n        /* \"#utility.yul\":9035:9054   */\n      0x4e6f74206120746f6b656e206f776e6572000000000000000000000000000000\n        /* \"#utility.yul\":9031:9032   */\n      0x00\n        /* \"#utility.yul\":9023:9029   */\n      dup3\n        /* \"#utility.yul\":9019:9033   */\n      add\n        /* \"#utility.yul\":9012:9055   */\n      mstore\n        /* \"#utility.yul\":8895:9062   */\n      pop\n      jump\t// out\n        /* \"#utility.yul\":9068:9434   */\n    tag_261:\n        /* \"#utility.yul\":9210:9213   */\n      0x00\n        /* \"#utility.yul\":9231:9298   */\n      tag_376\n        /* \"#utility.yul\":9295:9297   */\n      0x11\n        /* \"#utility.yul\":9290:9293   */\n      dup4\n        /* \"#utility.yul\":9231:9298   */\n      tag_253\n      jump\t// in\n    tag_376:\n        /* \"#utility.yul\":9224:9298   */\n      swap2\n      pop\n        /* \"#utility.yul\":9307:9400   */\n      tag_377\n        /* \"#utility.yul\":9396:9399   */\n      dup3\n        /* \"#utility.yul\":9307:9400   */\n      tag_260\n      jump\t// in\n    tag_377:\n        /* \"#utility.yul\":9425:9427   */\n      0x20\n        /* \"#utility.yul\":9420:9423   */\n      dup3\n        /* \"#utility.yul\":9416:9428   */\n      add\n        /* \"#utility.yul\":9409:9428   */\n      swap1\n      pop\n        /* \"#utility.yul\":9068:9434   */\n      swap2\n      swap1\n      pop\n      jump\t// out\n        /* \"#utility.yul\":9440:9859   */\n    tag_89:\n        /* \"#utility.yul\":9606:9610   */\n      0x00\n        /* \"#utility.yul\":9644:9646   */\n      0x20\n        /* \"#utility.yul\":9633:9642   */\n      dup3\n        /* \"#utility.yul\":9629:9647   */\n      add\n        /* \"#utility.yul\":9621:9647   */\n      swap1\n      pop\n        /* \"#utility.yul\":9693:9702   */\n      dup2\n        /* \"#utility.yul\":9687:9691   */\n      dup2\n        /* \"#utility.yul\":9683:9703   */\n      sub\n        /* \"#utility.yul\":9679:9680   */\n      0x00\n        /* \"#utility.yul\":9668:9677   */\n      dup4\n        /* \"#utility.yul\":9664:9681   */\n      add\n        /* \"#utility.yul\":9657:9704   */\n      mstore\n        /* \"#utility.yul\":9721:9852   */\n      tag_379\n        /* \"#utility.yul\":9847:9851   */\n      dup2\n        /* \"#utility.yul\":9721:9852   */\n      tag_261\n      jump\t// in\n    tag_379:\n        /* \"#utility.yul\":9713:9852   */\n      swap1\n      pop\n        /* \"#utility.yul\":9440:9859   */\n      swap2\n      swap1\n      pop\n      jump\t// out\n        /* \"#utility.yul\":9865:10045   */\n    tag_262:\n        /* \"#utility.yul\":9913:9990   */\n      0x4e487b7100000000000000000000000000000000000000000000000000000000\n        /* \"#utility.yul\":9910:9911   */\n      0x00\n        /* \"#utility.yul\":9903:9991   */\n      mstore\n        /* \"#utility.yul\":10010:10014   */\n      0x11\n        /* \"#utility.yul\":10007:10008   */\n      0x04\n        /* \"#utility.yul\":10000:10015   */\n      mstore\n        /* \"#utility.yul\":10034:10038   */\n      0x24\n        /* \"#utility.yul\":10031:10032   */\n      0x00\n        /* \"#utility.yul\":10024:10039   */\n      revert\n        /* \"#utility.yul\":10051:10242   */\n    tag_91:\n        /* \"#utility.yul\":10091:10094   */\n      0x00\n        /* \"#utility.yul\":10110:10130   */\n      tag_382\n        /* \"#utility.yul\":10128:10129   */\n      dup3\n        /* \"#utility.yul\":10110:10130   */\n      tag_233\n      jump\t// in\n    tag_382:\n        /* \"#utility.yul\":10105:10130   */\n      swap2\n      pop\n        /* \"#utility.yul\":10144:10164   */\n      tag_383\n        /* \"#utility.yul\":10162:10163   */\n      dup4\n        /* \"#utility.yul\":10144:10164   */\n      tag_233\n      jump\t// in\n    tag_383:\n        /* \"#utility.yul\":10139:10164   */\n      swap3\n      pop\n        /* \"#utility.yul\":10187:10188   */\n      dup3\n        /* \"#utility.yul\":10184:10185   */\n      dup3\n        /* \"#utility.yul\":10180:10189   */\n      add\n        /* \"#utility.yul\":10173:10189   */\n      swap1\n      pop\n        /* \"#utility.yul\":10208:10211   */\n      dup1\n        /* \"#utility.yul\":10205:10206   */\n      dup3\n        /* \"#utility.yul\":10202:10212   */\n      gt\n        /* \"#utility.yul\":10199:10235   */\n      iszero\n      tag_384\n      jumpi\n        /* \"#utility.yul\":10215:10233   */\n      tag_385\n      tag_262\n      jump\t// in\n    tag_385:\n        /* \"#utility.yul\":10199:10235   */\n    tag_384:\n        /* \"#utility.yul\":10051:10242   */\n      swap3\n      swap2\n      pop\n      pop\n      jump\t// out\n        /* \"#utility.yul\":10248:10419   */\n    tag_263:\n        /* \"#utility.yul\":10388:10411   */\n      0x4e6f742061626c6520746f20636c61696d207965740000000000000000000000\n        /* \"#utility.yul\":10384:10385   */\n      0x00\n        /* \"#utility.yul\":10376:10382   */\n      dup3\n        /* \"#utility.yul\":10372:10386   */\n      add\n        /* \"#utility.yul\":10365:10412   */\n      mstore\n        /* \"#utility.yul\":10248:10419   */\n      pop\n      jump\t// out\n        /* \"#utility.yul\":10425:10791   */\n    tag_264:\n        /* \"#utility.yul\":10567:10570   */\n      0x00\n        /* \"#utility.yul\":10588:10655   */\n      tag_388\n        /* \"#utility.yul\":10652:10654   */\n      0x15\n        /* \"#utility.yul\":10647:10650   */\n      dup4\n        /* \"#utility.yul\":10588:10655   */\n      tag_253\n      jump\t// in\n    tag_388:\n        /* \"#utility.yul\":10581:10655   */\n      swap2\n      pop\n        /* \"#utility.yul\":10664:10757   */\n      tag_389\n        /* \"#utility.yul\":10753:10756   */\n      dup3\n        /* \"#utility.yul\":10664:10757   */\n      tag_263\n      jump\t// in\n    tag_389:\n        /* \"#utility.yul\":10782:10784   */\n      0x20\n        /* \"#utility.yul\":10777:10780   */\n      dup3\n        /* \"#utility.yul\":10773:10785   */\n      add\n        /* \"#utility.yul\":10766:10785   */\n      swap1\n      pop\n        /* \"#utility.yul\":10425:10791   */\n      swap2\n      swap1\n      pop\n      jump\t// out\n        /* \"#utility.yul\":10797:11216   */\n    tag_94:\n        /* \"#utility.yul\":10963:10967   */\n      0x00\n        /* \"#utility.yul\":11001:11003   */\n      0x20\n        /* \"#utility.yul\":10990:10999   */\n      dup3\n        /* \"#utility.yul\":10986:11004   */\n      add\n        /* \"#utility.yul\":10978:11004   */\n      swap1\n      pop\n        /* \"#utility.yul\":11050:11059   */\n      dup2\n        /* \"#utility.yul\":11044:11048   */\n      dup2\n        /* \"#utility.yul\":11040:11060   */\n      sub\n        /* \"#utility.yul\":11036:11037   */\n      0x00\n        /* \"#utility.yul\":11025:11034   */\n      dup4\n        /* \"#utility.yul\":11021:11038   */\n      add\n        /* \"#utility.yul\":11014:11061   */\n      mstore\n        /* \"#utility.yul\":11078:11209   */\n      tag_391\n        /* \"#utility.yul\":11204:11208   */\n      dup2\n        /* \"#utility.yul\":11078:11209   */\n      tag_264\n      jump\t// in\n    tag_391:\n        /* \"#utility.yul\":11070:11209   */\n      swap1\n      pop\n        /* \"#utility.yul\":10797:11216   */\n      swap2\n      swap1\n      pop\n      jump\t// out\n        /* \"#utility.yul\":11222:11388   */\n    tag_265:\n        /* \"#utility.yul\":11362:11380   */\n      0x416c726561647920756e6c6f636b656400000000000000000000000000000000\n        /* \"#utility.yul\":11358:11359   */\n      0x00\n        /* \"#utility.yul\":11350:11356   */\n      dup3\n        /* \"#utility.yul\":11346:11360   */\n      add\n        /* \"#utility.yul\":11339:11381   */\n      mstore\n        /* \"#utility.yul\":11222:11388   */\n      pop\n      jump\t// out\n        /* \"#utility.yul\":11394:11760   */\n    tag_266:\n        /* \"#utility.yul\":11536:11539   */\n      0x00\n        /* \"#utility.yul\":11557:11624   */\n      tag_394\n        /* \"#utility.yul\":11621:11623   */\n      0x10\n        /* \"#utility.yul\":11616:11619   */\n      dup4\n        /* \"#utility.yul\":11557:11624   */\n      tag_253\n      jump\t// in\n    tag_394:\n        /* \"#utility.yul\":11550:11624   */\n      swap2\n      pop\n        /* \"#utility.yul\":11633:11726   */\n      tag_395\n        /* \"#utility.yul\":11722:11725   */\n      dup3\n        /* \"#utility.yul\":11633:11726   */\n      tag_265\n      jump\t// in\n    tag_395:\n        /* \"#utility.yul\":11751:11753   */\n      0x20\n        /* \"#utility.yul\":11746:11749   */\n      dup3\n        /* \"#utility.yul\":11742:11754   */\n      add\n        /* \"#utility.yul\":11735:11754   */\n      swap1\n      pop\n        /* \"#utility.yul\":11394:11760   */\n      swap2\n      swap1\n      pop\n      jump\t// out\n        /* \"#utility.yul\":11766:12185   */\n    tag_97:\n        /* \"#utility.yul\":11932:11936   */\n      0x00\n        /* \"#utility.yul\":11970:11972   */\n      0x20\n        /* \"#utility.yul\":11959:11968   */\n      dup3\n        /* \"#utility.yul\":11955:11973   */\n      add\n        /* \"#utility.yul\":11947:11973   */\n      swap1\n      pop\n        /* \"#utility.yul\":12019:12028   */\n      dup2\n        /* \"#utility.yul\":12013:12017   */\n      dup2\n        /* \"#utility.yul\":12009:12029   */\n      sub\n        /* \"#utility.yul\":12005:12006   */\n      0x00\n        /* \"#utility.yul\":11994:12003   */\n      dup4\n        /* \"#utility.yul\":11990:12007   */\n      add\n        /* \"#utility.yul\":11983:12030   */\n      mstore\n        /* \"#utility.yul\":12047:12178   */\n      tag_397\n        /* \"#utility.yul\":12173:12177   */\n      dup2\n        /* \"#utility.yul\":12047:12178   */\n      tag_266\n      jump\t// in\n    tag_397:\n        /* \"#utility.yul\":12039:12178   */\n      swap1\n      pop\n        /* \"#utility.yul\":11766:12185   */\n      swap2\n      swap1\n      pop\n      jump\t// out\n        /* \"#utility.yul\":12191:12385   */\n    tag_103:\n        /* \"#utility.yul\":12231:12235   */\n      0x00\n        /* \"#utility.yul\":12251:12271   */\n      tag_399\n        /* \"#utility.yul\":12269:12270   */\n      dup3\n        /* \"#utility.yul\":12251:12271   */\n      tag_233\n      jump\t// in\n    tag_399:\n        /* \"#utility.yul\":12246:12271   */\n      swap2\n      pop\n        /* \"#utility.yul\":12285:12305   */\n      tag_400\n        /* \"#utility.yul\":12303:12304   */\n      dup4\n        /* \"#utility.yul\":12285:12305   */\n      tag_233\n      jump\t// in\n    tag_400:\n        /* \"#utility.yul\":12280:12305   */\n      swap3\n      pop\n        /* \"#utility.yul\":12329:12330   */\n      dup3\n        /* \"#utility.yul\":12326:12327   */\n      dup3\n        /* \"#utility.yul\":12322:12331   */\n      sub\n        /* \"#utility.yul\":12314:12331   */\n      swap1\n      pop\n        /* \"#utility.yul\":12353:12354   */\n      dup2\n        /* \"#utility.yul\":12347:12351   */\n      dup2\n        /* \"#utility.yul\":12344:12355   */\n      gt\n        /* \"#utility.yul\":12341:12378   */\n      iszero\n      tag_401\n      jumpi\n        /* \"#utility.yul\":12358:12376   */\n      tag_402\n      tag_262\n      jump\t// in\n    tag_402:\n        /* \"#utility.yul\":12341:12378   */\n    tag_401:\n        /* \"#utility.yul\":12191:12385   */\n      swap3\n      swap2\n      pop\n      pop\n      jump\t// out\n        /* \"#utility.yul\":12391:12624   */\n    tag_108:\n        /* \"#utility.yul\":12430:12433   */\n      0x00\n        /* \"#utility.yul\":12453:12477   */\n      tag_404\n        /* \"#utility.yul\":12471:12476   */\n      dup3\n        /* \"#utility.yul\":12453:12477   */\n      tag_233\n      jump\t// in\n    tag_404:\n        /* \"#utility.yul\":12444:12477   */\n      swap2\n      pop\n        /* \"#utility.yul\":12499:12565   */\n      0xffffffffffffffffffffffffffffffffffffffffffffffffffffffffffffffff\n        /* \"#utility.yul\":12492:12497   */\n      dup3\n        /* \"#utility.yul\":12489:12566   */\n      sub\n        /* \"#utility.yul\":12486:12589   */\n      tag_405\n      jumpi\n        /* \"#utility.yul\":12569:12587   */\n      tag_406\n      tag_262\n      jump\t// in\n    tag_406:\n        /* \"#utility.yul\":12486:12589   */\n    tag_405:\n        /* \"#utility.yul\":12616:12617   */\n      0x01\n        /* \"#utility.yul\":12609:12614   */\n      dup3\n        /* \"#utility.yul\":12605:12618   */\n      add\n        /* \"#utility.yul\":12598:12618   */\n      swap1\n      pop\n        /* \"#utility.yul\":12391:12624   */\n      swap2\n      swap1\n      pop\n      jump\t// out\n        /* \"#utility.yul\":12630:12814   */\n    tag_267:\n        /* \"#utility.yul\":12729:12740   */\n      0x00\n        /* \"#utility.yul\":12763:12769   */\n      dup3\n        /* \"#utility.yul\":12758:12761   */\n      dup3\n        /* \"#utility.yul\":12751:12770   */\n      mstore\n        /* \"#utility.yul\":12803:12807   */\n      0x20\n        /* \"#utility.yul\":12798:12801   */\n      dup3\n        /* \"#utility.yul\":12794:12808   */\n      add\n        /* \"#utility.yul\":12779:12808   */\n      swap1\n      pop\n        /* \"#utility.yul\":12630:12814   */\n      swap3\n      swap2\n      pop\n      pop\n      jump\t// out\n        /* \"#utility.yul\":12820:12937   */\n    tag_268:\n        /* \"#utility.yul\":12929:12930   */\n      0x00\n        /* \"#utility.yul\":12926:12927   */\n      dup1\n        /* \"#utility.yul\":12919:12931   */\n      revert\n        /* \"#utility.yul\":12943:13041   */\n    tag_269:\n        /* \"#utility.yul\":13027:13033   */\n      dup3\n        /* \"#utility.yul\":13022:13025   */\n      dup2\n        /* \"#utility.yul\":13017:13020   */\n      dup4\n        /* \"#utility.yul\":13004:13034   */\n      calldatacopy\n        /* \"#utility.yul\":12943:13041   */\n      pop\n      pop\n      pop\n      jump\t// out\n        /* \"#utility.yul\":13077:13614   */\n    tag_270:\n        /* \"#utility.yul\":13205:13208   */\n      0x00\n        /* \"#utility.yul\":13226:13312   */\n      tag_411\n        /* \"#utility.yul\":13305:13311   */\n      dup4\n        /* \"#utility.yul\":13300:13303   */\n      dup6\n        /* \"#utility.yul\":13226:13312   */\n      tag_267\n      jump\t// in\n    tag_411:\n        /* \"#utility.yul\":13219:13312   */\n      swap4\n      pop\n        /* \"#utility.yul\":13336:13402   */\n      0x07ffffffffffffffffffffffffffffffffffffffffffffffffffffffffffffff\n        /* \"#utility.yul\":13328:13334   */\n      dup4\n        /* \"#utility.yul\":13325:13403   */\n      gt\n        /* \"#utility.yul\":13322:13487   */\n      iszero\n      tag_412\n      jumpi\n        /* \"#utility.yul\":13406:13485   */\n      tag_413\n      tag_268\n      jump\t// in\n    tag_413:\n        /* \"#utility.yul\":13322:13487   */\n    tag_412:\n        /* \"#utility.yul\":13518:13522   */\n      0x20\n        /* \"#utility.yul\":13510:13516   */\n      dup4\n        /* \"#utility.yul\":13506:13523   */\n      mul\n        /* \"#utility.yul\":13496:13523   */\n      swap3\n      pop\n        /* \"#utility.yul\":13533:13576   */\n      tag_414\n        /* \"#utility.yul\":13569:13575   */\n      dup4\n        /* \"#utility.yul\":13564:13567   */\n      dup6\n        /* \"#utility.yul\":13557:13562   */\n      dup5\n        /* \"#utility.yul\":13533:13576   */\n      tag_269\n      jump\t// in\n    tag_414:\n        /* \"#utility.yul\":13601:13607   */\n      dup3\n        /* \"#utility.yul\":13596:13599   */\n      dup5\n        /* \"#utility.yul\":13592:13608   */\n      add\n        /* \"#utility.yul\":13585:13608   */\n      swap1\n      pop\n        /* \"#utility.yul\":13077:13614   */\n      swap4\n      swap3\n      pop\n      pop\n      pop\n      jump\t// out\n        /* \"#utility.yul\":13620:14123   */\n    tag_110:\n        /* \"#utility.yul\":13801:13805   */\n      0x00\n        /* \"#utility.yul\":13839:13841   */\n      0x40\n        /* \"#utility.yul\":13828:13837   */\n      dup3\n        /* \"#utility.yul\":13824:13842   */\n      add\n        /* \"#utility.yul\":13816:13842   */\n      swap1\n      pop\n        /* \"#utility.yul\":13888:13897   */\n      dup2\n        /* \"#utility.yul\":13882:13886   */\n      dup2\n        /* \"#utility.yul\":13878:13898   */\n      sub\n        /* \"#utility.yul\":13874:13875   */\n      0x00\n        /* \"#utility.yul\":13863:13872   */\n      dup4\n        /* \"#utility.yul\":13859:13876   */\n      add\n        /* \"#utility.yul\":13852:13899   */\n      mstore\n        /* \"#utility.yul\":13916:14034   */\n      tag_416\n        /* \"#utility.yul\":14029:14033   */\n      dup2\n        /* \"#utility.yul\":14020:14026   */\n      dup6\n        /* \"#utility.yul\":14012:14018   */\n      dup8\n        /* \"#utility.yul\":13916:14034   */\n      tag_270\n      jump\t// in\n    tag_416:\n        /* \"#utility.yul\":13908:14034   */\n      swap1\n      pop\n        /* \"#utility.yul\":14044:14116   */\n      tag_417\n        /* \"#utility.yul\":14112:14114   */\n      0x20\n        /* \"#utility.yul\":14101:14110   */\n      dup4\n        /* \"#utility.yul\":14097:14115   */\n      add\n        /* \"#utility.yul\":14088:14094   */\n      dup5\n        /* \"#utility.yul\":14044:14116   */\n      tag_236\n      jump\t// in\n    tag_417:\n        /* \"#utility.yul\":13620:14123   */\n      swap5\n      swap4\n      pop\n      pop\n      pop\n      pop\n      jump\t// out\n        /* \"#utility.yul\":14129:14299   */\n    tag_271:\n        /* \"#utility.yul\":14269:14291   */\n      0x496e76616c6964206c6f636b20706572696f642e000000000000000000000000\n        /* \"#utility.yul\":14265:14266   */\n      0x00\n        /* \"#utility.yul\":14257:14263   */\n      dup3\n        /* \"#utility.yul\":14253:14267   */\n      add\n        /* \"#utility.yul\":14246:14292   */\n      mstore\n        /* \"#utility.yul\":14129:14299   */\n      pop\n      jump\t// out\n        /* \"#utility.yul\":14305:14671   */\n    tag_272:\n        /* \"#utility.yul\":14447:14450   */\n      0x00\n        /* \"#utility.yul\":14468:14535   */\n      tag_420\n        /* \"#utility.yul\":14532:14534   */\n      0x14\n        /* \"#utility.yul\":14527:14530   */\n      dup4\n        /* \"#utility.yul\":14468:14535   */\n      tag_253\n      jump\t// in\n    tag_420:\n        /* \"#utility.yul\":14461:14535   */\n      swap2\n      pop\n        /* \"#utility.yul\":14544:14637   */\n      tag_421\n        /* \"#utility.yul\":14633:14636   */\n      dup3\n        /* \"#utility.yul\":14544:14637   */\n      tag_271\n      jump\t// in\n    tag_421:\n        /* \"#utility.yul\":14662:14664   */\n      0x20\n        /* \"#utility.yul\":14657:14660   */\n      dup3\n        /* \"#utility.yul\":14653:14665   */\n      add\n        /* \"#utility.yul\":14646:14665   */\n      swap1\n      pop\n        /* \"#utility.yul\":14305:14671   */\n      swap2\n      swap1\n      pop\n      jump\t// out\n        /* \"#utility.yul\":14677:15096   */\n    tag_122:\n        /* \"#utility.yul\":14843:14847   */\n      0x00\n        /* \"#utility.yul\":14881:14883   */\n      0x20\n        /* \"#utility.yul\":14870:14879   */\n      dup3\n        /* \"#utility.yul\":14866:14884   */\n      add\n        /* \"#utility.yul\":14858:14884   */\n      swap1\n      pop\n        /* \"#utility.yul\":14930:14939   */\n      dup2\n        /* \"#utility.yul\":14924:14928   */\n      dup2\n        /* \"#utility.yul\":14920:14940   */\n      sub\n        /* \"#utility.yul\":14916:14917   */\n      0x00\n        /* \"#utility.yul\":14905:14914   */\n      dup4\n        /* \"#utility.yul\":14901:14918   */\n      add\n        /* \"#utility.yul\":14894:14941   */\n      mstore\n        /* \"#utility.yul\":14958:15089   */\n      tag_423\n        /* \"#utility.yul\":15084:15088   */\n      dup2\n        /* \"#utility.yul\":14958:15089   */\n      tag_272\n      jump\t// in\n    tag_423:\n        /* \"#utility.yul\":14950:15089   */\n      swap1\n      pop\n        /* \"#utility.yul\":14677:15096   */\n      swap2\n      swap1\n      pop\n      jump\t// out\n        /* \"#utility.yul\":15102:15283   */\n    tag_273:\n        /* \"#utility.yul\":15242:15275   */\n      0x5265656e7472616e637947756172643a207265656e7472616e742063616c6c00\n        /* \"#utility.yul\":15238:15239   */\n      0x00\n        /* \"#utility.yul\":15230:15236   */\n      dup3\n        /* \"#utility.yul\":15226:15240   */\n      add\n        /* \"#utility.yul\":15219:15276   */\n      mstore\n        /* \"#utility.yul\":15102:15283   */\n      pop\n      jump\t// out\n        /* \"#utility.yul\":15289:15655   */\n    tag_274:\n        /* \"#utility.yul\":15431:15434   */\n      0x00\n        /* \"#utility.yul\":15452:15519   */\n      tag_426\n        /* \"#utility.yul\":15516:15518   */\n      0x1f\n        /* \"#utility.yul\":15511:15514   */\n      dup4\n        /* \"#utility.yul\":15452:15519   */\n      tag_253\n      jump\t// in\n    tag_426:\n        /* \"#utility.yul\":15445:15519   */\n      swap2\n      pop\n        /* \"#utility.yul\":15528:15621   */\n      tag_427\n        /* \"#utility.yul\":15617:15620   */\n      dup3\n        /* \"#utility.yul\":15528:15621   */\n      tag_273\n      jump\t// in\n    tag_427:\n        /* \"#utility.yul\":15646:15648   */\n      0x20\n        /* \"#utility.yul\":15641:15644   */\n      dup3\n        /* \"#utility.yul\":15637:15649   */\n      add\n        /* \"#utility.yul\":15630:15649   */\n      swap1\n      pop\n        /* \"#utility.yul\":15289:15655   */\n      swap2\n      swap1\n      pop\n      jump\t// out\n        /* \"#utility.yul\":15661:16080   */\n    tag_133:\n        /* \"#utility.yul\":15827:15831   */\n      0x00\n        /* \"#utility.yul\":15865:15867   */\n      0x20\n        /* \"#utility.yul\":15854:15863   */\n      dup3\n        /* \"#utility.yul\":15850:15868   */\n      add\n        /* \"#utility.yul\":15842:15868   */\n      swap1\n      pop\n        /* \"#utility.yul\":15914:15923   */\n      dup2\n        /* \"#utility.yul\":15908:15912   */\n      dup2\n        /* \"#utility.yul\":15904:15924   */\n      sub\n        /* \"#utility.yul\":15900:15901   */\n      0x00\n        /* \"#utility.yul\":15889:15898   */\n      dup4\n        /* \"#utility.yul\":15885:15902   */\n      add\n        /* \"#utility.yul\":15878:15925   */\n      mstore\n        /* \"#utility.yul\":15942:16073   */\n      tag_429\n        /* \"#utility.yul\":16068:16072   */\n      dup2\n        /* \"#utility.yul\":15942:16073   */\n      tag_274\n      jump\t// in\n    tag_429:\n        /* \"#utility.yul\":15934:16073   */\n      swap1\n      pop\n        /* \"#utility.yul\":15661:16080   */\n      swap2\n      swap1\n      pop\n      jump\t// out\n        /* \"#utility.yul\":16086:16258   */\n    tag_275:\n        /* \"#utility.yul\":16226:16250   */\n      0x4e6f742061626c6520746f20756e6c6f636b2079657400000000000000000000\n        /* \"#utility.yul\":16222:16223   */\n      0x00\n        /* \"#utility.yul\":16214:16220   */\n      dup3\n        /* \"#utility.yul\":16210:16224   */\n      add\n        /* \"#utility.yul\":16203:16251   */\n      mstore\n        /* \"#utility.yul\":16086:16258   */\n      pop\n      jump\t// out\n        /* \"#utility.yul\":16264:16630   */\n    tag_276:\n        /* \"#utility.yul\":16406:16409   */\n      0x00\n        /* \"#utility.yul\":16427:16494   */\n      tag_432\n        /* \"#utility.yul\":16491:16493   */\n      0x16\n        /* \"#utility.yul\":16486:16489   */\n      dup4\n        /* \"#utility.yul\":16427:16494   */\n      tag_253\n      jump\t// in\n    tag_432:\n        /* \"#utility.yul\":16420:16494   */\n      swap2\n      pop\n        /* \"#utility.yul\":16503:16596   */\n      tag_433\n        /* \"#utility.yul\":16592:16595   */\n      dup3\n        /* \"#utility.yul\":16503:16596   */\n      tag_275\n      jump\t// in\n    tag_433:\n        /* \"#utility.yul\":16621:16623   */\n      0x20\n        /* \"#utility.yul\":16616:16619   */\n      dup3\n        /* \"#utility.yul\":16612:16624   */\n      add\n        /* \"#utility.yul\":16605:16624   */\n      swap1\n      pop\n        /* \"#utility.yul\":16264:16630   */\n      swap2\n      swap1\n      pop\n      jump\t// out\n        /* \"#utility.yul\":16636:17055   */\n    tag_147:\n        /* \"#utility.yul\":16802:16806   */\n      0x00\n        /* \"#utility.yul\":16840:16842   */\n      0x20\n        /* \"#utility.yul\":16829:16838   */\n      dup3\n        /* \"#utility.yul\":16825:16843   */\n      add\n        /* \"#utility.yul\":16817:16843   */\n      swap1\n      pop\n        /* \"#utility.yul\":16889:16898   */\n      dup2\n        /* \"#utility.yul\":16883:16887   */\n      dup2\n        /* \"#utility.yul\":16879:16899   */\n      sub\n        /* \"#utility.yul\":16875:16876   */\n      0x00\n        /* \"#utility.yul\":16864:16873   */\n      dup4\n        /* \"#utility.yul\":16860:16877   */\n      add\n        /* \"#utility.yul\":16853:16900   */\n      mstore\n        /* \"#utility.yul\":16917:17048   */\n      tag_435\n        /* \"#utility.yul\":17043:17047   */\n      dup2\n        /* \"#utility.yul\":16917:17048   */\n      tag_276\n      jump\t// in\n    tag_435:\n        /* \"#utility.yul\":16909:17048   */\n      swap1\n      pop\n        /* \"#utility.yul\":16636:17055   */\n      swap2\n      swap1\n      pop\n      jump\t// out\n        /* \"#utility.yul\":17061:17503   */\n    tag_153:\n        /* \"#utility.yul\":17210:17214   */\n      0x00\n        /* \"#utility.yul\":17248:17250   */\n      0x60\n        /* \"#utility.yul\":17237:17246   */\n      dup3\n        /* \"#utility.yul\":17233:17251   */\n      add\n        /* \"#utility.yul\":17225:17251   */\n      swap1\n      pop\n        /* \"#utility.yul\":17261:17332   */\n      tag_437\n        /* \"#utility.yul\":17329:17330   */\n      0x00\n        /* \"#utility.yul\":17318:17327   */\n      dup4\n        /* \"#utility.yul\":17314:17331   */\n      add\n        /* \"#utility.yul\":17305:17311   */\n      dup7\n        /* \"#utility.yul\":17261:17332   */\n      tag_248\n      jump\t// in\n    tag_437:\n        /* \"#utility.yul\":17342:17414   */\n      tag_438\n        /* \"#utility.yul\":17410:17412   */\n      0x20\n        /* \"#utility.yul\":17399:17408   */\n      dup4\n        /* \"#utility.yul\":17395:17413   */\n      add\n        /* \"#utility.yul\":17386:17392   */\n      dup6\n        /* \"#utility.yul\":17342:17414   */\n      tag_248\n      jump\t// in\n    tag_438:\n        /* \"#utility.yul\":17424:17496   */\n      tag_439\n        /* \"#utility.yul\":17492:17494   */\n      0x40\n        /* \"#utility.yul\":17481:17490   */\n      dup4\n        /* \"#utility.yul\":17477:17495   */\n      add\n        /* \"#utility.yul\":17468:17474   */\n      dup5\n        /* \"#utility.yul\":17424:17496   */\n      tag_236\n      jump\t// in\n    tag_439:\n        /* \"#utility.yul\":17061:17503   */\n      swap5\n      swap4\n      pop\n      pop\n      pop\n      pop\n      jump\t// out\n        /* \"#utility.yul\":17509:17902   */\n    tag_167:\n        /* \"#utility.yul\":17662:17666   */\n      0x00\n        /* \"#utility.yul\":17700:17702   */\n      0x20\n        /* \"#utility.yul\":17689:17698   */\n      dup3\n        /* \"#utility.yul\":17685:17703   */\n      add\n        /* \"#utility.yul\":17677:17703   */\n      swap1\n      pop\n        /* \"#utility.yul\":17749:17758   */\n      dup2\n        /* \"#utility.yul\":17743:17747   */\n      dup2\n        /* \"#utility.yul\":17739:17759   */\n      sub\n        /* \"#utility.yul\":17735:17736   */\n      0x00\n        /* \"#utility.yul\":17724:17733   */\n      dup4\n        /* \"#utility.yul\":17720:17737   */\n      add\n        /* \"#utility.yul\":17713:17760   */\n      mstore\n        /* \"#utility.yul\":17777:17895   */\n      tag_441\n        /* \"#utility.yul\":17890:17894   */\n      dup2\n        /* \"#utility.yul\":17881:17887   */\n      dup5\n        /* \"#utility.yul\":17873:17879   */\n      dup7\n        /* \"#utility.yul\":17777:17895   */\n      tag_270\n      jump\t// in\n    tag_441:\n        /* \"#utility.yul\":17769:17895   */\n      swap1\n      pop\n        /* \"#utility.yul\":17509:17902   */\n      swap4\n      swap3\n      pop\n      pop\n      pop\n      jump\t// out\n        /* \"#utility.yul\":17908:18133   */\n    tag_277:\n        /* \"#utility.yul\":18048:18082   */\n      0x4f776e61626c653a206e6577206f776e657220697320746865207a65726f2061\n        /* \"#utility.yul\":18044:18045   */\n      0x00\n        /* \"#utility.yul\":18036:18042   */\n      dup3\n        /* \"#utility.yul\":18032:18046   */\n      add\n        /* \"#utility.yul\":18025:18083   */\n      mstore\n        /* \"#utility.yul\":18117:18125   */\n      0x6464726573730000000000000000000000000000000000000000000000000000\n        /* \"#utility.yul\":18112:18114   */\n      0x20\n        /* \"#utility.yul\":18104:18110   */\n      dup3\n        /* \"#utility.yul\":18100:18115   */\n      add\n        /* \"#utility.yul\":18093:18126   */\n      mstore\n        /* \"#utility.yul\":17908:18133   */\n      pop\n      jump\t// out\n        /* \"#utility.yul\":18139:18505   */\n    tag_278:\n        /* \"#utility.yul\":18281:18284   */\n      0x00\n        /* \"#utility.yul\":18302:18369   */\n      tag_444\n        /* \"#utility.yul\":18366:18368   */\n      0x26\n        /* \"#utility.yul\":18361:18364   */\n      dup4\n        /* \"#utility.yul\":18302:18369   */\n      tag_253\n      jump\t// in\n    tag_444:\n        /* \"#utility.yul\":18295:18369   */\n      swap2\n      pop\n        /* \"#utility.yul\":18378:18471   */\n      tag_445\n        /* \"#utility.yul\":18467:18470   */\n      dup3\n        /* \"#utility.yul\":18378:18471   */\n      tag_277\n      jump\t// in\n    tag_445:\n        /* \"#utility.yul\":18496:18498   */\n      0x40\n        /* \"#utility.yul\":18491:18494   */\n      dup3\n        /* \"#utility.yul\":18487:18499   */\n      add\n        /* \"#utility.yul\":18480:18499   */\n      swap1\n      pop\n        /* \"#utility.yul\":18139:18505   */\n      swap2\n      swap1\n      pop\n      jump\t// out\n        /* \"#utility.yul\":18511:18930   */\n    tag_174:\n        /* \"#utility.yul\":18677:18681   */\n      0x00\n        /* \"#utility.yul\":18715:18717   */\n      0x20\n        /* \"#utility.yul\":18704:18713   */\n      dup3\n        /* \"#utility.yul\":18700:18718   */\n      add\n        /* \"#utility.yul\":18692:18718   */\n      swap1\n      pop\n        /* \"#utility.yul\":18764:18773   */\n      dup2\n        /* \"#utility.yul\":18758:18762   */\n      dup2\n        /* \"#utility.yul\":18754:18774   */\n      sub\n        /* \"#utility.yul\":18750:18751   */\n      0x00\n        /* \"#utility.yul\":18739:18748   */\n      dup4\n        /* \"#utility.yul\":18735:18752   */\n      add\n        /* \"#utility.yul\":18728:18775   */\n      mstore\n        /* \"#utility.yul\":18792:18923   */\n      tag_447\n        /* \"#utility.yul\":18918:18922   */\n      dup2\n        /* \"#utility.yul\":18792:18923   */\n      tag_278\n      jump\t// in\n    tag_447:\n        /* \"#utility.yul\":18784:18923   */\n      swap1\n      pop\n        /* \"#utility.yul\":18511:18930   */\n      swap2\n      swap1\n      pop\n      jump\t// out\n        /* \"#utility.yul\":18936:19079   */\n    tag_279:\n        /* \"#utility.yul\":18993:18998   */\n      0x00\n        /* \"#utility.yul\":19024:19030   */\n      dup2\n        /* \"#utility.yul\":19018:19031   */\n      mload\n        /* \"#utility.yul\":19009:19031   */\n      swap1\n      pop\n        /* \"#utility.yul\":19040:19073   */\n      tag_449\n        /* \"#utility.yul\":19067:19072   */\n      dup2\n        /* \"#utility.yul\":19040:19073   */\n      tag_251\n      jump\t// in\n    tag_449:\n        /* \"#utility.yul\":18936:19079   */\n      swap3\n      swap2\n      pop\n      pop\n      jump\t// out\n        /* \"#utility.yul\":19085:19436   */\n    tag_197:\n        /* \"#utility.yul\":19155:19161   */\n      0x00\n        /* \"#utility.yul\":19204:19206   */\n      0x20\n        /* \"#utility.yul\":19192:19201   */\n      dup3\n        /* \"#utility.yul\":19183:19190   */\n      dup5\n        /* \"#utility.yul\":19179:19202   */\n      sub\n        /* \"#utility.yul\":19175:19207   */\n      slt\n        /* \"#utility.yul\":19172:19291   */\n      iszero\n      tag_451\n      jumpi\n        /* \"#utility.yul\":19210:19289   */\n      tag_452\n      tag_231\n      jump\t// in\n    tag_452:\n        /* \"#utility.yul\":19172:19291   */\n    tag_451:\n        /* \"#utility.yul\":19330:19331   */\n      0x00\n        /* \"#utility.yul\":19355:19419   */\n      tag_453\n        /* \"#utility.yul\":19411:19418   */\n      dup5\n        /* \"#utility.yul\":19402:19408   */\n      dup3\n        /* \"#utility.yul\":19391:19400   */\n      dup6\n        /* \"#utility.yul\":19387:19409   */\n      add\n        /* \"#utility.yul\":19355:19419   */\n      tag_279\n      jump\t// in\n    tag_453:\n        /* \"#utility.yul\":19345:19419   */\n      swap2\n      pop\n        /* \"#utility.yul\":19301:19429   */\n      pop\n        /* \"#utility.yul\":19085:19436   */\n      swap3\n      swap2\n      pop\n      pop\n      jump\t// out\n        /* \"#utility.yul\":19442:19617   */\n    tag_280:\n        /* \"#utility.yul\":19582:19609   */\n      0x596f7520646f6e277420686f6c64207468697320746f6b656e00000000000000\n        /* \"#utility.yul\":19578:19579   */\n      0x00\n        /* \"#utility.yul\":19570:19576   */\n      dup3\n        /* \"#utility.yul\":19566:19580   */\n      add\n        /* \"#utility.yul\":19559:19610   */\n      mstore\n        /* \"#utility.yul\":19442:19617   */\n      pop\n      jump\t// out\n        /* \"#utility.yul\":19623:19989   */\n    tag_281:\n        /* \"#utility.yul\":19765:19768   */\n      0x00\n        /* \"#utility.yul\":19786:19853   */\n      tag_456\n        /* \"#utility.yul\":19850:19852   */\n      0x19\n        /* \"#utility.yul\":19845:19848   */\n      dup4\n        /* \"#utility.yul\":19786:19853   */\n      tag_253\n      jump\t// in\n    tag_456:\n        /* \"#utility.yul\":19779:19853   */\n      swap2\n      pop\n        /* \"#utility.yul\":19862:19955   */\n      tag_457\n        /* \"#utility.yul\":19951:19954   */\n      dup3\n        /* \"#utility.yul\":19862:19955   */\n      tag_280\n      jump\t// in\n    tag_457:\n        /* \"#utility.yul\":19980:19982   */\n      0x20\n        /* \"#utility.yul\":19975:19978   */\n      dup3\n        /* \"#utility.yul\":19971:19983   */\n      add\n        /* \"#utility.yul\":19964:19983   */\n      swap1\n      pop\n        /* \"#utility.yul\":19623:19989   */\n      swap2\n      swap1\n      pop\n      jump\t// out\n        /* \"#utility.yul\":19995:20414   */\n    tag_200:\n        /* \"#utility.yul\":20161:20165   */\n      0x00\n        /* \"#utility.yul\":20199:20201   */\n      0x20\n        /* \"#utility.yul\":20188:20197   */\n      dup3\n        /* \"#utility.yul\":20184:20202   */\n      add\n        /* \"#utility.yul\":20176:20202   */\n      swap1\n      pop\n        /* \"#utility.yul\":20248:20257   */\n      dup2\n        /* \"#utility.yul\":20242:20246   */\n      dup2\n        /* \"#utility.yul\":20238:20258   */\n      sub\n        /* \"#utility.yul\":20234:20235   */\n      0x00\n        /* \"#utility.yul\":20223:20232   */\n      dup4\n        /* \"#utility.yul\":20219:20236   */\n      add\n        /* \"#utility.yul\":20212:20259   */\n      mstore\n        /* \"#utility.yul\":20276:20407   */\n      tag_459\n        /* \"#utility.yul\":20402:20406   */\n      dup2\n        /* \"#utility.yul\":20276:20407   */\n      tag_281\n      jump\t// in\n    tag_459:\n        /* \"#utility.yul\":20268:20407   */\n      swap1\n      pop\n        /* \"#utility.yul\":19995:20414   */\n      swap2\n      swap1\n      pop\n      jump\t// out\n        /* \"#utility.yul\":20420:20768   */\n    tag_218:\n        /* \"#utility.yul\":20460:20467   */\n      0x00\n        /* \"#utility.yul\":20483:20503   */\n      tag_461\n        /* \"#utility.yul\":20501:20502   */\n      dup3\n        /* \"#utility.yul\":20483:20503   */\n      tag_233\n      jump\t// in\n    tag_461:\n        /* \"#utility.yul\":20478:20503   */\n      swap2\n      pop\n        /* \"#utility.yul\":20517:20537   */\n      tag_462\n        /* \"#utility.yul\":20535:20536   */\n      dup4\n        /* \"#utility.yul\":20517:20537   */\n      tag_233\n      jump\t// in\n    tag_462:\n        /* \"#utility.yul\":20512:20537   */\n      swap3\n      pop\n        /* \"#utility.yul\":20705:20706   */\n      dup2\n        /* \"#utility.yul\":20637:20703   */\n      0xffffffffffffffffffffffffffffffffffffffffffffffffffffffffffffffff\n        /* \"#utility.yul\":20633:20707   */\n      div\n        /* \"#utility.yul\":20630:20631   */\n      dup4\n        /* \"#utility.yul\":20627:20708   */\n      gt\n        /* \"#utility.yul\":20622:20623   */\n      dup3\n        /* \"#utility.yul\":20615:20624   */\n      iszero\n        /* \"#utility.yul\":20608:20625   */\n      iszero\n        /* \"#utility.yul\":20604:20709   */\n      and\n        /* \"#utility.yul\":20601:20732   */\n      iszero\n      tag_463\n      jumpi\n        /* \"#utility.yul\":20712:20730   */\n      tag_464\n      tag_262\n      jump\t// in\n    tag_464:\n        /* \"#utility.yul\":20601:20732   */\n    tag_463:\n        /* \"#utility.yul\":20760:20761   */\n      dup3\n        /* \"#utility.yul\":20757:20758   */\n      dup3\n        /* \"#utility.yul\":20753:20762   */\n      mul\n        /* \"#utility.yul\":20742:20762   */\n      swap1\n      pop\n        /* \"#utility.yul\":20420:20768   */\n      swap3\n      swap2\n      pop\n      pop\n      jump\t// out\n        /* \"#utility.yul\":20774:20954   */\n    tag_282:\n        /* \"#utility.yul\":20822:20899   */\n      0x4e487b7100000000000000000000000000000000000000000000000000000000\n        /* \"#utility.yul\":20819:20820   */\n      0x00\n        /* \"#utility.yul\":20812:20900   */\n      mstore\n        /* \"#utility.yul\":20919:20923   */\n      0x12\n        /* \"#utility.yul\":20916:20917   */\n      0x04\n        /* \"#utility.yul\":20909:20924   */\n      mstore\n        /* \"#utility.yul\":20943:20947   */\n      0x24\n        /* \"#utility.yul\":20940:20941   */\n      0x00\n        /* \"#utility.yul\":20933:20948   */\n      revert\n        /* \"#utility.yul\":20960:21145   */\n    tag_220:\n        /* \"#utility.yul\":21000:21001   */\n      0x00\n        /* \"#utility.yul\":21017:21037   */\n      tag_467\n        /* \"#utility.yul\":21035:21036   */\n      dup3\n        /* \"#utility.yul\":21017:21037   */\n      tag_233\n      jump\t// in\n    tag_467:\n        /* \"#utility.yul\":21012:21037   */\n      swap2\n      pop\n        /* \"#utility.yul\":21051:21071   */\n      tag_468\n        /* \"#utility.yul\":21069:21070   */\n      dup4\n        /* \"#utility.yul\":21051:21071   */\n      tag_233\n      jump\t// in\n    tag_468:\n        /* \"#utility.yul\":21046:21071   */\n      swap3\n      pop\n        /* \"#utility.yul\":21090:21091   */\n      dup3\n        /* \"#utility.yul\":21080:21115   */\n      tag_469\n      jumpi\n        /* \"#utility.yul\":21095:21113   */\n      tag_470\n      tag_282\n      jump\t// in\n    tag_470:\n        /* \"#utility.yul\":21080:21115   */\n    tag_469:\n        /* \"#utility.yul\":21137:21138   */\n      dup3\n        /* \"#utility.yul\":21134:21135   */\n      dup3\n        /* \"#utility.yul\":21130:21139   */\n      div\n        /* \"#utility.yul\":21125:21139   */\n      swap1\n      pop\n        /* \"#utility.yul\":20960:21145   */\n      swap3\n      swap2\n      pop\n      pop\n      jump\t// out\n        /* \"#utility.yul\":21151:21333   */\n    tag_283:\n        /* \"#utility.yul\":21291:21325   */\n      0x4f776e61626c653a2063616c6c6572206973206e6f7420746865206f776e6572\n        /* \"#utility.yul\":21287:21288   */\n      0x00\n        /* \"#utility.yul\":21279:21285   */\n      dup3\n        /* \"#utility.yul\":21275:21289   */\n      add\n        /* \"#utility.yul\":21268:21326   */\n      mstore\n        /* \"#utility.yul\":21151:21333   */\n      pop\n      jump\t// out\n        /* \"#utility.yul\":21339:21705   */\n    tag_284:\n        /* \"#utility.yul\":21481:21484   */\n      0x00\n        /* \"#utility.yul\":21502:21569   */\n      tag_473\n        /* \"#utility.yul\":21566:21568   */\n      0x20\n        /* \"#utility.yul\":21561:21564   */\n      dup4\n        /* \"#utility.yul\":21502:21569   */\n      tag_253\n      jump\t// in\n    tag_473:\n        /* \"#utility.yul\":21495:21569   */\n      swap2\n      pop\n        /* \"#utility.yul\":21578:21671   */\n      tag_474\n        /* \"#utility.yul\":21667:21670   */\n      dup3\n        /* \"#utility.yul\":21578:21671   */\n      tag_283\n      jump\t// in\n    tag_474:\n        /* \"#utility.yul\":21696:21698   */\n      0x20\n        /* \"#utility.yul\":21691:21694   */\n      dup3\n        /* \"#utility.yul\":21687:21699   */\n      add\n        /* \"#utility.yul\":21680:21699   */\n      swap1\n      pop\n        /* \"#utility.yul\":21339:21705   */\n      swap2\n      swap1\n      pop\n      jump\t// out\n        /* \"#utility.yul\":21711:22130   */\n    tag_227:\n        /* \"#utility.yul\":21877:21881   */\n      0x00\n        /* \"#utility.yul\":21915:21917   */\n      0x20\n        /* \"#utility.yul\":21904:21913   */\n      dup3\n        /* \"#utility.yul\":21900:21918   */\n      add\n        /* \"#utility.yul\":21892:21918   */\n      swap1\n      pop\n        /* \"#utility.yul\":21964:21973   */\n      dup2\n        /* \"#utility.yul\":21958:21962   */\n      dup2\n        /* \"#utility.yul\":21954:21974   */\n      sub\n        /* \"#utility.yul\":21950:21951   */\n      0x00\n        /* \"#utility.yul\":21939:21948   */\n      dup4\n        /* \"#utility.yul\":21935:21952   */\n      add\n        /* \"#utility.yul\":21928:21975   */\n      mstore\n        /* \"#utility.yul\":21992:22123   */\n      tag_476\n        /* \"#utility.yul\":22118:22122   */\n      dup2\n        /* \"#utility.yul\":21992:22123   */\n      tag_284\n      jump\t// in\n    tag_476:\n        /* \"#utility.yul\":21984:22123   */\n      swap1\n      pop\n        /* \"#utility.yul\":21711:22130   */\n      swap2\n      swap1\n      pop\n      jump\t// out\n\n    auxdata: 0xa2646970667358221220b596ddce6720d6dce00ad42d218854fa8892c4de762ebcf32ddca5ef6dcb244064736f6c63430008100033\n}\n",
				"bytecode": {
					"linkReferences": {},
					"object": "60a06040523480156200001157600080fd5b506040516200283d3803806200283d833981810160405281019062000037919062000556565b620000576200004b6200026160201b60201c565b6200026960201b60201c565b600180819055508473ffffffffffffffffffffffffffffffffffffffff166301ffc9a76380ac58cd6040518263ffffffff1660e01b81526004016200009d919062000679565b602060405180830381865afa158015620000bb573d6000803e3d6000fd5b505050506040513d601f19601f82011682018060405250810190620000e19190620006d3565b62000123576040517f08c379a00000000000000000000000000000000000000000000000000000000081526004016200011a9062000766565b60405180910390fd5b6000831162000169576040517f08c379a00000000000000000000000000000000000000000000000000000000081526004016200016090620007d8565b60405180910390fd5b60005b84518110156200020c5760028582815181106200018e576200018d620007fa565b5b60200260200101519080600181540180825580915050600190039060005260206000200160009091909190916101000a81548173ffffffffffffffffffffffffffffffffffffffff021916908373ffffffffffffffffffffffffffffffffffffffff1602179055508080620002039062000858565b9150506200016c565b508473ffffffffffffffffffffffffffffffffffffffff1660808173ffffffffffffffffffffffffffffffffffffffff16815250508260038190555081600681905550806005819055505050505050620008a5565b600033905090565b60008060009054906101000a900473ffffffffffffffffffffffffffffffffffffffff169050816000806101000a81548173ffffffffffffffffffffffffffffffffffffffff021916908373ffffffffffffffffffffffffffffffffffffffff1602179055508173ffffffffffffffffffffffffffffffffffffffff168173ffffffffffffffffffffffffffffffffffffffff167f8be0079c531659141344cd1fd0a4f28419497f9722a3daafe3b4186f6b6457e060405160405180910390a35050565b6000604051905090565b600080fd5b600080fd5b600073ffffffffffffffffffffffffffffffffffffffff82169050919050565b60006200036e8262000341565b9050919050565b620003808162000361565b81146200038c57600080fd5b50565b600081519050620003a08162000375565b92915050565b600080fd5b6000601f19601f8301169050919050565b7f4e487b7100000000000000000000000000000000000000000000000000000000600052604160045260246000fd5b620003f682620003ab565b810181811067ffffffffffffffff82111715620004185762000417620003bc565b5b80604052505050565b60006200042d6200032d565b90506200043b8282620003eb565b919050565b600067ffffffffffffffff8211156200045e576200045d620003bc565b5b602082029050602081019050919050565b600080fd5b60006200048b620004858462000440565b62000421565b90508083825260208201905060208402830185811115620004b157620004b06200046f565b5b835b81811015620004de5780620004c988826200038f565b845260208401935050602081019050620004b3565b5050509392505050565b600082601f8301126200050057620004ff620003a6565b5b81516200051284826020860162000474565b91505092915050565b6000819050919050565b62000530816200051b565b81146200053c57600080fd5b50565b600081519050620005508162000525565b92915050565b600080600080600060a0868803121562000575576200057462000337565b5b600062000585888289016200038f565b955050602086015167ffffffffffffffff811115620005a957620005a86200033c565b5b620005b788828901620004e8565b9450506040620005ca888289016200053f565b9350506060620005dd888289016200053f565b9250506080620005f0888289016200053f565b9150509295509295909350565b6000819050919050565b60007fffffffff0000000000000000000000000000000000000000000000000000000082169050919050565b60008160e01b9050919050565b6000620006616200065b6200065584620005fd565b62000633565b62000607565b9050919050565b620006738162000640565b82525050565b600060208201905062000690600083018462000668565b92915050565b60008115159050919050565b620006ad8162000696565b8114620006b957600080fd5b50565b600081519050620006cd81620006a2565b92915050565b600060208284031215620006ec57620006eb62000337565b5b6000620006fc84828501620006bc565b91505092915050565b600082825260208201905092915050565b7f4e6f6e2d65726337323100000000000000000000000000000000000000000000600082015250565b60006200074e600a8362000705565b91506200075b8262000716565b602082019050919050565b6000602082019050818103600083015262000781816200073f565b9050919050565b7f496e76616c6964206c6f636b20706572696f6400000000000000000000000000600082015250565b6000620007c060138362000705565b9150620007cd8262000788565b602082019050919050565b60006020820190508181036000830152620007f381620007b1565b9050919050565b7f4e487b7100000000000000000000000000000000000000000000000000000000600052603260045260246000fd5b7f4e487b7100000000000000000000000000000000000000000000000000000000600052601160045260246000fd5b600062000865826200051b565b91507fffffffffffffffffffffffffffffffffffffffffffffffffffffffffffffffff82036200089a576200089962000829565b5b600182019050919050565b608051611f67620008d660003960008181610a7901528181610c7201528181610eaa0152610fb30152611f676000f3fe608060405234801561001057600080fd5b50600436106100cf5760003560e01c8063849a1e1d1161008c578063c69d192311610066578063c69d1923146101ec578063cb12f6601461020a578063f2fde38b14610228578063ff5d845014610244576100cf565b8063849a1e1d146101945780638da5cb5b146101b0578063b48509e6146101ce576100cf565b806320281a98146100d457806330d10275146101045780633fd8b02f146101345780635eac623914610152578063715018a61461016e578063779972da14610178575b600080fd5b6100ee60048036038101906100e99190611464565b610260565b6040516100fb91906114a0565b60405180910390f35b61011e60048036038101906101199190611464565b610280565b60405161012b919061153a565b60405180910390f35b61013c6102bf565b60405161014991906114a0565b60405180910390f35b61016c600480360381019061016791906115ba565b6102c5565b005b61017661069f565b005b610192600480360381019061018d9190611464565b6106b3565b005b6101ae60048036038101906101a991906115ba565b61073f565b005b6101b8610c47565b6040516101c59190611628565b60405180910390f35b6101d6610c70565b6040516101e39190611664565b60405180910390f35b6101f4610c94565b60405161020191906114a0565b60405180910390f35b610212610c9a565b60405161021f91906114a0565b60405180910390f35b610242600480360381019061023d91906116ab565b610ca0565b005b61025e600480360381019061025991906115ba565b610d23565b005b600060046000838152602001908152602001600020600201549050919050565b6002818154811061029057600080fd5b906000526020600020016000915054906101000a900473ffffffffffffffffffffffffffffffffffffffff1681565b60035481565b6102e43373ffffffffffffffffffffffffffffffffffffffff166111ad565b15610324576040517f08c379a000000000000000000000000000000000000000000000000000000000815260040161031b90611735565b60405180910390fd5b3273ffffffffffffffffffffffffffffffffffffffff163373ffffffffffffffffffffffffffffffffffffffff1614610392576040517f08c379a0000000000000000000000000000000000000000000000000000000008152600401610389906117a1565b60405180910390fd5b600082829050116103d8576040517f08c379a00000000000000000000000000000000000000000000000000000000081526004016103cf9061180d565b60405180910390fd5b600080600090505b83839050811015610647576000600460008686858181106104045761040361182d565b5b9050602002013581526020019081526020016000206040518060800160405290816000820160009054906101000a900473ffffffffffffffffffffffffffffffffffffffff1673ffffffffffffffffffffffffffffffffffffffff1673ffffffffffffffffffffffffffffffffffffffff16815260200160018201548152602001600282015481526020016003820160009054906101000a900460ff16151515158152505090503373ffffffffffffffffffffffffffffffffffffffff16816000015173ffffffffffffffffffffffffffffffffffffffff161461051d576040517f08c379a0000000000000000000000000000000000000000000000000000000008152600401610514906118a8565b60405180910390fd5b42600354826020015161053091906118f7565b10610570576040517f08c379a000000000000000000000000000000000000000000000000000000000815260040161056790611977565b60405180910390fd5b8060600151156105b5576040517f08c379a00000000000000000000000000000000000000000000000000000000081526004016105ac906119e3565b60405180910390fd5b60006105d98686858181106105cd576105cc61182d565b5b905060200201356111d0565b905060008260400151826105ed9190611a03565b905080856105fb91906118f7565b945081600460008989888181106106155761061461182d565b5b90506020020135815260200190815260200160002060020181905550505050808061063f90611a37565b9150506103e0565b503373ffffffffffffffffffffffffffffffffffffffff167f37826be3c26dbad83731f4b985f22fa9ef86b6d1974cd77208332b7f1f283c0c84848460405161069293929190611afa565b60405180910390a2505050565b6106a76112da565b6106b16000611358565b565b6106bb6112da565b600081116106fe576040517f08c379a00000000000000000000000000000000000000000000000000000000081526004016106f590611b78565b60405180910390fd5b806003819055507f8249ec545e68f6f1e1230133ca48c704d831a7f8e635ded80f3dd9e99b09bb2f8160405161073491906114a0565b60405180910390a150565b61075e3373ffffffffffffffffffffffffffffffffffffffff166111ad565b1561079e576040517f08c379a000000000000000000000000000000000000000000000000000000000815260040161079590611735565b60405180910390fd5b3273ffffffffffffffffffffffffffffffffffffffff163373ffffffffffffffffffffffffffffffffffffffff161461080c576040517f08c379a0000000000000000000000000000000000000000000000000000000008152600401610803906117a1565b60405180910390fd5b600260015403610851576040517f08c379a000000000000000000000000000000000000000000000000000000000815260040161084890611be4565b60405180910390fd5b60026001819055506000828290501161089f576040517f08c379a00000000000000000000000000000000000000000000000000000000081526004016108969061180d565b60405180910390fd5b60005b82829050811015610beb576000600460008585858181106108c6576108c561182d565b5b9050602002013581526020019081526020016000206040518060800160405290816000820160009054906101000a900473ffffffffffffffffffffffffffffffffffffffff1673ffffffffffffffffffffffffffffffffffffffff1673ffffffffffffffffffffffffffffffffffffffff16815260200160018201548152602001600282015481526020016003820160009054906101000a900460ff16151515158152505090503373ffffffffffffffffffffffffffffffffffffffff16816000015173ffffffffffffffffffffffffffffffffffffffff16146109df576040517f08c379a00000000000000000000000000000000000000000000000000000000081526004016109d6906118a8565b60405180910390fd5b4260035482602001516109f291906118f7565b10610a32576040517f08c379a0000000000000000000000000000000000000000000000000000000008152600401610a2990611c50565b60405180910390fd5b806060015115610a77576040517f08c379a0000000000000000000000000000000000000000000000000000000008152600401610a6e906119e3565b60405180910390fd5b7f000000000000000000000000000000000000000000000000000000000000000073ffffffffffffffffffffffffffffffffffffffff166323b872dd3033878787818110610ac857610ac761182d565b5b905060200201356040518463ffffffff1660e01b8152600401610aed93929190611c70565b600060405180830381600087803b158015610b0757600080fd5b505af1158015610b1b573d6000803e3d6000fd5b505050506000610b43858585818110610b3757610b3661182d565b5b905060200201356111d0565b90506000826040015182610b579190611a03565b90508160046000888888818110610b7157610b7061182d565b5b90506020020135815260200190815260200160002060020181905550600160046000888888818110610ba657610ba561182d565b5b90506020020135815260200190815260200160002060030160006101000a81548160ff0219169083151502179055505050508080610be390611a37565b9150506108a2565b503373ffffffffffffffffffffffffffffffffffffffff167f5cb48022479b9ac3bfb10a27965dc010acffc9fc1bc9a52f0b18975b944b54ca8383604051610c34929190611ca7565b60405180910390a2600180819055505050565b60008060009054906101000a900473ffffffffffffffffffffffffffffffffffffffff16905090565b7f000000000000000000000000000000000000000000000000000000000000000081565b60055481565b60065481565b610ca86112da565b600073ffffffffffffffffffffffffffffffffffffffff168173ffffffffffffffffffffffffffffffffffffffff1603610d17576040517f08c379a0000000000000000000000000000000000000000000000000000000008152600401610d0e90611d3d565b60405180910390fd5b610d2081611358565b50565b610d423373ffffffffffffffffffffffffffffffffffffffff166111ad565b15610d82576040517f08c379a0000000000000000000000000000000000000000000000000000000008152600401610d7990611735565b60405180910390fd5b3273ffffffffffffffffffffffffffffffffffffffff163373ffffffffffffffffffffffffffffffffffffffff1614610df0576040517f08c379a0000000000000000000000000000000000000000000000000000000008152600401610de7906117a1565b60405180910390fd5b600260015403610e35576040517f08c379a0000000000000000000000000000000000000000000000000000000008152600401610e2c90611be4565b60405180910390fd5b600260018190555060008282905011610e83576040517f08c379a0000000000000000000000000000000000000000000000000000000008152600401610e7a9061180d565b60405180910390fd5b60005b82829050811015611151573373ffffffffffffffffffffffffffffffffffffffff167f000000000000000000000000000000000000000000000000000000000000000073ffffffffffffffffffffffffffffffffffffffff16636352211e858585818110610ef757610ef661182d565b5b905060200201356040518263ffffffff1660e01b8152600401610f1a91906114a0565b602060405180830381865afa158015610f37573d6000803e3d6000fd5b505050506040513d601f19601f82011682018060405250810190610f5b9190611d72565b73ffffffffffffffffffffffffffffffffffffffff1614610fb1576040517f08c379a0000000000000000000000000000000000000000000000000000000008152600401610fa890611deb565b60405180910390fd5b7f000000000000000000000000000000000000000000000000000000000000000073ffffffffffffffffffffffffffffffffffffffff166323b872dd33308686868181106110025761100161182d565b5b905060200201356040518463ffffffff1660e01b815260040161102793929190611c70565b600060405180830381600087803b15801561104157600080fd5b505af1158015611055573d6000803e3d6000fd5b5050505060405180608001604052803373ffffffffffffffffffffffffffffffffffffffff1681526020014281526020016000815260200160001515815250600460008585858181106110ab576110aa61182d565b5b90506020020135815260200190815260200160002060008201518160000160006101000a81548173ffffffffffffffffffffffffffffffffffffffff021916908373ffffffffffffffffffffffffffffffffffffffff160217905550602082015181600101556040820151816002015560608201518160030160006101000a81548160ff021916908315150217905550905050808061114990611a37565b915050610e86565b503373ffffffffffffffffffffffffffffffffffffffff167f458be0227bccc9e803dec79bd16767eeaf9925d2ce708eeed7ae1f3621f968f9838360405161119a929190611ca7565b60405180910390a2600180819055505050565b6000808273ffffffffffffffffffffffffffffffffffffffff163b119050919050565b600080600460008481526020019081526020016000206040518060800160405290816000820160009054906101000a900473ffffffffffffffffffffffffffffffffffffffff1673ffffffffffffffffffffffffffffffffffffffff1673ffffffffffffffffffffffffffffffffffffffff16815260200160018201548152602001600282015481526020016003820160009054906101000a900460ff1615151515815250509050600081602001514261128a9190611a03565b905060006003548210156112a457600093505050506112d5565b600554600354836112b59190611a03565b6006546112c29190611e0b565b6112cc9190611e94565b90508093505050505b919050565b6112e261141c565b73ffffffffffffffffffffffffffffffffffffffff16611300610c47565b73ffffffffffffffffffffffffffffffffffffffff1614611356576040517f08c379a000000000000000000000000000000000000000000000000000000000815260040161134d90611f11565b60405180910390fd5b565b60008060009054906101000a900473ffffffffffffffffffffffffffffffffffffffff169050816000806101000a81548173ffffffffffffffffffffffffffffffffffffffff021916908373ffffffffffffffffffffffffffffffffffffffff1602179055508173ffffffffffffffffffffffffffffffffffffffff168173ffffffffffffffffffffffffffffffffffffffff167f8be0079c531659141344cd1fd0a4f28419497f9722a3daafe3b4186f6b6457e060405160405180910390a35050565b600033905090565b600080fd5b600080fd5b6000819050919050565b6114418161142e565b811461144c57600080fd5b50565b60008135905061145e81611438565b92915050565b60006020828403121561147a57611479611424565b5b60006114888482850161144f565b91505092915050565b61149a8161142e565b82525050565b60006020820190506114b56000830184611491565b92915050565b600073ffffffffffffffffffffffffffffffffffffffff82169050919050565b6000819050919050565b60006115006114fb6114f6846114bb565b6114db565b6114bb565b9050919050565b6000611512826114e5565b9050919050565b600061152482611507565b9050919050565b61153481611519565b82525050565b600060208201905061154f600083018461152b565b92915050565b600080fd5b600080fd5b600080fd5b60008083601f84011261157a57611579611555565b5b8235905067ffffffffffffffff8111156115975761159661155a565b5b6020830191508360208202830111156115b3576115b261155f565b5b9250929050565b600080602083850312156115d1576115d0611424565b5b600083013567ffffffffffffffff8111156115ef576115ee611429565b5b6115fb85828601611564565b92509250509250929050565b6000611612826114bb565b9050919050565b61162281611607565b82525050565b600060208201905061163d6000830184611619565b92915050565b600061164e82611507565b9050919050565b61165e81611643565b82525050565b60006020820190506116796000830184611655565b92915050565b61168881611607565b811461169357600080fd5b50565b6000813590506116a58161167f565b92915050565b6000602082840312156116c1576116c0611424565b5b60006116cf84828501611696565b91505092915050565b600082825260208201905092915050565b7f436f6e7472616374206e6f7420616c6c6f776564000000000000000000000000600082015250565b600061171f6014836116d8565b915061172a826116e9565b602082019050919050565b6000602082019050818103600083015261174e81611712565b9050919050565b7f50726f787920636f6e7472616374206e6f7420616c6c6f776564000000000000600082015250565b600061178b601a836116d8565b915061179682611755565b602082019050919050565b600060208201905081810360008301526117ba8161177e565b9050919050565b7f4e6f20746f6b656e730000000000000000000000000000000000000000000000600082015250565b60006117f76009836116d8565b9150611802826117c1565b602082019050919050565b60006020820190508181036000830152611826816117ea565b9050919050565b7f4e487b7100000000000000000000000000000000000000000000000000000000600052603260045260246000fd5b7f4e6f74206120746f6b656e206f776e6572000000000000000000000000000000600082015250565b60006118926011836116d8565b915061189d8261185c565b602082019050919050565b600060208201905081810360008301526118c181611885565b9050919050565b7f4e487b7100000000000000000000000000000000000000000000000000000000600052601160045260246000fd5b60006119028261142e565b915061190d8361142e565b9250828201905080821115611925576119246118c8565b5b92915050565b7f4e6f742061626c6520746f20636c61696d207965740000000000000000000000600082015250565b60006119616015836116d8565b915061196c8261192b565b602082019050919050565b6000602082019050818103600083015261199081611954565b9050919050565b7f416c726561647920756e6c6f636b656400000000000000000000000000000000600082015250565b60006119cd6010836116d8565b91506119d882611997565b602082019050919050565b600060208201905081810360008301526119fc816119c0565b9050919050565b6000611a0e8261142e565b9150611a198361142e565b9250828203905081811115611a3157611a306118c8565b5b92915050565b6000611a428261142e565b91507fffffffffffffffffffffffffffffffffffffffffffffffffffffffffffffffff8203611a7457611a736118c8565b5b600182019050919050565b600082825260208201905092915050565b600080fd5b82818337505050565b6000611aaa8385611a7f565b93507f07ffffffffffffffffffffffffffffffffffffffffffffffffffffffffffffff831115611add57611adc611a90565b5b602083029250611aee838584611a95565b82840190509392505050565b60006040820190508181036000830152611b15818587611a9e565b9050611b246020830184611491565b949350505050565b7f496e76616c6964206c6f636b20706572696f642e000000000000000000000000600082015250565b6000611b626014836116d8565b9150611b6d82611b2c565b602082019050919050565b60006020820190508181036000830152611b9181611b55565b9050919050565b7f5265656e7472616e637947756172643a207265656e7472616e742063616c6c00600082015250565b6000611bce601f836116d8565b9150611bd982611b98565b602082019050919050565b60006020820190508181036000830152611bfd81611bc1565b9050919050565b7f4e6f742061626c6520746f20756e6c6f636b2079657400000000000000000000600082015250565b6000611c3a6016836116d8565b9150611c4582611c04565b602082019050919050565b60006020820190508181036000830152611c6981611c2d565b9050919050565b6000606082019050611c856000830186611619565b611c926020830185611619565b611c9f6040830184611491565b949350505050565b60006020820190508181036000830152611cc2818486611a9e565b90509392505050565b7f4f776e61626c653a206e6577206f776e657220697320746865207a65726f206160008201527f6464726573730000000000000000000000000000000000000000000000000000602082015250565b6000611d276026836116d8565b9150611d3282611ccb565b604082019050919050565b60006020820190508181036000830152611d5681611d1a565b9050919050565b600081519050611d6c8161167f565b92915050565b600060208284031215611d8857611d87611424565b5b6000611d9684828501611d5d565b91505092915050565b7f596f7520646f6e277420686f6c64207468697320746f6b656e00000000000000600082015250565b6000611dd56019836116d8565b9150611de082611d9f565b602082019050919050565b60006020820190508181036000830152611e0481611dc8565b9050919050565b6000611e168261142e565b9150611e218361142e565b9250817fffffffffffffffffffffffffffffffffffffffffffffffffffffffffffffffff0483118215151615611e5a57611e596118c8565b5b828202905092915050565b7f4e487b7100000000000000000000000000000000000000000000000000000000600052601260045260246000fd5b6000611e9f8261142e565b9150611eaa8361142e565b925082611eba57611eb9611e65565b5b828204905092915050565b7f4f776e61626c653a2063616c6c6572206973206e6f7420746865206f776e6572600082015250565b6000611efb6020836116d8565b9150611f0682611ec5565b602082019050919050565b60006020820190508181036000830152611f2a81611eee565b905091905056fea2646970667358221220b596ddce6720d6dce00ad42d218854fa8892c4de762ebcf32ddca5ef6dcb244064736f6c63430008100033",
					"opcodes": "PUSH1 0xA0 PUSH1 0x40 MSTORE CALLVALUE DUP1 ISZERO PUSH3 0x11 JUMPI PUSH1 0x0 DUP1 REVERT JUMPDEST POP PUSH1 0x40 MLOAD PUSH3 0x283D CODESIZE SUB DUP1 PUSH3 0x283D DUP4 CODECOPY DUP2 DUP2 ADD PUSH1 0x40 MSTORE DUP2 ADD SWAP1 PUSH3 0x37 SWAP2 SWAP1 PUSH3 0x556 JUMP JUMPDEST PUSH3 0x57 PUSH3 0x4B PUSH3 0x261 PUSH1 0x20 SHL PUSH1 0x20 SHR JUMP JUMPDEST PUSH3 0x269 PUSH1 0x20 SHL PUSH1 0x20 SHR JUMP JUMPDEST PUSH1 0x1 DUP1 DUP2 SWAP1 SSTORE POP DUP5 PUSH20 0xFFFFFFFFFFFFFFFFFFFFFFFFFFFFFFFFFFFFFFFF AND PUSH4 0x1FFC9A7 PUSH4 0x80AC58CD PUSH1 0x40 MLOAD DUP3 PUSH4 0xFFFFFFFF AND PUSH1 0xE0 SHL DUP2 MSTORE PUSH1 0x4 ADD PUSH3 0x9D SWAP2 SWAP1 PUSH3 0x679 JUMP JUMPDEST PUSH1 0x20 PUSH1 0x40 MLOAD DUP1 DUP4 SUB DUP2 DUP7 GAS STATICCALL ISZERO DUP1 ISZERO PUSH3 0xBB JUMPI RETURNDATASIZE PUSH1 0x0 DUP1 RETURNDATACOPY RETURNDATASIZE PUSH1 0x0 REVERT JUMPDEST POP POP POP POP PUSH1 0x40 MLOAD RETURNDATASIZE PUSH1 0x1F NOT PUSH1 0x1F DUP3 ADD AND DUP3 ADD DUP1 PUSH1 0x40 MSTORE POP DUP2 ADD SWAP1 PUSH3 0xE1 SWAP2 SWAP1 PUSH3 0x6D3 JUMP JUMPDEST PUSH3 0x123 JUMPI PUSH1 0x40 MLOAD PUSH32 0x8C379A000000000000000000000000000000000000000000000000000000000 DUP2 MSTORE PUSH1 0x4 ADD PUSH3 0x11A SWAP1 PUSH3 0x766 JUMP JUMPDEST PUSH1 0x40 MLOAD DUP1 SWAP2 SUB SWAP1 REVERT JUMPDEST PUSH1 0x0 DUP4 GT PUSH3 0x169 JUMPI PUSH1 0x40 MLOAD PUSH32 0x8C379A000000000000000000000000000000000000000000000000000000000 DUP2 MSTORE PUSH1 0x4 ADD PUSH3 0x160 SWAP1 PUSH3 0x7D8 JUMP JUMPDEST PUSH1 0x40 MLOAD DUP1 SWAP2 SUB SWAP1 REVERT JUMPDEST PUSH1 0x0 JUMPDEST DUP5 MLOAD DUP2 LT ISZERO PUSH3 0x20C JUMPI PUSH1 0x2 DUP6 DUP3 DUP2 MLOAD DUP2 LT PUSH3 0x18E JUMPI PUSH3 0x18D PUSH3 0x7FA JUMP JUMPDEST JUMPDEST PUSH1 0x20 MUL PUSH1 0x20 ADD ADD MLOAD SWAP1 DUP1 PUSH1 0x1 DUP2 SLOAD ADD DUP1 DUP3 SSTORE DUP1 SWAP2 POP POP PUSH1 0x1 SWAP1 SUB SWAP1 PUSH1 0x0 MSTORE PUSH1 0x20 PUSH1 0x0 KECCAK256 ADD PUSH1 0x0 SWAP1 SWAP2 SWAP1 SWAP2 SWAP1 SWAP2 PUSH2 0x100 EXP DUP2 SLOAD DUP2 PUSH20 0xFFFFFFFFFFFFFFFFFFFFFFFFFFFFFFFFFFFFFFFF MUL NOT AND SWAP1 DUP4 PUSH20 0xFFFFFFFFFFFFFFFFFFFFFFFFFFFFFFFFFFFFFFFF AND MUL OR SWAP1 SSTORE POP DUP1 DUP1 PUSH3 0x203 SWAP1 PUSH3 0x858 JUMP JUMPDEST SWAP2 POP POP PUSH3 0x16C JUMP JUMPDEST POP DUP5 PUSH20 0xFFFFFFFFFFFFFFFFFFFFFFFFFFFFFFFFFFFFFFFF AND PUSH1 0x80 DUP2 PUSH20 0xFFFFFFFFFFFFFFFFFFFFFFFFFFFFFFFFFFFFFFFF AND DUP2 MSTORE POP POP DUP3 PUSH1 0x3 DUP2 SWAP1 SSTORE POP DUP2 PUSH1 0x6 DUP2 SWAP1 SSTORE POP DUP1 PUSH1 0x5 DUP2 SWAP1 SSTORE POP POP POP POP POP POP PUSH3 0x8A5 JUMP JUMPDEST PUSH1 0x0 CALLER SWAP1 POP SWAP1 JUMP JUMPDEST PUSH1 0x0 DUP1 PUSH1 0x0 SWAP1 SLOAD SWAP1 PUSH2 0x100 EXP SWAP1 DIV PUSH20 0xFFFFFFFFFFFFFFFFFFFFFFFFFFFFFFFFFFFFFFFF AND SWAP1 POP DUP2 PUSH1 0x0 DUP1 PUSH2 0x100 EXP DUP2 SLOAD DUP2 PUSH20 0xFFFFFFFFFFFFFFFFFFFFFFFFFFFFFFFFFFFFFFFF MUL NOT AND SWAP1 DUP4 PUSH20 0xFFFFFFFFFFFFFFFFFFFFFFFFFFFFFFFFFFFFFFFF AND MUL OR SWAP1 SSTORE POP DUP2 PUSH20 0xFFFFFFFFFFFFFFFFFFFFFFFFFFFFFFFFFFFFFFFF AND DUP2 PUSH20 0xFFFFFFFFFFFFFFFFFFFFFFFFFFFFFFFFFFFFFFFF AND PUSH32 0x8BE0079C531659141344CD1FD0A4F28419497F9722A3DAAFE3B4186F6B6457E0 PUSH1 0x40 MLOAD PUSH1 0x40 MLOAD DUP1 SWAP2 SUB SWAP1 LOG3 POP POP JUMP JUMPDEST PUSH1 0x0 PUSH1 0x40 MLOAD SWAP1 POP SWAP1 JUMP JUMPDEST PUSH1 0x0 DUP1 REVERT JUMPDEST PUSH1 0x0 DUP1 REVERT JUMPDEST PUSH1 0x0 PUSH20 0xFFFFFFFFFFFFFFFFFFFFFFFFFFFFFFFFFFFFFFFF DUP3 AND SWAP1 POP SWAP2 SWAP1 POP JUMP JUMPDEST PUSH1 0x0 PUSH3 0x36E DUP3 PUSH3 0x341 JUMP JUMPDEST SWAP1 POP SWAP2 SWAP1 POP JUMP JUMPDEST PUSH3 0x380 DUP2 PUSH3 0x361 JUMP JUMPDEST DUP2 EQ PUSH3 0x38C JUMPI PUSH1 0x0 DUP1 REVERT JUMPDEST POP JUMP JUMPDEST PUSH1 0x0 DUP2 MLOAD SWAP1 POP PUSH3 0x3A0 DUP2 PUSH3 0x375 JUMP JUMPDEST SWAP3 SWAP2 POP POP JUMP JUMPDEST PUSH1 0x0 DUP1 REVERT JUMPDEST PUSH1 0x0 PUSH1 0x1F NOT PUSH1 0x1F DUP4 ADD AND SWAP1 POP SWAP2 SWAP1 POP JUMP JUMPDEST PUSH32 0x4E487B7100000000000000000000000000000000000000000000000000000000 PUSH1 0x0 MSTORE PUSH1 0x41 PUSH1 0x4 MSTORE PUSH1 0x24 PUSH1 0x0 REVERT JUMPDEST PUSH3 0x3F6 DUP3 PUSH3 0x3AB JUMP JUMPDEST DUP2 ADD DUP2 DUP2 LT PUSH8 0xFFFFFFFFFFFFFFFF DUP3 GT OR ISZERO PUSH3 0x418 JUMPI PUSH3 0x417 PUSH3 0x3BC JUMP JUMPDEST JUMPDEST DUP1 PUSH1 0x40 MSTORE POP POP POP JUMP JUMPDEST PUSH1 0x0 PUSH3 0x42D PUSH3 0x32D JUMP JUMPDEST SWAP1 POP PUSH3 0x43B DUP3 DUP3 PUSH3 0x3EB JUMP JUMPDEST SWAP2 SWAP1 POP JUMP JUMPDEST PUSH1 0x0 PUSH8 0xFFFFFFFFFFFFFFFF DUP3 GT ISZERO PUSH3 0x45E JUMPI PUSH3 0x45D PUSH3 0x3BC JUMP JUMPDEST JUMPDEST PUSH1 0x20 DUP3 MUL SWAP1 POP PUSH1 0x20 DUP2 ADD SWAP1 POP SWAP2 SWAP1 POP JUMP JUMPDEST PUSH1 0x0 DUP1 REVERT JUMPDEST PUSH1 0x0 PUSH3 0x48B PUSH3 0x485 DUP5 PUSH3 0x440 JUMP JUMPDEST PUSH3 0x421 JUMP JUMPDEST SWAP1 POP DUP1 DUP4 DUP3 MSTORE PUSH1 0x20 DUP3 ADD SWAP1 POP PUSH1 0x20 DUP5 MUL DUP4 ADD DUP6 DUP2 GT ISZERO PUSH3 0x4B1 JUMPI PUSH3 0x4B0 PUSH3 0x46F JUMP JUMPDEST JUMPDEST DUP4 JUMPDEST DUP2 DUP2 LT ISZERO PUSH3 0x4DE JUMPI DUP1 PUSH3 0x4C9 DUP9 DUP3 PUSH3 0x38F JUMP JUMPDEST DUP5 MSTORE PUSH1 0x20 DUP5 ADD SWAP4 POP POP PUSH1 0x20 DUP2 ADD SWAP1 POP PUSH3 0x4B3 JUMP JUMPDEST POP POP POP SWAP4 SWAP3 POP POP POP JUMP JUMPDEST PUSH1 0x0 DUP3 PUSH1 0x1F DUP4 ADD SLT PUSH3 0x500 JUMPI PUSH3 0x4FF PUSH3 0x3A6 JUMP JUMPDEST JUMPDEST DUP2 MLOAD PUSH3 0x512 DUP5 DUP3 PUSH1 0x20 DUP7 ADD PUSH3 0x474 JUMP JUMPDEST SWAP2 POP POP SWAP3 SWAP2 POP POP JUMP JUMPDEST PUSH1 0x0 DUP2 SWAP1 POP SWAP2 SWAP1 POP JUMP JUMPDEST PUSH3 0x530 DUP2 PUSH3 0x51B JUMP JUMPDEST DUP2 EQ PUSH3 0x53C JUMPI PUSH1 0x0 DUP1 REVERT JUMPDEST POP JUMP JUMPDEST PUSH1 0x0 DUP2 MLOAD SWAP1 POP PUSH3 0x550 DUP2 PUSH3 0x525 JUMP JUMPDEST SWAP3 SWAP2 POP POP JUMP JUMPDEST PUSH1 0x0 DUP1 PUSH1 0x0 DUP1 PUSH1 0x0 PUSH1 0xA0 DUP7 DUP9 SUB SLT ISZERO PUSH3 0x575 JUMPI PUSH3 0x574 PUSH3 0x337 JUMP JUMPDEST JUMPDEST PUSH1 0x0 PUSH3 0x585 DUP9 DUP3 DUP10 ADD PUSH3 0x38F JUMP JUMPDEST SWAP6 POP POP PUSH1 0x20 DUP7 ADD MLOAD PUSH8 0xFFFFFFFFFFFFFFFF DUP2 GT ISZERO PUSH3 0x5A9 JUMPI PUSH3 0x5A8 PUSH3 0x33C JUMP JUMPDEST JUMPDEST PUSH3 0x5B7 DUP9 DUP3 DUP10 ADD PUSH3 0x4E8 JUMP JUMPDEST SWAP5 POP POP PUSH1 0x40 PUSH3 0x5CA DUP9 DUP3 DUP10 ADD PUSH3 0x53F JUMP JUMPDEST SWAP4 POP POP PUSH1 0x60 PUSH3 0x5DD DUP9 DUP3 DUP10 ADD PUSH3 0x53F JUMP JUMPDEST SWAP3 POP POP PUSH1 0x80 PUSH3 0x5F0 DUP9 DUP3 DUP10 ADD PUSH3 0x53F JUMP JUMPDEST SWAP2 POP POP SWAP3 SWAP6 POP SWAP3 SWAP6 SWAP1 SWAP4 POP JUMP JUMPDEST PUSH1 0x0 DUP2 SWAP1 POP SWAP2 SWAP1 POP JUMP JUMPDEST PUSH1 0x0 PUSH32 0xFFFFFFFF00000000000000000000000000000000000000000000000000000000 DUP3 AND SWAP1 POP SWAP2 SWAP1 POP JUMP JUMPDEST PUSH1 0x0 DUP2 PUSH1 0xE0 SHL SWAP1 POP SWAP2 SWAP1 POP JUMP JUMPDEST PUSH1 0x0 PUSH3 0x661 PUSH3 0x65B PUSH3 0x655 DUP5 PUSH3 0x5FD JUMP JUMPDEST PUSH3 0x633 JUMP JUMPDEST PUSH3 0x607 JUMP JUMPDEST SWAP1 POP SWAP2 SWAP1 POP JUMP JUMPDEST PUSH3 0x673 DUP2 PUSH3 0x640 JUMP JUMPDEST DUP3 MSTORE POP POP JUMP JUMPDEST PUSH1 0x0 PUSH1 0x20 DUP3 ADD SWAP1 POP PUSH3 0x690 PUSH1 0x0 DUP4 ADD DUP5 PUSH3 0x668 JUMP JUMPDEST SWAP3 SWAP2 POP POP JUMP JUMPDEST PUSH1 0x0 DUP2 ISZERO ISZERO SWAP1 POP SWAP2 SWAP1 POP JUMP JUMPDEST PUSH3 0x6AD DUP2 PUSH3 0x696 JUMP JUMPDEST DUP2 EQ PUSH3 0x6B9 JUMPI PUSH1 0x0 DUP1 REVERT JUMPDEST POP JUMP JUMPDEST PUSH1 0x0 DUP2 MLOAD SWAP1 POP PUSH3 0x6CD DUP2 PUSH3 0x6A2 JUMP JUMPDEST SWAP3 SWAP2 POP POP JUMP JUMPDEST PUSH1 0x0 PUSH1 0x20 DUP3 DUP5 SUB SLT ISZERO PUSH3 0x6EC JUMPI PUSH3 0x6EB PUSH3 0x337 JUMP JUMPDEST JUMPDEST PUSH1 0x0 PUSH3 0x6FC DUP5 DUP3 DUP6 ADD PUSH3 0x6BC JUMP JUMPDEST SWAP2 POP POP SWAP3 SWAP2 POP POP JUMP JUMPDEST PUSH1 0x0 DUP3 DUP3 MSTORE PUSH1 0x20 DUP3 ADD SWAP1 POP SWAP3 SWAP2 POP POP JUMP JUMPDEST PUSH32 0x4E6F6E2D65726337323100000000000000000000000000000000000000000000 PUSH1 0x0 DUP3 ADD MSTORE POP JUMP JUMPDEST PUSH1 0x0 PUSH3 0x74E PUSH1 0xA DUP4 PUSH3 0x705 JUMP JUMPDEST SWAP2 POP PUSH3 0x75B DUP3 PUSH3 0x716 JUMP JUMPDEST PUSH1 0x20 DUP3 ADD SWAP1 POP SWAP2 SWAP1 POP JUMP JUMPDEST PUSH1 0x0 PUSH1 0x20 DUP3 ADD SWAP1 POP DUP2 DUP2 SUB PUSH1 0x0 DUP4 ADD MSTORE PUSH3 0x781 DUP2 PUSH3 0x73F JUMP JUMPDEST SWAP1 POP SWAP2 SWAP1 POP JUMP JUMPDEST PUSH32 0x496E76616C6964206C6F636B20706572696F6400000000000000000000000000 PUSH1 0x0 DUP3 ADD MSTORE POP JUMP JUMPDEST PUSH1 0x0 PUSH3 0x7C0 PUSH1 0x13 DUP4 PUSH3 0x705 JUMP JUMPDEST SWAP2 POP PUSH3 0x7CD DUP3 PUSH3 0x788 JUMP JUMPDEST PUSH1 0x20 DUP3 ADD SWAP1 POP SWAP2 SWAP1 POP JUMP JUMPDEST PUSH1 0x0 PUSH1 0x20 DUP3 ADD SWAP1 POP DUP2 DUP2 SUB PUSH1 0x0 DUP4 ADD MSTORE PUSH3 0x7F3 DUP2 PUSH3 0x7B1 JUMP JUMPDEST SWAP1 POP SWAP2 SWAP1 POP JUMP JUMPDEST PUSH32 0x4E487B7100000000000000000000000000000000000000000000000000000000 PUSH1 0x0 MSTORE PUSH1 0x32 PUSH1 0x4 MSTORE PUSH1 0x24 PUSH1 0x0 REVERT JUMPDEST PUSH32 0x4E487B7100000000000000000000000000000000000000000000000000000000 PUSH1 0x0 MSTORE PUSH1 0x11 PUSH1 0x4 MSTORE PUSH1 0x24 PUSH1 0x0 REVERT JUMPDEST PUSH1 0x0 PUSH3 0x865 DUP3 PUSH3 0x51B JUMP JUMPDEST SWAP2 POP PUSH32 0xFFFFFFFFFFFFFFFFFFFFFFFFFFFFFFFFFFFFFFFFFFFFFFFFFFFFFFFFFFFFFFFF DUP3 SUB PUSH3 0x89A JUMPI PUSH3 0x899 PUSH3 0x829 JUMP JUMPDEST JUMPDEST PUSH1 0x1 DUP3 ADD SWAP1 POP SWAP2 SWAP1 POP JUMP JUMPDEST PUSH1 0x80 MLOAD PUSH2 0x1F67 PUSH3 0x8D6 PUSH1 0x0 CODECOPY PUSH1 0x0 DUP2 DUP2 PUSH2 0xA79 ADD MSTORE DUP2 DUP2 PUSH2 0xC72 ADD MSTORE DUP2 DUP2 PUSH2 0xEAA ADD MSTORE PUSH2 0xFB3 ADD MSTORE PUSH2 0x1F67 PUSH1 0x0 RETURN INVALID PUSH1 0x80 PUSH1 0x40 MSTORE CALLVALUE DUP1 ISZERO PUSH2 0x10 JUMPI PUSH1 0x0 DUP1 REVERT JUMPDEST POP PUSH1 0x4 CALLDATASIZE LT PUSH2 0xCF JUMPI PUSH1 0x0 CALLDATALOAD PUSH1 0xE0 SHR DUP1 PUSH4 0x849A1E1D GT PUSH2 0x8C JUMPI DUP1 PUSH4 0xC69D1923 GT PUSH2 0x66 JUMPI DUP1 PUSH4 0xC69D1923 EQ PUSH2 0x1EC JUMPI DUP1 PUSH4 0xCB12F660 EQ PUSH2 0x20A JUMPI DUP1 PUSH4 0xF2FDE38B EQ PUSH2 0x228 JUMPI DUP1 PUSH4 0xFF5D8450 EQ PUSH2 0x244 JUMPI PUSH2 0xCF JUMP JUMPDEST DUP1 PUSH4 0x849A1E1D EQ PUSH2 0x194 JUMPI DUP1 PUSH4 0x8DA5CB5B EQ PUSH2 0x1B0 JUMPI DUP1 PUSH4 0xB48509E6 EQ PUSH2 0x1CE JUMPI PUSH2 0xCF JUMP JUMPDEST DUP1 PUSH4 0x20281A98 EQ PUSH2 0xD4 JUMPI DUP1 PUSH4 0x30D10275 EQ PUSH2 0x104 JUMPI DUP1 PUSH4 0x3FD8B02F EQ PUSH2 0x134 JUMPI DUP1 PUSH4 0x5EAC6239 EQ PUSH2 0x152 JUMPI DUP1 PUSH4 0x715018A6 EQ PUSH2 0x16E JUMPI DUP1 PUSH4 0x779972DA EQ PUSH2 0x178 JUMPI JUMPDEST PUSH1 0x0 DUP1 REVERT JUMPDEST PUSH2 0xEE PUSH1 0x4 DUP1 CALLDATASIZE SUB DUP2 ADD SWAP1 PUSH2 0xE9 SWAP2 SWAP1 PUSH2 0x1464 JUMP JUMPDEST PUSH2 0x260 JUMP JUMPDEST PUSH1 0x40 MLOAD PUSH2 0xFB SWAP2 SWAP1 PUSH2 0x14A0 JUMP JUMPDEST PUSH1 0x40 MLOAD DUP1 SWAP2 SUB SWAP1 RETURN JUMPDEST PUSH2 0x11E PUSH1 0x4 DUP1 CALLDATASIZE SUB DUP2 ADD SWAP1 PUSH2 0x119 SWAP2 SWAP1 PUSH2 0x1464 JUMP JUMPDEST PUSH2 0x280 JUMP JUMPDEST PUSH1 0x40 MLOAD PUSH2 0x12B SWAP2 SWAP1 PUSH2 0x153A JUMP JUMPDEST PUSH1 0x40 MLOAD DUP1 SWAP2 SUB SWAP1 RETURN JUMPDEST PUSH2 0x13C PUSH2 0x2BF JUMP JUMPDEST PUSH1 0x40 MLOAD PUSH2 0x149 SWAP2 SWAP1 PUSH2 0x14A0 JUMP JUMPDEST PUSH1 0x40 MLOAD DUP1 SWAP2 SUB SWAP1 RETURN JUMPDEST PUSH2 0x16C PUSH1 0x4 DUP1 CALLDATASIZE SUB DUP2 ADD SWAP1 PUSH2 0x167 SWAP2 SWAP1 PUSH2 0x15BA JUMP JUMPDEST PUSH2 0x2C5 JUMP JUMPDEST STOP JUMPDEST PUSH2 0x176 PUSH2 0x69F JUMP JUMPDEST STOP JUMPDEST PUSH2 0x192 PUSH1 0x4 DUP1 CALLDATASIZE SUB DUP2 ADD SWAP1 PUSH2 0x18D SWAP2 SWAP1 PUSH2 0x1464 JUMP JUMPDEST PUSH2 0x6B3 JUMP JUMPDEST STOP JUMPDEST PUSH2 0x1AE PUSH1 0x4 DUP1 CALLDATASIZE SUB DUP2 ADD SWAP1 PUSH2 0x1A9 SWAP2 SWAP1 PUSH2 0x15BA JUMP JUMPDEST PUSH2 0x73F JUMP JUMPDEST STOP JUMPDEST PUSH2 0x1B8 PUSH2 0xC47 JUMP JUMPDEST PUSH1 0x40 MLOAD PUSH2 0x1C5 SWAP2 SWAP1 PUSH2 0x1628 JUMP JUMPDEST PUSH1 0x40 MLOAD DUP1 SWAP2 SUB SWAP1 RETURN JUMPDEST PUSH2 0x1D6 PUSH2 0xC70 JUMP JUMPDEST PUSH1 0x40 MLOAD PUSH2 0x1E3 SWAP2 SWAP1 PUSH2 0x1664 JUMP JUMPDEST PUSH1 0x40 MLOAD DUP1 SWAP2 SUB SWAP1 RETURN JUMPDEST PUSH2 0x1F4 PUSH2 0xC94 JUMP JUMPDEST PUSH1 0x40 MLOAD PUSH2 0x201 SWAP2 SWAP1 PUSH2 0x14A0 JUMP JUMPDEST PUSH1 0x40 MLOAD DUP1 SWAP2 SUB SWAP1 RETURN JUMPDEST PUSH2 0x212 PUSH2 0xC9A JUMP JUMPDEST PUSH1 0x40 MLOAD PUSH2 0x21F SWAP2 SWAP1 PUSH2 0x14A0 JUMP JUMPDEST PUSH1 0x40 MLOAD DUP1 SWAP2 SUB SWAP1 RETURN JUMPDEST PUSH2 0x242 PUSH1 0x4 DUP1 CALLDATASIZE SUB DUP2 ADD SWAP1 PUSH2 0x23D SWAP2 SWAP1 PUSH2 0x16AB JUMP JUMPDEST PUSH2 0xCA0 JUMP JUMPDEST STOP JUMPDEST PUSH2 0x25E PUSH1 0x4 DUP1 CALLDATASIZE SUB DUP2 ADD SWAP1 PUSH2 0x259 SWAP2 SWAP1 PUSH2 0x15BA JUMP JUMPDEST PUSH2 0xD23 JUMP JUMPDEST STOP JUMPDEST PUSH1 0x0 PUSH1 0x4 PUSH1 0x0 DUP4 DUP2 MSTORE PUSH1 0x20 ADD SWAP1 DUP2 MSTORE PUSH1 0x20 ADD PUSH1 0x0 KECCAK256 PUSH1 0x2 ADD SLOAD SWAP1 POP SWAP2 SWAP1 POP JUMP JUMPDEST PUSH1 0x2 DUP2 DUP2 SLOAD DUP2 LT PUSH2 0x290 JUMPI PUSH1 0x0 DUP1 REVERT JUMPDEST SWAP1 PUSH1 0x0 MSTORE PUSH1 0x20 PUSH1 0x0 KECCAK256 ADD PUSH1 0x0 SWAP2 POP SLOAD SWAP1 PUSH2 0x100 EXP SWAP1 DIV PUSH20 0xFFFFFFFFFFFFFFFFFFFFFFFFFFFFFFFFFFFFFFFF AND DUP2 JUMP JUMPDEST PUSH1 0x3 SLOAD DUP2 JUMP JUMPDEST PUSH2 0x2E4 CALLER PUSH20 0xFFFFFFFFFFFFFFFFFFFFFFFFFFFFFFFFFFFFFFFF AND PUSH2 0x11AD JUMP JUMPDEST ISZERO PUSH2 0x324 JUMPI PUSH1 0x40 MLOAD PUSH32 0x8C379A000000000000000000000000000000000000000000000000000000000 DUP2 MSTORE PUSH1 0x4 ADD PUSH2 0x31B SWAP1 PUSH2 0x1735 JUMP JUMPDEST PUSH1 0x40 MLOAD DUP1 SWAP2 SUB SWAP1 REVERT JUMPDEST ORIGIN PUSH20 0xFFFFFFFFFFFFFFFFFFFFFFFFFFFFFFFFFFFFFFFF AND CALLER PUSH20 0xFFFFFFFFFFFFFFFFFFFFFFFFFFFFFFFFFFFFFFFF AND EQ PUSH2 0x392 JUMPI PUSH1 0x40 MLOAD PUSH32 0x8C379A000000000000000000000000000000000000000000000000000000000 DUP2 MSTORE PUSH1 0x4 ADD PUSH2 0x389 SWAP1 PUSH2 0x17A1 JUMP JUMPDEST PUSH1 0x40 MLOAD DUP1 SWAP2 SUB SWAP1 REVERT JUMPDEST PUSH1 0x0 DUP3 DUP3 SWAP1 POP GT PUSH2 0x3D8 JUMPI PUSH1 0x40 MLOAD PUSH32 0x8C379A000000000000000000000000000000000000000000000000000000000 DUP2 MSTORE PUSH1 0x4 ADD PUSH2 0x3CF SWAP1 PUSH2 0x180D JUMP JUMPDEST PUSH1 0x40 MLOAD DUP1 SWAP2 SUB SWAP1 REVERT JUMPDEST PUSH1 0x0 DUP1 PUSH1 0x0 SWAP1 POP JUMPDEST DUP4 DUP4 SWAP1 POP DUP2 LT ISZERO PUSH2 0x647 JUMPI PUSH1 0x0 PUSH1 0x4 PUSH1 0x0 DUP7 DUP7 DUP6 DUP2 DUP2 LT PUSH2 0x404 JUMPI PUSH2 0x403 PUSH2 0x182D JUMP JUMPDEST JUMPDEST SWAP1 POP PUSH1 0x20 MUL ADD CALLDATALOAD DUP2 MSTORE PUSH1 0x20 ADD SWAP1 DUP2 MSTORE PUSH1 0x20 ADD PUSH1 0x0 KECCAK256 PUSH1 0x40 MLOAD DUP1 PUSH1 0x80 ADD PUSH1 0x40 MSTORE SWAP1 DUP2 PUSH1 0x0 DUP3 ADD PUSH1 0x0 SWAP1 SLOAD SWAP1 PUSH2 0x100 EXP SWAP1 DIV PUSH20 0xFFFFFFFFFFFFFFFFFFFFFFFFFFFFFFFFFFFFFFFF AND PUSH20 0xFFFFFFFFFFFFFFFFFFFFFFFFFFFFFFFFFFFFFFFF AND PUSH20 0xFFFFFFFFFFFFFFFFFFFFFFFFFFFFFFFFFFFFFFFF AND DUP2 MSTORE PUSH1 0x20 ADD PUSH1 0x1 DUP3 ADD SLOAD DUP2 MSTORE PUSH1 0x20 ADD PUSH1 0x2 DUP3 ADD SLOAD DUP2 MSTORE PUSH1 0x20 ADD PUSH1 0x3 DUP3 ADD PUSH1 0x0 SWAP1 SLOAD SWAP1 PUSH2 0x100 EXP SWAP1 DIV PUSH1 0xFF AND ISZERO ISZERO ISZERO ISZERO DUP2 MSTORE POP POP SWAP1 POP CALLER PUSH20 0xFFFFFFFFFFFFFFFFFFFFFFFFFFFFFFFFFFFFFFFF AND DUP2 PUSH1 0x0 ADD MLOAD PUSH20 0xFFFFFFFFFFFFFFFFFFFFFFFFFFFFFFFFFFFFFFFF AND EQ PUSH2 0x51D JUMPI PUSH1 0x40 MLOAD PUSH32 0x8C379A000000000000000000000000000000000000000000000000000000000 DUP2 MSTORE PUSH1 0x4 ADD PUSH2 0x514 SWAP1 PUSH2 0x18A8 JUMP JUMPDEST PUSH1 0x40 MLOAD DUP1 SWAP2 SUB SWAP1 REVERT JUMPDEST TIMESTAMP PUSH1 0x3 SLOAD DUP3 PUSH1 0x20 ADD MLOAD PUSH2 0x530 SWAP2 SWAP1 PUSH2 0x18F7 JUMP JUMPDEST LT PUSH2 0x570 JUMPI PUSH1 0x40 MLOAD PUSH32 0x8C379A000000000000000000000000000000000000000000000000000000000 DUP2 MSTORE PUSH1 0x4 ADD PUSH2 0x567 SWAP1 PUSH2 0x1977 JUMP JUMPDEST PUSH1 0x40 MLOAD DUP1 SWAP2 SUB SWAP1 REVERT JUMPDEST DUP1 PUSH1 0x60 ADD MLOAD ISZERO PUSH2 0x5B5 JUMPI PUSH1 0x40 MLOAD PUSH32 0x8C379A000000000000000000000000000000000000000000000000000000000 DUP2 MSTORE PUSH1 0x4 ADD PUSH2 0x5AC SWAP1 PUSH2 0x19E3 JUMP JUMPDEST PUSH1 0x40 MLOAD DUP1 SWAP2 SUB SWAP1 REVERT JUMPDEST PUSH1 0x0 PUSH2 0x5D9 DUP7 DUP7 DUP6 DUP2 DUP2 LT PUSH2 0x5CD JUMPI PUSH2 0x5CC PUSH2 0x182D JUMP JUMPDEST JUMPDEST SWAP1 POP PUSH1 0x20 MUL ADD CALLDATALOAD PUSH2 0x11D0 JUMP JUMPDEST SWAP1 POP PUSH1 0x0 DUP3 PUSH1 0x40 ADD MLOAD DUP3 PUSH2 0x5ED SWAP2 SWAP1 PUSH2 0x1A03 JUMP JUMPDEST SWAP1 POP DUP1 DUP6 PUSH2 0x5FB SWAP2 SWAP1 PUSH2 0x18F7 JUMP JUMPDEST SWAP5 POP DUP2 PUSH1 0x4 PUSH1 0x0 DUP10 DUP10 DUP9 DUP2 DUP2 LT PUSH2 0x615 JUMPI PUSH2 0x614 PUSH2 0x182D JUMP JUMPDEST JUMPDEST SWAP1 POP PUSH1 0x20 MUL ADD CALLDATALOAD DUP2 MSTORE PUSH1 0x20 ADD SWAP1 DUP2 MSTORE PUSH1 0x20 ADD PUSH1 0x0 KECCAK256 PUSH1 0x2 ADD DUP2 SWAP1 SSTORE POP POP POP POP DUP1 DUP1 PUSH2 0x63F SWAP1 PUSH2 0x1A37 JUMP JUMPDEST SWAP2 POP POP PUSH2 0x3E0 JUMP JUMPDEST POP CALLER PUSH20 0xFFFFFFFFFFFFFFFFFFFFFFFFFFFFFFFFFFFFFFFF AND PUSH32 0x37826BE3C26DBAD83731F4B985F22FA9EF86B6D1974CD77208332B7F1F283C0C DUP5 DUP5 DUP5 PUSH1 0x40 MLOAD PUSH2 0x692 SWAP4 SWAP3 SWAP2 SWAP1 PUSH2 0x1AFA JUMP JUMPDEST PUSH1 0x40 MLOAD DUP1 SWAP2 SUB SWAP1 LOG2 POP POP POP JUMP JUMPDEST PUSH2 0x6A7 PUSH2 0x12DA JUMP JUMPDEST PUSH2 0x6B1 PUSH1 0x0 PUSH2 0x1358 JUMP JUMPDEST JUMP JUMPDEST PUSH2 0x6BB PUSH2 0x12DA JUMP JUMPDEST PUSH1 0x0 DUP2 GT PUSH2 0x6FE JUMPI PUSH1 0x40 MLOAD PUSH32 0x8C379A000000000000000000000000000000000000000000000000000000000 DUP2 MSTORE PUSH1 0x4 ADD PUSH2 0x6F5 SWAP1 PUSH2 0x1B78 JUMP JUMPDEST PUSH1 0x40 MLOAD DUP1 SWAP2 SUB SWAP1 REVERT JUMPDEST DUP1 PUSH1 0x3 DUP2 SWAP1 SSTORE POP PUSH32 0x8249EC545E68F6F1E1230133CA48C704D831A7F8E635DED80F3DD9E99B09BB2F DUP2 PUSH1 0x40 MLOAD PUSH2 0x734 SWAP2 SWAP1 PUSH2 0x14A0 JUMP JUMPDEST PUSH1 0x40 MLOAD DUP1 SWAP2 SUB SWAP1 LOG1 POP JUMP JUMPDEST PUSH2 0x75E CALLER PUSH20 0xFFFFFFFFFFFFFFFFFFFFFFFFFFFFFFFFFFFFFFFF AND PUSH2 0x11AD JUMP JUMPDEST ISZERO PUSH2 0x79E JUMPI PUSH1 0x40 MLOAD PUSH32 0x8C379A000000000000000000000000000000000000000000000000000000000 DUP2 MSTORE PUSH1 0x4 ADD PUSH2 0x795 SWAP1 PUSH2 0x1735 JUMP JUMPDEST PUSH1 0x40 MLOAD DUP1 SWAP2 SUB SWAP1 REVERT JUMPDEST ORIGIN PUSH20 0xFFFFFFFFFFFFFFFFFFFFFFFFFFFFFFFFFFFFFFFF AND CALLER PUSH20 0xFFFFFFFFFFFFFFFFFFFFFFFFFFFFFFFFFFFFFFFF AND EQ PUSH2 0x80C JUMPI PUSH1 0x40 MLOAD PUSH32 0x8C379A000000000000000000000000000000000000000000000000000000000 DUP2 MSTORE PUSH1 0x4 ADD PUSH2 0x803 SWAP1 PUSH2 0x17A1 JUMP JUMPDEST PUSH1 0x40 MLOAD DUP1 SWAP2 SUB SWAP1 REVERT JUMPDEST PUSH1 0x2 PUSH1 0x1 SLOAD SUB PUSH2 0x851 JUMPI PUSH1 0x40 MLOAD PUSH32 0x8C379A000000000000000000000000000000000000000000000000000000000 DUP2 MSTORE PUSH1 0x4 ADD PUSH2 0x848 SWAP1 PUSH2 0x1BE4 JUMP JUMPDEST PUSH1 0x40 MLOAD DUP1 SWAP2 SUB SWAP1 REVERT JUMPDEST PUSH1 0x2 PUSH1 0x1 DUP2 SWAP1 SSTORE POP PUSH1 0x0 DUP3 DUP3 SWAP1 POP GT PUSH2 0x89F JUMPI PUSH1 0x40 MLOAD PUSH32 0x8C379A000000000000000000000000000000000000000000000000000000000 DUP2 MSTORE PUSH1 0x4 ADD PUSH2 0x896 SWAP1 PUSH2 0x180D JUMP JUMPDEST PUSH1 0x40 MLOAD DUP1 SWAP2 SUB SWAP1 REVERT JUMPDEST PUSH1 0x0 JUMPDEST DUP3 DUP3 SWAP1 POP DUP2 LT ISZERO PUSH2 0xBEB JUMPI PUSH1 0x0 PUSH1 0x4 PUSH1 0x0 DUP6 DUP6 DUP6 DUP2 DUP2 LT PUSH2 0x8C6 JUMPI PUSH2 0x8C5 PUSH2 0x182D JUMP JUMPDEST JUMPDEST SWAP1 POP PUSH1 0x20 MUL ADD CALLDATALOAD DUP2 MSTORE PUSH1 0x20 ADD SWAP1 DUP2 MSTORE PUSH1 0x20 ADD PUSH1 0x0 KECCAK256 PUSH1 0x40 MLOAD DUP1 PUSH1 0x80 ADD PUSH1 0x40 MSTORE SWAP1 DUP2 PUSH1 0x0 DUP3 ADD PUSH1 0x0 SWAP1 SLOAD SWAP1 PUSH2 0x100 EXP SWAP1 DIV PUSH20 0xFFFFFFFFFFFFFFFFFFFFFFFFFFFFFFFFFFFFFFFF AND PUSH20 0xFFFFFFFFFFFFFFFFFFFFFFFFFFFFFFFFFFFFFFFF AND PUSH20 0xFFFFFFFFFFFFFFFFFFFFFFFFFFFFFFFFFFFFFFFF AND DUP2 MSTORE PUSH1 0x20 ADD PUSH1 0x1 DUP3 ADD SLOAD DUP2 MSTORE PUSH1 0x20 ADD PUSH1 0x2 DUP3 ADD SLOAD DUP2 MSTORE PUSH1 0x20 ADD PUSH1 0x3 DUP3 ADD PUSH1 0x0 SWAP1 SLOAD SWAP1 PUSH2 0x100 EXP SWAP1 DIV PUSH1 0xFF AND ISZERO ISZERO ISZERO ISZERO DUP2 MSTORE POP POP SWAP1 POP CALLER PUSH20 0xFFFFFFFFFFFFFFFFFFFFFFFFFFFFFFFFFFFFFFFF AND DUP2 PUSH1 0x0 ADD MLOAD PUSH20 0xFFFFFFFFFFFFFFFFFFFFFFFFFFFFFFFFFFFFFFFF AND EQ PUSH2 0x9DF JUMPI PUSH1 0x40 MLOAD PUSH32 0x8C379A000000000000000000000000000000000000000000000000000000000 DUP2 MSTORE PUSH1 0x4 ADD PUSH2 0x9D6 SWAP1 PUSH2 0x18A8 JUMP JUMPDEST PUSH1 0x40 MLOAD DUP1 SWAP2 SUB SWAP1 REVERT JUMPDEST TIMESTAMP PUSH1 0x3 SLOAD DUP3 PUSH1 0x20 ADD MLOAD PUSH2 0x9F2 SWAP2 SWAP1 PUSH2 0x18F7 JUMP JUMPDEST LT PUSH2 0xA32 JUMPI PUSH1 0x40 MLOAD PUSH32 0x8C379A000000000000000000000000000000000000000000000000000000000 DUP2 MSTORE PUSH1 0x4 ADD PUSH2 0xA29 SWAP1 PUSH2 0x1C50 JUMP JUMPDEST PUSH1 0x40 MLOAD DUP1 SWAP2 SUB SWAP1 REVERT JUMPDEST DUP1 PUSH1 0x60 ADD MLOAD ISZERO PUSH2 0xA77 JUMPI PUSH1 0x40 MLOAD PUSH32 0x8C379A000000000000000000000000000000000000000000000000000000000 DUP2 MSTORE PUSH1 0x4 ADD PUSH2 0xA6E SWAP1 PUSH2 0x19E3 JUMP JUMPDEST PUSH1 0x40 MLOAD DUP1 SWAP2 SUB SWAP1 REVERT JUMPDEST PUSH32 0x0 PUSH20 0xFFFFFFFFFFFFFFFFFFFFFFFFFFFFFFFFFFFFFFFF AND PUSH4 0x23B872DD ADDRESS CALLER DUP8 DUP8 DUP8 DUP2 DUP2 LT PUSH2 0xAC8 JUMPI PUSH2 0xAC7 PUSH2 0x182D JUMP JUMPDEST JUMPDEST SWAP1 POP PUSH1 0x20 MUL ADD CALLDATALOAD PUSH1 0x40 MLOAD DUP5 PUSH4 0xFFFFFFFF AND PUSH1 0xE0 SHL DUP2 MSTORE PUSH1 0x4 ADD PUSH2 0xAED SWAP4 SWAP3 SWAP2 SWAP1 PUSH2 0x1C70 JUMP JUMPDEST PUSH1 0x0 PUSH1 0x40 MLOAD DUP1 DUP4 SUB DUP2 PUSH1 0x0 DUP8 DUP1 EXTCODESIZE ISZERO DUP1 ISZERO PUSH2 0xB07 JUMPI PUSH1 0x0 DUP1 REVERT JUMPDEST POP GAS CALL ISZERO DUP1 ISZERO PUSH2 0xB1B JUMPI RETURNDATASIZE PUSH1 0x0 DUP1 RETURNDATACOPY RETURNDATASIZE PUSH1 0x0 REVERT JUMPDEST POP POP POP POP PUSH1 0x0 PUSH2 0xB43 DUP6 DUP6 DUP6 DUP2 DUP2 LT PUSH2 0xB37 JUMPI PUSH2 0xB36 PUSH2 0x182D JUMP JUMPDEST JUMPDEST SWAP1 POP PUSH1 0x20 MUL ADD CALLDATALOAD PUSH2 0x11D0 JUMP JUMPDEST SWAP1 POP PUSH1 0x0 DUP3 PUSH1 0x40 ADD MLOAD DUP3 PUSH2 0xB57 SWAP2 SWAP1 PUSH2 0x1A03 JUMP JUMPDEST SWAP1 POP DUP2 PUSH1 0x4 PUSH1 0x0 DUP9 DUP9 DUP9 DUP2 DUP2 LT PUSH2 0xB71 JUMPI PUSH2 0xB70 PUSH2 0x182D JUMP JUMPDEST JUMPDEST SWAP1 POP PUSH1 0x20 MUL ADD CALLDATALOAD DUP2 MSTORE PUSH1 0x20 ADD SWAP1 DUP2 MSTORE PUSH1 0x20 ADD PUSH1 0x0 KECCAK256 PUSH1 0x2 ADD DUP2 SWAP1 SSTORE POP PUSH1 0x1 PUSH1 0x4 PUSH1 0x0 DUP9 DUP9 DUP9 DUP2 DUP2 LT PUSH2 0xBA6 JUMPI PUSH2 0xBA5 PUSH2 0x182D JUMP JUMPDEST JUMPDEST SWAP1 POP PUSH1 0x20 MUL ADD CALLDATALOAD DUP2 MSTORE PUSH1 0x20 ADD SWAP1 DUP2 MSTORE PUSH1 0x20 ADD PUSH1 0x0 KECCAK256 PUSH1 0x3 ADD PUSH1 0x0 PUSH2 0x100 EXP DUP2 SLOAD DUP2 PUSH1 0xFF MUL NOT AND SWAP1 DUP4 ISZERO ISZERO MUL OR SWAP1 SSTORE POP POP POP POP DUP1 DUP1 PUSH2 0xBE3 SWAP1 PUSH2 0x1A37 JUMP JUMPDEST SWAP2 POP POP PUSH2 0x8A2 JUMP JUMPDEST POP CALLER PUSH20 0xFFFFFFFFFFFFFFFFFFFFFFFFFFFFFFFFFFFFFFFF AND PUSH32 0x5CB48022479B9AC3BFB10A27965DC010ACFFC9FC1BC9A52F0B18975B944B54CA DUP4 DUP4 PUSH1 0x40 MLOAD PUSH2 0xC34 SWAP3 SWAP2 SWAP1 PUSH2 0x1CA7 JUMP JUMPDEST PUSH1 0x40 MLOAD DUP1 SWAP2 SUB SWAP1 LOG2 PUSH1 0x1 DUP1 DUP2 SWAP1 SSTORE POP POP POP JUMP JUMPDEST PUSH1 0x0 DUP1 PUSH1 0x0 SWAP1 SLOAD SWAP1 PUSH2 0x100 EXP SWAP1 DIV PUSH20 0xFFFFFFFFFFFFFFFFFFFFFFFFFFFFFFFFFFFFFFFF AND SWAP1 POP SWAP1 JUMP JUMPDEST PUSH32 0x0 DUP2 JUMP JUMPDEST PUSH1 0x5 SLOAD DUP2 JUMP JUMPDEST PUSH1 0x6 SLOAD DUP2 JUMP JUMPDEST PUSH2 0xCA8 PUSH2 0x12DA JUMP JUMPDEST PUSH1 0x0 PUSH20 0xFFFFFFFFFFFFFFFFFFFFFFFFFFFFFFFFFFFFFFFF AND DUP2 PUSH20 0xFFFFFFFFFFFFFFFFFFFFFFFFFFFFFFFFFFFFFFFF AND SUB PUSH2 0xD17 JUMPI PUSH1 0x40 MLOAD PUSH32 0x8C379A000000000000000000000000000000000000000000000000000000000 DUP2 MSTORE PUSH1 0x4 ADD PUSH2 0xD0E SWAP1 PUSH2 0x1D3D JUMP JUMPDEST PUSH1 0x40 MLOAD DUP1 SWAP2 SUB SWAP1 REVERT JUMPDEST PUSH2 0xD20 DUP2 PUSH2 0x1358 JUMP JUMPDEST POP JUMP JUMPDEST PUSH2 0xD42 CALLER PUSH20 0xFFFFFFFFFFFFFFFFFFFFFFFFFFFFFFFFFFFFFFFF AND PUSH2 0x11AD JUMP JUMPDEST ISZERO PUSH2 0xD82 JUMPI PUSH1 0x40 MLOAD PUSH32 0x8C379A000000000000000000000000000000000000000000000000000000000 DUP2 MSTORE PUSH1 0x4 ADD PUSH2 0xD79 SWAP1 PUSH2 0x1735 JUMP JUMPDEST PUSH1 0x40 MLOAD DUP1 SWAP2 SUB SWAP1 REVERT JUMPDEST ORIGIN PUSH20 0xFFFFFFFFFFFFFFFFFFFFFFFFFFFFFFFFFFFFFFFF AND CALLER PUSH20 0xFFFFFFFFFFFFFFFFFFFFFFFFFFFFFFFFFFFFFFFF AND EQ PUSH2 0xDF0 JUMPI PUSH1 0x40 MLOAD PUSH32 0x8C379A000000000000000000000000000000000000000000000000000000000 DUP2 MSTORE PUSH1 0x4 ADD PUSH2 0xDE7 SWAP1 PUSH2 0x17A1 JUMP JUMPDEST PUSH1 0x40 MLOAD DUP1 SWAP2 SUB SWAP1 REVERT JUMPDEST PUSH1 0x2 PUSH1 0x1 SLOAD SUB PUSH2 0xE35 JUMPI PUSH1 0x40 MLOAD PUSH32 0x8C379A000000000000000000000000000000000000000000000000000000000 DUP2 MSTORE PUSH1 0x4 ADD PUSH2 0xE2C SWAP1 PUSH2 0x1BE4 JUMP JUMPDEST PUSH1 0x40 MLOAD DUP1 SWAP2 SUB SWAP1 REVERT JUMPDEST PUSH1 0x2 PUSH1 0x1 DUP2 SWAP1 SSTORE POP PUSH1 0x0 DUP3 DUP3 SWAP1 POP GT PUSH2 0xE83 JUMPI PUSH1 0x40 MLOAD PUSH32 0x8C379A000000000000000000000000000000000000000000000000000000000 DUP2 MSTORE PUSH1 0x4 ADD PUSH2 0xE7A SWAP1 PUSH2 0x180D JUMP JUMPDEST PUSH1 0x40 MLOAD DUP1 SWAP2 SUB SWAP1 REVERT JUMPDEST PUSH1 0x0 JUMPDEST DUP3 DUP3 SWAP1 POP DUP2 LT ISZERO PUSH2 0x1151 JUMPI CALLER PUSH20 0xFFFFFFFFFFFFFFFFFFFFFFFFFFFFFFFFFFFFFFFF AND PUSH32 0x0 PUSH20 0xFFFFFFFFFFFFFFFFFFFFFFFFFFFFFFFFFFFFFFFF AND PUSH4 0x6352211E DUP6 DUP6 DUP6 DUP2 DUP2 LT PUSH2 0xEF7 JUMPI PUSH2 0xEF6 PUSH2 0x182D JUMP JUMPDEST JUMPDEST SWAP1 POP PUSH1 0x20 MUL ADD CALLDATALOAD PUSH1 0x40 MLOAD DUP3 PUSH4 0xFFFFFFFF AND PUSH1 0xE0 SHL DUP2 MSTORE PUSH1 0x4 ADD PUSH2 0xF1A SWAP2 SWAP1 PUSH2 0x14A0 JUMP JUMPDEST PUSH1 0x20 PUSH1 0x40 MLOAD DUP1 DUP4 SUB DUP2 DUP7 GAS STATICCALL ISZERO DUP1 ISZERO PUSH2 0xF37 JUMPI RETURNDATASIZE PUSH1 0x0 DUP1 RETURNDATACOPY RETURNDATASIZE PUSH1 0x0 REVERT JUMPDEST POP POP POP POP PUSH1 0x40 MLOAD RETURNDATASIZE PUSH1 0x1F NOT PUSH1 0x1F DUP3 ADD AND DUP3 ADD DUP1 PUSH1 0x40 MSTORE POP DUP2 ADD SWAP1 PUSH2 0xF5B SWAP2 SWAP1 PUSH2 0x1D72 JUMP JUMPDEST PUSH20 0xFFFFFFFFFFFFFFFFFFFFFFFFFFFFFFFFFFFFFFFF AND EQ PUSH2 0xFB1 JUMPI PUSH1 0x40 MLOAD PUSH32 0x8C379A000000000000000000000000000000000000000000000000000000000 DUP2 MSTORE PUSH1 0x4 ADD PUSH2 0xFA8 SWAP1 PUSH2 0x1DEB JUMP JUMPDEST PUSH1 0x40 MLOAD DUP1 SWAP2 SUB SWAP1 REVERT JUMPDEST PUSH32 0x0 PUSH20 0xFFFFFFFFFFFFFFFFFFFFFFFFFFFFFFFFFFFFFFFF AND PUSH4 0x23B872DD CALLER ADDRESS DUP7 DUP7 DUP7 DUP2 DUP2 LT PUSH2 0x1002 JUMPI PUSH2 0x1001 PUSH2 0x182D JUMP JUMPDEST JUMPDEST SWAP1 POP PUSH1 0x20 MUL ADD CALLDATALOAD PUSH1 0x40 MLOAD DUP5 PUSH4 0xFFFFFFFF AND PUSH1 0xE0 SHL DUP2 MSTORE PUSH1 0x4 ADD PUSH2 0x1027 SWAP4 SWAP3 SWAP2 SWAP1 PUSH2 0x1C70 JUMP JUMPDEST PUSH1 0x0 PUSH1 0x40 MLOAD DUP1 DUP4 SUB DUP2 PUSH1 0x0 DUP8 DUP1 EXTCODESIZE ISZERO DUP1 ISZERO PUSH2 0x1041 JUMPI PUSH1 0x0 DUP1 REVERT JUMPDEST POP GAS CALL ISZERO DUP1 ISZERO PUSH2 0x1055 JUMPI RETURNDATASIZE PUSH1 0x0 DUP1 RETURNDATACOPY RETURNDATASIZE PUSH1 0x0 REVERT JUMPDEST POP POP POP POP PUSH1 0x40 MLOAD DUP1 PUSH1 0x80 ADD PUSH1 0x40 MSTORE DUP1 CALLER PUSH20 0xFFFFFFFFFFFFFFFFFFFFFFFFFFFFFFFFFFFFFFFF AND DUP2 MSTORE PUSH1 0x20 ADD TIMESTAMP DUP2 MSTORE PUSH1 0x20 ADD PUSH1 0x0 DUP2 MSTORE PUSH1 0x20 ADD PUSH1 0x0 ISZERO ISZERO DUP2 MSTORE POP PUSH1 0x4 PUSH1 0x0 DUP6 DUP6 DUP6 DUP2 DUP2 LT PUSH2 0x10AB JUMPI PUSH2 0x10AA PUSH2 0x182D JUMP JUMPDEST JUMPDEST SWAP1 POP PUSH1 0x20 MUL ADD CALLDATALOAD DUP2 MSTORE PUSH1 0x20 ADD SWAP1 DUP2 MSTORE PUSH1 0x20 ADD PUSH1 0x0 KECCAK256 PUSH1 0x0 DUP3 ADD MLOAD DUP2 PUSH1 0x0 ADD PUSH1 0x0 PUSH2 0x100 EXP DUP2 SLOAD DUP2 PUSH20 0xFFFFFFFFFFFFFFFFFFFFFFFFFFFFFFFFFFFFFFFF MUL NOT AND SWAP1 DUP4 PUSH20 0xFFFFFFFFFFFFFFFFFFFFFFFFFFFFFFFFFFFFFFFF AND MUL OR SWAP1 SSTORE POP PUSH1 0x20 DUP3 ADD MLOAD DUP2 PUSH1 0x1 ADD SSTORE PUSH1 0x40 DUP3 ADD MLOAD DUP2 PUSH1 0x2 ADD SSTORE PUSH1 0x60 DUP3 ADD MLOAD DUP2 PUSH1 0x3 ADD PUSH1 0x0 PUSH2 0x100 EXP DUP2 SLOAD DUP2 PUSH1 0xFF MUL NOT AND SWAP1 DUP4 ISZERO ISZERO MUL OR SWAP1 SSTORE POP SWAP1 POP POP DUP1 DUP1 PUSH2 0x1149 SWAP1 PUSH2 0x1A37 JUMP JUMPDEST SWAP2 POP POP PUSH2 0xE86 JUMP JUMPDEST POP CALLER PUSH20 0xFFFFFFFFFFFFFFFFFFFFFFFFFFFFFFFFFFFFFFFF AND PUSH32 0x458BE0227BCCC9E803DEC79BD16767EEAF9925D2CE708EEED7AE1F3621F968F9 DUP4 DUP4 PUSH1 0x40 MLOAD PUSH2 0x119A SWAP3 SWAP2 SWAP1 PUSH2 0x1CA7 JUMP JUMPDEST PUSH1 0x40 MLOAD DUP1 SWAP2 SUB SWAP1 LOG2 PUSH1 0x1 DUP1 DUP2 SWAP1 SSTORE POP POP POP JUMP JUMPDEST PUSH1 0x0 DUP1 DUP3 PUSH20 0xFFFFFFFFFFFFFFFFFFFFFFFFFFFFFFFFFFFFFFFF AND EXTCODESIZE GT SWAP1 POP SWAP2 SWAP1 POP JUMP JUMPDEST PUSH1 0x0 DUP1 PUSH1 0x4 PUSH1 0x0 DUP5 DUP2 MSTORE PUSH1 0x20 ADD SWAP1 DUP2 MSTORE PUSH1 0x20 ADD PUSH1 0x0 KECCAK256 PUSH1 0x40 MLOAD DUP1 PUSH1 0x80 ADD PUSH1 0x40 MSTORE SWAP1 DUP2 PUSH1 0x0 DUP3 ADD PUSH1 0x0 SWAP1 SLOAD SWAP1 PUSH2 0x100 EXP SWAP1 DIV PUSH20 0xFFFFFFFFFFFFFFFFFFFFFFFFFFFFFFFFFFFFFFFF AND PUSH20 0xFFFFFFFFFFFFFFFFFFFFFFFFFFFFFFFFFFFFFFFF AND PUSH20 0xFFFFFFFFFFFFFFFFFFFFFFFFFFFFFFFFFFFFFFFF AND DUP2 MSTORE PUSH1 0x20 ADD PUSH1 0x1 DUP3 ADD SLOAD DUP2 MSTORE PUSH1 0x20 ADD PUSH1 0x2 DUP3 ADD SLOAD DUP2 MSTORE PUSH1 0x20 ADD PUSH1 0x3 DUP3 ADD PUSH1 0x0 SWAP1 SLOAD SWAP1 PUSH2 0x100 EXP SWAP1 DIV PUSH1 0xFF AND ISZERO ISZERO ISZERO ISZERO DUP2 MSTORE POP POP SWAP1 POP PUSH1 0x0 DUP2 PUSH1 0x20 ADD MLOAD TIMESTAMP PUSH2 0x128A SWAP2 SWAP1 PUSH2 0x1A03 JUMP JUMPDEST SWAP1 POP PUSH1 0x0 PUSH1 0x3 SLOAD DUP3 LT ISZERO PUSH2 0x12A4 JUMPI PUSH1 0x0 SWAP4 POP POP POP POP PUSH2 0x12D5 JUMP JUMPDEST PUSH1 0x5 SLOAD PUSH1 0x3 SLOAD DUP4 PUSH2 0x12B5 SWAP2 SWAP1 PUSH2 0x1A03 JUMP JUMPDEST PUSH1 0x6 SLOAD PUSH2 0x12C2 SWAP2 SWAP1 PUSH2 0x1E0B JUMP JUMPDEST PUSH2 0x12CC SWAP2 SWAP1 PUSH2 0x1E94 JUMP JUMPDEST SWAP1 POP DUP1 SWAP4 POP POP POP POP JUMPDEST SWAP2 SWAP1 POP JUMP JUMPDEST PUSH2 0x12E2 PUSH2 0x141C JUMP JUMPDEST PUSH20 0xFFFFFFFFFFFFFFFFFFFFFFFFFFFFFFFFFFFFFFFF AND PUSH2 0x1300 PUSH2 0xC47 JUMP JUMPDEST PUSH20 0xFFFFFFFFFFFFFFFFFFFFFFFFFFFFFFFFFFFFFFFF AND EQ PUSH2 0x1356 JUMPI PUSH1 0x40 MLOAD PUSH32 0x8C379A000000000000000000000000000000000000000000000000000000000 DUP2 MSTORE PUSH1 0x4 ADD PUSH2 0x134D SWAP1 PUSH2 0x1F11 JUMP JUMPDEST PUSH1 0x40 MLOAD DUP1 SWAP2 SUB SWAP1 REVERT JUMPDEST JUMP JUMPDEST PUSH1 0x0 DUP1 PUSH1 0x0 SWAP1 SLOAD SWAP1 PUSH2 0x100 EXP SWAP1 DIV PUSH20 0xFFFFFFFFFFFFFFFFFFFFFFFFFFFFFFFFFFFFFFFF AND SWAP1 POP DUP2 PUSH1 0x0 DUP1 PUSH2 0x100 EXP DUP2 SLOAD DUP2 PUSH20 0xFFFFFFFFFFFFFFFFFFFFFFFFFFFFFFFFFFFFFFFF MUL NOT AND SWAP1 DUP4 PUSH20 0xFFFFFFFFFFFFFFFFFFFFFFFFFFFFFFFFFFFFFFFF AND MUL OR SWAP1 SSTORE POP DUP2 PUSH20 0xFFFFFFFFFFFFFFFFFFFFFFFFFFFFFFFFFFFFFFFF AND DUP2 PUSH20 0xFFFFFFFFFFFFFFFFFFFFFFFFFFFFFFFFFFFFFFFF AND PUSH32 0x8BE0079C531659141344CD1FD0A4F28419497F9722A3DAAFE3B4186F6B6457E0 PUSH1 0x40 MLOAD PUSH1 0x40 MLOAD DUP1 SWAP2 SUB SWAP1 LOG3 POP POP JUMP JUMPDEST PUSH1 0x0 CALLER SWAP1 POP SWAP1 JUMP JUMPDEST PUSH1 0x0 DUP1 REVERT JUMPDEST PUSH1 0x0 DUP1 REVERT JUMPDEST PUSH1 0x0 DUP2 SWAP1 POP SWAP2 SWAP1 POP JUMP JUMPDEST PUSH2 0x1441 DUP2 PUSH2 0x142E JUMP JUMPDEST DUP2 EQ PUSH2 0x144C JUMPI PUSH1 0x0 DUP1 REVERT JUMPDEST POP JUMP JUMPDEST PUSH1 0x0 DUP2 CALLDATALOAD SWAP1 POP PUSH2 0x145E DUP2 PUSH2 0x1438 JUMP JUMPDEST SWAP3 SWAP2 POP POP JUMP JUMPDEST PUSH1 0x0 PUSH1 0x20 DUP3 DUP5 SUB SLT ISZERO PUSH2 0x147A JUMPI PUSH2 0x1479 PUSH2 0x1424 JUMP JUMPDEST JUMPDEST PUSH1 0x0 PUSH2 0x1488 DUP5 DUP3 DUP6 ADD PUSH2 0x144F JUMP JUMPDEST SWAP2 POP POP SWAP3 SWAP2 POP POP JUMP JUMPDEST PUSH2 0x149A DUP2 PUSH2 0x142E JUMP JUMPDEST DUP3 MSTORE POP POP JUMP JUMPDEST PUSH1 0x0 PUSH1 0x20 DUP3 ADD SWAP1 POP PUSH2 0x14B5 PUSH1 0x0 DUP4 ADD DUP5 PUSH2 0x1491 JUMP JUMPDEST SWAP3 SWAP2 POP POP JUMP JUMPDEST PUSH1 0x0 PUSH20 0xFFFFFFFFFFFFFFFFFFFFFFFFFFFFFFFFFFFFFFFF DUP3 AND SWAP1 POP SWAP2 SWAP1 POP JUMP JUMPDEST PUSH1 0x0 DUP2 SWAP1 POP SWAP2 SWAP1 POP JUMP JUMPDEST PUSH1 0x0 PUSH2 0x1500 PUSH2 0x14FB PUSH2 0x14F6 DUP5 PUSH2 0x14BB JUMP JUMPDEST PUSH2 0x14DB JUMP JUMPDEST PUSH2 0x14BB JUMP JUMPDEST SWAP1 POP SWAP2 SWAP1 POP JUMP JUMPDEST PUSH1 0x0 PUSH2 0x1512 DUP3 PUSH2 0x14E5 JUMP JUMPDEST SWAP1 POP SWAP2 SWAP1 POP JUMP JUMPDEST PUSH1 0x0 PUSH2 0x1524 DUP3 PUSH2 0x1507 JUMP JUMPDEST SWAP1 POP SWAP2 SWAP1 POP JUMP JUMPDEST PUSH2 0x1534 DUP2 PUSH2 0x1519 JUMP JUMPDEST DUP3 MSTORE POP POP JUMP JUMPDEST PUSH1 0x0 PUSH1 0x20 DUP3 ADD SWAP1 POP PUSH2 0x154F PUSH1 0x0 DUP4 ADD DUP5 PUSH2 0x152B JUMP JUMPDEST SWAP3 SWAP2 POP POP JUMP JUMPDEST PUSH1 0x0 DUP1 REVERT JUMPDEST PUSH1 0x0 DUP1 REVERT JUMPDEST PUSH1 0x0 DUP1 REVERT JUMPDEST PUSH1 0x0 DUP1 DUP4 PUSH1 0x1F DUP5 ADD SLT PUSH2 0x157A JUMPI PUSH2 0x1579 PUSH2 0x1555 JUMP JUMPDEST JUMPDEST DUP3 CALLDATALOAD SWAP1 POP PUSH8 0xFFFFFFFFFFFFFFFF DUP2 GT ISZERO PUSH2 0x1597 JUMPI PUSH2 0x1596 PUSH2 0x155A JUMP JUMPDEST JUMPDEST PUSH1 0x20 DUP4 ADD SWAP2 POP DUP4 PUSH1 0x20 DUP3 MUL DUP4 ADD GT ISZERO PUSH2 0x15B3 JUMPI PUSH2 0x15B2 PUSH2 0x155F JUMP JUMPDEST JUMPDEST SWAP3 POP SWAP3 SWAP1 POP JUMP JUMPDEST PUSH1 0x0 DUP1 PUSH1 0x20 DUP4 DUP6 SUB SLT ISZERO PUSH2 0x15D1 JUMPI PUSH2 0x15D0 PUSH2 0x1424 JUMP JUMPDEST JUMPDEST PUSH1 0x0 DUP4 ADD CALLDATALOAD PUSH8 0xFFFFFFFFFFFFFFFF DUP2 GT ISZERO PUSH2 0x15EF JUMPI PUSH2 0x15EE PUSH2 0x1429 JUMP JUMPDEST JUMPDEST PUSH2 0x15FB DUP6 DUP3 DUP7 ADD PUSH2 0x1564 JUMP JUMPDEST SWAP3 POP SWAP3 POP POP SWAP3 POP SWAP3 SWAP1 POP JUMP JUMPDEST PUSH1 0x0 PUSH2 0x1612 DUP3 PUSH2 0x14BB JUMP JUMPDEST SWAP1 POP SWAP2 SWAP1 POP JUMP JUMPDEST PUSH2 0x1622 DUP2 PUSH2 0x1607 JUMP JUMPDEST DUP3 MSTORE POP POP JUMP JUMPDEST PUSH1 0x0 PUSH1 0x20 DUP3 ADD SWAP1 POP PUSH2 0x163D PUSH1 0x0 DUP4 ADD DUP5 PUSH2 0x1619 JUMP JUMPDEST SWAP3 SWAP2 POP POP JUMP JUMPDEST PUSH1 0x0 PUSH2 0x164E DUP3 PUSH2 0x1507 JUMP JUMPDEST SWAP1 POP SWAP2 SWAP1 POP JUMP JUMPDEST PUSH2 0x165E DUP2 PUSH2 0x1643 JUMP JUMPDEST DUP3 MSTORE POP POP JUMP JUMPDEST PUSH1 0x0 PUSH1 0x20 DUP3 ADD SWAP1 POP PUSH2 0x1679 PUSH1 0x0 DUP4 ADD DUP5 PUSH2 0x1655 JUMP JUMPDEST SWAP3 SWAP2 POP POP JUMP JUMPDEST PUSH2 0x1688 DUP2 PUSH2 0x1607 JUMP JUMPDEST DUP2 EQ PUSH2 0x1693 JUMPI PUSH1 0x0 DUP1 REVERT JUMPDEST POP JUMP JUMPDEST PUSH1 0x0 DUP2 CALLDATALOAD SWAP1 POP PUSH2 0x16A5 DUP2 PUSH2 0x167F JUMP JUMPDEST SWAP3 SWAP2 POP POP JUMP JUMPDEST PUSH1 0x0 PUSH1 0x20 DUP3 DUP5 SUB SLT ISZERO PUSH2 0x16C1 JUMPI PUSH2 0x16C0 PUSH2 0x1424 JUMP JUMPDEST JUMPDEST PUSH1 0x0 PUSH2 0x16CF DUP5 DUP3 DUP6 ADD PUSH2 0x1696 JUMP JUMPDEST SWAP2 POP POP SWAP3 SWAP2 POP POP JUMP JUMPDEST PUSH1 0x0 DUP3 DUP3 MSTORE PUSH1 0x20 DUP3 ADD SWAP1 POP SWAP3 SWAP2 POP POP JUMP JUMPDEST PUSH32 0x436F6E7472616374206E6F7420616C6C6F776564000000000000000000000000 PUSH1 0x0 DUP3 ADD MSTORE POP JUMP JUMPDEST PUSH1 0x0 PUSH2 0x171F PUSH1 0x14 DUP4 PUSH2 0x16D8 JUMP JUMPDEST SWAP2 POP PUSH2 0x172A DUP3 PUSH2 0x16E9 JUMP JUMPDEST PUSH1 0x20 DUP3 ADD SWAP1 POP SWAP2 SWAP1 POP JUMP JUMPDEST PUSH1 0x0 PUSH1 0x20 DUP3 ADD SWAP1 POP DUP2 DUP2 SUB PUSH1 0x0 DUP4 ADD MSTORE PUSH2 0x174E DUP2 PUSH2 0x1712 JUMP JUMPDEST SWAP1 POP SWAP2 SWAP1 POP JUMP JUMPDEST PUSH32 0x50726F787920636F6E7472616374206E6F7420616C6C6F776564000000000000 PUSH1 0x0 DUP3 ADD MSTORE POP JUMP JUMPDEST PUSH1 0x0 PUSH2 0x178B PUSH1 0x1A DUP4 PUSH2 0x16D8 JUMP JUMPDEST SWAP2 POP PUSH2 0x1796 DUP3 PUSH2 0x1755 JUMP JUMPDEST PUSH1 0x20 DUP3 ADD SWAP1 POP SWAP2 SWAP1 POP JUMP JUMPDEST PUSH1 0x0 PUSH1 0x20 DUP3 ADD SWAP1 POP DUP2 DUP2 SUB PUSH1 0x0 DUP4 ADD MSTORE PUSH2 0x17BA DUP2 PUSH2 0x177E JUMP JUMPDEST SWAP1 POP SWAP2 SWAP1 POP JUMP JUMPDEST PUSH32 0x4E6F20746F6B656E730000000000000000000000000000000000000000000000 PUSH1 0x0 DUP3 ADD MSTORE POP JUMP JUMPDEST PUSH1 0x0 PUSH2 0x17F7 PUSH1 0x9 DUP4 PUSH2 0x16D8 JUMP JUMPDEST SWAP2 POP PUSH2 0x1802 DUP3 PUSH2 0x17C1 JUMP JUMPDEST PUSH1 0x20 DUP3 ADD SWAP1 POP SWAP2 SWAP1 POP JUMP JUMPDEST PUSH1 0x0 PUSH1 0x20 DUP3 ADD SWAP1 POP DUP2 DUP2 SUB PUSH1 0x0 DUP4 ADD MSTORE PUSH2 0x1826 DUP2 PUSH2 0x17EA JUMP JUMPDEST SWAP1 POP SWAP2 SWAP1 POP JUMP JUMPDEST PUSH32 0x4E487B7100000000000000000000000000000000000000000000000000000000 PUSH1 0x0 MSTORE PUSH1 0x32 PUSH1 0x4 MSTORE PUSH1 0x24 PUSH1 0x0 REVERT JUMPDEST PUSH32 0x4E6F74206120746F6B656E206F776E6572000000000000000000000000000000 PUSH1 0x0 DUP3 ADD MSTORE POP JUMP JUMPDEST PUSH1 0x0 PUSH2 0x1892 PUSH1 0x11 DUP4 PUSH2 0x16D8 JUMP JUMPDEST SWAP2 POP PUSH2 0x189D DUP3 PUSH2 0x185C JUMP JUMPDEST PUSH1 0x20 DUP3 ADD SWAP1 POP SWAP2 SWAP1 POP JUMP JUMPDEST PUSH1 0x0 PUSH1 0x20 DUP3 ADD SWAP1 POP DUP2 DUP2 SUB PUSH1 0x0 DUP4 ADD MSTORE PUSH2 0x18C1 DUP2 PUSH2 0x1885 JUMP JUMPDEST SWAP1 POP SWAP2 SWAP1 POP JUMP JUMPDEST PUSH32 0x4E487B7100000000000000000000000000000000000000000000000000000000 PUSH1 0x0 MSTORE PUSH1 0x11 PUSH1 0x4 MSTORE PUSH1 0x24 PUSH1 0x0 REVERT JUMPDEST PUSH1 0x0 PUSH2 0x1902 DUP3 PUSH2 0x142E JUMP JUMPDEST SWAP2 POP PUSH2 0x190D DUP4 PUSH2 0x142E JUMP JUMPDEST SWAP3 POP DUP3 DUP3 ADD SWAP1 POP DUP1 DUP3 GT ISZERO PUSH2 0x1925 JUMPI PUSH2 0x1924 PUSH2 0x18C8 JUMP JUMPDEST JUMPDEST SWAP3 SWAP2 POP POP JUMP JUMPDEST PUSH32 0x4E6F742061626C6520746F20636C61696D207965740000000000000000000000 PUSH1 0x0 DUP3 ADD MSTORE POP JUMP JUMPDEST PUSH1 0x0 PUSH2 0x1961 PUSH1 0x15 DUP4 PUSH2 0x16D8 JUMP JUMPDEST SWAP2 POP PUSH2 0x196C DUP3 PUSH2 0x192B JUMP JUMPDEST PUSH1 0x20 DUP3 ADD SWAP1 POP SWAP2 SWAP1 POP JUMP JUMPDEST PUSH1 0x0 PUSH1 0x20 DUP3 ADD SWAP1 POP DUP2 DUP2 SUB PUSH1 0x0 DUP4 ADD MSTORE PUSH2 0x1990 DUP2 PUSH2 0x1954 JUMP JUMPDEST SWAP1 POP SWAP2 SWAP1 POP JUMP JUMPDEST PUSH32 0x416C726561647920756E6C6F636B656400000000000000000000000000000000 PUSH1 0x0 DUP3 ADD MSTORE POP JUMP JUMPDEST PUSH1 0x0 PUSH2 0x19CD PUSH1 0x10 DUP4 PUSH2 0x16D8 JUMP JUMPDEST SWAP2 POP PUSH2 0x19D8 DUP3 PUSH2 0x1997 JUMP JUMPDEST PUSH1 0x20 DUP3 ADD SWAP1 POP SWAP2 SWAP1 POP JUMP JUMPDEST PUSH1 0x0 PUSH1 0x20 DUP3 ADD SWAP1 POP DUP2 DUP2 SUB PUSH1 0x0 DUP4 ADD MSTORE PUSH2 0x19FC DUP2 PUSH2 0x19C0 JUMP JUMPDEST SWAP1 POP SWAP2 SWAP1 POP JUMP JUMPDEST PUSH1 0x0 PUSH2 0x1A0E DUP3 PUSH2 0x142E JUMP JUMPDEST SWAP2 POP PUSH2 0x1A19 DUP4 PUSH2 0x142E JUMP JUMPDEST SWAP3 POP DUP3 DUP3 SUB SWAP1 POP DUP2 DUP2 GT ISZERO PUSH2 0x1A31 JUMPI PUSH2 0x1A30 PUSH2 0x18C8 JUMP JUMPDEST JUMPDEST SWAP3 SWAP2 POP POP JUMP JUMPDEST PUSH1 0x0 PUSH2 0x1A42 DUP3 PUSH2 0x142E JUMP JUMPDEST SWAP2 POP PUSH32 0xFFFFFFFFFFFFFFFFFFFFFFFFFFFFFFFFFFFFFFFFFFFFFFFFFFFFFFFFFFFFFFFF DUP3 SUB PUSH2 0x1A74 JUMPI PUSH2 0x1A73 PUSH2 0x18C8 JUMP JUMPDEST JUMPDEST PUSH1 0x1 DUP3 ADD SWAP1 POP SWAP2 SWAP1 POP JUMP JUMPDEST PUSH1 0x0 DUP3 DUP3 MSTORE PUSH1 0x20 DUP3 ADD SWAP1 POP SWAP3 SWAP2 POP POP JUMP JUMPDEST PUSH1 0x0 DUP1 REVERT JUMPDEST DUP3 DUP2 DUP4 CALLDATACOPY POP POP POP JUMP JUMPDEST PUSH1 0x0 PUSH2 0x1AAA DUP4 DUP6 PUSH2 0x1A7F JUMP JUMPDEST SWAP4 POP PUSH32 0x7FFFFFFFFFFFFFFFFFFFFFFFFFFFFFFFFFFFFFFFFFFFFFFFFFFFFFFFFFFFFFF DUP4 GT ISZERO PUSH2 0x1ADD JUMPI PUSH2 0x1ADC PUSH2 0x1A90 JUMP JUMPDEST JUMPDEST PUSH1 0x20 DUP4 MUL SWAP3 POP PUSH2 0x1AEE DUP4 DUP6 DUP5 PUSH2 0x1A95 JUMP JUMPDEST DUP3 DUP5 ADD SWAP1 POP SWAP4 SWAP3 POP POP POP JUMP JUMPDEST PUSH1 0x0 PUSH1 0x40 DUP3 ADD SWAP1 POP DUP2 DUP2 SUB PUSH1 0x0 DUP4 ADD MSTORE PUSH2 0x1B15 DUP2 DUP6 DUP8 PUSH2 0x1A9E JUMP JUMPDEST SWAP1 POP PUSH2 0x1B24 PUSH1 0x20 DUP4 ADD DUP5 PUSH2 0x1491 JUMP JUMPDEST SWAP5 SWAP4 POP POP POP POP JUMP JUMPDEST PUSH32 0x496E76616C6964206C6F636B20706572696F642E000000000000000000000000 PUSH1 0x0 DUP3 ADD MSTORE POP JUMP JUMPDEST PUSH1 0x0 PUSH2 0x1B62 PUSH1 0x14 DUP4 PUSH2 0x16D8 JUMP JUMPDEST SWAP2 POP PUSH2 0x1B6D DUP3 PUSH2 0x1B2C JUMP JUMPDEST PUSH1 0x20 DUP3 ADD SWAP1 POP SWAP2 SWAP1 POP JUMP JUMPDEST PUSH1 0x0 PUSH1 0x20 DUP3 ADD SWAP1 POP DUP2 DUP2 SUB PUSH1 0x0 DUP4 ADD MSTORE PUSH2 0x1B91 DUP2 PUSH2 0x1B55 JUMP JUMPDEST SWAP1 POP SWAP2 SWAP1 POP JUMP JUMPDEST PUSH32 0x5265656E7472616E637947756172643A207265656E7472616E742063616C6C00 PUSH1 0x0 DUP3 ADD MSTORE POP JUMP JUMPDEST PUSH1 0x0 PUSH2 0x1BCE PUSH1 0x1F DUP4 PUSH2 0x16D8 JUMP JUMPDEST SWAP2 POP PUSH2 0x1BD9 DUP3 PUSH2 0x1B98 JUMP JUMPDEST PUSH1 0x20 DUP3 ADD SWAP1 POP SWAP2 SWAP1 POP JUMP JUMPDEST PUSH1 0x0 PUSH1 0x20 DUP3 ADD SWAP1 POP DUP2 DUP2 SUB PUSH1 0x0 DUP4 ADD MSTORE PUSH2 0x1BFD DUP2 PUSH2 0x1BC1 JUMP JUMPDEST SWAP1 POP SWAP2 SWAP1 POP JUMP JUMPDEST PUSH32 0x4E6F742061626C6520746F20756E6C6F636B2079657400000000000000000000 PUSH1 0x0 DUP3 ADD MSTORE POP JUMP JUMPDEST PUSH1 0x0 PUSH2 0x1C3A PUSH1 0x16 DUP4 PUSH2 0x16D8 JUMP JUMPDEST SWAP2 POP PUSH2 0x1C45 DUP3 PUSH2 0x1C04 JUMP JUMPDEST PUSH1 0x20 DUP3 ADD SWAP1 POP SWAP2 SWAP1 POP JUMP JUMPDEST PUSH1 0x0 PUSH1 0x20 DUP3 ADD SWAP1 POP DUP2 DUP2 SUB PUSH1 0x0 DUP4 ADD MSTORE PUSH2 0x1C69 DUP2 PUSH2 0x1C2D JUMP JUMPDEST SWAP1 POP SWAP2 SWAP1 POP JUMP JUMPDEST PUSH1 0x0 PUSH1 0x60 DUP3 ADD SWAP1 POP PUSH2 0x1C85 PUSH1 0x0 DUP4 ADD DUP7 PUSH2 0x1619 JUMP JUMPDEST PUSH2 0x1C92 PUSH1 0x20 DUP4 ADD DUP6 PUSH2 0x1619 JUMP JUMPDEST PUSH2 0x1C9F PUSH1 0x40 DUP4 ADD DUP5 PUSH2 0x1491 JUMP JUMPDEST SWAP5 SWAP4 POP POP POP POP JUMP JUMPDEST PUSH1 0x0 PUSH1 0x20 DUP3 ADD SWAP1 POP DUP2 DUP2 SUB PUSH1 0x0 DUP4 ADD MSTORE PUSH2 0x1CC2 DUP2 DUP5 DUP7 PUSH2 0x1A9E JUMP JUMPDEST SWAP1 POP SWAP4 SWAP3 POP POP POP JUMP JUMPDEST PUSH32 0x4F776E61626C653A206E6577206F776E657220697320746865207A65726F2061 PUSH1 0x0 DUP3 ADD MSTORE PUSH32 0x6464726573730000000000000000000000000000000000000000000000000000 PUSH1 0x20 DUP3 ADD MSTORE POP JUMP JUMPDEST PUSH1 0x0 PUSH2 0x1D27 PUSH1 0x26 DUP4 PUSH2 0x16D8 JUMP JUMPDEST SWAP2 POP PUSH2 0x1D32 DUP3 PUSH2 0x1CCB JUMP JUMPDEST PUSH1 0x40 DUP3 ADD SWAP1 POP SWAP2 SWAP1 POP JUMP JUMPDEST PUSH1 0x0 PUSH1 0x20 DUP3 ADD SWAP1 POP DUP2 DUP2 SUB PUSH1 0x0 DUP4 ADD MSTORE PUSH2 0x1D56 DUP2 PUSH2 0x1D1A JUMP JUMPDEST SWAP1 POP SWAP2 SWAP1 POP JUMP JUMPDEST PUSH1 0x0 DUP2 MLOAD SWAP1 POP PUSH2 0x1D6C DUP2 PUSH2 0x167F JUMP JUMPDEST SWAP3 SWAP2 POP POP JUMP JUMPDEST PUSH1 0x0 PUSH1 0x20 DUP3 DUP5 SUB SLT ISZERO PUSH2 0x1D88 JUMPI PUSH2 0x1D87 PUSH2 0x1424 JUMP JUMPDEST JUMPDEST PUSH1 0x0 PUSH2 0x1D96 DUP5 DUP3 DUP6 ADD PUSH2 0x1D5D JUMP JUMPDEST SWAP2 POP POP SWAP3 SWAP2 POP POP JUMP JUMPDEST PUSH32 0x596F7520646F6E277420686F6C64207468697320746F6B656E00000000000000 PUSH1 0x0 DUP3 ADD MSTORE POP JUMP JUMPDEST PUSH1 0x0 PUSH2 0x1DD5 PUSH1 0x19 DUP4 PUSH2 0x16D8 JUMP JUMPDEST SWAP2 POP PUSH2 0x1DE0 DUP3 PUSH2 0x1D9F JUMP JUMPDEST PUSH1 0x20 DUP3 ADD SWAP1 POP SWAP2 SWAP1 POP JUMP JUMPDEST PUSH1 0x0 PUSH1 0x20 DUP3 ADD SWAP1 POP DUP2 DUP2 SUB PUSH1 0x0 DUP4 ADD MSTORE PUSH2 0x1E04 DUP2 PUSH2 0x1DC8 JUMP JUMPDEST SWAP1 POP SWAP2 SWAP1 POP JUMP JUMPDEST PUSH1 0x0 PUSH2 0x1E16 DUP3 PUSH2 0x142E JUMP JUMPDEST SWAP2 POP PUSH2 0x1E21 DUP4 PUSH2 0x142E JUMP JUMPDEST SWAP3 POP DUP2 PUSH32 0xFFFFFFFFFFFFFFFFFFFFFFFFFFFFFFFFFFFFFFFFFFFFFFFFFFFFFFFFFFFFFFFF DIV DUP4 GT DUP3 ISZERO ISZERO AND ISZERO PUSH2 0x1E5A JUMPI PUSH2 0x1E59 PUSH2 0x18C8 JUMP JUMPDEST JUMPDEST DUP3 DUP3 MUL SWAP1 POP SWAP3 SWAP2 POP POP JUMP JUMPDEST PUSH32 0x4E487B7100000000000000000000000000000000000000000000000000000000 PUSH1 0x0 MSTORE PUSH1 0x12 PUSH1 0x4 MSTORE PUSH1 0x24 PUSH1 0x0 REVERT JUMPDEST PUSH1 0x0 PUSH2 0x1E9F DUP3 PUSH2 0x142E JUMP JUMPDEST SWAP2 POP PUSH2 0x1EAA DUP4 PUSH2 0x142E JUMP JUMPDEST SWAP3 POP DUP3 PUSH2 0x1EBA JUMPI PUSH2 0x1EB9 PUSH2 0x1E65 JUMP JUMPDEST JUMPDEST DUP3 DUP3 DIV SWAP1 POP SWAP3 SWAP2 POP POP JUMP JUMPDEST PUSH32 0x4F776E61626C653A2063616C6C6572206973206E6F7420746865206F776E6572 PUSH1 0x0 DUP3 ADD MSTORE POP JUMP JUMPDEST PUSH1 0x0 PUSH2 0x1EFB PUSH1 0x20 DUP4 PUSH2 0x16D8 JUMP JUMPDEST SWAP2 POP PUSH2 0x1F06 DUP3 PUSH2 0x1EC5 JUMP JUMPDEST PUSH1 0x20 DUP3 ADD SWAP1 POP SWAP2 SWAP1 POP JUMP JUMPDEST PUSH1 0x0 PUSH1 0x20 DUP3 ADD SWAP1 POP DUP2 DUP2 SUB PUSH1 0x0 DUP4 ADD MSTORE PUSH2 0x1F2A DUP2 PUSH2 0x1EEE JUMP JUMPDEST SWAP1 POP SWAP2 SWAP1 POP JUMP INVALID LOG2 PUSH5 0x6970667358 0x22 SLT KECCAK256 0xB5 SWAP7 0xDD 0xCE PUSH8 0x20D6DCE00AD42D21 DUP9 SLOAD STATICCALL DUP9 SWAP3 0xC4 0xDE PUSH23 0x2EBCF32DDCA5EF6DCB244064736F6C6343000810003300 "
				},
				"gasEstimates": {
					"creation": {
						"codeDepositCost": "1607800",
						"executionCost": "infinite",
						"totalCost": "infinite"
					},
					"external": {
						"WAVE()": "2451",
						"claimRewards(uint256[])": "infinite",
						"claimedRewards(uint256)": "infinite",
						"lockNFT(uint256[])": "infinite",
						"lockPeriod()": "2474",
						"owner()": "2567",
						"renounceOwnership()": "30487",
						"rewardsPerWave()": "2473",
						"rewardsToken(uint256)": "infinite",
						"setLockPeriod(uint256)": "infinite",
						"stakeNFT()": "infinite",
						"transferOwnership(address)": "30810",
						"unlockNFT(uint256[])": "infinite"
					},
					"internal": {
						"_rewardAmount(uint256)": "infinite"
					}
				},
				"methodIdentifiers": {
					"WAVE()": "c69d1923",
					"claimRewards(uint256[])": "5eac6239",
					"claimedRewards(uint256)": "20281a98",
					"lockNFT(uint256[])": "ff5d8450",
					"lockPeriod()": "3fd8b02f",
					"owner()": "8da5cb5b",
					"renounceOwnership()": "715018a6",
					"rewardsPerWave()": "cb12f660",
					"rewardsToken(uint256)": "30d10275",
					"setLockPeriod(uint256)": "779972da",
					"stakeNFT()": "b48509e6",
					"transferOwnership(address)": "f2fde38b",
					"unlockNFT(uint256[])": "849a1e1d"
				}
			},
			"storageLayout": {
				"storage": [
					{
						"astId": 7,
						"contract": "contracts/Staking.sol:NFTStaking1",
						"label": "_owner",
						"offset": 0,
						"slot": "0",
						"type": "t_address"
					},
					{
						"astId": 123,
						"contract": "contracts/Staking.sol:NFTStaking1",
						"label": "_status",
						"offset": 0,
						"slot": "1",
						"type": "t_uint256"
					},
					{
						"astId": 616,
						"contract": "contracts/Staking.sol:NFTStaking1",
						"label": "rewardsToken",
						"offset": 0,
						"slot": "2",
						"type": "t_array(t_contract(IRewardsToken)1172)dyn_storage"
					},
					{
						"astId": 621,
						"contract": "contracts/Staking.sol:NFTStaking1",
						"label": "lockPeriod",
						"offset": 0,
						"slot": "3",
						"type": "t_uint256"
					},
					{
						"astId": 635,
						"contract": "contracts/Staking.sol:NFTStaking1",
						"label": "lockInfo",
						"offset": 0,
						"slot": "4",
						"type": "t_mapping(t_uint256,t_struct(LockInfo)630_storage)"
					},
					{
						"astId": 638,
						"contract": "contracts/Staking.sol:NFTStaking1",
						"label": "WAVE",
						"offset": 0,
						"slot": "5",
						"type": "t_uint256"
					},
					{
						"astId": 640,
						"contract": "contracts/Staking.sol:NFTStaking1",
						"label": "rewardsPerWave",
						"offset": 0,
						"slot": "6",
						"type": "t_uint256"
					}
				],
				"types": {
					"t_address": {
						"encoding": "inplace",
						"label": "address",
						"numberOfBytes": "20"
					},
					"t_array(t_contract(IRewardsToken)1172)dyn_storage": {
						"base": "t_contract(IRewardsToken)1172",
						"encoding": "dynamic_array",
						"label": "contract IRewardsToken[]",
						"numberOfBytes": "32"
					},
					"t_bool": {
						"encoding": "inplace",
						"label": "bool",
						"numberOfBytes": "1"
					},
					"t_contract(IRewardsToken)1172": {
						"encoding": "inplace",
						"label": "contract IRewardsToken",
						"numberOfBytes": "20"
					},
					"t_mapping(t_uint256,t_struct(LockInfo)630_storage)": {
						"encoding": "mapping",
						"key": "t_uint256",
						"label": "mapping(uint256 => struct NFTStaking1.LockInfo)",
						"numberOfBytes": "32",
						"value": "t_struct(LockInfo)630_storage"
					},
					"t_struct(LockInfo)630_storage": {
						"encoding": "inplace",
						"label": "struct NFTStaking1.LockInfo",
						"members": [
							{
								"astId": 623,
								"contract": "contracts/Staking.sol:NFTStaking1",
								"label": "owner",
								"offset": 0,
								"slot": "0",
								"type": "t_address"
							},
							{
								"astId": 625,
								"contract": "contracts/Staking.sol:NFTStaking1",
								"label": "lockedTime",
								"offset": 0,
								"slot": "1",
								"type": "t_uint256"
							},
							{
								"astId": 627,
								"contract": "contracts/Staking.sol:NFTStaking1",
								"label": "claimedRewards",
								"offset": 0,
								"slot": "2",
								"type": "t_uint256"
							},
							{
								"astId": 629,
								"contract": "contracts/Staking.sol:NFTStaking1",
								"label": "isUnlocked",
								"offset": 0,
								"slot": "3",
								"type": "t_bool"
							}
						],
						"numberOfBytes": "128"
					},
					"t_uint256": {
						"encoding": "inplace",
						"label": "uint256",
						"numberOfBytes": "32"
					}
				}
			},
			"userdoc": {
				"kind": "user",
				"methods": {
					"WAVE()": {
						"notice": "CONSTANTS "
					}
				},
				"version": 1
			}
		}
	}
}