{
	"contracts/Staking.sol": {
		"NFTStaking1": {
			"abi": [
				{
					"inputs": [
						{
							"internalType": "address[]",
							"name": "_stakeNFT",
							"type": "address[]"
						},
						{
							"internalType": "address[]",
							"name": "_rewardsToken",
							"type": "address[]"
						},
						{
							"internalType": "uint256",
							"name": "_lockPeriod",
							"type": "uint256"
						},
						{
							"internalType": "uint256[]",
							"name": "_rewardPerWave",
							"type": "uint256[]"
						},
						{
							"internalType": "uint256[]",
							"name": "_rewardPercentage",
							"type": "uint256[]"
						},
						{
							"internalType": "uint256",
							"name": "_wave",
							"type": "uint256"
						}
					],
					"stateMutability": "nonpayable",
					"type": "constructor"
				},
				{
					"anonymous": false,
					"inputs": [
						{
							"indexed": false,
							"internalType": "uint256",
							"name": "lockPeriod",
							"type": "uint256"
						}
					],
					"name": "LockPeriodUpdated",
					"type": "event"
				},
				{
					"anonymous": false,
					"inputs": [
						{
							"indexed": true,
							"internalType": "address",
							"name": "owner",
							"type": "address"
						},
						{
							"indexed": false,
							"internalType": "uint256[]",
							"name": "tokenIds",
							"type": "uint256[]"
						}
					],
					"name": "NFTLocked",
					"type": "event"
				},
				{
					"anonymous": false,
					"inputs": [
						{
							"indexed": true,
							"internalType": "address",
							"name": "owner",
							"type": "address"
						},
						{
							"indexed": false,
							"internalType": "uint256[]",
							"name": "tokenIds",
							"type": "uint256[]"
						}
					],
					"name": "NFTUnLocked",
					"type": "event"
				},
				{
					"anonymous": false,
					"inputs": [
						{
							"indexed": true,
							"internalType": "address",
							"name": "previousOwner",
							"type": "address"
						},
						{
							"indexed": true,
							"internalType": "address",
							"name": "newOwner",
							"type": "address"
						}
					],
					"name": "OwnershipTransferred",
					"type": "event"
				},
				{
					"anonymous": false,
					"inputs": [
						{
							"indexed": true,
							"internalType": "address",
							"name": "owner",
							"type": "address"
						},
						{
							"indexed": false,
							"internalType": "uint256[]",
							"name": "tokenIds",
							"type": "uint256[]"
						},
						{
							"indexed": false,
							"internalType": "uint256",
							"name": "rewards",
							"type": "uint256"
						}
					],
					"name": "RewardsClaimed",
					"type": "event"
				},
				{
					"inputs": [],
					"name": "WAVE",
					"outputs": [
						{
							"internalType": "uint256",
							"name": "",
							"type": "uint256"
						}
					],
					"stateMutability": "view",
					"type": "function"
				},
				{
					"inputs": [
						{
							"internalType": "uint256[]",
							"name": "_tokenIds",
							"type": "uint256[]"
						},
						{
							"internalType": "contract IERC721",
							"name": "nftAddress",
							"type": "address"
						}
					],
					"name": "claimRewards",
					"outputs": [],
					"stateMutability": "nonpayable",
					"type": "function"
				},
				{
					"inputs": [
						{
							"internalType": "uint256",
							"name": "_tokenId",
							"type": "uint256"
						},
						{
							"internalType": "contract IERC721",
							"name": "nftAddress",
							"type": "address"
						}
					],
					"name": "claimedRewards",
					"outputs": [
						{
							"internalType": "uint256",
							"name": "",
							"type": "uint256"
						}
					],
					"stateMutability": "view",
					"type": "function"
				},
				{
					"inputs": [
						{
							"internalType": "contract IERC721",
							"name": "",
							"type": "address"
						},
						{
							"internalType": "uint256",
							"name": "",
							"type": "uint256"
						}
					],
					"name": "lockInfo",
					"outputs": [
						{
							"internalType": "address",
							"name": "owner",
							"type": "address"
						},
						{
							"internalType": "uint256",
							"name": "lockedTime",
							"type": "uint256"
						},
						{
							"internalType": "uint256",
							"name": "claimedRewards",
							"type": "uint256"
						},
						{
							"internalType": "bool",
							"name": "isUnlocked",
							"type": "bool"
						},
						{
							"internalType": "contract IERC721",
							"name": "contractAddress",
							"type": "address"
						}
					],
					"stateMutability": "view",
					"type": "function"
				},
				{
					"inputs": [
						{
							"internalType": "uint256[]",
							"name": "_tokenIds",
							"type": "uint256[]"
						},
						{
							"internalType": "contract IERC721",
							"name": "nftAddress",
							"type": "address"
						}
					],
					"name": "lockNFT",
					"outputs": [],
					"stateMutability": "nonpayable",
					"type": "function"
				},
				{
					"inputs": [],
					"name": "lockPeriod",
					"outputs": [
						{
							"internalType": "uint256",
							"name": "",
							"type": "uint256"
						}
					],
					"stateMutability": "view",
					"type": "function"
				},
				{
					"inputs": [
						{
							"internalType": "contract IERC721",
							"name": "",
							"type": "address"
						}
					],
					"name": "nftInfo",
					"outputs": [
						{
							"internalType": "contract IRewardsToken",
							"name": "rewardsToken",
							"type": "address"
						},
						{
							"internalType": "uint256",
							"name": "rewardsPerWave",
							"type": "uint256"
						},
						{
							"internalType": "uint256",
							"name": "rewardPercentage",
							"type": "uint256"
						}
					],
					"stateMutability": "view",
					"type": "function"
				},
				{
					"inputs": [],
					"name": "owner",
					"outputs": [
						{
							"internalType": "address",
							"name": "",
							"type": "address"
						}
					],
					"stateMutability": "view",
					"type": "function"
				},
				{
					"inputs": [],
					"name": "renounceOwnership",
					"outputs": [],
					"stateMutability": "nonpayable",
					"type": "function"
				},
				{
					"inputs": [
						{
							"internalType": "uint256",
							"name": "_lockPeriod",
							"type": "uint256"
						}
					],
					"name": "setLockPeriod",
					"outputs": [],
					"stateMutability": "nonpayable",
					"type": "function"
				},
				{
					"inputs": [
						{
							"internalType": "address[]",
							"name": "_stakeNFT",
							"type": "address[]"
						},
						{
							"internalType": "address[]",
							"name": "_rewardsToken",
							"type": "address[]"
						},
						{
							"internalType": "uint256",
							"name": "_lockPeriod",
							"type": "uint256"
						},
						{
							"internalType": "uint256[]",
							"name": "_rewardPerWave",
							"type": "uint256[]"
						},
						{
							"internalType": "uint256[]",
							"name": "_rewardPercentage",
							"type": "uint256[]"
						},
						{
							"internalType": "uint256",
							"name": "_wave",
							"type": "uint256"
						}
					],
					"name": "setLockPeriod",
					"outputs": [],
					"stateMutability": "nonpayable",
					"type": "function"
				},
				{
					"inputs": [
						{
							"internalType": "address",
							"name": "newOwner",
							"type": "address"
						}
					],
					"name": "transferOwnership",
					"outputs": [],
					"stateMutability": "nonpayable",
					"type": "function"
				},
				{
					"inputs": [
						{
							"internalType": "uint256[]",
							"name": "_tokenIds",
							"type": "uint256[]"
						},
						{
							"internalType": "contract IERC721",
							"name": "nftAddress",
							"type": "address"
						}
					],
					"name": "unlockNFT",
					"outputs": [],
					"stateMutability": "nonpayable",
					"type": "function"
				}
			],
			"devdoc": {
				"kind": "dev",
				"methods": {
					"claimRewards(uint256[],address)": {
						"details": "claim rewards",
						"params": {
							"_tokenIds": "token ids to unlock"
						}
					},
					"claimedRewards(uint256,address)": {
						"details": "get total claimed rewards for token id",
						"params": {
							"_tokenId": "token id to get claimed Rewards amount"
						}
					},
					"lockNFT(uint256[],address)": {
						"details": "lock NFT into the contract",
						"params": {
							"_tokenIds": "token ids to stake"
						}
					},
					"owner()": {
						"details": "Returns the address of the current owner."
					},
					"renounceOwnership()": {
						"details": "Leaves the contract without owner. It will not be possible to call `onlyOwner` functions anymore. Can only be called by the current owner. NOTE: Renouncing ownership will leave the contract without an owner, thereby removing any functionality that is only available to the owner."
					},
					"setLockPeriod(uint256)": {
						"details": "update lock period",
						"params": {
							"_lockPeriod": "lock period to set"
						}
					},
					"transferOwnership(address)": {
						"details": "Transfers ownership of the contract to a new account (`newOwner`). Can only be called by the current owner."
					},
					"unlockNFT(uint256[],address)": {
						"details": "unlock NFT from the contract",
						"params": {
							"_tokenIds": "token ids to unlock"
						}
					}
				},
				"version": 1
			},
			"evm": {
				"assembly": "    /* \"contracts/Staking.sol\":412:7964  contract NFTStaking1 is Ownable, ReentrancyGuard {... */\n  mstore(0x40, 0x80)\n    /* \"contracts/Staking.sol\":1581:2503  constructor(... */\n  callvalue\n  dup1\n  iszero\n  tag_1\n  jumpi\n  0x00\n  dup1\n  revert\ntag_1:\n  pop\n  mload(0x40)\n  sub(codesize, bytecodeSize)\n  dup1\n  bytecodeSize\n  dup4\n  codecopy\n  dup2\n  dup2\n  add\n  0x40\n  mstore\n  dup2\n  add\n  swap1\n  tag_2\n  swap2\n  swap1\n  tag_3\n  jump\t// in\ntag_2:\n    /* \"@openzeppelin/contracts/access/Ownable.sol\":936:968  _transferOwnership(_msgSender()) */\n  tag_8\n    /* \"@openzeppelin/contracts/access/Ownable.sol\":955:967  _msgSender() */\n  tag_9\n    /* \"@openzeppelin/contracts/access/Ownable.sol\":955:965  _msgSender */\n  shl(0x20, tag_10)\n    /* \"@openzeppelin/contracts/access/Ownable.sol\":955:967  _msgSender() */\n  0x20\n  shr\n  jump\t// in\ntag_9:\n    /* \"@openzeppelin/contracts/access/Ownable.sol\":936:954  _transferOwnership */\n  shl(0x20, tag_11)\n    /* \"@openzeppelin/contracts/access/Ownable.sol\":936:968  _transferOwnership(_msgSender()) */\n  0x20\n  shr\n  jump\t// in\ntag_8:\n    /* \"@openzeppelin/contracts/security/ReentrancyGuard.sol\":1701:1702  1 */\n  0x01\n    /* \"@openzeppelin/contracts/security/ReentrancyGuard.sol\":1806:1813  _status */\n  dup1\n    /* \"@openzeppelin/contracts/security/ReentrancyGuard.sol\":1806:1828  _status = _NOT_ENTERED */\n  dup2\n  swap1\n  sstore\n  pop\n    /* \"contracts/Staking.sol\":2087:2088  0 */\n  0x00\n    /* \"contracts/Staking.sol\":2073:2084  _lockPeriod */\n  dup5\n    /* \"contracts/Staking.sol\":2073:2088  _lockPeriod > 0 */\n  gt\n    /* \"contracts/Staking.sol\":2065:2112  require(_lockPeriod > 0, \"Invalid lock period\") */\n  tag_14\n  jumpi\n  mload(0x40)\n  0x08c379a000000000000000000000000000000000000000000000000000000000\n  dup2\n  mstore\n  0x04\n  add\n  tag_15\n  swap1\n  tag_16\n  jump\t// in\ntag_15:\n  mload(0x40)\n  dup1\n  swap2\n  sub\n  swap1\n  revert\ntag_14:\n    /* \"contracts/Staking.sol\":2130:2136  uint i */\n  0x00\n    /* \"contracts/Staking.sol\":2125:2436  for (uint i = 0; i < _stakeNFT.length; i++) {... */\ntag_17:\n    /* \"contracts/Staking.sol\":2146:2155  _stakeNFT */\n  dup7\n    /* \"contracts/Staking.sol\":2146:2162  _stakeNFT.length */\n  mload\n    /* \"contracts/Staking.sol\":2142:2143  i */\n  dup2\n    /* \"contracts/Staking.sol\":2142:2162  i < _stakeNFT.length */\n  lt\n    /* \"contracts/Staking.sol\":2125:2436  for (uint i = 0; i < _stakeNFT.length; i++) {... */\n  iszero\n  tag_18\n  jumpi\n    /* \"contracts/Staking.sol\":2246:2259  _rewardsToken */\n  dup6\n    /* \"contracts/Staking.sol\":2260:2261  i */\n  dup2\n    /* \"contracts/Staking.sol\":2246:2262  _rewardsToken[i] */\n  dup2\n  mload\n  dup2\n  lt\n  tag_20\n  jumpi\n  tag_21\n  tag_22\n  jump\t// in\ntag_21:\ntag_20:\n  0x20\n  mul\n  0x20\n  add\n  add\n  mload\n    /* \"contracts/Staking.sol\":2186:2193  nftInfo */\n  0x04\n    /* \"contracts/Staking.sol\":2186:2216  nftInfo[IERC721(_stakeNFT[i])] */\n  0x00\n    /* \"contracts/Staking.sol\":2202:2211  _stakeNFT */\n  dup10\n    /* \"contracts/Staking.sol\":2212:2213  i */\n  dup5\n    /* \"contracts/Staking.sol\":2202:2214  _stakeNFT[i] */\n  dup2\n  mload\n  dup2\n  lt\n  tag_23\n  jumpi\n  tag_24\n  tag_22\n  jump\t// in\ntag_24:\ntag_23:\n  0x20\n  mul\n  0x20\n  add\n  add\n  mload\n    /* \"contracts/Staking.sol\":2186:2216  nftInfo[IERC721(_stakeNFT[i])] */\n  0xffffffffffffffffffffffffffffffffffffffff\n  and\n  0xffffffffffffffffffffffffffffffffffffffff\n  and\n  dup2\n  mstore\n  0x20\n  add\n  swap1\n  dup2\n  mstore\n  0x20\n  add\n  0x00\n  keccak256\n    /* \"contracts/Staking.sol\":2186:2229  nftInfo[IERC721(_stakeNFT[i])].rewardsToken */\n  0x00\n  add\n  0x00\n    /* \"contracts/Staking.sol\":2186:2263  nftInfo[IERC721(_stakeNFT[i])].rewardsToken = IRewardsToken(_rewardsToken[i]) */\n  0x0100\n  exp\n  dup2\n  sload\n  dup2\n  0xffffffffffffffffffffffffffffffffffffffff\n  mul\n  not\n  and\n  swap1\n  dup4\n  0xffffffffffffffffffffffffffffffffffffffff\n  and\n  mul\n  or\n  swap1\n  sstore\n  pop\n    /* \"contracts/Staking.sol\":2326:2340  _rewardPerWave */\n  dup4\n    /* \"contracts/Staking.sol\":2341:2342  i */\n  dup2\n    /* \"contracts/Staking.sol\":2326:2343  _rewardPerWave[i] */\n  dup2\n  mload\n  dup2\n  lt\n  tag_25\n  jumpi\n  tag_26\n  tag_22\n  jump\t// in\ntag_26:\ntag_25:\n  0x20\n  mul\n  0x20\n  add\n  add\n  mload\n    /* \"contracts/Staking.sol\":2278:2285  nftInfo */\n  0x04\n    /* \"contracts/Staking.sol\":2278:2308  nftInfo[IERC721(_stakeNFT[i])] */\n  0x00\n    /* \"contracts/Staking.sol\":2294:2303  _stakeNFT */\n  dup10\n    /* \"contracts/Staking.sol\":2304:2305  i */\n  dup5\n    /* \"contracts/Staking.sol\":2294:2306  _stakeNFT[i] */\n  dup2\n  mload\n  dup2\n  lt\n  tag_27\n  jumpi\n  tag_28\n  tag_22\n  jump\t// in\ntag_28:\ntag_27:\n  0x20\n  mul\n  0x20\n  add\n  add\n  mload\n    /* \"contracts/Staking.sol\":2278:2308  nftInfo[IERC721(_stakeNFT[i])] */\n  0xffffffffffffffffffffffffffffffffffffffff\n  and\n  0xffffffffffffffffffffffffffffffffffffffff\n  and\n  dup2\n  mstore\n  0x20\n  add\n  swap1\n  dup2\n  mstore\n  0x20\n  add\n  0x00\n  keccak256\n    /* \"contracts/Staking.sol\":2278:2323  nftInfo[IERC721(_stakeNFT[i])].rewardsPerWave */\n  0x01\n  add\n    /* \"contracts/Staking.sol\":2278:2343  nftInfo[IERC721(_stakeNFT[i])].rewardsPerWave = _rewardPerWave[i] */\n  dup2\n  swap1\n  sstore\n  pop\n    /* \"contracts/Staking.sol\":2408:2425  _rewardPercentage */\n  dup3\n    /* \"contracts/Staking.sol\":2426:2427  i */\n  dup2\n    /* \"contracts/Staking.sol\":2408:2428  _rewardPercentage[i] */\n  dup2\n  mload\n  dup2\n  lt\n  tag_29\n  jumpi\n  tag_30\n  tag_22\n  jump\t// in\ntag_30:\ntag_29:\n  0x20\n  mul\n  0x20\n  add\n  add\n  mload\n    /* \"contracts/Staking.sol\":2358:2365  nftInfo */\n  0x04\n    /* \"contracts/Staking.sol\":2358:2388  nftInfo[IERC721(_stakeNFT[i])] */\n  0x00\n    /* \"contracts/Staking.sol\":2374:2383  _stakeNFT */\n  dup10\n    /* \"contracts/Staking.sol\":2384:2385  i */\n  dup5\n    /* \"contracts/Staking.sol\":2374:2386  _stakeNFT[i] */\n  dup2\n  mload\n  dup2\n  lt\n  tag_31\n  jumpi\n  tag_32\n  tag_22\n  jump\t// in\ntag_32:\ntag_31:\n  0x20\n  mul\n  0x20\n  add\n  add\n  mload\n    /* \"contracts/Staking.sol\":2358:2388  nftInfo[IERC721(_stakeNFT[i])] */\n  0xffffffffffffffffffffffffffffffffffffffff\n  and\n  0xffffffffffffffffffffffffffffffffffffffff\n  and\n  dup2\n  mstore\n  0x20\n  add\n  swap1\n  dup2\n  mstore\n  0x20\n  add\n  0x00\n  keccak256\n    /* \"contracts/Staking.sol\":2358:2405  nftInfo[IERC721(_stakeNFT[i])].rewardPercentage */\n  0x02\n  add\n    /* \"contracts/Staking.sol\":2358:2428  nftInfo[IERC721(_stakeNFT[i])].rewardPercentage = _rewardPercentage[i] */\n  dup2\n  swap1\n  sstore\n  pop\n    /* \"contracts/Staking.sol\":2164:2167  i++ */\n  dup1\n  dup1\n  tag_33\n  swap1\n  tag_34\n  jump\t// in\ntag_33:\n  swap2\n  pop\n  pop\n    /* \"contracts/Staking.sol\":2125:2436  for (uint i = 0; i < _stakeNFT.length; i++) {... */\n  jump(tag_17)\ntag_18:\n  pop\n    /* \"contracts/Staking.sol\":2461:2472  _lockPeriod */\n  dup4\n    /* \"contracts/Staking.sol\":2448:2458  lockPeriod */\n  0x02\n    /* \"contracts/Staking.sol\":2448:2472  lockPeriod = _lockPeriod */\n  dup2\n  swap1\n  sstore\n  pop\n    /* \"contracts/Staking.sol\":2490:2495  _wave */\n  dup1\n    /* \"contracts/Staking.sol\":2483:2487  WAVE */\n  0x05\n    /* \"contracts/Staking.sol\":2483:2495  WAVE = _wave */\n  dup2\n  swap1\n  sstore\n  pop\n    /* \"contracts/Staking.sol\":1581:2503  constructor(... */\n  pop\n  pop\n  pop\n  pop\n  pop\n  pop\n    /* \"contracts/Staking.sol\":412:7964  contract NFTStaking1 is Ownable, ReentrancyGuard {... */\n  jump(tag_35)\n    /* \"@openzeppelin/contracts/utils/Context.sol\":640:736  function _msgSender() internal view virtual returns (address) {... */\ntag_10:\n    /* \"@openzeppelin/contracts/utils/Context.sol\":693:700  address */\n  0x00\n    /* \"@openzeppelin/contracts/utils/Context.sol\":719:729  msg.sender */\n  caller\n    /* \"@openzeppelin/contracts/utils/Context.sol\":712:729  return msg.sender */\n  swap1\n  pop\n    /* \"@openzeppelin/contracts/utils/Context.sol\":640:736  function _msgSender() internal view virtual returns (address) {... */\n  swap1\n  jump\t// out\n    /* \"@openzeppelin/contracts/access/Ownable.sol\":2433:2620  function _transferOwnership(address newOwner) internal virtual {... */\ntag_11:\n    /* \"@openzeppelin/contracts/access/Ownable.sol\":2506:2522  address oldOwner */\n  0x00\n    /* \"@openzeppelin/contracts/access/Ownable.sol\":2525:2531  _owner */\n  dup1\n  0x00\n  swap1\n  sload\n  swap1\n  0x0100\n  exp\n  swap1\n  div\n  0xffffffffffffffffffffffffffffffffffffffff\n  and\n    /* \"@openzeppelin/contracts/access/Ownable.sol\":2506:2531  address oldOwner = _owner */\n  swap1\n  pop\n    /* \"@openzeppelin/contracts/access/Ownable.sol\":2550:2558  newOwner */\n  dup2\n    /* \"@openzeppelin/contracts/access/Ownable.sol\":2541:2547  _owner */\n  0x00\n  dup1\n    /* \"@openzeppelin/contracts/access/Ownable.sol\":2541:2558  _owner = newOwner */\n  0x0100\n  exp\n  dup2\n  sload\n  dup2\n  0xffffffffffffffffffffffffffffffffffffffff\n  mul\n  not\n  and\n  swap1\n  dup4\n  0xffffffffffffffffffffffffffffffffffffffff\n  and\n  mul\n  or\n  swap1\n  sstore\n  pop\n    /* \"@openzeppelin/contracts/access/Ownable.sol\":2604:2612  newOwner */\n  dup2\n    /* \"@openzeppelin/contracts/access/Ownable.sol\":2573:2613  OwnershipTransferred(oldOwner, newOwner) */\n  0xffffffffffffffffffffffffffffffffffffffff\n  and\n    /* \"@openzeppelin/contracts/access/Ownable.sol\":2594:2602  oldOwner */\n  dup2\n    /* \"@openzeppelin/contracts/access/Ownable.sol\":2573:2613  OwnershipTransferred(oldOwner, newOwner) */\n  0xffffffffffffffffffffffffffffffffffffffff\n  and\n  0x8be0079c531659141344cd1fd0a4f28419497f9722a3daafe3b4186f6b6457e0\n  mload(0x40)\n  mload(0x40)\n  dup1\n  swap2\n  sub\n  swap1\n  log3\n    /* \"@openzeppelin/contracts/access/Ownable.sol\":2496:2620  {... */\n  pop\n    /* \"@openzeppelin/contracts/access/Ownable.sol\":2433:2620  function _transferOwnership(address newOwner) internal virtual {... */\n  pop\n  jump\t// out\n    /* \"#utility.yul\":7:82   */\ntag_38:\n    /* \"#utility.yul\":40:46   */\n  0x00\n    /* \"#utility.yul\":73:75   */\n  0x40\n    /* \"#utility.yul\":67:76   */\n  mload\n    /* \"#utility.yul\":57:76   */\n  swap1\n  pop\n    /* \"#utility.yul\":7:82   */\n  swap1\n  jump\t// out\n    /* \"#utility.yul\":88:205   */\ntag_39:\n    /* \"#utility.yul\":197:198   */\n  0x00\n    /* \"#utility.yul\":194:195   */\n  dup1\n    /* \"#utility.yul\":187:199   */\n  revert\n    /* \"#utility.yul\":211:328   */\ntag_40:\n    /* \"#utility.yul\":320:321   */\n  0x00\n    /* \"#utility.yul\":317:318   */\n  dup1\n    /* \"#utility.yul\":310:322   */\n  revert\n    /* \"#utility.yul\":334:451   */\ntag_41:\n    /* \"#utility.yul\":443:444   */\n  0x00\n    /* \"#utility.yul\":440:441   */\n  dup1\n    /* \"#utility.yul\":433:445   */\n  revert\n    /* \"#utility.yul\":457:559   */\ntag_42:\n    /* \"#utility.yul\":498:504   */\n  0x00\n    /* \"#utility.yul\":549:551   */\n  0x1f\n    /* \"#utility.yul\":545:552   */\n  not\n    /* \"#utility.yul\":540:542   */\n  0x1f\n    /* \"#utility.yul\":533:538   */\n  dup4\n    /* \"#utility.yul\":529:543   */\n  add\n    /* \"#utility.yul\":525:553   */\n  and\n    /* \"#utility.yul\":515:553   */\n  swap1\n  pop\n    /* \"#utility.yul\":457:559   */\n  swap2\n  swap1\n  pop\n  jump\t// out\n    /* \"#utility.yul\":565:745   */\ntag_43:\n    /* \"#utility.yul\":613:690   */\n  0x4e487b7100000000000000000000000000000000000000000000000000000000\n    /* \"#utility.yul\":610:611   */\n  0x00\n    /* \"#utility.yul\":603:691   */\n  mstore\n    /* \"#utility.yul\":710:714   */\n  0x41\n    /* \"#utility.yul\":707:708   */\n  0x04\n    /* \"#utility.yul\":700:715   */\n  mstore\n    /* \"#utility.yul\":734:738   */\n  0x24\n    /* \"#utility.yul\":731:732   */\n  0x00\n    /* \"#utility.yul\":724:739   */\n  revert\n    /* \"#utility.yul\":751:1032   */\ntag_44:\n    /* \"#utility.yul\":834:861   */\n  tag_72\n    /* \"#utility.yul\":856:860   */\n  dup3\n    /* \"#utility.yul\":834:861   */\n  tag_42\n  jump\t// in\ntag_72:\n    /* \"#utility.yul\":826:832   */\n  dup2\n    /* \"#utility.yul\":822:862   */\n  add\n    /* \"#utility.yul\":964:970   */\n  dup2\n    /* \"#utility.yul\":952:962   */\n  dup2\n    /* \"#utility.yul\":949:971   */\n  lt\n    /* \"#utility.yul\":928:946   */\n  0xffffffffffffffff\n    /* \"#utility.yul\":916:926   */\n  dup3\n    /* \"#utility.yul\":913:947   */\n  gt\n    /* \"#utility.yul\":910:972   */\n  or\n    /* \"#utility.yul\":907:995   */\n  iszero\n  tag_73\n  jumpi\n    /* \"#utility.yul\":975:993   */\n  tag_74\n  tag_43\n  jump\t// in\ntag_74:\n    /* \"#utility.yul\":907:995   */\ntag_73:\n    /* \"#utility.yul\":1015:1025   */\n  dup1\n    /* \"#utility.yul\":1011:1013   */\n  0x40\n    /* \"#utility.yul\":1004:1026   */\n  mstore\n    /* \"#utility.yul\":794:1032   */\n  pop\n    /* \"#utility.yul\":751:1032   */\n  pop\n  pop\n  jump\t// out\n    /* \"#utility.yul\":1038:1167   */\ntag_45:\n    /* \"#utility.yul\":1072:1078   */\n  0x00\n    /* \"#utility.yul\":1099:1119   */\n  tag_76\n  tag_38\n  jump\t// in\ntag_76:\n    /* \"#utility.yul\":1089:1119   */\n  swap1\n  pop\n    /* \"#utility.yul\":1128:1161   */\n  tag_77\n    /* \"#utility.yul\":1156:1160   */\n  dup3\n    /* \"#utility.yul\":1148:1154   */\n  dup3\n    /* \"#utility.yul\":1128:1161   */\n  tag_44\n  jump\t// in\ntag_77:\n    /* \"#utility.yul\":1038:1167   */\n  swap2\n  swap1\n  pop\n  jump\t// out\n    /* \"#utility.yul\":1173:1484   */\ntag_46:\n    /* \"#utility.yul\":1250:1254   */\n  0x00\n    /* \"#utility.yul\":1340:1358   */\n  0xffffffffffffffff\n    /* \"#utility.yul\":1332:1338   */\n  dup3\n    /* \"#utility.yul\":1329:1359   */\n  gt\n    /* \"#utility.yul\":1326:1382   */\n  iszero\n  tag_79\n  jumpi\n    /* \"#utility.yul\":1362:1380   */\n  tag_80\n  tag_43\n  jump\t// in\ntag_80:\n    /* \"#utility.yul\":1326:1382   */\ntag_79:\n    /* \"#utility.yul\":1412:1416   */\n  0x20\n    /* \"#utility.yul\":1404:1410   */\n  dup3\n    /* \"#utility.yul\":1400:1417   */\n  mul\n    /* \"#utility.yul\":1392:1417   */\n  swap1\n  pop\n    /* \"#utility.yul\":1472:1476   */\n  0x20\n    /* \"#utility.yul\":1466:1470   */\n  dup2\n    /* \"#utility.yul\":1462:1477   */\n  add\n    /* \"#utility.yul\":1454:1477   */\n  swap1\n  pop\n    /* \"#utility.yul\":1173:1484   */\n  swap2\n  swap1\n  pop\n  jump\t// out\n    /* \"#utility.yul\":1490:1607   */\ntag_47:\n    /* \"#utility.yul\":1599:1600   */\n  0x00\n    /* \"#utility.yul\":1596:1597   */\n  dup1\n    /* \"#utility.yul\":1589:1601   */\n  revert\n    /* \"#utility.yul\":1613:1739   */\ntag_48:\n    /* \"#utility.yul\":1650:1657   */\n  0x00\n    /* \"#utility.yul\":1690:1732   */\n  0xffffffffffffffffffffffffffffffffffffffff\n    /* \"#utility.yul\":1683:1688   */\n  dup3\n    /* \"#utility.yul\":1679:1733   */\n  and\n    /* \"#utility.yul\":1668:1733   */\n  swap1\n  pop\n    /* \"#utility.yul\":1613:1739   */\n  swap2\n  swap1\n  pop\n  jump\t// out\n    /* \"#utility.yul\":1745:1841   */\ntag_49:\n    /* \"#utility.yul\":1782:1789   */\n  0x00\n    /* \"#utility.yul\":1811:1835   */\n  tag_84\n    /* \"#utility.yul\":1829:1834   */\n  dup3\n    /* \"#utility.yul\":1811:1835   */\n  tag_48\n  jump\t// in\ntag_84:\n    /* \"#utility.yul\":1800:1835   */\n  swap1\n  pop\n    /* \"#utility.yul\":1745:1841   */\n  swap2\n  swap1\n  pop\n  jump\t// out\n    /* \"#utility.yul\":1847:1969   */\ntag_50:\n    /* \"#utility.yul\":1920:1944   */\n  tag_86\n    /* \"#utility.yul\":1938:1943   */\n  dup2\n    /* \"#utility.yul\":1920:1944   */\n  tag_49\n  jump\t// in\ntag_86:\n    /* \"#utility.yul\":1913:1918   */\n  dup2\n    /* \"#utility.yul\":1910:1945   */\n  eq\n    /* \"#utility.yul\":1900:1963   */\n  tag_87\n  jumpi\n    /* \"#utility.yul\":1959:1960   */\n  0x00\n    /* \"#utility.yul\":1956:1957   */\n  dup1\n    /* \"#utility.yul\":1949:1961   */\n  revert\n    /* \"#utility.yul\":1900:1963   */\ntag_87:\n    /* \"#utility.yul\":1847:1969   */\n  pop\n  jump\t// out\n    /* \"#utility.yul\":1975:2118   */\ntag_51:\n    /* \"#utility.yul\":2032:2037   */\n  0x00\n    /* \"#utility.yul\":2063:2069   */\n  dup2\n    /* \"#utility.yul\":2057:2070   */\n  mload\n    /* \"#utility.yul\":2048:2070   */\n  swap1\n  pop\n    /* \"#utility.yul\":2079:2112   */\n  tag_89\n    /* \"#utility.yul\":2106:2111   */\n  dup2\n    /* \"#utility.yul\":2079:2112   */\n  tag_50\n  jump\t// in\ntag_89:\n    /* \"#utility.yul\":1975:2118   */\n  swap3\n  swap2\n  pop\n  pop\n  jump\t// out\n    /* \"#utility.yul\":2141:2873   */\ntag_52:\n    /* \"#utility.yul\":2248:2253   */\n  0x00\n    /* \"#utility.yul\":2273:2354   */\n  tag_91\n    /* \"#utility.yul\":2289:2353   */\n  tag_92\n    /* \"#utility.yul\":2346:2352   */\n  dup5\n    /* \"#utility.yul\":2289:2353   */\n  tag_46\n  jump\t// in\ntag_92:\n    /* \"#utility.yul\":2273:2354   */\n  tag_45\n  jump\t// in\ntag_91:\n    /* \"#utility.yul\":2264:2354   */\n  swap1\n  pop\n    /* \"#utility.yul\":2374:2379   */\n  dup1\n    /* \"#utility.yul\":2403:2409   */\n  dup4\n    /* \"#utility.yul\":2396:2401   */\n  dup3\n    /* \"#utility.yul\":2389:2410   */\n  mstore\n    /* \"#utility.yul\":2437:2441   */\n  0x20\n    /* \"#utility.yul\":2430:2435   */\n  dup3\n    /* \"#utility.yul\":2426:2442   */\n  add\n    /* \"#utility.yul\":2419:2442   */\n  swap1\n  pop\n    /* \"#utility.yul\":2490:2494   */\n  0x20\n    /* \"#utility.yul\":2482:2488   */\n  dup5\n    /* \"#utility.yul\":2478:2495   */\n  mul\n    /* \"#utility.yul\":2470:2476   */\n  dup4\n    /* \"#utility.yul\":2466:2496   */\n  add\n    /* \"#utility.yul\":2519:2522   */\n  dup6\n    /* \"#utility.yul\":2511:2517   */\n  dup2\n    /* \"#utility.yul\":2508:2523   */\n  gt\n    /* \"#utility.yul\":2505:2627   */\n  iszero\n  tag_93\n  jumpi\n    /* \"#utility.yul\":2538:2617   */\n  tag_94\n  tag_47\n  jump\t// in\ntag_94:\n    /* \"#utility.yul\":2505:2627   */\ntag_93:\n    /* \"#utility.yul\":2653:2659   */\n  dup4\n    /* \"#utility.yul\":2636:2867   */\ntag_95:\n    /* \"#utility.yul\":2670:2676   */\n  dup2\n    /* \"#utility.yul\":2665:2668   */\n  dup2\n    /* \"#utility.yul\":2662:2677   */\n  lt\n    /* \"#utility.yul\":2636:2867   */\n  iszero\n  tag_97\n  jumpi\n    /* \"#utility.yul\":2745:2748   */\n  dup1\n    /* \"#utility.yul\":2774:2822   */\n  tag_98\n    /* \"#utility.yul\":2818:2821   */\n  dup9\n    /* \"#utility.yul\":2806:2816   */\n  dup3\n    /* \"#utility.yul\":2774:2822   */\n  tag_51\n  jump\t// in\ntag_98:\n    /* \"#utility.yul\":2769:2772   */\n  dup5\n    /* \"#utility.yul\":2762:2823   */\n  mstore\n    /* \"#utility.yul\":2852:2856   */\n  0x20\n    /* \"#utility.yul\":2847:2850   */\n  dup5\n    /* \"#utility.yul\":2843:2857   */\n  add\n    /* \"#utility.yul\":2836:2857   */\n  swap4\n  pop\n    /* \"#utility.yul\":2712:2867   */\n  pop\n    /* \"#utility.yul\":2696:2700   */\n  0x20\n    /* \"#utility.yul\":2691:2694   */\n  dup2\n    /* \"#utility.yul\":2687:2701   */\n  add\n    /* \"#utility.yul\":2680:2701   */\n  swap1\n  pop\n    /* \"#utility.yul\":2636:2867   */\n  jump(tag_95)\ntag_97:\n    /* \"#utility.yul\":2640:2661   */\n  pop\n    /* \"#utility.yul\":2254:2873   */\n  pop\n  pop\n    /* \"#utility.yul\":2141:2873   */\n  swap4\n  swap3\n  pop\n  pop\n  pop\n  jump\t// out\n    /* \"#utility.yul\":2896:3281   */\ntag_53:\n    /* \"#utility.yul\":2978:2983   */\n  0x00\n    /* \"#utility.yul\":3027:3030   */\n  dup3\n    /* \"#utility.yul\":3020:3024   */\n  0x1f\n    /* \"#utility.yul\":3012:3018   */\n  dup4\n    /* \"#utility.yul\":3008:3025   */\n  add\n    /* \"#utility.yul\":3004:3031   */\n  slt\n    /* \"#utility.yul\":2994:3116   */\n  tag_100\n  jumpi\n    /* \"#utility.yul\":3035:3114   */\n  tag_101\n  tag_41\n  jump\t// in\ntag_101:\n    /* \"#utility.yul\":2994:3116   */\ntag_100:\n    /* \"#utility.yul\":3145:3151   */\n  dup2\n    /* \"#utility.yul\":3139:3152   */\n  mload\n    /* \"#utility.yul\":3170:3275   */\n  tag_102\n    /* \"#utility.yul\":3271:3274   */\n  dup5\n    /* \"#utility.yul\":3263:3269   */\n  dup3\n    /* \"#utility.yul\":3256:3260   */\n  0x20\n    /* \"#utility.yul\":3248:3254   */\n  dup7\n    /* \"#utility.yul\":3244:3261   */\n  add\n    /* \"#utility.yul\":3170:3275   */\n  tag_52\n  jump\t// in\ntag_102:\n    /* \"#utility.yul\":3161:3275   */\n  swap2\n  pop\n    /* \"#utility.yul\":2984:3281   */\n  pop\n    /* \"#utility.yul\":2896:3281   */\n  swap3\n  swap2\n  pop\n  pop\n  jump\t// out\n    /* \"#utility.yul\":3287:3364   */\ntag_54:\n    /* \"#utility.yul\":3324:3331   */\n  0x00\n    /* \"#utility.yul\":3353:3358   */\n  dup2\n    /* \"#utility.yul\":3342:3358   */\n  swap1\n  pop\n    /* \"#utility.yul\":3287:3364   */\n  swap2\n  swap1\n  pop\n  jump\t// out\n    /* \"#utility.yul\":3370:3492   */\ntag_55:\n    /* \"#utility.yul\":3443:3467   */\n  tag_105\n    /* \"#utility.yul\":3461:3466   */\n  dup2\n    /* \"#utility.yul\":3443:3467   */\n  tag_54\n  jump\t// in\ntag_105:\n    /* \"#utility.yul\":3436:3441   */\n  dup2\n    /* \"#utility.yul\":3433:3468   */\n  eq\n    /* \"#utility.yul\":3423:3486   */\n  tag_106\n  jumpi\n    /* \"#utility.yul\":3482:3483   */\n  0x00\n    /* \"#utility.yul\":3479:3480   */\n  dup1\n    /* \"#utility.yul\":3472:3484   */\n  revert\n    /* \"#utility.yul\":3423:3486   */\ntag_106:\n    /* \"#utility.yul\":3370:3492   */\n  pop\n  jump\t// out\n    /* \"#utility.yul\":3498:3641   */\ntag_56:\n    /* \"#utility.yul\":3555:3560   */\n  0x00\n    /* \"#utility.yul\":3586:3592   */\n  dup2\n    /* \"#utility.yul\":3580:3593   */\n  mload\n    /* \"#utility.yul\":3571:3593   */\n  swap1\n  pop\n    /* \"#utility.yul\":3602:3635   */\n  tag_108\n    /* \"#utility.yul\":3629:3634   */\n  dup2\n    /* \"#utility.yul\":3602:3635   */\n  tag_55\n  jump\t// in\ntag_108:\n    /* \"#utility.yul\":3498:3641   */\n  swap3\n  swap2\n  pop\n  pop\n  jump\t// out\n    /* \"#utility.yul\":3647:3958   */\ntag_57:\n    /* \"#utility.yul\":3724:3728   */\n  0x00\n    /* \"#utility.yul\":3814:3832   */\n  0xffffffffffffffff\n    /* \"#utility.yul\":3806:3812   */\n  dup3\n    /* \"#utility.yul\":3803:3833   */\n  gt\n    /* \"#utility.yul\":3800:3856   */\n  iszero\n  tag_110\n  jumpi\n    /* \"#utility.yul\":3836:3854   */\n  tag_111\n  tag_43\n  jump\t// in\ntag_111:\n    /* \"#utility.yul\":3800:3856   */\ntag_110:\n    /* \"#utility.yul\":3886:3890   */\n  0x20\n    /* \"#utility.yul\":3878:3884   */\n  dup3\n    /* \"#utility.yul\":3874:3891   */\n  mul\n    /* \"#utility.yul\":3866:3891   */\n  swap1\n  pop\n    /* \"#utility.yul\":3946:3950   */\n  0x20\n    /* \"#utility.yul\":3940:3944   */\n  dup2\n    /* \"#utility.yul\":3936:3951   */\n  add\n    /* \"#utility.yul\":3928:3951   */\n  swap1\n  pop\n    /* \"#utility.yul\":3647:3958   */\n  swap2\n  swap1\n  pop\n  jump\t// out\n    /* \"#utility.yul\":3981:4713   */\ntag_58:\n    /* \"#utility.yul\":4088:4093   */\n  0x00\n    /* \"#utility.yul\":4113:4194   */\n  tag_113\n    /* \"#utility.yul\":4129:4193   */\n  tag_114\n    /* \"#utility.yul\":4186:4192   */\n  dup5\n    /* \"#utility.yul\":4129:4193   */\n  tag_57\n  jump\t// in\ntag_114:\n    /* \"#utility.yul\":4113:4194   */\n  tag_45\n  jump\t// in\ntag_113:\n    /* \"#utility.yul\":4104:4194   */\n  swap1\n  pop\n    /* \"#utility.yul\":4214:4219   */\n  dup1\n    /* \"#utility.yul\":4243:4249   */\n  dup4\n    /* \"#utility.yul\":4236:4241   */\n  dup3\n    /* \"#utility.yul\":4229:4250   */\n  mstore\n    /* \"#utility.yul\":4277:4281   */\n  0x20\n    /* \"#utility.yul\":4270:4275   */\n  dup3\n    /* \"#utility.yul\":4266:4282   */\n  add\n    /* \"#utility.yul\":4259:4282   */\n  swap1\n  pop\n    /* \"#utility.yul\":4330:4334   */\n  0x20\n    /* \"#utility.yul\":4322:4328   */\n  dup5\n    /* \"#utility.yul\":4318:4335   */\n  mul\n    /* \"#utility.yul\":4310:4316   */\n  dup4\n    /* \"#utility.yul\":4306:4336   */\n  add\n    /* \"#utility.yul\":4359:4362   */\n  dup6\n    /* \"#utility.yul\":4351:4357   */\n  dup2\n    /* \"#utility.yul\":4348:4363   */\n  gt\n    /* \"#utility.yul\":4345:4467   */\n  iszero\n  tag_115\n  jumpi\n    /* \"#utility.yul\":4378:4457   */\n  tag_116\n  tag_47\n  jump\t// in\ntag_116:\n    /* \"#utility.yul\":4345:4467   */\ntag_115:\n    /* \"#utility.yul\":4493:4499   */\n  dup4\n    /* \"#utility.yul\":4476:4707   */\ntag_117:\n    /* \"#utility.yul\":4510:4516   */\n  dup2\n    /* \"#utility.yul\":4505:4508   */\n  dup2\n    /* \"#utility.yul\":4502:4517   */\n  lt\n    /* \"#utility.yul\":4476:4707   */\n  iszero\n  tag_119\n  jumpi\n    /* \"#utility.yul\":4585:4588   */\n  dup1\n    /* \"#utility.yul\":4614:4662   */\n  tag_120\n    /* \"#utility.yul\":4658:4661   */\n  dup9\n    /* \"#utility.yul\":4646:4656   */\n  dup3\n    /* \"#utility.yul\":4614:4662   */\n  tag_56\n  jump\t// in\ntag_120:\n    /* \"#utility.yul\":4609:4612   */\n  dup5\n    /* \"#utility.yul\":4602:4663   */\n  mstore\n    /* \"#utility.yul\":4692:4696   */\n  0x20\n    /* \"#utility.yul\":4687:4690   */\n  dup5\n    /* \"#utility.yul\":4683:4697   */\n  add\n    /* \"#utility.yul\":4676:4697   */\n  swap4\n  pop\n    /* \"#utility.yul\":4552:4707   */\n  pop\n    /* \"#utility.yul\":4536:4540   */\n  0x20\n    /* \"#utility.yul\":4531:4534   */\n  dup2\n    /* \"#utility.yul\":4527:4541   */\n  add\n    /* \"#utility.yul\":4520:4541   */\n  swap1\n  pop\n    /* \"#utility.yul\":4476:4707   */\n  jump(tag_117)\ntag_119:\n    /* \"#utility.yul\":4480:4501   */\n  pop\n    /* \"#utility.yul\":4094:4713   */\n  pop\n  pop\n    /* \"#utility.yul\":3981:4713   */\n  swap4\n  swap3\n  pop\n  pop\n  pop\n  jump\t// out\n    /* \"#utility.yul\":4736:5121   */\ntag_59:\n    /* \"#utility.yul\":4818:4823   */\n  0x00\n    /* \"#utility.yul\":4867:4870   */\n  dup3\n    /* \"#utility.yul\":4860:4864   */\n  0x1f\n    /* \"#utility.yul\":4852:4858   */\n  dup4\n    /* \"#utility.yul\":4848:4865   */\n  add\n    /* \"#utility.yul\":4844:4871   */\n  slt\n    /* \"#utility.yul\":4834:4956   */\n  tag_122\n  jumpi\n    /* \"#utility.yul\":4875:4954   */\n  tag_123\n  tag_41\n  jump\t// in\ntag_123:\n    /* \"#utility.yul\":4834:4956   */\ntag_122:\n    /* \"#utility.yul\":4985:4991   */\n  dup2\n    /* \"#utility.yul\":4979:4992   */\n  mload\n    /* \"#utility.yul\":5010:5115   */\n  tag_124\n    /* \"#utility.yul\":5111:5114   */\n  dup5\n    /* \"#utility.yul\":5103:5109   */\n  dup3\n    /* \"#utility.yul\":5096:5100   */\n  0x20\n    /* \"#utility.yul\":5088:5094   */\n  dup7\n    /* \"#utility.yul\":5084:5101   */\n  add\n    /* \"#utility.yul\":5010:5115   */\n  tag_58\n  jump\t// in\ntag_124:\n    /* \"#utility.yul\":5001:5115   */\n  swap2\n  pop\n    /* \"#utility.yul\":4824:5121   */\n  pop\n    /* \"#utility.yul\":4736:5121   */\n  swap3\n  swap2\n  pop\n  pop\n  jump\t// out\n    /* \"#utility.yul\":5127:7073   */\ntag_3:\n    /* \"#utility.yul\":5342:5348   */\n  0x00\n    /* \"#utility.yul\":5350:5356   */\n  dup1\n    /* \"#utility.yul\":5358:5364   */\n  0x00\n    /* \"#utility.yul\":5366:5372   */\n  dup1\n    /* \"#utility.yul\":5374:5380   */\n  0x00\n    /* \"#utility.yul\":5382:5388   */\n  dup1\n    /* \"#utility.yul\":5431:5434   */\n  0xc0\n    /* \"#utility.yul\":5419:5428   */\n  dup8\n    /* \"#utility.yul\":5410:5417   */\n  dup10\n    /* \"#utility.yul\":5406:5429   */\n  sub\n    /* \"#utility.yul\":5402:5435   */\n  slt\n    /* \"#utility.yul\":5399:5519   */\n  iszero\n  tag_126\n  jumpi\n    /* \"#utility.yul\":5438:5517   */\n  tag_127\n  tag_39\n  jump\t// in\ntag_127:\n    /* \"#utility.yul\":5399:5519   */\ntag_126:\n    /* \"#utility.yul\":5579:5580   */\n  0x00\n    /* \"#utility.yul\":5568:5577   */\n  dup8\n    /* \"#utility.yul\":5564:5581   */\n  add\n    /* \"#utility.yul\":5558:5582   */\n  mload\n    /* \"#utility.yul\":5609:5627   */\n  0xffffffffffffffff\n    /* \"#utility.yul\":5601:5607   */\n  dup2\n    /* \"#utility.yul\":5598:5628   */\n  gt\n    /* \"#utility.yul\":5595:5712   */\n  iszero\n  tag_128\n  jumpi\n    /* \"#utility.yul\":5631:5710   */\n  tag_129\n  tag_40\n  jump\t// in\ntag_129:\n    /* \"#utility.yul\":5595:5712   */\ntag_128:\n    /* \"#utility.yul\":5736:5825   */\n  tag_130\n    /* \"#utility.yul\":5817:5824   */\n  dup10\n    /* \"#utility.yul\":5808:5814   */\n  dup3\n    /* \"#utility.yul\":5797:5806   */\n  dup11\n    /* \"#utility.yul\":5793:5815   */\n  add\n    /* \"#utility.yul\":5736:5825   */\n  tag_53\n  jump\t// in\ntag_130:\n    /* \"#utility.yul\":5726:5825   */\n  swap7\n  pop\n    /* \"#utility.yul\":5529:5835   */\n  pop\n    /* \"#utility.yul\":5895:5897   */\n  0x20\n    /* \"#utility.yul\":5884:5893   */\n  dup8\n    /* \"#utility.yul\":5880:5898   */\n  add\n    /* \"#utility.yul\":5874:5899   */\n  mload\n    /* \"#utility.yul\":5926:5944   */\n  0xffffffffffffffff\n    /* \"#utility.yul\":5918:5924   */\n  dup2\n    /* \"#utility.yul\":5915:5945   */\n  gt\n    /* \"#utility.yul\":5912:6029   */\n  iszero\n  tag_131\n  jumpi\n    /* \"#utility.yul\":5948:6027   */\n  tag_132\n  tag_40\n  jump\t// in\ntag_132:\n    /* \"#utility.yul\":5912:6029   */\ntag_131:\n    /* \"#utility.yul\":6053:6142   */\n  tag_133\n    /* \"#utility.yul\":6134:6141   */\n  dup10\n    /* \"#utility.yul\":6125:6131   */\n  dup3\n    /* \"#utility.yul\":6114:6123   */\n  dup11\n    /* \"#utility.yul\":6110:6132   */\n  add\n    /* \"#utility.yul\":6053:6142   */\n  tag_53\n  jump\t// in\ntag_133:\n    /* \"#utility.yul\":6043:6142   */\n  swap6\n  pop\n    /* \"#utility.yul\":5845:6152   */\n  pop\n    /* \"#utility.yul\":6191:6193   */\n  0x40\n    /* \"#utility.yul\":6217:6281   */\n  tag_134\n    /* \"#utility.yul\":6273:6280   */\n  dup10\n    /* \"#utility.yul\":6264:6270   */\n  dup3\n    /* \"#utility.yul\":6253:6262   */\n  dup11\n    /* \"#utility.yul\":6249:6271   */\n  add\n    /* \"#utility.yul\":6217:6281   */\n  tag_56\n  jump\t// in\ntag_134:\n    /* \"#utility.yul\":6207:6281   */\n  swap5\n  pop\n    /* \"#utility.yul\":6162:6291   */\n  pop\n    /* \"#utility.yul\":6351:6353   */\n  0x60\n    /* \"#utility.yul\":6340:6349   */\n  dup8\n    /* \"#utility.yul\":6336:6354   */\n  add\n    /* \"#utility.yul\":6330:6355   */\n  mload\n    /* \"#utility.yul\":6382:6400   */\n  0xffffffffffffffff\n    /* \"#utility.yul\":6374:6380   */\n  dup2\n    /* \"#utility.yul\":6371:6401   */\n  gt\n    /* \"#utility.yul\":6368:6485   */\n  iszero\n  tag_135\n  jumpi\n    /* \"#utility.yul\":6404:6483   */\n  tag_136\n  tag_40\n  jump\t// in\ntag_136:\n    /* \"#utility.yul\":6368:6485   */\ntag_135:\n    /* \"#utility.yul\":6509:6598   */\n  tag_137\n    /* \"#utility.yul\":6590:6597   */\n  dup10\n    /* \"#utility.yul\":6581:6587   */\n  dup3\n    /* \"#utility.yul\":6570:6579   */\n  dup11\n    /* \"#utility.yul\":6566:6588   */\n  add\n    /* \"#utility.yul\":6509:6598   */\n  tag_59\n  jump\t// in\ntag_137:\n    /* \"#utility.yul\":6499:6598   */\n  swap4\n  pop\n    /* \"#utility.yul\":6301:6608   */\n  pop\n    /* \"#utility.yul\":6668:6671   */\n  0x80\n    /* \"#utility.yul\":6657:6666   */\n  dup8\n    /* \"#utility.yul\":6653:6672   */\n  add\n    /* \"#utility.yul\":6647:6673   */\n  mload\n    /* \"#utility.yul\":6700:6718   */\n  0xffffffffffffffff\n    /* \"#utility.yul\":6692:6698   */\n  dup2\n    /* \"#utility.yul\":6689:6719   */\n  gt\n    /* \"#utility.yul\":6686:6803   */\n  iszero\n  tag_138\n  jumpi\n    /* \"#utility.yul\":6722:6801   */\n  tag_139\n  tag_40\n  jump\t// in\ntag_139:\n    /* \"#utility.yul\":6686:6803   */\ntag_138:\n    /* \"#utility.yul\":6827:6916   */\n  tag_140\n    /* \"#utility.yul\":6908:6915   */\n  dup10\n    /* \"#utility.yul\":6899:6905   */\n  dup3\n    /* \"#utility.yul\":6888:6897   */\n  dup11\n    /* \"#utility.yul\":6884:6906   */\n  add\n    /* \"#utility.yul\":6827:6916   */\n  tag_59\n  jump\t// in\ntag_140:\n    /* \"#utility.yul\":6817:6916   */\n  swap3\n  pop\n    /* \"#utility.yul\":6618:6926   */\n  pop\n    /* \"#utility.yul\":6965:6968   */\n  0xa0\n    /* \"#utility.yul\":6992:7056   */\n  tag_141\n    /* \"#utility.yul\":7048:7055   */\n  dup10\n    /* \"#utility.yul\":7039:7045   */\n  dup3\n    /* \"#utility.yul\":7028:7037   */\n  dup11\n    /* \"#utility.yul\":7024:7046   */\n  add\n    /* \"#utility.yul\":6992:7056   */\n  tag_56\n  jump\t// in\ntag_141:\n    /* \"#utility.yul\":6982:7056   */\n  swap2\n  pop\n    /* \"#utility.yul\":6936:7066   */\n  pop\n    /* \"#utility.yul\":5127:7073   */\n  swap3\n  swap6\n  pop\n  swap3\n  swap6\n  pop\n  swap3\n  swap6\n  jump\t// out\n    /* \"#utility.yul\":7079:7248   */\ntag_60:\n    /* \"#utility.yul\":7163:7174   */\n  0x00\n    /* \"#utility.yul\":7197:7203   */\n  dup3\n    /* \"#utility.yul\":7192:7195   */\n  dup3\n    /* \"#utility.yul\":7185:7204   */\n  mstore\n    /* \"#utility.yul\":7237:7241   */\n  0x20\n    /* \"#utility.yul\":7232:7235   */\n  dup3\n    /* \"#utility.yul\":7228:7242   */\n  add\n    /* \"#utility.yul\":7213:7242   */\n  swap1\n  pop\n    /* \"#utility.yul\":7079:7248   */\n  swap3\n  swap2\n  pop\n  pop\n  jump\t// out\n    /* \"#utility.yul\":7254:7423   */\ntag_61:\n    /* \"#utility.yul\":7394:7415   */\n  0x496e76616c6964206c6f636b20706572696f6400000000000000000000000000\n    /* \"#utility.yul\":7390:7391   */\n  0x00\n    /* \"#utility.yul\":7382:7388   */\n  dup3\n    /* \"#utility.yul\":7378:7392   */\n  add\n    /* \"#utility.yul\":7371:7416   */\n  mstore\n    /* \"#utility.yul\":7254:7423   */\n  pop\n  jump\t// out\n    /* \"#utility.yul\":7429:7795   */\ntag_62:\n    /* \"#utility.yul\":7571:7574   */\n  0x00\n    /* \"#utility.yul\":7592:7659   */\n  tag_145\n    /* \"#utility.yul\":7656:7658   */\n  0x13\n    /* \"#utility.yul\":7651:7654   */\n  dup4\n    /* \"#utility.yul\":7592:7659   */\n  tag_60\n  jump\t// in\ntag_145:\n    /* \"#utility.yul\":7585:7659   */\n  swap2\n  pop\n    /* \"#utility.yul\":7668:7761   */\n  tag_146\n    /* \"#utility.yul\":7757:7760   */\n  dup3\n    /* \"#utility.yul\":7668:7761   */\n  tag_61\n  jump\t// in\ntag_146:\n    /* \"#utility.yul\":7786:7788   */\n  0x20\n    /* \"#utility.yul\":7781:7784   */\n  dup3\n    /* \"#utility.yul\":7777:7789   */\n  add\n    /* \"#utility.yul\":7770:7789   */\n  swap1\n  pop\n    /* \"#utility.yul\":7429:7795   */\n  swap2\n  swap1\n  pop\n  jump\t// out\n    /* \"#utility.yul\":7801:8220   */\ntag_16:\n    /* \"#utility.yul\":7967:7971   */\n  0x00\n    /* \"#utility.yul\":8005:8007   */\n  0x20\n    /* \"#utility.yul\":7994:8003   */\n  dup3\n    /* \"#utility.yul\":7990:8008   */\n  add\n    /* \"#utility.yul\":7982:8008   */\n  swap1\n  pop\n    /* \"#utility.yul\":8054:8063   */\n  dup2\n    /* \"#utility.yul\":8048:8052   */\n  dup2\n    /* \"#utility.yul\":8044:8064   */\n  sub\n    /* \"#utility.yul\":8040:8041   */\n  0x00\n    /* \"#utility.yul\":8029:8038   */\n  dup4\n    /* \"#utility.yul\":8025:8042   */\n  add\n    /* \"#utility.yul\":8018:8065   */\n  mstore\n    /* \"#utility.yul\":8082:8213   */\n  tag_148\n    /* \"#utility.yul\":8208:8212   */\n  dup2\n    /* \"#utility.yul\":8082:8213   */\n  tag_62\n  jump\t// in\ntag_148:\n    /* \"#utility.yul\":8074:8213   */\n  swap1\n  pop\n    /* \"#utility.yul\":7801:8220   */\n  swap2\n  swap1\n  pop\n  jump\t// out\n    /* \"#utility.yul\":8226:8406   */\ntag_22:\n    /* \"#utility.yul\":8274:8351   */\n  0x4e487b7100000000000000000000000000000000000000000000000000000000\n    /* \"#utility.yul\":8271:8272   */\n  0x00\n    /* \"#utility.yul\":8264:8352   */\n  mstore\n    /* \"#utility.yul\":8371:8375   */\n  0x32\n    /* \"#utility.yul\":8368:8369   */\n  0x04\n    /* \"#utility.yul\":8361:8376   */\n  mstore\n    /* \"#utility.yul\":8395:8399   */\n  0x24\n    /* \"#utility.yul\":8392:8393   */\n  0x00\n    /* \"#utility.yul\":8385:8400   */\n  revert\n    /* \"#utility.yul\":8412:8592   */\ntag_63:\n    /* \"#utility.yul\":8460:8537   */\n  0x4e487b7100000000000000000000000000000000000000000000000000000000\n    /* \"#utility.yul\":8457:8458   */\n  0x00\n    /* \"#utility.yul\":8450:8538   */\n  mstore\n    /* \"#utility.yul\":8557:8561   */\n  0x11\n    /* \"#utility.yul\":8554:8555   */\n  0x04\n    /* \"#utility.yul\":8547:8562   */\n  mstore\n    /* \"#utility.yul\":8581:8585   */\n  0x24\n    /* \"#utility.yul\":8578:8579   */\n  0x00\n    /* \"#utility.yul\":8571:8586   */\n  revert\n    /* \"#utility.yul\":8598:8831   */\ntag_34:\n    /* \"#utility.yul\":8637:8640   */\n  0x00\n    /* \"#utility.yul\":8660:8684   */\n  tag_152\n    /* \"#utility.yul\":8678:8683   */\n  dup3\n    /* \"#utility.yul\":8660:8684   */\n  tag_54\n  jump\t// in\ntag_152:\n    /* \"#utility.yul\":8651:8684   */\n  swap2\n  pop\n    /* \"#utility.yul\":8706:8772   */\n  0xffffffffffffffffffffffffffffffffffffffffffffffffffffffffffffffff\n    /* \"#utility.yul\":8699:8704   */\n  dup3\n    /* \"#utility.yul\":8696:8773   */\n  sub\n    /* \"#utility.yul\":8693:8796   */\n  tag_153\n  jumpi\n    /* \"#utility.yul\":8776:8794   */\n  tag_154\n  tag_63\n  jump\t// in\ntag_154:\n    /* \"#utility.yul\":8693:8796   */\ntag_153:\n    /* \"#utility.yul\":8823:8824   */\n  0x01\n    /* \"#utility.yul\":8816:8821   */\n  dup3\n    /* \"#utility.yul\":8812:8825   */\n  add\n    /* \"#utility.yul\":8805:8825   */\n  swap1\n  pop\n    /* \"#utility.yul\":8598:8831   */\n  swap2\n  swap1\n  pop\n  jump\t// out\n    /* \"contracts/Staking.sol\":412:7964  contract NFTStaking1 is Ownable, ReentrancyGuard {... */\ntag_35:\n  dataSize(sub_0)\n  dup1\n  dataOffset(sub_0)\n  0x00\n  codecopy\n  0x00\n  return\nstop\n\nsub_0: assembly {\n        /* \"contracts/Staking.sol\":412:7964  contract NFTStaking1 is Ownable, ReentrancyGuard {... */\n      mstore(0x40, 0x80)\n      callvalue\n      dup1\n      iszero\n      tag_1\n      jumpi\n      0x00\n      dup1\n      revert\n    tag_1:\n      pop\n      jumpi(tag_2, lt(calldatasize, 0x04))\n      shr(0xe0, calldataload(0x00))\n      dup1\n      0x8da5cb5b\n      gt\n      tag_16\n      jumpi\n      dup1\n      0xb33068c4\n      gt\n      tag_17\n      jumpi\n      dup1\n      0xb33068c4\n      eq\n      tag_12\n      jumpi\n      dup1\n      0xc69d1923\n      eq\n      tag_13\n      jumpi\n      dup1\n      0xe9545b92\n      eq\n      tag_14\n      jumpi\n      dup1\n      0xf2fde38b\n      eq\n      tag_15\n      jumpi\n      jump(tag_2)\n    tag_17:\n      dup1\n      0x8da5cb5b\n      eq\n      tag_9\n      jumpi\n      dup1\n      0x9f3625f0\n      eq\n      tag_10\n      jumpi\n      dup1\n      0xb2520a7c\n      eq\n      tag_11\n      jumpi\n      jump(tag_2)\n    tag_16:\n      dup1\n      0x0520537f\n      eq\n      tag_3\n      jumpi\n      dup1\n      0x1902732e\n      eq\n      tag_4\n      jumpi\n      dup1\n      0x3fd8b02f\n      eq\n      tag_5\n      jumpi\n      dup1\n      0x715018a6\n      eq\n      tag_6\n      jumpi\n      dup1\n      0x779972da\n      eq\n      tag_7\n      jumpi\n      dup1\n      0x85e6c27c\n      eq\n      tag_8\n      jumpi\n    tag_2:\n      0x00\n      dup1\n      revert\n        /* \"contracts/Staking.sol\":6386:7386  function claimRewards(uint256[] calldata _tokenIds,IERC721 nftAddress) external notContract {... */\n    tag_3:\n      tag_18\n      0x04\n      dup1\n      calldatasize\n      sub\n      dup2\n      add\n      swap1\n      tag_19\n      swap2\n      swap1\n      tag_20\n      jump\t// in\n    tag_19:\n      tag_21\n      jump\t// in\n    tag_18:\n      stop\n        /* \"contracts/Staking.sol\":4509:5100  function lockNFT(uint256[] calldata  _tokenIds, IERC721 nftAddress ) external notContract nonReentrant {... */\n    tag_4:\n      tag_22\n      0x04\n      dup1\n      calldatasize\n      sub\n      dup2\n      add\n      swap1\n      tag_23\n      swap2\n      swap1\n      tag_20\n      jump\t// in\n    tag_23:\n      tag_24\n      jump\t// in\n    tag_22:\n      stop\n        /* \"contracts/Staking.sol\":502:527  uint256 public lockPeriod */\n    tag_5:\n      tag_25\n      tag_26\n      jump\t// in\n    tag_25:\n      mload(0x40)\n      tag_27\n      swap2\n      swap1\n      tag_28\n      jump\t// in\n    tag_27:\n      mload(0x40)\n      dup1\n      swap2\n      sub\n      swap1\n      return\n        /* \"@openzeppelin/contracts/access/Ownable.sol\":1831:1932  function renounceOwnership() public virtual onlyOwner {... */\n    tag_6:\n      tag_29\n      tag_30\n      jump\t// in\n    tag_29:\n      stop\n        /* \"contracts/Staking.sol\":3813:4026  function setLockPeriod(uint256 _lockPeriod) external onlyOwner {... */\n    tag_7:\n      tag_31\n      0x04\n      dup1\n      calldatasize\n      sub\n      dup2\n      add\n      swap1\n      tag_32\n      swap2\n      swap1\n      tag_33\n      jump\t// in\n    tag_32:\n      tag_34\n      jump\t// in\n    tag_31:\n      stop\n        /* \"contracts/Staking.sol\":2740:3689  function setLockPeriod(... */\n    tag_8:\n      tag_35\n      0x04\n      dup1\n      calldatasize\n      sub\n      dup2\n      add\n      swap1\n      tag_36\n      swap2\n      swap1\n      tag_37\n      jump\t// in\n    tag_36:\n      tag_38\n      jump\t// in\n    tag_35:\n      stop\n        /* \"@openzeppelin/contracts/access/Ownable.sol\":1201:1286  function owner() public view virtual returns (address) {... */\n    tag_9:\n      tag_39\n      tag_40\n      jump\t// in\n    tag_39:\n      mload(0x40)\n      tag_41\n      swap2\n      swap1\n      tag_42\n      jump\t// in\n    tag_41:\n      mload(0x40)\n      dup1\n      swap2\n      sub\n      swap1\n      return\n        /* \"contracts/Staking.sol\":5213:6288  function unlockNFT(uint256[] calldata _tokenIds, IERC721 nftAddress) external notContract nonReentrant {... */\n    tag_10:\n      tag_43\n      0x04\n      dup1\n      calldatasize\n      sub\n      dup2\n      add\n      swap1\n      tag_44\n      swap2\n      swap1\n      tag_20\n      jump\t// in\n    tag_44:\n      tag_45\n      jump\t// in\n    tag_43:\n      stop\n        /* \"contracts/Staking.sol\":770:834  mapping(IERC721 => mapping(uint256 => LockInfo)) public lockInfo */\n    tag_11:\n      tag_46\n      0x04\n      dup1\n      calldatasize\n      sub\n      dup2\n      add\n      swap1\n      tag_47\n      swap2\n      swap1\n      tag_48\n      jump\t// in\n    tag_47:\n      tag_49\n      jump\t// in\n    tag_46:\n      mload(0x40)\n      tag_50\n      swap6\n      swap5\n      swap4\n      swap3\n      swap2\n      swap1\n      tag_51\n      jump\t// in\n    tag_50:\n      mload(0x40)\n      dup1\n      swap2\n      sub\n      swap1\n      return\n        /* \"contracts/Staking.sol\":4194:4368  function claimedRewards(uint256 _tokenId, IERC721 nftAddress) external view returns (uint256) {... */\n    tag_12:\n      tag_52\n      0x04\n      dup1\n      calldatasize\n      sub\n      dup2\n      add\n      swap1\n      tag_53\n      swap2\n      swap1\n      tag_54\n      jump\t// in\n    tag_53:\n      tag_55\n      jump\t// in\n    tag_52:\n      mload(0x40)\n      tag_56\n      swap2\n      swap1\n      tag_28\n      jump\t// in\n    tag_56:\n      mload(0x40)\n      dup1\n      swap2\n      sub\n      swap1\n      return\n        /* \"contracts/Staking.sol\":1099:1118  uint256 public WAVE */\n    tag_13:\n      tag_57\n      tag_58\n      jump\t// in\n    tag_57:\n      mload(0x40)\n      tag_59\n      swap2\n      swap1\n      tag_28\n      jump\t// in\n    tag_59:\n      mload(0x40)\n      dup1\n      swap2\n      sub\n      swap1\n      return\n        /* \"contracts/Staking.sol\":1016:1063  mapping(IERC721 => stakeNftInfo) public nftInfo */\n    tag_14:\n      tag_60\n      0x04\n      dup1\n      calldatasize\n      sub\n      dup2\n      add\n      swap1\n      tag_61\n      swap2\n      swap1\n      tag_62\n      jump\t// in\n    tag_61:\n      tag_63\n      jump\t// in\n    tag_60:\n      mload(0x40)\n      tag_64\n      swap4\n      swap3\n      swap2\n      swap1\n      tag_65\n      jump\t// in\n    tag_64:\n      mload(0x40)\n      dup1\n      swap2\n      sub\n      swap1\n      return\n        /* \"@openzeppelin/contracts/access/Ownable.sol\":2081:2279  function transferOwnership(address newOwner) public virtual onlyOwner {... */\n    tag_15:\n      tag_66\n      0x04\n      dup1\n      calldatasize\n      sub\n      dup2\n      add\n      swap1\n      tag_67\n      swap2\n      swap1\n      tag_68\n      jump\t// in\n    tag_67:\n      tag_69\n      jump\t// in\n    tag_66:\n      stop\n        /* \"contracts/Staking.sol\":6386:7386  function claimRewards(uint256[] calldata _tokenIds,IERC721 nftAddress) external notContract {... */\n    tag_21:\n        /* \"contracts/Staking.sol\":2576:2608  address(msg.sender).isContract() */\n      tag_71\n        /* \"contracts/Staking.sol\":2584:2594  msg.sender */\n      caller\n        /* \"contracts/Staking.sol\":2576:2606  address(msg.sender).isContract */\n      0xffffffffffffffffffffffffffffffffffffffff\n      and\n      tag_72\n        /* \"contracts/Staking.sol\":2576:2608  address(msg.sender).isContract() */\n      jump\t// in\n    tag_71:\n        /* \"contracts/Staking.sol\":2575:2608  !address(msg.sender).isContract() */\n      iszero\n        /* \"contracts/Staking.sol\":2567:2633  require(!address(msg.sender).isContract(), \"Contract not allowed\") */\n      tag_73\n      jumpi\n      mload(0x40)\n      0x08c379a000000000000000000000000000000000000000000000000000000000\n      dup2\n      mstore\n      0x04\n      add\n      tag_74\n      swap1\n      tag_75\n      jump\t// in\n    tag_74:\n      mload(0x40)\n      dup1\n      swap2\n      sub\n      swap1\n      revert\n    tag_73:\n        /* \"contracts/Staking.sol\":2666:2675  tx.origin */\n      origin\n        /* \"contracts/Staking.sol\":2652:2675  msg.sender == tx.origin */\n      0xffffffffffffffffffffffffffffffffffffffff\n      and\n        /* \"contracts/Staking.sol\":2652:2662  msg.sender */\n      caller\n        /* \"contracts/Staking.sol\":2652:2675  msg.sender == tx.origin */\n      0xffffffffffffffffffffffffffffffffffffffff\n      and\n      eq\n        /* \"contracts/Staking.sol\":2644:2706  require(msg.sender == tx.origin, \"Proxy contract not allowed\") */\n      tag_76\n      jumpi\n      mload(0x40)\n      0x08c379a000000000000000000000000000000000000000000000000000000000\n      dup2\n      mstore\n      0x04\n      add\n      tag_77\n      swap1\n      tag_78\n      jump\t// in\n    tag_77:\n      mload(0x40)\n      dup1\n      swap2\n      sub\n      swap1\n      revert\n    tag_76:\n        /* \"contracts/Staking.sol\":6516:6517  0 */\n      0x00\n        /* \"contracts/Staking.sol\":6497:6506  _tokenIds */\n      dup4\n      dup4\n        /* \"contracts/Staking.sol\":6497:6513  _tokenIds.length */\n      swap1\n      pop\n        /* \"contracts/Staking.sol\":6497:6517  _tokenIds.length > 0 */\n      gt\n        /* \"contracts/Staking.sol\":6489:6531  require(_tokenIds.length > 0, \"No tokens\") */\n      tag_80\n      jumpi\n      mload(0x40)\n      0x08c379a000000000000000000000000000000000000000000000000000000000\n      dup2\n      mstore\n      0x04\n      add\n      tag_81\n      swap1\n      tag_82\n      jump\t// in\n    tag_81:\n      mload(0x40)\n      dup1\n      swap2\n      sub\n      swap1\n      revert\n    tag_80:\n        /* \"contracts/Staking.sol\":6544:6564  uint256 totalRewards */\n      0x00\n        /* \"contracts/Staking.sol\":6580:6589  uint256 i */\n      dup1\n        /* \"contracts/Staking.sol\":6592:6593  0 */\n      0x00\n        /* \"contracts/Staking.sol\":6580:6593  uint256 i = 0 */\n      swap1\n      pop\n        /* \"contracts/Staking.sol\":6575:7310  for (uint256 i = 0; i < _tokenIds.length; i++) {... */\n    tag_83:\n        /* \"contracts/Staking.sol\":6599:6608  _tokenIds */\n      dup5\n      dup5\n        /* \"contracts/Staking.sol\":6599:6615  _tokenIds.length */\n      swap1\n      pop\n        /* \"contracts/Staking.sol\":6595:6596  i */\n      dup2\n        /* \"contracts/Staking.sol\":6595:6615  i < _tokenIds.length */\n      lt\n        /* \"contracts/Staking.sol\":6575:7310  for (uint256 i = 0; i < _tokenIds.length; i++) {... */\n      iszero\n      tag_84\n      jumpi\n        /* \"contracts/Staking.sol\":6637:6657  LockInfo memory info */\n      0x00\n        /* \"contracts/Staking.sol\":6660:6668  lockInfo */\n      0x03\n        /* \"contracts/Staking.sol\":6660:6689  lockInfo[IERC721(nftAddress)] */\n      0x00\n        /* \"contracts/Staking.sol\":6677:6687  nftAddress */\n      dup6\n        /* \"contracts/Staking.sol\":6660:6689  lockInfo[IERC721(nftAddress)] */\n      0xffffffffffffffffffffffffffffffffffffffff\n      and\n      0xffffffffffffffffffffffffffffffffffffffff\n      and\n      dup2\n      mstore\n      0x20\n      add\n      swap1\n      dup2\n      mstore\n      0x20\n      add\n      0x00\n      keccak256\n        /* \"contracts/Staking.sol\":6660:6703  lockInfo[IERC721(nftAddress)][_tokenIds[i]] */\n      0x00\n        /* \"contracts/Staking.sol\":6690:6699  _tokenIds */\n      dup8\n      dup8\n        /* \"contracts/Staking.sol\":6700:6701  i */\n      dup6\n        /* \"contracts/Staking.sol\":6690:6702  _tokenIds[i] */\n      dup2\n      dup2\n      lt\n      tag_86\n      jumpi\n      tag_87\n      tag_88\n      jump\t// in\n    tag_87:\n    tag_86:\n      swap1\n      pop\n      0x20\n      mul\n      add\n      calldataload\n        /* \"contracts/Staking.sol\":6660:6703  lockInfo[IERC721(nftAddress)][_tokenIds[i]] */\n      dup2\n      mstore\n      0x20\n      add\n      swap1\n      dup2\n      mstore\n      0x20\n      add\n      0x00\n      keccak256\n        /* \"contracts/Staking.sol\":6637:6703  LockInfo memory info = lockInfo[IERC721(nftAddress)][_tokenIds[i]] */\n      mload(0x40)\n      dup1\n      0xa0\n      add\n      0x40\n      mstore\n      swap1\n      dup2\n      0x00\n      dup3\n      add\n      0x00\n      swap1\n      sload\n      swap1\n      0x0100\n      exp\n      swap1\n      div\n      0xffffffffffffffffffffffffffffffffffffffff\n      and\n      0xffffffffffffffffffffffffffffffffffffffff\n      and\n      0xffffffffffffffffffffffffffffffffffffffff\n      and\n      dup2\n      mstore\n      0x20\n      add\n      0x01\n      dup3\n      add\n      sload\n      dup2\n      mstore\n      0x20\n      add\n      0x02\n      dup3\n      add\n      sload\n      dup2\n      mstore\n      0x20\n      add\n      0x03\n      dup3\n      add\n      0x00\n      swap1\n      sload\n      swap1\n      0x0100\n      exp\n      swap1\n      div\n      0xff\n      and\n      iszero\n      iszero\n      iszero\n      iszero\n      dup2\n      mstore\n      0x20\n      add\n      0x03\n      dup3\n      add\n      0x01\n      swap1\n      sload\n      swap1\n      0x0100\n      exp\n      swap1\n      div\n      0xffffffffffffffffffffffffffffffffffffffff\n      and\n      0xffffffffffffffffffffffffffffffffffffffff\n      and\n      0xffffffffffffffffffffffffffffffffffffffff\n      and\n      dup2\n      mstore\n      pop\n      pop\n      swap1\n      pop\n        /* \"contracts/Staking.sol\":6740:6750  msg.sender */\n      caller\n        /* \"contracts/Staking.sol\":6726:6750  info.owner == msg.sender */\n      0xffffffffffffffffffffffffffffffffffffffff\n      and\n        /* \"contracts/Staking.sol\":6726:6730  info */\n      dup2\n        /* \"contracts/Staking.sol\":6726:6736  info.owner */\n      0x00\n      add\n      mload\n        /* \"contracts/Staking.sol\":6726:6750  info.owner == msg.sender */\n      0xffffffffffffffffffffffffffffffffffffffff\n      and\n      eq\n        /* \"contracts/Staking.sol\":6718:6772  require(info.owner == msg.sender, \"Not a token owner\") */\n      tag_89\n      jumpi\n      mload(0x40)\n      0x08c379a000000000000000000000000000000000000000000000000000000000\n      dup2\n      mstore\n      0x04\n      add\n      tag_90\n      swap1\n      tag_91\n      jump\t// in\n    tag_90:\n      mload(0x40)\n      dup1\n      swap2\n      sub\n      swap1\n      revert\n    tag_89:\n        /* \"contracts/Staking.sol\":6826:6841  block.timestamp */\n      timestamp\n        /* \"contracts/Staking.sol\":6813:6823  lockPeriod */\n      sload(0x02)\n        /* \"contracts/Staking.sol\":6795:6799  info */\n      dup3\n        /* \"contracts/Staking.sol\":6795:6810  info.lockedTime */\n      0x20\n      add\n      mload\n        /* \"contracts/Staking.sol\":6795:6823  info.lockedTime + lockPeriod */\n      tag_92\n      swap2\n      swap1\n      tag_93\n      jump\t// in\n    tag_92:\n        /* \"contracts/Staking.sol\":6795:6841  info.lockedTime + lockPeriod < block.timestamp */\n      lt\n        /* \"contracts/Staking.sol\":6787:6867  require(info.lockedTime + lockPeriod < block.timestamp, \"Not able to claim yet\") */\n      tag_94\n      jumpi\n      mload(0x40)\n      0x08c379a000000000000000000000000000000000000000000000000000000000\n      dup2\n      mstore\n      0x04\n      add\n      tag_95\n      swap1\n      tag_96\n      jump\t// in\n    tag_95:\n      mload(0x40)\n      dup1\n      swap2\n      sub\n      swap1\n      revert\n    tag_94:\n        /* \"contracts/Staking.sol\":6891:6895  info */\n      dup1\n        /* \"contracts/Staking.sol\":6891:6906  info.isUnlocked */\n      0x60\n      add\n      mload\n        /* \"contracts/Staking.sol\":6890:6906  !info.isUnlocked */\n      iszero\n        /* \"contracts/Staking.sol\":6882:6927  require(!info.isUnlocked, \"Already unlocked\") */\n      tag_97\n      jumpi\n      mload(0x40)\n      0x08c379a000000000000000000000000000000000000000000000000000000000\n      dup2\n      mstore\n      0x04\n      add\n      tag_98\n      swap1\n      tag_99\n      jump\t// in\n    tag_98:\n      mload(0x40)\n      dup1\n      swap2\n      sub\n      swap1\n      revert\n    tag_97:\n        /* \"contracts/Staking.sol\":6944:6963  uint256 totalAmount */\n      0x00\n        /* \"contracts/Staking.sol\":6966:7005  _rewardAmount(_tokenIds[i], nftAddress) */\n      tag_100\n        /* \"contracts/Staking.sol\":6980:6989  _tokenIds */\n      dup8\n      dup8\n        /* \"contracts/Staking.sol\":6990:6991  i */\n      dup6\n        /* \"contracts/Staking.sol\":6980:6992  _tokenIds[i] */\n      dup2\n      dup2\n      lt\n      tag_101\n      jumpi\n      tag_102\n      tag_88\n      jump\t// in\n    tag_102:\n    tag_101:\n      swap1\n      pop\n      0x20\n      mul\n      add\n      calldataload\n        /* \"contracts/Staking.sol\":6994:7004  nftAddress */\n      dup7\n        /* \"contracts/Staking.sol\":6966:6979  _rewardAmount */\n      tag_103\n        /* \"contracts/Staking.sol\":6966:7005  _rewardAmount(_tokenIds[i], nftAddress) */\n      jump\t// in\n    tag_100:\n        /* \"contracts/Staking.sol\":6944:7005  uint256 totalAmount = _rewardAmount(_tokenIds[i], nftAddress) */\n      swap1\n      pop\n        /* \"contracts/Staking.sol\":7020:7044  uint256 unclaminedAmount */\n      0x00\n        /* \"contracts/Staking.sol\":7061:7065  info */\n      dup3\n        /* \"contracts/Staking.sol\":7061:7080  info.claimedRewards */\n      0x40\n      add\n      mload\n        /* \"contracts/Staking.sol\":7047:7058  totalAmount */\n      dup3\n        /* \"contracts/Staking.sol\":7047:7080  totalAmount - info.claimedRewards */\n      tag_104\n      swap2\n      swap1\n      tag_105\n      jump\t// in\n    tag_104:\n        /* \"contracts/Staking.sol\":7020:7080  uint256 unclaminedAmount = totalAmount - info.claimedRewards */\n      swap1\n      pop\n        /* \"contracts/Staking.sol\":7095:7102  nftInfo */\n      0x04\n        /* \"contracts/Staking.sol\":7095:7114  nftInfo[nftAddress] */\n      0x00\n        /* \"contracts/Staking.sol\":7103:7113  nftAddress */\n      dup8\n        /* \"contracts/Staking.sol\":7095:7114  nftInfo[nftAddress] */\n      0xffffffffffffffffffffffffffffffffffffffff\n      and\n      0xffffffffffffffffffffffffffffffffffffffff\n      and\n      dup2\n      mstore\n      0x20\n      add\n      swap1\n      dup2\n      mstore\n      0x20\n      add\n      0x00\n      keccak256\n        /* \"contracts/Staking.sol\":7095:7127  nftInfo[nftAddress].rewardsToken */\n      0x00\n      add\n      0x00\n      swap1\n      sload\n      swap1\n      0x0100\n      exp\n      swap1\n      div\n      0xffffffffffffffffffffffffffffffffffffffff\n      and\n        /* \"contracts/Staking.sol\":7095:7132  nftInfo[nftAddress].rewardsToken.mint */\n      0xffffffffffffffffffffffffffffffffffffffff\n      and\n      0x40c10f19\n        /* \"contracts/Staking.sol\":7133:7143  msg.sender */\n      caller\n        /* \"contracts/Staking.sol\":7145:7161  unclaminedAmount */\n      dup4\n        /* \"contracts/Staking.sol\":7095:7162  nftInfo[nftAddress].rewardsToken.mint(msg.sender, unclaminedAmount) */\n      mload(0x40)\n      dup4\n      0xffffffff\n      and\n      0xe0\n      shl\n      dup2\n      mstore\n      0x04\n      add\n      tag_106\n      swap3\n      swap2\n      swap1\n      tag_107\n      jump\t// in\n    tag_106:\n      0x00\n      mload(0x40)\n      dup1\n      dup4\n      sub\n      dup2\n      0x00\n      dup8\n      dup1\n      extcodesize\n      iszero\n      dup1\n      iszero\n      tag_108\n      jumpi\n      0x00\n      dup1\n      revert\n    tag_108:\n      pop\n      gas\n      call\n      iszero\n      dup1\n      iszero\n      tag_110\n      jumpi\n      returndatasize\n      0x00\n      dup1\n      returndatacopy\n      revert(0x00, returndatasize)\n    tag_110:\n      pop\n      pop\n      pop\n      pop\n        /* \"contracts/Staking.sol\":7193:7209  unclaminedAmount */\n      dup1\n        /* \"contracts/Staking.sol\":7177:7209  totalRewards += unclaminedAmount */\n      dup6\n      tag_111\n      swap2\n      swap1\n      tag_93\n      jump\t// in\n    tag_111:\n      swap5\n      pop\n        /* \"contracts/Staking.sol\":7287:7298  totalAmount */\n      dup2\n        /* \"contracts/Staking.sol\":7226:7234  lockInfo */\n      0x03\n        /* \"contracts/Staking.sol\":7226:7255  lockInfo[IERC721(nftAddress)] */\n      0x00\n        /* \"contracts/Staking.sol\":7243:7253  nftAddress */\n      dup9\n        /* \"contracts/Staking.sol\":7226:7255  lockInfo[IERC721(nftAddress)] */\n      0xffffffffffffffffffffffffffffffffffffffff\n      and\n      0xffffffffffffffffffffffffffffffffffffffff\n      and\n      dup2\n      mstore\n      0x20\n      add\n      swap1\n      dup2\n      mstore\n      0x20\n      add\n      0x00\n      keccak256\n        /* \"contracts/Staking.sol\":7226:7269  lockInfo[IERC721(nftAddress)][_tokenIds[i]] */\n      0x00\n        /* \"contracts/Staking.sol\":7256:7265  _tokenIds */\n      dup11\n      dup11\n        /* \"contracts/Staking.sol\":7266:7267  i */\n      dup9\n        /* \"contracts/Staking.sol\":7256:7268  _tokenIds[i] */\n      dup2\n      dup2\n      lt\n      tag_112\n      jumpi\n      tag_113\n      tag_88\n      jump\t// in\n    tag_113:\n    tag_112:\n      swap1\n      pop\n      0x20\n      mul\n      add\n      calldataload\n        /* \"contracts/Staking.sol\":7226:7269  lockInfo[IERC721(nftAddress)][_tokenIds[i]] */\n      dup2\n      mstore\n      0x20\n      add\n      swap1\n      dup2\n      mstore\n      0x20\n      add\n      0x00\n      keccak256\n        /* \"contracts/Staking.sol\":7226:7284  lockInfo[IERC721(nftAddress)][_tokenIds[i]].claimedRewards */\n      0x02\n      add\n        /* \"contracts/Staking.sol\":7226:7298  lockInfo[IERC721(nftAddress)][_tokenIds[i]].claimedRewards = totalAmount */\n      dup2\n      swap1\n      sstore\n      pop\n        /* \"contracts/Staking.sol\":6622:7310  {... */\n      pop\n      pop\n      pop\n        /* \"contracts/Staking.sol\":6617:6620  i++ */\n      dup1\n      dup1\n      tag_114\n      swap1\n      tag_115\n      jump\t// in\n    tag_114:\n      swap2\n      pop\n      pop\n        /* \"contracts/Staking.sol\":6575:7310  for (uint256 i = 0; i < _tokenIds.length; i++) {... */\n      jump(tag_83)\n    tag_84:\n      pop\n        /* \"contracts/Staking.sol\":7342:7352  msg.sender */\n      caller\n        /* \"contracts/Staking.sol\":7327:7378  RewardsClaimed(msg.sender, _tokenIds, totalRewards) */\n      0xffffffffffffffffffffffffffffffffffffffff\n      and\n      0x37826be3c26dbad83731f4b985f22fa9ef86b6d1974cd77208332b7f1f283c0c\n        /* \"contracts/Staking.sol\":7354:7363  _tokenIds */\n      dup6\n      dup6\n        /* \"contracts/Staking.sol\":7365:7377  totalRewards */\n      dup5\n        /* \"contracts/Staking.sol\":7327:7378  RewardsClaimed(msg.sender, _tokenIds, totalRewards) */\n      mload(0x40)\n      tag_116\n      swap4\n      swap3\n      swap2\n      swap1\n      tag_117\n      jump\t// in\n    tag_116:\n      mload(0x40)\n      dup1\n      swap2\n      sub\n      swap1\n      log2\n        /* \"contracts/Staking.sol\":6478:7386  {... */\n      pop\n        /* \"contracts/Staking.sol\":6386:7386  function claimRewards(uint256[] calldata _tokenIds,IERC721 nftAddress) external notContract {... */\n      pop\n      pop\n      pop\n      jump\t// out\n        /* \"contracts/Staking.sol\":4509:5100  function lockNFT(uint256[] calldata  _tokenIds, IERC721 nftAddress ) external notContract nonReentrant {... */\n    tag_24:\n        /* \"contracts/Staking.sol\":2576:2608  address(msg.sender).isContract() */\n      tag_119\n        /* \"contracts/Staking.sol\":2584:2594  msg.sender */\n      caller\n        /* \"contracts/Staking.sol\":2576:2606  address(msg.sender).isContract */\n      0xffffffffffffffffffffffffffffffffffffffff\n      and\n      tag_72\n        /* \"contracts/Staking.sol\":2576:2608  address(msg.sender).isContract() */\n      jump\t// in\n    tag_119:\n        /* \"contracts/Staking.sol\":2575:2608  !address(msg.sender).isContract() */\n      iszero\n        /* \"contracts/Staking.sol\":2567:2633  require(!address(msg.sender).isContract(), \"Contract not allowed\") */\n      tag_120\n      jumpi\n      mload(0x40)\n      0x08c379a000000000000000000000000000000000000000000000000000000000\n      dup2\n      mstore\n      0x04\n      add\n      tag_121\n      swap1\n      tag_75\n      jump\t// in\n    tag_121:\n      mload(0x40)\n      dup1\n      swap2\n      sub\n      swap1\n      revert\n    tag_120:\n        /* \"contracts/Staking.sol\":2666:2675  tx.origin */\n      origin\n        /* \"contracts/Staking.sol\":2652:2675  msg.sender == tx.origin */\n      0xffffffffffffffffffffffffffffffffffffffff\n      and\n        /* \"contracts/Staking.sol\":2652:2662  msg.sender */\n      caller\n        /* \"contracts/Staking.sol\":2652:2675  msg.sender == tx.origin */\n      0xffffffffffffffffffffffffffffffffffffffff\n      and\n      eq\n        /* \"contracts/Staking.sol\":2644:2706  require(msg.sender == tx.origin, \"Proxy contract not allowed\") */\n      tag_122\n      jumpi\n      mload(0x40)\n      0x08c379a000000000000000000000000000000000000000000000000000000000\n      dup2\n      mstore\n      0x04\n      add\n      tag_123\n      swap1\n      tag_78\n      jump\t// in\n    tag_123:\n      mload(0x40)\n      dup1\n      swap2\n      sub\n      swap1\n      revert\n    tag_122:\n        /* \"@openzeppelin/contracts/security/ReentrancyGuard.sol\":1744:1745  2 */\n      0x02\n        /* \"@openzeppelin/contracts/security/ReentrancyGuard.sol\":2325:2332  _status */\n      sload(0x01)\n        /* \"@openzeppelin/contracts/security/ReentrancyGuard.sol\":2325:2344  _status != _ENTERED */\n      sub\n        /* \"@openzeppelin/contracts/security/ReentrancyGuard.sol\":2317:2380  require(_status != _ENTERED, \"ReentrancyGuard: reentrant call\") */\n      tag_125\n      jumpi\n      mload(0x40)\n      0x08c379a000000000000000000000000000000000000000000000000000000000\n      dup2\n      mstore\n      0x04\n      add\n      tag_126\n      swap1\n      tag_127\n      jump\t// in\n    tag_126:\n      mload(0x40)\n      dup1\n      swap2\n      sub\n      swap1\n      revert\n    tag_125:\n        /* \"@openzeppelin/contracts/security/ReentrancyGuard.sol\":1744:1745  2 */\n      0x02\n        /* \"@openzeppelin/contracts/security/ReentrancyGuard.sol\":2455:2462  _status */\n      0x01\n        /* \"@openzeppelin/contracts/security/ReentrancyGuard.sol\":2455:2473  _status = _ENTERED */\n      dup2\n      swap1\n      sstore\n      pop\n        /* \"contracts/Staking.sol\":4650:4651  0 */\n      0x00\n        /* \"contracts/Staking.sol\":4631:4640  _tokenIds */\n      dup4\n      dup4\n        /* \"contracts/Staking.sol\":4631:4647  _tokenIds.length */\n      swap1\n      pop\n        /* \"contracts/Staking.sol\":4631:4651  _tokenIds.length > 0 */\n      gt\n        /* \"contracts/Staking.sol\":4623:4665  require(_tokenIds.length > 0, \"No tokens\") */\n      tag_129\n      jumpi\n      mload(0x40)\n      0x08c379a000000000000000000000000000000000000000000000000000000000\n      dup2\n      mstore\n      0x04\n      add\n      tag_130\n      swap1\n      tag_82\n      jump\t// in\n    tag_130:\n      mload(0x40)\n      dup1\n      swap2\n      sub\n      swap1\n      revert\n    tag_129:\n        /* \"contracts/Staking.sol\":4683:4692  uint256 i */\n      0x00\n        /* \"contracts/Staking.sol\":4678:5043  for (uint256 i = 0; i < _tokenIds.length; i++) {... */\n    tag_131:\n        /* \"contracts/Staking.sol\":4702:4711  _tokenIds */\n      dup4\n      dup4\n        /* \"contracts/Staking.sol\":4702:4718  _tokenIds.length */\n      swap1\n      pop\n        /* \"contracts/Staking.sol\":4698:4699  i */\n      dup2\n        /* \"contracts/Staking.sol\":4698:4718  i < _tokenIds.length */\n      lt\n        /* \"contracts/Staking.sol\":4678:5043  for (uint256 i = 0; i < _tokenIds.length; i++) {... */\n      iszero\n      tag_132\n      jumpi\n        /* \"contracts/Staking.sol\":4784:4794  msg.sender */\n      caller\n        /* \"contracts/Staking.sol\":4748:4794  nftAddress.ownerOf(_tokenIds[i]) == msg.sender */\n      0xffffffffffffffffffffffffffffffffffffffff\n      and\n        /* \"contracts/Staking.sol\":4748:4758  nftAddress */\n      dup3\n        /* \"contracts/Staking.sol\":4748:4766  nftAddress.ownerOf */\n      0xffffffffffffffffffffffffffffffffffffffff\n      and\n      0x6352211e\n        /* \"contracts/Staking.sol\":4767:4776  _tokenIds */\n      dup7\n      dup7\n        /* \"contracts/Staking.sol\":4777:4778  i */\n      dup6\n        /* \"contracts/Staking.sol\":4767:4779  _tokenIds[i] */\n      dup2\n      dup2\n      lt\n      tag_134\n      jumpi\n      tag_135\n      tag_88\n      jump\t// in\n    tag_135:\n    tag_134:\n      swap1\n      pop\n      0x20\n      mul\n      add\n      calldataload\n        /* \"contracts/Staking.sol\":4748:4780  nftAddress.ownerOf(_tokenIds[i]) */\n      mload(0x40)\n      dup3\n      0xffffffff\n      and\n      0xe0\n      shl\n      dup2\n      mstore\n      0x04\n      add\n      tag_136\n      swap2\n      swap1\n      tag_28\n      jump\t// in\n    tag_136:\n      0x20\n      mload(0x40)\n      dup1\n      dup4\n      sub\n      dup2\n      dup7\n      gas\n      staticcall\n      iszero\n      dup1\n      iszero\n      tag_138\n      jumpi\n      returndatasize\n      0x00\n      dup1\n      returndatacopy\n      revert(0x00, returndatasize)\n    tag_138:\n      pop\n      pop\n      pop\n      pop\n      mload(0x40)\n      returndatasize\n      not(0x1f)\n      0x1f\n      dup3\n      add\n      and\n      dup3\n      add\n      dup1\n      0x40\n      mstore\n      pop\n      dup2\n      add\n      swap1\n      tag_139\n      swap2\n      swap1\n      tag_140\n      jump\t// in\n    tag_139:\n        /* \"contracts/Staking.sol\":4748:4794  nftAddress.ownerOf(_tokenIds[i]) == msg.sender */\n      0xffffffffffffffffffffffffffffffffffffffff\n      and\n      eq\n        /* \"contracts/Staking.sol\":4740:4824  require(nftAddress.ownerOf(_tokenIds[i]) == msg.sender, \"You don't hold this token\") */\n      tag_141\n      jumpi\n      mload(0x40)\n      0x08c379a000000000000000000000000000000000000000000000000000000000\n      dup2\n      mstore\n      0x04\n      add\n      tag_142\n      swap1\n      tag_143\n      jump\t// in\n    tag_142:\n      mload(0x40)\n      dup1\n      swap2\n      sub\n      swap1\n      revert\n    tag_141:\n        /* \"contracts/Staking.sol\":4839:4849  nftAddress */\n      dup2\n        /* \"contracts/Staking.sol\":4839:4862  nftAddress.transferFrom */\n      0xffffffffffffffffffffffffffffffffffffffff\n      and\n      0x23b872dd\n        /* \"contracts/Staking.sol\":4863:4873  msg.sender */\n      caller\n        /* \"contracts/Staking.sol\":4883:4887  this */\n      address\n        /* \"contracts/Staking.sol\":4890:4899  _tokenIds */\n      dup8\n      dup8\n        /* \"contracts/Staking.sol\":4900:4901  i */\n      dup7\n        /* \"contracts/Staking.sol\":4890:4902  _tokenIds[i] */\n      dup2\n      dup2\n      lt\n      tag_144\n      jumpi\n      tag_145\n      tag_88\n      jump\t// in\n    tag_145:\n    tag_144:\n      swap1\n      pop\n      0x20\n      mul\n      add\n      calldataload\n        /* \"contracts/Staking.sol\":4839:4903  nftAddress.transferFrom(msg.sender, address(this), _tokenIds[i]) */\n      mload(0x40)\n      dup5\n      0xffffffff\n      and\n      0xe0\n      shl\n      dup2\n      mstore\n      0x04\n      add\n      tag_146\n      swap4\n      swap3\n      swap2\n      swap1\n      tag_147\n      jump\t// in\n    tag_146:\n      0x00\n      mload(0x40)\n      dup1\n      dup4\n      sub\n      dup2\n      0x00\n      dup8\n      dup1\n      extcodesize\n      iszero\n      dup1\n      iszero\n      tag_148\n      jumpi\n      0x00\n      dup1\n      revert\n    tag_148:\n      pop\n      gas\n      call\n      iszero\n      dup1\n      iszero\n      tag_150\n      jumpi\n      returndatasize\n      0x00\n      dup1\n      returndatacopy\n      revert(0x00, returndatasize)\n    tag_150:\n      pop\n      pop\n      pop\n      pop\n        /* \"contracts/Staking.sol\":4964:5031  LockInfo(msg.sender, block.timestamp, 0, false,IERC721(nftAddress)) */\n      mload(0x40)\n      dup1\n      0xa0\n      add\n      0x40\n      mstore\n      dup1\n        /* \"contracts/Staking.sol\":4973:4983  msg.sender */\n      caller\n        /* \"contracts/Staking.sol\":4964:5031  LockInfo(msg.sender, block.timestamp, 0, false,IERC721(nftAddress)) */\n      0xffffffffffffffffffffffffffffffffffffffff\n      and\n      dup2\n      mstore\n      0x20\n      add\n        /* \"contracts/Staking.sol\":4985:5000  block.timestamp */\n      timestamp\n        /* \"contracts/Staking.sol\":4964:5031  LockInfo(msg.sender, block.timestamp, 0, false,IERC721(nftAddress)) */\n      dup2\n      mstore\n      0x20\n      add\n        /* \"contracts/Staking.sol\":5002:5003  0 */\n      0x00\n        /* \"contracts/Staking.sol\":4964:5031  LockInfo(msg.sender, block.timestamp, 0, false,IERC721(nftAddress)) */\n      dup2\n      mstore\n      0x20\n      add\n        /* \"contracts/Staking.sol\":5005:5010  false */\n      0x00\n        /* \"contracts/Staking.sol\":4964:5031  LockInfo(msg.sender, block.timestamp, 0, false,IERC721(nftAddress)) */\n      iszero\n      iszero\n      dup2\n      mstore\n      0x20\n      add\n        /* \"contracts/Staking.sol\":5019:5029  nftAddress */\n      dup4\n        /* \"contracts/Staking.sol\":4964:5031  LockInfo(msg.sender, block.timestamp, 0, false,IERC721(nftAddress)) */\n      0xffffffffffffffffffffffffffffffffffffffff\n      and\n      dup2\n      mstore\n      pop\n        /* \"contracts/Staking.sol\":4918:4926  lockInfo */\n      0x03\n        /* \"contracts/Staking.sol\":4918:4947  lockInfo[IERC721(nftAddress)] */\n      0x00\n        /* \"contracts/Staking.sol\":4935:4945  nftAddress */\n      dup5\n        /* \"contracts/Staking.sol\":4918:4947  lockInfo[IERC721(nftAddress)] */\n      0xffffffffffffffffffffffffffffffffffffffff\n      and\n      0xffffffffffffffffffffffffffffffffffffffff\n      and\n      dup2\n      mstore\n      0x20\n      add\n      swap1\n      dup2\n      mstore\n      0x20\n      add\n      0x00\n      keccak256\n        /* \"contracts/Staking.sol\":4918:4961  lockInfo[IERC721(nftAddress)][_tokenIds[i]] */\n      0x00\n        /* \"contracts/Staking.sol\":4948:4957  _tokenIds */\n      dup7\n      dup7\n        /* \"contracts/Staking.sol\":4958:4959  i */\n      dup6\n        /* \"contracts/Staking.sol\":4948:4960  _tokenIds[i] */\n      dup2\n      dup2\n      lt\n      tag_151\n      jumpi\n      tag_152\n      tag_88\n      jump\t// in\n    tag_152:\n    tag_151:\n      swap1\n      pop\n      0x20\n      mul\n      add\n      calldataload\n        /* \"contracts/Staking.sol\":4918:4961  lockInfo[IERC721(nftAddress)][_tokenIds[i]] */\n      dup2\n      mstore\n      0x20\n      add\n      swap1\n      dup2\n      mstore\n      0x20\n      add\n      0x00\n      keccak256\n        /* \"contracts/Staking.sol\":4918:5031  lockInfo[IERC721(nftAddress)][_tokenIds[i]] = LockInfo(msg.sender, block.timestamp, 0, false,IERC721(nftAddress)) */\n      0x00\n      dup3\n      add\n      mload\n      dup2\n      0x00\n      add\n      exp(0x0100, 0x00)\n      dup2\n      sload\n      dup2\n      0xffffffffffffffffffffffffffffffffffffffff\n      mul\n      not\n      and\n      swap1\n      dup4\n      0xffffffffffffffffffffffffffffffffffffffff\n      and\n      mul\n      or\n      swap1\n      sstore\n      pop\n      0x20\n      dup3\n      add\n      mload\n      dup2\n      0x01\n      add\n      sstore\n      0x40\n      dup3\n      add\n      mload\n      dup2\n      0x02\n      add\n      sstore\n      0x60\n      dup3\n      add\n      mload\n      dup2\n      0x03\n      add\n      exp(0x0100, 0x00)\n      dup2\n      sload\n      dup2\n      0xff\n      mul\n      not\n      and\n      swap1\n      dup4\n      iszero\n      iszero\n      mul\n      or\n      swap1\n      sstore\n      pop\n      0x80\n      dup3\n      add\n      mload\n      dup2\n      0x03\n      add\n      exp(0x0100, 0x01)\n      dup2\n      sload\n      dup2\n      0xffffffffffffffffffffffffffffffffffffffff\n      mul\n      not\n      and\n      swap1\n      dup4\n      0xffffffffffffffffffffffffffffffffffffffff\n      and\n      mul\n      or\n      swap1\n      sstore\n      pop\n      swap1\n      pop\n      pop\n        /* \"contracts/Staking.sol\":4720:4723  i++ */\n      dup1\n      dup1\n      tag_153\n      swap1\n      tag_115\n      jump\t// in\n    tag_153:\n      swap2\n      pop\n      pop\n        /* \"contracts/Staking.sol\":4678:5043  for (uint256 i = 0; i < _tokenIds.length; i++) {... */\n      jump(tag_131)\n    tag_132:\n      pop\n        /* \"contracts/Staking.sol\":5070:5080  msg.sender */\n      caller\n        /* \"contracts/Staking.sol\":5060:5092  NFTLocked(msg.sender, _tokenIds) */\n      0xffffffffffffffffffffffffffffffffffffffff\n      and\n      0x458be0227bccc9e803dec79bd16767eeaf9925d2ce708eeed7ae1f3621f968f9\n        /* \"contracts/Staking.sol\":5082:5091  _tokenIds */\n      dup5\n      dup5\n        /* \"contracts/Staking.sol\":5060:5092  NFTLocked(msg.sender, _tokenIds) */\n      mload(0x40)\n      tag_154\n      swap3\n      swap2\n      swap1\n      tag_155\n      jump\t// in\n    tag_154:\n      mload(0x40)\n      dup1\n      swap2\n      sub\n      swap1\n      log2\n        /* \"@openzeppelin/contracts/security/ReentrancyGuard.sol\":1701:1702  1 */\n      0x01\n        /* \"@openzeppelin/contracts/security/ReentrancyGuard.sol\":2628:2635  _status */\n      dup1\n        /* \"@openzeppelin/contracts/security/ReentrancyGuard.sol\":2628:2650  _status = _NOT_ENTERED */\n      dup2\n      swap1\n      sstore\n      pop\n        /* \"contracts/Staking.sol\":4509:5100  function lockNFT(uint256[] calldata  _tokenIds, IERC721 nftAddress ) external notContract nonReentrant {... */\n      pop\n      pop\n      pop\n      jump\t// out\n        /* \"contracts/Staking.sol\":502:527  uint256 public lockPeriod */\n    tag_26:\n      sload(0x02)\n      dup2\n      jump\t// out\n        /* \"@openzeppelin/contracts/access/Ownable.sol\":1831:1932  function renounceOwnership() public virtual onlyOwner {... */\n    tag_30:\n        /* \"@openzeppelin/contracts/access/Ownable.sol\":1094:1107  _checkOwner() */\n      tag_157\n        /* \"@openzeppelin/contracts/access/Ownable.sol\":1094:1105  _checkOwner */\n      tag_158\n        /* \"@openzeppelin/contracts/access/Ownable.sol\":1094:1107  _checkOwner() */\n      jump\t// in\n    tag_157:\n        /* \"@openzeppelin/contracts/access/Ownable.sol\":1895:1925  _transferOwnership(address(0)) */\n      tag_160\n        /* \"@openzeppelin/contracts/access/Ownable.sol\":1922:1923  0 */\n      0x00\n        /* \"@openzeppelin/contracts/access/Ownable.sol\":1895:1913  _transferOwnership */\n      tag_161\n        /* \"@openzeppelin/contracts/access/Ownable.sol\":1895:1925  _transferOwnership(address(0)) */\n      jump\t// in\n    tag_160:\n        /* \"@openzeppelin/contracts/access/Ownable.sol\":1831:1932  function renounceOwnership() public virtual onlyOwner {... */\n      jump\t// out\n        /* \"contracts/Staking.sol\":3813:4026  function setLockPeriod(uint256 _lockPeriod) external onlyOwner {... */\n    tag_34:\n        /* \"@openzeppelin/contracts/access/Ownable.sol\":1094:1107  _checkOwner() */\n      tag_163\n        /* \"@openzeppelin/contracts/access/Ownable.sol\":1094:1105  _checkOwner */\n      tag_158\n        /* \"@openzeppelin/contracts/access/Ownable.sol\":1094:1107  _checkOwner() */\n      jump\t// in\n    tag_163:\n        /* \"contracts/Staking.sol\":3909:3910  0 */\n      0x00\n        /* \"contracts/Staking.sol\":3895:3906  _lockPeriod */\n      dup2\n        /* \"contracts/Staking.sol\":3895:3910  _lockPeriod > 0 */\n      gt\n        /* \"contracts/Staking.sol\":3887:3935  require(_lockPeriod > 0, \"Invalid lock period.\") */\n      tag_165\n      jumpi\n      mload(0x40)\n      0x08c379a000000000000000000000000000000000000000000000000000000000\n      dup2\n      mstore\n      0x04\n      add\n      tag_166\n      swap1\n      tag_167\n      jump\t// in\n    tag_166:\n      mload(0x40)\n      dup1\n      swap2\n      sub\n      swap1\n      revert\n    tag_165:\n        /* \"contracts/Staking.sol\":3959:3970  _lockPeriod */\n      dup1\n        /* \"contracts/Staking.sol\":3946:3956  lockPeriod */\n      0x02\n        /* \"contracts/Staking.sol\":3946:3970  lockPeriod = _lockPeriod */\n      dup2\n      swap1\n      sstore\n      pop\n        /* \"contracts/Staking.sol\":3988:4018  LockPeriodUpdated(_lockPeriod) */\n      0x8249ec545e68f6f1e1230133ca48c704d831a7f8e635ded80f3dd9e99b09bb2f\n        /* \"contracts/Staking.sol\":4006:4017  _lockPeriod */\n      dup2\n        /* \"contracts/Staking.sol\":3988:4018  LockPeriodUpdated(_lockPeriod) */\n      mload(0x40)\n      tag_168\n      swap2\n      swap1\n      tag_28\n      jump\t// in\n    tag_168:\n      mload(0x40)\n      dup1\n      swap2\n      sub\n      swap1\n      log1\n        /* \"contracts/Staking.sol\":3813:4026  function setLockPeriod(uint256 _lockPeriod) external onlyOwner {... */\n      pop\n      jump\t// out\n        /* \"contracts/Staking.sol\":2740:3689  function setLockPeriod(... */\n    tag_38:\n        /* \"@openzeppelin/contracts/access/Ownable.sol\":1094:1107  _checkOwner() */\n      tag_170\n        /* \"@openzeppelin/contracts/access/Ownable.sol\":1094:1105  _checkOwner */\n      tag_158\n        /* \"@openzeppelin/contracts/access/Ownable.sol\":1094:1107  _checkOwner() */\n      jump\t// in\n    tag_170:\n        /* \"contracts/Staking.sol\":3273:3274  0 */\n      0x00\n        /* \"contracts/Staking.sol\":3259:3270  _lockPeriod */\n      dup5\n        /* \"contracts/Staking.sol\":3259:3274  _lockPeriod > 0 */\n      gt\n        /* \"contracts/Staking.sol\":3251:3298  require(_lockPeriod > 0, \"Invalid lock period\") */\n      tag_172\n      jumpi\n      mload(0x40)\n      0x08c379a000000000000000000000000000000000000000000000000000000000\n      dup2\n      mstore\n      0x04\n      add\n      tag_173\n      swap1\n      tag_174\n      jump\t// in\n    tag_173:\n      mload(0x40)\n      dup1\n      swap2\n      sub\n      swap1\n      revert\n    tag_172:\n        /* \"contracts/Staking.sol\":3316:3322  uint i */\n      0x00\n        /* \"contracts/Staking.sol\":3311:3622  for (uint i = 0; i < _stakeNFT.length; i++) {... */\n    tag_175:\n        /* \"contracts/Staking.sol\":3332:3341  _stakeNFT */\n      dup7\n        /* \"contracts/Staking.sol\":3332:3348  _stakeNFT.length */\n      mload\n        /* \"contracts/Staking.sol\":3328:3329  i */\n      dup2\n        /* \"contracts/Staking.sol\":3328:3348  i < _stakeNFT.length */\n      lt\n        /* \"contracts/Staking.sol\":3311:3622  for (uint i = 0; i < _stakeNFT.length; i++) {... */\n      iszero\n      tag_176\n      jumpi\n        /* \"contracts/Staking.sol\":3432:3445  _rewardsToken */\n      dup6\n        /* \"contracts/Staking.sol\":3446:3447  i */\n      dup2\n        /* \"contracts/Staking.sol\":3432:3448  _rewardsToken[i] */\n      dup2\n      mload\n      dup2\n      lt\n      tag_178\n      jumpi\n      tag_179\n      tag_88\n      jump\t// in\n    tag_179:\n    tag_178:\n      0x20\n      mul\n      0x20\n      add\n      add\n      mload\n        /* \"contracts/Staking.sol\":3372:3379  nftInfo */\n      0x04\n        /* \"contracts/Staking.sol\":3372:3402  nftInfo[IERC721(_stakeNFT[i])] */\n      0x00\n        /* \"contracts/Staking.sol\":3388:3397  _stakeNFT */\n      dup10\n        /* \"contracts/Staking.sol\":3398:3399  i */\n      dup5\n        /* \"contracts/Staking.sol\":3388:3400  _stakeNFT[i] */\n      dup2\n      mload\n      dup2\n      lt\n      tag_180\n      jumpi\n      tag_181\n      tag_88\n      jump\t// in\n    tag_181:\n    tag_180:\n      0x20\n      mul\n      0x20\n      add\n      add\n      mload\n        /* \"contracts/Staking.sol\":3372:3402  nftInfo[IERC721(_stakeNFT[i])] */\n      0xffffffffffffffffffffffffffffffffffffffff\n      and\n      0xffffffffffffffffffffffffffffffffffffffff\n      and\n      dup2\n      mstore\n      0x20\n      add\n      swap1\n      dup2\n      mstore\n      0x20\n      add\n      0x00\n      keccak256\n        /* \"contracts/Staking.sol\":3372:3415  nftInfo[IERC721(_stakeNFT[i])].rewardsToken */\n      0x00\n      add\n      0x00\n        /* \"contracts/Staking.sol\":3372:3449  nftInfo[IERC721(_stakeNFT[i])].rewardsToken = IRewardsToken(_rewardsToken[i]) */\n      0x0100\n      exp\n      dup2\n      sload\n      dup2\n      0xffffffffffffffffffffffffffffffffffffffff\n      mul\n      not\n      and\n      swap1\n      dup4\n      0xffffffffffffffffffffffffffffffffffffffff\n      and\n      mul\n      or\n      swap1\n      sstore\n      pop\n        /* \"contracts/Staking.sol\":3512:3526  _rewardPerWave */\n      dup4\n        /* \"contracts/Staking.sol\":3527:3528  i */\n      dup2\n        /* \"contracts/Staking.sol\":3512:3529  _rewardPerWave[i] */\n      dup2\n      mload\n      dup2\n      lt\n      tag_182\n      jumpi\n      tag_183\n      tag_88\n      jump\t// in\n    tag_183:\n    tag_182:\n      0x20\n      mul\n      0x20\n      add\n      add\n      mload\n        /* \"contracts/Staking.sol\":3464:3471  nftInfo */\n      0x04\n        /* \"contracts/Staking.sol\":3464:3494  nftInfo[IERC721(_stakeNFT[i])] */\n      0x00\n        /* \"contracts/Staking.sol\":3480:3489  _stakeNFT */\n      dup10\n        /* \"contracts/Staking.sol\":3490:3491  i */\n      dup5\n        /* \"contracts/Staking.sol\":3480:3492  _stakeNFT[i] */\n      dup2\n      mload\n      dup2\n      lt\n      tag_184\n      jumpi\n      tag_185\n      tag_88\n      jump\t// in\n    tag_185:\n    tag_184:\n      0x20\n      mul\n      0x20\n      add\n      add\n      mload\n        /* \"contracts/Staking.sol\":3464:3494  nftInfo[IERC721(_stakeNFT[i])] */\n      0xffffffffffffffffffffffffffffffffffffffff\n      and\n      0xffffffffffffffffffffffffffffffffffffffff\n      and\n      dup2\n      mstore\n      0x20\n      add\n      swap1\n      dup2\n      mstore\n      0x20\n      add\n      0x00\n      keccak256\n        /* \"contracts/Staking.sol\":3464:3509  nftInfo[IERC721(_stakeNFT[i])].rewardsPerWave */\n      0x01\n      add\n        /* \"contracts/Staking.sol\":3464:3529  nftInfo[IERC721(_stakeNFT[i])].rewardsPerWave = _rewardPerWave[i] */\n      dup2\n      swap1\n      sstore\n      pop\n        /* \"contracts/Staking.sol\":3594:3611  _rewardPercentage */\n      dup3\n        /* \"contracts/Staking.sol\":3612:3613  i */\n      dup2\n        /* \"contracts/Staking.sol\":3594:3614  _rewardPercentage[i] */\n      dup2\n      mload\n      dup2\n      lt\n      tag_186\n      jumpi\n      tag_187\n      tag_88\n      jump\t// in\n    tag_187:\n    tag_186:\n      0x20\n      mul\n      0x20\n      add\n      add\n      mload\n        /* \"contracts/Staking.sol\":3544:3551  nftInfo */\n      0x04\n        /* \"contracts/Staking.sol\":3544:3574  nftInfo[IERC721(_stakeNFT[i])] */\n      0x00\n        /* \"contracts/Staking.sol\":3560:3569  _stakeNFT */\n      dup10\n        /* \"contracts/Staking.sol\":3570:3571  i */\n      dup5\n        /* \"contracts/Staking.sol\":3560:3572  _stakeNFT[i] */\n      dup2\n      mload\n      dup2\n      lt\n      tag_188\n      jumpi\n      tag_189\n      tag_88\n      jump\t// in\n    tag_189:\n    tag_188:\n      0x20\n      mul\n      0x20\n      add\n      add\n      mload\n        /* \"contracts/Staking.sol\":3544:3574  nftInfo[IERC721(_stakeNFT[i])] */\n      0xffffffffffffffffffffffffffffffffffffffff\n      and\n      0xffffffffffffffffffffffffffffffffffffffff\n      and\n      dup2\n      mstore\n      0x20\n      add\n      swap1\n      dup2\n      mstore\n      0x20\n      add\n      0x00\n      keccak256\n        /* \"contracts/Staking.sol\":3544:3591  nftInfo[IERC721(_stakeNFT[i])].rewardPercentage */\n      0x02\n      add\n        /* \"contracts/Staking.sol\":3544:3614  nftInfo[IERC721(_stakeNFT[i])].rewardPercentage = _rewardPercentage[i] */\n      dup2\n      swap1\n      sstore\n      pop\n        /* \"contracts/Staking.sol\":3350:3353  i++ */\n      dup1\n      dup1\n      tag_190\n      swap1\n      tag_115\n      jump\t// in\n    tag_190:\n      swap2\n      pop\n      pop\n        /* \"contracts/Staking.sol\":3311:3622  for (uint i = 0; i < _stakeNFT.length; i++) {... */\n      jump(tag_175)\n    tag_176:\n      pop\n        /* \"contracts/Staking.sol\":3647:3658  _lockPeriod */\n      dup4\n        /* \"contracts/Staking.sol\":3634:3644  lockPeriod */\n      0x02\n        /* \"contracts/Staking.sol\":3634:3658  lockPeriod = _lockPeriod */\n      dup2\n      swap1\n      sstore\n      pop\n        /* \"contracts/Staking.sol\":3676:3681  _wave */\n      dup1\n        /* \"contracts/Staking.sol\":3669:3673  WAVE */\n      0x05\n        /* \"contracts/Staking.sol\":3669:3681  WAVE = _wave */\n      dup2\n      swap1\n      sstore\n      pop\n        /* \"contracts/Staking.sol\":2740:3689  function setLockPeriod(... */\n      pop\n      pop\n      pop\n      pop\n      pop\n      pop\n      jump\t// out\n        /* \"@openzeppelin/contracts/access/Ownable.sol\":1201:1286  function owner() public view virtual returns (address) {... */\n    tag_40:\n        /* \"@openzeppelin/contracts/access/Ownable.sol\":1247:1254  address */\n      0x00\n        /* \"@openzeppelin/contracts/access/Ownable.sol\":1273:1279  _owner */\n      dup1\n      0x00\n      swap1\n      sload\n      swap1\n      0x0100\n      exp\n      swap1\n      div\n      0xffffffffffffffffffffffffffffffffffffffff\n      and\n        /* \"@openzeppelin/contracts/access/Ownable.sol\":1266:1279  return _owner */\n      swap1\n      pop\n        /* \"@openzeppelin/contracts/access/Ownable.sol\":1201:1286  function owner() public view virtual returns (address) {... */\n      swap1\n      jump\t// out\n        /* \"contracts/Staking.sol\":5213:6288  function unlockNFT(uint256[] calldata _tokenIds, IERC721 nftAddress) external notContract nonReentrant {... */\n    tag_45:\n        /* \"contracts/Staking.sol\":2576:2608  address(msg.sender).isContract() */\n      tag_193\n        /* \"contracts/Staking.sol\":2584:2594  msg.sender */\n      caller\n        /* \"contracts/Staking.sol\":2576:2606  address(msg.sender).isContract */\n      0xffffffffffffffffffffffffffffffffffffffff\n      and\n      tag_72\n        /* \"contracts/Staking.sol\":2576:2608  address(msg.sender).isContract() */\n      jump\t// in\n    tag_193:\n        /* \"contracts/Staking.sol\":2575:2608  !address(msg.sender).isContract() */\n      iszero\n        /* \"contracts/Staking.sol\":2567:2633  require(!address(msg.sender).isContract(), \"Contract not allowed\") */\n      tag_194\n      jumpi\n      mload(0x40)\n      0x08c379a000000000000000000000000000000000000000000000000000000000\n      dup2\n      mstore\n      0x04\n      add\n      tag_195\n      swap1\n      tag_75\n      jump\t// in\n    tag_195:\n      mload(0x40)\n      dup1\n      swap2\n      sub\n      swap1\n      revert\n    tag_194:\n        /* \"contracts/Staking.sol\":2666:2675  tx.origin */\n      origin\n        /* \"contracts/Staking.sol\":2652:2675  msg.sender == tx.origin */\n      0xffffffffffffffffffffffffffffffffffffffff\n      and\n        /* \"contracts/Staking.sol\":2652:2662  msg.sender */\n      caller\n        /* \"contracts/Staking.sol\":2652:2675  msg.sender == tx.origin */\n      0xffffffffffffffffffffffffffffffffffffffff\n      and\n      eq\n        /* \"contracts/Staking.sol\":2644:2706  require(msg.sender == tx.origin, \"Proxy contract not allowed\") */\n      tag_196\n      jumpi\n      mload(0x40)\n      0x08c379a000000000000000000000000000000000000000000000000000000000\n      dup2\n      mstore\n      0x04\n      add\n      tag_197\n      swap1\n      tag_78\n      jump\t// in\n    tag_197:\n      mload(0x40)\n      dup1\n      swap2\n      sub\n      swap1\n      revert\n    tag_196:\n        /* \"@openzeppelin/contracts/security/ReentrancyGuard.sol\":1744:1745  2 */\n      0x02\n        /* \"@openzeppelin/contracts/security/ReentrancyGuard.sol\":2325:2332  _status */\n      sload(0x01)\n        /* \"@openzeppelin/contracts/security/ReentrancyGuard.sol\":2325:2344  _status != _ENTERED */\n      sub\n        /* \"@openzeppelin/contracts/security/ReentrancyGuard.sol\":2317:2380  require(_status != _ENTERED, \"ReentrancyGuard: reentrant call\") */\n      tag_199\n      jumpi\n      mload(0x40)\n      0x08c379a000000000000000000000000000000000000000000000000000000000\n      dup2\n      mstore\n      0x04\n      add\n      tag_200\n      swap1\n      tag_127\n      jump\t// in\n    tag_200:\n      mload(0x40)\n      dup1\n      swap2\n      sub\n      swap1\n      revert\n    tag_199:\n        /* \"@openzeppelin/contracts/security/ReentrancyGuard.sol\":1744:1745  2 */\n      0x02\n        /* \"@openzeppelin/contracts/security/ReentrancyGuard.sol\":2455:2462  _status */\n      0x01\n        /* \"@openzeppelin/contracts/security/ReentrancyGuard.sol\":2455:2473  _status = _ENTERED */\n      dup2\n      swap1\n      sstore\n      pop\n        /* \"contracts/Staking.sol\":5354:5355  0 */\n      0x00\n        /* \"contracts/Staking.sol\":5335:5344  _tokenIds */\n      dup4\n      dup4\n        /* \"contracts/Staking.sol\":5335:5351  _tokenIds.length */\n      swap1\n      pop\n        /* \"contracts/Staking.sol\":5335:5355  _tokenIds.length > 0 */\n      gt\n        /* \"contracts/Staking.sol\":5327:5369  require(_tokenIds.length > 0, \"No tokens\") */\n      tag_202\n      jumpi\n      mload(0x40)\n      0x08c379a000000000000000000000000000000000000000000000000000000000\n      dup2\n      mstore\n      0x04\n      add\n      tag_203\n      swap1\n      tag_82\n      jump\t// in\n    tag_203:\n      mload(0x40)\n      dup1\n      swap2\n      sub\n      swap1\n      revert\n    tag_202:\n        /* \"contracts/Staking.sol\":5387:5396  uint256 i */\n      0x00\n        /* \"contracts/Staking.sol\":5382:6229  for (uint256 i = 0; i < _tokenIds.length; i++) {... */\n    tag_204:\n        /* \"contracts/Staking.sol\":5406:5415  _tokenIds */\n      dup4\n      dup4\n        /* \"contracts/Staking.sol\":5406:5422  _tokenIds.length */\n      swap1\n      pop\n        /* \"contracts/Staking.sol\":5402:5403  i */\n      dup2\n        /* \"contracts/Staking.sol\":5402:5422  i < _tokenIds.length */\n      lt\n        /* \"contracts/Staking.sol\":5382:6229  for (uint256 i = 0; i < _tokenIds.length; i++) {... */\n      iszero\n      tag_205\n      jumpi\n        /* \"contracts/Staking.sol\":5444:5464  LockInfo memory info */\n      0x00\n        /* \"contracts/Staking.sol\":5467:5475  lockInfo */\n      0x03\n        /* \"contracts/Staking.sol\":5467:5496  lockInfo[IERC721(nftAddress)] */\n      0x00\n        /* \"contracts/Staking.sol\":5484:5494  nftAddress */\n      dup5\n        /* \"contracts/Staking.sol\":5467:5496  lockInfo[IERC721(nftAddress)] */\n      0xffffffffffffffffffffffffffffffffffffffff\n      and\n      0xffffffffffffffffffffffffffffffffffffffff\n      and\n      dup2\n      mstore\n      0x20\n      add\n      swap1\n      dup2\n      mstore\n      0x20\n      add\n      0x00\n      keccak256\n        /* \"contracts/Staking.sol\":5467:5510  lockInfo[IERC721(nftAddress)][_tokenIds[i]] */\n      0x00\n        /* \"contracts/Staking.sol\":5497:5506  _tokenIds */\n      dup7\n      dup7\n        /* \"contracts/Staking.sol\":5507:5508  i */\n      dup6\n        /* \"contracts/Staking.sol\":5497:5509  _tokenIds[i] */\n      dup2\n      dup2\n      lt\n      tag_207\n      jumpi\n      tag_208\n      tag_88\n      jump\t// in\n    tag_208:\n    tag_207:\n      swap1\n      pop\n      0x20\n      mul\n      add\n      calldataload\n        /* \"contracts/Staking.sol\":5467:5510  lockInfo[IERC721(nftAddress)][_tokenIds[i]] */\n      dup2\n      mstore\n      0x20\n      add\n      swap1\n      dup2\n      mstore\n      0x20\n      add\n      0x00\n      keccak256\n        /* \"contracts/Staking.sol\":5444:5510  LockInfo memory info = lockInfo[IERC721(nftAddress)][_tokenIds[i]] */\n      mload(0x40)\n      dup1\n      0xa0\n      add\n      0x40\n      mstore\n      swap1\n      dup2\n      0x00\n      dup3\n      add\n      0x00\n      swap1\n      sload\n      swap1\n      0x0100\n      exp\n      swap1\n      div\n      0xffffffffffffffffffffffffffffffffffffffff\n      and\n      0xffffffffffffffffffffffffffffffffffffffff\n      and\n      0xffffffffffffffffffffffffffffffffffffffff\n      and\n      dup2\n      mstore\n      0x20\n      add\n      0x01\n      dup3\n      add\n      sload\n      dup2\n      mstore\n      0x20\n      add\n      0x02\n      dup3\n      add\n      sload\n      dup2\n      mstore\n      0x20\n      add\n      0x03\n      dup3\n      add\n      0x00\n      swap1\n      sload\n      swap1\n      0x0100\n      exp\n      swap1\n      div\n      0xff\n      and\n      iszero\n      iszero\n      iszero\n      iszero\n      dup2\n      mstore\n      0x20\n      add\n      0x03\n      dup3\n      add\n      0x01\n      swap1\n      sload\n      swap1\n      0x0100\n      exp\n      swap1\n      div\n      0xffffffffffffffffffffffffffffffffffffffff\n      and\n      0xffffffffffffffffffffffffffffffffffffffff\n      and\n      0xffffffffffffffffffffffffffffffffffffffff\n      and\n      dup2\n      mstore\n      pop\n      pop\n      swap1\n      pop\n        /* \"contracts/Staking.sol\":5547:5557  msg.sender */\n      caller\n        /* \"contracts/Staking.sol\":5533:5557  info.owner == msg.sender */\n      0xffffffffffffffffffffffffffffffffffffffff\n      and\n        /* \"contracts/Staking.sol\":5533:5537  info */\n      dup2\n        /* \"contracts/Staking.sol\":5533:5543  info.owner */\n      0x00\n      add\n      mload\n        /* \"contracts/Staking.sol\":5533:5557  info.owner == msg.sender */\n      0xffffffffffffffffffffffffffffffffffffffff\n      and\n      eq\n        /* \"contracts/Staking.sol\":5525:5579  require(info.owner == msg.sender, \"Not a token owner\") */\n      tag_209\n      jumpi\n      mload(0x40)\n      0x08c379a000000000000000000000000000000000000000000000000000000000\n      dup2\n      mstore\n      0x04\n      add\n      tag_210\n      swap1\n      tag_91\n      jump\t// in\n    tag_210:\n      mload(0x40)\n      dup1\n      swap2\n      sub\n      swap1\n      revert\n    tag_209:\n        /* \"contracts/Staking.sol\":5633:5648  block.timestamp */\n      timestamp\n        /* \"contracts/Staking.sol\":5620:5630  lockPeriod */\n      sload(0x02)\n        /* \"contracts/Staking.sol\":5602:5606  info */\n      dup3\n        /* \"contracts/Staking.sol\":5602:5617  info.lockedTime */\n      0x20\n      add\n      mload\n        /* \"contracts/Staking.sol\":5602:5630  info.lockedTime + lockPeriod */\n      tag_211\n      swap2\n      swap1\n      tag_93\n      jump\t// in\n    tag_211:\n        /* \"contracts/Staking.sol\":5602:5648  info.lockedTime + lockPeriod < block.timestamp */\n      lt\n        /* \"contracts/Staking.sol\":5594:5675  require(info.lockedTime + lockPeriod < block.timestamp, \"Not able to unlock yet\") */\n      tag_212\n      jumpi\n      mload(0x40)\n      0x08c379a000000000000000000000000000000000000000000000000000000000\n      dup2\n      mstore\n      0x04\n      add\n      tag_213\n      swap1\n      tag_214\n      jump\t// in\n    tag_213:\n      mload(0x40)\n      dup1\n      swap2\n      sub\n      swap1\n      revert\n    tag_212:\n        /* \"contracts/Staking.sol\":5699:5703  info */\n      dup1\n        /* \"contracts/Staking.sol\":5699:5714  info.isUnlocked */\n      0x60\n      add\n      mload\n        /* \"contracts/Staking.sol\":5698:5714  !info.isUnlocked */\n      iszero\n        /* \"contracts/Staking.sol\":5690:5735  require(!info.isUnlocked, \"Already unlocked\") */\n      tag_215\n      jumpi\n      mload(0x40)\n      0x08c379a000000000000000000000000000000000000000000000000000000000\n      dup2\n      mstore\n      0x04\n      add\n      tag_216\n      swap1\n      tag_99\n      jump\t// in\n    tag_216:\n      mload(0x40)\n      dup1\n      swap2\n      sub\n      swap1\n      revert\n    tag_215:\n        /* \"contracts/Staking.sol\":5752:5762  nftAddress */\n      dup3\n        /* \"contracts/Staking.sol\":5752:5775  nftAddress.transferFrom */\n      0xffffffffffffffffffffffffffffffffffffffff\n      and\n      0x23b872dd\n        /* \"contracts/Staking.sol\":5784:5788  this */\n      address\n        /* \"contracts/Staking.sol\":5791:5801  msg.sender */\n      caller\n        /* \"contracts/Staking.sol\":5803:5812  _tokenIds */\n      dup9\n      dup9\n        /* \"contracts/Staking.sol\":5813:5814  i */\n      dup8\n        /* \"contracts/Staking.sol\":5803:5815  _tokenIds[i] */\n      dup2\n      dup2\n      lt\n      tag_217\n      jumpi\n      tag_218\n      tag_88\n      jump\t// in\n    tag_218:\n    tag_217:\n      swap1\n      pop\n      0x20\n      mul\n      add\n      calldataload\n        /* \"contracts/Staking.sol\":5752:5816  nftAddress.transferFrom(address(this), msg.sender, _tokenIds[i]) */\n      mload(0x40)\n      dup5\n      0xffffffff\n      and\n      0xe0\n      shl\n      dup2\n      mstore\n      0x04\n      add\n      tag_219\n      swap4\n      swap3\n      swap2\n      swap1\n      tag_147\n      jump\t// in\n    tag_219:\n      0x00\n      mload(0x40)\n      dup1\n      dup4\n      sub\n      dup2\n      0x00\n      dup8\n      dup1\n      extcodesize\n      iszero\n      dup1\n      iszero\n      tag_220\n      jumpi\n      0x00\n      dup1\n      revert\n    tag_220:\n      pop\n      gas\n      call\n      iszero\n      dup1\n      iszero\n      tag_222\n      jumpi\n      returndatasize\n      0x00\n      dup1\n      returndatacopy\n      revert(0x00, returndatasize)\n    tag_222:\n      pop\n      pop\n      pop\n      pop\n        /* \"contracts/Staking.sol\":5833:5852  uint256 totalAmount */\n      0x00\n        /* \"contracts/Staking.sol\":5855:5894  _rewardAmount(_tokenIds[i], nftAddress) */\n      tag_223\n        /* \"contracts/Staking.sol\":5869:5878  _tokenIds */\n      dup7\n      dup7\n        /* \"contracts/Staking.sol\":5879:5880  i */\n      dup6\n        /* \"contracts/Staking.sol\":5869:5881  _tokenIds[i] */\n      dup2\n      dup2\n      lt\n      tag_224\n      jumpi\n      tag_225\n      tag_88\n      jump\t// in\n    tag_225:\n    tag_224:\n      swap1\n      pop\n      0x20\n      mul\n      add\n      calldataload\n        /* \"contracts/Staking.sol\":5883:5893  nftAddress */\n      dup6\n        /* \"contracts/Staking.sol\":5855:5868  _rewardAmount */\n      tag_103\n        /* \"contracts/Staking.sol\":5855:5894  _rewardAmount(_tokenIds[i], nftAddress) */\n      jump\t// in\n    tag_223:\n        /* \"contracts/Staking.sol\":5833:5894  uint256 totalAmount = _rewardAmount(_tokenIds[i], nftAddress) */\n      swap1\n      pop\n        /* \"contracts/Staking.sol\":5909:5933  uint256 unclaminedAmount */\n      0x00\n        /* \"contracts/Staking.sol\":5950:5954  info */\n      dup3\n        /* \"contracts/Staking.sol\":5950:5969  info.claimedRewards */\n      0x40\n      add\n      mload\n        /* \"contracts/Staking.sol\":5936:5947  totalAmount */\n      dup3\n        /* \"contracts/Staking.sol\":5936:5969  totalAmount - info.claimedRewards */\n      tag_226\n      swap2\n      swap1\n      tag_105\n      jump\t// in\n    tag_226:\n        /* \"contracts/Staking.sol\":5909:5969  uint256 unclaminedAmount = totalAmount - info.claimedRewards */\n      swap1\n      pop\n        /* \"contracts/Staking.sol\":5985:5992  nftInfo */\n      0x04\n        /* \"contracts/Staking.sol\":5985:6004  nftInfo[nftAddress] */\n      0x00\n        /* \"contracts/Staking.sol\":5993:6003  nftAddress */\n      dup7\n        /* \"contracts/Staking.sol\":5985:6004  nftInfo[nftAddress] */\n      0xffffffffffffffffffffffffffffffffffffffff\n      and\n      0xffffffffffffffffffffffffffffffffffffffff\n      and\n      dup2\n      mstore\n      0x20\n      add\n      swap1\n      dup2\n      mstore\n      0x20\n      add\n      0x00\n      keccak256\n        /* \"contracts/Staking.sol\":5985:6017  nftInfo[nftAddress].rewardsToken */\n      0x00\n      add\n      0x00\n      swap1\n      sload\n      swap1\n      0x0100\n      exp\n      swap1\n      div\n      0xffffffffffffffffffffffffffffffffffffffff\n      and\n        /* \"contracts/Staking.sol\":5985:6022  nftInfo[nftAddress].rewardsToken.mint */\n      0xffffffffffffffffffffffffffffffffffffffff\n      and\n      0x40c10f19\n        /* \"contracts/Staking.sol\":6023:6033  msg.sender */\n      caller\n        /* \"contracts/Staking.sol\":6035:6051  unclaminedAmount */\n      dup4\n        /* \"contracts/Staking.sol\":5985:6052  nftInfo[nftAddress].rewardsToken.mint(msg.sender, unclaminedAmount) */\n      mload(0x40)\n      dup4\n      0xffffffff\n      and\n      0xe0\n      shl\n      dup2\n      mstore\n      0x04\n      add\n      tag_227\n      swap3\n      swap2\n      swap1\n      tag_107\n      jump\t// in\n    tag_227:\n      0x00\n      mload(0x40)\n      dup1\n      dup4\n      sub\n      dup2\n      0x00\n      dup8\n      dup1\n      extcodesize\n      iszero\n      dup1\n      iszero\n      tag_228\n      jumpi\n      0x00\n      dup1\n      revert\n    tag_228:\n      pop\n      gas\n      call\n      iszero\n      dup1\n      iszero\n      tag_230\n      jumpi\n      returndatasize\n      0x00\n      dup1\n      returndatacopy\n      revert(0x00, returndatasize)\n    tag_230:\n      pop\n      pop\n      pop\n      pop\n        /* \"contracts/Staking.sol\":6130:6141  totalAmount */\n      dup2\n        /* \"contracts/Staking.sol\":6069:6077  lockInfo */\n      0x03\n        /* \"contracts/Staking.sol\":6069:6098  lockInfo[IERC721(nftAddress)] */\n      0x00\n        /* \"contracts/Staking.sol\":6086:6096  nftAddress */\n      dup8\n        /* \"contracts/Staking.sol\":6069:6098  lockInfo[IERC721(nftAddress)] */\n      0xffffffffffffffffffffffffffffffffffffffff\n      and\n      0xffffffffffffffffffffffffffffffffffffffff\n      and\n      dup2\n      mstore\n      0x20\n      add\n      swap1\n      dup2\n      mstore\n      0x20\n      add\n      0x00\n      keccak256\n        /* \"contracts/Staking.sol\":6069:6112  lockInfo[IERC721(nftAddress)][_tokenIds[i]] */\n      0x00\n        /* \"contracts/Staking.sol\":6099:6108  _tokenIds */\n      dup10\n      dup10\n        /* \"contracts/Staking.sol\":6109:6110  i */\n      dup9\n        /* \"contracts/Staking.sol\":6099:6111  _tokenIds[i] */\n      dup2\n      dup2\n      lt\n      tag_231\n      jumpi\n      tag_232\n      tag_88\n      jump\t// in\n    tag_232:\n    tag_231:\n      swap1\n      pop\n      0x20\n      mul\n      add\n      calldataload\n        /* \"contracts/Staking.sol\":6069:6112  lockInfo[IERC721(nftAddress)][_tokenIds[i]] */\n      dup2\n      mstore\n      0x20\n      add\n      swap1\n      dup2\n      mstore\n      0x20\n      add\n      0x00\n      keccak256\n        /* \"contracts/Staking.sol\":6069:6127  lockInfo[IERC721(nftAddress)][_tokenIds[i]].claimedRewards */\n      0x02\n      add\n        /* \"contracts/Staking.sol\":6069:6141  lockInfo[IERC721(nftAddress)][_tokenIds[i]].claimedRewards = totalAmount */\n      dup2\n      swap1\n      sstore\n      pop\n        /* \"contracts/Staking.sol\":6213:6217  true */\n      0x01\n        /* \"contracts/Staking.sol\":6156:6164  lockInfo */\n      0x03\n        /* \"contracts/Staking.sol\":6156:6185  lockInfo[IERC721(nftAddress)] */\n      0x00\n        /* \"contracts/Staking.sol\":6173:6183  nftAddress */\n      dup8\n        /* \"contracts/Staking.sol\":6156:6185  lockInfo[IERC721(nftAddress)] */\n      0xffffffffffffffffffffffffffffffffffffffff\n      and\n      0xffffffffffffffffffffffffffffffffffffffff\n      and\n      dup2\n      mstore\n      0x20\n      add\n      swap1\n      dup2\n      mstore\n      0x20\n      add\n      0x00\n      keccak256\n        /* \"contracts/Staking.sol\":6156:6199  lockInfo[IERC721(nftAddress)][_tokenIds[i]] */\n      0x00\n        /* \"contracts/Staking.sol\":6186:6195  _tokenIds */\n      dup10\n      dup10\n        /* \"contracts/Staking.sol\":6196:6197  i */\n      dup9\n        /* \"contracts/Staking.sol\":6186:6198  _tokenIds[i] */\n      dup2\n      dup2\n      lt\n      tag_233\n      jumpi\n      tag_234\n      tag_88\n      jump\t// in\n    tag_234:\n    tag_233:\n      swap1\n      pop\n      0x20\n      mul\n      add\n      calldataload\n        /* \"contracts/Staking.sol\":6156:6199  lockInfo[IERC721(nftAddress)][_tokenIds[i]] */\n      dup2\n      mstore\n      0x20\n      add\n      swap1\n      dup2\n      mstore\n      0x20\n      add\n      0x00\n      keccak256\n        /* \"contracts/Staking.sol\":6156:6210  lockInfo[IERC721(nftAddress)][_tokenIds[i]].isUnlocked */\n      0x03\n      add\n      0x00\n        /* \"contracts/Staking.sol\":6156:6217  lockInfo[IERC721(nftAddress)][_tokenIds[i]].isUnlocked = true */\n      0x0100\n      exp\n      dup2\n      sload\n      dup2\n      0xff\n      mul\n      not\n      and\n      swap1\n      dup4\n      iszero\n      iszero\n      mul\n      or\n      swap1\n      sstore\n      pop\n        /* \"contracts/Staking.sol\":5429:6229  {... */\n      pop\n      pop\n      pop\n        /* \"contracts/Staking.sol\":5424:5427  i++ */\n      dup1\n      dup1\n      tag_235\n      swap1\n      tag_115\n      jump\t// in\n    tag_235:\n      swap2\n      pop\n      pop\n        /* \"contracts/Staking.sol\":5382:6229  for (uint256 i = 0; i < _tokenIds.length; i++) {... */\n      jump(tag_204)\n    tag_205:\n      pop\n        /* \"contracts/Staking.sol\":6258:6268  msg.sender */\n      caller\n        /* \"contracts/Staking.sol\":6246:6280  NFTUnLocked(msg.sender, _tokenIds) */\n      0xffffffffffffffffffffffffffffffffffffffff\n      and\n      0x5cb48022479b9ac3bfb10a27965dc010acffc9fc1bc9a52f0b18975b944b54ca\n        /* \"contracts/Staking.sol\":6270:6279  _tokenIds */\n      dup5\n      dup5\n        /* \"contracts/Staking.sol\":6246:6280  NFTUnLocked(msg.sender, _tokenIds) */\n      mload(0x40)\n      tag_236\n      swap3\n      swap2\n      swap1\n      tag_155\n      jump\t// in\n    tag_236:\n      mload(0x40)\n      dup1\n      swap2\n      sub\n      swap1\n      log2\n        /* \"@openzeppelin/contracts/security/ReentrancyGuard.sol\":1701:1702  1 */\n      0x01\n        /* \"@openzeppelin/contracts/security/ReentrancyGuard.sol\":2628:2635  _status */\n      dup1\n        /* \"@openzeppelin/contracts/security/ReentrancyGuard.sol\":2628:2650  _status = _NOT_ENTERED */\n      dup2\n      swap1\n      sstore\n      pop\n        /* \"contracts/Staking.sol\":5213:6288  function unlockNFT(uint256[] calldata _tokenIds, IERC721 nftAddress) external notContract nonReentrant {... */\n      pop\n      pop\n      pop\n      jump\t// out\n        /* \"contracts/Staking.sol\":770:834  mapping(IERC721 => mapping(uint256 => LockInfo)) public lockInfo */\n    tag_49:\n      mstore(0x20, 0x03)\n      dup2\n      0x00\n      mstore\n      mstore(0x20, keccak256(0x00, 0x40))\n      dup1\n      0x00\n      mstore\n      keccak256(0x00, 0x40)\n      0x00\n      swap2\n      pop\n      swap2\n      pop\n      pop\n      dup1\n      0x00\n      add\n      0x00\n      swap1\n      sload\n      swap1\n      0x0100\n      exp\n      swap1\n      div\n      0xffffffffffffffffffffffffffffffffffffffff\n      and\n      swap1\n      dup1\n      0x01\n      add\n      sload\n      swap1\n      dup1\n      0x02\n      add\n      sload\n      swap1\n      dup1\n      0x03\n      add\n      0x00\n      swap1\n      sload\n      swap1\n      0x0100\n      exp\n      swap1\n      div\n      0xff\n      and\n      swap1\n      dup1\n      0x03\n      add\n      0x01\n      swap1\n      sload\n      swap1\n      0x0100\n      exp\n      swap1\n      div\n      0xffffffffffffffffffffffffffffffffffffffff\n      and\n      swap1\n      pop\n      dup6\n      jump\t// out\n        /* \"contracts/Staking.sol\":4194:4368  function claimedRewards(uint256 _tokenId, IERC721 nftAddress) external view returns (uint256) {... */\n    tag_55:\n        /* \"contracts/Staking.sol\":4279:4286  uint256 */\n      0x00\n        /* \"contracts/Staking.sol\":4306:4314  lockInfo */\n      0x03\n        /* \"contracts/Staking.sol\":4306:4335  lockInfo[IERC721(nftAddress)] */\n      0x00\n        /* \"contracts/Staking.sol\":4323:4333  nftAddress */\n      dup4\n        /* \"contracts/Staking.sol\":4306:4335  lockInfo[IERC721(nftAddress)] */\n      0xffffffffffffffffffffffffffffffffffffffff\n      and\n      0xffffffffffffffffffffffffffffffffffffffff\n      and\n      dup2\n      mstore\n      0x20\n      add\n      swap1\n      dup2\n      mstore\n      0x20\n      add\n      0x00\n      keccak256\n        /* \"contracts/Staking.sol\":4306:4345  lockInfo[IERC721(nftAddress)][_tokenId] */\n      0x00\n        /* \"contracts/Staking.sol\":4336:4344  _tokenId */\n      dup5\n        /* \"contracts/Staking.sol\":4306:4345  lockInfo[IERC721(nftAddress)][_tokenId] */\n      dup2\n      mstore\n      0x20\n      add\n      swap1\n      dup2\n      mstore\n      0x20\n      add\n      0x00\n      keccak256\n        /* \"contracts/Staking.sol\":4306:4360  lockInfo[IERC721(nftAddress)][_tokenId].claimedRewards */\n      0x02\n      add\n      sload\n        /* \"contracts/Staking.sol\":4299:4360  return lockInfo[IERC721(nftAddress)][_tokenId].claimedRewards */\n      swap1\n      pop\n        /* \"contracts/Staking.sol\":4194:4368  function claimedRewards(uint256 _tokenId, IERC721 nftAddress) external view returns (uint256) {... */\n      swap3\n      swap2\n      pop\n      pop\n      jump\t// out\n        /* \"contracts/Staking.sol\":1099:1118  uint256 public WAVE */\n    tag_58:\n      sload(0x05)\n      dup2\n      jump\t// out\n        /* \"contracts/Staking.sol\":1016:1063  mapping(IERC721 => stakeNftInfo) public nftInfo */\n    tag_63:\n      mstore(0x20, 0x04)\n      dup1\n      0x00\n      mstore\n      keccak256(0x00, 0x40)\n      0x00\n      swap2\n      pop\n      swap1\n      pop\n      dup1\n      0x00\n      add\n      0x00\n      swap1\n      sload\n      swap1\n      0x0100\n      exp\n      swap1\n      div\n      0xffffffffffffffffffffffffffffffffffffffff\n      and\n      swap1\n      dup1\n      0x01\n      add\n      sload\n      swap1\n      dup1\n      0x02\n      add\n      sload\n      swap1\n      pop\n      dup4\n      jump\t// out\n        /* \"@openzeppelin/contracts/access/Ownable.sol\":2081:2279  function transferOwnership(address newOwner) public virtual onlyOwner {... */\n    tag_69:\n        /* \"@openzeppelin/contracts/access/Ownable.sol\":1094:1107  _checkOwner() */\n      tag_239\n        /* \"@openzeppelin/contracts/access/Ownable.sol\":1094:1105  _checkOwner */\n      tag_158\n        /* \"@openzeppelin/contracts/access/Ownable.sol\":1094:1107  _checkOwner() */\n      jump\t// in\n    tag_239:\n        /* \"@openzeppelin/contracts/access/Ownable.sol\":2189:2190  0 */\n      0x00\n        /* \"@openzeppelin/contracts/access/Ownable.sol\":2169:2191  newOwner != address(0) */\n      0xffffffffffffffffffffffffffffffffffffffff\n      and\n        /* \"@openzeppelin/contracts/access/Ownable.sol\":2169:2177  newOwner */\n      dup2\n        /* \"@openzeppelin/contracts/access/Ownable.sol\":2169:2191  newOwner != address(0) */\n      0xffffffffffffffffffffffffffffffffffffffff\n      and\n      sub\n        /* \"@openzeppelin/contracts/access/Ownable.sol\":2161:2234  require(newOwner != address(0), \"Ownable: new owner is the zero address\") */\n      tag_241\n      jumpi\n      mload(0x40)\n      0x08c379a000000000000000000000000000000000000000000000000000000000\n      dup2\n      mstore\n      0x04\n      add\n      tag_242\n      swap1\n      tag_243\n      jump\t// in\n    tag_242:\n      mload(0x40)\n      dup1\n      swap2\n      sub\n      swap1\n      revert\n    tag_241:\n        /* \"@openzeppelin/contracts/access/Ownable.sol\":2244:2272  _transferOwnership(newOwner) */\n      tag_244\n        /* \"@openzeppelin/contracts/access/Ownable.sol\":2263:2271  newOwner */\n      dup2\n        /* \"@openzeppelin/contracts/access/Ownable.sol\":2244:2262  _transferOwnership */\n      tag_161\n        /* \"@openzeppelin/contracts/access/Ownable.sol\":2244:2272  _transferOwnership(newOwner) */\n      jump\t// in\n    tag_244:\n        /* \"@openzeppelin/contracts/access/Ownable.sol\":2081:2279  function transferOwnership(address newOwner) public virtual onlyOwner {... */\n      pop\n      jump\t// out\n        /* \"@openzeppelin/contracts/utils/Address.sol\":1175:1495  function isContract(address account) internal view returns (bool) {... */\n    tag_72:\n        /* \"@openzeppelin/contracts/utils/Address.sol\":1235:1239  bool */\n      0x00\n        /* \"@openzeppelin/contracts/utils/Address.sol\":1487:1488  0 */\n      dup1\n        /* \"@openzeppelin/contracts/utils/Address.sol\":1465:1472  account */\n      dup3\n        /* \"@openzeppelin/contracts/utils/Address.sol\":1465:1484  account.code.length */\n      0xffffffffffffffffffffffffffffffffffffffff\n      and\n      extcodesize\n        /* \"@openzeppelin/contracts/utils/Address.sol\":1465:1488  account.code.length > 0 */\n      gt\n        /* \"@openzeppelin/contracts/utils/Address.sol\":1458:1488  return account.code.length > 0 */\n      swap1\n      pop\n        /* \"@openzeppelin/contracts/utils/Address.sol\":1175:1495  function isContract(address account) internal view returns (bool) {... */\n      swap2\n      swap1\n      pop\n      jump\t// out\n        /* \"contracts/Staking.sol\":7449:7961  function _rewardAmount(uint256 _tokenId, IERC721 nftAddress) internal view returns (uint256) {... */\n    tag_103:\n        /* \"contracts/Staking.sol\":7533:7540  uint256 */\n      0x00\n        /* \"contracts/Staking.sol\":7553:7573  LockInfo memory info */\n      dup1\n        /* \"contracts/Staking.sol\":7576:7584  lockInfo */\n      0x03\n        /* \"contracts/Staking.sol\":7576:7605  lockInfo[IERC721(nftAddress)] */\n      0x00\n        /* \"contracts/Staking.sol\":7593:7603  nftAddress */\n      dup5\n        /* \"contracts/Staking.sol\":7576:7605  lockInfo[IERC721(nftAddress)] */\n      0xffffffffffffffffffffffffffffffffffffffff\n      and\n      0xffffffffffffffffffffffffffffffffffffffff\n      and\n      dup2\n      mstore\n      0x20\n      add\n      swap1\n      dup2\n      mstore\n      0x20\n      add\n      0x00\n      keccak256\n        /* \"contracts/Staking.sol\":7576:7615  lockInfo[IERC721(nftAddress)][_tokenId] */\n      0x00\n        /* \"contracts/Staking.sol\":7606:7614  _tokenId */\n      dup6\n        /* \"contracts/Staking.sol\":7576:7615  lockInfo[IERC721(nftAddress)][_tokenId] */\n      dup2\n      mstore\n      0x20\n      add\n      swap1\n      dup2\n      mstore\n      0x20\n      add\n      0x00\n      keccak256\n        /* \"contracts/Staking.sol\":7553:7615  LockInfo memory info = lockInfo[IERC721(nftAddress)][_tokenId] */\n      mload(0x40)\n      dup1\n      0xa0\n      add\n      0x40\n      mstore\n      swap1\n      dup2\n      0x00\n      dup3\n      add\n      0x00\n      swap1\n      sload\n      swap1\n      0x0100\n      exp\n      swap1\n      div\n      0xffffffffffffffffffffffffffffffffffffffff\n      and\n      0xffffffffffffffffffffffffffffffffffffffff\n      and\n      0xffffffffffffffffffffffffffffffffffffffff\n      and\n      dup2\n      mstore\n      0x20\n      add\n      0x01\n      dup3\n      add\n      sload\n      dup2\n      mstore\n      0x20\n      add\n      0x02\n      dup3\n      add\n      sload\n      dup2\n      mstore\n      0x20\n      add\n      0x03\n      dup3\n      add\n      0x00\n      swap1\n      sload\n      swap1\n      0x0100\n      exp\n      swap1\n      div\n      0xff\n      and\n      iszero\n      iszero\n      iszero\n      iszero\n      dup2\n      mstore\n      0x20\n      add\n      0x03\n      dup3\n      add\n      0x01\n      swap1\n      sload\n      swap1\n      0x0100\n      exp\n      swap1\n      div\n      0xffffffffffffffffffffffffffffffffffffffff\n      and\n      0xffffffffffffffffffffffffffffffffffffffff\n      and\n      0xffffffffffffffffffffffffffffffffffffffff\n      and\n      dup2\n      mstore\n      pop\n      pop\n      swap1\n      pop\n        /* \"contracts/Staking.sol\":7626:7649  uint256 stakingDuration */\n      0x00\n        /* \"contracts/Staking.sol\":7670:7674  info */\n      dup2\n        /* \"contracts/Staking.sol\":7670:7685  info.lockedTime */\n      0x20\n      add\n      mload\n        /* \"contracts/Staking.sol\":7652:7667  block.timestamp */\n      timestamp\n        /* \"contracts/Staking.sol\":7652:7685  block.timestamp - info.lockedTime */\n      tag_247\n      swap2\n      swap1\n      tag_105\n      jump\t// in\n    tag_247:\n        /* \"contracts/Staking.sol\":7626:7685  uint256 stakingDuration = block.timestamp - info.lockedTime */\n      swap1\n      pop\n        /* \"contracts/Staking.sol\":7696:7715  uint256 totalAmount */\n      0x00\n        /* \"contracts/Staking.sol\":7750:7760  lockPeriod */\n      sload(0x02)\n        /* \"contracts/Staking.sol\":7732:7747  stakingDuration */\n      dup3\n        /* \"contracts/Staking.sol\":7732:7760  stakingDuration < lockPeriod */\n      lt\n        /* \"contracts/Staking.sol\":7728:7954  if (stakingDuration < lockPeriod) {... */\n      iszero\n      tag_248\n      jumpi\n        /* \"contracts/Staking.sol\":7784:7785  0 */\n      0x00\n        /* \"contracts/Staking.sol\":7777:7785  return 0 */\n      swap4\n      pop\n      pop\n      pop\n      pop\n      jump(tag_246)\n        /* \"contracts/Staking.sol\":7728:7954  if (stakingDuration < lockPeriod) {... */\n    tag_248:\n        /* \"contracts/Staking.sol\":7905:7909  WAVE */\n      sload(0x05)\n        /* \"contracts/Staking.sol\":7890:7900  lockPeriod */\n      sload(0x02)\n        /* \"contracts/Staking.sol\":7872:7887  stakingDuration */\n      dup4\n        /* \"contracts/Staking.sol\":7872:7900  stakingDuration - lockPeriod */\n      tag_250\n      swap2\n      swap1\n      tag_105\n      jump\t// in\n    tag_250:\n        /* \"contracts/Staking.sol\":7834:7841  nftInfo */\n      0x04\n        /* \"contracts/Staking.sol\":7834:7853  nftInfo[nftAddress] */\n      0x00\n        /* \"contracts/Staking.sol\":7842:7852  nftAddress */\n      dup9\n        /* \"contracts/Staking.sol\":7834:7853  nftInfo[nftAddress] */\n      0xffffffffffffffffffffffffffffffffffffffff\n      and\n      0xffffffffffffffffffffffffffffffffffffffff\n      and\n      dup2\n      mstore\n      0x20\n      add\n      swap1\n      dup2\n      mstore\n      0x20\n      add\n      0x00\n      keccak256\n        /* \"contracts/Staking.sol\":7834:7868  nftInfo[nftAddress].rewardsPerWave */\n      0x01\n      add\n      sload\n        /* \"contracts/Staking.sol\":7834:7901  nftInfo[nftAddress].rewardsPerWave * (stakingDuration - lockPeriod) */\n      tag_251\n      swap2\n      swap1\n      tag_252\n      jump\t// in\n    tag_251:\n        /* \"contracts/Staking.sol\":7832:7909  ( nftInfo[nftAddress].rewardsPerWave * (stakingDuration - lockPeriod)) / WAVE */\n      tag_253\n      swap2\n      swap1\n      tag_254\n      jump\t// in\n    tag_253:\n        /* \"contracts/Staking.sol\":7818:7909  totalAmount = ( nftInfo[nftAddress].rewardsPerWave * (stakingDuration - lockPeriod)) / WAVE */\n      swap1\n      pop\n        /* \"contracts/Staking.sol\":7931:7942  totalAmount */\n      dup1\n        /* \"contracts/Staking.sol\":7924:7942  return totalAmount */\n      swap4\n      pop\n      pop\n      pop\n      pop\n        /* \"contracts/Staking.sol\":7449:7961  function _rewardAmount(uint256 _tokenId, IERC721 nftAddress) internal view returns (uint256) {... */\n    tag_246:\n      swap3\n      swap2\n      pop\n      pop\n      jump\t// out\n        /* \"@openzeppelin/contracts/access/Ownable.sol\":1359:1489  function _checkOwner() internal view virtual {... */\n    tag_158:\n        /* \"@openzeppelin/contracts/access/Ownable.sol\":1433:1445  _msgSender() */\n      tag_256\n        /* \"@openzeppelin/contracts/access/Ownable.sol\":1433:1443  _msgSender */\n      tag_257\n        /* \"@openzeppelin/contracts/access/Ownable.sol\":1433:1445  _msgSender() */\n      jump\t// in\n    tag_256:\n        /* \"@openzeppelin/contracts/access/Ownable.sol\":1422:1445  owner() == _msgSender() */\n      0xffffffffffffffffffffffffffffffffffffffff\n      and\n        /* \"@openzeppelin/contracts/access/Ownable.sol\":1422:1429  owner() */\n      tag_258\n        /* \"@openzeppelin/contracts/access/Ownable.sol\":1422:1427  owner */\n      tag_40\n        /* \"@openzeppelin/contracts/access/Ownable.sol\":1422:1429  owner() */\n      jump\t// in\n    tag_258:\n        /* \"@openzeppelin/contracts/access/Ownable.sol\":1422:1445  owner() == _msgSender() */\n      0xffffffffffffffffffffffffffffffffffffffff\n      and\n      eq\n        /* \"@openzeppelin/contracts/access/Ownable.sol\":1414:1482  require(owner() == _msgSender(), \"Ownable: caller is not the owner\") */\n      tag_259\n      jumpi\n      mload(0x40)\n      0x08c379a000000000000000000000000000000000000000000000000000000000\n      dup2\n      mstore\n      0x04\n      add\n      tag_260\n      swap1\n      tag_261\n      jump\t// in\n    tag_260:\n      mload(0x40)\n      dup1\n      swap2\n      sub\n      swap1\n      revert\n    tag_259:\n        /* \"@openzeppelin/contracts/access/Ownable.sol\":1359:1489  function _checkOwner() internal view virtual {... */\n      jump\t// out\n        /* \"@openzeppelin/contracts/access/Ownable.sol\":2433:2620  function _transferOwnership(address newOwner) internal virtual {... */\n    tag_161:\n        /* \"@openzeppelin/contracts/access/Ownable.sol\":2506:2522  address oldOwner */\n      0x00\n        /* \"@openzeppelin/contracts/access/Ownable.sol\":2525:2531  _owner */\n      dup1\n      0x00\n      swap1\n      sload\n      swap1\n      0x0100\n      exp\n      swap1\n      div\n      0xffffffffffffffffffffffffffffffffffffffff\n      and\n        /* \"@openzeppelin/contracts/access/Ownable.sol\":2506:2531  address oldOwner = _owner */\n      swap1\n      pop\n        /* \"@openzeppelin/contracts/access/Ownable.sol\":2550:2558  newOwner */\n      dup2\n        /* \"@openzeppelin/contracts/access/Ownable.sol\":2541:2547  _owner */\n      0x00\n      dup1\n        /* \"@openzeppelin/contracts/access/Ownable.sol\":2541:2558  _owner = newOwner */\n      0x0100\n      exp\n      dup2\n      sload\n      dup2\n      0xffffffffffffffffffffffffffffffffffffffff\n      mul\n      not\n      and\n      swap1\n      dup4\n      0xffffffffffffffffffffffffffffffffffffffff\n      and\n      mul\n      or\n      swap1\n      sstore\n      pop\n        /* \"@openzeppelin/contracts/access/Ownable.sol\":2604:2612  newOwner */\n      dup2\n        /* \"@openzeppelin/contracts/access/Ownable.sol\":2573:2613  OwnershipTransferred(oldOwner, newOwner) */\n      0xffffffffffffffffffffffffffffffffffffffff\n      and\n        /* \"@openzeppelin/contracts/access/Ownable.sol\":2594:2602  oldOwner */\n      dup2\n        /* \"@openzeppelin/contracts/access/Ownable.sol\":2573:2613  OwnershipTransferred(oldOwner, newOwner) */\n      0xffffffffffffffffffffffffffffffffffffffff\n      and\n      0x8be0079c531659141344cd1fd0a4f28419497f9722a3daafe3b4186f6b6457e0\n      mload(0x40)\n      mload(0x40)\n      dup1\n      swap2\n      sub\n      swap1\n      log3\n        /* \"@openzeppelin/contracts/access/Ownable.sol\":2496:2620  {... */\n      pop\n        /* \"@openzeppelin/contracts/access/Ownable.sol\":2433:2620  function _transferOwnership(address newOwner) internal virtual {... */\n      pop\n      jump\t// out\n        /* \"@openzeppelin/contracts/utils/Context.sol\":640:736  function _msgSender() internal view virtual returns (address) {... */\n    tag_257:\n        /* \"@openzeppelin/contracts/utils/Context.sol\":693:700  address */\n      0x00\n        /* \"@openzeppelin/contracts/utils/Context.sol\":719:729  msg.sender */\n      caller\n        /* \"@openzeppelin/contracts/utils/Context.sol\":712:729  return msg.sender */\n      swap1\n      pop\n        /* \"@openzeppelin/contracts/utils/Context.sol\":640:736  function _msgSender() internal view virtual returns (address) {... */\n      swap1\n      jump\t// out\n        /* \"#utility.yul\":7:82   */\n    tag_264:\n        /* \"#utility.yul\":40:46   */\n      0x00\n        /* \"#utility.yul\":73:75   */\n      0x40\n        /* \"#utility.yul\":67:76   */\n      mload\n        /* \"#utility.yul\":57:76   */\n      swap1\n      pop\n        /* \"#utility.yul\":7:82   */\n      swap1\n      jump\t// out\n        /* \"#utility.yul\":88:205   */\n    tag_265:\n        /* \"#utility.yul\":197:198   */\n      0x00\n        /* \"#utility.yul\":194:195   */\n      dup1\n        /* \"#utility.yul\":187:199   */\n      revert\n        /* \"#utility.yul\":211:328   */\n    tag_266:\n        /* \"#utility.yul\":320:321   */\n      0x00\n        /* \"#utility.yul\":317:318   */\n      dup1\n        /* \"#utility.yul\":310:322   */\n      revert\n        /* \"#utility.yul\":334:451   */\n    tag_267:\n        /* \"#utility.yul\":443:444   */\n      0x00\n        /* \"#utility.yul\":440:441   */\n      dup1\n        /* \"#utility.yul\":433:445   */\n      revert\n        /* \"#utility.yul\":457:574   */\n    tag_268:\n        /* \"#utility.yul\":566:567   */\n      0x00\n        /* \"#utility.yul\":563:564   */\n      dup1\n        /* \"#utility.yul\":556:568   */\n      revert\n        /* \"#utility.yul\":580:697   */\n    tag_269:\n        /* \"#utility.yul\":689:690   */\n      0x00\n        /* \"#utility.yul\":686:687   */\n      dup1\n        /* \"#utility.yul\":679:691   */\n      revert\n        /* \"#utility.yul\":720:1288   */\n    tag_270:\n        /* \"#utility.yul\":793:801   */\n      0x00\n        /* \"#utility.yul\":803:809   */\n      dup1\n        /* \"#utility.yul\":853:856   */\n      dup4\n        /* \"#utility.yul\":846:850   */\n      0x1f\n        /* \"#utility.yul\":838:844   */\n      dup5\n        /* \"#utility.yul\":834:851   */\n      add\n        /* \"#utility.yul\":830:857   */\n      slt\n        /* \"#utility.yul\":820:942   */\n      tag_344\n      jumpi\n        /* \"#utility.yul\":861:940   */\n      tag_345\n      tag_267\n      jump\t// in\n    tag_345:\n        /* \"#utility.yul\":820:942   */\n    tag_344:\n        /* \"#utility.yul\":974:980   */\n      dup3\n        /* \"#utility.yul\":961:981   */\n      calldataload\n        /* \"#utility.yul\":951:981   */\n      swap1\n      pop\n        /* \"#utility.yul\":1004:1022   */\n      0xffffffffffffffff\n        /* \"#utility.yul\":996:1002   */\n      dup2\n        /* \"#utility.yul\":993:1023   */\n      gt\n        /* \"#utility.yul\":990:1107   */\n      iszero\n      tag_346\n      jumpi\n        /* \"#utility.yul\":1026:1105   */\n      tag_347\n      tag_268\n      jump\t// in\n    tag_347:\n        /* \"#utility.yul\":990:1107   */\n    tag_346:\n        /* \"#utility.yul\":1140:1144   */\n      0x20\n        /* \"#utility.yul\":1132:1138   */\n      dup4\n        /* \"#utility.yul\":1128:1145   */\n      add\n        /* \"#utility.yul\":1116:1145   */\n      swap2\n      pop\n        /* \"#utility.yul\":1194:1197   */\n      dup4\n        /* \"#utility.yul\":1186:1190   */\n      0x20\n        /* \"#utility.yul\":1178:1184   */\n      dup3\n        /* \"#utility.yul\":1174:1191   */\n      mul\n        /* \"#utility.yul\":1164:1172   */\n      dup4\n        /* \"#utility.yul\":1160:1192   */\n      add\n        /* \"#utility.yul\":1157:1198   */\n      gt\n        /* \"#utility.yul\":1154:1282   */\n      iszero\n      tag_348\n      jumpi\n        /* \"#utility.yul\":1201:1280   */\n      tag_349\n      tag_269\n      jump\t// in\n    tag_349:\n        /* \"#utility.yul\":1154:1282   */\n    tag_348:\n        /* \"#utility.yul\":720:1288   */\n      swap3\n      pop\n      swap3\n      swap1\n      pop\n      jump\t// out\n        /* \"#utility.yul\":1294:1420   */\n    tag_271:\n        /* \"#utility.yul\":1331:1338   */\n      0x00\n        /* \"#utility.yul\":1371:1413   */\n      0xffffffffffffffffffffffffffffffffffffffff\n        /* \"#utility.yul\":1364:1369   */\n      dup3\n        /* \"#utility.yul\":1360:1414   */\n      and\n        /* \"#utility.yul\":1349:1414   */\n      swap1\n      pop\n        /* \"#utility.yul\":1294:1420   */\n      swap2\n      swap1\n      pop\n      jump\t// out\n        /* \"#utility.yul\":1426:1522   */\n    tag_272:\n        /* \"#utility.yul\":1463:1470   */\n      0x00\n        /* \"#utility.yul\":1492:1516   */\n      tag_352\n        /* \"#utility.yul\":1510:1515   */\n      dup3\n        /* \"#utility.yul\":1492:1516   */\n      tag_271\n      jump\t// in\n    tag_352:\n        /* \"#utility.yul\":1481:1516   */\n      swap1\n      pop\n        /* \"#utility.yul\":1426:1522   */\n      swap2\n      swap1\n      pop\n      jump\t// out\n        /* \"#utility.yul\":1528:1639   */\n    tag_273:\n        /* \"#utility.yul\":1580:1587   */\n      0x00\n        /* \"#utility.yul\":1609:1633   */\n      tag_354\n        /* \"#utility.yul\":1627:1632   */\n      dup3\n        /* \"#utility.yul\":1609:1633   */\n      tag_272\n      jump\t// in\n    tag_354:\n        /* \"#utility.yul\":1598:1633   */\n      swap1\n      pop\n        /* \"#utility.yul\":1528:1639   */\n      swap2\n      swap1\n      pop\n      jump\t// out\n        /* \"#utility.yul\":1645:1797   */\n    tag_274:\n        /* \"#utility.yul\":1733:1772   */\n      tag_356\n        /* \"#utility.yul\":1766:1771   */\n      dup2\n        /* \"#utility.yul\":1733:1772   */\n      tag_273\n      jump\t// in\n    tag_356:\n        /* \"#utility.yul\":1726:1731   */\n      dup2\n        /* \"#utility.yul\":1723:1773   */\n      eq\n        /* \"#utility.yul\":1713:1791   */\n      tag_357\n      jumpi\n        /* \"#utility.yul\":1787:1788   */\n      0x00\n        /* \"#utility.yul\":1784:1785   */\n      dup1\n        /* \"#utility.yul\":1777:1789   */\n      revert\n        /* \"#utility.yul\":1713:1791   */\n    tag_357:\n        /* \"#utility.yul\":1645:1797   */\n      pop\n      jump\t// out\n        /* \"#utility.yul\":1803:1972   */\n    tag_275:\n        /* \"#utility.yul\":1864:1869   */\n      0x00\n        /* \"#utility.yul\":1902:1908   */\n      dup2\n        /* \"#utility.yul\":1889:1909   */\n      calldataload\n        /* \"#utility.yul\":1880:1909   */\n      swap1\n      pop\n        /* \"#utility.yul\":1918:1966   */\n      tag_359\n        /* \"#utility.yul\":1960:1965   */\n      dup2\n        /* \"#utility.yul\":1918:1966   */\n      tag_274\n      jump\t// in\n    tag_359:\n        /* \"#utility.yul\":1803:1972   */\n      swap3\n      swap2\n      pop\n      pop\n      jump\t// out\n        /* \"#utility.yul\":1978:2712   */\n    tag_20:\n        /* \"#utility.yul\":2088:2094   */\n      0x00\n        /* \"#utility.yul\":2096:2102   */\n      dup1\n        /* \"#utility.yul\":2104:2110   */\n      0x00\n        /* \"#utility.yul\":2153:2155   */\n      0x40\n        /* \"#utility.yul\":2141:2150   */\n      dup5\n        /* \"#utility.yul\":2132:2139   */\n      dup7\n        /* \"#utility.yul\":2128:2151   */\n      sub\n        /* \"#utility.yul\":2124:2156   */\n      slt\n        /* \"#utility.yul\":2121:2240   */\n      iszero\n      tag_361\n      jumpi\n        /* \"#utility.yul\":2159:2238   */\n      tag_362\n      tag_265\n      jump\t// in\n    tag_362:\n        /* \"#utility.yul\":2121:2240   */\n    tag_361:\n        /* \"#utility.yul\":2307:2308   */\n      0x00\n        /* \"#utility.yul\":2296:2305   */\n      dup5\n        /* \"#utility.yul\":2292:2309   */\n      add\n        /* \"#utility.yul\":2279:2310   */\n      calldataload\n        /* \"#utility.yul\":2337:2355   */\n      0xffffffffffffffff\n        /* \"#utility.yul\":2329:2335   */\n      dup2\n        /* \"#utility.yul\":2326:2356   */\n      gt\n        /* \"#utility.yul\":2323:2440   */\n      iszero\n      tag_363\n      jumpi\n        /* \"#utility.yul\":2359:2438   */\n      tag_364\n      tag_266\n      jump\t// in\n    tag_364:\n        /* \"#utility.yul\":2323:2440   */\n    tag_363:\n        /* \"#utility.yul\":2472:2552   */\n      tag_365\n        /* \"#utility.yul\":2544:2551   */\n      dup7\n        /* \"#utility.yul\":2535:2541   */\n      dup3\n        /* \"#utility.yul\":2524:2533   */\n      dup8\n        /* \"#utility.yul\":2520:2542   */\n      add\n        /* \"#utility.yul\":2472:2552   */\n      tag_270\n      jump\t// in\n    tag_365:\n        /* \"#utility.yul\":2454:2552   */\n      swap4\n      pop\n      swap4\n      pop\n        /* \"#utility.yul\":2250:2562   */\n      pop\n        /* \"#utility.yul\":2601:2603   */\n      0x20\n        /* \"#utility.yul\":2627:2695   */\n      tag_366\n        /* \"#utility.yul\":2687:2694   */\n      dup7\n        /* \"#utility.yul\":2678:2684   */\n      dup3\n        /* \"#utility.yul\":2667:2676   */\n      dup8\n        /* \"#utility.yul\":2663:2685   */\n      add\n        /* \"#utility.yul\":2627:2695   */\n      tag_275\n      jump\t// in\n    tag_366:\n        /* \"#utility.yul\":2617:2695   */\n      swap2\n      pop\n        /* \"#utility.yul\":2572:2705   */\n      pop\n        /* \"#utility.yul\":1978:2712   */\n      swap3\n      pop\n      swap3\n      pop\n      swap3\n      jump\t// out\n        /* \"#utility.yul\":2718:2795   */\n    tag_276:\n        /* \"#utility.yul\":2755:2762   */\n      0x00\n        /* \"#utility.yul\":2784:2789   */\n      dup2\n        /* \"#utility.yul\":2773:2789   */\n      swap1\n      pop\n        /* \"#utility.yul\":2718:2795   */\n      swap2\n      swap1\n      pop\n      jump\t// out\n        /* \"#utility.yul\":2801:2919   */\n    tag_277:\n        /* \"#utility.yul\":2888:2912   */\n      tag_369\n        /* \"#utility.yul\":2906:2911   */\n      dup2\n        /* \"#utility.yul\":2888:2912   */\n      tag_276\n      jump\t// in\n    tag_369:\n        /* \"#utility.yul\":2883:2886   */\n      dup3\n        /* \"#utility.yul\":2876:2913   */\n      mstore\n        /* \"#utility.yul\":2801:2919   */\n      pop\n      pop\n      jump\t// out\n        /* \"#utility.yul\":2925:3147   */\n    tag_28:\n        /* \"#utility.yul\":3018:3022   */\n      0x00\n        /* \"#utility.yul\":3056:3058   */\n      0x20\n        /* \"#utility.yul\":3045:3054   */\n      dup3\n        /* \"#utility.yul\":3041:3059   */\n      add\n        /* \"#utility.yul\":3033:3059   */\n      swap1\n      pop\n        /* \"#utility.yul\":3069:3140   */\n      tag_371\n        /* \"#utility.yul\":3137:3138   */\n      0x00\n        /* \"#utility.yul\":3126:3135   */\n      dup4\n        /* \"#utility.yul\":3122:3139   */\n      add\n        /* \"#utility.yul\":3113:3119   */\n      dup5\n        /* \"#utility.yul\":3069:3140   */\n      tag_277\n      jump\t// in\n    tag_371:\n        /* \"#utility.yul\":2925:3147   */\n      swap3\n      swap2\n      pop\n      pop\n      jump\t// out\n        /* \"#utility.yul\":3153:3275   */\n    tag_278:\n        /* \"#utility.yul\":3226:3250   */\n      tag_373\n        /* \"#utility.yul\":3244:3249   */\n      dup2\n        /* \"#utility.yul\":3226:3250   */\n      tag_276\n      jump\t// in\n    tag_373:\n        /* \"#utility.yul\":3219:3224   */\n      dup2\n        /* \"#utility.yul\":3216:3251   */\n      eq\n        /* \"#utility.yul\":3206:3269   */\n      tag_374\n      jumpi\n        /* \"#utility.yul\":3265:3266   */\n      0x00\n        /* \"#utility.yul\":3262:3263   */\n      dup1\n        /* \"#utility.yul\":3255:3267   */\n      revert\n        /* \"#utility.yul\":3206:3269   */\n    tag_374:\n        /* \"#utility.yul\":3153:3275   */\n      pop\n      jump\t// out\n        /* \"#utility.yul\":3281:3420   */\n    tag_279:\n        /* \"#utility.yul\":3327:3332   */\n      0x00\n        /* \"#utility.yul\":3365:3371   */\n      dup2\n        /* \"#utility.yul\":3352:3372   */\n      calldataload\n        /* \"#utility.yul\":3343:3372   */\n      swap1\n      pop\n        /* \"#utility.yul\":3381:3414   */\n      tag_376\n        /* \"#utility.yul\":3408:3413   */\n      dup2\n        /* \"#utility.yul\":3381:3414   */\n      tag_278\n      jump\t// in\n    tag_376:\n        /* \"#utility.yul\":3281:3420   */\n      swap3\n      swap2\n      pop\n      pop\n      jump\t// out\n        /* \"#utility.yul\":3426:3755   */\n    tag_33:\n        /* \"#utility.yul\":3485:3491   */\n      0x00\n        /* \"#utility.yul\":3534:3536   */\n      0x20\n        /* \"#utility.yul\":3522:3531   */\n      dup3\n        /* \"#utility.yul\":3513:3520   */\n      dup5\n        /* \"#utility.yul\":3509:3532   */\n      sub\n        /* \"#utility.yul\":3505:3537   */\n      slt\n        /* \"#utility.yul\":3502:3621   */\n      iszero\n      tag_378\n      jumpi\n        /* \"#utility.yul\":3540:3619   */\n      tag_379\n      tag_265\n      jump\t// in\n    tag_379:\n        /* \"#utility.yul\":3502:3621   */\n    tag_378:\n        /* \"#utility.yul\":3660:3661   */\n      0x00\n        /* \"#utility.yul\":3685:3738   */\n      tag_380\n        /* \"#utility.yul\":3730:3737   */\n      dup5\n        /* \"#utility.yul\":3721:3727   */\n      dup3\n        /* \"#utility.yul\":3710:3719   */\n      dup6\n        /* \"#utility.yul\":3706:3728   */\n      add\n        /* \"#utility.yul\":3685:3738   */\n      tag_279\n      jump\t// in\n    tag_380:\n        /* \"#utility.yul\":3675:3738   */\n      swap2\n      pop\n        /* \"#utility.yul\":3631:3748   */\n      pop\n        /* \"#utility.yul\":3426:3755   */\n      swap3\n      swap2\n      pop\n      pop\n      jump\t// out\n        /* \"#utility.yul\":3761:3863   */\n    tag_280:\n        /* \"#utility.yul\":3802:3808   */\n      0x00\n        /* \"#utility.yul\":3853:3855   */\n      0x1f\n        /* \"#utility.yul\":3849:3856   */\n      not\n        /* \"#utility.yul\":3844:3846   */\n      0x1f\n        /* \"#utility.yul\":3837:3842   */\n      dup4\n        /* \"#utility.yul\":3833:3847   */\n      add\n        /* \"#utility.yul\":3829:3857   */\n      and\n        /* \"#utility.yul\":3819:3857   */\n      swap1\n      pop\n        /* \"#utility.yul\":3761:3863   */\n      swap2\n      swap1\n      pop\n      jump\t// out\n        /* \"#utility.yul\":3869:4049   */\n    tag_281:\n        /* \"#utility.yul\":3917:3994   */\n      0x4e487b7100000000000000000000000000000000000000000000000000000000\n        /* \"#utility.yul\":3914:3915   */\n      0x00\n        /* \"#utility.yul\":3907:3995   */\n      mstore\n        /* \"#utility.yul\":4014:4018   */\n      0x41\n        /* \"#utility.yul\":4011:4012   */\n      0x04\n        /* \"#utility.yul\":4004:4019   */\n      mstore\n        /* \"#utility.yul\":4038:4042   */\n      0x24\n        /* \"#utility.yul\":4035:4036   */\n      0x00\n        /* \"#utility.yul\":4028:4043   */\n      revert\n        /* \"#utility.yul\":4055:4336   */\n    tag_282:\n        /* \"#utility.yul\":4138:4165   */\n      tag_384\n        /* \"#utility.yul\":4160:4164   */\n      dup3\n        /* \"#utility.yul\":4138:4165   */\n      tag_280\n      jump\t// in\n    tag_384:\n        /* \"#utility.yul\":4130:4136   */\n      dup2\n        /* \"#utility.yul\":4126:4166   */\n      add\n        /* \"#utility.yul\":4268:4274   */\n      dup2\n        /* \"#utility.yul\":4256:4266   */\n      dup2\n        /* \"#utility.yul\":4253:4275   */\n      lt\n        /* \"#utility.yul\":4232:4250   */\n      0xffffffffffffffff\n        /* \"#utility.yul\":4220:4230   */\n      dup3\n        /* \"#utility.yul\":4217:4251   */\n      gt\n        /* \"#utility.yul\":4214:4276   */\n      or\n        /* \"#utility.yul\":4211:4299   */\n      iszero\n      tag_385\n      jumpi\n        /* \"#utility.yul\":4279:4297   */\n      tag_386\n      tag_281\n      jump\t// in\n    tag_386:\n        /* \"#utility.yul\":4211:4299   */\n    tag_385:\n        /* \"#utility.yul\":4319:4329   */\n      dup1\n        /* \"#utility.yul\":4315:4317   */\n      0x40\n        /* \"#utility.yul\":4308:4330   */\n      mstore\n        /* \"#utility.yul\":4098:4336   */\n      pop\n        /* \"#utility.yul\":4055:4336   */\n      pop\n      pop\n      jump\t// out\n        /* \"#utility.yul\":4342:4471   */\n    tag_283:\n        /* \"#utility.yul\":4376:4382   */\n      0x00\n        /* \"#utility.yul\":4403:4423   */\n      tag_388\n      tag_264\n      jump\t// in\n    tag_388:\n        /* \"#utility.yul\":4393:4423   */\n      swap1\n      pop\n        /* \"#utility.yul\":4432:4465   */\n      tag_389\n        /* \"#utility.yul\":4460:4464   */\n      dup3\n        /* \"#utility.yul\":4452:4458   */\n      dup3\n        /* \"#utility.yul\":4432:4465   */\n      tag_282\n      jump\t// in\n    tag_389:\n        /* \"#utility.yul\":4342:4471   */\n      swap2\n      swap1\n      pop\n      jump\t// out\n        /* \"#utility.yul\":4477:4788   */\n    tag_284:\n        /* \"#utility.yul\":4554:4558   */\n      0x00\n        /* \"#utility.yul\":4644:4662   */\n      0xffffffffffffffff\n        /* \"#utility.yul\":4636:4642   */\n      dup3\n        /* \"#utility.yul\":4633:4663   */\n      gt\n        /* \"#utility.yul\":4630:4686   */\n      iszero\n      tag_391\n      jumpi\n        /* \"#utility.yul\":4666:4684   */\n      tag_392\n      tag_281\n      jump\t// in\n    tag_392:\n        /* \"#utility.yul\":4630:4686   */\n    tag_391:\n        /* \"#utility.yul\":4716:4720   */\n      0x20\n        /* \"#utility.yul\":4708:4714   */\n      dup3\n        /* \"#utility.yul\":4704:4721   */\n      mul\n        /* \"#utility.yul\":4696:4721   */\n      swap1\n      pop\n        /* \"#utility.yul\":4776:4780   */\n      0x20\n        /* \"#utility.yul\":4770:4774   */\n      dup2\n        /* \"#utility.yul\":4766:4781   */\n      add\n        /* \"#utility.yul\":4758:4781   */\n      swap1\n      pop\n        /* \"#utility.yul\":4477:4788   */\n      swap2\n      swap1\n      pop\n      jump\t// out\n        /* \"#utility.yul\":4794:4916   */\n    tag_285:\n        /* \"#utility.yul\":4867:4891   */\n      tag_394\n        /* \"#utility.yul\":4885:4890   */\n      dup2\n        /* \"#utility.yul\":4867:4891   */\n      tag_272\n      jump\t// in\n    tag_394:\n        /* \"#utility.yul\":4860:4865   */\n      dup2\n        /* \"#utility.yul\":4857:4892   */\n      eq\n        /* \"#utility.yul\":4847:4910   */\n      tag_395\n      jumpi\n        /* \"#utility.yul\":4906:4907   */\n      0x00\n        /* \"#utility.yul\":4903:4904   */\n      dup1\n        /* \"#utility.yul\":4896:4908   */\n      revert\n        /* \"#utility.yul\":4847:4910   */\n    tag_395:\n        /* \"#utility.yul\":4794:4916   */\n      pop\n      jump\t// out\n        /* \"#utility.yul\":4922:5061   */\n    tag_286:\n        /* \"#utility.yul\":4968:4973   */\n      0x00\n        /* \"#utility.yul\":5006:5012   */\n      dup2\n        /* \"#utility.yul\":4993:5013   */\n      calldataload\n        /* \"#utility.yul\":4984:5013   */\n      swap1\n      pop\n        /* \"#utility.yul\":5022:5055   */\n      tag_397\n        /* \"#utility.yul\":5049:5054   */\n      dup2\n        /* \"#utility.yul\":5022:5055   */\n      tag_285\n      jump\t// in\n    tag_397:\n        /* \"#utility.yul\":4922:5061   */\n      swap3\n      swap2\n      pop\n      pop\n      jump\t// out\n        /* \"#utility.yul\":5084:5794   */\n    tag_287:\n        /* \"#utility.yul\":5180:5185   */\n      0x00\n        /* \"#utility.yul\":5205:5286   */\n      tag_399\n        /* \"#utility.yul\":5221:5285   */\n      tag_400\n        /* \"#utility.yul\":5278:5284   */\n      dup5\n        /* \"#utility.yul\":5221:5285   */\n      tag_284\n      jump\t// in\n    tag_400:\n        /* \"#utility.yul\":5205:5286   */\n      tag_283\n      jump\t// in\n    tag_399:\n        /* \"#utility.yul\":5196:5286   */\n      swap1\n      pop\n        /* \"#utility.yul\":5306:5311   */\n      dup1\n        /* \"#utility.yul\":5335:5341   */\n      dup4\n        /* \"#utility.yul\":5328:5333   */\n      dup3\n        /* \"#utility.yul\":5321:5342   */\n      mstore\n        /* \"#utility.yul\":5369:5373   */\n      0x20\n        /* \"#utility.yul\":5362:5367   */\n      dup3\n        /* \"#utility.yul\":5358:5374   */\n      add\n        /* \"#utility.yul\":5351:5374   */\n      swap1\n      pop\n        /* \"#utility.yul\":5422:5426   */\n      0x20\n        /* \"#utility.yul\":5414:5420   */\n      dup5\n        /* \"#utility.yul\":5410:5427   */\n      mul\n        /* \"#utility.yul\":5402:5408   */\n      dup4\n        /* \"#utility.yul\":5398:5428   */\n      add\n        /* \"#utility.yul\":5451:5454   */\n      dup6\n        /* \"#utility.yul\":5443:5449   */\n      dup2\n        /* \"#utility.yul\":5440:5455   */\n      gt\n        /* \"#utility.yul\":5437:5559   */\n      iszero\n      tag_401\n      jumpi\n        /* \"#utility.yul\":5470:5549   */\n      tag_402\n      tag_269\n      jump\t// in\n    tag_402:\n        /* \"#utility.yul\":5437:5559   */\n    tag_401:\n        /* \"#utility.yul\":5585:5591   */\n      dup4\n        /* \"#utility.yul\":5568:5788   */\n    tag_403:\n        /* \"#utility.yul\":5602:5608   */\n      dup2\n        /* \"#utility.yul\":5597:5600   */\n      dup2\n        /* \"#utility.yul\":5594:5609   */\n      lt\n        /* \"#utility.yul\":5568:5788   */\n      iszero\n      tag_405\n      jumpi\n        /* \"#utility.yul\":5677:5680   */\n      dup1\n        /* \"#utility.yul\":5706:5743   */\n      tag_406\n        /* \"#utility.yul\":5739:5742   */\n      dup9\n        /* \"#utility.yul\":5727:5737   */\n      dup3\n        /* \"#utility.yul\":5706:5743   */\n      tag_286\n      jump\t// in\n    tag_406:\n        /* \"#utility.yul\":5701:5704   */\n      dup5\n        /* \"#utility.yul\":5694:5744   */\n      mstore\n        /* \"#utility.yul\":5773:5777   */\n      0x20\n        /* \"#utility.yul\":5768:5771   */\n      dup5\n        /* \"#utility.yul\":5764:5778   */\n      add\n        /* \"#utility.yul\":5757:5778   */\n      swap4\n      pop\n        /* \"#utility.yul\":5644:5788   */\n      pop\n        /* \"#utility.yul\":5628:5632   */\n      0x20\n        /* \"#utility.yul\":5623:5626   */\n      dup2\n        /* \"#utility.yul\":5619:5633   */\n      add\n        /* \"#utility.yul\":5612:5633   */\n      swap1\n      pop\n        /* \"#utility.yul\":5568:5788   */\n      jump(tag_403)\n    tag_405:\n        /* \"#utility.yul\":5572:5593   */\n      pop\n        /* \"#utility.yul\":5186:5794   */\n      pop\n      pop\n        /* \"#utility.yul\":5084:5794   */\n      swap4\n      swap3\n      pop\n      pop\n      pop\n      jump\t// out\n        /* \"#utility.yul\":5817:6187   */\n    tag_288:\n        /* \"#utility.yul\":5888:5893   */\n      0x00\n        /* \"#utility.yul\":5937:5940   */\n      dup3\n        /* \"#utility.yul\":5930:5934   */\n      0x1f\n        /* \"#utility.yul\":5922:5928   */\n      dup4\n        /* \"#utility.yul\":5918:5935   */\n      add\n        /* \"#utility.yul\":5914:5941   */\n      slt\n        /* \"#utility.yul\":5904:6026   */\n      tag_408\n      jumpi\n        /* \"#utility.yul\":5945:6024   */\n      tag_409\n      tag_267\n      jump\t// in\n    tag_409:\n        /* \"#utility.yul\":5904:6026   */\n    tag_408:\n        /* \"#utility.yul\":6062:6068   */\n      dup2\n        /* \"#utility.yul\":6049:6069   */\n      calldataload\n        /* \"#utility.yul\":6087:6181   */\n      tag_410\n        /* \"#utility.yul\":6177:6180   */\n      dup5\n        /* \"#utility.yul\":6169:6175   */\n      dup3\n        /* \"#utility.yul\":6162:6166   */\n      0x20\n        /* \"#utility.yul\":6154:6160   */\n      dup7\n        /* \"#utility.yul\":6150:6167   */\n      add\n        /* \"#utility.yul\":6087:6181   */\n      tag_287\n      jump\t// in\n    tag_410:\n        /* \"#utility.yul\":6078:6181   */\n      swap2\n      pop\n        /* \"#utility.yul\":5894:6187   */\n      pop\n        /* \"#utility.yul\":5817:6187   */\n      swap3\n      swap2\n      pop\n      pop\n      jump\t// out\n        /* \"#utility.yul\":6193:6504   */\n    tag_289:\n        /* \"#utility.yul\":6270:6274   */\n      0x00\n        /* \"#utility.yul\":6360:6378   */\n      0xffffffffffffffff\n        /* \"#utility.yul\":6352:6358   */\n      dup3\n        /* \"#utility.yul\":6349:6379   */\n      gt\n        /* \"#utility.yul\":6346:6402   */\n      iszero\n      tag_412\n      jumpi\n        /* \"#utility.yul\":6382:6400   */\n      tag_413\n      tag_281\n      jump\t// in\n    tag_413:\n        /* \"#utility.yul\":6346:6402   */\n    tag_412:\n        /* \"#utility.yul\":6432:6436   */\n      0x20\n        /* \"#utility.yul\":6424:6430   */\n      dup3\n        /* \"#utility.yul\":6420:6437   */\n      mul\n        /* \"#utility.yul\":6412:6437   */\n      swap1\n      pop\n        /* \"#utility.yul\":6492:6496   */\n      0x20\n        /* \"#utility.yul\":6486:6490   */\n      dup2\n        /* \"#utility.yul\":6482:6497   */\n      add\n        /* \"#utility.yul\":6474:6497   */\n      swap1\n      pop\n        /* \"#utility.yul\":6193:6504   */\n      swap2\n      swap1\n      pop\n      jump\t// out\n        /* \"#utility.yul\":6527:7237   */\n    tag_290:\n        /* \"#utility.yul\":6623:6628   */\n      0x00\n        /* \"#utility.yul\":6648:6729   */\n      tag_415\n        /* \"#utility.yul\":6664:6728   */\n      tag_416\n        /* \"#utility.yul\":6721:6727   */\n      dup5\n        /* \"#utility.yul\":6664:6728   */\n      tag_289\n      jump\t// in\n    tag_416:\n        /* \"#utility.yul\":6648:6729   */\n      tag_283\n      jump\t// in\n    tag_415:\n        /* \"#utility.yul\":6639:6729   */\n      swap1\n      pop\n        /* \"#utility.yul\":6749:6754   */\n      dup1\n        /* \"#utility.yul\":6778:6784   */\n      dup4\n        /* \"#utility.yul\":6771:6776   */\n      dup3\n        /* \"#utility.yul\":6764:6785   */\n      mstore\n        /* \"#utility.yul\":6812:6816   */\n      0x20\n        /* \"#utility.yul\":6805:6810   */\n      dup3\n        /* \"#utility.yul\":6801:6817   */\n      add\n        /* \"#utility.yul\":6794:6817   */\n      swap1\n      pop\n        /* \"#utility.yul\":6865:6869   */\n      0x20\n        /* \"#utility.yul\":6857:6863   */\n      dup5\n        /* \"#utility.yul\":6853:6870   */\n      mul\n        /* \"#utility.yul\":6845:6851   */\n      dup4\n        /* \"#utility.yul\":6841:6871   */\n      add\n        /* \"#utility.yul\":6894:6897   */\n      dup6\n        /* \"#utility.yul\":6886:6892   */\n      dup2\n        /* \"#utility.yul\":6883:6898   */\n      gt\n        /* \"#utility.yul\":6880:7002   */\n      iszero\n      tag_417\n      jumpi\n        /* \"#utility.yul\":6913:6992   */\n      tag_418\n      tag_269\n      jump\t// in\n    tag_418:\n        /* \"#utility.yul\":6880:7002   */\n    tag_417:\n        /* \"#utility.yul\":7028:7034   */\n      dup4\n        /* \"#utility.yul\":7011:7231   */\n    tag_419:\n        /* \"#utility.yul\":7045:7051   */\n      dup2\n        /* \"#utility.yul\":7040:7043   */\n      dup2\n        /* \"#utility.yul\":7037:7052   */\n      lt\n        /* \"#utility.yul\":7011:7231   */\n      iszero\n      tag_421\n      jumpi\n        /* \"#utility.yul\":7120:7123   */\n      dup1\n        /* \"#utility.yul\":7149:7186   */\n      tag_422\n        /* \"#utility.yul\":7182:7185   */\n      dup9\n        /* \"#utility.yul\":7170:7180   */\n      dup3\n        /* \"#utility.yul\":7149:7186   */\n      tag_279\n      jump\t// in\n    tag_422:\n        /* \"#utility.yul\":7144:7147   */\n      dup5\n        /* \"#utility.yul\":7137:7187   */\n      mstore\n        /* \"#utility.yul\":7216:7220   */\n      0x20\n        /* \"#utility.yul\":7211:7214   */\n      dup5\n        /* \"#utility.yul\":7207:7221   */\n      add\n        /* \"#utility.yul\":7200:7221   */\n      swap4\n      pop\n        /* \"#utility.yul\":7087:7231   */\n      pop\n        /* \"#utility.yul\":7071:7075   */\n      0x20\n        /* \"#utility.yul\":7066:7069   */\n      dup2\n        /* \"#utility.yul\":7062:7076   */\n      add\n        /* \"#utility.yul\":7055:7076   */\n      swap1\n      pop\n        /* \"#utility.yul\":7011:7231   */\n      jump(tag_419)\n    tag_421:\n        /* \"#utility.yul\":7015:7036   */\n      pop\n        /* \"#utility.yul\":6629:7237   */\n      pop\n      pop\n        /* \"#utility.yul\":6527:7237   */\n      swap4\n      swap3\n      pop\n      pop\n      pop\n      jump\t// out\n        /* \"#utility.yul\":7260:7630   */\n    tag_291:\n        /* \"#utility.yul\":7331:7336   */\n      0x00\n        /* \"#utility.yul\":7380:7383   */\n      dup3\n        /* \"#utility.yul\":7373:7377   */\n      0x1f\n        /* \"#utility.yul\":7365:7371   */\n      dup4\n        /* \"#utility.yul\":7361:7378   */\n      add\n        /* \"#utility.yul\":7357:7384   */\n      slt\n        /* \"#utility.yul\":7347:7469   */\n      tag_424\n      jumpi\n        /* \"#utility.yul\":7388:7467   */\n      tag_425\n      tag_267\n      jump\t// in\n    tag_425:\n        /* \"#utility.yul\":7347:7469   */\n    tag_424:\n        /* \"#utility.yul\":7505:7511   */\n      dup2\n        /* \"#utility.yul\":7492:7512   */\n      calldataload\n        /* \"#utility.yul\":7530:7624   */\n      tag_426\n        /* \"#utility.yul\":7620:7623   */\n      dup5\n        /* \"#utility.yul\":7612:7618   */\n      dup3\n        /* \"#utility.yul\":7605:7609   */\n      0x20\n        /* \"#utility.yul\":7597:7603   */\n      dup7\n        /* \"#utility.yul\":7593:7610   */\n      add\n        /* \"#utility.yul\":7530:7624   */\n      tag_290\n      jump\t// in\n    tag_426:\n        /* \"#utility.yul\":7521:7624   */\n      swap2\n      pop\n        /* \"#utility.yul\":7337:7630   */\n      pop\n        /* \"#utility.yul\":7260:7630   */\n      swap3\n      swap2\n      pop\n      pop\n      jump\t// out\n        /* \"#utility.yul\":7636:9533   */\n    tag_37:\n        /* \"#utility.yul\":7840:7846   */\n      0x00\n        /* \"#utility.yul\":7848:7854   */\n      dup1\n        /* \"#utility.yul\":7856:7862   */\n      0x00\n        /* \"#utility.yul\":7864:7870   */\n      dup1\n        /* \"#utility.yul\":7872:7878   */\n      0x00\n        /* \"#utility.yul\":7880:7886   */\n      dup1\n        /* \"#utility.yul\":7929:7932   */\n      0xc0\n        /* \"#utility.yul\":7917:7926   */\n      dup8\n        /* \"#utility.yul\":7908:7915   */\n      dup10\n        /* \"#utility.yul\":7904:7927   */\n      sub\n        /* \"#utility.yul\":7900:7933   */\n      slt\n        /* \"#utility.yul\":7897:8017   */\n      iszero\n      tag_428\n      jumpi\n        /* \"#utility.yul\":7936:8015   */\n      tag_429\n      tag_265\n      jump\t// in\n    tag_429:\n        /* \"#utility.yul\":7897:8017   */\n    tag_428:\n        /* \"#utility.yul\":8084:8085   */\n      0x00\n        /* \"#utility.yul\":8073:8082   */\n      dup8\n        /* \"#utility.yul\":8069:8086   */\n      add\n        /* \"#utility.yul\":8056:8087   */\n      calldataload\n        /* \"#utility.yul\":8114:8132   */\n      0xffffffffffffffff\n        /* \"#utility.yul\":8106:8112   */\n      dup2\n        /* \"#utility.yul\":8103:8133   */\n      gt\n        /* \"#utility.yul\":8100:8217   */\n      iszero\n      tag_430\n      jumpi\n        /* \"#utility.yul\":8136:8215   */\n      tag_431\n      tag_266\n      jump\t// in\n    tag_431:\n        /* \"#utility.yul\":8100:8217   */\n    tag_430:\n        /* \"#utility.yul\":8241:8319   */\n      tag_432\n        /* \"#utility.yul\":8311:8318   */\n      dup10\n        /* \"#utility.yul\":8302:8308   */\n      dup3\n        /* \"#utility.yul\":8291:8300   */\n      dup11\n        /* \"#utility.yul\":8287:8309   */\n      add\n        /* \"#utility.yul\":8241:8319   */\n      tag_288\n      jump\t// in\n    tag_432:\n        /* \"#utility.yul\":8231:8319   */\n      swap7\n      pop\n        /* \"#utility.yul\":8027:8329   */\n      pop\n        /* \"#utility.yul\":8396:8398   */\n      0x20\n        /* \"#utility.yul\":8385:8394   */\n      dup8\n        /* \"#utility.yul\":8381:8399   */\n      add\n        /* \"#utility.yul\":8368:8400   */\n      calldataload\n        /* \"#utility.yul\":8427:8445   */\n      0xffffffffffffffff\n        /* \"#utility.yul\":8419:8425   */\n      dup2\n        /* \"#utility.yul\":8416:8446   */\n      gt\n        /* \"#utility.yul\":8413:8530   */\n      iszero\n      tag_433\n      jumpi\n        /* \"#utility.yul\":8449:8528   */\n      tag_434\n      tag_266\n      jump\t// in\n    tag_434:\n        /* \"#utility.yul\":8413:8530   */\n    tag_433:\n        /* \"#utility.yul\":8554:8632   */\n      tag_435\n        /* \"#utility.yul\":8624:8631   */\n      dup10\n        /* \"#utility.yul\":8615:8621   */\n      dup3\n        /* \"#utility.yul\":8604:8613   */\n      dup11\n        /* \"#utility.yul\":8600:8622   */\n      add\n        /* \"#utility.yul\":8554:8632   */\n      tag_288\n      jump\t// in\n    tag_435:\n        /* \"#utility.yul\":8544:8632   */\n      swap6\n      pop\n        /* \"#utility.yul\":8339:8642   */\n      pop\n        /* \"#utility.yul\":8681:8683   */\n      0x40\n        /* \"#utility.yul\":8707:8760   */\n      tag_436\n        /* \"#utility.yul\":8752:8759   */\n      dup10\n        /* \"#utility.yul\":8743:8749   */\n      dup3\n        /* \"#utility.yul\":8732:8741   */\n      dup11\n        /* \"#utility.yul\":8728:8750   */\n      add\n        /* \"#utility.yul\":8707:8760   */\n      tag_279\n      jump\t// in\n    tag_436:\n        /* \"#utility.yul\":8697:8760   */\n      swap5\n      pop\n        /* \"#utility.yul\":8652:8770   */\n      pop\n        /* \"#utility.yul\":8837:8839   */\n      0x60\n        /* \"#utility.yul\":8826:8835   */\n      dup8\n        /* \"#utility.yul\":8822:8840   */\n      add\n        /* \"#utility.yul\":8809:8841   */\n      calldataload\n        /* \"#utility.yul\":8868:8886   */\n      0xffffffffffffffff\n        /* \"#utility.yul\":8860:8866   */\n      dup2\n        /* \"#utility.yul\":8857:8887   */\n      gt\n        /* \"#utility.yul\":8854:8971   */\n      iszero\n      tag_437\n      jumpi\n        /* \"#utility.yul\":8890:8969   */\n      tag_438\n      tag_266\n      jump\t// in\n    tag_438:\n        /* \"#utility.yul\":8854:8971   */\n    tag_437:\n        /* \"#utility.yul\":8995:9073   */\n      tag_439\n        /* \"#utility.yul\":9065:9072   */\n      dup10\n        /* \"#utility.yul\":9056:9062   */\n      dup3\n        /* \"#utility.yul\":9045:9054   */\n      dup11\n        /* \"#utility.yul\":9041:9063   */\n      add\n        /* \"#utility.yul\":8995:9073   */\n      tag_291\n      jump\t// in\n    tag_439:\n        /* \"#utility.yul\":8985:9073   */\n      swap4\n      pop\n        /* \"#utility.yul\":8780:9083   */\n      pop\n        /* \"#utility.yul\":9150:9153   */\n      0x80\n        /* \"#utility.yul\":9139:9148   */\n      dup8\n        /* \"#utility.yul\":9135:9154   */\n      add\n        /* \"#utility.yul\":9122:9155   */\n      calldataload\n        /* \"#utility.yul\":9182:9200   */\n      0xffffffffffffffff\n        /* \"#utility.yul\":9174:9180   */\n      dup2\n        /* \"#utility.yul\":9171:9201   */\n      gt\n        /* \"#utility.yul\":9168:9285   */\n      iszero\n      tag_440\n      jumpi\n        /* \"#utility.yul\":9204:9283   */\n      tag_441\n      tag_266\n      jump\t// in\n    tag_441:\n        /* \"#utility.yul\":9168:9285   */\n    tag_440:\n        /* \"#utility.yul\":9309:9387   */\n      tag_442\n        /* \"#utility.yul\":9379:9386   */\n      dup10\n        /* \"#utility.yul\":9370:9376   */\n      dup3\n        /* \"#utility.yul\":9359:9368   */\n      dup11\n        /* \"#utility.yul\":9355:9377   */\n      add\n        /* \"#utility.yul\":9309:9387   */\n      tag_291\n      jump\t// in\n    tag_442:\n        /* \"#utility.yul\":9299:9387   */\n      swap3\n      pop\n        /* \"#utility.yul\":9093:9397   */\n      pop\n        /* \"#utility.yul\":9436:9439   */\n      0xa0\n        /* \"#utility.yul\":9463:9516   */\n      tag_443\n        /* \"#utility.yul\":9508:9515   */\n      dup10\n        /* \"#utility.yul\":9499:9505   */\n      dup3\n        /* \"#utility.yul\":9488:9497   */\n      dup11\n        /* \"#utility.yul\":9484:9506   */\n      add\n        /* \"#utility.yul\":9463:9516   */\n      tag_279\n      jump\t// in\n    tag_443:\n        /* \"#utility.yul\":9453:9516   */\n      swap2\n      pop\n        /* \"#utility.yul\":9407:9526   */\n      pop\n        /* \"#utility.yul\":7636:9533   */\n      swap3\n      swap6\n      pop\n      swap3\n      swap6\n      pop\n      swap3\n      swap6\n      jump\t// out\n        /* \"#utility.yul\":9539:9657   */\n    tag_292:\n        /* \"#utility.yul\":9626:9650   */\n      tag_445\n        /* \"#utility.yul\":9644:9649   */\n      dup2\n        /* \"#utility.yul\":9626:9650   */\n      tag_272\n      jump\t// in\n    tag_445:\n        /* \"#utility.yul\":9621:9624   */\n      dup3\n        /* \"#utility.yul\":9614:9651   */\n      mstore\n        /* \"#utility.yul\":9539:9657   */\n      pop\n      pop\n      jump\t// out\n        /* \"#utility.yul\":9663:9885   */\n    tag_42:\n        /* \"#utility.yul\":9756:9760   */\n      0x00\n        /* \"#utility.yul\":9794:9796   */\n      0x20\n        /* \"#utility.yul\":9783:9792   */\n      dup3\n        /* \"#utility.yul\":9779:9797   */\n      add\n        /* \"#utility.yul\":9771:9797   */\n      swap1\n      pop\n        /* \"#utility.yul\":9807:9878   */\n      tag_447\n        /* \"#utility.yul\":9875:9876   */\n      0x00\n        /* \"#utility.yul\":9864:9873   */\n      dup4\n        /* \"#utility.yul\":9860:9877   */\n      add\n        /* \"#utility.yul\":9851:9857   */\n      dup5\n        /* \"#utility.yul\":9807:9878   */\n      tag_292\n      jump\t// in\n    tag_447:\n        /* \"#utility.yul\":9663:9885   */\n      swap3\n      swap2\n      pop\n      pop\n      jump\t// out\n        /* \"#utility.yul\":9891:10395   */\n    tag_48:\n        /* \"#utility.yul\":9974:9980   */\n      0x00\n        /* \"#utility.yul\":9982:9988   */\n      dup1\n        /* \"#utility.yul\":10031:10033   */\n      0x40\n        /* \"#utility.yul\":10019:10028   */\n      dup4\n        /* \"#utility.yul\":10010:10017   */\n      dup6\n        /* \"#utility.yul\":10006:10029   */\n      sub\n        /* \"#utility.yul\":10002:10034   */\n      slt\n        /* \"#utility.yul\":9999:10118   */\n      iszero\n      tag_449\n      jumpi\n        /* \"#utility.yul\":10037:10116   */\n      tag_450\n      tag_265\n      jump\t// in\n    tag_450:\n        /* \"#utility.yul\":9999:10118   */\n    tag_449:\n        /* \"#utility.yul\":10157:10158   */\n      0x00\n        /* \"#utility.yul\":10182:10250   */\n      tag_451\n        /* \"#utility.yul\":10242:10249   */\n      dup6\n        /* \"#utility.yul\":10233:10239   */\n      dup3\n        /* \"#utility.yul\":10222:10231   */\n      dup7\n        /* \"#utility.yul\":10218:10240   */\n      add\n        /* \"#utility.yul\":10182:10250   */\n      tag_275\n      jump\t// in\n    tag_451:\n        /* \"#utility.yul\":10172:10250   */\n      swap3\n      pop\n        /* \"#utility.yul\":10128:10260   */\n      pop\n        /* \"#utility.yul\":10299:10301   */\n      0x20\n        /* \"#utility.yul\":10325:10378   */\n      tag_452\n        /* \"#utility.yul\":10370:10377   */\n      dup6\n        /* \"#utility.yul\":10361:10367   */\n      dup3\n        /* \"#utility.yul\":10350:10359   */\n      dup7\n        /* \"#utility.yul\":10346:10368   */\n      add\n        /* \"#utility.yul\":10325:10378   */\n      tag_279\n      jump\t// in\n    tag_452:\n        /* \"#utility.yul\":10315:10378   */\n      swap2\n      pop\n        /* \"#utility.yul\":10270:10388   */\n      pop\n        /* \"#utility.yul\":9891:10395   */\n      swap3\n      pop\n      swap3\n      swap1\n      pop\n      jump\t// out\n        /* \"#utility.yul\":10401:10491   */\n    tag_293:\n        /* \"#utility.yul\":10435:10442   */\n      0x00\n        /* \"#utility.yul\":10478:10483   */\n      dup2\n        /* \"#utility.yul\":10471:10484   */\n      iszero\n        /* \"#utility.yul\":10464:10485   */\n      iszero\n        /* \"#utility.yul\":10453:10485   */\n      swap1\n      pop\n        /* \"#utility.yul\":10401:10491   */\n      swap2\n      swap1\n      pop\n      jump\t// out\n        /* \"#utility.yul\":10497:10606   */\n    tag_294:\n        /* \"#utility.yul\":10578:10599   */\n      tag_455\n        /* \"#utility.yul\":10593:10598   */\n      dup2\n        /* \"#utility.yul\":10578:10599   */\n      tag_293\n      jump\t// in\n    tag_455:\n        /* \"#utility.yul\":10573:10576   */\n      dup3\n        /* \"#utility.yul\":10566:10600   */\n      mstore\n        /* \"#utility.yul\":10497:10606   */\n      pop\n      pop\n      jump\t// out\n        /* \"#utility.yul\":10612:10672   */\n    tag_295:\n        /* \"#utility.yul\":10640:10643   */\n      0x00\n        /* \"#utility.yul\":10661:10666   */\n      dup2\n        /* \"#utility.yul\":10654:10666   */\n      swap1\n      pop\n        /* \"#utility.yul\":10612:10672   */\n      swap2\n      swap1\n      pop\n      jump\t// out\n        /* \"#utility.yul\":10678:10820   */\n    tag_296:\n        /* \"#utility.yul\":10728:10737   */\n      0x00\n        /* \"#utility.yul\":10761:10814   */\n      tag_458\n        /* \"#utility.yul\":10779:10813   */\n      tag_459\n        /* \"#utility.yul\":10788:10812   */\n      tag_460\n        /* \"#utility.yul\":10806:10811   */\n      dup5\n        /* \"#utility.yul\":10788:10812   */\n      tag_271\n      jump\t// in\n    tag_460:\n        /* \"#utility.yul\":10779:10813   */\n      tag_295\n      jump\t// in\n    tag_459:\n        /* \"#utility.yul\":10761:10814   */\n      tag_271\n      jump\t// in\n    tag_458:\n        /* \"#utility.yul\":10748:10814   */\n      swap1\n      pop\n        /* \"#utility.yul\":10678:10820   */\n      swap2\n      swap1\n      pop\n      jump\t// out\n        /* \"#utility.yul\":10826:10952   */\n    tag_297:\n        /* \"#utility.yul\":10876:10885   */\n      0x00\n        /* \"#utility.yul\":10909:10946   */\n      tag_462\n        /* \"#utility.yul\":10940:10945   */\n      dup3\n        /* \"#utility.yul\":10909:10946   */\n      tag_296\n      jump\t// in\n    tag_462:\n        /* \"#utility.yul\":10896:10946   */\n      swap1\n      pop\n        /* \"#utility.yul\":10826:10952   */\n      swap2\n      swap1\n      pop\n      jump\t// out\n        /* \"#utility.yul\":10958:11099   */\n    tag_298:\n        /* \"#utility.yul\":11023:11032   */\n      0x00\n        /* \"#utility.yul\":11056:11093   */\n      tag_464\n        /* \"#utility.yul\":11087:11092   */\n      dup3\n        /* \"#utility.yul\":11056:11093   */\n      tag_297\n      jump\t// in\n    tag_464:\n        /* \"#utility.yul\":11043:11093   */\n      swap1\n      pop\n        /* \"#utility.yul\":10958:11099   */\n      swap2\n      swap1\n      pop\n      jump\t// out\n        /* \"#utility.yul\":11105:11266   */\n    tag_299:\n        /* \"#utility.yul\":11207:11259   */\n      tag_466\n        /* \"#utility.yul\":11253:11258   */\n      dup2\n        /* \"#utility.yul\":11207:11259   */\n      tag_298\n      jump\t// in\n    tag_466:\n        /* \"#utility.yul\":11202:11205   */\n      dup3\n        /* \"#utility.yul\":11195:11260   */\n      mstore\n        /* \"#utility.yul\":11105:11266   */\n      pop\n      pop\n      jump\t// out\n        /* \"#utility.yul\":11272:11954   */\n    tag_51:\n        /* \"#utility.yul\":11486:11490   */\n      0x00\n        /* \"#utility.yul\":11524:11527   */\n      0xa0\n        /* \"#utility.yul\":11513:11522   */\n      dup3\n        /* \"#utility.yul\":11509:11528   */\n      add\n        /* \"#utility.yul\":11501:11528   */\n      swap1\n      pop\n        /* \"#utility.yul\":11538:11609   */\n      tag_468\n        /* \"#utility.yul\":11606:11607   */\n      0x00\n        /* \"#utility.yul\":11595:11604   */\n      dup4\n        /* \"#utility.yul\":11591:11608   */\n      add\n        /* \"#utility.yul\":11582:11588   */\n      dup9\n        /* \"#utility.yul\":11538:11609   */\n      tag_292\n      jump\t// in\n    tag_468:\n        /* \"#utility.yul\":11619:11691   */\n      tag_469\n        /* \"#utility.yul\":11687:11689   */\n      0x20\n        /* \"#utility.yul\":11676:11685   */\n      dup4\n        /* \"#utility.yul\":11672:11690   */\n      add\n        /* \"#utility.yul\":11663:11669   */\n      dup8\n        /* \"#utility.yul\":11619:11691   */\n      tag_277\n      jump\t// in\n    tag_469:\n        /* \"#utility.yul\":11701:11773   */\n      tag_470\n        /* \"#utility.yul\":11769:11771   */\n      0x40\n        /* \"#utility.yul\":11758:11767   */\n      dup4\n        /* \"#utility.yul\":11754:11772   */\n      add\n        /* \"#utility.yul\":11745:11751   */\n      dup7\n        /* \"#utility.yul\":11701:11773   */\n      tag_277\n      jump\t// in\n    tag_470:\n        /* \"#utility.yul\":11783:11849   */\n      tag_471\n        /* \"#utility.yul\":11845:11847   */\n      0x60\n        /* \"#utility.yul\":11834:11843   */\n      dup4\n        /* \"#utility.yul\":11830:11848   */\n      add\n        /* \"#utility.yul\":11821:11827   */\n      dup6\n        /* \"#utility.yul\":11783:11849   */\n      tag_294\n      jump\t// in\n    tag_471:\n        /* \"#utility.yul\":11859:11947   */\n      tag_472\n        /* \"#utility.yul\":11942:11945   */\n      0x80\n        /* \"#utility.yul\":11931:11940   */\n      dup4\n        /* \"#utility.yul\":11927:11946   */\n      add\n        /* \"#utility.yul\":11918:11924   */\n      dup5\n        /* \"#utility.yul\":11859:11947   */\n      tag_299\n      jump\t// in\n    tag_472:\n        /* \"#utility.yul\":11272:11954   */\n      swap7\n      swap6\n      pop\n      pop\n      pop\n      pop\n      pop\n      pop\n      jump\t// out\n        /* \"#utility.yul\":11960:12464   */\n    tag_54:\n        /* \"#utility.yul\":12043:12049   */\n      0x00\n        /* \"#utility.yul\":12051:12057   */\n      dup1\n        /* \"#utility.yul\":12100:12102   */\n      0x40\n        /* \"#utility.yul\":12088:12097   */\n      dup4\n        /* \"#utility.yul\":12079:12086   */\n      dup6\n        /* \"#utility.yul\":12075:12098   */\n      sub\n        /* \"#utility.yul\":12071:12103   */\n      slt\n        /* \"#utility.yul\":12068:12187   */\n      iszero\n      tag_474\n      jumpi\n        /* \"#utility.yul\":12106:12185   */\n      tag_475\n      tag_265\n      jump\t// in\n    tag_475:\n        /* \"#utility.yul\":12068:12187   */\n    tag_474:\n        /* \"#utility.yul\":12226:12227   */\n      0x00\n        /* \"#utility.yul\":12251:12304   */\n      tag_476\n        /* \"#utility.yul\":12296:12303   */\n      dup6\n        /* \"#utility.yul\":12287:12293   */\n      dup3\n        /* \"#utility.yul\":12276:12285   */\n      dup7\n        /* \"#utility.yul\":12272:12294   */\n      add\n        /* \"#utility.yul\":12251:12304   */\n      tag_279\n      jump\t// in\n    tag_476:\n        /* \"#utility.yul\":12241:12304   */\n      swap3\n      pop\n        /* \"#utility.yul\":12197:12314   */\n      pop\n        /* \"#utility.yul\":12353:12355   */\n      0x20\n        /* \"#utility.yul\":12379:12447   */\n      tag_477\n        /* \"#utility.yul\":12439:12446   */\n      dup6\n        /* \"#utility.yul\":12430:12436   */\n      dup3\n        /* \"#utility.yul\":12419:12428   */\n      dup7\n        /* \"#utility.yul\":12415:12437   */\n      add\n        /* \"#utility.yul\":12379:12447   */\n      tag_275\n      jump\t// in\n    tag_477:\n        /* \"#utility.yul\":12369:12447   */\n      swap2\n      pop\n        /* \"#utility.yul\":12324:12457   */\n      pop\n        /* \"#utility.yul\":11960:12464   */\n      swap3\n      pop\n      swap3\n      swap1\n      pop\n      jump\t// out\n        /* \"#utility.yul\":12470:12829   */\n    tag_62:\n        /* \"#utility.yul\":12544:12550   */\n      0x00\n        /* \"#utility.yul\":12593:12595   */\n      0x20\n        /* \"#utility.yul\":12581:12590   */\n      dup3\n        /* \"#utility.yul\":12572:12579   */\n      dup5\n        /* \"#utility.yul\":12568:12591   */\n      sub\n        /* \"#utility.yul\":12564:12596   */\n      slt\n        /* \"#utility.yul\":12561:12680   */\n      iszero\n      tag_479\n      jumpi\n        /* \"#utility.yul\":12599:12678   */\n      tag_480\n      tag_265\n      jump\t// in\n    tag_480:\n        /* \"#utility.yul\":12561:12680   */\n    tag_479:\n        /* \"#utility.yul\":12719:12720   */\n      0x00\n        /* \"#utility.yul\":12744:12812   */\n      tag_481\n        /* \"#utility.yul\":12804:12811   */\n      dup5\n        /* \"#utility.yul\":12795:12801   */\n      dup3\n        /* \"#utility.yul\":12784:12793   */\n      dup6\n        /* \"#utility.yul\":12780:12802   */\n      add\n        /* \"#utility.yul\":12744:12812   */\n      tag_275\n      jump\t// in\n    tag_481:\n        /* \"#utility.yul\":12734:12812   */\n      swap2\n      pop\n        /* \"#utility.yul\":12690:12822   */\n      pop\n        /* \"#utility.yul\":12470:12829   */\n      swap3\n      swap2\n      pop\n      pop\n      jump\t// out\n        /* \"#utility.yul\":12835:12983   */\n    tag_300:\n        /* \"#utility.yul\":12907:12916   */\n      0x00\n        /* \"#utility.yul\":12940:12977   */\n      tag_483\n        /* \"#utility.yul\":12971:12976   */\n      dup3\n        /* \"#utility.yul\":12940:12977   */\n      tag_297\n      jump\t// in\n    tag_483:\n        /* \"#utility.yul\":12927:12977   */\n      swap1\n      pop\n        /* \"#utility.yul\":12835:12983   */\n      swap2\n      swap1\n      pop\n      jump\t// out\n        /* \"#utility.yul\":12989:13164   */\n    tag_301:\n        /* \"#utility.yul\":13098:13157   */\n      tag_485\n        /* \"#utility.yul\":13151:13156   */\n      dup2\n        /* \"#utility.yul\":13098:13157   */\n      tag_300\n      jump\t// in\n    tag_485:\n        /* \"#utility.yul\":13093:13096   */\n      dup3\n        /* \"#utility.yul\":13086:13158   */\n      mstore\n        /* \"#utility.yul\":12989:13164   */\n      pop\n      pop\n      jump\t// out\n        /* \"#utility.yul\":13170:13656   */\n    tag_65:\n        /* \"#utility.yul\":13341:13345   */\n      0x00\n        /* \"#utility.yul\":13379:13381   */\n      0x60\n        /* \"#utility.yul\":13368:13377   */\n      dup3\n        /* \"#utility.yul\":13364:13382   */\n      add\n        /* \"#utility.yul\":13356:13382   */\n      swap1\n      pop\n        /* \"#utility.yul\":13392:13485   */\n      tag_487\n        /* \"#utility.yul\":13482:13483   */\n      0x00\n        /* \"#utility.yul\":13471:13480   */\n      dup4\n        /* \"#utility.yul\":13467:13484   */\n      add\n        /* \"#utility.yul\":13458:13464   */\n      dup7\n        /* \"#utility.yul\":13392:13485   */\n      tag_301\n      jump\t// in\n    tag_487:\n        /* \"#utility.yul\":13495:13567   */\n      tag_488\n        /* \"#utility.yul\":13563:13565   */\n      0x20\n        /* \"#utility.yul\":13552:13561   */\n      dup4\n        /* \"#utility.yul\":13548:13566   */\n      add\n        /* \"#utility.yul\":13539:13545   */\n      dup6\n        /* \"#utility.yul\":13495:13567   */\n      tag_277\n      jump\t// in\n    tag_488:\n        /* \"#utility.yul\":13577:13649   */\n      tag_489\n        /* \"#utility.yul\":13645:13647   */\n      0x40\n        /* \"#utility.yul\":13634:13643   */\n      dup4\n        /* \"#utility.yul\":13630:13648   */\n      add\n        /* \"#utility.yul\":13621:13627   */\n      dup5\n        /* \"#utility.yul\":13577:13649   */\n      tag_277\n      jump\t// in\n    tag_489:\n        /* \"#utility.yul\":13170:13656   */\n      swap5\n      swap4\n      pop\n      pop\n      pop\n      pop\n      jump\t// out\n        /* \"#utility.yul\":13662:13991   */\n    tag_68:\n        /* \"#utility.yul\":13721:13727   */\n      0x00\n        /* \"#utility.yul\":13770:13772   */\n      0x20\n        /* \"#utility.yul\":13758:13767   */\n      dup3\n        /* \"#utility.yul\":13749:13756   */\n      dup5\n        /* \"#utility.yul\":13745:13768   */\n      sub\n        /* \"#utility.yul\":13741:13773   */\n      slt\n        /* \"#utility.yul\":13738:13857   */\n      iszero\n      tag_491\n      jumpi\n        /* \"#utility.yul\":13776:13855   */\n      tag_492\n      tag_265\n      jump\t// in\n    tag_492:\n        /* \"#utility.yul\":13738:13857   */\n    tag_491:\n        /* \"#utility.yul\":13896:13897   */\n      0x00\n        /* \"#utility.yul\":13921:13974   */\n      tag_493\n        /* \"#utility.yul\":13966:13973   */\n      dup5\n        /* \"#utility.yul\":13957:13963   */\n      dup3\n        /* \"#utility.yul\":13946:13955   */\n      dup6\n        /* \"#utility.yul\":13942:13964   */\n      add\n        /* \"#utility.yul\":13921:13974   */\n      tag_286\n      jump\t// in\n    tag_493:\n        /* \"#utility.yul\":13911:13974   */\n      swap2\n      pop\n        /* \"#utility.yul\":13867:13984   */\n      pop\n        /* \"#utility.yul\":13662:13991   */\n      swap3\n      swap2\n      pop\n      pop\n      jump\t// out\n        /* \"#utility.yul\":13997:14166   */\n    tag_302:\n        /* \"#utility.yul\":14081:14092   */\n      0x00\n        /* \"#utility.yul\":14115:14121   */\n      dup3\n        /* \"#utility.yul\":14110:14113   */\n      dup3\n        /* \"#utility.yul\":14103:14122   */\n      mstore\n        /* \"#utility.yul\":14155:14159   */\n      0x20\n        /* \"#utility.yul\":14150:14153   */\n      dup3\n        /* \"#utility.yul\":14146:14160   */\n      add\n        /* \"#utility.yul\":14131:14160   */\n      swap1\n      pop\n        /* \"#utility.yul\":13997:14166   */\n      swap3\n      swap2\n      pop\n      pop\n      jump\t// out\n        /* \"#utility.yul\":14172:14342   */\n    tag_303:\n        /* \"#utility.yul\":14312:14334   */\n      0x436f6e7472616374206e6f7420616c6c6f776564000000000000000000000000\n        /* \"#utility.yul\":14308:14309   */\n      0x00\n        /* \"#utility.yul\":14300:14306   */\n      dup3\n        /* \"#utility.yul\":14296:14310   */\n      add\n        /* \"#utility.yul\":14289:14335   */\n      mstore\n        /* \"#utility.yul\":14172:14342   */\n      pop\n      jump\t// out\n        /* \"#utility.yul\":14348:14714   */\n    tag_304:\n        /* \"#utility.yul\":14490:14493   */\n      0x00\n        /* \"#utility.yul\":14511:14578   */\n      tag_497\n        /* \"#utility.yul\":14575:14577   */\n      0x14\n        /* \"#utility.yul\":14570:14573   */\n      dup4\n        /* \"#utility.yul\":14511:14578   */\n      tag_302\n      jump\t// in\n    tag_497:\n        /* \"#utility.yul\":14504:14578   */\n      swap2\n      pop\n        /* \"#utility.yul\":14587:14680   */\n      tag_498\n        /* \"#utility.yul\":14676:14679   */\n      dup3\n        /* \"#utility.yul\":14587:14680   */\n      tag_303\n      jump\t// in\n    tag_498:\n        /* \"#utility.yul\":14705:14707   */\n      0x20\n        /* \"#utility.yul\":14700:14703   */\n      dup3\n        /* \"#utility.yul\":14696:14708   */\n      add\n        /* \"#utility.yul\":14689:14708   */\n      swap1\n      pop\n        /* \"#utility.yul\":14348:14714   */\n      swap2\n      swap1\n      pop\n      jump\t// out\n        /* \"#utility.yul\":14720:15139   */\n    tag_75:\n        /* \"#utility.yul\":14886:14890   */\n      0x00\n        /* \"#utility.yul\":14924:14926   */\n      0x20\n        /* \"#utility.yul\":14913:14922   */\n      dup3\n        /* \"#utility.yul\":14909:14927   */\n      add\n        /* \"#utility.yul\":14901:14927   */\n      swap1\n      pop\n        /* \"#utility.yul\":14973:14982   */\n      dup2\n        /* \"#utility.yul\":14967:14971   */\n      dup2\n        /* \"#utility.yul\":14963:14983   */\n      sub\n        /* \"#utility.yul\":14959:14960   */\n      0x00\n        /* \"#utility.yul\":14948:14957   */\n      dup4\n        /* \"#utility.yul\":14944:14961   */\n      add\n        /* \"#utility.yul\":14937:14984   */\n      mstore\n        /* \"#utility.yul\":15001:15132   */\n      tag_500\n        /* \"#utility.yul\":15127:15131   */\n      dup2\n        /* \"#utility.yul\":15001:15132   */\n      tag_304\n      jump\t// in\n    tag_500:\n        /* \"#utility.yul\":14993:15132   */\n      swap1\n      pop\n        /* \"#utility.yul\":14720:15139   */\n      swap2\n      swap1\n      pop\n      jump\t// out\n        /* \"#utility.yul\":15145:15321   */\n    tag_305:\n        /* \"#utility.yul\":15285:15313   */\n      0x50726f787920636f6e7472616374206e6f7420616c6c6f776564000000000000\n        /* \"#utility.yul\":15281:15282   */\n      0x00\n        /* \"#utility.yul\":15273:15279   */\n      dup3\n        /* \"#utility.yul\":15269:15283   */\n      add\n        /* \"#utility.yul\":15262:15314   */\n      mstore\n        /* \"#utility.yul\":15145:15321   */\n      pop\n      jump\t// out\n        /* \"#utility.yul\":15327:15693   */\n    tag_306:\n        /* \"#utility.yul\":15469:15472   */\n      0x00\n        /* \"#utility.yul\":15490:15557   */\n      tag_503\n        /* \"#utility.yul\":15554:15556   */\n      0x1a\n        /* \"#utility.yul\":15549:15552   */\n      dup4\n        /* \"#utility.yul\":15490:15557   */\n      tag_302\n      jump\t// in\n    tag_503:\n        /* \"#utility.yul\":15483:15557   */\n      swap2\n      pop\n        /* \"#utility.yul\":15566:15659   */\n      tag_504\n        /* \"#utility.yul\":15655:15658   */\n      dup3\n        /* \"#utility.yul\":15566:15659   */\n      tag_305\n      jump\t// in\n    tag_504:\n        /* \"#utility.yul\":15684:15686   */\n      0x20\n        /* \"#utility.yul\":15679:15682   */\n      dup3\n        /* \"#utility.yul\":15675:15687   */\n      add\n        /* \"#utility.yul\":15668:15687   */\n      swap1\n      pop\n        /* \"#utility.yul\":15327:15693   */\n      swap2\n      swap1\n      pop\n      jump\t// out\n        /* \"#utility.yul\":15699:16118   */\n    tag_78:\n        /* \"#utility.yul\":15865:15869   */\n      0x00\n        /* \"#utility.yul\":15903:15905   */\n      0x20\n        /* \"#utility.yul\":15892:15901   */\n      dup3\n        /* \"#utility.yul\":15888:15906   */\n      add\n        /* \"#utility.yul\":15880:15906   */\n      swap1\n      pop\n        /* \"#utility.yul\":15952:15961   */\n      dup2\n        /* \"#utility.yul\":15946:15950   */\n      dup2\n        /* \"#utility.yul\":15942:15962   */\n      sub\n        /* \"#utility.yul\":15938:15939   */\n      0x00\n        /* \"#utility.yul\":15927:15936   */\n      dup4\n        /* \"#utility.yul\":15923:15940   */\n      add\n        /* \"#utility.yul\":15916:15963   */\n      mstore\n        /* \"#utility.yul\":15980:16111   */\n      tag_506\n        /* \"#utility.yul\":16106:16110   */\n      dup2\n        /* \"#utility.yul\":15980:16111   */\n      tag_306\n      jump\t// in\n    tag_506:\n        /* \"#utility.yul\":15972:16111   */\n      swap1\n      pop\n        /* \"#utility.yul\":15699:16118   */\n      swap2\n      swap1\n      pop\n      jump\t// out\n        /* \"#utility.yul\":16124:16283   */\n    tag_307:\n        /* \"#utility.yul\":16264:16275   */\n      0x4e6f20746f6b656e730000000000000000000000000000000000000000000000\n        /* \"#utility.yul\":16260:16261   */\n      0x00\n        /* \"#utility.yul\":16252:16258   */\n      dup3\n        /* \"#utility.yul\":16248:16262   */\n      add\n        /* \"#utility.yul\":16241:16276   */\n      mstore\n        /* \"#utility.yul\":16124:16283   */\n      pop\n      jump\t// out\n        /* \"#utility.yul\":16289:16654   */\n    tag_308:\n        /* \"#utility.yul\":16431:16434   */\n      0x00\n        /* \"#utility.yul\":16452:16518   */\n      tag_509\n        /* \"#utility.yul\":16516:16517   */\n      0x09\n        /* \"#utility.yul\":16511:16514   */\n      dup4\n        /* \"#utility.yul\":16452:16518   */\n      tag_302\n      jump\t// in\n    tag_509:\n        /* \"#utility.yul\":16445:16518   */\n      swap2\n      pop\n        /* \"#utility.yul\":16527:16620   */\n      tag_510\n        /* \"#utility.yul\":16616:16619   */\n      dup3\n        /* \"#utility.yul\":16527:16620   */\n      tag_307\n      jump\t// in\n    tag_510:\n        /* \"#utility.yul\":16645:16647   */\n      0x20\n        /* \"#utility.yul\":16640:16643   */\n      dup3\n        /* \"#utility.yul\":16636:16648   */\n      add\n        /* \"#utility.yul\":16629:16648   */\n      swap1\n      pop\n        /* \"#utility.yul\":16289:16654   */\n      swap2\n      swap1\n      pop\n      jump\t// out\n        /* \"#utility.yul\":16660:17079   */\n    tag_82:\n        /* \"#utility.yul\":16826:16830   */\n      0x00\n        /* \"#utility.yul\":16864:16866   */\n      0x20\n        /* \"#utility.yul\":16853:16862   */\n      dup3\n        /* \"#utility.yul\":16849:16867   */\n      add\n        /* \"#utility.yul\":16841:16867   */\n      swap1\n      pop\n        /* \"#utility.yul\":16913:16922   */\n      dup2\n        /* \"#utility.yul\":16907:16911   */\n      dup2\n        /* \"#utility.yul\":16903:16923   */\n      sub\n        /* \"#utility.yul\":16899:16900   */\n      0x00\n        /* \"#utility.yul\":16888:16897   */\n      dup4\n        /* \"#utility.yul\":16884:16901   */\n      add\n        /* \"#utility.yul\":16877:16924   */\n      mstore\n        /* \"#utility.yul\":16941:17072   */\n      tag_512\n        /* \"#utility.yul\":17067:17071   */\n      dup2\n        /* \"#utility.yul\":16941:17072   */\n      tag_308\n      jump\t// in\n    tag_512:\n        /* \"#utility.yul\":16933:17072   */\n      swap1\n      pop\n        /* \"#utility.yul\":16660:17079   */\n      swap2\n      swap1\n      pop\n      jump\t// out\n        /* \"#utility.yul\":17085:17265   */\n    tag_88:\n        /* \"#utility.yul\":17133:17210   */\n      0x4e487b7100000000000000000000000000000000000000000000000000000000\n        /* \"#utility.yul\":17130:17131   */\n      0x00\n        /* \"#utility.yul\":17123:17211   */\n      mstore\n        /* \"#utility.yul\":17230:17234   */\n      0x32\n        /* \"#utility.yul\":17227:17228   */\n      0x04\n        /* \"#utility.yul\":17220:17235   */\n      mstore\n        /* \"#utility.yul\":17254:17258   */\n      0x24\n        /* \"#utility.yul\":17251:17252   */\n      0x00\n        /* \"#utility.yul\":17244:17259   */\n      revert\n        /* \"#utility.yul\":17271:17438   */\n    tag_309:\n        /* \"#utility.yul\":17411:17430   */\n      0x4e6f74206120746f6b656e206f776e6572000000000000000000000000000000\n        /* \"#utility.yul\":17407:17408   */\n      0x00\n        /* \"#utility.yul\":17399:17405   */\n      dup3\n        /* \"#utility.yul\":17395:17409   */\n      add\n        /* \"#utility.yul\":17388:17431   */\n      mstore\n        /* \"#utility.yul\":17271:17438   */\n      pop\n      jump\t// out\n        /* \"#utility.yul\":17444:17810   */\n    tag_310:\n        /* \"#utility.yul\":17586:17589   */\n      0x00\n        /* \"#utility.yul\":17607:17674   */\n      tag_516\n        /* \"#utility.yul\":17671:17673   */\n      0x11\n        /* \"#utility.yul\":17666:17669   */\n      dup4\n        /* \"#utility.yul\":17607:17674   */\n      tag_302\n      jump\t// in\n    tag_516:\n        /* \"#utility.yul\":17600:17674   */\n      swap2\n      pop\n        /* \"#utility.yul\":17683:17776   */\n      tag_517\n        /* \"#utility.yul\":17772:17775   */\n      dup3\n        /* \"#utility.yul\":17683:17776   */\n      tag_309\n      jump\t// in\n    tag_517:\n        /* \"#utility.yul\":17801:17803   */\n      0x20\n        /* \"#utility.yul\":17796:17799   */\n      dup3\n        /* \"#utility.yul\":17792:17804   */\n      add\n        /* \"#utility.yul\":17785:17804   */\n      swap1\n      pop\n        /* \"#utility.yul\":17444:17810   */\n      swap2\n      swap1\n      pop\n      jump\t// out\n        /* \"#utility.yul\":17816:18235   */\n    tag_91:\n        /* \"#utility.yul\":17982:17986   */\n      0x00\n        /* \"#utility.yul\":18020:18022   */\n      0x20\n        /* \"#utility.yul\":18009:18018   */\n      dup3\n        /* \"#utility.yul\":18005:18023   */\n      add\n        /* \"#utility.yul\":17997:18023   */\n      swap1\n      pop\n        /* \"#utility.yul\":18069:18078   */\n      dup2\n        /* \"#utility.yul\":18063:18067   */\n      dup2\n        /* \"#utility.yul\":18059:18079   */\n      sub\n        /* \"#utility.yul\":18055:18056   */\n      0x00\n        /* \"#utility.yul\":18044:18053   */\n      dup4\n        /* \"#utility.yul\":18040:18057   */\n      add\n        /* \"#utility.yul\":18033:18080   */\n      mstore\n        /* \"#utility.yul\":18097:18228   */\n      tag_519\n        /* \"#utility.yul\":18223:18227   */\n      dup2\n        /* \"#utility.yul\":18097:18228   */\n      tag_310\n      jump\t// in\n    tag_519:\n        /* \"#utility.yul\":18089:18228   */\n      swap1\n      pop\n        /* \"#utility.yul\":17816:18235   */\n      swap2\n      swap1\n      pop\n      jump\t// out\n        /* \"#utility.yul\":18241:18421   */\n    tag_311:\n        /* \"#utility.yul\":18289:18366   */\n      0x4e487b7100000000000000000000000000000000000000000000000000000000\n        /* \"#utility.yul\":18286:18287   */\n      0x00\n        /* \"#utility.yul\":18279:18367   */\n      mstore\n        /* \"#utility.yul\":18386:18390   */\n      0x11\n        /* \"#utility.yul\":18383:18384   */\n      0x04\n        /* \"#utility.yul\":18376:18391   */\n      mstore\n        /* \"#utility.yul\":18410:18414   */\n      0x24\n        /* \"#utility.yul\":18407:18408   */\n      0x00\n        /* \"#utility.yul\":18400:18415   */\n      revert\n        /* \"#utility.yul\":18427:18618   */\n    tag_93:\n        /* \"#utility.yul\":18467:18470   */\n      0x00\n        /* \"#utility.yul\":18486:18506   */\n      tag_522\n        /* \"#utility.yul\":18504:18505   */\n      dup3\n        /* \"#utility.yul\":18486:18506   */\n      tag_276\n      jump\t// in\n    tag_522:\n        /* \"#utility.yul\":18481:18506   */\n      swap2\n      pop\n        /* \"#utility.yul\":18520:18540   */\n      tag_523\n        /* \"#utility.yul\":18538:18539   */\n      dup4\n        /* \"#utility.yul\":18520:18540   */\n      tag_276\n      jump\t// in\n    tag_523:\n        /* \"#utility.yul\":18515:18540   */\n      swap3\n      pop\n        /* \"#utility.yul\":18563:18564   */\n      dup3\n        /* \"#utility.yul\":18560:18561   */\n      dup3\n        /* \"#utility.yul\":18556:18565   */\n      add\n        /* \"#utility.yul\":18549:18565   */\n      swap1\n      pop\n        /* \"#utility.yul\":18584:18587   */\n      dup1\n        /* \"#utility.yul\":18581:18582   */\n      dup3\n        /* \"#utility.yul\":18578:18588   */\n      gt\n        /* \"#utility.yul\":18575:18611   */\n      iszero\n      tag_524\n      jumpi\n        /* \"#utility.yul\":18591:18609   */\n      tag_525\n      tag_311\n      jump\t// in\n    tag_525:\n        /* \"#utility.yul\":18575:18611   */\n    tag_524:\n        /* \"#utility.yul\":18427:18618   */\n      swap3\n      swap2\n      pop\n      pop\n      jump\t// out\n        /* \"#utility.yul\":18624:18795   */\n    tag_312:\n        /* \"#utility.yul\":18764:18787   */\n      0x4e6f742061626c6520746f20636c61696d207965740000000000000000000000\n        /* \"#utility.yul\":18760:18761   */\n      0x00\n        /* \"#utility.yul\":18752:18758   */\n      dup3\n        /* \"#utility.yul\":18748:18762   */\n      add\n        /* \"#utility.yul\":18741:18788   */\n      mstore\n        /* \"#utility.yul\":18624:18795   */\n      pop\n      jump\t// out\n        /* \"#utility.yul\":18801:19167   */\n    tag_313:\n        /* \"#utility.yul\":18943:18946   */\n      0x00\n        /* \"#utility.yul\":18964:19031   */\n      tag_528\n        /* \"#utility.yul\":19028:19030   */\n      0x15\n        /* \"#utility.yul\":19023:19026   */\n      dup4\n        /* \"#utility.yul\":18964:19031   */\n      tag_302\n      jump\t// in\n    tag_528:\n        /* \"#utility.yul\":18957:19031   */\n      swap2\n      pop\n        /* \"#utility.yul\":19040:19133   */\n      tag_529\n        /* \"#utility.yul\":19129:19132   */\n      dup3\n        /* \"#utility.yul\":19040:19133   */\n      tag_312\n      jump\t// in\n    tag_529:\n        /* \"#utility.yul\":19158:19160   */\n      0x20\n        /* \"#utility.yul\":19153:19156   */\n      dup3\n        /* \"#utility.yul\":19149:19161   */\n      add\n        /* \"#utility.yul\":19142:19161   */\n      swap1\n      pop\n        /* \"#utility.yul\":18801:19167   */\n      swap2\n      swap1\n      pop\n      jump\t// out\n        /* \"#utility.yul\":19173:19592   */\n    tag_96:\n        /* \"#utility.yul\":19339:19343   */\n      0x00\n        /* \"#utility.yul\":19377:19379   */\n      0x20\n        /* \"#utility.yul\":19366:19375   */\n      dup3\n        /* \"#utility.yul\":19362:19380   */\n      add\n        /* \"#utility.yul\":19354:19380   */\n      swap1\n      pop\n        /* \"#utility.yul\":19426:19435   */\n      dup2\n        /* \"#utility.yul\":19420:19424   */\n      dup2\n        /* \"#utility.yul\":19416:19436   */\n      sub\n        /* \"#utility.yul\":19412:19413   */\n      0x00\n        /* \"#utility.yul\":19401:19410   */\n      dup4\n        /* \"#utility.yul\":19397:19414   */\n      add\n        /* \"#utility.yul\":19390:19437   */\n      mstore\n        /* \"#utility.yul\":19454:19585   */\n      tag_531\n        /* \"#utility.yul\":19580:19584   */\n      dup2\n        /* \"#utility.yul\":19454:19585   */\n      tag_313\n      jump\t// in\n    tag_531:\n        /* \"#utility.yul\":19446:19585   */\n      swap1\n      pop\n        /* \"#utility.yul\":19173:19592   */\n      swap2\n      swap1\n      pop\n      jump\t// out\n        /* \"#utility.yul\":19598:19764   */\n    tag_314:\n        /* \"#utility.yul\":19738:19756   */\n      0x416c726561647920756e6c6f636b656400000000000000000000000000000000\n        /* \"#utility.yul\":19734:19735   */\n      0x00\n        /* \"#utility.yul\":19726:19732   */\n      dup3\n        /* \"#utility.yul\":19722:19736   */\n      add\n        /* \"#utility.yul\":19715:19757   */\n      mstore\n        /* \"#utility.yul\":19598:19764   */\n      pop\n      jump\t// out\n        /* \"#utility.yul\":19770:20136   */\n    tag_315:\n        /* \"#utility.yul\":19912:19915   */\n      0x00\n        /* \"#utility.yul\":19933:20000   */\n      tag_534\n        /* \"#utility.yul\":19997:19999   */\n      0x10\n        /* \"#utility.yul\":19992:19995   */\n      dup4\n        /* \"#utility.yul\":19933:20000   */\n      tag_302\n      jump\t// in\n    tag_534:\n        /* \"#utility.yul\":19926:20000   */\n      swap2\n      pop\n        /* \"#utility.yul\":20009:20102   */\n      tag_535\n        /* \"#utility.yul\":20098:20101   */\n      dup3\n        /* \"#utility.yul\":20009:20102   */\n      tag_314\n      jump\t// in\n    tag_535:\n        /* \"#utility.yul\":20127:20129   */\n      0x20\n        /* \"#utility.yul\":20122:20125   */\n      dup3\n        /* \"#utility.yul\":20118:20130   */\n      add\n        /* \"#utility.yul\":20111:20130   */\n      swap1\n      pop\n        /* \"#utility.yul\":19770:20136   */\n      swap2\n      swap1\n      pop\n      jump\t// out\n        /* \"#utility.yul\":20142:20561   */\n    tag_99:\n        /* \"#utility.yul\":20308:20312   */\n      0x00\n        /* \"#utility.yul\":20346:20348   */\n      0x20\n        /* \"#utility.yul\":20335:20344   */\n      dup3\n        /* \"#utility.yul\":20331:20349   */\n      add\n        /* \"#utility.yul\":20323:20349   */\n      swap1\n      pop\n        /* \"#utility.yul\":20395:20404   */\n      dup2\n        /* \"#utility.yul\":20389:20393   */\n      dup2\n        /* \"#utility.yul\":20385:20405   */\n      sub\n        /* \"#utility.yul\":20381:20382   */\n      0x00\n        /* \"#utility.yul\":20370:20379   */\n      dup4\n        /* \"#utility.yul\":20366:20383   */\n      add\n        /* \"#utility.yul\":20359:20406   */\n      mstore\n        /* \"#utility.yul\":20423:20554   */\n      tag_537\n        /* \"#utility.yul\":20549:20553   */\n      dup2\n        /* \"#utility.yul\":20423:20554   */\n      tag_315\n      jump\t// in\n    tag_537:\n        /* \"#utility.yul\":20415:20554   */\n      swap1\n      pop\n        /* \"#utility.yul\":20142:20561   */\n      swap2\n      swap1\n      pop\n      jump\t// out\n        /* \"#utility.yul\":20567:20761   */\n    tag_105:\n        /* \"#utility.yul\":20607:20611   */\n      0x00\n        /* \"#utility.yul\":20627:20647   */\n      tag_539\n        /* \"#utility.yul\":20645:20646   */\n      dup3\n        /* \"#utility.yul\":20627:20647   */\n      tag_276\n      jump\t// in\n    tag_539:\n        /* \"#utility.yul\":20622:20647   */\n      swap2\n      pop\n        /* \"#utility.yul\":20661:20681   */\n      tag_540\n        /* \"#utility.yul\":20679:20680   */\n      dup4\n        /* \"#utility.yul\":20661:20681   */\n      tag_276\n      jump\t// in\n    tag_540:\n        /* \"#utility.yul\":20656:20681   */\n      swap3\n      pop\n        /* \"#utility.yul\":20705:20706   */\n      dup3\n        /* \"#utility.yul\":20702:20703   */\n      dup3\n        /* \"#utility.yul\":20698:20707   */\n      sub\n        /* \"#utility.yul\":20690:20707   */\n      swap1\n      pop\n        /* \"#utility.yul\":20729:20730   */\n      dup2\n        /* \"#utility.yul\":20723:20727   */\n      dup2\n        /* \"#utility.yul\":20720:20731   */\n      gt\n        /* \"#utility.yul\":20717:20754   */\n      iszero\n      tag_541\n      jumpi\n        /* \"#utility.yul\":20734:20752   */\n      tag_542\n      tag_311\n      jump\t// in\n    tag_542:\n        /* \"#utility.yul\":20717:20754   */\n    tag_541:\n        /* \"#utility.yul\":20567:20761   */\n      swap3\n      swap2\n      pop\n      pop\n      jump\t// out\n        /* \"#utility.yul\":20767:21099   */\n    tag_107:\n        /* \"#utility.yul\":20888:20892   */\n      0x00\n        /* \"#utility.yul\":20926:20928   */\n      0x40\n        /* \"#utility.yul\":20915:20924   */\n      dup3\n        /* \"#utility.yul\":20911:20929   */\n      add\n        /* \"#utility.yul\":20903:20929   */\n      swap1\n      pop\n        /* \"#utility.yul\":20939:21010   */\n      tag_544\n        /* \"#utility.yul\":21007:21008   */\n      0x00\n        /* \"#utility.yul\":20996:21005   */\n      dup4\n        /* \"#utility.yul\":20992:21009   */\n      add\n        /* \"#utility.yul\":20983:20989   */\n      dup6\n        /* \"#utility.yul\":20939:21010   */\n      tag_292\n      jump\t// in\n    tag_544:\n        /* \"#utility.yul\":21020:21092   */\n      tag_545\n        /* \"#utility.yul\":21088:21090   */\n      0x20\n        /* \"#utility.yul\":21077:21086   */\n      dup4\n        /* \"#utility.yul\":21073:21091   */\n      add\n        /* \"#utility.yul\":21064:21070   */\n      dup5\n        /* \"#utility.yul\":21020:21092   */\n      tag_277\n      jump\t// in\n    tag_545:\n        /* \"#utility.yul\":20767:21099   */\n      swap4\n      swap3\n      pop\n      pop\n      pop\n      jump\t// out\n        /* \"#utility.yul\":21105:21338   */\n    tag_115:\n        /* \"#utility.yul\":21144:21147   */\n      0x00\n        /* \"#utility.yul\":21167:21191   */\n      tag_547\n        /* \"#utility.yul\":21185:21190   */\n      dup3\n        /* \"#utility.yul\":21167:21191   */\n      tag_276\n      jump\t// in\n    tag_547:\n        /* \"#utility.yul\":21158:21191   */\n      swap2\n      pop\n        /* \"#utility.yul\":21213:21279   */\n      0xffffffffffffffffffffffffffffffffffffffffffffffffffffffffffffffff\n        /* \"#utility.yul\":21206:21211   */\n      dup3\n        /* \"#utility.yul\":21203:21280   */\n      sub\n        /* \"#utility.yul\":21200:21303   */\n      tag_548\n      jumpi\n        /* \"#utility.yul\":21283:21301   */\n      tag_549\n      tag_311\n      jump\t// in\n    tag_549:\n        /* \"#utility.yul\":21200:21303   */\n    tag_548:\n        /* \"#utility.yul\":21330:21331   */\n      0x01\n        /* \"#utility.yul\":21323:21328   */\n      dup3\n        /* \"#utility.yul\":21319:21332   */\n      add\n        /* \"#utility.yul\":21312:21332   */\n      swap1\n      pop\n        /* \"#utility.yul\":21105:21338   */\n      swap2\n      swap1\n      pop\n      jump\t// out\n        /* \"#utility.yul\":21344:21528   */\n    tag_316:\n        /* \"#utility.yul\":21443:21454   */\n      0x00\n        /* \"#utility.yul\":21477:21483   */\n      dup3\n        /* \"#utility.yul\":21472:21475   */\n      dup3\n        /* \"#utility.yul\":21465:21484   */\n      mstore\n        /* \"#utility.yul\":21517:21521   */\n      0x20\n        /* \"#utility.yul\":21512:21515   */\n      dup3\n        /* \"#utility.yul\":21508:21522   */\n      add\n        /* \"#utility.yul\":21493:21522   */\n      swap1\n      pop\n        /* \"#utility.yul\":21344:21528   */\n      swap3\n      swap2\n      pop\n      pop\n      jump\t// out\n        /* \"#utility.yul\":21534:21651   */\n    tag_317:\n        /* \"#utility.yul\":21643:21644   */\n      0x00\n        /* \"#utility.yul\":21640:21641   */\n      dup1\n        /* \"#utility.yul\":21633:21645   */\n      revert\n        /* \"#utility.yul\":21657:21755   */\n    tag_318:\n        /* \"#utility.yul\":21741:21747   */\n      dup3\n        /* \"#utility.yul\":21736:21739   */\n      dup2\n        /* \"#utility.yul\":21731:21734   */\n      dup4\n        /* \"#utility.yul\":21718:21748   */\n      calldatacopy\n        /* \"#utility.yul\":21657:21755   */\n      pop\n      pop\n      pop\n      jump\t// out\n        /* \"#utility.yul\":21791:22328   */\n    tag_319:\n        /* \"#utility.yul\":21919:21922   */\n      0x00\n        /* \"#utility.yul\":21940:22026   */\n      tag_554\n        /* \"#utility.yul\":22019:22025   */\n      dup4\n        /* \"#utility.yul\":22014:22017   */\n      dup6\n        /* \"#utility.yul\":21940:22026   */\n      tag_316\n      jump\t// in\n    tag_554:\n        /* \"#utility.yul\":21933:22026   */\n      swap4\n      pop\n        /* \"#utility.yul\":22050:22116   */\n      0x07ffffffffffffffffffffffffffffffffffffffffffffffffffffffffffffff\n        /* \"#utility.yul\":22042:22048   */\n      dup4\n        /* \"#utility.yul\":22039:22117   */\n      gt\n        /* \"#utility.yul\":22036:22201   */\n      iszero\n      tag_555\n      jumpi\n        /* \"#utility.yul\":22120:22199   */\n      tag_556\n      tag_317\n      jump\t// in\n    tag_556:\n        /* \"#utility.yul\":22036:22201   */\n    tag_555:\n        /* \"#utility.yul\":22232:22236   */\n      0x20\n        /* \"#utility.yul\":22224:22230   */\n      dup4\n        /* \"#utility.yul\":22220:22237   */\n      mul\n        /* \"#utility.yul\":22210:22237   */\n      swap3\n      pop\n        /* \"#utility.yul\":22247:22290   */\n      tag_557\n        /* \"#utility.yul\":22283:22289   */\n      dup4\n        /* \"#utility.yul\":22278:22281   */\n      dup6\n        /* \"#utility.yul\":22271:22276   */\n      dup5\n        /* \"#utility.yul\":22247:22290   */\n      tag_318\n      jump\t// in\n    tag_557:\n        /* \"#utility.yul\":22315:22321   */\n      dup3\n        /* \"#utility.yul\":22310:22313   */\n      dup5\n        /* \"#utility.yul\":22306:22322   */\n      add\n        /* \"#utility.yul\":22299:22322   */\n      swap1\n      pop\n        /* \"#utility.yul\":21791:22328   */\n      swap4\n      swap3\n      pop\n      pop\n      pop\n      jump\t// out\n        /* \"#utility.yul\":22334:22837   */\n    tag_117:\n        /* \"#utility.yul\":22515:22519   */\n      0x00\n        /* \"#utility.yul\":22553:22555   */\n      0x40\n        /* \"#utility.yul\":22542:22551   */\n      dup3\n        /* \"#utility.yul\":22538:22556   */\n      add\n        /* \"#utility.yul\":22530:22556   */\n      swap1\n      pop\n        /* \"#utility.yul\":22602:22611   */\n      dup2\n        /* \"#utility.yul\":22596:22600   */\n      dup2\n        /* \"#utility.yul\":22592:22612   */\n      sub\n        /* \"#utility.yul\":22588:22589   */\n      0x00\n        /* \"#utility.yul\":22577:22586   */\n      dup4\n        /* \"#utility.yul\":22573:22590   */\n      add\n        /* \"#utility.yul\":22566:22613   */\n      mstore\n        /* \"#utility.yul\":22630:22748   */\n      tag_559\n        /* \"#utility.yul\":22743:22747   */\n      dup2\n        /* \"#utility.yul\":22734:22740   */\n      dup6\n        /* \"#utility.yul\":22726:22732   */\n      dup8\n        /* \"#utility.yul\":22630:22748   */\n      tag_319\n      jump\t// in\n    tag_559:\n        /* \"#utility.yul\":22622:22748   */\n      swap1\n      pop\n        /* \"#utility.yul\":22758:22830   */\n      tag_560\n        /* \"#utility.yul\":22826:22828   */\n      0x20\n        /* \"#utility.yul\":22815:22824   */\n      dup4\n        /* \"#utility.yul\":22811:22829   */\n      add\n        /* \"#utility.yul\":22802:22808   */\n      dup5\n        /* \"#utility.yul\":22758:22830   */\n      tag_277\n      jump\t// in\n    tag_560:\n        /* \"#utility.yul\":22334:22837   */\n      swap5\n      swap4\n      pop\n      pop\n      pop\n      pop\n      jump\t// out\n        /* \"#utility.yul\":22843:23024   */\n    tag_320:\n        /* \"#utility.yul\":22983:23016   */\n      0x5265656e7472616e637947756172643a207265656e7472616e742063616c6c00\n        /* \"#utility.yul\":22979:22980   */\n      0x00\n        /* \"#utility.yul\":22971:22977   */\n      dup3\n        /* \"#utility.yul\":22967:22981   */\n      add\n        /* \"#utility.yul\":22960:23017   */\n      mstore\n        /* \"#utility.yul\":22843:23024   */\n      pop\n      jump\t// out\n        /* \"#utility.yul\":23030:23396   */\n    tag_321:\n        /* \"#utility.yul\":23172:23175   */\n      0x00\n        /* \"#utility.yul\":23193:23260   */\n      tag_563\n        /* \"#utility.yul\":23257:23259   */\n      0x1f\n        /* \"#utility.yul\":23252:23255   */\n      dup4\n        /* \"#utility.yul\":23193:23260   */\n      tag_302\n      jump\t// in\n    tag_563:\n        /* \"#utility.yul\":23186:23260   */\n      swap2\n      pop\n        /* \"#utility.yul\":23269:23362   */\n      tag_564\n        /* \"#utility.yul\":23358:23361   */\n      dup3\n        /* \"#utility.yul\":23269:23362   */\n      tag_320\n      jump\t// in\n    tag_564:\n        /* \"#utility.yul\":23387:23389   */\n      0x20\n        /* \"#utility.yul\":23382:23385   */\n      dup3\n        /* \"#utility.yul\":23378:23390   */\n      add\n        /* \"#utility.yul\":23371:23390   */\n      swap1\n      pop\n        /* \"#utility.yul\":23030:23396   */\n      swap2\n      swap1\n      pop\n      jump\t// out\n        /* \"#utility.yul\":23402:23821   */\n    tag_127:\n        /* \"#utility.yul\":23568:23572   */\n      0x00\n        /* \"#utility.yul\":23606:23608   */\n      0x20\n        /* \"#utility.yul\":23595:23604   */\n      dup3\n        /* \"#utility.yul\":23591:23609   */\n      add\n        /* \"#utility.yul\":23583:23609   */\n      swap1\n      pop\n        /* \"#utility.yul\":23655:23664   */\n      dup2\n        /* \"#utility.yul\":23649:23653   */\n      dup2\n        /* \"#utility.yul\":23645:23665   */\n      sub\n        /* \"#utility.yul\":23641:23642   */\n      0x00\n        /* \"#utility.yul\":23630:23639   */\n      dup4\n        /* \"#utility.yul\":23626:23643   */\n      add\n        /* \"#utility.yul\":23619:23666   */\n      mstore\n        /* \"#utility.yul\":23683:23814   */\n      tag_566\n        /* \"#utility.yul\":23809:23813   */\n      dup2\n        /* \"#utility.yul\":23683:23814   */\n      tag_321\n      jump\t// in\n    tag_566:\n        /* \"#utility.yul\":23675:23814   */\n      swap1\n      pop\n        /* \"#utility.yul\":23402:23821   */\n      swap2\n      swap1\n      pop\n      jump\t// out\n        /* \"#utility.yul\":23827:23970   */\n    tag_322:\n        /* \"#utility.yul\":23884:23889   */\n      0x00\n        /* \"#utility.yul\":23915:23921   */\n      dup2\n        /* \"#utility.yul\":23909:23922   */\n      mload\n        /* \"#utility.yul\":23900:23922   */\n      swap1\n      pop\n        /* \"#utility.yul\":23931:23964   */\n      tag_568\n        /* \"#utility.yul\":23958:23963   */\n      dup2\n        /* \"#utility.yul\":23931:23964   */\n      tag_285\n      jump\t// in\n    tag_568:\n        /* \"#utility.yul\":23827:23970   */\n      swap3\n      swap2\n      pop\n      pop\n      jump\t// out\n        /* \"#utility.yul\":23976:24327   */\n    tag_140:\n        /* \"#utility.yul\":24046:24052   */\n      0x00\n        /* \"#utility.yul\":24095:24097   */\n      0x20\n        /* \"#utility.yul\":24083:24092   */\n      dup3\n        /* \"#utility.yul\":24074:24081   */\n      dup5\n        /* \"#utility.yul\":24070:24093   */\n      sub\n        /* \"#utility.yul\":24066:24098   */\n      slt\n        /* \"#utility.yul\":24063:24182   */\n      iszero\n      tag_570\n      jumpi\n        /* \"#utility.yul\":24101:24180   */\n      tag_571\n      tag_265\n      jump\t// in\n    tag_571:\n        /* \"#utility.yul\":24063:24182   */\n    tag_570:\n        /* \"#utility.yul\":24221:24222   */\n      0x00\n        /* \"#utility.yul\":24246:24310   */\n      tag_572\n        /* \"#utility.yul\":24302:24309   */\n      dup5\n        /* \"#utility.yul\":24293:24299   */\n      dup3\n        /* \"#utility.yul\":24282:24291   */\n      dup6\n        /* \"#utility.yul\":24278:24300   */\n      add\n        /* \"#utility.yul\":24246:24310   */\n      tag_322\n      jump\t// in\n    tag_572:\n        /* \"#utility.yul\":24236:24310   */\n      swap2\n      pop\n        /* \"#utility.yul\":24192:24320   */\n      pop\n        /* \"#utility.yul\":23976:24327   */\n      swap3\n      swap2\n      pop\n      pop\n      jump\t// out\n        /* \"#utility.yul\":24333:24508   */\n    tag_323:\n        /* \"#utility.yul\":24473:24500   */\n      0x596f7520646f6e277420686f6c64207468697320746f6b656e00000000000000\n        /* \"#utility.yul\":24469:24470   */\n      0x00\n        /* \"#utility.yul\":24461:24467   */\n      dup3\n        /* \"#utility.yul\":24457:24471   */\n      add\n        /* \"#utility.yul\":24450:24501   */\n      mstore\n        /* \"#utility.yul\":24333:24508   */\n      pop\n      jump\t// out\n        /* \"#utility.yul\":24514:24880   */\n    tag_324:\n        /* \"#utility.yul\":24656:24659   */\n      0x00\n        /* \"#utility.yul\":24677:24744   */\n      tag_575\n        /* \"#utility.yul\":24741:24743   */\n      0x19\n        /* \"#utility.yul\":24736:24739   */\n      dup4\n        /* \"#utility.yul\":24677:24744   */\n      tag_302\n      jump\t// in\n    tag_575:\n        /* \"#utility.yul\":24670:24744   */\n      swap2\n      pop\n        /* \"#utility.yul\":24753:24846   */\n      tag_576\n        /* \"#utility.yul\":24842:24845   */\n      dup3\n        /* \"#utility.yul\":24753:24846   */\n      tag_323\n      jump\t// in\n    tag_576:\n        /* \"#utility.yul\":24871:24873   */\n      0x20\n        /* \"#utility.yul\":24866:24869   */\n      dup3\n        /* \"#utility.yul\":24862:24874   */\n      add\n        /* \"#utility.yul\":24855:24874   */\n      swap1\n      pop\n        /* \"#utility.yul\":24514:24880   */\n      swap2\n      swap1\n      pop\n      jump\t// out\n        /* \"#utility.yul\":24886:25305   */\n    tag_143:\n        /* \"#utility.yul\":25052:25056   */\n      0x00\n        /* \"#utility.yul\":25090:25092   */\n      0x20\n        /* \"#utility.yul\":25079:25088   */\n      dup3\n        /* \"#utility.yul\":25075:25093   */\n      add\n        /* \"#utility.yul\":25067:25093   */\n      swap1\n      pop\n        /* \"#utility.yul\":25139:25148   */\n      dup2\n        /* \"#utility.yul\":25133:25137   */\n      dup2\n        /* \"#utility.yul\":25129:25149   */\n      sub\n        /* \"#utility.yul\":25125:25126   */\n      0x00\n        /* \"#utility.yul\":25114:25123   */\n      dup4\n        /* \"#utility.yul\":25110:25127   */\n      add\n        /* \"#utility.yul\":25103:25150   */\n      mstore\n        /* \"#utility.yul\":25167:25298   */\n      tag_578\n        /* \"#utility.yul\":25293:25297   */\n      dup2\n        /* \"#utility.yul\":25167:25298   */\n      tag_324\n      jump\t// in\n    tag_578:\n        /* \"#utility.yul\":25159:25298   */\n      swap1\n      pop\n        /* \"#utility.yul\":24886:25305   */\n      swap2\n      swap1\n      pop\n      jump\t// out\n        /* \"#utility.yul\":25311:25753   */\n    tag_147:\n        /* \"#utility.yul\":25460:25464   */\n      0x00\n        /* \"#utility.yul\":25498:25500   */\n      0x60\n        /* \"#utility.yul\":25487:25496   */\n      dup3\n        /* \"#utility.yul\":25483:25501   */\n      add\n        /* \"#utility.yul\":25475:25501   */\n      swap1\n      pop\n        /* \"#utility.yul\":25511:25582   */\n      tag_580\n        /* \"#utility.yul\":25579:25580   */\n      0x00\n        /* \"#utility.yul\":25568:25577   */\n      dup4\n        /* \"#utility.yul\":25564:25581   */\n      add\n        /* \"#utility.yul\":25555:25561   */\n      dup7\n        /* \"#utility.yul\":25511:25582   */\n      tag_292\n      jump\t// in\n    tag_580:\n        /* \"#utility.yul\":25592:25664   */\n      tag_581\n        /* \"#utility.yul\":25660:25662   */\n      0x20\n        /* \"#utility.yul\":25649:25658   */\n      dup4\n        /* \"#utility.yul\":25645:25663   */\n      add\n        /* \"#utility.yul\":25636:25642   */\n      dup6\n        /* \"#utility.yul\":25592:25664   */\n      tag_292\n      jump\t// in\n    tag_581:\n        /* \"#utility.yul\":25674:25746   */\n      tag_582\n        /* \"#utility.yul\":25742:25744   */\n      0x40\n        /* \"#utility.yul\":25731:25740   */\n      dup4\n        /* \"#utility.yul\":25727:25745   */\n      add\n        /* \"#utility.yul\":25718:25724   */\n      dup5\n        /* \"#utility.yul\":25674:25746   */\n      tag_277\n      jump\t// in\n    tag_582:\n        /* \"#utility.yul\":25311:25753   */\n      swap5\n      swap4\n      pop\n      pop\n      pop\n      pop\n      jump\t// out\n        /* \"#utility.yul\":25759:26152   */\n    tag_155:\n        /* \"#utility.yul\":25912:25916   */\n      0x00\n        /* \"#utility.yul\":25950:25952   */\n      0x20\n        /* \"#utility.yul\":25939:25948   */\n      dup3\n        /* \"#utility.yul\":25935:25953   */\n      add\n        /* \"#utility.yul\":25927:25953   */\n      swap1\n      pop\n        /* \"#utility.yul\":25999:26008   */\n      dup2\n        /* \"#utility.yul\":25993:25997   */\n      dup2\n        /* \"#utility.yul\":25989:26009   */\n      sub\n        /* \"#utility.yul\":25985:25986   */\n      0x00\n        /* \"#utility.yul\":25974:25983   */\n      dup4\n        /* \"#utility.yul\":25970:25987   */\n      add\n        /* \"#utility.yul\":25963:26010   */\n      mstore\n        /* \"#utility.yul\":26027:26145   */\n      tag_584\n        /* \"#utility.yul\":26140:26144   */\n      dup2\n        /* \"#utility.yul\":26131:26137   */\n      dup5\n        /* \"#utility.yul\":26123:26129   */\n      dup7\n        /* \"#utility.yul\":26027:26145   */\n      tag_319\n      jump\t// in\n    tag_584:\n        /* \"#utility.yul\":26019:26145   */\n      swap1\n      pop\n        /* \"#utility.yul\":25759:26152   */\n      swap4\n      swap3\n      pop\n      pop\n      pop\n      jump\t// out\n        /* \"#utility.yul\":26158:26328   */\n    tag_325:\n        /* \"#utility.yul\":26298:26320   */\n      0x496e76616c6964206c6f636b20706572696f642e000000000000000000000000\n        /* \"#utility.yul\":26294:26295   */\n      0x00\n        /* \"#utility.yul\":26286:26292   */\n      dup3\n        /* \"#utility.yul\":26282:26296   */\n      add\n        /* \"#utility.yul\":26275:26321   */\n      mstore\n        /* \"#utility.yul\":26158:26328   */\n      pop\n      jump\t// out\n        /* \"#utility.yul\":26334:26700   */\n    tag_326:\n        /* \"#utility.yul\":26476:26479   */\n      0x00\n        /* \"#utility.yul\":26497:26564   */\n      tag_587\n        /* \"#utility.yul\":26561:26563   */\n      0x14\n        /* \"#utility.yul\":26556:26559   */\n      dup4\n        /* \"#utility.yul\":26497:26564   */\n      tag_302\n      jump\t// in\n    tag_587:\n        /* \"#utility.yul\":26490:26564   */\n      swap2\n      pop\n        /* \"#utility.yul\":26573:26666   */\n      tag_588\n        /* \"#utility.yul\":26662:26665   */\n      dup3\n        /* \"#utility.yul\":26573:26666   */\n      tag_325\n      jump\t// in\n    tag_588:\n        /* \"#utility.yul\":26691:26693   */\n      0x20\n        /* \"#utility.yul\":26686:26689   */\n      dup3\n        /* \"#utility.yul\":26682:26694   */\n      add\n        /* \"#utility.yul\":26675:26694   */\n      swap1\n      pop\n        /* \"#utility.yul\":26334:26700   */\n      swap2\n      swap1\n      pop\n      jump\t// out\n        /* \"#utility.yul\":26706:27125   */\n    tag_167:\n        /* \"#utility.yul\":26872:26876   */\n      0x00\n        /* \"#utility.yul\":26910:26912   */\n      0x20\n        /* \"#utility.yul\":26899:26908   */\n      dup3\n        /* \"#utility.yul\":26895:26913   */\n      add\n        /* \"#utility.yul\":26887:26913   */\n      swap1\n      pop\n        /* \"#utility.yul\":26959:26968   */\n      dup2\n        /* \"#utility.yul\":26953:26957   */\n      dup2\n        /* \"#utility.yul\":26949:26969   */\n      sub\n        /* \"#utility.yul\":26945:26946   */\n      0x00\n        /* \"#utility.yul\":26934:26943   */\n      dup4\n        /* \"#utility.yul\":26930:26947   */\n      add\n        /* \"#utility.yul\":26923:26970   */\n      mstore\n        /* \"#utility.yul\":26987:27118   */\n      tag_590\n        /* \"#utility.yul\":27113:27117   */\n      dup2\n        /* \"#utility.yul\":26987:27118   */\n      tag_326\n      jump\t// in\n    tag_590:\n        /* \"#utility.yul\":26979:27118   */\n      swap1\n      pop\n        /* \"#utility.yul\":26706:27125   */\n      swap2\n      swap1\n      pop\n      jump\t// out\n        /* \"#utility.yul\":27131:27300   */\n    tag_327:\n        /* \"#utility.yul\":27271:27292   */\n      0x496e76616c6964206c6f636b20706572696f6400000000000000000000000000\n        /* \"#utility.yul\":27267:27268   */\n      0x00\n        /* \"#utility.yul\":27259:27265   */\n      dup3\n        /* \"#utility.yul\":27255:27269   */\n      add\n        /* \"#utility.yul\":27248:27293   */\n      mstore\n        /* \"#utility.yul\":27131:27300   */\n      pop\n      jump\t// out\n        /* \"#utility.yul\":27306:27672   */\n    tag_328:\n        /* \"#utility.yul\":27448:27451   */\n      0x00\n        /* \"#utility.yul\":27469:27536   */\n      tag_593\n        /* \"#utility.yul\":27533:27535   */\n      0x13\n        /* \"#utility.yul\":27528:27531   */\n      dup4\n        /* \"#utility.yul\":27469:27536   */\n      tag_302\n      jump\t// in\n    tag_593:\n        /* \"#utility.yul\":27462:27536   */\n      swap2\n      pop\n        /* \"#utility.yul\":27545:27638   */\n      tag_594\n        /* \"#utility.yul\":27634:27637   */\n      dup3\n        /* \"#utility.yul\":27545:27638   */\n      tag_327\n      jump\t// in\n    tag_594:\n        /* \"#utility.yul\":27663:27665   */\n      0x20\n        /* \"#utility.yul\":27658:27661   */\n      dup3\n        /* \"#utility.yul\":27654:27666   */\n      add\n        /* \"#utility.yul\":27647:27666   */\n      swap1\n      pop\n        /* \"#utility.yul\":27306:27672   */\n      swap2\n      swap1\n      pop\n      jump\t// out\n        /* \"#utility.yul\":27678:28097   */\n    tag_174:\n        /* \"#utility.yul\":27844:27848   */\n      0x00\n        /* \"#utility.yul\":27882:27884   */\n      0x20\n        /* \"#utility.yul\":27871:27880   */\n      dup3\n        /* \"#utility.yul\":27867:27885   */\n      add\n        /* \"#utility.yul\":27859:27885   */\n      swap1\n      pop\n        /* \"#utility.yul\":27931:27940   */\n      dup2\n        /* \"#utility.yul\":27925:27929   */\n      dup2\n        /* \"#utility.yul\":27921:27941   */\n      sub\n        /* \"#utility.yul\":27917:27918   */\n      0x00\n        /* \"#utility.yul\":27906:27915   */\n      dup4\n        /* \"#utility.yul\":27902:27919   */\n      add\n        /* \"#utility.yul\":27895:27942   */\n      mstore\n        /* \"#utility.yul\":27959:28090   */\n      tag_596\n        /* \"#utility.yul\":28085:28089   */\n      dup2\n        /* \"#utility.yul\":27959:28090   */\n      tag_328\n      jump\t// in\n    tag_596:\n        /* \"#utility.yul\":27951:28090   */\n      swap1\n      pop\n        /* \"#utility.yul\":27678:28097   */\n      swap2\n      swap1\n      pop\n      jump\t// out\n        /* \"#utility.yul\":28103:28275   */\n    tag_329:\n        /* \"#utility.yul\":28243:28267   */\n      0x4e6f742061626c6520746f20756e6c6f636b2079657400000000000000000000\n        /* \"#utility.yul\":28239:28240   */\n      0x00\n        /* \"#utility.yul\":28231:28237   */\n      dup3\n        /* \"#utility.yul\":28227:28241   */\n      add\n        /* \"#utility.yul\":28220:28268   */\n      mstore\n        /* \"#utility.yul\":28103:28275   */\n      pop\n      jump\t// out\n        /* \"#utility.yul\":28281:28647   */\n    tag_330:\n        /* \"#utility.yul\":28423:28426   */\n      0x00\n        /* \"#utility.yul\":28444:28511   */\n      tag_599\n        /* \"#utility.yul\":28508:28510   */\n      0x16\n        /* \"#utility.yul\":28503:28506   */\n      dup4\n        /* \"#utility.yul\":28444:28511   */\n      tag_302\n      jump\t// in\n    tag_599:\n        /* \"#utility.yul\":28437:28511   */\n      swap2\n      pop\n        /* \"#utility.yul\":28520:28613   */\n      tag_600\n        /* \"#utility.yul\":28609:28612   */\n      dup3\n        /* \"#utility.yul\":28520:28613   */\n      tag_329\n      jump\t// in\n    tag_600:\n        /* \"#utility.yul\":28638:28640   */\n      0x20\n        /* \"#utility.yul\":28633:28636   */\n      dup3\n        /* \"#utility.yul\":28629:28641   */\n      add\n        /* \"#utility.yul\":28622:28641   */\n      swap1\n      pop\n        /* \"#utility.yul\":28281:28647   */\n      swap2\n      swap1\n      pop\n      jump\t// out\n        /* \"#utility.yul\":28653:29072   */\n    tag_214:\n        /* \"#utility.yul\":28819:28823   */\n      0x00\n        /* \"#utility.yul\":28857:28859   */\n      0x20\n        /* \"#utility.yul\":28846:28855   */\n      dup3\n        /* \"#utility.yul\":28842:28860   */\n      add\n        /* \"#utility.yul\":28834:28860   */\n      swap1\n      pop\n        /* \"#utility.yul\":28906:28915   */\n      dup2\n        /* \"#utility.yul\":28900:28904   */\n      dup2\n        /* \"#utility.yul\":28896:28916   */\n      sub\n        /* \"#utility.yul\":28892:28893   */\n      0x00\n        /* \"#utility.yul\":28881:28890   */\n      dup4\n        /* \"#utility.yul\":28877:28894   */\n      add\n        /* \"#utility.yul\":28870:28917   */\n      mstore\n        /* \"#utility.yul\":28934:29065   */\n      tag_602\n        /* \"#utility.yul\":29060:29064   */\n      dup2\n        /* \"#utility.yul\":28934:29065   */\n      tag_330\n      jump\t// in\n    tag_602:\n        /* \"#utility.yul\":28926:29065   */\n      swap1\n      pop\n        /* \"#utility.yul\":28653:29072   */\n      swap2\n      swap1\n      pop\n      jump\t// out\n        /* \"#utility.yul\":29078:29303   */\n    tag_331:\n        /* \"#utility.yul\":29218:29252   */\n      0x4f776e61626c653a206e6577206f776e657220697320746865207a65726f2061\n        /* \"#utility.yul\":29214:29215   */\n      0x00\n        /* \"#utility.yul\":29206:29212   */\n      dup3\n        /* \"#utility.yul\":29202:29216   */\n      add\n        /* \"#utility.yul\":29195:29253   */\n      mstore\n        /* \"#utility.yul\":29287:29295   */\n      0x6464726573730000000000000000000000000000000000000000000000000000\n        /* \"#utility.yul\":29282:29284   */\n      0x20\n        /* \"#utility.yul\":29274:29280   */\n      dup3\n        /* \"#utility.yul\":29270:29285   */\n      add\n        /* \"#utility.yul\":29263:29296   */\n      mstore\n        /* \"#utility.yul\":29078:29303   */\n      pop\n      jump\t// out\n        /* \"#utility.yul\":29309:29675   */\n    tag_332:\n        /* \"#utility.yul\":29451:29454   */\n      0x00\n        /* \"#utility.yul\":29472:29539   */\n      tag_605\n        /* \"#utility.yul\":29536:29538   */\n      0x26\n        /* \"#utility.yul\":29531:29534   */\n      dup4\n        /* \"#utility.yul\":29472:29539   */\n      tag_302\n      jump\t// in\n    tag_605:\n        /* \"#utility.yul\":29465:29539   */\n      swap2\n      pop\n        /* \"#utility.yul\":29548:29641   */\n      tag_606\n        /* \"#utility.yul\":29637:29640   */\n      dup3\n        /* \"#utility.yul\":29548:29641   */\n      tag_331\n      jump\t// in\n    tag_606:\n        /* \"#utility.yul\":29666:29668   */\n      0x40\n        /* \"#utility.yul\":29661:29664   */\n      dup3\n        /* \"#utility.yul\":29657:29669   */\n      add\n        /* \"#utility.yul\":29650:29669   */\n      swap1\n      pop\n        /* \"#utility.yul\":29309:29675   */\n      swap2\n      swap1\n      pop\n      jump\t// out\n        /* \"#utility.yul\":29681:30100   */\n    tag_243:\n        /* \"#utility.yul\":29847:29851   */\n      0x00\n        /* \"#utility.yul\":29885:29887   */\n      0x20\n        /* \"#utility.yul\":29874:29883   */\n      dup3\n        /* \"#utility.yul\":29870:29888   */\n      add\n        /* \"#utility.yul\":29862:29888   */\n      swap1\n      pop\n        /* \"#utility.yul\":29934:29943   */\n      dup2\n        /* \"#utility.yul\":29928:29932   */\n      dup2\n        /* \"#utility.yul\":29924:29944   */\n      sub\n        /* \"#utility.yul\":29920:29921   */\n      0x00\n        /* \"#utility.yul\":29909:29918   */\n      dup4\n        /* \"#utility.yul\":29905:29922   */\n      add\n        /* \"#utility.yul\":29898:29945   */\n      mstore\n        /* \"#utility.yul\":29962:30093   */\n      tag_608\n        /* \"#utility.yul\":30088:30092   */\n      dup2\n        /* \"#utility.yul\":29962:30093   */\n      tag_332\n      jump\t// in\n    tag_608:\n        /* \"#utility.yul\":29954:30093   */\n      swap1\n      pop\n        /* \"#utility.yul\":29681:30100   */\n      swap2\n      swap1\n      pop\n      jump\t// out\n        /* \"#utility.yul\":30106:30454   */\n    tag_252:\n        /* \"#utility.yul\":30146:30153   */\n      0x00\n        /* \"#utility.yul\":30169:30189   */\n      tag_610\n        /* \"#utility.yul\":30187:30188   */\n      dup3\n        /* \"#utility.yul\":30169:30189   */\n      tag_276\n      jump\t// in\n    tag_610:\n        /* \"#utility.yul\":30164:30189   */\n      swap2\n      pop\n        /* \"#utility.yul\":30203:30223   */\n      tag_611\n        /* \"#utility.yul\":30221:30222   */\n      dup4\n        /* \"#utility.yul\":30203:30223   */\n      tag_276\n      jump\t// in\n    tag_611:\n        /* \"#utility.yul\":30198:30223   */\n      swap3\n      pop\n        /* \"#utility.yul\":30391:30392   */\n      dup2\n        /* \"#utility.yul\":30323:30389   */\n      0xffffffffffffffffffffffffffffffffffffffffffffffffffffffffffffffff\n        /* \"#utility.yul\":30319:30393   */\n      div\n        /* \"#utility.yul\":30316:30317   */\n      dup4\n        /* \"#utility.yul\":30313:30394   */\n      gt\n        /* \"#utility.yul\":30308:30309   */\n      dup3\n        /* \"#utility.yul\":30301:30310   */\n      iszero\n        /* \"#utility.yul\":30294:30311   */\n      iszero\n        /* \"#utility.yul\":30290:30395   */\n      and\n        /* \"#utility.yul\":30287:30418   */\n      iszero\n      tag_612\n      jumpi\n        /* \"#utility.yul\":30398:30416   */\n      tag_613\n      tag_311\n      jump\t// in\n    tag_613:\n        /* \"#utility.yul\":30287:30418   */\n    tag_612:\n        /* \"#utility.yul\":30446:30447   */\n      dup3\n        /* \"#utility.yul\":30443:30444   */\n      dup3\n        /* \"#utility.yul\":30439:30448   */\n      mul\n        /* \"#utility.yul\":30428:30448   */\n      swap1\n      pop\n        /* \"#utility.yul\":30106:30454   */\n      swap3\n      swap2\n      pop\n      pop\n      jump\t// out\n        /* \"#utility.yul\":30460:30640   */\n    tag_333:\n        /* \"#utility.yul\":30508:30585   */\n      0x4e487b7100000000000000000000000000000000000000000000000000000000\n        /* \"#utility.yul\":30505:30506   */\n      0x00\n        /* \"#utility.yul\":30498:30586   */\n      mstore\n        /* \"#utility.yul\":30605:30609   */\n      0x12\n        /* \"#utility.yul\":30602:30603   */\n      0x04\n        /* \"#utility.yul\":30595:30610   */\n      mstore\n        /* \"#utility.yul\":30629:30633   */\n      0x24\n        /* \"#utility.yul\":30626:30627   */\n      0x00\n        /* \"#utility.yul\":30619:30634   */\n      revert\n        /* \"#utility.yul\":30646:30831   */\n    tag_254:\n        /* \"#utility.yul\":30686:30687   */\n      0x00\n        /* \"#utility.yul\":30703:30723   */\n      tag_616\n        /* \"#utility.yul\":30721:30722   */\n      dup3\n        /* \"#utility.yul\":30703:30723   */\n      tag_276\n      jump\t// in\n    tag_616:\n        /* \"#utility.yul\":30698:30723   */\n      swap2\n      pop\n        /* \"#utility.yul\":30737:30757   */\n      tag_617\n        /* \"#utility.yul\":30755:30756   */\n      dup4\n        /* \"#utility.yul\":30737:30757   */\n      tag_276\n      jump\t// in\n    tag_617:\n        /* \"#utility.yul\":30732:30757   */\n      swap3\n      pop\n        /* \"#utility.yul\":30776:30777   */\n      dup3\n        /* \"#utility.yul\":30766:30801   */\n      tag_618\n      jumpi\n        /* \"#utility.yul\":30781:30799   */\n      tag_619\n      tag_333\n      jump\t// in\n    tag_619:\n        /* \"#utility.yul\":30766:30801   */\n    tag_618:\n        /* \"#utility.yul\":30823:30824   */\n      dup3\n        /* \"#utility.yul\":30820:30821   */\n      dup3\n        /* \"#utility.yul\":30816:30825   */\n      div\n        /* \"#utility.yul\":30811:30825   */\n      swap1\n      pop\n        /* \"#utility.yul\":30646:30831   */\n      swap3\n      swap2\n      pop\n      pop\n      jump\t// out\n        /* \"#utility.yul\":30837:31019   */\n    tag_334:\n        /* \"#utility.yul\":30977:31011   */\n      0x4f776e61626c653a2063616c6c6572206973206e6f7420746865206f776e6572\n        /* \"#utility.yul\":30973:30974   */\n      0x00\n        /* \"#utility.yul\":30965:30971   */\n      dup3\n        /* \"#utility.yul\":30961:30975   */\n      add\n        /* \"#utility.yul\":30954:31012   */\n      mstore\n        /* \"#utility.yul\":30837:31019   */\n      pop\n      jump\t// out\n        /* \"#utility.yul\":31025:31391   */\n    tag_335:\n        /* \"#utility.yul\":31167:31170   */\n      0x00\n        /* \"#utility.yul\":31188:31255   */\n      tag_622\n        /* \"#utility.yul\":31252:31254   */\n      0x20\n        /* \"#utility.yul\":31247:31250   */\n      dup4\n        /* \"#utility.yul\":31188:31255   */\n      tag_302\n      jump\t// in\n    tag_622:\n        /* \"#utility.yul\":31181:31255   */\n      swap2\n      pop\n        /* \"#utility.yul\":31264:31357   */\n      tag_623\n        /* \"#utility.yul\":31353:31356   */\n      dup3\n        /* \"#utility.yul\":31264:31357   */\n      tag_334\n      jump\t// in\n    tag_623:\n        /* \"#utility.yul\":31382:31384   */\n      0x20\n        /* \"#utility.yul\":31377:31380   */\n      dup3\n        /* \"#utility.yul\":31373:31385   */\n      add\n        /* \"#utility.yul\":31366:31385   */\n      swap1\n      pop\n        /* \"#utility.yul\":31025:31391   */\n      swap2\n      swap1\n      pop\n      jump\t// out\n        /* \"#utility.yul\":31397:31816   */\n    tag_261:\n        /* \"#utility.yul\":31563:31567   */\n      0x00\n        /* \"#utility.yul\":31601:31603   */\n      0x20\n        /* \"#utility.yul\":31590:31599   */\n      dup3\n        /* \"#utility.yul\":31586:31604   */\n      add\n        /* \"#utility.yul\":31578:31604   */\n      swap1\n      pop\n        /* \"#utility.yul\":31650:31659   */\n      dup2\n        /* \"#utility.yul\":31644:31648   */\n      dup2\n        /* \"#utility.yul\":31640:31660   */\n      sub\n        /* \"#utility.yul\":31636:31637   */\n      0x00\n        /* \"#utility.yul\":31625:31634   */\n      dup4\n        /* \"#utility.yul\":31621:31638   */\n      add\n        /* \"#utility.yul\":31614:31661   */\n      mstore\n        /* \"#utility.yul\":31678:31809   */\n      tag_625\n        /* \"#utility.yul\":31804:31808   */\n      dup2\n        /* \"#utility.yul\":31678:31809   */\n      tag_335\n      jump\t// in\n    tag_625:\n        /* \"#utility.yul\":31670:31809   */\n      swap1\n      pop\n        /* \"#utility.yul\":31397:31816   */\n      swap2\n      swap1\n      pop\n      jump\t// out\n\n    auxdata: 0xa264697066735822122041ca5b98246c1877c54f52be6fb09d6b06f04adb4c8472b42a4d336a3ce750a864736f6c63430008100033\n}\n",
				"bytecode": {
					"linkReferences": {},
					"object": "60806040523480156200001157600080fd5b50604051620034c7380380620034c783398181016040528101906200003791906200066a565b620000576200004b6200029f60201b60201c565b620002a760201b60201c565b6001808190555060008411620000a4576040517f08c379a00000000000000000000000000000000000000000000000000000000081526004016200009b90620007e3565b60405180910390fd5b60005b86518110156200028457858181518110620000c757620000c662000805565b5b602002602001015160046000898481518110620000e957620000e862000805565b5b602002602001015173ffffffffffffffffffffffffffffffffffffffff1673ffffffffffffffffffffffffffffffffffffffff16815260200190815260200160002060000160006101000a81548173ffffffffffffffffffffffffffffffffffffffff021916908373ffffffffffffffffffffffffffffffffffffffff16021790555083818151811062000182576200018162000805565b5b602002602001015160046000898481518110620001a457620001a362000805565b5b602002602001015173ffffffffffffffffffffffffffffffffffffffff1673ffffffffffffffffffffffffffffffffffffffff1681526020019081526020016000206001018190555082818151811062000203576200020262000805565b5b60200260200101516004600089848151811062000225576200022462000805565b5b602002602001015173ffffffffffffffffffffffffffffffffffffffff1673ffffffffffffffffffffffffffffffffffffffff1681526020019081526020016000206002018190555080806200027b9062000863565b915050620000a7565b508360028190555080600581905550505050505050620008b0565b600033905090565b60008060009054906101000a900473ffffffffffffffffffffffffffffffffffffffff169050816000806101000a81548173ffffffffffffffffffffffffffffffffffffffff021916908373ffffffffffffffffffffffffffffffffffffffff1602179055508173ffffffffffffffffffffffffffffffffffffffff168173ffffffffffffffffffffffffffffffffffffffff167f8be0079c531659141344cd1fd0a4f28419497f9722a3daafe3b4186f6b6457e060405160405180910390a35050565b6000604051905090565b600080fd5b600080fd5b600080fd5b6000601f19601f8301169050919050565b7f4e487b7100000000000000000000000000000000000000000000000000000000600052604160045260246000fd5b620003cf8262000384565b810181811067ffffffffffffffff82111715620003f157620003f062000395565b5b80604052505050565b6000620004066200036b565b9050620004148282620003c4565b919050565b600067ffffffffffffffff82111562000437576200043662000395565b5b602082029050602081019050919050565b600080fd5b600073ffffffffffffffffffffffffffffffffffffffff82169050919050565b60006200047a826200044d565b9050919050565b6200048c816200046d565b81146200049857600080fd5b50565b600081519050620004ac8162000481565b92915050565b6000620004c9620004c38462000419565b620003fa565b90508083825260208201905060208402830185811115620004ef57620004ee62000448565b5b835b818110156200051c57806200050788826200049b565b845260208401935050602081019050620004f1565b5050509392505050565b600082601f8301126200053e576200053d6200037f565b5b815162000550848260208601620004b2565b91505092915050565b6000819050919050565b6200056e8162000559565b81146200057a57600080fd5b50565b6000815190506200058e8162000563565b92915050565b600067ffffffffffffffff821115620005b257620005b162000395565b5b602082029050602081019050919050565b6000620005da620005d48462000594565b620003fa565b905080838252602082019050602084028301858111156200060057620005ff62000448565b5b835b818110156200062d57806200061888826200057d565b84526020840193505060208101905062000602565b5050509392505050565b600082601f8301126200064f576200064e6200037f565b5b815162000661848260208601620005c3565b91505092915050565b60008060008060008060c087890312156200068a576200068962000375565b5b600087015167ffffffffffffffff811115620006ab57620006aa6200037a565b5b620006b989828a0162000526565b965050602087015167ffffffffffffffff811115620006dd57620006dc6200037a565b5b620006eb89828a0162000526565b9550506040620006fe89828a016200057d565b945050606087015167ffffffffffffffff8111156200072257620007216200037a565b5b6200073089828a0162000637565b935050608087015167ffffffffffffffff8111156200075457620007536200037a565b5b6200076289828a0162000637565b92505060a06200077589828a016200057d565b9150509295509295509295565b600082825260208201905092915050565b7f496e76616c6964206c6f636b20706572696f6400000000000000000000000000600082015250565b6000620007cb60138362000782565b9150620007d88262000793565b602082019050919050565b60006020820190508181036000830152620007fe81620007bc565b9050919050565b7f4e487b7100000000000000000000000000000000000000000000000000000000600052603260045260246000fd5b7f4e487b7100000000000000000000000000000000000000000000000000000000600052601160045260246000fd5b6000620008708262000559565b91507fffffffffffffffffffffffffffffffffffffffffffffffffffffffffffffffff8203620008a557620008a462000834565b5b600182019050919050565b612c0780620008c06000396000f3fe608060405234801561001057600080fd5b50600436106100cf5760003560e01c80638da5cb5b1161008c578063b33068c411610066578063b33068c4146101da578063c69d19231461020a578063e9545b9214610228578063f2fde38b1461025a576100cf565b80638da5cb5b1461016c5780639f3625f01461018a578063b2520a7c146101a6576100cf565b80630520537f146100d45780631902732e146100f05780633fd8b02f1461010c578063715018a61461012a578063779972da1461013457806385e6c27c14610150575b600080fd5b6100ee60048036038101906100e99190611c92565b610276565b005b61010a60048036038101906101059190611c92565b6107f1565b005b610114610cdc565b6040516101219190611d0b565b60405180910390f35b610132610ce2565b005b61014e60048036038101906101499190611d52565b610cf6565b005b61016a60048036038101906101659190611fbd565b610d82565b005b610174610fae565b60405161018191906120c9565b60405180910390f35b6101a4600480360381019061019f9190611c92565b610fd7565b005b6101c060048036038101906101bb91906120e4565b61169d565b6040516101d195949392919061219e565b60405180910390f35b6101f460048036038101906101ef91906121f1565b61172d565b6040516102019190611d0b565b60405180910390f35b61021261178b565b60405161021f9190611d0b565b60405180910390f35b610242600480360381019061023d9190612231565b611791565b6040516102519392919061227f565b60405180910390f35b610274600480360381019061026f91906122b6565b6117db565b005b6102953373ffffffffffffffffffffffffffffffffffffffff1661185e565b156102d5576040517f08c379a00000000000000000000000000000000000000000000000000000000081526004016102cc90612340565b60405180910390fd5b3273ffffffffffffffffffffffffffffffffffffffff163373ffffffffffffffffffffffffffffffffffffffff1614610343576040517f08c379a000000000000000000000000000000000000000000000000000000000815260040161033a906123ac565b60405180910390fd5b60008383905011610389576040517f08c379a000000000000000000000000000000000000000000000000000000000815260040161038090612418565b60405180910390fd5b600080600090505b84849050811015610798576000600360008573ffffffffffffffffffffffffffffffffffffffff1673ffffffffffffffffffffffffffffffffffffffff16815260200190815260200160002060008787858181106103f2576103f1612438565b5b9050602002013581526020019081526020016000206040518060a00160405290816000820160009054906101000a900473ffffffffffffffffffffffffffffffffffffffff1673ffffffffffffffffffffffffffffffffffffffff1673ffffffffffffffffffffffffffffffffffffffff16815260200160018201548152602001600282015481526020016003820160009054906101000a900460ff161515151581526020016003820160019054906101000a900473ffffffffffffffffffffffffffffffffffffffff1673ffffffffffffffffffffffffffffffffffffffff1673ffffffffffffffffffffffffffffffffffffffff168152505090503373ffffffffffffffffffffffffffffffffffffffff16816000015173ffffffffffffffffffffffffffffffffffffffff1614610561576040517f08c379a0000000000000000000000000000000000000000000000000000000008152600401610558906124b3565b60405180910390fd5b4260025482602001516105749190612502565b106105b4576040517f08c379a00000000000000000000000000000000000000000000000000000000081526004016105ab90612582565b60405180910390fd5b8060600151156105f9576040517f08c379a00000000000000000000000000000000000000000000000000000000081526004016105f0906125ee565b60405180910390fd5b600061061e87878581811061061157610610612438565b5b9050602002013586611881565b90506000826040015182610632919061260e565b9050600460008773ffffffffffffffffffffffffffffffffffffffff1673ffffffffffffffffffffffffffffffffffffffff16815260200190815260200160002060000160009054906101000a900473ffffffffffffffffffffffffffffffffffffffff1673ffffffffffffffffffffffffffffffffffffffff166340c10f1933836040518363ffffffff1660e01b81526004016106d1929190612642565b600060405180830381600087803b1580156106eb57600080fd5b505af11580156106ff573d6000803e3d6000fd5b50505050808561070f9190612502565b945081600360008873ffffffffffffffffffffffffffffffffffffffff1673ffffffffffffffffffffffffffffffffffffffff16815260200190815260200160002060008a8a8881811061076657610765612438565b5b9050602002013581526020019081526020016000206002018190555050505080806107909061266b565b915050610391565b503373ffffffffffffffffffffffffffffffffffffffff167f37826be3c26dbad83731f4b985f22fa9ef86b6d1974cd77208332b7f1f283c0c8585846040516107e39392919061272e565b60405180910390a250505050565b6108103373ffffffffffffffffffffffffffffffffffffffff1661185e565b15610850576040517f08c379a000000000000000000000000000000000000000000000000000000000815260040161084790612340565b60405180910390fd5b3273ffffffffffffffffffffffffffffffffffffffff163373ffffffffffffffffffffffffffffffffffffffff16146108be576040517f08c379a00000000000000000000000000000000000000000000000000000000081526004016108b5906123ac565b60405180910390fd5b600260015403610903576040517f08c379a00000000000000000000000000000000000000000000000000000000081526004016108fa906127ac565b60405180910390fd5b600260018190555060008383905011610951576040517f08c379a000000000000000000000000000000000000000000000000000000000815260040161094890612418565b60405180910390fd5b60005b83839050811015610c7f573373ffffffffffffffffffffffffffffffffffffffff168273ffffffffffffffffffffffffffffffffffffffff16636352211e8686858181106109a5576109a4612438565b5b905060200201356040518263ffffffff1660e01b81526004016109c89190611d0b565b602060405180830381865afa1580156109e5573d6000803e3d6000fd5b505050506040513d601f19601f82011682018060405250810190610a0991906127e1565b73ffffffffffffffffffffffffffffffffffffffff1614610a5f576040517f08c379a0000000000000000000000000000000000000000000000000000000008152600401610a569061285a565b60405180910390fd5b8173ffffffffffffffffffffffffffffffffffffffff166323b872dd3330878786818110610a9057610a8f612438565b5b905060200201356040518463ffffffff1660e01b8152600401610ab59392919061287a565b600060405180830381600087803b158015610acf57600080fd5b505af1158015610ae3573d6000803e3d6000fd5b505050506040518060a001604052803373ffffffffffffffffffffffffffffffffffffffff168152602001428152602001600081526020016000151581526020018373ffffffffffffffffffffffffffffffffffffffff16815250600360008473ffffffffffffffffffffffffffffffffffffffff1673ffffffffffffffffffffffffffffffffffffffff1681526020019081526020016000206000868685818110610b9257610b91612438565b5b90506020020135815260200190815260200160002060008201518160000160006101000a81548173ffffffffffffffffffffffffffffffffffffffff021916908373ffffffffffffffffffffffffffffffffffffffff160217905550602082015181600101556040820151816002015560608201518160030160006101000a81548160ff02191690831515021790555060808201518160030160016101000a81548173ffffffffffffffffffffffffffffffffffffffff021916908373ffffffffffffffffffffffffffffffffffffffff1602179055509050508080610c779061266b565b915050610954565b503373ffffffffffffffffffffffffffffffffffffffff167f458be0227bccc9e803dec79bd16767eeaf9925d2ce708eeed7ae1f3621f968f98484604051610cc89291906128b1565b60405180910390a260018081905550505050565b60025481565b610cea611a5f565b610cf46000611add565b565b610cfe611a5f565b60008111610d41576040517f08c379a0000000000000000000000000000000000000000000000000000000008152600401610d3890612921565b60405180910390fd5b806002819055507f8249ec545e68f6f1e1230133ca48c704d831a7f8e635ded80f3dd9e99b09bb2f81604051610d779190611d0b565b60405180910390a150565b610d8a611a5f565b60008411610dcd576040517f08c379a0000000000000000000000000000000000000000000000000000000008152600401610dc49061298d565b60405180910390fd5b60005b8651811015610f9757858181518110610dec57610deb612438565b5b602002602001015160046000898481518110610e0b57610e0a612438565b5b602002602001015173ffffffffffffffffffffffffffffffffffffffff1673ffffffffffffffffffffffffffffffffffffffff16815260200190815260200160002060000160006101000a81548173ffffffffffffffffffffffffffffffffffffffff021916908373ffffffffffffffffffffffffffffffffffffffff160217905550838181518110610ea157610ea0612438565b5b602002602001015160046000898481518110610ec057610ebf612438565b5b602002602001015173ffffffffffffffffffffffffffffffffffffffff1673ffffffffffffffffffffffffffffffffffffffff16815260200190815260200160002060010181905550828181518110610f1c57610f1b612438565b5b602002602001015160046000898481518110610f3b57610f3a612438565b5b602002602001015173ffffffffffffffffffffffffffffffffffffffff1673ffffffffffffffffffffffffffffffffffffffff168152602001908152602001600020600201819055508080610f8f9061266b565b915050610dd0565b508360028190555080600581905550505050505050565b60008060009054906101000a900473ffffffffffffffffffffffffffffffffffffffff16905090565b610ff63373ffffffffffffffffffffffffffffffffffffffff1661185e565b15611036576040517f08c379a000000000000000000000000000000000000000000000000000000000815260040161102d90612340565b60405180910390fd5b3273ffffffffffffffffffffffffffffffffffffffff163373ffffffffffffffffffffffffffffffffffffffff16146110a4576040517f08c379a000000000000000000000000000000000000000000000000000000000815260040161109b906123ac565b60405180910390fd5b6002600154036110e9576040517f08c379a00000000000000000000000000000000000000000000000000000000081526004016110e0906127ac565b60405180910390fd5b600260018190555060008383905011611137576040517f08c379a000000000000000000000000000000000000000000000000000000000815260040161112e90612418565b60405180910390fd5b60005b83839050811015611640576000600360008473ffffffffffffffffffffffffffffffffffffffff1673ffffffffffffffffffffffffffffffffffffffff168152602001908152602001600020600086868581811061119b5761119a612438565b5b9050602002013581526020019081526020016000206040518060a00160405290816000820160009054906101000a900473ffffffffffffffffffffffffffffffffffffffff1673ffffffffffffffffffffffffffffffffffffffff1673ffffffffffffffffffffffffffffffffffffffff16815260200160018201548152602001600282015481526020016003820160009054906101000a900460ff161515151581526020016003820160019054906101000a900473ffffffffffffffffffffffffffffffffffffffff1673ffffffffffffffffffffffffffffffffffffffff1673ffffffffffffffffffffffffffffffffffffffff168152505090503373ffffffffffffffffffffffffffffffffffffffff16816000015173ffffffffffffffffffffffffffffffffffffffff161461130a576040517f08c379a0000000000000000000000000000000000000000000000000000000008152600401611301906124b3565b60405180910390fd5b42600254826020015161131d9190612502565b1061135d576040517f08c379a0000000000000000000000000000000000000000000000000000000008152600401611354906129f9565b60405180910390fd5b8060600151156113a2576040517f08c379a0000000000000000000000000000000000000000000000000000000008152600401611399906125ee565b60405180910390fd5b8273ffffffffffffffffffffffffffffffffffffffff166323b872dd30338888878181106113d3576113d2612438565b5b905060200201356040518463ffffffff1660e01b81526004016113f89392919061287a565b600060405180830381600087803b15801561141257600080fd5b505af1158015611426573d6000803e3d6000fd5b50505050600061144f86868581811061144257611441612438565b5b9050602002013585611881565b90506000826040015182611463919061260e565b9050600460008673ffffffffffffffffffffffffffffffffffffffff1673ffffffffffffffffffffffffffffffffffffffff16815260200190815260200160002060000160009054906101000a900473ffffffffffffffffffffffffffffffffffffffff1673ffffffffffffffffffffffffffffffffffffffff166340c10f1933836040518363ffffffff1660e01b8152600401611502929190612642565b600060405180830381600087803b15801561151c57600080fd5b505af1158015611530573d6000803e3d6000fd5b5050505081600360008773ffffffffffffffffffffffffffffffffffffffff1673ffffffffffffffffffffffffffffffffffffffff168152602001908152602001600020600089898881811061158957611588612438565b5b905060200201358152602001908152602001600020600201819055506001600360008773ffffffffffffffffffffffffffffffffffffffff1673ffffffffffffffffffffffffffffffffffffffff16815260200190815260200160002060008989888181106115fb576115fa612438565b5b90506020020135815260200190815260200160002060030160006101000a81548160ff02191690831515021790555050505080806116389061266b565b91505061113a565b503373ffffffffffffffffffffffffffffffffffffffff167f5cb48022479b9ac3bfb10a27965dc010acffc9fc1bc9a52f0b18975b944b54ca84846040516116899291906128b1565b60405180910390a260018081905550505050565b6003602052816000526040600020602052806000526040600020600091509150508060000160009054906101000a900473ffffffffffffffffffffffffffffffffffffffff16908060010154908060020154908060030160009054906101000a900460ff16908060030160019054906101000a900473ffffffffffffffffffffffffffffffffffffffff16905085565b6000600360008373ffffffffffffffffffffffffffffffffffffffff1673ffffffffffffffffffffffffffffffffffffffff168152602001908152602001600020600084815260200190815260200160002060020154905092915050565b60055481565b60046020528060005260406000206000915090508060000160009054906101000a900473ffffffffffffffffffffffffffffffffffffffff16908060010154908060020154905083565b6117e3611a5f565b600073ffffffffffffffffffffffffffffffffffffffff168173ffffffffffffffffffffffffffffffffffffffff1603611852576040517f08c379a000000000000000000000000000000000000000000000000000000000815260040161184990612a8b565b60405180910390fd5b61185b81611add565b50565b6000808273ffffffffffffffffffffffffffffffffffffffff163b119050919050565b600080600360008473ffffffffffffffffffffffffffffffffffffffff1673ffffffffffffffffffffffffffffffffffffffff16815260200190815260200160002060008581526020019081526020016000206040518060a00160405290816000820160009054906101000a900473ffffffffffffffffffffffffffffffffffffffff1673ffffffffffffffffffffffffffffffffffffffff1673ffffffffffffffffffffffffffffffffffffffff16815260200160018201548152602001600282015481526020016003820160009054906101000a900460ff161515151581526020016003820160019054906101000a900473ffffffffffffffffffffffffffffffffffffffff1673ffffffffffffffffffffffffffffffffffffffff1673ffffffffffffffffffffffffffffffffffffffff1681525050905060008160200151426119ce919061260e565b905060006002548210156119e85760009350505050611a59565b600554600254836119f9919061260e565b600460008873ffffffffffffffffffffffffffffffffffffffff1673ffffffffffffffffffffffffffffffffffffffff16815260200190815260200160002060010154611a469190612aab565b611a509190612b34565b90508093505050505b92915050565b611a67611ba1565b73ffffffffffffffffffffffffffffffffffffffff16611a85610fae565b73ffffffffffffffffffffffffffffffffffffffff1614611adb576040517f08c379a0000000000000000000000000000000000000000000000000000000008152600401611ad290612bb1565b60405180910390fd5b565b60008060009054906101000a900473ffffffffffffffffffffffffffffffffffffffff169050816000806101000a81548173ffffffffffffffffffffffffffffffffffffffff021916908373ffffffffffffffffffffffffffffffffffffffff1602179055508173ffffffffffffffffffffffffffffffffffffffff168173ffffffffffffffffffffffffffffffffffffffff167f8be0079c531659141344cd1fd0a4f28419497f9722a3daafe3b4186f6b6457e060405160405180910390a35050565b600033905090565b6000604051905090565b600080fd5b600080fd5b600080fd5b600080fd5b600080fd5b60008083601f840112611be257611be1611bbd565b5b8235905067ffffffffffffffff811115611bff57611bfe611bc2565b5b602083019150836020820283011115611c1b57611c1a611bc7565b5b9250929050565b600073ffffffffffffffffffffffffffffffffffffffff82169050919050565b6000611c4d82611c22565b9050919050565b6000611c5f82611c42565b9050919050565b611c6f81611c54565b8114611c7a57600080fd5b50565b600081359050611c8c81611c66565b92915050565b600080600060408486031215611cab57611caa611bb3565b5b600084013567ffffffffffffffff811115611cc957611cc8611bb8565b5b611cd586828701611bcc565b93509350506020611ce886828701611c7d565b9150509250925092565b6000819050919050565b611d0581611cf2565b82525050565b6000602082019050611d206000830184611cfc565b92915050565b611d2f81611cf2565b8114611d3a57600080fd5b50565b600081359050611d4c81611d26565b92915050565b600060208284031215611d6857611d67611bb3565b5b6000611d7684828501611d3d565b91505092915050565b6000601f19601f8301169050919050565b7f4e487b7100000000000000000000000000000000000000000000000000000000600052604160045260246000fd5b611dc882611d7f565b810181811067ffffffffffffffff82111715611de757611de6611d90565b5b80604052505050565b6000611dfa611ba9565b9050611e068282611dbf565b919050565b600067ffffffffffffffff821115611e2657611e25611d90565b5b602082029050602081019050919050565b611e4081611c42565b8114611e4b57600080fd5b50565b600081359050611e5d81611e37565b92915050565b6000611e76611e7184611e0b565b611df0565b90508083825260208201905060208402830185811115611e9957611e98611bc7565b5b835b81811015611ec25780611eae8882611e4e565b845260208401935050602081019050611e9b565b5050509392505050565b600082601f830112611ee157611ee0611bbd565b5b8135611ef1848260208601611e63565b91505092915050565b600067ffffffffffffffff821115611f1557611f14611d90565b5b602082029050602081019050919050565b6000611f39611f3484611efa565b611df0565b90508083825260208201905060208402830185811115611f5c57611f5b611bc7565b5b835b81811015611f855780611f718882611d3d565b845260208401935050602081019050611f5e565b5050509392505050565b600082601f830112611fa457611fa3611bbd565b5b8135611fb4848260208601611f26565b91505092915050565b60008060008060008060c08789031215611fda57611fd9611bb3565b5b600087013567ffffffffffffffff811115611ff857611ff7611bb8565b5b61200489828a01611ecc565b965050602087013567ffffffffffffffff81111561202557612024611bb8565b5b61203189828a01611ecc565b955050604061204289828a01611d3d565b945050606087013567ffffffffffffffff81111561206357612062611bb8565b5b61206f89828a01611f8f565b935050608087013567ffffffffffffffff8111156120905761208f611bb8565b5b61209c89828a01611f8f565b92505060a06120ad89828a01611d3d565b9150509295509295509295565b6120c381611c42565b82525050565b60006020820190506120de60008301846120ba565b92915050565b600080604083850312156120fb576120fa611bb3565b5b600061210985828601611c7d565b925050602061211a85828601611d3d565b9150509250929050565b60008115159050919050565b61213981612124565b82525050565b6000819050919050565b600061216461215f61215a84611c22565b61213f565b611c22565b9050919050565b600061217682612149565b9050919050565b60006121888261216b565b9050919050565b6121988161217d565b82525050565b600060a0820190506121b360008301886120ba565b6121c06020830187611cfc565b6121cd6040830186611cfc565b6121da6060830185612130565b6121e7608083018461218f565b9695505050505050565b6000806040838503121561220857612207611bb3565b5b600061221685828601611d3d565b925050602061222785828601611c7d565b9150509250929050565b60006020828403121561224757612246611bb3565b5b600061225584828501611c7d565b91505092915050565b60006122698261216b565b9050919050565b6122798161225e565b82525050565b60006060820190506122946000830186612270565b6122a16020830185611cfc565b6122ae6040830184611cfc565b949350505050565b6000602082840312156122cc576122cb611bb3565b5b60006122da84828501611e4e565b91505092915050565b600082825260208201905092915050565b7f436f6e7472616374206e6f7420616c6c6f776564000000000000000000000000600082015250565b600061232a6014836122e3565b9150612335826122f4565b602082019050919050565b600060208201905081810360008301526123598161231d565b9050919050565b7f50726f787920636f6e7472616374206e6f7420616c6c6f776564000000000000600082015250565b6000612396601a836122e3565b91506123a182612360565b602082019050919050565b600060208201905081810360008301526123c581612389565b9050919050565b7f4e6f20746f6b656e730000000000000000000000000000000000000000000000600082015250565b60006124026009836122e3565b915061240d826123cc565b602082019050919050565b60006020820190508181036000830152612431816123f5565b9050919050565b7f4e487b7100000000000000000000000000000000000000000000000000000000600052603260045260246000fd5b7f4e6f74206120746f6b656e206f776e6572000000000000000000000000000000600082015250565b600061249d6011836122e3565b91506124a882612467565b602082019050919050565b600060208201905081810360008301526124cc81612490565b9050919050565b7f4e487b7100000000000000000000000000000000000000000000000000000000600052601160045260246000fd5b600061250d82611cf2565b915061251883611cf2565b92508282019050808211156125305761252f6124d3565b5b92915050565b7f4e6f742061626c6520746f20636c61696d207965740000000000000000000000600082015250565b600061256c6015836122e3565b915061257782612536565b602082019050919050565b6000602082019050818103600083015261259b8161255f565b9050919050565b7f416c726561647920756e6c6f636b656400000000000000000000000000000000600082015250565b60006125d86010836122e3565b91506125e3826125a2565b602082019050919050565b60006020820190508181036000830152612607816125cb565b9050919050565b600061261982611cf2565b915061262483611cf2565b925082820390508181111561263c5761263b6124d3565b5b92915050565b600060408201905061265760008301856120ba565b6126646020830184611cfc565b9392505050565b600061267682611cf2565b91507fffffffffffffffffffffffffffffffffffffffffffffffffffffffffffffffff82036126a8576126a76124d3565b5b600182019050919050565b600082825260208201905092915050565b600080fd5b82818337505050565b60006126de83856126b3565b93507f07ffffffffffffffffffffffffffffffffffffffffffffffffffffffffffffff831115612711576127106126c4565b5b6020830292506127228385846126c9565b82840190509392505050565b600060408201905081810360008301526127498185876126d2565b90506127586020830184611cfc565b949350505050565b7f5265656e7472616e637947756172643a207265656e7472616e742063616c6c00600082015250565b6000612796601f836122e3565b91506127a182612760565b602082019050919050565b600060208201905081810360008301526127c581612789565b9050919050565b6000815190506127db81611e37565b92915050565b6000602082840312156127f7576127f6611bb3565b5b6000612805848285016127cc565b91505092915050565b7f596f7520646f6e277420686f6c64207468697320746f6b656e00000000000000600082015250565b60006128446019836122e3565b915061284f8261280e565b602082019050919050565b6000602082019050818103600083015261287381612837565b9050919050565b600060608201905061288f60008301866120ba565b61289c60208301856120ba565b6128a96040830184611cfc565b949350505050565b600060208201905081810360008301526128cc8184866126d2565b90509392505050565b7f496e76616c6964206c6f636b20706572696f642e000000000000000000000000600082015250565b600061290b6014836122e3565b9150612916826128d5565b602082019050919050565b6000602082019050818103600083015261293a816128fe565b9050919050565b7f496e76616c6964206c6f636b20706572696f6400000000000000000000000000600082015250565b60006129776013836122e3565b915061298282612941565b602082019050919050565b600060208201905081810360008301526129a68161296a565b9050919050565b7f4e6f742061626c6520746f20756e6c6f636b2079657400000000000000000000600082015250565b60006129e36016836122e3565b91506129ee826129ad565b602082019050919050565b60006020820190508181036000830152612a12816129d6565b9050919050565b7f4f776e61626c653a206e6577206f776e657220697320746865207a65726f206160008201527f6464726573730000000000000000000000000000000000000000000000000000602082015250565b6000612a756026836122e3565b9150612a8082612a19565b604082019050919050565b60006020820190508181036000830152612aa481612a68565b9050919050565b6000612ab682611cf2565b9150612ac183611cf2565b9250817fffffffffffffffffffffffffffffffffffffffffffffffffffffffffffffffff0483118215151615612afa57612af96124d3565b5b828202905092915050565b7f4e487b7100000000000000000000000000000000000000000000000000000000600052601260045260246000fd5b6000612b3f82611cf2565b9150612b4a83611cf2565b925082612b5a57612b59612b05565b5b828204905092915050565b7f4f776e61626c653a2063616c6c6572206973206e6f7420746865206f776e6572600082015250565b6000612b9b6020836122e3565b9150612ba682612b65565b602082019050919050565b60006020820190508181036000830152612bca81612b8e565b905091905056fea264697066735822122041ca5b98246c1877c54f52be6fb09d6b06f04adb4c8472b42a4d336a3ce750a864736f6c63430008100033",
					"opcodes": "PUSH1 0x80 PUSH1 0x40 MSTORE CALLVALUE DUP1 ISZERO PUSH3 0x11 JUMPI PUSH1 0x0 DUP1 REVERT JUMPDEST POP PUSH1 0x40 MLOAD PUSH3 0x34C7 CODESIZE SUB DUP1 PUSH3 0x34C7 DUP4 CODECOPY DUP2 DUP2 ADD PUSH1 0x40 MSTORE DUP2 ADD SWAP1 PUSH3 0x37 SWAP2 SWAP1 PUSH3 0x66A JUMP JUMPDEST PUSH3 0x57 PUSH3 0x4B PUSH3 0x29F PUSH1 0x20 SHL PUSH1 0x20 SHR JUMP JUMPDEST PUSH3 0x2A7 PUSH1 0x20 SHL PUSH1 0x20 SHR JUMP JUMPDEST PUSH1 0x1 DUP1 DUP2 SWAP1 SSTORE POP PUSH1 0x0 DUP5 GT PUSH3 0xA4 JUMPI PUSH1 0x40 MLOAD PUSH32 0x8C379A000000000000000000000000000000000000000000000000000000000 DUP2 MSTORE PUSH1 0x4 ADD PUSH3 0x9B SWAP1 PUSH3 0x7E3 JUMP JUMPDEST PUSH1 0x40 MLOAD DUP1 SWAP2 SUB SWAP1 REVERT JUMPDEST PUSH1 0x0 JUMPDEST DUP7 MLOAD DUP2 LT ISZERO PUSH3 0x284 JUMPI DUP6 DUP2 DUP2 MLOAD DUP2 LT PUSH3 0xC7 JUMPI PUSH3 0xC6 PUSH3 0x805 JUMP JUMPDEST JUMPDEST PUSH1 0x20 MUL PUSH1 0x20 ADD ADD MLOAD PUSH1 0x4 PUSH1 0x0 DUP10 DUP5 DUP2 MLOAD DUP2 LT PUSH3 0xE9 JUMPI PUSH3 0xE8 PUSH3 0x805 JUMP JUMPDEST JUMPDEST PUSH1 0x20 MUL PUSH1 0x20 ADD ADD MLOAD PUSH20 0xFFFFFFFFFFFFFFFFFFFFFFFFFFFFFFFFFFFFFFFF AND PUSH20 0xFFFFFFFFFFFFFFFFFFFFFFFFFFFFFFFFFFFFFFFF AND DUP2 MSTORE PUSH1 0x20 ADD SWAP1 DUP2 MSTORE PUSH1 0x20 ADD PUSH1 0x0 KECCAK256 PUSH1 0x0 ADD PUSH1 0x0 PUSH2 0x100 EXP DUP2 SLOAD DUP2 PUSH20 0xFFFFFFFFFFFFFFFFFFFFFFFFFFFFFFFFFFFFFFFF MUL NOT AND SWAP1 DUP4 PUSH20 0xFFFFFFFFFFFFFFFFFFFFFFFFFFFFFFFFFFFFFFFF AND MUL OR SWAP1 SSTORE POP DUP4 DUP2 DUP2 MLOAD DUP2 LT PUSH3 0x182 JUMPI PUSH3 0x181 PUSH3 0x805 JUMP JUMPDEST JUMPDEST PUSH1 0x20 MUL PUSH1 0x20 ADD ADD MLOAD PUSH1 0x4 PUSH1 0x0 DUP10 DUP5 DUP2 MLOAD DUP2 LT PUSH3 0x1A4 JUMPI PUSH3 0x1A3 PUSH3 0x805 JUMP JUMPDEST JUMPDEST PUSH1 0x20 MUL PUSH1 0x20 ADD ADD MLOAD PUSH20 0xFFFFFFFFFFFFFFFFFFFFFFFFFFFFFFFFFFFFFFFF AND PUSH20 0xFFFFFFFFFFFFFFFFFFFFFFFFFFFFFFFFFFFFFFFF AND DUP2 MSTORE PUSH1 0x20 ADD SWAP1 DUP2 MSTORE PUSH1 0x20 ADD PUSH1 0x0 KECCAK256 PUSH1 0x1 ADD DUP2 SWAP1 SSTORE POP DUP3 DUP2 DUP2 MLOAD DUP2 LT PUSH3 0x203 JUMPI PUSH3 0x202 PUSH3 0x805 JUMP JUMPDEST JUMPDEST PUSH1 0x20 MUL PUSH1 0x20 ADD ADD MLOAD PUSH1 0x4 PUSH1 0x0 DUP10 DUP5 DUP2 MLOAD DUP2 LT PUSH3 0x225 JUMPI PUSH3 0x224 PUSH3 0x805 JUMP JUMPDEST JUMPDEST PUSH1 0x20 MUL PUSH1 0x20 ADD ADD MLOAD PUSH20 0xFFFFFFFFFFFFFFFFFFFFFFFFFFFFFFFFFFFFFFFF AND PUSH20 0xFFFFFFFFFFFFFFFFFFFFFFFFFFFFFFFFFFFFFFFF AND DUP2 MSTORE PUSH1 0x20 ADD SWAP1 DUP2 MSTORE PUSH1 0x20 ADD PUSH1 0x0 KECCAK256 PUSH1 0x2 ADD DUP2 SWAP1 SSTORE POP DUP1 DUP1 PUSH3 0x27B SWAP1 PUSH3 0x863 JUMP JUMPDEST SWAP2 POP POP PUSH3 0xA7 JUMP JUMPDEST POP DUP4 PUSH1 0x2 DUP2 SWAP1 SSTORE POP DUP1 PUSH1 0x5 DUP2 SWAP1 SSTORE POP POP POP POP POP POP POP PUSH3 0x8B0 JUMP JUMPDEST PUSH1 0x0 CALLER SWAP1 POP SWAP1 JUMP JUMPDEST PUSH1 0x0 DUP1 PUSH1 0x0 SWAP1 SLOAD SWAP1 PUSH2 0x100 EXP SWAP1 DIV PUSH20 0xFFFFFFFFFFFFFFFFFFFFFFFFFFFFFFFFFFFFFFFF AND SWAP1 POP DUP2 PUSH1 0x0 DUP1 PUSH2 0x100 EXP DUP2 SLOAD DUP2 PUSH20 0xFFFFFFFFFFFFFFFFFFFFFFFFFFFFFFFFFFFFFFFF MUL NOT AND SWAP1 DUP4 PUSH20 0xFFFFFFFFFFFFFFFFFFFFFFFFFFFFFFFFFFFFFFFF AND MUL OR SWAP1 SSTORE POP DUP2 PUSH20 0xFFFFFFFFFFFFFFFFFFFFFFFFFFFFFFFFFFFFFFFF AND DUP2 PUSH20 0xFFFFFFFFFFFFFFFFFFFFFFFFFFFFFFFFFFFFFFFF AND PUSH32 0x8BE0079C531659141344CD1FD0A4F28419497F9722A3DAAFE3B4186F6B6457E0 PUSH1 0x40 MLOAD PUSH1 0x40 MLOAD DUP1 SWAP2 SUB SWAP1 LOG3 POP POP JUMP JUMPDEST PUSH1 0x0 PUSH1 0x40 MLOAD SWAP1 POP SWAP1 JUMP JUMPDEST PUSH1 0x0 DUP1 REVERT JUMPDEST PUSH1 0x0 DUP1 REVERT JUMPDEST PUSH1 0x0 DUP1 REVERT JUMPDEST PUSH1 0x0 PUSH1 0x1F NOT PUSH1 0x1F DUP4 ADD AND SWAP1 POP SWAP2 SWAP1 POP JUMP JUMPDEST PUSH32 0x4E487B7100000000000000000000000000000000000000000000000000000000 PUSH1 0x0 MSTORE PUSH1 0x41 PUSH1 0x4 MSTORE PUSH1 0x24 PUSH1 0x0 REVERT JUMPDEST PUSH3 0x3CF DUP3 PUSH3 0x384 JUMP JUMPDEST DUP2 ADD DUP2 DUP2 LT PUSH8 0xFFFFFFFFFFFFFFFF DUP3 GT OR ISZERO PUSH3 0x3F1 JUMPI PUSH3 0x3F0 PUSH3 0x395 JUMP JUMPDEST JUMPDEST DUP1 PUSH1 0x40 MSTORE POP POP POP JUMP JUMPDEST PUSH1 0x0 PUSH3 0x406 PUSH3 0x36B JUMP JUMPDEST SWAP1 POP PUSH3 0x414 DUP3 DUP3 PUSH3 0x3C4 JUMP JUMPDEST SWAP2 SWAP1 POP JUMP JUMPDEST PUSH1 0x0 PUSH8 0xFFFFFFFFFFFFFFFF DUP3 GT ISZERO PUSH3 0x437 JUMPI PUSH3 0x436 PUSH3 0x395 JUMP JUMPDEST JUMPDEST PUSH1 0x20 DUP3 MUL SWAP1 POP PUSH1 0x20 DUP2 ADD SWAP1 POP SWAP2 SWAP1 POP JUMP JUMPDEST PUSH1 0x0 DUP1 REVERT JUMPDEST PUSH1 0x0 PUSH20 0xFFFFFFFFFFFFFFFFFFFFFFFFFFFFFFFFFFFFFFFF DUP3 AND SWAP1 POP SWAP2 SWAP1 POP JUMP JUMPDEST PUSH1 0x0 PUSH3 0x47A DUP3 PUSH3 0x44D JUMP JUMPDEST SWAP1 POP SWAP2 SWAP1 POP JUMP JUMPDEST PUSH3 0x48C DUP2 PUSH3 0x46D JUMP JUMPDEST DUP2 EQ PUSH3 0x498 JUMPI PUSH1 0x0 DUP1 REVERT JUMPDEST POP JUMP JUMPDEST PUSH1 0x0 DUP2 MLOAD SWAP1 POP PUSH3 0x4AC DUP2 PUSH3 0x481 JUMP JUMPDEST SWAP3 SWAP2 POP POP JUMP JUMPDEST PUSH1 0x0 PUSH3 0x4C9 PUSH3 0x4C3 DUP5 PUSH3 0x419 JUMP JUMPDEST PUSH3 0x3FA JUMP JUMPDEST SWAP1 POP DUP1 DUP4 DUP3 MSTORE PUSH1 0x20 DUP3 ADD SWAP1 POP PUSH1 0x20 DUP5 MUL DUP4 ADD DUP6 DUP2 GT ISZERO PUSH3 0x4EF JUMPI PUSH3 0x4EE PUSH3 0x448 JUMP JUMPDEST JUMPDEST DUP4 JUMPDEST DUP2 DUP2 LT ISZERO PUSH3 0x51C JUMPI DUP1 PUSH3 0x507 DUP9 DUP3 PUSH3 0x49B JUMP JUMPDEST DUP5 MSTORE PUSH1 0x20 DUP5 ADD SWAP4 POP POP PUSH1 0x20 DUP2 ADD SWAP1 POP PUSH3 0x4F1 JUMP JUMPDEST POP POP POP SWAP4 SWAP3 POP POP POP JUMP JUMPDEST PUSH1 0x0 DUP3 PUSH1 0x1F DUP4 ADD SLT PUSH3 0x53E JUMPI PUSH3 0x53D PUSH3 0x37F JUMP JUMPDEST JUMPDEST DUP2 MLOAD PUSH3 0x550 DUP5 DUP3 PUSH1 0x20 DUP7 ADD PUSH3 0x4B2 JUMP JUMPDEST SWAP2 POP POP SWAP3 SWAP2 POP POP JUMP JUMPDEST PUSH1 0x0 DUP2 SWAP1 POP SWAP2 SWAP1 POP JUMP JUMPDEST PUSH3 0x56E DUP2 PUSH3 0x559 JUMP JUMPDEST DUP2 EQ PUSH3 0x57A JUMPI PUSH1 0x0 DUP1 REVERT JUMPDEST POP JUMP JUMPDEST PUSH1 0x0 DUP2 MLOAD SWAP1 POP PUSH3 0x58E DUP2 PUSH3 0x563 JUMP JUMPDEST SWAP3 SWAP2 POP POP JUMP JUMPDEST PUSH1 0x0 PUSH8 0xFFFFFFFFFFFFFFFF DUP3 GT ISZERO PUSH3 0x5B2 JUMPI PUSH3 0x5B1 PUSH3 0x395 JUMP JUMPDEST JUMPDEST PUSH1 0x20 DUP3 MUL SWAP1 POP PUSH1 0x20 DUP2 ADD SWAP1 POP SWAP2 SWAP1 POP JUMP JUMPDEST PUSH1 0x0 PUSH3 0x5DA PUSH3 0x5D4 DUP5 PUSH3 0x594 JUMP JUMPDEST PUSH3 0x3FA JUMP JUMPDEST SWAP1 POP DUP1 DUP4 DUP3 MSTORE PUSH1 0x20 DUP3 ADD SWAP1 POP PUSH1 0x20 DUP5 MUL DUP4 ADD DUP6 DUP2 GT ISZERO PUSH3 0x600 JUMPI PUSH3 0x5FF PUSH3 0x448 JUMP JUMPDEST JUMPDEST DUP4 JUMPDEST DUP2 DUP2 LT ISZERO PUSH3 0x62D JUMPI DUP1 PUSH3 0x618 DUP9 DUP3 PUSH3 0x57D JUMP JUMPDEST DUP5 MSTORE PUSH1 0x20 DUP5 ADD SWAP4 POP POP PUSH1 0x20 DUP2 ADD SWAP1 POP PUSH3 0x602 JUMP JUMPDEST POP POP POP SWAP4 SWAP3 POP POP POP JUMP JUMPDEST PUSH1 0x0 DUP3 PUSH1 0x1F DUP4 ADD SLT PUSH3 0x64F JUMPI PUSH3 0x64E PUSH3 0x37F JUMP JUMPDEST JUMPDEST DUP2 MLOAD PUSH3 0x661 DUP5 DUP3 PUSH1 0x20 DUP7 ADD PUSH3 0x5C3 JUMP JUMPDEST SWAP2 POP POP SWAP3 SWAP2 POP POP JUMP JUMPDEST PUSH1 0x0 DUP1 PUSH1 0x0 DUP1 PUSH1 0x0 DUP1 PUSH1 0xC0 DUP8 DUP10 SUB SLT ISZERO PUSH3 0x68A JUMPI PUSH3 0x689 PUSH3 0x375 JUMP JUMPDEST JUMPDEST PUSH1 0x0 DUP8 ADD MLOAD PUSH8 0xFFFFFFFFFFFFFFFF DUP2 GT ISZERO PUSH3 0x6AB JUMPI PUSH3 0x6AA PUSH3 0x37A JUMP JUMPDEST JUMPDEST PUSH3 0x6B9 DUP10 DUP3 DUP11 ADD PUSH3 0x526 JUMP JUMPDEST SWAP7 POP POP PUSH1 0x20 DUP8 ADD MLOAD PUSH8 0xFFFFFFFFFFFFFFFF DUP2 GT ISZERO PUSH3 0x6DD JUMPI PUSH3 0x6DC PUSH3 0x37A JUMP JUMPDEST JUMPDEST PUSH3 0x6EB DUP10 DUP3 DUP11 ADD PUSH3 0x526 JUMP JUMPDEST SWAP6 POP POP PUSH1 0x40 PUSH3 0x6FE DUP10 DUP3 DUP11 ADD PUSH3 0x57D JUMP JUMPDEST SWAP5 POP POP PUSH1 0x60 DUP8 ADD MLOAD PUSH8 0xFFFFFFFFFFFFFFFF DUP2 GT ISZERO PUSH3 0x722 JUMPI PUSH3 0x721 PUSH3 0x37A JUMP JUMPDEST JUMPDEST PUSH3 0x730 DUP10 DUP3 DUP11 ADD PUSH3 0x637 JUMP JUMPDEST SWAP4 POP POP PUSH1 0x80 DUP8 ADD MLOAD PUSH8 0xFFFFFFFFFFFFFFFF DUP2 GT ISZERO PUSH3 0x754 JUMPI PUSH3 0x753 PUSH3 0x37A JUMP JUMPDEST JUMPDEST PUSH3 0x762 DUP10 DUP3 DUP11 ADD PUSH3 0x637 JUMP JUMPDEST SWAP3 POP POP PUSH1 0xA0 PUSH3 0x775 DUP10 DUP3 DUP11 ADD PUSH3 0x57D JUMP JUMPDEST SWAP2 POP POP SWAP3 SWAP6 POP SWAP3 SWAP6 POP SWAP3 SWAP6 JUMP JUMPDEST PUSH1 0x0 DUP3 DUP3 MSTORE PUSH1 0x20 DUP3 ADD SWAP1 POP SWAP3 SWAP2 POP POP JUMP JUMPDEST PUSH32 0x496E76616C6964206C6F636B20706572696F6400000000000000000000000000 PUSH1 0x0 DUP3 ADD MSTORE POP JUMP JUMPDEST PUSH1 0x0 PUSH3 0x7CB PUSH1 0x13 DUP4 PUSH3 0x782 JUMP JUMPDEST SWAP2 POP PUSH3 0x7D8 DUP3 PUSH3 0x793 JUMP JUMPDEST PUSH1 0x20 DUP3 ADD SWAP1 POP SWAP2 SWAP1 POP JUMP JUMPDEST PUSH1 0x0 PUSH1 0x20 DUP3 ADD SWAP1 POP DUP2 DUP2 SUB PUSH1 0x0 DUP4 ADD MSTORE PUSH3 0x7FE DUP2 PUSH3 0x7BC JUMP JUMPDEST SWAP1 POP SWAP2 SWAP1 POP JUMP JUMPDEST PUSH32 0x4E487B7100000000000000000000000000000000000000000000000000000000 PUSH1 0x0 MSTORE PUSH1 0x32 PUSH1 0x4 MSTORE PUSH1 0x24 PUSH1 0x0 REVERT JUMPDEST PUSH32 0x4E487B7100000000000000000000000000000000000000000000000000000000 PUSH1 0x0 MSTORE PUSH1 0x11 PUSH1 0x4 MSTORE PUSH1 0x24 PUSH1 0x0 REVERT JUMPDEST PUSH1 0x0 PUSH3 0x870 DUP3 PUSH3 0x559 JUMP JUMPDEST SWAP2 POP PUSH32 0xFFFFFFFFFFFFFFFFFFFFFFFFFFFFFFFFFFFFFFFFFFFFFFFFFFFFFFFFFFFFFFFF DUP3 SUB PUSH3 0x8A5 JUMPI PUSH3 0x8A4 PUSH3 0x834 JUMP JUMPDEST JUMPDEST PUSH1 0x1 DUP3 ADD SWAP1 POP SWAP2 SWAP1 POP JUMP JUMPDEST PUSH2 0x2C07 DUP1 PUSH3 0x8C0 PUSH1 0x0 CODECOPY PUSH1 0x0 RETURN INVALID PUSH1 0x80 PUSH1 0x40 MSTORE CALLVALUE DUP1 ISZERO PUSH2 0x10 JUMPI PUSH1 0x0 DUP1 REVERT JUMPDEST POP PUSH1 0x4 CALLDATASIZE LT PUSH2 0xCF JUMPI PUSH1 0x0 CALLDATALOAD PUSH1 0xE0 SHR DUP1 PUSH4 0x8DA5CB5B GT PUSH2 0x8C JUMPI DUP1 PUSH4 0xB33068C4 GT PUSH2 0x66 JUMPI DUP1 PUSH4 0xB33068C4 EQ PUSH2 0x1DA JUMPI DUP1 PUSH4 0xC69D1923 EQ PUSH2 0x20A JUMPI DUP1 PUSH4 0xE9545B92 EQ PUSH2 0x228 JUMPI DUP1 PUSH4 0xF2FDE38B EQ PUSH2 0x25A JUMPI PUSH2 0xCF JUMP JUMPDEST DUP1 PUSH4 0x8DA5CB5B EQ PUSH2 0x16C JUMPI DUP1 PUSH4 0x9F3625F0 EQ PUSH2 0x18A JUMPI DUP1 PUSH4 0xB2520A7C EQ PUSH2 0x1A6 JUMPI PUSH2 0xCF JUMP JUMPDEST DUP1 PUSH4 0x520537F EQ PUSH2 0xD4 JUMPI DUP1 PUSH4 0x1902732E EQ PUSH2 0xF0 JUMPI DUP1 PUSH4 0x3FD8B02F EQ PUSH2 0x10C JUMPI DUP1 PUSH4 0x715018A6 EQ PUSH2 0x12A JUMPI DUP1 PUSH4 0x779972DA EQ PUSH2 0x134 JUMPI DUP1 PUSH4 0x85E6C27C EQ PUSH2 0x150 JUMPI JUMPDEST PUSH1 0x0 DUP1 REVERT JUMPDEST PUSH2 0xEE PUSH1 0x4 DUP1 CALLDATASIZE SUB DUP2 ADD SWAP1 PUSH2 0xE9 SWAP2 SWAP1 PUSH2 0x1C92 JUMP JUMPDEST PUSH2 0x276 JUMP JUMPDEST STOP JUMPDEST PUSH2 0x10A PUSH1 0x4 DUP1 CALLDATASIZE SUB DUP2 ADD SWAP1 PUSH2 0x105 SWAP2 SWAP1 PUSH2 0x1C92 JUMP JUMPDEST PUSH2 0x7F1 JUMP JUMPDEST STOP JUMPDEST PUSH2 0x114 PUSH2 0xCDC JUMP JUMPDEST PUSH1 0x40 MLOAD PUSH2 0x121 SWAP2 SWAP1 PUSH2 0x1D0B JUMP JUMPDEST PUSH1 0x40 MLOAD DUP1 SWAP2 SUB SWAP1 RETURN JUMPDEST PUSH2 0x132 PUSH2 0xCE2 JUMP JUMPDEST STOP JUMPDEST PUSH2 0x14E PUSH1 0x4 DUP1 CALLDATASIZE SUB DUP2 ADD SWAP1 PUSH2 0x149 SWAP2 SWAP1 PUSH2 0x1D52 JUMP JUMPDEST PUSH2 0xCF6 JUMP JUMPDEST STOP JUMPDEST PUSH2 0x16A PUSH1 0x4 DUP1 CALLDATASIZE SUB DUP2 ADD SWAP1 PUSH2 0x165 SWAP2 SWAP1 PUSH2 0x1FBD JUMP JUMPDEST PUSH2 0xD82 JUMP JUMPDEST STOP JUMPDEST PUSH2 0x174 PUSH2 0xFAE JUMP JUMPDEST PUSH1 0x40 MLOAD PUSH2 0x181 SWAP2 SWAP1 PUSH2 0x20C9 JUMP JUMPDEST PUSH1 0x40 MLOAD DUP1 SWAP2 SUB SWAP1 RETURN JUMPDEST PUSH2 0x1A4 PUSH1 0x4 DUP1 CALLDATASIZE SUB DUP2 ADD SWAP1 PUSH2 0x19F SWAP2 SWAP1 PUSH2 0x1C92 JUMP JUMPDEST PUSH2 0xFD7 JUMP JUMPDEST STOP JUMPDEST PUSH2 0x1C0 PUSH1 0x4 DUP1 CALLDATASIZE SUB DUP2 ADD SWAP1 PUSH2 0x1BB SWAP2 SWAP1 PUSH2 0x20E4 JUMP JUMPDEST PUSH2 0x169D JUMP JUMPDEST PUSH1 0x40 MLOAD PUSH2 0x1D1 SWAP6 SWAP5 SWAP4 SWAP3 SWAP2 SWAP1 PUSH2 0x219E JUMP JUMPDEST PUSH1 0x40 MLOAD DUP1 SWAP2 SUB SWAP1 RETURN JUMPDEST PUSH2 0x1F4 PUSH1 0x4 DUP1 CALLDATASIZE SUB DUP2 ADD SWAP1 PUSH2 0x1EF SWAP2 SWAP1 PUSH2 0x21F1 JUMP JUMPDEST PUSH2 0x172D JUMP JUMPDEST PUSH1 0x40 MLOAD PUSH2 0x201 SWAP2 SWAP1 PUSH2 0x1D0B JUMP JUMPDEST PUSH1 0x40 MLOAD DUP1 SWAP2 SUB SWAP1 RETURN JUMPDEST PUSH2 0x212 PUSH2 0x178B JUMP JUMPDEST PUSH1 0x40 MLOAD PUSH2 0x21F SWAP2 SWAP1 PUSH2 0x1D0B JUMP JUMPDEST PUSH1 0x40 MLOAD DUP1 SWAP2 SUB SWAP1 RETURN JUMPDEST PUSH2 0x242 PUSH1 0x4 DUP1 CALLDATASIZE SUB DUP2 ADD SWAP1 PUSH2 0x23D SWAP2 SWAP1 PUSH2 0x2231 JUMP JUMPDEST PUSH2 0x1791 JUMP JUMPDEST PUSH1 0x40 MLOAD PUSH2 0x251 SWAP4 SWAP3 SWAP2 SWAP1 PUSH2 0x227F JUMP JUMPDEST PUSH1 0x40 MLOAD DUP1 SWAP2 SUB SWAP1 RETURN JUMPDEST PUSH2 0x274 PUSH1 0x4 DUP1 CALLDATASIZE SUB DUP2 ADD SWAP1 PUSH2 0x26F SWAP2 SWAP1 PUSH2 0x22B6 JUMP JUMPDEST PUSH2 0x17DB JUMP JUMPDEST STOP JUMPDEST PUSH2 0x295 CALLER PUSH20 0xFFFFFFFFFFFFFFFFFFFFFFFFFFFFFFFFFFFFFFFF AND PUSH2 0x185E JUMP JUMPDEST ISZERO PUSH2 0x2D5 JUMPI PUSH1 0x40 MLOAD PUSH32 0x8C379A000000000000000000000000000000000000000000000000000000000 DUP2 MSTORE PUSH1 0x4 ADD PUSH2 0x2CC SWAP1 PUSH2 0x2340 JUMP JUMPDEST PUSH1 0x40 MLOAD DUP1 SWAP2 SUB SWAP1 REVERT JUMPDEST ORIGIN PUSH20 0xFFFFFFFFFFFFFFFFFFFFFFFFFFFFFFFFFFFFFFFF AND CALLER PUSH20 0xFFFFFFFFFFFFFFFFFFFFFFFFFFFFFFFFFFFFFFFF AND EQ PUSH2 0x343 JUMPI PUSH1 0x40 MLOAD PUSH32 0x8C379A000000000000000000000000000000000000000000000000000000000 DUP2 MSTORE PUSH1 0x4 ADD PUSH2 0x33A SWAP1 PUSH2 0x23AC JUMP JUMPDEST PUSH1 0x40 MLOAD DUP1 SWAP2 SUB SWAP1 REVERT JUMPDEST PUSH1 0x0 DUP4 DUP4 SWAP1 POP GT PUSH2 0x389 JUMPI PUSH1 0x40 MLOAD PUSH32 0x8C379A000000000000000000000000000000000000000000000000000000000 DUP2 MSTORE PUSH1 0x4 ADD PUSH2 0x380 SWAP1 PUSH2 0x2418 JUMP JUMPDEST PUSH1 0x40 MLOAD DUP1 SWAP2 SUB SWAP1 REVERT JUMPDEST PUSH1 0x0 DUP1 PUSH1 0x0 SWAP1 POP JUMPDEST DUP5 DUP5 SWAP1 POP DUP2 LT ISZERO PUSH2 0x798 JUMPI PUSH1 0x0 PUSH1 0x3 PUSH1 0x0 DUP6 PUSH20 0xFFFFFFFFFFFFFFFFFFFFFFFFFFFFFFFFFFFFFFFF AND PUSH20 0xFFFFFFFFFFFFFFFFFFFFFFFFFFFFFFFFFFFFFFFF AND DUP2 MSTORE PUSH1 0x20 ADD SWAP1 DUP2 MSTORE PUSH1 0x20 ADD PUSH1 0x0 KECCAK256 PUSH1 0x0 DUP8 DUP8 DUP6 DUP2 DUP2 LT PUSH2 0x3F2 JUMPI PUSH2 0x3F1 PUSH2 0x2438 JUMP JUMPDEST JUMPDEST SWAP1 POP PUSH1 0x20 MUL ADD CALLDATALOAD DUP2 MSTORE PUSH1 0x20 ADD SWAP1 DUP2 MSTORE PUSH1 0x20 ADD PUSH1 0x0 KECCAK256 PUSH1 0x40 MLOAD DUP1 PUSH1 0xA0 ADD PUSH1 0x40 MSTORE SWAP1 DUP2 PUSH1 0x0 DUP3 ADD PUSH1 0x0 SWAP1 SLOAD SWAP1 PUSH2 0x100 EXP SWAP1 DIV PUSH20 0xFFFFFFFFFFFFFFFFFFFFFFFFFFFFFFFFFFFFFFFF AND PUSH20 0xFFFFFFFFFFFFFFFFFFFFFFFFFFFFFFFFFFFFFFFF AND PUSH20 0xFFFFFFFFFFFFFFFFFFFFFFFFFFFFFFFFFFFFFFFF AND DUP2 MSTORE PUSH1 0x20 ADD PUSH1 0x1 DUP3 ADD SLOAD DUP2 MSTORE PUSH1 0x20 ADD PUSH1 0x2 DUP3 ADD SLOAD DUP2 MSTORE PUSH1 0x20 ADD PUSH1 0x3 DUP3 ADD PUSH1 0x0 SWAP1 SLOAD SWAP1 PUSH2 0x100 EXP SWAP1 DIV PUSH1 0xFF AND ISZERO ISZERO ISZERO ISZERO DUP2 MSTORE PUSH1 0x20 ADD PUSH1 0x3 DUP3 ADD PUSH1 0x1 SWAP1 SLOAD SWAP1 PUSH2 0x100 EXP SWAP1 DIV PUSH20 0xFFFFFFFFFFFFFFFFFFFFFFFFFFFFFFFFFFFFFFFF AND PUSH20 0xFFFFFFFFFFFFFFFFFFFFFFFFFFFFFFFFFFFFFFFF AND PUSH20 0xFFFFFFFFFFFFFFFFFFFFFFFFFFFFFFFFFFFFFFFF AND DUP2 MSTORE POP POP SWAP1 POP CALLER PUSH20 0xFFFFFFFFFFFFFFFFFFFFFFFFFFFFFFFFFFFFFFFF AND DUP2 PUSH1 0x0 ADD MLOAD PUSH20 0xFFFFFFFFFFFFFFFFFFFFFFFFFFFFFFFFFFFFFFFF AND EQ PUSH2 0x561 JUMPI PUSH1 0x40 MLOAD PUSH32 0x8C379A000000000000000000000000000000000000000000000000000000000 DUP2 MSTORE PUSH1 0x4 ADD PUSH2 0x558 SWAP1 PUSH2 0x24B3 JUMP JUMPDEST PUSH1 0x40 MLOAD DUP1 SWAP2 SUB SWAP1 REVERT JUMPDEST TIMESTAMP PUSH1 0x2 SLOAD DUP3 PUSH1 0x20 ADD MLOAD PUSH2 0x574 SWAP2 SWAP1 PUSH2 0x2502 JUMP JUMPDEST LT PUSH2 0x5B4 JUMPI PUSH1 0x40 MLOAD PUSH32 0x8C379A000000000000000000000000000000000000000000000000000000000 DUP2 MSTORE PUSH1 0x4 ADD PUSH2 0x5AB SWAP1 PUSH2 0x2582 JUMP JUMPDEST PUSH1 0x40 MLOAD DUP1 SWAP2 SUB SWAP1 REVERT JUMPDEST DUP1 PUSH1 0x60 ADD MLOAD ISZERO PUSH2 0x5F9 JUMPI PUSH1 0x40 MLOAD PUSH32 0x8C379A000000000000000000000000000000000000000000000000000000000 DUP2 MSTORE PUSH1 0x4 ADD PUSH2 0x5F0 SWAP1 PUSH2 0x25EE JUMP JUMPDEST PUSH1 0x40 MLOAD DUP1 SWAP2 SUB SWAP1 REVERT JUMPDEST PUSH1 0x0 PUSH2 0x61E DUP8 DUP8 DUP6 DUP2 DUP2 LT PUSH2 0x611 JUMPI PUSH2 0x610 PUSH2 0x2438 JUMP JUMPDEST JUMPDEST SWAP1 POP PUSH1 0x20 MUL ADD CALLDATALOAD DUP7 PUSH2 0x1881 JUMP JUMPDEST SWAP1 POP PUSH1 0x0 DUP3 PUSH1 0x40 ADD MLOAD DUP3 PUSH2 0x632 SWAP2 SWAP1 PUSH2 0x260E JUMP JUMPDEST SWAP1 POP PUSH1 0x4 PUSH1 0x0 DUP8 PUSH20 0xFFFFFFFFFFFFFFFFFFFFFFFFFFFFFFFFFFFFFFFF AND PUSH20 0xFFFFFFFFFFFFFFFFFFFFFFFFFFFFFFFFFFFFFFFF AND DUP2 MSTORE PUSH1 0x20 ADD SWAP1 DUP2 MSTORE PUSH1 0x20 ADD PUSH1 0x0 KECCAK256 PUSH1 0x0 ADD PUSH1 0x0 SWAP1 SLOAD SWAP1 PUSH2 0x100 EXP SWAP1 DIV PUSH20 0xFFFFFFFFFFFFFFFFFFFFFFFFFFFFFFFFFFFFFFFF AND PUSH20 0xFFFFFFFFFFFFFFFFFFFFFFFFFFFFFFFFFFFFFFFF AND PUSH4 0x40C10F19 CALLER DUP4 PUSH1 0x40 MLOAD DUP4 PUSH4 0xFFFFFFFF AND PUSH1 0xE0 SHL DUP2 MSTORE PUSH1 0x4 ADD PUSH2 0x6D1 SWAP3 SWAP2 SWAP1 PUSH2 0x2642 JUMP JUMPDEST PUSH1 0x0 PUSH1 0x40 MLOAD DUP1 DUP4 SUB DUP2 PUSH1 0x0 DUP8 DUP1 EXTCODESIZE ISZERO DUP1 ISZERO PUSH2 0x6EB JUMPI PUSH1 0x0 DUP1 REVERT JUMPDEST POP GAS CALL ISZERO DUP1 ISZERO PUSH2 0x6FF JUMPI RETURNDATASIZE PUSH1 0x0 DUP1 RETURNDATACOPY RETURNDATASIZE PUSH1 0x0 REVERT JUMPDEST POP POP POP POP DUP1 DUP6 PUSH2 0x70F SWAP2 SWAP1 PUSH2 0x2502 JUMP JUMPDEST SWAP5 POP DUP2 PUSH1 0x3 PUSH1 0x0 DUP9 PUSH20 0xFFFFFFFFFFFFFFFFFFFFFFFFFFFFFFFFFFFFFFFF AND PUSH20 0xFFFFFFFFFFFFFFFFFFFFFFFFFFFFFFFFFFFFFFFF AND DUP2 MSTORE PUSH1 0x20 ADD SWAP1 DUP2 MSTORE PUSH1 0x20 ADD PUSH1 0x0 KECCAK256 PUSH1 0x0 DUP11 DUP11 DUP9 DUP2 DUP2 LT PUSH2 0x766 JUMPI PUSH2 0x765 PUSH2 0x2438 JUMP JUMPDEST JUMPDEST SWAP1 POP PUSH1 0x20 MUL ADD CALLDATALOAD DUP2 MSTORE PUSH1 0x20 ADD SWAP1 DUP2 MSTORE PUSH1 0x20 ADD PUSH1 0x0 KECCAK256 PUSH1 0x2 ADD DUP2 SWAP1 SSTORE POP POP POP POP DUP1 DUP1 PUSH2 0x790 SWAP1 PUSH2 0x266B JUMP JUMPDEST SWAP2 POP POP PUSH2 0x391 JUMP JUMPDEST POP CALLER PUSH20 0xFFFFFFFFFFFFFFFFFFFFFFFFFFFFFFFFFFFFFFFF AND PUSH32 0x37826BE3C26DBAD83731F4B985F22FA9EF86B6D1974CD77208332B7F1F283C0C DUP6 DUP6 DUP5 PUSH1 0x40 MLOAD PUSH2 0x7E3 SWAP4 SWAP3 SWAP2 SWAP1 PUSH2 0x272E JUMP JUMPDEST PUSH1 0x40 MLOAD DUP1 SWAP2 SUB SWAP1 LOG2 POP POP POP POP JUMP JUMPDEST PUSH2 0x810 CALLER PUSH20 0xFFFFFFFFFFFFFFFFFFFFFFFFFFFFFFFFFFFFFFFF AND PUSH2 0x185E JUMP JUMPDEST ISZERO PUSH2 0x850 JUMPI PUSH1 0x40 MLOAD PUSH32 0x8C379A000000000000000000000000000000000000000000000000000000000 DUP2 MSTORE PUSH1 0x4 ADD PUSH2 0x847 SWAP1 PUSH2 0x2340 JUMP JUMPDEST PUSH1 0x40 MLOAD DUP1 SWAP2 SUB SWAP1 REVERT JUMPDEST ORIGIN PUSH20 0xFFFFFFFFFFFFFFFFFFFFFFFFFFFFFFFFFFFFFFFF AND CALLER PUSH20 0xFFFFFFFFFFFFFFFFFFFFFFFFFFFFFFFFFFFFFFFF AND EQ PUSH2 0x8BE JUMPI PUSH1 0x40 MLOAD PUSH32 0x8C379A000000000000000000000000000000000000000000000000000000000 DUP2 MSTORE PUSH1 0x4 ADD PUSH2 0x8B5 SWAP1 PUSH2 0x23AC JUMP JUMPDEST PUSH1 0x40 MLOAD DUP1 SWAP2 SUB SWAP1 REVERT JUMPDEST PUSH1 0x2 PUSH1 0x1 SLOAD SUB PUSH2 0x903 JUMPI PUSH1 0x40 MLOAD PUSH32 0x8C379A000000000000000000000000000000000000000000000000000000000 DUP2 MSTORE PUSH1 0x4 ADD PUSH2 0x8FA SWAP1 PUSH2 0x27AC JUMP JUMPDEST PUSH1 0x40 MLOAD DUP1 SWAP2 SUB SWAP1 REVERT JUMPDEST PUSH1 0x2 PUSH1 0x1 DUP2 SWAP1 SSTORE POP PUSH1 0x0 DUP4 DUP4 SWAP1 POP GT PUSH2 0x951 JUMPI PUSH1 0x40 MLOAD PUSH32 0x8C379A000000000000000000000000000000000000000000000000000000000 DUP2 MSTORE PUSH1 0x4 ADD PUSH2 0x948 SWAP1 PUSH2 0x2418 JUMP JUMPDEST PUSH1 0x40 MLOAD DUP1 SWAP2 SUB SWAP1 REVERT JUMPDEST PUSH1 0x0 JUMPDEST DUP4 DUP4 SWAP1 POP DUP2 LT ISZERO PUSH2 0xC7F JUMPI CALLER PUSH20 0xFFFFFFFFFFFFFFFFFFFFFFFFFFFFFFFFFFFFFFFF AND DUP3 PUSH20 0xFFFFFFFFFFFFFFFFFFFFFFFFFFFFFFFFFFFFFFFF AND PUSH4 0x6352211E DUP7 DUP7 DUP6 DUP2 DUP2 LT PUSH2 0x9A5 JUMPI PUSH2 0x9A4 PUSH2 0x2438 JUMP JUMPDEST JUMPDEST SWAP1 POP PUSH1 0x20 MUL ADD CALLDATALOAD PUSH1 0x40 MLOAD DUP3 PUSH4 0xFFFFFFFF AND PUSH1 0xE0 SHL DUP2 MSTORE PUSH1 0x4 ADD PUSH2 0x9C8 SWAP2 SWAP1 PUSH2 0x1D0B JUMP JUMPDEST PUSH1 0x20 PUSH1 0x40 MLOAD DUP1 DUP4 SUB DUP2 DUP7 GAS STATICCALL ISZERO DUP1 ISZERO PUSH2 0x9E5 JUMPI RETURNDATASIZE PUSH1 0x0 DUP1 RETURNDATACOPY RETURNDATASIZE PUSH1 0x0 REVERT JUMPDEST POP POP POP POP PUSH1 0x40 MLOAD RETURNDATASIZE PUSH1 0x1F NOT PUSH1 0x1F DUP3 ADD AND DUP3 ADD DUP1 PUSH1 0x40 MSTORE POP DUP2 ADD SWAP1 PUSH2 0xA09 SWAP2 SWAP1 PUSH2 0x27E1 JUMP JUMPDEST PUSH20 0xFFFFFFFFFFFFFFFFFFFFFFFFFFFFFFFFFFFFFFFF AND EQ PUSH2 0xA5F JUMPI PUSH1 0x40 MLOAD PUSH32 0x8C379A000000000000000000000000000000000000000000000000000000000 DUP2 MSTORE PUSH1 0x4 ADD PUSH2 0xA56 SWAP1 PUSH2 0x285A JUMP JUMPDEST PUSH1 0x40 MLOAD DUP1 SWAP2 SUB SWAP1 REVERT JUMPDEST DUP2 PUSH20 0xFFFFFFFFFFFFFFFFFFFFFFFFFFFFFFFFFFFFFFFF AND PUSH4 0x23B872DD CALLER ADDRESS DUP8 DUP8 DUP7 DUP2 DUP2 LT PUSH2 0xA90 JUMPI PUSH2 0xA8F PUSH2 0x2438 JUMP JUMPDEST JUMPDEST SWAP1 POP PUSH1 0x20 MUL ADD CALLDATALOAD PUSH1 0x40 MLOAD DUP5 PUSH4 0xFFFFFFFF AND PUSH1 0xE0 SHL DUP2 MSTORE PUSH1 0x4 ADD PUSH2 0xAB5 SWAP4 SWAP3 SWAP2 SWAP1 PUSH2 0x287A JUMP JUMPDEST PUSH1 0x0 PUSH1 0x40 MLOAD DUP1 DUP4 SUB DUP2 PUSH1 0x0 DUP8 DUP1 EXTCODESIZE ISZERO DUP1 ISZERO PUSH2 0xACF JUMPI PUSH1 0x0 DUP1 REVERT JUMPDEST POP GAS CALL ISZERO DUP1 ISZERO PUSH2 0xAE3 JUMPI RETURNDATASIZE PUSH1 0x0 DUP1 RETURNDATACOPY RETURNDATASIZE PUSH1 0x0 REVERT JUMPDEST POP POP POP POP PUSH1 0x40 MLOAD DUP1 PUSH1 0xA0 ADD PUSH1 0x40 MSTORE DUP1 CALLER PUSH20 0xFFFFFFFFFFFFFFFFFFFFFFFFFFFFFFFFFFFFFFFF AND DUP2 MSTORE PUSH1 0x20 ADD TIMESTAMP DUP2 MSTORE PUSH1 0x20 ADD PUSH1 0x0 DUP2 MSTORE PUSH1 0x20 ADD PUSH1 0x0 ISZERO ISZERO DUP2 MSTORE PUSH1 0x20 ADD DUP4 PUSH20 0xFFFFFFFFFFFFFFFFFFFFFFFFFFFFFFFFFFFFFFFF AND DUP2 MSTORE POP PUSH1 0x3 PUSH1 0x0 DUP5 PUSH20 0xFFFFFFFFFFFFFFFFFFFFFFFFFFFFFFFFFFFFFFFF AND PUSH20 0xFFFFFFFFFFFFFFFFFFFFFFFFFFFFFFFFFFFFFFFF AND DUP2 MSTORE PUSH1 0x20 ADD SWAP1 DUP2 MSTORE PUSH1 0x20 ADD PUSH1 0x0 KECCAK256 PUSH1 0x0 DUP7 DUP7 DUP6 DUP2 DUP2 LT PUSH2 0xB92 JUMPI PUSH2 0xB91 PUSH2 0x2438 JUMP JUMPDEST JUMPDEST SWAP1 POP PUSH1 0x20 MUL ADD CALLDATALOAD DUP2 MSTORE PUSH1 0x20 ADD SWAP1 DUP2 MSTORE PUSH1 0x20 ADD PUSH1 0x0 KECCAK256 PUSH1 0x0 DUP3 ADD MLOAD DUP2 PUSH1 0x0 ADD PUSH1 0x0 PUSH2 0x100 EXP DUP2 SLOAD DUP2 PUSH20 0xFFFFFFFFFFFFFFFFFFFFFFFFFFFFFFFFFFFFFFFF MUL NOT AND SWAP1 DUP4 PUSH20 0xFFFFFFFFFFFFFFFFFFFFFFFFFFFFFFFFFFFFFFFF AND MUL OR SWAP1 SSTORE POP PUSH1 0x20 DUP3 ADD MLOAD DUP2 PUSH1 0x1 ADD SSTORE PUSH1 0x40 DUP3 ADD MLOAD DUP2 PUSH1 0x2 ADD SSTORE PUSH1 0x60 DUP3 ADD MLOAD DUP2 PUSH1 0x3 ADD PUSH1 0x0 PUSH2 0x100 EXP DUP2 SLOAD DUP2 PUSH1 0xFF MUL NOT AND SWAP1 DUP4 ISZERO ISZERO MUL OR SWAP1 SSTORE POP PUSH1 0x80 DUP3 ADD MLOAD DUP2 PUSH1 0x3 ADD PUSH1 0x1 PUSH2 0x100 EXP DUP2 SLOAD DUP2 PUSH20 0xFFFFFFFFFFFFFFFFFFFFFFFFFFFFFFFFFFFFFFFF MUL NOT AND SWAP1 DUP4 PUSH20 0xFFFFFFFFFFFFFFFFFFFFFFFFFFFFFFFFFFFFFFFF AND MUL OR SWAP1 SSTORE POP SWAP1 POP POP DUP1 DUP1 PUSH2 0xC77 SWAP1 PUSH2 0x266B JUMP JUMPDEST SWAP2 POP POP PUSH2 0x954 JUMP JUMPDEST POP CALLER PUSH20 0xFFFFFFFFFFFFFFFFFFFFFFFFFFFFFFFFFFFFFFFF AND PUSH32 0x458BE0227BCCC9E803DEC79BD16767EEAF9925D2CE708EEED7AE1F3621F968F9 DUP5 DUP5 PUSH1 0x40 MLOAD PUSH2 0xCC8 SWAP3 SWAP2 SWAP1 PUSH2 0x28B1 JUMP JUMPDEST PUSH1 0x40 MLOAD DUP1 SWAP2 SUB SWAP1 LOG2 PUSH1 0x1 DUP1 DUP2 SWAP1 SSTORE POP POP POP POP JUMP JUMPDEST PUSH1 0x2 SLOAD DUP2 JUMP JUMPDEST PUSH2 0xCEA PUSH2 0x1A5F JUMP JUMPDEST PUSH2 0xCF4 PUSH1 0x0 PUSH2 0x1ADD JUMP JUMPDEST JUMP JUMPDEST PUSH2 0xCFE PUSH2 0x1A5F JUMP JUMPDEST PUSH1 0x0 DUP2 GT PUSH2 0xD41 JUMPI PUSH1 0x40 MLOAD PUSH32 0x8C379A000000000000000000000000000000000000000000000000000000000 DUP2 MSTORE PUSH1 0x4 ADD PUSH2 0xD38 SWAP1 PUSH2 0x2921 JUMP JUMPDEST PUSH1 0x40 MLOAD DUP1 SWAP2 SUB SWAP1 REVERT JUMPDEST DUP1 PUSH1 0x2 DUP2 SWAP1 SSTORE POP PUSH32 0x8249EC545E68F6F1E1230133CA48C704D831A7F8E635DED80F3DD9E99B09BB2F DUP2 PUSH1 0x40 MLOAD PUSH2 0xD77 SWAP2 SWAP1 PUSH2 0x1D0B JUMP JUMPDEST PUSH1 0x40 MLOAD DUP1 SWAP2 SUB SWAP1 LOG1 POP JUMP JUMPDEST PUSH2 0xD8A PUSH2 0x1A5F JUMP JUMPDEST PUSH1 0x0 DUP5 GT PUSH2 0xDCD JUMPI PUSH1 0x40 MLOAD PUSH32 0x8C379A000000000000000000000000000000000000000000000000000000000 DUP2 MSTORE PUSH1 0x4 ADD PUSH2 0xDC4 SWAP1 PUSH2 0x298D JUMP JUMPDEST PUSH1 0x40 MLOAD DUP1 SWAP2 SUB SWAP1 REVERT JUMPDEST PUSH1 0x0 JUMPDEST DUP7 MLOAD DUP2 LT ISZERO PUSH2 0xF97 JUMPI DUP6 DUP2 DUP2 MLOAD DUP2 LT PUSH2 0xDEC JUMPI PUSH2 0xDEB PUSH2 0x2438 JUMP JUMPDEST JUMPDEST PUSH1 0x20 MUL PUSH1 0x20 ADD ADD MLOAD PUSH1 0x4 PUSH1 0x0 DUP10 DUP5 DUP2 MLOAD DUP2 LT PUSH2 0xE0B JUMPI PUSH2 0xE0A PUSH2 0x2438 JUMP JUMPDEST JUMPDEST PUSH1 0x20 MUL PUSH1 0x20 ADD ADD MLOAD PUSH20 0xFFFFFFFFFFFFFFFFFFFFFFFFFFFFFFFFFFFFFFFF AND PUSH20 0xFFFFFFFFFFFFFFFFFFFFFFFFFFFFFFFFFFFFFFFF AND DUP2 MSTORE PUSH1 0x20 ADD SWAP1 DUP2 MSTORE PUSH1 0x20 ADD PUSH1 0x0 KECCAK256 PUSH1 0x0 ADD PUSH1 0x0 PUSH2 0x100 EXP DUP2 SLOAD DUP2 PUSH20 0xFFFFFFFFFFFFFFFFFFFFFFFFFFFFFFFFFFFFFFFF MUL NOT AND SWAP1 DUP4 PUSH20 0xFFFFFFFFFFFFFFFFFFFFFFFFFFFFFFFFFFFFFFFF AND MUL OR SWAP1 SSTORE POP DUP4 DUP2 DUP2 MLOAD DUP2 LT PUSH2 0xEA1 JUMPI PUSH2 0xEA0 PUSH2 0x2438 JUMP JUMPDEST JUMPDEST PUSH1 0x20 MUL PUSH1 0x20 ADD ADD MLOAD PUSH1 0x4 PUSH1 0x0 DUP10 DUP5 DUP2 MLOAD DUP2 LT PUSH2 0xEC0 JUMPI PUSH2 0xEBF PUSH2 0x2438 JUMP JUMPDEST JUMPDEST PUSH1 0x20 MUL PUSH1 0x20 ADD ADD MLOAD PUSH20 0xFFFFFFFFFFFFFFFFFFFFFFFFFFFFFFFFFFFFFFFF AND PUSH20 0xFFFFFFFFFFFFFFFFFFFFFFFFFFFFFFFFFFFFFFFF AND DUP2 MSTORE PUSH1 0x20 ADD SWAP1 DUP2 MSTORE PUSH1 0x20 ADD PUSH1 0x0 KECCAK256 PUSH1 0x1 ADD DUP2 SWAP1 SSTORE POP DUP3 DUP2 DUP2 MLOAD DUP2 LT PUSH2 0xF1C JUMPI PUSH2 0xF1B PUSH2 0x2438 JUMP JUMPDEST JUMPDEST PUSH1 0x20 MUL PUSH1 0x20 ADD ADD MLOAD PUSH1 0x4 PUSH1 0x0 DUP10 DUP5 DUP2 MLOAD DUP2 LT PUSH2 0xF3B JUMPI PUSH2 0xF3A PUSH2 0x2438 JUMP JUMPDEST JUMPDEST PUSH1 0x20 MUL PUSH1 0x20 ADD ADD MLOAD PUSH20 0xFFFFFFFFFFFFFFFFFFFFFFFFFFFFFFFFFFFFFFFF AND PUSH20 0xFFFFFFFFFFFFFFFFFFFFFFFFFFFFFFFFFFFFFFFF AND DUP2 MSTORE PUSH1 0x20 ADD SWAP1 DUP2 MSTORE PUSH1 0x20 ADD PUSH1 0x0 KECCAK256 PUSH1 0x2 ADD DUP2 SWAP1 SSTORE POP DUP1 DUP1 PUSH2 0xF8F SWAP1 PUSH2 0x266B JUMP JUMPDEST SWAP2 POP POP PUSH2 0xDD0 JUMP JUMPDEST POP DUP4 PUSH1 0x2 DUP2 SWAP1 SSTORE POP DUP1 PUSH1 0x5 DUP2 SWAP1 SSTORE POP POP POP POP POP POP POP JUMP JUMPDEST PUSH1 0x0 DUP1 PUSH1 0x0 SWAP1 SLOAD SWAP1 PUSH2 0x100 EXP SWAP1 DIV PUSH20 0xFFFFFFFFFFFFFFFFFFFFFFFFFFFFFFFFFFFFFFFF AND SWAP1 POP SWAP1 JUMP JUMPDEST PUSH2 0xFF6 CALLER PUSH20 0xFFFFFFFFFFFFFFFFFFFFFFFFFFFFFFFFFFFFFFFF AND PUSH2 0x185E JUMP JUMPDEST ISZERO PUSH2 0x1036 JUMPI PUSH1 0x40 MLOAD PUSH32 0x8C379A000000000000000000000000000000000000000000000000000000000 DUP2 MSTORE PUSH1 0x4 ADD PUSH2 0x102D SWAP1 PUSH2 0x2340 JUMP JUMPDEST PUSH1 0x40 MLOAD DUP1 SWAP2 SUB SWAP1 REVERT JUMPDEST ORIGIN PUSH20 0xFFFFFFFFFFFFFFFFFFFFFFFFFFFFFFFFFFFFFFFF AND CALLER PUSH20 0xFFFFFFFFFFFFFFFFFFFFFFFFFFFFFFFFFFFFFFFF AND EQ PUSH2 0x10A4 JUMPI PUSH1 0x40 MLOAD PUSH32 0x8C379A000000000000000000000000000000000000000000000000000000000 DUP2 MSTORE PUSH1 0x4 ADD PUSH2 0x109B SWAP1 PUSH2 0x23AC JUMP JUMPDEST PUSH1 0x40 MLOAD DUP1 SWAP2 SUB SWAP1 REVERT JUMPDEST PUSH1 0x2 PUSH1 0x1 SLOAD SUB PUSH2 0x10E9 JUMPI PUSH1 0x40 MLOAD PUSH32 0x8C379A000000000000000000000000000000000000000000000000000000000 DUP2 MSTORE PUSH1 0x4 ADD PUSH2 0x10E0 SWAP1 PUSH2 0x27AC JUMP JUMPDEST PUSH1 0x40 MLOAD DUP1 SWAP2 SUB SWAP1 REVERT JUMPDEST PUSH1 0x2 PUSH1 0x1 DUP2 SWAP1 SSTORE POP PUSH1 0x0 DUP4 DUP4 SWAP1 POP GT PUSH2 0x1137 JUMPI PUSH1 0x40 MLOAD PUSH32 0x8C379A000000000000000000000000000000000000000000000000000000000 DUP2 MSTORE PUSH1 0x4 ADD PUSH2 0x112E SWAP1 PUSH2 0x2418 JUMP JUMPDEST PUSH1 0x40 MLOAD DUP1 SWAP2 SUB SWAP1 REVERT JUMPDEST PUSH1 0x0 JUMPDEST DUP4 DUP4 SWAP1 POP DUP2 LT ISZERO PUSH2 0x1640 JUMPI PUSH1 0x0 PUSH1 0x3 PUSH1 0x0 DUP5 PUSH20 0xFFFFFFFFFFFFFFFFFFFFFFFFFFFFFFFFFFFFFFFF AND PUSH20 0xFFFFFFFFFFFFFFFFFFFFFFFFFFFFFFFFFFFFFFFF AND DUP2 MSTORE PUSH1 0x20 ADD SWAP1 DUP2 MSTORE PUSH1 0x20 ADD PUSH1 0x0 KECCAK256 PUSH1 0x0 DUP7 DUP7 DUP6 DUP2 DUP2 LT PUSH2 0x119B JUMPI PUSH2 0x119A PUSH2 0x2438 JUMP JUMPDEST JUMPDEST SWAP1 POP PUSH1 0x20 MUL ADD CALLDATALOAD DUP2 MSTORE PUSH1 0x20 ADD SWAP1 DUP2 MSTORE PUSH1 0x20 ADD PUSH1 0x0 KECCAK256 PUSH1 0x40 MLOAD DUP1 PUSH1 0xA0 ADD PUSH1 0x40 MSTORE SWAP1 DUP2 PUSH1 0x0 DUP3 ADD PUSH1 0x0 SWAP1 SLOAD SWAP1 PUSH2 0x100 EXP SWAP1 DIV PUSH20 0xFFFFFFFFFFFFFFFFFFFFFFFFFFFFFFFFFFFFFFFF AND PUSH20 0xFFFFFFFFFFFFFFFFFFFFFFFFFFFFFFFFFFFFFFFF AND PUSH20 0xFFFFFFFFFFFFFFFFFFFFFFFFFFFFFFFFFFFFFFFF AND DUP2 MSTORE PUSH1 0x20 ADD PUSH1 0x1 DUP3 ADD SLOAD DUP2 MSTORE PUSH1 0x20 ADD PUSH1 0x2 DUP3 ADD SLOAD DUP2 MSTORE PUSH1 0x20 ADD PUSH1 0x3 DUP3 ADD PUSH1 0x0 SWAP1 SLOAD SWAP1 PUSH2 0x100 EXP SWAP1 DIV PUSH1 0xFF AND ISZERO ISZERO ISZERO ISZERO DUP2 MSTORE PUSH1 0x20 ADD PUSH1 0x3 DUP3 ADD PUSH1 0x1 SWAP1 SLOAD SWAP1 PUSH2 0x100 EXP SWAP1 DIV PUSH20 0xFFFFFFFFFFFFFFFFFFFFFFFFFFFFFFFFFFFFFFFF AND PUSH20 0xFFFFFFFFFFFFFFFFFFFFFFFFFFFFFFFFFFFFFFFF AND PUSH20 0xFFFFFFFFFFFFFFFFFFFFFFFFFFFFFFFFFFFFFFFF AND DUP2 MSTORE POP POP SWAP1 POP CALLER PUSH20 0xFFFFFFFFFFFFFFFFFFFFFFFFFFFFFFFFFFFFFFFF AND DUP2 PUSH1 0x0 ADD MLOAD PUSH20 0xFFFFFFFFFFFFFFFFFFFFFFFFFFFFFFFFFFFFFFFF AND EQ PUSH2 0x130A JUMPI PUSH1 0x40 MLOAD PUSH32 0x8C379A000000000000000000000000000000000000000000000000000000000 DUP2 MSTORE PUSH1 0x4 ADD PUSH2 0x1301 SWAP1 PUSH2 0x24B3 JUMP JUMPDEST PUSH1 0x40 MLOAD DUP1 SWAP2 SUB SWAP1 REVERT JUMPDEST TIMESTAMP PUSH1 0x2 SLOAD DUP3 PUSH1 0x20 ADD MLOAD PUSH2 0x131D SWAP2 SWAP1 PUSH2 0x2502 JUMP JUMPDEST LT PUSH2 0x135D JUMPI PUSH1 0x40 MLOAD PUSH32 0x8C379A000000000000000000000000000000000000000000000000000000000 DUP2 MSTORE PUSH1 0x4 ADD PUSH2 0x1354 SWAP1 PUSH2 0x29F9 JUMP JUMPDEST PUSH1 0x40 MLOAD DUP1 SWAP2 SUB SWAP1 REVERT JUMPDEST DUP1 PUSH1 0x60 ADD MLOAD ISZERO PUSH2 0x13A2 JUMPI PUSH1 0x40 MLOAD PUSH32 0x8C379A000000000000000000000000000000000000000000000000000000000 DUP2 MSTORE PUSH1 0x4 ADD PUSH2 0x1399 SWAP1 PUSH2 0x25EE JUMP JUMPDEST PUSH1 0x40 MLOAD DUP1 SWAP2 SUB SWAP1 REVERT JUMPDEST DUP3 PUSH20 0xFFFFFFFFFFFFFFFFFFFFFFFFFFFFFFFFFFFFFFFF AND PUSH4 0x23B872DD ADDRESS CALLER DUP9 DUP9 DUP8 DUP2 DUP2 LT PUSH2 0x13D3 JUMPI PUSH2 0x13D2 PUSH2 0x2438 JUMP JUMPDEST JUMPDEST SWAP1 POP PUSH1 0x20 MUL ADD CALLDATALOAD PUSH1 0x40 MLOAD DUP5 PUSH4 0xFFFFFFFF AND PUSH1 0xE0 SHL DUP2 MSTORE PUSH1 0x4 ADD PUSH2 0x13F8 SWAP4 SWAP3 SWAP2 SWAP1 PUSH2 0x287A JUMP JUMPDEST PUSH1 0x0 PUSH1 0x40 MLOAD DUP1 DUP4 SUB DUP2 PUSH1 0x0 DUP8 DUP1 EXTCODESIZE ISZERO DUP1 ISZERO PUSH2 0x1412 JUMPI PUSH1 0x0 DUP1 REVERT JUMPDEST POP GAS CALL ISZERO DUP1 ISZERO PUSH2 0x1426 JUMPI RETURNDATASIZE PUSH1 0x0 DUP1 RETURNDATACOPY RETURNDATASIZE PUSH1 0x0 REVERT JUMPDEST POP POP POP POP PUSH1 0x0 PUSH2 0x144F DUP7 DUP7 DUP6 DUP2 DUP2 LT PUSH2 0x1442 JUMPI PUSH2 0x1441 PUSH2 0x2438 JUMP JUMPDEST JUMPDEST SWAP1 POP PUSH1 0x20 MUL ADD CALLDATALOAD DUP6 PUSH2 0x1881 JUMP JUMPDEST SWAP1 POP PUSH1 0x0 DUP3 PUSH1 0x40 ADD MLOAD DUP3 PUSH2 0x1463 SWAP2 SWAP1 PUSH2 0x260E JUMP JUMPDEST SWAP1 POP PUSH1 0x4 PUSH1 0x0 DUP7 PUSH20 0xFFFFFFFFFFFFFFFFFFFFFFFFFFFFFFFFFFFFFFFF AND PUSH20 0xFFFFFFFFFFFFFFFFFFFFFFFFFFFFFFFFFFFFFFFF AND DUP2 MSTORE PUSH1 0x20 ADD SWAP1 DUP2 MSTORE PUSH1 0x20 ADD PUSH1 0x0 KECCAK256 PUSH1 0x0 ADD PUSH1 0x0 SWAP1 SLOAD SWAP1 PUSH2 0x100 EXP SWAP1 DIV PUSH20 0xFFFFFFFFFFFFFFFFFFFFFFFFFFFFFFFFFFFFFFFF AND PUSH20 0xFFFFFFFFFFFFFFFFFFFFFFFFFFFFFFFFFFFFFFFF AND PUSH4 0x40C10F19 CALLER DUP4 PUSH1 0x40 MLOAD DUP4 PUSH4 0xFFFFFFFF AND PUSH1 0xE0 SHL DUP2 MSTORE PUSH1 0x4 ADD PUSH2 0x1502 SWAP3 SWAP2 SWAP1 PUSH2 0x2642 JUMP JUMPDEST PUSH1 0x0 PUSH1 0x40 MLOAD DUP1 DUP4 SUB DUP2 PUSH1 0x0 DUP8 DUP1 EXTCODESIZE ISZERO DUP1 ISZERO PUSH2 0x151C JUMPI PUSH1 0x0 DUP1 REVERT JUMPDEST POP GAS CALL ISZERO DUP1 ISZERO PUSH2 0x1530 JUMPI RETURNDATASIZE PUSH1 0x0 DUP1 RETURNDATACOPY RETURNDATASIZE PUSH1 0x0 REVERT JUMPDEST POP POP POP POP DUP2 PUSH1 0x3 PUSH1 0x0 DUP8 PUSH20 0xFFFFFFFFFFFFFFFFFFFFFFFFFFFFFFFFFFFFFFFF AND PUSH20 0xFFFFFFFFFFFFFFFFFFFFFFFFFFFFFFFFFFFFFFFF AND DUP2 MSTORE PUSH1 0x20 ADD SWAP1 DUP2 MSTORE PUSH1 0x20 ADD PUSH1 0x0 KECCAK256 PUSH1 0x0 DUP10 DUP10 DUP9 DUP2 DUP2 LT PUSH2 0x1589 JUMPI PUSH2 0x1588 PUSH2 0x2438 JUMP JUMPDEST JUMPDEST SWAP1 POP PUSH1 0x20 MUL ADD CALLDATALOAD DUP2 MSTORE PUSH1 0x20 ADD SWAP1 DUP2 MSTORE PUSH1 0x20 ADD PUSH1 0x0 KECCAK256 PUSH1 0x2 ADD DUP2 SWAP1 SSTORE POP PUSH1 0x1 PUSH1 0x3 PUSH1 0x0 DUP8 PUSH20 0xFFFFFFFFFFFFFFFFFFFFFFFFFFFFFFFFFFFFFFFF AND PUSH20 0xFFFFFFFFFFFFFFFFFFFFFFFFFFFFFFFFFFFFFFFF AND DUP2 MSTORE PUSH1 0x20 ADD SWAP1 DUP2 MSTORE PUSH1 0x20 ADD PUSH1 0x0 KECCAK256 PUSH1 0x0 DUP10 DUP10 DUP9 DUP2 DUP2 LT PUSH2 0x15FB JUMPI PUSH2 0x15FA PUSH2 0x2438 JUMP JUMPDEST JUMPDEST SWAP1 POP PUSH1 0x20 MUL ADD CALLDATALOAD DUP2 MSTORE PUSH1 0x20 ADD SWAP1 DUP2 MSTORE PUSH1 0x20 ADD PUSH1 0x0 KECCAK256 PUSH1 0x3 ADD PUSH1 0x0 PUSH2 0x100 EXP DUP2 SLOAD DUP2 PUSH1 0xFF MUL NOT AND SWAP1 DUP4 ISZERO ISZERO MUL OR SWAP1 SSTORE POP POP POP POP DUP1 DUP1 PUSH2 0x1638 SWAP1 PUSH2 0x266B JUMP JUMPDEST SWAP2 POP POP PUSH2 0x113A JUMP JUMPDEST POP CALLER PUSH20 0xFFFFFFFFFFFFFFFFFFFFFFFFFFFFFFFFFFFFFFFF AND PUSH32 0x5CB48022479B9AC3BFB10A27965DC010ACFFC9FC1BC9A52F0B18975B944B54CA DUP5 DUP5 PUSH1 0x40 MLOAD PUSH2 0x1689 SWAP3 SWAP2 SWAP1 PUSH2 0x28B1 JUMP JUMPDEST PUSH1 0x40 MLOAD DUP1 SWAP2 SUB SWAP1 LOG2 PUSH1 0x1 DUP1 DUP2 SWAP1 SSTORE POP POP POP POP JUMP JUMPDEST PUSH1 0x3 PUSH1 0x20 MSTORE DUP2 PUSH1 0x0 MSTORE PUSH1 0x40 PUSH1 0x0 KECCAK256 PUSH1 0x20 MSTORE DUP1 PUSH1 0x0 MSTORE PUSH1 0x40 PUSH1 0x0 KECCAK256 PUSH1 0x0 SWAP2 POP SWAP2 POP POP DUP1 PUSH1 0x0 ADD PUSH1 0x0 SWAP1 SLOAD SWAP1 PUSH2 0x100 EXP SWAP1 DIV PUSH20 0xFFFFFFFFFFFFFFFFFFFFFFFFFFFFFFFFFFFFFFFF AND SWAP1 DUP1 PUSH1 0x1 ADD SLOAD SWAP1 DUP1 PUSH1 0x2 ADD SLOAD SWAP1 DUP1 PUSH1 0x3 ADD PUSH1 0x0 SWAP1 SLOAD SWAP1 PUSH2 0x100 EXP SWAP1 DIV PUSH1 0xFF AND SWAP1 DUP1 PUSH1 0x3 ADD PUSH1 0x1 SWAP1 SLOAD SWAP1 PUSH2 0x100 EXP SWAP1 DIV PUSH20 0xFFFFFFFFFFFFFFFFFFFFFFFFFFFFFFFFFFFFFFFF AND SWAP1 POP DUP6 JUMP JUMPDEST PUSH1 0x0 PUSH1 0x3 PUSH1 0x0 DUP4 PUSH20 0xFFFFFFFFFFFFFFFFFFFFFFFFFFFFFFFFFFFFFFFF AND PUSH20 0xFFFFFFFFFFFFFFFFFFFFFFFFFFFFFFFFFFFFFFFF AND DUP2 MSTORE PUSH1 0x20 ADD SWAP1 DUP2 MSTORE PUSH1 0x20 ADD PUSH1 0x0 KECCAK256 PUSH1 0x0 DUP5 DUP2 MSTORE PUSH1 0x20 ADD SWAP1 DUP2 MSTORE PUSH1 0x20 ADD PUSH1 0x0 KECCAK256 PUSH1 0x2 ADD SLOAD SWAP1 POP SWAP3 SWAP2 POP POP JUMP JUMPDEST PUSH1 0x5 SLOAD DUP2 JUMP JUMPDEST PUSH1 0x4 PUSH1 0x20 MSTORE DUP1 PUSH1 0x0 MSTORE PUSH1 0x40 PUSH1 0x0 KECCAK256 PUSH1 0x0 SWAP2 POP SWAP1 POP DUP1 PUSH1 0x0 ADD PUSH1 0x0 SWAP1 SLOAD SWAP1 PUSH2 0x100 EXP SWAP1 DIV PUSH20 0xFFFFFFFFFFFFFFFFFFFFFFFFFFFFFFFFFFFFFFFF AND SWAP1 DUP1 PUSH1 0x1 ADD SLOAD SWAP1 DUP1 PUSH1 0x2 ADD SLOAD SWAP1 POP DUP4 JUMP JUMPDEST PUSH2 0x17E3 PUSH2 0x1A5F JUMP JUMPDEST PUSH1 0x0 PUSH20 0xFFFFFFFFFFFFFFFFFFFFFFFFFFFFFFFFFFFFFFFF AND DUP2 PUSH20 0xFFFFFFFFFFFFFFFFFFFFFFFFFFFFFFFFFFFFFFFF AND SUB PUSH2 0x1852 JUMPI PUSH1 0x40 MLOAD PUSH32 0x8C379A000000000000000000000000000000000000000000000000000000000 DUP2 MSTORE PUSH1 0x4 ADD PUSH2 0x1849 SWAP1 PUSH2 0x2A8B JUMP JUMPDEST PUSH1 0x40 MLOAD DUP1 SWAP2 SUB SWAP1 REVERT JUMPDEST PUSH2 0x185B DUP2 PUSH2 0x1ADD JUMP JUMPDEST POP JUMP JUMPDEST PUSH1 0x0 DUP1 DUP3 PUSH20 0xFFFFFFFFFFFFFFFFFFFFFFFFFFFFFFFFFFFFFFFF AND EXTCODESIZE GT SWAP1 POP SWAP2 SWAP1 POP JUMP JUMPDEST PUSH1 0x0 DUP1 PUSH1 0x3 PUSH1 0x0 DUP5 PUSH20 0xFFFFFFFFFFFFFFFFFFFFFFFFFFFFFFFFFFFFFFFF AND PUSH20 0xFFFFFFFFFFFFFFFFFFFFFFFFFFFFFFFFFFFFFFFF AND DUP2 MSTORE PUSH1 0x20 ADD SWAP1 DUP2 MSTORE PUSH1 0x20 ADD PUSH1 0x0 KECCAK256 PUSH1 0x0 DUP6 DUP2 MSTORE PUSH1 0x20 ADD SWAP1 DUP2 MSTORE PUSH1 0x20 ADD PUSH1 0x0 KECCAK256 PUSH1 0x40 MLOAD DUP1 PUSH1 0xA0 ADD PUSH1 0x40 MSTORE SWAP1 DUP2 PUSH1 0x0 DUP3 ADD PUSH1 0x0 SWAP1 SLOAD SWAP1 PUSH2 0x100 EXP SWAP1 DIV PUSH20 0xFFFFFFFFFFFFFFFFFFFFFFFFFFFFFFFFFFFFFFFF AND PUSH20 0xFFFFFFFFFFFFFFFFFFFFFFFFFFFFFFFFFFFFFFFF AND PUSH20 0xFFFFFFFFFFFFFFFFFFFFFFFFFFFFFFFFFFFFFFFF AND DUP2 MSTORE PUSH1 0x20 ADD PUSH1 0x1 DUP3 ADD SLOAD DUP2 MSTORE PUSH1 0x20 ADD PUSH1 0x2 DUP3 ADD SLOAD DUP2 MSTORE PUSH1 0x20 ADD PUSH1 0x3 DUP3 ADD PUSH1 0x0 SWAP1 SLOAD SWAP1 PUSH2 0x100 EXP SWAP1 DIV PUSH1 0xFF AND ISZERO ISZERO ISZERO ISZERO DUP2 MSTORE PUSH1 0x20 ADD PUSH1 0x3 DUP3 ADD PUSH1 0x1 SWAP1 SLOAD SWAP1 PUSH2 0x100 EXP SWAP1 DIV PUSH20 0xFFFFFFFFFFFFFFFFFFFFFFFFFFFFFFFFFFFFFFFF AND PUSH20 0xFFFFFFFFFFFFFFFFFFFFFFFFFFFFFFFFFFFFFFFF AND PUSH20 0xFFFFFFFFFFFFFFFFFFFFFFFFFFFFFFFFFFFFFFFF AND DUP2 MSTORE POP POP SWAP1 POP PUSH1 0x0 DUP2 PUSH1 0x20 ADD MLOAD TIMESTAMP PUSH2 0x19CE SWAP2 SWAP1 PUSH2 0x260E JUMP JUMPDEST SWAP1 POP PUSH1 0x0 PUSH1 0x2 SLOAD DUP3 LT ISZERO PUSH2 0x19E8 JUMPI PUSH1 0x0 SWAP4 POP POP POP POP PUSH2 0x1A59 JUMP JUMPDEST PUSH1 0x5 SLOAD PUSH1 0x2 SLOAD DUP4 PUSH2 0x19F9 SWAP2 SWAP1 PUSH2 0x260E JUMP JUMPDEST PUSH1 0x4 PUSH1 0x0 DUP9 PUSH20 0xFFFFFFFFFFFFFFFFFFFFFFFFFFFFFFFFFFFFFFFF AND PUSH20 0xFFFFFFFFFFFFFFFFFFFFFFFFFFFFFFFFFFFFFFFF AND DUP2 MSTORE PUSH1 0x20 ADD SWAP1 DUP2 MSTORE PUSH1 0x20 ADD PUSH1 0x0 KECCAK256 PUSH1 0x1 ADD SLOAD PUSH2 0x1A46 SWAP2 SWAP1 PUSH2 0x2AAB JUMP JUMPDEST PUSH2 0x1A50 SWAP2 SWAP1 PUSH2 0x2B34 JUMP JUMPDEST SWAP1 POP DUP1 SWAP4 POP POP POP POP JUMPDEST SWAP3 SWAP2 POP POP JUMP JUMPDEST PUSH2 0x1A67 PUSH2 0x1BA1 JUMP JUMPDEST PUSH20 0xFFFFFFFFFFFFFFFFFFFFFFFFFFFFFFFFFFFFFFFF AND PUSH2 0x1A85 PUSH2 0xFAE JUMP JUMPDEST PUSH20 0xFFFFFFFFFFFFFFFFFFFFFFFFFFFFFFFFFFFFFFFF AND EQ PUSH2 0x1ADB JUMPI PUSH1 0x40 MLOAD PUSH32 0x8C379A000000000000000000000000000000000000000000000000000000000 DUP2 MSTORE PUSH1 0x4 ADD PUSH2 0x1AD2 SWAP1 PUSH2 0x2BB1 JUMP JUMPDEST PUSH1 0x40 MLOAD DUP1 SWAP2 SUB SWAP1 REVERT JUMPDEST JUMP JUMPDEST PUSH1 0x0 DUP1 PUSH1 0x0 SWAP1 SLOAD SWAP1 PUSH2 0x100 EXP SWAP1 DIV PUSH20 0xFFFFFFFFFFFFFFFFFFFFFFFFFFFFFFFFFFFFFFFF AND SWAP1 POP DUP2 PUSH1 0x0 DUP1 PUSH2 0x100 EXP DUP2 SLOAD DUP2 PUSH20 0xFFFFFFFFFFFFFFFFFFFFFFFFFFFFFFFFFFFFFFFF MUL NOT AND SWAP1 DUP4 PUSH20 0xFFFFFFFFFFFFFFFFFFFFFFFFFFFFFFFFFFFFFFFF AND MUL OR SWAP1 SSTORE POP DUP2 PUSH20 0xFFFFFFFFFFFFFFFFFFFFFFFFFFFFFFFFFFFFFFFF AND DUP2 PUSH20 0xFFFFFFFFFFFFFFFFFFFFFFFFFFFFFFFFFFFFFFFF AND PUSH32 0x8BE0079C531659141344CD1FD0A4F28419497F9722A3DAAFE3B4186F6B6457E0 PUSH1 0x40 MLOAD PUSH1 0x40 MLOAD DUP1 SWAP2 SUB SWAP1 LOG3 POP POP JUMP JUMPDEST PUSH1 0x0 CALLER SWAP1 POP SWAP1 JUMP JUMPDEST PUSH1 0x0 PUSH1 0x40 MLOAD SWAP1 POP SWAP1 JUMP JUMPDEST PUSH1 0x0 DUP1 REVERT JUMPDEST PUSH1 0x0 DUP1 REVERT JUMPDEST PUSH1 0x0 DUP1 REVERT JUMPDEST PUSH1 0x0 DUP1 REVERT JUMPDEST PUSH1 0x0 DUP1 REVERT JUMPDEST PUSH1 0x0 DUP1 DUP4 PUSH1 0x1F DUP5 ADD SLT PUSH2 0x1BE2 JUMPI PUSH2 0x1BE1 PUSH2 0x1BBD JUMP JUMPDEST JUMPDEST DUP3 CALLDATALOAD SWAP1 POP PUSH8 0xFFFFFFFFFFFFFFFF DUP2 GT ISZERO PUSH2 0x1BFF JUMPI PUSH2 0x1BFE PUSH2 0x1BC2 JUMP JUMPDEST JUMPDEST PUSH1 0x20 DUP4 ADD SWAP2 POP DUP4 PUSH1 0x20 DUP3 MUL DUP4 ADD GT ISZERO PUSH2 0x1C1B JUMPI PUSH2 0x1C1A PUSH2 0x1BC7 JUMP JUMPDEST JUMPDEST SWAP3 POP SWAP3 SWAP1 POP JUMP JUMPDEST PUSH1 0x0 PUSH20 0xFFFFFFFFFFFFFFFFFFFFFFFFFFFFFFFFFFFFFFFF DUP3 AND SWAP1 POP SWAP2 SWAP1 POP JUMP JUMPDEST PUSH1 0x0 PUSH2 0x1C4D DUP3 PUSH2 0x1C22 JUMP JUMPDEST SWAP1 POP SWAP2 SWAP1 POP JUMP JUMPDEST PUSH1 0x0 PUSH2 0x1C5F DUP3 PUSH2 0x1C42 JUMP JUMPDEST SWAP1 POP SWAP2 SWAP1 POP JUMP JUMPDEST PUSH2 0x1C6F DUP2 PUSH2 0x1C54 JUMP JUMPDEST DUP2 EQ PUSH2 0x1C7A JUMPI PUSH1 0x0 DUP1 REVERT JUMPDEST POP JUMP JUMPDEST PUSH1 0x0 DUP2 CALLDATALOAD SWAP1 POP PUSH2 0x1C8C DUP2 PUSH2 0x1C66 JUMP JUMPDEST SWAP3 SWAP2 POP POP JUMP JUMPDEST PUSH1 0x0 DUP1 PUSH1 0x0 PUSH1 0x40 DUP5 DUP7 SUB SLT ISZERO PUSH2 0x1CAB JUMPI PUSH2 0x1CAA PUSH2 0x1BB3 JUMP JUMPDEST JUMPDEST PUSH1 0x0 DUP5 ADD CALLDATALOAD PUSH8 0xFFFFFFFFFFFFFFFF DUP2 GT ISZERO PUSH2 0x1CC9 JUMPI PUSH2 0x1CC8 PUSH2 0x1BB8 JUMP JUMPDEST JUMPDEST PUSH2 0x1CD5 DUP7 DUP3 DUP8 ADD PUSH2 0x1BCC JUMP JUMPDEST SWAP4 POP SWAP4 POP POP PUSH1 0x20 PUSH2 0x1CE8 DUP7 DUP3 DUP8 ADD PUSH2 0x1C7D JUMP JUMPDEST SWAP2 POP POP SWAP3 POP SWAP3 POP SWAP3 JUMP JUMPDEST PUSH1 0x0 DUP2 SWAP1 POP SWAP2 SWAP1 POP JUMP JUMPDEST PUSH2 0x1D05 DUP2 PUSH2 0x1CF2 JUMP JUMPDEST DUP3 MSTORE POP POP JUMP JUMPDEST PUSH1 0x0 PUSH1 0x20 DUP3 ADD SWAP1 POP PUSH2 0x1D20 PUSH1 0x0 DUP4 ADD DUP5 PUSH2 0x1CFC JUMP JUMPDEST SWAP3 SWAP2 POP POP JUMP JUMPDEST PUSH2 0x1D2F DUP2 PUSH2 0x1CF2 JUMP JUMPDEST DUP2 EQ PUSH2 0x1D3A JUMPI PUSH1 0x0 DUP1 REVERT JUMPDEST POP JUMP JUMPDEST PUSH1 0x0 DUP2 CALLDATALOAD SWAP1 POP PUSH2 0x1D4C DUP2 PUSH2 0x1D26 JUMP JUMPDEST SWAP3 SWAP2 POP POP JUMP JUMPDEST PUSH1 0x0 PUSH1 0x20 DUP3 DUP5 SUB SLT ISZERO PUSH2 0x1D68 JUMPI PUSH2 0x1D67 PUSH2 0x1BB3 JUMP JUMPDEST JUMPDEST PUSH1 0x0 PUSH2 0x1D76 DUP5 DUP3 DUP6 ADD PUSH2 0x1D3D JUMP JUMPDEST SWAP2 POP POP SWAP3 SWAP2 POP POP JUMP JUMPDEST PUSH1 0x0 PUSH1 0x1F NOT PUSH1 0x1F DUP4 ADD AND SWAP1 POP SWAP2 SWAP1 POP JUMP JUMPDEST PUSH32 0x4E487B7100000000000000000000000000000000000000000000000000000000 PUSH1 0x0 MSTORE PUSH1 0x41 PUSH1 0x4 MSTORE PUSH1 0x24 PUSH1 0x0 REVERT JUMPDEST PUSH2 0x1DC8 DUP3 PUSH2 0x1D7F JUMP JUMPDEST DUP2 ADD DUP2 DUP2 LT PUSH8 0xFFFFFFFFFFFFFFFF DUP3 GT OR ISZERO PUSH2 0x1DE7 JUMPI PUSH2 0x1DE6 PUSH2 0x1D90 JUMP JUMPDEST JUMPDEST DUP1 PUSH1 0x40 MSTORE POP POP POP JUMP JUMPDEST PUSH1 0x0 PUSH2 0x1DFA PUSH2 0x1BA9 JUMP JUMPDEST SWAP1 POP PUSH2 0x1E06 DUP3 DUP3 PUSH2 0x1DBF JUMP JUMPDEST SWAP2 SWAP1 POP JUMP JUMPDEST PUSH1 0x0 PUSH8 0xFFFFFFFFFFFFFFFF DUP3 GT ISZERO PUSH2 0x1E26 JUMPI PUSH2 0x1E25 PUSH2 0x1D90 JUMP JUMPDEST JUMPDEST PUSH1 0x20 DUP3 MUL SWAP1 POP PUSH1 0x20 DUP2 ADD SWAP1 POP SWAP2 SWAP1 POP JUMP JUMPDEST PUSH2 0x1E40 DUP2 PUSH2 0x1C42 JUMP JUMPDEST DUP2 EQ PUSH2 0x1E4B JUMPI PUSH1 0x0 DUP1 REVERT JUMPDEST POP JUMP JUMPDEST PUSH1 0x0 DUP2 CALLDATALOAD SWAP1 POP PUSH2 0x1E5D DUP2 PUSH2 0x1E37 JUMP JUMPDEST SWAP3 SWAP2 POP POP JUMP JUMPDEST PUSH1 0x0 PUSH2 0x1E76 PUSH2 0x1E71 DUP5 PUSH2 0x1E0B JUMP JUMPDEST PUSH2 0x1DF0 JUMP JUMPDEST SWAP1 POP DUP1 DUP4 DUP3 MSTORE PUSH1 0x20 DUP3 ADD SWAP1 POP PUSH1 0x20 DUP5 MUL DUP4 ADD DUP6 DUP2 GT ISZERO PUSH2 0x1E99 JUMPI PUSH2 0x1E98 PUSH2 0x1BC7 JUMP JUMPDEST JUMPDEST DUP4 JUMPDEST DUP2 DUP2 LT ISZERO PUSH2 0x1EC2 JUMPI DUP1 PUSH2 0x1EAE DUP9 DUP3 PUSH2 0x1E4E JUMP JUMPDEST DUP5 MSTORE PUSH1 0x20 DUP5 ADD SWAP4 POP POP PUSH1 0x20 DUP2 ADD SWAP1 POP PUSH2 0x1E9B JUMP JUMPDEST POP POP POP SWAP4 SWAP3 POP POP POP JUMP JUMPDEST PUSH1 0x0 DUP3 PUSH1 0x1F DUP4 ADD SLT PUSH2 0x1EE1 JUMPI PUSH2 0x1EE0 PUSH2 0x1BBD JUMP JUMPDEST JUMPDEST DUP2 CALLDATALOAD PUSH2 0x1EF1 DUP5 DUP3 PUSH1 0x20 DUP7 ADD PUSH2 0x1E63 JUMP JUMPDEST SWAP2 POP POP SWAP3 SWAP2 POP POP JUMP JUMPDEST PUSH1 0x0 PUSH8 0xFFFFFFFFFFFFFFFF DUP3 GT ISZERO PUSH2 0x1F15 JUMPI PUSH2 0x1F14 PUSH2 0x1D90 JUMP JUMPDEST JUMPDEST PUSH1 0x20 DUP3 MUL SWAP1 POP PUSH1 0x20 DUP2 ADD SWAP1 POP SWAP2 SWAP1 POP JUMP JUMPDEST PUSH1 0x0 PUSH2 0x1F39 PUSH2 0x1F34 DUP5 PUSH2 0x1EFA JUMP JUMPDEST PUSH2 0x1DF0 JUMP JUMPDEST SWAP1 POP DUP1 DUP4 DUP3 MSTORE PUSH1 0x20 DUP3 ADD SWAP1 POP PUSH1 0x20 DUP5 MUL DUP4 ADD DUP6 DUP2 GT ISZERO PUSH2 0x1F5C JUMPI PUSH2 0x1F5B PUSH2 0x1BC7 JUMP JUMPDEST JUMPDEST DUP4 JUMPDEST DUP2 DUP2 LT ISZERO PUSH2 0x1F85 JUMPI DUP1 PUSH2 0x1F71 DUP9 DUP3 PUSH2 0x1D3D JUMP JUMPDEST DUP5 MSTORE PUSH1 0x20 DUP5 ADD SWAP4 POP POP PUSH1 0x20 DUP2 ADD SWAP1 POP PUSH2 0x1F5E JUMP JUMPDEST POP POP POP SWAP4 SWAP3 POP POP POP JUMP JUMPDEST PUSH1 0x0 DUP3 PUSH1 0x1F DUP4 ADD SLT PUSH2 0x1FA4 JUMPI PUSH2 0x1FA3 PUSH2 0x1BBD JUMP JUMPDEST JUMPDEST DUP2 CALLDATALOAD PUSH2 0x1FB4 DUP5 DUP3 PUSH1 0x20 DUP7 ADD PUSH2 0x1F26 JUMP JUMPDEST SWAP2 POP POP SWAP3 SWAP2 POP POP JUMP JUMPDEST PUSH1 0x0 DUP1 PUSH1 0x0 DUP1 PUSH1 0x0 DUP1 PUSH1 0xC0 DUP8 DUP10 SUB SLT ISZERO PUSH2 0x1FDA JUMPI PUSH2 0x1FD9 PUSH2 0x1BB3 JUMP JUMPDEST JUMPDEST PUSH1 0x0 DUP8 ADD CALLDATALOAD PUSH8 0xFFFFFFFFFFFFFFFF DUP2 GT ISZERO PUSH2 0x1FF8 JUMPI PUSH2 0x1FF7 PUSH2 0x1BB8 JUMP JUMPDEST JUMPDEST PUSH2 0x2004 DUP10 DUP3 DUP11 ADD PUSH2 0x1ECC JUMP JUMPDEST SWAP7 POP POP PUSH1 0x20 DUP8 ADD CALLDATALOAD PUSH8 0xFFFFFFFFFFFFFFFF DUP2 GT ISZERO PUSH2 0x2025 JUMPI PUSH2 0x2024 PUSH2 0x1BB8 JUMP JUMPDEST JUMPDEST PUSH2 0x2031 DUP10 DUP3 DUP11 ADD PUSH2 0x1ECC JUMP JUMPDEST SWAP6 POP POP PUSH1 0x40 PUSH2 0x2042 DUP10 DUP3 DUP11 ADD PUSH2 0x1D3D JUMP JUMPDEST SWAP5 POP POP PUSH1 0x60 DUP8 ADD CALLDATALOAD PUSH8 0xFFFFFFFFFFFFFFFF DUP2 GT ISZERO PUSH2 0x2063 JUMPI PUSH2 0x2062 PUSH2 0x1BB8 JUMP JUMPDEST JUMPDEST PUSH2 0x206F DUP10 DUP3 DUP11 ADD PUSH2 0x1F8F JUMP JUMPDEST SWAP4 POP POP PUSH1 0x80 DUP8 ADD CALLDATALOAD PUSH8 0xFFFFFFFFFFFFFFFF DUP2 GT ISZERO PUSH2 0x2090 JUMPI PUSH2 0x208F PUSH2 0x1BB8 JUMP JUMPDEST JUMPDEST PUSH2 0x209C DUP10 DUP3 DUP11 ADD PUSH2 0x1F8F JUMP JUMPDEST SWAP3 POP POP PUSH1 0xA0 PUSH2 0x20AD DUP10 DUP3 DUP11 ADD PUSH2 0x1D3D JUMP JUMPDEST SWAP2 POP POP SWAP3 SWAP6 POP SWAP3 SWAP6 POP SWAP3 SWAP6 JUMP JUMPDEST PUSH2 0x20C3 DUP2 PUSH2 0x1C42 JUMP JUMPDEST DUP3 MSTORE POP POP JUMP JUMPDEST PUSH1 0x0 PUSH1 0x20 DUP3 ADD SWAP1 POP PUSH2 0x20DE PUSH1 0x0 DUP4 ADD DUP5 PUSH2 0x20BA JUMP JUMPDEST SWAP3 SWAP2 POP POP JUMP JUMPDEST PUSH1 0x0 DUP1 PUSH1 0x40 DUP4 DUP6 SUB SLT ISZERO PUSH2 0x20FB JUMPI PUSH2 0x20FA PUSH2 0x1BB3 JUMP JUMPDEST JUMPDEST PUSH1 0x0 PUSH2 0x2109 DUP6 DUP3 DUP7 ADD PUSH2 0x1C7D JUMP JUMPDEST SWAP3 POP POP PUSH1 0x20 PUSH2 0x211A DUP6 DUP3 DUP7 ADD PUSH2 0x1D3D JUMP JUMPDEST SWAP2 POP POP SWAP3 POP SWAP3 SWAP1 POP JUMP JUMPDEST PUSH1 0x0 DUP2 ISZERO ISZERO SWAP1 POP SWAP2 SWAP1 POP JUMP JUMPDEST PUSH2 0x2139 DUP2 PUSH2 0x2124 JUMP JUMPDEST DUP3 MSTORE POP POP JUMP JUMPDEST PUSH1 0x0 DUP2 SWAP1 POP SWAP2 SWAP1 POP JUMP JUMPDEST PUSH1 0x0 PUSH2 0x2164 PUSH2 0x215F PUSH2 0x215A DUP5 PUSH2 0x1C22 JUMP JUMPDEST PUSH2 0x213F JUMP JUMPDEST PUSH2 0x1C22 JUMP JUMPDEST SWAP1 POP SWAP2 SWAP1 POP JUMP JUMPDEST PUSH1 0x0 PUSH2 0x2176 DUP3 PUSH2 0x2149 JUMP JUMPDEST SWAP1 POP SWAP2 SWAP1 POP JUMP JUMPDEST PUSH1 0x0 PUSH2 0x2188 DUP3 PUSH2 0x216B JUMP JUMPDEST SWAP1 POP SWAP2 SWAP1 POP JUMP JUMPDEST PUSH2 0x2198 DUP2 PUSH2 0x217D JUMP JUMPDEST DUP3 MSTORE POP POP JUMP JUMPDEST PUSH1 0x0 PUSH1 0xA0 DUP3 ADD SWAP1 POP PUSH2 0x21B3 PUSH1 0x0 DUP4 ADD DUP9 PUSH2 0x20BA JUMP JUMPDEST PUSH2 0x21C0 PUSH1 0x20 DUP4 ADD DUP8 PUSH2 0x1CFC JUMP JUMPDEST PUSH2 0x21CD PUSH1 0x40 DUP4 ADD DUP7 PUSH2 0x1CFC JUMP JUMPDEST PUSH2 0x21DA PUSH1 0x60 DUP4 ADD DUP6 PUSH2 0x2130 JUMP JUMPDEST PUSH2 0x21E7 PUSH1 0x80 DUP4 ADD DUP5 PUSH2 0x218F JUMP JUMPDEST SWAP7 SWAP6 POP POP POP POP POP POP JUMP JUMPDEST PUSH1 0x0 DUP1 PUSH1 0x40 DUP4 DUP6 SUB SLT ISZERO PUSH2 0x2208 JUMPI PUSH2 0x2207 PUSH2 0x1BB3 JUMP JUMPDEST JUMPDEST PUSH1 0x0 PUSH2 0x2216 DUP6 DUP3 DUP7 ADD PUSH2 0x1D3D JUMP JUMPDEST SWAP3 POP POP PUSH1 0x20 PUSH2 0x2227 DUP6 DUP3 DUP7 ADD PUSH2 0x1C7D JUMP JUMPDEST SWAP2 POP POP SWAP3 POP SWAP3 SWAP1 POP JUMP JUMPDEST PUSH1 0x0 PUSH1 0x20 DUP3 DUP5 SUB SLT ISZERO PUSH2 0x2247 JUMPI PUSH2 0x2246 PUSH2 0x1BB3 JUMP JUMPDEST JUMPDEST PUSH1 0x0 PUSH2 0x2255 DUP5 DUP3 DUP6 ADD PUSH2 0x1C7D JUMP JUMPDEST SWAP2 POP POP SWAP3 SWAP2 POP POP JUMP JUMPDEST PUSH1 0x0 PUSH2 0x2269 DUP3 PUSH2 0x216B JUMP JUMPDEST SWAP1 POP SWAP2 SWAP1 POP JUMP JUMPDEST PUSH2 0x2279 DUP2 PUSH2 0x225E JUMP JUMPDEST DUP3 MSTORE POP POP JUMP JUMPDEST PUSH1 0x0 PUSH1 0x60 DUP3 ADD SWAP1 POP PUSH2 0x2294 PUSH1 0x0 DUP4 ADD DUP7 PUSH2 0x2270 JUMP JUMPDEST PUSH2 0x22A1 PUSH1 0x20 DUP4 ADD DUP6 PUSH2 0x1CFC JUMP JUMPDEST PUSH2 0x22AE PUSH1 0x40 DUP4 ADD DUP5 PUSH2 0x1CFC JUMP JUMPDEST SWAP5 SWAP4 POP POP POP POP JUMP JUMPDEST PUSH1 0x0 PUSH1 0x20 DUP3 DUP5 SUB SLT ISZERO PUSH2 0x22CC JUMPI PUSH2 0x22CB PUSH2 0x1BB3 JUMP JUMPDEST JUMPDEST PUSH1 0x0 PUSH2 0x22DA DUP5 DUP3 DUP6 ADD PUSH2 0x1E4E JUMP JUMPDEST SWAP2 POP POP SWAP3 SWAP2 POP POP JUMP JUMPDEST PUSH1 0x0 DUP3 DUP3 MSTORE PUSH1 0x20 DUP3 ADD SWAP1 POP SWAP3 SWAP2 POP POP JUMP JUMPDEST PUSH32 0x436F6E7472616374206E6F7420616C6C6F776564000000000000000000000000 PUSH1 0x0 DUP3 ADD MSTORE POP JUMP JUMPDEST PUSH1 0x0 PUSH2 0x232A PUSH1 0x14 DUP4 PUSH2 0x22E3 JUMP JUMPDEST SWAP2 POP PUSH2 0x2335 DUP3 PUSH2 0x22F4 JUMP JUMPDEST PUSH1 0x20 DUP3 ADD SWAP1 POP SWAP2 SWAP1 POP JUMP JUMPDEST PUSH1 0x0 PUSH1 0x20 DUP3 ADD SWAP1 POP DUP2 DUP2 SUB PUSH1 0x0 DUP4 ADD MSTORE PUSH2 0x2359 DUP2 PUSH2 0x231D JUMP JUMPDEST SWAP1 POP SWAP2 SWAP1 POP JUMP JUMPDEST PUSH32 0x50726F787920636F6E7472616374206E6F7420616C6C6F776564000000000000 PUSH1 0x0 DUP3 ADD MSTORE POP JUMP JUMPDEST PUSH1 0x0 PUSH2 0x2396 PUSH1 0x1A DUP4 PUSH2 0x22E3 JUMP JUMPDEST SWAP2 POP PUSH2 0x23A1 DUP3 PUSH2 0x2360 JUMP JUMPDEST PUSH1 0x20 DUP3 ADD SWAP1 POP SWAP2 SWAP1 POP JUMP JUMPDEST PUSH1 0x0 PUSH1 0x20 DUP3 ADD SWAP1 POP DUP2 DUP2 SUB PUSH1 0x0 DUP4 ADD MSTORE PUSH2 0x23C5 DUP2 PUSH2 0x2389 JUMP JUMPDEST SWAP1 POP SWAP2 SWAP1 POP JUMP JUMPDEST PUSH32 0x4E6F20746F6B656E730000000000000000000000000000000000000000000000 PUSH1 0x0 DUP3 ADD MSTORE POP JUMP JUMPDEST PUSH1 0x0 PUSH2 0x2402 PUSH1 0x9 DUP4 PUSH2 0x22E3 JUMP JUMPDEST SWAP2 POP PUSH2 0x240D DUP3 PUSH2 0x23CC JUMP JUMPDEST PUSH1 0x20 DUP3 ADD SWAP1 POP SWAP2 SWAP1 POP JUMP JUMPDEST PUSH1 0x0 PUSH1 0x20 DUP3 ADD SWAP1 POP DUP2 DUP2 SUB PUSH1 0x0 DUP4 ADD MSTORE PUSH2 0x2431 DUP2 PUSH2 0x23F5 JUMP JUMPDEST SWAP1 POP SWAP2 SWAP1 POP JUMP JUMPDEST PUSH32 0x4E487B7100000000000000000000000000000000000000000000000000000000 PUSH1 0x0 MSTORE PUSH1 0x32 PUSH1 0x4 MSTORE PUSH1 0x24 PUSH1 0x0 REVERT JUMPDEST PUSH32 0x4E6F74206120746F6B656E206F776E6572000000000000000000000000000000 PUSH1 0x0 DUP3 ADD MSTORE POP JUMP JUMPDEST PUSH1 0x0 PUSH2 0x249D PUSH1 0x11 DUP4 PUSH2 0x22E3 JUMP JUMPDEST SWAP2 POP PUSH2 0x24A8 DUP3 PUSH2 0x2467 JUMP JUMPDEST PUSH1 0x20 DUP3 ADD SWAP1 POP SWAP2 SWAP1 POP JUMP JUMPDEST PUSH1 0x0 PUSH1 0x20 DUP3 ADD SWAP1 POP DUP2 DUP2 SUB PUSH1 0x0 DUP4 ADD MSTORE PUSH2 0x24CC DUP2 PUSH2 0x2490 JUMP JUMPDEST SWAP1 POP SWAP2 SWAP1 POP JUMP JUMPDEST PUSH32 0x4E487B7100000000000000000000000000000000000000000000000000000000 PUSH1 0x0 MSTORE PUSH1 0x11 PUSH1 0x4 MSTORE PUSH1 0x24 PUSH1 0x0 REVERT JUMPDEST PUSH1 0x0 PUSH2 0x250D DUP3 PUSH2 0x1CF2 JUMP JUMPDEST SWAP2 POP PUSH2 0x2518 DUP4 PUSH2 0x1CF2 JUMP JUMPDEST SWAP3 POP DUP3 DUP3 ADD SWAP1 POP DUP1 DUP3 GT ISZERO PUSH2 0x2530 JUMPI PUSH2 0x252F PUSH2 0x24D3 JUMP JUMPDEST JUMPDEST SWAP3 SWAP2 POP POP JUMP JUMPDEST PUSH32 0x4E6F742061626C6520746F20636C61696D207965740000000000000000000000 PUSH1 0x0 DUP3 ADD MSTORE POP JUMP JUMPDEST PUSH1 0x0 PUSH2 0x256C PUSH1 0x15 DUP4 PUSH2 0x22E3 JUMP JUMPDEST SWAP2 POP PUSH2 0x2577 DUP3 PUSH2 0x2536 JUMP JUMPDEST PUSH1 0x20 DUP3 ADD SWAP1 POP SWAP2 SWAP1 POP JUMP JUMPDEST PUSH1 0x0 PUSH1 0x20 DUP3 ADD SWAP1 POP DUP2 DUP2 SUB PUSH1 0x0 DUP4 ADD MSTORE PUSH2 0x259B DUP2 PUSH2 0x255F JUMP JUMPDEST SWAP1 POP SWAP2 SWAP1 POP JUMP JUMPDEST PUSH32 0x416C726561647920756E6C6F636B656400000000000000000000000000000000 PUSH1 0x0 DUP3 ADD MSTORE POP JUMP JUMPDEST PUSH1 0x0 PUSH2 0x25D8 PUSH1 0x10 DUP4 PUSH2 0x22E3 JUMP JUMPDEST SWAP2 POP PUSH2 0x25E3 DUP3 PUSH2 0x25A2 JUMP JUMPDEST PUSH1 0x20 DUP3 ADD SWAP1 POP SWAP2 SWAP1 POP JUMP JUMPDEST PUSH1 0x0 PUSH1 0x20 DUP3 ADD SWAP1 POP DUP2 DUP2 SUB PUSH1 0x0 DUP4 ADD MSTORE PUSH2 0x2607 DUP2 PUSH2 0x25CB JUMP JUMPDEST SWAP1 POP SWAP2 SWAP1 POP JUMP JUMPDEST PUSH1 0x0 PUSH2 0x2619 DUP3 PUSH2 0x1CF2 JUMP JUMPDEST SWAP2 POP PUSH2 0x2624 DUP4 PUSH2 0x1CF2 JUMP JUMPDEST SWAP3 POP DUP3 DUP3 SUB SWAP1 POP DUP2 DUP2 GT ISZERO PUSH2 0x263C JUMPI PUSH2 0x263B PUSH2 0x24D3 JUMP JUMPDEST JUMPDEST SWAP3 SWAP2 POP POP JUMP JUMPDEST PUSH1 0x0 PUSH1 0x40 DUP3 ADD SWAP1 POP PUSH2 0x2657 PUSH1 0x0 DUP4 ADD DUP6 PUSH2 0x20BA JUMP JUMPDEST PUSH2 0x2664 PUSH1 0x20 DUP4 ADD DUP5 PUSH2 0x1CFC JUMP JUMPDEST SWAP4 SWAP3 POP POP POP JUMP JUMPDEST PUSH1 0x0 PUSH2 0x2676 DUP3 PUSH2 0x1CF2 JUMP JUMPDEST SWAP2 POP PUSH32 0xFFFFFFFFFFFFFFFFFFFFFFFFFFFFFFFFFFFFFFFFFFFFFFFFFFFFFFFFFFFFFFFF DUP3 SUB PUSH2 0x26A8 JUMPI PUSH2 0x26A7 PUSH2 0x24D3 JUMP JUMPDEST JUMPDEST PUSH1 0x1 DUP3 ADD SWAP1 POP SWAP2 SWAP1 POP JUMP JUMPDEST PUSH1 0x0 DUP3 DUP3 MSTORE PUSH1 0x20 DUP3 ADD SWAP1 POP SWAP3 SWAP2 POP POP JUMP JUMPDEST PUSH1 0x0 DUP1 REVERT JUMPDEST DUP3 DUP2 DUP4 CALLDATACOPY POP POP POP JUMP JUMPDEST PUSH1 0x0 PUSH2 0x26DE DUP4 DUP6 PUSH2 0x26B3 JUMP JUMPDEST SWAP4 POP PUSH32 0x7FFFFFFFFFFFFFFFFFFFFFFFFFFFFFFFFFFFFFFFFFFFFFFFFFFFFFFFFFFFFFF DUP4 GT ISZERO PUSH2 0x2711 JUMPI PUSH2 0x2710 PUSH2 0x26C4 JUMP JUMPDEST JUMPDEST PUSH1 0x20 DUP4 MUL SWAP3 POP PUSH2 0x2722 DUP4 DUP6 DUP5 PUSH2 0x26C9 JUMP JUMPDEST DUP3 DUP5 ADD SWAP1 POP SWAP4 SWAP3 POP POP POP JUMP JUMPDEST PUSH1 0x0 PUSH1 0x40 DUP3 ADD SWAP1 POP DUP2 DUP2 SUB PUSH1 0x0 DUP4 ADD MSTORE PUSH2 0x2749 DUP2 DUP6 DUP8 PUSH2 0x26D2 JUMP JUMPDEST SWAP1 POP PUSH2 0x2758 PUSH1 0x20 DUP4 ADD DUP5 PUSH2 0x1CFC JUMP JUMPDEST SWAP5 SWAP4 POP POP POP POP JUMP JUMPDEST PUSH32 0x5265656E7472616E637947756172643A207265656E7472616E742063616C6C00 PUSH1 0x0 DUP3 ADD MSTORE POP JUMP JUMPDEST PUSH1 0x0 PUSH2 0x2796 PUSH1 0x1F DUP4 PUSH2 0x22E3 JUMP JUMPDEST SWAP2 POP PUSH2 0x27A1 DUP3 PUSH2 0x2760 JUMP JUMPDEST PUSH1 0x20 DUP3 ADD SWAP1 POP SWAP2 SWAP1 POP JUMP JUMPDEST PUSH1 0x0 PUSH1 0x20 DUP3 ADD SWAP1 POP DUP2 DUP2 SUB PUSH1 0x0 DUP4 ADD MSTORE PUSH2 0x27C5 DUP2 PUSH2 0x2789 JUMP JUMPDEST SWAP1 POP SWAP2 SWAP1 POP JUMP JUMPDEST PUSH1 0x0 DUP2 MLOAD SWAP1 POP PUSH2 0x27DB DUP2 PUSH2 0x1E37 JUMP JUMPDEST SWAP3 SWAP2 POP POP JUMP JUMPDEST PUSH1 0x0 PUSH1 0x20 DUP3 DUP5 SUB SLT ISZERO PUSH2 0x27F7 JUMPI PUSH2 0x27F6 PUSH2 0x1BB3 JUMP JUMPDEST JUMPDEST PUSH1 0x0 PUSH2 0x2805 DUP5 DUP3 DUP6 ADD PUSH2 0x27CC JUMP JUMPDEST SWAP2 POP POP SWAP3 SWAP2 POP POP JUMP JUMPDEST PUSH32 0x596F7520646F6E277420686F6C64207468697320746F6B656E00000000000000 PUSH1 0x0 DUP3 ADD MSTORE POP JUMP JUMPDEST PUSH1 0x0 PUSH2 0x2844 PUSH1 0x19 DUP4 PUSH2 0x22E3 JUMP JUMPDEST SWAP2 POP PUSH2 0x284F DUP3 PUSH2 0x280E JUMP JUMPDEST PUSH1 0x20 DUP3 ADD SWAP1 POP SWAP2 SWAP1 POP JUMP JUMPDEST PUSH1 0x0 PUSH1 0x20 DUP3 ADD SWAP1 POP DUP2 DUP2 SUB PUSH1 0x0 DUP4 ADD MSTORE PUSH2 0x2873 DUP2 PUSH2 0x2837 JUMP JUMPDEST SWAP1 POP SWAP2 SWAP1 POP JUMP JUMPDEST PUSH1 0x0 PUSH1 0x60 DUP3 ADD SWAP1 POP PUSH2 0x288F PUSH1 0x0 DUP4 ADD DUP7 PUSH2 0x20BA JUMP JUMPDEST PUSH2 0x289C PUSH1 0x20 DUP4 ADD DUP6 PUSH2 0x20BA JUMP JUMPDEST PUSH2 0x28A9 PUSH1 0x40 DUP4 ADD DUP5 PUSH2 0x1CFC JUMP JUMPDEST SWAP5 SWAP4 POP POP POP POP JUMP JUMPDEST PUSH1 0x0 PUSH1 0x20 DUP3 ADD SWAP1 POP DUP2 DUP2 SUB PUSH1 0x0 DUP4 ADD MSTORE PUSH2 0x28CC DUP2 DUP5 DUP7 PUSH2 0x26D2 JUMP JUMPDEST SWAP1 POP SWAP4 SWAP3 POP POP POP JUMP JUMPDEST PUSH32 0x496E76616C6964206C6F636B20706572696F642E000000000000000000000000 PUSH1 0x0 DUP3 ADD MSTORE POP JUMP JUMPDEST PUSH1 0x0 PUSH2 0x290B PUSH1 0x14 DUP4 PUSH2 0x22E3 JUMP JUMPDEST SWAP2 POP PUSH2 0x2916 DUP3 PUSH2 0x28D5 JUMP JUMPDEST PUSH1 0x20 DUP3 ADD SWAP1 POP SWAP2 SWAP1 POP JUMP JUMPDEST PUSH1 0x0 PUSH1 0x20 DUP3 ADD SWAP1 POP DUP2 DUP2 SUB PUSH1 0x0 DUP4 ADD MSTORE PUSH2 0x293A DUP2 PUSH2 0x28FE JUMP JUMPDEST SWAP1 POP SWAP2 SWAP1 POP JUMP JUMPDEST PUSH32 0x496E76616C6964206C6F636B20706572696F6400000000000000000000000000 PUSH1 0x0 DUP3 ADD MSTORE POP JUMP JUMPDEST PUSH1 0x0 PUSH2 0x2977 PUSH1 0x13 DUP4 PUSH2 0x22E3 JUMP JUMPDEST SWAP2 POP PUSH2 0x2982 DUP3 PUSH2 0x2941 JUMP JUMPDEST PUSH1 0x20 DUP3 ADD SWAP1 POP SWAP2 SWAP1 POP JUMP JUMPDEST PUSH1 0x0 PUSH1 0x20 DUP3 ADD SWAP1 POP DUP2 DUP2 SUB PUSH1 0x0 DUP4 ADD MSTORE PUSH2 0x29A6 DUP2 PUSH2 0x296A JUMP JUMPDEST SWAP1 POP SWAP2 SWAP1 POP JUMP JUMPDEST PUSH32 0x4E6F742061626C6520746F20756E6C6F636B2079657400000000000000000000 PUSH1 0x0 DUP3 ADD MSTORE POP JUMP JUMPDEST PUSH1 0x0 PUSH2 0x29E3 PUSH1 0x16 DUP4 PUSH2 0x22E3 JUMP JUMPDEST SWAP2 POP PUSH2 0x29EE DUP3 PUSH2 0x29AD JUMP JUMPDEST PUSH1 0x20 DUP3 ADD SWAP1 POP SWAP2 SWAP1 POP JUMP JUMPDEST PUSH1 0x0 PUSH1 0x20 DUP3 ADD SWAP1 POP DUP2 DUP2 SUB PUSH1 0x0 DUP4 ADD MSTORE PUSH2 0x2A12 DUP2 PUSH2 0x29D6 JUMP JUMPDEST SWAP1 POP SWAP2 SWAP1 POP JUMP JUMPDEST PUSH32 0x4F776E61626C653A206E6577206F776E657220697320746865207A65726F2061 PUSH1 0x0 DUP3 ADD MSTORE PUSH32 0x6464726573730000000000000000000000000000000000000000000000000000 PUSH1 0x20 DUP3 ADD MSTORE POP JUMP JUMPDEST PUSH1 0x0 PUSH2 0x2A75 PUSH1 0x26 DUP4 PUSH2 0x22E3 JUMP JUMPDEST SWAP2 POP PUSH2 0x2A80 DUP3 PUSH2 0x2A19 JUMP JUMPDEST PUSH1 0x40 DUP3 ADD SWAP1 POP SWAP2 SWAP1 POP JUMP JUMPDEST PUSH1 0x0 PUSH1 0x20 DUP3 ADD SWAP1 POP DUP2 DUP2 SUB PUSH1 0x0 DUP4 ADD MSTORE PUSH2 0x2AA4 DUP2 PUSH2 0x2A68 JUMP JUMPDEST SWAP1 POP SWAP2 SWAP1 POP JUMP JUMPDEST PUSH1 0x0 PUSH2 0x2AB6 DUP3 PUSH2 0x1CF2 JUMP JUMPDEST SWAP2 POP PUSH2 0x2AC1 DUP4 PUSH2 0x1CF2 JUMP JUMPDEST SWAP3 POP DUP2 PUSH32 0xFFFFFFFFFFFFFFFFFFFFFFFFFFFFFFFFFFFFFFFFFFFFFFFFFFFFFFFFFFFFFFFF DIV DUP4 GT DUP3 ISZERO ISZERO AND ISZERO PUSH2 0x2AFA JUMPI PUSH2 0x2AF9 PUSH2 0x24D3 JUMP JUMPDEST JUMPDEST DUP3 DUP3 MUL SWAP1 POP SWAP3 SWAP2 POP POP JUMP JUMPDEST PUSH32 0x4E487B7100000000000000000000000000000000000000000000000000000000 PUSH1 0x0 MSTORE PUSH1 0x12 PUSH1 0x4 MSTORE PUSH1 0x24 PUSH1 0x0 REVERT JUMPDEST PUSH1 0x0 PUSH2 0x2B3F DUP3 PUSH2 0x1CF2 JUMP JUMPDEST SWAP2 POP PUSH2 0x2B4A DUP4 PUSH2 0x1CF2 JUMP JUMPDEST SWAP3 POP DUP3 PUSH2 0x2B5A JUMPI PUSH2 0x2B59 PUSH2 0x2B05 JUMP JUMPDEST JUMPDEST DUP3 DUP3 DIV SWAP1 POP SWAP3 SWAP2 POP POP JUMP JUMPDEST PUSH32 0x4F776E61626C653A2063616C6C6572206973206E6F7420746865206F776E6572 PUSH1 0x0 DUP3 ADD MSTORE POP JUMP JUMPDEST PUSH1 0x0 PUSH2 0x2B9B PUSH1 0x20 DUP4 PUSH2 0x22E3 JUMP JUMPDEST SWAP2 POP PUSH2 0x2BA6 DUP3 PUSH2 0x2B65 JUMP JUMPDEST PUSH1 0x20 DUP3 ADD SWAP1 POP SWAP2 SWAP1 POP JUMP JUMPDEST PUSH1 0x0 PUSH1 0x20 DUP3 ADD SWAP1 POP DUP2 DUP2 SUB PUSH1 0x0 DUP4 ADD MSTORE PUSH2 0x2BCA DUP2 PUSH2 0x2B8E JUMP JUMPDEST SWAP1 POP SWAP2 SWAP1 POP JUMP INVALID LOG2 PUSH5 0x6970667358 0x22 SLT KECCAK256 COINBASE 0xCA JUMPDEST SWAP9 0x24 PUSH13 0x1877C54F52BE6FB09D6B06F04A 0xDB 0x4C DUP5 PUSH19 0xB42A4D336A3CE750A864736F6C634300081000 CALLER "
				},
				"gasEstimates": {
					"creation": {
						"codeDepositCost": "2254200",
						"executionCost": "infinite",
						"totalCost": "infinite"
					},
					"external": {
						"WAVE()": "2473",
						"claimRewards(uint256[],address)": "infinite",
						"claimedRewards(uint256,address)": "infinite",
						"lockInfo(address,uint256)": "infinite",
						"lockNFT(uint256[],address)": "infinite",
						"lockPeriod()": "2474",
						"nftInfo(address)": "infinite",
						"owner()": "2545",
						"renounceOwnership()": "30465",
						"setLockPeriod(address[],address[],uint256,uint256[],uint256[],uint256)": "infinite",
						"setLockPeriod(uint256)": "infinite",
						"transferOwnership(address)": "30832",
						"unlockNFT(uint256[],address)": "infinite"
					},
					"internal": {
						"_rewardAmount(uint256,contract IERC721)": "infinite"
					}
				},
				"methodIdentifiers": {
					"WAVE()": "c69d1923",
					"claimRewards(uint256[],address)": "0520537f",
					"claimedRewards(uint256,address)": "b33068c4",
					"lockInfo(address,uint256)": "b2520a7c",
					"lockNFT(uint256[],address)": "1902732e",
					"lockPeriod()": "3fd8b02f",
					"nftInfo(address)": "e9545b92",
					"owner()": "8da5cb5b",
					"renounceOwnership()": "715018a6",
					"setLockPeriod(address[],address[],uint256,uint256[],uint256[],uint256)": "85e6c27c",
					"setLockPeriod(uint256)": "779972da",
					"transferOwnership(address)": "f2fde38b",
					"unlockNFT(uint256[],address)": "9f3625f0"
				}
			},
			"storageLayout": {
				"storage": [
					{
						"astId": 7,
						"contract": "contracts/Staking.sol:NFTStaking1",
						"label": "_owner",
						"offset": 0,
						"slot": "0",
						"type": "t_address"
					},
					{
						"astId": 123,
						"contract": "contracts/Staking.sol:NFTStaking1",
						"label": "_status",
						"offset": 0,
						"slot": "1",
						"type": "t_uint256"
					},
					{
						"astId": 614,
						"contract": "contracts/Staking.sol:NFTStaking1",
						"label": "lockPeriod",
						"offset": 0,
						"slot": "2",
						"type": "t_uint256"
					},
					{
						"astId": 634,
						"contract": "contracts/Staking.sol:NFTStaking1",
						"label": "lockInfo",
						"offset": 0,
						"slot": "3",
						"type": "t_mapping(t_contract(IERC721)268,t_mapping(t_uint256,t_struct(LockInfo)626_storage))"
					},
					{
						"astId": 648,
						"contract": "contracts/Staking.sol:NFTStaking1",
						"label": "nftInfo",
						"offset": 0,
						"slot": "4",
						"type": "t_mapping(t_contract(IERC721)268,t_struct(stakeNftInfo)642_storage)"
					},
					{
						"astId": 651,
						"contract": "contracts/Staking.sol:NFTStaking1",
						"label": "WAVE",
						"offset": 0,
						"slot": "5",
						"type": "t_uint256"
					}
				],
				"types": {
					"t_address": {
						"encoding": "inplace",
						"label": "address",
						"numberOfBytes": "20"
					},
					"t_bool": {
						"encoding": "inplace",
						"label": "bool",
						"numberOfBytes": "1"
					},
					"t_contract(IERC721)268": {
						"encoding": "inplace",
						"label": "contract IERC721",
						"numberOfBytes": "20"
					},
					"t_contract(IRewardsToken)1365": {
						"encoding": "inplace",
						"label": "contract IRewardsToken",
						"numberOfBytes": "20"
					},
					"t_mapping(t_contract(IERC721)268,t_mapping(t_uint256,t_struct(LockInfo)626_storage))": {
						"encoding": "mapping",
						"key": "t_contract(IERC721)268",
						"label": "mapping(contract IERC721 => mapping(uint256 => struct NFTStaking1.LockInfo))",
						"numberOfBytes": "32",
						"value": "t_mapping(t_uint256,t_struct(LockInfo)626_storage)"
					},
					"t_mapping(t_contract(IERC721)268,t_struct(stakeNftInfo)642_storage)": {
						"encoding": "mapping",
						"key": "t_contract(IERC721)268",
						"label": "mapping(contract IERC721 => struct NFTStaking1.stakeNftInfo)",
						"numberOfBytes": "32",
						"value": "t_struct(stakeNftInfo)642_storage"
					},
					"t_mapping(t_uint256,t_struct(LockInfo)626_storage)": {
						"encoding": "mapping",
						"key": "t_uint256",
						"label": "mapping(uint256 => struct NFTStaking1.LockInfo)",
						"numberOfBytes": "32",
						"value": "t_struct(LockInfo)626_storage"
					},
					"t_struct(LockInfo)626_storage": {
						"encoding": "inplace",
						"label": "struct NFTStaking1.LockInfo",
						"members": [
							{
								"astId": 616,
								"contract": "contracts/Staking.sol:NFTStaking1",
								"label": "owner",
								"offset": 0,
								"slot": "0",
								"type": "t_address"
							},
							{
								"astId": 618,
								"contract": "contracts/Staking.sol:NFTStaking1",
								"label": "lockedTime",
								"offset": 0,
								"slot": "1",
								"type": "t_uint256"
							},
							{
								"astId": 620,
								"contract": "contracts/Staking.sol:NFTStaking1",
								"label": "claimedRewards",
								"offset": 0,
								"slot": "2",
								"type": "t_uint256"
							},
							{
								"astId": 622,
								"contract": "contracts/Staking.sol:NFTStaking1",
								"label": "isUnlocked",
								"offset": 0,
								"slot": "3",
								"type": "t_bool"
							},
							{
								"astId": 625,
								"contract": "contracts/Staking.sol:NFTStaking1",
								"label": "contractAddress",
								"offset": 1,
								"slot": "3",
								"type": "t_contract(IERC721)268"
							}
						],
						"numberOfBytes": "128"
					},
					"t_struct(stakeNftInfo)642_storage": {
						"encoding": "inplace",
						"label": "struct NFTStaking1.stakeNftInfo",
						"members": [
							{
								"astId": 637,
								"contract": "contracts/Staking.sol:NFTStaking1",
								"label": "rewardsToken",
								"offset": 0,
								"slot": "0",
								"type": "t_contract(IRewardsToken)1365"
							},
							{
								"astId": 639,
								"contract": "contracts/Staking.sol:NFTStaking1",
								"label": "rewardsPerWave",
								"offset": 0,
								"slot": "1",
								"type": "t_uint256"
							},
							{
								"astId": 641,
								"contract": "contracts/Staking.sol:NFTStaking1",
								"label": "rewardPercentage",
								"offset": 0,
								"slot": "2",
								"type": "t_uint256"
							}
						],
						"numberOfBytes": "96"
					},
					"t_uint256": {
						"encoding": "inplace",
						"label": "uint256",
						"numberOfBytes": "32"
					}
				}
			},
			"userdoc": {
				"kind": "user",
				"methods": {
					"WAVE()": {
						"notice": "CONSTANTS "
					}
				},
				"version": 1
			}
		}
	}
}